REC2015111220151112ISUZU                              10     
MAKK5N057835201511D4               89805293700P3YK20151123000150SPEAKER ASM                   M IMCTM CM1    FTTL  07070IMKDC 01   PTB00003  K0                1621DES        000000000000 FUJITSU TEN (THAILAN                                                                                                                                            *G         20151112IMF1511124.TXT
MAKK5N057836201511D4               89805293700P3YK20151124000120SPEAKER ASM                   M IMCTM CM1    FTTL  07070IMKDC 01   PTB00003  K0                1621DES        000000000000 FUJITSU TEN (THAILAN                                                                                                                                            *G         20151112IMF1511124.TXT
MAKK5N057837201511D4               89805293700P3YK20151125000090SPEAKER ASM                   M IMCTM CM1    FTTL  07070IMKDC 01   PTB00003  K0                1621DES        000000000000 FUJITSU TEN (THAILAN                                                                                                                                            *G         20151112IMF1511124.TXT
MAKK5N057838201511D4               89805293700P3YK20151126000120SPEAKER ASM                   M IMCTM CM1    FTTL  07070IMKDC 01   PTB00003  K0                1621DES        000000000000 FUJITSU TEN (THAILAN                                                                                                                                            *G         20151112IMF1511124.TXT
MAKK5N057839201511D4               89805293700P3YK20151127000150SPEAKER ASM                   M IMCTM CM1    FTTL  07070IMKDC 01   PTB00003  K0                1621DES        000000000000 FUJITSU TEN (THAILAN                                                                                                                                            *G         20151112IMF1511124.TXT
MAKK5N057840201511D4               89805294000P3YK20151123000030SPEAKER ASM                   M IMCTM CM1    FTTL  07070IMKDC 01   PTB00015  K0                1621DES        000000000000 FUJITSU TEN (THAILAN                                                                                                                                            *G         20151112IMF1511124.TXT
MAKK5N057841201511D4               89805294100P3YK20151123000030SPEAKER ASM                   M IMCTM CM1    FTTL  07070IMKDC 01   PTB00005  K0                1621DES        000000000000 FUJITSU TEN (THAILAN                                                                                                                                            *G         20151112IMF1511124.TXT
MAKK5N057842201511D4               89805294200P3YK20151123000030SPEAKER ASM                   M IMCTM CM1    FTTL  07070IMKDC 01 X    00030  K0                1621DES        000000000000 FUJITSU TEN (THAILAN                                                                                                                                            *G         20151112IMF1511124.TXT
MAKK5N057843201511D4               89806470400P3YK20151123000015SPEAKER ASM;RDO,              M IMCTM CM1    FTTL  07070IMKDC 01   PTB00015  K0                1621DES        000000000000 FUJITSU TEN (THAILAN                                                                                                                                            *G         20151112IMF1511124.TXT
MAKK5N057844201511D4               89812857000P3YK20151123000030BRACKET;EXCITER               M IMCTM CS1    FTTL  07070IMKDC 20 X    00015  K0                1621DES        000000000000 FUJITSU TEN (THAILAN                                                                                                                                            *G         20151112IMF1511124.TXT
