REC2015112020151120ISUZU                              6      
MDEFFNT18554201511                D89805293700PV4F20151126000030SPEAKER ASM                   M IMCTM S7FR05 FTTL  07070IMCT  S7 PTB  00003                    1100 SR        000000000000 FUJITSU TEN (THAILAN15049DR0073   15067FR0001   S151105501    S151105515    000000                                                                              *R         20151120RDF1511206.TXT
MDEFFNT18555201511                D89805294000PT4F20151125000026SPEAKER ASM                   M IMCTM S7TS02 FTTL  07070IMCT  S7 PTB  00015                    1510 SR        000000000000 FUJITSU TEN (THAILAN15039GR0013   15085GR0024   D151105303    D151105315    000000                                                                              *R         20151120RDF1511206.TXT
MDEFFNT18556201511                D89805294100PV4F20151125000016SPEAKER ASM                   M IMCTM S7FR05 FTTL  07070IMCT  S7 PTB  00005                    1510 SR        000000000000 FUJITSU TEN (THAILAN15039GR0013   15085GR0024   D151105303    D151105315    000000                                                                              *R         20151120RDF1511206.TXT
MDEFFNT18557201511                D89824135820PT4F20151125000008RADIO;AM/FM,CD,F              M IMCTM S7TS03 FTTL  07070IMCT  S7 CPB  00003                    1510 SR        000000000000 FUJITSU TEN (THAILAN15039GR0013   15085GR0024   D151105303    D151105315    000000                                                                              *R         20151120RDF1511206.TXT
MDEFFN254025201511                D89805293700PV4F20151125000030SPEAKER ASM                   M IMCTM S7FR05 FTTL  07070IMCT  S7 PTB  00003                    1510 SR        000000000000 FUJITSU TEN (THAILAN15036GR0011   15085GR0024   D151105301    D151105315    000000                                                                              *R         20151120RDF1511206.TXT
MDEFFN254026201511                D89805293700PV4F20151125000030SPEAKER ASM                   M IMCTM S7FR05 FTTL  07070IMCT  S7 PTB  00003                    2300 SR        000000000000 FUJITSU TEN (THAILAN15001CR0078   15048FR0003   R151105401    R151105415    000000                                                                              *R         20151120RDF1511206.TXT
