REC2015122420151224ISUZU                              4      
MHD6FD271281201601                D89828070100PV5620160104000060SPEAKER ASM                   M IMCTM G9B112 FTTL  07070G/WAY G9 PTB  00004 C                  0900 GW        000000000000 FUJITSU TEN (THAILAN160JZBG0009009                                                                                                                              *          00000000IMF1512244.TXT
MHD6FD271286201601                D89828070200PV5620160104000060SPEAKER ASM                   M IMCTM G9F132 FTTL  07070G/WAY G9 PTB  00005 C                  0900 GW        000000000000 FUJITSU TEN (THAILAN160JZBG0009009                                                                                                                              *          00000000IMF1512244.TXT
MHD6FD271289201601                D89828070300PT5620160104000060SPEAKER ASM                   M IMCTM G9JB34 FTTL  07070G/WAY G9 PTB  00015 C                  0900 GW        000000000000 FUJITSU TEN (THAILAN160JZBG0009009                                                                                                                              *          00000000IMF1512244.TXT
MHD6FD271294201601                D89831228400PT5620160104000030RADIO;AM/FM,CD                M IMCTM G9J311 FTTL  07070G/WAY G9 CPB  00003 C                  0900 GW        000000000000 FUJITSU TEN (THAILAN160JZBG0009009                                                                                                                              *          00000000IMF1512244.TXT
