REC2015122120151222ISUZU                              5      
MDEBFDT02240201512                D89805293700PV4B20151224000030SPEAKER ASM                   M IMCTM S7FL05 FTTL  07070IMCT  S7 PTB  00003                    1510 SR        000000000000 FUJITSU TEN (THAILAN150A27R0005   150B22R0014   Y151205901    Y151205915    000000                                                                              *R         20151221RDF1512214.TXT
MDEBFDT02241201512                D89805294000PT4B20151224000030SPEAKER ASM                   M IMCTM S7TS02 FTTL  07070IMCT  S7 PTB  00015                    1510 SR        000000000000 FUJITSU TEN (THAILAN150A27R0005   150B22R0014   Y151205901    Y151205915    000000                                                                              *R         20151221RDF1512214.TXT
MDEBFDT02242201512                D89805294100PV4B20151224000030SPEAKER ASM                   M IMCTM S7FL05 FTTL  07070IMCT  S7 PTB  00005                    1510 SR        000000000000 FUJITSU TEN (THAILAN150A27R0005   150B22R0014   Y151205901    Y151205915    000000                                                                              *R         20151221RDF1512214.TXT
MDEBFDT02243201512                D89805294200PT4B20151224000002SPEAKER ASM                   M IMCTM S7S137 FTTL  07070IMCT  S7 PTB  00030                    1510 SR        000000000000 FUJITSU TEN (THAILAN150A27R0005   150A27R0005   Y151205901    Y151205901    000000                                                                              *R         20151221RDF1512214.TXT
MDEBFDT02244201512                D89806470400PT4B20151224000001SPEAKER ASM;RDO,              M IMCTM S7TL03 FTTL  07070IMCT  S7 PTB  00015                    1510 SR        000000000000 FUJITSU TEN (THAILAN150A27R0005   150A27R0005   Y151205901    Y151205901    000000                                                                              *R         20151221RDF1512214.TXT
