REC2015121220151212ISUZU                              3      
MAEDFD605667201603                 89828070100PV4D20160223000014SPEAKER ASM                   M IMCTM ST00000FTTL  07070IMCT  ST PTB  00004  DC                0000 SR        000000000000 FUJITSU TEN (THAILAN17009LU000100117010LU000100117012LU000100317013LU000100117014LU0001001                                                                      *P         20151212IMF1512122.TXT
MAEDFD605668201603                 89828070200PV4D20160223000014SPEAKER ASM                   M IMCTM ST00000FTTL  07070IMCT  ST PTB  00005  DC                0000 SR        000000000000 FUJITSU TEN (THAILAN17009LU000100117010LU000100117012LU000100317013LU000100117014LU0001001                                                                      *P         20151212IMF1512122.TXT
MAEDFD605669201603                 89828070300PT4D20160223000014SPEAKER ASM                   M IMCTM ST00000FTTL  07070IMCT  ST PTB  00015  DC                0000 SR        000000000000 FUJITSU TEN (THAILAN17009LU000100117010LU000100117012LU000100317013LU000100117014LU0001001                                                                      *P         20151212IMF1512122.TXT
