REC2015120920151211ISUZU                              9      
MAKK5D015014201512D4               89805293700P3YK20151221000210SPEAKER ASM                   M IMCTM CM1    FTTL  07070IMKDC 01   PTB00003  K0                1621DES        000000000000 FUJITSU TEN (THAILAN                                                                                                                                            *G         20151209IMF1512096.TXT
MAKK5D015015201512D4               89805293700P3YK20151222000150SPEAKER ASM                   M IMCTM CM1    FTTL  07070IMKDC 01   PTB00003  K0                1621DES        000000000000 FUJITSU TEN (THAILAN                                                                                                                                            *G         20151209IMF1512096.TXT
MAKK5D015016201512D4               89805293700P3YK20151223000180SPEAKER ASM                   M IMCTM CM1    FTTL  07070IMKDC 01   PTB00003  K0                1621DES        000000000000 FUJITSU TEN (THAILAN                                                                                                                                            *G         20151209IMF1512096.TXT
MAKK5D015017201512D4               89805293700P3YK20151224000150SPEAKER ASM                   M IMCTM CM1    FTTL  07070IMKDC 01   PTB00003  K0                1621DES        000000000000 FUJITSU TEN (THAILAN                                                                                                                                            *G         20151209IMF1512096.TXT
MAKK5D015018201512D4               89805294000P3YK20151221000030SPEAKER ASM                   M IMCTM CM1    FTTL  07070IMKDC 01   PTB00015  K0                1621DES        000000000000 FUJITSU TEN (THAILAN                                                                                                                                            *G         20151209IMF1512096.TXT
MAKK5D015019201512D4               89805294100P3YK20151221000030SPEAKER ASM                   M IMCTM CM1    FTTL  07070IMKDC 01   PTB00005  K0                1621DES        000000000000 FUJITSU TEN (THAILAN                                                                                                                                            *G         20151209IMF1512096.TXT
MAKK5D015020201512D4               89805294200P3YK20151221000030SPEAKER ASM                   M IMCTM CM1    FTTL  07070IMKDC 01 X    00030  K0                1621DES        000000000000 FUJITSU TEN (THAILAN                                                                                                                                            *G         20151209IMF1512096.TXT
MAKK5D015021201512D4               89806470400P3YK20151221000015SPEAKER ASM;RDO,              M IMCTM CM1    FTTL  07070IMKDC 01   PTB00015  K0                1621DES        000000000000 FUJITSU TEN (THAILAN                                                                                                                                            *G         20151209IMF1512096.TXT
MAKK5D015022201512D4               89812857000P3YK20151221000030BRACKET;EXCITER               M IMCTM CS1    FTTL  07070IMKDC 20 X    00015  K0                1621DES        000000000000 FUJITSU TEN (THAILAN                                                                                                                                            *G         20151209IMF1512096.TXT
