REC2015120320151203ISUZU                              3      
MAEDFD600430201602                 89828070100PV1D20160201000008SPEAKER ASM                   M IMCTM ST00000FTTL  07070IMCT  ST PTB  00004  DC                0000 SR        000000000000 FUJITSU TEN (THAILAN17025HL000100117031HL000100117035HL000100117040HL0001001                                                                                    *P         20151203IMF1512032.TXT
MAEDFD600431201602                 89828070200PV1D20160201000004SPEAKER ASM                   M IMCTM ST00000FTTL  07070IMCT  ST PTB  00005  DC                0000 SR        000000000000 FUJITSU TEN (THAILAN17035HL000100117040HL0001001                                                                                                                *P         20151203IMF1512032.TXT
MAEDFD600432201602                 89828070300PT1D20160201000006SPEAKER ASM                   M IMCTM ST00000FTTL  07070IMCT  ST PTB  00015  DC                0000 SR        000000000000 FUJITSU TEN (THAILAN17031HL000100117035HL000100117040HL0001001                                                                                                  *P         20151203IMF1512032.TXT
