REC2015121220151212ISUZU                              3      
MAEDFD603958201603                 89828070100PV1D20160223000012SPEAKER ASM                   M IMCTM ST00000FTTL  07070IMCT  ST PTB  00004  DC                0000 SR        000000000000 FUJITSU TEN (THAILAN17009LL000100217010LL000100117012LL000100217013LL0001001                                                                                    *P         20151212IMF1512121.TXT
MAEDFD603959201603                 89828070200PV1D20160223000012SPEAKER ASM                   M IMCTM ST00000FTTL  07070IMCT  ST PTB  00005  DC                0000 SR        000000000000 FUJITSU TEN (THAILAN17009LL000100217010LL000100117012LL000100217013LL0001001                                                                                    *P         20151212IMF1512121.TXT
MAEDFD603960201603                 89828070300PT1D20160223000012SPEAKER ASM                   M IMCTM ST00000FTTL  07070IMCT  ST PTB  00015  DC                0000 SR        000000000000 FUJITSU TEN (THAILAN17009LL000100217010LL000100117012LL000100217013LL0001001                                                                                    *P         20151212IMF1512121.TXT
