REC2015122220151223ISUZU                              10     
MDEFFDT18940201601                D89805293700PV4F20160105000012SPEAKER ASM                   M IMCTM S7FR05 FTTL  07070IMCT  S7 PTB  00003                    0800 SR        000000000000 FUJITSU TEN (THAILAN15023DR0074   15072FR0022   D160100210    D160100215    000000                                                                              *R         20151222RDF1512226.TXT
MDEFFDT18941201601                D89805294000PT4F20160104000022SPEAKER ASM                   M IMCTM S7TS02 FTTL  07070IMCT  S7 PTB  00015                    1510 SR        000000000000 FUJITSU TEN (THAILAN15013FR0036   15068GR0031   D160100201    D160100213    000000                                                                              *R         20151222RDF1512226.TXT
MDEFFDT18942201601                D89805294100PV4F20160105000001SPEAKER ASM                   M IMCTM S7FR05 FTTL  07070IMCT  S7 PTB  00005                    0800 SR        000000000000 FUJITSU TEN (THAILAN15068GR0031   15068GR0031   D160100213    D160100213    000000                                                                              *R         20151222RDF1512226.TXT
MDEFFDT18943201601                D89805294200PT4F20160104000010SPEAKER ASM                   M IMCTM S7S137 FTTL  07070IMCT  S7 PTB  00030                    1510 SR        000000000000 FUJITSU TEN (THAILAN15013FR0036   15013FR0040   D160100201    D160100205    000000                                                                              *R         20151222RDF1512226.TXT
MDEFFDT18944201601                D89806470400PT4F20160104000005SPEAKER ASM;RDO,              M IMCTM S7TL03 FTTL  07070IMCT  S7 PTB  00015                    1510 SR        000000000000 FUJITSU TEN (THAILAN15013FR0036   15013FR0040   D160100201    D160100205    000000                                                                              *R         20151222RDF1512226.TXT
MDEFFDT18945201601                D89824135820PT4F20160104000003RADIO;AM/FM,CD,F              M IMCTM S7TS03 FTTL  07070IMCT  S7 CPB  00003                    1510 SR        000000000000 FUJITSU TEN (THAILAN15070GR0009   15068GR0031   D160100208    D160100213    000000                                                                              *R         20151222RDF1512226.TXT
MDEFFD256198201601                D89805293700PV4F20160103000021SPEAKER ASM                   M IMCTM S7FR05 FTTL  07070IMCT  S7 PTB  00003                    1510 SR        000000000000 FUJITSU TEN (THAILAN15044DR0045   15054CR0068   R160100101    R160100111    000000                                                                              *R         20151222RDF1512226.TXT
MDEFFD256199201601                D89805293700PV4F20160104000009SPEAKER ASM                   M IMCTM S7FR05 FTTL  07070IMCT  S7 PTB  00003                    0800 SR        000000000000 FUJITSU TEN (THAILAN15054CR0068   15054FR0013   R160100111    R160100115    000000                                                                              *R         20151222RDF1512226.TXT
MDEFFD256200201601                D89805293700PV4F20160104000018SPEAKER ASM                   M IMCTM S7FR05 FTTL  07070IMCT  S7 PTB  00003                    1510 SR        000000000000 FUJITSU TEN (THAILAN15013FR0036   15023DR0073   D160100201    D160100209    000000                                                                              *R         20151222RDF1512226.TXT
MDEFFD256201201601                D89805294100PV4F20160104000005SPEAKER ASM                   M IMCTM S7FR05 FTTL  07070IMCT  S7 PTB  00005                    1510 SR        000000000000 FUJITSU TEN (THAILAN15070GR0009   15068GR0031   D160100208    D160100213    000000                                                                              *R         20151222RDF1512226.TXT
