REC2016012120160121ISUZU                              15     
MAKK61088806201601D4               89805293700P3YK20160201000270SPEAKER ASM                   M IMCTM CM1    FTTL  07070IMKDC 01   PTB00003  K0                1621DES        000000000000 FUJITSU TEN (THAILAN                                                                                                                                            *G         20160121IMF1601211.TXT
MAKK61088807201601D4               89805293700P3YK20160202000270SPEAKER ASM                   M IMCTM CM1    FTTL  07070IMKDC 01   PTB00003  K0                1621DES        000000000000 FUJITSU TEN (THAILAN                                                                                                                                            *G         20160121IMF1601211.TXT
MAKK61088808201601D4               89805293700P3YK20160203000270SPEAKER ASM                   M IMCTM CM1    FTTL  07070IMKDC 01   PTB00003  K0                1621DES        000000000000 FUJITSU TEN (THAILAN                                                                                                                                            *G         20160121IMF1601211.TXT
MAKK61088809201601D4               89805293700P3YK20160204000240SPEAKER ASM                   M IMCTM CM1    FTTL  07070IMKDC 01   PTB00003  K0                1621DES        000000000000 FUJITSU TEN (THAILAN                                                                                                                                            *G         20160121IMF1601211.TXT
MAKK61088810201601D4               89805293700P3YK20160205000300SPEAKER ASM                   M IMCTM CM1    FTTL  07070IMKDC 01   PTB00003  K0                1621DES        000000000000 FUJITSU TEN (THAILAN                                                                                                                                            *G         20160121IMF1601211.TXT
MAKK61088811201601D4               89805294000P3YK20160201000030SPEAKER ASM                   M IMCTM CM1    FTTL  07070IMKDC 01   PTB00015  K0                1621DES        000000000000 FUJITSU TEN (THAILAN                                                                                                                                            *G         20160121IMF1601211.TXT
MAKK61088812201601D4               89805294000P3YK20160203000060SPEAKER ASM                   M IMCTM CM1    FTTL  07070IMKDC 01   PTB00015  K0                1621DES        000000000000 FUJITSU TEN (THAILAN                                                                                                                                            *G         20160121IMF1601211.TXT
MAKK61088813201601D4               89805294000P3YK20160204000030SPEAKER ASM                   M IMCTM CM1    FTTL  07070IMKDC 01   PTB00015  K0                1621DES        000000000000 FUJITSU TEN (THAILAN                                                                                                                                            *G         20160121IMF1601211.TXT
MAKK61088814201601D4               89805294100P3YK20160201000030SPEAKER ASM                   M IMCTM CM1    FTTL  07070IMKDC 01   PTB00005  K0                1621DES        000000000000 FUJITSU TEN (THAILAN                                                                                                                                            *G         20160121IMF1601211.TXT
MAKK61088815201601D4               89805294100P3YK20160203000060SPEAKER ASM                   M IMCTM CM1    FTTL  07070IMKDC 01   PTB00005  K0                1621DES        000000000000 FUJITSU TEN (THAILAN                                                                                                                                            *G         20160121IMF1601211.TXT
MAKK61088816201601D4               89805294100P3YK20160204000030SPEAKER ASM                   M IMCTM CM1    FTTL  07070IMKDC 01   PTB00005  K0                1621DES        000000000000 FUJITSU TEN (THAILAN                                                                                                                                            *G         20160121IMF1601211.TXT
MAKK61088817201601D4               89805294200P3YK20160201000030SPEAKER ASM                   M IMCTM CM1    FTTL  07070IMKDC 01 X    00030  K0                1621DES        000000000000 FUJITSU TEN (THAILAN                                                                                                                                            *G         20160121IMF1601211.TXT
MAKK61088818201601D4               89806470400P3YK20160201000015SPEAKER ASM;RDO,              M IMCTM CM1    FTTL  07070IMKDC 01   PTB00015  K0                1621DES        000000000000 FUJITSU TEN (THAILAN                                                                                                                                            *G         20160121IMF1601211.TXT
MAKK61088819201601D4               89812857000P3YK20160201000030BRACKET;EXCITER               M IMCTM CS1    FTTL  07070IMKDC 20 X    00015  K0                1621DES        000000000000 FUJITSU TEN (THAILAN                                                                                                                                            *G         20160121IMF1601211.TXT
MAKK61088820201601D4               89824135720P3YK20160203000015RADIO;AM/FM,CD,F              M IMCTM CM1    FTTL  07070IMKDC 01 PTB  00003  K0                1621DES        000000000000 FUJITSU TEN (THAILAN                                                                                                                                            *G         20160121IMF1601211.TXT
