REC2016012020160120ISUZU                              3      
MAEUG1600286201604                 89828070100PT4U20160314000002SPEAKER ASM                   M IMCTM ST00000FTTL  07070IMCT  ST PTB  00004  DC                0000 SR        000000000000 FUJITSU TEN (THAILAN170B34U0002002                                                                                                                              *P         20160120IMF1601201.TXT
MAEUG1600287201604                 89828070200PV4U20160314000002SPEAKER ASM                   M IMCTM ST00000FTTL  07070IMCT  ST PTB  00005  DC                0000 SR        000000000000 FUJITSU TEN (THAILAN170B34U0002002                                                                                                                              *P         20160120IMF1601201.TXT
MAEUG1600288201604                 89828070300PT4U20160314000002SPEAKER ASM                   M IMCTM ST00000FTTL  07070IMCT  ST PTB  00015  DC                0000 SR        000000000000 FUJITSU TEN (THAILAN170B34U0002002                                                                                                                              *P         20160120IMF1601201.TXT
