REC2016012120160121ISUZU                              4      
MACK61003365201601          IMKDC  89819363100P3YK20160202000002CABLE KIT;USB                 M IMCTM IMKDC  FTTL  07070IMKDC 07*PTB  00030    K295A6740   001 0000 ES        000000000000 FUJITSU TEN (THAILAN                                                                                                                                            *          20160121IMF1601215.TXT
MACK61003366201601          IMKDC  89828070100P3YK20160204000009SPEAKER ASM                   M IMCTM IMKDC  FTTL  07070IMKDC 07*PTB  00003    K295A6760   001 0000 ES        000000000000 FUJITSU TEN (THAILAN                                                                                                                                            *          20160121IMF1601215.TXT
MACK61003367201601          IMKDC  89828070200P3YK20160204000003SPEAKER ASM                   M IMCTM IMKDC  FTTL  07070IMKDC 07*PTB  00005    K295A6760   001 0000 ES        000000000000 FUJITSU TEN (THAILAN                                                                                                                                            *          20160121IMF1601215.TXT
MACK61003368201601          IMKDC  89828070300P3YK20160204000007SPEAKER ASM                   M IMCTM IMKDC  FTTL  07070IMKDC 07*PTB  00015    K295A6760   001 0000 ES        000000000000 FUJITSU TEN (THAILAN                                                                                                                                            *          20160121IMF1601215.TXT
