REC2016012720160128ISUZU                              9      
MAKK61105109201601D4               89805293700P3YK20160209000210SPEAKER ASM                   M IMCTM CM1    FTTL  07070IMKDC 01   PTB00003  K0                1621DES        000000000000 FUJITSU TEN (THAILAN                                                                                                                                            *G         20160127IMF1601276.TXT
MAKK61105110201601D4               89805293700P3YK20160210000240SPEAKER ASM                   M IMCTM CM1    FTTL  07070IMKDC 01   PTB00003  K0                1621DES        000000000000 FUJITSU TEN (THAILAN                                                                                                                                            *G         20160127IMF1601276.TXT
MAKK61105111201601D4               89805293700P3YK20160211000180SPEAKER ASM                   M IMCTM CM1    FTTL  07070IMKDC 01   PTB00003  K0                1621DES        000000000000 FUJITSU TEN (THAILAN                                                                                                                                            *G         20160127IMF1601276.TXT
MAKK61105112201601D4               89805293700P3YK20160212000300SPEAKER ASM                   M IMCTM CM1    FTTL  07070IMKDC 01   PTB00003  K0                1621DES        000000000000 FUJITSU TEN (THAILAN                                                                                                                                            *G         20160127IMF1601276.TXT
MAKK61105113201601D4               89805293700P3YK20160213000240SPEAKER ASM                   M IMCTM CM1    FTTL  07070IMKDC 01   PTB00003  K0                1621DES        000000000000 FUJITSU TEN (THAILAN                                                                                                                                            *G         20160127IMF1601276.TXT
MAKK61105114201601D4               89805294000P3YK20160211000030SPEAKER ASM                   M IMCTM CM1    FTTL  07070IMKDC 01   PTB00015  K0                1621DES        000000000000 FUJITSU TEN (THAILAN                                                                                                                                            *G         20160127IMF1601276.TXT
MAKK61105115201601D4               89805294000P3YK20160212000150SPEAKER ASM                   M IMCTM CM1    FTTL  07070IMKDC 01   PTB00015  K0                1621DES        000000000000 FUJITSU TEN (THAILAN                                                                                                                                            *G         20160127IMF1601276.TXT
MAKK61105116201601D4               89805294100P3YK20160211000030SPEAKER ASM                   M IMCTM CM1    FTTL  07070IMKDC 01   PTB00005  K0                1621DES        000000000000 FUJITSU TEN (THAILAN                                                                                                                                            *G         20160127IMF1601276.TXT
MAKK61105117201601D4               89805294100P3YK20160212000150SPEAKER ASM                   M IMCTM CM1    FTTL  07070IMKDC 01   PTB00005  K0                1621DES        000000000000 FUJITSU TEN (THAILAN                                                                                                                                            *G         20160127IMF1601276.TXT
