REC2016021320160213ISUZU                              9      
MDEBG2T00328201602                D89805293700PV4B20160218000030SPEAKER ASM                   M IMCTM S7FL05 FTTL  07070IMCT  S7 PTB  00003                    0800 SR        000000000000 FUJITSU TEN (THAILAN150A27R0006   150A31R0094   Y160204201    Y160204215    000000                                                                              *R         20160213RDF1602135.TXT
MDEBG2T00329201602                D89805294000PT4B20160218000030SPEAKER ASM                   M IMCTM S7TS02 FTTL  07070IMCT  S7 PTB  00015                    0800 SR        000000000000 FUJITSU TEN (THAILAN150A27R0006   150A31R0094   Y160204201    Y160204215    000000                                                                              *R         20160213RDF1602135.TXT
MDEBG2T00330201602                D89805294100PV4B20160218000030SPEAKER ASM                   M IMCTM S7FL05 FTTL  07070IMCT  S7 PTB  00005                    0800 SR        000000000000 FUJITSU TEN (THAILAN150A27R0006   150A31R0094   Y160204201    Y160204215    000000                                                                              *R         20160213RDF1602135.TXT
MDEBG2T00331201602                D89805294200PT4B20160218000030SPEAKER ASM                   M IMCTM S7S137 FTTL  07070IMCT  S7 PTB  00030                    0800 SR        000000000000 FUJITSU TEN (THAILAN150A27R0006   150A31R0094   Y160204201    Y160204215    000000                                                                              *R         20160213RDF1602135.TXT
MDEBG2T00332201602                D89806470400PT4B20160218000015SPEAKER ASM;RDO,              M IMCTM S7TL03 FTTL  07070IMCT  S7 PTB  00015                    0800 SR        000000000000 FUJITSU TEN (THAILAN150A27R0006   150A31R0094   Y160204201    Y160204215    000000                                                                              *R         20160213RDF1602135.TXT
MDEBG2T00333201602                D89824135820PT4B20160218000013RADIO;AM/FM,CD,F              M IMCTM S7TS03 FTTL  07070IMCT  S7 CPB  00003                    0800 SR        000000000000 FUJITSU TEN (THAILAN150A31R0082   150A31R0094   Y160204202    Y160204215    000000                                                                              *R         20160213RDF1602135.TXT
MDEFG2T13487201602                D89805293700PV4F20160217000030SPEAKER ASM                   M IMCTM S7FR05 FTTL  07070IMCT  S7 PTB  00003                    2300 SR        000000000000 FUJITSU TEN (THAILAN15031GR0015   15083FR0006   S160204101    S160204115    000000                                                                              *R         20160213RDF1602135.TXT
MDEFG2234727201602                D89805293700PV4F20160217000012SPEAKER ASM                   M IMCTM S7FR05 FTTL  07070IMCT  S7 PTB  00003                    1510 SR        000000000000 FUJITSU TEN (THAILAN15002CR0147   15007CR0003   R160204001    R160204006    000000                                                                              *R         20160213RDF1602135.TXT
MDEFG2234728201602                D89805293700PV4F20160217000018SPEAKER ASM                   M IMCTM S7FR05 FTTL  07070IMCT  S7 PTB  00003                    2030 SR        000000000000 FUJITSU TEN (THAILAN15007CR0004   15008CR0117   R160204007    R160204015    000000                                                                              *R         20160213RDF1602135.TXT
