REC2016021020160211ISUZU                              10     
MAKK62065910201602D4               89805293700P3YK20160223000240SPEAKER ASM                   M IMCTM CM1    FTTL  07070IMKDC 01   PTB00003  K0                1621DES        000000000000 FUJITSU TEN (THAILAN                                                                                                                                            *G         20160210IMF1602106.TXT
MAKK62065911201602D4               89805293700P3YK20160224000270SPEAKER ASM                   M IMCTM CM1    FTTL  07070IMKDC 01   PTB00003  K0                1621DES        000000000000 FUJITSU TEN (THAILAN                                                                                                                                            *G         20160210IMF1602106.TXT
MAKK62065912201602D4               89805293700P3YK20160225000330SPEAKER ASM                   M IMCTM CM1    FTTL  07070IMKDC 01   PTB00003  K0                1621DES        000000000000 FUJITSU TEN (THAILAN                                                                                                                                            *G         20160210IMF1602106.TXT
MAKK62065913201602D4               89805293700P3YK20160226000270SPEAKER ASM                   M IMCTM CM1    FTTL  07070IMKDC 01   PTB00003  K0                1621DES        000000000000 FUJITSU TEN (THAILAN                                                                                                                                            *G         20160210IMF1602106.TXT
MAKK62065914201602D4               89805293700P3YK20160227000180SPEAKER ASM                   M IMCTM CM1    FTTL  07070IMKDC 01   PTB00003  K0                1621DES        000000000000 FUJITSU TEN (THAILAN                                                                                                                                            *G         20160210IMF1602106.TXT
MAKK62065915201602D4               89805294000P3YK20160224000030SPEAKER ASM                   M IMCTM CM1    FTTL  07070IMKDC 01   PTB00015  K0                1621DES        000000000000 FUJITSU TEN (THAILAN                                                                                                                                            *G         20160210IMF1602106.TXT
MAKK62065916201602D4               89805294100P3YK20160224000030SPEAKER ASM                   M IMCTM CM1    FTTL  07070IMKDC 01   PTB00005  K0                1621DES        000000000000 FUJITSU TEN (THAILAN                                                                                                                                            *G         20160210IMF1602106.TXT
MAKK62065917201602D4               89805294200P3YK20160224000030SPEAKER ASM                   M IMCTM CM1    FTTL  07070IMKDC 01 X    00030  K0                1621DES        000000000000 FUJITSU TEN (THAILAN                                                                                                                                            *G         20160210IMF1602106.TXT
MAKK62065918201602D4               89806470400P3YK20160224000015SPEAKER ASM;RDO,              M IMCTM CM1    FTTL  07070IMKDC 01   PTB00015  K0                1621DES        000000000000 FUJITSU TEN (THAILAN                                                                                                                                            *G         20160210IMF1602106.TXT
MAKK62065919201602D4               89812857000P3YK20160224000030BRACKET;EXCITER               M IMCTM CS1    FTTL  07070IMKDC 20 X    00015  K0                1621DES        000000000000 FUJITSU TEN (THAILAN                                                                                                                                            *G         20160210IMF1602106.TXT
