REC2016021820160219ISUZU                              50     
MDDDG2272477201602                D89821984430PT1D20160222000030RADIO;AM/FM,CD                M IMCTM S5NC06 FTTL  07070IMCT  S5 PTB  00005                    2230 SR        000000000000 FUJITSU TEN (THAILAN160JXAL0072072                                                                                                                              *          20160218IMF1602187.TXT
MDDDG2272478201602                D89821984430PT1D20160223000030RADIO;AM/FM,CD                M IMCTM S5NC06 FTTL  07070IMCT  S5 PTB  00005                    0310 SR        000000000000 FUJITSU TEN (THAILAN160JXEL0030030                                                                                                                              *          20160218IMF1602187.TXT
MDDDG2272479201602                D89821984430PT1D20160223000060RADIO;AM/FM,CD                M IMCTM S5NC06 FTTL  07070IMCT  S5 PTB  00005                    1510 SR        000000000000 FUJITSU TEN (THAILAN160JXAL0073073160JYPL0041041                                                                                                                *          20160218IMF1602187.TXT
MDDDG2272480201602                D89821984430PT1D20160223000030RADIO;AM/FM,CD                M IMCTM S5NC06 FTTL  07070IMCT  S5 PTB  00005                    2230 SR        000000000000 FUJITSU TEN (THAILAN160JXAL0074074                                                                                                                              *          20160218IMF1602187.TXT
MDDDG2272481201602                D89828070100PV1D20160222000060SPEAKER ASM                   M IMCTM S5MA12 FTTL  07070IMCT  S5 PTB  00004                    2230 SR        000000000000 FUJITSU TEN (THAILAN160JXAL0072072                                                                                                                              *          20160218IMF1602187.TXT
MDDDG2272482201602                D89828070100PV1D20160223000180SPEAKER ASM                   M IMCTM S5MA12 FTTL  07070IMCT  S5 PTB  00004                    0310 SR        000000000000 FUJITSU TEN (THAILAN160JRVL0001001160JXEL0030030160JYSL0044044                                                                                                  *          20160218IMF1602187.TXT
MDDDG2272483201602                D89828070100PV1D20160223000120SPEAKER ASM                   M IMCTM S5MA12 FTTL  07070IMCT  S5 PTB  00004                    1510 SR        000000000000 FUJITSU TEN (THAILAN160JXAL0073073160JXCL0024024                                                                                                                *          20160218IMF1602187.TXT
MDDDG2272484201602                D89828070100PV1D20160223000120SPEAKER ASM                   M IMCTM S5MA12 FTTL  07070IMCT  S5 PTB  00004                    2230 SR        000000000000 FUJITSU TEN (THAILAN160JXAL0074074160JYPL0041041                                                                                                                *          20160218IMF1602187.TXT
MDDDG2272485201602                D89828070200PV1D20160223000060SPEAKER ASM                   M IMCTM S5MA13 FTTL  07070IMCT  S5 PTB  00005                    0310 SR        000000000000 FUJITSU TEN (THAILAN160JRVL0001001                                                                                                                              *          20160218IMF1602187.TXT
MDDDG2272486201602                D89828070300PT1D20160223000120SPEAKER ASM                   M IMCTM S5NB042FTTL  07070IMCT  S5 PTB  00015                    0310 SR        000000000000 FUJITSU TEN (THAILAN160JRVL0001001160JYSL0044044                                                                                                                *          20160218IMF1602187.TXT
MDDDG2272487201602                D89831228300PT1D20160222000030RADIO;AM/FM,CD                M IMCTM S5NC06 FTTL  07070IMCT  S5 CPB  00003                    2230 SR        000000000000 FUJITSU TEN (THAILAN160JYSL0044044                                                                                                                              *          20160218IMF1602187.TXT
MDEDG2321398201602                D89805293700PV1D20160223000030SPEAKER ASM                   M IMCTM S5MA12 FTTL  07070IMCT  S5 PTB  00003                    1000 SR        000000000000 FUJITSU TEN (THAILAN15070DL0007007                                                                                                                              *          20160218IMF1602187.TXT
MDEDG2321399201602                D89805293700PV1D20160223000060SPEAKER ASM                   M IMCTM S5MA12 FTTL  07070IMCT  S5 PTB  00003                    2230 SR        000000000000 FUJITSU TEN (THAILAN15068DL0049050                                                                                                                              *          20160218IMF1602187.TXT
MDEDG2321400201602                D89805293700PV4D20160223000030SPEAKER ASM                   M IMCTM S0FR05 FTTL  07070IMCT  S0 PTB  00003                    0800 SR        000000000000 FUJITSU TEN (THAILAN15022DU0009009                                                                                                                              *          20160218IMF1602187.TXT
MDEDG2321401201602                D89805293700PV4D20160223000060SPEAKER ASM                   M IMCTM S0FR05 FTTL  07070IMCT  S0 PTB  00003                    1510 SR        000000000000 FUJITSU TEN (THAILAN15022DU001001015024DU0004004                                                                                                                *          20160218IMF1602187.TXT
MDEDG2321402201602                D89805294000PT1D20160223000030SPEAKER ASM                   M IMCTM S5NB042FTTL  07070IMCT  S5 PTB  00015                    1000 SR        000000000000 FUJITSU TEN (THAILAN15070DL0007007                                                                                                                              *          20160218IMF1602187.TXT
MDEDG2321403201602                D89805294000PT1D20160223000060SPEAKER ASM                   M IMCTM S5NB042FTTL  07070IMCT  S5 PTB  00015                    2230 SR        000000000000 FUJITSU TEN (THAILAN15068DL0049050                                                                                                                              *          20160218IMF1602187.TXT
MDEDG2321404201602                D89805294000PT4D20160223000030SPEAKER ASM                   M IMCTM S9AFA25FTTL  07070IMCT  S9 PTB  00015                    1510 SR        000000000000 FUJITSU TEN (THAILAN15024DU0004004                                                                                                                              *          20160218IMF1602187.TXT
MDEDG2321405201602                D89805294200PT1D20160223000030SPEAKER ASM                   M IMCTM S5AS011FTTL  07070IMCT  S6 PTB  00030                    1000 SR        000000000000 FUJITSU TEN (THAILAN15070DL0007007                                                                                                                              *          20160218IMF1602187.TXT
MDEDG2321406201602                D89805294200PT1D20160223000060SPEAKER ASM                   M IMCTM S5AS011FTTL  07070IMCT  S6 PTB  00030                    2230 SR        000000000000 FUJITSU TEN (THAILAN15068DL0049050                                                                                                                              *          20160218IMF1602187.TXT
MDEDG2321407201602                D89806470400PT1D20160223000015SPEAKER ASM;RDO,              M IMCTM S5EA18 FTTL  07070IMCT  S6 PTB  00015                    1000 SR        000000000000 FUJITSU TEN (THAILAN15070DL0007007                                                                                                                              *          20160218IMF1602187.TXT
MDEDG2321408201602                D89806470400PT1D20160223000030SPEAKER ASM;RDO,              M IMCTM S5EA18 FTTL  07070IMCT  S6 PTB  00015                    2230 SR        000000000000 FUJITSU TEN (THAILAN15068DL0049050                                                                                                                              *          20160218IMF1602187.TXT
MDEDG2321409201602                D89824360220PT1D20160223000030RADIO;AM/FM,CD                M IMCTM S5NC06 FTTL  07070IMCT  S5 CPB  00003                    1510 SR        000000000000 FUJITSU TEN (THAILAN15068DL0049050                                                                                                                              *          20160218IMF1602187.TXT
MDEDG2321410201602                D89828070100PV1D20160223000180SPEAKER ASM                   M IMCTM S5MA12 FTTL  07070IMCT  S5 PTB  00004                    1000 SR        000000000000 FUJITSU TEN (THAILAN16009JL000100216046KL000100216075HL0001002                                                                                                  *          20160218IMF1602187.TXT
MDEDG2321411201602                D89828070100PV1D20160223000150SPEAKER ASM                   M IMCTM S5MA12 FTTL  07070IMCT  S5 PTB  00004                    1510 SR        000000000000 FUJITSU TEN (THAILAN16007JL000700816029JL000100116043KL000100116075HL0003003                                                                                    *          20160218IMF1602187.TXT
MDEDG2321412201602                D89828070100PV4D20160222000060SPEAKER ASM                   M IMCTM S0FL05 FTTL  07070IMCT  S0 PTB  00004                    2300 SR        000000000000 FUJITSU TEN (THAILAN16078HU0003004                                                                                                                              *          20160218IMF1602187.TXT
MDEDG2321413201602                D89828070100PV4D20160223000030SPEAKER ASM                   M IMCTM S0FL05 FTTL  07070IMCT  S0 PTB  00004                    0800 SR        000000000000 FUJITSU TEN (THAILAN16007JU0004004                                                                                                                              *          20160218IMF1602187.TXT
MDEDG2321414201602                D89828070100PV4D20160223000030SPEAKER ASM                   M IMCTM S0FL05 FTTL  07070IMCT  S0 PTB  00004                    1100 SR        000000000000 FUJITSU TEN (THAILAN16078HU0005005                                                                                                                              *          20160218IMF1602187.TXT
MDEDG2321415201602                D89828070100PV4D20160223000030SPEAKER ASM                   M IMCTM S0FL05 FTTL  07070IMCT  S0 PTB  00004                    2030 SR        000000000000 FUJITSU TEN (THAILAN16078HU0006006                                                                                                                              *          20160218IMF1602187.TXT
MDEDG2321416201602                D89828070200PV1D20160223000060SPEAKER ASM                   M IMCTM S5MA13 FTTL  07070IMCT  S5 PTB  00005                    1000 SR        000000000000 FUJITSU TEN (THAILAN16046KL0001002                                                                                                                              *          20160218IMF1602187.TXT
MDEDG2321417201602                D89828070300PT1D20160223000060SPEAKER ASM                   M IMCTM S5NB042FTTL  07070IMCT  S5 PTB  00015                    1000 SR        000000000000 FUJITSU TEN (THAILAN16046KL0001002                                                                                                                              *          20160218IMF1602187.TXT
MDEDG2321418201602                D89828070300PT1D20160223000030SPEAKER ASM                   M IMCTM S5NB042FTTL  07070IMCT  S5 PTB  00015                    1510 SR        000000000000 FUJITSU TEN (THAILAN16043KL0001001                                                                                                                              *          20160218IMF1602187.TXT
MDEUG2250873201602                D89828070100PT4U20160222000030SPEAKER ASM                   M IMCTM S0FL05 FTTL  07070IMCT  S0 PTB  00004                    2030 SR        000000000000 FUJITSU TEN (THAILAN160B48U0006006                                                                                                                              *          20160218IMF1602187.TXT
MDEUG2250874201602                D89828070100PT4U20160222000030SPEAKER ASM                   M IMCTM S0FL05 FTTL  07070IMCT  S0 PTB  00004                    2300 SR        000000000000 FUJITSU TEN (THAILAN160B48U0007007                                                                                                                              *          20160218IMF1602187.TXT
MDEUG2250875201602                D89828070100PT4U20160223000030SPEAKER ASM                   M IMCTM S0FL05 FTTL  07070IMCT  S0 PTB  00004                    0310 SR        000000000000 FUJITSU TEN (THAILAN160B48U0008008                                                                                                                              *          20160218IMF1602187.TXT
MDEUG2250876201602                D89828070100PT4U20160223000030SPEAKER ASM                   M IMCTM S0FL05 FTTL  07070IMCT  S0 PTB  00004                    0800 SR        000000000000 FUJITSU TEN (THAILAN160B48U0009009                                                                                                                              *          20160218IMF1602187.TXT
MDEUG2250877201602                D89828070100PT4U20160223000030SPEAKER ASM                   M IMCTM S0FL05 FTTL  07070IMCT  S0 PTB  00004                    1100 SR        000000000000 FUJITSU TEN (THAILAN160B48U0010010                                                                                                                              *          20160218IMF1602187.TXT
MDEUG2250878201602                D89828070100PT4U20160223000060SPEAKER ASM                   M IMCTM S0FL05 FTTL  07070IMCT  S0 PTB  00004                    1510 SR        000000000000 FUJITSU TEN (THAILAN160B48U0011012                                                                                                                              *          20160218IMF1602187.TXT
MDEUG2250879201602                D89828070200PV4U20160222000030SPEAKER ASM                   M IMCTM S0FR05 FTTL  07070IMCT  S0 PTB  00005                    2030 SR        000000000000 FUJITSU TEN (THAILAN160B48U0006006                                                                                                                              *          20160218IMF1602187.TXT
MDEUG2250880201602                D89828070200PV4U20160222000030SPEAKER ASM                   M IMCTM S0FR05 FTTL  07070IMCT  S0 PTB  00005                    2300 SR        000000000000 FUJITSU TEN (THAILAN160B48U0007007                                                                                                                              *          20160218IMF1602187.TXT
MDEUG2250881201602                D89828070200PV4U20160223000030SPEAKER ASM                   M IMCTM S0FR05 FTTL  07070IMCT  S0 PTB  00005                    0310 SR        000000000000 FUJITSU TEN (THAILAN160B48U0008008                                                                                                                              *          20160218IMF1602187.TXT
MDEUG2250882201602                D89828070200PV4U20160223000030SPEAKER ASM                   M IMCTM S0FR05 FTTL  07070IMCT  S0 PTB  00005                    0800 SR        000000000000 FUJITSU TEN (THAILAN160B48U0009009                                                                                                                              *          20160218IMF1602187.TXT
MDEUG2250883201602                D89828070200PV4U20160223000030SPEAKER ASM                   M IMCTM S0FR05 FTTL  07070IMCT  S0 PTB  00005                    1100 SR        000000000000 FUJITSU TEN (THAILAN160B48U0010010                                                                                                                              *          20160218IMF1602187.TXT
MDEUG2250884201602                D89828070200PV4U20160223000060SPEAKER ASM                   M IMCTM S0FR05 FTTL  07070IMCT  S0 PTB  00005                    1510 SR        000000000000 FUJITSU TEN (THAILAN160B48U0011012                                                                                                                              *          20160218IMF1602187.TXT
MDEUG2250885201602                D89828070300PT4U20160222000030SPEAKER ASM                   M IMCTM S9TS02 FTTL  07070IMCT  S9 PTB  00015                    2030 SR        000000000000 FUJITSU TEN (THAILAN160B48U0006006                                                                                                                              *          20160218IMF1602187.TXT
MDEUG2250886201602                D89828070300PT4U20160222000030SPEAKER ASM                   M IMCTM S9TS02 FTTL  07070IMCT  S9 PTB  00015                    2300 SR        000000000000 FUJITSU TEN (THAILAN160B48U0007007                                                                                                                              *          20160218IMF1602187.TXT
MDEUG2250887201602                D89828070300PT4U20160223000030SPEAKER ASM                   M IMCTM S9TS02 FTTL  07070IMCT  S9 PTB  00015                    0310 SR        000000000000 FUJITSU TEN (THAILAN160B48U0008008                                                                                                                              *          20160218IMF1602187.TXT
MDEUG2250888201602                D89828070300PT4U20160223000030SPEAKER ASM                   M IMCTM S9TS02 FTTL  07070IMCT  S9 PTB  00015                    0800 SR        000000000000 FUJITSU TEN (THAILAN160B48U0009009                                                                                                                              *          20160218IMF1602187.TXT
MDEUG2250889201602                D89828070300PT4U20160223000030SPEAKER ASM                   M IMCTM S9TS02 FTTL  07070IMCT  S9 PTB  00015                    1100 SR        000000000000 FUJITSU TEN (THAILAN160B48U0010010                                                                                                                              *          20160218IMF1602187.TXT
MDEUG2250890201602                D89828070300PT4U20160223000060SPEAKER ASM                   M IMCTM S9TS02 FTTL  07070IMCT  S9 PTB  00015                    1510 SR        000000000000 FUJITSU TEN (THAILAN160B48U0011012                                                                                                                              *          20160218IMF1602187.TXT
