REC2016021520160215ISUZU                              65     
MDDDG2260168201602                D89821984430PT1D20160219000030RADIO;AM/FM,CD                M IMCTM S5NC06 FTTL  07070IMCT  S5 PTB  00005                    1000 SR        000000000000 FUJITSU TEN (THAILAN160JXAL0070070                                                                                                                              *          20160215IMF1602155.TXT
MDDDG2260169201602                D89825217900PT1D20160218000030RADIO;AM/FM,CD,D              M IMCTM S5NC06 FTTL  07070IMCT  S5 PTB  00003                    2230 SR        000000000000 FUJITSU TEN (THAILAN160JYGL0090090                                                                                                                              *          20160215IMF1602155.TXT
MDDDG2260170201602                D89825217900PT1D20160219000030RADIO;AM/FM,CD,D              M IMCTM S5NC06 FTTL  07070IMCT  S5 PTB  00003                    1000 SR        000000000000 FUJITSU TEN (THAILAN160JYGL0091091                                                                                                                              *          20160215IMF1602155.TXT
MDDDG2260171201602                D89828070100PV1D20160219000060SPEAKER ASM                   M IMCTM S5MA12 FTTL  07070IMCT  S5 PTB  00004                    0310 SR        000000000000 FUJITSU TEN (THAILAN160JYGL0090090                                                                                                                              *          20160215IMF1602155.TXT
MDDDG2260172201602                D89828070100PV1D20160219000120SPEAKER ASM                   M IMCTM S5MA12 FTTL  07070IMCT  S5 PTB  00004                    1000 SR        000000000000 FUJITSU TEN (THAILAN160JRNL0007007160JXAL0070070                                                                                                                *          20160215IMF1602155.TXT
MDDDG2260173201602                D89828070100PV1D20160219000180SPEAKER ASM                   M IMCTM S5MA12 FTTL  07070IMCT  S5 PTB  00004                    1510 SR        000000000000 FUJITSU TEN (THAILAN160JXCL0022022160JYBL0033033160JYGL0091091                                                                                                  *          20160215IMF1602155.TXT
MDDDG2260174201602                D89828070100PV1D20160219000060SPEAKER ASM                   M IMCTM S5MA12 FTTL  07070IMCT  S5 PTB  00004                    2230 SR        000000000000 FUJITSU TEN (THAILAN160JZFL0062062                                                                                                                              *          20160215IMF1602155.TXT
MDDDG2260175201602                D89828070200PV1D20160219000060SPEAKER ASM                   M IMCTM S5MA13 FTTL  07070IMCT  S5 PTB  00005                    1000 SR        000000000000 FUJITSU TEN (THAILAN160JRNL0007007                                                                                                                              *          20160215IMF1602155.TXT
MDDDG2260176201602                D89828070200PV1D20160219000060SPEAKER ASM                   M IMCTM S5MA13 FTTL  07070IMCT  S5 PTB  00005                    2230 SR        000000000000 FUJITSU TEN (THAILAN160JZFL0062062                                                                                                                              *          20160215IMF1602155.TXT
MDDDG2260177201602                D89828070300PT1D20160219000060SPEAKER ASM                   M IMCTM S5NB042FTTL  07070IMCT  S5 PTB  00015                    0310 SR        000000000000 FUJITSU TEN (THAILAN160JYGL0090090                                                                                                                              *          20160215IMF1602155.TXT
MDDDG2260178201602                D89828070300PT1D20160219000060SPEAKER ASM                   M IMCTM S5NB042FTTL  07070IMCT  S5 PTB  00015                    1000 SR        000000000000 FUJITSU TEN (THAILAN160JRNL0007007                                                                                                                              *          20160215IMF1602155.TXT
MDDDG2260179201602                D89828070300PT1D20160219000120SPEAKER ASM                   M IMCTM S5NB042FTTL  07070IMCT  S5 PTB  00015                    1510 SR        000000000000 FUJITSU TEN (THAILAN160JYBL0033033160JYGL0091091                                                                                                                *          20160215IMF1602155.TXT
MDDDG2260180201602                D89828070300PT1D20160219000060SPEAKER ASM                   M IMCTM S5NB042FTTL  07070IMCT  S5 PTB  00015                    2230 SR        000000000000 FUJITSU TEN (THAILAN160JZFL0062062                                                                                                                              *          20160215IMF1602155.TXT
MDDDG2260181201602                D89829645900PT1D20160219000030RADIO;ASM DVD                 M IMCTM S5NC06 FTTL  07070IMCT  S5 CPB  00003                    1510 SR        000000000000 FUJITSU TEN (THAILAN160JZFL0062062                                                                                                                              *          20160215IMF1602155.TXT
MDDDG2260182201602                D89831228300PT1D20160219000030RADIO;AM/FM,CD                M IMCTM S5NC06 FTTL  07070IMCT  S5 CPB  00003                    1510 SR        000000000000 FUJITSU TEN (THAILAN160JYBL0033033                                                                                                                              *          20160215IMF1602155.TXT
MDEDG2296630201602                D89805293700PV1D20160219000180SPEAKER ASM                   M IMCTM S5MA12 FTTL  07070IMCT  S5 PTB  00003                    0310 SR        000000000000 FUJITSU TEN (THAILAN15002CL052052015026DL001201315032GL000800915054FL0031031                                                                                    *          20160215IMF1602155.TXT
MDEDG2296631201602                D89805293700PV1D20160219000090SPEAKER ASM                   M IMCTM S5MA12 FTTL  07070IMCT  S5 PTB  00003                    1000 SR        000000000000 FUJITSU TEN (THAILAN15002CL052152115049GL0012013                                                                                                                *          20160215IMF1602155.TXT
MDEDG2296632201602                D89805293700PV1D20160219000090SPEAKER ASM                   M IMCTM S5MA12 FTTL  07070IMCT  S5 PTB  00003                    1510 SR        000000000000 FUJITSU TEN (THAILAN15046CL004204215047GL000300315085BL0472472                                                                                                  *          20160215IMF1602155.TXT
MDEDG2296633201602                D89805293700PV1D20160219000090SPEAKER ASM                   M IMCTM S5MA12 FTTL  07070IMCT  S5 PTB  00003                    2230 SR        000000000000 FUJITSU TEN (THAILAN15002CL052252215016FL0020021                                                                                                                *          20160215IMF1602155.TXT
MDEDG2296634201602                D89805293700PV4D20160218000030SPEAKER ASM                   M IMCTM S0FR05 FTTL  07070IMCT  S0 PTB  00003                    2300 SR        000000000000 FUJITSU TEN (THAILAN15013GU0002002                                                                                                                              *          20160215IMF1602155.TXT
MDEDG2296635201602                D89805293700PV4D20160219000030SPEAKER ASM                   M IMCTM S0FR05 FTTL  07070IMCT  S0 PTB  00003                    0310 SR        000000000000 FUJITSU TEN (THAILAN15083GU0001001                                                                                                                              *          20160215IMF1602155.TXT
MDEDG2296636201602                D89805293700PV4D20160219000030SPEAKER ASM                   M IMCTM S0FR05 FTTL  07070IMCT  S0 PTB  00003                    0800 SR        000000000000 FUJITSU TEN (THAILAN15057FU0011011                                                                                                                              *          20160215IMF1602155.TXT
MDEDG2296637201602                D89805293700PV4D20160219000030SPEAKER ASM                   M IMCTM S0FR05 FTTL  07070IMCT  S0 PTB  00003                    1100 SR        000000000000 FUJITSU TEN (THAILAN15083FU0018018                                                                                                                              *          20160215IMF1602155.TXT
MDEDG2296638201602                D89805293700PV4D20160219000060SPEAKER ASM                   M IMCTM S0FR05 FTTL  07070IMCT  S0 PTB  00003                    1510 SR        000000000000 FUJITSU TEN (THAILAN15083FU0019020                                                                                                                              *          20160215IMF1602155.TXT
MDEDG2296639201602                D89805293700PV4D20160219000030SPEAKER ASM                   M IMCTM S0FR05 FTTL  07070IMCT  S0 PTB  00003                    2030 SR        000000000000 FUJITSU TEN (THAILAN15057FU0012012                                                                                                                              *          20160215IMF1602155.TXT
MDEDG2296640201602                D89805294000PT1D20160219000060SPEAKER ASM                   M IMCTM S5NB042FTTL  07070IMCT  S5 PTB  00015                    0310 SR        000000000000 FUJITSU TEN (THAILAN15026DL0012013                                                                                                                              *          20160215IMF1602155.TXT
MDEDG2296641201602                D89805294000PT1D20160219000060SPEAKER ASM                   M IMCTM S5NB042FTTL  07070IMCT  S5 PTB  00015                    1000 SR        000000000000 FUJITSU TEN (THAILAN15049GL0012013                                                                                                                              *          20160215IMF1602155.TXT
MDEDG2296642201602                D89805294000PT1D20160219000060SPEAKER ASM                   M IMCTM S5NB042FTTL  07070IMCT  S5 PTB  00015                    1510 SR        000000000000 FUJITSU TEN (THAILAN15046CL004204215047GL0003003                                                                                                                *          20160215IMF1602155.TXT
MDEDG2296643201602                D89805294000PT1D20160219000060SPEAKER ASM                   M IMCTM S5NB042FTTL  07070IMCT  S5 PTB  00015                    2230 SR        000000000000 FUJITSU TEN (THAILAN15016FL0020021                                                                                                                              *          20160215IMF1602155.TXT
MDEDG2296644201602                D89805294000PT4D20160218000030SPEAKER ASM                   M IMCTM S9AFA25FTTL  07070IMCT  S9 PTB  00015                    2300 SR        000000000000 FUJITSU TEN (THAILAN15013GU0002002                                                                                                                              *          20160215IMF1602155.TXT
MDEDG2296645201602                D89805294000PT4D20160219000030SPEAKER ASM                   M IMCTM S9AFA25FTTL  07070IMCT  S9 PTB  00015                    0310 SR        000000000000 FUJITSU TEN (THAILAN15083GU0001001                                                                                                                              *          20160215IMF1602155.TXT
MDEDG2296646201602                D89805294100PV1D20160219000060SPEAKER ASM                   M IMCTM S5MB13 FTTL  07070IMCT  S5 PTB  00005                    0310 SR        000000000000 FUJITSU TEN (THAILAN15026DL0012013                                                                                                                              *          20160215IMF1602155.TXT
MDEDG2296647201602                D89805294100PV1D20160219000060SPEAKER ASM                   M IMCTM S5MB13 FTTL  07070IMCT  S5 PTB  00005                    1000 SR        000000000000 FUJITSU TEN (THAILAN15049GL0012013                                                                                                                              *          20160215IMF1602155.TXT
MDEDG2296648201602                D89805294100PV1D20160219000030SPEAKER ASM                   M IMCTM S5MB13 FTTL  07070IMCT  S5 PTB  00005                    1510 SR        000000000000 FUJITSU TEN (THAILAN15047GL0003003                                                                                                                              *          20160215IMF1602155.TXT
MDEDG2296649201602                D89805294100PV4D20160218000030SPEAKER ASM                   M IMCTM S0FR05 FTTL  07070IMCT  S0 PTB  00005                    2300 SR        000000000000 FUJITSU TEN (THAILAN15013GU0002002                                                                                                                              *          20160215IMF1602155.TXT
MDEDG2296650201602                D89805294100PV4D20160219000030SPEAKER ASM                   M IMCTM S0FR05 FTTL  07070IMCT  S0 PTB  00005                    0310 SR        000000000000 FUJITSU TEN (THAILAN15083GU0001001                                                                                                                              *          20160215IMF1602155.TXT
MDEDG2296651201602                D89805294200PT1D20160219000030SPEAKER ASM                   M IMCTM S5AS011FTTL  07070IMCT  S6 PTB  00030                    1510 SR        000000000000 FUJITSU TEN (THAILAN15046CL0042042                                                                                                                              *          20160215IMF1602155.TXT
MDEDG2296652201602                D89806470400PT1D20160219000015SPEAKER ASM;RDO,              M IMCTM S5EA18 FTTL  07070IMCT  S6 PTB  00015                    1510 SR        000000000000 FUJITSU TEN (THAILAN15046CL0042042                                                                                                                              *          20160215IMF1602155.TXT
MDEDG2296653201602                D89822873020PT4D20160218000015RADIO;AM/FM,CD                M IMCTM S9CO001FTTL  07070IMCT  S9 CPB  00003                    2300 SR        000000000000 FUJITSU TEN (THAILAN15013GU0002002                                                                                                                              *          20160215IMF1602155.TXT
MDEDG2296654201602                D89824135820PT1D20160219000030RADIO;AM/FM,CD,F              M IMCTM S5NC06 FTTL  07070IMCT  S5 CPB  00003                    0310 SR        000000000000 FUJITSU TEN (THAILAN15049GL0012013                                                                                                                              *          20160215IMF1602155.TXT
MDEDG2296655201602                D89824135820PT1D20160219000015RADIO;AM/FM,CD,F              M IMCTM S5NC06 FTTL  07070IMCT  S5 CPB  00003                    1000 SR        000000000000 FUJITSU TEN (THAILAN15047GL0003003                                                                                                                              *          20160215IMF1602155.TXT
MDEDG2296656201602                D89824360120PT1D20160219000015RADIO;AM/FM,CD                M IMCTM S5NC06 FTTL  07070IMCT  S5 CPB  00003                    1000 SR        000000000000 FUJITSU TEN (THAILAN15046CL0042042                                                                                                                              *          20160215IMF1602155.TXT
MDEUG2240220201602                D89805293700PV4U20160218000030SPEAKER ASM                   M IMCTM S0TL03 FTTL  07070IMCT  S0 PTB  00003                    2300 SR        000000000000 FUJITSU TEN (THAILAN150A71U0039039                                                                                                                              *          20160215IMF1602155.TXT
MDEUG2240221201602                D89805293700PV4U20160219000030SPEAKER ASM                   M IMCTM S0TL03 FTTL  07070IMCT  S0 PTB  00003                    0310 SR        000000000000 FUJITSU TEN (THAILAN150A72U0053053                                                                                                                              *          20160215IMF1602155.TXT
MDEUG2240222201602                D89805293700PV4U20160219000030SPEAKER ASM                   M IMCTM S0TL03 FTTL  07070IMCT  S0 PTB  00003                    0800 SR        000000000000 FUJITSU TEN (THAILAN150A79U0392392                                                                                                                              *          20160215IMF1602155.TXT
MDEUG2240223201602                D89805293700PV4U20160219000060SPEAKER ASM                   M IMCTM S0TL03 FTTL  07070IMCT  S0 PTB  00003                    1510 SR        000000000000 FUJITSU TEN (THAILAN150A73U0029029150A79U0393393                                                                                                                *          20160215IMF1602155.TXT
MDEUG2240224201602                D89805293700PV4U20160219000030SPEAKER ASM                   M IMCTM S0TL03 FTTL  07070IMCT  S0 PTB  00003                    2030 SR        000000000000 FUJITSU TEN (THAILAN150A79U0394394                                                                                                                              *          20160215IMF1602155.TXT
MDEUG2240225201602                D89805294000PT4U20160218000030SPEAKER ASM                   M IMCTM S9TS02 FTTL  07070IMCT  S9 PTB  00015                    2300 SR        000000000000 FUJITSU TEN (THAILAN150A71U0039039                                                                                                                              *          20160215IMF1602155.TXT
MDEUG2240226201602                D89805294000PT4U20160219000030SPEAKER ASM                   M IMCTM S9TS02 FTTL  07070IMCT  S9 PTB  00015                    0310 SR        000000000000 FUJITSU TEN (THAILAN150A72U0053053                                                                                                                              *          20160215IMF1602155.TXT
MDEUG2240227201602                D89805294000PT4U20160219000030SPEAKER ASM                   M IMCTM S9TS02 FTTL  07070IMCT  S9 PTB  00015                    0800 SR        000000000000 FUJITSU TEN (THAILAN150A79U0392392                                                                                                                              *          20160215IMF1602155.TXT
MDEUG2240228201602                D89805294000PT4U20160219000060SPEAKER ASM                   M IMCTM S9TS02 FTTL  07070IMCT  S9 PTB  00015                    1510 SR        000000000000 FUJITSU TEN (THAILAN150A73U0029029150A79U0393393                                                                                                                *          20160215IMF1602155.TXT
MDEUG2240229201602                D89805294000PT4U20160219000030SPEAKER ASM                   M IMCTM S9TS02 FTTL  07070IMCT  S9 PTB  00015                    2030 SR        000000000000 FUJITSU TEN (THAILAN150A79U0394394                                                                                                                              *          20160215IMF1602155.TXT
MDEUG2240230201602                D89805294100PV4U20160218000030SPEAKER ASM                   M IMCTM S0FL05 FTTL  07070IMCT  S0 PTB  00005                    2300 SR        000000000000 FUJITSU TEN (THAILAN150A71U0039039                                                                                                                              *          20160215IMF1602155.TXT
MDEUG2240231201602                D89805294100PV4U20160219000030SPEAKER ASM                   M IMCTM S0FL05 FTTL  07070IMCT  S0 PTB  00005                    0310 SR        000000000000 FUJITSU TEN (THAILAN150A72U0053053                                                                                                                              *          20160215IMF1602155.TXT
MDEUG2240232201602                D89805294100PV4U20160219000030SPEAKER ASM                   M IMCTM S0FL05 FTTL  07070IMCT  S0 PTB  00005                    0800 SR        000000000000 FUJITSU TEN (THAILAN150A79U0392392                                                                                                                              *          20160215IMF1602155.TXT
MDEUG2240233201602                D89805294100PV4U20160219000060SPEAKER ASM                   M IMCTM S0FL05 FTTL  07070IMCT  S0 PTB  00005                    1510 SR        000000000000 FUJITSU TEN (THAILAN150A73U0029029150A79U0393393                                                                                                                *          20160215IMF1602155.TXT
MDEUG2240234201602                D89805294100PV4U20160219000030SPEAKER ASM                   M IMCTM S0FL05 FTTL  07070IMCT  S0 PTB  00005                    2030 SR        000000000000 FUJITSU TEN (THAILAN150A79U0394394                                                                                                                              *          20160215IMF1602155.TXT
MDEUG2240235201602                D89805294200PT4U20160219000030SPEAKER ASM                   M IMCTM S9S137 FTTL  07070IMCT  S9 PTB  00030                    0800 SR        000000000000 FUJITSU TEN (THAILAN150A79U0392392                                                                                                                              *          20160215IMF1602155.TXT
MDEUG2240236201602                D89805294200PT4U20160219000060SPEAKER ASM                   M IMCTM S9S137 FTTL  07070IMCT  S9 PTB  00030                    1510 SR        000000000000 FUJITSU TEN (THAILAN150A73U0029029150A79U0393393                                                                                                                *          20160215IMF1602155.TXT
MDEUG2240237201602                D89805294200PT4U20160219000030SPEAKER ASM                   M IMCTM S9S137 FTTL  07070IMCT  S9 PTB  00030                    2030 SR        000000000000 FUJITSU TEN (THAILAN150A79U0394394                                                                                                                              *          20160215IMF1602155.TXT
MDEUG2240238201602                D89806470400PT4U20160219000015SPEAKER ASM;RDO,              M IMCTM S0TL03 FTTL  07070IMCT  S0 PTB  00015                    0800 SR        000000000000 FUJITSU TEN (THAILAN150A79U0392392                                                                                                                              *          20160215IMF1602155.TXT
MDEUG2240239201602                D89806470400PT4U20160219000030SPEAKER ASM;RDO,              M IMCTM S0TL03 FTTL  07070IMCT  S0 PTB  00015                    1510 SR        000000000000 FUJITSU TEN (THAILAN150A73U0029029150A79U0393393                                                                                                                *          20160215IMF1602155.TXT
MDEUG2240240201602                D89806470400PT4U20160219000015SPEAKER ASM;RDO,              M IMCTM S0TL03 FTTL  07070IMCT  S0 PTB  00015                    2030 SR        000000000000 FUJITSU TEN (THAILAN150A79U0394394                                                                                                                              *          20160215IMF1602155.TXT
MDEUG2240241201602                D89824135620PT4U20160218000015RADIO;AM/FM,CD,F              M IMCTM S9CO001FTTL  07070IMCT  S9 CPB  00003                    2300 SR        000000000000 FUJITSU TEN (THAILAN150A71U0039039                                                                                                                              *          20160215IMF1602155.TXT
MDEUG2240242201602                D89824135620PT4U20160219000015RADIO;AM/FM,CD,F              M IMCTM S9CO001FTTL  07070IMCT  S9 CPB  00003                    0310 SR        000000000000 FUJITSU TEN (THAILAN150A72U0053053                                                                                                                              *          20160215IMF1602155.TXT
