REC2016020120160201ISUZU                              29     
MDD6G2205281201602                D89825217900PT5620160205000030RADIO;AM/FM,CD,D              M IMCTM G55000 FTTL  07070G/WAY G5 PTB  00003                    2100 GW        0000000000005FUJITSU TEN (THAILAN160JYGG0069069                                                                                                                              *          20160201IMF1602015.TXT
MDD6G2205282201602                D89825217900PT5620160206000030RADIO;AM/FM,CD,D              M IMCTM G55000 FTTL  07070G/WAY G5 PTB  00003                    1530 GW        0000000000005FUJITSU TEN (THAILAN160JYGG0070070                                                                                                                              *          20160201IMF1602015.TXT
MDD6G2205283201602                D89828070100PV5620160205000060SPEAKER ASM                   M IMCTM G9B112 FTTL  07070G/WAY G9 PTB  00004                    1530 GW        0000000000005FUJITSU TEN (THAILAN160JZHG0022022                                                                                                                              *          20160201IMF1602015.TXT
MDD6G2205284201602                D89828070100PV5620160205000060SPEAKER ASM                   M IMCTM G9B112 FTTL  07070G/WAY G9 PTB  00004                    2100 GW        0000000000005FUJITSU TEN (THAILAN160JYGG0069069                                                                                                                              *          20160201IMF1602015.TXT
MDD6G2205285201602                D89828070100PV5620160205000060SPEAKER ASM                   M IMCTM G9B112 FTTL  07070G/WAY G9 PTB  00004                    2300 GW        0000000000005FUJITSU TEN (THAILAN160JZHG0023023                                                                                                                              *          20160201IMF1602015.TXT
MDD6G2205286201602                D89828070100PV5620160206000060SPEAKER ASM                   M IMCTM G9B112 FTTL  07070G/WAY G9 PTB  00004                    0200 GW        0000000000005FUJITSU TEN (THAILAN160JYJG0017017                                                                                                                              *          20160201IMF1602015.TXT
MDD6G2205287201602                D89828070100PV5620160206000060SPEAKER ASM                   M IMCTM G9B112 FTTL  07070G/WAY G9 PTB  00004                    0330 GW        0000000000005FUJITSU TEN (THAILAN160JZFG0109109                                                                                                                              *          20160201IMF1602015.TXT
MDD6G2205288201602                D89828070100PV5620160206000120SPEAKER ASM                   M IMCTM G9B112 FTTL  07070G/WAY G9 PTB  00004                    0900 GW        0000000000005FUJITSU TEN (THAILAN160JYSG0070070160JZTG0021021                                                                                                                *          20160201IMF1602015.TXT
MDD6G2205289201602                D89828070100PV5620160206000060SPEAKER ASM                   M IMCTM G9B112 FTTL  07070G/WAY G9 PTB  00004                    1100 GW        0000000000005FUJITSU TEN (THAILAN160JZFG0110110                                                                                                                              *          20160201IMF1602015.TXT
MDD6G2205290201602                D89828070100PV5620160206000060SPEAKER ASM                   M IMCTM G9B112 FTTL  07070G/WAY G9 PTB  00004                    1400 GW        0000000000005FUJITSU TEN (THAILAN160JYJG0018018                                                                                                                              *          20160201IMF1602015.TXT
MDD6G2205291201602                D89828070100PV5620160206000060SPEAKER ASM                   M IMCTM G9B112 FTTL  07070G/WAY G9 PTB  00004                    1530 GW        0000000000005FUJITSU TEN (THAILAN160JYGG0070070                                                                                                                              *          20160201IMF1602015.TXT
MDD6G2205292201602                D89828070200PV5620160205000060SPEAKER ASM                   M IMCTM G9F132 FTTL  07070G/WAY G9 PTB  00005                    1530 GW        0000000000005FUJITSU TEN (THAILAN160JZHG0022022                                                                                                                              *          20160201IMF1602015.TXT
MDD6G2205293201602                D89828070200PV5620160205000060SPEAKER ASM                   M IMCTM G9F132 FTTL  07070G/WAY G9 PTB  00005                    2300 GW        0000000000005FUJITSU TEN (THAILAN160JZHG0023023                                                                                                                              *          20160201IMF1602015.TXT
MDD6G2205294201602                D89828070200PV5620160206000060SPEAKER ASM                   M IMCTM G9F132 FTTL  07070G/WAY G9 PTB  00005                    0330 GW        0000000000005FUJITSU TEN (THAILAN160JZFG0109109                                                                                                                              *          20160201IMF1602015.TXT
MDD6G2205295201602                D89828070200PV5620160206000060SPEAKER ASM                   M IMCTM G9F132 FTTL  07070G/WAY G9 PTB  00005                    0900 GW        0000000000005FUJITSU TEN (THAILAN160JZTG0021021                                                                                                                              *          20160201IMF1602015.TXT
MDD6G2205296201602                D89828070200PV5620160206000060SPEAKER ASM                   M IMCTM G9F132 FTTL  07070G/WAY G9 PTB  00005                    1100 GW        0000000000005FUJITSU TEN (THAILAN160JZFG0110110                                                                                                                              *          20160201IMF1602015.TXT
MDD6G2205297201602                D89828070300PT5620160205000060SPEAKER ASM                   M IMCTM G9JB34 FTTL  07070G/WAY G9 PTB  00015                    1530 GW        0000000000005FUJITSU TEN (THAILAN160JZHG0022022                                                                                                                              *          20160201IMF1602015.TXT
MDD6G2205298201602                D89828070300PT5620160205000060SPEAKER ASM                   M IMCTM G9JB34 FTTL  07070G/WAY G9 PTB  00015                    2100 GW        0000000000005FUJITSU TEN (THAILAN160JYGG0069069                                                                                                                              *          20160201IMF1602015.TXT
MDD6G2205299201602                D89828070300PT5620160205000060SPEAKER ASM                   M IMCTM G9JB34 FTTL  07070G/WAY G9 PTB  00015                    2300 GW        0000000000005FUJITSU TEN (THAILAN160JZHG0023023                                                                                                                              *          20160201IMF1602015.TXT
MDD6G2205300201602                D89828070300PT5620160206000060SPEAKER ASM                   M IMCTM G9JB34 FTTL  07070G/WAY G9 PTB  00015                    0200 GW        0000000000005FUJITSU TEN (THAILAN160JYJG0017017                                                                                                                              *          20160201IMF1602015.TXT
MDD6G2205301201602                D89828070300PT5620160206000060SPEAKER ASM                   M IMCTM G9JB34 FTTL  07070G/WAY G9 PTB  00015                    0330 GW        0000000000005FUJITSU TEN (THAILAN160JZFG0109109                                                                                                                              *          20160201IMF1602015.TXT
MDD6G2205302201602                D89828070300PT5620160206000120SPEAKER ASM                   M IMCTM G9JB34 FTTL  07070G/WAY G9 PTB  00015                    0900 GW        0000000000005FUJITSU TEN (THAILAN160JYSG0070070160JZTG0021021                                                                                                                *          20160201IMF1602015.TXT
MDD6G2205303201602                D89828070300PT5620160206000060SPEAKER ASM                   M IMCTM G9JB34 FTTL  07070G/WAY G9 PTB  00015                    1100 GW        0000000000005FUJITSU TEN (THAILAN160JZFG0110110                                                                                                                              *          20160201IMF1602015.TXT
MDD6G2205304201602                D89828070300PT5620160206000060SPEAKER ASM                   M IMCTM G9JB34 FTTL  07070G/WAY G9 PTB  00015                    1400 GW        0000000000005FUJITSU TEN (THAILAN160JYJG0018018                                                                                                                              *          20160201IMF1602015.TXT
MDD6G2205305201602                D89828070300PT5620160206000060SPEAKER ASM                   M IMCTM G9JB34 FTTL  07070G/WAY G9 PTB  00015                    1530 GW        0000000000005FUJITSU TEN (THAILAN160JYGG0070070                                                                                                                              *          20160201IMF1602015.TXT
MDD6G2205306201602                D89829645900PT5620160206000030RADIO;ASM DVD                 M IMCTM G9J311 FTTL  07070G/WAY G9 CPB  00003                    0330 GW        0000000000005FUJITSU TEN (THAILAN160JZFG0109109                                                                                                                              *          20160201IMF1602015.TXT
MDD6G2205307201602                D89829645900PT5620160206000030RADIO;ASM DVD                 M IMCTM G9J311 FTTL  07070G/WAY G9 CPB  00003                    1100 GW        0000000000005FUJITSU TEN (THAILAN160JZFG0110110                                                                                                                              *          20160201IMF1602015.TXT
MDD6G2205308201602                D89831228300PT5620160206000030RADIO;AM/FM,CD                M IMCTM G9J311 FTTL  07070G/WAY G9 CPB  00003                    0900 GW        0000000000005FUJITSU TEN (THAILAN160JYSG0070070                                                                                                                              *          20160201IMF1602015.TXT
MDD6G2205309201602                D89831228400PT5620160206000030RADIO;AM/FM,CD                M IMCTM G9J311 FTTL  07070G/WAY G9 CPB  00003                    0900 GW        0000000000005FUJITSU TEN (THAILAN160JZTG0021021                                                                                                                              *          20160201IMF1602015.TXT
