REC2016021920160220ISUZU                              3      
MAEDG2608358201603                 89828070100PV4D20160301000006SPEAKER ASM                   M IMCTM ST00000FTTL  07070IMCT  ST PTB  00004  DC                0000 SR        000000000000 FUJITSU TEN (THAILAN17010LU000100117013LU000100117014LU0001001                                                                                                  *P         20160219IMF1602197.TXT
MAEDG2608359201603                 89828070200PV4D20160301000006SPEAKER ASM                   M IMCTM ST00000FTTL  07070IMCT  ST PTB  00005  DC                0000 SR        000000000000 FUJITSU TEN (THAILAN17010LU000100117013LU000100117014LU0001001                                                                                                  *P         20160219IMF1602197.TXT
MAEDG2608360201603                 89828070300PT4D20160301000006SPEAKER ASM                   M IMCTM ST00000FTTL  07070IMCT  ST PTB  00015  DC                0000 SR        000000000000 FUJITSU TEN (THAILAN17010LU000100117013LU000100117014LU0001001                                                                                                  *P         20160219IMF1602197.TXT
