REC2016021720160217ISUZU                              14     
MDEFG2T16840201602                D89805293700PV4F20160222000026SPEAKER ASM                   M IMCTM S7FR05 FTTL  07070IMCT  S7 PTB  00003                    0800 SR        000000000000 FUJITSU TEN (THAILAN15022DR0093   15075GR0038   D160205201    D160205215    000000                                                                              *R         20160217RDF1602175.TXT
MDEFG2T16841201602                D89805294000PT4F20160222000020SPEAKER ASM                   M IMCTM S7TS02 FTTL  07070IMCT  S7 PTB  00015                    0800 SR        000000000000 FUJITSU TEN (THAILAN15043DR0090   15075GR0038   D160205202    D160205215    000000                                                                              *R         20160217RDF1602175.TXT
MDEFG2T16842201602                D89805294100PV4F20160222000011SPEAKER ASM                   M IMCTM S7FR05 FTTL  07070IMCT  S7 PTB  00005                    0800 SR        000000000000 FUJITSU TEN (THAILAN15065CR0105   15075GR0038   D160205208    D160205215    000000                                                                              *R         20160217RDF1602175.TXT
MDEFG2T16843201602                D89805294200PT4F20160220000022SPEAKER ASM                   M IMCTM S7S137 FTTL  07070IMCT  S7 PTB  00030                    2300 SR        000000000000 FUJITSU TEN (THAILAN15025DR0078   15059DR0026   D160205104    D160205205    000000                                                                              *R         20160217RDF1602175.TXT
MDEFG2T16844201602                D89806470400PT4F20160220000011SPEAKER ASM;RDO,              M IMCTM S7TL03 FTTL  07070IMCT  S7 PTB  00015                    2300 SR        000000000000 FUJITSU TEN (THAILAN15025DR0078   15059DR0026   D160205104    D160205205    000000                                                                              *R         20160217RDF1602175.TXT
MDEFG2T16845201602                D89824360220PT4F20160222000002RADIO;AM/FM,CD                M IMCTM S7TS03 FTTL  07070IMCT  S7 CPB  00003                    0800 SR        000000000000 FUJITSU TEN (THAILAN15059DR0025   15059DR0026   D160205204    D160205205    000000                                                                              *R         20160217RDF1602175.TXT
MDEFG2T16846201602                D89828070100PV4F20160222000004SPEAKER ASM                   M IMCTM S7FL05 FTTL  07070IMCT  S7 PTB  00004                    0800 SR        000000000000 FUJITSU TEN (THAILAN16023KR0001   16023KR0002   D160205212    D160205213    000000                                                                              *R         20160217RDF1602175.TXT
MDEFG2245743201602                D89805293700PV4F20160220000030SPEAKER ASM                   M IMCTM S7FR05 FTTL  07070IMCT  S7 PTB  00003                    1100 SR        000000000000 FUJITSU TEN (THAILAN15010HR0014   15023FR0016   D160205001    D160205015    000000                                                                              *R         20160217RDF1602175.TXT
MDEFG2245744201602                D89805293700PV4F20160220000030SPEAKER ASM                   M IMCTM S7FR05 FTTL  07070IMCT  S7 PTB  00003                    2300 SR        000000000000 FUJITSU TEN (THAILAN15010HR0017   15055DR0082   D160205101    D160205115    000000                                                                              *R         20160217RDF1602175.TXT
MDEFG2245745201602                D89805294000PT4F20160220000030SPEAKER ASM                   M IMCTM S7TS02 FTTL  07070IMCT  S7 PTB  00015                    1100 SR        000000000000 FUJITSU TEN (THAILAN15010HR0014   15023FR0016   D160205001    D160205015    000000                                                                              *R         20160217RDF1602175.TXT
MDEFG2245746201602                D89805294000PT4F20160220000030SPEAKER ASM                   M IMCTM S7TS02 FTTL  07070IMCT  S7 PTB  00015                    2300 SR        000000000000 FUJITSU TEN (THAILAN15010HR0017   15055DR0082   D160205101    D160205115    000000                                                                              *R         20160217RDF1602175.TXT
MDEFG2245747201602                D89805294100PV4F20160220000010SPEAKER ASM                   M IMCTM S7FR05 FTTL  07070IMCT  S7 PTB  00005                    1100 SR        000000000000 FUJITSU TEN (THAILAN15010HR0014   15010HR0017   D160205001    D160205101    000000                                                                              *R         20160217RDF1602175.TXT
MDEFG2245748201602                D89805294100PV4F20160220000005SPEAKER ASM                   M IMCTM S7FR05 FTTL  07070IMCT  S7 PTB  00005                    2300 SR        000000000000 FUJITSU TEN (THAILAN15010HR0018   15065CR0105   D160205102    D160205208    000000                                                                              *R         20160217RDF1602175.TXT
MDEFG2245749201602                D89824360220PT4F20160220000009RADIO;AM/FM,CD                M IMCTM S7TS03 FTTL  07070IMCT  S7 CPB  00003                    2300 SR        000000000000 FUJITSU TEN (THAILAN15025DR0078   15043DR0091   D160205104    D160205203    000000                                                                              *R         20160217RDF1602175.TXT
