REC2016022520160225ISUZU                              17     
MDEFG2T23849201603                D89805293700PV4F20160301000014SPEAKER ASM                   M IMCTM S7FR05 FTTL  07070IMCT  S7 PTB  00003                    1510 SR        000000000000 FUJITSU TEN (THAILAN15057CR0140   15075GR0049   D160300405    D160300411    000000                                                                              *R         20160225RDF1602253.TXT
MDEFG2T23850201603                D89805294000PT4F20160301000005SPEAKER ASM                   M IMCTM S7TS02 FTTL  07070IMCT  S7 PTB  00015                    1510 SR        000000000000 FUJITSU TEN (THAILAN15070CR0035   15075GR0049   D160300409    D160300411    000000                                                                              *R         20160225RDF1602253.TXT
MDEFG2T23851201603                D89805294100PV4F20160301000002SPEAKER ASM                   M IMCTM S7FR05 FTTL  07070IMCT  S7 PTB  00005                    1510 SR        000000000000 FUJITSU TEN (THAILAN15075GR0049   15075GR0049   D160300411    D160300411    000000                                                                              *R         20160225RDF1602253.TXT
MDEFG2T23852201603                D89805294200PT4F20160229000010SPEAKER ASM                   M IMCTM S7S137 FTTL  07070IMCT  S7 PTB  00030                    1510 SR        000000000000 FUJITSU TEN (THAILAN15030DR0117   15042DR0099   D160300204    D160300401    000000                                                                              *R         20160225RDF1602253.TXT
MDEFG2T23853201603                D89806470400PT4F20160229000005SPEAKER ASM;RDO,              M IMCTM S7TL03 FTTL  07070IMCT  S7 PTB  00015                    1510 SR        000000000000 FUJITSU TEN (THAILAN15030DR0117   15042DR0099   D160300204    D160300401    000000                                                                              *R         20160225RDF1602253.TXT
MDEFG2T23854201603                D89824360220PT4F20160229000003RADIO;AM/FM,CD                M IMCTM S7TS03 FTTL  07070IMCT  S7 CPB  00003                    1510 SR        000000000000 FUJITSU TEN (THAILAN15030DR0117   15039DR0133   D160300204    D160300207    000000                                                                              *R         20160225RDF1602253.TXT
MDEFG2T23855201603                D89828070100PV4F20160301000006SPEAKER ASM                   M IMCTM S7FL05 FTTL  07070IMCT  S7 PTB  00004                    1510 SR        000000000000 FUJITSU TEN (THAILAN16021KR0002   16021KR0004   D160300413    D160300415    000000                                                                              *R         20160225RDF1602253.TXT
MDEFG2T23856201603                D89828070200PV4F20160229000002SPEAKER ASM                   M IMCTM S0FR05 FTTL  07070IMCT  S0 PTB  00005                    1510 SR        000000000000 FUJITSU TEN (THAILAN16033KR0003   16033KR0003   D160300208    D160300208    000000                                                                              *R         20160225RDF1602253.TXT
MDEFG2T23857201603                D89828070300PT4F20160229000002SPEAKER ASM                   M IMCTM S9TS02 FTTL  07070IMCT  S9 PTB  00015                    1510 SR        000000000000 FUJITSU TEN (THAILAN16033KR0003   16033KR0003   D160300208    D160300208    000000                                                                              *R         20160225RDF1602253.TXT
MDEFG2T23858201603                D89831228400PT4F20160229000001RADIO;AM/FM,CD                M IMCTM S7TS03 FTTL  07070IMCT  S7 CPB  00003                    1510 SR        000000000000 FUJITSU TEN (THAILAN16033KR0003   16033KR0003   D160300208    D160300208    000000                                                                              *R         20160225RDF1602253.TXT
MDEFG2269091201603                D89805293700PV4F20160229000015SPEAKER ASM                   M IMCTM S7FR05 FTTL  07070IMCT  S7 PTB  00003                    1510 SR        000000000000 FUJITSU TEN (THAILAN15023DR0084   15044DR0050   D160300201    R160300301    000000                                                                              *R         20160225RDF1602253.TXT
MDEFG2269092201603                D89805293700PV4F20160301000021SPEAKER ASM                   M IMCTM S7FR05 FTTL  07070IMCT  S7 PTB  00003                    0800 SR        000000000000 FUJITSU TEN (THAILAN15042DR0099   15044DR0054   D160300401    R160300315    000000                                                                              *R         20160225RDF1602253.TXT
MDEFG2269093201603                D89805293700PV4F20160301000006SPEAKER ASM                   M IMCTM S7FR05 FTTL  07070IMCT  S7 PTB  00003                    1100 SR        000000000000 FUJITSU TEN (THAILAN15057CR0137   15057CR0139   D160300402    D160300404    000000                                                                              *R         20160225RDF1602253.TXT
MDEFG2269094201603                D89805294000PT4F20160229000015SPEAKER ASM                   M IMCTM S7TS02 FTTL  07070IMCT  S7 PTB  00015                    1510 SR        000000000000 FUJITSU TEN (THAILAN15030DR0117   15070CR0035   D160300204    D160300409    000000                                                                              *R         20160225RDF1602253.TXT
MDEFG2269095201603                D89828070100PV4F20160229000004SPEAKER ASM                   M IMCTM S7FL05 FTTL  07070IMCT  S7 PTB  00004                    1510 SR        000000000000 FUJITSU TEN (THAILAN16033KR0003   16065JR0001   D160300208    D160300209    000000                                                                              *R         20160225RDF1602253.TXT
MDEFG2269096201603                D89828070100PV4F20160229000012SPEAKER ASM                   M IMCTM S7FL05 FTTL  07070IMCT  S7 PTB  00004                    2030 SR        000000000000 FUJITSU TEN (THAILAN16065JR0002   16065JR0007   D160300210    D160300215    000000                                                                              *R         20160225RDF1602253.TXT
MDEFG2269097201603                D89828070100PV4F20160301000012SPEAKER ASM                   M IMCTM S7FL05 FTTL  07070IMCT  S7 PTB  00004                    0800 SR        000000000000 FUJITSU TEN (THAILAN16021KR0001   16078HR0003   D160300412    R160300313    000000                                                                              *R         20160225RDF1602253.TXT
