REC2016021820160219ISUZU                              9      
MDEFG2T17967201602                D89805293700PV4F20160223000010SPEAKER ASM                   M IMCTM S7FR05 FTTL  07070IMCT  S7 PTB  00003                    1510 SR        000000000000 FUJITSU TEN (THAILAN15061FR0034   15061FR0038   H160205501    H160205515    000000                                                                              *R         20160218RDF1602187.TXT
MDEFG2T17968201602                D89805294000PT4F20160223000010SPEAKER ASM                   M IMCTM S7TS02 FTTL  07070IMCT  S7 PTB  00015                    1510 SR        000000000000 FUJITSU TEN (THAILAN15061FR0034   15061FR0038   H160205501    H160205515    000000                                                                              *R         20160218RDF1602187.TXT
MDEFG2T17969201602                D89805294100PV4F20160223000010SPEAKER ASM                   M IMCTM S7FR05 FTTL  07070IMCT  S7 PTB  00005                    1510 SR        000000000000 FUJITSU TEN (THAILAN15061FR0034   15061FR0038   H160205501    H160205515    000000                                                                              *R         20160218RDF1602187.TXT
MDEFG2T17970201602                D89825426010PT4F20160223000005RADIO;AM/FM,CD,F              M IMCTM S7TS03 FTTL  07070IMCT  S7 CPB  00003                    1510 SR        000000000000 FUJITSU TEN (THAILAN15061FR0034   15061FR0038   H160205501    H160205515    000000                                                                              *R         20160218RDF1602187.TXT
MDEFG2T17971201602                D89828070100PV4F20160223000020SPEAKER ASM                   M IMCTM S7FL05 FTTL  07070IMCT  S7 PTB  00004                    1510 SR        000000000000 FUJITSU TEN (THAILAN16009JR0001   16041KR0002   H160205505    H160205514    000000                                                                              *R         20160218RDF1602187.TXT
MDEFG2250035201602                D89805293700PV4F20160222000030SPEAKER ASM                   M IMCTM S7FR05 FTTL  07070IMCT  S7 PTB  00003                    2030 SR        000000000000 FUJITSU TEN (THAILAN15028BR0077   15028BR0086   D160205301    D160205315    000000                                                                              *R         20160218RDF1602187.TXT
MDEFG2250036201602                D89805293700PV4F20160223000030SPEAKER ASM                   M IMCTM S7FR05 FTTL  07070IMCT  S7 PTB  00003                    0800 SR        000000000000 FUJITSU TEN (THAILAN15055CR0100   15079CR0061   C160205401    C160205415    000000                                                                              *R         20160218RDF1602187.TXT
MDEFG2250037201602                D89805294000PT4F20160222000030SPEAKER ASM                   M IMCTM S7TS02 FTTL  07070IMCT  S7 PTB  00015                    2030 SR        000000000000 FUJITSU TEN (THAILAN15028BR0077   15028BR0086   D160205301    D160205315    000000                                                                              *R         20160218RDF1602187.TXT
MDEFG2250038201602                D89805294100PV4F20160222000030SPEAKER ASM                   M IMCTM S7FR05 FTTL  07070IMCT  S7 PTB  00005                    2030 SR        000000000000 FUJITSU TEN (THAILAN15028BR0077   15028BR0086   D160205301    D160205315    000000                                                                              *R         20160218RDF1602187.TXT
