REC2016021320160213ISUZU                              4      
MAEDG2602231201606                 89828070100PV1D20160418000026SPEAKER ASM                   M IMCTM ST00000FTTL  07070IMCT  ST PTB  00004  DC                0000 SR        000000000000 FUJITSU TEN (THAILAN17014HL000200217016HL000200317019HL000200417020HL000200217022HL000200417053LL000100117055LL000100117056LL0001001                            *P         20160213IMF1602131.TXT
MAEDG2602232201606                 89828070200PV1D20160418000024SPEAKER ASM                   M IMCTM ST00000FTTL  07070IMCT  ST PTB  00005  DC                0000 SR        000000000000 FUJITSU TEN (THAILAN17016HL000200317019HL000200417020HL000200217022HL000200417053LL000100117055LL000100117056LL0001001                                          *P         20160213IMF1602131.TXT
MAEDG2602233201606                 89828070300PT1D20160418000026SPEAKER ASM                   M IMCTM ST00000FTTL  07070IMCT  ST PTB  00015  DC                0000 SR        000000000000 FUJITSU TEN (THAILAN17014HL000200217016HL000200317019HL000200417020HL000200217022HL000200417053LL000100117055LL000100117056LL0001001                            *P         20160213IMF1602131.TXT
MAEDG2602234201606                 89831228600PT1D20160418000006RADIO;AM/FM,CD                M IMCTM ST00000FTTL  07070IMCT  ST PTB  00003  DC                0000 SR        000000000000 FUJITSU TEN (THAILAN17014HL000200217019HL000200417053LL000100117055LL0001001                                                                                    *P         20160213IMF1602131.TXT
