REC2016021720160217ISUZU                              33     
MDDDG2268514201602                D89821984430PT1D20160220000030RADIO;AM/FM,CD                M IMCTM S5NC06 FTTL  07070IMCT  S5 PTB  00005                    2230 SR        000000000000 FUJITSU TEN (THAILAN160JXAL0071071                                                                                                                              *          20160217IMF1602175.TXT
MDDDG2268515201602                D89821984430PT1D20160221000030RADIO;AM/FM,CD                M IMCTM S5NC06 FTTL  07070IMCT  S5 PTB  00005                    0310 SR        000000000000 FUJITSU TEN (THAILAN160JYPL0040040                                                                                                                              *          20160217IMF1602175.TXT
MDDDG2268516201602                D89821984430PT1D20160222000030RADIO;AM/FM,CD                M IMCTM S5NC06 FTTL  07070IMCT  S5 PTB  00005                    1000 SR        000000000000 FUJITSU TEN (THAILAN160JXEL0029029                                                                                                                              *          20160217IMF1602175.TXT
MDDDG2268517201602                D89828070100PV1D20160220000060SPEAKER ASM                   M IMCTM S5MA12 FTTL  07070IMCT  S5 PTB  00004                    2230 SR        000000000000 FUJITSU TEN (THAILAN160JXAL0071071                                                                                                                              *          20160217IMF1602175.TXT
MDDDG2268518201602                D89828070100PV1D20160221000120SPEAKER ASM                   M IMCTM S5MA12 FTTL  07070IMCT  S5 PTB  00004                    0310 SR        000000000000 FUJITSU TEN (THAILAN160JXCL0023023160JYSL0042042                                                                                                                *          20160217IMF1602175.TXT
MDDDG2268519201602                D89828070100PV1D20160222000120SPEAKER ASM                   M IMCTM S5MA12 FTTL  07070IMCT  S5 PTB  00004                    1000 SR        000000000000 FUJITSU TEN (THAILAN160JXEL0029029160JYPL0040040                                                                                                                *          20160217IMF1602175.TXT
MDDDG2268520201602                D89828070100PV1D20160222000060SPEAKER ASM                   M IMCTM S5MA12 FTTL  07070IMCT  S5 PTB  00004                    1510 SR        000000000000 FUJITSU TEN (THAILAN160JYSL0043043                                                                                                                              *          20160217IMF1602175.TXT
MDDDG2268521201602                D89828070300PT1D20160221000060SPEAKER ASM                   M IMCTM S5NB042FTTL  07070IMCT  S5 PTB  00015                    0310 SR        000000000000 FUJITSU TEN (THAILAN160JYSL0042042                                                                                                                              *          20160217IMF1602175.TXT
MDDDG2268522201602                D89828070300PT1D20160222000060SPEAKER ASM                   M IMCTM S5NB042FTTL  07070IMCT  S5 PTB  00015                    1510 SR        000000000000 FUJITSU TEN (THAILAN160JYSL0043043                                                                                                                              *          20160217IMF1602175.TXT
MDDDG2268523201602                D89831228300PT1D20160220000030RADIO;AM/FM,CD                M IMCTM S5NC06 FTTL  07070IMCT  S5 CPB  00003                    2230 SR        000000000000 FUJITSU TEN (THAILAN160JYSL0042042                                                                                                                              *          20160217IMF1602175.TXT
MDDDG2268524201602                D89831228300PT1D20160222000030RADIO;AM/FM,CD                M IMCTM S5NC06 FTTL  07070IMCT  S5 CPB  00003                    1510 SR        000000000000 FUJITSU TEN (THAILAN160JYSL0043043                                                                                                                              *          20160217IMF1602175.TXT
MDEDG2313044201602                D89828070100PV1D20160220000030SPEAKER ASM                   M IMCTM S5MA12 FTTL  07070IMCT  S5 PTB  00004                    2230 SR        000000000000 FUJITSU TEN (THAILAN16007JL0002002                                                                                                                              *          20160217IMF1602175.TXT
MDEDG2313045201602                D89828070100PV1D20160221000060SPEAKER ASM                   M IMCTM S5MA12 FTTL  07070IMCT  S5 PTB  00004                    0310 SR        000000000000 FUJITSU TEN (THAILAN16007JL0003004                                                                                                                              *          20160217IMF1602175.TXT
MDEDG2313046201602                D89828070100PV1D20160222000060SPEAKER ASM                   M IMCTM S5MA12 FTTL  07070IMCT  S5 PTB  00004                    1000 SR        000000000000 FUJITSU TEN (THAILAN16032JL0001002                                                                                                                              *          20160217IMF1602175.TXT
MDEDG2313047201602                D89828070100PV1D20160222000120SPEAKER ASM                   M IMCTM S5MA12 FTTL  07070IMCT  S5 PTB  00004                    1510 SR        000000000000 FUJITSU TEN (THAILAN16065JL000100216078HL0001002                                                                                                                *          20160217IMF1602175.TXT
MDEDG2313048201602                D89828070100PV1D20160222000060SPEAKER ASM                   M IMCTM S5MA12 FTTL  07070IMCT  S5 PTB  00004                    2230 SR        000000000000 FUJITSU TEN (THAILAN16007JL0005006                                                                                                                              *          20160217IMF1602175.TXT
MDEDG2313049201602                D89828070100PV4D20160220000030SPEAKER ASM                   M IMCTM S0FL05 FTTL  07070IMCT  S0 PTB  00004                    2030 SR        000000000000 FUJITSU TEN (THAILAN16007JU0001001                                                                                                                              *          20160217IMF1602175.TXT
MDEDG2313050201602                D89828070100PV4D20160220000030SPEAKER ASM                   M IMCTM S0FL05 FTTL  07070IMCT  S0 PTB  00004                    2300 SR        000000000000 FUJITSU TEN (THAILAN16078HU0001001                                                                                                                              *          20160217IMF1602175.TXT
MDEDG2313051201602                D89828070100PV4D20160221000030SPEAKER ASM                   M IMCTM S0FL05 FTTL  07070IMCT  S0 PTB  00004                    0310 SR        000000000000 FUJITSU TEN (THAILAN16007JU0002002                                                                                                                              *          20160217IMF1602175.TXT
MDEDG2313052201602                D89828070100PV4D20160222000060SPEAKER ASM                   M IMCTM S0FL05 FTTL  07070IMCT  S0 PTB  00004                    1100 SR        000000000000 FUJITSU TEN (THAILAN16016KU000100116078HU0002002                                                                                                                *          20160217IMF1602175.TXT
MDEDG2313053201602                D89828070100PV4D20160222000030SPEAKER ASM                   M IMCTM S0FL05 FTTL  07070IMCT  S0 PTB  00004                    2030 SR        000000000000 FUJITSU TEN (THAILAN16007JU0003003                                                                                                                              *          20160217IMF1602175.TXT
MDEUG2247712201602                D89828070100PT4U20160220000030SPEAKER ASM                   M IMCTM S0FL05 FTTL  07070IMCT  S0 PTB  00004                    2300 SR        000000000000 FUJITSU TEN (THAILAN160B48U0002002                                                                                                                              *          20160217IMF1602175.TXT
MDEUG2247713201602                D89828070100PT4U20160221000030SPEAKER ASM                   M IMCTM S0FL05 FTTL  07070IMCT  S0 PTB  00004                    0310 SR        000000000000 FUJITSU TEN (THAILAN160B48U0003003                                                                                                                              *          20160217IMF1602175.TXT
MDEUG2247714201602                D89828070100PT4U20160222000030SPEAKER ASM                   M IMCTM S0FL05 FTTL  07070IMCT  S0 PTB  00004                    0800 SR        000000000000 FUJITSU TEN (THAILAN160B48U0004004                                                                                                                              *          20160217IMF1602175.TXT
MDEUG2247715201602                D89828070100PT4U20160222000030SPEAKER ASM                   M IMCTM S0FL05 FTTL  07070IMCT  S0 PTB  00004                    1100 SR        000000000000 FUJITSU TEN (THAILAN160B48U0005005                                                                                                                              *          20160217IMF1602175.TXT
MDEUG2247716201602                D89828070200PV4U20160220000030SPEAKER ASM                   M IMCTM S0FR05 FTTL  07070IMCT  S0 PTB  00005                    2300 SR        000000000000 FUJITSU TEN (THAILAN160B48U0002002                                                                                                                              *          20160217IMF1602175.TXT
MDEUG2247717201602                D89828070200PV4U20160221000030SPEAKER ASM                   M IMCTM S0FR05 FTTL  07070IMCT  S0 PTB  00005                    0310 SR        000000000000 FUJITSU TEN (THAILAN160B48U0003003                                                                                                                              *          20160217IMF1602175.TXT
MDEUG2247718201602                D89828070200PV4U20160222000030SPEAKER ASM                   M IMCTM S0FR05 FTTL  07070IMCT  S0 PTB  00005                    0800 SR        000000000000 FUJITSU TEN (THAILAN160B48U0004004                                                                                                                              *          20160217IMF1602175.TXT
MDEUG2247719201602                D89828070200PV4U20160222000030SPEAKER ASM                   M IMCTM S0FR05 FTTL  07070IMCT  S0 PTB  00005                    1100 SR        000000000000 FUJITSU TEN (THAILAN160B48U0005005                                                                                                                              *          20160217IMF1602175.TXT
MDEUG2247720201602                D89828070300PT4U20160220000030SPEAKER ASM                   M IMCTM S9TS02 FTTL  07070IMCT  S9 PTB  00015                    2300 SR        000000000000 FUJITSU TEN (THAILAN160B48U0002002                                                                                                                              *          20160217IMF1602175.TXT
MDEUG2247721201602                D89828070300PT4U20160221000030SPEAKER ASM                   M IMCTM S9TS02 FTTL  07070IMCT  S9 PTB  00015                    0310 SR        000000000000 FUJITSU TEN (THAILAN160B48U0003003                                                                                                                              *          20160217IMF1602175.TXT
MDEUG2247722201602                D89828070300PT4U20160222000030SPEAKER ASM                   M IMCTM S9TS02 FTTL  07070IMCT  S9 PTB  00015                    0800 SR        000000000000 FUJITSU TEN (THAILAN160B48U0004004                                                                                                                              *          20160217IMF1602175.TXT
MDEUG2247723201602                D89828070300PT4U20160222000030SPEAKER ASM                   M IMCTM S9TS02 FTTL  07070IMCT  S9 PTB  00015                    1100 SR        000000000000 FUJITSU TEN (THAILAN160B48U0005005                                                                                                                              *          20160217IMF1602175.TXT
