REC2016021920160219ISUZU                              3      
MAEDG2607164201603                 89828070100PV1D20160301000004SPEAKER ASM                   M IMCTM ST00000FTTL  07070IMCT  ST PTB  00004  DC                0000 SR        000000000000 FUJITSU TEN (THAILAN17010LL000100117013LL0001001                                                                                                                *P         20160219IMF1602191.TXT
MAEDG2607165201603                 89828070200PV1D20160301000004SPEAKER ASM                   M IMCTM ST00000FTTL  07070IMCT  ST PTB  00005  DC                0000 SR        000000000000 FUJITSU TEN (THAILAN17010LL000100117013LL0001001                                                                                                                *P         20160219IMF1602191.TXT
MAEDG2607166201603                 89828070300PT1D20160301000004SPEAKER ASM                   M IMCTM ST00000FTTL  07070IMCT  ST PTB  00015  DC                0000 SR        000000000000 FUJITSU TEN (THAILAN17010LL000100117013LL0001001                                                                                                                *P         20160219IMF1602191.TXT
