REC2016020420160204ISUZU                              4      
MAEUG2600425201606                 89828070100PT4U20160418000014SPEAKER ASM                   M IMCTM ST00000FTTL  07070IMCT  ST PTB  00004  DC                0000 SR        000000000000 FUJITSU TEN (THAILAN170B30U0003003170B32U0003005170B34U0003003170B94U0001001170B95U0001001                                                                      *P         20160204IMF1602041.TXT
MAEUG2600426201606                 89828070200PV4U20160418000014SPEAKER ASM                   M IMCTM ST00000FTTL  07070IMCT  ST PTB  00005  DC                0000 SR        000000000000 FUJITSU TEN (THAILAN170B30U0003003170B32U0003005170B34U0003003170B94U0001001170B95U0001001                                                                      *P         20160204IMF1602041.TXT
MAEUG2600427201606                 89828070300PT4U20160418000014SPEAKER ASM                   M IMCTM ST00000FTTL  07070IMCT  ST PTB  00015  DC                0000 SR        000000000000 FUJITSU TEN (THAILAN170B30U0003003170B32U0003005170B34U0003003170B94U0001001170B95U0001001                                                                      *P         20160204IMF1602041.TXT
MAEUG2600428201606                 89831228600PT4U20160418000001RADIO;AM/FM,CD                M IMCTM ST00000FTTL  07070IMCT  ST PTB  00003  DC                0000 SR        000000000000 FUJITSU TEN (THAILAN170B30U0003003                                                                                                                              *P         20160204IMF1602041.TXT
