REC2016021220160212ISUZU                              3      
MAEDG2600336201604                 89828070100PV4D20160314000006SPEAKER ASM                   M IMCTM ST00000FTTL  07070IMCT  ST PTB  00004  DC                0000 SR        000000000000 FUJITSU TEN (THAILAN16069LU000100116070LU000100116071LU0001001                                                                                                  *P         20160212IMF1602122.TXT
MAEDG2600337201604                 89828070200PV4D20160314000004SPEAKER ASM                   M IMCTM ST00000FTTL  07070IMCT  ST PTB  00005  DC                0000 SR        000000000000 FUJITSU TEN (THAILAN16070LU000100116071LU0001001                                                                                                                *P         20160212IMF1602122.TXT
MAEDG2600338201604                 89828070300PT4D20160314000004SPEAKER ASM                   M IMCTM ST00000FTTL  07070IMCT  ST PTB  00015  DC                0000 SR        000000000000 FUJITSU TEN (THAILAN16070LU000100116071LU0001001                                                                                                                *P         20160212IMF1602122.TXT
