REC2016022720160229ISUZU                              19     
MDEFG2T26430201603                D89805293700PV4F20160303000024SPEAKER ASM                   M IMCTM S7FR05 FTTL  07070IMCT  S7 PTB  00003                    1510 SR        000000000000 FUJITSU TEN (THAILAN15030BR0059   15030BR0068   D160301002    D160301015    000000                                                                              *R         20160227RDF1602274.TXT
MDEFG2T26431201603                D89805294000PT4F20160303000015SPEAKER ASM                   M IMCTM S7TS02 FTTL  07070IMCT  S7 PTB  00015                    1510 SR        000000000000 FUJITSU TEN (THAILAN15030BR0063   15030BR0068   D160301006    D160301015    000000                                                                              *R         20160227RDF1602274.TXT
MDEFG2T26432201603                D89805294100PV4F20160303000022SPEAKER ASM                   M IMCTM S7FR05 FTTL  07070IMCT  S7 PTB  00005                    1510 SR        000000000000 FUJITSU TEN (THAILAN15026DR0129   15030BR0068   D160301001    D160301015    000000                                                                              *R         20160227RDF1602274.TXT
MDEFG2T26433201603                D89805294200PT4F20160303000012SPEAKER ASM                   M IMCTM S7S137 FTTL  07070IMCT  S7 PTB  00030                    0800 SR        000000000000 FUJITSU TEN (THAILAN15039DR0136   15013DR0116   D160301007    F160300913    000000                                                                              *R         20160227RDF1602274.TXT
MDEFG2T26434201603                D89806470400PT4F20160303000006SPEAKER ASM;RDO,              M IMCTM S7TL03 FTTL  07070IMCT  S7 PTB  00015                    0800 SR        000000000000 FUJITSU TEN (THAILAN15039DR0136   15013DR0116   D160301007    F160300913    000000                                                                              *R         20160227RDF1602274.TXT
MDEFG2T26435201603                D89824360220PT4F20160303000005RADIO;AM/FM,CD                M IMCTM S7TS03 FTTL  07070IMCT  S7 CPB  00003                    0800 SR        000000000000 FUJITSU TEN (THAILAN15039DR0136   15013DR0116   D160301007    F160300913    000000                                                                              *R         20160227RDF1602274.TXT
MDEFG2T26436201603                D89828070100PV4F20160303000002SPEAKER ASM                   M IMCTM S7FL05 FTTL  07070IMCT  S7 PTB  00004                    1510 SR        000000000000 FUJITSU TEN (THAILAN16033KR0005   16033KR0005   D160301010    D160301010    000000                                                                              *R         20160227RDF1602274.TXT
MDEFG2T26437201603                D89828070200PV4F20160303000002SPEAKER ASM                   M IMCTM S0FR05 FTTL  07070IMCT  S0 PTB  00005                    1510 SR        000000000000 FUJITSU TEN (THAILAN16033KR0005   16033KR0005   D160301010    D160301010    000000                                                                              *R         20160227RDF1602274.TXT
MDEFG2T26438201603                D89828070300PT4F20160303000001SPEAKER ASM                   M IMCTM S9TS02 FTTL  07070IMCT  S9 PTB  00015                    1510 SR        000000000000 FUJITSU TEN (THAILAN16033KR0005   16033KR0005   D160301010    D160301010    000000                                                                              *R         20160227RDF1602274.TXT
MDEFG2T26439201603                D89831228400PT4F20160303000001RADIO;AM/FM,CD                M IMCTM S7TS03 FTTL  07070IMCT  S7 CPB  00003                    1510 SR        000000000000 FUJITSU TEN (THAILAN16033KR0005   16033KR0005   D160301010    D160301010    000000                                                                              *R         20160227RDF1602274.TXT
MDEFG2T26440201603                D89831229200PT4F20160302000005RADIO;AM/FM,CD                M IMCTM S7TS03 FTTL  07070IMCT  S7 PTB  00003                    2300 SR        000000000000 FUJITSU TEN (THAILAN16024JR0001   16024JR0005   D160300811    D160300815    000000                                                                              *R         20160227RDF1602274.TXT
MDEFG2277286201603                D89805293700PV4F20160302000021SPEAKER ASM                   M IMCTM S7FR05 FTTL  07070IMCT  S7 PTB  00003                    2300 SR        000000000000 FUJITSU TEN (THAILAN15056CR0091   15004DR0081   D160300801    F160300901    000000                                                                              *R         20160227RDF1602274.TXT
MDEFG2277287201603                D89805293700PV4F20160303000027SPEAKER ASM                   M IMCTM S7FR05 FTTL  07070IMCT  S7 PTB  00003                    0800 SR        000000000000 FUJITSU TEN (THAILAN15026DR0129   15013DR0116   D160301001    F160300913    000000                                                                              *R         20160227RDF1602274.TXT
MDEFG2277288201603                D89805294000PT4F20160302000030SPEAKER ASM                   M IMCTM S7TS02 FTTL  07070IMCT  S7 PTB  00015                    2300 SR        000000000000 FUJITSU TEN (THAILAN15056CR0091   15013DR0114   D160300801    F160300911    000000                                                                              *R         20160227RDF1602274.TXT
MDEFG2277289201603                D89805294000PT4F20160303000015SPEAKER ASM                   M IMCTM S7TS02 FTTL  07070IMCT  S7 PTB  00015                    0800 SR        000000000000 FUJITSU TEN (THAILAN15026DR0129   15013DR0116   D160301001    F160300913    000000                                                                              *R         20160227RDF1602274.TXT
MDEFG2277290201603                D89828070100PV4F20160302000012SPEAKER ASM                   M IMCTM S7FL05 FTTL  07070IMCT  S7 PTB  00004                    2300 SR        000000000000 FUJITSU TEN (THAILAN16024JR0001   16018KR0004   D160300811    F160300914    000000                                                                              *R         20160227RDF1602274.TXT
MDEFG2277291201603                D89828070100PV4F20160303000004SPEAKER ASM                   M IMCTM S7FL05 FTTL  07070IMCT  S7 PTB  00004                    0800 SR        000000000000 FUJITSU TEN (THAILAN16023KR0005   16018KR0005   D160301009    F160300915    000000                                                                              *R         20160227RDF1602274.TXT
MDEFG2277292201603                D89828070200PV4F20160302000010SPEAKER ASM                   M IMCTM S0FR05 FTTL  07070IMCT  S0 PTB  00005                    2300 SR        000000000000 FUJITSU TEN (THAILAN16024JR0001   16024JR0005   D160300811    D160300815    000000                                                                              *R         20160227RDF1602274.TXT
MDEFG2277293201603                D89828070300PT4F20160302000015SPEAKER ASM                   M IMCTM S9TS02 FTTL  07070IMCT  S9 PTB  00015                    2300 SR        000000000000 FUJITSU TEN (THAILAN16024JR0001   16018KR0005   D160300811    F160300915    000000                                                                              *R         20160227RDF1602274.TXT
