REC2016031820160319ISUZU                              9      
MDEFG3T18612201603                D89805293700PV4F20160323000001SPEAKER ASM                   M IMCTM S7FR05 FTTL  07070IMCT  S7 PTB  00003                    0800 SR        000000000000 FUJITSU TEN (THAILAN15076CR0066   15076CR0066   R160305115    R160305115    000000                                                                              *R         20160318RDF1603184.TXT
MDEFG3T18613201603                D89805294000PT4F20160322000020SPEAKER ASM                   M IMCTM S7TS02 FTTL  07070IMCT  S7 PTB  00015                    1510 SR        000000000000 FUJITSU TEN (THAILAN15044HR0011   15044HR0020   D160305001    D160305010    000000                                                                              *R         20160318RDF1603184.TXT
MDEFG3T18614201603                D89805294100PV4F20160322000020SPEAKER ASM                   M IMCTM S7FR05 FTTL  07070IMCT  S7 PTB  00005                    1510 SR        000000000000 FUJITSU TEN (THAILAN15044HR0011   15044HR0020   D160305001    D160305010    000000                                                                              *R         20160318RDF1603184.TXT
MDEFG3T18615201603                D89828070100PV4F20160323000026SPEAKER ASM                   M IMCTM S7FL05 FTTL  07070IMCT  S7 PTB  00004                    0800 SR        000000000000 FUJITSU TEN (THAILAN16081HR0001   16081HR0013   R160305102    R160305114    000000                                                                              *R         20160318RDF1603184.TXT
MDEFG3T18616201603                D89828070200PV4F20160322000010SPEAKER ASM                   M IMCTM S7TS02 FTTL  07070IMCT  S7 PTB  00005                    1510 SR        000000000000 FUJITSU TEN (THAILAN16046KR0003   16056KR0004   D160305011    D160305015    000000                                                                              *R         20160318RDF1603184.TXT
MDEFG3T18617201603                D89828070300PT4F20160322000010SPEAKER ASM                   M IMCTM S7TS02 FTTL  07070IMCT  S7 PTB  00015                    1510 SR        000000000000 FUJITSU TEN (THAILAN16046KR0003   16056KR0004   D160305011    D160305015    000000                                                                              *R         20160318RDF1603184.TXT
MDEFG3T18618201603                D89831229000PT4F20160322000001RADIO;AM/FM,CD                M IMCTM S7TS03 FTTL  07070IMCT  S7 PTB  00003                    1510 SR        000000000000 FUJITSU TEN (THAILAN16056KR0004   16056KR0004   D160305015    D160305015    000000                                                                              *R         20160318RDF1603184.TXT
MDEFG3246340201603                D89805293700PV4F20160322000021SPEAKER ASM                   M IMCTM S7FR05 FTTL  07070IMCT  S7 PTB  00003                    1510 SR        000000000000 FUJITSU TEN (THAILAN15044HR0011   15076CR0066   D160305001    R160305115    000000                                                                              *R         20160318RDF1603184.TXT
MDEFG3246341201603                D89828070100PV4F20160322000012SPEAKER ASM                   M IMCTM S7FL05 FTTL  07070IMCT  S7 PTB  00004                    1510 SR        000000000000 FUJITSU TEN (THAILAN16046KR0003   16079HR0005   D160305011    R160305101    000000                                                                              *R         20160318RDF1603184.TXT
