REC2016031220160314ISUZU                              3      
MAEUG3600276201607                 89828070100PT4U20160613000002SPEAKER ASM                   M IMCTM ST00000FTTL  07070IMCT  ST PTB  00004  DC                0000 SR        000000000000 FUJITSU TEN (THAILAN170B96U0001001                                                                                                                              *P         20160312IMF1603122.TXT
MAEUG3600277201607                 89828070200PV4U20160613000002SPEAKER ASM                   M IMCTM ST00000FTTL  07070IMCT  ST PTB  00005  DC                0000 SR        000000000000 FUJITSU TEN (THAILAN170B96U0001001                                                                                                                              *P         20160312IMF1603122.TXT
MAEUG3600278201607                 89828070300PT4U20160613000002SPEAKER ASM                   M IMCTM ST00000FTTL  07070IMCT  ST PTB  00015  DC                0000 SR        000000000000 FUJITSU TEN (THAILAN170B96U0001001                                                                                                                              *P         20160312IMF1603122.TXT
