REC2016031720160317ISUZU                              17     
MAKK63066039201603D4               89805293700P3YK20160328000180SPEAKER ASM                   M IMCTM CM1    FTTL  07070IMKDC 01   PTB00003  K0                1621DES        000000000000 FUJITSU TEN (THAILAN                                                                                                                                            *G         20160317IMF1603171.TXT
MAKK63066040201603D4               89805293700P3YK20160329000210SPEAKER ASM                   M IMCTM CM1    FTTL  07070IMKDC 01   PTB00003  K0                1621DES        000000000000 FUJITSU TEN (THAILAN                                                                                                                                            *G         20160317IMF1603171.TXT
MAKK63066041201603D4               89805293700P3YK20160330000210SPEAKER ASM                   M IMCTM CM1    FTTL  07070IMKDC 01   PTB00003  K0                1621DES        000000000000 FUJITSU TEN (THAILAN                                                                                                                                            *G         20160317IMF1603171.TXT
MAKK63066042201603D4               89805293700P3YK20160331000390SPEAKER ASM                   M IMCTM CM1    FTTL  07070IMKDC 01   PTB00003  K0                1621DES        000000000000 FUJITSU TEN (THAILAN                                                                                                                                            *G         20160317IMF1603171.TXT
MAKK63066043201603D4               89805293700P3YK20160401000360SPEAKER ASM                   M IMCTM CM1    FTTL  07070IMKDC 01   PTB00003  K0                1621DES        000000000000 FUJITSU TEN (THAILAN                                                                                                                                            *G         20160317IMF1603171.TXT
MAKK63066044201603D4               89805294000P3YK20160328000150SPEAKER ASM                   M IMCTM CM1    FTTL  07070IMKDC 01   PTB00015  K0                1621DES        000000000000 FUJITSU TEN (THAILAN                                                                                                                                            *G         20160317IMF1603171.TXT
MAKK63066045201603D4               89805294000P3YK20160329000060SPEAKER ASM                   M IMCTM CM1    FTTL  07070IMKDC 01   PTB00015  K0                1621DES        000000000000 FUJITSU TEN (THAILAN                                                                                                                                            *G         20160317IMF1603171.TXT
MAKK63066046201603D4               89805294000P3YK20160330000060SPEAKER ASM                   M IMCTM CM1    FTTL  07070IMKDC 01   PTB00015  K0                1621DES        000000000000 FUJITSU TEN (THAILAN                                                                                                                                            *G         20160317IMF1603171.TXT
MAKK63066047201603D4               89805294000P3YK20160331000240SPEAKER ASM                   M IMCTM CM1    FTTL  07070IMKDC 01   PTB00015  K0                1621DES        000000000000 FUJITSU TEN (THAILAN                                                                                                                                            *G         20160317IMF1603171.TXT
MAKK63066048201603D4               89805294100P3YK20160328000150SPEAKER ASM                   M IMCTM CM1    FTTL  07070IMKDC 01   PTB00005  K0                1621DES        000000000000 FUJITSU TEN (THAILAN                                                                                                                                            *G         20160317IMF1603171.TXT
MAKK63066049201603D4               89805294100P3YK20160329000060SPEAKER ASM                   M IMCTM CM1    FTTL  07070IMKDC 01   PTB00005  K0                1621DES        000000000000 FUJITSU TEN (THAILAN                                                                                                                                            *G         20160317IMF1603171.TXT
MAKK63066050201603D4               89805294100P3YK20160330000060SPEAKER ASM                   M IMCTM CM1    FTTL  07070IMKDC 01   PTB00005  K0                1621DES        000000000000 FUJITSU TEN (THAILAN                                                                                                                                            *G         20160317IMF1603171.TXT
MAKK63066051201603D4               89805294100P3YK20160331000120SPEAKER ASM                   M IMCTM CM1    FTTL  07070IMKDC 01   PTB00005  K0                1621DES        000000000000 FUJITSU TEN (THAILAN                                                                                                                                            *G         20160317IMF1603171.TXT
MAKK63066052201603D4               89805294200P3YK20160331000030SPEAKER ASM                   M IMCTM CM1    FTTL  07070IMKDC 01 X    00030  K0                1621DES        000000000000 FUJITSU TEN (THAILAN                                                                                                                                            *G         20160317IMF1603171.TXT
MAKK63066053201603D4               89806470400P3YK20160331000015SPEAKER ASM;RDO,              M IMCTM CM1    FTTL  07070IMKDC 01   PTB00015  K0                1621DES        000000000000 FUJITSU TEN (THAILAN                                                                                                                                            *G         20160317IMF1603171.TXT
MAKK63066054201603D4               89824135720P3YK20160331000045RADIO;AM/FM,CD,F              M IMCTM CM1    FTTL  07070IMKDC 01 PTB  00003  K0                1621DES        000000000000 FUJITSU TEN (THAILAN                                                                                                                                            *G         20160317IMF1603171.TXT
MAKK63066055201603D4               89824360220P3YK20160331000015RADIO;AM/FM,CD                M IMCTM CM1    FTTL  07070IMKDC 01 PTB  00005  K0                1621DES        000000000000 FUJITSU TEN (THAILAN                                                                                                                                            *G         20160317IMF1603171.TXT
