REC2016012320160123ISUZU                              4      
MAEDG1602583201605                 89828070100PV4D20160328000008SPEAKER ASM                   M IMCTM ST00000FTTL  07070IMCT  ST PTB  00004  DC                0000 SR        000000000000 FUJITSU TEN (THAILAN17062LU000100117064LU000100117066LU000100117067LU0001001                                                                                    *P         20160123IMF1601232.TXT
MAEDG1602584201605                 89828070200PV4D20160328000006SPEAKER ASM                   M IMCTM ST00000FTTL  07070IMCT  ST PTB  00005  DC                0000 SR        000000000000 FUJITSU TEN (THAILAN17064LU000100117066LU000100117067LU0001001                                                                                                  *P         20160123IMF1601232.TXT
MAEDG1602585201605                 89828070300PT4D20160328000006SPEAKER ASM                   M IMCTM ST00000FTTL  07070IMCT  ST PTB  00015  DC                0000 SR        000000000000 FUJITSU TEN (THAILAN17064LU000100117066LU000100117067LU0001001                                                                                                  *P         20160123IMF1601232.TXT
MAEDG1602586201605                 89831229200PT4D20160328000003RADIO;AM/FM,CD                M IMCTM ST00000FTTL  07070IMCT  ST PTB  00003  DC                0000 SR        000000000000 FUJITSU TEN (THAILAN17064LU000100117066LU000100117067LU0001001                                                                                                  *P         20160123IMF1601232.TXT
