REC2016032620160326ISUZU                              56     
MDDDG3306833201603                D89821984430PT1D20160331000030RADIO;AM/FM,CD                M IMCTM S5NC06 FTTL  07070IMCT  S5 PTB  00005                    0310 SR        000000000000 FUJITSU TEN (THAILAN160JNGL0036036                                                                                                                              *          20160326IMF1603262.TXT
MDDDG3306834201603                D89821984430PT1D20160331000030RADIO;AM/FM,CD                M IMCTM S5NC06 FTTL  07070IMCT  S5 PTB  00005                    1000 SR        000000000000 FUJITSU TEN (THAILAN160JXEL0043043                                                                                                                              *          20160326IMF1603262.TXT
MDDDG3306835201603                D89828070100PV1D20160330000060SPEAKER ASM                   M IMCTM S5MA12 FTTL  07070IMCT  S5 PTB  00004                    2230 SR        000000000000 FUJITSU TEN (THAILAN160JZHL0028028                                                                                                                              *          20160326IMF1603262.TXT
MDDDG3306836201603                D89828070100PV1D20160331000120SPEAKER ASM                   M IMCTM S5MA12 FTTL  07070IMCT  S5 PTB  00004                    0310 SR        000000000000 FUJITSU TEN (THAILAN160JZFL0086086160JZHL0029029                                                                                                                *          20160326IMF1603262.TXT
MDDDG3306837201603                D89828070100PV1D20160331000120SPEAKER ASM                   M IMCTM S5MA12 FTTL  07070IMCT  S5 PTB  00004                    1000 SR        000000000000 FUJITSU TEN (THAILAN160JNGL0036036160JXEL0043043                                                                                                                *          20160326IMF1603262.TXT
MDDDG3306838201603                D89828070100PV1D20160331000120SPEAKER ASM                   M IMCTM S5MA12 FTTL  07070IMCT  S5 PTB  00004                    1510 SR        000000000000 FUJITSU TEN (THAILAN160JZGL0003003160JZTL0012012                                                                                                                *          20160326IMF1603262.TXT
MDDDG3306839201603                D89828070100PV1D20160331000060SPEAKER ASM                   M IMCTM S5MA12 FTTL  07070IMCT  S5 PTB  00004                    2230 SR        000000000000 FUJITSU TEN (THAILAN160JYSL0068068                                                                                                                              *          20160326IMF1603262.TXT
MDDDG3306840201603                D89828070200PV1D20160330000060SPEAKER ASM                   M IMCTM S5MA13 FTTL  07070IMCT  S5 PTB  00005                    2230 SR        000000000000 FUJITSU TEN (THAILAN160JZHL0028028                                                                                                                              *          20160326IMF1603262.TXT
MDDDG3306841201603                D89828070200PV1D20160331000120SPEAKER ASM                   M IMCTM S5MA13 FTTL  07070IMCT  S5 PTB  00005                    0310 SR        000000000000 FUJITSU TEN (THAILAN160JZFL0086086160JZHL0029029                                                                                                                *          20160326IMF1603262.TXT
MDDDG3306842201603                D89828070200PV1D20160331000120SPEAKER ASM                   M IMCTM S5MA13 FTTL  07070IMCT  S5 PTB  00005                    1510 SR        000000000000 FUJITSU TEN (THAILAN160JZGL0003003160JZTL0012012                                                                                                                *          20160326IMF1603262.TXT
MDDDG3306843201603                D89828070300PT1D20160330000060SPEAKER ASM                   M IMCTM S5NB042FTTL  07070IMCT  S5 PTB  00015                    2230 SR        000000000000 FUJITSU TEN (THAILAN160JZHL0028028                                                                                                                              *          20160326IMF1603262.TXT
MDDDG3306844201603                D89828070300PT1D20160331000120SPEAKER ASM                   M IMCTM S5NB042FTTL  07070IMCT  S5 PTB  00015                    0310 SR        000000000000 FUJITSU TEN (THAILAN160JZFL0086086160JZHL0029029                                                                                                                *          20160326IMF1603262.TXT
MDDDG3306845201603                D89828070300PT1D20160331000120SPEAKER ASM                   M IMCTM S5NB042FTTL  07070IMCT  S5 PTB  00015                    1510 SR        000000000000 FUJITSU TEN (THAILAN160JZGL0003003160JZTL0012012                                                                                                                *          20160326IMF1603262.TXT
MDDDG3306846201603                D89828070300PT1D20160331000060SPEAKER ASM                   M IMCTM S5NB042FTTL  07070IMCT  S5 PTB  00015                    2230 SR        000000000000 FUJITSU TEN (THAILAN160JYSL0068068                                                                                                                              *          20160326IMF1603262.TXT
MDDDG3306847201603                D89829645900PT1D20160330000030RADIO;ASM DVD                 M IMCTM S5NC06 FTTL  07070IMCT  S5 CPB  00003                    2230 SR        000000000000 FUJITSU TEN (THAILAN160JZFL0086086                                                                                                                              *          20160326IMF1603262.TXT
MDDDG3306848201603                D89829645900PT1D20160331000030RADIO;ASM DVD                 M IMCTM S5NC06 FTTL  07070IMCT  S5 CPB  00003                    1000 SR        000000000000 FUJITSU TEN (THAILAN160JZGL0003003                                                                                                                              *          20160326IMF1603262.TXT
MDDDG3306849201603                D89831228300PT1D20160331000030RADIO;AM/FM,CD                M IMCTM S5NC06 FTTL  07070IMCT  S5 CPB  00003                    1510 SR        000000000000 FUJITSU TEN (THAILAN160JYSL0068068                                                                                                                              *          20160326IMF1603262.TXT
MDDDG3306850201603                D89831228400PT1D20160331000030RADIO;AM/FM,CD                M IMCTM S5NC06 FTTL  07070IMCT  S5 CPB  00003                    1000 SR        000000000000 FUJITSU TEN (THAILAN160JZTL0012012                                                                                                                              *          20160326IMF1603262.TXT
MDEDG3373543201603                D89805293700PV1D20160330000030SPEAKER ASM                   M IMCTM S5MA12 FTTL  07070IMCT  S5 PTB  00003                    2230 SR        000000000000 FUJITSU TEN (THAILAN15076CL0001001                                                                                                                              *          20160326IMF1603262.TXT
MDEDG3373544201603                D89805293700PV1D20160331000060SPEAKER ASM                   M IMCTM S5MA12 FTTL  07070IMCT  S5 PTB  00003                    0310 SR        000000000000 FUJITSU TEN (THAILAN15083CL0018019                                                                                                                              *          20160326IMF1603262.TXT
MDEDG3373545201603                D89805293700PV1D20160331000030SPEAKER ASM                   M IMCTM S5MA12 FTTL  07070IMCT  S5 PTB  00003                    1000 SR        000000000000 FUJITSU TEN (THAILAN15030BL0009009                                                                                                                              *          20160326IMF1603262.TXT
MDEDG3373546201603                D89805293700PV1D20160331000030SPEAKER ASM                   M IMCTM S5MA12 FTTL  07070IMCT  S5 PTB  00003                    2230 SR        000000000000 FUJITSU TEN (THAILAN15036DL0014014                                                                                                                              *          20160326IMF1603262.TXT
MDEDG3373547201603                D89805293700PV4D20160331000030SPEAKER ASM                   M IMCTM S0FR05 FTTL  07070IMCT  S0 PTB  00003                    0800 SR        000000000000 FUJITSU TEN (THAILAN15031BU0003003                                                                                                                              *          20160326IMF1603262.TXT
MDEDG3373548201603                D89805294000PT1D20160331000030SPEAKER ASM                   M IMCTM S5NB042FTTL  07070IMCT  S5 PTB  00015                    1000 SR        000000000000 FUJITSU TEN (THAILAN15030BL0009009                                                                                                                              *          20160326IMF1603262.TXT
MDEDG3373549201603                D89805294000PT1D20160331000030SPEAKER ASM                   M IMCTM S5NB042FTTL  07070IMCT  S5 PTB  00015                    2230 SR        000000000000 FUJITSU TEN (THAILAN15036DL0014014                                                                                                                              *          20160326IMF1603262.TXT
MDEDG3373550201603                D89805294000PT4D20160331000030SPEAKER ASM                   M IMCTM S9AFA25FTTL  07070IMCT  S9 PTB  00015                    0800 SR        000000000000 FUJITSU TEN (THAILAN15031BU0003003                                                                                                                              *          20160326IMF1603262.TXT
MDEDG3373551201603                D89805294100PV1D20160331000030SPEAKER ASM                   M IMCTM S5MB13 FTTL  07070IMCT  S5 PTB  00005                    1000 SR        000000000000 FUJITSU TEN (THAILAN15030BL0009009                                                                                                                              *          20160326IMF1603262.TXT
MDEDG3373552201603                D89805294100PV1D20160331000030SPEAKER ASM                   M IMCTM S5MB13 FTTL  07070IMCT  S5 PTB  00005                    2230 SR        000000000000 FUJITSU TEN (THAILAN15036DL0014014                                                                                                                              *          20160326IMF1603262.TXT
MDEDG3373553201603                D89805294100PV4D20160331000030SPEAKER ASM                   M IMCTM S0FR05 FTTL  07070IMCT  S0 PTB  00005                    0800 SR        000000000000 FUJITSU TEN (THAILAN15031BU0003003                                                                                                                              *          20160326IMF1603262.TXT
MDEDG3373554201603                D89828070100PV1D20160331000030SPEAKER ASM                   M IMCTM S5MA12 FTTL  07070IMCT  S5 PTB  00004                    1000 SR        000000000000 FUJITSU TEN (THAILAN16081HL0048048                                                                                                                              *          20160326IMF1603262.TXT
MDEDG3373555201603                D89828070100PV4D20160330000030SPEAKER ASM                   M IMCTM S0FL05 FTTL  07070IMCT  S0 PTB  00004                    2300 SR        000000000000 FUJITSU TEN (THAILAN16066HU0003003                                                                                                                              *          20160326IMF1603262.TXT
MDEDG3373556201603                D89828070100PV4D20160331000030SPEAKER ASM                   M IMCTM S0FL05 FTTL  07070IMCT  S0 PTB  00004                    1100 SR        000000000000 FUJITSU TEN (THAILAN16072HU0001001                                                                                                                              *          20160326IMF1603262.TXT
MDEDG3373557201603                D89828070100PV4D20160331000030SPEAKER ASM                   M IMCTM S0FL05 FTTL  07070IMCT  S0 PTB  00004                    2030 SR        000000000000 FUJITSU TEN (THAILAN16066HU0004004                                                                                                                              *          20160326IMF1603262.TXT
MDEDG3373558201603                D89828070200PV4D20160330000030SPEAKER ASM                   M IMCTM S0FR05 FTTL  07070IMCT  S0 PTB  00005                    2300 SR        000000000000 FUJITSU TEN (THAILAN16066HU0003003                                                                                                                              *          20160326IMF1603262.TXT
MDEDG3373559201603                D89828070200PV4D20160331000030SPEAKER ASM                   M IMCTM S0FR05 FTTL  07070IMCT  S0 PTB  00005                    1100 SR        000000000000 FUJITSU TEN (THAILAN16072HU0001001                                                                                                                              *          20160326IMF1603262.TXT
MDEDG3373560201603                D89828070200PV4D20160331000030SPEAKER ASM                   M IMCTM S0FR05 FTTL  07070IMCT  S0 PTB  00005                    2030 SR        000000000000 FUJITSU TEN (THAILAN16066HU0004004                                                                                                                              *          20160326IMF1603262.TXT
MDEDG3373561201603                D89828070300PT4D20160330000030SPEAKER ASM                   M IMCTM S9TS02 FTTL  07070IMCT  S9 PTB  00015                    2300 SR        000000000000 FUJITSU TEN (THAILAN16066HU0003003                                                                                                                              *          20160326IMF1603262.TXT
MDEDG3373562201603                D89828070300PT4D20160331000030SPEAKER ASM                   M IMCTM S9TS02 FTTL  07070IMCT  S9 PTB  00015                    1100 SR        000000000000 FUJITSU TEN (THAILAN16072HU0001001                                                                                                                              *          20160326IMF1603262.TXT
MDEDG3373563201603                D89828070300PT4D20160331000030SPEAKER ASM                   M IMCTM S9TS02 FTTL  07070IMCT  S9 PTB  00015                    2030 SR        000000000000 FUJITSU TEN (THAILAN16066HU0004004                                                                                                                              *          20160326IMF1603262.TXT
MDEDG3373564201603                D89831228600PT4D20160330000015RADIO;AM/FM,CD                M IMCTM S9CO001FTTL  07070IMCT  S9 PTB  00003                    2300 SR        000000000000 FUJITSU TEN (THAILAN16066HU0003003                                                                                                                              *          20160326IMF1603262.TXT
MDEDG3373565201603                D89831228600PT4D20160331000015RADIO;AM/FM,CD                M IMCTM S9CO001FTTL  07070IMCT  S9 PTB  00003                    2030 SR        000000000000 FUJITSU TEN (THAILAN16066HU0004004                                                                                                                              *          20160326IMF1603262.TXT
MDEUG3278054201603                D89828070100PT4U20160330000030SPEAKER ASM                   M IMCTM S0FL05 FTTL  07070IMCT  S0 PTB  00004                    2030 SR        000000000000 FUJITSU TEN (THAILAN160B48U0115115                                                                                                                              *          20160326IMF1603262.TXT
MDEUG3278055201603                D89828070100PT4U20160330000030SPEAKER ASM                   M IMCTM S0FL05 FTTL  07070IMCT  S0 PTB  00004                    2300 SR        000000000000 FUJITSU TEN (THAILAN160B48U0116116                                                                                                                              *          20160326IMF1603262.TXT
MDEUG3278056201603                D89828070100PT4U20160331000030SPEAKER ASM                   M IMCTM S0FL05 FTTL  07070IMCT  S0 PTB  00004                    0310 SR        000000000000 FUJITSU TEN (THAILAN160B48U0117117                                                                                                                              *          20160326IMF1603262.TXT
MDEUG3278057201603                D89828070100PT4U20160331000060SPEAKER ASM                   M IMCTM S0FL05 FTTL  07070IMCT  S0 PTB  00004                    0800 SR        000000000000 FUJITSU TEN (THAILAN160B48U0118119                                                                                                                              *          20160326IMF1603262.TXT
MDEUG3278058201603                D89828070100PT4U20160331000030SPEAKER ASM                   M IMCTM S0FL05 FTTL  07070IMCT  S0 PTB  00004                    1100 SR        000000000000 FUJITSU TEN (THAILAN160B48U0120120                                                                                                                              *          20160326IMF1603262.TXT
MDEUG3278059201603                D89828070200PV4U20160330000030SPEAKER ASM                   M IMCTM S0FR05 FTTL  07070IMCT  S0 PTB  00005                    2030 SR        000000000000 FUJITSU TEN (THAILAN160B48U0115115                                                                                                                              *          20160326IMF1603262.TXT
MDEUG3278060201603                D89828070200PV4U20160330000030SPEAKER ASM                   M IMCTM S0FR05 FTTL  07070IMCT  S0 PTB  00005                    2300 SR        000000000000 FUJITSU TEN (THAILAN160B48U0116116                                                                                                                              *          20160326IMF1603262.TXT
MDEUG3278061201603                D89828070200PV4U20160331000030SPEAKER ASM                   M IMCTM S0FR05 FTTL  07070IMCT  S0 PTB  00005                    0310 SR        000000000000 FUJITSU TEN (THAILAN160B48U0117117                                                                                                                              *          20160326IMF1603262.TXT
MDEUG3278062201603                D89828070200PV4U20160331000060SPEAKER ASM                   M IMCTM S0FR05 FTTL  07070IMCT  S0 PTB  00005                    0800 SR        000000000000 FUJITSU TEN (THAILAN160B48U0118119                                                                                                                              *          20160326IMF1603262.TXT
MDEUG3278063201603                D89828070200PV4U20160331000030SPEAKER ASM                   M IMCTM S0FR05 FTTL  07070IMCT  S0 PTB  00005                    1100 SR        000000000000 FUJITSU TEN (THAILAN160B48U0120120                                                                                                                              *          20160326IMF1603262.TXT
MDEUG3278064201603                D89828070300PT4U20160330000030SPEAKER ASM                   M IMCTM S9TS02 FTTL  07070IMCT  S9 PTB  00015                    2030 SR        000000000000 FUJITSU TEN (THAILAN160B48U0115115                                                                                                                              *          20160326IMF1603262.TXT
MDEUG3278065201603                D89828070300PT4U20160330000030SPEAKER ASM                   M IMCTM S9TS02 FTTL  07070IMCT  S9 PTB  00015                    2300 SR        000000000000 FUJITSU TEN (THAILAN160B48U0116116                                                                                                                              *          20160326IMF1603262.TXT
MDEUG3278066201603                D89828070300PT4U20160331000030SPEAKER ASM                   M IMCTM S9TS02 FTTL  07070IMCT  S9 PTB  00015                    0310 SR        000000000000 FUJITSU TEN (THAILAN160B48U0117117                                                                                                                              *          20160326IMF1603262.TXT
MDEUG3278067201603                D89828070300PT4U20160331000060SPEAKER ASM                   M IMCTM S9TS02 FTTL  07070IMCT  S9 PTB  00015                    0800 SR        000000000000 FUJITSU TEN (THAILAN160B48U0118119                                                                                                                              *          20160326IMF1603262.TXT
MDEUG3278068201603                D89828070300PT4U20160331000030SPEAKER ASM                   M IMCTM S9TS02 FTTL  07070IMCT  S9 PTB  00015                    1100 SR        000000000000 FUJITSU TEN (THAILAN160B48U0120120                                                                                                                              *          20160326IMF1603262.TXT
