REC2016030320160303ISUZU                              3      
MAEDG3600329201606                 89828070100PV1D20160527000004SPEAKER ASM                   M IMCTM ST00000FTTL  07070IMCT  ST PTB  00004  DC                0000 SR        000000000000 FUJITSU TEN (THAILAN17057LL000100117058LL0001001                                                                                                                *P         20160303IMF1603032.TXT
MAEDG3600330201606                 89828070200PV1D20160527000004SPEAKER ASM                   M IMCTM ST00000FTTL  07070IMCT  ST PTB  00005  DC                0000 SR        000000000000 FUJITSU TEN (THAILAN17057LL000100117058LL0001001                                                                                                                *P         20160303IMF1603032.TXT
MAEDG3600331201606                 89828070300PT1D20160527000004SPEAKER ASM                   M IMCTM ST00000FTTL  07070IMCT  ST PTB  00015  DC                0000 SR        000000000000 FUJITSU TEN (THAILAN17057LL000100117058LL0001001                                                                                                                *P         20160303IMF1603032.TXT
