REC2016030320160304ISUZU                              17     
MAKK62119513201603D4               89805293700P3YK20160314000270SPEAKER ASM                   M IMCTM CM1    FTTL  07070IMKDC 01   PTB00003  K0                1621DES        000000000000 FUJITSU TEN (THAILAN                                                                                                                                            *G         20160303IMF1603031.TXT
MAKK62119514201603D4               89805293700P3YK20160315000240SPEAKER ASM                   M IMCTM CM1    FTTL  07070IMKDC 01   PTB00003  K0                1621DES        000000000000 FUJITSU TEN (THAILAN                                                                                                                                            *G         20160303IMF1603031.TXT
MAKK62119515201603D4               89805293700P3YK20160316000210SPEAKER ASM                   M IMCTM CM1    FTTL  07070IMKDC 01   PTB00003  K0                1621DES        000000000000 FUJITSU TEN (THAILAN                                                                                                                                            *G         20160303IMF1603031.TXT
MAKK62119516201603D4               89805293700P3YK20160317000180SPEAKER ASM                   M IMCTM CM1    FTTL  07070IMKDC 01   PTB00003  K0                1621DES        000000000000 FUJITSU TEN (THAILAN                                                                                                                                            *G         20160303IMF1603031.TXT
MAKK62119517201603D4               89805293700P3YK20160318000180SPEAKER ASM                   M IMCTM CM1    FTTL  07070IMKDC 01   PTB00003  K0                1621DES        000000000000 FUJITSU TEN (THAILAN                                                                                                                                            *G         20160303IMF1603031.TXT
MAKK62119518201603D4               89805294000P3YK20160314000030SPEAKER ASM                   M IMCTM CM1    FTTL  07070IMKDC 01   PTB00015  K0                1621DES        000000000000 FUJITSU TEN (THAILAN                                                                                                                                            *G         20160303IMF1603031.TXT
MAKK62119519201603D4               89805294000P3YK20160315000060SPEAKER ASM                   M IMCTM CM1    FTTL  07070IMKDC 01   PTB00015  K0                1621DES        000000000000 FUJITSU TEN (THAILAN                                                                                                                                            *G         20160303IMF1603031.TXT
MAKK62119520201603D4               89805294000P3YK20160316000090SPEAKER ASM                   M IMCTM CM1    FTTL  07070IMKDC 01   PTB00015  K0                1621DES        000000000000 FUJITSU TEN (THAILAN                                                                                                                                            *G         20160303IMF1603031.TXT
MAKK62119521201603D4               89805294000P3YK20160317000060SPEAKER ASM                   M IMCTM CM1    FTTL  07070IMKDC 01   PTB00015  K0                1621DES        000000000000 FUJITSU TEN (THAILAN                                                                                                                                            *G         20160303IMF1603031.TXT
MAKK62119522201603D4               89805294000P3YK20160318000090SPEAKER ASM                   M IMCTM CM1    FTTL  07070IMKDC 01   PTB00015  K0                1621DES        000000000000 FUJITSU TEN (THAILAN                                                                                                                                            *G         20160303IMF1603031.TXT
MAKK62119523201603D4               89805294100P3YK20160314000030SPEAKER ASM                   M IMCTM CM1    FTTL  07070IMKDC 01   PTB00005  K0                1621DES        000000000000 FUJITSU TEN (THAILAN                                                                                                                                            *G         20160303IMF1603031.TXT
MAKK62119524201603D4               89805294100P3YK20160315000060SPEAKER ASM                   M IMCTM CM1    FTTL  07070IMKDC 01   PTB00005  K0                1621DES        000000000000 FUJITSU TEN (THAILAN                                                                                                                                            *G         20160303IMF1603031.TXT
MAKK62119525201603D4               89805294100P3YK20160316000090SPEAKER ASM                   M IMCTM CM1    FTTL  07070IMKDC 01   PTB00005  K0                1621DES        000000000000 FUJITSU TEN (THAILAN                                                                                                                                            *G         20160303IMF1603031.TXT
MAKK62119526201603D4               89805294100P3YK20160317000060SPEAKER ASM                   M IMCTM CM1    FTTL  07070IMKDC 01   PTB00005  K0                1621DES        000000000000 FUJITSU TEN (THAILAN                                                                                                                                            *G         20160303IMF1603031.TXT
MAKK62119527201603D4               89805294100P3YK20160318000090SPEAKER ASM                   M IMCTM CM1    FTTL  07070IMKDC 01   PTB00005  K0                1621DES        000000000000 FUJITSU TEN (THAILAN                                                                                                                                            *G         20160303IMF1603031.TXT
MAKK62119528201603D4               89828070100P3YK20160318000060SPEAKER ASM                   M IMCTM CM1    FTTL  07070IMKDC 01*PTB  00003  K0                1621DES        000000000000 FUJITSU TEN (THAILAN                                                                                                                                            *G         20160303IMF1603031.TXT
MAKK62119529201603D4               89831228800P3YK20160318000015RADIO;AM/FM,CD                M IMCTM CM1    FTTL  07070IMKDC 01*CPB  00005  K0                1621DES        000000000000 FUJITSU TEN (THAILAN                                                                                                                                            *G         20160303IMF1603031.TXT
