REC2016030320160303ISUZU                              4      
MAE6G3600419201606                 89828070100PV5620160523000010SPEAKER ASM                   M IMCTM GT00000FTTL  07070G/WAY GT PTB  00004  DC                0000 GW        0000000000005FUJITSU TEN (THAILAN17016HG000100117019HG000100117020HG000100117053LG0001002                                                                                    *P         20160303IMF1603033.TXT
MAE6G3600420201606                 89828070200PV5620160523000010SPEAKER ASM                   M IMCTM GT00000FTTL  07070G/WAY GT PTB  00005  DC                0000 GW        0000000000005FUJITSU TEN (THAILAN17016HG000100117019HG000100117020HG000100117053LG0001002                                                                                    *P         20160303IMF1603033.TXT
MAE6G3600421201606                 89828070300PT5620160523000010SPEAKER ASM                   M IMCTM GT00000FTTL  07070G/WAY GT PTB  00015  DC                0000 GW        0000000000005FUJITSU TEN (THAILAN17016HG000100117019HG000100117020HG000100117053LG0001002                                                                                    *P         20160303IMF1603033.TXT
MAE6G3600422201606                 89831228600PT5620160523000003RADIO;AM/FM,CD                M IMCTM GT00000FTTL  07070G/WAY GT PTB  00003  DC                0000 GW        0000000000005FUJITSU TEN (THAILAN17019HG000100117053LG0001002                                                                                                                *P         20160303IMF1603033.TXT
