REC2016012320160123ISUZU                              4      
MAEDG1600457201605                 89828070100PV1D20160328000010SPEAKER ASM                   M IMCTM ST00000FTTL  07070IMCT  ST PTB  00004  DC                0000 SR        000000000000 FUJITSU TEN (THAILAN17061LL000100117063LL000100117065LL000100117067LL000100117068LL0001001                                                                      *P         20160123IMF1601231.TXT
MAEDG1600458201605                 89828070200PV1D20160328000008SPEAKER ASM                   M IMCTM ST00000FTTL  07070IMCT  ST PTB  00005  DC                0000 SR        000000000000 FUJITSU TEN (THAILAN17063LL000100117065LL000100117067LL000100117068LL0001001                                                                                    *P         20160123IMF1601231.TXT
MAEDG1600459201605                 89828070300PT1D20160328000008SPEAKER ASM                   M IMCTM ST00000FTTL  07070IMCT  ST PTB  00015  DC                0000 SR        000000000000 FUJITSU TEN (THAILAN17063LL000100117065LL000100117067LL000100117068LL0001001                                                                                    *P         20160123IMF1601231.TXT
MAEDG1600460201605                 89831229200PT1D20160328000004RADIO;AM/FM,CD                M IMCTM ST00000FTTL  07070IMCT  ST*PTB  00003  DC                0000 SR        000000000000 FUJITSU TEN (THAILAN17063LL000100117065LL000100117067LL000100117068LL0001001                                                                                    *P         20160123IMF1601231.TXT
