REC2016031020160310ISUZU                              20     
MAKK63049473201603D4               89805293700P3YK20160321000240SPEAKER ASM                   M IMCTM CM1    FTTL  07070IMKDC 01   PTB00003  K0                1621DES        000000000000 FUJITSU TEN (THAILAN                                                                                                                                            *G         20160310IMF1603101.TXT
MAKK63049474201603D4               89805293700P3YK20160322000150SPEAKER ASM                   M IMCTM CM1    FTTL  07070IMKDC 01   PTB00003  K0                1621DES        000000000000 FUJITSU TEN (THAILAN                                                                                                                                            *G         20160310IMF1603101.TXT
MAKK63049475201603D4               89805293700P3YK20160323000150SPEAKER ASM                   M IMCTM CM1    FTTL  07070IMKDC 01   PTB00003  K0                1621DES        000000000000 FUJITSU TEN (THAILAN                                                                                                                                            *G         20160310IMF1603101.TXT
MAKK63049476201603D4               89805293700P3YK20160324000120SPEAKER ASM                   M IMCTM CM1    FTTL  07070IMKDC 01   PTB00003  K0                1621DES        000000000000 FUJITSU TEN (THAILAN                                                                                                                                            *G         20160310IMF1603101.TXT
MAKK63049477201603D4               89805293700P3YK20160325000150SPEAKER ASM                   M IMCTM CM1    FTTL  07070IMKDC 01   PTB00003  K0                1621DES        000000000000 FUJITSU TEN (THAILAN                                                                                                                                            *G         20160310IMF1603101.TXT
MAKK63049478201603D4               89805294000P3YK20160321000090SPEAKER ASM                   M IMCTM CM1    FTTL  07070IMKDC 01   PTB00015  K0                1621DES        000000000000 FUJITSU TEN (THAILAN                                                                                                                                            *G         20160310IMF1603101.TXT
MAKK63049479201603D4               89805294000P3YK20160322000060SPEAKER ASM                   M IMCTM CM1    FTTL  07070IMKDC 01   PTB00015  K0                1621DES        000000000000 FUJITSU TEN (THAILAN                                                                                                                                            *G         20160310IMF1603101.TXT
MAKK63049480201603D4               89805294000P3YK20160323000060SPEAKER ASM                   M IMCTM CM1    FTTL  07070IMKDC 01   PTB00015  K0                1621DES        000000000000 FUJITSU TEN (THAILAN                                                                                                                                            *G         20160310IMF1603101.TXT
MAKK63049481201603D4               89805294000P3YK20160324000060SPEAKER ASM                   M IMCTM CM1    FTTL  07070IMKDC 01   PTB00015  K0                1621DES        000000000000 FUJITSU TEN (THAILAN                                                                                                                                            *G         20160310IMF1603101.TXT
MAKK63049482201603D4               89805294000P3YK20160325000060SPEAKER ASM                   M IMCTM CM1    FTTL  07070IMKDC 01   PTB00015  K0                1621DES        000000000000 FUJITSU TEN (THAILAN                                                                                                                                            *G         20160310IMF1603101.TXT
MAKK63049483201603D4               89805294100P3YK20160321000060SPEAKER ASM                   M IMCTM CM1    FTTL  07070IMKDC 01   PTB00005  K0                1621DES        000000000000 FUJITSU TEN (THAILAN                                                                                                                                            *G         20160310IMF1603101.TXT
MAKK63049484201603D4               89805294100P3YK20160322000060SPEAKER ASM                   M IMCTM CM1    FTTL  07070IMKDC 01   PTB00005  K0                1621DES        000000000000 FUJITSU TEN (THAILAN                                                                                                                                            *G         20160310IMF1603101.TXT
MAKK63049485201603D4               89805294100P3YK20160323000060SPEAKER ASM                   M IMCTM CM1    FTTL  07070IMKDC 01   PTB00005  K0                1621DES        000000000000 FUJITSU TEN (THAILAN                                                                                                                                            *G         20160310IMF1603101.TXT
MAKK63049486201603D4               89805294100P3YK20160324000060SPEAKER ASM                   M IMCTM CM1    FTTL  07070IMKDC 01   PTB00005  K0                1621DES        000000000000 FUJITSU TEN (THAILAN                                                                                                                                            *G         20160310IMF1603101.TXT
MAKK63049487201603D4               89805294100P3YK20160325000060SPEAKER ASM                   M IMCTM CM1    FTTL  07070IMKDC 01   PTB00005  K0                1621DES        000000000000 FUJITSU TEN (THAILAN                                                                                                                                            *G         20160310IMF1603101.TXT
MAKK63049488201603D4               89825451200P3YK20160324000060SPEAKER ASM;ROOF              M IMCTM CM1    FTTL  07070IMKDC 01*  PTB00015  K0                1621DES        000000000000 FUJITSU TEN (THAILAN                                                                                                                                            *G         20160310IMF1603101.TXT
MAKK63049489201603D4               89828070100P3YK20160324000090SPEAKER ASM                   M IMCTM CM1    FTTL  07070IMKDC 01 PTB  00003  K0                1621DES        000000000000 FUJITSU TEN (THAILAN                                                                                                                                            *G         20160310IMF1603101.TXT
MAKK63049490201603D4               89828070200P3YK20160324000030SPEAKER ASM                   M IMCTM CM1    FTTL  07070IMKDC 01*PTB  00005  K0                1621DES        000000000000 FUJITSU TEN (THAILAN                                                                                                                                            *G         20160310IMF1603101.TXT
MAKK63049491201603D4               89828070300P3YK20160324000060SPEAKER ASM                   M IMCTM CM1    FTTL  07070IMKDC 01*PTB  00015  K0                1621DES        000000000000 FUJITSU TEN (THAILAN                                                                                                                                            *G         20160310IMF1603101.TXT
MAKK63049492201603D4               89831228700P3YK20160324000015RADIO;AM/FM,CD                M IMCTM CM1    FTTL  07070IMKDC 01*CPB  00005  K0                1621DES        000000000000 FUJITSU TEN (THAILAN                                                                                                                                            *G         20160310IMF1603101.TXT
