REC2016030820160308ISUZU                              4      
MECKG3800517000000          IMKDC  89805293700P3YK20160314000002SPEAKER ASM                   M IMCTM IMKDC  FTTL  07070IMKDC 07*  PTB00003    K293E3950   001 0000 ES        000000000000 FUJITSU TEN (THAILAN                                                                                                                                            *E         20160308IMF1603081.TXT
MECKG3800518000000          IMKDC  89805293700P3YK20160318000001SPEAKER ASM                   M IMCTM IMKDC  FTTL  07070IMKDC 07*  PTB00003    K293E3940   001 0000 ES        000000000000 FUJITSU TEN (THAILAN                                                                                                                                            *E         20160308IMF1603081.TXT
MECKG3800519000000          IMKDC  89805294000P3YK20160314000001SPEAKER ASM                   M IMCTM IMKDC  FTTL  07070IMKDC 07*  PTB00015    K293E3950   001 0000 ES        000000000000 FUJITSU TEN (THAILAN                                                                                                                                            *E         20160308IMF1603081.TXT
MECKG3800520000000          IMKDC  89805294000P3YK20160318000002SPEAKER ASM                   M IMCTM IMKDC  FTTL  07070IMKDC 07*  PTB00015    K293E3940   001 0000 ES        000000000000 FUJITSU TEN (THAILAN                                                                                                                                            *E         20160308IMF1603081.TXT
