REC2016031220160314ISUZU                              16     
MDEFG3T13049201603                D89805293700PV4F20160317000014SPEAKER ASM                   M IMCTM S7FR05 FTTL  07070IMCT  S7 PTB  00003                    1100 SR        000000000000 FUJITSU TEN (THAILAN15085FR0029   15085FR0035   D160304001    D160304014    000000                                                                              *R         20160312RDF1603126.TXT
MDEFG3T13050201603                D89805294000PT4F20160317000005SPEAKER ASM                   M IMCTM S7TS02 FTTL  07070IMCT  S7 PTB  00015                    1100 SR        000000000000 FUJITSU TEN (THAILAN15085FR0033   15085FR0035   D160304012    D160304014    000000                                                                              *R         20160312RDF1603126.TXT
MDEFG3T13051201603                D89805294100PV4F20160317000010SPEAKER ASM                   M IMCTM S7FR05 FTTL  07070IMCT  S7 PTB  00005                    1100 SR        000000000000 FUJITSU TEN (THAILAN15085FR0031   15085FR0035   D160304003    D160304014    000000                                                                              *R         20160312RDF1603126.TXT
MDEFG3T13052201603                D89828070100PV4F20160317000014SPEAKER ASM                   M IMCTM S7FL05 FTTL  07070IMCT  S7 PTB  00004                    1100 SR        000000000000 FUJITSU TEN (THAILAN16021JR0006   16081KR0003   D160304006    D160304015    000000                                                                              *R         20160312RDF1603126.TXT
MDEFG3T13053201603                D89828070200PV4F20160317000012SPEAKER ASM                   M IMCTM S7TS02 FTTL  07070IMCT  S7 PTB  00005                    1100 SR        000000000000 FUJITSU TEN (THAILAN16021JR0007   16081KR0003   D160304007    D160304015    000000                                                                              *R         20160312RDF1603126.TXT
MDEFG3T13054201603                D89828070300PT4F20160317000007SPEAKER ASM                   M IMCTM S7TS02 FTTL  07070IMCT  S7 PTB  00015                    1100 SR        000000000000 FUJITSU TEN (THAILAN16073KR0002   16081KR0003   D160304009    D160304015    000000                                                                              *R         20160312RDF1603126.TXT
MDEFG3T13055201603                D89831228400PT4F20160317000003RADIO;AM/FM,CD                M IMCTM S7TS03 FTTL  07070IMCT  S7 CPB  00003                    0310 SR        000000000000 FUJITSU TEN (THAILAN16073KR0001   16073KR0003   D160303914    D160304010    000000                                                                              *R         20160312RDF1603126.TXT
MDEFG3T13056201603                D89831229200PT4F20160317000002RADIO;AM/FM,CD                M IMCTM S7TS03 FTTL  07070IMCT  S7 PTB  00003                    1100 SR        000000000000 FUJITSU TEN (THAILAN16021JR0007   16021JR0008   D160304007    D160304008    000000                                                                              *R         20160312RDF1603126.TXT
MDEFG3231894201603                D89805293700PV4F20160316000018SPEAKER ASM                   M IMCTM S7FR05 FTTL  07070IMCT  S7 PTB  00003                    2300 SR        000000000000 FUJITSU TEN (THAILAN15019FR0049   15019FR0057   D160303901    D160303909    000000                                                                              *R         20160312RDF1603126.TXT
MDEFG3231895201603                D89805293700PV4F20160317000006SPEAKER ASM                   M IMCTM S7FR05 FTTL  07070IMCT  S7 PTB  00003                    0310 SR        000000000000 FUJITSU TEN (THAILAN15085FR0026   15085FR0028   D160303911    D160303913    000000                                                                              *R         20160312RDF1603126.TXT
MDEFG3231896201603                D89805294000PT4F20160317000015SPEAKER ASM                   M IMCTM S7TS02 FTTL  07070IMCT  S7 PTB  00015                    0310 SR        000000000000 FUJITSU TEN (THAILAN15085FR0026   15085FR0033   D160303911    D160304012    000000                                                                              *R         20160312RDF1603126.TXT
MDEFG3231897201603                D89805294100PV4F20160317000010SPEAKER ASM                   M IMCTM S7FR05 FTTL  07070IMCT  S7 PTB  00005                    0310 SR        000000000000 FUJITSU TEN (THAILAN15085FR0026   15085FR0030   D160303911    D160304002    000000                                                                              *R         20160312RDF1603126.TXT
MDEFG3231898201603                D89828070100PV4F20160317000008SPEAKER ASM                   M IMCTM S7FL05 FTTL  07070IMCT  S7 PTB  00004                    0310 SR        000000000000 FUJITSU TEN (THAILAN16021JR0004   16021JR0005   D160303910    D160304005    000000                                                                              *R         20160312RDF1603126.TXT
MDEFG3231899201603                D89828070200PV4F20160317000010SPEAKER ASM                   M IMCTM S7TS02 FTTL  07070IMCT  S7 PTB  00005                    0310 SR        000000000000 FUJITSU TEN (THAILAN16021JR0004   16021JR0006   D160303910    D160304006    000000                                                                              *R         20160312RDF1603126.TXT
MDEFG3231900201603                D89828070300PT4F20160317000015SPEAKER ASM                   M IMCTM S7TS02 FTTL  07070IMCT  S7 PTB  00015                    0310 SR        000000000000 FUJITSU TEN (THAILAN16021JR0004   16073KR0002   D160303910    D160304009    000000                                                                              *R         20160312RDF1603126.TXT
MDEFG3231901201603                D89831229200PT4F20160317000003RADIO;AM/FM,CD                M IMCTM S7TS03 FTTL  07070IMCT  S7 PTB  00003                    0310 SR        000000000000 FUJITSU TEN (THAILAN16021JR0004   16021JR0006   D160303910    D160304006    000000                                                                              *R         20160312RDF1603126.TXT
