REC2016031220160314ISUZU                              3      
MAEDG3601646201607                 89828070100PV1D20160613000002SPEAKER ASM                   M IMCTM ST00000FTTL  07070IMCT  ST PTB  00004  DC                0000 SR        000000000000 FUJITSU TEN (THAILAN17013LL0002002                                                                                                                              *P         20160312IMF1603121.TXT
MAEDG3601647201607                 89828070200PV1D20160613000002SPEAKER ASM                   M IMCTM ST00000FTTL  07070IMCT  ST PTB  00005  DC                0000 SR        000000000000 FUJITSU TEN (THAILAN17013LL0002002                                                                                                                              *P         20160312IMF1603121.TXT
MAEDG3601648201607                 89828070300PT1D20160613000002SPEAKER ASM                   M IMCTM ST00000FTTL  07070IMCT  ST PTB  00015  DC                0000 SR        000000000000 FUJITSU TEN (THAILAN17013LL0002002                                                                                                                              *P         20160312IMF1603121.TXT
