REC2016022920160229ISUZU                              7      
MDEFG2T27640201603                D89805293700PV4F20160303000022SPEAKER ASM                   M IMCTM S7FR05 FTTL  07070IMCT  S7 PTB  00003                    2300 SR        000000000000 FUJITSU TEN (THAILAN15049DR0088   15049DR0098   S160301104    S160301114    000000                                                                              *R         20160229RDF1602295.TXT
MDEFG2T27641201603                D89828070100PV4F20160304000028SPEAKER ASM                   M IMCTM S7FL05 FTTL  07070IMCT  S7 PTB  00004                    0800 SR        000000000000 FUJITSU TEN (THAILAN16008JR0002   16014JR0010   H160301202    H160301215    000000                                                                              *R         20160229RDF1602295.TXT
MDEFG2T27642201603                D89828070200PV4F20160304000020SPEAKER ASM                   M IMCTM S0FR05 FTTL  07070IMCT  S0 PTB  00005                    0800 SR        000000000000 FUJITSU TEN (THAILAN16014JR0001   16014JR0010   H160301204    H160301215    000000                                                                              *R         20160229RDF1602295.TXT
MDEFG2T27643201603                D89828070300PT4F20160304000020SPEAKER ASM                   M IMCTM S9TS02 FTTL  07070IMCT  S9 PTB  00015                    0800 SR        000000000000 FUJITSU TEN (THAILAN16014JR0001   16014JR0010   H160301204    H160301215    000000                                                                              *R         20160229RDF1602295.TXT
MDEFG2T27644201603                D89831229200PT4F20160304000010RADIO;AM/FM,CD                M IMCTM S7TS03 FTTL  07070IMCT  S7 PTB  00003                    0800 SR        000000000000 FUJITSU TEN (THAILAN16014JR0001   16014JR0010   H160301204    H160301215    000000                                                                              *R         20160229RDF1602295.TXT
MDEFG2281098201603                D89805293700PV4F20160303000006SPEAKER ASM                   M IMCTM S7FR05 FTTL  07070IMCT  S7 PTB  00003                    2030 SR        000000000000 FUJITSU TEN (THAILAN15049DR0085   15049DR0087   S160301101    S160301103    000000                                                                              *R         20160229RDF1602295.TXT
MDEFG2281099201603                D89828070100PV4F20160303000004SPEAKER ASM                   M IMCTM S7FL05 FTTL  07070IMCT  S7 PTB  00004                    2300 SR        000000000000 FUJITSU TEN (THAILAN16008JR0001   16015KR0001   H160301201    S160301115    000000                                                                              *R         20160229RDF1602295.TXT
