REC2016042520160425ISUZU                              3      
MECKG4801056000000          IMKDC  89828070100P3YK20160503000001SPEAKER ASM                   M IMCTM IMKDC  FTTL  07070IMKDC 07*PTB  00003    K295A8220   001 0000 ES        000000000000 FUJITSU TEN (THAILAN                                                                                                                                            *E         20160425IMF1604251.TXT
MECKG4801057000000          IMKDC  89828070200P3YK20160503000001SPEAKER ASM                   M IMCTM IMKDC  FTTL  07070IMKDC 07*PTB  00005    K295A8220   001 0000 ES        000000000000 FUJITSU TEN (THAILAN                                                                                                                                            *E         20160425IMF1604251.TXT
MECKG4801058000000          IMKDC  89828070300P3YK20160503000001SPEAKER ASM                   M IMCTM IMKDC  FTTL  07070IMKDC 07*PTB  00015    K295A8220   001 0000 ES        000000000000 FUJITSU TEN (THAILAN                                                                                                                                            *E         20160425IMF1604251.TXT
