REC2016012820160128ISUZU                              4      
MAEDG1608335201605                 89828070100PV4D20160418000024SPEAKER ASM                   M IMCTM ST00000FTTL  07070IMCT  ST PTB  00004  DC                0000 SR        000000000000 FUJITSU TEN (THAILAN17023HU000200217027HU000100117033HU000100217034HU000100117035HU000100117040HU000100117047LU000100117048LU000100217050LU0001002              *P         20160128IMF1601282.TXT
MAEDG1608336201605                 89828070200PV4D20160418000022SPEAKER ASM                   M IMCTM ST00000FTTL  07070IMCT  ST PTB  00005  DC                0000 SR        000000000000 FUJITSU TEN (THAILAN17027HU000100117033HU000100217034HU000100117035HU000100117040HU000100117047LU000100117048LU000100217050LU0001002                            *P         20160128IMF1601282.TXT
MAEDG1608337201605                 89828070300PT4D20160418000022SPEAKER ASM                   M IMCTM ST00000FTTL  07070IMCT  ST PTB  00015  DC                0000 SR        000000000000 FUJITSU TEN (THAILAN17027HU000100117033HU000100217034HU000100117035HU000100117040HU000100117047LU000100117048LU000100217050LU0001002                            *P         20160128IMF1601282.TXT
MAEDG1608338201605                 89834072000PT4D20160418000005RADIO;AM/FM,CD                M IMCTM ST00000FTTL  07070IMCT  ST X    00003  DC                0000 SR        000000000000 FUJITSU TEN (THAILAN17027HU000100117033HU000100217034HU000100117047LU0001001                                                                                    *P         20160128IMF1601282.TXT
