REC2016012820160128ISUZU                              4      
MAEDG1604895201605                 89828070100PV1D20160418000024SPEAKER ASM                   M IMCTM ST00000FTTL  07070IMCT  ST PTB  00004  DC                0000 SR        000000000000 FUJITSU TEN (THAILAN17033HL000300317036HL000200217042HL000100117046LL000100117048LL000100317049LL000100117050LL000100117051LL000100217052LL0001001              *P         20160128IMF1601281.TXT
MAEDG1604896201605                 89828070200PV1D20160418000016SPEAKER ASM                   M IMCTM ST00000FTTL  07070IMCT  ST PTB  00005  DC                0000 SR        000000000000 FUJITSU TEN (THAILAN17033HL000300317036HL000200217048LL000100317049LL000100117050LL000100117052LL0001001                                                        *P         20160128IMF1601281.TXT
MAEDG1604897201605                 89828070300PT1D20160418000020SPEAKER ASM                   M IMCTM ST00000FTTL  07070IMCT  ST PTB  00015  DC                0000 SR        000000000000 FUJITSU TEN (THAILAN17033HL000300317036HL000200217042HL000100117046LL000100117048LL000100317049LL000100117050LL000100117052LL0001001                            *P         20160128IMF1601281.TXT
MAEDG1604898201605                 89834072000PT1D20160418000002RADIO;AM/FM,CD                M IMCTM ST00000FTTL  07070IMCT  ST*X    00003  DC                0000 SR        000000000000 FUJITSU TEN (THAILAN17033HL000300317036HL0002002                                                                                                                *P         20160128IMF1601281.TXT
