REC2016042920160429ISUZU                              3      
MAEUG4600291201608                 89828070100PT4U20160711000004SPEAKER ASM                   M IMCTM ST00000FTTL  07070IMCT  ST PTB  00004  DC                0000 SR        000000000000 FUJITSU TEN (THAILAN170B32U0006006170B34U0004004                                                                                                                *P         20160429IMF1604292.TXT
MAEUG4600292201608                 89828070200PV4U20160711000004SPEAKER ASM                   M IMCTM ST00000FTTL  07070IMCT  ST PTB  00005  DC                0000 SR        000000000000 FUJITSU TEN (THAILAN170B32U0006006170B34U0004004                                                                                                                *P         20160429IMF1604292.TXT
MAEUG4600293201608                 89828070300PT4U20160711000004SPEAKER ASM                   M IMCTM ST00000FTTL  07070IMCT  ST PTB  00015  DC                0000 SR        000000000000 FUJITSU TEN (THAILAN170B32U0006006170B34U0004004                                                                                                                *P         20160429IMF1604292.TXT
