REC2016040120160401ISUZU                              9      
MDEFG4T00271201604                D89805293700PV4F20160406000026SPEAKER ASM                   M IMCTM S7FR05 FTTL  07070IMCT  S7 PTB  00003                    0800 SR        000000000000 FUJITSU TEN (THAILAN15056DR0041   15056DR0049   D160401501    D160401513    000000                                                                              *R         20160401RDF1604015.TXT
MDEFG4T00272201604                D89805294000PT4F20160406000026SPEAKER ASM                   M IMCTM S7TS02 FTTL  07070IMCT  S7 PTB  00015                    0800 SR        000000000000 FUJITSU TEN (THAILAN15056DR0041   15056DR0049   D160401501    D160401513    000000                                                                              *R         20160401RDF1604015.TXT
MDEFG4T00273201604                D89805294200PT4F20160406000008SPEAKER ASM                   M IMCTM S7S137 FTTL  07070IMCT  S7 PTB  00030                    0800 SR        000000000000 FUJITSU TEN (THAILAN15065DR0044   15065DR0047   D160401509    D160401512    000000                                                                              *R         20160401RDF1604015.TXT
MDEFG4T00274201604                D89806470400PT4F20160406000004SPEAKER ASM;RDO,              M IMCTM S7TL03 FTTL  07070IMCT  S7 PTB  00015                    0800 SR        000000000000 FUJITSU TEN (THAILAN15065DR0044   15065DR0047   D160401509    D160401512    000000                                                                              *R         20160401RDF1604015.TXT
MDEFG4T00275201604                D89824360220PT4F20160406000004RADIO;AM/FM,CD                M IMCTM S7TS03 FTTL  07070IMCT  S7 CPB  00003                    0800 SR        000000000000 FUJITSU TEN (THAILAN15065DR0044   15065DR0047   D160401509    D160401512    000000                                                                              *R         20160401RDF1604015.TXT
MDEFG4T00276201604                D89828070100PV4F20160406000004SPEAKER ASM                   M IMCTM S7FL05 FTTL  07070IMCT  S7 PTB  00004                    0800 SR        000000000000 FUJITSU TEN (THAILAN16081KR0004   16081KR0005   D160401514    D160401515    000000                                                                              *R         20160401RDF1604015.TXT
MDEFG4T00277201604                D89828070200PV4F20160406000004SPEAKER ASM                   M IMCTM S7TS02 FTTL  07070IMCT  S7 PTB  00005                    0800 SR        000000000000 FUJITSU TEN (THAILAN16081KR0004   16081KR0005   D160401514    D160401515    000000                                                                              *R         20160401RDF1604015.TXT
MDEFG4T00278201604                D89828070300PT4F20160406000004SPEAKER ASM                   M IMCTM S7TS02 FTTL  07070IMCT  S7 PTB  00015                    0800 SR        000000000000 FUJITSU TEN (THAILAN16081KR0004   16081KR0005   D160401514    D160401515    000000                                                                              *R         20160401RDF1604015.TXT
MDEFG4200091201604                D89805293700PV4F20160405000030SPEAKER ASM                   M IMCTM S7FR05 FTTL  07070IMCT  S7 PTB  00003                    2030 SR        000000000000 FUJITSU TEN (THAILAN15001DR0035   15084CR0123   S160401401    S160401415    000000                                                                              *R         20160401RDF1604015.TXT
