REC2016042820160428ISUZU                              11     
MDEBG4T00338201605                D89828070100PT4B20160504000030SPEAKER ASM                   M IMCTM S7FL05 FTTL  07070IMCT  S7 PTB  00004                    0310 SR        000000000000 FUJITSU TEN (THAILAN160B45R0001   160B61R0014   Y160504901    Y160504915    000000                                                                              *R         20160428RDF1604283.TXT
MDEBG4T00339201605                D89828070200PV4B20160504000030SPEAKER ASM                   M IMCTM S7TS02 FTTL  07070IMCT  S7 PTB  00005                    0310 SR        000000000000 FUJITSU TEN (THAILAN160B45R0001   160B61R0014   Y160504901    Y160504915    000000                                                                              *R         20160428RDF1604283.TXT
MDEBG4T00340201605                D89828070300PT4B20160504000030SPEAKER ASM                   M IMCTM S7TS02 FTTL  07070IMCT  S7 PTB  00015                    0310 SR        000000000000 FUJITSU TEN (THAILAN160B45R0001   160B61R0014   Y160504901    Y160504915    000000                                                                              *R         20160428RDF1604283.TXT
MDEFG4T17781201605                D89805293700PV4F20160504000021SPEAKER ASM                   M IMCTM S7FR05 FTTL  07070IMCT  S7 PTB  00003                    1510 SR        000000000000 FUJITSU TEN (THAILAN15010HR0029   15058DR0067   D160505005    D160505015    000000                                                                              *R         20160428RDF1604283.TXT
MDEFG4T17782201605                D89805294000PT4F20160504000009SPEAKER ASM                   M IMCTM S7TS02 FTTL  07070IMCT  S7 PTB  00015                    1510 SR        000000000000 FUJITSU TEN (THAILAN15024DR0132   15058DR0067   D160505011    D160505015    000000                                                                              *R         20160428RDF1604283.TXT
MDEFG4T17783201605                D89805294100PV4F20160504000010SPEAKER ASM                   M IMCTM S7FR05 FTTL  07070IMCT  S7 PTB  00005                    1100 SR        000000000000 FUJITSU TEN (THAILAN15010HR0025   15010HR0029   D160505001    D160505005    000000                                                                              *R         20160428RDF1604283.TXT
MDEFG4T17784201605                D89805294200PT4F20160504000004SPEAKER ASM                   M IMCTM S7S137 FTTL  07070IMCT  S7 PTB  00030                    1510 SR        000000000000 FUJITSU TEN (THAILAN15058DR0066   15058DR0067   D160505009    D160505015    000000                                                                              *R         20160428RDF1604283.TXT
MDEFG4T17785201605                D89806470400PT4F20160504000002SPEAKER ASM;RDO,              M IMCTM S7TL03 FTTL  07070IMCT  S7 PTB  00015                    1510 SR        000000000000 FUJITSU TEN (THAILAN15058DR0066   15058DR0067   D160505009    D160505015    000000                                                                              *R         20160428RDF1604283.TXT
MDEFG4T17786201605                D89824360220PT4F20160504000002RADIO;AM/FM,CD                M IMCTM S7TS03 FTTL  07070IMCT  S7 CPB  00003                    1510 SR        000000000000 FUJITSU TEN (THAILAN15058DR0066   15058DR0067   D160505009    D160505015    000000                                                                              *R         20160428RDF1604283.TXT
MDEFG4243722201605                D89805293700PV4F20160504000009SPEAKER ASM                   M IMCTM S7FR05 FTTL  07070IMCT  S7 PTB  00003                    1100 SR        000000000000 FUJITSU TEN (THAILAN15010HR0025   15010HR0029   D160505001    D160505005    000000                                                                              *R         20160428RDF1604283.TXT
MDEFG4243723201605                D89805294000PT4F20160504000015SPEAKER ASM                   M IMCTM S7TS02 FTTL  07070IMCT  S7 PTB  00015                    1100 SR        000000000000 FUJITSU TEN (THAILAN15010HR0025   15024DR0132   D160505001    D160505011    000000                                                                              *R         20160428RDF1604283.TXT
