REC2016040720160407ISUZU                              15     
MAKK64027665201604D4               89805293700P3YK20160425000150SPEAKER ASM                   M IMCTM CM1    FTTL  07070IMKDC 01   PTB00003  K0                1621DES        000000000000 FUJITSU TEN (THAILAN                                                                                                                                            *G         20160407IMF1604077.TXT
MAKK64027666201604D4               89805293700P3YK20160426000210SPEAKER ASM                   M IMCTM CM1    FTTL  07070IMKDC 01   PTB00003  K0                1621DES        000000000000 FUJITSU TEN (THAILAN                                                                                                                                            *G         20160407IMF1604077.TXT
MAKK64027667201604D4               89805293700P3YK20160427000240SPEAKER ASM                   M IMCTM CM1    FTTL  07070IMKDC 01   PTB00003  K0                1621DES        000000000000 FUJITSU TEN (THAILAN                                                                                                                                            *G         20160407IMF1604077.TXT
MAKK64027668201604D4               89805293700P3YK20160428000210SPEAKER ASM                   M IMCTM CM1    FTTL  07070IMKDC 01   PTB00003  K0                1621DES        000000000000 FUJITSU TEN (THAILAN                                                                                                                                            *G         20160407IMF1604077.TXT
MAKK64027669201604D4               89805293700P3YK20160429000240SPEAKER ASM                   M IMCTM CM1    FTTL  07070IMKDC 01   PTB00003  K0                1621DES        000000000000 FUJITSU TEN (THAILAN                                                                                                                                            *G         20160407IMF1604077.TXT
MAKK64027670201604D4               89805294000P3YK20160426000060SPEAKER ASM                   M IMCTM CM1    FTTL  07070IMKDC 01   PTB00015  K0                1621DES        000000000000 FUJITSU TEN (THAILAN                                                                                                                                            *G         20160407IMF1604077.TXT
MAKK64027671201604D4               89805294000P3YK20160427000030SPEAKER ASM                   M IMCTM CM1    FTTL  07070IMKDC 01   PTB00015  K0                1621DES        000000000000 FUJITSU TEN (THAILAN                                                                                                                                            *G         20160407IMF1604077.TXT
MAKK64027672201604D4               89805294000P3YK20160428000060SPEAKER ASM                   M IMCTM CM1    FTTL  07070IMKDC 01   PTB00015  K0                1621DES        000000000000 FUJITSU TEN (THAILAN                                                                                                                                            *G         20160407IMF1604077.TXT
MAKK64027673201604D4               89805294100P3YK20160426000030SPEAKER ASM                   M IMCTM CM1    FTTL  07070IMKDC 01   PTB00005  K0                1621DES        000000000000 FUJITSU TEN (THAILAN                                                                                                                                            *G         20160407IMF1604077.TXT
MAKK64027674201604D4               89805294100P3YK20160427000030SPEAKER ASM                   M IMCTM CM1    FTTL  07070IMKDC 01   PTB00005  K0                1621DES        000000000000 FUJITSU TEN (THAILAN                                                                                                                                            *G         20160407IMF1604077.TXT
MAKK64027675201604D4               89805294100P3YK20160428000030SPEAKER ASM                   M IMCTM CM1    FTTL  07070IMKDC 01   PTB00005  K0                1621DES        000000000000 FUJITSU TEN (THAILAN                                                                                                                                            *G         20160407IMF1604077.TXT
MAKK64027676201604D4               89824135720P3YK20160426000015RADIO;AM/FM,CD,F              M IMCTM CM1    FTTL  07070IMKDC 01 PTB  00003  K0                1621DES        000000000000 FUJITSU TEN (THAILAN                                                                                                                                            *G         20160407IMF1604077.TXT
MAKK64027677201604D4               89828070100P3YK20160425000060SPEAKER ASM                   M IMCTM CM1    FTTL  07070IMKDC 01 PTB  00003  K0                1621DES        000000000000 FUJITSU TEN (THAILAN                                                                                                                                            *G         20160407IMF1604077.TXT
MAKK64027678201604D4               89828070200P3YK20160425000060SPEAKER ASM                   M IMCTM CM1    FTTL  07070IMKDC 01 PTB  00005  K0                1621DES        000000000000 FUJITSU TEN (THAILAN                                                                                                                                            *G         20160407IMF1604077.TXT
MAKK64027679201604D4               89828070300P3YK20160425000060SPEAKER ASM                   M IMCTM CM1    FTTL  07070IMKDC 01 PTB  00015  K0                1621DES        000000000000 FUJITSU TEN (THAILAN                                                                                                                                            *G         20160407IMF1604077.TXT
