REC2016040220160402ISUZU                              6      
MDEFG4T01265201604                D89805293700PV4F20160407000028SPEAKER ASM                   M IMCTM S7FR05 FTTL  07070IMCT  S7 PTB  00003                    1100 SR        000000000000 FUJITSU TEN (THAILAN15055DR0084   15056DR0054   D160401702    D160401715    000000                                                                              *R         20160402RDF1604024.TXT
MDEFG4T01266201604                D89805294000PT4F20160407000030SPEAKER ASM                   M IMCTM S7TS02 FTTL  07070IMCT  S7 PTB  00015                    1100 SR        000000000000 FUJITSU TEN (THAILAN15055DR0083   15056DR0054   D160401701    D160401715    000000                                                                              *R         20160402RDF1604024.TXT
MDEFG4T01267201604                D89828070100PV4F20160406000014SPEAKER ASM                   M IMCTM S7FL05 FTTL  07070IMCT  S7 PTB  00004                    2300 SR        000000000000 FUJITSU TEN (THAILAN16043KR0002   16043KR0008   F160401609    F160401615    000000                                                                              *R         20160402RDF1604024.TXT
MDEFG4T01268201604                D89828070300PT4F20160406000014SPEAKER ASM                   M IMCTM S7TS02 FTTL  07070IMCT  S7 PTB  00015                    2300 SR        000000000000 FUJITSU TEN (THAILAN16043KR0002   16043KR0008   F160401609    F160401615    000000                                                                              *R         20160402RDF1604024.TXT
MDEFG4201984201604                D89805293700PV4F20160406000009SPEAKER ASM                   M IMCTM S7FR05 FTTL  07070IMCT  S7 PTB  00003                    2030 SR        000000000000 FUJITSU TEN (THAILAN15005DR0107   15006DR0041   F160401601    F160401605    000000                                                                              *R         20160402RDF1604024.TXT
MDEFG4201985201604                D89805293700PV4F20160406000009SPEAKER ASM                   M IMCTM S7FR05 FTTL  07070IMCT  S7 PTB  00003                    2300 SR        000000000000 FUJITSU TEN (THAILAN15055DR0083   15007DR0045   D160401701    F160401608    000000                                                                              *R         20160402RDF1604024.TXT
