REC2016042920160429ISUZU                              7      
MAEDG4604373201608                 89828070100PV4D20160711000006SPEAKER ASM                   M IMCTM ST00000FTTL  07070IMCT  ST PTB  00004  DC                0000 SR        000000000000 FUJITSU TEN (THAILAN17009LU000100117012LU0001002                                                                                                                *P         20160429IMF1604291.TXT
MAEDG4604374201608                 89828070100PV4D20160713000002SPEAKER ASM                   M IMCTM ST00000FTTL  07070IMCT  ST PTB  00004  DC                0000 SR        000000000000 FUJITSU TEN (THAILAN17063LU0001001                                                                                                                              *P         20160429IMF1604291.TXT
MAEDG4604375201608                 89828070200PV4D20160711000006SPEAKER ASM                   M IMCTM ST00000FTTL  07070IMCT  ST PTB  00005  DC                0000 SR        000000000000 FUJITSU TEN (THAILAN17009LU000100117012LU0001002                                                                                                                *P         20160429IMF1604291.TXT
MAEDG4604376201608                 89828070200PV4D20160713000002SPEAKER ASM                   M IMCTM ST00000FTTL  07070IMCT  ST PTB  00005  DC                0000 SR        000000000000 FUJITSU TEN (THAILAN17063LU0001001                                                                                                                              *P         20160429IMF1604291.TXT
MAEDG4604377201608                 89828070300PT4D20160711000006SPEAKER ASM                   M IMCTM ST00000FTTL  07070IMCT  ST PTB  00015  DC                0000 SR        000000000000 FUJITSU TEN (THAILAN17009LU000100117012LU0001002                                                                                                                *P         20160429IMF1604291.TXT
MAEDG4604378201608                 89828070300PT4D20160713000002SPEAKER ASM                   M IMCTM ST00000FTTL  07070IMCT  ST PTB  00015  DC                0000 SR        000000000000 FUJITSU TEN (THAILAN17063LU0001001                                                                                                                              *P         20160429IMF1604291.TXT
MAEDG4604379201608                 89831229200PT4D20160713000001RADIO;AM/FM,CD                M IMCTM ST00000FTTL  07070IMCT  ST PTB  00003  DC                0000 SR        000000000000 FUJITSU TEN (THAILAN17063LU0001001                                                                                                                              *P         20160429IMF1604291.TXT
