REC2016042820160428ISUZU                              11     
MAEDG4600880201608                 89828070100PV1D20160711000010SPEAKER ASM                   M IMCTM ST00000FTTL  07070IMCT  ST PTB  00004  DC                0000 SR        000000000000 FUJITSU TEN (THAILAN17009LL000100217012LL0001003                                                                                                                *P         20160428IMF1604286.TXT
MAEDG4600881201608                 89828070100PV1D20160712000004SPEAKER ASM                   M IMCTM ST00000FTTL  07070IMCT  ST PTB  00004  DC                0000 SR        000000000000 FUJITSU TEN (THAILAN17019HL000500517021HL0002002                                                                                                                *P         20160428IMF1604286.TXT
MAEDG4600882201608                 89828070100PV1D20160713000004SPEAKER ASM                   M IMCTM ST00000FTTL  07070IMCT  ST PTB  00004  DC                0000 SR        000000000000 FUJITSU TEN (THAILAN17067LL000200217068LL0002002                                                                                                                *P         20160428IMF1604286.TXT
MAEDG4600883201608                 89828070200PV1D20160711000010SPEAKER ASM                   M IMCTM ST00000FTTL  07070IMCT  ST PTB  00005  DC                0000 SR        000000000000 FUJITSU TEN (THAILAN17009LL000100217012LL0001003                                                                                                                *P         20160428IMF1604286.TXT
MAEDG4600884201608                 89828070200PV1D20160712000004SPEAKER ASM                   M IMCTM ST00000FTTL  07070IMCT  ST PTB  00005  DC                0000 SR        000000000000 FUJITSU TEN (THAILAN17019HL000500517021HL0002002                                                                                                                *P         20160428IMF1604286.TXT
MAEDG4600885201608                 89828070200PV1D20160713000004SPEAKER ASM                   M IMCTM ST00000FTTL  07070IMCT  ST PTB  00005  DC                0000 SR        000000000000 FUJITSU TEN (THAILAN17067LL000200217068LL0002002                                                                                                                *P         20160428IMF1604286.TXT
MAEDG4600886201608                 89828070300PT1D20160711000010SPEAKER ASM                   M IMCTM ST00000FTTL  07070IMCT  ST PTB  00015  DC                0000 SR        000000000000 FUJITSU TEN (THAILAN17009LL000100217012LL0001003                                                                                                                *P         20160428IMF1604286.TXT
MAEDG4600887201608                 89828070300PT1D20160712000004SPEAKER ASM                   M IMCTM ST00000FTTL  07070IMCT  ST PTB  00015  DC                0000 SR        000000000000 FUJITSU TEN (THAILAN17019HL000500517021HL0002002                                                                                                                *P         20160428IMF1604286.TXT
MAEDG4600888201608                 89828070300PT1D20160713000004SPEAKER ASM                   M IMCTM ST00000FTTL  07070IMCT  ST PTB  00015  DC                0000 SR        000000000000 FUJITSU TEN (THAILAN17067LL000200217068LL0002002                                                                                                                *P         20160428IMF1604286.TXT
MAEDG4600889201608                 89831228600PT1D20160712000002RADIO;AM/FM,CD                M IMCTM ST00000FTTL  07070IMCT  ST PTB  00003  DC                0000 SR        000000000000 FUJITSU TEN (THAILAN17019HL000500517021HL0002002                                                                                                                *P         20160428IMF1604286.TXT
MAEDG4600890201608                 89831229200PT1D20160713000002RADIO;AM/FM,CD                M IMCTM ST00000FTTL  07070IMCT  ST PTB  00003  DC                0000 SR        000000000000 FUJITSU TEN (THAILAN17067LL000200217068LL0002002                                                                                                                *P         20160428IMF1604286.TXT
