REC2016050320160503ISUZU                              57     
MDDDG5201272201605                D89821984430PT1D20160506000030RADIO;AM/FM,CD                M IMCTM S5NC06 FTTL  07070IMCT  S5 PTB  00005                    2230 SR        000000000000 FUJITSU TEN (THAILAN160JXAL0127127                                                                                                                              *          20160503IMF1605035.TXT
MDDDG5201273201605                D89821984430PT1D20160507000030RADIO;AM/FM,CD                M IMCTM S5NC06 FTTL  07070IMCT  S5 PTB  00005                    0310 SR        000000000000 FUJITSU TEN (THAILAN160JNGL0045045                                                                                                                              *          20160503IMF1605035.TXT
MDDDG5201274201605                D89821984430PT1D20160507000030RADIO;AM/FM,CD                M IMCTM S5NC06 FTTL  07070IMCT  S5 PTB  00005                    1000 SR        000000000000 FUJITSU TEN (THAILAN160JXEL0056056                                                                                                                              *          20160503IMF1605035.TXT
MDDDG5201275201605                D89828070100PV1D20160506000060SPEAKER ASM                   M IMCTM S5MA12 FTTL  07070IMCT  S5 PTB  00004                    2230 SR        000000000000 FUJITSU TEN (THAILAN160JRUL0006006                                                                                                                              *          20160503IMF1605035.TXT
MDDDG5201276201605                D89828070100PV1D20160507000060SPEAKER ASM                   M IMCTM S5MA12 FTTL  07070IMCT  S5 PTB  00004                    0310 SR        000000000000 FUJITSU TEN (THAILAN160JXAL0127127                                                                                                                              *          20160503IMF1605035.TXT
MDDDG5201277201605                D89828070100PV1D20160507000060SPEAKER ASM                   M IMCTM S5MA12 FTTL  07070IMCT  S5 PTB  00004                    1000 SR        000000000000 FUJITSU TEN (THAILAN160JNGL0045045                                                                                                                              *          20160503IMF1605035.TXT
MDDDG5201278201605                D89828070100PV1D20160507000120SPEAKER ASM                   M IMCTM S5MA12 FTTL  07070IMCT  S5 PTB  00004                    1510 SR        000000000000 FUJITSU TEN (THAILAN160JXEL0056056160JYQL0027027                                                                                                                *          20160503IMF1605035.TXT
MDDDG5201279201605                D89828070100PV1D20160507000120SPEAKER ASM                   M IMCTM S5MA12 FTTL  07070IMCT  S5 PTB  00004                    2230 SR        000000000000 FUJITSU TEN (THAILAN160JRVL0009009160JXCL0044044                                                                                                                *          20160503IMF1605035.TXT
MDDDG5201280201605                D89828070200PV1D20160506000060SPEAKER ASM                   M IMCTM S5MA13 FTTL  07070IMCT  S5 PTB  00005                    2230 SR        000000000000 FUJITSU TEN (THAILAN160JRUL0006006                                                                                                                              *          20160503IMF1605035.TXT
MDDDG5201281201605                D89828070200PV1D20160507000060SPEAKER ASM                   M IMCTM S5MA13 FTTL  07070IMCT  S5 PTB  00005                    2230 SR        000000000000 FUJITSU TEN (THAILAN160JRVL0009009                                                                                                                              *          20160503IMF1605035.TXT
MDDDG5201282201605                D89828070300PT1D20160506000060SPEAKER ASM                   M IMCTM S5NB042FTTL  07070IMCT  S5 PTB  00015                    2230 SR        000000000000 FUJITSU TEN (THAILAN160JRUL0006006                                                                                                                              *          20160503IMF1605035.TXT
MDDDG5201283201605                D89828070300PT1D20160507000060SPEAKER ASM                   M IMCTM S5NB042FTTL  07070IMCT  S5 PTB  00015                    1510 SR        000000000000 FUJITSU TEN (THAILAN160JYQL0027027                                                                                                                              *          20160503IMF1605035.TXT
MDDDG5201284201605                D89828070300PT1D20160507000060SPEAKER ASM                   M IMCTM S5NB042FTTL  07070IMCT  S5 PTB  00015                    2230 SR        000000000000 FUJITSU TEN (THAILAN160JRVL0009009                                                                                                                              *          20160503IMF1605035.TXT
MDDDG5201285201605                D89831228300PT1D20160507000030RADIO;AM/FM,CD                M IMCTM S5NC06 FTTL  07070IMCT  S5 CPB  00003                    1510 SR        000000000000 FUJITSU TEN (THAILAN160JYQL0027027                                                                                                                              *          20160503IMF1605035.TXT
MDEDG5201854201605                D89805293700PV1D20160507000060SPEAKER ASM                   M IMCTM S5MA12 FTTL  07070IMCT  S5 PTB  00003                    0310 SR        000000000000 FUJITSU TEN (THAILAN15060DL0124125                                                                                                                              *          20160503IMF1605035.TXT
MDEDG5201855201605                D89805293700PV1D20160507000060SPEAKER ASM                   M IMCTM S5MA12 FTTL  07070IMCT  S5 PTB  00003                    1000 SR        000000000000 FUJITSU TEN (THAILAN15021CL000200215060DL0126126                                                                                                                *          20160503IMF1605035.TXT
MDEDG5201856201605                D89805293700PV4D20160507000030SPEAKER ASM                   M IMCTM S0FR05 FTTL  07070IMCT  S0 PTB  00003                    0310 SR        000000000000 FUJITSU TEN (THAILAN15062DU0037037                                                                                                                              *          20160503IMF1605035.TXT
MDEDG5201857201605                D89805293700PV4D20160507000060SPEAKER ASM                   M IMCTM S0FR05 FTTL  07070IMCT  S0 PTB  00003                    0800 SR        000000000000 FUJITSU TEN (THAILAN15028BU000700715058CU0032032                                                                                                                *          20160503IMF1605035.TXT
MDEDG5201858201605                D89805293700PV4D20160507000030SPEAKER ASM                   M IMCTM S0FR05 FTTL  07070IMCT  S0 PTB  00003                    1100 SR        000000000000 FUJITSU TEN (THAILAN15018CU0013013                                                                                                                              *          20160503IMF1605035.TXT
MDEDG5201859201605                D89805293700PV4D20160507000030SPEAKER ASM                   M IMCTM S0FR05 FTTL  07070IMCT  S0 PTB  00003                    2030 SR        000000000000 FUJITSU TEN (THAILAN15058CU0033033                                                                                                                              *          20160503IMF1605035.TXT
MDEDG5201860201605                D89805294000PT1D20160507000060SPEAKER ASM                   M IMCTM S5NB042FTTL  07070IMCT  S5 PTB  00015                    0310 SR        000000000000 FUJITSU TEN (THAILAN15060DL0124125                                                                                                                              *          20160503IMF1605035.TXT
MDEDG5201861201605                D89805294000PT1D20160507000060SPEAKER ASM                   M IMCTM S5NB042FTTL  07070IMCT  S5 PTB  00015                    1000 SR        000000000000 FUJITSU TEN (THAILAN15021CL000200215060DL0126126                                                                                                                *          20160503IMF1605035.TXT
MDEDG5201862201605                D89805294000PT4D20160507000030SPEAKER ASM                   M IMCTM S9AFA25FTTL  07070IMCT  S9 PTB  00015                    0310 SR        000000000000 FUJITSU TEN (THAILAN15062DU0037037                                                                                                                              *          20160503IMF1605035.TXT
MDEDG5201863201605                D89805294000PT4D20160507000030SPEAKER ASM                   M IMCTM S9AFA25FTTL  07070IMCT  S9 PTB  00015                    0800 SR        000000000000 FUJITSU TEN (THAILAN15028BU0007007                                                                                                                              *          20160503IMF1605035.TXT
MDEDG5201864201605                D89805294100PV1D20160507000030SPEAKER ASM                   M IMCTM S5MB13 FTTL  07070IMCT  S5 PTB  00005                    1000 SR        000000000000 FUJITSU TEN (THAILAN15021CL0002002                                                                                                                              *          20160503IMF1605035.TXT
MDEDG5201865201605                D89805294100PV4D20160507000030SPEAKER ASM                   M IMCTM S0FR05 FTTL  07070IMCT  S0 PTB  00005                    0800 SR        000000000000 FUJITSU TEN (THAILAN15028BU0007007                                                                                                                              *          20160503IMF1605035.TXT
MDEDG5201866201605                D89805294200PT1D20160507000060SPEAKER ASM                   M IMCTM S5AS011FTTL  07070IMCT  S6 PTB  00030                    0310 SR        000000000000 FUJITSU TEN (THAILAN15060DL0124125                                                                                                                              *          20160503IMF1605035.TXT
MDEDG5201867201605                D89805294200PT1D20160507000030SPEAKER ASM                   M IMCTM S5AS011FTTL  07070IMCT  S6 PTB  00030                    1000 SR        000000000000 FUJITSU TEN (THAILAN15060DL0126126                                                                                                                              *          20160503IMF1605035.TXT
MDEDG5201868201605                D89805294200PT4D20160507000030SPEAKER ASM                   M IMCTM S9AFA25FTTL  07070IMCT  S9 PTB  00030                    0310 SR        000000000000 FUJITSU TEN (THAILAN15062DU0037037                                                                                                                              *          20160503IMF1605035.TXT
MDEDG5201869201605                D89806470400PT1D20160507000030SPEAKER ASM;RDO,              M IMCTM S5EA18 FTTL  07070IMCT  S6 PTB  00015                    0310 SR        000000000000 FUJITSU TEN (THAILAN15060DL0124125                                                                                                                              *          20160503IMF1605035.TXT
MDEDG5201870201605                D89806470400PT1D20160507000015SPEAKER ASM;RDO,              M IMCTM S5EA18 FTTL  07070IMCT  S6 PTB  00015                    1000 SR        000000000000 FUJITSU TEN (THAILAN15060DL0126126                                                                                                                              *          20160503IMF1605035.TXT
MDEDG5201871201605                D89806470400PT4D20160507000015SPEAKER ASM;RDO,              M IMCTM S0TL03 FTTL  07070IMCT  S0 PTB  00015                    0310 SR        000000000000 FUJITSU TEN (THAILAN15062DU0037037                                                                                                                              *          20160503IMF1605035.TXT
MDEDG5201872201605                D89824360220PT1D20160506000015RADIO;AM/FM,CD                M IMCTM S5NC06 FTTL  07070IMCT  S5 CPB  00003                    2230 SR        000000000000 FUJITSU TEN (THAILAN15060DL0124124                                                                                                                              *          20160503IMF1605035.TXT
MDEDG5201873201605                D89824360220PT1D20160507000030RADIO;AM/FM,CD                M IMCTM S5NC06 FTTL  07070IMCT  S5 CPB  00003                    0310 SR        000000000000 FUJITSU TEN (THAILAN15060DL0125126                                                                                                                              *          20160503IMF1605035.TXT
MDEDG5201874201605                D89824360220PT4D20160507000015RADIO;AM/FM,CD                M IMCTM S9CO001FTTL  07070IMCT  S9 CPB  00003                    0310 SR        000000000000 FUJITSU TEN (THAILAN15062DU0037037                                                                                                                              *          20160503IMF1605035.TXT
MDEDG5201875201605                D89828070100PV1D20160507000060SPEAKER ASM                   M IMCTM S5MA12 FTTL  07070IMCT  S5 PTB  00004                    0310 SR        000000000000 FUJITSU TEN (THAILAN16052HL0001002                                                                                                                              *          20160503IMF1605035.TXT
MDEDG5201876201605                D89828070100PV1D20160507000030SPEAKER ASM                   M IMCTM S5MA12 FTTL  07070IMCT  S5 PTB  00004                    1000 SR        000000000000 FUJITSU TEN (THAILAN16081HL0068068                                                                                                                              *          20160503IMF1605035.TXT
MDEDG5201877201605                D89828070100PV1D20160507000060SPEAKER ASM                   M IMCTM S5MA12 FTTL  07070IMCT  S5 PTB  00004                    1510 SR        000000000000 FUJITSU TEN (THAILAN16047KL0004005                                                                                                                              *          20160503IMF1605035.TXT
MDEDG5201878201605                D89828070100PV4D20160506000030SPEAKER ASM                   M IMCTM S0FL05 FTTL  07070IMCT  S0 PTB  00004                    2030 SR        000000000000 FUJITSU TEN (THAILAN16072HU0005005                                                                                                                              *          20160503IMF1605035.TXT
MDEDG5201879201605                D89828070200PV1D20160507000060SPEAKER ASM                   M IMCTM S5MA13 FTTL  07070IMCT  S5 PTB  00005                    0310 SR        000000000000 FUJITSU TEN (THAILAN16052HL0001002                                                                                                                              *          20160503IMF1605035.TXT
MDEDG5201880201605                D89828070200PV1D20160507000060SPEAKER ASM                   M IMCTM S5MA13 FTTL  07070IMCT  S5 PTB  00005                    1510 SR        000000000000 FUJITSU TEN (THAILAN16047KL0004005                                                                                                                              *          20160503IMF1605035.TXT
MDEDG5201881201605                D89828070200PV4D20160506000030SPEAKER ASM                   M IMCTM S0FR05 FTTL  07070IMCT  S0 PTB  00005                    2030 SR        000000000000 FUJITSU TEN (THAILAN16072HU0005005                                                                                                                              *          20160503IMF1605035.TXT
MDEDG5201882201605                D89828070300PT1D20160507000060SPEAKER ASM                   M IMCTM S5NB042FTTL  07070IMCT  S5 PTB  00015                    0310 SR        000000000000 FUJITSU TEN (THAILAN16052HL0001002                                                                                                                              *          20160503IMF1605035.TXT
MDEDG5201883201605                D89828070300PT1D20160507000060SPEAKER ASM                   M IMCTM S5NB042FTTL  07070IMCT  S5 PTB  00015                    1510 SR        000000000000 FUJITSU TEN (THAILAN16047KL0004005                                                                                                                              *          20160503IMF1605035.TXT
MDEDG5201884201605                D89828070300PT4D20160506000030SPEAKER ASM                   M IMCTM S9TS02 FTTL  07070IMCT  S9 PTB  00015                    2030 SR        000000000000 FUJITSU TEN (THAILAN16072HU0005005                                                                                                                              *          20160503IMF1605035.TXT
MDEUG5200505201605                D89828070100PT4U20160506000030SPEAKER ASM                   M IMCTM S0FL05 FTTL  07070IMCT  S0 PTB  00004                    2300 SR        000000000000 FUJITSU TEN (THAILAN160B48U0126126                                                                                                                              *          20160503IMF1605035.TXT
MDEUG5200506201605                D89828070100PT4U20160507000030SPEAKER ASM                   M IMCTM S0FL05 FTTL  07070IMCT  S0 PTB  00004                    0310 SR        000000000000 FUJITSU TEN (THAILAN160B46U0045045                                                                                                                              *          20160503IMF1605035.TXT
MDEUG5200507201605                D89828070100PT4U20160507000030SPEAKER ASM                   M IMCTM S0FL05 FTTL  07070IMCT  S0 PTB  00004                    0800 SR        000000000000 FUJITSU TEN (THAILAN160B42U0008008                                                                                                                              *          20160503IMF1605035.TXT
MDEUG5200508201605                D89828070100PT4U20160507000060SPEAKER ASM                   M IMCTM S0FL05 FTTL  07070IMCT  S0 PTB  00004                    1100 SR        000000000000 FUJITSU TEN (THAILAN160B37U0004004160B41U0007007                                                                                                                *          20160503IMF1605035.TXT
MDEUG5200509201605                D89828070200PV4U20160506000030SPEAKER ASM                   M IMCTM S0FR05 FTTL  07070IMCT  S0 PTB  00005                    2300 SR        000000000000 FUJITSU TEN (THAILAN160B48U0126126                                                                                                                              *          20160503IMF1605035.TXT
MDEUG5200510201605                D89828070200PV4U20160507000030SPEAKER ASM                   M IMCTM S0FR05 FTTL  07070IMCT  S0 PTB  00005                    0310 SR        000000000000 FUJITSU TEN (THAILAN160B46U0045045                                                                                                                              *          20160503IMF1605035.TXT
MDEUG5200511201605                D89828070200PV4U20160507000030SPEAKER ASM                   M IMCTM S0FR05 FTTL  07070IMCT  S0 PTB  00005                    0800 SR        000000000000 FUJITSU TEN (THAILAN160B42U0008008                                                                                                                              *          20160503IMF1605035.TXT
MDEUG5200512201605                D89828070200PV4U20160507000060SPEAKER ASM                   M IMCTM S0FR05 FTTL  07070IMCT  S0 PTB  00005                    1100 SR        000000000000 FUJITSU TEN (THAILAN160B37U0004004160B41U0007007                                                                                                                *          20160503IMF1605035.TXT
MDEUG5200513201605                D89828070300PT4U20160506000030SPEAKER ASM                   M IMCTM S9TS02 FTTL  07070IMCT  S9 PTB  00015                    2300 SR        000000000000 FUJITSU TEN (THAILAN160B48U0126126                                                                                                                              *          20160503IMF1605035.TXT
MDEUG5200514201605                D89828070300PT4U20160507000030SPEAKER ASM                   M IMCTM S9TS02 FTTL  07070IMCT  S9 PTB  00015                    0310 SR        000000000000 FUJITSU TEN (THAILAN160B46U0045045                                                                                                                              *          20160503IMF1605035.TXT
MDEUG5200515201605                D89828070300PT4U20160507000030SPEAKER ASM                   M IMCTM S9TS02 FTTL  07070IMCT  S9 PTB  00015                    0800 SR        000000000000 FUJITSU TEN (THAILAN160B42U0008008                                                                                                                              *          20160503IMF1605035.TXT
MDEUG5200516201605                D89828070300PT4U20160507000060SPEAKER ASM                   M IMCTM S9TS02 FTTL  07070IMCT  S9 PTB  00015                    1100 SR        000000000000 FUJITSU TEN (THAILAN160B37U0004004160B41U0007007                                                                                                                *          20160503IMF1605035.TXT
