REC2016050420160504ISUZU                              10     
MAKK65056525201605D4               89805293700P3YK20160516000210SPEAKER ASM                   M IMCTM CM1    FTTL  07070IMKDC 01   PTB00003  K0                1621DES        000000000000 FUJITSU TEN (THAILAN                                                                                                                                            *G         20160504IMF1605044.TXT
MAKK65056526201605D4               89805293700P3YK20160517000240SPEAKER ASM                   M IMCTM CM1    FTTL  07070IMKDC 01   PTB00003  K0                1621DES        000000000000 FUJITSU TEN (THAILAN                                                                                                                                            *G         20160504IMF1605044.TXT
MAKK65056527201605D4               89805293700P3YK20160518000240SPEAKER ASM                   M IMCTM CM1    FTTL  07070IMKDC 01   PTB00003  K0                1621DES        000000000000 FUJITSU TEN (THAILAN                                                                                                                                            *G         20160504IMF1605044.TXT
MAKK65056528201605D4               89805294000P3YK20160516000060SPEAKER ASM                   M IMCTM CM1    FTTL  07070IMKDC 01   PTB00015  K0                1621DES        000000000000 FUJITSU TEN (THAILAN                                                                                                                                            *G         20160504IMF1605044.TXT
MAKK65056529201605D4               89805294000P3YK20160517000150SPEAKER ASM                   M IMCTM CM1    FTTL  07070IMKDC 01   PTB00015  K0                1621DES        000000000000 FUJITSU TEN (THAILAN                                                                                                                                            *G         20160504IMF1605044.TXT
MAKK65056530201605D4               89805294000P3YK20160518000060SPEAKER ASM                   M IMCTM CM1    FTTL  07070IMKDC 01   PTB00015  K0                1621DES        000000000000 FUJITSU TEN (THAILAN                                                                                                                                            *G         20160504IMF1605044.TXT
MAKK65056531201605D4               89805294100P3YK20160516000030SPEAKER ASM                   M IMCTM CM1    FTTL  07070IMKDC 01   PTB00005  K0                1621DES        000000000000 FUJITSU TEN (THAILAN                                                                                                                                            *G         20160504IMF1605044.TXT
MAKK65056532201605D4               89805294100P3YK20160517000120SPEAKER ASM                   M IMCTM CM1    FTTL  07070IMKDC 01   PTB00005  K0                1621DES        000000000000 FUJITSU TEN (THAILAN                                                                                                                                            *G         20160504IMF1605044.TXT
MAKK65056533201605D4               89805294100P3YK20160518000030SPEAKER ASM                   M IMCTM CM1    FTTL  07070IMKDC 01   PTB00005  K0                1621DES        000000000000 FUJITSU TEN (THAILAN                                                                                                                                            *G         20160504IMF1605044.TXT
MAKK65056534201605D4               89824135720P3YK20160517000030RADIO;AM/FM,CD,F              M IMCTM CM1    FTTL  07070IMKDC 01 PTB  00003  K0                1621DES        000000000000 FUJITSU TEN (THAILAN                                                                                                                                            *G         20160504IMF1605044.TXT
