REC2016050420160505ISUZU                              48     
MDDDG5205991201605                D89821984430PT1D20160507000030RADIO;AM/FM,CD                M IMCTM S5NC06 FTTL  07070IMCT  S5 PTB  00005                    2230 SR        000000000000 FUJITSU TEN (THAILAN160JXAL0128128                                                                                                                              *          20160504IMF1605046.TXT
MDDDG5205992201605                D89821984430PT1D20160509000060RADIO;AM/FM,CD                M IMCTM S5NC06 FTTL  07070IMCT  S5 PTB  00005                    1510 SR        000000000000 FUJITSU TEN (THAILAN160JXEL0057057160JZSL0024024                                                                                                                *          20160504IMF1605046.TXT
MDDDG5205993201605                D89828070100PV1D20160508000180SPEAKER ASM                   M IMCTM S5MA12 FTTL  07070IMCT  S5 PTB  00004                    0310 SR        000000000000 FUJITSU TEN (THAILAN160JXAL0128128160JYKL0004004160JYSL0083083                                                                                                  *          20160504IMF1605046.TXT
MDDDG5205994201605                D89828070100PV1D20160509000120SPEAKER ASM                   M IMCTM S5MA12 FTTL  07070IMCT  S5 PTB  00004                    1510 SR        000000000000 FUJITSU TEN (THAILAN160JXCL0045045160JZFL0100100                                                                                                                *          20160504IMF1605046.TXT
MDDDG5205995201605                D89828070100PV1D20160509000120SPEAKER ASM                   M IMCTM S5MA12 FTTL  07070IMCT  S5 PTB  00004                    2230 SR        000000000000 FUJITSU TEN (THAILAN160JXEL0057057160JZSL0024024                                                                                                                *          20160504IMF1605046.TXT
MDDDG5205996201605                D89828070200PV1D20160509000060SPEAKER ASM                   M IMCTM S5MA13 FTTL  07070IMCT  S5 PTB  00005                    1510 SR        000000000000 FUJITSU TEN (THAILAN160JZFL0100100                                                                                                                              *          20160504IMF1605046.TXT
MDDDG5205997201605                D89828070300PT1D20160508000120SPEAKER ASM                   M IMCTM S5NB042FTTL  07070IMCT  S5 PTB  00015                    0310 SR        000000000000 FUJITSU TEN (THAILAN160JYKL0004004160JYSL0083083                                                                                                                *          20160504IMF1605046.TXT
MDDDG5205998201605                D89828070300PT1D20160509000060SPEAKER ASM                   M IMCTM S5NB042FTTL  07070IMCT  S5 PTB  00015                    1510 SR        000000000000 FUJITSU TEN (THAILAN160JZFL0100100                                                                                                                              *          20160504IMF1605046.TXT
MDDDG5205999201605                D89829645900PT1D20160509000030RADIO;ASM DVD                 M IMCTM S5NC06 FTTL  07070IMCT  S5 CPB  00003                    1000 SR        000000000000 FUJITSU TEN (THAILAN160JZFL0100100                                                                                                                              *          20160504IMF1605046.TXT
MDDDG5206000201605                D89831228300PT1D20160508000030RADIO;AM/FM,CD                M IMCTM S5NC06 FTTL  07070IMCT  S5 CPB  00003                    0310 SR        000000000000 FUJITSU TEN (THAILAN160JYSL0083083                                                                                                                              *          20160504IMF1605046.TXT
MDEDG5209367201605                D89805293700PV4D20160508000030SPEAKER ASM                   M IMCTM S0FR05 FTTL  07070IMCT  S0 PTB  00003                    0310 SR        000000000000 FUJITSU TEN (THAILAN15074DU0007007                                                                                                                              *          20160504IMF1605046.TXT
MDEDG5209368201605                D89805293700PV4D20160509000030SPEAKER ASM                   M IMCTM S0FR05 FTTL  07070IMCT  S0 PTB  00003                    0800 SR        000000000000 FUJITSU TEN (THAILAN15004DU0006006                                                                                                                              *          20160504IMF1605046.TXT
MDEDG5209369201605                D89805293700PV4D20160509000060SPEAKER ASM                   M IMCTM S0FR05 FTTL  07070IMCT  S0 PTB  00003                    1100 SR        000000000000 FUJITSU TEN (THAILAN15015FU000200215055CU0004004                                                                                                                *          20160504IMF1605046.TXT
MDEDG5209370201605                D89805294000PT4D20160508000030SPEAKER ASM                   M IMCTM S9AFA25FTTL  07070IMCT  S9 PTB  00015                    0310 SR        000000000000 FUJITSU TEN (THAILAN15074DU0007007                                                                                                                              *          20160504IMF1605046.TXT
MDEDG5209371201605                D89805294000PT4D20160509000030SPEAKER ASM                   M IMCTM S9AFA25FTTL  07070IMCT  S9 PTB  00015                    1100 SR        000000000000 FUJITSU TEN (THAILAN15015FU0002002                                                                                                                              *          20160504IMF1605046.TXT
MDEDG5209372201605                D89805294200PT4D20160508000030SPEAKER ASM                   M IMCTM S9AFA25FTTL  07070IMCT  S9 PTB  00030                    0310 SR        000000000000 FUJITSU TEN (THAILAN15074DU0007007                                                                                                                              *          20160504IMF1605046.TXT
MDEDG5209373201605                D89806470400PT4D20160508000015SPEAKER ASM;RDO,              M IMCTM S0TL03 FTTL  07070IMCT  S0 PTB  00015                    0310 SR        000000000000 FUJITSU TEN (THAILAN15074DU0007007                                                                                                                              *          20160504IMF1605046.TXT
MDEDG5209374201605                D89824360220PT4D20160508000015RADIO;AM/FM,CD                M IMCTM S9CO001FTTL  07070IMCT  S9 CPB  00003                    0310 SR        000000000000 FUJITSU TEN (THAILAN15074DU0007007                                                                                                                              *          20160504IMF1605046.TXT
MDEDG5209375201605                D89828070100PV1D20160507000030SPEAKER ASM                   M IMCTM S5MA12 FTTL  07070IMCT  S5 PTB  00004                    2230 SR        000000000000 FUJITSU TEN (THAILAN16082KL0004004                                                                                                                              *          20160504IMF1605046.TXT
MDEDG5209376201605                D89828070100PV1D20160508000060SPEAKER ASM                   M IMCTM S5MA12 FTTL  07070IMCT  S5 PTB  00004                    0310 SR        000000000000 FUJITSU TEN (THAILAN16026KL0001002                                                                                                                              *          20160504IMF1605046.TXT
MDEDG5209377201605                D89828070100PV1D20160509000120SPEAKER ASM                   M IMCTM S5MA12 FTTL  07070IMCT  S5 PTB  00004                    1000 SR        000000000000 FUJITSU TEN (THAILAN16026KL000300316047HL000100216065HL0001001                                                                                                  *          20160504IMF1605046.TXT
MDEDG5209378201605                D89828070100PV1D20160509000060SPEAKER ASM                   M IMCTM S5MA12 FTTL  07070IMCT  S5 PTB  00004                    1510 SR        000000000000 FUJITSU TEN (THAILAN16074HL0001002                                                                                                                              *          20160504IMF1605046.TXT
MDEDG5209379201605                D89828070100PV4D20160507000030SPEAKER ASM                   M IMCTM S0FL05 FTTL  07070IMCT  S0 PTB  00004                    2300 SR        000000000000 FUJITSU TEN (THAILAN16047KU0002002                                                                                                                              *          20160504IMF1605046.TXT
MDEDG5209380201605                D89828070100PV4D20160509000030SPEAKER ASM                   M IMCTM S0FL05 FTTL  07070IMCT  S0 PTB  00004                    1510 SR        000000000000 FUJITSU TEN (THAILAN16052HU0002002                                                                                                                              *          20160504IMF1605046.TXT
MDEDG5209381201605                D89828070100PV4D20160509000030SPEAKER ASM                   M IMCTM S0FL05 FTTL  07070IMCT  S0 PTB  00004                    2030 SR        000000000000 FUJITSU TEN (THAILAN16052HU0003003                                                                                                                              *          20160504IMF1605046.TXT
MDEDG5209382201605                D89828070200PV1D20160508000060SPEAKER ASM                   M IMCTM S5MA13 FTTL  07070IMCT  S5 PTB  00005                    0310 SR        000000000000 FUJITSU TEN (THAILAN16026KL0001002                                                                                                                              *          20160504IMF1605046.TXT
MDEDG5209383201605                D89828070200PV1D20160509000060SPEAKER ASM                   M IMCTM S5MA13 FTTL  07070IMCT  S5 PTB  00005                    1000 SR        000000000000 FUJITSU TEN (THAILAN16026KL000300316065HL0001001                                                                                                                *          20160504IMF1605046.TXT
MDEDG5209384201605                D89828070200PV1D20160509000060SPEAKER ASM                   M IMCTM S5MA13 FTTL  07070IMCT  S5 PTB  00005                    1510 SR        000000000000 FUJITSU TEN (THAILAN16074HL0001002                                                                                                                              *          20160504IMF1605046.TXT
MDEDG5209385201605                D89828070200PV4D20160507000030SPEAKER ASM                   M IMCTM S0FR05 FTTL  07070IMCT  S0 PTB  00005                    2300 SR        000000000000 FUJITSU TEN (THAILAN16047KU0002002                                                                                                                              *          20160504IMF1605046.TXT
MDEDG5209386201605                D89828070200PV4D20160509000030SPEAKER ASM                   M IMCTM S0FR05 FTTL  07070IMCT  S0 PTB  00005                    1510 SR        000000000000 FUJITSU TEN (THAILAN16052HU0002002                                                                                                                              *          20160504IMF1605046.TXT
MDEDG5209387201605                D89828070200PV4D20160509000030SPEAKER ASM                   M IMCTM S0FR05 FTTL  07070IMCT  S0 PTB  00005                    2030 SR        000000000000 FUJITSU TEN (THAILAN16052HU0003003                                                                                                                              *          20160504IMF1605046.TXT
MDEDG5209388201605                D89828070300PT1D20160508000060SPEAKER ASM                   M IMCTM S5NB042FTTL  07070IMCT  S5 PTB  00015                    0310 SR        000000000000 FUJITSU TEN (THAILAN16026KL0001002                                                                                                                              *          20160504IMF1605046.TXT
MDEDG5209389201605                D89828070300PT1D20160509000120SPEAKER ASM                   M IMCTM S5NB042FTTL  07070IMCT  S5 PTB  00015                    1000 SR        000000000000 FUJITSU TEN (THAILAN16026KL000300316047HL000100216065HL0001001                                                                                                  *          20160504IMF1605046.TXT
MDEDG5209390201605                D89828070300PT1D20160509000060SPEAKER ASM                   M IMCTM S5NB042FTTL  07070IMCT  S5 PTB  00015                    1510 SR        000000000000 FUJITSU TEN (THAILAN16074HL0001002                                                                                                                              *          20160504IMF1605046.TXT
MDEDG5209391201605                D89828070300PT4D20160507000030SPEAKER ASM                   M IMCTM S9TS02 FTTL  07070IMCT  S9 PTB  00015                    2300 SR        000000000000 FUJITSU TEN (THAILAN16047KU0002002                                                                                                                              *          20160504IMF1605046.TXT
MDEDG5209392201605                D89828070300PT4D20160509000030SPEAKER ASM                   M IMCTM S9TS02 FTTL  07070IMCT  S9 PTB  00015                    1510 SR        000000000000 FUJITSU TEN (THAILAN16052HU0002002                                                                                                                              *          20160504IMF1605046.TXT
MDEDG5209393201605                D89828070300PT4D20160509000030SPEAKER ASM                   M IMCTM S9TS02 FTTL  07070IMCT  S9 PTB  00015                    2030 SR        000000000000 FUJITSU TEN (THAILAN16052HU0003003                                                                                                                              *          20160504IMF1605046.TXT
MDEDG5209394201605                D89831228600PT1D20160508000030RADIO;AM/FM,CD                M IMCTM S5NC06 FTTL  07070IMCT  S5 PTB  00003                    0310 SR        000000000000 FUJITSU TEN (THAILAN16047HL0001002                                                                                                                              *          20160504IMF1605046.TXT
MDEDG5209395201605                D89831228600PT1D20160509000015RADIO;AM/FM,CD                M IMCTM S5NC06 FTTL  07070IMCT  S5 PTB  00003                    1000 SR        000000000000 FUJITSU TEN (THAILAN16065HL0001001                                                                                                                              *          20160504IMF1605046.TXT
MDEUG5203620201605                D89828070100PT4U20160509000030SPEAKER ASM                   M IMCTM S0FL05 FTTL  07070IMCT  S0 PTB  00004                    0800 SR        000000000000 FUJITSU TEN (THAILAN160B48U0127127                                                                                                                              *          20160504IMF1605046.TXT
MDEUG5203621201605                D89828070100PT4U20160509000030SPEAKER ASM                   M IMCTM S0FL05 FTTL  07070IMCT  S0 PTB  00004                    1510 SR        000000000000 FUJITSU TEN (THAILAN160B39U0001001                                                                                                                              *          20160504IMF1605046.TXT
MDEUG5203622201605                D89828070100PT4U20160509000030SPEAKER ASM                   M IMCTM S0FL05 FTTL  07070IMCT  S0 PTB  00004                    2030 SR        000000000000 FUJITSU TEN (THAILAN160B42U0009009                                                                                                                              *          20160504IMF1605046.TXT
MDEUG5203623201605                D89828070200PV4U20160509000030SPEAKER ASM                   M IMCTM S0FR05 FTTL  07070IMCT  S0 PTB  00005                    0800 SR        000000000000 FUJITSU TEN (THAILAN160B48U0127127                                                                                                                              *          20160504IMF1605046.TXT
MDEUG5203624201605                D89828070200PV4U20160509000030SPEAKER ASM                   M IMCTM S0FR05 FTTL  07070IMCT  S0 PTB  00005                    1510 SR        000000000000 FUJITSU TEN (THAILAN160B39U0001001                                                                                                                              *          20160504IMF1605046.TXT
MDEUG5203625201605                D89828070200PV4U20160509000030SPEAKER ASM                   M IMCTM S0FR05 FTTL  07070IMCT  S0 PTB  00005                    2030 SR        000000000000 FUJITSU TEN (THAILAN160B42U0009009                                                                                                                              *          20160504IMF1605046.TXT
MDEUG5203626201605                D89828070300PT4U20160509000030SPEAKER ASM                   M IMCTM S9TS02 FTTL  07070IMCT  S9 PTB  00015                    0800 SR        000000000000 FUJITSU TEN (THAILAN160B48U0127127                                                                                                                              *          20160504IMF1605046.TXT
MDEUG5203627201605                D89828070300PT4U20160509000030SPEAKER ASM                   M IMCTM S9TS02 FTTL  07070IMCT  S9 PTB  00015                    1510 SR        000000000000 FUJITSU TEN (THAILAN160B39U0001001                                                                                                                              *          20160504IMF1605046.TXT
MDEUG5203628201605                D89828070300PT4U20160509000030SPEAKER ASM                   M IMCTM S9TS02 FTTL  07070IMCT  S9 PTB  00015                    2030 SR        000000000000 FUJITSU TEN (THAILAN160B42U0009009                                                                                                                              *          20160504IMF1605046.TXT
