REC2016052420160524ISUZU                              6      
MDEFG5T16473201605                D89828070100PV4F20160528000028SPEAKER ASM                   M IMCTM S7FL05 FTTL  07070IMCT  S7 PTB  00004                    0310 SR        000000000000 FUJITSU TEN (THAILAN16047JR0002   16080JR0024   R160508202    R160508215    000000                                                                              *R         20160524RDF1605244.TXT
MDEFG5T16474201605                D89828070200PV4F20160527000020SPEAKER ASM                   M IMCTM S7TS02 FTTL  07070IMCT  S7 PTB  00005                    1100 SR        000000000000 FUJITSU TEN (THAILAN16047KR0018   16047KR0022   D160508101    D160508115    000000                                                                              *R         20160524RDF1605244.TXT
MDEFG5T16475201605                D89828070300PT4F20160527000020SPEAKER ASM                   M IMCTM S7TS02 FTTL  07070IMCT  S7 PTB  00015                    1100 SR        000000000000 FUJITSU TEN (THAILAN16047KR0018   16047KR0022   D160508101    D160508115    000000                                                                              *R         20160524RDF1605244.TXT
MDEFG5T16476201605                D89831229000PT4F20160527000001RADIO;AM/FM,CD                M IMCTM S7TS03 FTTL  07070IMCT  S7 PTB  00003                    1100 SR        000000000000 FUJITSU TEN (THAILAN16056KR0014   16056KR0014   D160508107    D160508107    000000                                                                              *R         20160524RDF1605244.TXT
MDEFG5231920201605                D89828070100PV4F20160527000024SPEAKER ASM                   M IMCTM S7FL05 FTTL  07070IMCT  S7 PTB  00004                    1100 SR        000000000000 FUJITSU TEN (THAILAN16047KR0018   16065JR0027   D160508101    D160508112    000000                                                                              *R         20160524RDF1605244.TXT
MDEFG5231921201605                D89828070100PV4F20160527000008SPEAKER ASM                   M IMCTM S7FL05 FTTL  07070IMCT  S7 PTB  00004                    1510 SR        000000000000 FUJITSU TEN (THAILAN16065JR0028   16047JR0001   D160508113    R160508201    000000                                                                              *R         20160524RDF1605244.TXT
