REC2016051120160511ISUZU                              9      
MDEFG5T08415201605                D89805293700PV4F20160514000028SPEAKER ASM                   M IMCTM S7FR05 FTTL  07070IMCT  S7 PTB  00003                    2300 SR        000000000000 FUJITSU TEN (THAILAN15065CR0114   15075GR0056   D160507001    D160507014    000000                                                                              *R         20160511RDF1605114.TXT
MDEFG5T08416201605                D89805294000PT4F20160514000028SPEAKER ASM                   M IMCTM S7TS02 FTTL  07070IMCT  S7 PTB  00015                    2300 SR        000000000000 FUJITSU TEN (THAILAN15065CR0114   15075GR0056   D160507001    D160507014    000000                                                                              *R         20160511RDF1605114.TXT
MDEFG5T08417201605                D89805294100PV4F20160514000018SPEAKER ASM                   M IMCTM S7FR05 FTTL  07070IMCT  S7 PTB  00005                    2300 SR        000000000000 FUJITSU TEN (THAILAN15065CR0114   15075GR0056   D160507001    D160507014    000000                                                                              *R         20160511RDF1605114.TXT
MDEFG5T08418201605                D89805294200PT4F20160514000010SPEAKER ASM                   M IMCTM S7S137 FTTL  07070IMCT  S7 PTB  00030                    2300 SR        000000000000 FUJITSU TEN (THAILAN15081DR0041   15081DR0045   D160507006    D160507010    000000                                                                              *R         20160511RDF1605114.TXT
MDEFG5T08419201605                D89806470400PT4F20160514000005SPEAKER ASM;RDO,              M IMCTM S7TL03 FTTL  07070IMCT  S7 PTB  00015                    2300 SR        000000000000 FUJITSU TEN (THAILAN15081DR0041   15081DR0045   D160507006    D160507010    000000                                                                              *R         20160511RDF1605114.TXT
MDEFG5T08420201605                D89824360220PT4F20160514000005RADIO;AM/FM,CD                M IMCTM S7TS03 FTTL  07070IMCT  S7 CPB  00003                    2300 SR        000000000000 FUJITSU TEN (THAILAN15081DR0041   15081DR0045   D160507006    D160507010    000000                                                                              *R         20160511RDF1605114.TXT
MDEFG5T08421201605                D89828070100PV4F20160514000002SPEAKER ASM                   M IMCTM S7FL05 FTTL  07070IMCT  S7 PTB  00004                    2300 SR        000000000000 FUJITSU TEN (THAILAN16049KR0014   16049KR0014   D160507015    D160507015    000000                                                                              *R         20160511RDF1605114.TXT
MDEFG5T08422201605                D89828070200PV4F20160514000002SPEAKER ASM                   M IMCTM S7TS02 FTTL  07070IMCT  S7 PTB  00005                    2300 SR        000000000000 FUJITSU TEN (THAILAN16049KR0014   16049KR0014   D160507015    D160507015    000000                                                                              *R         20160511RDF1605114.TXT
MDEFG5T08423201605                D89828070300PT4F20160514000002SPEAKER ASM                   M IMCTM S7TS02 FTTL  07070IMCT  S7 PTB  00015                    2300 SR        000000000000 FUJITSU TEN (THAILAN16049KR0014   16049KR0014   D160507015    D160507015    000000                                                                              *R         20160511RDF1605114.TXT
