REC2016050920160509ISUZU                              46     
MDDDG5228191201605                D89821984430PT1D20160512000030RADIO;AM/FM,CD                M IMCTM S5NC06 FTTL  07070IMCT  S5 PTB  00005                    2230 SR        000000000000 FUJITSU TEN (THAILAN160JYPL0074074                                                                                                                              *          20160509IMF1605095.TXT
MDDDG5228192201605                D89821984430PT1D20160513000060RADIO;AM/FM,CD                M IMCTM S5NC06 FTTL  07070IMCT  S5 PTB  00005                    1000 SR        000000000000 FUJITSU TEN (THAILAN160JXAL0132132160JYPL0075075                                                                                                                *          20160509IMF1605095.TXT
MDDDG5228193201605                D89821984430PT1D20160513000030RADIO;AM/FM,CD                M IMCTM S5NC06 FTTL  07070IMCT  S5 PTB  00005                    1510 SR        000000000000 FUJITSU TEN (THAILAN160JNHL0029029                                                                                                                              *          20160509IMF1605095.TXT
MDDDG5228194201605                D89825217900PT1D20160513000030RADIO;AM/FM,CD,D              M IMCTM S5NC06 FTTL  07070IMCT  S5 PTB  00003                    1510 SR        000000000000 FUJITSU TEN (THAILAN160JYGL0114114                                                                                                                              *          20160509IMF1605095.TXT
MDDDG5228195201605                D89828070100PV1D20160513000180SPEAKER ASM                   M IMCTM S5MA12 FTTL  07070IMCT  S5 PTB  00004                    0310 SR        000000000000 FUJITSU TEN (THAILAN160JXCL0047047160JYPL0074074160JZFL0102102                                                                                                  *          20160509IMF1605095.TXT
MDDDG5228196201605                D89828070100PV1D20160513000060SPEAKER ASM                   M IMCTM S5MA12 FTTL  07070IMCT  S5 PTB  00004                    1000 SR        000000000000 FUJITSU TEN (THAILAN160JZGL0009009                                                                                                                              *          20160509IMF1605095.TXT
MDDDG5228197201605                D89828070100PV1D20160513000180SPEAKER ASM                   M IMCTM S5MA12 FTTL  07070IMCT  S5 PTB  00004                    1510 SR        000000000000 FUJITSU TEN (THAILAN160JNHL0029029160JXAL0132132160JYPL0075075                                                                                                  *          20160509IMF1605095.TXT
MDDDG5228198201605                D89828070100PV1D20160513000120SPEAKER ASM                   M IMCTM S5MA12 FTTL  07070IMCT  S5 PTB  00004                    2230 SR        000000000000 FUJITSU TEN (THAILAN160JYGL0114114160JZJL0019019                                                                                                                *          20160509IMF1605095.TXT
MDDDG5228199201605                D89828070200PV1D20160513000060SPEAKER ASM                   M IMCTM S5MA13 FTTL  07070IMCT  S5 PTB  00005                    0310 SR        000000000000 FUJITSU TEN (THAILAN160JZFL0102102                                                                                                                              *          20160509IMF1605095.TXT
MDDDG5228200201605                D89828070200PV1D20160513000060SPEAKER ASM                   M IMCTM S5MA13 FTTL  07070IMCT  S5 PTB  00005                    1000 SR        000000000000 FUJITSU TEN (THAILAN160JZGL0009009                                                                                                                              *          20160509IMF1605095.TXT
MDDDG5228201201605                D89828070200PV1D20160513000060SPEAKER ASM                   M IMCTM S5MA13 FTTL  07070IMCT  S5 PTB  00005                    2230 SR        000000000000 FUJITSU TEN (THAILAN160JZJL0019019                                                                                                                              *          20160509IMF1605095.TXT
MDDDG5228202201605                D89828070300PT1D20160513000060SPEAKER ASM                   M IMCTM S5NB042FTTL  07070IMCT  S5 PTB  00015                    0310 SR        000000000000 FUJITSU TEN (THAILAN160JZFL0102102                                                                                                                              *          20160509IMF1605095.TXT
MDDDG5228203201605                D89828070300PT1D20160513000060SPEAKER ASM                   M IMCTM S5NB042FTTL  07070IMCT  S5 PTB  00015                    1000 SR        000000000000 FUJITSU TEN (THAILAN160JZGL0009009                                                                                                                              *          20160509IMF1605095.TXT
MDDDG5228204201605                D89828070300PT1D20160513000120SPEAKER ASM                   M IMCTM S5NB042FTTL  07070IMCT  S5 PTB  00015                    2230 SR        000000000000 FUJITSU TEN (THAILAN160JYGL0114114160JZJL0019019                                                                                                                *          20160509IMF1605095.TXT
MDDDG5228205201605                D89829645900PT1D20160512000030RADIO;ASM DVD                 M IMCTM S5NC06 FTTL  07070IMCT  S5 CPB  00003                    2230 SR        000000000000 FUJITSU TEN (THAILAN160JZFL0102102                                                                                                                              *          20160509IMF1605095.TXT
MDDDG5228206201605                D89829645900PT1D20160513000030RADIO;ASM DVD                 M IMCTM S5NC06 FTTL  07070IMCT  S5 CPB  00003                    0310 SR        000000000000 FUJITSU TEN (THAILAN160JZGL0009009                                                                                                                              *          20160509IMF1605095.TXT
MDEDG5238317201605                D89805293700PV1D20160512000030SPEAKER ASM                   M IMCTM S5MA12 FTTL  07070IMCT  S5 PTB  00003                    2230 SR        000000000000 FUJITSU TEN (THAILAN15058CL0051051                                                                                                                              *          20160509IMF1605095.TXT
MDEDG5238318201605                D89805293700PV1D20160513000060SPEAKER ASM                   M IMCTM S5MA12 FTTL  07070IMCT  S5 PTB  00003                    0310 SR        000000000000 FUJITSU TEN (THAILAN15057CL000600615058CL0052052                                                                                                                *          20160509IMF1605095.TXT
MDEDG5238319201605                D89805293700PV4D20160512000030SPEAKER ASM                   M IMCTM S0FR05 FTTL  07070IMCT  S0 PTB  00003                    2030 SR        000000000000 FUJITSU TEN (THAILAN15013FU0053053                                                                                                                              *          20160509IMF1605095.TXT
MDEDG5238320201605                D89805293700PV4D20160512000030SPEAKER ASM                   M IMCTM S0FR05 FTTL  07070IMCT  S0 PTB  00003                    2300 SR        000000000000 FUJITSU TEN (THAILAN15033DU0011011                                                                                                                              *          20160509IMF1605095.TXT
MDEDG5238321201605                D89805293700PV4D20160513000060SPEAKER ASM                   M IMCTM S0FR05 FTTL  07070IMCT  S0 PTB  00003                    0800 SR        000000000000 FUJITSU TEN (THAILAN15022DU001301315055CU0009009                                                                                                                *          20160509IMF1605095.TXT
MDEDG5238322201605                D89805294000PT4D20160512000030SPEAKER ASM                   M IMCTM S9AFA25FTTL  07070IMCT  S9 PTB  00015                    2030 SR        000000000000 FUJITSU TEN (THAILAN15013FU0053053                                                                                                                              *          20160509IMF1605095.TXT
MDEDG5238323201605                D89805294000PT4D20160512000030SPEAKER ASM                   M IMCTM S9AFA25FTTL  07070IMCT  S9 PTB  00015                    2300 SR        000000000000 FUJITSU TEN (THAILAN15033DU0011011                                                                                                                              *          20160509IMF1605095.TXT
MDEDG5238324201605                D89805294200PT4D20160512000030SPEAKER ASM                   M IMCTM S9AFA25FTTL  07070IMCT  S9 PTB  00030                    2030 SR        000000000000 FUJITSU TEN (THAILAN15013FU0053053                                                                                                                              *          20160509IMF1605095.TXT
MDEDG5238325201605                D89805294200PT4D20160512000030SPEAKER ASM                   M IMCTM S9AFA25FTTL  07070IMCT  S9 PTB  00030                    2300 SR        000000000000 FUJITSU TEN (THAILAN15033DU0011011                                                                                                                              *          20160509IMF1605095.TXT
MDEDG5238326201605                D89806470400PT4D20160512000015SPEAKER ASM;RDO,              M IMCTM S0TL03 FTTL  07070IMCT  S0 PTB  00015                    2030 SR        000000000000 FUJITSU TEN (THAILAN15013FU0053053                                                                                                                              *          20160509IMF1605095.TXT
MDEDG5238327201605                D89806470400PT4D20160512000015SPEAKER ASM;RDO,              M IMCTM S0TL03 FTTL  07070IMCT  S0 PTB  00015                    2300 SR        000000000000 FUJITSU TEN (THAILAN15033DU0011011                                                                                                                              *          20160509IMF1605095.TXT
MDEDG5238328201605                D89828070100PV1D20160513000060SPEAKER ASM                   M IMCTM S5MA12 FTTL  07070IMCT  S5 PTB  00004                    1000 SR        000000000000 FUJITSU TEN (THAILAN16060HL0001002                                                                                                                              *          20160509IMF1605095.TXT
MDEDG5238329201605                D89828070100PV4D20160513000030SPEAKER ASM                   M IMCTM S0FL05 FTTL  07070IMCT  S0 PTB  00004                    1510 SR        000000000000 FUJITSU TEN (THAILAN16014KU0002002                                                                                                                              *          20160509IMF1605095.TXT
MDEDG5238330201605                D89828070100PV4D20160513000030SPEAKER ASM                   M IMCTM S0FL05 FTTL  07070IMCT  S0 PTB  00004                    2030 SR        000000000000 FUJITSU TEN (THAILAN16080JU0003003                                                                                                                              *          20160509IMF1605095.TXT
MDEDG5238331201605                D89828070200PV4D20160513000030SPEAKER ASM                   M IMCTM S0FR05 FTTL  07070IMCT  S0 PTB  00005                    1510 SR        000000000000 FUJITSU TEN (THAILAN16014KU0002002                                                                                                                              *          20160509IMF1605095.TXT
MDEDG5238332201605                D89828070300PT1D20160513000060SPEAKER ASM                   M IMCTM S5NB042FTTL  07070IMCT  S5 PTB  00015                    1000 SR        000000000000 FUJITSU TEN (THAILAN16060HL0001002                                                                                                                              *          20160509IMF1605095.TXT
MDEDG5238333201605                D89828070300PT4D20160513000030SPEAKER ASM                   M IMCTM S9TS02 FTTL  07070IMCT  S9 PTB  00015                    1510 SR        000000000000 FUJITSU TEN (THAILAN16014KU0002002                                                                                                                              *          20160509IMF1605095.TXT
MDEDG5238334201605                D89829645400PT4D20160513000015RADIO;ASM DVD                 M IMCTM S9CO001FTTL  07070IMCT  S9 PTB  00003                    1510 SR        000000000000 FUJITSU TEN (THAILAN16014KU0002002                                                                                                                              *          20160509IMF1605095.TXT
MDEUG5217675201605                D89828070100PT4U20160513000030SPEAKER ASM                   M IMCTM S0FL05 FTTL  07070IMCT  S0 PTB  00004                    0310 SR        000000000000 FUJITSU TEN (THAILAN160B48U0132132                                                                                                                              *          20160509IMF1605095.TXT
MDEUG5217676201605                D89828070100PT4U20160513000030SPEAKER ASM                   M IMCTM S0FL05 FTTL  07070IMCT  S0 PTB  00004                    0800 SR        000000000000 FUJITSU TEN (THAILAN160B37U0007007                                                                                                                              *          20160509IMF1605095.TXT
MDEUG5217677201605                D89828070100PT4U20160513000030SPEAKER ASM                   M IMCTM S0FL05 FTTL  07070IMCT  S0 PTB  00004                    1100 SR        000000000000 FUJITSU TEN (THAILAN160B41U0010010                                                                                                                              *          20160509IMF1605095.TXT
MDEUG5217678201605                D89828070100PT4U20160513000030SPEAKER ASM                   M IMCTM S0FL05 FTTL  07070IMCT  S0 PTB  00004                    2030 SR        000000000000 FUJITSU TEN (THAILAN160B42U0013013                                                                                                                              *          20160509IMF1605095.TXT
MDEUG5217679201605                D89828070200PV4U20160513000030SPEAKER ASM                   M IMCTM S0FR05 FTTL  07070IMCT  S0 PTB  00005                    0310 SR        000000000000 FUJITSU TEN (THAILAN160B48U0132132                                                                                                                              *          20160509IMF1605095.TXT
MDEUG5217680201605                D89828070200PV4U20160513000030SPEAKER ASM                   M IMCTM S0FR05 FTTL  07070IMCT  S0 PTB  00005                    0800 SR        000000000000 FUJITSU TEN (THAILAN160B37U0007007                                                                                                                              *          20160509IMF1605095.TXT
MDEUG5217681201605                D89828070200PV4U20160513000030SPEAKER ASM                   M IMCTM S0FR05 FTTL  07070IMCT  S0 PTB  00005                    1100 SR        000000000000 FUJITSU TEN (THAILAN160B41U0010010                                                                                                                              *          20160509IMF1605095.TXT
MDEUG5217682201605                D89828070200PV4U20160513000030SPEAKER ASM                   M IMCTM S0FR05 FTTL  07070IMCT  S0 PTB  00005                    2030 SR        000000000000 FUJITSU TEN (THAILAN160B42U0013013                                                                                                                              *          20160509IMF1605095.TXT
MDEUG5217683201605                D89828070300PT4U20160513000030SPEAKER ASM                   M IMCTM S9TS02 FTTL  07070IMCT  S9 PTB  00015                    0310 SR        000000000000 FUJITSU TEN (THAILAN160B48U0132132                                                                                                                              *          20160509IMF1605095.TXT
MDEUG5217684201605                D89828070300PT4U20160513000030SPEAKER ASM                   M IMCTM S9TS02 FTTL  07070IMCT  S9 PTB  00015                    0800 SR        000000000000 FUJITSU TEN (THAILAN160B37U0007007                                                                                                                              *          20160509IMF1605095.TXT
MDEUG5217685201605                D89828070300PT4U20160513000030SPEAKER ASM                   M IMCTM S9TS02 FTTL  07070IMCT  S9 PTB  00015                    1100 SR        000000000000 FUJITSU TEN (THAILAN160B41U0010010                                                                                                                              *          20160509IMF1605095.TXT
MDEUG5217686201605                D89828070300PT4U20160513000030SPEAKER ASM                   M IMCTM S9TS02 FTTL  07070IMCT  S9 PTB  00015                    2030 SR        000000000000 FUJITSU TEN (THAILAN160B42U0013013                                                                                                                              *          20160509IMF1605095.TXT
