REC2016051720160517ISUZU                              69     
MDDDG5269281201605                D89821984430PT1D20160524000060RADIO;AM/FM,CD                M IMCTM S5NC06 FTTL  07070IMCT  S5 PTB  00005                    1000 SR        000000000000 FUJITSU TEN (THAILAN160JXAL0140140160JYPL0082082                                                                                                                *          20160517IMF1605174.TXT
MDDDG5269282201605                D89828070100PV1D20160523000060SPEAKER ASM                   M IMCTM S5MA12 FTTL  07070IMCT  S5 PTB  00004                    2230 SR        000000000000 FUJITSU TEN (THAILAN160JZDL0018018                                                                                                                              *          20160517IMF1605174.TXT
MDDDG5269283201605                D89828070100PV1D20160524000120SPEAKER ASM                   M IMCTM S5MA12 FTTL  07070IMCT  S5 PTB  00004                    0310 SR        000000000000 FUJITSU TEN (THAILAN160JXCL0052052160JYSL0090090                                                                                                                *          20160517IMF1605174.TXT
MDDDG5269284201605                D89828070100PV1D20160524000120SPEAKER ASM                   M IMCTM S5MA12 FTTL  07070IMCT  S5 PTB  00004                    1000 SR        000000000000 FUJITSU TEN (THAILAN160JYCL0026026160JZEL0005005                                                                                                                *          20160517IMF1605174.TXT
MDDDG5269285201605                D89828070100PV1D20160524000300SPEAKER ASM                   M IMCTM S5MA12 FTTL  07070IMCT  S5 PTB  00004                    1510 SR        000000000000 FUJITSU TEN (THAILAN160JXAL0140140160JYPL0082082160JYQL0031031160JYSL0091091160JZHL0048048                                                                      *          20160517IMF1605174.TXT
MDDDG5269286201605                D89828070100PV1D20160524000060SPEAKER ASM                   M IMCTM S5MA12 FTTL  07070IMCT  S5 PTB  00004                    2230 SR        000000000000 FUJITSU TEN (THAILAN160JZFL0106106                                                                                                                              *          20160517IMF1605174.TXT
MDDDG5269287201605                D89828070100PV4D20160524000060SPEAKER ASM                   M IMCTM S0FL05 FTTL  07070IMCT  S0 PTB  00004                    2030 SR        000000000000 FUJITSU TEN (THAILAN160JZFU0006006                                                                                                                              *          20160517IMF1605174.TXT
MDDDG5269288201605                D89828070200PV1D20160523000060SPEAKER ASM                   M IMCTM S5MA13 FTTL  07070IMCT  S5 PTB  00005                    2230 SR        000000000000 FUJITSU TEN (THAILAN160JZDL0018018                                                                                                                              *          20160517IMF1605174.TXT
MDDDG5269289201605                D89828070200PV1D20160524000060SPEAKER ASM                   M IMCTM S5MA13 FTTL  07070IMCT  S5 PTB  00005                    1000 SR        000000000000 FUJITSU TEN (THAILAN160JZEL0005005                                                                                                                              *          20160517IMF1605174.TXT
MDDDG5269290201605                D89828070200PV1D20160524000060SPEAKER ASM                   M IMCTM S5MA13 FTTL  07070IMCT  S5 PTB  00005                    1510 SR        000000000000 FUJITSU TEN (THAILAN160JZHL0048048                                                                                                                              *          20160517IMF1605174.TXT
MDDDG5269291201605                D89828070200PV1D20160524000060SPEAKER ASM                   M IMCTM S5MA13 FTTL  07070IMCT  S5 PTB  00005                    2230 SR        000000000000 FUJITSU TEN (THAILAN160JZFL0106106                                                                                                                              *          20160517IMF1605174.TXT
MDDDG5269292201605                D89828070200PV4D20160524000060SPEAKER ASM                   M IMCTM S0FR05 FTTL  07070IMCT  S0 PTB  00005                    2030 SR        000000000000 FUJITSU TEN (THAILAN160JZFU0006006                                                                                                                              *          20160517IMF1605174.TXT
MDDDG5269293201605                D89828070300PT1D20160523000060SPEAKER ASM                   M IMCTM S5NB042FTTL  07070IMCT  S5 PTB  00015                    2230 SR        000000000000 FUJITSU TEN (THAILAN160JZDL0018018                                                                                                                              *          20160517IMF1605174.TXT
MDDDG5269294201605                D89828070300PT1D20160524000060SPEAKER ASM                   M IMCTM S5NB042FTTL  07070IMCT  S5 PTB  00015                    0310 SR        000000000000 FUJITSU TEN (THAILAN160JYSL0090090                                                                                                                              *          20160517IMF1605174.TXT
MDDDG5269295201605                D89828070300PT1D20160524000120SPEAKER ASM                   M IMCTM S5NB042FTTL  07070IMCT  S5 PTB  00015                    1000 SR        000000000000 FUJITSU TEN (THAILAN160JYCL0026026160JZEL0005005                                                                                                                *          20160517IMF1605174.TXT
MDDDG5269296201605                D89828070300PT1D20160524000180SPEAKER ASM                   M IMCTM S5NB042FTTL  07070IMCT  S5 PTB  00015                    1510 SR        000000000000 FUJITSU TEN (THAILAN160JYQL0031031160JYSL0091091160JZHL0048048                                                                                                  *          20160517IMF1605174.TXT
MDDDG5269297201605                D89828070300PT1D20160524000060SPEAKER ASM                   M IMCTM S5NB042FTTL  07070IMCT  S5 PTB  00015                    2230 SR        000000000000 FUJITSU TEN (THAILAN160JZFL0106106                                                                                                                              *          20160517IMF1605174.TXT
MDDDG5269298201605                D89828070300PT4D20160524000060SPEAKER ASM                   M IMCTM S9TS02 FTTL  07070IMCT  S9 PTB  00015                    2030 SR        000000000000 FUJITSU TEN (THAILAN160JZFU0006006                                                                                                                              *          20160517IMF1605174.TXT
MDDDG5269299201605                D89829645900PT1D20160524000030RADIO;ASM DVD                 M IMCTM S5NC06 FTTL  07070IMCT  S5 CPB  00003                    1510 SR        000000000000 FUJITSU TEN (THAILAN160JZFL0106106                                                                                                                              *          20160517IMF1605174.TXT
MDDDG5269300201605                D89829645900PT4D20160524000030RADIO;ASM DVD                 M IMCTM S9CO011FTTL  07070IMCT  S9 CPB  00003                    2030 SR        000000000000 FUJITSU TEN (THAILAN160JZFU0006006                                                                                                                              *          20160517IMF1605174.TXT
MDDDG5269301201605                D89831228300PT1D20160523000030RADIO;AM/FM,CD                M IMCTM S5NC06 FTTL  07070IMCT  S5 CPB  00003                    2230 SR        000000000000 FUJITSU TEN (THAILAN160JYSL0090090                                                                                                                              *          20160517IMF1605174.TXT
MDDDG5269302201605                D89831228300PT1D20160524000030RADIO;AM/FM,CD                M IMCTM S5NC06 FTTL  07070IMCT  S5 CPB  00003                    0310 SR        000000000000 FUJITSU TEN (THAILAN160JYCL0026026                                                                                                                              *          20160517IMF1605174.TXT
MDDDG5269303201605                D89831228300PT1D20160524000060RADIO;AM/FM,CD                M IMCTM S5NC06 FTTL  07070IMCT  S5 CPB  00003                    1510 SR        000000000000 FUJITSU TEN (THAILAN160JYQL0031031160JYSL0091091                                                                                                                *          20160517IMF1605174.TXT
MDDDG5269304201605                D89831228400PT1D20160523000030RADIO;AM/FM,CD                M IMCTM S5NC06 FTTL  07070IMCT  S5 CPB  00003                    2230 SR        000000000000 FUJITSU TEN (THAILAN160JZDL0018018                                                                                                                              *          20160517IMF1605174.TXT
MDDDG5269305201605                D89831228400PT1D20160524000030RADIO;AM/FM,CD                M IMCTM S5NC06 FTTL  07070IMCT  S5 CPB  00003                    0310 SR        000000000000 FUJITSU TEN (THAILAN160JZEL0005005                                                                                                                              *          20160517IMF1605174.TXT
MDDUG5228072201605                D89828070100PT4U20160524000030SPEAKER ASM                   M IMCTM S0FL05 FTTL  07070IMCT  S0 PTB  00004                    1510 SR        000000000000 FUJITSU TEN (THAILAN160JURU0020020                                                                                                                              *          20160517IMF1605174.TXT
MDDUG5228073201605                D89828070200PV4U20160524000030SPEAKER ASM                   M IMCTM S0FR05 FTTL  07070IMCT  S0 PTB  00005                    1510 SR        000000000000 FUJITSU TEN (THAILAN160JURU0020020                                                                                                                              *          20160517IMF1605174.TXT
MDDUG5228074201605                D89828070300PT4U20160524000030SPEAKER ASM                   M IMCTM S9TS02 FTTL  07070IMCT  S9 PTB  00015                    1510 SR        000000000000 FUJITSU TEN (THAILAN160JURU0020020                                                                                                                              *          20160517IMF1605174.TXT
MDDUG5228075201605                D89829093500PT4U20160524000015RADIO;ASM DVD (T              M IMCTM S9CO001FTTL  07070IMCT  S9 PTB  00003                    1510 SR        000000000000 FUJITSU TEN (THAILAN160JURU0020020                                                                                                                              *          20160517IMF1605174.TXT
MDEDG5283022201605                D89828070100PV1D20160524000090SPEAKER ASM                   M IMCTM S5MA12 FTTL  07070IMCT  S5 PTB  00004                    0310 SR        000000000000 FUJITSU TEN (THAILAN16071HL000100216081HL0069069                                                                                                                *          20160517IMF1605174.TXT
MDEDG5283023201605                D89828070100PV1D20160524000030SPEAKER ASM                   M IMCTM S5MA12 FTTL  07070IMCT  S5 PTB  00004                    1000 SR        000000000000 FUJITSU TEN (THAILAN16003JL0017017                                                                                                                              *          20160517IMF1605174.TXT
MDEDG5283024201605                D89828070100PV4D20160523000030SPEAKER ASM                   M IMCTM S0FL05 FTTL  07070IMCT  S0 PTB  00004                    2030 SR        000000000000 FUJITSU TEN (THAILAN16073HU0001001                                                                                                                              *          20160517IMF1605174.TXT
MDEDG5283025201605                D89828070100PV4D20160523000030SPEAKER ASM                   M IMCTM S0FL05 FTTL  07070IMCT  S0 PTB  00004                    2300 SR        000000000000 FUJITSU TEN (THAILAN16066HU0010010                                                                                                                              *          20160517IMF1605174.TXT
MDEDG5283026201605                D89828070100PV4D20160524000030SPEAKER ASM                   M IMCTM S0FL05 FTTL  07070IMCT  S0 PTB  00004                    0310 SR        000000000000 FUJITSU TEN (THAILAN16071HU0005005                                                                                                                              *          20160517IMF1605174.TXT
MDEDG5283027201605                D89828070100PV4D20160524000030SPEAKER ASM                   M IMCTM S0FL05 FTTL  07070IMCT  S0 PTB  00004                    0800 SR        000000000000 FUJITSU TEN (THAILAN16049HU0005005                                                                                                                              *          20160517IMF1605174.TXT
MDEDG5283028201605                D89828070100PV4D20160524000030SPEAKER ASM                   M IMCTM S0FL05 FTTL  07070IMCT  S0 PTB  00004                    1100 SR        000000000000 FUJITSU TEN (THAILAN16064HU0006006                                                                                                                              *          20160517IMF1605174.TXT
MDEDG5283029201605                D89828070100PV4D20160524000060SPEAKER ASM                   M IMCTM S0FL05 FTTL  07070IMCT  S0 PTB  00004                    1510 SR        000000000000 FUJITSU TEN (THAILAN16045HU000400416072HU0011011                                                                                                                *          20160517IMF1605174.TXT
MDEDG5283030201605                D89828070200PV1D20160524000060SPEAKER ASM                   M IMCTM S5MA13 FTTL  07070IMCT  S5 PTB  00005                    0310 SR        000000000000 FUJITSU TEN (THAILAN16071HL0001002                                                                                                                              *          20160517IMF1605174.TXT
MDEDG5283031201605                D89828070200PV4D20160523000030SPEAKER ASM                   M IMCTM S0FR05 FTTL  07070IMCT  S0 PTB  00005                    2030 SR        000000000000 FUJITSU TEN (THAILAN16073HU0001001                                                                                                                              *          20160517IMF1605174.TXT
MDEDG5283032201605                D89828070200PV4D20160523000030SPEAKER ASM                   M IMCTM S0FR05 FTTL  07070IMCT  S0 PTB  00005                    2300 SR        000000000000 FUJITSU TEN (THAILAN16066HU0010010                                                                                                                              *          20160517IMF1605174.TXT
MDEDG5283033201605                D89828070200PV4D20160524000030SPEAKER ASM                   M IMCTM S0FR05 FTTL  07070IMCT  S0 PTB  00005                    0310 SR        000000000000 FUJITSU TEN (THAILAN16071HU0005005                                                                                                                              *          20160517IMF1605174.TXT
MDEDG5283034201605                D89828070200PV4D20160524000030SPEAKER ASM                   M IMCTM S0FR05 FTTL  07070IMCT  S0 PTB  00005                    0800 SR        000000000000 FUJITSU TEN (THAILAN16049HU0005005                                                                                                                              *          20160517IMF1605174.TXT
MDEDG5283035201605                D89828070200PV4D20160524000030SPEAKER ASM                   M IMCTM S0FR05 FTTL  07070IMCT  S0 PTB  00005                    1100 SR        000000000000 FUJITSU TEN (THAILAN16064HU0006006                                                                                                                              *          20160517IMF1605174.TXT
MDEDG5283036201605                D89828070200PV4D20160524000030SPEAKER ASM                   M IMCTM S0FR05 FTTL  07070IMCT  S0 PTB  00005                    1510 SR        000000000000 FUJITSU TEN (THAILAN16072HU0011011                                                                                                                              *          20160517IMF1605174.TXT
MDEDG5283037201605                D89828070300PT1D20160524000060SPEAKER ASM                   M IMCTM S5NB042FTTL  07070IMCT  S5 PTB  00015                    0310 SR        000000000000 FUJITSU TEN (THAILAN16071HL0001002                                                                                                                              *          20160517IMF1605174.TXT
MDEDG5283038201605                D89828070300PT4D20160523000030SPEAKER ASM                   M IMCTM S9TS02 FTTL  07070IMCT  S9 PTB  00015                    2030 SR        000000000000 FUJITSU TEN (THAILAN16073HU0001001                                                                                                                              *          20160517IMF1605174.TXT
MDEDG5283039201605                D89828070300PT4D20160523000030SPEAKER ASM                   M IMCTM S9TS02 FTTL  07070IMCT  S9 PTB  00015                    2300 SR        000000000000 FUJITSU TEN (THAILAN16066HU0010010                                                                                                                              *          20160517IMF1605174.TXT
MDEDG5283040201605                D89828070300PT4D20160524000030SPEAKER ASM                   M IMCTM S9TS02 FTTL  07070IMCT  S9 PTB  00015                    0310 SR        000000000000 FUJITSU TEN (THAILAN16071HU0005005                                                                                                                              *          20160517IMF1605174.TXT
MDEDG5283041201605                D89828070300PT4D20160524000030SPEAKER ASM                   M IMCTM S9TS02 FTTL  07070IMCT  S9 PTB  00015                    0800 SR        000000000000 FUJITSU TEN (THAILAN16049HU0005005                                                                                                                              *          20160517IMF1605174.TXT
MDEDG5283042201605                D89828070300PT4D20160524000030SPEAKER ASM                   M IMCTM S9TS02 FTTL  07070IMCT  S9 PTB  00015                    1100 SR        000000000000 FUJITSU TEN (THAILAN16064HU0006006                                                                                                                              *          20160517IMF1605174.TXT
MDEDG5283043201605                D89828070300PT4D20160524000060SPEAKER ASM                   M IMCTM S9TS02 FTTL  07070IMCT  S9 PTB  00015                    1510 SR        000000000000 FUJITSU TEN (THAILAN16045HU000400416072HU0011011                                                                                                                *          20160517IMF1605174.TXT
MDEDG5283044201605                D89831228600PT1D20160524000030RADIO;AM/FM,CD                M IMCTM S5NC06 FTTL  07070IMCT  S5 PTB  00003                    0310 SR        000000000000 FUJITSU TEN (THAILAN16071HL0001002                                                                                                                              *          20160517IMF1605174.TXT
MDEDG5283045201605                D89831228600PT4D20160523000015RADIO;AM/FM,CD                M IMCTM S9CO001FTTL  07070IMCT  S9 PTB  00003                    2300 SR        000000000000 FUJITSU TEN (THAILAN16066HU0010010                                                                                                                              *          20160517IMF1605174.TXT
MDEDG5283046201605                D89831228600PT4D20160524000015RADIO;AM/FM,CD                M IMCTM S9CO001FTTL  07070IMCT  S9 PTB  00003                    0310 SR        000000000000 FUJITSU TEN (THAILAN16071HU0005005                                                                                                                              *          20160517IMF1605174.TXT
MDEDG5283047201605                D89831228600PT4D20160524000015RADIO;AM/FM,CD                M IMCTM S9CO001FTTL  07070IMCT  S9 PTB  00003                    0800 SR        000000000000 FUJITSU TEN (THAILAN16049HU0005005                                                                                                                              *          20160517IMF1605174.TXT
MDEDG5283048201605                D89831228600PT4D20160524000015RADIO;AM/FM,CD                M IMCTM S9CO001FTTL  07070IMCT  S9 PTB  00003                    1100 SR        000000000000 FUJITSU TEN (THAILAN16064HU0006006                                                                                                                              *          20160517IMF1605174.TXT
MDEDG5283049201605                D89831228600PT4D20160524000015RADIO;AM/FM,CD                M IMCTM S9CO001FTTL  07070IMCT  S9 PTB  00003                    1510 SR        000000000000 FUJITSU TEN (THAILAN16045HU0004004                                                                                                                              *          20160517IMF1605174.TXT
MDEUG5242519201605                D89828070100PT4U20160523000060SPEAKER ASM                   M IMCTM S0FL05 FTTL  07070IMCT  S0 PTB  00004                    2300 SR        000000000000 FUJITSU TEN (THAILAN160B45U0009009160B48U0138138                                                                                                                *          20160517IMF1605174.TXT
MDEUG5242520201605                D89828070100PT4U20160524000030SPEAKER ASM                   M IMCTM S0FL05 FTTL  07070IMCT  S0 PTB  00004                    0310 SR        000000000000 FUJITSU TEN (THAILAN160B42U0024024                                                                                                                              *          20160517IMF1605174.TXT
MDEUG5242521201605                D89828070100PT4U20160524000030SPEAKER ASM                   M IMCTM S0FL05 FTTL  07070IMCT  S0 PTB  00004                    1100 SR        000000000000 FUJITSU TEN (THAILAN160B48U0139139                                                                                                                              *          20160517IMF1605174.TXT
MDEUG5242522201605                D89828070100PT4U20160524000060SPEAKER ASM                   M IMCTM S0FL05 FTTL  07070IMCT  S0 PTB  00004                    1510 SR        000000000000 FUJITSU TEN (THAILAN160B36U0007007160B41U0015015                                                                                                                *          20160517IMF1605174.TXT
MDEUG5242523201605                D89828070200PV4U20160523000060SPEAKER ASM                   M IMCTM S0FR05 FTTL  07070IMCT  S0 PTB  00005                    2300 SR        000000000000 FUJITSU TEN (THAILAN160B45U0009009160B48U0138138                                                                                                                *          20160517IMF1605174.TXT
MDEUG5242524201605                D89828070200PV4U20160524000030SPEAKER ASM                   M IMCTM S0FR05 FTTL  07070IMCT  S0 PTB  00005                    0310 SR        000000000000 FUJITSU TEN (THAILAN160B42U0024024                                                                                                                              *          20160517IMF1605174.TXT
MDEUG5242525201605                D89828070200PV4U20160524000030SPEAKER ASM                   M IMCTM S0FR05 FTTL  07070IMCT  S0 PTB  00005                    1100 SR        000000000000 FUJITSU TEN (THAILAN160B48U0139139                                                                                                                              *          20160517IMF1605174.TXT
MDEUG5242526201605                D89828070200PV4U20160524000060SPEAKER ASM                   M IMCTM S0FR05 FTTL  07070IMCT  S0 PTB  00005                    1510 SR        000000000000 FUJITSU TEN (THAILAN160B36U0007007160B41U0015015                                                                                                                *          20160517IMF1605174.TXT
MDEUG5242527201605                D89828070300PT4U20160523000060SPEAKER ASM                   M IMCTM S9TS02 FTTL  07070IMCT  S9 PTB  00015                    2300 SR        000000000000 FUJITSU TEN (THAILAN160B45U0009009160B48U0138138                                                                                                                *          20160517IMF1605174.TXT
MDEUG5242528201605                D89828070300PT4U20160524000030SPEAKER ASM                   M IMCTM S9TS02 FTTL  07070IMCT  S9 PTB  00015                    0310 SR        000000000000 FUJITSU TEN (THAILAN160B42U0024024                                                                                                                              *          20160517IMF1605174.TXT
MDEUG5242529201605                D89828070300PT4U20160524000030SPEAKER ASM                   M IMCTM S9TS02 FTTL  07070IMCT  S9 PTB  00015                    1100 SR        000000000000 FUJITSU TEN (THAILAN160B48U0139139                                                                                                                              *          20160517IMF1605174.TXT
MDEUG5242530201605                D89828070300PT4U20160524000060SPEAKER ASM                   M IMCTM S9TS02 FTTL  07070IMCT  S9 PTB  00015                    1510 SR        000000000000 FUJITSU TEN (THAILAN160B36U0007007160B41U0015015                                                                                                                *          20160517IMF1605174.TXT
