REC2016052720160527ISUZU                              55     
MDDDG5307627201606                D89821984430PT1D20160601000030RADIO;AM/FM,CD                M IMCTM S5NC06 FTTL  07070IMCT  S5 PTB  00005                    0310 SR        000000000000 FUJITSU TEN (THAILAN160JNGL0053053                                                                                                                              *          20160527IMF1605276.TXT
MDDDG5307628201606                D89821984430PT1D20160601000030RADIO;AM/FM,CD                M IMCTM S5NC06 FTTL  07070IMCT  S5 PTB  00005                    1000 SR        000000000000 FUJITSU TEN (THAILAN160JZSL0029029                                                                                                                              *          20160527IMF1605276.TXT
MDDDG5307629201606                D89828070100PV1D20160531000060SPEAKER ASM                   M IMCTM S5MA12 FTTL  07070IMCT  S5 PTB  00004                    2230 SR        000000000000 FUJITSU TEN (THAILAN160JYSL0098098                                                                                                                              *          20160527IMF1605276.TXT
MDDDG5307630201606                D89828070100PV1D20160601000060SPEAKER ASM                   M IMCTM S5MA12 FTTL  07070IMCT  S5 PTB  00004                    0310 SR        000000000000 FUJITSU TEN (THAILAN160JYEL0033033                                                                                                                              *          20160527IMF1605276.TXT
MDDDG5307631201606                D89828070100PV1D20160601000120SPEAKER ASM                   M IMCTM S5MA12 FTTL  07070IMCT  S5 PTB  00004                    1000 SR        000000000000 FUJITSU TEN (THAILAN160JNGL0053053160JZBL0007007                                                                                                                *          20160527IMF1605276.TXT
MDDDG5307632201606                D89828070100PV1D20160601000180SPEAKER ASM                   M IMCTM S5MA12 FTTL  07070IMCT  S5 PTB  00004                    1510 SR        000000000000 FUJITSU TEN (THAILAN160JXCL0055055160JZHL0053053160JZSL0029029                                                                                                  *          20160527IMF1605276.TXT
MDDDG5307633201606                D89828070100PV4D20160601000060SPEAKER ASM                   M IMCTM S0FL05 FTTL  07070IMCT  S0 PTB  00004                    1100 SR        000000000000 FUJITSU TEN (THAILAN160JZFU0007007                                                                                                                              *          20160527IMF1605276.TXT
MDDDG5307634201606                D89828070200PV1D20160601000060SPEAKER ASM                   M IMCTM S5MA13 FTTL  07070IMCT  S5 PTB  00005                    1000 SR        000000000000 FUJITSU TEN (THAILAN160JZBL0007007                                                                                                                              *          20160527IMF1605276.TXT
MDDDG5307635201606                D89828070200PV1D20160601000060SPEAKER ASM                   M IMCTM S5MA13 FTTL  07070IMCT  S5 PTB  00005                    1510 SR        000000000000 FUJITSU TEN (THAILAN160JZHL0053053                                                                                                                              *          20160527IMF1605276.TXT
MDDDG5307636201606                D89828070200PV4D20160601000060SPEAKER ASM                   M IMCTM S0FR05 FTTL  07070IMCT  S0 PTB  00005                    1100 SR        000000000000 FUJITSU TEN (THAILAN160JZFU0007007                                                                                                                              *          20160527IMF1605276.TXT
MDDDG5307637201606                D89828070300PT1D20160531000060SPEAKER ASM                   M IMCTM S5NB042FTTL  07070IMCT  S5 PTB  00015                    2230 SR        000000000000 FUJITSU TEN (THAILAN160JYSL0098098                                                                                                                              *          20160527IMF1605276.TXT
MDDDG5307638201606                D89828070300PT1D20160601000060SPEAKER ASM                   M IMCTM S5NB042FTTL  07070IMCT  S5 PTB  00015                    0310 SR        000000000000 FUJITSU TEN (THAILAN160JYEL0033033                                                                                                                              *          20160527IMF1605276.TXT
MDDDG5307639201606                D89828070300PT1D20160601000060SPEAKER ASM                   M IMCTM S5NB042FTTL  07070IMCT  S5 PTB  00015                    1000 SR        000000000000 FUJITSU TEN (THAILAN160JZBL0007007                                                                                                                              *          20160527IMF1605276.TXT
MDDDG5307640201606                D89828070300PT1D20160601000060SPEAKER ASM                   M IMCTM S5NB042FTTL  07070IMCT  S5 PTB  00015                    1510 SR        000000000000 FUJITSU TEN (THAILAN160JZHL0053053                                                                                                                              *          20160527IMF1605276.TXT
MDDDG5307641201606                D89828070300PT4D20160601000060SPEAKER ASM                   M IMCTM S9TS02 FTTL  07070IMCT  S9 PTB  00015                    1100 SR        000000000000 FUJITSU TEN (THAILAN160JZFU0007007                                                                                                                              *          20160527IMF1605276.TXT
MDDDG5307642201606                D89829645900PT4D20160601000030RADIO;ASM DVD                 M IMCTM S9CO011FTTL  07070IMCT  S9 CPB  00003                    1100 SR        000000000000 FUJITSU TEN (THAILAN160JZFU0007007                                                                                                                              *          20160527IMF1605276.TXT
MDDDG5307643201606                D89831228300PT1D20160531000060RADIO;AM/FM,CD                M IMCTM S5NC06 FTTL  07070IMCT  S5 CPB  00003                    2230 SR        000000000000 FUJITSU TEN (THAILAN160JYEL0033033160JYSL0098098                                                                                                                *          20160527IMF1605276.TXT
MDDDG5307644201606                D89831228400PT1D20160601000030RADIO;AM/FM,CD                M IMCTM S5NC06 FTTL  07070IMCT  S5 CPB  00003                    0310 SR        000000000000 FUJITSU TEN (THAILAN160JZBL0007007                                                                                                                              *          20160527IMF1605276.TXT
MDEDG5326980201606                D89828070100PV1D20160601000120SPEAKER ASM                   M IMCTM S5MA12 FTTL  07070IMCT  S5 PTB  00004                    0310 SR        000000000000 FUJITSU TEN (THAILAN16056HL000100216082KL0005006                                                                                                                *          20160527IMF1605276.TXT
MDEDG5326981201606                D89828070100PV1D20160601000030SPEAKER ASM                   M IMCTM S5MA12 FTTL  07070IMCT  S5 PTB  00004                    1000 SR        000000000000 FUJITSU TEN (THAILAN16060HL0003003                                                                                                                              *          20160527IMF1605276.TXT
MDEDG5326982201606                D89828070100PV1D20160601000030SPEAKER ASM                   M IMCTM S5MA12 FTTL  07070IMCT  S5 PTB  00004                    1510 SR        000000000000 FUJITSU TEN (THAILAN16060HL0004004                                                                                                                              *          20160527IMF1605276.TXT
MDEDG5326983201606                D89828070100PV1D20160601000060SPEAKER ASM                   M IMCTM S5MA12 FTTL  07070IMCT  S5 PTB  00004                    2230 SR        000000000000 FUJITSU TEN (THAILAN16044JL000200216081HL0075075                                                                                                                *          20160527IMF1605276.TXT
MDEDG5326984201606                D89828070100PV4D20160531000030SPEAKER ASM                   M IMCTM S0FL05 FTTL  07070IMCT  S0 PTB  00004                    2300 SR        000000000000 FUJITSU TEN (THAILAN16064HU0011011                                                                                                                              *          20160527IMF1605276.TXT
MDEDG5326985201606                D89828070100PV4D20160601000030SPEAKER ASM                   M IMCTM S0FL05 FTTL  07070IMCT  S0 PTB  00004                    0310 SR        000000000000 FUJITSU TEN (THAILAN16055HU0003003                                                                                                                              *          20160527IMF1605276.TXT
MDEDG5326986201606                D89828070200PV1D20160601000030SPEAKER ASM                   M IMCTM S5MA13 FTTL  07070IMCT  S5 PTB  00005                    2230 SR        000000000000 FUJITSU TEN (THAILAN16044JL0002002                                                                                                                              *          20160527IMF1605276.TXT
MDEDG5326987201606                D89828070200PV4D20160531000030SPEAKER ASM                   M IMCTM S0FR05 FTTL  07070IMCT  S0 PTB  00005                    2300 SR        000000000000 FUJITSU TEN (THAILAN16064HU0011011                                                                                                                              *          20160527IMF1605276.TXT
MDEDG5326988201606                D89828070300PT1D20160601000060SPEAKER ASM                   M IMCTM S5NB042FTTL  07070IMCT  S5 PTB  00015                    0310 SR        000000000000 FUJITSU TEN (THAILAN16056HL0001002                                                                                                                              *          20160527IMF1605276.TXT
MDEDG5326989201606                D89828070300PT1D20160601000030SPEAKER ASM                   M IMCTM S5NB042FTTL  07070IMCT  S5 PTB  00015                    1000 SR        000000000000 FUJITSU TEN (THAILAN16060HL0003003                                                                                                                              *          20160527IMF1605276.TXT
MDEDG5326990201606                D89828070300PT1D20160601000030SPEAKER ASM                   M IMCTM S5NB042FTTL  07070IMCT  S5 PTB  00015                    1510 SR        000000000000 FUJITSU TEN (THAILAN16060HL0004004                                                                                                                              *          20160527IMF1605276.TXT
MDEDG5326991201606                D89828070300PT1D20160601000030SPEAKER ASM                   M IMCTM S5NB042FTTL  07070IMCT  S5 PTB  00015                    2230 SR        000000000000 FUJITSU TEN (THAILAN16044JL0002002                                                                                                                              *          20160527IMF1605276.TXT
MDEDG5326992201606                D89828070300PT4D20160531000030SPEAKER ASM                   M IMCTM S9TS02 FTTL  07070IMCT  S9 PTB  00015                    2300 SR        000000000000 FUJITSU TEN (THAILAN16064HU0011011                                                                                                                              *          20160527IMF1605276.TXT
MDEDG5326993201606                D89828070300PT4D20160601000030SPEAKER ASM                   M IMCTM S9TS02 FTTL  07070IMCT  S9 PTB  00015                    0310 SR        000000000000 FUJITSU TEN (THAILAN16055HU0003003                                                                                                                              *          20160527IMF1605276.TXT
MDEDG5326994201606                D89831228600PT1D20160531000030RADIO;AM/FM,CD                M IMCTM S5NC06 FTTL  07070IMCT  S5 PTB  00003                    2230 SR        000000000000 FUJITSU TEN (THAILAN16056HL0001002                                                                                                                              *          20160527IMF1605276.TXT
MDEDG5326995201606                D89831228600PT4D20160531000015RADIO;AM/FM,CD                M IMCTM S9CO001FTTL  07070IMCT  S9 PTB  00003                    2300 SR        000000000000 FUJITSU TEN (THAILAN16064HU0011011                                                                                                                              *          20160527IMF1605276.TXT
MDEDG5326996201606                D89831228600PT4D20160601000015RADIO;AM/FM,CD                M IMCTM S9CO001FTTL  07070IMCT  S9 PTB  00003                    0310 SR        000000000000 FUJITSU TEN (THAILAN16055HU0003003                                                                                                                              *          20160527IMF1605276.TXT
MDEDG5326997201606                D89831229200PT1D20160601000015RADIO;AM/FM,CD                M IMCTM S5NC06 FTTL  07070IMCT  S5 PTB  00003                    1510 SR        000000000000 FUJITSU TEN (THAILAN16044JL0002002                                                                                                                              *          20160527IMF1605276.TXT
MDEUG5267125201606                D89828070100PT4U20160531000030SPEAKER ASM                   M IMCTM S0FL05 FTTL  07070IMCT  S0 PTB  00004                    2030 SR        000000000000 FUJITSU TEN (THAILAN160B48U0144144                                                                                                                              *          20160527IMF1605276.TXT
MDEUG5267126201606                D89828070100PT4U20160531000030SPEAKER ASM                   M IMCTM S0FL05 FTTL  07070IMCT  S0 PTB  00004                    2300 SR        000000000000 FUJITSU TEN (THAILAN160B42U0032032                                                                                                                              *          20160527IMF1605276.TXT
MDEUG5267127201606                D89828070100PT4U20160601000030SPEAKER ASM                   M IMCTM S0FL05 FTTL  07070IMCT  S0 PTB  00004                    0310 SR        000000000000 FUJITSU TEN (THAILAN160B46U0051051                                                                                                                              *          20160527IMF1605276.TXT
MDEUG5267128201606                D89828070100PT4U20160601000030SPEAKER ASM                   M IMCTM S0FL05 FTTL  07070IMCT  S0 PTB  00004                    0800 SR        000000000000 FUJITSU TEN (THAILAN160B40U0006006                                                                                                                              *          20160527IMF1605276.TXT
MDEUG5267129201606                D89828070100PT4U20160601000030SPEAKER ASM                   M IMCTM S0FL05 FTTL  07070IMCT  S0 PTB  00004                    1100 SR        000000000000 FUJITSU TEN (THAILAN160B42U0033033                                                                                                                              *          20160527IMF1605276.TXT
MDEUG5267130201606                D89828070100PT4U20160601000030SPEAKER ASM                   M IMCTM S0FL05 FTTL  07070IMCT  S0 PTB  00004                    2030 SR        000000000000 FUJITSU TEN (THAILAN160B42U0034034                                                                                                                              *          20160527IMF1605276.TXT
MDEUG5267131201606                D89828070200PV4U20160531000030SPEAKER ASM                   M IMCTM S0FR05 FTTL  07070IMCT  S0 PTB  00005                    2030 SR        000000000000 FUJITSU TEN (THAILAN160B48U0144144                                                                                                                              *          20160527IMF1605276.TXT
MDEUG5267132201606                D89828070200PV4U20160531000030SPEAKER ASM                   M IMCTM S0FR05 FTTL  07070IMCT  S0 PTB  00005                    2300 SR        000000000000 FUJITSU TEN (THAILAN160B42U0032032                                                                                                                              *          20160527IMF1605276.TXT
MDEUG5267133201606                D89828070200PV4U20160601000030SPEAKER ASM                   M IMCTM S0FR05 FTTL  07070IMCT  S0 PTB  00005                    0310 SR        000000000000 FUJITSU TEN (THAILAN160B46U0051051                                                                                                                              *          20160527IMF1605276.TXT
MDEUG5267134201606                D89828070200PV4U20160601000030SPEAKER ASM                   M IMCTM S0FR05 FTTL  07070IMCT  S0 PTB  00005                    0800 SR        000000000000 FUJITSU TEN (THAILAN160B40U0006006                                                                                                                              *          20160527IMF1605276.TXT
MDEUG5267135201606                D89828070200PV4U20160601000030SPEAKER ASM                   M IMCTM S0FR05 FTTL  07070IMCT  S0 PTB  00005                    1100 SR        000000000000 FUJITSU TEN (THAILAN160B42U0033033                                                                                                                              *          20160527IMF1605276.TXT
MDEUG5267136201606                D89828070200PV4U20160601000030SPEAKER ASM                   M IMCTM S0FR05 FTTL  07070IMCT  S0 PTB  00005                    2030 SR        000000000000 FUJITSU TEN (THAILAN160B42U0034034                                                                                                                              *          20160527IMF1605276.TXT
MDEUG5267137201606                D89828070300PT4U20160531000030SPEAKER ASM                   M IMCTM S9TS02 FTTL  07070IMCT  S9 PTB  00015                    2030 SR        000000000000 FUJITSU TEN (THAILAN160B48U0144144                                                                                                                              *          20160527IMF1605276.TXT
MDEUG5267138201606                D89828070300PT4U20160531000030SPEAKER ASM                   M IMCTM S9TS02 FTTL  07070IMCT  S9 PTB  00015                    2300 SR        000000000000 FUJITSU TEN (THAILAN160B42U0032032                                                                                                                              *          20160527IMF1605276.TXT
MDEUG5267139201606                D89828070300PT4U20160601000030SPEAKER ASM                   M IMCTM S9TS02 FTTL  07070IMCT  S9 PTB  00015                    0310 SR        000000000000 FUJITSU TEN (THAILAN160B46U0051051                                                                                                                              *          20160527IMF1605276.TXT
MDEUG5267140201606                D89828070300PT4U20160601000030SPEAKER ASM                   M IMCTM S9TS02 FTTL  07070IMCT  S9 PTB  00015                    0800 SR        000000000000 FUJITSU TEN (THAILAN160B40U0006006                                                                                                                              *          20160527IMF1605276.TXT
MDEUG5267141201606                D89828070300PT4U20160601000030SPEAKER ASM                   M IMCTM S9TS02 FTTL  07070IMCT  S9 PTB  00015                    1100 SR        000000000000 FUJITSU TEN (THAILAN160B42U0033033                                                                                                                              *          20160527IMF1605276.TXT
MDEUG5267142201606                D89828070300PT4U20160601000030SPEAKER ASM                   M IMCTM S9TS02 FTTL  07070IMCT  S9 PTB  00015                    2030 SR        000000000000 FUJITSU TEN (THAILAN160B42U0034034                                                                                                                              *          20160527IMF1605276.TXT
MDEUG5267143201606                D89831228600PT4U20160601000015RADIO;AM/FM,CD                M IMCTM S9CO001FTTL  07070IMCT  S9 PTB  00003                    0800 SR        000000000000 FUJITSU TEN (THAILAN160B40U0006006                                                                                                                              *          20160527IMF1605276.TXT
