REC2016051020160510ISUZU                              11     
MDEFG5T07391201605                D89805293700PV4F20160513000009SPEAKER ASM                   M IMCTM S7FR05 FTTL  07070IMCT  S7 PTB  00003                    2300 SR        000000000000 FUJITSU TEN (THAILAN15029BR0107   15029BR0111   D160506911    D160506915    000000                                                                              *R         20160510RDF1605104.TXT
MDEFG5T07392201605                D89805294000PT4F20160513000010SPEAKER ASM                   M IMCTM S7TS02 FTTL  07070IMCT  S7 PTB  00015                    2300 SR        000000000000 FUJITSU TEN (THAILAN15029BR0107   15029BR0111   D160506911    D160506915    000000                                                                              *R         20160510RDF1605104.TXT
MDEFG5T07393201605                D89805294100PV4F20160513000010SPEAKER ASM                   M IMCTM S7FR05 FTTL  07070IMCT  S7 PTB  00005                    2300 SR        000000000000 FUJITSU TEN (THAILAN15029BR0107   15029BR0111   D160506911    D160506915    000000                                                                              *R         20160510RDF1605104.TXT
MDEFG5T07394201605                D89828070100PV4F20160513000020SPEAKER ASM                   M IMCTM S7FL05 FTTL  07070IMCT  S7 PTB  00004                    2300 SR        000000000000 FUJITSU TEN (THAILAN16004KR0007   16038KR0012   D160506901    D160506910    000000                                                                              *R         20160510RDF1605104.TXT
MDEFG5T07395201605                D89828070200PV4F20160513000020SPEAKER ASM                   M IMCTM S7TS02 FTTL  07070IMCT  S7 PTB  00005                    2300 SR        000000000000 FUJITSU TEN (THAILAN16004KR0007   16038KR0012   D160506901    D160506910    000000                                                                              *R         20160510RDF1605104.TXT
MDEFG5T07396201605                D89828070300PT4F20160513000020SPEAKER ASM                   M IMCTM S7TS02 FTTL  07070IMCT  S7 PTB  00015                    2300 SR        000000000000 FUJITSU TEN (THAILAN16004KR0007   16038KR0012   D160506901    D160506910    000000                                                                              *R         20160510RDF1605104.TXT
MDEFG5T07397201605                D89829645400PT4F20160513000003RADIO;ASM DVD                 M IMCTM S7TS03 FTTL  07070IMCT  S7 PTB  00003                    2300 SR        000000000000 FUJITSU TEN (THAILAN16038KR0010   16038KR0012   D160506906    D160506910    000000                                                                              *R         20160510RDF1605104.TXT
MDEFG5T07398201605                D89831229000PT4F20160513000007RADIO;AM/FM,CD                M IMCTM S7TS03 FTTL  07070IMCT  S7 PTB  00003                    2300 SR        000000000000 FUJITSU TEN (THAILAN16004KR0007   16034KR0016   D160506901    D160506909    000000                                                                              *R         20160510RDF1605104.TXT
MDEFG5218345201605                D89805293700PV4F20160513000015SPEAKER ASM                   M IMCTM S7FR05 FTTL  07070IMCT  S7 PTB  00003                    1100 SR        000000000000 FUJITSU TEN (THAILAN15029BR0107   15083CR0133   D160506911    S160506807    000000                                                                              *R         20160510RDF1605104.TXT
MDEFG5218346201605                D89828070100PV4F20160513000008SPEAKER ASM                   M IMCTM S7FL05 FTTL  07070IMCT  S7 PTB  00004                    1100 SR        000000000000 FUJITSU TEN (THAILAN16061JR0005   16061JR0008   S160506808    S160506811    000000                                                                              *R         20160510RDF1605104.TXT
MDEFG5218347201605                D89828070100PV4F20160513000008SPEAKER ASM                   M IMCTM S7FL05 FTTL  07070IMCT  S7 PTB  00004                    1510 SR        000000000000 FUJITSU TEN (THAILAN16061JR0009   16015KR0013   S160506812    S160506815    000000                                                                              *R         20160510RDF1605104.TXT
