REC2016053020160530ISUZU                              15     
MDEFG5T22202201606                D89805293700PV4F20160603000010SPEAKER ASM                   M IMCTM S7FR05 FTTL  07070IMCT  S7 PTB  00003                    1100 SR        000000000000 FUJITSU TEN (THAILAN15074CR0061   15074CR0065   R160600811    R160600815    000000                                                                              *R         20160530RDF1605304.TXT
MDEFG5T22203201606                D89805294000PT4F20160602000006SPEAKER ASM                   M IMCTM S7TS02 FTTL  07070IMCT  S7 PTB  00015                    2030 SR        000000000000 FUJITSU TEN (THAILAN15013DR0118   15014DR0131   F160600604    F160600608    000000                                                                              *R         20160530RDF1605304.TXT
MDEFG5T22204201606                D89805294200PT4F20160602000006SPEAKER ASM                   M IMCTM S7S137 FTTL  07070IMCT  S7 PTB  00030                    2030 SR        000000000000 FUJITSU TEN (THAILAN15013DR0118   15014DR0131   F160600604    F160600608    000000                                                                              *R         20160530RDF1605304.TXT
MDEFG5T22205201606                D89806470400PT4F20160602000003SPEAKER ASM;RDO,              M IMCTM S7TL03 FTTL  07070IMCT  S7 PTB  00015                    2030 SR        000000000000 FUJITSU TEN (THAILAN15013DR0118   15014DR0131   F160600604    F160600608    000000                                                                              *R         20160530RDF1605304.TXT
MDEFG5T22206201606                D89824360220PT4F20160602000003RADIO;AM/FM,CD                M IMCTM S7TS03 FTTL  07070IMCT  S7 CPB  00003                    2030 SR        000000000000 FUJITSU TEN (THAILAN15013DR0118   15014DR0131   F160600604    F160600608    000000                                                                              *R         20160530RDF1605304.TXT
MDEFG5T22207201606                D89828070100PV4F20160603000020SPEAKER ASM                   M IMCTM S7FL05 FTTL  07070IMCT  S7 PTB  00004                    0310 SR        000000000000 FUJITSU TEN (THAILAN16082KR0014   16061JR0013   S160600703    S160600712    000000                                                                              *R         20160530RDF1605304.TXT
MDEFG5T22208201606                D89828070300PT4F20160602000005SPEAKER ASM                   M IMCTM S7TS02 FTTL  07070IMCT  S7 PTB  00015                    2030 SR        000000000000 FUJITSU TEN (THAILAN16020KR0023   16018KR0020   F160600612    F160600615    000000                                                                              *R         20160530RDF1605304.TXT
MDEFG5T22209201606                D89831228900PT4F20160602000006RADIO;AM/FM,CD                M IMCTM S7TS03 FTTL  07070IMCT  S7 PTB  00003                    2030 SR        000000000000 FUJITSU TEN (THAILAN16020KR0019   16020KR0024   F160600605    F160600613    000000                                                                              *R         20160530RDF1605304.TXT
MDEFG5247877201606                D89805293700PV4F20160602000012SPEAKER ASM                   M IMCTM S7FR05 FTTL  07070IMCT  S7 PTB  00003                    2030 SR        000000000000 FUJITSU TEN (THAILAN15013DR0118   15082CR0001   F160600604    S160600713    000000                                                                              *R         20160530RDF1605304.TXT
MDEFG5247878201606                D89805293700PV4F20160603000006SPEAKER ASM                   M IMCTM S7FR05 FTTL  07070IMCT  S7 PTB  00003                    0310 SR        000000000000 FUJITSU TEN (THAILAN15054CR0077   15048DR0040   R160600801    S160600715    000000                                                                              *R         20160530RDF1605304.TXT
MDEFG5247879201606                D89805293700PV4F20160603000018SPEAKER ASM                   M IMCTM S7FR05 FTTL  07070IMCT  S7 PTB  00003                    0800 SR        000000000000 FUJITSU TEN (THAILAN15054CR0078   15074CR0060   R160600802    R160600810    000000                                                                              *R         20160530RDF1605304.TXT
MDEFG5247880201606                D89828070100PV4F20160602000004SPEAKER ASM                   M IMCTM S7FL05 FTTL  07070IMCT  S7 PTB  00004                    1510 SR        000000000000 FUJITSU TEN (THAILAN16018KR0017   16018KR0018   F160600601    F160600602    000000                                                                              *R         20160530RDF1605304.TXT
MDEFG5247881201606                D89828070100PV4F20160602000016SPEAKER ASM                   M IMCTM S7FL05 FTTL  07070IMCT  S7 PTB  00004                    2030 SR        000000000000 FUJITSU TEN (THAILAN16018KR0019   16018KR0020   F160600603    F160600615    000000                                                                              *R         20160530RDF1605304.TXT
MDEFG5247882201606                D89828070100PV4F20160602000004SPEAKER ASM                   M IMCTM S7FL05 FTTL  07070IMCT  S7 PTB  00004                    2300 SR        000000000000 FUJITSU TEN (THAILAN16061JR0012   16082KR0013   S160600701    S160600702    000000                                                                              *R         20160530RDF1605304.TXT
MDEFG5247883201606                D89828070300PT4F20160602000015SPEAKER ASM                   M IMCTM S7TS02 FTTL  07070IMCT  S7 PTB  00015                    1510 SR        000000000000 FUJITSU TEN (THAILAN16018KR0017   16020KR0023   F160600601    F160600612    000000                                                                              *R         20160530RDF1605304.TXT
