REC2016051320160514ISUZU                              75     
MDDDG5252350201605                D89821984430PT1D20160517000030RADIO;AM/FM,CD                M IMCTM S5NC06 FTTL  07070IMCT  S5 PTB  00005                    2230 SR        000000000000 FUJITSU TEN (THAILAN160JZSL0026026                                                                                                                              *          20160513IMF1605136.TXT
MDDDG5252351201605                D89821984430PT1D20160518000060RADIO;AM/FM,CD                M IMCTM S5NC06 FTTL  07070IMCT  S5 PTB  00005                    0310 SR        000000000000 FUJITSU TEN (THAILAN160JXAL0137137160JYPL0080080                                                                                                                *          20160513IMF1605136.TXT
MDDDG5252352201605                D89821984430PT1D20160518000030RADIO;AM/FM,CD                M IMCTM S5NC06 FTTL  07070IMCT  S5 PTB  00005                    1510 SR        000000000000 FUJITSU TEN (THAILAN160JNHL0030030                                                                                                                              *          20160513IMF1605136.TXT
MDDDG5252353201605                D89825217900PT1D20160518000060RADIO;AM/FM,CD,D              M IMCTM S5NC06 FTTL  07070IMCT  S5 PTB  00003                    1510 SR        000000000000 FUJITSU TEN (THAILAN160JYGL0117118                                                                                                                              *          20160513IMF1605136.TXT
MDDDG5252354201605                D89828070100PV1D20160518000180SPEAKER ASM                   M IMCTM S5MA12 FTTL  07070IMCT  S5 PTB  00004                    0310 SR        000000000000 FUJITSU TEN (THAILAN160JYPL0080080160JYSL0088088160JZSL0026026                                                                                                  *          20160513IMF1605136.TXT
MDDDG5252355201605                D89828070100PV1D20160518000180SPEAKER ASM                   M IMCTM S5MA12 FTTL  07070IMCT  S5 PTB  00004                    1000 SR        000000000000 FUJITSU TEN (THAILAN160JRUL0007007160JXAL0137137160JXCL0050050                                                                                                  *          20160513IMF1605136.TXT
MDDDG5252356201605                D89828070100PV1D20160518000180SPEAKER ASM                   M IMCTM S5MA12 FTTL  07070IMCT  S5 PTB  00004                    1510 SR        000000000000 FUJITSU TEN (THAILAN160JNHL0030030160JYEL0031031160JZKL0003003                                                                                                  *          20160513IMF1605136.TXT
MDDDG5252357201605                D89828070100PV1D20160518000120SPEAKER ASM                   M IMCTM S5MA12 FTTL  07070IMCT  S5 PTB  00004                    2230 SR        000000000000 FUJITSU TEN (THAILAN160JYGL0117118                                                                                                                              *          20160513IMF1605136.TXT
MDDDG5252358201605                D89828070200PV1D20160518000060SPEAKER ASM                   M IMCTM S5MA13 FTTL  07070IMCT  S5 PTB  00005                    1000 SR        000000000000 FUJITSU TEN (THAILAN160JRUL0007007                                                                                                                              *          20160513IMF1605136.TXT
MDDDG5252359201605                D89828070200PV1D20160518000060SPEAKER ASM                   M IMCTM S5MA13 FTTL  07070IMCT  S5 PTB  00005                    1510 SR        000000000000 FUJITSU TEN (THAILAN160JZKL0003003                                                                                                                              *          20160513IMF1605136.TXT
MDDDG5252360201605                D89828070300PT1D20160518000060SPEAKER ASM                   M IMCTM S5NB042FTTL  07070IMCT  S5 PTB  00015                    0310 SR        000000000000 FUJITSU TEN (THAILAN160JYSL0088088                                                                                                                              *          20160513IMF1605136.TXT
MDDDG5252361201605                D89828070300PT1D20160518000060SPEAKER ASM                   M IMCTM S5NB042FTTL  07070IMCT  S5 PTB  00015                    1000 SR        000000000000 FUJITSU TEN (THAILAN160JRUL0007007                                                                                                                              *          20160513IMF1605136.TXT
MDDDG5252362201605                D89828070300PT1D20160518000120SPEAKER ASM                   M IMCTM S5NB042FTTL  07070IMCT  S5 PTB  00015                    1510 SR        000000000000 FUJITSU TEN (THAILAN160JYEL0031031160JZKL0003003                                                                                                                *          20160513IMF1605136.TXT
MDDDG5252363201605                D89828070300PT1D20160518000120SPEAKER ASM                   M IMCTM S5NB042FTTL  07070IMCT  S5 PTB  00015                    2230 SR        000000000000 FUJITSU TEN (THAILAN160JYGL0117118                                                                                                                              *          20160513IMF1605136.TXT
MDDDG5252364201605                D89831228300PT1D20160517000030RADIO;AM/FM,CD                M IMCTM S5NC06 FTTL  07070IMCT  S5 CPB  00003                    2230 SR        000000000000 FUJITSU TEN (THAILAN160JYSL0088088                                                                                                                              *          20160513IMF1605136.TXT
MDDDG5252365201605                D89831228300PT1D20160518000030RADIO;AM/FM,CD                M IMCTM S5NC06 FTTL  07070IMCT  S5 CPB  00003                    1000 SR        000000000000 FUJITSU TEN (THAILAN160JYEL0031031                                                                                                                              *          20160513IMF1605136.TXT
MDDUG5221172201605                D89828070100PT4U20160517000030SPEAKER ASM                   M IMCTM S0FL05 FTTL  07070IMCT  S0 PTB  00004                    2030 SR        000000000000 FUJITSU TEN (THAILAN160JURU0017017                                                                                                                              *          20160513IMF1605136.TXT
MDDUG5221173201605                D89828070100PT4U20160518000030SPEAKER ASM                   M IMCTM S0FL05 FTTL  07070IMCT  S0 PTB  00004                    0800 SR        000000000000 FUJITSU TEN (THAILAN160JURU0018018                                                                                                                              *          20160513IMF1605136.TXT
MDDUG5221174201605                D89828070200PV4U20160517000030SPEAKER ASM                   M IMCTM S0FR05 FTTL  07070IMCT  S0 PTB  00005                    2030 SR        000000000000 FUJITSU TEN (THAILAN160JURU0017017                                                                                                                              *          20160513IMF1605136.TXT
MDDUG5221175201605                D89828070200PV4U20160518000030SPEAKER ASM                   M IMCTM S0FR05 FTTL  07070IMCT  S0 PTB  00005                    0800 SR        000000000000 FUJITSU TEN (THAILAN160JURU0018018                                                                                                                              *          20160513IMF1605136.TXT
MDDUG5221176201605                D89828070300PT4U20160517000030SPEAKER ASM                   M IMCTM S9TS02 FTTL  07070IMCT  S9 PTB  00015                    2030 SR        000000000000 FUJITSU TEN (THAILAN160JURU0017017                                                                                                                              *          20160513IMF1605136.TXT
MDDUG5221177201605                D89828070300PT4U20160518000030SPEAKER ASM                   M IMCTM S9TS02 FTTL  07070IMCT  S9 PTB  00015                    0800 SR        000000000000 FUJITSU TEN (THAILAN160JURU0018018                                                                                                                              *          20160513IMF1605136.TXT
MDDUG5221178201605                D89829093500PT4U20160517000015RADIO;ASM DVD (T              M IMCTM S9CO001FTTL  07070IMCT  S9 PTB  00003                    2030 SR        000000000000 FUJITSU TEN (THAILAN160JURU0017017                                                                                                                              *          20160513IMF1605136.TXT
MDDUG5221179201605                D89829093500PT4U20160518000015RADIO;ASM DVD (T              M IMCTM S9CO001FTTL  07070IMCT  S9 PTB  00003                    0800 SR        000000000000 FUJITSU TEN (THAILAN160JURU0018018                                                                                                                              *          20160513IMF1605136.TXT
MDEDG5264170201605                D89805293700PV1D20160518000030SPEAKER ASM                   M IMCTM S5MA12 FTTL  07070IMCT  S5 PTB  00003                    2230 SR        000000000000 FUJITSU TEN (THAILAN15081DL0014014                                                                                                                              *          20160513IMF1605136.TXT
MDEDG5264171201605                D89805294000PT1D20160518000030SPEAKER ASM                   M IMCTM S5NB042FTTL  07070IMCT  S5 PTB  00015                    2230 SR        000000000000 FUJITSU TEN (THAILAN15081DL0014014                                                                                                                              *          20160513IMF1605136.TXT
MDEDG5264172201605                D89805294200PT1D20160518000030SPEAKER ASM                   M IMCTM S5AS011FTTL  07070IMCT  S6 PTB  00030                    2230 SR        000000000000 FUJITSU TEN (THAILAN15081DL0014014                                                                                                                              *          20160513IMF1605136.TXT
MDEDG5264173201605                D89806470400PT1D20160518000015SPEAKER ASM;RDO,              M IMCTM S5EA18 FTTL  07070IMCT  S6 PTB  00015                    2230 SR        000000000000 FUJITSU TEN (THAILAN15081DL0014014                                                                                                                              *          20160513IMF1605136.TXT
MDEDG5264174201605                D89824360220PT1D20160518000015RADIO;AM/FM,CD                M IMCTM S5NC06 FTTL  07070IMCT  S5 CPB  00003                    1510 SR        000000000000 FUJITSU TEN (THAILAN15081DL0014014                                                                                                                              *          20160513IMF1605136.TXT
MDEDG5264175201605                D89828070100PV1D20160517000030SPEAKER ASM                   M IMCTM S5MA12 FTTL  07070IMCT  S5 PTB  00004                    2230 SR        000000000000 FUJITSU TEN (THAILAN16073HL0003003                                                                                                                              *          20160513IMF1605136.TXT
MDEDG5264176201605                D89828070100PV1D20160518000060SPEAKER ASM                   M IMCTM S5MA12 FTTL  07070IMCT  S5 PTB  00004                    0310 SR        000000000000 FUJITSU TEN (THAILAN16054HL0001002                                                                                                                              *          20160513IMF1605136.TXT
MDEDG5264177201605                D89828070100PV1D20160518000060SPEAKER ASM                   M IMCTM S5MA12 FTTL  07070IMCT  S5 PTB  00004                    1510 SR        000000000000 FUJITSU TEN (THAILAN16061HL000100116067HL0002002                                                                                                                *          20160513IMF1605136.TXT
MDEDG5264178201605                D89828070100PV4D20160517000060SPEAKER ASM                   M IMCTM S0FL05 FTTL  07070IMCT  S0 PTB  00004                    2300 SR        000000000000 FUJITSU TEN (THAILAN16066HU000700716072HU0007007                                                                                                                *          20160513IMF1605136.TXT
MDEDG5264179201605                D89828070100PV4D20160518000030SPEAKER ASM                   M IMCTM S0FL05 FTTL  07070IMCT  S0 PTB  00004                    0310 SR        000000000000 FUJITSU TEN (THAILAN16056HU0003003                                                                                                                              *          20160513IMF1605136.TXT
MDEDG5264180201605                D89828070100PV4D20160518000030SPEAKER ASM                   M IMCTM S0FL05 FTTL  07070IMCT  S0 PTB  00004                    0800 SR        000000000000 FUJITSU TEN (THAILAN16071HU0002002                                                                                                                              *          20160513IMF1605136.TXT
MDEDG5264181201605                D89828070100PV4D20160518000030SPEAKER ASM                   M IMCTM S0FL05 FTTL  07070IMCT  S0 PTB  00004                    1100 SR        000000000000 FUJITSU TEN (THAILAN16058HU0003003                                                                                                                              *          20160513IMF1605136.TXT
MDEDG5264182201605                D89828070100PV4D20160518000060SPEAKER ASM                   M IMCTM S0FL05 FTTL  07070IMCT  S0 PTB  00004                    1510 SR        000000000000 FUJITSU TEN (THAILAN16049HU000200216064KU0001001                                                                                                                *          20160513IMF1605136.TXT
MDEDG5264183201605                D89828070100PV4D20160518000030SPEAKER ASM                   M IMCTM S0FL05 FTTL  07070IMCT  S0 PTB  00004                    2030 SR        000000000000 FUJITSU TEN (THAILAN16049HU0003003                                                                                                                              *          20160513IMF1605136.TXT
MDEDG5264184201605                D89828070200PV1D20160517000030SPEAKER ASM                   M IMCTM S5MA13 FTTL  07070IMCT  S5 PTB  00005                    2230 SR        000000000000 FUJITSU TEN (THAILAN16073HL0003003                                                                                                                              *          20160513IMF1605136.TXT
MDEDG5264185201605                D89828070200PV1D20160518000060SPEAKER ASM                   M IMCTM S5MA13 FTTL  07070IMCT  S5 PTB  00005                    1510 SR        000000000000 FUJITSU TEN (THAILAN16061HL000100116067HL0002002                                                                                                                *          20160513IMF1605136.TXT
MDEDG5264186201605                D89828070200PV4D20160517000060SPEAKER ASM                   M IMCTM S0FR05 FTTL  07070IMCT  S0 PTB  00005                    2300 SR        000000000000 FUJITSU TEN (THAILAN16066HU000700716072HU0007007                                                                                                                *          20160513IMF1605136.TXT
MDEDG5264187201605                D89828070200PV4D20160518000030SPEAKER ASM                   M IMCTM S0FR05 FTTL  07070IMCT  S0 PTB  00005                    0800 SR        000000000000 FUJITSU TEN (THAILAN16071HU0002002                                                                                                                              *          20160513IMF1605136.TXT
MDEDG5264188201605                D89828070200PV4D20160518000060SPEAKER ASM                   M IMCTM S0FR05 FTTL  07070IMCT  S0 PTB  00005                    1510 SR        000000000000 FUJITSU TEN (THAILAN16049HU000200216064KU0001001                                                                                                                *          20160513IMF1605136.TXT
MDEDG5264189201605                D89828070200PV4D20160518000030SPEAKER ASM                   M IMCTM S0FR05 FTTL  07070IMCT  S0 PTB  00005                    2030 SR        000000000000 FUJITSU TEN (THAILAN16049HU0003003                                                                                                                              *          20160513IMF1605136.TXT
MDEDG5264190201605                D89828070300PT1D20160517000030SPEAKER ASM                   M IMCTM S5NB042FTTL  07070IMCT  S5 PTB  00015                    2230 SR        000000000000 FUJITSU TEN (THAILAN16073HL0003003                                                                                                                              *          20160513IMF1605136.TXT
MDEDG5264191201605                D89828070300PT1D20160518000060SPEAKER ASM                   M IMCTM S5NB042FTTL  07070IMCT  S5 PTB  00015                    0310 SR        000000000000 FUJITSU TEN (THAILAN16054HL0001002                                                                                                                              *          20160513IMF1605136.TXT
MDEDG5264192201605                D89828070300PT1D20160518000060SPEAKER ASM                   M IMCTM S5NB042FTTL  07070IMCT  S5 PTB  00015                    1510 SR        000000000000 FUJITSU TEN (THAILAN16061HL000100116067HL0002002                                                                                                                *          20160513IMF1605136.TXT
MDEDG5264193201605                D89828070300PT4D20160517000060SPEAKER ASM                   M IMCTM S9TS02 FTTL  07070IMCT  S9 PTB  00015                    2300 SR        000000000000 FUJITSU TEN (THAILAN16066HU000700716072HU0007007                                                                                                                *          20160513IMF1605136.TXT
MDEDG5264194201605                D89828070300PT4D20160518000030SPEAKER ASM                   M IMCTM S9TS02 FTTL  07070IMCT  S9 PTB  00015                    0310 SR        000000000000 FUJITSU TEN (THAILAN16056HU0003003                                                                                                                              *          20160513IMF1605136.TXT
MDEDG5264195201605                D89828070300PT4D20160518000030SPEAKER ASM                   M IMCTM S9TS02 FTTL  07070IMCT  S9 PTB  00015                    0800 SR        000000000000 FUJITSU TEN (THAILAN16071HU0002002                                                                                                                              *          20160513IMF1605136.TXT
MDEDG5264196201605                D89828070300PT4D20160518000030SPEAKER ASM                   M IMCTM S9TS02 FTTL  07070IMCT  S9 PTB  00015                    1100 SR        000000000000 FUJITSU TEN (THAILAN16058HU0003003                                                                                                                              *          20160513IMF1605136.TXT
MDEDG5264197201605                D89828070300PT4D20160518000060SPEAKER ASM                   M IMCTM S9TS02 FTTL  07070IMCT  S9 PTB  00015                    1510 SR        000000000000 FUJITSU TEN (THAILAN16049HU000200216064KU0001001                                                                                                                *          20160513IMF1605136.TXT
MDEDG5264198201605                D89828070300PT4D20160518000030SPEAKER ASM                   M IMCTM S9TS02 FTTL  07070IMCT  S9 PTB  00015                    2030 SR        000000000000 FUJITSU TEN (THAILAN16049HU0003003                                                                                                                              *          20160513IMF1605136.TXT
MDEDG5264199201605                D89831228400PT4D20160518000015RADIO;AM/FM,CD                M IMCTM S9CO001FTTL  07070IMCT  S9 CPB  00003                    1510 SR        000000000000 FUJITSU TEN (THAILAN16064KU0001001                                                                                                                              *          20160513IMF1605136.TXT
MDEDG5264200201605                D89831228500PT4D20160518000015RADIO;AM/FM,CD                M IMCTM S9CO001FTTL  07070IMCT  S9 PTB  00003                    1100 SR        000000000000 FUJITSU TEN (THAILAN16058HU0003003                                                                                                                              *          20160513IMF1605136.TXT
MDEDG5264201201605                D89831228600PT1D20160518000030RADIO;AM/FM,CD                M IMCTM S5NC06 FTTL  07070IMCT  S5 PTB  00003                    0310 SR        000000000000 FUJITSU TEN (THAILAN16054HL0001002                                                                                                                              *          20160513IMF1605136.TXT
MDEDG5264202201605                D89831228600PT1D20160518000015RADIO;AM/FM,CD                M IMCTM S5NC06 FTTL  07070IMCT  S5 PTB  00003                    1000 SR        000000000000 FUJITSU TEN (THAILAN16061HL0001001                                                                                                                              *          20160513IMF1605136.TXT
MDEDG5264203201605                D89831228600PT1D20160518000015RADIO;AM/FM,CD                M IMCTM S5NC06 FTTL  07070IMCT  S5 PTB  00003                    1510 SR        000000000000 FUJITSU TEN (THAILAN16067HL0002002                                                                                                                              *          20160513IMF1605136.TXT
MDEDG5264204201605                D89831228600PT4D20160517000015RADIO;AM/FM,CD                M IMCTM S9CO001FTTL  07070IMCT  S9 PTB  00003                    2300 SR        000000000000 FUJITSU TEN (THAILAN16066HU0007007                                                                                                                              *          20160513IMF1605136.TXT
MDEDG5264205201605                D89831228600PT4D20160518000015RADIO;AM/FM,CD                M IMCTM S9CO001FTTL  07070IMCT  S9 PTB  00003                    0310 SR        000000000000 FUJITSU TEN (THAILAN16056HU0003003                                                                                                                              *          20160513IMF1605136.TXT
MDEDG5264206201605                D89831228600PT4D20160518000015RADIO;AM/FM,CD                M IMCTM S9CO001FTTL  07070IMCT  S9 PTB  00003                    0800 SR        000000000000 FUJITSU TEN (THAILAN16071HU0002002                                                                                                                              *          20160513IMF1605136.TXT
MDEDG5264207201605                D89831228600PT4D20160518000015RADIO;AM/FM,CD                M IMCTM S9CO001FTTL  07070IMCT  S9 PTB  00003                    1510 SR        000000000000 FUJITSU TEN (THAILAN16049HU0002002                                                                                                                              *          20160513IMF1605136.TXT
MDEDG5264208201605                D89831228600PT4D20160518000015RADIO;AM/FM,CD                M IMCTM S9CO001FTTL  07070IMCT  S9 PTB  00003                    2030 SR        000000000000 FUJITSU TEN (THAILAN16049HU0003003                                                                                                                              *          20160513IMF1605136.TXT
MDEUG5232396201605                D89828070100PT4U20160517000030SPEAKER ASM                   M IMCTM S0FL05 FTTL  07070IMCT  S0 PTB  00004                    2300 SR        000000000000 FUJITSU TEN (THAILAN160B37U0009009                                                                                                                              *          20160513IMF1605136.TXT
MDEUG5232397201605                D89828070100PT4U20160518000030SPEAKER ASM                   M IMCTM S0FL05 FTTL  07070IMCT  S0 PTB  00004                    0310 SR        000000000000 FUJITSU TEN (THAILAN160B45U0007007                                                                                                                              *          20160513IMF1605136.TXT
MDEUG5232398201605                D89828070100PT4U20160518000060SPEAKER ASM                   M IMCTM S0FL05 FTTL  07070IMCT  S0 PTB  00004                    1100 SR        000000000000 FUJITSU TEN (THAILAN160B42U0019019160B48U0136136                                                                                                                *          20160513IMF1605136.TXT
MDEUG5232399201605                D89828070100PT4U20160518000060SPEAKER ASM                   M IMCTM S0FL05 FTTL  07070IMCT  S0 PTB  00004                    1510 SR        000000000000 FUJITSU TEN (THAILAN160B42U0020021                                                                                                                              *          20160513IMF1605136.TXT
MDEUG5232400201605                D89828070200PV4U20160517000030SPEAKER ASM                   M IMCTM S0FR05 FTTL  07070IMCT  S0 PTB  00005                    2300 SR        000000000000 FUJITSU TEN (THAILAN160B37U0009009                                                                                                                              *          20160513IMF1605136.TXT
MDEUG5232401201605                D89828070200PV4U20160518000030SPEAKER ASM                   M IMCTM S0FR05 FTTL  07070IMCT  S0 PTB  00005                    0310 SR        000000000000 FUJITSU TEN (THAILAN160B45U0007007                                                                                                                              *          20160513IMF1605136.TXT
MDEUG5232402201605                D89828070200PV4U20160518000060SPEAKER ASM                   M IMCTM S0FR05 FTTL  07070IMCT  S0 PTB  00005                    1100 SR        000000000000 FUJITSU TEN (THAILAN160B42U0019019160B48U0136136                                                                                                                *          20160513IMF1605136.TXT
MDEUG5232403201605                D89828070200PV4U20160518000060SPEAKER ASM                   M IMCTM S0FR05 FTTL  07070IMCT  S0 PTB  00005                    1510 SR        000000000000 FUJITSU TEN (THAILAN160B42U0020021                                                                                                                              *          20160513IMF1605136.TXT
MDEUG5232404201605                D89828070300PT4U20160517000030SPEAKER ASM                   M IMCTM S9TS02 FTTL  07070IMCT  S9 PTB  00015                    2300 SR        000000000000 FUJITSU TEN (THAILAN160B37U0009009                                                                                                                              *          20160513IMF1605136.TXT
MDEUG5232405201605                D89828070300PT4U20160518000030SPEAKER ASM                   M IMCTM S9TS02 FTTL  07070IMCT  S9 PTB  00015                    0310 SR        000000000000 FUJITSU TEN (THAILAN160B45U0007007                                                                                                                              *          20160513IMF1605136.TXT
MDEUG5232406201605                D89828070300PT4U20160518000060SPEAKER ASM                   M IMCTM S9TS02 FTTL  07070IMCT  S9 PTB  00015                    1100 SR        000000000000 FUJITSU TEN (THAILAN160B42U0019019160B48U0136136                                                                                                                *          20160513IMF1605136.TXT
MDEUG5232407201605                D89828070300PT4U20160518000060SPEAKER ASM                   M IMCTM S9TS02 FTTL  07070IMCT  S9 PTB  00015                    1510 SR        000000000000 FUJITSU TEN (THAILAN160B42U0020021                                                                                                                              *          20160513IMF1605136.TXT
