REC2016052320160523ISUZU                              7      
MDEFG5T15455201605                D89828070100PV4F20160526000026SPEAKER ASM                   M IMCTM S7FL05 FTTL  07070IMCT  S7 PTB  00004                    2030 SR        000000000000 FUJITSU TEN (THAILAN16047KR0012   16047KR0017   D160508003    D160508015    000000                                                                              *R         20160523RDF1605236.TXT
MDEFG5T15456201605                D89828070200PV4F20160526000023SPEAKER ASM                   M IMCTM S7TS02 FTTL  07070IMCT  S7 PTB  00005                    2030 SR        000000000000 FUJITSU TEN (THAILAN16047KR0012   16047KR0017   D160508003    D160508015    000000                                                                              *R         20160523RDF1605236.TXT
MDEFG5T15457201605                D89828070300PT4F20160526000013SPEAKER ASM                   M IMCTM S7TS02 FTTL  07070IMCT  S7 PTB  00015                    2030 SR        000000000000 FUJITSU TEN (THAILAN16075KR0002   16047KR0017   D160508008    D160508015    000000                                                                              *R         20160523RDF1605236.TXT
MDEFG5T15458201605                D89829645400PT4F20160526000001RADIO;ASM DVD                 M IMCTM S7TS03 FTTL  07070IMCT  S7 PTB  00003                    1510 SR        000000000000 FUJITSU TEN (THAILAN16039KR0023   16039KR0023   D160508001    D160508001    000000                                                                              *R         20160523RDF1605236.TXT
MDEFG5230142201605                D89828070100PV4F20160526000004SPEAKER ASM                   M IMCTM S7FL05 FTTL  07070IMCT  S7 PTB  00004                    1510 SR        000000000000 FUJITSU TEN (THAILAN16039KR0023   16047KR0011   D160508001    D160508002    000000                                                                              *R         20160523RDF1605236.TXT
MDEFG5230143201605                D89828070200PV4F20160526000005SPEAKER ASM                   M IMCTM S7TS02 FTTL  07070IMCT  S7 PTB  00005                    1510 SR        000000000000 FUJITSU TEN (THAILAN16039KR0023   16047KR0012   D160508001    D160508003    000000                                                                              *R         20160523RDF1605236.TXT
MDEFG5230144201605                D89828070300PT4F20160526000015SPEAKER ASM                   M IMCTM S7TS02 FTTL  07070IMCT  S7 PTB  00015                    1510 SR        000000000000 FUJITSU TEN (THAILAN16039KR0023   16075KR0002   D160508001    D160508008    000000                                                                              *R         20160523RDF1605236.TXT
