REC2016052520160525ISUZU                              20     
MDEFG5T17690201605                D89805293700PV4F20160530000020SPEAKER ASM                   M IMCTM S7FR05 FTTL  07070IMCT  S7 PTB  00003                    1100 SR        000000000000 FUJITSU TEN (THAILAN15055CR0117   15055CR0126   C160508601    C160508610    000000                                                                              *R         20160525RDF1605254.TXT
MDEFG5T17691201605                D89805294000PT4F20160528000001SPEAKER ASM                   M IMCTM S7TS02 FTTL  07070IMCT  S7 PTB  00015                    1510 SR        000000000000 FUJITSU TEN (THAILAN15023FR0037   15023FR0037   D160508314    D160508314    000000                                                                              *R         20160525RDF1605254.TXT
MDEFG5T17692201605                D89805294100PV4F20160528000006SPEAKER ASM                   M IMCTM S7FR05 FTTL  07070IMCT  S7 PTB  00005                    1510 SR        000000000000 FUJITSU TEN (THAILAN15023FR0035   15023FR0037   D160508312    D160508314    000000                                                                              *R         20160525RDF1605254.TXT
MDEFG5T17693201605                D89828070100PV4F20160530000008SPEAKER ASM                   M IMCTM S7FL05 FTTL  07070IMCT  S7 PTB  00004                    1100 SR        000000000000 FUJITSU TEN (THAILAN16064KR0003   16064KR0006   C160508612    C160508615    000000                                                                              *R         20160525RDF1605254.TXT
MDEFG5T17694201605                D89828070200PV4F20160530000007SPEAKER ASM                   M IMCTM S7TS02 FTTL  07070IMCT  S7 PTB  00005                    1100 SR        000000000000 FUJITSU TEN (THAILAN16064KR0003   16064KR0006   C160508612    C160508615    000000                                                                              *R         20160525RDF1605254.TXT
MDEFG5T17695201605                D89828070300PT4F20160528000014SPEAKER ASM                   M IMCTM S7TS02 FTTL  07070IMCT  S7 PTB  00015                    1510 SR        000000000000 FUJITSU TEN (THAILAN16002KR0018   16004JR0001   C160508611    R160508507    000000                                                                              *R         20160525RDF1605254.TXT
MDEFG5T17696201605                D89831228400PT4F20160530000004RADIO;AM/FM,CD                M IMCTM S7TS03 FTTL  07070IMCT  S7 CPB  00003                    1100 SR        000000000000 FUJITSU TEN (THAILAN16064KR0003   16064KR0006   C160508612    C160508615    000000                                                                              *R         20160525RDF1605254.TXT
MDEFG5T17697201605                D89831229000PT4F20160528000001RADIO;AM/FM,CD                M IMCTM S7TS03 FTTL  07070IMCT  S7 PTB  00003                    1510 SR        000000000000 FUJITSU TEN (THAILAN16028KR0005   16028KR0005   D160508315    D160508315    000000                                                                              *R         20160525RDF1605254.TXT
MDEFG5T17698201605                D89831229200PT4F20160529000001RADIO;AM/FM,CD                M IMCTM S7TS03 FTTL  07070IMCT  S7 PTB  00003                    0310 SR        000000000000 FUJITSU TEN (THAILAN16004JR0001   16004JR0001   R160508507    R160508507    000000                                                                              *R         20160525RDF1605254.TXT
MDEFG5234940201605                D89805293700PV4F20160528000024SPEAKER ASM                   M IMCTM S7FR05 FTTL  07070IMCT  S7 PTB  00003                    1100 SR        000000000000 FUJITSU TEN (THAILAN15023DR0108   15023FR0035   D160508301    D160508312    000000                                                                              *R         20160525RDF1605254.TXT
MDEFG5234941201605                D89805293700PV4F20160528000006SPEAKER ASM                   M IMCTM S7FR05 FTTL  07070IMCT  S7 PTB  00003                    1510 SR        000000000000 FUJITSU TEN (THAILAN15023FR0036   15063CR0013   D160508313    H160508401    000000                                                                              *R         20160525RDF1605254.TXT
MDEFG5234942201605                D89805293700PV4F20160528000015SPEAKER ASM                   M IMCTM S7FR05 FTTL  07070IMCT  S7 PTB  00003                    2030 SR        000000000000 FUJITSU TEN (THAILAN15063CR0014   15061CR0024   H160508402    R160508501    000000                                                                              *R         20160525RDF1605254.TXT
MDEFG5234943201605                D89805293700PV4F20160528000003SPEAKER ASM                   M IMCTM S7FR05 FTTL  07070IMCT  S7 PTB  00003                    2300 SR        000000000000 FUJITSU TEN (THAILAN15061CR0024   15018CR0011   R160508501    R160508502    000000                                                                              *R         20160525RDF1605254.TXT
MDEFG5234944201605                D89805293700PV4F20160529000012SPEAKER ASM                   M IMCTM S7FR05 FTTL  07070IMCT  S7 PTB  00003                    0310 SR        000000000000 FUJITSU TEN (THAILAN15018CR0012   15074CR0054   R160508503    R160508509    000000                                                                              *R         20160525RDF1605254.TXT
MDEFG5234945201605                D89805294000PT4F20160528000015SPEAKER ASM                   M IMCTM S7TS02 FTTL  07070IMCT  S7 PTB  00015                    1100 SR        000000000000 FUJITSU TEN (THAILAN15023FR0030   15023FR0037   D160508307    D160508314    000000                                                                              *R         20160525RDF1605254.TXT
MDEFG5234946201605                D89805294100PV4F20160528000010SPEAKER ASM                   M IMCTM S7FR05 FTTL  07070IMCT  S7 PTB  00005                    1100 SR        000000000000 FUJITSU TEN (THAILAN15023FR0030   15023FR0034   D160508307    D160508311    000000                                                                              *R         20160525RDF1605254.TXT
MDEFG5234947201605                D89828070100PV4F20160528000004SPEAKER ASM                   M IMCTM S7FL05 FTTL  07070IMCT  S7 PTB  00004                    1510 SR        000000000000 FUJITSU TEN (THAILAN16028KR0005   16006JR0001   D160508315    H160508409    000000                                                                              *R         20160525RDF1605254.TXT
MDEFG5234948201605                D89828070100PV4F20160528000012SPEAKER ASM                   M IMCTM S7FL05 FTTL  07070IMCT  S7 PTB  00004                    2030 SR        000000000000 FUJITSU TEN (THAILAN16006JR0002   16006JR0007   H160508410    H160508415    000000                                                                              *R         20160525RDF1605254.TXT
MDEFG5234949201605                D89828070100PV4F20160529000016SPEAKER ASM                   M IMCTM S7FL05 FTTL  07070IMCT  S7 PTB  00004                    0310 SR        000000000000 FUJITSU TEN (THAILAN16002KR0018   16078HR0033   C160508611    R160508515    000000                                                                              *R         20160525RDF1605254.TXT
MDEFG5234950201605                D89828070200PV4F20160528000005SPEAKER ASM                   M IMCTM S7TS02 FTTL  07070IMCT  S7 PTB  00005                    1510 SR        000000000000 FUJITSU TEN (THAILAN16002KR0018   16028KR0005   C160508611    D160508315    000000                                                                              *R         20160525RDF1605254.TXT
