REC2016053020160530ISUZU                              53     
MDDDG5313451201606                D89821984430PT1D20160603000030RADIO;AM/FM,CD                M IMCTM S5NC06 FTTL  07070IMCT  S5 PTB  00005                    0310 SR        000000000000 FUJITSU TEN (THAILAN160JNGL0054054                                                                                                                              *          20160530IMF1605304.TXT
MDDDG5313452201606                D89821984430PT1D20160603000030RADIO;AM/FM,CD                M IMCTM S5NC06 FTTL  07070IMCT  S5 PTB  00005                    1000 SR        000000000000 FUJITSU TEN (THAILAN160JXAL0145145                                                                                                                              *          20160530IMF1605304.TXT
MDDDG5313453201606                D89828070100PV1D20160603000060SPEAKER ASM                   M IMCTM S5MA12 FTTL  07070IMCT  S5 PTB  00004                    1000 SR        000000000000 FUJITSU TEN (THAILAN160JNGL0054054                                                                                                                              *          20160530IMF1605304.TXT
MDDDG5313454201606                D89828070100PV1D20160603000060SPEAKER ASM                   M IMCTM S5MA12 FTTL  07070IMCT  S5 PTB  00004                    1510 SR        000000000000 FUJITSU TEN (THAILAN160JXAL0145145                                                                                                                              *          20160530IMF1605304.TXT
MDDUG5248320201606                D89828070100PT4U20160603000030SPEAKER ASM                   M IMCTM S0FL05 FTTL  07070IMCT  S0 PTB  00004                    0800 SR        000000000000 FUJITSU TEN (THAILAN160JUPU0008008                                                                                                                              *          20160530IMF1605304.TXT
MDDUG5248321201606                D89828070200PV4U20160603000030SPEAKER ASM                   M IMCTM S0FR05 FTTL  07070IMCT  S0 PTB  00005                    0800 SR        000000000000 FUJITSU TEN (THAILAN160JUPU0008008                                                                                                                              *          20160530IMF1605304.TXT
MDDUG5248322201606                D89828070300PT4U20160603000030SPEAKER ASM                   M IMCTM S9TS02 FTTL  07070IMCT  S9 PTB  00015                    0800 SR        000000000000 FUJITSU TEN (THAILAN160JUPU0008008                                                                                                                              *          20160530IMF1605304.TXT
MDDUG5248323201606                D89831228400PT4U20160603000015RADIO;AM/FM,CD                M IMCTM S9CO001FTTL  07070IMCT  S9 CPB  00003                    0800 SR        000000000000 FUJITSU TEN (THAILAN160JUPU0008008                                                                                                                              *          20160530IMF1605304.TXT
MDEDG5343530201606                D89805293700PV1D20160602000030SPEAKER ASM                   M IMCTM S5MA12 FTTL  07070IMCT  S5 PTB  00003                    2230 SR        000000000000 FUJITSU TEN (THAILAN15018CL0018018                                                                                                                              *          20160530IMF1605304.TXT
MDEDG5343531201606                D89805293700PV1D20160603000030SPEAKER ASM                   M IMCTM S5MA12 FTTL  07070IMCT  S5 PTB  00003                    0310 SR        000000000000 FUJITSU TEN (THAILAN15018CL0019019                                                                                                                              *          20160530IMF1605304.TXT
MDEDG5343532201606                D89805293700PV1D20160603000090SPEAKER ASM                   M IMCTM S5MA12 FTTL  07070IMCT  S5 PTB  00003                    2230 SR        000000000000 FUJITSU TEN (THAILAN15018FL005005115056CL0015015                                                                                                                *          20160530IMF1605304.TXT
MDEDG5343533201606                D89805294000PT1D20160603000030SPEAKER ASM                   M IMCTM S5NB042FTTL  07070IMCT  S5 PTB  00015                    2230 SR        000000000000 FUJITSU TEN (THAILAN15056CL0015015                                                                                                                              *          20160530IMF1605304.TXT
MDEDG5343534201606                D89828070100PV1D20160603000180SPEAKER ASM                   M IMCTM S5MA12 FTTL  07070IMCT  S5 PTB  00004                    0310 SR        000000000000 FUJITSU TEN (THAILAN16024LL000100216047KL000900916052HL000400516081HL0077077                                                                                    *          20160530IMF1605304.TXT
MDEDG5343535201606                D89828070100PV1D20160603000090SPEAKER ASM                   M IMCTM S5MA12 FTTL  07070IMCT  S5 PTB  00004                    1000 SR        000000000000 FUJITSU TEN (THAILAN16064HL000100216071HL0004004                                                                                                                *          20160530IMF1605304.TXT
MDEDG5343536201606                D89828070100PV1D20160603000120SPEAKER ASM                   M IMCTM S5MA12 FTTL  07070IMCT  S5 PTB  00004                    1510 SR        000000000000 FUJITSU TEN (THAILAN16059HL000200216071HL000500516081JL000300316083KL0029029                                                                                    *          20160530IMF1605304.TXT
MDEDG5343537201606                D89828070100PV4D20160602000030SPEAKER ASM                   M IMCTM S0FL05 FTTL  07070IMCT  S0 PTB  00004                    2300 SR        000000000000 FUJITSU TEN (THAILAN16064HU0013013                                                                                                                              *          20160530IMF1605304.TXT
MDEDG5343538201606                D89828070100PV4D20160603000030SPEAKER ASM                   M IMCTM S0FL05 FTTL  07070IMCT  S0 PTB  00004                    0800 SR        000000000000 FUJITSU TEN (THAILAN16003LU0003003                                                                                                                              *          20160530IMF1605304.TXT
MDEDG5343539201606                D89828070100PV4D20160603000030SPEAKER ASM                   M IMCTM S0FL05 FTTL  07070IMCT  S0 PTB  00004                    1100 SR        000000000000 FUJITSU TEN (THAILAN16058HU0006006                                                                                                                              *          20160530IMF1605304.TXT
MDEDG5343540201606                D89828070100PV4D20160603000030SPEAKER ASM                   M IMCTM S0FL05 FTTL  07070IMCT  S0 PTB  00004                    2030 SR        000000000000 FUJITSU TEN (THAILAN16071HU0012012                                                                                                                              *          20160530IMF1605304.TXT
MDEDG5343541201606                D89828070200PV1D20160603000150SPEAKER ASM                   M IMCTM S5MA13 FTTL  07070IMCT  S5 PTB  00005                    0310 SR        000000000000 FUJITSU TEN (THAILAN16024LL000100216047KL000900916052HL0004005                                                                                                  *          20160530IMF1605304.TXT
MDEDG5343542201606                D89828070200PV1D20160603000090SPEAKER ASM                   M IMCTM S5MA13 FTTL  07070IMCT  S5 PTB  00005                    1000 SR        000000000000 FUJITSU TEN (THAILAN16064HL000100216071HL0004004                                                                                                                *          20160530IMF1605304.TXT
MDEDG5343543201606                D89828070200PV1D20160603000030SPEAKER ASM                   M IMCTM S5MA13 FTTL  07070IMCT  S5 PTB  00005                    1510 SR        000000000000 FUJITSU TEN (THAILAN16071HL0005005                                                                                                                              *          20160530IMF1605304.TXT
MDEDG5343544201606                D89828070200PV4D20160602000030SPEAKER ASM                   M IMCTM S0FR05 FTTL  07070IMCT  S0 PTB  00005                    2300 SR        000000000000 FUJITSU TEN (THAILAN16064HU0013013                                                                                                                              *          20160530IMF1605304.TXT
MDEDG5343545201606                D89828070200PV4D20160603000030SPEAKER ASM                   M IMCTM S0FR05 FTTL  07070IMCT  S0 PTB  00005                    0800 SR        000000000000 FUJITSU TEN (THAILAN16003LU0003003                                                                                                                              *          20160530IMF1605304.TXT
MDEDG5343546201606                D89828070200PV4D20160603000030SPEAKER ASM                   M IMCTM S0FR05 FTTL  07070IMCT  S0 PTB  00005                    2030 SR        000000000000 FUJITSU TEN (THAILAN16071HU0012012                                                                                                                              *          20160530IMF1605304.TXT
MDEDG5343547201606                D89828070300PT1D20160603000150SPEAKER ASM                   M IMCTM S5NB042FTTL  07070IMCT  S5 PTB  00015                    0310 SR        000000000000 FUJITSU TEN (THAILAN16024LL000100216047KL000900916052HL0004005                                                                                                  *          20160530IMF1605304.TXT
MDEDG5343548201606                D89828070300PT1D20160603000090SPEAKER ASM                   M IMCTM S5NB042FTTL  07070IMCT  S5 PTB  00015                    1000 SR        000000000000 FUJITSU TEN (THAILAN16064HL000100216071HL0004004                                                                                                                *          20160530IMF1605304.TXT
MDEDG5343549201606                D89828070300PT1D20160603000060SPEAKER ASM                   M IMCTM S5NB042FTTL  07070IMCT  S5 PTB  00015                    1510 SR        000000000000 FUJITSU TEN (THAILAN16059HL000200216071HL0005005                                                                                                                *          20160530IMF1605304.TXT
MDEDG5343550201606                D89828070300PT4D20160602000030SPEAKER ASM                   M IMCTM S9TS02 FTTL  07070IMCT  S9 PTB  00015                    2300 SR        000000000000 FUJITSU TEN (THAILAN16064HU0013013                                                                                                                              *          20160530IMF1605304.TXT
MDEDG5343551201606                D89828070300PT4D20160603000030SPEAKER ASM                   M IMCTM S9TS02 FTTL  07070IMCT  S9 PTB  00015                    0800 SR        000000000000 FUJITSU TEN (THAILAN16003LU0003003                                                                                                                              *          20160530IMF1605304.TXT
MDEDG5343552201606                D89828070300PT4D20160603000030SPEAKER ASM                   M IMCTM S9TS02 FTTL  07070IMCT  S9 PTB  00015                    1100 SR        000000000000 FUJITSU TEN (THAILAN16058HU0006006                                                                                                                              *          20160530IMF1605304.TXT
MDEDG5343553201606                D89828070300PT4D20160603000030SPEAKER ASM                   M IMCTM S9TS02 FTTL  07070IMCT  S9 PTB  00015                    2030 SR        000000000000 FUJITSU TEN (THAILAN16071HU0012012                                                                                                                              *          20160530IMF1605304.TXT
MDEDG5343554201606                D89831228500PT4D20160603000015RADIO;AM/FM,CD                M IMCTM S9CO001FTTL  07070IMCT  S9 PTB  00003                    1100 SR        000000000000 FUJITSU TEN (THAILAN16058HU0006006                                                                                                                              *          20160530IMF1605304.TXT
MDEDG5343555201606                D89831228600PT1D20160603000030RADIO;AM/FM,CD                M IMCTM S5NC06 FTTL  07070IMCT  S5 PTB  00003                    0310 SR        000000000000 FUJITSU TEN (THAILAN16064HL0001002                                                                                                                              *          20160530IMF1605304.TXT
MDEDG5343556201606                D89831228600PT1D20160603000030RADIO;AM/FM,CD                M IMCTM S5NC06 FTTL  07070IMCT  S5 PTB  00003                    1000 SR        000000000000 FUJITSU TEN (THAILAN16071HL0004005                                                                                                                              *          20160530IMF1605304.TXT
MDEDG5343557201606                D89831228600PT4D20160602000015RADIO;AM/FM,CD                M IMCTM S9CO001FTTL  07070IMCT  S9 PTB  00003                    2300 SR        000000000000 FUJITSU TEN (THAILAN16064HU0013013                                                                                                                              *          20160530IMF1605304.TXT
MDEDG5343558201606                D89831228600PT4D20160603000015RADIO;AM/FM,CD                M IMCTM S9CO001FTTL  07070IMCT  S9 PTB  00003                    2030 SR        000000000000 FUJITSU TEN (THAILAN16071HU0012012                                                                                                                              *          20160530IMF1605304.TXT
MDEDG5343559201606                D89831229200PT1D20160603000030RADIO;AM/FM,CD                M IMCTM S5NC06 FTTL  07070IMCT  S5 PTB  00003                    0310 SR        000000000000 FUJITSU TEN (THAILAN16024LL0001002                                                                                                                              *          20160530IMF1605304.TXT
MDEUG5275954201606                D89828070100PT4U20160602000030SPEAKER ASM                   M IMCTM S0FL05 FTTL  07070IMCT  S0 PTB  00004                    2030 SR        000000000000 FUJITSU TEN (THAILAN160B42U0036036                                                                                                                              *          20160530IMF1605304.TXT
MDEUG5275955201606                D89828070100PT4U20160602000030SPEAKER ASM                   M IMCTM S0FL05 FTTL  07070IMCT  S0 PTB  00004                    2300 SR        000000000000 FUJITSU TEN (THAILAN160B48U0147147                                                                                                                              *          20160530IMF1605304.TXT
MDEUG5275956201606                D89828070100PT4U20160603000030SPEAKER ASM                   M IMCTM S0FL05 FTTL  07070IMCT  S0 PTB  00004                    0310 SR        000000000000 FUJITSU TEN (THAILAN160B48U0148148                                                                                                                              *          20160530IMF1605304.TXT
MDEUG5275957201606                D89828070100PT4U20160603000060SPEAKER ASM                   M IMCTM S0FL05 FTTL  07070IMCT  S0 PTB  00004                    1100 SR        000000000000 FUJITSU TEN (THAILAN160B45U0016016160B46U0053053                                                                                                                *          20160530IMF1605304.TXT
MDEUG5275958201606                D89828070100PT4U20160603000030SPEAKER ASM                   M IMCTM S0FL05 FTTL  07070IMCT  S0 PTB  00004                    1510 SR        000000000000 FUJITSU TEN (THAILAN160B48U0149149                                                                                                                              *          20160530IMF1605304.TXT
MDEUG5275959201606                D89828070200PV4U20160602000030SPEAKER ASM                   M IMCTM S0FR05 FTTL  07070IMCT  S0 PTB  00005                    2030 SR        000000000000 FUJITSU TEN (THAILAN160B42U0036036                                                                                                                              *          20160530IMF1605304.TXT
MDEUG5275960201606                D89828070200PV4U20160602000030SPEAKER ASM                   M IMCTM S0FR05 FTTL  07070IMCT  S0 PTB  00005                    2300 SR        000000000000 FUJITSU TEN (THAILAN160B48U0147147                                                                                                                              *          20160530IMF1605304.TXT
MDEUG5275961201606                D89828070200PV4U20160603000030SPEAKER ASM                   M IMCTM S0FR05 FTTL  07070IMCT  S0 PTB  00005                    0310 SR        000000000000 FUJITSU TEN (THAILAN160B48U0148148                                                                                                                              *          20160530IMF1605304.TXT
MDEUG5275962201606                D89828070200PV4U20160603000060SPEAKER ASM                   M IMCTM S0FR05 FTTL  07070IMCT  S0 PTB  00005                    1100 SR        000000000000 FUJITSU TEN (THAILAN160B45U0016016160B46U0053053                                                                                                                *          20160530IMF1605304.TXT
MDEUG5275963201606                D89828070200PV4U20160603000030SPEAKER ASM                   M IMCTM S0FR05 FTTL  07070IMCT  S0 PTB  00005                    1510 SR        000000000000 FUJITSU TEN (THAILAN160B48U0149149                                                                                                                              *          20160530IMF1605304.TXT
MDEUG5275964201606                D89828070300PT4U20160602000030SPEAKER ASM                   M IMCTM S9TS02 FTTL  07070IMCT  S9 PTB  00015                    2030 SR        000000000000 FUJITSU TEN (THAILAN160B42U0036036                                                                                                                              *          20160530IMF1605304.TXT
MDEUG5275965201606                D89828070300PT4U20160602000030SPEAKER ASM                   M IMCTM S9TS02 FTTL  07070IMCT  S9 PTB  00015                    2300 SR        000000000000 FUJITSU TEN (THAILAN160B48U0147147                                                                                                                              *          20160530IMF1605304.TXT
MDEUG5275966201606                D89828070300PT4U20160603000030SPEAKER ASM                   M IMCTM S9TS02 FTTL  07070IMCT  S9 PTB  00015                    0310 SR        000000000000 FUJITSU TEN (THAILAN160B48U0148148                                                                                                                              *          20160530IMF1605304.TXT
MDEUG5275967201606                D89828070300PT4U20160603000060SPEAKER ASM                   M IMCTM S9TS02 FTTL  07070IMCT  S9 PTB  00015                    1100 SR        000000000000 FUJITSU TEN (THAILAN160B45U0016016160B46U0053053                                                                                                                *          20160530IMF1605304.TXT
MDEUG5275968201606                D89828070300PT4U20160603000030SPEAKER ASM                   M IMCTM S9TS02 FTTL  07070IMCT  S9 PTB  00015                    1510 SR        000000000000 FUJITSU TEN (THAILAN160B48U0149149                                                                                                                              *          20160530IMF1605304.TXT
