REC2016060920160609ISUZU                              43     
MDDDG6219917201606                D89828070100PV1D20160613000060SPEAKER ASM                   M IMCTM S5MA12 FTTL  07070IMCT  S5 PTB  00004                    2230 SR        000000000000 FUJITSU TEN (THAILAN160JYSL0102102                                                                                                                              *          20160609IMF1606094.TXT
MDDDG6219918201606                D89828070100PV1D20160614000060SPEAKER ASM                   M IMCTM S5MA12 FTTL  07070IMCT  S5 PTB  00004                    0310 SR        000000000000 FUJITSU TEN (THAILAN160JZFL0115115                                                                                                                              *          20160609IMF1606094.TXT
MDDDG6219919201606                D89828070100PV1D20160614000060SPEAKER ASM                   M IMCTM S5MA12 FTTL  07070IMCT  S5 PTB  00004                    1000 SR        000000000000 FUJITSU TEN (THAILAN160JYSL0103103                                                                                                                              *          20160609IMF1606094.TXT
MDDDG6219920201606                D89828070100PV1D20160614000240SPEAKER ASM                   M IMCTM S5MA12 FTTL  07070IMCT  S5 PTB  00004                    1510 SR        000000000000 FUJITSU TEN (THAILAN160JYCL0029029160JYQL0036037160JYSL0104104                                                                                                  *          20160609IMF1606094.TXT
MDDDG6219921201606                D89828070200PV1D20160614000060SPEAKER ASM                   M IMCTM S5MA13 FTTL  07070IMCT  S5 PTB  00005                    0310 SR        000000000000 FUJITSU TEN (THAILAN160JZFL0115115                                                                                                                              *          20160609IMF1606094.TXT
MDDDG6219922201606                D89828070300PT1D20160613000060SPEAKER ASM                   M IMCTM S5NB042FTTL  07070IMCT  S5 PTB  00015                    2230 SR        000000000000 FUJITSU TEN (THAILAN160JYSL0102102                                                                                                                              *          20160609IMF1606094.TXT
MDDDG6219923201606                D89828070300PT1D20160614000060SPEAKER ASM                   M IMCTM S5NB042FTTL  07070IMCT  S5 PTB  00015                    0310 SR        000000000000 FUJITSU TEN (THAILAN160JZFL0115115                                                                                                                              *          20160609IMF1606094.TXT
MDDDG6219924201606                D89828070300PT1D20160614000060SPEAKER ASM                   M IMCTM S5NB042FTTL  07070IMCT  S5 PTB  00015                    1000 SR        000000000000 FUJITSU TEN (THAILAN160JYSL0103103                                                                                                                              *          20160609IMF1606094.TXT
MDDDG6219925201606                D89828070300PT1D20160614000240SPEAKER ASM                   M IMCTM S5NB042FTTL  07070IMCT  S5 PTB  00015                    1510 SR        000000000000 FUJITSU TEN (THAILAN160JYCL0029029160JYQL0036037160JYSL0104104                                                                                                  *          20160609IMF1606094.TXT
MDDDG6219926201606                D89829645900PT1D20160614000030RADIO;ASM DVD                 M IMCTM S5NC06 FTTL  07070IMCT  S5 CPB  00003                    0310 SR        000000000000 FUJITSU TEN (THAILAN160JZFL0115115                                                                                                                              *          20160609IMF1606094.TXT
MDDDG6219927201606                D89831228300PT1D20160613000030RADIO;AM/FM,CD                M IMCTM S5NC06 FTTL  07070IMCT  S5 CPB  00003                    2230 SR        000000000000 FUJITSU TEN (THAILAN160JYSL0102102                                                                                                                              *          20160609IMF1606094.TXT
MDDDG6219928201606                D89831228300PT1D20160614000030RADIO;AM/FM,CD                M IMCTM S5NC06 FTTL  07070IMCT  S5 CPB  00003                    1000 SR        000000000000 FUJITSU TEN (THAILAN160JYSL0103103                                                                                                                              *          20160609IMF1606094.TXT
MDDDG6219929201606                D89831228300PT1D20160614000120RADIO;AM/FM,CD                M IMCTM S5NC06 FTTL  07070IMCT  S5 CPB  00003                    1510 SR        000000000000 FUJITSU TEN (THAILAN160JYCL0029029160JYQL0036037160JYSL0104104                                                                                                  *          20160609IMF1606094.TXT
MDDUG6413429201606                D89828070100PT4U20160613000030SPEAKER ASM                   M IMCTM S0FL05 FTTL  07070IMCT  S0 PTB  00004                    2300 SR        000000000000 FUJITSU TEN (THAILAN160JURU0027027                                                                                                                              *          20160609IMF1606094.TXT
MDDUG6413430201606                D89828070200PV4U20160613000030SPEAKER ASM                   M IMCTM S0FR05 FTTL  07070IMCT  S0 PTB  00005                    2300 SR        000000000000 FUJITSU TEN (THAILAN160JURU0027027                                                                                                                              *          20160609IMF1606094.TXT
MDDUG6413431201606                D89828070300PT4U20160613000030SPEAKER ASM                   M IMCTM S9TS02 FTTL  07070IMCT  S9 PTB  00015                    2300 SR        000000000000 FUJITSU TEN (THAILAN160JURU0027027                                                                                                                              *          20160609IMF1606094.TXT
MDDUG6413432201606                D89829093500PT4U20160613000015RADIO;ASM DVD (T              M IMCTM S9CO001FTTL  07070IMCT  S9 PTB  00003                    2300 SR        000000000000 FUJITSU TEN (THAILAN160JURU0027027                                                                                                                              *          20160609IMF1606094.TXT
MDEDG6255807201606                D89805293700PV1D20160613000030SPEAKER ASM                   M IMCTM S5MA12 FTTL  07070IMCT  S5 PTB  00003                    1510 SR        000000000000 FUJITSU TEN (THAILAN15019FL0078078                                                                                                                              *          20160609IMF1606094.TXT
MDEDG6255808201606                D89805293700PV1D20160613000090SPEAKER ASM                   M IMCTM S5MA12 FTTL  07070IMCT  S5 PTB  00003                    2230 SR        000000000000 FUJITSU TEN (THAILAN15018FL006506615019FL0079079                                                                                                                *          20160609IMF1606094.TXT
MDEDG6255809201606                D89805293700PV1D20160614000060SPEAKER ASM                   M IMCTM S5MA12 FTTL  07070IMCT  S5 PTB  00003                    0310 SR        000000000000 FUJITSU TEN (THAILAN15019FL0080081                                                                                                                              *          20160609IMF1606094.TXT
MDEDG6255810201606                D89805293700PV1D20160614000030SPEAKER ASM                   M IMCTM S5MA12 FTTL  07070IMCT  S5 PTB  00003                    1000 SR        000000000000 FUJITSU TEN (THAILAN15020FL0004004                                                                                                                              *          20160609IMF1606094.TXT
MDEDG6255811201606                D89805293700PV4D20160613000030SPEAKER ASM                   M IMCTM S0FR05 FTTL  07070IMCT  S0 PTB  00003                    2300 SR        000000000000 FUJITSU TEN (THAILAN15019FU0016016                                                                                                                              *          20160609IMF1606094.TXT
MDEDG6255812201606                D89805293700PV4D20160614000030SPEAKER ASM                   M IMCTM S0FR05 FTTL  07070IMCT  S0 PTB  00003                    0800 SR        000000000000 FUJITSU TEN (THAILAN15019FU0017017                                                                                                                              *          20160609IMF1606094.TXT
MDEDG6255813201606                D89805293700PV4D20160614000030SPEAKER ASM                   M IMCTM S0FR05 FTTL  07070IMCT  S0 PTB  00003                    1100 SR        000000000000 FUJITSU TEN (THAILAN15058CU0038038                                                                                                                              *          20160609IMF1606094.TXT
MDEDG6255814201606                D89805293700PV4D20160614000060SPEAKER ASM                   M IMCTM S0FR05 FTTL  07070IMCT  S0 PTB  00003                    1510 SR        000000000000 FUJITSU TEN (THAILAN15018FU002702715058CU0039039                                                                                                                *          20160609IMF1606094.TXT
MDEDG6255815201606                D89805293700PV4D20160614000030SPEAKER ASM                   M IMCTM S0FR05 FTTL  07070IMCT  S0 PTB  00003                    2030 SR        000000000000 FUJITSU TEN (THAILAN15018FU0028028                                                                                                                              *          20160609IMF1606094.TXT
MDEDG6255816201606                D89805294000PT1D20160614000030SPEAKER ASM                   M IMCTM S5NB042FTTL  07070IMCT  S5 PTB  00015                    1000 SR        000000000000 FUJITSU TEN (THAILAN15020FL0004004                                                                                                                              *          20160609IMF1606094.TXT
MDEDG6255817201606                D89805294100PV1D20160614000030SPEAKER ASM                   M IMCTM S5MB13 FTTL  07070IMCT  S5 PTB  00005                    1000 SR        000000000000 FUJITSU TEN (THAILAN15020FL0004004                                                                                                                              *          20160609IMF1606094.TXT
MDEDG6255818201606                D89828070100PV1D20160614000060SPEAKER ASM                   M IMCTM S5MA12 FTTL  07070IMCT  S5 PTB  00004                    0310 SR        000000000000 FUJITSU TEN (THAILAN16075HL0008009                                                                                                                              *          20160609IMF1606094.TXT
MDEDG6255819201606                D89828070100PV1D20160614000060SPEAKER ASM                   M IMCTM S5MA12 FTTL  07070IMCT  S5 PTB  00004                    1000 SR        000000000000 FUJITSU TEN (THAILAN16003JL002902916050HL0002002                                                                                                                *          20160609IMF1606094.TXT
MDEDG6255820201606                D89828070100PV1D20160614000030SPEAKER ASM                   M IMCTM S5MA12 FTTL  07070IMCT  S5 PTB  00004                    1510 SR        000000000000 FUJITSU TEN (THAILAN16081HL0082082                                                                                                                              *          20160609IMF1606094.TXT
MDEDG6255821201606                D89828070200PV1D20160614000030SPEAKER ASM                   M IMCTM S5MA13 FTTL  07070IMCT  S5 PTB  00005                    1000 SR        000000000000 FUJITSU TEN (THAILAN16050HL0002002                                                                                                                              *          20160609IMF1606094.TXT
MDEDG6255822201606                D89828070300PT1D20160614000030SPEAKER ASM                   M IMCTM S5NB042FTTL  07070IMCT  S5 PTB  00015                    1000 SR        000000000000 FUJITSU TEN (THAILAN16050HL0002002                                                                                                                              *          20160609IMF1606094.TXT
MDEDG6255823201606                D89831228600PT1D20160614000015RADIO;AM/FM,CD                M IMCTM S5NC06 FTTL  07070IMCT  S5 PTB  00003                    1000 SR        000000000000 FUJITSU TEN (THAILAN16050HL0002002                                                                                                                              *          20160609IMF1606094.TXT
MDEUG6225805201606                D89828070100PT4U20160613000030SPEAKER ASM                   M IMCTM S0FL05 FTTL  07070IMCT  S0 PTB  00004                    2300 SR        000000000000 FUJITSU TEN (THAILAN160B48U0161161                                                                                                                              *          20160609IMF1606094.TXT
MDEUG6225806201606                D89828070100PT4U20160614000060SPEAKER ASM                   M IMCTM S0FL05 FTTL  07070IMCT  S0 PTB  00004                    1100 SR        000000000000 FUJITSU TEN (THAILAN160B94U0002002160B95U0004004                                                                                                                *          20160609IMF1606094.TXT
MDEUG6225807201606                D89828070100PT4U20160614000060SPEAKER ASM                   M IMCTM S0FL05 FTTL  07070IMCT  S0 PTB  00004                    1510 SR        000000000000 FUJITSU TEN (THAILAN160B94U0003003160B95U0005005                                                                                                                *          20160609IMF1606094.TXT
MDEUG6225808201606                D89828070200PV4U20160613000030SPEAKER ASM                   M IMCTM S0FR05 FTTL  07070IMCT  S0 PTB  00005                    2300 SR        000000000000 FUJITSU TEN (THAILAN160B48U0161161                                                                                                                              *          20160609IMF1606094.TXT
MDEUG6225809201606                D89828070200PV4U20160614000060SPEAKER ASM                   M IMCTM S0FR05 FTTL  07070IMCT  S0 PTB  00005                    1100 SR        000000000000 FUJITSU TEN (THAILAN160B94U0002002160B95U0004004                                                                                                                *          20160609IMF1606094.TXT
MDEUG6225810201606                D89828070200PV4U20160614000060SPEAKER ASM                   M IMCTM S0FR05 FTTL  07070IMCT  S0 PTB  00005                    1510 SR        000000000000 FUJITSU TEN (THAILAN160B94U0003003160B95U0005005                                                                                                                *          20160609IMF1606094.TXT
MDEUG6225811201606                D89828070300PT4U20160613000030SPEAKER ASM                   M IMCTM S9TS02 FTTL  07070IMCT  S9 PTB  00015                    2300 SR        000000000000 FUJITSU TEN (THAILAN160B48U0161161                                                                                                                              *          20160609IMF1606094.TXT
MDEUG6225812201606                D89828070300PT4U20160614000060SPEAKER ASM                   M IMCTM S9TS02 FTTL  07070IMCT  S9 PTB  00015                    1100 SR        000000000000 FUJITSU TEN (THAILAN160B94U0002002160B95U0004004                                                                                                                *          20160609IMF1606094.TXT
MDEUG6225813201606                D89828070300PT4U20160614000060SPEAKER ASM                   M IMCTM S9TS02 FTTL  07070IMCT  S9 PTB  00015                    1510 SR        000000000000 FUJITSU TEN (THAILAN160B94U0003003160B95U0005005                                                                                                                *          20160609IMF1606094.TXT
