REC2016060220160603ISUZU                              47     
MDDDG6204050201606                D89821984430PT1D20160608000030RADIO;AM/FM,CD                M IMCTM S5NC06 FTTL  07070IMCT  S5 PTB  00005                    1000 SR        000000000000 FUJITSU TEN (THAILAN160JXEL0066066                                                                                                                              *          20160602IMF1606026.TXT
MDDDG6204051201606                D89821984430PT1D20160608000060RADIO;AM/FM,CD                M IMCTM S5NC06 FTTL  07070IMCT  S5 PTB  00005                    1510 SR        000000000000 FUJITSU TEN (THAILAN160JNGL0057057160JXAL0148148                                                                                                                *          20160602IMF1606026.TXT
MDDDG6204052201606                D89828070100PV1D20160608000060SPEAKER ASM                   M IMCTM S5MA12 FTTL  07070IMCT  S5 PTB  00004                    1000 SR        000000000000 FUJITSU TEN (THAILAN160JXEL0066066                                                                                                                              *          20160602IMF1606026.TXT
MDDDG6204053201606                D89828070100PV1D20160608000120SPEAKER ASM                   M IMCTM S5MA12 FTTL  07070IMCT  S5 PTB  00004                    1510 SR        000000000000 FUJITSU TEN (THAILAN160JNGL0057057160JXAL0148148                                                                                                                *          20160602IMF1606026.TXT
MDDUG6403144201606                D89828070100PT4U20160608000030SPEAKER ASM                   M IMCTM S0FL05 FTTL  07070IMCT  S0 PTB  00004                    1100 SR        000000000000 FUJITSU TEN (THAILAN160JUQU0013013                                                                                                                              *          20160602IMF1606026.TXT
MDDUG6403145201606                D89828070200PV4U20160608000030SPEAKER ASM                   M IMCTM S0FR05 FTTL  07070IMCT  S0 PTB  00005                    1100 SR        000000000000 FUJITSU TEN (THAILAN160JUQU0013013                                                                                                                              *          20160602IMF1606026.TXT
MDDUG6403146201606                D89828070300PT4U20160608000030SPEAKER ASM                   M IMCTM S9TS02 FTTL  07070IMCT  S9 PTB  00015                    1100 SR        000000000000 FUJITSU TEN (THAILAN160JUQU0013013                                                                                                                              *          20160602IMF1606026.TXT
MDDUG6403147201606                D89829093500PT4U20160608000015RADIO;ASM DVD (T              M IMCTM S9CO001FTTL  07070IMCT  S9 PTB  00003                    1100 SR        000000000000 FUJITSU TEN (THAILAN160JUQU0013013                                                                                                                              *          20160602IMF1606026.TXT
MDEDG6212044201606                D89805293700PV1D20160608000120SPEAKER ASM                   M IMCTM S5MA12 FTTL  07070IMCT  S5 PTB  00003                    0310 SR        000000000000 FUJITSU TEN (THAILAN15019FL006907015056CL0020021                                                                                                                *          20160602IMF1606026.TXT
MDEDG6212045201606                D89805293700PV1D20160608000120SPEAKER ASM                   M IMCTM S5MA12 FTTL  07070IMCT  S5 PTB  00003                    1000 SR        000000000000 FUJITSU TEN (THAILAN15013FL004304415018FL0053054                                                                                                                *          20160602IMF1606026.TXT
MDEDG6212046201606                D89805293700PV4D20160607000030SPEAKER ASM                   M IMCTM S0FR05 FTTL  07070IMCT  S0 PTB  00003                    2300 SR        000000000000 FUJITSU TEN (THAILAN15058CU0034034                                                                                                                              *          20160602IMF1606026.TXT
MDEDG6212047201606                D89805294000PT1D20160608000060SPEAKER ASM                   M IMCTM S5NB042FTTL  07070IMCT  S5 PTB  00015                    0310 SR        000000000000 FUJITSU TEN (THAILAN15056CL0020021                                                                                                                              *          20160602IMF1606026.TXT
MDEDG6212048201606                D89805294000PT1D20160608000060SPEAKER ASM                   M IMCTM S5NB042FTTL  07070IMCT  S5 PTB  00015                    1000 SR        000000000000 FUJITSU TEN (THAILAN15013FL0043044                                                                                                                              *          20160602IMF1606026.TXT
MDEDG6212049201606                D89805294200PT1D20160608000060SPEAKER ASM                   M IMCTM S5AS011FTTL  07070IMCT  S6 PTB  00030                    1000 SR        000000000000 FUJITSU TEN (THAILAN15013FL0043044                                                                                                                              *          20160602IMF1606026.TXT
MDEDG6212050201606                D89806470400PT1D20160608000030SPEAKER ASM;RDO,              M IMCTM S5EA18 FTTL  07070IMCT  S6 PTB  00015                    1000 SR        000000000000 FUJITSU TEN (THAILAN15013FL0043044                                                                                                                              *          20160602IMF1606026.TXT
MDEDG6212051201606                D89828070100PV1D20160607000150SPEAKER ASM                   M IMCTM S5MA12 FTTL  07070IMCT  S5 PTB  00004                    2230 SR        000000000000 FUJITSU TEN (THAILAN16022KL000200216052HL000600716061HL000200216078HL0006006                                                                                    *          20160602IMF1606026.TXT
MDEDG6212052201606                D89828070100PV1D20160608000060SPEAKER ASM                   M IMCTM S5MA12 FTTL  07070IMCT  S5 PTB  00004                    0310 SR        000000000000 FUJITSU TEN (THAILAN16003JL002602616078HL0007007                                                                                                                *          20160602IMF1606026.TXT
MDEDG6212053201606                D89828070100PV1D20160608000150SPEAKER ASM                   M IMCTM S5MA12 FTTL  07070IMCT  S5 PTB  00004                    1510 SR        000000000000 FUJITSU TEN (THAILAN16009JL002102116032JL000500616045HL000100116050HL0001001                                                                                    *          20160602IMF1606026.TXT
MDEDG6212054201606                D89828070100PV4D20160608000030SPEAKER ASM                   M IMCTM S0FL05 FTTL  07070IMCT  S0 PTB  00004                    0800 SR        000000000000 FUJITSU TEN (THAILAN16071HU0014014                                                                                                                              *          20160602IMF1606026.TXT
MDEDG6212055201606                D89828070100PV4D20160608000060SPEAKER ASM                   M IMCTM S0FL05 FTTL  07070IMCT  S0 PTB  00004                    1510 SR        000000000000 FUJITSU TEN (THAILAN16044LU000200216074HU0003003                                                                                                                *          20160602IMF1606026.TXT
MDEDG6212056201606                D89828070200PV1D20160607000090SPEAKER ASM                   M IMCTM S5MA13 FTTL  07070IMCT  S5 PTB  00005                    2230 SR        000000000000 FUJITSU TEN (THAILAN16052HL000600716061HL0002002                                                                                                                *          20160602IMF1606026.TXT
MDEDG6212057201606                D89828070200PV1D20160608000030SPEAKER ASM                   M IMCTM S5MA13 FTTL  07070IMCT  S5 PTB  00005                    1510 SR        000000000000 FUJITSU TEN (THAILAN16050HL0001001                                                                                                                              *          20160602IMF1606026.TXT
MDEDG6212058201606                D89828070200PV4D20160608000030SPEAKER ASM                   M IMCTM S0FR05 FTTL  07070IMCT  S0 PTB  00005                    0800 SR        000000000000 FUJITSU TEN (THAILAN16071HU0014014                                                                                                                              *          20160602IMF1606026.TXT
MDEDG6212059201606                D89828070200PV4D20160608000060SPEAKER ASM                   M IMCTM S0FR05 FTTL  07070IMCT  S0 PTB  00005                    1510 SR        000000000000 FUJITSU TEN (THAILAN16044LU000200216074HU0003003                                                                                                                *          20160602IMF1606026.TXT
MDEDG6212060201606                D89828070300PT1D20160607000090SPEAKER ASM                   M IMCTM S5NB042FTTL  07070IMCT  S5 PTB  00015                    2230 SR        000000000000 FUJITSU TEN (THAILAN16052HL000600716061HL0002002                                                                                                                *          20160602IMF1606026.TXT
MDEDG6212061201606                D89828070300PT1D20160608000060SPEAKER ASM                   M IMCTM S5NB042FTTL  07070IMCT  S5 PTB  00015                    1510 SR        000000000000 FUJITSU TEN (THAILAN16045HL000100116050HL0001001                                                                                                                *          20160602IMF1606026.TXT
MDEDG6212062201606                D89828070300PT4D20160608000030SPEAKER ASM                   M IMCTM S9TS02 FTTL  07070IMCT  S9 PTB  00015                    0800 SR        000000000000 FUJITSU TEN (THAILAN16071HU0014014                                                                                                                              *          20160602IMF1606026.TXT
MDEDG6212063201606                D89828070300PT4D20160608000060SPEAKER ASM                   M IMCTM S9TS02 FTTL  07070IMCT  S9 PTB  00015                    1510 SR        000000000000 FUJITSU TEN (THAILAN16044LU000200216074HU0003003                                                                                                                *          20160602IMF1606026.TXT
MDEDG6212064201606                D89831228600PT1D20160607000015RADIO;AM/FM,CD                M IMCTM S5NC06 FTTL  07070IMCT  S5 PTB  00003                    2230 SR        000000000000 FUJITSU TEN (THAILAN16061HL0002002                                                                                                                              *          20160602IMF1606026.TXT
MDEDG6212065201606                D89831228600PT1D20160608000030RADIO;AM/FM,CD                M IMCTM S5NC06 FTTL  07070IMCT  S5 PTB  00003                    1510 SR        000000000000 FUJITSU TEN (THAILAN16045HL000100116050HL0001001                                                                                                                *          20160602IMF1606026.TXT
MDEDG6212066201606                D89831228600PT4D20160608000015RADIO;AM/FM,CD                M IMCTM S9CO001FTTL  07070IMCT  S9 PTB  00003                    0800 SR        000000000000 FUJITSU TEN (THAILAN16071HU0014014                                                                                                                              *          20160602IMF1606026.TXT
MDEDG6212067201606                D89831229200PT4D20160608000015RADIO;AM/FM,CD                M IMCTM S9CO001FTTL  07070IMCT  S9 PTB  00003                    1510 SR        000000000000 FUJITSU TEN (THAILAN16044LU0002002                                                                                                                              *          20160602IMF1606026.TXT
MDEUG6204513201606                D89828070100PT4U20160607000030SPEAKER ASM                   M IMCTM S0FL05 FTTL  07070IMCT  S0 PTB  00004                    2030 SR        000000000000 FUJITSU TEN (THAILAN160B46U0055055                                                                                                                              *          20160602IMF1606026.TXT
MDEUG6204514201606                D89828070100PT4U20160607000030SPEAKER ASM                   M IMCTM S0FL05 FTTL  07070IMCT  S0 PTB  00004                    2300 SR        000000000000 FUJITSU TEN (THAILAN160B37U0016016                                                                                                                              *          20160602IMF1606026.TXT
MDEUG6204515201606                D89828070100PT4U20160608000060SPEAKER ASM                   M IMCTM S0FL05 FTTL  07070IMCT  S0 PTB  00004                    0800 SR        000000000000 FUJITSU TEN (THAILAN160B48U0152153                                                                                                                              *          20160602IMF1606026.TXT
MDEUG6204516201606                D89828070100PT4U20160608000030SPEAKER ASM                   M IMCTM S0FL05 FTTL  07070IMCT  S0 PTB  00004                    1100 SR        000000000000 FUJITSU TEN (THAILAN160B45U0019019                                                                                                                              *          20160602IMF1606026.TXT
MDEUG6204517201606                D89828070100PT4U20160608000060SPEAKER ASM                   M IMCTM S0FL05 FTTL  07070IMCT  S0 PTB  00004                    1510 SR        000000000000 FUJITSU TEN (THAILAN160B46U0056056160B48U0154154                                                                                                                *          20160602IMF1606026.TXT
MDEUG6204518201606                D89828070200PV4U20160607000030SPEAKER ASM                   M IMCTM S0FR05 FTTL  07070IMCT  S0 PTB  00005                    2030 SR        000000000000 FUJITSU TEN (THAILAN160B46U0055055                                                                                                                              *          20160602IMF1606026.TXT
MDEUG6204519201606                D89828070200PV4U20160607000030SPEAKER ASM                   M IMCTM S0FR05 FTTL  07070IMCT  S0 PTB  00005                    2300 SR        000000000000 FUJITSU TEN (THAILAN160B37U0016016                                                                                                                              *          20160602IMF1606026.TXT
MDEUG6204520201606                D89828070200PV4U20160608000060SPEAKER ASM                   M IMCTM S0FR05 FTTL  07070IMCT  S0 PTB  00005                    0800 SR        000000000000 FUJITSU TEN (THAILAN160B48U0152153                                                                                                                              *          20160602IMF1606026.TXT
MDEUG6204521201606                D89828070200PV4U20160608000030SPEAKER ASM                   M IMCTM S0FR05 FTTL  07070IMCT  S0 PTB  00005                    1100 SR        000000000000 FUJITSU TEN (THAILAN160B45U0019019                                                                                                                              *          20160602IMF1606026.TXT
MDEUG6204522201606                D89828070200PV4U20160608000060SPEAKER ASM                   M IMCTM S0FR05 FTTL  07070IMCT  S0 PTB  00005                    1510 SR        000000000000 FUJITSU TEN (THAILAN160B46U0056056160B48U0154154                                                                                                                *          20160602IMF1606026.TXT
MDEUG6204523201606                D89828070300PT4U20160607000030SPEAKER ASM                   M IMCTM S9TS02 FTTL  07070IMCT  S9 PTB  00015                    2030 SR        000000000000 FUJITSU TEN (THAILAN160B46U0055055                                                                                                                              *          20160602IMF1606026.TXT
MDEUG6204524201606                D89828070300PT4U20160607000030SPEAKER ASM                   M IMCTM S9TS02 FTTL  07070IMCT  S9 PTB  00015                    2300 SR        000000000000 FUJITSU TEN (THAILAN160B37U0016016                                                                                                                              *          20160602IMF1606026.TXT
MDEUG6204525201606                D89828070300PT4U20160608000060SPEAKER ASM                   M IMCTM S9TS02 FTTL  07070IMCT  S9 PTB  00015                    0800 SR        000000000000 FUJITSU TEN (THAILAN160B48U0152153                                                                                                                              *          20160602IMF1606026.TXT
MDEUG6204526201606                D89828070300PT4U20160608000030SPEAKER ASM                   M IMCTM S9TS02 FTTL  07070IMCT  S9 PTB  00015                    1100 SR        000000000000 FUJITSU TEN (THAILAN160B45U0019019                                                                                                                              *          20160602IMF1606026.TXT
MDEUG6204527201606                D89828070300PT4U20160608000060SPEAKER ASM                   M IMCTM S9TS02 FTTL  07070IMCT  S9 PTB  00015                    1510 SR        000000000000 FUJITSU TEN (THAILAN160B46U0056056160B48U0154154                                                                                                                *          20160602IMF1606026.TXT
