REC2016061320160614ISUZU                              52     
MDDDG6237200201606                D89821984430PT1D20160617000030RADIO;AM/FM,CD                M IMCTM S5NC06 FTTL  07070IMCT  S5 PTB  00005                    1000 SR        000000000000 FUJITSU TEN (THAILAN160JXAL0153153                                                                                                                              *          20160613IMF1606135.TXT
MDDDG6237201201606                D89828070100PV1D20160616000060SPEAKER ASM                   M IMCTM S5MA12 FTTL  07070IMCT  S5 PTB  00004                    1510 SR        000000000000 FUJITSU TEN (THAILAN160JYSL0111111                                                                                                                              *          20160613IMF1606135.TXT
MDDDG6237202201606                D89828070100PV1D20160616000060SPEAKER ASM                   M IMCTM S5MA12 FTTL  07070IMCT  S5 PTB  00004                    2230 SR        000000000000 FUJITSU TEN (THAILAN160JYQL0041041                                                                                                                              *          20160613IMF1606135.TXT
MDDDG6237203201606                D89828070100PV1D20160617000180SPEAKER ASM                   M IMCTM S5MA12 FTTL  07070IMCT  S5 PTB  00004                    0310 SR        000000000000 FUJITSU TEN (THAILAN160JYQL0042042160JYSL0112112160JZFL0118118                                                                                                  *          20160613IMF1606135.TXT
MDDDG6237204201606                D89828070100PV1D20160617000180SPEAKER ASM                   M IMCTM S5MA12 FTTL  07070IMCT  S5 PTB  00004                    1000 SR        000000000000 FUJITSU TEN (THAILAN160JXAL0153153160JXDL0017017160JYSL0113113                                                                                                  *          20160613IMF1606135.TXT
MDDDG6237205201606                D89828070100PV1D20160617000060SPEAKER ASM                   M IMCTM S5MA12 FTTL  07070IMCT  S5 PTB  00004                    1510 SR        000000000000 FUJITSU TEN (THAILAN160JYSL0114114                                                                                                                              *          20160613IMF1606135.TXT
MDDDG6237206201606                D89828070200PV1D20160617000060SPEAKER ASM                   M IMCTM S5MA13 FTTL  07070IMCT  S5 PTB  00005                    0310 SR        000000000000 FUJITSU TEN (THAILAN160JZFL0118118                                                                                                                              *          20160613IMF1606135.TXT
MDDDG6237207201606                D89828070300PT1D20160616000060SPEAKER ASM                   M IMCTM S5NB042FTTL  07070IMCT  S5 PTB  00015                    1510 SR        000000000000 FUJITSU TEN (THAILAN160JYSL0111111                                                                                                                              *          20160613IMF1606135.TXT
MDDDG6237208201606                D89828070300PT1D20160616000060SPEAKER ASM                   M IMCTM S5NB042FTTL  07070IMCT  S5 PTB  00015                    2230 SR        000000000000 FUJITSU TEN (THAILAN160JYQL0041041                                                                                                                              *          20160613IMF1606135.TXT
MDDDG6237209201606                D89828070300PT1D20160617000180SPEAKER ASM                   M IMCTM S5NB042FTTL  07070IMCT  S5 PTB  00015                    0310 SR        000000000000 FUJITSU TEN (THAILAN160JYQL0042042160JYSL0112112160JZFL0118118                                                                                                  *          20160613IMF1606135.TXT
MDDDG6237210201606                D89828070300PT1D20160617000060SPEAKER ASM                   M IMCTM S5NB042FTTL  07070IMCT  S5 PTB  00015                    1000 SR        000000000000 FUJITSU TEN (THAILAN160JYSL0113113                                                                                                                              *          20160613IMF1606135.TXT
MDDDG6237211201606                D89828070300PT1D20160617000060SPEAKER ASM                   M IMCTM S5NB042FTTL  07070IMCT  S5 PTB  00015                    1510 SR        000000000000 FUJITSU TEN (THAILAN160JYSL0114114                                                                                                                              *          20160613IMF1606135.TXT
MDDDG6237212201606                D89829645900PT1D20160617000030RADIO;ASM DVD                 M IMCTM S5NC06 FTTL  07070IMCT  S5 CPB  00003                    0310 SR        000000000000 FUJITSU TEN (THAILAN160JZFL0118118                                                                                                                              *          20160613IMF1606135.TXT
MDDDG6237213201606                D89831228300PT1D20160616000060RADIO;AM/FM,CD                M IMCTM S5NC06 FTTL  07070IMCT  S5 CPB  00003                    2230 SR        000000000000 FUJITSU TEN (THAILAN160JYQL0041041160JYSL0111111                                                                                                                *          20160613IMF1606135.TXT
MDDDG6237214201606                D89831228300PT1D20160617000060RADIO;AM/FM,CD                M IMCTM S5NC06 FTTL  07070IMCT  S5 CPB  00003                    0310 SR        000000000000 FUJITSU TEN (THAILAN160JYQL0042042160JYSL0112112                                                                                                                *          20160613IMF1606135.TXT
MDDDG6237215201606                D89831228300PT1D20160617000030RADIO;AM/FM,CD                M IMCTM S5NC06 FTTL  07070IMCT  S5 CPB  00003                    1000 SR        000000000000 FUJITSU TEN (THAILAN160JYSL0113113                                                                                                                              *          20160613IMF1606135.TXT
MDDDG6237216201606                D89831228300PT1D20160617000030RADIO;AM/FM,CD                M IMCTM S5NC06 FTTL  07070IMCT  S5 CPB  00003                    1510 SR        000000000000 FUJITSU TEN (THAILAN160JYSL0114114                                                                                                                              *          20160613IMF1606135.TXT
MDDUG6419697201606                D89828070100PT4U20160617000030SPEAKER ASM                   M IMCTM S0FL05 FTTL  07070IMCT  S0 PTB  00004                    0310 SR        000000000000 FUJITSU TEN (THAILAN160JURU0030030                                                                                                                              *          20160613IMF1606135.TXT
MDDUG6419698201606                D89828070200PV4U20160617000030SPEAKER ASM                   M IMCTM S0FR05 FTTL  07070IMCT  S0 PTB  00005                    0310 SR        000000000000 FUJITSU TEN (THAILAN160JURU0030030                                                                                                                              *          20160613IMF1606135.TXT
MDDUG6419699201606                D89828070300PT4U20160617000030SPEAKER ASM                   M IMCTM S9TS02 FTTL  07070IMCT  S9 PTB  00015                    0310 SR        000000000000 FUJITSU TEN (THAILAN160JURU0030030                                                                                                                              *          20160613IMF1606135.TXT
MDDUG6419700201606                D89829093500PT4U20160617000015RADIO;ASM DVD (T              M IMCTM S9CO001FTTL  07070IMCT  S9 PTB  00003                    0310 SR        000000000000 FUJITSU TEN (THAILAN160JURU0030030                                                                                                                              *          20160613IMF1606135.TXT
MDEDG6272462201606                D89805293700PV4D20160616000030SPEAKER ASM                   M IMCTM S0FR05 FTTL  07070IMCT  S0 PTB  00003                    2300 SR        000000000000 FUJITSU TEN (THAILAN15076DU0004004                                                                                                                              *          20160613IMF1606135.TXT
MDEDG6272463201606                D89805293700PV4D20160617000030SPEAKER ASM                   M IMCTM S0FR05 FTTL  07070IMCT  S0 PTB  00003                    0800 SR        000000000000 FUJITSU TEN (THAILAN15019FU0020020                                                                                                                              *          20160613IMF1606135.TXT
MDEDG6272464201606                D89805293700PV4D20160617000030SPEAKER ASM                   M IMCTM S0FR05 FTTL  07070IMCT  S0 PTB  00003                    1100 SR        000000000000 FUJITSU TEN (THAILAN15019FU0021021                                                                                                                              *          20160613IMF1606135.TXT
MDEDG6272465201606                D89805293700PV4D20160617000030SPEAKER ASM                   M IMCTM S0FR05 FTTL  07070IMCT  S0 PTB  00003                    2030 SR        000000000000 FUJITSU TEN (THAILAN15019FU0022022                                                                                                                              *          20160613IMF1606135.TXT
MDEDG6272466201606                D89828070100PV1D20160616000060SPEAKER ASM                   M IMCTM S5MA12 FTTL  07070IMCT  S5 PTB  00004                    2230 SR        000000000000 FUJITSU TEN (THAILAN16014JL000200216056HL0003003                                                                                                                *          20160613IMF1606135.TXT
MDEDG6272467201606                D89828070100PV1D20160617000030SPEAKER ASM                   M IMCTM S5MA12 FTTL  07070IMCT  S5 PTB  00004                    0310 SR        000000000000 FUJITSU TEN (THAILAN16067HL0003003                                                                                                                              *          20160613IMF1606135.TXT
MDEDG6272468201606                D89828070100PV1D20160617000060SPEAKER ASM                   M IMCTM S5MA12 FTTL  07070IMCT  S5 PTB  00004                    1510 SR        000000000000 FUJITSU TEN (THAILAN16078LL0001002                                                                                                                              *          20160613IMF1606135.TXT
MDEDG6272469201606                D89828070200PV1D20160616000030SPEAKER ASM                   M IMCTM S5MA13 FTTL  07070IMCT  S5 PTB  00005                    2230 SR        000000000000 FUJITSU TEN (THAILAN16014JL0002002                                                                                                                              *          20160613IMF1606135.TXT
MDEDG6272470201606                D89828070200PV1D20160617000030SPEAKER ASM                   M IMCTM S5MA13 FTTL  07070IMCT  S5 PTB  00005                    0310 SR        000000000000 FUJITSU TEN (THAILAN16067HL0003003                                                                                                                              *          20160613IMF1606135.TXT
MDEDG6272471201606                D89828070200PV1D20160617000060SPEAKER ASM                   M IMCTM S5MA13 FTTL  07070IMCT  S5 PTB  00005                    1510 SR        000000000000 FUJITSU TEN (THAILAN16078LL0001002                                                                                                                              *          20160613IMF1606135.TXT
MDEDG6272472201606                D89828070300PT1D20160616000060SPEAKER ASM                   M IMCTM S5NB042FTTL  07070IMCT  S5 PTB  00015                    2230 SR        000000000000 FUJITSU TEN (THAILAN16014JL000200216056HL0003003                                                                                                                *          20160613IMF1606135.TXT
MDEDG6272473201606                D89828070300PT1D20160617000030SPEAKER ASM                   M IMCTM S5NB042FTTL  07070IMCT  S5 PTB  00015                    0310 SR        000000000000 FUJITSU TEN (THAILAN16067HL0003003                                                                                                                              *          20160613IMF1606135.TXT
MDEDG6272474201606                D89828070300PT1D20160617000060SPEAKER ASM                   M IMCTM S5NB042FTTL  07070IMCT  S5 PTB  00015                    1510 SR        000000000000 FUJITSU TEN (THAILAN16078LL0001002                                                                                                                              *          20160613IMF1606135.TXT
MDEDG6272475201606                D89831228600PT1D20160616000015RADIO;AM/FM,CD                M IMCTM S5NC06 FTTL  07070IMCT  S5 PTB  00003                    2230 SR        000000000000 FUJITSU TEN (THAILAN16056HL0003003                                                                                                                              *          20160613IMF1606135.TXT
MDEDG6272476201606                D89831228600PT1D20160617000015RADIO;AM/FM,CD                M IMCTM S5NC06 FTTL  07070IMCT  S5 PTB  00003                    0310 SR        000000000000 FUJITSU TEN (THAILAN16067HL0003003                                                                                                                              *          20160613IMF1606135.TXT
MDEDG6272477201606                D89831229200PT1D20160616000015RADIO;AM/FM,CD                M IMCTM S5NC06 FTTL  07070IMCT  S5 PTB  00003                    2230 SR        000000000000 FUJITSU TEN (THAILAN16014JL0002002                                                                                                                              *          20160613IMF1606135.TXT
MDEUG6238181201606                D89828070100PT4U20160616000030SPEAKER ASM                   M IMCTM S0FL05 FTTL  07070IMCT  S0 PTB  00004                    2300 SR        000000000000 FUJITSU TEN (THAILAN160B37U0020020                                                                                                                              *          20160613IMF1606135.TXT
MDEUG6238182201606                D89828070100PT4U20160617000030SPEAKER ASM                   M IMCTM S0FL05 FTTL  07070IMCT  S0 PTB  00004                    0800 SR        000000000000 FUJITSU TEN (THAILAN160B48U0167167                                                                                                                              *          20160613IMF1606135.TXT
MDEUG6238183201606                D89828070100PT4U20160617000030SPEAKER ASM                   M IMCTM S0FL05 FTTL  07070IMCT  S0 PTB  00004                    1100 SR        000000000000 FUJITSU TEN (THAILAN160B48U0168168                                                                                                                              *          20160613IMF1606135.TXT
MDEUG6238184201606                D89828070100PT4U20160617000030SPEAKER ASM                   M IMCTM S0FL05 FTTL  07070IMCT  S0 PTB  00004                    1510 SR        000000000000 FUJITSU TEN (THAILAN160B45U0025025                                                                                                                              *          20160613IMF1606135.TXT
MDEUG6238185201606                D89828070100PT4U20160617000030SPEAKER ASM                   M IMCTM S0FL05 FTTL  07070IMCT  S0 PTB  00004                    2030 SR        000000000000 FUJITSU TEN (THAILAN160B48U0169169                                                                                                                              *          20160613IMF1606135.TXT
MDEUG6238186201606                D89828070200PV4U20160616000030SPEAKER ASM                   M IMCTM S0FR05 FTTL  07070IMCT  S0 PTB  00005                    2300 SR        000000000000 FUJITSU TEN (THAILAN160B37U0020020                                                                                                                              *          20160613IMF1606135.TXT
MDEUG6238187201606                D89828070200PV4U20160617000030SPEAKER ASM                   M IMCTM S0FR05 FTTL  07070IMCT  S0 PTB  00005                    0800 SR        000000000000 FUJITSU TEN (THAILAN160B48U0167167                                                                                                                              *          20160613IMF1606135.TXT
MDEUG6238188201606                D89828070200PV4U20160617000030SPEAKER ASM                   M IMCTM S0FR05 FTTL  07070IMCT  S0 PTB  00005                    1100 SR        000000000000 FUJITSU TEN (THAILAN160B48U0168168                                                                                                                              *          20160613IMF1606135.TXT
MDEUG6238189201606                D89828070200PV4U20160617000030SPEAKER ASM                   M IMCTM S0FR05 FTTL  07070IMCT  S0 PTB  00005                    1510 SR        000000000000 FUJITSU TEN (THAILAN160B45U0025025                                                                                                                              *          20160613IMF1606135.TXT
MDEUG6238190201606                D89828070200PV4U20160617000030SPEAKER ASM                   M IMCTM S0FR05 FTTL  07070IMCT  S0 PTB  00005                    2030 SR        000000000000 FUJITSU TEN (THAILAN160B48U0169169                                                                                                                              *          20160613IMF1606135.TXT
MDEUG6238191201606                D89828070300PT4U20160616000030SPEAKER ASM                   M IMCTM S9TS02 FTTL  07070IMCT  S9 PTB  00015                    2300 SR        000000000000 FUJITSU TEN (THAILAN160B37U0020020                                                                                                                              *          20160613IMF1606135.TXT
MDEUG6238192201606                D89828070300PT4U20160617000030SPEAKER ASM                   M IMCTM S9TS02 FTTL  07070IMCT  S9 PTB  00015                    0800 SR        000000000000 FUJITSU TEN (THAILAN160B48U0167167                                                                                                                              *          20160613IMF1606135.TXT
MDEUG6238193201606                D89828070300PT4U20160617000030SPEAKER ASM                   M IMCTM S9TS02 FTTL  07070IMCT  S9 PTB  00015                    1100 SR        000000000000 FUJITSU TEN (THAILAN160B48U0168168                                                                                                                              *          20160613IMF1606135.TXT
MDEUG6238194201606                D89828070300PT4U20160617000030SPEAKER ASM                   M IMCTM S9TS02 FTTL  07070IMCT  S9 PTB  00015                    1510 SR        000000000000 FUJITSU TEN (THAILAN160B45U0025025                                                                                                                              *          20160613IMF1606135.TXT
MDEUG6238195201606                D89828070300PT4U20160617000030SPEAKER ASM                   M IMCTM S9TS02 FTTL  07070IMCT  S9 PTB  00015                    2030 SR        000000000000 FUJITSU TEN (THAILAN160B48U0169169                                                                                                                              *          20160613IMF1606135.TXT
