REC2016062820160628ISUZU                              35     
MDDDG6292463201607                D89821984430PT1D20160702000030RADIO;AM/FM,CD                M IMCTM S5NC06 FTTL  07070IMCT  S5 PTB  00005                    0310 SR        000000000000 FUJITSU TEN (THAILAN160JXAL0166166                                                                                                                              *          20160628IMF1606284.TXT
MDDDG6292464201607                D89828070100PV1D20160702000120SPEAKER ASM                   M IMCTM S5MA12 FTTL  07070IMCT  S5 PTB  00004                    0310 SR        000000000000 FUJITSU TEN (THAILAN160JXAL0166166160JYCL0030030                                                                                                                *          20160628IMF1606284.TXT
MDDDG6292465201607                D89828070100PV1D20160704000060SPEAKER ASM                   M IMCTM S5MA12 FTTL  07070IMCT  S5 PTB  00004                    1000 SR        000000000000 FUJITSU TEN (THAILAN160JZFL0123123                                                                                                                              *          20160628IMF1606284.TXT
MDDDG6292466201607                D89828070100PV1D20160704000060SPEAKER ASM                   M IMCTM S5MA12 FTTL  07070IMCT  S5 PTB  00004                    1510 SR        000000000000 FUJITSU TEN (THAILAN160JYCL0031031                                                                                                                              *          20160628IMF1606284.TXT
MDDDG6292467201607                D89828070200PV1D20160704000060SPEAKER ASM                   M IMCTM S5MA13 FTTL  07070IMCT  S5 PTB  00005                    1000 SR        000000000000 FUJITSU TEN (THAILAN160JZFL0123123                                                                                                                              *          20160628IMF1606284.TXT
MDDDG6292468201607                D89828070300PT1D20160702000060SPEAKER ASM                   M IMCTM S5NB042FTTL  07070IMCT  S5 PTB  00015                    0310 SR        000000000000 FUJITSU TEN (THAILAN160JYCL0030030                                                                                                                              *          20160628IMF1606284.TXT
MDDDG6292469201607                D89828070300PT1D20160704000060SPEAKER ASM                   M IMCTM S5NB042FTTL  07070IMCT  S5 PTB  00015                    1000 SR        000000000000 FUJITSU TEN (THAILAN160JZFL0123123                                                                                                                              *          20160628IMF1606284.TXT
MDDDG6292470201607                D89828070300PT1D20160704000060SPEAKER ASM                   M IMCTM S5NB042FTTL  07070IMCT  S5 PTB  00015                    1510 SR        000000000000 FUJITSU TEN (THAILAN160JYCL0031031                                                                                                                              *          20160628IMF1606284.TXT
MDDDG6292471201607                D89829645900PT1D20160704000030RADIO;ASM DVD                 M IMCTM S5NC06 FTTL  07070IMCT  S5 CPB  00003                    1000 SR        000000000000 FUJITSU TEN (THAILAN160JZFL0123123                                                                                                                              *          20160628IMF1606284.TXT
MDDDG6292472201607                D89831228300PT1D20160702000030RADIO;AM/FM,CD                M IMCTM S5NC06 FTTL  07070IMCT  S5 CPB  00003                    0310 SR        000000000000 FUJITSU TEN (THAILAN160JYCL0030030                                                                                                                              *          20160628IMF1606284.TXT
MDDDG6292473201607                D89831228300PT1D20160704000030RADIO;AM/FM,CD                M IMCTM S5NC06 FTTL  07070IMCT  S5 CPB  00003                    1510 SR        000000000000 FUJITSU TEN (THAILAN160JYCL0031031                                                                                                                              *          20160628IMF1606284.TXT
MDDUG6436276201607                D89828070100PT4U20160704000030SPEAKER ASM                   M IMCTM S0FL05 FTTL  07070IMCT  S0 PTB  00004                    1510 SR        000000000000 FUJITSU TEN (THAILAN160JUPU0012012                                                                                                                              *          20160628IMF1606284.TXT
MDDUG6436277201607                D89828070200PV4U20160704000030SPEAKER ASM                   M IMCTM S0FR05 FTTL  07070IMCT  S0 PTB  00005                    1510 SR        000000000000 FUJITSU TEN (THAILAN160JUPU0012012                                                                                                                              *          20160628IMF1606284.TXT
MDDUG6436278201607                D89828070300PT4U20160704000030SPEAKER ASM                   M IMCTM S9TS02 FTTL  07070IMCT  S9 PTB  00015                    1510 SR        000000000000 FUJITSU TEN (THAILAN160JUPU0012012                                                                                                                              *          20160628IMF1606284.TXT
MDDUG6436279201607                D89831228400PT4U20160704000015RADIO;AM/FM,CD                M IMCTM S9CO001FTTL  07070IMCT  S9 CPB  00003                    1510 SR        000000000000 FUJITSU TEN (THAILAN160JUPU0012012                                                                                                                              *          20160628IMF1606284.TXT
MDEDG6331077201607                D89805293700PV1D20160701000120SPEAKER ASM                   M IMCTM S5MA12 FTTL  07070IMCT  S5 PTB  00003                    2230 SR        000000000000 FUJITSU TEN (THAILAN15019FL008208315076DL0007008                                                                                                                *          20160628IMF1606284.TXT
MDEDG6331078201607                D89828070100PV1D20160701000060SPEAKER ASM                   M IMCTM S5MA12 FTTL  07070IMCT  S5 PTB  00004                    2230 SR        000000000000 FUJITSU TEN (THAILAN16075HL001001016081HL0089089                                                                                                                *          20160628IMF1606284.TXT
MDEDG6331079201607                D89828070100PV1D20160702000060SPEAKER ASM                   M IMCTM S5MA12 FTTL  07070IMCT  S5 PTB  00004                    0310 SR        000000000000 FUJITSU TEN (THAILAN16007JL0030031                                                                                                                              *          20160628IMF1606284.TXT
MDEDG6331080201607                D89828070100PV1D20160704000120SPEAKER ASM                   M IMCTM S5MA12 FTTL  07070IMCT  S5 PTB  00004                    1000 SR        000000000000 FUJITSU TEN (THAILAN16047HL000800916066HL0004005                                                                                                                *          20160628IMF1606284.TXT
MDEDG6331081201607                D89828070100PV1D20160704000060SPEAKER ASM                   M IMCTM S5MA12 FTTL  07070IMCT  S5 PTB  00004                    1510 SR        000000000000 FUJITSU TEN (THAILAN16047KL0012013                                                                                                                              *          20160628IMF1606284.TXT
MDEDG6331082201607                D89828070200PV1D20160704000060SPEAKER ASM                   M IMCTM S5MA13 FTTL  07070IMCT  S5 PTB  00005                    1000 SR        000000000000 FUJITSU TEN (THAILAN16066HL0004005                                                                                                                              *          20160628IMF1606284.TXT
MDEDG6331083201607                D89828070200PV1D20160704000060SPEAKER ASM                   M IMCTM S5MA13 FTTL  07070IMCT  S5 PTB  00005                    1510 SR        000000000000 FUJITSU TEN (THAILAN16047KL0012013                                                                                                                              *          20160628IMF1606284.TXT
MDEDG6331084201607                D89828070300PT1D20160704000120SPEAKER ASM                   M IMCTM S5NB042FTTL  07070IMCT  S5 PTB  00015                    1000 SR        000000000000 FUJITSU TEN (THAILAN16047HL000800916066HL0004005                                                                                                                *          20160628IMF1606284.TXT
MDEDG6331085201607                D89828070300PT1D20160704000060SPEAKER ASM                   M IMCTM S5NB042FTTL  07070IMCT  S5 PTB  00015                    1510 SR        000000000000 FUJITSU TEN (THAILAN16047KL0012013                                                                                                                              *          20160628IMF1606284.TXT
MDEDG6331086201607                D89831228600PT1D20160704000060RADIO;AM/FM,CD                M IMCTM S5NC06 FTTL  07070IMCT  S5 PTB  00003                    1000 SR        000000000000 FUJITSU TEN (THAILAN16047HL000800916066HL0004005                                                                                                                *          20160628IMF1606284.TXT
MDEUG6283859201607                D89828070100PT4U20160701000060SPEAKER ASM                   M IMCTM S0FL05 FTTL  07070IMCT  S0 PTB  00004                    2300 SR        000000000000 FUJITSU TEN (THAILAN160B40U0011011160B42U0053053                                                                                                                *          20160628IMF1606284.TXT
MDEUG6283860201607                D89828070100PT4U20160704000060SPEAKER ASM                   M IMCTM S0FL05 FTTL  07070IMCT  S0 PTB  00004                    0800 SR        000000000000 FUJITSU TEN (THAILAN160B41U0035035160B48U0188188                                                                                                                *          20160628IMF1606284.TXT
MDEUG6283861201607                D89828070100PT4U20160704000030SPEAKER ASM                   M IMCTM S0FL05 FTTL  07070IMCT  S0 PTB  00004                    1100 SR        000000000000 FUJITSU TEN (THAILAN160B37U0023023                                                                                                                              *          20160628IMF1606284.TXT
MDEUG6283862201607                D89828070200PV4U20160701000060SPEAKER ASM                   M IMCTM S0FR05 FTTL  07070IMCT  S0 PTB  00005                    2300 SR        000000000000 FUJITSU TEN (THAILAN160B40U0011011160B42U0053053                                                                                                                *          20160628IMF1606284.TXT
MDEUG6283863201607                D89828070200PV4U20160704000060SPEAKER ASM                   M IMCTM S0FR05 FTTL  07070IMCT  S0 PTB  00005                    0800 SR        000000000000 FUJITSU TEN (THAILAN160B41U0035035160B48U0188188                                                                                                                *          20160628IMF1606284.TXT
MDEUG6283864201607                D89828070200PV4U20160704000030SPEAKER ASM                   M IMCTM S0FR05 FTTL  07070IMCT  S0 PTB  00005                    1100 SR        000000000000 FUJITSU TEN (THAILAN160B37U0023023                                                                                                                              *          20160628IMF1606284.TXT
MDEUG6283865201607                D89828070300PT4U20160701000060SPEAKER ASM                   M IMCTM S9TS02 FTTL  07070IMCT  S9 PTB  00015                    2300 SR        000000000000 FUJITSU TEN (THAILAN160B40U0011011160B42U0053053                                                                                                                *          20160628IMF1606284.TXT
MDEUG6283866201607                D89828070300PT4U20160704000060SPEAKER ASM                   M IMCTM S9TS02 FTTL  07070IMCT  S9 PTB  00015                    0800 SR        000000000000 FUJITSU TEN (THAILAN160B41U0035035160B48U0188188                                                                                                                *          20160628IMF1606284.TXT
MDEUG6283867201607                D89828070300PT4U20160704000030SPEAKER ASM                   M IMCTM S9TS02 FTTL  07070IMCT  S9 PTB  00015                    1100 SR        000000000000 FUJITSU TEN (THAILAN160B37U0023023                                                                                                                              *          20160628IMF1606284.TXT
MDEUG6283868201607                D89831228600PT4U20160701000015RADIO;AM/FM,CD                M IMCTM S9CO001FTTL  07070IMCT  S9 PTB  00003                    2300 SR        000000000000 FUJITSU TEN (THAILAN160B40U0011011                                                                                                                              *          20160628IMF1606284.TXT
