REC2016063020160630ISUZU                              6      
MAEDG6602480201609                 89828070100PV1D20160818000002SPEAKER ASM                   M IMCTM ST00000FTTL  07070IMCT  ST PTB  00004  DC                0000 SR        000000000000 FUJITSU TEN (THAILAN17058LL0002002                                                                                                                              *P         20160630IMF1606301.TXT
MAEDG6602481201609                 89828070100PV4D20160818000002SPEAKER ASM                   M IMCTM ST00000FTTL  07070IMCT  ST PTB  00004  DC                0000 SR        000000000000 FUJITSU TEN (THAILAN17057LU0001001                                                                                                                              *P         20160630IMF1606301.TXT
MAEDG6602482201609                 89828070200PV1D20160818000002SPEAKER ASM                   M IMCTM ST00000FTTL  07070IMCT  ST PTB  00005  DC                0000 SR        000000000000 FUJITSU TEN (THAILAN17058LL0002002                                                                                                                              *P         20160630IMF1606301.TXT
MAEDG6602483201609                 89828070200PV4D20160818000002SPEAKER ASM                   M IMCTM ST00000FTTL  07070IMCT  ST PTB  00005  DC                0000 SR        000000000000 FUJITSU TEN (THAILAN17057LU0001001                                                                                                                              *P         20160630IMF1606301.TXT
MAEDG6602484201609                 89828070300PT1D20160818000002SPEAKER ASM                   M IMCTM ST00000FTTL  07070IMCT  ST PTB  00015  DC                0000 SR        000000000000 FUJITSU TEN (THAILAN17058LL0002002                                                                                                                              *P         20160630IMF1606301.TXT
MAEDG6602485201609                 89828070300PT4D20160818000002SPEAKER ASM                   M IMCTM ST00000FTTL  07070IMCT  ST PTB  00015  DC                0000 SR        000000000000 FUJITSU TEN (THAILAN17057LU0001001                                                                                                                              *P         20160630IMF1606301.TXT
