REC2016060820160608ISUZU                              51     
MDDDG6215234201606                D89821984430PT1D20160613000060RADIO;AM/FM,CD                M IMCTM S5NC06 FTTL  07070IMCT  S5 PTB  00005                    1000 SR        000000000000 FUJITSU TEN (THAILAN160JNGL0058058160JZSL0030030                                                                                                                *          20160608IMF1606083.TXT
MDDDG6215235201606                D89828070100PV1D20160611000120SPEAKER ASM                   M IMCTM S5MA12 FTTL  07070IMCT  S5 PTB  00004                    2230 SR        000000000000 FUJITSU TEN (THAILAN160JYQL0034034160JYSL0100100                                                                                                                *          20160608IMF1606083.TXT
MDDDG6215236201606                D89828070100PV1D20160612000120SPEAKER ASM                   M IMCTM S5MA12 FTTL  07070IMCT  S5 PTB  00004                    0310 SR        000000000000 FUJITSU TEN (THAILAN160JYQL0035035160JYSL0101101                                                                                                                *          20160608IMF1606083.TXT
MDDDG6215237201606                D89828070100PV1D20160613000120SPEAKER ASM                   M IMCTM S5MA12 FTTL  07070IMCT  S5 PTB  00004                    1000 SR        000000000000 FUJITSU TEN (THAILAN160JNGL0058058160JZSL0030030                                                                                                                *          20160608IMF1606083.TXT
MDDDG6215238201606                D89828070100PV1D20160613000060SPEAKER ASM                   M IMCTM S5MA12 FTTL  07070IMCT  S5 PTB  00004                    1510 SR        000000000000 FUJITSU TEN (THAILAN160JZFL0114114                                                                                                                              *          20160608IMF1606083.TXT
MDDDG6215239201606                D89828070200PV1D20160613000060SPEAKER ASM                   M IMCTM S5MA13 FTTL  07070IMCT  S5 PTB  00005                    1510 SR        000000000000 FUJITSU TEN (THAILAN160JZFL0114114                                                                                                                              *          20160608IMF1606083.TXT
MDDDG6215240201606                D89828070300PT1D20160611000120SPEAKER ASM                   M IMCTM S5NB042FTTL  07070IMCT  S5 PTB  00015                    2230 SR        000000000000 FUJITSU TEN (THAILAN160JYQL0034034160JYSL0100100                                                                                                                *          20160608IMF1606083.TXT
MDDDG6215241201606                D89828070300PT1D20160612000120SPEAKER ASM                   M IMCTM S5NB042FTTL  07070IMCT  S5 PTB  00015                    0310 SR        000000000000 FUJITSU TEN (THAILAN160JYQL0035035160JYSL0101101                                                                                                                *          20160608IMF1606083.TXT
MDDDG6215242201606                D89828070300PT1D20160613000060SPEAKER ASM                   M IMCTM S5NB042FTTL  07070IMCT  S5 PTB  00015                    1510 SR        000000000000 FUJITSU TEN (THAILAN160JZFL0114114                                                                                                                              *          20160608IMF1606083.TXT
MDDDG6215243201606                D89829645900PT1D20160613000030RADIO;ASM DVD                 M IMCTM S5NC06 FTTL  07070IMCT  S5 CPB  00003                    1510 SR        000000000000 FUJITSU TEN (THAILAN160JZFL0114114                                                                                                                              *          20160608IMF1606083.TXT
MDDDG6215244201606                D89831228300PT1D20160611000030RADIO;AM/FM,CD                M IMCTM S5NC06 FTTL  07070IMCT  S5 CPB  00003                    2230 SR        000000000000 FUJITSU TEN (THAILAN160JYSL0100100                                                                                                                              *          20160608IMF1606083.TXT
MDDDG6215245201606                D89831228300PT1D20160612000090RADIO;AM/FM,CD                M IMCTM S5NC06 FTTL  07070IMCT  S5 CPB  00003                    0310 SR        000000000000 FUJITSU TEN (THAILAN160JYQL0034035160JYSL0101101                                                                                                                *          20160608IMF1606083.TXT
MDDUG6411235201606                D89828070100PT4U20160613000030SPEAKER ASM                   M IMCTM S0FL05 FTTL  07070IMCT  S0 PTB  00004                    1510 SR        000000000000 FUJITSU TEN (THAILAN160JUPU0010010                                                                                                                              *          20160608IMF1606083.TXT
MDDUG6411236201606                D89828070200PV4U20160613000030SPEAKER ASM                   M IMCTM S0FR05 FTTL  07070IMCT  S0 PTB  00005                    1510 SR        000000000000 FUJITSU TEN (THAILAN160JUPU0010010                                                                                                                              *          20160608IMF1606083.TXT
MDDUG6411237201606                D89828070300PT4U20160613000030SPEAKER ASM                   M IMCTM S9TS02 FTTL  07070IMCT  S9 PTB  00015                    1510 SR        000000000000 FUJITSU TEN (THAILAN160JUPU0010010                                                                                                                              *          20160608IMF1606083.TXT
MDDUG6411238201606                D89831228400PT4U20160613000015RADIO;AM/FM,CD                M IMCTM S9CO001FTTL  07070IMCT  S9 CPB  00003                    1510 SR        000000000000 FUJITSU TEN (THAILAN160JUPU0010010                                                                                                                              *          20160608IMF1606083.TXT
MDEDG6249185201606                D89805293700PV1D20160611000060SPEAKER ASM                   M IMCTM S5MA12 FTTL  07070IMCT  S5 PTB  00003                    2230 SR        000000000000 FUJITSU TEN (THAILAN15019FL0074075                                                                                                                              *          20160608IMF1606083.TXT
MDEDG6249186201606                D89805293700PV1D20160612000030SPEAKER ASM                   M IMCTM S5MA12 FTTL  07070IMCT  S5 PTB  00003                    0310 SR        000000000000 FUJITSU TEN (THAILAN15020FL0003003                                                                                                                              *          20160608IMF1606083.TXT
MDEDG6249187201606                D89805293700PV1D20160613000060SPEAKER ASM                   M IMCTM S5MA12 FTTL  07070IMCT  S5 PTB  00003                    1000 SR        000000000000 FUJITSU TEN (THAILAN15019FL0076077                                                                                                                              *          20160608IMF1606083.TXT
MDEDG6249188201606                D89805293700PV4D20160611000030SPEAKER ASM                   M IMCTM S0FR05 FTTL  07070IMCT  S0 PTB  00003                    2030 SR        000000000000 FUJITSU TEN (THAILAN15019FU0014014                                                                                                                              *          20160608IMF1606083.TXT
MDEDG6249189201606                D89805293700PV4D20160612000030SPEAKER ASM                   M IMCTM S0FR05 FTTL  07070IMCT  S0 PTB  00003                    0310 SR        000000000000 FUJITSU TEN (THAILAN15018FU0025025                                                                                                                              *          20160608IMF1606083.TXT
MDEDG6249190201606                D89805293700PV4D20160613000030SPEAKER ASM                   M IMCTM S0FR05 FTTL  07070IMCT  S0 PTB  00003                    1100 SR        000000000000 FUJITSU TEN (THAILAN15019FU0015015                                                                                                                              *          20160608IMF1606083.TXT
MDEDG6249191201606                D89805293700PV4D20160613000030SPEAKER ASM                   M IMCTM S0FR05 FTTL  07070IMCT  S0 PTB  00003                    2030 SR        000000000000 FUJITSU TEN (THAILAN15018FU0026026                                                                                                                              *          20160608IMF1606083.TXT
MDEDG6249192201606                D89805294000PT1D20160612000030SPEAKER ASM                   M IMCTM S5NB042FTTL  07070IMCT  S5 PTB  00015                    0310 SR        000000000000 FUJITSU TEN (THAILAN15020FL0003003                                                                                                                              *          20160608IMF1606083.TXT
MDEDG6249193201606                D89805294100PV1D20160612000030SPEAKER ASM                   M IMCTM S5MB13 FTTL  07070IMCT  S5 PTB  00005                    0310 SR        000000000000 FUJITSU TEN (THAILAN15020FL0003003                                                                                                                              *          20160608IMF1606083.TXT
MDEDG6249194201606                D89828070100PV1D20160611000030SPEAKER ASM                   M IMCTM S5MA12 FTTL  07070IMCT  S5 PTB  00004                    2230 SR        000000000000 FUJITSU TEN (THAILAN16038KL0006006                                                                                                                              *          20160608IMF1606083.TXT
MDEDG6249195201606                D89828070100PV1D20160613000060SPEAKER ASM                   M IMCTM S5MA12 FTTL  07070IMCT  S5 PTB  00004                    1510 SR        000000000000 FUJITSU TEN (THAILAN16025KL000500516081HL0081081                                                                                                                *          20160608IMF1606083.TXT
MDEDG6249196201606                D89828070200PV1D20160611000030SPEAKER ASM                   M IMCTM S5MA13 FTTL  07070IMCT  S5 PTB  00005                    2230 SR        000000000000 FUJITSU TEN (THAILAN16038KL0006006                                                                                                                              *          20160608IMF1606083.TXT
MDEDG6249197201606                D89828070200PV1D20160613000030SPEAKER ASM                   M IMCTM S5MA13 FTTL  07070IMCT  S5 PTB  00005                    1510 SR        000000000000 FUJITSU TEN (THAILAN16025KL0005005                                                                                                                              *          20160608IMF1606083.TXT
MDEDG6249198201606                D89828070300PT1D20160611000030SPEAKER ASM                   M IMCTM S5NB042FTTL  07070IMCT  S5 PTB  00015                    2230 SR        000000000000 FUJITSU TEN (THAILAN16038KL0006006                                                                                                                              *          20160608IMF1606083.TXT
MDEDG6249199201606                D89828070300PT1D20160613000030SPEAKER ASM                   M IMCTM S5NB042FTTL  07070IMCT  S5 PTB  00015                    1510 SR        000000000000 FUJITSU TEN (THAILAN16025KL0005005                                                                                                                              *          20160608IMF1606083.TXT
MDEDG6249200201606                D89829645400PT1D20160611000015RADIO;ASM DVD                 M IMCTM S5NC06 FTTL  07070IMCT  S5 PTB  00003                    2230 SR        000000000000 FUJITSU TEN (THAILAN16038KL0006006                                                                                                                              *          20160608IMF1606083.TXT
MDEDG6249201201606                D89831229000PT1D20160613000015RADIO;AM/FM,CD                M IMCTM S5NC06 FTTL  07070IMCT  S5 PTB  00003                    1510 SR        000000000000 FUJITSU TEN (THAILAN16025KL0005005                                                                                                                              *          20160608IMF1606083.TXT
MDEUG6221808201606                D89828070100PT4U20160611000030SPEAKER ASM                   M IMCTM S0FL05 FTTL  07070IMCT  S0 PTB  00004                    2300 SR        000000000000 FUJITSU TEN (THAILAN160B48U0160160                                                                                                                              *          20160608IMF1606083.TXT
MDEUG6221809201606                D89828070100PT4U20160612000030SPEAKER ASM                   M IMCTM S0FL05 FTTL  07070IMCT  S0 PTB  00004                    0310 SR        000000000000 FUJITSU TEN (THAILAN160B36U0010010                                                                                                                              *          20160608IMF1606083.TXT
MDEUG6221810201606                D89828070100PT4U20160613000030SPEAKER ASM                   M IMCTM S0FL05 FTTL  07070IMCT  S0 PTB  00004                    0800 SR        000000000000 FUJITSU TEN (THAILAN160B95U0001001                                                                                                                              *          20160608IMF1606083.TXT
MDEUG6221811201606                D89828070100PT4U20160613000030SPEAKER ASM                   M IMCTM S0FL05 FTTL  07070IMCT  S0 PTB  00004                    1100 SR        000000000000 FUJITSU TEN (THAILAN160B94U0001001                                                                                                                              *          20160608IMF1606083.TXT
MDEUG6221812201606                D89828070100PT4U20160613000030SPEAKER ASM                   M IMCTM S0FL05 FTTL  07070IMCT  S0 PTB  00004                    1510 SR        000000000000 FUJITSU TEN (THAILAN160B95U0002002                                                                                                                              *          20160608IMF1606083.TXT
MDEUG6221813201606                D89828070100PT4U20160613000030SPEAKER ASM                   M IMCTM S0FL05 FTTL  07070IMCT  S0 PTB  00004                    2030 SR        000000000000 FUJITSU TEN (THAILAN160B95U0003003                                                                                                                              *          20160608IMF1606083.TXT
MDEUG6221814201606                D89828070200PV4U20160611000030SPEAKER ASM                   M IMCTM S0FR05 FTTL  07070IMCT  S0 PTB  00005                    2300 SR        000000000000 FUJITSU TEN (THAILAN160B48U0160160                                                                                                                              *          20160608IMF1606083.TXT
MDEUG6221815201606                D89828070200PV4U20160612000030SPEAKER ASM                   M IMCTM S0FR05 FTTL  07070IMCT  S0 PTB  00005                    0310 SR        000000000000 FUJITSU TEN (THAILAN160B36U0010010                                                                                                                              *          20160608IMF1606083.TXT
MDEUG6221816201606                D89828070200PV4U20160613000030SPEAKER ASM                   M IMCTM S0FR05 FTTL  07070IMCT  S0 PTB  00005                    0800 SR        000000000000 FUJITSU TEN (THAILAN160B95U0001001                                                                                                                              *          20160608IMF1606083.TXT
MDEUG6221817201606                D89828070200PV4U20160613000030SPEAKER ASM                   M IMCTM S0FR05 FTTL  07070IMCT  S0 PTB  00005                    1100 SR        000000000000 FUJITSU TEN (THAILAN160B94U0001001                                                                                                                              *          20160608IMF1606083.TXT
MDEUG6221818201606                D89828070200PV4U20160613000030SPEAKER ASM                   M IMCTM S0FR05 FTTL  07070IMCT  S0 PTB  00005                    1510 SR        000000000000 FUJITSU TEN (THAILAN160B95U0002002                                                                                                                              *          20160608IMF1606083.TXT
MDEUG6221819201606                D89828070200PV4U20160613000030SPEAKER ASM                   M IMCTM S0FR05 FTTL  07070IMCT  S0 PTB  00005                    2030 SR        000000000000 FUJITSU TEN (THAILAN160B95U0003003                                                                                                                              *          20160608IMF1606083.TXT
MDEUG6221820201606                D89828070300PT4U20160611000030SPEAKER ASM                   M IMCTM S9TS02 FTTL  07070IMCT  S9 PTB  00015                    2300 SR        000000000000 FUJITSU TEN (THAILAN160B48U0160160                                                                                                                              *          20160608IMF1606083.TXT
MDEUG6221821201606                D89828070300PT4U20160612000030SPEAKER ASM                   M IMCTM S9TS02 FTTL  07070IMCT  S9 PTB  00015                    0310 SR        000000000000 FUJITSU TEN (THAILAN160B36U0010010                                                                                                                              *          20160608IMF1606083.TXT
MDEUG6221822201606                D89828070300PT4U20160613000030SPEAKER ASM                   M IMCTM S9TS02 FTTL  07070IMCT  S9 PTB  00015                    0800 SR        000000000000 FUJITSU TEN (THAILAN160B95U0001001                                                                                                                              *          20160608IMF1606083.TXT
MDEUG6221823201606                D89828070300PT4U20160613000030SPEAKER ASM                   M IMCTM S9TS02 FTTL  07070IMCT  S9 PTB  00015                    1100 SR        000000000000 FUJITSU TEN (THAILAN160B94U0001001                                                                                                                              *          20160608IMF1606083.TXT
MDEUG6221824201606                D89828070300PT4U20160613000030SPEAKER ASM                   M IMCTM S9TS02 FTTL  07070IMCT  S9 PTB  00015                    1510 SR        000000000000 FUJITSU TEN (THAILAN160B95U0002002                                                                                                                              *          20160608IMF1606083.TXT
MDEUG6221825201606                D89828070300PT4U20160613000030SPEAKER ASM                   M IMCTM S9TS02 FTTL  07070IMCT  S9 PTB  00015                    2030 SR        000000000000 FUJITSU TEN (THAILAN160B95U0003003                                                                                                                              *          20160608IMF1606083.TXT
