REC2016060720160607ISUZU                              58     
MDDDG6212175201606                D89821984430PT1D20160610000030RADIO;AM/FM,CD                M IMCTM S5NC06 FTTL  07070IMCT  S5 PTB  00005                    2230 SR        000000000000 FUJITSU TEN (THAILAN160JXEL0069069                                                                                                                              *          20160607IMF1606075.TXT
MDDDG6212176201606                D89821984430PT1D20160611000030RADIO;AM/FM,CD                M IMCTM S5NC06 FTTL  07070IMCT  S5 PTB  00005                    1000 SR        000000000000 FUJITSU TEN (THAILAN160JXEL0070070                                                                                                                              *          20160607IMF1606075.TXT
MDDDG6212177201606                D89828070100PV1D20160610000060SPEAKER ASM                   M IMCTM S5MA12 FTTL  07070IMCT  S5 PTB  00004                    2230 SR        000000000000 FUJITSU TEN (THAILAN160JXEL0069069                                                                                                                              *          20160607IMF1606075.TXT
MDDDG6212178201606                D89828070100PV1D20160611000120SPEAKER ASM                   M IMCTM S5MA12 FTTL  07070IMCT  S5 PTB  00004                    1000 SR        000000000000 FUJITSU TEN (THAILAN160JXEL0070070160JZFL0113113                                                                                                                *          20160607IMF1606075.TXT
MDDDG6212179201606                D89828070200PV1D20160611000060SPEAKER ASM                   M IMCTM S5MA13 FTTL  07070IMCT  S5 PTB  00005                    1000 SR        000000000000 FUJITSU TEN (THAILAN160JZFL0113113                                                                                                                              *          20160607IMF1606075.TXT
MDDDG6212180201606                D89828070300PT1D20160611000060SPEAKER ASM                   M IMCTM S5NB042FTTL  07070IMCT  S5 PTB  00015                    1000 SR        000000000000 FUJITSU TEN (THAILAN160JZFL0113113                                                                                                                              *          20160607IMF1606075.TXT
MDDDG6212181201606                D89829645900PT1D20160611000030RADIO;ASM DVD                 M IMCTM S5NC06 FTTL  07070IMCT  S5 CPB  00003                    1000 SR        000000000000 FUJITSU TEN (THAILAN160JZFL0113113                                                                                                                              *          20160607IMF1606075.TXT
MDDUG6408985201606                D89828070100PT4U20160611000030SPEAKER ASM                   M IMCTM S0FL05 FTTL  07070IMCT  S0 PTB  00004                    0800 SR        000000000000 FUJITSU TEN (THAILAN160JURU0026026                                                                                                                              *          20160607IMF1606075.TXT
MDDUG6408986201606                D89828070200PV4U20160611000030SPEAKER ASM                   M IMCTM S0FR05 FTTL  07070IMCT  S0 PTB  00005                    0800 SR        000000000000 FUJITSU TEN (THAILAN160JURU0026026                                                                                                                              *          20160607IMF1606075.TXT
MDDUG6408987201606                D89828070300PT4U20160611000030SPEAKER ASM                   M IMCTM S9TS02 FTTL  07070IMCT  S9 PTB  00015                    0800 SR        000000000000 FUJITSU TEN (THAILAN160JURU0026026                                                                                                                              *          20160607IMF1606075.TXT
MDDUG6408988201606                D89829093500PT4U20160611000015RADIO;ASM DVD (T              M IMCTM S9CO001FTTL  07070IMCT  S9 PTB  00003                    0800 SR        000000000000 FUJITSU TEN (THAILAN160JURU0026026                                                                                                                              *          20160607IMF1606075.TXT
MDEDG6241010201606                D89805293700PV1D20160610000030SPEAKER ASM                   M IMCTM S5MA12 FTTL  07070IMCT  S5 PTB  00003                    1510 SR        000000000000 FUJITSU TEN (THAILAN15059CL0014014                                                                                                                              *          20160607IMF1606075.TXT
MDEDG6241011201606                D89805293700PV1D20160610000060SPEAKER ASM                   M IMCTM S5MA12 FTTL  07070IMCT  S5 PTB  00003                    2230 SR        000000000000 FUJITSU TEN (THAILAN15018FL006106115059CL0015015                                                                                                                *          20160607IMF1606075.TXT
MDEDG6241012201606                D89805293700PV1D20160611000120SPEAKER ASM                   M IMCTM S5MA12 FTTL  07070IMCT  S5 PTB  00003                    0310 SR        000000000000 FUJITSU TEN (THAILAN15013FL004704715018FL006206215022DL005205215030BL0012012                                                                                    *          20160607IMF1606075.TXT
MDEDG6241013201606                D89805293700PV1D20160611000060SPEAKER ASM                   M IMCTM S5MA12 FTTL  07070IMCT  S5 PTB  00003                    1000 SR        000000000000 FUJITSU TEN (THAILAN15029BL000300315057CL0007007                                                                                                                *          20160607IMF1606075.TXT
MDEDG6241014201606                D89805293700PV1D20160611000090SPEAKER ASM                   M IMCTM S5MA12 FTTL  07070IMCT  S5 PTB  00003                    1510 SR        000000000000 FUJITSU TEN (THAILAN15018FL006306415019FL0073073                                                                                                                *          20160607IMF1606075.TXT
MDEDG6241015201606                D89805293700PV4D20160610000030SPEAKER ASM                   M IMCTM S0FR05 FTTL  07070IMCT  S0 PTB  00003                    2030 SR        000000000000 FUJITSU TEN (THAILAN15058CU0037037                                                                                                                              *          20160607IMF1606075.TXT
MDEDG6241016201606                D89805294000PT1D20160610000030SPEAKER ASM                   M IMCTM S5NB042FTTL  07070IMCT  S5 PTB  00015                    1510 SR        000000000000 FUJITSU TEN (THAILAN15059CL0014014                                                                                                                              *          20160607IMF1606075.TXT
MDEDG6241017201606                D89805294000PT1D20160610000030SPEAKER ASM                   M IMCTM S5NB042FTTL  07070IMCT  S5 PTB  00015                    2230 SR        000000000000 FUJITSU TEN (THAILAN15059CL0015015                                                                                                                              *          20160607IMF1606075.TXT
MDEDG6241018201606                D89805294000PT1D20160611000060SPEAKER ASM                   M IMCTM S5NB042FTTL  07070IMCT  S5 PTB  00015                    0310 SR        000000000000 FUJITSU TEN (THAILAN15013FL004704715030BL0012012                                                                                                                *          20160607IMF1606075.TXT
MDEDG6241019201606                D89805294000PT1D20160611000030SPEAKER ASM                   M IMCTM S5NB042FTTL  07070IMCT  S5 PTB  00015                    1000 SR        000000000000 FUJITSU TEN (THAILAN15029BL0003003                                                                                                                              *          20160607IMF1606075.TXT
MDEDG6241020201606                D89805294100PV1D20160611000030SPEAKER ASM                   M IMCTM S5MB13 FTTL  07070IMCT  S5 PTB  00005                    0310 SR        000000000000 FUJITSU TEN (THAILAN15030BL0012012                                                                                                                              *          20160607IMF1606075.TXT
MDEDG6241021201606                D89805294100PV1D20160611000030SPEAKER ASM                   M IMCTM S5MB13 FTTL  07070IMCT  S5 PTB  00005                    1000 SR        000000000000 FUJITSU TEN (THAILAN15029BL0003003                                                                                                                              *          20160607IMF1606075.TXT
MDEDG6241022201606                D89805294200PT1D20160610000030SPEAKER ASM                   M IMCTM S5AS011FTTL  07070IMCT  S6 PTB  00030                    1510 SR        000000000000 FUJITSU TEN (THAILAN15059CL0014014                                                                                                                              *          20160607IMF1606075.TXT
MDEDG6241023201606                D89805294200PT1D20160610000030SPEAKER ASM                   M IMCTM S5AS011FTTL  07070IMCT  S6 PTB  00030                    2230 SR        000000000000 FUJITSU TEN (THAILAN15059CL0015015                                                                                                                              *          20160607IMF1606075.TXT
MDEDG6241024201606                D89805294200PT1D20160611000030SPEAKER ASM                   M IMCTM S5AS011FTTL  07070IMCT  S6 PTB  00030                    0310 SR        000000000000 FUJITSU TEN (THAILAN15013FL0047047                                                                                                                              *          20160607IMF1606075.TXT
MDEDG6241025201606                D89806470400PT1D20160610000015SPEAKER ASM;RDO,              M IMCTM S5EA18 FTTL  07070IMCT  S6 PTB  00015                    1510 SR        000000000000 FUJITSU TEN (THAILAN15059CL0014014                                                                                                                              *          20160607IMF1606075.TXT
MDEDG6241026201606                D89806470400PT1D20160610000015SPEAKER ASM;RDO,              M IMCTM S5EA18 FTTL  07070IMCT  S6 PTB  00015                    2230 SR        000000000000 FUJITSU TEN (THAILAN15059CL0015015                                                                                                                              *          20160607IMF1606075.TXT
MDEDG6241027201606                D89806470400PT1D20160611000015SPEAKER ASM;RDO,              M IMCTM S5EA18 FTTL  07070IMCT  S6 PTB  00015                    0310 SR        000000000000 FUJITSU TEN (THAILAN15013FL0047047                                                                                                                              *          20160607IMF1606075.TXT
MDEDG6241028201606                D89824360220PT1D20160610000030RADIO;AM/FM,CD                M IMCTM S5NC06 FTTL  07070IMCT  S5 CPB  00003                    2230 SR        000000000000 FUJITSU TEN (THAILAN15059CL0014015                                                                                                                              *          20160607IMF1606075.TXT
MDEDG6241029201606                D89828070100PV1D20160610000030SPEAKER ASM                   M IMCTM S5MA12 FTTL  07070IMCT  S5 PTB  00004                    2230 SR        000000000000 FUJITSU TEN (THAILAN16081HL0079079                                                                                                                              *          20160607IMF1606075.TXT
MDEDG6241030201606                D89828070100PV1D20160611000060SPEAKER ASM                   M IMCTM S5MA12 FTTL  07070IMCT  S5 PTB  00004                    0310 SR        000000000000 FUJITSU TEN (THAILAN16047HL0006007                                                                                                                              *          20160607IMF1606075.TXT
MDEDG6241031201606                D89828070100PV1D20160611000030SPEAKER ASM                   M IMCTM S5MA12 FTTL  07070IMCT  S5 PTB  00004                    1000 SR        000000000000 FUJITSU TEN (THAILAN16033JL0005005                                                                                                                              *          20160607IMF1606075.TXT
MDEDG6241032201606                D89828070100PV1D20160611000030SPEAKER ASM                   M IMCTM S5MA12 FTTL  07070IMCT  S5 PTB  00004                    1510 SR        000000000000 FUJITSU TEN (THAILAN16081HL0080080                                                                                                                              *          20160607IMF1606075.TXT
MDEDG6241033201606                D89828070100PV4D20160611000030SPEAKER ASM                   M IMCTM S0FL05 FTTL  07070IMCT  S0 PTB  00004                    0310 SR        000000000000 FUJITSU TEN (THAILAN16072HU0016016                                                                                                                              *          20160607IMF1606075.TXT
MDEDG6241034201606                D89828070100PV4D20160611000030SPEAKER ASM                   M IMCTM S0FL05 FTTL  07070IMCT  S0 PTB  00004                    1100 SR        000000000000 FUJITSU TEN (THAILAN16043JU0002002                                                                                                                              *          20160607IMF1606075.TXT
MDEDG6241035201606                D89828070200PV4D20160611000030SPEAKER ASM                   M IMCTM S0FR05 FTTL  07070IMCT  S0 PTB  00005                    0310 SR        000000000000 FUJITSU TEN (THAILAN16072HU0016016                                                                                                                              *          20160607IMF1606075.TXT
MDEDG6241036201606                D89828070200PV4D20160611000030SPEAKER ASM                   M IMCTM S0FR05 FTTL  07070IMCT  S0 PTB  00005                    1100 SR        000000000000 FUJITSU TEN (THAILAN16043JU0002002                                                                                                                              *          20160607IMF1606075.TXT
MDEDG6241037201606                D89828070300PT1D20160611000060SPEAKER ASM                   M IMCTM S5NB042FTTL  07070IMCT  S5 PTB  00015                    0310 SR        000000000000 FUJITSU TEN (THAILAN16047HL0006007                                                                                                                              *          20160607IMF1606075.TXT
MDEDG6241038201606                D89828070300PT4D20160611000030SPEAKER ASM                   M IMCTM S9TS02 FTTL  07070IMCT  S9 PTB  00015                    0310 SR        000000000000 FUJITSU TEN (THAILAN16072HU0016016                                                                                                                              *          20160607IMF1606075.TXT
MDEDG6241039201606                D89828070300PT4D20160611000030SPEAKER ASM                   M IMCTM S9TS02 FTTL  07070IMCT  S9 PTB  00015                    1100 SR        000000000000 FUJITSU TEN (THAILAN16043JU0002002                                                                                                                              *          20160607IMF1606075.TXT
MDEDG6241040201606                D89831228600PT1D20160611000030RADIO;AM/FM,CD                M IMCTM S5NC06 FTTL  07070IMCT  S5 PTB  00003                    0310 SR        000000000000 FUJITSU TEN (THAILAN16047HL0006007                                                                                                                              *          20160607IMF1606075.TXT
MDEDG6241041201606                D89831229200PT4D20160611000015RADIO;AM/FM,CD                M IMCTM S9CO001FTTL  07070IMCT  S9 PTB  00003                    1100 SR        000000000000 FUJITSU TEN (THAILAN16043JU0002002                                                                                                                              *          20160607IMF1606075.TXT
MDEUG6217655201606                D89828070100PT4U20160610000030SPEAKER ASM                   M IMCTM S0FL05 FTTL  07070IMCT  S0 PTB  00004                    2300 SR        000000000000 FUJITSU TEN (THAILAN160B37U0018018                                                                                                                              *          20160607IMF1606075.TXT
MDEUG6217656201606                D89828070100PT4U20160611000030SPEAKER ASM                   M IMCTM S0FL05 FTTL  07070IMCT  S0 PTB  00004                    0800 SR        000000000000 FUJITSU TEN (THAILAN160B48U0158158                                                                                                                              *          20160607IMF1606075.TXT
MDEUG6217657201606                D89828070100PT4U20160611000060SPEAKER ASM                   M IMCTM S0FL05 FTTL  07070IMCT  S0 PTB  00004                    1100 SR        000000000000 FUJITSU TEN (THAILAN160B42U0041041160B48U0159159                                                                                                                *          20160607IMF1606075.TXT
MDEUG6217658201606                D89828070100PT4U20160611000030SPEAKER ASM                   M IMCTM S0FL05 FTTL  07070IMCT  S0 PTB  00004                    1510 SR        000000000000 FUJITSU TEN (THAILAN160B45U0022022                                                                                                                              *          20160607IMF1606075.TXT
MDEUG6217659201606                D89828070100PT4U20160611000030SPEAKER ASM                   M IMCTM S0FL05 FTTL  07070IMCT  S0 PTB  00004                    2030 SR        000000000000 FUJITSU TEN (THAILAN160B46U0059059                                                                                                                              *          20160607IMF1606075.TXT
MDEUG6217660201606                D89828070200PV4U20160610000030SPEAKER ASM                   M IMCTM S0FR05 FTTL  07070IMCT  S0 PTB  00005                    2300 SR        000000000000 FUJITSU TEN (THAILAN160B37U0018018                                                                                                                              *          20160607IMF1606075.TXT
MDEUG6217661201606                D89828070200PV4U20160611000030SPEAKER ASM                   M IMCTM S0FR05 FTTL  07070IMCT  S0 PTB  00005                    0800 SR        000000000000 FUJITSU TEN (THAILAN160B48U0158158                                                                                                                              *          20160607IMF1606075.TXT
MDEUG6217662201606                D89828070200PV4U20160611000060SPEAKER ASM                   M IMCTM S0FR05 FTTL  07070IMCT  S0 PTB  00005                    1100 SR        000000000000 FUJITSU TEN (THAILAN160B42U0041041160B48U0159159                                                                                                                *          20160607IMF1606075.TXT
MDEUG6217663201606                D89828070200PV4U20160611000030SPEAKER ASM                   M IMCTM S0FR05 FTTL  07070IMCT  S0 PTB  00005                    1510 SR        000000000000 FUJITSU TEN (THAILAN160B45U0022022                                                                                                                              *          20160607IMF1606075.TXT
MDEUG6217664201606                D89828070200PV4U20160611000030SPEAKER ASM                   M IMCTM S0FR05 FTTL  07070IMCT  S0 PTB  00005                    2030 SR        000000000000 FUJITSU TEN (THAILAN160B46U0059059                                                                                                                              *          20160607IMF1606075.TXT
MDEUG6217665201606                D89828070300PT4U20160610000030SPEAKER ASM                   M IMCTM S9TS02 FTTL  07070IMCT  S9 PTB  00015                    2300 SR        000000000000 FUJITSU TEN (THAILAN160B37U0018018                                                                                                                              *          20160607IMF1606075.TXT
MDEUG6217666201606                D89828070300PT4U20160611000030SPEAKER ASM                   M IMCTM S9TS02 FTTL  07070IMCT  S9 PTB  00015                    0800 SR        000000000000 FUJITSU TEN (THAILAN160B48U0158158                                                                                                                              *          20160607IMF1606075.TXT
MDEUG6217667201606                D89828070300PT4U20160611000060SPEAKER ASM                   M IMCTM S9TS02 FTTL  07070IMCT  S9 PTB  00015                    1100 SR        000000000000 FUJITSU TEN (THAILAN160B42U0041041160B48U0159159                                                                                                                *          20160607IMF1606075.TXT
MDEUG6217668201606                D89828070300PT4U20160611000030SPEAKER ASM                   M IMCTM S9TS02 FTTL  07070IMCT  S9 PTB  00015                    1510 SR        000000000000 FUJITSU TEN (THAILAN160B45U0022022                                                                                                                              *          20160607IMF1606075.TXT
MDEUG6217669201606                D89828070300PT4U20160611000030SPEAKER ASM                   M IMCTM S9TS02 FTTL  07070IMCT  S9 PTB  00015                    2030 SR        000000000000 FUJITSU TEN (THAILAN160B46U0059059                                                                                                                              *          20160607IMF1606075.TXT
