REC2016062220160622ISUZU                              47     
MDDDG6276080201606                D89821984430PT1D20160627000030RADIO;AM/FM,CD                M IMCTM S5NC06 FTTL  07070IMCT  S5 PTB  00005                    2230 SR        000000000000 FUJITSU TEN (THAILAN160JXAL0160160                                                                                                                              *          20160622IMF1606224.TXT
MDDDG6276081201606                D89821984430PT1D20160628000090RADIO;AM/FM,CD                M IMCTM S5NC06 FTTL  07070IMCT  S5 PTB  00005                    0310 SR        000000000000 FUJITSU TEN (THAILAN160JXEL0079079160JYPL0096097                                                                                                                *          20160622IMF1606224.TXT
MDDDG6276082201606                D89821984430PT1D20160628000030RADIO;AM/FM,CD                M IMCTM S5NC06 FTTL  07070IMCT  S5 PTB  00005                    1000 SR        000000000000 FUJITSU TEN (THAILAN160JXAL0161161                                                                                                                              *          20160622IMF1606224.TXT
MDDDG6276083201606                D89828070100PV1D20160627000060SPEAKER ASM                   M IMCTM S5MA12 FTTL  07070IMCT  S5 PTB  00004                    2230 SR        000000000000 FUJITSU TEN (THAILAN160JXAL0160160                                                                                                                              *          20160622IMF1606224.TXT
MDDDG6276084201606                D89828070100PV1D20160628000180SPEAKER ASM                   M IMCTM S5MA12 FTTL  07070IMCT  S5 PTB  00004                    0310 SR        000000000000 FUJITSU TEN (THAILAN160JXEL0079079160JYPL0096097                                                                                                                *          20160622IMF1606224.TXT
MDDDG6276085201606                D89828070100PV1D20160628000180SPEAKER ASM                   M IMCTM S5MA12 FTTL  07070IMCT  S5 PTB  00004                    1000 SR        000000000000 FUJITSU TEN (THAILAN160JRUL0008008160JXAL0161161160JYQL0045045                                                                                                  *          20160622IMF1606224.TXT
MDDDG6276086201606                D89828070100PV1D20160628000060SPEAKER ASM                   M IMCTM S5MA12 FTTL  07070IMCT  S5 PTB  00004                    1510 SR        000000000000 FUJITSU TEN (THAILAN160JZEL0008008                                                                                                                              *          20160622IMF1606224.TXT
MDDDG6276087201606                D89828070200PV1D20160628000060SPEAKER ASM                   M IMCTM S5MA13 FTTL  07070IMCT  S5 PTB  00005                    1000 SR        000000000000 FUJITSU TEN (THAILAN160JRUL0008008                                                                                                                              *          20160622IMF1606224.TXT
MDDDG6276088201606                D89828070200PV1D20160628000060SPEAKER ASM                   M IMCTM S5MA13 FTTL  07070IMCT  S5 PTB  00005                    1510 SR        000000000000 FUJITSU TEN (THAILAN160JZEL0008008                                                                                                                              *          20160622IMF1606224.TXT
MDDDG6276089201606                D89828070300PT1D20160628000120SPEAKER ASM                   M IMCTM S5NB042FTTL  07070IMCT  S5 PTB  00015                    1000 SR        000000000000 FUJITSU TEN (THAILAN160JRUL0008008160JYQL0045045                                                                                                                *          20160622IMF1606224.TXT
MDDDG6276090201606                D89828070300PT1D20160628000060SPEAKER ASM                   M IMCTM S5NB042FTTL  07070IMCT  S5 PTB  00015                    1510 SR        000000000000 FUJITSU TEN (THAILAN160JZEL0008008                                                                                                                              *          20160622IMF1606224.TXT
MDDDG6276091201606                D89831228300PT1D20160628000030RADIO;AM/FM,CD                M IMCTM S5NC06 FTTL  07070IMCT  S5 CPB  00003                    1000 SR        000000000000 FUJITSU TEN (THAILAN160JYQL0045045                                                                                                                              *          20160622IMF1606224.TXT
MDDDG6276092201606                D89831228400PT1D20160628000030RADIO;AM/FM,CD                M IMCTM S5NC06 FTTL  07070IMCT  S5 CPB  00003                    1510 SR        000000000000 FUJITSU TEN (THAILAN160JZEL0008008                                                                                                                              *          20160622IMF1606224.TXT
MDEDG6307243201606                D89805293700PV1D20160627000060SPEAKER ASM                   M IMCTM S5MA12 FTTL  07070IMCT  S5 PTB  00003                    2230 SR        000000000000 FUJITSU TEN (THAILAN15028BL0028029                                                                                                                              *          20160622IMF1606224.TXT
MDEDG6307244201606                D89805294000PT1D20160627000060SPEAKER ASM                   M IMCTM S5NB042FTTL  07070IMCT  S5 PTB  00015                    2230 SR        000000000000 FUJITSU TEN (THAILAN15028BL0028029                                                                                                                              *          20160622IMF1606224.TXT
MDEDG6307245201606                D89805294100PV1D20160627000060SPEAKER ASM                   M IMCTM S5MB13 FTTL  07070IMCT  S5 PTB  00005                    2230 SR        000000000000 FUJITSU TEN (THAILAN15028BL0028029                                                                                                                              *          20160622IMF1606224.TXT
MDEDG6307246201606                D89828070100PV1D20160627000060SPEAKER ASM                   M IMCTM S5MA12 FTTL  07070IMCT  S5 PTB  00004                    2230 SR        000000000000 FUJITSU TEN (THAILAN16049HL000400416081HL0088088                                                                                                                *          20160622IMF1606224.TXT
MDEDG6307247201606                D89828070100PV1D20160628000030SPEAKER ASM                   M IMCTM S5MA12 FTTL  07070IMCT  S5 PTB  00004                    1000 SR        000000000000 FUJITSU TEN (THAILAN16003JL0033033                                                                                                                              *          20160622IMF1606224.TXT
MDEDG6307248201606                D89828070100PV1D20160628000030SPEAKER ASM                   M IMCTM S5MA12 FTTL  07070IMCT  S5 PTB  00004                    1510 SR        000000000000 FUJITSU TEN (THAILAN16085HL0010010                                                                                                                              *          20160622IMF1606224.TXT
MDEDG6307249201606                D89828070100PV4D20160628000030SPEAKER ASM                   M IMCTM S0FL05 FTTL  07070IMCT  S0 PTB  00004                    0310 SR        000000000000 FUJITSU TEN (THAILAN16071HU0016016                                                                                                                              *          20160622IMF1606224.TXT
MDEDG6307250201606                D89828070100PV4D20160628000030SPEAKER ASM                   M IMCTM S0FL05 FTTL  07070IMCT  S0 PTB  00004                    0800 SR        000000000000 FUJITSU TEN (THAILAN16047HU0006006                                                                                                                              *          20160622IMF1606224.TXT
MDEDG6307251201606                D89828070100PV4D20160628000060SPEAKER ASM                   M IMCTM S0FL05 FTTL  07070IMCT  S0 PTB  00004                    1100 SR        000000000000 FUJITSU TEN (THAILAN16007JU001901916073HU0008008                                                                                                                *          20160622IMF1606224.TXT
MDEDG6307252201606                D89828070200PV1D20160627000030SPEAKER ASM                   M IMCTM S5MA13 FTTL  07070IMCT  S5 PTB  00005                    2230 SR        000000000000 FUJITSU TEN (THAILAN16049HL0004004                                                                                                                              *          20160622IMF1606224.TXT
MDEDG6307253201606                D89828070200PV4D20160628000030SPEAKER ASM                   M IMCTM S0FR05 FTTL  07070IMCT  S0 PTB  00005                    0310 SR        000000000000 FUJITSU TEN (THAILAN16071HU0016016                                                                                                                              *          20160622IMF1606224.TXT
MDEDG6307254201606                D89828070200PV4D20160628000030SPEAKER ASM                   M IMCTM S0FR05 FTTL  07070IMCT  S0 PTB  00005                    1100 SR        000000000000 FUJITSU TEN (THAILAN16073HU0008008                                                                                                                              *          20160622IMF1606224.TXT
MDEDG6307255201606                D89828070300PT1D20160627000030SPEAKER ASM                   M IMCTM S5NB042FTTL  07070IMCT  S5 PTB  00015                    2230 SR        000000000000 FUJITSU TEN (THAILAN16049HL0004004                                                                                                                              *          20160622IMF1606224.TXT
MDEDG6307256201606                D89828070300PT4D20160628000030SPEAKER ASM                   M IMCTM S9TS02 FTTL  07070IMCT  S9 PTB  00015                    0310 SR        000000000000 FUJITSU TEN (THAILAN16071HU0016016                                                                                                                              *          20160622IMF1606224.TXT
MDEDG6307257201606                D89828070300PT4D20160628000030SPEAKER ASM                   M IMCTM S9TS02 FTTL  07070IMCT  S9 PTB  00015                    0800 SR        000000000000 FUJITSU TEN (THAILAN16047HU0006006                                                                                                                              *          20160622IMF1606224.TXT
MDEDG6307258201606                D89828070300PT4D20160628000030SPEAKER ASM                   M IMCTM S9TS02 FTTL  07070IMCT  S9 PTB  00015                    1100 SR        000000000000 FUJITSU TEN (THAILAN16073HU0008008                                                                                                                              *          20160622IMF1606224.TXT
MDEDG6307259201606                D89831228600PT1D20160627000015RADIO;AM/FM,CD                M IMCTM S5NC06 FTTL  07070IMCT  S5 PTB  00003                    2230 SR        000000000000 FUJITSU TEN (THAILAN16049HL0004004                                                                                                                              *          20160622IMF1606224.TXT
MDEDG6307260201606                D89831228600PT4D20160628000015RADIO;AM/FM,CD                M IMCTM S9CO001FTTL  07070IMCT  S9 PTB  00003                    0310 SR        000000000000 FUJITSU TEN (THAILAN16071HU0016016                                                                                                                              *          20160622IMF1606224.TXT
MDEDG6307261201606                D89831228600PT4D20160628000015RADIO;AM/FM,CD                M IMCTM S9CO001FTTL  07070IMCT  S9 PTB  00003                    0800 SR        000000000000 FUJITSU TEN (THAILAN16047HU0006006                                                                                                                              *          20160622IMF1606224.TXT
MDEUG6265821201606                D89828070100PT4U20160627000030SPEAKER ASM                   M IMCTM S0FL05 FTTL  07070IMCT  S0 PTB  00004                    2030 SR        000000000000 FUJITSU TEN (THAILAN160B95U0006006                                                                                                                              *          20160622IMF1606224.TXT
MDEUG6265822201606                D89828070100PT4U20160627000030SPEAKER ASM                   M IMCTM S0FL05 FTTL  07070IMCT  S0 PTB  00004                    2300 SR        000000000000 FUJITSU TEN (THAILAN160B48U0181181                                                                                                                              *          20160622IMF1606224.TXT
MDEUG6265823201606                D89828070100PT4U20160628000030SPEAKER ASM                   M IMCTM S0FL05 FTTL  07070IMCT  S0 PTB  00004                    0800 SR        000000000000 FUJITSU TEN (THAILAN160B43U0001001                                                                                                                              *          20160622IMF1606224.TXT
MDEUG6265824201606                D89828070100PT4U20160628000030SPEAKER ASM                   M IMCTM S0FL05 FTTL  07070IMCT  S0 PTB  00004                    1510 SR        000000000000 FUJITSU TEN (THAILAN160B41U0031031                                                                                                                              *          20160622IMF1606224.TXT
MDEUG6265825201606                D89828070100PT4U20160628000030SPEAKER ASM                   M IMCTM S0FL05 FTTL  07070IMCT  S0 PTB  00004                    2030 SR        000000000000 FUJITSU TEN (THAILAN160B42U0048048                                                                                                                              *          20160622IMF1606224.TXT
MDEUG6265826201606                D89828070200PV4U20160627000030SPEAKER ASM                   M IMCTM S0FR05 FTTL  07070IMCT  S0 PTB  00005                    2030 SR        000000000000 FUJITSU TEN (THAILAN160B95U0006006                                                                                                                              *          20160622IMF1606224.TXT
MDEUG6265827201606                D89828070200PV4U20160627000030SPEAKER ASM                   M IMCTM S0FR05 FTTL  07070IMCT  S0 PTB  00005                    2300 SR        000000000000 FUJITSU TEN (THAILAN160B48U0181181                                                                                                                              *          20160622IMF1606224.TXT
MDEUG6265828201606                D89828070200PV4U20160628000030SPEAKER ASM                   M IMCTM S0FR05 FTTL  07070IMCT  S0 PTB  00005                    0800 SR        000000000000 FUJITSU TEN (THAILAN160B43U0001001                                                                                                                              *          20160622IMF1606224.TXT
MDEUG6265829201606                D89828070200PV4U20160628000030SPEAKER ASM                   M IMCTM S0FR05 FTTL  07070IMCT  S0 PTB  00005                    1510 SR        000000000000 FUJITSU TEN (THAILAN160B41U0031031                                                                                                                              *          20160622IMF1606224.TXT
MDEUG6265830201606                D89828070200PV4U20160628000030SPEAKER ASM                   M IMCTM S0FR05 FTTL  07070IMCT  S0 PTB  00005                    2030 SR        000000000000 FUJITSU TEN (THAILAN160B42U0048048                                                                                                                              *          20160622IMF1606224.TXT
MDEUG6265831201606                D89828070300PT4U20160627000030SPEAKER ASM                   M IMCTM S9TS02 FTTL  07070IMCT  S9 PTB  00015                    2030 SR        000000000000 FUJITSU TEN (THAILAN160B95U0006006                                                                                                                              *          20160622IMF1606224.TXT
MDEUG6265832201606                D89828070300PT4U20160627000030SPEAKER ASM                   M IMCTM S9TS02 FTTL  07070IMCT  S9 PTB  00015                    2300 SR        000000000000 FUJITSU TEN (THAILAN160B48U0181181                                                                                                                              *          20160622IMF1606224.TXT
MDEUG6265833201606                D89828070300PT4U20160628000030SPEAKER ASM                   M IMCTM S9TS02 FTTL  07070IMCT  S9 PTB  00015                    0800 SR        000000000000 FUJITSU TEN (THAILAN160B43U0001001                                                                                                                              *          20160622IMF1606224.TXT
MDEUG6265834201606                D89828070300PT4U20160628000030SPEAKER ASM                   M IMCTM S9TS02 FTTL  07070IMCT  S9 PTB  00015                    1510 SR        000000000000 FUJITSU TEN (THAILAN160B41U0031031                                                                                                                              *          20160622IMF1606224.TXT
MDEUG6265835201606                D89828070300PT4U20160628000030SPEAKER ASM                   M IMCTM S9TS02 FTTL  07070IMCT  S9 PTB  00015                    2030 SR        000000000000 FUJITSU TEN (THAILAN160B42U0048048                                                                                                                              *          20160622IMF1606224.TXT
