REC2016060820160608ISUZU                              20     
MDEFG6T06540201606                D89805293700PV4F20160613000002SPEAKER ASM                   M IMCTM S7FR05 FTTL  07070IMCT  S7 PTB  00003                    0800 SR        000000000000 FUJITSU TEN (THAILAN15068CR0012   15068CR0012   S160603115    S160603115    000000                                                                              *R         20160608RDF1606083.TXT
MDEFG6T06541201606                D89805294000PT4F20160611000012SPEAKER ASM                   M IMCTM S7TS02 FTTL  07070IMCT  S7 PTB  00015                    2300 SR        000000000000 FUJITSU TEN (THAILAN15021FR0022   15020FR0038   D160603009    D160603015    000000                                                                              *R         20160608RDF1606083.TXT
MDEFG6T06542201606                D89805294100PV4F20160611000012SPEAKER ASM                   M IMCTM S7FR05 FTTL  07070IMCT  S7 PTB  00005                    2300 SR        000000000000 FUJITSU TEN (THAILAN15021FR0022   15020FR0038   D160603009    D160603015    000000                                                                              *R         20160608RDF1606083.TXT
MDEFG6T06543201606                D89828070100PV4F20160613000024SPEAKER ASM                   M IMCTM S7FL05 FTTL  07070IMCT  S7 PTB  00004                    0800 SR        000000000000 FUJITSU TEN (THAILAN16015KR0016   16061JR0014   S160603103    S160603114    000000                                                                              *R         20160608RDF1606083.TXT
MDEFG6T06544201606                D89828070200PV4F20160611000006SPEAKER ASM                   M IMCTM S7TS02 FTTL  07070IMCT  S7 PTB  00005                    2300 SR        000000000000 FUJITSU TEN (THAILAN16043JR0020   16075JR0030   D160603006    D160603011    000000                                                                              *R         20160608RDF1606083.TXT
MDEFG6T06545201606                D89828070300PT4F20160611000011SPEAKER ASM                   M IMCTM S7TS02 FTTL  07070IMCT  S7 PTB  00015                    2030 SR        000000000000 FUJITSU TEN (THAILAN16043JR0017   16075JR0030   D160603003    D160603011    000000                                                                              *R         20160608RDF1606083.TXT
MDEFG6T06546201606                D89831229000PT4F20160611000003RADIO;AM/FM,CD                M IMCTM S7TS03 FTTL  07070IMCT  S7 PTB  00003                    1100 SR        000000000000 FUJITSU TEN (THAILAN16028KR0012   16075JR0030   D160602901    D160603011    000000                                                                              *R         20160608RDF1606083.TXT
MDEFG6T06547201606                D89831229200PT4F20160611000004RADIO;AM/FM,CD                M IMCTM S7TS03 FTTL  07070IMCT  S7 PTB  00003                    2300 SR        000000000000 FUJITSU TEN (THAILAN16043JR0018   16043JR0021   D160603004    D160603007    000000                                                                              *R         20160608RDF1606083.TXT
MDEFG6218690201606                D89805293700PV4F20160611000012SPEAKER ASM                   M IMCTM S7FR05 FTTL  07070IMCT  S7 PTB  00003                    2300 SR        000000000000 FUJITSU TEN (THAILAN15021FR0022   15020FR0038   D160603009    D160603015    000000                                                                              *R         20160608RDF1606083.TXT
MDEFG6218691201606                D89828070100PV4F20160611000024SPEAKER ASM                   M IMCTM S7FL05 FTTL  07070IMCT  S7 PTB  00004                    1100 SR        000000000000 FUJITSU TEN (THAILAN16028KR0012   16033JR0025   D160602901    D160602912    000000                                                                              *R         20160608RDF1606083.TXT
MDEFG6218692201606                D89828070100PV4F20160611000008SPEAKER ASM                   M IMCTM S7FL05 FTTL  07070IMCT  S7 PTB  00004                    1510 SR        000000000000 FUJITSU TEN (THAILAN16043JR0012   16043JR0015   D160602913    D160603001    000000                                                                              *R         20160608RDF1606083.TXT
MDEFG6218693201606                D89828070100PV4F20160611000004SPEAKER ASM                   M IMCTM S7FL05 FTTL  07070IMCT  S7 PTB  00004                    2030 SR        000000000000 FUJITSU TEN (THAILAN16043JR0016   16043JR0017   D160603002    D160603003    000000                                                                              *R         20160608RDF1606083.TXT
MDEFG6218694201606                D89828070100PV4F20160611000012SPEAKER ASM                   M IMCTM S7FL05 FTTL  07070IMCT  S7 PTB  00004                    2300 SR        000000000000 FUJITSU TEN (THAILAN16043JR0018   16075JR0030   D160603004    D160603011    000000                                                                              *R         20160608RDF1606083.TXT
MDEFG6218695201606                D89828070100PV4F20160612000004SPEAKER ASM                   M IMCTM S7FL05 FTTL  07070IMCT  S7 PTB  00004                    0310 SR        000000000000 FUJITSU TEN (THAILAN16015KR0014   16015KR0015   S160603101    S160603102    000000                                                                              *R         20160608RDF1606083.TXT
MDEFG6218696201606                D89828070200PV4F20160611000005SPEAKER ASM                   M IMCTM S7TS02 FTTL  07070IMCT  S7 PTB  00005                    1100 SR        000000000000 FUJITSU TEN (THAILAN16028KR0012   16043JR0012   D160602901    D160602913    000000                                                                              *R         20160608RDF1606083.TXT
MDEFG6218697201606                D89828070200PV4F20160611000005SPEAKER ASM                   M IMCTM S7TS02 FTTL  07070IMCT  S7 PTB  00005                    1510 SR        000000000000 FUJITSU TEN (THAILAN16043JR0012   16043JR0014   D160602913    D160602915    000000                                                                              *R         20160608RDF1606083.TXT
MDEFG6218698201606                D89828070200PV4F20160611000010SPEAKER ASM                   M IMCTM S7TS02 FTTL  07070IMCT  S7 PTB  00005                    2030 SR        000000000000 FUJITSU TEN (THAILAN16043JR0015   16043JR0019   D160603001    D160603005    000000                                                                              *R         20160608RDF1606083.TXT
MDEFG6218699201606                D89828070300PT4F20160611000015SPEAKER ASM                   M IMCTM S7TS02 FTTL  07070IMCT  S7 PTB  00015                    1100 SR        000000000000 FUJITSU TEN (THAILAN16028KR0012   16043JR0017   D160602901    D160603003    000000                                                                              *R         20160608RDF1606083.TXT
MDEFG6218700201606                D89831229200PT4F20160611000003RADIO;AM/FM,CD                M IMCTM S7TS03 FTTL  07070IMCT  S7 PTB  00003                    1510 SR        000000000000 FUJITSU TEN (THAILAN16043JR0012   16043JR0014   D160602913    D160602915    000000                                                                              *R         20160608RDF1606083.TXT
MDEFG6218701201606                D89831229200PT4F20160611000003RADIO;AM/FM,CD                M IMCTM S7TS03 FTTL  07070IMCT  S7 PTB  00003                    2030 SR        000000000000 FUJITSU TEN (THAILAN16043JR0015   16043JR0017   D160603001    D160603003    000000                                                                              *R         20160608RDF1606083.TXT
