REC2016062220160622ISUZU                              20     
MDEBG6T04902201606                D89828070100PT4B20160628000010SPEAKER ASM                   M IMCTM S7FL05 FTTL  07070IMCT  S7 PTB  00004                    0800 SR        000000000000 FUJITSU TEN (THAILAN160B94R0011   160B94R0015   Y160606011    Y160606015    000000                                                                              *R         20160622RDF1606224.TXT
MDEBG6T04903201606                D89828070200PV4B20160628000010SPEAKER ASM                   M IMCTM S7TS02 FTTL  07070IMCT  S7 PTB  00005                    0800 SR        000000000000 FUJITSU TEN (THAILAN160B94R0011   160B94R0015   Y160606011    Y160606015    000000                                                                              *R         20160622RDF1606224.TXT
MDEBG6T04904201606                D89828070300PT4B20160628000030SPEAKER ASM                   M IMCTM S7TS02 FTTL  07070IMCT  S7 PTB  00015                    0310 SR        000000000000 FUJITSU TEN (THAILAN160B45R0016   160B94R0015   Y160606001    Y160606015    000000                                                                              *R         20160622RDF1606224.TXT
MDEBG6206071201606                D89828070100PT4B20160628000020SPEAKER ASM                   M IMCTM S7FL05 FTTL  07070IMCT  S7 PTB  00004                    0310 SR        000000000000 FUJITSU TEN (THAILAN160B45R0016   160B94R0010   Y160606001    Y160606010    000000                                                                              *R         20160622RDF1606224.TXT
MDEBG6206072201606                D89828070200PV4B20160628000020SPEAKER ASM                   M IMCTM S7TS02 FTTL  07070IMCT  S7 PTB  00005                    0310 SR        000000000000 FUJITSU TEN (THAILAN160B45R0016   160B94R0010   Y160606001    Y160606010    000000                                                                              *R         20160622RDF1606224.TXT
MDEFG6T18935201606                D89805293700PV4F20160628000004SPEAKER ASM                   M IMCTM S7FR05 FTTL  07070IMCT  S7 PTB  00003                    1100 SR        000000000000 FUJITSU TEN (THAILAN15018FR0082   15018FR0083   D160606101    D160606102    000000                                                                              *R         20160622RDF1606224.TXT
MDEFG6T18936201606                D89828070100PV4F20160628000026SPEAKER ASM                   M IMCTM S7FL05 FTTL  07070IMCT  S7 PTB  00004                    1100 SR        000000000000 FUJITSU TEN (THAILAN16004KR0015   16020JR0009   D160606103    D160606115    000000                                                                              *R         20160622RDF1606224.TXT
MDEFG6T18937201606                D89828070200PV4F20160628000005SPEAKER ASM                   M IMCTM S7TS02 FTTL  07070IMCT  S7 PTB  00005                    1100 SR        000000000000 FUJITSU TEN (THAILAN16004KR0016   16004KR0018   D160606104    D160606106    000000                                                                              *R         20160622RDF1606224.TXT
MDEFG6T18938201606                D89828070300PT4F20160628000005SPEAKER ASM                   M IMCTM S7TS02 FTTL  07070IMCT  S7 PTB  00015                    1100 SR        000000000000 FUJITSU TEN (THAILAN16004KR0016   16004KR0018   D160606104    D160606106    000000                                                                              *R         20160622RDF1606224.TXT
MDEFG6T18939201606                D89831229000PT4F20160628000004RADIO;AM/FM,CD                M IMCTM S7TS03 FTTL  07070IMCT  S7 PTB  00003                    1100 SR        000000000000 FUJITSU TEN (THAILAN16004KR0015   16004KR0018   D160606103    D160606106    000000                                                                              *R         20160622RDF1606224.TXT
MDEFG6T18940201606                D89831229200PT4F20160627000011RADIO;AM/FM,CD                M IMCTM S7TS03 FTTL  07070IMCT  S7 PTB  00003                    2300 SR        000000000000 FUJITSU TEN (THAILAN16040JR0016   16039JR0019   D160605901    D160605914    000000                                                                              *R         20160622RDF1606224.TXT
MDEFG6252933201606                D89828070100PV4F20160627000008SPEAKER ASM                   M IMCTM S7FL05 FTTL  07070IMCT  S7 PTB  00004                    1100 SR        000000000000 FUJITSU TEN (THAILAN16026KR0023   16026KR0026   D160605801    D160605804    000000                                                                              *R         20160622RDF1606224.TXT
MDEFG6252934201606                D89828070100PV4F20160627000024SPEAKER ASM                   M IMCTM S7FL05 FTTL  07070IMCT  S7 PTB  00004                    1510 SR        000000000000 FUJITSU TEN (THAILAN16026KR0027   16040JR0016   D160605805    D160605901    000000                                                                              *R         20160622RDF1606224.TXT
MDEFG6252935201606                D89828070100PV4F20160627000028SPEAKER ASM                   M IMCTM S7FL05 FTTL  07070IMCT  S7 PTB  00004                    2300 SR        000000000000 FUJITSU TEN (THAILAN16040JR0017   16065JR0047   D160605902    D160605915    000000                                                                              *R         20160622RDF1606224.TXT
MDEFG6252936201606                D89828070200PV4F20160627000010SPEAKER ASM                   M IMCTM S7TS02 FTTL  07070IMCT  S7 PTB  00005                    1100 SR        000000000000 FUJITSU TEN (THAILAN16026KR0023   16026KR0027   D160605801    D160605805    000000                                                                              *R         20160622RDF1606224.TXT
MDEFG6252937201606                D89828070200PV4F20160627000010SPEAKER ASM                   M IMCTM S7TS02 FTTL  07070IMCT  S7 PTB  00005                    1510 SR        000000000000 FUJITSU TEN (THAILAN16026KR0028   16026KR0032   D160605806    D160605810    000000                                                                              *R         20160622RDF1606224.TXT
MDEFG6252938201606                D89828070200PV4F20160627000025SPEAKER ASM                   M IMCTM S7TS02 FTTL  07070IMCT  S7 PTB  00005                    2300 SR        000000000000 FUJITSU TEN (THAILAN16040JR0016   16004KR0016   D160605901    D160606104    000000                                                                              *R         20160622RDF1606224.TXT
MDEFG6252939201606                D89828070300PT4F20160627000015SPEAKER ASM                   M IMCTM S7TS02 FTTL  07070IMCT  S7 PTB  00015                    1100 SR        000000000000 FUJITSU TEN (THAILAN16026KR0023   16026KR0030   D160605801    D160605808    000000                                                                              *R         20160622RDF1606224.TXT
MDEFG6252940201606                D89828070300PT4F20160627000015SPEAKER ASM                   M IMCTM S7TS02 FTTL  07070IMCT  S7 PTB  00015                    1510 SR        000000000000 FUJITSU TEN (THAILAN16026KR0030   16042LR0001   D160605808    D160605905    000000                                                                              *R         20160622RDF1606224.TXT
MDEFG6252941201606                D89828070300PT4F20160627000015SPEAKER ASM                   M IMCTM S7TS02 FTTL  07070IMCT  S7 PTB  00015                    2300 SR        000000000000 FUJITSU TEN (THAILAN16042LR0002   16004KR0016   D160605906    D160606104    000000                                                                              *R         20160622RDF1606224.TXT
