REC2016062120160621ISUZU                              8      
MDEFG6T17735201606                D89805293700PV4F20160624000008SPEAKER ASM                   M IMCTM S7FR05 FTTL  07070IMCT  S7 PTB  00003                    1100 SR        000000000000 FUJITSU TEN (THAILAN15056DR0060   15056DR0063   D160605601    D160605604    000000                                                                              *R         20160621RDF1606213.TXT
MDEFG6T17736201606                D89805294000PT4F20160624000008SPEAKER ASM                   M IMCTM S7TS02 FTTL  07070IMCT  S7 PTB  00015                    1100 SR        000000000000 FUJITSU TEN (THAILAN15056DR0060   15056DR0063   D160605601    D160605604    000000                                                                              *R         20160621RDF1606213.TXT
MDEFG6T17737201606                D89828070100PV4F20160625000028SPEAKER ASM                   M IMCTM S7FL05 FTTL  07070IMCT  S7 PTB  00004                    0310 SR        000000000000 FUJITSU TEN (THAILAN16003JR0015   16004JR0014   R160605702    R160605715    000000                                                                              *R         20160621RDF1606213.TXT
MDEFG6T17738201606                D89828070200PV4F20160624000010SPEAKER ASM                   M IMCTM S7TS02 FTTL  07070IMCT  S7 PTB  00005                    1510 SR        000000000000 FUJITSU TEN (THAILAN16046KR0028   16026KR0022   D160605605    D160605615    000000                                                                              *R         20160621RDF1606213.TXT
MDEFG6T17739201606                D89828070300PT4F20160625000005SPEAKER ASM                   M IMCTM S7TS02 FTTL  07070IMCT  S7 PTB  00015                    0310 SR        000000000000 FUJITSU TEN (THAILAN16004JR0012   16004JR0014   R160605713    R160605715    000000                                                                              *R         20160621RDF1606213.TXT
MDEFG6T17740201606                D89831229200PT4F20160625000005RADIO;AM/FM,CD                M IMCTM S7TS03 FTTL  07070IMCT  S7 PTB  00003                    0310 SR        000000000000 FUJITSU TEN (THAILAN16004JR0010   16004JR0014   R160605711    R160605715    000000                                                                              *R         20160621RDF1606213.TXT
MDEFG6250351201606                D89828070100PV4F20160624000024SPEAKER ASM                   M IMCTM S7FL05 FTTL  07070IMCT  S7 PTB  00004                    1510 SR        000000000000 FUJITSU TEN (THAILAN16046KR0028   16003JR0014   D160605605    R160605701    000000                                                                              *R         20160621RDF1606213.TXT
MDEFG6250352201606                D89828070300PT4F20160624000015SPEAKER ASM                   M IMCTM S7TS02 FTTL  07070IMCT  S7 PTB  00015                    1510 SR        000000000000 FUJITSU TEN (THAILAN16046KR0028   16004JR0012   D160605605    R160605713    000000                                                                              *R         20160621RDF1606213.TXT
