REC2016062420160624ISUZU                              12     
MDEFG6T21164201606                D89805293700PV4F20160630000009SPEAKER ASM                   M IMCTM S7FR05 FTTL  07070IMCT  S7 PTB  00003                    0800 SR        000000000000 FUJITSU TEN (THAILAN15076DR0011   15076DR0015   C160700101    C160700105    000000                                                                              *R         20160624RDF1606247.TXT
MDEFG6T21165201606                D89805294000PT4F20160629000020SPEAKER ASM                   M IMCTM S7TS02 FTTL  07070IMCT  S7 PTB  00015                    2030 SR        000000000000 FUJITSU TEN (THAILAN15030BR0089   15030BR0098   D160606401    D160606410    000000                                                                              *R         20160624RDF1606247.TXT
MDEFG6T21166201606                D89805294100PV4F20160629000020SPEAKER ASM                   M IMCTM S7FR05 FTTL  07070IMCT  S7 PTB  00005                    2030 SR        000000000000 FUJITSU TEN (THAILAN15030BR0089   15030BR0098   D160606401    D160606410    000000                                                                              *R         20160624RDF1606247.TXT
MDEFG6T21167201606                D89828070100PV4F20160630000018SPEAKER ASM                   M IMCTM S7FL05 FTTL  07070IMCT  S7 PTB  00004                    0800 SR        000000000000 FUJITSU TEN (THAILAN16024LR0012   16052JR0018   C160700107    C160700115    000000                                                                              *R         20160624RDF1606247.TXT
MDEFG6T21168201606                D89828070200PV4F20160630000006SPEAKER ASM                   M IMCTM S7TS02 FTTL  07070IMCT  S7 PTB  00005                    0800 SR        000000000000 FUJITSU TEN (THAILAN16024LR0013   16024LR0015   C160700108    C160700113    000000                                                                              *R         20160624RDF1606247.TXT
MDEFG6T21169201606                D89828070300PT4F20160630000001SPEAKER ASM                   M IMCTM S7TS02 FTTL  07070IMCT  S7 PTB  00015                    0800 SR        000000000000 FUJITSU TEN (THAILAN16024LR0015   16024LR0015   C160700113    C160700113    000000                                                                              *R         20160624RDF1606247.TXT
MDEFG6T21170201606                D89831229200PT4F20160630000005RADIO;AM/FM,CD                M IMCTM S7TS03 FTTL  07070IMCT  S7 PTB  00003                    0800 SR        000000000000 FUJITSU TEN (THAILAN16024LR0011   16024LR0015   C160700106    C160700113    000000                                                                              *R         20160624RDF1606247.TXT
MDEFG6259741201606                D89805293700PV4F20160629000021SPEAKER ASM                   M IMCTM S7FR05 FTTL  07070IMCT  S7 PTB  00003                    2030 SR        000000000000 FUJITSU TEN (THAILAN15076DR0011   15030BR0098   C160700101    D160606410    000000                                                                              *R         20160624RDF1606247.TXT
MDEFG6259742201606                D89828070100PV4F20160629000012SPEAKER ASM                   M IMCTM S7FL05 FTTL  07070IMCT  S7 PTB  00004                    2030 SR        000000000000 FUJITSU TEN (THAILAN16024LR0011   16065JR0054   C160700106    D160606415    000000                                                                              *R         20160624RDF1606247.TXT
MDEFG6259743201606                D89828070200PV4F20160629000010SPEAKER ASM                   M IMCTM S7TS02 FTTL  07070IMCT  S7 PTB  00005                    2030 SR        000000000000 FUJITSU TEN (THAILAN16024LR0011   16043JR0028   C160700106    D160606413    000000                                                                              *R         20160624RDF1606247.TXT
MDEFG6259744201606                D89828070300PT4F20160629000015SPEAKER ASM                   M IMCTM S7TS02 FTTL  07070IMCT  S7 PTB  00015                    2030 SR        000000000000 FUJITSU TEN (THAILAN16024LR0011   16043JR0028   C160700106    D160606413    000000                                                                              *R         20160624RDF1606247.TXT
MDEFG6259745201606                D89831229200PT4F20160629000003RADIO;AM/FM,CD                M IMCTM S7TS03 FTTL  07070IMCT  S7 PTB  00003                    2030 SR        000000000000 FUJITSU TEN (THAILAN16043JR0026   16043JR0028   D160606411    D160606413    000000                                                                              *R         20160624RDF1606247.TXT
