REC2016060120160602ISUZU                              18     
MAKK65110417201606D4               89805293700P3YK20160613000240SPEAKER ASM                   M IMCTM CM1    FTTL  07070IMKDC 01   PTB00003  K0                1621DES        000000000000 FUJITSU TEN (THAILAN                                                                                                                                            *G         20160601IMF1606016.TXT
MAKK65110418201606D4               89805293700P3YK20160614000240SPEAKER ASM                   M IMCTM CM1    FTTL  07070IMKDC 01   PTB00003  K0                1621DES        000000000000 FUJITSU TEN (THAILAN                                                                                                                                            *G         20160601IMF1606016.TXT
MAKK65110419201606D4               89805293700P3YK20160615000240SPEAKER ASM                   M IMCTM CM1    FTTL  07070IMKDC 01   PTB00003  K0                1621DES        000000000000 FUJITSU TEN (THAILAN                                                                                                                                            *G         20160601IMF1606016.TXT
MAKK65110420201606D4               89805293700P3YK20160616000210SPEAKER ASM                   M IMCTM CM1    FTTL  07070IMKDC 01   PTB00003  K0                1621DES        000000000000 FUJITSU TEN (THAILAN                                                                                                                                            *G         20160601IMF1606016.TXT
MAKK65110421201606D4               89805293700P3YK20160617000240SPEAKER ASM                   M IMCTM CM1    FTTL  07070IMKDC 01   PTB00003  K0                1621DES        000000000000 FUJITSU TEN (THAILAN                                                                                                                                            *G         20160601IMF1606016.TXT
MAKK65110422201606D4               89805294000P3YK20160613000030SPEAKER ASM                   M IMCTM CM1    FTTL  07070IMKDC 01   PTB00015  K0                1621DES        000000000000 FUJITSU TEN (THAILAN                                                                                                                                            *G         20160601IMF1606016.TXT
MAKK65110423201606D4               89805294000P3YK20160615000030SPEAKER ASM                   M IMCTM CM1    FTTL  07070IMKDC 01   PTB00015  K0                1621DES        000000000000 FUJITSU TEN (THAILAN                                                                                                                                            *G         20160601IMF1606016.TXT
MAKK65110424201606D4               89805294000P3YK20160616000030SPEAKER ASM                   M IMCTM CM1    FTTL  07070IMKDC 01   PTB00015  K0                1621DES        000000000000 FUJITSU TEN (THAILAN                                                                                                                                            *G         20160601IMF1606016.TXT
MAKK65110425201606D4               89805294000P3YK20160617000030SPEAKER ASM                   M IMCTM CM1    FTTL  07070IMKDC 01   PTB00015  K0                1621DES        000000000000 FUJITSU TEN (THAILAN                                                                                                                                            *G         20160601IMF1606016.TXT
MAKK65110426201606D4               89805294100P3YK20160615000030SPEAKER ASM                   M IMCTM CM1    FTTL  07070IMKDC 01   PTB00005  K0                1621DES        000000000000 FUJITSU TEN (THAILAN                                                                                                                                            *G         20160601IMF1606016.TXT
MAKK65110427201606D4               89805294100P3YK20160616000030SPEAKER ASM                   M IMCTM CM1    FTTL  07070IMKDC 01   PTB00005  K0                1621DES        000000000000 FUJITSU TEN (THAILAN                                                                                                                                            *G         20160601IMF1606016.TXT
MAKK65110428201606D4               89805294200P3YK20160613000060SPEAKER ASM                   M IMCTM CM1    FTTL  07070IMKDC 01 X    00030  K0                1621DES        000000000000 FUJITSU TEN (THAILAN                                                                                                                                            *G         20160601IMF1606016.TXT
MAKK65110429201606D4               89806470400P3YK20160613000030SPEAKER ASM;RDO,              M IMCTM CM1    FTTL  07070IMKDC 01   PTB00015  K0                1621DES        000000000000 FUJITSU TEN (THAILAN                                                                                                                                            *G         20160601IMF1606016.TXT
MAKK65110430201606D4               89824360220P3YK20160613000015RADIO;AM/FM,CD                M IMCTM CM1    FTTL  07070IMKDC 01 PTB  00005  K0                1621DES        000000000000 FUJITSU TEN (THAILAN                                                                                                                                            *G         20160601IMF1606016.TXT
MAKK65110431201606D4               89828070100P3YK20160613000030SPEAKER ASM                   M IMCTM CM1    FTTL  07070IMKDC 01 PTB  00003  K0                1621DES        000000000000 FUJITSU TEN (THAILAN                                                                                                                                            *G         20160601IMF1606016.TXT
MAKK65110432201606D4               89828070100P3YK20160614000030SPEAKER ASM                   M IMCTM CM1    FTTL  07070IMKDC 01 PTB  00003  K0                1621DES        000000000000 FUJITSU TEN (THAILAN                                                                                                                                            *G         20160601IMF1606016.TXT
MAKK65110433201606D4               89828070100P3YK20160615000030SPEAKER ASM                   M IMCTM CM1    FTTL  07070IMKDC 01 PTB  00003  K0                1621DES        000000000000 FUJITSU TEN (THAILAN                                                                                                                                            *G         20160601IMF1606016.TXT
MAKK65110434201606D4               89828070100P3YK20160617000030SPEAKER ASM                   M IMCTM CM1    FTTL  07070IMKDC 01 PTB  00003  K0                1621DES        000000000000 FUJITSU TEN (THAILAN                                                                                                                                            *G         20160601IMF1606016.TXT
