REC2016060620160606ISUZU                              52     
MDDDG6209570201606                D89821984430PT1D20160610000030RADIO;AM/FM,CD                M IMCTM S5NC06 FTTL  07070IMCT  S5 PTB  00005                    0310 SR        000000000000 FUJITSU TEN (THAILAN160JXEL0068068                                                                                                                              *          20160606IMF1606064.TXT
MDDDG6209571201606                D89821984430PT1D20160610000030RADIO;AM/FM,CD                M IMCTM S5NC06 FTTL  07070IMCT  S5 PTB  00005                    1000 SR        000000000000 FUJITSU TEN (THAILAN160JXAL0150150                                                                                                                              *          20160606IMF1606064.TXT
MDDDG6209572201606                D89828070100PV1D20160610000060SPEAKER ASM                   M IMCTM S5MA12 FTTL  07070IMCT  S5 PTB  00004                    0310 SR        000000000000 FUJITSU TEN (THAILAN160JXEL0068068                                                                                                                              *          20160606IMF1606064.TXT
MDDDG6209573201606                D89828070100PV1D20160610000120SPEAKER ASM                   M IMCTM S5MA12 FTTL  07070IMCT  S5 PTB  00004                    1000 SR        000000000000 FUJITSU TEN (THAILAN160JPUL0010010160JXAL0150150                                                                                                                *          20160606IMF1606064.TXT
MDDDG6209574201606                D89828070300PT1D20160610000060SPEAKER ASM                   M IMCTM S5NB042FTTL  07070IMCT  S5 PTB  00015                    1000 SR        000000000000 FUJITSU TEN (THAILAN160JPUL0010010                                                                                                                              *          20160606IMF1606064.TXT
MDDDG6209575201606                D89831228300PT1D20160610000030RADIO;AM/FM,CD                M IMCTM S5NC06 FTTL  07070IMCT  S5 CPB  00003                    1000 SR        000000000000 FUJITSU TEN (THAILAN160JPUL0010010                                                                                                                              *          20160606IMF1606064.TXT
MDDUG6407298201606                D89828070100PT4U20160610000030SPEAKER ASM                   M IMCTM S0FL05 FTTL  07070IMCT  S0 PTB  00004                    0800 SR        000000000000 FUJITSU TEN (THAILAN160JURU0025025                                                                                                                              *          20160606IMF1606064.TXT
MDDUG6407299201606                D89828070200PV4U20160610000030SPEAKER ASM                   M IMCTM S0FR05 FTTL  07070IMCT  S0 PTB  00005                    0800 SR        000000000000 FUJITSU TEN (THAILAN160JURU0025025                                                                                                                              *          20160606IMF1606064.TXT
MDDUG6407300201606                D89828070300PT4U20160610000030SPEAKER ASM                   M IMCTM S9TS02 FTTL  07070IMCT  S9 PTB  00015                    0800 SR        000000000000 FUJITSU TEN (THAILAN160JURU0025025                                                                                                                              *          20160606IMF1606064.TXT
MDDUG6407301201606                D89829093500PT4U20160610000015RADIO;ASM DVD (T              M IMCTM S9CO001FTTL  07070IMCT  S9 PTB  00003                    0800 SR        000000000000 FUJITSU TEN (THAILAN160JURU0025025                                                                                                                              *          20160606IMF1606064.TXT
MDEDG6232244201606                D89805293700PV1D20160609000120SPEAKER ASM                   M IMCTM S5MA12 FTTL  07070IMCT  S5 PTB  00003                    2230 SR        000000000000 FUJITSU TEN (THAILAN15018FL005705715033DL000900915039DL001401415076DL0006006                                                                                    *          20160606IMF1606064.TXT
MDEDG6232245201606                D89805293700PV1D20160610000090SPEAKER ASM                   M IMCTM S5MA12 FTTL  07070IMCT  S5 PTB  00003                    0310 SR        000000000000 FUJITSU TEN (THAILAN15018FL0058060                                                                                                                              *          20160606IMF1606064.TXT
MDEDG6232246201606                D89805293700PV1D20160610000060SPEAKER ASM                   M IMCTM S5MA12 FTTL  07070IMCT  S5 PTB  00003                    1510 SR        000000000000 FUJITSU TEN (THAILAN15055CL0028029                                                                                                                              *          20160606IMF1606064.TXT
MDEDG6232247201606                D89805293700PV4D20160609000030SPEAKER ASM                   M IMCTM S0FR05 FTTL  07070IMCT  S0 PTB  00003                    2030 SR        000000000000 FUJITSU TEN (THAILAN15058CU0036036                                                                                                                              *          20160606IMF1606064.TXT
MDEDG6232248201606                D89805293700PV4D20160610000030SPEAKER ASM                   M IMCTM S0FR05 FTTL  07070IMCT  S0 PTB  00003                    1510 SR        000000000000 FUJITSU TEN (THAILAN15021FU0004004                                                                                                                              *          20160606IMF1606064.TXT
MDEDG6232249201606                D89805294000PT1D20160609000060SPEAKER ASM                   M IMCTM S5NB042FTTL  07070IMCT  S5 PTB  00015                    2230 SR        000000000000 FUJITSU TEN (THAILAN15033DL000900915039DL0014014                                                                                                                *          20160606IMF1606064.TXT
MDEDG6232250201606                D89805294000PT4D20160610000030SPEAKER ASM                   M IMCTM S9AFA25FTTL  07070IMCT  S9 PTB  00015                    1510 SR        000000000000 FUJITSU TEN (THAILAN15021FU0004004                                                                                                                              *          20160606IMF1606064.TXT
MDEDG6232251201606                D89805294100PV4D20160610000030SPEAKER ASM                   M IMCTM S0FR05 FTTL  07070IMCT  S0 PTB  00005                    1510 SR        000000000000 FUJITSU TEN (THAILAN15021FU0004004                                                                                                                              *          20160606IMF1606064.TXT
MDEDG6232252201606                D89805294200PT1D20160609000060SPEAKER ASM                   M IMCTM S5AS011FTTL  07070IMCT  S6 PTB  00030                    2230 SR        000000000000 FUJITSU TEN (THAILAN15033DL000900915039DL0014014                                                                                                                *          20160606IMF1606064.TXT
MDEDG6232253201606                D89806470400PT1D20160609000030SPEAKER ASM;RDO,              M IMCTM S5EA18 FTTL  07070IMCT  S6 PTB  00015                    2230 SR        000000000000 FUJITSU TEN (THAILAN15033DL000900915039DL0014014                                                                                                                *          20160606IMF1606064.TXT
MDEDG6232254201606                D89824360220PT1D20160609000015RADIO;AM/FM,CD                M IMCTM S5NC06 FTTL  07070IMCT  S5 CPB  00003                    2230 SR        000000000000 FUJITSU TEN (THAILAN15039DL0014014                                                                                                                              *          20160606IMF1606064.TXT
MDEDG6232255201606                D89828070100PV1D20160609000060SPEAKER ASM                   M IMCTM S5MA12 FTTL  07070IMCT  S5 PTB  00004                    2230 SR        000000000000 FUJITSU TEN (THAILAN16047HL0004005                                                                                                                              *          20160606IMF1606064.TXT
MDEDG6232256201606                D89828070100PV1D20160610000030SPEAKER ASM                   M IMCTM S5MA12 FTTL  07070IMCT  S5 PTB  00004                    0310 SR        000000000000 FUJITSU TEN (THAILAN16078HL0010010                                                                                                                              *          20160606IMF1606064.TXT
MDEDG6232257201606                D89828070100PV1D20160610000090SPEAKER ASM                   M IMCTM S5MA12 FTTL  07070IMCT  S5 PTB  00004                    1000 SR        000000000000 FUJITSU TEN (THAILAN16032JL000700716065HL000200216078HL0011011                                                                                                  *          20160606IMF1606064.TXT
MDEDG6232258201606                D89828070100PV1D20160610000030SPEAKER ASM                   M IMCTM S5MA12 FTTL  07070IMCT  S5 PTB  00004                    1510 SR        000000000000 FUJITSU TEN (THAILAN16081HL0078078                                                                                                                              *          20160606IMF1606064.TXT
MDEDG6232259201606                D89828070100PV4D20160610000030SPEAKER ASM                   M IMCTM S0FL05 FTTL  07070IMCT  S0 PTB  00004                    0310 SR        000000000000 FUJITSU TEN (THAILAN16043JU0001001                                                                                                                              *          20160606IMF1606064.TXT
MDEDG6232260201606                D89828070100PV4D20160610000030SPEAKER ASM                   M IMCTM S0FL05 FTTL  07070IMCT  S0 PTB  00004                    1100 SR        000000000000 FUJITSU TEN (THAILAN16072HU0015015                                                                                                                              *          20160606IMF1606064.TXT
MDEDG6232261201606                D89828070200PV1D20160610000030SPEAKER ASM                   M IMCTM S5MA13 FTTL  07070IMCT  S5 PTB  00005                    1000 SR        000000000000 FUJITSU TEN (THAILAN16065HL0002002                                                                                                                              *          20160606IMF1606064.TXT
MDEDG6232262201606                D89828070200PV4D20160610000030SPEAKER ASM                   M IMCTM S0FR05 FTTL  07070IMCT  S0 PTB  00005                    0310 SR        000000000000 FUJITSU TEN (THAILAN16043JU0001001                                                                                                                              *          20160606IMF1606064.TXT
MDEDG6232263201606                D89828070200PV4D20160610000030SPEAKER ASM                   M IMCTM S0FR05 FTTL  07070IMCT  S0 PTB  00005                    1100 SR        000000000000 FUJITSU TEN (THAILAN16072HU0015015                                                                                                                              *          20160606IMF1606064.TXT
MDEDG6232264201606                D89828070300PT1D20160609000060SPEAKER ASM                   M IMCTM S5NB042FTTL  07070IMCT  S5 PTB  00015                    2230 SR        000000000000 FUJITSU TEN (THAILAN16047HL0004005                                                                                                                              *          20160606IMF1606064.TXT
MDEDG6232265201606                D89828070300PT1D20160610000030SPEAKER ASM                   M IMCTM S5NB042FTTL  07070IMCT  S5 PTB  00015                    1000 SR        000000000000 FUJITSU TEN (THAILAN16065HL0002002                                                                                                                              *          20160606IMF1606064.TXT
MDEDG6232266201606                D89828070300PT4D20160610000030SPEAKER ASM                   M IMCTM S9TS02 FTTL  07070IMCT  S9 PTB  00015                    0310 SR        000000000000 FUJITSU TEN (THAILAN16043JU0001001                                                                                                                              *          20160606IMF1606064.TXT
MDEDG6232267201606                D89828070300PT4D20160610000030SPEAKER ASM                   M IMCTM S9TS02 FTTL  07070IMCT  S9 PTB  00015                    1100 SR        000000000000 FUJITSU TEN (THAILAN16072HU0015015                                                                                                                              *          20160606IMF1606064.TXT
MDEDG6232268201606                D89831228600PT1D20160609000030RADIO;AM/FM,CD                M IMCTM S5NC06 FTTL  07070IMCT  S5 PTB  00003                    2230 SR        000000000000 FUJITSU TEN (THAILAN16047HL0004005                                                                                                                              *          20160606IMF1606064.TXT
MDEDG6232269201606                D89831228600PT1D20160610000015RADIO;AM/FM,CD                M IMCTM S5NC06 FTTL  07070IMCT  S5 PTB  00003                    1000 SR        000000000000 FUJITSU TEN (THAILAN16065HL0002002                                                                                                                              *          20160606IMF1606064.TXT
MDEDG6232270201606                D89831229200PT4D20160610000015RADIO;AM/FM,CD                M IMCTM S9CO001FTTL  07070IMCT  S9 PTB  00003                    0310 SR        000000000000 FUJITSU TEN (THAILAN16043JU0001001                                                                                                                              *          20160606IMF1606064.TXT
MDEUG6213685201606                D89828070100PT4U20160609000060SPEAKER ASM                   M IMCTM S0FL05 FTTL  07070IMCT  S0 PTB  00004                    2300 SR        000000000000 FUJITSU TEN (THAILAN160B41U0024024160B46U0057057                                                                                                                *          20160606IMF1606064.TXT
MDEUG6213686201606                D89828070100PT4U20160610000030SPEAKER ASM                   M IMCTM S0FL05 FTTL  07070IMCT  S0 PTB  00004                    0310 SR        000000000000 FUJITSU TEN (THAILAN160B48U0156156                                                                                                                              *          20160606IMF1606064.TXT
MDEUG6213687201606                D89828070100PT4U20160610000030SPEAKER ASM                   M IMCTM S0FL05 FTTL  07070IMCT  S0 PTB  00004                    0800 SR        000000000000 FUJITSU TEN (THAILAN160B48U0157157                                                                                                                              *          20160606IMF1606064.TXT
MDEUG6213688201606                D89828070100PT4U20160610000030SPEAKER ASM                   M IMCTM S0FL05 FTTL  07070IMCT  S0 PTB  00004                    1100 SR        000000000000 FUJITSU TEN (THAILAN160B45U0021021                                                                                                                              *          20160606IMF1606064.TXT
MDEUG6213689201606                D89828070100PT4U20160610000030SPEAKER ASM                   M IMCTM S0FL05 FTTL  07070IMCT  S0 PTB  00004                    2030 SR        000000000000 FUJITSU TEN (THAILAN160B46U0058058                                                                                                                              *          20160606IMF1606064.TXT
MDEUG6213690201606                D89828070200PV4U20160609000060SPEAKER ASM                   M IMCTM S0FR05 FTTL  07070IMCT  S0 PTB  00005                    2300 SR        000000000000 FUJITSU TEN (THAILAN160B41U0024024160B46U0057057                                                                                                                *          20160606IMF1606064.TXT
MDEUG6213691201606                D89828070200PV4U20160610000030SPEAKER ASM                   M IMCTM S0FR05 FTTL  07070IMCT  S0 PTB  00005                    0310 SR        000000000000 FUJITSU TEN (THAILAN160B48U0156156                                                                                                                              *          20160606IMF1606064.TXT
MDEUG6213692201606                D89828070200PV4U20160610000030SPEAKER ASM                   M IMCTM S0FR05 FTTL  07070IMCT  S0 PTB  00005                    0800 SR        000000000000 FUJITSU TEN (THAILAN160B48U0157157                                                                                                                              *          20160606IMF1606064.TXT
MDEUG6213693201606                D89828070200PV4U20160610000030SPEAKER ASM                   M IMCTM S0FR05 FTTL  07070IMCT  S0 PTB  00005                    1100 SR        000000000000 FUJITSU TEN (THAILAN160B45U0021021                                                                                                                              *          20160606IMF1606064.TXT
MDEUG6213694201606                D89828070200PV4U20160610000030SPEAKER ASM                   M IMCTM S0FR05 FTTL  07070IMCT  S0 PTB  00005                    2030 SR        000000000000 FUJITSU TEN (THAILAN160B46U0058058                                                                                                                              *          20160606IMF1606064.TXT
MDEUG6213695201606                D89828070300PT4U20160609000060SPEAKER ASM                   M IMCTM S9TS02 FTTL  07070IMCT  S9 PTB  00015                    2300 SR        000000000000 FUJITSU TEN (THAILAN160B41U0024024160B46U0057057                                                                                                                *          20160606IMF1606064.TXT
MDEUG6213696201606                D89828070300PT4U20160610000030SPEAKER ASM                   M IMCTM S9TS02 FTTL  07070IMCT  S9 PTB  00015                    0310 SR        000000000000 FUJITSU TEN (THAILAN160B48U0156156                                                                                                                              *          20160606IMF1606064.TXT
MDEUG6213697201606                D89828070300PT4U20160610000030SPEAKER ASM                   M IMCTM S9TS02 FTTL  07070IMCT  S9 PTB  00015                    0800 SR        000000000000 FUJITSU TEN (THAILAN160B48U0157157                                                                                                                              *          20160606IMF1606064.TXT
MDEUG6213698201606                D89828070300PT4U20160610000030SPEAKER ASM                   M IMCTM S9TS02 FTTL  07070IMCT  S9 PTB  00015                    1100 SR        000000000000 FUJITSU TEN (THAILAN160B45U0021021                                                                                                                              *          20160606IMF1606064.TXT
MDEUG6213699201606                D89828070300PT4U20160610000030SPEAKER ASM                   M IMCTM S9TS02 FTTL  07070IMCT  S9 PTB  00015                    2030 SR        000000000000 FUJITSU TEN (THAILAN160B46U0058058                                                                                                                              *          20160606IMF1606064.TXT
