REC2016062420160624ISUZU                              44     
MDDDG6286073201606                D89821984430PT1D20160629000060RADIO;AM/FM,CD                M IMCTM S5NC06 FTTL  07070IMCT  S5 PTB  00005                    2230 SR        000000000000 FUJITSU TEN (THAILAN160JXAL0164164160JZSL0035035                                                                                                                *          20160624IMF1606247.TXT
MDDDG6286074201606                D89821984430PT1D20160630000060RADIO;AM/FM,CD                M IMCTM S5NC06 FTTL  07070IMCT  S5 PTB  00005                    0310 SR        000000000000 FUJITSU TEN (THAILAN160JXEL0081081160JYPL0101101                                                                                                                *          20160624IMF1606247.TXT
MDDDG6286075201606                D89821984430PT1D20160630000060RADIO;AM/FM,CD                M IMCTM S5NC06 FTTL  07070IMCT  S5 PTB  00005                    1000 SR        000000000000 FUJITSU TEN (THAILAN160JXAL0165165160JYPL0102102                                                                                                                *          20160624IMF1606247.TXT
MDDDG6286076201606                D89828070100PV1D20160629000120SPEAKER ASM                   M IMCTM S5MA12 FTTL  07070IMCT  S5 PTB  00004                    2230 SR        000000000000 FUJITSU TEN (THAILAN160JXAL0164164160JZSL0035035                                                                                                                *          20160624IMF1606247.TXT
MDDDG6286077201606                D89828070100PV1D20160630000120SPEAKER ASM                   M IMCTM S5MA12 FTTL  07070IMCT  S5 PTB  00004                    0310 SR        000000000000 FUJITSU TEN (THAILAN160JXEL0081081160JYPL0101101                                                                                                                *          20160624IMF1606247.TXT
MDDDG6286078201606                D89828070100PV1D20160630000120SPEAKER ASM                   M IMCTM S5MA12 FTTL  07070IMCT  S5 PTB  00004                    1000 SR        000000000000 FUJITSU TEN (THAILAN160JXAL0165165160JYPL0102102                                                                                                                *          20160624IMF1606247.TXT
MDEDG6317435201606                D89805293700PV1D20160630000060SPEAKER ASM                   M IMCTM S5MA12 FTTL  07070IMCT  S5 PTB  00003                    1000 SR        000000000000 FUJITSU TEN (THAILAN15018FL0067068                                                                                                                              *          20160624IMF1606247.TXT
MDEDG6317436201606                D89805293700PV1D20160630000090SPEAKER ASM                   M IMCTM S5MA12 FTTL  07070IMCT  S5 PTB  00003                    1510 SR        000000000000 FUJITSU TEN (THAILAN15018CL002002115018FL0069069                                                                                                                *          20160624IMF1606247.TXT
MDEDG6317437201606                D89828070100PV1D20160629000030SPEAKER ASM                   M IMCTM S5MA12 FTTL  07070IMCT  S5 PTB  00004                    1510 SR        000000000000 FUJITSU TEN (THAILAN16056HL0004004                                                                                                                              *          20160624IMF1606247.TXT
MDEDG6317438201606                D89828070100PV1D20160629000030SPEAKER ASM                   M IMCTM S5MA12 FTTL  07070IMCT  S5 PTB  00004                    2230 SR        000000000000 FUJITSU TEN (THAILAN16056HL0005005                                                                                                                              *          20160624IMF1606247.TXT
MDEDG6317439201606                D89828070100PV1D20160630000060SPEAKER ASM                   M IMCTM S5MA12 FTTL  07070IMCT  S5 PTB  00004                    0310 SR        000000000000 FUJITSU TEN (THAILAN16026KL0004005                                                                                                                              *          20160624IMF1606247.TXT
MDEDG6317440201606                D89828070100PV4D20160629000060SPEAKER ASM                   M IMCTM S0FL05 FTTL  07070IMCT  S0 PTB  00004                    2300 SR        000000000000 FUJITSU TEN (THAILAN16048HU001401416072HU0020020                                                                                                                *          20160624IMF1606247.TXT
MDEDG6317441201606                D89828070100PV4D20160630000030SPEAKER ASM                   M IMCTM S0FL05 FTTL  07070IMCT  S0 PTB  00004                    0800 SR        000000000000 FUJITSU TEN (THAILAN16056HU0007007                                                                                                                              *          20160624IMF1606247.TXT
MDEDG6317442201606                D89828070100PV4D20160630000030SPEAKER ASM                   M IMCTM S0FL05 FTTL  07070IMCT  S0 PTB  00004                    1100 SR        000000000000 FUJITSU TEN (THAILAN16026KU0004004                                                                                                                              *          20160624IMF1606247.TXT
MDEDG6317443201606                D89828070200PV1D20160630000060SPEAKER ASM                   M IMCTM S5MA13 FTTL  07070IMCT  S5 PTB  00005                    0310 SR        000000000000 FUJITSU TEN (THAILAN16026KL0004005                                                                                                                              *          20160624IMF1606247.TXT
MDEDG6317444201606                D89828070200PV4D20160629000030SPEAKER ASM                   M IMCTM S0FR05 FTTL  07070IMCT  S0 PTB  00005                    2300 SR        000000000000 FUJITSU TEN (THAILAN16072HU0020020                                                                                                                              *          20160624IMF1606247.TXT
MDEDG6317445201606                D89828070200PV4D20160630000030SPEAKER ASM                   M IMCTM S0FR05 FTTL  07070IMCT  S0 PTB  00005                    1100 SR        000000000000 FUJITSU TEN (THAILAN16026KU0004004                                                                                                                              *          20160624IMF1606247.TXT
MDEDG6317446201606                D89828070300PT1D20160629000030SPEAKER ASM                   M IMCTM S5NB042FTTL  07070IMCT  S5 PTB  00015                    1510 SR        000000000000 FUJITSU TEN (THAILAN16056HL0004004                                                                                                                              *          20160624IMF1606247.TXT
MDEDG6317447201606                D89828070300PT1D20160629000030SPEAKER ASM                   M IMCTM S5NB042FTTL  07070IMCT  S5 PTB  00015                    2230 SR        000000000000 FUJITSU TEN (THAILAN16056HL0005005                                                                                                                              *          20160624IMF1606247.TXT
MDEDG6317448201606                D89828070300PT1D20160630000060SPEAKER ASM                   M IMCTM S5NB042FTTL  07070IMCT  S5 PTB  00015                    0310 SR        000000000000 FUJITSU TEN (THAILAN16026KL0004005                                                                                                                              *          20160624IMF1606247.TXT
MDEDG6317449201606                D89828070300PT4D20160629000060SPEAKER ASM                   M IMCTM S9TS02 FTTL  07070IMCT  S9 PTB  00015                    2300 SR        000000000000 FUJITSU TEN (THAILAN16048HU001401416072HU0020020                                                                                                                *          20160624IMF1606247.TXT
MDEDG6317450201606                D89828070300PT4D20160630000030SPEAKER ASM                   M IMCTM S9TS02 FTTL  07070IMCT  S9 PTB  00015                    0800 SR        000000000000 FUJITSU TEN (THAILAN16056HU0007007                                                                                                                              *          20160624IMF1606247.TXT
MDEDG6317451201606                D89828070300PT4D20160630000030SPEAKER ASM                   M IMCTM S9TS02 FTTL  07070IMCT  S9 PTB  00015                    1100 SR        000000000000 FUJITSU TEN (THAILAN16026KU0004004                                                                                                                              *          20160624IMF1606247.TXT
MDEDG6317452201606                D89831228500PT4D20160629000015RADIO;AM/FM,CD                M IMCTM S9CO001FTTL  07070IMCT  S9 PTB  00003                    2300 SR        000000000000 FUJITSU TEN (THAILAN16048HU0014014                                                                                                                              *          20160624IMF1606247.TXT
MDEDG6317453201606                D89831228600PT1D20160629000030RADIO;AM/FM,CD                M IMCTM S5NC06 FTTL  07070IMCT  S5 PTB  00003                    2230 SR        000000000000 FUJITSU TEN (THAILAN16056HL0004005                                                                                                                              *          20160624IMF1606247.TXT
MDEDG6317454201606                D89831228600PT4D20160630000015RADIO;AM/FM,CD                M IMCTM S9CO001FTTL  07070IMCT  S9 PTB  00003                    0800 SR        000000000000 FUJITSU TEN (THAILAN16056HU0007007                                                                                                                              *          20160624IMF1606247.TXT
MDEUG6274267201606                D89828070100PT4U20160629000030SPEAKER ASM                   M IMCTM S0FL05 FTTL  07070IMCT  S0 PTB  00004                    2030 SR        000000000000 FUJITSU TEN (THAILAN160B42U0051051                                                                                                                              *          20160624IMF1606247.TXT
MDEUG6274268201606                D89828070100PT4U20160629000030SPEAKER ASM                   M IMCTM S0FL05 FTTL  07070IMCT  S0 PTB  00004                    2300 SR        000000000000 FUJITSU TEN (THAILAN160B48U0183183                                                                                                                              *          20160624IMF1606247.TXT
MDEUG6274269201606                D89828070100PT4U20160630000030SPEAKER ASM                   M IMCTM S0FL05 FTTL  07070IMCT  S0 PTB  00004                    0310 SR        000000000000 FUJITSU TEN (THAILAN160B95U0008008                                                                                                                              *          20160624IMF1606247.TXT
MDEUG6274270201606                D89828070100PT4U20160630000060SPEAKER ASM                   M IMCTM S0FL05 FTTL  07070IMCT  S0 PTB  00004                    0800 SR        000000000000 FUJITSU TEN (THAILAN160B37U0021021160B41U0033033                                                                                                                *          20160624IMF1606247.TXT
MDEUG6274271201606                D89828070100PT4U20160630000060SPEAKER ASM                   M IMCTM S0FL05 FTTL  07070IMCT  S0 PTB  00004                    1100 SR        000000000000 FUJITSU TEN (THAILAN160B41U0034034160B94U0005005                                                                                                                *          20160624IMF1606247.TXT
MDEUG6274272201606                D89828070100PT4U20160630000030SPEAKER ASM                   M IMCTM S0FL05 FTTL  07070IMCT  S0 PTB  00004                    1510 SR        000000000000 FUJITSU TEN (THAILAN160B48U0184184                                                                                                                              *          20160624IMF1606247.TXT
MDEUG6274273201606                D89828070200PV4U20160629000030SPEAKER ASM                   M IMCTM S0FR05 FTTL  07070IMCT  S0 PTB  00005                    2030 SR        000000000000 FUJITSU TEN (THAILAN160B42U0051051                                                                                                                              *          20160624IMF1606247.TXT
MDEUG6274274201606                D89828070200PV4U20160629000030SPEAKER ASM                   M IMCTM S0FR05 FTTL  07070IMCT  S0 PTB  00005                    2300 SR        000000000000 FUJITSU TEN (THAILAN160B48U0183183                                                                                                                              *          20160624IMF1606247.TXT
MDEUG6274275201606                D89828070200PV4U20160630000030SPEAKER ASM                   M IMCTM S0FR05 FTTL  07070IMCT  S0 PTB  00005                    0310 SR        000000000000 FUJITSU TEN (THAILAN160B95U0008008                                                                                                                              *          20160624IMF1606247.TXT
MDEUG6274276201606                D89828070200PV4U20160630000060SPEAKER ASM                   M IMCTM S0FR05 FTTL  07070IMCT  S0 PTB  00005                    0800 SR        000000000000 FUJITSU TEN (THAILAN160B37U0021021160B41U0033033                                                                                                                *          20160624IMF1606247.TXT
MDEUG6274277201606                D89828070200PV4U20160630000060SPEAKER ASM                   M IMCTM S0FR05 FTTL  07070IMCT  S0 PTB  00005                    1100 SR        000000000000 FUJITSU TEN (THAILAN160B41U0034034160B94U0005005                                                                                                                *          20160624IMF1606247.TXT
MDEUG6274278201606                D89828070200PV4U20160630000030SPEAKER ASM                   M IMCTM S0FR05 FTTL  07070IMCT  S0 PTB  00005                    1510 SR        000000000000 FUJITSU TEN (THAILAN160B48U0184184                                                                                                                              *          20160624IMF1606247.TXT
MDEUG6274279201606                D89828070300PT4U20160629000030SPEAKER ASM                   M IMCTM S9TS02 FTTL  07070IMCT  S9 PTB  00015                    2030 SR        000000000000 FUJITSU TEN (THAILAN160B42U0051051                                                                                                                              *          20160624IMF1606247.TXT
MDEUG6274280201606                D89828070300PT4U20160629000030SPEAKER ASM                   M IMCTM S9TS02 FTTL  07070IMCT  S9 PTB  00015                    2300 SR        000000000000 FUJITSU TEN (THAILAN160B48U0183183                                                                                                                              *          20160624IMF1606247.TXT
MDEUG6274281201606                D89828070300PT4U20160630000030SPEAKER ASM                   M IMCTM S9TS02 FTTL  07070IMCT  S9 PTB  00015                    0310 SR        000000000000 FUJITSU TEN (THAILAN160B95U0008008                                                                                                                              *          20160624IMF1606247.TXT
MDEUG6274282201606                D89828070300PT4U20160630000060SPEAKER ASM                   M IMCTM S9TS02 FTTL  07070IMCT  S9 PTB  00015                    0800 SR        000000000000 FUJITSU TEN (THAILAN160B37U0021021160B41U0033033                                                                                                                *          20160624IMF1606247.TXT
MDEUG6274283201606                D89828070300PT4U20160630000060SPEAKER ASM                   M IMCTM S9TS02 FTTL  07070IMCT  S9 PTB  00015                    1100 SR        000000000000 FUJITSU TEN (THAILAN160B41U0034034160B94U0005005                                                                                                                *          20160624IMF1606247.TXT
MDEUG6274284201606                D89828070300PT4U20160630000030SPEAKER ASM                   M IMCTM S9TS02 FTTL  07070IMCT  S9 PTB  00015                    1510 SR        000000000000 FUJITSU TEN (THAILAN160B48U0184184                                                                                                                              *          20160624IMF1606247.TXT
