REC2016060120160601ISUZU                              57     
MDDDG6201246201606                D89821984430PT1D20160606000030RADIO;AM/FM,CD                M IMCTM S5NC06 FTTL  07070IMCT  S5 PTB  00005                    2230 SR        000000000000 FUJITSU TEN (THAILAN160JXAL0147147                                                                                                                              *          20160601IMF1606014.TXT
MDDDG6201247201606                D89821984430PT1D20160607000030RADIO;AM/FM,CD                M IMCTM S5NC06 FTTL  07070IMCT  S5 PTB  00005                    1000 SR        000000000000 FUJITSU TEN (THAILAN160JNGL0056056                                                                                                                              *          20160601IMF1606014.TXT
MDDDG6201248201606                D89828070100PV1D20160606000120SPEAKER ASM                   M IMCTM S5MA12 FTTL  07070IMCT  S5 PTB  00004                    2230 SR        000000000000 FUJITSU TEN (THAILAN160JRVL0012012160JXAL0147147                                                                                                                *          20160601IMF1606014.TXT
MDDDG6201249201606                D89828070100PV1D20160607000060SPEAKER ASM                   M IMCTM S5MA12 FTTL  07070IMCT  S5 PTB  00004                    1000 SR        000000000000 FUJITSU TEN (THAILAN160JNGL0056056                                                                                                                              *          20160601IMF1606014.TXT
MDDDG6201250201606                D89828070100PV1D20160607000060SPEAKER ASM                   M IMCTM S5MA12 FTTL  07070IMCT  S5 PTB  00004                    1510 SR        000000000000 FUJITSU TEN (THAILAN160JXDL0016016                                                                                                                              *          20160601IMF1606014.TXT
MDDDG6201251201606                D89828070200PV1D20160606000060SPEAKER ASM                   M IMCTM S5MA13 FTTL  07070IMCT  S5 PTB  00005                    2230 SR        000000000000 FUJITSU TEN (THAILAN160JRVL0012012                                                                                                                              *          20160601IMF1606014.TXT
MDDDG6201252201606                D89828070300PT1D20160606000060SPEAKER ASM                   M IMCTM S5NB042FTTL  07070IMCT  S5 PTB  00015                    2230 SR        000000000000 FUJITSU TEN (THAILAN160JRVL0012012                                                                                                                              *          20160601IMF1606014.TXT
MDDUG6400537201606                D89828070100PT4U20160606000030SPEAKER ASM                   M IMCTM S0FL05 FTTL  07070IMCT  S0 PTB  00004                    2030 SR        000000000000 FUJITSU TEN (THAILAN160JUPU0009009                                                                                                                              *          20160601IMF1606014.TXT
MDDUG6400538201606                D89828070100PT4U20160607000030SPEAKER ASM                   M IMCTM S0FL05 FTTL  07070IMCT  S0 PTB  00004                    1510 SR        000000000000 FUJITSU TEN (THAILAN160JUQU0012012                                                                                                                              *          20160601IMF1606014.TXT
MDDUG6400539201606                D89828070200PV4U20160606000030SPEAKER ASM                   M IMCTM S0FR05 FTTL  07070IMCT  S0 PTB  00005                    2030 SR        000000000000 FUJITSU TEN (THAILAN160JUPU0009009                                                                                                                              *          20160601IMF1606014.TXT
MDDUG6400540201606                D89828070200PV4U20160607000030SPEAKER ASM                   M IMCTM S0FR05 FTTL  07070IMCT  S0 PTB  00005                    1510 SR        000000000000 FUJITSU TEN (THAILAN160JUQU0012012                                                                                                                              *          20160601IMF1606014.TXT
MDDUG6400541201606                D89828070300PT4U20160606000030SPEAKER ASM                   M IMCTM S9TS02 FTTL  07070IMCT  S9 PTB  00015                    2030 SR        000000000000 FUJITSU TEN (THAILAN160JUPU0009009                                                                                                                              *          20160601IMF1606014.TXT
MDDUG6400542201606                D89828070300PT4U20160607000030SPEAKER ASM                   M IMCTM S9TS02 FTTL  07070IMCT  S9 PTB  00015                    1510 SR        000000000000 FUJITSU TEN (THAILAN160JUQU0012012                                                                                                                              *          20160601IMF1606014.TXT
MDDUG6400543201606                D89829093500PT4U20160607000015RADIO;ASM DVD (T              M IMCTM S9CO001FTTL  07070IMCT  S9 PTB  00003                    1510 SR        000000000000 FUJITSU TEN (THAILAN160JUQU0012012                                                                                                                              *          20160601IMF1606014.TXT
MDDUG6400544201606                D89831228400PT4U20160606000015RADIO;AM/FM,CD                M IMCTM S9CO001FTTL  07070IMCT  S9 CPB  00003                    2030 SR        000000000000 FUJITSU TEN (THAILAN160JUPU0009009                                                                                                                              *          20160601IMF1606014.TXT
MDEDG6202252201606                D89805293700PV1D20160606000060SPEAKER ASM                   M IMCTM S5MA12 FTTL  07070IMCT  S5 PTB  00003                    2230 SR        000000000000 FUJITSU TEN (THAILAN15019FL006606615054CL0002002                                                                                                                *          20160601IMF1606014.TXT
MDEDG6202253201606                D89805293700PV1D20160607000120SPEAKER ASM                   M IMCTM S5MA12 FTTL  07070IMCT  S5 PTB  00003                    0310 SR        000000000000 FUJITSU TEN (THAILAN15018FL005205215019FL006706715056CL0017018                                                                                                  *          20160601IMF1606014.TXT
MDEDG6202254201606                D89805293700PV1D20160607000120SPEAKER ASM                   M IMCTM S5MA12 FTTL  07070IMCT  S5 PTB  00003                    1000 SR        000000000000 FUJITSU TEN (THAILAN15013FL004104215019FL006806815056CL0019019                                                                                                  *          20160601IMF1606014.TXT
MDEDG6202255201606                D89805293700PV1D20160607000060SPEAKER ASM                   M IMCTM S5MA12 FTTL  07070IMCT  S5 PTB  00003                    1510 SR        000000000000 FUJITSU TEN (THAILAN15020FL000200215027DL0028028                                                                                                                *          20160601IMF1606014.TXT
MDEDG6202256201606                D89805294000PT1D20160607000060SPEAKER ASM                   M IMCTM S5NB042FTTL  07070IMCT  S5 PTB  00015                    0310 SR        000000000000 FUJITSU TEN (THAILAN15056CL0017018                                                                                                                              *          20160601IMF1606014.TXT
MDEDG6202257201606                D89805294000PT1D20160607000090SPEAKER ASM                   M IMCTM S5NB042FTTL  07070IMCT  S5 PTB  00015                    1000 SR        000000000000 FUJITSU TEN (THAILAN15013FL004104215056CL0019019                                                                                                                *          20160601IMF1606014.TXT
MDEDG6202258201606                D89805294000PT1D20160607000060SPEAKER ASM                   M IMCTM S5NB042FTTL  07070IMCT  S5 PTB  00015                    1510 SR        000000000000 FUJITSU TEN (THAILAN15020FL000200215027DL0028028                                                                                                                *          20160601IMF1606014.TXT
MDEDG6202259201606                D89805294100PV1D20160607000030SPEAKER ASM                   M IMCTM S5MB13 FTTL  07070IMCT  S5 PTB  00005                    1510 SR        000000000000 FUJITSU TEN (THAILAN15020FL0002002                                                                                                                              *          20160601IMF1606014.TXT
MDEDG6202260201606                D89805294200PT1D20160607000060SPEAKER ASM                   M IMCTM S5AS011FTTL  07070IMCT  S6 PTB  00030                    1000 SR        000000000000 FUJITSU TEN (THAILAN15013FL0041042                                                                                                                              *          20160601IMF1606014.TXT
MDEDG6202261201606                D89805294200PT1D20160607000030SPEAKER ASM                   M IMCTM S5AS011FTTL  07070IMCT  S6 PTB  00030                    1510 SR        000000000000 FUJITSU TEN (THAILAN15027DL0028028                                                                                                                              *          20160601IMF1606014.TXT
MDEDG6202262201606                D89806470400PT1D20160607000030SPEAKER ASM;RDO,              M IMCTM S5EA18 FTTL  07070IMCT  S6 PTB  00015                    1000 SR        000000000000 FUJITSU TEN (THAILAN15013FL0041042                                                                                                                              *          20160601IMF1606014.TXT
MDEDG6202263201606                D89806470400PT1D20160607000015SPEAKER ASM;RDO,              M IMCTM S5EA18 FTTL  07070IMCT  S6 PTB  00015                    1510 SR        000000000000 FUJITSU TEN (THAILAN15027DL0028028                                                                                                                              *          20160601IMF1606014.TXT
MDEDG6202264201606                D89824360220PT1D20160607000015RADIO;AM/FM,CD                M IMCTM S5NC06 FTTL  07070IMCT  S5 CPB  00003                    1510 SR        000000000000 FUJITSU TEN (THAILAN15027DL0028028                                                                                                                              *          20160601IMF1606014.TXT
MDEDG6202265201606                D89828070100PV1D20160607000030SPEAKER ASM                   M IMCTM S5MA12 FTTL  07070IMCT  S5 PTB  00004                    0310 SR        000000000000 FUJITSU TEN (THAILAN16003JL0025025                                                                                                                              *          20160601IMF1606014.TXT
MDEDG6202266201606                D89828070100PV1D20160607000090SPEAKER ASM                   M IMCTM S5MA12 FTTL  07070IMCT  S5 PTB  00004                    1510 SR        000000000000 FUJITSU TEN (THAILAN16004JL001301316009JL0019020                                                                                                                *          20160601IMF1606014.TXT
MDEDG6202267201606                D89828070100PV4D20160606000030SPEAKER ASM                   M IMCTM S0FL05 FTTL  07070IMCT  S0 PTB  00004                    2300 SR        000000000000 FUJITSU TEN (THAILAN16072HU0014014                                                                                                                              *          20160601IMF1606014.TXT
MDEDG6202268201606                D89828070100PV4D20160607000030SPEAKER ASM                   M IMCTM S0FL05 FTTL  07070IMCT  S0 PTB  00004                    0310 SR        000000000000 FUJITSU TEN (THAILAN16074HU0002002                                                                                                                              *          20160601IMF1606014.TXT
MDEDG6202269201606                D89828070100PV4D20160607000030SPEAKER ASM                   M IMCTM S0FL05 FTTL  07070IMCT  S0 PTB  00004                    1100 SR        000000000000 FUJITSU TEN (THAILAN16071HU0013013                                                                                                                              *          20160601IMF1606014.TXT
MDEDG6202270201606                D89828070100PV4D20160607000030SPEAKER ASM                   M IMCTM S0FL05 FTTL  07070IMCT  S0 PTB  00004                    2030 SR        000000000000 FUJITSU TEN (THAILAN16073HU0006006                                                                                                                              *          20160601IMF1606014.TXT
MDEDG6202271201606                D89828070200PV4D20160606000030SPEAKER ASM                   M IMCTM S0FR05 FTTL  07070IMCT  S0 PTB  00005                    2300 SR        000000000000 FUJITSU TEN (THAILAN16072HU0014014                                                                                                                              *          20160601IMF1606014.TXT
MDEDG6202272201606                D89828070200PV4D20160607000030SPEAKER ASM                   M IMCTM S0FR05 FTTL  07070IMCT  S0 PTB  00005                    0310 SR        000000000000 FUJITSU TEN (THAILAN16074HU0002002                                                                                                                              *          20160601IMF1606014.TXT
MDEDG6202273201606                D89828070200PV4D20160607000030SPEAKER ASM                   M IMCTM S0FR05 FTTL  07070IMCT  S0 PTB  00005                    1100 SR        000000000000 FUJITSU TEN (THAILAN16071HU0013013                                                                                                                              *          20160601IMF1606014.TXT
MDEDG6202274201606                D89828070200PV4D20160607000030SPEAKER ASM                   M IMCTM S0FR05 FTTL  07070IMCT  S0 PTB  00005                    2030 SR        000000000000 FUJITSU TEN (THAILAN16073HU0006006                                                                                                                              *          20160601IMF1606014.TXT
MDEDG6202275201606                D89828070300PT1D20160607000030SPEAKER ASM                   M IMCTM S5NB042FTTL  07070IMCT  S5 PTB  00015                    1510 SR        000000000000 FUJITSU TEN (THAILAN16004JL0013013                                                                                                                              *          20160601IMF1606014.TXT
MDEDG6202276201606                D89828070300PT4D20160606000030SPEAKER ASM                   M IMCTM S9TS02 FTTL  07070IMCT  S9 PTB  00015                    2300 SR        000000000000 FUJITSU TEN (THAILAN16072HU0014014                                                                                                                              *          20160601IMF1606014.TXT
MDEDG6202277201606                D89828070300PT4D20160607000030SPEAKER ASM                   M IMCTM S9TS02 FTTL  07070IMCT  S9 PTB  00015                    0310 SR        000000000000 FUJITSU TEN (THAILAN16074HU0002002                                                                                                                              *          20160601IMF1606014.TXT
MDEDG6202278201606                D89828070300PT4D20160607000030SPEAKER ASM                   M IMCTM S9TS02 FTTL  07070IMCT  S9 PTB  00015                    1100 SR        000000000000 FUJITSU TEN (THAILAN16071HU0013013                                                                                                                              *          20160601IMF1606014.TXT
MDEDG6202279201606                D89828070300PT4D20160607000030SPEAKER ASM                   M IMCTM S9TS02 FTTL  07070IMCT  S9 PTB  00015                    2030 SR        000000000000 FUJITSU TEN (THAILAN16073HU0006006                                                                                                                              *          20160601IMF1606014.TXT
MDEDG6202280201606                D89831228600PT4D20160607000015RADIO;AM/FM,CD                M IMCTM S9CO001FTTL  07070IMCT  S9 PTB  00003                    1100 SR        000000000000 FUJITSU TEN (THAILAN16071HU0013013                                                                                                                              *          20160601IMF1606014.TXT
MDEDG6202281201606                D89831229200PT1D20160607000015RADIO;AM/FM,CD                M IMCTM S5NC06 FTTL  07070IMCT  S5 PTB  00003                    1510 SR        000000000000 FUJITSU TEN (THAILAN16004JL0013013                                                                                                                              *          20160601IMF1606014.TXT
MDEUG6200649201606                D89828070100PT4U20160606000030SPEAKER ASM                   M IMCTM S0FL05 FTTL  07070IMCT  S0 PTB  00004                    2300 SR        000000000000 FUJITSU TEN (THAILAN160B48U0150150                                                                                                                              *          20160601IMF1606014.TXT
MDEUG6200650201606                D89828070100PT4U20160607000060SPEAKER ASM                   M IMCTM S0FL05 FTTL  07070IMCT  S0 PTB  00004                    0800 SR        000000000000 FUJITSU TEN (THAILAN160B36U0009009160B41U0021021                                                                                                                *          20160601IMF1606014.TXT
MDEUG6200651201606                D89828070100PT4U20160607000030SPEAKER ASM                   M IMCTM S0FL05 FTTL  07070IMCT  S0 PTB  00004                    1100 SR        000000000000 FUJITSU TEN (THAILAN160B48U0151151                                                                                                                              *          20160601IMF1606014.TXT
MDEUG6200652201606                D89828070100PT4U20160607000030SPEAKER ASM                   M IMCTM S0FL05 FTTL  07070IMCT  S0 PTB  00004                    2030 SR        000000000000 FUJITSU TEN (THAILAN160B45U0018018                                                                                                                              *          20160601IMF1606014.TXT
MDEUG6200653201606                D89828070200PV4U20160606000030SPEAKER ASM                   M IMCTM S0FR05 FTTL  07070IMCT  S0 PTB  00005                    2300 SR        000000000000 FUJITSU TEN (THAILAN160B48U0150150                                                                                                                              *          20160601IMF1606014.TXT
MDEUG6200654201606                D89828070200PV4U20160607000060SPEAKER ASM                   M IMCTM S0FR05 FTTL  07070IMCT  S0 PTB  00005                    0800 SR        000000000000 FUJITSU TEN (THAILAN160B36U0009009160B41U0021021                                                                                                                *          20160601IMF1606014.TXT
MDEUG6200655201606                D89828070200PV4U20160607000030SPEAKER ASM                   M IMCTM S0FR05 FTTL  07070IMCT  S0 PTB  00005                    1100 SR        000000000000 FUJITSU TEN (THAILAN160B48U0151151                                                                                                                              *          20160601IMF1606014.TXT
MDEUG6200656201606                D89828070200PV4U20160607000030SPEAKER ASM                   M IMCTM S0FR05 FTTL  07070IMCT  S0 PTB  00005                    2030 SR        000000000000 FUJITSU TEN (THAILAN160B45U0018018                                                                                                                              *          20160601IMF1606014.TXT
MDEUG6200657201606                D89828070300PT4U20160606000030SPEAKER ASM                   M IMCTM S9TS02 FTTL  07070IMCT  S9 PTB  00015                    2300 SR        000000000000 FUJITSU TEN (THAILAN160B48U0150150                                                                                                                              *          20160601IMF1606014.TXT
MDEUG6200658201606                D89828070300PT4U20160607000060SPEAKER ASM                   M IMCTM S9TS02 FTTL  07070IMCT  S9 PTB  00015                    0800 SR        000000000000 FUJITSU TEN (THAILAN160B36U0009009160B41U0021021                                                                                                                *          20160601IMF1606014.TXT
MDEUG6200659201606                D89828070300PT4U20160607000030SPEAKER ASM                   M IMCTM S9TS02 FTTL  07070IMCT  S9 PTB  00015                    1100 SR        000000000000 FUJITSU TEN (THAILAN160B48U0151151                                                                                                                              *          20160601IMF1606014.TXT
MDEUG6200660201606                D89828070300PT4U20160607000030SPEAKER ASM                   M IMCTM S9TS02 FTTL  07070IMCT  S9 PTB  00015                    2030 SR        000000000000 FUJITSU TEN (THAILAN160B45U0018018                                                                                                                              *          20160601IMF1606014.TXT
