REC2016060920160609ISUZU                              15     
MAKK66045374201606D4               89805293700P3YK20160620000240SPEAKER ASM                   M IMCTM CM1    FTTL  07070IMKDC 01   PTB00003  K0                1621DES        000000000000 FUJITSU TEN (THAILAN                                                                                                                                            *G         20160609IMF1606093.TXT
MAKK66045375201606D4               89805293700P3YK20160621000240SPEAKER ASM                   M IMCTM CM1    FTTL  07070IMKDC 01   PTB00003  K0                1621DES        000000000000 FUJITSU TEN (THAILAN                                                                                                                                            *G         20160609IMF1606093.TXT
MAKK66045376201606D4               89805293700P3YK20160622000240SPEAKER ASM                   M IMCTM CM1    FTTL  07070IMKDC 01   PTB00003  K0                1621DES        000000000000 FUJITSU TEN (THAILAN                                                                                                                                            *G         20160609IMF1606093.TXT
MAKK66045377201606D4               89805293700P3YK20160623000210SPEAKER ASM                   M IMCTM CM1    FTTL  07070IMKDC 01   PTB00003  K0                1621DES        000000000000 FUJITSU TEN (THAILAN                                                                                                                                            *G         20160609IMF1606093.TXT
MAKK66045378201606D4               89805293700P3YK20160624000030SPEAKER ASM                   M IMCTM CM1    FTTL  07070IMKDC 01   PTB00003  K0                1621DES        000000000000 FUJITSU TEN (THAILAN                                                                                                                                            *G         20160609IMF1606093.TXT
MAKK66045379201606D4               89805294000P3YK20160622000030SPEAKER ASM                   M IMCTM CM1    FTTL  07070IMKDC 01   PTB00015  K0                1621DES        000000000000 FUJITSU TEN (THAILAN                                                                                                                                            *G         20160609IMF1606093.TXT
MAKK66045380201606D4               89805294000P3YK20160623000030SPEAKER ASM                   M IMCTM CM1    FTTL  07070IMKDC 01   PTB00015  K0                1621DES        000000000000 FUJITSU TEN (THAILAN                                                                                                                                            *G         20160609IMF1606093.TXT
MAKK66045381201606D4               89805294100P3YK20160622000030SPEAKER ASM                   M IMCTM CM1    FTTL  07070IMKDC 01   PTB00005  K0                1621DES        000000000000 FUJITSU TEN (THAILAN                                                                                                                                            *G         20160609IMF1606093.TXT
MAKK66045382201606D4               89805294100P3YK20160623000030SPEAKER ASM                   M IMCTM CM1    FTTL  07070IMKDC 01   PTB00005  K0                1621DES        000000000000 FUJITSU TEN (THAILAN                                                                                                                                            *G         20160609IMF1606093.TXT
MAKK66045383201606D4               89825451200P3YK20160624000060SPEAKER ASM;ROOF              M IMCTM CM1    FTTL  07070IMKDC 01   PTB00015  K0                1621DES        000000000000 FUJITSU TEN (THAILAN                                                                                                                                            *G         20160609IMF1606093.TXT
MAKK66045384201606D4               89828070100P3YK20160620000030SPEAKER ASM                   M IMCTM CM1    FTTL  07070IMKDC 01 PTB  00003  K0                1621DES        000000000000 FUJITSU TEN (THAILAN                                                                                                                                            *G         20160609IMF1606093.TXT
MAKK66045385201606D4               89828070100P3YK20160621000030SPEAKER ASM                   M IMCTM CM1    FTTL  07070IMKDC 01 PTB  00003  K0                1621DES        000000000000 FUJITSU TEN (THAILAN                                                                                                                                            *G         20160609IMF1606093.TXT
MAKK66045386201606D4               89828070100P3YK20160624000120SPEAKER ASM                   M IMCTM CM1    FTTL  07070IMKDC 01 PTB  00003  K0                1621DES        000000000000 FUJITSU TEN (THAILAN                                                                                                                                            *G         20160609IMF1606093.TXT
MAKK66045387201606D4               89828070200P3YK20160624000120SPEAKER ASM                   M IMCTM CM1    FTTL  07070IMKDC 01 PTB  00005  K0                1621DES        000000000000 FUJITSU TEN (THAILAN                                                                                                                                            *G         20160609IMF1606093.TXT
MAKK66045388201606D4               89828070300P3YK20160624000120SPEAKER ASM                   M IMCTM CM1    FTTL  07070IMKDC 01 PTB  00015  K0                1621DES        000000000000 FUJITSU TEN (THAILAN                                                                                                                                            *G         20160609IMF1606093.TXT
