REC2016061020160610ISUZU                              53     
MDDDG6225135201606                D89821984430PT1D20160615000030RADIO;AM/FM,CD                M IMCTM S5NC06 FTTL  07070IMCT  S5 PTB  00005                    0310 SR        000000000000 FUJITSU TEN (THAILAN160JXAL0151151                                                                                                                              *          20160610IMF1606106.TXT
MDDDG6225136201606                D89821984430PT1D20160615000060RADIO;AM/FM,CD                M IMCTM S5NC06 FTTL  07070IMCT  S5 PTB  00005                    1510 SR        000000000000 FUJITSU TEN (THAILAN160JNHL0034034160JXEL0071071                                                                                                                *          20160610IMF1606106.TXT
MDDDG6225137201606                D89828070100PV1D20160614000120SPEAKER ASM                   M IMCTM S5MA12 FTTL  07070IMCT  S5 PTB  00004                    2230 SR        000000000000 FUJITSU TEN (THAILAN160JXCL0057057160JYQL0038038                                                                                                                *          20160610IMF1606106.TXT
MDDDG6225138201606                D89828070100PV1D20160615000180SPEAKER ASM                   M IMCTM S5MA12 FTTL  07070IMCT  S5 PTB  00004                    0310 SR        000000000000 FUJITSU TEN (THAILAN160JRVL0013013160JXAL0151151160JYSL0105105                                                                                                  *          20160610IMF1606106.TXT
MDDDG6225139201606                D89828070100PV1D20160615000180SPEAKER ASM                   M IMCTM S5MA12 FTTL  07070IMCT  S5 PTB  00004                    1000 SR        000000000000 FUJITSU TEN (THAILAN160JXEL0071071160JYSL0106106160JZFL0116116                                                                                                  *          20160610IMF1606106.TXT
MDDDG6225140201606                D89828070100PV1D20160615000180SPEAKER ASM                   M IMCTM S5MA12 FTTL  07070IMCT  S5 PTB  00004                    1510 SR        000000000000 FUJITSU TEN (THAILAN160JNHL0034034160JXCL0058058160JYSL0107107                                                                                                  *          20160610IMF1606106.TXT
MDDDG6225141201606                D89828070200PV1D20160615000060SPEAKER ASM                   M IMCTM S5MA13 FTTL  07070IMCT  S5 PTB  00005                    0310 SR        000000000000 FUJITSU TEN (THAILAN160JRVL0013013                                                                                                                              *          20160610IMF1606106.TXT
MDDDG6225142201606                D89828070200PV1D20160615000060SPEAKER ASM                   M IMCTM S5MA13 FTTL  07070IMCT  S5 PTB  00005                    1000 SR        000000000000 FUJITSU TEN (THAILAN160JZFL0116116                                                                                                                              *          20160610IMF1606106.TXT
MDDDG6225143201606                D89828070300PT1D20160614000060SPEAKER ASM                   M IMCTM S5NB042FTTL  07070IMCT  S5 PTB  00015                    2230 SR        000000000000 FUJITSU TEN (THAILAN160JYQL0038038                                                                                                                              *          20160610IMF1606106.TXT
MDDDG6225144201606                D89828070300PT1D20160615000120SPEAKER ASM                   M IMCTM S5NB042FTTL  07070IMCT  S5 PTB  00015                    0310 SR        000000000000 FUJITSU TEN (THAILAN160JRVL0013013160JYSL0105105                                                                                                                *          20160610IMF1606106.TXT
MDDDG6225145201606                D89828070300PT1D20160615000120SPEAKER ASM                   M IMCTM S5NB042FTTL  07070IMCT  S5 PTB  00015                    1000 SR        000000000000 FUJITSU TEN (THAILAN160JYSL0106106160JZFL0116116                                                                                                                *          20160610IMF1606106.TXT
MDDDG6225146201606                D89828070300PT1D20160615000060SPEAKER ASM                   M IMCTM S5NB042FTTL  07070IMCT  S5 PTB  00015                    1510 SR        000000000000 FUJITSU TEN (THAILAN160JYSL0107107                                                                                                                              *          20160610IMF1606106.TXT
MDDDG6225147201606                D89829645900PT1D20160615000030RADIO;ASM DVD                 M IMCTM S5NC06 FTTL  07070IMCT  S5 CPB  00003                    1000 SR        000000000000 FUJITSU TEN (THAILAN160JZFL0116116                                                                                                                              *          20160610IMF1606106.TXT
MDDDG6225148201606                D89831228300PT1D20160614000030RADIO;AM/FM,CD                M IMCTM S5NC06 FTTL  07070IMCT  S5 CPB  00003                    2230 SR        000000000000 FUJITSU TEN (THAILAN160JYQL0038038                                                                                                                              *          20160610IMF1606106.TXT
MDDDG6225149201606                D89831228300PT1D20160615000030RADIO;AM/FM,CD                M IMCTM S5NC06 FTTL  07070IMCT  S5 CPB  00003                    0310 SR        000000000000 FUJITSU TEN (THAILAN160JYSL0105105                                                                                                                              *          20160610IMF1606106.TXT
MDDDG6225150201606                D89831228300PT1D20160615000030RADIO;AM/FM,CD                M IMCTM S5NC06 FTTL  07070IMCT  S5 CPB  00003                    1000 SR        000000000000 FUJITSU TEN (THAILAN160JYSL0106106                                                                                                                              *          20160610IMF1606106.TXT
MDDDG6225151201606                D89831228300PT1D20160615000030RADIO;AM/FM,CD                M IMCTM S5NC06 FTTL  07070IMCT  S5 CPB  00003                    1510 SR        000000000000 FUJITSU TEN (THAILAN160JYSL0107107                                                                                                                              *          20160610IMF1606106.TXT
MDDUG6415552201606                D89828070100PT4U20160615000030SPEAKER ASM                   M IMCTM S0FL05 FTTL  07070IMCT  S0 PTB  00004                    1100 SR        000000000000 FUJITSU TEN (THAILAN160JURU0028028                                                                                                                              *          20160610IMF1606106.TXT
MDDUG6415553201606                D89828070200PV4U20160615000030SPEAKER ASM                   M IMCTM S0FR05 FTTL  07070IMCT  S0 PTB  00005                    1100 SR        000000000000 FUJITSU TEN (THAILAN160JURU0028028                                                                                                                              *          20160610IMF1606106.TXT
MDDUG6415554201606                D89828070300PT4U20160615000030SPEAKER ASM                   M IMCTM S9TS02 FTTL  07070IMCT  S9 PTB  00015                    1100 SR        000000000000 FUJITSU TEN (THAILAN160JURU0028028                                                                                                                              *          20160610IMF1606106.TXT
MDDUG6415555201606                D89829093500PT4U20160615000015RADIO;ASM DVD (T              M IMCTM S9CO001FTTL  07070IMCT  S9 PTB  00003                    1100 SR        000000000000 FUJITSU TEN (THAILAN160JURU0028028                                                                                                                              *          20160610IMF1606106.TXT
MDEDG6262873201606                D89805293700PV4D20160614000060SPEAKER ASM                   M IMCTM S0FR05 FTTL  07070IMCT  S0 PTB  00003                    2300 SR        000000000000 FUJITSU TEN (THAILAN15018FU002902915019FU0018018                                                                                                                *          20160610IMF1606106.TXT
MDEDG6262874201606                D89805293700PV4D20160615000030SPEAKER ASM                   M IMCTM S0FR05 FTTL  07070IMCT  S0 PTB  00003                    0800 SR        000000000000 FUJITSU TEN (THAILAN15018FU0030030                                                                                                                              *          20160610IMF1606106.TXT
MDEDG6262875201606                D89805293700PV4D20160615000060SPEAKER ASM                   M IMCTM S0FR05 FTTL  07070IMCT  S0 PTB  00003                    1510 SR        000000000000 FUJITSU TEN (THAILAN15019FU001901915076DU0001001                                                                                                                *          20160610IMF1606106.TXT
MDEDG6262876201606                D89828070100PV1D20160614000030SPEAKER ASM                   M IMCTM S5MA12 FTTL  07070IMCT  S5 PTB  00004                    1510 SR        000000000000 FUJITSU TEN (THAILAN16047KL0010010                                                                                                                              *          20160610IMF1606106.TXT
MDEDG6262877201606                D89828070100PV1D20160614000030SPEAKER ASM                   M IMCTM S5MA12 FTTL  07070IMCT  S5 PTB  00004                    2230 SR        000000000000 FUJITSU TEN (THAILAN16062HL0001001                                                                                                                              *          20160610IMF1606106.TXT
MDEDG6262878201606                D89828070100PV1D20160615000030SPEAKER ASM                   M IMCTM S5MA12 FTTL  07070IMCT  S5 PTB  00004                    1000 SR        000000000000 FUJITSU TEN (THAILAN16045HL0002002                                                                                                                              *          20160610IMF1606106.TXT
MDEDG6262879201606                D89828070100PV1D20160615000060SPEAKER ASM                   M IMCTM S5MA12 FTTL  07070IMCT  S5 PTB  00004                    1510 SR        000000000000 FUJITSU TEN (THAILAN16007JL0028029                                                                                                                              *          20160610IMF1606106.TXT
MDEDG6262880201606                D89828070200PV1D20160614000030SPEAKER ASM                   M IMCTM S5MA13 FTTL  07070IMCT  S5 PTB  00005                    1510 SR        000000000000 FUJITSU TEN (THAILAN16047KL0010010                                                                                                                              *          20160610IMF1606106.TXT
MDEDG6262881201606                D89828070200PV1D20160614000030SPEAKER ASM                   M IMCTM S5MA13 FTTL  07070IMCT  S5 PTB  00005                    2230 SR        000000000000 FUJITSU TEN (THAILAN16062HL0001001                                                                                                                              *          20160610IMF1606106.TXT
MDEDG6262882201606                D89828070300PT1D20160614000030SPEAKER ASM                   M IMCTM S5NB042FTTL  07070IMCT  S5 PTB  00015                    1510 SR        000000000000 FUJITSU TEN (THAILAN16047KL0010010                                                                                                                              *          20160610IMF1606106.TXT
MDEDG6262883201606                D89828070300PT1D20160614000030SPEAKER ASM                   M IMCTM S5NB042FTTL  07070IMCT  S5 PTB  00015                    2230 SR        000000000000 FUJITSU TEN (THAILAN16062HL0001001                                                                                                                              *          20160610IMF1606106.TXT
MDEDG6262884201606                D89828070300PT1D20160615000030SPEAKER ASM                   M IMCTM S5NB042FTTL  07070IMCT  S5 PTB  00015                    1000 SR        000000000000 FUJITSU TEN (THAILAN16045HL0002002                                                                                                                              *          20160610IMF1606106.TXT
MDEDG6262885201606                D89831228600PT1D20160614000015RADIO;AM/FM,CD                M IMCTM S5NC06 FTTL  07070IMCT  S5 PTB  00003                    2230 SR        000000000000 FUJITSU TEN (THAILAN16062HL0001001                                                                                                                              *          20160610IMF1606106.TXT
MDEDG6262886201606                D89831228600PT1D20160615000015RADIO;AM/FM,CD                M IMCTM S5NC06 FTTL  07070IMCT  S5 PTB  00003                    1000 SR        000000000000 FUJITSU TEN (THAILAN16045HL0002002                                                                                                                              *          20160610IMF1606106.TXT
MDEUG6229539201606                D89828070100PT4U20160614000030SPEAKER ASM                   M IMCTM S0FL05 FTTL  07070IMCT  S0 PTB  00004                    2030 SR        000000000000 FUJITSU TEN (THAILAN160B48U0162162                                                                                                                              *          20160610IMF1606106.TXT
MDEUG6229540201606                D89828070100PT4U20160615000030SPEAKER ASM                   M IMCTM S0FL05 FTTL  07070IMCT  S0 PTB  00004                    0310 SR        000000000000 FUJITSU TEN (THAILAN160B42U0042042                                                                                                                              *          20160610IMF1606106.TXT
MDEUG6229541201606                D89828070100PT4U20160615000060SPEAKER ASM                   M IMCTM S0FL05 FTTL  07070IMCT  S0 PTB  00004                    0800 SR        000000000000 FUJITSU TEN (THAILAN160B41U0025025160B45U0023023                                                                                                                *          20160610IMF1606106.TXT
MDEUG6229542201606                D89828070100PT4U20160615000030SPEAKER ASM                   M IMCTM S0FL05 FTTL  07070IMCT  S0 PTB  00004                    1100 SR        000000000000 FUJITSU TEN (THAILAN160B48U0163163                                                                                                                              *          20160610IMF1606106.TXT
MDEUG6229543201606                D89828070100PT4U20160615000030SPEAKER ASM                   M IMCTM S0FL05 FTTL  07070IMCT  S0 PTB  00004                    1510 SR        000000000000 FUJITSU TEN (THAILAN160B46U0060060                                                                                                                              *          20160610IMF1606106.TXT
MDEUG6229544201606                D89828070100PT4U20160615000030SPEAKER ASM                   M IMCTM S0FL05 FTTL  07070IMCT  S0 PTB  00004                    2030 SR        000000000000 FUJITSU TEN (THAILAN160B46U0061061                                                                                                                              *          20160610IMF1606106.TXT
MDEUG6229545201606                D89828070200PV4U20160614000030SPEAKER ASM                   M IMCTM S0FR05 FTTL  07070IMCT  S0 PTB  00005                    2030 SR        000000000000 FUJITSU TEN (THAILAN160B48U0162162                                                                                                                              *          20160610IMF1606106.TXT
MDEUG6229546201606                D89828070200PV4U20160615000030SPEAKER ASM                   M IMCTM S0FR05 FTTL  07070IMCT  S0 PTB  00005                    0310 SR        000000000000 FUJITSU TEN (THAILAN160B42U0042042                                                                                                                              *          20160610IMF1606106.TXT
MDEUG6229547201606                D89828070200PV4U20160615000060SPEAKER ASM                   M IMCTM S0FR05 FTTL  07070IMCT  S0 PTB  00005                    0800 SR        000000000000 FUJITSU TEN (THAILAN160B41U0025025160B45U0023023                                                                                                                *          20160610IMF1606106.TXT
MDEUG6229548201606                D89828070200PV4U20160615000030SPEAKER ASM                   M IMCTM S0FR05 FTTL  07070IMCT  S0 PTB  00005                    1100 SR        000000000000 FUJITSU TEN (THAILAN160B48U0163163                                                                                                                              *          20160610IMF1606106.TXT
MDEUG6229549201606                D89828070200PV4U20160615000030SPEAKER ASM                   M IMCTM S0FR05 FTTL  07070IMCT  S0 PTB  00005                    1510 SR        000000000000 FUJITSU TEN (THAILAN160B46U0060060                                                                                                                              *          20160610IMF1606106.TXT
MDEUG6229550201606                D89828070200PV4U20160615000030SPEAKER ASM                   M IMCTM S0FR05 FTTL  07070IMCT  S0 PTB  00005                    2030 SR        000000000000 FUJITSU TEN (THAILAN160B46U0061061                                                                                                                              *          20160610IMF1606106.TXT
MDEUG6229551201606                D89828070300PT4U20160614000030SPEAKER ASM                   M IMCTM S9TS02 FTTL  07070IMCT  S9 PTB  00015                    2030 SR        000000000000 FUJITSU TEN (THAILAN160B48U0162162                                                                                                                              *          20160610IMF1606106.TXT
MDEUG6229552201606                D89828070300PT4U20160615000030SPEAKER ASM                   M IMCTM S9TS02 FTTL  07070IMCT  S9 PTB  00015                    0310 SR        000000000000 FUJITSU TEN (THAILAN160B42U0042042                                                                                                                              *          20160610IMF1606106.TXT
MDEUG6229553201606                D89828070300PT4U20160615000060SPEAKER ASM                   M IMCTM S9TS02 FTTL  07070IMCT  S9 PTB  00015                    0800 SR        000000000000 FUJITSU TEN (THAILAN160B41U0025025160B45U0023023                                                                                                                *          20160610IMF1606106.TXT
MDEUG6229554201606                D89828070300PT4U20160615000030SPEAKER ASM                   M IMCTM S9TS02 FTTL  07070IMCT  S9 PTB  00015                    1100 SR        000000000000 FUJITSU TEN (THAILAN160B48U0163163                                                                                                                              *          20160610IMF1606106.TXT
MDEUG6229555201606                D89828070300PT4U20160615000030SPEAKER ASM                   M IMCTM S9TS02 FTTL  07070IMCT  S9 PTB  00015                    1510 SR        000000000000 FUJITSU TEN (THAILAN160B46U0060060                                                                                                                              *          20160610IMF1606106.TXT
MDEUG6229556201606                D89828070300PT4U20160615000030SPEAKER ASM                   M IMCTM S9TS02 FTTL  07070IMCT  S9 PTB  00015                    2030 SR        000000000000 FUJITSU TEN (THAILAN160B46U0061061                                                                                                                              *          20160610IMF1606106.TXT
