REC2016062920160629ISUZU                              6      
MECKG6803366000000          IMKDC  89805293700P3YK20160711000034SPEAKER ASM                   M IMCTM IMKDC  FTTL  07070IMKDC 07*  PTB00003    K295A8950   001 0000 ES        000000000000 FUJITSU TEN (THAILAN                                                                                                                                            *E         20160629IMF1606291.TXT
MECKG6803367000000          IMKDC  89805294000P3YK20160702000001SPEAKER ASM                   M IMCTM IMKDC  FTTL  07070IMKDC 07*  PTB00015    K293E8730   001 0000 ES        000000000000 FUJITSU TEN (THAILAN                                                                                                                                            *E         20160629IMF1606291.TXT
MECKG6803368000000          IMKDC  89805294000P3YK20160711000034SPEAKER ASM                   M IMCTM IMKDC  FTTL  07070IMKDC 07*  PTB00015    K295A8950   001 0000 ES        000000000000 FUJITSU TEN (THAILAN                                                                                                                                            *E         20160629IMF1606291.TXT
MECKG6803369000000          IMKDC  89805294100P3YK20160711000034SPEAKER ASM                   M IMCTM IMKDC  FTTL  07070IMKDC 07*  PTB00005    K295A8950   001 0000 ES        000000000000 FUJITSU TEN (THAILAN                                                                                                                                            *E         20160629IMF1606291.TXT
MECKG6803370000000          IMKDC  89805294200P3YK20160711000034SPEAKER ASM                   M IMCTM IMKDC  FTTL  07070IMKDC 07*X    00030    K295A8950   001 0000 ES        000000000000 FUJITSU TEN (THAILAN                                                                                                                                            *E         20160629IMF1606291.TXT
MECKG6803371000000          IMKDC  89806470400P3YK20160711000017SPEAKER ASM;RDO,              M IMCTM IMKDC  FTTL  07070IMKDC 07*  PTB00015    K295A8950   001 0000 ES        000000000000 FUJITSU TEN (THAILAN                                                                                                                                            *E         20160629IMF1606291.TXT
