REC2016062920160630ISUZU                              36     
MDDDG6296044201607                D89821984430PT1D20160705000030RADIO;AM/FM,CD                M IMCTM S5NC06 FTTL  07070IMCT  S5 PTB  00005                    0310 SR        000000000000 FUJITSU TEN (THAILAN160JNGL0065065                                                                                                                              *          20160629IMF1606295.TXT
MDDDG6296045201607                D89825217900PT1D20160705000030RADIO;AM/FM,CD,D              M IMCTM S5NC06 FTTL  07070IMCT  S5 PTB  00003                    1510 SR        000000000000 FUJITSU TEN (THAILAN160JYHL0015015                                                                                                                              *          20160629IMF1606295.TXT
MDDDG6296046201607                D89828070100PV1D20160705000060SPEAKER ASM                   M IMCTM S5MA12 FTTL  07070IMCT  S5 PTB  00004                    0310 SR        000000000000 FUJITSU TEN (THAILAN160JNGL0065065                                                                                                                              *          20160629IMF1606295.TXT
MDDDG6296047201607                D89828070100PV1D20160705000060SPEAKER ASM                   M IMCTM S5MA12 FTTL  07070IMCT  S5 PTB  00004                    1000 SR        000000000000 FUJITSU TEN (THAILAN160JXDL0019019                                                                                                                              *          20160629IMF1606295.TXT
MDDDG6296048201607                D89828070100PV1D20160705000120SPEAKER ASM                   M IMCTM S5MA12 FTTL  07070IMCT  S5 PTB  00004                    1510 SR        000000000000 FUJITSU TEN (THAILAN160JYHL0015015160JZFL0124124                                                                                                                *          20160629IMF1606295.TXT
MDDDG6296049201607                D89828070100PV4D20160705000060SPEAKER ASM                   M IMCTM S0FL05 FTTL  07070IMCT  S0 PTB  00004                    0310 SR        000000000000 FUJITSU TEN (THAILAN160JRVU0001001                                                                                                                              *          20160629IMF1606295.TXT
MDDDG6296050201607                D89828070200PV1D20160705000060SPEAKER ASM                   M IMCTM S5MA13 FTTL  07070IMCT  S5 PTB  00005                    1510 SR        000000000000 FUJITSU TEN (THAILAN160JZFL0124124                                                                                                                              *          20160629IMF1606295.TXT
MDDDG6296051201607                D89828070200PV4D20160705000060SPEAKER ASM                   M IMCTM S0FR05 FTTL  07070IMCT  S0 PTB  00005                    0310 SR        000000000000 FUJITSU TEN (THAILAN160JRVU0001001                                                                                                                              *          20160629IMF1606295.TXT
MDDDG6296052201607                D89828070300PT1D20160705000120SPEAKER ASM                   M IMCTM S5NB042FTTL  07070IMCT  S5 PTB  00015                    1510 SR        000000000000 FUJITSU TEN (THAILAN160JYHL0015015160JZFL0124124                                                                                                                *          20160629IMF1606295.TXT
MDDDG6296053201607                D89828070300PT4D20160705000060SPEAKER ASM                   M IMCTM S9TS02 FTTL  07070IMCT  S9 PTB  00015                    0310 SR        000000000000 FUJITSU TEN (THAILAN160JRVU0001001                                                                                                                              *          20160629IMF1606295.TXT
MDDDG6296054201607                D89829645900PT1D20160705000030RADIO;ASM DVD                 M IMCTM S5NC06 FTTL  07070IMCT  S5 CPB  00003                    1510 SR        000000000000 FUJITSU TEN (THAILAN160JZFL0124124                                                                                                                              *          20160629IMF1606295.TXT
MDEDG6336816201607                D89805293700PV1D20160704000090SPEAKER ASM                   M IMCTM S5MA12 FTTL  07070IMCT  S5 PTB  00003                    2230 SR        000000000000 FUJITSU TEN (THAILAN15019FL008408515076DL0009009                                                                                                                *          20160629IMF1606295.TXT
MDEDG6336817201607                D89805293700PV1D20160705000060SPEAKER ASM                   M IMCTM S5MA12 FTTL  07070IMCT  S5 PTB  00003                    0310 SR        000000000000 FUJITSU TEN (THAILAN15076DL0010011                                                                                                                              *          20160629IMF1606295.TXT
MDEDG6336818201607                D89828070100PV1D20160704000030SPEAKER ASM                   M IMCTM S5MA12 FTTL  07070IMCT  S5 PTB  00004                    1510 SR        000000000000 FUJITSU TEN (THAILAN16016KL0006006                                                                                                                              *          20160629IMF1606295.TXT
MDEDG6336819201607                D89828070100PV1D20160704000060SPEAKER ASM                   M IMCTM S5MA12 FTTL  07070IMCT  S5 PTB  00004                    2230 SR        000000000000 FUJITSU TEN (THAILAN16075HL001101116081HL0090090                                                                                                                *          20160629IMF1606295.TXT
MDEDG6336820201607                D89828070100PV1D20160705000060SPEAKER ASM                   M IMCTM S5MA12 FTTL  07070IMCT  S5 PTB  00004                    0310 SR        000000000000 FUJITSU TEN (THAILAN16046KL000700716075HL0012012                                                                                                                *          20160629IMF1606295.TXT
MDEDG6336821201607                D89828070100PV1D20160705000120SPEAKER ASM                   M IMCTM S5MA12 FTTL  07070IMCT  S5 PTB  00004                    1000 SR        000000000000 FUJITSU TEN (THAILAN16007JL003203216046KL000800816049HL0005006                                                                                                  *          20160629IMF1606295.TXT
MDEDG6336822201607                D89828070100PV1D20160705000030SPEAKER ASM                   M IMCTM S5MA12 FTTL  07070IMCT  S5 PTB  00004                    1510 SR        000000000000 FUJITSU TEN (THAILAN16007JL0033033                                                                                                                              *          20160629IMF1606295.TXT
MDEDG6336823201607                D89828070200PV1D20160705000030SPEAKER ASM                   M IMCTM S5MA13 FTTL  07070IMCT  S5 PTB  00005                    0310 SR        000000000000 FUJITSU TEN (THAILAN16046KL0007007                                                                                                                              *          20160629IMF1606295.TXT
MDEDG6336824201607                D89828070200PV1D20160705000090SPEAKER ASM                   M IMCTM S5MA13 FTTL  07070IMCT  S5 PTB  00005                    1000 SR        000000000000 FUJITSU TEN (THAILAN16046KL000800816049HL0005006                                                                                                                *          20160629IMF1606295.TXT
MDEDG6336825201607                D89828070300PT1D20160705000030SPEAKER ASM                   M IMCTM S5NB042FTTL  07070IMCT  S5 PTB  00015                    0310 SR        000000000000 FUJITSU TEN (THAILAN16046KL0007007                                                                                                                              *          20160629IMF1606295.TXT
MDEDG6336826201607                D89828070300PT1D20160705000090SPEAKER ASM                   M IMCTM S5NB042FTTL  07070IMCT  S5 PTB  00015                    1000 SR        000000000000 FUJITSU TEN (THAILAN16046KL000800816049HL0005006                                                                                                                *          20160629IMF1606295.TXT
MDEDG6336827201607                D89831228600PT1D20160705000030RADIO;AM/FM,CD                M IMCTM S5NC06 FTTL  07070IMCT  S5 PTB  00003                    1000 SR        000000000000 FUJITSU TEN (THAILAN16049HL0005006                                                                                                                              *          20160629IMF1606295.TXT
MDEUG6287466201607                D89828070100PT4U20160704000030SPEAKER ASM                   M IMCTM S0FL05 FTTL  07070IMCT  S0 PTB  00004                    2030 SR        000000000000 FUJITSU TEN (THAILAN160B48U0189189                                                                                                                              *          20160629IMF1606295.TXT
MDEUG6287467201607                D89828070100PT4U20160704000030SPEAKER ASM                   M IMCTM S0FL05 FTTL  07070IMCT  S0 PTB  00004                    2300 SR        000000000000 FUJITSU TEN (THAILAN160B42U0054054                                                                                                                              *          20160629IMF1606295.TXT
MDEUG6287468201607                D89828070100PT4U20160705000060SPEAKER ASM                   M IMCTM S0FL05 FTTL  07070IMCT  S0 PTB  00004                    1100 SR        000000000000 FUJITSU TEN (THAILAN160B40U0012012160B41U0036036                                                                                                                *          20160629IMF1606295.TXT
MDEUG6287469201607                D89828070100PT4U20160705000030SPEAKER ASM                   M IMCTM S0FL05 FTTL  07070IMCT  S0 PTB  00004                    2030 SR        000000000000 FUJITSU TEN (THAILAN160B37U0024024                                                                                                                              *          20160629IMF1606295.TXT
MDEUG6287470201607                D89828070200PV4U20160704000030SPEAKER ASM                   M IMCTM S0FR05 FTTL  07070IMCT  S0 PTB  00005                    2030 SR        000000000000 FUJITSU TEN (THAILAN160B48U0189189                                                                                                                              *          20160629IMF1606295.TXT
MDEUG6287471201607                D89828070200PV4U20160704000030SPEAKER ASM                   M IMCTM S0FR05 FTTL  07070IMCT  S0 PTB  00005                    2300 SR        000000000000 FUJITSU TEN (THAILAN160B42U0054054                                                                                                                              *          20160629IMF1606295.TXT
MDEUG6287472201607                D89828070200PV4U20160705000060SPEAKER ASM                   M IMCTM S0FR05 FTTL  07070IMCT  S0 PTB  00005                    1100 SR        000000000000 FUJITSU TEN (THAILAN160B40U0012012160B41U0036036                                                                                                                *          20160629IMF1606295.TXT
MDEUG6287473201607                D89828070200PV4U20160705000030SPEAKER ASM                   M IMCTM S0FR05 FTTL  07070IMCT  S0 PTB  00005                    2030 SR        000000000000 FUJITSU TEN (THAILAN160B37U0024024                                                                                                                              *          20160629IMF1606295.TXT
MDEUG6287474201607                D89828070300PT4U20160704000030SPEAKER ASM                   M IMCTM S9TS02 FTTL  07070IMCT  S9 PTB  00015                    2030 SR        000000000000 FUJITSU TEN (THAILAN160B48U0189189                                                                                                                              *          20160629IMF1606295.TXT
MDEUG6287475201607                D89828070300PT4U20160704000030SPEAKER ASM                   M IMCTM S9TS02 FTTL  07070IMCT  S9 PTB  00015                    2300 SR        000000000000 FUJITSU TEN (THAILAN160B42U0054054                                                                                                                              *          20160629IMF1606295.TXT
MDEUG6287476201607                D89828070300PT4U20160705000060SPEAKER ASM                   M IMCTM S9TS02 FTTL  07070IMCT  S9 PTB  00015                    1100 SR        000000000000 FUJITSU TEN (THAILAN160B40U0012012160B41U0036036                                                                                                                *          20160629IMF1606295.TXT
MDEUG6287477201607                D89828070300PT4U20160705000030SPEAKER ASM                   M IMCTM S9TS02 FTTL  07070IMCT  S9 PTB  00015                    2030 SR        000000000000 FUJITSU TEN (THAILAN160B37U0024024                                                                                                                              *          20160629IMF1606295.TXT
MDEUG6287478201607                D89831228600PT4U20160705000015RADIO;AM/FM,CD                M IMCTM S9CO001FTTL  07070IMCT  S9 PTB  00003                    1100 SR        000000000000 FUJITSU TEN (THAILAN160B40U0012012                                                                                                                              *          20160629IMF1606295.TXT
