REC2016062720160628ISUZU                              56     
MDDDG6289473201607                D89825217900PT1D20160701000030RADIO;AM/FM,CD,D              M IMCTM S5NC06 FTTL  07070IMCT  S5 PTB  00003                    1000 SR        000000000000 FUJITSU TEN (THAILAN160JYGL0124124                                                                                                                              *          20160627IMF1606275.TXT
MDDDG6289474201607                D89828070100PV1D20160630000060SPEAKER ASM                   M IMCTM S5MA12 FTTL  07070IMCT  S5 PTB  00004                    2230 SR        000000000000 FUJITSU TEN (THAILAN160JRNL0011011                                                                                                                              *          20160627IMF1606275.TXT
MDDDG6289475201607                D89828070100PV1D20160701000060SPEAKER ASM                   M IMCTM S5MA12 FTTL  07070IMCT  S5 PTB  00004                    0310 SR        000000000000 FUJITSU TEN (THAILAN160JYEL0034034                                                                                                                              *          20160627IMF1606275.TXT
MDDDG6289476201607                D89828070100PV1D20160701000120SPEAKER ASM                   M IMCTM S5MA12 FTTL  07070IMCT  S5 PTB  00004                    1000 SR        000000000000 FUJITSU TEN (THAILAN160JYGL0124124160JYJL0019019                                                                                                                *          20160627IMF1606275.TXT
MDDDG6289477201607                D89828070200PV1D20160630000060SPEAKER ASM                   M IMCTM S5MA13 FTTL  07070IMCT  S5 PTB  00005                    2230 SR        000000000000 FUJITSU TEN (THAILAN160JRNL0011011                                                                                                                              *          20160627IMF1606275.TXT
MDDDG6289478201607                D89828070300PT1D20160630000060SPEAKER ASM                   M IMCTM S5NB042FTTL  07070IMCT  S5 PTB  00015                    2230 SR        000000000000 FUJITSU TEN (THAILAN160JRNL0011011                                                                                                                              *          20160627IMF1606275.TXT
MDDDG6289479201607                D89828070300PT1D20160701000060SPEAKER ASM                   M IMCTM S5NB042FTTL  07070IMCT  S5 PTB  00015                    0310 SR        000000000000 FUJITSU TEN (THAILAN160JYEL0034034                                                                                                                              *          20160627IMF1606275.TXT
MDDDG6289480201607                D89828070300PT1D20160701000120SPEAKER ASM                   M IMCTM S5NB042FTTL  07070IMCT  S5 PTB  00015                    1000 SR        000000000000 FUJITSU TEN (THAILAN160JYGL0124124160JYJL0019019                                                                                                                *          20160627IMF1606275.TXT
MDDDG6289481201607                D89831228300PT1D20160701000030RADIO;AM/FM,CD                M IMCTM S5NC06 FTTL  07070IMCT  S5 CPB  00003                    0310 SR        000000000000 FUJITSU TEN (THAILAN160JYEL0034034                                                                                                                              *          20160627IMF1606275.TXT
MDDUG6434319201607                D89828070100PT4U20160701000030SPEAKER ASM                   M IMCTM S0FL05 FTTL  07070IMCT  S0 PTB  00004                    1510 SR        000000000000 FUJITSU TEN (THAILAN160JUPU0011011                                                                                                                              *          20160627IMF1606275.TXT
MDDUG6434320201607                D89828070200PV4U20160701000030SPEAKER ASM                   M IMCTM S0FR05 FTTL  07070IMCT  S0 PTB  00005                    1510 SR        000000000000 FUJITSU TEN (THAILAN160JUPU0011011                                                                                                                              *          20160627IMF1606275.TXT
MDDUG6434321201607                D89828070300PT4U20160701000030SPEAKER ASM                   M IMCTM S9TS02 FTTL  07070IMCT  S9 PTB  00015                    1510 SR        000000000000 FUJITSU TEN (THAILAN160JUPU0011011                                                                                                                              *          20160627IMF1606275.TXT
MDDUG6434322201607                D89831228400PT4U20160701000015RADIO;AM/FM,CD                M IMCTM S9CO001FTTL  07070IMCT  S9 CPB  00003                    1510 SR        000000000000 FUJITSU TEN (THAILAN160JUPU0011011                                                                                                                              *          20160627IMF1606275.TXT
MDEDG6324162201607                D89805293700PV1D20160630000060SPEAKER ASM                   M IMCTM S5MA12 FTTL  07070IMCT  S5 PTB  00003                    1510 SR        000000000000 FUJITSU TEN (THAILAN15018CL002202215028BL0030030                                                                                                                *          20160627IMF1606275.TXT
MDEDG6324163201607                D89805294000PT1D20160630000030SPEAKER ASM                   M IMCTM S5NB042FTTL  07070IMCT  S5 PTB  00015                    1510 SR        000000000000 FUJITSU TEN (THAILAN15028BL0030030                                                                                                                              *          20160627IMF1606275.TXT
MDEDG6324164201607                D89805294100PV1D20160630000030SPEAKER ASM                   M IMCTM S5MB13 FTTL  07070IMCT  S5 PTB  00005                    1510 SR        000000000000 FUJITSU TEN (THAILAN15028BL0030030                                                                                                                              *          20160627IMF1606275.TXT
MDEDG6324165201607                D89828070100PV1D20160630000090SPEAKER ASM                   M IMCTM S5MA12 FTTL  07070IMCT  S5 PTB  00004                    2230 SR        000000000000 FUJITSU TEN (THAILAN16038KL000700816085HL0012012                                                                                                                *          20160627IMF1606275.TXT
MDEDG6324166201607                D89828070100PV1D20160701000120SPEAKER ASM                   M IMCTM S5MA12 FTTL  07070IMCT  S5 PTB  00004                    0310 SR        000000000000 FUJITSU TEN (THAILAN16038KL000900916041KL000100116056HL0006007                                                                                                  *          20160627IMF1606275.TXT
MDEDG6324167201607                D89828070100PV1D20160701000030SPEAKER ASM                   M IMCTM S5MA12 FTTL  07070IMCT  S5 PTB  00004                    1000 SR        000000000000 FUJITSU TEN (THAILAN16016KL0005005                                                                                                                              *          20160627IMF1606275.TXT
MDEDG6324168201607                D89828070100PV1D20160701000090SPEAKER ASM                   M IMCTM S5MA12 FTTL  07070IMCT  S5 PTB  00004                    1510 SR        000000000000 FUJITSU TEN (THAILAN16028KL000300316042LL000300316045HL0003003                                                                                                  *          20160627IMF1606275.TXT
MDEDG6324169201607                D89828070100PV4D20160630000030SPEAKER ASM                   M IMCTM S0FL05 FTTL  07070IMCT  S0 PTB  00004                    2300 SR        000000000000 FUJITSU TEN (THAILAN16072HU0021021                                                                                                                              *          20160627IMF1606275.TXT
MDEDG6324170201607                D89828070100PV4D20160701000030SPEAKER ASM                   M IMCTM S0FL05 FTTL  07070IMCT  S0 PTB  00004                    0800 SR        000000000000 FUJITSU TEN (THAILAN16058HU0009009                                                                                                                              *          20160627IMF1606275.TXT
MDEDG6324171201607                D89828070100PV4D20160701000030SPEAKER ASM                   M IMCTM S0FL05 FTTL  07070IMCT  S0 PTB  00004                    1100 SR        000000000000 FUJITSU TEN (THAILAN16060HU0003003                                                                                                                              *          20160627IMF1606275.TXT
MDEDG6324172201607                D89828070200PV1D20160630000060SPEAKER ASM                   M IMCTM S5MA13 FTTL  07070IMCT  S5 PTB  00005                    2230 SR        000000000000 FUJITSU TEN (THAILAN16038KL0007008                                                                                                                              *          20160627IMF1606275.TXT
MDEDG6324173201607                D89828070200PV1D20160701000030SPEAKER ASM                   M IMCTM S5MA13 FTTL  07070IMCT  S5 PTB  00005                    0310 SR        000000000000 FUJITSU TEN (THAILAN16038KL0009009                                                                                                                              *          20160627IMF1606275.TXT
MDEDG6324174201607                D89828070200PV1D20160701000060SPEAKER ASM                   M IMCTM S5MA13 FTTL  07070IMCT  S5 PTB  00005                    1510 SR        000000000000 FUJITSU TEN (THAILAN16028KL000300316042LL0003003                                                                                                                *          20160627IMF1606275.TXT
MDEDG6324175201607                D89828070200PV4D20160630000030SPEAKER ASM                   M IMCTM S0FR05 FTTL  07070IMCT  S0 PTB  00005                    2300 SR        000000000000 FUJITSU TEN (THAILAN16072HU0021021                                                                                                                              *          20160627IMF1606275.TXT
MDEDG6324176201607                D89828070300PT1D20160630000060SPEAKER ASM                   M IMCTM S5NB042FTTL  07070IMCT  S5 PTB  00015                    2230 SR        000000000000 FUJITSU TEN (THAILAN16038KL0007008                                                                                                                              *          20160627IMF1606275.TXT
MDEDG6324177201607                D89828070300PT1D20160701000090SPEAKER ASM                   M IMCTM S5NB042FTTL  07070IMCT  S5 PTB  00015                    0310 SR        000000000000 FUJITSU TEN (THAILAN16038KL000900916056HL0006007                                                                                                                *          20160627IMF1606275.TXT
MDEDG6324178201607                D89828070300PT1D20160701000090SPEAKER ASM                   M IMCTM S5NB042FTTL  07070IMCT  S5 PTB  00015                    1510 SR        000000000000 FUJITSU TEN (THAILAN16028KL000300316042LL000300316045HL0003003                                                                                                  *          20160627IMF1606275.TXT
MDEDG6324179201607                D89828070300PT4D20160630000030SPEAKER ASM                   M IMCTM S9TS02 FTTL  07070IMCT  S9 PTB  00015                    2300 SR        000000000000 FUJITSU TEN (THAILAN16072HU0021021                                                                                                                              *          20160627IMF1606275.TXT
MDEDG6324180201607                D89828070300PT4D20160701000030SPEAKER ASM                   M IMCTM S9TS02 FTTL  07070IMCT  S9 PTB  00015                    0800 SR        000000000000 FUJITSU TEN (THAILAN16058HU0009009                                                                                                                              *          20160627IMF1606275.TXT
MDEDG6324181201607                D89828070300PT4D20160701000030SPEAKER ASM                   M IMCTM S9TS02 FTTL  07070IMCT  S9 PTB  00015                    1100 SR        000000000000 FUJITSU TEN (THAILAN16060HU0003003                                                                                                                              *          20160627IMF1606275.TXT
MDEDG6324182201607                D89829645400PT1D20160630000030RADIO;ASM DVD                 M IMCTM S5NC06 FTTL  07070IMCT  S5 PTB  00003                    2230 SR        000000000000 FUJITSU TEN (THAILAN16038KL0007008                                                                                                                              *          20160627IMF1606275.TXT
MDEDG6324183201607                D89829645400PT1D20160701000015RADIO;ASM DVD                 M IMCTM S5NC06 FTTL  07070IMCT  S5 PTB  00003                    0310 SR        000000000000 FUJITSU TEN (THAILAN16038KL0009009                                                                                                                              *          20160627IMF1606275.TXT
MDEDG6324184201607                D89831228500PT4D20160701000015RADIO;AM/FM,CD                M IMCTM S9CO001FTTL  07070IMCT  S9 PTB  00003                    0800 SR        000000000000 FUJITSU TEN (THAILAN16058HU0009009                                                                                                                              *          20160627IMF1606275.TXT
MDEDG6324185201607                D89831228600PT1D20160701000030RADIO;AM/FM,CD                M IMCTM S5NC06 FTTL  07070IMCT  S5 PTB  00003                    0310 SR        000000000000 FUJITSU TEN (THAILAN16056HL0006007                                                                                                                              *          20160627IMF1606275.TXT
MDEDG6324186201607                D89831228600PT1D20160701000015RADIO;AM/FM,CD                M IMCTM S5NC06 FTTL  07070IMCT  S5 PTB  00003                    1510 SR        000000000000 FUJITSU TEN (THAILAN16045HL0003003                                                                                                                              *          20160627IMF1606275.TXT
MDEDG6324187201607                D89831229000PT1D20160701000015RADIO;AM/FM,CD                M IMCTM S5NC06 FTTL  07070IMCT  S5 PTB  00003                    1510 SR        000000000000 FUJITSU TEN (THAILAN16028KL0003003                                                                                                                              *          20160627IMF1606275.TXT
MDEDG6324188201607                D89831229200PT1D20160701000015RADIO;AM/FM,CD                M IMCTM S5NC06 FTTL  07070IMCT  S5 PTB  00003                    1510 SR        000000000000 FUJITSU TEN (THAILAN16042LL0003003                                                                                                                              *          20160627IMF1606275.TXT
MDEUG6279283201607                D89828070100PT4U20160630000060SPEAKER ASM                   M IMCTM S0FL05 FTTL  07070IMCT  S0 PTB  00004                    2030 SR        000000000000 FUJITSU TEN (THAILAN160B42U0052052160B48U0185185                                                                                                                *          20160627IMF1606275.TXT
MDEUG6279284201607                D89828070100PT4U20160630000060SPEAKER ASM                   M IMCTM S0FL05 FTTL  07070IMCT  S0 PTB  00004                    2300 SR        000000000000 FUJITSU TEN (THAILAN160B48U0186186160B95U0009009                                                                                                                *          20160627IMF1606275.TXT
MDEUG6279285201607                D89828070100PT4U20160701000030SPEAKER ASM                   M IMCTM S0FL05 FTTL  07070IMCT  S0 PTB  00004                    0800 SR        000000000000 FUJITSU TEN (THAILAN160B48U0187187                                                                                                                              *          20160627IMF1606275.TXT
MDEUG6279286201607                D89828070100PT4U20160701000060SPEAKER ASM                   M IMCTM S0FL05 FTTL  07070IMCT  S0 PTB  00004                    1100 SR        000000000000 FUJITSU TEN (THAILAN160B37U0022022160B40U0010010                                                                                                                *          20160627IMF1606275.TXT
MDEUG6279287201607                D89828070100PT4U20160701000030SPEAKER ASM                   M IMCTM S0FL05 FTTL  07070IMCT  S0 PTB  00004                    2030 SR        000000000000 FUJITSU TEN (THAILAN160B43U0002002                                                                                                                              *          20160627IMF1606275.TXT
MDEUG6279288201607                D89828070200PV4U20160630000060SPEAKER ASM                   M IMCTM S0FR05 FTTL  07070IMCT  S0 PTB  00005                    2030 SR        000000000000 FUJITSU TEN (THAILAN160B42U0052052160B48U0185185                                                                                                                *          20160627IMF1606275.TXT
MDEUG6279289201607                D89828070200PV4U20160630000060SPEAKER ASM                   M IMCTM S0FR05 FTTL  07070IMCT  S0 PTB  00005                    2300 SR        000000000000 FUJITSU TEN (THAILAN160B48U0186186160B95U0009009                                                                                                                *          20160627IMF1606275.TXT
MDEUG6279290201607                D89828070200PV4U20160701000030SPEAKER ASM                   M IMCTM S0FR05 FTTL  07070IMCT  S0 PTB  00005                    0800 SR        000000000000 FUJITSU TEN (THAILAN160B48U0187187                                                                                                                              *          20160627IMF1606275.TXT
MDEUG6279291201607                D89828070200PV4U20160701000060SPEAKER ASM                   M IMCTM S0FR05 FTTL  07070IMCT  S0 PTB  00005                    1100 SR        000000000000 FUJITSU TEN (THAILAN160B37U0022022160B40U0010010                                                                                                                *          20160627IMF1606275.TXT
MDEUG6279292201607                D89828070200PV4U20160701000030SPEAKER ASM                   M IMCTM S0FR05 FTTL  07070IMCT  S0 PTB  00005                    2030 SR        000000000000 FUJITSU TEN (THAILAN160B43U0002002                                                                                                                              *          20160627IMF1606275.TXT
MDEUG6279293201607                D89828070300PT4U20160630000060SPEAKER ASM                   M IMCTM S9TS02 FTTL  07070IMCT  S9 PTB  00015                    2030 SR        000000000000 FUJITSU TEN (THAILAN160B42U0052052160B48U0185185                                                                                                                *          20160627IMF1606275.TXT
MDEUG6279294201607                D89828070300PT4U20160630000060SPEAKER ASM                   M IMCTM S9TS02 FTTL  07070IMCT  S9 PTB  00015                    2300 SR        000000000000 FUJITSU TEN (THAILAN160B48U0186186160B95U0009009                                                                                                                *          20160627IMF1606275.TXT
MDEUG6279295201607                D89828070300PT4U20160701000030SPEAKER ASM                   M IMCTM S9TS02 FTTL  07070IMCT  S9 PTB  00015                    0800 SR        000000000000 FUJITSU TEN (THAILAN160B48U0187187                                                                                                                              *          20160627IMF1606275.TXT
MDEUG6279296201607                D89828070300PT4U20160701000060SPEAKER ASM                   M IMCTM S9TS02 FTTL  07070IMCT  S9 PTB  00015                    1100 SR        000000000000 FUJITSU TEN (THAILAN160B37U0022022160B40U0010010                                                                                                                *          20160627IMF1606275.TXT
MDEUG6279297201607                D89828070300PT4U20160701000030SPEAKER ASM                   M IMCTM S9TS02 FTTL  07070IMCT  S9 PTB  00015                    2030 SR        000000000000 FUJITSU TEN (THAILAN160B43U0002002                                                                                                                              *          20160627IMF1606275.TXT
MDEUG6279298201607                D89831228600PT4U20160701000015RADIO;AM/FM,CD                M IMCTM S9CO001FTTL  07070IMCT  S9 PTB  00003                    1100 SR        000000000000 FUJITSU TEN (THAILAN160B40U0010010                                                                                                                              *          20160627IMF1606275.TXT
