REC2016061020160610ISUZU                              26     
MDEFG6T08977201606                D89805293700PV4F20160615000016SPEAKER ASM                   M IMCTM S7FR05 FTTL  07070IMCT  S7 PTB  00003                    1510 SR        000000000000 FUJITSU TEN (THAILAN15030BR0082   15031BR0122   D160603904    D160603911    000000                                                                              *R         20160610RDF1606106.TXT
MDEFG6T08978201606                D89805294000PT4F20160615000010SPEAKER ASM                   M IMCTM S7TS02 FTTL  07070IMCT  S7 PTB  00015                    1510 SR        000000000000 FUJITSU TEN (THAILAN15030BR0085   15031BR0122   D160603907    D160603911    000000                                                                              *R         20160610RDF1606106.TXT
MDEFG6T08979201606                D89805294100PV4F20160615000018SPEAKER ASM                   M IMCTM S7FR05 FTTL  07070IMCT  S7 PTB  00005                    1510 SR        000000000000 FUJITSU TEN (THAILAN15030BR0081   15031BR0122   D160603903    D160603911    000000                                                                              *R         20160610RDF1606106.TXT
MDEFG6T08980201606                D89805294200PT4F20160614000002SPEAKER ASM                   M IMCTM S7S137 FTTL  07070IMCT  S7 PTB  00030                    1510 SR        000000000000 FUJITSU TEN (THAILAN15080DR0001   15080DR0001   D160603605    D160603605    000000                                                                              *R         20160610RDF1606106.TXT
MDEFG6T08981201606                D89806470400PT4F20160614000001SPEAKER ASM;RDO,              M IMCTM S7TL03 FTTL  07070IMCT  S7 PTB  00015                    1510 SR        000000000000 FUJITSU TEN (THAILAN15080DR0001   15080DR0001   D160603605    D160603605    000000                                                                              *R         20160610RDF1606106.TXT
MDEFG6T08982201606                D89824360220PT4F20160614000001RADIO;AM/FM,CD                M IMCTM S7TS03 FTTL  07070IMCT  S7 CPB  00003                    1510 SR        000000000000 FUJITSU TEN (THAILAN15080DR0001   15080DR0001   D160603605    D160603605    000000                                                                              *R         20160610RDF1606106.TXT
MDEFG6T08983201606                D89828070100PV4F20160615000008SPEAKER ASM                   M IMCTM S7FL05 FTTL  07070IMCT  S7 PTB  00004                    1510 SR        000000000000 FUJITSU TEN (THAILAN16035KR0009   16008KR0008   D160603912    D160603915    000000                                                                              *R         20160610RDF1606106.TXT
MDEFG6T08984201606                D89828070200PV4F20160615000006SPEAKER ASM                   M IMCTM S7TS02 FTTL  07070IMCT  S7 PTB  00005                    1510 SR        000000000000 FUJITSU TEN (THAILAN16035KR0010   16008KR0008   D160603913    D160603915    000000                                                                              *R         20160610RDF1606106.TXT
MDEFG6T08985201606                D89828070300PT4F20160615000001SPEAKER ASM                   M IMCTM S7TS02 FTTL  07070IMCT  S7 PTB  00015                    1510 SR        000000000000 FUJITSU TEN (THAILAN16008KR0008   16008KR0008   D160603915    D160603915    000000                                                                              *R         20160610RDF1606106.TXT
MDEFG6T08986201606                D89829645400PT4F20160614000002RADIO;ASM DVD                 M IMCTM S7TS03 FTTL  07070IMCT  S7 PTB  00003                    1510 SR        000000000000 FUJITSU TEN (THAILAN16039KR0027   16008KR0008   D160603606    D160603915    000000                                                                              *R         20160610RDF1606106.TXT
MDEFG6T08987201606                D89831229000PT4F20160615000001RADIO;AM/FM,CD                M IMCTM S7TS03 FTTL  07070IMCT  S7 PTB  00003                    1510 SR        000000000000 FUJITSU TEN (THAILAN16035KR0010   16035KR0010   D160603913    D160603913    000000                                                                              *R         20160610RDF1606106.TXT
MDEFG6226907201606                D89805293700PV4F20160614000009SPEAKER ASM                   M IMCTM S7FR05 FTTL  07070IMCT  S7 PTB  00003                    1510 SR        000000000000 FUJITSU TEN (THAILAN15031BR0119   15028BR0092   D160603601    D160603710    000000                                                                              *R         20160610RDF1606106.TXT
MDEFG6226908201606                D89805293700PV4F20160614000009SPEAKER ASM                   M IMCTM S7FR05 FTTL  07070IMCT  S7 PTB  00003                    2030 SR        000000000000 FUJITSU TEN (THAILAN15028BR0092   15028BR0096   D160603710    D160603714    000000                                                                              *R         20160610RDF1606106.TXT
MDEFG6226909201606                D89805293700PV4F20160615000006SPEAKER ASM                   M IMCTM S7FR05 FTTL  07070IMCT  S7 PTB  00003                    1100 SR        000000000000 FUJITSU TEN (THAILAN15030BR0079   15030BR0081   D160603901    D160603903    000000                                                                              *R         20160610RDF1606106.TXT
MDEFG6226910201606                D89805294000PT4F20160614000015SPEAKER ASM                   M IMCTM S7TS02 FTTL  07070IMCT  S7 PTB  00015                    1510 SR        000000000000 FUJITSU TEN (THAILAN15031BR0119   15028BR0095   D160603601    D160603713    000000                                                                              *R         20160610RDF1606106.TXT
MDEFG6226911201606                D89805294000PT4F20160614000015SPEAKER ASM                   M IMCTM S7TS02 FTTL  07070IMCT  S7 PTB  00015                    2030 SR        000000000000 FUJITSU TEN (THAILAN15028BR0095   15030BR0084   D160603713    D160603906    000000                                                                              *R         20160610RDF1606106.TXT
MDEFG6226912201606                D89805294100PV4F20160614000010SPEAKER ASM                   M IMCTM S7FR05 FTTL  07070IMCT  S7 PTB  00005                    1510 SR        000000000000 FUJITSU TEN (THAILAN15031BR0119   15028BR0093   D160603601    D160603711    000000                                                                              *R         20160610RDF1606106.TXT
MDEFG6226913201606                D89805294100PV4F20160614000010SPEAKER ASM                   M IMCTM S7FR05 FTTL  07070IMCT  S7 PTB  00005                    2030 SR        000000000000 FUJITSU TEN (THAILAN15028BR0094   15030BR0080   D160603712    D160603902    000000                                                                              *R         20160610RDF1606106.TXT
MDEFG6226914201606                D89828070100PV4F20160614000024SPEAKER ASM                   M IMCTM S7FL05 FTTL  07070IMCT  S7 PTB  00004                    1510 SR        000000000000 FUJITSU TEN (THAILAN16035KR0008   16068KR0013   D160603604    D160603701    000000                                                                              *R         20160610RDF1606106.TXT
MDEFG6226915201606                D89828070100PV4F20160614000020SPEAKER ASM                   M IMCTM S7FL05 FTTL  07070IMCT  S7 PTB  00004                    2030 SR        000000000000 FUJITSU TEN (THAILAN16068KR0014   16003JR0006   D160603702    R160603801    000000                                                                              *R         20160610RDF1606106.TXT
MDEFG6226916201606                D89828070100PV4F20160615000028SPEAKER ASM                   M IMCTM S7FL05 FTTL  07070IMCT  S7 PTB  00004                    0800 SR        000000000000 FUJITSU TEN (THAILAN16003JR0007   16083JR0020   R160603802    R160603815    000000                                                                              *R         20160610RDF1606106.TXT
MDEFG6226917201606                D89828070200PV4F20160614000020SPEAKER ASM                   M IMCTM S7TS02 FTTL  07070IMCT  S7 PTB  00005                    1510 SR        000000000000 FUJITSU TEN (THAILAN16035KR0008   16068KR0013   D160603604    D160603701    000000                                                                              *R         20160610RDF1606106.TXT
MDEFG6226918201606                D89828070200PV4F20160614000020SPEAKER ASM                   M IMCTM S7TS02 FTTL  07070IMCT  S7 PTB  00005                    2030 SR        000000000000 FUJITSU TEN (THAILAN16068KR0014   16035KR0009   D160603702    D160603912    000000                                                                              *R         20160610RDF1606106.TXT
MDEFG6226919201606                D89828070300PT4F20160614000030SPEAKER ASM                   M IMCTM S7TS02 FTTL  07070IMCT  S7 PTB  00015                    1510 SR        000000000000 FUJITSU TEN (THAILAN16035KR0008   16068KR0018   D160603604    D160603706    000000                                                                              *R         20160610RDF1606106.TXT
MDEFG6226920201606                D89828070300PT4F20160614000015SPEAKER ASM                   M IMCTM S7TS02 FTTL  07070IMCT  S7 PTB  00015                    2030 SR        000000000000 FUJITSU TEN (THAILAN16069KR0013   16008KR0008   D160603707    D160603915    000000                                                                              *R         20160610RDF1606106.TXT
MDEFG6226921201606                D89831229000PT4F20160614000003RADIO;AM/FM,CD                M IMCTM S7TS03 FTTL  07070IMCT  S7 PTB  00003                    1510 SR        000000000000 FUJITSU TEN (THAILAN16035KR0008   16035KR0009   D160603604    D160603912    000000                                                                              *R         20160610RDF1606106.TXT
