REC2016070720160707ISUZU                              30     
MAKK67060015201607D4               89805293700P3YK20160718000030SPEAKER ASM                   M IMCTM CM1    FTTL  07070IMKDC 01   PTB00003  K0                1621DES        000000000000 FUJITSU TEN (THAILAN                                                                                                                                            *G         20160707IMF1607071.TXT
MAKK67060016201607D4               89805293700P3YK20160719000030SPEAKER ASM                   M IMCTM CM1    FTTL  07070IMKDC 01   PTB00003  K0                1621DES        000000000000 FUJITSU TEN (THAILAN                                                                                                                                            *G         20160707IMF1607071.TXT
MAKK67060017201607D4               89805293700P3YK20160721000030SPEAKER ASM                   M IMCTM CM1    FTTL  07070IMKDC 01   PTB00003  K0                1621DES        000000000000 FUJITSU TEN (THAILAN                                                                                                                                            *G         20160707IMF1607071.TXT
MAKK67060018201607D4               89805293700P3YK20160722000030SPEAKER ASM                   M IMCTM CM1    FTTL  07070IMKDC 01   PTB00003  K0                1621DES        000000000000 FUJITSU TEN (THAILAN                                                                                                                                            *G         20160707IMF1607071.TXT
MAKK67060019201607D4               89805293700P3YK20160723000030SPEAKER ASM                   M IMCTM CM1    FTTL  07070IMKDC 01   PTB00003  K0                1621DES        000000000000 FUJITSU TEN (THAILAN                                                                                                                                            *G         20160707IMF1607071.TXT
MAKK67060020201607D4               89805294000P3YK20160718000030SPEAKER ASM                   M IMCTM CM1    FTTL  07070IMKDC 01   PTB00015  K0                1621DES        000000000000 FUJITSU TEN (THAILAN                                                                                                                                            *G         20160707IMF1607071.TXT
MAKK67060021201607D4               89805294000P3YK20160719000030SPEAKER ASM                   M IMCTM CM1    FTTL  07070IMKDC 01   PTB00015  K0                1621DES        000000000000 FUJITSU TEN (THAILAN                                                                                                                                            *G         20160707IMF1607071.TXT
MAKK67060022201607D4               89805294000P3YK20160721000030SPEAKER ASM                   M IMCTM CM1    FTTL  07070IMKDC 01   PTB00015  K0                1621DES        000000000000 FUJITSU TEN (THAILAN                                                                                                                                            *G         20160707IMF1607071.TXT
MAKK67060023201607D4               89805294000P3YK20160722000030SPEAKER ASM                   M IMCTM CM1    FTTL  07070IMKDC 01   PTB00015  K0                1621DES        000000000000 FUJITSU TEN (THAILAN                                                                                                                                            *G         20160707IMF1607071.TXT
MAKK67060024201607D4               89805294000P3YK20160723000030SPEAKER ASM                   M IMCTM CM1    FTTL  07070IMKDC 01   PTB00015  K0                1621DES        000000000000 FUJITSU TEN (THAILAN                                                                                                                                            *G         20160707IMF1607071.TXT
MAKK67060025201607D4               89805294100P3YK20160718000030SPEAKER ASM                   M IMCTM CM1    FTTL  07070IMKDC 01   PTB00005  K0                1621DES        000000000000 FUJITSU TEN (THAILAN                                                                                                                                            *G         20160707IMF1607071.TXT
MAKK67060026201607D4               89805294100P3YK20160719000030SPEAKER ASM                   M IMCTM CM1    FTTL  07070IMKDC 01   PTB00005  K0                1621DES        000000000000 FUJITSU TEN (THAILAN                                                                                                                                            *G         20160707IMF1607071.TXT
MAKK67060027201607D4               89805294100P3YK20160721000030SPEAKER ASM                   M IMCTM CM1    FTTL  07070IMKDC 01   PTB00005  K0                1621DES        000000000000 FUJITSU TEN (THAILAN                                                                                                                                            *G         20160707IMF1607071.TXT
MAKK67060028201607D4               89805294100P3YK20160722000030SPEAKER ASM                   M IMCTM CM1    FTTL  07070IMKDC 01   PTB00005  K0                1621DES        000000000000 FUJITSU TEN (THAILAN                                                                                                                                            *G         20160707IMF1607071.TXT
MAKK67060029201607D4               89825451200P3YK20160718000030SPEAKER ASM;ROOF              M IMCTM CM1    FTTL  07070IMKDC 01   PTB00015  K0                1621DES        000000000000 FUJITSU TEN (THAILAN                                                                                                                                            *G         20160707IMF1607071.TXT
MAKK67060030201607D4               89825451200P3YK20160723000090SPEAKER ASM;ROOF              M IMCTM CM1    FTTL  07070IMKDC 01   PTB00015  K0                1621DES        000000000000 FUJITSU TEN (THAILAN                                                                                                                                            *G         20160707IMF1607071.TXT
MAKK67060031201607D4               89828070100P3YK20160718000090SPEAKER ASM                   M IMCTM CM1    FTTL  07070IMKDC 01 PTB  00003  K0                1621DES        000000000000 FUJITSU TEN (THAILAN                                                                                                                                            *G         20160707IMF1607071.TXT
MAKK67060032201607D4               89828070100P3YK20160719000090SPEAKER ASM                   M IMCTM CM1    FTTL  07070IMKDC 01 PTB  00003  K0                1621DES        000000000000 FUJITSU TEN (THAILAN                                                                                                                                            *G         20160707IMF1607071.TXT
MAKK67060033201607D4               89828070100P3YK20160721000030SPEAKER ASM                   M IMCTM CM1    FTTL  07070IMKDC 01 PTB  00003  K0                1621DES        000000000000 FUJITSU TEN (THAILAN                                                                                                                                            *G         20160707IMF1607071.TXT
MAKK67060034201607D4               89828070100P3YK20160722000060SPEAKER ASM                   M IMCTM CM1    FTTL  07070IMKDC 01 PTB  00003  K0                1621DES        000000000000 FUJITSU TEN (THAILAN                                                                                                                                            *G         20160707IMF1607071.TXT
MAKK67060035201607D4               89828070100P3YK20160723000090SPEAKER ASM                   M IMCTM CM1    FTTL  07070IMKDC 01 PTB  00003  K0                1621DES        000000000000 FUJITSU TEN (THAILAN                                                                                                                                            *G         20160707IMF1607071.TXT
MAKK67060036201607D4               89828070200P3YK20160718000030SPEAKER ASM                   M IMCTM CM1    FTTL  07070IMKDC 01 PTB  00005  K0                1621DES        000000000000 FUJITSU TEN (THAILAN                                                                                                                                            *G         20160707IMF1607071.TXT
MAKK67060037201607D4               89828070200P3YK20160719000030SPEAKER ASM                   M IMCTM CM1    FTTL  07070IMKDC 01 PTB  00005  K0                1621DES        000000000000 FUJITSU TEN (THAILAN                                                                                                                                            *G         20160707IMF1607071.TXT
MAKK67060038201607D4               89828070200P3YK20160722000030SPEAKER ASM                   M IMCTM CM1    FTTL  07070IMKDC 01 PTB  00005  K0                1621DES        000000000000 FUJITSU TEN (THAILAN                                                                                                                                            *G         20160707IMF1607071.TXT
MAKK67060039201607D4               89828070200P3YK20160723000060SPEAKER ASM                   M IMCTM CM1    FTTL  07070IMKDC 01 PTB  00005  K0                1621DES        000000000000 FUJITSU TEN (THAILAN                                                                                                                                            *G         20160707IMF1607071.TXT
MAKK67060040201607D4               89828070300P3YK20160718000030SPEAKER ASM                   M IMCTM CM1    FTTL  07070IMKDC 01 PTB  00015  K0                1621DES        000000000000 FUJITSU TEN (THAILAN                                                                                                                                            *G         20160707IMF1607071.TXT
MAKK67060041201607D4               89828070300P3YK20160719000030SPEAKER ASM                   M IMCTM CM1    FTTL  07070IMKDC 01 PTB  00015  K0                1621DES        000000000000 FUJITSU TEN (THAILAN                                                                                                                                            *G         20160707IMF1607071.TXT
MAKK67060042201607D4               89828070300P3YK20160722000030SPEAKER ASM                   M IMCTM CM1    FTTL  07070IMKDC 01 PTB  00015  K0                1621DES        000000000000 FUJITSU TEN (THAILAN                                                                                                                                            *G         20160707IMF1607071.TXT
MAKK67060043201607D4               89828070300P3YK20160723000090SPEAKER ASM                   M IMCTM CM1    FTTL  07070IMKDC 01 PTB  00015  K0                1621DES        000000000000 FUJITSU TEN (THAILAN                                                                                                                                            *G         20160707IMF1607071.TXT
MAKK67060044201607D4               89831228700P3YK20160723000015RADIO;AM/FM,CD                M IMCTM CM1    FTTL  07070IMKDC 01 CPB  00005  K0                1621DES        000000000000 FUJITSU TEN (THAILAN                                                                                                                                            *G         20160707IMF1607071.TXT
