REC2016071420160714ISUZU                              53     
MDDDG7228088201607                D89821984430PT1D20160719000030RADIO;AM/FM,CD                M IMCTM S5NC06 FTTL  07070IMCT  S5 PTB  00005                    2230 SR        000000000000 FUJITSU TEN (THAILAN160JXAL0177177                                                                                                                              *          20160714IMF1607145.TXT
MDDDG7228089201607                D89821984430PT1D20160721000030RADIO;AM/FM,CD                M IMCTM S5NC06 FTTL  07070IMCT  S5 PTB  00005                    1000 SR        000000000000 FUJITSU TEN (THAILAN160JNGL0068068                                                                                                                              *          20160714IMF1607145.TXT
MDDDG7228090201607                D89821984430PT1D20160721000030RADIO;AM/FM,CD                M IMCTM S5NC06 FTTL  07070IMCT  S5 PTB  00005                    1510 SR        000000000000 FUJITSU TEN (THAILAN160JXAL0178178                                                                                                                              *          20160714IMF1607145.TXT
MDDDG7228091201607                D89828070100PV1D20160719000060SPEAKER ASM                   M IMCTM S5MA12 FTTL  07070IMCT  S5 PTB  00004                    2230 SR        000000000000 FUJITSU TEN (THAILAN160JXAL0177177                                                                                                                              *          20160714IMF1607145.TXT
MDDDG7228092201607                D89828070100PV1D20160720000060SPEAKER ASM                   M IMCTM S5MA12 FTTL  07070IMCT  S5 PTB  00004                    0310 SR        000000000000 FUJITSU TEN (THAILAN160JYSL0126126                                                                                                                              *          20160714IMF1607145.TXT
MDDDG7228093201607                D89828070100PV1D20160721000120SPEAKER ASM                   M IMCTM S5MA12 FTTL  07070IMCT  S5 PTB  00004                    1000 SR        000000000000 FUJITSU TEN (THAILAN160JNGL0068068160JZJL0024024                                                                                                                *          20160714IMF1607145.TXT
MDDDG7228094201607                D89828070100PV1D20160721000180SPEAKER ASM                   M IMCTM S5MA12 FTTL  07070IMCT  S5 PTB  00004                    1510 SR        000000000000 FUJITSU TEN (THAILAN160JXAL0178178160JXCL0063063160JZJL0025025                                                                                                  *          20160714IMF1607145.TXT
MDDDG7228095201607                D89828070200PV1D20160721000060SPEAKER ASM                   M IMCTM S5MA13 FTTL  07070IMCT  S5 PTB  00005                    1000 SR        000000000000 FUJITSU TEN (THAILAN160JZJL0024024                                                                                                                              *          20160714IMF1607145.TXT
MDDDG7228096201607                D89828070200PV1D20160721000060SPEAKER ASM                   M IMCTM S5MA13 FTTL  07070IMCT  S5 PTB  00005                    1510 SR        000000000000 FUJITSU TEN (THAILAN160JZJL0025025                                                                                                                              *          20160714IMF1607145.TXT
MDDDG7228097201607                D89828070300PT1D20160720000060SPEAKER ASM                   M IMCTM S5NB042FTTL  07070IMCT  S5 PTB  00015                    0310 SR        000000000000 FUJITSU TEN (THAILAN160JYSL0126126                                                                                                                              *          20160714IMF1607145.TXT
MDDDG7228098201607                D89828070300PT1D20160721000060SPEAKER ASM                   M IMCTM S5NB042FTTL  07070IMCT  S5 PTB  00015                    1000 SR        000000000000 FUJITSU TEN (THAILAN160JZJL0024024                                                                                                                              *          20160714IMF1607145.TXT
MDDDG7228099201607                D89828070300PT1D20160721000060SPEAKER ASM                   M IMCTM S5NB042FTTL  07070IMCT  S5 PTB  00015                    1510 SR        000000000000 FUJITSU TEN (THAILAN160JZJL0025025                                                                                                                              *          20160714IMF1607145.TXT
MDDDG7228100201607                D89831228300PT1D20160720000030RADIO;AM/FM,CD                M IMCTM S5NC06 FTTL  07070IMCT  S5 CPB  00003                    0310 SR        000000000000 FUJITSU TEN (THAILAN160JYSL0126126                                                                                                                              *          20160714IMF1607145.TXT
MDDUG7215628201607                D89828070100PT4U20160719000030SPEAKER ASM                   M IMCTM S0FL05 FTTL  07070IMCT  S0 PTB  00004                    2300 SR        000000000000 FUJITSU TEN (THAILAN160JURU0035035                                                                                                                              *          20160714IMF1607145.TXT
MDDUG7215629201607                D89828070200PV4U20160719000030SPEAKER ASM                   M IMCTM S0FR05 FTTL  07070IMCT  S0 PTB  00005                    2300 SR        000000000000 FUJITSU TEN (THAILAN160JURU0035035                                                                                                                              *          20160714IMF1607145.TXT
MDDUG7215630201607                D89828070300PT4U20160719000030SPEAKER ASM                   M IMCTM S9TS02 FTTL  07070IMCT  S9 PTB  00015                    2300 SR        000000000000 FUJITSU TEN (THAILAN160JURU0035035                                                                                                                              *          20160714IMF1607145.TXT
MDDUG7215631201607                D89829093500PT4U20160719000015RADIO;ASM DVD (T              M IMCTM S9CO001FTTL  07070IMCT  S9 PTB  00003                    2300 SR        000000000000 FUJITSU TEN (THAILAN160JURU0035035                                                                                                                              *          20160714IMF1607145.TXT
MDEDG7270956201607                D89828070100PV1D20160719000030SPEAKER ASM                   M IMCTM S5MA12 FTTL  07070IMCT  S5 PTB  00004                    1510 SR        000000000000 FUJITSU TEN (THAILAN16052HL0011011                                                                                                                              *          20160714IMF1607145.TXT
MDEDG7270957201607                D89828070100PV1D20160719000090SPEAKER ASM                   M IMCTM S5MA12 FTTL  07070IMCT  S5 PTB  00004                    2230 SR        000000000000 FUJITSU TEN (THAILAN16046KL000900916052HL001201216075HL0026026                                                                                                  *          20160714IMF1607145.TXT
MDEDG7270958201607                D89828070100PV1D20160720000120SPEAKER ASM                   M IMCTM S5MA12 FTTL  07070IMCT  S5 PTB  00004                    0310 SR        000000000000 FUJITSU TEN (THAILAN16046KL001001016047HL001201316081HL0102102                                                                                                  *          20160714IMF1607145.TXT
MDEDG7270959201607                D89828070100PV1D20160721000090SPEAKER ASM                   M IMCTM S5MA12 FTTL  07070IMCT  S5 PTB  00004                    1000 SR        000000000000 FUJITSU TEN (THAILAN16044JL000500516063HL0004005                                                                                                                *          20160714IMF1607145.TXT
MDEDG7270960201607                D89828070100PV1D20160721000060SPEAKER ASM                   M IMCTM S5MA12 FTTL  07070IMCT  S5 PTB  00004                    1510 SR        000000000000 FUJITSU TEN (THAILAN16075HL002702716081HL0103103                                                                                                                *          20160714IMF1607145.TXT
MDEDG7270961201607                D89828070100PV4D20160720000030SPEAKER ASM                   M IMCTM S0FL05 FTTL  07070IMCT  S0 PTB  00004                    0310 SR        000000000000 FUJITSU TEN (THAILAN16060HU0005005                                                                                                                              *          20160714IMF1607145.TXT
MDEDG7270962201607                D89828070100PV4D20160721000030SPEAKER ASM                   M IMCTM S0FL05 FTTL  07070IMCT  S0 PTB  00004                    1510 SR        000000000000 FUJITSU TEN (THAILAN16072HU0030030                                                                                                                              *          20160714IMF1607145.TXT
MDEDG7270963201607                D89828070200PV1D20160719000030SPEAKER ASM                   M IMCTM S5MA13 FTTL  07070IMCT  S5 PTB  00005                    1510 SR        000000000000 FUJITSU TEN (THAILAN16052HL0011011                                                                                                                              *          20160714IMF1607145.TXT
MDEDG7270964201607                D89828070200PV1D20160719000060SPEAKER ASM                   M IMCTM S5MA13 FTTL  07070IMCT  S5 PTB  00005                    2230 SR        000000000000 FUJITSU TEN (THAILAN16046KL000900916052HL0012012                                                                                                                *          20160714IMF1607145.TXT
MDEDG7270965201607                D89828070200PV1D20160720000030SPEAKER ASM                   M IMCTM S5MA13 FTTL  07070IMCT  S5 PTB  00005                    0310 SR        000000000000 FUJITSU TEN (THAILAN16046KL0010010                                                                                                                              *          20160714IMF1607145.TXT
MDEDG7270966201607                D89828070200PV1D20160721000090SPEAKER ASM                   M IMCTM S5MA13 FTTL  07070IMCT  S5 PTB  00005                    1000 SR        000000000000 FUJITSU TEN (THAILAN16044JL000500516063HL0004005                                                                                                                *          20160714IMF1607145.TXT
MDEDG7270967201607                D89828070200PV4D20160721000030SPEAKER ASM                   M IMCTM S0FR05 FTTL  07070IMCT  S0 PTB  00005                    1510 SR        000000000000 FUJITSU TEN (THAILAN16072HU0030030                                                                                                                              *          20160714IMF1607145.TXT
MDEDG7270968201607                D89828070300PT1D20160719000030SPEAKER ASM                   M IMCTM S5NB042FTTL  07070IMCT  S5 PTB  00015                    1510 SR        000000000000 FUJITSU TEN (THAILAN16052HL0011011                                                                                                                              *          20160714IMF1607145.TXT
MDEDG7270969201607                D89828070300PT1D20160719000060SPEAKER ASM                   M IMCTM S5NB042FTTL  07070IMCT  S5 PTB  00015                    2230 SR        000000000000 FUJITSU TEN (THAILAN16046KL000900916052HL0012012                                                                                                                *          20160714IMF1607145.TXT
MDEDG7270970201607                D89828070300PT1D20160720000090SPEAKER ASM                   M IMCTM S5NB042FTTL  07070IMCT  S5 PTB  00015                    0310 SR        000000000000 FUJITSU TEN (THAILAN16046KL001001016047HL0012013                                                                                                                *          20160714IMF1607145.TXT
MDEDG7270971201607                D89828070300PT1D20160721000090SPEAKER ASM                   M IMCTM S5NB042FTTL  07070IMCT  S5 PTB  00015                    1000 SR        000000000000 FUJITSU TEN (THAILAN16044JL000500516063HL0004005                                                                                                                *          20160714IMF1607145.TXT
MDEDG7270972201607                D89828070300PT4D20160720000030SPEAKER ASM                   M IMCTM S9TS02 FTTL  07070IMCT  S9 PTB  00015                    0310 SR        000000000000 FUJITSU TEN (THAILAN16060HU0005005                                                                                                                              *          20160714IMF1607145.TXT
MDEDG7270973201607                D89828070300PT4D20160721000030SPEAKER ASM                   M IMCTM S9TS02 FTTL  07070IMCT  S9 PTB  00015                    1510 SR        000000000000 FUJITSU TEN (THAILAN16072HU0030030                                                                                                                              *          20160714IMF1607145.TXT
MDEDG7270974201607                D89831228600PT1D20160720000030RADIO;AM/FM,CD                M IMCTM S5NC06 FTTL  07070IMCT  S5 PTB  00003                    0310 SR        000000000000 FUJITSU TEN (THAILAN16047HL0012013                                                                                                                              *          20160714IMF1607145.TXT
MDEDG7270975201607                D89831228600PT1D20160721000030RADIO;AM/FM,CD                M IMCTM S5NC06 FTTL  07070IMCT  S5 PTB  00003                    1000 SR        000000000000 FUJITSU TEN (THAILAN16063HL0004005                                                                                                                              *          20160714IMF1607145.TXT
MDEDG7270976201607                D89831229200PT1D20160721000015RADIO;AM/FM,CD                M IMCTM S5NC06 FTTL  07070IMCT  S5 PTB  00003                    1000 SR        000000000000 FUJITSU TEN (THAILAN16044JL0005005                                                                                                                              *          20160714IMF1607145.TXT
MDEUG7241425201607                D89828070100PT4U20160719000030SPEAKER ASM                   M IMCTM S0FL05 FTTL  07070IMCT  S0 PTB  00004                    2300 SR        000000000000 FUJITSU TEN (THAILAN160B53U0001001                                                                                                                              *          20160714IMF1607145.TXT
MDEUG7241426201607                D89828070100PT4U20160721000030SPEAKER ASM                   M IMCTM S0FL05 FTTL  07070IMCT  S0 PTB  00004                    0800 SR        000000000000 FUJITSU TEN (THAILAN160B37U0030030                                                                                                                              *          20160714IMF1607145.TXT
MDEUG7241427201607                D89828070100PT4U20160721000060SPEAKER ASM                   M IMCTM S0FL05 FTTL  07070IMCT  S0 PTB  00004                    1100 SR        000000000000 FUJITSU TEN (THAILAN160B48U0222222160B53U0002002                                                                                                                *          20160714IMF1607145.TXT
MDEUG7241428201607                D89828070100PT4U20160721000090SPEAKER ASM                   M IMCTM S0FL05 FTTL  07070IMCT  S0 PTB  00004                    1510 SR        000000000000 FUJITSU TEN (THAILAN160B48U0223225                                                                                                                              *          20160714IMF1607145.TXT
MDEUG7241429201607                D89828070100PT4U20160721000030SPEAKER ASM                   M IMCTM S0FL05 FTTL  07070IMCT  S0 PTB  00004                    2030 SR        000000000000 FUJITSU TEN (THAILAN160B48U0226226                                                                                                                              *          20160714IMF1607145.TXT
MDEUG7241430201607                D89828070200PV4U20160719000030SPEAKER ASM                   M IMCTM S0FR05 FTTL  07070IMCT  S0 PTB  00005                    2300 SR        000000000000 FUJITSU TEN (THAILAN160B53U0001001                                                                                                                              *          20160714IMF1607145.TXT
MDEUG7241431201607                D89828070200PV4U20160721000030SPEAKER ASM                   M IMCTM S0FR05 FTTL  07070IMCT  S0 PTB  00005                    0800 SR        000000000000 FUJITSU TEN (THAILAN160B37U0030030                                                                                                                              *          20160714IMF1607145.TXT
MDEUG7241432201607                D89828070200PV4U20160721000060SPEAKER ASM                   M IMCTM S0FR05 FTTL  07070IMCT  S0 PTB  00005                    1100 SR        000000000000 FUJITSU TEN (THAILAN160B48U0222222160B53U0002002                                                                                                                *          20160714IMF1607145.TXT
MDEUG7241433201607                D89828070200PV4U20160721000090SPEAKER ASM                   M IMCTM S0FR05 FTTL  07070IMCT  S0 PTB  00005                    1510 SR        000000000000 FUJITSU TEN (THAILAN160B48U0223225                                                                                                                              *          20160714IMF1607145.TXT
MDEUG7241434201607                D89828070200PV4U20160721000030SPEAKER ASM                   M IMCTM S0FR05 FTTL  07070IMCT  S0 PTB  00005                    2030 SR        000000000000 FUJITSU TEN (THAILAN160B48U0226226                                                                                                                              *          20160714IMF1607145.TXT
MDEUG7241435201607                D89828070300PT4U20160719000030SPEAKER ASM                   M IMCTM S9TS02 FTTL  07070IMCT  S9 PTB  00015                    2300 SR        000000000000 FUJITSU TEN (THAILAN160B53U0001001                                                                                                                              *          20160714IMF1607145.TXT
MDEUG7241436201607                D89828070300PT4U20160721000030SPEAKER ASM                   M IMCTM S9TS02 FTTL  07070IMCT  S9 PTB  00015                    0800 SR        000000000000 FUJITSU TEN (THAILAN160B37U0030030                                                                                                                              *          20160714IMF1607145.TXT
MDEUG7241437201607                D89828070300PT4U20160721000060SPEAKER ASM                   M IMCTM S9TS02 FTTL  07070IMCT  S9 PTB  00015                    1100 SR        000000000000 FUJITSU TEN (THAILAN160B48U0222222160B53U0002002                                                                                                                *          20160714IMF1607145.TXT
MDEUG7241438201607                D89828070300PT4U20160721000090SPEAKER ASM                   M IMCTM S9TS02 FTTL  07070IMCT  S9 PTB  00015                    1510 SR        000000000000 FUJITSU TEN (THAILAN160B48U0223225                                                                                                                              *          20160714IMF1607145.TXT
MDEUG7241439201607                D89828070300PT4U20160721000030SPEAKER ASM                   M IMCTM S9TS02 FTTL  07070IMCT  S9 PTB  00015                    2030 SR        000000000000 FUJITSU TEN (THAILAN160B48U0226226                                                                                                                              *          20160714IMF1607145.TXT
