REC2016070820160709ISUZU                              57     
MDDDG7217109201607                D89821984430PT1D20160713000030RADIO;AM/FM,CD                M IMCTM S5NC06 FTTL  07070IMCT  S5 PTB  00005                    2230 SR        000000000000 FUJITSU TEN (THAILAN160JXAL0173173                                                                                                                              *          20160708IMF1607087.TXT
MDDDG7217110201607                D89821984430PT1D20160714000030RADIO;AM/FM,CD                M IMCTM S5NC06 FTTL  07070IMCT  S5 PTB  00005                    0310 SR        000000000000 FUJITSU TEN (THAILAN160JXAL0174174                                                                                                                              *          20160708IMF1607087.TXT
MDDDG7217111201607                D89828070100PV1D20160713000060SPEAKER ASM                   M IMCTM S5MA12 FTTL  07070IMCT  S5 PTB  00004                    2230 SR        000000000000 FUJITSU TEN (THAILAN160JXAL0173173                                                                                                                              *          20160708IMF1607087.TXT
MDDDG7217112201607                D89828070100PV1D20160714000060SPEAKER ASM                   M IMCTM S5MA12 FTTL  07070IMCT  S5 PTB  00004                    0310 SR        000000000000 FUJITSU TEN (THAILAN160JXAL0174174                                                                                                                              *          20160708IMF1607087.TXT
MDDDG7217113201607                D89828070100PV1D20160714000060SPEAKER ASM                   M IMCTM S5MA12 FTTL  07070IMCT  S5 PTB  00004                    1000 SR        000000000000 FUJITSU TEN (THAILAN160JYCL0034034                                                                                                                              *          20160708IMF1607087.TXT
MDDDG7217114201607                D89828070100PV4D20160714000060SPEAKER ASM                   M IMCTM S0FL05 FTTL  07070IMCT  S0 PTB  00004                    0310 SR        000000000000 FUJITSU TEN (THAILAN160JRVU0002002                                                                                                                              *          20160708IMF1607087.TXT
MDDDG7217115201607                D89828070200PV4D20160714000060SPEAKER ASM                   M IMCTM S0FR05 FTTL  07070IMCT  S0 PTB  00005                    0310 SR        000000000000 FUJITSU TEN (THAILAN160JRVU0002002                                                                                                                              *          20160708IMF1607087.TXT
MDDDG7217116201607                D89828070300PT1D20160714000060SPEAKER ASM                   M IMCTM S5NB042FTTL  07070IMCT  S5 PTB  00015                    1000 SR        000000000000 FUJITSU TEN (THAILAN160JYCL0034034                                                                                                                              *          20160708IMF1607087.TXT
MDDDG7217117201607                D89828070300PT4D20160714000060SPEAKER ASM                   M IMCTM S9TS02 FTTL  07070IMCT  S9 PTB  00015                    0310 SR        000000000000 FUJITSU TEN (THAILAN160JRVU0002002                                                                                                                              *          20160708IMF1607087.TXT
MDDDG7217118201607                D89831228300PT1D20160714000030RADIO;AM/FM,CD                M IMCTM S5NC06 FTTL  07070IMCT  S5 CPB  00003                    1000 SR        000000000000 FUJITSU TEN (THAILAN160JYCL0034034                                                                                                                              *          20160708IMF1607087.TXT
MDDUG7209062201607                D89828070100PT4U20160714000030SPEAKER ASM                   M IMCTM S0FL05 FTTL  07070IMCT  S0 PTB  00004                    0800 SR        000000000000 FUJITSU TEN (THAILAN160JURU0034034                                                                                                                              *          20160708IMF1607087.TXT
MDDUG7209063201607                D89828070200PV4U20160714000030SPEAKER ASM                   M IMCTM S0FR05 FTTL  07070IMCT  S0 PTB  00005                    0800 SR        000000000000 FUJITSU TEN (THAILAN160JURU0034034                                                                                                                              *          20160708IMF1607087.TXT
MDDUG7209064201607                D89828070300PT4U20160714000030SPEAKER ASM                   M IMCTM S9TS02 FTTL  07070IMCT  S9 PTB  00015                    0800 SR        000000000000 FUJITSU TEN (THAILAN160JURU0034034                                                                                                                              *          20160708IMF1607087.TXT
MDDUG7209065201607                D89829093500PT4U20160714000015RADIO;ASM DVD (T              M IMCTM S9CO001FTTL  07070IMCT  S9 PTB  00003                    0800 SR        000000000000 FUJITSU TEN (THAILAN160JURU0034034                                                                                                                              *          20160708IMF1607087.TXT
MDEDG7238542201607                D89805293700PV1D20160714000030SPEAKER ASM                   M IMCTM S5MA12 FTTL  07070IMCT  S5 PTB  00003                    1510 SR        000000000000 FUJITSU TEN (THAILAN15019FL0093093                                                                                                                              *          20160708IMF1607087.TXT
MDEDG7238543201607                D89828070100PV1D20160713000030SPEAKER ASM                   M IMCTM S5MA12 FTTL  07070IMCT  S5 PTB  00004                    1510 SR        000000000000 FUJITSU TEN (THAILAN16050HL0005005                                                                                                                              *          20160708IMF1607087.TXT
MDEDG7238544201607                D89828070100PV1D20160713000090SPEAKER ASM                   M IMCTM S5MA12 FTTL  07070IMCT  S5 PTB  00004                    2230 SR        000000000000 FUJITSU TEN (THAILAN16064HL000901016085HL0015015                                                                                                                *          20160708IMF1607087.TXT
MDEDG7238545201607                D89828070100PV1D20160714000150SPEAKER ASM                   M IMCTM S5MA12 FTTL  07070IMCT  S5 PTB  00004                    0310 SR        000000000000 FUJITSU TEN (THAILAN16038LL001001016048HL000300316071HL000600616081HL009709716085HL0016016                                                                      *          20160708IMF1607087.TXT
MDEDG7238546201607                D89828070100PV1D20160714000090SPEAKER ASM                   M IMCTM S5MA12 FTTL  07070IMCT  S5 PTB  00004                    1000 SR        000000000000 FUJITSU TEN (THAILAN16038LL001101116073HL000600616081HL0098098                                                                                                  *          20160708IMF1607087.TXT
MDEDG7238547201607                D89828070100PV1D20160714000120SPEAKER ASM                   M IMCTM S5MA12 FTTL  07070IMCT  S5 PTB  00004                    1510 SR        000000000000 FUJITSU TEN (THAILAN16051HL000300316060HL000600616066HL000700716081HL0099099                                                                                    *          20160708IMF1607087.TXT
MDEDG7238548201607                D89828070100PV4D20160714000030SPEAKER ASM                   M IMCTM S0FL05 FTTL  07070IMCT  S0 PTB  00004                    1100 SR        000000000000 FUJITSU TEN (THAILAN16072HU0025025                                                                                                                              *          20160708IMF1607087.TXT
MDEDG7238549201607                D89828070200PV1D20160713000030SPEAKER ASM                   M IMCTM S5MA13 FTTL  07070IMCT  S5 PTB  00005                    1510 SR        000000000000 FUJITSU TEN (THAILAN16050HL0005005                                                                                                                              *          20160708IMF1607087.TXT
MDEDG7238550201607                D89828070200PV1D20160713000060SPEAKER ASM                   M IMCTM S5MA13 FTTL  07070IMCT  S5 PTB  00005                    2230 SR        000000000000 FUJITSU TEN (THAILAN16064HL0009010                                                                                                                              *          20160708IMF1607087.TXT
MDEDG7238551201607                D89828070200PV1D20160714000060SPEAKER ASM                   M IMCTM S5MA13 FTTL  07070IMCT  S5 PTB  00005                    0310 SR        000000000000 FUJITSU TEN (THAILAN16038LL001001016071HL0006006                                                                                                                *          20160708IMF1607087.TXT
MDEDG7238552201607                D89828070200PV1D20160714000060SPEAKER ASM                   M IMCTM S5MA13 FTTL  07070IMCT  S5 PTB  00005                    1000 SR        000000000000 FUJITSU TEN (THAILAN16038LL001101116073HL0006006                                                                                                                *          20160708IMF1607087.TXT
MDEDG7238553201607                D89828070200PV1D20160714000060SPEAKER ASM                   M IMCTM S5MA13 FTTL  07070IMCT  S5 PTB  00005                    1510 SR        000000000000 FUJITSU TEN (THAILAN16051HL000300316066HL0007007                                                                                                                *          20160708IMF1607087.TXT
MDEDG7238554201607                D89828070200PV4D20160714000030SPEAKER ASM                   M IMCTM S0FR05 FTTL  07070IMCT  S0 PTB  00005                    1100 SR        000000000000 FUJITSU TEN (THAILAN16072HU0025025                                                                                                                              *          20160708IMF1607087.TXT
MDEDG7238555201607                D89828070300PT1D20160713000030SPEAKER ASM                   M IMCTM S5NB042FTTL  07070IMCT  S5 PTB  00015                    1510 SR        000000000000 FUJITSU TEN (THAILAN16050HL0005005                                                                                                                              *          20160708IMF1607087.TXT
MDEDG7238556201607                D89828070300PT1D20160713000060SPEAKER ASM                   M IMCTM S5NB042FTTL  07070IMCT  S5 PTB  00015                    2230 SR        000000000000 FUJITSU TEN (THAILAN16064HL0009010                                                                                                                              *          20160708IMF1607087.TXT
MDEDG7238557201607                D89828070300PT1D20160714000090SPEAKER ASM                   M IMCTM S5NB042FTTL  07070IMCT  S5 PTB  00015                    0310 SR        000000000000 FUJITSU TEN (THAILAN16038LL001001016048HL000300316071HL0006006                                                                                                  *          20160708IMF1607087.TXT
MDEDG7238558201607                D89828070300PT1D20160714000060SPEAKER ASM                   M IMCTM S5NB042FTTL  07070IMCT  S5 PTB  00015                    1000 SR        000000000000 FUJITSU TEN (THAILAN16038LL001101116073HL0006006                                                                                                                *          20160708IMF1607087.TXT
MDEDG7238559201607                D89828070300PT1D20160714000090SPEAKER ASM                   M IMCTM S5NB042FTTL  07070IMCT  S5 PTB  00015                    1510 SR        000000000000 FUJITSU TEN (THAILAN16051HL000300316060HL000600616066HL0007007                                                                                                  *          20160708IMF1607087.TXT
MDEDG7238560201607                D89828070300PT4D20160714000030SPEAKER ASM                   M IMCTM S9TS02 FTTL  07070IMCT  S9 PTB  00015                    1100 SR        000000000000 FUJITSU TEN (THAILAN16072HU0025025                                                                                                                              *          20160708IMF1607087.TXT
MDEDG7238561201607                D89831228500PT1D20160714000015RADIO;AM/FM,CD                M IMCTM S5NC06 FTTL  07070IMCT  S5 PTB  00003                    0310 SR        000000000000 FUJITSU TEN (THAILAN16048HL0003003                                                                                                                              *          20160708IMF1607087.TXT
MDEDG7238562201607                D89831228600PT1D20160713000045RADIO;AM/FM,CD                M IMCTM S5NC06 FTTL  07070IMCT  S5 PTB  00003                    2230 SR        000000000000 FUJITSU TEN (THAILAN16050HL000500516064HL0009010                                                                                                                *          20160708IMF1607087.TXT
MDEDG7238563201607                D89831228600PT1D20160714000015RADIO;AM/FM,CD                M IMCTM S5NC06 FTTL  07070IMCT  S5 PTB  00003                    0310 SR        000000000000 FUJITSU TEN (THAILAN16071HL0006006                                                                                                                              *          20160708IMF1607087.TXT
MDEDG7238564201607                D89831228600PT1D20160714000015RADIO;AM/FM,CD                M IMCTM S5NC06 FTTL  07070IMCT  S5 PTB  00003                    1510 SR        000000000000 FUJITSU TEN (THAILAN16066HL0007007                                                                                                                              *          20160708IMF1607087.TXT
MDEDG7238565201607                D89831229200PT1D20160714000015RADIO;AM/FM,CD                M IMCTM S5NC06 FTTL  07070IMCT  S5 PTB  00003                    0310 SR        000000000000 FUJITSU TEN (THAILAN16038LL0010010                                                                                                                              *          20160708IMF1607087.TXT
MDEDG7238566201607                D89831229200PT1D20160714000015RADIO;AM/FM,CD                M IMCTM S5NC06 FTTL  07070IMCT  S5 PTB  00003                    1000 SR        000000000000 FUJITSU TEN (THAILAN16038LL0011011                                                                                                                              *          20160708IMF1607087.TXT
MDEUG7223331201607                D89828070100PT4U20160713000030SPEAKER ASM                   M IMCTM S0FL05 FTTL  07070IMCT  S0 PTB  00004                    2030 SR        000000000000 FUJITSU TEN (THAILAN160B48U0206206                                                                                                                              *          20160708IMF1607087.TXT
MDEUG7223332201607                D89828070100PT4U20160713000030SPEAKER ASM                   M IMCTM S0FL05 FTTL  07070IMCT  S0 PTB  00004                    2300 SR        000000000000 FUJITSU TEN (THAILAN160B48U0207207                                                                                                                              *          20160708IMF1607087.TXT
MDEUG7223333201607                D89828070100PT4U20160714000030SPEAKER ASM                   M IMCTM S0FL05 FTTL  07070IMCT  S0 PTB  00004                    0800 SR        000000000000 FUJITSU TEN (THAILAN160B48U0208208                                                                                                                              *          20160708IMF1607087.TXT
MDEUG7223334201607                D89828070100PT4U20160714000060SPEAKER ASM                   M IMCTM S0FL05 FTTL  07070IMCT  S0 PTB  00004                    1100 SR        000000000000 FUJITSU TEN (THAILAN160B45U0033033160B48U0209209                                                                                                                *          20160708IMF1607087.TXT
MDEUG7223335201607                D89828070100PT4U20160714000030SPEAKER ASM                   M IMCTM S0FL05 FTTL  07070IMCT  S0 PTB  00004                    1510 SR        000000000000 FUJITSU TEN (THAILAN160B46U0072072                                                                                                                              *          20160708IMF1607087.TXT
MDEUG7223336201607                D89828070100PT4U20160714000060SPEAKER ASM                   M IMCTM S0FL05 FTTL  07070IMCT  S0 PTB  00004                    2030 SR        000000000000 FUJITSU TEN (THAILAN160B45U0034034160B46U0073073                                                                                                                *          20160708IMF1607087.TXT
MDEUG7223337201607                D89828070200PV4U20160713000030SPEAKER ASM                   M IMCTM S0FR05 FTTL  07070IMCT  S0 PTB  00005                    2030 SR        000000000000 FUJITSU TEN (THAILAN160B48U0206206                                                                                                                              *          20160708IMF1607087.TXT
MDEUG7223338201607                D89828070200PV4U20160713000030SPEAKER ASM                   M IMCTM S0FR05 FTTL  07070IMCT  S0 PTB  00005                    2300 SR        000000000000 FUJITSU TEN (THAILAN160B48U0207207                                                                                                                              *          20160708IMF1607087.TXT
MDEUG7223339201607                D89828070200PV4U20160714000030SPEAKER ASM                   M IMCTM S0FR05 FTTL  07070IMCT  S0 PTB  00005                    0800 SR        000000000000 FUJITSU TEN (THAILAN160B48U0208208                                                                                                                              *          20160708IMF1607087.TXT
MDEUG7223340201607                D89828070200PV4U20160714000060SPEAKER ASM                   M IMCTM S0FR05 FTTL  07070IMCT  S0 PTB  00005                    1100 SR        000000000000 FUJITSU TEN (THAILAN160B45U0033033160B48U0209209                                                                                                                *          20160708IMF1607087.TXT
MDEUG7223341201607                D89828070200PV4U20160714000030SPEAKER ASM                   M IMCTM S0FR05 FTTL  07070IMCT  S0 PTB  00005                    1510 SR        000000000000 FUJITSU TEN (THAILAN160B46U0072072                                                                                                                              *          20160708IMF1607087.TXT
MDEUG7223342201607                D89828070200PV4U20160714000060SPEAKER ASM                   M IMCTM S0FR05 FTTL  07070IMCT  S0 PTB  00005                    2030 SR        000000000000 FUJITSU TEN (THAILAN160B45U0034034160B46U0073073                                                                                                                *          20160708IMF1607087.TXT
MDEUG7223343201607                D89828070300PT4U20160713000030SPEAKER ASM                   M IMCTM S9TS02 FTTL  07070IMCT  S9 PTB  00015                    2030 SR        000000000000 FUJITSU TEN (THAILAN160B48U0206206                                                                                                                              *          20160708IMF1607087.TXT
MDEUG7223344201607                D89828070300PT4U20160713000030SPEAKER ASM                   M IMCTM S9TS02 FTTL  07070IMCT  S9 PTB  00015                    2300 SR        000000000000 FUJITSU TEN (THAILAN160B48U0207207                                                                                                                              *          20160708IMF1607087.TXT
MDEUG7223345201607                D89828070300PT4U20160714000030SPEAKER ASM                   M IMCTM S9TS02 FTTL  07070IMCT  S9 PTB  00015                    0800 SR        000000000000 FUJITSU TEN (THAILAN160B48U0208208                                                                                                                              *          20160708IMF1607087.TXT
MDEUG7223346201607                D89828070300PT4U20160714000060SPEAKER ASM                   M IMCTM S9TS02 FTTL  07070IMCT  S9 PTB  00015                    1100 SR        000000000000 FUJITSU TEN (THAILAN160B45U0033033160B48U0209209                                                                                                                *          20160708IMF1607087.TXT
MDEUG7223347201607                D89828070300PT4U20160714000030SPEAKER ASM                   M IMCTM S9TS02 FTTL  07070IMCT  S9 PTB  00015                    1510 SR        000000000000 FUJITSU TEN (THAILAN160B46U0072072                                                                                                                              *          20160708IMF1607087.TXT
MDEUG7223348201607                D89828070300PT4U20160714000060SPEAKER ASM                   M IMCTM S9TS02 FTTL  07070IMCT  S9 PTB  00015                    2030 SR        000000000000 FUJITSU TEN (THAILAN160B45U0034034160B46U0073073                                                                                                                *          20160708IMF1607087.TXT
