REC2016070420160704ISUZU                              42     
MDDDG7203274201607                D89821984430PT1D20160708000030RADIO;AM/FM,CD                M IMCTM S5NC06 FTTL  07070IMCT  S5 PTB  00005                    0310 SR        000000000000 FUJITSU TEN (THAILAN160JXAL0168168                                                                                                                              *          20160704IMF1607044.TXT
MDDDG7203275201607                D89828070100PV1D20160708000120SPEAKER ASM                   M IMCTM S5MA12 FTTL  07070IMCT  S5 PTB  00004                    0310 SR        000000000000 FUJITSU TEN (THAILAN160JXAL0168168160JYCL0033033                                                                                                                *          20160704IMF1607044.TXT
MDDDG7203276201607                D89828070100PV1D20160708000060SPEAKER ASM                   M IMCTM S5MA12 FTTL  07070IMCT  S5 PTB  00004                    1000 SR        000000000000 FUJITSU TEN (THAILAN160JYJL0020020                                                                                                                              *          20160704IMF1607044.TXT
MDDDG7203277201607                D89828070300PT1D20160708000060SPEAKER ASM                   M IMCTM S5NB042FTTL  07070IMCT  S5 PTB  00015                    0310 SR        000000000000 FUJITSU TEN (THAILAN160JYCL0033033                                                                                                                              *          20160704IMF1607044.TXT
MDDDG7203278201607                D89828070300PT1D20160708000060SPEAKER ASM                   M IMCTM S5NB042FTTL  07070IMCT  S5 PTB  00015                    1000 SR        000000000000 FUJITSU TEN (THAILAN160JYJL0020020                                                                                                                              *          20160704IMF1607044.TXT
MDDDG7203279201607                D89831228300PT1D20160708000030RADIO;AM/FM,CD                M IMCTM S5NC06 FTTL  07070IMCT  S5 CPB  00003                    0310 SR        000000000000 FUJITSU TEN (THAILAN160JYCL0033033                                                                                                                              *          20160704IMF1607044.TXT
MDDUG7201839201607                D89828070100PT4U20160708000030SPEAKER ASM                   M IMCTM S0FL05 FTTL  07070IMCT  S0 PTB  00004                    0800 SR        000000000000 FUJITSU TEN (THAILAN160JURU0033033                                                                                                                              *          20160704IMF1607044.TXT
MDDUG7201840201607                D89828070200PV4U20160708000030SPEAKER ASM                   M IMCTM S0FR05 FTTL  07070IMCT  S0 PTB  00005                    0800 SR        000000000000 FUJITSU TEN (THAILAN160JURU0033033                                                                                                                              *          20160704IMF1607044.TXT
MDDUG7201841201607                D89828070300PT4U20160708000030SPEAKER ASM                   M IMCTM S9TS02 FTTL  07070IMCT  S9 PTB  00015                    0800 SR        000000000000 FUJITSU TEN (THAILAN160JURU0033033                                                                                                                              *          20160704IMF1607044.TXT
MDDUG7201842201607                D89829093500PT4U20160708000015RADIO;ASM DVD (T              M IMCTM S9CO001FTTL  07070IMCT  S9 PTB  00003                    0800 SR        000000000000 FUJITSU TEN (THAILAN160JURU0033033                                                                                                                              *          20160704IMF1607044.TXT
MDEDG7209565201607                D89805293700PV1D20160707000030SPEAKER ASM                   M IMCTM S5MA12 FTTL  07070IMCT  S5 PTB  00003                    1510 SR        000000000000 FUJITSU TEN (THAILAN15018FL0073073                                                                                                                              *          20160704IMF1607044.TXT
MDEDG7209566201607                D89805293700PV1D20160707000060SPEAKER ASM                   M IMCTM S5MA12 FTTL  07070IMCT  S5 PTB  00003                    2230 SR        000000000000 FUJITSU TEN (THAILAN15021FL0009010                                                                                                                              *          20160704IMF1607044.TXT
MDEDG7209567201607                D89805293700PV1D20160708000030SPEAKER ASM                   M IMCTM S5MA12 FTTL  07070IMCT  S5 PTB  00003                    1510 SR        000000000000 FUJITSU TEN (THAILAN15076DL0012012                                                                                                                              *          20160704IMF1607044.TXT
MDEDG7209568201607                D89805293700PV4D20160708000030SPEAKER ASM                   M IMCTM S0FR05 FTTL  07070IMCT  S0 PTB  00003                    2030 SR        000000000000 FUJITSU TEN (THAILAN15019FU0023023                                                                                                                              *          20160704IMF1607044.TXT
MDEDG7209569201607                D89805294000PT1D20160707000060SPEAKER ASM                   M IMCTM S5NB042FTTL  07070IMCT  S5 PTB  00015                    2230 SR        000000000000 FUJITSU TEN (THAILAN15021FL0009010                                                                                                                              *          20160704IMF1607044.TXT
MDEDG7209570201607                D89805294100PV1D20160707000060SPEAKER ASM                   M IMCTM S5MB13 FTTL  07070IMCT  S5 PTB  00005                    2230 SR        000000000000 FUJITSU TEN (THAILAN15021FL0009010                                                                                                                              *          20160704IMF1607044.TXT
MDEDG7209571201607                D89828070100PV1D20160707000090SPEAKER ASM                   M IMCTM S5MA12 FTTL  07070IMCT  S5 PTB  00004                    2230 SR        000000000000 FUJITSU TEN (THAILAN16081HL009309316085HL0013014                                                                                                                *          20160704IMF1607044.TXT
MDEDG7209572201607                D89828070100PV1D20160708000090SPEAKER ASM                   M IMCTM S5MA12 FTTL  07070IMCT  S5 PTB  00004                    0310 SR        000000000000 FUJITSU TEN (THAILAN16033JL000700816045HL0006006                                                                                                                *          20160704IMF1607044.TXT
MDEDG7209573201607                D89828070100PV1D20160708000090SPEAKER ASM                   M IMCTM S5MA12 FTTL  07070IMCT  S5 PTB  00004                    1000 SR        000000000000 FUJITSU TEN (THAILAN16009JL002602616064HL0007008                                                                                                                *          20160704IMF1607044.TXT
MDEDG7209574201607                D89828070100PV1D20160708000090SPEAKER ASM                   M IMCTM S5MA12 FTTL  07070IMCT  S5 PTB  00004                    1510 SR        000000000000 FUJITSU TEN (THAILAN16042KL000100116058HL000600616084JL0001001                                                                                                  *          20160704IMF1607044.TXT
MDEDG7209575201607                D89828070200PV1D20160708000060SPEAKER ASM                   M IMCTM S5MA13 FTTL  07070IMCT  S5 PTB  00005                    1000 SR        000000000000 FUJITSU TEN (THAILAN16064HL0007008                                                                                                                              *          20160704IMF1607044.TXT
MDEDG7209576201607                D89828070300PT1D20160708000030SPEAKER ASM                   M IMCTM S5NB042FTTL  07070IMCT  S5 PTB  00015                    0310 SR        000000000000 FUJITSU TEN (THAILAN16045HL0006006                                                                                                                              *          20160704IMF1607044.TXT
MDEDG7209577201607                D89828070300PT1D20160708000060SPEAKER ASM                   M IMCTM S5NB042FTTL  07070IMCT  S5 PTB  00015                    1000 SR        000000000000 FUJITSU TEN (THAILAN16064HL0007008                                                                                                                              *          20160704IMF1607044.TXT
MDEDG7209578201607                D89828070300PT1D20160708000030SPEAKER ASM                   M IMCTM S5NB042FTTL  07070IMCT  S5 PTB  00015                    1510 SR        000000000000 FUJITSU TEN (THAILAN16058HL0006006                                                                                                                              *          20160704IMF1607044.TXT
MDEDG7209579201607                D89831228500PT1D20160708000015RADIO;AM/FM,CD                M IMCTM S5NC06 FTTL  07070IMCT  S5 PTB  00003                    1510 SR        000000000000 FUJITSU TEN (THAILAN16058HL0006006                                                                                                                              *          20160704IMF1607044.TXT
MDEDG7209580201607                D89831228600PT1D20160708000015RADIO;AM/FM,CD                M IMCTM S5NC06 FTTL  07070IMCT  S5 PTB  00003                    0310 SR        000000000000 FUJITSU TEN (THAILAN16045HL0006006                                                                                                                              *          20160704IMF1607044.TXT
MDEDG7209581201607                D89831228600PT1D20160708000030RADIO;AM/FM,CD                M IMCTM S5NC06 FTTL  07070IMCT  S5 PTB  00003                    1000 SR        000000000000 FUJITSU TEN (THAILAN16064HL0007008                                                                                                                              *          20160704IMF1607044.TXT
MDEUG7205712201607                D89828070100PT4U20160707000030SPEAKER ASM                   M IMCTM S0FL05 FTTL  07070IMCT  S0 PTB  00004                    2300 SR        000000000000 FUJITSU TEN (THAILAN160B41U0038038                                                                                                                              *          20160704IMF1607044.TXT
MDEUG7205713201607                D89828070100PT4U20160708000030SPEAKER ASM                   M IMCTM S0FL05 FTTL  07070IMCT  S0 PTB  00004                    0310 SR        000000000000 FUJITSU TEN (THAILAN160B48U0194194                                                                                                                              *          20160704IMF1607044.TXT
MDEUG7205714201607                D89828070100PT4U20160708000030SPEAKER ASM                   M IMCTM S0FL05 FTTL  07070IMCT  S0 PTB  00004                    0800 SR        000000000000 FUJITSU TEN (THAILAN160B42U0057057                                                                                                                              *          20160704IMF1607044.TXT
MDEUG7205715201607                D89828070100PT4U20160708000060SPEAKER ASM                   M IMCTM S0FL05 FTTL  07070IMCT  S0 PTB  00004                    1100 SR        000000000000 FUJITSU TEN (THAILAN160B48U0195196                                                                                                                              *          20160704IMF1607044.TXT
MDEUG7205716201607                D89828070100PT4U20160708000030SPEAKER ASM                   M IMCTM S0FL05 FTTL  07070IMCT  S0 PTB  00004                    2030 SR        000000000000 FUJITSU TEN (THAILAN160B46U0070070                                                                                                                              *          20160704IMF1607044.TXT
MDEUG7205717201607                D89828070200PV4U20160707000030SPEAKER ASM                   M IMCTM S0FR05 FTTL  07070IMCT  S0 PTB  00005                    2300 SR        000000000000 FUJITSU TEN (THAILAN160B41U0038038                                                                                                                              *          20160704IMF1607044.TXT
MDEUG7205718201607                D89828070200PV4U20160708000030SPEAKER ASM                   M IMCTM S0FR05 FTTL  07070IMCT  S0 PTB  00005                    0310 SR        000000000000 FUJITSU TEN (THAILAN160B48U0194194                                                                                                                              *          20160704IMF1607044.TXT
MDEUG7205719201607                D89828070200PV4U20160708000030SPEAKER ASM                   M IMCTM S0FR05 FTTL  07070IMCT  S0 PTB  00005                    0800 SR        000000000000 FUJITSU TEN (THAILAN160B42U0057057                                                                                                                              *          20160704IMF1607044.TXT
MDEUG7205720201607                D89828070200PV4U20160708000060SPEAKER ASM                   M IMCTM S0FR05 FTTL  07070IMCT  S0 PTB  00005                    1100 SR        000000000000 FUJITSU TEN (THAILAN160B48U0195196                                                                                                                              *          20160704IMF1607044.TXT
MDEUG7205721201607                D89828070200PV4U20160708000030SPEAKER ASM                   M IMCTM S0FR05 FTTL  07070IMCT  S0 PTB  00005                    2030 SR        000000000000 FUJITSU TEN (THAILAN160B46U0070070                                                                                                                              *          20160704IMF1607044.TXT
MDEUG7205722201607                D89828070300PT4U20160707000030SPEAKER ASM                   M IMCTM S9TS02 FTTL  07070IMCT  S9 PTB  00015                    2300 SR        000000000000 FUJITSU TEN (THAILAN160B41U0038038                                                                                                                              *          20160704IMF1607044.TXT
MDEUG7205723201607                D89828070300PT4U20160708000030SPEAKER ASM                   M IMCTM S9TS02 FTTL  07070IMCT  S9 PTB  00015                    0310 SR        000000000000 FUJITSU TEN (THAILAN160B48U0194194                                                                                                                              *          20160704IMF1607044.TXT
MDEUG7205724201607                D89828070300PT4U20160708000030SPEAKER ASM                   M IMCTM S9TS02 FTTL  07070IMCT  S9 PTB  00015                    0800 SR        000000000000 FUJITSU TEN (THAILAN160B42U0057057                                                                                                                              *          20160704IMF1607044.TXT
MDEUG7205725201607                D89828070300PT4U20160708000060SPEAKER ASM                   M IMCTM S9TS02 FTTL  07070IMCT  S9 PTB  00015                    1100 SR        000000000000 FUJITSU TEN (THAILAN160B48U0195196                                                                                                                              *          20160704IMF1607044.TXT
MDEUG7205726201607                D89828070300PT4U20160708000030SPEAKER ASM                   M IMCTM S9TS02 FTTL  07070IMCT  S9 PTB  00015                    2030 SR        000000000000 FUJITSU TEN (THAILAN160B46U0070070                                                                                                                              *          20160704IMF1607044.TXT
