REC2016071320160713ISUZU                              52     
MDDDG7225123201607                D89821984430PT1D20160718000030RADIO;AM/FM,CD                M IMCTM S5NC06 FTTL  07070IMCT  S5 PTB  00005                    2230 SR        000000000000 FUJITSU TEN (THAILAN160JYPL0106106                                                                                                                              *          20160713IMF1607134.TXT
MDDDG7225124201607                D89821984430PT1D20160719000030RADIO;AM/FM,CD                M IMCTM S5NC06 FTTL  07070IMCT  S5 PTB  00005                    1510 SR        000000000000 FUJITSU TEN (THAILAN160JYPL0107107                                                                                                                              *          20160713IMF1607134.TXT
MDDDG7225125201607                D89828070100PV1D20160718000060SPEAKER ASM                   M IMCTM S5MA12 FTTL  07070IMCT  S5 PTB  00004                    2230 SR        000000000000 FUJITSU TEN (THAILAN160JYPL0106106                                                                                                                              *          20160713IMF1607134.TXT
MDDDG7225126201607                D89828070100PV1D20160719000060SPEAKER ASM                   M IMCTM S5MA12 FTTL  07070IMCT  S5 PTB  00004                    1510 SR        000000000000 FUJITSU TEN (THAILAN160JYPL0107107                                                                                                                              *          20160713IMF1607134.TXT
MDEDG7263541201607                D89805293700PV1D20160718000030SPEAKER ASM                   M IMCTM S5MA12 FTTL  07070IMCT  S5 PTB  00003                    1510 SR        000000000000 FUJITSU TEN (THAILAN15042DL0027027                                                                                                                              *          20160713IMF1607134.TXT
MDEDG7263542201607                D89805293700PV1D20160718000060SPEAKER ASM                   M IMCTM S5MA12 FTTL  07070IMCT  S5 PTB  00003                    2230 SR        000000000000 FUJITSU TEN (THAILAN15074DL0006007                                                                                                                              *          20160713IMF1607134.TXT
MDEDG7263543201607                D89805293700PV1D20160719000090SPEAKER ASM                   M IMCTM S5MA12 FTTL  07070IMCT  S5 PTB  00003                    0310 SR        000000000000 FUJITSU TEN (THAILAN15004DL003403415026DL001601615036DL0020020                                                                                                  *          20160713IMF1607134.TXT
MDEDG7263544201607                D89805293700PV1D20160719000090SPEAKER ASM                   M IMCTM S5MA12 FTTL  07070IMCT  S5 PTB  00003                    1000 SR        000000000000 FUJITSU TEN (THAILAN15010DL001601615042DL002802815073DL0007007                                                                                                  *          20160713IMF1607134.TXT
MDEDG7263545201607                D89805294000PT1D20160718000030SPEAKER ASM                   M IMCTM S5NB042FTTL  07070IMCT  S5 PTB  00015                    1510 SR        000000000000 FUJITSU TEN (THAILAN15042DL0027027                                                                                                                              *          20160713IMF1607134.TXT
MDEDG7263546201607                D89805294000PT1D20160718000060SPEAKER ASM                   M IMCTM S5NB042FTTL  07070IMCT  S5 PTB  00015                    2230 SR        000000000000 FUJITSU TEN (THAILAN15074DL0006007                                                                                                                              *          20160713IMF1607134.TXT
MDEDG7263547201607                D89805294000PT1D20160719000060SPEAKER ASM                   M IMCTM S5NB042FTTL  07070IMCT  S5 PTB  00015                    0310 SR        000000000000 FUJITSU TEN (THAILAN15026DL001601615036DL0020020                                                                                                                *          20160713IMF1607134.TXT
MDEDG7263548201607                D89805294000PT1D20160719000090SPEAKER ASM                   M IMCTM S5NB042FTTL  07070IMCT  S5 PTB  00015                    1000 SR        000000000000 FUJITSU TEN (THAILAN15010DL001601615042DL002802815073DL0007007                                                                                                  *          20160713IMF1607134.TXT
MDEDG7263549201607                D89805294100PV1D20160719000060SPEAKER ASM                   M IMCTM S5MB13 FTTL  07070IMCT  S5 PTB  00005                    0310 SR        000000000000 FUJITSU TEN (THAILAN15026DL001601615036DL0020020                                                                                                                *          20160713IMF1607134.TXT
MDEDG7263550201607                D89805294200PT1D20160718000030SPEAKER ASM                   M IMCTM S5AS011FTTL  07070IMCT  S6 PTB  00030                    1510 SR        000000000000 FUJITSU TEN (THAILAN15042DL0027027                                                                                                                              *          20160713IMF1607134.TXT
MDEDG7263551201607                D89805294200PT1D20160718000060SPEAKER ASM                   M IMCTM S5AS011FTTL  07070IMCT  S6 PTB  00030                    2230 SR        000000000000 FUJITSU TEN (THAILAN15074DL0006007                                                                                                                              *          20160713IMF1607134.TXT
MDEDG7263552201607                D89805294200PT1D20160719000060SPEAKER ASM                   M IMCTM S5AS011FTTL  07070IMCT  S6 PTB  00030                    1000 SR        000000000000 FUJITSU TEN (THAILAN15042DL002802815073DL0007007                                                                                                                *          20160713IMF1607134.TXT
MDEDG7263553201607                D89806470400PT1D20160718000015SPEAKER ASM;RDO,              M IMCTM S5EA18 FTTL  07070IMCT  S6 PTB  00015                    1510 SR        000000000000 FUJITSU TEN (THAILAN15042DL0027027                                                                                                                              *          20160713IMF1607134.TXT
MDEDG7263554201607                D89806470400PT1D20160718000030SPEAKER ASM;RDO,              M IMCTM S5EA18 FTTL  07070IMCT  S6 PTB  00015                    2230 SR        000000000000 FUJITSU TEN (THAILAN15074DL0006007                                                                                                                              *          20160713IMF1607134.TXT
MDEDG7263555201607                D89806470400PT1D20160719000030SPEAKER ASM;RDO,              M IMCTM S5EA18 FTTL  07070IMCT  S6 PTB  00015                    1000 SR        000000000000 FUJITSU TEN (THAILAN15042DL002802815073DL0007007                                                                                                                *          20160713IMF1607134.TXT
MDEDG7263556201607                D89824360220PT1D20160718000030RADIO;AM/FM,CD                M IMCTM S5NC06 FTTL  07070IMCT  S5 CPB  00003                    2230 SR        000000000000 FUJITSU TEN (THAILAN15074DL0006007                                                                                                                              *          20160713IMF1607134.TXT
MDEDG7263557201607                D89824360220PT1D20160719000015RADIO;AM/FM,CD                M IMCTM S5NC06 FTTL  07070IMCT  S5 CPB  00003                    1000 SR        000000000000 FUJITSU TEN (THAILAN15073DL0007007                                                                                                                              *          20160713IMF1607134.TXT
MDEDG7263558201607                D89828070100PV1D20160718000060SPEAKER ASM                   M IMCTM S5MA12 FTTL  07070IMCT  S5 PTB  00004                    2230 SR        000000000000 FUJITSU TEN (THAILAN16045HL0009010                                                                                                                              *          20160713IMF1607134.TXT
MDEDG7263559201607                D89828070100PV1D20160719000060SPEAKER ASM                   M IMCTM S5MA12 FTTL  07070IMCT  S5 PTB  00004                    0310 SR        000000000000 FUJITSU TEN (THAILAN16007JL0044045                                                                                                                              *          20160713IMF1607134.TXT
MDEDG7263560201607                D89828070100PV1D20160719000090SPEAKER ASM                   M IMCTM S5MA12 FTTL  07070IMCT  S5 PTB  00004                    1000 SR        000000000000 FUJITSU TEN (THAILAN16032JL001001016052HL0009010                                                                                                                *          20160713IMF1607134.TXT
MDEDG7263561201607                D89828070100PV1D20160719000090SPEAKER ASM                   M IMCTM S5MA12 FTTL  07070IMCT  S5 PTB  00004                    1510 SR        000000000000 FUJITSU TEN (THAILAN16032JL001101116047HL0010011                                                                                                                *          20160713IMF1607134.TXT
MDEDG7263562201607                D89828070100PV4D20160719000030SPEAKER ASM                   M IMCTM S0FL05 FTTL  07070IMCT  S0 PTB  00004                    1100 SR        000000000000 FUJITSU TEN (THAILAN16072HU0029029                                                                                                                              *          20160713IMF1607134.TXT
MDEDG7263563201607                D89828070200PV1D20160719000060SPEAKER ASM                   M IMCTM S5MA13 FTTL  07070IMCT  S5 PTB  00005                    1000 SR        000000000000 FUJITSU TEN (THAILAN16052HL0009010                                                                                                                              *          20160713IMF1607134.TXT
MDEDG7263564201607                D89828070200PV4D20160719000030SPEAKER ASM                   M IMCTM S0FR05 FTTL  07070IMCT  S0 PTB  00005                    1100 SR        000000000000 FUJITSU TEN (THAILAN16072HU0029029                                                                                                                              *          20160713IMF1607134.TXT
MDEDG7263565201607                D89828070300PT1D20160718000060SPEAKER ASM                   M IMCTM S5NB042FTTL  07070IMCT  S5 PTB  00015                    2230 SR        000000000000 FUJITSU TEN (THAILAN16045HL0009010                                                                                                                              *          20160713IMF1607134.TXT
MDEDG7263566201607                D89828070300PT1D20160719000060SPEAKER ASM                   M IMCTM S5NB042FTTL  07070IMCT  S5 PTB  00015                    1000 SR        000000000000 FUJITSU TEN (THAILAN16052HL0009010                                                                                                                              *          20160713IMF1607134.TXT
MDEDG7263567201607                D89828070300PT1D20160719000060SPEAKER ASM                   M IMCTM S5NB042FTTL  07070IMCT  S5 PTB  00015                    1510 SR        000000000000 FUJITSU TEN (THAILAN16047HL0010011                                                                                                                              *          20160713IMF1607134.TXT
MDEDG7263568201607                D89828070300PT4D20160719000030SPEAKER ASM                   M IMCTM S9TS02 FTTL  07070IMCT  S9 PTB  00015                    1100 SR        000000000000 FUJITSU TEN (THAILAN16072HU0029029                                                                                                                              *          20160713IMF1607134.TXT
MDEDG7263569201607                D89831228600PT1D20160718000030RADIO;AM/FM,CD                M IMCTM S5NC06 FTTL  07070IMCT  S5 PTB  00003                    2230 SR        000000000000 FUJITSU TEN (THAILAN16045HL0009010                                                                                                                              *          20160713IMF1607134.TXT
MDEDG7263570201607                D89831228600PT1D20160719000030RADIO;AM/FM,CD                M IMCTM S5NC06 FTTL  07070IMCT  S5 PTB  00003                    1510 SR        000000000000 FUJITSU TEN (THAILAN16047HL0010011                                                                                                                              *          20160713IMF1607134.TXT
MDEUG7236711201607                D89828070100PT4U20160718000030SPEAKER ASM                   M IMCTM S0FL05 FTTL  07070IMCT  S0 PTB  00004                    2030 SR        000000000000 FUJITSU TEN (THAILAN160B46U0075075                                                                                                                              *          20160713IMF1607134.TXT
MDEUG7236712201607                D89828070100PT4U20160719000030SPEAKER ASM                   M IMCTM S0FL05 FTTL  07070IMCT  S0 PTB  00004                    0310 SR        000000000000 FUJITSU TEN (THAILAN160B48U0218218                                                                                                                              *          20160713IMF1607134.TXT
MDEUG7236713201607                D89828070100PT4U20160719000030SPEAKER ASM                   M IMCTM S0FL05 FTTL  07070IMCT  S0 PTB  00004                    0800 SR        000000000000 FUJITSU TEN (THAILAN160B46U0076076                                                                                                                              *          20160713IMF1607134.TXT
MDEUG7236714201607                D89828070100PT4U20160719000030SPEAKER ASM                   M IMCTM S0FL05 FTTL  07070IMCT  S0 PTB  00004                    1100 SR        000000000000 FUJITSU TEN (THAILAN160B48U0219219                                                                                                                              *          20160713IMF1607134.TXT
MDEUG7236715201607                D89828070100PT4U20160719000030SPEAKER ASM                   M IMCTM S0FL05 FTTL  07070IMCT  S0 PTB  00004                    1510 SR        000000000000 FUJITSU TEN (THAILAN160B48U0220220                                                                                                                              *          20160713IMF1607134.TXT
MDEUG7236716201607                D89828070100PT4U20160719000060SPEAKER ASM                   M IMCTM S0FL05 FTTL  07070IMCT  S0 PTB  00004                    2030 SR        000000000000 FUJITSU TEN (THAILAN160B37U0029029160B48U0221221                                                                                                                *          20160713IMF1607134.TXT
MDEUG7236717201607                D89828070200PV4U20160718000030SPEAKER ASM                   M IMCTM S0FR05 FTTL  07070IMCT  S0 PTB  00005                    2030 SR        000000000000 FUJITSU TEN (THAILAN160B46U0075075                                                                                                                              *          20160713IMF1607134.TXT
MDEUG7236718201607                D89828070200PV4U20160719000030SPEAKER ASM                   M IMCTM S0FR05 FTTL  07070IMCT  S0 PTB  00005                    0310 SR        000000000000 FUJITSU TEN (THAILAN160B48U0218218                                                                                                                              *          20160713IMF1607134.TXT
MDEUG7236719201607                D89828070200PV4U20160719000030SPEAKER ASM                   M IMCTM S0FR05 FTTL  07070IMCT  S0 PTB  00005                    0800 SR        000000000000 FUJITSU TEN (THAILAN160B46U0076076                                                                                                                              *          20160713IMF1607134.TXT
MDEUG7236720201607                D89828070200PV4U20160719000030SPEAKER ASM                   M IMCTM S0FR05 FTTL  07070IMCT  S0 PTB  00005                    1100 SR        000000000000 FUJITSU TEN (THAILAN160B48U0219219                                                                                                                              *          20160713IMF1607134.TXT
MDEUG7236721201607                D89828070200PV4U20160719000030SPEAKER ASM                   M IMCTM S0FR05 FTTL  07070IMCT  S0 PTB  00005                    1510 SR        000000000000 FUJITSU TEN (THAILAN160B48U0220220                                                                                                                              *          20160713IMF1607134.TXT
MDEUG7236722201607                D89828070200PV4U20160719000060SPEAKER ASM                   M IMCTM S0FR05 FTTL  07070IMCT  S0 PTB  00005                    2030 SR        000000000000 FUJITSU TEN (THAILAN160B37U0029029160B48U0221221                                                                                                                *          20160713IMF1607134.TXT
MDEUG7236723201607                D89828070300PT4U20160718000030SPEAKER ASM                   M IMCTM S9TS02 FTTL  07070IMCT  S9 PTB  00015                    2030 SR        000000000000 FUJITSU TEN (THAILAN160B46U0075075                                                                                                                              *          20160713IMF1607134.TXT
MDEUG7236724201607                D89828070300PT4U20160719000030SPEAKER ASM                   M IMCTM S9TS02 FTTL  07070IMCT  S9 PTB  00015                    0310 SR        000000000000 FUJITSU TEN (THAILAN160B48U0218218                                                                                                                              *          20160713IMF1607134.TXT
MDEUG7236725201607                D89828070300PT4U20160719000030SPEAKER ASM                   M IMCTM S9TS02 FTTL  07070IMCT  S9 PTB  00015                    0800 SR        000000000000 FUJITSU TEN (THAILAN160B46U0076076                                                                                                                              *          20160713IMF1607134.TXT
MDEUG7236726201607                D89828070300PT4U20160719000030SPEAKER ASM                   M IMCTM S9TS02 FTTL  07070IMCT  S9 PTB  00015                    1100 SR        000000000000 FUJITSU TEN (THAILAN160B48U0219219                                                                                                                              *          20160713IMF1607134.TXT
MDEUG7236727201607                D89828070300PT4U20160719000030SPEAKER ASM                   M IMCTM S9TS02 FTTL  07070IMCT  S9 PTB  00015                    1510 SR        000000000000 FUJITSU TEN (THAILAN160B48U0220220                                                                                                                              *          20160713IMF1607134.TXT
MDEUG7236728201607                D89828070300PT4U20160719000060SPEAKER ASM                   M IMCTM S9TS02 FTTL  07070IMCT  S9 PTB  00015                    2030 SR        000000000000 FUJITSU TEN (THAILAN160B37U0029029160B48U0221221                                                                                                                *          20160713IMF1607134.TXT
