REC2016071120160711ISUZU                              55     
MDDDG7220000201607                D89821984430PT1D20160714000030RADIO;AM/FM,CD                M IMCTM S5NC06 FTTL  07070IMCT  S5 PTB  00005                    2230 SR        000000000000 FUJITSU TEN (THAILAN160JXAL0175175                                                                                                                              *          20160711IMF1607114.TXT
MDDDG7220001201607                D89821984430PT1D20160715000030RADIO;AM/FM,CD                M IMCTM S5NC06 FTTL  07070IMCT  S5 PTB  00005                    0310 SR        000000000000 FUJITSU TEN (THAILAN160JXAL0176176                                                                                                                              *          20160711IMF1607114.TXT
MDDDG7220002201607                D89828070100PV1D20160714000060SPEAKER ASM                   M IMCTM S5MA12 FTTL  07070IMCT  S5 PTB  00004                    2230 SR        000000000000 FUJITSU TEN (THAILAN160JXAL0175175                                                                                                                              *          20160711IMF1607114.TXT
MDDDG7220003201607                D89828070100PV1D20160715000060SPEAKER ASM                   M IMCTM S5MA12 FTTL  07070IMCT  S5 PTB  00004                    0310 SR        000000000000 FUJITSU TEN (THAILAN160JXAL0176176                                                                                                                              *          20160711IMF1607114.TXT
MDDDG7220004201607                D89828070100PV1D20160715000060SPEAKER ASM                   M IMCTM S5MA12 FTTL  07070IMCT  S5 PTB  00004                    1000 SR        000000000000 FUJITSU TEN (THAILAN160JYSL0124124                                                                                                                              *          20160711IMF1607114.TXT
MDDDG7220005201607                D89828070100PV1D20160715000060SPEAKER ASM                   M IMCTM S5MA12 FTTL  07070IMCT  S5 PTB  00004                    1510 SR        000000000000 FUJITSU TEN (THAILAN160JYSL0125125                                                                                                                              *          20160711IMF1607114.TXT
MDDDG7220006201607                D89828070300PT1D20160715000060SPEAKER ASM                   M IMCTM S5NB042FTTL  07070IMCT  S5 PTB  00015                    1000 SR        000000000000 FUJITSU TEN (THAILAN160JYSL0124124                                                                                                                              *          20160711IMF1607114.TXT
MDDDG7220007201607                D89828070300PT1D20160715000060SPEAKER ASM                   M IMCTM S5NB042FTTL  07070IMCT  S5 PTB  00015                    1510 SR        000000000000 FUJITSU TEN (THAILAN160JYSL0125125                                                                                                                              *          20160711IMF1607114.TXT
MDDDG7220008201607                D89831228300PT1D20160715000030RADIO;AM/FM,CD                M IMCTM S5NC06 FTTL  07070IMCT  S5 CPB  00003                    1000 SR        000000000000 FUJITSU TEN (THAILAN160JYSL0124124                                                                                                                              *          20160711IMF1607114.TXT
MDDDG7220009201607                D89831228300PT1D20160715000030RADIO;AM/FM,CD                M IMCTM S5NC06 FTTL  07070IMCT  S5 CPB  00003                    1510 SR        000000000000 FUJITSU TEN (THAILAN160JYSL0125125                                                                                                                              *          20160711IMF1607114.TXT
MDEDG7246376201607                D89805293700PV1D20160714000030SPEAKER ASM                   M IMCTM S5MA12 FTTL  07070IMCT  S5 PTB  00003                    2230 SR        000000000000 FUJITSU TEN (THAILAN15020FL0007007                                                                                                                              *          20160711IMF1607114.TXT
MDEDG7246377201607                D89805293700PV1D20160715000030SPEAKER ASM                   M IMCTM S5MA12 FTTL  07070IMCT  S5 PTB  00003                    0310 SR        000000000000 FUJITSU TEN (THAILAN15020FL0008008                                                                                                                              *          20160711IMF1607114.TXT
MDEDG7246378201607                D89805293700PV1D20160715000060SPEAKER ASM                   M IMCTM S5MA12 FTTL  07070IMCT  S5 PTB  00003                    1510 SR        000000000000 FUJITSU TEN (THAILAN15042DL0024025                                                                                                                              *          20160711IMF1607114.TXT
MDEDG7246379201607                D89805294000PT1D20160714000030SPEAKER ASM                   M IMCTM S5NB042FTTL  07070IMCT  S5 PTB  00015                    2230 SR        000000000000 FUJITSU TEN (THAILAN15020FL0007007                                                                                                                              *          20160711IMF1607114.TXT
MDEDG7246380201607                D89805294000PT1D20160715000030SPEAKER ASM                   M IMCTM S5NB042FTTL  07070IMCT  S5 PTB  00015                    0310 SR        000000000000 FUJITSU TEN (THAILAN15020FL0008008                                                                                                                              *          20160711IMF1607114.TXT
MDEDG7246381201607                D89805294000PT1D20160715000060SPEAKER ASM                   M IMCTM S5NB042FTTL  07070IMCT  S5 PTB  00015                    1510 SR        000000000000 FUJITSU TEN (THAILAN15042DL0024025                                                                                                                              *          20160711IMF1607114.TXT
MDEDG7246382201607                D89805294100PV1D20160714000030SPEAKER ASM                   M IMCTM S5MB13 FTTL  07070IMCT  S5 PTB  00005                    2230 SR        000000000000 FUJITSU TEN (THAILAN15020FL0007007                                                                                                                              *          20160711IMF1607114.TXT
MDEDG7246383201607                D89805294100PV1D20160715000030SPEAKER ASM                   M IMCTM S5MB13 FTTL  07070IMCT  S5 PTB  00005                    0310 SR        000000000000 FUJITSU TEN (THAILAN15020FL0008008                                                                                                                              *          20160711IMF1607114.TXT
MDEDG7246384201607                D89805294200PT1D20160715000060SPEAKER ASM                   M IMCTM S5AS011FTTL  07070IMCT  S6 PTB  00030                    1510 SR        000000000000 FUJITSU TEN (THAILAN15042DL0024025                                                                                                                              *          20160711IMF1607114.TXT
MDEDG7246385201607                D89806470400PT1D20160715000030SPEAKER ASM;RDO,              M IMCTM S5EA18 FTTL  07070IMCT  S6 PTB  00015                    1510 SR        000000000000 FUJITSU TEN (THAILAN15042DL0024025                                                                                                                              *          20160711IMF1607114.TXT
MDEDG7246386201607                D89828070100PV1D20160714000030SPEAKER ASM                   M IMCTM S5MA12 FTTL  07070IMCT  S5 PTB  00004                    1510 SR        000000000000 FUJITSU TEN (THAILAN16066HL0008008                                                                                                                              *          20160711IMF1607114.TXT
MDEDG7246387201607                D89828070100PV1D20160714000060SPEAKER ASM                   M IMCTM S5MA12 FTTL  07070IMCT  S5 PTB  00004                    2230 SR        000000000000 FUJITSU TEN (THAILAN16007JL0038039                                                                                                                              *          20160711IMF1607114.TXT
MDEDG7246388201607                D89828070100PV1D20160715000090SPEAKER ASM                   M IMCTM S5MA12 FTTL  07070IMCT  S5 PTB  00004                    0310 SR        000000000000 FUJITSU TEN (THAILAN16071HL000700716075HL0022023                                                                                                                *          20160711IMF1607114.TXT
MDEDG7246389201607                D89828070100PV1D20160715000120SPEAKER ASM                   M IMCTM S5MA12 FTTL  07070IMCT  S5 PTB  00004                    1000 SR        000000000000 FUJITSU TEN (THAILAN16058HL000900916061HL000300316064HL001101116081HL0100100                                                                                    *          20160711IMF1607114.TXT
MDEDG7246390201607                D89828070100PV4D20160715000030SPEAKER ASM                   M IMCTM S0FL05 FTTL  07070IMCT  S0 PTB  00004                    0310 SR        000000000000 FUJITSU TEN (THAILAN16072HU0026026                                                                                                                              *          20160711IMF1607114.TXT
MDEDG7246391201607                D89828070100PV4D20160715000030SPEAKER ASM                   M IMCTM S0FL05 FTTL  07070IMCT  S0 PTB  00004                    1100 SR        000000000000 FUJITSU TEN (THAILAN16072HU0027027                                                                                                                              *          20160711IMF1607114.TXT
MDEDG7246392201607                D89828070200PV1D20160714000030SPEAKER ASM                   M IMCTM S5MA13 FTTL  07070IMCT  S5 PTB  00005                    1510 SR        000000000000 FUJITSU TEN (THAILAN16066HL0008008                                                                                                                              *          20160711IMF1607114.TXT
MDEDG7246393201607                D89828070200PV1D20160715000030SPEAKER ASM                   M IMCTM S5MA13 FTTL  07070IMCT  S5 PTB  00005                    0310 SR        000000000000 FUJITSU TEN (THAILAN16071HL0007007                                                                                                                              *          20160711IMF1607114.TXT
MDEDG7246394201607                D89828070200PV1D20160715000060SPEAKER ASM                   M IMCTM S5MA13 FTTL  07070IMCT  S5 PTB  00005                    1000 SR        000000000000 FUJITSU TEN (THAILAN16061HL000300316064HL0011011                                                                                                                *          20160711IMF1607114.TXT
MDEDG7246395201607                D89828070200PV4D20160715000030SPEAKER ASM                   M IMCTM S0FR05 FTTL  07070IMCT  S0 PTB  00005                    0310 SR        000000000000 FUJITSU TEN (THAILAN16072HU0026026                                                                                                                              *          20160711IMF1607114.TXT
MDEDG7246396201607                D89828070200PV4D20160715000030SPEAKER ASM                   M IMCTM S0FR05 FTTL  07070IMCT  S0 PTB  00005                    1100 SR        000000000000 FUJITSU TEN (THAILAN16072HU0027027                                                                                                                              *          20160711IMF1607114.TXT
MDEDG7246397201607                D89828070300PT1D20160714000030SPEAKER ASM                   M IMCTM S5NB042FTTL  07070IMCT  S5 PTB  00015                    1510 SR        000000000000 FUJITSU TEN (THAILAN16066HL0008008                                                                                                                              *          20160711IMF1607114.TXT
MDEDG7246398201607                D89828070300PT1D20160715000030SPEAKER ASM                   M IMCTM S5NB042FTTL  07070IMCT  S5 PTB  00015                    0310 SR        000000000000 FUJITSU TEN (THAILAN16071HL0007007                                                                                                                              *          20160711IMF1607114.TXT
MDEDG7246399201607                D89828070300PT1D20160715000090SPEAKER ASM                   M IMCTM S5NB042FTTL  07070IMCT  S5 PTB  00015                    1000 SR        000000000000 FUJITSU TEN (THAILAN16058HL000900916061HL000300316064HL0011011                                                                                                  *          20160711IMF1607114.TXT
MDEDG7246400201607                D89828070300PT4D20160715000030SPEAKER ASM                   M IMCTM S9TS02 FTTL  07070IMCT  S9 PTB  00015                    0310 SR        000000000000 FUJITSU TEN (THAILAN16072HU0026026                                                                                                                              *          20160711IMF1607114.TXT
MDEDG7246401201607                D89828070300PT4D20160715000030SPEAKER ASM                   M IMCTM S9TS02 FTTL  07070IMCT  S9 PTB  00015                    1100 SR        000000000000 FUJITSU TEN (THAILAN16072HU0027027                                                                                                                              *          20160711IMF1607114.TXT
MDEDG7246402201607                D89831228500PT1D20160715000015RADIO;AM/FM,CD                M IMCTM S5NC06 FTTL  07070IMCT  S5 PTB  00003                    1000 SR        000000000000 FUJITSU TEN (THAILAN16058HL0009009                                                                                                                              *          20160711IMF1607114.TXT
MDEDG7246403201607                D89831228600PT1D20160714000015RADIO;AM/FM,CD                M IMCTM S5NC06 FTTL  07070IMCT  S5 PTB  00003                    2230 SR        000000000000 FUJITSU TEN (THAILAN16066HL0008008                                                                                                                              *          20160711IMF1607114.TXT
MDEDG7246404201607                D89831228600PT1D20160715000015RADIO;AM/FM,CD                M IMCTM S5NC06 FTTL  07070IMCT  S5 PTB  00003                    0310 SR        000000000000 FUJITSU TEN (THAILAN16071HL0007007                                                                                                                              *          20160711IMF1607114.TXT
MDEDG7246405201607                D89831228600PT1D20160715000030RADIO;AM/FM,CD                M IMCTM S5NC06 FTTL  07070IMCT  S5 PTB  00003                    1000 SR        000000000000 FUJITSU TEN (THAILAN16061HL000300316064HL0011011                                                                                                                *          20160711IMF1607114.TXT
MDEUG7227877201607                D89828070100PT4U20160714000030SPEAKER ASM                   M IMCTM S0FL05 FTTL  07070IMCT  S0 PTB  00004                    2300 SR        000000000000 FUJITSU TEN (THAILAN160B48U0210210                                                                                                                              *          20160711IMF1607114.TXT
MDEUG7227878201607                D89828070100PT4U20160715000030SPEAKER ASM                   M IMCTM S0FL05 FTTL  07070IMCT  S0 PTB  00004                    0310 SR        000000000000 FUJITSU TEN (THAILAN160B48U0211211                                                                                                                              *          20160711IMF1607114.TXT
MDEUG7227879201607                D89828070100PT4U20160715000030SPEAKER ASM                   M IMCTM S0FL05 FTTL  07070IMCT  S0 PTB  00004                    0800 SR        000000000000 FUJITSU TEN (THAILAN160B46U0074074                                                                                                                              *          20160711IMF1607114.TXT
MDEUG7227880201607                D89828070100PT4U20160715000060SPEAKER ASM                   M IMCTM S0FL05 FTTL  07070IMCT  S0 PTB  00004                    1100 SR        000000000000 FUJITSU TEN (THAILAN160B45U0035035160B48U0212212                                                                                                                *          20160711IMF1607114.TXT
MDEUG7227881201607                D89828070100PT4U20160715000030SPEAKER ASM                   M IMCTM S0FL05 FTTL  07070IMCT  S0 PTB  00004                    1510 SR        000000000000 FUJITSU TEN (THAILAN160B37U0027027                                                                                                                              *          20160711IMF1607114.TXT
MDEUG7227882201607                D89828070200PV4U20160714000030SPEAKER ASM                   M IMCTM S0FR05 FTTL  07070IMCT  S0 PTB  00005                    2300 SR        000000000000 FUJITSU TEN (THAILAN160B48U0210210                                                                                                                              *          20160711IMF1607114.TXT
MDEUG7227883201607                D89828070200PV4U20160715000030SPEAKER ASM                   M IMCTM S0FR05 FTTL  07070IMCT  S0 PTB  00005                    0310 SR        000000000000 FUJITSU TEN (THAILAN160B48U0211211                                                                                                                              *          20160711IMF1607114.TXT
MDEUG7227884201607                D89828070200PV4U20160715000030SPEAKER ASM                   M IMCTM S0FR05 FTTL  07070IMCT  S0 PTB  00005                    0800 SR        000000000000 FUJITSU TEN (THAILAN160B46U0074074                                                                                                                              *          20160711IMF1607114.TXT
MDEUG7227885201607                D89828070200PV4U20160715000060SPEAKER ASM                   M IMCTM S0FR05 FTTL  07070IMCT  S0 PTB  00005                    1100 SR        000000000000 FUJITSU TEN (THAILAN160B45U0035035160B48U0212212                                                                                                                *          20160711IMF1607114.TXT
MDEUG7227886201607                D89828070200PV4U20160715000030SPEAKER ASM                   M IMCTM S0FR05 FTTL  07070IMCT  S0 PTB  00005                    1510 SR        000000000000 FUJITSU TEN (THAILAN160B37U0027027                                                                                                                              *          20160711IMF1607114.TXT
MDEUG7227887201607                D89828070300PT4U20160714000030SPEAKER ASM                   M IMCTM S9TS02 FTTL  07070IMCT  S9 PTB  00015                    2300 SR        000000000000 FUJITSU TEN (THAILAN160B48U0210210                                                                                                                              *          20160711IMF1607114.TXT
MDEUG7227888201607                D89828070300PT4U20160715000030SPEAKER ASM                   M IMCTM S9TS02 FTTL  07070IMCT  S9 PTB  00015                    0310 SR        000000000000 FUJITSU TEN (THAILAN160B48U0211211                                                                                                                              *          20160711IMF1607114.TXT
MDEUG7227889201607                D89828070300PT4U20160715000030SPEAKER ASM                   M IMCTM S9TS02 FTTL  07070IMCT  S9 PTB  00015                    0800 SR        000000000000 FUJITSU TEN (THAILAN160B46U0074074                                                                                                                              *          20160711IMF1607114.TXT
MDEUG7227890201607                D89828070300PT4U20160715000060SPEAKER ASM                   M IMCTM S9TS02 FTTL  07070IMCT  S9 PTB  00015                    1100 SR        000000000000 FUJITSU TEN (THAILAN160B45U0035035160B48U0212212                                                                                                                *          20160711IMF1607114.TXT
MDEUG7227891201607                D89828070300PT4U20160715000030SPEAKER ASM                   M IMCTM S9TS02 FTTL  07070IMCT  S9 PTB  00015                    1510 SR        000000000000 FUJITSU TEN (THAILAN160B37U0027027                                                                                                                              *          20160711IMF1607114.TXT
