REC2016072320160725ISUZU                              4      
MAEDG7600566201610                 89828070100PV1D20160919000002SPEAKER ASM                   M IMCTM ST00000FTTL  07070IMCT  ST PTB  00004  DC                0000 SR        000000000000 FUJITSU TEN (THAILAN17012LL0004004                                                                                                                              *P         20160723IMF1607237.TXT
MAEDG7600567201610                 89828070100PV1D20161010000002SPEAKER ASM                   M IMCTM ST00000FTTL  07070IMCT  ST PTB  00004  DC                0000 SR        000000000000 FUJITSU TEN (THAILAN17056RL0001001                                                                                                                              *P         20160723IMF1607237.TXT
MAEDG7600568201610                 89828070200PV1D20160919000002SPEAKER ASM                   M IMCTM ST00000FTTL  07070IMCT  ST PTB  00005  DC                0000 SR        000000000000 FUJITSU TEN (THAILAN17012LL0004004                                                                                                                              *P         20160723IMF1607237.TXT
MAEDG7600569201610                 89828070300PT1D20160919000002SPEAKER ASM                   M IMCTM ST00000FTTL  07070IMCT  ST PTB  00015  DC                0000 SR        000000000000 FUJITSU TEN (THAILAN17012LL0004004                                                                                                                              *P         20160723IMF1607237.TXT
