REC2016071320160713ISUZU                              13     
MDEFG7T07540201607                D89805293700PV4F20160718000030SPEAKER ASM                   M IMCTM S7FR05 FTTL  07070IMCT  S7 PTB  00003                    2300 SR        000000000000 FUJITSU TEN (THAILAN15010DR0135   15074DR0101   F160702601    F160702615    000000                                                                              *R         20160713RDF1607134.TXT
MDEFG7T07541201607                D89805294000PT4F20160718000030SPEAKER ASM                   M IMCTM S7TS02 FTTL  07070IMCT  S7 PTB  00015                    2300 SR        000000000000 FUJITSU TEN (THAILAN15010DR0135   15074DR0101   F160702601    F160702615    000000                                                                              *R         20160713RDF1607134.TXT
MDEFG7T07542201607                D89805294100PV4F20160718000010SPEAKER ASM                   M IMCTM S7FR05 FTTL  07070IMCT  S7 PTB  00005                    1510 SR        000000000000 FUJITSU TEN (THAILAN15036DR0103   15036DR0107   D160702511    D160702515    000000                                                                              *R         20160713RDF1607134.TXT
MDEFG7T07543201607                D89805294200PT4F20160718000030SPEAKER ASM                   M IMCTM S7S137 FTTL  07070IMCT  S7 PTB  00030                    1100 SR        000000000000 FUJITSU TEN (THAILAN15033DR0118   15074DR0101   D160702505    F160702615    000000                                                                              *R         20160713RDF1607134.TXT
MDEFG7T07544201607                D89806470400PT4F20160718000015SPEAKER ASM;RDO,              M IMCTM S7TL03 FTTL  07070IMCT  S7 PTB  00015                    1100 SR        000000000000 FUJITSU TEN (THAILAN15033DR0118   15074DR0101   D160702505    F160702615    000000                                                                              *R         20160713RDF1607134.TXT
MDEFG7T07545201607                D89824360220PT4F20160718000010RADIO;AM/FM,CD                M IMCTM S7TS03 FTTL  07070IMCT  S7 CPB  00003                    2300 SR        000000000000 FUJITSU TEN (THAILAN15074DR0093   15074DR0101   F160702606    F160702615    000000                                                                              *R         20160713RDF1607134.TXT
MDEFG7T07546201607                D89828070100PV4F20160719000026SPEAKER ASM                   M IMCTM S7FL05 FTTL  07070IMCT  S7 PTB  00004                    0800 SR        000000000000 FUJITSU TEN (THAILAN16003JR0021   16081HR0048   R160702703    R160702715    000000                                                                              *R         20160713RDF1607134.TXT
MDEFG7216529201607                D89805293700PV4F20160718000015SPEAKER ASM                   M IMCTM S7FR05 FTTL  07070IMCT  S7 PTB  00003                    1100 SR        000000000000 FUJITSU TEN (THAILAN15026DR0136   15033DR0121   D160702501    D160702508    000000                                                                              *R         20160713RDF1607134.TXT
MDEFG7216530201607                D89805293700PV4F20160718000015SPEAKER ASM                   M IMCTM S7FR05 FTTL  07070IMCT  S7 PTB  00003                    1510 SR        000000000000 FUJITSU TEN (THAILAN15033DR0121   15036DR0107   D160702508    D160702515    000000                                                                              *R         20160713RDF1607134.TXT
MDEFG7216531201607                D89805294000PT4F20160718000015SPEAKER ASM                   M IMCTM S7TS02 FTTL  07070IMCT  S7 PTB  00015                    1100 SR        000000000000 FUJITSU TEN (THAILAN15026DR0136   15033DR0121   D160702501    D160702508    000000                                                                              *R         20160713RDF1607134.TXT
MDEFG7216532201607                D89805294000PT4F20160718000015SPEAKER ASM                   M IMCTM S7TS02 FTTL  07070IMCT  S7 PTB  00015                    1510 SR        000000000000 FUJITSU TEN (THAILAN15033DR0121   15036DR0107   D160702508    D160702515    000000                                                                              *R         20160713RDF1607134.TXT
MDEFG7216533201607                D89805294100PV4F20160718000010SPEAKER ASM                   M IMCTM S7FR05 FTTL  07070IMCT  S7 PTB  00005                    1100 SR        000000000000 FUJITSU TEN (THAILAN15026DR0136   15036DR0102   D160702501    D160702510    000000                                                                              *R         20160713RDF1607134.TXT
MDEFG7216534201607                D89828070100PV4F20160719000004SPEAKER ASM                   M IMCTM S7FL05 FTTL  07070IMCT  S7 PTB  00004                    0310 SR        000000000000 FUJITSU TEN (THAILAN16049JR0010   16049JR0011   R160702701    R160702702    000000                                                                              *R         20160713RDF1607134.TXT
