REC2016070620160706ISUZU                              49     
MDDDG7209986201607                D89821984430PT1D20160711000030RADIO;AM/FM,CD                M IMCTM S5NC06 FTTL  07070IMCT  S5 PTB  00005                    2230 SR        000000000000 FUJITSU TEN (THAILAN160JXAL0170170                                                                                                                              *          20160706IMF1607064.TXT
MDDDG7209987201607                D89821984430PT1D20160712000030RADIO;AM/FM,CD                M IMCTM S5NC06 FTTL  07070IMCT  S5 PTB  00005                    0310 SR        000000000000 FUJITSU TEN (THAILAN160JYPL0104104                                                                                                                              *          20160706IMF1607064.TXT
MDDDG7209988201607                D89821984430PT1D20160712000030RADIO;AM/FM,CD                M IMCTM S5NC06 FTTL  07070IMCT  S5 PTB  00005                    1000 SR        000000000000 FUJITSU TEN (THAILAN160JXEL0083083                                                                                                                              *          20160706IMF1607064.TXT
MDDDG7209989201607                D89821984430PT1D20160712000030RADIO;AM/FM,CD                M IMCTM S5NC06 FTTL  07070IMCT  S5 PTB  00005                    1510 SR        000000000000 FUJITSU TEN (THAILAN160JNGL0067067                                                                                                                              *          20160706IMF1607064.TXT
MDDDG7209990201607                D89828070100PV1D20160711000060SPEAKER ASM                   M IMCTM S5MA12 FTTL  07070IMCT  S5 PTB  00004                    1510 SR        000000000000 FUJITSU TEN (THAILAN160JXAL0170170                                                                                                                              *          20160706IMF1607064.TXT
MDDDG7209991201607                D89828070100PV1D20160712000060SPEAKER ASM                   M IMCTM S5MA12 FTTL  07070IMCT  S5 PTB  00004                    0310 SR        000000000000 FUJITSU TEN (THAILAN160JYPL0104104                                                                                                                              *          20160706IMF1607064.TXT
MDDDG7209992201607                D89828070100PV1D20160712000120SPEAKER ASM                   M IMCTM S5MA12 FTTL  07070IMCT  S5 PTB  00004                    1000 SR        000000000000 FUJITSU TEN (THAILAN160JXEL0083083160JZEL0009009                                                                                                                *          20160706IMF1607064.TXT
MDDDG7209993201607                D89828070100PV1D20160712000060SPEAKER ASM                   M IMCTM S5MA12 FTTL  07070IMCT  S5 PTB  00004                    1510 SR        000000000000 FUJITSU TEN (THAILAN160JNGL0067067                                                                                                                              *          20160706IMF1607064.TXT
MDDDG7209994201607                D89828070200PV1D20160712000060SPEAKER ASM                   M IMCTM S5MA13 FTTL  07070IMCT  S5 PTB  00005                    1000 SR        000000000000 FUJITSU TEN (THAILAN160JZEL0009009                                                                                                                              *          20160706IMF1607064.TXT
MDDDG7209995201607                D89828070300PT1D20160712000060SPEAKER ASM                   M IMCTM S5NB042FTTL  07070IMCT  S5 PTB  00015                    1000 SR        000000000000 FUJITSU TEN (THAILAN160JZEL0009009                                                                                                                              *          20160706IMF1607064.TXT
MDDDG7209996201607                D89831228400PT1D20160712000030RADIO;AM/FM,CD                M IMCTM S5NC06 FTTL  07070IMCT  S5 CPB  00003                    1000 SR        000000000000 FUJITSU TEN (THAILAN160JZEL0009009                                                                                                                              *          20160706IMF1607064.TXT
MDEDG7224214201607                D89805293700PV1D20160711000120SPEAKER ASM                   M IMCTM S5MA12 FTTL  07070IMCT  S5 PTB  00003                    2230 SR        000000000000 FUJITSU TEN (THAILAN15019FL008909015076DL0014015                                                                                                                *          20160706IMF1607064.TXT
MDEDG7224215201607                D89805293700PV1D20160712000060SPEAKER ASM                   M IMCTM S5MA12 FTTL  07070IMCT  S5 PTB  00003                    0310 SR        000000000000 FUJITSU TEN (THAILAN15080DL0003004                                                                                                                              *          20160706IMF1607064.TXT
MDEDG7224216201607                D89805293700PV1D20160712000060SPEAKER ASM                   M IMCTM S5MA12 FTTL  07070IMCT  S5 PTB  00003                    1000 SR        000000000000 FUJITSU TEN (THAILAN15019FL0091092                                                                                                                              *          20160706IMF1607064.TXT
MDEDG7224217201607                D89805293700PV1D20160712000060SPEAKER ASM                   M IMCTM S5MA12 FTTL  07070IMCT  S5 PTB  00003                    1510 SR        000000000000 FUJITSU TEN (THAILAN15080DL0005006                                                                                                                              *          20160706IMF1607064.TXT
MDEDG7224218201607                D89805293700PV4D20160711000030SPEAKER ASM                   M IMCTM S0FR05 FTTL  07070IMCT  S0 PTB  00003                    2300 SR        000000000000 FUJITSU TEN (THAILAN15076DU0007007                                                                                                                              *          20160706IMF1607064.TXT
MDEDG7224219201607                D89805293700PV4D20160712000030SPEAKER ASM                   M IMCTM S0FR05 FTTL  07070IMCT  S0 PTB  00003                    1100 SR        000000000000 FUJITSU TEN (THAILAN15076DU0008008                                                                                                                              *          20160706IMF1607064.TXT
MDEDG7224220201607                D89805294000PT1D20160712000060SPEAKER ASM                   M IMCTM S5NB042FTTL  07070IMCT  S5 PTB  00015                    0310 SR        000000000000 FUJITSU TEN (THAILAN15080DL0003004                                                                                                                              *          20160706IMF1607064.TXT
MDEDG7224221201607                D89805294000PT1D20160712000060SPEAKER ASM                   M IMCTM S5NB042FTTL  07070IMCT  S5 PTB  00015                    1510 SR        000000000000 FUJITSU TEN (THAILAN15080DL0005006                                                                                                                              *          20160706IMF1607064.TXT
MDEDG7224222201607                D89805294200PT1D20160712000060SPEAKER ASM                   M IMCTM S5AS011FTTL  07070IMCT  S6 PTB  00030                    0310 SR        000000000000 FUJITSU TEN (THAILAN15080DL0003004                                                                                                                              *          20160706IMF1607064.TXT
MDEDG7224223201607                D89805294200PT1D20160712000060SPEAKER ASM                   M IMCTM S5AS011FTTL  07070IMCT  S6 PTB  00030                    1510 SR        000000000000 FUJITSU TEN (THAILAN15080DL0005006                                                                                                                              *          20160706IMF1607064.TXT
MDEDG7224224201607                D89806470400PT1D20160712000030SPEAKER ASM;RDO,              M IMCTM S5EA18 FTTL  07070IMCT  S6 PTB  00015                    0310 SR        000000000000 FUJITSU TEN (THAILAN15080DL0003004                                                                                                                              *          20160706IMF1607064.TXT
MDEDG7224225201607                D89806470400PT1D20160712000030SPEAKER ASM;RDO,              M IMCTM S5EA18 FTTL  07070IMCT  S6 PTB  00015                    1510 SR        000000000000 FUJITSU TEN (THAILAN15080DL0005006                                                                                                                              *          20160706IMF1607064.TXT
MDEDG7224226201607                D89824360220PT1D20160712000030RADIO;AM/FM,CD                M IMCTM S5NC06 FTTL  07070IMCT  S5 CPB  00003                    0310 SR        000000000000 FUJITSU TEN (THAILAN15080DL0003004                                                                                                                              *          20160706IMF1607064.TXT
MDEDG7224227201607                D89824360220PT1D20160712000030RADIO;AM/FM,CD                M IMCTM S5NC06 FTTL  07070IMCT  S5 CPB  00003                    1510 SR        000000000000 FUJITSU TEN (THAILAN15080DL0005006                                                                                                                              *          20160706IMF1607064.TXT
MDEDG7224228201607                D89828070100PV1D20160712000060SPEAKER ASM                   M IMCTM S5MA12 FTTL  07070IMCT  S5 PTB  00004                    0310 SR        000000000000 FUJITSU TEN (THAILAN16007JL0036037                                                                                                                              *          20160706IMF1607064.TXT
MDEDG7224229201607                D89828070100PV1D20160712000030SPEAKER ASM                   M IMCTM S5MA12 FTTL  07070IMCT  S5 PTB  00004                    1000 SR        000000000000 FUJITSU TEN (THAILAN16081HL0095095                                                                                                                              *          20160706IMF1607064.TXT
MDEDG7224230201607                D89828070100PV1D20160712000030SPEAKER ASM                   M IMCTM S5MA12 FTTL  07070IMCT  S5 PTB  00004                    1510 SR        000000000000 FUJITSU TEN (THAILAN16049HL0007007                                                                                                                              *          20160706IMF1607064.TXT
MDEDG7224231201607                D89828070200PV1D20160712000030SPEAKER ASM                   M IMCTM S5MA13 FTTL  07070IMCT  S5 PTB  00005                    1510 SR        000000000000 FUJITSU TEN (THAILAN16049HL0007007                                                                                                                              *          20160706IMF1607064.TXT
MDEDG7224232201607                D89828070300PT1D20160712000030SPEAKER ASM                   M IMCTM S5NB042FTTL  07070IMCT  S5 PTB  00015                    1510 SR        000000000000 FUJITSU TEN (THAILAN16049HL0007007                                                                                                                              *          20160706IMF1607064.TXT
MDEDG7224233201607                D89831228600PT1D20160712000015RADIO;AM/FM,CD                M IMCTM S5NC06 FTTL  07070IMCT  S5 PTB  00003                    1510 SR        000000000000 FUJITSU TEN (THAILAN16049HL0007007                                                                                                                              *          20160706IMF1607064.TXT
MDEUG7214249201607                D89828070100PT4U20160711000030SPEAKER ASM                   M IMCTM S0FL05 FTTL  07070IMCT  S0 PTB  00004                    2030 SR        000000000000 FUJITSU TEN (THAILAN160B48U0199199                                                                                                                              *          20160706IMF1607064.TXT
MDEUG7214250201607                D89828070100PT4U20160712000030SPEAKER ASM                   M IMCTM S0FL05 FTTL  07070IMCT  S0 PTB  00004                    0310 SR        000000000000 FUJITSU TEN (THAILAN160B45U0031031                                                                                                                              *          20160706IMF1607064.TXT
MDEUG7214251201607                D89828070100PT4U20160712000030SPEAKER ASM                   M IMCTM S0FL05 FTTL  07070IMCT  S0 PTB  00004                    0800 SR        000000000000 FUJITSU TEN (THAILAN160B48U0200200                                                                                                                              *          20160706IMF1607064.TXT
MDEUG7214252201607                D89828070100PT4U20160712000060SPEAKER ASM                   M IMCTM S0FL05 FTTL  07070IMCT  S0 PTB  00004                    1100 SR        000000000000 FUJITSU TEN (THAILAN160B37U0026026160B42U0060060                                                                                                                *          20160706IMF1607064.TXT
MDEUG7214253201607                D89828070100PT4U20160712000030SPEAKER ASM                   M IMCTM S0FL05 FTTL  07070IMCT  S0 PTB  00004                    1510 SR        000000000000 FUJITSU TEN (THAILAN160B41U0039039                                                                                                                              *          20160706IMF1607064.TXT
MDEUG7214254201607                D89828070100PT4U20160712000060SPEAKER ASM                   M IMCTM S0FL05 FTTL  07070IMCT  S0 PTB  00004                    2030 SR        000000000000 FUJITSU TEN (THAILAN160B48U0201202                                                                                                                              *          20160706IMF1607064.TXT
MDEUG7214255201607                D89828070200PV4U20160711000030SPEAKER ASM                   M IMCTM S0FR05 FTTL  07070IMCT  S0 PTB  00005                    2030 SR        000000000000 FUJITSU TEN (THAILAN160B48U0199199                                                                                                                              *          20160706IMF1607064.TXT
MDEUG7214256201607                D89828070200PV4U20160712000030SPEAKER ASM                   M IMCTM S0FR05 FTTL  07070IMCT  S0 PTB  00005                    0310 SR        000000000000 FUJITSU TEN (THAILAN160B45U0031031                                                                                                                              *          20160706IMF1607064.TXT
MDEUG7214257201607                D89828070200PV4U20160712000030SPEAKER ASM                   M IMCTM S0FR05 FTTL  07070IMCT  S0 PTB  00005                    0800 SR        000000000000 FUJITSU TEN (THAILAN160B48U0200200                                                                                                                              *          20160706IMF1607064.TXT
MDEUG7214258201607                D89828070200PV4U20160712000060SPEAKER ASM                   M IMCTM S0FR05 FTTL  07070IMCT  S0 PTB  00005                    1100 SR        000000000000 FUJITSU TEN (THAILAN160B37U0026026160B42U0060060                                                                                                                *          20160706IMF1607064.TXT
MDEUG7214259201607                D89828070200PV4U20160712000030SPEAKER ASM                   M IMCTM S0FR05 FTTL  07070IMCT  S0 PTB  00005                    1510 SR        000000000000 FUJITSU TEN (THAILAN160B41U0039039                                                                                                                              *          20160706IMF1607064.TXT
MDEUG7214260201607                D89828070200PV4U20160712000060SPEAKER ASM                   M IMCTM S0FR05 FTTL  07070IMCT  S0 PTB  00005                    2030 SR        000000000000 FUJITSU TEN (THAILAN160B48U0201202                                                                                                                              *          20160706IMF1607064.TXT
MDEUG7214261201607                D89828070300PT4U20160711000030SPEAKER ASM                   M IMCTM S9TS02 FTTL  07070IMCT  S9 PTB  00015                    2030 SR        000000000000 FUJITSU TEN (THAILAN160B48U0199199                                                                                                                              *          20160706IMF1607064.TXT
MDEUG7214262201607                D89828070300PT4U20160712000030SPEAKER ASM                   M IMCTM S9TS02 FTTL  07070IMCT  S9 PTB  00015                    0310 SR        000000000000 FUJITSU TEN (THAILAN160B45U0031031                                                                                                                              *          20160706IMF1607064.TXT
MDEUG7214263201607                D89828070300PT4U20160712000030SPEAKER ASM                   M IMCTM S9TS02 FTTL  07070IMCT  S9 PTB  00015                    0800 SR        000000000000 FUJITSU TEN (THAILAN160B48U0200200                                                                                                                              *          20160706IMF1607064.TXT
MDEUG7214264201607                D89828070300PT4U20160712000060SPEAKER ASM                   M IMCTM S9TS02 FTTL  07070IMCT  S9 PTB  00015                    1100 SR        000000000000 FUJITSU TEN (THAILAN160B37U0026026160B42U0060060                                                                                                                *          20160706IMF1607064.TXT
MDEUG7214265201607                D89828070300PT4U20160712000030SPEAKER ASM                   M IMCTM S9TS02 FTTL  07070IMCT  S9 PTB  00015                    1510 SR        000000000000 FUJITSU TEN (THAILAN160B41U0039039                                                                                                                              *          20160706IMF1607064.TXT
MDEUG7214266201607                D89828070300PT4U20160712000060SPEAKER ASM                   M IMCTM S9TS02 FTTL  07070IMCT  S9 PTB  00015                    2030 SR        000000000000 FUJITSU TEN (THAILAN160B48U0201202                                                                                                                              *          20160706IMF1607064.TXT
