REC2016071220160712ISUZU                              3      
MDEFG7T06637201607                D89805293700PV4F20160715000018SPEAKER ASM                   M IMCTM S7FR05 FTTL  07070IMCT  S7 PTB  00003                    2300 SR        000000000000 FUJITSU TEN (THAILAN15004DR0109   15010DR0134   F160702407    F160702415    000000                                                                              *R         20160712RDF1607124.TXT
MDEFG7T06638201607                D89805294000PT4F20160715000010SPEAKER ASM                   M IMCTM S7TS02 FTTL  07070IMCT  S7 PTB  00015                    2300 SR        000000000000 FUJITSU TEN (THAILAN15010DR0130   15010DR0134   F160702411    F160702415    000000                                                                              *R         20160712RDF1607124.TXT
MDEFG7214239201607                D89805293700PV4F20160715000012SPEAKER ASM                   M IMCTM S7FR05 FTTL  07070IMCT  S7 PTB  00003                    2030 SR        000000000000 FUJITSU TEN (THAILAN15004DR0103   15004DR0108   F160702401    F160702406    000000                                                                              *R         20160712RDF1607124.TXT
