REC2016072120160722ISUZU                              18     
MAKK67094415201607D4               89805293700P3YK20160801000180SPEAKER ASM                   M IMCTM CM1    FTTL  07070IMKDC 01   PTB00003  K0                1621DES        000000000000 FUJITSU TEN (THAILAN                                                                                                                                            *G         20160721IMF1607216.TXT
MAKK67094416201607D4               89805293700P3YK20160802000120SPEAKER ASM                   M IMCTM CM1    FTTL  07070IMKDC 01   PTB00003  K0                1621DES        000000000000 FUJITSU TEN (THAILAN                                                                                                                                            *G         20160721IMF1607216.TXT
MAKK67094417201607D4               89805293700P3YK20160803000030SPEAKER ASM                   M IMCTM CM1    FTTL  07070IMKDC 01   PTB00003  K0                1621DES        000000000000 FUJITSU TEN (THAILAN                                                                                                                                            *G         20160721IMF1607216.TXT
MAKK67094418201607D4               89805293700P3YK20160804000150SPEAKER ASM                   M IMCTM CM1    FTTL  07070IMKDC 01   PTB00003  K0                1621DES        000000000000 FUJITSU TEN (THAILAN                                                                                                                                            *G         20160721IMF1607216.TXT
MAKK67094419201607D4               89805293700P3YK20160805000090SPEAKER ASM                   M IMCTM CM1    FTTL  07070IMKDC 01   PTB00003  K0                1621DES        000000000000 FUJITSU TEN (THAILAN                                                                                                                                            *G         20160721IMF1607216.TXT
MAKK67094420201607D4               89805293700P3YK20160806000090SPEAKER ASM                   M IMCTM CM1    FTTL  07070IMKDC 01   PTB00003  K0                1621DES        000000000000 FUJITSU TEN (THAILAN                                                                                                                                            *G         20160721IMF1607216.TXT
MAKK67094421201607D4               89805294000P3YK20160801000060SPEAKER ASM                   M IMCTM CM1    FTTL  07070IMKDC 01   PTB00015  K0                1621DES        000000000000 FUJITSU TEN (THAILAN                                                                                                                                            *G         20160721IMF1607216.TXT
MAKK67094422201607D4               89805294000P3YK20160802000030SPEAKER ASM                   M IMCTM CM1    FTTL  07070IMKDC 01   PTB00015  K0                1621DES        000000000000 FUJITSU TEN (THAILAN                                                                                                                                            *G         20160721IMF1607216.TXT
MAKK67094423201607D4               89805294000P3YK20160804000060SPEAKER ASM                   M IMCTM CM1    FTTL  07070IMKDC 01   PTB00015  K0                1621DES        000000000000 FUJITSU TEN (THAILAN                                                                                                                                            *G         20160721IMF1607216.TXT
MAKK67094424201607D4               89805294100P3YK20160801000060SPEAKER ASM                   M IMCTM CM1    FTTL  07070IMKDC 01   PTB00005  K0                1621DES        000000000000 FUJITSU TEN (THAILAN                                                                                                                                            *G         20160721IMF1607216.TXT
MAKK67094425201607D4               89805294100P3YK20160802000030SPEAKER ASM                   M IMCTM CM1    FTTL  07070IMKDC 01   PTB00005  K0                1621DES        000000000000 FUJITSU TEN (THAILAN                                                                                                                                            *G         20160721IMF1607216.TXT
MAKK67094426201607D4               89805294100P3YK20160804000060SPEAKER ASM                   M IMCTM CM1    FTTL  07070IMKDC 01   PTB00005  K0                1621DES        000000000000 FUJITSU TEN (THAILAN                                                                                                                                            *G         20160721IMF1607216.TXT
MAKK67094427201607D4               89824135720P3YK20160801000030RADIO;AM/FM,CD,F              M IMCTM CM1    FTTL  07070IMKDC 01 PTB  00003  K0                1621DES        000000000000 FUJITSU TEN (THAILAN                                                                                                                                            *G         20160721IMF1607216.TXT
MAKK67094428201607D4               89828070100P3YK20160803000180SPEAKER ASM                   M IMCTM CM1    FTTL  07070IMKDC 01 PTB  00003  K0                1621DES        000000000000 FUJITSU TEN (THAILAN                                                                                                                                            *G         20160721IMF1607216.TXT
MAKK67094429201607D4               89828070100P3YK20160806000060SPEAKER ASM                   M IMCTM CM1    FTTL  07070IMKDC 01 PTB  00003  K0                1621DES        000000000000 FUJITSU TEN (THAILAN                                                                                                                                            *G         20160721IMF1607216.TXT
MAKK67094430201607D4               89828070200P3YK20160803000090SPEAKER ASM                   M IMCTM CM1    FTTL  07070IMKDC 01 PTB  00005  K0                1621DES        000000000000 FUJITSU TEN (THAILAN                                                                                                                                            *G         20160721IMF1607216.TXT
MAKK67094431201607D4               89828070300P3YK20160803000090SPEAKER ASM                   M IMCTM CM1    FTTL  07070IMKDC 01 PTB  00015  K0                1621DES        000000000000 FUJITSU TEN (THAILAN                                                                                                                                            *G         20160721IMF1607216.TXT
MAKK67094432201607D4               89831228800P3YK20160803000090RADIO;AM/FM,CD                M IMCTM CM1    FTTL  07070IMKDC 01 CPB  00005  K0                1621DES        000000000000 FUJITSU TEN (THAILAN                                                                                                                                            *G         20160721IMF1607216.TXT
