REC2016071520160715ISUZU                              47     
MDDDG7232820201607                D89821984430PT1D20160721000060RADIO;AM/FM,CD                M IMCTM S5NC06 FTTL  07070IMCT  S5 PTB  00005                    2230 SR        000000000000 FUJITSU TEN (THAILAN160JXEL0084085                                                                                                                              *          20160715IMF1607157.TXT
MDDDG7232821201607                D89821984430PT1D20160722000030RADIO;AM/FM,CD                M IMCTM S5NC06 FTTL  07070IMCT  S5 PTB  00005                    0310 SR        000000000000 FUJITSU TEN (THAILAN160JXAL0179179                                                                                                                              *          20160715IMF1607157.TXT
MDDDG7232822201607                D89821984430PT1D20160722000060RADIO;AM/FM,CD                M IMCTM S5NC06 FTTL  07070IMCT  S5 PTB  00005                    1000 SR        000000000000 FUJITSU TEN (THAILAN160JXAL0180180160JXEL0086086                                                                                                                *          20160715IMF1607157.TXT
MDDDG7232823201607                D89821984430PT1D20160722000030RADIO;AM/FM,CD                M IMCTM S5NC06 FTTL  07070IMCT  S5 PTB  00005                    1510 SR        000000000000 FUJITSU TEN (THAILAN160JNGL0069069                                                                                                                              *          20160715IMF1607157.TXT
MDDDG7232824201607                D89821984430PT4D20160721000030RADIO;AM/FM,CD                M IMCTM S9CO001FTTL  07070IMCT  S9 PTB  00005                    2300 SR        000000000000 FUJITSU TEN (THAILAN160JNGU0002002                                                                                                                              *          20160715IMF1607157.TXT
MDDDG7232825201607                D89828070100PV1D20160721000120SPEAKER ASM                   M IMCTM S5MA12 FTTL  07070IMCT  S5 PTB  00004                    2230 SR        000000000000 FUJITSU TEN (THAILAN160JXEL0084085                                                                                                                              *          20160715IMF1607157.TXT
MDDDG7232826201607                D89828070100PV1D20160722000060SPEAKER ASM                   M IMCTM S5MA12 FTTL  07070IMCT  S5 PTB  00004                    0310 SR        000000000000 FUJITSU TEN (THAILAN160JXAL0179179                                                                                                                              *          20160715IMF1607157.TXT
MDDDG7232827201607                D89828070100PV1D20160722000120SPEAKER ASM                   M IMCTM S5MA12 FTTL  07070IMCT  S5 PTB  00004                    1000 SR        000000000000 FUJITSU TEN (THAILAN160JXAL0180180160JXEL0086086                                                                                                                *          20160715IMF1607157.TXT
MDDDG7232828201607                D89828070100PV1D20160722000120SPEAKER ASM                   M IMCTM S5MA12 FTTL  07070IMCT  S5 PTB  00004                    1510 SR        000000000000 FUJITSU TEN (THAILAN160JNGL0069069160JZJL0026026                                                                                                                *          20160715IMF1607157.TXT
MDDDG7232829201607                D89828070100PV4D20160721000060SPEAKER ASM                   M IMCTM S0FL05 FTTL  07070IMCT  S0 PTB  00004                    2300 SR        000000000000 FUJITSU TEN (THAILAN160JNGU0002002                                                                                                                              *          20160715IMF1607157.TXT
MDDDG7232830201607                D89828070200PV1D20160722000060SPEAKER ASM                   M IMCTM S5MA13 FTTL  07070IMCT  S5 PTB  00005                    1510 SR        000000000000 FUJITSU TEN (THAILAN160JZJL0026026                                                                                                                              *          20160715IMF1607157.TXT
MDDDG7232831201607                D89828070300PT1D20160722000060SPEAKER ASM                   M IMCTM S5NB042FTTL  07070IMCT  S5 PTB  00015                    1510 SR        000000000000 FUJITSU TEN (THAILAN160JZJL0026026                                                                                                                              *          20160715IMF1607157.TXT
MDDUG7217420201607                D89828070100PT4U20160722000030SPEAKER ASM                   M IMCTM S0FL05 FTTL  07070IMCT  S0 PTB  00004                    1100 SR        000000000000 FUJITSU TEN (THAILAN160JURU0036036                                                                                                                              *          20160715IMF1607157.TXT
MDDUG7217421201607                D89828070200PV4U20160722000030SPEAKER ASM                   M IMCTM S0FR05 FTTL  07070IMCT  S0 PTB  00005                    1100 SR        000000000000 FUJITSU TEN (THAILAN160JURU0036036                                                                                                                              *          20160715IMF1607157.TXT
MDDUG7217422201607                D89828070300PT4U20160722000030SPEAKER ASM                   M IMCTM S9TS02 FTTL  07070IMCT  S9 PTB  00015                    1100 SR        000000000000 FUJITSU TEN (THAILAN160JURU0036036                                                                                                                              *          20160715IMF1607157.TXT
MDDUG7217423201607                D89829093500PT4U20160722000015RADIO;ASM DVD (T              M IMCTM S9CO001FTTL  07070IMCT  S9 PTB  00003                    1100 SR        000000000000 FUJITSU TEN (THAILAN160JURU0036036                                                                                                                              *          20160715IMF1607157.TXT
MDEDG7277351201607                D89828070100PV1D20160721000030SPEAKER ASM                   M IMCTM S5MA12 FTTL  07070IMCT  S5 PTB  00004                    1510 SR        000000000000 FUJITSU TEN (THAILAN16051HL0004004                                                                                                                              *          20160715IMF1607157.TXT
MDEDG7277352201607                D89828070100PV1D20160721000030SPEAKER ASM                   M IMCTM S5MA12 FTTL  07070IMCT  S5 PTB  00004                    2230 SR        000000000000 FUJITSU TEN (THAILAN16051HL0005005                                                                                                                              *          20160715IMF1607157.TXT
MDEDG7277353201607                D89828070100PV1D20160722000120SPEAKER ASM                   M IMCTM S5MA12 FTTL  07070IMCT  S5 PTB  00004                    0310 SR        000000000000 FUJITSU TEN (THAILAN16046HL000100216057HL0004005                                                                                                                *          20160715IMF1607157.TXT
MDEDG7277354201607                D89828070100PV1D20160722000090SPEAKER ASM                   M IMCTM S5MA12 FTTL  07070IMCT  S5 PTB  00004                    1000 SR        000000000000 FUJITSU TEN (THAILAN16051HL000600616071HL0008009                                                                                                                *          20160715IMF1607157.TXT
MDEDG7277355201607                D89828070100PV1D20160722000030SPEAKER ASM                   M IMCTM S5MA12 FTTL  07070IMCT  S5 PTB  00004                    1510 SR        000000000000 FUJITSU TEN (THAILAN16081HL0104104                                                                                                                              *          20160715IMF1607157.TXT
MDEDG7277356201607                D89828070100PV4D20160722000030SPEAKER ASM                   M IMCTM S0FL05 FTTL  07070IMCT  S0 PTB  00004                    1510 SR        000000000000 FUJITSU TEN (THAILAN16072HU0031031                                                                                                                              *          20160715IMF1607157.TXT
MDEDG7277357201607                D89828070200PV1D20160721000030SPEAKER ASM                   M IMCTM S5MA13 FTTL  07070IMCT  S5 PTB  00005                    1510 SR        000000000000 FUJITSU TEN (THAILAN16051HL0004004                                                                                                                              *          20160715IMF1607157.TXT
MDEDG7277358201607                D89828070200PV1D20160721000030SPEAKER ASM                   M IMCTM S5MA13 FTTL  07070IMCT  S5 PTB  00005                    2230 SR        000000000000 FUJITSU TEN (THAILAN16051HL0005005                                                                                                                              *          20160715IMF1607157.TXT
MDEDG7277359201607                D89828070200PV1D20160722000060SPEAKER ASM                   M IMCTM S5MA13 FTTL  07070IMCT  S5 PTB  00005                    0310 SR        000000000000 FUJITSU TEN (THAILAN16046HL0001002                                                                                                                              *          20160715IMF1607157.TXT
MDEDG7277360201607                D89828070200PV1D20160722000090SPEAKER ASM                   M IMCTM S5MA13 FTTL  07070IMCT  S5 PTB  00005                    1000 SR        000000000000 FUJITSU TEN (THAILAN16051HL000600616071HL0008009                                                                                                                *          20160715IMF1607157.TXT
MDEDG7277361201607                D89828070200PV4D20160722000030SPEAKER ASM                   M IMCTM S0FR05 FTTL  07070IMCT  S0 PTB  00005                    1510 SR        000000000000 FUJITSU TEN (THAILAN16072HU0031031                                                                                                                              *          20160715IMF1607157.TXT
MDEDG7277362201607                D89828070300PT1D20160721000030SPEAKER ASM                   M IMCTM S5NB042FTTL  07070IMCT  S5 PTB  00015                    1510 SR        000000000000 FUJITSU TEN (THAILAN16051HL0004004                                                                                                                              *          20160715IMF1607157.TXT
MDEDG7277363201607                D89828070300PT1D20160721000030SPEAKER ASM                   M IMCTM S5NB042FTTL  07070IMCT  S5 PTB  00015                    2230 SR        000000000000 FUJITSU TEN (THAILAN16051HL0005005                                                                                                                              *          20160715IMF1607157.TXT
MDEDG7277364201607                D89828070300PT1D20160722000120SPEAKER ASM                   M IMCTM S5NB042FTTL  07070IMCT  S5 PTB  00015                    0310 SR        000000000000 FUJITSU TEN (THAILAN16046HL000100216057HL0004005                                                                                                                *          20160715IMF1607157.TXT
MDEDG7277365201607                D89828070300PT1D20160722000090SPEAKER ASM                   M IMCTM S5NB042FTTL  07070IMCT  S5 PTB  00015                    1000 SR        000000000000 FUJITSU TEN (THAILAN16051HL000600616071HL0008009                                                                                                                *          20160715IMF1607157.TXT
MDEDG7277366201607                D89828070300PT4D20160722000030SPEAKER ASM                   M IMCTM S9TS02 FTTL  07070IMCT  S9 PTB  00015                    1510 SR        000000000000 FUJITSU TEN (THAILAN16072HU0031031                                                                                                                              *          20160715IMF1607157.TXT
MDEDG7277367201607                D89831228500PT1D20160722000030RADIO;AM/FM,CD                M IMCTM S5NC06 FTTL  07070IMCT  S5 PTB  00003                    0310 SR        000000000000 FUJITSU TEN (THAILAN16057HL0004005                                                                                                                              *          20160715IMF1607157.TXT
MDEDG7277368201607                D89831228600PT1D20160722000030RADIO;AM/FM,CD                M IMCTM S5NC06 FTTL  07070IMCT  S5 PTB  00003                    0310 SR        000000000000 FUJITSU TEN (THAILAN16046HL0001002                                                                                                                              *          20160715IMF1607157.TXT
MDEDG7277369201607                D89831228600PT1D20160722000030RADIO;AM/FM,CD                M IMCTM S5NC06 FTTL  07070IMCT  S5 PTB  00003                    1000 SR        000000000000 FUJITSU TEN (THAILAN16071HL0008009                                                                                                                              *          20160715IMF1607157.TXT
MDEUG7246088201607                D89828070100PT4U20160721000060SPEAKER ASM                   M IMCTM S0FL05 FTTL  07070IMCT  S0 PTB  00004                    2300 SR        000000000000 FUJITSU TEN (THAILAN160B37U0031031160B48U0227227                                                                                                                *          20160715IMF1607157.TXT
MDEUG7246089201607                D89828070100PT4U20160722000060SPEAKER ASM                   M IMCTM S0FL05 FTTL  07070IMCT  S0 PTB  00004                    0800 SR        000000000000 FUJITSU TEN (THAILAN160B37U0032032160B53U0003003                                                                                                                *          20160715IMF1607157.TXT
MDEUG7246090201607                D89828070100PT4U20160722000060SPEAKER ASM                   M IMCTM S0FL05 FTTL  07070IMCT  S0 PTB  00004                    1510 SR        000000000000 FUJITSU TEN (THAILAN160B37U0033033160B48U0228228                                                                                                                *          20160715IMF1607157.TXT
MDEUG7246091201607                D89828070100PT4U20160722000030SPEAKER ASM                   M IMCTM S0FL05 FTTL  07070IMCT  S0 PTB  00004                    2030 SR        000000000000 FUJITSU TEN (THAILAN160B48U0229229                                                                                                                              *          20160715IMF1607157.TXT
MDEUG7246092201607                D89828070200PV4U20160721000060SPEAKER ASM                   M IMCTM S0FR05 FTTL  07070IMCT  S0 PTB  00005                    2300 SR        000000000000 FUJITSU TEN (THAILAN160B37U0031031160B48U0227227                                                                                                                *          20160715IMF1607157.TXT
MDEUG7246093201607                D89828070200PV4U20160722000060SPEAKER ASM                   M IMCTM S0FR05 FTTL  07070IMCT  S0 PTB  00005                    0800 SR        000000000000 FUJITSU TEN (THAILAN160B37U0032032160B53U0003003                                                                                                                *          20160715IMF1607157.TXT
MDEUG7246094201607                D89828070200PV4U20160722000060SPEAKER ASM                   M IMCTM S0FR05 FTTL  07070IMCT  S0 PTB  00005                    1510 SR        000000000000 FUJITSU TEN (THAILAN160B37U0033033160B48U0228228                                                                                                                *          20160715IMF1607157.TXT
MDEUG7246095201607                D89828070200PV4U20160722000030SPEAKER ASM                   M IMCTM S0FR05 FTTL  07070IMCT  S0 PTB  00005                    2030 SR        000000000000 FUJITSU TEN (THAILAN160B48U0229229                                                                                                                              *          20160715IMF1607157.TXT
MDEUG7246096201607                D89828070300PT4U20160721000060SPEAKER ASM                   M IMCTM S9TS02 FTTL  07070IMCT  S9 PTB  00015                    2300 SR        000000000000 FUJITSU TEN (THAILAN160B37U0031031160B48U0227227                                                                                                                *          20160715IMF1607157.TXT
MDEUG7246097201607                D89828070300PT4U20160722000060SPEAKER ASM                   M IMCTM S9TS02 FTTL  07070IMCT  S9 PTB  00015                    0800 SR        000000000000 FUJITSU TEN (THAILAN160B37U0032032160B53U0003003                                                                                                                *          20160715IMF1607157.TXT
MDEUG7246098201607                D89828070300PT4U20160722000060SPEAKER ASM                   M IMCTM S9TS02 FTTL  07070IMCT  S9 PTB  00015                    1510 SR        000000000000 FUJITSU TEN (THAILAN160B37U0033033160B48U0228228                                                                                                                *          20160715IMF1607157.TXT
MDEUG7246099201607                D89828070300PT4U20160722000030SPEAKER ASM                   M IMCTM S9TS02 FTTL  07070IMCT  S9 PTB  00015                    2030 SR        000000000000 FUJITSU TEN (THAILAN160B48U0229229                                                                                                                              *          20160715IMF1607157.TXT
