REC2016070120160701ISUZU                              42     
MDDDG7201213201607                D89821984430PT1D20160707000030RADIO;AM/FM,CD                M IMCTM S5NC06 FTTL  07070IMCT  S5 PTB  00005                    0310 SR        000000000000 FUJITSU TEN (THAILAN160JXAL0167167                                                                                                                              *          20160701IMF1607016.TXT
MDDDG7201214201607                D89828070100PV1D20160707000060SPEAKER ASM                   M IMCTM S5MA12 FTTL  07070IMCT  S5 PTB  00004                    0310 SR        000000000000 FUJITSU TEN (THAILAN160JXAL0167167                                                                                                                              *          20160701IMF1607016.TXT
MDDDG7201215201607                D89828070100PV1D20160707000060SPEAKER ASM                   M IMCTM S5MA12 FTTL  07070IMCT  S5 PTB  00004                    1000 SR        000000000000 FUJITSU TEN (THAILAN160JXCL0062062                                                                                                                              *          20160701IMF1607016.TXT
MDEDG7201822201607                D89805293700PV1D20160706000120SPEAKER ASM                   M IMCTM S5MA12 FTTL  07070IMCT  S5 PTB  00003                    2230 SR        000000000000 FUJITSU TEN (THAILAN15018FL007007115030BL001301315081DL0017017                                                                                                  *          20160701IMF1607016.TXT
MDEDG7201823201607                D89805293700PV1D20160707000030SPEAKER ASM                   M IMCTM S5MA12 FTTL  07070IMCT  S5 PTB  00003                    1510 SR        000000000000 FUJITSU TEN (THAILAN15018FL0072072                                                                                                                              *          20160701IMF1607016.TXT
MDEDG7201824201607                D89805294000PT1D20160706000060SPEAKER ASM                   M IMCTM S5NB042FTTL  07070IMCT  S5 PTB  00015                    2230 SR        000000000000 FUJITSU TEN (THAILAN15030BL001301315081DL0017017                                                                                                                *          20160701IMF1607016.TXT
MDEDG7201825201607                D89805294100PV1D20160706000030SPEAKER ASM                   M IMCTM S5MB13 FTTL  07070IMCT  S5 PTB  00005                    2230 SR        000000000000 FUJITSU TEN (THAILAN15030BL0013013                                                                                                                              *          20160701IMF1607016.TXT
MDEDG7201826201607                D89805294200PT1D20160706000030SPEAKER ASM                   M IMCTM S5AS011FTTL  07070IMCT  S6 PTB  00030                    2230 SR        000000000000 FUJITSU TEN (THAILAN15081DL0017017                                                                                                                              *          20160701IMF1607016.TXT
MDEDG7201827201607                D89806470400PT1D20160706000015SPEAKER ASM;RDO,              M IMCTM S5EA18 FTTL  07070IMCT  S6 PTB  00015                    2230 SR        000000000000 FUJITSU TEN (THAILAN15081DL0017017                                                                                                                              *          20160701IMF1607016.TXT
MDEDG7201828201607                D89824360220PT1D20160706000015RADIO;AM/FM,CD                M IMCTM S5NC06 FTTL  07070IMCT  S5 CPB  00003                    2230 SR        000000000000 FUJITSU TEN (THAILAN15081DL0017017                                                                                                                              *          20160701IMF1607016.TXT
MDEDG7201829201607                D89828070100PV1D20160706000030SPEAKER ASM                   M IMCTM S5MA12 FTTL  07070IMCT  S5 PTB  00004                    1510 SR        000000000000 FUJITSU TEN (THAILAN16072LL0002002                                                                                                                              *          20160701IMF1607016.TXT
MDEDG7201830201607                D89828070100PV1D20160706000030SPEAKER ASM                   M IMCTM S5MA12 FTTL  07070IMCT  S5 PTB  00004                    2230 SR        000000000000 FUJITSU TEN (THAILAN16081HL0092092                                                                                                                              *          20160701IMF1607016.TXT
MDEDG7201831201607                D89828070100PV1D20160707000120SPEAKER ASM                   M IMCTM S5MA12 FTTL  07070IMCT  S5 PTB  00004                    0310 SR        000000000000 FUJITSU TEN (THAILAN16031KL000500516045HL000400416064HL0005006                                                                                                  *          20160701IMF1607016.TXT
MDEDG7201832201607                D89828070100PV1D20160707000120SPEAKER ASM                   M IMCTM S5MA12 FTTL  07070IMCT  S5 PTB  00004                    1000 SR        000000000000 FUJITSU TEN (THAILAN16044JL000300416045HL000500516075HL0015015                                                                                                  *          20160701IMF1607016.TXT
MDEDG7201833201607                D89828070100PV1D20160707000120SPEAKER ASM                   M IMCTM S5MA12 FTTL  07070IMCT  S5 PTB  00004                    1510 SR        000000000000 FUJITSU TEN (THAILAN16032JL000800916075HL0016017                                                                                                                *          20160701IMF1607016.TXT
MDEDG7201834201607                D89828070200PV1D20160707000090SPEAKER ASM                   M IMCTM S5MA13 FTTL  07070IMCT  S5 PTB  00005                    0310 SR        000000000000 FUJITSU TEN (THAILAN16031KL000500516064HL0005006                                                                                                                *          20160701IMF1607016.TXT
MDEDG7201835201607                D89828070200PV1D20160707000060SPEAKER ASM                   M IMCTM S5MA13 FTTL  07070IMCT  S5 PTB  00005                    1000 SR        000000000000 FUJITSU TEN (THAILAN16044JL0003004                                                                                                                              *          20160701IMF1607016.TXT
MDEDG7201836201607                D89828070300PT1D20160707000120SPEAKER ASM                   M IMCTM S5NB042FTTL  07070IMCT  S5 PTB  00015                    0310 SR        000000000000 FUJITSU TEN (THAILAN16031KL000500516045HL000400416064HL0005006                                                                                                  *          20160701IMF1607016.TXT
MDEDG7201837201607                D89828070300PT1D20160707000090SPEAKER ASM                   M IMCTM S5NB042FTTL  07070IMCT  S5 PTB  00015                    1000 SR        000000000000 FUJITSU TEN (THAILAN16044JL000300416045HL0005005                                                                                                                *          20160701IMF1607016.TXT
MDEDG7201838201607                D89829645400PT1D20160707000015RADIO;ASM DVD                 M IMCTM S5NC06 FTTL  07070IMCT  S5 PTB  00003                    0310 SR        000000000000 FUJITSU TEN (THAILAN16031KL0005005                                                                                                                              *          20160701IMF1607016.TXT
MDEDG7201839201607                D89831228600PT1D20160707000045RADIO;AM/FM,CD                M IMCTM S5NC06 FTTL  07070IMCT  S5 PTB  00003                    0310 SR        000000000000 FUJITSU TEN (THAILAN16045HL000400416064HL0005006                                                                                                                *          20160701IMF1607016.TXT
MDEDG7201840201607                D89831228600PT1D20160707000015RADIO;AM/FM,CD                M IMCTM S5NC06 FTTL  07070IMCT  S5 PTB  00003                    1000 SR        000000000000 FUJITSU TEN (THAILAN16045HL0005005                                                                                                                              *          20160701IMF1607016.TXT
MDEDG7201841201607                D89831229200PT1D20160707000030RADIO;AM/FM,CD                M IMCTM S5NC06 FTTL  07070IMCT  S5 PTB  00003                    1000 SR        000000000000 FUJITSU TEN (THAILAN16044JL0003004                                                                                                                              *          20160701IMF1607016.TXT
MDEUG7200813201607                D89828070100PT4U20160706000030SPEAKER ASM                   M IMCTM S0FL05 FTTL  07070IMCT  S0 PTB  00004                    2030 SR        000000000000 FUJITSU TEN (THAILAN160B42U0056056                                                                                                                              *          20160701IMF1607016.TXT
MDEUG7200814201607                D89828070100PT4U20160706000030SPEAKER ASM                   M IMCTM S0FL05 FTTL  07070IMCT  S0 PTB  00004                    2300 SR        000000000000 FUJITSU TEN (THAILAN160B46U0068068                                                                                                                              *          20160701IMF1607016.TXT
MDEUG7200815201607                D89828070100PT4U20160707000030SPEAKER ASM                   M IMCTM S0FL05 FTTL  07070IMCT  S0 PTB  00004                    0800 SR        000000000000 FUJITSU TEN (THAILAN160B46U0069069                                                                                                                              *          20160701IMF1607016.TXT
MDEUG7200816201607                D89828070100PT4U20160707000060SPEAKER ASM                   M IMCTM S0FL05 FTTL  07070IMCT  S0 PTB  00004                    1100 SR        000000000000 FUJITSU TEN (THAILAN160B48U0192192160B50U0002002                                                                                                                *          20160701IMF1607016.TXT
MDEUG7200817201607                D89828070100PT4U20160707000030SPEAKER ASM                   M IMCTM S0FL05 FTTL  07070IMCT  S0 PTB  00004                    1510 SR        000000000000 FUJITSU TEN (THAILAN160B48U0193193                                                                                                                              *          20160701IMF1607016.TXT
MDEUG7200818201607                D89828070100PT4U20160707000060SPEAKER ASM                   M IMCTM S0FL05 FTTL  07070IMCT  S0 PTB  00004                    2030 SR        000000000000 FUJITSU TEN (THAILAN160B35U0007007160B36U0014014                                                                                                                *          20160701IMF1607016.TXT
MDEUG7200819201607                D89828070200PV4U20160706000030SPEAKER ASM                   M IMCTM S0FR05 FTTL  07070IMCT  S0 PTB  00005                    2030 SR        000000000000 FUJITSU TEN (THAILAN160B42U0056056                                                                                                                              *          20160701IMF1607016.TXT
MDEUG7200820201607                D89828070200PV4U20160706000030SPEAKER ASM                   M IMCTM S0FR05 FTTL  07070IMCT  S0 PTB  00005                    2300 SR        000000000000 FUJITSU TEN (THAILAN160B46U0068068                                                                                                                              *          20160701IMF1607016.TXT
MDEUG7200821201607                D89828070200PV4U20160707000030SPEAKER ASM                   M IMCTM S0FR05 FTTL  07070IMCT  S0 PTB  00005                    0800 SR        000000000000 FUJITSU TEN (THAILAN160B46U0069069                                                                                                                              *          20160701IMF1607016.TXT
MDEUG7200822201607                D89828070200PV4U20160707000060SPEAKER ASM                   M IMCTM S0FR05 FTTL  07070IMCT  S0 PTB  00005                    1100 SR        000000000000 FUJITSU TEN (THAILAN160B48U0192192160B50U0002002                                                                                                                *          20160701IMF1607016.TXT
MDEUG7200823201607                D89828070200PV4U20160707000030SPEAKER ASM                   M IMCTM S0FR05 FTTL  07070IMCT  S0 PTB  00005                    1510 SR        000000000000 FUJITSU TEN (THAILAN160B48U0193193                                                                                                                              *          20160701IMF1607016.TXT
MDEUG7200824201607                D89828070200PV4U20160707000060SPEAKER ASM                   M IMCTM S0FR05 FTTL  07070IMCT  S0 PTB  00005                    2030 SR        000000000000 FUJITSU TEN (THAILAN160B35U0007007160B36U0014014                                                                                                                *          20160701IMF1607016.TXT
MDEUG7200825201607                D89828070300PT4U20160706000030SPEAKER ASM                   M IMCTM S9TS02 FTTL  07070IMCT  S9 PTB  00015                    2030 SR        000000000000 FUJITSU TEN (THAILAN160B42U0056056                                                                                                                              *          20160701IMF1607016.TXT
MDEUG7200826201607                D89828070300PT4U20160706000030SPEAKER ASM                   M IMCTM S9TS02 FTTL  07070IMCT  S9 PTB  00015                    2300 SR        000000000000 FUJITSU TEN (THAILAN160B46U0068068                                                                                                                              *          20160701IMF1607016.TXT
MDEUG7200827201607                D89828070300PT4U20160707000030SPEAKER ASM                   M IMCTM S9TS02 FTTL  07070IMCT  S9 PTB  00015                    0800 SR        000000000000 FUJITSU TEN (THAILAN160B46U0069069                                                                                                                              *          20160701IMF1607016.TXT
MDEUG7200828201607                D89828070300PT4U20160707000060SPEAKER ASM                   M IMCTM S9TS02 FTTL  07070IMCT  S9 PTB  00015                    1100 SR        000000000000 FUJITSU TEN (THAILAN160B48U0192192160B50U0002002                                                                                                                *          20160701IMF1607016.TXT
MDEUG7200829201607                D89828070300PT4U20160707000030SPEAKER ASM                   M IMCTM S9TS02 FTTL  07070IMCT  S9 PTB  00015                    1510 SR        000000000000 FUJITSU TEN (THAILAN160B48U0193193                                                                                                                              *          20160701IMF1607016.TXT
MDEUG7200830201607                D89828070300PT4U20160707000060SPEAKER ASM                   M IMCTM S9TS02 FTTL  07070IMCT  S9 PTB  00015                    2030 SR        000000000000 FUJITSU TEN (THAILAN160B35U0007007160B36U0014014                                                                                                                *          20160701IMF1607016.TXT
MDEUG7200831201607                D89831228600PT4U20160707000015RADIO;AM/FM,CD                M IMCTM S9CO001FTTL  07070IMCT  S9 PTB  00003                    2030 SR        000000000000 FUJITSU TEN (THAILAN160B35U0007007                                                                                                                              *          20160701IMF1607016.TXT
