REC2016072720160727ISUZU                              54     
MAKK67113201201607D4               89805293700P3YK20160808000090SPEAKER ASM                   M IMCTM CM1    FTTL  07070IMKDC 01   PTB00003  K0                1621DES        000000000000 FUJITSU TEN (THAILAN                                                                                                                                            *G         20160727IMF1607276.TXT
MAKK67113202201607D4               89805293700P3YK20160809000120SPEAKER ASM                   M IMCTM CM1    FTTL  07070IMKDC 01   PTB00003  K0                1621DES        000000000000 FUJITSU TEN (THAILAN                                                                                                                                            *G         20160727IMF1607276.TXT
MAKK67113203201607D4               89805293700P3YK20160810000090SPEAKER ASM                   M IMCTM CM1    FTTL  07070IMKDC 01   PTB00003  K0                1621DES        000000000000 FUJITSU TEN (THAILAN                                                                                                                                            *G         20160727IMF1607276.TXT
MAKK67113204201607D4               89805293700P3YK20160811000060SPEAKER ASM                   M IMCTM CM1    FTTL  07070IMKDC 01   PTB00003  K0                1621DES        000000000000 FUJITSU TEN (THAILAN                                                                                                                                            *G         20160727IMF1607276.TXT
MAKK67113205201607D4               89805293700P3YK20160816000030SPEAKER ASM                   M IMCTM CM1    FTTL  07070IMKDC 01   PTB00003  K0                1621DES        000000000000 FUJITSU TEN (THAILAN                                                                                                                                            *G         20160727IMF1607276.TXT
MAKK67113206201607D4               89805293700P3YK20160817000060SPEAKER ASM                   M IMCTM CM1    FTTL  07070IMKDC 01   PTB00003  K0                1621DES        000000000000 FUJITSU TEN (THAILAN                                                                                                                                            *G         20160727IMF1607276.TXT
MAKK67113207201607D4               89805293700P3YK20160818000030SPEAKER ASM                   M IMCTM CM1    FTTL  07070IMKDC 01   PTB00003  K0                1621DES        000000000000 FUJITSU TEN (THAILAN                                                                                                                                            *G         20160727IMF1607276.TXT
MAKK67113208201607D4               89805293700P3YK20160819000060SPEAKER ASM                   M IMCTM CM1    FTTL  07070IMKDC 01   PTB00003  K0                1621DES        000000000000 FUJITSU TEN (THAILAN                                                                                                                                            *G         20160727IMF1607276.TXT
MAKK67113209201607D4               89805293700P3YK20160820000150SPEAKER ASM                   M IMCTM CM1    FTTL  07070IMKDC 01   PTB00003  K0                1621DES        000000000000 FUJITSU TEN (THAILAN                                                                                                                                            *G         20160727IMF1607276.TXT
MAKK67113210201607D4               89805294000P3YK20160808000030SPEAKER ASM                   M IMCTM CM1    FTTL  07070IMKDC 01   PTB00015  K0                1621DES        000000000000 FUJITSU TEN (THAILAN                                                                                                                                            *G         20160727IMF1607276.TXT
MAKK67113211201607D4               89805294000P3YK20160809000030SPEAKER ASM                   M IMCTM CM1    FTTL  07070IMKDC 01   PTB00015  K0                1621DES        000000000000 FUJITSU TEN (THAILAN                                                                                                                                            *G         20160727IMF1607276.TXT
MAKK67113212201607D4               89805294000P3YK20160811000030SPEAKER ASM                   M IMCTM CM1    FTTL  07070IMKDC 01   PTB00015  K0                1621DES        000000000000 FUJITSU TEN (THAILAN                                                                                                                                            *G         20160727IMF1607276.TXT
MAKK67113213201607D4               89805294000P3YK20160817000030SPEAKER ASM                   M IMCTM CM1    FTTL  07070IMKDC 01   PTB00015  K0                1621DES        000000000000 FUJITSU TEN (THAILAN                                                                                                                                            *G         20160727IMF1607276.TXT
MAKK67113214201607D4               89805294000P3YK20160819000030SPEAKER ASM                   M IMCTM CM1    FTTL  07070IMKDC 01   PTB00015  K0                1621DES        000000000000 FUJITSU TEN (THAILAN                                                                                                                                            *G         20160727IMF1607276.TXT
MAKK67113215201607D4               89805294000P3YK20160820000030SPEAKER ASM                   M IMCTM CM1    FTTL  07070IMKDC 01   PTB00015  K0                1621DES        000000000000 FUJITSU TEN (THAILAN                                                                                                                                            *G         20160727IMF1607276.TXT
MAKK67113216201607D4               89805294100P3YK20160808000030SPEAKER ASM                   M IMCTM CM1    FTTL  07070IMKDC 01   PTB00005  K0                1621DES        000000000000 FUJITSU TEN (THAILAN                                                                                                                                            *G         20160727IMF1607276.TXT
MAKK67113217201607D4               89805294100P3YK20160809000030SPEAKER ASM                   M IMCTM CM1    FTTL  07070IMKDC 01   PTB00005  K0                1621DES        000000000000 FUJITSU TEN (THAILAN                                                                                                                                            *G         20160727IMF1607276.TXT
MAKK67113218201607D4               89805294100P3YK20160811000030SPEAKER ASM                   M IMCTM CM1    FTTL  07070IMKDC 01   PTB00005  K0                1621DES        000000000000 FUJITSU TEN (THAILAN                                                                                                                                            *G         20160727IMF1607276.TXT
MAKK67113219201607D4               89805294100P3YK20160817000030SPEAKER ASM                   M IMCTM CM1    FTTL  07070IMKDC 01   PTB00005  K0                1621DES        000000000000 FUJITSU TEN (THAILAN                                                                                                                                            *G         20160727IMF1607276.TXT
MAKK67113220201607D4               89805294100P3YK20160819000030SPEAKER ASM                   M IMCTM CM1    FTTL  07070IMKDC 01   PTB00005  K0                1621DES        000000000000 FUJITSU TEN (THAILAN                                                                                                                                            *G         20160727IMF1607276.TXT
MAKK67113221201607D4               89805294100P3YK20160820000030SPEAKER ASM                   M IMCTM CM1    FTTL  07070IMKDC 01   PTB00005  K0                1621DES        000000000000 FUJITSU TEN (THAILAN                                                                                                                                            *G         20160727IMF1607276.TXT
MAKK67113222201607D4               89824135720P3YK20160809000015RADIO;AM/FM,CD,F              M IMCTM CM1    FTTL  07070IMKDC 01 PTB  00003  K0                1621DES        000000000000 FUJITSU TEN (THAILAN                                                                                                                                            *G         20160727IMF1607276.TXT
MAKK67113223201607D4               89828070100P3YK20160808000060SPEAKER ASM                   M IMCTM CM1    FTTL  07070IMKDC 01 PTB  00003  K0                1621DES        000000000000 FUJITSU TEN (THAILAN                                                                                                                                            *G         20160727IMF1607276.TXT
MAKK67113224201607D4               89828070100P3YK20160809000030SPEAKER ASM                   M IMCTM CM1    FTTL  07070IMKDC 01 PTB  00003  K0                1621DES        000000000000 FUJITSU TEN (THAILAN                                                                                                                                            *G         20160727IMF1607276.TXT
MAKK67113225201607D4               89828070100P3YK20160810000030SPEAKER ASM                   M IMCTM CM1    FTTL  07070IMKDC 01 PTB  00003  K0                1621DES        000000000000 FUJITSU TEN (THAILAN                                                                                                                                            *G         20160727IMF1607276.TXT
MAKK67113226201607D4               89828070100P3YK20160811000060SPEAKER ASM                   M IMCTM CM1    FTTL  07070IMKDC 01 PTB  00003  K0                1621DES        000000000000 FUJITSU TEN (THAILAN                                                                                                                                            *G         20160727IMF1607276.TXT
MAKK67113227201607D4               89828070100P3YK20160816000090SPEAKER ASM                   M IMCTM CM1    FTTL  07070IMKDC 01 PTB  00003  K0                1621DES        000000000000 FUJITSU TEN (THAILAN                                                                                                                                            *G         20160727IMF1607276.TXT
MAKK67113228201607D4               89828070100P3YK20160817000030SPEAKER ASM                   M IMCTM CM1    FTTL  07070IMKDC 01 PTB  00003  K0                1621DES        000000000000 FUJITSU TEN (THAILAN                                                                                                                                            *G         20160727IMF1607276.TXT
MAKK67113229201607D4               89828070100P3YK20160818000060SPEAKER ASM                   M IMCTM CM1    FTTL  07070IMKDC 01 PTB  00003  K0                1621DES        000000000000 FUJITSU TEN (THAILAN                                                                                                                                            *G         20160727IMF1607276.TXT
MAKK67113230201607D4               89828070100P3YK20160819000030SPEAKER ASM                   M IMCTM CM1    FTTL  07070IMKDC 01 PTB  00003  K0                1621DES        000000000000 FUJITSU TEN (THAILAN                                                                                                                                            *G         20160727IMF1607276.TXT
MAKK67113231201607D4               89828070100P3YK20160820000090SPEAKER ASM                   M IMCTM CM1    FTTL  07070IMKDC 01 PTB  00003  K0                1621DES        000000000000 FUJITSU TEN (THAILAN                                                                                                                                            *G         20160727IMF1607276.TXT
MAKK67113232201607D4               89828070200P3YK20160810000030SPEAKER ASM                   M IMCTM CM1    FTTL  07070IMKDC 01 PTB  00005  K0                1621DES        000000000000 FUJITSU TEN (THAILAN                                                                                                                                            *G         20160727IMF1607276.TXT
MAKK67113233201607D4               89828070200P3YK20160811000060SPEAKER ASM                   M IMCTM CM1    FTTL  07070IMKDC 01 PTB  00005  K0                1621DES        000000000000 FUJITSU TEN (THAILAN                                                                                                                                            *G         20160727IMF1607276.TXT
MAKK67113234201607D4               89828070200P3YK20160816000030SPEAKER ASM                   M IMCTM CM1    FTTL  07070IMKDC 01 PTB  00005  K0                1621DES        000000000000 FUJITSU TEN (THAILAN                                                                                                                                            *G         20160727IMF1607276.TXT
MAKK67113235201607D4               89828070200P3YK20160817000030SPEAKER ASM                   M IMCTM CM1    FTTL  07070IMKDC 01 PTB  00005  K0                1621DES        000000000000 FUJITSU TEN (THAILAN                                                                                                                                            *G         20160727IMF1607276.TXT
MAKK67113236201607D4               89828070200P3YK20160818000030SPEAKER ASM                   M IMCTM CM1    FTTL  07070IMKDC 01 PTB  00005  K0                1621DES        000000000000 FUJITSU TEN (THAILAN                                                                                                                                            *G         20160727IMF1607276.TXT
MAKK67113237201607D4               89828070200P3YK20160819000030SPEAKER ASM                   M IMCTM CM1    FTTL  07070IMKDC 01 PTB  00005  K0                1621DES        000000000000 FUJITSU TEN (THAILAN                                                                                                                                            *G         20160727IMF1607276.TXT
MAKK67113238201607D4               89828070200P3YK20160820000060SPEAKER ASM                   M IMCTM CM1    FTTL  07070IMKDC 01 PTB  00005  K0                1621DES        000000000000 FUJITSU TEN (THAILAN                                                                                                                                            *G         20160727IMF1607276.TXT
MAKK67113239201607D4               89828070300P3YK20160808000030SPEAKER ASM                   M IMCTM CM1    FTTL  07070IMKDC 01 PTB  00015  K0                1621DES        000000000000 FUJITSU TEN (THAILAN                                                                                                                                            *G         20160727IMF1607276.TXT
MAKK67113240201607D4               89828070300P3YK20160809000030SPEAKER ASM                   M IMCTM CM1    FTTL  07070IMKDC 01 PTB  00015  K0                1621DES        000000000000 FUJITSU TEN (THAILAN                                                                                                                                            *G         20160727IMF1607276.TXT
MAKK67113241201607D4               89828070300P3YK20160810000030SPEAKER ASM                   M IMCTM CM1    FTTL  07070IMKDC 01 PTB  00015  K0                1621DES        000000000000 FUJITSU TEN (THAILAN                                                                                                                                            *G         20160727IMF1607276.TXT
MAKK67113242201607D4               89828070300P3YK20160811000060SPEAKER ASM                   M IMCTM CM1    FTTL  07070IMKDC 01 PTB  00015  K0                1621DES        000000000000 FUJITSU TEN (THAILAN                                                                                                                                            *G         20160727IMF1607276.TXT
MAKK67113243201607D4               89828070300P3YK20160816000060SPEAKER ASM                   M IMCTM CM1    FTTL  07070IMKDC 01 PTB  00015  K0                1621DES        000000000000 FUJITSU TEN (THAILAN                                                                                                                                            *G         20160727IMF1607276.TXT
MAKK67113244201607D4               89828070300P3YK20160817000030SPEAKER ASM                   M IMCTM CM1    FTTL  07070IMKDC 01 PTB  00015  K0                1621DES        000000000000 FUJITSU TEN (THAILAN                                                                                                                                            *G         20160727IMF1607276.TXT
MAKK67113245201607D4               89828070300P3YK20160818000030SPEAKER ASM                   M IMCTM CM1    FTTL  07070IMKDC 01 PTB  00015  K0                1621DES        000000000000 FUJITSU TEN (THAILAN                                                                                                                                            *G         20160727IMF1607276.TXT
MAKK67113246201607D4               89828070300P3YK20160819000030SPEAKER ASM                   M IMCTM CM1    FTTL  07070IMKDC 01 PTB  00015  K0                1621DES        000000000000 FUJITSU TEN (THAILAN                                                                                                                                            *G         20160727IMF1607276.TXT
MAKK67113247201607D4               89828070300P3YK20160820000060SPEAKER ASM                   M IMCTM CM1    FTTL  07070IMKDC 01 PTB  00015  K0                1621DES        000000000000 FUJITSU TEN (THAILAN                                                                                                                                            *G         20160727IMF1607276.TXT
MAKK67113248201607D4               89831228800P3YK20160808000015RADIO;AM/FM,CD                M IMCTM CM1    FTTL  07070IMKDC 01 CPB  00005  K0                1621DES        000000000000 FUJITSU TEN (THAILAN                                                                                                                                            *G         20160727IMF1607276.TXT
MAKK67113249201607D4               89831228800P3YK20160809000015RADIO;AM/FM,CD                M IMCTM CM1    FTTL  07070IMKDC 01 CPB  00005  K0                1621DES        000000000000 FUJITSU TEN (THAILAN                                                                                                                                            *G         20160727IMF1607276.TXT
MAKK67113250201607D4               89831228800P3YK20160810000015RADIO;AM/FM,CD                M IMCTM CM1    FTTL  07070IMKDC 01 CPB  00005  K0                1621DES        000000000000 FUJITSU TEN (THAILAN                                                                                                                                            *G         20160727IMF1607276.TXT
MAKK67113251201607D4               89831228800P3YK20160811000015RADIO;AM/FM,CD                M IMCTM CM1    FTTL  07070IMKDC 01 CPB  00005  K0                1621DES        000000000000 FUJITSU TEN (THAILAN                                                                                                                                            *G         20160727IMF1607276.TXT
MAKK67113252201607D4               89831228800P3YK20160816000015RADIO;AM/FM,CD                M IMCTM CM1    FTTL  07070IMKDC 01 CPB  00005  K0                1621DES        000000000000 FUJITSU TEN (THAILAN                                                                                                                                            *G         20160727IMF1607276.TXT
MAKK67113253201607D4               89831228800P3YK20160820000030RADIO;AM/FM,CD                M IMCTM CM1    FTTL  07070IMKDC 01 CPB  00005  K0                1621DES        000000000000 FUJITSU TEN (THAILAN                                                                                                                                            *G         20160727IMF1607276.TXT
MAKK67113254201607D4               89834050100P3YK20160820000015RADIO;ASM DVD                 M IMCTM CM1    FTTL  07070IMKDC 01 PTB  00003  K0                1621DES        000000000000 FUJITSU TEN (THAILAN                                                                                                                                            *G         20160727IMF1607276.TXT
