REC2016071820160718ISUZU                              47     
MDDDG7237640201607                D89821984430PT1D20160722000030RADIO;AM/FM,CD                M IMCTM S5NC06 FTTL  07070IMCT  S5 PTB  00005                    2230 SR        000000000000 FUJITSU TEN (THAILAN160JXAL0181181                                                                                                                              *          20160718IMF1607184.TXT
MDDDG7237641201607                D89821984430PT1D20160723000060RADIO;AM/FM,CD                M IMCTM S5NC06 FTTL  07070IMCT  S5 PTB  00005                    0310 SR        000000000000 FUJITSU TEN (THAILAN160JXAL0182182160JXEL0087087                                                                                                                *          20160718IMF1607184.TXT
MDDDG7237642201607                D89821984430PT1D20160723000030RADIO;AM/FM,CD                M IMCTM S5NC06 FTTL  07070IMCT  S5 PTB  00005                    1000 SR        000000000000 FUJITSU TEN (THAILAN160JXAL0183183                                                                                                                              *          20160718IMF1607184.TXT
MDDDG7237643201607                D89821984430PT1D20160723000060RADIO;AM/FM,CD                M IMCTM S5NC06 FTTL  07070IMCT  S5 PTB  00005                    1510 SR        000000000000 FUJITSU TEN (THAILAN160JNGL0070070160JXEL0088088                                                                                                                *          20160718IMF1607184.TXT
MDDDG7237644201607                D89828070100PV1D20160722000120SPEAKER ASM                   M IMCTM S5MA12 FTTL  07070IMCT  S5 PTB  00004                    2230 SR        000000000000 FUJITSU TEN (THAILAN160JXAL0181181160JZJL0027027                                                                                                                *          20160718IMF1607184.TXT
MDDDG7237645201607                D89828070100PV1D20160723000120SPEAKER ASM                   M IMCTM S5MA12 FTTL  07070IMCT  S5 PTB  00004                    0310 SR        000000000000 FUJITSU TEN (THAILAN160JXAL0182182160JXEL0087087                                                                                                                *          20160718IMF1607184.TXT
MDDDG7237646201607                D89828070100PV1D20160723000060SPEAKER ASM                   M IMCTM S5MA12 FTTL  07070IMCT  S5 PTB  00004                    1000 SR        000000000000 FUJITSU TEN (THAILAN160JXAL0183183                                                                                                                              *          20160718IMF1607184.TXT
MDDDG7237647201607                D89828070100PV1D20160723000180SPEAKER ASM                   M IMCTM S5MA12 FTTL  07070IMCT  S5 PTB  00004                    1510 SR        000000000000 FUJITSU TEN (THAILAN160JNGL0070070160JXEL0088088160JZJL0028028                                                                                                  *          20160718IMF1607184.TXT
MDDDG7237648201607                D89828070200PV1D20160722000060SPEAKER ASM                   M IMCTM S5MA13 FTTL  07070IMCT  S5 PTB  00005                    2230 SR        000000000000 FUJITSU TEN (THAILAN160JZJL0027027                                                                                                                              *          20160718IMF1607184.TXT
MDDDG7237649201607                D89828070200PV1D20160723000060SPEAKER ASM                   M IMCTM S5MA13 FTTL  07070IMCT  S5 PTB  00005                    1510 SR        000000000000 FUJITSU TEN (THAILAN160JZJL0028028                                                                                                                              *          20160718IMF1607184.TXT
MDDDG7237650201607                D89828070300PT1D20160722000060SPEAKER ASM                   M IMCTM S5NB042FTTL  07070IMCT  S5 PTB  00015                    2230 SR        000000000000 FUJITSU TEN (THAILAN160JZJL0027027                                                                                                                              *          20160718IMF1607184.TXT
MDDDG7237651201607                D89828070300PT1D20160723000060SPEAKER ASM                   M IMCTM S5NB042FTTL  07070IMCT  S5 PTB  00015                    1510 SR        000000000000 FUJITSU TEN (THAILAN160JZJL0028028                                                                                                                              *          20160718IMF1607184.TXT
MDEDG7282643201607                D89828070100PV1D20160722000030SPEAKER ASM                   M IMCTM S5MA12 FTTL  07070IMCT  S5 PTB  00004                    1510 SR        000000000000 FUJITSU TEN (THAILAN16043JL0003003                                                                                                                              *          20160718IMF1607184.TXT
MDEDG7282644201607                D89828070100PV1D20160722000030SPEAKER ASM                   M IMCTM S5MA12 FTTL  07070IMCT  S5 PTB  00004                    2230 SR        000000000000 FUJITSU TEN (THAILAN16029JL0002002                                                                                                                              *          20160718IMF1607184.TXT
MDEDG7282645201607                D89828070100PV1D20160723000060SPEAKER ASM                   M IMCTM S5MA12 FTTL  07070IMCT  S5 PTB  00004                    0310 SR        000000000000 FUJITSU TEN (THAILAN16048HL0004005                                                                                                                              *          20160718IMF1607184.TXT
MDEDG7282646201607                D89828070100PV1D20160723000120SPEAKER ASM                   M IMCTM S5MA12 FTTL  07070IMCT  S5 PTB  00004                    1000 SR        000000000000 FUJITSU TEN (THAILAN16050HL000600716066HL000900916073HL0007007                                                                                                  *          20160718IMF1607184.TXT
MDEDG7282647201607                D89828070100PV4D20160722000030SPEAKER ASM                   M IMCTM S0FL05 FTTL  07070IMCT  S0 PTB  00004                    2300 SR        000000000000 FUJITSU TEN (THAILAN16072HU0032032                                                                                                                              *          20160718IMF1607184.TXT
MDEDG7282648201607                D89828070100PV4D20160723000030SPEAKER ASM                   M IMCTM S0FL05 FTTL  07070IMCT  S0 PTB  00004                    0800 SR        000000000000 FUJITSU TEN (THAILAN16072HU0033033                                                                                                                              *          20160718IMF1607184.TXT
MDEDG7282649201607                D89828070100PV4D20160723000030SPEAKER ASM                   M IMCTM S0FL05 FTTL  07070IMCT  S0 PTB  00004                    1100 SR        000000000000 FUJITSU TEN (THAILAN16060HU0006006                                                                                                                              *          20160718IMF1607184.TXT
MDEDG7282650201607                D89828070200PV1D20160722000030SPEAKER ASM                   M IMCTM S5MA13 FTTL  07070IMCT  S5 PTB  00005                    1510 SR        000000000000 FUJITSU TEN (THAILAN16043JL0003003                                                                                                                              *          20160718IMF1607184.TXT
MDEDG7282651201607                D89828070200PV1D20160723000120SPEAKER ASM                   M IMCTM S5MA13 FTTL  07070IMCT  S5 PTB  00005                    1000 SR        000000000000 FUJITSU TEN (THAILAN16050HL000600716066HL000900916073HL0007007                                                                                                  *          20160718IMF1607184.TXT
MDEDG7282652201607                D89828070200PV4D20160722000030SPEAKER ASM                   M IMCTM S0FR05 FTTL  07070IMCT  S0 PTB  00005                    2300 SR        000000000000 FUJITSU TEN (THAILAN16072HU0032032                                                                                                                              *          20160718IMF1607184.TXT
MDEDG7282653201607                D89828070200PV4D20160723000030SPEAKER ASM                   M IMCTM S0FR05 FTTL  07070IMCT  S0 PTB  00005                    0800 SR        000000000000 FUJITSU TEN (THAILAN16072HU0033033                                                                                                                              *          20160718IMF1607184.TXT
MDEDG7282654201607                D89828070300PT1D20160722000030SPEAKER ASM                   M IMCTM S5NB042FTTL  07070IMCT  S5 PTB  00015                    1510 SR        000000000000 FUJITSU TEN (THAILAN16043JL0003003                                                                                                                              *          20160718IMF1607184.TXT
MDEDG7282655201607                D89828070300PT1D20160723000060SPEAKER ASM                   M IMCTM S5NB042FTTL  07070IMCT  S5 PTB  00015                    0310 SR        000000000000 FUJITSU TEN (THAILAN16048HL0004005                                                                                                                              *          20160718IMF1607184.TXT
MDEDG7282656201607                D89828070300PT1D20160723000120SPEAKER ASM                   M IMCTM S5NB042FTTL  07070IMCT  S5 PTB  00015                    1000 SR        000000000000 FUJITSU TEN (THAILAN16050HL000600716066HL000900916073HL0007007                                                                                                  *          20160718IMF1607184.TXT
MDEDG7282657201607                D89828070300PT4D20160722000030SPEAKER ASM                   M IMCTM S9TS02 FTTL  07070IMCT  S9 PTB  00015                    2300 SR        000000000000 FUJITSU TEN (THAILAN16072HU0032032                                                                                                                              *          20160718IMF1607184.TXT
MDEDG7282658201607                D89828070300PT4D20160723000030SPEAKER ASM                   M IMCTM S9TS02 FTTL  07070IMCT  S9 PTB  00015                    0800 SR        000000000000 FUJITSU TEN (THAILAN16072HU0033033                                                                                                                              *          20160718IMF1607184.TXT
MDEDG7282659201607                D89828070300PT4D20160723000030SPEAKER ASM                   M IMCTM S9TS02 FTTL  07070IMCT  S9 PTB  00015                    1100 SR        000000000000 FUJITSU TEN (THAILAN16060HU0006006                                                                                                                              *          20160718IMF1607184.TXT
MDEDG7282660201607                D89831228500PT1D20160723000030RADIO;AM/FM,CD                M IMCTM S5NC06 FTTL  07070IMCT  S5 PTB  00003                    0310 SR        000000000000 FUJITSU TEN (THAILAN16048HL0004005                                                                                                                              *          20160718IMF1607184.TXT
MDEDG7282661201607                D89831228600PT1D20160723000045RADIO;AM/FM,CD                M IMCTM S5NC06 FTTL  07070IMCT  S5 PTB  00003                    1000 SR        000000000000 FUJITSU TEN (THAILAN16050HL000600716066HL0009009                                                                                                                *          20160718IMF1607184.TXT
MDEDG7282662201607                D89831229200PT1D20160722000015RADIO;AM/FM,CD                M IMCTM S5NC06 FTTL  07070IMCT  S5 PTB  00003                    2230 SR        000000000000 FUJITSU TEN (THAILAN16043JL0003003                                                                                                                              *          20160718IMF1607184.TXT
MDEUG7250554201607                D89828070100PT4U20160722000060SPEAKER ASM                   M IMCTM S0FL05 FTTL  07070IMCT  S0 PTB  00004                    2300 SR        000000000000 FUJITSU TEN (THAILAN160B37U0034034160B48U0230230                                                                                                                *          20160718IMF1607184.TXT
MDEUG7250555201607                D89828070100PT4U20160723000030SPEAKER ASM                   M IMCTM S0FL05 FTTL  07070IMCT  S0 PTB  00004                    0310 SR        000000000000 FUJITSU TEN (THAILAN160B48U0231231                                                                                                                              *          20160718IMF1607184.TXT
MDEUG7250556201607                D89828070100PT4U20160723000030SPEAKER ASM                   M IMCTM S0FL05 FTTL  07070IMCT  S0 PTB  00004                    0800 SR        000000000000 FUJITSU TEN (THAILAN160B48U0232232                                                                                                                              *          20160718IMF1607184.TXT
MDEUG7250557201607                D89828070100PT4U20160723000030SPEAKER ASM                   M IMCTM S0FL05 FTTL  07070IMCT  S0 PTB  00004                    1100 SR        000000000000 FUJITSU TEN (THAILAN160B48U0233233                                                                                                                              *          20160718IMF1607184.TXT
MDEUG7250558201607                D89828070100PT4U20160723000030SPEAKER ASM                   M IMCTM S0FL05 FTTL  07070IMCT  S0 PTB  00004                    2030 SR        000000000000 FUJITSU TEN (THAILAN160B53U0004004                                                                                                                              *          20160718IMF1607184.TXT
MDEUG7250559201607                D89828070200PV4U20160722000060SPEAKER ASM                   M IMCTM S0FR05 FTTL  07070IMCT  S0 PTB  00005                    2300 SR        000000000000 FUJITSU TEN (THAILAN160B37U0034034160B48U0230230                                                                                                                *          20160718IMF1607184.TXT
MDEUG7250560201607                D89828070200PV4U20160723000030SPEAKER ASM                   M IMCTM S0FR05 FTTL  07070IMCT  S0 PTB  00005                    0310 SR        000000000000 FUJITSU TEN (THAILAN160B48U0231231                                                                                                                              *          20160718IMF1607184.TXT
MDEUG7250561201607                D89828070200PV4U20160723000030SPEAKER ASM                   M IMCTM S0FR05 FTTL  07070IMCT  S0 PTB  00005                    0800 SR        000000000000 FUJITSU TEN (THAILAN160B48U0232232                                                                                                                              *          20160718IMF1607184.TXT
MDEUG7250562201607                D89828070200PV4U20160723000030SPEAKER ASM                   M IMCTM S0FR05 FTTL  07070IMCT  S0 PTB  00005                    1100 SR        000000000000 FUJITSU TEN (THAILAN160B48U0233233                                                                                                                              *          20160718IMF1607184.TXT
MDEUG7250563201607                D89828070200PV4U20160723000030SPEAKER ASM                   M IMCTM S0FR05 FTTL  07070IMCT  S0 PTB  00005                    2030 SR        000000000000 FUJITSU TEN (THAILAN160B53U0004004                                                                                                                              *          20160718IMF1607184.TXT
MDEUG7250564201607                D89828070300PT4U20160722000060SPEAKER ASM                   M IMCTM S9TS02 FTTL  07070IMCT  S9 PTB  00015                    2300 SR        000000000000 FUJITSU TEN (THAILAN160B37U0034034160B48U0230230                                                                                                                *          20160718IMF1607184.TXT
MDEUG7250565201607                D89828070300PT4U20160723000030SPEAKER ASM                   M IMCTM S9TS02 FTTL  07070IMCT  S9 PTB  00015                    0310 SR        000000000000 FUJITSU TEN (THAILAN160B48U0231231                                                                                                                              *          20160718IMF1607184.TXT
MDEUG7250566201607                D89828070300PT4U20160723000030SPEAKER ASM                   M IMCTM S9TS02 FTTL  07070IMCT  S9 PTB  00015                    0800 SR        000000000000 FUJITSU TEN (THAILAN160B48U0232232                                                                                                                              *          20160718IMF1607184.TXT
MDEUG7250567201607                D89828070300PT4U20160723000030SPEAKER ASM                   M IMCTM S9TS02 FTTL  07070IMCT  S9 PTB  00015                    1100 SR        000000000000 FUJITSU TEN (THAILAN160B48U0233233                                                                                                                              *          20160718IMF1607184.TXT
MDEUG7250568201607                D89828070300PT4U20160723000030SPEAKER ASM                   M IMCTM S9TS02 FTTL  07070IMCT  S9 PTB  00015                    2030 SR        000000000000 FUJITSU TEN (THAILAN160B53U0004004                                                                                                                              *          20160718IMF1607184.TXT
