REC2016070720160707ISUZU                              49     
MDDDG7213792201607                D89821984430PT1D20160712000030RADIO;AM/FM,CD                M IMCTM S5NC06 FTTL  07070IMCT  S5 PTB  00005                    2230 SR        000000000000 FUJITSU TEN (THAILAN160JXAL0171171                                                                                                                              *          20160707IMF1607075.TXT
MDDDG7213793201607                D89821984430PT1D20160713000030RADIO;AM/FM,CD                M IMCTM S5NC06 FTTL  07070IMCT  S5 PTB  00005                    0310 SR        000000000000 FUJITSU TEN (THAILAN160JXAL0172172                                                                                                                              *          20160707IMF1607075.TXT
MDDDG7213794201607                D89828070100PV1D20160712000060SPEAKER ASM                   M IMCTM S5MA12 FTTL  07070IMCT  S5 PTB  00004                    2230 SR        000000000000 FUJITSU TEN (THAILAN160JXAL0171171                                                                                                                              *          20160707IMF1607075.TXT
MDDDG7213795201607                D89828070100PV1D20160713000060SPEAKER ASM                   M IMCTM S5MA12 FTTL  07070IMCT  S5 PTB  00004                    0310 SR        000000000000 FUJITSU TEN (THAILAN160JXAL0172172                                                                                                                              *          20160707IMF1607075.TXT
MDDDG7213796201607                D89828070100PV1D20160713000060SPEAKER ASM                   M IMCTM S5MA12 FTTL  07070IMCT  S5 PTB  00004                    1000 SR        000000000000 FUJITSU TEN (THAILAN160JYQL0046046                                                                                                                              *          20160707IMF1607075.TXT
MDDDG7213797201607                D89828070100PV1D20160713000060SPEAKER ASM                   M IMCTM S5MA12 FTTL  07070IMCT  S5 PTB  00004                    1510 SR        000000000000 FUJITSU TEN (THAILAN160JZJL0023023                                                                                                                              *          20160707IMF1607075.TXT
MDDDG7213798201607                D89828070200PV1D20160713000060SPEAKER ASM                   M IMCTM S5MA13 FTTL  07070IMCT  S5 PTB  00005                    1510 SR        000000000000 FUJITSU TEN (THAILAN160JZJL0023023                                                                                                                              *          20160707IMF1607075.TXT
MDDDG7213799201607                D89828070300PT1D20160713000060SPEAKER ASM                   M IMCTM S5NB042FTTL  07070IMCT  S5 PTB  00015                    1000 SR        000000000000 FUJITSU TEN (THAILAN160JYQL0046046                                                                                                                              *          20160707IMF1607075.TXT
MDDDG7213800201607                D89828070300PT1D20160713000060SPEAKER ASM                   M IMCTM S5NB042FTTL  07070IMCT  S5 PTB  00015                    1510 SR        000000000000 FUJITSU TEN (THAILAN160JZJL0023023                                                                                                                              *          20160707IMF1607075.TXT
MDDDG7213801201607                D89831228300PT1D20160713000030RADIO;AM/FM,CD                M IMCTM S5NC06 FTTL  07070IMCT  S5 CPB  00003                    1000 SR        000000000000 FUJITSU TEN (THAILAN160JYQL0046046                                                                                                                              *          20160707IMF1607075.TXT
MDDUG7207136201607                D89828070100PT4U20160713000030SPEAKER ASM                   M IMCTM S0FL05 FTTL  07070IMCT  S0 PTB  00004                    1100 SR        000000000000 FUJITSU TEN (THAILAN160JUPU0014014                                                                                                                              *          20160707IMF1607075.TXT
MDDUG7207137201607                D89828070200PV4U20160713000030SPEAKER ASM                   M IMCTM S0FR05 FTTL  07070IMCT  S0 PTB  00005                    1100 SR        000000000000 FUJITSU TEN (THAILAN160JUPU0014014                                                                                                                              *          20160707IMF1607075.TXT
MDDUG7207138201607                D89828070300PT4U20160713000030SPEAKER ASM                   M IMCTM S9TS02 FTTL  07070IMCT  S9 PTB  00015                    1100 SR        000000000000 FUJITSU TEN (THAILAN160JUPU0014014                                                                                                                              *          20160707IMF1607075.TXT
MDDUG7207139201607                D89831228400PT4U20160713000015RADIO;AM/FM,CD                M IMCTM S9CO001FTTL  07070IMCT  S9 CPB  00003                    1100 SR        000000000000 FUJITSU TEN (THAILAN160JUPU0014014                                                                                                                              *          20160707IMF1607075.TXT
MDEDG7231250201607                D89828070100PV1D20160712000090SPEAKER ASM                   M IMCTM S5MA12 FTTL  07070IMCT  S5 PTB  00004                    2230 SR        000000000000 FUJITSU TEN (THAILAN16058HL000700716073HL0004005                                                                                                                *          20160707IMF1607075.TXT
MDEDG7231251201607                D89828070100PV1D20160713000120SPEAKER ASM                   M IMCTM S5MA12 FTTL  07070IMCT  S5 PTB  00004                    0310 SR        000000000000 FUJITSU TEN (THAILAN16009JL002702716058HL000800816075HL0020021                                                                                                  *          20160707IMF1607075.TXT
MDEDG7231252201607                D89828070100PV1D20160713000120SPEAKER ASM                   M IMCTM S5MA12 FTTL  07070IMCT  S5 PTB  00004                    1000 SR        000000000000 FUJITSU TEN (THAILAN16009JL002802816067HL000400516081HL0096096                                                                                                  *          20160707IMF1607075.TXT
MDEDG7231253201607                D89828070100PV1D20160713000060SPEAKER ASM                   M IMCTM S5MA12 FTTL  07070IMCT  S5 PTB  00004                    1510 SR        000000000000 FUJITSU TEN (THAILAN16059HL000300316068HL0003003                                                                                                                *          20160707IMF1607075.TXT
MDEDG7231254201607                D89828070100PV4D20160712000030SPEAKER ASM                   M IMCTM S0FL05 FTTL  07070IMCT  S0 PTB  00004                    2030 SR        000000000000 FUJITSU TEN (THAILAN16072HU0023023                                                                                                                              *          20160707IMF1607075.TXT
MDEDG7231255201607                D89828070100PV4D20160713000030SPEAKER ASM                   M IMCTM S0FL05 FTTL  07070IMCT  S0 PTB  00004                    2030 SR        000000000000 FUJITSU TEN (THAILAN16072HU0024024                                                                                                                              *          20160707IMF1607075.TXT
MDEDG7231256201607                D89828070200PV1D20160712000060SPEAKER ASM                   M IMCTM S5MA13 FTTL  07070IMCT  S5 PTB  00005                    2230 SR        000000000000 FUJITSU TEN (THAILAN16073HL0004005                                                                                                                              *          20160707IMF1607075.TXT
MDEDG7231257201607                D89828070200PV1D20160713000060SPEAKER ASM                   M IMCTM S5MA13 FTTL  07070IMCT  S5 PTB  00005                    1000 SR        000000000000 FUJITSU TEN (THAILAN16067HL0004005                                                                                                                              *          20160707IMF1607075.TXT
MDEDG7231258201607                D89828070200PV1D20160713000030SPEAKER ASM                   M IMCTM S5MA13 FTTL  07070IMCT  S5 PTB  00005                    1510 SR        000000000000 FUJITSU TEN (THAILAN16068HL0003003                                                                                                                              *          20160707IMF1607075.TXT
MDEDG7231259201607                D89828070200PV4D20160712000030SPEAKER ASM                   M IMCTM S0FR05 FTTL  07070IMCT  S0 PTB  00005                    2030 SR        000000000000 FUJITSU TEN (THAILAN16072HU0023023                                                                                                                              *          20160707IMF1607075.TXT
MDEDG7231260201607                D89828070200PV4D20160713000030SPEAKER ASM                   M IMCTM S0FR05 FTTL  07070IMCT  S0 PTB  00005                    2030 SR        000000000000 FUJITSU TEN (THAILAN16072HU0024024                                                                                                                              *          20160707IMF1607075.TXT
MDEDG7231261201607                D89828070300PT1D20160712000090SPEAKER ASM                   M IMCTM S5NB042FTTL  07070IMCT  S5 PTB  00015                    2230 SR        000000000000 FUJITSU TEN (THAILAN16058HL000700716073HL0004005                                                                                                                *          20160707IMF1607075.TXT
MDEDG7231262201607                D89828070300PT1D20160713000030SPEAKER ASM                   M IMCTM S5NB042FTTL  07070IMCT  S5 PTB  00015                    0310 SR        000000000000 FUJITSU TEN (THAILAN16058HL0008008                                                                                                                              *          20160707IMF1607075.TXT
MDEDG7231263201607                D89828070300PT1D20160713000060SPEAKER ASM                   M IMCTM S5NB042FTTL  07070IMCT  S5 PTB  00015                    1000 SR        000000000000 FUJITSU TEN (THAILAN16067HL0004005                                                                                                                              *          20160707IMF1607075.TXT
MDEDG7231264201607                D89828070300PT1D20160713000060SPEAKER ASM                   M IMCTM S5NB042FTTL  07070IMCT  S5 PTB  00015                    1510 SR        000000000000 FUJITSU TEN (THAILAN16059HL000300316068HL0003003                                                                                                                *          20160707IMF1607075.TXT
MDEDG7231265201607                D89828070300PT4D20160712000030SPEAKER ASM                   M IMCTM S9TS02 FTTL  07070IMCT  S9 PTB  00015                    2030 SR        000000000000 FUJITSU TEN (THAILAN16072HU0023023                                                                                                                              *          20160707IMF1607075.TXT
MDEDG7231266201607                D89828070300PT4D20160713000030SPEAKER ASM                   M IMCTM S9TS02 FTTL  07070IMCT  S9 PTB  00015                    2030 SR        000000000000 FUJITSU TEN (THAILAN16072HU0024024                                                                                                                              *          20160707IMF1607075.TXT
MDEDG7231267201607                D89831228500PT1D20160712000015RADIO;AM/FM,CD                M IMCTM S5NC06 FTTL  07070IMCT  S5 PTB  00003                    2230 SR        000000000000 FUJITSU TEN (THAILAN16058HL0007007                                                                                                                              *          20160707IMF1607075.TXT
MDEDG7231268201607                D89831228500PT1D20160713000015RADIO;AM/FM,CD                M IMCTM S5NC06 FTTL  07070IMCT  S5 PTB  00003                    0310 SR        000000000000 FUJITSU TEN (THAILAN16058HL0008008                                                                                                                              *          20160707IMF1607075.TXT
MDEDG7231269201607                D89831228600PT1D20160713000030RADIO;AM/FM,CD                M IMCTM S5NC06 FTTL  07070IMCT  S5 PTB  00003                    1000 SR        000000000000 FUJITSU TEN (THAILAN16067HL0004005                                                                                                                              *          20160707IMF1607075.TXT
MDEUG7219091201607                D89828070100PT4U20160712000030SPEAKER ASM                   M IMCTM S0FL05 FTTL  07070IMCT  S0 PTB  00004                    2300 SR        000000000000 FUJITSU TEN (THAILAN160B48U0203203                                                                                                                              *          20160707IMF1607075.TXT
MDEUG7219092201607                D89828070100PT4U20160713000060SPEAKER ASM                   M IMCTM S0FL05 FTTL  07070IMCT  S0 PTB  00004                    0800 SR        000000000000 FUJITSU TEN (THAILAN160B42U0061061160B46U0071071                                                                                                                *          20160707IMF1607075.TXT
MDEUG7219093201607                D89828070100PT4U20160713000030SPEAKER ASM                   M IMCTM S0FL05 FTTL  07070IMCT  S0 PTB  00004                    1100 SR        000000000000 FUJITSU TEN (THAILAN160B48U0204204                                                                                                                              *          20160707IMF1607075.TXT
MDEUG7219094201607                D89828070100PT4U20160713000030SPEAKER ASM                   M IMCTM S0FL05 FTTL  07070IMCT  S0 PTB  00004                    1510 SR        000000000000 FUJITSU TEN (THAILAN160B45U0032032                                                                                                                              *          20160707IMF1607075.TXT
MDEUG7219095201607                D89828070100PT4U20160713000030SPEAKER ASM                   M IMCTM S0FL05 FTTL  07070IMCT  S0 PTB  00004                    2030 SR        000000000000 FUJITSU TEN (THAILAN160B48U0205205                                                                                                                              *          20160707IMF1607075.TXT
MDEUG7219096201607                D89828070200PV4U20160712000030SPEAKER ASM                   M IMCTM S0FR05 FTTL  07070IMCT  S0 PTB  00005                    2300 SR        000000000000 FUJITSU TEN (THAILAN160B48U0203203                                                                                                                              *          20160707IMF1607075.TXT
MDEUG7219097201607                D89828070200PV4U20160713000060SPEAKER ASM                   M IMCTM S0FR05 FTTL  07070IMCT  S0 PTB  00005                    0800 SR        000000000000 FUJITSU TEN (THAILAN160B42U0061061160B46U0071071                                                                                                                *          20160707IMF1607075.TXT
MDEUG7219098201607                D89828070200PV4U20160713000030SPEAKER ASM                   M IMCTM S0FR05 FTTL  07070IMCT  S0 PTB  00005                    1100 SR        000000000000 FUJITSU TEN (THAILAN160B48U0204204                                                                                                                              *          20160707IMF1607075.TXT
MDEUG7219099201607                D89828070200PV4U20160713000030SPEAKER ASM                   M IMCTM S0FR05 FTTL  07070IMCT  S0 PTB  00005                    1510 SR        000000000000 FUJITSU TEN (THAILAN160B45U0032032                                                                                                                              *          20160707IMF1607075.TXT
MDEUG7219100201607                D89828070200PV4U20160713000030SPEAKER ASM                   M IMCTM S0FR05 FTTL  07070IMCT  S0 PTB  00005                    2030 SR        000000000000 FUJITSU TEN (THAILAN160B48U0205205                                                                                                                              *          20160707IMF1607075.TXT
MDEUG7219101201607                D89828070300PT4U20160712000030SPEAKER ASM                   M IMCTM S9TS02 FTTL  07070IMCT  S9 PTB  00015                    2300 SR        000000000000 FUJITSU TEN (THAILAN160B48U0203203                                                                                                                              *          20160707IMF1607075.TXT
MDEUG7219102201607                D89828070300PT4U20160713000060SPEAKER ASM                   M IMCTM S9TS02 FTTL  07070IMCT  S9 PTB  00015                    0800 SR        000000000000 FUJITSU TEN (THAILAN160B42U0061061160B46U0071071                                                                                                                *          20160707IMF1607075.TXT
MDEUG7219103201607                D89828070300PT4U20160713000030SPEAKER ASM                   M IMCTM S9TS02 FTTL  07070IMCT  S9 PTB  00015                    1100 SR        000000000000 FUJITSU TEN (THAILAN160B48U0204204                                                                                                                              *          20160707IMF1607075.TXT
MDEUG7219104201607                D89828070300PT4U20160713000030SPEAKER ASM                   M IMCTM S9TS02 FTTL  07070IMCT  S9 PTB  00015                    1510 SR        000000000000 FUJITSU TEN (THAILAN160B45U0032032                                                                                                                              *          20160707IMF1607075.TXT
MDEUG7219105201607                D89828070300PT4U20160713000030SPEAKER ASM                   M IMCTM S9TS02 FTTL  07070IMCT  S9 PTB  00015                    2030 SR        000000000000 FUJITSU TEN (THAILAN160B48U0205205                                                                                                                              *          20160707IMF1607075.TXT
