REC2016070620160706ISUZU                              4      
MDEFG7T03697201607                D89828070100PV4F20160711000030SPEAKER ASM                   M IMCTM S7FL05 FTTL  07070IMCT  S7 PTB  00004                    2300 SR        000000000000 FUJITSU TEN (THAILAN16032KR0018   16034JR0009   D160701901    D160701915    000000                                                                              *R         20160706RDF1607064.TXT
MDEFG7T03698201607                D89828070200PV4F20160711000006SPEAKER ASM                   M IMCTM S7TS02 FTTL  07070IMCT  S7 PTB  00005                    2300 SR        000000000000 FUJITSU TEN (THAILAN16032KR0018   16032KR0020   D160701901    D160701903    000000                                                                              *R         20160706RDF1607064.TXT
MDEFG7T03699201607                D89828070300PT4F20160711000006SPEAKER ASM                   M IMCTM S7TS02 FTTL  07070IMCT  S7 PTB  00015                    2300 SR        000000000000 FUJITSU TEN (THAILAN16032KR0018   16032KR0020   D160701901    D160701903    000000                                                                              *R         20160706RDF1607064.TXT
MDEFG7T03700201607                D89829645400PT4F20160711000003RADIO;ASM DVD                 M IMCTM S7TS03 FTTL  07070IMCT  S7 PTB  00003                    2300 SR        000000000000 FUJITSU TEN (THAILAN16032KR0018   16032KR0020   D160701901    D160701903    000000                                                                              *R         20160706RDF1607064.TXT
