REC2016071920160720ISUZU                              52     
MDDDG7242559201607                D89821984430PT1D20160723000030RADIO;AM/FM,CD                M IMCTM S5NC06 FTTL  07070IMCT  S5 PTB  00005                    2230 SR        000000000000 FUJITSU TEN (THAILAN160JNGL0071071                                                                                                                              *          20160719IMF1607194.TXT
MDDDG7242560201607                D89821984430PT1D20160724000030RADIO;AM/FM,CD                M IMCTM S5NC06 FTTL  07070IMCT  S5 PTB  00005                    0310 SR        000000000000 FUJITSU TEN (THAILAN160JNGL0072072                                                                                                                              *          20160719IMF1607194.TXT
MDDDG7242561201607                D89821984430PT1D20160725000030RADIO;AM/FM,CD                M IMCTM S5NC06 FTTL  07070IMCT  S5 PTB  00005                    1000 SR        000000000000 FUJITSU TEN (THAILAN160JXAL0184184                                                                                                                              *          20160719IMF1607194.TXT
MDDDG7242562201607                D89821984430PT1D20160725000030RADIO;AM/FM,CD                M IMCTM S5NC06 FTTL  07070IMCT  S5 PTB  00005                    1510 SR        000000000000 FUJITSU TEN (THAILAN160JNGL0073073                                                                                                                              *          20160719IMF1607194.TXT
MDDDG7242563201607                D89828070100PV1D20160723000120SPEAKER ASM                   M IMCTM S5MA12 FTTL  07070IMCT  S5 PTB  00004                    2230 SR        000000000000 FUJITSU TEN (THAILAN160JNGL0071071160JYSL0127127                                                                                                                *          20160719IMF1607194.TXT
MDDDG7242564201607                D89828070100PV1D20160724000120SPEAKER ASM                   M IMCTM S5MA12 FTTL  07070IMCT  S5 PTB  00004                    0310 SR        000000000000 FUJITSU TEN (THAILAN160JNGL0072072160JYFL0006006                                                                                                                *          20160719IMF1607194.TXT
MDDDG7242565201607                D89828070100PV1D20160725000120SPEAKER ASM                   M IMCTM S5MA12 FTTL  07070IMCT  S5 PTB  00004                    1000 SR        000000000000 FUJITSU TEN (THAILAN160JXAL0184184160JZJL0029029                                                                                                                *          20160719IMF1607194.TXT
MDDDG7242566201607                D89828070100PV1D20160725000060SPEAKER ASM                   M IMCTM S5MA12 FTTL  07070IMCT  S5 PTB  00004                    1510 SR        000000000000 FUJITSU TEN (THAILAN160JNGL0073073                                                                                                                              *          20160719IMF1607194.TXT
MDDDG7242567201607                D89828070200PV1D20160725000060SPEAKER ASM                   M IMCTM S5MA13 FTTL  07070IMCT  S5 PTB  00005                    1000 SR        000000000000 FUJITSU TEN (THAILAN160JZJL0029029                                                                                                                              *          20160719IMF1607194.TXT
MDDDG7242568201607                D89828070300PT1D20160723000060SPEAKER ASM                   M IMCTM S5NB042FTTL  07070IMCT  S5 PTB  00015                    2230 SR        000000000000 FUJITSU TEN (THAILAN160JYSL0127127                                                                                                                              *          20160719IMF1607194.TXT
MDDDG7242569201607                D89828070300PT1D20160724000060SPEAKER ASM                   M IMCTM S5NB042FTTL  07070IMCT  S5 PTB  00015                    0310 SR        000000000000 FUJITSU TEN (THAILAN160JYFL0006006                                                                                                                              *          20160719IMF1607194.TXT
MDDDG7242570201607                D89828070300PT1D20160725000060SPEAKER ASM                   M IMCTM S5NB042FTTL  07070IMCT  S5 PTB  00015                    1000 SR        000000000000 FUJITSU TEN (THAILAN160JZJL0029029                                                                                                                              *          20160719IMF1607194.TXT
MDDDG7242571201607                D89831228300PT1D20160723000030RADIO;AM/FM,CD                M IMCTM S5NC06 FTTL  07070IMCT  S5 CPB  00003                    2230 SR        000000000000 FUJITSU TEN (THAILAN160JYSL0127127                                                                                                                              *          20160719IMF1607194.TXT
MDDDG7242572201607                D89831228300PT1D20160724000030RADIO;AM/FM,CD                M IMCTM S5NC06 FTTL  07070IMCT  S5 CPB  00003                    0310 SR        000000000000 FUJITSU TEN (THAILAN160JYFL0006006                                                                                                                              *          20160719IMF1607194.TXT
MDEDG7288043201607                D89828070100PV1D20160723000060SPEAKER ASM                   M IMCTM S5MA12 FTTL  07070IMCT  S5 PTB  00004                    2230 SR        000000000000 FUJITSU TEN (THAILAN16038KL0010011                                                                                                                              *          20160719IMF1607194.TXT
MDEDG7288044201607                D89828070100PV1D20160724000060SPEAKER ASM                   M IMCTM S5MA12 FTTL  07070IMCT  S5 PTB  00004                    0310 SR        000000000000 FUJITSU TEN (THAILAN16066HL0010011                                                                                                                              *          20160719IMF1607194.TXT
MDEDG7288045201607                D89828070100PV1D20160725000060SPEAKER ASM                   M IMCTM S5MA12 FTTL  07070IMCT  S5 PTB  00004                    1000 SR        000000000000 FUJITSU TEN (THAILAN16047KL0014015                                                                                                                              *          20160719IMF1607194.TXT
MDEDG7288046201607                D89828070100PV1D20160725000060SPEAKER ASM                   M IMCTM S5MA12 FTTL  07070IMCT  S5 PTB  00004                    1510 SR        000000000000 FUJITSU TEN (THAILAN16047KL001601616081KL0001001                                                                                                                *          20160719IMF1607194.TXT
MDEDG7288047201607                D89828070100PV4D20160725000030SPEAKER ASM                   M IMCTM S0FL05 FTTL  07070IMCT  S0 PTB  00004                    0800 SR        000000000000 FUJITSU TEN (THAILAN16072HU0034034                                                                                                                              *          20160719IMF1607194.TXT
MDEDG7288048201607                D89828070100PV4D20160725000030SPEAKER ASM                   M IMCTM S0FL05 FTTL  07070IMCT  S0 PTB  00004                    2030 SR        000000000000 FUJITSU TEN (THAILAN16072HU0035035                                                                                                                              *          20160719IMF1607194.TXT
MDEDG7288049201607                D89828070200PV1D20160723000060SPEAKER ASM                   M IMCTM S5MA13 FTTL  07070IMCT  S5 PTB  00005                    2230 SR        000000000000 FUJITSU TEN (THAILAN16038KL0010011                                                                                                                              *          20160719IMF1607194.TXT
MDEDG7288050201607                D89828070200PV1D20160724000060SPEAKER ASM                   M IMCTM S5MA13 FTTL  07070IMCT  S5 PTB  00005                    0310 SR        000000000000 FUJITSU TEN (THAILAN16066HL0010011                                                                                                                              *          20160719IMF1607194.TXT
MDEDG7288051201607                D89828070200PV1D20160725000060SPEAKER ASM                   M IMCTM S5MA13 FTTL  07070IMCT  S5 PTB  00005                    1000 SR        000000000000 FUJITSU TEN (THAILAN16047KL0014015                                                                                                                              *          20160719IMF1607194.TXT
MDEDG7288052201607                D89828070200PV1D20160725000060SPEAKER ASM                   M IMCTM S5MA13 FTTL  07070IMCT  S5 PTB  00005                    1510 SR        000000000000 FUJITSU TEN (THAILAN16047KL001601616081KL0001001                                                                                                                *          20160719IMF1607194.TXT
MDEDG7288053201607                D89828070200PV4D20160725000030SPEAKER ASM                   M IMCTM S0FR05 FTTL  07070IMCT  S0 PTB  00005                    0800 SR        000000000000 FUJITSU TEN (THAILAN16072HU0034034                                                                                                                              *          20160719IMF1607194.TXT
MDEDG7288054201607                D89828070200PV4D20160725000030SPEAKER ASM                   M IMCTM S0FR05 FTTL  07070IMCT  S0 PTB  00005                    2030 SR        000000000000 FUJITSU TEN (THAILAN16072HU0035035                                                                                                                              *          20160719IMF1607194.TXT
MDEDG7288055201607                D89828070300PT1D20160723000060SPEAKER ASM                   M IMCTM S5NB042FTTL  07070IMCT  S5 PTB  00015                    2230 SR        000000000000 FUJITSU TEN (THAILAN16038KL0010011                                                                                                                              *          20160719IMF1607194.TXT
MDEDG7288056201607                D89828070300PT1D20160724000060SPEAKER ASM                   M IMCTM S5NB042FTTL  07070IMCT  S5 PTB  00015                    0310 SR        000000000000 FUJITSU TEN (THAILAN16066HL0010011                                                                                                                              *          20160719IMF1607194.TXT
MDEDG7288057201607                D89828070300PT1D20160725000060SPEAKER ASM                   M IMCTM S5NB042FTTL  07070IMCT  S5 PTB  00015                    1000 SR        000000000000 FUJITSU TEN (THAILAN16047KL0014015                                                                                                                              *          20160719IMF1607194.TXT
MDEDG7288058201607                D89828070300PT1D20160725000060SPEAKER ASM                   M IMCTM S5NB042FTTL  07070IMCT  S5 PTB  00015                    1510 SR        000000000000 FUJITSU TEN (THAILAN16047KL001601616081KL0001001                                                                                                                *          20160719IMF1607194.TXT
MDEDG7288059201607                D89828070300PT4D20160725000030SPEAKER ASM                   M IMCTM S9TS02 FTTL  07070IMCT  S9 PTB  00015                    0800 SR        000000000000 FUJITSU TEN (THAILAN16072HU0034034                                                                                                                              *          20160719IMF1607194.TXT
MDEDG7288060201607                D89828070300PT4D20160725000030SPEAKER ASM                   M IMCTM S9TS02 FTTL  07070IMCT  S9 PTB  00015                    2030 SR        000000000000 FUJITSU TEN (THAILAN16072HU0035035                                                                                                                              *          20160719IMF1607194.TXT
MDEDG7288061201607                D89829645400PT1D20160723000030RADIO;ASM DVD                 M IMCTM S5NC06 FTTL  07070IMCT  S5 PTB  00003                    2230 SR        000000000000 FUJITSU TEN (THAILAN16038KL0010011                                                                                                                              *          20160719IMF1607194.TXT
MDEDG7288062201607                D89831228600PT1D20160724000030RADIO;AM/FM,CD                M IMCTM S5NC06 FTTL  07070IMCT  S5 PTB  00003                    0310 SR        000000000000 FUJITSU TEN (THAILAN16066HL0010011                                                                                                                              *          20160719IMF1607194.TXT
MDEUG7254439201607                D89828070100PT4U20160723000030SPEAKER ASM                   M IMCTM S0FL05 FTTL  07070IMCT  S0 PTB  00004                    2030 SR        000000000000 FUJITSU TEN (THAILAN160B46U0077077                                                                                                                              *          20160719IMF1607194.TXT
MDEUG7254440201607                D89828070100PT4U20160723000030SPEAKER ASM                   M IMCTM S0FL05 FTTL  07070IMCT  S0 PTB  00004                    2300 SR        000000000000 FUJITSU TEN (THAILAN160B42U0062062                                                                                                                              *          20160719IMF1607194.TXT
MDEUG7254441201607                D89828070100PT4U20160725000030SPEAKER ASM                   M IMCTM S0FL05 FTTL  07070IMCT  S0 PTB  00004                    0800 SR        000000000000 FUJITSU TEN (THAILAN160B46U0078078                                                                                                                              *          20160719IMF1607194.TXT
MDEUG7254442201607                D89828070100PT4U20160725000030SPEAKER ASM                   M IMCTM S0FL05 FTTL  07070IMCT  S0 PTB  00004                    1100 SR        000000000000 FUJITSU TEN (THAILAN160B42U0063063                                                                                                                              *          20160719IMF1607194.TXT
MDEUG7254443201607                D89828070100PT4U20160725000030SPEAKER ASM                   M IMCTM S0FL05 FTTL  07070IMCT  S0 PTB  00004                    1510 SR        000000000000 FUJITSU TEN (THAILAN160B39U0002002                                                                                                                              *          20160719IMF1607194.TXT
MDEUG7254444201607                D89828070100PT4U20160725000030SPEAKER ASM                   M IMCTM S0FL05 FTTL  07070IMCT  S0 PTB  00004                    2030 SR        000000000000 FUJITSU TEN (THAILAN160B45U0036036                                                                                                                              *          20160719IMF1607194.TXT
MDEUG7254445201607                D89828070200PV4U20160723000030SPEAKER ASM                   M IMCTM S0FR05 FTTL  07070IMCT  S0 PTB  00005                    2030 SR        000000000000 FUJITSU TEN (THAILAN160B46U0077077                                                                                                                              *          20160719IMF1607194.TXT
MDEUG7254446201607                D89828070200PV4U20160723000030SPEAKER ASM                   M IMCTM S0FR05 FTTL  07070IMCT  S0 PTB  00005                    2300 SR        000000000000 FUJITSU TEN (THAILAN160B42U0062062                                                                                                                              *          20160719IMF1607194.TXT
MDEUG7254447201607                D89828070200PV4U20160725000030SPEAKER ASM                   M IMCTM S0FR05 FTTL  07070IMCT  S0 PTB  00005                    0800 SR        000000000000 FUJITSU TEN (THAILAN160B46U0078078                                                                                                                              *          20160719IMF1607194.TXT
MDEUG7254448201607                D89828070200PV4U20160725000030SPEAKER ASM                   M IMCTM S0FR05 FTTL  07070IMCT  S0 PTB  00005                    1100 SR        000000000000 FUJITSU TEN (THAILAN160B42U0063063                                                                                                                              *          20160719IMF1607194.TXT
MDEUG7254449201607                D89828070200PV4U20160725000030SPEAKER ASM                   M IMCTM S0FR05 FTTL  07070IMCT  S0 PTB  00005                    1510 SR        000000000000 FUJITSU TEN (THAILAN160B39U0002002                                                                                                                              *          20160719IMF1607194.TXT
MDEUG7254450201607                D89828070200PV4U20160725000030SPEAKER ASM                   M IMCTM S0FR05 FTTL  07070IMCT  S0 PTB  00005                    2030 SR        000000000000 FUJITSU TEN (THAILAN160B45U0036036                                                                                                                              *          20160719IMF1607194.TXT
MDEUG7254451201607                D89828070300PT4U20160723000030SPEAKER ASM                   M IMCTM S9TS02 FTTL  07070IMCT  S9 PTB  00015                    2030 SR        000000000000 FUJITSU TEN (THAILAN160B46U0077077                                                                                                                              *          20160719IMF1607194.TXT
MDEUG7254452201607                D89828070300PT4U20160723000030SPEAKER ASM                   M IMCTM S9TS02 FTTL  07070IMCT  S9 PTB  00015                    2300 SR        000000000000 FUJITSU TEN (THAILAN160B42U0062062                                                                                                                              *          20160719IMF1607194.TXT
MDEUG7254453201607                D89828070300PT4U20160725000030SPEAKER ASM                   M IMCTM S9TS02 FTTL  07070IMCT  S9 PTB  00015                    0800 SR        000000000000 FUJITSU TEN (THAILAN160B46U0078078                                                                                                                              *          20160719IMF1607194.TXT
MDEUG7254454201607                D89828070300PT4U20160725000030SPEAKER ASM                   M IMCTM S9TS02 FTTL  07070IMCT  S9 PTB  00015                    1100 SR        000000000000 FUJITSU TEN (THAILAN160B42U0063063                                                                                                                              *          20160719IMF1607194.TXT
MDEUG7254455201607                D89828070300PT4U20160725000030SPEAKER ASM                   M IMCTM S9TS02 FTTL  07070IMCT  S9 PTB  00015                    1510 SR        000000000000 FUJITSU TEN (THAILAN160B39U0002002                                                                                                                              *          20160719IMF1607194.TXT
MDEUG7254456201607                D89828070300PT4U20160725000030SPEAKER ASM                   M IMCTM S9TS02 FTTL  07070IMCT  S9 PTB  00015                    2030 SR        000000000000 FUJITSU TEN (THAILAN160B45U0036036                                                                                                                              *          20160719IMF1607194.TXT
