REC2016071220160712ISUZU                              53     
MDDDG7222660201607                D89821984430PT1D20160718000030RADIO;AM/FM,CD                M IMCTM S5NC06 FTTL  07070IMCT  S5 PTB  00005                    1510 SR        000000000000 FUJITSU TEN (THAILAN160JYPL0105105                                                                                                                              *          20160712IMF1607124.TXT
MDDDG7222661201607                D89828070100PV1D20160715000060SPEAKER ASM                   M IMCTM S5MA12 FTTL  07070IMCT  S5 PTB  00004                    2230 SR        000000000000 FUJITSU TEN (THAILAN160JZGL0013013                                                                                                                              *          20160712IMF1607124.TXT
MDDDG7222662201607                D89828070100PV1D20160718000060SPEAKER ASM                   M IMCTM S5MA12 FTTL  07070IMCT  S5 PTB  00004                    1510 SR        000000000000 FUJITSU TEN (THAILAN160JYPL0105105                                                                                                                              *          20160712IMF1607124.TXT
MDDDG7222663201607                D89828070200PV1D20160715000060SPEAKER ASM                   M IMCTM S5MA13 FTTL  07070IMCT  S5 PTB  00005                    2230 SR        000000000000 FUJITSU TEN (THAILAN160JZGL0013013                                                                                                                              *          20160712IMF1607124.TXT
MDDDG7222664201607                D89828070300PT1D20160715000060SPEAKER ASM                   M IMCTM S5NB042FTTL  07070IMCT  S5 PTB  00015                    2230 SR        000000000000 FUJITSU TEN (THAILAN160JZGL0013013                                                                                                                              *          20160712IMF1607124.TXT
MDDDG7222665201607                D89829645900PT1D20160715000030RADIO;ASM DVD                 M IMCTM S5NC06 FTTL  07070IMCT  S5 CPB  00003                    2230 SR        000000000000 FUJITSU TEN (THAILAN160JZGL0013013                                                                                                                              *          20160712IMF1607124.TXT
MDEDG7254845201607                D89805293700PV1D20160715000060SPEAKER ASM                   M IMCTM S5MA12 FTTL  07070IMCT  S5 PTB  00003                    2230 SR        000000000000 FUJITSU TEN (THAILAN15036DL0018019                                                                                                                              *          20160712IMF1607124.TXT
MDEDG7254846201607                D89805293700PV1D20160716000090SPEAKER ASM                   M IMCTM S5MA12 FTTL  07070IMCT  S5 PTB  00003                    0310 SR        000000000000 FUJITSU TEN (THAILAN15016FL002602715022DL0053053                                                                                                                *          20160712IMF1607124.TXT
MDEDG7254847201607                D89805293700PV1D20160718000030SPEAKER ASM                   M IMCTM S5MA12 FTTL  07070IMCT  S5 PTB  00003                    1000 SR        000000000000 FUJITSU TEN (THAILAN15033DL0010010                                                                                                                              *          20160712IMF1607124.TXT
MDEDG7254848201607                D89805293700PV1D20160718000030SPEAKER ASM                   M IMCTM S5MA12 FTTL  07070IMCT  S5 PTB  00003                    1510 SR        000000000000 FUJITSU TEN (THAILAN15042DL0026026                                                                                                                              *          20160712IMF1607124.TXT
MDEDG7254849201607                D89805294000PT1D20160715000060SPEAKER ASM                   M IMCTM S5NB042FTTL  07070IMCT  S5 PTB  00015                    2230 SR        000000000000 FUJITSU TEN (THAILAN15036DL0018019                                                                                                                              *          20160712IMF1607124.TXT
MDEDG7254850201607                D89805294000PT1D20160716000060SPEAKER ASM                   M IMCTM S5NB042FTTL  07070IMCT  S5 PTB  00015                    0310 SR        000000000000 FUJITSU TEN (THAILAN15016FL0026027                                                                                                                              *          20160712IMF1607124.TXT
MDEDG7254851201607                D89805294000PT1D20160718000030SPEAKER ASM                   M IMCTM S5NB042FTTL  07070IMCT  S5 PTB  00015                    1000 SR        000000000000 FUJITSU TEN (THAILAN15033DL0010010                                                                                                                              *          20160712IMF1607124.TXT
MDEDG7254852201607                D89805294000PT1D20160718000030SPEAKER ASM                   M IMCTM S5NB042FTTL  07070IMCT  S5 PTB  00015                    1510 SR        000000000000 FUJITSU TEN (THAILAN15042DL0026026                                                                                                                              *          20160712IMF1607124.TXT
MDEDG7254853201607                D89805294100PV1D20160715000060SPEAKER ASM                   M IMCTM S5MB13 FTTL  07070IMCT  S5 PTB  00005                    2230 SR        000000000000 FUJITSU TEN (THAILAN15036DL0018019                                                                                                                              *          20160712IMF1607124.TXT
MDEDG7254854201607                D89805294200PT1D20160718000030SPEAKER ASM                   M IMCTM S5AS011FTTL  07070IMCT  S6 PTB  00030                    1000 SR        000000000000 FUJITSU TEN (THAILAN15033DL0010010                                                                                                                              *          20160712IMF1607124.TXT
MDEDG7254855201607                D89805294200PT1D20160718000030SPEAKER ASM                   M IMCTM S5AS011FTTL  07070IMCT  S6 PTB  00030                    1510 SR        000000000000 FUJITSU TEN (THAILAN15042DL0026026                                                                                                                              *          20160712IMF1607124.TXT
MDEDG7254856201607                D89806470400PT1D20160718000015SPEAKER ASM;RDO,              M IMCTM S5EA18 FTTL  07070IMCT  S6 PTB  00015                    1000 SR        000000000000 FUJITSU TEN (THAILAN15033DL0010010                                                                                                                              *          20160712IMF1607124.TXT
MDEDG7254857201607                D89806470400PT1D20160718000015SPEAKER ASM;RDO,              M IMCTM S5EA18 FTTL  07070IMCT  S6 PTB  00015                    1510 SR        000000000000 FUJITSU TEN (THAILAN15042DL0026026                                                                                                                              *          20160712IMF1607124.TXT
MDEDG7254858201607                D89828070100PV1D20160715000030SPEAKER ASM                   M IMCTM S5MA12 FTTL  07070IMCT  S5 PTB  00004                    1510 SR        000000000000 FUJITSU TEN (THAILAN16045HL0007007                                                                                                                              *          20160712IMF1607124.TXT
MDEDG7254859201607                D89828070100PV1D20160715000030SPEAKER ASM                   M IMCTM S5MA12 FTTL  07070IMCT  S5 PTB  00004                    2230 SR        000000000000 FUJITSU TEN (THAILAN16045HL0008008                                                                                                                              *          20160712IMF1607124.TXT
MDEDG7254860201607                D89828070100PV1D20160716000090SPEAKER ASM                   M IMCTM S5MA12 FTTL  07070IMCT  S5 PTB  00004                    0310 SR        000000000000 FUJITSU TEN (THAILAN16007JL004004016075HL0024025                                                                                                                *          20160712IMF1607124.TXT
MDEDG7254861201607                D89828070100PV1D20160718000150SPEAKER ASM                   M IMCTM S5MA12 FTTL  07070IMCT  S5 PTB  00004                    1000 SR        000000000000 FUJITSU TEN (THAILAN16007JL004104216033JL000901016081HL0101101                                                                                                  *          20160712IMF1607124.TXT
MDEDG7254862201607                D89828070100PV1D20160718000030SPEAKER ASM                   M IMCTM S5MA12 FTTL  07070IMCT  S5 PTB  00004                    1510 SR        000000000000 FUJITSU TEN (THAILAN16007JL0043043                                                                                                                              *          20160712IMF1607124.TXT
MDEDG7254863201607                D89828070100PV4D20160715000030SPEAKER ASM                   M IMCTM S0FL05 FTTL  07070IMCT  S0 PTB  00004                    2300 SR        000000000000 FUJITSU TEN (THAILAN16072HU0028028                                                                                                                              *          20160712IMF1607124.TXT
MDEDG7254864201607                D89828070100PV4D20160718000030SPEAKER ASM                   M IMCTM S0FL05 FTTL  07070IMCT  S0 PTB  00004                    1100 SR        000000000000 FUJITSU TEN (THAILAN16060HU0004004                                                                                                                              *          20160712IMF1607124.TXT
MDEDG7254865201607                D89828070100PV4D20160718000030SPEAKER ASM                   M IMCTM S0FL05 FTTL  07070IMCT  S0 PTB  00004                    2030 SR        000000000000 FUJITSU TEN (THAILAN16052HU0005005                                                                                                                              *          20160712IMF1607124.TXT
MDEDG7254866201607                D89828070200PV4D20160715000030SPEAKER ASM                   M IMCTM S0FR05 FTTL  07070IMCT  S0 PTB  00005                    2300 SR        000000000000 FUJITSU TEN (THAILAN16072HU0028028                                                                                                                              *          20160712IMF1607124.TXT
MDEDG7254867201607                D89828070200PV4D20160718000030SPEAKER ASM                   M IMCTM S0FR05 FTTL  07070IMCT  S0 PTB  00005                    2030 SR        000000000000 FUJITSU TEN (THAILAN16052HU0005005                                                                                                                              *          20160712IMF1607124.TXT
MDEDG7254868201607                D89828070300PT1D20160715000030SPEAKER ASM                   M IMCTM S5NB042FTTL  07070IMCT  S5 PTB  00015                    1510 SR        000000000000 FUJITSU TEN (THAILAN16045HL0007007                                                                                                                              *          20160712IMF1607124.TXT
MDEDG7254869201607                D89828070300PT1D20160715000030SPEAKER ASM                   M IMCTM S5NB042FTTL  07070IMCT  S5 PTB  00015                    2230 SR        000000000000 FUJITSU TEN (THAILAN16045HL0008008                                                                                                                              *          20160712IMF1607124.TXT
MDEDG7254870201607                D89828070300PT4D20160715000030SPEAKER ASM                   M IMCTM S9TS02 FTTL  07070IMCT  S9 PTB  00015                    2300 SR        000000000000 FUJITSU TEN (THAILAN16072HU0028028                                                                                                                              *          20160712IMF1607124.TXT
MDEDG7254871201607                D89828070300PT4D20160718000030SPEAKER ASM                   M IMCTM S9TS02 FTTL  07070IMCT  S9 PTB  00015                    1100 SR        000000000000 FUJITSU TEN (THAILAN16060HU0004004                                                                                                                              *          20160712IMF1607124.TXT
MDEDG7254872201607                D89828070300PT4D20160718000030SPEAKER ASM                   M IMCTM S9TS02 FTTL  07070IMCT  S9 PTB  00015                    2030 SR        000000000000 FUJITSU TEN (THAILAN16052HU0005005                                                                                                                              *          20160712IMF1607124.TXT
MDEDG7254873201607                D89831228600PT1D20160715000030RADIO;AM/FM,CD                M IMCTM S5NC06 FTTL  07070IMCT  S5 PTB  00003                    2230 SR        000000000000 FUJITSU TEN (THAILAN16045HL0007008                                                                                                                              *          20160712IMF1607124.TXT
MDEUG7232113201607                D89828070100PT4U20160715000030SPEAKER ASM                   M IMCTM S0FL05 FTTL  07070IMCT  S0 PTB  00004                    2030 SR        000000000000 FUJITSU TEN (THAILAN160B48U0213213                                                                                                                              *          20160712IMF1607124.TXT
MDEUG7232114201607                D89828070100PT4U20160715000030SPEAKER ASM                   M IMCTM S0FL05 FTTL  07070IMCT  S0 PTB  00004                    2300 SR        000000000000 FUJITSU TEN (THAILAN160B48U0214214                                                                                                                              *          20160712IMF1607124.TXT
MDEUG7232115201607                D89828070100PT4U20160716000030SPEAKER ASM                   M IMCTM S0FL05 FTTL  07070IMCT  S0 PTB  00004                    0310 SR        000000000000 FUJITSU TEN (THAILAN160B48U0215215                                                                                                                              *          20160712IMF1607124.TXT
MDEUG7232116201607                D89828070100PT4U20160718000060SPEAKER ASM                   M IMCTM S0FL05 FTTL  07070IMCT  S0 PTB  00004                    1100 SR        000000000000 FUJITSU TEN (THAILAN160B48U0216217                                                                                                                              *          20160712IMF1607124.TXT
MDEUG7232117201607                D89828070100PT4U20160718000030SPEAKER ASM                   M IMCTM S0FL05 FTTL  07070IMCT  S0 PTB  00004                    1510 SR        000000000000 FUJITSU TEN (THAILAN160B37U0028028                                                                                                                              *          20160712IMF1607124.TXT
MDEUG7232118201607                D89828070100PT4U20160718000030SPEAKER ASM                   M IMCTM S0FL05 FTTL  07070IMCT  S0 PTB  00004                    2030 SR        000000000000 FUJITSU TEN (THAILAN160B36U0015015                                                                                                                              *          20160712IMF1607124.TXT
MDEUG7232119201607                D89828070200PV4U20160715000030SPEAKER ASM                   M IMCTM S0FR05 FTTL  07070IMCT  S0 PTB  00005                    2030 SR        000000000000 FUJITSU TEN (THAILAN160B48U0213213                                                                                                                              *          20160712IMF1607124.TXT
MDEUG7232120201607                D89828070200PV4U20160715000030SPEAKER ASM                   M IMCTM S0FR05 FTTL  07070IMCT  S0 PTB  00005                    2300 SR        000000000000 FUJITSU TEN (THAILAN160B48U0214214                                                                                                                              *          20160712IMF1607124.TXT
MDEUG7232121201607                D89828070200PV4U20160716000030SPEAKER ASM                   M IMCTM S0FR05 FTTL  07070IMCT  S0 PTB  00005                    0310 SR        000000000000 FUJITSU TEN (THAILAN160B48U0215215                                                                                                                              *          20160712IMF1607124.TXT
MDEUG7232122201607                D89828070200PV4U20160718000060SPEAKER ASM                   M IMCTM S0FR05 FTTL  07070IMCT  S0 PTB  00005                    1100 SR        000000000000 FUJITSU TEN (THAILAN160B48U0216217                                                                                                                              *          20160712IMF1607124.TXT
MDEUG7232123201607                D89828070200PV4U20160718000030SPEAKER ASM                   M IMCTM S0FR05 FTTL  07070IMCT  S0 PTB  00005                    1510 SR        000000000000 FUJITSU TEN (THAILAN160B37U0028028                                                                                                                              *          20160712IMF1607124.TXT
MDEUG7232124201607                D89828070200PV4U20160718000030SPEAKER ASM                   M IMCTM S0FR05 FTTL  07070IMCT  S0 PTB  00005                    2030 SR        000000000000 FUJITSU TEN (THAILAN160B36U0015015                                                                                                                              *          20160712IMF1607124.TXT
MDEUG7232125201607                D89828070300PT4U20160715000030SPEAKER ASM                   M IMCTM S9TS02 FTTL  07070IMCT  S9 PTB  00015                    2030 SR        000000000000 FUJITSU TEN (THAILAN160B48U0213213                                                                                                                              *          20160712IMF1607124.TXT
MDEUG7232126201607                D89828070300PT4U20160715000030SPEAKER ASM                   M IMCTM S9TS02 FTTL  07070IMCT  S9 PTB  00015                    2300 SR        000000000000 FUJITSU TEN (THAILAN160B48U0214214                                                                                                                              *          20160712IMF1607124.TXT
MDEUG7232127201607                D89828070300PT4U20160716000030SPEAKER ASM                   M IMCTM S9TS02 FTTL  07070IMCT  S9 PTB  00015                    0310 SR        000000000000 FUJITSU TEN (THAILAN160B48U0215215                                                                                                                              *          20160712IMF1607124.TXT
MDEUG7232128201607                D89828070300PT4U20160718000060SPEAKER ASM                   M IMCTM S9TS02 FTTL  07070IMCT  S9 PTB  00015                    1100 SR        000000000000 FUJITSU TEN (THAILAN160B48U0216217                                                                                                                              *          20160712IMF1607124.TXT
MDEUG7232129201607                D89828070300PT4U20160718000030SPEAKER ASM                   M IMCTM S9TS02 FTTL  07070IMCT  S9 PTB  00015                    1510 SR        000000000000 FUJITSU TEN (THAILAN160B37U0028028                                                                                                                              *          20160712IMF1607124.TXT
MDEUG7232130201607                D89828070300PT4U20160718000030SPEAKER ASM                   M IMCTM S9TS02 FTTL  07070IMCT  S9 PTB  00015                    2030 SR        000000000000 FUJITSU TEN (THAILAN160B36U0015015                                                                                                                              *          20160712IMF1607124.TXT
