REC2016063020160701ISUZU                              49     
MDDDG6299320201607                D89821984430PT1D20160706000060RADIO;AM/FM,CD                M IMCTM S5NC06 FTTL  07070IMCT  S5 PTB  00005                    1000 SR        000000000000 FUJITSU TEN (THAILAN160JNGL0066066160JXEL0082082                                                                                                                *          20160630IMF1606308.TXT
MDDDG6299321201607                D89828070100PV1D20160705000060SPEAKER ASM                   M IMCTM S5MA12 FTTL  07070IMCT  S5 PTB  00004                    2230 SR        000000000000 FUJITSU TEN (THAILAN160JYCL0032032                                                                                                                              *          20160630IMF1606308.TXT
MDDDG6299322201607                D89828070100PV1D20160706000120SPEAKER ASM                   M IMCTM S5MA12 FTTL  07070IMCT  S5 PTB  00004                    1000 SR        000000000000 FUJITSU TEN (THAILAN160JNGL0066066160JXEL0082082                                                                                                                *          20160630IMF1606308.TXT
MDDDG6299323201607                D89828070300PT1D20160705000060SPEAKER ASM                   M IMCTM S5NB042FTTL  07070IMCT  S5 PTB  00015                    2230 SR        000000000000 FUJITSU TEN (THAILAN160JYCL0032032                                                                                                                              *          20160630IMF1606308.TXT
MDDDG6299324201607                D89831228300PT1D20160705000030RADIO;AM/FM,CD                M IMCTM S5NC06 FTTL  07070IMCT  S5 CPB  00003                    2230 SR        000000000000 FUJITSU TEN (THAILAN160JYCL0032032                                                                                                                              *          20160630IMF1606308.TXT
MDDUG6440225201607                D89828070100PT4U20160706000030SPEAKER ASM                   M IMCTM S0FL05 FTTL  07070IMCT  S0 PTB  00004                    2030 SR        000000000000 FUJITSU TEN (THAILAN160JUQU0015015                                                                                                                              *          20160630IMF1606308.TXT
MDDUG6440226201607                D89828070200PV4U20160706000030SPEAKER ASM                   M IMCTM S0FR05 FTTL  07070IMCT  S0 PTB  00005                    2030 SR        000000000000 FUJITSU TEN (THAILAN160JUQU0015015                                                                                                                              *          20160630IMF1606308.TXT
MDDUG6440227201607                D89828070300PT4U20160706000030SPEAKER ASM                   M IMCTM S9TS02 FTTL  07070IMCT  S9 PTB  00015                    2030 SR        000000000000 FUJITSU TEN (THAILAN160JUQU0015015                                                                                                                              *          20160630IMF1606308.TXT
MDDUG6440228201607                D89829093500PT4U20160706000015RADIO;ASM DVD (T              M IMCTM S9CO001FTTL  07070IMCT  S9 PTB  00003                    2030 SR        000000000000 FUJITSU TEN (THAILAN160JUQU0015015                                                                                                                              *          20160630IMF1606308.TXT
MDEDG6343267201607                D89805293700PV1D20160705000030SPEAKER ASM                   M IMCTM S5MA12 FTTL  07070IMCT  S5 PTB  00003                    2230 SR        000000000000 FUJITSU TEN (THAILAN15020FL0005005                                                                                                                              *          20160630IMF1606308.TXT
MDEDG6343268201607                D89805293700PV1D20160706000060SPEAKER ASM                   M IMCTM S5MA12 FTTL  07070IMCT  S5 PTB  00003                    0310 SR        000000000000 FUJITSU TEN (THAILAN15020FL000600615081DL0016016                                                                                                                *          20160630IMF1606308.TXT
MDEDG6343269201607                D89805293700PV1D20160706000030SPEAKER ASM                   M IMCTM S5MA12 FTTL  07070IMCT  S5 PTB  00003                    1000 SR        000000000000 FUJITSU TEN (THAILAN15029BL0004004                                                                                                                              *          20160630IMF1606308.TXT
MDEDG6343270201607                D89805294000PT1D20160705000030SPEAKER ASM                   M IMCTM S5NB042FTTL  07070IMCT  S5 PTB  00015                    2230 SR        000000000000 FUJITSU TEN (THAILAN15020FL0005005                                                                                                                              *          20160630IMF1606308.TXT
MDEDG6343271201607                D89805294000PT1D20160706000060SPEAKER ASM                   M IMCTM S5NB042FTTL  07070IMCT  S5 PTB  00015                    0310 SR        000000000000 FUJITSU TEN (THAILAN15020FL000600615081DL0016016                                                                                                                *          20160630IMF1606308.TXT
MDEDG6343272201607                D89805294000PT1D20160706000030SPEAKER ASM                   M IMCTM S5NB042FTTL  07070IMCT  S5 PTB  00015                    1000 SR        000000000000 FUJITSU TEN (THAILAN15029BL0004004                                                                                                                              *          20160630IMF1606308.TXT
MDEDG6343273201607                D89805294100PV1D20160705000030SPEAKER ASM                   M IMCTM S5MB13 FTTL  07070IMCT  S5 PTB  00005                    2230 SR        000000000000 FUJITSU TEN (THAILAN15020FL0005005                                                                                                                              *          20160630IMF1606308.TXT
MDEDG6343274201607                D89805294100PV1D20160706000030SPEAKER ASM                   M IMCTM S5MB13 FTTL  07070IMCT  S5 PTB  00005                    0310 SR        000000000000 FUJITSU TEN (THAILAN15020FL0006006                                                                                                                              *          20160630IMF1606308.TXT
MDEDG6343275201607                D89805294100PV1D20160706000030SPEAKER ASM                   M IMCTM S5MB13 FTTL  07070IMCT  S5 PTB  00005                    1000 SR        000000000000 FUJITSU TEN (THAILAN15029BL0004004                                                                                                                              *          20160630IMF1606308.TXT
MDEDG6343276201607                D89805294200PT1D20160706000030SPEAKER ASM                   M IMCTM S5AS011FTTL  07070IMCT  S6 PTB  00030                    0310 SR        000000000000 FUJITSU TEN (THAILAN15081DL0016016                                                                                                                              *          20160630IMF1606308.TXT
MDEDG6343277201607                D89806470400PT1D20160706000015SPEAKER ASM;RDO,              M IMCTM S5EA18 FTTL  07070IMCT  S6 PTB  00015                    0310 SR        000000000000 FUJITSU TEN (THAILAN15081DL0016016                                                                                                                              *          20160630IMF1606308.TXT
MDEDG6343278201607                D89824360220PT1D20160706000015RADIO;AM/FM,CD                M IMCTM S5NC06 FTTL  07070IMCT  S5 CPB  00003                    0310 SR        000000000000 FUJITSU TEN (THAILAN15081DL0016016                                                                                                                              *          20160630IMF1606308.TXT
MDEDG6343279201607                D89828070100PV1D20160705000030SPEAKER ASM                   M IMCTM S5MA12 FTTL  07070IMCT  S5 PTB  00004                    1510 SR        000000000000 FUJITSU TEN (THAILAN16064HL0004004                                                                                                                              *          20160630IMF1606308.TXT
MDEDG6343280201607                D89828070100PV1D20160705000060SPEAKER ASM                   M IMCTM S5MA12 FTTL  07070IMCT  S5 PTB  00004                    2230 SR        000000000000 FUJITSU TEN (THAILAN16033JL000600616081HL0091091                                                                                                                *          20160630IMF1606308.TXT
MDEDG6343281201607                D89828070100PV1D20160706000090SPEAKER ASM                   M IMCTM S5MA12 FTTL  07070IMCT  S5 PTB  00004                    0310 SR        000000000000 FUJITSU TEN (THAILAN16009JL002402516075HL0013013                                                                                                                *          20160630IMF1606308.TXT
MDEDG6343282201607                D89828070100PV1D20160706000060SPEAKER ASM                   M IMCTM S5MA12 FTTL  07070IMCT  S5 PTB  00004                    1000 SR        000000000000 FUJITSU TEN (THAILAN16054HL000400416075HL0014014                                                                                                                *          20160630IMF1606308.TXT
MDEDG6343283201607                D89828070100PV1D20160706000120SPEAKER ASM                   M IMCTM S5MA12 FTTL  07070IMCT  S5 PTB  00004                    1510 SR        000000000000 FUJITSU TEN (THAILAN16054HL000500516065JL000500516066HL000600616072LL0001001                                                                                    *          20160630IMF1606308.TXT
MDEDG6343284201607                D89828070200PV1D20160705000030SPEAKER ASM                   M IMCTM S5MA13 FTTL  07070IMCT  S5 PTB  00005                    1510 SR        000000000000 FUJITSU TEN (THAILAN16064HL0004004                                                                                                                              *          20160630IMF1606308.TXT
MDEDG6343285201607                D89828070200PV1D20160706000030SPEAKER ASM                   M IMCTM S5MA13 FTTL  07070IMCT  S5 PTB  00005                    1510 SR        000000000000 FUJITSU TEN (THAILAN16066HL0006006                                                                                                                              *          20160630IMF1606308.TXT
MDEDG6343286201607                D89828070300PT1D20160705000030SPEAKER ASM                   M IMCTM S5NB042FTTL  07070IMCT  S5 PTB  00015                    1510 SR        000000000000 FUJITSU TEN (THAILAN16064HL0004004                                                                                                                              *          20160630IMF1606308.TXT
MDEDG6343287201607                D89828070300PT1D20160706000030SPEAKER ASM                   M IMCTM S5NB042FTTL  07070IMCT  S5 PTB  00015                    1000 SR        000000000000 FUJITSU TEN (THAILAN16054HL0004004                                                                                                                              *          20160630IMF1606308.TXT
MDEDG6343288201607                D89828070300PT1D20160706000060SPEAKER ASM                   M IMCTM S5NB042FTTL  07070IMCT  S5 PTB  00015                    1510 SR        000000000000 FUJITSU TEN (THAILAN16054HL000500516066HL0006006                                                                                                                *          20160630IMF1606308.TXT
MDEDG6343289201607                D89831228600PT1D20160705000015RADIO;AM/FM,CD                M IMCTM S5NC06 FTTL  07070IMCT  S5 PTB  00003                    2230 SR        000000000000 FUJITSU TEN (THAILAN16064HL0004004                                                                                                                              *          20160630IMF1606308.TXT
MDEDG6343290201607                D89831228600PT1D20160706000015RADIO;AM/FM,CD                M IMCTM S5NC06 FTTL  07070IMCT  S5 PTB  00003                    1000 SR        000000000000 FUJITSU TEN (THAILAN16054HL0004004                                                                                                                              *          20160630IMF1606308.TXT
MDEDG6343291201607                D89831228600PT1D20160706000030RADIO;AM/FM,CD                M IMCTM S5NC06 FTTL  07070IMCT  S5 PTB  00003                    1510 SR        000000000000 FUJITSU TEN (THAILAN16054HL000500516066HL0006006                                                                                                                *          20160630IMF1606308.TXT
MDEUG6291417201607                D89828070100PT4U20160705000030SPEAKER ASM                   M IMCTM S0FL05 FTTL  07070IMCT  S0 PTB  00004                    2030 SR        000000000000 FUJITSU TEN (THAILAN160B46U0067067                                                                                                                              *          20160630IMF1606308.TXT
MDEUG6291418201607                D89828070100PT4U20160705000060SPEAKER ASM                   M IMCTM S0FL05 FTTL  07070IMCT  S0 PTB  00004                    2300 SR        000000000000 FUJITSU TEN (THAILAN160B41U0037037160B48U0190190                                                                                                                *          20160630IMF1606308.TXT
MDEUG6291419201607                D89828070100PT4U20160706000030SPEAKER ASM                   M IMCTM S0FL05 FTTL  07070IMCT  S0 PTB  00004                    0800 SR        000000000000 FUJITSU TEN (THAILAN160B42U0055055                                                                                                                              *          20160630IMF1606308.TXT
MDEUG6291420201607                D89828070100PT4U20160706000060SPEAKER ASM                   M IMCTM S0FL05 FTTL  07070IMCT  S0 PTB  00004                    1100 SR        000000000000 FUJITSU TEN (THAILAN160B48U0191191160B50U0001001                                                                                                                *          20160630IMF1606308.TXT
MDEUG6291421201607                D89828070100PT4U20160706000030SPEAKER ASM                   M IMCTM S0FL05 FTTL  07070IMCT  S0 PTB  00004                    2030 SR        000000000000 FUJITSU TEN (THAILAN160B36U0013013                                                                                                                              *          20160630IMF1606308.TXT
MDEUG6291422201607                D89828070200PV4U20160705000030SPEAKER ASM                   M IMCTM S0FR05 FTTL  07070IMCT  S0 PTB  00005                    2030 SR        000000000000 FUJITSU TEN (THAILAN160B46U0067067                                                                                                                              *          20160630IMF1606308.TXT
MDEUG6291423201607                D89828070200PV4U20160705000060SPEAKER ASM                   M IMCTM S0FR05 FTTL  07070IMCT  S0 PTB  00005                    2300 SR        000000000000 FUJITSU TEN (THAILAN160B41U0037037160B48U0190190                                                                                                                *          20160630IMF1606308.TXT
MDEUG6291424201607                D89828070200PV4U20160706000030SPEAKER ASM                   M IMCTM S0FR05 FTTL  07070IMCT  S0 PTB  00005                    0800 SR        000000000000 FUJITSU TEN (THAILAN160B42U0055055                                                                                                                              *          20160630IMF1606308.TXT
MDEUG6291425201607                D89828070200PV4U20160706000060SPEAKER ASM                   M IMCTM S0FR05 FTTL  07070IMCT  S0 PTB  00005                    1100 SR        000000000000 FUJITSU TEN (THAILAN160B48U0191191160B50U0001001                                                                                                                *          20160630IMF1606308.TXT
MDEUG6291426201607                D89828070200PV4U20160706000030SPEAKER ASM                   M IMCTM S0FR05 FTTL  07070IMCT  S0 PTB  00005                    2030 SR        000000000000 FUJITSU TEN (THAILAN160B36U0013013                                                                                                                              *          20160630IMF1606308.TXT
MDEUG6291427201607                D89828070300PT4U20160705000030SPEAKER ASM                   M IMCTM S9TS02 FTTL  07070IMCT  S9 PTB  00015                    2030 SR        000000000000 FUJITSU TEN (THAILAN160B46U0067067                                                                                                                              *          20160630IMF1606308.TXT
MDEUG6291428201607                D89828070300PT4U20160705000060SPEAKER ASM                   M IMCTM S9TS02 FTTL  07070IMCT  S9 PTB  00015                    2300 SR        000000000000 FUJITSU TEN (THAILAN160B41U0037037160B48U0190190                                                                                                                *          20160630IMF1606308.TXT
MDEUG6291429201607                D89828070300PT4U20160706000030SPEAKER ASM                   M IMCTM S9TS02 FTTL  07070IMCT  S9 PTB  00015                    0800 SR        000000000000 FUJITSU TEN (THAILAN160B42U0055055                                                                                                                              *          20160630IMF1606308.TXT
MDEUG6291430201607                D89828070300PT4U20160706000060SPEAKER ASM                   M IMCTM S9TS02 FTTL  07070IMCT  S9 PTB  00015                    1100 SR        000000000000 FUJITSU TEN (THAILAN160B48U0191191160B50U0001001                                                                                                                *          20160630IMF1606308.TXT
MDEUG6291431201607                D89828070300PT4U20160706000030SPEAKER ASM                   M IMCTM S9TS02 FTTL  07070IMCT  S9 PTB  00015                    2030 SR        000000000000 FUJITSU TEN (THAILAN160B36U0013013                                                                                                                              *          20160630IMF1606308.TXT
