REC2016072620160727ISUZU                              48     
MDDDG7266078201608                D89825217900PT1D20160730000030RADIO;AM/FM,CD,D              M IMCTM S5NC06 FTTL  07070IMCT  S5 PTB  00003                    0310 SR        000000000000 FUJITSU TEN (THAILAN160JYGL0125125                                                                                                                              *          20160726IMF1607265.TXT
MDDDG7266079201608                D89828070100PV1D20160730000060SPEAKER ASM                   M IMCTM S5MA12 FTTL  07070IMCT  S5 PTB  00004                    0310 SR        000000000000 FUJITSU TEN (THAILAN160JYGL0125125                                                                                                                              *          20160726IMF1607265.TXT
MDDDG7266080201608                D89828070100PV1D20160801000060SPEAKER ASM                   M IMCTM S5MA12 FTTL  07070IMCT  S5 PTB  00004                    1000 SR        000000000000 FUJITSU TEN (THAILAN160JXDL0021021                                                                                                                              *          20160726IMF1607265.TXT
MDDDG7266081201608                D89828070300PT1D20160730000060SPEAKER ASM                   M IMCTM S5NB042FTTL  07070IMCT  S5 PTB  00015                    0310 SR        000000000000 FUJITSU TEN (THAILAN160JYGL0125125                                                                                                                              *          20160726IMF1607265.TXT
MDEDG7315507201608                D89805293700PV1D20160729000030SPEAKER ASM                   M IMCTM S5MA12 FTTL  07070IMCT  S5 PTB  00003                    1510 SR        000000000000 FUJITSU TEN (THAILAN15068DL0052052                                                                                                                              *          20160726IMF1607265.TXT
MDEDG7315508201608                D89805293700PV1D20160729000090SPEAKER ASM                   M IMCTM S5MA12 FTTL  07070IMCT  S5 PTB  00003                    2230 SR        000000000000 FUJITSU TEN (THAILAN15054DL006806915060DL0129129                                                                                                                *          20160726IMF1607265.TXT
MDEDG7315509201608                D89805293700PV1D20160730000090SPEAKER ASM                   M IMCTM S5MA12 FTTL  07070IMCT  S5 PTB  00003                    0310 SR        000000000000 FUJITSU TEN (THAILAN15060DL0130132                                                                                                                              *          20160726IMF1607265.TXT
MDEDG7315510201608                D89805293700PV1D20160801000030SPEAKER ASM                   M IMCTM S5MA12 FTTL  07070IMCT  S5 PTB  00003                    1000 SR        000000000000 FUJITSU TEN (THAILAN15021CL0003003                                                                                                                              *          20160726IMF1607265.TXT
MDEDG7315511201608                D89805293700PV1D20160801000030SPEAKER ASM                   M IMCTM S5MA12 FTTL  07070IMCT  S5 PTB  00003                    1510 SR        000000000000 FUJITSU TEN (THAILAN15062DL0070070                                                                                                                              *          20160726IMF1607265.TXT
MDEDG7315512201608                D89805294000PT1D20160729000030SPEAKER ASM                   M IMCTM S5NB042FTTL  07070IMCT  S5 PTB  00015                    1510 SR        000000000000 FUJITSU TEN (THAILAN15068DL0052052                                                                                                                              *          20160726IMF1607265.TXT
MDEDG7315513201608                D89805294000PT1D20160729000030SPEAKER ASM                   M IMCTM S5NB042FTTL  07070IMCT  S5 PTB  00015                    2230 SR        000000000000 FUJITSU TEN (THAILAN15060DL0129129                                                                                                                              *          20160726IMF1607265.TXT
MDEDG7315514201608                D89805294000PT1D20160730000090SPEAKER ASM                   M IMCTM S5NB042FTTL  07070IMCT  S5 PTB  00015                    0310 SR        000000000000 FUJITSU TEN (THAILAN15060DL0130132                                                                                                                              *          20160726IMF1607265.TXT
MDEDG7315515201608                D89805294000PT1D20160801000030SPEAKER ASM                   M IMCTM S5NB042FTTL  07070IMCT  S5 PTB  00015                    1000 SR        000000000000 FUJITSU TEN (THAILAN15021CL0003003                                                                                                                              *          20160726IMF1607265.TXT
MDEDG7315516201608                D89805294000PT1D20160801000030SPEAKER ASM                   M IMCTM S5NB042FTTL  07070IMCT  S5 PTB  00015                    1510 SR        000000000000 FUJITSU TEN (THAILAN15062DL0070070                                                                                                                              *          20160726IMF1607265.TXT
MDEDG7315517201608                D89805294100PV1D20160801000030SPEAKER ASM                   M IMCTM S5MB13 FTTL  07070IMCT  S5 PTB  00005                    1000 SR        000000000000 FUJITSU TEN (THAILAN15021CL0003003                                                                                                                              *          20160726IMF1607265.TXT
MDEDG7315518201608                D89805294200PT1D20160729000030SPEAKER ASM                   M IMCTM S5AS011FTTL  07070IMCT  S6 PTB  00030                    1510 SR        000000000000 FUJITSU TEN (THAILAN15068DL0052052                                                                                                                              *          20160726IMF1607265.TXT
MDEDG7315519201608                D89805294200PT1D20160729000030SPEAKER ASM                   M IMCTM S5AS011FTTL  07070IMCT  S6 PTB  00030                    2230 SR        000000000000 FUJITSU TEN (THAILAN15060DL0129129                                                                                                                              *          20160726IMF1607265.TXT
MDEDG7315520201608                D89805294200PT1D20160730000090SPEAKER ASM                   M IMCTM S5AS011FTTL  07070IMCT  S6 PTB  00030                    0310 SR        000000000000 FUJITSU TEN (THAILAN15060DL0130132                                                                                                                              *          20160726IMF1607265.TXT
MDEDG7315521201608                D89805294200PT1D20160801000030SPEAKER ASM                   M IMCTM S5AS011FTTL  07070IMCT  S6 PTB  00030                    1510 SR        000000000000 FUJITSU TEN (THAILAN15062DL0070070                                                                                                                              *          20160726IMF1607265.TXT
MDEDG7315522201608                D89806470400PT1D20160729000015SPEAKER ASM;RDO,              M IMCTM S5EA18 FTTL  07070IMCT  S6 PTB  00015                    1510 SR        000000000000 FUJITSU TEN (THAILAN15068DL0052052                                                                                                                              *          20160726IMF1607265.TXT
MDEDG7315523201608                D89806470400PT1D20160729000015SPEAKER ASM;RDO,              M IMCTM S5EA18 FTTL  07070IMCT  S6 PTB  00015                    2230 SR        000000000000 FUJITSU TEN (THAILAN15060DL0129129                                                                                                                              *          20160726IMF1607265.TXT
MDEDG7315524201608                D89806470400PT1D20160730000045SPEAKER ASM;RDO,              M IMCTM S5EA18 FTTL  07070IMCT  S6 PTB  00015                    0310 SR        000000000000 FUJITSU TEN (THAILAN15060DL0130132                                                                                                                              *          20160726IMF1607265.TXT
MDEDG7315525201608                D89806470400PT1D20160801000015SPEAKER ASM;RDO,              M IMCTM S5EA18 FTTL  07070IMCT  S6 PTB  00015                    1510 SR        000000000000 FUJITSU TEN (THAILAN15062DL0070070                                                                                                                              *          20160726IMF1607265.TXT
MDEDG7315526201608                D89824360220PT1D20160729000030RADIO;AM/FM,CD                M IMCTM S5NC06 FTTL  07070IMCT  S5 CPB  00003                    2230 SR        000000000000 FUJITSU TEN (THAILAN15060DL012912915068DL0052052                                                                                                                *          20160726IMF1607265.TXT
MDEDG7315527201608                D89824360220PT1D20160730000045RADIO;AM/FM,CD                M IMCTM S5NC06 FTTL  07070IMCT  S5 CPB  00003                    0310 SR        000000000000 FUJITSU TEN (THAILAN15060DL0130132                                                                                                                              *          20160726IMF1607265.TXT
MDEDG7315528201608                D89824360220PT1D20160801000015RADIO;AM/FM,CD                M IMCTM S5NC06 FTTL  07070IMCT  S5 CPB  00003                    1510 SR        000000000000 FUJITSU TEN (THAILAN15062DL0070070                                                                                                                              *          20160726IMF1607265.TXT
MDEDG7315529201608                D89828070100PV1D20160729000060SPEAKER ASM                   M IMCTM S5MA12 FTTL  07070IMCT  S5 PTB  00004                    2230 SR        000000000000 FUJITSU TEN (THAILAN16007JL004604616081HL0106106                                                                                                                *          20160726IMF1607265.TXT
MDEDG7315530201608                D89828070100PV1D20160730000030SPEAKER ASM                   M IMCTM S5MA12 FTTL  07070IMCT  S5 PTB  00004                    0310 SR        000000000000 FUJITSU TEN (THAILAN16021KL0002002                                                                                                                              *          20160726IMF1607265.TXT
MDEDG7315531201608                D89828070100PV1D20160801000090SPEAKER ASM                   M IMCTM S5MA12 FTTL  07070IMCT  S5 PTB  00004                    1000 SR        000000000000 FUJITSU TEN (THAILAN16007JL004704716021KL0003004                                                                                                                *          20160726IMF1607265.TXT
MDEDG7315532201608                D89828070100PV1D20160801000090SPEAKER ASM                   M IMCTM S5MA12 FTTL  07070IMCT  S5 PTB  00004                    1510 SR        000000000000 FUJITSU TEN (THAILAN16021KL000500516071HL001601616080JL0003003                                                                                                  *          20160726IMF1607265.TXT
MDEDG7315533201608                D89828070200PV1D20160801000030SPEAKER ASM                   M IMCTM S5MA13 FTTL  07070IMCT  S5 PTB  00005                    1510 SR        000000000000 FUJITSU TEN (THAILAN16071HL0016016                                                                                                                              *          20160726IMF1607265.TXT
MDEDG7315534201608                D89828070300PT1D20160801000030SPEAKER ASM                   M IMCTM S5NB042FTTL  07070IMCT  S5 PTB  00015                    1510 SR        000000000000 FUJITSU TEN (THAILAN16071HL0016016                                                                                                                              *          20160726IMF1607265.TXT
MDEDG7315535201608                D89831228600PT1D20160801000015RADIO;AM/FM,CD                M IMCTM S5NC06 FTTL  07070IMCT  S5 PTB  00003                    1510 SR        000000000000 FUJITSU TEN (THAILAN16071HL0016016                                                                                                                              *          20160726IMF1607265.TXT
MDEUG7276226201608                D89828070100PT4U20160729000030SPEAKER ASM                   M IMCTM S0FL05 FTTL  07070IMCT  S0 PTB  00004                    2030 SR        000000000000 FUJITSU TEN (THAILAN160B46U0083083                                                                                                                              *          20160726IMF1607265.TXT
MDEUG7276227201608                D89828070100PT4U20160729000090SPEAKER ASM                   M IMCTM S0FL05 FTTL  07070IMCT  S0 PTB  00004                    2300 SR        000000000000 FUJITSU TEN (THAILAN160B45U0038038160B48U0237237160B53U0005005                                                                                                  *          20160726IMF1607265.TXT
MDEUG7276228201608                D89828070100PT4U20160801000030SPEAKER ASM                   M IMCTM S0FL05 FTTL  07070IMCT  S0 PTB  00004                    0800 SR        000000000000 FUJITSU TEN (THAILAN160B46U0084084                                                                                                                              *          20160726IMF1607265.TXT
MDEUG7276229201608                D89828070100PT4U20160801000090SPEAKER ASM                   M IMCTM S0FL05 FTTL  07070IMCT  S0 PTB  00004                    1100 SR        000000000000 FUJITSU TEN (THAILAN160B46U0085085160B48U0238239                                                                                                                *          20160726IMF1607265.TXT
MDEUG7276230201608                D89828070100PT4U20160801000030SPEAKER ASM                   M IMCTM S0FL05 FTTL  07070IMCT  S0 PTB  00004                    2030 SR        000000000000 FUJITSU TEN (THAILAN160B45U0039039                                                                                                                              *          20160726IMF1607265.TXT
MDEUG7276231201608                D89828070200PV4U20160729000030SPEAKER ASM                   M IMCTM S0FR05 FTTL  07070IMCT  S0 PTB  00005                    2030 SR        000000000000 FUJITSU TEN (THAILAN160B46U0083083                                                                                                                              *          20160726IMF1607265.TXT
MDEUG7276232201608                D89828070200PV4U20160729000090SPEAKER ASM                   M IMCTM S0FR05 FTTL  07070IMCT  S0 PTB  00005                    2300 SR        000000000000 FUJITSU TEN (THAILAN160B45U0038038160B48U0237237160B53U0005005                                                                                                  *          20160726IMF1607265.TXT
MDEUG7276233201608                D89828070200PV4U20160801000030SPEAKER ASM                   M IMCTM S0FR05 FTTL  07070IMCT  S0 PTB  00005                    0800 SR        000000000000 FUJITSU TEN (THAILAN160B46U0084084                                                                                                                              *          20160726IMF1607265.TXT
MDEUG7276234201608                D89828070200PV4U20160801000090SPEAKER ASM                   M IMCTM S0FR05 FTTL  07070IMCT  S0 PTB  00005                    1100 SR        000000000000 FUJITSU TEN (THAILAN160B46U0085085160B48U0238239                                                                                                                *          20160726IMF1607265.TXT
MDEUG7276235201608                D89828070200PV4U20160801000030SPEAKER ASM                   M IMCTM S0FR05 FTTL  07070IMCT  S0 PTB  00005                    2030 SR        000000000000 FUJITSU TEN (THAILAN160B45U0039039                                                                                                                              *          20160726IMF1607265.TXT
MDEUG7276236201608                D89828070300PT4U20160729000030SPEAKER ASM                   M IMCTM S9TS02 FTTL  07070IMCT  S9 PTB  00015                    2030 SR        000000000000 FUJITSU TEN (THAILAN160B46U0083083                                                                                                                              *          20160726IMF1607265.TXT
MDEUG7276237201608                D89828070300PT4U20160729000090SPEAKER ASM                   M IMCTM S9TS02 FTTL  07070IMCT  S9 PTB  00015                    2300 SR        000000000000 FUJITSU TEN (THAILAN160B45U0038038160B48U0237237160B53U0005005                                                                                                  *          20160726IMF1607265.TXT
MDEUG7276238201608                D89828070300PT4U20160801000030SPEAKER ASM                   M IMCTM S9TS02 FTTL  07070IMCT  S9 PTB  00015                    0800 SR        000000000000 FUJITSU TEN (THAILAN160B46U0084084                                                                                                                              *          20160726IMF1607265.TXT
MDEUG7276239201608                D89828070300PT4U20160801000090SPEAKER ASM                   M IMCTM S9TS02 FTTL  07070IMCT  S9 PTB  00015                    1100 SR        000000000000 FUJITSU TEN (THAILAN160B46U0085085160B48U0238239                                                                                                                *          20160726IMF1607265.TXT
MDEUG7276240201608                D89828070300PT4U20160801000030SPEAKER ASM                   M IMCTM S9TS02 FTTL  07070IMCT  S9 PTB  00015                    2030 SR        000000000000 FUJITSU TEN (THAILAN160B45U0039039                                                                                                                              *          20160726IMF1607265.TXT
