REC2016070520160706ISUZU                              46     
MDDDG7206244201607                D89821984430PT1D20160709000060RADIO;AM/FM,CD                M IMCTM S5NC06 FTTL  07070IMCT  S5 PTB  00005                    0310 SR        000000000000 FUJITSU TEN (THAILAN160JXAL0169169160JYPL0103103                                                                                                                *          20160705IMF1607054.TXT
MDDDG7206245201607                D89828070100PV1D20160709000120SPEAKER ASM                   M IMCTM S5MA12 FTTL  07070IMCT  S5 PTB  00004                    0310 SR        000000000000 FUJITSU TEN (THAILAN160JXAL0169169160JYPL0103103                                                                                                                *          20160705IMF1607054.TXT
MDDDG7206246201607                D89828070100PV1D20160711000120SPEAKER ASM                   M IMCTM S5MA12 FTTL  07070IMCT  S5 PTB  00004                    1000 SR        000000000000 FUJITSU TEN (THAILAN160JPUL0012012160JZGL0012012                                                                                                                *          20160705IMF1607054.TXT
MDDDG7206247201607                D89828070100PV1D20160711000060SPEAKER ASM                   M IMCTM S5MA12 FTTL  07070IMCT  S5 PTB  00004                    1510 SR        000000000000 FUJITSU TEN (THAILAN160JXDL0020020                                                                                                                              *          20160705IMF1607054.TXT
MDDDG7206248201607                D89828070200PV1D20160711000060SPEAKER ASM                   M IMCTM S5MA13 FTTL  07070IMCT  S5 PTB  00005                    1000 SR        000000000000 FUJITSU TEN (THAILAN160JZGL0012012                                                                                                                              *          20160705IMF1607054.TXT
MDDDG7206249201607                D89828070300PT1D20160711000120SPEAKER ASM                   M IMCTM S5NB042FTTL  07070IMCT  S5 PTB  00015                    1000 SR        000000000000 FUJITSU TEN (THAILAN160JPUL0012012160JZGL0012012                                                                                                                *          20160705IMF1607054.TXT
MDDDG7206250201607                D89829645900PT1D20160711000030RADIO;ASM DVD                 M IMCTM S5NC06 FTTL  07070IMCT  S5 CPB  00003                    1000 SR        000000000000 FUJITSU TEN (THAILAN160JZGL0012012                                                                                                                              *          20160705IMF1607054.TXT
MDDDG7206251201607                D89831228300PT1D20160711000030RADIO;AM/FM,CD                M IMCTM S5NC06 FTTL  07070IMCT  S5 CPB  00003                    1000 SR        000000000000 FUJITSU TEN (THAILAN160JPUL0012012                                                                                                                              *          20160705IMF1607054.TXT
MDDUG7203447201607                D89828070100PT4U20160711000030SPEAKER ASM                   M IMCTM S0FL05 FTTL  07070IMCT  S0 PTB  00004                    1100 SR        000000000000 FUJITSU TEN (THAILAN160JUPU0013013                                                                                                                              *          20160705IMF1607054.TXT
MDDUG7203448201607                D89828070200PV4U20160711000030SPEAKER ASM                   M IMCTM S0FR05 FTTL  07070IMCT  S0 PTB  00005                    1100 SR        000000000000 FUJITSU TEN (THAILAN160JUPU0013013                                                                                                                              *          20160705IMF1607054.TXT
MDDUG7203449201607                D89828070300PT4U20160711000030SPEAKER ASM                   M IMCTM S9TS02 FTTL  07070IMCT  S9 PTB  00015                    1100 SR        000000000000 FUJITSU TEN (THAILAN160JUPU0013013                                                                                                                              *          20160705IMF1607054.TXT
MDDUG7203450201607                D89831228400PT4U20160711000015RADIO;AM/FM,CD                M IMCTM S9CO001FTTL  07070IMCT  S9 CPB  00003                    1100 SR        000000000000 FUJITSU TEN (THAILAN160JUPU0013013                                                                                                                              *          20160705IMF1607054.TXT
MDEDG7216673201607                D89805293700PV1D20160708000090SPEAKER ASM                   M IMCTM S5MA12 FTTL  07070IMCT  S5 PTB  00003                    2230 SR        000000000000 FUJITSU TEN (THAILAN15076DL001301315080DL0001002                                                                                                                *          20160705IMF1607054.TXT
MDEDG7216674201607                D89805293700PV1D20160709000060SPEAKER ASM                   M IMCTM S5MA12 FTTL  07070IMCT  S5 PTB  00003                    0310 SR        000000000000 FUJITSU TEN (THAILAN15019FL0086087                                                                                                                              *          20160705IMF1607054.TXT
MDEDG7216675201607                D89805293700PV1D20160711000030SPEAKER ASM                   M IMCTM S5MA12 FTTL  07070IMCT  S5 PTB  00003                    1000 SR        000000000000 FUJITSU TEN (THAILAN15019FL0088088                                                                                                                              *          20160705IMF1607054.TXT
MDEDG7216676201607                D89805293700PV4D20160708000030SPEAKER ASM                   M IMCTM S0FR05 FTTL  07070IMCT  S0 PTB  00003                    2300 SR        000000000000 FUJITSU TEN (THAILAN15076DU0005005                                                                                                                              *          20160705IMF1607054.TXT
MDEDG7216677201607                D89805293700PV4D20160709000030SPEAKER ASM                   M IMCTM S0FR05 FTTL  07070IMCT  S0 PTB  00003                    0310 SR        000000000000 FUJITSU TEN (THAILAN15076DU0006006                                                                                                                              *          20160705IMF1607054.TXT
MDEDG7216678201607                D89805294000PT1D20160708000060SPEAKER ASM                   M IMCTM S5NB042FTTL  07070IMCT  S5 PTB  00015                    2230 SR        000000000000 FUJITSU TEN (THAILAN15080DL0001002                                                                                                                              *          20160705IMF1607054.TXT
MDEDG7216679201607                D89805294200PT1D20160708000060SPEAKER ASM                   M IMCTM S5AS011FTTL  07070IMCT  S6 PTB  00030                    2230 SR        000000000000 FUJITSU TEN (THAILAN15080DL0001002                                                                                                                              *          20160705IMF1607054.TXT
MDEDG7216680201607                D89806470400PT1D20160708000030SPEAKER ASM;RDO,              M IMCTM S5EA18 FTTL  07070IMCT  S6 PTB  00015                    2230 SR        000000000000 FUJITSU TEN (THAILAN15080DL0001002                                                                                                                              *          20160705IMF1607054.TXT
MDEDG7216681201607                D89824360220PT1D20160708000030RADIO;AM/FM,CD                M IMCTM S5NC06 FTTL  07070IMCT  S5 CPB  00003                    2230 SR        000000000000 FUJITSU TEN (THAILAN15080DL0001002                                                                                                                              *          20160705IMF1607054.TXT
MDEDG7216682201607                D89828070100PV1D20160708000030SPEAKER ASM                   M IMCTM S5MA12 FTTL  07070IMCT  S5 PTB  00004                    1510 SR        000000000000 FUJITSU TEN (THAILAN16081HL0094094                                                                                                                              *          20160705IMF1607054.TXT
MDEDG7216683201607                D89828070100PV1D20160708000060SPEAKER ASM                   M IMCTM S5MA12 FTTL  07070IMCT  S5 PTB  00004                    2230 SR        000000000000 FUJITSU TEN (THAILAN16075HL0018019                                                                                                                              *          20160705IMF1607054.TXT
MDEDG7216684201607                D89828070100PV1D20160711000060SPEAKER ASM                   M IMCTM S5MA12 FTTL  07070IMCT  S5 PTB  00004                    1000 SR        000000000000 FUJITSU TEN (THAILAN16007JL0034035                                                                                                                              *          20160705IMF1607054.TXT
MDEDG7216685201607                D89828070100PV1D20160711000060SPEAKER ASM                   M IMCTM S5MA12 FTTL  07070IMCT  S5 PTB  00004                    1510 SR        000000000000 FUJITSU TEN (THAILAN16016KL000700716034KL0001001                                                                                                                *          20160705IMF1607054.TXT
MDEDG7216686201607                D89828070100PV4D20160711000030SPEAKER ASM                   M IMCTM S0FL05 FTTL  07070IMCT  S0 PTB  00004                    2030 SR        000000000000 FUJITSU TEN (THAILAN16072HU0022022                                                                                                                              *          20160705IMF1607054.TXT
MDEDG7216687201607                D89828070200PV1D20160711000030SPEAKER ASM                   M IMCTM S5MA13 FTTL  07070IMCT  S5 PTB  00005                    1510 SR        000000000000 FUJITSU TEN (THAILAN16034KL0001001                                                                                                                              *          20160705IMF1607054.TXT
MDEDG7216688201607                D89828070200PV4D20160711000030SPEAKER ASM                   M IMCTM S0FR05 FTTL  07070IMCT  S0 PTB  00005                    2030 SR        000000000000 FUJITSU TEN (THAILAN16072HU0022022                                                                                                                              *          20160705IMF1607054.TXT
MDEDG7216689201607                D89828070300PT1D20160711000030SPEAKER ASM                   M IMCTM S5NB042FTTL  07070IMCT  S5 PTB  00015                    1510 SR        000000000000 FUJITSU TEN (THAILAN16034KL0001001                                                                                                                              *          20160705IMF1607054.TXT
MDEDG7216690201607                D89828070300PT4D20160711000030SPEAKER ASM                   M IMCTM S9TS02 FTTL  07070IMCT  S9 PTB  00015                    2030 SR        000000000000 FUJITSU TEN (THAILAN16072HU0022022                                                                                                                              *          20160705IMF1607054.TXT
MDEDG7216691201607                D89831229000PT1D20160711000015RADIO;AM/FM,CD                M IMCTM S5NC06 FTTL  07070IMCT  S5 PTB  00003                    1510 SR        000000000000 FUJITSU TEN (THAILAN16034KL0001001                                                                                                                              *          20160705IMF1607054.TXT
MDEUG7209774201607                D89828070100PT4U20160709000030SPEAKER ASM                   M IMCTM S0FL05 FTTL  07070IMCT  S0 PTB  00004                    0310 SR        000000000000 FUJITSU TEN (THAILAN160B42U0058058                                                                                                                              *          20160705IMF1607054.TXT
MDEUG7209775201607                D89828070100PT4U20160711000060SPEAKER ASM                   M IMCTM S0FL05 FTTL  07070IMCT  S0 PTB  00004                    0800 SR        000000000000 FUJITSU TEN (THAILAN160B45U0030030160B48U0197197                                                                                                                *          20160705IMF1607054.TXT
MDEUG7209776201607                D89828070100PT4U20160711000030SPEAKER ASM                   M IMCTM S0FL05 FTTL  07070IMCT  S0 PTB  00004                    1100 SR        000000000000 FUJITSU TEN (THAILAN160B42U0059059                                                                                                                              *          20160705IMF1607054.TXT
MDEUG7209777201607                D89828070100PT4U20160711000030SPEAKER ASM                   M IMCTM S0FL05 FTTL  07070IMCT  S0 PTB  00004                    1510 SR        000000000000 FUJITSU TEN (THAILAN160B48U0198198                                                                                                                              *          20160705IMF1607054.TXT
MDEUG7209778201607                D89828070100PT4U20160711000030SPEAKER ASM                   M IMCTM S0FL05 FTTL  07070IMCT  S0 PTB  00004                    2030 SR        000000000000 FUJITSU TEN (THAILAN160B37U0025025                                                                                                                              *          20160705IMF1607054.TXT
MDEUG7209779201607                D89828070200PV4U20160709000030SPEAKER ASM                   M IMCTM S0FR05 FTTL  07070IMCT  S0 PTB  00005                    0310 SR        000000000000 FUJITSU TEN (THAILAN160B42U0058058                                                                                                                              *          20160705IMF1607054.TXT
MDEUG7209780201607                D89828070200PV4U20160711000060SPEAKER ASM                   M IMCTM S0FR05 FTTL  07070IMCT  S0 PTB  00005                    0800 SR        000000000000 FUJITSU TEN (THAILAN160B45U0030030160B48U0197197                                                                                                                *          20160705IMF1607054.TXT
MDEUG7209781201607                D89828070200PV4U20160711000030SPEAKER ASM                   M IMCTM S0FR05 FTTL  07070IMCT  S0 PTB  00005                    1100 SR        000000000000 FUJITSU TEN (THAILAN160B42U0059059                                                                                                                              *          20160705IMF1607054.TXT
MDEUG7209782201607                D89828070200PV4U20160711000030SPEAKER ASM                   M IMCTM S0FR05 FTTL  07070IMCT  S0 PTB  00005                    1510 SR        000000000000 FUJITSU TEN (THAILAN160B48U0198198                                                                                                                              *          20160705IMF1607054.TXT
MDEUG7209783201607                D89828070200PV4U20160711000030SPEAKER ASM                   M IMCTM S0FR05 FTTL  07070IMCT  S0 PTB  00005                    2030 SR        000000000000 FUJITSU TEN (THAILAN160B37U0025025                                                                                                                              *          20160705IMF1607054.TXT
MDEUG7209784201607                D89828070300PT4U20160709000030SPEAKER ASM                   M IMCTM S9TS02 FTTL  07070IMCT  S9 PTB  00015                    0310 SR        000000000000 FUJITSU TEN (THAILAN160B42U0058058                                                                                                                              *          20160705IMF1607054.TXT
MDEUG7209785201607                D89828070300PT4U20160711000060SPEAKER ASM                   M IMCTM S9TS02 FTTL  07070IMCT  S9 PTB  00015                    0800 SR        000000000000 FUJITSU TEN (THAILAN160B45U0030030160B48U0197197                                                                                                                *          20160705IMF1607054.TXT
MDEUG7209786201607                D89828070300PT4U20160711000030SPEAKER ASM                   M IMCTM S9TS02 FTTL  07070IMCT  S9 PTB  00015                    1100 SR        000000000000 FUJITSU TEN (THAILAN160B42U0059059                                                                                                                              *          20160705IMF1607054.TXT
MDEUG7209787201607                D89828070300PT4U20160711000030SPEAKER ASM                   M IMCTM S9TS02 FTTL  07070IMCT  S9 PTB  00015                    1510 SR        000000000000 FUJITSU TEN (THAILAN160B48U0198198                                                                                                                              *          20160705IMF1607054.TXT
MDEUG7209788201607                D89828070300PT4U20160711000030SPEAKER ASM                   M IMCTM S9TS02 FTTL  07070IMCT  S9 PTB  00015                    2030 SR        000000000000 FUJITSU TEN (THAILAN160B37U0025025                                                                                                                              *          20160705IMF1607054.TXT
