REC2016072220160722ISUZU                              52     
MDDDG7252795201607                D89821984430PT1D20160727000060RADIO;AM/FM,CD                M IMCTM S5NC06 FTTL  07070IMCT  S5 PTB  00005                    1000 SR        000000000000 FUJITSU TEN (THAILAN160JNGL0077078                                                                                                                              *          20160722IMF1607225.TXT
MDDDG7252796201607                D89821984430PT1D20160727000030RADIO;AM/FM,CD                M IMCTM S5NC06 FTTL  07070IMCT  S5 PTB  00005                    1510 SR        000000000000 FUJITSU TEN (THAILAN160JXEL0090090                                                                                                                              *          20160722IMF1607225.TXT
MDDDG7252797201607                D89828070100PV1D20160726000060SPEAKER ASM                   M IMCTM S5MA12 FTTL  07070IMCT  S5 PTB  00004                    2230 SR        000000000000 FUJITSU TEN (THAILAN160JYCL0035035                                                                                                                              *          20160722IMF1607225.TXT
MDDDG7252798201607                D89828070100PV1D20160727000060SPEAKER ASM                   M IMCTM S5MA12 FTTL  07070IMCT  S5 PTB  00004                    0310 SR        000000000000 FUJITSU TEN (THAILAN160JZEL0010010                                                                                                                              *          20160722IMF1607225.TXT
MDDDG7252799201607                D89828070100PV1D20160727000180SPEAKER ASM                   M IMCTM S5MA12 FTTL  07070IMCT  S5 PTB  00004                    1000 SR        000000000000 FUJITSU TEN (THAILAN160JNGL0077078160JYQL0049049                                                                                                                *          20160722IMF1607225.TXT
MDDDG7252800201607                D89828070100PV1D20160727000120SPEAKER ASM                   M IMCTM S5MA12 FTTL  07070IMCT  S5 PTB  00004                    1510 SR        000000000000 FUJITSU TEN (THAILAN160JXEL0090090160JYSL0129129                                                                                                                *          20160722IMF1607225.TXT
MDDDG7252801201607                D89828070100PV4D20160727000060SPEAKER ASM                   M IMCTM S0FL05 FTTL  07070IMCT  S0 PTB  00004                    0310 SR        000000000000 FUJITSU TEN (THAILAN160JRVU0003003                                                                                                                              *          20160722IMF1607225.TXT
MDDDG7252802201607                D89828070200PV1D20160727000060SPEAKER ASM                   M IMCTM S5MA13 FTTL  07070IMCT  S5 PTB  00005                    0310 SR        000000000000 FUJITSU TEN (THAILAN160JZEL0010010                                                                                                                              *          20160722IMF1607225.TXT
MDDDG7252803201607                D89828070200PV4D20160727000060SPEAKER ASM                   M IMCTM S0FR05 FTTL  07070IMCT  S0 PTB  00005                    0310 SR        000000000000 FUJITSU TEN (THAILAN160JRVU0003003                                                                                                                              *          20160722IMF1607225.TXT
MDDDG7252804201607                D89828070300PT1D20160726000060SPEAKER ASM                   M IMCTM S5NB042FTTL  07070IMCT  S5 PTB  00015                    2230 SR        000000000000 FUJITSU TEN (THAILAN160JYCL0035035                                                                                                                              *          20160722IMF1607225.TXT
MDDDG7252805201607                D89828070300PT1D20160727000060SPEAKER ASM                   M IMCTM S5NB042FTTL  07070IMCT  S5 PTB  00015                    0310 SR        000000000000 FUJITSU TEN (THAILAN160JZEL0010010                                                                                                                              *          20160722IMF1607225.TXT
MDDDG7252806201607                D89828070300PT1D20160727000060SPEAKER ASM                   M IMCTM S5NB042FTTL  07070IMCT  S5 PTB  00015                    1000 SR        000000000000 FUJITSU TEN (THAILAN160JYQL0049049                                                                                                                              *          20160722IMF1607225.TXT
MDDDG7252807201607                D89828070300PT1D20160727000060SPEAKER ASM                   M IMCTM S5NB042FTTL  07070IMCT  S5 PTB  00015                    1510 SR        000000000000 FUJITSU TEN (THAILAN160JYSL0129129                                                                                                                              *          20160722IMF1607225.TXT
MDDDG7252808201607                D89828070300PT4D20160727000060SPEAKER ASM                   M IMCTM S9TS02 FTTL  07070IMCT  S9 PTB  00015                    0310 SR        000000000000 FUJITSU TEN (THAILAN160JRVU0003003                                                                                                                              *          20160722IMF1607225.TXT
MDDDG7252809201607                D89831228300PT1D20160726000030RADIO;AM/FM,CD                M IMCTM S5NC06 FTTL  07070IMCT  S5 CPB  00003                    2230 SR        000000000000 FUJITSU TEN (THAILAN160JYCL0035035                                                                                                                              *          20160722IMF1607225.TXT
MDDDG7252810201607                D89831228300PT1D20160727000030RADIO;AM/FM,CD                M IMCTM S5NC06 FTTL  07070IMCT  S5 CPB  00003                    1000 SR        000000000000 FUJITSU TEN (THAILAN160JYQL0049049                                                                                                                              *          20160722IMF1607225.TXT
MDDDG7252811201607                D89831228300PT1D20160727000030RADIO;AM/FM,CD                M IMCTM S5NC06 FTTL  07070IMCT  S5 CPB  00003                    1510 SR        000000000000 FUJITSU TEN (THAILAN160JYSL0129129                                                                                                                              *          20160722IMF1607225.TXT
MDDDG7252812201607                D89831228400PT1D20160727000030RADIO;AM/FM,CD                M IMCTM S5NC06 FTTL  07070IMCT  S5 CPB  00003                    0310 SR        000000000000 FUJITSU TEN (THAILAN160JZEL0010010                                                                                                                              *          20160722IMF1607225.TXT
MDEDG7299292201607                D89828070100PV1D20160726000090SPEAKER ASM                   M IMCTM S5MA12 FTTL  07070IMCT  S5 PTB  00004                    2230 SR        000000000000 FUJITSU TEN (THAILAN16047HL001401416071HL0012013                                                                                                                *          20160722IMF1607225.TXT
MDEDG7299293201607                D89828070100PV1D20160727000090SPEAKER ASM                   M IMCTM S5MA12 FTTL  07070IMCT  S5 PTB  00004                    0310 SR        000000000000 FUJITSU TEN (THAILAN16047HL001501516083KL0032033                                                                                                                *          20160722IMF1607225.TXT
MDEDG7299294201607                D89828070100PV1D20160727000060SPEAKER ASM                   M IMCTM S5MA12 FTTL  07070IMCT  S5 PTB  00004                    1510 SR        000000000000 FUJITSU TEN (THAILAN16061HL0004005                                                                                                                              *          20160722IMF1607225.TXT
MDEDG7299295201607                D89828070100PV4D20160727000030SPEAKER ASM                   M IMCTM S0FL05 FTTL  07070IMCT  S0 PTB  00004                    0800 SR        000000000000 FUJITSU TEN (THAILAN16075HU0018018                                                                                                                              *          20160722IMF1607225.TXT
MDEDG7299296201607                D89828070100PV4D20160727000030SPEAKER ASM                   M IMCTM S0FL05 FTTL  07070IMCT  S0 PTB  00004                    1100 SR        000000000000 FUJITSU TEN (THAILAN16072HU0036036                                                                                                                              *          20160722IMF1607225.TXT
MDEDG7299297201607                D89828070100PV4D20160727000030SPEAKER ASM                   M IMCTM S0FL05 FTTL  07070IMCT  S0 PTB  00004                    2030 SR        000000000000 FUJITSU TEN (THAILAN16065HU0002002                                                                                                                              *          20160722IMF1607225.TXT
MDEDG7299298201607                D89828070200PV1D20160726000060SPEAKER ASM                   M IMCTM S5MA13 FTTL  07070IMCT  S5 PTB  00005                    2230 SR        000000000000 FUJITSU TEN (THAILAN16071HL0012013                                                                                                                              *          20160722IMF1607225.TXT
MDEDG7299299201607                D89828070200PV1D20160727000060SPEAKER ASM                   M IMCTM S5MA13 FTTL  07070IMCT  S5 PTB  00005                    1510 SR        000000000000 FUJITSU TEN (THAILAN16061HL0004005                                                                                                                              *          20160722IMF1607225.TXT
MDEDG7299300201607                D89828070200PV4D20160727000030SPEAKER ASM                   M IMCTM S0FR05 FTTL  07070IMCT  S0 PTB  00005                    1100 SR        000000000000 FUJITSU TEN (THAILAN16072HU0036036                                                                                                                              *          20160722IMF1607225.TXT
MDEDG7299301201607                D89828070200PV4D20160727000030SPEAKER ASM                   M IMCTM S0FR05 FTTL  07070IMCT  S0 PTB  00005                    2030 SR        000000000000 FUJITSU TEN (THAILAN16065HU0002002                                                                                                                              *          20160722IMF1607225.TXT
MDEDG7299302201607                D89828070300PT1D20160726000090SPEAKER ASM                   M IMCTM S5NB042FTTL  07070IMCT  S5 PTB  00015                    2230 SR        000000000000 FUJITSU TEN (THAILAN16047HL001401416071HL0012013                                                                                                                *          20160722IMF1607225.TXT
MDEDG7299303201607                D89828070300PT1D20160727000030SPEAKER ASM                   M IMCTM S5NB042FTTL  07070IMCT  S5 PTB  00015                    0310 SR        000000000000 FUJITSU TEN (THAILAN16047HL0015015                                                                                                                              *          20160722IMF1607225.TXT
MDEDG7299304201607                D89828070300PT1D20160727000060SPEAKER ASM                   M IMCTM S5NB042FTTL  07070IMCT  S5 PTB  00015                    1510 SR        000000000000 FUJITSU TEN (THAILAN16061HL0004005                                                                                                                              *          20160722IMF1607225.TXT
MDEDG7299305201607                D89828070300PT4D20160727000030SPEAKER ASM                   M IMCTM S9TS02 FTTL  07070IMCT  S9 PTB  00015                    1100 SR        000000000000 FUJITSU TEN (THAILAN16072HU0036036                                                                                                                              *          20160722IMF1607225.TXT
MDEDG7299306201607                D89828070300PT4D20160727000030SPEAKER ASM                   M IMCTM S9TS02 FTTL  07070IMCT  S9 PTB  00015                    2030 SR        000000000000 FUJITSU TEN (THAILAN16065HU0002002                                                                                                                              *          20160722IMF1607225.TXT
MDEDG7299307201607                D89831228600PT1D20160726000045RADIO;AM/FM,CD                M IMCTM S5NC06 FTTL  07070IMCT  S5 PTB  00003                    2230 SR        000000000000 FUJITSU TEN (THAILAN16047HL001401416071HL0012013                                                                                                                *          20160722IMF1607225.TXT
MDEDG7299308201607                D89831228600PT1D20160727000015RADIO;AM/FM,CD                M IMCTM S5NC06 FTTL  07070IMCT  S5 PTB  00003                    0310 SR        000000000000 FUJITSU TEN (THAILAN16047HL0015015                                                                                                                              *          20160722IMF1607225.TXT
MDEDG7299309201607                D89831228600PT1D20160727000030RADIO;AM/FM,CD                M IMCTM S5NC06 FTTL  07070IMCT  S5 PTB  00003                    1510 SR        000000000000 FUJITSU TEN (THAILAN16061HL0004005                                                                                                                              *          20160722IMF1607225.TXT
MDEDG7299310201607                D89831228600PT4D20160727000015RADIO;AM/FM,CD                M IMCTM S9CO001FTTL  07070IMCT  S9 PTB  00003                    2030 SR        000000000000 FUJITSU TEN (THAILAN16065HU0002002                                                                                                                              *          20160722IMF1607225.TXT
MDEUG7263396201607                D89828070100PT4U20160726000030SPEAKER ASM                   M IMCTM S0FL05 FTTL  07070IMCT  S0 PTB  00004                    2030 SR        000000000000 FUJITSU TEN (THAILAN160B48U0235235                                                                                                                              *          20160722IMF1607225.TXT
MDEUG7263397201607                D89828070100PT4U20160726000060SPEAKER ASM                   M IMCTM S0FL05 FTTL  07070IMCT  S0 PTB  00004                    2300 SR        000000000000 FUJITSU TEN (THAILAN160B42U0066066160B46U0080080                                                                                                                *          20160722IMF1607225.TXT
MDEUG7263398201607                D89828070100PT4U20160727000030SPEAKER ASM                   M IMCTM S0FL05 FTTL  07070IMCT  S0 PTB  00004                    0800 SR        000000000000 FUJITSU TEN (THAILAN160B42U0067067                                                                                                                              *          20160722IMF1607225.TXT
MDEUG7263399201607                D89828070100PT4U20160727000060SPEAKER ASM                   M IMCTM S0FL05 FTTL  07070IMCT  S0 PTB  00004                    1100 SR        000000000000 FUJITSU TEN (THAILAN160B46U0081081160B48U0236236                                                                                                                *          20160722IMF1607225.TXT
MDEUG7263400201607                D89828070100PT4U20160727000030SPEAKER ASM                   M IMCTM S0FL05 FTTL  07070IMCT  S0 PTB  00004                    1510 SR        000000000000 FUJITSU TEN (THAILAN160B41U0041041                                                                                                                              *          20160722IMF1607225.TXT
MDEUG7263401201607                D89828070200PV4U20160726000030SPEAKER ASM                   M IMCTM S0FR05 FTTL  07070IMCT  S0 PTB  00005                    2030 SR        000000000000 FUJITSU TEN (THAILAN160B48U0235235                                                                                                                              *          20160722IMF1607225.TXT
MDEUG7263402201607                D89828070200PV4U20160726000060SPEAKER ASM                   M IMCTM S0FR05 FTTL  07070IMCT  S0 PTB  00005                    2300 SR        000000000000 FUJITSU TEN (THAILAN160B42U0066066160B46U0080080                                                                                                                *          20160722IMF1607225.TXT
MDEUG7263403201607                D89828070200PV4U20160727000030SPEAKER ASM                   M IMCTM S0FR05 FTTL  07070IMCT  S0 PTB  00005                    0800 SR        000000000000 FUJITSU TEN (THAILAN160B42U0067067                                                                                                                              *          20160722IMF1607225.TXT
MDEUG7263404201607                D89828070200PV4U20160727000060SPEAKER ASM                   M IMCTM S0FR05 FTTL  07070IMCT  S0 PTB  00005                    1100 SR        000000000000 FUJITSU TEN (THAILAN160B46U0081081160B48U0236236                                                                                                                *          20160722IMF1607225.TXT
MDEUG7263405201607                D89828070200PV4U20160727000030SPEAKER ASM                   M IMCTM S0FR05 FTTL  07070IMCT  S0 PTB  00005                    1510 SR        000000000000 FUJITSU TEN (THAILAN160B41U0041041                                                                                                                              *          20160722IMF1607225.TXT
MDEUG7263406201607                D89828070300PT4U20160726000030SPEAKER ASM                   M IMCTM S9TS02 FTTL  07070IMCT  S9 PTB  00015                    2030 SR        000000000000 FUJITSU TEN (THAILAN160B48U0235235                                                                                                                              *          20160722IMF1607225.TXT
MDEUG7263407201607                D89828070300PT4U20160726000060SPEAKER ASM                   M IMCTM S9TS02 FTTL  07070IMCT  S9 PTB  00015                    2300 SR        000000000000 FUJITSU TEN (THAILAN160B42U0066066160B46U0080080                                                                                                                *          20160722IMF1607225.TXT
MDEUG7263408201607                D89828070300PT4U20160727000030SPEAKER ASM                   M IMCTM S9TS02 FTTL  07070IMCT  S9 PTB  00015                    0800 SR        000000000000 FUJITSU TEN (THAILAN160B42U0067067                                                                                                                              *          20160722IMF1607225.TXT
MDEUG7263409201607                D89828070300PT4U20160727000060SPEAKER ASM                   M IMCTM S9TS02 FTTL  07070IMCT  S9 PTB  00015                    1100 SR        000000000000 FUJITSU TEN (THAILAN160B46U0081081160B48U0236236                                                                                                                *          20160722IMF1607225.TXT
MDEUG7263410201607                D89828070300PT4U20160727000030SPEAKER ASM                   M IMCTM S9TS02 FTTL  07070IMCT  S9 PTB  00015                    1510 SR        000000000000 FUJITSU TEN (THAILAN160B41U0041041                                                                                                                              *          20160722IMF1607225.TXT
