REC2016083120160831ISUZU                              58     
MDEDG8337611201609                D89805293700PV1D20160905000060SPEAKER ASM                   M IMCTM S5MA12 FTTL  07070IMCT  S5 PTB  00003                    2230 SR        000000000000 FUJITSU TEN (THAILAN15019FL0098099                                                                                                                              *          20160831IMF1608314.TXT
MDEDG8337612201609                D89805293700PV1D20160906000030SPEAKER ASM                   M IMCTM S5MA12 FTTL  07070IMCT  S5 PTB  00003                    0230 SR        000000000000 FUJITSU TEN (THAILAN15019FL0100100                                                                                                                              *          20160831IMF1608314.TXT
MDEDG8337613201609                D89805293700PV1D20160906000060SPEAKER ASM                   M IMCTM S5MA12 FTTL  07070IMCT  S5 PTB  00003                    0400 SR        000000000000 FUJITSU TEN (THAILAN15019FL0101102                                                                                                                              *          20160831IMF1608314.TXT
MDEDG8337614201609                D89805293700PV1D20160906000060SPEAKER ASM                   M IMCTM S5MA12 FTTL  07070IMCT  S5 PTB  00003                    0900 SR        000000000000 FUJITSU TEN (THAILAN15019FL010310315020FL0009009                                                                                                                *          20160831IMF1608314.TXT
MDEDG8337615201609                D89805294000PT1D20160906000030SPEAKER ASM                   M IMCTM S5NB042FTTL  07070IMCT  S5 PTB  00015                    0900 SR        000000000000 FUJITSU TEN (THAILAN15020FL0009009                                                                                                                              *          20160831IMF1608314.TXT
MDEDG8337616201609                D89805294100PV1D20160906000030SPEAKER ASM                   M IMCTM S5MB13 FTTL  07070IMCT  S5 PTB  00005                    0900 SR        000000000000 FUJITSU TEN (THAILAN15020FL0009009                                                                                                                              *          20160831IMF1608314.TXT
MDEDG8337617201609                D89828070100PV1D20160905000060SPEAKER ASM                   M IMCTM S5MA12 FTTL  07070IMCT  S5 PTB  00004                    2100 SR        000000000000 FUJITSU TEN (THAILAN16047HL003203216056KL0001001                                                                                                                *          20160831IMF1608314.TXT
MDEDG8337618201609                D89828070100PV1D20160905000090SPEAKER ASM                   M IMCTM S5MA12 FTTL  07070IMCT  S5 PTB  00004                    2230 SR        000000000000 FUJITSU TEN (THAILAN16047HL003303316048HL001301316059KL0001001                                                                                                  *          20160831IMF1608314.TXT
MDEDG8337619201609                D89828070100PV1D20160906000030SPEAKER ASM                   M IMCTM S5MA12 FTTL  07070IMCT  S5 PTB  00004                    0230 SR        000000000000 FUJITSU TEN (THAILAN16048HL0014014                                                                                                                              *          20160831IMF1608314.TXT
MDEDG8337620201609                D89828070100PV1D20160906000030SPEAKER ASM                   M IMCTM S5MA12 FTTL  07070IMCT  S5 PTB  00004                    0400 SR        000000000000 FUJITSU TEN (THAILAN16048HL0015015                                                                                                                              *          20160831IMF1608314.TXT
MDEDG8337621201609                D89828070100PV1D20160906000060SPEAKER ASM                   M IMCTM S5MA12 FTTL  07070IMCT  S5 PTB  00004                    0900 SR        000000000000 FUJITSU TEN (THAILAN16050HL0015016                                                                                                                              *          20160831IMF1608314.TXT
MDEDG8337622201609                D89828070100PV1D20160906000150SPEAKER ASM                   M IMCTM S5MA12 FTTL  07070IMCT  S5 PTB  00004                    1300 SR        000000000000 FUJITSU TEN (THAILAN16046KL001701716047HL003403516049HL001401416055KL0001001                                                                                    *          20160831IMF1608314.TXT
MDEDG8337623201609                D89828070100PV1D20160906000030SPEAKER ASM                   M IMCTM S5MA12 FTTL  07070IMCT  S5 PTB  00004                    1600 SR        000000000000 FUJITSU TEN (THAILAN16046KL0018018                                                                                                                              *          20160831IMF1608314.TXT
MDEDG8337624201609                D89828070200PV1D20160905000030SPEAKER ASM                   M IMCTM S5MA13 FTTL  07070IMCT  S5 PTB  00005                    2100 SR        000000000000 FUJITSU TEN (THAILAN16056KL0001001                                                                                                                              *          20160831IMF1608314.TXT
MDEDG8337625201609                D89828070200PV1D20160905000030SPEAKER ASM                   M IMCTM S5MA13 FTTL  07070IMCT  S5 PTB  00005                    2230 SR        000000000000 FUJITSU TEN (THAILAN16059KL0001001                                                                                                                              *          20160831IMF1608314.TXT
MDEDG8337626201609                D89828070200PV1D20160906000060SPEAKER ASM                   M IMCTM S5MA13 FTTL  07070IMCT  S5 PTB  00005                    0900 SR        000000000000 FUJITSU TEN (THAILAN16050HL0015016                                                                                                                              *          20160831IMF1608314.TXT
MDEDG8337627201609                D89828070200PV1D20160906000090SPEAKER ASM                   M IMCTM S5MA13 FTTL  07070IMCT  S5 PTB  00005                    1300 SR        000000000000 FUJITSU TEN (THAILAN16046KL001701716049HL001401416055KL0001001                                                                                                  *          20160831IMF1608314.TXT
MDEDG8337628201609                D89828070200PV1D20160906000030SPEAKER ASM                   M IMCTM S5MA13 FTTL  07070IMCT  S5 PTB  00005                    1600 SR        000000000000 FUJITSU TEN (THAILAN16046KL0018018                                                                                                                              *          20160831IMF1608314.TXT
MDEDG8337629201609                D89828070300PT1D20160905000060SPEAKER ASM                   M IMCTM S5NB042FTTL  07070IMCT  S5 PTB  00015                    2100 SR        000000000000 FUJITSU TEN (THAILAN16047HL003203216056KL0001001                                                                                                                *          20160831IMF1608314.TXT
MDEDG8337630201609                D89828070300PT1D20160905000090SPEAKER ASM                   M IMCTM S5NB042FTTL  07070IMCT  S5 PTB  00015                    2230 SR        000000000000 FUJITSU TEN (THAILAN16047HL003303316048HL001301316059KL0001001                                                                                                  *          20160831IMF1608314.TXT
MDEDG8337631201609                D89828070300PT1D20160906000030SPEAKER ASM                   M IMCTM S5NB042FTTL  07070IMCT  S5 PTB  00015                    0230 SR        000000000000 FUJITSU TEN (THAILAN16048HL0014014                                                                                                                              *          20160831IMF1608314.TXT
MDEDG8337632201609                D89828070300PT1D20160906000030SPEAKER ASM                   M IMCTM S5NB042FTTL  07070IMCT  S5 PTB  00015                    0400 SR        000000000000 FUJITSU TEN (THAILAN16048HL0015015                                                                                                                              *          20160831IMF1608314.TXT
MDEDG8337633201609                D89828070300PT1D20160906000060SPEAKER ASM                   M IMCTM S5NB042FTTL  07070IMCT  S5 PTB  00015                    0900 SR        000000000000 FUJITSU TEN (THAILAN16050HL0015016                                                                                                                              *          20160831IMF1608314.TXT
MDEDG8337634201609                D89828070300PT1D20160906000150SPEAKER ASM                   M IMCTM S5NB042FTTL  07070IMCT  S5 PTB  00015                    1300 SR        000000000000 FUJITSU TEN (THAILAN16046KL001701716047HL003403516049HL001401416055KL0001001                                                                                    *          20160831IMF1608314.TXT
MDEDG8337635201609                D89828070300PT1D20160906000030SPEAKER ASM                   M IMCTM S5NB042FTTL  07070IMCT  S5 PTB  00015                    1600 SR        000000000000 FUJITSU TEN (THAILAN16046KL0018018                                                                                                                              *          20160831IMF1608314.TXT
MDEDG8337636201609                D89829645400PT1D20160905000015RADIO;ASM DVD                 M IMCTM S5NC06 FTTL  07070IMCT  S5 PTB  00003                    2230 SR        000000000000 FUJITSU TEN (THAILAN16059KL0001001                                                                                                                              *          20160831IMF1608314.TXT
MDEDG8337637201609                D89831228500PT1D20160905000015RADIO;AM/FM,CD                M IMCTM S5NC06 FTTL  07070IMCT  S5 PTB  00003                    2230 SR        000000000000 FUJITSU TEN (THAILAN16048HL0013013                                                                                                                              *          20160831IMF1608314.TXT
MDEDG8337638201609                D89831228500PT1D20160906000015RADIO;AM/FM,CD                M IMCTM S5NC06 FTTL  07070IMCT  S5 PTB  00003                    0230 SR        000000000000 FUJITSU TEN (THAILAN16048HL0014014                                                                                                                              *          20160831IMF1608314.TXT
MDEDG8337639201609                D89831228500PT1D20160906000015RADIO;AM/FM,CD                M IMCTM S5NC06 FTTL  07070IMCT  S5 PTB  00003                    0400 SR        000000000000 FUJITSU TEN (THAILAN16048HL0015015                                                                                                                              *          20160831IMF1608314.TXT
MDEDG8337640201609                D89831228600PT1D20160905000015RADIO;AM/FM,CD                M IMCTM S5NC06 FTTL  07070IMCT  S5 PTB  00003                    2100 SR        000000000000 FUJITSU TEN (THAILAN16047HL0032032                                                                                                                              *          20160831IMF1608314.TXT
MDEDG8337641201609                D89831228600PT1D20160905000015RADIO;AM/FM,CD                M IMCTM S5NC06 FTTL  07070IMCT  S5 PTB  00003                    2230 SR        000000000000 FUJITSU TEN (THAILAN16047HL0033033                                                                                                                              *          20160831IMF1608314.TXT
MDEDG8337642201609                D89831228600PT1D20160906000030RADIO;AM/FM,CD                M IMCTM S5NC06 FTTL  07070IMCT  S5 PTB  00003                    0900 SR        000000000000 FUJITSU TEN (THAILAN16050HL0015016                                                                                                                              *          20160831IMF1608314.TXT
MDEDG8337643201609                D89831228600PT1D20160906000045RADIO;AM/FM,CD                M IMCTM S5NC06 FTTL  07070IMCT  S5 PTB  00003                    1300 SR        000000000000 FUJITSU TEN (THAILAN16047HL003403516049HL0014014                                                                                                                *          20160831IMF1608314.TXT
MDEDG8337644201609                D89831229000PT1D20160905000015RADIO;AM/FM,CD                M IMCTM S5NC06 FTTL  07070IMCT  S5 PTB  00003                    2100 SR        000000000000 FUJITSU TEN (THAILAN16056KL0001001                                                                                                                              *          20160831IMF1608314.TXT
MDEDG8337645201609                D89831229000PT1D20160906000015RADIO;AM/FM,CD                M IMCTM S5NC06 FTTL  07070IMCT  S5 PTB  00003                    1300 SR        000000000000 FUJITSU TEN (THAILAN16055KL0001001                                                                                                                              *          20160831IMF1608314.TXT
MDEUG8290897201609                D89828070100PT4U20160905000030SPEAKER ASM                   M IMCTM S0FL05 FTTL  07070IMCT  S0 PTB  00004                    2100 SR        000000000000 FUJITSU TEN (THAILAN160B40U0016016                                                                                                                              *          20160831IMF1608314.TXT
MDEUG8290898201609                D89828070100PT4U20160905000030SPEAKER ASM                   M IMCTM S0FL05 FTTL  07070IMCT  S0 PTB  00004                    2230 SR        000000000000 FUJITSU TEN (THAILAN160B36U0023023                                                                                                                              *          20160831IMF1608314.TXT
MDEUG8290899201609                D89828070100PT4U20160906000060SPEAKER ASM                   M IMCTM S0FL05 FTTL  07070IMCT  S0 PTB  00004                    0230 SR        000000000000 FUJITSU TEN (THAILAN160B35U0014014160B48U0303303                                                                                                                *          20160831IMF1608314.TXT
MDEUG8290900201609                D89828070100PT4U20160906000060SPEAKER ASM                   M IMCTM S0FL05 FTTL  07070IMCT  S0 PTB  00004                    0900 SR        000000000000 FUJITSU TEN (THAILAN160B42U0100100160B48U0304304                                                                                                                *          20160831IMF1608314.TXT
MDEUG8290901201609                D89828070100PT4U20160906000060SPEAKER ASM                   M IMCTM S0FL05 FTTL  07070IMCT  S0 PTB  00004                    1300 SR        000000000000 FUJITSU TEN (THAILAN160B42U0101101160B48U0305305                                                                                                                *          20160831IMF1608314.TXT
MDEUG8290902201609                D89828070100PT4U20160906000030SPEAKER ASM                   M IMCTM S0FL05 FTTL  07070IMCT  S0 PTB  00004                    1600 SR        000000000000 FUJITSU TEN (THAILAN160B48U0306306                                                                                                                              *          20160831IMF1608314.TXT
MDEUG8290903201609                D89828070100PT4U20160906000030SPEAKER ASM                   M IMCTM S0FL05 FTTL  07070IMCT  S0 PTB  00004                    2100 SR        000000000000 FUJITSU TEN (THAILAN160B48U0307307                                                                                                                              *          20160831IMF1608314.TXT
MDEUG8290904201609                D89828070200PV4U20160905000030SPEAKER ASM                   M IMCTM S0FR05 FTTL  07070IMCT  S0 PTB  00005                    2100 SR        000000000000 FUJITSU TEN (THAILAN160B40U0016016                                                                                                                              *          20160831IMF1608314.TXT
MDEUG8290905201609                D89828070200PV4U20160905000030SPEAKER ASM                   M IMCTM S0FR05 FTTL  07070IMCT  S0 PTB  00005                    2230 SR        000000000000 FUJITSU TEN (THAILAN160B36U0023023                                                                                                                              *          20160831IMF1608314.TXT
MDEUG8290906201609                D89828070200PV4U20160906000060SPEAKER ASM                   M IMCTM S0FR05 FTTL  07070IMCT  S0 PTB  00005                    0230 SR        000000000000 FUJITSU TEN (THAILAN160B35U0014014160B48U0303303                                                                                                                *          20160831IMF1608314.TXT
MDEUG8290907201609                D89828070200PV4U20160906000060SPEAKER ASM                   M IMCTM S0FR05 FTTL  07070IMCT  S0 PTB  00005                    0900 SR        000000000000 FUJITSU TEN (THAILAN160B42U0100100160B48U0304304                                                                                                                *          20160831IMF1608314.TXT
MDEUG8290908201609                D89828070200PV4U20160906000060SPEAKER ASM                   M IMCTM S0FR05 FTTL  07070IMCT  S0 PTB  00005                    1300 SR        000000000000 FUJITSU TEN (THAILAN160B42U0101101160B48U0305305                                                                                                                *          20160831IMF1608314.TXT
MDEUG8290909201609                D89828070200PV4U20160906000030SPEAKER ASM                   M IMCTM S0FR05 FTTL  07070IMCT  S0 PTB  00005                    1600 SR        000000000000 FUJITSU TEN (THAILAN160B48U0306306                                                                                                                              *          20160831IMF1608314.TXT
MDEUG8290910201609                D89828070200PV4U20160906000030SPEAKER ASM                   M IMCTM S0FR05 FTTL  07070IMCT  S0 PTB  00005                    2100 SR        000000000000 FUJITSU TEN (THAILAN160B48U0307307                                                                                                                              *          20160831IMF1608314.TXT
MDEUG8290911201609                D89828070300PT4U20160905000030SPEAKER ASM                   M IMCTM S9TS02 FTTL  07070IMCT  S9 PTB  00015                    2100 SR        000000000000 FUJITSU TEN (THAILAN160B40U0016016                                                                                                                              *          20160831IMF1608314.TXT
MDEUG8290912201609                D89828070300PT4U20160905000030SPEAKER ASM                   M IMCTM S9TS02 FTTL  07070IMCT  S9 PTB  00015                    2230 SR        000000000000 FUJITSU TEN (THAILAN160B36U0023023                                                                                                                              *          20160831IMF1608314.TXT
MDEUG8290913201609                D89828070300PT4U20160906000060SPEAKER ASM                   M IMCTM S9TS02 FTTL  07070IMCT  S9 PTB  00015                    0230 SR        000000000000 FUJITSU TEN (THAILAN160B35U0014014160B48U0303303                                                                                                                *          20160831IMF1608314.TXT
MDEUG8290914201609                D89828070300PT4U20160906000060SPEAKER ASM                   M IMCTM S9TS02 FTTL  07070IMCT  S9 PTB  00015                    0900 SR        000000000000 FUJITSU TEN (THAILAN160B42U0100100160B48U0304304                                                                                                                *          20160831IMF1608314.TXT
MDEUG8290915201609                D89828070300PT4U20160906000060SPEAKER ASM                   M IMCTM S9TS02 FTTL  07070IMCT  S9 PTB  00015                    1300 SR        000000000000 FUJITSU TEN (THAILAN160B42U0101101160B48U0305305                                                                                                                *          20160831IMF1608314.TXT
MDEUG8290916201609                D89828070300PT4U20160906000030SPEAKER ASM                   M IMCTM S9TS02 FTTL  07070IMCT  S9 PTB  00015                    1600 SR        000000000000 FUJITSU TEN (THAILAN160B48U0306306                                                                                                                              *          20160831IMF1608314.TXT
MDEUG8290917201609                D89828070300PT4U20160906000030SPEAKER ASM                   M IMCTM S9TS02 FTTL  07070IMCT  S9 PTB  00015                    2100 SR        000000000000 FUJITSU TEN (THAILAN160B48U0307307                                                                                                                              *          20160831IMF1608314.TXT
MDEUG8290918201609                D89831228600PT4U20160905000015RADIO;AM/FM,CD                M IMCTM S9CO001FTTL  07070IMCT  S9 PTB  00003                    2100 SR        000000000000 FUJITSU TEN (THAILAN160B40U0016016                                                                                                                              *          20160831IMF1608314.TXT
MDEUG8290919201609                D89831228600PT4U20160906000015RADIO;AM/FM,CD                M IMCTM S9CO001FTTL  07070IMCT  S9 PTB  00003                    0230 SR        000000000000 FUJITSU TEN (THAILAN160B35U0014014                                                                                                                              *          20160831IMF1608314.TXT
