REC2016081920160820ISUZU                              3      
MDEFG8T12294201608                D89805293700PV4F20160823000002SPEAKER ASM                   M IMCTM S7FR05 FTTL  07070IMCT  S7 PTB  00003                    2100 SR        000000000000 FUJITSU TEN (THAILAN15083CR0134   15083CR0134   S160804315    S160804315    000000                                                                              *R         20160819RDF1608195.TXT
MDEFG8T12295201608                D89828070100PV4F20160823000024SPEAKER ASM                   M IMCTM S7FL05 FTTL  07070IMCT  S7 PTB  00004                    2100 SR        000000000000 FUJITSU TEN (THAILAN16042KR0018   16061JR0027   S160804303    S160804314    000000                                                                              *R         20160819RDF1608195.TXT
MDEFG8234236201608                D89828070100PV4F20160823000004SPEAKER ASM                   M IMCTM S7FL05 FTTL  07070IMCT  S7 PTB  00004                    1600 SR        000000000000 FUJITSU TEN (THAILAN16042KR0016   16042KR0017   S160804301    S160804302    000000                                                                              *R         20160819RDF1608195.TXT
