REC2016082420160824ISUZU                              9      
MDEFG8T16255201608                D89828070100PV4F20160830000012SPEAKER ASM                   M IMCTM S7FL05 FTTL  07070IMCT  S7 PTB  00004                    0900 SR        000000000000 FUJITSU TEN (THAILAN16085HR0024   16085HR0029   R160805110    R160805115    000000                                                                              *R         20160824RDF1608245.TXT
MDEFG8T16256201608                D89828070200PV4F20160829000006SPEAKER ASM                   M IMCTM S7TS02 FTTL  07070IMCT  S7 PTB  00005                    1600 SR        000000000000 FUJITSU TEN (THAILAN16081KR0025   16081KR0027   D160805013    D160805015    000000                                                                              *R         20160824RDF1608245.TXT
MDEFG8T16257201608                D89828070300PT4F20160829000026SPEAKER ASM                   M IMCTM S7TS02 FTTL  07070IMCT  S7 PTB  00015                    1300 SR        000000000000 FUJITSU TEN (THAILAN16030KR0013   16081KR0027   D160805002    D160805015    000000                                                                              *R         20160824RDF1608245.TXT
MDEFG8T16258201608                D89829645400PT4F20160829000004RADIO;ASM DVD                 M IMCTM S7TS03 FTTL  07070IMCT  S7 PTB  00003                    1300 SR        000000000000 FUJITSU TEN (THAILAN16030KR0013   16038KR0044   D160805002    D160805006    000000                                                                              *R         20160824RDF1608245.TXT
MDEFG8T16259201608                D89831229200PT4F20160829000002RADIO;AM/FM,CD                M IMCTM S7TS03 FTTL  07070IMCT  S7 PTB  00003                    1300 SR        000000000000 FUJITSU TEN (THAILAN16043JR0037   16043JR0038   D160805008    D160805009    000000                                                                              *R         20160824RDF1608245.TXT
MDEFG8243817201608                D89828070100PV4F20160829000024SPEAKER ASM                   M IMCTM S7FL05 FTTL  07070IMCT  S7 PTB  00004                    1300 SR        000000000000 FUJITSU TEN (THAILAN16022KR0024   16081KR0024   D160805001    D160805012    000000                                                                              *R         20160824RDF1608245.TXT
MDEFG8243818201608                D89828070100PV4F20160829000008SPEAKER ASM                   M IMCTM S7FL05 FTTL  07070IMCT  S7 PTB  00004                    1600 SR        000000000000 FUJITSU TEN (THAILAN16081KR0025   16078HR0036   D160805013    R160805101    000000                                                                              *R         20160824RDF1608245.TXT
MDEFG8243819201608                D89828070100PV4F20160830000016SPEAKER ASM                   M IMCTM S7FL05 FTTL  07070IMCT  S7 PTB  00004                    0400 SR        000000000000 FUJITSU TEN (THAILAN16078HR0037   16085HR0023   R160805102    R160805109    000000                                                                              *R         20160824RDF1608245.TXT
MDEFG8243820201608                D89828070200PV4F20160829000020SPEAKER ASM                   M IMCTM S7TS02 FTTL  07070IMCT  S7 PTB  00005                    1300 SR        000000000000 FUJITSU TEN (THAILAN16030KR0013   16081KR0024   D160805002    D160805012    000000                                                                              *R         20160824RDF1608245.TXT
