REC2016083020160831ISUZU                              19     
MDEBG8T02222201609                D89828070100PT4B20160902000030SPEAKER ASM                   M IMCTM S7FL05 FTTL  07070IMCT  S7 PTB  00004                    2230 SR        000000000000 FUJITSU TEN (THAILAN160B53R0001   160B79R0014   Y160900401    Y160900415    000000                                                                              *R         20160830RDF1608305.TXT
MDEBG8T02223201609                D89828070200PV4B20160902000030SPEAKER ASM                   M IMCTM S7TS02 FTTL  07070IMCT  S7 PTB  00005                    2230 SR        000000000000 FUJITSU TEN (THAILAN160B53R0001   160B79R0014   Y160900401    Y160900415    000000                                                                              *R         20160830RDF1608305.TXT
MDEBG8T02224201609                D89828070300PT4B20160902000030SPEAKER ASM                   M IMCTM S7TS02 FTTL  07070IMCT  S7 PTB  00015                    2230 SR        000000000000 FUJITSU TEN (THAILAN160B53R0001   160B79R0014   Y160900401    Y160900415    000000                                                                              *R         20160830RDF1608305.TXT
MDEBG8T02225201609                D89829100100PT4B20160902000001RADIO;ASM DVD                 M IMCTM S7TS03 FTTL  07070IMCT  S7 PTB  00003                    2230 SR        000000000000 FUJITSU TEN (THAILAN160B75R0028   160B75R0028   Y160900412    Y160900412    000000                                                                              *R         20160830RDF1608305.TXT
MDEBG8T02226201609                D89829623000PT4B20160902000001RADIO;ASM DVD                 M IMCTM S7TS03 FTTL  07070IMCT  S7 PTB  00003                    2230 SR        000000000000 FUJITSU TEN (THAILAN160B58R0005   160B58R0005   Y160900410    Y160900410    000000                                                                              *R         20160830RDF1608305.TXT
MDEFG8T19502201609                D89805293700PV4F20160902000010SPEAKER ASM                   M IMCTM S7FR05 FTTL  07070IMCT  S7 PTB  00003                    1600 SR        000000000000 FUJITSU TEN (THAILAN15021DR0030   15021FR0049   D160900306    D160900310    000000                                                                              *R         20160830RDF1608305.TXT
MDEFG8T19503201609                D89805294000PT4F20160902000008SPEAKER ASM                   M IMCTM S7TS02 FTTL  07070IMCT  S7 PTB  00015                    1300 SR        000000000000 FUJITSU TEN (THAILAN15020FR0052   15021FR0049   D160900304    D160900310    000000                                                                              *R         20160830RDF1608305.TXT
MDEFG8T19504201609                D89805294100PV4F20160902000003SPEAKER ASM                   M IMCTM S7FR05 FTTL  07070IMCT  S7 PTB  00005                    1600 SR        000000000000 FUJITSU TEN (THAILAN15021FR0048   15021FR0049   D160900309    D160900310    000000                                                                              *R         20160830RDF1608305.TXT
MDEFG8T19505201609                D89828070100PV4F20160905000012SPEAKER ASM                   M IMCTM S7FL05 FTTL  07070IMCT  S7 PTB  00004                    0900 SR        000000000000 FUJITSU TEN (THAILAN16080JR0047   16080JR0051   R160900510    R160900515    000000                                                                              *R         20160830RDF1608305.TXT
MDEFG8T19506201609                D89828070200PV4F20160902000007SPEAKER ASM                   M IMCTM S7TS02 FTTL  07070IMCT  S7 PTB  00005                    1600 SR        000000000000 FUJITSU TEN (THAILAN16084KR0003   16084KR0006   D160900312    D160900315    000000                                                                              *R         20160830RDF1608305.TXT
MDEFG8T19507201609                D89828070300PT4F20160902000012SPEAKER ASM                   M IMCTM S7TS02 FTTL  07070IMCT  S7 PTB  00015                    1300 SR        000000000000 FUJITSU TEN (THAILAN16014KR0020   16084KR0006   D160900302    D160900315    000000                                                                              *R         20160830RDF1608305.TXT
MDEFG8T19508201609                D89829645400PT4F20160902000002RADIO;ASM DVD                 M IMCTM S7TS03 FTTL  07070IMCT  S7 PTB  00003                    1300 SR        000000000000 FUJITSU TEN (THAILAN16014KR0020   16014KR0021   D160900302    D160900303    000000                                                                              *R         20160830RDF1608305.TXT
MDEFG8T19509201609                D89831228400PT4F20160902000004RADIO;AM/FM,CD                M IMCTM S7TS03 FTTL  07070IMCT  S7 CPB  00003                    1600 SR        000000000000 FUJITSU TEN (THAILAN16084KR0003   16084KR0006   D160900312    D160900315    000000                                                                              *R         20160830RDF1608305.TXT
MDEFG8249982201609                D89805293700PV4F20160902000006SPEAKER ASM                   M IMCTM S7FR05 FTTL  07070IMCT  S7 PTB  00003                    1300 SR        000000000000 FUJITSU TEN (THAILAN15018FR0092   15020FR0053   D160900301    D160900305    000000                                                                              *R         20160830RDF1608305.TXT
MDEFG8249983201609                D89805294100PV4F20160902000005SPEAKER ASM                   M IMCTM S7FR05 FTTL  07070IMCT  S7 PTB  00005                    1300 SR        000000000000 FUJITSU TEN (THAILAN15020FR0052   15021FR0048   D160900304    D160900309    000000                                                                              *R         20160830RDF1608305.TXT
MDEFG8249984201609                D89828070100PV4F20160902000004SPEAKER ASM                   M IMCTM S7FL05 FTTL  07070IMCT  S7 PTB  00004                    1300 SR        000000000000 FUJITSU TEN (THAILAN16014KR0020   16014KR0021   D160900302    D160900303    000000                                                                              *R         20160830RDF1608305.TXT
MDEFG8249985201609                D89828070100PV4F20160902000012SPEAKER ASM                   M IMCTM S7FL05 FTTL  07070IMCT  S7 PTB  00004                    1600 SR        000000000000 FUJITSU TEN (THAILAN16065JR0068   16079HR0006   D160900311    R160900501    000000                                                                              *R         20160830RDF1608305.TXT
MDEFG8249986201609                D89828070100PV4F20160903000016SPEAKER ASM                   M IMCTM S7FL05 FTTL  07070IMCT  S7 PTB  00004                    0400 SR        000000000000 FUJITSU TEN (THAILAN16079HR0007   16080JR0046   R160900502    R160900509    000000                                                                              *R         20160830RDF1608305.TXT
MDEFG8249987201609                D89828070200PV4F20160902000005SPEAKER ASM                   M IMCTM S7TS02 FTTL  07070IMCT  S7 PTB  00005                    1300 SR        000000000000 FUJITSU TEN (THAILAN16014KR0020   16084KR0003   D160900302    D160900312    000000                                                                              *R         20160830RDF1608305.TXT
