REC2016081120160811ISUZU                              3      
MECKG8800976000000          IMKDC  89828070100P3YK20160820000034SPEAKER ASM                   M IMCTM IMKDC  FTTL  07070IMKDC 07*PTB  00003    K295A9200   011 0000 ES        000000000000 FUJITSU TEN (THAILAN                                                                                                                                            *E         20160811IMF1608113.TXT
MECKG8800977000000          IMKDC  89828070200P3YK20160820000034SPEAKER ASM                   M IMCTM IMKDC  FTTL  07070IMKDC 07*PTB  00005    K295A9200   011 0000 ES        000000000000 FUJITSU TEN (THAILAN                                                                                                                                            *E         20160811IMF1608113.TXT
MECKG8800978000000          IMKDC  89828070300P3YK20160820000034SPEAKER ASM                   M IMCTM IMKDC  FTTL  07070IMKDC 07*PTB  00015    K295A9200   011 0000 ES        000000000000 FUJITSU TEN (THAILAN                                                                                                                                            *E         20160811IMF1608113.TXT
