REC2016080820160808ISUZU                              9      
MDEFG8T06085201608                D89828070100PV4F20160811000028SPEAKER ASM                   M IMCTM S7FL05 FTTL  07070IMCT  S7 PTB  00004                    2230 SR        000000000000 FUJITSU TEN (THAILAN16072LR0017   16082HR0024   R160802802    R160802815    000000                                                                              *R         20160808RDF1608085.TXT
MDEFG8T06086201608                D89828070200PV4F20160811000010SPEAKER ASM                   M IMCTM S7TS02 FTTL  07070IMCT  S7 PTB  00005                    1600 SR        000000000000 FUJITSU TEN (THAILAN16044JR0034   16042LR0011   D160802711    D160802715    000000                                                                              *R         20160808RDF1608085.TXT
MDEFG8T06087201608                D89828070300PT4F20160811000005SPEAKER ASM                   M IMCTM S7TS02 FTTL  07070IMCT  S7 PTB  00015                    1600 SR        000000000000 FUJITSU TEN (THAILAN16069KR0023   16042LR0011   D160802713    D160802715    000000                                                                              *R         20160808RDF1608085.TXT
MDEFG8T06088201608                D89829645400PT4F20160811000002RADIO;ASM DVD                 M IMCTM S7TS03 FTTL  07070IMCT  S7 PTB  00003                    1300 SR        000000000000 FUJITSU TEN (THAILAN16032KR0021   16059KR0017   D160802704    D160802705    000000                                                                              *R         20160808RDF1608085.TXT
MDEFG8T06089201608                D89831229200PT4F20160811000004RADIO;AM/FM,CD                M IMCTM S7TS03 FTTL  07070IMCT  S7 PTB  00003                    1600 SR        000000000000 FUJITSU TEN (THAILAN16044JR0033   16042LR0011   D160802710    D160802715    000000                                                                              *R         20160808RDF1608085.TXT
MDEFG8216771201608                D89828070100PV4F20160811000016SPEAKER ASM                   M IMCTM S7FL05 FTTL  07070IMCT  S7 PTB  00004                    1300 SR        000000000000 FUJITSU TEN (THAILAN16021KR0034   16069KR0022   D160802701    D160802708    000000                                                                              *R         20160808RDF1608085.TXT
MDEFG8216772201608                D89828070100PV4F20160811000016SPEAKER ASM                   M IMCTM S7FL05 FTTL  07070IMCT  S7 PTB  00004                    1600 SR        000000000000 FUJITSU TEN (THAILAN16077KR0007   16072LR0016   D160802709    R160802801    000000                                                                              *R         20160808RDF1608085.TXT
MDEFG8216773201608                D89828070200PV4F20160811000010SPEAKER ASM                   M IMCTM S7TS02 FTTL  07070IMCT  S7 PTB  00005                    1300 SR        000000000000 FUJITSU TEN (THAILAN16032KR0021   16044JR0033   D160802704    D160802710    000000                                                                              *R         20160808RDF1608085.TXT
MDEFG8216774201608                D89828070300PT4F20160811000015SPEAKER ASM                   M IMCTM S7TS02 FTTL  07070IMCT  S7 PTB  00015                    1300 SR        000000000000 FUJITSU TEN (THAILAN16032KR0021   16069KR0023   D160802704    D160802713    000000                                                                              *R         20160808RDF1608085.TXT
