REC2016072920160729ISUZU                              6      
MDEFG7T18819201608                D89805293700PV4F20160803000008SPEAKER ASM                   M IMCTM S7FR05 FTTL  07070IMCT  S7 PTB  00003                    2300 SR        000000000000 FUJITSU TEN (THAILAN15018CR0028   15018CR0031   R160801212    R160801215    000000                                                                              *R         20160729RDF1607298.TXT
MDEFG7T18820201608                D89805294000PT4F20160803000030SPEAKER ASM                   M IMCTM S7TS02 FTTL  07070IMCT  S7 PTB  00015                    1510 SR        000000000000 FUJITSU TEN (THAILAN15010HR0046   15031BR0148   D160801101    D160801115    000000                                                                              *R         20160729RDF1607298.TXT
MDEFG7T18821201608                D89805294100PV4F20160803000030SPEAKER ASM                   M IMCTM S7FR05 FTTL  07070IMCT  S7 PTB  00005                    1510 SR        000000000000 FUJITSU TEN (THAILAN15010HR0046   15031BR0148   D160801101    D160801115    000000                                                                              *R         20160729RDF1607298.TXT
MDEFG7T18822201608                D89828070100PV4F20160804000028SPEAKER ASM                   M IMCTM S7FL05 FTTL  07070IMCT  S7 PTB  00004                    0800 SR        000000000000 FUJITSU TEN (THAILAN16006JR0022   16084JR0024   H160801302    H160801315    000000                                                                              *R         20160729RDF1607298.TXT
MDEFG7246096201608                D89805293700PV4F20160803000030SPEAKER ASM                   M IMCTM S7FR05 FTTL  07070IMCT  S7 PTB  00003                    1510 SR        000000000000 FUJITSU TEN (THAILAN15010HR0046   15031BR0148   D160801101    D160801115    000000                                                                              *R         20160729RDF1607298.TXT
MDEFG7246097201608                D89828070100PV4F20160803000024SPEAKER ASM                   M IMCTM S7FL05 FTTL  07070IMCT  S7 PTB  00004                    2300 SR        000000000000 FUJITSU TEN (THAILAN16006JR0021   16083JR0033   H160801301    R160801211    000000                                                                              *R         20160729RDF1607298.TXT
