REC2016083020160831ISUZU                              45     
MDDDG8248902201609                D89828070100PV1D20160902000060SPEAKER ASM                   M IMCTM S5MA12 FTTL  07070IMCT  S5 PTB  00004                    2230 SR        000000000000 FUJITSU TEN (THAILAN170KRJL0001001                                                                                                                              *          20160830IMF1608305.TXT
MDDDG8248903201609                D89828070100PV1D20160903000060SPEAKER ASM                   M IMCTM S5MA12 FTTL  07070IMCT  S5 PTB  00004                    0230 SR        000000000000 FUJITSU TEN (THAILAN170KRNL0001001                                                                                                                              *          20160830IMF1608305.TXT
MDDDG8248904201609                D89828070200PV1D20160902000060SPEAKER ASM                   M IMCTM S5MA13 FTTL  07070IMCT  S5 PTB  00005                    2230 SR        000000000000 FUJITSU TEN (THAILAN170KRJL0001001                                                                                                                              *          20160830IMF1608305.TXT
MDDDG8248905201609                D89828070200PV1D20160903000060SPEAKER ASM                   M IMCTM S5MA13 FTTL  07070IMCT  S5 PTB  00005                    0230 SR        000000000000 FUJITSU TEN (THAILAN170KRNL0001001                                                                                                                              *          20160830IMF1608305.TXT
MDDDG8248906201609                D89828070300PT1D20160902000060SPEAKER ASM                   M IMCTM S5NB042FTTL  07070IMCT  S5 PTB  00015                    2230 SR        000000000000 FUJITSU TEN (THAILAN170KRJL0001001                                                                                                                              *          20160830IMF1608305.TXT
MDDDG8248907201609                D89828070300PT1D20160903000060SPEAKER ASM                   M IMCTM S5NB042FTTL  07070IMCT  S5 PTB  00015                    0230 SR        000000000000 FUJITSU TEN (THAILAN170KRNL0001001                                                                                                                              *          20160830IMF1608305.TXT
MDDDG8248908201609                D89831228400PT1D20160903000030RADIO;AM/FM,CD                M IMCTM S5NC06 FTTL  07070IMCT  S5 CPB  00003                    0230 SR        000000000000 FUJITSU TEN (THAILAN170KRNL0001001                                                                                                                              *          20160830IMF1608305.TXT
MDEDG8329491201609                D89805293700PV1D20160902000060SPEAKER ASM                   M IMCTM S5MA12 FTTL  07070IMCT  S5 PTB  00003                    2230 SR        000000000000 FUJITSU TEN (THAILAN15019FL0094095                                                                                                                              *          20160830IMF1608305.TXT
MDEDG8329492201609                D89805293700PV1D20160903000060SPEAKER ASM                   M IMCTM S5MA12 FTTL  07070IMCT  S5 PTB  00003                    0400 SR        000000000000 FUJITSU TEN (THAILAN15019FL0096097                                                                                                                              *          20160830IMF1608305.TXT
MDEDG8329493201609                D89805293700PV1D20160905000030SPEAKER ASM                   M IMCTM S5MA12 FTTL  07070IMCT  S5 PTB  00003                    0900 SR        000000000000 FUJITSU TEN (THAILAN15021FL0011011                                                                                                                              *          20160830IMF1608305.TXT
MDEDG8329494201609                D89805294000PT1D20160905000030SPEAKER ASM                   M IMCTM S5NB042FTTL  07070IMCT  S5 PTB  00015                    0900 SR        000000000000 FUJITSU TEN (THAILAN15021FL0011011                                                                                                                              *          20160830IMF1608305.TXT
MDEDG8329495201609                D89805294100PV1D20160905000030SPEAKER ASM                   M IMCTM S5MB13 FTTL  07070IMCT  S5 PTB  00005                    0900 SR        000000000000 FUJITSU TEN (THAILAN15021FL0011011                                                                                                                              *          20160830IMF1608305.TXT
MDEDG8329496201609                D89828070100PV1D20160902000060SPEAKER ASM                   M IMCTM S5MA12 FTTL  07070IMCT  S5 PTB  00004                    2230 SR        000000000000 FUJITSU TEN (THAILAN16047HL0027028                                                                                                                              *          20160830IMF1608305.TXT
MDEDG8329497201609                D89828070100PV1D20160903000030SPEAKER ASM                   M IMCTM S5MA12 FTTL  07070IMCT  S5 PTB  00004                    0400 SR        000000000000 FUJITSU TEN (THAILAN16049HL0013013                                                                                                                              *          20160830IMF1608305.TXT
MDEDG8329498201609                D89828070100PV1D20160905000120SPEAKER ASM                   M IMCTM S5MA12 FTTL  07070IMCT  S5 PTB  00004                    0900 SR        000000000000 FUJITSU TEN (THAILAN16046KL001301416047HL0029030                                                                                                                *          20160830IMF1608305.TXT
MDEDG8329499201609                D89828070100PV1D20160905000120SPEAKER ASM                   M IMCTM S5MA12 FTTL  07070IMCT  S5 PTB  00004                    1300 SR        000000000000 FUJITSU TEN (THAILAN16046KL001501616052HL0021022                                                                                                                *          20160830IMF1608305.TXT
MDEDG8329500201609                D89828070100PV1D20160905000060SPEAKER ASM                   M IMCTM S5MA12 FTTL  07070IMCT  S5 PTB  00004                    1600 SR        000000000000 FUJITSU TEN (THAILAN16043KL000200216047HL0031031                                                                                                                *          20160830IMF1608305.TXT
MDEDG8329501201609                D89828070200PV1D20160903000030SPEAKER ASM                   M IMCTM S5MA13 FTTL  07070IMCT  S5 PTB  00005                    0400 SR        000000000000 FUJITSU TEN (THAILAN16049HL0013013                                                                                                                              *          20160830IMF1608305.TXT
MDEDG8329502201609                D89828070200PV1D20160905000060SPEAKER ASM                   M IMCTM S5MA13 FTTL  07070IMCT  S5 PTB  00005                    0900 SR        000000000000 FUJITSU TEN (THAILAN16046KL0013014                                                                                                                              *          20160830IMF1608305.TXT
MDEDG8329503201609                D89828070200PV1D20160905000120SPEAKER ASM                   M IMCTM S5MA13 FTTL  07070IMCT  S5 PTB  00005                    1300 SR        000000000000 FUJITSU TEN (THAILAN16046KL001501616052HL0021022                                                                                                                *          20160830IMF1608305.TXT
MDEDG8329504201609                D89828070300PT1D20160902000060SPEAKER ASM                   M IMCTM S5NB042FTTL  07070IMCT  S5 PTB  00015                    2230 SR        000000000000 FUJITSU TEN (THAILAN16047HL0027028                                                                                                                              *          20160830IMF1608305.TXT
MDEDG8329505201609                D89828070300PT1D20160903000030SPEAKER ASM                   M IMCTM S5NB042FTTL  07070IMCT  S5 PTB  00015                    0400 SR        000000000000 FUJITSU TEN (THAILAN16049HL0013013                                                                                                                              *          20160830IMF1608305.TXT
MDEDG8329506201609                D89828070300PT1D20160905000120SPEAKER ASM                   M IMCTM S5NB042FTTL  07070IMCT  S5 PTB  00015                    0900 SR        000000000000 FUJITSU TEN (THAILAN16046KL001301416047HL0029030                                                                                                                *          20160830IMF1608305.TXT
MDEDG8329507201609                D89828070300PT1D20160905000120SPEAKER ASM                   M IMCTM S5NB042FTTL  07070IMCT  S5 PTB  00015                    1300 SR        000000000000 FUJITSU TEN (THAILAN16046KL001501616052HL0021022                                                                                                                *          20160830IMF1608305.TXT
MDEDG8329508201609                D89828070300PT1D20160905000060SPEAKER ASM                   M IMCTM S5NB042FTTL  07070IMCT  S5 PTB  00015                    1600 SR        000000000000 FUJITSU TEN (THAILAN16043KL000200216047HL0031031                                                                                                                *          20160830IMF1608305.TXT
MDEDG8329509201609                D89831228600PT1D20160902000030RADIO;AM/FM,CD                M IMCTM S5NC06 FTTL  07070IMCT  S5 PTB  00003                    2230 SR        000000000000 FUJITSU TEN (THAILAN16047HL0027028                                                                                                                              *          20160830IMF1608305.TXT
MDEDG8329510201609                D89831228600PT1D20160903000015RADIO;AM/FM,CD                M IMCTM S5NC06 FTTL  07070IMCT  S5 PTB  00003                    0400 SR        000000000000 FUJITSU TEN (THAILAN16049HL0013013                                                                                                                              *          20160830IMF1608305.TXT
MDEDG8329511201609                D89831228600PT1D20160905000030RADIO;AM/FM,CD                M IMCTM S5NC06 FTTL  07070IMCT  S5 PTB  00003                    0900 SR        000000000000 FUJITSU TEN (THAILAN16047HL0029030                                                                                                                              *          20160830IMF1608305.TXT
MDEDG8329512201609                D89831228600PT1D20160905000015RADIO;AM/FM,CD                M IMCTM S5NC06 FTTL  07070IMCT  S5 PTB  00003                    1600 SR        000000000000 FUJITSU TEN (THAILAN16047HL0031031                                                                                                                              *          20160830IMF1608305.TXT
MDEUG8285026201609                D89828070100PT4U20160902000060SPEAKER ASM                   M IMCTM S0FL05 FTTL  07070IMCT  S0 PTB  00004                    2230 SR        000000000000 FUJITSU TEN (THAILAN160B42U0098098160B48U0299299                                                                                                                *          20160830IMF1608305.TXT
MDEUG8285027201609                D89828070100PT4U20160903000060SPEAKER ASM                   M IMCTM S0FL05 FTTL  07070IMCT  S0 PTB  00004                    0400 SR        000000000000 FUJITSU TEN (THAILAN160B42U0099099160B48U0300300                                                                                                                *          20160830IMF1608305.TXT
MDEUG8285028201609                D89828070100PT4U20160905000060SPEAKER ASM                   M IMCTM S0FL05 FTTL  07070IMCT  S0 PTB  00004                    0900 SR        000000000000 FUJITSU TEN (THAILAN160B48U0301302                                                                                                                              *          20160830IMF1608305.TXT
MDEUG8285029201609                D89828070100PT4U20160905000060SPEAKER ASM                   M IMCTM S0FL05 FTTL  07070IMCT  S0 PTB  00004                    1300 SR        000000000000 FUJITSU TEN (THAILAN160B35U0013013160B36U0022022                                                                                                                *          20160830IMF1608305.TXT
MDEUG8285030201609                D89828070100PT4U20160905000030SPEAKER ASM                   M IMCTM S0FL05 FTTL  07070IMCT  S0 PTB  00004                    1600 SR        000000000000 FUJITSU TEN (THAILAN160B53U0009009                                                                                                                              *          20160830IMF1608305.TXT
MDEUG8285031201609                D89828070200PV4U20160902000060SPEAKER ASM                   M IMCTM S0FR05 FTTL  07070IMCT  S0 PTB  00005                    2230 SR        000000000000 FUJITSU TEN (THAILAN160B42U0098098160B48U0299299                                                                                                                *          20160830IMF1608305.TXT
MDEUG8285032201609                D89828070200PV4U20160903000060SPEAKER ASM                   M IMCTM S0FR05 FTTL  07070IMCT  S0 PTB  00005                    0400 SR        000000000000 FUJITSU TEN (THAILAN160B42U0099099160B48U0300300                                                                                                                *          20160830IMF1608305.TXT
MDEUG8285033201609                D89828070200PV4U20160905000060SPEAKER ASM                   M IMCTM S0FR05 FTTL  07070IMCT  S0 PTB  00005                    0900 SR        000000000000 FUJITSU TEN (THAILAN160B48U0301302                                                                                                                              *          20160830IMF1608305.TXT
MDEUG8285034201609                D89828070200PV4U20160905000060SPEAKER ASM                   M IMCTM S0FR05 FTTL  07070IMCT  S0 PTB  00005                    1300 SR        000000000000 FUJITSU TEN (THAILAN160B35U0013013160B36U0022022                                                                                                                *          20160830IMF1608305.TXT
MDEUG8285035201609                D89828070200PV4U20160905000030SPEAKER ASM                   M IMCTM S0FR05 FTTL  07070IMCT  S0 PTB  00005                    1600 SR        000000000000 FUJITSU TEN (THAILAN160B53U0009009                                                                                                                              *          20160830IMF1608305.TXT
MDEUG8285036201609                D89828070300PT4U20160902000060SPEAKER ASM                   M IMCTM S9TS02 FTTL  07070IMCT  S9 PTB  00015                    2230 SR        000000000000 FUJITSU TEN (THAILAN160B42U0098098160B48U0299299                                                                                                                *          20160830IMF1608305.TXT
MDEUG8285037201609                D89828070300PT4U20160903000060SPEAKER ASM                   M IMCTM S9TS02 FTTL  07070IMCT  S9 PTB  00015                    0400 SR        000000000000 FUJITSU TEN (THAILAN160B42U0099099160B48U0300300                                                                                                                *          20160830IMF1608305.TXT
MDEUG8285038201609                D89828070300PT4U20160905000060SPEAKER ASM                   M IMCTM S9TS02 FTTL  07070IMCT  S9 PTB  00015                    0900 SR        000000000000 FUJITSU TEN (THAILAN160B48U0301302                                                                                                                              *          20160830IMF1608305.TXT
MDEUG8285039201609                D89828070300PT4U20160905000060SPEAKER ASM                   M IMCTM S9TS02 FTTL  07070IMCT  S9 PTB  00015                    1300 SR        000000000000 FUJITSU TEN (THAILAN160B35U0013013160B36U0022022                                                                                                                *          20160830IMF1608305.TXT
MDEUG8285040201609                D89828070300PT4U20160905000030SPEAKER ASM                   M IMCTM S9TS02 FTTL  07070IMCT  S9 PTB  00015                    1600 SR        000000000000 FUJITSU TEN (THAILAN160B53U0009009                                                                                                                              *          20160830IMF1608305.TXT
MDEUG8285041201609                D89831228600PT4U20160905000015RADIO;AM/FM,CD                M IMCTM S9CO001FTTL  07070IMCT  S9 PTB  00003                    1300 SR        000000000000 FUJITSU TEN (THAILAN160B35U0013013                                                                                                                              *          20160830IMF1608305.TXT
