REC2016082320160823ISUZU                              3      
MDEFG8T15305201608                D89828070100PV4F20160829000028SPEAKER ASM                   M IMCTM S7FL05 FTTL  07070IMCT  S7 PTB  00004                    0900 SR        000000000000 FUJITSU TEN (THAILAN16007JR0007   16084JR0032   H160804902    H160804915    000000                                                                              *R         20160823RDF1608235.TXT
MDEFG8241367201608                D89828070100PV4F20160826000008SPEAKER ASM                   M IMCTM S7FL05 FTTL  07070IMCT  S7 PTB  00004                    1300 SR        000000000000 FUJITSU TEN (THAILAN16022KR0018   16022KR0021   D160804801    D160804804    000000                                                                              *R         20160823RDF1608235.TXT
MDEFG8241368201608                D89828070100PV4F20160826000024SPEAKER ASM                   M IMCTM S7FL05 FTTL  07070IMCT  S7 PTB  00004                    1600 SR        000000000000 FUJITSU TEN (THAILAN16022KR0022   16007JR0006   D160804805    H160804901    000000                                                                              *R         20160823RDF1608235.TXT
