REC2016072920160729ISUZU                              50     
MDDDG7274332201608                D89821984430PT1D20160803000030RADIO;AM/FM,CD                M IMCTM S5NC06 FTTL  07070IMCT  S5 PTB  00005                    2230 SR        000000000000 FUJITSU TEN (THAILAN160JNGL0085085                                                                                                                              *          20160729IMF1607298.TXT
MDDDG7274333201608                D89828070100PV1D20160803000060SPEAKER ASM                   M IMCTM S5MA12 FTTL  07070IMCT  S5 PTB  00004                    2230 SR        000000000000 FUJITSU TEN (THAILAN160JNGL0085085                                                                                                                              *          20160729IMF1607298.TXT
MDDDG7274334201608                D89828070100PV1D20160804000060SPEAKER ASM                   M IMCTM S5MA12 FTTL  07070IMCT  S5 PTB  00004                    0310 SR        000000000000 FUJITSU TEN (THAILAN160JYQL0052052                                                                                                                              *          20160729IMF1607298.TXT
MDDDG7274335201608                D89828070300PT1D20160804000060SPEAKER ASM                   M IMCTM S5NB042FTTL  07070IMCT  S5 PTB  00015                    0310 SR        000000000000 FUJITSU TEN (THAILAN160JYQL0052052                                                                                                                              *          20160729IMF1607298.TXT
MDDDG7274336201608                D89831228300PT1D20160804000030RADIO;AM/FM,CD                M IMCTM S5NC06 FTTL  07070IMCT  S5 CPB  00003                    0310 SR        000000000000 FUJITSU TEN (THAILAN160JYQL0052052                                                                                                                              *          20160729IMF1607298.TXT
MDEDG7339044201608                D89805293700PV1D20160803000030SPEAKER ASM                   M IMCTM S5MA12 FTTL  07070IMCT  S5 PTB  00003                    1510 SR        000000000000 FUJITSU TEN (THAILAN15030BL0014014                                                                                                                              *          20160729IMF1607298.TXT
MDEDG7339045201608                D89805293700PV1D20160803000090SPEAKER ASM                   M IMCTM S5MA12 FTTL  07070IMCT  S5 PTB  00003                    2230 SR        000000000000 FUJITSU TEN (THAILAN15060DL0138140                                                                                                                              *          20160729IMF1607298.TXT
MDEDG7339046201608                D89805293700PV1D20160804000090SPEAKER ASM                   M IMCTM S5MA12 FTTL  07070IMCT  S5 PTB  00003                    0310 SR        000000000000 FUJITSU TEN (THAILAN15060DL014114115068DL0063064                                                                                                                *          20160729IMF1607298.TXT
MDEDG7339047201608                D89805293700PV1D20160804000090SPEAKER ASM                   M IMCTM S5MA12 FTTL  07070IMCT  S5 PTB  00003                    1000 SR        000000000000 FUJITSU TEN (THAILAN15028BL003103115029BL000500515068DL0065065                                                                                                  *          20160729IMF1607298.TXT
MDEDG7339048201608                D89805293700PV1D20160804000150SPEAKER ASM                   M IMCTM S5MA12 FTTL  07070IMCT  S5 PTB  00003                    1510 SR        000000000000 FUJITSU TEN (THAILAN15028BL003203215062DL007407615066DL0005005                                                                                                  *          20160729IMF1607298.TXT
MDEDG7339049201608                D89805294000PT1D20160803000030SPEAKER ASM                   M IMCTM S5NB042FTTL  07070IMCT  S5 PTB  00015                    1510 SR        000000000000 FUJITSU TEN (THAILAN15030BL0014014                                                                                                                              *          20160729IMF1607298.TXT
MDEDG7339050201608                D89805294000PT1D20160803000090SPEAKER ASM                   M IMCTM S5NB042FTTL  07070IMCT  S5 PTB  00015                    2230 SR        000000000000 FUJITSU TEN (THAILAN15060DL0138140                                                                                                                              *          20160729IMF1607298.TXT
MDEDG7339051201608                D89805294000PT1D20160804000090SPEAKER ASM                   M IMCTM S5NB042FTTL  07070IMCT  S5 PTB  00015                    0310 SR        000000000000 FUJITSU TEN (THAILAN15060DL014114115068DL0063064                                                                                                                *          20160729IMF1607298.TXT
MDEDG7339052201608                D89805294000PT1D20160804000090SPEAKER ASM                   M IMCTM S5NB042FTTL  07070IMCT  S5 PTB  00015                    1000 SR        000000000000 FUJITSU TEN (THAILAN15028BL003103115029BL000500515068DL0065065                                                                                                  *          20160729IMF1607298.TXT
MDEDG7339053201608                D89805294000PT1D20160804000150SPEAKER ASM                   M IMCTM S5NB042FTTL  07070IMCT  S5 PTB  00015                    1510 SR        000000000000 FUJITSU TEN (THAILAN15028BL003203215062DL007407615066DL0005005                                                                                                  *          20160729IMF1607298.TXT
MDEDG7339054201608                D89805294100PV1D20160803000030SPEAKER ASM                   M IMCTM S5MB13 FTTL  07070IMCT  S5 PTB  00005                    1510 SR        000000000000 FUJITSU TEN (THAILAN15030BL0014014                                                                                                                              *          20160729IMF1607298.TXT
MDEDG7339055201608                D89805294100PV1D20160804000060SPEAKER ASM                   M IMCTM S5MB13 FTTL  07070IMCT  S5 PTB  00005                    1000 SR        000000000000 FUJITSU TEN (THAILAN15028BL003103115029BL0005005                                                                                                                *          20160729IMF1607298.TXT
MDEDG7339056201608                D89805294100PV1D20160804000030SPEAKER ASM                   M IMCTM S5MB13 FTTL  07070IMCT  S5 PTB  00005                    1510 SR        000000000000 FUJITSU TEN (THAILAN15028BL0032032                                                                                                                              *          20160729IMF1607298.TXT
MDEDG7339057201608                D89805294200PT1D20160803000090SPEAKER ASM                   M IMCTM S5AS011FTTL  07070IMCT  S6 PTB  00030                    2230 SR        000000000000 FUJITSU TEN (THAILAN15060DL0138140                                                                                                                              *          20160729IMF1607298.TXT
MDEDG7339058201608                D89805294200PT1D20160804000090SPEAKER ASM                   M IMCTM S5AS011FTTL  07070IMCT  S6 PTB  00030                    0310 SR        000000000000 FUJITSU TEN (THAILAN15060DL014114115068DL0063064                                                                                                                *          20160729IMF1607298.TXT
MDEDG7339059201608                D89805294200PT1D20160804000030SPEAKER ASM                   M IMCTM S5AS011FTTL  07070IMCT  S6 PTB  00030                    1000 SR        000000000000 FUJITSU TEN (THAILAN15068DL0065065                                                                                                                              *          20160729IMF1607298.TXT
MDEDG7339060201608                D89805294200PT1D20160804000120SPEAKER ASM                   M IMCTM S5AS011FTTL  07070IMCT  S6 PTB  00030                    1510 SR        000000000000 FUJITSU TEN (THAILAN15062DL007407615066DL0005005                                                                                                                *          20160729IMF1607298.TXT
MDEDG7339061201608                D89806470400PT1D20160803000045SPEAKER ASM;RDO,              M IMCTM S5EA18 FTTL  07070IMCT  S6 PTB  00015                    2230 SR        000000000000 FUJITSU TEN (THAILAN15060DL0138140                                                                                                                              *          20160729IMF1607298.TXT
MDEDG7339062201608                D89806470400PT1D20160804000045SPEAKER ASM;RDO,              M IMCTM S5EA18 FTTL  07070IMCT  S6 PTB  00015                    0310 SR        000000000000 FUJITSU TEN (THAILAN15060DL014114115068DL0063064                                                                                                                *          20160729IMF1607298.TXT
MDEDG7339063201608                D89806470400PT1D20160804000015SPEAKER ASM;RDO,              M IMCTM S5EA18 FTTL  07070IMCT  S6 PTB  00015                    1000 SR        000000000000 FUJITSU TEN (THAILAN15068DL0065065                                                                                                                              *          20160729IMF1607298.TXT
MDEDG7339064201608                D89806470400PT1D20160804000060SPEAKER ASM;RDO,              M IMCTM S5EA18 FTTL  07070IMCT  S6 PTB  00015                    1510 SR        000000000000 FUJITSU TEN (THAILAN15062DL007407615066DL0005005                                                                                                                *          20160729IMF1607298.TXT
MDEDG7339065201608                D89824360220PT1D20160803000045RADIO;AM/FM,CD                M IMCTM S5NC06 FTTL  07070IMCT  S5 CPB  00003                    2230 SR        000000000000 FUJITSU TEN (THAILAN15060DL0138140                                                                                                                              *          20160729IMF1607298.TXT
MDEDG7339066201608                D89824360220PT1D20160804000045RADIO;AM/FM,CD                M IMCTM S5NC06 FTTL  07070IMCT  S5 CPB  00003                    0310 SR        000000000000 FUJITSU TEN (THAILAN15060DL014114115068DL0063064                                                                                                                *          20160729IMF1607298.TXT
MDEDG7339067201608                D89824360220PT1D20160804000015RADIO;AM/FM,CD                M IMCTM S5NC06 FTTL  07070IMCT  S5 CPB  00003                    1000 SR        000000000000 FUJITSU TEN (THAILAN15068DL0065065                                                                                                                              *          20160729IMF1607298.TXT
MDEDG7339068201608                D89824360220PT1D20160804000060RADIO;AM/FM,CD                M IMCTM S5NC06 FTTL  07070IMCT  S5 CPB  00003                    1510 SR        000000000000 FUJITSU TEN (THAILAN15062DL007407615066DL0005005                                                                                                                *          20160729IMF1607298.TXT
MDEDG7339069201608                D89828070100PV1D20160804000090SPEAKER ASM                   M IMCTM S5MA12 FTTL  07070IMCT  S5 PTB  00004                    1000 SR        000000000000 FUJITSU TEN (THAILAN16016KL000901016075HL0028028                                                                                                                *          20160729IMF1607298.TXT
MDEDG7339070201608                D89828070100PV1D20160804000030SPEAKER ASM                   M IMCTM S5MA12 FTTL  07070IMCT  S5 PTB  00004                    1510 SR        000000000000 FUJITSU TEN (THAILAN16075HL0029029                                                                                                                              *          20160729IMF1607298.TXT
MDEUG7291402201608                D89828070100PT4U20160803000030SPEAKER ASM                   M IMCTM S0FL05 FTTL  07070IMCT  S0 PTB  00004                    2030 SR        000000000000 FUJITSU TEN (THAILAN160B95U0011011                                                                                                                              *          20160729IMF1607298.TXT
MDEUG7291403201608                D89828070100PT4U20160803000060SPEAKER ASM                   M IMCTM S0FL05 FTTL  07070IMCT  S0 PTB  00004                    2300 SR        000000000000 FUJITSU TEN (THAILAN160B46U0089089160B48U0248248                                                                                                                *          20160729IMF1607298.TXT
MDEUG7291404201608                D89828070100PT4U20160804000030SPEAKER ASM                   M IMCTM S0FL05 FTTL  07070IMCT  S0 PTB  00004                    0310 SR        000000000000 FUJITSU TEN (THAILAN160B37U0036036                                                                                                                              *          20160729IMF1607298.TXT
MDEUG7291405201608                D89828070100PT4U20160804000060SPEAKER ASM                   M IMCTM S0FL05 FTTL  07070IMCT  S0 PTB  00004                    0800 SR        000000000000 FUJITSU TEN (THAILAN160B42U0073073160B95U0012012                                                                                                                *          20160729IMF1607298.TXT
MDEUG7291406201608                D89828070100PT4U20160804000030SPEAKER ASM                   M IMCTM S0FL05 FTTL  07070IMCT  S0 PTB  00004                    1100 SR        000000000000 FUJITSU TEN (THAILAN160B36U0017017                                                                                                                              *          20160729IMF1607298.TXT
MDEUG7291407201608                D89828070100PT4U20160804000030SPEAKER ASM                   M IMCTM S0FL05 FTTL  07070IMCT  S0 PTB  00004                    2030 SR        000000000000 FUJITSU TEN (THAILAN160B46U0090090                                                                                                                              *          20160729IMF1607298.TXT
MDEUG7291408201608                D89828070200PV4U20160803000030SPEAKER ASM                   M IMCTM S0FR05 FTTL  07070IMCT  S0 PTB  00005                    2030 SR        000000000000 FUJITSU TEN (THAILAN160B95U0011011                                                                                                                              *          20160729IMF1607298.TXT
MDEUG7291409201608                D89828070200PV4U20160803000060SPEAKER ASM                   M IMCTM S0FR05 FTTL  07070IMCT  S0 PTB  00005                    2300 SR        000000000000 FUJITSU TEN (THAILAN160B46U0089089160B48U0248248                                                                                                                *          20160729IMF1607298.TXT
MDEUG7291410201608                D89828070200PV4U20160804000030SPEAKER ASM                   M IMCTM S0FR05 FTTL  07070IMCT  S0 PTB  00005                    0310 SR        000000000000 FUJITSU TEN (THAILAN160B37U0036036                                                                                                                              *          20160729IMF1607298.TXT
MDEUG7291411201608                D89828070200PV4U20160804000060SPEAKER ASM                   M IMCTM S0FR05 FTTL  07070IMCT  S0 PTB  00005                    0800 SR        000000000000 FUJITSU TEN (THAILAN160B42U0073073160B95U0012012                                                                                                                *          20160729IMF1607298.TXT
MDEUG7291412201608                D89828070200PV4U20160804000030SPEAKER ASM                   M IMCTM S0FR05 FTTL  07070IMCT  S0 PTB  00005                    1100 SR        000000000000 FUJITSU TEN (THAILAN160B36U0017017                                                                                                                              *          20160729IMF1607298.TXT
MDEUG7291413201608                D89828070200PV4U20160804000030SPEAKER ASM                   M IMCTM S0FR05 FTTL  07070IMCT  S0 PTB  00005                    2030 SR        000000000000 FUJITSU TEN (THAILAN160B46U0090090                                                                                                                              *          20160729IMF1607298.TXT
MDEUG7291414201608                D89828070300PT4U20160803000030SPEAKER ASM                   M IMCTM S9TS02 FTTL  07070IMCT  S9 PTB  00015                    2030 SR        000000000000 FUJITSU TEN (THAILAN160B95U0011011                                                                                                                              *          20160729IMF1607298.TXT
MDEUG7291415201608                D89828070300PT4U20160803000060SPEAKER ASM                   M IMCTM S9TS02 FTTL  07070IMCT  S9 PTB  00015                    2300 SR        000000000000 FUJITSU TEN (THAILAN160B46U0089089160B48U0248248                                                                                                                *          20160729IMF1607298.TXT
MDEUG7291416201608                D89828070300PT4U20160804000030SPEAKER ASM                   M IMCTM S9TS02 FTTL  07070IMCT  S9 PTB  00015                    0310 SR        000000000000 FUJITSU TEN (THAILAN160B37U0036036                                                                                                                              *          20160729IMF1607298.TXT
MDEUG7291417201608                D89828070300PT4U20160804000060SPEAKER ASM                   M IMCTM S9TS02 FTTL  07070IMCT  S9 PTB  00015                    0800 SR        000000000000 FUJITSU TEN (THAILAN160B42U0073073160B95U0012012                                                                                                                *          20160729IMF1607298.TXT
MDEUG7291418201608                D89828070300PT4U20160804000030SPEAKER ASM                   M IMCTM S9TS02 FTTL  07070IMCT  S9 PTB  00015                    1100 SR        000000000000 FUJITSU TEN (THAILAN160B36U0017017                                                                                                                              *          20160729IMF1607298.TXT
MDEUG7291419201608                D89828070300PT4U20160804000030SPEAKER ASM                   M IMCTM S9TS02 FTTL  07070IMCT  S9 PTB  00015                    2030 SR        000000000000 FUJITSU TEN (THAILAN160B46U0090090                                                                                                                              *          20160729IMF1607298.TXT
