REC2016082220160822ISUZU                              48     
MDDDG8232056201608                D89821984430PT1D20160826000030RADIO;AM/FM,CD                M IMCTM S5NC06 FTTL  07070IMCT  S5 PTB  00005                    1300 SR        000000000000 FUJITSU TEN (THAILAN160JXAL0200200                                                                                                                              *          20160822IMF1608224.TXT
MDDDG8232057201608                D89828070100PV1D20160826000060SPEAKER ASM                   M IMCTM S5MA12 FTTL  07070IMCT  S5 PTB  00004                    1300 SR        000000000000 FUJITSU TEN (THAILAN160JXAL0200200                                                                                                                              *          20160822IMF1608224.TXT
MDDUG8222712201608                D89828070100PT4U20160826000030SPEAKER ASM                   M IMCTM S0FL05 FTTL  07070IMCT  S0 PTB  00004                    1300 SR        000000000000 FUJITSU TEN (THAILAN160JURU0044044                                                                                                                              *          20160822IMF1608224.TXT
MDDUG8222713201608                D89828070200PV4U20160826000030SPEAKER ASM                   M IMCTM S0FR05 FTTL  07070IMCT  S0 PTB  00005                    1300 SR        000000000000 FUJITSU TEN (THAILAN160JURU0044044                                                                                                                              *          20160822IMF1608224.TXT
MDDUG8222714201608                D89828070300PT4U20160826000030SPEAKER ASM                   M IMCTM S9TS02 FTTL  07070IMCT  S9 PTB  00015                    1300 SR        000000000000 FUJITSU TEN (THAILAN160JURU0044044                                                                                                                              *          20160822IMF1608224.TXT
MDDUG8222715201608                D89829093500PT4U20160826000015RADIO;ASM DVD (T              M IMCTM S9CO001FTTL  07070IMCT  S9 PTB  00003                    1300 SR        000000000000 FUJITSU TEN (THAILAN160JURU0044044                                                                                                                              *          20160822IMF1608224.TXT
MDEDG8288488201608                D89828070100PV1D20160825000120SPEAKER ASM                   M IMCTM S5MA12 FTTL  07070IMCT  S5 PTB  00004                    2230 SR        000000000000 FUJITSU TEN (THAILAN16046KL001101116050HL000900916071HL0023024                                                                                                  *          20160822IMF1608224.TXT
MDEDG8288489201608                D89828070100PV1D20160826000060SPEAKER ASM                   M IMCTM S5MA12 FTTL  07070IMCT  S5 PTB  00004                    0230 SR        000000000000 FUJITSU TEN (THAILAN16046KL001201216056HL0009009                                                                                                                *          20160822IMF1608224.TXT
MDEDG8288490201608                D89828070100PV1D20160826000090SPEAKER ASM                   M IMCTM S5MA12 FTTL  07070IMCT  S5 PTB  00004                    0400 SR        000000000000 FUJITSU TEN (THAILAN16047KL001901916050HL001001016056HL0010010                                                                                                  *          20160822IMF1608224.TXT
MDEDG8288491201608                D89828070100PV1D20160826000120SPEAKER ASM                   M IMCTM S5MA12 FTTL  07070IMCT  S5 PTB  00004                    0900 SR        000000000000 FUJITSU TEN (THAILAN16052HL001801916061HL000600616072HL0014014                                                                                                  *          20160822IMF1608224.TXT
MDEDG8288492201608                D89828070100PV1D20160826000060SPEAKER ASM                   M IMCTM S5MA12 FTTL  07070IMCT  S5 PTB  00004                    1300 SR        000000000000 FUJITSU TEN (THAILAN16066HL001601616072HL0015015                                                                                                                *          20160822IMF1608224.TXT
MDEDG8288493201608                D89828070100PV1D20160826000060SPEAKER ASM                   M IMCTM S5MA12 FTTL  07070IMCT  S5 PTB  00004                    1600 SR        000000000000 FUJITSU TEN (THAILAN16046HL000300316066HL0017017                                                                                                                *          20160822IMF1608224.TXT
MDEDG8288494201608                D89828070100PV1D20160826000030SPEAKER ASM                   M IMCTM S5MA12 FTTL  07070IMCT  S5 PTB  00004                    2100 SR        000000000000 FUJITSU TEN (THAILAN16047HL0022022                                                                                                                              *          20160822IMF1608224.TXT
MDEDG8288495201608                D89828070100PV4D20160826000030SPEAKER ASM                   M IMCTM S0FL05 FTTL  07070IMCT  S0 PTB  00004                    1600 SR        000000000000 FUJITSU TEN (THAILAN16072HU0040040                                                                                                                              *          20160822IMF1608224.TXT
MDEDG8288496201608                D89828070200PV1D20160825000120SPEAKER ASM                   M IMCTM S5MA13 FTTL  07070IMCT  S5 PTB  00005                    2230 SR        000000000000 FUJITSU TEN (THAILAN16046KL001101116050HL000900916071HL0023024                                                                                                  *          20160822IMF1608224.TXT
MDEDG8288497201608                D89828070200PV1D20160826000030SPEAKER ASM                   M IMCTM S5MA13 FTTL  07070IMCT  S5 PTB  00005                    0230 SR        000000000000 FUJITSU TEN (THAILAN16046KL0012012                                                                                                                              *          20160822IMF1608224.TXT
MDEDG8288498201608                D89828070200PV1D20160826000060SPEAKER ASM                   M IMCTM S5MA13 FTTL  07070IMCT  S5 PTB  00005                    0400 SR        000000000000 FUJITSU TEN (THAILAN16047KL001901916050HL0010010                                                                                                                *          20160822IMF1608224.TXT
MDEDG8288499201608                D89828070200PV1D20160826000120SPEAKER ASM                   M IMCTM S5MA13 FTTL  07070IMCT  S5 PTB  00005                    0900 SR        000000000000 FUJITSU TEN (THAILAN16052HL001801916061HL000600616072HL0014014                                                                                                  *          20160822IMF1608224.TXT
MDEDG8288500201608                D89828070200PV1D20160826000060SPEAKER ASM                   M IMCTM S5MA13 FTTL  07070IMCT  S5 PTB  00005                    1300 SR        000000000000 FUJITSU TEN (THAILAN16066HL001601616072HL0015015                                                                                                                *          20160822IMF1608224.TXT
MDEDG8288501201608                D89828070200PV1D20160826000060SPEAKER ASM                   M IMCTM S5MA13 FTTL  07070IMCT  S5 PTB  00005                    1600 SR        000000000000 FUJITSU TEN (THAILAN16046HL000300316066HL0017017                                                                                                                *          20160822IMF1608224.TXT
MDEDG8288502201608                D89828070200PV4D20160826000030SPEAKER ASM                   M IMCTM S0FR05 FTTL  07070IMCT  S0 PTB  00005                    1600 SR        000000000000 FUJITSU TEN (THAILAN16072HU0040040                                                                                                                              *          20160822IMF1608224.TXT
MDEDG8288503201608                D89828070300PT1D20160825000120SPEAKER ASM                   M IMCTM S5NB042FTTL  07070IMCT  S5 PTB  00015                    2230 SR        000000000000 FUJITSU TEN (THAILAN16046KL001101116050HL000900916071HL0023024                                                                                                  *          20160822IMF1608224.TXT
MDEDG8288504201608                D89828070300PT1D20160826000060SPEAKER ASM                   M IMCTM S5NB042FTTL  07070IMCT  S5 PTB  00015                    0230 SR        000000000000 FUJITSU TEN (THAILAN16046KL001201216056HL0009009                                                                                                                *          20160822IMF1608224.TXT
MDEDG8288505201608                D89828070300PT1D20160826000090SPEAKER ASM                   M IMCTM S5NB042FTTL  07070IMCT  S5 PTB  00015                    0400 SR        000000000000 FUJITSU TEN (THAILAN16047KL001901916050HL001001016056HL0010010                                                                                                  *          20160822IMF1608224.TXT
MDEDG8288506201608                D89828070300PT1D20160826000120SPEAKER ASM                   M IMCTM S5NB042FTTL  07070IMCT  S5 PTB  00015                    0900 SR        000000000000 FUJITSU TEN (THAILAN16052HL001801916061HL000600616072HL0014014                                                                                                  *          20160822IMF1608224.TXT
MDEDG8288507201608                D89828070300PT1D20160826000060SPEAKER ASM                   M IMCTM S5NB042FTTL  07070IMCT  S5 PTB  00015                    1300 SR        000000000000 FUJITSU TEN (THAILAN16066HL001601616072HL0015015                                                                                                                *          20160822IMF1608224.TXT
MDEDG8288508201608                D89828070300PT1D20160826000060SPEAKER ASM                   M IMCTM S5NB042FTTL  07070IMCT  S5 PTB  00015                    1600 SR        000000000000 FUJITSU TEN (THAILAN16046HL000300316066HL0017017                                                                                                                *          20160822IMF1608224.TXT
MDEDG8288509201608                D89828070300PT1D20160826000030SPEAKER ASM                   M IMCTM S5NB042FTTL  07070IMCT  S5 PTB  00015                    2100 SR        000000000000 FUJITSU TEN (THAILAN16047HL0022022                                                                                                                              *          20160822IMF1608224.TXT
MDEDG8288510201608                D89828070300PT4D20160826000030SPEAKER ASM                   M IMCTM S9TS02 FTTL  07070IMCT  S9 PTB  00015                    1600 SR        000000000000 FUJITSU TEN (THAILAN16072HU0040040                                                                                                                              *          20160822IMF1608224.TXT
MDEDG8288511201608                D89831228600PT1D20160825000030RADIO;AM/FM,CD                M IMCTM S5NC06 FTTL  07070IMCT  S5 PTB  00003                    2230 SR        000000000000 FUJITSU TEN (THAILAN16071HL0023024                                                                                                                              *          20160822IMF1608224.TXT
MDEDG8288512201608                D89831228600PT1D20160826000030RADIO;AM/FM,CD                M IMCTM S5NC06 FTTL  07070IMCT  S5 PTB  00003                    0230 SR        000000000000 FUJITSU TEN (THAILAN16050HL000900916056HL0009009                                                                                                                *          20160822IMF1608224.TXT
MDEDG8288513201608                D89831228600PT1D20160826000030RADIO;AM/FM,CD                M IMCTM S5NC06 FTTL  07070IMCT  S5 PTB  00003                    0400 SR        000000000000 FUJITSU TEN (THAILAN16050HL001001016056HL0010010                                                                                                                *          20160822IMF1608224.TXT
MDEDG8288514201608                D89831228600PT1D20160826000015RADIO;AM/FM,CD                M IMCTM S5NC06 FTTL  07070IMCT  S5 PTB  00003                    0900 SR        000000000000 FUJITSU TEN (THAILAN16061HL0006006                                                                                                                              *          20160822IMF1608224.TXT
MDEDG8288515201608                D89831228600PT1D20160826000015RADIO;AM/FM,CD                M IMCTM S5NC06 FTTL  07070IMCT  S5 PTB  00003                    1300 SR        000000000000 FUJITSU TEN (THAILAN16066HL0016016                                                                                                                              *          20160822IMF1608224.TXT
MDEDG8288516201608                D89831228600PT1D20160826000015RADIO;AM/FM,CD                M IMCTM S5NC06 FTTL  07070IMCT  S5 PTB  00003                    1600 SR        000000000000 FUJITSU TEN (THAILAN16066HL0017017                                                                                                                              *          20160822IMF1608224.TXT
MDEDG8288517201608                D89831228600PT1D20160826000030RADIO;AM/FM,CD                M IMCTM S5NC06 FTTL  07070IMCT  S5 PTB  00003                    2100 SR        000000000000 FUJITSU TEN (THAILAN16046HL000300316047HL0022022                                                                                                                *          20160822IMF1608224.TXT
MDEUG8257172201608                D89828070100PT4U20160825000060SPEAKER ASM                   M IMCTM S0FL05 FTTL  07070IMCT  S0 PTB  00004                    2230 SR        000000000000 FUJITSU TEN (THAILAN160B37U0045045160B48U0283283                                                                                                                *          20160822IMF1608224.TXT
MDEUG8257173201608                D89828070100PT4U20160826000060SPEAKER ASM                   M IMCTM S0FL05 FTTL  07070IMCT  S0 PTB  00004                    0230 SR        000000000000 FUJITSU TEN (THAILAN160B41U0051051160B48U0284284                                                                                                                *          20160822IMF1608224.TXT
MDEUG8257174201608                D89828070100PT4U20160826000030SPEAKER ASM                   M IMCTM S0FL05 FTTL  07070IMCT  S0 PTB  00004                    0400 SR        000000000000 FUJITSU TEN (THAILAN160B48U0285285                                                                                                                              *          20160822IMF1608224.TXT
MDEUG8257175201608                D89828070100PT4U20160826000030SPEAKER ASM                   M IMCTM S0FL05 FTTL  07070IMCT  S0 PTB  00004                    0900 SR        000000000000 FUJITSU TEN (THAILAN160B48U0286286                                                                                                                              *          20160822IMF1608224.TXT
MDEUG8257176201608                D89828070200PV4U20160825000060SPEAKER ASM                   M IMCTM S0FR05 FTTL  07070IMCT  S0 PTB  00005                    2230 SR        000000000000 FUJITSU TEN (THAILAN160B37U0045045160B48U0283283                                                                                                                *          20160822IMF1608224.TXT
MDEUG8257177201608                D89828070200PV4U20160826000060SPEAKER ASM                   M IMCTM S0FR05 FTTL  07070IMCT  S0 PTB  00005                    0230 SR        000000000000 FUJITSU TEN (THAILAN160B41U0051051160B48U0284284                                                                                                                *          20160822IMF1608224.TXT
MDEUG8257178201608                D89828070200PV4U20160826000030SPEAKER ASM                   M IMCTM S0FR05 FTTL  07070IMCT  S0 PTB  00005                    0400 SR        000000000000 FUJITSU TEN (THAILAN160B48U0285285                                                                                                                              *          20160822IMF1608224.TXT
MDEUG8257179201608                D89828070200PV4U20160826000030SPEAKER ASM                   M IMCTM S0FR05 FTTL  07070IMCT  S0 PTB  00005                    0900 SR        000000000000 FUJITSU TEN (THAILAN160B48U0286286                                                                                                                              *          20160822IMF1608224.TXT
MDEUG8257180201608                D89828070300PT4U20160825000060SPEAKER ASM                   M IMCTM S9TS02 FTTL  07070IMCT  S9 PTB  00015                    2230 SR        000000000000 FUJITSU TEN (THAILAN160B37U0045045160B48U0283283                                                                                                                *          20160822IMF1608224.TXT
MDEUG8257181201608                D89828070300PT4U20160826000060SPEAKER ASM                   M IMCTM S9TS02 FTTL  07070IMCT  S9 PTB  00015                    0230 SR        000000000000 FUJITSU TEN (THAILAN160B41U0051051160B48U0284284                                                                                                                *          20160822IMF1608224.TXT
MDEUG8257182201608                D89828070300PT4U20160826000030SPEAKER ASM                   M IMCTM S9TS02 FTTL  07070IMCT  S9 PTB  00015                    0400 SR        000000000000 FUJITSU TEN (THAILAN160B48U0285285                                                                                                                              *          20160822IMF1608224.TXT
MDEUG8257183201608                D89828070300PT4U20160826000030SPEAKER ASM                   M IMCTM S9TS02 FTTL  07070IMCT  S9 PTB  00015                    0900 SR        000000000000 FUJITSU TEN (THAILAN160B48U0286286                                                                                                                              *          20160822IMF1608224.TXT
