REC2016082420160824ISUZU                              54     
MDDDG8236187201608                D89821984430PT1D20160829000030RADIO;AM/FM,CD                M IMCTM S5NC06 FTTL  07070IMCT  S5 PTB  00005                    2230 SR        000000000000 FUJITSU TEN (THAILAN160JXAL0203203                                                                                                                              *          20160824IMF1608245.TXT
MDDDG8236188201608                D89821984430PT1D20160830000030RADIO;AM/FM,CD                M IMCTM S5NC06 FTTL  07070IMCT  S5 PTB  00005                    0230 SR        000000000000 FUJITSU TEN (THAILAN160JXAL0204204                                                                                                                              *          20160824IMF1608245.TXT
MDDDG8236189201608                D89828070100PV1D20160829000060SPEAKER ASM                   M IMCTM S5MA12 FTTL  07070IMCT  S5 PTB  00004                    2230 SR        000000000000 FUJITSU TEN (THAILAN160JXAL0203203                                                                                                                              *          20160824IMF1608245.TXT
MDDDG8236190201608                D89828070100PV1D20160830000060SPEAKER ASM                   M IMCTM S5MA12 FTTL  07070IMCT  S5 PTB  00004                    0230 SR        000000000000 FUJITSU TEN (THAILAN160JXAL0204204                                                                                                                              *          20160824IMF1608245.TXT
MDDUG8227053201608                D89828070100PT4U20160829000030SPEAKER ASM                   M IMCTM S0FL05 FTTL  07070IMCT  S0 PTB  00004                    2100 SR        000000000000 FUJITSU TEN (THAILAN160JURU0045045                                                                                                                              *          20160824IMF1608245.TXT
MDDUG8227054201608                D89828070200PV4U20160829000030SPEAKER ASM                   M IMCTM S0FR05 FTTL  07070IMCT  S0 PTB  00005                    2100 SR        000000000000 FUJITSU TEN (THAILAN160JURU0045045                                                                                                                              *          20160824IMF1608245.TXT
MDDUG8227055201608                D89828070300PT4U20160829000030SPEAKER ASM                   M IMCTM S9TS02 FTTL  07070IMCT  S9 PTB  00015                    2100 SR        000000000000 FUJITSU TEN (THAILAN160JURU0045045                                                                                                                              *          20160824IMF1608245.TXT
MDDUG8227056201608                D89829093500PT4U20160829000015RADIO;ASM DVD (T              M IMCTM S9CO001FTTL  07070IMCT  S9 PTB  00003                    2100 SR        000000000000 FUJITSU TEN (THAILAN160JURU0045045                                                                                                                              *          20160824IMF1608245.TXT
MDEDG8303627201608                D89828070100PV1D20160829000030SPEAKER ASM                   M IMCTM S5MA12 FTTL  07070IMCT  S5 PTB  00004                    2100 SR        000000000000 FUJITSU TEN (THAILAN16071HL0027027                                                                                                                              *          20160824IMF1608245.TXT
MDEDG8303628201608                D89828070100PV1D20160829000090SPEAKER ASM                   M IMCTM S5MA12 FTTL  07070IMCT  S5 PTB  00004                    2230 SR        000000000000 FUJITSU TEN (THAILAN16050HL001301416071HL0028028                                                                                                                *          20160824IMF1608245.TXT
MDEDG8303629201608                D89828070100PV1D20160830000090SPEAKER ASM                   M IMCTM S5MA12 FTTL  07070IMCT  S5 PTB  00004                    0400 SR        000000000000 FUJITSU TEN (THAILAN16045HL001701716071HL0029030                                                                                                                *          20160824IMF1608245.TXT
MDEDG8303630201608                D89828070100PV1D20160830000120SPEAKER ASM                   M IMCTM S5MA12 FTTL  07070IMCT  S5 PTB  00004                    0900 SR        000000000000 FUJITSU TEN (THAILAN16047HL002302316068HL000600716078HL0012012                                                                                                  *          20160824IMF1608245.TXT
MDEDG8303631201608                D89828070100PV1D20160830000150SPEAKER ASM                   M IMCTM S5MA12 FTTL  07070IMCT  S5 PTB  00004                    1300 SR        000000000000 FUJITSU TEN (THAILAN16052HL002002016055HL000300416078HL0013014                                                                                                  *          20160824IMF1608245.TXT
MDEDG8303632201608                D89828070100PV1D20160830000060SPEAKER ASM                   M IMCTM S5MA12 FTTL  07070IMCT  S5 PTB  00004                    1600 SR        000000000000 FUJITSU TEN (THAILAN16054HL000700716073HL0013013                                                                                                                *          20160824IMF1608245.TXT
MDEDG8303633201608                D89828070100PV4D20160830000030SPEAKER ASM                   M IMCTM S0FL05 FTTL  07070IMCT  S0 PTB  00004                    0900 SR        000000000000 FUJITSU TEN (THAILAN16058HU0011011                                                                                                                              *          20160824IMF1608245.TXT
MDEDG8303634201608                D89828070200PV1D20160829000030SPEAKER ASM                   M IMCTM S5MA13 FTTL  07070IMCT  S5 PTB  00005                    2100 SR        000000000000 FUJITSU TEN (THAILAN16071HL0027027                                                                                                                              *          20160824IMF1608245.TXT
MDEDG8303635201608                D89828070200PV1D20160829000090SPEAKER ASM                   M IMCTM S5MA13 FTTL  07070IMCT  S5 PTB  00005                    2230 SR        000000000000 FUJITSU TEN (THAILAN16050HL001301416071HL0028028                                                                                                                *          20160824IMF1608245.TXT
MDEDG8303636201608                D89828070200PV1D20160830000060SPEAKER ASM                   M IMCTM S5MA13 FTTL  07070IMCT  S5 PTB  00005                    0400 SR        000000000000 FUJITSU TEN (THAILAN16071HL0029030                                                                                                                              *          20160824IMF1608245.TXT
MDEDG8303637201608                D89828070200PV1D20160830000060SPEAKER ASM                   M IMCTM S5MA13 FTTL  07070IMCT  S5 PTB  00005                    0900 SR        000000000000 FUJITSU TEN (THAILAN16068HL0006007                                                                                                                              *          20160824IMF1608245.TXT
MDEDG8303638201608                D89828070200PV1D20160830000030SPEAKER ASM                   M IMCTM S5MA13 FTTL  07070IMCT  S5 PTB  00005                    1300 SR        000000000000 FUJITSU TEN (THAILAN16052HL0020020                                                                                                                              *          20160824IMF1608245.TXT
MDEDG8303639201608                D89828070200PV1D20160830000030SPEAKER ASM                   M IMCTM S5MA13 FTTL  07070IMCT  S5 PTB  00005                    1600 SR        000000000000 FUJITSU TEN (THAILAN16073HL0013013                                                                                                                              *          20160824IMF1608245.TXT
MDEDG8303640201608                D89828070300PT1D20160829000030SPEAKER ASM                   M IMCTM S5NB042FTTL  07070IMCT  S5 PTB  00015                    2100 SR        000000000000 FUJITSU TEN (THAILAN16071HL0027027                                                                                                                              *          20160824IMF1608245.TXT
MDEDG8303641201608                D89828070300PT1D20160829000090SPEAKER ASM                   M IMCTM S5NB042FTTL  07070IMCT  S5 PTB  00015                    2230 SR        000000000000 FUJITSU TEN (THAILAN16050HL001301416071HL0028028                                                                                                                *          20160824IMF1608245.TXT
MDEDG8303642201608                D89828070300PT1D20160830000090SPEAKER ASM                   M IMCTM S5NB042FTTL  07070IMCT  S5 PTB  00015                    0400 SR        000000000000 FUJITSU TEN (THAILAN16045HL001701716071HL0029030                                                                                                                *          20160824IMF1608245.TXT
MDEDG8303643201608                D89828070300PT1D20160830000090SPEAKER ASM                   M IMCTM S5NB042FTTL  07070IMCT  S5 PTB  00015                    0900 SR        000000000000 FUJITSU TEN (THAILAN16047HL002302316068HL0006007                                                                                                                *          20160824IMF1608245.TXT
MDEDG8303644201608                D89828070300PT1D20160830000090SPEAKER ASM                   M IMCTM S5NB042FTTL  07070IMCT  S5 PTB  00015                    1300 SR        000000000000 FUJITSU TEN (THAILAN16052HL002002016055HL0003004                                                                                                                *          20160824IMF1608245.TXT
MDEDG8303645201608                D89828070300PT1D20160830000060SPEAKER ASM                   M IMCTM S5NB042FTTL  07070IMCT  S5 PTB  00015                    1600 SR        000000000000 FUJITSU TEN (THAILAN16054HL000700716073HL0013013                                                                                                                *          20160824IMF1608245.TXT
MDEDG8303646201608                D89828070300PT4D20160830000030SPEAKER ASM                   M IMCTM S9TS02 FTTL  07070IMCT  S9 PTB  00015                    0900 SR        000000000000 FUJITSU TEN (THAILAN16058HU0011011                                                                                                                              *          20160824IMF1608245.TXT
MDEDG8303647201608                D89831228500PT4D20160830000015RADIO;AM/FM,CD                M IMCTM S9CO001FTTL  07070IMCT  S9 PTB  00003                    0900 SR        000000000000 FUJITSU TEN (THAILAN16058HU0011011                                                                                                                              *          20160824IMF1608245.TXT
MDEDG8303648201608                D89831228600PT1D20160829000015RADIO;AM/FM,CD                M IMCTM S5NC06 FTTL  07070IMCT  S5 PTB  00003                    2100 SR        000000000000 FUJITSU TEN (THAILAN16071HL0027027                                                                                                                              *          20160824IMF1608245.TXT
MDEDG8303649201608                D89831228600PT1D20160829000045RADIO;AM/FM,CD                M IMCTM S5NC06 FTTL  07070IMCT  S5 PTB  00003                    2230 SR        000000000000 FUJITSU TEN (THAILAN16050HL001301416071HL0028028                                                                                                                *          20160824IMF1608245.TXT
MDEDG8303650201608                D89831228600PT1D20160830000045RADIO;AM/FM,CD                M IMCTM S5NC06 FTTL  07070IMCT  S5 PTB  00003                    0400 SR        000000000000 FUJITSU TEN (THAILAN16045HL001701716071HL0029030                                                                                                                *          20160824IMF1608245.TXT
MDEDG8303651201608                D89831228600PT1D20160830000015RADIO;AM/FM,CD                M IMCTM S5NC06 FTTL  07070IMCT  S5 PTB  00003                    0900 SR        000000000000 FUJITSU TEN (THAILAN16047HL0023023                                                                                                                              *          20160824IMF1608245.TXT
MDEDG8303652201608                D89831228600PT1D20160830000030RADIO;AM/FM,CD                M IMCTM S5NC06 FTTL  07070IMCT  S5 PTB  00003                    1300 SR        000000000000 FUJITSU TEN (THAILAN16055HL0003004                                                                                                                              *          20160824IMF1608245.TXT
MDEDG8303653201608                D89831228600PT1D20160830000015RADIO;AM/FM,CD                M IMCTM S5NC06 FTTL  07070IMCT  S5 PTB  00003                    1600 SR        000000000000 FUJITSU TEN (THAILAN16054HL0007007                                                                                                                              *          20160824IMF1608245.TXT
MDEUG8265680201608                D89828070100PT4U20160829000030SPEAKER ASM                   M IMCTM S0FL05 FTTL  07070IMCT  S0 PTB  00004                    2230 SR        000000000000 FUJITSU TEN (THAILAN160B48U0289289                                                                                                                              *          20160824IMF1608245.TXT
MDEUG8265681201608                D89828070100PT4U20160830000060SPEAKER ASM                   M IMCTM S0FL05 FTTL  07070IMCT  S0 PTB  00004                    0230 SR        000000000000 FUJITSU TEN (THAILAN160B35U0010010160B41U0053053                                                                                                                *          20160824IMF1608245.TXT
MDEUG8265682201608                D89828070100PT4U20160830000030SPEAKER ASM                   M IMCTM S0FL05 FTTL  07070IMCT  S0 PTB  00004                    0400 SR        000000000000 FUJITSU TEN (THAILAN160C01U0008008                                                                                                                              *          20160824IMF1608245.TXT
MDEUG8265683201608                D89828070100PT4U20160830000030SPEAKER ASM                   M IMCTM S0FL05 FTTL  07070IMCT  S0 PTB  00004                    0900 SR        000000000000 FUJITSU TEN (THAILAN160B42U0093093                                                                                                                              *          20160824IMF1608245.TXT
MDEUG8265684201608                D89828070100PT4U20160830000030SPEAKER ASM                   M IMCTM S0FL05 FTTL  07070IMCT  S0 PTB  00004                    1300 SR        000000000000 FUJITSU TEN (THAILAN160B48U0290290                                                                                                                              *          20160824IMF1608245.TXT
MDEUG8265685201608                D89828070100PT4U20160830000030SPEAKER ASM                   M IMCTM S0FL05 FTTL  07070IMCT  S0 PTB  00004                    1600 SR        000000000000 FUJITSU TEN (THAILAN160B41U0054054                                                                                                                              *          20160824IMF1608245.TXT
MDEUG8265686201608                D89828070200PV4U20160829000030SPEAKER ASM                   M IMCTM S0FR05 FTTL  07070IMCT  S0 PTB  00005                    2230 SR        000000000000 FUJITSU TEN (THAILAN160B48U0289289                                                                                                                              *          20160824IMF1608245.TXT
MDEUG8265687201608                D89828070200PV4U20160830000060SPEAKER ASM                   M IMCTM S0FR05 FTTL  07070IMCT  S0 PTB  00005                    0230 SR        000000000000 FUJITSU TEN (THAILAN160B35U0010010160B41U0053053                                                                                                                *          20160824IMF1608245.TXT
MDEUG8265688201608                D89828070200PV4U20160830000030SPEAKER ASM                   M IMCTM S0FR05 FTTL  07070IMCT  S0 PTB  00005                    0400 SR        000000000000 FUJITSU TEN (THAILAN160C01U0008008                                                                                                                              *          20160824IMF1608245.TXT
MDEUG8265689201608                D89828070200PV4U20160830000030SPEAKER ASM                   M IMCTM S0FR05 FTTL  07070IMCT  S0 PTB  00005                    0900 SR        000000000000 FUJITSU TEN (THAILAN160B42U0093093                                                                                                                              *          20160824IMF1608245.TXT
MDEUG8265690201608                D89828070200PV4U20160830000030SPEAKER ASM                   M IMCTM S0FR05 FTTL  07070IMCT  S0 PTB  00005                    1300 SR        000000000000 FUJITSU TEN (THAILAN160B48U0290290                                                                                                                              *          20160824IMF1608245.TXT
MDEUG8265691201608                D89828070200PV4U20160830000030SPEAKER ASM                   M IMCTM S0FR05 FTTL  07070IMCT  S0 PTB  00005                    1600 SR        000000000000 FUJITSU TEN (THAILAN160B41U0054054                                                                                                                              *          20160824IMF1608245.TXT
MDEUG8265692201608                D89828070300PT4U20160829000030SPEAKER ASM                   M IMCTM S9TS02 FTTL  07070IMCT  S9 PTB  00015                    2230 SR        000000000000 FUJITSU TEN (THAILAN160B48U0289289                                                                                                                              *          20160824IMF1608245.TXT
MDEUG8265693201608                D89828070300PT4U20160830000060SPEAKER ASM                   M IMCTM S9TS02 FTTL  07070IMCT  S9 PTB  00015                    0230 SR        000000000000 FUJITSU TEN (THAILAN160B35U0010010160B41U0053053                                                                                                                *          20160824IMF1608245.TXT
MDEUG8265694201608                D89828070300PT4U20160830000030SPEAKER ASM                   M IMCTM S9TS02 FTTL  07070IMCT  S9 PTB  00015                    0400 SR        000000000000 FUJITSU TEN (THAILAN160C01U0008008                                                                                                                              *          20160824IMF1608245.TXT
MDEUG8265695201608                D89828070300PT4U20160830000030SPEAKER ASM                   M IMCTM S9TS02 FTTL  07070IMCT  S9 PTB  00015                    0900 SR        000000000000 FUJITSU TEN (THAILAN160B42U0093093                                                                                                                              *          20160824IMF1608245.TXT
MDEUG8265696201608                D89828070300PT4U20160830000030SPEAKER ASM                   M IMCTM S9TS02 FTTL  07070IMCT  S9 PTB  00015                    1300 SR        000000000000 FUJITSU TEN (THAILAN160B48U0290290                                                                                                                              *          20160824IMF1608245.TXT
MDEUG8265697201608                D89828070300PT4U20160830000030SPEAKER ASM                   M IMCTM S9TS02 FTTL  07070IMCT  S9 PTB  00015                    1600 SR        000000000000 FUJITSU TEN (THAILAN160B41U0054054                                                                                                                              *          20160824IMF1608245.TXT
MDEUG8265698201608                D89831228600PT4U20160830000015RADIO;AM/FM,CD                M IMCTM S9CO001FTTL  07070IMCT  S9 PTB  00003                    0230 SR        000000000000 FUJITSU TEN (THAILAN160B35U0010010                                                                                                                              *          20160824IMF1608245.TXT
