REC2016091920160919ISUZU                              26     
MDDDG9230585201609                D89821984430PT1D20160923000030RADIO;AM/FM,CD                M IMCTM S5NC06 FTTL  07070IMCT  S5 PTB  00005                    1300 SR        000000000000 FUJITSU TEN (THAILAN170KNDL0009009                                                                                                                              *          20160919IMF1609194.TXT
MDDDG9230586201609                D89828070100PV1D20160923000060SPEAKER ASM                   M IMCTM S5MA12 FTTL  07070IMCT  S5 PTB  00004                    0230 SR        000000000000 FUJITSU TEN (THAILAN170KNBL0001001                                                                                                                              *          20160919IMF1609194.TXT
MDDDG9230587201609                D89828070100PV1D20160923000120SPEAKER ASM                   M IMCTM S5MA12 FTTL  07070IMCT  S5 PTB  00004                    1300 SR        000000000000 FUJITSU TEN (THAILAN170KNDL0009009170KRSL0006006                                                                                                                *          20160919IMF1609194.TXT
MDDDG9230588201609                D89828070200PV1D20160923000060SPEAKER ASM                   M IMCTM S5MA13 FTTL  07070IMCT  S5 PTB  00005                    1300 SR        000000000000 FUJITSU TEN (THAILAN170KRSL0006006                                                                                                                              *          20160919IMF1609194.TXT
MDDDG9230589201609                D89828070300PT1D20160923000060SPEAKER ASM                   M IMCTM S5NB042FTTL  07070IMCT  S5 PTB  00015                    1300 SR        000000000000 FUJITSU TEN (THAILAN170KRSL0006006                                                                                                                              *          20160919IMF1609194.TXT
MDDUG9228154201609                D89828070100PT4U20160923000030SPEAKER ASM                   M IMCTM S0FL05 FTTL  07070IMCT  S0 PTB  00004                    0230 SR        000000000000 FUJITSU TEN (THAILAN170KUCU0006006                                                                                                                              *          20160919IMF1609194.TXT
MDDUG9228155201609                D89828070200PV4U20160923000030SPEAKER ASM                   M IMCTM S0FR05 FTTL  07070IMCT  S0 PTB  00005                    0230 SR        000000000000 FUJITSU TEN (THAILAN170KUCU0006006                                                                                                                              *          20160919IMF1609194.TXT
MDDUG9228156201609                D89828070300PT4U20160923000030SPEAKER ASM                   M IMCTM S9TS02 FTTL  07070IMCT  S9 PTB  00015                    0230 SR        000000000000 FUJITSU TEN (THAILAN170KUCU0006006                                                                                                                              *          20160919IMF1609194.TXT
MDDUG9228157201609                D89829093500PT4U20160923000015RADIO;ASM DVD (T              M IMCTM S9CO001FTTL  07070IMCT  S9 PTB  00003                    0230 SR        000000000000 FUJITSU TEN (THAILAN170KUCU0006006                                                                                                                              *          20160919IMF1609194.TXT
MDEDG9298395201609                D89828070100PV1D20160922000060SPEAKER ASM                   M IMCTM S5MA12 FTTL  07070IMCT  S5 PTB  00004                    2100 SR        000000000000 FUJITSU TEN (THAILAN16007JL008908916033JL0012012                                                                                                                *          20160919IMF1609194.TXT
MDEDG9298396201609                D89828070100PV1D20160922000150SPEAKER ASM                   M IMCTM S5MA12 FTTL  07070IMCT  S5 PTB  00004                    2230 SR        000000000000 FUJITSU TEN (THAILAN16007JL009009116033JL001301316072LL001501516075HL0054054                                                                                    *          20160919IMF1609194.TXT
MDEDG9298397201609                D89828070100PV1D20160923000090SPEAKER ASM                   M IMCTM S5MA12 FTTL  07070IMCT  S5 PTB  00004                    0400 SR        000000000000 FUJITSU TEN (THAILAN16007JL009209316032JL0019019                                                                                                                *          20160919IMF1609194.TXT
MDEDG9298398201609                D89828070100PV1D20160923000120SPEAKER ASM                   M IMCTM S5MA12 FTTL  07070IMCT  S5 PTB  00004                    0900 SR        000000000000 FUJITSU TEN (THAILAN16007JL009409416025KL000700716072LL0016017                                                                                                  *          20160919IMF1609194.TXT
MDEDG9298399201609                D89828070100PV1D20160923000060SPEAKER ASM                   M IMCTM S5MA12 FTTL  07070IMCT  S5 PTB  00004                    1300 SR        000000000000 FUJITSU TEN (THAILAN16007JL009509516081HL0109109                                                                                                                *          20160919IMF1609194.TXT
MDEDG9298400201609                D89828070200PV1D20160923000030SPEAKER ASM                   M IMCTM S5MA13 FTTL  07070IMCT  S5 PTB  00005                    0900 SR        000000000000 FUJITSU TEN (THAILAN16025KL0007007                                                                                                                              *          20160919IMF1609194.TXT
MDEDG9298401201609                D89828070300PT1D20160923000030SPEAKER ASM                   M IMCTM S5NB042FTTL  07070IMCT  S5 PTB  00015                    0900 SR        000000000000 FUJITSU TEN (THAILAN16025KL0007007                                                                                                                              *          20160919IMF1609194.TXT
MDEDG9298402201609                D89831229000PT1D20160923000015RADIO;AM/FM,CD                M IMCTM S5NC06 FTTL  07070IMCT  S5 PTB  00003                    0900 SR        000000000000 FUJITSU TEN (THAILAN16025KL0007007                                                                                                                              *          20160919IMF1609194.TXT
MDEUG9251081201609                D89828070100PT4U20160923000030SPEAKER ASM                   M IMCTM S0FL05 FTTL  07070IMCT  S0 PTB  00004                    0230 SR        000000000000 FUJITSU TEN (THAILAN160B48U0365365                                                                                                                              *          20160919IMF1609194.TXT
MDEUG9251082201609                D89828070100PT4U20160923000030SPEAKER ASM                   M IMCTM S0FL05 FTTL  07070IMCT  S0 PTB  00004                    0400 SR        000000000000 FUJITSU TEN (THAILAN160B48U0366366                                                                                                                              *          20160919IMF1609194.TXT
MDEUG9251083201609                D89828070100PT4U20160923000090SPEAKER ASM                   M IMCTM S0FL05 FTTL  07070IMCT  S0 PTB  00004                    0900 SR        000000000000 FUJITSU TEN (THAILAN160B45U0049049160B46U0109109160B48U0367367                                                                                                  *          20160919IMF1609194.TXT
MDEUG9251084201609                D89828070200PV4U20160923000030SPEAKER ASM                   M IMCTM S0FR05 FTTL  07070IMCT  S0 PTB  00005                    0230 SR        000000000000 FUJITSU TEN (THAILAN160B48U0365365                                                                                                                              *          20160919IMF1609194.TXT
MDEUG9251085201609                D89828070200PV4U20160923000030SPEAKER ASM                   M IMCTM S0FR05 FTTL  07070IMCT  S0 PTB  00005                    0400 SR        000000000000 FUJITSU TEN (THAILAN160B48U0366366                                                                                                                              *          20160919IMF1609194.TXT
MDEUG9251086201609                D89828070200PV4U20160923000090SPEAKER ASM                   M IMCTM S0FR05 FTTL  07070IMCT  S0 PTB  00005                    0900 SR        000000000000 FUJITSU TEN (THAILAN160B45U0049049160B46U0109109160B48U0367367                                                                                                  *          20160919IMF1609194.TXT
MDEUG9251087201609                D89828070300PT4U20160923000030SPEAKER ASM                   M IMCTM S9TS02 FTTL  07070IMCT  S9 PTB  00015                    0230 SR        000000000000 FUJITSU TEN (THAILAN160B48U0365365                                                                                                                              *          20160919IMF1609194.TXT
MDEUG9251088201609                D89828070300PT4U20160923000030SPEAKER ASM                   M IMCTM S9TS02 FTTL  07070IMCT  S9 PTB  00015                    0400 SR        000000000000 FUJITSU TEN (THAILAN160B48U0366366                                                                                                                              *          20160919IMF1609194.TXT
MDEUG9251089201609                D89828070300PT4U20160923000090SPEAKER ASM                   M IMCTM S9TS02 FTTL  07070IMCT  S9 PTB  00015                    0900 SR        000000000000 FUJITSU TEN (THAILAN160B45U0049049160B46U0109109160B48U0367367                                                                                                  *          20160919IMF1609194.TXT
