REC2016092620160926ISUZU                              4      
MDEFG9T15920201609                D89828070100PV4F20160929000030SPEAKER ASM                   M IMCTM S7FL05 FTTL  07070IMCT  S7 PTB  00004                    1300 SR        000000000000 FUJITSU TEN (THAILAN16002KR0043   16001KR0027   C160904101    C160904115    000000                                                                              *R         20160926RDF1609265.TXT
MDEFG9T15921201609                D89828070200PV4F20160929000018SPEAKER ASM                   M IMCTM S7TS02 FTTL  07070IMCT  S7 PTB  00005                    1300 SR        000000000000 FUJITSU TEN (THAILAN16002KR0043   16064KR0034   C160904101    C160904112    000000                                                                              *R         20160926RDF1609265.TXT
MDEFG9T15922201609                D89828070300PT4F20160929000018SPEAKER ASM                   M IMCTM S7TS02 FTTL  07070IMCT  S7 PTB  00015                    1300 SR        000000000000 FUJITSU TEN (THAILAN16002KR0043   16064KR0034   C160904101    C160904112    000000                                                                              *R         20160926RDF1609265.TXT
MDEFG9T15923201609                D89831228400PT4F20160929000003RADIO;AM/FM,CD                M IMCTM S7TS03 FTTL  07070IMCT  S7 CPB  00003                    1300 SR        000000000000 FUJITSU TEN (THAILAN16064KR0032   16064KR0034   C160904106    C160904112    000000                                                                              *R         20160926RDF1609265.TXT
