REC2016092220160922ISUZU                              42     
MDDDG9241628201609                D89821984430PT1D20160928000030RADIO;AM/FM,CD                M IMCTM S5NC06 FTTL  07070IMCT  S5 PTB  00005                    0230 SR        000000000000 FUJITSU TEN (THAILAN170KNDL0010010                                                                                                                              *          20160922IMF1609225.TXT
MDDDG9241629201609                D89821984430PT1D20160928000030RADIO;AM/FM,CD                M IMCTM S5NC06 FTTL  07070IMCT  S5 PTB  00005                    0900 SR        000000000000 FUJITSU TEN (THAILAN170KNDL0011011                                                                                                                              *          20160922IMF1609225.TXT
MDDDG9241630201609                D89821984430PT1D20160928000030RADIO;AM/FM,CD                M IMCTM S5NC06 FTTL  07070IMCT  S5 PTB  00005                    1300 SR        000000000000 FUJITSU TEN (THAILAN170KNDL0012012                                                                                                                              *          20160922IMF1609225.TXT
MDDDG9241631201609                D89828070100PV1D20160928000060SPEAKER ASM                   M IMCTM S5MA12 FTTL  07070IMCT  S5 PTB  00004                    0230 SR        000000000000 FUJITSU TEN (THAILAN170KNDL0010010                                                                                                                              *          20160922IMF1609225.TXT
MDDDG9241632201609                D89828070100PV1D20160928000060SPEAKER ASM                   M IMCTM S5MA12 FTTL  07070IMCT  S5 PTB  00004                    0900 SR        000000000000 FUJITSU TEN (THAILAN170KNDL0011011                                                                                                                              *          20160922IMF1609225.TXT
MDDDG9241633201609                D89828070100PV1D20160928000120SPEAKER ASM                   M IMCTM S5MA12 FTTL  07070IMCT  S5 PTB  00004                    1300 SR        000000000000 FUJITSU TEN (THAILAN170KNDL0012012170KRSL0008008                                                                                                                *          20160922IMF1609225.TXT
MDDDG9241634201609                D89828070100PV1D20160928000120SPEAKER ASM                   M IMCTM S5MA12 FTTL  07070IMCT  S5 PTB  00004                    1600 SR        000000000000 FUJITSU TEN (THAILAN170KNBL0002002170KPHL0002002                                                                                                                *          20160922IMF1609225.TXT
MDDDG9241635201609                D89828070200PV1D20160928000060SPEAKER ASM                   M IMCTM S5MA13 FTTL  07070IMCT  S5 PTB  00005                    1300 SR        000000000000 FUJITSU TEN (THAILAN170KRSL0008008                                                                                                                              *          20160922IMF1609225.TXT
MDDDG9241636201609                D89828070300PT1D20160928000060SPEAKER ASM                   M IMCTM S5NB042FTTL  07070IMCT  S5 PTB  00015                    1300 SR        000000000000 FUJITSU TEN (THAILAN170KRSL0008008                                                                                                                              *          20160922IMF1609225.TXT
MDDDG9241637201609                D89828070300PT1D20160928000060SPEAKER ASM                   M IMCTM S5NB042FTTL  07070IMCT  S5 PTB  00015                    1600 SR        000000000000 FUJITSU TEN (THAILAN170KPHL0002002                                                                                                                              *          20160922IMF1609225.TXT
MDDDG9241638201609                D89831228300PT1D20160928000030RADIO;AM/FM,CD                M IMCTM S5NC06 FTTL  07070IMCT  S5 CPB  00003                    1600 SR        000000000000 FUJITSU TEN (THAILAN170KPHL0002002                                                                                                                              *          20160922IMF1609225.TXT
MDDUG9237712201609                D89828070100PT4U20160928000030SPEAKER ASM                   M IMCTM S0FL05 FTTL  07070IMCT  S0 PTB  00004                    0400 SR        000000000000 FUJITSU TEN (THAILAN170KUCU0008008                                                                                                                              *          20160922IMF1609225.TXT
MDDUG9237713201609                D89828070200PV4U20160928000030SPEAKER ASM                   M IMCTM S0FR05 FTTL  07070IMCT  S0 PTB  00005                    0400 SR        000000000000 FUJITSU TEN (THAILAN170KUCU0008008                                                                                                                              *          20160922IMF1609225.TXT
MDDUG9237714201609                D89828070300PT4U20160928000030SPEAKER ASM                   M IMCTM S9TS02 FTTL  07070IMCT  S9 PTB  00015                    0400 SR        000000000000 FUJITSU TEN (THAILAN170KUCU0008008                                                                                                                              *          20160922IMF1609225.TXT
MDDUG9237715201609                D89829093500PT4U20160928000015RADIO;ASM DVD (T              M IMCTM S9CO001FTTL  07070IMCT  S9 PTB  00003                    0400 SR        000000000000 FUJITSU TEN (THAILAN170KUCU0008008                                                                                                                              *          20160922IMF1609225.TXT
MDEDG9317183201609                D89828070100PV1D20160927000060SPEAKER ASM                   M IMCTM S5MA12 FTTL  07070IMCT  S5 PTB  00004                    2100 SR        000000000000 FUJITSU TEN (THAILAN16075HL0064065                                                                                                                              *          20160922IMF1609225.TXT
MDEDG9317184201609                D89828070100PV1D20160927000150SPEAKER ASM                   M IMCTM S5MA12 FTTL  07070IMCT  S5 PTB  00004                    2230 SR        000000000000 FUJITSU TEN (THAILAN16032JL002302316047KL002302316075HL0066068                                                                                                  *          20160922IMF1609225.TXT
MDEDG9317185201609                D89828070100PV1D20160928000030SPEAKER ASM                   M IMCTM S5MA12 FTTL  07070IMCT  S5 PTB  00004                    0230 SR        000000000000 FUJITSU TEN (THAILAN16075HL0069069                                                                                                                              *          20160922IMF1609225.TXT
MDEDG9317186201609                D89828070100PV1D20160928000060SPEAKER ASM                   M IMCTM S5MA12 FTTL  07070IMCT  S5 PTB  00004                    0400 SR        000000000000 FUJITSU TEN (THAILAN16007JL010410416075HL0070070                                                                                                                *          20160922IMF1609225.TXT
MDEDG9317187201609                D89828070100PV1D20160928000060SPEAKER ASM                   M IMCTM S5MA12 FTTL  07070IMCT  S5 PTB  00004                    0900 SR        000000000000 FUJITSU TEN (THAILAN16007JL010510516075HL0071071                                                                                                                *          20160922IMF1609225.TXT
MDEDG9317188201609                D89828070100PV1D20160928000030SPEAKER ASM                   M IMCTM S5MA12 FTTL  07070IMCT  S5 PTB  00004                    1300 SR        000000000000 FUJITSU TEN (THAILAN16075HL0072072                                                                                                                              *          20160922IMF1609225.TXT
MDEDG9317189201609                D89828070100PV1D20160928000060SPEAKER ASM                   M IMCTM S5MA12 FTTL  07070IMCT  S5 PTB  00004                    1600 SR        000000000000 FUJITSU TEN (THAILAN16032JL002402416075HL0073073                                                                                                                *          20160922IMF1609225.TXT
MDEDG9317190201609                D89828070200PV1D20160927000030SPEAKER ASM                   M IMCTM S5MA13 FTTL  07070IMCT  S5 PTB  00005                    2230 SR        000000000000 FUJITSU TEN (THAILAN16047KL0023023                                                                                                                              *          20160922IMF1609225.TXT
MDEDG9317191201609                D89828070300PT1D20160927000030SPEAKER ASM                   M IMCTM S5NB042FTTL  07070IMCT  S5 PTB  00015                    2230 SR        000000000000 FUJITSU TEN (THAILAN16047KL0023023                                                                                                                              *          20160922IMF1609225.TXT
MDEUG9264104201609                D89828070100PT4U20160927000030SPEAKER ASM                   M IMCTM S0FL05 FTTL  07070IMCT  S0 PTB  00004                    2100 SR        000000000000 FUJITSU TEN (THAILAN160B53U0012012                                                                                                                              *          20160922IMF1609225.TXT
MDEUG9264105201609                D89828070100PT4U20160927000030SPEAKER ASM                   M IMCTM S0FL05 FTTL  07070IMCT  S0 PTB  00004                    2230 SR        000000000000 FUJITSU TEN (THAILAN160C01U0012012                                                                                                                              *          20160922IMF1609225.TXT
MDEUG9264106201609                D89828070100PT4U20160928000030SPEAKER ASM                   M IMCTM S0FL05 FTTL  07070IMCT  S0 PTB  00004                    0230 SR        000000000000 FUJITSU TEN (THAILAN160B48U0371371                                                                                                                              *          20160922IMF1609225.TXT
MDEUG9264107201609                D89828070100PT4U20160928000060SPEAKER ASM                   M IMCTM S0FL05 FTTL  07070IMCT  S0 PTB  00004                    0900 SR        000000000000 FUJITSU TEN (THAILAN160B46U0115115160B95U0015015                                                                                                                *          20160922IMF1609225.TXT
MDEUG9264108201609                D89828070100PT4U20160928000060SPEAKER ASM                   M IMCTM S0FL05 FTTL  07070IMCT  S0 PTB  00004                    1300 SR        000000000000 FUJITSU TEN (THAILAN160B45U0051051160B94U0007007                                                                                                                *          20160922IMF1609225.TXT
MDEUG9264109201609                D89828070100PT4U20160928000030SPEAKER ASM                   M IMCTM S0FL05 FTTL  07070IMCT  S0 PTB  00004                    1600 SR        000000000000 FUJITSU TEN (THAILAN160B46U0116116                                                                                                                              *          20160922IMF1609225.TXT
MDEUG9264110201609                D89828070200PV4U20160927000030SPEAKER ASM                   M IMCTM S0FR05 FTTL  07070IMCT  S0 PTB  00005                    2100 SR        000000000000 FUJITSU TEN (THAILAN160B53U0012012                                                                                                                              *          20160922IMF1609225.TXT
MDEUG9264111201609                D89828070200PV4U20160927000030SPEAKER ASM                   M IMCTM S0FR05 FTTL  07070IMCT  S0 PTB  00005                    2230 SR        000000000000 FUJITSU TEN (THAILAN160C01U0012012                                                                                                                              *          20160922IMF1609225.TXT
MDEUG9264112201609                D89828070200PV4U20160928000030SPEAKER ASM                   M IMCTM S0FR05 FTTL  07070IMCT  S0 PTB  00005                    0230 SR        000000000000 FUJITSU TEN (THAILAN160B48U0371371                                                                                                                              *          20160922IMF1609225.TXT
MDEUG9264113201609                D89828070200PV4U20160928000060SPEAKER ASM                   M IMCTM S0FR05 FTTL  07070IMCT  S0 PTB  00005                    0900 SR        000000000000 FUJITSU TEN (THAILAN160B46U0115115160B95U0015015                                                                                                                *          20160922IMF1609225.TXT
MDEUG9264114201609                D89828070200PV4U20160928000060SPEAKER ASM                   M IMCTM S0FR05 FTTL  07070IMCT  S0 PTB  00005                    1300 SR        000000000000 FUJITSU TEN (THAILAN160B45U0051051160B94U0007007                                                                                                                *          20160922IMF1609225.TXT
MDEUG9264115201609                D89828070200PV4U20160928000030SPEAKER ASM                   M IMCTM S0FR05 FTTL  07070IMCT  S0 PTB  00005                    1600 SR        000000000000 FUJITSU TEN (THAILAN160B46U0116116                                                                                                                              *          20160922IMF1609225.TXT
MDEUG9264116201609                D89828070300PT4U20160927000030SPEAKER ASM                   M IMCTM S9TS02 FTTL  07070IMCT  S9 PTB  00015                    2100 SR        000000000000 FUJITSU TEN (THAILAN160B53U0012012                                                                                                                              *          20160922IMF1609225.TXT
MDEUG9264117201609                D89828070300PT4U20160927000030SPEAKER ASM                   M IMCTM S9TS02 FTTL  07070IMCT  S9 PTB  00015                    2230 SR        000000000000 FUJITSU TEN (THAILAN160C01U0012012                                                                                                                              *          20160922IMF1609225.TXT
MDEUG9264118201609                D89828070300PT4U20160928000030SPEAKER ASM                   M IMCTM S9TS02 FTTL  07070IMCT  S9 PTB  00015                    0230 SR        000000000000 FUJITSU TEN (THAILAN160B48U0371371                                                                                                                              *          20160922IMF1609225.TXT
MDEUG9264119201609                D89828070300PT4U20160928000060SPEAKER ASM                   M IMCTM S9TS02 FTTL  07070IMCT  S9 PTB  00015                    0900 SR        000000000000 FUJITSU TEN (THAILAN160B46U0115115160B95U0015015                                                                                                                *          20160922IMF1609225.TXT
MDEUG9264120201609                D89828070300PT4U20160928000060SPEAKER ASM                   M IMCTM S9TS02 FTTL  07070IMCT  S9 PTB  00015                    1300 SR        000000000000 FUJITSU TEN (THAILAN160B45U0051051160B94U0007007                                                                                                                *          20160922IMF1609225.TXT
MDEUG9264121201609                D89828070300PT4U20160928000030SPEAKER ASM                   M IMCTM S9TS02 FTTL  07070IMCT  S9 PTB  00015                    1600 SR        000000000000 FUJITSU TEN (THAILAN160B46U0116116                                                                                                                              *          20160922IMF1609225.TXT
