REC2016090620160906ISUZU                              56     
MDDDG9206177201609                D89821984430PT1D20160910000030RADIO;AM/FM,CD                M IMCTM S5NC06 FTTL  07070IMCT  S5 PTB  00005                    0900 SR        000000000000 FUJITSU TEN (THAILAN170KNEL0001001                                                                                                                              *          20160906IMF1609064.TXT
MDDDG9206178201609                D89828070100PV1D20160910000060SPEAKER ASM                   M IMCTM S5MA12 FTTL  07070IMCT  S5 PTB  00004                    0900 SR        000000000000 FUJITSU TEN (THAILAN170KNEL0001001                                                                                                                              *          20160906IMF1609064.TXT
MDDDG9206179201609                D89828070100PV1D20160910000060SPEAKER ASM                   M IMCTM S5MA12 FTTL  07070IMCT  S5 PTB  00004                    1300 SR        000000000000 FUJITSU TEN (THAILAN170KRSL0001001                                                                                                                              *          20160906IMF1609064.TXT
MDDDG9206180201609                D89828070200PV1D20160910000060SPEAKER ASM                   M IMCTM S5MA13 FTTL  07070IMCT  S5 PTB  00005                    1300 SR        000000000000 FUJITSU TEN (THAILAN170KRSL0001001                                                                                                                              *          20160906IMF1609064.TXT
MDDDG9206181201609                D89828070300PT1D20160910000060SPEAKER ASM                   M IMCTM S5NB042FTTL  07070IMCT  S5 PTB  00015                    1300 SR        000000000000 FUJITSU TEN (THAILAN170KRSL0001001                                                                                                                              *          20160906IMF1609064.TXT
MDDUG9206123201609                D89828070100PT4U20160909000030SPEAKER ASM                   M IMCTM S0FL05 FTTL  07070IMCT  S0 PTB  00004                    2100 SR        000000000000 FUJITSU TEN (THAILAN170KUCU0001001                                                                                                                              *          20160906IMF1609064.TXT
MDDUG9206124201609                D89828070200PV4U20160909000030SPEAKER ASM                   M IMCTM S0FR05 FTTL  07070IMCT  S0 PTB  00005                    2100 SR        000000000000 FUJITSU TEN (THAILAN170KUCU0001001                                                                                                                              *          20160906IMF1609064.TXT
MDDUG9206125201609                D89828070300PT4U20160909000030SPEAKER ASM                   M IMCTM S9TS02 FTTL  07070IMCT  S9 PTB  00015                    2100 SR        000000000000 FUJITSU TEN (THAILAN170KUCU0001001                                                                                                                              *          20160906IMF1609064.TXT
MDDUG9206126201609                D89829093500PT4U20160909000015RADIO;ASM DVD (T              M IMCTM S9CO001FTTL  07070IMCT  S9 PTB  00003                    2100 SR        000000000000 FUJITSU TEN (THAILAN170KUCU0001001                                                                                                                              *          20160906IMF1609064.TXT
MDEDG9226047201609                D89805293700PV1D20160909000060SPEAKER ASM                   M IMCTM S5MA12 FTTL  07070IMCT  S5 PTB  00003                    2230 SR        000000000000 FUJITSU TEN (THAILAN15018FL008208215019FL0108108                                                                                                                *          20160906IMF1609064.TXT
MDEDG9226048201609                D89805293700PV1D20160910000030SPEAKER ASM                   M IMCTM S5MA12 FTTL  07070IMCT  S5 PTB  00003                    0230 SR        000000000000 FUJITSU TEN (THAILAN15019FL0109109                                                                                                                              *          20160906IMF1609064.TXT
MDEDG9226049201609                D89805293700PV1D20160910000060SPEAKER ASM                   M IMCTM S5MA12 FTTL  07070IMCT  S5 PTB  00003                    0400 SR        000000000000 FUJITSU TEN (THAILAN15019FL0110111                                                                                                                              *          20160906IMF1609064.TXT
MDEDG9226050201609                D89805293700PV1D20160910000030SPEAKER ASM                   M IMCTM S5MA12 FTTL  07070IMCT  S5 PTB  00003                    0900 SR        000000000000 FUJITSU TEN (THAILAN15019FL0112112                                                                                                                              *          20160906IMF1609064.TXT
MDEDG9226051201609                D89805293700PV1D20160910000030SPEAKER ASM                   M IMCTM S5MA12 FTTL  07070IMCT  S5 PTB  00003                    1300 SR        000000000000 FUJITSU TEN (THAILAN15028BL0036036                                                                                                                              *          20160906IMF1609064.TXT
MDEDG9226052201609                D89805293700PV1D20160910000030SPEAKER ASM                   M IMCTM S5MA12 FTTL  07070IMCT  S5 PTB  00003                    1600 SR        000000000000 FUJITSU TEN (THAILAN15028BL0037037                                                                                                                              *          20160906IMF1609064.TXT
MDEDG9226053201609                D89805294000PT1D20160910000030SPEAKER ASM                   M IMCTM S5NB042FTTL  07070IMCT  S5 PTB  00015                    1300 SR        000000000000 FUJITSU TEN (THAILAN15028BL0036036                                                                                                                              *          20160906IMF1609064.TXT
MDEDG9226054201609                D89805294000PT1D20160910000030SPEAKER ASM                   M IMCTM S5NB042FTTL  07070IMCT  S5 PTB  00015                    1600 SR        000000000000 FUJITSU TEN (THAILAN15028BL0037037                                                                                                                              *          20160906IMF1609064.TXT
MDEDG9226055201609                D89805294100PV1D20160910000030SPEAKER ASM                   M IMCTM S5MB13 FTTL  07070IMCT  S5 PTB  00005                    1300 SR        000000000000 FUJITSU TEN (THAILAN15028BL0036036                                                                                                                              *          20160906IMF1609064.TXT
MDEDG9226056201609                D89805294100PV1D20160910000030SPEAKER ASM                   M IMCTM S5MB13 FTTL  07070IMCT  S5 PTB  00005                    1600 SR        000000000000 FUJITSU TEN (THAILAN15028BL0037037                                                                                                                              *          20160906IMF1609064.TXT
MDEDG9226057201609                D89828070100PV1D20160909000030SPEAKER ASM                   M IMCTM S5MA12 FTTL  07070IMCT  S5 PTB  00004                    2100 SR        000000000000 FUJITSU TEN (THAILAN16050HL0021021                                                                                                                              *          20160906IMF1609064.TXT
MDEDG9226058201609                D89828070100PV1D20160909000090SPEAKER ASM                   M IMCTM S5MA12 FTTL  07070IMCT  S5 PTB  00004                    2230 SR        000000000000 FUJITSU TEN (THAILAN16047HL003903916072HL0029030                                                                                                                *          20160906IMF1609064.TXT
MDEDG9226059201609                D89828070100PV1D20160910000030SPEAKER ASM                   M IMCTM S5MA12 FTTL  07070IMCT  S5 PTB  00004                    0230 SR        000000000000 FUJITSU TEN (THAILAN16047HL0040040                                                                                                                              *          20160906IMF1609064.TXT
MDEDG9226060201609                D89828070100PV1D20160910000060SPEAKER ASM                   M IMCTM S5MA12 FTTL  07070IMCT  S5 PTB  00004                    0400 SR        000000000000 FUJITSU TEN (THAILAN16047HL0041042                                                                                                                              *          20160906IMF1609064.TXT
MDEDG9226061201609                D89828070100PV1D20160910000060SPEAKER ASM                   M IMCTM S5MA12 FTTL  07070IMCT  S5 PTB  00004                    0900 SR        000000000000 FUJITSU TEN (THAILAN16072HL0031032                                                                                                                              *          20160906IMF1609064.TXT
MDEDG9226062201609                D89828070100PV1D20160910000030SPEAKER ASM                   M IMCTM S5MA12 FTTL  07070IMCT  S5 PTB  00004                    1300 SR        000000000000 FUJITSU TEN (THAILAN16047HL0043043                                                                                                                              *          20160906IMF1609064.TXT
MDEDG9226063201609                D89828070200PV1D20160909000030SPEAKER ASM                   M IMCTM S5MA13 FTTL  07070IMCT  S5 PTB  00005                    2100 SR        000000000000 FUJITSU TEN (THAILAN16050HL0021021                                                                                                                              *          20160906IMF1609064.TXT
MDEDG9226064201609                D89828070200PV1D20160909000060SPEAKER ASM                   M IMCTM S5MA13 FTTL  07070IMCT  S5 PTB  00005                    2230 SR        000000000000 FUJITSU TEN (THAILAN16072HL0029030                                                                                                                              *          20160906IMF1609064.TXT
MDEDG9226065201609                D89828070200PV1D20160910000060SPEAKER ASM                   M IMCTM S5MA13 FTTL  07070IMCT  S5 PTB  00005                    0900 SR        000000000000 FUJITSU TEN (THAILAN16072HL0031032                                                                                                                              *          20160906IMF1609064.TXT
MDEDG9226066201609                D89828070300PT1D20160909000030SPEAKER ASM                   M IMCTM S5NB042FTTL  07070IMCT  S5 PTB  00015                    2100 SR        000000000000 FUJITSU TEN (THAILAN16050HL0021021                                                                                                                              *          20160906IMF1609064.TXT
MDEDG9226067201609                D89828070300PT1D20160909000090SPEAKER ASM                   M IMCTM S5NB042FTTL  07070IMCT  S5 PTB  00015                    2230 SR        000000000000 FUJITSU TEN (THAILAN16047HL003903916072HL0029030                                                                                                                *          20160906IMF1609064.TXT
MDEDG9226068201609                D89828070300PT1D20160910000030SPEAKER ASM                   M IMCTM S5NB042FTTL  07070IMCT  S5 PTB  00015                    0230 SR        000000000000 FUJITSU TEN (THAILAN16047HL0040040                                                                                                                              *          20160906IMF1609064.TXT
MDEDG9226069201609                D89828070300PT1D20160910000060SPEAKER ASM                   M IMCTM S5NB042FTTL  07070IMCT  S5 PTB  00015                    0400 SR        000000000000 FUJITSU TEN (THAILAN16047HL0041042                                                                                                                              *          20160906IMF1609064.TXT
MDEDG9226070201609                D89828070300PT1D20160910000060SPEAKER ASM                   M IMCTM S5NB042FTTL  07070IMCT  S5 PTB  00015                    0900 SR        000000000000 FUJITSU TEN (THAILAN16072HL0031032                                                                                                                              *          20160906IMF1609064.TXT
MDEDG9226071201609                D89828070300PT1D20160910000030SPEAKER ASM                   M IMCTM S5NB042FTTL  07070IMCT  S5 PTB  00015                    1300 SR        000000000000 FUJITSU TEN (THAILAN16047HL0043043                                                                                                                              *          20160906IMF1609064.TXT
MDEDG9226072201609                D89831228600PT1D20160909000015RADIO;AM/FM,CD                M IMCTM S5NC06 FTTL  07070IMCT  S5 PTB  00003                    2100 SR        000000000000 FUJITSU TEN (THAILAN16050HL0021021                                                                                                                              *          20160906IMF1609064.TXT
MDEDG9226073201609                D89831228600PT1D20160909000015RADIO;AM/FM,CD                M IMCTM S5NC06 FTTL  07070IMCT  S5 PTB  00003                    2230 SR        000000000000 FUJITSU TEN (THAILAN16047HL0039039                                                                                                                              *          20160906IMF1609064.TXT
MDEDG9226074201609                D89831228600PT1D20160910000015RADIO;AM/FM,CD                M IMCTM S5NC06 FTTL  07070IMCT  S5 PTB  00003                    0230 SR        000000000000 FUJITSU TEN (THAILAN16047HL0040040                                                                                                                              *          20160906IMF1609064.TXT
MDEDG9226075201609                D89831228600PT1D20160910000030RADIO;AM/FM,CD                M IMCTM S5NC06 FTTL  07070IMCT  S5 PTB  00003                    0400 SR        000000000000 FUJITSU TEN (THAILAN16047HL0041042                                                                                                                              *          20160906IMF1609064.TXT
MDEDG9226076201609                D89831228600PT1D20160910000015RADIO;AM/FM,CD                M IMCTM S5NC06 FTTL  07070IMCT  S5 PTB  00003                    1300 SR        000000000000 FUJITSU TEN (THAILAN16047HL0043043                                                                                                                              *          20160906IMF1609064.TXT
MDEUG9214536201609                D89828070100PT4U20160909000030SPEAKER ASM                   M IMCTM S0FL05 FTTL  07070IMCT  S0 PTB  00004                    2230 SR        000000000000 FUJITSU TEN (THAILAN160B53U0010010                                                                                                                              *          20160906IMF1609064.TXT
MDEUG9214537201609                D89828070100PT4U20160910000060SPEAKER ASM                   M IMCTM S0FL05 FTTL  07070IMCT  S0 PTB  00004                    0230 SR        000000000000 FUJITSU TEN (THAILAN160B35U0015015160B46U0100100                                                                                                                *          20160906IMF1609064.TXT
MDEUG9214538201609                D89828070100PT4U20160910000030SPEAKER ASM                   M IMCTM S0FL05 FTTL  07070IMCT  S0 PTB  00004                    0400 SR        000000000000 FUJITSU TEN (THAILAN160B48U0322322                                                                                                                              *          20160906IMF1609064.TXT
MDEUG9214539201609                D89828070100PT4U20160910000060SPEAKER ASM                   M IMCTM S0FL05 FTTL  07070IMCT  S0 PTB  00004                    0900 SR        000000000000 FUJITSU TEN (THAILAN160B35U0016016160B40U0020020                                                                                                                *          20160906IMF1609064.TXT
MDEUG9214540201609                D89828070100PT4U20160910000030SPEAKER ASM                   M IMCTM S0FL05 FTTL  07070IMCT  S0 PTB  00004                    2100 SR        000000000000 FUJITSU TEN (THAILAN160B48U0323323                                                                                                                              *          20160906IMF1609064.TXT
MDEUG9214541201609                D89828070200PV4U20160909000030SPEAKER ASM                   M IMCTM S0FR05 FTTL  07070IMCT  S0 PTB  00005                    2230 SR        000000000000 FUJITSU TEN (THAILAN160B53U0010010                                                                                                                              *          20160906IMF1609064.TXT
MDEUG9214542201609                D89828070200PV4U20160910000060SPEAKER ASM                   M IMCTM S0FR05 FTTL  07070IMCT  S0 PTB  00005                    0230 SR        000000000000 FUJITSU TEN (THAILAN160B35U0015015160B46U0100100                                                                                                                *          20160906IMF1609064.TXT
MDEUG9214543201609                D89828070200PV4U20160910000030SPEAKER ASM                   M IMCTM S0FR05 FTTL  07070IMCT  S0 PTB  00005                    0400 SR        000000000000 FUJITSU TEN (THAILAN160B48U0322322                                                                                                                              *          20160906IMF1609064.TXT
MDEUG9214544201609                D89828070200PV4U20160910000060SPEAKER ASM                   M IMCTM S0FR05 FTTL  07070IMCT  S0 PTB  00005                    0900 SR        000000000000 FUJITSU TEN (THAILAN160B35U0016016160B40U0020020                                                                                                                *          20160906IMF1609064.TXT
MDEUG9214545201609                D89828070200PV4U20160910000030SPEAKER ASM                   M IMCTM S0FR05 FTTL  07070IMCT  S0 PTB  00005                    2100 SR        000000000000 FUJITSU TEN (THAILAN160B48U0323323                                                                                                                              *          20160906IMF1609064.TXT
MDEUG9214546201609                D89828070300PT4U20160909000030SPEAKER ASM                   M IMCTM S9TS02 FTTL  07070IMCT  S9 PTB  00015                    2230 SR        000000000000 FUJITSU TEN (THAILAN160B53U0010010                                                                                                                              *          20160906IMF1609064.TXT
MDEUG9214547201609                D89828070300PT4U20160910000060SPEAKER ASM                   M IMCTM S9TS02 FTTL  07070IMCT  S9 PTB  00015                    0230 SR        000000000000 FUJITSU TEN (THAILAN160B35U0015015160B46U0100100                                                                                                                *          20160906IMF1609064.TXT
MDEUG9214548201609                D89828070300PT4U20160910000030SPEAKER ASM                   M IMCTM S9TS02 FTTL  07070IMCT  S9 PTB  00015                    0400 SR        000000000000 FUJITSU TEN (THAILAN160B48U0322322                                                                                                                              *          20160906IMF1609064.TXT
MDEUG9214549201609                D89828070300PT4U20160910000060SPEAKER ASM                   M IMCTM S9TS02 FTTL  07070IMCT  S9 PTB  00015                    0900 SR        000000000000 FUJITSU TEN (THAILAN160B35U0016016160B40U0020020                                                                                                                *          20160906IMF1609064.TXT
MDEUG9214550201609                D89828070300PT4U20160910000030SPEAKER ASM                   M IMCTM S9TS02 FTTL  07070IMCT  S9 PTB  00015                    2100 SR        000000000000 FUJITSU TEN (THAILAN160B48U0323323                                                                                                                              *          20160906IMF1609064.TXT
MDEUG9214551201609                D89831228600PT4U20160910000015RADIO;AM/FM,CD                M IMCTM S9CO001FTTL  07070IMCT  S9 PTB  00003                    0230 SR        000000000000 FUJITSU TEN (THAILAN160B35U0015015                                                                                                                              *          20160906IMF1609064.TXT
MDEUG9214552201609                D89831228600PT4U20160910000030RADIO;AM/FM,CD                M IMCTM S9CO001FTTL  07070IMCT  S9 PTB  00003                    0900 SR        000000000000 FUJITSU TEN (THAILAN160B35U0016016160B40U0020020                                                                                                                *          20160906IMF1609064.TXT
