REC2016090520160905ISUZU                              12     
MDEFG9T02884201609                D89805293700PV4F20160909000024SPEAKER ASM                   M IMCTM S7FR05 FTTL  07070IMCT  S7 PTB  00003                    0400 SR        000000000000 FUJITSU TEN (THAILAN15021FR0055   15010HR0053   D160901601    D160901613    000000                                                                              *R         20160905RDF1609054.TXT
MDEFG9T02885201609                D89805294000PT4F20160909000022SPEAKER ASM                   M IMCTM S7TS02 FTTL  07070IMCT  S7 PTB  00015                    0400 SR        000000000000 FUJITSU TEN (THAILAN15021FR0055   15010HR0053   D160901601    D160901613    000000                                                                              *R         20160905RDF1609054.TXT
MDEFG9T02886201609                D89805294100PV4F20160909000022SPEAKER ASM                   M IMCTM S7FR05 FTTL  07070IMCT  S7 PTB  00005                    0400 SR        000000000000 FUJITSU TEN (THAILAN15021FR0055   15010HR0053   D160901601    D160901613    000000                                                                              *R         20160905RDF1609054.TXT
MDEFG9T02887201609                D89828070100PV4F20160909000006SPEAKER ASM                   M IMCTM S7FL05 FTTL  07070IMCT  S7 PTB  00004                    0400 SR        000000000000 FUJITSU TEN (THAILAN16047KR0061   16065JR0070   D160901603    D160901615    000000                                                                              *R         20160905RDF1609054.TXT
MDEFG9T02888201609                D89828070200PV4F20160909000002SPEAKER ASM                   M IMCTM S7TS02 FTTL  07070IMCT  S7 PTB  00005                    0400 SR        000000000000 FUJITSU TEN (THAILAN16047KR0061   16047KR0061   D160901603    D160901603    000000                                                                              *R         20160905RDF1609054.TXT
MDEFG9T02889201609                D89828070300PT4F20160909000002SPEAKER ASM                   M IMCTM S7TS02 FTTL  07070IMCT  S7 PTB  00015                    0400 SR        000000000000 FUJITSU TEN (THAILAN16047KR0061   16047KR0061   D160901603    D160901603    000000                                                                              *R         20160905RDF1609054.TXT
MDEFG9207700201609                D89805293700PV4F20160908000006SPEAKER ASM                   M IMCTM S7FR05 FTTL  07070IMCT  S7 PTB  00003                    1600 SR        000000000000 FUJITSU TEN (THAILAN15020FR0054   15020FR0056   D160901501    D160901503    000000                                                                              *R         20160905RDF1609054.TXT
MDEFG9207701201609                D89805293700PV4F20160908000024SPEAKER ASM                   M IMCTM S7FR05 FTTL  07070IMCT  S7 PTB  00003                    2100 SR        000000000000 FUJITSU TEN (THAILAN15020FR0057   15010HR0049   D160901504    D160901515    000000                                                                              *R         20160905RDF1609054.TXT
MDEFG9207702201609                D89805294000PT4F20160908000015SPEAKER ASM                   M IMCTM S7TS02 FTTL  07070IMCT  S7 PTB  00015                    1600 SR        000000000000 FUJITSU TEN (THAILAN15020FR0054   15021FR0053   D160901501    D160901508    000000                                                                              *R         20160905RDF1609054.TXT
MDEFG9207703201609                D89805294000PT4F20160908000015SPEAKER ASM                   M IMCTM S7TS02 FTTL  07070IMCT  S7 PTB  00015                    2100 SR        000000000000 FUJITSU TEN (THAILAN15021FR0053   15010HR0049   D160901508    D160901515    000000                                                                              *R         20160905RDF1609054.TXT
MDEFG9207704201609                D89805294100PV4F20160908000005SPEAKER ASM                   M IMCTM S7FR05 FTTL  07070IMCT  S7 PTB  00005                    1600 SR        000000000000 FUJITSU TEN (THAILAN15020FR0054   15020FR0056   D160901501    D160901503    000000                                                                              *R         20160905RDF1609054.TXT
MDEFG9207705201609                D89805294100PV4F20160908000025SPEAKER ASM                   M IMCTM S7FR05 FTTL  07070IMCT  S7 PTB  00005                    2100 SR        000000000000 FUJITSU TEN (THAILAN15020FR0056   15010HR0049   D160901503    D160901515    000000                                                                              *R         20160905RDF1609054.TXT
