REC2016092720160928ISUZU                              52     
MDDDG9255784201610                D89821984430PT1D20161001000030RADIO;AM/FM,CD                M IMCTM S5NC06 FTTL  07070IMCT  S5 PTB  00005                    1300 SR        000000000000 FUJITSU TEN (THAILAN170KPAL0001001                                                                                                                              *          20160927IMF1609275.TXT
MDDDG9255785201610                D89828070100PV1D20160930000060SPEAKER ASM                   M IMCTM S5MA12 FTTL  07070IMCT  S5 PTB  00004                    2100 SR        000000000000 FUJITSU TEN (THAILAN170KREL0004004                                                                                                                              *          20160927IMF1609275.TXT
MDDDG9255786201610                D89828070100PV1D20160930000060SPEAKER ASM                   M IMCTM S5MA12 FTTL  07070IMCT  S5 PTB  00004                    2230 SR        000000000000 FUJITSU TEN (THAILAN170KPCL0001001                                                                                                                              *          20160927IMF1609275.TXT
MDDDG9255787201610                D89828070100PV1D20161001000060SPEAKER ASM                   M IMCTM S5MA12 FTTL  07070IMCT  S5 PTB  00004                    0230 SR        000000000000 FUJITSU TEN (THAILAN170KPEL0001001                                                                                                                              *          20160927IMF1609275.TXT
MDDDG9255788201610                D89828070100PV1D20161001000120SPEAKER ASM                   M IMCTM S5MA12 FTTL  07070IMCT  S5 PTB  00004                    0900 SR        000000000000 FUJITSU TEN (THAILAN170KPFL0002002170KRQL0002002                                                                                                                *          20160927IMF1609275.TXT
MDDDG9255789201610                D89828070100PV1D20161001000060SPEAKER ASM                   M IMCTM S5MA12 FTTL  07070IMCT  S5 PTB  00004                    1300 SR        000000000000 FUJITSU TEN (THAILAN170KPAL0001001                                                                                                                              *          20160927IMF1609275.TXT
MDDDG9255790201610                D89828070100PV1D20161001000060SPEAKER ASM                   M IMCTM S5MA12 FTTL  07070IMCT  S5 PTB  00004                    1600 SR        000000000000 FUJITSU TEN (THAILAN170KPML0001001                                                                                                                              *          20160927IMF1609275.TXT
MDDDG9255791201610                D89828070100PV4D20161001000060SPEAKER ASM                   M IMCTM S0FL05 FTTL  07070IMCT  S0 PTB  00004                    1300 SR        000000000000 FUJITSU TEN (THAILAN170KRQU0001001                                                                                                                              *          20160927IMF1609275.TXT
MDDDG9255792201610                D89828070200PV1D20160930000060SPEAKER ASM                   M IMCTM S5MA13 FTTL  07070IMCT  S5 PTB  00005                    2100 SR        000000000000 FUJITSU TEN (THAILAN170KREL0004004                                                                                                                              *          20160927IMF1609275.TXT
MDDDG9255793201610                D89828070200PV1D20161001000060SPEAKER ASM                   M IMCTM S5MA13 FTTL  07070IMCT  S5 PTB  00005                    0900 SR        000000000000 FUJITSU TEN (THAILAN170KRQL0002002                                                                                                                              *          20160927IMF1609275.TXT
MDDDG9255794201610                D89828070200PV4D20161001000060SPEAKER ASM                   M IMCTM S0FR05 FTTL  07070IMCT  S0 PTB  00005                    1300 SR        000000000000 FUJITSU TEN (THAILAN170KRQU0001001                                                                                                                              *          20160927IMF1609275.TXT
MDDDG9255795201610                D89828070300PT1D20160930000060SPEAKER ASM                   M IMCTM S5NB042FTTL  07070IMCT  S5 PTB  00015                    2100 SR        000000000000 FUJITSU TEN (THAILAN170KREL0004004                                                                                                                              *          20160927IMF1609275.TXT
MDDDG9255796201610                D89828070300PT1D20160930000060SPEAKER ASM                   M IMCTM S5NB042FTTL  07070IMCT  S5 PTB  00015                    2230 SR        000000000000 FUJITSU TEN (THAILAN170KPCL0001001                                                                                                                              *          20160927IMF1609275.TXT
MDDDG9255797201610                D89828070300PT1D20161001000060SPEAKER ASM                   M IMCTM S5NB042FTTL  07070IMCT  S5 PTB  00015                    0230 SR        000000000000 FUJITSU TEN (THAILAN170KPEL0001001                                                                                                                              *          20160927IMF1609275.TXT
MDDDG9255798201610                D89828070300PT1D20161001000120SPEAKER ASM                   M IMCTM S5NB042FTTL  07070IMCT  S5 PTB  00015                    0900 SR        000000000000 FUJITSU TEN (THAILAN170KPFL0002002170KRQL0002002                                                                                                                *          20160927IMF1609275.TXT
MDDDG9255799201610                D89828070300PT1D20161001000060SPEAKER ASM                   M IMCTM S5NB042FTTL  07070IMCT  S5 PTB  00015                    1600 SR        000000000000 FUJITSU TEN (THAILAN170KPML0001001                                                                                                                              *          20160927IMF1609275.TXT
MDDDG9255800201610                D89828070300PT4D20161001000060SPEAKER ASM                   M IMCTM S9TS02 FTTL  07070IMCT  S9 PTB  00015                    1300 SR        000000000000 FUJITSU TEN (THAILAN170KRQU0001001                                                                                                                              *          20160927IMF1609275.TXT
MDDDG9255801201610                D89831228300PT1D20160930000030RADIO;AM/FM,CD                M IMCTM S5NC06 FTTL  07070IMCT  S5 CPB  00003                    2230 SR        000000000000 FUJITSU TEN (THAILAN170KPCL0001001                                                                                                                              *          20160927IMF1609275.TXT
MDDDG9255802201610                D89831228300PT1D20161001000030RADIO;AM/FM,CD                M IMCTM S5NC06 FTTL  07070IMCT  S5 CPB  00003                    0230 SR        000000000000 FUJITSU TEN (THAILAN170KPEL0001001                                                                                                                              *          20160927IMF1609275.TXT
MDDDG9255803201610                D89831228300PT1D20161001000030RADIO;AM/FM,CD                M IMCTM S5NC06 FTTL  07070IMCT  S5 CPB  00003                    0900 SR        000000000000 FUJITSU TEN (THAILAN170KPFL0002002                                                                                                                              *          20160927IMF1609275.TXT
MDDDG9255804201610                D89831228400PT1D20160930000030RADIO;AM/FM,CD                M IMCTM S5NC06 FTTL  07070IMCT  S5 CPB  00003                    2100 SR        000000000000 FUJITSU TEN (THAILAN170KREL0004004                                                                                                                              *          20160927IMF1609275.TXT
MDDUG9245998201610                D89828070100PT4U20161001000030SPEAKER ASM                   M IMCTM S0FL05 FTTL  07070IMCT  S0 PTB  00004                    1300 SR        000000000000 FUJITSU TEN (THAILAN170KUCU0010010                                                                                                                              *          20160927IMF1609275.TXT
MDDUG9245999201610                D89828070100PT4U20161001000030SPEAKER ASM                   M IMCTM S0FL05 FTTL  07070IMCT  S0 PTB  00004                    1600 SR        000000000000 FUJITSU TEN (THAILAN170KUAU0005005                                                                                                                              *          20160927IMF1609275.TXT
MDDUG9246000201610                D89828070200PV4U20161001000030SPEAKER ASM                   M IMCTM S0FR05 FTTL  07070IMCT  S0 PTB  00005                    1300 SR        000000000000 FUJITSU TEN (THAILAN170KUCU0010010                                                                                                                              *          20160927IMF1609275.TXT
MDDUG9246001201610                D89828070200PV4U20161001000030SPEAKER ASM                   M IMCTM S0FR05 FTTL  07070IMCT  S0 PTB  00005                    1600 SR        000000000000 FUJITSU TEN (THAILAN170KUAU0005005                                                                                                                              *          20160927IMF1609275.TXT
MDDUG9246002201610                D89828070300PT4U20161001000030SPEAKER ASM                   M IMCTM S9TS02 FTTL  07070IMCT  S9 PTB  00015                    1300 SR        000000000000 FUJITSU TEN (THAILAN170KUCU0010010                                                                                                                              *          20160927IMF1609275.TXT
MDDUG9246003201610                D89828070300PT4U20161001000030SPEAKER ASM                   M IMCTM S9TS02 FTTL  07070IMCT  S9 PTB  00015                    1600 SR        000000000000 FUJITSU TEN (THAILAN170KUAU0005005                                                                                                                              *          20160927IMF1609275.TXT
MDDUG9246004201610                D89829093500PT4U20161001000015RADIO;ASM DVD (T              M IMCTM S9CO001FTTL  07070IMCT  S9 PTB  00003                    1300 SR        000000000000 FUJITSU TEN (THAILAN170KUCU0010010                                                                                                                              *          20160927IMF1609275.TXT
MDDUG9246005201610                D89831228400PT4U20161001000015RADIO;AM/FM,CD                M IMCTM S9CO001FTTL  07070IMCT  S9 CPB  00003                    1600 SR        000000000000 FUJITSU TEN (THAILAN170KUAU0005005                                                                                                                              *          20160927IMF1609275.TXT
MDEDG9331237201610                D89828070100PV1D20160930000060SPEAKER ASM                   M IMCTM S5MA12 FTTL  07070IMCT  S5 PTB  00004                    2230 SR        000000000000 FUJITSU TEN (THAILAN16075HL0086087                                                                                                                              *          20160927IMF1609275.TXT
MDEDG9331238201610                D89828070100PV1D20161001000030SPEAKER ASM                   M IMCTM S5MA12 FTTL  07070IMCT  S5 PTB  00004                    0230 SR        000000000000 FUJITSU TEN (THAILAN16007JL0112112                                                                                                                              *          20160927IMF1609275.TXT
MDEDG9331239201610                D89828070100PV1D20161001000060SPEAKER ASM                   M IMCTM S5MA12 FTTL  07070IMCT  S5 PTB  00004                    0400 SR        000000000000 FUJITSU TEN (THAILAN16007JL0113114                                                                                                                              *          20160927IMF1609275.TXT
MDEDG9331240201610                D89828070100PV1D20161001000030SPEAKER ASM                   M IMCTM S5MA12 FTTL  07070IMCT  S5 PTB  00004                    0900 SR        000000000000 FUJITSU TEN (THAILAN16007JL0115115                                                                                                                              *          20160927IMF1609275.TXT
MDEDG9331241201610                D89828070100PV1D20161001000060SPEAKER ASM                   M IMCTM S5MA12 FTTL  07070IMCT  S5 PTB  00004                    1300 SR        000000000000 FUJITSU TEN (THAILAN16075HL0088089                                                                                                                              *          20160927IMF1609275.TXT
MDEUG9276696201610                D89828070100PT4U20160930000030SPEAKER ASM                   M IMCTM S0FL05 FTTL  07070IMCT  S0 PTB  00004                    2100 SR        000000000000 FUJITSU TEN (THAILAN160B95U0017017                                                                                                                              *          20160927IMF1609275.TXT
MDEUG9276697201610                D89828070100PT4U20160930000030SPEAKER ASM                   M IMCTM S0FL05 FTTL  07070IMCT  S0 PTB  00004                    2230 SR        000000000000 FUJITSU TEN (THAILAN160B48U0376376                                                                                                                              *          20160927IMF1609275.TXT
MDEUG9276698201610                D89828070100PT4U20161001000060SPEAKER ASM                   M IMCTM S0FL05 FTTL  07070IMCT  S0 PTB  00004                    0230 SR        000000000000 FUJITSU TEN (THAILAN160B46U0121122                                                                                                                              *          20160927IMF1609275.TXT
MDEUG9276699201610                D89828070100PT4U20161001000030SPEAKER ASM                   M IMCTM S0FL05 FTTL  07070IMCT  S0 PTB  00004                    0400 SR        000000000000 FUJITSU TEN (THAILAN160B45U0053053                                                                                                                              *          20160927IMF1609275.TXT
MDEUG9276700201610                D89828070100PT4U20161001000030SPEAKER ASM                   M IMCTM S0FL05 FTTL  07070IMCT  S0 PTB  00004                    0900 SR        000000000000 FUJITSU TEN (THAILAN160B53U0013013                                                                                                                              *          20160927IMF1609275.TXT
MDEUG9276701201610                D89828070100PT4U20161001000030SPEAKER ASM                   M IMCTM S0FL05 FTTL  07070IMCT  S0 PTB  00004                    2100 SR        000000000000 FUJITSU TEN (THAILAN160B48U0377377                                                                                                                              *          20160927IMF1609275.TXT
MDEUG9276702201610                D89828070200PV4U20160930000030SPEAKER ASM                   M IMCTM S0FR05 FTTL  07070IMCT  S0 PTB  00005                    2100 SR        000000000000 FUJITSU TEN (THAILAN160B95U0017017                                                                                                                              *          20160927IMF1609275.TXT
MDEUG9276703201610                D89828070200PV4U20160930000030SPEAKER ASM                   M IMCTM S0FR05 FTTL  07070IMCT  S0 PTB  00005                    2230 SR        000000000000 FUJITSU TEN (THAILAN160B48U0376376                                                                                                                              *          20160927IMF1609275.TXT
MDEUG9276704201610                D89828070200PV4U20161001000060SPEAKER ASM                   M IMCTM S0FR05 FTTL  07070IMCT  S0 PTB  00005                    0230 SR        000000000000 FUJITSU TEN (THAILAN160B46U0121122                                                                                                                              *          20160927IMF1609275.TXT
MDEUG9276705201610                D89828070200PV4U20161001000030SPEAKER ASM                   M IMCTM S0FR05 FTTL  07070IMCT  S0 PTB  00005                    0400 SR        000000000000 FUJITSU TEN (THAILAN160B45U0053053                                                                                                                              *          20160927IMF1609275.TXT
MDEUG9276706201610                D89828070200PV4U20161001000030SPEAKER ASM                   M IMCTM S0FR05 FTTL  07070IMCT  S0 PTB  00005                    0900 SR        000000000000 FUJITSU TEN (THAILAN160B53U0013013                                                                                                                              *          20160927IMF1609275.TXT
MDEUG9276707201610                D89828070200PV4U20161001000030SPEAKER ASM                   M IMCTM S0FR05 FTTL  07070IMCT  S0 PTB  00005                    2100 SR        000000000000 FUJITSU TEN (THAILAN160B48U0377377                                                                                                                              *          20160927IMF1609275.TXT
MDEUG9276708201610                D89828070300PT4U20160930000030SPEAKER ASM                   M IMCTM S9TS02 FTTL  07070IMCT  S9 PTB  00015                    2100 SR        000000000000 FUJITSU TEN (THAILAN160B95U0017017                                                                                                                              *          20160927IMF1609275.TXT
MDEUG9276709201610                D89828070300PT4U20160930000030SPEAKER ASM                   M IMCTM S9TS02 FTTL  07070IMCT  S9 PTB  00015                    2230 SR        000000000000 FUJITSU TEN (THAILAN160B48U0376376                                                                                                                              *          20160927IMF1609275.TXT
MDEUG9276710201610                D89828070300PT4U20161001000060SPEAKER ASM                   M IMCTM S9TS02 FTTL  07070IMCT  S9 PTB  00015                    0230 SR        000000000000 FUJITSU TEN (THAILAN160B46U0121122                                                                                                                              *          20160927IMF1609275.TXT
MDEUG9276711201610                D89828070300PT4U20161001000030SPEAKER ASM                   M IMCTM S9TS02 FTTL  07070IMCT  S9 PTB  00015                    0400 SR        000000000000 FUJITSU TEN (THAILAN160B45U0053053                                                                                                                              *          20160927IMF1609275.TXT
MDEUG9276712201610                D89828070300PT4U20161001000030SPEAKER ASM                   M IMCTM S9TS02 FTTL  07070IMCT  S9 PTB  00015                    0900 SR        000000000000 FUJITSU TEN (THAILAN160B53U0013013                                                                                                                              *          20160927IMF1609275.TXT
MDEUG9276713201610                D89828070300PT4U20161001000030SPEAKER ASM                   M IMCTM S9TS02 FTTL  07070IMCT  S9 PTB  00015                    2100 SR        000000000000 FUJITSU TEN (THAILAN160B48U0377377                                                                                                                              *          20160927IMF1609275.TXT
