REC2016091620160916ISUZU                              7      
MADUG9600276201612                 89828070100PT4U20161121000002SPEAKER ASM                   M IMCTM ST00000FTTL  07070IMCT  ST PTB  00004  DC                0000 SR        000000000000 FUJITSU TEN (THAILAN180L5EU0003003                                                                                                                              *P         20160916IMF1609162.TXT
MADUG9600277201612                 89828070200PV4U20161121000002SPEAKER ASM                   M IMCTM ST00000FTTL  07070IMCT  ST PTB  00005  DC                0000 SR        000000000000 FUJITSU TEN (THAILAN180L5EU0003003                                                                                                                              *P         20160916IMF1609162.TXT
MADUG9600278201612                 89828070300PT4U20161121000002SPEAKER ASM                   M IMCTM ST00000FTTL  07070IMCT  ST PTB  00015  DC                0000 SR        000000000000 FUJITSU TEN (THAILAN180L5EU0003003                                                                                                                              *P         20160916IMF1609162.TXT
MAEUG9600334201612                 89828070100PT4U20170105000004SPEAKER ASM                   M IMCTM ST00000FTTL  07070IMCT  ST PTB  00004  DC                0000 SR        000000000000 FUJITSU TEN (THAILAN180B99U0003003180C60U0002002                                                                                                                *P         20160916IMF1609162.TXT
MAEUG9600335201612                 89828070200PV4U20170105000004SPEAKER ASM                   M IMCTM ST00000FTTL  07070IMCT  ST PTB  00005  DC                0000 SR        000000000000 FUJITSU TEN (THAILAN180B99U0003003180C60U0002002                                                                                                                *P         20160916IMF1609162.TXT
MAEUG9600336201612                 89828070300PT4U20170105000004SPEAKER ASM                   M IMCTM ST00000FTTL  07070IMCT  ST PTB  00015  DC                0000 SR        000000000000 FUJITSU TEN (THAILAN180B99U0003003180C60U0002002                                                                                                                *P         20160916IMF1609162.TXT
MAEUG9600337201612                 89831229200PT4U20170105000001RADIO;AM/FM,CD                M IMCTM ST00000FTTL  07070IMCT  ST PTB  00003  DC                0000 SR        000000000000 FUJITSU TEN (THAILAN180B99U0003003                                                                                                                              *P         20160916IMF1609162.TXT
