REC2016091320160914ISUZU                              19     
MDDDG9219014201609                D89821984430PT1D20160919000030RADIO;AM/FM,CD                M IMCTM S5NC06 FTTL  07070IMCT  S5 PTB  00005                    0900 SR        000000000000 FUJITSU TEN (THAILAN170KNCL0007007                                                                                                                              *          20160913IMF1609135.TXT
MDDDG9219015201609                D89828070100PV1D20160919000060SPEAKER ASM                   M IMCTM S5MA12 FTTL  07070IMCT  S5 PTB  00004                    0900 SR        000000000000 FUJITSU TEN (THAILAN170KNCL0007007                                                                                                                              *          20160913IMF1609135.TXT
MDEDG9269383201609                D89828070100PV1D20160919000030SPEAKER ASM                   M IMCTM S5MA12 FTTL  07070IMCT  S5 PTB  00004                    1040 SR        000000000000 FUJITSU TEN (THAILAN16075HL0047047                                                                                                                              *          20160913IMF1609135.TXT
MDEDG9269384201609                D89828070100PV1D20160919000060SPEAKER ASM                   M IMCTM S5MA12 FTTL  07070IMCT  S5 PTB  00004                    0900 SR        000000000000 FUJITSU TEN (THAILAN16051HL001901916065HL0007007                                                                                                                *          20160913IMF1609135.TXT
MDEDG9269385201609                D89828070100PV1D20160919000120SPEAKER ASM                   M IMCTM S5MA12 FTTL  07070IMCT  S5 PTB  00004                    1300 SR        000000000000 FUJITSU TEN (THAILAN16007JL006706816032JL001401416068HL0008008                                                                                                  *          20160913IMF1609135.TXT
MDEDG9269386201609                D89828070100PV4D20160919000030SPEAKER ASM                   M IMCTM S0FL05 FTTL  07070IMCT  S0 PTB  00004                    1300 SR        000000000000 FUJITSU TEN (THAILAN16072HU0044044                                                                                                                              *          20160913IMF1609135.TXT
MDEDG9269387201609                D89828070200PV1D20160919000060SPEAKER ASM                   M IMCTM S5MA13 FTTL  07070IMCT  S5 PTB  00005                    0900 SR        000000000000 FUJITSU TEN (THAILAN16051HL001901916065HL0007007                                                                                                                *          20160913IMF1609135.TXT
MDEDG9269388201609                D89828070200PV1D20160919000030SPEAKER ASM                   M IMCTM S5MA13 FTTL  07070IMCT  S5 PTB  00005                    1300 SR        000000000000 FUJITSU TEN (THAILAN16068HL0008008                                                                                                                              *          20160913IMF1609135.TXT
MDEDG9269389201609                D89828070200PV4D20160919000030SPEAKER ASM                   M IMCTM S0FR05 FTTL  07070IMCT  S0 PTB  00005                    1300 SR        000000000000 FUJITSU TEN (THAILAN16072HU0044044                                                                                                                              *          20160913IMF1609135.TXT
MDEDG9269390201609                D89828070300PT1D20160919000060SPEAKER ASM                   M IMCTM S5NB042FTTL  07070IMCT  S5 PTB  00015                    0900 SR        000000000000 FUJITSU TEN (THAILAN16051HL001901916065HL0007007                                                                                                                *          20160913IMF1609135.TXT
MDEDG9269391201609                D89828070300PT1D20160919000030SPEAKER ASM                   M IMCTM S5NB042FTTL  07070IMCT  S5 PTB  00015                    1300 SR        000000000000 FUJITSU TEN (THAILAN16068HL0008008                                                                                                                              *          20160913IMF1609135.TXT
MDEDG9269392201609                D89828070300PT4D20160919000030SPEAKER ASM                   M IMCTM S9TS02 FTTL  07070IMCT  S9 PTB  00015                    1300 SR        000000000000 FUJITSU TEN (THAILAN16072HU0044044                                                                                                                              *          20160913IMF1609135.TXT
MDEDG9269393201609                D89831228600PT1D20160919000015RADIO;AM/FM,CD                M IMCTM S5NC06 FTTL  07070IMCT  S5 PTB  00003                    0900 SR        000000000000 FUJITSU TEN (THAILAN16065HL0007007                                                                                                                              *          20160913IMF1609135.TXT
MDEUG9235368201609                D89828070100PT4U20160919000090SPEAKER ASM                   M IMCTM S0FL05 FTTL  07070IMCT  S0 PTB  00004                    0900 SR        000000000000 FUJITSU TEN (THAILAN160B48U0348350                                                                                                                              *          20160913IMF1609135.TXT
MDEUG9235369201609                D89828070100PT4U20160919000060SPEAKER ASM                   M IMCTM S0FL05 FTTL  07070IMCT  S0 PTB  00004                    1300 SR        000000000000 FUJITSU TEN (THAILAN160B48U0351352                                                                                                                              *          20160913IMF1609135.TXT
MDEUG9235370201609                D89828070200PV4U20160919000090SPEAKER ASM                   M IMCTM S0FR05 FTTL  07070IMCT  S0 PTB  00005                    0900 SR        000000000000 FUJITSU TEN (THAILAN160B48U0348350                                                                                                                              *          20160913IMF1609135.TXT
MDEUG9235371201609                D89828070200PV4U20160919000060SPEAKER ASM                   M IMCTM S0FR05 FTTL  07070IMCT  S0 PTB  00005                    1300 SR        000000000000 FUJITSU TEN (THAILAN160B48U0351352                                                                                                                              *          20160913IMF1609135.TXT
MDEUG9235372201609                D89828070300PT4U20160919000090SPEAKER ASM                   M IMCTM S9TS02 FTTL  07070IMCT  S9 PTB  00015                    0900 SR        000000000000 FUJITSU TEN (THAILAN160B48U0348350                                                                                                                              *          20160913IMF1609135.TXT
MDEUG9235373201609                D89828070300PT4U20160919000060SPEAKER ASM                   M IMCTM S9TS02 FTTL  07070IMCT  S9 PTB  00015                    1300 SR        000000000000 FUJITSU TEN (THAILAN160B48U0351352                                                                                                                              *          20160913IMF1609135.TXT
