REC2016092920160929ISUZU                              43     
MDDDG9266912201610                D89821984430PT1D20161004000030RADIO;AM/FM,CD                M IMCTM S5NC06 FTTL  07070IMCT  S5 PTB  00005                    0400 SR        000000000000 FUJITSU TEN (THAILAN170KNEL0007007                                                                                                                              *          20160929IMF1609295.TXT
MDDDG9266913201610                D89821984430PT1D20161004000030RADIO;AM/FM,CD                M IMCTM S5NC06 FTTL  07070IMCT  S5 PTB  00005                    0900 SR        000000000000 FUJITSU TEN (THAILAN170KRAL0001001                                                                                                                              *          20160929IMF1609295.TXT
MDDDG9266914201610                D89828070100PV1D20161003000060SPEAKER ASM                   M IMCTM S5MA12 FTTL  07070IMCT  S5 PTB  00004                    2100 SR        000000000000 FUJITSU TEN (THAILAN170KREL0006006                                                                                                                              *          20160929IMF1609295.TXT
MDDDG9266915201610                D89828070100PV1D20161003000060SPEAKER ASM                   M IMCTM S5MA12 FTTL  07070IMCT  S5 PTB  00004                    2230 SR        000000000000 FUJITSU TEN (THAILAN170KPFL0003003                                                                                                                              *          20160929IMF1609295.TXT
MDDDG9266916201610                D89828070100PV1D20161004000060SPEAKER ASM                   M IMCTM S5MA12 FTTL  07070IMCT  S5 PTB  00004                    0230 SR        000000000000 FUJITSU TEN (THAILAN170KPFL0004004                                                                                                                              *          20160929IMF1609295.TXT
MDDDG9266917201610                D89828070100PV1D20161004000120SPEAKER ASM                   M IMCTM S5MA12 FTTL  07070IMCT  S5 PTB  00004                    0400 SR        000000000000 FUJITSU TEN (THAILAN170KNEL0007007170KRQL0003003                                                                                                                *          20160929IMF1609295.TXT
MDDDG9266918201610                D89828070100PV1D20161004000060SPEAKER ASM                   M IMCTM S5MA12 FTTL  07070IMCT  S5 PTB  00004                    0900 SR        000000000000 FUJITSU TEN (THAILAN170KRAL0001001                                                                                                                              *          20160929IMF1609295.TXT
MDDDG9266919201610                D89828070100PV1D20161004000120SPEAKER ASM                   M IMCTM S5MA12 FTTL  07070IMCT  S5 PTB  00004                    1300 SR        000000000000 FUJITSU TEN (THAILAN170KPEL0002002170KRSL0010010                                                                                                                *          20160929IMF1609295.TXT
MDDDG9266920201610                D89828070100PV1D20161004000180SPEAKER ASM                   M IMCTM S5MA12 FTTL  07070IMCT  S5 PTB  00004                    1600 SR        000000000000 FUJITSU TEN (THAILAN170KPHL0004004170KRFL0001001170KRJL0002002                                                                                                  *          20160929IMF1609295.TXT
MDDDG9266921201610                D89828070200PV1D20161003000060SPEAKER ASM                   M IMCTM S5MA13 FTTL  07070IMCT  S5 PTB  00005                    2100 SR        000000000000 FUJITSU TEN (THAILAN170KREL0006006                                                                                                                              *          20160929IMF1609295.TXT
MDDDG9266922201610                D89828070200PV1D20161004000060SPEAKER ASM                   M IMCTM S5MA13 FTTL  07070IMCT  S5 PTB  00005                    0400 SR        000000000000 FUJITSU TEN (THAILAN170KRQL0003003                                                                                                                              *          20160929IMF1609295.TXT
MDDDG9266923201610                D89828070200PV1D20161004000060SPEAKER ASM                   M IMCTM S5MA13 FTTL  07070IMCT  S5 PTB  00005                    1300 SR        000000000000 FUJITSU TEN (THAILAN170KRSL0010010                                                                                                                              *          20160929IMF1609295.TXT
MDDDG9266924201610                D89828070200PV1D20161004000120SPEAKER ASM                   M IMCTM S5MA13 FTTL  07070IMCT  S5 PTB  00005                    1600 SR        000000000000 FUJITSU TEN (THAILAN170KRFL0001001170KRJL0002002                                                                                                                *          20160929IMF1609295.TXT
MDDDG9266925201610                D89828070300PT1D20161003000060SPEAKER ASM                   M IMCTM S5NB042FTTL  07070IMCT  S5 PTB  00015                    2100 SR        000000000000 FUJITSU TEN (THAILAN170KREL0006006                                                                                                                              *          20160929IMF1609295.TXT
MDDDG9266926201610                D89828070300PT1D20161003000060SPEAKER ASM                   M IMCTM S5NB042FTTL  07070IMCT  S5 PTB  00015                    2230 SR        000000000000 FUJITSU TEN (THAILAN170KPFL0003003                                                                                                                              *          20160929IMF1609295.TXT
MDDDG9266927201610                D89828070300PT1D20161004000060SPEAKER ASM                   M IMCTM S5NB042FTTL  07070IMCT  S5 PTB  00015                    0230 SR        000000000000 FUJITSU TEN (THAILAN170KPFL0004004                                                                                                                              *          20160929IMF1609295.TXT
MDDDG9266928201610                D89828070300PT1D20161004000060SPEAKER ASM                   M IMCTM S5NB042FTTL  07070IMCT  S5 PTB  00015                    0400 SR        000000000000 FUJITSU TEN (THAILAN170KRQL0003003                                                                                                                              *          20160929IMF1609295.TXT
MDDDG9266929201610                D89828070300PT1D20161004000120SPEAKER ASM                   M IMCTM S5NB042FTTL  07070IMCT  S5 PTB  00015                    1300 SR        000000000000 FUJITSU TEN (THAILAN170KPEL0002002170KRSL0010010                                                                                                                *          20160929IMF1609295.TXT
MDDDG9266930201610                D89828070300PT1D20161004000180SPEAKER ASM                   M IMCTM S5NB042FTTL  07070IMCT  S5 PTB  00015                    1600 SR        000000000000 FUJITSU TEN (THAILAN170KPHL0004004170KRFL0001001170KRJL0002002                                                                                                  *          20160929IMF1609295.TXT
MDDDG9266931201610                D89829645900PT1D20161004000030RADIO;ASM DVD                 M IMCTM S5NC06 FTTL  07070IMCT  S5 CPB  00003                    1600 SR        000000000000 FUJITSU TEN (THAILAN170KRFL0001001                                                                                                                              *          20160929IMF1609295.TXT
MDDDG9266932201610                D89831228300PT1D20161003000030RADIO;AM/FM,CD                M IMCTM S5NC06 FTTL  07070IMCT  S5 CPB  00003                    2230 SR        000000000000 FUJITSU TEN (THAILAN170KPFL0003003                                                                                                                              *          20160929IMF1609295.TXT
MDDDG9266933201610                D89831228300PT1D20161004000030RADIO;AM/FM,CD                M IMCTM S5NC06 FTTL  07070IMCT  S5 CPB  00003                    0230 SR        000000000000 FUJITSU TEN (THAILAN170KPFL0004004                                                                                                                              *          20160929IMF1609295.TXT
MDDDG9266934201610                D89831228300PT1D20161004000030RADIO;AM/FM,CD                M IMCTM S5NC06 FTTL  07070IMCT  S5 CPB  00003                    1300 SR        000000000000 FUJITSU TEN (THAILAN170KPEL0002002                                                                                                                              *          20160929IMF1609295.TXT
MDDDG9266935201610                D89831228300PT1D20161004000030RADIO;AM/FM,CD                M IMCTM S5NC06 FTTL  07070IMCT  S5 CPB  00003                    1600 SR        000000000000 FUJITSU TEN (THAILAN170KPHL0004004                                                                                                                              *          20160929IMF1609295.TXT
MDDDG9266936201610                D89831228400PT1D20161003000030RADIO;AM/FM,CD                M IMCTM S5NC06 FTTL  07070IMCT  S5 CPB  00003                    2100 SR        000000000000 FUJITSU TEN (THAILAN170KREL0006006                                                                                                                              *          20160929IMF1609295.TXT
MDEDG9337523201610                D89828070100PV1D20161003000060SPEAKER ASM                   M IMCTM S5MA12 FTTL  07070IMCT  S5 PTB  00004                    2230 SR        000000000000 FUJITSU TEN (THAILAN16007JL0124125                                                                                                                              *          20160929IMF1609295.TXT
MDEDG9337524201610                D89828070100PV1D20161004000060SPEAKER ASM                   M IMCTM S5MA12 FTTL  07070IMCT  S5 PTB  00004                    0900 SR        000000000000 FUJITSU TEN (THAILAN16075HL0090091                                                                                                                              *          20160929IMF1609295.TXT
MDEDG9337525201610                D89828070100PV4D20161004000030SPEAKER ASM                   M IMCTM S0FL05 FTTL  07070IMCT  S0 PTB  00004                    1600 SR        000000000000 FUJITSU TEN (THAILAN16078HU0017017                                                                                                                              *          20160929IMF1609295.TXT
MDEUG9284783201610                D89828070100PT4U20161003000030SPEAKER ASM                   M IMCTM S0FL05 FTTL  07070IMCT  S0 PTB  00004                    2230 SR        000000000000 FUJITSU TEN (THAILAN160C01U0013013                                                                                                                              *          20160929IMF1609295.TXT
MDEUG9284784201610                D89828070100PT4U20161004000060SPEAKER ASM                   M IMCTM S0FL05 FTTL  07070IMCT  S0 PTB  00004                    0230 SR        000000000000 FUJITSU TEN (THAILAN160B46U0124124160B53U0015015                                                                                                                *          20160929IMF1609295.TXT
MDEUG9284785201610                D89828070100PT4U20161004000030SPEAKER ASM                   M IMCTM S0FL05 FTTL  07070IMCT  S0 PTB  00004                    0400 SR        000000000000 FUJITSU TEN (THAILAN160B48U0381381                                                                                                                              *          20160929IMF1609295.TXT
MDEUG9284786201610                D89828070100PT4U20161004000060SPEAKER ASM                   M IMCTM S0FL05 FTTL  07070IMCT  S0 PTB  00004                    0900 SR        000000000000 FUJITSU TEN (THAILAN160B45U0055055160B48U0382382                                                                                                                *          20160929IMF1609295.TXT
MDEUG9284787201610                D89828070100PT4U20161004000030SPEAKER ASM                   M IMCTM S0FL05 FTTL  07070IMCT  S0 PTB  00004                    1300 SR        000000000000 FUJITSU TEN (THAILAN160B48U0383383                                                                                                                              *          20160929IMF1609295.TXT
MDEUG9284788201610                D89828070200PV4U20161003000030SPEAKER ASM                   M IMCTM S0FR05 FTTL  07070IMCT  S0 PTB  00005                    2230 SR        000000000000 FUJITSU TEN (THAILAN160C01U0013013                                                                                                                              *          20160929IMF1609295.TXT
MDEUG9284789201610                D89828070200PV4U20161004000060SPEAKER ASM                   M IMCTM S0FR05 FTTL  07070IMCT  S0 PTB  00005                    0230 SR        000000000000 FUJITSU TEN (THAILAN160B46U0124124160B53U0015015                                                                                                                *          20160929IMF1609295.TXT
MDEUG9284790201610                D89828070200PV4U20161004000030SPEAKER ASM                   M IMCTM S0FR05 FTTL  07070IMCT  S0 PTB  00005                    0400 SR        000000000000 FUJITSU TEN (THAILAN160B48U0381381                                                                                                                              *          20160929IMF1609295.TXT
MDEUG9284791201610                D89828070200PV4U20161004000060SPEAKER ASM                   M IMCTM S0FR05 FTTL  07070IMCT  S0 PTB  00005                    0900 SR        000000000000 FUJITSU TEN (THAILAN160B45U0055055160B48U0382382                                                                                                                *          20160929IMF1609295.TXT
MDEUG9284792201610                D89828070200PV4U20161004000030SPEAKER ASM                   M IMCTM S0FR05 FTTL  07070IMCT  S0 PTB  00005                    1300 SR        000000000000 FUJITSU TEN (THAILAN160B48U0383383                                                                                                                              *          20160929IMF1609295.TXT
MDEUG9284793201610                D89828070300PT4U20161003000030SPEAKER ASM                   M IMCTM S9TS02 FTTL  07070IMCT  S9 PTB  00015                    2230 SR        000000000000 FUJITSU TEN (THAILAN160C01U0013013                                                                                                                              *          20160929IMF1609295.TXT
MDEUG9284794201610                D89828070300PT4U20161004000060SPEAKER ASM                   M IMCTM S9TS02 FTTL  07070IMCT  S9 PTB  00015                    0230 SR        000000000000 FUJITSU TEN (THAILAN160B46U0124124160B53U0015015                                                                                                                *          20160929IMF1609295.TXT
MDEUG9284795201610                D89828070300PT4U20161004000030SPEAKER ASM                   M IMCTM S9TS02 FTTL  07070IMCT  S9 PTB  00015                    0400 SR        000000000000 FUJITSU TEN (THAILAN160B48U0381381                                                                                                                              *          20160929IMF1609295.TXT
MDEUG9284796201610                D89828070300PT4U20161004000060SPEAKER ASM                   M IMCTM S9TS02 FTTL  07070IMCT  S9 PTB  00015                    0900 SR        000000000000 FUJITSU TEN (THAILAN160B45U0055055160B48U0382382                                                                                                                *          20160929IMF1609295.TXT
MDEUG9284797201610                D89828070300PT4U20161004000030SPEAKER ASM                   M IMCTM S9TS02 FTTL  07070IMCT  S9 PTB  00015                    1300 SR        000000000000 FUJITSU TEN (THAILAN160B48U0383383                                                                                                                              *          20160929IMF1609295.TXT
