REC2016090220160902ISUZU                              48     
MDDDG9202320201609                D89821984430PT1D20160908000030RADIO;AM/FM,CD                M IMCTM S5NC06 FTTL  07070IMCT  S5 PTB  00005                    0400 SR        000000000000 FUJITSU TEN (THAILAN170KNCL0001001                                                                                                                              *          20160902IMF1609024.TXT
MDDDG9202321201609                D89821984430PT1D20160908000030RADIO;AM/FM,CD                M IMCTM S5NC06 FTTL  07070IMCT  S5 PTB  00005                    1300 SR        000000000000 FUJITSU TEN (THAILAN170KNDL0001001                                                                                                                              *          20160902IMF1609024.TXT
MDDDG9202322201609                D89828070100PV1D20160908000060SPEAKER ASM                   M IMCTM S5MA12 FTTL  07070IMCT  S5 PTB  00004                    0400 SR        000000000000 FUJITSU TEN (THAILAN170KNCL0001001                                                                                                                              *          20160902IMF1609024.TXT
MDDDG9202323201609                D89828070100PV1D20160908000060SPEAKER ASM                   M IMCTM S5MA12 FTTL  07070IMCT  S5 PTB  00004                    1300 SR        000000000000 FUJITSU TEN (THAILAN170KNDL0001001                                                                                                                              *          20160902IMF1609024.TXT
MDDUG9202334201609                D89828070100PT4U20160908000030SPEAKER ASM                   M IMCTM S0FL05 FTTL  07070IMCT  S0 PTB  00004                    1600 SR        000000000000 FUJITSU TEN (THAILAN170KUAU0001001                                                                                                                              *          20160902IMF1609024.TXT
MDDUG9202335201609                D89828070200PV4U20160908000030SPEAKER ASM                   M IMCTM S0FR05 FTTL  07070IMCT  S0 PTB  00005                    1600 SR        000000000000 FUJITSU TEN (THAILAN170KUAU0001001                                                                                                                              *          20160902IMF1609024.TXT
MDDUG9202336201609                D89828070300PT4U20160908000030SPEAKER ASM                   M IMCTM S9TS02 FTTL  07070IMCT  S9 PTB  00015                    1600 SR        000000000000 FUJITSU TEN (THAILAN170KUAU0001001                                                                                                                              *          20160902IMF1609024.TXT
MDDUG9202337201609                D89831228400PT4U20160908000015RADIO;AM/FM,CD                M IMCTM S9CO001FTTL  07070IMCT  S9 CPB  00003                    1600 SR        000000000000 FUJITSU TEN (THAILAN170KUAU0001001                                                                                                                              *          20160902IMF1609024.TXT
MDEDG9210019201609                D89805293700PV1D20160907000030SPEAKER ASM                   M IMCTM S5MA12 FTTL  07070IMCT  S5 PTB  00003                    2100 SR        000000000000 FUJITSU TEN (THAILAN15018FL0076076                                                                                                                              *          20160902IMF1609024.TXT
MDEDG9210020201609                D89805293700PV1D20160907000090SPEAKER ASM                   M IMCTM S5MA12 FTTL  07070IMCT  S5 PTB  00003                    2230 SR        000000000000 FUJITSU TEN (THAILAN15018FL0077079                                                                                                                              *          20160902IMF1609024.TXT
MDEDG9210021201609                D89805293700PV1D20160908000060SPEAKER ASM                   M IMCTM S5MA12 FTTL  07070IMCT  S5 PTB  00003                    0900 SR        000000000000 FUJITSU TEN (THAILAN15019FL0104105                                                                                                                              *          20160902IMF1609024.TXT
MDEDG9210022201609                D89828070100PV1D20160907000060SPEAKER ASM                   M IMCTM S5MA12 FTTL  07070IMCT  S5 PTB  00004                    2230 SR        000000000000 FUJITSU TEN (THAILAN16056HL0011012                                                                                                                              *          20160902IMF1609024.TXT
MDEDG9210023201609                D89828070100PV1D20160908000060SPEAKER ASM                   M IMCTM S5MA12 FTTL  07070IMCT  S5 PTB  00004                    0230 SR        000000000000 FUJITSU TEN (THAILAN16066HL0024025                                                                                                                              *          20160902IMF1609024.TXT
MDEDG9210024201609                D89828070100PV1D20160908000060SPEAKER ASM                   M IMCTM S5MA12 FTTL  07070IMCT  S5 PTB  00004                    0400 SR        000000000000 FUJITSU TEN (THAILAN16072HL0025026                                                                                                                              *          20160902IMF1609024.TXT
MDEDG9210025201609                D89828070100PV1D20160908000060SPEAKER ASM                   M IMCTM S5MA12 FTTL  07070IMCT  S5 PTB  00004                    0900 SR        000000000000 FUJITSU TEN (THAILAN16047HL0037038                                                                                                                              *          20160902IMF1609024.TXT
MDEDG9210026201609                D89828070100PV1D20160908000090SPEAKER ASM                   M IMCTM S5MA12 FTTL  07070IMCT  S5 PTB  00004                    1300 SR        000000000000 FUJITSU TEN (THAILAN16066HL002602616072HL0027028                                                                                                                *          20160902IMF1609024.TXT
MDEDG9210027201609                D89828070100PV1D20160908000030SPEAKER ASM                   M IMCTM S5MA12 FTTL  07070IMCT  S5 PTB  00004                    1600 SR        000000000000 FUJITSU TEN (THAILAN16066HL0027027                                                                                                                              *          20160902IMF1609024.TXT
MDEDG9210028201609                D89828070200PV1D20160908000060SPEAKER ASM                   M IMCTM S5MA13 FTTL  07070IMCT  S5 PTB  00005                    0230 SR        000000000000 FUJITSU TEN (THAILAN16066HL0024025                                                                                                                              *          20160902IMF1609024.TXT
MDEDG9210029201609                D89828070200PV1D20160908000060SPEAKER ASM                   M IMCTM S5MA13 FTTL  07070IMCT  S5 PTB  00005                    0400 SR        000000000000 FUJITSU TEN (THAILAN16072HL0025026                                                                                                                              *          20160902IMF1609024.TXT
MDEDG9210030201609                D89828070200PV1D20160908000090SPEAKER ASM                   M IMCTM S5MA13 FTTL  07070IMCT  S5 PTB  00005                    1300 SR        000000000000 FUJITSU TEN (THAILAN16066HL002602616072HL0027028                                                                                                                *          20160902IMF1609024.TXT
MDEDG9210031201609                D89828070200PV1D20160908000030SPEAKER ASM                   M IMCTM S5MA13 FTTL  07070IMCT  S5 PTB  00005                    1600 SR        000000000000 FUJITSU TEN (THAILAN16066HL0027027                                                                                                                              *          20160902IMF1609024.TXT
MDEDG9210032201609                D89828070300PT1D20160907000060SPEAKER ASM                   M IMCTM S5NB042FTTL  07070IMCT  S5 PTB  00015                    2230 SR        000000000000 FUJITSU TEN (THAILAN16056HL0011012                                                                                                                              *          20160902IMF1609024.TXT
MDEDG9210033201609                D89828070300PT1D20160908000060SPEAKER ASM                   M IMCTM S5NB042FTTL  07070IMCT  S5 PTB  00015                    0230 SR        000000000000 FUJITSU TEN (THAILAN16066HL0024025                                                                                                                              *          20160902IMF1609024.TXT
MDEDG9210034201609                D89828070300PT1D20160908000060SPEAKER ASM                   M IMCTM S5NB042FTTL  07070IMCT  S5 PTB  00015                    0400 SR        000000000000 FUJITSU TEN (THAILAN16072HL0025026                                                                                                                              *          20160902IMF1609024.TXT
MDEDG9210035201609                D89828070300PT1D20160908000060SPEAKER ASM                   M IMCTM S5NB042FTTL  07070IMCT  S5 PTB  00015                    0900 SR        000000000000 FUJITSU TEN (THAILAN16047HL0037038                                                                                                                              *          20160902IMF1609024.TXT
MDEDG9210036201609                D89828070300PT1D20160908000090SPEAKER ASM                   M IMCTM S5NB042FTTL  07070IMCT  S5 PTB  00015                    1300 SR        000000000000 FUJITSU TEN (THAILAN16066HL002602616072HL0027028                                                                                                                *          20160902IMF1609024.TXT
MDEDG9210037201609                D89828070300PT1D20160908000030SPEAKER ASM                   M IMCTM S5NB042FTTL  07070IMCT  S5 PTB  00015                    1600 SR        000000000000 FUJITSU TEN (THAILAN16066HL0027027                                                                                                                              *          20160902IMF1609024.TXT
MDEDG9210038201609                D89831228600PT1D20160907000030RADIO;AM/FM,CD                M IMCTM S5NC06 FTTL  07070IMCT  S5 PTB  00003                    2230 SR        000000000000 FUJITSU TEN (THAILAN16056HL0011012                                                                                                                              *          20160902IMF1609024.TXT
MDEDG9210039201609                D89831228600PT1D20160908000030RADIO;AM/FM,CD                M IMCTM S5NC06 FTTL  07070IMCT  S5 PTB  00003                    0230 SR        000000000000 FUJITSU TEN (THAILAN16066HL0024025                                                                                                                              *          20160902IMF1609024.TXT
MDEDG9210040201609                D89831228600PT1D20160908000030RADIO;AM/FM,CD                M IMCTM S5NC06 FTTL  07070IMCT  S5 PTB  00003                    0900 SR        000000000000 FUJITSU TEN (THAILAN16047HL0037038                                                                                                                              *          20160902IMF1609024.TXT
MDEDG9210041201609                D89831228600PT1D20160908000015RADIO;AM/FM,CD                M IMCTM S5NC06 FTTL  07070IMCT  S5 PTB  00003                    1300 SR        000000000000 FUJITSU TEN (THAILAN16066HL0026026                                                                                                                              *          20160902IMF1609024.TXT
MDEDG9210042201609                D89831228600PT1D20160908000015RADIO;AM/FM,CD                M IMCTM S5NC06 FTTL  07070IMCT  S5 PTB  00003                    1600 SR        000000000000 FUJITSU TEN (THAILAN16066HL0027027                                                                                                                              *          20160902IMF1609024.TXT
MDEUG9205068201609                D89828070100PT4U20160907000090SPEAKER ASM                   M IMCTM S0FL05 FTTL  07070IMCT  S0 PTB  00004                    2230 SR        000000000000 FUJITSU TEN (THAILAN160B40U0018018160B48U0313314                                                                                                                *          20160902IMF1609024.TXT
MDEUG9205069201609                D89828070100PT4U20160908000030SPEAKER ASM                   M IMCTM S0FL05 FTTL  07070IMCT  S0 PTB  00004                    0230 SR        000000000000 FUJITSU TEN (THAILAN160B42U0103103                                                                                                                              *          20160902IMF1609024.TXT
MDEUG9205070201609                D89828070100PT4U20160908000030SPEAKER ASM                   M IMCTM S0FL05 FTTL  07070IMCT  S0 PTB  00004                    0400 SR        000000000000 FUJITSU TEN (THAILAN160B48U0315315                                                                                                                              *          20160902IMF1609024.TXT
MDEUG9205071201609                D89828070100PT4U20160908000030SPEAKER ASM                   M IMCTM S0FL05 FTTL  07070IMCT  S0 PTB  00004                    0900 SR        000000000000 FUJITSU TEN (THAILAN160B48U0316316                                                                                                                              *          20160902IMF1609024.TXT
MDEUG9205072201609                D89828070100PT4U20160908000030SPEAKER ASM                   M IMCTM S0FL05 FTTL  07070IMCT  S0 PTB  00004                    1300 SR        000000000000 FUJITSU TEN (THAILAN160B42U0104104                                                                                                                              *          20160902IMF1609024.TXT
MDEUG9205073201609                D89828070200PV4U20160907000090SPEAKER ASM                   M IMCTM S0FR05 FTTL  07070IMCT  S0 PTB  00005                    2230 SR        000000000000 FUJITSU TEN (THAILAN160B40U0018018160B48U0313314                                                                                                                *          20160902IMF1609024.TXT
MDEUG9205074201609                D89828070200PV4U20160908000030SPEAKER ASM                   M IMCTM S0FR05 FTTL  07070IMCT  S0 PTB  00005                    0230 SR        000000000000 FUJITSU TEN (THAILAN160B42U0103103                                                                                                                              *          20160902IMF1609024.TXT
MDEUG9205075201609                D89828070200PV4U20160908000030SPEAKER ASM                   M IMCTM S0FR05 FTTL  07070IMCT  S0 PTB  00005                    0400 SR        000000000000 FUJITSU TEN (THAILAN160B48U0315315                                                                                                                              *          20160902IMF1609024.TXT
MDEUG9205076201609                D89828070200PV4U20160908000030SPEAKER ASM                   M IMCTM S0FR05 FTTL  07070IMCT  S0 PTB  00005                    0900 SR        000000000000 FUJITSU TEN (THAILAN160B48U0316316                                                                                                                              *          20160902IMF1609024.TXT
MDEUG9205077201609                D89828070200PV4U20160908000030SPEAKER ASM                   M IMCTM S0FR05 FTTL  07070IMCT  S0 PTB  00005                    1300 SR        000000000000 FUJITSU TEN (THAILAN160B42U0104104                                                                                                                              *          20160902IMF1609024.TXT
MDEUG9205078201609                D89828070300PT4U20160907000090SPEAKER ASM                   M IMCTM S9TS02 FTTL  07070IMCT  S9 PTB  00015                    2230 SR        000000000000 FUJITSU TEN (THAILAN160B40U0018018160B48U0313314                                                                                                                *          20160902IMF1609024.TXT
MDEUG9205079201609                D89828070300PT4U20160908000030SPEAKER ASM                   M IMCTM S9TS02 FTTL  07070IMCT  S9 PTB  00015                    0230 SR        000000000000 FUJITSU TEN (THAILAN160B42U0103103                                                                                                                              *          20160902IMF1609024.TXT
MDEUG9205080201609                D89828070300PT4U20160908000030SPEAKER ASM                   M IMCTM S9TS02 FTTL  07070IMCT  S9 PTB  00015                    0400 SR        000000000000 FUJITSU TEN (THAILAN160B48U0315315                                                                                                                              *          20160902IMF1609024.TXT
MDEUG9205081201609                D89828070300PT4U20160908000030SPEAKER ASM                   M IMCTM S9TS02 FTTL  07070IMCT  S9 PTB  00015                    0900 SR        000000000000 FUJITSU TEN (THAILAN160B48U0316316                                                                                                                              *          20160902IMF1609024.TXT
MDEUG9205082201609                D89828070300PT4U20160908000030SPEAKER ASM                   M IMCTM S9TS02 FTTL  07070IMCT  S9 PTB  00015                    1300 SR        000000000000 FUJITSU TEN (THAILAN160B42U0104104                                                                                                                              *          20160902IMF1609024.TXT
MDEUG9205083201609                D89831228600PT4U20160907000015RADIO;AM/FM,CD                M IMCTM S9CO001FTTL  07070IMCT  S9 PTB  00003                    2230 SR        000000000000 FUJITSU TEN (THAILAN160B40U0018018                                                                                                                              *          20160902IMF1609024.TXT
