REC2016090920160909ISUZU                              42     
MDDDG9212757201609                D89821984430PT1D20160913000030RADIO;AM/FM,CD                M IMCTM S5NC06 FTTL  07070IMCT  S5 PTB  00005                    2230 SR        000000000000 FUJITSU TEN (THAILAN170KNCL0004004                                                                                                                              *          20160909IMF1609096.TXT
MDDDG9212758201609                D89821984430PT1D20160914000030RADIO;AM/FM,CD                M IMCTM S5NC06 FTTL  07070IMCT  S5 PTB  00005                    0400 SR        000000000000 FUJITSU TEN (THAILAN170KNDL0004004                                                                                                                              *          20160909IMF1609096.TXT
MDDDG9212759201609                D89828070100PV1D20160913000060SPEAKER ASM                   M IMCTM S5MA12 FTTL  07070IMCT  S5 PTB  00004                    2230 SR        000000000000 FUJITSU TEN (THAILAN170KNCL0004004                                                                                                                              *          20160909IMF1609096.TXT
MDDDG9212760201609                D89828070100PV1D20160914000060SPEAKER ASM                   M IMCTM S5MA12 FTTL  07070IMCT  S5 PTB  00004                    0400 SR        000000000000 FUJITSU TEN (THAILAN170KNDL0004004                                                                                                                              *          20160909IMF1609096.TXT
MDDDG9212761201609                D89828070100PV1D20160914000060SPEAKER ASM                   M IMCTM S5MA12 FTTL  07070IMCT  S5 PTB  00004                    0900 SR        000000000000 FUJITSU TEN (THAILAN170KRRL0002002                                                                                                                              *          20160909IMF1609096.TXT
MDDDG9212762201609                D89828070200PV1D20160914000060SPEAKER ASM                   M IMCTM S5MA13 FTTL  07070IMCT  S5 PTB  00005                    0900 SR        000000000000 FUJITSU TEN (THAILAN170KRRL0002002                                                                                                                              *          20160909IMF1609096.TXT
MDDDG9212763201609                D89828070300PT1D20160914000060SPEAKER ASM                   M IMCTM S5NB042FTTL  07070IMCT  S5 PTB  00015                    0900 SR        000000000000 FUJITSU TEN (THAILAN170KRRL0002002                                                                                                                              *          20160909IMF1609096.TXT
MDDUG9212434201609                D89828070100PT4U20160913000030SPEAKER ASM                   M IMCTM S0FL05 FTTL  07070IMCT  S0 PTB  00004                    2230 SR        000000000000 FUJITSU TEN (THAILAN170KUAU0002002                                                                                                                              *          20160909IMF1609096.TXT
MDDUG9212435201609                D89828070200PV4U20160913000030SPEAKER ASM                   M IMCTM S0FR05 FTTL  07070IMCT  S0 PTB  00005                    2230 SR        000000000000 FUJITSU TEN (THAILAN170KUAU0002002                                                                                                                              *          20160909IMF1609096.TXT
MDDUG9212436201609                D89828070300PT4U20160913000030SPEAKER ASM                   M IMCTM S9TS02 FTTL  07070IMCT  S9 PTB  00015                    2230 SR        000000000000 FUJITSU TEN (THAILAN170KUAU0002002                                                                                                                              *          20160909IMF1609096.TXT
MDDUG9212437201609                D89831228400PT4U20160913000015RADIO;AM/FM,CD                M IMCTM S9CO001FTTL  07070IMCT  S9 CPB  00003                    2230 SR        000000000000 FUJITSU TEN (THAILAN170KUAU0002002                                                                                                                              *          20160909IMF1609096.TXT
MDEDG9250603201609                D89828070100PV1D20160913000060SPEAKER ASM                   M IMCTM S5MA12 FTTL  07070IMCT  S5 PTB  00004                    2100 SR        000000000000 FUJITSU TEN (THAILAN16009JL003003016072HL0038038                                                                                                                *          20160909IMF1609096.TXT
MDEDG9250604201609                D89828070100PV1D20160913000090SPEAKER ASM                   M IMCTM S5MA12 FTTL  07070IMCT  S5 PTB  00004                    2230 SR        000000000000 FUJITSU TEN (THAILAN16072HL003903916075HL0040041                                                                                                                *          20160909IMF1609096.TXT
MDEDG9250605201609                D89828070100PV1D20160914000060SPEAKER ASM                   M IMCTM S5MA12 FTTL  07070IMCT  S5 PTB  00004                    0230 SR        000000000000 FUJITSU TEN (THAILAN16033JL001101116072LL0009009                                                                                                                *          20160909IMF1609096.TXT
MDEDG9250606201609                D89828070100PV1D20160914000030SPEAKER ASM                   M IMCTM S5MA12 FTTL  07070IMCT  S5 PTB  00004                    0400 SR        000000000000 FUJITSU TEN (THAILAN16007JL0061061                                                                                                                              *          20160909IMF1609096.TXT
MDEDG9250607201609                D89828070100PV1D20160914000090SPEAKER ASM                   M IMCTM S5MA12 FTTL  07070IMCT  S5 PTB  00004                    0900 SR        000000000000 FUJITSU TEN (THAILAN16007JL006206216055HL000800816078HL0015015                                                                                                  *          20160909IMF1609096.TXT
MDEDG9250608201609                D89828070100PV1D20160914000120SPEAKER ASM                   M IMCTM S5MA12 FTTL  07070IMCT  S5 PTB  00004                    1300 SR        000000000000 FUJITSU TEN (THAILAN16009JL003103116075HL004204316085HL0017017                                                                                                  *          20160909IMF1609096.TXT
MDEDG9250609201609                D89828070100PV1D20160914000060SPEAKER ASM                   M IMCTM S5MA12 FTTL  07070IMCT  S5 PTB  00004                    1600 SR        000000000000 FUJITSU TEN (THAILAN16043JL0004005                                                                                                                              *          20160909IMF1609096.TXT
MDEDG9250610201609                D89828070100PV4D20160914000030SPEAKER ASM                   M IMCTM S0FL05 FTTL  07070IMCT  S0 PTB  00004                    0900 SR        000000000000 FUJITSU TEN (THAILAN16072HU0041041                                                                                                                              *          20160909IMF1609096.TXT
MDEDG9250611201609                D89828070200PV1D20160913000030SPEAKER ASM                   M IMCTM S5MA13 FTTL  07070IMCT  S5 PTB  00005                    2100 SR        000000000000 FUJITSU TEN (THAILAN16072HL0038038                                                                                                                              *          20160909IMF1609096.TXT
MDEDG9250612201609                D89828070200PV1D20160913000030SPEAKER ASM                   M IMCTM S5MA13 FTTL  07070IMCT  S5 PTB  00005                    2230 SR        000000000000 FUJITSU TEN (THAILAN16072HL0039039                                                                                                                              *          20160909IMF1609096.TXT
MDEDG9250613201609                D89828070200PV1D20160914000060SPEAKER ASM                   M IMCTM S5MA13 FTTL  07070IMCT  S5 PTB  00005                    1600 SR        000000000000 FUJITSU TEN (THAILAN16043JL0004005                                                                                                                              *          20160909IMF1609096.TXT
MDEDG9250614201609                D89828070200PV4D20160914000030SPEAKER ASM                   M IMCTM S0FR05 FTTL  07070IMCT  S0 PTB  00005                    0900 SR        000000000000 FUJITSU TEN (THAILAN16072HU0041041                                                                                                                              *          20160909IMF1609096.TXT
MDEDG9250615201609                D89828070300PT1D20160913000030SPEAKER ASM                   M IMCTM S5NB042FTTL  07070IMCT  S5 PTB  00015                    2100 SR        000000000000 FUJITSU TEN (THAILAN16072HL0038038                                                                                                                              *          20160909IMF1609096.TXT
MDEDG9250616201609                D89828070300PT1D20160913000030SPEAKER ASM                   M IMCTM S5NB042FTTL  07070IMCT  S5 PTB  00015                    2230 SR        000000000000 FUJITSU TEN (THAILAN16072HL0039039                                                                                                                              *          20160909IMF1609096.TXT
MDEDG9250617201609                D89828070300PT1D20160914000030SPEAKER ASM                   M IMCTM S5NB042FTTL  07070IMCT  S5 PTB  00015                    0900 SR        000000000000 FUJITSU TEN (THAILAN16055HL0008008                                                                                                                              *          20160909IMF1609096.TXT
MDEDG9250618201609                D89828070300PT1D20160914000060SPEAKER ASM                   M IMCTM S5NB042FTTL  07070IMCT  S5 PTB  00015                    1600 SR        000000000000 FUJITSU TEN (THAILAN16043JL0004005                                                                                                                              *          20160909IMF1609096.TXT
MDEDG9250619201609                D89828070300PT4D20160914000030SPEAKER ASM                   M IMCTM S9TS02 FTTL  07070IMCT  S9 PTB  00015                    0900 SR        000000000000 FUJITSU TEN (THAILAN16072HU0041041                                                                                                                              *          20160909IMF1609096.TXT
MDEDG9250620201609                D89831228600PT1D20160914000015RADIO;AM/FM,CD                M IMCTM S5NC06 FTTL  07070IMCT  S5 PTB  00003                    0900 SR        000000000000 FUJITSU TEN (THAILAN16055HL0008008                                                                                                                              *          20160909IMF1609096.TXT
MDEDG9250621201609                D89831229200PT1D20160914000030RADIO;AM/FM,CD                M IMCTM S5NC06 FTTL  07070IMCT  S5 PTB  00003                    1600 SR        000000000000 FUJITSU TEN (THAILAN16043JL0004005                                                                                                                              *          20160909IMF1609096.TXT
MDEUG9227207201609                D89828070100PT4U20160914000060SPEAKER ASM                   M IMCTM S0FL05 FTTL  07070IMCT  S0 PTB  00004                    0230 SR        000000000000 FUJITSU TEN (THAILAN160B48U0336337                                                                                                                              *          20160909IMF1609096.TXT
MDEUG9227208201609                D89828070100PT4U20160914000030SPEAKER ASM                   M IMCTM S0FL05 FTTL  07070IMCT  S0 PTB  00004                    0400 SR        000000000000 FUJITSU TEN (THAILAN160B48U0338338                                                                                                                              *          20160909IMF1609096.TXT
MDEUG9227209201609                D89828070100PT4U20160914000060SPEAKER ASM                   M IMCTM S0FL05 FTTL  07070IMCT  S0 PTB  00004                    0900 SR        000000000000 FUJITSU TEN (THAILAN160B48U0339340                                                                                                                              *          20160909IMF1609096.TXT
MDEUG9227210201609                D89828070100PT4U20160914000060SPEAKER ASM                   M IMCTM S0FL05 FTTL  07070IMCT  S0 PTB  00004                    1300 SR        000000000000 FUJITSU TEN (THAILAN160B46U0103103160B48U0341341                                                                                                                *          20160909IMF1609096.TXT
MDEUG9227211201609                D89828070200PV4U20160914000060SPEAKER ASM                   M IMCTM S0FR05 FTTL  07070IMCT  S0 PTB  00005                    0230 SR        000000000000 FUJITSU TEN (THAILAN160B48U0336337                                                                                                                              *          20160909IMF1609096.TXT
MDEUG9227212201609                D89828070200PV4U20160914000030SPEAKER ASM                   M IMCTM S0FR05 FTTL  07070IMCT  S0 PTB  00005                    0400 SR        000000000000 FUJITSU TEN (THAILAN160B48U0338338                                                                                                                              *          20160909IMF1609096.TXT
MDEUG9227213201609                D89828070200PV4U20160914000060SPEAKER ASM                   M IMCTM S0FR05 FTTL  07070IMCT  S0 PTB  00005                    0900 SR        000000000000 FUJITSU TEN (THAILAN160B48U0339340                                                                                                                              *          20160909IMF1609096.TXT
MDEUG9227214201609                D89828070200PV4U20160914000060SPEAKER ASM                   M IMCTM S0FR05 FTTL  07070IMCT  S0 PTB  00005                    1300 SR        000000000000 FUJITSU TEN (THAILAN160B46U0103103160B48U0341341                                                                                                                *          20160909IMF1609096.TXT
MDEUG9227215201609                D89828070300PT4U20160914000060SPEAKER ASM                   M IMCTM S9TS02 FTTL  07070IMCT  S9 PTB  00015                    0230 SR        000000000000 FUJITSU TEN (THAILAN160B48U0336337                                                                                                                              *          20160909IMF1609096.TXT
MDEUG9227216201609                D89828070300PT4U20160914000030SPEAKER ASM                   M IMCTM S9TS02 FTTL  07070IMCT  S9 PTB  00015                    0400 SR        000000000000 FUJITSU TEN (THAILAN160B48U0338338                                                                                                                              *          20160909IMF1609096.TXT
MDEUG9227217201609                D89828070300PT4U20160914000060SPEAKER ASM                   M IMCTM S9TS02 FTTL  07070IMCT  S9 PTB  00015                    0900 SR        000000000000 FUJITSU TEN (THAILAN160B48U0339340                                                                                                                              *          20160909IMF1609096.TXT
MDEUG9227218201609                D89828070300PT4U20160914000060SPEAKER ASM                   M IMCTM S9TS02 FTTL  07070IMCT  S9 PTB  00015                    1300 SR        000000000000 FUJITSU TEN (THAILAN160B46U0103103160B48U0341341                                                                                                                *          20160909IMF1609096.TXT
