REC2016091020160910ISUZU                              45     
MDDDG9215580201609                D89821984430PT1D20160915000030RADIO;AM/FM,CD                M IMCTM S5NC06 FTTL  07070IMCT  S5 PTB  00005                    0400 SR        000000000000 FUJITSU TEN (THAILAN170KNDL0005005                                                                                                                              *          20160910IMF1609105.TXT
MDDDG9215581201609                D89821984430PT1D20160915000030RADIO;AM/FM,CD                M IMCTM S5NC06 FTTL  07070IMCT  S5 PTB  00005                    0900 SR        000000000000 FUJITSU TEN (THAILAN170KNCL0005005                                                                                                                              *          20160910IMF1609105.TXT
MDDDG9215582201609                D89828070100PV1D20160915000060SPEAKER ASM                   M IMCTM S5MA12 FTTL  07070IMCT  S5 PTB  00004                    0400 SR        000000000000 FUJITSU TEN (THAILAN170KNDL0005005                                                                                                                              *          20160910IMF1609105.TXT
MDDDG9215583201609                D89828070100PV1D20160915000060SPEAKER ASM                   M IMCTM S5MA12 FTTL  07070IMCT  S5 PTB  00004                    0900 SR        000000000000 FUJITSU TEN (THAILAN170KNCL0005005                                                                                                                              *          20160910IMF1609105.TXT
MDDDG9215584201609                D89828070100PV1D20160915000060SPEAKER ASM                   M IMCTM S5MA12 FTTL  07070IMCT  S5 PTB  00004                    1300 SR        000000000000 FUJITSU TEN (THAILAN170KRSL0002002                                                                                                                              *          20160910IMF1609105.TXT
MDDDG9215585201609                D89828070200PV1D20160915000060SPEAKER ASM                   M IMCTM S5MA13 FTTL  07070IMCT  S5 PTB  00005                    1300 SR        000000000000 FUJITSU TEN (THAILAN170KRSL0002002                                                                                                                              *          20160910IMF1609105.TXT
MDDDG9215586201609                D89828070300PT1D20160915000060SPEAKER ASM                   M IMCTM S5NB042FTTL  07070IMCT  S5 PTB  00015                    1300 SR        000000000000 FUJITSU TEN (THAILAN170KRSL0002002                                                                                                                              *          20160910IMF1609105.TXT
MDDUG9215271201609                D89828070100PT4U20160914000030SPEAKER ASM                   M IMCTM S0FL05 FTTL  07070IMCT  S0 PTB  00004                    2100 SR        000000000000 FUJITSU TEN (THAILAN170KUBU0001001                                                                                                                              *          20160910IMF1609105.TXT
MDDUG9215272201609                D89828070200PV4U20160914000030SPEAKER ASM                   M IMCTM S0FR05 FTTL  07070IMCT  S0 PTB  00005                    2100 SR        000000000000 FUJITSU TEN (THAILAN170KUBU0001001                                                                                                                              *          20160910IMF1609105.TXT
MDDUG9215273201609                D89828070300PT4U20160914000030SPEAKER ASM                   M IMCTM S9TS02 FTTL  07070IMCT  S9 PTB  00015                    2100 SR        000000000000 FUJITSU TEN (THAILAN170KUBU0001001                                                                                                                              *          20160910IMF1609105.TXT
MDDUG9215274201609                D89829093500PT4U20160914000015RADIO;ASM DVD (T              M IMCTM S9CO001FTTL  07070IMCT  S9 PTB  00003                    2100 SR        000000000000 FUJITSU TEN (THAILAN170KUBU0001001                                                                                                                              *          20160910IMF1609105.TXT
MDEDG9258417201609                D89828070100PV1D20160914000060SPEAKER ASM                   M IMCTM S5MA12 FTTL  07070IMCT  S5 PTB  00004                    2100 SR        000000000000 FUJITSU TEN (THAILAN16075HL004404416085HL0018018                                                                                                                *          20160910IMF1609105.TXT
MDEDG9258418201609                D89828070100PV1D20160914000150SPEAKER ASM                   M IMCTM S5MA12 FTTL  07070IMCT  S5 PTB  00004                    2230 SR        000000000000 FUJITSU TEN (THAILAN16032JL001201316051HL001701716072LL001001016075HL0045045                                                                                    *          20160910IMF1609105.TXT
MDEDG9258419201609                D89828070100PV1D20160915000060SPEAKER ASM                   M IMCTM S5MA12 FTTL  07070IMCT  S5 PTB  00004                    0230 SR        000000000000 FUJITSU TEN (THAILAN16051HL001801816072LL0011011                                                                                                                *          20160910IMF1609105.TXT
MDEDG9258420201609                D89828070100PV1D20160915000030SPEAKER ASM                   M IMCTM S5MA12 FTTL  07070IMCT  S5 PTB  00004                    0400 SR        000000000000 FUJITSU TEN (THAILAN16072LL0012012                                                                                                                              *          20160910IMF1609105.TXT
MDEDG9258421201609                D89828070100PV1D20160915000060SPEAKER ASM                   M IMCTM S5MA12 FTTL  07070IMCT  S5 PTB  00004                    0900 SR        000000000000 FUJITSU TEN (THAILAN16007JL0063064                                                                                                                              *          20160910IMF1609105.TXT
MDEDG9258422201609                D89828070100PV1D20160915000060SPEAKER ASM                   M IMCTM S5MA12 FTTL  07070IMCT  S5 PTB  00004                    1300 SR        000000000000 FUJITSU TEN (THAILAN16009JL003203216052HL0026026                                                                                                                *          20160910IMF1609105.TXT
MDEDG9258423201609                D89828070100PV1D20160915000030SPEAKER ASM                   M IMCTM S5MA12 FTTL  07070IMCT  S5 PTB  00004                    1600 SR        000000000000 FUJITSU TEN (THAILAN16065HL0006006                                                                                                                              *          20160910IMF1609105.TXT
MDEDG9258424201609                D89828070100PV4D20160915000030SPEAKER ASM                   M IMCTM S0FL05 FTTL  07070IMCT  S0 PTB  00004                    0900 SR        000000000000 FUJITSU TEN (THAILAN16072HU0042042                                                                                                                              *          20160910IMF1609105.TXT
MDEDG9258425201609                D89828070100PV4D20160915000030SPEAKER ASM                   M IMCTM S0FL05 FTTL  07070IMCT  S0 PTB  00004                    1300 SR        000000000000 FUJITSU TEN (THAILAN16072HU0043043                                                                                                                              *          20160910IMF1609105.TXT
MDEDG9258426201609                D89828070200PV1D20160914000030SPEAKER ASM                   M IMCTM S5MA13 FTTL  07070IMCT  S5 PTB  00005                    2230 SR        000000000000 FUJITSU TEN (THAILAN16051HL0017017                                                                                                                              *          20160910IMF1609105.TXT
MDEDG9258427201609                D89828070200PV1D20160915000030SPEAKER ASM                   M IMCTM S5MA13 FTTL  07070IMCT  S5 PTB  00005                    0230 SR        000000000000 FUJITSU TEN (THAILAN16051HL0018018                                                                                                                              *          20160910IMF1609105.TXT
MDEDG9258428201609                D89828070200PV1D20160915000030SPEAKER ASM                   M IMCTM S5MA13 FTTL  07070IMCT  S5 PTB  00005                    1300 SR        000000000000 FUJITSU TEN (THAILAN16052HL0026026                                                                                                                              *          20160910IMF1609105.TXT
MDEDG9258429201609                D89828070200PV1D20160915000030SPEAKER ASM                   M IMCTM S5MA13 FTTL  07070IMCT  S5 PTB  00005                    1600 SR        000000000000 FUJITSU TEN (THAILAN16065HL0006006                                                                                                                              *          20160910IMF1609105.TXT
MDEDG9258430201609                D89828070200PV4D20160915000030SPEAKER ASM                   M IMCTM S0FR05 FTTL  07070IMCT  S0 PTB  00005                    0900 SR        000000000000 FUJITSU TEN (THAILAN16072HU0042042                                                                                                                              *          20160910IMF1609105.TXT
MDEDG9258431201609                D89828070200PV4D20160915000030SPEAKER ASM                   M IMCTM S0FR05 FTTL  07070IMCT  S0 PTB  00005                    1300 SR        000000000000 FUJITSU TEN (THAILAN16072HU0043043                                                                                                                              *          20160910IMF1609105.TXT
MDEDG9258432201609                D89828070300PT1D20160914000030SPEAKER ASM                   M IMCTM S5NB042FTTL  07070IMCT  S5 PTB  00015                    2230 SR        000000000000 FUJITSU TEN (THAILAN16051HL0017017                                                                                                                              *          20160910IMF1609105.TXT
MDEDG9258433201609                D89828070300PT1D20160915000030SPEAKER ASM                   M IMCTM S5NB042FTTL  07070IMCT  S5 PTB  00015                    0230 SR        000000000000 FUJITSU TEN (THAILAN16051HL0018018                                                                                                                              *          20160910IMF1609105.TXT
MDEDG9258434201609                D89828070300PT1D20160915000030SPEAKER ASM                   M IMCTM S5NB042FTTL  07070IMCT  S5 PTB  00015                    1300 SR        000000000000 FUJITSU TEN (THAILAN16052HL0026026                                                                                                                              *          20160910IMF1609105.TXT
MDEDG9258435201609                D89828070300PT1D20160915000030SPEAKER ASM                   M IMCTM S5NB042FTTL  07070IMCT  S5 PTB  00015                    1600 SR        000000000000 FUJITSU TEN (THAILAN16065HL0006006                                                                                                                              *          20160910IMF1609105.TXT
MDEDG9258436201609                D89828070300PT4D20160915000030SPEAKER ASM                   M IMCTM S9TS02 FTTL  07070IMCT  S9 PTB  00015                    0900 SR        000000000000 FUJITSU TEN (THAILAN16072HU0042042                                                                                                                              *          20160910IMF1609105.TXT
MDEDG9258437201609                D89828070300PT4D20160915000030SPEAKER ASM                   M IMCTM S9TS02 FTTL  07070IMCT  S9 PTB  00015                    1300 SR        000000000000 FUJITSU TEN (THAILAN16072HU0043043                                                                                                                              *          20160910IMF1609105.TXT
MDEDG9258438201609                D89831228600PT1D20160915000015RADIO;AM/FM,CD                M IMCTM S5NC06 FTTL  07070IMCT  S5 PTB  00003                    1600 SR        000000000000 FUJITSU TEN (THAILAN16065HL0006006                                                                                                                              *          20160910IMF1609105.TXT
MDEUG9230994201609                D89828070100PT4U20160914000030SPEAKER ASM                   M IMCTM S0FL05 FTTL  07070IMCT  S0 PTB  00004                    2230 SR        000000000000 FUJITSU TEN (THAILAN160B48U0342342                                                                                                                              *          20160910IMF1609105.TXT
MDEUG9230995201609                D89828070100PT4U20160915000060SPEAKER ASM                   M IMCTM S0FL05 FTTL  07070IMCT  S0 PTB  00004                    0230 SR        000000000000 FUJITSU TEN (THAILAN160B46U0104104160B48U0343343                                                                                                                *          20160910IMF1609105.TXT
MDEUG9230996201609                D89828070100PT4U20160915000030SPEAKER ASM                   M IMCTM S0FL05 FTTL  07070IMCT  S0 PTB  00004                    0400 SR        000000000000 FUJITSU TEN (THAILAN160B48U0344344                                                                                                                              *          20160910IMF1609105.TXT
MDEUG9230997201609                D89828070100PT4U20160915000060SPEAKER ASM                   M IMCTM S0FL05 FTTL  07070IMCT  S0 PTB  00004                    0900 SR        000000000000 FUJITSU TEN (THAILAN160B48U0345346                                                                                                                              *          20160910IMF1609105.TXT
MDEUG9230998201609                D89828070200PV4U20160914000030SPEAKER ASM                   M IMCTM S0FR05 FTTL  07070IMCT  S0 PTB  00005                    2230 SR        000000000000 FUJITSU TEN (THAILAN160B48U0342342                                                                                                                              *          20160910IMF1609105.TXT
MDEUG9230999201609                D89828070200PV4U20160915000060SPEAKER ASM                   M IMCTM S0FR05 FTTL  07070IMCT  S0 PTB  00005                    0230 SR        000000000000 FUJITSU TEN (THAILAN160B46U0104104160B48U0343343                                                                                                                *          20160910IMF1609105.TXT
MDEUG9231000201609                D89828070200PV4U20160915000030SPEAKER ASM                   M IMCTM S0FR05 FTTL  07070IMCT  S0 PTB  00005                    0400 SR        000000000000 FUJITSU TEN (THAILAN160B48U0344344                                                                                                                              *          20160910IMF1609105.TXT
MDEUG9231001201609                D89828070200PV4U20160915000060SPEAKER ASM                   M IMCTM S0FR05 FTTL  07070IMCT  S0 PTB  00005                    0900 SR        000000000000 FUJITSU TEN (THAILAN160B48U0345346                                                                                                                              *          20160910IMF1609105.TXT
MDEUG9231002201609                D89828070300PT4U20160914000030SPEAKER ASM                   M IMCTM S9TS02 FTTL  07070IMCT  S9 PTB  00015                    2230 SR        000000000000 FUJITSU TEN (THAILAN160B48U0342342                                                                                                                              *          20160910IMF1609105.TXT
MDEUG9231003201609                D89828070300PT4U20160915000060SPEAKER ASM                   M IMCTM S9TS02 FTTL  07070IMCT  S9 PTB  00015                    0230 SR        000000000000 FUJITSU TEN (THAILAN160B46U0104104160B48U0343343                                                                                                                *          20160910IMF1609105.TXT
MDEUG9231004201609                D89828070300PT4U20160915000030SPEAKER ASM                   M IMCTM S9TS02 FTTL  07070IMCT  S9 PTB  00015                    0400 SR        000000000000 FUJITSU TEN (THAILAN160B48U0344344                                                                                                                              *          20160910IMF1609105.TXT
MDEUG9231005201609                D89828070300PT4U20160915000060SPEAKER ASM                   M IMCTM S9TS02 FTTL  07070IMCT  S9 PTB  00015                    0900 SR        000000000000 FUJITSU TEN (THAILAN160B48U0345346                                                                                                                              *          20160910IMF1609105.TXT
