REC2016090720160907ISUZU                              51     
MDDDG9208190201609                D89821984430PT1D20160911000030RADIO;AM/FM,CD                M IMCTM S5NC06 FTTL  07070IMCT  S5 PTB  00005                    0400 SR        000000000000 FUJITSU TEN (THAILAN170KNDL0002002                                                                                                                              *          20160907IMF1609075.TXT
MDDDG9208191201609                D89821984430PT1D20160912000030RADIO;AM/FM,CD                M IMCTM S5NC06 FTTL  07070IMCT  S5 PTB  00005                    0900 SR        000000000000 FUJITSU TEN (THAILAN170KNCL0002002                                                                                                                              *          20160907IMF1609075.TXT
MDDDG9208192201609                D89828070100PV1D20160911000060SPEAKER ASM                   M IMCTM S5MA12 FTTL  07070IMCT  S5 PTB  00004                    0400 SR        000000000000 FUJITSU TEN (THAILAN170KNDL0002002                                                                                                                              *          20160907IMF1609075.TXT
MDDDG9208193201609                D89828070100PV1D20160912000060SPEAKER ASM                   M IMCTM S5MA12 FTTL  07070IMCT  S5 PTB  00004                    0900 SR        000000000000 FUJITSU TEN (THAILAN170KNCL0002002                                                                                                                              *          20160907IMF1609075.TXT
MDDUG9208633201609                D89828070100PT4U20160912000030SPEAKER ASM                   M IMCTM S0FL05 FTTL  07070IMCT  S0 PTB  00004                    2100 SR        000000000000 FUJITSU TEN (THAILAN170KUCU0002002                                                                                                                              *          20160907IMF1609075.TXT
MDDUG9208634201609                D89828070200PV4U20160912000030SPEAKER ASM                   M IMCTM S0FR05 FTTL  07070IMCT  S0 PTB  00005                    2100 SR        000000000000 FUJITSU TEN (THAILAN170KUCU0002002                                                                                                                              *          20160907IMF1609075.TXT
MDDUG9208635201609                D89828070300PT4U20160912000030SPEAKER ASM                   M IMCTM S9TS02 FTTL  07070IMCT  S9 PTB  00015                    2100 SR        000000000000 FUJITSU TEN (THAILAN170KUCU0002002                                                                                                                              *          20160907IMF1609075.TXT
MDDUG9208636201609                D89829093500PT4U20160912000015RADIO;ASM DVD (T              M IMCTM S9CO001FTTL  07070IMCT  S9 PTB  00003                    2100 SR        000000000000 FUJITSU TEN (THAILAN170KUCU0002002                                                                                                                              *          20160907IMF1609075.TXT
MDEDG9233778201609                D89805293700PV1D20160910000030SPEAKER ASM                   M IMCTM S5MA12 FTTL  07070IMCT  S5 PTB  00003                    2100 SR        000000000000 FUJITSU TEN (THAILAN15029BL0006006                                                                                                                              *          20160907IMF1609075.TXT
MDEDG9233779201609                D89805293700PV1D20160910000030SPEAKER ASM                   M IMCTM S5MA12 FTTL  07070IMCT  S5 PTB  00003                    2230 SR        000000000000 FUJITSU TEN (THAILAN15030BL0015015                                                                                                                              *          20160907IMF1609075.TXT
MDEDG9233780201609                D89805294000PT1D20160910000030SPEAKER ASM                   M IMCTM S5NB042FTTL  07070IMCT  S5 PTB  00015                    2100 SR        000000000000 FUJITSU TEN (THAILAN15029BL0006006                                                                                                                              *          20160907IMF1609075.TXT
MDEDG9233781201609                D89805294000PT1D20160910000030SPEAKER ASM                   M IMCTM S5NB042FTTL  07070IMCT  S5 PTB  00015                    2230 SR        000000000000 FUJITSU TEN (THAILAN15030BL0015015                                                                                                                              *          20160907IMF1609075.TXT
MDEDG9233782201609                D89805294100PV1D20160910000030SPEAKER ASM                   M IMCTM S5MB13 FTTL  07070IMCT  S5 PTB  00005                    2100 SR        000000000000 FUJITSU TEN (THAILAN15029BL0006006                                                                                                                              *          20160907IMF1609075.TXT
MDEDG9233783201609                D89805294100PV1D20160910000030SPEAKER ASM                   M IMCTM S5MB13 FTTL  07070IMCT  S5 PTB  00005                    2230 SR        000000000000 FUJITSU TEN (THAILAN15030BL0015015                                                                                                                              *          20160907IMF1609075.TXT
MDEDG9233784201609                D89828070100PV1D20160910000030SPEAKER ASM                   M IMCTM S5MA12 FTTL  07070IMCT  S5 PTB  00004                    2100 SR        000000000000 FUJITSU TEN (THAILAN16065HL0005005                                                                                                                              *          20160907IMF1609075.TXT
MDEDG9233785201609                D89828070100PV1D20160910000120SPEAKER ASM                   M IMCTM S5MA12 FTTL  07070IMCT  S5 PTB  00004                    2230 SR        000000000000 FUJITSU TEN (THAILAN16007JL005405416065JL000600616075HL0033034                                                                                                  *          20160907IMF1609075.TXT
MDEDG9233786201609                D89828070100PV1D20160911000060SPEAKER ASM                   M IMCTM S5MA12 FTTL  07070IMCT  S5 PTB  00004                    0230 SR        000000000000 FUJITSU TEN (THAILAN16016KL0012013                                                                                                                              *          20160907IMF1609075.TXT
MDEDG9233787201609                D89828070100PV1D20160911000060SPEAKER ASM                   M IMCTM S5MA12 FTTL  07070IMCT  S5 PTB  00004                    0400 SR        000000000000 FUJITSU TEN (THAILAN16007JL005505516072HL0033033                                                                                                                *          20160907IMF1609075.TXT
MDEDG9233788201609                D89828070100PV1D20160912000060SPEAKER ASM                   M IMCTM S5MA12 FTTL  07070IMCT  S5 PTB  00004                    0900 SR        000000000000 FUJITSU TEN (THAILAN16052HL0024025                                                                                                                              *          20160907IMF1609075.TXT
MDEDG9233789201609                D89828070100PV1D20160912000120SPEAKER ASM                   M IMCTM S5MA12 FTTL  07070IMCT  S5 PTB  00004                    1300 SR        000000000000 FUJITSU TEN (THAILAN16007JL005605616051HL001301316075HL0035036                                                                                                  *          20160907IMF1609075.TXT
MDEDG9233790201609                D89828070100PV1D20160912000030SPEAKER ASM                   M IMCTM S5MA12 FTTL  07070IMCT  S5 PTB  00004                    1600 SR        000000000000 FUJITSU TEN (THAILAN16051HL0014014                                                                                                                              *          20160907IMF1609075.TXT
MDEDG9233791201609                D89828070100PV1D20160912000030SPEAKER ASM                   M IMCTM S5MA12 FTTL  07070IMCT  S5 PTB  00004                    2100 SR        000000000000 FUJITSU TEN (THAILAN16072HL0034034                                                                                                                              *          20160907IMF1609075.TXT
MDEDG9233792201609                D89828070100PV4D20160911000030SPEAKER ASM                   M IMCTM S0FL05 FTTL  07070IMCT  S0 PTB  00004                    0400 SR        000000000000 FUJITSU TEN (THAILAN16075HU0022022                                                                                                                              *          20160907IMF1609075.TXT
MDEDG9233793201609                D89828070200PV1D20160910000030SPEAKER ASM                   M IMCTM S5MA13 FTTL  07070IMCT  S5 PTB  00005                    2100 SR        000000000000 FUJITSU TEN (THAILAN16065HL0005005                                                                                                                              *          20160907IMF1609075.TXT
MDEDG9233794201609                D89828070200PV1D20160911000030SPEAKER ASM                   M IMCTM S5MA13 FTTL  07070IMCT  S5 PTB  00005                    0400 SR        000000000000 FUJITSU TEN (THAILAN16072HL0033033                                                                                                                              *          20160907IMF1609075.TXT
MDEDG9233795201609                D89828070200PV1D20160912000060SPEAKER ASM                   M IMCTM S5MA13 FTTL  07070IMCT  S5 PTB  00005                    0900 SR        000000000000 FUJITSU TEN (THAILAN16052HL0024025                                                                                                                              *          20160907IMF1609075.TXT
MDEDG9233796201609                D89828070200PV1D20160912000030SPEAKER ASM                   M IMCTM S5MA13 FTTL  07070IMCT  S5 PTB  00005                    1300 SR        000000000000 FUJITSU TEN (THAILAN16051HL0013013                                                                                                                              *          20160907IMF1609075.TXT
MDEDG9233797201609                D89828070200PV1D20160912000030SPEAKER ASM                   M IMCTM S5MA13 FTTL  07070IMCT  S5 PTB  00005                    1600 SR        000000000000 FUJITSU TEN (THAILAN16051HL0014014                                                                                                                              *          20160907IMF1609075.TXT
MDEDG9233798201609                D89828070200PV1D20160912000030SPEAKER ASM                   M IMCTM S5MA13 FTTL  07070IMCT  S5 PTB  00005                    2100 SR        000000000000 FUJITSU TEN (THAILAN16072HL0034034                                                                                                                              *          20160907IMF1609075.TXT
MDEDG9233799201609                D89828070300PT1D20160910000030SPEAKER ASM                   M IMCTM S5NB042FTTL  07070IMCT  S5 PTB  00015                    2100 SR        000000000000 FUJITSU TEN (THAILAN16065HL0005005                                                                                                                              *          20160907IMF1609075.TXT
MDEDG9233800201609                D89828070300PT1D20160911000030SPEAKER ASM                   M IMCTM S5NB042FTTL  07070IMCT  S5 PTB  00015                    0400 SR        000000000000 FUJITSU TEN (THAILAN16072HL0033033                                                                                                                              *          20160907IMF1609075.TXT
MDEDG9233801201609                D89828070300PT1D20160912000060SPEAKER ASM                   M IMCTM S5NB042FTTL  07070IMCT  S5 PTB  00015                    0900 SR        000000000000 FUJITSU TEN (THAILAN16052HL0024025                                                                                                                              *          20160907IMF1609075.TXT
MDEDG9233802201609                D89828070300PT1D20160912000030SPEAKER ASM                   M IMCTM S5NB042FTTL  07070IMCT  S5 PTB  00015                    1300 SR        000000000000 FUJITSU TEN (THAILAN16051HL0013013                                                                                                                              *          20160907IMF1609075.TXT
MDEDG9233803201609                D89828070300PT1D20160912000030SPEAKER ASM                   M IMCTM S5NB042FTTL  07070IMCT  S5 PTB  00015                    1600 SR        000000000000 FUJITSU TEN (THAILAN16051HL0014014                                                                                                                              *          20160907IMF1609075.TXT
MDEDG9233804201609                D89828070300PT1D20160912000030SPEAKER ASM                   M IMCTM S5NB042FTTL  07070IMCT  S5 PTB  00015                    2100 SR        000000000000 FUJITSU TEN (THAILAN16072HL0034034                                                                                                                              *          20160907IMF1609075.TXT
MDEDG9233805201609                D89831228600PT1D20160910000015RADIO;AM/FM,CD                M IMCTM S5NC06 FTTL  07070IMCT  S5 PTB  00003                    2100 SR        000000000000 FUJITSU TEN (THAILAN16065HL0005005                                                                                                                              *          20160907IMF1609075.TXT
MDEUG9218871201609                D89828070100PT4U20160910000060SPEAKER ASM                   M IMCTM S0FL05 FTTL  07070IMCT  S0 PTB  00004                    2230 SR        000000000000 FUJITSU TEN (THAILAN160B48U0324325                                                                                                                              *          20160907IMF1609075.TXT
MDEUG9218872201609                D89828070100PT4U20160911000030SPEAKER ASM                   M IMCTM S0FL05 FTTL  07070IMCT  S0 PTB  00004                    0230 SR        000000000000 FUJITSU TEN (THAILAN160B48U0326326                                                                                                                              *          20160907IMF1609075.TXT
MDEUG9218873201609                D89828070100PT4U20160911000030SPEAKER ASM                   M IMCTM S0FL05 FTTL  07070IMCT  S0 PTB  00004                    0400 SR        000000000000 FUJITSU TEN (THAILAN160B48U0327327                                                                                                                              *          20160907IMF1609075.TXT
MDEUG9218874201609                D89828070100PT4U20160912000060SPEAKER ASM                   M IMCTM S0FL05 FTTL  07070IMCT  S0 PTB  00004                    0900 SR        000000000000 FUJITSU TEN (THAILAN160B48U0328329                                                                                                                              *          20160907IMF1609075.TXT
MDEUG9218875201609                D89828070100PT4U20160912000030SPEAKER ASM                   M IMCTM S0FL05 FTTL  07070IMCT  S0 PTB  00004                    1300 SR        000000000000 FUJITSU TEN (THAILAN160B46U0101101                                                                                                                              *          20160907IMF1609075.TXT
MDEUG9218876201609                D89828070200PV4U20160910000060SPEAKER ASM                   M IMCTM S0FR05 FTTL  07070IMCT  S0 PTB  00005                    2230 SR        000000000000 FUJITSU TEN (THAILAN160B48U0324325                                                                                                                              *          20160907IMF1609075.TXT
MDEUG9218877201609                D89828070200PV4U20160911000030SPEAKER ASM                   M IMCTM S0FR05 FTTL  07070IMCT  S0 PTB  00005                    0230 SR        000000000000 FUJITSU TEN (THAILAN160B48U0326326                                                                                                                              *          20160907IMF1609075.TXT
MDEUG9218878201609                D89828070200PV4U20160911000030SPEAKER ASM                   M IMCTM S0FR05 FTTL  07070IMCT  S0 PTB  00005                    0400 SR        000000000000 FUJITSU TEN (THAILAN160B48U0327327                                                                                                                              *          20160907IMF1609075.TXT
MDEUG9218879201609                D89828070200PV4U20160912000060SPEAKER ASM                   M IMCTM S0FR05 FTTL  07070IMCT  S0 PTB  00005                    0900 SR        000000000000 FUJITSU TEN (THAILAN160B48U0328329                                                                                                                              *          20160907IMF1609075.TXT
MDEUG9218880201609                D89828070200PV4U20160912000030SPEAKER ASM                   M IMCTM S0FR05 FTTL  07070IMCT  S0 PTB  00005                    1300 SR        000000000000 FUJITSU TEN (THAILAN160B46U0101101                                                                                                                              *          20160907IMF1609075.TXT
MDEUG9218881201609                D89828070300PT4U20160910000060SPEAKER ASM                   M IMCTM S9TS02 FTTL  07070IMCT  S9 PTB  00015                    2230 SR        000000000000 FUJITSU TEN (THAILAN160B48U0324325                                                                                                                              *          20160907IMF1609075.TXT
MDEUG9218882201609                D89828070300PT4U20160911000030SPEAKER ASM                   M IMCTM S9TS02 FTTL  07070IMCT  S9 PTB  00015                    0230 SR        000000000000 FUJITSU TEN (THAILAN160B48U0326326                                                                                                                              *          20160907IMF1609075.TXT
MDEUG9218883201609                D89828070300PT4U20160911000030SPEAKER ASM                   M IMCTM S9TS02 FTTL  07070IMCT  S9 PTB  00015                    0400 SR        000000000000 FUJITSU TEN (THAILAN160B48U0327327                                                                                                                              *          20160907IMF1609075.TXT
MDEUG9218884201609                D89828070300PT4U20160912000060SPEAKER ASM                   M IMCTM S9TS02 FTTL  07070IMCT  S9 PTB  00015                    0900 SR        000000000000 FUJITSU TEN (THAILAN160B48U0328329                                                                                                                              *          20160907IMF1609075.TXT
MDEUG9218885201609                D89828070300PT4U20160912000030SPEAKER ASM                   M IMCTM S9TS02 FTTL  07070IMCT  S9 PTB  00015                    1300 SR        000000000000 FUJITSU TEN (THAILAN160B46U0101101                                                                                                                              *          20160907IMF1609075.TXT
