REC2016091220160912ISUZU                              25     
MDDDG9217381201609                D89821984430PT1D20160915000030RADIO;AM/FM,CD                M IMCTM S5NC06 FTTL  07070IMCT  S5 PTB  00005                    2230 SR        000000000000 FUJITSU TEN (THAILAN170KNDL0006006                                                                                                                              *          20160912IMF1609122.TXT
MDDDG9217382201609                D89821984430PT1D20160916000030RADIO;AM/FM,CD                M IMCTM S5NC06 FTTL  07070IMCT  S5 PTB  00005                    0230 SR        000000000000 FUJITSU TEN (THAILAN170KNCL0006006                                                                                                                              *          20160912IMF1609122.TXT
MDDDG9217383201609                D89828070100PV1D20160915000060SPEAKER ASM                   M IMCTM S5MA12 FTTL  07070IMCT  S5 PTB  00004                    2230 SR        000000000000 FUJITSU TEN (THAILAN170KNDL0006006                                                                                                                              *          20160912IMF1609122.TXT
MDDDG9217384201609                D89828070100PV1D20160916000060SPEAKER ASM                   M IMCTM S5MA12 FTTL  07070IMCT  S5 PTB  00004                    0230 SR        000000000000 FUJITSU TEN (THAILAN170KNCL0006006                                                                                                                              *          20160912IMF1609122.TXT
MDDUG9218060201609                D89828070100PT4U20160915000030SPEAKER ASM                   M IMCTM S0FL05 FTTL  07070IMCT  S0 PTB  00004                    2100 SR        000000000000 FUJITSU TEN (THAILAN170KUAU0003003                                                                                                                              *          20160912IMF1609122.TXT
MDDUG9218061201609                D89828070100PT4U20160915000030SPEAKER ASM                   M IMCTM S0FL05 FTTL  07070IMCT  S0 PTB  00004                    2230 SR        000000000000 FUJITSU TEN (THAILAN170KUCU0003003                                                                                                                              *          20160912IMF1609122.TXT
MDDUG9218062201609                D89828070200PV4U20160915000030SPEAKER ASM                   M IMCTM S0FR05 FTTL  07070IMCT  S0 PTB  00005                    2100 SR        000000000000 FUJITSU TEN (THAILAN170KUAU0003003                                                                                                                              *          20160912IMF1609122.TXT
MDDUG9218063201609                D89828070200PV4U20160915000030SPEAKER ASM                   M IMCTM S0FR05 FTTL  07070IMCT  S0 PTB  00005                    2230 SR        000000000000 FUJITSU TEN (THAILAN170KUCU0003003                                                                                                                              *          20160912IMF1609122.TXT
MDDUG9218064201609                D89828070300PT4U20160915000030SPEAKER ASM                   M IMCTM S9TS02 FTTL  07070IMCT  S9 PTB  00015                    2100 SR        000000000000 FUJITSU TEN (THAILAN170KUAU0003003                                                                                                                              *          20160912IMF1609122.TXT
MDDUG9218065201609                D89828070300PT4U20160915000030SPEAKER ASM                   M IMCTM S9TS02 FTTL  07070IMCT  S9 PTB  00015                    2230 SR        000000000000 FUJITSU TEN (THAILAN170KUCU0003003                                                                                                                              *          20160912IMF1609122.TXT
MDDUG9218066201609                D89829093500PT4U20160915000015RADIO;ASM DVD (T              M IMCTM S9CO001FTTL  07070IMCT  S9 PTB  00003                    2230 SR        000000000000 FUJITSU TEN (THAILAN170KUCU0003003                                                                                                                              *          20160912IMF1609122.TXT
MDDUG9218067201609                D89831228400PT4U20160915000015RADIO;AM/FM,CD                M IMCTM S9CO001FTTL  07070IMCT  S9 CPB  00003                    2100 SR        000000000000 FUJITSU TEN (THAILAN170KUAU0003003                                                                                                                              *          20160912IMF1609122.TXT
MDEDG9265236201609                D89828070100PV1D20160915000030SPEAKER ASM                   M IMCTM S5MA12 FTTL  07070IMCT  S5 PTB  00004                    1600 SR        000000000000 FUJITSU TEN (THAILAN16085HL0019019                                                                                                                              *          20160912IMF1609122.TXT
MDEDG9265237201609                D89828070100PV1D20160915000060SPEAKER ASM                   M IMCTM S5MA12 FTTL  07070IMCT  S5 PTB  00004                    2100 SR        000000000000 FUJITSU TEN (THAILAN16052HL002702716085HL0020020                                                                                                                *          20160912IMF1609122.TXT
MDEDG9265238201609                D89828070100PV1D20160915000090SPEAKER ASM                   M IMCTM S5MA12 FTTL  07070IMCT  S5 PTB  00004                    2230 SR        000000000000 FUJITSU TEN (THAILAN16007JL006506516072HL0040041                                                                                                                *          20160912IMF1609122.TXT
MDEDG9265239201609                D89828070100PV1D20160916000030SPEAKER ASM                   M IMCTM S5MA12 FTTL  07070IMCT  S5 PTB  00004                    0230 SR        000000000000 FUJITSU TEN (THAILAN16007JL0066066                                                                                                                              *          20160912IMF1609122.TXT
MDEDG9265240201609                D89828070100PV1D20160916000030SPEAKER ASM                   M IMCTM S5MA12 FTTL  07070IMCT  S5 PTB  00004                    0900 SR        000000000000 FUJITSU TEN (THAILAN16075HL0046046                                                                                                                              *          20160912IMF1609122.TXT
MDEDG9265241201609                D89828070100PV4D20160915000030SPEAKER ASM                   M IMCTM S0FL05 FTTL  07070IMCT  S0 PTB  00004                    2230 SR        000000000000 FUJITSU TEN (THAILAN16075HU0025025                                                                                                                              *          20160912IMF1609122.TXT
MDEDG9265242201609                D89828070200PV1D20160915000030SPEAKER ASM                   M IMCTM S5MA13 FTTL  07070IMCT  S5 PTB  00005                    2100 SR        000000000000 FUJITSU TEN (THAILAN16052HL0027027                                                                                                                              *          20160912IMF1609122.TXT
MDEDG9265243201609                D89828070200PV1D20160915000060SPEAKER ASM                   M IMCTM S5MA13 FTTL  07070IMCT  S5 PTB  00005                    2230 SR        000000000000 FUJITSU TEN (THAILAN16072HL0040041                                                                                                                              *          20160912IMF1609122.TXT
MDEDG9265244201609                D89828070300PT1D20160915000030SPEAKER ASM                   M IMCTM S5NB042FTTL  07070IMCT  S5 PTB  00015                    2100 SR        000000000000 FUJITSU TEN (THAILAN16052HL0027027                                                                                                                              *          20160912IMF1609122.TXT
MDEDG9265245201609                D89828070300PT1D20160915000060SPEAKER ASM                   M IMCTM S5NB042FTTL  07070IMCT  S5 PTB  00015                    2230 SR        000000000000 FUJITSU TEN (THAILAN16072HL0040041                                                                                                                              *          20160912IMF1609122.TXT
MDEUG9234103201609                D89828070100PT4U20160916000030SPEAKER ASM                   M IMCTM S0FL05 FTTL  07070IMCT  S0 PTB  00004                    0400 SR        000000000000 FUJITSU TEN (THAILAN160B48U0347347                                                                                                                              *          20160912IMF1609122.TXT
MDEUG9234104201609                D89828070200PV4U20160916000030SPEAKER ASM                   M IMCTM S0FR05 FTTL  07070IMCT  S0 PTB  00005                    0400 SR        000000000000 FUJITSU TEN (THAILAN160B48U0347347                                                                                                                              *          20160912IMF1609122.TXT
MDEUG9234105201609                D89828070300PT4U20160916000030SPEAKER ASM                   M IMCTM S9TS02 FTTL  07070IMCT  S9 PTB  00015                    0400 SR        000000000000 FUJITSU TEN (THAILAN160B48U0347347                                                                                                                              *          20160912IMF1609122.TXT
