REC2016091420160914ISUZU                              61     
MDDDG9221183201609                D89821984430PT1D20160919000030RADIO;AM/FM,CD                M IMCTM S5NC06 FTTL  07070IMCT  S5 PTB  00005                    2230 SR        000000000000 FUJITSU TEN (THAILAN170KNEL0002002                                                                                                                              *          20160914IMF1609145.TXT
MDDDG9221184201609                D89821984430PT1D20160920000030RADIO;AM/FM,CD                M IMCTM S5NC06 FTTL  07070IMCT  S5 PTB  00005                    1300 SR        000000000000 FUJITSU TEN (THAILAN170KNDL0007007                                                                                                                              *          20160914IMF1609145.TXT
MDDDG9221185201609                D89821984430PT1D20160920000030RADIO;AM/FM,CD                M IMCTM S5NC06 FTTL  07070IMCT  S5 PTB  00005                    1600 SR        000000000000 FUJITSU TEN (THAILAN170KNCL0008008                                                                                                                              *          20160914IMF1609145.TXT
MDDDG9221186201609                D89828070100PV1D20160919000060SPEAKER ASM                   M IMCTM S5MA12 FTTL  07070IMCT  S5 PTB  00004                    2230 SR        000000000000 FUJITSU TEN (THAILAN170KNEL0002002                                                                                                                              *          20160914IMF1609145.TXT
MDDDG9221187201609                D89828070100PV1D20160920000060SPEAKER ASM                   M IMCTM S5MA12 FTTL  07070IMCT  S5 PTB  00004                    0400 SR        000000000000 FUJITSU TEN (THAILAN170KRSL0003003                                                                                                                              *          20160914IMF1609145.TXT
MDDDG9221188201609                D89828070100PV1D20160920000120SPEAKER ASM                   M IMCTM S5MA12 FTTL  07070IMCT  S5 PTB  00004                    1300 SR        000000000000 FUJITSU TEN (THAILAN170KNDL0007007170KRSL0004004                                                                                                                *          20160914IMF1609145.TXT
MDDDG9221189201609                D89828070100PV1D20160920000060SPEAKER ASM                   M IMCTM S5MA12 FTTL  07070IMCT  S5 PTB  00004                    1600 SR        000000000000 FUJITSU TEN (THAILAN170KNCL0008008                                                                                                                              *          20160914IMF1609145.TXT
MDDDG9221190201609                D89828070200PV1D20160920000060SPEAKER ASM                   M IMCTM S5MA13 FTTL  07070IMCT  S5 PTB  00005                    0400 SR        000000000000 FUJITSU TEN (THAILAN170KRSL0003003                                                                                                                              *          20160914IMF1609145.TXT
MDDDG9221191201609                D89828070200PV1D20160920000060SPEAKER ASM                   M IMCTM S5MA13 FTTL  07070IMCT  S5 PTB  00005                    1300 SR        000000000000 FUJITSU TEN (THAILAN170KRSL0004004                                                                                                                              *          20160914IMF1609145.TXT
MDDDG9221192201609                D89828070300PT1D20160920000060SPEAKER ASM                   M IMCTM S5NB042FTTL  07070IMCT  S5 PTB  00015                    0400 SR        000000000000 FUJITSU TEN (THAILAN170KRSL0003003                                                                                                                              *          20160914IMF1609145.TXT
MDDDG9221193201609                D89828070300PT1D20160920000060SPEAKER ASM                   M IMCTM S5NB042FTTL  07070IMCT  S5 PTB  00015                    1300 SR        000000000000 FUJITSU TEN (THAILAN170KRSL0004004                                                                                                                              *          20160914IMF1609145.TXT
MDDUG9220054201609                D89828070100PT4U20160919000030SPEAKER ASM                   M IMCTM S0FL05 FTTL  07070IMCT  S0 PTB  00004                    2230 SR        000000000000 FUJITSU TEN (THAILAN170KUCU0004004                                                                                                                              *          20160914IMF1609145.TXT
MDDUG9220055201609                D89828070100PT4U20160920000030SPEAKER ASM                   M IMCTM S0FL05 FTTL  07070IMCT  S0 PTB  00004                    0400 SR        000000000000 FUJITSU TEN (THAILAN170KUAU0004004                                                                                                                              *          20160914IMF1609145.TXT
MDDUG9220056201609                D89828070200PV4U20160919000030SPEAKER ASM                   M IMCTM S0FR05 FTTL  07070IMCT  S0 PTB  00005                    2230 SR        000000000000 FUJITSU TEN (THAILAN170KUCU0004004                                                                                                                              *          20160914IMF1609145.TXT
MDDUG9220057201609                D89828070200PV4U20160920000030SPEAKER ASM                   M IMCTM S0FR05 FTTL  07070IMCT  S0 PTB  00005                    0400 SR        000000000000 FUJITSU TEN (THAILAN170KUAU0004004                                                                                                                              *          20160914IMF1609145.TXT
MDDUG9220058201609                D89828070300PT4U20160919000030SPEAKER ASM                   M IMCTM S9TS02 FTTL  07070IMCT  S9 PTB  00015                    2230 SR        000000000000 FUJITSU TEN (THAILAN170KUCU0004004                                                                                                                              *          20160914IMF1609145.TXT
MDDUG9220059201609                D89828070300PT4U20160920000030SPEAKER ASM                   M IMCTM S9TS02 FTTL  07070IMCT  S9 PTB  00015                    0400 SR        000000000000 FUJITSU TEN (THAILAN170KUAU0004004                                                                                                                              *          20160914IMF1609145.TXT
MDDUG9220060201609                D89829093500PT4U20160919000015RADIO;ASM DVD (T              M IMCTM S9CO001FTTL  07070IMCT  S9 PTB  00003                    2230 SR        000000000000 FUJITSU TEN (THAILAN170KUCU0004004                                                                                                                              *          20160914IMF1609145.TXT
MDDUG9220061201609                D89831228400PT4U20160920000015RADIO;AM/FM,CD                M IMCTM S9CO001FTTL  07070IMCT  S9 CPB  00003                    0400 SR        000000000000 FUJITSU TEN (THAILAN170KUAU0004004                                                                                                                              *          20160914IMF1609145.TXT
MDEDG9274671201609                D89828070100PV1D20160919000030SPEAKER ASM                   M IMCTM S5MA12 FTTL  07070IMCT  S5 PTB  00004                    2100 SR        000000000000 FUJITSU TEN (THAILAN16052HL0028028                                                                                                                              *          20160914IMF1609145.TXT
MDEDG9274672201609                D89828070100PV1D20160919000090SPEAKER ASM                   M IMCTM S5MA12 FTTL  07070IMCT  S5 PTB  00004                    2230 SR        000000000000 FUJITSU TEN (THAILAN16007JL006906916052HL002902916072LL0013013                                                                                                  *          20160914IMF1609145.TXT
MDEDG9274673201609                D89828070100PV1D20160920000060SPEAKER ASM                   M IMCTM S5MA12 FTTL  07070IMCT  S5 PTB  00004                    0230 SR        000000000000 FUJITSU TEN (THAILAN16051HL0020021                                                                                                                              *          20160914IMF1609145.TXT
MDEDG9274674201609                D89828070100PV1D20160920000060SPEAKER ASM                   M IMCTM S5MA12 FTTL  07070IMCT  S5 PTB  00004                    0400 SR        000000000000 FUJITSU TEN (THAILAN16051HL002202216078HL0016016                                                                                                                *          20160914IMF1609145.TXT
MDEDG9274675201609                D89828070100PV1D20160920000090SPEAKER ASM                   M IMCTM S5MA12 FTTL  07070IMCT  S5 PTB  00004                    0900 SR        000000000000 FUJITSU TEN (THAILAN16007JL007007016051HL002302316078HL0017017                                                                                                  *          20160914IMF1609145.TXT
MDEDG9274676201609                D89828070100PV1D20160920000030SPEAKER ASM                   M IMCTM S5MA12 FTTL  07070IMCT  S5 PTB  00004                    1300 SR        000000000000 FUJITSU TEN (THAILAN16007JL0071071                                                                                                                              *          20160914IMF1609145.TXT
MDEDG9274677201609                D89828070100PV1D20160920000120SPEAKER ASM                   M IMCTM S5MA12 FTTL  07070IMCT  S5 PTB  00004                    1600 SR        000000000000 FUJITSU TEN (THAILAN16007JL007207316044JL000600616047KL0021021                                                                                                  *          20160914IMF1609145.TXT
MDEDG9274678201609                D89828070100PV1D20160920000030SPEAKER ASM                   M IMCTM S5MA12 FTTL  07070IMCT  S5 PTB  00004                    2100 SR        000000000000 FUJITSU TEN (THAILAN16009JL0033033                                                                                                                              *          20160914IMF1609145.TXT
MDEDG9274679201609                D89828070100PV4D20160919000030SPEAKER ASM                   M IMCTM S0FL05 FTTL  07070IMCT  S0 PTB  00004                    2230 SR        000000000000 FUJITSU TEN (THAILAN16072HU0045045                                                                                                                              *          20160914IMF1609145.TXT
MDEDG9274680201609                D89828070100PV4D20160920000030SPEAKER ASM                   M IMCTM S0FL05 FTTL  07070IMCT  S0 PTB  00004                    0230 SR        000000000000 FUJITSU TEN (THAILAN16072HU0046046                                                                                                                              *          20160914IMF1609145.TXT
MDEDG9274681201609                D89828070100PV4D20160920000030SPEAKER ASM                   M IMCTM S0FL05 FTTL  07070IMCT  S0 PTB  00004                    1300 SR        000000000000 FUJITSU TEN (THAILAN16072HU0047047                                                                                                                              *          20160914IMF1609145.TXT
MDEDG9274682201609                D89828070200PV1D20160919000030SPEAKER ASM                   M IMCTM S5MA13 FTTL  07070IMCT  S5 PTB  00005                    2100 SR        000000000000 FUJITSU TEN (THAILAN16052HL0028028                                                                                                                              *          20160914IMF1609145.TXT
MDEDG9274683201609                D89828070200PV1D20160919000030SPEAKER ASM                   M IMCTM S5MA13 FTTL  07070IMCT  S5 PTB  00005                    2230 SR        000000000000 FUJITSU TEN (THAILAN16052HL0029029                                                                                                                              *          20160914IMF1609145.TXT
MDEDG9274684201609                D89828070200PV1D20160920000060SPEAKER ASM                   M IMCTM S5MA13 FTTL  07070IMCT  S5 PTB  00005                    0230 SR        000000000000 FUJITSU TEN (THAILAN16051HL0020021                                                                                                                              *          20160914IMF1609145.TXT
MDEDG9274685201609                D89828070200PV1D20160920000030SPEAKER ASM                   M IMCTM S5MA13 FTTL  07070IMCT  S5 PTB  00005                    0400 SR        000000000000 FUJITSU TEN (THAILAN16051HL0022022                                                                                                                              *          20160914IMF1609145.TXT
MDEDG9274686201609                D89828070200PV1D20160920000030SPEAKER ASM                   M IMCTM S5MA13 FTTL  07070IMCT  S5 PTB  00005                    0900 SR        000000000000 FUJITSU TEN (THAILAN16051HL0023023                                                                                                                              *          20160914IMF1609145.TXT
MDEDG9274687201609                D89828070200PV1D20160920000060SPEAKER ASM                   M IMCTM S5MA13 FTTL  07070IMCT  S5 PTB  00005                    1600 SR        000000000000 FUJITSU TEN (THAILAN16044JL000600616047KL0021021                                                                                                                *          20160914IMF1609145.TXT
MDEDG9274688201609                D89828070200PV4D20160919000030SPEAKER ASM                   M IMCTM S0FR05 FTTL  07070IMCT  S0 PTB  00005                    2230 SR        000000000000 FUJITSU TEN (THAILAN16072HU0045045                                                                                                                              *          20160914IMF1609145.TXT
MDEDG9274689201609                D89828070200PV4D20160920000030SPEAKER ASM                   M IMCTM S0FR05 FTTL  07070IMCT  S0 PTB  00005                    0230 SR        000000000000 FUJITSU TEN (THAILAN16072HU0046046                                                                                                                              *          20160914IMF1609145.TXT
MDEDG9274690201609                D89828070200PV4D20160920000030SPEAKER ASM                   M IMCTM S0FR05 FTTL  07070IMCT  S0 PTB  00005                    1300 SR        000000000000 FUJITSU TEN (THAILAN16072HU0047047                                                                                                                              *          20160914IMF1609145.TXT
MDEDG9274691201609                D89828070300PT1D20160919000030SPEAKER ASM                   M IMCTM S5NB042FTTL  07070IMCT  S5 PTB  00015                    2100 SR        000000000000 FUJITSU TEN (THAILAN16052HL0028028                                                                                                                              *          20160914IMF1609145.TXT
MDEDG9274692201609                D89828070300PT1D20160919000030SPEAKER ASM                   M IMCTM S5NB042FTTL  07070IMCT  S5 PTB  00015                    2230 SR        000000000000 FUJITSU TEN (THAILAN16052HL0029029                                                                                                                              *          20160914IMF1609145.TXT
MDEDG9274693201609                D89828070300PT1D20160920000060SPEAKER ASM                   M IMCTM S5NB042FTTL  07070IMCT  S5 PTB  00015                    0230 SR        000000000000 FUJITSU TEN (THAILAN16051HL0020021                                                                                                                              *          20160914IMF1609145.TXT
MDEDG9274694201609                D89828070300PT1D20160920000030SPEAKER ASM                   M IMCTM S5NB042FTTL  07070IMCT  S5 PTB  00015                    0400 SR        000000000000 FUJITSU TEN (THAILAN16051HL0022022                                                                                                                              *          20160914IMF1609145.TXT
MDEDG9274695201609                D89828070300PT1D20160920000030SPEAKER ASM                   M IMCTM S5NB042FTTL  07070IMCT  S5 PTB  00015                    0900 SR        000000000000 FUJITSU TEN (THAILAN16051HL0023023                                                                                                                              *          20160914IMF1609145.TXT
MDEDG9274696201609                D89828070300PT1D20160920000060SPEAKER ASM                   M IMCTM S5NB042FTTL  07070IMCT  S5 PTB  00015                    1600 SR        000000000000 FUJITSU TEN (THAILAN16044JL000600616047KL0021021                                                                                                                *          20160914IMF1609145.TXT
MDEDG9274697201609                D89828070300PT4D20160919000030SPEAKER ASM                   M IMCTM S9TS02 FTTL  07070IMCT  S9 PTB  00015                    2230 SR        000000000000 FUJITSU TEN (THAILAN16072HU0045045                                                                                                                              *          20160914IMF1609145.TXT
MDEDG9274698201609                D89828070300PT4D20160920000030SPEAKER ASM                   M IMCTM S9TS02 FTTL  07070IMCT  S9 PTB  00015                    0230 SR        000000000000 FUJITSU TEN (THAILAN16072HU0046046                                                                                                                              *          20160914IMF1609145.TXT
MDEDG9274699201609                D89828070300PT4D20160920000030SPEAKER ASM                   M IMCTM S9TS02 FTTL  07070IMCT  S9 PTB  00015                    1300 SR        000000000000 FUJITSU TEN (THAILAN16072HU0047047                                                                                                                              *          20160914IMF1609145.TXT
MDEDG9274700201609                D89831229200PT1D20160920000015RADIO;AM/FM,CD                M IMCTM S5NC06 FTTL  07070IMCT  S5 PTB  00003                    1600 SR        000000000000 FUJITSU TEN (THAILAN16044JL0006006                                                                                                                              *          20160914IMF1609145.TXT
MDEUG9238619201609                D89828070100PT4U20160920000030SPEAKER ASM                   M IMCTM S0FL05 FTTL  07070IMCT  S0 PTB  00004                    0400 SR        000000000000 FUJITSU TEN (THAILAN160B48U0353353                                                                                                                              *          20160914IMF1609145.TXT
MDEUG9238620201609                D89828070100PT4U20160920000090SPEAKER ASM                   M IMCTM S0FL05 FTTL  07070IMCT  S0 PTB  00004                    0900 SR        000000000000 FUJITSU TEN (THAILAN160B45U0043043160B48U0354355                                                                                                                *          20160914IMF1609145.TXT
MDEUG9238621201609                D89828070100PT4U20160920000030SPEAKER ASM                   M IMCTM S0FL05 FTTL  07070IMCT  S0 PTB  00004                    1300 SR        000000000000 FUJITSU TEN (THAILAN160B46U0105105                                                                                                                              *          20160914IMF1609145.TXT
MDEUG9238622201609                D89828070100PT4U20160920000090SPEAKER ASM                   M IMCTM S0FL05 FTTL  07070IMCT  S0 PTB  00004                    1600 SR        000000000000 FUJITSU TEN (THAILAN160B45U0044044160B48U0356357                                                                                                                *          20160914IMF1609145.TXT
MDEUG9238623201609                D89828070200PV4U20160920000030SPEAKER ASM                   M IMCTM S0FR05 FTTL  07070IMCT  S0 PTB  00005                    0400 SR        000000000000 FUJITSU TEN (THAILAN160B48U0353353                                                                                                                              *          20160914IMF1609145.TXT
MDEUG9238624201609                D89828070200PV4U20160920000090SPEAKER ASM                   M IMCTM S0FR05 FTTL  07070IMCT  S0 PTB  00005                    0900 SR        000000000000 FUJITSU TEN (THAILAN160B45U0043043160B48U0354355                                                                                                                *          20160914IMF1609145.TXT
MDEUG9238625201609                D89828070200PV4U20160920000030SPEAKER ASM                   M IMCTM S0FR05 FTTL  07070IMCT  S0 PTB  00005                    1300 SR        000000000000 FUJITSU TEN (THAILAN160B46U0105105                                                                                                                              *          20160914IMF1609145.TXT
MDEUG9238626201609                D89828070200PV4U20160920000090SPEAKER ASM                   M IMCTM S0FR05 FTTL  07070IMCT  S0 PTB  00005                    1600 SR        000000000000 FUJITSU TEN (THAILAN160B45U0044044160B48U0356357                                                                                                                *          20160914IMF1609145.TXT
MDEUG9238627201609                D89828070300PT4U20160920000030SPEAKER ASM                   M IMCTM S9TS02 FTTL  07070IMCT  S9 PTB  00015                    0400 SR        000000000000 FUJITSU TEN (THAILAN160B48U0353353                                                                                                                              *          20160914IMF1609145.TXT
MDEUG9238628201609                D89828070300PT4U20160920000090SPEAKER ASM                   M IMCTM S9TS02 FTTL  07070IMCT  S9 PTB  00015                    0900 SR        000000000000 FUJITSU TEN (THAILAN160B45U0043043160B48U0354355                                                                                                                *          20160914IMF1609145.TXT
MDEUG9238629201609                D89828070300PT4U20160920000030SPEAKER ASM                   M IMCTM S9TS02 FTTL  07070IMCT  S9 PTB  00015                    1300 SR        000000000000 FUJITSU TEN (THAILAN160B46U0105105                                                                                                                              *          20160914IMF1609145.TXT
MDEUG9238630201609                D89828070300PT4U20160920000090SPEAKER ASM                   M IMCTM S9TS02 FTTL  07070IMCT  S9 PTB  00015                    1600 SR        000000000000 FUJITSU TEN (THAILAN160B45U0044044160B48U0356357                                                                                                                *          20160914IMF1609145.TXT
