REC2016091520160915ISUZU                              43     
MDDDG9224651201609                D89821984430PT1D20160921000030RADIO;AM/FM,CD                M IMCTM S5NC06 FTTL  07070IMCT  S5 PTB  00005                    0900 SR        000000000000 FUJITSU TEN (THAILAN170KNEL0003003                                                                                                                              *          20160915IMF1609155.TXT
MDDDG9224652201609                D89821984430PT1D20160921000030RADIO;AM/FM,CD                M IMCTM S5NC06 FTTL  07070IMCT  S5 PTB  00005                    1300 SR        000000000000 FUJITSU TEN (THAILAN170KNDL0008008                                                                                                                              *          20160915IMF1609155.TXT
MDDDG9224653201609                D89828070100PV1D20160920000060SPEAKER ASM                   M IMCTM S5MA12 FTTL  07070IMCT  S5 PTB  00004                    2230 SR        000000000000 FUJITSU TEN (THAILAN170KRRL0003003                                                                                                                              *          20160915IMF1609155.TXT
MDDDG9224654201609                D89828070100PV1D20160921000060SPEAKER ASM                   M IMCTM S5MA12 FTTL  07070IMCT  S5 PTB  00004                    0900 SR        000000000000 FUJITSU TEN (THAILAN170KNEL0003003                                                                                                                              *          20160915IMF1609155.TXT
MDDDG9224655201609                D89828070100PV1D20160921000060SPEAKER ASM                   M IMCTM S5MA12 FTTL  07070IMCT  S5 PTB  00004                    1300 SR        000000000000 FUJITSU TEN (THAILAN170KNDL0008008                                                                                                                              *          20160915IMF1609155.TXT
MDDDG9224656201609                D89828070200PV1D20160920000060SPEAKER ASM                   M IMCTM S5MA13 FTTL  07070IMCT  S5 PTB  00005                    2230 SR        000000000000 FUJITSU TEN (THAILAN170KRRL0003003                                                                                                                              *          20160915IMF1609155.TXT
MDDDG9224657201609                D89828070300PT1D20160920000060SPEAKER ASM                   M IMCTM S5NB042FTTL  07070IMCT  S5 PTB  00015                    2230 SR        000000000000 FUJITSU TEN (THAILAN170KRRL0003003                                                                                                                              *          20160915IMF1609155.TXT
MDDUG9222764201609                D89828070100PT4U20160920000030SPEAKER ASM                   M IMCTM S0FL05 FTTL  07070IMCT  S0 PTB  00004                    2100 SR        000000000000 FUJITSU TEN (THAILAN170KUBU0002002                                                                                                                              *          20160915IMF1609155.TXT
MDDUG9222765201609                D89828070200PV4U20160920000030SPEAKER ASM                   M IMCTM S0FR05 FTTL  07070IMCT  S0 PTB  00005                    2100 SR        000000000000 FUJITSU TEN (THAILAN170KUBU0002002                                                                                                                              *          20160915IMF1609155.TXT
MDDUG9222766201609                D89828070300PT4U20160920000030SPEAKER ASM                   M IMCTM S9TS02 FTTL  07070IMCT  S9 PTB  00015                    2100 SR        000000000000 FUJITSU TEN (THAILAN170KUBU0002002                                                                                                                              *          20160915IMF1609155.TXT
MDDUG9222767201609                D89829093500PT4U20160920000015RADIO;ASM DVD (T              M IMCTM S9CO001FTTL  07070IMCT  S9 PTB  00003                    2100 SR        000000000000 FUJITSU TEN (THAILAN170KUBU0002002                                                                                                                              *          20160915IMF1609155.TXT
MDEDG9283815201609                D89828070100PV1D20160920000030SPEAKER ASM                   M IMCTM S5MA12 FTTL  07070IMCT  S5 PTB  00004                    2100 SR        000000000000 FUJITSU TEN (THAILAN16075HL0048048                                                                                                                              *          20160915IMF1609155.TXT
MDEDG9283816201609                D89828070100PV1D20160920000120SPEAKER ASM                   M IMCTM S5MA12 FTTL  07070IMCT  S5 PTB  00004                    2230 SR        000000000000 FUJITSU TEN (THAILAN16032JL001501516075HL0049051                                                                                                                *          20160915IMF1609155.TXT
MDEDG9283817201609                D89828070100PV1D20160921000030SPEAKER ASM                   M IMCTM S5MA12 FTTL  07070IMCT  S5 PTB  00004                    0230 SR        000000000000 FUJITSU TEN (THAILAN16007JL0074074                                                                                                                              *          20160915IMF1609155.TXT
MDEDG9283818201609                D89828070100PV1D20160921000120SPEAKER ASM                   M IMCTM S5MA12 FTTL  07070IMCT  S5 PTB  00004                    0400 SR        000000000000 FUJITSU TEN (THAILAN16007JL007507716032JL0016016                                                                                                                *          20160915IMF1609155.TXT
MDEDG9283819201609                D89828070100PV1D20160921000090SPEAKER ASM                   M IMCTM S5MA12 FTTL  07070IMCT  S5 PTB  00004                    0900 SR        000000000000 FUJITSU TEN (THAILAN16016KL001401416038KL001601616081HL0107107                                                                                                  *          20160915IMF1609155.TXT
MDEDG9283820201609                D89828070100PV1D20160921000060SPEAKER ASM                   M IMCTM S5MA12 FTTL  07070IMCT  S5 PTB  00004                    1300 SR        000000000000 FUJITSU TEN (THAILAN16012KL000100116035KL0003003                                                                                                                *          20160915IMF1609155.TXT
MDEDG9283821201609                D89828070100PV1D20160921000150SPEAKER ASM                   M IMCTM S5MA12 FTTL  07070IMCT  S5 PTB  00004                    1600 SR        000000000000 FUJITSU TEN (THAILAN16007JL007807916032JL001701716072LL001401416081HL0108108                                                                                    *          20160915IMF1609155.TXT
MDEDG9283822201609                D89828070100PV4D20160921000030SPEAKER ASM                   M IMCTM S0FL05 FTTL  07070IMCT  S0 PTB  00004                    1300 SR        000000000000 FUJITSU TEN (THAILAN16075HU0026026                                                                                                                              *          20160915IMF1609155.TXT
MDEDG9283823201609                D89828070200PV1D20160921000030SPEAKER ASM                   M IMCTM S5MA13 FTTL  07070IMCT  S5 PTB  00005                    0900 SR        000000000000 FUJITSU TEN (THAILAN16038KL0016016                                                                                                                              *          20160915IMF1609155.TXT
MDEDG9283824201609                D89828070200PV1D20160921000060SPEAKER ASM                   M IMCTM S5MA13 FTTL  07070IMCT  S5 PTB  00005                    1300 SR        000000000000 FUJITSU TEN (THAILAN16012KL000100116035KL0003003                                                                                                                *          20160915IMF1609155.TXT
MDEDG9283825201609                D89828070300PT1D20160921000030SPEAKER ASM                   M IMCTM S5NB042FTTL  07070IMCT  S5 PTB  00015                    0900 SR        000000000000 FUJITSU TEN (THAILAN16038KL0016016                                                                                                                              *          20160915IMF1609155.TXT
MDEDG9283826201609                D89828070300PT1D20160921000060SPEAKER ASM                   M IMCTM S5NB042FTTL  07070IMCT  S5 PTB  00015                    1300 SR        000000000000 FUJITSU TEN (THAILAN16012KL000100116035KL0003003                                                                                                                *          20160915IMF1609155.TXT
MDEDG9283827201609                D89829645400PT1D20160921000015RADIO;ASM DVD                 M IMCTM S5NC06 FTTL  07070IMCT  S5 PTB  00003                    0900 SR        000000000000 FUJITSU TEN (THAILAN16038KL0016016                                                                                                                              *          20160915IMF1609155.TXT
MDEDG9283828201609                D89831229000PT1D20160921000030RADIO;AM/FM,CD                M IMCTM S5NC06 FTTL  07070IMCT  S5 PTB  00003                    1300 SR        000000000000 FUJITSU TEN (THAILAN16012KL000100116035KL0003003                                                                                                                *          20160915IMF1609155.TXT
MDEUG9243111201609                D89828070100PT4U20160920000030SPEAKER ASM                   M IMCTM S0FL05 FTTL  07070IMCT  S0 PTB  00004                    2230 SR        000000000000 FUJITSU TEN (THAILAN160B48U0358358                                                                                                                              *          20160915IMF1609155.TXT
MDEUG9243112201609                D89828070100PT4U20160921000060SPEAKER ASM                   M IMCTM S0FL05 FTTL  07070IMCT  S0 PTB  00004                    0230 SR        000000000000 FUJITSU TEN (THAILAN160B45U0045045160B46U0106106                                                                                                                *          20160915IMF1609155.TXT
MDEUG9243113201609                D89828070100PT4U20160921000030SPEAKER ASM                   M IMCTM S0FL05 FTTL  07070IMCT  S0 PTB  00004                    0400 SR        000000000000 FUJITSU TEN (THAILAN160B48U0359359                                                                                                                              *          20160915IMF1609155.TXT
MDEUG9243114201609                D89828070100PT4U20160921000060SPEAKER ASM                   M IMCTM S0FL05 FTTL  07070IMCT  S0 PTB  00004                    0900 SR        000000000000 FUJITSU TEN (THAILAN160B45U0046046160B48U0360360                                                                                                                *          20160915IMF1609155.TXT
MDEUG9243115201609                D89828070100PT4U20160921000030SPEAKER ASM                   M IMCTM S0FL05 FTTL  07070IMCT  S0 PTB  00004                    1300 SR        000000000000 FUJITSU TEN (THAILAN160B48U0361361                                                                                                                              *          20160915IMF1609155.TXT
MDEUG9243116201609                D89828070100PT4U20160921000030SPEAKER ASM                   M IMCTM S0FL05 FTTL  07070IMCT  S0 PTB  00004                    1600 SR        000000000000 FUJITSU TEN (THAILAN160B46U0107107                                                                                                                              *          20160915IMF1609155.TXT
MDEUG9243117201609                D89828070200PV4U20160920000030SPEAKER ASM                   M IMCTM S0FR05 FTTL  07070IMCT  S0 PTB  00005                    2230 SR        000000000000 FUJITSU TEN (THAILAN160B48U0358358                                                                                                                              *          20160915IMF1609155.TXT
MDEUG9243118201609                D89828070200PV4U20160921000060SPEAKER ASM                   M IMCTM S0FR05 FTTL  07070IMCT  S0 PTB  00005                    0230 SR        000000000000 FUJITSU TEN (THAILAN160B45U0045045160B46U0106106                                                                                                                *          20160915IMF1609155.TXT
MDEUG9243119201609                D89828070200PV4U20160921000030SPEAKER ASM                   M IMCTM S0FR05 FTTL  07070IMCT  S0 PTB  00005                    0400 SR        000000000000 FUJITSU TEN (THAILAN160B48U0359359                                                                                                                              *          20160915IMF1609155.TXT
MDEUG9243120201609                D89828070200PV4U20160921000060SPEAKER ASM                   M IMCTM S0FR05 FTTL  07070IMCT  S0 PTB  00005                    0900 SR        000000000000 FUJITSU TEN (THAILAN160B45U0046046160B48U0360360                                                                                                                *          20160915IMF1609155.TXT
MDEUG9243121201609                D89828070200PV4U20160921000030SPEAKER ASM                   M IMCTM S0FR05 FTTL  07070IMCT  S0 PTB  00005                    1300 SR        000000000000 FUJITSU TEN (THAILAN160B48U0361361                                                                                                                              *          20160915IMF1609155.TXT
MDEUG9243122201609                D89828070200PV4U20160921000030SPEAKER ASM                   M IMCTM S0FR05 FTTL  07070IMCT  S0 PTB  00005                    1600 SR        000000000000 FUJITSU TEN (THAILAN160B46U0107107                                                                                                                              *          20160915IMF1609155.TXT
MDEUG9243123201609                D89828070300PT4U20160920000030SPEAKER ASM                   M IMCTM S9TS02 FTTL  07070IMCT  S9 PTB  00015                    2230 SR        000000000000 FUJITSU TEN (THAILAN160B48U0358358                                                                                                                              *          20160915IMF1609155.TXT
MDEUG9243124201609                D89828070300PT4U20160921000060SPEAKER ASM                   M IMCTM S9TS02 FTTL  07070IMCT  S9 PTB  00015                    0230 SR        000000000000 FUJITSU TEN (THAILAN160B45U0045045160B46U0106106                                                                                                                *          20160915IMF1609155.TXT
MDEUG9243125201609                D89828070300PT4U20160921000030SPEAKER ASM                   M IMCTM S9TS02 FTTL  07070IMCT  S9 PTB  00015                    0400 SR        000000000000 FUJITSU TEN (THAILAN160B48U0359359                                                                                                                              *          20160915IMF1609155.TXT
MDEUG9243126201609                D89828070300PT4U20160921000060SPEAKER ASM                   M IMCTM S9TS02 FTTL  07070IMCT  S9 PTB  00015                    0900 SR        000000000000 FUJITSU TEN (THAILAN160B45U0046046160B48U0360360                                                                                                                *          20160915IMF1609155.TXT
MDEUG9243127201609                D89828070300PT4U20160921000030SPEAKER ASM                   M IMCTM S9TS02 FTTL  07070IMCT  S9 PTB  00015                    1300 SR        000000000000 FUJITSU TEN (THAILAN160B48U0361361                                                                                                                              *          20160915IMF1609155.TXT
MDEUG9243128201609                D89828070300PT4U20160921000030SPEAKER ASM                   M IMCTM S9TS02 FTTL  07070IMCT  S9 PTB  00015                    1600 SR        000000000000 FUJITSU TEN (THAILAN160B46U0107107                                                                                                                              *          20160915IMF1609155.TXT
