REC2016090520160905ISUZU                              46     
MDDDG9204498201609                D89828070100PV1D20160909000060SPEAKER ASM                   M IMCTM S5MA12 FTTL  07070IMCT  S5 PTB  00004                    0230 SR        000000000000 FUJITSU TEN (THAILAN170KRRL0001001                                                                                                                              *          20160905IMF1609054.TXT
MDDDG9204499201609                D89828070200PV1D20160909000060SPEAKER ASM                   M IMCTM S5MA13 FTTL  07070IMCT  S5 PTB  00005                    0230 SR        000000000000 FUJITSU TEN (THAILAN170KRRL0001001                                                                                                                              *          20160905IMF1609054.TXT
MDDDG9204500201609                D89828070300PT1D20160909000060SPEAKER ASM                   M IMCTM S5NB042FTTL  07070IMCT  S5 PTB  00015                    0230 SR        000000000000 FUJITSU TEN (THAILAN170KRRL0001001                                                                                                                              *          20160905IMF1609054.TXT
MDEDG9217851201609                D89805293700PV1D20160908000030SPEAKER ASM                   M IMCTM S5MA12 FTTL  07070IMCT  S5 PTB  00003                    2100 SR        000000000000 FUJITSU TEN (THAILAN15018FL0080080                                                                                                                              *          20160905IMF1609054.TXT
MDEDG9217852201609                D89805293700PV1D20160908000060SPEAKER ASM                   M IMCTM S5MA12 FTTL  07070IMCT  S5 PTB  00003                    2230 SR        000000000000 FUJITSU TEN (THAILAN15019FL0106107                                                                                                                              *          20160905IMF1609054.TXT
MDEDG9217853201609                D89805293700PV1D20160909000030SPEAKER ASM                   M IMCTM S5MA12 FTTL  07070IMCT  S5 PTB  00003                    1600 SR        000000000000 FUJITSU TEN (THAILAN15018FL0081081                                                                                                                              *          20160905IMF1609054.TXT
MDEDG9217854201609                D89828070100PV1D20160908000030SPEAKER ASM                   M IMCTM S5MA12 FTTL  07070IMCT  S5 PTB  00004                    2100 SR        000000000000 FUJITSU TEN (THAILAN16066HL0028028                                                                                                                              *          20160905IMF1609054.TXT
MDEDG9217855201609                D89828070100PV1D20160908000090SPEAKER ASM                   M IMCTM S5MA12 FTTL  07070IMCT  S5 PTB  00004                    2230 SR        000000000000 FUJITSU TEN (THAILAN16048HL001801916058HL0020020                                                                                                                *          20160905IMF1609054.TXT
MDEDG9217856201609                D89828070100PV1D20160909000030SPEAKER ASM                   M IMCTM S5MA12 FTTL  07070IMCT  S5 PTB  00004                    0230 SR        000000000000 FUJITSU TEN (THAILAN16066HL0029029                                                                                                                              *          20160905IMF1609054.TXT
MDEDG9217857201609                D89828070100PV1D20160909000060SPEAKER ASM                   M IMCTM S5MA12 FTTL  07070IMCT  S5 PTB  00004                    0400 SR        000000000000 FUJITSU TEN (THAILAN16050HL0019020                                                                                                                              *          20160905IMF1609054.TXT
MDEDG9217858201609                D89828070100PV1D20160909000120SPEAKER ASM                   M IMCTM S5MA12 FTTL  07070IMCT  S5 PTB  00004                    0900 SR        000000000000 FUJITSU TEN (THAILAN16051HL001101216058HL0021022                                                                                                                *          20160905IMF1609054.TXT
MDEDG9217859201609                D89828070100PV1D20160909000150SPEAKER ASM                   M IMCTM S5MA12 FTTL  07070IMCT  S5 PTB  00004                    1300 SR        000000000000 FUJITSU TEN (THAILAN16052HL002302316057HL000800816064HL002002016071HL0034035                                                                                    *          20160905IMF1609054.TXT
MDEDG9217860201609                D89828070100PV1D20160909000030SPEAKER ASM                   M IMCTM S5MA12 FTTL  07070IMCT  S5 PTB  00004                    2100 SR        000000000000 FUJITSU TEN (THAILAN16073HL0018018                                                                                                                              *          20160905IMF1609054.TXT
MDEDG9217861201609                D89828070200PV1D20160908000030SPEAKER ASM                   M IMCTM S5MA13 FTTL  07070IMCT  S5 PTB  00005                    2100 SR        000000000000 FUJITSU TEN (THAILAN16066HL0028028                                                                                                                              *          20160905IMF1609054.TXT
MDEDG9217862201609                D89828070200PV1D20160909000030SPEAKER ASM                   M IMCTM S5MA13 FTTL  07070IMCT  S5 PTB  00005                    0230 SR        000000000000 FUJITSU TEN (THAILAN16066HL0029029                                                                                                                              *          20160905IMF1609054.TXT
MDEDG9217863201609                D89828070200PV1D20160909000060SPEAKER ASM                   M IMCTM S5MA13 FTTL  07070IMCT  S5 PTB  00005                    0400 SR        000000000000 FUJITSU TEN (THAILAN16050HL0019020                                                                                                                              *          20160905IMF1609054.TXT
MDEDG9217864201609                D89828070200PV1D20160909000060SPEAKER ASM                   M IMCTM S5MA13 FTTL  07070IMCT  S5 PTB  00005                    0900 SR        000000000000 FUJITSU TEN (THAILAN16051HL0011012                                                                                                                              *          20160905IMF1609054.TXT
MDEDG9217865201609                D89828070200PV1D20160909000120SPEAKER ASM                   M IMCTM S5MA13 FTTL  07070IMCT  S5 PTB  00005                    1300 SR        000000000000 FUJITSU TEN (THAILAN16052HL002302316064HL002002016071HL0034035                                                                                                  *          20160905IMF1609054.TXT
MDEDG9217866201609                D89828070200PV1D20160909000030SPEAKER ASM                   M IMCTM S5MA13 FTTL  07070IMCT  S5 PTB  00005                    2100 SR        000000000000 FUJITSU TEN (THAILAN16073HL0018018                                                                                                                              *          20160905IMF1609054.TXT
MDEDG9217867201609                D89828070300PT1D20160908000030SPEAKER ASM                   M IMCTM S5NB042FTTL  07070IMCT  S5 PTB  00015                    2100 SR        000000000000 FUJITSU TEN (THAILAN16066HL0028028                                                                                                                              *          20160905IMF1609054.TXT
MDEDG9217868201609                D89828070300PT1D20160908000090SPEAKER ASM                   M IMCTM S5NB042FTTL  07070IMCT  S5 PTB  00015                    2230 SR        000000000000 FUJITSU TEN (THAILAN16048HL001801916058HL0020020                                                                                                                *          20160905IMF1609054.TXT
MDEDG9217869201609                D89828070300PT1D20160909000030SPEAKER ASM                   M IMCTM S5NB042FTTL  07070IMCT  S5 PTB  00015                    0230 SR        000000000000 FUJITSU TEN (THAILAN16066HL0029029                                                                                                                              *          20160905IMF1609054.TXT
MDEDG9217870201609                D89828070300PT1D20160909000060SPEAKER ASM                   M IMCTM S5NB042FTTL  07070IMCT  S5 PTB  00015                    0400 SR        000000000000 FUJITSU TEN (THAILAN16050HL0019020                                                                                                                              *          20160905IMF1609054.TXT
MDEDG9217871201609                D89828070300PT1D20160909000120SPEAKER ASM                   M IMCTM S5NB042FTTL  07070IMCT  S5 PTB  00015                    0900 SR        000000000000 FUJITSU TEN (THAILAN16051HL001101216058HL0021022                                                                                                                *          20160905IMF1609054.TXT
MDEDG9217872201609                D89828070300PT1D20160909000150SPEAKER ASM                   M IMCTM S5NB042FTTL  07070IMCT  S5 PTB  00015                    1300 SR        000000000000 FUJITSU TEN (THAILAN16052HL002302316057HL000800816064HL002002016071HL0034035                                                                                    *          20160905IMF1609054.TXT
MDEDG9217873201609                D89828070300PT1D20160909000030SPEAKER ASM                   M IMCTM S5NB042FTTL  07070IMCT  S5 PTB  00015                    2100 SR        000000000000 FUJITSU TEN (THAILAN16073HL0018018                                                                                                                              *          20160905IMF1609054.TXT
MDEDG9217874201609                D89831228500PT1D20160908000045RADIO;AM/FM,CD                M IMCTM S5NC06 FTTL  07070IMCT  S5 PTB  00003                    2230 SR        000000000000 FUJITSU TEN (THAILAN16048HL001801916058HL0020020                                                                                                                *          20160905IMF1609054.TXT
MDEDG9217875201609                D89831228500PT1D20160909000030RADIO;AM/FM,CD                M IMCTM S5NC06 FTTL  07070IMCT  S5 PTB  00003                    0900 SR        000000000000 FUJITSU TEN (THAILAN16058HL0021022                                                                                                                              *          20160905IMF1609054.TXT
MDEDG9217876201609                D89831228500PT1D20160909000015RADIO;AM/FM,CD                M IMCTM S5NC06 FTTL  07070IMCT  S5 PTB  00003                    1300 SR        000000000000 FUJITSU TEN (THAILAN16057HL0008008                                                                                                                              *          20160905IMF1609054.TXT
MDEDG9217877201609                D89831228600PT1D20160908000015RADIO;AM/FM,CD                M IMCTM S5NC06 FTTL  07070IMCT  S5 PTB  00003                    2100 SR        000000000000 FUJITSU TEN (THAILAN16066HL0028028                                                                                                                              *          20160905IMF1609054.TXT
MDEDG9217878201609                D89831228600PT1D20160909000015RADIO;AM/FM,CD                M IMCTM S5NC06 FTTL  07070IMCT  S5 PTB  00003                    0230 SR        000000000000 FUJITSU TEN (THAILAN16066HL0029029                                                                                                                              *          20160905IMF1609054.TXT
MDEDG9217879201609                D89831228600PT1D20160909000030RADIO;AM/FM,CD                M IMCTM S5NC06 FTTL  07070IMCT  S5 PTB  00003                    0400 SR        000000000000 FUJITSU TEN (THAILAN16050HL0019020                                                                                                                              *          20160905IMF1609054.TXT
MDEDG9217880201609                D89831228600PT1D20160909000045RADIO;AM/FM,CD                M IMCTM S5NC06 FTTL  07070IMCT  S5 PTB  00003                    1300 SR        000000000000 FUJITSU TEN (THAILAN16064HL002002016071HL0034035                                                                                                                *          20160905IMF1609054.TXT
MDEUG9209643201609                D89828070100PT4U20160908000090SPEAKER ASM                   M IMCTM S0FL05 FTTL  07070IMCT  S0 PTB  00004                    2230 SR        000000000000 FUJITSU TEN (THAILAN160B40U0019019160B48U0317318                                                                                                                *          20160905IMF1609054.TXT
MDEUG9209644201609                D89828070100PT4U20160909000060SPEAKER ASM                   M IMCTM S0FL05 FTTL  07070IMCT  S0 PTB  00004                    0400 SR        000000000000 FUJITSU TEN (THAILAN160B42U0105105160B48U0319319                                                                                                                *          20160905IMF1609054.TXT
MDEUG9209645201609                D89828070100PT4U20160909000060SPEAKER ASM                   M IMCTM S0FL05 FTTL  07070IMCT  S0 PTB  00004                    0900 SR        000000000000 FUJITSU TEN (THAILAN160B48U0320321                                                                                                                              *          20160905IMF1609054.TXT
MDEUG9209646201609                D89828070100PT4U20160909000030SPEAKER ASM                   M IMCTM S0FL05 FTTL  07070IMCT  S0 PTB  00004                    1600 SR        000000000000 FUJITSU TEN (THAILAN160B42U0106106                                                                                                                              *          20160905IMF1609054.TXT
MDEUG9209647201609                D89828070200PV4U20160908000090SPEAKER ASM                   M IMCTM S0FR05 FTTL  07070IMCT  S0 PTB  00005                    2230 SR        000000000000 FUJITSU TEN (THAILAN160B40U0019019160B48U0317318                                                                                                                *          20160905IMF1609054.TXT
MDEUG9209648201609                D89828070200PV4U20160909000060SPEAKER ASM                   M IMCTM S0FR05 FTTL  07070IMCT  S0 PTB  00005                    0400 SR        000000000000 FUJITSU TEN (THAILAN160B42U0105105160B48U0319319                                                                                                                *          20160905IMF1609054.TXT
MDEUG9209649201609                D89828070200PV4U20160909000060SPEAKER ASM                   M IMCTM S0FR05 FTTL  07070IMCT  S0 PTB  00005                    0900 SR        000000000000 FUJITSU TEN (THAILAN160B48U0320321                                                                                                                              *          20160905IMF1609054.TXT
MDEUG9209650201609                D89828070200PV4U20160909000030SPEAKER ASM                   M IMCTM S0FR05 FTTL  07070IMCT  S0 PTB  00005                    1600 SR        000000000000 FUJITSU TEN (THAILAN160B42U0106106                                                                                                                              *          20160905IMF1609054.TXT
MDEUG9209651201609                D89828070300PT4U20160908000090SPEAKER ASM                   M IMCTM S9TS02 FTTL  07070IMCT  S9 PTB  00015                    2230 SR        000000000000 FUJITSU TEN (THAILAN160B40U0019019160B48U0317318                                                                                                                *          20160905IMF1609054.TXT
MDEUG9209652201609                D89828070300PT4U20160909000060SPEAKER ASM                   M IMCTM S9TS02 FTTL  07070IMCT  S9 PTB  00015                    0400 SR        000000000000 FUJITSU TEN (THAILAN160B42U0105105160B48U0319319                                                                                                                *          20160905IMF1609054.TXT
MDEUG9209653201609                D89828070300PT4U20160909000060SPEAKER ASM                   M IMCTM S9TS02 FTTL  07070IMCT  S9 PTB  00015                    0900 SR        000000000000 FUJITSU TEN (THAILAN160B48U0320321                                                                                                                              *          20160905IMF1609054.TXT
MDEUG9209654201609                D89828070300PT4U20160909000030SPEAKER ASM                   M IMCTM S9TS02 FTTL  07070IMCT  S9 PTB  00015                    1600 SR        000000000000 FUJITSU TEN (THAILAN160B42U0106106                                                                                                                              *          20160905IMF1609054.TXT
MDEUG9209655201609                D89831228600PT4U20160908000015RADIO;AM/FM,CD                M IMCTM S9CO001FTTL  07070IMCT  S9 PTB  00003                    2230 SR        000000000000 FUJITSU TEN (THAILAN160B40U0019019                                                                                                                              *          20160905IMF1609054.TXT
