REC2016092320160923ISUZU                              42     
MDDDG9245841201609                D89821984430PT1D20160929000030RADIO;AM/FM,CD                M IMCTM S5NC06 FTTL  07070IMCT  S5 PTB  00005                    0900 SR        000000000000 FUJITSU TEN (THAILAN170KNEL0005005                                                                                                                              *          20160923IMF1609238.TXT
MDDDG9245842201609                D89821984430PT1D20160929000030RADIO;AM/FM,CD                M IMCTM S5NC06 FTTL  07070IMCT  S5 PTB  00005                    2100 SR        000000000000 FUJITSU TEN (THAILAN170KNEL0006006                                                                                                                              *          20160923IMF1609238.TXT
MDDDG9245843201609                D89828070100PV1D20160929000060SPEAKER ASM                   M IMCTM S5MA12 FTTL  07070IMCT  S5 PTB  00004                    0230 SR        000000000000 FUJITSU TEN (THAILAN170KNAL0003003                                                                                                                              *          20160923IMF1609238.TXT
MDDDG9245844201609                D89828070100PV1D20160929000060SPEAKER ASM                   M IMCTM S5MA12 FTTL  07070IMCT  S5 PTB  00004                    0400 SR        000000000000 FUJITSU TEN (THAILAN170KRSL0009009                                                                                                                              *          20160923IMF1609238.TXT
MDDDG9245845201609                D89828070100PV1D20160929000060SPEAKER ASM                   M IMCTM S5MA12 FTTL  07070IMCT  S5 PTB  00004                    0900 SR        000000000000 FUJITSU TEN (THAILAN170KNEL0005005                                                                                                                              *          20160923IMF1609238.TXT
MDDDG9245846201609                D89828070100PV1D20160929000060SPEAKER ASM                   M IMCTM S5MA12 FTTL  07070IMCT  S5 PTB  00004                    1300 SR        000000000000 FUJITSU TEN (THAILAN170KPHL0003003                                                                                                                              *          20160923IMF1609238.TXT
MDDDG9245847201609                D89828070100PV1D20160929000060SPEAKER ASM                   M IMCTM S5MA12 FTTL  07070IMCT  S5 PTB  00004                    2100 SR        000000000000 FUJITSU TEN (THAILAN170KNEL0006006                                                                                                                              *          20160923IMF1609238.TXT
MDDDG9245848201609                D89828070200PV1D20160929000060SPEAKER ASM                   M IMCTM S5MA13 FTTL  07070IMCT  S5 PTB  00005                    0400 SR        000000000000 FUJITSU TEN (THAILAN170KRSL0009009                                                                                                                              *          20160923IMF1609238.TXT
MDDDG9245849201609                D89828070300PT1D20160929000060SPEAKER ASM                   M IMCTM S5NB042FTTL  07070IMCT  S5 PTB  00015                    0400 SR        000000000000 FUJITSU TEN (THAILAN170KRSL0009009                                                                                                                              *          20160923IMF1609238.TXT
MDDDG9245850201609                D89828070300PT1D20160929000060SPEAKER ASM                   M IMCTM S5NB042FTTL  07070IMCT  S5 PTB  00015                    1300 SR        000000000000 FUJITSU TEN (THAILAN170KPHL0003003                                                                                                                              *          20160923IMF1609238.TXT
MDDDG9245851201609                D89831228300PT1D20160929000030RADIO;AM/FM,CD                M IMCTM S5NC06 FTTL  07070IMCT  S5 CPB  00003                    1300 SR        000000000000 FUJITSU TEN (THAILAN170KPHL0003003                                                                                                                              *          20160923IMF1609238.TXT
MDDUG9240836201609                D89828070100PT4U20160928000030SPEAKER ASM                   M IMCTM S0FL05 FTTL  07070IMCT  S0 PTB  00004                    2230 SR        000000000000 FUJITSU TEN (THAILAN170KUCU0009009                                                                                                                              *          20160923IMF1609238.TXT
MDDUG9240837201609                D89828070200PV4U20160928000030SPEAKER ASM                   M IMCTM S0FR05 FTTL  07070IMCT  S0 PTB  00005                    2230 SR        000000000000 FUJITSU TEN (THAILAN170KUCU0009009                                                                                                                              *          20160923IMF1609238.TXT
MDDUG9240838201609                D89828070300PT4U20160928000030SPEAKER ASM                   M IMCTM S9TS02 FTTL  07070IMCT  S9 PTB  00015                    2230 SR        000000000000 FUJITSU TEN (THAILAN170KUCU0009009                                                                                                                              *          20160923IMF1609238.TXT
MDDUG9240839201609                D89829093500PT4U20160928000015RADIO;ASM DVD (T              M IMCTM S9CO001FTTL  07070IMCT  S9 PTB  00003                    2230 SR        000000000000 FUJITSU TEN (THAILAN170KUCU0009009                                                                                                                              *          20160923IMF1609238.TXT
MDEDG9322902201609                D89828070100PV1D20160928000030SPEAKER ASM                   M IMCTM S5MA12 FTTL  07070IMCT  S5 PTB  00004                    2100 SR        000000000000 FUJITSU TEN (THAILAN16075HL0074074                                                                                                                              *          20160923IMF1609238.TXT
MDEDG9322903201609                D89828070100PV1D20160928000150SPEAKER ASM                   M IMCTM S5MA12 FTTL  07070IMCT  S5 PTB  00004                    2230 SR        000000000000 FUJITSU TEN (THAILAN16007JL010610816047KL002402416075HL0075075                                                                                                  *          20160923IMF1609238.TXT
MDEDG9322904201609                D89828070100PV1D20160929000060SPEAKER ASM                   M IMCTM S5MA12 FTTL  07070IMCT  S5 PTB  00004                    0400 SR        000000000000 FUJITSU TEN (THAILAN16033JL001401416075HL0076076                                                                                                                *          20160923IMF1609238.TXT
MDEDG9322905201609                D89828070100PV1D20160929000060SPEAKER ASM                   M IMCTM S5MA12 FTTL  07070IMCT  S5 PTB  00004                    0900 SR        000000000000 FUJITSU TEN (THAILAN16007JL0109110                                                                                                                              *          20160923IMF1609238.TXT
MDEDG9322906201609                D89828070100PV1D20160929000090SPEAKER ASM                   M IMCTM S5MA12 FTTL  07070IMCT  S5 PTB  00004                    1300 SR        000000000000 FUJITSU TEN (THAILAN16007JL011111116033JL001501516075HL0077077                                                                                                  *          20160923IMF1609238.TXT
MDEDG9322907201609                D89828070100PV1D20160929000030SPEAKER ASM                   M IMCTM S5MA12 FTTL  07070IMCT  S5 PTB  00004                    1600 SR        000000000000 FUJITSU TEN (THAILAN16075HL0078078                                                                                                                              *          20160923IMF1609238.TXT
MDEDG9322908201609                D89828070100PV4D20160928000030SPEAKER ASM                   M IMCTM S0FL05 FTTL  07070IMCT  S0 PTB  00004                    2230 SR        000000000000 FUJITSU TEN (THAILAN16002JU0001001                                                                                                                              *          20160923IMF1609238.TXT
MDEDG9322909201609                D89828070200PV1D20160928000030SPEAKER ASM                   M IMCTM S5MA13 FTTL  07070IMCT  S5 PTB  00005                    2230 SR        000000000000 FUJITSU TEN (THAILAN16047KL0024024                                                                                                                              *          20160923IMF1609238.TXT
MDEDG9322910201609                D89828070300PT1D20160928000030SPEAKER ASM                   M IMCTM S5NB042FTTL  07070IMCT  S5 PTB  00015                    2230 SR        000000000000 FUJITSU TEN (THAILAN16047KL0024024                                                                                                                              *          20160923IMF1609238.TXT
MDEUG9268916201609                D89828070100PT4U20160928000030SPEAKER ASM                   M IMCTM S0FL05 FTTL  07070IMCT  S0 PTB  00004                    2230 SR        000000000000 FUJITSU TEN (THAILAN160B94U0008008                                                                                                                              *          20160923IMF1609238.TXT
MDEUG9268917201609                D89828070100PT4U20160929000030SPEAKER ASM                   M IMCTM S0FL05 FTTL  07070IMCT  S0 PTB  00004                    0230 SR        000000000000 FUJITSU TEN (THAILAN160B50U0004004                                                                                                                              *          20160923IMF1609238.TXT
MDEUG9268918201609                D89828070100PT4U20160929000030SPEAKER ASM                   M IMCTM S0FL05 FTTL  07070IMCT  S0 PTB  00004                    0400 SR        000000000000 FUJITSU TEN (THAILAN160B48U0372372                                                                                                                              *          20160923IMF1609238.TXT
MDEUG9268919201609                D89828070100PT4U20160929000060SPEAKER ASM                   M IMCTM S0FL05 FTTL  07070IMCT  S0 PTB  00004                    0900 SR        000000000000 FUJITSU TEN (THAILAN160B48U0373373160B95U0016016                                                                                                                *          20160923IMF1609238.TXT
MDEUG9268920201609                D89828070100PT4U20160929000060SPEAKER ASM                   M IMCTM S0FL05 FTTL  07070IMCT  S0 PTB  00004                    1300 SR        000000000000 FUJITSU TEN (THAILAN160B46U0117118                                                                                                                              *          20160923IMF1609238.TXT
MDEUG9268921201609                D89828070100PT4U20160929000030SPEAKER ASM                   M IMCTM S0FL05 FTTL  07070IMCT  S0 PTB  00004                    1600 SR        000000000000 FUJITSU TEN (THAILAN160B45U0052052                                                                                                                              *          20160923IMF1609238.TXT
MDEUG9268922201609                D89828070200PV4U20160928000030SPEAKER ASM                   M IMCTM S0FR05 FTTL  07070IMCT  S0 PTB  00005                    2230 SR        000000000000 FUJITSU TEN (THAILAN160B94U0008008                                                                                                                              *          20160923IMF1609238.TXT
MDEUG9268923201609                D89828070200PV4U20160929000030SPEAKER ASM                   M IMCTM S0FR05 FTTL  07070IMCT  S0 PTB  00005                    0230 SR        000000000000 FUJITSU TEN (THAILAN160B50U0004004                                                                                                                              *          20160923IMF1609238.TXT
MDEUG9268924201609                D89828070200PV4U20160929000030SPEAKER ASM                   M IMCTM S0FR05 FTTL  07070IMCT  S0 PTB  00005                    0400 SR        000000000000 FUJITSU TEN (THAILAN160B48U0372372                                                                                                                              *          20160923IMF1609238.TXT
MDEUG9268925201609                D89828070200PV4U20160929000060SPEAKER ASM                   M IMCTM S0FR05 FTTL  07070IMCT  S0 PTB  00005                    0900 SR        000000000000 FUJITSU TEN (THAILAN160B48U0373373160B95U0016016                                                                                                                *          20160923IMF1609238.TXT
MDEUG9268926201609                D89828070200PV4U20160929000060SPEAKER ASM                   M IMCTM S0FR05 FTTL  07070IMCT  S0 PTB  00005                    1300 SR        000000000000 FUJITSU TEN (THAILAN160B46U0117118                                                                                                                              *          20160923IMF1609238.TXT
MDEUG9268927201609                D89828070200PV4U20160929000030SPEAKER ASM                   M IMCTM S0FR05 FTTL  07070IMCT  S0 PTB  00005                    1600 SR        000000000000 FUJITSU TEN (THAILAN160B45U0052052                                                                                                                              *          20160923IMF1609238.TXT
MDEUG9268928201609                D89828070300PT4U20160928000030SPEAKER ASM                   M IMCTM S9TS02 FTTL  07070IMCT  S9 PTB  00015                    2230 SR        000000000000 FUJITSU TEN (THAILAN160B94U0008008                                                                                                                              *          20160923IMF1609238.TXT
MDEUG9268929201609                D89828070300PT4U20160929000030SPEAKER ASM                   M IMCTM S9TS02 FTTL  07070IMCT  S9 PTB  00015                    0230 SR        000000000000 FUJITSU TEN (THAILAN160B50U0004004                                                                                                                              *          20160923IMF1609238.TXT
MDEUG9268930201609                D89828070300PT4U20160929000030SPEAKER ASM                   M IMCTM S9TS02 FTTL  07070IMCT  S9 PTB  00015                    0400 SR        000000000000 FUJITSU TEN (THAILAN160B48U0372372                                                                                                                              *          20160923IMF1609238.TXT
MDEUG9268931201609                D89828070300PT4U20160929000060SPEAKER ASM                   M IMCTM S9TS02 FTTL  07070IMCT  S9 PTB  00015                    0900 SR        000000000000 FUJITSU TEN (THAILAN160B48U0373373160B95U0016016                                                                                                                *          20160923IMF1609238.TXT
MDEUG9268932201609                D89828070300PT4U20160929000060SPEAKER ASM                   M IMCTM S9TS02 FTTL  07070IMCT  S9 PTB  00015                    1300 SR        000000000000 FUJITSU TEN (THAILAN160B46U0117118                                                                                                                              *          20160923IMF1609238.TXT
MDEUG9268933201609                D89828070300PT4U20160929000030SPEAKER ASM                   M IMCTM S9TS02 FTTL  07070IMCT  S9 PTB  00015                    1600 SR        000000000000 FUJITSU TEN (THAILAN160B45U0052052                                                                                                                              *          20160923IMF1609238.TXT
