REC2016091620160916ISUZU                              42     
MDDDG9227462201609                D89821984430PT1D20160922000030RADIO;AM/FM,CD                M IMCTM S5NC06 FTTL  07070IMCT  S5 PTB  00005                    0900 SR        000000000000 FUJITSU TEN (THAILAN170KNCL0009009                                                                                                                              *          20160916IMF1609169.TXT
MDDDG9227463201609                D89821984430PT1D20160922000030RADIO;AM/FM,CD                M IMCTM S5NC06 FTTL  07070IMCT  S5 PTB  00005                    1300 SR        000000000000 FUJITSU TEN (THAILAN170KNFL0003003                                                                                                                              *          20160916IMF1609169.TXT
MDDDG9227464201609                D89828070100PV1D20160921000060SPEAKER ASM                   M IMCTM S5MA12 FTTL  07070IMCT  S5 PTB  00004                    2230 SR        000000000000 FUJITSU TEN (THAILAN170KRRL0004004                                                                                                                              *          20160916IMF1609169.TXT
MDDDG9227465201609                D89828070100PV1D20160922000120SPEAKER ASM                   M IMCTM S5MA12 FTTL  07070IMCT  S5 PTB  00004                    0900 SR        000000000000 FUJITSU TEN (THAILAN170KNCL0009009170KRSL0005005                                                                                                                *          20160916IMF1609169.TXT
MDDDG9227466201609                D89828070100PV1D20160922000060SPEAKER ASM                   M IMCTM S5MA12 FTTL  07070IMCT  S5 PTB  00004                    1300 SR        000000000000 FUJITSU TEN (THAILAN170KNFL0003003                                                                                                                              *          20160916IMF1609169.TXT
MDDDG9227467201609                D89828070200PV1D20160921000060SPEAKER ASM                   M IMCTM S5MA13 FTTL  07070IMCT  S5 PTB  00005                    2230 SR        000000000000 FUJITSU TEN (THAILAN170KRRL0004004                                                                                                                              *          20160916IMF1609169.TXT
MDDDG9227468201609                D89828070200PV1D20160922000060SPEAKER ASM                   M IMCTM S5MA13 FTTL  07070IMCT  S5 PTB  00005                    0900 SR        000000000000 FUJITSU TEN (THAILAN170KRSL0005005                                                                                                                              *          20160916IMF1609169.TXT
MDDDG9227469201609                D89828070300PT1D20160921000060SPEAKER ASM                   M IMCTM S5NB042FTTL  07070IMCT  S5 PTB  00015                    2230 SR        000000000000 FUJITSU TEN (THAILAN170KRRL0004004                                                                                                                              *          20160916IMF1609169.TXT
MDDDG9227470201609                D89828070300PT1D20160922000060SPEAKER ASM                   M IMCTM S5NB042FTTL  07070IMCT  S5 PTB  00015                    0900 SR        000000000000 FUJITSU TEN (THAILAN170KRSL0005005                                                                                                                              *          20160916IMF1609169.TXT
MDDUG9225232201609                D89828070100PT4U20160921000030SPEAKER ASM                   M IMCTM S0FL05 FTTL  07070IMCT  S0 PTB  00004                    2230 SR        000000000000 FUJITSU TEN (THAILAN170KUCU0005005                                                                                                                              *          20160916IMF1609169.TXT
MDDUG9225233201609                D89828070200PV4U20160921000030SPEAKER ASM                   M IMCTM S0FR05 FTTL  07070IMCT  S0 PTB  00005                    2230 SR        000000000000 FUJITSU TEN (THAILAN170KUCU0005005                                                                                                                              *          20160916IMF1609169.TXT
MDDUG9225234201609                D89828070300PT4U20160921000030SPEAKER ASM                   M IMCTM S9TS02 FTTL  07070IMCT  S9 PTB  00015                    2230 SR        000000000000 FUJITSU TEN (THAILAN170KUCU0005005                                                                                                                              *          20160916IMF1609169.TXT
MDDUG9225235201609                D89829093500PT4U20160921000015RADIO;ASM DVD (T              M IMCTM S9CO001FTTL  07070IMCT  S9 PTB  00003                    2230 SR        000000000000 FUJITSU TEN (THAILAN170KUCU0005005                                                                                                                              *          20160916IMF1609169.TXT
MDEDG9291808201609                D89828070100PV1D20160921000060SPEAKER ASM                   M IMCTM S5MA12 FTTL  07070IMCT  S5 PTB  00004                    2100 SR        000000000000 FUJITSU TEN (THAILAN16032JL001801816075HL0052052                                                                                                                *          20160916IMF1609169.TXT
MDEDG9291809201609                D89828070100PV1D20160921000090SPEAKER ASM                   M IMCTM S5MA12 FTTL  07070IMCT  S5 PTB  00004                    2230 SR        000000000000 FUJITSU TEN (THAILAN16007JL008008116075HL0053053                                                                                                                *          20160916IMF1609169.TXT
MDEDG9291810201609                D89828070100PV1D20160922000060SPEAKER ASM                   M IMCTM S5MA12 FTTL  07070IMCT  S5 PTB  00004                    0230 SR        000000000000 FUJITSU TEN (THAILAN16007JL008208216047KL0022022                                                                                                                *          20160916IMF1609169.TXT
MDEDG9291811201609                D89828070100PV1D20160922000090SPEAKER ASM                   M IMCTM S5MA12 FTTL  07070IMCT  S5 PTB  00004                    0400 SR        000000000000 FUJITSU TEN (THAILAN16007JL008308416082HL0001001                                                                                                                *          20160916IMF1609169.TXT
MDEDG9291812201609                D89828070100PV1D20160922000060SPEAKER ASM                   M IMCTM S5MA12 FTTL  07070IMCT  S5 PTB  00004                    0900 SR        000000000000 FUJITSU TEN (THAILAN16007JL008508516085HL0021021                                                                                                                *          20160916IMF1609169.TXT
MDEDG9291813201609                D89828070100PV1D20160922000060SPEAKER ASM                   M IMCTM S5MA12 FTTL  07070IMCT  S5 PTB  00004                    1300 SR        000000000000 FUJITSU TEN (THAILAN16007JL0086087                                                                                                                              *          20160916IMF1609169.TXT
MDEDG9291814201609                D89828070100PV1D20160922000030SPEAKER ASM                   M IMCTM S5MA12 FTTL  07070IMCT  S5 PTB  00004                    1600 SR        000000000000 FUJITSU TEN (THAILAN16007JL0088088                                                                                                                              *          20160916IMF1609169.TXT
MDEDG9291815201609                D89828070100PV4D20160922000030SPEAKER ASM                   M IMCTM S0FL05 FTTL  07070IMCT  S0 PTB  00004                    0230 SR        000000000000 FUJITSU TEN (THAILAN16075HU0027027                                                                                                                              *          20160916IMF1609169.TXT
MDEDG9291816201609                D89828070100PV4D20160922000030SPEAKER ASM                   M IMCTM S0FL05 FTTL  07070IMCT  S0 PTB  00004                    0900 SR        000000000000 FUJITSU TEN (THAILAN16075HU0028028                                                                                                                              *          20160916IMF1609169.TXT
MDEDG9291817201609                D89828070200PV1D20160922000030SPEAKER ASM                   M IMCTM S5MA13 FTTL  07070IMCT  S5 PTB  00005                    0230 SR        000000000000 FUJITSU TEN (THAILAN16047KL0022022                                                                                                                              *          20160916IMF1609169.TXT
MDEDG9291818201609                D89828070300PT1D20160922000030SPEAKER ASM                   M IMCTM S5NB042FTTL  07070IMCT  S5 PTB  00015                    0230 SR        000000000000 FUJITSU TEN (THAILAN16047KL0022022                                                                                                                              *          20160916IMF1609169.TXT
MDEUG9247519201609                D89828070100PT4U20160921000030SPEAKER ASM                   M IMCTM S0FL05 FTTL  07070IMCT  S0 PTB  00004                    2230 SR        000000000000 FUJITSU TEN (THAILAN160B45U0047047                                                                                                                              *          20160916IMF1609169.TXT
MDEUG9247520201609                D89828070100PT4U20160922000030SPEAKER ASM                   M IMCTM S0FL05 FTTL  07070IMCT  S0 PTB  00004                    0230 SR        000000000000 FUJITSU TEN (THAILAN160B46U0108108                                                                                                                              *          20160916IMF1609169.TXT
MDEUG9247521201609                D89828070100PT4U20160922000030SPEAKER ASM                   M IMCTM S0FL05 FTTL  07070IMCT  S0 PTB  00004                    0400 SR        000000000000 FUJITSU TEN (THAILAN160B48U0362362                                                                                                                              *          20160916IMF1609169.TXT
MDEUG9247522201609                D89828070100PT4U20160922000030SPEAKER ASM                   M IMCTM S0FL05 FTTL  07070IMCT  S0 PTB  00004                    0900 SR        000000000000 FUJITSU TEN (THAILAN160B45U0048048                                                                                                                              *          20160916IMF1609169.TXT
MDEUG9247523201609                D89828070100PT4U20160922000030SPEAKER ASM                   M IMCTM S0FL05 FTTL  07070IMCT  S0 PTB  00004                    1300 SR        000000000000 FUJITSU TEN (THAILAN160B48U0363363                                                                                                                              *          20160916IMF1609169.TXT
MDEUG9247524201609                D89828070100PT4U20160922000030SPEAKER ASM                   M IMCTM S0FL05 FTTL  07070IMCT  S0 PTB  00004                    1600 SR        000000000000 FUJITSU TEN (THAILAN160B48U0364364                                                                                                                              *          20160916IMF1609169.TXT
MDEUG9247525201609                D89828070200PV4U20160921000030SPEAKER ASM                   M IMCTM S0FR05 FTTL  07070IMCT  S0 PTB  00005                    2230 SR        000000000000 FUJITSU TEN (THAILAN160B45U0047047                                                                                                                              *          20160916IMF1609169.TXT
MDEUG9247526201609                D89828070200PV4U20160922000030SPEAKER ASM                   M IMCTM S0FR05 FTTL  07070IMCT  S0 PTB  00005                    0230 SR        000000000000 FUJITSU TEN (THAILAN160B46U0108108                                                                                                                              *          20160916IMF1609169.TXT
MDEUG9247527201609                D89828070200PV4U20160922000030SPEAKER ASM                   M IMCTM S0FR05 FTTL  07070IMCT  S0 PTB  00005                    0400 SR        000000000000 FUJITSU TEN (THAILAN160B48U0362362                                                                                                                              *          20160916IMF1609169.TXT
MDEUG9247528201609                D89828070200PV4U20160922000030SPEAKER ASM                   M IMCTM S0FR05 FTTL  07070IMCT  S0 PTB  00005                    0900 SR        000000000000 FUJITSU TEN (THAILAN160B45U0048048                                                                                                                              *          20160916IMF1609169.TXT
MDEUG9247529201609                D89828070200PV4U20160922000030SPEAKER ASM                   M IMCTM S0FR05 FTTL  07070IMCT  S0 PTB  00005                    1300 SR        000000000000 FUJITSU TEN (THAILAN160B48U0363363                                                                                                                              *          20160916IMF1609169.TXT
MDEUG9247530201609                D89828070200PV4U20160922000030SPEAKER ASM                   M IMCTM S0FR05 FTTL  07070IMCT  S0 PTB  00005                    1600 SR        000000000000 FUJITSU TEN (THAILAN160B48U0364364                                                                                                                              *          20160916IMF1609169.TXT
MDEUG9247531201609                D89828070300PT4U20160921000030SPEAKER ASM                   M IMCTM S9TS02 FTTL  07070IMCT  S9 PTB  00015                    2230 SR        000000000000 FUJITSU TEN (THAILAN160B45U0047047                                                                                                                              *          20160916IMF1609169.TXT
MDEUG9247532201609                D89828070300PT4U20160922000030SPEAKER ASM                   M IMCTM S9TS02 FTTL  07070IMCT  S9 PTB  00015                    0230 SR        000000000000 FUJITSU TEN (THAILAN160B46U0108108                                                                                                                              *          20160916IMF1609169.TXT
MDEUG9247533201609                D89828070300PT4U20160922000030SPEAKER ASM                   M IMCTM S9TS02 FTTL  07070IMCT  S9 PTB  00015                    0400 SR        000000000000 FUJITSU TEN (THAILAN160B48U0362362                                                                                                                              *          20160916IMF1609169.TXT
MDEUG9247534201609                D89828070300PT4U20160922000030SPEAKER ASM                   M IMCTM S9TS02 FTTL  07070IMCT  S9 PTB  00015                    0900 SR        000000000000 FUJITSU TEN (THAILAN160B45U0048048                                                                                                                              *          20160916IMF1609169.TXT
MDEUG9247535201609                D89828070300PT4U20160922000030SPEAKER ASM                   M IMCTM S9TS02 FTTL  07070IMCT  S9 PTB  00015                    1300 SR        000000000000 FUJITSU TEN (THAILAN160B48U0363363                                                                                                                              *          20160916IMF1609169.TXT
MDEUG9247536201609                D89828070300PT4U20160922000030SPEAKER ASM                   M IMCTM S9TS02 FTTL  07070IMCT  S9 PTB  00015                    1600 SR        000000000000 FUJITSU TEN (THAILAN160B48U0364364                                                                                                                              *          20160916IMF1609169.TXT
