REC2016092620160926ISUZU                              34     
MDDDG9250249201609                D89821984430PT1D20160929000030RADIO;AM/FM,CD                M IMCTM S5NC06 FTTL  07070IMCT  S5 PTB  00005                    2230 SR        000000000000 FUJITSU TEN (THAILAN170KNCL0013013                                                                                                                              *          20160926IMF1609265.TXT
MDDDG9250250201609                D89821984430PT1D20160930000030RADIO;AM/FM,CD                M IMCTM S5NC06 FTTL  07070IMCT  S5 PTB  00005                    1300 SR        000000000000 FUJITSU TEN (THAILAN170KNCL0014014                                                                                                                              *          20160926IMF1609265.TXT
MDDDG9250251201609                D89828070100PV1D20160929000120SPEAKER ASM                   M IMCTM S5MA12 FTTL  07070IMCT  S5 PTB  00004                    2230 SR        000000000000 FUJITSU TEN (THAILAN170KNCL0013013170KRQL0001001                                                                                                                *          20160926IMF1609265.TXT
MDDDG9250252201609                D89828070100PV1D20160930000060SPEAKER ASM                   M IMCTM S5MA12 FTTL  07070IMCT  S5 PTB  00004                    0230 SR        000000000000 FUJITSU TEN (THAILAN170KREL0002002                                                                                                                              *          20160926IMF1609265.TXT
MDDDG9250253201609                D89828070100PV1D20160930000180SPEAKER ASM                   M IMCTM S5MA12 FTTL  07070IMCT  S5 PTB  00004                    1300 SR        000000000000 FUJITSU TEN (THAILAN170KNCL0014014170KPFL0001001170KREL0003003                                                                                                  *          20160926IMF1609265.TXT
MDDDG9250254201609                D89828070100PV4D20160930000060SPEAKER ASM                   M IMCTM S0FL05 FTTL  07070IMCT  S0 PTB  00004                    1300 SR        000000000000 FUJITSU TEN (THAILAN170KREU0001001                                                                                                                              *          20160926IMF1609265.TXT
MDDDG9250255201609                D89828070200PV1D20160929000060SPEAKER ASM                   M IMCTM S5MA13 FTTL  07070IMCT  S5 PTB  00005                    2230 SR        000000000000 FUJITSU TEN (THAILAN170KRQL0001001                                                                                                                              *          20160926IMF1609265.TXT
MDDDG9250256201609                D89828070200PV1D20160930000060SPEAKER ASM                   M IMCTM S5MA13 FTTL  07070IMCT  S5 PTB  00005                    0230 SR        000000000000 FUJITSU TEN (THAILAN170KREL0002002                                                                                                                              *          20160926IMF1609265.TXT
MDDDG9250257201609                D89828070200PV1D20160930000060SPEAKER ASM                   M IMCTM S5MA13 FTTL  07070IMCT  S5 PTB  00005                    1300 SR        000000000000 FUJITSU TEN (THAILAN170KREL0003003                                                                                                                              *          20160926IMF1609265.TXT
MDDDG9250258201609                D89828070200PV4D20160930000060SPEAKER ASM                   M IMCTM S0FR05 FTTL  07070IMCT  S0 PTB  00005                    1300 SR        000000000000 FUJITSU TEN (THAILAN170KREU0001001                                                                                                                              *          20160926IMF1609265.TXT
MDDDG9250259201609                D89828070300PT1D20160929000060SPEAKER ASM                   M IMCTM S5NB042FTTL  07070IMCT  S5 PTB  00015                    2230 SR        000000000000 FUJITSU TEN (THAILAN170KRQL0001001                                                                                                                              *          20160926IMF1609265.TXT
MDDDG9250260201609                D89828070300PT1D20160930000060SPEAKER ASM                   M IMCTM S5NB042FTTL  07070IMCT  S5 PTB  00015                    0230 SR        000000000000 FUJITSU TEN (THAILAN170KREL0002002                                                                                                                              *          20160926IMF1609265.TXT
MDDDG9250261201609                D89828070300PT1D20160930000120SPEAKER ASM                   M IMCTM S5NB042FTTL  07070IMCT  S5 PTB  00015                    1300 SR        000000000000 FUJITSU TEN (THAILAN170KPFL0001001170KREL0003003                                                                                                                *          20160926IMF1609265.TXT
MDDDG9250262201609                D89828070300PT4D20160930000060SPEAKER ASM                   M IMCTM S9TS02 FTTL  07070IMCT  S9 PTB  00015                    1300 SR        000000000000 FUJITSU TEN (THAILAN170KREU0001001                                                                                                                              *          20160926IMF1609265.TXT
MDDDG9250263201609                D89831228300PT1D20160930000030RADIO;AM/FM,CD                M IMCTM S5NC06 FTTL  07070IMCT  S5 CPB  00003                    1300 SR        000000000000 FUJITSU TEN (THAILAN170KPFL0001001                                                                                                                              *          20160926IMF1609265.TXT
MDDDG9250264201609                D89831228400PT1D20160930000030RADIO;AM/FM,CD                M IMCTM S5NC06 FTTL  07070IMCT  S5 CPB  00003                    0230 SR        000000000000 FUJITSU TEN (THAILAN170KREL0002002                                                                                                                              *          20160926IMF1609265.TXT
MDDDG9250265201609                D89831228400PT1D20160930000030RADIO;AM/FM,CD                M IMCTM S5NC06 FTTL  07070IMCT  S5 CPB  00003                    1300 SR        000000000000 FUJITSU TEN (THAILAN170KREL0003003                                                                                                                              *          20160926IMF1609265.TXT
MDDDG9250266201609                D89831228400PT4D20160930000030RADIO;AM/FM,CD                M IMCTM S9CO001FTTL  07070IMCT  S9 CPB  00003                    1300 SR        000000000000 FUJITSU TEN (THAILAN170KREU0001001                                                                                                                              *          20160926IMF1609265.TXT
MDEDG9327902201609                D89828070100PV1D20160929000030SPEAKER ASM                   M IMCTM S5MA12 FTTL  07070IMCT  S5 PTB  00004                    2230 SR        000000000000 FUJITSU TEN (THAILAN16075HL0079079                                                                                                                              *          20160926IMF1609265.TXT
MDEDG9327903201609                D89828070100PV1D20160930000030SPEAKER ASM                   M IMCTM S5MA12 FTTL  07070IMCT  S5 PTB  00004                    0230 SR        000000000000 FUJITSU TEN (THAILAN16075HL0080080                                                                                                                              *          20160926IMF1609265.TXT
MDEDG9327904201609                D89828070100PV1D20160930000090SPEAKER ASM                   M IMCTM S5MA12 FTTL  07070IMCT  S5 PTB  00004                    0400 SR        000000000000 FUJITSU TEN (THAILAN16034JL000300316075HL0081082                                                                                                                *          20160926IMF1609265.TXT
MDEDG9327905201609                D89828070100PV1D20160930000120SPEAKER ASM                   M IMCTM S5MA12 FTTL  07070IMCT  S5 PTB  00004                    0900 SR        000000000000 FUJITSU TEN (THAILAN16034JL000400416075HL0083085                                                                                                                *          20160926IMF1609265.TXT
MDEUG9273246201609                D89828070100PT4U20160930000030SPEAKER ASM                   M IMCTM S0FL05 FTTL  07070IMCT  S0 PTB  00004                    0230 SR        000000000000 FUJITSU TEN (THAILAN160B46U0119119                                                                                                                              *          20160926IMF1609265.TXT
MDEUG9273247201609                D89828070100PT4U20160930000030SPEAKER ASM                   M IMCTM S0FL05 FTTL  07070IMCT  S0 PTB  00004                    0400 SR        000000000000 FUJITSU TEN (THAILAN160B48U0374374                                                                                                                              *          20160926IMF1609265.TXT
MDEUG9273248201609                D89828070100PT4U20160930000030SPEAKER ASM                   M IMCTM S0FL05 FTTL  07070IMCT  S0 PTB  00004                    0900 SR        000000000000 FUJITSU TEN (THAILAN160B46U0120120                                                                                                                              *          20160926IMF1609265.TXT
MDEUG9273249201609                D89828070100PT4U20160930000030SPEAKER ASM                   M IMCTM S0FL05 FTTL  07070IMCT  S0 PTB  00004                    1600 SR        000000000000 FUJITSU TEN (THAILAN160B48U0375375                                                                                                                              *          20160926IMF1609265.TXT
MDEUG9273250201609                D89828070200PV4U20160930000030SPEAKER ASM                   M IMCTM S0FR05 FTTL  07070IMCT  S0 PTB  00005                    0230 SR        000000000000 FUJITSU TEN (THAILAN160B46U0119119                                                                                                                              *          20160926IMF1609265.TXT
MDEUG9273251201609                D89828070200PV4U20160930000030SPEAKER ASM                   M IMCTM S0FR05 FTTL  07070IMCT  S0 PTB  00005                    0400 SR        000000000000 FUJITSU TEN (THAILAN160B48U0374374                                                                                                                              *          20160926IMF1609265.TXT
MDEUG9273252201609                D89828070200PV4U20160930000030SPEAKER ASM                   M IMCTM S0FR05 FTTL  07070IMCT  S0 PTB  00005                    0900 SR        000000000000 FUJITSU TEN (THAILAN160B46U0120120                                                                                                                              *          20160926IMF1609265.TXT
MDEUG9273253201609                D89828070200PV4U20160930000030SPEAKER ASM                   M IMCTM S0FR05 FTTL  07070IMCT  S0 PTB  00005                    1600 SR        000000000000 FUJITSU TEN (THAILAN160B48U0375375                                                                                                                              *          20160926IMF1609265.TXT
MDEUG9273254201609                D89828070300PT4U20160930000030SPEAKER ASM                   M IMCTM S9TS02 FTTL  07070IMCT  S9 PTB  00015                    0230 SR        000000000000 FUJITSU TEN (THAILAN160B46U0119119                                                                                                                              *          20160926IMF1609265.TXT
MDEUG9273255201609                D89828070300PT4U20160930000030SPEAKER ASM                   M IMCTM S9TS02 FTTL  07070IMCT  S9 PTB  00015                    0400 SR        000000000000 FUJITSU TEN (THAILAN160B48U0374374                                                                                                                              *          20160926IMF1609265.TXT
MDEUG9273256201609                D89828070300PT4U20160930000030SPEAKER ASM                   M IMCTM S9TS02 FTTL  07070IMCT  S9 PTB  00015                    0900 SR        000000000000 FUJITSU TEN (THAILAN160B46U0120120                                                                                                                              *          20160926IMF1609265.TXT
MDEUG9273257201609                D89828070300PT4U20160930000030SPEAKER ASM                   M IMCTM S9TS02 FTTL  07070IMCT  S9 PTB  00015                    1600 SR        000000000000 FUJITSU TEN (THAILAN160B48U0375375                                                                                                                              *          20160926IMF1609265.TXT
