REC2016091220160912ISUZU                              4      
MDEBG9T01254201609                D89828070100PT4B20160915000002SPEAKER ASM                   M IMCTM S7FL05 FTTL  07070IMCT  S7 PTB  00004                    2230 SR        000000000000 FUJITSU TEN (THAILAN160B94R0033   160B94R0033   Y160902515    Y160902515    000000                                                                              *R         20160912RDF1609122.TXT
MDEBG9T01255201609                D89828070200PV4B20160915000030SPEAKER ASM                   M IMCTM S7TS02 FTTL  07070IMCT  S7 PTB  00005                    2100 SR        000000000000 FUJITSU TEN (THAILAN160B46R0016   160B94R0033   Y160902501    Y160902515    000000                                                                              *R         20160912RDF1609122.TXT
MDEBG9T01256201609                D89828070300PT4B20160915000030SPEAKER ASM                   M IMCTM S7TS02 FTTL  07070IMCT  S7 PTB  00015                    2100 SR        000000000000 FUJITSU TEN (THAILAN160B46R0016   160B94R0033   Y160902501    Y160902515    000000                                                                              *R         20160912RDF1609122.TXT
MDEBG9201638201609                D89828070100PT4B20160915000028SPEAKER ASM                   M IMCTM S7FL05 FTTL  07070IMCT  S7 PTB  00004                    2100 SR        000000000000 FUJITSU TEN (THAILAN160B46R0016   160B94R0032   Y160902501    Y160902514    000000                                                                              *R         20160912RDF1609122.TXT
