REC2016090820160909ISUZU                              43     
MDDDG9210345201609                D89821984430PT1D20160912000030RADIO;AM/FM,CD                M IMCTM S5NC06 FTTL  07070IMCT  S5 PTB  00005                    2230 SR        000000000000 FUJITSU TEN (THAILAN170KNCL0003003                                                                                                                              *          20160908IMF1609087.TXT
MDDDG9210346201609                D89821984430PT1D20160913000030RADIO;AM/FM,CD                M IMCTM S5NC06 FTTL  07070IMCT  S5 PTB  00005                    0400 SR        000000000000 FUJITSU TEN (THAILAN170KNFL0002002                                                                                                                              *          20160908IMF1609087.TXT
MDDDG9210347201609                D89821984430PT1D20160913000030RADIO;AM/FM,CD                M IMCTM S5NC06 FTTL  07070IMCT  S5 PTB  00005                    0900 SR        000000000000 FUJITSU TEN (THAILAN170KNDL0003003                                                                                                                              *          20160908IMF1609087.TXT
MDDDG9210348201609                D89828070100PV1D20160912000060SPEAKER ASM                   M IMCTM S5MA12 FTTL  07070IMCT  S5 PTB  00004                    2230 SR        000000000000 FUJITSU TEN (THAILAN170KNCL0003003                                                                                                                              *          20160908IMF1609087.TXT
MDDDG9210349201609                D89828070100PV1D20160913000060SPEAKER ASM                   M IMCTM S5MA12 FTTL  07070IMCT  S5 PTB  00004                    0400 SR        000000000000 FUJITSU TEN (THAILAN170KNFL0002002                                                                                                                              *          20160908IMF1609087.TXT
MDDDG9210350201609                D89828070100PV1D20160913000060SPEAKER ASM                   M IMCTM S5MA12 FTTL  07070IMCT  S5 PTB  00004                    0900 SR        000000000000 FUJITSU TEN (THAILAN170KNDL0003003                                                                                                                              *          20160908IMF1609087.TXT
MDEDG9242395201609                D89828070100PV1D20160912000030SPEAKER ASM                   M IMCTM S5MA12 FTTL  07070IMCT  S5 PTB  00004                    2100 SR        000000000000 FUJITSU TEN (THAILAN16072HL0035035                                                                                                                              *          20160908IMF1609087.TXT
MDEDG9242396201609                D89828070100PV1D20160912000120SPEAKER ASM                   M IMCTM S5MA12 FTTL  07070IMCT  S5 PTB  00004                    2230 SR        000000000000 FUJITSU TEN (THAILAN16007JL005705816009JL002902916075HL0037037                                                                                                  *          20160908IMF1609087.TXT
MDEDG9242397201609                D89828070100PV1D20160913000060SPEAKER ASM                   M IMCTM S5MA12 FTTL  07070IMCT  S5 PTB  00004                    0230 SR        000000000000 FUJITSU TEN (THAILAN16062HL000300316075HL0038038                                                                                                                *          20160908IMF1609087.TXT
MDEDG9242398201609                D89828070100PV1D20160913000090SPEAKER ASM                   M IMCTM S5MA12 FTTL  07070IMCT  S5 PTB  00004                    0400 SR        000000000000 FUJITSU TEN (THAILAN16062HL000400416072LL0007008                                                                                                                *          20160908IMF1609087.TXT
MDEDG9242399201609                D89828070100PV1D20160913000090SPEAKER ASM                   M IMCTM S5MA12 FTTL  07070IMCT  S5 PTB  00004                    0900 SR        000000000000 FUJITSU TEN (THAILAN16007JL005906016075HL0039039                                                                                                                *          20160908IMF1609087.TXT
MDEDG9242400201609                D89828070100PV1D20160913000120SPEAKER ASM                   M IMCTM S5MA12 FTTL  07070IMCT  S5 PTB  00004                    1300 SR        000000000000 FUJITSU TEN (THAILAN16051HL001501616057HL000900916072HL0036036                                                                                                  *          20160908IMF1609087.TXT
MDEDG9242401201609                D89828070100PV1D20160913000030SPEAKER ASM                   M IMCTM S5MA12 FTTL  07070IMCT  S5 PTB  00004                    1600 SR        000000000000 FUJITSU TEN (THAILAN16072HL0037037                                                                                                                              *          20160908IMF1609087.TXT
MDEDG9242402201609                D89828070100PV4D20160912000030SPEAKER ASM                   M IMCTM S0FL05 FTTL  07070IMCT  S0 PTB  00004                    2230 SR        000000000000 FUJITSU TEN (THAILAN16075HU0023023                                                                                                                              *          20160908IMF1609087.TXT
MDEDG9242403201609                D89828070100PV4D20160913000030SPEAKER ASM                   M IMCTM S0FL05 FTTL  07070IMCT  S0 PTB  00004                    1300 SR        000000000000 FUJITSU TEN (THAILAN16075HU0024024                                                                                                                              *          20160908IMF1609087.TXT
MDEDG9242404201609                D89828070200PV1D20160912000030SPEAKER ASM                   M IMCTM S5MA13 FTTL  07070IMCT  S5 PTB  00005                    2100 SR        000000000000 FUJITSU TEN (THAILAN16072HL0035035                                                                                                                              *          20160908IMF1609087.TXT
MDEDG9242405201609                D89828070200PV1D20160913000030SPEAKER ASM                   M IMCTM S5MA13 FTTL  07070IMCT  S5 PTB  00005                    0230 SR        000000000000 FUJITSU TEN (THAILAN16062HL0003003                                                                                                                              *          20160908IMF1609087.TXT
MDEDG9242406201609                D89828070200PV1D20160913000030SPEAKER ASM                   M IMCTM S5MA13 FTTL  07070IMCT  S5 PTB  00005                    0400 SR        000000000000 FUJITSU TEN (THAILAN16062HL0004004                                                                                                                              *          20160908IMF1609087.TXT
MDEDG9242407201609                D89828070200PV1D20160913000090SPEAKER ASM                   M IMCTM S5MA13 FTTL  07070IMCT  S5 PTB  00005                    1300 SR        000000000000 FUJITSU TEN (THAILAN16051HL001501616072HL0036036                                                                                                                *          20160908IMF1609087.TXT
MDEDG9242408201609                D89828070200PV1D20160913000030SPEAKER ASM                   M IMCTM S5MA13 FTTL  07070IMCT  S5 PTB  00005                    1600 SR        000000000000 FUJITSU TEN (THAILAN16072HL0037037                                                                                                                              *          20160908IMF1609087.TXT
MDEDG9242409201609                D89828070300PT1D20160912000030SPEAKER ASM                   M IMCTM S5NB042FTTL  07070IMCT  S5 PTB  00015                    2100 SR        000000000000 FUJITSU TEN (THAILAN16072HL0035035                                                                                                                              *          20160908IMF1609087.TXT
MDEDG9242410201609                D89828070300PT1D20160913000030SPEAKER ASM                   M IMCTM S5NB042FTTL  07070IMCT  S5 PTB  00015                    0230 SR        000000000000 FUJITSU TEN (THAILAN16062HL0003003                                                                                                                              *          20160908IMF1609087.TXT
MDEDG9242411201609                D89828070300PT1D20160913000030SPEAKER ASM                   M IMCTM S5NB042FTTL  07070IMCT  S5 PTB  00015                    0400 SR        000000000000 FUJITSU TEN (THAILAN16062HL0004004                                                                                                                              *          20160908IMF1609087.TXT
MDEDG9242412201609                D89828070300PT1D20160913000120SPEAKER ASM                   M IMCTM S5NB042FTTL  07070IMCT  S5 PTB  00015                    1300 SR        000000000000 FUJITSU TEN (THAILAN16051HL001501616057HL000900916072HL0036036                                                                                                  *          20160908IMF1609087.TXT
MDEDG9242413201609                D89828070300PT1D20160913000030SPEAKER ASM                   M IMCTM S5NB042FTTL  07070IMCT  S5 PTB  00015                    1600 SR        000000000000 FUJITSU TEN (THAILAN16072HL0037037                                                                                                                              *          20160908IMF1609087.TXT
MDEDG9242414201609                D89831228500PT1D20160913000015RADIO;AM/FM,CD                M IMCTM S5NC06 FTTL  07070IMCT  S5 PTB  00003                    1300 SR        000000000000 FUJITSU TEN (THAILAN16057HL0009009                                                                                                                              *          20160908IMF1609087.TXT
MDEDG9242415201609                D89831228600PT1D20160913000015RADIO;AM/FM,CD                M IMCTM S5NC06 FTTL  07070IMCT  S5 PTB  00003                    0230 SR        000000000000 FUJITSU TEN (THAILAN16062HL0003003                                                                                                                              *          20160908IMF1609087.TXT
MDEDG9242416201609                D89831228600PT1D20160913000015RADIO;AM/FM,CD                M IMCTM S5NC06 FTTL  07070IMCT  S5 PTB  00003                    0400 SR        000000000000 FUJITSU TEN (THAILAN16062HL0004004                                                                                                                              *          20160908IMF1609087.TXT
MDEUG9223056201609                D89828070100PT4U20160912000060SPEAKER ASM                   M IMCTM S0FL05 FTTL  07070IMCT  S0 PTB  00004                    2230 SR        000000000000 FUJITSU TEN (THAILAN160B46U0102102160B48U0330330                                                                                                                *          20160908IMF1609087.TXT
MDEUG9223057201609                D89828070100PT4U20160913000030SPEAKER ASM                   M IMCTM S0FL05 FTTL  07070IMCT  S0 PTB  00004                    0230 SR        000000000000 FUJITSU TEN (THAILAN160B48U0331331                                                                                                                              *          20160908IMF1609087.TXT
MDEUG9223058201609                D89828070100PT4U20160913000030SPEAKER ASM                   M IMCTM S0FL05 FTTL  07070IMCT  S0 PTB  00004                    0400 SR        000000000000 FUJITSU TEN (THAILAN160B48U0332332                                                                                                                              *          20160908IMF1609087.TXT
MDEUG9223059201609                D89828070100PT4U20160913000060SPEAKER ASM                   M IMCTM S0FL05 FTTL  07070IMCT  S0 PTB  00004                    0900 SR        000000000000 FUJITSU TEN (THAILAN160B48U0333334                                                                                                                              *          20160908IMF1609087.TXT
MDEUG9223060201609                D89828070100PT4U20160913000030SPEAKER ASM                   M IMCTM S0FL05 FTTL  07070IMCT  S0 PTB  00004                    1300 SR        000000000000 FUJITSU TEN (THAILAN160B48U0335335                                                                                                                              *          20160908IMF1609087.TXT
MDEUG9223061201609                D89828070200PV4U20160912000060SPEAKER ASM                   M IMCTM S0FR05 FTTL  07070IMCT  S0 PTB  00005                    2230 SR        000000000000 FUJITSU TEN (THAILAN160B46U0102102160B48U0330330                                                                                                                *          20160908IMF1609087.TXT
MDEUG9223062201609                D89828070200PV4U20160913000030SPEAKER ASM                   M IMCTM S0FR05 FTTL  07070IMCT  S0 PTB  00005                    0230 SR        000000000000 FUJITSU TEN (THAILAN160B48U0331331                                                                                                                              *          20160908IMF1609087.TXT
MDEUG9223063201609                D89828070200PV4U20160913000030SPEAKER ASM                   M IMCTM S0FR05 FTTL  07070IMCT  S0 PTB  00005                    0400 SR        000000000000 FUJITSU TEN (THAILAN160B48U0332332                                                                                                                              *          20160908IMF1609087.TXT
MDEUG9223064201609                D89828070200PV4U20160913000060SPEAKER ASM                   M IMCTM S0FR05 FTTL  07070IMCT  S0 PTB  00005                    0900 SR        000000000000 FUJITSU TEN (THAILAN160B48U0333334                                                                                                                              *          20160908IMF1609087.TXT
MDEUG9223065201609                D89828070200PV4U20160913000030SPEAKER ASM                   M IMCTM S0FR05 FTTL  07070IMCT  S0 PTB  00005                    1300 SR        000000000000 FUJITSU TEN (THAILAN160B48U0335335                                                                                                                              *          20160908IMF1609087.TXT
MDEUG9223066201609                D89828070300PT4U20160912000060SPEAKER ASM                   M IMCTM S9TS02 FTTL  07070IMCT  S9 PTB  00015                    2230 SR        000000000000 FUJITSU TEN (THAILAN160B46U0102102160B48U0330330                                                                                                                *          20160908IMF1609087.TXT
MDEUG9223067201609                D89828070300PT4U20160913000030SPEAKER ASM                   M IMCTM S9TS02 FTTL  07070IMCT  S9 PTB  00015                    0230 SR        000000000000 FUJITSU TEN (THAILAN160B48U0331331                                                                                                                              *          20160908IMF1609087.TXT
MDEUG9223068201609                D89828070300PT4U20160913000030SPEAKER ASM                   M IMCTM S9TS02 FTTL  07070IMCT  S9 PTB  00015                    0400 SR        000000000000 FUJITSU TEN (THAILAN160B48U0332332                                                                                                                              *          20160908IMF1609087.TXT
MDEUG9223069201609                D89828070300PT4U20160913000060SPEAKER ASM                   M IMCTM S9TS02 FTTL  07070IMCT  S9 PTB  00015                    0900 SR        000000000000 FUJITSU TEN (THAILAN160B48U0333334                                                                                                                              *          20160908IMF1609087.TXT
MDEUG9223070201609                D89828070300PT4U20160913000030SPEAKER ASM                   M IMCTM S9TS02 FTTL  07070IMCT  S9 PTB  00015                    1300 SR        000000000000 FUJITSU TEN (THAILAN160B48U0335335                                                                                                                              *          20160908IMF1609087.TXT
