REC2016092020160921ISUZU                              35     
MDDDG9233839201609                D89821984430PT1D20160923000030RADIO;AM/FM,CD                M IMCTM S5NC06 FTTL  07070IMCT  S5 PTB  00005                    2100 SR        000000000000 FUJITSU TEN (THAILAN170KNCL0010010                                                                                                                              *          20160920IMF1609205.TXT
MDDDG9233840201609                D89821984430PT1D20160926000030RADIO;AM/FM,CD                M IMCTM S5NC06 FTTL  07070IMCT  S5 PTB  00005                    0900 SR        000000000000 FUJITSU TEN (THAILAN170KNCL0011011                                                                                                                              *          20160920IMF1609205.TXT
MDDDG9233841201609                D89821984430PT1D20160926000030RADIO;AM/FM,CD                M IMCTM S5NC06 FTTL  07070IMCT  S5 PTB  00005                    2100 SR        000000000000 FUJITSU TEN (THAILAN170KNEL0004004                                                                                                                              *          20160920IMF1609205.TXT
MDDDG9233842201609                D89828070100PV1D20160923000060SPEAKER ASM                   M IMCTM S5MA12 FTTL  07070IMCT  S5 PTB  00004                    2100 SR        000000000000 FUJITSU TEN (THAILAN170KNCL0010010                                                                                                                              *          20160920IMF1609205.TXT
MDDDG9233843201609                D89828070100PV1D20160924000060SPEAKER ASM                   M IMCTM S5MA12 FTTL  07070IMCT  S5 PTB  00004                    0400 SR        000000000000 FUJITSU TEN (THAILAN170KRRL0005005                                                                                                                              *          20160920IMF1609205.TXT
MDDDG9233844201609                D89828070100PV1D20160926000060SPEAKER ASM                   M IMCTM S5MA12 FTTL  07070IMCT  S5 PTB  00004                    0900 SR        000000000000 FUJITSU TEN (THAILAN170KNCL0011011                                                                                                                              *          20160920IMF1609205.TXT
MDDDG9233845201609                D89828070100PV1D20160926000060SPEAKER ASM                   M IMCTM S5MA12 FTTL  07070IMCT  S5 PTB  00004                    1300 SR        000000000000 FUJITSU TEN (THAILAN170KRSL0007007                                                                                                                              *          20160920IMF1609205.TXT
MDDDG9233846201609                D89828070100PV1D20160926000060SPEAKER ASM                   M IMCTM S5MA12 FTTL  07070IMCT  S5 PTB  00004                    2100 SR        000000000000 FUJITSU TEN (THAILAN170KNEL0004004                                                                                                                              *          20160920IMF1609205.TXT
MDDDG9233847201609                D89828070200PV1D20160924000060SPEAKER ASM                   M IMCTM S5MA13 FTTL  07070IMCT  S5 PTB  00005                    0400 SR        000000000000 FUJITSU TEN (THAILAN170KRRL0005005                                                                                                                              *          20160920IMF1609205.TXT
MDDDG9233848201609                D89828070200PV1D20160926000060SPEAKER ASM                   M IMCTM S5MA13 FTTL  07070IMCT  S5 PTB  00005                    1300 SR        000000000000 FUJITSU TEN (THAILAN170KRSL0007007                                                                                                                              *          20160920IMF1609205.TXT
MDDDG9233849201609                D89828070300PT1D20160924000060SPEAKER ASM                   M IMCTM S5NB042FTTL  07070IMCT  S5 PTB  00015                    0400 SR        000000000000 FUJITSU TEN (THAILAN170KRRL0005005                                                                                                                              *          20160920IMF1609205.TXT
MDDDG9233850201609                D89828070300PT1D20160926000060SPEAKER ASM                   M IMCTM S5NB042FTTL  07070IMCT  S5 PTB  00015                    1300 SR        000000000000 FUJITSU TEN (THAILAN170KRSL0007007                                                                                                                              *          20160920IMF1609205.TXT
MDEDG9304393201609                D89828070100PV1D20160923000150SPEAKER ASM                   M IMCTM S5MA12 FTTL  07070IMCT  S5 PTB  00004                    2230 SR        000000000000 FUJITSU TEN (THAILAN16007JL009609616055HL000900916075HL005505616081HL0110110                                                                                    *          20160920IMF1609205.TXT
MDEDG9304394201609                D89828070100PV1D20160924000060SPEAKER ASM                   M IMCTM S5MA12 FTTL  07070IMCT  S5 PTB  00004                    0230 SR        000000000000 FUJITSU TEN (THAILAN16009JL003403416081HL0111111                                                                                                                *          20160920IMF1609205.TXT
MDEDG9304395201609                D89828070100PV1D20160924000030SPEAKER ASM                   M IMCTM S5MA12 FTTL  07070IMCT  S5 PTB  00004                    0400 SR        000000000000 FUJITSU TEN (THAILAN16007JL0097097                                                                                                                              *          20160920IMF1609205.TXT
MDEDG9304396201609                D89828070100PV1D20160926000060SPEAKER ASM                   M IMCTM S5MA12 FTTL  07070IMCT  S5 PTB  00004                    0900 SR        000000000000 FUJITSU TEN (THAILAN16007JL009809816081HL0112112                                                                                                                *          20160920IMF1609205.TXT
MDEDG9304397201609                D89828070100PV1D20160926000090SPEAKER ASM                   M IMCTM S5MA12 FTTL  07070IMCT  S5 PTB  00004                    1300 SR        000000000000 FUJITSU TEN (THAILAN16007JL009909916032JL002002016075HL0057057                                                                                                  *          20160920IMF1609205.TXT
MDEDG9304398201609                D89828070100PV1D20160926000030SPEAKER ASM                   M IMCTM S5MA12 FTTL  07070IMCT  S5 PTB  00004                    1600 SR        000000000000 FUJITSU TEN (THAILAN16081JL0004004                                                                                                                              *          20160920IMF1609205.TXT
MDEDG9304399201609                D89828070300PT1D20160923000030SPEAKER ASM                   M IMCTM S5NB042FTTL  07070IMCT  S5 PTB  00015                    2230 SR        000000000000 FUJITSU TEN (THAILAN16055HL0009009                                                                                                                              *          20160920IMF1609205.TXT
MDEDG9304400201609                D89831228600PT1D20160923000015RADIO;AM/FM,CD                M IMCTM S5NC06 FTTL  07070IMCT  S5 PTB  00003                    2230 SR        000000000000 FUJITSU TEN (THAILAN16055HL0009009                                                                                                                              *          20160920IMF1609205.TXT
MDEUG9254829201609                D89828070100PT4U20160923000030SPEAKER ASM                   M IMCTM S0FL05 FTTL  07070IMCT  S0 PTB  00004                    2230 SR        000000000000 FUJITSU TEN (THAILAN160B46U0110110                                                                                                                              *          20160920IMF1609205.TXT
MDEUG9254830201609                D89828070100PT4U20160924000060SPEAKER ASM                   M IMCTM S0FL05 FTTL  07070IMCT  S0 PTB  00004                    0230 SR        000000000000 FUJITSU TEN (THAILAN160B48U0368368160C01U0010010                                                                                                                *          20160920IMF1609205.TXT
MDEUG9254831201609                D89828070100PT4U20160926000030SPEAKER ASM                   M IMCTM S0FL05 FTTL  07070IMCT  S0 PTB  00004                    0900 SR        000000000000 FUJITSU TEN (THAILAN160B46U0111111                                                                                                                              *          20160920IMF1609205.TXT
MDEUG9254832201609                D89828070100PT4U20160926000090SPEAKER ASM                   M IMCTM S0FL05 FTTL  07070IMCT  S0 PTB  00004                    1300 SR        000000000000 FUJITSU TEN (THAILAN160B46U0112112160B48U0369369160B95U0013013                                                                                                  *          20160920IMF1609205.TXT
MDEUG9254833201609                D89828070100PT4U20160926000030SPEAKER ASM                   M IMCTM S0FL05 FTTL  07070IMCT  S0 PTB  00004                    2100 SR        000000000000 FUJITSU TEN (THAILAN160B45U0050050                                                                                                                              *          20160920IMF1609205.TXT
MDEUG9254834201609                D89828070200PV4U20160923000030SPEAKER ASM                   M IMCTM S0FR05 FTTL  07070IMCT  S0 PTB  00005                    2230 SR        000000000000 FUJITSU TEN (THAILAN160B46U0110110                                                                                                                              *          20160920IMF1609205.TXT
MDEUG9254835201609                D89828070200PV4U20160924000060SPEAKER ASM                   M IMCTM S0FR05 FTTL  07070IMCT  S0 PTB  00005                    0230 SR        000000000000 FUJITSU TEN (THAILAN160B48U0368368160C01U0010010                                                                                                                *          20160920IMF1609205.TXT
MDEUG9254836201609                D89828070200PV4U20160926000030SPEAKER ASM                   M IMCTM S0FR05 FTTL  07070IMCT  S0 PTB  00005                    0900 SR        000000000000 FUJITSU TEN (THAILAN160B46U0111111                                                                                                                              *          20160920IMF1609205.TXT
MDEUG9254837201609                D89828070200PV4U20160926000090SPEAKER ASM                   M IMCTM S0FR05 FTTL  07070IMCT  S0 PTB  00005                    1300 SR        000000000000 FUJITSU TEN (THAILAN160B46U0112112160B48U0369369160B95U0013013                                                                                                  *          20160920IMF1609205.TXT
MDEUG9254838201609                D89828070200PV4U20160926000030SPEAKER ASM                   M IMCTM S0FR05 FTTL  07070IMCT  S0 PTB  00005                    2100 SR        000000000000 FUJITSU TEN (THAILAN160B45U0050050                                                                                                                              *          20160920IMF1609205.TXT
MDEUG9254839201609                D89828070300PT4U20160923000030SPEAKER ASM                   M IMCTM S9TS02 FTTL  07070IMCT  S9 PTB  00015                    2230 SR        000000000000 FUJITSU TEN (THAILAN160B46U0110110                                                                                                                              *          20160920IMF1609205.TXT
MDEUG9254840201609                D89828070300PT4U20160924000060SPEAKER ASM                   M IMCTM S9TS02 FTTL  07070IMCT  S9 PTB  00015                    0230 SR        000000000000 FUJITSU TEN (THAILAN160B48U0368368160C01U0010010                                                                                                                *          20160920IMF1609205.TXT
MDEUG9254841201609                D89828070300PT4U20160926000030SPEAKER ASM                   M IMCTM S9TS02 FTTL  07070IMCT  S9 PTB  00015                    0900 SR        000000000000 FUJITSU TEN (THAILAN160B46U0111111                                                                                                                              *          20160920IMF1609205.TXT
MDEUG9254842201609                D89828070300PT4U20160926000090SPEAKER ASM                   M IMCTM S9TS02 FTTL  07070IMCT  S9 PTB  00015                    1300 SR        000000000000 FUJITSU TEN (THAILAN160B46U0112112160B48U0369369160B95U0013013                                                                                                  *          20160920IMF1609205.TXT
MDEUG9254843201609                D89828070300PT4U20160926000030SPEAKER ASM                   M IMCTM S9TS02 FTTL  07070IMCT  S9 PTB  00015                    2100 SR        000000000000 FUJITSU TEN (THAILAN160B45U0050050                                                                                                                              *          20160920IMF1609205.TXT
