REC2016092120160921ISUZU                              46     
MDDDG9237736201609                D89821984430PT1D20160927000030RADIO;AM/FM,CD                M IMCTM S5NC06 FTTL  07070IMCT  S5 PTB  00005                    1300 SR        000000000000 FUJITSU TEN (THAILAN170KNCL0012012                                                                                                                              *          20160921IMF1609214.TXT
MDDDG9237737201609                D89828070100PV1D20160927000060SPEAKER ASM                   M IMCTM S5MA12 FTTL  07070IMCT  S5 PTB  00004                    0400 SR        000000000000 FUJITSU TEN (THAILAN170KRRL0006006                                                                                                                              *          20160921IMF1609214.TXT
MDDDG9237738201609                D89828070100PV1D20160927000060SPEAKER ASM                   M IMCTM S5MA12 FTTL  07070IMCT  S5 PTB  00004                    0900 SR        000000000000 FUJITSU TEN (THAILAN170KPHL0001001                                                                                                                              *          20160921IMF1609214.TXT
MDDDG9237739201609                D89828070100PV1D20160927000120SPEAKER ASM                   M IMCTM S5MA12 FTTL  07070IMCT  S5 PTB  00004                    1300 SR        000000000000 FUJITSU TEN (THAILAN170KNAL0002002170KNCL0012012                                                                                                                *          20160921IMF1609214.TXT
MDDDG9237740201609                D89828070100PV1D20160927000060SPEAKER ASM                   M IMCTM S5MA12 FTTL  07070IMCT  S5 PTB  00004                    1600 SR        000000000000 FUJITSU TEN (THAILAN170KREL0001001                                                                                                                              *          20160921IMF1609214.TXT
MDDDG9237741201609                D89828070200PV1D20160927000060SPEAKER ASM                   M IMCTM S5MA13 FTTL  07070IMCT  S5 PTB  00005                    0400 SR        000000000000 FUJITSU TEN (THAILAN170KRRL0006006                                                                                                                              *          20160921IMF1609214.TXT
MDDDG9237742201609                D89828070200PV1D20160927000060SPEAKER ASM                   M IMCTM S5MA13 FTTL  07070IMCT  S5 PTB  00005                    1600 SR        000000000000 FUJITSU TEN (THAILAN170KREL0001001                                                                                                                              *          20160921IMF1609214.TXT
MDDDG9237743201609                D89828070300PT1D20160927000060SPEAKER ASM                   M IMCTM S5NB042FTTL  07070IMCT  S5 PTB  00015                    0400 SR        000000000000 FUJITSU TEN (THAILAN170KRRL0006006                                                                                                                              *          20160921IMF1609214.TXT
MDDDG9237744201609                D89828070300PT1D20160927000060SPEAKER ASM                   M IMCTM S5NB042FTTL  07070IMCT  S5 PTB  00015                    0900 SR        000000000000 FUJITSU TEN (THAILAN170KPHL0001001                                                                                                                              *          20160921IMF1609214.TXT
MDDDG9237745201609                D89828070300PT1D20160927000060SPEAKER ASM                   M IMCTM S5NB042FTTL  07070IMCT  S5 PTB  00015                    1600 SR        000000000000 FUJITSU TEN (THAILAN170KREL0001001                                                                                                                              *          20160921IMF1609214.TXT
MDDDG9237746201609                D89831228300PT1D20160927000030RADIO;AM/FM,CD                M IMCTM S5NC06 FTTL  07070IMCT  S5 CPB  00003                    0900 SR        000000000000 FUJITSU TEN (THAILAN170KPHL0001001                                                                                                                              *          20160921IMF1609214.TXT
MDDDG9237747201609                D89831228400PT1D20160927000030RADIO;AM/FM,CD                M IMCTM S5NC06 FTTL  07070IMCT  S5 CPB  00003                    1600 SR        000000000000 FUJITSU TEN (THAILAN170KREL0001001                                                                                                                              *          20160921IMF1609214.TXT
MDDUG9234601201609                D89828070100PT4U20160927000030SPEAKER ASM                   M IMCTM S0FL05 FTTL  07070IMCT  S0 PTB  00004                    0900 SR        000000000000 FUJITSU TEN (THAILAN170KUCU0007007                                                                                                                              *          20160921IMF1609214.TXT
MDDUG9234602201609                D89828070100PT4U20160927000030SPEAKER ASM                   M IMCTM S0FL05 FTTL  07070IMCT  S0 PTB  00004                    1600 SR        000000000000 FUJITSU TEN (THAILAN170KUBU0003003                                                                                                                              *          20160921IMF1609214.TXT
MDDUG9234603201609                D89828070200PV4U20160927000030SPEAKER ASM                   M IMCTM S0FR05 FTTL  07070IMCT  S0 PTB  00005                    0900 SR        000000000000 FUJITSU TEN (THAILAN170KUCU0007007                                                                                                                              *          20160921IMF1609214.TXT
MDDUG9234604201609                D89828070200PV4U20160927000030SPEAKER ASM                   M IMCTM S0FR05 FTTL  07070IMCT  S0 PTB  00005                    1600 SR        000000000000 FUJITSU TEN (THAILAN170KUBU0003003                                                                                                                              *          20160921IMF1609214.TXT
MDDUG9234605201609                D89828070300PT4U20160927000030SPEAKER ASM                   M IMCTM S9TS02 FTTL  07070IMCT  S9 PTB  00015                    0900 SR        000000000000 FUJITSU TEN (THAILAN170KUCU0007007                                                                                                                              *          20160921IMF1609214.TXT
MDDUG9234606201609                D89828070300PT4U20160927000030SPEAKER ASM                   M IMCTM S9TS02 FTTL  07070IMCT  S9 PTB  00015                    1600 SR        000000000000 FUJITSU TEN (THAILAN170KUBU0003003                                                                                                                              *          20160921IMF1609214.TXT
MDDUG9234607201609                D89829093500PT4U20160927000015RADIO;ASM DVD (T              M IMCTM S9CO001FTTL  07070IMCT  S9 PTB  00003                    0900 SR        000000000000 FUJITSU TEN (THAILAN170KUCU0007007                                                                                                                              *          20160921IMF1609214.TXT
MDDUG9234608201609                D89829093500PT4U20160927000015RADIO;ASM DVD (T              M IMCTM S9CO001FTTL  07070IMCT  S9 PTB  00003                    1600 SR        000000000000 FUJITSU TEN (THAILAN170KUBU0003003                                                                                                                              *          20160921IMF1609214.TXT
MDEDG9310386201609                D89828070100PV1D20160926000150SPEAKER ASM                   M IMCTM S5MA12 FTTL  07070IMCT  S5 PTB  00004                    2230 SR        000000000000 FUJITSU TEN (THAILAN16032JL002102116038KL001701716075HL0058060                                                                                                  *          20160921IMF1609214.TXT
MDEDG9310387201609                D89828070100PV1D20160927000060SPEAKER ASM                   M IMCTM S5MA12 FTTL  07070IMCT  S5 PTB  00004                    0230 SR        000000000000 FUJITSU TEN (THAILAN16007JL010010016082HL0002002                                                                                                                *          20160921IMF1609214.TXT
MDEDG9310388201609                D89828070100PV1D20160927000060SPEAKER ASM                   M IMCTM S5MA12 FTTL  07070IMCT  S5 PTB  00004                    0400 SR        000000000000 FUJITSU TEN (THAILAN16007JL010110116075HL0061061                                                                                                                *          20160921IMF1609214.TXT
MDEDG9310389201609                D89828070100PV1D20160927000060SPEAKER ASM                   M IMCTM S5MA12 FTTL  07070IMCT  S5 PTB  00004                    0900 SR        000000000000 FUJITSU TEN (THAILAN16075HL006206216082HL0003003                                                                                                                *          20160921IMF1609214.TXT
MDEDG9310390201609                D89828070100PV1D20160927000060SPEAKER ASM                   M IMCTM S5MA12 FTTL  07070IMCT  S5 PTB  00004                    1300 SR        000000000000 FUJITSU TEN (THAILAN16007JL0102103                                                                                                                              *          20160921IMF1609214.TXT
MDEDG9310391201609                D89828070100PV1D20160927000060SPEAKER ASM                   M IMCTM S5MA12 FTTL  07070IMCT  S5 PTB  00004                    1600 SR        000000000000 FUJITSU TEN (THAILAN16032JL002202216075HL0063063                                                                                                                *          20160921IMF1609214.TXT
MDEDG9310392201609                D89828070100PV4D20160926000030SPEAKER ASM                   M IMCTM S0FL05 FTTL  07070IMCT  S0 PTB  00004                    2230 SR        000000000000 FUJITSU TEN (THAILAN16078HU0015015                                                                                                                              *          20160921IMF1609214.TXT
MDEDG9310393201609                D89828070100PV4D20160927000030SPEAKER ASM                   M IMCTM S0FL05 FTTL  07070IMCT  S0 PTB  00004                    1600 SR        000000000000 FUJITSU TEN (THAILAN16078HU0016016                                                                                                                              *          20160921IMF1609214.TXT
MDEDG9310394201609                D89828070200PV1D20160926000030SPEAKER ASM                   M IMCTM S5MA13 FTTL  07070IMCT  S5 PTB  00005                    2230 SR        000000000000 FUJITSU TEN (THAILAN16038KL0017017                                                                                                                              *          20160921IMF1609214.TXT
MDEDG9310395201609                D89828070300PT1D20160926000030SPEAKER ASM                   M IMCTM S5NB042FTTL  07070IMCT  S5 PTB  00015                    2230 SR        000000000000 FUJITSU TEN (THAILAN16038KL0017017                                                                                                                              *          20160921IMF1609214.TXT
MDEDG9310396201609                D89829645400PT1D20160926000015RADIO;ASM DVD                 M IMCTM S5NC06 FTTL  07070IMCT  S5 PTB  00003                    2230 SR        000000000000 FUJITSU TEN (THAILAN16038KL0017017                                                                                                                              *          20160921IMF1609214.TXT
MDEUG9259504201609                D89828070100PT4U20160926000030SPEAKER ASM                   M IMCTM S0FL05 FTTL  07070IMCT  S0 PTB  00004                    2230 SR        000000000000 FUJITSU TEN (THAILAN160B53U0011011                                                                                                                              *          20160921IMF1609214.TXT
MDEUG9259505201609                D89828070100PT4U20160927000030SPEAKER ASM                   M IMCTM S0FL05 FTTL  07070IMCT  S0 PTB  00004                    0230 SR        000000000000 FUJITSU TEN (THAILAN160B48U0370370                                                                                                                              *          20160921IMF1609214.TXT
MDEUG9259506201609                D89828070100PT4U20160927000030SPEAKER ASM                   M IMCTM S0FL05 FTTL  07070IMCT  S0 PTB  00004                    0400 SR        000000000000 FUJITSU TEN (THAILAN160C01U0011011                                                                                                                              *          20160921IMF1609214.TXT
MDEUG9259507201609                D89828070100PT4U20160927000060SPEAKER ASM                   M IMCTM S0FL05 FTTL  07070IMCT  S0 PTB  00004                    0900 SR        000000000000 FUJITSU TEN (THAILAN160B46U0113113160B95U0014014                                                                                                                *          20160921IMF1609214.TXT
MDEUG9259508201609                D89828070100PT4U20160927000060SPEAKER ASM                   M IMCTM S0FL05 FTTL  07070IMCT  S0 PTB  00004                    1600 SR        000000000000 FUJITSU TEN (THAILAN160B46U0114114160B50U0003003                                                                                                                *          20160921IMF1609214.TXT
MDEUG9259509201609                D89828070200PV4U20160926000030SPEAKER ASM                   M IMCTM S0FR05 FTTL  07070IMCT  S0 PTB  00005                    2230 SR        000000000000 FUJITSU TEN (THAILAN160B53U0011011                                                                                                                              *          20160921IMF1609214.TXT
MDEUG9259510201609                D89828070200PV4U20160927000030SPEAKER ASM                   M IMCTM S0FR05 FTTL  07070IMCT  S0 PTB  00005                    0230 SR        000000000000 FUJITSU TEN (THAILAN160B48U0370370                                                                                                                              *          20160921IMF1609214.TXT
MDEUG9259511201609                D89828070200PV4U20160927000030SPEAKER ASM                   M IMCTM S0FR05 FTTL  07070IMCT  S0 PTB  00005                    0400 SR        000000000000 FUJITSU TEN (THAILAN160C01U0011011                                                                                                                              *          20160921IMF1609214.TXT
MDEUG9259512201609                D89828070200PV4U20160927000060SPEAKER ASM                   M IMCTM S0FR05 FTTL  07070IMCT  S0 PTB  00005                    0900 SR        000000000000 FUJITSU TEN (THAILAN160B46U0113113160B95U0014014                                                                                                                *          20160921IMF1609214.TXT
MDEUG9259513201609                D89828070200PV4U20160927000060SPEAKER ASM                   M IMCTM S0FR05 FTTL  07070IMCT  S0 PTB  00005                    1600 SR        000000000000 FUJITSU TEN (THAILAN160B46U0114114160B50U0003003                                                                                                                *          20160921IMF1609214.TXT
MDEUG9259514201609                D89828070300PT4U20160926000030SPEAKER ASM                   M IMCTM S9TS02 FTTL  07070IMCT  S9 PTB  00015                    2230 SR        000000000000 FUJITSU TEN (THAILAN160B53U0011011                                                                                                                              *          20160921IMF1609214.TXT
MDEUG9259515201609                D89828070300PT4U20160927000030SPEAKER ASM                   M IMCTM S9TS02 FTTL  07070IMCT  S9 PTB  00015                    0230 SR        000000000000 FUJITSU TEN (THAILAN160B48U0370370                                                                                                                              *          20160921IMF1609214.TXT
MDEUG9259516201609                D89828070300PT4U20160927000030SPEAKER ASM                   M IMCTM S9TS02 FTTL  07070IMCT  S9 PTB  00015                    0400 SR        000000000000 FUJITSU TEN (THAILAN160C01U0011011                                                                                                                              *          20160921IMF1609214.TXT
MDEUG9259517201609                D89828070300PT4U20160927000060SPEAKER ASM                   M IMCTM S9TS02 FTTL  07070IMCT  S9 PTB  00015                    0900 SR        000000000000 FUJITSU TEN (THAILAN160B46U0113113160B95U0014014                                                                                                                *          20160921IMF1609214.TXT
MDEUG9259518201609                D89828070300PT4U20160927000060SPEAKER ASM                   M IMCTM S9TS02 FTTL  07070IMCT  S9 PTB  00015                    1600 SR        000000000000 FUJITSU TEN (THAILAN160B46U0114114160B50U0003003                                                                                                                *          20160921IMF1609214.TXT
