REC2016101720161017ISUZU                              42     
MDDDGO276479201610                D89821984430PT1D20161020000030RADIO;AM/FM,CD                M IMCTM S5NC06 FTTL  07070IMCT  S5 PTB  00005                    2230 SR        000000000000 FUJITSU TEN (THAILAN170KNDL0029029                                                                                                                              *          20161017IMF1610173.TXT
MDDDGO276480201610                D89821984430PT1D20161021000030RADIO;AM/FM,CD                M IMCTM S5NC06 FTTL  07070IMCT  S5 PTB  00005                    0230 SR        000000000000 FUJITSU TEN (THAILAN170KNEL0015015                                                                                                                              *          20161017IMF1610173.TXT
MDDDGO276481201610                D89828070100PV1D20161020000060SPEAKER ASM                   M IMCTM S5MB11 FTTL  07070IMCT  S5 PTB  00004                    2100 SR        000000000000 FUJITSU TEN (THAILAN170KPCL0010010                                                                                                                              *          20161017IMF1610173.TXT
MDDDGO276482201610                D89828070100PV1D20161020000120SPEAKER ASM                   M IMCTM S5MB11 FTTL  07070IMCT  S5 PTB  00004                    2230 SR        000000000000 FUJITSU TEN (THAILAN170KNDL0029029170KPCL0011011                                                                                                                *          20161017IMF1610173.TXT
MDDDGO276483201610                D89828070100PV1D20161021000060SPEAKER ASM                   M IMCTM S5MB11 FTTL  07070IMCT  S5 PTB  00004                    0230 SR        000000000000 FUJITSU TEN (THAILAN170KNEL0015015                                                                                                                              *          20161017IMF1610173.TXT
MDDDGO276484201610                D89828070100PV1D20161021000120SPEAKER ASM                   M IMCTM S5MB11 FTTL  07070IMCT  S5 PTB  00004                    0400 SR        000000000000 FUJITSU TEN (THAILAN170KPEL0008008170KRJL0004004                                                                                                                *          20161017IMF1610173.TXT
MDDDGO276485201610                D89828070100PV1D20161021000120SPEAKER ASM                   M IMCTM S5MB11 FTTL  07070IMCT  S5 PTB  00004                    0900 SR        000000000000 FUJITSU TEN (THAILAN170KPPL0002002170KRHL0001001                                                                                                                *          20161017IMF1610173.TXT
MDDDGO276486201610                D89828070100PV1D20161021000060SPEAKER ASM                   M IMCTM S5MB11 FTTL  07070IMCT  S5 PTB  00004                    1300 SR        000000000000 FUJITSU TEN (THAILAN170KPFL0026026                                                                                                                              *          20161017IMF1610173.TXT
MDDDGO276487201610                D89828070200PV1D20161021000060SPEAKER ASM                   M IMCTM S5MA14 FTTL  07070IMCT  S5 PTB  00005                    0400 SR        000000000000 FUJITSU TEN (THAILAN170KRJL0004004                                                                                                                              *          20161017IMF1610173.TXT
MDDDGO276488201610                D89828070200PV1D20161021000060SPEAKER ASM                   M IMCTM S5MA14 FTTL  07070IMCT  S5 PTB  00005                    0900 SR        000000000000 FUJITSU TEN (THAILAN170KRHL0001001                                                                                                                              *          20161017IMF1610173.TXT
MDDDGO276489201610                D89828070300PT1D20161020000060SPEAKER ASM                   M IMCTM S5NB042FTTL  07070IMCT  S5 PTB  00015                    2100 SR        000000000000 FUJITSU TEN (THAILAN170KPCL0010010                                                                                                                              *          20161017IMF1610173.TXT
MDDDGO276490201610                D89828070300PT1D20161020000060SPEAKER ASM                   M IMCTM S5NB042FTTL  07070IMCT  S5 PTB  00015                    2230 SR        000000000000 FUJITSU TEN (THAILAN170KPCL0011011                                                                                                                              *          20161017IMF1610173.TXT
MDDDGO276491201610                D89828070300PT1D20161021000120SPEAKER ASM                   M IMCTM S5NB042FTTL  07070IMCT  S5 PTB  00015                    0400 SR        000000000000 FUJITSU TEN (THAILAN170KPEL0008008170KRJL0004004                                                                                                                *          20161017IMF1610173.TXT
MDDDGO276492201610                D89828070300PT1D20161021000120SPEAKER ASM                   M IMCTM S5NB042FTTL  07070IMCT  S5 PTB  00015                    0900 SR        000000000000 FUJITSU TEN (THAILAN170KPPL0002002170KRHL0001001                                                                                                                *          20161017IMF1610173.TXT
MDDDGO276493201610                D89828070300PT1D20161021000060SPEAKER ASM                   M IMCTM S5NB042FTTL  07070IMCT  S5 PTB  00015                    1300 SR        000000000000 FUJITSU TEN (THAILAN170KPFL0026026                                                                                                                              *          20161017IMF1610173.TXT
MDDDGO276494201610                D89831228300PT1D20161020000030RADIO;AM/FM,CD                M IMCTM S5NC06 FTTL  07070IMCT  S5 CPB  00003                    2100 SR        000000000000 FUJITSU TEN (THAILAN170KPCL0010010                                                                                                                              *          20161017IMF1610173.TXT
MDDDGO276495201610                D89831228300PT1D20161020000030RADIO;AM/FM,CD                M IMCTM S5NC06 FTTL  07070IMCT  S5 CPB  00003                    2230 SR        000000000000 FUJITSU TEN (THAILAN170KPCL0011011                                                                                                                              *          20161017IMF1610173.TXT
MDDDGO276496201610                D89831228300PT1D20161021000030RADIO;AM/FM,CD                M IMCTM S5NC06 FTTL  07070IMCT  S5 CPB  00003                    0400 SR        000000000000 FUJITSU TEN (THAILAN170KPEL0008008                                                                                                                              *          20161017IMF1610173.TXT
MDDDGO276497201610                D89831228300PT1D20161021000030RADIO;AM/FM,CD                M IMCTM S5NC06 FTTL  07070IMCT  S5 CPB  00003                    0900 SR        000000000000 FUJITSU TEN (THAILAN170KPPL0002002                                                                                                                              *          20161017IMF1610173.TXT
MDDDGO276498201610                D89831228300PT1D20161021000030RADIO;AM/FM,CD                M IMCTM S5NC06 FTTL  07070IMCT  S5 CPB  00003                    1300 SR        000000000000 FUJITSU TEN (THAILAN170KPFL0026026                                                                                                                              *          20161017IMF1610173.TXT
MDEDGO234348201610                D89805293700PV1D20161021000030SPEAKER ASM                   M IMCTM S5MB11 FTTL  07070IMCT  S5 PTB  00003                    1300 SR        000000000000 FUJITSU TEN (THAILAN15019FL0121121                                                                                                                              *          20161017IMF1610173.TXT
MDEDGO234349201610                D89805293700PV1D20161021000030SPEAKER ASM                   M IMCTM S5MB11 FTTL  07070IMCT  S5 PTB  00003                    1600 SR        000000000000 FUJITSU TEN (THAILAN15019FL0122122                                                                                                                              *          20161017IMF1610173.TXT
MDEDGO234350201610                D89828070100PV1D20161021000030SPEAKER ASM                   M IMCTM S5MB11 FTTL  07070IMCT  S5 PTB  00004                    1300 SR        000000000000 FUJITSU TEN (THAILAN16081HL0137137                                                                                                                              *          20161017IMF1610173.TXT
MDEDGO234351201610                D89828070100PV4D20161021000030SPEAKER ASM                   M IMCTM S0FL05 FTTL  07070IMCT  S0 PTB  00004                    1300 SR        000000000000 FUJITSU TEN (THAILAN16065JU0001001                                                                                                                              *          20161017IMF1610173.TXT
MDEUGO249638201610                D89828070100PT4U20161020000030SPEAKER ASM                   M IMCTM S0FL05 FTTL  07070IMCT  S0 PTB  00004                    2100 SR        000000000000 FUJITSU TEN (THAILAN160B46U0150150                                                                                                                              *          20161017IMF1610173.TXT
MDEUGO249639201610                D89828070100PT4U20161020000030SPEAKER ASM                   M IMCTM S0FL05 FTTL  07070IMCT  S0 PTB  00004                    2230 SR        000000000000 FUJITSU TEN (THAILAN160B48U0423423                                                                                                                              *          20161017IMF1610173.TXT
MDEUGO249640201610                D89828070100PT4U20161021000060SPEAKER ASM                   M IMCTM S0FL05 FTTL  07070IMCT  S0 PTB  00004                    0230 SR        000000000000 FUJITSU TEN (THAILAN160B46U0151151160B48U0424424                                                                                                                *          20161017IMF1610173.TXT
MDEUGO249641201610                D89828070100PT4U20161021000030SPEAKER ASM                   M IMCTM S0FL05 FTTL  07070IMCT  S0 PTB  00004                    0400 SR        000000000000 FUJITSU TEN (THAILAN160B48U0425425                                                                                                                              *          20161017IMF1610173.TXT
MDEUGO249642201610                D89828070100PT4U20161021000060SPEAKER ASM                   M IMCTM S0FL05 FTTL  07070IMCT  S0 PTB  00004                    0900 SR        000000000000 FUJITSU TEN (THAILAN160B45U0060060160B46U0152152                                                                                                                *          20161017IMF1610173.TXT
MDEUGO249643201610                D89828070100PT4U20161021000030SPEAKER ASM                   M IMCTM S0FL05 FTTL  07070IMCT  S0 PTB  00004                    2100 SR        000000000000 FUJITSU TEN (THAILAN160B48U0426426                                                                                                                              *          20161017IMF1610173.TXT
MDEUGO249644201610                D89828070200PV4U20161020000030SPEAKER ASM                   M IMCTM S0FR05 FTTL  07070IMCT  S0 PTB  00005                    2100 SR        000000000000 FUJITSU TEN (THAILAN160B46U0150150                                                                                                                              *          20161017IMF1610173.TXT
MDEUGO249645201610                D89828070200PV4U20161020000030SPEAKER ASM                   M IMCTM S0FR05 FTTL  07070IMCT  S0 PTB  00005                    2230 SR        000000000000 FUJITSU TEN (THAILAN160B48U0423423                                                                                                                              *          20161017IMF1610173.TXT
MDEUGO249646201610                D89828070200PV4U20161021000060SPEAKER ASM                   M IMCTM S0FR05 FTTL  07070IMCT  S0 PTB  00005                    0230 SR        000000000000 FUJITSU TEN (THAILAN160B46U0151151160B48U0424424                                                                                                                *          20161017IMF1610173.TXT
MDEUGO249647201610                D89828070200PV4U20161021000030SPEAKER ASM                   M IMCTM S0FR05 FTTL  07070IMCT  S0 PTB  00005                    0400 SR        000000000000 FUJITSU TEN (THAILAN160B48U0425425                                                                                                                              *          20161017IMF1610173.TXT
MDEUGO249648201610                D89828070200PV4U20161021000060SPEAKER ASM                   M IMCTM S0FR05 FTTL  07070IMCT  S0 PTB  00005                    0900 SR        000000000000 FUJITSU TEN (THAILAN160B45U0060060160B46U0152152                                                                                                                *          20161017IMF1610173.TXT
MDEUGO249649201610                D89828070200PV4U20161021000030SPEAKER ASM                   M IMCTM S0FR05 FTTL  07070IMCT  S0 PTB  00005                    2100 SR        000000000000 FUJITSU TEN (THAILAN160B48U0426426                                                                                                                              *          20161017IMF1610173.TXT
MDEUGO249650201610                D89828070300PT4U20161020000030SPEAKER ASM                   M IMCTM S9TS02 FTTL  07070IMCT  S9 PTB  00015                    2100 SR        000000000000 FUJITSU TEN (THAILAN160B46U0150150                                                                                                                              *          20161017IMF1610173.TXT
MDEUGO249651201610                D89828070300PT4U20161020000030SPEAKER ASM                   M IMCTM S9TS02 FTTL  07070IMCT  S9 PTB  00015                    2230 SR        000000000000 FUJITSU TEN (THAILAN160B48U0423423                                                                                                                              *          20161017IMF1610173.TXT
MDEUGO249652201610                D89828070300PT4U20161021000060SPEAKER ASM                   M IMCTM S9TS02 FTTL  07070IMCT  S9 PTB  00015                    0230 SR        000000000000 FUJITSU TEN (THAILAN160B46U0151151160B48U0424424                                                                                                                *          20161017IMF1610173.TXT
MDEUGO249653201610                D89828070300PT4U20161021000030SPEAKER ASM                   M IMCTM S9TS02 FTTL  07070IMCT  S9 PTB  00015                    0400 SR        000000000000 FUJITSU TEN (THAILAN160B48U0425425                                                                                                                              *          20161017IMF1610173.TXT
MDEUGO249654201610                D89828070300PT4U20161021000060SPEAKER ASM                   M IMCTM S9TS02 FTTL  07070IMCT  S9 PTB  00015                    0900 SR        000000000000 FUJITSU TEN (THAILAN160B45U0060060160B46U0152152                                                                                                                *          20161017IMF1610173.TXT
MDEUGO249655201610                D89828070300PT4U20161021000030SPEAKER ASM                   M IMCTM S9TS02 FTTL  07070IMCT  S9 PTB  00015                    2100 SR        000000000000 FUJITSU TEN (THAILAN160B48U0426426                                                                                                                              *          20161017IMF1610173.TXT
