REC2016101320161013ISUZU                              32     
MDDDGO263968201610                D89821984430PT1D20161018000030RADIO;AM/FM,CD                M IMCTM S5NC06 FTTL  07070IMCT  S5 PTB  00005                    2230 SR        000000000000 FUJITSU TEN (THAILAN170KNDL0027027                                                                                                                              *          20161013IMF1610136.TXT
MDDDGO263969201610                D89821984430PT1D20161019000030RADIO;AM/FM,CD                M IMCTM S5NC06 FTTL  07070IMCT  S5 PTB  00005                    0230 SR        000000000000 FUJITSU TEN (THAILAN170KNCL0021021                                                                                                                              *          20161013IMF1610136.TXT
MDDDGO263970201610                D89821984430PT1D20161019000030RADIO;AM/FM,CD                M IMCTM S5NC06 FTTL  07070IMCT  S5 PTB  00005                    0400 SR        000000000000 FUJITSU TEN (THAILAN170KNFL0006006                                                                                                                              *          20161013IMF1610136.TXT
MDDDGO263971201610                D89821984430PT1D20161019000030RADIO;AM/FM,CD                M IMCTM S5NC06 FTTL  07070IMCT  S5 PTB  00005                    1300 SR        000000000000 FUJITSU TEN (THAILAN170KRAL0004004                                                                                                                              *          20161013IMF1610136.TXT
MDDDGO263972201610                D89828070100PV1D20161018000120SPEAKER ASM                   M IMCTM S5MB11 FTTL  07070IMCT  S5 PTB  00004                    2230 SR        000000000000 FUJITSU TEN (THAILAN170KNDL0027027170KRRL0010010                                                                                                                *          20161013IMF1610136.TXT
MDDDGO263973201610                D89828070100PV1D20161019000060SPEAKER ASM                   M IMCTM S5MB11 FTTL  07070IMCT  S5 PTB  00004                    0230 SR        000000000000 FUJITSU TEN (THAILAN170KNCL0021021                                                                                                                              *          20161013IMF1610136.TXT
MDDDGO263974201610                D89828070100PV1D20161019000120SPEAKER ASM                   M IMCTM S5MB11 FTTL  07070IMCT  S5 PTB  00004                    0400 SR        000000000000 FUJITSU TEN (THAILAN170KNFL0006006170KPHL0008008                                                                                                                *          20161013IMF1610136.TXT
MDDDGO263975201610                D89828070100PV1D20161019000120SPEAKER ASM                   M IMCTM S5MB11 FTTL  07070IMCT  S5 PTB  00004                    0900 SR        000000000000 FUJITSU TEN (THAILAN170KNAL0007007170KPML0004004                                                                                                                *          20161013IMF1610136.TXT
MDDDGO263976201610                D89828070100PV1D20161019000060SPEAKER ASM                   M IMCTM S5MB11 FTTL  07070IMCT  S5 PTB  00004                    1300 SR        000000000000 FUJITSU TEN (THAILAN170KRAL0004004                                                                                                                              *          20161013IMF1610136.TXT
MDDDGO263977201610                D89828070100PV1D20161019000060SPEAKER ASM                   M IMCTM S5MB11 FTTL  07070IMCT  S5 PTB  00004                    1600 SR        000000000000 FUJITSU TEN (THAILAN170KREL0010010                                                                                                                              *          20161013IMF1610136.TXT
MDDDGO263978201610                D89828070200PV1D20161018000060SPEAKER ASM                   M IMCTM S5MA14 FTTL  07070IMCT  S5 PTB  00005                    2230 SR        000000000000 FUJITSU TEN (THAILAN170KRRL0010010                                                                                                                              *          20161013IMF1610136.TXT
MDDDGO263979201610                D89828070200PV1D20161019000060SPEAKER ASM                   M IMCTM S5MA14 FTTL  07070IMCT  S5 PTB  00005                    1600 SR        000000000000 FUJITSU TEN (THAILAN170KREL0010010                                                                                                                              *          20161013IMF1610136.TXT
MDDDGO263980201610                D89828070300PT1D20161018000060SPEAKER ASM                   M IMCTM S5NB042FTTL  07070IMCT  S5 PTB  00015                    2230 SR        000000000000 FUJITSU TEN (THAILAN170KRRL0010010                                                                                                                              *          20161013IMF1610136.TXT
MDDDGO263981201610                D89828070300PT1D20161019000060SPEAKER ASM                   M IMCTM S5NB042FTTL  07070IMCT  S5 PTB  00015                    0400 SR        000000000000 FUJITSU TEN (THAILAN170KPHL0008008                                                                                                                              *          20161013IMF1610136.TXT
MDDDGO263982201610                D89828070300PT1D20161019000060SPEAKER ASM                   M IMCTM S5NB042FTTL  07070IMCT  S5 PTB  00015                    0900 SR        000000000000 FUJITSU TEN (THAILAN170KPML0004004                                                                                                                              *          20161013IMF1610136.TXT
MDDDGO263983201610                D89828070300PT1D20161019000060SPEAKER ASM                   M IMCTM S5NB042FTTL  07070IMCT  S5 PTB  00015                    1600 SR        000000000000 FUJITSU TEN (THAILAN170KREL0010010                                                                                                                              *          20161013IMF1610136.TXT
MDDDGO263984201610                D89831228300PT1D20161019000030RADIO;AM/FM,CD                M IMCTM S5NC06 FTTL  07070IMCT  S5 CPB  00003                    0400 SR        000000000000 FUJITSU TEN (THAILAN170KPHL0008008                                                                                                                              *          20161013IMF1610136.TXT
MDDDGO263985201610                D89831228400PT1D20161019000030RADIO;AM/FM,CD                M IMCTM S5NC06 FTTL  07070IMCT  S5 CPB  00003                    1600 SR        000000000000 FUJITSU TEN (THAILAN170KREL0010010                                                                                                                              *          20161013IMF1610136.TXT
MDEDGO230385201610                D89828070100PV1D20161018000030SPEAKER ASM                   M IMCTM S5MB11 FTTL  07070IMCT  S5 PTB  00004                    2230 SR        000000000000 FUJITSU TEN (THAILAN16081HL0134134                                                                                                                              *          20161013IMF1610136.TXT
MDEDGO230386201610                D89828070100PV1D20161019000090SPEAKER ASM                   M IMCTM S5MB11 FTTL  07070IMCT  S5 PTB  00004                    1300 SR        000000000000 FUJITSU TEN (THAILAN16016KL001501616081HL0135135                                                                                                                *          20161013IMF1610136.TXT
MDEUGO241515201610                D89828070100PT4U20161018000060SPEAKER ASM                   M IMCTM S0FL05 FTTL  07070IMCT  S0 PTB  00004                    2230 SR        000000000000 FUJITSU TEN (THAILAN160B46U0145145160B48U0417417                                                                                                                *          20161013IMF1610136.TXT
MDEUGO241516201610                D89828070100PT4U20161019000060SPEAKER ASM                   M IMCTM S0FL05 FTTL  07070IMCT  S0 PTB  00004                    0230 SR        000000000000 FUJITSU TEN (THAILAN160B46U0146146160B48U0418418                                                                                                                *          20161013IMF1610136.TXT
MDEUGO241517201610                D89828070100PT4U20161019000030SPEAKER ASM                   M IMCTM S0FL05 FTTL  07070IMCT  S0 PTB  00004                    0400 SR        000000000000 FUJITSU TEN (THAILAN160B48U0419419                                                                                                                              *          20161013IMF1610136.TXT
MDEUGO241518201610                D89828070100PT4U20161019000030SPEAKER ASM                   M IMCTM S0FL05 FTTL  07070IMCT  S0 PTB  00004                    0900 SR        000000000000 FUJITSU TEN (THAILAN160B95U0020020                                                                                                                              *          20161013IMF1610136.TXT
MDEUGO241519201610                D89828070200PV4U20161018000060SPEAKER ASM                   M IMCTM S0FR05 FTTL  07070IMCT  S0 PTB  00005                    2230 SR        000000000000 FUJITSU TEN (THAILAN160B46U0145145160B48U0417417                                                                                                                *          20161013IMF1610136.TXT
MDEUGO241520201610                D89828070200PV4U20161019000060SPEAKER ASM                   M IMCTM S0FR05 FTTL  07070IMCT  S0 PTB  00005                    0230 SR        000000000000 FUJITSU TEN (THAILAN160B46U0146146160B48U0418418                                                                                                                *          20161013IMF1610136.TXT
MDEUGO241521201610                D89828070200PV4U20161019000030SPEAKER ASM                   M IMCTM S0FR05 FTTL  07070IMCT  S0 PTB  00005                    0400 SR        000000000000 FUJITSU TEN (THAILAN160B48U0419419                                                                                                                              *          20161013IMF1610136.TXT
MDEUGO241522201610                D89828070200PV4U20161019000030SPEAKER ASM                   M IMCTM S0FR05 FTTL  07070IMCT  S0 PTB  00005                    0900 SR        000000000000 FUJITSU TEN (THAILAN160B95U0020020                                                                                                                              *          20161013IMF1610136.TXT
MDEUGO241523201610                D89828070300PT4U20161018000060SPEAKER ASM                   M IMCTM S9TS02 FTTL  07070IMCT  S9 PTB  00015                    2230 SR        000000000000 FUJITSU TEN (THAILAN160B46U0145145160B48U0417417                                                                                                                *          20161013IMF1610136.TXT
MDEUGO241524201610                D89828070300PT4U20161019000060SPEAKER ASM                   M IMCTM S9TS02 FTTL  07070IMCT  S9 PTB  00015                    0230 SR        000000000000 FUJITSU TEN (THAILAN160B46U0146146160B48U0418418                                                                                                                *          20161013IMF1610136.TXT
MDEUGO241525201610                D89828070300PT4U20161019000030SPEAKER ASM                   M IMCTM S9TS02 FTTL  07070IMCT  S9 PTB  00015                    0400 SR        000000000000 FUJITSU TEN (THAILAN160B48U0419419                                                                                                                              *          20161013IMF1610136.TXT
MDEUGO241526201610                D89828070300PT4U20161019000030SPEAKER ASM                   M IMCTM S9TS02 FTTL  07070IMCT  S9 PTB  00015                    0900 SR        000000000000 FUJITSU TEN (THAILAN160B95U0020020                                                                                                                              *          20161013IMF1610136.TXT
