REC2016101020161010ISUZU                              9      
MDEFGOT07792201610                D89805293700PV4F20161013000012SPEAKER ASM                   M IMCTM S7FR05 FTTL  07070IMCT  S7 PTB  00003                    1600 SR        000000000000 FUJITSU TEN (THAILAN15010HR0057   15031BR0168   D161002901    D161002914    000000                                                                              *R         20161010RDF1610104.TXT
MDEFGOT07793201610                D89805294000PT4F20161013000012SPEAKER ASM                   M IMCTM S7TS02 FTTL  07070IMCT  S7 PTB  00015                    1600 SR        000000000000 FUJITSU TEN (THAILAN15010HR0057   15031BR0168   D161002901    D161002914    000000                                                                              *R         20161010RDF1610104.TXT
MDEFGOT07794201610                D89805294100PV4F20161013000012SPEAKER ASM                   M IMCTM S7FR05 FTTL  07070IMCT  S7 PTB  00005                    1600 SR        000000000000 FUJITSU TEN (THAILAN15010HR0057   15031BR0168   D161002901    D161002914    000000                                                                              *R         20161010RDF1610104.TXT
MDEFGOT07795201610                D89828070100PV4F20161014000028SPEAKER ASM                   M IMCTM S7FL05 FTTL  07070IMCT  S7 PTB  00004                    0400 SR        000000000000 FUJITSU TEN (THAILAN16049JR0019   16080JR0054   R161003002    R161003015    000000                                                                              *R         20161010RDF1610104.TXT
MDEFGOT07796201610                D89828070200PV4F20161013000016SPEAKER ASM                   M IMCTM S7TS02 FTTL  07070IMCT  S7 PTB  00005                    1600 SR        000000000000 FUJITSU TEN (THAILAN16025KR0050   16025KR0052   D161002905    D161002915    000000                                                                              *R         20161010RDF1610104.TXT
MDEFGOT07797201610                D89828070300PT4F20161013000016SPEAKER ASM                   M IMCTM S7TS02 FTTL  07070IMCT  S7 PTB  00015                    1600 SR        000000000000 FUJITSU TEN (THAILAN16025KR0050   16025KR0052   D161002905    D161002915    000000                                                                              *R         20161010RDF1610104.TXT
MDEFGOT07798201610                D89831229000PT4F20161013000004RADIO;AM/FM,CD                M IMCTM S7TS03 FTTL  07070IMCT  S7 PTB  00003                    1600 SR        000000000000 FUJITSU TEN (THAILAN16025KR0050   16025KR0052   D161002905    D161002915    000000                                                                              *R         20161010RDF1610104.TXT
MDEFGOT07799201610                D89831229200PT4F20161013000002RADIO;AM/FM,CD                M IMCTM S7TS03 FTTL  07070IMCT  S7 PTB  00003                    1600 SR        000000000000 FUJITSU TEN (THAILAN16043JR0066   16044JR0055   D161002908    D161002911    000000                                                                              *R         20161010RDF1610104.TXT
MDEFGO219250201610                D89828070100PV4F20161013000020SPEAKER ASM                   M IMCTM S7FL05 FTTL  07070IMCT  S7 PTB  00004                    1600 SR        000000000000 FUJITSU TEN (THAILAN16022KR0034   16003JR0045   D161002904    R161003001    000000                                                                              *R         20161010RDF1610104.TXT
