REC2016093020161001ISUZU                              41     
MDDDG9273652201610                D89821984430PT1D20161005000030RADIO;AM/FM,CD                M IMCTM S5NC06 FTTL  07070IMCT  S5 PTB  00005                    0230 SR        000000000000 FUJITSU TEN (THAILAN170KNDL0014014                                                                                                                              *          20160930IMF1609307.TXT
MDDDG9273653201610                D89821984430PT1D20161005000030RADIO;AM/FM,CD                M IMCTM S5NC06 FTTL  07070IMCT  S5 PTB  00005                    0400 SR        000000000000 FUJITSU TEN (THAILAN170KNDL0015015                                                                                                                              *          20160930IMF1609307.TXT
MDDDG9273654201610                D89821984430PT1D20161005000030RADIO;AM/FM,CD                M IMCTM S5NC06 FTTL  07070IMCT  S5 PTB  00005                    0900 SR        000000000000 FUJITSU TEN (THAILAN170KPAL0003003                                                                                                                              *          20160930IMF1609307.TXT
MDDDG9273655201610                D89821984430PT1D20161005000030RADIO;AM/FM,CD                M IMCTM S5NC06 FTTL  07070IMCT  S5 PTB  00005                    1300 SR        000000000000 FUJITSU TEN (THAILAN170KNDL0016016                                                                                                                              *          20160930IMF1609307.TXT
MDDDG9273656201610                D89825217900PT1D20161005000030RADIO;AM/FM,CD,D              M IMCTM S5NC06 FTTL  07070IMCT  S5 PTB  00003                    1600 SR        000000000000 FUJITSU TEN (THAILAN170KPKL0001001                                                                                                                              *          20160930IMF1609307.TXT
MDDDG9273657201610                D89828070100PV1D20161004000060SPEAKER ASM                   M IMCTM S5MA12 FTTL  07070IMCT  S5 PTB  00004                    2100 SR        000000000000 FUJITSU TEN (THAILAN170KNAL0004004                                                                                                                              *          20160930IMF1609307.TXT
MDDDG9273658201610                D89828070100PV1D20161004000060SPEAKER ASM                   M IMCTM S5MA12 FTTL  07070IMCT  S5 PTB  00004                    2230 SR        000000000000 FUJITSU TEN (THAILAN170KRKL0001001                                                                                                                              *          20160930IMF1609307.TXT
MDDDG9273659201610                D89828070100PV1D20161005000060SPEAKER ASM                   M IMCTM S5MA12 FTTL  07070IMCT  S5 PTB  00004                    0230 SR        000000000000 FUJITSU TEN (THAILAN170KNDL0014014                                                                                                                              *          20160930IMF1609307.TXT
MDDDG9273660201610                D89828070100PV1D20161005000120SPEAKER ASM                   M IMCTM S5MA12 FTTL  07070IMCT  S5 PTB  00004                    0400 SR        000000000000 FUJITSU TEN (THAILAN170KNDL0015015170KRSL0011011                                                                                                                *          20160930IMF1609307.TXT
MDDDG9273661201610                D89828070100PV1D20161005000060SPEAKER ASM                   M IMCTM S5MA12 FTTL  07070IMCT  S5 PTB  00004                    0900 SR        000000000000 FUJITSU TEN (THAILAN170KPAL0003003                                                                                                                              *          20160930IMF1609307.TXT
MDDDG9273662201610                D89828070100PV1D20161005000120SPEAKER ASM                   M IMCTM S5MA12 FTTL  07070IMCT  S5 PTB  00004                    1300 SR        000000000000 FUJITSU TEN (THAILAN170KNDL0016016170KRFL0002002                                                                                                                *          20160930IMF1609307.TXT
MDDDG9273663201610                D89828070100PV1D20161005000120SPEAKER ASM                   M IMCTM S5MA12 FTTL  07070IMCT  S5 PTB  00004                    1600 SR        000000000000 FUJITSU TEN (THAILAN170KPKL0001001170KRSL0012012                                                                                                                *          20160930IMF1609307.TXT
MDDDG9273664201610                D89828070200PV1D20161004000060SPEAKER ASM                   M IMCTM S5MA13 FTTL  07070IMCT  S5 PTB  00005                    2230 SR        000000000000 FUJITSU TEN (THAILAN170KRKL0001001                                                                                                                              *          20160930IMF1609307.TXT
MDDDG9273665201610                D89828070200PV1D20161005000060SPEAKER ASM                   M IMCTM S5MA13 FTTL  07070IMCT  S5 PTB  00005                    0400 SR        000000000000 FUJITSU TEN (THAILAN170KRSL0011011                                                                                                                              *          20160930IMF1609307.TXT
MDDDG9273666201610                D89828070200PV1D20161005000060SPEAKER ASM                   M IMCTM S5MA13 FTTL  07070IMCT  S5 PTB  00005                    1300 SR        000000000000 FUJITSU TEN (THAILAN170KRFL0002002                                                                                                                              *          20160930IMF1609307.TXT
MDDDG9273667201610                D89828070200PV1D20161005000060SPEAKER ASM                   M IMCTM S5MA13 FTTL  07070IMCT  S5 PTB  00005                    1600 SR        000000000000 FUJITSU TEN (THAILAN170KRSL0012012                                                                                                                              *          20160930IMF1609307.TXT
MDDDG9273668201610                D89828070300PT1D20161004000060SPEAKER ASM                   M IMCTM S5NB042FTTL  07070IMCT  S5 PTB  00015                    2230 SR        000000000000 FUJITSU TEN (THAILAN170KRKL0001001                                                                                                                              *          20160930IMF1609307.TXT
MDDDG9273669201610                D89828070300PT1D20161005000060SPEAKER ASM                   M IMCTM S5NB042FTTL  07070IMCT  S5 PTB  00015                    0400 SR        000000000000 FUJITSU TEN (THAILAN170KRSL0011011                                                                                                                              *          20160930IMF1609307.TXT
MDDDG9273670201610                D89828070300PT1D20161005000060SPEAKER ASM                   M IMCTM S5NB042FTTL  07070IMCT  S5 PTB  00015                    1300 SR        000000000000 FUJITSU TEN (THAILAN170KRFL0002002                                                                                                                              *          20160930IMF1609307.TXT
MDDDG9273671201610                D89828070300PT1D20161005000120SPEAKER ASM                   M IMCTM S5NB042FTTL  07070IMCT  S5 PTB  00015                    1600 SR        000000000000 FUJITSU TEN (THAILAN170KPKL0001001170KRSL0012012                                                                                                                *          20160930IMF1609307.TXT
MDDDG9273672201610                D89829645900PT1D20161005000030RADIO;ASM DVD                 M IMCTM S5NC06 FTTL  07070IMCT  S5 CPB  00003                    1300 SR        000000000000 FUJITSU TEN (THAILAN170KRFL0002002                                                                                                                              *          20160930IMF1609307.TXT
MDEDG9340391201610                D89828070100PV1D20161004000090SPEAKER ASM                   M IMCTM S5MA12 FTTL  07070IMCT  S5 PTB  00004                    2230 SR        000000000000 FUJITSU TEN (THAILAN16038LL001401516081HL0113113                                                                                                                *          20160930IMF1609307.TXT
MDEDG9340392201610                D89828070100PV1D20161005000030SPEAKER ASM                   M IMCTM S5MA12 FTTL  07070IMCT  S5 PTB  00004                    0900 SR        000000000000 FUJITSU TEN (THAILAN16081HL0114114                                                                                                                              *          20160930IMF1609307.TXT
MDEDG9340393201610                D89828070100PV1D20161005000030SPEAKER ASM                   M IMCTM S5MA12 FTTL  07070IMCT  S5 PTB  00004                    1300 SR        000000000000 FUJITSU TEN (THAILAN16002JL0003003                                                                                                                              *          20160930IMF1609307.TXT
MDEDG9340394201610                D89828070100PV1D20161005000060SPEAKER ASM                   M IMCTM S5MA12 FTTL  07070IMCT  S5 PTB  00004                    1600 SR        000000000000 FUJITSU TEN (THAILAN16072LL001801816081HL0115115                                                                                                                *          20160930IMF1609307.TXT
MDEDG9340395201610                D89828070100PV4D20161005000030SPEAKER ASM                   M IMCTM S0FL05 FTTL  07070IMCT  S0 PTB  00004                    1600 SR        000000000000 FUJITSU TEN (THAILAN16075HU0029029                                                                                                                              *          20160930IMF1609307.TXT
MDEDG9340396201610                D89828070200PV1D20161004000060SPEAKER ASM                   M IMCTM S5MA13 FTTL  07070IMCT  S5 PTB  00005                    2230 SR        000000000000 FUJITSU TEN (THAILAN16038LL0014015                                                                                                                              *          20160930IMF1609307.TXT
MDEDG9340397201610                D89828070300PT1D20161004000060SPEAKER ASM                   M IMCTM S5NB042FTTL  07070IMCT  S5 PTB  00015                    2230 SR        000000000000 FUJITSU TEN (THAILAN16038LL0014015                                                                                                                              *          20160930IMF1609307.TXT
MDEDG9340398201610                D89831229200PT1D20161004000030RADIO;AM/FM,CD                M IMCTM S5NC06 FTTL  07070IMCT  S5 PTB  00003                    2230 SR        000000000000 FUJITSU TEN (THAILAN16038LL0014015                                                                                                                              *          20160930IMF1609307.TXT
MDEUG9289283201610                D89828070100PT4U20161004000090SPEAKER ASM                   M IMCTM S0FL05 FTTL  07070IMCT  S0 PTB  00004                    2230 SR        000000000000 FUJITSU TEN (THAILAN160B48U0384384160B53U0016016160C01U0014014                                                                                                  *          20160930IMF1609307.TXT
MDEUG9289284201610                D89828070100PT4U20161005000060SPEAKER ASM                   M IMCTM S0FL05 FTTL  07070IMCT  S0 PTB  00004                    0400 SR        000000000000 FUJITSU TEN (THAILAN160B46U0125125160B48U0385385                                                                                                                *          20160930IMF1609307.TXT
MDEUG9289285201610                D89828070100PT4U20161005000030SPEAKER ASM                   M IMCTM S0FL05 FTTL  07070IMCT  S0 PTB  00004                    0900 SR        000000000000 FUJITSU TEN (THAILAN160B45U0056056                                                                                                                              *          20160930IMF1609307.TXT
MDEUG9289286201610                D89828070100PT4U20161005000060SPEAKER ASM                   M IMCTM S0FL05 FTTL  07070IMCT  S0 PTB  00004                    1300 SR        000000000000 FUJITSU TEN (THAILAN160B46U0126126160B48U0386386                                                                                                                *          20160930IMF1609307.TXT
MDEUG9289287201610                D89828070200PV4U20161004000090SPEAKER ASM                   M IMCTM S0FR05 FTTL  07070IMCT  S0 PTB  00005                    2230 SR        000000000000 FUJITSU TEN (THAILAN160B48U0384384160B53U0016016160C01U0014014                                                                                                  *          20160930IMF1609307.TXT
MDEUG9289288201610                D89828070200PV4U20161005000060SPEAKER ASM                   M IMCTM S0FR05 FTTL  07070IMCT  S0 PTB  00005                    0400 SR        000000000000 FUJITSU TEN (THAILAN160B46U0125125160B48U0385385                                                                                                                *          20160930IMF1609307.TXT
MDEUG9289289201610                D89828070200PV4U20161005000030SPEAKER ASM                   M IMCTM S0FR05 FTTL  07070IMCT  S0 PTB  00005                    0900 SR        000000000000 FUJITSU TEN (THAILAN160B45U0056056                                                                                                                              *          20160930IMF1609307.TXT
MDEUG9289290201610                D89828070200PV4U20161005000060SPEAKER ASM                   M IMCTM S0FR05 FTTL  07070IMCT  S0 PTB  00005                    1300 SR        000000000000 FUJITSU TEN (THAILAN160B46U0126126160B48U0386386                                                                                                                *          20160930IMF1609307.TXT
MDEUG9289291201610                D89828070300PT4U20161004000090SPEAKER ASM                   M IMCTM S9TS02 FTTL  07070IMCT  S9 PTB  00015                    2230 SR        000000000000 FUJITSU TEN (THAILAN160B48U0384384160B53U0016016160C01U0014014                                                                                                  *          20160930IMF1609307.TXT
MDEUG9289292201610                D89828070300PT4U20161005000060SPEAKER ASM                   M IMCTM S9TS02 FTTL  07070IMCT  S9 PTB  00015                    0400 SR        000000000000 FUJITSU TEN (THAILAN160B46U0125125160B48U0385385                                                                                                                *          20160930IMF1609307.TXT
MDEUG9289293201610                D89828070300PT4U20161005000030SPEAKER ASM                   M IMCTM S9TS02 FTTL  07070IMCT  S9 PTB  00015                    0900 SR        000000000000 FUJITSU TEN (THAILAN160B45U0056056                                                                                                                              *          20160930IMF1609307.TXT
MDEUG9289294201610                D89828070300PT4U20161005000060SPEAKER ASM                   M IMCTM S9TS02 FTTL  07070IMCT  S9 PTB  00015                    1300 SR        000000000000 FUJITSU TEN (THAILAN160B46U0126126160B48U0386386                                                                                                                *          20160930IMF1609307.TXT
