REC2016100420161004ISUZU                              39     
MDDDGO212649201610                D89821984430PT1D20161008000060RADIO;AM/FM,CD                M IMCTM S5NC06 FTTL  07070IMCT  S5 PTB  00005                    0400 SR        000000000000 FUJITSU TEN (THAILAN170KNDL0017017170KPAL0008008                                                                                                                *          20161004IMF1610045.TXT
MDDDGO212650201610                D89821984430PT1D20161008000030RADIO;AM/FM,CD                M IMCTM S5NC06 FTTL  07070IMCT  S5 PTB  00005                    1600 SR        000000000000 FUJITSU TEN (THAILAN170KNDL0018018                                                                                                                              *          20161004IMF1610045.TXT
MDDDGO212651201610                D89825217900PT1D20161008000030RADIO;AM/FM,CD,D              M IMCTM S5NC06 FTTL  07070IMCT  S5 PTB  00003                    1300 SR        000000000000 FUJITSU TEN (THAILAN170KPJL0002002                                                                                                                              *          20161004IMF1610045.TXT
MDDDGO212652201610                D89828070100PV1D20161008000120SPEAKER ASM                   M IMCTM S5MB11 FTTL  07070IMCT  S5 PTB  00004                    0400 SR        000000000000 FUJITSU TEN (THAILAN170KNDL0017017170KPAL0008008                                                                                                                *          20161004IMF1610045.TXT
MDDDGO212653201610                D89828070100PV1D20161008000060SPEAKER ASM                   M IMCTM S5MB11 FTTL  07070IMCT  S5 PTB  00004                    0900 SR        000000000000 FUJITSU TEN (THAILAN170KPCL0005005                                                                                                                              *          20161004IMF1610045.TXT
MDDDGO212654201610                D89828070100PV1D20161008000120SPEAKER ASM                   M IMCTM S5MB11 FTTL  07070IMCT  S5 PTB  00004                    1300 SR        000000000000 FUJITSU TEN (THAILAN170KPJL0002002170KRRL0008008                                                                                                                *          20161004IMF1610045.TXT
MDDDGO212655201610                D89828070100PV1D20161008000060SPEAKER ASM                   M IMCTM S5MB11 FTTL  07070IMCT  S5 PTB  00004                    1600 SR        000000000000 FUJITSU TEN (THAILAN170KNDL0018018                                                                                                                              *          20161004IMF1610045.TXT
MDDDGO212656201610                D89828070200PV1D20161008000060SPEAKER ASM                   M IMCTM S5MA14 FTTL  07070IMCT  S5 PTB  00005                    1300 SR        000000000000 FUJITSU TEN (THAILAN170KRRL0008008                                                                                                                              *          20161004IMF1610045.TXT
MDDDGO212657201610                D89828070300PT1D20161008000060SPEAKER ASM                   M IMCTM S5NB042FTTL  07070IMCT  S5 PTB  00015                    0900 SR        000000000000 FUJITSU TEN (THAILAN170KPCL0005005                                                                                                                              *          20161004IMF1610045.TXT
MDDDGO212658201610                D89828070300PT1D20161008000120SPEAKER ASM                   M IMCTM S5NB042FTTL  07070IMCT  S5 PTB  00015                    1300 SR        000000000000 FUJITSU TEN (THAILAN170KPJL0002002170KRRL0008008                                                                                                                *          20161004IMF1610045.TXT
MDDDGO212659201610                D89831228300PT1D20161008000030RADIO;AM/FM,CD                M IMCTM S5NC06 FTTL  07070IMCT  S5 CPB  00003                    0900 SR        000000000000 FUJITSU TEN (THAILAN170KPCL0005005                                                                                                                              *          20161004IMF1610045.TXT
MDEDGO209449201610                D89805293700PV1D20161007000060SPEAKER ASM                   M IMCTM S5MB11 FTTL  07070IMCT  S5 PTB  00003                    2230 SR        000000000000 FUJITSU TEN (THAILAN15019FL011311315028BL0038038                                                                                                                *          20161004IMF1610045.TXT
MDEDGO209450201610                D89805293700PV1D20161008000060SPEAKER ASM                   M IMCTM S5MB11 FTTL  07070IMCT  S5 PTB  00003                    0230 SR        000000000000 FUJITSU TEN (THAILAN15029BL000700715030BL0016016                                                                                                                *          20161004IMF1610045.TXT
MDEDGO209451201610                D89805294000PT1D20161007000030SPEAKER ASM                   M IMCTM S5NB042FTTL  07070IMCT  S5 PTB  00015                    2230 SR        000000000000 FUJITSU TEN (THAILAN15028BL0038038                                                                                                                              *          20161004IMF1610045.TXT
MDEDGO209452201610                D89805294000PT1D20161008000060SPEAKER ASM                   M IMCTM S5NB042FTTL  07070IMCT  S5 PTB  00015                    0230 SR        000000000000 FUJITSU TEN (THAILAN15029BL000700715030BL0016016                                                                                                                *          20161004IMF1610045.TXT
MDEDGO209453201610                D89805294100PV1D20161007000030SPEAKER ASM                   M IMCTM S5MA14 FTTL  07070IMCT  S5 PTB  00005                    2230 SR        000000000000 FUJITSU TEN (THAILAN15028BL0038038                                                                                                                              *          20161004IMF1610045.TXT
MDEDGO209454201610                D89805294100PV1D20161008000060SPEAKER ASM                   M IMCTM S5MA14 FTTL  07070IMCT  S5 PTB  00005                    0230 SR        000000000000 FUJITSU TEN (THAILAN15029BL000700715030BL0016016                                                                                                                *          20161004IMF1610045.TXT
MDEDGO209455201610                D89828070100PV1D20161007000090SPEAKER ASM                   M IMCTM S5MB11 FTTL  07070IMCT  S5 PTB  00004                    2230 SR        000000000000 FUJITSU TEN (THAILAN16058JL000100116072LL002002016081HL0122122                                                                                                  *          20161004IMF1610045.TXT
MDEDGO209456201610                D89828070100PV1D20161008000030SPEAKER ASM                   M IMCTM S5MB11 FTTL  07070IMCT  S5 PTB  00004                    0400 SR        000000000000 FUJITSU TEN (THAILAN16081HL0123123                                                                                                                              *          20161004IMF1610045.TXT
MDEDGO209457201610                D89828070100PV1D20161008000030SPEAKER ASM                   M IMCTM S5MB11 FTTL  07070IMCT  S5 PTB  00004                    0900 SR        000000000000 FUJITSU TEN (THAILAN16081HL0124124                                                                                                                              *          20161004IMF1610045.TXT
MDEDGO209458201610                D89828070100PV1D20161008000030SPEAKER ASM                   M IMCTM S5MB11 FTTL  07070IMCT  S5 PTB  00004                    1300 SR        000000000000 FUJITSU TEN (THAILAN16081HL0125125                                                                                                                              *          20161004IMF1610045.TXT
MDEDGO209459201610                D89828070200PV1D20161007000030SPEAKER ASM                   M IMCTM S5MA14 FTTL  07070IMCT  S5 PTB  00005                    2230 SR        000000000000 FUJITSU TEN (THAILAN16058JL0001001                                                                                                                              *          20161004IMF1610045.TXT
MDEDGO209460201610                D89828070300PT1D20161007000030SPEAKER ASM                   M IMCTM S5NB042FTTL  07070IMCT  S5 PTB  00015                    2230 SR        000000000000 FUJITSU TEN (THAILAN16058JL0001001                                                                                                                              *          20161004IMF1610045.TXT
MDEDGO209461201610                D89829645400PT1D20161007000015RADIO;ASM DVD                 M IMCTM S5NC06 FTTL  07070IMCT  S5 PTB  00003                    2230 SR        000000000000 FUJITSU TEN (THAILAN16058JL0001001                                                                                                                              *          20161004IMF1610045.TXT
MDEUGO209495201610                D89828070100PT4U20161007000060SPEAKER ASM                   M IMCTM S0FL05 FTTL  07070IMCT  S0 PTB  00004                    2230 SR        000000000000 FUJITSU TEN (THAILAN160B48U0393393160C01U0017017                                                                                                                *          20161004IMF1610045.TXT
MDEUGO209496201610                D89828070100PT4U20161008000060SPEAKER ASM                   M IMCTM S0FL05 FTTL  07070IMCT  S0 PTB  00004                    0230 SR        000000000000 FUJITSU TEN (THAILAN160B48U0394395                                                                                                                              *          20161004IMF1610045.TXT
MDEUGO209497201610                D89828070100PT4U20161008000030SPEAKER ASM                   M IMCTM S0FL05 FTTL  07070IMCT  S0 PTB  00004                    0900 SR        000000000000 FUJITSU TEN (THAILAN160B46U0130130                                                                                                                              *          20161004IMF1610045.TXT
MDEUGO209498201610                D89828070100PT4U20161008000030SPEAKER ASM                   M IMCTM S0FL05 FTTL  07070IMCT  S0 PTB  00004                    1600 SR        000000000000 FUJITSU TEN (THAILAN160C01U0018018                                                                                                                              *          20161004IMF1610045.TXT
MDEUGO209499201610                D89828070100PT4U20161008000030SPEAKER ASM                   M IMCTM S0FL05 FTTL  07070IMCT  S0 PTB  00004                    2100 SR        000000000000 FUJITSU TEN (THAILAN160B48U0396396                                                                                                                              *          20161004IMF1610045.TXT
MDEUGO209500201610                D89828070200PV4U20161007000060SPEAKER ASM                   M IMCTM S0FR05 FTTL  07070IMCT  S0 PTB  00005                    2230 SR        000000000000 FUJITSU TEN (THAILAN160B48U0393393160C01U0017017                                                                                                                *          20161004IMF1610045.TXT
MDEUGO209501201610                D89828070200PV4U20161008000060SPEAKER ASM                   M IMCTM S0FR05 FTTL  07070IMCT  S0 PTB  00005                    0230 SR        000000000000 FUJITSU TEN (THAILAN160B48U0394395                                                                                                                              *          20161004IMF1610045.TXT
MDEUGO209502201610                D89828070200PV4U20161008000030SPEAKER ASM                   M IMCTM S0FR05 FTTL  07070IMCT  S0 PTB  00005                    0900 SR        000000000000 FUJITSU TEN (THAILAN160B46U0130130                                                                                                                              *          20161004IMF1610045.TXT
MDEUGO209503201610                D89828070200PV4U20161008000030SPEAKER ASM                   M IMCTM S0FR05 FTTL  07070IMCT  S0 PTB  00005                    1600 SR        000000000000 FUJITSU TEN (THAILAN160C01U0018018                                                                                                                              *          20161004IMF1610045.TXT
MDEUGO209504201610                D89828070200PV4U20161008000030SPEAKER ASM                   M IMCTM S0FR05 FTTL  07070IMCT  S0 PTB  00005                    2100 SR        000000000000 FUJITSU TEN (THAILAN160B48U0396396                                                                                                                              *          20161004IMF1610045.TXT
MDEUGO209505201610                D89828070300PT4U20161007000060SPEAKER ASM                   M IMCTM S9TS02 FTTL  07070IMCT  S9 PTB  00015                    2230 SR        000000000000 FUJITSU TEN (THAILAN160B48U0393393160C01U0017017                                                                                                                *          20161004IMF1610045.TXT
MDEUGO209506201610                D89828070300PT4U20161008000060SPEAKER ASM                   M IMCTM S9TS02 FTTL  07070IMCT  S9 PTB  00015                    0230 SR        000000000000 FUJITSU TEN (THAILAN160B48U0394395                                                                                                                              *          20161004IMF1610045.TXT
MDEUGO209507201610                D89828070300PT4U20161008000030SPEAKER ASM                   M IMCTM S9TS02 FTTL  07070IMCT  S9 PTB  00015                    0900 SR        000000000000 FUJITSU TEN (THAILAN160B46U0130130                                                                                                                              *          20161004IMF1610045.TXT
MDEUGO209508201610                D89828070300PT4U20161008000030SPEAKER ASM                   M IMCTM S9TS02 FTTL  07070IMCT  S9 PTB  00015                    1600 SR        000000000000 FUJITSU TEN (THAILAN160C01U0018018                                                                                                                              *          20161004IMF1610045.TXT
MDEUGO209509201610                D89828070300PT4U20161008000030SPEAKER ASM                   M IMCTM S9TS02 FTTL  07070IMCT  S9 PTB  00015                    2100 SR        000000000000 FUJITSU TEN (THAILAN160B48U0396396                                                                                                                              *          20161004IMF1610045.TXT
