REC2016102020161020ISUZU                              40     
MDDDGO292353201610                D89821984430PT1D20161026000030RADIO;AM/FM,CD                M IMCTM S5NC06 FTTL  07070IMCT  S5 PTB  00005                    2230 SR        000000000000 FUJITSU TEN (THAILAN170KNDL0033033                                                                                                                              *          20161020IMF1610205.TXT
MDDDGO292354201610                D89821984430PT1D20161027000030RADIO;AM/FM,CD                M IMCTM S5NC06 FTTL  07070IMCT  S5 PTB  00005                    0400 SR        000000000000 FUJITSU TEN (THAILAN170KNEL0017017                                                                                                                              *          20161020IMF1610205.TXT
MDDDGO292355201610                D89821984430PT1D20161027000030RADIO;AM/FM,CD                M IMCTM S5NC06 FTTL  07070IMCT  S5 PTB  00005                    1300 SR        000000000000 FUJITSU TEN (THAILAN170KNDL0034034                                                                                                                              *          20161020IMF1610205.TXT
MDDDGO292356201610                D89828070100PV1D20161026000180SPEAKER ASM                   M IMCTM S5MB11 FTTL  07070IMCT  S5 PTB  00004                    2230 SR        000000000000 FUJITSU TEN (THAILAN170KNDL0033033170KPCL0012012170KPHL0010010                                                                                                  *          20161020IMF1610205.TXT
MDDDGO292357201610                D89828070100PV1D20161027000060SPEAKER ASM                   M IMCTM S5MB11 FTTL  07070IMCT  S5 PTB  00004                    0400 SR        000000000000 FUJITSU TEN (THAILAN170KNEL0017017                                                                                                                              *          20161020IMF1610205.TXT
MDDDGO292358201610                D89828070100PV1D20161027000120SPEAKER ASM                   M IMCTM S5MB11 FTTL  07070IMCT  S5 PTB  00004                    0900 SR        000000000000 FUJITSU TEN (THAILAN170KPFL0029030                                                                                                                              *          20161020IMF1610205.TXT
MDDDGO292359201610                D89828070100PV1D20161027000180SPEAKER ASM                   M IMCTM S5MB11 FTTL  07070IMCT  S5 PTB  00004                    1300 SR        000000000000 FUJITSU TEN (THAILAN170KNDL0034034170KPFL0031031170KRQL0004004                                                                                                  *          20161020IMF1610205.TXT
MDDDGO292360201610                D89828070200PV1D20161027000060SPEAKER ASM                   M IMCTM S5MA14 FTTL  07070IMCT  S5 PTB  00005                    1300 SR        000000000000 FUJITSU TEN (THAILAN170KRQL0004004                                                                                                                              *          20161020IMF1610205.TXT
MDDDGO292361201610                D89828070300PT1D20161026000120SPEAKER ASM                   M IMCTM S5NB042FTTL  07070IMCT  S5 PTB  00015                    2230 SR        000000000000 FUJITSU TEN (THAILAN170KPCL0012012170KPHL0010010                                                                                                                *          20161020IMF1610205.TXT
MDDDGO292362201610                D89828070300PT1D20161027000120SPEAKER ASM                   M IMCTM S5NB042FTTL  07070IMCT  S5 PTB  00015                    0900 SR        000000000000 FUJITSU TEN (THAILAN170KPFL0029030                                                                                                                              *          20161020IMF1610205.TXT
MDDDGO292363201610                D89828070300PT1D20161027000120SPEAKER ASM                   M IMCTM S5NB042FTTL  07070IMCT  S5 PTB  00015                    1300 SR        000000000000 FUJITSU TEN (THAILAN170KPFL0031031170KRQL0004004                                                                                                                *          20161020IMF1610205.TXT
MDDDGO292364201610                D89831228300PT1D20161026000060RADIO;AM/FM,CD                M IMCTM S5NC06 FTTL  07070IMCT  S5 CPB  00003                    2230 SR        000000000000 FUJITSU TEN (THAILAN170KPCL0012012170KPHL0010010                                                                                                                *          20161020IMF1610205.TXT
MDDDGO292365201610                D89831228300PT1D20161027000060RADIO;AM/FM,CD                M IMCTM S5NC06 FTTL  07070IMCT  S5 CPB  00003                    0900 SR        000000000000 FUJITSU TEN (THAILAN170KPFL0029030                                                                                                                              *          20161020IMF1610205.TXT
MDDDGO292366201610                D89831228300PT1D20161027000030RADIO;AM/FM,CD                M IMCTM S5NC06 FTTL  07070IMCT  S5 CPB  00003                    1300 SR        000000000000 FUJITSU TEN (THAILAN170KPFL0031031                                                                                                                              *          20161020IMF1610205.TXT
MDDUGO233502201610                D89828070100PT4U20161027000060SPEAKER ASM                   M IMCTM S0FL05 FTTL  07070IMCT  S0 PTB  00004                    1300 SR        000000000000 FUJITSU TEN (THAILAN170KUAU0007007170KUCU0018018                                                                                                                *          20161020IMF1610205.TXT
MDDUGO233503201610                D89828070200PV4U20161027000060SPEAKER ASM                   M IMCTM S0FR05 FTTL  07070IMCT  S0 PTB  00005                    1300 SR        000000000000 FUJITSU TEN (THAILAN170KUAU0007007170KUCU0018018                                                                                                                *          20161020IMF1610205.TXT
MDDUGO233504201610                D89828070300PT4U20161027000060SPEAKER ASM                   M IMCTM S9TS02 FTTL  07070IMCT  S9 PTB  00015                    1300 SR        000000000000 FUJITSU TEN (THAILAN170KUAU0007007170KUCU0018018                                                                                                                *          20161020IMF1610205.TXT
MDDUGO233505201610                D89829093500PT4U20161027000015RADIO;ASM DVD (T              M IMCTM S9CO001FTTL  07070IMCT  S9 PTB  00003                    1300 SR        000000000000 FUJITSU TEN (THAILAN170KUCU0018018                                                                                                                              *          20161020IMF1610205.TXT
MDDUGO233506201610                D89831228400PT4U20161027000015RADIO;AM/FM,CD                M IMCTM S9CO001FTTL  07070IMCT  S9 CPB  00003                    1300 SR        000000000000 FUJITSU TEN (THAILAN170KUAU0007007                                                                                                                              *          20161020IMF1610205.TXT
MDEDGO244386201610                D89805293700PV1D20161026000060SPEAKER ASM                   M IMCTM S5MB11 FTTL  07070IMCT  S5 PTB  00003                    2100 SR        000000000000 FUJITSU TEN (THAILAN15019FL0125126                                                                                                                              *          20161020IMF1610205.TXT
MDEDGO244387201610                D89805293700PV1D20161027000030SPEAKER ASM                   M IMCTM S5MB11 FTTL  07070IMCT  S5 PTB  00003                    2100 SR        000000000000 FUJITSU TEN (THAILAN15019FL0127127                                                                                                                              *          20161020IMF1610205.TXT
MDEDGO244388201610                D89828070100PV1D20161027000030SPEAKER ASM                   M IMCTM S5MB11 FTTL  07070IMCT  S5 PTB  00004                    0230 SR        000000000000 FUJITSU TEN (THAILAN16083KL0039039                                                                                                                              *          20161020IMF1610205.TXT
MDEDGO244389201610                D89828070100PV1D20161027000030SPEAKER ASM                   M IMCTM S5MB11 FTTL  07070IMCT  S5 PTB  00004                    0400 SR        000000000000 FUJITSU TEN (THAILAN16083KL0040040                                                                                                                              *          20161020IMF1610205.TXT
MDEDGO244390201610                D89828070100PV4D20161026000030SPEAKER ASM                   M IMCTM S0FL05 FTTL  07070IMCT  S0 PTB  00004                    2230 SR        000000000000 FUJITSU TEN (THAILAN16083KU0011011                                                                                                                              *          20161020IMF1610205.TXT
MDEDGO244391201610                D89828070100PV4D20161027000030SPEAKER ASM                   M IMCTM S0FL05 FTTL  07070IMCT  S0 PTB  00004                    1300 SR        000000000000 FUJITSU TEN (THAILAN16083KU0012012                                                                                                                              *          20161020IMF1610205.TXT
MDEUGO263656201610                D89828070100PT4U20161026000060SPEAKER ASM                   M IMCTM S0FL05 FTTL  07070IMCT  S0 PTB  00004                    2230 SR        000000000000 FUJITSU TEN (THAILAN160B46U0160160160B48U0434434                                                                                                                *          20161020IMF1610205.TXT
MDEUGO263657201610                D89828070100PT4U20161027000030SPEAKER ASM                   M IMCTM S0FL05 FTTL  07070IMCT  S0 PTB  00004                    0230 SR        000000000000 FUJITSU TEN (THAILAN160B46U0161161                                                                                                                              *          20161020IMF1610205.TXT
MDEUGO263658201610                D89828070100PT4U20161027000060SPEAKER ASM                   M IMCTM S0FL05 FTTL  07070IMCT  S0 PTB  00004                    0400 SR        000000000000 FUJITSU TEN (THAILAN160B46U0162162160B48U0435435                                                                                                                *          20161020IMF1610205.TXT
MDEUGO263659201610                D89828070100PT4U20161027000030SPEAKER ASM                   M IMCTM S0FL05 FTTL  07070IMCT  S0 PTB  00004                    0900 SR        000000000000 FUJITSU TEN (THAILAN160B46U0163163                                                                                                                              *          20161020IMF1610205.TXT
MDEUGO263660201610                D89828070100PT4U20161027000030SPEAKER ASM                   M IMCTM S0FL05 FTTL  07070IMCT  S0 PTB  00004                    1600 SR        000000000000 FUJITSU TEN (THAILAN160B48U0436436                                                                                                                              *          20161020IMF1610205.TXT
MDEUGO263661201610                D89828070200PV4U20161026000060SPEAKER ASM                   M IMCTM S0FR05 FTTL  07070IMCT  S0 PTB  00005                    2230 SR        000000000000 FUJITSU TEN (THAILAN160B46U0160160160B48U0434434                                                                                                                *          20161020IMF1610205.TXT
MDEUGO263662201610                D89828070200PV4U20161027000030SPEAKER ASM                   M IMCTM S0FR05 FTTL  07070IMCT  S0 PTB  00005                    0230 SR        000000000000 FUJITSU TEN (THAILAN160B46U0161161                                                                                                                              *          20161020IMF1610205.TXT
MDEUGO263663201610                D89828070200PV4U20161027000060SPEAKER ASM                   M IMCTM S0FR05 FTTL  07070IMCT  S0 PTB  00005                    0400 SR        000000000000 FUJITSU TEN (THAILAN160B46U0162162160B48U0435435                                                                                                                *          20161020IMF1610205.TXT
MDEUGO263664201610                D89828070200PV4U20161027000030SPEAKER ASM                   M IMCTM S0FR05 FTTL  07070IMCT  S0 PTB  00005                    0900 SR        000000000000 FUJITSU TEN (THAILAN160B46U0163163                                                                                                                              *          20161020IMF1610205.TXT
MDEUGO263665201610                D89828070200PV4U20161027000030SPEAKER ASM                   M IMCTM S0FR05 FTTL  07070IMCT  S0 PTB  00005                    1600 SR        000000000000 FUJITSU TEN (THAILAN160B48U0436436                                                                                                                              *          20161020IMF1610205.TXT
MDEUGO263666201610                D89828070300PT4U20161026000060SPEAKER ASM                   M IMCTM S9TS02 FTTL  07070IMCT  S9 PTB  00015                    2230 SR        000000000000 FUJITSU TEN (THAILAN160B46U0160160160B48U0434434                                                                                                                *          20161020IMF1610205.TXT
MDEUGO263667201610                D89828070300PT4U20161027000030SPEAKER ASM                   M IMCTM S9TS02 FTTL  07070IMCT  S9 PTB  00015                    0230 SR        000000000000 FUJITSU TEN (THAILAN160B46U0161161                                                                                                                              *          20161020IMF1610205.TXT
MDEUGO263668201610                D89828070300PT4U20161027000060SPEAKER ASM                   M IMCTM S9TS02 FTTL  07070IMCT  S9 PTB  00015                    0400 SR        000000000000 FUJITSU TEN (THAILAN160B46U0162162160B48U0435435                                                                                                                *          20161020IMF1610205.TXT
MDEUGO263669201610                D89828070300PT4U20161027000030SPEAKER ASM                   M IMCTM S9TS02 FTTL  07070IMCT  S9 PTB  00015                    0900 SR        000000000000 FUJITSU TEN (THAILAN160B46U0163163                                                                                                                              *          20161020IMF1610205.TXT
MDEUGO263670201610                D89828070300PT4U20161027000030SPEAKER ASM                   M IMCTM S9TS02 FTTL  07070IMCT  S9 PTB  00015                    1600 SR        000000000000 FUJITSU TEN (THAILAN160B48U0436436                                                                                                                              *          20161020IMF1610205.TXT
