REC2016102520161025ISUZU                              42     
MDDDGO304368201610                D89821984430PT1D20161028000060RADIO;AM/FM,CD                M IMCTM S5NC06 FTTL  07070IMCT  S5 PTB  00005                    2230 SR        000000000000 FUJITSU TEN (THAILAN170KNDL0037037170KNFL0008008                                                                                                                *          20161025IMF1610255.TXT
MDDDGO304369201610                D89821984430PT1D20161029000060RADIO;AM/FM,CD                M IMCTM S5NC06 FTTL  07070IMCT  S5 PTB  00005                    0400 SR        000000000000 FUJITSU TEN (THAILAN170KNDL0038038170KPAL0025025                                                                                                                *          20161025IMF1610255.TXT
MDDDGO304370201610                D89821984430PT1D20161029000030RADIO;AM/FM,CD                M IMCTM S5NC06 FTTL  07070IMCT  S5 PTB  00005                    0900 SR        000000000000 FUJITSU TEN (THAILAN170KRAL0005005                                                                                                                              *          20161025IMF1610255.TXT
MDDDGO304371201610                D89825217900PT1D20161029000030RADIO;AM/FM,CD,D              M IMCTM S5NC06 FTTL  07070IMCT  S5 PTB  00003                    0900 SR        000000000000 FUJITSU TEN (THAILAN170KPKL0002002                                                                                                                              *          20161025IMF1610255.TXT
MDDDGO304372201610                D89828070100PV1D20161028000180SPEAKER ASM                   M IMCTM S5MB11 FTTL  07070IMCT  S5 PTB  00004                    2230 SR        000000000000 FUJITSU TEN (THAILAN170KNDL0037037170KNFL0008008170KRHL0002002                                                                                                  *          20161025IMF1610255.TXT
MDDDGO304373201610                D89828070100PV1D20161029000060SPEAKER ASM                   M IMCTM S5MB11 FTTL  07070IMCT  S5 PTB  00004                    0230 SR        000000000000 FUJITSU TEN (THAILAN170KPCL0014014                                                                                                                              *          20161025IMF1610255.TXT
MDDDGO304374201610                D89828070100PV1D20161029000120SPEAKER ASM                   M IMCTM S5MB11 FTTL  07070IMCT  S5 PTB  00004                    0400 SR        000000000000 FUJITSU TEN (THAILAN170KNDL0038038170KPAL0025025                                                                                                                *          20161025IMF1610255.TXT
MDDDGO304375201610                D89828070100PV1D20161029000120SPEAKER ASM                   M IMCTM S5MB11 FTTL  07070IMCT  S5 PTB  00004                    0900 SR        000000000000 FUJITSU TEN (THAILAN170KPKL0002002170KRAL0005005                                                                                                                *          20161025IMF1610255.TXT
MDDDGO304376201610                D89828070100PV1D20161029000060SPEAKER ASM                   M IMCTM S5MB11 FTTL  07070IMCT  S5 PTB  00004                    1300 SR        000000000000 FUJITSU TEN (THAILAN170KRSL0019019                                                                                                                              *          20161025IMF1610255.TXT
MDDDGO304377201610                D89828070200PV1D20161028000060SPEAKER ASM                   M IMCTM S5MA14 FTTL  07070IMCT  S5 PTB  00005                    2230 SR        000000000000 FUJITSU TEN (THAILAN170KRHL0002002                                                                                                                              *          20161025IMF1610255.TXT
MDDDGO304378201610                D89828070200PV1D20161029000060SPEAKER ASM                   M IMCTM S5MA14 FTTL  07070IMCT  S5 PTB  00005                    1300 SR        000000000000 FUJITSU TEN (THAILAN170KRSL0019019                                                                                                                              *          20161025IMF1610255.TXT
MDDDGO304379201610                D89828070300PT1D20161028000060SPEAKER ASM                   M IMCTM S5NB042FTTL  07070IMCT  S5 PTB  00015                    2230 SR        000000000000 FUJITSU TEN (THAILAN170KRHL0002002                                                                                                                              *          20161025IMF1610255.TXT
MDDDGO304380201610                D89828070300PT1D20161029000060SPEAKER ASM                   M IMCTM S5NB042FTTL  07070IMCT  S5 PTB  00015                    0230 SR        000000000000 FUJITSU TEN (THAILAN170KPCL0014014                                                                                                                              *          20161025IMF1610255.TXT
MDDDGO304381201610                D89828070300PT1D20161029000060SPEAKER ASM                   M IMCTM S5NB042FTTL  07070IMCT  S5 PTB  00015                    0900 SR        000000000000 FUJITSU TEN (THAILAN170KPKL0002002                                                                                                                              *          20161025IMF1610255.TXT
MDDDGO304382201610                D89828070300PT1D20161029000060SPEAKER ASM                   M IMCTM S5NB042FTTL  07070IMCT  S5 PTB  00015                    1300 SR        000000000000 FUJITSU TEN (THAILAN170KRSL0019019                                                                                                                              *          20161025IMF1610255.TXT
MDDDGO304383201610                D89831228300PT1D20161029000030RADIO;AM/FM,CD                M IMCTM S5NC06 FTTL  07070IMCT  S5 CPB  00003                    0230 SR        000000000000 FUJITSU TEN (THAILAN170KPCL0014014                                                                                                                              *          20161025IMF1610255.TXT
MDDUGO237490201610                D89828070100PT4U20161029000030SPEAKER ASM                   M IMCTM S0FL05 FTTL  07070IMCT  S0 PTB  00004                    1300 SR        000000000000 FUJITSU TEN (THAILAN170KUCU0020020                                                                                                                              *          20161025IMF1610255.TXT
MDDUGO237491201610                D89828070200PV4U20161029000030SPEAKER ASM                   M IMCTM S0FR05 FTTL  07070IMCT  S0 PTB  00005                    1300 SR        000000000000 FUJITSU TEN (THAILAN170KUCU0020020                                                                                                                              *          20161025IMF1610255.TXT
MDDUGO237492201610                D89828070300PT4U20161029000030SPEAKER ASM                   M IMCTM S9TS02 FTTL  07070IMCT  S9 PTB  00015                    1300 SR        000000000000 FUJITSU TEN (THAILAN170KUCU0020020                                                                                                                              *          20161025IMF1610255.TXT
MDDUGO237493201610                D89829093500PT4U20161029000015RADIO;ASM DVD (T              M IMCTM S9CO001FTTL  07070IMCT  S9 PTB  00003                    1300 SR        000000000000 FUJITSU TEN (THAILAN170KUCU0020020                                                                                                                              *          20161025IMF1610255.TXT
MDEDGO250998201610                D89828070100PV1D20161029000060SPEAKER ASM                   M IMCTM S5MB11 FTTL  07070IMCT  S5 PTB  00004                    1300 SR        000000000000 FUJITSU TEN (THAILAN16083HL0001002                                                                                                                              *          20161025IMF1610255.TXT
MDEDGO250999201610                D89828070100PV1D20161029000030SPEAKER ASM                   M IMCTM S5MB11 FTTL  07070IMCT  S5 PTB  00004                    1600 SR        000000000000 FUJITSU TEN (THAILAN16012JL0001001                                                                                                                              *          20161025IMF1610255.TXT
MDEDGO251000201610                D89828070100PV4D20161028000030SPEAKER ASM                   M IMCTM S0FL05 FTTL  07070IMCT  S0 PTB  00004                    2230 SR        000000000000 FUJITSU TEN (THAILAN16083KU0016016                                                                                                                              *          20161025IMF1610255.TXT
MDEDGO251001201610                D89828070100PV4D20161029000030SPEAKER ASM                   M IMCTM S0FL05 FTTL  07070IMCT  S0 PTB  00004                    0900 SR        000000000000 FUJITSU TEN (THAILAN16035KU0001001                                                                                                                              *          20161025IMF1610255.TXT
MDEDGO251002201610                D89828070200PV4D20161029000030SPEAKER ASM                   M IMCTM S0FR05 FTTL  07070IMCT  S0 PTB  00005                    0900 SR        000000000000 FUJITSU TEN (THAILAN16035KU0001001                                                                                                                              *          20161025IMF1610255.TXT
MDEDGO251003201610                D89828070300PT4D20161029000030SPEAKER ASM                   M IMCTM S9TS02 FTTL  07070IMCT  S9 PTB  00015                    0900 SR        000000000000 FUJITSU TEN (THAILAN16035KU0001001                                                                                                                              *          20161025IMF1610255.TXT
MDEDGO251004201610                D89831229000PT4D20161029000015RADIO;AM/FM,CD                M IMCTM S9CO001FTTL  07070IMCT  S9 PTB  00003                    0900 SR        000000000000 FUJITSU TEN (THAILAN16035KU0001001                                                                                                                              *          20161025IMF1610255.TXT
MDEUGO272244201610                D89828070100PT4U20161028000030SPEAKER ASM                   M IMCTM S0FL05 FTTL  07070IMCT  S0 PTB  00004                    2100 SR        000000000000 FUJITSU TEN (THAILAN160B46U0167167                                                                                                                              *          20161025IMF1610255.TXT
MDEUGO272245201610                D89828070100PT4U20161028000030SPEAKER ASM                   M IMCTM S0FL05 FTTL  07070IMCT  S0 PTB  00004                    2230 SR        000000000000 FUJITSU TEN (THAILAN160B48U0441441                                                                                                                              *          20161025IMF1610255.TXT
MDEUGO272246201610                D89828070100PT4U20161029000060SPEAKER ASM                   M IMCTM S0FL05 FTTL  07070IMCT  S0 PTB  00004                    0230 SR        000000000000 FUJITSU TEN (THAILAN160B46U0168168160B48U0442442                                                                                                                *          20161025IMF1610255.TXT
MDEUGO272247201610                D89828070100PT4U20161029000030SPEAKER ASM                   M IMCTM S0FL05 FTTL  07070IMCT  S0 PTB  00004                    0900 SR        000000000000 FUJITSU TEN (THAILAN160B46U0169169                                                                                                                              *          20161025IMF1610255.TXT
MDEUGO272248201610                D89828070100PT4U20161029000060SPEAKER ASM                   M IMCTM S0FL05 FTTL  07070IMCT  S0 PTB  00004                    1300 SR        000000000000 FUJITSU TEN (THAILAN160B48U0443443170C13U0001001                                                                                                                *          20161025IMF1610255.TXT
MDEUGO272249201610                D89828070200PV4U20161028000030SPEAKER ASM                   M IMCTM S0FR05 FTTL  07070IMCT  S0 PTB  00005                    2100 SR        000000000000 FUJITSU TEN (THAILAN160B46U0167167                                                                                                                              *          20161025IMF1610255.TXT
MDEUGO272250201610                D89828070200PV4U20161028000030SPEAKER ASM                   M IMCTM S0FR05 FTTL  07070IMCT  S0 PTB  00005                    2230 SR        000000000000 FUJITSU TEN (THAILAN160B48U0441441                                                                                                                              *          20161025IMF1610255.TXT
MDEUGO272251201610                D89828070200PV4U20161029000060SPEAKER ASM                   M IMCTM S0FR05 FTTL  07070IMCT  S0 PTB  00005                    0230 SR        000000000000 FUJITSU TEN (THAILAN160B46U0168168160B48U0442442                                                                                                                *          20161025IMF1610255.TXT
MDEUGO272252201610                D89828070200PV4U20161029000030SPEAKER ASM                   M IMCTM S0FR05 FTTL  07070IMCT  S0 PTB  00005                    0900 SR        000000000000 FUJITSU TEN (THAILAN160B46U0169169                                                                                                                              *          20161025IMF1610255.TXT
MDEUGO272253201610                D89828070200PV4U20161029000060SPEAKER ASM                   M IMCTM S0FR05 FTTL  07070IMCT  S0 PTB  00005                    1300 SR        000000000000 FUJITSU TEN (THAILAN160B48U0443443170C13U0001001                                                                                                                *          20161025IMF1610255.TXT
MDEUGO272254201610                D89828070300PT4U20161028000030SPEAKER ASM                   M IMCTM S9TS02 FTTL  07070IMCT  S9 PTB  00015                    2100 SR        000000000000 FUJITSU TEN (THAILAN160B46U0167167                                                                                                                              *          20161025IMF1610255.TXT
MDEUGO272255201610                D89828070300PT4U20161028000030SPEAKER ASM                   M IMCTM S9TS02 FTTL  07070IMCT  S9 PTB  00015                    2230 SR        000000000000 FUJITSU TEN (THAILAN160B48U0441441                                                                                                                              *          20161025IMF1610255.TXT
MDEUGO272256201610                D89828070300PT4U20161029000060SPEAKER ASM                   M IMCTM S9TS02 FTTL  07070IMCT  S9 PTB  00015                    0230 SR        000000000000 FUJITSU TEN (THAILAN160B46U0168168160B48U0442442                                                                                                                *          20161025IMF1610255.TXT
MDEUGO272257201610                D89828070300PT4U20161029000030SPEAKER ASM                   M IMCTM S9TS02 FTTL  07070IMCT  S9 PTB  00015                    0900 SR        000000000000 FUJITSU TEN (THAILAN160B46U0169169                                                                                                                              *          20161025IMF1610255.TXT
MDEUGO272258201610                D89828070300PT4U20161029000060SPEAKER ASM                   M IMCTM S9TS02 FTTL  07070IMCT  S9 PTB  00015                    1300 SR        000000000000 FUJITSU TEN (THAILAN160B48U0443443170C13U0001001                                                                                                                *          20161025IMF1610255.TXT
