REC2016101020161010ISUZU                              38     
MDDDGO246598201610                D89821984430PT1D20161013000030RADIO;AM/FM,CD                M IMCTM S5NC06 FTTL  07070IMCT  S5 PTB  00005                    2230 SR        000000000000 FUJITSU TEN (THAILAN170KNDL0023023                                                                                                                              *          20161010IMF1610104.TXT
MDDDGO246599201610                D89821984430PT1D20161014000030RADIO;AM/FM,CD                M IMCTM S5NC06 FTTL  07070IMCT  S5 PTB  00005                    0400 SR        000000000000 FUJITSU TEN (THAILAN170KNEL0012012                                                                                                                              *          20161010IMF1610104.TXT
MDDDGO246600201610                D89825217900PT1D20161013000030RADIO;AM/FM,CD,D              M IMCTM S5NC06 FTTL  07070IMCT  S5 PTB  00003                    2230 SR        000000000000 FUJITSU TEN (THAILAN170KPJL0004004                                                                                                                              *          20161010IMF1610104.TXT
MDDDGO246601201610                D89825217900PT1D20161014000030RADIO;AM/FM,CD,D              M IMCTM S5NC06 FTTL  07070IMCT  S5 PTB  00003                    0900 SR        000000000000 FUJITSU TEN (THAILAN170KPJL0005005                                                                                                                              *          20161010IMF1610104.TXT
MDDDGO246602201610                D89828070100PV1D20161013000060SPEAKER ASM                   M IMCTM S5MB11 FTTL  07070IMCT  S5 PTB  00004                    2100 SR        000000000000 FUJITSU TEN (THAILAN170KNAL0005005                                                                                                                              *          20161010IMF1610104.TXT
MDDDGO246603201610                D89828070100PV1D20161013000180SPEAKER ASM                   M IMCTM S5MB11 FTTL  07070IMCT  S5 PTB  00004                    2230 SR        000000000000 FUJITSU TEN (THAILAN170KNDL0023023170KPJL0004004170KREL0008008                                                                                                  *          20161010IMF1610104.TXT
MDDDGO246604201610                D89828070100PV1D20161014000060SPEAKER ASM                   M IMCTM S5MB11 FTTL  07070IMCT  S5 PTB  00004                    0230 SR        000000000000 FUJITSU TEN (THAILAN170KRRL0009009                                                                                                                              *          20161010IMF1610104.TXT
MDDDGO246605201610                D89828070100PV1D20161014000060SPEAKER ASM                   M IMCTM S5MB11 FTTL  07070IMCT  S5 PTB  00004                    0400 SR        000000000000 FUJITSU TEN (THAILAN170KNEL0012012                                                                                                                              *          20161010IMF1610104.TXT
MDDDGO246606201610                D89828070100PV1D20161014000120SPEAKER ASM                   M IMCTM S5MB11 FTTL  07070IMCT  S5 PTB  00004                    0900 SR        000000000000 FUJITSU TEN (THAILAN170KNAL0006006170KPJL0005005                                                                                                                *          20161010IMF1610104.TXT
MDDDGO246607201610                D89828070100PV1D20161014000120SPEAKER ASM                   M IMCTM S5MB11 FTTL  07070IMCT  S5 PTB  00004                    1300 SR        000000000000 FUJITSU TEN (THAILAN170KPFL0019019170KPML0003003                                                                                                                *          20161010IMF1610104.TXT
MDDDGO246608201610                D89828070200PV1D20161013000060SPEAKER ASM                   M IMCTM S5MA14 FTTL  07070IMCT  S5 PTB  00005                    2230 SR        000000000000 FUJITSU TEN (THAILAN170KREL0008008                                                                                                                              *          20161010IMF1610104.TXT
MDDDGO246609201610                D89828070200PV1D20161014000060SPEAKER ASM                   M IMCTM S5MA14 FTTL  07070IMCT  S5 PTB  00005                    0230 SR        000000000000 FUJITSU TEN (THAILAN170KRRL0009009                                                                                                                              *          20161010IMF1610104.TXT
MDDDGO246610201610                D89828070300PT1D20161013000120SPEAKER ASM                   M IMCTM S5NB042FTTL  07070IMCT  S5 PTB  00015                    2230 SR        000000000000 FUJITSU TEN (THAILAN170KPJL0004004170KREL0008008                                                                                                                *          20161010IMF1610104.TXT
MDDDGO246611201610                D89828070300PT1D20161014000060SPEAKER ASM                   M IMCTM S5NB042FTTL  07070IMCT  S5 PTB  00015                    0230 SR        000000000000 FUJITSU TEN (THAILAN170KRRL0009009                                                                                                                              *          20161010IMF1610104.TXT
MDDDGO246612201610                D89828070300PT1D20161014000060SPEAKER ASM                   M IMCTM S5NB042FTTL  07070IMCT  S5 PTB  00015                    0900 SR        000000000000 FUJITSU TEN (THAILAN170KPJL0005005                                                                                                                              *          20161010IMF1610104.TXT
MDDDGO246613201610                D89828070300PT1D20161014000120SPEAKER ASM                   M IMCTM S5NB042FTTL  07070IMCT  S5 PTB  00015                    1300 SR        000000000000 FUJITSU TEN (THAILAN170KPFL0019019170KPML0003003                                                                                                                *          20161010IMF1610104.TXT
MDDDGO246614201610                D89831228300PT1D20161014000030RADIO;AM/FM,CD                M IMCTM S5NC06 FTTL  07070IMCT  S5 CPB  00003                    1300 SR        000000000000 FUJITSU TEN (THAILAN170KPFL0019019                                                                                                                              *          20161010IMF1610104.TXT
MDDDGO246615201610                D89831228400PT1D20161013000030RADIO;AM/FM,CD                M IMCTM S5NC06 FTTL  07070IMCT  S5 CPB  00003                    2230 SR        000000000000 FUJITSU TEN (THAILAN170KREL0008008                                                                                                                              *          20161010IMF1610104.TXT
MDEDGO218636201610                D89805293700PV1D20161014000060SPEAKER ASM                   M IMCTM S5MB11 FTTL  07070IMCT  S5 PTB  00003                    1300 SR        000000000000 FUJITSU TEN (THAILAN15019FL0114115                                                                                                                              *          20161010IMF1610104.TXT
MDEDGO218637201610                D89828070100PV4D20161014000030SPEAKER ASM                   M IMCTM S0FL05 FTTL  07070IMCT  S0 PTB  00004                    0400 SR        000000000000 FUJITSU TEN (THAILAN16038KU0010010                                                                                                                              *          20161010IMF1610104.TXT
MDEDGO218638201610                D89828070200PV4D20161014000030SPEAKER ASM                   M IMCTM S0FR05 FTTL  07070IMCT  S0 PTB  00005                    0400 SR        000000000000 FUJITSU TEN (THAILAN16038KU0010010                                                                                                                              *          20161010IMF1610104.TXT
MDEDGO218639201610                D89828070300PT4D20161014000030SPEAKER ASM                   M IMCTM S9TS02 FTTL  07070IMCT  S9 PTB  00015                    0400 SR        000000000000 FUJITSU TEN (THAILAN16038KU0010010                                                                                                                              *          20161010IMF1610104.TXT
MDEDGO218640201610                D89829645400PT4D20161014000015RADIO;ASM DVD                 M IMCTM S9CO001FTTL  07070IMCT  S9 PTB  00003                    0400 SR        000000000000 FUJITSU TEN (THAILAN16038KU0010010                                                                                                                              *          20161010IMF1610104.TXT
MDEUGO230238201610                D89828070100PT4U20161013000060SPEAKER ASM                   M IMCTM S0FL05 FTTL  07070IMCT  S0 PTB  00004                    2230 SR        000000000000 FUJITSU TEN (THAILAN160B46U0141142                                                                                                                              *          20161010IMF1610104.TXT
MDEUGO230239201610                D89828070100PT4U20161014000030SPEAKER ASM                   M IMCTM S0FL05 FTTL  07070IMCT  S0 PTB  00004                    0230 SR        000000000000 FUJITSU TEN (THAILAN160C01U0023023                                                                                                                              *          20161010IMF1610104.TXT
MDEUGO230240201610                D89828070100PT4U20161014000030SPEAKER ASM                   M IMCTM S0FL05 FTTL  07070IMCT  S0 PTB  00004                    0400 SR        000000000000 FUJITSU TEN (THAILAN160B94U0010010                                                                                                                              *          20161010IMF1610104.TXT
MDEUGO230241201610                D89828070100PT4U20161014000060SPEAKER ASM                   M IMCTM S0FL05 FTTL  07070IMCT  S0 PTB  00004                    0900 SR        000000000000 FUJITSU TEN (THAILAN160B48U0410411                                                                                                                              *          20161010IMF1610104.TXT
MDEUGO230242201610                D89828070100PT4U20161014000030SPEAKER ASM                   M IMCTM S0FL05 FTTL  07070IMCT  S0 PTB  00004                    1300 SR        000000000000 FUJITSU TEN (THAILAN160B48U0412412                                                                                                                              *          20161010IMF1610104.TXT
MDEUGO230243201610                D89828070200PV4U20161013000060SPEAKER ASM                   M IMCTM S0FR05 FTTL  07070IMCT  S0 PTB  00005                    2230 SR        000000000000 FUJITSU TEN (THAILAN160B46U0141142                                                                                                                              *          20161010IMF1610104.TXT
MDEUGO230244201610                D89828070200PV4U20161014000030SPEAKER ASM                   M IMCTM S0FR05 FTTL  07070IMCT  S0 PTB  00005                    0230 SR        000000000000 FUJITSU TEN (THAILAN160C01U0023023                                                                                                                              *          20161010IMF1610104.TXT
MDEUGO230245201610                D89828070200PV4U20161014000030SPEAKER ASM                   M IMCTM S0FR05 FTTL  07070IMCT  S0 PTB  00005                    0400 SR        000000000000 FUJITSU TEN (THAILAN160B94U0010010                                                                                                                              *          20161010IMF1610104.TXT
MDEUGO230246201610                D89828070200PV4U20161014000060SPEAKER ASM                   M IMCTM S0FR05 FTTL  07070IMCT  S0 PTB  00005                    0900 SR        000000000000 FUJITSU TEN (THAILAN160B48U0410411                                                                                                                              *          20161010IMF1610104.TXT
MDEUGO230247201610                D89828070200PV4U20161014000030SPEAKER ASM                   M IMCTM S0FR05 FTTL  07070IMCT  S0 PTB  00005                    1300 SR        000000000000 FUJITSU TEN (THAILAN160B48U0412412                                                                                                                              *          20161010IMF1610104.TXT
MDEUGO230248201610                D89828070300PT4U20161013000060SPEAKER ASM                   M IMCTM S9TS02 FTTL  07070IMCT  S9 PTB  00015                    2230 SR        000000000000 FUJITSU TEN (THAILAN160B46U0141142                                                                                                                              *          20161010IMF1610104.TXT
MDEUGO230249201610                D89828070300PT4U20161014000030SPEAKER ASM                   M IMCTM S9TS02 FTTL  07070IMCT  S9 PTB  00015                    0230 SR        000000000000 FUJITSU TEN (THAILAN160C01U0023023                                                                                                                              *          20161010IMF1610104.TXT
MDEUGO230250201610                D89828070300PT4U20161014000030SPEAKER ASM                   M IMCTM S9TS02 FTTL  07070IMCT  S9 PTB  00015                    0400 SR        000000000000 FUJITSU TEN (THAILAN160B94U0010010                                                                                                                              *          20161010IMF1610104.TXT
MDEUGO230251201610                D89828070300PT4U20161014000060SPEAKER ASM                   M IMCTM S9TS02 FTTL  07070IMCT  S9 PTB  00015                    0900 SR        000000000000 FUJITSU TEN (THAILAN160B48U0410411                                                                                                                              *          20161010IMF1610104.TXT
MDEUGO230252201610                D89828070300PT4U20161014000030SPEAKER ASM                   M IMCTM S9TS02 FTTL  07070IMCT  S9 PTB  00015                    1300 SR        000000000000 FUJITSU TEN (THAILAN160B48U0412412                                                                                                                              *          20161010IMF1610104.TXT
