REC2016102620161026ISUZU                              44     
MAKK6O107921201610D4               89805293700P3YK20161107000210SPEAKER ASM                   M IMCTM CM1    FTTL  07070IMKDC 01   PTB00003  K0                1621DES        000000000000 FUJITSU TEN (THAILAN                                                                                                                                            *G         20161026IMF1610266.TXT
MAKK6O107922201610D4               89805293700P3YK20161108000210SPEAKER ASM                   M IMCTM CM1    FTTL  07070IMKDC 01   PTB00003  K0                1621DES        000000000000 FUJITSU TEN (THAILAN                                                                                                                                            *G         20161026IMF1610266.TXT
MAKK6O107923201610D4               89805293700P3YK20161109000180SPEAKER ASM                   M IMCTM CM1    FTTL  07070IMKDC 01   PTB00003  K0                1621DES        000000000000 FUJITSU TEN (THAILAN                                                                                                                                            *G         20161026IMF1610266.TXT
MAKK6O107924201610D4               89805293700P3YK20161110000210SPEAKER ASM                   M IMCTM CM1    FTTL  07070IMKDC 01   PTB00003  K0                1621DES        000000000000 FUJITSU TEN (THAILAN                                                                                                                                            *G         20161026IMF1610266.TXT
MAKK6O107925201610D4               89805293700P3YK20161111000210SPEAKER ASM                   M IMCTM CM1    FTTL  07070IMKDC 01   PTB00003  K0                1621DES        000000000000 FUJITSU TEN (THAILAN                                                                                                                                            *G         20161026IMF1610266.TXT
MAKK6O107926201610D4               89805293700P3YK20161112000210SPEAKER ASM                   M IMCTM CM1    FTTL  07070IMKDC 01   PTB00003  K0                1621DES        000000000000 FUJITSU TEN (THAILAN                                                                                                                                            *G         20161026IMF1610266.TXT
MAKK6O107927201610D4               89805294000P3YK20161107000060SPEAKER ASM                   M IMCTM CM1    FTTL  07070IMKDC 01   PTB00015  K0                1621DES        000000000000 FUJITSU TEN (THAILAN                                                                                                                                            *G         20161026IMF1610266.TXT
MAKK6O107928201610D4               89805294000P3YK20161108000030SPEAKER ASM                   M IMCTM CM1    FTTL  07070IMKDC 01   PTB00015  K0                1621DES        000000000000 FUJITSU TEN (THAILAN                                                                                                                                            *G         20161026IMF1610266.TXT
MAKK6O107929201610D4               89805294000P3YK20161109000030SPEAKER ASM                   M IMCTM CM1    FTTL  07070IMKDC 01   PTB00015  K0                1621DES        000000000000 FUJITSU TEN (THAILAN                                                                                                                                            *G         20161026IMF1610266.TXT
MAKK6O107930201610D4               89805294000P3YK20161110000090SPEAKER ASM                   M IMCTM CM1    FTTL  07070IMKDC 01   PTB00015  K0                1621DES        000000000000 FUJITSU TEN (THAILAN                                                                                                                                            *G         20161026IMF1610266.TXT
MAKK6O107931201610D4               89805294000P3YK20161111000060SPEAKER ASM                   M IMCTM CM1    FTTL  07070IMKDC 01   PTB00015  K0                1621DES        000000000000 FUJITSU TEN (THAILAN                                                                                                                                            *G         20161026IMF1610266.TXT
MAKK6O107932201610D4               89805294000P3YK20161112000090SPEAKER ASM                   M IMCTM CM1    FTTL  07070IMKDC 01   PTB00015  K0                1621DES        000000000000 FUJITSU TEN (THAILAN                                                                                                                                            *G         20161026IMF1610266.TXT
MAKK6O107933201610D4               89805294100P3YK20161108000030SPEAKER ASM                   M IMCTM CM1    FTTL  07070IMKDC 01   PTB00005  K0                1621DES        000000000000 FUJITSU TEN (THAILAN                                                                                                                                            *G         20161026IMF1610266.TXT
MAKK6O107934201610D4               89805294100P3YK20161109000030SPEAKER ASM                   M IMCTM CM1    FTTL  07070IMKDC 01   PTB00005  K0                1621DES        000000000000 FUJITSU TEN (THAILAN                                                                                                                                            *G         20161026IMF1610266.TXT
MAKK6O107935201610D4               89805294100P3YK20161110000090SPEAKER ASM                   M IMCTM CM1    FTTL  07070IMKDC 01   PTB00005  K0                1621DES        000000000000 FUJITSU TEN (THAILAN                                                                                                                                            *G         20161026IMF1610266.TXT
MAKK6O107936201610D4               89805294100P3YK20161111000060SPEAKER ASM                   M IMCTM CM1    FTTL  07070IMKDC 01   PTB00005  K0                1621DES        000000000000 FUJITSU TEN (THAILAN                                                                                                                                            *G         20161026IMF1610266.TXT
MAKK6O107937201610D4               89805294100P3YK20161112000060SPEAKER ASM                   M IMCTM CM1    FTTL  07070IMKDC 01   PTB00005  K0                1621DES        000000000000 FUJITSU TEN (THAILAN                                                                                                                                            *G         20161026IMF1610266.TXT
MAKK6O107938201610D4               89805294200P3YK20161107000030SPEAKER ASM                   M IMCTM CM1    FTTL  07070IMKDC 01 X    00030  K0                1621DES        000000000000 FUJITSU TEN (THAILAN                                                                                                                                            *G         20161026IMF1610266.TXT
MAKK6O107939201610D4               89805294200P3YK20161112000060SPEAKER ASM                   M IMCTM CM1    FTTL  07070IMKDC 01 X    00030  K0                1621DES        000000000000 FUJITSU TEN (THAILAN                                                                                                                                            *G         20161026IMF1610266.TXT
MAKK6O107940201610D4               89806470400P3YK20161107000015SPEAKER ASM;RDO,              M IMCTM CM1    FTTL  07070IMKDC 01   PTB00015  K0                1621DES        000000000000 FUJITSU TEN (THAILAN                                                                                                                                            *G         20161026IMF1610266.TXT
MAKK6O107941201610D4               89806470400P3YK20161112000030SPEAKER ASM;RDO,              M IMCTM CM1    FTTL  07070IMKDC 01   PTB00015  K0                1621DES        000000000000 FUJITSU TEN (THAILAN                                                                                                                                            *G         20161026IMF1610266.TXT
MAKK6O107942201610D4               89825451200P3YK20161107000060SPEAKER ASM;ROOF              M IMCTM CM1    FTTL  07070IMKDC 01   PTB00015  K0                1621DES        000000000000 FUJITSU TEN (THAILAN                                                                                                                                            *G         20161026IMF1610266.TXT
MAKK6O107943201610D4               89825451200P3YK20161108000060SPEAKER ASM;ROOF              M IMCTM CM1    FTTL  07070IMKDC 01   PTB00015  K0                1621DES        000000000000 FUJITSU TEN (THAILAN                                                                                                                                            *G         20161026IMF1610266.TXT
MAKK6O107944201610D4               89825451200P3YK20161109000030SPEAKER ASM;ROOF              M IMCTM CM1    FTTL  07070IMKDC 01   PTB00015  K0                1621DES        000000000000 FUJITSU TEN (THAILAN                                                                                                                                            *G         20161026IMF1610266.TXT
MAKK6O107945201610D4               89825451200P3YK20161110000030SPEAKER ASM;ROOF              M IMCTM CM1    FTTL  07070IMKDC 01   PTB00015  K0                1621DES        000000000000 FUJITSU TEN (THAILAN                                                                                                                                            *G         20161026IMF1610266.TXT
MAKK6O107946201610D4               89825451200P3YK20161111000030SPEAKER ASM;ROOF              M IMCTM CM1    FTTL  07070IMKDC 01   PTB00015  K0                1621DES        000000000000 FUJITSU TEN (THAILAN                                                                                                                                            *G         20161026IMF1610266.TXT
MAKK6O107947201610D4               89825451200P3YK20161112000030SPEAKER ASM;ROOF              M IMCTM CM1    FTTL  07070IMKDC 01   PTB00015  K0                1621DES        000000000000 FUJITSU TEN (THAILAN                                                                                                                                            *G         20161026IMF1610266.TXT
MAKK6O107948201610D4               89828070100P3YK20161107000090SPEAKER ASM                   M IMCTM CM1    FTTL  07070IMKDC 01 PTB  00003  K0                1621DES        000000000000 FUJITSU TEN (THAILAN                                                                                                                                            *G         20161026IMF1610266.TXT
MAKK6O107949201610D4               89828070100P3YK20161108000090SPEAKER ASM                   M IMCTM CM1    FTTL  07070IMKDC 01 PTB  00003  K0                1621DES        000000000000 FUJITSU TEN (THAILAN                                                                                                                                            *G         20161026IMF1610266.TXT
MAKK6O107950201610D4               89828070100P3YK20161109000090SPEAKER ASM                   M IMCTM CM1    FTTL  07070IMKDC 01 PTB  00003  K0                1621DES        000000000000 FUJITSU TEN (THAILAN                                                                                                                                            *G         20161026IMF1610266.TXT
MAKK6O107951201610D4               89828070100P3YK20161110000060SPEAKER ASM                   M IMCTM CM1    FTTL  07070IMKDC 01 PTB  00003  K0                1621DES        000000000000 FUJITSU TEN (THAILAN                                                                                                                                            *G         20161026IMF1610266.TXT
MAKK6O107952201610D4               89828070100P3YK20161111000030SPEAKER ASM                   M IMCTM CM1    FTTL  07070IMKDC 01 PTB  00003  K0                1621DES        000000000000 FUJITSU TEN (THAILAN                                                                                                                                            *G         20161026IMF1610266.TXT
MAKK6O107953201610D4               89828070100P3YK20161112000060SPEAKER ASM                   M IMCTM CM1    FTTL  07070IMKDC 01 PTB  00003  K0                1621DES        000000000000 FUJITSU TEN (THAILAN                                                                                                                                            *G         20161026IMF1610266.TXT
MAKK6O107954201610D4               89828070200P3YK20161107000090SPEAKER ASM                   M IMCTM CM1    FTTL  07070IMKDC 01 PTB  00005  K0                1621DES        000000000000 FUJITSU TEN (THAILAN                                                                                                                                            *G         20161026IMF1610266.TXT
MAKK6O107955201610D4               89828070200P3YK20161108000030SPEAKER ASM                   M IMCTM CM1    FTTL  07070IMKDC 01 PTB  00005  K0                1621DES        000000000000 FUJITSU TEN (THAILAN                                                                                                                                            *G         20161026IMF1610266.TXT
MAKK6O107956201610D4               89828070200P3YK20161109000060SPEAKER ASM                   M IMCTM CM1    FTTL  07070IMKDC 01 PTB  00005  K0                1621DES        000000000000 FUJITSU TEN (THAILAN                                                                                                                                            *G         20161026IMF1610266.TXT
MAKK6O107957201610D4               89828070200P3YK20161110000030SPEAKER ASM                   M IMCTM CM1    FTTL  07070IMKDC 01 PTB  00005  K0                1621DES        000000000000 FUJITSU TEN (THAILAN                                                                                                                                            *G         20161026IMF1610266.TXT
MAKK6O107958201610D4               89828070200P3YK20161111000030SPEAKER ASM                   M IMCTM CM1    FTTL  07070IMKDC 01 PTB  00005  K0                1621DES        000000000000 FUJITSU TEN (THAILAN                                                                                                                                            *G         20161026IMF1610266.TXT
MAKK6O107959201610D4               89828070300P3YK20161107000090SPEAKER ASM                   M IMCTM CM1    FTTL  07070IMKDC 01 PTB  00015  K0                1621DES        000000000000 FUJITSU TEN (THAILAN                                                                                                                                            *G         20161026IMF1610266.TXT
MAKK6O107960201610D4               89828070300P3YK20161108000060SPEAKER ASM                   M IMCTM CM1    FTTL  07070IMKDC 01 PTB  00015  K0                1621DES        000000000000 FUJITSU TEN (THAILAN                                                                                                                                            *G         20161026IMF1610266.TXT
MAKK6O107961201610D4               89828070300P3YK20161109000060SPEAKER ASM                   M IMCTM CM1    FTTL  07070IMKDC 01 PTB  00015  K0                1621DES        000000000000 FUJITSU TEN (THAILAN                                                                                                                                            *G         20161026IMF1610266.TXT
MAKK6O107962201610D4               89828070300P3YK20161110000030SPEAKER ASM                   M IMCTM CM1    FTTL  07070IMKDC 01 PTB  00015  K0                1621DES        000000000000 FUJITSU TEN (THAILAN                                                                                                                                            *G         20161026IMF1610266.TXT
MAKK6O107963201610D4               89828070300P3YK20161111000030SPEAKER ASM                   M IMCTM CM1    FTTL  07070IMKDC 01 PTB  00015  K0                1621DES        000000000000 FUJITSU TEN (THAILAN                                                                                                                                            *G         20161026IMF1610266.TXT
MAKK6O107964201610D4               89834050100P3YK20161107000015RADIO;ASM DVD                 M IMCTM CM1    FTTL  07070IMKDC 01 PTB  00003  K0                1621DES        000000000000 FUJITSU TEN (THAILAN                                                                                                                                            *G         20161026IMF1610266.TXT
