REC2016102120161021ISUZU                              44     
MDDDGO298278201610                D89821984430PT1D20161027000060RADIO;AM/FM,CD                M IMCTM S5NC06 FTTL  07070IMCT  S5 PTB  00005                    2230 SR        000000000000 FUJITSU TEN (THAILAN170KNDL0035035170KPAL0024024                                                                                                                *          20161021IMF1610216.TXT
MDDDGO298279201610                D89821984430PT1D20161028000030RADIO;AM/FM,CD                M IMCTM S5NC06 FTTL  07070IMCT  S5 PTB  00005                    0230 SR        000000000000 FUJITSU TEN (THAILAN170KNFL0007007                                                                                                                              *          20161021IMF1610216.TXT
MDDDGO298280201610                D89821984430PT1D20161028000030RADIO;AM/FM,CD                M IMCTM S5NC06 FTTL  07070IMCT  S5 PTB  00005                    0400 SR        000000000000 FUJITSU TEN (THAILAN170KNEL0018018                                                                                                                              *          20161021IMF1610216.TXT
MDDDGO298281201610                D89821984430PT1D20161028000030RADIO;AM/FM,CD                M IMCTM S5NC06 FTTL  07070IMCT  S5 PTB  00005                    0900 SR        000000000000 FUJITSU TEN (THAILAN170KNDL0036036                                                                                                                              *          20161021IMF1610216.TXT
MDDDGO298282201610                D89828070100PV1D20161027000180SPEAKER ASM                   M IMCTM S5MB11 FTTL  07070IMCT  S5 PTB  00004                    2230 SR        000000000000 FUJITSU TEN (THAILAN170KNDL0035035170KPAL0024024170KRJL0005005                                                                                                  *          20161021IMF1610216.TXT
MDDDGO298283201610                D89828070100PV1D20161028000060SPEAKER ASM                   M IMCTM S5MB11 FTTL  07070IMCT  S5 PTB  00004                    0230 SR        000000000000 FUJITSU TEN (THAILAN170KNFL0007007                                                                                                                              *          20161021IMF1610216.TXT
MDDDGO298284201610                D89828070100PV1D20161028000120SPEAKER ASM                   M IMCTM S5MB11 FTTL  07070IMCT  S5 PTB  00004                    0400 SR        000000000000 FUJITSU TEN (THAILAN170KNEL0018018170KPEL0010010                                                                                                                *          20161021IMF1610216.TXT
MDDDGO298285201610                D89828070100PV1D20161028000120SPEAKER ASM                   M IMCTM S5MB11 FTTL  07070IMCT  S5 PTB  00004                    0900 SR        000000000000 FUJITSU TEN (THAILAN170KNDL0036036170KPFL0032032                                                                                                                *          20161021IMF1610216.TXT
MDDDGO298286201610                D89828070100PV1D20161028000120SPEAKER ASM                   M IMCTM S5MB11 FTTL  07070IMCT  S5 PTB  00004                    1300 SR        000000000000 FUJITSU TEN (THAILAN170KPCL0013013170KRSL0018018                                                                                                                *          20161021IMF1610216.TXT
MDDDGO298287201610                D89828070100PV1D20161028000060SPEAKER ASM                   M IMCTM S5MB11 FTTL  07070IMCT  S5 PTB  00004                    2100 SR        000000000000 FUJITSU TEN (THAILAN170KPFL0033033                                                                                                                              *          20161021IMF1610216.TXT
MDDDGO298288201610                D89828070200PV1D20161027000060SPEAKER ASM                   M IMCTM S5MA14 FTTL  07070IMCT  S5 PTB  00005                    2230 SR        000000000000 FUJITSU TEN (THAILAN170KRJL0005005                                                                                                                              *          20161021IMF1610216.TXT
MDDDGO298289201610                D89828070200PV1D20161028000060SPEAKER ASM                   M IMCTM S5MA14 FTTL  07070IMCT  S5 PTB  00005                    1300 SR        000000000000 FUJITSU TEN (THAILAN170KRSL0018018                                                                                                                              *          20161021IMF1610216.TXT
MDDDGO298290201610                D89828070300PT1D20161027000060SPEAKER ASM                   M IMCTM S5NB042FTTL  07070IMCT  S5 PTB  00015                    2230 SR        000000000000 FUJITSU TEN (THAILAN170KRJL0005005                                                                                                                              *          20161021IMF1610216.TXT
MDDDGO298291201610                D89828070300PT1D20161028000060SPEAKER ASM                   M IMCTM S5NB042FTTL  07070IMCT  S5 PTB  00015                    0400 SR        000000000000 FUJITSU TEN (THAILAN170KPEL0010010                                                                                                                              *          20161021IMF1610216.TXT
MDDDGO298292201610                D89828070300PT1D20161028000060SPEAKER ASM                   M IMCTM S5NB042FTTL  07070IMCT  S5 PTB  00015                    0900 SR        000000000000 FUJITSU TEN (THAILAN170KPFL0032032                                                                                                                              *          20161021IMF1610216.TXT
MDDDGO298293201610                D89828070300PT1D20161028000120SPEAKER ASM                   M IMCTM S5NB042FTTL  07070IMCT  S5 PTB  00015                    1300 SR        000000000000 FUJITSU TEN (THAILAN170KPCL0013013170KRSL0018018                                                                                                                *          20161021IMF1610216.TXT
MDDDGO298294201610                D89828070300PT1D20161028000060SPEAKER ASM                   M IMCTM S5NB042FTTL  07070IMCT  S5 PTB  00015                    2100 SR        000000000000 FUJITSU TEN (THAILAN170KPFL0033033                                                                                                                              *          20161021IMF1610216.TXT
MDDDGO298295201610                D89831228300PT1D20161028000030RADIO;AM/FM,CD                M IMCTM S5NC06 FTTL  07070IMCT  S5 CPB  00003                    0400 SR        000000000000 FUJITSU TEN (THAILAN170KPEL0010010                                                                                                                              *          20161021IMF1610216.TXT
MDDDGO298296201610                D89831228300PT1D20161028000030RADIO;AM/FM,CD                M IMCTM S5NC06 FTTL  07070IMCT  S5 CPB  00003                    0900 SR        000000000000 FUJITSU TEN (THAILAN170KPFL0032032                                                                                                                              *          20161021IMF1610216.TXT
MDDDGO298297201610                D89831228300PT1D20161028000030RADIO;AM/FM,CD                M IMCTM S5NC06 FTTL  07070IMCT  S5 CPB  00003                    1300 SR        000000000000 FUJITSU TEN (THAILAN170KPCL0013013                                                                                                                              *          20161021IMF1610216.TXT
MDDDGO298298201610                D89831228300PT1D20161028000030RADIO;AM/FM,CD                M IMCTM S5NC06 FTTL  07070IMCT  S5 CPB  00003                    2100 SR        000000000000 FUJITSU TEN (THAILAN170KPFL0033033                                                                                                                              *          20161021IMF1610216.TXT
MDDUGO235347201610                D89828070100PT4U20161028000030SPEAKER ASM                   M IMCTM S0FL05 FTTL  07070IMCT  S0 PTB  00004                    1300 SR        000000000000 FUJITSU TEN (THAILAN170KUCU0019019                                                                                                                              *          20161021IMF1610216.TXT
MDDUGO235348201610                D89828070200PV4U20161028000030SPEAKER ASM                   M IMCTM S0FR05 FTTL  07070IMCT  S0 PTB  00005                    1300 SR        000000000000 FUJITSU TEN (THAILAN170KUCU0019019                                                                                                                              *          20161021IMF1610216.TXT
MDDUGO235349201610                D89828070300PT4U20161028000030SPEAKER ASM                   M IMCTM S9TS02 FTTL  07070IMCT  S9 PTB  00015                    1300 SR        000000000000 FUJITSU TEN (THAILAN170KUCU0019019                                                                                                                              *          20161021IMF1610216.TXT
MDDUGO235350201610                D89829093500PT4U20161028000015RADIO;ASM DVD (T              M IMCTM S9CO001FTTL  07070IMCT  S9 PTB  00003                    1300 SR        000000000000 FUJITSU TEN (THAILAN170KUCU0019019                                                                                                                              *          20161021IMF1610216.TXT
MDEDGO247692201610                D89805293700PV1D20161027000030SPEAKER ASM                   M IMCTM S5MB11 FTTL  07070IMCT  S5 PTB  00003                    2100 SR        000000000000 FUJITSU TEN (THAILAN15019FL0128128                                                                                                                              *          20161021IMF1610216.TXT
MDEDGO247693201610                D89828070100PV4D20161027000030SPEAKER ASM                   M IMCTM S0FL05 FTTL  07070IMCT  S0 PTB  00004                    2230 SR        000000000000 FUJITSU TEN (THAILAN16083KU0013013                                                                                                                              *          20161021IMF1610216.TXT
MDEDGO247694201610                D89828070100PV4D20161028000030SPEAKER ASM                   M IMCTM S0FL05 FTTL  07070IMCT  S0 PTB  00004                    0900 SR        000000000000 FUJITSU TEN (THAILAN16083KU0014014                                                                                                                              *          20161021IMF1610216.TXT
MDEDGO247695201610                D89828070100PV4D20161028000030SPEAKER ASM                   M IMCTM S0FL05 FTTL  07070IMCT  S0 PTB  00004                    1300 SR        000000000000 FUJITSU TEN (THAILAN16083KU0015015                                                                                                                              *          20161021IMF1610216.TXT
MDEUGO268051201610                D89828070100PT4U20161027000060SPEAKER ASM                   M IMCTM S0FL05 FTTL  07070IMCT  S0 PTB  00004                    2230 SR        000000000000 FUJITSU TEN (THAILAN160B46U0164164160B48U0437437                                                                                                                *          20161021IMF1610216.TXT
MDEUGO268052201610                D89828070100PT4U20161028000030SPEAKER ASM                   M IMCTM S0FL05 FTTL  07070IMCT  S0 PTB  00004                    0230 SR        000000000000 FUJITSU TEN (THAILAN160B46U0165165                                                                                                                              *          20161021IMF1610216.TXT
MDEUGO268053201610                D89828070100PT4U20161028000060SPEAKER ASM                   M IMCTM S0FL05 FTTL  07070IMCT  S0 PTB  00004                    0400 SR        000000000000 FUJITSU TEN (THAILAN160B48U0438439                                                                                                                              *          20161021IMF1610216.TXT
MDEUGO268054201610                D89828070100PT4U20161028000030SPEAKER ASM                   M IMCTM S0FL05 FTTL  07070IMCT  S0 PTB  00004                    0900 SR        000000000000 FUJITSU TEN (THAILAN160B46U0166166                                                                                                                              *          20161021IMF1610216.TXT
MDEUGO268055201610                D89828070100PT4U20161028000030SPEAKER ASM                   M IMCTM S0FL05 FTTL  07070IMCT  S0 PTB  00004                    1600 SR        000000000000 FUJITSU TEN (THAILAN160B48U0440440                                                                                                                              *          20161021IMF1610216.TXT
MDEUGO268056201610                D89828070200PV4U20161027000060SPEAKER ASM                   M IMCTM S0FR05 FTTL  07070IMCT  S0 PTB  00005                    2230 SR        000000000000 FUJITSU TEN (THAILAN160B46U0164164160B48U0437437                                                                                                                *          20161021IMF1610216.TXT
MDEUGO268057201610                D89828070200PV4U20161028000030SPEAKER ASM                   M IMCTM S0FR05 FTTL  07070IMCT  S0 PTB  00005                    0230 SR        000000000000 FUJITSU TEN (THAILAN160B46U0165165                                                                                                                              *          20161021IMF1610216.TXT
MDEUGO268058201610                D89828070200PV4U20161028000060SPEAKER ASM                   M IMCTM S0FR05 FTTL  07070IMCT  S0 PTB  00005                    0400 SR        000000000000 FUJITSU TEN (THAILAN160B48U0438439                                                                                                                              *          20161021IMF1610216.TXT
MDEUGO268059201610                D89828070200PV4U20161028000030SPEAKER ASM                   M IMCTM S0FR05 FTTL  07070IMCT  S0 PTB  00005                    0900 SR        000000000000 FUJITSU TEN (THAILAN160B46U0166166                                                                                                                              *          20161021IMF1610216.TXT
MDEUGO268060201610                D89828070200PV4U20161028000030SPEAKER ASM                   M IMCTM S0FR05 FTTL  07070IMCT  S0 PTB  00005                    1600 SR        000000000000 FUJITSU TEN (THAILAN160B48U0440440                                                                                                                              *          20161021IMF1610216.TXT
MDEUGO268061201610                D89828070300PT4U20161027000060SPEAKER ASM                   M IMCTM S9TS02 FTTL  07070IMCT  S9 PTB  00015                    2230 SR        000000000000 FUJITSU TEN (THAILAN160B46U0164164160B48U0437437                                                                                                                *          20161021IMF1610216.TXT
MDEUGO268062201610                D89828070300PT4U20161028000030SPEAKER ASM                   M IMCTM S9TS02 FTTL  07070IMCT  S9 PTB  00015                    0230 SR        000000000000 FUJITSU TEN (THAILAN160B46U0165165                                                                                                                              *          20161021IMF1610216.TXT
MDEUGO268063201610                D89828070300PT4U20161028000060SPEAKER ASM                   M IMCTM S9TS02 FTTL  07070IMCT  S9 PTB  00015                    0400 SR        000000000000 FUJITSU TEN (THAILAN160B48U0438439                                                                                                                              *          20161021IMF1610216.TXT
MDEUGO268064201610                D89828070300PT4U20161028000030SPEAKER ASM                   M IMCTM S9TS02 FTTL  07070IMCT  S9 PTB  00015                    0900 SR        000000000000 FUJITSU TEN (THAILAN160B46U0166166                                                                                                                              *          20161021IMF1610216.TXT
MDEUGO268065201610                D89828070300PT4U20161028000030SPEAKER ASM                   M IMCTM S9TS02 FTTL  07070IMCT  S9 PTB  00015                    1600 SR        000000000000 FUJITSU TEN (THAILAN160B48U0440440                                                                                                                              *          20161021IMF1610216.TXT
