REC2016100620161006ISUZU                              25     
MAKK6O054956201610D4               89805293700P3YK20161017000120SPEAKER ASM                   M IMCTM CM1    FTTL  07070IMKDC 01   PTB00003  K0                1621DES        000000000000 FUJITSU TEN (THAILAN                                                                                                                                            *G         20161006IMF1610061.TXT
MAKK6O054957201610D4               89805293700P3YK20161018000120SPEAKER ASM                   M IMCTM CM1    FTTL  07070IMKDC 01   PTB00003  K0                1621DES        000000000000 FUJITSU TEN (THAILAN                                                                                                                                            *G         20161006IMF1610061.TXT
MAKK6O054958201610D4               89805293700P3YK20161019000240SPEAKER ASM                   M IMCTM CM1    FTTL  07070IMKDC 01   PTB00003  K0                1621DES        000000000000 FUJITSU TEN (THAILAN                                                                                                                                            *G         20161006IMF1610061.TXT
MAKK6O054959201610D4               89805293700P3YK20161020000150SPEAKER ASM                   M IMCTM CM1    FTTL  07070IMKDC 01   PTB00003  K0                1621DES        000000000000 FUJITSU TEN (THAILAN                                                                                                                                            *G         20161006IMF1610061.TXT
MAKK6O054960201610D4               89805293700P3YK20161021000210SPEAKER ASM                   M IMCTM CM1    FTTL  07070IMKDC 01   PTB00003  K0                1621DES        000000000000 FUJITSU TEN (THAILAN                                                                                                                                            *G         20161006IMF1610061.TXT
MAKK6O054961201610D4               89805294000P3YK20161019000030SPEAKER ASM                   M IMCTM CM1    FTTL  07070IMKDC 01   PTB00015  K0                1621DES        000000000000 FUJITSU TEN (THAILAN                                                                                                                                            *G         20161006IMF1610061.TXT
MAKK6O054962201610D4               89805294000P3YK20161020000060SPEAKER ASM                   M IMCTM CM1    FTTL  07070IMKDC 01   PTB00015  K0                1621DES        000000000000 FUJITSU TEN (THAILAN                                                                                                                                            *G         20161006IMF1610061.TXT
MAKK6O054963201610D4               89805294000P3YK20161021000030SPEAKER ASM                   M IMCTM CM1    FTTL  07070IMKDC 01   PTB00015  K0                1621DES        000000000000 FUJITSU TEN (THAILAN                                                                                                                                            *G         20161006IMF1610061.TXT
MAKK6O054964201610D4               89805294100P3YK20161019000030SPEAKER ASM                   M IMCTM CM1    FTTL  07070IMKDC 01   PTB00005  K0                1621DES        000000000000 FUJITSU TEN (THAILAN                                                                                                                                            *G         20161006IMF1610061.TXT
MAKK6O054965201610D4               89805294100P3YK20161020000060SPEAKER ASM                   M IMCTM CM1    FTTL  07070IMKDC 01   PTB00005  K0                1621DES        000000000000 FUJITSU TEN (THAILAN                                                                                                                                            *G         20161006IMF1610061.TXT
MAKK6O054966201610D4               89805294100P3YK20161021000030SPEAKER ASM                   M IMCTM CM1    FTTL  07070IMKDC 01   PTB00005  K0                1621DES        000000000000 FUJITSU TEN (THAILAN                                                                                                                                            *G         20161006IMF1610061.TXT
MAKK6O054967201610D4               89825451200P3YK20161017000090SPEAKER ASM;ROOF              M IMCTM CM1    FTTL  07070IMKDC 01   PTB00015  K0                1621DES        000000000000 FUJITSU TEN (THAILAN                                                                                                                                            *G         20161006IMF1610061.TXT
MAKK6O054968201610D4               89825451200P3YK20161018000090SPEAKER ASM;ROOF              M IMCTM CM1    FTTL  07070IMKDC 01   PTB00015  K0                1621DES        000000000000 FUJITSU TEN (THAILAN                                                                                                                                            *G         20161006IMF1610061.TXT
MAKK6O054969201610D4               89825451200P3YK20161019000060SPEAKER ASM;ROOF              M IMCTM CM1    FTTL  07070IMKDC 01   PTB00015  K0                1621DES        000000000000 FUJITSU TEN (THAILAN                                                                                                                                            *G         20161006IMF1610061.TXT
MAKK6O054970201610D4               89825451200P3YK20161020000060SPEAKER ASM;ROOF              M IMCTM CM1    FTTL  07070IMKDC 01   PTB00015  K0                1621DES        000000000000 FUJITSU TEN (THAILAN                                                                                                                                            *G         20161006IMF1610061.TXT
MAKK6O054971201610D4               89825451200P3YK20161021000060SPEAKER ASM;ROOF              M IMCTM CM1    FTTL  07070IMKDC 01   PTB00015  K0                1621DES        000000000000 FUJITSU TEN (THAILAN                                                                                                                                            *G         20161006IMF1610061.TXT
MAKK6O054972201610D4               89828070100P3YK20161017000060SPEAKER ASM                   M IMCTM CM1    FTTL  07070IMKDC 01 PTB  00003  K0                1621DES        000000000000 FUJITSU TEN (THAILAN                                                                                                                                            *G         20161006IMF1610061.TXT
MAKK6O054973201610D4               89828070100P3YK20161018000060SPEAKER ASM                   M IMCTM CM1    FTTL  07070IMKDC 01 PTB  00003  K0                1621DES        000000000000 FUJITSU TEN (THAILAN                                                                                                                                            *G         20161006IMF1610061.TXT
MAKK6O054974201610D4               89828070100P3YK20161020000060SPEAKER ASM                   M IMCTM CM1    FTTL  07070IMKDC 01 PTB  00003  K0                1621DES        000000000000 FUJITSU TEN (THAILAN                                                                                                                                            *G         20161006IMF1610061.TXT
MAKK6O054975201610D4               89828070200P3YK20161017000030SPEAKER ASM                   M IMCTM CM1    FTTL  07070IMKDC 01 PTB  00005  K0                1621DES        000000000000 FUJITSU TEN (THAILAN                                                                                                                                            *G         20161006IMF1610061.TXT
MAKK6O054976201610D4               89828070200P3YK20161018000060SPEAKER ASM                   M IMCTM CM1    FTTL  07070IMKDC 01 PTB  00005  K0                1621DES        000000000000 FUJITSU TEN (THAILAN                                                                                                                                            *G         20161006IMF1610061.TXT
MAKK6O054977201610D4               89828070200P3YK20161020000060SPEAKER ASM                   M IMCTM CM1    FTTL  07070IMKDC 01 PTB  00005  K0                1621DES        000000000000 FUJITSU TEN (THAILAN                                                                                                                                            *G         20161006IMF1610061.TXT
MAKK6O054978201610D4               89828070300P3YK20161017000030SPEAKER ASM                   M IMCTM CM1    FTTL  07070IMKDC 01 PTB  00015  K0                1621DES        000000000000 FUJITSU TEN (THAILAN                                                                                                                                            *G         20161006IMF1610061.TXT
MAKK6O054979201610D4               89828070300P3YK20161018000060SPEAKER ASM                   M IMCTM CM1    FTTL  07070IMKDC 01 PTB  00015  K0                1621DES        000000000000 FUJITSU TEN (THAILAN                                                                                                                                            *G         20161006IMF1610061.TXT
MAKK6O054980201610D4               89828070300P3YK20161020000060SPEAKER ASM                   M IMCTM CM1    FTTL  07070IMKDC 01 PTB  00015  K0                1621DES        000000000000 FUJITSU TEN (THAILAN                                                                                                                                            *G         20161006IMF1610061.TXT
