REC2016101920161019ISUZU                              45     
MDDDGO286815201610                D89821984430PT1D20161025000030RADIO;AM/FM,CD                M IMCTM S5NC06 FTTL  07070IMCT  S5 PTB  00005                    2100 SR        000000000000 FUJITSU TEN (THAILAN170KNEL0016016                                                                                                                              *          20161019IMF1610193.TXT
MDDDGO286816201610                D89821984430PT1D20161026000030RADIO;AM/FM,CD                M IMCTM S5NC06 FTTL  07070IMCT  S5 PTB  00005                    0230 SR        000000000000 FUJITSU TEN (THAILAN170KNDL0032032                                                                                                                              *          20161019IMF1610193.TXT
MDDDGO286817201610                D89821984430PT1D20161026000060RADIO;AM/FM,CD                M IMCTM S5NC06 FTTL  07070IMCT  S5 PTB  00005                    0400 SR        000000000000 FUJITSU TEN (THAILAN170KNCL0024024170KPAL0022022                                                                                                                *          20161019IMF1610193.TXT
MDDDGO286818201610                D89821984430PT1D20161026000030RADIO;AM/FM,CD                M IMCTM S5NC06 FTTL  07070IMCT  S5 PTB  00005                    1300 SR        000000000000 FUJITSU TEN (THAILAN170KPAL0023023                                                                                                                              *          20161019IMF1610193.TXT
MDDDGO286819201610                D89828070100PV1D20161025000060SPEAKER ASM                   M IMCTM S5MB11 FTTL  07070IMCT  S5 PTB  00004                    2100 SR        000000000000 FUJITSU TEN (THAILAN170KNEL0016016                                                                                                                              *          20161019IMF1610193.TXT
MDDDGO286820201610                D89828070100PV1D20161025000060SPEAKER ASM                   M IMCTM S5MB11 FTTL  07070IMCT  S5 PTB  00004                    2230 SR        000000000000 FUJITSU TEN (THAILAN170KPFL0028028                                                                                                                              *          20161019IMF1610193.TXT
MDDDGO286821201610                D89828070100PV1D20161026000060SPEAKER ASM                   M IMCTM S5MB11 FTTL  07070IMCT  S5 PTB  00004                    0230 SR        000000000000 FUJITSU TEN (THAILAN170KNDL0032032                                                                                                                              *          20161019IMF1610193.TXT
MDDDGO286822201610                D89828070100PV1D20161026000120SPEAKER ASM                   M IMCTM S5MB11 FTTL  07070IMCT  S5 PTB  00004                    0400 SR        000000000000 FUJITSU TEN (THAILAN170KNCL0024024170KPAL0022022                                                                                                                *          20161019IMF1610193.TXT
MDDDGO286823201610                D89828070100PV1D20161026000060SPEAKER ASM                   M IMCTM S5MB11 FTTL  07070IMCT  S5 PTB  00004                    0900 SR        000000000000 FUJITSU TEN (THAILAN170KPEL0009009                                                                                                                              *          20161019IMF1610193.TXT
MDDDGO286824201610                D89828070100PV1D20161026000180SPEAKER ASM                   M IMCTM S5MB11 FTTL  07070IMCT  S5 PTB  00004                    1300 SR        000000000000 FUJITSU TEN (THAILAN170KNBL0004004170KPAL0023023170KREL0011011                                                                                                  *          20161019IMF1610193.TXT
MDDDGO286825201610                D89828070200PV1D20161026000060SPEAKER ASM                   M IMCTM S5MA14 FTTL  07070IMCT  S5 PTB  00005                    1300 SR        000000000000 FUJITSU TEN (THAILAN170KREL0011011                                                                                                                              *          20161019IMF1610193.TXT
MDDDGO286826201610                D89828070300PT1D20161025000060SPEAKER ASM                   M IMCTM S5NB042FTTL  07070IMCT  S5 PTB  00015                    2230 SR        000000000000 FUJITSU TEN (THAILAN170KPFL0028028                                                                                                                              *          20161019IMF1610193.TXT
MDDDGO286827201610                D89828070300PT1D20161026000060SPEAKER ASM                   M IMCTM S5NB042FTTL  07070IMCT  S5 PTB  00015                    0900 SR        000000000000 FUJITSU TEN (THAILAN170KPEL0009009                                                                                                                              *          20161019IMF1610193.TXT
MDDDGO286828201610                D89828070300PT1D20161026000060SPEAKER ASM                   M IMCTM S5NB042FTTL  07070IMCT  S5 PTB  00015                    1300 SR        000000000000 FUJITSU TEN (THAILAN170KREL0011011                                                                                                                              *          20161019IMF1610193.TXT
MDDDGO286829201610                D89831228300PT1D20161025000030RADIO;AM/FM,CD                M IMCTM S5NC06 FTTL  07070IMCT  S5 CPB  00003                    2230 SR        000000000000 FUJITSU TEN (THAILAN170KPFL0028028                                                                                                                              *          20161019IMF1610193.TXT
MDDDGO286830201610                D89831228300PT1D20161026000030RADIO;AM/FM,CD                M IMCTM S5NC06 FTTL  07070IMCT  S5 CPB  00003                    0900 SR        000000000000 FUJITSU TEN (THAILAN170KPEL0009009                                                                                                                              *          20161019IMF1610193.TXT
MDDDGO286831201610                D89831228400PT1D20161026000030RADIO;AM/FM,CD                M IMCTM S5NC06 FTTL  07070IMCT  S5 CPB  00003                    1300 SR        000000000000 FUJITSU TEN (THAILAN170KREL0011011                                                                                                                              *          20161019IMF1610193.TXT
MDDUGO231823201610                D89828070100PT4U20161026000030SPEAKER ASM                   M IMCTM S0FL05 FTTL  07070IMCT  S0 PTB  00004                    1600 SR        000000000000 FUJITSU TEN (THAILAN170KUBU0006006                                                                                                                              *          20161019IMF1610193.TXT
MDDUGO231824201610                D89828070200PV4U20161026000030SPEAKER ASM                   M IMCTM S0FR05 FTTL  07070IMCT  S0 PTB  00005                    1600 SR        000000000000 FUJITSU TEN (THAILAN170KUBU0006006                                                                                                                              *          20161019IMF1610193.TXT
MDDUGO231825201610                D89828070300PT4U20161026000030SPEAKER ASM                   M IMCTM S9TS02 FTTL  07070IMCT  S9 PTB  00015                    1600 SR        000000000000 FUJITSU TEN (THAILAN170KUBU0006006                                                                                                                              *          20161019IMF1610193.TXT
MDDUGO231826201610                D89829093500PT4U20161026000015RADIO;ASM DVD (T              M IMCTM S9CO001FTTL  07070IMCT  S9 PTB  00003                    1600 SR        000000000000 FUJITSU TEN (THAILAN170KUBU0006006                                                                                                                              *          20161019IMF1610193.TXT
MDEDGO240920201610                D89805293700PV1D20161025000060SPEAKER ASM                   M IMCTM S5MB11 FTTL  07070IMCT  S5 PTB  00003                    2230 SR        000000000000 FUJITSU TEN (THAILAN15020FL0015016                                                                                                                              *          20161019IMF1610193.TXT
MDEDGO240921201610                D89805294000PT1D20161025000060SPEAKER ASM                   M IMCTM S5NB042FTTL  07070IMCT  S5 PTB  00015                    2230 SR        000000000000 FUJITSU TEN (THAILAN15020FL0015016                                                                                                                              *          20161019IMF1610193.TXT
MDEDGO240922201610                D89805294100PV1D20161025000060SPEAKER ASM                   M IMCTM S5MA14 FTTL  07070IMCT  S5 PTB  00005                    2230 SR        000000000000 FUJITSU TEN (THAILAN15020FL0015016                                                                                                                              *          20161019IMF1610193.TXT
MDEDGO240923201610                D89828070100PV1D20161026000060SPEAKER ASM                   M IMCTM S5MB11 FTTL  07070IMCT  S5 PTB  00004                    0900 SR        000000000000 FUJITSU TEN (THAILAN16083KL0037038                                                                                                                              *          20161019IMF1610193.TXT
MDEDGO240924201610                D89828070100PV4D20161025000030SPEAKER ASM                   M IMCTM S0FL05 FTTL  07070IMCT  S0 PTB  00004                    2230 SR        000000000000 FUJITSU TEN (THAILAN16083KU0009009                                                                                                                              *          20161019IMF1610193.TXT
MDEDGO240925201610                D89828070100PV4D20161026000030SPEAKER ASM                   M IMCTM S0FL05 FTTL  07070IMCT  S0 PTB  00004                    0900 SR        000000000000 FUJITSU TEN (THAILAN16083KU0010010                                                                                                                              *          20161019IMF1610193.TXT
MDEUGO259009201610                D89828070100PT4U20161025000060SPEAKER ASM                   M IMCTM S0FL05 FTTL  07070IMCT  S0 PTB  00004                    2230 SR        000000000000 FUJITSU TEN (THAILAN160B46U0157157160B48U0430430                                                                                                                *          20161019IMF1610193.TXT
MDEUGO259010201610                D89828070100PT4U20161026000030SPEAKER ASM                   M IMCTM S0FL05 FTTL  07070IMCT  S0 PTB  00004                    0230 SR        000000000000 FUJITSU TEN (THAILAN160B48U0431431                                                                                                                              *          20161019IMF1610193.TXT
MDEUGO259011201610                D89828070100PT4U20161026000060SPEAKER ASM                   M IMCTM S0FL05 FTTL  07070IMCT  S0 PTB  00004                    0400 SR        000000000000 FUJITSU TEN (THAILAN160B46U0158158160B48U0432432                                                                                                                *          20161019IMF1610193.TXT
MDEUGO259012201610                D89828070100PT4U20161026000030SPEAKER ASM                   M IMCTM S0FL05 FTTL  07070IMCT  S0 PTB  00004                    0900 SR        000000000000 FUJITSU TEN (THAILAN160B46U0159159                                                                                                                              *          20161019IMF1610193.TXT
MDEUGO259013201610                D89828070100PT4U20161026000030SPEAKER ASM                   M IMCTM S0FL05 FTTL  07070IMCT  S0 PTB  00004                    1300 SR        000000000000 FUJITSU TEN (THAILAN160B45U0061061                                                                                                                              *          20161019IMF1610193.TXT
MDEUGO259014201610                D89828070100PT4U20161026000030SPEAKER ASM                   M IMCTM S0FL05 FTTL  07070IMCT  S0 PTB  00004                    2100 SR        000000000000 FUJITSU TEN (THAILAN160B48U0433433                                                                                                                              *          20161019IMF1610193.TXT
MDEUGO259015201610                D89828070200PV4U20161025000060SPEAKER ASM                   M IMCTM S0FR05 FTTL  07070IMCT  S0 PTB  00005                    2230 SR        000000000000 FUJITSU TEN (THAILAN160B46U0157157160B48U0430430                                                                                                                *          20161019IMF1610193.TXT
MDEUGO259016201610                D89828070200PV4U20161026000030SPEAKER ASM                   M IMCTM S0FR05 FTTL  07070IMCT  S0 PTB  00005                    0230 SR        000000000000 FUJITSU TEN (THAILAN160B48U0431431                                                                                                                              *          20161019IMF1610193.TXT
MDEUGO259017201610                D89828070200PV4U20161026000060SPEAKER ASM                   M IMCTM S0FR05 FTTL  07070IMCT  S0 PTB  00005                    0400 SR        000000000000 FUJITSU TEN (THAILAN160B46U0158158160B48U0432432                                                                                                                *          20161019IMF1610193.TXT
MDEUGO259018201610                D89828070200PV4U20161026000030SPEAKER ASM                   M IMCTM S0FR05 FTTL  07070IMCT  S0 PTB  00005                    0900 SR        000000000000 FUJITSU TEN (THAILAN160B46U0159159                                                                                                                              *          20161019IMF1610193.TXT
MDEUGO259019201610                D89828070200PV4U20161026000030SPEAKER ASM                   M IMCTM S0FR05 FTTL  07070IMCT  S0 PTB  00005                    1300 SR        000000000000 FUJITSU TEN (THAILAN160B45U0061061                                                                                                                              *          20161019IMF1610193.TXT
MDEUGO259020201610                D89828070200PV4U20161026000030SPEAKER ASM                   M IMCTM S0FR05 FTTL  07070IMCT  S0 PTB  00005                    2100 SR        000000000000 FUJITSU TEN (THAILAN160B48U0433433                                                                                                                              *          20161019IMF1610193.TXT
MDEUGO259021201610                D89828070300PT4U20161025000060SPEAKER ASM                   M IMCTM S9TS02 FTTL  07070IMCT  S9 PTB  00015                    2230 SR        000000000000 FUJITSU TEN (THAILAN160B46U0157157160B48U0430430                                                                                                                *          20161019IMF1610193.TXT
MDEUGO259022201610                D89828070300PT4U20161026000030SPEAKER ASM                   M IMCTM S9TS02 FTTL  07070IMCT  S9 PTB  00015                    0230 SR        000000000000 FUJITSU TEN (THAILAN160B48U0431431                                                                                                                              *          20161019IMF1610193.TXT
MDEUGO259023201610                D89828070300PT4U20161026000060SPEAKER ASM                   M IMCTM S9TS02 FTTL  07070IMCT  S9 PTB  00015                    0400 SR        000000000000 FUJITSU TEN (THAILAN160B46U0158158160B48U0432432                                                                                                                *          20161019IMF1610193.TXT
MDEUGO259024201610                D89828070300PT4U20161026000030SPEAKER ASM                   M IMCTM S9TS02 FTTL  07070IMCT  S9 PTB  00015                    0900 SR        000000000000 FUJITSU TEN (THAILAN160B46U0159159                                                                                                                              *          20161019IMF1610193.TXT
MDEUGO259025201610                D89828070300PT4U20161026000030SPEAKER ASM                   M IMCTM S9TS02 FTTL  07070IMCT  S9 PTB  00015                    1300 SR        000000000000 FUJITSU TEN (THAILAN160B45U0061061                                                                                                                              *          20161019IMF1610193.TXT
MDEUGO259026201610                D89828070300PT4U20161026000030SPEAKER ASM                   M IMCTM S9TS02 FTTL  07070IMCT  S9 PTB  00015                    2100 SR        000000000000 FUJITSU TEN (THAILAN160B48U0433433                                                                                                                              *          20161019IMF1610193.TXT
