REC2016100320161003ISUZU                              20     
MDD6GO205346201610                D89821984430PT5620161007000060RADIO;AM/FM,CD                M IMCTM G9J311 FTTL  07070G/WAY G9 PTB  00005                    0330 GW        0000000000005FUJITSU TEN (THAILAN170KPAG0020021                                                                                                                              *          20161003IMF1610033.TXT
MDD6GO205347201610                D89828070100PV5620161006000060SPEAKER ASM                   M IMCTM G9B112 FTTL  07070G/WAY G9 PTB  00004                    1530 GW        0000000000005FUJITSU TEN (THAILAN170KPFG0024024                                                                                                                              *          20161003IMF1610033.TXT
MDD6GO205348201610                D89828070100PV5620161006000060SPEAKER ASM                   M IMCTM G9B112 FTTL  07070G/WAY G9 PTB  00004                    2100 GW        0000000000005FUJITSU TEN (THAILAN170KRDG0005005                                                                                                                              *          20161003IMF1610033.TXT
MDD6GO205349201610                D89828070100PV5620161006000060SPEAKER ASM                   M IMCTM G9B112 FTTL  07070G/WAY G9 PTB  00004                    2300 GW        0000000000005FUJITSU TEN (THAILAN170KRPG0002002                                                                                                                              *          20161003IMF1610033.TXT
MDD6GO205350201610                D89828070100PV5620161007000120SPEAKER ASM                   M IMCTM G9B112 FTTL  07070G/WAY G9 PTB  00004                    0330 GW        0000000000005FUJITSU TEN (THAILAN170KPAG0020021                                                                                                                              *          20161003IMF1610033.TXT
MDD6GO205351201610                D89828070100PV5620161007000060SPEAKER ASM                   M IMCTM G9B112 FTTL  07070G/WAY G9 PTB  00004                    0900 GW        0000000000005FUJITSU TEN (THAILAN170KPDG0012012                                                                                                                              *          20161003IMF1610033.TXT
MDD6GO205352201610                D89828070100PV5620161007000060SPEAKER ASM                   M IMCTM G9B112 FTTL  07070G/WAY G9 PTB  00004                    1100 GW        0000000000005FUJITSU TEN (THAILAN170KRHG0011011                                                                                                                              *          20161003IMF1610033.TXT
MDD6GO205353201610                D89828070100PV5620161007000060SPEAKER ASM                   M IMCTM G9B112 FTTL  07070G/WAY G9 PTB  00004                    1400 GW        0000000000005FUJITSU TEN (THAILAN170KPLG0003003                                                                                                                              *          20161003IMF1610033.TXT
MDD6GO205354201610                D89828070200PV5620161006000060SPEAKER ASM                   M IMCTM G9F132 FTTL  07070G/WAY G9 PTB  00005                    2100 GW        0000000000005FUJITSU TEN (THAILAN170KRDG0005005                                                                                                                              *          20161003IMF1610033.TXT
MDD6GO205355201610                D89828070200PV5620161006000060SPEAKER ASM                   M IMCTM G9F132 FTTL  07070G/WAY G9 PTB  00005                    2300 GW        0000000000005FUJITSU TEN (THAILAN170KRPG0002002                                                                                                                              *          20161003IMF1610033.TXT
MDD6GO205356201610                D89828070200PV5620161007000060SPEAKER ASM                   M IMCTM G9F132 FTTL  07070G/WAY G9 PTB  00005                    1100 GW        0000000000005FUJITSU TEN (THAILAN170KRHG0011011                                                                                                                              *          20161003IMF1610033.TXT
MDD6GO205357201610                D89828070300PT5620161006000060SPEAKER ASM                   M IMCTM G9JB34 FTTL  07070G/WAY G9 PTB  00015                    1530 GW        0000000000005FUJITSU TEN (THAILAN170KPFG0024024                                                                                                                              *          20161003IMF1610033.TXT
MDD6GO205358201610                D89828070300PT5620161006000060SPEAKER ASM                   M IMCTM G9JB34 FTTL  07070G/WAY G9 PTB  00015                    2100 GW        0000000000005FUJITSU TEN (THAILAN170KRDG0005005                                                                                                                              *          20161003IMF1610033.TXT
MDD6GO205359201610                D89828070300PT5620161006000060SPEAKER ASM                   M IMCTM G9JB34 FTTL  07070G/WAY G9 PTB  00015                    2300 GW        0000000000005FUJITSU TEN (THAILAN170KRPG0002002                                                                                                                              *          20161003IMF1610033.TXT
MDD6GO205360201610                D89828070300PT5620161007000060SPEAKER ASM                   M IMCTM G9JB34 FTTL  07070G/WAY G9 PTB  00015                    0900 GW        0000000000005FUJITSU TEN (THAILAN170KPDG0012012                                                                                                                              *          20161003IMF1610033.TXT
MDD6GO205361201610                D89828070300PT5620161007000060SPEAKER ASM                   M IMCTM G9JB34 FTTL  07070G/WAY G9 PTB  00015                    1100 GW        0000000000005FUJITSU TEN (THAILAN170KRHG0011011                                                                                                                              *          20161003IMF1610033.TXT
MDD6GO205362201610                D89828070300PT5620161007000060SPEAKER ASM                   M IMCTM G9JB34 FTTL  07070G/WAY G9 PTB  00015                    1400 GW        0000000000005FUJITSU TEN (THAILAN170KPLG0003003                                                                                                                              *          20161003IMF1610033.TXT
MDD6GO205363201610                D89831228300PT5620161006000030RADIO;AM/FM,CD                M IMCTM G9J311 FTTL  07070G/WAY G9 CPB  00003                    1530 GW        0000000000005FUJITSU TEN (THAILAN170KPFG0024024                                                                                                                              *          20161003IMF1610033.TXT
MDD6GO205364201610                D89831228300PT5620161007000030RADIO;AM/FM,CD                M IMCTM G9J311 FTTL  07070G/WAY G9 CPB  00003                    0900 GW        0000000000005FUJITSU TEN (THAILAN170KPDG0012012                                                                                                                              *          20161003IMF1610033.TXT
MDD6GO205365201610                D89831228400PT5620161006000030RADIO;AM/FM,CD                M IMCTM G9J311 FTTL  07070G/WAY G9 CPB  00003                    2100 GW        0000000000005FUJITSU TEN (THAILAN170KRDG0005005                                                                                                                              *          20161003IMF1610033.TXT
