REC2016101320161013ISUZU                              21     
MAKK6O070737201610D4               89805293700P3YK20161025000120SPEAKER ASM                   M IMCTM CM1    FTTL  07070IMKDC 01   PTB00003  K0                1621DES        000000000000 FUJITSU TEN (THAILAN                                                                                                                                            *G         20161013IMF1610131.TXT
MAKK6O070738201610D4               89805293700P3YK20161026000150SPEAKER ASM                   M IMCTM CM1    FTTL  07070IMKDC 01   PTB00003  K0                1621DES        000000000000 FUJITSU TEN (THAILAN                                                                                                                                            *G         20161013IMF1610131.TXT
MAKK6O070739201610D4               89805293700P3YK20161027000180SPEAKER ASM                   M IMCTM CM1    FTTL  07070IMKDC 01   PTB00003  K0                1621DES        000000000000 FUJITSU TEN (THAILAN                                                                                                                                            *G         20161013IMF1610131.TXT
MAKK6O070740201610D4               89805293700P3YK20161028000240SPEAKER ASM                   M IMCTM CM1    FTTL  07070IMKDC 01   PTB00003  K0                1621DES        000000000000 FUJITSU TEN (THAILAN                                                                                                                                            *G         20161013IMF1610131.TXT
MAKK6O070741201610D4               89805293700P3YK20161029000180SPEAKER ASM                   M IMCTM CM1    FTTL  07070IMKDC 01   PTB00003  K0                1621DES        000000000000 FUJITSU TEN (THAILAN                                                                                                                                            *G         20161013IMF1610131.TXT
MAKK6O070742201610D4               89805294000P3YK20161026000030SPEAKER ASM                   M IMCTM CM1    FTTL  07070IMKDC 01   PTB00015  K0                1621DES        000000000000 FUJITSU TEN (THAILAN                                                                                                                                            *G         20161013IMF1610131.TXT
MAKK6O070743201610D4               89805294000P3YK20161027000060SPEAKER ASM                   M IMCTM CM1    FTTL  07070IMKDC 01   PTB00015  K0                1621DES        000000000000 FUJITSU TEN (THAILAN                                                                                                                                            *G         20161013IMF1610131.TXT
MAKK6O070744201610D4               89805294000P3YK20161029000030SPEAKER ASM                   M IMCTM CM1    FTTL  07070IMKDC 01   PTB00015  K0                1621DES        000000000000 FUJITSU TEN (THAILAN                                                                                                                                            *G         20161013IMF1610131.TXT
MAKK6O070745201610D4               89805294100P3YK20161026000030SPEAKER ASM                   M IMCTM CM1    FTTL  07070IMKDC 01   PTB00005  K0                1621DES        000000000000 FUJITSU TEN (THAILAN                                                                                                                                            *G         20161013IMF1610131.TXT
MAKK6O070746201610D4               89805294100P3YK20161027000060SPEAKER ASM                   M IMCTM CM1    FTTL  07070IMKDC 01   PTB00005  K0                1621DES        000000000000 FUJITSU TEN (THAILAN                                                                                                                                            *G         20161013IMF1610131.TXT
MAKK6O070747201610D4               89805294100P3YK20161029000030SPEAKER ASM                   M IMCTM CM1    FTTL  07070IMKDC 01   PTB00005  K0                1621DES        000000000000 FUJITSU TEN (THAILAN                                                                                                                                            *G         20161013IMF1610131.TXT
MAKK6O070748201610D4               89825451200P3YK20161025000060SPEAKER ASM;ROOF              M IMCTM CM1    FTTL  07070IMKDC 01   PTB00015  K0                1621DES        000000000000 FUJITSU TEN (THAILAN                                                                                                                                            *G         20161013IMF1610131.TXT
MAKK6O070749201610D4               89825451200P3YK20161026000090SPEAKER ASM;ROOF              M IMCTM CM1    FTTL  07070IMKDC 01   PTB00015  K0                1621DES        000000000000 FUJITSU TEN (THAILAN                                                                                                                                            *G         20161013IMF1610131.TXT
MAKK6O070750201610D4               89825451200P3YK20161027000090SPEAKER ASM;ROOF              M IMCTM CM1    FTTL  07070IMKDC 01   PTB00015  K0                1621DES        000000000000 FUJITSU TEN (THAILAN                                                                                                                                            *G         20161013IMF1610131.TXT
MAKK6O070751201610D4               89825451200P3YK20161029000030SPEAKER ASM;ROOF              M IMCTM CM1    FTTL  07070IMKDC 01   PTB00015  K0                1621DES        000000000000 FUJITSU TEN (THAILAN                                                                                                                                            *G         20161013IMF1610131.TXT
MAKK6O070752201610D4               89828070100P3YK20161025000060SPEAKER ASM                   M IMCTM CM1    FTTL  07070IMKDC 01 PTB  00003  K0                1621DES        000000000000 FUJITSU TEN (THAILAN                                                                                                                                            *G         20161013IMF1610131.TXT
MAKK6O070753201610D4               89828070100P3YK20161028000030SPEAKER ASM                   M IMCTM CM1    FTTL  07070IMKDC 01 PTB  00003  K0                1621DES        000000000000 FUJITSU TEN (THAILAN                                                                                                                                            *G         20161013IMF1610131.TXT
MAKK6O070754201610D4               89828070200P3YK20161025000060SPEAKER ASM                   M IMCTM CM1    FTTL  07070IMKDC 01 PTB  00005  K0                1621DES        000000000000 FUJITSU TEN (THAILAN                                                                                                                                            *G         20161013IMF1610131.TXT
MAKK6O070755201610D4               89828070200P3YK20161028000030SPEAKER ASM                   M IMCTM CM1    FTTL  07070IMKDC 01 PTB  00005  K0                1621DES        000000000000 FUJITSU TEN (THAILAN                                                                                                                                            *G         20161013IMF1610131.TXT
MAKK6O070756201610D4               89828070300P3YK20161025000060SPEAKER ASM                   M IMCTM CM1    FTTL  07070IMKDC 01 PTB  00015  K0                1621DES        000000000000 FUJITSU TEN (THAILAN                                                                                                                                            *G         20161013IMF1610131.TXT
MAKK6O070757201610D4               89828070300P3YK20161028000030SPEAKER ASM                   M IMCTM CM1    FTTL  07070IMKDC 01 PTB  00015  K0                1621DES        000000000000 FUJITSU TEN (THAILAN                                                                                                                                            *G         20161013IMF1610131.TXT
