REC2016100120161001ISUZU                              50     
MDDDGO201905201610                D89821984430PT1D20161005000030RADIO;AM/FM,CD                M IMCTM S5NC06 FTTL  07070IMCT  S5 PTB  00005                    2100 SR        000000000000 FUJITSU TEN (THAILAN170KPAL0004004                                                                                                                              *          20161001IMF1610014.TXT
MDDDGO201906201610                D89821984430PT1D20161005000030RADIO;AM/FM,CD                M IMCTM S5NC06 FTTL  07070IMCT  S5 PTB  00005                    2230 SR        000000000000 FUJITSU TEN (THAILAN170KNEL0008008                                                                                                                              *          20161001IMF1610014.TXT
MDDDGO201907201610                D89821984430PT1D20161006000030RADIO;AM/FM,CD                M IMCTM S5NC06 FTTL  07070IMCT  S5 PTB  00005                    0230 SR        000000000000 FUJITSU TEN (THAILAN170KPAL0005005                                                                                                                              *          20161001IMF1610014.TXT
MDDDGO201908201610                D89821984430PT1D20161006000030RADIO;AM/FM,CD                M IMCTM S5NC06 FTTL  07070IMCT  S5 PTB  00005                    0900 SR        000000000000 FUJITSU TEN (THAILAN170KPAL0006006                                                                                                                              *          20161001IMF1610014.TXT
MDDDGO201909201610                D89821984430PT1D20161006000030RADIO;AM/FM,CD                M IMCTM S5NC06 FTTL  07070IMCT  S5 PTB  00005                    1300 SR        000000000000 FUJITSU TEN (THAILAN170KNEL0009009                                                                                                                              *          20161001IMF1610014.TXT
MDDDGO201910201610                D89828070100PV1D20161005000060SPEAKER ASM                   M IMCTM S5MA12 FTTL  07070IMCT  S5 PTB  00004                    2100 SR        000000000000 FUJITSU TEN (THAILAN170KPAL0004004                                                                                                                              *          20161001IMF1610014.TXT
MDDDGO201911201610                D89828070100PV1D20161005000060SPEAKER ASM                   M IMCTM S5MA12 FTTL  07070IMCT  S5 PTB  00004                    2230 SR        000000000000 FUJITSU TEN (THAILAN170KNEL0008008                                                                                                                              *          20161001IMF1610014.TXT
MDDDGO201912201610                D89828070100PV1D20161006000060SPEAKER ASM                   M IMCTM S5MA12 FTTL  07070IMCT  S5 PTB  00004                    0230 SR        000000000000 FUJITSU TEN (THAILAN170KPAL0005005                                                                                                                              *          20161001IMF1610014.TXT
MDDDGO201913201610                D89828070100PV1D20161006000060SPEAKER ASM                   M IMCTM S5MA12 FTTL  07070IMCT  S5 PTB  00004                    0400 SR        000000000000 FUJITSU TEN (THAILAN170KRFL0003003                                                                                                                              *          20161001IMF1610014.TXT
MDDDGO201914201610                D89828070100PV1D20161006000120SPEAKER ASM                   M IMCTM S5MA12 FTTL  07070IMCT  S5 PTB  00004                    0900 SR        000000000000 FUJITSU TEN (THAILAN170KPAL0006006170KRSL0013013                                                                                                                *          20161001IMF1610014.TXT
MDDDGO201915201610                D89828070100PV1D20161006000060SPEAKER ASM                   M IMCTM S5MA12 FTTL  07070IMCT  S5 PTB  00004                    1300 SR        000000000000 FUJITSU TEN (THAILAN170KNEL0009009                                                                                                                              *          20161001IMF1610014.TXT
MDDDGO201916201610                D89828070100PV1D20161006000180SPEAKER ASM                   M IMCTM S5MA12 FTTL  07070IMCT  S5 PTB  00004                    1600 SR        000000000000 FUJITSU TEN (THAILAN170KPFL0005006170KRRL0007007                                                                                                                *          20161001IMF1610014.TXT
MDDDGO201917201610                D89828070200PV1D20161006000060SPEAKER ASM                   M IMCTM S5MA13 FTTL  07070IMCT  S5 PTB  00005                    0400 SR        000000000000 FUJITSU TEN (THAILAN170KRFL0003003                                                                                                                              *          20161001IMF1610014.TXT
MDDDGO201918201610                D89828070200PV1D20161006000060SPEAKER ASM                   M IMCTM S5MA13 FTTL  07070IMCT  S5 PTB  00005                    0900 SR        000000000000 FUJITSU TEN (THAILAN170KRSL0013013                                                                                                                              *          20161001IMF1610014.TXT
MDDDGO201919201610                D89828070200PV1D20161006000060SPEAKER ASM                   M IMCTM S5MA13 FTTL  07070IMCT  S5 PTB  00005                    1600 SR        000000000000 FUJITSU TEN (THAILAN170KRRL0007007                                                                                                                              *          20161001IMF1610014.TXT
MDDDGO201920201610                D89828070300PT1D20161006000060SPEAKER ASM                   M IMCTM S5NB042FTTL  07070IMCT  S5 PTB  00015                    0400 SR        000000000000 FUJITSU TEN (THAILAN170KRFL0003003                                                                                                                              *          20161001IMF1610014.TXT
MDDDGO201921201610                D89828070300PT1D20161006000060SPEAKER ASM                   M IMCTM S5NB042FTTL  07070IMCT  S5 PTB  00015                    0900 SR        000000000000 FUJITSU TEN (THAILAN170KRSL0013013                                                                                                                              *          20161001IMF1610014.TXT
MDDDGO201922201610                D89828070300PT1D20161006000180SPEAKER ASM                   M IMCTM S5NB042FTTL  07070IMCT  S5 PTB  00015                    1600 SR        000000000000 FUJITSU TEN (THAILAN170KPFL0005006170KRRL0007007                                                                                                                *          20161001IMF1610014.TXT
MDDDGO201923201610                D89829645900PT1D20161006000030RADIO;ASM DVD                 M IMCTM S5NC06 FTTL  07070IMCT  S5 CPB  00003                    0400 SR        000000000000 FUJITSU TEN (THAILAN170KRFL0003003                                                                                                                              *          20161001IMF1610014.TXT
MDDDGO201924201610                D89831228300PT1D20161006000060RADIO;AM/FM,CD                M IMCTM S5NC06 FTTL  07070IMCT  S5 CPB  00003                    1600 SR        000000000000 FUJITSU TEN (THAILAN170KPFL0005006                                                                                                                              *          20161001IMF1610014.TXT
MDDUGO200413201610                D89828070100PT4U20161006000030SPEAKER ASM                   M IMCTM S0FL05 FTTL  07070IMCT  S0 PTB  00004                    1600 SR        000000000000 FUJITSU TEN (THAILAN170KUCU0011011                                                                                                                              *          20161001IMF1610014.TXT
MDDUGO200414201610                D89828070200PV4U20161006000030SPEAKER ASM                   M IMCTM S0FR05 FTTL  07070IMCT  S0 PTB  00005                    1600 SR        000000000000 FUJITSU TEN (THAILAN170KUCU0011011                                                                                                                              *          20161001IMF1610014.TXT
MDDUGO200415201610                D89828070300PT4U20161006000030SPEAKER ASM                   M IMCTM S9TS02 FTTL  07070IMCT  S9 PTB  00015                    1600 SR        000000000000 FUJITSU TEN (THAILAN170KUCU0011011                                                                                                                              *          20161001IMF1610014.TXT
MDDUGO200416201610                D89829093500PT4U20161006000015RADIO;ASM DVD (T              M IMCTM S9CO001FTTL  07070IMCT  S9 PTB  00003                    1600 SR        000000000000 FUJITSU TEN (THAILAN170KUCU0011011                                                                                                                              *          20161001IMF1610014.TXT
MDEDGO201101201610                D89828070100PV1D20161005000090SPEAKER ASM                   M IMCTM S5MA12 FTTL  07070IMCT  S5 PTB  00004                    2230 SR        000000000000 FUJITSU TEN (THAILAN16007JL012612716072LL0019019                                                                                                                *          20161001IMF1610014.TXT
MDEDGO201102201610                D89828070100PV1D20161006000030SPEAKER ASM                   M IMCTM S5MA12 FTTL  07070IMCT  S5 PTB  00004                    0400 SR        000000000000 FUJITSU TEN (THAILAN16081HL0116116                                                                                                                              *          20161001IMF1610014.TXT
MDEDGO201103201610                D89828070100PV1D20161006000060SPEAKER ASM                   M IMCTM S5MA12 FTTL  07070IMCT  S5 PTB  00004                    1300 SR        000000000000 FUJITSU TEN (THAILAN16075HL0092093                                                                                                                              *          20161001IMF1610014.TXT
MDEDGO201104201610                D89828070100PV1D20161006000030SPEAKER ASM                   M IMCTM S5MA12 FTTL  07070IMCT  S5 PTB  00004                    1600 SR        000000000000 FUJITSU TEN (THAILAN16081HL0117117                                                                                                                              *          20161001IMF1610014.TXT
MDEDGO201105201610                D89828070100PV4D20161006000030SPEAKER ASM                   M IMCTM S0FL05 FTTL  07070IMCT  S0 PTB  00004                    0900 SR        000000000000 FUJITSU TEN (THAILAN16045JU0001001                                                                                                                              *          20161001IMF1610014.TXT
MDEDGO201106201610                D89828070200PV4D20161006000030SPEAKER ASM                   M IMCTM S0FR05 FTTL  07070IMCT  S0 PTB  00005                    0900 SR        000000000000 FUJITSU TEN (THAILAN16045JU0001001                                                                                                                              *          20161001IMF1610014.TXT
MDEDGO201107201610                D89828070300PT4D20161006000030SPEAKER ASM                   M IMCTM S9TS02 FTTL  07070IMCT  S9 PTB  00015                    0900 SR        000000000000 FUJITSU TEN (THAILAN16045JU0001001                                                                                                                              *          20161001IMF1610014.TXT
MDEDGO201108201610                D89831229200PT4D20161006000015RADIO;AM/FM,CD                M IMCTM S9CO001FTTL  07070IMCT  S9 PTB  00003                    0900 SR        000000000000 FUJITSU TEN (THAILAN16045JU0001001                                                                                                                              *          20161001IMF1610014.TXT
MDEUGO200874201610                D89828070100PT4U20161005000060SPEAKER ASM                   M IMCTM S0FL05 FTTL  07070IMCT  S0 PTB  00004                    2230 SR        000000000000 FUJITSU TEN (THAILAN160B45U0057057160B46U0127127                                                                                                                *          20161001IMF1610014.TXT
MDEUGO200875201610                D89828070100PT4U20161006000030SPEAKER ASM                   M IMCTM S0FL05 FTTL  07070IMCT  S0 PTB  00004                    0230 SR        000000000000 FUJITSU TEN (THAILAN160C01U0015015                                                                                                                              *          20161001IMF1610014.TXT
MDEUGO200876201610                D89828070100PT4U20161006000030SPEAKER ASM                   M IMCTM S0FL05 FTTL  07070IMCT  S0 PTB  00004                    0400 SR        000000000000 FUJITSU TEN (THAILAN160B48U0387387                                                                                                                              *          20161001IMF1610014.TXT
MDEUGO200877201610                D89828070100PT4U20161006000060SPEAKER ASM                   M IMCTM S0FL05 FTTL  07070IMCT  S0 PTB  00004                    0900 SR        000000000000 FUJITSU TEN (THAILAN160B46U0128128160B48U0388388                                                                                                                *          20161001IMF1610014.TXT
MDEUGO200878201610                D89828070100PT4U20161006000030SPEAKER ASM                   M IMCTM S0FL05 FTTL  07070IMCT  S0 PTB  00004                    1300 SR        000000000000 FUJITSU TEN (THAILAN160B53U0017017                                                                                                                              *          20161001IMF1610014.TXT
MDEUGO200879201610                D89828070100PT4U20161006000030SPEAKER ASM                   M IMCTM S0FL05 FTTL  07070IMCT  S0 PTB  00004                    2100 SR        000000000000 FUJITSU TEN (THAILAN160B48U0389389                                                                                                                              *          20161001IMF1610014.TXT
MDEUGO200880201610                D89828070200PV4U20161005000060SPEAKER ASM                   M IMCTM S0FR05 FTTL  07070IMCT  S0 PTB  00005                    2230 SR        000000000000 FUJITSU TEN (THAILAN160B45U0057057160B46U0127127                                                                                                                *          20161001IMF1610014.TXT
MDEUGO200881201610                D89828070200PV4U20161006000030SPEAKER ASM                   M IMCTM S0FR05 FTTL  07070IMCT  S0 PTB  00005                    0230 SR        000000000000 FUJITSU TEN (THAILAN160C01U0015015                                                                                                                              *          20161001IMF1610014.TXT
MDEUGO200882201610                D89828070200PV4U20161006000030SPEAKER ASM                   M IMCTM S0FR05 FTTL  07070IMCT  S0 PTB  00005                    0400 SR        000000000000 FUJITSU TEN (THAILAN160B48U0387387                                                                                                                              *          20161001IMF1610014.TXT
MDEUGO200883201610                D89828070200PV4U20161006000060SPEAKER ASM                   M IMCTM S0FR05 FTTL  07070IMCT  S0 PTB  00005                    0900 SR        000000000000 FUJITSU TEN (THAILAN160B46U0128128160B48U0388388                                                                                                                *          20161001IMF1610014.TXT
MDEUGO200884201610                D89828070200PV4U20161006000030SPEAKER ASM                   M IMCTM S0FR05 FTTL  07070IMCT  S0 PTB  00005                    1300 SR        000000000000 FUJITSU TEN (THAILAN160B53U0017017                                                                                                                              *          20161001IMF1610014.TXT
MDEUGO200885201610                D89828070200PV4U20161006000030SPEAKER ASM                   M IMCTM S0FR05 FTTL  07070IMCT  S0 PTB  00005                    2100 SR        000000000000 FUJITSU TEN (THAILAN160B48U0389389                                                                                                                              *          20161001IMF1610014.TXT
MDEUGO200886201610                D89828070300PT4U20161005000060SPEAKER ASM                   M IMCTM S9TS02 FTTL  07070IMCT  S9 PTB  00015                    2230 SR        000000000000 FUJITSU TEN (THAILAN160B45U0057057160B46U0127127                                                                                                                *          20161001IMF1610014.TXT
MDEUGO200887201610                D89828070300PT4U20161006000030SPEAKER ASM                   M IMCTM S9TS02 FTTL  07070IMCT  S9 PTB  00015                    0230 SR        000000000000 FUJITSU TEN (THAILAN160C01U0015015                                                                                                                              *          20161001IMF1610014.TXT
MDEUGO200888201610                D89828070300PT4U20161006000030SPEAKER ASM                   M IMCTM S9TS02 FTTL  07070IMCT  S9 PTB  00015                    0400 SR        000000000000 FUJITSU TEN (THAILAN160B48U0387387                                                                                                                              *          20161001IMF1610014.TXT
MDEUGO200889201610                D89828070300PT4U20161006000060SPEAKER ASM                   M IMCTM S9TS02 FTTL  07070IMCT  S9 PTB  00015                    0900 SR        000000000000 FUJITSU TEN (THAILAN160B46U0128128160B48U0388388                                                                                                                *          20161001IMF1610014.TXT
MDEUGO200890201610                D89828070300PT4U20161006000030SPEAKER ASM                   M IMCTM S9TS02 FTTL  07070IMCT  S9 PTB  00015                    1300 SR        000000000000 FUJITSU TEN (THAILAN160B53U0017017                                                                                                                              *          20161001IMF1610014.TXT
MDEUGO200891201610                D89828070300PT4U20161006000030SPEAKER ASM                   M IMCTM S9TS02 FTTL  07070IMCT  S9 PTB  00015                    2100 SR        000000000000 FUJITSU TEN (THAILAN160B48U0389389                                                                                                                              *          20161001IMF1610014.TXT
