REC2016102820161029ISUZU                              48     
MDDDGO322532201611                D89821984430PT1D20161101000060RADIO;AM/FM,CD                M IMCTM S5NC06 FTTL  07070IMCT  S5 PTB  00005                    2230 SR        000000000000 FUJITSU TEN (THAILAN170KNEL0021021170KPAL0027027                                                                                                                *          20161028IMF1610287.TXT
MDDDGO322533201611                D89821984430PT1D20161102000030RADIO;AM/FM,CD                M IMCTM S5NC06 FTTL  07070IMCT  S5 PTB  00005                    0230 SR        000000000000 FUJITSU TEN (THAILAN170KNDL0041041                                                                                                                              *          20161028IMF1610287.TXT
MDDDGO322534201611                D89825217900PT1D20161101000030RADIO;AM/FM,CD,D              M IMCTM S5NC06 FTTL  07070IMCT  S5 PTB  00003                    2100 SR        000000000000 FUJITSU TEN (THAILAN170KPJL0009009                                                                                                                              *          20161028IMF1610287.TXT
MDDDGO322535201611                D89825217900PT1D20161102000030RADIO;AM/FM,CD,D              M IMCTM S5NC06 FTTL  07070IMCT  S5 PTB  00003                    1600 SR        000000000000 FUJITSU TEN (THAILAN170KPKL0003003                                                                                                                              *          20161028IMF1610287.TXT
MDDDGO322536201611                D89828070100PV1D20161101000060SPEAKER ASM                   M IMCTM S5MB11 FTTL  07070IMCT  S5 PTB  00004                    2100 SR        000000000000 FUJITSU TEN (THAILAN170KPJL0009009                                                                                                                              *          20161028IMF1610287.TXT
MDDDGO322537201611                D89828070100PV1D20161101000120SPEAKER ASM                   M IMCTM S5MB11 FTTL  07070IMCT  S5 PTB  00004                    2230 SR        000000000000 FUJITSU TEN (THAILAN170KNEL0021021170KPAL0027027                                                                                                                *          20161028IMF1610287.TXT
MDDDGO322538201611                D89828070100PV1D20161102000060SPEAKER ASM                   M IMCTM S5MB11 FTTL  07070IMCT  S5 PTB  00004                    0230 SR        000000000000 FUJITSU TEN (THAILAN170KNDL0041041                                                                                                                              *          20161028IMF1610287.TXT
MDDDGO322539201611                D89828070100PV1D20161102000120SPEAKER ASM                   M IMCTM S5MB11 FTTL  07070IMCT  S5 PTB  00004                    0400 SR        000000000000 FUJITSU TEN (THAILAN170KPFL0036036170KRRL0012012                                                                                                                *          20161028IMF1610287.TXT
MDDDGO322540201611                D89828070100PV1D20161102000120SPEAKER ASM                   M IMCTM S5MB11 FTTL  07070IMCT  S5 PTB  00004                    0900 SR        000000000000 FUJITSU TEN (THAILAN170KPCL0016016170KRFL0008008                                                                                                                *          20161028IMF1610287.TXT
MDDDGO322541201611                D89828070100PV1D20161102000120SPEAKER ASM                   M IMCTM S5MB11 FTTL  07070IMCT  S5 PTB  00004                    1300 SR        000000000000 FUJITSU TEN (THAILAN170KNAL0009009170KRJL0007007                                                                                                                *          20161028IMF1610287.TXT
MDDDGO322542201611                D89828070100PV1D20161102000120SPEAKER ASM                   M IMCTM S5MB11 FTTL  07070IMCT  S5 PTB  00004                    1600 SR        000000000000 FUJITSU TEN (THAILAN170KNBL0005005170KPKL0003003                                                                                                                *          20161028IMF1610287.TXT
MDDDGO322543201611                D89828070200PV1D20161102000060SPEAKER ASM                   M IMCTM S5MA14 FTTL  07070IMCT  S5 PTB  00005                    0400 SR        000000000000 FUJITSU TEN (THAILAN170KRRL0012012                                                                                                                              *          20161028IMF1610287.TXT
MDDDGO322544201611                D89828070200PV1D20161102000060SPEAKER ASM                   M IMCTM S5MA14 FTTL  07070IMCT  S5 PTB  00005                    0900 SR        000000000000 FUJITSU TEN (THAILAN170KRFL0008008                                                                                                                              *          20161028IMF1610287.TXT
MDDDGO322545201611                D89828070200PV1D20161102000060SPEAKER ASM                   M IMCTM S5MA14 FTTL  07070IMCT  S5 PTB  00005                    1300 SR        000000000000 FUJITSU TEN (THAILAN170KRJL0007007                                                                                                                              *          20161028IMF1610287.TXT
MDDDGO322546201611                D89828070300PT1D20161101000060SPEAKER ASM                   M IMCTM S5NB042FTTL  07070IMCT  S5 PTB  00015                    2100 SR        000000000000 FUJITSU TEN (THAILAN170KPJL0009009                                                                                                                              *          20161028IMF1610287.TXT
MDDDGO322547201611                D89828070300PT1D20161102000120SPEAKER ASM                   M IMCTM S5NB042FTTL  07070IMCT  S5 PTB  00015                    0400 SR        000000000000 FUJITSU TEN (THAILAN170KPFL0036036170KRRL0012012                                                                                                                *          20161028IMF1610287.TXT
MDDDGO322548201611                D89828070300PT1D20161102000120SPEAKER ASM                   M IMCTM S5NB042FTTL  07070IMCT  S5 PTB  00015                    0900 SR        000000000000 FUJITSU TEN (THAILAN170KPCL0016016170KRFL0008008                                                                                                                *          20161028IMF1610287.TXT
MDDDGO322549201611                D89828070300PT1D20161102000060SPEAKER ASM                   M IMCTM S5NB042FTTL  07070IMCT  S5 PTB  00015                    1300 SR        000000000000 FUJITSU TEN (THAILAN170KRJL0007007                                                                                                                              *          20161028IMF1610287.TXT
MDDDGO322550201611                D89828070300PT1D20161102000060SPEAKER ASM                   M IMCTM S5NB042FTTL  07070IMCT  S5 PTB  00015                    1600 SR        000000000000 FUJITSU TEN (THAILAN170KPKL0003003                                                                                                                              *          20161028IMF1610287.TXT
MDDDGO322551201611                D89829645900PT1D20161102000030RADIO;ASM DVD                 M IMCTM S5NC06 FTTL  07070IMCT  S5 CPB  00003                    0900 SR        000000000000 FUJITSU TEN (THAILAN170KRFL0008008                                                                                                                              *          20161028IMF1610287.TXT
MDDDGO322552201611                D89831228300PT1D20161102000030RADIO;AM/FM,CD                M IMCTM S5NC06 FTTL  07070IMCT  S5 CPB  00003                    0400 SR        000000000000 FUJITSU TEN (THAILAN170KPFL0036036                                                                                                                              *          20161028IMF1610287.TXT
MDDDGO322553201611                D89831228300PT1D20161102000030RADIO;AM/FM,CD                M IMCTM S5NC06 FTTL  07070IMCT  S5 CPB  00003                    0900 SR        000000000000 FUJITSU TEN (THAILAN170KPCL0016016                                                                                                                              *          20161028IMF1610287.TXT
MDDUGO246542201611                D89828070100PT4U20161102000030SPEAKER ASM                   M IMCTM S0FL05 FTTL  07070IMCT  S0 PTB  00004                    1600 SR        000000000000 FUJITSU TEN (THAILAN170KUCU0021021                                                                                                                              *          20161028IMF1610287.TXT
MDDUGO246543201611                D89828070200PV4U20161102000030SPEAKER ASM                   M IMCTM S0FR05 FTTL  07070IMCT  S0 PTB  00005                    1600 SR        000000000000 FUJITSU TEN (THAILAN170KUCU0021021                                                                                                                              *          20161028IMF1610287.TXT
MDDUGO246544201611                D89828070300PT4U20161102000030SPEAKER ASM                   M IMCTM S9TS02 FTTL  07070IMCT  S9 PTB  00015                    1600 SR        000000000000 FUJITSU TEN (THAILAN170KUCU0021021                                                                                                                              *          20161028IMF1610287.TXT
MDDUGO246545201611                D89829093500PT4U20161102000015RADIO;ASM DVD (T              M IMCTM S9CO001FTTL  07070IMCT  S9 PTB  00003                    1600 SR        000000000000 FUJITSU TEN (THAILAN170KUCU0021021                                                                                                                              *          20161028IMF1610287.TXT
MDEDGO257821201611                D89805293700PV4D20161102000030SPEAKER ASM                   M IMCTM S0FR05 FTTL  07070IMCT  S0 PTB  00003                    0900 SR        000000000000 FUJITSU TEN (THAILAN15019FU0025025                                                                                                                              *          20161028IMF1610287.TXT
MDEDGO257822201611                D89828070100PV1D20161102000030SPEAKER ASM                   M IMCTM S5MB11 FTTL  07070IMCT  S5 PTB  00004                    1600 SR        000000000000 FUJITSU TEN (THAILAN16083HL0003003                                                                                                                              *          20161028IMF1610287.TXT
MDEDGO257823201611                D89828070100PV1D20161102000030SPEAKER ASM                   M IMCTM S5MB11 FTTL  07070IMCT  S5 PTB  00004                    2100 SR        000000000000 FUJITSU TEN (THAILAN16083HL0004004                                                                                                                              *          20161028IMF1610287.TXT
MDEDGO257824201611                D89828070100PV4D20161102000030SPEAKER ASM                   M IMCTM S0FL05 FTTL  07070IMCT  S0 PTB  00004                    1600 SR        000000000000 FUJITSU TEN (THAILAN17042PU0002002                                                                                                                              *          20161028IMF1610287.TXT
MDEDGO257825201611                D89828070200PV4D20161102000030SPEAKER ASM                   M IMCTM S0FR05 FTTL  07070IMCT  S0 PTB  00005                    1600 SR        000000000000 FUJITSU TEN (THAILAN17042PU0002002                                                                                                                              *          20161028IMF1610287.TXT
MDEDGO257826201611                D89828070300PT4D20161102000030SPEAKER ASM                   M IMCTM S9TS02 FTTL  07070IMCT  S9 PTB  00015                    1600 SR        000000000000 FUJITSU TEN (THAILAN17042PU0002002                                                                                                                              *          20161028IMF1610287.TXT
MDEDGO257827201611                D89831228400PT4D20161102000015RADIO;AM/FM,CD                M IMCTM S9CO001FTTL  07070IMCT  S9 CPB  00003                    1600 SR        000000000000 FUJITSU TEN (THAILAN17042PU0002002                                                                                                                              *          20161028IMF1610287.TXT
MDEUGO283710201611                D89828070100PT4U20161101000060SPEAKER ASM                   M IMCTM S0FL05 FTTL  07070IMCT  S0 PTB  00004                    2230 SR        000000000000 FUJITSU TEN (THAILAN160B94U0012012160B95U0022022                                                                                                                *          20161028IMF1610287.TXT
MDEUGO283711201611                D89828070100PT4U20161102000060SPEAKER ASM                   M IMCTM S0FL05 FTTL  07070IMCT  S0 PTB  00004                    0400 SR        000000000000 FUJITSU TEN (THAILAN170C13U0004004170C16U0004004                                                                                                                *          20161028IMF1610287.TXT
MDEUGO283712201611                D89828070100PT4U20161102000030SPEAKER ASM                   M IMCTM S0FL05 FTTL  07070IMCT  S0 PTB  00004                    0900 SR        000000000000 FUJITSU TEN (THAILAN170C47U0003003                                                                                                                              *          20161028IMF1610287.TXT
MDEUGO283713201611                D89828070100PT4U20161102000060SPEAKER ASM                   M IMCTM S0FL05 FTTL  07070IMCT  S0 PTB  00004                    1300 SR        000000000000 FUJITSU TEN (THAILAN170C13U0005005170C16U0005005                                                                                                                *          20161028IMF1610287.TXT
MDEUGO283714201611                D89828070100PT4U20161102000030SPEAKER ASM                   M IMCTM S0FL05 FTTL  07070IMCT  S0 PTB  00004                    1600 SR        000000000000 FUJITSU TEN (THAILAN170C15U0002002                                                                                                                              *          20161028IMF1610287.TXT
MDEUGO283715201611                D89828070200PV4U20161101000060SPEAKER ASM                   M IMCTM S0FR05 FTTL  07070IMCT  S0 PTB  00005                    2230 SR        000000000000 FUJITSU TEN (THAILAN160B94U0012012160B95U0022022                                                                                                                *          20161028IMF1610287.TXT
MDEUGO283716201611                D89828070200PV4U20161102000060SPEAKER ASM                   M IMCTM S0FR05 FTTL  07070IMCT  S0 PTB  00005                    0400 SR        000000000000 FUJITSU TEN (THAILAN170C13U0004004170C16U0004004                                                                                                                *          20161028IMF1610287.TXT
MDEUGO283717201611                D89828070200PV4U20161102000030SPEAKER ASM                   M IMCTM S0FR05 FTTL  07070IMCT  S0 PTB  00005                    0900 SR        000000000000 FUJITSU TEN (THAILAN170C47U0003003                                                                                                                              *          20161028IMF1610287.TXT
MDEUGO283718201611                D89828070200PV4U20161102000060SPEAKER ASM                   M IMCTM S0FR05 FTTL  07070IMCT  S0 PTB  00005                    1300 SR        000000000000 FUJITSU TEN (THAILAN170C13U0005005170C16U0005005                                                                                                                *          20161028IMF1610287.TXT
MDEUGO283719201611                D89828070200PV4U20161102000030SPEAKER ASM                   M IMCTM S0FR05 FTTL  07070IMCT  S0 PTB  00005                    1600 SR        000000000000 FUJITSU TEN (THAILAN170C15U0002002                                                                                                                              *          20161028IMF1610287.TXT
MDEUGO283720201611                D89828070300PT4U20161101000060SPEAKER ASM                   M IMCTM S9TS02 FTTL  07070IMCT  S9 PTB  00015                    2230 SR        000000000000 FUJITSU TEN (THAILAN160B94U0012012160B95U0022022                                                                                                                *          20161028IMF1610287.TXT
MDEUGO283721201611                D89828070300PT4U20161102000060SPEAKER ASM                   M IMCTM S9TS02 FTTL  07070IMCT  S9 PTB  00015                    0400 SR        000000000000 FUJITSU TEN (THAILAN170C13U0004004170C16U0004004                                                                                                                *          20161028IMF1610287.TXT
MDEUGO283722201611                D89828070300PT4U20161102000030SPEAKER ASM                   M IMCTM S9TS02 FTTL  07070IMCT  S9 PTB  00015                    0900 SR        000000000000 FUJITSU TEN (THAILAN170C47U0003003                                                                                                                              *          20161028IMF1610287.TXT
MDEUGO283723201611                D89828070300PT4U20161102000060SPEAKER ASM                   M IMCTM S9TS02 FTTL  07070IMCT  S9 PTB  00015                    1300 SR        000000000000 FUJITSU TEN (THAILAN170C13U0005005170C16U0005005                                                                                                                *          20161028IMF1610287.TXT
MDEUGO283724201611                D89828070300PT4U20161102000030SPEAKER ASM                   M IMCTM S9TS02 FTTL  07070IMCT  S9 PTB  00015                    1600 SR        000000000000 FUJITSU TEN (THAILAN170C15U0002002                                                                                                                              *          20161028IMF1610287.TXT
