REC2016101720161017ISUZU                              3      
MDEFGOT11381201610                D89805293700PV4F20161020000011SPEAKER ASM                   M IMCTM S7FR05 FTTL  07070IMCT  S7 PTB  00003                    1600 SR        000000000000 FUJITSU TEN (THAILAN15061CR0031   15061CR0036   R161003505    R161003510    000000                                                                              *R         20161017RDF1610173.TXT
MDEFGOT11382201610                D89828070100PV4F20161020000010SPEAKER ASM                   M IMCTM S7FL05 FTTL  07070IMCT  S7 PTB  00004                    1600 SR        000000000000 FUJITSU TEN (THAILAN16049JR0020   16049JR0022   R161003511    R161003515    000000                                                                              *R         20161017RDF1610173.TXT
MDEFGO226228201610                D89805293700PV4F20161020000009SPEAKER ASM                   M IMCTM S7FR05 FTTL  07070IMCT  S7 PTB  00003                    1300 SR        000000000000 FUJITSU TEN (THAILAN15061CR0027   15061CR0031   R161003501    R161003505    000000                                                                              *R         20161017RDF1610173.TXT
