REC2016100120161001ISUZU                              10     
MDEFGOT00305201610                D89805293700PV4F20161005000022SPEAKER ASM                   M IMCTM S7FR05 FTTL  07070IMCT  S7 PTB  00003                    1600 SR        000000000000 FUJITSU TEN (THAILAN15020FR0067   15034DR0023   D161001101    D161001111    000000                                                                              *R         20161001RDF1610014.TXT
MDEFGOT00306201610                D89805294000PT4F20161005000008SPEAKER ASM                   M IMCTM S7TS02 FTTL  07070IMCT  S7 PTB  00015                    1600 SR        000000000000 FUJITSU TEN (THAILAN15020FR0067   15034DR0023   D161001101    D161001111    000000                                                                              *R         20161001RDF1610014.TXT
MDEFGOT00307201610                D89805294100PV4F20161005000006SPEAKER ASM                   M IMCTM S7FR05 FTTL  07070IMCT  S7 PTB  00005                    1600 SR        000000000000 FUJITSU TEN (THAILAN15020FR0067   15020FR0069   D161001101    D161001103    000000                                                                              *R         20161001RDF1610014.TXT
MDEFGOT00308201610                D89805294200PT4F20161005000002SPEAKER ASM                   M IMCTM S7S137 FTTL  07070IMCT  S7 PTB  00030                    1600 SR        000000000000 FUJITSU TEN (THAILAN15034DR0023   15034DR0023   D161001111    D161001111    000000                                                                              *R         20161001RDF1610014.TXT
MDEFGOT00309201610                D89806470400PT4F20161005000001SPEAKER ASM;RDO,              M IMCTM S7TL03 FTTL  07070IMCT  S7 PTB  00015                    1600 SR        000000000000 FUJITSU TEN (THAILAN15034DR0023   15034DR0023   D161001111    D161001111    000000                                                                              *R         20161001RDF1610014.TXT
MDEFGOT00310201610                D89824360220PT4F20161005000001RADIO;AM/FM,CD                M IMCTM S7TS03 FTTL  07070IMCT  S7 CPB  00003                    1600 SR        000000000000 FUJITSU TEN (THAILAN15034DR0023   15034DR0023   D161001111    D161001111    000000                                                                              *R         20161001RDF1610014.TXT
MDEFGOT00311201610                D89828070100PV4F20161006000028SPEAKER ASM                   M IMCTM S7FL05 FTTL  07070IMCT  S7 PTB  00004                    0900 SR        000000000000 FUJITSU TEN (THAILAN16006JR0037   16008JR0008   H161001302    H161001315    000000                                                                              *R         20161001RDF1610014.TXT
MDEFGO200166201610                D89828070100PV4F20161005000008SPEAKER ASM                   M IMCTM S7FL05 FTTL  07070IMCT  S7 PTB  00004                    1600 SR        000000000000 FUJITSU TEN (THAILAN16032JR0040   16032JR0043   D161001112    D161001115    000000                                                                              *R         20161001RDF1610014.TXT
MDEFGO200167201610                D89828070100PV4F20161005000028SPEAKER ASM                   M IMCTM S7FL05 FTTL  07070IMCT  S7 PTB  00004                    2100 SR        000000000000 FUJITSU TEN (THAILAN16081HR0063   16085HR0039   R161001201    R161001214    000000                                                                              *R         20161001RDF1610014.TXT
MDEFGO200168201610                D89828070100PV4F20161005000004SPEAKER ASM                   M IMCTM S7FL05 FTTL  07070IMCT  S7 PTB  00004                    2230 SR        000000000000 FUJITSU TEN (THAILAN16006JR0036   16085HR0040   H161001301    R161001215    000000                                                                              *R         20161001RDF1610014.TXT
