REC2016102920161029ISUZU                              47     
MDDDGO329416201611                D89821984430PT1D20161103000030RADIO;AM/FM,CD                M IMCTM S5NC06 FTTL  07070IMCT  S5 PTB  00005                    0230 SR        000000000000 FUJITSU TEN (THAILAN170KNEL0022022                                                                                                                              *          20161029IMF1610294.TXT
MDDDGO329417201611                D89821984430PT1D20161103000030RADIO;AM/FM,CD                M IMCTM S5NC06 FTTL  07070IMCT  S5 PTB  00005                    0400 SR        000000000000 FUJITSU TEN (THAILAN170KNCL0026026                                                                                                                              *          20161029IMF1610294.TXT
MDDDGO329418201611                D89821984430PT1D20161103000030RADIO;AM/FM,CD                M IMCTM S5NC06 FTTL  07070IMCT  S5 PTB  00005                    1300 SR        000000000000 FUJITSU TEN (THAILAN170KPAL0028028                                                                                                                              *          20161029IMF1610294.TXT
MDDDGO329419201611                D89828070100PV1D20161102000060SPEAKER ASM                   M IMCTM S5MB11 FTTL  07070IMCT  S5 PTB  00004                    2100 SR        000000000000 FUJITSU TEN (THAILAN170KRSL0020020                                                                                                                              *          20161029IMF1610294.TXT
MDDDGO329420201611                D89828070100PV1D20161102000120SPEAKER ASM                   M IMCTM S5MB11 FTTL  07070IMCT  S5 PTB  00004                    2230 SR        000000000000 FUJITSU TEN (THAILAN170KPFL0037037170KRFL0009009                                                                                                                *          20161029IMF1610294.TXT
MDDDGO329421201611                D89828070100PV1D20161103000060SPEAKER ASM                   M IMCTM S5MB11 FTTL  07070IMCT  S5 PTB  00004                    0230 SR        000000000000 FUJITSU TEN (THAILAN170KNEL0022022                                                                                                                              *          20161029IMF1610294.TXT
MDDDGO329422201611                D89828070100PV1D20161103000120SPEAKER ASM                   M IMCTM S5MB11 FTTL  07070IMCT  S5 PTB  00004                    0400 SR        000000000000 FUJITSU TEN (THAILAN170KNCL0026026170KRHL0003003                                                                                                                *          20161029IMF1610294.TXT
MDDDGO329423201611                D89828070100PV1D20161103000120SPEAKER ASM                   M IMCTM S5MB11 FTTL  07070IMCT  S5 PTB  00004                    0900 SR        000000000000 FUJITSU TEN (THAILAN170KPML0006006170KRFL0010010                                                                                                                *          20161029IMF1610294.TXT
MDDDGO329424201611                D89828070100PV1D20161103000120SPEAKER ASM                   M IMCTM S5MB11 FTTL  07070IMCT  S5 PTB  00004                    1300 SR        000000000000 FUJITSU TEN (THAILAN170KPAL0028028170KPFL0038038                                                                                                                *          20161029IMF1610294.TXT
MDDDGO329425201611                D89828070100PV1D20161103000060SPEAKER ASM                   M IMCTM S5MB11 FTTL  07070IMCT  S5 PTB  00004                    1600 SR        000000000000 FUJITSU TEN (THAILAN170KPFL0039039                                                                                                                              *          20161029IMF1610294.TXT
MDDDGO329426201611                D89828070200PV1D20161102000060SPEAKER ASM                   M IMCTM S5MA14 FTTL  07070IMCT  S5 PTB  00005                    2100 SR        000000000000 FUJITSU TEN (THAILAN170KRSL0020020                                                                                                                              *          20161029IMF1610294.TXT
MDDDGO329427201611                D89828070200PV1D20161102000060SPEAKER ASM                   M IMCTM S5MA14 FTTL  07070IMCT  S5 PTB  00005                    2230 SR        000000000000 FUJITSU TEN (THAILAN170KRFL0009009                                                                                                                              *          20161029IMF1610294.TXT
MDDDGO329428201611                D89828070200PV1D20161103000060SPEAKER ASM                   M IMCTM S5MA14 FTTL  07070IMCT  S5 PTB  00005                    0400 SR        000000000000 FUJITSU TEN (THAILAN170KRHL0003003                                                                                                                              *          20161029IMF1610294.TXT
MDDDGO329429201611                D89828070200PV1D20161103000060SPEAKER ASM                   M IMCTM S5MA14 FTTL  07070IMCT  S5 PTB  00005                    0900 SR        000000000000 FUJITSU TEN (THAILAN170KRFL0010010                                                                                                                              *          20161029IMF1610294.TXT
MDDDGO329430201611                D89828070300PT1D20161102000060SPEAKER ASM                   M IMCTM S5NB042FTTL  07070IMCT  S5 PTB  00015                    2100 SR        000000000000 FUJITSU TEN (THAILAN170KRSL0020020                                                                                                                              *          20161029IMF1610294.TXT
MDDDGO329431201611                D89828070300PT1D20161102000120SPEAKER ASM                   M IMCTM S5NB042FTTL  07070IMCT  S5 PTB  00015                    2230 SR        000000000000 FUJITSU TEN (THAILAN170KPFL0037037170KRFL0009009                                                                                                                *          20161029IMF1610294.TXT
MDDDGO329432201611                D89828070300PT1D20161103000060SPEAKER ASM                   M IMCTM S5NB042FTTL  07070IMCT  S5 PTB  00015                    0400 SR        000000000000 FUJITSU TEN (THAILAN170KRHL0003003                                                                                                                              *          20161029IMF1610294.TXT
MDDDGO329433201611                D89828070300PT1D20161103000120SPEAKER ASM                   M IMCTM S5NB042FTTL  07070IMCT  S5 PTB  00015                    0900 SR        000000000000 FUJITSU TEN (THAILAN170KPML0006006170KRFL0010010                                                                                                                *          20161029IMF1610294.TXT
MDDDGO329434201611                D89828070300PT1D20161103000060SPEAKER ASM                   M IMCTM S5NB042FTTL  07070IMCT  S5 PTB  00015                    1300 SR        000000000000 FUJITSU TEN (THAILAN170KPFL0038038                                                                                                                              *          20161029IMF1610294.TXT
MDDDGO329435201611                D89828070300PT1D20161103000060SPEAKER ASM                   M IMCTM S5NB042FTTL  07070IMCT  S5 PTB  00015                    1600 SR        000000000000 FUJITSU TEN (THAILAN170KPFL0039039                                                                                                                              *          20161029IMF1610294.TXT
MDDDGO329436201611                D89829645900PT1D20161102000030RADIO;ASM DVD                 M IMCTM S5NC06 FTTL  07070IMCT  S5 CPB  00003                    2230 SR        000000000000 FUJITSU TEN (THAILAN170KRFL0009009                                                                                                                              *          20161029IMF1610294.TXT
MDDDGO329437201611                D89829645900PT1D20161103000030RADIO;ASM DVD                 M IMCTM S5NC06 FTTL  07070IMCT  S5 CPB  00003                    0900 SR        000000000000 FUJITSU TEN (THAILAN170KRFL0010010                                                                                                                              *          20161029IMF1610294.TXT
MDDDGO329438201611                D89831228300PT1D20161102000030RADIO;AM/FM,CD                M IMCTM S5NC06 FTTL  07070IMCT  S5 CPB  00003                    2230 SR        000000000000 FUJITSU TEN (THAILAN170KPFL0037037                                                                                                                              *          20161029IMF1610294.TXT
MDDDGO329439201611                D89831228300PT1D20161103000030RADIO;AM/FM,CD                M IMCTM S5NC06 FTTL  07070IMCT  S5 CPB  00003                    1300 SR        000000000000 FUJITSU TEN (THAILAN170KPFL0038038                                                                                                                              *          20161029IMF1610294.TXT
MDDDGO329440201611                D89831228300PT1D20161103000030RADIO;AM/FM,CD                M IMCTM S5NC06 FTTL  07070IMCT  S5 CPB  00003                    1600 SR        000000000000 FUJITSU TEN (THAILAN170KPFL0039039                                                                                                                              *          20161029IMF1610294.TXT
MDEDGO260392201611                D89828070100PV1D20161103000030SPEAKER ASM                   M IMCTM S5MB11 FTTL  07070IMCT  S5 PTB  00004                    1300 SR        000000000000 FUJITSU TEN (THAILAN17007RL0001001                                                                                                                              *          20161029IMF1610294.TXT
MDEDGO260393201611                D89828070100PV4D20161103000030SPEAKER ASM                   M IMCTM S0FL05 FTTL  07070IMCT  S0 PTB  00004                    0230 SR        000000000000 FUJITSU TEN (THAILAN16012JU0001001                                                                                                                              *          20161029IMF1610294.TXT
MDEDGO260394201611                D89828070100PV4D20161103000030SPEAKER ASM                   M IMCTM S0FL05 FTTL  07070IMCT  S0 PTB  00004                    0900 SR        000000000000 FUJITSU TEN (THAILAN16012JU0002002                                                                                                                              *          20161029IMF1610294.TXT
MDEDGO260395201611                D89828070100PV4D20161103000030SPEAKER ASM                   M IMCTM S0FL05 FTTL  07070IMCT  S0 PTB  00004                    1600 SR        000000000000 FUJITSU TEN (THAILAN17002RU0001001                                                                                                                              *          20161029IMF1610294.TXT
MDEDGO260396201611                D89828070200PV4D20161103000030SPEAKER ASM                   M IMCTM S0FR05 FTTL  07070IMCT  S0 PTB  00005                    1600 SR        000000000000 FUJITSU TEN (THAILAN17002RU0001001                                                                                                                              *          20161029IMF1610294.TXT
MDEDGO260397201611                D89828070300PT4D20161103000030SPEAKER ASM                   M IMCTM S9TS02 FTTL  07070IMCT  S9 PTB  00015                    1600 SR        000000000000 FUJITSU TEN (THAILAN17002RU0001001                                                                                                                              *          20161029IMF1610294.TXT
MDEDGO260398201611                D89831229000PT4D20161103000015RADIO;AM/FM,CD                M IMCTM S9CO001FTTL  07070IMCT  S9 PTB  00003                    1600 SR        000000000000 FUJITSU TEN (THAILAN17002RU0001001                                                                                                                              *          20161029IMF1610294.TXT
MDEUGO288326201611                D89828070100PT4U20161102000030SPEAKER ASM                   M IMCTM S0FL05 FTTL  07070IMCT  S0 PTB  00004                    2230 SR        000000000000 FUJITSU TEN (THAILAN170C16U0006006                                                                                                                              *          20161029IMF1610294.TXT
MDEUGO288327201611                D89828070100PT4U20161103000030SPEAKER ASM                   M IMCTM S0FL05 FTTL  07070IMCT  S0 PTB  00004                    0230 SR        000000000000 FUJITSU TEN (THAILAN170C13U0006006                                                                                                                              *          20161029IMF1610294.TXT
MDEUGO288328201611                D89828070100PT4U20161103000030SPEAKER ASM                   M IMCTM S0FL05 FTTL  07070IMCT  S0 PTB  00004                    0400 SR        000000000000 FUJITSU TEN (THAILAN170C47U0004004                                                                                                                              *          20161029IMF1610294.TXT
MDEUGO288329201611                D89828070100PT4U20161103000030SPEAKER ASM                   M IMCTM S0FL05 FTTL  07070IMCT  S0 PTB  00004                    0900 SR        000000000000 FUJITSU TEN (THAILAN170C13U0007007                                                                                                                              *          20161029IMF1610294.TXT
MDEUGO288330201611                D89828070100PT4U20161103000060SPEAKER ASM                   M IMCTM S0FL05 FTTL  07070IMCT  S0 PTB  00004                    1300 SR        000000000000 FUJITSU TEN (THAILAN170C16U0007008                                                                                                                              *          20161029IMF1610294.TXT
MDEUGO288331201611                D89828070200PV4U20161102000030SPEAKER ASM                   M IMCTM S0FR05 FTTL  07070IMCT  S0 PTB  00005                    2230 SR        000000000000 FUJITSU TEN (THAILAN170C16U0006006                                                                                                                              *          20161029IMF1610294.TXT
MDEUGO288332201611                D89828070200PV4U20161103000030SPEAKER ASM                   M IMCTM S0FR05 FTTL  07070IMCT  S0 PTB  00005                    0230 SR        000000000000 FUJITSU TEN (THAILAN170C13U0006006                                                                                                                              *          20161029IMF1610294.TXT
MDEUGO288333201611                D89828070200PV4U20161103000030SPEAKER ASM                   M IMCTM S0FR05 FTTL  07070IMCT  S0 PTB  00005                    0400 SR        000000000000 FUJITSU TEN (THAILAN170C47U0004004                                                                                                                              *          20161029IMF1610294.TXT
MDEUGO288334201611                D89828070200PV4U20161103000030SPEAKER ASM                   M IMCTM S0FR05 FTTL  07070IMCT  S0 PTB  00005                    0900 SR        000000000000 FUJITSU TEN (THAILAN170C13U0007007                                                                                                                              *          20161029IMF1610294.TXT
MDEUGO288335201611                D89828070200PV4U20161103000060SPEAKER ASM                   M IMCTM S0FR05 FTTL  07070IMCT  S0 PTB  00005                    1300 SR        000000000000 FUJITSU TEN (THAILAN170C16U0007008                                                                                                                              *          20161029IMF1610294.TXT
MDEUGO288336201611                D89828070300PT4U20161102000030SPEAKER ASM                   M IMCTM S9TS02 FTTL  07070IMCT  S9 PTB  00015                    2230 SR        000000000000 FUJITSU TEN (THAILAN170C16U0006006                                                                                                                              *          20161029IMF1610294.TXT
MDEUGO288337201611                D89828070300PT4U20161103000030SPEAKER ASM                   M IMCTM S9TS02 FTTL  07070IMCT  S9 PTB  00015                    0230 SR        000000000000 FUJITSU TEN (THAILAN170C13U0006006                                                                                                                              *          20161029IMF1610294.TXT
MDEUGO288338201611                D89828070300PT4U20161103000030SPEAKER ASM                   M IMCTM S9TS02 FTTL  07070IMCT  S9 PTB  00015                    0400 SR        000000000000 FUJITSU TEN (THAILAN170C47U0004004                                                                                                                              *          20161029IMF1610294.TXT
MDEUGO288339201611                D89828070300PT4U20161103000030SPEAKER ASM                   M IMCTM S9TS02 FTTL  07070IMCT  S9 PTB  00015                    0900 SR        000000000000 FUJITSU TEN (THAILAN170C13U0007007                                                                                                                              *          20161029IMF1610294.TXT
MDEUGO288340201611                D89828070300PT4U20161103000060SPEAKER ASM                   M IMCTM S9TS02 FTTL  07070IMCT  S9 PTB  00015                    1300 SR        000000000000 FUJITSU TEN (THAILAN170C16U0007008                                                                                                                              *          20161029IMF1610294.TXT
