REC2016101820161018ISUZU                              42     
MDDDGO281802201610                D89821984430PT1D20161021000030RADIO;AM/FM,CD                M IMCTM S5NC06 FTTL  07070IMCT  S5 PTB  00005                    2230 SR        000000000000 FUJITSU TEN (THAILAN170KNCL0023023                                                                                                                              *          20161018IMF1610185.TXT
MDDDGO281803201610                D89821984430PT1D20161022000030RADIO;AM/FM,CD                M IMCTM S5NC06 FTTL  07070IMCT  S5 PTB  00005                    0400 SR        000000000000 FUJITSU TEN (THAILAN170KNDL0030030                                                                                                                              *          20161018IMF1610185.TXT
MDDDGO281804201610                D89821984430PT1D20161025000030RADIO;AM/FM,CD                M IMCTM S5NC06 FTTL  07070IMCT  S5 PTB  00005                    1300 SR        000000000000 FUJITSU TEN (THAILAN170KNDL0031031                                                                                                                              *          20161018IMF1610185.TXT
MDDDGO281805201610                D89825217900PT1D20161022000030RADIO;AM/FM,CD,D              M IMCTM S5NC06 FTTL  07070IMCT  S5 PTB  00003                    0400 SR        000000000000 FUJITSU TEN (THAILAN170KPJL0007007                                                                                                                              *          20161018IMF1610185.TXT
MDDDGO281806201610                D89828070100PV1D20161021000060SPEAKER ASM                   M IMCTM S5MB11 FTTL  07070IMCT  S5 PTB  00004                    2100 SR        000000000000 FUJITSU TEN (THAILAN170KPFL0027027                                                                                                                              *          20161018IMF1610185.TXT
MDDDGO281807201610                D89828070100PV1D20161021000120SPEAKER ASM                   M IMCTM S5MB11 FTTL  07070IMCT  S5 PTB  00004                    2230 SR        000000000000 FUJITSU TEN (THAILAN170KNCL0023023170KPHL0009009                                                                                                                *          20161018IMF1610185.TXT
MDDDGO281808201610                D89828070100PV1D20161022000120SPEAKER ASM                   M IMCTM S5MB11 FTTL  07070IMCT  S5 PTB  00004                    0400 SR        000000000000 FUJITSU TEN (THAILAN170KNDL0030030170KPJL0007007                                                                                                                *          20161018IMF1610185.TXT
MDDDGO281809201610                D89828070100PV1D20161025000060SPEAKER ASM                   M IMCTM S5MB11 FTTL  07070IMCT  S5 PTB  00004                    0900 SR        000000000000 FUJITSU TEN (THAILAN170KNAL0008008                                                                                                                              *          20161018IMF1610185.TXT
MDDDGO281810201610                D89828070100PV1D20161025000120SPEAKER ASM                   M IMCTM S5MB11 FTTL  07070IMCT  S5 PTB  00004                    1300 SR        000000000000 FUJITSU TEN (THAILAN170KNDL0031031170KPML0005005                                                                                                                *          20161018IMF1610185.TXT
MDDDGO281811201610                D89828070300PT1D20161021000060SPEAKER ASM                   M IMCTM S5NB042FTTL  07070IMCT  S5 PTB  00015                    2100 SR        000000000000 FUJITSU TEN (THAILAN170KPFL0027027                                                                                                                              *          20161018IMF1610185.TXT
MDDDGO281812201610                D89828070300PT1D20161021000060SPEAKER ASM                   M IMCTM S5NB042FTTL  07070IMCT  S5 PTB  00015                    2230 SR        000000000000 FUJITSU TEN (THAILAN170KPHL0009009                                                                                                                              *          20161018IMF1610185.TXT
MDDDGO281813201610                D89828070300PT1D20161022000060SPEAKER ASM                   M IMCTM S5NB042FTTL  07070IMCT  S5 PTB  00015                    0400 SR        000000000000 FUJITSU TEN (THAILAN170KPJL0007007                                                                                                                              *          20161018IMF1610185.TXT
MDDDGO281814201610                D89828070300PT1D20161025000060SPEAKER ASM                   M IMCTM S5NB042FTTL  07070IMCT  S5 PTB  00015                    1300 SR        000000000000 FUJITSU TEN (THAILAN170KPML0005005                                                                                                                              *          20161018IMF1610185.TXT
MDDDGO281815201610                D89831228300PT1D20161021000030RADIO;AM/FM,CD                M IMCTM S5NC06 FTTL  07070IMCT  S5 CPB  00003                    2100 SR        000000000000 FUJITSU TEN (THAILAN170KPFL0027027                                                                                                                              *          20161018IMF1610185.TXT
MDDDGO281816201610                D89831228300PT1D20161021000030RADIO;AM/FM,CD                M IMCTM S5NC06 FTTL  07070IMCT  S5 CPB  00003                    2230 SR        000000000000 FUJITSU TEN (THAILAN170KPHL0009009                                                                                                                              *          20161018IMF1610185.TXT
MDDUGO229958201610                D89828070100PT4U20161025000030SPEAKER ASM                   M IMCTM S0FL05 FTTL  07070IMCT  S0 PTB  00004                    1300 SR        000000000000 FUJITSU TEN (THAILAN170KUCU0017017                                                                                                                              *          20161018IMF1610185.TXT
MDDUGO229959201610                D89828070200PV4U20161025000030SPEAKER ASM                   M IMCTM S0FR05 FTTL  07070IMCT  S0 PTB  00005                    1300 SR        000000000000 FUJITSU TEN (THAILAN170KUCU0017017                                                                                                                              *          20161018IMF1610185.TXT
MDDUGO229960201610                D89828070300PT4U20161025000030SPEAKER ASM                   M IMCTM S9TS02 FTTL  07070IMCT  S9 PTB  00015                    1300 SR        000000000000 FUJITSU TEN (THAILAN170KUCU0017017                                                                                                                              *          20161018IMF1610185.TXT
MDDUGO229961201610                D89829093500PT4U20161025000015RADIO;ASM DVD (T              M IMCTM S9CO001FTTL  07070IMCT  S9 PTB  00003                    1300 SR        000000000000 FUJITSU TEN (THAILAN170KUCU0017017                                                                                                                              *          20161018IMF1610185.TXT
MDEDGO237246201610                D89805293700PV1D20161022000060SPEAKER ASM                   M IMCTM S5MB11 FTTL  07070IMCT  S5 PTB  00003                    0230 SR        000000000000 FUJITSU TEN (THAILAN15020FL0013014                                                                                                                              *          20161018IMF1610185.TXT
MDEDGO237247201610                D89805293700PV1D20161025000030SPEAKER ASM                   M IMCTM S5MB11 FTTL  07070IMCT  S5 PTB  00003                    1600 SR        000000000000 FUJITSU TEN (THAILAN15019FL0123123                                                                                                                              *          20161018IMF1610185.TXT
MDEDGO237248201610                D89805293700PV1D20161025000030SPEAKER ASM                   M IMCTM S5MB11 FTTL  07070IMCT  S5 PTB  00003                    2100 SR        000000000000 FUJITSU TEN (THAILAN15019FL0124124                                                                                                                              *          20161018IMF1610185.TXT
MDEDGO237249201610                D89805294000PT1D20161022000060SPEAKER ASM                   M IMCTM S5NB042FTTL  07070IMCT  S5 PTB  00015                    0230 SR        000000000000 FUJITSU TEN (THAILAN15020FL0013014                                                                                                                              *          20161018IMF1610185.TXT
MDEDGO237250201610                D89805294100PV1D20161022000060SPEAKER ASM                   M IMCTM S5MA14 FTTL  07070IMCT  S5 PTB  00005                    0230 SR        000000000000 FUJITSU TEN (THAILAN15020FL0013014                                                                                                                              *          20161018IMF1610185.TXT
MDEDGO237251201610                D89828070100PV1D20161021000030SPEAKER ASM                   M IMCTM S5MB11 FTTL  07070IMCT  S5 PTB  00004                    2100 SR        000000000000 FUJITSU TEN (THAILAN16081HL0138138                                                                                                                              *          20161018IMF1610185.TXT
MDEDGO237252201610                D89828070100PV1D20161025000030SPEAKER ASM                   M IMCTM S5MB11 FTTL  07070IMCT  S5 PTB  00004                    0900 SR        000000000000 FUJITSU TEN (THAILAN16083KL0035035                                                                                                                              *          20161018IMF1610185.TXT
MDEDGO237253201610                D89828070100PV1D20161025000030SPEAKER ASM                   M IMCTM S5MB11 FTTL  07070IMCT  S5 PTB  00004                    1300 SR        000000000000 FUJITSU TEN (THAILAN16083KL0036036                                                                                                                              *          20161018IMF1610185.TXT
MDEUGO254365201610                D89828070100PT4U20161021000060SPEAKER ASM                   M IMCTM S0FL05 FTTL  07070IMCT  S0 PTB  00004                    2230 SR        000000000000 FUJITSU TEN (THAILAN160B46U0153153160B48U0427427                                                                                                                *          20161018IMF1610185.TXT
MDEUGO254366201610                D89828070100PT4U20161022000030SPEAKER ASM                   M IMCTM S0FL05 FTTL  07070IMCT  S0 PTB  00004                    0230 SR        000000000000 FUJITSU TEN (THAILAN160B46U0154154                                                                                                                              *          20161018IMF1610185.TXT
MDEUGO254367201610                D89828070100PT4U20161022000060SPEAKER ASM                   M IMCTM S0FL05 FTTL  07070IMCT  S0 PTB  00004                    0400 SR        000000000000 FUJITSU TEN (THAILAN160B46U0155155160B48U0428428                                                                                                                *          20161018IMF1610185.TXT
MDEUGO254368201610                D89828070100PT4U20161025000030SPEAKER ASM                   M IMCTM S0FL05 FTTL  07070IMCT  S0 PTB  00004                    0900 SR        000000000000 FUJITSU TEN (THAILAN160B48U0429429                                                                                                                              *          20161018IMF1610185.TXT
MDEUGO254369201610                D89828070100PT4U20161025000030SPEAKER ASM                   M IMCTM S0FL05 FTTL  07070IMCT  S0 PTB  00004                    2100 SR        000000000000 FUJITSU TEN (THAILAN160B46U0156156                                                                                                                              *          20161018IMF1610185.TXT
MDEUGO254370201610                D89828070200PV4U20161021000060SPEAKER ASM                   M IMCTM S0FR05 FTTL  07070IMCT  S0 PTB  00005                    2230 SR        000000000000 FUJITSU TEN (THAILAN160B46U0153153160B48U0427427                                                                                                                *          20161018IMF1610185.TXT
MDEUGO254371201610                D89828070200PV4U20161022000030SPEAKER ASM                   M IMCTM S0FR05 FTTL  07070IMCT  S0 PTB  00005                    0230 SR        000000000000 FUJITSU TEN (THAILAN160B46U0154154                                                                                                                              *          20161018IMF1610185.TXT
MDEUGO254372201610                D89828070200PV4U20161022000060SPEAKER ASM                   M IMCTM S0FR05 FTTL  07070IMCT  S0 PTB  00005                    0400 SR        000000000000 FUJITSU TEN (THAILAN160B46U0155155160B48U0428428                                                                                                                *          20161018IMF1610185.TXT
MDEUGO254373201610                D89828070200PV4U20161025000030SPEAKER ASM                   M IMCTM S0FR05 FTTL  07070IMCT  S0 PTB  00005                    0900 SR        000000000000 FUJITSU TEN (THAILAN160B48U0429429                                                                                                                              *          20161018IMF1610185.TXT
MDEUGO254374201610                D89828070200PV4U20161025000030SPEAKER ASM                   M IMCTM S0FR05 FTTL  07070IMCT  S0 PTB  00005                    2100 SR        000000000000 FUJITSU TEN (THAILAN160B46U0156156                                                                                                                              *          20161018IMF1610185.TXT
MDEUGO254375201610                D89828070300PT4U20161021000060SPEAKER ASM                   M IMCTM S9TS02 FTTL  07070IMCT  S9 PTB  00015                    2230 SR        000000000000 FUJITSU TEN (THAILAN160B46U0153153160B48U0427427                                                                                                                *          20161018IMF1610185.TXT
MDEUGO254376201610                D89828070300PT4U20161022000030SPEAKER ASM                   M IMCTM S9TS02 FTTL  07070IMCT  S9 PTB  00015                    0230 SR        000000000000 FUJITSU TEN (THAILAN160B46U0154154                                                                                                                              *          20161018IMF1610185.TXT
MDEUGO254377201610                D89828070300PT4U20161022000060SPEAKER ASM                   M IMCTM S9TS02 FTTL  07070IMCT  S9 PTB  00015                    0400 SR        000000000000 FUJITSU TEN (THAILAN160B46U0155155160B48U0428428                                                                                                                *          20161018IMF1610185.TXT
MDEUGO254378201610                D89828070300PT4U20161025000030SPEAKER ASM                   M IMCTM S9TS02 FTTL  07070IMCT  S9 PTB  00015                    0900 SR        000000000000 FUJITSU TEN (THAILAN160B48U0429429                                                                                                                              *          20161018IMF1610185.TXT
MDEUGO254379201610                D89828070300PT4U20161025000030SPEAKER ASM                   M IMCTM S9TS02 FTTL  07070IMCT  S9 PTB  00015                    2100 SR        000000000000 FUJITSU TEN (THAILAN160B46U0156156                                                                                                                              *          20161018IMF1610185.TXT
