REC2016100520161005ISUZU                              48     
MDDDGO217454201610                D89821984430PT1D20161009000060RADIO;AM/FM,CD                M IMCTM S5NC06 FTTL  07070IMCT  S5 PTB  00005                    0400 SR        000000000000 FUJITSU TEN (THAILAN170KNDL0019019170KRAL0002002                                                                                                                *          20161005IMF1610054.TXT
MDDDGO217455201610                D89821984430PT1D20161010000030RADIO;AM/FM,CD                M IMCTM S5NC06 FTTL  07070IMCT  S5 PTB  00005                    1300 SR        000000000000 FUJITSU TEN (THAILAN170KNCL0017017                                                                                                                              *          20161005IMF1610054.TXT
MDDDGO217456201610                D89828070100PV1D20161008000060SPEAKER ASM                   M IMCTM S5MB11 FTTL  07070IMCT  S5 PTB  00004                    2100 SR        000000000000 FUJITSU TEN (THAILAN170KPFL0008008                                                                                                                              *          20161005IMF1610054.TXT
MDDDGO217457201610                D89828070100PV1D20161008000060SPEAKER ASM                   M IMCTM S5MB11 FTTL  07070IMCT  S5 PTB  00004                    2230 SR        000000000000 FUJITSU TEN (THAILAN170KPHL0005005                                                                                                                              *          20161005IMF1610054.TXT
MDDDGO217458201610                D89828070100PV1D20161009000060SPEAKER ASM                   M IMCTM S5MB11 FTTL  07070IMCT  S5 PTB  00004                    0230 SR        000000000000 FUJITSU TEN (THAILAN170KPFL0009009                                                                                                                              *          20161005IMF1610054.TXT
MDDDGO217459201610                D89828070100PV1D20161009000120SPEAKER ASM                   M IMCTM S5MB11 FTTL  07070IMCT  S5 PTB  00004                    0400 SR        000000000000 FUJITSU TEN (THAILAN170KNDL0019019170KRAL0002002                                                                                                                *          20161005IMF1610054.TXT
MDDDGO217460201610                D89828070100PV1D20161010000060SPEAKER ASM                   M IMCTM S5MB11 FTTL  07070IMCT  S5 PTB  00004                    0900 SR        000000000000 FUJITSU TEN (THAILAN170KPEL0003003                                                                                                                              *          20161005IMF1610054.TXT
MDDDGO217461201610                D89828070100PV1D20161010000180SPEAKER ASM                   M IMCTM S5MB11 FTTL  07070IMCT  S5 PTB  00004                    1300 SR        000000000000 FUJITSU TEN (THAILAN170KNCL0017017170KPCL0006006170KPFL0010010                                                                                                  *          20161005IMF1610054.TXT
MDDDGO217462201610                D89828070300PT1D20161008000060SPEAKER ASM                   M IMCTM S5NB042FTTL  07070IMCT  S5 PTB  00015                    2100 SR        000000000000 FUJITSU TEN (THAILAN170KPFL0008008                                                                                                                              *          20161005IMF1610054.TXT
MDDDGO217463201610                D89828070300PT1D20161008000060SPEAKER ASM                   M IMCTM S5NB042FTTL  07070IMCT  S5 PTB  00015                    2230 SR        000000000000 FUJITSU TEN (THAILAN170KPHL0005005                                                                                                                              *          20161005IMF1610054.TXT
MDDDGO217464201610                D89828070300PT1D20161009000060SPEAKER ASM                   M IMCTM S5NB042FTTL  07070IMCT  S5 PTB  00015                    0230 SR        000000000000 FUJITSU TEN (THAILAN170KPFL0009009                                                                                                                              *          20161005IMF1610054.TXT
MDDDGO217465201610                D89828070300PT1D20161010000060SPEAKER ASM                   M IMCTM S5NB042FTTL  07070IMCT  S5 PTB  00015                    0900 SR        000000000000 FUJITSU TEN (THAILAN170KPEL0003003                                                                                                                              *          20161005IMF1610054.TXT
MDDDGO217466201610                D89828070300PT1D20161010000120SPEAKER ASM                   M IMCTM S5NB042FTTL  07070IMCT  S5 PTB  00015                    1300 SR        000000000000 FUJITSU TEN (THAILAN170KPCL0006006170KPFL0010010                                                                                                                *          20161005IMF1610054.TXT
MDDDGO217467201610                D89831228300PT1D20161008000030RADIO;AM/FM,CD                M IMCTM S5NC06 FTTL  07070IMCT  S5 CPB  00003                    2100 SR        000000000000 FUJITSU TEN (THAILAN170KPFL0008008                                                                                                                              *          20161005IMF1610054.TXT
MDDDGO217468201610                D89831228300PT1D20161008000030RADIO;AM/FM,CD                M IMCTM S5NC06 FTTL  07070IMCT  S5 CPB  00003                    2230 SR        000000000000 FUJITSU TEN (THAILAN170KPHL0005005                                                                                                                              *          20161005IMF1610054.TXT
MDDDGO217469201610                D89831228300PT1D20161009000030RADIO;AM/FM,CD                M IMCTM S5NC06 FTTL  07070IMCT  S5 CPB  00003                    0230 SR        000000000000 FUJITSU TEN (THAILAN170KPFL0009009                                                                                                                              *          20161005IMF1610054.TXT
MDDDGO217470201610                D89831228300PT1D20161010000030RADIO;AM/FM,CD                M IMCTM S5NC06 FTTL  07070IMCT  S5 CPB  00003                    0900 SR        000000000000 FUJITSU TEN (THAILAN170KPEL0003003                                                                                                                              *          20161005IMF1610054.TXT
MDDDGO217471201610                D89831228300PT1D20161010000060RADIO;AM/FM,CD                M IMCTM S5NC06 FTTL  07070IMCT  S5 CPB  00003                    1300 SR        000000000000 FUJITSU TEN (THAILAN170KPCL0006006170KPFL0010010                                                                                                                *          20161005IMF1610054.TXT
MDDUGO206399201610                D89828070100PT4U20161010000030SPEAKER ASM                   M IMCTM S0FL05 FTTL  07070IMCT  S0 PTB  00004                    1600 SR        000000000000 FUJITSU TEN (THAILAN170KUCU0013013                                                                                                                              *          20161005IMF1610054.TXT
MDDUGO206400201610                D89828070200PV4U20161010000030SPEAKER ASM                   M IMCTM S0FR05 FTTL  07070IMCT  S0 PTB  00005                    1600 SR        000000000000 FUJITSU TEN (THAILAN170KUCU0013013                                                                                                                              *          20161005IMF1610054.TXT
MDDUGO206401201610                D89828070300PT4U20161010000030SPEAKER ASM                   M IMCTM S9TS02 FTTL  07070IMCT  S9 PTB  00015                    1600 SR        000000000000 FUJITSU TEN (THAILAN170KUCU0013013                                                                                                                              *          20161005IMF1610054.TXT
MDDUGO206402201610                D89829093500PT4U20161010000015RADIO;ASM DVD (T              M IMCTM S9CO001FTTL  07070IMCT  S9 PTB  00003                    1600 SR        000000000000 FUJITSU TEN (THAILAN170KUCU0013013                                                                                                                              *          20161005IMF1610054.TXT
MDEDGO213126201610                D89828070100PV1D20161008000060SPEAKER ASM                   M IMCTM S5MB11 FTTL  07070IMCT  S5 PTB  00004                    2230 SR        000000000000 FUJITSU TEN (THAILAN16047KL0025026                                                                                                                              *          20161005IMF1610054.TXT
MDEDGO213127201610                D89828070100PV1D20161010000030SPEAKER ASM                   M IMCTM S5MB11 FTTL  07070IMCT  S5 PTB  00004                    0900 SR        000000000000 FUJITSU TEN (THAILAN16081HL0126126                                                                                                                              *          20161005IMF1610054.TXT
MDEDGO213128201610                D89828070100PV1D20161010000030SPEAKER ASM                   M IMCTM S5MB11 FTTL  07070IMCT  S5 PTB  00004                    2100 SR        000000000000 FUJITSU TEN (THAILAN16081HL0127127                                                                                                                              *          20161005IMF1610054.TXT
MDEDGO213129201610                D89828070100PV4D20161008000030SPEAKER ASM                   M IMCTM S0FL05 FTTL  07070IMCT  S0 PTB  00004                    2230 SR        000000000000 FUJITSU TEN (THAILAN16047KU0003003                                                                                                                              *          20161005IMF1610054.TXT
MDEDGO213130201610                D89828070100PV4D20161010000030SPEAKER ASM                   M IMCTM S0FL05 FTTL  07070IMCT  S0 PTB  00004                    1300 SR        000000000000 FUJITSU TEN (THAILAN16047KU0004004                                                                                                                              *          20161005IMF1610054.TXT
MDEDGO213131201610                D89828070200PV1D20161008000060SPEAKER ASM                   M IMCTM S5MA14 FTTL  07070IMCT  S5 PTB  00005                    2230 SR        000000000000 FUJITSU TEN (THAILAN16047KL0025026                                                                                                                              *          20161005IMF1610054.TXT
MDEDGO213132201610                D89828070200PV4D20161008000030SPEAKER ASM                   M IMCTM S0FR05 FTTL  07070IMCT  S0 PTB  00005                    2230 SR        000000000000 FUJITSU TEN (THAILAN16047KU0003003                                                                                                                              *          20161005IMF1610054.TXT
MDEDGO213133201610                D89828070200PV4D20161010000030SPEAKER ASM                   M IMCTM S0FR05 FTTL  07070IMCT  S0 PTB  00005                    1300 SR        000000000000 FUJITSU TEN (THAILAN16047KU0004004                                                                                                                              *          20161005IMF1610054.TXT
MDEDGO213134201610                D89828070300PT1D20161008000060SPEAKER ASM                   M IMCTM S5NB042FTTL  07070IMCT  S5 PTB  00015                    2230 SR        000000000000 FUJITSU TEN (THAILAN16047KL0025026                                                                                                                              *          20161005IMF1610054.TXT
MDEDGO213135201610                D89828070300PT4D20161008000030SPEAKER ASM                   M IMCTM S9TS02 FTTL  07070IMCT  S9 PTB  00015                    2230 SR        000000000000 FUJITSU TEN (THAILAN16047KU0003003                                                                                                                              *          20161005IMF1610054.TXT
MDEDGO213136201610                D89828070300PT4D20161010000030SPEAKER ASM                   M IMCTM S9TS02 FTTL  07070IMCT  S9 PTB  00015                    1300 SR        000000000000 FUJITSU TEN (THAILAN16047KU0004004                                                                                                                              *          20161005IMF1610054.TXT
MDEUGO213737201610                D89828070100PT4U20161008000030SPEAKER ASM                   M IMCTM S0FL05 FTTL  07070IMCT  S0 PTB  00004                    2230 SR        000000000000 FUJITSU TEN (THAILAN160B48U0397397                                                                                                                              *          20161005IMF1610054.TXT
MDEUGO213738201610                D89828070100PT4U20161009000030SPEAKER ASM                   M IMCTM S0FL05 FTTL  07070IMCT  S0 PTB  00004                    0230 SR        000000000000 FUJITSU TEN (THAILAN160B46U0131131                                                                                                                              *          20161005IMF1610054.TXT
MDEUGO213739201610                D89828070100PT4U20161009000030SPEAKER ASM                   M IMCTM S0FL05 FTTL  07070IMCT  S0 PTB  00004                    0400 SR        000000000000 FUJITSU TEN (THAILAN160B48U0398398                                                                                                                              *          20161005IMF1610054.TXT
MDEUGO213740201610                D89828070100PT4U20161010000060SPEAKER ASM                   M IMCTM S0FL05 FTTL  07070IMCT  S0 PTB  00004                    0900 SR        000000000000 FUJITSU TEN (THAILAN160B46U0132132160B48U0399399                                                                                                                *          20161005IMF1610054.TXT
MDEUGO213741201610                D89828070100PT4U20161010000060SPEAKER ASM                   M IMCTM S0FL05 FTTL  07070IMCT  S0 PTB  00004                    1300 SR        000000000000 FUJITSU TEN (THAILAN160B46U0133133160C01U0019019                                                                                                                *          20161005IMF1610054.TXT
MDEUGO213742201610                D89828070200PV4U20161008000030SPEAKER ASM                   M IMCTM S0FR05 FTTL  07070IMCT  S0 PTB  00005                    2230 SR        000000000000 FUJITSU TEN (THAILAN160B48U0397397                                                                                                                              *          20161005IMF1610054.TXT
MDEUGO213743201610                D89828070200PV4U20161009000030SPEAKER ASM                   M IMCTM S0FR05 FTTL  07070IMCT  S0 PTB  00005                    0230 SR        000000000000 FUJITSU TEN (THAILAN160B46U0131131                                                                                                                              *          20161005IMF1610054.TXT
MDEUGO213744201610                D89828070200PV4U20161009000030SPEAKER ASM                   M IMCTM S0FR05 FTTL  07070IMCT  S0 PTB  00005                    0400 SR        000000000000 FUJITSU TEN (THAILAN160B48U0398398                                                                                                                              *          20161005IMF1610054.TXT
MDEUGO213745201610                D89828070200PV4U20161010000060SPEAKER ASM                   M IMCTM S0FR05 FTTL  07070IMCT  S0 PTB  00005                    0900 SR        000000000000 FUJITSU TEN (THAILAN160B46U0132132160B48U0399399                                                                                                                *          20161005IMF1610054.TXT
MDEUGO213746201610                D89828070200PV4U20161010000060SPEAKER ASM                   M IMCTM S0FR05 FTTL  07070IMCT  S0 PTB  00005                    1300 SR        000000000000 FUJITSU TEN (THAILAN160B46U0133133160C01U0019019                                                                                                                *          20161005IMF1610054.TXT
MDEUGO213747201610                D89828070300PT4U20161008000030SPEAKER ASM                   M IMCTM S9TS02 FTTL  07070IMCT  S9 PTB  00015                    2230 SR        000000000000 FUJITSU TEN (THAILAN160B48U0397397                                                                                                                              *          20161005IMF1610054.TXT
MDEUGO213748201610                D89828070300PT4U20161009000030SPEAKER ASM                   M IMCTM S9TS02 FTTL  07070IMCT  S9 PTB  00015                    0230 SR        000000000000 FUJITSU TEN (THAILAN160B46U0131131                                                                                                                              *          20161005IMF1610054.TXT
MDEUGO213749201610                D89828070300PT4U20161009000030SPEAKER ASM                   M IMCTM S9TS02 FTTL  07070IMCT  S9 PTB  00015                    0400 SR        000000000000 FUJITSU TEN (THAILAN160B48U0398398                                                                                                                              *          20161005IMF1610054.TXT
MDEUGO213750201610                D89828070300PT4U20161010000060SPEAKER ASM                   M IMCTM S9TS02 FTTL  07070IMCT  S9 PTB  00015                    0900 SR        000000000000 FUJITSU TEN (THAILAN160B46U0132132160B48U0399399                                                                                                                *          20161005IMF1610054.TXT
MDEUGO213751201610                D89828070300PT4U20161010000060SPEAKER ASM                   M IMCTM S9TS02 FTTL  07070IMCT  S9 PTB  00015                    1300 SR        000000000000 FUJITSU TEN (THAILAN160B46U0133133160C01U0019019                                                                                                                *          20161005IMF1610054.TXT
