REC2016111520161115ISUZU                              41     
MDDDGN282627201611                D89821984430PT1D20161118000030RADIO;AM/FM,CD                M IMCTM S5NC06 FTTL  07070IMCT  S5 PTB  00005                    2100 SR        000000000000 FUJITSU TEN (THAILAN170KNDL0056056                                                                                                                              *          20161115IMF1611154.TXT
MDDDGN282628201611                D89821984430PT1D20161118000030RADIO;AM/FM,CD                M IMCTM S5NC06 FTTL  07070IMCT  S5 PTB  00005                    2230 SR        000000000000 FUJITSU TEN (THAILAN170KNFL0015015                                                                                                                              *          20161115IMF1611154.TXT
MDDDGN282629201611                D89821984430PT1D20161119000060RADIO;AM/FM,CD                M IMCTM S5NC06 FTTL  07070IMCT  S5 PTB  00005                    0400 SR        000000000000 FUJITSU TEN (THAILAN170KNEL0031031170KRAL0009009                                                                                                                *          20161115IMF1611154.TXT
MDDDGN282630201611                D89825217900PT1D20161119000030RADIO;AM/FM,CD,D              M IMCTM S5NC06 FTTL  07070IMCT  S5 PTB  00003                    0900 SR        000000000000 FUJITSU TEN (THAILAN170KPJL0016016                                                                                                                              *          20161115IMF1611154.TXT
MDDDGN282631201611                D89828070100PV1D20161118000060SPEAKER ASM                   M IMCTM S5MB11 FTTL  07070IMCT  S5 PTB  00004                    2100 SR        000000000000 FUJITSU TEN (THAILAN170KNDL0056056                                                                                                                              *          20161115IMF1611154.TXT
MDDDGN282632201611                D89828070100PV1D20161118000120SPEAKER ASM                   M IMCTM S5MB11 FTTL  07070IMCT  S5 PTB  00004                    2230 SR        000000000000 FUJITSU TEN (THAILAN170KNFL0015015170KPEL0023023                                                                                                                *          20161115IMF1611154.TXT
MDDDGN282633201611                D89828070100PV1D20161119000060SPEAKER ASM                   M IMCTM S5MB11 FTTL  07070IMCT  S5 PTB  00004                    0230 SR        000000000000 FUJITSU TEN (THAILAN170KRHL0008008                                                                                                                              *          20161115IMF1611154.TXT
MDDDGN282634201611                D89828070100PV1D20161119000120SPEAKER ASM                   M IMCTM S5MB11 FTTL  07070IMCT  S5 PTB  00004                    0400 SR        000000000000 FUJITSU TEN (THAILAN170KNEL0031031170KRAL0009009                                                                                                                *          20161115IMF1611154.TXT
MDDDGN282635201611                D89828070100PV1D20161119000120SPEAKER ASM                   M IMCTM S5MB11 FTTL  07070IMCT  S5 PTB  00004                    0900 SR        000000000000 FUJITSU TEN (THAILAN170KNAL0016016170KPJL0016016                                                                                                                *          20161115IMF1611154.TXT
MDDDGN282636201611                D89828070100PV1D20161119000120SPEAKER ASM                   M IMCTM S5MB11 FTTL  07070IMCT  S5 PTB  00004                    1300 SR        000000000000 FUJITSU TEN (THAILAN170KPCL0020020170KPFL0052052                                                                                                                *          20161115IMF1611154.TXT
MDDDGN282637201611                D89828070200PV1D20161119000060SPEAKER ASM                   M IMCTM S5MA14 FTTL  07070IMCT  S5 PTB  00005                    0230 SR        000000000000 FUJITSU TEN (THAILAN170KRHL0008008                                                                                                                              *          20161115IMF1611154.TXT
MDDDGN282638201611                D89828070300PT1D20161118000060SPEAKER ASM                   M IMCTM S5NB042FTTL  07070IMCT  S5 PTB  00015                    2230 SR        000000000000 FUJITSU TEN (THAILAN170KPEL0023023                                                                                                                              *          20161115IMF1611154.TXT
MDDDGN282639201611                D89828070300PT1D20161119000060SPEAKER ASM                   M IMCTM S5NB042FTTL  07070IMCT  S5 PTB  00015                    0230 SR        000000000000 FUJITSU TEN (THAILAN170KRHL0008008                                                                                                                              *          20161115IMF1611154.TXT
MDDDGN282640201611                D89828070300PT1D20161119000060SPEAKER ASM                   M IMCTM S5NB042FTTL  07070IMCT  S5 PTB  00015                    0900 SR        000000000000 FUJITSU TEN (THAILAN170KPJL0016016                                                                                                                              *          20161115IMF1611154.TXT
MDDDGN282641201611                D89828070300PT1D20161119000120SPEAKER ASM                   M IMCTM S5NB042FTTL  07070IMCT  S5 PTB  00015                    1300 SR        000000000000 FUJITSU TEN (THAILAN170KPCL0020020170KPFL0052052                                                                                                                *          20161115IMF1611154.TXT
MDDDGN282642201611                D89831228300PT1D20161118000030RADIO;AM/FM,CD                M IMCTM S5NC06 FTTL  07070IMCT  S5 CPB  00003                    2230 SR        000000000000 FUJITSU TEN (THAILAN170KPEL0023023                                                                                                                              *          20161115IMF1611154.TXT
MDDDGN282643201611                D89831228300PT1D20161119000060RADIO;AM/FM,CD                M IMCTM S5NC06 FTTL  07070IMCT  S5 CPB  00003                    1300 SR        000000000000 FUJITSU TEN (THAILAN170KPCL0020020170KPFL0052052                                                                                                                *          20161115IMF1611154.TXT
MDDUGN230618201611                D89828070100PT4U20161118000030SPEAKER ASM                   M IMCTM S0FL05 FTTL  07070IMCT  S0 PTB  00004                    2230 SR        000000000000 FUJITSU TEN (THAILAN170KUAU0010010                                                                                                                              *          20161115IMF1611154.TXT
MDDUGN230619201611                D89828070200PV4U20161118000030SPEAKER ASM                   M IMCTM S0FR05 FTTL  07070IMCT  S0 PTB  00005                    2230 SR        000000000000 FUJITSU TEN (THAILAN170KUAU0010010                                                                                                                              *          20161115IMF1611154.TXT
MDDUGN230620201611                D89828070300PT4U20161118000030SPEAKER ASM                   M IMCTM S9TS02 FTTL  07070IMCT  S9 PTB  00015                    2230 SR        000000000000 FUJITSU TEN (THAILAN170KUAU0010010                                                                                                                              *          20161115IMF1611154.TXT
MDDUGN230621201611                D89831228400PT4U20161118000015RADIO;AM/FM,CD                M IMCTM S9CO001FTTL  07070IMCT  S9 CPB  00003                    2230 SR        000000000000 FUJITSU TEN (THAILAN170KUAU0010010                                                                                                                              *          20161115IMF1611154.TXT
MDEDGN210632201611                D89805293700PV1D20161119000030SPEAKER ASM                   M IMCTM S5MB11 FTTL  07070IMCT  S5 PTB  00003                    1600 SR        000000000000 FUJITSU TEN (THAILAN15019FL0129129                                                                                                                              *          20161115IMF1611154.TXT
MDEDGN210633201611                D89805293700PV1D20161119000030SPEAKER ASM                   M IMCTM S5MB11 FTTL  07070IMCT  S5 PTB  00003                    2100 SR        000000000000 FUJITSU TEN (THAILAN15019FL0130130                                                                                                                              *          20161115IMF1611154.TXT
MDEUGN245497201611                D89828070100PT4U20161118000060SPEAKER ASM                   M IMCTM S0FL05 FTTL  07070IMCT  S0 PTB  00004                    2230 SR        000000000000 FUJITSU TEN (THAILAN170C13U0025025170C16U0041041                                                                                                                *          20161115IMF1611154.TXT
MDEUGN245498201611                D89828070100PT4U20161119000030SPEAKER ASM                   M IMCTM S0FL05 FTTL  07070IMCT  S0 PTB  00004                    0230 SR        000000000000 FUJITSU TEN (THAILAN160B95U0032032                                                                                                                              *          20161115IMF1611154.TXT
MDEUGN245499201611                D89828070100PT4U20161119000030SPEAKER ASM                   M IMCTM S0FL05 FTTL  07070IMCT  S0 PTB  00004                    0400 SR        000000000000 FUJITSU TEN (THAILAN160B95U0033033                                                                                                                              *          20161115IMF1611154.TXT
MDEUGN245500201611                D89828070100PT4U20161119000030SPEAKER ASM                   M IMCTM S0FL05 FTTL  07070IMCT  S0 PTB  00004                    0900 SR        000000000000 FUJITSU TEN (THAILAN170C16U0042042                                                                                                                              *          20161115IMF1611154.TXT
MDEUGN245501201611                D89828070100PT4U20161119000060SPEAKER ASM                   M IMCTM S0FL05 FTTL  07070IMCT  S0 PTB  00004                    1300 SR        000000000000 FUJITSU TEN (THAILAN170C16U0043044                                                                                                                              *          20161115IMF1611154.TXT
MDEUGN245502201611                D89828070100PT4U20161119000030SPEAKER ASM                   M IMCTM S0FL05 FTTL  07070IMCT  S0 PTB  00004                    2100 SR        000000000000 FUJITSU TEN (THAILAN170C13U0026026                                                                                                                              *          20161115IMF1611154.TXT
MDEUGN245503201611                D89828070200PV4U20161118000060SPEAKER ASM                   M IMCTM S0FR05 FTTL  07070IMCT  S0 PTB  00005                    2230 SR        000000000000 FUJITSU TEN (THAILAN170C13U0025025170C16U0041041                                                                                                                *          20161115IMF1611154.TXT
MDEUGN245504201611                D89828070200PV4U20161119000030SPEAKER ASM                   M IMCTM S0FR05 FTTL  07070IMCT  S0 PTB  00005                    0230 SR        000000000000 FUJITSU TEN (THAILAN160B95U0032032                                                                                                                              *          20161115IMF1611154.TXT
MDEUGN245505201611                D89828070200PV4U20161119000030SPEAKER ASM                   M IMCTM S0FR05 FTTL  07070IMCT  S0 PTB  00005                    0400 SR        000000000000 FUJITSU TEN (THAILAN160B95U0033033                                                                                                                              *          20161115IMF1611154.TXT
MDEUGN245506201611                D89828070200PV4U20161119000030SPEAKER ASM                   M IMCTM S0FR05 FTTL  07070IMCT  S0 PTB  00005                    0900 SR        000000000000 FUJITSU TEN (THAILAN170C16U0042042                                                                                                                              *          20161115IMF1611154.TXT
MDEUGN245507201611                D89828070200PV4U20161119000060SPEAKER ASM                   M IMCTM S0FR05 FTTL  07070IMCT  S0 PTB  00005                    1300 SR        000000000000 FUJITSU TEN (THAILAN170C16U0043044                                                                                                                              *          20161115IMF1611154.TXT
MDEUGN245508201611                D89828070200PV4U20161119000030SPEAKER ASM                   M IMCTM S0FR05 FTTL  07070IMCT  S0 PTB  00005                    2100 SR        000000000000 FUJITSU TEN (THAILAN170C13U0026026                                                                                                                              *          20161115IMF1611154.TXT
MDEUGN245509201611                D89828070300PT4U20161118000060SPEAKER ASM                   M IMCTM S9TS02 FTTL  07070IMCT  S9 PTB  00015                    2230 SR        000000000000 FUJITSU TEN (THAILAN170C13U0025025170C16U0041041                                                                                                                *          20161115IMF1611154.TXT
MDEUGN245510201611                D89828070300PT4U20161119000030SPEAKER ASM                   M IMCTM S9TS02 FTTL  07070IMCT  S9 PTB  00015                    0230 SR        000000000000 FUJITSU TEN (THAILAN160B95U0032032                                                                                                                              *          20161115IMF1611154.TXT
MDEUGN245511201611                D89828070300PT4U20161119000030SPEAKER ASM                   M IMCTM S9TS02 FTTL  07070IMCT  S9 PTB  00015                    0400 SR        000000000000 FUJITSU TEN (THAILAN160B95U0033033                                                                                                                              *          20161115IMF1611154.TXT
MDEUGN245512201611                D89828070300PT4U20161119000030SPEAKER ASM                   M IMCTM S9TS02 FTTL  07070IMCT  S9 PTB  00015                    0900 SR        000000000000 FUJITSU TEN (THAILAN170C16U0042042                                                                                                                              *          20161115IMF1611154.TXT
MDEUGN245513201611                D89828070300PT4U20161119000060SPEAKER ASM                   M IMCTM S9TS02 FTTL  07070IMCT  S9 PTB  00015                    1300 SR        000000000000 FUJITSU TEN (THAILAN170C16U0043044                                                                                                                              *          20161115IMF1611154.TXT
MDEUGN245514201611                D89828070300PT4U20161119000030SPEAKER ASM                   M IMCTM S9TS02 FTTL  07070IMCT  S9 PTB  00015                    2100 SR        000000000000 FUJITSU TEN (THAILAN170C13U0026026                                                                                                                              *          20161115IMF1611154.TXT
