REC2016111020161110ISUZU                              4      
MDEBGNT02113201611                D89828070100PT4B20161114000030SPEAKER ASM                   M IMCTM S7FL05 FTTL  07070IMCT  S7 PTB  00004                    1300 SR        000000000000 FUJITSU TEN (THAILAN160B94R0041   170C41R0004   Y161101701    Y161101715    000000                                                                              *R         20161110RDF1611106.TXT
MDEBGNT02114201611                D89828070200PV4B20161114000030SPEAKER ASM                   M IMCTM S7TS02 FTTL  07070IMCT  S7 PTB  00005                    1300 SR        000000000000 FUJITSU TEN (THAILAN160B94R0041   170C41R0004   Y161101701    Y161101715    000000                                                                              *R         20161110RDF1611106.TXT
MDEBGNT02115201611                D89828070300PT4B20161114000030SPEAKER ASM                   M IMCTM S7TS02 FTTL  07070IMCT  S7 PTB  00015                    1300 SR        000000000000 FUJITSU TEN (THAILAN160B94R0041   170C41R0004   Y161101701    Y161101715    000000                                                                              *R         20161110RDF1611106.TXT
MDEBGNT02116201611                D89829100100PT4B20161114000002RADIO;ASM DVD                 M IMCTM S7TS03 FTTL  07070IMCT  S7 PTB  00003                    1300 SR        000000000000 FUJITSU TEN (THAILAN170C41R0003   170C41R0004   Y161101712    Y161101715    000000                                                                              *R         20161110RDF1611106.TXT
