REC2016112420161124ISUZU                              6      
MDEBGNT04883201611                D89828070100PT4B20161130000006SPEAKER ASM                   M IMCTM S7FL05 FTTL  07070IMCT  S7 PTB  00004                    0400 SR        000000000000 FUJITSU TEN (THAILAN170C44R0014   170C44R0016   Y161103313    Y161103315    000000                                                                              *R         20161124RDF1611247.TXT
MDEBGNT04884201611                D89828070200PV4B20161130000005SPEAKER ASM                   M IMCTM S7TS02 FTTL  07070IMCT  S7 PTB  00005                    0400 SR        000000000000 FUJITSU TEN (THAILAN170C44R0014   170C44R0016   Y161103313    Y161103315    000000                                                                              *R         20161124RDF1611247.TXT
MDEBGNT04885201611                D89828070300PT4B20161130000030SPEAKER ASM                   M IMCTM S7TS02 FTTL  07070IMCT  S7 PTB  00015                    0230 SR        000000000000 FUJITSU TEN (THAILAN170C43R0002   170C44R0016   Y161103301    Y161103315    000000                                                                              *R         20161124RDF1611247.TXT
MDEBGNT04886201611                D89829623000PT4B20161130000002RADIO;ASM DVD                 M IMCTM S7TS03 FTTL  07070IMCT  S7 PTB  00003                    0230 SR        000000000000 FUJITSU TEN (THAILAN170C43R0002   170C43R0003   Y161103301    Y161103302    000000                                                                              *R         20161124RDF1611247.TXT
MDEBGN205787201611                D89828070100PT4B20161130000024SPEAKER ASM                   M IMCTM S7FL05 FTTL  07070IMCT  S7 PTB  00004                    0230 SR        000000000000 FUJITSU TEN (THAILAN170C43R0002   170C44R0013   Y161103301    Y161103312    000000                                                                              *R         20161124RDF1611247.TXT
MDEBGN205788201611                D89828070200PV4B20161130000025SPEAKER ASM                   M IMCTM S7TS02 FTTL  07070IMCT  S7 PTB  00005                    0230 SR        000000000000 FUJITSU TEN (THAILAN170C43R0002   170C44R0014   Y161103301    Y161103313    000000                                                                              *R         20161124RDF1611247.TXT
