REC2016112320161123ISUZU                              64     
MDDDGN321807201611                D89821984430PT1D20161129000030RADIO;AM/FM,CD                M IMCTM S5NC06 FTTL  07070IMCT  S5 PTB  00005                    0400 SR        000000000000 FUJITSU TEN (THAILAN170KNCL0038038                                                                                                                              *          20161123IMF1611235.TXT
MDDDGN321808201611                D89821984430PT1D20161129000030RADIO;AM/FM,CD                M IMCTM S5NC06 FTTL  07070IMCT  S5 PTB  00005                    0900 SR        000000000000 FUJITSU TEN (THAILAN170KNDL0062062                                                                                                                              *          20161123IMF1611235.TXT
MDDDGN321809201611                D89821984430PT1D20161129000030RADIO;AM/FM,CD                M IMCTM S5NC06 FTTL  07070IMCT  S5 PTB  00005                    1300 SR        000000000000 FUJITSU TEN (THAILAN170KPAL0041041                                                                                                                              *          20161123IMF1611235.TXT
MDDDGN321810201611                D89828070100PV1D20161128000060SPEAKER ASM                   M IMCTM S5MB11 FTTL  07070IMCT  S5 PTB  00004                    2100 SR        000000000000 FUJITSU TEN (THAILAN170KPCL0023023                                                                                                                              *          20161123IMF1611235.TXT
MDDDGN321811201611                D89828070100PV1D20161129000060SPEAKER ASM                   M IMCTM S5MB11 FTTL  07070IMCT  S5 PTB  00004                    0400 SR        000000000000 FUJITSU TEN (THAILAN170KNCL0038038                                                                                                                              *          20161123IMF1611235.TXT
MDDDGN321812201611                D89828070100PV1D20161129000060SPEAKER ASM                   M IMCTM S5MB11 FTTL  07070IMCT  S5 PTB  00004                    0900 SR        000000000000 FUJITSU TEN (THAILAN170KNDL0062062                                                                                                                              *          20161123IMF1611235.TXT
MDDDGN321813201611                D89828070100PV1D20161129000060SPEAKER ASM                   M IMCTM S5MB11 FTTL  07070IMCT  S5 PTB  00004                    1300 SR        000000000000 FUJITSU TEN (THAILAN170KPAL0041041                                                                                                                              *          20161123IMF1611235.TXT
MDDDGN321814201611                D89828070300PT1D20161128000060SPEAKER ASM                   M IMCTM S5NB082FTTL  07070IMCT  S5 PTB  00015                    2100 SR        000000000000 FUJITSU TEN (THAILAN170KPCL0023023                                                                                                                              *          20161123IMF1611235.TXT
MDDDGN321815201611                D89831228300PT1D20161128000030RADIO;AM/FM,CD                M IMCTM S5NC06 FTTL  07070IMCT  S5 CPB  00003                    2100 SR        000000000000 FUJITSU TEN (THAILAN170KPCL0023023                                                                                                                              *          20161123IMF1611235.TXT
MDDUGN249858201611                D89828070100PT4U20161128000030SPEAKER ASM                   M IMCTM S0FL05 FTTL  07070IMCT  S0 PTB  00004                    2230 SR        000000000000 FUJITSU TEN (THAILAN170KUCU0032032                                                                                                                              *          20161123IMF1611235.TXT
MDDUGN249859201611                D89828070200PV4U20161128000030SPEAKER ASM                   M IMCTM S0FR05 FTTL  07070IMCT  S0 PTB  00005                    2230 SR        000000000000 FUJITSU TEN (THAILAN170KUCU0032032                                                                                                                              *          20161123IMF1611235.TXT
MDDUGN249860201611                D89828070300PT4U20161128000030SPEAKER ASM                   M IMCTM S9TS02 FTTL  07070IMCT  S9 PTB  00015                    2230 SR        000000000000 FUJITSU TEN (THAILAN170KUCU0032032                                                                                                                              *          20161123IMF1611235.TXT
MDDUGN249861201611                D89829093500PT4U20161128000015RADIO;ASM DVD (T              M IMCTM S9CO001FTTL  07070IMCT  S9 PTB  00003                    2230 SR        000000000000 FUJITSU TEN (THAILAN170KUCU0032032                                                                                                                              *          20161123IMF1611235.TXT
MDEDGN233713201611                D89805293700PV1D20161129000030SPEAKER ASM                   M IMCTM S5MB11 FTTL  07070IMCT  S5 PTB  00003                    0230 SR        000000000000 FUJITSU TEN (THAILAN15029BL0008008                                                                                                                              *          20161123IMF1611235.TXT
MDEDGN233714201611                D89805293700PV1D20161129000030SPEAKER ASM                   M IMCTM S5MB11 FTTL  07070IMCT  S5 PTB  00003                    0400 SR        000000000000 FUJITSU TEN (THAILAN15029BL0009009                                                                                                                              *          20161123IMF1611235.TXT
MDEDGN233715201611                D89805293700PV1D20161129000030SPEAKER ASM                   M IMCTM S5MB11 FTTL  07070IMCT  S5 PTB  00003                    0900 SR        000000000000 FUJITSU TEN (THAILAN15030BL0017017                                                                                                                              *          20161123IMF1611235.TXT
MDEDGN233716201611                D89805293700PV1D20161129000060SPEAKER ASM                   M IMCTM S5MB11 FTTL  07070IMCT  S5 PTB  00003                    1300 SR        000000000000 FUJITSU TEN (THAILAN15028BL0044045                                                                                                                              *          20161123IMF1611235.TXT
MDEDGN233717201611                D89805294000PT1D20161129000030SPEAKER ASM                   M IMCTM S5NB082FTTL  07070IMCT  S5 PTB  00015                    0230 SR        000000000000 FUJITSU TEN (THAILAN15029BL0008008                                                                                                                              *          20161123IMF1611235.TXT
MDEDGN233718201611                D89805294000PT1D20161129000030SPEAKER ASM                   M IMCTM S5NB082FTTL  07070IMCT  S5 PTB  00015                    0400 SR        000000000000 FUJITSU TEN (THAILAN15029BL0009009                                                                                                                              *          20161123IMF1611235.TXT
MDEDGN233719201611                D89805294000PT1D20161129000030SPEAKER ASM                   M IMCTM S5NB082FTTL  07070IMCT  S5 PTB  00015                    0900 SR        000000000000 FUJITSU TEN (THAILAN15030BL0017017                                                                                                                              *          20161123IMF1611235.TXT
MDEDGN233720201611                D89805294000PT1D20161129000060SPEAKER ASM                   M IMCTM S5NB082FTTL  07070IMCT  S5 PTB  00015                    1300 SR        000000000000 FUJITSU TEN (THAILAN15028BL0044045                                                                                                                              *          20161123IMF1611235.TXT
MDEDGN233721201611                D89805294100PV1D20161129000030SPEAKER ASM                   M IMCTM S5MA14 FTTL  07070IMCT  S5 PTB  00005                    0230 SR        000000000000 FUJITSU TEN (THAILAN15029BL0008008                                                                                                                              *          20161123IMF1611235.TXT
MDEDGN233722201611                D89805294100PV1D20161129000030SPEAKER ASM                   M IMCTM S5MA14 FTTL  07070IMCT  S5 PTB  00005                    0400 SR        000000000000 FUJITSU TEN (THAILAN15029BL0009009                                                                                                                              *          20161123IMF1611235.TXT
MDEDGN233723201611                D89805294100PV1D20161129000030SPEAKER ASM                   M IMCTM S5MA14 FTTL  07070IMCT  S5 PTB  00005                    0900 SR        000000000000 FUJITSU TEN (THAILAN15030BL0017017                                                                                                                              *          20161123IMF1611235.TXT
MDEDGN233724201611                D89805294100PV1D20161129000060SPEAKER ASM                   M IMCTM S5MA14 FTTL  07070IMCT  S5 PTB  00005                    1300 SR        000000000000 FUJITSU TEN (THAILAN15028BL0044045                                                                                                                              *          20161123IMF1611235.TXT
MDEDGN233725201611                D89828070100PV1D20161128000120SPEAKER ASM                   M IMCTM S5MB11 FTTL  07070IMCT  S5 PTB  00004                    2230 SR        000000000000 FUJITSU TEN (THAILAN17007RL000200217034ML000100117079NL001001017085ML0001001                                                                                    *          20161123IMF1611235.TXT
MDEDGN233726201611                D89828070100PV1D20161129000030SPEAKER ASM                   M IMCTM S5MB11 FTTL  07070IMCT  S5 PTB  00004                    0230 SR        000000000000 FUJITSU TEN (THAILAN17046QL0001001                                                                                                                              *          20161123IMF1611235.TXT
MDEDGN233727201611                D89828070100PV1D20161129000030SPEAKER ASM                   M IMCTM S5MB11 FTTL  07070IMCT  S5 PTB  00004                    0400 SR        000000000000 FUJITSU TEN (THAILAN17079NL0011011                                                                                                                              *          20161123IMF1611235.TXT
MDEDGN233728201611                D89828070100PV1D20161129000030SPEAKER ASM                   M IMCTM S5MB11 FTTL  07070IMCT  S5 PTB  00004                    0900 SR        000000000000 FUJITSU TEN (THAILAN17079NL0012012                                                                                                                              *          20161123IMF1611235.TXT
MDEDGN233729201611                D89828070100PV1D20161129000060SPEAKER ASM                   M IMCTM S5MB11 FTTL  07070IMCT  S5 PTB  00004                    1300 SR        000000000000 FUJITSU TEN (THAILAN17079NL0013014                                                                                                                              *          20161123IMF1611235.TXT
MDEDGN233730201611                D89828070100PV4D20161129000030SPEAKER ASM                   M IMCTM S0FL05 FTTL  07070IMCT  S0 PTB  00004                    0230 SR        000000000000 FUJITSU TEN (THAILAN17014NU0001001                                                                                                                              *          20161123IMF1611235.TXT
MDEDGN233731201611                D89828070200PV1D20161128000060SPEAKER ASM                   M IMCTM S5MA14 FTTL  07070IMCT  S5 PTB  00005                    2230 SR        000000000000 FUJITSU TEN (THAILAN17079NL001001017085ML0001001                                                                                                                *          20161123IMF1611235.TXT
MDEDGN233732201611                D89828070200PV1D20161129000030SPEAKER ASM                   M IMCTM S5MA14 FTTL  07070IMCT  S5 PTB  00005                    0230 SR        000000000000 FUJITSU TEN (THAILAN17046QL0001001                                                                                                                              *          20161123IMF1611235.TXT
MDEDGN233733201611                D89828070200PV1D20161129000030SPEAKER ASM                   M IMCTM S5MA14 FTTL  07070IMCT  S5 PTB  00005                    0400 SR        000000000000 FUJITSU TEN (THAILAN17079NL0011011                                                                                                                              *          20161123IMF1611235.TXT
MDEDGN233734201611                D89828070200PV1D20161129000030SPEAKER ASM                   M IMCTM S5MA14 FTTL  07070IMCT  S5 PTB  00005                    0900 SR        000000000000 FUJITSU TEN (THAILAN17079NL0012012                                                                                                                              *          20161123IMF1611235.TXT
MDEDGN233735201611                D89828070200PV1D20161129000060SPEAKER ASM                   M IMCTM S5MA14 FTTL  07070IMCT  S5 PTB  00005                    1300 SR        000000000000 FUJITSU TEN (THAILAN17079NL0013014                                                                                                                              *          20161123IMF1611235.TXT
MDEDGN233736201611                D89828070200PV4D20161129000030SPEAKER ASM                   M IMCTM S0FR05 FTTL  07070IMCT  S0 PTB  00005                    0230 SR        000000000000 FUJITSU TEN (THAILAN17014NU0001001                                                                                                                              *          20161123IMF1611235.TXT
MDEDGN233737201611                D89828070300PT1D20161128000060SPEAKER ASM                   M IMCTM S5NB082FTTL  07070IMCT  S5 PTB  00015                    2230 SR        000000000000 FUJITSU TEN (THAILAN17079NL001001017085ML0001001                                                                                                                *          20161123IMF1611235.TXT
MDEDGN233738201611                D89828070300PT1D20161129000030SPEAKER ASM                   M IMCTM S5NB082FTTL  07070IMCT  S5 PTB  00015                    0230 SR        000000000000 FUJITSU TEN (THAILAN17046QL0001001                                                                                                                              *          20161123IMF1611235.TXT
MDEDGN233739201611                D89828070300PT1D20161129000030SPEAKER ASM                   M IMCTM S5NB082FTTL  07070IMCT  S5 PTB  00015                    0400 SR        000000000000 FUJITSU TEN (THAILAN17079NL0011011                                                                                                                              *          20161123IMF1611235.TXT
MDEDGN233740201611                D89828070300PT1D20161129000030SPEAKER ASM                   M IMCTM S5NB082FTTL  07070IMCT  S5 PTB  00015                    0900 SR        000000000000 FUJITSU TEN (THAILAN17079NL0012012                                                                                                                              *          20161123IMF1611235.TXT
MDEDGN233741201611                D89828070300PT1D20161129000060SPEAKER ASM                   M IMCTM S5NB082FTTL  07070IMCT  S5 PTB  00015                    1300 SR        000000000000 FUJITSU TEN (THAILAN17079NL0013014                                                                                                                              *          20161123IMF1611235.TXT
MDEDGN233742201611                D89828070300PT4D20161129000030SPEAKER ASM                   M IMCTM S9TS02 FTTL  07070IMCT  S9 PTB  00015                    0230 SR        000000000000 FUJITSU TEN (THAILAN17014NU0001001                                                                                                                              *          20161123IMF1611235.TXT
MDEDGN233743201611                D89829645300PT4D20161129000015RADIO;ASM DVD                 M IMCTM S22000 FTTL  07070IMCT  S2*PTB  00003                    0230 SR        000000000000 FUJITSU TEN (THAILAN17014NU0001001                                                                                                                              *          20161123IMF1611235.TXT
MDEDGN233744201611                D89829645700PT1D20161128000015RADIO;ASM DVD                 M IMCTM S5NC06 FTTL  07070IMCT  S5 X    00003                    2230 SR        000000000000 FUJITSU TEN (THAILAN17079NL0010010                                                                                                                              *          20161123IMF1611235.TXT
MDEDGN233745201611                D89829645700PT1D20161129000015RADIO;ASM DVD                 M IMCTM S5NC06 FTTL  07070IMCT  S5 X    00003                    0400 SR        000000000000 FUJITSU TEN (THAILAN17079NL0011011                                                                                                                              *          20161123IMF1611235.TXT
MDEDGN233746201611                D89829645700PT1D20161129000015RADIO;ASM DVD                 M IMCTM S5NC06 FTTL  07070IMCT  S5 X    00003                    0900 SR        000000000000 FUJITSU TEN (THAILAN17079NL0012012                                                                                                                              *          20161123IMF1611235.TXT
MDEDGN233747201611                D89829645700PT1D20161129000030RADIO;ASM DVD                 M IMCTM S5NC06 FTTL  07070IMCT  S5 X    00003                    1300 SR        000000000000 FUJITSU TEN (THAILAN17079NL0013014                                                                                                                              *          20161123IMF1611235.TXT
MDEUGN275627201611                D89828070100PT4U20161128000030SPEAKER ASM                   M IMCTM S0FL05 FTTL  07070IMCT  S0 PTB  00004                    2100 SR        000000000000 FUJITSU TEN (THAILAN160B95U0035035                                                                                                                              *          20161123IMF1611235.TXT
MDEUGN275628201611                D89828070100PT4U20161128000030SPEAKER ASM                   M IMCTM S0FL05 FTTL  07070IMCT  S0 PTB  00004                    2230 SR        000000000000 FUJITSU TEN (THAILAN160B94U0018018                                                                                                                              *          20161123IMF1611235.TXT
MDEUGN275629201611                D89828070100PT4U20161129000030SPEAKER ASM                   M IMCTM S0FL05 FTTL  07070IMCT  S0 PTB  00004                    0400 SR        000000000000 FUJITSU TEN (THAILAN160B95U0036036                                                                                                                              *          20161123IMF1611235.TXT
MDEUGN275630201611                D89828070100PT4U20161129000030SPEAKER ASM                   M IMCTM S0FL05 FTTL  07070IMCT  S0 PTB  00004                    0900 SR        000000000000 FUJITSU TEN (THAILAN170C09U0013013                                                                                                                              *          20161123IMF1611235.TXT
MDEUGN275631201611                D89828070100PT4U20161129000060SPEAKER ASM                   M IMCTM S0FL05 FTTL  07070IMCT  S0 PTB  00004                    1300 SR        000000000000 FUJITSU TEN (THAILAN170C02U0002002170C19U0001001                                                                                                                *          20161123IMF1611235.TXT
MDEUGN275632201611                D89828070200PV4U20161128000030SPEAKER ASM                   M IMCTM S0FR05 FTTL  07070IMCT  S0 PTB  00005                    2100 SR        000000000000 FUJITSU TEN (THAILAN160B95U0035035                                                                                                                              *          20161123IMF1611235.TXT
MDEUGN275633201611                D89828070200PV4U20161128000030SPEAKER ASM                   M IMCTM S0FR05 FTTL  07070IMCT  S0 PTB  00005                    2230 SR        000000000000 FUJITSU TEN (THAILAN160B94U0018018                                                                                                                              *          20161123IMF1611235.TXT
MDEUGN275634201611                D89828070200PV4U20161129000030SPEAKER ASM                   M IMCTM S0FR05 FTTL  07070IMCT  S0 PTB  00005                    0400 SR        000000000000 FUJITSU TEN (THAILAN160B95U0036036                                                                                                                              *          20161123IMF1611235.TXT
MDEUGN275635201611                D89828070200PV4U20161129000030SPEAKER ASM                   M IMCTM S0FR05 FTTL  07070IMCT  S0 PTB  00005                    0900 SR        000000000000 FUJITSU TEN (THAILAN170C09U0013013                                                                                                                              *          20161123IMF1611235.TXT
MDEUGN275636201611                D89828070200PV4U20161129000060SPEAKER ASM                   M IMCTM S0FR05 FTTL  07070IMCT  S0 PTB  00005                    1300 SR        000000000000 FUJITSU TEN (THAILAN170C02U0002002170C19U0001001                                                                                                                *          20161123IMF1611235.TXT
MDEUGN275637201611                D89828070300PT4U20161128000030SPEAKER ASM                   M IMCTM S9TS02 FTTL  07070IMCT  S9 PTB  00015                    2100 SR        000000000000 FUJITSU TEN (THAILAN160B95U0035035                                                                                                                              *          20161123IMF1611235.TXT
MDEUGN275638201611                D89828070300PT4U20161128000030SPEAKER ASM                   M IMCTM S9TS02 FTTL  07070IMCT  S9 PTB  00015                    2230 SR        000000000000 FUJITSU TEN (THAILAN160B94U0018018                                                                                                                              *          20161123IMF1611235.TXT
MDEUGN275639201611                D89828070300PT4U20161129000030SPEAKER ASM                   M IMCTM S9TS02 FTTL  07070IMCT  S9 PTB  00015                    0400 SR        000000000000 FUJITSU TEN (THAILAN160B95U0036036                                                                                                                              *          20161123IMF1611235.TXT
MDEUGN275640201611                D89828070300PT4U20161129000030SPEAKER ASM                   M IMCTM S9TS02 FTTL  07070IMCT  S9 PTB  00015                    0900 SR        000000000000 FUJITSU TEN (THAILAN170C09U0013013                                                                                                                              *          20161123IMF1611235.TXT
MDEUGN275641201611                D89828070300PT4U20161129000060SPEAKER ASM                   M IMCTM S9TS02 FTTL  07070IMCT  S9 PTB  00015                    1300 SR        000000000000 FUJITSU TEN (THAILAN170C02U0002002170C19U0001001                                                                                                                *          20161123IMF1611235.TXT
MDEUGN275642201611                D89829093600PT4U20161129000015RADIO;ASM DVD (A              M IMCTM S9CO001FTTL  07070IMCT  S9 X    00003                    1300 SR        000000000000 FUJITSU TEN (THAILAN170C02U0002002                                                                                                                              *          20161123IMF1611235.TXT
