REC2016112420161124ISUZU                              3      
MHEDGN600374201702                 89828070100PV1D20170206000004SPEAKER ASM                   M IMCTM ST00000FTTL  07070IMCT  ST PTB  00004 CDC                0000 SR        000000000000 FUJITSU TEN (THAILAN17043TL000100117045TL0001001                                                                                                                *  2017012300000000IMF1611246.TXT
MHEDGN600375201702                 89828070200PV1D20170206000002SPEAKER ASM                   M IMCTM ST00000FTTL  07070IMCT  ST PTB  00005 CDC                0000 SR        000000000000 FUJITSU TEN (THAILAN17045TL0001001                                                                                                                              *  2017012300000000IMF1611246.TXT
MHEDGN600376201702                 89828070300PT1D20170206000002SPEAKER ASM                   M IMCTM ST00000FTTL  07070IMCT  ST PTB  00015 CDC                0000 SR        000000000000 FUJITSU TEN (THAILAN17045TL0001001                                                                                                                              *  2017012300000000IMF1611246.TXT
