REC2016112220161122ISUZU                              56     
MDDDGN318979201611                D89821984430PT1D20161125000030RADIO;AM/FM,CD                M IMCTM S5NC06 FTTL  07070IMCT  S5 PTB  00005                    2230 SR        000000000000 FUJITSU TEN (THAILAN170KNEL0036036                                                                                                                              *          20161122IMF1611225.TXT
MDDDGN318980201611                D89821984430PT1D20161126000030RADIO;AM/FM,CD                M IMCTM S5NC06 FTTL  07070IMCT  S5 PTB  00005                    0400 SR        000000000000 FUJITSU TEN (THAILAN170KNDL0061061                                                                                                                              *          20161122IMF1611225.TXT
MDDDGN318981201611                D89828070100PV1D20161125000060SPEAKER ASM                   M IMCTM S5MB11 FTTL  07070IMCT  S5 PTB  00004                    2230 SR        000000000000 FUJITSU TEN (THAILAN170KNEL0036036                                                                                                                              *          20161122IMF1611225.TXT
MDDDGN318982201611                D89828070100PV1D20161126000060SPEAKER ASM                   M IMCTM S5MB11 FTTL  07070IMCT  S5 PTB  00004                    0400 SR        000000000000 FUJITSU TEN (THAILAN170KNDL0061061                                                                                                                              *          20161122IMF1611225.TXT
MDDDGN318983201611                D89828070100PV1D20161128000120SPEAKER ASM                   M IMCTM S5MB11 FTTL  07070IMCT  S5 PTB  00004                    1300 SR        000000000000 FUJITSU TEN (THAILAN170KNAL0021021170KNBL0008008                                                                                                                *          20161122IMF1611225.TXT
MDDUGN246588201611                D89828070100PT4U20161125000030SPEAKER ASM                   M IMCTM S0FL05 FTTL  07070IMCT  S0 PTB  00004                    2230 SR        000000000000 FUJITSU TEN (THAILAN170KUCU0030030                                                                                                                              *          20161122IMF1611225.TXT
MDDUGN246589201611                D89828070100PT4U20161128000030SPEAKER ASM                   M IMCTM S0FL05 FTTL  07070IMCT  S0 PTB  00004                    1300 SR        000000000000 FUJITSU TEN (THAILAN170KUCU0031031                                                                                                                              *          20161122IMF1611225.TXT
MDDUGN246590201611                D89828070200PV4U20161125000030SPEAKER ASM                   M IMCTM S0FR05 FTTL  07070IMCT  S0 PTB  00005                    2230 SR        000000000000 FUJITSU TEN (THAILAN170KUCU0030030                                                                                                                              *          20161122IMF1611225.TXT
MDDUGN246591201611                D89828070200PV4U20161128000030SPEAKER ASM                   M IMCTM S0FR05 FTTL  07070IMCT  S0 PTB  00005                    1300 SR        000000000000 FUJITSU TEN (THAILAN170KUCU0031031                                                                                                                              *          20161122IMF1611225.TXT
MDDUGN246592201611                D89828070300PT4U20161125000030SPEAKER ASM                   M IMCTM S9TS02 FTTL  07070IMCT  S9 PTB  00015                    2230 SR        000000000000 FUJITSU TEN (THAILAN170KUCU0030030                                                                                                                              *          20161122IMF1611225.TXT
MDDUGN246593201611                D89828070300PT4U20161128000030SPEAKER ASM                   M IMCTM S9TS02 FTTL  07070IMCT  S9 PTB  00015                    1300 SR        000000000000 FUJITSU TEN (THAILAN170KUCU0031031                                                                                                                              *          20161122IMF1611225.TXT
MDDUGN246594201611                D89829093500PT4U20161125000015RADIO;ASM DVD (T              M IMCTM S9CO001FTTL  07070IMCT  S9 PTB  00003                    2230 SR        000000000000 FUJITSU TEN (THAILAN170KUCU0030030                                                                                                                              *          20161122IMF1611225.TXT
MDDUGN246595201611                D89829093500PT4U20161128000015RADIO;ASM DVD (T              M IMCTM S9CO001FTTL  07070IMCT  S9 PTB  00003                    1300 SR        000000000000 FUJITSU TEN (THAILAN170KUCU0031031                                                                                                                              *          20161122IMF1611225.TXT
MDEDGN227207201611                D89805293700PV1D20161125000030SPEAKER ASM                   M IMCTM S5MB11 FTTL  07070IMCT  S5 PTB  00003                    2230 SR        000000000000 FUJITSU TEN (THAILAN15028BL0039039                                                                                                                              *          20161122IMF1611225.TXT
MDEDGN227208201611                D89805293700PV1D20161126000030SPEAKER ASM                   M IMCTM S5MB11 FTTL  07070IMCT  S5 PTB  00003                    0230 SR        000000000000 FUJITSU TEN (THAILAN15028BL0040040                                                                                                                              *          20161122IMF1611225.TXT
MDEDGN227209201611                D89805293700PV1D20161128000090SPEAKER ASM                   M IMCTM S5MB11 FTTL  07070IMCT  S5 PTB  00003                    0900 SR        000000000000 FUJITSU TEN (THAILAN15028BL0041043                                                                                                                              *          20161122IMF1611225.TXT
MDEDGN227210201611                D89805294000PT1D20161125000030SPEAKER ASM                   M IMCTM S5NB082FTTL  07070IMCT  S5 PTB  00015                    2230 SR        000000000000 FUJITSU TEN (THAILAN15028BL0039039                                                                                                                              *          20161122IMF1611225.TXT
MDEDGN227211201611                D89805294000PT1D20161126000030SPEAKER ASM                   M IMCTM S5NB082FTTL  07070IMCT  S5 PTB  00015                    0230 SR        000000000000 FUJITSU TEN (THAILAN15028BL0040040                                                                                                                              *          20161122IMF1611225.TXT
MDEDGN227212201611                D89805294000PT1D20161128000090SPEAKER ASM                   M IMCTM S5NB082FTTL  07070IMCT  S5 PTB  00015                    0900 SR        000000000000 FUJITSU TEN (THAILAN15028BL0041043                                                                                                                              *          20161122IMF1611225.TXT
MDEDGN227213201611                D89805294100PV1D20161125000030SPEAKER ASM                   M IMCTM S5MA14 FTTL  07070IMCT  S5 PTB  00005                    2230 SR        000000000000 FUJITSU TEN (THAILAN15028BL0039039                                                                                                                              *          20161122IMF1611225.TXT
MDEDGN227214201611                D89805294100PV1D20161126000030SPEAKER ASM                   M IMCTM S5MA14 FTTL  07070IMCT  S5 PTB  00005                    0230 SR        000000000000 FUJITSU TEN (THAILAN15028BL0040040                                                                                                                              *          20161122IMF1611225.TXT
MDEDGN227215201611                D89805294100PV1D20161128000090SPEAKER ASM                   M IMCTM S5MA14 FTTL  07070IMCT  S5 PTB  00005                    0900 SR        000000000000 FUJITSU TEN (THAILAN15028BL0041043                                                                                                                              *          20161122IMF1611225.TXT
MDEDGN227216201611                D89828070100PV1D20161125000060SPEAKER ASM                   M IMCTM S5MB11 FTTL  07070IMCT  S5 PTB  00004                    2230 SR        000000000000 FUJITSU TEN (THAILAN17079NL0004005                                                                                                                              *          20161122IMF1611225.TXT
MDEDGN227217201611                D89828070100PV1D20161126000030SPEAKER ASM                   M IMCTM S5MB11 FTTL  07070IMCT  S5 PTB  00004                    0230 SR        000000000000 FUJITSU TEN (THAILAN17062ML0001001                                                                                                                              *          20161122IMF1611225.TXT
MDEDGN227218201611                D89828070100PV1D20161126000060SPEAKER ASM                   M IMCTM S5MB11 FTTL  07070IMCT  S5 PTB  00004                    0400 SR        000000000000 FUJITSU TEN (THAILAN17079NL0006007                                                                                                                              *          20161122IMF1611225.TXT
MDEDGN227219201611                D89828070100PV1D20161128000030SPEAKER ASM                   M IMCTM S5MB11 FTTL  07070IMCT  S5 PTB  00004                    0900 SR        000000000000 FUJITSU TEN (THAILAN17028RL0001001                                                                                                                              *          20161122IMF1611225.TXT
MDEDGN227220201611                D89828070100PV1D20161128000060SPEAKER ASM                   M IMCTM S5MB11 FTTL  07070IMCT  S5 PTB  00004                    1300 SR        000000000000 FUJITSU TEN (THAILAN17067QL000100117079NL0008008                                                                                                                *          20161122IMF1611225.TXT
MDEDGN227221201611                D89828070100PV1D20161128000030SPEAKER ASM                   M IMCTM S5MB11 FTTL  07070IMCT  S5 PTB  00004                    2100 SR        000000000000 FUJITSU TEN (THAILAN17079NL0009009                                                                                                                              *          20161122IMF1611225.TXT
MDEDGN227222201611                D89828070200PV1D20161125000060SPEAKER ASM                   M IMCTM S5MA14 FTTL  07070IMCT  S5 PTB  00005                    2230 SR        000000000000 FUJITSU TEN (THAILAN17079NL0004005                                                                                                                              *          20161122IMF1611225.TXT
MDEDGN227223201611                D89828070200PV1D20161126000060SPEAKER ASM                   M IMCTM S5MA14 FTTL  07070IMCT  S5 PTB  00005                    0400 SR        000000000000 FUJITSU TEN (THAILAN17079NL0006007                                                                                                                              *          20161122IMF1611225.TXT
MDEDGN227224201611                D89828070200PV1D20161128000060SPEAKER ASM                   M IMCTM S5MA14 FTTL  07070IMCT  S5 PTB  00005                    1300 SR        000000000000 FUJITSU TEN (THAILAN17067QL000100117079NL0008008                                                                                                                *          20161122IMF1611225.TXT
MDEDGN227225201611                D89828070200PV1D20161128000030SPEAKER ASM                   M IMCTM S5MA14 FTTL  07070IMCT  S5 PTB  00005                    2100 SR        000000000000 FUJITSU TEN (THAILAN17079NL0009009                                                                                                                              *          20161122IMF1611225.TXT
MDEDGN227226201611                D89828070300PT1D20161125000060SPEAKER ASM                   M IMCTM S5NB082FTTL  07070IMCT  S5 PTB  00015                    2230 SR        000000000000 FUJITSU TEN (THAILAN17079NL0004005                                                                                                                              *          20161122IMF1611225.TXT
MDEDGN227227201611                D89828070300PT1D20161126000030SPEAKER ASM                   M IMCTM S5NB082FTTL  07070IMCT  S5 PTB  00015                    0230 SR        000000000000 FUJITSU TEN (THAILAN17062ML0001001                                                                                                                              *          20161122IMF1611225.TXT
MDEDGN227228201611                D89828070300PT1D20161126000060SPEAKER ASM                   M IMCTM S5NB082FTTL  07070IMCT  S5 PTB  00015                    0400 SR        000000000000 FUJITSU TEN (THAILAN17079NL0006007                                                                                                                              *          20161122IMF1611225.TXT
MDEDGN227229201611                D89828070300PT1D20161128000060SPEAKER ASM                   M IMCTM S5NB082FTTL  07070IMCT  S5 PTB  00015                    1300 SR        000000000000 FUJITSU TEN (THAILAN17067QL000100117079NL0008008                                                                                                                *          20161122IMF1611225.TXT
MDEDGN227230201611                D89828070300PT1D20161128000030SPEAKER ASM                   M IMCTM S5NB082FTTL  07070IMCT  S5 PTB  00015                    2100 SR        000000000000 FUJITSU TEN (THAILAN17079NL0009009                                                                                                                              *          20161122IMF1611225.TXT
MDEDGN227231201611                D89829622400PT1D20161126000015RADIO;ASM DVD                 M IMCTM S5NC06 FTTL  07070IMCT  S5*PTB  00003                    0230 SR        000000000000 FUJITSU TEN (THAILAN17062ML0001001                                                                                                                              *          20161122IMF1611225.TXT
MDEDGN227232201611                D89829645700PT1D20161125000030RADIO;ASM DVD                 M IMCTM S5NC06 FTTL  07070IMCT  S5 X    00003                    2230 SR        000000000000 FUJITSU TEN (THAILAN17079NL0004005                                                                                                                              *          20161122IMF1611225.TXT
MDEDGN227233201611                D89829645700PT1D20161126000030RADIO;ASM DVD                 M IMCTM S5NC06 FTTL  07070IMCT  S5 X    00003                    0400 SR        000000000000 FUJITSU TEN (THAILAN17079NL0006007                                                                                                                              *          20161122IMF1611225.TXT
MDEDGN227234201611                D89829645700PT1D20161128000015RADIO;ASM DVD                 M IMCTM S5NC06 FTTL  07070IMCT  S5 X    00003                    1300 SR        000000000000 FUJITSU TEN (THAILAN17079NL0008008                                                                                                                              *          20161122IMF1611225.TXT
MDEDGN227235201611                D89829645700PT1D20161128000015RADIO;ASM DVD                 M IMCTM S5NC06 FTTL  07070IMCT  S5 X    00003                    2100 SR        000000000000 FUJITSU TEN (THAILAN17079NL0009009                                                                                                                              *          20161122IMF1611225.TXT
MDEDGN227236201611                D89831229000PT1D20161128000015RADIO;AM/FM,CD                M IMCTM S5NC06 FTTL  07070IMCT  S5 PTB  00003                    1300 SR        000000000000 FUJITSU TEN (THAILAN17067QL0001001                                                                                                                              *          20161122IMF1611225.TXT
MDEUGN271719201611                D89828070100PT4U20161125000060SPEAKER ASM                   M IMCTM S0FL05 FTTL  07070IMCT  S0 PTB  00004                    2230 SR        000000000000 FUJITSU TEN (THAILAN170C08U0006006170C09U0011011                                                                                                                *          20161122IMF1611225.TXT
MDEUGN271720201611                D89828070100PT4U20161126000030SPEAKER ASM                   M IMCTM S0FL05 FTTL  07070IMCT  S0 PTB  00004                    0230 SR        000000000000 FUJITSU TEN (THAILAN160B94U0017017                                                                                                                              *          20161122IMF1611225.TXT
MDEUGN271721201611                D89828070100PT4U20161126000030SPEAKER ASM                   M IMCTM S0FL05 FTTL  07070IMCT  S0 PTB  00004                    0400 SR        000000000000 FUJITSU TEN (THAILAN160B95U0034034                                                                                                                              *          20161122IMF1611225.TXT
MDEUGN271722201611                D89828070100PT4U20161128000060SPEAKER ASM                   M IMCTM S0FL05 FTTL  07070IMCT  S0 PTB  00004                    1300 SR        000000000000 FUJITSU TEN (THAILAN170C02U0001001170C09U0012012                                                                                                                *          20161122IMF1611225.TXT
MDEUGN271723201611                D89828070200PV4U20161125000060SPEAKER ASM                   M IMCTM S0FR05 FTTL  07070IMCT  S0 PTB  00005                    2230 SR        000000000000 FUJITSU TEN (THAILAN170C08U0006006170C09U0011011                                                                                                                *          20161122IMF1611225.TXT
MDEUGN271724201611                D89828070200PV4U20161126000030SPEAKER ASM                   M IMCTM S0FR05 FTTL  07070IMCT  S0 PTB  00005                    0230 SR        000000000000 FUJITSU TEN (THAILAN160B94U0017017                                                                                                                              *          20161122IMF1611225.TXT
MDEUGN271725201611                D89828070200PV4U20161126000030SPEAKER ASM                   M IMCTM S0FR05 FTTL  07070IMCT  S0 PTB  00005                    0400 SR        000000000000 FUJITSU TEN (THAILAN160B95U0034034                                                                                                                              *          20161122IMF1611225.TXT
MDEUGN271726201611                D89828070200PV4U20161128000060SPEAKER ASM                   M IMCTM S0FR05 FTTL  07070IMCT  S0 PTB  00005                    1300 SR        000000000000 FUJITSU TEN (THAILAN170C02U0001001170C09U0012012                                                                                                                *          20161122IMF1611225.TXT
MDEUGN271727201611                D89828070300PT4U20161125000060SPEAKER ASM                   M IMCTM S9TS02 FTTL  07070IMCT  S9 PTB  00015                    2230 SR        000000000000 FUJITSU TEN (THAILAN170C08U0006006170C09U0011011                                                                                                                *          20161122IMF1611225.TXT
MDEUGN271728201611                D89828070300PT4U20161126000030SPEAKER ASM                   M IMCTM S9TS02 FTTL  07070IMCT  S9 PTB  00015                    0230 SR        000000000000 FUJITSU TEN (THAILAN160B94U0017017                                                                                                                              *          20161122IMF1611225.TXT
MDEUGN271729201611                D89828070300PT4U20161126000030SPEAKER ASM                   M IMCTM S9TS02 FTTL  07070IMCT  S9 PTB  00015                    0400 SR        000000000000 FUJITSU TEN (THAILAN160B95U0034034                                                                                                                              *          20161122IMF1611225.TXT
MDEUGN271730201611                D89828070300PT4U20161128000060SPEAKER ASM                   M IMCTM S9TS02 FTTL  07070IMCT  S9 PTB  00015                    1300 SR        000000000000 FUJITSU TEN (THAILAN170C02U0001001170C09U0012012                                                                                                                *          20161122IMF1611225.TXT
MDEUGN271731201611                D89829093600PT4U20161128000015RADIO;ASM DVD (A              M IMCTM S9CO001FTTL  07070IMCT  S9 X    00003                    1300 SR        000000000000 FUJITSU TEN (THAILAN170C02U0001001                                                                                                                              *          20161122IMF1611225.TXT
