REC2016111020161110ISUZU                              40     
MAKK6N049161201611D4               89805293700P3YK20161121000210SPEAKER ASM                   M IMCTM CM1    FTTL  07070IMKDC 01   PTB00003  K0                1621DES        000000000000 FUJITSU TEN (THAILAN                                                                                                                                            *G         20161110IMF1611101.TXT
MAKK6N049162201611D4               89805293700P3YK20161122000240SPEAKER ASM                   M IMCTM CM1    FTTL  07070IMKDC 01   PTB00003  K0                1621DES        000000000000 FUJITSU TEN (THAILAN                                                                                                                                            *G         20161110IMF1611101.TXT
MAKK6N049163201611D4               89805293700P3YK20161123000180SPEAKER ASM                   M IMCTM CM1    FTTL  07070IMKDC 01   PTB00003  K0                1621DES        000000000000 FUJITSU TEN (THAILAN                                                                                                                                            *G         20161110IMF1611101.TXT
MAKK6N049164201611D4               89805293700P3YK20161124000180SPEAKER ASM                   M IMCTM CM1    FTTL  07070IMKDC 01   PTB00003  K0                1621DES        000000000000 FUJITSU TEN (THAILAN                                                                                                                                            *G         20161110IMF1611101.TXT
MAKK6N049165201611D4               89805293700P3YK20161125000210SPEAKER ASM                   M IMCTM CM1    FTTL  07070IMKDC 01   PTB00003  K0                1621DES        000000000000 FUJITSU TEN (THAILAN                                                                                                                                            *G         20161110IMF1611101.TXT
MAKK6N049166201611D4               89805293700P3YK20161126000150SPEAKER ASM                   M IMCTM CM1    FTTL  07070IMKDC 01   PTB00003  K0                1621DES        000000000000 FUJITSU TEN (THAILAN                                                                                                                                            *G         20161110IMF1611101.TXT
MAKK6N049167201611D4               89805294000P3YK20161121000030SPEAKER ASM                   M IMCTM CM1    FTTL  07070IMKDC 01   PTB00015  K0                1621DES        000000000000 FUJITSU TEN (THAILAN                                                                                                                                            *G         20161110IMF1611101.TXT
MAKK6N049168201611D4               89805294000P3YK20161122000120SPEAKER ASM                   M IMCTM CM1    FTTL  07070IMKDC 01   PTB00015  K0                1621DES        000000000000 FUJITSU TEN (THAILAN                                                                                                                                            *G         20161110IMF1611101.TXT
MAKK6N049169201611D4               89805294000P3YK20161123000030SPEAKER ASM                   M IMCTM CM1    FTTL  07070IMKDC 01   PTB00015  K0                1621DES        000000000000 FUJITSU TEN (THAILAN                                                                                                                                            *G         20161110IMF1611101.TXT
MAKK6N049170201611D4               89805294000P3YK20161124000090SPEAKER ASM                   M IMCTM CM1    FTTL  07070IMKDC 01   PTB00015  K0                1621DES        000000000000 FUJITSU TEN (THAILAN                                                                                                                                            *G         20161110IMF1611101.TXT
MAKK6N049171201611D4               89805294000P3YK20161125000060SPEAKER ASM                   M IMCTM CM1    FTTL  07070IMKDC 01   PTB00015  K0                1621DES        000000000000 FUJITSU TEN (THAILAN                                                                                                                                            *G         20161110IMF1611101.TXT
MAKK6N049172201611D4               89805294000P3YK20161126000090SPEAKER ASM                   M IMCTM CM1    FTTL  07070IMKDC 01   PTB00015  K0                1621DES        000000000000 FUJITSU TEN (THAILAN                                                                                                                                            *G         20161110IMF1611101.TXT
MAKK6N049173201611D4               89805294100P3YK20161122000090SPEAKER ASM                   M IMCTM CM1    FTTL  07070IMKDC 01   PTB00005  K0                1621DES        000000000000 FUJITSU TEN (THAILAN                                                                                                                                            *G         20161110IMF1611101.TXT
MAKK6N049174201611D4               89805294100P3YK20161123000030SPEAKER ASM                   M IMCTM CM1    FTTL  07070IMKDC 01   PTB00005  K0                1621DES        000000000000 FUJITSU TEN (THAILAN                                                                                                                                            *G         20161110IMF1611101.TXT
MAKK6N049175201611D4               89805294100P3YK20161124000090SPEAKER ASM                   M IMCTM CM1    FTTL  07070IMKDC 01   PTB00005  K0                1621DES        000000000000 FUJITSU TEN (THAILAN                                                                                                                                            *G         20161110IMF1611101.TXT
MAKK6N049176201611D4               89805294100P3YK20161125000060SPEAKER ASM                   M IMCTM CM1    FTTL  07070IMKDC 01   PTB00005  K0                1621DES        000000000000 FUJITSU TEN (THAILAN                                                                                                                                            *G         20161110IMF1611101.TXT
MAKK6N049177201611D4               89805294100P3YK20161126000090SPEAKER ASM                   M IMCTM CM1    FTTL  07070IMKDC 01   PTB00005  K0                1621DES        000000000000 FUJITSU TEN (THAILAN                                                                                                                                            *G         20161110IMF1611101.TXT
MAKK6N049178201611D4               89825451200P3YK20161121000030SPEAKER ASM;ROOF              M IMCTM CM1    FTTL  07070IMKDC 01   PTB00015  K0                1621DES        000000000000 FUJITSU TEN (THAILAN                                                                                                                                            *G         20161110IMF1611101.TXT
MAKK6N049179201611D4               89825451200P3YK20161122000030SPEAKER ASM;ROOF              M IMCTM CM1    FTTL  07070IMKDC 01   PTB00015  K0                1621DES        000000000000 FUJITSU TEN (THAILAN                                                                                                                                            *G         20161110IMF1611101.TXT
MAKK6N049180201611D4               89825451200P3YK20161123000030SPEAKER ASM;ROOF              M IMCTM CM1    FTTL  07070IMKDC 01   PTB00015  K0                1621DES        000000000000 FUJITSU TEN (THAILAN                                                                                                                                            *G         20161110IMF1611101.TXT
MAKK6N049181201611D4               89825451200P3YK20161124000060SPEAKER ASM;ROOF              M IMCTM CM1    FTTL  07070IMKDC 01   PTB00015  K0                1621DES        000000000000 FUJITSU TEN (THAILAN                                                                                                                                            *G         20161110IMF1611101.TXT
MAKK6N049182201611D4               89825451200P3YK20161126000090SPEAKER ASM;ROOF              M IMCTM CM1    FTTL  07070IMKDC 01   PTB00015  K0                1621DES        000000000000 FUJITSU TEN (THAILAN                                                                                                                                            *G         20161110IMF1611101.TXT
MAKK6N049183201611D4               89828070100P3YK20161121000090SPEAKER ASM                   M IMCTM CM1    FTTL  07070IMKDC 01 PTB  00003  K0                1621DES        000000000000 FUJITSU TEN (THAILAN                                                                                                                                            *G         20161110IMF1611101.TXT
MAKK6N049184201611D4               89828070100P3YK20161122000060SPEAKER ASM                   M IMCTM CM1    FTTL  07070IMKDC 01 PTB  00003  K0                1621DES        000000000000 FUJITSU TEN (THAILAN                                                                                                                                            *G         20161110IMF1611101.TXT
MAKK6N049185201611D4               89828070100P3YK20161123000120SPEAKER ASM                   M IMCTM CM1    FTTL  07070IMKDC 01 PTB  00003  K0                1621DES        000000000000 FUJITSU TEN (THAILAN                                                                                                                                            *G         20161110IMF1611101.TXT
MAKK6N049186201611D4               89828070100P3YK20161124000120SPEAKER ASM                   M IMCTM CM1    FTTL  07070IMKDC 01 PTB  00003  K0                1621DES        000000000000 FUJITSU TEN (THAILAN                                                                                                                                            *G         20161110IMF1611101.TXT
MAKK6N049187201611D4               89828070100P3YK20161125000090SPEAKER ASM                   M IMCTM CM1    FTTL  07070IMKDC 01 PTB  00003  K0                1621DES        000000000000 FUJITSU TEN (THAILAN                                                                                                                                            *G         20161110IMF1611101.TXT
MAKK6N049188201611D4               89828070200P3YK20161121000030SPEAKER ASM                   M IMCTM CM1    FTTL  07070IMKDC 01 PTB  00005  K0                1621DES        000000000000 FUJITSU TEN (THAILAN                                                                                                                                            *G         20161110IMF1611101.TXT
MAKK6N049189201611D4               89828070200P3YK20161122000030SPEAKER ASM                   M IMCTM CM1    FTTL  07070IMKDC 01 PTB  00005  K0                1621DES        000000000000 FUJITSU TEN (THAILAN                                                                                                                                            *G         20161110IMF1611101.TXT
MAKK6N049190201611D4               89828070200P3YK20161123000030SPEAKER ASM                   M IMCTM CM1    FTTL  07070IMKDC 01 PTB  00005  K0                1621DES        000000000000 FUJITSU TEN (THAILAN                                                                                                                                            *G         20161110IMF1611101.TXT
MAKK6N049191201611D4               89828070200P3YK20161124000030SPEAKER ASM                   M IMCTM CM1    FTTL  07070IMKDC 01 PTB  00005  K0                1621DES        000000000000 FUJITSU TEN (THAILAN                                                                                                                                            *G         20161110IMF1611101.TXT
MAKK6N049192201611D4               89828070200P3YK20161125000060SPEAKER ASM                   M IMCTM CM1    FTTL  07070IMKDC 01 PTB  00005  K0                1621DES        000000000000 FUJITSU TEN (THAILAN                                                                                                                                            *G         20161110IMF1611101.TXT
MAKK6N049193201611D4               89828070300P3YK20161121000060SPEAKER ASM                   M IMCTM CM1    FTTL  07070IMKDC 01 PTB  00015  K0                1621DES        000000000000 FUJITSU TEN (THAILAN                                                                                                                                            *G         20161110IMF1611101.TXT
MAKK6N049194201611D4               89828070300P3YK20161122000030SPEAKER ASM                   M IMCTM CM1    FTTL  07070IMKDC 01 PTB  00015  K0                1621DES        000000000000 FUJITSU TEN (THAILAN                                                                                                                                            *G         20161110IMF1611101.TXT
MAKK6N049195201611D4               89828070300P3YK20161123000060SPEAKER ASM                   M IMCTM CM1    FTTL  07070IMKDC 01 PTB  00015  K0                1621DES        000000000000 FUJITSU TEN (THAILAN                                                                                                                                            *G         20161110IMF1611101.TXT
MAKK6N049196201611D4               89828070300P3YK20161124000030SPEAKER ASM                   M IMCTM CM1    FTTL  07070IMKDC 01 PTB  00015  K0                1621DES        000000000000 FUJITSU TEN (THAILAN                                                                                                                                            *G         20161110IMF1611101.TXT
MAKK6N049197201611D4               89828070300P3YK20161125000060SPEAKER ASM                   M IMCTM CM1    FTTL  07070IMKDC 01 PTB  00015  K0                1621DES        000000000000 FUJITSU TEN (THAILAN                                                                                                                                            *G         20161110IMF1611101.TXT
MAKK6N049198201611D4               89831228700P3YK20161123000015RADIO;AM/FM,CD                M IMCTM CM1    FTTL  07070IMKDC 01 CPB  00005  K0                1621DES        000000000000 FUJITSU TEN (THAILAN                                                                                                                                            *G         20161110IMF1611101.TXT
MAKK6N049199201611D4               89831228800P3YK20161121000015RADIO;AM/FM,CD                M IMCTM CM1    FTTL  07070IMKDC 01 CPB  00005  K0                1621DES        000000000000 FUJITSU TEN (THAILAN                                                                                                                                            *G         20161110IMF1611101.TXT
MAKK6N049200201611D4               89831228800P3YK20161124000030RADIO;AM/FM,CD                M IMCTM CM1    FTTL  07070IMKDC 01 CPB  00005  K0                1621DES        000000000000 FUJITSU TEN (THAILAN                                                                                                                                            *G         20161110IMF1611101.TXT
