REC2016111120161111ISUZU                              3      
MAEDGN601887201702                 89828070100PV4D20170123000004SPEAKER ASM                   M IMCTM ST00000FTTL  07070IMCT  ST PTB  00004  DC                0000 SR        000000000000 FUJITSU TEN (THAILAN17042TU000100117044TU0001001                                                                                                                *P         20161111IMF161111A.TXT
MAEDGN601888201702                 89828070200PV4D20170123000002SPEAKER ASM                   M IMCTM ST00000FTTL  07070IMCT  ST PTB  00005  DC                0000 SR        000000000000 FUJITSU TEN (THAILAN17044TU0001001                                                                                                                              *P         20161111IMF161111A.TXT
MAEDGN601889201702                 89828070300PT4D20170123000002SPEAKER ASM                   M IMCTM ST00000FTTL  07070IMCT  ST PTB  00015  DC                0000 SR        000000000000 FUJITSU TEN (THAILAN17044TU0001001                                                                                                                              *P         20161111IMF161111A.TXT
