REC2016110220161103ISUZU                              43     
MDDDGN208887201611                D89821984430PT1D20161107000060RADIO;AM/FM,CD                M IMCTM S5NC06 FTTL  07070IMCT  S5 PTB  00005                    2230 SR        000000000000 FUJITSU TEN (THAILAN170KNDL0046046170KPAL0031031                                                                                                                *          20161102IMF1611025.TXT
MDDDGN208888201611                D89821984430PT1D20161108000030RADIO;AM/FM,CD                M IMCTM S5NC06 FTTL  07070IMCT  S5 PTB  00005                    1300 SR        000000000000 FUJITSU TEN (THAILAN170KNDL0047047                                                                                                                              *          20161102IMF1611025.TXT
MDDDGN208889201611                D89828070100PV1D20161107000180SPEAKER ASM                   M IMCTM S5MB11 FTTL  07070IMCT  S5 PTB  00004                    2230 SR        000000000000 FUJITSU TEN (THAILAN170KNDL0046046170KPAL0031031170KREL0015015                                                                                                  *          20161102IMF1611025.TXT
MDDDGN208890201611                D89828070100PV1D20161108000060SPEAKER ASM                   M IMCTM S5MB11 FTTL  07070IMCT  S5 PTB  00004                    0230 SR        000000000000 FUJITSU TEN (THAILAN170KRFL0012012                                                                                                                              *          20161102IMF1611025.TXT
MDDDGN208891201611                D89828070100PV1D20161108000120SPEAKER ASM                   M IMCTM S5MB11 FTTL  07070IMCT  S5 PTB  00004                    0400 SR        000000000000 FUJITSU TEN (THAILAN170KNBL0006006170KPGL0001001                                                                                                                *          20161102IMF1611025.TXT
MDDDGN208892201611                D89828070100PV1D20161108000120SPEAKER ASM                   M IMCTM S5MB11 FTTL  07070IMCT  S5 PTB  00004                    0900 SR        000000000000 FUJITSU TEN (THAILAN170KPEL0013013170KPLL0001001                                                                                                                *          20161102IMF1611025.TXT
MDDDGN208893201611                D89828070100PV1D20161108000120SPEAKER ASM                   M IMCTM S5MB11 FTTL  07070IMCT  S5 PTB  00004                    1300 SR        000000000000 FUJITSU TEN (THAILAN170KNDL0047047170KRJL0008008                                                                                                                *          20161102IMF1611025.TXT
MDDDGN208894201611                D89828070100PV1D20161108000060SPEAKER ASM                   M IMCTM S5MB11 FTTL  07070IMCT  S5 PTB  00004                    1600 SR        000000000000 FUJITSU TEN (THAILAN170KPEL0014014                                                                                                                              *          20161102IMF1611025.TXT
MDDDGN208895201611                D89828070100PV4D20161108000060SPEAKER ASM                   M IMCTM S0FL05 FTTL  07070IMCT  S0 PTB  00004                    0900 SR        000000000000 FUJITSU TEN (THAILAN170KPFU0002002                                                                                                                              *          20161102IMF1611025.TXT
MDDDGN208896201611                D89828070200PV1D20161107000060SPEAKER ASM                   M IMCTM S5MA14 FTTL  07070IMCT  S5 PTB  00005                    2230 SR        000000000000 FUJITSU TEN (THAILAN170KREL0015015                                                                                                                              *          20161102IMF1611025.TXT
MDDDGN208897201611                D89828070200PV1D20161108000060SPEAKER ASM                   M IMCTM S5MA14 FTTL  07070IMCT  S5 PTB  00005                    0230 SR        000000000000 FUJITSU TEN (THAILAN170KRFL0012012                                                                                                                              *          20161102IMF1611025.TXT
MDDDGN208898201611                D89828070200PV1D20161108000060SPEAKER ASM                   M IMCTM S5MA14 FTTL  07070IMCT  S5 PTB  00005                    1300 SR        000000000000 FUJITSU TEN (THAILAN170KRJL0008008                                                                                                                              *          20161102IMF1611025.TXT
MDDDGN208899201611                D89828070300PT1D20161107000060SPEAKER ASM                   M IMCTM S5NB042FTTL  07070IMCT  S5 PTB  00015                    2230 SR        000000000000 FUJITSU TEN (THAILAN170KREL0015015                                                                                                                              *          20161102IMF1611025.TXT
MDDDGN208900201611                D89828070300PT1D20161108000060SPEAKER ASM                   M IMCTM S5NB042FTTL  07070IMCT  S5 PTB  00015                    0230 SR        000000000000 FUJITSU TEN (THAILAN170KRFL0012012                                                                                                                              *          20161102IMF1611025.TXT
MDDDGN208901201611                D89828070300PT1D20161108000060SPEAKER ASM                   M IMCTM S5NB042FTTL  07070IMCT  S5 PTB  00015                    0400 SR        000000000000 FUJITSU TEN (THAILAN170KPGL0001001                                                                                                                              *          20161102IMF1611025.TXT
MDDDGN208902201611                D89828070300PT1D20161108000120SPEAKER ASM                   M IMCTM S5NB042FTTL  07070IMCT  S5 PTB  00015                    0900 SR        000000000000 FUJITSU TEN (THAILAN170KPEL0013013170KPLL0001001                                                                                                                *          20161102IMF1611025.TXT
MDDDGN208903201611                D89828070300PT1D20161108000060SPEAKER ASM                   M IMCTM S5NB042FTTL  07070IMCT  S5 PTB  00015                    1300 SR        000000000000 FUJITSU TEN (THAILAN170KRJL0008008                                                                                                                              *          20161102IMF1611025.TXT
MDDDGN208904201611                D89828070300PT1D20161108000060SPEAKER ASM                   M IMCTM S5NB042FTTL  07070IMCT  S5 PTB  00015                    1600 SR        000000000000 FUJITSU TEN (THAILAN170KPEL0014014                                                                                                                              *          20161102IMF1611025.TXT
MDDDGN208905201611                D89828070300PT4D20161108000060SPEAKER ASM                   M IMCTM S9TS02 FTTL  07070IMCT  S9 PTB  00015                    0900 SR        000000000000 FUJITSU TEN (THAILAN170KPFU0002002                                                                                                                              *          20161102IMF1611025.TXT
MDDDGN208906201611                D89829645900PT1D20161108000030RADIO;ASM DVD                 M IMCTM S5NC06 FTTL  07070IMCT  S5 CPB  00003                    0230 SR        000000000000 FUJITSU TEN (THAILAN170KRFL0012012                                                                                                                              *          20161102IMF1611025.TXT
MDDDGN208907201611                D89831228300PT1D20161108000030RADIO;AM/FM,CD                M IMCTM S5NC06 FTTL  07070IMCT  S5 CPB  00003                    0400 SR        000000000000 FUJITSU TEN (THAILAN170KPGL0001001                                                                                                                              *          20161102IMF1611025.TXT
MDDDGN208908201611                D89831228300PT1D20161108000030RADIO;AM/FM,CD                M IMCTM S5NC06 FTTL  07070IMCT  S5 CPB  00003                    0900 SR        000000000000 FUJITSU TEN (THAILAN170KPEL0013013                                                                                                                              *          20161102IMF1611025.TXT
MDDDGN208909201611                D89831228300PT1D20161108000030RADIO;AM/FM,CD                M IMCTM S5NC06 FTTL  07070IMCT  S5 CPB  00003                    1600 SR        000000000000 FUJITSU TEN (THAILAN170KPEL0014014                                                                                                                              *          20161102IMF1611025.TXT
MDDDGN208910201611                D89831228300PT4D20161108000030RADIO;AM/FM,CD                M IMCTM S9CO001FTTL  07070IMCT  S9 CPB  00003                    0900 SR        000000000000 FUJITSU TEN (THAILAN170KPFU0002002                                                                                                                              *          20161102IMF1611025.TXT
MDDDGN208911201611                D89831228400PT1D20161107000030RADIO;AM/FM,CD                M IMCTM S5NC06 FTTL  07070IMCT  S5 CPB  00003                    2230 SR        000000000000 FUJITSU TEN (THAILAN170KREL0015015                                                                                                                              *          20161102IMF1611025.TXT
MDEUGN204205201611                D89828070100PT4U20161107000030SPEAKER ASM                   M IMCTM S0FL05 FTTL  07070IMCT  S0 PTB  00004                    2230 SR        000000000000 FUJITSU TEN (THAILAN160B94U0013013                                                                                                                              *          20161102IMF1611025.TXT
MDEUGN204206201611                D89828070100PT4U20161108000030SPEAKER ASM                   M IMCTM S0FL05 FTTL  07070IMCT  S0 PTB  00004                    0230 SR        000000000000 FUJITSU TEN (THAILAN170C16U0013013                                                                                                                              *          20161102IMF1611025.TXT
MDEUGN204207201611                D89828070100PT4U20161108000060SPEAKER ASM                   M IMCTM S0FL05 FTTL  07070IMCT  S0 PTB  00004                    0400 SR        000000000000 FUJITSU TEN (THAILAN170C13U0012012170C16U0014014                                                                                                                *          20161102IMF1611025.TXT
MDEUGN204208201611                D89828070100PT4U20161108000030SPEAKER ASM                   M IMCTM S0FL05 FTTL  07070IMCT  S0 PTB  00004                    0900 SR        000000000000 FUJITSU TEN (THAILAN170C16U0015015                                                                                                                              *          20161102IMF1611025.TXT
MDEUGN204209201611                D89828070100PT4U20161108000030SPEAKER ASM                   M IMCTM S0FL05 FTTL  07070IMCT  S0 PTB  00004                    1300 SR        000000000000 FUJITSU TEN (THAILAN170C12U0002002                                                                                                                              *          20161102IMF1611025.TXT
MDEUGN204210201611                D89828070100PT4U20161108000030SPEAKER ASM                   M IMCTM S0FL05 FTTL  07070IMCT  S0 PTB  00004                    2100 SR        000000000000 FUJITSU TEN (THAILAN170C13U0013013                                                                                                                              *          20161102IMF1611025.TXT
MDEUGN204211201611                D89828070200PV4U20161107000030SPEAKER ASM                   M IMCTM S0FR05 FTTL  07070IMCT  S0 PTB  00005                    2230 SR        000000000000 FUJITSU TEN (THAILAN160B94U0013013                                                                                                                              *          20161102IMF1611025.TXT
MDEUGN204212201611                D89828070200PV4U20161108000030SPEAKER ASM                   M IMCTM S0FR05 FTTL  07070IMCT  S0 PTB  00005                    0230 SR        000000000000 FUJITSU TEN (THAILAN170C16U0013013                                                                                                                              *          20161102IMF1611025.TXT
MDEUGN204213201611                D89828070200PV4U20161108000060SPEAKER ASM                   M IMCTM S0FR05 FTTL  07070IMCT  S0 PTB  00005                    0400 SR        000000000000 FUJITSU TEN (THAILAN170C13U0012012170C16U0014014                                                                                                                *          20161102IMF1611025.TXT
MDEUGN204214201611                D89828070200PV4U20161108000030SPEAKER ASM                   M IMCTM S0FR05 FTTL  07070IMCT  S0 PTB  00005                    0900 SR        000000000000 FUJITSU TEN (THAILAN170C16U0015015                                                                                                                              *          20161102IMF1611025.TXT
MDEUGN204215201611                D89828070200PV4U20161108000030SPEAKER ASM                   M IMCTM S0FR05 FTTL  07070IMCT  S0 PTB  00005                    1300 SR        000000000000 FUJITSU TEN (THAILAN170C12U0002002                                                                                                                              *          20161102IMF1611025.TXT
MDEUGN204216201611                D89828070200PV4U20161108000030SPEAKER ASM                   M IMCTM S0FR05 FTTL  07070IMCT  S0 PTB  00005                    2100 SR        000000000000 FUJITSU TEN (THAILAN170C13U0013013                                                                                                                              *          20161102IMF1611025.TXT
MDEUGN204217201611                D89828070300PT4U20161107000030SPEAKER ASM                   M IMCTM S9TS02 FTTL  07070IMCT  S9 PTB  00015                    2230 SR        000000000000 FUJITSU TEN (THAILAN160B94U0013013                                                                                                                              *          20161102IMF1611025.TXT
MDEUGN204218201611                D89828070300PT4U20161108000030SPEAKER ASM                   M IMCTM S9TS02 FTTL  07070IMCT  S9 PTB  00015                    0230 SR        000000000000 FUJITSU TEN (THAILAN170C16U0013013                                                                                                                              *          20161102IMF1611025.TXT
MDEUGN204219201611                D89828070300PT4U20161108000060SPEAKER ASM                   M IMCTM S9TS02 FTTL  07070IMCT  S9 PTB  00015                    0400 SR        000000000000 FUJITSU TEN (THAILAN170C13U0012012170C16U0014014                                                                                                                *          20161102IMF1611025.TXT
MDEUGN204220201611                D89828070300PT4U20161108000030SPEAKER ASM                   M IMCTM S9TS02 FTTL  07070IMCT  S9 PTB  00015                    0900 SR        000000000000 FUJITSU TEN (THAILAN170C16U0015015                                                                                                                              *          20161102IMF1611025.TXT
MDEUGN204221201611                D89828070300PT4U20161108000030SPEAKER ASM                   M IMCTM S9TS02 FTTL  07070IMCT  S9 PTB  00015                    1300 SR        000000000000 FUJITSU TEN (THAILAN170C12U0002002                                                                                                                              *          20161102IMF1611025.TXT
MDEUGN204222201611                D89828070300PT4U20161108000030SPEAKER ASM                   M IMCTM S9TS02 FTTL  07070IMCT  S9 PTB  00015                    2100 SR        000000000000 FUJITSU TEN (THAILAN170C13U0013013                                                                                                                              *          20161102IMF1611025.TXT
