REC2016112520161125ISUZU                              50     
MDDDGN329507201612                D89821984430PT1D20161201000030RADIO;AM/FM,CD                M IMCTM S5NC06 FTTL  07070IMCT  S5 PTB  00005                    0900 SR        000000000000 FUJITSU TEN (THAILAN170KNCL0040040                                                                                                                              *          20161125IMF1611258.TXT
MDDDGN329508201612                D89821984430PT1D20161201000030RADIO;AM/FM,CD                M IMCTM S5NC06 FTTL  07070IMCT  S5 PTB  00005                    1300 SR        000000000000 FUJITSU TEN (THAILAN170KRAL0014014                                                                                                                              *          20161125IMF1611258.TXT
MDDDGN329509201612                D89828070100PV1D20161130000060SPEAKER ASM                   M IMCTM S5MB11 FTTL  07070IMCT  S5 PTB  00004                    2100 SR        000000000000 FUJITSU TEN (THAILAN170KPFL0060060                                                                                                                              *          20161125IMF1611258.TXT
MDDDGN329510201612                D89828070100PV1D20161130000060SPEAKER ASM                   M IMCTM S5MB11 FTTL  07070IMCT  S5 PTB  00004                    2230 SR        000000000000 FUJITSU TEN (THAILAN170KNBL0009009                                                                                                                              *          20161125IMF1611258.TXT
MDDDGN329511201612                D89828070100PV1D20161201000060SPEAKER ASM                   M IMCTM S5MB11 FTTL  07070IMCT  S5 PTB  00004                    0230 SR        000000000000 FUJITSU TEN (THAILAN170KRCL0005005                                                                                                                              *          20161125IMF1611258.TXT
MDDDGN329512201612                D89828070100PV1D20161201000060SPEAKER ASM                   M IMCTM S5MB11 FTTL  07070IMCT  S5 PTB  00004                    0400 SR        000000000000 FUJITSU TEN (THAILAN170KNAL0023023                                                                                                                              *          20161125IMF1611258.TXT
MDDDGN329513201612                D89828070100PV1D20161201000060SPEAKER ASM                   M IMCTM S5MB11 FTTL  07070IMCT  S5 PTB  00004                    0900 SR        000000000000 FUJITSU TEN (THAILAN170KNCL0040040                                                                                                                              *          20161125IMF1611258.TXT
MDDDGN329514201612                D89828070100PV1D20161201000120SPEAKER ASM                   M IMCTM S5MB11 FTTL  07070IMCT  S5 PTB  00004                    1300 SR        000000000000 FUJITSU TEN (THAILAN170KPHL0017017170KRAL0014014                                                                                                                *          20161125IMF1611258.TXT
MDDDGN329515201612                D89828070100PV1D20161201000060SPEAKER ASM                   M IMCTM S5MB11 FTTL  07070IMCT  S5 PTB  00004                    1600 SR        000000000000 FUJITSU TEN (THAILAN170KNAL0024024                                                                                                                              *          20161125IMF1611258.TXT
MDDDGN329516201612                D89828070200PV1D20161201000060SPEAKER ASM                   M IMCTM S5MA14 FTTL  07070IMCT  S5 PTB  00005                    0230 SR        000000000000 FUJITSU TEN (THAILAN170KRCL0005005                                                                                                                              *          20161125IMF1611258.TXT
MDDDGN329517201612                D89828070300PT1D20161130000060SPEAKER ASM                   M IMCTM S5NB082FTTL  07070IMCT  S5 PTB  00015                    2100 SR        000000000000 FUJITSU TEN (THAILAN170KPFL0060060                                                                                                                              *          20161125IMF1611258.TXT
MDDDGN329518201612                D89828070300PT1D20161201000060SPEAKER ASM                   M IMCTM S5NB082FTTL  07070IMCT  S5 PTB  00015                    0230 SR        000000000000 FUJITSU TEN (THAILAN170KRCL0005005                                                                                                                              *          20161125IMF1611258.TXT
MDDDGN329519201612                D89828070300PT1D20161201000060SPEAKER ASM                   M IMCTM S5NB082FTTL  07070IMCT  S5 PTB  00015                    1300 SR        000000000000 FUJITSU TEN (THAILAN170KPHL0017017                                                                                                                              *          20161125IMF1611258.TXT
MDDDGN329520201612                D89831228300PT1D20161130000030RADIO;AM/FM,CD                M IMCTM S5NC06 FTTL  07070IMCT  S5 CPB  00003                    2100 SR        000000000000 FUJITSU TEN (THAILAN170KPFL0060060                                                                                                                              *          20161125IMF1611258.TXT
MDDDGN329521201612                D89831228300PT1D20161201000030RADIO;AM/FM,CD                M IMCTM S5NC06 FTTL  07070IMCT  S5 CPB  00003                    1300 SR        000000000000 FUJITSU TEN (THAILAN170KPHL0017017                                                                                                                              *          20161125IMF1611258.TXT
MDDDGN329522201612                D89831228400PT1D20161201000030RADIO;AM/FM,CD                M IMCTM S5NC06 FTTL  07070IMCT  S5 CPB  00003                    0230 SR        000000000000 FUJITSU TEN (THAILAN170KRCL0005005                                                                                                                              *          20161125IMF1611258.TXT
MDDUGN255063201612                D89828070100PT4U20161130000030SPEAKER ASM                   M IMCTM S0FL05 FTTL  07070IMCT  S0 PTB  00004                    2230 SR        000000000000 FUJITSU TEN (THAILAN170KUAU0015015                                                                                                                              *          20161125IMF1611258.TXT
MDDUGN255064201612                D89828070200PV4U20161130000030SPEAKER ASM                   M IMCTM S0FR05 FTTL  07070IMCT  S0 PTB  00005                    2230 SR        000000000000 FUJITSU TEN (THAILAN170KUAU0015015                                                                                                                              *          20161125IMF1611258.TXT
MDDUGN255065201612                D89828070300PT4U20161130000030SPEAKER ASM                   M IMCTM S9TS02 FTTL  07070IMCT  S9 PTB  00015                    2230 SR        000000000000 FUJITSU TEN (THAILAN170KUAU0015015                                                                                                                              *          20161125IMF1611258.TXT
MDDUGN255066201612                D89831228400PT4U20161130000015RADIO;AM/FM,CD                M IMCTM S9CO001FTTL  07070IMCT  S9 CPB  00003                    2230 SR        000000000000 FUJITSU TEN (THAILAN170KUAU0015015                                                                                                                              *          20161125IMF1611258.TXT
MDEDGN245216201612                D89805293700PV1D20161130000030SPEAKER ASM                   M IMCTM S5MB11 FTTL  07070IMCT  S5 PTB  00003                    2230 SR        000000000000 FUJITSU TEN (THAILAN15030BL0018018                                                                                                                              *          20161125IMF1611258.TXT
MDEDGN245217201612                D89805294000PT1D20161130000030SPEAKER ASM                   M IMCTM S5NB082FTTL  07070IMCT  S5 PTB  00015                    2230 SR        000000000000 FUJITSU TEN (THAILAN15030BL0018018                                                                                                                              *          20161125IMF1611258.TXT
MDEDGN245218201612                D89805294100PV1D20161130000030SPEAKER ASM                   M IMCTM S5MA14 FTTL  07070IMCT  S5 PTB  00005                    2230 SR        000000000000 FUJITSU TEN (THAILAN15030BL0018018                                                                                                                              *          20161125IMF1611258.TXT
MDEDGN245219201612                D89828070100PV1D20161130000060SPEAKER ASM                   M IMCTM S5MB11 FTTL  07070IMCT  S5 PTB  00004                    2230 SR        000000000000 FUJITSU TEN (THAILAN17050ML000100117099ML0001001                                                                                                                *          20161125IMF1611258.TXT
MDEDGN245220201612                D89828070100PV1D20161201000060SPEAKER ASM                   M IMCTM S5MB11 FTTL  07070IMCT  S5 PTB  00004                    0900 SR        000000000000 FUJITSU TEN (THAILAN17040RL0001002                                                                                                                              *          20161125IMF1611258.TXT
MDEDGN245221201612                D89828070100PV1D20161201000030SPEAKER ASM                   M IMCTM S5MB11 FTTL  07070IMCT  S5 PTB  00004                    1300 SR        000000000000 FUJITSU TEN (THAILAN17085RL0009009                                                                                                                              *          20161125IMF1611258.TXT
MDEDGN245222201612                D89828070200PV1D20161130000030SPEAKER ASM                   M IMCTM S5MA14 FTTL  07070IMCT  S5 PTB  00005                    2230 SR        000000000000 FUJITSU TEN (THAILAN17099ML0001001                                                                                                                              *          20161125IMF1611258.TXT
MDEDGN245223201612                D89828070200PV1D20161201000060SPEAKER ASM                   M IMCTM S5MA14 FTTL  07070IMCT  S5 PTB  00005                    0900 SR        000000000000 FUJITSU TEN (THAILAN17040RL0001002                                                                                                                              *          20161125IMF1611258.TXT
MDEDGN245224201612                D89828070300PT1D20161130000030SPEAKER ASM                   M IMCTM S5NB082FTTL  07070IMCT  S5 PTB  00015                    2230 SR        000000000000 FUJITSU TEN (THAILAN17099ML0001001                                                                                                                              *          20161125IMF1611258.TXT
MDEDGN245225201612                D89828070300PT1D20161201000060SPEAKER ASM                   M IMCTM S5NB082FTTL  07070IMCT  S5 PTB  00015                    0900 SR        000000000000 FUJITSU TEN (THAILAN17040RL0001002                                                                                                                              *          20161125IMF1611258.TXT
MDEDGN245226201612                D89829645300PT1D20161130000015RADIO;ASM DVD                 M IMCTM S5NC06 FTTL  07070IMCT  S5 PTB  00003                    2230 SR        000000000000 FUJITSU TEN (THAILAN17099ML0001001                                                                                                                              *          20161125IMF1611258.TXT
MDEDGN245227201612                D89831229000PT1D20161201000030RADIO;AM/FM,CD                M IMCTM S5NC06 FTTL  07070IMCT  S5 PTB  00003                    0900 SR        000000000000 FUJITSU TEN (THAILAN17040RL0001002                                                                                                                              *          20161125IMF1611258.TXT
MDEUGN283101201612                D89828070100PT4U20161130000030SPEAKER ASM                   M IMCTM S0FL05 FTTL  07070IMCT  S0 PTB  00004                    2100 SR        000000000000 FUJITSU TEN (THAILAN160B95U0039039                                                                                                                              *          20161125IMF1611258.TXT
MDEUGN283102201612                D89828070100PT4U20161130000030SPEAKER ASM                   M IMCTM S0FL05 FTTL  07070IMCT  S0 PTB  00004                    2230 SR        000000000000 FUJITSU TEN (THAILAN170C03U0004004                                                                                                                              *          20161125IMF1611258.TXT
MDEUGN283103201612                D89828070100PT4U20161201000030SPEAKER ASM                   M IMCTM S0FL05 FTTL  07070IMCT  S0 PTB  00004                    0230 SR        000000000000 FUJITSU TEN (THAILAN170C09U0014014                                                                                                                              *          20161125IMF1611258.TXT
MDEUGN283104201612                D89828070100PT4U20161201000060SPEAKER ASM                   M IMCTM S0FL05 FTTL  07070IMCT  S0 PTB  00004                    0900 SR        000000000000 FUJITSU TEN (THAILAN170C04U0004004170C16U0047047                                                                                                                *          20161125IMF1611258.TXT
MDEUGN283105201612                D89828070100PT4U20161201000030SPEAKER ASM                   M IMCTM S0FL05 FTTL  07070IMCT  S0 PTB  00004                    1300 SR        000000000000 FUJITSU TEN (THAILAN170C09U0015015                                                                                                                              *          20161125IMF1611258.TXT
MDEUGN283106201612                D89828070100PT4U20161201000030SPEAKER ASM                   M IMCTM S0FL05 FTTL  07070IMCT  S0 PTB  00004                    1600 SR        000000000000 FUJITSU TEN (THAILAN160B95U0040040                                                                                                                              *          20161125IMF1611258.TXT
MDEUGN283107201612                D89828070200PV4U20161130000030SPEAKER ASM                   M IMCTM S0FR05 FTTL  07070IMCT  S0 PTB  00005                    2100 SR        000000000000 FUJITSU TEN (THAILAN160B95U0039039                                                                                                                              *          20161125IMF1611258.TXT
MDEUGN283108201612                D89828070200PV4U20161130000030SPEAKER ASM                   M IMCTM S0FR05 FTTL  07070IMCT  S0 PTB  00005                    2230 SR        000000000000 FUJITSU TEN (THAILAN170C03U0004004                                                                                                                              *          20161125IMF1611258.TXT
MDEUGN283109201612                D89828070200PV4U20161201000030SPEAKER ASM                   M IMCTM S0FR05 FTTL  07070IMCT  S0 PTB  00005                    0230 SR        000000000000 FUJITSU TEN (THAILAN170C09U0014014                                                                                                                              *          20161125IMF1611258.TXT
MDEUGN283110201612                D89828070200PV4U20161201000060SPEAKER ASM                   M IMCTM S0FR05 FTTL  07070IMCT  S0 PTB  00005                    0900 SR        000000000000 FUJITSU TEN (THAILAN170C04U0004004170C16U0047047                                                                                                                *          20161125IMF1611258.TXT
MDEUGN283111201612                D89828070200PV4U20161201000030SPEAKER ASM                   M IMCTM S0FR05 FTTL  07070IMCT  S0 PTB  00005                    1300 SR        000000000000 FUJITSU TEN (THAILAN170C09U0015015                                                                                                                              *          20161125IMF1611258.TXT
MDEUGN283112201612                D89828070200PV4U20161201000030SPEAKER ASM                   M IMCTM S0FR05 FTTL  07070IMCT  S0 PTB  00005                    1600 SR        000000000000 FUJITSU TEN (THAILAN160B95U0040040                                                                                                                              *          20161125IMF1611258.TXT
MDEUGN283113201612                D89828070300PT4U20161130000030SPEAKER ASM                   M IMCTM S9TS02 FTTL  07070IMCT  S9 PTB  00015                    2100 SR        000000000000 FUJITSU TEN (THAILAN160B95U0039039                                                                                                                              *          20161125IMF1611258.TXT
MDEUGN283114201612                D89828070300PT4U20161130000030SPEAKER ASM                   M IMCTM S9TS02 FTTL  07070IMCT  S9 PTB  00015                    2230 SR        000000000000 FUJITSU TEN (THAILAN170C03U0004004                                                                                                                              *          20161125IMF1611258.TXT
MDEUGN283115201612                D89828070300PT4U20161201000030SPEAKER ASM                   M IMCTM S9TS02 FTTL  07070IMCT  S9 PTB  00015                    0230 SR        000000000000 FUJITSU TEN (THAILAN170C09U0014014                                                                                                                              *          20161125IMF1611258.TXT
MDEUGN283116201612                D89828070300PT4U20161201000060SPEAKER ASM                   M IMCTM S9TS02 FTTL  07070IMCT  S9 PTB  00015                    0900 SR        000000000000 FUJITSU TEN (THAILAN170C04U0004004170C16U0047047                                                                                                                *          20161125IMF1611258.TXT
MDEUGN283117201612                D89828070300PT4U20161201000030SPEAKER ASM                   M IMCTM S9TS02 FTTL  07070IMCT  S9 PTB  00015                    1300 SR        000000000000 FUJITSU TEN (THAILAN170C09U0015015                                                                                                                              *          20161125IMF1611258.TXT
MDEUGN283118201612                D89828070300PT4U20161201000030SPEAKER ASM                   M IMCTM S9TS02 FTTL  07070IMCT  S9 PTB  00015                    1600 SR        000000000000 FUJITSU TEN (THAILAN160B95U0040040                                                                                                                              *          20161125IMF1611258.TXT
