REC2016112820161128ISUZU                              51     
MDDDGN334440201612                D89821984430PT1D20161202000060RADIO;AM/FM,CD                M IMCTM S5NC06 FTTL  07070IMCT  S5 PTB  00005                    0400 SR        000000000000 FUJITSU TEN (THAILAN170KNCL0041041170KRAL0015015                                                                                                                *          20161128IMF1611285.TXT
MDDDGN334441201612                D89821984430PT1D20161202000030RADIO;AM/FM,CD                M IMCTM S5NC06 FTTL  07070IMCT  S5 PTB  00005                    1300 SR        000000000000 FUJITSU TEN (THAILAN170KNEL0037037                                                                                                                              *          20161128IMF1611285.TXT
MDDDGN334442201612                D89828070100PV1D20161201000060SPEAKER ASM                   M IMCTM S5MB11 FTTL  07070IMCT  S5 PTB  00004                    2100 SR        000000000000 FUJITSU TEN (THAILAN170KRCL0006006                                                                                                                              *          20161128IMF1611285.TXT
MDDDGN334443201612                D89828070100PV1D20161201000060SPEAKER ASM                   M IMCTM S5MB11 FTTL  07070IMCT  S5 PTB  00004                    2230 SR        000000000000 FUJITSU TEN (THAILAN170KNBL0010010                                                                                                                              *          20161128IMF1611285.TXT
MDDDGN334444201612                D89828070100PV1D20161202000120SPEAKER ASM                   M IMCTM S5MB11 FTTL  07070IMCT  S5 PTB  00004                    0400 SR        000000000000 FUJITSU TEN (THAILAN170KNCL0041041170KRAL0015015                                                                                                                *          20161128IMF1611285.TXT
MDDDGN334445201612                D89828070100PV1D20161202000060SPEAKER ASM                   M IMCTM S5MB11 FTTL  07070IMCT  S5 PTB  00004                    0900 SR        000000000000 FUJITSU TEN (THAILAN170KRHL0011011                                                                                                                              *          20161128IMF1611285.TXT
MDDDGN334446201612                D89828070100PV1D20161202000060SPEAKER ASM                   M IMCTM S5MB11 FTTL  07070IMCT  S5 PTB  00004                    1300 SR        000000000000 FUJITSU TEN (THAILAN170KNEL0037037                                                                                                                              *          20161128IMF1611285.TXT
MDDDGN334447201612                D89828070100PV1D20161202000060SPEAKER ASM                   M IMCTM S5MB11 FTTL  07070IMCT  S5 PTB  00004                    2100 SR        000000000000 FUJITSU TEN (THAILAN170KRJL0009009                                                                                                                              *          20161128IMF1611285.TXT
MDDDGN334448201612                D89828070200PV1D20161201000060SPEAKER ASM                   M IMCTM S5MA14 FTTL  07070IMCT  S5 PTB  00005                    2100 SR        000000000000 FUJITSU TEN (THAILAN170KRCL0006006                                                                                                                              *          20161128IMF1611285.TXT
MDDDGN334449201612                D89828070200PV1D20161202000060SPEAKER ASM                   M IMCTM S5MA14 FTTL  07070IMCT  S5 PTB  00005                    0900 SR        000000000000 FUJITSU TEN (THAILAN170KRHL0011011                                                                                                                              *          20161128IMF1611285.TXT
MDDDGN334450201612                D89828070200PV1D20161202000060SPEAKER ASM                   M IMCTM S5MA14 FTTL  07070IMCT  S5 PTB  00005                    2100 SR        000000000000 FUJITSU TEN (THAILAN170KRJL0009009                                                                                                                              *          20161128IMF1611285.TXT
MDDDGN334451201612                D89828070300PT1D20161201000060SPEAKER ASM                   M IMCTM S5NB082FTTL  07070IMCT  S5 PTB  00015                    2100 SR        000000000000 FUJITSU TEN (THAILAN170KRCL0006006                                                                                                                              *          20161128IMF1611285.TXT
MDDDGN334452201612                D89828070300PT1D20161202000060SPEAKER ASM                   M IMCTM S5NB082FTTL  07070IMCT  S5 PTB  00015                    0900 SR        000000000000 FUJITSU TEN (THAILAN170KRHL0011011                                                                                                                              *          20161128IMF1611285.TXT
MDDDGN334453201612                D89828070300PT1D20161202000060SPEAKER ASM                   M IMCTM S5NB082FTTL  07070IMCT  S5 PTB  00015                    2100 SR        000000000000 FUJITSU TEN (THAILAN170KRJL0009009                                                                                                                              *          20161128IMF1611285.TXT
MDDDGN334454201612                D89831228400PT1D20161201000030RADIO;AM/FM,CD                M IMCTM S5NC06 FTTL  07070IMCT  S5 CPB  00003                    2100 SR        000000000000 FUJITSU TEN (THAILAN170KRCL0006006                                                                                                                              *          20161128IMF1611285.TXT
MDDUGN256439201612                D89828070100PT4U20161202000030SPEAKER ASM                   M IMCTM S0FL05 FTTL  07070IMCT  S0 PTB  00004                    1600 SR        000000000000 FUJITSU TEN (THAILAN170KUAU0016016                                                                                                                              *          20161128IMF1611285.TXT
MDDUGN256440201612                D89828070200PV4U20161202000030SPEAKER ASM                   M IMCTM S0FR05 FTTL  07070IMCT  S0 PTB  00005                    1600 SR        000000000000 FUJITSU TEN (THAILAN170KUAU0016016                                                                                                                              *          20161128IMF1611285.TXT
MDDUGN256441201612                D89828070300PT4U20161202000030SPEAKER ASM                   M IMCTM S9TS02 FTTL  07070IMCT  S9 PTB  00015                    1600 SR        000000000000 FUJITSU TEN (THAILAN170KUAU0016016                                                                                                                              *          20161128IMF1611285.TXT
MDDUGN256442201612                D89831228400PT4U20161202000015RADIO;AM/FM,CD                M IMCTM S9CO001FTTL  07070IMCT  S9 CPB  00003                    1600 SR        000000000000 FUJITSU TEN (THAILAN170KUAU0016016                                                                                                                              *          20161128IMF1611285.TXT
MDEDGN249309201612                D89805293700PV1D20161202000060SPEAKER ASM                   M IMCTM S5MB11 FTTL  07070IMCT  S5 PTB  00003                    1300 SR        000000000000 FUJITSU TEN (THAILAN15019FL013213215030BL0019019                                                                                                                *          20161128IMF1611285.TXT
MDEDGN249310201612                D89805293700PV4D20161202000030SPEAKER ASM                   M IMCTM S0FR05 FTTL  07070IMCT  S0 PTB  00003                    0400 SR        000000000000 FUJITSU TEN (THAILAN15021FU0005005                                                                                                                              *          20161128IMF1611285.TXT
MDEDGN249311201612                D89805294000PT1D20161202000030SPEAKER ASM                   M IMCTM S5NB082FTTL  07070IMCT  S5 PTB  00015                    1300 SR        000000000000 FUJITSU TEN (THAILAN15030BL0019019                                                                                                                              *          20161128IMF1611285.TXT
MDEDGN249312201612                D89805294000PT4D20161202000030SPEAKER ASM                   M IMCTM S9AFA25FTTL  07070IMCT  S9 PTB  00015                    0400 SR        000000000000 FUJITSU TEN (THAILAN15021FU0005005                                                                                                                              *          20161128IMF1611285.TXT
MDEDGN249313201612                D89805294100PV1D20161202000030SPEAKER ASM                   M IMCTM S5MA14 FTTL  07070IMCT  S5 PTB  00005                    1300 SR        000000000000 FUJITSU TEN (THAILAN15030BL0019019                                                                                                                              *          20161128IMF1611285.TXT
MDEDGN249314201612                D89805294100PV4D20161202000030SPEAKER ASM                   M IMCTM S0FR05 FTTL  07070IMCT  S0 PTB  00005                    0400 SR        000000000000 FUJITSU TEN (THAILAN15021FU0005005                                                                                                                              *          20161128IMF1611285.TXT
MDEDGN249315201612                D89828070100PV1D20161201000060SPEAKER ASM                   M IMCTM S5MB11 FTTL  07070IMCT  S5 PTB  00004                    2230 SR        000000000000 FUJITSU TEN (THAILAN17044ML000100117076ML0001001                                                                                                                *          20161128IMF1611285.TXT
MDEDGN249316201612                D89828070100PV1D20161202000060SPEAKER ASM                   M IMCTM S5MB11 FTTL  07070IMCT  S5 PTB  00004                    0230 SR        000000000000 FUJITSU TEN (THAILAN17046QL0002003                                                                                                                              *          20161128IMF1611285.TXT
MDEDGN249317201612                D89828070100PV1D20161202000030SPEAKER ASM                   M IMCTM S5MB11 FTTL  07070IMCT  S5 PTB  00004                    0900 SR        000000000000 FUJITSU TEN (THAILAN17085RL0010010                                                                                                                              *          20161128IMF1611285.TXT
MDEDGN249318201612                D89828070100PV1D20161202000030SPEAKER ASM                   M IMCTM S5MB11 FTTL  07070IMCT  S5 PTB  00004                    1300 SR        000000000000 FUJITSU TEN (THAILAN17085RL0011011                                                                                                                              *          20161128IMF1611285.TXT
MDEDGN249319201612                D89828070100PV4D20161201000030SPEAKER ASM                   M IMCTM S0FL05 FTTL  07070IMCT  S0 PTB  00004                    2100 SR        000000000000 FUJITSU TEN (THAILAN17050RU0001001                                                                                                                              *          20161128IMF1611285.TXT
MDEDGN249320201612                D89828070100PV4D20161202000030SPEAKER ASM                   M IMCTM S0FL05 FTTL  07070IMCT  S0 PTB  00004                    1300 SR        000000000000 FUJITSU TEN (THAILAN17050RU0002002                                                                                                                              *          20161128IMF1611285.TXT
MDEDGN249321201612                D89828070200PV1D20161202000060SPEAKER ASM                   M IMCTM S5MA14 FTTL  07070IMCT  S5 PTB  00005                    0230 SR        000000000000 FUJITSU TEN (THAILAN17046QL0002003                                                                                                                              *          20161128IMF1611285.TXT
MDEDGN249322201612                D89828070200PV4D20161201000030SPEAKER ASM                   M IMCTM S0FR05 FTTL  07070IMCT  S0 PTB  00005                    2100 SR        000000000000 FUJITSU TEN (THAILAN17050RU0001001                                                                                                                              *          20161128IMF1611285.TXT
MDEDGN249323201612                D89828070200PV4D20161202000030SPEAKER ASM                   M IMCTM S0FR05 FTTL  07070IMCT  S0 PTB  00005                    1300 SR        000000000000 FUJITSU TEN (THAILAN17050RU0002002                                                                                                                              *          20161128IMF1611285.TXT
MDEDGN249324201612                D89828070300PT1D20161202000060SPEAKER ASM                   M IMCTM S5NB082FTTL  07070IMCT  S5 PTB  00015                    0230 SR        000000000000 FUJITSU TEN (THAILAN17046QL0002003                                                                                                                              *          20161128IMF1611285.TXT
MDEDGN249325201612                D89828070300PT4D20161201000030SPEAKER ASM                   M IMCTM S9TS02 FTTL  07070IMCT  S9 PTB  00015                    2100 SR        000000000000 FUJITSU TEN (THAILAN17050RU0001001                                                                                                                              *          20161128IMF1611285.TXT
MDEDGN249326201612                D89828070300PT4D20161202000030SPEAKER ASM                   M IMCTM S9TS02 FTTL  07070IMCT  S9 PTB  00015                    1300 SR        000000000000 FUJITSU TEN (THAILAN17050RU0002002                                                                                                                              *          20161128IMF1611285.TXT
MDEDGN249327201612                D89829645400PT4D20161201000015RADIO;ASM DVD                 M IMCTM S9CO001FTTL  07070IMCT  S9 PTB  00003                    2100 SR        000000000000 FUJITSU TEN (THAILAN17050RU0001001                                                                                                                              *          20161128IMF1611285.TXT
MDEDGN249328201612                D89829645400PT4D20161202000015RADIO;ASM DVD                 M IMCTM S9CO001FTTL  07070IMCT  S9 PTB  00003                    1300 SR        000000000000 FUJITSU TEN (THAILAN17050RU0002002                                                                                                                              *          20161128IMF1611285.TXT
MDEUGN287711201612                D89828070100PT4U20161201000060SPEAKER ASM                   M IMCTM S0FL05 FTTL  07070IMCT  S0 PTB  00004                    2230 SR        000000000000 FUJITSU TEN (THAILAN160B94U0020020170C09U0016016                                                                                                                *          20161128IMF1611285.TXT
MDEUGN287712201612                D89828070100PT4U20161202000030SPEAKER ASM                   M IMCTM S0FL05 FTTL  07070IMCT  S0 PTB  00004                    0230 SR        000000000000 FUJITSU TEN (THAILAN160B95U0041041                                                                                                                              *          20161128IMF1611285.TXT
MDEUGN287713201612                D89828070100PT4U20161202000060SPEAKER ASM                   M IMCTM S0FL05 FTTL  07070IMCT  S0 PTB  00004                    0900 SR        000000000000 FUJITSU TEN (THAILAN170C03U0005005170C09U0017017                                                                                                                *          20161128IMF1611285.TXT
MDEUGN287714201612                D89828070100PT4U20161202000060SPEAKER ASM                   M IMCTM S0FL05 FTTL  07070IMCT  S0 PTB  00004                    1300 SR        000000000000 FUJITSU TEN (THAILAN170C04U0005005170C16U0048048                                                                                                                *          20161128IMF1611285.TXT
MDEUGN287715201612                D89828070200PV4U20161201000060SPEAKER ASM                   M IMCTM S0FR05 FTTL  07070IMCT  S0 PTB  00005                    2230 SR        000000000000 FUJITSU TEN (THAILAN160B94U0020020170C09U0016016                                                                                                                *          20161128IMF1611285.TXT
MDEUGN287716201612                D89828070200PV4U20161202000030SPEAKER ASM                   M IMCTM S0FR05 FTTL  07070IMCT  S0 PTB  00005                    0230 SR        000000000000 FUJITSU TEN (THAILAN160B95U0041041                                                                                                                              *          20161128IMF1611285.TXT
MDEUGN287717201612                D89828070200PV4U20161202000060SPEAKER ASM                   M IMCTM S0FR05 FTTL  07070IMCT  S0 PTB  00005                    0900 SR        000000000000 FUJITSU TEN (THAILAN170C03U0005005170C09U0017017                                                                                                                *          20161128IMF1611285.TXT
MDEUGN287718201612                D89828070200PV4U20161202000060SPEAKER ASM                   M IMCTM S0FR05 FTTL  07070IMCT  S0 PTB  00005                    1300 SR        000000000000 FUJITSU TEN (THAILAN170C04U0005005170C16U0048048                                                                                                                *          20161128IMF1611285.TXT
MDEUGN287719201612                D89828070300PT4U20161201000060SPEAKER ASM                   M IMCTM S9TS02 FTTL  07070IMCT  S9 PTB  00015                    2230 SR        000000000000 FUJITSU TEN (THAILAN160B94U0020020170C09U0016016                                                                                                                *          20161128IMF1611285.TXT
MDEUGN287720201612                D89828070300PT4U20161202000030SPEAKER ASM                   M IMCTM S9TS02 FTTL  07070IMCT  S9 PTB  00015                    0230 SR        000000000000 FUJITSU TEN (THAILAN160B95U0041041                                                                                                                              *          20161128IMF1611285.TXT
MDEUGN287721201612                D89828070300PT4U20161202000060SPEAKER ASM                   M IMCTM S9TS02 FTTL  07070IMCT  S9 PTB  00015                    0900 SR        000000000000 FUJITSU TEN (THAILAN170C03U0005005170C09U0017017                                                                                                                *          20161128IMF1611285.TXT
MDEUGN287722201612                D89828070300PT4U20161202000060SPEAKER ASM                   M IMCTM S9TS02 FTTL  07070IMCT  S9 PTB  00015                    1300 SR        000000000000 FUJITSU TEN (THAILAN170C04U0005005170C16U0048048                                                                                                                *          20161128IMF1611285.TXT
