REC2016110820161108ISUZU                              48     
MDDDGN238355201611                D89821984430PT1D20161111000030RADIO;AM/FM,CD                M IMCTM S5NC06 FTTL  07070IMCT  S5 PTB  00005                    2100 SR        000000000000 FUJITSU TEN (THAILAN170KNDL0051051                                                                                                                              *          20161108IMF1611085.TXT
MDDDGN238356201611                D89821984430PT1D20161112000030RADIO;AM/FM,CD                M IMCTM S5NC06 FTTL  07070IMCT  S5 PTB  00005                    0400 SR        000000000000 FUJITSU TEN (THAILAN170KNEL0027027                                                                                                                              *          20161108IMF1611085.TXT
MDDDGN238357201611                D89821984430PT1D20161112000030RADIO;AM/FM,CD                M IMCTM S5NC06 FTTL  07070IMCT  S5 PTB  00005                    0900 SR        000000000000 FUJITSU TEN (THAILAN170KNCL0031031                                                                                                                              *          20161108IMF1611085.TXT
MDDDGN238358201611                D89828070100PV1D20161111000060SPEAKER ASM                   M IMCTM S5MB11 FTTL  07070IMCT  S5 PTB  00004                    2100 SR        000000000000 FUJITSU TEN (THAILAN170KNDL0051051                                                                                                                              *          20161108IMF1611085.TXT
MDDDGN238359201611                D89828070100PV1D20161111000120SPEAKER ASM                   M IMCTM S5MB11 FTTL  07070IMCT  S5 PTB  00004                    2230 SR        000000000000 FUJITSU TEN (THAILAN170KPFL0046046170KRSL0024024                                                                                                                *          20161108IMF1611085.TXT
MDDDGN238360201611                D89828070100PV1D20161112000060SPEAKER ASM                   M IMCTM S5MB11 FTTL  07070IMCT  S5 PTB  00004                    0230 SR        000000000000 FUJITSU TEN (THAILAN170KRHL0006006                                                                                                                              *          20161108IMF1611085.TXT
MDDDGN238361201611                D89828070100PV1D20161112000120SPEAKER ASM                   M IMCTM S5MB11 FTTL  07070IMCT  S5 PTB  00004                    0400 SR        000000000000 FUJITSU TEN (THAILAN170KNEL0027027170KPEL0017017                                                                                                                *          20161108IMF1611085.TXT
MDDDGN238362201611                D89828070100PV1D20161112000120SPEAKER ASM                   M IMCTM S5MB11 FTTL  07070IMCT  S5 PTB  00004                    0900 SR        000000000000 FUJITSU TEN (THAILAN170KNCL0031031170KREL0016016                                                                                                                *          20161108IMF1611085.TXT
MDDDGN238363201611                D89828070100PV1D20161112000120SPEAKER ASM                   M IMCTM S5MB11 FTTL  07070IMCT  S5 PTB  00004                    1300 SR        000000000000 FUJITSU TEN (THAILAN170KPCL0017017170KPPL0005005                                                                                                                *          20161108IMF1611085.TXT
MDDDGN238364201611                D89828070100PV1D20161112000060SPEAKER ASM                   M IMCTM S5MB11 FTTL  07070IMCT  S5 PTB  00004                    1600 SR        000000000000 FUJITSU TEN (THAILAN170KNAL0011011                                                                                                                              *          20161108IMF1611085.TXT
MDDDGN238365201611                D89828070200PV1D20161111000060SPEAKER ASM                   M IMCTM S5MA14 FTTL  07070IMCT  S5 PTB  00005                    2230 SR        000000000000 FUJITSU TEN (THAILAN170KRSL0024024                                                                                                                              *          20161108IMF1611085.TXT
MDDDGN238366201611                D89828070200PV1D20161112000060SPEAKER ASM                   M IMCTM S5MA14 FTTL  07070IMCT  S5 PTB  00005                    0230 SR        000000000000 FUJITSU TEN (THAILAN170KRHL0006006                                                                                                                              *          20161108IMF1611085.TXT
MDDDGN238367201611                D89828070200PV1D20161112000060SPEAKER ASM                   M IMCTM S5MA14 FTTL  07070IMCT  S5 PTB  00005                    0900 SR        000000000000 FUJITSU TEN (THAILAN170KREL0016016                                                                                                                              *          20161108IMF1611085.TXT
MDDDGN238368201611                D89828070300PT1D20161111000120SPEAKER ASM                   M IMCTM S5NB042FTTL  07070IMCT  S5 PTB  00015                    2230 SR        000000000000 FUJITSU TEN (THAILAN170KPFL0046046170KRSL0024024                                                                                                                *          20161108IMF1611085.TXT
MDDDGN238369201611                D89828070300PT1D20161112000060SPEAKER ASM                   M IMCTM S5NB042FTTL  07070IMCT  S5 PTB  00015                    0230 SR        000000000000 FUJITSU TEN (THAILAN170KRHL0006006                                                                                                                              *          20161108IMF1611085.TXT
MDDDGN238370201611                D89828070300PT1D20161112000060SPEAKER ASM                   M IMCTM S5NB042FTTL  07070IMCT  S5 PTB  00015                    0400 SR        000000000000 FUJITSU TEN (THAILAN170KPEL0017017                                                                                                                              *          20161108IMF1611085.TXT
MDDDGN238371201611                D89828070300PT1D20161112000060SPEAKER ASM                   M IMCTM S5NB042FTTL  07070IMCT  S5 PTB  00015                    0900 SR        000000000000 FUJITSU TEN (THAILAN170KREL0016016                                                                                                                              *          20161108IMF1611085.TXT
MDDDGN238372201611                D89828070300PT1D20161112000120SPEAKER ASM                   M IMCTM S5NB042FTTL  07070IMCT  S5 PTB  00015                    1300 SR        000000000000 FUJITSU TEN (THAILAN170KPCL0017017170KPPL0005005                                                                                                                *          20161108IMF1611085.TXT
MDDDGN238373201611                D89831228300PT1D20161111000030RADIO;AM/FM,CD                M IMCTM S5NC06 FTTL  07070IMCT  S5 CPB  00003                    2230 SR        000000000000 FUJITSU TEN (THAILAN170KPFL0046046                                                                                                                              *          20161108IMF1611085.TXT
MDDDGN238374201611                D89831228300PT1D20161112000030RADIO;AM/FM,CD                M IMCTM S5NC06 FTTL  07070IMCT  S5 CPB  00003                    0400 SR        000000000000 FUJITSU TEN (THAILAN170KPEL0017017                                                                                                                              *          20161108IMF1611085.TXT
MDDDGN238375201611                D89831228300PT1D20161112000060RADIO;AM/FM,CD                M IMCTM S5NC06 FTTL  07070IMCT  S5 CPB  00003                    1300 SR        000000000000 FUJITSU TEN (THAILAN170KPCL0017017170KPPL0005005                                                                                                                *          20161108IMF1611085.TXT
MDDDGN238376201611                D89831228400PT1D20161112000030RADIO;AM/FM,CD                M IMCTM S5NC06 FTTL  07070IMCT  S5 CPB  00003                    0900 SR        000000000000 FUJITSU TEN (THAILAN170KREL0016016                                                                                                                              *          20161108IMF1611085.TXT
MDDUGN214955201611                D89828070100PT4U20161112000030SPEAKER ASM                   M IMCTM S0FL05 FTTL  07070IMCT  S0 PTB  00004                    1300 SR        000000000000 FUJITSU TEN (THAILAN170KUCU0025025                                                                                                                              *          20161108IMF1611085.TXT
MDDUGN214956201611                D89828070200PV4U20161112000030SPEAKER ASM                   M IMCTM S0FR05 FTTL  07070IMCT  S0 PTB  00005                    1300 SR        000000000000 FUJITSU TEN (THAILAN170KUCU0025025                                                                                                                              *          20161108IMF1611085.TXT
MDDUGN214957201611                D89828070300PT4U20161112000030SPEAKER ASM                   M IMCTM S9TS02 FTTL  07070IMCT  S9 PTB  00015                    1300 SR        000000000000 FUJITSU TEN (THAILAN170KUCU0025025                                                                                                                              *          20161108IMF1611085.TXT
MDDUGN214958201611                D89829093500PT4U20161112000015RADIO;ASM DVD (T              M IMCTM S9CO001FTTL  07070IMCT  S9 PTB  00003                    1300 SR        000000000000 FUJITSU TEN (THAILAN170KUCU0025025                                                                                                                              *          20161108IMF1611085.TXT
MDEDGN203013201611                D89828070100PV4D20161112000030SPEAKER ASM                   M IMCTM S0FL05 FTTL  07070IMCT  S0 PTB  00004                    0230 SR        000000000000 FUJITSU TEN (THAILAN17018SU0001001                                                                                                                              *          20161108IMF1611085.TXT
MDEDGN203014201611                D89828070100PV4D20161112000030SPEAKER ASM                   M IMCTM S0FL05 FTTL  07070IMCT  S0 PTB  00004                    0900 SR        000000000000 FUJITSU TEN (THAILAN17022SU0001001                                                                                                                              *          20161108IMF1611085.TXT
MDEDGN203015201611                D89828070200PV4D20161112000030SPEAKER ASM                   M IMCTM S0FR05 FTTL  07070IMCT  S0 PTB  00005                    0230 SR        000000000000 FUJITSU TEN (THAILAN17018SU0001001                                                                                                                              *          20161108IMF1611085.TXT
MDEDGN203016201611                D89828070200PV4D20161112000030SPEAKER ASM                   M IMCTM S0FR05 FTTL  07070IMCT  S0 PTB  00005                    0900 SR        000000000000 FUJITSU TEN (THAILAN17022SU0001001                                                                                                                              *          20161108IMF1611085.TXT
MDEDGN203017201611                D89828070300PT4D20161112000030SPEAKER ASM                   M IMCTM S9TS02 FTTL  07070IMCT  S9 PTB  00015                    0230 SR        000000000000 FUJITSU TEN (THAILAN17018SU0001001                                                                                                                              *          20161108IMF1611085.TXT
MDEDGN203018201611                D89828070300PT4D20161112000030SPEAKER ASM                   M IMCTM S9TS02 FTTL  07070IMCT  S9 PTB  00015                    0900 SR        000000000000 FUJITSU TEN (THAILAN17022SU0001001                                                                                                                              *          20161108IMF1611085.TXT
MDEDGN203019201611                D89831228400PT4D20161112000015RADIO;AM/FM,CD                M IMCTM S9CO001FTTL  07070IMCT  S9 CPB  00003                    0230 SR        000000000000 FUJITSU TEN (THAILAN17018SU0001001                                                                                                                              *          20161108IMF1611085.TXT
MDEUGN220853201611                D89828070100PT4U20161111000060SPEAKER ASM                   M IMCTM S0FL05 FTTL  07070IMCT  S0 PTB  00004                    2230 SR        000000000000 FUJITSU TEN (THAILAN160B95U0026026170C16U0023023                                                                                                                *          20161108IMF1611085.TXT
MDEUGN220854201611                D89828070100PT4U20161112000030SPEAKER ASM                   M IMCTM S0FL05 FTTL  07070IMCT  S0 PTB  00004                    0400 SR        000000000000 FUJITSU TEN (THAILAN170C16U0024024                                                                                                                              *          20161108IMF1611085.TXT
MDEUGN220855201611                D89828070100PT4U20161112000030SPEAKER ASM                   M IMCTM S0FL05 FTTL  07070IMCT  S0 PTB  00004                    0900 SR        000000000000 FUJITSU TEN (THAILAN170C13U0017017                                                                                                                              *          20161108IMF1611085.TXT
MDEUGN220856201611                D89828070100PT4U20161112000060SPEAKER ASM                   M IMCTM S0FL05 FTTL  07070IMCT  S0 PTB  00004                    1300 SR        000000000000 FUJITSU TEN (THAILAN170C12U0006006170C16U0025025                                                                                                                *          20161108IMF1611085.TXT
MDEUGN220857201611                D89828070100PT4U20161112000030SPEAKER ASM                   M IMCTM S0FL05 FTTL  07070IMCT  S0 PTB  00004                    1600 SR        000000000000 FUJITSU TEN (THAILAN160B95U0027027                                                                                                                              *          20161108IMF1611085.TXT
MDEUGN220858201611                D89828070200PV4U20161111000060SPEAKER ASM                   M IMCTM S0FR05 FTTL  07070IMCT  S0 PTB  00005                    2230 SR        000000000000 FUJITSU TEN (THAILAN160B95U0026026170C16U0023023                                                                                                                *          20161108IMF1611085.TXT
MDEUGN220859201611                D89828070200PV4U20161112000030SPEAKER ASM                   M IMCTM S0FR05 FTTL  07070IMCT  S0 PTB  00005                    0400 SR        000000000000 FUJITSU TEN (THAILAN170C16U0024024                                                                                                                              *          20161108IMF1611085.TXT
MDEUGN220860201611                D89828070200PV4U20161112000030SPEAKER ASM                   M IMCTM S0FR05 FTTL  07070IMCT  S0 PTB  00005                    0900 SR        000000000000 FUJITSU TEN (THAILAN170C13U0017017                                                                                                                              *          20161108IMF1611085.TXT
MDEUGN220861201611                D89828070200PV4U20161112000060SPEAKER ASM                   M IMCTM S0FR05 FTTL  07070IMCT  S0 PTB  00005                    1300 SR        000000000000 FUJITSU TEN (THAILAN170C12U0006006170C16U0025025                                                                                                                *          20161108IMF1611085.TXT
MDEUGN220862201611                D89828070200PV4U20161112000030SPEAKER ASM                   M IMCTM S0FR05 FTTL  07070IMCT  S0 PTB  00005                    1600 SR        000000000000 FUJITSU TEN (THAILAN160B95U0027027                                                                                                                              *          20161108IMF1611085.TXT
MDEUGN220863201611                D89828070300PT4U20161111000060SPEAKER ASM                   M IMCTM S9TS02 FTTL  07070IMCT  S9 PTB  00015                    2230 SR        000000000000 FUJITSU TEN (THAILAN160B95U0026026170C16U0023023                                                                                                                *          20161108IMF1611085.TXT
MDEUGN220864201611                D89828070300PT4U20161112000030SPEAKER ASM                   M IMCTM S9TS02 FTTL  07070IMCT  S9 PTB  00015                    0400 SR        000000000000 FUJITSU TEN (THAILAN170C16U0024024                                                                                                                              *          20161108IMF1611085.TXT
MDEUGN220865201611                D89828070300PT4U20161112000030SPEAKER ASM                   M IMCTM S9TS02 FTTL  07070IMCT  S9 PTB  00015                    0900 SR        000000000000 FUJITSU TEN (THAILAN170C13U0017017                                                                                                                              *          20161108IMF1611085.TXT
MDEUGN220866201611                D89828070300PT4U20161112000060SPEAKER ASM                   M IMCTM S9TS02 FTTL  07070IMCT  S9 PTB  00015                    1300 SR        000000000000 FUJITSU TEN (THAILAN170C12U0006006170C16U0025025                                                                                                                *          20161108IMF1611085.TXT
MDEUGN220867201611                D89828070300PT4U20161112000030SPEAKER ASM                   M IMCTM S9TS02 FTTL  07070IMCT  S9 PTB  00015                    1600 SR        000000000000 FUJITSU TEN (THAILAN160B95U0027027                                                                                                                              *          20161108IMF1611085.TXT
