REC2016112320161124ISUZU                              19     
MDEBGNT03973201611                D89828070100PT4B20161128000002SPEAKER ASM                   M IMCTM S7FL05 FTTL  07070IMCT  S7 PTB  00004                    2230 SR        000000000000 FUJITSU TEN (THAILAN170C46R0011   170C46R0011   Y161103015    Y161103015    000000                                                                              *R         20161123RDF1611235.TXT
MDEBGNT03974201611                D89828070200PV4B20161128000030SPEAKER ASM                   M IMCTM S7TS02 FTTL  07070IMCT  S7 PTB  00005                    2100 SR        000000000000 FUJITSU TEN (THAILAN160B94R0046   170C46R0011   Y161103001    Y161103015    000000                                                                              *R         20161123RDF1611235.TXT
MDEBGNT03975201611                D89828070300PT4B20161128000030SPEAKER ASM                   M IMCTM S7TS02 FTTL  07070IMCT  S7 PTB  00015                    2100 SR        000000000000 FUJITSU TEN (THAILAN160B94R0046   170C46R0011   Y161103001    Y161103015    000000                                                                              *R         20161123RDF1611235.TXT
MDEBGN204614201611                D89828070100PT4B20161128000028SPEAKER ASM                   M IMCTM S7FL05 FTTL  07070IMCT  S7 PTB  00004                    2100 SR        000000000000 FUJITSU TEN (THAILAN160B94R0046   170C46R0010   Y161103001    Y161103014    000000                                                                              *R         20161123RDF1611235.TXT
MDEFGNT11917201611                D89805293700PV4F20161129000010SPEAKER ASM                   M IMCTM S7FR05 FTTL  07070IMCT  S7 PTB  00003                    0900 SR        000000000000 FUJITSU TEN (THAILAN15029BR0122   15029BR0126   D161103201    D161103205    000000                                                                              *R         20161123RDF1611235.TXT
MDEFGNT11918201611                D89805294000PT4F20161129000010SPEAKER ASM                   M IMCTM S7TS02 FTTL  07070IMCT  S7 PTB  00015                    0900 SR        000000000000 FUJITSU TEN (THAILAN15029BR0122   15029BR0126   D161103201    D161103205    000000                                                                              *R         20161123RDF1611235.TXT
MDEFGNT11919201611                D89805294100PV4F20161129000010SPEAKER ASM                   M IMCTM S7FR05 FTTL  07070IMCT  S7 PTB  00005                    0900 SR        000000000000 FUJITSU TEN (THAILAN15029BR0122   15029BR0126   D161103201    D161103205    000000                                                                              *R         20161123RDF1611235.TXT
MDEFGNT11920201611                D89828070100PV4F20161129000018SPEAKER ASM                   M IMCTM S7FL05 FTTL  07070IMCT  S7 PTB  00004                    0900 SR        000000000000 FUJITSU TEN (THAILAN17024RR0008   17072QR0004   D161103207    D161103215    000000                                                                              *R         20161123RDF1611235.TXT
MDEFGNT11921201611                D89828070200PV4F20161129000019SPEAKER ASM                   M IMCTM S7TS02 FTTL  07070IMCT  S7 PTB  00005                    0900 SR        000000000000 FUJITSU TEN (THAILAN17072QR0003   17072QR0004   D161103206    D161103215    000000                                                                              *R         20161123RDF1611235.TXT
MDEFGNT11922201611                D89828070300PT4F20161129000014SPEAKER ASM                   M IMCTM S7TS02 FTTL  07070IMCT  S7 PTB  00015                    0900 SR        000000000000 FUJITSU TEN (THAILAN17024RR0010   17072QR0004   D161103209    D161103215    000000                                                                              *R         20161123RDF1611235.TXT
MDEFGNT11923201611                D89829645400PT4F20161129000003RADIO;ASM DVD                 M IMCTM S7TS03 FTTL  07070IMCT  S7 PTB  00003                    0900 SR        000000000000 FUJITSU TEN (THAILAN17072QR0003   17072QR0004   D161103206    D161103215    000000                                                                              *R         20161123RDF1611235.TXT
MDEFGNT11924201611                D89831228400PT4F20161129000003RADIO;AM/FM,CD                M IMCTM S7TS03 FTTL  07070IMCT  S7 CPB  00003                    0400 SR        000000000000 FUJITSU TEN (THAILAN17018SR0011   17018SR0013   C161103113    C161103115    000000                                                                              *R         20161123RDF1611235.TXT
MDEFGNT11925201611                D89831229000PT4F20161129000007RADIO;AM/FM,CD                M IMCTM S7TS03 FTTL  07070IMCT  S7 PTB  00003                    0900 SR        000000000000 FUJITSU TEN (THAILAN17024RR0008   17024RR0014   D161103207    D161103213    000000                                                                              *R         20161123RDF1611235.TXT
MDEFGN222064201611                D89828070100PV4F20161129000024SPEAKER ASM                   M IMCTM S7FL05 FTTL  07070IMCT  S7 PTB  00004                    0230 SR        000000000000 FUJITSU TEN (THAILAN17018SR0002   17018SR0010   C161103101    C161103112    000000                                                                              *R         20161123RDF1611235.TXT
MDEFGN222065201611                D89828070100PV4F20161129000008SPEAKER ASM                   M IMCTM S7FL05 FTTL  07070IMCT  S7 PTB  00004                    0400 SR        000000000000 FUJITSU TEN (THAILAN17018SR0011   17072QR0003   C161103113    D161103206    000000                                                                              *R         20161123RDF1611235.TXT
MDEFGN222066201611                D89828070200PV4F20161129000020SPEAKER ASM                   M IMCTM S7TS02 FTTL  07070IMCT  S7 PTB  00005                    0230 SR        000000000000 FUJITSU TEN (THAILAN17018SR0002   17018SR0011   C161103101    C161103113    000000                                                                              *R         20161123RDF1611235.TXT
MDEFGN222067201611                D89828070200PV4F20161129000005SPEAKER ASM                   M IMCTM S7TS02 FTTL  07070IMCT  S7 PTB  00005                    0400 SR        000000000000 FUJITSU TEN (THAILAN17018SR0012   17072QR0003   C161103114    D161103206    000000                                                                              *R         20161123RDF1611235.TXT
MDEFGN222068201611                D89828070300PT4F20161129000030SPEAKER ASM                   M IMCTM S7TS02 FTTL  07070IMCT  S7 PTB  00015                    0230 SR        000000000000 FUJITSU TEN (THAILAN17018SR0002   17024RR0009   C161103101    D161103208    000000                                                                              *R         20161123RDF1611235.TXT
MDEFGN222069201611                D89831228400PT4F20161129000009RADIO;AM/FM,CD                M IMCTM S7TS03 FTTL  07070IMCT  S7 CPB  00003                    0230 SR        000000000000 FUJITSU TEN (THAILAN17018SR0002   17018SR0010   C161103101    C161103112    000000                                                                              *R         20161123RDF1611235.TXT
