REC2016111120161111ISUZU                              3      
MAEDGN600374201702                 89828070100PV1D20170123000004SPEAKER ASM                   M IMCTM ST00000FTTL  07070IMCT  ST PTB  00004  DC                0000 SR        000000000000 FUJITSU TEN (THAILAN17043TL000100117045TL0001001                                                                                                                *P         20161111IMF1611118.TXT
MAEDGN600375201702                 89828070200PV1D20170123000002SPEAKER ASM                   M IMCTM ST00000FTTL  07070IMCT  ST PTB  00005  DC                0000 SR        000000000000 FUJITSU TEN (THAILAN17045TL0001001                                                                                                                              *P         20161111IMF1611118.TXT
MAEDGN600376201702                 89828070300PT1D20170123000002SPEAKER ASM                   M IMCTM ST00000FTTL  07070IMCT  ST PTB  00015  DC                0000 SR        000000000000 FUJITSU TEN (THAILAN17045TL0001001                                                                                                                              *P         20161111IMF1611118.TXT
