REC2016111720161117ISUZU                              3      
MACK6N000494201611          IMKDC  89805293700P3YK20161201000001SPEAKER ASM                   M IMCTM IMKDC  FTTL  07070IMKDC 07   PTB00003    K293F4210   001 0000 ES        000000000000 FUJITSU TEN (THAILAN                                                                                                                                            *          20161117IMF1611175.TXT
MACK6N000495201611          IMKDC  89805294000P3YK20161201000001SPEAKER ASM                   M IMCTM IMKDC  FTTL  07070IMKDC 07   PTB00015    K293F4210   001 0000 ES        000000000000 FUJITSU TEN (THAILAN                                                                                                                                            *          20161117IMF1611175.TXT
MACK6N000496201611          IMKDC  89828070300P3YK20161128000001SPEAKER ASM                   M IMCTM IMKDC  FTTL  07070IMKDC 07 PTB  00015    K293F4160   001 0000 ES        000000000000 FUJITSU TEN (THAILAN                                                                                                                                            *          20161117IMF1611175.TXT
