REC2016112220161122ISUZU                              14     
MDEFGNT10669201611                D89805293700PV4F20161128000014SPEAKER ASM                   M IMCTM S7FR05 FTTL  07070IMCT  S7 PTB  00003                    0900 SR        000000000000 FUJITSU TEN (THAILAN15019FR0114   15031BR0174   D161102902    D161102908    000000                                                                              *R         20161122RDF1611225.TXT
MDEFGNT10670201611                D89805294000PT4F20161128000006SPEAKER ASM                   M IMCTM S7TS02 FTTL  07070IMCT  S7 PTB  00015                    0900 SR        000000000000 FUJITSU TEN (THAILAN15031BR0172   15031BR0174   D161102906    D161102908    000000                                                                              *R         20161122RDF1611225.TXT
MDEFGNT10671201611                D89805294100PV4F20161128000006SPEAKER ASM                   M IMCTM S7FR05 FTTL  07070IMCT  S7 PTB  00005                    0900 SR        000000000000 FUJITSU TEN (THAILAN15031BR0172   15031BR0174   D161102906    D161102908    000000                                                                              *R         20161122RDF1611225.TXT
MDEFGNT10672201611                D89828070100PV4F20161128000012SPEAKER ASM                   M IMCTM S7FL05 FTTL  07070IMCT  S7 PTB  00004                    0900 SR        000000000000 FUJITSU TEN (THAILAN17031SR0009   17034RR0012   D161102910    D161102915    000000                                                                              *R         20161122RDF1611225.TXT
MDEFGNT10673201611                D89828070200PV4F20161128000006SPEAKER ASM                   M IMCTM S7TS02 FTTL  07070IMCT  S7 PTB  00005                    0900 SR        000000000000 FUJITSU TEN (THAILAN17031SR0008   17031SR0010   D161102909    D161102911    000000                                                                              *R         20161122RDF1611225.TXT
MDEFGNT10674201611                D89828070300PT4F20161128000001SPEAKER ASM                   M IMCTM S7TS02 FTTL  07070IMCT  S7 PTB  00015                    0900 SR        000000000000 FUJITSU TEN (THAILAN17031SR0010   17031SR0010   D161102911    D161102911    000000                                                                              *R         20161122RDF1611225.TXT
MDEFGNT10675201611                D89831229200PT4F20161126000002RADIO;AM/FM,CD                M IMCTM S7TS03 FTTL  07070IMCT  S7 PTB  00003                    0230 SR        000000000000 FUJITSU TEN (THAILAN17002QR0004   17002QR0005   H161102804    H161102813    000000                                                                              *R         20161122RDF1611225.TXT
MDEFGN220108201611                D89805293700PV4F20161126000006SPEAKER ASM                   M IMCTM S7FR05 FTTL  07070IMCT  S7 PTB  00003                    0230 SR        000000000000 FUJITSU TEN (THAILAN15019FR0113   15063CR0024   D161102901    H161102810    000000                                                                              *R         20161122RDF1611225.TXT
MDEFGN220109201611                D89828070100PV4F20161125000004SPEAKER ASM                   M IMCTM S7FL05 FTTL  07070IMCT  S7 PTB  00004                    2230 SR        000000000000 FUJITSU TEN (THAILAN17002QR0001   17002QR0002   H161102801    H161102802    000000                                                                              *R         20161122RDF1611225.TXT
MDEFGN220110201611                D89828070100PV4F20161126000024SPEAKER ASM                   M IMCTM S7FL05 FTTL  07070IMCT  S7 PTB  00004                    0230 SR        000000000000 FUJITSU TEN (THAILAN17031SR0008   17012RR0006   D161102909    H161102815    000000                                                                              *R         20161122RDF1611225.TXT
MDEFGN220111201611                D89828070200PV4F20161125000005SPEAKER ASM                   M IMCTM S7TS02 FTTL  07070IMCT  S7 PTB  00005                    2230 SR        000000000000 FUJITSU TEN (THAILAN17002QR0001   17002QR0003   H161102801    H161102803    000000                                                                              *R         20161122RDF1611225.TXT
MDEFGN220112201611                D89828070200PV4F20161126000005SPEAKER ASM                   M IMCTM S7TS02 FTTL  07070IMCT  S7 PTB  00005                    0230 SR        000000000000 FUJITSU TEN (THAILAN17002QR0003   17002QR0005   H161102803    H161102813    000000                                                                              *R         20161122RDF1611225.TXT
MDEFGN220113201611                D89828070300PT4F20161125000015SPEAKER ASM                   M IMCTM S7TS02 FTTL  07070IMCT  S7 PTB  00015                    2230 SR        000000000000 FUJITSU TEN (THAILAN17031SR0008   17002QR0005   D161102909    H161102813    000000                                                                              *R         20161122RDF1611225.TXT
MDEFGN220114201611                D89831229200PT4F20161125000003RADIO;AM/FM,CD                M IMCTM S7TS03 FTTL  07070IMCT  S7 PTB  00003                    2230 SR        000000000000 FUJITSU TEN (THAILAN17002QR0001   17002QR0003   H161102801    H161102803    000000                                                                              *R         20161122RDF1611225.TXT
