REC2016112920161129ISUZU                              54     
MDDDGN339124201612                D89821984430PT1D20161203000030RADIO;AM/FM,CD                M IMCTM S5NC06 FTTL  07070IMCT  S5 PTB  00005                    0400 SR        000000000000 FUJITSU TEN (THAILAN170KRAL0016016                                                                                                                              *          20161129IMF1611294.TXT
MDDDGN339125201612                D89821984430PT1D20161203000030RADIO;AM/FM,CD                M IMCTM S5NC06 FTTL  07070IMCT  S5 PTB  00005                    0900 SR        000000000000 FUJITSU TEN (THAILAN170KPAL0042042                                                                                                                              *          20161129IMF1611294.TXT
MDDDGN339126201612                D89821984430PT1D20161203000030RADIO;AM/FM,CD                M IMCTM S5NC06 FTTL  07070IMCT  S5 PTB  00005                    1300 SR        000000000000 FUJITSU TEN (THAILAN170KPAL0043043                                                                                                                              *          20161129IMF1611294.TXT
MDDDGN339127201612                D89828070100PV1D20161202000120SPEAKER ASM                   M IMCTM S5MB11 FTTL  07070IMCT  S5 PTB  00004                    2230 SR        000000000000 FUJITSU TEN (THAILAN170KPCL0024024170KRML0001001                                                                                                                *          20161129IMF1611294.TXT
MDDDGN339128201612                D89828070100PV1D20161203000060SPEAKER ASM                   M IMCTM S5MB11 FTTL  07070IMCT  S5 PTB  00004                    0230 SR        000000000000 FUJITSU TEN (THAILAN170KNAL0025025                                                                                                                              *          20161129IMF1611294.TXT
MDDDGN339129201612                D89828070100PV1D20161203000060SPEAKER ASM                   M IMCTM S5MB11 FTTL  07070IMCT  S5 PTB  00004                    0400 SR        000000000000 FUJITSU TEN (THAILAN170KRAL0016016                                                                                                                              *          20161129IMF1611294.TXT
MDDDGN339130201612                D89828070100PV1D20161203000120SPEAKER ASM                   M IMCTM S5MB11 FTTL  07070IMCT  S5 PTB  00004                    0900 SR        000000000000 FUJITSU TEN (THAILAN170KNBL0011011170KPAL0042042                                                                                                                *          20161129IMF1611294.TXT
MDDDGN339131201612                D89828070100PV1D20161203000060SPEAKER ASM                   M IMCTM S5MB11 FTTL  07070IMCT  S5 PTB  00004                    1300 SR        000000000000 FUJITSU TEN (THAILAN170KPAL0043043                                                                                                                              *          20161129IMF1611294.TXT
MDDDGN339132201612                D89828070100PV1D20161203000060SPEAKER ASM                   M IMCTM S5MB11 FTTL  07070IMCT  S5 PTB  00004                    1600 SR        000000000000 FUJITSU TEN (THAILAN170KRFL0028028                                                                                                                              *          20161129IMF1611294.TXT
MDDDGN339133201612                D89828070200PV1D20161202000060SPEAKER ASM                   M IMCTM S5MA14 FTTL  07070IMCT  S5 PTB  00005                    2230 SR        000000000000 FUJITSU TEN (THAILAN170KRML0001001                                                                                                                              *          20161129IMF1611294.TXT
MDDDGN339134201612                D89828070200PV1D20161203000060SPEAKER ASM                   M IMCTM S5MA14 FTTL  07070IMCT  S5 PTB  00005                    1600 SR        000000000000 FUJITSU TEN (THAILAN170KRFL0028028                                                                                                                              *          20161129IMF1611294.TXT
MDDDGN339135201612                D89828070300PT1D20161202000120SPEAKER ASM                   M IMCTM S5NB082FTTL  07070IMCT  S5 PTB  00015                    2230 SR        000000000000 FUJITSU TEN (THAILAN170KPCL0024024170KRML0001001                                                                                                                *          20161129IMF1611294.TXT
MDDDGN339136201612                D89828070300PT1D20161203000060SPEAKER ASM                   M IMCTM S5NB082FTTL  07070IMCT  S5 PTB  00015                    1600 SR        000000000000 FUJITSU TEN (THAILAN170KRFL0028028                                                                                                                              *          20161129IMF1611294.TXT
MDDDGN339137201612                D89829645900PT1D20161203000030RADIO;ASM DVD                 M IMCTM S5NC06 FTTL  07070IMCT  S5 CPB  00003                    1600 SR        000000000000 FUJITSU TEN (THAILAN170KRFL0028028                                                                                                                              *          20161129IMF1611294.TXT
MDDDGN339138201612                D89831228300PT1D20161202000030RADIO;AM/FM,CD                M IMCTM S5NC06 FTTL  07070IMCT  S5 CPB  00003                    2230 SR        000000000000 FUJITSU TEN (THAILAN170KPCL0024024                                                                                                                              *          20161129IMF1611294.TXT
MDDUGN257557201612                D89828070100PT4U20161203000030SPEAKER ASM                   M IMCTM S0FL05 FTTL  07070IMCT  S0 PTB  00004                    0900 SR        000000000000 FUJITSU TEN (THAILAN170KUAU0017017                                                                                                                              *          20161129IMF1611294.TXT
MDDUGN257558201612                D89828070100PT4U20161203000030SPEAKER ASM                   M IMCTM S0FL05 FTTL  07070IMCT  S0 PTB  00004                    1600 SR        000000000000 FUJITSU TEN (THAILAN170KUCU0033033                                                                                                                              *          20161129IMF1611294.TXT
MDDUGN257559201612                D89828070200PV4U20161203000030SPEAKER ASM                   M IMCTM S0FR05 FTTL  07070IMCT  S0 PTB  00005                    0900 SR        000000000000 FUJITSU TEN (THAILAN170KUAU0017017                                                                                                                              *          20161129IMF1611294.TXT
MDDUGN257560201612                D89828070200PV4U20161203000030SPEAKER ASM                   M IMCTM S0FR05 FTTL  07070IMCT  S0 PTB  00005                    1600 SR        000000000000 FUJITSU TEN (THAILAN170KUCU0033033                                                                                                                              *          20161129IMF1611294.TXT
MDDUGN257561201612                D89828070300PT4U20161203000030SPEAKER ASM                   M IMCTM S9TS02 FTTL  07070IMCT  S9 PTB  00015                    0900 SR        000000000000 FUJITSU TEN (THAILAN170KUAU0017017                                                                                                                              *          20161129IMF1611294.TXT
MDDUGN257562201612                D89828070300PT4U20161203000030SPEAKER ASM                   M IMCTM S9TS02 FTTL  07070IMCT  S9 PTB  00015                    1600 SR        000000000000 FUJITSU TEN (THAILAN170KUCU0033033                                                                                                                              *          20161129IMF1611294.TXT
MDDUGN257563201612                D89829093500PT4U20161203000015RADIO;ASM DVD (T              M IMCTM S9CO001FTTL  07070IMCT  S9 PTB  00003                    1600 SR        000000000000 FUJITSU TEN (THAILAN170KUCU0033033                                                                                                                              *          20161129IMF1611294.TXT
MDDUGN257564201612                D89831228400PT4U20161203000015RADIO;AM/FM,CD                M IMCTM S9CO001FTTL  07070IMCT  S9 CPB  00003                    0900 SR        000000000000 FUJITSU TEN (THAILAN170KUAU0017017                                                                                                                              *          20161129IMF1611294.TXT
MDEDGN254872201612                D89805293700PV1D20161202000030SPEAKER ASM                   M IMCTM S5MB11 FTTL  07070IMCT  S5 PTB  00003                    2230 SR        000000000000 FUJITSU TEN (THAILAN15019FL0133133                                                                                                                              *          20161129IMF1611294.TXT
MDEDGN254873201612                D89805293700PV1D20161203000030SPEAKER ASM                   M IMCTM S5MB11 FTTL  07070IMCT  S5 PTB  00003                    0400 SR        000000000000 FUJITSU TEN (THAILAN15010HL0002002                                                                                                                              *          20161129IMF1611294.TXT
MDEDGN254874201612                D89805293700PV1D20161203000030SPEAKER ASM                   M IMCTM S5MB11 FTTL  07070IMCT  S5 PTB  00003                    1300 SR        000000000000 FUJITSU TEN (THAILAN15031BL0001001                                                                                                                              *          20161129IMF1611294.TXT
MDEDGN254875201612                D89805293700PV4D20161203000030SPEAKER ASM                   M IMCTM S0FR05 FTTL  07070IMCT  S0 PTB  00003                    0900 SR        000000000000 FUJITSU TEN (THAILAN15029BU0007007                                                                                                                              *          20161129IMF1611294.TXT
MDEDGN254876201612                D89805294000PT1D20161203000030SPEAKER ASM                   M IMCTM S5NB082FTTL  07070IMCT  S5 PTB  00015                    0400 SR        000000000000 FUJITSU TEN (THAILAN15010HL0002002                                                                                                                              *          20161129IMF1611294.TXT
MDEDGN254877201612                D89805294000PT1D20161203000030SPEAKER ASM                   M IMCTM S5NB082FTTL  07070IMCT  S5 PTB  00015                    1300 SR        000000000000 FUJITSU TEN (THAILAN15031BL0001001                                                                                                                              *          20161129IMF1611294.TXT
MDEDGN254878201612                D89805294000PT4D20161203000030SPEAKER ASM                   M IMCTM S9AFA25FTTL  07070IMCT  S9 PTB  00015                    0900 SR        000000000000 FUJITSU TEN (THAILAN15029BU0007007                                                                                                                              *          20161129IMF1611294.TXT
MDEDGN254879201612                D89805294100PV1D20161203000030SPEAKER ASM                   M IMCTM S5MA14 FTTL  07070IMCT  S5 PTB  00005                    0400 SR        000000000000 FUJITSU TEN (THAILAN15010HL0002002                                                                                                                              *          20161129IMF1611294.TXT
MDEDGN254880201612                D89805294100PV1D20161203000030SPEAKER ASM                   M IMCTM S5MA14 FTTL  07070IMCT  S5 PTB  00005                    1300 SR        000000000000 FUJITSU TEN (THAILAN15031BL0001001                                                                                                                              *          20161129IMF1611294.TXT
MDEDGN254881201612                D89805294100PV4D20161203000030SPEAKER ASM                   M IMCTM S0FR05 FTTL  07070IMCT  S0 PTB  00005                    0900 SR        000000000000 FUJITSU TEN (THAILAN15029BU0007007                                                                                                                              *          20161129IMF1611294.TXT
MDEDGN254882201612                D89828070100PV1D20161202000030SPEAKER ASM                   M IMCTM S5MB11 FTTL  07070IMCT  S5 PTB  00004                    2230 SR        000000000000 FUJITSU TEN (THAILAN17016PL0001001                                                                                                                              *          20161129IMF1611294.TXT
MDEDGN254883201612                D89828070100PV1D20161203000060SPEAKER ASM                   M IMCTM S5MB11 FTTL  07070IMCT  S5 PTB  00004                    1300 SR        000000000000 FUJITSU TEN (THAILAN17085RL0012013                                                                                                                              *          20161129IMF1611294.TXT
MDEDGN254884201612                D89828070100PV4D20161202000030SPEAKER ASM                   M IMCTM S0FL05 FTTL  07070IMCT  S0 PTB  00004                    2230 SR        000000000000 FUJITSU TEN (THAILAN17068MU0001001                                                                                                                              *          20161129IMF1611294.TXT
MDEDGN254885201612                D89828070300PT1D20161202000030SPEAKER ASM                   M IMCTM S5NB082FTTL  07070IMCT  S5 PTB  00015                    2230 SR        000000000000 FUJITSU TEN (THAILAN17016PL0001001                                                                                                                              *          20161129IMF1611294.TXT
MDEDGN254886201612                D89828070300PT4D20161202000030SPEAKER ASM                   M IMCTM S9TS02 FTTL  07070IMCT  S9 PTB  00015                    2230 SR        000000000000 FUJITSU TEN (THAILAN17068MU0001001                                                                                                                              *          20161129IMF1611294.TXT
MDEDGN254887201612                D89829622400PT4D20161202000015RADIO;ASM DVD                 M IMCTM S22000 FTTL  07070IMCT  S2 PTB  00003                    2230 SR        000000000000 FUJITSU TEN (THAILAN17068MU0001001                                                                                                                              *          20161129IMF1611294.TXT
MDEUGN291970201612                D89828070100PT4U20161202000030SPEAKER ASM                   M IMCTM S0FL05 FTTL  07070IMCT  S0 PTB  00004                    2230 SR        000000000000 FUJITSU TEN (THAILAN160B95U0042042                                                                                                                              *          20161129IMF1611294.TXT
MDEUGN291971201612                D89828070100PT4U20161203000030SPEAKER ASM                   M IMCTM S0FL05 FTTL  07070IMCT  S0 PTB  00004                    0230 SR        000000000000 FUJITSU TEN (THAILAN160B95U0043043                                                                                                                              *          20161129IMF1611294.TXT
MDEUGN291972201612                D89828070100PT4U20161203000030SPEAKER ASM                   M IMCTM S0FL05 FTTL  07070IMCT  S0 PTB  00004                    0400 SR        000000000000 FUJITSU TEN (THAILAN160B94U0021021                                                                                                                              *          20161129IMF1611294.TXT
MDEUGN291973201612                D89828070100PT4U20161203000030SPEAKER ASM                   M IMCTM S0FL05 FTTL  07070IMCT  S0 PTB  00004                    0900 SR        000000000000 FUJITSU TEN (THAILAN170C09U0018018                                                                                                                              *          20161129IMF1611294.TXT
MDEUGN291974201612                D89828070100PT4U20161203000060SPEAKER ASM                   M IMCTM S0FL05 FTTL  07070IMCT  S0 PTB  00004                    1300 SR        000000000000 FUJITSU TEN (THAILAN160B95U0044044170C06U0002002                                                                                                                *          20161129IMF1611294.TXT
MDEUGN291975201612                D89828070200PV4U20161202000030SPEAKER ASM                   M IMCTM S0FR05 FTTL  07070IMCT  S0 PTB  00005                    2230 SR        000000000000 FUJITSU TEN (THAILAN160B95U0042042                                                                                                                              *          20161129IMF1611294.TXT
MDEUGN291976201612                D89828070200PV4U20161203000030SPEAKER ASM                   M IMCTM S0FR05 FTTL  07070IMCT  S0 PTB  00005                    0230 SR        000000000000 FUJITSU TEN (THAILAN160B95U0043043                                                                                                                              *          20161129IMF1611294.TXT
MDEUGN291977201612                D89828070200PV4U20161203000030SPEAKER ASM                   M IMCTM S0FR05 FTTL  07070IMCT  S0 PTB  00005                    0400 SR        000000000000 FUJITSU TEN (THAILAN160B94U0021021                                                                                                                              *          20161129IMF1611294.TXT
MDEUGN291978201612                D89828070200PV4U20161203000030SPEAKER ASM                   M IMCTM S0FR05 FTTL  07070IMCT  S0 PTB  00005                    0900 SR        000000000000 FUJITSU TEN (THAILAN170C09U0018018                                                                                                                              *          20161129IMF1611294.TXT
MDEUGN291979201612                D89828070200PV4U20161203000060SPEAKER ASM                   M IMCTM S0FR05 FTTL  07070IMCT  S0 PTB  00005                    1300 SR        000000000000 FUJITSU TEN (THAILAN160B95U0044044170C06U0002002                                                                                                                *          20161129IMF1611294.TXT
MDEUGN291980201612                D89828070300PT4U20161202000030SPEAKER ASM                   M IMCTM S9TS02 FTTL  07070IMCT  S9 PTB  00015                    2230 SR        000000000000 FUJITSU TEN (THAILAN160B95U0042042                                                                                                                              *          20161129IMF1611294.TXT
MDEUGN291981201612                D89828070300PT4U20161203000030SPEAKER ASM                   M IMCTM S9TS02 FTTL  07070IMCT  S9 PTB  00015                    0230 SR        000000000000 FUJITSU TEN (THAILAN160B95U0043043                                                                                                                              *          20161129IMF1611294.TXT
MDEUGN291982201612                D89828070300PT4U20161203000030SPEAKER ASM                   M IMCTM S9TS02 FTTL  07070IMCT  S9 PTB  00015                    0400 SR        000000000000 FUJITSU TEN (THAILAN160B94U0021021                                                                                                                              *          20161129IMF1611294.TXT
MDEUGN291983201612                D89828070300PT4U20161203000030SPEAKER ASM                   M IMCTM S9TS02 FTTL  07070IMCT  S9 PTB  00015                    0900 SR        000000000000 FUJITSU TEN (THAILAN170C09U0018018                                                                                                                              *          20161129IMF1611294.TXT
MDEUGN291984201612                D89828070300PT4U20161203000060SPEAKER ASM                   M IMCTM S9TS02 FTTL  07070IMCT  S9 PTB  00015                    1300 SR        000000000000 FUJITSU TEN (THAILAN160B95U0044044170C06U0002002                                                                                                                *          20161129IMF1611294.TXT
