REC2016112420161124ISUZU                              3      
MHEDGN601887201702                 89828070100PV4D20170206000004SPEAKER ASM                   M IMCTM ST00000FTTL  07070IMCT  ST PTB  00004 CDC                0000 SR        000000000000 FUJITSU TEN (THAILAN17042TU000100117044TU0001001                                                                                                                *  2017012300000000IMF1611241.TXT
MHEDGN601888201702                 89828070200PV4D20170206000002SPEAKER ASM                   M IMCTM ST00000FTTL  07070IMCT  ST PTB  00005 CDC                0000 SR        000000000000 FUJITSU TEN (THAILAN17044TU0001001                                                                                                                              *  2017012300000000IMF1611241.TXT
MHEDGN601889201702                 89828070300PT4D20170206000002SPEAKER ASM                   M IMCTM ST00000FTTL  07070IMCT  ST PTB  00015 CDC                0000 SR        000000000000 FUJITSU TEN (THAILAN17044TU0001001                                                                                                                              *  2017012300000000IMF1611241.TXT
