REC2016111620161116ISUZU                              7      
MDEBGNT03026201611                D89828070100PT4B20161119000022SPEAKER ASM                   M IMCTM S7FL05 FTTL  07070IMCT  S7 PTB  00004                    2100 SR        000000000000 FUJITSU TEN (THAILAN170C16R0010   170C46R0008   Y161102005    Y161102015    000000                                                                              *R         20161116RDF1611165.TXT
MDEBGNT03027201611                D89828070200PV4B20161119000020SPEAKER ASM                   M IMCTM S7TS02 FTTL  07070IMCT  S7 PTB  00005                    2100 SR        000000000000 FUJITSU TEN (THAILAN170C35R0002   170C46R0008   Y161102006    Y161102015    000000                                                                              *R         20161116RDF1611165.TXT
MDEBGNT03028201611                D89828070300PT4B20161119000015SPEAKER ASM                   M IMCTM S7TS02 FTTL  07070IMCT  S7 PTB  00015                    2100 SR        000000000000 FUJITSU TEN (THAILAN170C46R0001   170C46R0008   Y161102008    Y161102015    000000                                                                              *R         20161116RDF1611165.TXT
MDEBGNT03029201611                D89831229000PT4B20161119000002RADIO;AM/FM,CD                M IMCTM S7TS03 FTTL  07070IMCT  S7 PTB  00003                    2100 SR        000000000000 FUJITSU TEN (THAILAN170C35R0002   170C35R0003   Y161102006    Y161102007    000000                                                                              *R         20161116RDF1611165.TXT
MDEBGN203445201611                D89828070100PT4B20161119000008SPEAKER ASM                   M IMCTM S7FL05 FTTL  07070IMCT  S7 PTB  00004                    1300 SR        000000000000 FUJITSU TEN (THAILAN170C13R0003   170C16R0009   Y161102001    Y161102004    000000                                                                              *R         20161116RDF1611165.TXT
MDEBGN203446201611                D89828070200PV4B20161119000010SPEAKER ASM                   M IMCTM S7TS02 FTTL  07070IMCT  S7 PTB  00005                    1300 SR        000000000000 FUJITSU TEN (THAILAN170C13R0003   170C16R0010   Y161102001    Y161102005    000000                                                                              *R         20161116RDF1611165.TXT
MDEBGN203447201611                D89828070300PT4B20161119000015SPEAKER ASM                   M IMCTM S7TS02 FTTL  07070IMCT  S7 PTB  00015                    1300 SR        000000000000 FUJITSU TEN (THAILAN170C13R0003   170C46R0001   Y161102001    Y161102008    000000                                                                              *R         20161116RDF1611165.TXT
