REC2016110220161103ISUZU                              43     
MAKK6O129989201611D4               89805293700P3YK20161114000210SPEAKER ASM                   M IMCTM CM1    FTTL  07070IMKDC 01   PTB00003  K0                1621DES        000000000000 FUJITSU TEN (THAILAN                                                                                                                                            *G         20161102IMF1611026.TXT
MAKK6O129990201611D4               89805293700P3YK20161115000210SPEAKER ASM                   M IMCTM CM1    FTTL  07070IMKDC 01   PTB00003  K0                1621DES        000000000000 FUJITSU TEN (THAILAN                                                                                                                                            *G         20161102IMF1611026.TXT
MAKK6O129991201611D4               89805293700P3YK20161116000180SPEAKER ASM                   M IMCTM CM1    FTTL  07070IMKDC 01   PTB00003  K0                1621DES        000000000000 FUJITSU TEN (THAILAN                                                                                                                                            *G         20161102IMF1611026.TXT
MAKK6O129992201611D4               89805293700P3YK20161117000240SPEAKER ASM                   M IMCTM CM1    FTTL  07070IMKDC 01   PTB00003  K0                1621DES        000000000000 FUJITSU TEN (THAILAN                                                                                                                                            *G         20161102IMF1611026.TXT
MAKK6O129993201611D4               89805293700P3YK20161118000210SPEAKER ASM                   M IMCTM CM1    FTTL  07070IMKDC 01   PTB00003  K0                1621DES        000000000000 FUJITSU TEN (THAILAN                                                                                                                                            *G         20161102IMF1611026.TXT
MAKK6O129994201611D4               89805293700P3YK20161119000180SPEAKER ASM                   M IMCTM CM1    FTTL  07070IMKDC 01   PTB00003  K0                1621DES        000000000000 FUJITSU TEN (THAILAN                                                                                                                                            *G         20161102IMF1611026.TXT
MAKK6O129995201611D4               89805294000P3YK20161114000060SPEAKER ASM                   M IMCTM CM1    FTTL  07070IMKDC 01   PTB00015  K0                1621DES        000000000000 FUJITSU TEN (THAILAN                                                                                                                                            *G         20161102IMF1611026.TXT
MAKK6O129996201611D4               89805294000P3YK20161115000090SPEAKER ASM                   M IMCTM CM1    FTTL  07070IMKDC 01   PTB00015  K0                1621DES        000000000000 FUJITSU TEN (THAILAN                                                                                                                                            *G         20161102IMF1611026.TXT
MAKK6O129997201611D4               89805294000P3YK20161116000060SPEAKER ASM                   M IMCTM CM1    FTTL  07070IMKDC 01   PTB00015  K0                1621DES        000000000000 FUJITSU TEN (THAILAN                                                                                                                                            *G         20161102IMF1611026.TXT
MAKK6O129998201611D4               89805294000P3YK20161117000090SPEAKER ASM                   M IMCTM CM1    FTTL  07070IMKDC 01   PTB00015  K0                1621DES        000000000000 FUJITSU TEN (THAILAN                                                                                                                                            *G         20161102IMF1611026.TXT
MAKK6O129999201611D4               89805294000P3YK20161118000030SPEAKER ASM                   M IMCTM CM1    FTTL  07070IMKDC 01   PTB00015  K0                1621DES        000000000000 FUJITSU TEN (THAILAN                                                                                                                                            *G         20161102IMF1611026.TXT
MAKK6O130000201611D4               89805294000P3YK20161119000030SPEAKER ASM                   M IMCTM CM1    FTTL  07070IMKDC 01   PTB00015  K0                1621DES        000000000000 FUJITSU TEN (THAILAN                                                                                                                                            *G         20161102IMF1611026.TXT
MAKK6O130001201611D4               89805294100P3YK20161114000030SPEAKER ASM                   M IMCTM CM1    FTTL  07070IMKDC 01   PTB00005  K0                1621DES        000000000000 FUJITSU TEN (THAILAN                                                                                                                                            *G         20161102IMF1611026.TXT
MAKK6O130002201611D4               89805294100P3YK20161115000060SPEAKER ASM                   M IMCTM CM1    FTTL  07070IMKDC 01   PTB00005  K0                1621DES        000000000000 FUJITSU TEN (THAILAN                                                                                                                                            *G         20161102IMF1611026.TXT
MAKK6O130003201611D4               89805294100P3YK20161116000060SPEAKER ASM                   M IMCTM CM1    FTTL  07070IMKDC 01   PTB00005  K0                1621DES        000000000000 FUJITSU TEN (THAILAN                                                                                                                                            *G         20161102IMF1611026.TXT
MAKK6O130004201611D4               89805294100P3YK20161117000060SPEAKER ASM                   M IMCTM CM1    FTTL  07070IMKDC 01   PTB00005  K0                1621DES        000000000000 FUJITSU TEN (THAILAN                                                                                                                                            *G         20161102IMF1611026.TXT
MAKK6O130005201611D4               89805294100P3YK20161118000030SPEAKER ASM                   M IMCTM CM1    FTTL  07070IMKDC 01   PTB00005  K0                1621DES        000000000000 FUJITSU TEN (THAILAN                                                                                                                                            *G         20161102IMF1611026.TXT
MAKK6O130006201611D4               89805294200P3YK20161114000030SPEAKER ASM                   M IMCTM CM1    FTTL  07070IMKDC 01 X    00030  K0                1621DES        000000000000 FUJITSU TEN (THAILAN                                                                                                                                            *G         20161102IMF1611026.TXT
MAKK6O130007201611D4               89805294200P3YK20161119000030SPEAKER ASM                   M IMCTM CM1    FTTL  07070IMKDC 01 X    00030  K0                1621DES        000000000000 FUJITSU TEN (THAILAN                                                                                                                                            *G         20161102IMF1611026.TXT
MAKK6O130008201611D4               89806470400P3YK20161114000015SPEAKER ASM;RDO,              M IMCTM CM1    FTTL  07070IMKDC 01   PTB00015  K0                1621DES        000000000000 FUJITSU TEN (THAILAN                                                                                                                                            *G         20161102IMF1611026.TXT
MAKK6O130009201611D4               89806470400P3YK20161119000015SPEAKER ASM;RDO,              M IMCTM CM1    FTTL  07070IMKDC 01   PTB00015  K0                1621DES        000000000000 FUJITSU TEN (THAILAN                                                                                                                                            *G         20161102IMF1611026.TXT
MAKK6O130010201611D4               89825451200P3YK20161114000060SPEAKER ASM;ROOF              M IMCTM CM1    FTTL  07070IMKDC 01   PTB00015  K0                1621DES        000000000000 FUJITSU TEN (THAILAN                                                                                                                                            *G         20161102IMF1611026.TXT
MAKK6O130011201611D4               89825451200P3YK20161115000090SPEAKER ASM;ROOF              M IMCTM CM1    FTTL  07070IMKDC 01   PTB00015  K0                1621DES        000000000000 FUJITSU TEN (THAILAN                                                                                                                                            *G         20161102IMF1611026.TXT
MAKK6O130012201611D4               89825451200P3YK20161116000090SPEAKER ASM;ROOF              M IMCTM CM1    FTTL  07070IMKDC 01   PTB00015  K0                1621DES        000000000000 FUJITSU TEN (THAILAN                                                                                                                                            *G         20161102IMF1611026.TXT
MAKK6O130013201611D4               89825451200P3YK20161117000030SPEAKER ASM;ROOF              M IMCTM CM1    FTTL  07070IMKDC 01   PTB00015  K0                1621DES        000000000000 FUJITSU TEN (THAILAN                                                                                                                                            *G         20161102IMF1611026.TXT
MAKK6O130014201611D4               89825451200P3YK20161119000030SPEAKER ASM;ROOF              M IMCTM CM1    FTTL  07070IMKDC 01   PTB00015  K0                1621DES        000000000000 FUJITSU TEN (THAILAN                                                                                                                                            *G         20161102IMF1611026.TXT
MAKK6O130015201611D4               89828070100P3YK20161114000030SPEAKER ASM                   M IMCTM CM1    FTTL  07070IMKDC 01 PTB  00003  K0                1621DES        000000000000 FUJITSU TEN (THAILAN                                                                                                                                            *G         20161102IMF1611026.TXT
MAKK6O130016201611D4               89828070100P3YK20161115000090SPEAKER ASM                   M IMCTM CM1    FTTL  07070IMKDC 01 PTB  00003  K0                1621DES        000000000000 FUJITSU TEN (THAILAN                                                                                                                                            *G         20161102IMF1611026.TXT
MAKK6O130017201611D4               89828070100P3YK20161116000090SPEAKER ASM                   M IMCTM CM1    FTTL  07070IMKDC 01 PTB  00003  K0                1621DES        000000000000 FUJITSU TEN (THAILAN                                                                                                                                            *G         20161102IMF1611026.TXT
MAKK6O130018201611D4               89828070100P3YK20161117000060SPEAKER ASM                   M IMCTM CM1    FTTL  07070IMKDC 01 PTB  00003  K0                1621DES        000000000000 FUJITSU TEN (THAILAN                                                                                                                                            *G         20161102IMF1611026.TXT
MAKK6O130019201611D4               89828070100P3YK20161118000120SPEAKER ASM                   M IMCTM CM1    FTTL  07070IMKDC 01 PTB  00003  K0                1621DES        000000000000 FUJITSU TEN (THAILAN                                                                                                                                            *G         20161102IMF1611026.TXT
MAKK6O130020201611D4               89828070100P3YK20161119000120SPEAKER ASM                   M IMCTM CM1    FTTL  07070IMKDC 01 PTB  00003  K0                1621DES        000000000000 FUJITSU TEN (THAILAN                                                                                                                                            *G         20161102IMF1611026.TXT
MAKK6O130021201611D4               89828070200P3YK20161115000030SPEAKER ASM                   M IMCTM CM1    FTTL  07070IMKDC 01 PTB  00005  K0                1621DES        000000000000 FUJITSU TEN (THAILAN                                                                                                                                            *G         20161102IMF1611026.TXT
MAKK6O130022201611D4               89828070200P3YK20161116000060SPEAKER ASM                   M IMCTM CM1    FTTL  07070IMKDC 01 PTB  00005  K0                1621DES        000000000000 FUJITSU TEN (THAILAN                                                                                                                                            *G         20161102IMF1611026.TXT
MAKK6O130023201611D4               89828070200P3YK20161117000030SPEAKER ASM                   M IMCTM CM1    FTTL  07070IMKDC 01 PTB  00005  K0                1621DES        000000000000 FUJITSU TEN (THAILAN                                                                                                                                            *G         20161102IMF1611026.TXT
MAKK6O130024201611D4               89828070200P3YK20161118000060SPEAKER ASM                   M IMCTM CM1    FTTL  07070IMKDC 01 PTB  00005  K0                1621DES        000000000000 FUJITSU TEN (THAILAN                                                                                                                                            *G         20161102IMF1611026.TXT
MAKK6O130025201611D4               89828070200P3YK20161119000030SPEAKER ASM                   M IMCTM CM1    FTTL  07070IMKDC 01 PTB  00005  K0                1621DES        000000000000 FUJITSU TEN (THAILAN                                                                                                                                            *G         20161102IMF1611026.TXT
MAKK6O130026201611D4               89828070300P3YK20161115000060SPEAKER ASM                   M IMCTM CM1    FTTL  07070IMKDC 01 PTB  00015  K0                1621DES        000000000000 FUJITSU TEN (THAILAN                                                                                                                                            *G         20161102IMF1611026.TXT
MAKK6O130027201611D4               89828070300P3YK20161116000060SPEAKER ASM                   M IMCTM CM1    FTTL  07070IMKDC 01 PTB  00015  K0                1621DES        000000000000 FUJITSU TEN (THAILAN                                                                                                                                            *G         20161102IMF1611026.TXT
MAKK6O130028201611D4               89828070300P3YK20161117000030SPEAKER ASM                   M IMCTM CM1    FTTL  07070IMKDC 01 PTB  00015  K0                1621DES        000000000000 FUJITSU TEN (THAILAN                                                                                                                                            *G         20161102IMF1611026.TXT
MAKK6O130029201611D4               89828070300P3YK20161118000060SPEAKER ASM                   M IMCTM CM1    FTTL  07070IMKDC 01 PTB  00015  K0                1621DES        000000000000 FUJITSU TEN (THAILAN                                                                                                                                            *G         20161102IMF1611026.TXT
MAKK6O130030201611D4               89828070300P3YK20161119000090SPEAKER ASM                   M IMCTM CM1    FTTL  07070IMKDC 01 PTB  00015  K0                1621DES        000000000000 FUJITSU TEN (THAILAN                                                                                                                                            *G         20161102IMF1611026.TXT
MAKK6O130031201611D4               89831228800P3YK20161118000015RADIO;AM/FM,CD                M IMCTM CM1    FTTL  07070IMKDC 01 CPB  00005  K0                1621DES        000000000000 FUJITSU TEN (THAILAN                                                                                                                                            *G         20161102IMF1611026.TXT
