REC2016112420161124ISUZU                              46     
MDDDGN325026201611                D89821984430PT1D20161129000030RADIO;AM/FM,CD                M IMCTM S5NC06 FTTL  07070IMCT  S5 PTB  00005                    2230 SR        000000000000 FUJITSU TEN (THAILAN170KNCL0039039                                                                                                                              *          20161124IMF1611247.TXT
MDDDGN325027201611                D89821984430PT1D20161130000030RADIO;AM/FM,CD                M IMCTM S5NC06 FTTL  07070IMCT  S5 PTB  00005                    1300 SR        000000000000 FUJITSU TEN (THAILAN170KRAL0013013                                                                                                                              *          20161124IMF1611247.TXT
MDDDGN325028201611                D89825217900PT1D20161130000030RADIO;AM/FM,CD,D              M IMCTM S5NC06 FTTL  07070IMCT  S5 PTB  00003                    0230 SR        000000000000 FUJITSU TEN (THAILAN170KPKL0006006                                                                                                                              *          20161124IMF1611247.TXT
MDDDGN325029201611                D89828070100PV1D20161129000060SPEAKER ASM                   M IMCTM S5MB11 FTTL  07070IMCT  S5 PTB  00004                    2230 SR        000000000000 FUJITSU TEN (THAILAN170KNCL0039039                                                                                                                              *          20161124IMF1611247.TXT
MDDDGN325030201611                D89828070100PV1D20161130000060SPEAKER ASM                   M IMCTM S5MB11 FTTL  07070IMCT  S5 PTB  00004                    0230 SR        000000000000 FUJITSU TEN (THAILAN170KPKL0006006                                                                                                                              *          20161124IMF1611247.TXT
MDDDGN325031201611                D89828070100PV1D20161130000120SPEAKER ASM                   M IMCTM S5MB11 FTTL  07070IMCT  S5 PTB  00004                    0900 SR        000000000000 FUJITSU TEN (THAILAN170KNAL0022022170KRFL0027027                                                                                                                *          20161124IMF1611247.TXT
MDDDGN325032201611                D89828070100PV1D20161130000120SPEAKER ASM                   M IMCTM S5MB11 FTTL  07070IMCT  S5 PTB  00004                    1300 SR        000000000000 FUJITSU TEN (THAILAN170KPFL0059059170KRAL0013013                                                                                                                *          20161124IMF1611247.TXT
MDDDGN325033201611                D89828070200PV1D20161130000060SPEAKER ASM                   M IMCTM S5MA14 FTTL  07070IMCT  S5 PTB  00005                    0900 SR        000000000000 FUJITSU TEN (THAILAN170KRFL0027027                                                                                                                              *          20161124IMF1611247.TXT
MDDDGN325034201611                D89828070300PT1D20161130000060SPEAKER ASM                   M IMCTM S5NB082FTTL  07070IMCT  S5 PTB  00015                    0230 SR        000000000000 FUJITSU TEN (THAILAN170KPKL0006006                                                                                                                              *          20161124IMF1611247.TXT
MDDDGN325035201611                D89828070300PT1D20161130000060SPEAKER ASM                   M IMCTM S5NB082FTTL  07070IMCT  S5 PTB  00015                    0900 SR        000000000000 FUJITSU TEN (THAILAN170KRFL0027027                                                                                                                              *          20161124IMF1611247.TXT
MDDDGN325036201611                D89828070300PT1D20161130000060SPEAKER ASM                   M IMCTM S5NB082FTTL  07070IMCT  S5 PTB  00015                    1300 SR        000000000000 FUJITSU TEN (THAILAN170KPFL0059059                                                                                                                              *          20161124IMF1611247.TXT
MDDDGN325037201611                D89829645900PT1D20161130000030RADIO;ASM DVD                 M IMCTM S5NC06 FTTL  07070IMCT  S5 CPB  00003                    0900 SR        000000000000 FUJITSU TEN (THAILAN170KRFL0027027                                                                                                                              *          20161124IMF1611247.TXT
MDDDGN325038201611                D89831228300PT1D20161130000030RADIO;AM/FM,CD                M IMCTM S5NC06 FTTL  07070IMCT  S5 CPB  00003                    1300 SR        000000000000 FUJITSU TEN (THAILAN170KPFL0059059                                                                                                                              *          20161124IMF1611247.TXT
MDEDGN240088201611                D89805293700PV1D20161129000060SPEAKER ASM                   M IMCTM S5MB11 FTTL  07070IMCT  S5 PTB  00003                    2100 SR        000000000000 FUJITSU TEN (THAILAN15028BL0046047                                                                                                                              *          20161124IMF1611247.TXT
MDEDGN240089201611                D89805293700PV1D20161129000030SPEAKER ASM                   M IMCTM S5MB11 FTTL  07070IMCT  S5 PTB  00003                    2230 SR        000000000000 FUJITSU TEN (THAILAN15028BL0048048                                                                                                                              *          20161124IMF1611247.TXT
MDEDGN240090201611                D89805293700PV1D20161130000030SPEAKER ASM                   M IMCTM S5MB11 FTTL  07070IMCT  S5 PTB  00003                    1300 SR        000000000000 FUJITSU TEN (THAILAN15010HL0001001                                                                                                                              *          20161124IMF1611247.TXT
MDEDGN240091201611                D89805293700PV4D20161130000030SPEAKER ASM                   M IMCTM S0FR05 FTTL  07070IMCT  S0 PTB  00003                    1300 SR        000000000000 FUJITSU TEN (THAILAN15029BU0006006                                                                                                                              *          20161124IMF1611247.TXT
MDEDGN240092201611                D89805294000PT1D20161129000060SPEAKER ASM                   M IMCTM S5NB082FTTL  07070IMCT  S5 PTB  00015                    2100 SR        000000000000 FUJITSU TEN (THAILAN15028BL0046047                                                                                                                              *          20161124IMF1611247.TXT
MDEDGN240093201611                D89805294000PT1D20161129000030SPEAKER ASM                   M IMCTM S5NB082FTTL  07070IMCT  S5 PTB  00015                    2230 SR        000000000000 FUJITSU TEN (THAILAN15028BL0048048                                                                                                                              *          20161124IMF1611247.TXT
MDEDGN240094201611                D89805294000PT1D20161130000030SPEAKER ASM                   M IMCTM S5NB082FTTL  07070IMCT  S5 PTB  00015                    1300 SR        000000000000 FUJITSU TEN (THAILAN15010HL0001001                                                                                                                              *          20161124IMF1611247.TXT
MDEDGN240095201611                D89805294000PT4D20161130000030SPEAKER ASM                   M IMCTM S9AFA25FTTL  07070IMCT  S9 PTB  00015                    1300 SR        000000000000 FUJITSU TEN (THAILAN15029BU0006006                                                                                                                              *          20161124IMF1611247.TXT
MDEDGN240096201611                D89805294100PV1D20161129000060SPEAKER ASM                   M IMCTM S5MA14 FTTL  07070IMCT  S5 PTB  00005                    2100 SR        000000000000 FUJITSU TEN (THAILAN15028BL0046047                                                                                                                              *          20161124IMF1611247.TXT
MDEDGN240097201611                D89805294100PV1D20161129000030SPEAKER ASM                   M IMCTM S5MA14 FTTL  07070IMCT  S5 PTB  00005                    2230 SR        000000000000 FUJITSU TEN (THAILAN15028BL0048048                                                                                                                              *          20161124IMF1611247.TXT
MDEDGN240098201611                D89805294100PV1D20161130000030SPEAKER ASM                   M IMCTM S5MA14 FTTL  07070IMCT  S5 PTB  00005                    1300 SR        000000000000 FUJITSU TEN (THAILAN15010HL0001001                                                                                                                              *          20161124IMF1611247.TXT
MDEDGN240099201611                D89805294100PV4D20161130000030SPEAKER ASM                   M IMCTM S0FR05 FTTL  07070IMCT  S0 PTB  00005                    1300 SR        000000000000 FUJITSU TEN (THAILAN15029BU0006006                                                                                                                              *          20161124IMF1611247.TXT
MDEDGN240100201611                D89828070100PV1D20161129000060SPEAKER ASM                   M IMCTM S5MB11 FTTL  07070IMCT  S5 PTB  00004                    2230 SR        000000000000 FUJITSU TEN (THAILAN17034PL000100117083ML0001001                                                                                                                *          20161124IMF1611247.TXT
MDEDGN240101201611                D89828070100PV1D20161130000030SPEAKER ASM                   M IMCTM S5MB11 FTTL  07070IMCT  S5 PTB  00004                    0230 SR        000000000000 FUJITSU TEN (THAILAN17028RL0002002                                                                                                                              *          20161124IMF1611247.TXT
MDEDGN240102201611                D89828070100PV1D20161130000060SPEAKER ASM                   M IMCTM S5MB11 FTTL  07070IMCT  S5 PTB  00004                    0400 SR        000000000000 FUJITSU TEN (THAILAN17079NL0015016                                                                                                                              *          20161124IMF1611247.TXT
MDEDGN240103201611                D89828070100PV1D20161130000030SPEAKER ASM                   M IMCTM S5MB11 FTTL  07070IMCT  S5 PTB  00004                    1300 SR        000000000000 FUJITSU TEN (THAILAN17079QL0001001                                                                                                                              *          20161124IMF1611247.TXT
MDEDGN240104201611                D89828070100PV4D20161130000030SPEAKER ASM                   M IMCTM S0FL05 FTTL  07070IMCT  S0 PTB  00004                    0230 SR        000000000000 FUJITSU TEN (THAILAN17015NU0001001                                                                                                                              *          20161124IMF1611247.TXT
MDEDGN240105201611                D89828070200PV1D20161130000060SPEAKER ASM                   M IMCTM S5MA14 FTTL  07070IMCT  S5 PTB  00005                    0400 SR        000000000000 FUJITSU TEN (THAILAN17079NL0015016                                                                                                                              *          20161124IMF1611247.TXT
MDEDGN240106201611                D89828070200PV4D20161130000030SPEAKER ASM                   M IMCTM S0FR05 FTTL  07070IMCT  S0 PTB  00005                    0230 SR        000000000000 FUJITSU TEN (THAILAN17015NU0001001                                                                                                                              *          20161124IMF1611247.TXT
MDEDGN240107201611                D89828070300PT1D20161129000060SPEAKER ASM                   M IMCTM S5NB082FTTL  07070IMCT  S5 PTB  00015                    2230 SR        000000000000 FUJITSU TEN (THAILAN17034PL000100117083ML0001001                                                                                                                *          20161124IMF1611247.TXT
MDEDGN240108201611                D89828070300PT1D20161130000060SPEAKER ASM                   M IMCTM S5NB082FTTL  07070IMCT  S5 PTB  00015                    0400 SR        000000000000 FUJITSU TEN (THAILAN17079NL0015016                                                                                                                              *          20161124IMF1611247.TXT
MDEDGN240109201611                D89828070300PT4D20161130000030SPEAKER ASM                   M IMCTM S9TS02 FTTL  07070IMCT  S9 PTB  00015                    0230 SR        000000000000 FUJITSU TEN (THAILAN17015NU0001001                                                                                                                              *          20161124IMF1611247.TXT
MDEDGN240110201611                D89829645700PT1D20161130000030RADIO;ASM DVD                 M IMCTM S5NC06 FTTL  07070IMCT  S5 X    00003                    0400 SR        000000000000 FUJITSU TEN (THAILAN17079NL0015016                                                                                                                              *          20161124IMF1611247.TXT
MDEUGN279375201611                D89828070100PT4U20161129000030SPEAKER ASM                   M IMCTM S0FL05 FTTL  07070IMCT  S0 PTB  00004                    2230 SR        000000000000 FUJITSU TEN (THAILAN170C05U0001001                                                                                                                              *          20161124IMF1611247.TXT
MDEUGN279376201611                D89828070100PT4U20161130000030SPEAKER ASM                   M IMCTM S0FL05 FTTL  07070IMCT  S0 PTB  00004                    0230 SR        000000000000 FUJITSU TEN (THAILAN160B95U0037037                                                                                                                              *          20161124IMF1611247.TXT
MDEUGN279377201611                D89828070100PT4U20161130000060SPEAKER ASM                   M IMCTM S0FL05 FTTL  07070IMCT  S0 PTB  00004                    1300 SR        000000000000 FUJITSU TEN (THAILAN160B94U0019019160B95U0038038                                                                                                                *          20161124IMF1611247.TXT
MDEUGN279378201611                D89828070200PV4U20161129000030SPEAKER ASM                   M IMCTM S0FR05 FTTL  07070IMCT  S0 PTB  00005                    2230 SR        000000000000 FUJITSU TEN (THAILAN170C05U0001001                                                                                                                              *          20161124IMF1611247.TXT
MDEUGN279379201611                D89828070200PV4U20161130000030SPEAKER ASM                   M IMCTM S0FR05 FTTL  07070IMCT  S0 PTB  00005                    0230 SR        000000000000 FUJITSU TEN (THAILAN160B95U0037037                                                                                                                              *          20161124IMF1611247.TXT
MDEUGN279380201611                D89828070200PV4U20161130000060SPEAKER ASM                   M IMCTM S0FR05 FTTL  07070IMCT  S0 PTB  00005                    1300 SR        000000000000 FUJITSU TEN (THAILAN160B94U0019019160B95U0038038                                                                                                                *          20161124IMF1611247.TXT
MDEUGN279381201611                D89828070300PT4U20161129000030SPEAKER ASM                   M IMCTM S9TS02 FTTL  07070IMCT  S9 PTB  00015                    2230 SR        000000000000 FUJITSU TEN (THAILAN170C05U0001001                                                                                                                              *          20161124IMF1611247.TXT
MDEUGN279382201611                D89828070300PT4U20161130000030SPEAKER ASM                   M IMCTM S9TS02 FTTL  07070IMCT  S9 PTB  00015                    0230 SR        000000000000 FUJITSU TEN (THAILAN160B95U0037037                                                                                                                              *          20161124IMF1611247.TXT
MDEUGN279383201611                D89828070300PT4U20161130000060SPEAKER ASM                   M IMCTM S9TS02 FTTL  07070IMCT  S9 PTB  00015                    1300 SR        000000000000 FUJITSU TEN (THAILAN160B94U0019019160B95U0038038                                                                                                                *          20161124IMF1611247.TXT
MDEUGN279384201611                D89829093600PT4U20161129000015RADIO;ASM DVD (A              M IMCTM S9CO001FTTL  07070IMCT  S9 X    00003                    2230 SR        000000000000 FUJITSU TEN (THAILAN170C05U0001001                                                                                                                              *          20161124IMF1611247.TXT
