REC2016110120161101ISUZU                              6      
MDEBGNT00159201611                D89828070100PT4B20161105000014SPEAKER ASM                   M IMCTM S7FL05 FTTL  07070IMCT  S7 PTB  00004                    0230 SR        000000000000 FUJITSU TEN (THAILAN170C13R0001   170C41R0002   Y161100809    Y161100815    000000                                                                              *R         20161101RDF1611015.TXT
MDEBGNT00160201611                D89828070200PV4B20161105000010SPEAKER ASM                   M IMCTM S7TS02 FTTL  07070IMCT  S7 PTB  00005                    0230 SR        000000000000 FUJITSU TEN (THAILAN170C40R0001   170C41R0002   Y161100811    Y161100815    000000                                                                              *R         20161101RDF1611015.TXT
MDEBGNT00161201611                D89828070300PT4B20161104000030SPEAKER ASM                   M IMCTM S7TS02 FTTL  07070IMCT  S7 PTB  00015                    2230 SR        000000000000 FUJITSU TEN (THAILAN160B48R0020   170C41R0002   Y161100801    Y161100815    000000                                                                              *R         20161101RDF1611015.TXT
MDEBGNT00162201611                D89829100100PT4B20161105000004RADIO;ASM DVD                 M IMCTM S7TS03 FTTL  07070IMCT  S7 PTB  00003                    0230 SR        000000000000 FUJITSU TEN (THAILAN170C40R0001   170C41R0002   Y161100811    Y161100815    000000                                                                              *R         20161101RDF1611015.TXT
MDEBGN200012201611                D89828070100PT4B20161104000016SPEAKER ASM                   M IMCTM S7FL05 FTTL  07070IMCT  S7 PTB  00004                    2230 SR        000000000000 FUJITSU TEN (THAILAN160B48R0020   160B95R0022   Y161100801    Y161100808    000000                                                                              *R         20161101RDF1611015.TXT
MDEBGN200013201611                D89828070200PV4B20161104000020SPEAKER ASM                   M IMCTM S7TS02 FTTL  07070IMCT  S7 PTB  00005                    2230 SR        000000000000 FUJITSU TEN (THAILAN160B48R0020   170C13R0002   Y161100801    Y161100810    000000                                                                              *R         20161101RDF1611015.TXT
