REC2016121220161213ISUZU                              6      
MEEUGD800907000000                 89828070100PT4U20170105000002SPEAKER ASM                   M IMCTM ST00000FTTL  15090IMCT  ST PTB  00004  DC             PJC0830 SR        000000000000 FUJITSU TEN (THAILAN180B99U0003003                                                                                                                              *E         20161212IMF1612122.TXT
MEEUGD800908000000                 89828070100PT4U20170213000002SPEAKER ASM                   M IMCTM ST00000FTTL  15090IMCT  ST PTB  00004  DC             PJC0830 SR        000000000000 FUJITSU TEN (THAILAN180C60U0002002                                                                                                                              *E         20161212IMF1612122.TXT
MEEUGD800909000000                 89828070200PV4U20170105000002SPEAKER ASM                   M IMCTM ST00000FTTL  15090IMCT  ST PTB  00005  DC             PJC0830 SR        000000000000 FUJITSU TEN (THAILAN180B99U0003003                                                                                                                              *E         20161212IMF1612122.TXT
MEEUGD800910000000                 89828070200PV4U20170213000002SPEAKER ASM                   M IMCTM ST00000FTTL  15090IMCT  ST PTB  00005  DC             PJC0830 SR        000000000000 FUJITSU TEN (THAILAN180C60U0002002                                                                                                                              *E         20161212IMF1612122.TXT
MEEUGD800911000000                 89828070300PT4U20170105000002SPEAKER ASM                   M IMCTM ST00000FTTL  15090IMCT  ST PTB  00015  DC             PJC0830 SR        000000000000 FUJITSU TEN (THAILAN180B99U0003003                                                                                                                              *E         20161212IMF1612122.TXT
MEEUGD800912000000                 89828070300PT4U20170213000002SPEAKER ASM                   M IMCTM ST00000FTTL  15090IMCT  ST PTB  00015  DC             PJC0830 SR        000000000000 FUJITSU TEN (THAILAN180C60U0002002                                                                                                                              *E         20161212IMF1612122.TXT
