REC2016120920161209ISUZU                              6      
MHEDGN600374201702                 89828070100PV1D20170213000004SPEAKER ASM                   M IMCTM ST00000FTTL  07070IMCT  ST PTB  00004 CDC                0000 SR        000000000000 FUJITSU TEN (THAILAN17043TL000100117045TL0001001                                                                                                                *  2017020600000000IMF1612093.TXT
MHEDGN600375201702                 89828070200PV1D20170213000002SPEAKER ASM                   M IMCTM ST00000FTTL  07070IMCT  ST PTB  00005 CDC                0000 SR        000000000000 FUJITSU TEN (THAILAN17045TL0001001                                                                                                                              *  2017020600000000IMF1612093.TXT
MHEDGN600376201702                 89828070300PT1D20170213000002SPEAKER ASM                   M IMCTM ST00000FTTL  07070IMCT  ST PTB  00015 CDC                0000 SR        000000000000 FUJITSU TEN (THAILAN17045TL0001001                                                                                                                              *  2017020600000000IMF1612093.TXT
MHEDGN601887201702                 89828070100PV4D20170213000004SPEAKER ASM                   M IMCTM ST00000FTTL  07070IMCT  ST PTB  00004 CDC                0000 SR        000000000000 FUJITSU TEN (THAILAN17042TU000100117044TU0001001                                                                                                                *  2017020600000000IMF1612093.TXT
MHEDGN601888201702                 89828070200PV4D20170213000002SPEAKER ASM                   M IMCTM ST00000FTTL  07070IMCT  ST PTB  00005 CDC                0000 SR        000000000000 FUJITSU TEN (THAILAN17044TU0001001                                                                                                                              *  2017020600000000IMF1612093.TXT
MHEDGN601889201702                 89828070300PT4D20170213000002SPEAKER ASM                   M IMCTM ST00000FTTL  07070IMCT  ST PTB  00015 CDC                0000 SR        000000000000 FUJITSU TEN (THAILAN17044TU0001001                                                                                                                              *  2017020600000000IMF1612093.TXT
