REC2016122220161223ISUZU                              32     
MDDDGD285225201701                D89821984430PT1D20170104000030RADIO;AM/FM,CD                M IMCTM S5NC06 FTTL  07070IMCT  S5 PTB  00005                    1300 SR        000000000000 FUJITSU TEN (THAILAN170KPAL0056056                                                                                                                              *          20161222IMF1612228.TXT
MDDDGD285226201701                D89825217900PT1D20170104000030RADIO;AM/FM,CD,D              M IMCTM S5NC06 FTTL  07070IMCT  S5 PTB  00003                    1600 SR        000000000000 FUJITSU TEN (THAILAN170KPJL0023023                                                                                                                              *          20161222IMF1612228.TXT
MDDDGD285227201701                D89828070100PV1D20170104000060SPEAKER ASM                   M IMCTM S5MB11 FTTL  07070IMCT  S5 PTB  00004                    1300 SR        000000000000 FUJITSU TEN (THAILAN170KPAL0056056                                                                                                                              *          20161222IMF1612228.TXT
MDDDGD285228201701                D89828070100PV1D20170104000120SPEAKER ASM                   M IMCTM S5MB11 FTTL  07070IMCT  S5 PTB  00004                    1600 SR        000000000000 FUJITSU TEN (THAILAN170KPJL0023023170KRFL0035035                                                                                                                *          20161222IMF1612228.TXT
MDDDGD285229201701                D89828070100PV1D20170105000120SPEAKER ASM                   M IMCTM S5MB11 FTTL  07070IMCT  S5 PTB  00004                    0900 SR        000000000000 FUJITSU TEN (THAILAN170KPFL0087087170KREL0020020                                                                                                                *          20161222IMF1612228.TXT
MDDDGD285230201701                D89828070100PV1D20170105000120SPEAKER ASM                   M IMCTM S5MB11 FTTL  07070IMCT  S5 PTB  00004                    1300 SR        000000000000 FUJITSU TEN (THAILAN170KPFL0088089                                                                                                                              *          20161222IMF1612228.TXT
MDDDGD285231201701                D89828070200PV1D20170104000060SPEAKER ASM                   M IMCTM S5MA14 FTTL  07070IMCT  S5 PTB  00005                    1600 SR        000000000000 FUJITSU TEN (THAILAN170KRFL0035035                                                                                                                              *          20161222IMF1612228.TXT
MDDDGD285232201701                D89828070200PV1D20170105000060SPEAKER ASM                   M IMCTM S5MA14 FTTL  07070IMCT  S5 PTB  00005                    0900 SR        000000000000 FUJITSU TEN (THAILAN170KREL0020020                                                                                                                              *          20161222IMF1612228.TXT
MDDDGD285233201701                D89828070300PT1D20170104000120SPEAKER ASM                   M IMCTM S5NB082FTTL  07070IMCT  S5 PTB  00015                    1600 SR        000000000000 FUJITSU TEN (THAILAN170KPJL0023023170KRFL0035035                                                                                                                *          20161222IMF1612228.TXT
MDDDGD285234201701                D89828070300PT1D20170105000120SPEAKER ASM                   M IMCTM S5NB082FTTL  07070IMCT  S5 PTB  00015                    0900 SR        000000000000 FUJITSU TEN (THAILAN170KPFL0087087170KREL0020020                                                                                                                *          20161222IMF1612228.TXT
MDDDGD285235201701                D89828070300PT1D20170105000120SPEAKER ASM                   M IMCTM S5NB082FTTL  07070IMCT  S5 PTB  00015                    1300 SR        000000000000 FUJITSU TEN (THAILAN170KPFL0088089                                                                                                                              *          20161222IMF1612228.TXT
MDDDGD285236201701                D89829645900PT1D20170104000030RADIO;ASM DVD                 M IMCTM S5NC06 FTTL  07070IMCT  S5 CPB  00003                    1600 SR        000000000000 FUJITSU TEN (THAILAN170KRFL0035035                                                                                                                              *          20161222IMF1612228.TXT
MDDDGD285237201701                D89831228300PT1D20170105000030RADIO;AM/FM,CD                M IMCTM S5NC06 FTTL  07070IMCT  S5 CPB  00003                    0900 SR        000000000000 FUJITSU TEN (THAILAN170KPFL0087087                                                                                                                              *          20161222IMF1612228.TXT
MDDDGD285238201701                D89831228300PT1D20170105000060RADIO;AM/FM,CD                M IMCTM S5NC06 FTTL  07070IMCT  S5 CPB  00003                    1300 SR        000000000000 FUJITSU TEN (THAILAN170KPFL0088089                                                                                                                              *          20161222IMF1612228.TXT
MDDDGD285239201701                D89831228400PT1D20170105000030RADIO;AM/FM,CD                M IMCTM S5NC06 FTTL  07070IMCT  S5 CPB  00003                    0900 SR        000000000000 FUJITSU TEN (THAILAN170KREL0020020                                                                                                                              *          20161222IMF1612228.TXT
MDEDGD277914201701                D89805293700PV1D20170105000030SPEAKER ASM                   M IMCTM S5MB11 FTTL  07070IMCT  S5 PTB  00003                    1300 SR        000000000000 FUJITSU TEN (THAILAN15018FL0088088                                                                                                                              *          20161222IMF1612228.TXT
MDEDGD277915201701                D89805293700PV4D20170105000030SPEAKER ASM                   M IMCTM S0FR05 FTTL  07070IMCT  S0 PTB  00003                    0900 SR        000000000000 FUJITSU TEN (THAILAN15019FU0031031                                                                                                                              *          20161222IMF1612228.TXT
MDEDGD277916201701                D89805293700PV4D20170105000030SPEAKER ASM                   M IMCTM S0FR05 FTTL  07070IMCT  S0 PTB  00003                    1300 SR        000000000000 FUJITSU TEN (THAILAN15019FU0032032                                                                                                                              *          20161222IMF1612228.TXT
MDEDGD277917201701                D89828070100PV1D20170104000030SPEAKER ASM                   M IMCTM S5MB11 FTTL  07070IMCT  S5 PTB  00004                    1600 SR        000000000000 FUJITSU TEN (THAILAN17050ML0004004                                                                                                                              *          20161222IMF1612228.TXT
MDEDGD277918201701                D89828070100PV1D20170105000030SPEAKER ASM                   M IMCTM S5MB11 FTTL  07070IMCT  S5 PTB  00004                    0900 SR        000000000000 FUJITSU TEN (THAILAN17079QL0002002                                                                                                                              *          20161222IMF1612228.TXT
MDEDGD277919201701                D89828070100PV4D20170104000030SPEAKER ASM                   M IMCTM S0FL05 FTTL  07070IMCT  S0 PTB  00004                    1300 SR        000000000000 FUJITSU TEN (THAILAN17034PU0010010                                                                                                                              *          20161222IMF1612228.TXT
MDEDGD277920201701                D89828070200PV4D20170104000030SPEAKER ASM                   M IMCTM S0FR05 FTTL  07070IMCT  S0 PTB  00005                    1300 SR        000000000000 FUJITSU TEN (THAILAN17034PU0010010                                                                                                                              *          20161222IMF1612228.TXT
MDEDGD277921201701                D89828070300PT4D20170104000030SPEAKER ASM                   M IMCTM S9TS02 FTTL  07070IMCT  S9 PTB  00015                    1300 SR        000000000000 FUJITSU TEN (THAILAN17034PU0010010                                                                                                                              *          20161222IMF1612228.TXT
MDEUGD264679201701                D89828070100PT4U20170104000030SPEAKER ASM                   M IMCTM S0FL05 FTTL  07070IMCT  S0 PTB  00004                    1600 SR        000000000000 FUJITSU TEN (THAILAN170C08U0014014                                                                                                                              *          20161222IMF1612228.TXT
MDEUGD264680201701                D89828070100PT4U20170105000030SPEAKER ASM                   M IMCTM S0FL05 FTTL  07070IMCT  S0 PTB  00004                    0900 SR        000000000000 FUJITSU TEN (THAILAN170C03U0011011                                                                                                                              *          20161222IMF1612228.TXT
MDEUGD264681201701                D89828070100PT4U20170105000060SPEAKER ASM                   M IMCTM S0FL05 FTTL  07070IMCT  S0 PTB  00004                    1300 SR        000000000000 FUJITSU TEN (THAILAN170C03U0012013                                                                                                                              *          20161222IMF1612228.TXT
MDEUGD264682201701                D89828070200PV4U20170104000030SPEAKER ASM                   M IMCTM S0FR05 FTTL  07070IMCT  S0 PTB  00005                    1600 SR        000000000000 FUJITSU TEN (THAILAN170C08U0014014                                                                                                                              *          20161222IMF1612228.TXT
MDEUGD264683201701                D89828070200PV4U20170105000030SPEAKER ASM                   M IMCTM S0FR05 FTTL  07070IMCT  S0 PTB  00005                    0900 SR        000000000000 FUJITSU TEN (THAILAN170C03U0011011                                                                                                                              *          20161222IMF1612228.TXT
MDEUGD264684201701                D89828070200PV4U20170105000060SPEAKER ASM                   M IMCTM S0FR05 FTTL  07070IMCT  S0 PTB  00005                    1300 SR        000000000000 FUJITSU TEN (THAILAN170C03U0012013                                                                                                                              *          20161222IMF1612228.TXT
MDEUGD264685201701                D89828070300PT4U20170104000030SPEAKER ASM                   M IMCTM S9TS02 FTTL  07070IMCT  S9 PTB  00015                    1600 SR        000000000000 FUJITSU TEN (THAILAN170C08U0014014                                                                                                                              *          20161222IMF1612228.TXT
MDEUGD264686201701                D89828070300PT4U20170105000030SPEAKER ASM                   M IMCTM S9TS02 FTTL  07070IMCT  S9 PTB  00015                    0900 SR        000000000000 FUJITSU TEN (THAILAN170C03U0011011                                                                                                                              *          20161222IMF1612228.TXT
MDEUGD264687201701                D89828070300PT4U20170105000060SPEAKER ASM                   M IMCTM S9TS02 FTTL  07070IMCT  S9 PTB  00015                    1300 SR        000000000000 FUJITSU TEN (THAILAN170C03U0012013                                                                                                                              *          20161222IMF1612228.TXT
