REC2016121220161213ISUZU                              52     
MDDDGD243348201612                D89821984430PT1D20161216000030RADIO;AM/FM,CD                M IMCTM S5NC06 FTTL  07070IMCT  S5 PTB  00005                    1300 SR        000000000000 FUJITSU TEN (THAILAN170KNEL0042042                                                                                                                              *          20161212IMF1612123.TXT
MDDDGD243349201612                D89828070100PV1D20161216000060SPEAKER ASM                   M IMCTM S5MB11 FTTL  07070IMCT  S5 PTB  00004                    0230 SR        000000000000 FUJITSU TEN (THAILAN170KPFL0078078                                                                                                                              *          20161212IMF1612123.TXT
MDDDGD243350201612                D89828070100PV1D20161216000060SPEAKER ASM                   M IMCTM S5MB11 FTTL  07070IMCT  S5 PTB  00004                    0900 SR        000000000000 FUJITSU TEN (THAILAN170KNBL0013013                                                                                                                              *          20161212IMF1612123.TXT
MDDDGD243351201612                D89828070100PV1D20161216000060SPEAKER ASM                   M IMCTM S5MB11 FTTL  07070IMCT  S5 PTB  00004                    1300 SR        000000000000 FUJITSU TEN (THAILAN170KNEL0042042                                                                                                                              *          20161212IMF1612123.TXT
MDDDGD243352201612                D89828070300PT1D20161216000060SPEAKER ASM                   M IMCTM S5NB082FTTL  07070IMCT  S5 PTB  00015                    0230 SR        000000000000 FUJITSU TEN (THAILAN170KPFL0078078                                                                                                                              *          20161212IMF1612123.TXT
MDDDGD243353201612                D89831228300PT1D20161216000030RADIO;AM/FM,CD                M IMCTM S5NC06 FTTL  07070IMCT  S5 CPB  00003                    0230 SR        000000000000 FUJITSU TEN (THAILAN170KPFL0078078                                                                                                                              *          20161212IMF1612123.TXT
MDDUGD207137201612                D89828070100PT4U20161215000030SPEAKER ASM                   M IMCTM S0FL05 FTTL  07070IMCT  S0 PTB  00004                    2230 SR        000000000000 FUJITSU TEN (THAILAN170KUAU0022022                                                                                                                              *          20161212IMF1612123.TXT
MDDUGD207138201612                D89828070200PV4U20161215000030SPEAKER ASM                   M IMCTM S0FR05 FTTL  07070IMCT  S0 PTB  00005                    2230 SR        000000000000 FUJITSU TEN (THAILAN170KUAU0022022                                                                                                                              *          20161212IMF1612123.TXT
MDDUGD207139201612                D89828070300PT4U20161215000030SPEAKER ASM                   M IMCTM S9TS02 FTTL  07070IMCT  S9 PTB  00015                    2230 SR        000000000000 FUJITSU TEN (THAILAN170KUAU0022022                                                                                                                              *          20161212IMF1612123.TXT
MDDUGD207140201612                D89831228400PT4U20161215000015RADIO;AM/FM,CD                M IMCTM S9CO001FTTL  07070IMCT  S9 CPB  00003                    2230 SR        000000000000 FUJITSU TEN (THAILAN170KUAU0022022                                                                                                                              *          20161212IMF1612123.TXT
MDEDGD233902201612                D89828070100PV1D20161215000150SPEAKER ASM                   M IMCTM S5MB11 FTTL  07070IMCT  S5 PTB  00004                    2230 SR        000000000000 FUJITSU TEN (THAILAN17009ML000100217053NL000300317068ML000100117083ML0002002                                                                                    *          20161212IMF1612123.TXT
MDEDGD233903201612                D89828070100PV1D20161216000030SPEAKER ASM                   M IMCTM S5MB11 FTTL  07070IMCT  S5 PTB  00004                    0230 SR        000000000000 FUJITSU TEN (THAILAN17083ML0003003                                                                                                                              *          20161212IMF1612123.TXT
MDEDGD233904201612                D89828070100PV1D20161216000090SPEAKER ASM                   M IMCTM S5MB11 FTTL  07070IMCT  S5 PTB  00004                    0400 SR        000000000000 FUJITSU TEN (THAILAN17015NL000100217099ML0002002                                                                                                                *          20161212IMF1612123.TXT
MDEDGD233905201612                D89828070100PV1D20161216000060SPEAKER ASM                   M IMCTM S5MB11 FTTL  07070IMCT  S5 PTB  00004                    0900 SR        000000000000 FUJITSU TEN (THAILAN17023NL0003004                                                                                                                              *          20161212IMF1612123.TXT
MDEDGD233906201612                D89828070100PV1D20161216000090SPEAKER ASM                   M IMCTM S5MB11 FTTL  07070IMCT  S5 PTB  00004                    1300 SR        000000000000 FUJITSU TEN (THAILAN17050ML000200317057ML0001001                                                                                                                *          20161212IMF1612123.TXT
MDEDGD233907201612                D89828070100PV1D20161216000030SPEAKER ASM                   M IMCTM S5MB11 FTTL  07070IMCT  S5 PTB  00004                    1600 SR        000000000000 FUJITSU TEN (THAILAN17057ML0002002                                                                                                                              *          20161212IMF1612123.TXT
MDEDGD233908201612                D89828070100PV4D20161215000030SPEAKER ASM                   M IMCTM S0FL05 FTTL  07070IMCT  S0 PTB  00004                    2100 SR        000000000000 FUJITSU TEN (THAILAN17021NU0001001                                                                                                                              *          20161212IMF1612123.TXT
MDEDGD233909201612                D89828070100PV4D20161215000030SPEAKER ASM                   M IMCTM S0FL05 FTTL  07070IMCT  S0 PTB  00004                    2230 SR        000000000000 FUJITSU TEN (THAILAN17024NU0001001                                                                                                                              *          20161212IMF1612123.TXT
MDEDGD233910201612                D89828070100PV4D20161216000030SPEAKER ASM                   M IMCTM S0FL05 FTTL  07070IMCT  S0 PTB  00004                    0400 SR        000000000000 FUJITSU TEN (THAILAN17034PU0002002                                                                                                                              *          20161212IMF1612123.TXT
MDEDGD233911201612                D89828070100PV4D20161216000030SPEAKER ASM                   M IMCTM S0FL05 FTTL  07070IMCT  S0 PTB  00004                    1300 SR        000000000000 FUJITSU TEN (THAILAN17024NU0002002                                                                                                                              *          20161212IMF1612123.TXT
MDEDGD233912201612                D89828070200PV1D20161216000090SPEAKER ASM                   M IMCTM S5MA14 FTTL  07070IMCT  S5 PTB  00005                    0400 SR        000000000000 FUJITSU TEN (THAILAN17015NL000100217099ML0002002                                                                                                                *          20161212IMF1612123.TXT
MDEDGD233913201612                D89828070200PV1D20161216000060SPEAKER ASM                   M IMCTM S5MA14 FTTL  07070IMCT  S5 PTB  00005                    0900 SR        000000000000 FUJITSU TEN (THAILAN17023NL0003004                                                                                                                              *          20161212IMF1612123.TXT
MDEDGD233914201612                D89828070200PV4D20161215000030SPEAKER ASM                   M IMCTM S0FR05 FTTL  07070IMCT  S0 PTB  00005                    2100 SR        000000000000 FUJITSU TEN (THAILAN17021NU0001001                                                                                                                              *          20161212IMF1612123.TXT
MDEDGD233915201612                D89828070200PV4D20161215000030SPEAKER ASM                   M IMCTM S0FR05 FTTL  07070IMCT  S0 PTB  00005                    2230 SR        000000000000 FUJITSU TEN (THAILAN17024NU0001001                                                                                                                              *          20161212IMF1612123.TXT
MDEDGD233916201612                D89828070200PV4D20161216000030SPEAKER ASM                   M IMCTM S0FR05 FTTL  07070IMCT  S0 PTB  00005                    0400 SR        000000000000 FUJITSU TEN (THAILAN17034PU0002002                                                                                                                              *          20161212IMF1612123.TXT
MDEDGD233917201612                D89828070200PV4D20161216000030SPEAKER ASM                   M IMCTM S0FR05 FTTL  07070IMCT  S0 PTB  00005                    1300 SR        000000000000 FUJITSU TEN (THAILAN17024NU0002002                                                                                                                              *          20161212IMF1612123.TXT
MDEDGD233918201612                D89828070300PT1D20161215000090SPEAKER ASM                   M IMCTM S5NB082FTTL  07070IMCT  S5 PTB  00015                    2230 SR        000000000000 FUJITSU TEN (THAILAN17053NL000300317068ML000100117083ML0002002                                                                                                  *          20161212IMF1612123.TXT
MDEDGD233919201612                D89828070300PT1D20161216000030SPEAKER ASM                   M IMCTM S5NB082FTTL  07070IMCT  S5 PTB  00015                    0230 SR        000000000000 FUJITSU TEN (THAILAN17083ML0003003                                                                                                                              *          20161212IMF1612123.TXT
MDEDGD233920201612                D89828070300PT1D20161216000090SPEAKER ASM                   M IMCTM S5NB082FTTL  07070IMCT  S5 PTB  00015                    0400 SR        000000000000 FUJITSU TEN (THAILAN17015NL000100217099ML0002002                                                                                                                *          20161212IMF1612123.TXT
MDEDGD233921201612                D89828070300PT1D20161216000060SPEAKER ASM                   M IMCTM S5NB082FTTL  07070IMCT  S5 PTB  00015                    0900 SR        000000000000 FUJITSU TEN (THAILAN17023NL0003004                                                                                                                              *          20161212IMF1612123.TXT
MDEDGD233922201612                D89828070300PT1D20161216000030SPEAKER ASM                   M IMCTM S5NB082FTTL  07070IMCT  S5 PTB  00015                    1300 SR        000000000000 FUJITSU TEN (THAILAN17057ML0001001                                                                                                                              *          20161212IMF1612123.TXT
MDEDGD233923201612                D89828070300PT1D20161216000030SPEAKER ASM                   M IMCTM S5NB082FTTL  07070IMCT  S5 PTB  00015                    1600 SR        000000000000 FUJITSU TEN (THAILAN17057ML0002002                                                                                                                              *          20161212IMF1612123.TXT
MDEDGD233924201612                D89828070300PT4D20161215000030SPEAKER ASM                   M IMCTM S9TS02 FTTL  07070IMCT  S9 PTB  00015                    2100 SR        000000000000 FUJITSU TEN (THAILAN17021NU0001001                                                                                                                              *          20161212IMF1612123.TXT
MDEDGD233925201612                D89828070300PT4D20161215000030SPEAKER ASM                   M IMCTM S9TS02 FTTL  07070IMCT  S9 PTB  00015                    2230 SR        000000000000 FUJITSU TEN (THAILAN17024NU0001001                                                                                                                              *          20161212IMF1612123.TXT
MDEDGD233926201612                D89828070300PT4D20161216000030SPEAKER ASM                   M IMCTM S9TS02 FTTL  07070IMCT  S9 PTB  00015                    0400 SR        000000000000 FUJITSU TEN (THAILAN17034PU0002002                                                                                                                              *          20161212IMF1612123.TXT
MDEDGD233927201612                D89828070300PT4D20161216000030SPEAKER ASM                   M IMCTM S9TS02 FTTL  07070IMCT  S9 PTB  00015                    1300 SR        000000000000 FUJITSU TEN (THAILAN17024NU0002002                                                                                                                              *          20161212IMF1612123.TXT
MDEDGD233928201612                D89829622400PT1D20161215000015RADIO;ASM DVD                 M IMCTM S5NC06 FTTL  07070IMCT  S5 PTB  00003                    2230 SR        000000000000 FUJITSU TEN (THAILAN17068ML0001001                                                                                                                              *          20161212IMF1612123.TXT
MDEDGD233929201612                D89829645300PT1D20161216000015RADIO;ASM DVD                 M IMCTM S5NC06 FTTL  07070IMCT  S5 PTB  00003                    0400 SR        000000000000 FUJITSU TEN (THAILAN17099ML0002002                                                                                                                              *          20161212IMF1612123.TXT
MDEDGD233930201612                D89829645300PT4D20161215000015RADIO;ASM DVD                 M IMCTM S9CO001FTTL  07070IMCT  S9 PTB  00003                    2100 SR        000000000000 FUJITSU TEN (THAILAN17021NU0001001                                                                                                                              *          20161212IMF1612123.TXT
MDEDGD233931201612                D89829645700PT1D20161215000015RADIO;ASM DVD                 M IMCTM S5NC06 FTTL  07070IMCT  S5 X    00003                    2230 SR        000000000000 FUJITSU TEN (THAILAN17053NL0003003                                                                                                                              *          20161212IMF1612123.TXT
MDEUGD230996201612                D89828070100PT4U20161216000030SPEAKER ASM                   M IMCTM S0FL05 FTTL  07070IMCT  S0 PTB  00004                    0230 SR        000000000000 FUJITSU TEN (THAILAN170C13U0043043                                                                                                                              *          20161212IMF1612123.TXT
MDEUGD230997201612                D89828070100PT4U20161216000030SPEAKER ASM                   M IMCTM S0FL05 FTTL  07070IMCT  S0 PTB  00004                    0900 SR        000000000000 FUJITSU TEN (THAILAN170C04U0007007                                                                                                                              *          20161212IMF1612123.TXT
MDEUGD230998201612                D89828070100PT4U20161216000060SPEAKER ASM                   M IMCTM S0FL05 FTTL  07070IMCT  S0 PTB  00004                    1300 SR        000000000000 FUJITSU TEN (THAILAN170C13U0044044170C16U0066066                                                                                                                *          20161212IMF1612123.TXT
MDEUGD230999201612                D89828070100PT4U20161216000030SPEAKER ASM                   M IMCTM S0FL05 FTTL  07070IMCT  S0 PTB  00004                    2100 SR        000000000000 FUJITSU TEN (THAILAN170C16U0067067                                                                                                                              *          20161212IMF1612123.TXT
MDEUGD231000201612                D89828070200PV4U20161216000030SPEAKER ASM                   M IMCTM S0FR05 FTTL  07070IMCT  S0 PTB  00005                    0230 SR        000000000000 FUJITSU TEN (THAILAN170C13U0043043                                                                                                                              *          20161212IMF1612123.TXT
MDEUGD231001201612                D89828070200PV4U20161216000030SPEAKER ASM                   M IMCTM S0FR05 FTTL  07070IMCT  S0 PTB  00005                    0900 SR        000000000000 FUJITSU TEN (THAILAN170C04U0007007                                                                                                                              *          20161212IMF1612123.TXT
MDEUGD231002201612                D89828070200PV4U20161216000060SPEAKER ASM                   M IMCTM S0FR05 FTTL  07070IMCT  S0 PTB  00005                    1300 SR        000000000000 FUJITSU TEN (THAILAN170C13U0044044170C16U0066066                                                                                                                *          20161212IMF1612123.TXT
MDEUGD231003201612                D89828070200PV4U20161216000030SPEAKER ASM                   M IMCTM S0FR05 FTTL  07070IMCT  S0 PTB  00005                    2100 SR        000000000000 FUJITSU TEN (THAILAN170C16U0067067                                                                                                                              *          20161212IMF1612123.TXT
MDEUGD231004201612                D89828070300PT4U20161216000030SPEAKER ASM                   M IMCTM S9TS02 FTTL  07070IMCT  S9 PTB  00015                    0230 SR        000000000000 FUJITSU TEN (THAILAN170C13U0043043                                                                                                                              *          20161212IMF1612123.TXT
MDEUGD231005201612                D89828070300PT4U20161216000030SPEAKER ASM                   M IMCTM S9TS02 FTTL  07070IMCT  S9 PTB  00015                    0900 SR        000000000000 FUJITSU TEN (THAILAN170C04U0007007                                                                                                                              *          20161212IMF1612123.TXT
MDEUGD231006201612                D89828070300PT4U20161216000060SPEAKER ASM                   M IMCTM S9TS02 FTTL  07070IMCT  S9 PTB  00015                    1300 SR        000000000000 FUJITSU TEN (THAILAN170C13U0044044170C16U0066066                                                                                                                *          20161212IMF1612123.TXT
MDEUGD231007201612                D89828070300PT4U20161216000030SPEAKER ASM                   M IMCTM S9TS02 FTTL  07070IMCT  S9 PTB  00015                    2100 SR        000000000000 FUJITSU TEN (THAILAN170C16U0067067                                                                                                                              *          20161212IMF1612123.TXT
