REC2016121720161217ISUZU                              55     
MDDDGD265673201612                D89821984430PT1D20161221000030RADIO;AM/FM,CD                M IMCTM S5NC06 FTTL  07070IMCT  S5 PTB  00005                    2100 SR        000000000000 FUJITSU TEN (THAILAN170KRAL0021021                                                                                                                              *          20161217IMF1612175.TXT
MDDDGD265674201612                D89821984430PT1D20161222000030RADIO;AM/FM,CD                M IMCTM S5NC06 FTTL  07070IMCT  S5 PTB  00005                    1300 SR        000000000000 FUJITSU TEN (THAILAN170KNCL0049049                                                                                                                              *          20161217IMF1612175.TXT
MDDDGD265675201612                D89825217900PT1D20161222000060RADIO;AM/FM,CD,D              M IMCTM S5NC06 FTTL  07070IMCT  S5 PTB  00003                    0400 SR        000000000000 FUJITSU TEN (THAILAN170KPJL0019020                                                                                                                              *          20161217IMF1612175.TXT
MDDDGD265676201612                D89828070100PV1D20161221000060SPEAKER ASM                   M IMCTM S5MB11 FTTL  07070IMCT  S5 PTB  00004                    2100 SR        000000000000 FUJITSU TEN (THAILAN170KRAL0021021                                                                                                                              *          20161217IMF1612175.TXT
MDDDGD265677201612                D89828070100PV1D20161221000060SPEAKER ASM                   M IMCTM S5MB11 FTTL  07070IMCT  S5 PTB  00004                    2230 SR        000000000000 FUJITSU TEN (THAILAN170KPEL0028028                                                                                                                              *          20161217IMF1612175.TXT
MDDDGD265678201612                D89828070100PV1D20161222000120SPEAKER ASM                   M IMCTM S5MB11 FTTL  07070IMCT  S5 PTB  00004                    0400 SR        000000000000 FUJITSU TEN (THAILAN170KPJL0019020                                                                                                                              *          20161217IMF1612175.TXT
MDDDGD265679201612                D89828070100PV1D20161222000060SPEAKER ASM                   M IMCTM S5MB11 FTTL  07070IMCT  S5 PTB  00004                    0900 SR        000000000000 FUJITSU TEN (THAILAN170KPDL0004004                                                                                                                              *          20161217IMF1612175.TXT
MDDDGD265680201612                D89828070100PV1D20161222000180SPEAKER ASM                   M IMCTM S5MB11 FTTL  07070IMCT  S5 PTB  00004                    1300 SR        000000000000 FUJITSU TEN (THAILAN170KNCL0049049170KPGL0009009170KRCL0010010                                                                                                  *          20161217IMF1612175.TXT
MDDDGD265681201612                D89828070200PV1D20161222000060SPEAKER ASM                   M IMCTM S5MA14 FTTL  07070IMCT  S5 PTB  00005                    1300 SR        000000000000 FUJITSU TEN (THAILAN170KRCL0010010                                                                                                                              *          20161217IMF1612175.TXT
MDDDGD265682201612                D89828070300PT1D20161221000060SPEAKER ASM                   M IMCTM S5NB082FTTL  07070IMCT  S5 PTB  00015                    2230 SR        000000000000 FUJITSU TEN (THAILAN170KPEL0028028                                                                                                                              *          20161217IMF1612175.TXT
MDDDGD265683201612                D89828070300PT1D20161222000120SPEAKER ASM                   M IMCTM S5NB082FTTL  07070IMCT  S5 PTB  00015                    0400 SR        000000000000 FUJITSU TEN (THAILAN170KPJL0019020                                                                                                                              *          20161217IMF1612175.TXT
MDDDGD265684201612                D89828070300PT1D20161222000060SPEAKER ASM                   M IMCTM S5NB082FTTL  07070IMCT  S5 PTB  00015                    0900 SR        000000000000 FUJITSU TEN (THAILAN170KPDL0004004                                                                                                                              *          20161217IMF1612175.TXT
MDDDGD265685201612                D89828070300PT1D20161222000120SPEAKER ASM                   M IMCTM S5NB082FTTL  07070IMCT  S5 PTB  00015                    1300 SR        000000000000 FUJITSU TEN (THAILAN170KPGL0009009170KRCL0010010                                                                                                                *          20161217IMF1612175.TXT
MDDDGD265686201612                D89831228300PT1D20161221000030RADIO;AM/FM,CD                M IMCTM S5NC06 FTTL  07070IMCT  S5 CPB  00003                    2230 SR        000000000000 FUJITSU TEN (THAILAN170KPEL0028028                                                                                                                              *          20161217IMF1612175.TXT
MDDDGD265687201612                D89831228300PT1D20161222000030RADIO;AM/FM,CD                M IMCTM S5NC06 FTTL  07070IMCT  S5 CPB  00003                    0900 SR        000000000000 FUJITSU TEN (THAILAN170KPDL0004004                                                                                                                              *          20161217IMF1612175.TXT
MDDDGD265688201612                D89831228300PT1D20161222000030RADIO;AM/FM,CD                M IMCTM S5NC06 FTTL  07070IMCT  S5 CPB  00003                    1300 SR        000000000000 FUJITSU TEN (THAILAN170KPGL0009009                                                                                                                              *          20161217IMF1612175.TXT
MDDDGD265689201612                D89831228400PT1D20161222000030RADIO;AM/FM,CD                M IMCTM S5NC06 FTTL  07070IMCT  S5 CPB  00003                    1300 SR        000000000000 FUJITSU TEN (THAILAN170KRCL0010010                                                                                                                              *          20161217IMF1612175.TXT
MDEDGD262943201612                D89828070100PV1D20161221000060SPEAKER ASM                   M IMCTM S5MB11 FTTL  07070IMCT  S5 PTB  00004                    2230 SR        000000000000 FUJITSU TEN (THAILAN17053NL0005006                                                                                                                              *          20161217IMF1612175.TXT
MDEDGD262944201612                D89828070100PV1D20161222000060SPEAKER ASM                   M IMCTM S5MB11 FTTL  07070IMCT  S5 PTB  00004                    0230 SR        000000000000 FUJITSU TEN (THAILAN17024NL0001002                                                                                                                              *          20161217IMF1612175.TXT
MDEDGD262945201612                D89828070100PV1D20161222000060SPEAKER ASM                   M IMCTM S5MB11 FTTL  07070IMCT  S5 PTB  00004                    0900 SR        000000000000 FUJITSU TEN (THAILAN17015PL000300317025NL0001001                                                                                                                *          20161217IMF1612175.TXT
MDEDGD262946201612                D89828070100PV4D20161221000030SPEAKER ASM                   M IMCTM S0FL05 FTTL  07070IMCT  S0 PTB  00004                    2230 SR        000000000000 FUJITSU TEN (THAILAN17034PU0006006                                                                                                                              *          20161217IMF1612175.TXT
MDEDGD262947201612                D89828070100PV4D20161222000030SPEAKER ASM                   M IMCTM S0FL05 FTTL  07070IMCT  S0 PTB  00004                    0230 SR        000000000000 FUJITSU TEN (THAILAN17024NU0004004                                                                                                                              *          20161217IMF1612175.TXT
MDEDGD262948201612                D89828070100PV4D20161222000030SPEAKER ASM                   M IMCTM S0FL05 FTTL  07070IMCT  S0 PTB  00004                    1300 SR        000000000000 FUJITSU TEN (THAILAN17079NU0004004                                                                                                                              *          20161217IMF1612175.TXT
MDEDGD262949201612                D89828070200PV1D20161222000060SPEAKER ASM                   M IMCTM S5MA14 FTTL  07070IMCT  S5 PTB  00005                    0230 SR        000000000000 FUJITSU TEN (THAILAN17024NL0001002                                                                                                                              *          20161217IMF1612175.TXT
MDEDGD262950201612                D89828070200PV1D20161222000060SPEAKER ASM                   M IMCTM S5MA14 FTTL  07070IMCT  S5 PTB  00005                    0900 SR        000000000000 FUJITSU TEN (THAILAN17015PL000300317025NL0001001                                                                                                                *          20161217IMF1612175.TXT
MDEDGD262951201612                D89828070200PV4D20161221000030SPEAKER ASM                   M IMCTM S0FR05 FTTL  07070IMCT  S0 PTB  00005                    2230 SR        000000000000 FUJITSU TEN (THAILAN17034PU0006006                                                                                                                              *          20161217IMF1612175.TXT
MDEDGD262952201612                D89828070200PV4D20161222000030SPEAKER ASM                   M IMCTM S0FR05 FTTL  07070IMCT  S0 PTB  00005                    0230 SR        000000000000 FUJITSU TEN (THAILAN17024NU0004004                                                                                                                              *          20161217IMF1612175.TXT
MDEDGD262953201612                D89828070200PV4D20161222000030SPEAKER ASM                   M IMCTM S0FR05 FTTL  07070IMCT  S0 PTB  00005                    1300 SR        000000000000 FUJITSU TEN (THAILAN17079NU0004004                                                                                                                              *          20161217IMF1612175.TXT
MDEDGD262954201612                D89828070300PT1D20161221000060SPEAKER ASM                   M IMCTM S5NB082FTTL  07070IMCT  S5 PTB  00015                    2230 SR        000000000000 FUJITSU TEN (THAILAN17053NL0005006                                                                                                                              *          20161217IMF1612175.TXT
MDEDGD262955201612                D89828070300PT1D20161222000060SPEAKER ASM                   M IMCTM S5NB082FTTL  07070IMCT  S5 PTB  00015                    0230 SR        000000000000 FUJITSU TEN (THAILAN17024NL0001002                                                                                                                              *          20161217IMF1612175.TXT
MDEDGD262956201612                D89828070300PT1D20161222000060SPEAKER ASM                   M IMCTM S5NB082FTTL  07070IMCT  S5 PTB  00015                    0900 SR        000000000000 FUJITSU TEN (THAILAN17015PL000300317025NL0001001                                                                                                                *          20161217IMF1612175.TXT
MDEDGD262957201612                D89828070300PT4D20161221000030SPEAKER ASM                   M IMCTM S9TS02 FTTL  07070IMCT  S9 PTB  00015                    2230 SR        000000000000 FUJITSU TEN (THAILAN17034PU0006006                                                                                                                              *          20161217IMF1612175.TXT
MDEDGD262958201612                D89828070300PT4D20161222000030SPEAKER ASM                   M IMCTM S9TS02 FTTL  07070IMCT  S9 PTB  00015                    0230 SR        000000000000 FUJITSU TEN (THAILAN17024NU0004004                                                                                                                              *          20161217IMF1612175.TXT
MDEDGD262959201612                D89828070300PT4D20161222000030SPEAKER ASM                   M IMCTM S9TS02 FTTL  07070IMCT  S9 PTB  00015                    1300 SR        000000000000 FUJITSU TEN (THAILAN17079NU0004004                                                                                                                              *          20161217IMF1612175.TXT
MDEDGD262960201612                D89829645300PT1D20161222000015RADIO;ASM DVD                 M IMCTM S5NC06 FTTL  07070IMCT  S5 PTB  00003                    0900 SR        000000000000 FUJITSU TEN (THAILAN17015PL0003003                                                                                                                              *          20161217IMF1612175.TXT
MDEDGD262961201612                D89829645700PT1D20161221000030RADIO;ASM DVD                 M IMCTM S5NC06 FTTL  07070IMCT  S5 X    00003                    2230 SR        000000000000 FUJITSU TEN (THAILAN17053NL0005006                                                                                                                              *          20161217IMF1612175.TXT
MDEDGD262962201612                D89829645700PT4D20161222000015RADIO;ASM DVD                 M IMCTM S9CO001FTTL  07070IMCT  S9 X    00003                    1300 SR        000000000000 FUJITSU TEN (THAILAN17079NU0004004                                                                                                                              *          20161217IMF1612175.TXT
MDEUGD251593201612                D89828070100PT4U20161221000030SPEAKER ASM                   M IMCTM S0FL05 FTTL  07070IMCT  S0 PTB  00004                    2230 SR        000000000000 FUJITSU TEN (THAILAN170C03U0009009                                                                                                                              *          20161217IMF1612175.TXT
MDEUGD251594201612                D89828070100PT4U20161222000060SPEAKER ASM                   M IMCTM S0FL05 FTTL  07070IMCT  S0 PTB  00004                    0400 SR        000000000000 FUJITSU TEN (THAILAN170C16U0078079                                                                                                                              *          20161217IMF1612175.TXT
MDEUGD251595201612                D89828070100PT4U20161222000030SPEAKER ASM                   M IMCTM S0FL05 FTTL  07070IMCT  S0 PTB  00004                    0900 SR        000000000000 FUJITSU TEN (THAILAN170C16U0080080                                                                                                                              *          20161217IMF1612175.TXT
MDEUGD251596201612                D89828070100PT4U20161222000030SPEAKER ASM                   M IMCTM S0FL05 FTTL  07070IMCT  S0 PTB  00004                    1300 SR        000000000000 FUJITSU TEN (THAILAN170C16U0081081                                                                                                                              *          20161217IMF1612175.TXT
MDEUGD251597201612                D89828070100PT4U20161222000030SPEAKER ASM                   M IMCTM S0FL05 FTTL  07070IMCT  S0 PTB  00004                    1600 SR        000000000000 FUJITSU TEN (THAILAN170C09U0030030                                                                                                                              *          20161217IMF1612175.TXT
MDEUGD251598201612                D89828070100PT4U20161222000030SPEAKER ASM                   M IMCTM S0FL05 FTTL  07070IMCT  S0 PTB  00004                    2100 SR        000000000000 FUJITSU TEN (THAILAN170C13U0048048                                                                                                                              *          20161217IMF1612175.TXT
MDEUGD251599201612                D89828070200PV4U20161221000030SPEAKER ASM                   M IMCTM S0FR05 FTTL  07070IMCT  S0 PTB  00005                    2230 SR        000000000000 FUJITSU TEN (THAILAN170C03U0009009                                                                                                                              *          20161217IMF1612175.TXT
MDEUGD251600201612                D89828070200PV4U20161222000060SPEAKER ASM                   M IMCTM S0FR05 FTTL  07070IMCT  S0 PTB  00005                    0400 SR        000000000000 FUJITSU TEN (THAILAN170C16U0078079                                                                                                                              *          20161217IMF1612175.TXT
MDEUGD251601201612                D89828070200PV4U20161222000030SPEAKER ASM                   M IMCTM S0FR05 FTTL  07070IMCT  S0 PTB  00005                    0900 SR        000000000000 FUJITSU TEN (THAILAN170C16U0080080                                                                                                                              *          20161217IMF1612175.TXT
MDEUGD251602201612                D89828070200PV4U20161222000030SPEAKER ASM                   M IMCTM S0FR05 FTTL  07070IMCT  S0 PTB  00005                    1300 SR        000000000000 FUJITSU TEN (THAILAN170C16U0081081                                                                                                                              *          20161217IMF1612175.TXT
MDEUGD251603201612                D89828070200PV4U20161222000030SPEAKER ASM                   M IMCTM S0FR05 FTTL  07070IMCT  S0 PTB  00005                    1600 SR        000000000000 FUJITSU TEN (THAILAN170C09U0030030                                                                                                                              *          20161217IMF1612175.TXT
MDEUGD251604201612                D89828070200PV4U20161222000030SPEAKER ASM                   M IMCTM S0FR05 FTTL  07070IMCT  S0 PTB  00005                    2100 SR        000000000000 FUJITSU TEN (THAILAN170C13U0048048                                                                                                                              *          20161217IMF1612175.TXT
MDEUGD251605201612                D89828070300PT4U20161221000030SPEAKER ASM                   M IMCTM S9TS02 FTTL  07070IMCT  S9 PTB  00015                    2230 SR        000000000000 FUJITSU TEN (THAILAN170C03U0009009                                                                                                                              *          20161217IMF1612175.TXT
MDEUGD251606201612                D89828070300PT4U20161222000060SPEAKER ASM                   M IMCTM S9TS02 FTTL  07070IMCT  S9 PTB  00015                    0400 SR        000000000000 FUJITSU TEN (THAILAN170C16U0078079                                                                                                                              *          20161217IMF1612175.TXT
MDEUGD251607201612                D89828070300PT4U20161222000030SPEAKER ASM                   M IMCTM S9TS02 FTTL  07070IMCT  S9 PTB  00015                    0900 SR        000000000000 FUJITSU TEN (THAILAN170C16U0080080                                                                                                                              *          20161217IMF1612175.TXT
MDEUGD251608201612                D89828070300PT4U20161222000030SPEAKER ASM                   M IMCTM S9TS02 FTTL  07070IMCT  S9 PTB  00015                    1300 SR        000000000000 FUJITSU TEN (THAILAN170C16U0081081                                                                                                                              *          20161217IMF1612175.TXT
MDEUGD251609201612                D89828070300PT4U20161222000030SPEAKER ASM                   M IMCTM S9TS02 FTTL  07070IMCT  S9 PTB  00015                    1600 SR        000000000000 FUJITSU TEN (THAILAN170C09U0030030                                                                                                                              *          20161217IMF1612175.TXT
MDEUGD251610201612                D89828070300PT4U20161222000030SPEAKER ASM                   M IMCTM S9TS02 FTTL  07070IMCT  S9 PTB  00015                    2100 SR        000000000000 FUJITSU TEN (THAILAN170C13U0048048                                                                                                                              *          20161217IMF1612175.TXT
