REC2016122120161221ISUZU                              38     
MDDDGD280842201612                D89821984430PT1D20161227000030RADIO;AM/FM,CD                M IMCTM S5NC06 FTTL  07070IMCT  S5 PTB  00005                    0900 SR        000000000000 FUJITSU TEN (THAILAN170KPAL0055055                                                                                                                              *          20161221IMF1612214.TXT
MDDDGD280843201612                D89825217900PT1D20161226000030RADIO;AM/FM,CD,D              M IMCTM S5NC06 FTTL  07070IMCT  S5 PTB  00003                    2100 SR        000000000000 FUJITSU TEN (THAILAN170KPJL0022022                                                                                                                              *          20161221IMF1612214.TXT
MDDDGD280844201612                D89825217900PT1D20161227000030RADIO;AM/FM,CD,D              M IMCTM S5NC06 FTTL  07070IMCT  S5 PTB  00003                    0400 SR        000000000000 FUJITSU TEN (THAILAN170KPKL0008008                                                                                                                              *          20161221IMF1612214.TXT
MDDDGD280845201612                D89828070100PV1D20161226000060SPEAKER ASM                   M IMCTM S5MB11 FTTL  07070IMCT  S5 PTB  00004                    2100 SR        000000000000 FUJITSU TEN (THAILAN170KPJL0022022                                                                                                                              *          20161221IMF1612214.TXT
MDDDGD280846201612                D89828070100PV1D20161226000120SPEAKER ASM                   M IMCTM S5MB11 FTTL  07070IMCT  S5 PTB  00004                    2230 SR        000000000000 FUJITSU TEN (THAILAN170KPFL0085085170KRJL0016016                                                                                                                *          20161221IMF1612214.TXT
MDDDGD280847201612                D89828070100PV1D20161227000060SPEAKER ASM                   M IMCTM S5MB11 FTTL  07070IMCT  S5 PTB  00004                    0230 SR        000000000000 FUJITSU TEN (THAILAN170KPFL0086086                                                                                                                              *          20161221IMF1612214.TXT
MDDDGD280848201612                D89828070100PV1D20161227000120SPEAKER ASM                   M IMCTM S5MB11 FTTL  07070IMCT  S5 PTB  00004                    0400 SR        000000000000 FUJITSU TEN (THAILAN170KPKL0008008170KRCL0013013                                                                                                                *          20161221IMF1612214.TXT
MDDDGD280849201612                D89828070100PV1D20161227000120SPEAKER ASM                   M IMCTM S5MB11 FTTL  07070IMCT  S5 PTB  00004                    0900 SR        000000000000 FUJITSU TEN (THAILAN170KPAL0055055170KRJL0017017                                                                                                                *          20161221IMF1612214.TXT
MDDDGD280850201612                D89828070200PV1D20161226000060SPEAKER ASM                   M IMCTM S5MA14 FTTL  07070IMCT  S5 PTB  00005                    2230 SR        000000000000 FUJITSU TEN (THAILAN170KRJL0016016                                                                                                                              *          20161221IMF1612214.TXT
MDDDGD280851201612                D89828070200PV1D20161227000060SPEAKER ASM                   M IMCTM S5MA14 FTTL  07070IMCT  S5 PTB  00005                    0400 SR        000000000000 FUJITSU TEN (THAILAN170KRCL0013013                                                                                                                              *          20161221IMF1612214.TXT
MDDDGD280852201612                D89828070200PV1D20161227000060SPEAKER ASM                   M IMCTM S5MA14 FTTL  07070IMCT  S5 PTB  00005                    0900 SR        000000000000 FUJITSU TEN (THAILAN170KRJL0017017                                                                                                                              *          20161221IMF1612214.TXT
MDDDGD280853201612                D89828070300PT1D20161226000060SPEAKER ASM                   M IMCTM S5NB082FTTL  07070IMCT  S5 PTB  00015                    2100 SR        000000000000 FUJITSU TEN (THAILAN170KPJL0022022                                                                                                                              *          20161221IMF1612214.TXT
MDDDGD280854201612                D89828070300PT1D20161226000120SPEAKER ASM                   M IMCTM S5NB082FTTL  07070IMCT  S5 PTB  00015                    2230 SR        000000000000 FUJITSU TEN (THAILAN170KPFL0085085170KRJL0016016                                                                                                                *          20161221IMF1612214.TXT
MDDDGD280855201612                D89828070300PT1D20161227000060SPEAKER ASM                   M IMCTM S5NB082FTTL  07070IMCT  S5 PTB  00015                    0230 SR        000000000000 FUJITSU TEN (THAILAN170KPFL0086086                                                                                                                              *          20161221IMF1612214.TXT
MDDDGD280856201612                D89828070300PT1D20161227000120SPEAKER ASM                   M IMCTM S5NB082FTTL  07070IMCT  S5 PTB  00015                    0400 SR        000000000000 FUJITSU TEN (THAILAN170KPKL0008008170KRCL0013013                                                                                                                *          20161221IMF1612214.TXT
MDDDGD280857201612                D89828070300PT1D20161227000060SPEAKER ASM                   M IMCTM S5NB082FTTL  07070IMCT  S5 PTB  00015                    0900 SR        000000000000 FUJITSU TEN (THAILAN170KRJL0017017                                                                                                                              *          20161221IMF1612214.TXT
MDDDGD280858201612                D89831228300PT1D20161226000030RADIO;AM/FM,CD                M IMCTM S5NC06 FTTL  07070IMCT  S5 CPB  00003                    2230 SR        000000000000 FUJITSU TEN (THAILAN170KPFL0085085                                                                                                                              *          20161221IMF1612214.TXT
MDDDGD280859201612                D89831228300PT1D20161227000030RADIO;AM/FM,CD                M IMCTM S5NC06 FTTL  07070IMCT  S5 CPB  00003                    0230 SR        000000000000 FUJITSU TEN (THAILAN170KPFL0086086                                                                                                                              *          20161221IMF1612214.TXT
MDDDGD280860201612                D89831228400PT1D20161227000030RADIO;AM/FM,CD                M IMCTM S5NC06 FTTL  07070IMCT  S5 CPB  00003                    0400 SR        000000000000 FUJITSU TEN (THAILAN170KRCL0013013                                                                                                                              *          20161221IMF1612214.TXT
MDDUGD215289201612                D89828070100PT4U20161226000030SPEAKER ASM                   M IMCTM S0FL05 FTTL  07070IMCT  S0 PTB  00004                    2230 SR        000000000000 FUJITSU TEN (THAILAN170KUAU0030030                                                                                                                              *          20161221IMF1612214.TXT
MDDUGD215290201612                D89828070200PV4U20161226000030SPEAKER ASM                   M IMCTM S0FR05 FTTL  07070IMCT  S0 PTB  00005                    2230 SR        000000000000 FUJITSU TEN (THAILAN170KUAU0030030                                                                                                                              *          20161221IMF1612214.TXT
MDDUGD215291201612                D89828070300PT4U20161226000030SPEAKER ASM                   M IMCTM S9TS02 FTTL  07070IMCT  S9 PTB  00015                    2230 SR        000000000000 FUJITSU TEN (THAILAN170KUAU0030030                                                                                                                              *          20161221IMF1612214.TXT
MDDUGD215292201612                D89831228400PT4U20161226000015RADIO;AM/FM,CD                M IMCTM S9CO001FTTL  07070IMCT  S9 CPB  00003                    2230 SR        000000000000 FUJITSU TEN (THAILAN170KUAU0030030                                                                                                                              *          20161221IMF1612214.TXT
MDEDGD274892201612                D89805293700PV1D20161226000030SPEAKER ASM                   M IMCTM S5MB11 FTTL  07070IMCT  S5 PTB  00003                    2230 SR        000000000000 FUJITSU TEN (THAILAN15018FL0086086                                                                                                                              *          20161221IMF1612214.TXT
MDEDGD274893201612                D89805293700PV1D20161227000030SPEAKER ASM                   M IMCTM S5MB11 FTTL  07070IMCT  S5 PTB  00003                    0900 SR        000000000000 FUJITSU TEN (THAILAN15018FL0087087                                                                                                                              *          20161221IMF1612214.TXT
MDEDGD274894201612                D89828070100PV4D20161227000030SPEAKER ASM                   M IMCTM S0FL05 FTTL  07070IMCT  S0 PTB  00004                    0230 SR        000000000000 FUJITSU TEN (THAILAN17085RU0001001                                                                                                                              *          20161221IMF1612214.TXT
MDEDGD274895201612                D89828070100PV4D20161227000030SPEAKER ASM                   M IMCTM S0FL05 FTTL  07070IMCT  S0 PTB  00004                    0900 SR        000000000000 FUJITSU TEN (THAILAN17034PU0009009                                                                                                                              *          20161221IMF1612214.TXT
MDEDGD274896201612                D89828070200PV4D20161227000030SPEAKER ASM                   M IMCTM S0FR05 FTTL  07070IMCT  S0 PTB  00005                    0900 SR        000000000000 FUJITSU TEN (THAILAN17034PU0009009                                                                                                                              *          20161221IMF1612214.TXT
MDEDGD274897201612                D89828070300PT4D20161227000030SPEAKER ASM                   M IMCTM S9TS02 FTTL  07070IMCT  S9 PTB  00015                    0900 SR        000000000000 FUJITSU TEN (THAILAN17034PU0009009                                                                                                                              *          20161221IMF1612214.TXT
MDEUGD262907201612                D89828070100PT4U20161226000030SPEAKER ASM                   M IMCTM S0FL05 FTTL  07070IMCT  S0 PTB  00004                    2230 SR        000000000000 FUJITSU TEN (THAILAN170C13U0052052                                                                                                                              *          20161221IMF1612214.TXT
MDEUGD262908201612                D89828070100PT4U20161227000030SPEAKER ASM                   M IMCTM S0FL05 FTTL  07070IMCT  S0 PTB  00004                    0400 SR        000000000000 FUJITSU TEN (THAILAN170C12U0020020                                                                                                                              *          20161221IMF1612214.TXT
MDEUGD262909201612                D89828070100PT4U20161227000030SPEAKER ASM                   M IMCTM S0FL05 FTTL  07070IMCT  S0 PTB  00004                    0900 SR        000000000000 FUJITSU TEN (THAILAN170C16U0086086                                                                                                                              *          20161221IMF1612214.TXT
MDEUGD262910201612                D89828070200PV4U20161226000030SPEAKER ASM                   M IMCTM S0FR05 FTTL  07070IMCT  S0 PTB  00005                    2230 SR        000000000000 FUJITSU TEN (THAILAN170C13U0052052                                                                                                                              *          20161221IMF1612214.TXT
MDEUGD262911201612                D89828070200PV4U20161227000030SPEAKER ASM                   M IMCTM S0FR05 FTTL  07070IMCT  S0 PTB  00005                    0400 SR        000000000000 FUJITSU TEN (THAILAN170C12U0020020                                                                                                                              *          20161221IMF1612214.TXT
MDEUGD262912201612                D89828070200PV4U20161227000030SPEAKER ASM                   M IMCTM S0FR05 FTTL  07070IMCT  S0 PTB  00005                    0900 SR        000000000000 FUJITSU TEN (THAILAN170C16U0086086                                                                                                                              *          20161221IMF1612214.TXT
MDEUGD262913201612                D89828070300PT4U20161226000030SPEAKER ASM                   M IMCTM S9TS02 FTTL  07070IMCT  S9 PTB  00015                    2230 SR        000000000000 FUJITSU TEN (THAILAN170C13U0052052                                                                                                                              *          20161221IMF1612214.TXT
MDEUGD262914201612                D89828070300PT4U20161227000030SPEAKER ASM                   M IMCTM S9TS02 FTTL  07070IMCT  S9 PTB  00015                    0400 SR        000000000000 FUJITSU TEN (THAILAN170C12U0020020                                                                                                                              *          20161221IMF1612214.TXT
MDEUGD262915201612                D89828070300PT4U20161227000030SPEAKER ASM                   M IMCTM S9TS02 FTTL  07070IMCT  S9 PTB  00015                    0900 SR        000000000000 FUJITSU TEN (THAILAN170C16U0086086                                                                                                                              *          20161221IMF1612214.TXT
