REC2016122320161223ISUZU                              64     
MDDDGD289856201701                D89821984430PT1D20170106000030RADIO;AM/FM,CD                M IMCTM S5NC06 FTTL  07070IMCT  S5 PTB  00005                    1600 SR        000000000000 FUJITSU TEN (THAILAN170KNEL0048048                                                                                                                              *          20161223IMF1612239.TXT
MDDDGD289857201701                D89825217900PT1D20170106000030RADIO;AM/FM,CD,D              M IMCTM S5NC06 FTTL  07070IMCT  S5 PTB  00003                    0400 SR        000000000000 FUJITSU TEN (THAILAN170KPJL0024024                                                                                                                              *          20161223IMF1612239.TXT
MDDDGD289858201701                D89828070100PV1D20170105000120SPEAKER ASM                   M IMCTM S5MB11 FTTL  07070IMCT  S5 PTB  00004                    2230 SR        000000000000 FUJITSU TEN (THAILAN170KPFL0090090170KRHL0013013                                                                                                                *          20161223IMF1612239.TXT
MDDDGD289859201701                D89828070100PV1D20170106000060SPEAKER ASM                   M IMCTM S5MB11 FTTL  07070IMCT  S5 PTB  00004                    0400 SR        000000000000 FUJITSU TEN (THAILAN170KPJL0024024                                                                                                                              *          20161223IMF1612239.TXT
MDDDGD289860201701                D89828070100PV1D20170106000060SPEAKER ASM                   M IMCTM S5MB11 FTTL  07070IMCT  S5 PTB  00004                    0900 SR        000000000000 FUJITSU TEN (THAILAN170KRFL0036036                                                                                                                              *          20161223IMF1612239.TXT
MDDDGD289861201701                D89828070100PV1D20170106000060SPEAKER ASM                   M IMCTM S5MB11 FTTL  07070IMCT  S5 PTB  00004                    1300 SR        000000000000 FUJITSU TEN (THAILAN170KRFL0037037                                                                                                                              *          20161223IMF1612239.TXT
MDDDGD289862201701                D89828070100PV1D20170106000120SPEAKER ASM                   M IMCTM S5MB11 FTTL  07070IMCT  S5 PTB  00004                    1600 SR        000000000000 FUJITSU TEN (THAILAN170KNEL0048048170KREL0021021                                                                                                                *          20161223IMF1612239.TXT
MDDDGD289863201701                D89828070100PV1D20170106000060SPEAKER ASM                   M IMCTM S5MB11 FTTL  07070IMCT  S5 PTB  00004                    2100 SR        000000000000 FUJITSU TEN (THAILAN170KRHL0014014                                                                                                                              *          20161223IMF1612239.TXT
MDDDGD289864201701                D89828070200PV1D20170105000060SPEAKER ASM                   M IMCTM S5MA14 FTTL  07070IMCT  S5 PTB  00005                    2230 SR        000000000000 FUJITSU TEN (THAILAN170KRHL0013013                                                                                                                              *          20161223IMF1612239.TXT
MDDDGD289865201701                D89828070200PV1D20170106000060SPEAKER ASM                   M IMCTM S5MA14 FTTL  07070IMCT  S5 PTB  00005                    0900 SR        000000000000 FUJITSU TEN (THAILAN170KRFL0036036                                                                                                                              *          20161223IMF1612239.TXT
MDDDGD289866201701                D89828070200PV1D20170106000060SPEAKER ASM                   M IMCTM S5MA14 FTTL  07070IMCT  S5 PTB  00005                    1300 SR        000000000000 FUJITSU TEN (THAILAN170KRFL0037037                                                                                                                              *          20161223IMF1612239.TXT
MDDDGD289867201701                D89828070200PV1D20170106000060SPEAKER ASM                   M IMCTM S5MA14 FTTL  07070IMCT  S5 PTB  00005                    1600 SR        000000000000 FUJITSU TEN (THAILAN170KREL0021021                                                                                                                              *          20161223IMF1612239.TXT
MDDDGD289868201701                D89828070200PV1D20170106000060SPEAKER ASM                   M IMCTM S5MA14 FTTL  07070IMCT  S5 PTB  00005                    2100 SR        000000000000 FUJITSU TEN (THAILAN170KRHL0014014                                                                                                                              *          20161223IMF1612239.TXT
MDDDGD289869201701                D89828070300PT1D20170105000120SPEAKER ASM                   M IMCTM S5NB082FTTL  07070IMCT  S5 PTB  00015                    2230 SR        000000000000 FUJITSU TEN (THAILAN170KPFL0090090170KRHL0013013                                                                                                                *          20161223IMF1612239.TXT
MDDDGD289870201701                D89828070300PT1D20170106000060SPEAKER ASM                   M IMCTM S5NB082FTTL  07070IMCT  S5 PTB  00015                    0400 SR        000000000000 FUJITSU TEN (THAILAN170KPJL0024024                                                                                                                              *          20161223IMF1612239.TXT
MDDDGD289871201701                D89828070300PT1D20170106000060SPEAKER ASM                   M IMCTM S5NB082FTTL  07070IMCT  S5 PTB  00015                    0900 SR        000000000000 FUJITSU TEN (THAILAN170KRFL0036036                                                                                                                              *          20161223IMF1612239.TXT
MDDDGD289872201701                D89828070300PT1D20170106000060SPEAKER ASM                   M IMCTM S5NB082FTTL  07070IMCT  S5 PTB  00015                    1300 SR        000000000000 FUJITSU TEN (THAILAN170KRFL0037037                                                                                                                              *          20161223IMF1612239.TXT
MDDDGD289873201701                D89828070300PT1D20170106000060SPEAKER ASM                   M IMCTM S5NB082FTTL  07070IMCT  S5 PTB  00015                    1600 SR        000000000000 FUJITSU TEN (THAILAN170KREL0021021                                                                                                                              *          20161223IMF1612239.TXT
MDDDGD289874201701                D89828070300PT1D20170106000060SPEAKER ASM                   M IMCTM S5NB082FTTL  07070IMCT  S5 PTB  00015                    2100 SR        000000000000 FUJITSU TEN (THAILAN170KRHL0014014                                                                                                                              *          20161223IMF1612239.TXT
MDDDGD289875201701                D89829645900PT1D20170106000030RADIO;ASM DVD                 M IMCTM S5NC06 FTTL  07070IMCT  S5 CPB  00003                    0900 SR        000000000000 FUJITSU TEN (THAILAN170KRFL0036036                                                                                                                              *          20161223IMF1612239.TXT
MDDDGD289876201701                D89829645900PT1D20170106000030RADIO;ASM DVD                 M IMCTM S5NC06 FTTL  07070IMCT  S5 CPB  00003                    1300 SR        000000000000 FUJITSU TEN (THAILAN170KRFL0037037                                                                                                                              *          20161223IMF1612239.TXT
MDDDGD289877201701                D89831228300PT1D20170105000030RADIO;AM/FM,CD                M IMCTM S5NC06 FTTL  07070IMCT  S5 CPB  00003                    2230 SR        000000000000 FUJITSU TEN (THAILAN170KPFL0090090                                                                                                                              *          20161223IMF1612239.TXT
MDDDGD289878201701                D89831228400PT1D20170106000030RADIO;AM/FM,CD                M IMCTM S5NC06 FTTL  07070IMCT  S5 CPB  00003                    1600 SR        000000000000 FUJITSU TEN (THAILAN170KREL0021021                                                                                                                              *          20161223IMF1612239.TXT
MDEDGD283500201701                D89805293700PV4D20170105000030SPEAKER ASM                   M IMCTM S0FR05 FTTL  07070IMCT  S0 PTB  00003                    2100 SR        000000000000 FUJITSU TEN (THAILAN15019FU0033033                                                                                                                              *          20161223IMF1612239.TXT
MDEDGD283501201701                D89805293700PV4D20170105000030SPEAKER ASM                   M IMCTM S0FR05 FTTL  07070IMCT  S0 PTB  00003                    2230 SR        000000000000 FUJITSU TEN (THAILAN15019FU0034034                                                                                                                              *          20161223IMF1612239.TXT
MDEDGD283502201701                D89805293700PV4D20170106000030SPEAKER ASM                   M IMCTM S0FR05 FTTL  07070IMCT  S0 PTB  00003                    0230 SR        000000000000 FUJITSU TEN (THAILAN15019FU0035035                                                                                                                              *          20161223IMF1612239.TXT
MDEDGD283503201701                D89827952200PT1D20170106000015RADIO;AM/FM,CD,D              M IMCTM S5NC06 FTTL  07070IMCT  S5 X    00003                    0900 SR        000000000000 FUJITSU TEN (THAILAN17066NL0003003                                                                                                                              *          20161223IMF1612239.TXT
MDEDGD283504201701                D89827952200PT1D20170106000015RADIO;AM/FM,CD,D              M IMCTM S5NC06 FTTL  07070IMCT  S5 X    00003                    1300 SR        000000000000 FUJITSU TEN (THAILAN17066NL0004004                                                                                                                              *          20161223IMF1612239.TXT
MDEDGD283505201701                D89828070100PV1D20170105000060SPEAKER ASM                   M IMCTM S5MB11 FTTL  07070IMCT  S5 PTB  00004                    2100 SR        000000000000 FUJITSU TEN (THAILAN17004ML0002003                                                                                                                              *          20161223IMF1612239.TXT
MDEDGD283506201701                D89828070100PV1D20170105000030SPEAKER ASM                   M IMCTM S5MB11 FTTL  07070IMCT  S5 PTB  00004                    2230 SR        000000000000 FUJITSU TEN (THAILAN17014NL0001001                                                                                                                              *          20161223IMF1612239.TXT
MDEDGD283507201701                D89828070100PV1D20170106000060SPEAKER ASM                   M IMCTM S5MB11 FTTL  07070IMCT  S5 PTB  00004                    0230 SR        000000000000 FUJITSU TEN (THAILAN17029ML000300317031ML0002002                                                                                                                *          20161223IMF1612239.TXT
MDEDGD283508201701                D89828070100PV1D20170106000030SPEAKER ASM                   M IMCTM S5MB11 FTTL  07070IMCT  S5 PTB  00004                    0400 SR        000000000000 FUJITSU TEN (THAILAN17076ML0005005                                                                                                                              *          20161223IMF1612239.TXT
MDEDGD283509201701                D89828070100PV1D20170106000060SPEAKER ASM                   M IMCTM S5MB11 FTTL  07070IMCT  S5 PTB  00004                    0900 SR        000000000000 FUJITSU TEN (THAILAN17066NL000300317076ML0006006                                                                                                                *          20161223IMF1612239.TXT
MDEDGD283510201701                D89828070100PV1D20170106000090SPEAKER ASM                   M IMCTM S5MB11 FTTL  07070IMCT  S5 PTB  00004                    1300 SR        000000000000 FUJITSU TEN (THAILAN17018ML000200217066NL000400417085RL0015015                                                                                                  *          20161223IMF1612239.TXT
MDEDGD283511201701                D89828070100PV4D20170106000030SPEAKER ASM                   M IMCTM S0FL05 FTTL  07070IMCT  S0 PTB  00004                    0900 SR        000000000000 FUJITSU TEN (THAILAN17044MU0001001                                                                                                                              *          20161223IMF1612239.TXT
MDEDGD283512201701                D89828070100PV4D20170106000030SPEAKER ASM                   M IMCTM S0FL05 FTTL  07070IMCT  S0 PTB  00004                    1300 SR        000000000000 FUJITSU TEN (THAILAN17044MU0002002                                                                                                                              *          20161223IMF1612239.TXT
MDEDGD283513201701                D89828070100PV4D20170106000030SPEAKER ASM                   M IMCTM S0FL05 FTTL  07070IMCT  S0 PTB  00004                    1600 SR        000000000000 FUJITSU TEN (THAILAN17016PU0001001                                                                                                                              *          20161223IMF1612239.TXT
MDEDGD283514201701                D89828070200PV1D20170105000030SPEAKER ASM                   M IMCTM S5MA14 FTTL  07070IMCT  S5 PTB  00005                    2230 SR        000000000000 FUJITSU TEN (THAILAN17014NL0001001                                                                                                                              *          20161223IMF1612239.TXT
MDEDGD283515201701                D89828070200PV1D20170106000060SPEAKER ASM                   M IMCTM S5MA14 FTTL  07070IMCT  S5 PTB  00005                    0230 SR        000000000000 FUJITSU TEN (THAILAN17029ML000300317031ML0002002                                                                                                                *          20161223IMF1612239.TXT
MDEDGD283516201701                D89828070200PV1D20170106000030SPEAKER ASM                   M IMCTM S5MA14 FTTL  07070IMCT  S5 PTB  00005                    1300 SR        000000000000 FUJITSU TEN (THAILAN17018ML0002002                                                                                                                              *          20161223IMF1612239.TXT
MDEDGD283517201701                D89828070200PV4D20170106000030SPEAKER ASM                   M IMCTM S0FR05 FTTL  07070IMCT  S0 PTB  00005                    1600 SR        000000000000 FUJITSU TEN (THAILAN17016PU0001001                                                                                                                              *          20161223IMF1612239.TXT
MDEDGD283518201701                D89828070300PT1D20170105000030SPEAKER ASM                   M IMCTM S5NB082FTTL  07070IMCT  S5 PTB  00015                    2230 SR        000000000000 FUJITSU TEN (THAILAN17014NL0001001                                                                                                                              *          20161223IMF1612239.TXT
MDEDGD283519201701                D89828070300PT1D20170106000060SPEAKER ASM                   M IMCTM S5NB082FTTL  07070IMCT  S5 PTB  00015                    0230 SR        000000000000 FUJITSU TEN (THAILAN17029ML000300317031ML0002002                                                                                                                *          20161223IMF1612239.TXT
MDEDGD283520201701                D89828070300PT1D20170106000030SPEAKER ASM                   M IMCTM S5NB082FTTL  07070IMCT  S5 PTB  00015                    0900 SR        000000000000 FUJITSU TEN (THAILAN17066NL0003003                                                                                                                              *          20161223IMF1612239.TXT
MDEDGD283521201701                D89828070300PT1D20170106000060SPEAKER ASM                   M IMCTM S5NB082FTTL  07070IMCT  S5 PTB  00015                    1300 SR        000000000000 FUJITSU TEN (THAILAN17018ML000200217066NL0004004                                                                                                                *          20161223IMF1612239.TXT
MDEDGD283522201701                D89828070300PT4D20170106000030SPEAKER ASM                   M IMCTM S9TS02 FTTL  07070IMCT  S9 PTB  00015                    1600 SR        000000000000 FUJITSU TEN (THAILAN17016PU0001001                                                                                                                              *          20161223IMF1612239.TXT
MDEDGD283523201701                D89829645300PT1D20170105000015RADIO;ASM DVD                 M IMCTM S5NC06 FTTL  07070IMCT  S5 PTB  00003                    2230 SR        000000000000 FUJITSU TEN (THAILAN17014NL0001001                                                                                                                              *          20161223IMF1612239.TXT
MDEDGD283524201701                D89829645300PT1D20170106000015RADIO;ASM DVD                 M IMCTM S5NC06 FTTL  07070IMCT  S5 PTB  00003                    1300 SR        000000000000 FUJITSU TEN (THAILAN17018ML0002002                                                                                                                              *          20161223IMF1612239.TXT
MDEUGD268030201701                D89828070100PT4U20170105000030SPEAKER ASM                   M IMCTM S0FL05 FTTL  07070IMCT  S0 PTB  00004                    2230 SR        000000000000 FUJITSU TEN (THAILAN170C16U0087087                                                                                                                              *          20161223IMF1612239.TXT
MDEUGD268031201701                D89828070100PT4U20170106000030SPEAKER ASM                   M IMCTM S0FL05 FTTL  07070IMCT  S0 PTB  00004                    0230 SR        000000000000 FUJITSU TEN (THAILAN170C16U0088088                                                                                                                              *          20161223IMF1612239.TXT
MDEUGD268032201701                D89828070100PT4U20170106000030SPEAKER ASM                   M IMCTM S0FL05 FTTL  07070IMCT  S0 PTB  00004                    0900 SR        000000000000 FUJITSU TEN (THAILAN170C16U0089089                                                                                                                              *          20161223IMF1612239.TXT
MDEUGD268033201701                D89828070100PT4U20170106000030SPEAKER ASM                   M IMCTM S0FL05 FTTL  07070IMCT  S0 PTB  00004                    1300 SR        000000000000 FUJITSU TEN (THAILAN170C02U0003003                                                                                                                              *          20161223IMF1612239.TXT
MDEUGD268034201701                D89828070100PT4U20170106000060SPEAKER ASM                   M IMCTM S0FL05 FTTL  07070IMCT  S0 PTB  00004                    1600 SR        000000000000 FUJITSU TEN (THAILAN170C04U0010010170C15U0014014                                                                                                                *          20161223IMF1612239.TXT
MDEUGD268035201701                D89828070200PV4U20170105000030SPEAKER ASM                   M IMCTM S0FR05 FTTL  07070IMCT  S0 PTB  00005                    2230 SR        000000000000 FUJITSU TEN (THAILAN170C16U0087087                                                                                                                              *          20161223IMF1612239.TXT
MDEUGD268036201701                D89828070200PV4U20170106000030SPEAKER ASM                   M IMCTM S0FR05 FTTL  07070IMCT  S0 PTB  00005                    0230 SR        000000000000 FUJITSU TEN (THAILAN170C16U0088088                                                                                                                              *          20161223IMF1612239.TXT
MDEUGD268037201701                D89828070200PV4U20170106000030SPEAKER ASM                   M IMCTM S0FR05 FTTL  07070IMCT  S0 PTB  00005                    0900 SR        000000000000 FUJITSU TEN (THAILAN170C16U0089089                                                                                                                              *          20161223IMF1612239.TXT
MDEUGD268038201701                D89828070200PV4U20170106000030SPEAKER ASM                   M IMCTM S0FR05 FTTL  07070IMCT  S0 PTB  00005                    1300 SR        000000000000 FUJITSU TEN (THAILAN170C02U0003003                                                                                                                              *          20161223IMF1612239.TXT
MDEUGD268039201701                D89828070200PV4U20170106000060SPEAKER ASM                   M IMCTM S0FR05 FTTL  07070IMCT  S0 PTB  00005                    1600 SR        000000000000 FUJITSU TEN (THAILAN170C04U0010010170C15U0014014                                                                                                                *          20161223IMF1612239.TXT
MDEUGD268040201701                D89828070300PT4U20170105000030SPEAKER ASM                   M IMCTM S9TS02 FTTL  07070IMCT  S9 PTB  00015                    2230 SR        000000000000 FUJITSU TEN (THAILAN170C16U0087087                                                                                                                              *          20161223IMF1612239.TXT
MDEUGD268041201701                D89828070300PT4U20170106000030SPEAKER ASM                   M IMCTM S9TS02 FTTL  07070IMCT  S9 PTB  00015                    0230 SR        000000000000 FUJITSU TEN (THAILAN170C16U0088088                                                                                                                              *          20161223IMF1612239.TXT
MDEUGD268042201701                D89828070300PT4U20170106000030SPEAKER ASM                   M IMCTM S9TS02 FTTL  07070IMCT  S9 PTB  00015                    0900 SR        000000000000 FUJITSU TEN (THAILAN170C16U0089089                                                                                                                              *          20161223IMF1612239.TXT
MDEUGD268043201701                D89828070300PT4U20170106000030SPEAKER ASM                   M IMCTM S9TS02 FTTL  07070IMCT  S9 PTB  00015                    1300 SR        000000000000 FUJITSU TEN (THAILAN170C02U0003003                                                                                                                              *          20161223IMF1612239.TXT
MDEUGD268044201701                D89828070300PT4U20170106000060SPEAKER ASM                   M IMCTM S9TS02 FTTL  07070IMCT  S9 PTB  00015                    1600 SR        000000000000 FUJITSU TEN (THAILAN170C04U0010010170C15U0014014                                                                                                                *          20161223IMF1612239.TXT
MDEUGD268045201701                D89829093600PT4U20170106000015RADIO;ASM DVD (A              M IMCTM S9CO001FTTL  07070IMCT  S9 X    00003                    1300 SR        000000000000 FUJITSU TEN (THAILAN170C02U0003003                                                                                                                              *          20161223IMF1612239.TXT
