REC2016122220161222ISUZU                              3      
MACK6D000371201612          IMKDC  89805293700P3YK20170109000001SPEAKER ASM                   M IMCTM IMKDC  FTTL  07070IMKDC 07   PTB00003    K293F7550   001 0000 ES        000000000000 FUJITSU TEN (THAILAN                                                                                                                                            *          20161222IMF1612222.TXT
MACK6D000372201612          IMKDC  89805294000P3YK20170109000006SPEAKER ASM                   M IMCTM IMKDC  FTTL  07070IMKDC 07   PTB00015    K293F7550   001 0000 ES        000000000000 FUJITSU TEN (THAILAN                                                                                                                                            *          20161222IMF1612222.TXT
MACK6D000373201612          IMKDC  89828070200P3YK20170109000002SPEAKER ASM                   M IMCTM IMKDC  FTTL  07070IMKDC 07 PTB  00005    K293F7550   001 0000 ES        000000000000 FUJITSU TEN (THAILAN                                                                                                                                            *          20161222IMF1612222.TXT
