REC2016121420161214ISUZU                              50     
MDDDGD250104201612                D89821984430PT1D20161218000030RADIO;AM/FM,CD                M IMCTM S5NC06 FTTL  07070IMCT  S5 PTB  00005                    0400 SR        000000000000 FUJITSU TEN (THAILAN170KNCL0047047                                                                                                                              *          20161214IMF1612144.TXT
MDDDGD250105201612                D89821984430PT1D20161219000030RADIO;AM/FM,CD                M IMCTM S5NC06 FTTL  07070IMCT  S5 PTB  00005                    1300 SR        000000000000 FUJITSU TEN (THAILAN170KRAL0020020                                                                                                                              *          20161214IMF1612144.TXT
MDDDGD250106201612                D89828070100PV1D20161217000120SPEAKER ASM                   M IMCTM S5MB11 FTTL  07070IMCT  S5 PTB  00004                    2230 SR        000000000000 FUJITSU TEN (THAILAN170KPDL0001001170KRML0002002                                                                                                                *          20161214IMF1612144.TXT
MDDDGD250107201612                D89828070100PV1D20161218000120SPEAKER ASM                   M IMCTM S5MB11 FTTL  07070IMCT  S5 PTB  00004                    0400 SR        000000000000 FUJITSU TEN (THAILAN170KNCL0047047170KPGL0007007                                                                                                                *          20161214IMF1612144.TXT
MDDDGD250108201612                D89828070100PV1D20161219000060SPEAKER ASM                   M IMCTM S5MB11 FTTL  07070IMCT  S5 PTB  00004                    0900 SR        000000000000 FUJITSU TEN (THAILAN170KPHL0018018                                                                                                                              *          20161214IMF1612144.TXT
MDDDGD250109201612                D89828070100PV1D20161219000120SPEAKER ASM                   M IMCTM S5MB11 FTTL  07070IMCT  S5 PTB  00004                    1300 SR        000000000000 FUJITSU TEN (THAILAN170KPEL0026026170KRAL0020020                                                                                                                *          20161214IMF1612144.TXT
MDDDGD250110201612                D89828070100PV1D20161219000060SPEAKER ASM                   M IMCTM S5MB11 FTTL  07070IMCT  S5 PTB  00004                    1600 SR        000000000000 FUJITSU TEN (THAILAN170KPFL0082082                                                                                                                              *          20161214IMF1612144.TXT
MDDDGD250111201612                D89828070200PV1D20161217000060SPEAKER ASM                   M IMCTM S5MA14 FTTL  07070IMCT  S5 PTB  00005                    2230 SR        000000000000 FUJITSU TEN (THAILAN170KRML0002002                                                                                                                              *          20161214IMF1612144.TXT
MDDDGD250112201612                D89828070300PT1D20161217000120SPEAKER ASM                   M IMCTM S5NB082FTTL  07070IMCT  S5 PTB  00015                    2230 SR        000000000000 FUJITSU TEN (THAILAN170KPDL0001001170KRML0002002                                                                                                                *          20161214IMF1612144.TXT
MDDDGD250113201612                D89828070300PT1D20161218000060SPEAKER ASM                   M IMCTM S5NB082FTTL  07070IMCT  S5 PTB  00015                    0400 SR        000000000000 FUJITSU TEN (THAILAN170KPGL0007007                                                                                                                              *          20161214IMF1612144.TXT
MDDDGD250114201612                D89828070300PT1D20161219000060SPEAKER ASM                   M IMCTM S5NB082FTTL  07070IMCT  S5 PTB  00015                    0900 SR        000000000000 FUJITSU TEN (THAILAN170KPHL0018018                                                                                                                              *          20161214IMF1612144.TXT
MDDDGD250115201612                D89828070300PT1D20161219000060SPEAKER ASM                   M IMCTM S5NB082FTTL  07070IMCT  S5 PTB  00015                    1300 SR        000000000000 FUJITSU TEN (THAILAN170KPEL0026026                                                                                                                              *          20161214IMF1612144.TXT
MDDDGD250116201612                D89828070300PT1D20161219000060SPEAKER ASM                   M IMCTM S5NB082FTTL  07070IMCT  S5 PTB  00015                    1600 SR        000000000000 FUJITSU TEN (THAILAN170KPFL0082082                                                                                                                              *          20161214IMF1612144.TXT
MDDDGD250117201612                D89831228300PT1D20161217000030RADIO;AM/FM,CD                M IMCTM S5NC06 FTTL  07070IMCT  S5 CPB  00003                    2230 SR        000000000000 FUJITSU TEN (THAILAN170KPDL0001001                                                                                                                              *          20161214IMF1612144.TXT
MDDDGD250118201612                D89831228300PT1D20161218000030RADIO;AM/FM,CD                M IMCTM S5NC06 FTTL  07070IMCT  S5 CPB  00003                    0400 SR        000000000000 FUJITSU TEN (THAILAN170KPGL0007007                                                                                                                              *          20161214IMF1612144.TXT
MDDDGD250119201612                D89831228300PT1D20161219000030RADIO;AM/FM,CD                M IMCTM S5NC06 FTTL  07070IMCT  S5 CPB  00003                    0900 SR        000000000000 FUJITSU TEN (THAILAN170KPHL0018018                                                                                                                              *          20161214IMF1612144.TXT
MDDDGD250120201612                D89831228300PT1D20161219000030RADIO;AM/FM,CD                M IMCTM S5NC06 FTTL  07070IMCT  S5 CPB  00003                    1300 SR        000000000000 FUJITSU TEN (THAILAN170KPEL0026026                                                                                                                              *          20161214IMF1612144.TXT
MDDDGD250121201612                D89831228300PT1D20161219000030RADIO;AM/FM,CD                M IMCTM S5NC06 FTTL  07070IMCT  S5 CPB  00003                    1600 SR        000000000000 FUJITSU TEN (THAILAN170KPFL0082082                                                                                                                              *          20161214IMF1612144.TXT
MDDUGD210026201612                D89828070100PT4U20161218000030SPEAKER ASM                   M IMCTM S0FL05 FTTL  07070IMCT  S0 PTB  00004                    0400 SR        000000000000 FUJITSU TEN (THAILAN170KUAU0026026                                                                                                                              *          20161214IMF1612144.TXT
MDDUGD210027201612                D89828070200PV4U20161218000030SPEAKER ASM                   M IMCTM S0FR05 FTTL  07070IMCT  S0 PTB  00005                    0400 SR        000000000000 FUJITSU TEN (THAILAN170KUAU0026026                                                                                                                              *          20161214IMF1612144.TXT
MDDUGD210028201612                D89828070300PT4U20161218000030SPEAKER ASM                   M IMCTM S9TS02 FTTL  07070IMCT  S9 PTB  00015                    0400 SR        000000000000 FUJITSU TEN (THAILAN170KUAU0026026                                                                                                                              *          20161214IMF1612144.TXT
MDDUGD210029201612                D89831228400PT4U20161218000015RADIO;AM/FM,CD                M IMCTM S9CO001FTTL  07070IMCT  S9 CPB  00003                    0400 SR        000000000000 FUJITSU TEN (THAILAN170KUAU0026026                                                                                                                              *          20161214IMF1612144.TXT
MDEDGD248590201612                D89805293700PV1D20161217000030SPEAKER ASM                   M IMCTM S5MB11 FTTL  07070IMCT  S5 PTB  00003                    2230 SR        000000000000 FUJITSU TEN (THAILAN15019FL0134134                                                                                                                              *          20161214IMF1612144.TXT
MDEDGD248591201612                D89805293700PV1D20161218000030SPEAKER ASM                   M IMCTM S5MB11 FTTL  07070IMCT  S5 PTB  00003                    0230 SR        000000000000 FUJITSU TEN (THAILAN15018FL0085085                                                                                                                              *          20161214IMF1612144.TXT
MDEDGD248592201612                D89828070100PV1D20161217000060SPEAKER ASM                   M IMCTM S5MB11 FTTL  07070IMCT  S5 PTB  00004                    2100 SR        000000000000 FUJITSU TEN (THAILAN17034ML000200217073ML0001001                                                                                                                *          20161214IMF1612144.TXT
MDEDGD248593201612                D89828070100PV1D20161217000030SPEAKER ASM                   M IMCTM S5MB11 FTTL  07070IMCT  S5 PTB  00004                    2230 SR        000000000000 FUJITSU TEN (THAILAN17034ML0003003                                                                                                                              *          20161214IMF1612144.TXT
MDEDGD248594201612                D89828070100PV1D20161219000060SPEAKER ASM                   M IMCTM S5MB11 FTTL  07070IMCT  S5 PTB  00004                    0900 SR        000000000000 FUJITSU TEN (THAILAN17034ML0004005                                                                                                                              *          20161214IMF1612144.TXT
MDEDGD248595201612                D89828070100PV4D20161218000030SPEAKER ASM                   M IMCTM S0FL05 FTTL  07070IMCT  S0 PTB  00004                    0230 SR        000000000000 FUJITSU TEN (THAILAN17034PU0004004                                                                                                                              *          20161214IMF1612144.TXT
MDEDGD248596201612                D89828070100PV4D20161219000030SPEAKER ASM                   M IMCTM S0FL05 FTTL  07070IMCT  S0 PTB  00004                    0900 SR        000000000000 FUJITSU TEN (THAILAN17058NU0002002                                                                                                                              *          20161214IMF1612144.TXT
MDEDGD248597201612                D89828070100PV4D20161219000030SPEAKER ASM                   M IMCTM S0FL05 FTTL  07070IMCT  S0 PTB  00004                    1600 SR        000000000000 FUJITSU TEN (THAILAN17024NU0003003                                                                                                                              *          20161214IMF1612144.TXT
MDEDGD248598201612                D89828070200PV4D20161218000030SPEAKER ASM                   M IMCTM S0FR05 FTTL  07070IMCT  S0 PTB  00005                    0230 SR        000000000000 FUJITSU TEN (THAILAN17034PU0004004                                                                                                                              *          20161214IMF1612144.TXT
MDEDGD248599201612                D89828070200PV4D20161219000030SPEAKER ASM                   M IMCTM S0FR05 FTTL  07070IMCT  S0 PTB  00005                    0900 SR        000000000000 FUJITSU TEN (THAILAN17058NU0002002                                                                                                                              *          20161214IMF1612144.TXT
MDEDGD248600201612                D89828070200PV4D20161219000030SPEAKER ASM                   M IMCTM S0FR05 FTTL  07070IMCT  S0 PTB  00005                    1600 SR        000000000000 FUJITSU TEN (THAILAN17024NU0003003                                                                                                                              *          20161214IMF1612144.TXT
MDEDGD248601201612                D89828070300PT1D20161217000030SPEAKER ASM                   M IMCTM S5NB082FTTL  07070IMCT  S5 PTB  00015                    2100 SR        000000000000 FUJITSU TEN (THAILAN17073ML0001001                                                                                                                              *          20161214IMF1612144.TXT
MDEDGD248602201612                D89828070300PT4D20161218000030SPEAKER ASM                   M IMCTM S9TS02 FTTL  07070IMCT  S9 PTB  00015                    0230 SR        000000000000 FUJITSU TEN (THAILAN17034PU0004004                                                                                                                              *          20161214IMF1612144.TXT
MDEDGD248603201612                D89828070300PT4D20161219000030SPEAKER ASM                   M IMCTM S9TS02 FTTL  07070IMCT  S9 PTB  00015                    0900 SR        000000000000 FUJITSU TEN (THAILAN17058NU0002002                                                                                                                              *          20161214IMF1612144.TXT
MDEDGD248604201612                D89828070300PT4D20161219000030SPEAKER ASM                   M IMCTM S9TS02 FTTL  07070IMCT  S9 PTB  00015                    1600 SR        000000000000 FUJITSU TEN (THAILAN17024NU0003003                                                                                                                              *          20161214IMF1612144.TXT
MDEDGD248605201612                D89829645700PT4D20161219000015RADIO;ASM DVD                 M IMCTM S9CO001FTTL  07070IMCT  S9 X    00003                    0900 SR        000000000000 FUJITSU TEN (THAILAN17058NU0002002                                                                                                                              *          20161214IMF1612144.TXT
MDEUGD238430201612                D89828070100PT4U20161217000060SPEAKER ASM                   M IMCTM S0FL05 FTTL  07070IMCT  S0 PTB  00004                    2230 SR        000000000000 FUJITSU TEN (THAILAN170C16U0069070                                                                                                                              *          20161214IMF1612144.TXT
MDEUGD238431201612                D89828070100PT4U20161219000030SPEAKER ASM                   M IMCTM S0FL05 FTTL  07070IMCT  S0 PTB  00004                    0900 SR        000000000000 FUJITSU TEN (THAILAN170C16U0071071                                                                                                                              *          20161214IMF1612144.TXT
MDEUGD238432201612                D89828070100PT4U20161219000060SPEAKER ASM                   M IMCTM S0FL05 FTTL  07070IMCT  S0 PTB  00004                    1300 SR        000000000000 FUJITSU TEN (THAILAN170C09U0027027170C15U0012012                                                                                                                *          20161214IMF1612144.TXT
MDEUGD238433201612                D89828070100PT4U20161219000030SPEAKER ASM                   M IMCTM S0FL05 FTTL  07070IMCT  S0 PTB  00004                    2100 SR        000000000000 FUJITSU TEN (THAILAN170C16U0072072                                                                                                                              *          20161214IMF1612144.TXT
MDEUGD238434201612                D89828070200PV4U20161217000060SPEAKER ASM                   M IMCTM S0FR05 FTTL  07070IMCT  S0 PTB  00005                    2230 SR        000000000000 FUJITSU TEN (THAILAN170C16U0069070                                                                                                                              *          20161214IMF1612144.TXT
MDEUGD238435201612                D89828070200PV4U20161219000030SPEAKER ASM                   M IMCTM S0FR05 FTTL  07070IMCT  S0 PTB  00005                    0900 SR        000000000000 FUJITSU TEN (THAILAN170C16U0071071                                                                                                                              *          20161214IMF1612144.TXT
MDEUGD238436201612                D89828070200PV4U20161219000060SPEAKER ASM                   M IMCTM S0FR05 FTTL  07070IMCT  S0 PTB  00005                    1300 SR        000000000000 FUJITSU TEN (THAILAN170C09U0027027170C15U0012012                                                                                                                *          20161214IMF1612144.TXT
MDEUGD238437201612                D89828070200PV4U20161219000030SPEAKER ASM                   M IMCTM S0FR05 FTTL  07070IMCT  S0 PTB  00005                    2100 SR        000000000000 FUJITSU TEN (THAILAN170C16U0072072                                                                                                                              *          20161214IMF1612144.TXT
MDEUGD238438201612                D89828070300PT4U20161217000060SPEAKER ASM                   M IMCTM S9TS02 FTTL  07070IMCT  S9 PTB  00015                    2230 SR        000000000000 FUJITSU TEN (THAILAN170C16U0069070                                                                                                                              *          20161214IMF1612144.TXT
MDEUGD238439201612                D89828070300PT4U20161219000030SPEAKER ASM                   M IMCTM S9TS02 FTTL  07070IMCT  S9 PTB  00015                    0900 SR        000000000000 FUJITSU TEN (THAILAN170C16U0071071                                                                                                                              *          20161214IMF1612144.TXT
MDEUGD238440201612                D89828070300PT4U20161219000060SPEAKER ASM                   M IMCTM S9TS02 FTTL  07070IMCT  S9 PTB  00015                    1300 SR        000000000000 FUJITSU TEN (THAILAN170C09U0027027170C15U0012012                                                                                                                *          20161214IMF1612144.TXT
MDEUGD238441201612                D89828070300PT4U20161219000030SPEAKER ASM                   M IMCTM S9TS02 FTTL  07070IMCT  S9 PTB  00015                    2100 SR        000000000000 FUJITSU TEN (THAILAN170C16U0072072                                                                                                                              *          20161214IMF1612144.TXT
