REC2016122020161220ISUZU                              43     
MDDDGD275908201612                D89821984430PT1D20161224000030RADIO;AM/FM,CD                M IMCTM S5NC06 FTTL  07070IMCT  S5 PTB  00005                    0230 SR        000000000000 FUJITSU TEN (THAILAN170KNCL0050050                                                                                                                              *          20161220IMF1612204.TXT
MDDDGD275909201612                D89821984430PT1D20161226000030RADIO;AM/FM,CD                M IMCTM S5NC06 FTTL  07070IMCT  S5 PTB  00005                    0900 SR        000000000000 FUJITSU TEN (THAILAN170KNEL0047047                                                                                                                              *          20161220IMF1612204.TXT
MDDDGD275910201612                D89828070100PV1D20161223000120SPEAKER ASM                   M IMCTM S5MB11 FTTL  07070IMCT  S5 PTB  00004                    2230 SR        000000000000 FUJITSU TEN (THAILAN170KPCL0031031170KPML0012012                                                                                                                *          20161220IMF1612204.TXT
MDDDGD275911201612                D89828070100PV1D20161224000060SPEAKER ASM                   M IMCTM S5MB11 FTTL  07070IMCT  S5 PTB  00004                    0230 SR        000000000000 FUJITSU TEN (THAILAN170KNCL0050050                                                                                                                              *          20161220IMF1612204.TXT
MDDDGD275912201612                D89828070100PV1D20161224000120SPEAKER ASM                   M IMCTM S5MB11 FTTL  07070IMCT  S5 PTB  00004                    0400 SR        000000000000 FUJITSU TEN (THAILAN170KPGL0011011170KRJL0014014                                                                                                                *          20161220IMF1612204.TXT
MDDDGD275913201612                D89828070100PV1D20161226000120SPEAKER ASM                   M IMCTM S5MB11 FTTL  07070IMCT  S5 PTB  00004                    0900 SR        000000000000 FUJITSU TEN (THAILAN170KNEL0047047170KRJL0015015                                                                                                                *          20161220IMF1612204.TXT
MDDDGD275914201612                D89828070100PV1D20161226000120SPEAKER ASM                   M IMCTM S5MB11 FTTL  07070IMCT  S5 PTB  00004                    1300 SR        000000000000 FUJITSU TEN (THAILAN170KRCL0012012170KRML0004004                                                                                                                *          20161220IMF1612204.TXT
MDDDGD275915201612                D89828070200PV1D20161224000060SPEAKER ASM                   M IMCTM S5MA14 FTTL  07070IMCT  S5 PTB  00005                    0400 SR        000000000000 FUJITSU TEN (THAILAN170KRJL0014014                                                                                                                              *          20161220IMF1612204.TXT
MDDDGD275916201612                D89828070200PV1D20161226000060SPEAKER ASM                   M IMCTM S5MA14 FTTL  07070IMCT  S5 PTB  00005                    0900 SR        000000000000 FUJITSU TEN (THAILAN170KRJL0015015                                                                                                                              *          20161220IMF1612204.TXT
MDDDGD275917201612                D89828070200PV1D20161226000120SPEAKER ASM                   M IMCTM S5MA14 FTTL  07070IMCT  S5 PTB  00005                    1300 SR        000000000000 FUJITSU TEN (THAILAN170KRCL0012012170KRML0004004                                                                                                                *          20161220IMF1612204.TXT
MDDDGD275918201612                D89828070300PT1D20161223000120SPEAKER ASM                   M IMCTM S5NB082FTTL  07070IMCT  S5 PTB  00015                    2230 SR        000000000000 FUJITSU TEN (THAILAN170KPCL0031031170KPML0012012                                                                                                                *          20161220IMF1612204.TXT
MDDDGD275919201612                D89828070300PT1D20161224000120SPEAKER ASM                   M IMCTM S5NB082FTTL  07070IMCT  S5 PTB  00015                    0400 SR        000000000000 FUJITSU TEN (THAILAN170KPGL0011011170KRJL0014014                                                                                                                *          20161220IMF1612204.TXT
MDDDGD275920201612                D89828070300PT1D20161226000060SPEAKER ASM                   M IMCTM S5NB082FTTL  07070IMCT  S5 PTB  00015                    0900 SR        000000000000 FUJITSU TEN (THAILAN170KRJL0015015                                                                                                                              *          20161220IMF1612204.TXT
MDDDGD275921201612                D89828070300PT1D20161226000120SPEAKER ASM                   M IMCTM S5NB082FTTL  07070IMCT  S5 PTB  00015                    1300 SR        000000000000 FUJITSU TEN (THAILAN170KRCL0012012170KRML0004004                                                                                                                *          20161220IMF1612204.TXT
MDDDGD275922201612                D89831228300PT1D20161223000030RADIO;AM/FM,CD                M IMCTM S5NC06 FTTL  07070IMCT  S5 CPB  00003                    2230 SR        000000000000 FUJITSU TEN (THAILAN170KPCL0031031                                                                                                                              *          20161220IMF1612204.TXT
MDDDGD275923201612                D89831228300PT1D20161224000030RADIO;AM/FM,CD                M IMCTM S5NC06 FTTL  07070IMCT  S5 CPB  00003                    0400 SR        000000000000 FUJITSU TEN (THAILAN170KPGL0011011                                                                                                                              *          20161220IMF1612204.TXT
MDDDGD275924201612                D89831228400PT1D20161226000030RADIO;AM/FM,CD                M IMCTM S5NC06 FTTL  07070IMCT  S5 CPB  00003                    1300 SR        000000000000 FUJITSU TEN (THAILAN170KRCL0012012                                                                                                                              *          20161220IMF1612204.TXT
MDDUGD213930201612                D89828070100PT4U20161224000030SPEAKER ASM                   M IMCTM S0FL05 FTTL  07070IMCT  S0 PTB  00004                    0230 SR        000000000000 FUJITSU TEN (THAILAN170KUAU0029029                                                                                                                              *          20161220IMF1612204.TXT
MDDUGD213931201612                D89828070200PV4U20161224000030SPEAKER ASM                   M IMCTM S0FR05 FTTL  07070IMCT  S0 PTB  00005                    0230 SR        000000000000 FUJITSU TEN (THAILAN170KUAU0029029                                                                                                                              *          20161220IMF1612204.TXT
MDDUGD213932201612                D89828070300PT4U20161224000030SPEAKER ASM                   M IMCTM S9TS02 FTTL  07070IMCT  S9 PTB  00015                    0230 SR        000000000000 FUJITSU TEN (THAILAN170KUAU0029029                                                                                                                              *          20161220IMF1612204.TXT
MDDUGD213933201612                D89831228400PT4U20161224000015RADIO;AM/FM,CD                M IMCTM S9CO001FTTL  07070IMCT  S9 CPB  00003                    0230 SR        000000000000 FUJITSU TEN (THAILAN170KUAU0029029                                                                                                                              *          20161220IMF1612204.TXT
MDEDGD272099201612                D89805293700PV4D20161226000030SPEAKER ASM                   M IMCTM S0FR05 FTTL  07070IMCT  S0 PTB  00003                    1600 SR        000000000000 FUJITSU TEN (THAILAN15019FU0030030                                                                                                                              *          20161220IMF1612204.TXT
MDEDGD272100201612                D89828070100PV1D20161223000060SPEAKER ASM                   M IMCTM S5MB11 FTTL  07070IMCT  S5 PTB  00004                    2230 SR        000000000000 FUJITSU TEN (THAILAN17016PL000500517076ML0004004                                                                                                                *          20161220IMF1612204.TXT
MDEDGD272101201612                D89828070100PV4D20161224000030SPEAKER ASM                   M IMCTM S0FL05 FTTL  07070IMCT  S0 PTB  00004                    0230 SR        000000000000 FUJITSU TEN (THAILAN17034PU0008008                                                                                                                              *          20161220IMF1612204.TXT
MDEDGD272102201612                D89828070200PV1D20161223000030SPEAKER ASM                   M IMCTM S5MA14 FTTL  07070IMCT  S5 PTB  00005                    2230 SR        000000000000 FUJITSU TEN (THAILAN17016PL0005005                                                                                                                              *          20161220IMF1612204.TXT
MDEDGD272103201612                D89828070200PV4D20161224000030SPEAKER ASM                   M IMCTM S0FR05 FTTL  07070IMCT  S0 PTB  00005                    0230 SR        000000000000 FUJITSU TEN (THAILAN17034PU0008008                                                                                                                              *          20161220IMF1612204.TXT
MDEDGD272104201612                D89828070300PT1D20161223000030SPEAKER ASM                   M IMCTM S5NB082FTTL  07070IMCT  S5 PTB  00015                    2230 SR        000000000000 FUJITSU TEN (THAILAN17016PL0005005                                                                                                                              *          20161220IMF1612204.TXT
MDEDGD272105201612                D89828070300PT4D20161224000030SPEAKER ASM                   M IMCTM S9TS02 FTTL  07070IMCT  S9 PTB  00015                    0230 SR        000000000000 FUJITSU TEN (THAILAN17034PU0008008                                                                                                                              *          20161220IMF1612204.TXT
MDEUGD259328201612                D89828070100PT4U20161223000030SPEAKER ASM                   M IMCTM S0FL05 FTTL  07070IMCT  S0 PTB  00004                    2100 SR        000000000000 FUJITSU TEN (THAILAN170C13U0049049                                                                                                                              *          20161220IMF1612204.TXT
MDEUGD259329201612                D89828070100PT4U20161223000030SPEAKER ASM                   M IMCTM S0FL05 FTTL  07070IMCT  S0 PTB  00004                    2230 SR        000000000000 FUJITSU TEN (THAILAN170C03U0010010                                                                                                                              *          20161220IMF1612204.TXT
MDEUGD259330201612                D89828070100PT4U20161224000030SPEAKER ASM                   M IMCTM S0FL05 FTTL  07070IMCT  S0 PTB  00004                    0400 SR        000000000000 FUJITSU TEN (THAILAN170C12U0019019                                                                                                                              *          20161220IMF1612204.TXT
MDEUGD259331201612                D89828070100PT4U20161226000060SPEAKER ASM                   M IMCTM S0FL05 FTTL  07070IMCT  S0 PTB  00004                    1300 SR        000000000000 FUJITSU TEN (THAILAN170C13U0050050170C16U0085085                                                                                                                *          20161220IMF1612204.TXT
MDEUGD259332201612                D89828070100PT4U20161226000030SPEAKER ASM                   M IMCTM S0FL05 FTTL  07070IMCT  S0 PTB  00004                    2100 SR        000000000000 FUJITSU TEN (THAILAN170C13U0051051                                                                                                                              *          20161220IMF1612204.TXT
MDEUGD259333201612                D89828070200PV4U20161223000030SPEAKER ASM                   M IMCTM S0FR05 FTTL  07070IMCT  S0 PTB  00005                    2100 SR        000000000000 FUJITSU TEN (THAILAN170C13U0049049                                                                                                                              *          20161220IMF1612204.TXT
MDEUGD259334201612                D89828070200PV4U20161223000030SPEAKER ASM                   M IMCTM S0FR05 FTTL  07070IMCT  S0 PTB  00005                    2230 SR        000000000000 FUJITSU TEN (THAILAN170C03U0010010                                                                                                                              *          20161220IMF1612204.TXT
MDEUGD259335201612                D89828070200PV4U20161224000030SPEAKER ASM                   M IMCTM S0FR05 FTTL  07070IMCT  S0 PTB  00005                    0400 SR        000000000000 FUJITSU TEN (THAILAN170C12U0019019                                                                                                                              *          20161220IMF1612204.TXT
MDEUGD259336201612                D89828070200PV4U20161226000060SPEAKER ASM                   M IMCTM S0FR05 FTTL  07070IMCT  S0 PTB  00005                    1300 SR        000000000000 FUJITSU TEN (THAILAN170C13U0050050170C16U0085085                                                                                                                *          20161220IMF1612204.TXT
MDEUGD259337201612                D89828070200PV4U20161226000030SPEAKER ASM                   M IMCTM S0FR05 FTTL  07070IMCT  S0 PTB  00005                    2100 SR        000000000000 FUJITSU TEN (THAILAN170C13U0051051                                                                                                                              *          20161220IMF1612204.TXT
MDEUGD259338201612                D89828070300PT4U20161223000030SPEAKER ASM                   M IMCTM S9TS02 FTTL  07070IMCT  S9 PTB  00015                    2100 SR        000000000000 FUJITSU TEN (THAILAN170C13U0049049                                                                                                                              *          20161220IMF1612204.TXT
MDEUGD259339201612                D89828070300PT4U20161223000030SPEAKER ASM                   M IMCTM S9TS02 FTTL  07070IMCT  S9 PTB  00015                    2230 SR        000000000000 FUJITSU TEN (THAILAN170C03U0010010                                                                                                                              *          20161220IMF1612204.TXT
MDEUGD259340201612                D89828070300PT4U20161224000030SPEAKER ASM                   M IMCTM S9TS02 FTTL  07070IMCT  S9 PTB  00015                    0400 SR        000000000000 FUJITSU TEN (THAILAN170C12U0019019                                                                                                                              *          20161220IMF1612204.TXT
MDEUGD259341201612                D89828070300PT4U20161226000060SPEAKER ASM                   M IMCTM S9TS02 FTTL  07070IMCT  S9 PTB  00015                    1300 SR        000000000000 FUJITSU TEN (THAILAN170C13U0050050170C16U0085085                                                                                                                *          20161220IMF1612204.TXT
MDEUGD259342201612                D89828070300PT4U20161226000030SPEAKER ASM                   M IMCTM S9TS02 FTTL  07070IMCT  S9 PTB  00015                    2100 SR        000000000000 FUJITSU TEN (THAILAN170C13U0051051                                                                                                                              *          20161220IMF1612204.TXT
