REC2016121320161213ISUZU                              64     
MDDDGD246043201612                D89821984430PT1D20161217000030RADIO;AM/FM,CD                M IMCTM S5NC06 FTTL  07070IMCT  S5 PTB  00005                    1300 SR        000000000000 FUJITSU TEN (THAILAN170KNEL0043043                                                                                                                              *          20161213IMF1612133.TXT
MDDDGD246044201612                D89828070100PV1D20161216000060SPEAKER ASM                   M IMCTM S5MB11 FTTL  07070IMCT  S5 PTB  00004                    2100 SR        000000000000 FUJITSU TEN (THAILAN170KPFL0079079                                                                                                                              *          20161213IMF1612133.TXT
MDDDGD246045201612                D89828070100PV1D20161216000060SPEAKER ASM                   M IMCTM S5MB11 FTTL  07070IMCT  S5 PTB  00004                    2230 SR        000000000000 FUJITSU TEN (THAILAN170KPFL0080080                                                                                                                              *          20161213IMF1612133.TXT
MDDDGD246046201612                D89828070100PV1D20161217000060SPEAKER ASM                   M IMCTM S5MB11 FTTL  07070IMCT  S5 PTB  00004                    0400 SR        000000000000 FUJITSU TEN (THAILAN170KPFL0081081                                                                                                                              *          20161213IMF1612133.TXT
MDDDGD246047201612                D89828070100PV1D20161217000060SPEAKER ASM                   M IMCTM S5MB11 FTTL  07070IMCT  S5 PTB  00004                    0900 SR        000000000000 FUJITSU TEN (THAILAN170KNBL0014014                                                                                                                              *          20161213IMF1612133.TXT
MDDDGD246048201612                D89828070100PV1D20161217000060SPEAKER ASM                   M IMCTM S5MB11 FTTL  07070IMCT  S5 PTB  00004                    1300 SR        000000000000 FUJITSU TEN (THAILAN170KNEL0043043                                                                                                                              *          20161213IMF1612133.TXT
MDDDGD246049201612                D89828070300PT1D20161216000060SPEAKER ASM                   M IMCTM S5NB082FTTL  07070IMCT  S5 PTB  00015                    2100 SR        000000000000 FUJITSU TEN (THAILAN170KPFL0079079                                                                                                                              *          20161213IMF1612133.TXT
MDDDGD246050201612                D89828070300PT1D20161216000060SPEAKER ASM                   M IMCTM S5NB082FTTL  07070IMCT  S5 PTB  00015                    2230 SR        000000000000 FUJITSU TEN (THAILAN170KPFL0080080                                                                                                                              *          20161213IMF1612133.TXT
MDDDGD246051201612                D89828070300PT1D20161217000060SPEAKER ASM                   M IMCTM S5NB082FTTL  07070IMCT  S5 PTB  00015                    0400 SR        000000000000 FUJITSU TEN (THAILAN170KPFL0081081                                                                                                                              *          20161213IMF1612133.TXT
MDDDGD246052201612                D89831228300PT1D20161216000030RADIO;AM/FM,CD                M IMCTM S5NC06 FTTL  07070IMCT  S5 CPB  00003                    2100 SR        000000000000 FUJITSU TEN (THAILAN170KPFL0079079                                                                                                                              *          20161213IMF1612133.TXT
MDDDGD246053201612                D89831228300PT1D20161216000030RADIO;AM/FM,CD                M IMCTM S5NC06 FTTL  07070IMCT  S5 CPB  00003                    2230 SR        000000000000 FUJITSU TEN (THAILAN170KPFL0080080                                                                                                                              *          20161213IMF1612133.TXT
MDDDGD246054201612                D89831228300PT1D20161217000030RADIO;AM/FM,CD                M IMCTM S5NC06 FTTL  07070IMCT  S5 CPB  00003                    0400 SR        000000000000 FUJITSU TEN (THAILAN170KPFL0081081                                                                                                                              *          20161213IMF1612133.TXT
MDDUGD208348201612                D89828070100PT4U20161216000030SPEAKER ASM                   M IMCTM S0FL05 FTTL  07070IMCT  S0 PTB  00004                    2230 SR        000000000000 FUJITSU TEN (THAILAN170KUAU0023023                                                                                                                              *          20161213IMF1612133.TXT
MDDUGD208349201612                D89828070100PT4U20161217000030SPEAKER ASM                   M IMCTM S0FL05 FTTL  07070IMCT  S0 PTB  00004                    0900 SR        000000000000 FUJITSU TEN (THAILAN170KUAU0024024                                                                                                                              *          20161213IMF1612133.TXT
MDDUGD208350201612                D89828070100PT4U20161217000030SPEAKER ASM                   M IMCTM S0FL05 FTTL  07070IMCT  S0 PTB  00004                    1300 SR        000000000000 FUJITSU TEN (THAILAN170KUAU0025025                                                                                                                              *          20161213IMF1612133.TXT
MDDUGD208351201612                D89828070200PV4U20161216000030SPEAKER ASM                   M IMCTM S0FR05 FTTL  07070IMCT  S0 PTB  00005                    2230 SR        000000000000 FUJITSU TEN (THAILAN170KUAU0023023                                                                                                                              *          20161213IMF1612133.TXT
MDDUGD208352201612                D89828070200PV4U20161217000030SPEAKER ASM                   M IMCTM S0FR05 FTTL  07070IMCT  S0 PTB  00005                    0900 SR        000000000000 FUJITSU TEN (THAILAN170KUAU0024024                                                                                                                              *          20161213IMF1612133.TXT
MDDUGD208353201612                D89828070200PV4U20161217000030SPEAKER ASM                   M IMCTM S0FR05 FTTL  07070IMCT  S0 PTB  00005                    1300 SR        000000000000 FUJITSU TEN (THAILAN170KUAU0025025                                                                                                                              *          20161213IMF1612133.TXT
MDDUGD208354201612                D89828070300PT4U20161216000030SPEAKER ASM                   M IMCTM S9TS02 FTTL  07070IMCT  S9 PTB  00015                    2230 SR        000000000000 FUJITSU TEN (THAILAN170KUAU0023023                                                                                                                              *          20161213IMF1612133.TXT
MDDUGD208355201612                D89828070300PT4U20161217000030SPEAKER ASM                   M IMCTM S9TS02 FTTL  07070IMCT  S9 PTB  00015                    0900 SR        000000000000 FUJITSU TEN (THAILAN170KUAU0024024                                                                                                                              *          20161213IMF1612133.TXT
MDDUGD208356201612                D89828070300PT4U20161217000030SPEAKER ASM                   M IMCTM S9TS02 FTTL  07070IMCT  S9 PTB  00015                    1300 SR        000000000000 FUJITSU TEN (THAILAN170KUAU0025025                                                                                                                              *          20161213IMF1612133.TXT
MDDUGD208357201612                D89831228400PT4U20161216000015RADIO;AM/FM,CD                M IMCTM S9CO001FTTL  07070IMCT  S9 CPB  00003                    2230 SR        000000000000 FUJITSU TEN (THAILAN170KUAU0023023                                                                                                                              *          20161213IMF1612133.TXT
MDDUGD208358201612                D89831228400PT4U20161217000015RADIO;AM/FM,CD                M IMCTM S9CO001FTTL  07070IMCT  S9 CPB  00003                    0900 SR        000000000000 FUJITSU TEN (THAILAN170KUAU0024024                                                                                                                              *          20161213IMF1612133.TXT
MDDUGD208359201612                D89831228400PT4U20161217000015RADIO;AM/FM,CD                M IMCTM S9CO001FTTL  07070IMCT  S9 CPB  00003                    1300 SR        000000000000 FUJITSU TEN (THAILAN170KUAU0025025                                                                                                                              *          20161213IMF1612133.TXT
MDEDGD242408201612                D89828070100PV1D20161216000090SPEAKER ASM                   M IMCTM S5MB11 FTTL  07070IMCT  S5 PTB  00004                    2230 SR        000000000000 FUJITSU TEN (THAILAN17015NL000300417085ML0003003                                                                                                                *          20161213IMF1612133.TXT
MDEDGD242409201612                D89828070100PV1D20161217000060SPEAKER ASM                   M IMCTM S5MB11 FTTL  07070IMCT  S5 PTB  00004                    0230 SR        000000000000 FUJITSU TEN (THAILAN17023NL000500517085ML0004004                                                                                                                *          20161213IMF1612133.TXT
MDEDGD242410201612                D89828070100PV1D20161217000030SPEAKER ASM                   M IMCTM S5MB11 FTTL  07070IMCT  S5 PTB  00004                    0400 SR        000000000000 FUJITSU TEN (THAILAN17016PL0002002                                                                                                                              *          20161213IMF1612133.TXT
MDEDGD242411201612                D89828070100PV1D20161217000060SPEAKER ASM                   M IMCTM S5MB11 FTTL  07070IMCT  S5 PTB  00004                    0900 SR        000000000000 FUJITSU TEN (THAILAN17016PL000300317068NL0002002                                                                                                                *          20161213IMF1612133.TXT
MDEDGD242412201612                D89828070100PV1D20161217000090SPEAKER ASM                   M IMCTM S5MB11 FTTL  07070IMCT  S5 PTB  00004                    1300 SR        000000000000 FUJITSU TEN (THAILAN17034PL000500617077ML0001001                                                                                                                *          20161213IMF1612133.TXT
MDEDGD242413201612                D89828070100PV1D20161217000030SPEAKER ASM                   M IMCTM S5MB11 FTTL  07070IMCT  S5 PTB  00004                    1600 SR        000000000000 FUJITSU TEN (THAILAN17034PL0007007                                                                                                                              *          20161213IMF1612133.TXT
MDEDGD242414201612                D89828070100PV4D20161217000030SPEAKER ASM                   M IMCTM S0FL05 FTTL  07070IMCT  S0 PTB  00004                    0400 SR        000000000000 FUJITSU TEN (THAILAN17034PU0003003                                                                                                                              *          20161213IMF1612133.TXT
MDEDGD242415201612                D89828070100PV4D20161217000030SPEAKER ASM                   M IMCTM S0FL05 FTTL  07070IMCT  S0 PTB  00004                    2100 SR        000000000000 FUJITSU TEN (THAILAN17058NU0001001                                                                                                                              *          20161213IMF1612133.TXT
MDEDGD242416201612                D89828070200PV1D20161216000090SPEAKER ASM                   M IMCTM S5MA14 FTTL  07070IMCT  S5 PTB  00005                    2230 SR        000000000000 FUJITSU TEN (THAILAN17015NL000300417085ML0003003                                                                                                                *          20161213IMF1612133.TXT
MDEDGD242417201612                D89828070200PV1D20161217000060SPEAKER ASM                   M IMCTM S5MA14 FTTL  07070IMCT  S5 PTB  00005                    0230 SR        000000000000 FUJITSU TEN (THAILAN17023NL000500517085ML0004004                                                                                                                *          20161213IMF1612133.TXT
MDEDGD242418201612                D89828070200PV1D20161217000030SPEAKER ASM                   M IMCTM S5MA14 FTTL  07070IMCT  S5 PTB  00005                    0400 SR        000000000000 FUJITSU TEN (THAILAN17016PL0002002                                                                                                                              *          20161213IMF1612133.TXT
MDEDGD242419201612                D89828070200PV1D20161217000030SPEAKER ASM                   M IMCTM S5MA14 FTTL  07070IMCT  S5 PTB  00005                    0900 SR        000000000000 FUJITSU TEN (THAILAN17016PL0003003                                                                                                                              *          20161213IMF1612133.TXT
MDEDGD242420201612                D89828070200PV1D20161217000060SPEAKER ASM                   M IMCTM S5MA14 FTTL  07070IMCT  S5 PTB  00005                    1300 SR        000000000000 FUJITSU TEN (THAILAN17034PL0005006                                                                                                                              *          20161213IMF1612133.TXT
MDEDGD242421201612                D89828070200PV1D20161217000030SPEAKER ASM                   M IMCTM S5MA14 FTTL  07070IMCT  S5 PTB  00005                    1600 SR        000000000000 FUJITSU TEN (THAILAN17034PL0007007                                                                                                                              *          20161213IMF1612133.TXT
MDEDGD242422201612                D89828070200PV4D20161217000030SPEAKER ASM                   M IMCTM S0FR05 FTTL  07070IMCT  S0 PTB  00005                    0400 SR        000000000000 FUJITSU TEN (THAILAN17034PU0003003                                                                                                                              *          20161213IMF1612133.TXT
MDEDGD242423201612                D89828070200PV4D20161217000030SPEAKER ASM                   M IMCTM S0FR05 FTTL  07070IMCT  S0 PTB  00005                    2100 SR        000000000000 FUJITSU TEN (THAILAN17058NU0001001                                                                                                                              *          20161213IMF1612133.TXT
MDEDGD242424201612                D89828070300PT1D20161216000090SPEAKER ASM                   M IMCTM S5NB082FTTL  07070IMCT  S5 PTB  00015                    2230 SR        000000000000 FUJITSU TEN (THAILAN17015NL000300417085ML0003003                                                                                                                *          20161213IMF1612133.TXT
MDEDGD242425201612                D89828070300PT1D20161217000060SPEAKER ASM                   M IMCTM S5NB082FTTL  07070IMCT  S5 PTB  00015                    0230 SR        000000000000 FUJITSU TEN (THAILAN17023NL000500517085ML0004004                                                                                                                *          20161213IMF1612133.TXT
MDEDGD242426201612                D89828070300PT1D20161217000030SPEAKER ASM                   M IMCTM S5NB082FTTL  07070IMCT  S5 PTB  00015                    0400 SR        000000000000 FUJITSU TEN (THAILAN17016PL0002002                                                                                                                              *          20161213IMF1612133.TXT
MDEDGD242427201612                D89828070300PT1D20161217000060SPEAKER ASM                   M IMCTM S5NB082FTTL  07070IMCT  S5 PTB  00015                    0900 SR        000000000000 FUJITSU TEN (THAILAN17016PL000300317068NL0002002                                                                                                                *          20161213IMF1612133.TXT
MDEDGD242428201612                D89828070300PT1D20161217000060SPEAKER ASM                   M IMCTM S5NB082FTTL  07070IMCT  S5 PTB  00015                    1300 SR        000000000000 FUJITSU TEN (THAILAN17034PL0005006                                                                                                                              *          20161213IMF1612133.TXT
MDEDGD242429201612                D89828070300PT1D20161217000030SPEAKER ASM                   M IMCTM S5NB082FTTL  07070IMCT  S5 PTB  00015                    1600 SR        000000000000 FUJITSU TEN (THAILAN17034PL0007007                                                                                                                              *          20161213IMF1612133.TXT
MDEDGD242430201612                D89828070300PT4D20161217000030SPEAKER ASM                   M IMCTM S9TS02 FTTL  07070IMCT  S9 PTB  00015                    0400 SR        000000000000 FUJITSU TEN (THAILAN17034PU0003003                                                                                                                              *          20161213IMF1612133.TXT
MDEDGD242431201612                D89828070300PT4D20161217000030SPEAKER ASM                   M IMCTM S9TS02 FTTL  07070IMCT  S9 PTB  00015                    2100 SR        000000000000 FUJITSU TEN (THAILAN17058NU0001001                                                                                                                              *          20161213IMF1612133.TXT
MDEDGD242432201612                D89829645700PT4D20161217000015RADIO;ASM DVD                 M IMCTM S9CO001FTTL  07070IMCT  S9 X    00003                    2100 SR        000000000000 FUJITSU TEN (THAILAN17058NU0001001                                                                                                                              *          20161213IMF1612133.TXT
MDEUGD234507201612                D89828070100PT4U20161216000030SPEAKER ASM                   M IMCTM S0FL05 FTTL  07070IMCT  S0 PTB  00004                    2230 SR        000000000000 FUJITSU TEN (THAILAN170C12U0016016                                                                                                                              *          20161213IMF1612133.TXT
MDEUGD234508201612                D89828070100PT4U20161217000030SPEAKER ASM                   M IMCTM S0FL05 FTTL  07070IMCT  S0 PTB  00004                    0230 SR        000000000000 FUJITSU TEN (THAILAN170C13U0045045                                                                                                                              *          20161213IMF1612133.TXT
MDEUGD234509201612                D89828070100PT4U20161217000030SPEAKER ASM                   M IMCTM S0FL05 FTTL  07070IMCT  S0 PTB  00004                    0400 SR        000000000000 FUJITSU TEN (THAILAN170C16U0068068                                                                                                                              *          20161213IMF1612133.TXT
MDEUGD234510201612                D89828070100PT4U20161217000030SPEAKER ASM                   M IMCTM S0FL05 FTTL  07070IMCT  S0 PTB  00004                    1300 SR        000000000000 FUJITSU TEN (THAILAN170C04U0008008                                                                                                                              *          20161213IMF1612133.TXT
MDEUGD234511201612                D89828070100PT4U20161217000030SPEAKER ASM                   M IMCTM S0FL05 FTTL  07070IMCT  S0 PTB  00004                    1600 SR        000000000000 FUJITSU TEN (THAILAN170C08U0012012                                                                                                                              *          20161213IMF1612133.TXT
MDEUGD234512201612                D89828070200PV4U20161216000030SPEAKER ASM                   M IMCTM S0FR05 FTTL  07070IMCT  S0 PTB  00005                    2230 SR        000000000000 FUJITSU TEN (THAILAN170C12U0016016                                                                                                                              *          20161213IMF1612133.TXT
MDEUGD234513201612                D89828070200PV4U20161217000030SPEAKER ASM                   M IMCTM S0FR05 FTTL  07070IMCT  S0 PTB  00005                    0230 SR        000000000000 FUJITSU TEN (THAILAN170C13U0045045                                                                                                                              *          20161213IMF1612133.TXT
MDEUGD234514201612                D89828070200PV4U20161217000030SPEAKER ASM                   M IMCTM S0FR05 FTTL  07070IMCT  S0 PTB  00005                    0400 SR        000000000000 FUJITSU TEN (THAILAN170C16U0068068                                                                                                                              *          20161213IMF1612133.TXT
MDEUGD234515201612                D89828070200PV4U20161217000030SPEAKER ASM                   M IMCTM S0FR05 FTTL  07070IMCT  S0 PTB  00005                    1300 SR        000000000000 FUJITSU TEN (THAILAN170C04U0008008                                                                                                                              *          20161213IMF1612133.TXT
MDEUGD234516201612                D89828070200PV4U20161217000030SPEAKER ASM                   M IMCTM S0FR05 FTTL  07070IMCT  S0 PTB  00005                    1600 SR        000000000000 FUJITSU TEN (THAILAN170C08U0012012                                                                                                                              *          20161213IMF1612133.TXT
MDEUGD234517201612                D89828070300PT4U20161216000030SPEAKER ASM                   M IMCTM S9TS02 FTTL  07070IMCT  S9 PTB  00015                    2230 SR        000000000000 FUJITSU TEN (THAILAN170C12U0016016                                                                                                                              *          20161213IMF1612133.TXT
MDEUGD234518201612                D89828070300PT4U20161217000030SPEAKER ASM                   M IMCTM S9TS02 FTTL  07070IMCT  S9 PTB  00015                    0230 SR        000000000000 FUJITSU TEN (THAILAN170C13U0045045                                                                                                                              *          20161213IMF1612133.TXT
MDEUGD234519201612                D89828070300PT4U20161217000030SPEAKER ASM                   M IMCTM S9TS02 FTTL  07070IMCT  S9 PTB  00015                    0400 SR        000000000000 FUJITSU TEN (THAILAN170C16U0068068                                                                                                                              *          20161213IMF1612133.TXT
MDEUGD234520201612                D89828070300PT4U20161217000030SPEAKER ASM                   M IMCTM S9TS02 FTTL  07070IMCT  S9 PTB  00015                    1300 SR        000000000000 FUJITSU TEN (THAILAN170C04U0008008                                                                                                                              *          20161213IMF1612133.TXT
MDEUGD234521201612                D89828070300PT4U20161217000030SPEAKER ASM                   M IMCTM S9TS02 FTTL  07070IMCT  S9 PTB  00015                    1600 SR        000000000000 FUJITSU TEN (THAILAN170C08U0012012                                                                                                                              *          20161213IMF1612133.TXT
