REC2016122620161226ISUZU                              42     
MDDDGD294578201701                D89825217900PT1D20170107000030RADIO;AM/FM,CD,D              M IMCTM S5NC06 FTTL  07070IMCT  S5 PTB  00003                    1300 SR        000000000000 FUJITSU TEN (THAILAN170KPJL0025025                                                                                                                              *          20161226IMF1612263.TXT
MDDDGD294579201701                D89828070100PV1D20170106000060SPEAKER ASM                   M IMCTM S5MB11 FTTL  07070IMCT  S5 PTB  00004                    2230 SR        000000000000 FUJITSU TEN (THAILAN170KRFL0038038                                                                                                                              *          20161226IMF1612263.TXT
MDDDGD294580201701                D89828070100PV1D20170107000060SPEAKER ASM                   M IMCTM S5MB11 FTTL  07070IMCT  S5 PTB  00004                    0400 SR        000000000000 FUJITSU TEN (THAILAN170KPLL0006006                                                                                                                              *          20161226IMF1612263.TXT
MDDDGD294581201701                D89828070100PV1D20170107000060SPEAKER ASM                   M IMCTM S5MB11 FTTL  07070IMCT  S5 PTB  00004                    0900 SR        000000000000 FUJITSU TEN (THAILAN170KNAL0032032                                                                                                                              *          20161226IMF1612263.TXT
MDDDGD294582201701                D89828070100PV1D20170107000060SPEAKER ASM                   M IMCTM S5MB11 FTTL  07070IMCT  S5 PTB  00004                    1300 SR        000000000000 FUJITSU TEN (THAILAN170KPJL0025025                                                                                                                              *          20161226IMF1612263.TXT
MDDDGD294583201701                D89828070200PV1D20170106000060SPEAKER ASM                   M IMCTM S5MA14 FTTL  07070IMCT  S5 PTB  00005                    2230 SR        000000000000 FUJITSU TEN (THAILAN170KRFL0038038                                                                                                                              *          20161226IMF1612263.TXT
MDDDGD294584201701                D89828070300PT1D20170106000060SPEAKER ASM                   M IMCTM S5NB082FTTL  07070IMCT  S5 PTB  00015                    2230 SR        000000000000 FUJITSU TEN (THAILAN170KRFL0038038                                                                                                                              *          20161226IMF1612263.TXT
MDDDGD294585201701                D89828070300PT1D20170107000060SPEAKER ASM                   M IMCTM S5NB082FTTL  07070IMCT  S5 PTB  00015                    0400 SR        000000000000 FUJITSU TEN (THAILAN170KPLL0006006                                                                                                                              *          20161226IMF1612263.TXT
MDDDGD294586201701                D89828070300PT1D20170107000060SPEAKER ASM                   M IMCTM S5NB082FTTL  07070IMCT  S5 PTB  00015                    1300 SR        000000000000 FUJITSU TEN (THAILAN170KPJL0025025                                                                                                                              *          20161226IMF1612263.TXT
MDDDGD294587201701                D89829645900PT1D20170106000030RADIO;ASM DVD                 M IMCTM S5NC06 FTTL  07070IMCT  S5 CPB  00003                    2230 SR        000000000000 FUJITSU TEN (THAILAN170KRFL0038038                                                                                                                              *          20161226IMF1612263.TXT
MDEDGD292117201701                D89805293700PV1D20170107000060SPEAKER ASM                   M IMCTM S5MB11 FTTL  07070IMCT  S5 PTB  00003                    0230 SR        000000000000 FUJITSU TEN (THAILAN15018FL0089090                                                                                                                              *          20161226IMF1612263.TXT
MDEDGD292118201701                D89805293700PV4D20170107000060SPEAKER ASM                   M IMCTM S0FR05 FTTL  07070IMCT  S0 PTB  00003                    0230 SR        000000000000 FUJITSU TEN (THAILAN15019FU0036037                                                                                                                              *          20161226IMF1612263.TXT
MDEDGD292119201701                D89828070100PV1D20170106000090SPEAKER ASM                   M IMCTM S5MB11 FTTL  07070IMCT  S5 PTB  00004                    2230 SR        000000000000 FUJITSU TEN (THAILAN17008RL000100117071ML0002003                                                                                                                *          20161226IMF1612263.TXT
MDEDGD292120201701                D89828070100PV1D20170107000090SPEAKER ASM                   M IMCTM S5MB11 FTTL  07070IMCT  S5 PTB  00004                    0400 SR        000000000000 FUJITSU TEN (THAILAN17034ML000700717034PL0010011                                                                                                                *          20161226IMF1612263.TXT
MDEDGD292121201701                D89828070100PV1D20170107000060SPEAKER ASM                   M IMCTM S5MB11 FTTL  07070IMCT  S5 PTB  00004                    0900 SR        000000000000 FUJITSU TEN (THAILAN17020ML0003004                                                                                                                              *          20161226IMF1612263.TXT
MDEDGD292122201701                D89828070100PV1D20170107000060SPEAKER ASM                   M IMCTM S5MB11 FTTL  07070IMCT  S5 PTB  00004                    1300 SR        000000000000 FUJITSU TEN (THAILAN17085ML0005006                                                                                                                              *          20161226IMF1612263.TXT
MDEDGD292123201701                D89828070100PV1D20170107000030SPEAKER ASM                   M IMCTM S5MB11 FTTL  07070IMCT  S5 PTB  00004                    1600 SR        000000000000 FUJITSU TEN (THAILAN17064ML0001001                                                                                                                              *          20161226IMF1612263.TXT
MDEDGD292124201701                D89828070100PV4D20170107000030SPEAKER ASM                   M IMCTM S0FL05 FTTL  07070IMCT  S0 PTB  00004                    0900 SR        000000000000 FUJITSU TEN (THAILAN17044MU0003003                                                                                                                              *          20161226IMF1612263.TXT
MDEDGD292125201701                D89828070100PV4D20170107000030SPEAKER ASM                   M IMCTM S0FL05 FTTL  07070IMCT  S0 PTB  00004                    1300 SR        000000000000 FUJITSU TEN (THAILAN17044MU0004004                                                                                                                              *          20161226IMF1612263.TXT
MDEDGD292126201701                D89828070100PV4D20170107000030SPEAKER ASM                   M IMCTM S0FL05 FTTL  07070IMCT  S0 PTB  00004                    1600 SR        000000000000 FUJITSU TEN (THAILAN17016PU0002002                                                                                                                              *          20161226IMF1612263.TXT
MDEDGD292127201701                D89828070200PV1D20170107000060SPEAKER ASM                   M IMCTM S5MA14 FTTL  07070IMCT  S5 PTB  00005                    0400 SR        000000000000 FUJITSU TEN (THAILAN17034PL0010011                                                                                                                              *          20161226IMF1612263.TXT
MDEDGD292128201701                D89828070200PV1D20170107000060SPEAKER ASM                   M IMCTM S5MA14 FTTL  07070IMCT  S5 PTB  00005                    0900 SR        000000000000 FUJITSU TEN (THAILAN17020ML0003004                                                                                                                              *          20161226IMF1612263.TXT
MDEDGD292129201701                D89828070200PV1D20170107000060SPEAKER ASM                   M IMCTM S5MA14 FTTL  07070IMCT  S5 PTB  00005                    1300 SR        000000000000 FUJITSU TEN (THAILAN17085ML0005006                                                                                                                              *          20161226IMF1612263.TXT
MDEDGD292130201701                D89828070200PV4D20170107000030SPEAKER ASM                   M IMCTM S0FR05 FTTL  07070IMCT  S0 PTB  00005                    1600 SR        000000000000 FUJITSU TEN (THAILAN17016PU0002002                                                                                                                              *          20161226IMF1612263.TXT
MDEDGD292131201701                D89828070300PT1D20170106000060SPEAKER ASM                   M IMCTM S5NB082FTTL  07070IMCT  S5 PTB  00015                    2230 SR        000000000000 FUJITSU TEN (THAILAN17071ML0002003                                                                                                                              *          20161226IMF1612263.TXT
MDEDGD292132201701                D89828070300PT1D20170107000060SPEAKER ASM                   M IMCTM S5NB082FTTL  07070IMCT  S5 PTB  00015                    0400 SR        000000000000 FUJITSU TEN (THAILAN17034PL0010011                                                                                                                              *          20161226IMF1612263.TXT
MDEDGD292133201701                D89828070300PT1D20170107000060SPEAKER ASM                   M IMCTM S5NB082FTTL  07070IMCT  S5 PTB  00015                    0900 SR        000000000000 FUJITSU TEN (THAILAN17020ML0003004                                                                                                                              *          20161226IMF1612263.TXT
MDEDGD292134201701                D89828070300PT1D20170107000060SPEAKER ASM                   M IMCTM S5NB082FTTL  07070IMCT  S5 PTB  00015                    1300 SR        000000000000 FUJITSU TEN (THAILAN17085ML0005006                                                                                                                              *          20161226IMF1612263.TXT
MDEDGD292135201701                D89828070300PT1D20170107000030SPEAKER ASM                   M IMCTM S5NB082FTTL  07070IMCT  S5 PTB  00015                    1600 SR        000000000000 FUJITSU TEN (THAILAN17064ML0001001                                                                                                                              *          20161226IMF1612263.TXT
MDEDGD292136201701                D89828070300PT4D20170107000030SPEAKER ASM                   M IMCTM S9TS02 FTTL  07070IMCT  S9 PTB  00015                    1600 SR        000000000000 FUJITSU TEN (THAILAN17016PU0002002                                                                                                                              *          20161226IMF1612263.TXT
MDEUGD272094201701                D89828070100PT4U20170106000030SPEAKER ASM                   M IMCTM S0FL05 FTTL  07070IMCT  S0 PTB  00004                    2100 SR        000000000000 FUJITSU TEN (THAILAN170C08U0015015                                                                                                                              *          20161226IMF1612263.TXT
MDEUGD272095201701                D89828070100PT4U20170106000030SPEAKER ASM                   M IMCTM S0FL05 FTTL  07070IMCT  S0 PTB  00004                    2230 SR        000000000000 FUJITSU TEN (THAILAN170C16U0090090                                                                                                                              *          20161226IMF1612263.TXT
MDEUGD272096201701                D89828070100PT4U20170107000060SPEAKER ASM                   M IMCTM S0FL05 FTTL  07070IMCT  S0 PTB  00004                    0900 SR        000000000000 FUJITSU TEN (THAILAN170C08U0016016170C16U0091091                                                                                                                *          20161226IMF1612263.TXT
MDEUGD272097201701                D89828070100PT4U20170107000030SPEAKER ASM                   M IMCTM S0FL05 FTTL  07070IMCT  S0 PTB  00004                    1300 SR        000000000000 FUJITSU TEN (THAILAN170C16U0092092                                                                                                                              *          20161226IMF1612263.TXT
MDEUGD272098201701                D89828070200PV4U20170106000030SPEAKER ASM                   M IMCTM S0FR05 FTTL  07070IMCT  S0 PTB  00005                    2100 SR        000000000000 FUJITSU TEN (THAILAN170C08U0015015                                                                                                                              *          20161226IMF1612263.TXT
MDEUGD272099201701                D89828070200PV4U20170106000030SPEAKER ASM                   M IMCTM S0FR05 FTTL  07070IMCT  S0 PTB  00005                    2230 SR        000000000000 FUJITSU TEN (THAILAN170C16U0090090                                                                                                                              *          20161226IMF1612263.TXT
MDEUGD272100201701                D89828070200PV4U20170107000060SPEAKER ASM                   M IMCTM S0FR05 FTTL  07070IMCT  S0 PTB  00005                    0900 SR        000000000000 FUJITSU TEN (THAILAN170C08U0016016170C16U0091091                                                                                                                *          20161226IMF1612263.TXT
MDEUGD272101201701                D89828070200PV4U20170107000030SPEAKER ASM                   M IMCTM S0FR05 FTTL  07070IMCT  S0 PTB  00005                    1300 SR        000000000000 FUJITSU TEN (THAILAN170C16U0092092                                                                                                                              *          20161226IMF1612263.TXT
MDEUGD272102201701                D89828070300PT4U20170106000030SPEAKER ASM                   M IMCTM S9TS02 FTTL  07070IMCT  S9 PTB  00015                    2100 SR        000000000000 FUJITSU TEN (THAILAN170C08U0015015                                                                                                                              *          20161226IMF1612263.TXT
MDEUGD272103201701                D89828070300PT4U20170106000030SPEAKER ASM                   M IMCTM S9TS02 FTTL  07070IMCT  S9 PTB  00015                    2230 SR        000000000000 FUJITSU TEN (THAILAN170C16U0090090                                                                                                                              *          20161226IMF1612263.TXT
MDEUGD272104201701                D89828070300PT4U20170107000060SPEAKER ASM                   M IMCTM S9TS02 FTTL  07070IMCT  S9 PTB  00015                    0900 SR        000000000000 FUJITSU TEN (THAILAN170C08U0016016170C16U0091091                                                                                                                *          20161226IMF1612263.TXT
MDEUGD272105201701                D89828070300PT4U20170107000030SPEAKER ASM                   M IMCTM S9TS02 FTTL  07070IMCT  S9 PTB  00015                    1300 SR        000000000000 FUJITSU TEN (THAILAN170C16U0092092                                                                                                                              *          20161226IMF1612263.TXT
