REC2016121520161215ISUZU                              46     
MDDDGD255404201612                D89821984430PT1D20161219000030RADIO;AM/FM,CD                M IMCTM S5NC06 FTTL  07070IMCT  S5 PTB  00005                    2230 SR        000000000000 FUJITSU TEN (THAILAN170KNCL0048048                                                                                                                              *          20161215IMF1612154.TXT
MDDDGD255405201612                D89828070100PV1D20161219000120SPEAKER ASM                   M IMCTM S5MB11 FTTL  07070IMCT  S5 PTB  00004                    2230 SR        000000000000 FUJITSU TEN (THAILAN170KNAL0030030170KNCL0048048                                                                                                                *          20161215IMF1612154.TXT
MDDDGD255406201612                D89828070100PV1D20161220000060SPEAKER ASM                   M IMCTM S5MB11 FTTL  07070IMCT  S5 PTB  00004                    0230 SR        000000000000 FUJITSU TEN (THAILAN170KPDL0002002                                                                                                                              *          20161215IMF1612154.TXT
MDDDGD255407201612                D89828070100PV1D20161220000120SPEAKER ASM                   M IMCTM S5MB11 FTTL  07070IMCT  S5 PTB  00004                    0900 SR        000000000000 FUJITSU TEN (THAILAN170KNAL0031031170KPLL0005005                                                                                                                *          20161215IMF1612154.TXT
MDDDGD255408201612                D89828070100PV1D20161220000180SPEAKER ASM                   M IMCTM S5MB11 FTTL  07070IMCT  S5 PTB  00004                    1300 SR        000000000000 FUJITSU TEN (THAILAN170KPML0011011170KRCL0007008                                                                                                                *          20161215IMF1612154.TXT
MDDDGD255409201612                D89828070200PV1D20161220000120SPEAKER ASM                   M IMCTM S5MA14 FTTL  07070IMCT  S5 PTB  00005                    1300 SR        000000000000 FUJITSU TEN (THAILAN170KRCL0007008                                                                                                                              *          20161215IMF1612154.TXT
MDDDGD255410201612                D89828070300PT1D20161220000060SPEAKER ASM                   M IMCTM S5NB082FTTL  07070IMCT  S5 PTB  00015                    0230 SR        000000000000 FUJITSU TEN (THAILAN170KPDL0002002                                                                                                                              *          20161215IMF1612154.TXT
MDDDGD255411201612                D89828070300PT1D20161220000060SPEAKER ASM                   M IMCTM S5NB082FTTL  07070IMCT  S5 PTB  00015                    0900 SR        000000000000 FUJITSU TEN (THAILAN170KPLL0005005                                                                                                                              *          20161215IMF1612154.TXT
MDDDGD255412201612                D89828070300PT1D20161220000180SPEAKER ASM                   M IMCTM S5NB082FTTL  07070IMCT  S5 PTB  00015                    1300 SR        000000000000 FUJITSU TEN (THAILAN170KPML0011011170KRCL0007008                                                                                                                *          20161215IMF1612154.TXT
MDDDGD255413201612                D89831228300PT1D20161220000030RADIO;AM/FM,CD                M IMCTM S5NC06 FTTL  07070IMCT  S5 CPB  00003                    0230 SR        000000000000 FUJITSU TEN (THAILAN170KPDL0002002                                                                                                                              *          20161215IMF1612154.TXT
MDDDGD255414201612                D89831228400PT1D20161220000060RADIO;AM/FM,CD                M IMCTM S5NC06 FTTL  07070IMCT  S5 CPB  00003                    1300 SR        000000000000 FUJITSU TEN (THAILAN170KRCL0007008                                                                                                                              *          20161215IMF1612154.TXT
MDDUGD210863201612                D89828070100PT4U20161220000030SPEAKER ASM                   M IMCTM S0FL05 FTTL  07070IMCT  S0 PTB  00004                    1300 SR        000000000000 FUJITSU TEN (THAILAN170KUAU0027027                                                                                                                              *          20161215IMF1612154.TXT
MDDUGD210864201612                D89828070200PV4U20161220000030SPEAKER ASM                   M IMCTM S0FR05 FTTL  07070IMCT  S0 PTB  00005                    1300 SR        000000000000 FUJITSU TEN (THAILAN170KUAU0027027                                                                                                                              *          20161215IMF1612154.TXT
MDDUGD210865201612                D89828070300PT4U20161220000030SPEAKER ASM                   M IMCTM S9TS02 FTTL  07070IMCT  S9 PTB  00015                    1300 SR        000000000000 FUJITSU TEN (THAILAN170KUAU0027027                                                                                                                              *          20161215IMF1612154.TXT
MDDUGD210866201612                D89831228400PT4U20161220000015RADIO;AM/FM,CD                M IMCTM S9CO001FTTL  07070IMCT  S9 CPB  00003                    1300 SR        000000000000 FUJITSU TEN (THAILAN170KUAU0027027                                                                                                                              *          20161215IMF1612154.TXT
MDEDGD253143201612                D89805293700PV1D20161220000030SPEAKER ASM                   M IMCTM S5MB11 FTTL  07070IMCT  S5 PTB  00003                    0400 SR        000000000000 FUJITSU TEN (THAILAN15019FL0135135                                                                                                                              *          20161215IMF1612154.TXT
MDEDGD253144201612                D89828070100PV1D20161219000060SPEAKER ASM                   M IMCTM S5MB11 FTTL  07070IMCT  S5 PTB  00004                    2100 SR        000000000000 FUJITSU TEN (THAILAN17020ML0001002                                                                                                                              *          20161215IMF1612154.TXT
MDEDGD253145201612                D89828070100PV1D20161219000060SPEAKER ASM                   M IMCTM S5MB11 FTTL  07070IMCT  S5 PTB  00004                    2230 SR        000000000000 FUJITSU TEN (THAILAN17029ML0001002                                                                                                                              *          20161215IMF1612154.TXT
MDEDGD253146201612                D89828070100PV1D20161220000030SPEAKER ASM                   M IMCTM S5MB11 FTTL  07070IMCT  S5 PTB  00004                    0400 SR        000000000000 FUJITSU TEN (THAILAN17008ML0001001                                                                                                                              *          20161215IMF1612154.TXT
MDEDGD253147201612                D89828070100PV4D20161220000030SPEAKER ASM                   M IMCTM S0FL05 FTTL  07070IMCT  S0 PTB  00004                    0900 SR        000000000000 FUJITSU TEN (THAILAN17034PU0005005                                                                                                                              *          20161215IMF1612154.TXT
MDEDGD253148201612                D89828070200PV1D20161219000060SPEAKER ASM                   M IMCTM S5MA14 FTTL  07070IMCT  S5 PTB  00005                    2100 SR        000000000000 FUJITSU TEN (THAILAN17020ML0001002                                                                                                                              *          20161215IMF1612154.TXT
MDEDGD253149201612                D89828070200PV1D20161219000060SPEAKER ASM                   M IMCTM S5MA14 FTTL  07070IMCT  S5 PTB  00005                    2230 SR        000000000000 FUJITSU TEN (THAILAN17029ML0001002                                                                                                                              *          20161215IMF1612154.TXT
MDEDGD253150201612                D89828070200PV4D20161220000030SPEAKER ASM                   M IMCTM S0FR05 FTTL  07070IMCT  S0 PTB  00005                    0900 SR        000000000000 FUJITSU TEN (THAILAN17034PU0005005                                                                                                                              *          20161215IMF1612154.TXT
MDEDGD253151201612                D89828070300PT1D20161219000060SPEAKER ASM                   M IMCTM S5NB082FTTL  07070IMCT  S5 PTB  00015                    2100 SR        000000000000 FUJITSU TEN (THAILAN17020ML0001002                                                                                                                              *          20161215IMF1612154.TXT
MDEDGD253152201612                D89828070300PT1D20161219000060SPEAKER ASM                   M IMCTM S5NB082FTTL  07070IMCT  S5 PTB  00015                    2230 SR        000000000000 FUJITSU TEN (THAILAN17029ML0001002                                                                                                                              *          20161215IMF1612154.TXT
MDEDGD253153201612                D89828070300PT1D20161220000030SPEAKER ASM                   M IMCTM S5NB082FTTL  07070IMCT  S5 PTB  00015                    0400 SR        000000000000 FUJITSU TEN (THAILAN17008ML0001001                                                                                                                              *          20161215IMF1612154.TXT
MDEDGD253154201612                D89828070300PT4D20161220000030SPEAKER ASM                   M IMCTM S9TS02 FTTL  07070IMCT  S9 PTB  00015                    0900 SR        000000000000 FUJITSU TEN (THAILAN17034PU0005005                                                                                                                              *          20161215IMF1612154.TXT
MDEDGD253155201612                D89829622400PT1D20161220000015RADIO;ASM DVD                 M IMCTM S5NC06 FTTL  07070IMCT  S5 PTB  00003                    0400 SR        000000000000 FUJITSU TEN (THAILAN17008ML0001001                                                                                                                              *          20161215IMF1612154.TXT
MDEUGD242704201612                D89828070100PT4U20161219000060SPEAKER ASM                   M IMCTM S0FL05 FTTL  07070IMCT  S0 PTB  00004                    2230 SR        000000000000 FUJITSU TEN (THAILAN170C13U0046046170C16U0073073                                                                                                                *          20161215IMF1612154.TXT
MDEUGD242705201612                D89828070100PT4U20161220000030SPEAKER ASM                   M IMCTM S0FL05 FTTL  07070IMCT  S0 PTB  00004                    0230 SR        000000000000 FUJITSU TEN (THAILAN170C16U0074074                                                                                                                              *          20161215IMF1612154.TXT
MDEUGD242706201612                D89828070100PT4U20161220000030SPEAKER ASM                   M IMCTM S0FL05 FTTL  07070IMCT  S0 PTB  00004                    0400 SR        000000000000 FUJITSU TEN (THAILAN170C09U0028028                                                                                                                              *          20161215IMF1612154.TXT
MDEUGD242707201612                D89828070100PT4U20161220000030SPEAKER ASM                   M IMCTM S0FL05 FTTL  07070IMCT  S0 PTB  00004                    0900 SR        000000000000 FUJITSU TEN (THAILAN170C12U0017017                                                                                                                              *          20161215IMF1612154.TXT
MDEUGD242708201612                D89828070100PT4U20161220000030SPEAKER ASM                   M IMCTM S0FL05 FTTL  07070IMCT  S0 PTB  00004                    1300 SR        000000000000 FUJITSU TEN (THAILAN170C08U0013013                                                                                                                              *          20161215IMF1612154.TXT
MDEUGD242709201612                D89828070100PT4U20161220000030SPEAKER ASM                   M IMCTM S0FL05 FTTL  07070IMCT  S0 PTB  00004                    1600 SR        000000000000 FUJITSU TEN (THAILAN170C16U0075075                                                                                                                              *          20161215IMF1612154.TXT
MDEUGD242710201612                D89828070200PV4U20161219000060SPEAKER ASM                   M IMCTM S0FR05 FTTL  07070IMCT  S0 PTB  00005                    2230 SR        000000000000 FUJITSU TEN (THAILAN170C13U0046046170C16U0073073                                                                                                                *          20161215IMF1612154.TXT
MDEUGD242711201612                D89828070200PV4U20161220000030SPEAKER ASM                   M IMCTM S0FR05 FTTL  07070IMCT  S0 PTB  00005                    0230 SR        000000000000 FUJITSU TEN (THAILAN170C16U0074074                                                                                                                              *          20161215IMF1612154.TXT
MDEUGD242712201612                D89828070200PV4U20161220000030SPEAKER ASM                   M IMCTM S0FR05 FTTL  07070IMCT  S0 PTB  00005                    0400 SR        000000000000 FUJITSU TEN (THAILAN170C09U0028028                                                                                                                              *          20161215IMF1612154.TXT
MDEUGD242713201612                D89828070200PV4U20161220000030SPEAKER ASM                   M IMCTM S0FR05 FTTL  07070IMCT  S0 PTB  00005                    0900 SR        000000000000 FUJITSU TEN (THAILAN170C12U0017017                                                                                                                              *          20161215IMF1612154.TXT
MDEUGD242714201612                D89828070200PV4U20161220000030SPEAKER ASM                   M IMCTM S0FR05 FTTL  07070IMCT  S0 PTB  00005                    1300 SR        000000000000 FUJITSU TEN (THAILAN170C08U0013013                                                                                                                              *          20161215IMF1612154.TXT
MDEUGD242715201612                D89828070200PV4U20161220000030SPEAKER ASM                   M IMCTM S0FR05 FTTL  07070IMCT  S0 PTB  00005                    1600 SR        000000000000 FUJITSU TEN (THAILAN170C16U0075075                                                                                                                              *          20161215IMF1612154.TXT
MDEUGD242716201612                D89828070300PT4U20161219000060SPEAKER ASM                   M IMCTM S9TS02 FTTL  07070IMCT  S9 PTB  00015                    2230 SR        000000000000 FUJITSU TEN (THAILAN170C13U0046046170C16U0073073                                                                                                                *          20161215IMF1612154.TXT
MDEUGD242717201612                D89828070300PT4U20161220000030SPEAKER ASM                   M IMCTM S9TS02 FTTL  07070IMCT  S9 PTB  00015                    0230 SR        000000000000 FUJITSU TEN (THAILAN170C16U0074074                                                                                                                              *          20161215IMF1612154.TXT
MDEUGD242718201612                D89828070300PT4U20161220000030SPEAKER ASM                   M IMCTM S9TS02 FTTL  07070IMCT  S9 PTB  00015                    0400 SR        000000000000 FUJITSU TEN (THAILAN170C09U0028028                                                                                                                              *          20161215IMF1612154.TXT
MDEUGD242719201612                D89828070300PT4U20161220000030SPEAKER ASM                   M IMCTM S9TS02 FTTL  07070IMCT  S9 PTB  00015                    0900 SR        000000000000 FUJITSU TEN (THAILAN170C12U0017017                                                                                                                              *          20161215IMF1612154.TXT
MDEUGD242720201612                D89828070300PT4U20161220000030SPEAKER ASM                   M IMCTM S9TS02 FTTL  07070IMCT  S9 PTB  00015                    1300 SR        000000000000 FUJITSU TEN (THAILAN170C08U0013013                                                                                                                              *          20161215IMF1612154.TXT
MDEUGD242721201612                D89828070300PT4U20161220000030SPEAKER ASM                   M IMCTM S9TS02 FTTL  07070IMCT  S9 PTB  00015                    1600 SR        000000000000 FUJITSU TEN (THAILAN170C16U0075075                                                                                                                              *          20161215IMF1612154.TXT
