REC2016121920161219ISUZU                              59     
MDDDGD270606201612                D89821984430PT1D20161222000030RADIO;AM/FM,CD                M IMCTM S5NC06 FTTL  07070IMCT  S5 PTB  00005                    2230 SR        000000000000 FUJITSU TEN (THAILAN170KNEL0045045                                                                                                                              *          20161219IMF1612195.TXT
MDDDGD270607201612                D89821984430PT1D20161223000030RADIO;AM/FM,CD                M IMCTM S5NC06 FTTL  07070IMCT  S5 PTB  00005                    1300 SR        000000000000 FUJITSU TEN (THAILAN170KNEL0046046                                                                                                                              *          20161219IMF1612195.TXT
MDDDGD270608201612                D89825217900PT1D20161222000030RADIO;AM/FM,CD,D              M IMCTM S5NC06 FTTL  07070IMCT  S5 PTB  00003                    2100 SR        000000000000 FUJITSU TEN (THAILAN170KPKL0007007                                                                                                                              *          20161219IMF1612195.TXT
MDDDGD270609201612                D89825217900PT1D20161223000030RADIO;AM/FM,CD,D              M IMCTM S5NC06 FTTL  07070IMCT  S5 PTB  00003                    2100 SR        000000000000 FUJITSU TEN (THAILAN170KPJL0021021                                                                                                                              *          20161219IMF1612195.TXT
MDDDGD270610201612                D89828070100PV1D20161222000060SPEAKER ASM                   M IMCTM S5MB11 FTTL  07070IMCT  S5 PTB  00004                    2100 SR        000000000000 FUJITSU TEN (THAILAN170KPKL0007007                                                                                                                              *          20161219IMF1612195.TXT
MDDDGD270611201612                D89828070100PV1D20161222000120SPEAKER ASM                   M IMCTM S5MB11 FTTL  07070IMCT  S5 PTB  00004                    2230 SR        000000000000 FUJITSU TEN (THAILAN170KNEL0045045170KRCL0011011                                                                                                                *          20161219IMF1612195.TXT
MDDDGD270612201612                D89828070100PV1D20161223000060SPEAKER ASM                   M IMCTM S5MB11 FTTL  07070IMCT  S5 PTB  00004                    0230 SR        000000000000 FUJITSU TEN (THAILAN170KPGL0010010                                                                                                                              *          20161219IMF1612195.TXT
MDDDGD270613201612                D89828070100PV1D20161223000060SPEAKER ASM                   M IMCTM S5MB11 FTTL  07070IMCT  S5 PTB  00004                    0900 SR        000000000000 FUJITSU TEN (THAILAN170KPEL0029029                                                                                                                              *          20161219IMF1612195.TXT
MDDDGD270614201612                D89828070100PV1D20161223000120SPEAKER ASM                   M IMCTM S5MB11 FTTL  07070IMCT  S5 PTB  00004                    1300 SR        000000000000 FUJITSU TEN (THAILAN170KNEL0046046170KPFL0084084                                                                                                                *          20161219IMF1612195.TXT
MDDDGD270615201612                D89828070100PV1D20161223000060SPEAKER ASM                   M IMCTM S5MB11 FTTL  07070IMCT  S5 PTB  00004                    2100 SR        000000000000 FUJITSU TEN (THAILAN170KPJL0021021                                                                                                                              *          20161219IMF1612195.TXT
MDDDGD270616201612                D89828070200PV1D20161222000060SPEAKER ASM                   M IMCTM S5MA14 FTTL  07070IMCT  S5 PTB  00005                    2230 SR        000000000000 FUJITSU TEN (THAILAN170KRCL0011011                                                                                                                              *          20161219IMF1612195.TXT
MDDDGD270617201612                D89828070300PT1D20161222000060SPEAKER ASM                   M IMCTM S5NB082FTTL  07070IMCT  S5 PTB  00015                    2100 SR        000000000000 FUJITSU TEN (THAILAN170KPKL0007007                                                                                                                              *          20161219IMF1612195.TXT
MDDDGD270618201612                D89828070300PT1D20161222000060SPEAKER ASM                   M IMCTM S5NB082FTTL  07070IMCT  S5 PTB  00015                    2230 SR        000000000000 FUJITSU TEN (THAILAN170KRCL0011011                                                                                                                              *          20161219IMF1612195.TXT
MDDDGD270619201612                D89828070300PT1D20161223000060SPEAKER ASM                   M IMCTM S5NB082FTTL  07070IMCT  S5 PTB  00015                    0230 SR        000000000000 FUJITSU TEN (THAILAN170KPGL0010010                                                                                                                              *          20161219IMF1612195.TXT
MDDDGD270620201612                D89828070300PT1D20161223000060SPEAKER ASM                   M IMCTM S5NB082FTTL  07070IMCT  S5 PTB  00015                    0900 SR        000000000000 FUJITSU TEN (THAILAN170KPEL0029029                                                                                                                              *          20161219IMF1612195.TXT
MDDDGD270621201612                D89828070300PT1D20161223000060SPEAKER ASM                   M IMCTM S5NB082FTTL  07070IMCT  S5 PTB  00015                    1300 SR        000000000000 FUJITSU TEN (THAILAN170KPFL0084084                                                                                                                              *          20161219IMF1612195.TXT
MDDDGD270622201612                D89828070300PT1D20161223000060SPEAKER ASM                   M IMCTM S5NB082FTTL  07070IMCT  S5 PTB  00015                    2100 SR        000000000000 FUJITSU TEN (THAILAN170KPJL0021021                                                                                                                              *          20161219IMF1612195.TXT
MDDDGD270623201612                D89831228300PT1D20161223000030RADIO;AM/FM,CD                M IMCTM S5NC06 FTTL  07070IMCT  S5 CPB  00003                    0230 SR        000000000000 FUJITSU TEN (THAILAN170KPGL0010010                                                                                                                              *          20161219IMF1612195.TXT
MDDDGD270624201612                D89831228300PT1D20161223000030RADIO;AM/FM,CD                M IMCTM S5NC06 FTTL  07070IMCT  S5 CPB  00003                    0900 SR        000000000000 FUJITSU TEN (THAILAN170KPEL0029029                                                                                                                              *          20161219IMF1612195.TXT
MDDDGD270625201612                D89831228300PT1D20161223000030RADIO;AM/FM,CD                M IMCTM S5NC06 FTTL  07070IMCT  S5 CPB  00003                    1300 SR        000000000000 FUJITSU TEN (THAILAN170KPFL0084084                                                                                                                              *          20161219IMF1612195.TXT
MDDDGD270626201612                D89831228400PT1D20161222000030RADIO;AM/FM,CD                M IMCTM S5NC06 FTTL  07070IMCT  S5 CPB  00003                    2230 SR        000000000000 FUJITSU TEN (THAILAN170KRCL0011011                                                                                                                              *          20161219IMF1612195.TXT
MDDUGD212720201612                D89828070100PT4U20161223000030SPEAKER ASM                   M IMCTM S0FL05 FTTL  07070IMCT  S0 PTB  00004                    1300 SR        000000000000 FUJITSU TEN (THAILAN170KUBU0010010                                                                                                                              *          20161219IMF1612195.TXT
MDDUGD212721201612                D89828070200PV4U20161223000030SPEAKER ASM                   M IMCTM S0FR05 FTTL  07070IMCT  S0 PTB  00005                    1300 SR        000000000000 FUJITSU TEN (THAILAN170KUBU0010010                                                                                                                              *          20161219IMF1612195.TXT
MDDUGD212722201612                D89828070300PT4U20161223000030SPEAKER ASM                   M IMCTM S9TS02 FTTL  07070IMCT  S9 PTB  00015                    1300 SR        000000000000 FUJITSU TEN (THAILAN170KUBU0010010                                                                                                                              *          20161219IMF1612195.TXT
MDDUGD212723201612                D89829093500PT4U20161223000015RADIO;ASM DVD (T              M IMCTM S9CO001FTTL  07070IMCT  S9 PTB  00003                    1300 SR        000000000000 FUJITSU TEN (THAILAN170KUBU0010010                                                                                                                              *          20161219IMF1612195.TXT
MDEDGD267789201612                D89828070100PV1D20161222000060SPEAKER ASM                   M IMCTM S5MB11 FTTL  07070IMCT  S5 PTB  00004                    2230 SR        000000000000 FUJITSU TEN (THAILAN17034PL0008009                                                                                                                              *          20161219IMF1612195.TXT
MDEDGD267790201612                D89828070100PV1D20161223000030SPEAKER ASM                   M IMCTM S5MB11 FTTL  07070IMCT  S5 PTB  00004                    0400 SR        000000000000 FUJITSU TEN (THAILAN17046QL0004004                                                                                                                              *          20161219IMF1612195.TXT
MDEDGD267791201612                D89828070100PV1D20161223000060SPEAKER ASM                   M IMCTM S5MB11 FTTL  07070IMCT  S5 PTB  00004                    0900 SR        000000000000 FUJITSU TEN (THAILAN17046QL000500517060NL0003003                                                                                                                *          20161219IMF1612195.TXT
MDEDGD267792201612                D89828070100PV1D20161223000030SPEAKER ASM                   M IMCTM S5MB11 FTTL  07070IMCT  S5 PTB  00004                    1300 SR        000000000000 FUJITSU TEN (THAILAN17060NL0004004                                                                                                                              *          20161219IMF1612195.TXT
MDEDGD267793201612                D89828070100PV4D20161222000030SPEAKER ASM                   M IMCTM S0FL05 FTTL  07070IMCT  S0 PTB  00004                    2230 SR        000000000000 FUJITSU TEN (THAILAN17034PU0007007                                                                                                                              *          20161219IMF1612195.TXT
MDEDGD267794201612                D89828070100PV4D20161223000030SPEAKER ASM                   M IMCTM S0FL05 FTTL  07070IMCT  S0 PTB  00004                    0400 SR        000000000000 FUJITSU TEN (THAILAN17024NU0005005                                                                                                                              *          20161219IMF1612195.TXT
MDEDGD267795201612                D89828070100PV4D20161223000030SPEAKER ASM                   M IMCTM S0FL05 FTTL  07070IMCT  S0 PTB  00004                    1300 SR        000000000000 FUJITSU TEN (THAILAN17079NU0005005                                                                                                                              *          20161219IMF1612195.TXT
MDEDGD267796201612                D89828070200PV1D20161222000060SPEAKER ASM                   M IMCTM S5MA14 FTTL  07070IMCT  S5 PTB  00005                    2230 SR        000000000000 FUJITSU TEN (THAILAN17034PL0008009                                                                                                                              *          20161219IMF1612195.TXT
MDEDGD267797201612                D89828070200PV1D20161223000030SPEAKER ASM                   M IMCTM S5MA14 FTTL  07070IMCT  S5 PTB  00005                    0400 SR        000000000000 FUJITSU TEN (THAILAN17046QL0004004                                                                                                                              *          20161219IMF1612195.TXT
MDEDGD267798201612                D89828070200PV1D20161223000060SPEAKER ASM                   M IMCTM S5MA14 FTTL  07070IMCT  S5 PTB  00005                    0900 SR        000000000000 FUJITSU TEN (THAILAN17046QL000500517060NL0003003                                                                                                                *          20161219IMF1612195.TXT
MDEDGD267799201612                D89828070200PV1D20161223000030SPEAKER ASM                   M IMCTM S5MA14 FTTL  07070IMCT  S5 PTB  00005                    1300 SR        000000000000 FUJITSU TEN (THAILAN17060NL0004004                                                                                                                              *          20161219IMF1612195.TXT
MDEDGD267800201612                D89828070200PV4D20161222000030SPEAKER ASM                   M IMCTM S0FR05 FTTL  07070IMCT  S0 PTB  00005                    2230 SR        000000000000 FUJITSU TEN (THAILAN17034PU0007007                                                                                                                              *          20161219IMF1612195.TXT
MDEDGD267801201612                D89828070200PV4D20161223000030SPEAKER ASM                   M IMCTM S0FR05 FTTL  07070IMCT  S0 PTB  00005                    0400 SR        000000000000 FUJITSU TEN (THAILAN17024NU0005005                                                                                                                              *          20161219IMF1612195.TXT
MDEDGD267802201612                D89828070200PV4D20161223000030SPEAKER ASM                   M IMCTM S0FR05 FTTL  07070IMCT  S0 PTB  00005                    1300 SR        000000000000 FUJITSU TEN (THAILAN17079NU0005005                                                                                                                              *          20161219IMF1612195.TXT
MDEDGD267803201612                D89828070300PT1D20161222000060SPEAKER ASM                   M IMCTM S5NB082FTTL  07070IMCT  S5 PTB  00015                    2230 SR        000000000000 FUJITSU TEN (THAILAN17034PL0008009                                                                                                                              *          20161219IMF1612195.TXT
MDEDGD267804201612                D89828070300PT1D20161223000030SPEAKER ASM                   M IMCTM S5NB082FTTL  07070IMCT  S5 PTB  00015                    0400 SR        000000000000 FUJITSU TEN (THAILAN17046QL0004004                                                                                                                              *          20161219IMF1612195.TXT
MDEDGD267805201612                D89828070300PT1D20161223000060SPEAKER ASM                   M IMCTM S5NB082FTTL  07070IMCT  S5 PTB  00015                    0900 SR        000000000000 FUJITSU TEN (THAILAN17046QL000500517060NL0003003                                                                                                                *          20161219IMF1612195.TXT
MDEDGD267806201612                D89828070300PT1D20161223000030SPEAKER ASM                   M IMCTM S5NB082FTTL  07070IMCT  S5 PTB  00015                    1300 SR        000000000000 FUJITSU TEN (THAILAN17060NL0004004                                                                                                                              *          20161219IMF1612195.TXT
MDEDGD267807201612                D89828070300PT4D20161222000030SPEAKER ASM                   M IMCTM S9TS02 FTTL  07070IMCT  S9 PTB  00015                    2230 SR        000000000000 FUJITSU TEN (THAILAN17034PU0007007                                                                                                                              *          20161219IMF1612195.TXT
MDEDGD267808201612                D89828070300PT4D20161223000030SPEAKER ASM                   M IMCTM S9TS02 FTTL  07070IMCT  S9 PTB  00015                    0400 SR        000000000000 FUJITSU TEN (THAILAN17024NU0005005                                                                                                                              *          20161219IMF1612195.TXT
MDEDGD267809201612                D89828070300PT4D20161223000030SPEAKER ASM                   M IMCTM S9TS02 FTTL  07070IMCT  S9 PTB  00015                    1300 SR        000000000000 FUJITSU TEN (THAILAN17079NU0005005                                                                                                                              *          20161219IMF1612195.TXT
MDEDGD267810201612                D89829645700PT4D20161223000015RADIO;ASM DVD                 M IMCTM S9CO001FTTL  07070IMCT  S9 X    00003                    1300 SR        000000000000 FUJITSU TEN (THAILAN17079NU0005005                                                                                                                              *          20161219IMF1612195.TXT
MDEUGD255790201612                D89828070100PT4U20161222000030SPEAKER ASM                   M IMCTM S0FL05 FTTL  07070IMCT  S0 PTB  00004                    2230 SR        000000000000 FUJITSU TEN (THAILAN170C15U0013013                                                                                                                              *          20161219IMF1612195.TXT
MDEUGD255791201612                D89828070100PT4U20161223000030SPEAKER ASM                   M IMCTM S0FL05 FTTL  07070IMCT  S0 PTB  00004                    0230 SR        000000000000 FUJITSU TEN (THAILAN170C16U0082082                                                                                                                              *          20161219IMF1612195.TXT
MDEUGD255792201612                D89828070100PT4U20161223000060SPEAKER ASM                   M IMCTM S0FL05 FTTL  07070IMCT  S0 PTB  00004                    0900 SR        000000000000 FUJITSU TEN (THAILAN170C09U0031031170C16U0083083                                                                                                                *          20161219IMF1612195.TXT
MDEUGD255793201612                D89828070100PT4U20161223000030SPEAKER ASM                   M IMCTM S0FL05 FTTL  07070IMCT  S0 PTB  00004                    1600 SR        000000000000 FUJITSU TEN (THAILAN170C16U0084084                                                                                                                              *          20161219IMF1612195.TXT
MDEUGD255794201612                D89828070200PV4U20161222000030SPEAKER ASM                   M IMCTM S0FR05 FTTL  07070IMCT  S0 PTB  00005                    2230 SR        000000000000 FUJITSU TEN (THAILAN170C15U0013013                                                                                                                              *          20161219IMF1612195.TXT
MDEUGD255795201612                D89828070200PV4U20161223000030SPEAKER ASM                   M IMCTM S0FR05 FTTL  07070IMCT  S0 PTB  00005                    0230 SR        000000000000 FUJITSU TEN (THAILAN170C16U0082082                                                                                                                              *          20161219IMF1612195.TXT
MDEUGD255796201612                D89828070200PV4U20161223000060SPEAKER ASM                   M IMCTM S0FR05 FTTL  07070IMCT  S0 PTB  00005                    0900 SR        000000000000 FUJITSU TEN (THAILAN170C09U0031031170C16U0083083                                                                                                                *          20161219IMF1612195.TXT
MDEUGD255797201612                D89828070200PV4U20161223000030SPEAKER ASM                   M IMCTM S0FR05 FTTL  07070IMCT  S0 PTB  00005                    1600 SR        000000000000 FUJITSU TEN (THAILAN170C16U0084084                                                                                                                              *          20161219IMF1612195.TXT
MDEUGD255798201612                D89828070300PT4U20161222000030SPEAKER ASM                   M IMCTM S9TS02 FTTL  07070IMCT  S9 PTB  00015                    2230 SR        000000000000 FUJITSU TEN (THAILAN170C15U0013013                                                                                                                              *          20161219IMF1612195.TXT
MDEUGD255799201612                D89828070300PT4U20161223000030SPEAKER ASM                   M IMCTM S9TS02 FTTL  07070IMCT  S9 PTB  00015                    0230 SR        000000000000 FUJITSU TEN (THAILAN170C16U0082082                                                                                                                              *          20161219IMF1612195.TXT
MDEUGD255800201612                D89828070300PT4U20161223000060SPEAKER ASM                   M IMCTM S9TS02 FTTL  07070IMCT  S9 PTB  00015                    0900 SR        000000000000 FUJITSU TEN (THAILAN170C09U0031031170C16U0083083                                                                                                                *          20161219IMF1612195.TXT
MDEUGD255801201612                D89828070300PT4U20161223000030SPEAKER ASM                   M IMCTM S9TS02 FTTL  07070IMCT  S9 PTB  00015                    1600 SR        000000000000 FUJITSU TEN (THAILAN170C16U0084084                                                                                                                              *          20161219IMF1612195.TXT
