REC2016120220161202ISUZU                              81     
MDDDGD207546201612                D89821984430PT1D20161207000030RADIO;AM/FM,CD                M IMCTM S5NC06 FTTL  07070IMCT  S5 PTB  00005                    2230 SR        000000000000 FUJITSU TEN (THAILAN170KNEL0039039                                                                                                                              *          20161202IMF1612024.TXT
MDDDGD207547201612                D89821984430PT1D20161208000030RADIO;AM/FM,CD                M IMCTM S5NC06 FTTL  07070IMCT  S5 PTB  00005                    1300 SR        000000000000 FUJITSU TEN (THAILAN170KRAL0018018                                                                                                                              *          20161202IMF1612024.TXT
MDDDGD207548201612                D89821984430PT1D20161208000030RADIO;AM/FM,CD                M IMCTM S5NC06 FTTL  07070IMCT  S5 PTB  00005                    1600 SR        000000000000 FUJITSU TEN (THAILAN170KPAL0047047                                                                                                                              *          20161202IMF1612024.TXT
MDDDGD207549201612                D89828070100PV1D20161207000060SPEAKER ASM                   M IMCTM S5MB11 FTTL  07070IMCT  S5 PTB  00004                    2100 SR        000000000000 FUJITSU TEN (THAILAN170KPCL0027027                                                                                                                              *          20161202IMF1612024.TXT
MDDDGD207550201612                D89828070100PV1D20161207000120SPEAKER ASM                   M IMCTM S5MB11 FTTL  07070IMCT  S5 PTB  00004                    2230 SR        000000000000 FUJITSU TEN (THAILAN170KNEL0039039170KRFL0030030                                                                                                                *          20161202IMF1612024.TXT
MDDDGD207551201612                D89828070100PV1D20161208000120SPEAKER ASM                   M IMCTM S5MB11 FTTL  07070IMCT  S5 PTB  00004                    0400 SR        000000000000 FUJITSU TEN (THAILAN170KPFL0066066170KRJL0011011                                                                                                                *          20161202IMF1612024.TXT
MDDDGD207552201612                D89828070100PV1D20161208000060SPEAKER ASM                   M IMCTM S5MB11 FTTL  07070IMCT  S5 PTB  00004                    0900 SR        000000000000 FUJITSU TEN (THAILAN170KPCL0028028                                                                                                                              *          20161202IMF1612024.TXT
MDDDGD207553201612                D89828070100PV1D20161208000060SPEAKER ASM                   M IMCTM S5MB11 FTTL  07070IMCT  S5 PTB  00004                    1300 SR        000000000000 FUJITSU TEN (THAILAN170KRAL0018018                                                                                                                              *          20161202IMF1612024.TXT
MDDDGD207554201612                D89828070100PV1D20161208000120SPEAKER ASM                   M IMCTM S5MB11 FTTL  07070IMCT  S5 PTB  00004                    1600 SR        000000000000 FUJITSU TEN (THAILAN170KPAL0047047170KRJL0012012                                                                                                                *          20161202IMF1612024.TXT
MDDDGD207555201612                D89828070200PV1D20161207000060SPEAKER ASM                   M IMCTM S5MA14 FTTL  07070IMCT  S5 PTB  00005                    2230 SR        000000000000 FUJITSU TEN (THAILAN170KRFL0030030                                                                                                                              *          20161202IMF1612024.TXT
MDDDGD207556201612                D89828070200PV1D20161208000060SPEAKER ASM                   M IMCTM S5MA14 FTTL  07070IMCT  S5 PTB  00005                    0400 SR        000000000000 FUJITSU TEN (THAILAN170KRJL0011011                                                                                                                              *          20161202IMF1612024.TXT
MDDDGD207557201612                D89828070200PV1D20161208000060SPEAKER ASM                   M IMCTM S5MA14 FTTL  07070IMCT  S5 PTB  00005                    1600 SR        000000000000 FUJITSU TEN (THAILAN170KRJL0012012                                                                                                                              *          20161202IMF1612024.TXT
MDDDGD207558201612                D89828070300PT1D20161207000060SPEAKER ASM                   M IMCTM S5NB082FTTL  07070IMCT  S5 PTB  00015                    2100 SR        000000000000 FUJITSU TEN (THAILAN170KPCL0027027                                                                                                                              *          20161202IMF1612024.TXT
MDDDGD207559201612                D89828070300PT1D20161207000060SPEAKER ASM                   M IMCTM S5NB082FTTL  07070IMCT  S5 PTB  00015                    2230 SR        000000000000 FUJITSU TEN (THAILAN170KRFL0030030                                                                                                                              *          20161202IMF1612024.TXT
MDDDGD207560201612                D89828070300PT1D20161208000120SPEAKER ASM                   M IMCTM S5NB082FTTL  07070IMCT  S5 PTB  00015                    0400 SR        000000000000 FUJITSU TEN (THAILAN170KPFL0066066170KRJL0011011                                                                                                                *          20161202IMF1612024.TXT
MDDDGD207561201612                D89828070300PT1D20161208000060SPEAKER ASM                   M IMCTM S5NB082FTTL  07070IMCT  S5 PTB  00015                    0900 SR        000000000000 FUJITSU TEN (THAILAN170KPCL0028028                                                                                                                              *          20161202IMF1612024.TXT
MDDDGD207562201612                D89828070300PT1D20161208000060SPEAKER ASM                   M IMCTM S5NB082FTTL  07070IMCT  S5 PTB  00015                    1600 SR        000000000000 FUJITSU TEN (THAILAN170KRJL0012012                                                                                                                              *          20161202IMF1612024.TXT
MDDDGD207563201612                D89829645900PT1D20161207000030RADIO;ASM DVD                 M IMCTM S5NC06 FTTL  07070IMCT  S5 CPB  00003                    2230 SR        000000000000 FUJITSU TEN (THAILAN170KRFL0030030                                                                                                                              *          20161202IMF1612024.TXT
MDDDGD207564201612                D89831228300PT1D20161207000030RADIO;AM/FM,CD                M IMCTM S5NC06 FTTL  07070IMCT  S5 CPB  00003                    2100 SR        000000000000 FUJITSU TEN (THAILAN170KPCL0027027                                                                                                                              *          20161202IMF1612024.TXT
MDDDGD207565201612                D89831228300PT1D20161208000030RADIO;AM/FM,CD                M IMCTM S5NC06 FTTL  07070IMCT  S5 CPB  00003                    0400 SR        000000000000 FUJITSU TEN (THAILAN170KPFL0066066                                                                                                                              *          20161202IMF1612024.TXT
MDDDGD207566201612                D89831228300PT1D20161208000030RADIO;AM/FM,CD                M IMCTM S5NC06 FTTL  07070IMCT  S5 CPB  00003                    0900 SR        000000000000 FUJITSU TEN (THAILAN170KPCL0028028                                                                                                                              *          20161202IMF1612024.TXT
MDDUGD201385201612                D89828070100PT4U20161207000030SPEAKER ASM                   M IMCTM S0FL05 FTTL  07070IMCT  S0 PTB  00004                    2100 SR        000000000000 FUJITSU TEN (THAILAN170KUCU0034034                                                                                                                              *          20161202IMF1612024.TXT
MDDUGD201386201612                D89828070100PT4U20161208000030SPEAKER ASM                   M IMCTM S0FL05 FTTL  07070IMCT  S0 PTB  00004                    1600 SR        000000000000 FUJITSU TEN (THAILAN170KUAU0020020                                                                                                                              *          20161202IMF1612024.TXT
MDDUGD201387201612                D89828070200PV4U20161207000030SPEAKER ASM                   M IMCTM S0FR05 FTTL  07070IMCT  S0 PTB  00005                    2100 SR        000000000000 FUJITSU TEN (THAILAN170KUCU0034034                                                                                                                              *          20161202IMF1612024.TXT
MDDUGD201388201612                D89828070200PV4U20161208000030SPEAKER ASM                   M IMCTM S0FR05 FTTL  07070IMCT  S0 PTB  00005                    1600 SR        000000000000 FUJITSU TEN (THAILAN170KUAU0020020                                                                                                                              *          20161202IMF1612024.TXT
MDDUGD201389201612                D89828070300PT4U20161207000030SPEAKER ASM                   M IMCTM S9TS02 FTTL  07070IMCT  S9 PTB  00015                    2100 SR        000000000000 FUJITSU TEN (THAILAN170KUCU0034034                                                                                                                              *          20161202IMF1612024.TXT
MDDUGD201390201612                D89828070300PT4U20161208000030SPEAKER ASM                   M IMCTM S9TS02 FTTL  07070IMCT  S9 PTB  00015                    1600 SR        000000000000 FUJITSU TEN (THAILAN170KUAU0020020                                                                                                                              *          20161202IMF1612024.TXT
MDDUGD201391201612                D89829093500PT4U20161207000015RADIO;ASM DVD (T              M IMCTM S9CO001FTTL  07070IMCT  S9 PTB  00003                    2100 SR        000000000000 FUJITSU TEN (THAILAN170KUCU0034034                                                                                                                              *          20161202IMF1612024.TXT
MDDUGD201392201612                D89831228400PT4U20161208000015RADIO;AM/FM,CD                M IMCTM S9CO001FTTL  07070IMCT  S9 CPB  00003                    1600 SR        000000000000 FUJITSU TEN (THAILAN170KUAU0020020                                                                                                                              *          20161202IMF1612024.TXT
MDEDGD207380201612                D89827952200PT1D20161208000030RADIO;AM/FM,CD,D              M IMCTM S5NC06 FTTL  07070IMCT  S5 X    00003                    0230 SR        000000000000 FUJITSU TEN (THAILAN17065NL0002003                                                                                                                              *          20161202IMF1612024.TXT
MDEDGD207381201612                D89828070100PV1D20161207000030SPEAKER ASM                   M IMCTM S5MB11 FTTL  07070IMCT  S5 PTB  00004                    2230 SR        000000000000 FUJITSU TEN (THAILAN17071NL0003003                                                                                                                              *          20161202IMF1612024.TXT
MDEDGD207382201612                D89828070100PV1D20161208000060SPEAKER ASM                   M IMCTM S5MB11 FTTL  07070IMCT  S5 PTB  00004                    0230 SR        000000000000 FUJITSU TEN (THAILAN17065NL0002003                                                                                                                              *          20161202IMF1612024.TXT
MDEDGD207383201612                D89828070100PV1D20161208000060SPEAKER ASM                   M IMCTM S5MB11 FTTL  07070IMCT  S5 PTB  00004                    0900 SR        000000000000 FUJITSU TEN (THAILAN17079NL0023024                                                                                                                              *          20161202IMF1612024.TXT
MDEDGD207384201612                D89828070100PV1D20161208000060SPEAKER ASM                   M IMCTM S5MB11 FTTL  07070IMCT  S5 PTB  00004                    1300 SR        000000000000 FUJITSU TEN (THAILAN17032RL000100117079NL0025025                                                                                                                *          20161202IMF1612024.TXT
MDEDGD207385201612                D89828070100PV1D20161208000060SPEAKER ASM                   M IMCTM S5MB11 FTTL  07070IMCT  S5 PTB  00004                    1600 SR        000000000000 FUJITSU TEN (THAILAN17014RL000100117071NL0004004                                                                                                                *          20161202IMF1612024.TXT
MDEDGD207386201612                D89828070100PV4D20161207000030SPEAKER ASM                   M IMCTM S0FL05 FTTL  07070IMCT  S0 PTB  00004                    2230 SR        000000000000 FUJITSU TEN (THAILAN17021QU0001001                                                                                                                              *          20161202IMF1612024.TXT
MDEDGD207387201612                D89828070100PV4D20161208000030SPEAKER ASM                   M IMCTM S0FL05 FTTL  07070IMCT  S0 PTB  00004                    0230 SR        000000000000 FUJITSU TEN (THAILAN17053NU0005005                                                                                                                              *          20161202IMF1612024.TXT
MDEDGD207388201612                D89828070100PV4D20161208000030SPEAKER ASM                   M IMCTM S0FL05 FTTL  07070IMCT  S0 PTB  00004                    0900 SR        000000000000 FUJITSU TEN (THAILAN17053NU0006006                                                                                                                              *          20161202IMF1612024.TXT
MDEDGD207389201612                D89828070100PV4D20161208000030SPEAKER ASM                   M IMCTM S0FL05 FTTL  07070IMCT  S0 PTB  00004                    1300 SR        000000000000 FUJITSU TEN (THAILAN17053NU0007007                                                                                                                              *          20161202IMF1612024.TXT
MDEDGD207390201612                D89828070100PV4D20161208000030SPEAKER ASM                   M IMCTM S0FL05 FTTL  07070IMCT  S0 PTB  00004                    1600 SR        000000000000 FUJITSU TEN (THAILAN17021QU0002002                                                                                                                              *          20161202IMF1612024.TXT
MDEDGD207391201612                D89828070200PV1D20161207000030SPEAKER ASM                   M IMCTM S5MA14 FTTL  07070IMCT  S5 PTB  00005                    2230 SR        000000000000 FUJITSU TEN (THAILAN17071NL0003003                                                                                                                              *          20161202IMF1612024.TXT
MDEDGD207392201612                D89828070200PV1D20161208000060SPEAKER ASM                   M IMCTM S5MA14 FTTL  07070IMCT  S5 PTB  00005                    0900 SR        000000000000 FUJITSU TEN (THAILAN17079NL0023024                                                                                                                              *          20161202IMF1612024.TXT
MDEDGD207393201612                D89828070200PV1D20161208000030SPEAKER ASM                   M IMCTM S5MA14 FTTL  07070IMCT  S5 PTB  00005                    1300 SR        000000000000 FUJITSU TEN (THAILAN17079NL0025025                                                                                                                              *          20161202IMF1612024.TXT
MDEDGD207394201612                D89828070200PV1D20161208000030SPEAKER ASM                   M IMCTM S5MA14 FTTL  07070IMCT  S5 PTB  00005                    1600 SR        000000000000 FUJITSU TEN (THAILAN17071NL0004004                                                                                                                              *          20161202IMF1612024.TXT
MDEDGD207395201612                D89828070300PT1D20161207000030SPEAKER ASM                   M IMCTM S5NB082FTTL  07070IMCT  S5 PTB  00015                    2230 SR        000000000000 FUJITSU TEN (THAILAN17071NL0003003                                                                                                                              *          20161202IMF1612024.TXT
MDEDGD207396201612                D89828070300PT1D20161208000060SPEAKER ASM                   M IMCTM S5NB082FTTL  07070IMCT  S5 PTB  00015                    0230 SR        000000000000 FUJITSU TEN (THAILAN17065NL0002003                                                                                                                              *          20161202IMF1612024.TXT
MDEDGD207397201612                D89828070300PT1D20161208000060SPEAKER ASM                   M IMCTM S5NB082FTTL  07070IMCT  S5 PTB  00015                    0900 SR        000000000000 FUJITSU TEN (THAILAN17079NL0023024                                                                                                                              *          20161202IMF1612024.TXT
MDEDGD207398201612                D89828070300PT1D20161208000060SPEAKER ASM                   M IMCTM S5NB082FTTL  07070IMCT  S5 PTB  00015                    1300 SR        000000000000 FUJITSU TEN (THAILAN17032RL000100117079NL0025025                                                                                                                *          20161202IMF1612024.TXT
MDEDGD207399201612                D89828070300PT1D20161208000030SPEAKER ASM                   M IMCTM S5NB082FTTL  07070IMCT  S5 PTB  00015                    1600 SR        000000000000 FUJITSU TEN (THAILAN17071NL0004004                                                                                                                              *          20161202IMF1612024.TXT
MDEDGD207400201612                D89828070300PT4D20161208000030SPEAKER ASM                   M IMCTM S9TS02 FTTL  07070IMCT  S9 PTB  00015                    0230 SR        000000000000 FUJITSU TEN (THAILAN17053NU0005005                                                                                                                              *          20161202IMF1612024.TXT
MDEDGD207401201612                D89828070300PT4D20161208000030SPEAKER ASM                   M IMCTM S9TS02 FTTL  07070IMCT  S9 PTB  00015                    0900 SR        000000000000 FUJITSU TEN (THAILAN17053NU0006006                                                                                                                              *          20161202IMF1612024.TXT
MDEDGD207402201612                D89828070300PT4D20161208000030SPEAKER ASM                   M IMCTM S9TS02 FTTL  07070IMCT  S9 PTB  00015                    1300 SR        000000000000 FUJITSU TEN (THAILAN17053NU0007007                                                                                                                              *          20161202IMF1612024.TXT
MDEDGD207403201612                D89829645700PT1D20161207000015RADIO;ASM DVD                 M IMCTM S5NC06 FTTL  07070IMCT  S5 X    00003                    2230 SR        000000000000 FUJITSU TEN (THAILAN17071NL0003003                                                                                                                              *          20161202IMF1612024.TXT
MDEDGD207404201612                D89829645700PT1D20161208000030RADIO;ASM DVD                 M IMCTM S5NC06 FTTL  07070IMCT  S5 X    00003                    0900 SR        000000000000 FUJITSU TEN (THAILAN17079NL0023024                                                                                                                              *          20161202IMF1612024.TXT
MDEDGD207405201612                D89829645700PT1D20161208000015RADIO;ASM DVD                 M IMCTM S5NC06 FTTL  07070IMCT  S5 X    00003                    1300 SR        000000000000 FUJITSU TEN (THAILAN17079NL0025025                                                                                                                              *          20161202IMF1612024.TXT
MDEDGD207406201612                D89829645700PT1D20161208000015RADIO;ASM DVD                 M IMCTM S5NC06 FTTL  07070IMCT  S5 X    00003                    1600 SR        000000000000 FUJITSU TEN (THAILAN17071NL0004004                                                                                                                              *          20161202IMF1612024.TXT
MDEDGD207407201612                D89829645700PT4D20161208000015RADIO;ASM DVD                 M IMCTM S9CO001FTTL  07070IMCT  S9 X    00003                    0230 SR        000000000000 FUJITSU TEN (THAILAN17053NU0005005                                                                                                                              *          20161202IMF1612024.TXT
MDEDGD207408201612                D89829645700PT4D20161208000015RADIO;ASM DVD                 M IMCTM S9CO001FTTL  07070IMCT  S9 X    00003                    0900 SR        000000000000 FUJITSU TEN (THAILAN17053NU0006006                                                                                                                              *          20161202IMF1612024.TXT
MDEDGD207409201612                D89829645700PT4D20161208000015RADIO;ASM DVD                 M IMCTM S9CO001FTTL  07070IMCT  S9 X    00003                    1300 SR        000000000000 FUJITSU TEN (THAILAN17053NU0007007                                                                                                                              *          20161202IMF1612024.TXT
MDEDGD207410201612                D89831228900PT1D20161208000015RADIO;AM/FM,CD                M IMCTM S5NC06 FTTL  07070IMCT  S5 PTB  00003                    1300 SR        000000000000 FUJITSU TEN (THAILAN17032RL0001001                                                                                                                              *          20161202IMF1612024.TXT
MDEUGD205520201612                D89828070100PT4U20161207000030SPEAKER ASM                   M IMCTM S0FL05 FTTL  07070IMCT  S0 PTB  00004                    2230 SR        000000000000 FUJITSU TEN (THAILAN170C16U0054054                                                                                                                              *          20161202IMF1612024.TXT
MDEUGD205521201612                D89828070100PT4U20161208000030SPEAKER ASM                   M IMCTM S0FL05 FTTL  07070IMCT  S0 PTB  00004                    0230 SR        000000000000 FUJITSU TEN (THAILAN170C13U0036036                                                                                                                              *          20161202IMF1612024.TXT
MDEUGD205522201612                D89828070100PT4U20161208000030SPEAKER ASM                   M IMCTM S0FL05 FTTL  07070IMCT  S0 PTB  00004                    0400 SR        000000000000 FUJITSU TEN (THAILAN170C09U0020020                                                                                                                              *          20161202IMF1612024.TXT
MDEUGD205523201612                D89828070100PT4U20161208000030SPEAKER ASM                   M IMCTM S0FL05 FTTL  07070IMCT  S0 PTB  00004                    0900 SR        000000000000 FUJITSU TEN (THAILAN170C16U0055055                                                                                                                              *          20161202IMF1612024.TXT
MDEUGD205524201612                D89828070100PT4U20161208000030SPEAKER ASM                   M IMCTM S0FL05 FTTL  07070IMCT  S0 PTB  00004                    1300 SR        000000000000 FUJITSU TEN (THAILAN170C09U0021021                                                                                                                              *          20161202IMF1612024.TXT
MDEUGD205525201612                D89828070100PT4U20161208000030SPEAKER ASM                   M IMCTM S0FL05 FTTL  07070IMCT  S0 PTB  00004                    1600 SR        000000000000 FUJITSU TEN (THAILAN170C16U0056056                                                                                                                              *          20161202IMF1612024.TXT
MDEUGD205526201612                D89828070100PT4U20161208000030SPEAKER ASM                   M IMCTM S0FL05 FTTL  07070IMCT  S0 PTB  00004                    2100 SR        000000000000 FUJITSU TEN (THAILAN170C16U0057057                                                                                                                              *          20161202IMF1612024.TXT
MDEUGD205527201612                D89828070200PV4U20161207000030SPEAKER ASM                   M IMCTM S0FR05 FTTL  07070IMCT  S0 PTB  00005                    2230 SR        000000000000 FUJITSU TEN (THAILAN170C16U0054054                                                                                                                              *          20161202IMF1612024.TXT
MDEUGD205528201612                D89828070200PV4U20161208000030SPEAKER ASM                   M IMCTM S0FR05 FTTL  07070IMCT  S0 PTB  00005                    0230 SR        000000000000 FUJITSU TEN (THAILAN170C13U0036036                                                                                                                              *          20161202IMF1612024.TXT
MDEUGD205529201612                D89828070200PV4U20161208000030SPEAKER ASM                   M IMCTM S0FR05 FTTL  07070IMCT  S0 PTB  00005                    0400 SR        000000000000 FUJITSU TEN (THAILAN170C09U0020020                                                                                                                              *          20161202IMF1612024.TXT
MDEUGD205530201612                D89828070200PV4U20161208000030SPEAKER ASM                   M IMCTM S0FR05 FTTL  07070IMCT  S0 PTB  00005                    0900 SR        000000000000 FUJITSU TEN (THAILAN170C16U0055055                                                                                                                              *          20161202IMF1612024.TXT
MDEUGD205531201612                D89828070200PV4U20161208000030SPEAKER ASM                   M IMCTM S0FR05 FTTL  07070IMCT  S0 PTB  00005                    1300 SR        000000000000 FUJITSU TEN (THAILAN170C09U0021021                                                                                                                              *          20161202IMF1612024.TXT
MDEUGD205532201612                D89828070200PV4U20161208000030SPEAKER ASM                   M IMCTM S0FR05 FTTL  07070IMCT  S0 PTB  00005                    1600 SR        000000000000 FUJITSU TEN (THAILAN170C16U0056056                                                                                                                              *          20161202IMF1612024.TXT
MDEUGD205533201612                D89828070200PV4U20161208000030SPEAKER ASM                   M IMCTM S0FR05 FTTL  07070IMCT  S0 PTB  00005                    2100 SR        000000000000 FUJITSU TEN (THAILAN170C16U0057057                                                                                                                              *          20161202IMF1612024.TXT
MDEUGD205534201612                D89828070300PT4U20161207000030SPEAKER ASM                   M IMCTM S9TS02 FTTL  07070IMCT  S9 PTB  00015                    2230 SR        000000000000 FUJITSU TEN (THAILAN170C16U0054054                                                                                                                              *          20161202IMF1612024.TXT
MDEUGD205535201612                D89828070300PT4U20161208000030SPEAKER ASM                   M IMCTM S9TS02 FTTL  07070IMCT  S9 PTB  00015                    0230 SR        000000000000 FUJITSU TEN (THAILAN170C13U0036036                                                                                                                              *          20161202IMF1612024.TXT
MDEUGD205536201612                D89828070300PT4U20161208000030SPEAKER ASM                   M IMCTM S9TS02 FTTL  07070IMCT  S9 PTB  00015                    0400 SR        000000000000 FUJITSU TEN (THAILAN170C09U0020020                                                                                                                              *          20161202IMF1612024.TXT
MDEUGD205537201612                D89828070300PT4U20161208000030SPEAKER ASM                   M IMCTM S9TS02 FTTL  07070IMCT  S9 PTB  00015                    0900 SR        000000000000 FUJITSU TEN (THAILAN170C16U0055055                                                                                                                              *          20161202IMF1612024.TXT
MDEUGD205538201612                D89828070300PT4U20161208000030SPEAKER ASM                   M IMCTM S9TS02 FTTL  07070IMCT  S9 PTB  00015                    1300 SR        000000000000 FUJITSU TEN (THAILAN170C09U0021021                                                                                                                              *          20161202IMF1612024.TXT
MDEUGD205539201612                D89828070300PT4U20161208000030SPEAKER ASM                   M IMCTM S9TS02 FTTL  07070IMCT  S9 PTB  00015                    1600 SR        000000000000 FUJITSU TEN (THAILAN170C16U0056056                                                                                                                              *          20161202IMF1612024.TXT
MDEUGD205540201612                D89828070300PT4U20161208000030SPEAKER ASM                   M IMCTM S9TS02 FTTL  07070IMCT  S9 PTB  00015                    2100 SR        000000000000 FUJITSU TEN (THAILAN170C16U0057057                                                                                                                              *          20161202IMF1612024.TXT
