REC2016120620161206ISUZU                              50     
MDDDGD219860201612                D89821984430PT1D20161209000030RADIO;AM/FM,CD                M IMCTM S5NC06 FTTL  07070IMCT  S5 PTB  00005                    2230 SR        000000000000 FUJITSU TEN (THAILAN170KRAL0019019                                                                                                                              *          20161206IMF1612064.TXT
MDDDGD219861201612                D89821984430PT1D20161210000030RADIO;AM/FM,CD                M IMCTM S5NC06 FTTL  07070IMCT  S5 PTB  00005                    0230 SR        000000000000 FUJITSU TEN (THAILAN170KPAL0049049                                                                                                                              *          20161206IMF1612064.TXT
MDDDGD219862201612                D89821984430PT1D20161210000060RADIO;AM/FM,CD                M IMCTM S5NC06 FTTL  07070IMCT  S5 PTB  00005                    0400 SR        000000000000 FUJITSU TEN (THAILAN170KNCL0045045170KPAL0050050                                                                                                                *          20161206IMF1612064.TXT
MDDDGD219863201612                D89821984430PT1D20161212000030RADIO;AM/FM,CD                M IMCTM S5NC06 FTTL  07070IMCT  S5 PTB  00005                    1300 SR        000000000000 FUJITSU TEN (THAILAN170KNDL0063063                                                                                                                              *          20161206IMF1612064.TXT
MDDDGD219864201612                D89821984430PT4D20161209000030RADIO;AM/FM,CD                M IMCTM S9CO001FTTL  07070IMCT  S9 PTB  00005                    2230 SR        000000000000 FUJITSU TEN (THAILAN170KRAU0001001                                                                                                                              *          20161206IMF1612064.TXT
MDDDGD219865201612                D89825217900PT1D20161212000030RADIO;AM/FM,CD,D              M IMCTM S5NC06 FTTL  07070IMCT  S5 PTB  00003                    1300 SR        000000000000 FUJITSU TEN (THAILAN170KPJL0017017                                                                                                                              *          20161206IMF1612064.TXT
MDDDGD219866201612                D89828070100PV1D20161209000060SPEAKER ASM                   M IMCTM S5MB11 FTTL  07070IMCT  S5 PTB  00004                    2100 SR        000000000000 FUJITSU TEN (THAILAN170KPFL0069069                                                                                                                              *          20161206IMF1612064.TXT
MDDDGD219867201612                D89828070100PV1D20161209000120SPEAKER ASM                   M IMCTM S5MB11 FTTL  07070IMCT  S5 PTB  00004                    2230 SR        000000000000 FUJITSU TEN (THAILAN170KRAL0019019170KRDL0002002                                                                                                                *          20161206IMF1612064.TXT
MDDDGD219868201612                D89828070100PV1D20161210000060SPEAKER ASM                   M IMCTM S5MB11 FTTL  07070IMCT  S5 PTB  00004                    0230 SR        000000000000 FUJITSU TEN (THAILAN170KPAL0049049                                                                                                                              *          20161206IMF1612064.TXT
MDDDGD219869201612                D89828070100PV1D20161210000120SPEAKER ASM                   M IMCTM S5MB11 FTTL  07070IMCT  S5 PTB  00004                    0400 SR        000000000000 FUJITSU TEN (THAILAN170KNCL0045045170KPAL0050050                                                                                                                *          20161206IMF1612064.TXT
MDDDGD219870201612                D89828070100PV1D20161212000120SPEAKER ASM                   M IMCTM S5MB11 FTTL  07070IMCT  S5 PTB  00004                    0900 SR        000000000000 FUJITSU TEN (THAILAN170KPML0010010170KRFL0032032                                                                                                                *          20161206IMF1612064.TXT
MDDDGD219871201612                D89828070100PV1D20161212000120SPEAKER ASM                   M IMCTM S5MB11 FTTL  07070IMCT  S5 PTB  00004                    1300 SR        000000000000 FUJITSU TEN (THAILAN170KNDL0063063170KPJL0017017                                                                                                                *          20161206IMF1612064.TXT
MDDDGD219872201612                D89828070100PV1D20161212000060SPEAKER ASM                   M IMCTM S5MB11 FTTL  07070IMCT  S5 PTB  00004                    2100 SR        000000000000 FUJITSU TEN (THAILAN170KRHL0012012                                                                                                                              *          20161206IMF1612064.TXT
MDDDGD219873201612                D89828070100PV4D20161209000060SPEAKER ASM                   M IMCTM S0FL05 FTTL  07070IMCT  S0 PTB  00004                    2230 SR        000000000000 FUJITSU TEN (THAILAN170KRAU0001001                                                                                                                              *          20161206IMF1612064.TXT
MDDDGD219874201612                D89828070100PV4D20161212000060SPEAKER ASM                   M IMCTM S0FL05 FTTL  07070IMCT  S0 PTB  00004                    0900 SR        000000000000 FUJITSU TEN (THAILAN170KRJU0001001                                                                                                                              *          20161206IMF1612064.TXT
MDDDGD219875201612                D89828070100PV4D20161212000060SPEAKER ASM                   M IMCTM S0FL05 FTTL  07070IMCT  S0 PTB  00004                    1600 SR        000000000000 FUJITSU TEN (THAILAN170KRJU0002002                                                                                                                              *          20161206IMF1612064.TXT
MDDDGD219876201612                D89828070200PV1D20161209000060SPEAKER ASM                   M IMCTM S5MA14 FTTL  07070IMCT  S5 PTB  00005                    2230 SR        000000000000 FUJITSU TEN (THAILAN170KRDL0002002                                                                                                                              *          20161206IMF1612064.TXT
MDDDGD219877201612                D89828070200PV1D20161212000060SPEAKER ASM                   M IMCTM S5MA14 FTTL  07070IMCT  S5 PTB  00005                    0900 SR        000000000000 FUJITSU TEN (THAILAN170KRFL0032032                                                                                                                              *          20161206IMF1612064.TXT
MDDDGD219878201612                D89828070200PV1D20161212000060SPEAKER ASM                   M IMCTM S5MA14 FTTL  07070IMCT  S5 PTB  00005                    2100 SR        000000000000 FUJITSU TEN (THAILAN170KRHL0012012                                                                                                                              *          20161206IMF1612064.TXT
MDDDGD219879201612                D89828070200PV4D20161212000060SPEAKER ASM                   M IMCTM S0FR05 FTTL  07070IMCT  S0 PTB  00005                    0900 SR        000000000000 FUJITSU TEN (THAILAN170KRJU0001001                                                                                                                              *          20161206IMF1612064.TXT
MDDDGD219880201612                D89828070200PV4D20161212000060SPEAKER ASM                   M IMCTM S0FR05 FTTL  07070IMCT  S0 PTB  00005                    1600 SR        000000000000 FUJITSU TEN (THAILAN170KRJU0002002                                                                                                                              *          20161206IMF1612064.TXT
MDDDGD219881201612                D89828070300PT1D20161209000060SPEAKER ASM                   M IMCTM S5NB082FTTL  07070IMCT  S5 PTB  00015                    2100 SR        000000000000 FUJITSU TEN (THAILAN170KPFL0069069                                                                                                                              *          20161206IMF1612064.TXT
MDDDGD219882201612                D89828070300PT1D20161209000060SPEAKER ASM                   M IMCTM S5NB082FTTL  07070IMCT  S5 PTB  00015                    2230 SR        000000000000 FUJITSU TEN (THAILAN170KRDL0002002                                                                                                                              *          20161206IMF1612064.TXT
MDDDGD219883201612                D89828070300PT1D20161212000120SPEAKER ASM                   M IMCTM S5NB082FTTL  07070IMCT  S5 PTB  00015                    0900 SR        000000000000 FUJITSU TEN (THAILAN170KPML0010010170KRFL0032032                                                                                                                *          20161206IMF1612064.TXT
MDDDGD219884201612                D89828070300PT1D20161212000060SPEAKER ASM                   M IMCTM S5NB082FTTL  07070IMCT  S5 PTB  00015                    1300 SR        000000000000 FUJITSU TEN (THAILAN170KPJL0017017                                                                                                                              *          20161206IMF1612064.TXT
MDDDGD219885201612                D89828070300PT1D20161212000060SPEAKER ASM                   M IMCTM S5NB082FTTL  07070IMCT  S5 PTB  00015                    2100 SR        000000000000 FUJITSU TEN (THAILAN170KRHL0012012                                                                                                                              *          20161206IMF1612064.TXT
MDDDGD219886201612                D89828070300PT4D20161212000060SPEAKER ASM                   M IMCTM S9TS02 FTTL  07070IMCT  S9 PTB  00015                    0900 SR        000000000000 FUJITSU TEN (THAILAN170KRJU0001001                                                                                                                              *          20161206IMF1612064.TXT
MDDDGD219887201612                D89828070300PT4D20161212000060SPEAKER ASM                   M IMCTM S9TS02 FTTL  07070IMCT  S9 PTB  00015                    1600 SR        000000000000 FUJITSU TEN (THAILAN170KRJU0002002                                                                                                                              *          20161206IMF1612064.TXT
MDDDGD219888201612                D89829645900PT1D20161212000030RADIO;ASM DVD                 M IMCTM S5NC06 FTTL  07070IMCT  S5 CPB  00003                    0900 SR        000000000000 FUJITSU TEN (THAILAN170KRFL0032032                                                                                                                              *          20161206IMF1612064.TXT
MDDDGD219889201612                D89831228300PT1D20161209000030RADIO;AM/FM,CD                M IMCTM S5NC06 FTTL  07070IMCT  S5 CPB  00003                    2100 SR        000000000000 FUJITSU TEN (THAILAN170KPFL0069069                                                                                                                              *          20161206IMF1612064.TXT
MDDDGD219890201612                D89831228400PT1D20161209000030RADIO;AM/FM,CD                M IMCTM S5NC06 FTTL  07070IMCT  S5 CPB  00003                    2230 SR        000000000000 FUJITSU TEN (THAILAN170KRDL0002002                                                                                                                              *          20161206IMF1612064.TXT
MDEDGD215476201612                D89828070100PV4D20161209000030SPEAKER ASM                   M IMCTM S0FL05 FTTL  07070IMCT  S0 PTB  00004                    2100 SR        000000000000 FUJITSU TEN (THAILAN17079NU0002002                                                                                                                              *          20161206IMF1612064.TXT
MDEDGD215477201612                D89828070200PV4D20161209000030SPEAKER ASM                   M IMCTM S0FR05 FTTL  07070IMCT  S0 PTB  00005                    2100 SR        000000000000 FUJITSU TEN (THAILAN17079NU0002002                                                                                                                              *          20161206IMF1612064.TXT
MDEDGD215478201612                D89828070300PT4D20161209000030SPEAKER ASM                   M IMCTM S9TS02 FTTL  07070IMCT  S9 PTB  00015                    2100 SR        000000000000 FUJITSU TEN (THAILAN17079NU0002002                                                                                                                              *          20161206IMF1612064.TXT
MDEDGD215479201612                D89829645700PT4D20161209000015RADIO;ASM DVD                 M IMCTM S9CO001FTTL  07070IMCT  S9 X    00003                    2100 SR        000000000000 FUJITSU TEN (THAILAN17079NU0002002                                                                                                                              *          20161206IMF1612064.TXT
MDEUGD213802201612                D89828070100PT4U20161209000030SPEAKER ASM                   M IMCTM S0FL05 FTTL  07070IMCT  S0 PTB  00004                    2230 SR        000000000000 FUJITSU TEN (THAILAN170C13U0038038                                                                                                                              *          20161206IMF1612064.TXT
MDEUGD213803201612                D89828070100PT4U20161210000030SPEAKER ASM                   M IMCTM S0FL05 FTTL  07070IMCT  S0 PTB  00004                    0230 SR        000000000000 FUJITSU TEN (THAILAN170C09U0023023                                                                                                                              *          20161206IMF1612064.TXT
MDEUGD213804201612                D89828070100PT4U20161210000030SPEAKER ASM                   M IMCTM S0FL05 FTTL  07070IMCT  S0 PTB  00004                    0400 SR        000000000000 FUJITSU TEN (THAILAN170C08U0009009                                                                                                                              *          20161206IMF1612064.TXT
MDEUGD213805201612                D89828070100PT4U20161212000030SPEAKER ASM                   M IMCTM S0FL05 FTTL  07070IMCT  S0 PTB  00004                    0900 SR        000000000000 FUJITSU TEN (THAILAN170C09U0024024                                                                                                                              *          20161206IMF1612064.TXT
MDEUGD213806201612                D89828070100PT4U20161212000030SPEAKER ASM                   M IMCTM S0FL05 FTTL  07070IMCT  S0 PTB  00004                    1300 SR        000000000000 FUJITSU TEN (THAILAN170C08U0010010                                                                                                                              *          20161206IMF1612064.TXT
MDEUGD213807201612                D89828070200PV4U20161209000030SPEAKER ASM                   M IMCTM S0FR05 FTTL  07070IMCT  S0 PTB  00005                    2230 SR        000000000000 FUJITSU TEN (THAILAN170C13U0038038                                                                                                                              *          20161206IMF1612064.TXT
MDEUGD213808201612                D89828070200PV4U20161210000030SPEAKER ASM                   M IMCTM S0FR05 FTTL  07070IMCT  S0 PTB  00005                    0230 SR        000000000000 FUJITSU TEN (THAILAN170C09U0023023                                                                                                                              *          20161206IMF1612064.TXT
MDEUGD213809201612                D89828070200PV4U20161210000030SPEAKER ASM                   M IMCTM S0FR05 FTTL  07070IMCT  S0 PTB  00005                    0400 SR        000000000000 FUJITSU TEN (THAILAN170C08U0009009                                                                                                                              *          20161206IMF1612064.TXT
MDEUGD213810201612                D89828070200PV4U20161212000030SPEAKER ASM                   M IMCTM S0FR05 FTTL  07070IMCT  S0 PTB  00005                    0900 SR        000000000000 FUJITSU TEN (THAILAN170C09U0024024                                                                                                                              *          20161206IMF1612064.TXT
MDEUGD213811201612                D89828070200PV4U20161212000030SPEAKER ASM                   M IMCTM S0FR05 FTTL  07070IMCT  S0 PTB  00005                    1300 SR        000000000000 FUJITSU TEN (THAILAN170C08U0010010                                                                                                                              *          20161206IMF1612064.TXT
MDEUGD213812201612                D89828070300PT4U20161209000030SPEAKER ASM                   M IMCTM S9TS02 FTTL  07070IMCT  S9 PTB  00015                    2230 SR        000000000000 FUJITSU TEN (THAILAN170C13U0038038                                                                                                                              *          20161206IMF1612064.TXT
MDEUGD213813201612                D89828070300PT4U20161210000030SPEAKER ASM                   M IMCTM S9TS02 FTTL  07070IMCT  S9 PTB  00015                    0230 SR        000000000000 FUJITSU TEN (THAILAN170C09U0023023                                                                                                                              *          20161206IMF1612064.TXT
MDEUGD213814201612                D89828070300PT4U20161210000030SPEAKER ASM                   M IMCTM S9TS02 FTTL  07070IMCT  S9 PTB  00015                    0400 SR        000000000000 FUJITSU TEN (THAILAN170C08U0009009                                                                                                                              *          20161206IMF1612064.TXT
MDEUGD213815201612                D89828070300PT4U20161212000030SPEAKER ASM                   M IMCTM S9TS02 FTTL  07070IMCT  S9 PTB  00015                    0900 SR        000000000000 FUJITSU TEN (THAILAN170C09U0024024                                                                                                                              *          20161206IMF1612064.TXT
MDEUGD213816201612                D89828070300PT4U20161212000030SPEAKER ASM                   M IMCTM S9TS02 FTTL  07070IMCT  S9 PTB  00015                    1300 SR        000000000000 FUJITSU TEN (THAILAN170C08U0010010                                                                                                                              *          20161206IMF1612064.TXT
