REC2017010720170109ISUZU                              44     
MDDDH1210073201701                D89821984430PT1D20170111000030RADIO;AM/FM,CD                M IMCTM S5NC06 FTTL  07070IMCT  S5 PTB  00005                    2100 SR        000000000000 FUJITSU TEN (THAILAN170KNEL0050050                                                                                                                              *          20170107IMF1701079.TXT
MDDDH1210074201701                D89821984430PT1D20170111000030RADIO;AM/FM,CD                M IMCTM S5NC06 FTTL  07070IMCT  S5 PTB  00005                    2230 SR        000000000000 FUJITSU TEN (THAILAN170KNFL0020020                                                                                                                              *          20170107IMF1701079.TXT
MDDDH1210075201701                D89821984430PT1D20170112000030RADIO;AM/FM,CD                M IMCTM S5NC06 FTTL  07070IMCT  S5 PTB  00005                    1300 SR        000000000000 FUJITSU TEN (THAILAN170KPAL0059059                                                                                                                              *          20170107IMF1701079.TXT
MDDDH1210076201701                D89828070100PV1D20170111000060SPEAKER ASM                   M IMCTM S5MB11 FTTL  07070IMCT  S5 PTB  00004                    2100 SR        000000000000 FUJITSU TEN (THAILAN170KNEL0050050                                                                                                                              *          20170107IMF1701079.TXT
MDDDH1210077201701                D89828070100PV1D20170111000060SPEAKER ASM                   M IMCTM S5MB11 FTTL  07070IMCT  S5 PTB  00004                    2230 SR        000000000000 FUJITSU TEN (THAILAN170KNFL0020020                                                                                                                              *          20170107IMF1701079.TXT
MDDDH1210078201701                D89828070100PV1D20170112000060SPEAKER ASM                   M IMCTM S5MB11 FTTL  07070IMCT  S5 PTB  00004                    0400 SR        000000000000 FUJITSU TEN (THAILAN170KRFL0041041                                                                                                                              *          20170107IMF1701079.TXT
MDDDH1210079201701                D89828070100PV1D20170112000060SPEAKER ASM                   M IMCTM S5MB11 FTTL  07070IMCT  S5 PTB  00004                    0900 SR        000000000000 FUJITSU TEN (THAILAN170KRJL0018018                                                                                                                              *          20170107IMF1701079.TXT
MDDDH1210080201701                D89828070100PV1D20170112000060SPEAKER ASM                   M IMCTM S5MB11 FTTL  07070IMCT  S5 PTB  00004                    1300 SR        000000000000 FUJITSU TEN (THAILAN170KPAL0059059                                                                                                                              *          20170107IMF1701079.TXT
MDDDH1210081201701                D89828070100PV1D20170112000060SPEAKER ASM                   M IMCTM S5MB11 FTTL  07070IMCT  S5 PTB  00004                    2100 SR        000000000000 FUJITSU TEN (THAILAN170KPGL0012012                                                                                                                              *          20170107IMF1701079.TXT
MDDDH1210082201701                D89828070200PV1D20170112000060SPEAKER ASM                   M IMCTM S5MA14 FTTL  07070IMCT  S5 PTB  00005                    0400 SR        000000000000 FUJITSU TEN (THAILAN170KRFL0041041                                                                                                                              *          20170107IMF1701079.TXT
MDDDH1210083201701                D89828070200PV1D20170112000060SPEAKER ASM                   M IMCTM S5MA14 FTTL  07070IMCT  S5 PTB  00005                    0900 SR        000000000000 FUJITSU TEN (THAILAN170KRJL0018018                                                                                                                              *          20170107IMF1701079.TXT
MDDDH1210084201701                D89828070300PT1D20170112000060SPEAKER ASM                   M IMCTM S5NB082FTTL  07070IMCT  S5 PTB  00015                    0400 SR        000000000000 FUJITSU TEN (THAILAN170KRFL0041041                                                                                                                              *          20170107IMF1701079.TXT
MDDDH1210085201701                D89828070300PT1D20170112000060SPEAKER ASM                   M IMCTM S5NB082FTTL  07070IMCT  S5 PTB  00015                    0900 SR        000000000000 FUJITSU TEN (THAILAN170KRJL0018018                                                                                                                              *          20170107IMF1701079.TXT
MDDDH1210086201701                D89828070300PT1D20170112000060SPEAKER ASM                   M IMCTM S5NB082FTTL  07070IMCT  S5 PTB  00015                    2100 SR        000000000000 FUJITSU TEN (THAILAN170KPGL0012012                                                                                                                              *          20170107IMF1701079.TXT
MDDDH1210087201701                D89829645900PT1D20170112000030RADIO;ASM DVD                 M IMCTM S5NC06 FTTL  07070IMCT  S5 CPB  00003                    0400 SR        000000000000 FUJITSU TEN (THAILAN170KRFL0041041                                                                                                                              *          20170107IMF1701079.TXT
MDDDH1210088201701                D89831228300PT1D20170112000030RADIO;AM/FM,CD                M IMCTM S5NC06 FTTL  07070IMCT  S5 CPB  00003                    2100 SR        000000000000 FUJITSU TEN (THAILAN170KPGL0012012                                                                                                                              *          20170107IMF1701079.TXT
MDEDH1218476201701                D89805293700PV1D20170111000090SPEAKER ASM                   M IMCTM S5MB11 FTTL  07070IMCT  S5 PTB  00003                    2230 SR        000000000000 FUJITSU TEN (THAILAN15018FL009209315021FL0012012                                                                                                                *          20170107IMF1701079.TXT
MDEDH1218477201701                D89805293700PV1D20170112000030SPEAKER ASM                   M IMCTM S5MB11 FTTL  07070IMCT  S5 PTB  00003                    1300 SR        000000000000 FUJITSU TEN (THAILAN15018FL0094094                                                                                                                              *          20170107IMF1701079.TXT
MDEDH1218478201701                D89805293700PV4D20170111000030SPEAKER ASM                   M IMCTM S0FR05 FTTL  07070IMCT  S0 PTB  00003                    2230 SR        000000000000 FUJITSU TEN (THAILAN15019FU0042042                                                                                                                              *          20170107IMF1701079.TXT
MDEDH1218479201701                D89805294000PT1D20170111000030SPEAKER ASM                   M IMCTM S5NB082FTTL  07070IMCT  S5 PTB  00015                    2230 SR        000000000000 FUJITSU TEN (THAILAN15021FL0012012                                                                                                                              *          20170107IMF1701079.TXT
MDEDH1218480201701                D89805294100PV1D20170111000030SPEAKER ASM                   M IMCTM S5MA14 FTTL  07070IMCT  S5 PTB  00005                    2230 SR        000000000000 FUJITSU TEN (THAILAN15021FL0012012                                                                                                                              *          20170107IMF1701079.TXT
MDEDH1218481201701                D89827952200PT1D20170112000015RADIO;AM/FM,CD,D              M IMCTM S5NC06 FTTL  07070IMCT  S5 X    00003                    1300 SR        000000000000 FUJITSU TEN (THAILAN17066NL0005005                                                                                                                              *          20170107IMF1701079.TXT
MDEDH1218482201701                D89828070100PV1D20170112000090SPEAKER ASM                   M IMCTM S5MB11 FTTL  07070IMCT  S5 PTB  00004                    0900 SR        000000000000 FUJITSU TEN (THAILAN17055NL000600617076ML0007008                                                                                                                *          20170107IMF1701079.TXT
MDEDH1218483201701                D89828070100PV1D20170112000030SPEAKER ASM                   M IMCTM S5MB11 FTTL  07070IMCT  S5 PTB  00004                    1300 SR        000000000000 FUJITSU TEN (THAILAN17066NL0005005                                                                                                                              *          20170107IMF1701079.TXT
MDEDH1218484201701                D89828070100PV4D20170112000030SPEAKER ASM                   M IMCTM S0FL05 FTTL  07070IMCT  S0 PTB  00004                    0900 SR        000000000000 FUJITSU TEN (THAILAN17057MU0002002                                                                                                                              *          20170107IMF1701079.TXT
MDEDH1218485201701                D89828070100PV4D20170112000030SPEAKER ASM                   M IMCTM S0FL05 FTTL  07070IMCT  S0 PTB  00004                    1300 SR        000000000000 FUJITSU TEN (THAILAN17024NU0006006                                                                                                                              *          20170107IMF1701079.TXT
MDEDH1218486201701                D89828070200PV4D20170112000030SPEAKER ASM                   M IMCTM S0FR05 FTTL  07070IMCT  S0 PTB  00005                    1300 SR        000000000000 FUJITSU TEN (THAILAN17024NU0006006                                                                                                                              *          20170107IMF1701079.TXT
MDEDH1218487201701                D89828070300PT1D20170112000030SPEAKER ASM                   M IMCTM S5NB082FTTL  07070IMCT  S5 PTB  00015                    0900 SR        000000000000 FUJITSU TEN (THAILAN17055NL0006006                                                                                                                              *          20170107IMF1701079.TXT
MDEDH1218488201701                D89828070300PT1D20170112000030SPEAKER ASM                   M IMCTM S5NB082FTTL  07070IMCT  S5 PTB  00015                    1300 SR        000000000000 FUJITSU TEN (THAILAN17066NL0005005                                                                                                                              *          20170107IMF1701079.TXT
MDEDH1218489201701                D89828070300PT4D20170112000030SPEAKER ASM                   M IMCTM S9TS02 FTTL  07070IMCT  S9 PTB  00015                    0900 SR        000000000000 FUJITSU TEN (THAILAN17057MU0002002                                                                                                                              *          20170107IMF1701079.TXT
MDEDH1218490201701                D89828070300PT4D20170112000030SPEAKER ASM                   M IMCTM S9TS02 FTTL  07070IMCT  S9 PTB  00015                    1300 SR        000000000000 FUJITSU TEN (THAILAN17024NU0006006                                                                                                                              *          20170107IMF1701079.TXT
MDEDH1218491201701                D89829645700PT1D20170112000015RADIO;ASM DVD                 M IMCTM S5NC06 FTTL  07070IMCT  S5 X    00003                    0900 SR        000000000000 FUJITSU TEN (THAILAN17055NL0006006                                                                                                                              *          20170107IMF1701079.TXT
MDEUH1208557201701                D89828070100PT4U20170111000030SPEAKER ASM                   M IMCTM S0FL05 FTTL  07070IMCT  S0 PTB  00004                    2230 SR        000000000000 FUJITSU TEN (THAILAN170C04U0011011                                                                                                                              *          20170107IMF1701079.TXT
MDEUH1208558201701                D89828070100PT4U20170112000030SPEAKER ASM                   M IMCTM S0FL05 FTTL  07070IMCT  S0 PTB  00004                    0230 SR        000000000000 FUJITSU TEN (THAILAN170C09U0035035                                                                                                                              *          20170107IMF1701079.TXT
MDEUH1208559201701                D89828070100PT4U20170112000030SPEAKER ASM                   M IMCTM S0FL05 FTTL  07070IMCT  S0 PTB  00004                    0900 SR        000000000000 FUJITSU TEN (THAILAN170C13U0053053                                                                                                                              *          20170107IMF1701079.TXT
MDEUH1208560201701                D89828070100PT4U20170112000030SPEAKER ASM                   M IMCTM S0FL05 FTTL  07070IMCT  S0 PTB  00004                    1300 SR        000000000000 FUJITSU TEN (THAILAN170C47U0009009                                                                                                                              *          20170107IMF1701079.TXT
MDEUH1208561201701                D89828070200PV4U20170111000030SPEAKER ASM                   M IMCTM S0FR05 FTTL  07070IMCT  S0 PTB  00005                    2230 SR        000000000000 FUJITSU TEN (THAILAN170C04U0011011                                                                                                                              *          20170107IMF1701079.TXT
MDEUH1208562201701                D89828070200PV4U20170112000030SPEAKER ASM                   M IMCTM S0FR05 FTTL  07070IMCT  S0 PTB  00005                    0230 SR        000000000000 FUJITSU TEN (THAILAN170C09U0035035                                                                                                                              *          20170107IMF1701079.TXT
MDEUH1208563201701                D89828070200PV4U20170112000030SPEAKER ASM                   M IMCTM S0FR05 FTTL  07070IMCT  S0 PTB  00005                    0900 SR        000000000000 FUJITSU TEN (THAILAN170C13U0053053                                                                                                                              *          20170107IMF1701079.TXT
MDEUH1208564201701                D89828070200PV4U20170112000030SPEAKER ASM                   M IMCTM S0FR05 FTTL  07070IMCT  S0 PTB  00005                    1300 SR        000000000000 FUJITSU TEN (THAILAN170C47U0009009                                                                                                                              *          20170107IMF1701079.TXT
MDEUH1208565201701                D89828070300PT4U20170111000030SPEAKER ASM                   M IMCTM S9TS02 FTTL  07070IMCT  S9 PTB  00015                    2230 SR        000000000000 FUJITSU TEN (THAILAN170C04U0011011                                                                                                                              *          20170107IMF1701079.TXT
MDEUH1208566201701                D89828070300PT4U20170112000030SPEAKER ASM                   M IMCTM S9TS02 FTTL  07070IMCT  S9 PTB  00015                    0230 SR        000000000000 FUJITSU TEN (THAILAN170C09U0035035                                                                                                                              *          20170107IMF1701079.TXT
MDEUH1208567201701                D89828070300PT4U20170112000030SPEAKER ASM                   M IMCTM S9TS02 FTTL  07070IMCT  S9 PTB  00015                    0900 SR        000000000000 FUJITSU TEN (THAILAN170C13U0053053                                                                                                                              *          20170107IMF1701079.TXT
MDEUH1208568201701                D89828070300PT4U20170112000030SPEAKER ASM                   M IMCTM S9TS02 FTTL  07070IMCT  S9 PTB  00015                    1300 SR        000000000000 FUJITSU TEN (THAILAN170C47U0009009                                                                                                                              *          20170107IMF1701079.TXT
