REC2017012720170127ISUZU                              4      
MDEFH1T21077201702                D89828070100PV4F20170201000002SPEAKER ASM                   M IMCTM S7FL05 FTTL  07070IMCT  S7 PTB  00004                    1300 SR        000000000000 FUJITSU TEN (THAILAN17065RR0006   17065RR0006   R170200215    R170200215    000000                                                                              *R         20170127RDF1701276.TXT
MDEFH1T21078201702                D89828070300PT4F20170201000002SPEAKER ASM                   M IMCTM S7TS02 FTTL  07070IMCT  S7 PTB  00015                    1300 SR        000000000000 FUJITSU TEN (THAILAN17065RR0006   17065RR0006   R170200215    R170200215    000000                                                                              *R         20170127RDF1701276.TXT
MDEFH1T21079201702                D89831229200PT4F20170201000001RADIO;AM/FM,CD                M IMCTM S7TS03 FTTL  07070IMCT  S7 PTB  00003                    1300 SR        000000000000 FUJITSU TEN (THAILAN17065RR0006   17065RR0006   R170200215    R170200215    000000                                                                              *R         20170127RDF1701276.TXT
MDEFH1267914201702                D89828070100PV4F20170201000028SPEAKER ASM                   M IMCTM S7FL05 FTTL  07070IMCT  S7 PTB  00004                    0900 SR        000000000000 FUJITSU TEN (THAILAN17027NR0013   17085LR0012   R170200201    R170200214    000000                                                                              *R         20170127RDF1701276.TXT
