REC2017011020170110ISUZU                              62     
MDDDH1217917201701                D89821984430PT1D20170114000030RADIO;AM/FM,CD                M IMCTM S5NC06 FTTL  07070IMCT  S5 PTB  00005                    0230 SR        000000000000 FUJITSU TEN (THAILAN170KPAL0061061                                                                                                                              *          20170110IMF1701103.TXT
MDDDH1217918201701                D89821984430PT1D20170114000030RADIO;AM/FM,CD                M IMCTM S5NC06 FTTL  07070IMCT  S5 PTB  00005                    0400 SR        000000000000 FUJITSU TEN (THAILAN170KNDL0065065                                                                                                                              *          20170110IMF1701103.TXT
MDDDH1217919201701                D89828070100PV1D20170114000060SPEAKER ASM                   M IMCTM S5MB11 FTTL  07070IMCT  S5 PTB  00004                    0230 SR        000000000000 FUJITSU TEN (THAILAN170KPAL0061061                                                                                                                              *          20170110IMF1701103.TXT
MDDDH1217920201701                D89828070100PV1D20170114000060SPEAKER ASM                   M IMCTM S5MB11 FTTL  07070IMCT  S5 PTB  00004                    0400 SR        000000000000 FUJITSU TEN (THAILAN170KNDL0065065                                                                                                                              *          20170110IMF1701103.TXT
MDDDH1217921201701                D89828070100PV1D20170116000060SPEAKER ASM                   M IMCTM S5MB11 FTTL  07070IMCT  S5 PTB  00004                    0900 SR        000000000000 FUJITSU TEN (THAILAN170KRFL0043043                                                                                                                              *          20170110IMF1701103.TXT
MDDDH1217922201701                D89828070100PV1D20170116000060SPEAKER ASM                   M IMCTM S5MB11 FTTL  07070IMCT  S5 PTB  00004                    1300 SR        000000000000 FUJITSU TEN (THAILAN170KPFL0100100                                                                                                                              *          20170110IMF1701103.TXT
MDDDH1217923201701                D89828070200PV1D20170116000060SPEAKER ASM                   M IMCTM S5MA14 FTTL  07070IMCT  S5 PTB  00005                    0900 SR        000000000000 FUJITSU TEN (THAILAN170KRFL0043043                                                                                                                              *          20170110IMF1701103.TXT
MDDDH1217924201701                D89828070300PT1D20170116000060SPEAKER ASM                   M IMCTM S5NB082FTTL  07070IMCT  S5 PTB  00015                    0900 SR        000000000000 FUJITSU TEN (THAILAN170KRFL0043043                                                                                                                              *          20170110IMF1701103.TXT
MDDDH1217925201701                D89828070300PT1D20170116000060SPEAKER ASM                   M IMCTM S5NB082FTTL  07070IMCT  S5 PTB  00015                    1300 SR        000000000000 FUJITSU TEN (THAILAN170KPFL0100100                                                                                                                              *          20170110IMF1701103.TXT
MDDDH1217926201701                D89829645900PT1D20170116000030RADIO;ASM DVD                 M IMCTM S5NC06 FTTL  07070IMCT  S5 CPB  00003                    0900 SR        000000000000 FUJITSU TEN (THAILAN170KRFL0043043                                                                                                                              *          20170110IMF1701103.TXT
MDDDH1217927201701                D89831228300PT1D20170116000030RADIO;AM/FM,CD                M IMCTM S5NC06 FTTL  07070IMCT  S5 CPB  00003                    1300 SR        000000000000 FUJITSU TEN (THAILAN170KPFL0100100                                                                                                                              *          20170110IMF1701103.TXT
MDEDH1233902201701                D89805293700PV1D20170113000030SPEAKER ASM                   M IMCTM S5MB11 FTTL  07070IMCT  S5 PTB  00003                    2230 SR        000000000000 FUJITSU TEN (THAILAN15018FL0095095                                                                                                                              *          20170110IMF1701103.TXT
MDEDH1233903201701                D89828070100PV1D20170113000030SPEAKER ASM                   M IMCTM S5MB11 FTTL  07070IMCT  S5 PTB  00004                    2100 SR        000000000000 FUJITSU TEN (THAILAN17031ML0004004                                                                                                                              *          20170110IMF1701103.TXT
MDEDH1233904201701                D89828070100PV1D20170113000120SPEAKER ASM                   M IMCTM S5MB11 FTTL  07070IMCT  S5 PTB  00004                    2230 SR        000000000000 FUJITSU TEN (THAILAN17029ML000500617068ML000200217075PL0001001                                                                                                  *          20170110IMF1701103.TXT
MDEDH1233905201701                D89828070100PV1D20170114000030SPEAKER ASM                   M IMCTM S5MB11 FTTL  07070IMCT  S5 PTB  00004                    0230 SR        000000000000 FUJITSU TEN (THAILAN17068ML0003003                                                                                                                              *          20170110IMF1701103.TXT
MDEDH1233906201701                D89828070100PV1D20170114000060SPEAKER ASM                   M IMCTM S5MB11 FTTL  07070IMCT  S5 PTB  00004                    0400 SR        000000000000 FUJITSU TEN (THAILAN17010ML0003004                                                                                                                              *          20170110IMF1701103.TXT
MDEDH1233907201701                D89828070100PV1D20170116000060SPEAKER ASM                   M IMCTM S5MB11 FTTL  07070IMCT  S5 PTB  00004                    0900 SR        000000000000 FUJITSU TEN (THAILAN17022ML0004005                                                                                                                              *          20170110IMF1701103.TXT
MDEDH1233908201701                D89828070100PV1D20170116000060SPEAKER ASM                   M IMCTM S5MB11 FTTL  07070IMCT  S5 PTB  00004                    1300 SR        000000000000 FUJITSU TEN (THAILAN17025NL0002003                                                                                                                              *          20170110IMF1701103.TXT
MDEDH1233909201701                D89828070100PV1D20170116000030SPEAKER ASM                   M IMCTM S5MB11 FTTL  07070IMCT  S5 PTB  00004                    1600 SR        000000000000 FUJITSU TEN (THAILAN17083ML0005005                                                                                                                              *          20170110IMF1701103.TXT
MDEDH1233910201701                D89828070100PV4D20170113000030SPEAKER ASM                   M IMCTM S0FL05 FTTL  07070IMCT  S0 PTB  00004                    2230 SR        000000000000 FUJITSU TEN (THAILAN17034PU0022022                                                                                                                              *          20170110IMF1701103.TXT
MDEDH1233911201701                D89828070100PV4D20170114000030SPEAKER ASM                   M IMCTM S0FL05 FTTL  07070IMCT  S0 PTB  00004                    0230 SR        000000000000 FUJITSU TEN (THAILAN17034PU0023023                                                                                                                              *          20170110IMF1701103.TXT
MDEDH1233912201701                D89828070100PV4D20170116000030SPEAKER ASM                   M IMCTM S0FL05 FTTL  07070IMCT  S0 PTB  00004                    0900 SR        000000000000 FUJITSU TEN (THAILAN17064NU0001001                                                                                                                              *          20170110IMF1701103.TXT
MDEDH1233913201701                D89828070100PV4D20170116000030SPEAKER ASM                   M IMCTM S0FL05 FTTL  07070IMCT  S0 PTB  00004                    1300 SR        000000000000 FUJITSU TEN (THAILAN17018MU0001001                                                                                                                              *          20170110IMF1701103.TXT
MDEDH1233914201701                D89828070100PV4D20170116000030SPEAKER ASM                   M IMCTM S0FL05 FTTL  07070IMCT  S0 PTB  00004                    1600 SR        000000000000 FUJITSU TEN (THAILAN17053NU0009009                                                                                                                              *          20170110IMF1701103.TXT
MDEDH1233915201701                D89828070200PV1D20170113000030SPEAKER ASM                   M IMCTM S5MA14 FTTL  07070IMCT  S5 PTB  00005                    2100 SR        000000000000 FUJITSU TEN (THAILAN17031ML0004004                                                                                                                              *          20170110IMF1701103.TXT
MDEDH1233916201701                D89828070200PV1D20170113000060SPEAKER ASM                   M IMCTM S5MA14 FTTL  07070IMCT  S5 PTB  00005                    2230 SR        000000000000 FUJITSU TEN (THAILAN17029ML0005006                                                                                                                              *          20170110IMF1701103.TXT
MDEDH1233917201701                D89828070200PV1D20170116000060SPEAKER ASM                   M IMCTM S5MA14 FTTL  07070IMCT  S5 PTB  00005                    0900 SR        000000000000 FUJITSU TEN (THAILAN17022ML0004005                                                                                                                              *          20170110IMF1701103.TXT
MDEDH1233918201701                D89828070200PV1D20170116000060SPEAKER ASM                   M IMCTM S5MA14 FTTL  07070IMCT  S5 PTB  00005                    1300 SR        000000000000 FUJITSU TEN (THAILAN17025NL0002003                                                                                                                              *          20170110IMF1701103.TXT
MDEDH1233919201701                D89828070200PV4D20170113000030SPEAKER ASM                   M IMCTM S0FR05 FTTL  07070IMCT  S0 PTB  00005                    2230 SR        000000000000 FUJITSU TEN (THAILAN17034PU0022022                                                                                                                              *          20170110IMF1701103.TXT
MDEDH1233920201701                D89828070200PV4D20170114000030SPEAKER ASM                   M IMCTM S0FR05 FTTL  07070IMCT  S0 PTB  00005                    0230 SR        000000000000 FUJITSU TEN (THAILAN17034PU0023023                                                                                                                              *          20170110IMF1701103.TXT
MDEDH1233921201701                D89828070200PV4D20170116000030SPEAKER ASM                   M IMCTM S0FR05 FTTL  07070IMCT  S0 PTB  00005                    1300 SR        000000000000 FUJITSU TEN (THAILAN17018MU0001001                                                                                                                              *          20170110IMF1701103.TXT
MDEDH1233922201701                D89828070300PT1D20170113000030SPEAKER ASM                   M IMCTM S5NB082FTTL  07070IMCT  S5 PTB  00015                    2100 SR        000000000000 FUJITSU TEN (THAILAN17031ML0004004                                                                                                                              *          20170110IMF1701103.TXT
MDEDH1233923201701                D89828070300PT1D20170113000090SPEAKER ASM                   M IMCTM S5NB082FTTL  07070IMCT  S5 PTB  00015                    2230 SR        000000000000 FUJITSU TEN (THAILAN17029ML000500617068ML0002002                                                                                                                *          20170110IMF1701103.TXT
MDEDH1233924201701                D89828070300PT1D20170114000030SPEAKER ASM                   M IMCTM S5NB082FTTL  07070IMCT  S5 PTB  00015                    0230 SR        000000000000 FUJITSU TEN (THAILAN17068ML0003003                                                                                                                              *          20170110IMF1701103.TXT
MDEDH1233925201701                D89828070300PT1D20170116000060SPEAKER ASM                   M IMCTM S5NB082FTTL  07070IMCT  S5 PTB  00015                    0900 SR        000000000000 FUJITSU TEN (THAILAN17022ML0004005                                                                                                                              *          20170110IMF1701103.TXT
MDEDH1233926201701                D89828070300PT1D20170116000060SPEAKER ASM                   M IMCTM S5NB082FTTL  07070IMCT  S5 PTB  00015                    1300 SR        000000000000 FUJITSU TEN (THAILAN17025NL0002003                                                                                                                              *          20170110IMF1701103.TXT
MDEDH1233927201701                D89828070300PT1D20170116000030SPEAKER ASM                   M IMCTM S5NB082FTTL  07070IMCT  S5 PTB  00015                    1600 SR        000000000000 FUJITSU TEN (THAILAN17083ML0005005                                                                                                                              *          20170110IMF1701103.TXT
MDEDH1233928201701                D89828070300PT4D20170113000030SPEAKER ASM                   M IMCTM S9TS02 FTTL  07070IMCT  S9 PTB  00015                    2230 SR        000000000000 FUJITSU TEN (THAILAN17034PU0022022                                                                                                                              *          20170110IMF1701103.TXT
MDEDH1233929201701                D89828070300PT4D20170114000030SPEAKER ASM                   M IMCTM S9TS02 FTTL  07070IMCT  S9 PTB  00015                    0230 SR        000000000000 FUJITSU TEN (THAILAN17034PU0023023                                                                                                                              *          20170110IMF1701103.TXT
MDEDH1233930201701                D89828070300PT4D20170116000030SPEAKER ASM                   M IMCTM S9TS02 FTTL  07070IMCT  S9 PTB  00015                    0900 SR        000000000000 FUJITSU TEN (THAILAN17064NU0001001                                                                                                                              *          20170110IMF1701103.TXT
MDEDH1233931201701                D89828070300PT4D20170116000030SPEAKER ASM                   M IMCTM S9TS02 FTTL  07070IMCT  S9 PTB  00015                    1300 SR        000000000000 FUJITSU TEN (THAILAN17018MU0001001                                                                                                                              *          20170110IMF1701103.TXT
MDEDH1233932201701                D89828070300PT4D20170116000030SPEAKER ASM                   M IMCTM S9TS02 FTTL  07070IMCT  S9 PTB  00015                    1600 SR        000000000000 FUJITSU TEN (THAILAN17053NU0009009                                                                                                                              *          20170110IMF1701103.TXT
MDEDH1233933201701                D89829622400PT1D20170113000015RADIO;ASM DVD                 M IMCTM S5NC06 FTTL  07070IMCT  S5 PTB  00003                    2230 SR        000000000000 FUJITSU TEN (THAILAN17068ML0002002                                                                                                                              *          20170110IMF1701103.TXT
MDEDH1233934201701                D89829622400PT1D20170114000015RADIO;ASM DVD                 M IMCTM S5NC06 FTTL  07070IMCT  S5 PTB  00003                    0230 SR        000000000000 FUJITSU TEN (THAILAN17068ML0003003                                                                                                                              *          20170110IMF1701103.TXT
MDEDH1233935201701                D89829645300PT4D20170116000015RADIO;ASM DVD                 M IMCTM S9CO001FTTL  07070IMCT  S9 PTB  00003                    1300 SR        000000000000 FUJITSU TEN (THAILAN17018MU0001001                                                                                                                              *          20170110IMF1701103.TXT
MDEDH1233936201701                D89829645700PT4D20170116000015RADIO;ASM DVD                 M IMCTM S9CO001FTTL  07070IMCT  S9 X    00003                    0900 SR        000000000000 FUJITSU TEN (THAILAN17064NU0001001                                                                                                                              *          20170110IMF1701103.TXT
MDEDH1233937201701                D89829645700PT4D20170116000015RADIO;ASM DVD                 M IMCTM S9CO001FTTL  07070IMCT  S9 X    00003                    1600 SR        000000000000 FUJITSU TEN (THAILAN17053NU0009009                                                                                                                              *          20170110IMF1701103.TXT
MDEUH1215670201701                D89828070100PT4U20170113000030SPEAKER ASM                   M IMCTM S0FL05 FTTL  07070IMCT  S0 PTB  00004                    2100 SR        000000000000 FUJITSU TEN (THAILAN170C13U0054054                                                                                                                              *          20170110IMF1701103.TXT
MDEUH1215671201701                D89828070100PT4U20170113000030SPEAKER ASM                   M IMCTM S0FL05 FTTL  07070IMCT  S0 PTB  00004                    2230 SR        000000000000 FUJITSU TEN (THAILAN170C04U0012012                                                                                                                              *          20170110IMF1701103.TXT
MDEUH1215672201701                D89828070100PT4U20170114000030SPEAKER ASM                   M IMCTM S0FL05 FTTL  07070IMCT  S0 PTB  00004                    0400 SR        000000000000 FUJITSU TEN (THAILAN170C13U0055055                                                                                                                              *          20170110IMF1701103.TXT
MDEUH1215673201701                D89828070100PT4U20170116000030SPEAKER ASM                   M IMCTM S0FL05 FTTL  07070IMCT  S0 PTB  00004                    0900 SR        000000000000 FUJITSU TEN (THAILAN170C13U0056056                                                                                                                              *          20170110IMF1701103.TXT
MDEUH1215674201701                D89828070100PT4U20170116000030SPEAKER ASM                   M IMCTM S0FL05 FTTL  07070IMCT  S0 PTB  00004                    1300 SR        000000000000 FUJITSU TEN (THAILAN170C04U0013013                                                                                                                              *          20170110IMF1701103.TXT
MDEUH1215675201701                D89828070200PV4U20170113000030SPEAKER ASM                   M IMCTM S0FR05 FTTL  07070IMCT  S0 PTB  00005                    2100 SR        000000000000 FUJITSU TEN (THAILAN170C13U0054054                                                                                                                              *          20170110IMF1701103.TXT
MDEUH1215676201701                D89828070200PV4U20170113000030SPEAKER ASM                   M IMCTM S0FR05 FTTL  07070IMCT  S0 PTB  00005                    2230 SR        000000000000 FUJITSU TEN (THAILAN170C04U0012012                                                                                                                              *          20170110IMF1701103.TXT
MDEUH1215677201701                D89828070200PV4U20170114000030SPEAKER ASM                   M IMCTM S0FR05 FTTL  07070IMCT  S0 PTB  00005                    0400 SR        000000000000 FUJITSU TEN (THAILAN170C13U0055055                                                                                                                              *          20170110IMF1701103.TXT
MDEUH1215678201701                D89828070200PV4U20170116000030SPEAKER ASM                   M IMCTM S0FR05 FTTL  07070IMCT  S0 PTB  00005                    0900 SR        000000000000 FUJITSU TEN (THAILAN170C13U0056056                                                                                                                              *          20170110IMF1701103.TXT
MDEUH1215679201701                D89828070200PV4U20170116000030SPEAKER ASM                   M IMCTM S0FR05 FTTL  07070IMCT  S0 PTB  00005                    1300 SR        000000000000 FUJITSU TEN (THAILAN170C04U0013013                                                                                                                              *          20170110IMF1701103.TXT
MDEUH1215680201701                D89828070300PT4U20170113000030SPEAKER ASM                   M IMCTM S9TS02 FTTL  07070IMCT  S9 PTB  00015                    2100 SR        000000000000 FUJITSU TEN (THAILAN170C13U0054054                                                                                                                              *          20170110IMF1701103.TXT
MDEUH1215681201701                D89828070300PT4U20170113000030SPEAKER ASM                   M IMCTM S9TS02 FTTL  07070IMCT  S9 PTB  00015                    2230 SR        000000000000 FUJITSU TEN (THAILAN170C04U0012012                                                                                                                              *          20170110IMF1701103.TXT
MDEUH1215682201701                D89828070300PT4U20170114000030SPEAKER ASM                   M IMCTM S9TS02 FTTL  07070IMCT  S9 PTB  00015                    0400 SR        000000000000 FUJITSU TEN (THAILAN170C13U0055055                                                                                                                              *          20170110IMF1701103.TXT
MDEUH1215683201701                D89828070300PT4U20170116000030SPEAKER ASM                   M IMCTM S9TS02 FTTL  07070IMCT  S9 PTB  00015                    0900 SR        000000000000 FUJITSU TEN (THAILAN170C13U0056056                                                                                                                              *          20170110IMF1701103.TXT
MDEUH1215684201701                D89828070300PT4U20170116000030SPEAKER ASM                   M IMCTM S9TS02 FTTL  07070IMCT  S9 PTB  00015                    1300 SR        000000000000 FUJITSU TEN (THAILAN170C04U0013013                                                                                                                              *          20170110IMF1701103.TXT
