REC2017011820170119ISUZU                              73     
MDDDH1248136201701                D89821984430PT1D20170123000030RADIO;AM/FM,CD                M IMCTM S5NC06 FTTL  07070IMCT  S5 PTB  00005                    2100 SR        000000000000 FUJITSU TEN (THAILAN170KPAL0067067                                                                                                                              *          20170118IMF1701185.TXT
MDDDH1248137201701                D89821984430PT1D20170124000030RADIO;AM/FM,CD                M IMCTM S5NC06 FTTL  07070IMCT  S5 PTB  00005                    0230 SR        000000000000 FUJITSU TEN (THAILAN170KNFL0022022                                                                                                                              *          20170118IMF1701185.TXT
MDDDH1248138201701                D89821984430PT1D20170124000060RADIO;AM/FM,CD                M IMCTM S5NC06 FTTL  07070IMCT  S5 PTB  00005                    1300 SR        000000000000 FUJITSU TEN (THAILAN170KNEL0053053170KRAL0024024                                                                                                                *          20170118IMF1701185.TXT
MDDDH1248139201701                D89828070100PV1D20170123000060SPEAKER ASM                   M IMCTM S5MB11 FTTL  07070IMCT  S5 PTB  00004                    2100 SR        000000000000 FUJITSU TEN (THAILAN170KPAL0067067                                                                                                                              *          20170118IMF1701185.TXT
MDDDH1248140201701                D89828070100PV1D20170123000120SPEAKER ASM                   M IMCTM S5MB11 FTTL  07070IMCT  S5 PTB  00004                    2230 SR        000000000000 FUJITSU TEN (THAILAN170KPGL0013013170KRCL0017017                                                                                                                *          20170118IMF1701185.TXT
MDDDH1248141201701                D89828070100PV1D20170124000060SPEAKER ASM                   M IMCTM S5MB11 FTTL  07070IMCT  S5 PTB  00004                    0230 SR        000000000000 FUJITSU TEN (THAILAN170KNFL0022022                                                                                                                              *          20170118IMF1701185.TXT
MDDDH1248142201701                D89828070100PV1D20170124000120SPEAKER ASM                   M IMCTM S5MB11 FTTL  07070IMCT  S5 PTB  00004                    0400 SR        000000000000 FUJITSU TEN (THAILAN170KPCL0034034170KRUL0003003                                                                                                                *          20170118IMF1701185.TXT
MDDDH1248143201701                D89828070100PV1D20170124000060SPEAKER ASM                   M IMCTM S5MB11 FTTL  07070IMCT  S5 PTB  00004                    0900 SR        000000000000 FUJITSU TEN (THAILAN170KRFL0047047                                                                                                                              *          20170118IMF1701185.TXT
MDDDH1248144201701                D89828070100PV1D20170124000120SPEAKER ASM                   M IMCTM S5MB11 FTTL  07070IMCT  S5 PTB  00004                    1300 SR        000000000000 FUJITSU TEN (THAILAN170KNEL0053053170KRAL0024024                                                                                                                *          20170118IMF1701185.TXT
MDDDH1248145201701                D89828070100PV1D20170124000120SPEAKER ASM                   M IMCTM S5MB11 FTTL  07070IMCT  S5 PTB  00004                    1600 SR        000000000000 FUJITSU TEN (THAILAN170KPFL0109109170KRFL0048048                                                                                                                *          20170118IMF1701185.TXT
MDDDH1248146201701                D89828070200PV1D20170123000060SPEAKER ASM                   M IMCTM S5MA14 FTTL  07070IMCT  S5 PTB  00005                    2230 SR        000000000000 FUJITSU TEN (THAILAN170KRCL0017017                                                                                                                              *          20170118IMF1701185.TXT
MDDDH1248147201701                D89828070200PV1D20170124000060SPEAKER ASM                   M IMCTM S5MA14 FTTL  07070IMCT  S5 PTB  00005                    0400 SR        000000000000 FUJITSU TEN (THAILAN170KRUL0003003                                                                                                                              *          20170118IMF1701185.TXT
MDDDH1248148201701                D89828070200PV1D20170124000060SPEAKER ASM                   M IMCTM S5MA14 FTTL  07070IMCT  S5 PTB  00005                    0900 SR        000000000000 FUJITSU TEN (THAILAN170KRFL0047047                                                                                                                              *          20170118IMF1701185.TXT
MDDDH1248149201701                D89828070200PV1D20170124000060SPEAKER ASM                   M IMCTM S5MA14 FTTL  07070IMCT  S5 PTB  00005                    1600 SR        000000000000 FUJITSU TEN (THAILAN170KRFL0048048                                                                                                                              *          20170118IMF1701185.TXT
MDDDH1248150201701                D89828070300PT1D20170123000120SPEAKER ASM                   M IMCTM S5NB082FTTL  07070IMCT  S5 PTB  00015                    2230 SR        000000000000 FUJITSU TEN (THAILAN170KPGL0013013170KRCL0017017                                                                                                                *          20170118IMF1701185.TXT
MDDDH1248151201701                D89828070300PT1D20170124000120SPEAKER ASM                   M IMCTM S5NB082FTTL  07070IMCT  S5 PTB  00015                    0400 SR        000000000000 FUJITSU TEN (THAILAN170KPCL0034034170KRUL0003003                                                                                                                *          20170118IMF1701185.TXT
MDDDH1248152201701                D89828070300PT1D20170124000060SPEAKER ASM                   M IMCTM S5NB082FTTL  07070IMCT  S5 PTB  00015                    0900 SR        000000000000 FUJITSU TEN (THAILAN170KRFL0047047                                                                                                                              *          20170118IMF1701185.TXT
MDDDH1248153201701                D89828070300PT1D20170124000120SPEAKER ASM                   M IMCTM S5NB082FTTL  07070IMCT  S5 PTB  00015                    1600 SR        000000000000 FUJITSU TEN (THAILAN170KPFL0109109170KRFL0048048                                                                                                                *          20170118IMF1701185.TXT
MDDDH1248154201701                D89829645900PT1D20170124000030RADIO;ASM DVD                 M IMCTM S5NC06 FTTL  07070IMCT  S5 CPB  00003                    0900 SR        000000000000 FUJITSU TEN (THAILAN170KRFL0047047                                                                                                                              *          20170118IMF1701185.TXT
MDDDH1248155201701                D89829645900PT1D20170124000030RADIO;ASM DVD                 M IMCTM S5NC06 FTTL  07070IMCT  S5 CPB  00003                    1600 SR        000000000000 FUJITSU TEN (THAILAN170KRFL0048048                                                                                                                              *          20170118IMF1701185.TXT
MDDDH1248156201701                D89831228300PT1D20170123000030RADIO;AM/FM,CD                M IMCTM S5NC06 FTTL  07070IMCT  S5 CPB  00003                    2230 SR        000000000000 FUJITSU TEN (THAILAN170KPGL0013013                                                                                                                              *          20170118IMF1701185.TXT
MDDDH1248157201701                D89831228300PT1D20170124000030RADIO;AM/FM,CD                M IMCTM S5NC06 FTTL  07070IMCT  S5 CPB  00003                    0400 SR        000000000000 FUJITSU TEN (THAILAN170KPCL0034034                                                                                                                              *          20170118IMF1701185.TXT
MDDDH1248158201701                D89831228300PT1D20170124000030RADIO;AM/FM,CD                M IMCTM S5NC06 FTTL  07070IMCT  S5 CPB  00003                    1600 SR        000000000000 FUJITSU TEN (THAILAN170KPFL0109109                                                                                                                              *          20170118IMF1701185.TXT
MDDDH1248159201701                D89831228400PT1D20170123000030RADIO;AM/FM,CD                M IMCTM S5NC06 FTTL  07070IMCT  S5 CPB  00003                    2230 SR        000000000000 FUJITSU TEN (THAILAN170KRCL0017017                                                                                                                              *          20170118IMF1701185.TXT
MDEDH1280725201701                D89827952200PT1D20170124000015RADIO;AM/FM,CD,D              M IMCTM S5NC06 FTTL  07070IMCT  S5 X    00003                    2100 SR        000000000000 FUJITSU TEN (THAILAN17066NL0007007                                                                                                                              *          20170118IMF1701185.TXT
MDEDH1280726201701                D89828070100PV1D20170124000030SPEAKER ASM                   M IMCTM S5MB11 FTTL  07070IMCT  S5 PTB  00004                    0900 SR        000000000000 FUJITSU TEN (THAILAN17034PL0014014                                                                                                                              *          20170118IMF1701185.TXT
MDEDH1280727201701                D89828070100PV1D20170124000030SPEAKER ASM                   M IMCTM S5MB11 FTTL  07070IMCT  S5 PTB  00004                    1300 SR        000000000000 FUJITSU TEN (THAILAN17034PL0015015                                                                                                                              *          20170118IMF1701185.TXT
MDEDH1280728201701                D89828070100PV1D20170124000060SPEAKER ASM                   M IMCTM S5MB11 FTTL  07070IMCT  S5 PTB  00004                    1600 SR        000000000000 FUJITSU TEN (THAILAN17022ML0006007                                                                                                                              *          20170118IMF1701185.TXT
MDEDH1280729201701                D89828070100PV1D20170124000030SPEAKER ASM                   M IMCTM S5MB11 FTTL  07070IMCT  S5 PTB  00004                    2100 SR        000000000000 FUJITSU TEN (THAILAN17066NL0007007                                                                                                                              *          20170118IMF1701185.TXT
MDEDH1280730201701                D89828070100PV4D20170123000030SPEAKER ASM                   M IMCTM S0FL05 FTTL  07070IMCT  S0 PTB  00004                    2100 SR        000000000000 FUJITSU TEN (THAILAN17020MU0001001                                                                                                                              *          20170118IMF1701185.TXT
MDEDH1280731201701                D89828070100PV4D20170124000030SPEAKER ASM                   M IMCTM S0FL05 FTTL  07070IMCT  S0 PTB  00004                    0230 SR        000000000000 FUJITSU TEN (THAILAN17072QU0001001                                                                                                                              *          20170118IMF1701185.TXT
MDEDH1280732201701                D89828070100PV4D20170124000030SPEAKER ASM                   M IMCTM S0FL05 FTTL  07070IMCT  S0 PTB  00004                    0900 SR        000000000000 FUJITSU TEN (THAILAN17024NU0008008                                                                                                                              *          20170118IMF1701185.TXT
MDEDH1280733201701                D89828070100PV4D20170124000030SPEAKER ASM                   M IMCTM S0FL05 FTTL  07070IMCT  S0 PTB  00004                    1600 SR        000000000000 FUJITSU TEN (THAILAN17021QU0004004                                                                                                                              *          20170118IMF1701185.TXT
MDEDH1280734201701                D89828070100PV4D20170124000030SPEAKER ASM                   M IMCTM S0FL05 FTTL  07070IMCT  S0 PTB  00004                    2100 SR        000000000000 FUJITSU TEN (THAILAN17079NU0006006                                                                                                                              *          20170118IMF1701185.TXT
MDEDH1280735201701                D89828070100PV4D20170124000030SPEAKER ASM                   M IMCTM S0FL05 FTTL  07070IMCT  S0 PTB  00004                    2230 SR        000000000000 FUJITSU TEN (THAILAN17079NU0007007                                                                                                                              *          20170118IMF1701185.TXT
MDEDH1280736201701                D89828070200PV1D20170124000030SPEAKER ASM                   M IMCTM S5MA14 FTTL  07070IMCT  S5 PTB  00005                    0900 SR        000000000000 FUJITSU TEN (THAILAN17034PL0014014                                                                                                                              *          20170118IMF1701185.TXT
MDEDH1280737201701                D89828070200PV1D20170124000030SPEAKER ASM                   M IMCTM S5MA14 FTTL  07070IMCT  S5 PTB  00005                    1300 SR        000000000000 FUJITSU TEN (THAILAN17034PL0015015                                                                                                                              *          20170118IMF1701185.TXT
MDEDH1280738201701                D89828070200PV1D20170124000060SPEAKER ASM                   M IMCTM S5MA14 FTTL  07070IMCT  S5 PTB  00005                    1600 SR        000000000000 FUJITSU TEN (THAILAN17022ML0006007                                                                                                                              *          20170118IMF1701185.TXT
MDEDH1280739201701                D89828070200PV4D20170123000030SPEAKER ASM                   M IMCTM S0FR05 FTTL  07070IMCT  S0 PTB  00005                    2100 SR        000000000000 FUJITSU TEN (THAILAN17020MU0001001                                                                                                                              *          20170118IMF1701185.TXT
MDEDH1280740201701                D89828070200PV4D20170124000030SPEAKER ASM                   M IMCTM S0FR05 FTTL  07070IMCT  S0 PTB  00005                    0230 SR        000000000000 FUJITSU TEN (THAILAN17072QU0001001                                                                                                                              *          20170118IMF1701185.TXT
MDEDH1280741201701                D89828070200PV4D20170124000030SPEAKER ASM                   M IMCTM S0FR05 FTTL  07070IMCT  S0 PTB  00005                    0900 SR        000000000000 FUJITSU TEN (THAILAN17024NU0008008                                                                                                                              *          20170118IMF1701185.TXT
MDEDH1280742201701                D89828070200PV4D20170124000030SPEAKER ASM                   M IMCTM S0FR05 FTTL  07070IMCT  S0 PTB  00005                    2100 SR        000000000000 FUJITSU TEN (THAILAN17079NU0006006                                                                                                                              *          20170118IMF1701185.TXT
MDEDH1280743201701                D89828070200PV4D20170124000030SPEAKER ASM                   M IMCTM S0FR05 FTTL  07070IMCT  S0 PTB  00005                    2230 SR        000000000000 FUJITSU TEN (THAILAN17079NU0007007                                                                                                                              *          20170118IMF1701185.TXT
MDEDH1280744201701                D89828070300PT1D20170124000030SPEAKER ASM                   M IMCTM S5NB082FTTL  07070IMCT  S5 PTB  00015                    0900 SR        000000000000 FUJITSU TEN (THAILAN17034PL0014014                                                                                                                              *          20170118IMF1701185.TXT
MDEDH1280745201701                D89828070300PT1D20170124000030SPEAKER ASM                   M IMCTM S5NB082FTTL  07070IMCT  S5 PTB  00015                    1300 SR        000000000000 FUJITSU TEN (THAILAN17034PL0015015                                                                                                                              *          20170118IMF1701185.TXT
MDEDH1280746201701                D89828070300PT1D20170124000060SPEAKER ASM                   M IMCTM S5NB082FTTL  07070IMCT  S5 PTB  00015                    1600 SR        000000000000 FUJITSU TEN (THAILAN17022ML0006007                                                                                                                              *          20170118IMF1701185.TXT
MDEDH1280747201701                D89828070300PT1D20170124000030SPEAKER ASM                   M IMCTM S5NB082FTTL  07070IMCT  S5 PTB  00015                    2100 SR        000000000000 FUJITSU TEN (THAILAN17066NL0007007                                                                                                                              *          20170118IMF1701185.TXT
MDEDH1280748201701                D89828070300PT4D20170123000030SPEAKER ASM                   M IMCTM S9TS02 FTTL  07070IMCT  S9 PTB  00015                    2100 SR        000000000000 FUJITSU TEN (THAILAN17020MU0001001                                                                                                                              *          20170118IMF1701185.TXT
MDEDH1280749201701                D89828070300PT4D20170124000030SPEAKER ASM                   M IMCTM S9TS02 FTTL  07070IMCT  S9 PTB  00015                    0230 SR        000000000000 FUJITSU TEN (THAILAN17072QU0001001                                                                                                                              *          20170118IMF1701185.TXT
MDEDH1280750201701                D89828070300PT4D20170124000030SPEAKER ASM                   M IMCTM S9TS02 FTTL  07070IMCT  S9 PTB  00015                    0900 SR        000000000000 FUJITSU TEN (THAILAN17024NU0008008                                                                                                                              *          20170118IMF1701185.TXT
MDEDH1280751201701                D89828070300PT4D20170124000030SPEAKER ASM                   M IMCTM S9TS02 FTTL  07070IMCT  S9 PTB  00015                    2100 SR        000000000000 FUJITSU TEN (THAILAN17079NU0006006                                                                                                                              *          20170118IMF1701185.TXT
MDEDH1280752201701                D89828070300PT4D20170124000030SPEAKER ASM                   M IMCTM S9TS02 FTTL  07070IMCT  S9 PTB  00015                    2230 SR        000000000000 FUJITSU TEN (THAILAN17079NU0007007                                                                                                                              *          20170118IMF1701185.TXT
MDEDH1280753201701                D89829645400PT4D20170124000015RADIO;ASM DVD                 M IMCTM S9CO001FTTL  07070IMCT  S9 PTB  00003                    0230 SR        000000000000 FUJITSU TEN (THAILAN17072QU0001001                                                                                                                              *          20170118IMF1701185.TXT
MDEDH1280754201701                D89829645700PT4D20170124000015RADIO;ASM DVD                 M IMCTM S9CO001FTTL  07070IMCT  S9 X    00003                    2100 SR        000000000000 FUJITSU TEN (THAILAN17079NU0006006                                                                                                                              *          20170118IMF1701185.TXT
MDEDH1280755201701                D89829645700PT4D20170124000015RADIO;ASM DVD                 M IMCTM S9CO001FTTL  07070IMCT  S9 X    00003                    2230 SR        000000000000 FUJITSU TEN (THAILAN17079NU0007007                                                                                                                              *          20170118IMF1701185.TXT
MDEUH1240446201701                D89828070100PT4U20170123000030SPEAKER ASM                   M IMCTM S0FL05 FTTL  07070IMCT  S0 PTB  00004                    2230 SR        000000000000 FUJITSU TEN (THAILAN170C13U0068068                                                                                                                              *          20170118IMF1701185.TXT
MDEUH1240447201701                D89828070100PT4U20170124000030SPEAKER ASM                   M IMCTM S0FL05 FTTL  07070IMCT  S0 PTB  00004                    0230 SR        000000000000 FUJITSU TEN (THAILAN170C09U0044044                                                                                                                              *          20170118IMF1701185.TXT
MDEUH1240448201701                D89828070100PT4U20170124000030SPEAKER ASM                   M IMCTM S0FL05 FTTL  07070IMCT  S0 PTB  00004                    0400 SR        000000000000 FUJITSU TEN (THAILAN170C09U0045045                                                                                                                              *          20170118IMF1701185.TXT
MDEUH1240449201701                D89828070100PT4U20170124000030SPEAKER ASM                   M IMCTM S0FL05 FTTL  07070IMCT  S0 PTB  00004                    0900 SR        000000000000 FUJITSU TEN (THAILAN170C13U0069069                                                                                                                              *          20170118IMF1701185.TXT
MDEUH1240450201701                D89828070100PT4U20170124000030SPEAKER ASM                   M IMCTM S0FL05 FTTL  07070IMCT  S0 PTB  00004                    1300 SR        000000000000 FUJITSU TEN (THAILAN170C16U0106106                                                                                                                              *          20170118IMF1701185.TXT
MDEUH1240451201701                D89828070100PT4U20170124000060SPEAKER ASM                   M IMCTM S0FL05 FTTL  07070IMCT  S0 PTB  00004                    1600 SR        000000000000 FUJITSU TEN (THAILAN170C08U0019019170C12U0028028                                                                                                                *          20170118IMF1701185.TXT
MDEUH1240452201701                D89828070200PV4U20170123000030SPEAKER ASM                   M IMCTM S0FR05 FTTL  07070IMCT  S0 PTB  00005                    2230 SR        000000000000 FUJITSU TEN (THAILAN170C13U0068068                                                                                                                              *          20170118IMF1701185.TXT
MDEUH1240453201701                D89828070200PV4U20170124000030SPEAKER ASM                   M IMCTM S0FR05 FTTL  07070IMCT  S0 PTB  00005                    0230 SR        000000000000 FUJITSU TEN (THAILAN170C09U0044044                                                                                                                              *          20170118IMF1701185.TXT
MDEUH1240454201701                D89828070200PV4U20170124000030SPEAKER ASM                   M IMCTM S0FR05 FTTL  07070IMCT  S0 PTB  00005                    0400 SR        000000000000 FUJITSU TEN (THAILAN170C09U0045045                                                                                                                              *          20170118IMF1701185.TXT
MDEUH1240455201701                D89828070200PV4U20170124000030SPEAKER ASM                   M IMCTM S0FR05 FTTL  07070IMCT  S0 PTB  00005                    0900 SR        000000000000 FUJITSU TEN (THAILAN170C13U0069069                                                                                                                              *          20170118IMF1701185.TXT
MDEUH1240456201701                D89828070200PV4U20170124000030SPEAKER ASM                   M IMCTM S0FR05 FTTL  07070IMCT  S0 PTB  00005                    1300 SR        000000000000 FUJITSU TEN (THAILAN170C16U0106106                                                                                                                              *          20170118IMF1701185.TXT
MDEUH1240457201701                D89828070200PV4U20170124000060SPEAKER ASM                   M IMCTM S0FR05 FTTL  07070IMCT  S0 PTB  00005                    1600 SR        000000000000 FUJITSU TEN (THAILAN170C08U0019019170C12U0028028                                                                                                                *          20170118IMF1701185.TXT
MDEUH1240458201701                D89828070300PT4U20170123000030SPEAKER ASM                   M IMCTM S9TS02 FTTL  07070IMCT  S9 PTB  00015                    2230 SR        000000000000 FUJITSU TEN (THAILAN170C13U0068068                                                                                                                              *          20170118IMF1701185.TXT
MDEUH1240459201701                D89828070300PT4U20170124000030SPEAKER ASM                   M IMCTM S9TS02 FTTL  07070IMCT  S9 PTB  00015                    0230 SR        000000000000 FUJITSU TEN (THAILAN170C09U0044044                                                                                                                              *          20170118IMF1701185.TXT
MDEUH1240460201701                D89828070300PT4U20170124000030SPEAKER ASM                   M IMCTM S9TS02 FTTL  07070IMCT  S9 PTB  00015                    0400 SR        000000000000 FUJITSU TEN (THAILAN170C09U0045045                                                                                                                              *          20170118IMF1701185.TXT
MDEUH1240461201701                D89828070300PT4U20170124000030SPEAKER ASM                   M IMCTM S9TS02 FTTL  07070IMCT  S9 PTB  00015                    0900 SR        000000000000 FUJITSU TEN (THAILAN170C13U0069069                                                                                                                              *          20170118IMF1701185.TXT
MDEUH1240462201701                D89828070300PT4U20170124000030SPEAKER ASM                   M IMCTM S9TS02 FTTL  07070IMCT  S9 PTB  00015                    1300 SR        000000000000 FUJITSU TEN (THAILAN170C16U0106106                                                                                                                              *          20170118IMF1701185.TXT
MDEUH1240463201701                D89828070300PT4U20170124000060SPEAKER ASM                   M IMCTM S9TS02 FTTL  07070IMCT  S9 PTB  00015                    1600 SR        000000000000 FUJITSU TEN (THAILAN170C08U0019019170C12U0028028                                                                                                                *          20170118IMF1701185.TXT
