REC2017011120170111ISUZU                              69     
MDDDH1221475201701                D89821984430PT1D20170116000030RADIO;AM/FM,CD                M IMCTM S5NC06 FTTL  07070IMCT  S5 PTB  00005                    2100 SR        000000000000 FUJITSU TEN (THAILAN170KPAL0062062                                                                                                                              *          20170111IMF1701114.TXT
MDDDH1221476201701                D89821984430PT1D20170117000030RADIO;AM/FM,CD                M IMCTM S5NC06 FTTL  07070IMCT  S5 PTB  00005                    0900 SR        000000000000 FUJITSU TEN (THAILAN170KPAL0063063                                                                                                                              *          20170111IMF1701114.TXT
MDDDH1221477201701                D89821984430PT1D20170117000030RADIO;AM/FM,CD                M IMCTM S5NC06 FTTL  07070IMCT  S5 PTB  00005                    1300 SR        000000000000 FUJITSU TEN (THAILAN170KNEL0051051                                                                                                                              *          20170111IMF1701114.TXT
MDDDH1221478201701                D89828070100PV1D20170116000060SPEAKER ASM                   M IMCTM S5MB11 FTTL  07070IMCT  S5 PTB  00004                    2100 SR        000000000000 FUJITSU TEN (THAILAN170KPAL0062062                                                                                                                              *          20170111IMF1701114.TXT
MDDDH1221479201701                D89828070100PV1D20170116000060SPEAKER ASM                   M IMCTM S5MB11 FTTL  07070IMCT  S5 PTB  00004                    2230 SR        000000000000 FUJITSU TEN (THAILAN170KPFL0101101                                                                                                                              *          20170111IMF1701114.TXT
MDDDH1221480201701                D89828070100PV1D20170117000060SPEAKER ASM                   M IMCTM S5MB11 FTTL  07070IMCT  S5 PTB  00004                    0400 SR        000000000000 FUJITSU TEN (THAILAN170KRTL0001001                                                                                                                              *          20170111IMF1701114.TXT
MDDDH1221481201701                D89828070100PV1D20170117000060SPEAKER ASM                   M IMCTM S5MB11 FTTL  07070IMCT  S5 PTB  00004                    0900 SR        000000000000 FUJITSU TEN (THAILAN170KPAL0063063                                                                                                                              *          20170111IMF1701114.TXT
MDDDH1221482201701                D89828070100PV1D20170117000060SPEAKER ASM                   M IMCTM S5MB11 FTTL  07070IMCT  S5 PTB  00004                    1300 SR        000000000000 FUJITSU TEN (THAILAN170KNEL0051051                                                                                                                              *          20170111IMF1701114.TXT
MDDDH1221483201701                D89828070100PV1D20170117000120SPEAKER ASM                   M IMCTM S5MB11 FTTL  07070IMCT  S5 PTB  00004                    1600 SR        000000000000 FUJITSU TEN (THAILAN170KPCL0032032170KRUL0001001                                                                                                                *          20170111IMF1701114.TXT
MDDDH1221484201701                D89828070200PV1D20170117000060SPEAKER ASM                   M IMCTM S5MA14 FTTL  07070IMCT  S5 PTB  00005                    0400 SR        000000000000 FUJITSU TEN (THAILAN170KRTL0001001                                                                                                                              *          20170111IMF1701114.TXT
MDDDH1221485201701                D89828070200PV1D20170117000060SPEAKER ASM                   M IMCTM S5MA14 FTTL  07070IMCT  S5 PTB  00005                    1600 SR        000000000000 FUJITSU TEN (THAILAN170KRUL0001001                                                                                                                              *          20170111IMF1701114.TXT
MDDDH1221486201701                D89828070300PT1D20170116000060SPEAKER ASM                   M IMCTM S5NB082FTTL  07070IMCT  S5 PTB  00015                    2230 SR        000000000000 FUJITSU TEN (THAILAN170KPFL0101101                                                                                                                              *          20170111IMF1701114.TXT
MDDDH1221487201701                D89828070300PT1D20170117000060SPEAKER ASM                   M IMCTM S5NB082FTTL  07070IMCT  S5 PTB  00015                    0400 SR        000000000000 FUJITSU TEN (THAILAN170KRTL0001001                                                                                                                              *          20170111IMF1701114.TXT
MDDDH1221488201701                D89828070300PT1D20170117000120SPEAKER ASM                   M IMCTM S5NB082FTTL  07070IMCT  S5 PTB  00015                    1600 SR        000000000000 FUJITSU TEN (THAILAN170KPCL0032032170KRUL0001001                                                                                                                *          20170111IMF1701114.TXT
MDDDH1221489201701                D89829645900PT1D20170117000030RADIO;ASM DVD                 M IMCTM S5NC06 FTTL  07070IMCT  S5 CPB  00003                    0400 SR        000000000000 FUJITSU TEN (THAILAN170KRTL0001001                                                                                                                              *          20170111IMF1701114.TXT
MDDDH1221490201701                D89831228300PT1D20170116000030RADIO;AM/FM,CD                M IMCTM S5NC06 FTTL  07070IMCT  S5 CPB  00003                    2230 SR        000000000000 FUJITSU TEN (THAILAN170KPFL0101101                                                                                                                              *          20170111IMF1701114.TXT
MDDDH1221491201701                D89831228300PT1D20170117000030RADIO;AM/FM,CD                M IMCTM S5NC06 FTTL  07070IMCT  S5 CPB  00003                    1600 SR        000000000000 FUJITSU TEN (THAILAN170KPCL0032032                                                                                                                              *          20170111IMF1701114.TXT
MDEDH1243143201701                D89828070100PV1D20170116000030SPEAKER ASM                   M IMCTM S5MB11 FTTL  07070IMCT  S5 PTB  00004                    2100 SR        000000000000 FUJITSU TEN (THAILAN17083ML0006006                                                                                                                              *          20170111IMF1701114.TXT
MDEDH1243144201701                D89828070100PV1D20170116000060SPEAKER ASM                   M IMCTM S5MB11 FTTL  07070IMCT  S5 PTB  00004                    2230 SR        000000000000 FUJITSU TEN (THAILAN17044ML000300317079NL0044044                                                                                                                *          20170111IMF1701114.TXT
MDEDH1243145201701                D89828070100PV1D20170117000060SPEAKER ASM                   M IMCTM S5MB11 FTTL  07070IMCT  S5 PTB  00004                    0230 SR        000000000000 FUJITSU TEN (THAILAN17018ML0005006                                                                                                                              *          20170111IMF1701114.TXT
MDEDH1243146201701                D89828070100PV1D20170117000030SPEAKER ASM                   M IMCTM S5MB11 FTTL  07070IMCT  S5 PTB  00004                    0400 SR        000000000000 FUJITSU TEN (THAILAN17079NL0045045                                                                                                                              *          20170111IMF1701114.TXT
MDEDH1243147201701                D89828070100PV1D20170117000060SPEAKER ASM                   M IMCTM S5MB11 FTTL  07070IMCT  S5 PTB  00004                    0900 SR        000000000000 FUJITSU TEN (THAILAN17034PL001201217079NL0046046                                                                                                                *          20170111IMF1701114.TXT
MDEDH1243148201701                D89828070100PV1D20170117000090SPEAKER ASM                   M IMCTM S5MB11 FTTL  07070IMCT  S5 PTB  00004                    1300 SR        000000000000 FUJITSU TEN (THAILAN17010ML000500617034PL0013013                                                                                                                *          20170111IMF1701114.TXT
MDEDH1243149201701                D89828070100PV1D20170117000060SPEAKER ASM                   M IMCTM S5MB11 FTTL  07070IMCT  S5 PTB  00004                    1600 SR        000000000000 FUJITSU TEN (THAILAN17031ML0005006                                                                                                                              *          20170111IMF1701114.TXT
MDEDH1243150201701                D89828070100PV4D20170116000030SPEAKER ASM                   M IMCTM S0FL05 FTTL  07070IMCT  S0 PTB  00004                    2100 SR        000000000000 FUJITSU TEN (THAILAN17083MU0001001                                                                                                                              *          20170111IMF1701114.TXT
MDEDH1243151201701                D89828070100PV4D20170117000030SPEAKER ASM                   M IMCTM S0FL05 FTTL  07070IMCT  S0 PTB  00004                    0230 SR        000000000000 FUJITSU TEN (THAILAN17034PU0024024                                                                                                                              *          20170111IMF1701114.TXT
MDEDH1243152201701                D89828070100PV4D20170117000030SPEAKER ASM                   M IMCTM S0FL05 FTTL  07070IMCT  S0 PTB  00004                    0900 SR        000000000000 FUJITSU TEN (THAILAN17021QU0003003                                                                                                                              *          20170111IMF1701114.TXT
MDEDH1243153201701                D89828070100PV4D20170117000030SPEAKER ASM                   M IMCTM S0FL05 FTTL  07070IMCT  S0 PTB  00004                    1300 SR        000000000000 FUJITSU TEN (THAILAN17075NU0001001                                                                                                                              *          20170111IMF1701114.TXT
MDEDH1243154201701                D89828070100PV4D20170117000060SPEAKER ASM                   M IMCTM S0FL05 FTTL  07070IMCT  S0 PTB  00004                    1600 SR        000000000000 FUJITSU TEN (THAILAN17053NU001001017064NU0002002                                                                                                                *          20170111IMF1701114.TXT
MDEDH1243155201701                D89828070200PV1D20170116000030SPEAKER ASM                   M IMCTM S5MA14 FTTL  07070IMCT  S5 PTB  00005                    2230 SR        000000000000 FUJITSU TEN (THAILAN17079NL0044044                                                                                                                              *          20170111IMF1701114.TXT
MDEDH1243156201701                D89828070200PV1D20170117000060SPEAKER ASM                   M IMCTM S5MA14 FTTL  07070IMCT  S5 PTB  00005                    0230 SR        000000000000 FUJITSU TEN (THAILAN17018ML0005006                                                                                                                              *          20170111IMF1701114.TXT
MDEDH1243157201701                D89828070200PV1D20170117000030SPEAKER ASM                   M IMCTM S5MA14 FTTL  07070IMCT  S5 PTB  00005                    0400 SR        000000000000 FUJITSU TEN (THAILAN17079NL0045045                                                                                                                              *          20170111IMF1701114.TXT
MDEDH1243158201701                D89828070200PV1D20170117000060SPEAKER ASM                   M IMCTM S5MA14 FTTL  07070IMCT  S5 PTB  00005                    0900 SR        000000000000 FUJITSU TEN (THAILAN17034PL001201217079NL0046046                                                                                                                *          20170111IMF1701114.TXT
MDEDH1243159201701                D89828070200PV1D20170117000030SPEAKER ASM                   M IMCTM S5MA14 FTTL  07070IMCT  S5 PTB  00005                    1300 SR        000000000000 FUJITSU TEN (THAILAN17034PL0013013                                                                                                                              *          20170111IMF1701114.TXT
MDEDH1243160201701                D89828070200PV1D20170117000060SPEAKER ASM                   M IMCTM S5MA14 FTTL  07070IMCT  S5 PTB  00005                    1600 SR        000000000000 FUJITSU TEN (THAILAN17031ML0005006                                                                                                                              *          20170111IMF1701114.TXT
MDEDH1243161201701                D89828070200PV4D20170117000030SPEAKER ASM                   M IMCTM S0FR05 FTTL  07070IMCT  S0 PTB  00005                    0230 SR        000000000000 FUJITSU TEN (THAILAN17034PU0024024                                                                                                                              *          20170111IMF1701114.TXT
MDEDH1243162201701                D89828070200PV4D20170117000030SPEAKER ASM                   M IMCTM S0FR05 FTTL  07070IMCT  S0 PTB  00005                    1300 SR        000000000000 FUJITSU TEN (THAILAN17075NU0001001                                                                                                                              *          20170111IMF1701114.TXT
MDEDH1243163201701                D89828070300PT1D20170116000030SPEAKER ASM                   M IMCTM S5NB082FTTL  07070IMCT  S5 PTB  00015                    2100 SR        000000000000 FUJITSU TEN (THAILAN17083ML0006006                                                                                                                              *          20170111IMF1701114.TXT
MDEDH1243164201701                D89828070300PT1D20170116000030SPEAKER ASM                   M IMCTM S5NB082FTTL  07070IMCT  S5 PTB  00015                    2230 SR        000000000000 FUJITSU TEN (THAILAN17079NL0044044                                                                                                                              *          20170111IMF1701114.TXT
MDEDH1243165201701                D89828070300PT1D20170117000060SPEAKER ASM                   M IMCTM S5NB082FTTL  07070IMCT  S5 PTB  00015                    0230 SR        000000000000 FUJITSU TEN (THAILAN17018ML0005006                                                                                                                              *          20170111IMF1701114.TXT
MDEDH1243166201701                D89828070300PT1D20170117000030SPEAKER ASM                   M IMCTM S5NB082FTTL  07070IMCT  S5 PTB  00015                    0400 SR        000000000000 FUJITSU TEN (THAILAN17079NL0045045                                                                                                                              *          20170111IMF1701114.TXT
MDEDH1243167201701                D89828070300PT1D20170117000060SPEAKER ASM                   M IMCTM S5NB082FTTL  07070IMCT  S5 PTB  00015                    0900 SR        000000000000 FUJITSU TEN (THAILAN17034PL001201217079NL0046046                                                                                                                *          20170111IMF1701114.TXT
MDEDH1243168201701                D89828070300PT1D20170117000030SPEAKER ASM                   M IMCTM S5NB082FTTL  07070IMCT  S5 PTB  00015                    1300 SR        000000000000 FUJITSU TEN (THAILAN17034PL0013013                                                                                                                              *          20170111IMF1701114.TXT
MDEDH1243169201701                D89828070300PT1D20170117000060SPEAKER ASM                   M IMCTM S5NB082FTTL  07070IMCT  S5 PTB  00015                    1600 SR        000000000000 FUJITSU TEN (THAILAN17031ML0005006                                                                                                                              *          20170111IMF1701114.TXT
MDEDH1243170201701                D89828070300PT4D20170116000030SPEAKER ASM                   M IMCTM S9TS02 FTTL  07070IMCT  S9 PTB  00015                    2100 SR        000000000000 FUJITSU TEN (THAILAN17083MU0001001                                                                                                                              *          20170111IMF1701114.TXT
MDEDH1243171201701                D89828070300PT4D20170117000030SPEAKER ASM                   M IMCTM S9TS02 FTTL  07070IMCT  S9 PTB  00015                    0230 SR        000000000000 FUJITSU TEN (THAILAN17034PU0024024                                                                                                                              *          20170111IMF1701114.TXT
MDEDH1243172201701                D89828070300PT4D20170117000030SPEAKER ASM                   M IMCTM S9TS02 FTTL  07070IMCT  S9 PTB  00015                    1300 SR        000000000000 FUJITSU TEN (THAILAN17075NU0001001                                                                                                                              *          20170111IMF1701114.TXT
MDEDH1243173201701                D89828070300PT4D20170117000060SPEAKER ASM                   M IMCTM S9TS02 FTTL  07070IMCT  S9 PTB  00015                    1600 SR        000000000000 FUJITSU TEN (THAILAN17053NU001001017064NU0002002                                                                                                                *          20170111IMF1701114.TXT
MDEDH1243174201701                D89829645300PT1D20170117000030RADIO;ASM DVD                 M IMCTM S5NC06 FTTL  07070IMCT  S5 PTB  00003                    0230 SR        000000000000 FUJITSU TEN (THAILAN17018ML0005006                                                                                                                              *          20170111IMF1701114.TXT
MDEDH1243175201701                D89829645700PT1D20170116000015RADIO;ASM DVD                 M IMCTM S5NC06 FTTL  07070IMCT  S5 X    00003                    2230 SR        000000000000 FUJITSU TEN (THAILAN17079NL0044044                                                                                                                              *          20170111IMF1701114.TXT
MDEDH1243176201701                D89829645700PT1D20170117000015RADIO;ASM DVD                 M IMCTM S5NC06 FTTL  07070IMCT  S5 X    00003                    0400 SR        000000000000 FUJITSU TEN (THAILAN17079NL0045045                                                                                                                              *          20170111IMF1701114.TXT
MDEDH1243177201701                D89829645700PT1D20170117000015RADIO;ASM DVD                 M IMCTM S5NC06 FTTL  07070IMCT  S5 X    00003                    0900 SR        000000000000 FUJITSU TEN (THAILAN17079NL0046046                                                                                                                              *          20170111IMF1701114.TXT
MDEDH1243178201701                D89829645700PT4D20170117000015RADIO;ASM DVD                 M IMCTM S9CO001FTTL  07070IMCT  S9 X    00003                    1300 SR        000000000000 FUJITSU TEN (THAILAN17075NU0001001                                                                                                                              *          20170111IMF1701114.TXT
MDEDH1243179201701                D89829645700PT4D20170117000030RADIO;ASM DVD                 M IMCTM S9CO001FTTL  07070IMCT  S9 X    00003                    1600 SR        000000000000 FUJITSU TEN (THAILAN17053NU001001017064NU0002002                                                                                                                *          20170111IMF1701114.TXT
MDEUH1219328201701                D89828070100PT4U20170116000030SPEAKER ASM                   M IMCTM S0FL05 FTTL  07070IMCT  S0 PTB  00004                    2230 SR        000000000000 FUJITSU TEN (THAILAN170C12U0024024                                                                                                                              *          20170111IMF1701114.TXT
MDEUH1219329201701                D89828070100PT4U20170117000030SPEAKER ASM                   M IMCTM S0FL05 FTTL  07070IMCT  S0 PTB  00004                    0230 SR        000000000000 FUJITSU TEN (THAILAN170C04U0014014                                                                                                                              *          20170111IMF1701114.TXT
MDEUH1219330201701                D89828070100PT4U20170117000030SPEAKER ASM                   M IMCTM S0FL05 FTTL  07070IMCT  S0 PTB  00004                    0400 SR        000000000000 FUJITSU TEN (THAILAN170C09U0037037                                                                                                                              *          20170111IMF1701114.TXT
MDEUH1219331201701                D89828070100PT4U20170117000030SPEAKER ASM                   M IMCTM S0FL05 FTTL  07070IMCT  S0 PTB  00004                    0900 SR        000000000000 FUJITSU TEN (THAILAN170C12U0025025                                                                                                                              *          20170111IMF1701114.TXT
MDEUH1219332201701                D89828070100PT4U20170117000060SPEAKER ASM                   M IMCTM S0FL05 FTTL  07070IMCT  S0 PTB  00004                    1600 SR        000000000000 FUJITSU TEN (THAILAN170C06U0003003170C09U0038038                                                                                                                *          20170111IMF1701114.TXT
MDEUH1219333201701                D89828070200PV4U20170116000030SPEAKER ASM                   M IMCTM S0FR05 FTTL  07070IMCT  S0 PTB  00005                    2230 SR        000000000000 FUJITSU TEN (THAILAN170C12U0024024                                                                                                                              *          20170111IMF1701114.TXT
MDEUH1219334201701                D89828070200PV4U20170117000030SPEAKER ASM                   M IMCTM S0FR05 FTTL  07070IMCT  S0 PTB  00005                    0230 SR        000000000000 FUJITSU TEN (THAILAN170C04U0014014                                                                                                                              *          20170111IMF1701114.TXT
MDEUH1219335201701                D89828070200PV4U20170117000030SPEAKER ASM                   M IMCTM S0FR05 FTTL  07070IMCT  S0 PTB  00005                    0400 SR        000000000000 FUJITSU TEN (THAILAN170C09U0037037                                                                                                                              *          20170111IMF1701114.TXT
MDEUH1219336201701                D89828070200PV4U20170117000030SPEAKER ASM                   M IMCTM S0FR05 FTTL  07070IMCT  S0 PTB  00005                    0900 SR        000000000000 FUJITSU TEN (THAILAN170C12U0025025                                                                                                                              *          20170111IMF1701114.TXT
MDEUH1219337201701                D89828070200PV4U20170117000060SPEAKER ASM                   M IMCTM S0FR05 FTTL  07070IMCT  S0 PTB  00005                    1600 SR        000000000000 FUJITSU TEN (THAILAN170C06U0003003170C09U0038038                                                                                                                *          20170111IMF1701114.TXT
MDEUH1219338201701                D89828070300PT4U20170116000030SPEAKER ASM                   M IMCTM S9TS02 FTTL  07070IMCT  S9 PTB  00015                    2230 SR        000000000000 FUJITSU TEN (THAILAN170C12U0024024                                                                                                                              *          20170111IMF1701114.TXT
MDEUH1219339201701                D89828070300PT4U20170117000030SPEAKER ASM                   M IMCTM S9TS02 FTTL  07070IMCT  S9 PTB  00015                    0230 SR        000000000000 FUJITSU TEN (THAILAN170C04U0014014                                                                                                                              *          20170111IMF1701114.TXT
MDEUH1219340201701                D89828070300PT4U20170117000030SPEAKER ASM                   M IMCTM S9TS02 FTTL  07070IMCT  S9 PTB  00015                    0400 SR        000000000000 FUJITSU TEN (THAILAN170C09U0037037                                                                                                                              *          20170111IMF1701114.TXT
MDEUH1219341201701                D89828070300PT4U20170117000030SPEAKER ASM                   M IMCTM S9TS02 FTTL  07070IMCT  S9 PTB  00015                    0900 SR        000000000000 FUJITSU TEN (THAILAN170C12U0025025                                                                                                                              *          20170111IMF1701114.TXT
MDEUH1219342201701                D89828070300PT4U20170117000060SPEAKER ASM                   M IMCTM S9TS02 FTTL  07070IMCT  S9 PTB  00015                    1600 SR        000000000000 FUJITSU TEN (THAILAN170C06U0003003170C09U0038038                                                                                                                *          20170111IMF1701114.TXT
