REC2017012520170125ISUZU                              40     
MDDDH1279603201701                D89821984430PT1D20170128000030RADIO;AM/FM,CD                M IMCTM S5NC06 FTTL  07070IMCT  S5 PTB  00005                    2230 SR        000000000000 FUJITSU TEN (THAILAN170KPAL0069069                                                                                                                              *          20170125IMF1701255.TXT
MDDDH1279604201701                D89821984430PT1D20170129000030RADIO;AM/FM,CD                M IMCTM S5NC06 FTTL  07070IMCT  S5 PTB  00005                    0400 SR        000000000000 FUJITSU TEN (THAILAN170KRAL0029029                                                                                                                              *          20170125IMF1701255.TXT
MDDDH1279605201701                D89828070100PV1D20170128000120SPEAKER ASM                   M IMCTM S5MB11 FTTL  07070IMCT  S5 PTB  00004                    2230 SR        000000000000 FUJITSU TEN (THAILAN170KPAL0069069170KRLL0005005                                                                                                                *          20170125IMF1701255.TXT
MDDDH1279606201701                D89828070100PV1D20170129000120SPEAKER ASM                   M IMCTM S5MB11 FTTL  07070IMCT  S5 PTB  00004                    0400 SR        000000000000 FUJITSU TEN (THAILAN170KNAL0036036170KRAL0029029                                                                                                                *          20170125IMF1701255.TXT
MDDDH1279607201701                D89828070100PV1D20170130000120SPEAKER ASM                   M IMCTM S5MB11 FTTL  07070IMCT  S5 PTB  00004                    0900 SR        000000000000 FUJITSU TEN (THAILAN170KPDL0005005170KRJL0024024                                                                                                                *          20170125IMF1701255.TXT
MDDDH1279608201701                D89828070100PV1D20170130000120SPEAKER ASM                   M IMCTM S5MB11 FTTL  07070IMCT  S5 PTB  00004                    1300 SR        000000000000 FUJITSU TEN (THAILAN170KPPL0009009170KRHL0019019                                                                                                                *          20170125IMF1701255.TXT
MDDDH1279609201701                D89828070100PV1D20170130000060SPEAKER ASM                   M IMCTM S5MB11 FTTL  07070IMCT  S5 PTB  00004                    1600 SR        000000000000 FUJITSU TEN (THAILAN170KNBL0017017                                                                                                                              *          20170125IMF1701255.TXT
MDDDH1279610201701                D89828070100PV4D20170129000060SPEAKER ASM                   M IMCTM S0FL05 FTTL  07070IMCT  S0 PTB  00004                    0230 SR        000000000000 FUJITSU TEN (THAILAN170KREU0002002                                                                                                                              *          20170125IMF1701255.TXT
MDDDH1279611201701                D89828070100PV4D20170130000060SPEAKER ASM                   M IMCTM S0FL05 FTTL  07070IMCT  S0 PTB  00004                    0900 SR        000000000000 FUJITSU TEN (THAILAN170KRMU0001001                                                                                                                              *          20170125IMF1701255.TXT
MDDDH1279612201701                D89828070100PV4D20170130000060SPEAKER ASM                   M IMCTM S0FL05 FTTL  07070IMCT  S0 PTB  00004                    1300 SR        000000000000 FUJITSU TEN (THAILAN170KPMU0001001                                                                                                                              *          20170125IMF1701255.TXT
MDDDH1279613201701                D89828070200PV1D20170128000060SPEAKER ASM                   M IMCTM S5MA14 FTTL  07070IMCT  S5 PTB  00005                    2230 SR        000000000000 FUJITSU TEN (THAILAN170KRLL0005005                                                                                                                              *          20170125IMF1701255.TXT
MDDDH1279614201701                D89828070200PV1D20170130000060SPEAKER ASM                   M IMCTM S5MA14 FTTL  07070IMCT  S5 PTB  00005                    0900 SR        000000000000 FUJITSU TEN (THAILAN170KRJL0024024                                                                                                                              *          20170125IMF1701255.TXT
MDDDH1279615201701                D89828070200PV1D20170130000060SPEAKER ASM                   M IMCTM S5MA14 FTTL  07070IMCT  S5 PTB  00005                    1300 SR        000000000000 FUJITSU TEN (THAILAN170KRHL0019019                                                                                                                              *          20170125IMF1701255.TXT
MDDDH1279616201701                D89828070200PV4D20170129000060SPEAKER ASM                   M IMCTM S0FR05 FTTL  07070IMCT  S0 PTB  00005                    0230 SR        000000000000 FUJITSU TEN (THAILAN170KREU0002002                                                                                                                              *          20170125IMF1701255.TXT
MDDDH1279617201701                D89828070200PV4D20170130000060SPEAKER ASM                   M IMCTM S0FR05 FTTL  07070IMCT  S0 PTB  00005                    0900 SR        000000000000 FUJITSU TEN (THAILAN170KRMU0001001                                                                                                                              *          20170125IMF1701255.TXT
MDDDH1279618201701                D89828070300PT1D20170128000060SPEAKER ASM                   M IMCTM S5NB082FTTL  07070IMCT  S5 PTB  00015                    2230 SR        000000000000 FUJITSU TEN (THAILAN170KRLL0005005                                                                                                                              *          20170125IMF1701255.TXT
MDDDH1279619201701                D89828070300PT1D20170130000120SPEAKER ASM                   M IMCTM S5NB082FTTL  07070IMCT  S5 PTB  00015                    0900 SR        000000000000 FUJITSU TEN (THAILAN170KPDL0005005170KRJL0024024                                                                                                                *          20170125IMF1701255.TXT
MDDDH1279620201701                D89828070300PT1D20170130000120SPEAKER ASM                   M IMCTM S5NB082FTTL  07070IMCT  S5 PTB  00015                    1300 SR        000000000000 FUJITSU TEN (THAILAN170KPPL0009009170KRHL0019019                                                                                                                *          20170125IMF1701255.TXT
MDDDH1279621201701                D89828070300PT4D20170129000060SPEAKER ASM                   M IMCTM S9TS02 FTTL  07070IMCT  S9 PTB  00015                    0230 SR        000000000000 FUJITSU TEN (THAILAN170KREU0002002                                                                                                                              *          20170125IMF1701255.TXT
MDDDH1279622201701                D89828070300PT4D20170130000060SPEAKER ASM                   M IMCTM S9TS02 FTTL  07070IMCT  S9 PTB  00015                    0900 SR        000000000000 FUJITSU TEN (THAILAN170KRMU0001001                                                                                                                              *          20170125IMF1701255.TXT
MDDDH1279623201701                D89828070300PT4D20170130000060SPEAKER ASM                   M IMCTM S9TS02 FTTL  07070IMCT  S9 PTB  00015                    1300 SR        000000000000 FUJITSU TEN (THAILAN170KPMU0001001                                                                                                                              *          20170125IMF1701255.TXT
MDDDH1279624201701                D89831228300PT1D20170130000030RADIO;AM/FM,CD                M IMCTM S5NC06 FTTL  07070IMCT  S5 CPB  00003                    0900 SR        000000000000 FUJITSU TEN (THAILAN170KPDL0005005                                                                                                                              *          20170125IMF1701255.TXT
MDDDH1279625201701                D89831228300PT1D20170130000030RADIO;AM/FM,CD                M IMCTM S5NC06 FTTL  07070IMCT  S5 CPB  00003                    1300 SR        000000000000 FUJITSU TEN (THAILAN170KPPL0009009                                                                                                                              *          20170125IMF1701255.TXT
MDDDH1279626201701                D89831228400PT4D20170129000030RADIO;AM/FM,CD                M IMCTM S9CO001FTTL  07070IMCT  S9 CPB  00003                    0230 SR        000000000000 FUJITSU TEN (THAILAN170KREU0002002                                                                                                                              *          20170125IMF1701255.TXT
MDDUH1201239201701                D89828070100PT4U20170128000030SPEAKER ASM                   M IMCTM S0FL05 FTTL  07070IMCT  S0 PTB  00004                    2230 SR        000000000000 FUJITSU TEN (THAILAN180LUEU0002002                                                                                                                              *          20170125IMF1701255.TXT
MDDUH1201240201701                D89828070200PV4U20170128000030SPEAKER ASM                   M IMCTM S0FR05 FTTL  07070IMCT  S0 PTB  00005                    2230 SR        000000000000 FUJITSU TEN (THAILAN180LUEU0002002                                                                                                                              *          20170125IMF1701255.TXT
MDDUH1201241201701                D89828070300PT4U20170128000030SPEAKER ASM                   M IMCTM S9TS02 FTTL  07070IMCT  S9 PTB  00015                    2230 SR        000000000000 FUJITSU TEN (THAILAN180LUEU0002002                                                                                                                              *          20170125IMF1701255.TXT
MDEDH1307222201701                D89828070100PV1D20170128000030SPEAKER ASM                   M IMCTM S5MB11 FTTL  07070IMCT  S5 PTB  00004                    2100 SR        000000000000 FUJITSU TEN (THAILAN17059NL0001001                                                                                                                              *          20170125IMF1701255.TXT
MDEDH1307223201701                D89828070100PV1D20170128000030SPEAKER ASM                   M IMCTM S5MB11 FTTL  07070IMCT  S5 PTB  00004                    2230 SR        000000000000 FUJITSU TEN (THAILAN17059NL0002002                                                                                                                              *          20170125IMF1701255.TXT
MDEDH1307224201701                D89828070100PV1D20170129000060SPEAKER ASM                   M IMCTM S5MB11 FTTL  07070IMCT  S5 PTB  00004                    0230 SR        000000000000 FUJITSU TEN (THAILAN17079QL0003004                                                                                                                              *          20170125IMF1701255.TXT
MDEDH1307225201701                D89828070200PV1D20170128000030SPEAKER ASM                   M IMCTM S5MA14 FTTL  07070IMCT  S5 PTB  00005                    2100 SR        000000000000 FUJITSU TEN (THAILAN17059NL0001001                                                                                                                              *          20170125IMF1701255.TXT
MDEDH1307226201701                D89828070200PV1D20170128000030SPEAKER ASM                   M IMCTM S5MA14 FTTL  07070IMCT  S5 PTB  00005                    2230 SR        000000000000 FUJITSU TEN (THAILAN17059NL0002002                                                                                                                              *          20170125IMF1701255.TXT
MDEDH1307227201701                D89828070300PT1D20170128000030SPEAKER ASM                   M IMCTM S5NB082FTTL  07070IMCT  S5 PTB  00015                    2100 SR        000000000000 FUJITSU TEN (THAILAN17059NL0001001                                                                                                                              *          20170125IMF1701255.TXT
MDEDH1307228201701                D89828070300PT1D20170128000030SPEAKER ASM                   M IMCTM S5NB082FTTL  07070IMCT  S5 PTB  00015                    2230 SR        000000000000 FUJITSU TEN (THAILAN17059NL0002002                                                                                                                              *          20170125IMF1701255.TXT
MDEUH1261572201701                D89828070100PT4U20170129000030SPEAKER ASM                   M IMCTM S0FL05 FTTL  07070IMCT  S0 PTB  00004                    0400 SR        000000000000 FUJITSU TEN (THAILAN170C46U0001001                                                                                                                              *          20170125IMF1701255.TXT
MDEUH1261573201701                D89828070100PT4U20170130000030SPEAKER ASM                   M IMCTM S0FL05 FTTL  07070IMCT  S0 PTB  00004                    1300 SR        000000000000 FUJITSU TEN (THAILAN170C47U0013013                                                                                                                              *          20170125IMF1701255.TXT
MDEUH1261574201701                D89828070200PV4U20170129000030SPEAKER ASM                   M IMCTM S0FR05 FTTL  07070IMCT  S0 PTB  00005                    0400 SR        000000000000 FUJITSU TEN (THAILAN170C46U0001001                                                                                                                              *          20170125IMF1701255.TXT
MDEUH1261575201701                D89828070200PV4U20170130000030SPEAKER ASM                   M IMCTM S0FR05 FTTL  07070IMCT  S0 PTB  00005                    1300 SR        000000000000 FUJITSU TEN (THAILAN170C47U0013013                                                                                                                              *          20170125IMF1701255.TXT
MDEUH1261576201701                D89828070300PT4U20170129000030SPEAKER ASM                   M IMCTM S9TS02 FTTL  07070IMCT  S9 PTB  00015                    0400 SR        000000000000 FUJITSU TEN (THAILAN170C46U0001001                                                                                                                              *          20170125IMF1701255.TXT
MDEUH1261577201701                D89828070300PT4U20170130000030SPEAKER ASM                   M IMCTM S9TS02 FTTL  07070IMCT  S9 PTB  00015                    1300 SR        000000000000 FUJITSU TEN (THAILAN170C47U0013013                                                                                                                              *          20170125IMF1701255.TXT
