REC2017011220170112ISUZU                              70     
MDDDH1226307201701                D89821984430PT1D20170118000030RADIO;AM/FM,CD                M IMCTM S5NC06 FTTL  07070IMCT  S5 PTB  00005                    0230 SR        000000000000 FUJITSU TEN (THAILAN170KPAL0064064                                                                                                                              *          20170112IMF1701124.TXT
MDDDH1226308201701                D89828070100PV1D20170117000060SPEAKER ASM                   M IMCTM S5MB11 FTTL  07070IMCT  S5 PTB  00004                    2100 SR        000000000000 FUJITSU TEN (THAILAN170KRVL0001001                                                                                                                              *          20170112IMF1701124.TXT
MDDDH1226309201701                D89828070100PV1D20170117000060SPEAKER ASM                   M IMCTM S5MB11 FTTL  07070IMCT  S5 PTB  00004                    2230 SR        000000000000 FUJITSU TEN (THAILAN170KRFL0044044                                                                                                                              *          20170112IMF1701124.TXT
MDDDH1226310201701                D89828070100PV1D20170118000060SPEAKER ASM                   M IMCTM S5MB11 FTTL  07070IMCT  S5 PTB  00004                    0230 SR        000000000000 FUJITSU TEN (THAILAN170KPAL0064064                                                                                                                              *          20170112IMF1701124.TXT
MDDDH1226311201701                D89828070100PV1D20170118000060SPEAKER ASM                   M IMCTM S5MB11 FTTL  07070IMCT  S5 PTB  00004                    0400 SR        000000000000 FUJITSU TEN (THAILAN170KRTL0002002                                                                                                                              *          20170112IMF1701124.TXT
MDDDH1226312201701                D89828070100PV1D20170118000060SPEAKER ASM                   M IMCTM S5MB11 FTTL  07070IMCT  S5 PTB  00004                    0900 SR        000000000000 FUJITSU TEN (THAILAN170KPFL0102102                                                                                                                              *          20170112IMF1701124.TXT
MDDDH1226313201701                D89828070100PV1D20170118000060SPEAKER ASM                   M IMCTM S5MB11 FTTL  07070IMCT  S5 PTB  00004                    1300 SR        000000000000 FUJITSU TEN (THAILAN170KRUL0002002                                                                                                                              *          20170112IMF1701124.TXT
MDDDH1226314201701                D89828070100PV1D20170118000120SPEAKER ASM                   M IMCTM S5MB11 FTTL  07070IMCT  S5 PTB  00004                    1600 SR        000000000000 FUJITSU TEN (THAILAN170KNBL0015015170KPFL0103103                                                                                                                *          20170112IMF1701124.TXT
MDDDH1226315201701                D89828070200PV1D20170117000060SPEAKER ASM                   M IMCTM S5MA14 FTTL  07070IMCT  S5 PTB  00005                    2100 SR        000000000000 FUJITSU TEN (THAILAN170KRVL0001001                                                                                                                              *          20170112IMF1701124.TXT
MDDDH1226316201701                D89828070200PV1D20170117000060SPEAKER ASM                   M IMCTM S5MA14 FTTL  07070IMCT  S5 PTB  00005                    2230 SR        000000000000 FUJITSU TEN (THAILAN170KRFL0044044                                                                                                                              *          20170112IMF1701124.TXT
MDDDH1226317201701                D89828070200PV1D20170118000060SPEAKER ASM                   M IMCTM S5MA14 FTTL  07070IMCT  S5 PTB  00005                    0400 SR        000000000000 FUJITSU TEN (THAILAN170KRTL0002002                                                                                                                              *          20170112IMF1701124.TXT
MDDDH1226318201701                D89828070200PV1D20170118000060SPEAKER ASM                   M IMCTM S5MA14 FTTL  07070IMCT  S5 PTB  00005                    1300 SR        000000000000 FUJITSU TEN (THAILAN170KRUL0002002                                                                                                                              *          20170112IMF1701124.TXT
MDDDH1226319201701                D89828070300PT1D20170117000060SPEAKER ASM                   M IMCTM S5NB082FTTL  07070IMCT  S5 PTB  00015                    2100 SR        000000000000 FUJITSU TEN (THAILAN170KRVL0001001                                                                                                                              *          20170112IMF1701124.TXT
MDDDH1226320201701                D89828070300PT1D20170117000060SPEAKER ASM                   M IMCTM S5NB082FTTL  07070IMCT  S5 PTB  00015                    2230 SR        000000000000 FUJITSU TEN (THAILAN170KRFL0044044                                                                                                                              *          20170112IMF1701124.TXT
MDDDH1226321201701                D89828070300PT1D20170118000060SPEAKER ASM                   M IMCTM S5NB082FTTL  07070IMCT  S5 PTB  00015                    0400 SR        000000000000 FUJITSU TEN (THAILAN170KRTL0002002                                                                                                                              *          20170112IMF1701124.TXT
MDDDH1226322201701                D89828070300PT1D20170118000060SPEAKER ASM                   M IMCTM S5NB082FTTL  07070IMCT  S5 PTB  00015                    0900 SR        000000000000 FUJITSU TEN (THAILAN170KPFL0102102                                                                                                                              *          20170112IMF1701124.TXT
MDDDH1226323201701                D89828070300PT1D20170118000060SPEAKER ASM                   M IMCTM S5NB082FTTL  07070IMCT  S5 PTB  00015                    1300 SR        000000000000 FUJITSU TEN (THAILAN170KRUL0002002                                                                                                                              *          20170112IMF1701124.TXT
MDDDH1226324201701                D89828070300PT1D20170118000060SPEAKER ASM                   M IMCTM S5NB082FTTL  07070IMCT  S5 PTB  00015                    1600 SR        000000000000 FUJITSU TEN (THAILAN170KPFL0103103                                                                                                                              *          20170112IMF1701124.TXT
MDDDH1226325201701                D89829645900PT1D20170117000030RADIO;ASM DVD                 M IMCTM S5NC06 FTTL  07070IMCT  S5 CPB  00003                    2230 SR        000000000000 FUJITSU TEN (THAILAN170KRFL0044044                                                                                                                              *          20170112IMF1701124.TXT
MDDDH1226326201701                D89829645900PT1D20170118000030RADIO;ASM DVD                 M IMCTM S5NC06 FTTL  07070IMCT  S5 CPB  00003                    0400 SR        000000000000 FUJITSU TEN (THAILAN170KRTL0002002                                                                                                                              *          20170112IMF1701124.TXT
MDDDH1226327201701                D89831228300PT1D20170118000030RADIO;AM/FM,CD                M IMCTM S5NC06 FTTL  07070IMCT  S5 CPB  00003                    0900 SR        000000000000 FUJITSU TEN (THAILAN170KPFL0102102                                                                                                                              *          20170112IMF1701124.TXT
MDDDH1226328201701                D89831228300PT1D20170118000030RADIO;AM/FM,CD                M IMCTM S5NC06 FTTL  07070IMCT  S5 CPB  00003                    1600 SR        000000000000 FUJITSU TEN (THAILAN170KPFL0103103                                                                                                                              *          20170112IMF1701124.TXT
MDEDH1251976201701                D89828070100PV1D20170117000060SPEAKER ASM                   M IMCTM S5MB11 FTTL  07070IMCT  S5 PTB  00004                    2230 SR        000000000000 FUJITSU TEN (THAILAN17006ML000200217081NL0001001                                                                                                                *          20170112IMF1701124.TXT
MDEDH1251977201701                D89828070100PV1D20170118000060SPEAKER ASM                   M IMCTM S5MB11 FTTL  07070IMCT  S5 PTB  00004                    0400 SR        000000000000 FUJITSU TEN (THAILAN17012ML0003004                                                                                                                              *          20170112IMF1701124.TXT
MDEDH1251978201701                D89828070100PV1D20170118000060SPEAKER ASM                   M IMCTM S5MB11 FTTL  07070IMCT  S5 PTB  00004                    0900 SR        000000000000 FUJITSU TEN (THAILAN17021NL0002003                                                                                                                              *          20170112IMF1701124.TXT
MDEDH1251979201701                D89828070100PV1D20170118000090SPEAKER ASM                   M IMCTM S5MB11 FTTL  07070IMCT  S5 PTB  00004                    1300 SR        000000000000 FUJITSU TEN (THAILAN17020ML000600617029ML0007008                                                                                                                *          20170112IMF1701124.TXT
MDEDH1251980201701                D89828070100PV1D20170118000030SPEAKER ASM                   M IMCTM S5MB11 FTTL  07070IMCT  S5 PTB  00004                    1600 SR        000000000000 FUJITSU TEN (THAILAN17042PL0001001                                                                                                                              *          20170112IMF1701124.TXT
MDEDH1251981201701                D89828070100PV1D20170118000030SPEAKER ASM                   M IMCTM S5MB11 FTTL  07070IMCT  S5 PTB  00004                    2100 SR        000000000000 FUJITSU TEN (THAILAN17076ML0009009                                                                                                                              *          20170112IMF1701124.TXT
MDEDH1251982201701                D89828070100PV4D20170117000030SPEAKER ASM                   M IMCTM S0FL05 FTTL  07070IMCT  S0 PTB  00004                    2230 SR        000000000000 FUJITSU TEN (THAILAN17034PU0025025                                                                                                                              *          20170112IMF1701124.TXT
MDEDH1251983201701                D89828070100PV4D20170118000030SPEAKER ASM                   M IMCTM S0FL05 FTTL  07070IMCT  S0 PTB  00004                    0230 SR        000000000000 FUJITSU TEN (THAILAN17053NU0011011                                                                                                                              *          20170112IMF1701124.TXT
MDEDH1251984201701                D89828070100PV4D20170118000060SPEAKER ASM                   M IMCTM S0FL05 FTTL  07070IMCT  S0 PTB  00004                    0900 SR        000000000000 FUJITSU TEN (THAILAN17034PU002602617065RU0001001                                                                                                                *          20170112IMF1701124.TXT
MDEDH1251985201701                D89828070100PV4D20170118000030SPEAKER ASM                   M IMCTM S0FL05 FTTL  07070IMCT  S0 PTB  00004                    1600 SR        000000000000 FUJITSU TEN (THAILAN17075NU0002002                                                                                                                              *          20170112IMF1701124.TXT
MDEDH1251986201701                D89828070100PV4D20170118000030SPEAKER ASM                   M IMCTM S0FL05 FTTL  07070IMCT  S0 PTB  00004                    2100 SR        000000000000 FUJITSU TEN (THAILAN17034PU0027027                                                                                                                              *          20170112IMF1701124.TXT
MDEDH1251987201701                D89828070200PV1D20170117000030SPEAKER ASM                   M IMCTM S5MA14 FTTL  07070IMCT  S5 PTB  00005                    2230 SR        000000000000 FUJITSU TEN (THAILAN17081NL0001001                                                                                                                              *          20170112IMF1701124.TXT
MDEDH1251988201701                D89828070200PV1D20170118000060SPEAKER ASM                   M IMCTM S5MA14 FTTL  07070IMCT  S5 PTB  00005                    0400 SR        000000000000 FUJITSU TEN (THAILAN17012ML0003004                                                                                                                              *          20170112IMF1701124.TXT
MDEDH1251989201701                D89828070200PV1D20170118000060SPEAKER ASM                   M IMCTM S5MA14 FTTL  07070IMCT  S5 PTB  00005                    0900 SR        000000000000 FUJITSU TEN (THAILAN17021NL0002003                                                                                                                              *          20170112IMF1701124.TXT
MDEDH1251990201701                D89828070200PV1D20170118000090SPEAKER ASM                   M IMCTM S5MA14 FTTL  07070IMCT  S5 PTB  00005                    1300 SR        000000000000 FUJITSU TEN (THAILAN17020ML000600617029ML0007008                                                                                                                *          20170112IMF1701124.TXT
MDEDH1251991201701                D89828070200PV1D20170118000030SPEAKER ASM                   M IMCTM S5MA14 FTTL  07070IMCT  S5 PTB  00005                    1600 SR        000000000000 FUJITSU TEN (THAILAN17042PL0001001                                                                                                                              *          20170112IMF1701124.TXT
MDEDH1251992201701                D89828070200PV4D20170117000030SPEAKER ASM                   M IMCTM S0FR05 FTTL  07070IMCT  S0 PTB  00005                    2230 SR        000000000000 FUJITSU TEN (THAILAN17034PU0025025                                                                                                                              *          20170112IMF1701124.TXT
MDEDH1251993201701                D89828070200PV4D20170118000030SPEAKER ASM                   M IMCTM S0FR05 FTTL  07070IMCT  S0 PTB  00005                    0900 SR        000000000000 FUJITSU TEN (THAILAN17034PU0026026                                                                                                                              *          20170112IMF1701124.TXT
MDEDH1251994201701                D89828070200PV4D20170118000030SPEAKER ASM                   M IMCTM S0FR05 FTTL  07070IMCT  S0 PTB  00005                    1600 SR        000000000000 FUJITSU TEN (THAILAN17075NU0002002                                                                                                                              *          20170112IMF1701124.TXT
MDEDH1251995201701                D89828070200PV4D20170118000030SPEAKER ASM                   M IMCTM S0FR05 FTTL  07070IMCT  S0 PTB  00005                    2100 SR        000000000000 FUJITSU TEN (THAILAN17034PU0027027                                                                                                                              *          20170112IMF1701124.TXT
MDEDH1251996201701                D89828070300PT1D20170117000030SPEAKER ASM                   M IMCTM S5NB082FTTL  07070IMCT  S5 PTB  00015                    2230 SR        000000000000 FUJITSU TEN (THAILAN17081NL0001001                                                                                                                              *          20170112IMF1701124.TXT
MDEDH1251997201701                D89828070300PT1D20170118000060SPEAKER ASM                   M IMCTM S5NB082FTTL  07070IMCT  S5 PTB  00015                    0400 SR        000000000000 FUJITSU TEN (THAILAN17012ML0003004                                                                                                                              *          20170112IMF1701124.TXT
MDEDH1251998201701                D89828070300PT1D20170118000060SPEAKER ASM                   M IMCTM S5NB082FTTL  07070IMCT  S5 PTB  00015                    0900 SR        000000000000 FUJITSU TEN (THAILAN17021NL0002003                                                                                                                              *          20170112IMF1701124.TXT
MDEDH1251999201701                D89828070300PT1D20170118000090SPEAKER ASM                   M IMCTM S5NB082FTTL  07070IMCT  S5 PTB  00015                    1300 SR        000000000000 FUJITSU TEN (THAILAN17020ML000600617029ML0007008                                                                                                                *          20170112IMF1701124.TXT
MDEDH1252000201701                D89828070300PT1D20170118000030SPEAKER ASM                   M IMCTM S5NB082FTTL  07070IMCT  S5 PTB  00015                    1600 SR        000000000000 FUJITSU TEN (THAILAN17042PL0001001                                                                                                                              *          20170112IMF1701124.TXT
MDEDH1252001201701                D89828070300PT4D20170117000030SPEAKER ASM                   M IMCTM S9TS02 FTTL  07070IMCT  S9 PTB  00015                    2230 SR        000000000000 FUJITSU TEN (THAILAN17034PU0025025                                                                                                                              *          20170112IMF1701124.TXT
MDEDH1252002201701                D89828070300PT4D20170118000030SPEAKER ASM                   M IMCTM S9TS02 FTTL  07070IMCT  S9 PTB  00015                    0230 SR        000000000000 FUJITSU TEN (THAILAN17053NU0011011                                                                                                                              *          20170112IMF1701124.TXT
MDEDH1252003201701                D89828070300PT4D20170118000060SPEAKER ASM                   M IMCTM S9TS02 FTTL  07070IMCT  S9 PTB  00015                    0900 SR        000000000000 FUJITSU TEN (THAILAN17034PU002602617065RU0001001                                                                                                                *          20170112IMF1701124.TXT
MDEDH1252004201701                D89828070300PT4D20170118000030SPEAKER ASM                   M IMCTM S9TS02 FTTL  07070IMCT  S9 PTB  00015                    1600 SR        000000000000 FUJITSU TEN (THAILAN17075NU0002002                                                                                                                              *          20170112IMF1701124.TXT
MDEDH1252005201701                D89828070300PT4D20170118000030SPEAKER ASM                   M IMCTM S9TS02 FTTL  07070IMCT  S9 PTB  00015                    2100 SR        000000000000 FUJITSU TEN (THAILAN17034PU0027027                                                                                                                              *          20170112IMF1701124.TXT
MDEDH1252006201701                D89829645300PT1D20170118000030RADIO;ASM DVD                 M IMCTM S5NC06 FTTL  07070IMCT  S5 PTB  00003                    0900 SR        000000000000 FUJITSU TEN (THAILAN17021NL0002003                                                                                                                              *          20170112IMF1701124.TXT
MDEDH1252007201701                D89829645700PT4D20170118000015RADIO;ASM DVD                 M IMCTM S9CO001FTTL  07070IMCT  S9 X    00003                    0230 SR        000000000000 FUJITSU TEN (THAILAN17053NU0011011                                                                                                                              *          20170112IMF1701124.TXT
MDEDH1252008201701                D89829645700PT4D20170118000015RADIO;ASM DVD                 M IMCTM S9CO001FTTL  07070IMCT  S9 X    00003                    1600 SR        000000000000 FUJITSU TEN (THAILAN17075NU0002002                                                                                                                              *          20170112IMF1701124.TXT
MDEDH1252009201701                D89831228400PT1D20170118000015RADIO;AM/FM,CD                M IMCTM S5NC06 FTTL  07070IMCT  S5 CPB  00003                    1600 SR        000000000000 FUJITSU TEN (THAILAN17042PL0001001                                                                                                                              *          20170112IMF1701124.TXT
MDEDH1252010201701                D89831228800PT1D20170118000030RADIO;AM/FM,CD                M IMCTM S5NC06 FTTL  07070IMCT  S5 PTB  00003                    0400 SR        000000000000 FUJITSU TEN (THAILAN17012ML0003004                                                                                                                              *          20170112IMF1701124.TXT
MDEDH1252011201701                D89831229200PT4D20170118000015RADIO;AM/FM,CD                M IMCTM S9CO001FTTL  07070IMCT  S9 PTB  00003                    0900 SR        000000000000 FUJITSU TEN (THAILAN17065RU0001001                                                                                                                              *          20170112IMF1701124.TXT
MDEUH1223364201701                D89828070100PT4U20170117000030SPEAKER ASM                   M IMCTM S0FL05 FTTL  07070IMCT  S0 PTB  00004                    2230 SR        000000000000 FUJITSU TEN (THAILAN170C13U0057057                                                                                                                              *          20170112IMF1701124.TXT
MDEUH1223365201701                D89828070100PT4U20170118000030SPEAKER ASM                   M IMCTM S0FL05 FTTL  07070IMCT  S0 PTB  00004                    0400 SR        000000000000 FUJITSU TEN (THAILAN170C09U0039039                                                                                                                              *          20170112IMF1701124.TXT
MDEUH1223366201701                D89828070100PT4U20170118000060SPEAKER ASM                   M IMCTM S0FL05 FTTL  07070IMCT  S0 PTB  00004                    1300 SR        000000000000 FUJITSU TEN (THAILAN170C09U0040040170C13U0058058                                                                                                                *          20170112IMF1701124.TXT
MDEUH1223367201701                D89828070100PT4U20170118000060SPEAKER ASM                   M IMCTM S0FL05 FTTL  07070IMCT  S0 PTB  00004                    1600 SR        000000000000 FUJITSU TEN (THAILAN170C13U0059059170C16U0102102                                                                                                                *          20170112IMF1701124.TXT
MDEUH1223368201701                D89828070200PV4U20170117000030SPEAKER ASM                   M IMCTM S0FR05 FTTL  07070IMCT  S0 PTB  00005                    2230 SR        000000000000 FUJITSU TEN (THAILAN170C13U0057057                                                                                                                              *          20170112IMF1701124.TXT
MDEUH1223369201701                D89828070200PV4U20170118000030SPEAKER ASM                   M IMCTM S0FR05 FTTL  07070IMCT  S0 PTB  00005                    0400 SR        000000000000 FUJITSU TEN (THAILAN170C09U0039039                                                                                                                              *          20170112IMF1701124.TXT
MDEUH1223370201701                D89828070200PV4U20170118000060SPEAKER ASM                   M IMCTM S0FR05 FTTL  07070IMCT  S0 PTB  00005                    1300 SR        000000000000 FUJITSU TEN (THAILAN170C09U0040040170C13U0058058                                                                                                                *          20170112IMF1701124.TXT
MDEUH1223371201701                D89828070200PV4U20170118000060SPEAKER ASM                   M IMCTM S0FR05 FTTL  07070IMCT  S0 PTB  00005                    1600 SR        000000000000 FUJITSU TEN (THAILAN170C13U0059059170C16U0102102                                                                                                                *          20170112IMF1701124.TXT
MDEUH1223372201701                D89828070300PT4U20170117000030SPEAKER ASM                   M IMCTM S9TS02 FTTL  07070IMCT  S9 PTB  00015                    2230 SR        000000000000 FUJITSU TEN (THAILAN170C13U0057057                                                                                                                              *          20170112IMF1701124.TXT
MDEUH1223373201701                D89828070300PT4U20170118000030SPEAKER ASM                   M IMCTM S9TS02 FTTL  07070IMCT  S9 PTB  00015                    0400 SR        000000000000 FUJITSU TEN (THAILAN170C09U0039039                                                                                                                              *          20170112IMF1701124.TXT
MDEUH1223374201701                D89828070300PT4U20170118000060SPEAKER ASM                   M IMCTM S9TS02 FTTL  07070IMCT  S9 PTB  00015                    1300 SR        000000000000 FUJITSU TEN (THAILAN170C09U0040040170C13U0058058                                                                                                                *          20170112IMF1701124.TXT
MDEUH1223375201701                D89828070300PT4U20170118000060SPEAKER ASM                   M IMCTM S9TS02 FTTL  07070IMCT  S9 PTB  00015                    1600 SR        000000000000 FUJITSU TEN (THAILAN170C13U0059059170C16U0102102                                                                                                                *          20170112IMF1701124.TXT
