REC2017013020170130ISUZU                              49     
MDDDH1306386201702                D89821984430PT1D20170202000030RADIO;AM/FM,CD                M IMCTM S5NC06 FTTL  07070IMCT  S5 PTB  00005                    2100 SR        000000000000 FUJITSU TEN (THAILAN170KNFL0024024                                                                                                                              *          20170130IMF1701304.TXT
MDDDH1306387201702                D89821984430PT1D20170203000030RADIO;AM/FM,CD                M IMCTM S5NC06 FTTL  07070IMCT  S5 PTB  00005                    0230 SR        000000000000 FUJITSU TEN (THAILAN170KRAL0031031                                                                                                                              *          20170130IMF1701304.TXT
MDDDH1306388201702                D89821984430PT1D20170203000030RADIO;AM/FM,CD                M IMCTM S5NC06 FTTL  07070IMCT  S5 PTB  00005                    0400 SR        000000000000 FUJITSU TEN (THAILAN170KNEL0058058                                                                                                                              *          20170130IMF1701304.TXT
MDDDH1306389201702                D89821984430PT1D20170203000030RADIO;AM/FM,CD                M IMCTM S5NC06 FTTL  07070IMCT  S5 PTB  00005                    0900 SR        000000000000 FUJITSU TEN (THAILAN170KPAL0072072                                                                                                                              *          20170130IMF1701304.TXT
MDDDH1306390201702                D89821984430PT1D20170203000030RADIO;AM/FM,CD                M IMCTM S5NC06 FTTL  07070IMCT  S5 PTB  00005                    1300 SR        000000000000 FUJITSU TEN (THAILAN170KNEL0059059                                                                                                                              *          20170130IMF1701304.TXT
MDDDH1306391201702                D89828070100PV1D20170202000060SPEAKER ASM                   M IMCTM S5MB11 FTTL  07070IMCT  S5 PTB  00004                    2100 SR        000000000000 FUJITSU TEN (THAILAN170KNFL0024024                                                                                                                              *          20170130IMF1701304.TXT
MDDDH1306392201702                D89828070100PV1D20170202000120SPEAKER ASM                   M IMCTM S5MB11 FTTL  07070IMCT  S5 PTB  00004                    2230 SR        000000000000 FUJITSU TEN (THAILAN170KPEL0038038170KRVL0005005                                                                                                                *          20170130IMF1701304.TXT
MDDDH1306393201702                D89828070100PV1D20170203000060SPEAKER ASM                   M IMCTM S5MB11 FTTL  07070IMCT  S5 PTB  00004                    0230 SR        000000000000 FUJITSU TEN (THAILAN170KRAL0031031                                                                                                                              *          20170130IMF1701304.TXT
MDDDH1306394201702                D89828070100PV1D20170203000060SPEAKER ASM                   M IMCTM S5MB11 FTTL  07070IMCT  S5 PTB  00004                    0400 SR        000000000000 FUJITSU TEN (THAILAN170KNEL0058058                                                                                                                              *          20170130IMF1701304.TXT
MDDDH1306395201702                D89828070100PV1D20170203000120SPEAKER ASM                   M IMCTM S5MB11 FTTL  07070IMCT  S5 PTB  00004                    0900 SR        000000000000 FUJITSU TEN (THAILAN170KPAL0072072170KRRL0014014                                                                                                                *          20170130IMF1701304.TXT
MDDDH1306396201702                D89828070100PV1D20170203000180SPEAKER ASM                   M IMCTM S5MB11 FTTL  07070IMCT  S5 PTB  00004                    1300 SR        000000000000 FUJITSU TEN (THAILAN170KNEL0059059170KPLL0008008170KRJL0025025                                                                                                  *          20170130IMF1701304.TXT
MDDDH1306397201702                D89828070200PV1D20170202000060SPEAKER ASM                   M IMCTM S5MA14 FTTL  07070IMCT  S5 PTB  00005                    2230 SR        000000000000 FUJITSU TEN (THAILAN170KRVL0005005                                                                                                                              *          20170130IMF1701304.TXT
MDDDH1306398201702                D89828070200PV1D20170203000060SPEAKER ASM                   M IMCTM S5MA14 FTTL  07070IMCT  S5 PTB  00005                    0900 SR        000000000000 FUJITSU TEN (THAILAN170KRRL0014014                                                                                                                              *          20170130IMF1701304.TXT
MDDDH1306399201702                D89828070200PV1D20170203000060SPEAKER ASM                   M IMCTM S5MA14 FTTL  07070IMCT  S5 PTB  00005                    1300 SR        000000000000 FUJITSU TEN (THAILAN170KRJL0025025                                                                                                                              *          20170130IMF1701304.TXT
MDDDH1306400201702                D89828070300PT1D20170202000120SPEAKER ASM                   M IMCTM S5NB082FTTL  07070IMCT  S5 PTB  00015                    2230 SR        000000000000 FUJITSU TEN (THAILAN170KPEL0038038170KRVL0005005                                                                                                                *          20170130IMF1701304.TXT
MDDDH1306401201702                D89828070300PT1D20170203000060SPEAKER ASM                   M IMCTM S5NB082FTTL  07070IMCT  S5 PTB  00015                    0900 SR        000000000000 FUJITSU TEN (THAILAN170KRRL0014014                                                                                                                              *          20170130IMF1701304.TXT
MDDDH1306402201702                D89828070300PT1D20170203000120SPEAKER ASM                   M IMCTM S5NB082FTTL  07070IMCT  S5 PTB  00015                    1300 SR        000000000000 FUJITSU TEN (THAILAN170KPLL0008008170KRJL0025025                                                                                                                *          20170130IMF1701304.TXT
MDDDH1306403201702                D89831228300PT1D20170202000030RADIO;AM/FM,CD                M IMCTM S5NC06 FTTL  07070IMCT  S5 CPB  00003                    2230 SR        000000000000 FUJITSU TEN (THAILAN170KPEL0038038                                                                                                                              *          20170130IMF1701304.TXT
MDEDH1322829201702                D89827952200PT4D20170203000015RADIO;AM/FM,CD,D              M IMCTM S9CO001FTTL  07070IMCT  S9 X    00003                    1600 SR        000000000000 FUJITSU TEN (THAILAN17065NU0001001                                                                                                                              *          20170130IMF1701304.TXT
MDEDH1322830201702                D89828070100PV1D20170202000060SPEAKER ASM                   M IMCTM S5MB11 FTTL  07070IMCT  S5 PTB  00004                    2230 SR        000000000000 FUJITSU TEN (THAILAN17077PL0002003                                                                                                                              *          20170130IMF1701304.TXT
MDEDH1322831201702                D89828070100PV4D20170202000030SPEAKER ASM                   M IMCTM S0FL05 FTTL  07070IMCT  S0 PTB  00004                    2230 SR        000000000000 FUJITSU TEN (THAILAN17046QU0007007                                                                                                                              *          20170130IMF1701304.TXT
MDEDH1322832201702                D89828070100PV4D20170203000030SPEAKER ASM                   M IMCTM S0FL05 FTTL  07070IMCT  S0 PTB  00004                    0230 SR        000000000000 FUJITSU TEN (THAILAN17022SU0002002                                                                                                                              *          20170130IMF1701304.TXT
MDEDH1322833201702                D89828070100PV4D20170203000030SPEAKER ASM                   M IMCTM S0FL05 FTTL  07070IMCT  S0 PTB  00004                    0400 SR        000000000000 FUJITSU TEN (THAILAN17028RU0001001                                                                                                                              *          20170130IMF1701304.TXT
MDEDH1322834201702                D89828070100PV4D20170203000060SPEAKER ASM                   M IMCTM S0FL05 FTTL  07070IMCT  S0 PTB  00004                    0900 SR        000000000000 FUJITSU TEN (THAILAN17046QU000800817050RU0004004                                                                                                                *          20170130IMF1701304.TXT
MDEDH1322835201702                D89828070100PV4D20170203000030SPEAKER ASM                   M IMCTM S0FL05 FTTL  07070IMCT  S0 PTB  00004                    1300 SR        000000000000 FUJITSU TEN (THAILAN17050RU0005005                                                                                                                              *          20170130IMF1701304.TXT
MDEDH1322836201702                D89828070100PV4D20170203000030SPEAKER ASM                   M IMCTM S0FL05 FTTL  07070IMCT  S0 PTB  00004                    1600 SR        000000000000 FUJITSU TEN (THAILAN17065NU0001001                                                                                                                              *          20170130IMF1701304.TXT
MDEDH1322837201702                D89828070200PV4D20170202000030SPEAKER ASM                   M IMCTM S0FR05 FTTL  07070IMCT  S0 PTB  00005                    2230 SR        000000000000 FUJITSU TEN (THAILAN17046QU0007007                                                                                                                              *          20170130IMF1701304.TXT
MDEDH1322838201702                D89828070200PV4D20170203000030SPEAKER ASM                   M IMCTM S0FR05 FTTL  07070IMCT  S0 PTB  00005                    0230 SR        000000000000 FUJITSU TEN (THAILAN17022SU0002002                                                                                                                              *          20170130IMF1701304.TXT
MDEDH1322839201702                D89828070200PV4D20170203000060SPEAKER ASM                   M IMCTM S0FR05 FTTL  07070IMCT  S0 PTB  00005                    0900 SR        000000000000 FUJITSU TEN (THAILAN17046QU000800817050RU0004004                                                                                                                *          20170130IMF1701304.TXT
MDEDH1322840201702                D89828070200PV4D20170203000030SPEAKER ASM                   M IMCTM S0FR05 FTTL  07070IMCT  S0 PTB  00005                    1300 SR        000000000000 FUJITSU TEN (THAILAN17050RU0005005                                                                                                                              *          20170130IMF1701304.TXT
MDEDH1322841201702                D89828070300PT4D20170202000030SPEAKER ASM                   M IMCTM S9TS02 FTTL  07070IMCT  S9 PTB  00015                    2230 SR        000000000000 FUJITSU TEN (THAILAN17046QU0007007                                                                                                                              *          20170130IMF1701304.TXT
MDEDH1322842201702                D89828070300PT4D20170203000030SPEAKER ASM                   M IMCTM S9TS02 FTTL  07070IMCT  S9 PTB  00015                    0230 SR        000000000000 FUJITSU TEN (THAILAN17022SU0002002                                                                                                                              *          20170130IMF1701304.TXT
MDEDH1322843201702                D89828070300PT4D20170203000060SPEAKER ASM                   M IMCTM S9TS02 FTTL  07070IMCT  S9 PTB  00015                    0900 SR        000000000000 FUJITSU TEN (THAILAN17046QU000800817050RU0004004                                                                                                                *          20170130IMF1701304.TXT
MDEDH1322844201702                D89828070300PT4D20170203000030SPEAKER ASM                   M IMCTM S9TS02 FTTL  07070IMCT  S9 PTB  00015                    1300 SR        000000000000 FUJITSU TEN (THAILAN17050RU0005005                                                                                                                              *          20170130IMF1701304.TXT
MDEDH1322845201702                D89828070300PT4D20170203000030SPEAKER ASM                   M IMCTM S9TS02 FTTL  07070IMCT  S9 PTB  00015                    1600 SR        000000000000 FUJITSU TEN (THAILAN17065NU0001001                                                                                                                              *          20170130IMF1701304.TXT
MDEDH1322846201702                D89829645400PT4D20170203000015RADIO;ASM DVD                 M IMCTM S9CO001FTTL  07070IMCT  S9 PTB  00003                    0900 SR        000000000000 FUJITSU TEN (THAILAN17050RU0004004                                                                                                                              *          20170130IMF1701304.TXT
MDEDH1322847201702                D89829645400PT4D20170203000015RADIO;ASM DVD                 M IMCTM S9CO001FTTL  07070IMCT  S9 PTB  00003                    1300 SR        000000000000 FUJITSU TEN (THAILAN17050RU0005005                                                                                                                              *          20170130IMF1701304.TXT
MDEUH1274202201702                D89828070100PT4U20170202000030SPEAKER ASM                   M IMCTM S0FL05 FTTL  07070IMCT  S0 PTB  00004                    2230 SR        000000000000 FUJITSU TEN (THAILAN170C47U0017017                                                                                                                              *          20170130IMF1701304.TXT
MDEUH1274203201702                D89828070100PT4U20170203000030SPEAKER ASM                   M IMCTM S0FL05 FTTL  07070IMCT  S0 PTB  00004                    0400 SR        000000000000 FUJITSU TEN (THAILAN170C47U0018018                                                                                                                              *          20170130IMF1701304.TXT
MDEUH1274204201702                D89828070100PT4U20170203000060SPEAKER ASM                   M IMCTM S0FL05 FTTL  07070IMCT  S0 PTB  00004                    1300 SR        000000000000 FUJITSU TEN (THAILAN170C12U0040040170C16U0122122                                                                                                                *          20170130IMF1701304.TXT
MDEUH1274205201702                D89828070100PT4U20170203000030SPEAKER ASM                   M IMCTM S0FL05 FTTL  07070IMCT  S0 PTB  00004                    2100 SR        000000000000 FUJITSU TEN (THAILAN170C47U0019019                                                                                                                              *          20170130IMF1701304.TXT
MDEUH1274206201702                D89828070200PV4U20170202000030SPEAKER ASM                   M IMCTM S0FR05 FTTL  07070IMCT  S0 PTB  00005                    2230 SR        000000000000 FUJITSU TEN (THAILAN170C47U0017017                                                                                                                              *          20170130IMF1701304.TXT
MDEUH1274207201702                D89828070200PV4U20170203000030SPEAKER ASM                   M IMCTM S0FR05 FTTL  07070IMCT  S0 PTB  00005                    0400 SR        000000000000 FUJITSU TEN (THAILAN170C47U0018018                                                                                                                              *          20170130IMF1701304.TXT
MDEUH1274208201702                D89828070200PV4U20170203000060SPEAKER ASM                   M IMCTM S0FR05 FTTL  07070IMCT  S0 PTB  00005                    1300 SR        000000000000 FUJITSU TEN (THAILAN170C12U0040040170C16U0122122                                                                                                                *          20170130IMF1701304.TXT
MDEUH1274209201702                D89828070200PV4U20170203000030SPEAKER ASM                   M IMCTM S0FR05 FTTL  07070IMCT  S0 PTB  00005                    2100 SR        000000000000 FUJITSU TEN (THAILAN170C47U0019019                                                                                                                              *          20170130IMF1701304.TXT
MDEUH1274210201702                D89828070300PT4U20170202000030SPEAKER ASM                   M IMCTM S9TS02 FTTL  07070IMCT  S9 PTB  00015                    2230 SR        000000000000 FUJITSU TEN (THAILAN170C47U0017017                                                                                                                              *          20170130IMF1701304.TXT
MDEUH1274211201702                D89828070300PT4U20170203000030SPEAKER ASM                   M IMCTM S9TS02 FTTL  07070IMCT  S9 PTB  00015                    0400 SR        000000000000 FUJITSU TEN (THAILAN170C47U0018018                                                                                                                              *          20170130IMF1701304.TXT
MDEUH1274212201702                D89828070300PT4U20170203000060SPEAKER ASM                   M IMCTM S9TS02 FTTL  07070IMCT  S9 PTB  00015                    1300 SR        000000000000 FUJITSU TEN (THAILAN170C12U0040040170C16U0122122                                                                                                                *          20170130IMF1701304.TXT
MDEUH1274213201702                D89828070300PT4U20170203000030SPEAKER ASM                   M IMCTM S9TS02 FTTL  07070IMCT  S9 PTB  00015                    2100 SR        000000000000 FUJITSU TEN (THAILAN170C47U0019019                                                                                                                              *          20170130IMF1701304.TXT
