REC2017011620170116ISUZU                              70     
MDDDH1236150201701                D89821984430PT1D20170119000030RADIO;AM/FM,CD                M IMCTM S5NC06 FTTL  07070IMCT  S5 PTB  00005                    2100 SR        000000000000 FUJITSU TEN (THAILAN170KPAL0066066                                                                                                                              *          20170116IMF1701164.TXT
MDDDH1236151201701                D89828070100PV1D20170119000060SPEAKER ASM                   M IMCTM S5MB11 FTTL  07070IMCT  S5 PTB  00004                    2100 SR        000000000000 FUJITSU TEN (THAILAN170KPAL0066066                                                                                                                              *          20170116IMF1701164.TXT
MDDDH1236152201701                D89828070100PV1D20170119000060SPEAKER ASM                   M IMCTM S5MB11 FTTL  07070IMCT  S5 PTB  00004                    2230 SR        000000000000 FUJITSU TEN (THAILAN170KPCL0033033                                                                                                                              *          20170116IMF1701164.TXT
MDDDH1236153201701                D89828070100PV1D20170120000060SPEAKER ASM                   M IMCTM S5MB11 FTTL  07070IMCT  S5 PTB  00004                    0900 SR        000000000000 FUJITSU TEN (THAILAN170KPFL0107107                                                                                                                              *          20170116IMF1701164.TXT
MDDDH1236154201701                D89828070100PV1D20170120000120SPEAKER ASM                   M IMCTM S5MB11 FTTL  07070IMCT  S5 PTB  00004                    1300 SR        000000000000 FUJITSU TEN (THAILAN170KPFL0108108170KRFL0045045                                                                                                                *          20170116IMF1701164.TXT
MDDDH1236155201701                D89828070100PV1D20170120000060SPEAKER ASM                   M IMCTM S5MB11 FTTL  07070IMCT  S5 PTB  00004                    1600 SR        000000000000 FUJITSU TEN (THAILAN170KPEL0030030                                                                                                                              *          20170116IMF1701164.TXT
MDDDH1236156201701                D89828070100PV1D20170120000120SPEAKER ASM                   M IMCTM S5MB11 FTTL  07070IMCT  S5 PTB  00004                    2100 SR        000000000000 FUJITSU TEN (THAILAN170KNBL0016016170KRJL0020020                                                                                                                *          20170116IMF1701164.TXT
MDDDH1236157201701                D89828070200PV1D20170120000060SPEAKER ASM                   M IMCTM S5MA14 FTTL  07070IMCT  S5 PTB  00005                    1300 SR        000000000000 FUJITSU TEN (THAILAN170KRFL0045045                                                                                                                              *          20170116IMF1701164.TXT
MDDDH1236158201701                D89828070200PV1D20170120000060SPEAKER ASM                   M IMCTM S5MA14 FTTL  07070IMCT  S5 PTB  00005                    2100 SR        000000000000 FUJITSU TEN (THAILAN170KRJL0020020                                                                                                                              *          20170116IMF1701164.TXT
MDDDH1236159201701                D89828070300PT1D20170119000060SPEAKER ASM                   M IMCTM S5NB082FTTL  07070IMCT  S5 PTB  00015                    2230 SR        000000000000 FUJITSU TEN (THAILAN170KPCL0033033                                                                                                                              *          20170116IMF1701164.TXT
MDDDH1236160201701                D89828070300PT1D20170120000060SPEAKER ASM                   M IMCTM S5NB082FTTL  07070IMCT  S5 PTB  00015                    0900 SR        000000000000 FUJITSU TEN (THAILAN170KPFL0107107                                                                                                                              *          20170116IMF1701164.TXT
MDDDH1236161201701                D89828070300PT1D20170120000120SPEAKER ASM                   M IMCTM S5NB082FTTL  07070IMCT  S5 PTB  00015                    1300 SR        000000000000 FUJITSU TEN (THAILAN170KPFL0108108170KRFL0045045                                                                                                                *          20170116IMF1701164.TXT
MDDDH1236162201701                D89828070300PT1D20170120000060SPEAKER ASM                   M IMCTM S5NB082FTTL  07070IMCT  S5 PTB  00015                    1600 SR        000000000000 FUJITSU TEN (THAILAN170KPEL0030030                                                                                                                              *          20170116IMF1701164.TXT
MDDDH1236163201701                D89828070300PT1D20170120000060SPEAKER ASM                   M IMCTM S5NB082FTTL  07070IMCT  S5 PTB  00015                    2100 SR        000000000000 FUJITSU TEN (THAILAN170KRJL0020020                                                                                                                              *          20170116IMF1701164.TXT
MDDDH1236164201701                D89829645900PT1D20170120000030RADIO;ASM DVD                 M IMCTM S5NC06 FTTL  07070IMCT  S5 CPB  00003                    1300 SR        000000000000 FUJITSU TEN (THAILAN170KRFL0045045                                                                                                                              *          20170116IMF1701164.TXT
MDDDH1236165201701                D89831228300PT1D20170119000030RADIO;AM/FM,CD                M IMCTM S5NC06 FTTL  07070IMCT  S5 CPB  00003                    2230 SR        000000000000 FUJITSU TEN (THAILAN170KPCL0033033                                                                                                                              *          20170116IMF1701164.TXT
MDDDH1236166201701                D89831228300PT1D20170120000030RADIO;AM/FM,CD                M IMCTM S5NC06 FTTL  07070IMCT  S5 CPB  00003                    0900 SR        000000000000 FUJITSU TEN (THAILAN170KPFL0107107                                                                                                                              *          20170116IMF1701164.TXT
MDDDH1236167201701                D89831228300PT1D20170120000030RADIO;AM/FM,CD                M IMCTM S5NC06 FTTL  07070IMCT  S5 CPB  00003                    1300 SR        000000000000 FUJITSU TEN (THAILAN170KPFL0108108                                                                                                                              *          20170116IMF1701164.TXT
MDDDH1236168201701                D89831228300PT1D20170120000030RADIO;AM/FM,CD                M IMCTM S5NC06 FTTL  07070IMCT  S5 CPB  00003                    1600 SR        000000000000 FUJITSU TEN (THAILAN170KPEL0030030                                                                                                                              *          20170116IMF1701164.TXT
MDEDH1268851201701                D89828070100PV1D20170119000060SPEAKER ASM                   M IMCTM S5MB11 FTTL  07070IMCT  S5 PTB  00004                    2230 SR        000000000000 FUJITSU TEN (THAILAN17080NL000100117081NL0004004                                                                                                                *          20170116IMF1701164.TXT
MDEDH1268852201701                D89828070100PV1D20170120000060SPEAKER ASM                   M IMCTM S5MB11 FTTL  07070IMCT  S5 PTB  00004                    0230 SR        000000000000 FUJITSU TEN (THAILAN17076NL000100117080NL0002002                                                                                                                *          20170116IMF1701164.TXT
MDEDH1268853201701                D89828070100PV1D20170120000120SPEAKER ASM                   M IMCTM S5MB11 FTTL  07070IMCT  S5 PTB  00004                    0400 SR        000000000000 FUJITSU TEN (THAILAN17018SL000100117076NL000200217077PL000100117080NL0003003                                                                                    *          20170116IMF1701164.TXT
MDEDH1268854201701                D89828070100PV1D20170120000060SPEAKER ASM                   M IMCTM S5MB11 FTTL  07070IMCT  S5 PTB  00004                    0900 SR        000000000000 FUJITSU TEN (THAILAN17080NL0004005                                                                                                                              *          20170116IMF1701164.TXT
MDEDH1268855201701                D89828070100PV1D20170120000060SPEAKER ASM                   M IMCTM S5MB11 FTTL  07070IMCT  S5 PTB  00004                    1600 SR        000000000000 FUJITSU TEN (THAILAN17029ML0009010                                                                                                                              *          20170116IMF1701164.TXT
MDEDH1268856201701                D89828070100PV4D20170119000030SPEAKER ASM                   M IMCTM S0FL05 FTTL  07070IMCT  S0 PTB  00004                    2230 SR        000000000000 FUJITSU TEN (THAILAN17074NU0002002                                                                                                                              *          20170116IMF1701164.TXT
MDEDH1268857201701                D89828070100PV4D20170120000030SPEAKER ASM                   M IMCTM S0FL05 FTTL  07070IMCT  S0 PTB  00004                    0400 SR        000000000000 FUJITSU TEN (THAILAN17074NU0003003                                                                                                                              *          20170116IMF1701164.TXT
MDEDH1268858201701                D89828070100PV4D20170120000030SPEAKER ASM                   M IMCTM S0FL05 FTTL  07070IMCT  S0 PTB  00004                    0900 SR        000000000000 FUJITSU TEN (THAILAN17074NU0004004                                                                                                                              *          20170116IMF1701164.TXT
MDEDH1268859201701                D89828070100PV4D20170120000060SPEAKER ASM                   M IMCTM S0FL05 FTTL  07070IMCT  S0 PTB  00004                    1300 SR        000000000000 FUJITSU TEN (THAILAN17074NU0005006                                                                                                                              *          20170116IMF1701164.TXT
MDEDH1268860201701                D89828070100PV4D20170120000030SPEAKER ASM                   M IMCTM S0FL05 FTTL  07070IMCT  S0 PTB  00004                    1600 SR        000000000000 FUJITSU TEN (THAILAN17074NU0007007                                                                                                                              *          20170116IMF1701164.TXT
MDEDH1268861201701                D89828070200PV1D20170119000060SPEAKER ASM                   M IMCTM S5MA14 FTTL  07070IMCT  S5 PTB  00005                    2230 SR        000000000000 FUJITSU TEN (THAILAN17080NL000100117081NL0004004                                                                                                                *          20170116IMF1701164.TXT
MDEDH1268862201701                D89828070200PV1D20170120000060SPEAKER ASM                   M IMCTM S5MA14 FTTL  07070IMCT  S5 PTB  00005                    0230 SR        000000000000 FUJITSU TEN (THAILAN17076NL000100117080NL0002002                                                                                                                *          20170116IMF1701164.TXT
MDEDH1268863201701                D89828070200PV1D20170120000090SPEAKER ASM                   M IMCTM S5MA14 FTTL  07070IMCT  S5 PTB  00005                    0400 SR        000000000000 FUJITSU TEN (THAILAN17018SL000100117076NL000200217080NL0003003                                                                                                  *          20170116IMF1701164.TXT
MDEDH1268864201701                D89828070200PV1D20170120000060SPEAKER ASM                   M IMCTM S5MA14 FTTL  07070IMCT  S5 PTB  00005                    0900 SR        000000000000 FUJITSU TEN (THAILAN17080NL0004005                                                                                                                              *          20170116IMF1701164.TXT
MDEDH1268865201701                D89828070200PV1D20170120000060SPEAKER ASM                   M IMCTM S5MA14 FTTL  07070IMCT  S5 PTB  00005                    1600 SR        000000000000 FUJITSU TEN (THAILAN17029ML0009010                                                                                                                              *          20170116IMF1701164.TXT
MDEDH1268866201701                D89828070200PV4D20170119000030SPEAKER ASM                   M IMCTM S0FR05 FTTL  07070IMCT  S0 PTB  00005                    2230 SR        000000000000 FUJITSU TEN (THAILAN17074NU0002002                                                                                                                              *          20170116IMF1701164.TXT
MDEDH1268867201701                D89828070200PV4D20170120000030SPEAKER ASM                   M IMCTM S0FR05 FTTL  07070IMCT  S0 PTB  00005                    0400 SR        000000000000 FUJITSU TEN (THAILAN17074NU0003003                                                                                                                              *          20170116IMF1701164.TXT
MDEDH1268868201701                D89828070200PV4D20170120000030SPEAKER ASM                   M IMCTM S0FR05 FTTL  07070IMCT  S0 PTB  00005                    0900 SR        000000000000 FUJITSU TEN (THAILAN17074NU0004004                                                                                                                              *          20170116IMF1701164.TXT
MDEDH1268869201701                D89828070200PV4D20170120000060SPEAKER ASM                   M IMCTM S0FR05 FTTL  07070IMCT  S0 PTB  00005                    1300 SR        000000000000 FUJITSU TEN (THAILAN17074NU0005006                                                                                                                              *          20170116IMF1701164.TXT
MDEDH1268870201701                D89828070200PV4D20170120000030SPEAKER ASM                   M IMCTM S0FR05 FTTL  07070IMCT  S0 PTB  00005                    1600 SR        000000000000 FUJITSU TEN (THAILAN17074NU0007007                                                                                                                              *          20170116IMF1701164.TXT
MDEDH1268871201701                D89828070300PT1D20170119000060SPEAKER ASM                   M IMCTM S5NB082FTTL  07070IMCT  S5 PTB  00015                    2230 SR        000000000000 FUJITSU TEN (THAILAN17080NL000100117081NL0004004                                                                                                                *          20170116IMF1701164.TXT
MDEDH1268872201701                D89828070300PT1D20170120000060SPEAKER ASM                   M IMCTM S5NB082FTTL  07070IMCT  S5 PTB  00015                    0230 SR        000000000000 FUJITSU TEN (THAILAN17076NL000100117080NL0002002                                                                                                                *          20170116IMF1701164.TXT
MDEDH1268873201701                D89828070300PT1D20170120000090SPEAKER ASM                   M IMCTM S5NB082FTTL  07070IMCT  S5 PTB  00015                    0400 SR        000000000000 FUJITSU TEN (THAILAN17018SL000100117076NL000200217080NL0003003                                                                                                  *          20170116IMF1701164.TXT
MDEDH1268874201701                D89828070300PT1D20170120000060SPEAKER ASM                   M IMCTM S5NB082FTTL  07070IMCT  S5 PTB  00015                    0900 SR        000000000000 FUJITSU TEN (THAILAN17080NL0004005                                                                                                                              *          20170116IMF1701164.TXT
MDEDH1268875201701                D89828070300PT1D20170120000060SPEAKER ASM                   M IMCTM S5NB082FTTL  07070IMCT  S5 PTB  00015                    1600 SR        000000000000 FUJITSU TEN (THAILAN17029ML0009010                                                                                                                              *          20170116IMF1701164.TXT
MDEDH1268876201701                D89828070300PT4D20170119000030SPEAKER ASM                   M IMCTM S9TS02 FTTL  07070IMCT  S9 PTB  00015                    2230 SR        000000000000 FUJITSU TEN (THAILAN17074NU0002002                                                                                                                              *          20170116IMF1701164.TXT
MDEDH1268877201701                D89828070300PT4D20170120000030SPEAKER ASM                   M IMCTM S9TS02 FTTL  07070IMCT  S9 PTB  00015                    0400 SR        000000000000 FUJITSU TEN (THAILAN17074NU0003003                                                                                                                              *          20170116IMF1701164.TXT
MDEDH1268878201701                D89828070300PT4D20170120000030SPEAKER ASM                   M IMCTM S9TS02 FTTL  07070IMCT  S9 PTB  00015                    0900 SR        000000000000 FUJITSU TEN (THAILAN17074NU0004004                                                                                                                              *          20170116IMF1701164.TXT
MDEDH1268879201701                D89828070300PT4D20170120000060SPEAKER ASM                   M IMCTM S9TS02 FTTL  07070IMCT  S9 PTB  00015                    1300 SR        000000000000 FUJITSU TEN (THAILAN17074NU0005006                                                                                                                              *          20170116IMF1701164.TXT
MDEDH1268880201701                D89828070300PT4D20170120000030SPEAKER ASM                   M IMCTM S9TS02 FTTL  07070IMCT  S9 PTB  00015                    1600 SR        000000000000 FUJITSU TEN (THAILAN17074NU0007007                                                                                                                              *          20170116IMF1701164.TXT
MDEDH1268881201701                D89829645700PT4D20170119000015RADIO;ASM DVD                 M IMCTM S9CO001FTTL  07070IMCT  S9 X    00003                    2230 SR        000000000000 FUJITSU TEN (THAILAN17074NU0002002                                                                                                                              *          20170116IMF1701164.TXT
MDEDH1268882201701                D89829645700PT4D20170120000015RADIO;ASM DVD                 M IMCTM S9CO001FTTL  07070IMCT  S9 X    00003                    0400 SR        000000000000 FUJITSU TEN (THAILAN17074NU0003003                                                                                                                              *          20170116IMF1701164.TXT
MDEDH1268883201701                D89829645700PT4D20170120000015RADIO;ASM DVD                 M IMCTM S9CO001FTTL  07070IMCT  S9 X    00003                    0900 SR        000000000000 FUJITSU TEN (THAILAN17074NU0004004                                                                                                                              *          20170116IMF1701164.TXT
MDEDH1268884201701                D89829645700PT4D20170120000030RADIO;ASM DVD                 M IMCTM S9CO001FTTL  07070IMCT  S9 X    00003                    1300 SR        000000000000 FUJITSU TEN (THAILAN17074NU0005006                                                                                                                              *          20170116IMF1701164.TXT
MDEDH1268885201701                D89829645700PT4D20170120000015RADIO;ASM DVD                 M IMCTM S9CO001FTTL  07070IMCT  S9 X    00003                    1600 SR        000000000000 FUJITSU TEN (THAILAN17074NU0007007                                                                                                                              *          20170116IMF1701164.TXT
MDEDH1268886201701                D89831228400PT1D20170120000015RADIO;AM/FM,CD                M IMCTM S5NC06 FTTL  07070IMCT  S5 CPB  00003                    0400 SR        000000000000 FUJITSU TEN (THAILAN17018SL0001001                                                                                                                              *          20170116IMF1701164.TXT
MDEUH1231953201701                D89828070100PT4U20170119000060SPEAKER ASM                   M IMCTM S0FL05 FTTL  07070IMCT  S0 PTB  00004                    2230 SR        000000000000 FUJITSU TEN (THAILAN170C13U0063064                                                                                                                              *          20170116IMF1701164.TXT
MDEUH1231954201701                D89828070100PT4U20170120000030SPEAKER ASM                   M IMCTM S0FL05 FTTL  07070IMCT  S0 PTB  00004                    0400 SR        000000000000 FUJITSU TEN (THAILAN170C13U0065065                                                                                                                              *          20170116IMF1701164.TXT
MDEUH1231955201701                D89828070100PT4U20170120000030SPEAKER ASM                   M IMCTM S0FL05 FTTL  07070IMCT  S0 PTB  00004                    0900 SR        000000000000 FUJITSU TEN (THAILAN170C13U0066066                                                                                                                              *          20170116IMF1701164.TXT
MDEUH1231956201701                D89828070100PT4U20170120000030SPEAKER ASM                   M IMCTM S0FL05 FTTL  07070IMCT  S0 PTB  00004                    1600 SR        000000000000 FUJITSU TEN (THAILAN170C08U0017017                                                                                                                              *          20170116IMF1701164.TXT
MDEUH1231957201701                D89828070100PT4U20170120000030SPEAKER ASM                   M IMCTM S0FL05 FTTL  07070IMCT  S0 PTB  00004                    2100 SR        000000000000 FUJITSU TEN (THAILAN170C12U0026026                                                                                                                              *          20170116IMF1701164.TXT
MDEUH1231958201701                D89828070200PV4U20170119000060SPEAKER ASM                   M IMCTM S0FR05 FTTL  07070IMCT  S0 PTB  00005                    2230 SR        000000000000 FUJITSU TEN (THAILAN170C13U0063064                                                                                                                              *          20170116IMF1701164.TXT
MDEUH1231959201701                D89828070200PV4U20170120000030SPEAKER ASM                   M IMCTM S0FR05 FTTL  07070IMCT  S0 PTB  00005                    0400 SR        000000000000 FUJITSU TEN (THAILAN170C13U0065065                                                                                                                              *          20170116IMF1701164.TXT
MDEUH1231960201701                D89828070200PV4U20170120000030SPEAKER ASM                   M IMCTM S0FR05 FTTL  07070IMCT  S0 PTB  00005                    0900 SR        000000000000 FUJITSU TEN (THAILAN170C13U0066066                                                                                                                              *          20170116IMF1701164.TXT
MDEUH1231961201701                D89828070200PV4U20170120000030SPEAKER ASM                   M IMCTM S0FR05 FTTL  07070IMCT  S0 PTB  00005                    1600 SR        000000000000 FUJITSU TEN (THAILAN170C08U0017017                                                                                                                              *          20170116IMF1701164.TXT
MDEUH1231962201701                D89828070200PV4U20170120000030SPEAKER ASM                   M IMCTM S0FR05 FTTL  07070IMCT  S0 PTB  00005                    2100 SR        000000000000 FUJITSU TEN (THAILAN170C12U0026026                                                                                                                              *          20170116IMF1701164.TXT
MDEUH1231963201701                D89828070300PT4U20170119000060SPEAKER ASM                   M IMCTM S9TS02 FTTL  07070IMCT  S9 PTB  00015                    2230 SR        000000000000 FUJITSU TEN (THAILAN170C13U0063064                                                                                                                              *          20170116IMF1701164.TXT
MDEUH1231964201701                D89828070300PT4U20170120000030SPEAKER ASM                   M IMCTM S9TS02 FTTL  07070IMCT  S9 PTB  00015                    0400 SR        000000000000 FUJITSU TEN (THAILAN170C13U0065065                                                                                                                              *          20170116IMF1701164.TXT
MDEUH1231965201701                D89828070300PT4U20170120000030SPEAKER ASM                   M IMCTM S9TS02 FTTL  07070IMCT  S9 PTB  00015                    0900 SR        000000000000 FUJITSU TEN (THAILAN170C13U0066066                                                                                                                              *          20170116IMF1701164.TXT
MDEUH1231966201701                D89828070300PT4U20170120000030SPEAKER ASM                   M IMCTM S9TS02 FTTL  07070IMCT  S9 PTB  00015                    1600 SR        000000000000 FUJITSU TEN (THAILAN170C08U0017017                                                                                                                              *          20170116IMF1701164.TXT
MDEUH1231967201701                D89828070300PT4U20170120000030SPEAKER ASM                   M IMCTM S9TS02 FTTL  07070IMCT  S9 PTB  00015                    2100 SR        000000000000 FUJITSU TEN (THAILAN170C12U0026026                                                                                                                              *          20170116IMF1701164.TXT
