REC2017011120170111ISUZU                              18     
MDEBH1T01142201701                D89828070100PT4B20170117000022SPEAKER ASM                   M IMCTM S7FL05 FTTL  07070IMCT  S7 PTB  00004                    0900 SR        000000000000 FUJITSU TEN (THAILAN170C12R0005   170C16R0020   Y170103105    Y170103115    000000                                                                              *R         20170111RDF1701114.TXT
MDEBH1T01143201701                D89828070200PV4B20170117000020SPEAKER ASM                   M IMCTM S7TS02 FTTL  07070IMCT  S7 PTB  00005                    0900 SR        000000000000 FUJITSU TEN (THAILAN170C13R0006   170C16R0020   Y170103106    Y170103115    000000                                                                              *R         20170111RDF1701114.TXT
MDEBH1T01144201701                D89828070300PT4B20170117000015SPEAKER ASM                   M IMCTM S7TS02 FTTL  07070IMCT  S7 PTB  00015                    0900 SR        000000000000 FUJITSU TEN (THAILAN170C13R0008   170C16R0020   Y170103108    Y170103115    000000                                                                              *R         20170111RDF1701114.TXT
MDEBH1201718201701                D89828070100PT4B20170117000008SPEAKER ASM                   M IMCTM S7FL05 FTTL  07070IMCT  S7 PTB  00004                    0400 SR        000000000000 FUJITSU TEN (THAILAN170C12R0001   170C12R0004   Y170103101    Y170103104    000000                                                                              *R         20170111RDF1701114.TXT
MDEBH1201719201701                D89828070200PV4B20170117000010SPEAKER ASM                   M IMCTM S7TS02 FTTL  07070IMCT  S7 PTB  00005                    0400 SR        000000000000 FUJITSU TEN (THAILAN170C12R0001   170C12R0005   Y170103101    Y170103105    000000                                                                              *R         20170111RDF1701114.TXT
MDEBH1201720201701                D89828070300PT4B20170117000015SPEAKER ASM                   M IMCTM S7TS02 FTTL  07070IMCT  S7 PTB  00015                    0400 SR        000000000000 FUJITSU TEN (THAILAN170C12R0001   170C13R0008   Y170103101    Y170103108    000000                                                                              *R         20170111RDF1701114.TXT
MDEFH1T06787201701                D89828070100PV4F20170116000028SPEAKER ASM                   M IMCTM S7FL05 FTTL  07070IMCT  S7 PTB  00004                    2230 SR        000000000000 FUJITSU TEN (THAILAN17029MR0002   17046RR0018   D170103002    D170103015    000000                                                                              *R         20170111RDF1701114.TXT
MDEFH1T06788201701                D89828070200PV4F20170116000030SPEAKER ASM                   M IMCTM S7TS02 FTTL  07070IMCT  S7 PTB  00005                    2230 SR        000000000000 FUJITSU TEN (THAILAN17029MR0001   17046RR0018   D170103001    D170103015    000000                                                                              *R         20170111RDF1701114.TXT
MDEFH1T06789201701                D89828070300PT4F20170116000030SPEAKER ASM                   M IMCTM S7TS02 FTTL  07070IMCT  S7 PTB  00015                    2230 SR        000000000000 FUJITSU TEN (THAILAN17029MR0001   17046RR0018   D170103001    D170103015    000000                                                                              *R         20170111RDF1701114.TXT
MDEFH1T06790201701                D89829645300PT4F20170116000006RADIO;ASM DVD                 M IMCTM S7TS03 FTTL  07070IMCT  S7 PTB  00003                    1600 SR        000000000000 FUJITSU TEN (THAILAN17027MR0010   17032PR0009   D170102910    D170103014    000000                                                                              *R         20170111RDF1701114.TXT
MDEFH1T06791201701                D89831229000PT4F20170116000001RADIO;AM/FM,CD                M IMCTM S7TS03 FTTL  07070IMCT  S7 PTB  00003                    2230 SR        000000000000 FUJITSU TEN (THAILAN17046RR0018   17046RR0018   D170103015    D170103015    000000                                                                              *R         20170111RDF1701114.TXT
MDEFH1220603201701                D89828070100PV4F20170116000008SPEAKER ASM                   M IMCTM S7FL05 FTTL  07070IMCT  S7 PTB  00004                    1300 SR        000000000000 FUJITSU TEN (THAILAN17008NR0013   17012NR0009   D170102901    D170102904    000000                                                                              *R         20170111RDF1701114.TXT
MDEFH1220604201701                D89828070100PV4F20170116000024SPEAKER ASM                   M IMCTM S7FL05 FTTL  07070IMCT  S7 PTB  00004                    1600 SR        000000000000 FUJITSU TEN (THAILAN17016PR0008   17029MR0001   D170102905    D170103001    000000                                                                              *R         20170111RDF1701114.TXT
MDEFH1220605201701                D89828070200PV4F20170116000010SPEAKER ASM                   M IMCTM S7TS02 FTTL  07070IMCT  S7 PTB  00005                    1300 SR        000000000000 FUJITSU TEN (THAILAN17008NR0013   17016PR0008   D170102901    D170102905    000000                                                                              *R         20170111RDF1701114.TXT
MDEFH1220606201701                D89828070200PV4F20170116000020SPEAKER ASM                   M IMCTM S7TS02 FTTL  07070IMCT  S7 PTB  00005                    1600 SR        000000000000 FUJITSU TEN (THAILAN17023NR0010   17039NR0009   D170102906    D170102915    000000                                                                              *R         20170111RDF1701114.TXT
MDEFH1220607201701                D89828070300PT4F20170116000015SPEAKER ASM                   M IMCTM S7TS02 FTTL  07070IMCT  S7 PTB  00015                    1300 SR        000000000000 FUJITSU TEN (THAILAN17008NR0013   17023NR0012   D170102901    D170102908    000000                                                                              *R         20170111RDF1701114.TXT
MDEFH1220608201701                D89828070300PT4F20170116000015SPEAKER ASM                   M IMCTM S7TS02 FTTL  07070IMCT  S7 PTB  00015                    1600 SR        000000000000 FUJITSU TEN (THAILAN17023NR0012   17039NR0009   D170102908    D170102915    000000                                                                              *R         20170111RDF1701114.TXT
MDEFH1220609201701                D89829645300PT4F20170116000003RADIO;ASM DVD                 M IMCTM S7TS03 FTTL  07070IMCT  S7 PTB  00003                    1300 SR        000000000000 FUJITSU TEN (THAILAN17008NR0013   17027MR0009   D170102901    D170102909    000000                                                                              *R         20170111RDF1701114.TXT
