REC2017012420170124ISUZU                              7      
MDEFH1T18222201701                D89828070100PV4F20170127000010SPEAKER ASM                   M IMCTM S7FL05 FTTL  07070IMCT  S7 PTB  00004                    2100 SR        000000000000 FUJITSU TEN (THAILAN17014SR0009   17014SR0013   D170106211    D170106215    000000                                                                              *R         20170124RDF1701244.TXT
MDEFH1T18223201701                D89828070200PV4F20170127000010SPEAKER ASM                   M IMCTM S7TS02 FTTL  07070IMCT  S7 PTB  00005                    2100 SR        000000000000 FUJITSU TEN (THAILAN17014SR0009   17014SR0013   D170106211    D170106215    000000                                                                              *R         20170124RDF1701244.TXT
MDEFH1T18224201701                D89828070300PT4F20170127000005SPEAKER ASM                   M IMCTM S7TS02 FTTL  07070IMCT  S7 PTB  00015                    2100 SR        000000000000 FUJITSU TEN (THAILAN17014SR0011   17014SR0013   D170106213    D170106215    000000                                                                              *R         20170124RDF1701244.TXT
MDEFH1T18225201701                D89831228400PT4F20170127000005RADIO;AM/FM,CD                M IMCTM S7TS03 FTTL  07070IMCT  S7 CPB  00003                    2100 SR        000000000000 FUJITSU TEN (THAILAN17014SR0009   17014SR0013   D170106211    D170106215    000000                                                                              *R         20170124RDF1701244.TXT
MDEFH1263428201701                D89828070100PV4F20170127000020SPEAKER ASM                   M IMCTM S7FL05 FTTL  07070IMCT  S7 PTB  00004                    1600 SR        000000000000 FUJITSU TEN (THAILAN17012SR0001   17013SR0017   D170106201    D170106210    000000                                                                              *R         20170124RDF1701244.TXT
MDEFH1263429201701                D89828070200PV4F20170127000010SPEAKER ASM                   M IMCTM S7TS02 FTTL  07070IMCT  S7 PTB  00005                    1600 SR        000000000000 FUJITSU TEN (THAILAN17013SR0013   17013SR0017   D170106206    D170106210    000000                                                                              *R         20170124RDF1701244.TXT
MDEFH1263430201701                D89828070300PT4F20170127000015SPEAKER ASM                   M IMCTM S7TS02 FTTL  07070IMCT  S7 PTB  00015                    1600 SR        000000000000 FUJITSU TEN (THAILAN17013SR0013   17014SR0011   D170106206    D170106213    000000                                                                              *R         20170124RDF1701244.TXT
