REC2017010920170109ISUZU                              60     
MDDDH1214075201701                D89821984430PT1D20170113000030RADIO;AM/FM,CD                M IMCTM S5NC06 FTTL  07070IMCT  S5 PTB  00005                    0900 SR        000000000000 FUJITSU TEN (THAILAN170KPAL0060060                                                                                                                              *          20170109IMF1701095.TXT
MDDDH1214076201701                D89825217900PT1D20170112000030RADIO;AM/FM,CD,D              M IMCTM S5NC06 FTTL  07070IMCT  S5 PTB  00003                    2230 SR        000000000000 FUJITSU TEN (THAILAN170KPJL0028028                                                                                                                              *          20170109IMF1701095.TXT
MDDDH1214077201701                D89828070100PV1D20170112000120SPEAKER ASM                   M IMCTM S5MB11 FTTL  07070IMCT  S5 PTB  00004                    2230 SR        000000000000 FUJITSU TEN (THAILAN170KPJL0028028170KRCL0016016                                                                                                                *          20170109IMF1701095.TXT
MDDDH1214078201701                D89828070100PV1D20170113000060SPEAKER ASM                   M IMCTM S5MB11 FTTL  07070IMCT  S5 PTB  00004                    0230 SR        000000000000 FUJITSU TEN (THAILAN170KRJL0019019                                                                                                                              *          20170109IMF1701095.TXT
MDDDH1214079201701                D89828070100PV1D20170113000120SPEAKER ASM                   M IMCTM S5MB11 FTTL  07070IMCT  S5 PTB  00004                    0400 SR        000000000000 FUJITSU TEN (THAILAN170KPFL0099099170KRFL0042042                                                                                                                *          20170109IMF1701095.TXT
MDDDH1214080201701                D89828070100PV1D20170113000060SPEAKER ASM                   M IMCTM S5MB11 FTTL  07070IMCT  S5 PTB  00004                    0900 SR        000000000000 FUJITSU TEN (THAILAN170KPAL0060060                                                                                                                              *          20170109IMF1701095.TXT
MDDDH1214081201701                D89828070200PV1D20170112000060SPEAKER ASM                   M IMCTM S5MA14 FTTL  07070IMCT  S5 PTB  00005                    2230 SR        000000000000 FUJITSU TEN (THAILAN170KRCL0016016                                                                                                                              *          20170109IMF1701095.TXT
MDDDH1214082201701                D89828070200PV1D20170113000060SPEAKER ASM                   M IMCTM S5MA14 FTTL  07070IMCT  S5 PTB  00005                    0230 SR        000000000000 FUJITSU TEN (THAILAN170KRJL0019019                                                                                                                              *          20170109IMF1701095.TXT
MDDDH1214083201701                D89828070200PV1D20170113000060SPEAKER ASM                   M IMCTM S5MA14 FTTL  07070IMCT  S5 PTB  00005                    0400 SR        000000000000 FUJITSU TEN (THAILAN170KRFL0042042                                                                                                                              *          20170109IMF1701095.TXT
MDDDH1214084201701                D89828070300PT1D20170112000120SPEAKER ASM                   M IMCTM S5NB082FTTL  07070IMCT  S5 PTB  00015                    2230 SR        000000000000 FUJITSU TEN (THAILAN170KPJL0028028170KRCL0016016                                                                                                                *          20170109IMF1701095.TXT
MDDDH1214085201701                D89828070300PT1D20170113000060SPEAKER ASM                   M IMCTM S5NB082FTTL  07070IMCT  S5 PTB  00015                    0230 SR        000000000000 FUJITSU TEN (THAILAN170KRJL0019019                                                                                                                              *          20170109IMF1701095.TXT
MDDDH1214086201701                D89828070300PT1D20170113000120SPEAKER ASM                   M IMCTM S5NB082FTTL  07070IMCT  S5 PTB  00015                    0400 SR        000000000000 FUJITSU TEN (THAILAN170KPFL0099099170KRFL0042042                                                                                                                *          20170109IMF1701095.TXT
MDDDH1214087201701                D89829645900PT1D20170113000030RADIO;ASM DVD                 M IMCTM S5NC06 FTTL  07070IMCT  S5 CPB  00003                    0400 SR        000000000000 FUJITSU TEN (THAILAN170KRFL0042042                                                                                                                              *          20170109IMF1701095.TXT
MDDDH1214088201701                D89831228300PT1D20170113000030RADIO;AM/FM,CD                M IMCTM S5NC06 FTTL  07070IMCT  S5 CPB  00003                    0400 SR        000000000000 FUJITSU TEN (THAILAN170KPFL0099099                                                                                                                              *          20170109IMF1701095.TXT
MDDDH1214089201701                D89831228400PT1D20170112000030RADIO;AM/FM,CD                M IMCTM S5NC06 FTTL  07070IMCT  S5 CPB  00003                    2230 SR        000000000000 FUJITSU TEN (THAILAN170KRCL0016016                                                                                                                              *          20170109IMF1701095.TXT
MDEDH1225058201701                D89805293700PV4D20170113000030SPEAKER ASM                   M IMCTM S0FR05 FTTL  07070IMCT  S0 PTB  00003                    0230 SR        000000000000 FUJITSU TEN (THAILAN15019FU0043043                                                                                                                              *          20170109IMF1701095.TXT
MDEDH1225059201701                D89828070100PV1D20170112000030SPEAKER ASM                   M IMCTM S5MB11 FTTL  07070IMCT  S5 PTB  00004                    2230 SR        000000000000 FUJITSU TEN (THAILAN17043PL0001001                                                                                                                              *          20170109IMF1701095.TXT
MDEDH1225060201701                D89828070100PV1D20170113000060SPEAKER ASM                   M IMCTM S5MB11 FTTL  07070IMCT  S5 PTB  00004                    0900 SR        000000000000 FUJITSU TEN (THAILAN17001NL0003004                                                                                                                              *          20170109IMF1701095.TXT
MDEDH1225061201701                D89828070100PV1D20170113000150SPEAKER ASM                   M IMCTM S5MB11 FTTL  07070IMCT  S5 PTB  00004                    1300 SR        000000000000 FUJITSU TEN (THAILAN17005NL000100117050ML000500517058NL000200217071ML0004005                                                                                    *          20170109IMF1701095.TXT
MDEDH1225062201701                D89828070100PV1D20170113000120SPEAKER ASM                   M IMCTM S5MB11 FTTL  07070IMCT  S5 PTB  00004                    1600 SR        000000000000 FUJITSU TEN (THAILAN17006ML000100117008ML000200217055NL000700717079ML0001001                                                                                    *          20170109IMF1701095.TXT
MDEDH1225063201701                D89828070100PV1D20170113000030SPEAKER ASM                   M IMCTM S5MB11 FTTL  07070IMCT  S5 PTB  00004                    2100 SR        000000000000 FUJITSU TEN (THAILAN17010ML0002002                                                                                                                              *          20170109IMF1701095.TXT
MDEDH1225064201701                D89828070100PV4D20170112000030SPEAKER ASM                   M IMCTM S0FL05 FTTL  07070IMCT  S0 PTB  00004                    2100 SR        000000000000 FUJITSU TEN (THAILAN17034PU0019019                                                                                                                              *          20170109IMF1701095.TXT
MDEDH1225065201701                D89828070100PV4D20170113000030SPEAKER ASM                   M IMCTM S0FL05 FTTL  07070IMCT  S0 PTB  00004                    0900 SR        000000000000 FUJITSU TEN (THAILAN17034PU0020020                                                                                                                              *          20170109IMF1701095.TXT
MDEDH1225066201701                D89828070100PV4D20170113000060SPEAKER ASM                   M IMCTM S0FL05 FTTL  07070IMCT  S0 PTB  00004                    1600 SR        000000000000 FUJITSU TEN (THAILAN17024NU000700717034PU0021021                                                                                                                *          20170109IMF1701095.TXT
MDEDH1225067201701                D89828070200PV1D20170112000030SPEAKER ASM                   M IMCTM S5MA14 FTTL  07070IMCT  S5 PTB  00005                    2230 SR        000000000000 FUJITSU TEN (THAILAN17043PL0001001                                                                                                                              *          20170109IMF1701095.TXT
MDEDH1225068201701                D89828070200PV1D20170113000060SPEAKER ASM                   M IMCTM S5MA14 FTTL  07070IMCT  S5 PTB  00005                    0900 SR        000000000000 FUJITSU TEN (THAILAN17001NL0003004                                                                                                                              *          20170109IMF1701095.TXT
MDEDH1225069201701                D89828070200PV1D20170113000060SPEAKER ASM                   M IMCTM S5MA14 FTTL  07070IMCT  S5 PTB  00005                    1300 SR        000000000000 FUJITSU TEN (THAILAN17005NL000100117058NL0002002                                                                                                                *          20170109IMF1701095.TXT
MDEDH1225070201701                D89828070200PV4D20170112000030SPEAKER ASM                   M IMCTM S0FR05 FTTL  07070IMCT  S0 PTB  00005                    2100 SR        000000000000 FUJITSU TEN (THAILAN17034PU0019019                                                                                                                              *          20170109IMF1701095.TXT
MDEDH1225071201701                D89828070200PV4D20170113000030SPEAKER ASM                   M IMCTM S0FR05 FTTL  07070IMCT  S0 PTB  00005                    0900 SR        000000000000 FUJITSU TEN (THAILAN17034PU0020020                                                                                                                              *          20170109IMF1701095.TXT
MDEDH1225072201701                D89828070200PV4D20170113000060SPEAKER ASM                   M IMCTM S0FR05 FTTL  07070IMCT  S0 PTB  00005                    1600 SR        000000000000 FUJITSU TEN (THAILAN17024NU000700717034PU0021021                                                                                                                *          20170109IMF1701095.TXT
MDEDH1225073201701                D89828070300PT1D20170112000030SPEAKER ASM                   M IMCTM S5NB082FTTL  07070IMCT  S5 PTB  00015                    2230 SR        000000000000 FUJITSU TEN (THAILAN17043PL0001001                                                                                                                              *          20170109IMF1701095.TXT
MDEDH1225074201701                D89828070300PT1D20170113000060SPEAKER ASM                   M IMCTM S5NB082FTTL  07070IMCT  S5 PTB  00015                    0900 SR        000000000000 FUJITSU TEN (THAILAN17001NL0003004                                                                                                                              *          20170109IMF1701095.TXT
MDEDH1225075201701                D89828070300PT1D20170113000120SPEAKER ASM                   M IMCTM S5NB082FTTL  07070IMCT  S5 PTB  00015                    1300 SR        000000000000 FUJITSU TEN (THAILAN17005NL000100117058NL000200217071ML0004005                                                                                                  *          20170109IMF1701095.TXT
MDEDH1225076201701                D89828070300PT1D20170113000060SPEAKER ASM                   M IMCTM S5NB082FTTL  07070IMCT  S5 PTB  00015                    1600 SR        000000000000 FUJITSU TEN (THAILAN17008ML000200217055NL0007007                                                                                                                *          20170109IMF1701095.TXT
MDEDH1225077201701                D89828070300PT4D20170112000030SPEAKER ASM                   M IMCTM S9TS02 FTTL  07070IMCT  S9 PTB  00015                    2100 SR        000000000000 FUJITSU TEN (THAILAN17034PU0019019                                                                                                                              *          20170109IMF1701095.TXT
MDEDH1225078201701                D89828070300PT4D20170113000030SPEAKER ASM                   M IMCTM S9TS02 FTTL  07070IMCT  S9 PTB  00015                    0900 SR        000000000000 FUJITSU TEN (THAILAN17034PU0020020                                                                                                                              *          20170109IMF1701095.TXT
MDEDH1225079201701                D89828070300PT4D20170113000060SPEAKER ASM                   M IMCTM S9TS02 FTTL  07070IMCT  S9 PTB  00015                    1600 SR        000000000000 FUJITSU TEN (THAILAN17024NU000700717034PU0021021                                                                                                                *          20170109IMF1701095.TXT
MDEDH1225080201701                D89829622400PT1D20170113000015RADIO;ASM DVD                 M IMCTM S5NC06 FTTL  07070IMCT  S5 PTB  00003                    1600 SR        000000000000 FUJITSU TEN (THAILAN17008ML0002002                                                                                                                              *          20170109IMF1701095.TXT
MDEDH1225081201701                D89829645700PT1D20170113000015RADIO;ASM DVD                 M IMCTM S5NC06 FTTL  07070IMCT  S5 X    00003                    1300 SR        000000000000 FUJITSU TEN (THAILAN17058NL0002002                                                                                                                              *          20170109IMF1701095.TXT
MDEDH1225082201701                D89829645700PT1D20170113000015RADIO;ASM DVD                 M IMCTM S5NC06 FTTL  07070IMCT  S5 X    00003                    1600 SR        000000000000 FUJITSU TEN (THAILAN17055NL0007007                                                                                                                              *          20170109IMF1701095.TXT
MDEDH1225083201701                D89831228400PT1D20170112000015RADIO;AM/FM,CD                M IMCTM S5NC06 FTTL  07070IMCT  S5 CPB  00003                    2230 SR        000000000000 FUJITSU TEN (THAILAN17043PL0001001                                                                                                                              *          20170109IMF1701095.TXT
MDEDH1225084201701                D89831228800PT1D20170113000030RADIO;AM/FM,CD                M IMCTM S5NC06 FTTL  07070IMCT  S5 PTB  00003                    0900 SR        000000000000 FUJITSU TEN (THAILAN17001NL0003004                                                                                                                              *          20170109IMF1701095.TXT
MDEUH1211720201701                D89828070100PT4U20170112000030SPEAKER ASM                   M IMCTM S0FL05 FTTL  07070IMCT  S0 PTB  00004                    2230 SR        000000000000 FUJITSU TEN (THAILAN170C16U0098098                                                                                                                              *          20170109IMF1701095.TXT
MDEUH1211721201701                D89828070100PT4U20170113000030SPEAKER ASM                   M IMCTM S0FL05 FTTL  07070IMCT  S0 PTB  00004                    0230 SR        000000000000 FUJITSU TEN (THAILAN170C16U0099099                                                                                                                              *          20170109IMF1701095.TXT
MDEUH1211722201701                D89828070100PT4U20170113000030SPEAKER ASM                   M IMCTM S0FL05 FTTL  07070IMCT  S0 PTB  00004                    0400 SR        000000000000 FUJITSU TEN (THAILAN170C09U0036036                                                                                                                              *          20170109IMF1701095.TXT
MDEUH1211723201701                D89828070100PT4U20170113000030SPEAKER ASM                   M IMCTM S0FL05 FTTL  07070IMCT  S0 PTB  00004                    0900 SR        000000000000 FUJITSU TEN (THAILAN170C47U0010010                                                                                                                              *          20170109IMF1701095.TXT
MDEUH1211724201701                D89828070100PT4U20170113000030SPEAKER ASM                   M IMCTM S0FL05 FTTL  07070IMCT  S0 PTB  00004                    1300 SR        000000000000 FUJITSU TEN (THAILAN170C16U0100100                                                                                                                              *          20170109IMF1701095.TXT
MDEUH1211725201701                D89828070100PT4U20170113000030SPEAKER ASM                   M IMCTM S0FL05 FTTL  07070IMCT  S0 PTB  00004                    1600 SR        000000000000 FUJITSU TEN (THAILAN170C16U0101101                                                                                                                              *          20170109IMF1701095.TXT
MDEUH1211726201701                D89828070200PV4U20170112000030SPEAKER ASM                   M IMCTM S0FR05 FTTL  07070IMCT  S0 PTB  00005                    2230 SR        000000000000 FUJITSU TEN (THAILAN170C16U0098098                                                                                                                              *          20170109IMF1701095.TXT
MDEUH1211727201701                D89828070200PV4U20170113000030SPEAKER ASM                   M IMCTM S0FR05 FTTL  07070IMCT  S0 PTB  00005                    0230 SR        000000000000 FUJITSU TEN (THAILAN170C16U0099099                                                                                                                              *          20170109IMF1701095.TXT
MDEUH1211728201701                D89828070200PV4U20170113000030SPEAKER ASM                   M IMCTM S0FR05 FTTL  07070IMCT  S0 PTB  00005                    0400 SR        000000000000 FUJITSU TEN (THAILAN170C09U0036036                                                                                                                              *          20170109IMF1701095.TXT
MDEUH1211729201701                D89828070200PV4U20170113000030SPEAKER ASM                   M IMCTM S0FR05 FTTL  07070IMCT  S0 PTB  00005                    0900 SR        000000000000 FUJITSU TEN (THAILAN170C47U0010010                                                                                                                              *          20170109IMF1701095.TXT
MDEUH1211730201701                D89828070200PV4U20170113000030SPEAKER ASM                   M IMCTM S0FR05 FTTL  07070IMCT  S0 PTB  00005                    1300 SR        000000000000 FUJITSU TEN (THAILAN170C16U0100100                                                                                                                              *          20170109IMF1701095.TXT
MDEUH1211731201701                D89828070200PV4U20170113000030SPEAKER ASM                   M IMCTM S0FR05 FTTL  07070IMCT  S0 PTB  00005                    1600 SR        000000000000 FUJITSU TEN (THAILAN170C16U0101101                                                                                                                              *          20170109IMF1701095.TXT
MDEUH1211732201701                D89828070300PT4U20170112000030SPEAKER ASM                   M IMCTM S9TS02 FTTL  07070IMCT  S9 PTB  00015                    2230 SR        000000000000 FUJITSU TEN (THAILAN170C16U0098098                                                                                                                              *          20170109IMF1701095.TXT
MDEUH1211733201701                D89828070300PT4U20170113000030SPEAKER ASM                   M IMCTM S9TS02 FTTL  07070IMCT  S9 PTB  00015                    0230 SR        000000000000 FUJITSU TEN (THAILAN170C16U0099099                                                                                                                              *          20170109IMF1701095.TXT
MDEUH1211734201701                D89828070300PT4U20170113000030SPEAKER ASM                   M IMCTM S9TS02 FTTL  07070IMCT  S9 PTB  00015                    0400 SR        000000000000 FUJITSU TEN (THAILAN170C09U0036036                                                                                                                              *          20170109IMF1701095.TXT
MDEUH1211735201701                D89828070300PT4U20170113000030SPEAKER ASM                   M IMCTM S9TS02 FTTL  07070IMCT  S9 PTB  00015                    0900 SR        000000000000 FUJITSU TEN (THAILAN170C47U0010010                                                                                                                              *          20170109IMF1701095.TXT
MDEUH1211736201701                D89828070300PT4U20170113000030SPEAKER ASM                   M IMCTM S9TS02 FTTL  07070IMCT  S9 PTB  00015                    1300 SR        000000000000 FUJITSU TEN (THAILAN170C16U0100100                                                                                                                              *          20170109IMF1701095.TXT
MDEUH1211737201701                D89828070300PT4U20170113000030SPEAKER ASM                   M IMCTM S9TS02 FTTL  07070IMCT  S9 PTB  00015                    1600 SR        000000000000 FUJITSU TEN (THAILAN170C16U0101101                                                                                                                              *          20170109IMF1701095.TXT
