REC2017011320170116ISUZU                              69     
MDDDH1231465201701                D89821984430PT1D20170119000030RADIO;AM/FM,CD                M IMCTM S5NC06 FTTL  07070IMCT  S5 PTB  00005                    0230 SR        000000000000 FUJITSU TEN (THAILAN170KNEL0052052                                                                                                                              *          20170113IMF1701139.TXT
MDDDH1231466201701                D89821984430PT1D20170119000030RADIO;AM/FM,CD                M IMCTM S5NC06 FTTL  07070IMCT  S5 PTB  00005                    1600 SR        000000000000 FUJITSU TEN (THAILAN170KPAL0065065                                                                                                                              *          20170113IMF1701139.TXT
MDDDH1231467201701                D89828070100PV1D20170118000120SPEAKER ASM                   M IMCTM S5MB11 FTTL  07070IMCT  S5 PTB  00004                    2230 SR        000000000000 FUJITSU TEN (THAILAN170KPFL0104104170KRVL0002002                                                                                                                *          20170113IMF1701139.TXT
MDDDH1231468201701                D89828070100PV1D20170119000060SPEAKER ASM                   M IMCTM S5MB11 FTTL  07070IMCT  S5 PTB  00004                    0230 SR        000000000000 FUJITSU TEN (THAILAN170KNEL0052052                                                                                                                              *          20170113IMF1701139.TXT
MDDDH1231469201701                D89828070100PV1D20170119000060SPEAKER ASM                   M IMCTM S5MB11 FTTL  07070IMCT  S5 PTB  00004                    0400 SR        000000000000 FUJITSU TEN (THAILAN170KPFL0105105                                                                                                                              *          20170113IMF1701139.TXT
MDDDH1231470201701                D89828070100PV1D20170119000120SPEAKER ASM                   M IMCTM S5MB11 FTTL  07070IMCT  S5 PTB  00004                    1300 SR        000000000000 FUJITSU TEN (THAILAN170KPFL0106106170KRTL0003003                                                                                                                *          20170113IMF1701139.TXT
MDDDH1231471201701                D89828070100PV1D20170119000060SPEAKER ASM                   M IMCTM S5MB11 FTTL  07070IMCT  S5 PTB  00004                    1600 SR        000000000000 FUJITSU TEN (THAILAN170KPAL0065065                                                                                                                              *          20170113IMF1701139.TXT
MDDDH1231472201701                D89828070200PV1D20170118000060SPEAKER ASM                   M IMCTM S5MA14 FTTL  07070IMCT  S5 PTB  00005                    2230 SR        000000000000 FUJITSU TEN (THAILAN170KRVL0002002                                                                                                                              *          20170113IMF1701139.TXT
MDDDH1231473201701                D89828070200PV1D20170119000060SPEAKER ASM                   M IMCTM S5MA14 FTTL  07070IMCT  S5 PTB  00005                    1300 SR        000000000000 FUJITSU TEN (THAILAN170KRTL0003003                                                                                                                              *          20170113IMF1701139.TXT
MDDDH1231474201701                D89828070300PT1D20170118000120SPEAKER ASM                   M IMCTM S5NB082FTTL  07070IMCT  S5 PTB  00015                    2230 SR        000000000000 FUJITSU TEN (THAILAN170KPFL0104104170KRVL0002002                                                                                                                *          20170113IMF1701139.TXT
MDDDH1231475201701                D89828070300PT1D20170119000060SPEAKER ASM                   M IMCTM S5NB082FTTL  07070IMCT  S5 PTB  00015                    0400 SR        000000000000 FUJITSU TEN (THAILAN170KPFL0105105                                                                                                                              *          20170113IMF1701139.TXT
MDDDH1231476201701                D89828070300PT1D20170119000120SPEAKER ASM                   M IMCTM S5NB082FTTL  07070IMCT  S5 PTB  00015                    1300 SR        000000000000 FUJITSU TEN (THAILAN170KPFL0106106170KRTL0003003                                                                                                                *          20170113IMF1701139.TXT
MDDDH1231477201701                D89829645900PT1D20170119000030RADIO;ASM DVD                 M IMCTM S5NC06 FTTL  07070IMCT  S5 CPB  00003                    1300 SR        000000000000 FUJITSU TEN (THAILAN170KRTL0003003                                                                                                                              *          20170113IMF1701139.TXT
MDDDH1231478201701                D89831228300PT1D20170118000030RADIO;AM/FM,CD                M IMCTM S5NC06 FTTL  07070IMCT  S5 CPB  00003                    2230 SR        000000000000 FUJITSU TEN (THAILAN170KPFL0104104                                                                                                                              *          20170113IMF1701139.TXT
MDDDH1231479201701                D89831228300PT1D20170119000030RADIO;AM/FM,CD                M IMCTM S5NC06 FTTL  07070IMCT  S5 CPB  00003                    0400 SR        000000000000 FUJITSU TEN (THAILAN170KPFL0105105                                                                                                                              *          20170113IMF1701139.TXT
MDDDH1231480201701                D89831228300PT1D20170119000030RADIO;AM/FM,CD                M IMCTM S5NC06 FTTL  07070IMCT  S5 CPB  00003                    1300 SR        000000000000 FUJITSU TEN (THAILAN170KPFL0106106                                                                                                                              *          20170113IMF1701139.TXT
MDEDH1260588201701                D89828070100PV1D20170118000030SPEAKER ASM                   M IMCTM S5MB11 FTTL  07070IMCT  S5 PTB  00004                    2100 SR        000000000000 FUJITSU TEN (THAILAN17076ML0010010                                                                                                                              *          20170113IMF1701139.TXT
MDEDH1260589201701                D89828070100PV1D20170118000030SPEAKER ASM                   M IMCTM S5MB11 FTTL  07070IMCT  S5 PTB  00004                    2230 SR        000000000000 FUJITSU TEN (THAILAN17031ML0007007                                                                                                                              *          20170113IMF1701139.TXT
MDEDH1260590201701                D89828070100PV1D20170119000030SPEAKER ASM                   M IMCTM S5MB11 FTTL  07070IMCT  S5 PTB  00004                    0230 SR        000000000000 FUJITSU TEN (THAILAN17074NL0001001                                                                                                                              *          20170113IMF1701139.TXT
MDEDH1260591201701                D89828070100PV1D20170119000060SPEAKER ASM                   M IMCTM S5MB11 FTTL  07070IMCT  S5 PTB  00004                    0400 SR        000000000000 FUJITSU TEN (THAILAN17074NL0002003                                                                                                                              *          20170113IMF1701139.TXT
MDEDH1260592201701                D89828070100PV1D20170119000060SPEAKER ASM                   M IMCTM S5MB11 FTTL  07070IMCT  S5 PTB  00004                    0900 SR        000000000000 FUJITSU TEN (THAILAN17012ML0005006                                                                                                                              *          20170113IMF1701139.TXT
MDEDH1260593201701                D89828070100PV1D20170119000060SPEAKER ASM                   M IMCTM S5MB11 FTTL  07070IMCT  S5 PTB  00004                    1300 SR        000000000000 FUJITSU TEN (THAILAN17067NL000200217068NL0003003                                                                                                                *          20170113IMF1701139.TXT
MDEDH1260594201701                D89828070100PV1D20170119000060SPEAKER ASM                   M IMCTM S5MB11 FTTL  07070IMCT  S5 PTB  00004                    1600 SR        000000000000 FUJITSU TEN (THAILAN17081NL0002003                                                                                                                              *          20170113IMF1701139.TXT
MDEDH1260595201701                D89828070100PV1D20170119000060SPEAKER ASM                   M IMCTM S5MB11 FTTL  07070IMCT  S5 PTB  00004                    2100 SR        000000000000 FUJITSU TEN (THAILAN17074NL0004005                                                                                                                              *          20170113IMF1701139.TXT
MDEDH1260596201701                D89828070100PV4D20170118000030SPEAKER ASM                   M IMCTM S0FL05 FTTL  07070IMCT  S0 PTB  00004                    2230 SR        000000000000 FUJITSU TEN (THAILAN17060NU0001001                                                                                                                              *          20170113IMF1701139.TXT
MDEDH1260597201701                D89828070100PV4D20170119000030SPEAKER ASM                   M IMCTM S0FL05 FTTL  07070IMCT  S0 PTB  00004                    0900 SR        000000000000 FUJITSU TEN (THAILAN17060NU0002002                                                                                                                              *          20170113IMF1701139.TXT
MDEDH1260598201701                D89828070100PV4D20170119000030SPEAKER ASM                   M IMCTM S0FL05 FTTL  07070IMCT  S0 PTB  00004                    1300 SR        000000000000 FUJITSU TEN (THAILAN17060NU0003003                                                                                                                              *          20170113IMF1701139.TXT
MDEDH1260599201701                D89828070100PV4D20170119000030SPEAKER ASM                   M IMCTM S0FL05 FTTL  07070IMCT  S0 PTB  00004                    1600 SR        000000000000 FUJITSU TEN (THAILAN17074NU0001001                                                                                                                              *          20170113IMF1701139.TXT
MDEDH1260600201701                D89828070200PV1D20170118000030SPEAKER ASM                   M IMCTM S5MA14 FTTL  07070IMCT  S5 PTB  00005                    2230 SR        000000000000 FUJITSU TEN (THAILAN17031ML0007007                                                                                                                              *          20170113IMF1701139.TXT
MDEDH1260601201701                D89828070200PV1D20170119000030SPEAKER ASM                   M IMCTM S5MA14 FTTL  07070IMCT  S5 PTB  00005                    0230 SR        000000000000 FUJITSU TEN (THAILAN17074NL0001001                                                                                                                              *          20170113IMF1701139.TXT
MDEDH1260602201701                D89828070200PV1D20170119000060SPEAKER ASM                   M IMCTM S5MA14 FTTL  07070IMCT  S5 PTB  00005                    0400 SR        000000000000 FUJITSU TEN (THAILAN17074NL0002003                                                                                                                              *          20170113IMF1701139.TXT
MDEDH1260603201701                D89828070200PV1D20170119000060SPEAKER ASM                   M IMCTM S5MA14 FTTL  07070IMCT  S5 PTB  00005                    0900 SR        000000000000 FUJITSU TEN (THAILAN17012ML0005006                                                                                                                              *          20170113IMF1701139.TXT
MDEDH1260604201701                D89828070200PV1D20170119000060SPEAKER ASM                   M IMCTM S5MA14 FTTL  07070IMCT  S5 PTB  00005                    1600 SR        000000000000 FUJITSU TEN (THAILAN17081NL0002003                                                                                                                              *          20170113IMF1701139.TXT
MDEDH1260605201701                D89828070200PV1D20170119000060SPEAKER ASM                   M IMCTM S5MA14 FTTL  07070IMCT  S5 PTB  00005                    2100 SR        000000000000 FUJITSU TEN (THAILAN17074NL0004005                                                                                                                              *          20170113IMF1701139.TXT
MDEDH1260606201701                D89828070200PV4D20170118000030SPEAKER ASM                   M IMCTM S0FR05 FTTL  07070IMCT  S0 PTB  00005                    2230 SR        000000000000 FUJITSU TEN (THAILAN17060NU0001001                                                                                                                              *          20170113IMF1701139.TXT
MDEDH1260607201701                D89828070200PV4D20170119000030SPEAKER ASM                   M IMCTM S0FR05 FTTL  07070IMCT  S0 PTB  00005                    0900 SR        000000000000 FUJITSU TEN (THAILAN17060NU0002002                                                                                                                              *          20170113IMF1701139.TXT
MDEDH1260608201701                D89828070200PV4D20170119000030SPEAKER ASM                   M IMCTM S0FR05 FTTL  07070IMCT  S0 PTB  00005                    1300 SR        000000000000 FUJITSU TEN (THAILAN17060NU0003003                                                                                                                              *          20170113IMF1701139.TXT
MDEDH1260609201701                D89828070200PV4D20170119000030SPEAKER ASM                   M IMCTM S0FR05 FTTL  07070IMCT  S0 PTB  00005                    1600 SR        000000000000 FUJITSU TEN (THAILAN17074NU0001001                                                                                                                              *          20170113IMF1701139.TXT
MDEDH1260610201701                D89828070300PT1D20170118000030SPEAKER ASM                   M IMCTM S5NB082FTTL  07070IMCT  S5 PTB  00015                    2230 SR        000000000000 FUJITSU TEN (THAILAN17031ML0007007                                                                                                                              *          20170113IMF1701139.TXT
MDEDH1260611201701                D89828070300PT1D20170119000030SPEAKER ASM                   M IMCTM S5NB082FTTL  07070IMCT  S5 PTB  00015                    0230 SR        000000000000 FUJITSU TEN (THAILAN17074NL0001001                                                                                                                              *          20170113IMF1701139.TXT
MDEDH1260612201701                D89828070300PT1D20170119000060SPEAKER ASM                   M IMCTM S5NB082FTTL  07070IMCT  S5 PTB  00015                    0400 SR        000000000000 FUJITSU TEN (THAILAN17074NL0002003                                                                                                                              *          20170113IMF1701139.TXT
MDEDH1260613201701                D89828070300PT1D20170119000060SPEAKER ASM                   M IMCTM S5NB082FTTL  07070IMCT  S5 PTB  00015                    0900 SR        000000000000 FUJITSU TEN (THAILAN17012ML0005006                                                                                                                              *          20170113IMF1701139.TXT
MDEDH1260614201701                D89828070300PT1D20170119000060SPEAKER ASM                   M IMCTM S5NB082FTTL  07070IMCT  S5 PTB  00015                    1300 SR        000000000000 FUJITSU TEN (THAILAN17067NL000200217068NL0003003                                                                                                                *          20170113IMF1701139.TXT
MDEDH1260615201701                D89828070300PT1D20170119000060SPEAKER ASM                   M IMCTM S5NB082FTTL  07070IMCT  S5 PTB  00015                    1600 SR        000000000000 FUJITSU TEN (THAILAN17081NL0002003                                                                                                                              *          20170113IMF1701139.TXT
MDEDH1260616201701                D89828070300PT1D20170119000060SPEAKER ASM                   M IMCTM S5NB082FTTL  07070IMCT  S5 PTB  00015                    2100 SR        000000000000 FUJITSU TEN (THAILAN17074NL0004005                                                                                                                              *          20170113IMF1701139.TXT
MDEDH1260617201701                D89828070300PT4D20170118000030SPEAKER ASM                   M IMCTM S9TS02 FTTL  07070IMCT  S9 PTB  00015                    2230 SR        000000000000 FUJITSU TEN (THAILAN17060NU0001001                                                                                                                              *          20170113IMF1701139.TXT
MDEDH1260618201701                D89828070300PT4D20170119000030SPEAKER ASM                   M IMCTM S9TS02 FTTL  07070IMCT  S9 PTB  00015                    0900 SR        000000000000 FUJITSU TEN (THAILAN17060NU0002002                                                                                                                              *          20170113IMF1701139.TXT
MDEDH1260619201701                D89828070300PT4D20170119000030SPEAKER ASM                   M IMCTM S9TS02 FTTL  07070IMCT  S9 PTB  00015                    1300 SR        000000000000 FUJITSU TEN (THAILAN17060NU0003003                                                                                                                              *          20170113IMF1701139.TXT
MDEDH1260620201701                D89828070300PT4D20170119000030SPEAKER ASM                   M IMCTM S9TS02 FTTL  07070IMCT  S9 PTB  00015                    1600 SR        000000000000 FUJITSU TEN (THAILAN17074NU0001001                                                                                                                              *          20170113IMF1701139.TXT
MDEDH1260621201701                D89829645700PT1D20170119000015RADIO;ASM DVD                 M IMCTM S5NC06 FTTL  07070IMCT  S5 X    00003                    0230 SR        000000000000 FUJITSU TEN (THAILAN17074NL0001001                                                                                                                              *          20170113IMF1701139.TXT
MDEDH1260622201701                D89829645700PT1D20170119000030RADIO;ASM DVD                 M IMCTM S5NC06 FTTL  07070IMCT  S5 X    00003                    0400 SR        000000000000 FUJITSU TEN (THAILAN17074NL0002003                                                                                                                              *          20170113IMF1701139.TXT
MDEDH1260623201701                D89829645700PT1D20170119000030RADIO;ASM DVD                 M IMCTM S5NC06 FTTL  07070IMCT  S5 X    00003                    2100 SR        000000000000 FUJITSU TEN (THAILAN17074NL0004005                                                                                                                              *          20170113IMF1701139.TXT
MDEDH1260624201701                D89829645700PT4D20170119000015RADIO;ASM DVD                 M IMCTM S9CO001FTTL  07070IMCT  S9 X    00003                    1600 SR        000000000000 FUJITSU TEN (THAILAN17074NU0001001                                                                                                                              *          20170113IMF1701139.TXT
MDEDH1260625201701                D89831228800PT1D20170119000030RADIO;AM/FM,CD                M IMCTM S5NC06 FTTL  07070IMCT  S5 PTB  00003                    0900 SR        000000000000 FUJITSU TEN (THAILAN17012ML0005006                                                                                                                              *          20170113IMF1701139.TXT
MDEUH1227549201701                D89828070100PT4U20170118000030SPEAKER ASM                   M IMCTM S0FL05 FTTL  07070IMCT  S0 PTB  00004                    2230 SR        000000000000 FUJITSU TEN (THAILAN170C13U0060060                                                                                                                              *          20170113IMF1701139.TXT
MDEUH1227550201701                D89828070100PT4U20170119000030SPEAKER ASM                   M IMCTM S0FL05 FTTL  07070IMCT  S0 PTB  00004                    0230 SR        000000000000 FUJITSU TEN (THAILAN170C09U0041041                                                                                                                              *          20170113IMF1701139.TXT
MDEUH1227551201701                D89828070100PT4U20170119000030SPEAKER ASM                   M IMCTM S0FL05 FTTL  07070IMCT  S0 PTB  00004                    0400 SR        000000000000 FUJITSU TEN (THAILAN170C16U0103103                                                                                                                              *          20170113IMF1701139.TXT
MDEUH1227552201701                D89828070100PT4U20170119000060SPEAKER ASM                   M IMCTM S0FL05 FTTL  07070IMCT  S0 PTB  00004                    0900 SR        000000000000 FUJITSU TEN (THAILAN170C09U0042042170C13U0061061                                                                                                                *          20170113IMF1701139.TXT
MDEUH1227553201701                D89828070100PT4U20170119000060SPEAKER ASM                   M IMCTM S0FL05 FTTL  07070IMCT  S0 PTB  00004                    1600 SR        000000000000 FUJITSU TEN (THAILAN170C13U0062062170C16U0104104                                                                                                                *          20170113IMF1701139.TXT
MDEUH1227554201701                D89828070200PV4U20170118000030SPEAKER ASM                   M IMCTM S0FR05 FTTL  07070IMCT  S0 PTB  00005                    2230 SR        000000000000 FUJITSU TEN (THAILAN170C13U0060060                                                                                                                              *          20170113IMF1701139.TXT
MDEUH1227555201701                D89828070200PV4U20170119000030SPEAKER ASM                   M IMCTM S0FR05 FTTL  07070IMCT  S0 PTB  00005                    0230 SR        000000000000 FUJITSU TEN (THAILAN170C09U0041041                                                                                                                              *          20170113IMF1701139.TXT
MDEUH1227556201701                D89828070200PV4U20170119000030SPEAKER ASM                   M IMCTM S0FR05 FTTL  07070IMCT  S0 PTB  00005                    0400 SR        000000000000 FUJITSU TEN (THAILAN170C16U0103103                                                                                                                              *          20170113IMF1701139.TXT
MDEUH1227557201701                D89828070200PV4U20170119000060SPEAKER ASM                   M IMCTM S0FR05 FTTL  07070IMCT  S0 PTB  00005                    0900 SR        000000000000 FUJITSU TEN (THAILAN170C09U0042042170C13U0061061                                                                                                                *          20170113IMF1701139.TXT
MDEUH1227558201701                D89828070200PV4U20170119000060SPEAKER ASM                   M IMCTM S0FR05 FTTL  07070IMCT  S0 PTB  00005                    1600 SR        000000000000 FUJITSU TEN (THAILAN170C13U0062062170C16U0104104                                                                                                                *          20170113IMF1701139.TXT
MDEUH1227559201701                D89828070300PT4U20170118000030SPEAKER ASM                   M IMCTM S9TS02 FTTL  07070IMCT  S9 PTB  00015                    2230 SR        000000000000 FUJITSU TEN (THAILAN170C13U0060060                                                                                                                              *          20170113IMF1701139.TXT
MDEUH1227560201701                D89828070300PT4U20170119000030SPEAKER ASM                   M IMCTM S9TS02 FTTL  07070IMCT  S9 PTB  00015                    0230 SR        000000000000 FUJITSU TEN (THAILAN170C09U0041041                                                                                                                              *          20170113IMF1701139.TXT
MDEUH1227561201701                D89828070300PT4U20170119000030SPEAKER ASM                   M IMCTM S9TS02 FTTL  07070IMCT  S9 PTB  00015                    0400 SR        000000000000 FUJITSU TEN (THAILAN170C16U0103103                                                                                                                              *          20170113IMF1701139.TXT
MDEUH1227562201701                D89828070300PT4U20170119000060SPEAKER ASM                   M IMCTM S9TS02 FTTL  07070IMCT  S9 PTB  00015                    0900 SR        000000000000 FUJITSU TEN (THAILAN170C09U0042042170C13U0061061                                                                                                                *          20170113IMF1701139.TXT
MDEUH1227563201701                D89828070300PT4U20170119000060SPEAKER ASM                   M IMCTM S9TS02 FTTL  07070IMCT  S9 PTB  00015                    1600 SR        000000000000 FUJITSU TEN (THAILAN170C13U0062062170C16U0104104                                                                                                                *          20170113IMF1701139.TXT
