REC2017012420170124ISUZU                              57     
MDDDH1272054201701                D89821984430PT1D20170127000030RADIO;AM/FM,CD                M IMCTM S5NC06 FTTL  07070IMCT  S5 PTB  00005                    2230 SR        000000000000 FUJITSU TEN (THAILAN170KRAL0027027                                                                                                                              *          20170124IMF1701244.TXT
MDDDH1272055201701                D89821984430PT1D20170128000060RADIO;AM/FM,CD                M IMCTM S5NC06 FTTL  07070IMCT  S5 PTB  00005                    0900 SR        000000000000 FUJITSU TEN (THAILAN170KNDL0066066170KRAL0028028                                                                                                                *          20170124IMF1701244.TXT
MDDDH1272056201701                D89821984430PT1D20170128000030RADIO;AM/FM,CD                M IMCTM S5NC06 FTTL  07070IMCT  S5 PTB  00005                    1300 SR        000000000000 FUJITSU TEN (THAILAN170KNEL0057057                                                                                                                              *          20170124IMF1701244.TXT
MDDDH1272057201701                D89828070100PV1D20170127000120SPEAKER ASM                   M IMCTM S5MB11 FTTL  07070IMCT  S5 PTB  00004                    2230 SR        000000000000 FUJITSU TEN (THAILAN170KNAL0035035170KRAL0027027                                                                                                                *          20170124IMF1701244.TXT
MDDDH1272058201701                D89828070100PV1D20170128000060SPEAKER ASM                   M IMCTM S5MB11 FTTL  07070IMCT  S5 PTB  00004                    0230 SR        000000000000 FUJITSU TEN (THAILAN170KPEL0035035                                                                                                                              *          20170124IMF1701244.TXT
MDDDH1272059201701                D89828070100PV1D20170128000120SPEAKER ASM                   M IMCTM S5MB11 FTTL  07070IMCT  S5 PTB  00004                    0400 SR        000000000000 FUJITSU TEN (THAILAN170KRFL0053053170KRHL0018018                                                                                                                *          20170124IMF1701244.TXT
MDDDH1272060201701                D89828070100PV1D20170128000120SPEAKER ASM                   M IMCTM S5MB11 FTTL  07070IMCT  S5 PTB  00004                    0900 SR        000000000000 FUJITSU TEN (THAILAN170KNDL0066066170KRAL0028028                                                                                                                *          20170124IMF1701244.TXT
MDDDH1272061201701                D89828070100PV1D20170128000120SPEAKER ASM                   M IMCTM S5MB11 FTTL  07070IMCT  S5 PTB  00004                    1300 SR        000000000000 FUJITSU TEN (THAILAN170KNEL0057057170KRJL0023023                                                                                                                *          20170124IMF1701244.TXT
MDDDH1272062201701                D89828070100PV1D20170128000060SPEAKER ASM                   M IMCTM S5MB11 FTTL  07070IMCT  S5 PTB  00004                    1600 SR        000000000000 FUJITSU TEN (THAILAN170KRFL0054054                                                                                                                              *          20170124IMF1701244.TXT
MDDDH1272063201701                D89828070100PV4D20170128000060SPEAKER ASM                   M IMCTM S0FL05 FTTL  07070IMCT  S0 PTB  00004                    0400 SR        000000000000 FUJITSU TEN (THAILAN170KRQU0003003                                                                                                                              *          20170124IMF1701244.TXT
MDDDH1272064201701                D89828070100PV4D20170128000060SPEAKER ASM                   M IMCTM S0FL05 FTTL  07070IMCT  S0 PTB  00004                    1300 SR        000000000000 FUJITSU TEN (THAILAN170KRNU0001001                                                                                                                              *          20170124IMF1701244.TXT
MDDDH1272065201701                D89828070100PV4D20170128000060SPEAKER ASM                   M IMCTM S0FL05 FTTL  07070IMCT  S0 PTB  00004                    2100 SR        000000000000 FUJITSU TEN (THAILAN170KNAU0001001                                                                                                                              *          20170124IMF1701244.TXT
MDDDH1272066201701                D89828070200PV1D20170128000120SPEAKER ASM                   M IMCTM S5MA14 FTTL  07070IMCT  S5 PTB  00005                    0400 SR        000000000000 FUJITSU TEN (THAILAN170KRFL0053053170KRHL0018018                                                                                                                *          20170124IMF1701244.TXT
MDDDH1272067201701                D89828070200PV1D20170128000060SPEAKER ASM                   M IMCTM S5MA14 FTTL  07070IMCT  S5 PTB  00005                    1300 SR        000000000000 FUJITSU TEN (THAILAN170KRJL0023023                                                                                                                              *          20170124IMF1701244.TXT
MDDDH1272068201701                D89828070200PV1D20170128000060SPEAKER ASM                   M IMCTM S5MA14 FTTL  07070IMCT  S5 PTB  00005                    1600 SR        000000000000 FUJITSU TEN (THAILAN170KRFL0054054                                                                                                                              *          20170124IMF1701244.TXT
MDDDH1272069201701                D89828070200PV4D20170128000060SPEAKER ASM                   M IMCTM S0FR05 FTTL  07070IMCT  S0 PTB  00005                    0400 SR        000000000000 FUJITSU TEN (THAILAN170KRQU0003003                                                                                                                              *          20170124IMF1701244.TXT
MDDDH1272070201701                D89828070200PV4D20170128000060SPEAKER ASM                   M IMCTM S0FR05 FTTL  07070IMCT  S0 PTB  00005                    1300 SR        000000000000 FUJITSU TEN (THAILAN170KRNU0001001                                                                                                                              *          20170124IMF1701244.TXT
MDDDH1272071201701                D89828070300PT1D20170128000060SPEAKER ASM                   M IMCTM S5NB082FTTL  07070IMCT  S5 PTB  00015                    0230 SR        000000000000 FUJITSU TEN (THAILAN170KPEL0035035                                                                                                                              *          20170124IMF1701244.TXT
MDDDH1272072201701                D89828070300PT1D20170128000120SPEAKER ASM                   M IMCTM S5NB082FTTL  07070IMCT  S5 PTB  00015                    0400 SR        000000000000 FUJITSU TEN (THAILAN170KRFL0053053170KRHL0018018                                                                                                                *          20170124IMF1701244.TXT
MDDDH1272073201701                D89828070300PT1D20170128000060SPEAKER ASM                   M IMCTM S5NB082FTTL  07070IMCT  S5 PTB  00015                    1300 SR        000000000000 FUJITSU TEN (THAILAN170KRJL0023023                                                                                                                              *          20170124IMF1701244.TXT
MDDDH1272074201701                D89828070300PT1D20170128000060SPEAKER ASM                   M IMCTM S5NB082FTTL  07070IMCT  S5 PTB  00015                    1600 SR        000000000000 FUJITSU TEN (THAILAN170KRFL0054054                                                                                                                              *          20170124IMF1701244.TXT
MDDDH1272075201701                D89828070300PT4D20170128000060SPEAKER ASM                   M IMCTM S9TS02 FTTL  07070IMCT  S9 PTB  00015                    0400 SR        000000000000 FUJITSU TEN (THAILAN170KRQU0003003                                                                                                                              *          20170124IMF1701244.TXT
MDDDH1272076201701                D89828070300PT4D20170128000060SPEAKER ASM                   M IMCTM S9TS02 FTTL  07070IMCT  S9 PTB  00015                    1300 SR        000000000000 FUJITSU TEN (THAILAN170KRNU0001001                                                                                                                              *          20170124IMF1701244.TXT
MDDDH1272077201701                D89829645900PT1D20170128000030RADIO;ASM DVD                 M IMCTM S5NC06 FTTL  07070IMCT  S5 CPB  00003                    0400 SR        000000000000 FUJITSU TEN (THAILAN170KRFL0053053                                                                                                                              *          20170124IMF1701244.TXT
MDDDH1272078201701                D89829645900PT1D20170128000030RADIO;ASM DVD                 M IMCTM S5NC06 FTTL  07070IMCT  S5 CPB  00003                    1600 SR        000000000000 FUJITSU TEN (THAILAN170KRFL0054054                                                                                                                              *          20170124IMF1701244.TXT
MDDDH1272079201701                D89831228300PT1D20170128000030RADIO;AM/FM,CD                M IMCTM S5NC06 FTTL  07070IMCT  S5 CPB  00003                    0230 SR        000000000000 FUJITSU TEN (THAILAN170KPEL0035035                                                                                                                              *          20170124IMF1701244.TXT
MDDDH1272080201701                D89831228400PT4D20170128000030RADIO;AM/FM,CD                M IMCTM S9CO001FTTL  07070IMCT  S9 CPB  00003                    1300 SR        000000000000 FUJITSU TEN (THAILAN170KRNU0001001                                                                                                                              *          20170124IMF1701244.TXT
MDEDH1305665201701                D89805293700PV1D20170127000030SPEAKER ASM                   M IMCTM S5MB11 FTTL  07070IMCT  S5 PTB  00003                    2230 SR        000000000000 FUJITSU TEN (THAILAN15081DL0018018                                                                                                                              *          20170124IMF1701244.TXT
MDEDH1305666201701                D89805293700PV1D20170128000030SPEAKER ASM                   M IMCTM S5MB11 FTTL  07070IMCT  S5 PTB  00003                    0230 SR        000000000000 FUJITSU TEN (THAILAN15081DL0019019                                                                                                                              *          20170124IMF1701244.TXT
MDEDH1305667201701                D89805294000PT1D20170127000030SPEAKER ASM                   M IMCTM S5NB082FTTL  07070IMCT  S5 PTB  00015                    2230 SR        000000000000 FUJITSU TEN (THAILAN15081DL0018018                                                                                                                              *          20170124IMF1701244.TXT
MDEDH1305668201701                D89805294000PT1D20170128000030SPEAKER ASM                   M IMCTM S5NB082FTTL  07070IMCT  S5 PTB  00015                    0230 SR        000000000000 FUJITSU TEN (THAILAN15081DL0019019                                                                                                                              *          20170124IMF1701244.TXT
MDEDH1305669201701                D89805294200PT1D20170127000030SPEAKER ASM                   M IMCTM S5AS011FTTL  07070IMCT  S6 PTB  00030                    2230 SR        000000000000 FUJITSU TEN (THAILAN15081DL0018018                                                                                                                              *          20170124IMF1701244.TXT
MDEDH1305670201701                D89805294200PT1D20170128000030SPEAKER ASM                   M IMCTM S5AS011FTTL  07070IMCT  S6 PTB  00030                    0230 SR        000000000000 FUJITSU TEN (THAILAN15081DL0019019                                                                                                                              *          20170124IMF1701244.TXT
MDEDH1305671201701                D89806470400PT1D20170127000015SPEAKER ASM;RDO,              M IMCTM S5EA18 FTTL  07070IMCT  S6 PTB  00015                    2230 SR        000000000000 FUJITSU TEN (THAILAN15081DL0018018                                                                                                                              *          20170124IMF1701244.TXT
MDEDH1305672201701                D89806470400PT1D20170128000015SPEAKER ASM;RDO,              M IMCTM S5EA18 FTTL  07070IMCT  S6 PTB  00015                    0230 SR        000000000000 FUJITSU TEN (THAILAN15081DL0019019                                                                                                                              *          20170124IMF1701244.TXT
MDEDH1305673201701                D89828070100PV4D20170127000030SPEAKER ASM                   M IMCTM S0FL05 FTTL  07070IMCT  S0 PTB  00004                    2230 SR        000000000000 FUJITSU TEN (THAILAN17079NU0012012                                                                                                                              *          20170124IMF1701244.TXT
MDEDH1305674201701                D89828070200PV4D20170127000030SPEAKER ASM                   M IMCTM S0FR05 FTTL  07070IMCT  S0 PTB  00005                    2230 SR        000000000000 FUJITSU TEN (THAILAN17079NU0012012                                                                                                                              *          20170124IMF1701244.TXT
MDEDH1305675201701                D89828070300PT4D20170127000030SPEAKER ASM                   M IMCTM S9TS02 FTTL  07070IMCT  S9 PTB  00015                    2230 SR        000000000000 FUJITSU TEN (THAILAN17079NU0012012                                                                                                                              *          20170124IMF1701244.TXT
MDEDH1305676201701                D89829645700PT4D20170127000015RADIO;ASM DVD                 M IMCTM S9CO001FTTL  07070IMCT  S9 X    00003                    2230 SR        000000000000 FUJITSU TEN (THAILAN17079NU0012012                                                                                                                              *          20170124IMF1701244.TXT
MDEUH1258150201701                D89828070100PT4U20170127000030SPEAKER ASM                   M IMCTM S0FL05 FTTL  07070IMCT  S0 PTB  00004                    2100 SR        000000000000 FUJITSU TEN (THAILAN170C16U0112112                                                                                                                              *          20170124IMF1701244.TXT
MDEUH1258151201701                D89828070100PT4U20170127000030SPEAKER ASM                   M IMCTM S0FL05 FTTL  07070IMCT  S0 PTB  00004                    2230 SR        000000000000 FUJITSU TEN (THAILAN170C16U0113113                                                                                                                              *          20170124IMF1701244.TXT
MDEUH1258152201701                D89828070100PT4U20170128000030SPEAKER ASM                   M IMCTM S0FL05 FTTL  07070IMCT  S0 PTB  00004                    0230 SR        000000000000 FUJITSU TEN (THAILAN170C47U0011011                                                                                                                              *          20170124IMF1701244.TXT
MDEUH1258153201701                D89828070100PT4U20170128000030SPEAKER ASM                   M IMCTM S0FL05 FTTL  07070IMCT  S0 PTB  00004                    0900 SR        000000000000 FUJITSU TEN (THAILAN170C12U0034034                                                                                                                              *          20170124IMF1701244.TXT
MDEUH1258154201701                D89828070100PT4U20170128000030SPEAKER ASM                   M IMCTM S0FL05 FTTL  07070IMCT  S0 PTB  00004                    1300 SR        000000000000 FUJITSU TEN (THAILAN170C47U0012012                                                                                                                              *          20170124IMF1701244.TXT
MDEUH1258155201701                D89828070100PT4U20170128000030SPEAKER ASM                   M IMCTM S0FL05 FTTL  07070IMCT  S0 PTB  00004                    1600 SR        000000000000 FUJITSU TEN (THAILAN170C16U0114114                                                                                                                              *          20170124IMF1701244.TXT
MDEUH1258156201701                D89828070200PV4U20170127000030SPEAKER ASM                   M IMCTM S0FR05 FTTL  07070IMCT  S0 PTB  00005                    2100 SR        000000000000 FUJITSU TEN (THAILAN170C16U0112112                                                                                                                              *          20170124IMF1701244.TXT
MDEUH1258157201701                D89828070200PV4U20170127000030SPEAKER ASM                   M IMCTM S0FR05 FTTL  07070IMCT  S0 PTB  00005                    2230 SR        000000000000 FUJITSU TEN (THAILAN170C16U0113113                                                                                                                              *          20170124IMF1701244.TXT
MDEUH1258158201701                D89828070200PV4U20170128000030SPEAKER ASM                   M IMCTM S0FR05 FTTL  07070IMCT  S0 PTB  00005                    0230 SR        000000000000 FUJITSU TEN (THAILAN170C47U0011011                                                                                                                              *          20170124IMF1701244.TXT
MDEUH1258159201701                D89828070200PV4U20170128000030SPEAKER ASM                   M IMCTM S0FR05 FTTL  07070IMCT  S0 PTB  00005                    0900 SR        000000000000 FUJITSU TEN (THAILAN170C12U0034034                                                                                                                              *          20170124IMF1701244.TXT
MDEUH1258160201701                D89828070200PV4U20170128000030SPEAKER ASM                   M IMCTM S0FR05 FTTL  07070IMCT  S0 PTB  00005                    1300 SR        000000000000 FUJITSU TEN (THAILAN170C47U0012012                                                                                                                              *          20170124IMF1701244.TXT
MDEUH1258161201701                D89828070200PV4U20170128000030SPEAKER ASM                   M IMCTM S0FR05 FTTL  07070IMCT  S0 PTB  00005                    1600 SR        000000000000 FUJITSU TEN (THAILAN170C16U0114114                                                                                                                              *          20170124IMF1701244.TXT
MDEUH1258162201701                D89828070300PT4U20170127000030SPEAKER ASM                   M IMCTM S9TS02 FTTL  07070IMCT  S9 PTB  00015                    2100 SR        000000000000 FUJITSU TEN (THAILAN170C16U0112112                                                                                                                              *          20170124IMF1701244.TXT
MDEUH1258163201701                D89828070300PT4U20170127000030SPEAKER ASM                   M IMCTM S9TS02 FTTL  07070IMCT  S9 PTB  00015                    2230 SR        000000000000 FUJITSU TEN (THAILAN170C16U0113113                                                                                                                              *          20170124IMF1701244.TXT
MDEUH1258164201701                D89828070300PT4U20170128000030SPEAKER ASM                   M IMCTM S9TS02 FTTL  07070IMCT  S9 PTB  00015                    0230 SR        000000000000 FUJITSU TEN (THAILAN170C47U0011011                                                                                                                              *          20170124IMF1701244.TXT
MDEUH1258165201701                D89828070300PT4U20170128000030SPEAKER ASM                   M IMCTM S9TS02 FTTL  07070IMCT  S9 PTB  00015                    0900 SR        000000000000 FUJITSU TEN (THAILAN170C12U0034034                                                                                                                              *          20170124IMF1701244.TXT
MDEUH1258166201701                D89828070300PT4U20170128000030SPEAKER ASM                   M IMCTM S9TS02 FTTL  07070IMCT  S9 PTB  00015                    1300 SR        000000000000 FUJITSU TEN (THAILAN170C47U0012012                                                                                                                              *          20170124IMF1701244.TXT
MDEUH1258167201701                D89828070300PT4U20170128000030SPEAKER ASM                   M IMCTM S9TS02 FTTL  07070IMCT  S9 PTB  00015                    1600 SR        000000000000 FUJITSU TEN (THAILAN170C16U0114114                                                                                                                              *          20170124IMF1701244.TXT
