REC2017010520170105ISUZU                              69     
MDDDH1201667201701                D89821984430PT1D20170110000030RADIO;AM/FM,CD                M IMCTM S5NC06 FTTL  07070IMCT  S5 PTB  00005                    0900 SR        000000000000 FUJITSU TEN (THAILAN170KNDL0064064                                                                                                                              *          20170105IMF1701054.TXT
MDDDH1201668201701                D89821984430PT1D20170110000030RADIO;AM/FM,CD                M IMCTM S5NC06 FTTL  07070IMCT  S5 PTB  00005                    1600 SR        000000000000 FUJITSU TEN (THAILAN170KPAL0058058                                                                                                                              *          20170105IMF1701054.TXT
MDDDH1201669201701                D89828070100PV1D20170109000060SPEAKER ASM                   M IMCTM S5MB11 FTTL  07070IMCT  S5 PTB  00004                    2100 SR        000000000000 FUJITSU TEN (THAILAN170KPFL0093093                                                                                                                              *          20170105IMF1701054.TXT
MDDDH1201670201701                D89828070100PV1D20170109000120SPEAKER ASM                   M IMCTM S5MB11 FTTL  07070IMCT  S5 PTB  00004                    2230 SR        000000000000 FUJITSU TEN (THAILAN170KPFL0094095                                                                                                                              *          20170105IMF1701054.TXT
MDDDH1201671201701                D89828070100PV1D20170110000060SPEAKER ASM                   M IMCTM S5MB11 FTTL  07070IMCT  S5 PTB  00004                    0900 SR        000000000000 FUJITSU TEN (THAILAN170KNDL0064064                                                                                                                              *          20170105IMF1701054.TXT
MDDDH1201672201701                D89828070100PV1D20170110000060SPEAKER ASM                   M IMCTM S5MB11 FTTL  07070IMCT  S5 PTB  00004                    1300 SR        000000000000 FUJITSU TEN (THAILAN170KRFL0040040                                                                                                                              *          20170105IMF1701054.TXT
MDDDH1201673201701                D89828070100PV1D20170110000120SPEAKER ASM                   M IMCTM S5MB11 FTTL  07070IMCT  S5 PTB  00004                    1600 SR        000000000000 FUJITSU TEN (THAILAN170KPAL0058058170KRCL0015015                                                                                                                *          20170105IMF1701054.TXT
MDDDH1201674201701                D89828070200PV1D20170110000060SPEAKER ASM                   M IMCTM S5MA14 FTTL  07070IMCT  S5 PTB  00005                    1300 SR        000000000000 FUJITSU TEN (THAILAN170KRFL0040040                                                                                                                              *          20170105IMF1701054.TXT
MDDDH1201675201701                D89828070200PV1D20170110000060SPEAKER ASM                   M IMCTM S5MA14 FTTL  07070IMCT  S5 PTB  00005                    1600 SR        000000000000 FUJITSU TEN (THAILAN170KRCL0015015                                                                                                                              *          20170105IMF1701054.TXT
MDDDH1201676201701                D89828070300PT1D20170109000060SPEAKER ASM                   M IMCTM S5NB082FTTL  07070IMCT  S5 PTB  00015                    2100 SR        000000000000 FUJITSU TEN (THAILAN170KPFL0093093                                                                                                                              *          20170105IMF1701054.TXT
MDDDH1201677201701                D89828070300PT1D20170109000120SPEAKER ASM                   M IMCTM S5NB082FTTL  07070IMCT  S5 PTB  00015                    2230 SR        000000000000 FUJITSU TEN (THAILAN170KPFL0094095                                                                                                                              *          20170105IMF1701054.TXT
MDDDH1201678201701                D89828070300PT1D20170110000060SPEAKER ASM                   M IMCTM S5NB082FTTL  07070IMCT  S5 PTB  00015                    1300 SR        000000000000 FUJITSU TEN (THAILAN170KRFL0040040                                                                                                                              *          20170105IMF1701054.TXT
MDDDH1201679201701                D89828070300PT1D20170110000060SPEAKER ASM                   M IMCTM S5NB082FTTL  07070IMCT  S5 PTB  00015                    1600 SR        000000000000 FUJITSU TEN (THAILAN170KRCL0015015                                                                                                                              *          20170105IMF1701054.TXT
MDDDH1201680201701                D89829645900PT1D20170110000030RADIO;ASM DVD                 M IMCTM S5NC06 FTTL  07070IMCT  S5 CPB  00003                    1300 SR        000000000000 FUJITSU TEN (THAILAN170KRFL0040040                                                                                                                              *          20170105IMF1701054.TXT
MDDDH1201681201701                D89831228300PT1D20170109000030RADIO;AM/FM,CD                M IMCTM S5NC06 FTTL  07070IMCT  S5 CPB  00003                    2100 SR        000000000000 FUJITSU TEN (THAILAN170KPFL0093093                                                                                                                              *          20170105IMF1701054.TXT
MDDDH1201682201701                D89831228300PT1D20170109000060RADIO;AM/FM,CD                M IMCTM S5NC06 FTTL  07070IMCT  S5 CPB  00003                    2230 SR        000000000000 FUJITSU TEN (THAILAN170KPFL0094095                                                                                                                              *          20170105IMF1701054.TXT
MDDDH1201683201701                D89831228400PT1D20170110000030RADIO;AM/FM,CD                M IMCTM S5NC06 FTTL  07070IMCT  S5 CPB  00003                    1600 SR        000000000000 FUJITSU TEN (THAILAN170KRCL0015015                                                                                                                              *          20170105IMF1701054.TXT
MDEDH1201902201701                D89805293700PV1D20170110000030SPEAKER ASM                   M IMCTM S5MB11 FTTL  07070IMCT  S5 PTB  00003                    0400 SR        000000000000 FUJITSU TEN (THAILAN15018FL0091091                                                                                                                              *          20170105IMF1701054.TXT
MDEDH1201903201701                D89828070100PV1D20170109000060SPEAKER ASM                   M IMCTM S5MB11 FTTL  07070IMCT  S5 PTB  00004                    2230 SR        000000000000 FUJITSU TEN (THAILAN17079NL0034035                                                                                                                              *          20170105IMF1701054.TXT
MDEDH1201904201701                D89828070100PV1D20170110000030SPEAKER ASM                   M IMCTM S5MB11 FTTL  07070IMCT  S5 PTB  00004                    0230 SR        000000000000 FUJITSU TEN (THAILAN17079NL0036036                                                                                                                              *          20170105IMF1701054.TXT
MDEDH1201905201701                D89828070100PV1D20170110000060SPEAKER ASM                   M IMCTM S5MB11 FTTL  07070IMCT  S5 PTB  00004                    0400 SR        000000000000 FUJITSU TEN (THAILAN17053NL000700717079NL0037037                                                                                                                *          20170105IMF1701054.TXT
MDEDH1201906201701                D89828070100PV1D20170110000060SPEAKER ASM                   M IMCTM S5MB11 FTTL  07070IMCT  S5 PTB  00004                    0900 SR        000000000000 FUJITSU TEN (THAILAN17012ML000200217079NL0038038                                                                                                                *          20170105IMF1701054.TXT
MDEDH1201907201701                D89828070100PV1D20170110000060SPEAKER ASM                   M IMCTM S5MB11 FTTL  07070IMCT  S5 PTB  00004                    1300 SR        000000000000 FUJITSU TEN (THAILAN17073ML0002003                                                                                                                              *          20170105IMF1701054.TXT
MDEDH1201908201701                D89828070100PV1D20170110000090SPEAKER ASM                   M IMCTM S5MB11 FTTL  07070IMCT  S5 PTB  00004                    1600 SR        000000000000 FUJITSU TEN (THAILAN17020ML000500517024NL000300317062NL0002002                                                                                                  *          20170105IMF1701054.TXT
MDEDH1201909201701                D89828070100PV4D20170109000030SPEAKER ASM                   M IMCTM S0FL05 FTTL  07070IMCT  S0 PTB  00004                    2100 SR        000000000000 FUJITSU TEN (THAILAN17034PU0012012                                                                                                                              *          20170105IMF1701054.TXT
MDEDH1201910201701                D89828070100PV4D20170109000030SPEAKER ASM                   M IMCTM S0FL05 FTTL  07070IMCT  S0 PTB  00004                    2230 SR        000000000000 FUJITSU TEN (THAILAN17034PU0013013                                                                                                                              *          20170105IMF1701054.TXT
MDEDH1201911201701                D89828070100PV4D20170110000030SPEAKER ASM                   M IMCTM S0FL05 FTTL  07070IMCT  S0 PTB  00004                    0400 SR        000000000000 FUJITSU TEN (THAILAN17044MU0005005                                                                                                                              *          20170105IMF1701054.TXT
MDEDH1201912201701                D89828070100PV4D20170110000030SPEAKER ASM                   M IMCTM S0FL05 FTTL  07070IMCT  S0 PTB  00004                    0900 SR        000000000000 FUJITSU TEN (THAILAN17034PU0014014                                                                                                                              *          20170105IMF1701054.TXT
MDEDH1201913201701                D89828070100PV4D20170110000030SPEAKER ASM                   M IMCTM S0FL05 FTTL  07070IMCT  S0 PTB  00004                    1300 SR        000000000000 FUJITSU TEN (THAILAN17034PU0015015                                                                                                                              *          20170105IMF1701054.TXT
MDEDH1201914201701                D89828070200PV1D20170109000060SPEAKER ASM                   M IMCTM S5MA14 FTTL  07070IMCT  S5 PTB  00005                    2230 SR        000000000000 FUJITSU TEN (THAILAN17079NL0034035                                                                                                                              *          20170105IMF1701054.TXT
MDEDH1201915201701                D89828070200PV1D20170110000030SPEAKER ASM                   M IMCTM S5MA14 FTTL  07070IMCT  S5 PTB  00005                    0230 SR        000000000000 FUJITSU TEN (THAILAN17079NL0036036                                                                                                                              *          20170105IMF1701054.TXT
MDEDH1201916201701                D89828070200PV1D20170110000030SPEAKER ASM                   M IMCTM S5MA14 FTTL  07070IMCT  S5 PTB  00005                    0400 SR        000000000000 FUJITSU TEN (THAILAN17079NL0037037                                                                                                                              *          20170105IMF1701054.TXT
MDEDH1201917201701                D89828070200PV1D20170110000060SPEAKER ASM                   M IMCTM S5MA14 FTTL  07070IMCT  S5 PTB  00005                    0900 SR        000000000000 FUJITSU TEN (THAILAN17012ML000200217079NL0038038                                                                                                                *          20170105IMF1701054.TXT
MDEDH1201918201701                D89828070200PV1D20170110000060SPEAKER ASM                   M IMCTM S5MA14 FTTL  07070IMCT  S5 PTB  00005                    1600 SR        000000000000 FUJITSU TEN (THAILAN17020ML000500517024NL0003003                                                                                                                *          20170105IMF1701054.TXT
MDEDH1201919201701                D89828070200PV4D20170109000030SPEAKER ASM                   M IMCTM S0FR05 FTTL  07070IMCT  S0 PTB  00005                    2100 SR        000000000000 FUJITSU TEN (THAILAN17034PU0012012                                                                                                                              *          20170105IMF1701054.TXT
MDEDH1201920201701                D89828070200PV4D20170109000030SPEAKER ASM                   M IMCTM S0FR05 FTTL  07070IMCT  S0 PTB  00005                    2230 SR        000000000000 FUJITSU TEN (THAILAN17034PU0013013                                                                                                                              *          20170105IMF1701054.TXT
MDEDH1201921201701                D89828070200PV4D20170110000030SPEAKER ASM                   M IMCTM S0FR05 FTTL  07070IMCT  S0 PTB  00005                    0900 SR        000000000000 FUJITSU TEN (THAILAN17034PU0014014                                                                                                                              *          20170105IMF1701054.TXT
MDEDH1201922201701                D89828070200PV4D20170110000030SPEAKER ASM                   M IMCTM S0FR05 FTTL  07070IMCT  S0 PTB  00005                    1300 SR        000000000000 FUJITSU TEN (THAILAN17034PU0015015                                                                                                                              *          20170105IMF1701054.TXT
MDEDH1201923201701                D89828070300PT1D20170109000060SPEAKER ASM                   M IMCTM S5NB082FTTL  07070IMCT  S5 PTB  00015                    2230 SR        000000000000 FUJITSU TEN (THAILAN17079NL0034035                                                                                                                              *          20170105IMF1701054.TXT
MDEDH1201924201701                D89828070300PT1D20170110000030SPEAKER ASM                   M IMCTM S5NB082FTTL  07070IMCT  S5 PTB  00015                    0230 SR        000000000000 FUJITSU TEN (THAILAN17079NL0036036                                                                                                                              *          20170105IMF1701054.TXT
MDEDH1201925201701                D89828070300PT1D20170110000060SPEAKER ASM                   M IMCTM S5NB082FTTL  07070IMCT  S5 PTB  00015                    0400 SR        000000000000 FUJITSU TEN (THAILAN17053NL000700717079NL0037037                                                                                                                *          20170105IMF1701054.TXT
MDEDH1201926201701                D89828070300PT1D20170110000060SPEAKER ASM                   M IMCTM S5NB082FTTL  07070IMCT  S5 PTB  00015                    0900 SR        000000000000 FUJITSU TEN (THAILAN17012ML000200217079NL0038038                                                                                                                *          20170105IMF1701054.TXT
MDEDH1201927201701                D89828070300PT1D20170110000060SPEAKER ASM                   M IMCTM S5NB082FTTL  07070IMCT  S5 PTB  00015                    1300 SR        000000000000 FUJITSU TEN (THAILAN17073ML0002003                                                                                                                              *          20170105IMF1701054.TXT
MDEDH1201928201701                D89828070300PT1D20170110000090SPEAKER ASM                   M IMCTM S5NB082FTTL  07070IMCT  S5 PTB  00015                    1600 SR        000000000000 FUJITSU TEN (THAILAN17020ML000500517024NL000300317062NL0002002                                                                                                  *          20170105IMF1701054.TXT
MDEDH1201929201701                D89828070300PT4D20170109000030SPEAKER ASM                   M IMCTM S9TS02 FTTL  07070IMCT  S9 PTB  00015                    2100 SR        000000000000 FUJITSU TEN (THAILAN17034PU0012012                                                                                                                              *          20170105IMF1701054.TXT
MDEDH1201930201701                D89828070300PT4D20170109000030SPEAKER ASM                   M IMCTM S9TS02 FTTL  07070IMCT  S9 PTB  00015                    2230 SR        000000000000 FUJITSU TEN (THAILAN17034PU0013013                                                                                                                              *          20170105IMF1701054.TXT
MDEDH1201931201701                D89828070300PT4D20170110000030SPEAKER ASM                   M IMCTM S9TS02 FTTL  07070IMCT  S9 PTB  00015                    0900 SR        000000000000 FUJITSU TEN (THAILAN17034PU0014014                                                                                                                              *          20170105IMF1701054.TXT
MDEDH1201932201701                D89828070300PT4D20170110000030SPEAKER ASM                   M IMCTM S9TS02 FTTL  07070IMCT  S9 PTB  00015                    1300 SR        000000000000 FUJITSU TEN (THAILAN17034PU0015015                                                                                                                              *          20170105IMF1701054.TXT
MDEDH1201933201701                D89829645700PT1D20170109000030RADIO;ASM DVD                 M IMCTM S5NC06 FTTL  07070IMCT  S5 X    00003                    2230 SR        000000000000 FUJITSU TEN (THAILAN17079NL0034035                                                                                                                              *          20170105IMF1701054.TXT
MDEDH1201934201701                D89829645700PT1D20170110000015RADIO;ASM DVD                 M IMCTM S5NC06 FTTL  07070IMCT  S5 X    00003                    0230 SR        000000000000 FUJITSU TEN (THAILAN17079NL0036036                                                                                                                              *          20170105IMF1701054.TXT
MDEDH1201935201701                D89829645700PT1D20170110000030RADIO;ASM DVD                 M IMCTM S5NC06 FTTL  07070IMCT  S5 X    00003                    0400 SR        000000000000 FUJITSU TEN (THAILAN17053NL000700717079NL0037037                                                                                                                *          20170105IMF1701054.TXT
MDEDH1201936201701                D89829645700PT1D20170110000015RADIO;ASM DVD                 M IMCTM S5NC06 FTTL  07070IMCT  S5 X    00003                    0900 SR        000000000000 FUJITSU TEN (THAILAN17079NL0038038                                                                                                                              *          20170105IMF1701054.TXT
MDEDH1201937201701                D89831228600PT1D20170110000015RADIO;AM/FM,CD                M IMCTM S5NC06 FTTL  07070IMCT  S5 PTB  00003                    1600 SR        000000000000 FUJITSU TEN (THAILAN17062NL0002002                                                                                                                              *          20170105IMF1701054.TXT
MDEDH1201938201701                D89831228800PT1D20170110000015RADIO;AM/FM,CD                M IMCTM S5NC06 FTTL  07070IMCT  S5 PTB  00003                    0900 SR        000000000000 FUJITSU TEN (THAILAN17012ML0002002                                                                                                                              *          20170105IMF1701054.TXT
MDEUH1200780201701                D89828070100PT4U20170109000030SPEAKER ASM                   M IMCTM S0FL05 FTTL  07070IMCT  S0 PTB  00004                    2230 SR        000000000000 FUJITSU TEN (THAILAN170C12U0021021                                                                                                                              *          20170105IMF1701054.TXT
MDEUH1200781201701                D89828070100PT4U20170110000030SPEAKER ASM                   M IMCTM S0FL05 FTTL  07070IMCT  S0 PTB  00004                    0230 SR        000000000000 FUJITSU TEN (THAILAN170C09U0033033                                                                                                                              *          20170105IMF1701054.TXT
MDEUH1200782201701                D89828070100PT4U20170110000030SPEAKER ASM                   M IMCTM S0FL05 FTTL  07070IMCT  S0 PTB  00004                    0900 SR        000000000000 FUJITSU TEN (THAILAN170C16U0094094                                                                                                                              *          20170105IMF1701054.TXT
MDEUH1200783201701                D89828070100PT4U20170110000030SPEAKER ASM                   M IMCTM S0FL05 FTTL  07070IMCT  S0 PTB  00004                    1300 SR        000000000000 FUJITSU TEN (THAILAN170C16U0095095                                                                                                                              *          20170105IMF1701054.TXT
MDEUH1200784201701                D89828070100PT4U20170110000090SPEAKER ASM                   M IMCTM S0FL05 FTTL  07070IMCT  S0 PTB  00004                    1600 SR        000000000000 FUJITSU TEN (THAILAN170C10U0002002170C12U0022022170C47U0007007                                                                                                  *          20170105IMF1701054.TXT
MDEUH1200785201701                D89828070200PV4U20170109000030SPEAKER ASM                   M IMCTM S0FR05 FTTL  07070IMCT  S0 PTB  00005                    2230 SR        000000000000 FUJITSU TEN (THAILAN170C12U0021021                                                                                                                              *          20170105IMF1701054.TXT
MDEUH1200786201701                D89828070200PV4U20170110000030SPEAKER ASM                   M IMCTM S0FR05 FTTL  07070IMCT  S0 PTB  00005                    0230 SR        000000000000 FUJITSU TEN (THAILAN170C09U0033033                                                                                                                              *          20170105IMF1701054.TXT
MDEUH1200787201701                D89828070200PV4U20170110000030SPEAKER ASM                   M IMCTM S0FR05 FTTL  07070IMCT  S0 PTB  00005                    0900 SR        000000000000 FUJITSU TEN (THAILAN170C16U0094094                                                                                                                              *          20170105IMF1701054.TXT
MDEUH1200788201701                D89828070200PV4U20170110000030SPEAKER ASM                   M IMCTM S0FR05 FTTL  07070IMCT  S0 PTB  00005                    1300 SR        000000000000 FUJITSU TEN (THAILAN170C16U0095095                                                                                                                              *          20170105IMF1701054.TXT
MDEUH1200789201701                D89828070200PV4U20170110000090SPEAKER ASM                   M IMCTM S0FR05 FTTL  07070IMCT  S0 PTB  00005                    1600 SR        000000000000 FUJITSU TEN (THAILAN170C10U0002002170C12U0022022170C47U0007007                                                                                                  *          20170105IMF1701054.TXT
MDEUH1200790201701                D89828070300PT4U20170109000030SPEAKER ASM                   M IMCTM S9TS02 FTTL  07070IMCT  S9 PTB  00015                    2230 SR        000000000000 FUJITSU TEN (THAILAN170C12U0021021                                                                                                                              *          20170105IMF1701054.TXT
MDEUH1200791201701                D89828070300PT4U20170110000030SPEAKER ASM                   M IMCTM S9TS02 FTTL  07070IMCT  S9 PTB  00015                    0230 SR        000000000000 FUJITSU TEN (THAILAN170C09U0033033                                                                                                                              *          20170105IMF1701054.TXT
MDEUH1200792201701                D89828070300PT4U20170110000030SPEAKER ASM                   M IMCTM S9TS02 FTTL  07070IMCT  S9 PTB  00015                    0900 SR        000000000000 FUJITSU TEN (THAILAN170C16U0094094                                                                                                                              *          20170105IMF1701054.TXT
MDEUH1200793201701                D89828070300PT4U20170110000030SPEAKER ASM                   M IMCTM S9TS02 FTTL  07070IMCT  S9 PTB  00015                    1300 SR        000000000000 FUJITSU TEN (THAILAN170C16U0095095                                                                                                                              *          20170105IMF1701054.TXT
MDEUH1200794201701                D89828070300PT4U20170110000090SPEAKER ASM                   M IMCTM S9TS02 FTTL  07070IMCT  S9 PTB  00015                    1600 SR        000000000000 FUJITSU TEN (THAILAN170C10U0002002170C12U0022022170C47U0007007                                                                                                  *          20170105IMF1701054.TXT
