REC2017020920170210ISUZU                              68     
MDDDH2235893201702                D89821984430PT1D20170215000030RADIO;AM/FM,CD                M IMCTM S5NC06 FTTL  07070IMCT  S5 PTB  00005                    1300 SR        000000000000 FUJITSU TEN (THAILAN170KNFL0026026                                                                                                                              *          20170209IMF1702097.TXT
MDDDH2235894201702                D89825217900PT1D20170214000030RADIO;AM/FM,CD,D              M IMCTM S5NC06 FTTL  07070IMCT  S5 PTB  00003                    2230 SR        000000000000 FUJITSU TEN (THAILAN170KPJL0038038                                                                                                                              *          20170209IMF1702097.TXT
MDDDH2235895201702                D89828070100PV1D20170214000120SPEAKER ASM                   M IMCTM S5MB11 FTTL  07070IMCT  S5 PTB  00004                    2230 SR        000000000000 FUJITSU TEN (THAILAN170KPJL0038038170KREL0026026                                                                                                                *          20170209IMF1702097.TXT
MDDDH2235896201702                D89828070100PV1D20170215000060SPEAKER ASM                   M IMCTM S5MB11 FTTL  07070IMCT  S5 PTB  00004                    0400 SR        000000000000 FUJITSU TEN (THAILAN170KPHL0022022                                                                                                                              *          20170209IMF1702097.TXT
MDDDH2235897201702                D89828070100PV1D20170215000060SPEAKER ASM                   M IMCTM S5MB11 FTTL  07070IMCT  S5 PTB  00004                    0900 SR        000000000000 FUJITSU TEN (THAILAN170KRFL0058058                                                                                                                              *          20170209IMF1702097.TXT
MDDDH2235898201702                D89828070100PV1D20170215000120SPEAKER ASM                   M IMCTM S5MB11 FTTL  07070IMCT  S5 PTB  00004                    1300 SR        000000000000 FUJITSU TEN (THAILAN170KNFL0026026170KPEL0040040                                                                                                                *          20170209IMF1702097.TXT
MDDDH2235899201702                D89828070100PV1D20170215000060SPEAKER ASM                   M IMCTM S5MB11 FTTL  07070IMCT  S5 PTB  00004                    1600 SR        000000000000 FUJITSU TEN (THAILAN170KREL0027027                                                                                                                              *          20170209IMF1702097.TXT
MDDDH2235900201702                D89828070200PV1D20170214000060SPEAKER ASM                   M IMCTM S5MA14 FTTL  07070IMCT  S5 PTB  00005                    2230 SR        000000000000 FUJITSU TEN (THAILAN170KREL0026026                                                                                                                              *          20170209IMF1702097.TXT
MDDDH2235901201702                D89828070200PV1D20170215000060SPEAKER ASM                   M IMCTM S5MA14 FTTL  07070IMCT  S5 PTB  00005                    0900 SR        000000000000 FUJITSU TEN (THAILAN170KRFL0058058                                                                                                                              *          20170209IMF1702097.TXT
MDDDH2235902201702                D89828070200PV1D20170215000060SPEAKER ASM                   M IMCTM S5MA14 FTTL  07070IMCT  S5 PTB  00005                    1600 SR        000000000000 FUJITSU TEN (THAILAN170KREL0027027                                                                                                                              *          20170209IMF1702097.TXT
MDDDH2235903201702                D89828070300PT1D20170214000120SPEAKER ASM                   M IMCTM S5NB082FTTL  07070IMCT  S5 PTB  00015                    2230 SR        000000000000 FUJITSU TEN (THAILAN170KPJL0038038170KREL0026026                                                                                                                *          20170209IMF1702097.TXT
MDDDH2235904201702                D89828070300PT1D20170215000060SPEAKER ASM                   M IMCTM S5NB082FTTL  07070IMCT  S5 PTB  00015                    0400 SR        000000000000 FUJITSU TEN (THAILAN170KPHL0022022                                                                                                                              *          20170209IMF1702097.TXT
MDDDH2235905201702                D89828070300PT1D20170215000060SPEAKER ASM                   M IMCTM S5NB082FTTL  07070IMCT  S5 PTB  00015                    0900 SR        000000000000 FUJITSU TEN (THAILAN170KRFL0058058                                                                                                                              *          20170209IMF1702097.TXT
MDDDH2235906201702                D89828070300PT1D20170215000060SPEAKER ASM                   M IMCTM S5NB082FTTL  07070IMCT  S5 PTB  00015                    1300 SR        000000000000 FUJITSU TEN (THAILAN170KPEL0040040                                                                                                                              *          20170209IMF1702097.TXT
MDDDH2235907201702                D89828070300PT1D20170215000060SPEAKER ASM                   M IMCTM S5NB082FTTL  07070IMCT  S5 PTB  00015                    1600 SR        000000000000 FUJITSU TEN (THAILAN170KREL0027027                                                                                                                              *          20170209IMF1702097.TXT
MDDDH2235908201702                D89829645900PT1D20170215000030RADIO;ASM DVD                 M IMCTM S5NC06 FTTL  07070IMCT  S5 CPB  00003                    0900 SR        000000000000 FUJITSU TEN (THAILAN170KRFL0058058                                                                                                                              *          20170209IMF1702097.TXT
MDDDH2235909201702                D89831228300PT1D20170215000030RADIO;AM/FM,CD                M IMCTM S5NC06 FTTL  07070IMCT  S5 CPB  00003                    0400 SR        000000000000 FUJITSU TEN (THAILAN170KPHL0022022                                                                                                                              *          20170209IMF1702097.TXT
MDDDH2235910201702                D89831228300PT1D20170215000030RADIO;AM/FM,CD                M IMCTM S5NC06 FTTL  07070IMCT  S5 CPB  00003                    1300 SR        000000000000 FUJITSU TEN (THAILAN170KPEL0040040                                                                                                                              *          20170209IMF1702097.TXT
MDDDH2235911201702                D89831228400PT1D20170214000030RADIO;AM/FM,CD                M IMCTM S5NC06 FTTL  07070IMCT  S5 CPB  00003                    2230 SR        000000000000 FUJITSU TEN (THAILAN170KREL0026026                                                                                                                              *          20170209IMF1702097.TXT
MDDDH2235912201702                D89831228400PT1D20170215000030RADIO;AM/FM,CD                M IMCTM S5NC06 FTTL  07070IMCT  S5 CPB  00003                    1600 SR        000000000000 FUJITSU TEN (THAILAN170KREL0027027                                                                                                                              *          20170209IMF1702097.TXT
MDDUH2206208201702                D89828070100PT4U20170214000030SPEAKER ASM                   M IMCTM S0FL05 FTTL  07070IMCT  S0 PTB  00004                    2230 SR        000000000000 FUJITSU TEN (THAILAN180LUFU0002002                                                                                                                              *          20170209IMF1702097.TXT
MDDUH2206209201702                D89828070100PT4U20170215000030SPEAKER ASM                   M IMCTM S0FL05 FTTL  07070IMCT  S0 PTB  00004                    0230 SR        000000000000 FUJITSU TEN (THAILAN180LUEU0008008                                                                                                                              *          20170209IMF1702097.TXT
MDDUH2206210201702                D89828070100PT4U20170215000060SPEAKER ASM                   M IMCTM S0FL05 FTTL  07070IMCT  S0 PTB  00004                    0900 SR        000000000000 FUJITSU TEN (THAILAN180LUEU0009009180LUFU0003003                                                                                                                *          20170209IMF1702097.TXT
MDDUH2206211201702                D89828070100PT4U20170215000030SPEAKER ASM                   M IMCTM S0FL05 FTTL  07070IMCT  S0 PTB  00004                    1300 SR        000000000000 FUJITSU TEN (THAILAN180LUEU0010010                                                                                                                              *          20170209IMF1702097.TXT
MDDUH2206212201702                D89828070100PT4U20170215000030SPEAKER ASM                   M IMCTM S0FL05 FTTL  07070IMCT  S0 PTB  00004                    1600 SR        000000000000 FUJITSU TEN (THAILAN180LUEU0011011                                                                                                                              *          20170209IMF1702097.TXT
MDDUH2206213201702                D89828070200PV4U20170214000030SPEAKER ASM                   M IMCTM S0FR05 FTTL  07070IMCT  S0 PTB  00005                    2230 SR        000000000000 FUJITSU TEN (THAILAN180LUFU0002002                                                                                                                              *          20170209IMF1702097.TXT
MDDUH2206214201702                D89828070200PV4U20170215000030SPEAKER ASM                   M IMCTM S0FR05 FTTL  07070IMCT  S0 PTB  00005                    0230 SR        000000000000 FUJITSU TEN (THAILAN180LUEU0008008                                                                                                                              *          20170209IMF1702097.TXT
MDDUH2206215201702                D89828070200PV4U20170215000060SPEAKER ASM                   M IMCTM S0FR05 FTTL  07070IMCT  S0 PTB  00005                    0900 SR        000000000000 FUJITSU TEN (THAILAN180LUEU0009009180LUFU0003003                                                                                                                *          20170209IMF1702097.TXT
MDDUH2206216201702                D89828070200PV4U20170215000030SPEAKER ASM                   M IMCTM S0FR05 FTTL  07070IMCT  S0 PTB  00005                    1300 SR        000000000000 FUJITSU TEN (THAILAN180LUEU0010010                                                                                                                              *          20170209IMF1702097.TXT
MDDUH2206217201702                D89828070200PV4U20170215000030SPEAKER ASM                   M IMCTM S0FR05 FTTL  07070IMCT  S0 PTB  00005                    1600 SR        000000000000 FUJITSU TEN (THAILAN180LUEU0011011                                                                                                                              *          20170209IMF1702097.TXT
MDDUH2206218201702                D89828070300PT4U20170214000030SPEAKER ASM                   M IMCTM S9TS02 FTTL  07070IMCT  S9 PTB  00015                    2230 SR        000000000000 FUJITSU TEN (THAILAN180LUFU0002002                                                                                                                              *          20170209IMF1702097.TXT
MDDUH2206219201702                D89828070300PT4U20170215000030SPEAKER ASM                   M IMCTM S9TS02 FTTL  07070IMCT  S9 PTB  00015                    0230 SR        000000000000 FUJITSU TEN (THAILAN180LUEU0008008                                                                                                                              *          20170209IMF1702097.TXT
MDDUH2206220201702                D89828070300PT4U20170215000060SPEAKER ASM                   M IMCTM S9TS02 FTTL  07070IMCT  S9 PTB  00015                    0900 SR        000000000000 FUJITSU TEN (THAILAN180LUEU0009009180LUFU0003003                                                                                                                *          20170209IMF1702097.TXT
MDDUH2206221201702                D89828070300PT4U20170215000030SPEAKER ASM                   M IMCTM S9TS02 FTTL  07070IMCT  S9 PTB  00015                    1300 SR        000000000000 FUJITSU TEN (THAILAN180LUEU0010010                                                                                                                              *          20170209IMF1702097.TXT
MDDUH2206222201702                D89828070300PT4U20170215000030SPEAKER ASM                   M IMCTM S9TS02 FTTL  07070IMCT  S9 PTB  00015                    1600 SR        000000000000 FUJITSU TEN (THAILAN180LUEU0011011                                                                                                                              *          20170209IMF1702097.TXT
MDEDH2251973201702                D89828070100PV1D20170214000060SPEAKER ASM                   M IMCTM S5MB11 FTTL  07070IMCT  S5 PTB  00004                    2100 SR        000000000000 FUJITSU TEN (THAILAN17057RL000400417059NL0003003                                                                                                                *          20170209IMF1702097.TXT
MDEDH2251974201702                D89828070100PV1D20170214000060SPEAKER ASM                   M IMCTM S5MB11 FTTL  07070IMCT  S5 PTB  00004                    2230 SR        000000000000 FUJITSU TEN (THAILAN17059NL0004005                                                                                                                              *          20170209IMF1702097.TXT
MDEDH2251975201702                D89828070100PV1D20170215000030SPEAKER ASM                   M IMCTM S5MB11 FTTL  07070IMCT  S5 PTB  00004                    0230 SR        000000000000 FUJITSU TEN (THAILAN17071NL0006006                                                                                                                              *          20170209IMF1702097.TXT
MDEDH2251976201702                D89828070100PV1D20170215000030SPEAKER ASM                   M IMCTM S5MB11 FTTL  07070IMCT  S5 PTB  00004                    0400 SR        000000000000 FUJITSU TEN (THAILAN17075NL0005005                                                                                                                              *          20170209IMF1702097.TXT
MDEDH2251977201702                D89828070100PV1D20170215000060SPEAKER ASM                   M IMCTM S5MB11 FTTL  07070IMCT  S5 PTB  00004                    0900 SR        000000000000 FUJITSU TEN (THAILAN17075PL0016017                                                                                                                              *          20170209IMF1702097.TXT
MDEDH2251978201702                D89828070100PV1D20170215000030SPEAKER ASM                   M IMCTM S5MB11 FTTL  07070IMCT  S5 PTB  00004                    1300 SR        000000000000 FUJITSU TEN (THAILAN17060NL0005005                                                                                                                              *          20170209IMF1702097.TXT
MDEDH2251979201702                D89828070100PV1D20170215000120SPEAKER ASM                   M IMCTM S5MB11 FTTL  07070IMCT  S5 PTB  00004                    1600 SR        000000000000 FUJITSU TEN (THAILAN17050ML000600717083ML0009010                                                                                                                *          20170209IMF1702097.TXT
MDEDH2251980201702                D89828070100PV4D20170214000060SPEAKER ASM                   M IMCTM S0FL05 FTTL  07070IMCT  S0 PTB  00004                    2230 SR        000000000000 FUJITSU TEN (THAILAN17075PU001301317080NU0012012                                                                                                                *          20170209IMF1702097.TXT
MDEDH2251981201702                D89828070100PV4D20170215000030SPEAKER ASM                   M IMCTM S0FL05 FTTL  07070IMCT  S0 PTB  00004                    0900 SR        000000000000 FUJITSU TEN (THAILAN17080NU0013013                                                                                                                              *          20170209IMF1702097.TXT
MDEDH2251982201702                D89828070100PV4D20170215000030SPEAKER ASM                   M IMCTM S0FL05 FTTL  07070IMCT  S0 PTB  00004                    1600 SR        000000000000 FUJITSU TEN (THAILAN17075PU0014014                                                                                                                              *          20170209IMF1702097.TXT
MDEDH2251983201702                D89828070200PV1D20170214000030SPEAKER ASM                   M IMCTM S5MA14 FTTL  07070IMCT  S5 PTB  00005                    2100 SR        000000000000 FUJITSU TEN (THAILAN17059NL0003003                                                                                                                              *          20170209IMF1702097.TXT
MDEDH2251984201702                D89828070200PV1D20170214000060SPEAKER ASM                   M IMCTM S5MA14 FTTL  07070IMCT  S5 PTB  00005                    2230 SR        000000000000 FUJITSU TEN (THAILAN17059NL0004005                                                                                                                              *          20170209IMF1702097.TXT
MDEDH2251985201702                D89828070200PV1D20170215000030SPEAKER ASM                   M IMCTM S5MA14 FTTL  07070IMCT  S5 PTB  00005                    0230 SR        000000000000 FUJITSU TEN (THAILAN17071NL0006006                                                                                                                              *          20170209IMF1702097.TXT
MDEDH2251986201702                D89828070200PV1D20170215000030SPEAKER ASM                   M IMCTM S5MA14 FTTL  07070IMCT  S5 PTB  00005                    0400 SR        000000000000 FUJITSU TEN (THAILAN17075NL0005005                                                                                                                              *          20170209IMF1702097.TXT
MDEDH2251987201702                D89828070200PV1D20170215000030SPEAKER ASM                   M IMCTM S5MA14 FTTL  07070IMCT  S5 PTB  00005                    1300 SR        000000000000 FUJITSU TEN (THAILAN17060NL0005005                                                                                                                              *          20170209IMF1702097.TXT
MDEDH2251988201702                D89828070200PV4D20170214000030SPEAKER ASM                   M IMCTM S0FR05 FTTL  07070IMCT  S0 PTB  00005                    2230 SR        000000000000 FUJITSU TEN (THAILAN17080NU0012012                                                                                                                              *          20170209IMF1702097.TXT
MDEDH2251989201702                D89828070200PV4D20170215000030SPEAKER ASM                   M IMCTM S0FR05 FTTL  07070IMCT  S0 PTB  00005                    0900 SR        000000000000 FUJITSU TEN (THAILAN17080NU0013013                                                                                                                              *          20170209IMF1702097.TXT
MDEDH2251990201702                D89828070300PT1D20170214000030SPEAKER ASM                   M IMCTM S5NB082FTTL  07070IMCT  S5 PTB  00015                    2100 SR        000000000000 FUJITSU TEN (THAILAN17059NL0003003                                                                                                                              *          20170209IMF1702097.TXT
MDEDH2251991201702                D89828070300PT1D20170214000060SPEAKER ASM                   M IMCTM S5NB082FTTL  07070IMCT  S5 PTB  00015                    2230 SR        000000000000 FUJITSU TEN (THAILAN17059NL0004005                                                                                                                              *          20170209IMF1702097.TXT
MDEDH2251992201702                D89828070300PT1D20170215000030SPEAKER ASM                   M IMCTM S5NB082FTTL  07070IMCT  S5 PTB  00015                    0230 SR        000000000000 FUJITSU TEN (THAILAN17071NL0006006                                                                                                                              *          20170209IMF1702097.TXT
MDEDH2251993201702                D89828070300PT1D20170215000030SPEAKER ASM                   M IMCTM S5NB082FTTL  07070IMCT  S5 PTB  00015                    0400 SR        000000000000 FUJITSU TEN (THAILAN17075NL0005005                                                                                                                              *          20170209IMF1702097.TXT
MDEDH2251994201702                D89828070300PT1D20170215000030SPEAKER ASM                   M IMCTM S5NB082FTTL  07070IMCT  S5 PTB  00015                    1300 SR        000000000000 FUJITSU TEN (THAILAN17060NL0005005                                                                                                                              *          20170209IMF1702097.TXT
MDEDH2251995201702                D89828070300PT1D20170215000060SPEAKER ASM                   M IMCTM S5NB082FTTL  07070IMCT  S5 PTB  00015                    1600 SR        000000000000 FUJITSU TEN (THAILAN17083ML0009010                                                                                                                              *          20170209IMF1702097.TXT
MDEDH2251996201702                D89828070300PT4D20170214000030SPEAKER ASM                   M IMCTM S9TS02 FTTL  07070IMCT  S9 PTB  00015                    2230 SR        000000000000 FUJITSU TEN (THAILAN17080NU0012012                                                                                                                              *          20170209IMF1702097.TXT
MDEDH2251997201702                D89828070300PT4D20170215000030SPEAKER ASM                   M IMCTM S9TS02 FTTL  07070IMCT  S9 PTB  00015                    0900 SR        000000000000 FUJITSU TEN (THAILAN17080NU0013013                                                                                                                              *          20170209IMF1702097.TXT
MDEDH2251998201702                D89829645700PT1D20170215000015RADIO;ASM DVD                 M IMCTM S5NC06 FTTL  07070IMCT  S5 X    00003                    0230 SR        000000000000 FUJITSU TEN (THAILAN17071NL0006006                                                                                                                              *          20170209IMF1702097.TXT
MDEDH2251999201702                D89829645700PT1D20170215000015RADIO;ASM DVD                 M IMCTM S5NC06 FTTL  07070IMCT  S5 X    00003                    0400 SR        000000000000 FUJITSU TEN (THAILAN17075NL0005005                                                                                                                              *          20170209IMF1702097.TXT
MDEUH2217882201702                D89828070100PT4U20170215000030SPEAKER ASM                   M IMCTM S0FL05 FTTL  07070IMCT  S0 PTB  00004                    0400 SR        000000000000 FUJITSU TEN (THAILAN170C16U0149149                                                                                                                              *          20170209IMF1702097.TXT
MDEUH2217883201702                D89828070100PT4U20170215000030SPEAKER ASM                   M IMCTM S0FL05 FTTL  07070IMCT  S0 PTB  00004                    1600 SR        000000000000 FUJITSU TEN (THAILAN170C16U0150150                                                                                                                              *          20170209IMF1702097.TXT
MDEUH2217884201702                D89828070200PV4U20170215000030SPEAKER ASM                   M IMCTM S0FR05 FTTL  07070IMCT  S0 PTB  00005                    0400 SR        000000000000 FUJITSU TEN (THAILAN170C16U0149149                                                                                                                              *          20170209IMF1702097.TXT
MDEUH2217885201702                D89828070200PV4U20170215000030SPEAKER ASM                   M IMCTM S0FR05 FTTL  07070IMCT  S0 PTB  00005                    1600 SR        000000000000 FUJITSU TEN (THAILAN170C16U0150150                                                                                                                              *          20170209IMF1702097.TXT
MDEUH2217886201702                D89828070300PT4U20170215000030SPEAKER ASM                   M IMCTM S9TS02 FTTL  07070IMCT  S9 PTB  00015                    0400 SR        000000000000 FUJITSU TEN (THAILAN170C16U0149149                                                                                                                              *          20170209IMF1702097.TXT
MDEUH2217887201702                D89828070300PT4U20170215000030SPEAKER ASM                   M IMCTM S9TS02 FTTL  07070IMCT  S9 PTB  00015                    1600 SR        000000000000 FUJITSU TEN (THAILAN170C16U0150150                                                                                                                              *          20170209IMF1702097.TXT
