REC2017020720170208ISUZU                              56     
MDDDH2227200201702                D89821984430PT1D20170210000030RADIO;AM/FM,CD                M IMCTM S5NC06 FTTL  07070IMCT  S5 PTB  00005                    2230 SR        000000000000 FUJITSU TEN (THAILAN170KPAL0082082                                                                                                                              *          20170207IMF1702075.TXT
MDDDH2227201201702                D89821984430PT1D20170211000030RADIO;AM/FM,CD                M IMCTM S5NC06 FTTL  07070IMCT  S5 PTB  00005                    0400 SR        000000000000 FUJITSU TEN (THAILAN170KNDL0071071                                                                                                                              *          20170207IMF1702075.TXT
MDDDH2227202201702                D89825217900PT1D20170213000030RADIO;AM/FM,CD,D              M IMCTM S5NC06 FTTL  07070IMCT  S5 PTB  00003                    1300 SR        000000000000 FUJITSU TEN (THAILAN170KPKL0011011                                                                                                                              *          20170207IMF1702075.TXT
MDDDH2227203201702                D89828070100PV1D20170210000120SPEAKER ASM                   M IMCTM S5MB11 FTTL  07070IMCT  S5 PTB  00004                    2230 SR        000000000000 FUJITSU TEN (THAILAN170KPAL0082082170KPFL0127127                                                                                                                *          20170207IMF1702075.TXT
MDDDH2227204201702                D89828070100PV1D20170211000120SPEAKER ASM                   M IMCTM S5MB11 FTTL  07070IMCT  S5 PTB  00004                    0400 SR        000000000000 FUJITSU TEN (THAILAN170KNDL0071071170KRJL0026026                                                                                                                *          20170207IMF1702075.TXT
MDDDH2227205201702                D89828070100PV1D20170213000120SPEAKER ASM                   M IMCTM S5MB11 FTTL  07070IMCT  S5 PTB  00004                    0900 SR        000000000000 FUJITSU TEN (THAILAN170KNAL0039039170KRTL0012012                                                                                                                *          20170207IMF1702075.TXT
MDDDH2227206201702                D89828070100PV1D20170213000060SPEAKER ASM                   M IMCTM S5MB11 FTTL  07070IMCT  S5 PTB  00004                    1300 SR        000000000000 FUJITSU TEN (THAILAN170KPKL0011011                                                                                                                              *          20170207IMF1702075.TXT
MDDDH2227207201702                D89828070100PV1D20170213000060SPEAKER ASM                   M IMCTM S5MB11 FTTL  07070IMCT  S5 PTB  00004                    2100 SR        000000000000 FUJITSU TEN (THAILAN170KREL0025025                                                                                                                              *          20170207IMF1702075.TXT
MDDDH2227208201702                D89828070200PV1D20170211000060SPEAKER ASM                   M IMCTM S5MA14 FTTL  07070IMCT  S5 PTB  00005                    0400 SR        000000000000 FUJITSU TEN (THAILAN170KRJL0026026                                                                                                                              *          20170207IMF1702075.TXT
MDDDH2227209201702                D89828070200PV1D20170213000060SPEAKER ASM                   M IMCTM S5MA14 FTTL  07070IMCT  S5 PTB  00005                    0900 SR        000000000000 FUJITSU TEN (THAILAN170KRTL0012012                                                                                                                              *          20170207IMF1702075.TXT
MDDDH2227210201702                D89828070200PV1D20170213000060SPEAKER ASM                   M IMCTM S5MA14 FTTL  07070IMCT  S5 PTB  00005                    2100 SR        000000000000 FUJITSU TEN (THAILAN170KREL0025025                                                                                                                              *          20170207IMF1702075.TXT
MDDDH2227211201702                D89828070300PT1D20170210000060SPEAKER ASM                   M IMCTM S5NB082FTTL  07070IMCT  S5 PTB  00015                    2230 SR        000000000000 FUJITSU TEN (THAILAN170KPFL0127127                                                                                                                              *          20170207IMF1702075.TXT
MDDDH2227212201702                D89828070300PT1D20170211000060SPEAKER ASM                   M IMCTM S5NB082FTTL  07070IMCT  S5 PTB  00015                    0400 SR        000000000000 FUJITSU TEN (THAILAN170KRJL0026026                                                                                                                              *          20170207IMF1702075.TXT
MDDDH2227213201702                D89828070300PT1D20170213000060SPEAKER ASM                   M IMCTM S5NB082FTTL  07070IMCT  S5 PTB  00015                    0900 SR        000000000000 FUJITSU TEN (THAILAN170KRTL0012012                                                                                                                              *          20170207IMF1702075.TXT
MDDDH2227214201702                D89828070300PT1D20170213000060SPEAKER ASM                   M IMCTM S5NB082FTTL  07070IMCT  S5 PTB  00015                    1300 SR        000000000000 FUJITSU TEN (THAILAN170KPKL0011011                                                                                                                              *          20170207IMF1702075.TXT
MDDDH2227215201702                D89828070300PT1D20170213000060SPEAKER ASM                   M IMCTM S5NB082FTTL  07070IMCT  S5 PTB  00015                    2100 SR        000000000000 FUJITSU TEN (THAILAN170KREL0025025                                                                                                                              *          20170207IMF1702075.TXT
MDDDH2227216201702                D89829645900PT1D20170213000030RADIO;ASM DVD                 M IMCTM S5NC06 FTTL  07070IMCT  S5 CPB  00003                    0900 SR        000000000000 FUJITSU TEN (THAILAN170KRTL0012012                                                                                                                              *          20170207IMF1702075.TXT
MDDDH2227217201702                D89831228300PT1D20170210000030RADIO;AM/FM,CD                M IMCTM S5NC06 FTTL  07070IMCT  S5 CPB  00003                    2230 SR        000000000000 FUJITSU TEN (THAILAN170KPFL0127127                                                                                                                              *          20170207IMF1702075.TXT
MDDDH2227218201702                D89831228400PT1D20170213000030RADIO;AM/FM,CD                M IMCTM S5NC06 FTTL  07070IMCT  S5 CPB  00003                    2100 SR        000000000000 FUJITSU TEN (THAILAN170KREL0025025                                                                                                                              *          20170207IMF1702075.TXT
MDDUH2200948201702                D89828070100PT4U20170213000030SPEAKER ASM                   M IMCTM S0FL05 FTTL  07070IMCT  S0 PTB  00004                    0900 SR        000000000000 FUJITSU TEN (THAILAN180LUFU0001001                                                                                                                              *          20170207IMF1702075.TXT
MDDUH2200949201702                D89828070100PT4U20170213000030SPEAKER ASM                   M IMCTM S0FL05 FTTL  07070IMCT  S0 PTB  00004                    1300 SR        000000000000 FUJITSU TEN (THAILAN180LUEU0003003                                                                                                                              *          20170207IMF1702075.TXT
MDDUH2200950201702                D89828070200PV4U20170213000030SPEAKER ASM                   M IMCTM S0FR05 FTTL  07070IMCT  S0 PTB  00005                    0900 SR        000000000000 FUJITSU TEN (THAILAN180LUFU0001001                                                                                                                              *          20170207IMF1702075.TXT
MDDUH2200951201702                D89828070200PV4U20170213000030SPEAKER ASM                   M IMCTM S0FR05 FTTL  07070IMCT  S0 PTB  00005                    1300 SR        000000000000 FUJITSU TEN (THAILAN180LUEU0003003                                                                                                                              *          20170207IMF1702075.TXT
MDDUH2200952201702                D89828070300PT4U20170213000030SPEAKER ASM                   M IMCTM S9TS02 FTTL  07070IMCT  S9 PTB  00015                    0900 SR        000000000000 FUJITSU TEN (THAILAN180LUFU0001001                                                                                                                              *          20170207IMF1702075.TXT
MDDUH2200953201702                D89828070300PT4U20170213000030SPEAKER ASM                   M IMCTM S9TS02 FTTL  07070IMCT  S9 PTB  00015                    1300 SR        000000000000 FUJITSU TEN (THAILAN180LUEU0003003                                                                                                                              *          20170207IMF1702075.TXT
MDEDH2235387201702                D89828070100PV1D20170210000060SPEAKER ASM                   M IMCTM S5MB11 FTTL  07070IMCT  S5 PTB  00004                    2100 SR        000000000000 FUJITSU TEN (THAILAN17031NL000500517032NL0003003                                                                                                                *          20170207IMF1702075.TXT
MDEDH2235388201702                D89828070100PV1D20170210000060SPEAKER ASM                   M IMCTM S5MB11 FTTL  07070IMCT  S5 PTB  00004                    2230 SR        000000000000 FUJITSU TEN (THAILAN17075PL0007008                                                                                                                              *          20170207IMF1702075.TXT
MDEDH2235389201702                D89828070100PV1D20170211000030SPEAKER ASM                   M IMCTM S5MB11 FTTL  07070IMCT  S5 PTB  00004                    0230 SR        000000000000 FUJITSU TEN (THAILAN17030NL0001001                                                                                                                              *          20170207IMF1702075.TXT
MDEDH2235390201702                D89828070100PV1D20170213000060SPEAKER ASM                   M IMCTM S5MB11 FTTL  07070IMCT  S5 PTB  00004                    1300 SR        000000000000 FUJITSU TEN (THAILAN17034PL001601617075PL0009009                                                                                                                *          20170207IMF1702075.TXT
MDEDH2235391201702                D89828070100PV1D20170213000030SPEAKER ASM                   M IMCTM S5MB11 FTTL  07070IMCT  S5 PTB  00004                    1600 SR        000000000000 FUJITSU TEN (THAILAN17075PL0010010                                                                                                                              *          20170207IMF1702075.TXT
MDEDH2235392201702                D89828070100PV4D20170210000030SPEAKER ASM                   M IMCTM S0FL05 FTTL  07070IMCT  S0 PTB  00004                    2100 SR        000000000000 FUJITSU TEN (THAILAN17041PU0002002                                                                                                                              *          20170207IMF1702075.TXT
MDEDH2235393201702                D89828070100PV4D20170210000030SPEAKER ASM                   M IMCTM S0FL05 FTTL  07070IMCT  S0 PTB  00004                    2230 SR        000000000000 FUJITSU TEN (THAILAN17071NU0002002                                                                                                                              *          20170207IMF1702075.TXT
MDEDH2235394201702                D89828070100PV4D20170211000030SPEAKER ASM                   M IMCTM S0FL05 FTTL  07070IMCT  S0 PTB  00004                    0400 SR        000000000000 FUJITSU TEN (THAILAN17080NU0008008                                                                                                                              *          20170207IMF1702075.TXT
MDEDH2235395201702                D89828070100PV4D20170213000030SPEAKER ASM                   M IMCTM S0FL05 FTTL  07070IMCT  S0 PTB  00004                    0900 SR        000000000000 FUJITSU TEN (THAILAN17060NU0004004                                                                                                                              *          20170207IMF1702075.TXT
MDEDH2235396201702                D89828070100PV4D20170213000060SPEAKER ASM                   M IMCTM S0FL05 FTTL  07070IMCT  S0 PTB  00004                    1300 SR        000000000000 FUJITSU TEN (THAILAN17079NU001501517080NU0009009                                                                                                                *          20170207IMF1702075.TXT
MDEDH2235397201702                D89828070100PV4D20170213000030SPEAKER ASM                   M IMCTM S0FL05 FTTL  07070IMCT  S0 PTB  00004                    1600 SR        000000000000 FUJITSU TEN (THAILAN17075PU0009009                                                                                                                              *          20170207IMF1702075.TXT
MDEDH2235398201702                D89828070200PV1D20170210000030SPEAKER ASM                   M IMCTM S5MA14 FTTL  07070IMCT  S5 PTB  00005                    2100 SR        000000000000 FUJITSU TEN (THAILAN17032NL0003003                                                                                                                              *          20170207IMF1702075.TXT
MDEDH2235399201702                D89828070200PV1D20170213000030SPEAKER ASM                   M IMCTM S5MA14 FTTL  07070IMCT  S5 PTB  00005                    1300 SR        000000000000 FUJITSU TEN (THAILAN17034PL0016016                                                                                                                              *          20170207IMF1702075.TXT
MDEDH2235400201702                D89828070200PV4D20170210000030SPEAKER ASM                   M IMCTM S0FR05 FTTL  07070IMCT  S0 PTB  00005                    2230 SR        000000000000 FUJITSU TEN (THAILAN17071NU0002002                                                                                                                              *          20170207IMF1702075.TXT
MDEDH2235401201702                D89828070200PV4D20170211000030SPEAKER ASM                   M IMCTM S0FR05 FTTL  07070IMCT  S0 PTB  00005                    0400 SR        000000000000 FUJITSU TEN (THAILAN17080NU0008008                                                                                                                              *          20170207IMF1702075.TXT
MDEDH2235402201702                D89828070200PV4D20170213000030SPEAKER ASM                   M IMCTM S0FR05 FTTL  07070IMCT  S0 PTB  00005                    0900 SR        000000000000 FUJITSU TEN (THAILAN17060NU0004004                                                                                                                              *          20170207IMF1702075.TXT
MDEDH2235403201702                D89828070200PV4D20170213000060SPEAKER ASM                   M IMCTM S0FR05 FTTL  07070IMCT  S0 PTB  00005                    1300 SR        000000000000 FUJITSU TEN (THAILAN17079NU001501517080NU0009009                                                                                                                *          20170207IMF1702075.TXT
MDEDH2235404201702                D89828070300PT1D20170210000030SPEAKER ASM                   M IMCTM S5NB082FTTL  07070IMCT  S5 PTB  00015                    2100 SR        000000000000 FUJITSU TEN (THAILAN17032NL0003003                                                                                                                              *          20170207IMF1702075.TXT
MDEDH2235405201702                D89828070300PT1D20170213000030SPEAKER ASM                   M IMCTM S5NB082FTTL  07070IMCT  S5 PTB  00015                    1300 SR        000000000000 FUJITSU TEN (THAILAN17034PL0016016                                                                                                                              *          20170207IMF1702075.TXT
MDEDH2235406201702                D89828070300PT4D20170210000030SPEAKER ASM                   M IMCTM S9TS02 FTTL  07070IMCT  S9 PTB  00015                    2230 SR        000000000000 FUJITSU TEN (THAILAN17071NU0002002                                                                                                                              *          20170207IMF1702075.TXT
MDEDH2235407201702                D89828070300PT4D20170211000030SPEAKER ASM                   M IMCTM S9TS02 FTTL  07070IMCT  S9 PTB  00015                    0400 SR        000000000000 FUJITSU TEN (THAILAN17080NU0008008                                                                                                                              *          20170207IMF1702075.TXT
MDEDH2235408201702                D89828070300PT4D20170213000030SPEAKER ASM                   M IMCTM S9TS02 FTTL  07070IMCT  S9 PTB  00015                    0900 SR        000000000000 FUJITSU TEN (THAILAN17060NU0004004                                                                                                                              *          20170207IMF1702075.TXT
MDEDH2235409201702                D89828070300PT4D20170213000060SPEAKER ASM                   M IMCTM S9TS02 FTTL  07070IMCT  S9 PTB  00015                    1300 SR        000000000000 FUJITSU TEN (THAILAN17079NU001501517080NU0009009                                                                                                                *          20170207IMF1702075.TXT
MDEDH2235410201702                D89829645700PT4D20170210000015RADIO;ASM DVD                 M IMCTM S9CO001FTTL  07070IMCT  S9 X    00003                    2230 SR        000000000000 FUJITSU TEN (THAILAN17071NU0002002                                                                                                                              *          20170207IMF1702075.TXT
MDEDH2235411201702                D89829645700PT4D20170213000015RADIO;ASM DVD                 M IMCTM S9CO001FTTL  07070IMCT  S9 X    00003                    1300 SR        000000000000 FUJITSU TEN (THAILAN17079NU0015015                                                                                                                              *          20170207IMF1702075.TXT
MDEUH2214912201702                D89828070100PT4U20170210000030SPEAKER ASM                   M IMCTM S0FL05 FTTL  07070IMCT  S0 PTB  00004                    2230 SR        000000000000 FUJITSU TEN (THAILAN170C16U0146146                                                                                                                              *          20170207IMF1702075.TXT
MDEUH2214913201702                D89828070100PT4U20170211000030SPEAKER ASM                   M IMCTM S0FL05 FTTL  07070IMCT  S0 PTB  00004                    0230 SR        000000000000 FUJITSU TEN (THAILAN170C16U0147147                                                                                                                              *          20170207IMF1702075.TXT
MDEUH2214914201702                D89828070200PV4U20170210000030SPEAKER ASM                   M IMCTM S0FR05 FTTL  07070IMCT  S0 PTB  00005                    2230 SR        000000000000 FUJITSU TEN (THAILAN170C16U0146146                                                                                                                              *          20170207IMF1702075.TXT
MDEUH2214915201702                D89828070200PV4U20170211000030SPEAKER ASM                   M IMCTM S0FR05 FTTL  07070IMCT  S0 PTB  00005                    0230 SR        000000000000 FUJITSU TEN (THAILAN170C16U0147147                                                                                                                              *          20170207IMF1702075.TXT
MDEUH2214916201702                D89828070300PT4U20170210000030SPEAKER ASM                   M IMCTM S9TS02 FTTL  07070IMCT  S9 PTB  00015                    2230 SR        000000000000 FUJITSU TEN (THAILAN170C16U0146146                                                                                                                              *          20170207IMF1702075.TXT
MDEUH2214917201702                D89828070300PT4U20170211000030SPEAKER ASM                   M IMCTM S9TS02 FTTL  07070IMCT  S9 PTB  00015                    0230 SR        000000000000 FUJITSU TEN (THAILAN170C16U0147147                                                                                                                              *          20170207IMF1702075.TXT
