REC2017021520170215ISUZU                              54     
MDDDH2252177201702                D89821984430PT1D20170218000030RADIO;AM/FM,CD                M IMCTM S5NC06 FTTL  07070IMCT  S5 PTB  00005                    2100 SR        000000000000 FUJITSU TEN (THAILAN170KNEL0064064                                                                                                                              *          20170215IMF1702155.TXT
MDDDH2252178201702                D89825217900PT1D20170220000030RADIO;AM/FM,CD,D              M IMCTM S5NC06 FTTL  07070IMCT  S5 PTB  00003                    0900 SR        000000000000 FUJITSU TEN (THAILAN170KPJL0041041                                                                                                                              *          20170215IMF1702155.TXT
MDDDH2252179201702                D89828070100PV1D20170218000060SPEAKER ASM                   M IMCTM S5MB11 FTTL  07070IMCT  S5 PTB  00004                    2100 SR        000000000000 FUJITSU TEN (THAILAN170KNEL0064064                                                                                                                              *          20170215IMF1702155.TXT
MDDDH2252180201702                D89828070100PV1D20170218000060SPEAKER ASM                   M IMCTM S5MB11 FTTL  07070IMCT  S5 PTB  00004                    2230 SR        000000000000 FUJITSU TEN (THAILAN170KRFL0060060                                                                                                                              *          20170215IMF1702155.TXT
MDDDH2252181201702                D89828070100PV1D20170219000060SPEAKER ASM                   M IMCTM S5MB11 FTTL  07070IMCT  S5 PTB  00004                    0230 SR        000000000000 FUJITSU TEN (THAILAN170KPFL0132132                                                                                                                              *          20170215IMF1702155.TXT
MDDDH2252182201702                D89828070100PV1D20170220000060SPEAKER ASM                   M IMCTM S5MB11 FTTL  07070IMCT  S5 PTB  00004                    0900 SR        000000000000 FUJITSU TEN (THAILAN170KPJL0041041                                                                                                                              *          20170215IMF1702155.TXT
MDDDH2252183201702                D89828070100PV1D20170220000060SPEAKER ASM                   M IMCTM S5MB11 FTTL  07070IMCT  S5 PTB  00004                    1300 SR        000000000000 FUJITSU TEN (THAILAN170KRJL0030030                                                                                                                              *          20170215IMF1702155.TXT
MDDDH2252184201702                D89828070100PV1D20170220000060SPEAKER ASM                   M IMCTM S5MB11 FTTL  07070IMCT  S5 PTB  00004                    1600 SR        000000000000 FUJITSU TEN (THAILAN170KPFL0133133                                                                                                                              *          20170215IMF1702155.TXT
MDDDH2252185201702                D89828070200PV1D20170218000060SPEAKER ASM                   M IMCTM S5MA14 FTTL  07070IMCT  S5 PTB  00005                    2230 SR        000000000000 FUJITSU TEN (THAILAN170KRFL0060060                                                                                                                              *          20170215IMF1702155.TXT
MDDDH2252186201702                D89828070200PV1D20170220000060SPEAKER ASM                   M IMCTM S5MA14 FTTL  07070IMCT  S5 PTB  00005                    1300 SR        000000000000 FUJITSU TEN (THAILAN170KRJL0030030                                                                                                                              *          20170215IMF1702155.TXT
MDDDH2252187201702                D89828070300PT1D20170218000060SPEAKER ASM                   M IMCTM S5NB082FTTL  07070IMCT  S5 PTB  00015                    2230 SR        000000000000 FUJITSU TEN (THAILAN170KRFL0060060                                                                                                                              *          20170215IMF1702155.TXT
MDDDH2252188201702                D89828070300PT1D20170219000060SPEAKER ASM                   M IMCTM S5NB082FTTL  07070IMCT  S5 PTB  00015                    0230 SR        000000000000 FUJITSU TEN (THAILAN170KPFL0132132                                                                                                                              *          20170215IMF1702155.TXT
MDDDH2252189201702                D89828070300PT1D20170220000060SPEAKER ASM                   M IMCTM S5NB082FTTL  07070IMCT  S5 PTB  00015                    0900 SR        000000000000 FUJITSU TEN (THAILAN170KPJL0041041                                                                                                                              *          20170215IMF1702155.TXT
MDDDH2252190201702                D89828070300PT1D20170220000060SPEAKER ASM                   M IMCTM S5NB082FTTL  07070IMCT  S5 PTB  00015                    1300 SR        000000000000 FUJITSU TEN (THAILAN170KRJL0030030                                                                                                                              *          20170215IMF1702155.TXT
MDDDH2252191201702                D89828070300PT1D20170220000060SPEAKER ASM                   M IMCTM S5NB082FTTL  07070IMCT  S5 PTB  00015                    1600 SR        000000000000 FUJITSU TEN (THAILAN170KPFL0133133                                                                                                                              *          20170215IMF1702155.TXT
MDDDH2252192201702                D89829645900PT1D20170218000030RADIO;ASM DVD                 M IMCTM S5NC06 FTTL  07070IMCT  S5 CPB  00003                    2230 SR        000000000000 FUJITSU TEN (THAILAN170KRFL0060060                                                                                                                              *          20170215IMF1702155.TXT
MDDDH2252193201702                D89831228300PT1D20170219000030RADIO;AM/FM,CD                M IMCTM S5NC06 FTTL  07070IMCT  S5 CPB  00003                    0230 SR        000000000000 FUJITSU TEN (THAILAN170KPFL0132132                                                                                                                              *          20170215IMF1702155.TXT
MDDDH2252194201702                D89831228300PT1D20170220000030RADIO;AM/FM,CD                M IMCTM S5NC06 FTTL  07070IMCT  S5 CPB  00003                    1600 SR        000000000000 FUJITSU TEN (THAILAN170KPFL0133133                                                                                                                              *          20170215IMF1702155.TXT
MDDUH2220447201702                D89828070100PT4U20170219000060SPEAKER ASM                   M IMCTM S0FL05 FTTL  07070IMCT  S0 PTB  00004                    0230 SR        000000000000 FUJITSU TEN (THAILAN180LUDU0009010                                                                                                                              *          20170215IMF1702155.TXT
MDDUH2220448201702                D89828070100PT4U20170220000060SPEAKER ASM                   M IMCTM S0FL05 FTTL  07070IMCT  S0 PTB  00004                    0900 SR        000000000000 FUJITSU TEN (THAILAN180LUDU0011012                                                                                                                              *          20170215IMF1702155.TXT
MDDUH2220449201702                D89828070200PV4U20170219000060SPEAKER ASM                   M IMCTM S0FR05 FTTL  07070IMCT  S0 PTB  00005                    0230 SR        000000000000 FUJITSU TEN (THAILAN180LUDU0009010                                                                                                                              *          20170215IMF1702155.TXT
MDDUH2220450201702                D89828070200PV4U20170220000060SPEAKER ASM                   M IMCTM S0FR05 FTTL  07070IMCT  S0 PTB  00005                    0900 SR        000000000000 FUJITSU TEN (THAILAN180LUDU0011012                                                                                                                              *          20170215IMF1702155.TXT
MDDUH2220451201702                D89828070300PT4U20170219000060SPEAKER ASM                   M IMCTM S9TS02 FTTL  07070IMCT  S9 PTB  00015                    0230 SR        000000000000 FUJITSU TEN (THAILAN180LUDU0009010                                                                                                                              *          20170215IMF1702155.TXT
MDDUH2220452201702                D89828070300PT4U20170220000060SPEAKER ASM                   M IMCTM S9TS02 FTTL  07070IMCT  S9 PTB  00015                    0900 SR        000000000000 FUJITSU TEN (THAILAN180LUDU0011012                                                                                                                              *          20170215IMF1702155.TXT
MDEDH2279202201702                D89828070100PV1D20170218000060SPEAKER ASM                   M IMCTM S5MB11 FTTL  07070IMCT  S5 PTB  00004                    2230 SR        000000000000 FUJITSU TEN (THAILAN17015NL0007008                                                                                                                              *          20170215IMF1702155.TXT
MDEDH2279203201702                D89828070100PV1D20170219000030SPEAKER ASM                   M IMCTM S5MB11 FTTL  07070IMCT  S5 PTB  00004                    0230 SR        000000000000 FUJITSU TEN (THAILAN17071ML0008008                                                                                                                              *          20170215IMF1702155.TXT
MDEDH2279204201702                D89828070100PV1D20170219000090SPEAKER ASM                   M IMCTM S5MB11 FTTL  07070IMCT  S5 PTB  00004                    0400 SR        000000000000 FUJITSU TEN (THAILAN17075PL002002017083ML0013014                                                                                                                *          20170215IMF1702155.TXT
MDEDH2279205201702                D89828070100PV1D20170220000090SPEAKER ASM                   M IMCTM S5MB11 FTTL  07070IMCT  S5 PTB  00004                    0900 SR        000000000000 FUJITSU TEN (THAILAN17015PL000500517057RL000500517075PL0021021                                                                                                  *          20170215IMF1702155.TXT
MDEDH2279206201702                D89828070100PV1D20170220000060SPEAKER ASM                   M IMCTM S5MB11 FTTL  07070IMCT  S5 PTB  00004                    1300 SR        000000000000 FUJITSU TEN (THAILAN17076ML001101117077ML0002002                                                                                                                *          20170215IMF1702155.TXT
MDEDH2279207201702                D89828070100PV4D20170218000030SPEAKER ASM                   M IMCTM S0FL05 FTTL  07070IMCT  S0 PTB  00004                    2100 SR        000000000000 FUJITSU TEN (THAILAN17080NU0017017                                                                                                                              *          20170215IMF1702155.TXT
MDEDH2279208201702                D89828070100PV4D20170218000030SPEAKER ASM                   M IMCTM S0FL05 FTTL  07070IMCT  S0 PTB  00004                    2230 SR        000000000000 FUJITSU TEN (THAILAN17081NU0005005                                                                                                                              *          20170215IMF1702155.TXT
MDEDH2279209201702                D89828070100PV4D20170220000030SPEAKER ASM                   M IMCTM S0FL05 FTTL  07070IMCT  S0 PTB  00004                    0900 SR        000000000000 FUJITSU TEN (THAILAN17080NU0018018                                                                                                                              *          20170215IMF1702155.TXT
MDEDH2279210201702                D89828070200PV1D20170218000060SPEAKER ASM                   M IMCTM S5MA14 FTTL  07070IMCT  S5 PTB  00005                    2230 SR        000000000000 FUJITSU TEN (THAILAN17015NL0007008                                                                                                                              *          20170215IMF1702155.TXT
MDEDH2279211201702                D89828070200PV1D20170220000030SPEAKER ASM                   M IMCTM S5MA14 FTTL  07070IMCT  S5 PTB  00005                    0900 SR        000000000000 FUJITSU TEN (THAILAN17015PL0005005                                                                                                                              *          20170215IMF1702155.TXT
MDEDH2279212201702                D89828070200PV4D20170218000030SPEAKER ASM                   M IMCTM S0FR05 FTTL  07070IMCT  S0 PTB  00005                    2100 SR        000000000000 FUJITSU TEN (THAILAN17080NU0017017                                                                                                                              *          20170215IMF1702155.TXT
MDEDH2279213201702                D89828070200PV4D20170218000030SPEAKER ASM                   M IMCTM S0FR05 FTTL  07070IMCT  S0 PTB  00005                    2230 SR        000000000000 FUJITSU TEN (THAILAN17081NU0005005                                                                                                                              *          20170215IMF1702155.TXT
MDEDH2279214201702                D89828070200PV4D20170220000030SPEAKER ASM                   M IMCTM S0FR05 FTTL  07070IMCT  S0 PTB  00005                    0900 SR        000000000000 FUJITSU TEN (THAILAN17080NU0018018                                                                                                                              *          20170215IMF1702155.TXT
MDEDH2279215201702                D89828070300PT1D20170218000060SPEAKER ASM                   M IMCTM S5NB082FTTL  07070IMCT  S5 PTB  00015                    2230 SR        000000000000 FUJITSU TEN (THAILAN17015NL0007008                                                                                                                              *          20170215IMF1702155.TXT
MDEDH2279216201702                D89828070300PT1D20170219000030SPEAKER ASM                   M IMCTM S5NB082FTTL  07070IMCT  S5 PTB  00015                    0230 SR        000000000000 FUJITSU TEN (THAILAN17071ML0008008                                                                                                                              *          20170215IMF1702155.TXT
MDEDH2279217201702                D89828070300PT1D20170219000060SPEAKER ASM                   M IMCTM S5NB082FTTL  07070IMCT  S5 PTB  00015                    0400 SR        000000000000 FUJITSU TEN (THAILAN17083ML0013014                                                                                                                              *          20170215IMF1702155.TXT
MDEDH2279218201702                D89828070300PT1D20170220000030SPEAKER ASM                   M IMCTM S5NB082FTTL  07070IMCT  S5 PTB  00015                    0900 SR        000000000000 FUJITSU TEN (THAILAN17015PL0005005                                                                                                                              *          20170215IMF1702155.TXT
MDEDH2279219201702                D89828070300PT4D20170218000030SPEAKER ASM                   M IMCTM S9TS02 FTTL  07070IMCT  S9 PTB  00015                    2100 SR        000000000000 FUJITSU TEN (THAILAN17080NU0017017                                                                                                                              *          20170215IMF1702155.TXT
MDEDH2279220201702                D89828070300PT4D20170218000030SPEAKER ASM                   M IMCTM S9TS02 FTTL  07070IMCT  S9 PTB  00015                    2230 SR        000000000000 FUJITSU TEN (THAILAN17081NU0005005                                                                                                                              *          20170215IMF1702155.TXT
MDEDH2279221201702                D89828070300PT4D20170220000030SPEAKER ASM                   M IMCTM S9TS02 FTTL  07070IMCT  S9 PTB  00015                    0900 SR        000000000000 FUJITSU TEN (THAILAN17080NU0018018                                                                                                                              *          20170215IMF1702155.TXT
MDEDH2279222201702                D89829645300PT1D20170220000015RADIO;ASM DVD                 M IMCTM S5NC06 FTTL  07070IMCT  S5 PTB  00003                    0900 SR        000000000000 FUJITSU TEN (THAILAN17015PL0005005                                                                                                                              *          20170215IMF1702155.TXT
MDEUH2227210201702                D89828070100PT4U20170218000030SPEAKER ASM                   M IMCTM S0FL05 FTTL  07070IMCT  S0 PTB  00004                    2230 SR        000000000000 FUJITSU TEN (THAILAN170C16U0161161                                                                                                                              *          20170215IMF1702155.TXT
MDEUH2227211201702                D89828070100PT4U20170220000060SPEAKER ASM                   M IMCTM S0FL05 FTTL  07070IMCT  S0 PTB  00004                    1300 SR        000000000000 FUJITSU TEN (THAILAN170C16U0162163                                                                                                                              *          20170215IMF1702155.TXT
MDEUH2227212201702                D89828070100PT4U20170220000030SPEAKER ASM                   M IMCTM S0FL05 FTTL  07070IMCT  S0 PTB  00004                    1600 SR        000000000000 FUJITSU TEN (THAILAN170C16U0164164                                                                                                                              *          20170215IMF1702155.TXT
MDEUH2227213201702                D89828070200PV4U20170218000030SPEAKER ASM                   M IMCTM S0FR05 FTTL  07070IMCT  S0 PTB  00005                    2230 SR        000000000000 FUJITSU TEN (THAILAN170C16U0161161                                                                                                                              *          20170215IMF1702155.TXT
MDEUH2227214201702                D89828070200PV4U20170220000060SPEAKER ASM                   M IMCTM S0FR05 FTTL  07070IMCT  S0 PTB  00005                    1300 SR        000000000000 FUJITSU TEN (THAILAN170C16U0162163                                                                                                                              *          20170215IMF1702155.TXT
MDEUH2227215201702                D89828070200PV4U20170220000030SPEAKER ASM                   M IMCTM S0FR05 FTTL  07070IMCT  S0 PTB  00005                    1600 SR        000000000000 FUJITSU TEN (THAILAN170C16U0164164                                                                                                                              *          20170215IMF1702155.TXT
MDEUH2227216201702                D89828070300PT4U20170218000030SPEAKER ASM                   M IMCTM S9TS02 FTTL  07070IMCT  S9 PTB  00015                    2230 SR        000000000000 FUJITSU TEN (THAILAN170C16U0161161                                                                                                                              *          20170215IMF1702155.TXT
MDEUH2227217201702                D89828070300PT4U20170220000060SPEAKER ASM                   M IMCTM S9TS02 FTTL  07070IMCT  S9 PTB  00015                    1300 SR        000000000000 FUJITSU TEN (THAILAN170C16U0162163                                                                                                                              *          20170215IMF1702155.TXT
MDEUH2227218201702                D89828070300PT4U20170220000030SPEAKER ASM                   M IMCTM S9TS02 FTTL  07070IMCT  S9 PTB  00015                    1600 SR        000000000000 FUJITSU TEN (THAILAN170C16U0164164                                                                                                                              *          20170215IMF1702155.TXT
