REC2017021020170210ISUZU                              66     
MDDDH2240350201702                D89821984430PT1D20170216000030RADIO;AM/FM,CD                M IMCTM S5NC06 FTTL  07070IMCT  S5 PTB  00005                    0400 SR        000000000000 FUJITSU TEN (THAILAN170KNDL0072072                                                                                                                              *          20170210IMF1702106.TXT
MDDDH2240351201702                D89821984430PT1D20170216000030RADIO;AM/FM,CD                M IMCTM S5NC06 FTTL  07070IMCT  S5 PTB  00005                    1600 SR        000000000000 FUJITSU TEN (THAILAN170KNCL0052052                                                                                                                              *          20170210IMF1702106.TXT
MDDDH2240352201702                D89828070100PV1D20170215000060SPEAKER ASM                   M IMCTM S5MB11 FTTL  07070IMCT  S5 PTB  00004                    2100 SR        000000000000 FUJITSU TEN (THAILAN170KRTL0013013                                                                                                                              *          20170210IMF1702106.TXT
MDDDH2240353201702                D89828070100PV1D20170215000120SPEAKER ASM                   M IMCTM S5MB11 FTTL  07070IMCT  S5 PTB  00004                    2230 SR        000000000000 FUJITSU TEN (THAILAN170KRCL0021021170KRJL0028028                                                                                                                *          20170210IMF1702106.TXT
MDDDH2240354201702                D89828070100PV1D20170216000060SPEAKER ASM                   M IMCTM S5MB11 FTTL  07070IMCT  S5 PTB  00004                    0400 SR        000000000000 FUJITSU TEN (THAILAN170KNDL0072072                                                                                                                              *          20170210IMF1702106.TXT
MDDDH2240355201702                D89828070100PV1D20170216000120SPEAKER ASM                   M IMCTM S5MB11 FTTL  07070IMCT  S5 PTB  00004                    0900 SR        000000000000 FUJITSU TEN (THAILAN170KPFL0129129170KRVL0007007                                                                                                                *          20170210IMF1702106.TXT
MDDDH2240356201702                D89828070100PV1D20170216000060SPEAKER ASM                   M IMCTM S5MB11 FTTL  07070IMCT  S5 PTB  00004                    1300 SR        000000000000 FUJITSU TEN (THAILAN170KNAL0040040                                                                                                                              *          20170210IMF1702106.TXT
MDDDH2240357201702                D89828070100PV1D20170216000120SPEAKER ASM                   M IMCTM S5MB11 FTTL  07070IMCT  S5 PTB  00004                    1600 SR        000000000000 FUJITSU TEN (THAILAN170KNCL0052052170KRFL0059059                                                                                                                *          20170210IMF1702106.TXT
MDDDH2240358201702                D89828070200PV1D20170215000060SPEAKER ASM                   M IMCTM S5MA14 FTTL  07070IMCT  S5 PTB  00005                    2100 SR        000000000000 FUJITSU TEN (THAILAN170KRTL0013013                                                                                                                              *          20170210IMF1702106.TXT
MDDDH2240359201702                D89828070200PV1D20170215000120SPEAKER ASM                   M IMCTM S5MA14 FTTL  07070IMCT  S5 PTB  00005                    2230 SR        000000000000 FUJITSU TEN (THAILAN170KRCL0021021170KRJL0028028                                                                                                                *          20170210IMF1702106.TXT
MDDDH2240360201702                D89828070200PV1D20170216000060SPEAKER ASM                   M IMCTM S5MA14 FTTL  07070IMCT  S5 PTB  00005                    0900 SR        000000000000 FUJITSU TEN (THAILAN170KRVL0007007                                                                                                                              *          20170210IMF1702106.TXT
MDDDH2240361201702                D89828070200PV1D20170216000060SPEAKER ASM                   M IMCTM S5MA14 FTTL  07070IMCT  S5 PTB  00005                    1600 SR        000000000000 FUJITSU TEN (THAILAN170KRFL0059059                                                                                                                              *          20170210IMF1702106.TXT
MDDDH2240362201702                D89828070300PT1D20170215000060SPEAKER ASM                   M IMCTM S5NB082FTTL  07070IMCT  S5 PTB  00015                    2100 SR        000000000000 FUJITSU TEN (THAILAN170KRTL0013013                                                                                                                              *          20170210IMF1702106.TXT
MDDDH2240363201702                D89828070300PT1D20170215000120SPEAKER ASM                   M IMCTM S5NB082FTTL  07070IMCT  S5 PTB  00015                    2230 SR        000000000000 FUJITSU TEN (THAILAN170KRCL0021021170KRJL0028028                                                                                                                *          20170210IMF1702106.TXT
MDDDH2240364201702                D89828070300PT1D20170216000120SPEAKER ASM                   M IMCTM S5NB082FTTL  07070IMCT  S5 PTB  00015                    0900 SR        000000000000 FUJITSU TEN (THAILAN170KPFL0129129170KRVL0007007                                                                                                                *          20170210IMF1702106.TXT
MDDDH2240365201702                D89828070300PT1D20170216000060SPEAKER ASM                   M IMCTM S5NB082FTTL  07070IMCT  S5 PTB  00015                    1600 SR        000000000000 FUJITSU TEN (THAILAN170KRFL0059059                                                                                                                              *          20170210IMF1702106.TXT
MDDDH2240366201702                D89829645900PT1D20170215000030RADIO;ASM DVD                 M IMCTM S5NC06 FTTL  07070IMCT  S5 CPB  00003                    2100 SR        000000000000 FUJITSU TEN (THAILAN170KRTL0013013                                                                                                                              *          20170210IMF1702106.TXT
MDDDH2240367201702                D89829645900PT1D20170216000030RADIO;ASM DVD                 M IMCTM S5NC06 FTTL  07070IMCT  S5 CPB  00003                    1600 SR        000000000000 FUJITSU TEN (THAILAN170KRFL0059059                                                                                                                              *          20170210IMF1702106.TXT
MDDDH2240368201702                D89831228300PT1D20170216000030RADIO;AM/FM,CD                M IMCTM S5NC06 FTTL  07070IMCT  S5 CPB  00003                    0900 SR        000000000000 FUJITSU TEN (THAILAN170KPFL0129129                                                                                                                              *          20170210IMF1702106.TXT
MDDDH2240369201702                D89831228400PT1D20170215000030RADIO;AM/FM,CD                M IMCTM S5NC06 FTTL  07070IMCT  S5 CPB  00003                    2230 SR        000000000000 FUJITSU TEN (THAILAN170KRCL0021021                                                                                                                              *          20170210IMF1702106.TXT
MDDUH2210212201702                D89828070100PT4U20170215000030SPEAKER ASM                   M IMCTM S0FL05 FTTL  07070IMCT  S0 PTB  00004                    2230 SR        000000000000 FUJITSU TEN (THAILAN180LUEU0012012                                                                                                                              *          20170210IMF1702106.TXT
MDDUH2210213201702                D89828070100PT4U20170216000030SPEAKER ASM                   M IMCTM S0FL05 FTTL  07070IMCT  S0 PTB  00004                    0400 SR        000000000000 FUJITSU TEN (THAILAN180LUDU0001001                                                                                                                              *          20170210IMF1702106.TXT
MDDUH2210214201702                D89828070100PT4U20170216000060SPEAKER ASM                   M IMCTM S0FL05 FTTL  07070IMCT  S0 PTB  00004                    0900 SR        000000000000 FUJITSU TEN (THAILAN180LUDU0002002180LUFU0004004                                                                                                                *          20170210IMF1702106.TXT
MDDUH2210215201702                D89828070100PT4U20170216000030SPEAKER ASM                   M IMCTM S0FL05 FTTL  07070IMCT  S0 PTB  00004                    1600 SR        000000000000 FUJITSU TEN (THAILAN180LUEU0013013                                                                                                                              *          20170210IMF1702106.TXT
MDDUH2210216201702                D89828070200PV4U20170215000030SPEAKER ASM                   M IMCTM S0FR05 FTTL  07070IMCT  S0 PTB  00005                    2230 SR        000000000000 FUJITSU TEN (THAILAN180LUEU0012012                                                                                                                              *          20170210IMF1702106.TXT
MDDUH2210217201702                D89828070200PV4U20170216000030SPEAKER ASM                   M IMCTM S0FR05 FTTL  07070IMCT  S0 PTB  00005                    0400 SR        000000000000 FUJITSU TEN (THAILAN180LUDU0001001                                                                                                                              *          20170210IMF1702106.TXT
MDDUH2210218201702                D89828070200PV4U20170216000060SPEAKER ASM                   M IMCTM S0FR05 FTTL  07070IMCT  S0 PTB  00005                    0900 SR        000000000000 FUJITSU TEN (THAILAN180LUDU0002002180LUFU0004004                                                                                                                *          20170210IMF1702106.TXT
MDDUH2210219201702                D89828070200PV4U20170216000030SPEAKER ASM                   M IMCTM S0FR05 FTTL  07070IMCT  S0 PTB  00005                    1600 SR        000000000000 FUJITSU TEN (THAILAN180LUEU0013013                                                                                                                              *          20170210IMF1702106.TXT
MDDUH2210220201702                D89828070300PT4U20170215000030SPEAKER ASM                   M IMCTM S9TS02 FTTL  07070IMCT  S9 PTB  00015                    2230 SR        000000000000 FUJITSU TEN (THAILAN180LUEU0012012                                                                                                                              *          20170210IMF1702106.TXT
MDDUH2210221201702                D89828070300PT4U20170216000030SPEAKER ASM                   M IMCTM S9TS02 FTTL  07070IMCT  S9 PTB  00015                    0400 SR        000000000000 FUJITSU TEN (THAILAN180LUDU0001001                                                                                                                              *          20170210IMF1702106.TXT
MDDUH2210222201702                D89828070300PT4U20170216000060SPEAKER ASM                   M IMCTM S9TS02 FTTL  07070IMCT  S9 PTB  00015                    0900 SR        000000000000 FUJITSU TEN (THAILAN180LUDU0002002180LUFU0004004                                                                                                                *          20170210IMF1702106.TXT
MDDUH2210223201702                D89828070300PT4U20170216000030SPEAKER ASM                   M IMCTM S9TS02 FTTL  07070IMCT  S9 PTB  00015                    1600 SR        000000000000 FUJITSU TEN (THAILAN180LUEU0013013                                                                                                                              *          20170210IMF1702106.TXT
MDEDH2259565201702                D89828070100PV1D20170215000060SPEAKER ASM                   M IMCTM S5MB11 FTTL  07070IMCT  S5 PTB  00004                    2230 SR        000000000000 FUJITSU TEN (THAILAN17064ML0002003                                                                                                                              *          20170210IMF1702106.TXT
MDEDH2259566201702                D89828070100PV1D20170216000030SPEAKER ASM                   M IMCTM S5MB11 FTTL  07070IMCT  S5 PTB  00004                    0230 SR        000000000000 FUJITSU TEN (THAILAN17036PL0001001                                                                                                                              *          20170210IMF1702106.TXT
MDEDH2259567201702                D89828070100PV1D20170216000030SPEAKER ASM                   M IMCTM S5MB11 FTTL  07070IMCT  S5 PTB  00004                    0400 SR        000000000000 FUJITSU TEN (THAILAN17036PL0002002                                                                                                                              *          20170210IMF1702106.TXT
MDEDH2259568201702                D89828070100PV1D20170216000030SPEAKER ASM                   M IMCTM S5MB11 FTTL  07070IMCT  S5 PTB  00004                    0900 SR        000000000000 FUJITSU TEN (THAILAN17005NL0002002                                                                                                                              *          20170210IMF1702106.TXT
MDEDH2259569201702                D89828070100PV1D20170216000030SPEAKER ASM                   M IMCTM S5MB11 FTTL  07070IMCT  S5 PTB  00004                    1300 SR        000000000000 FUJITSU TEN (THAILAN17085ML0007007                                                                                                                              *          20170210IMF1702106.TXT
MDEDH2259570201702                D89828070100PV1D20170216000120SPEAKER ASM                   M IMCTM S5MB11 FTTL  07070IMCT  S5 PTB  00004                    1600 SR        000000000000 FUJITSU TEN (THAILAN17071ML000600717083ML0011012                                                                                                                *          20170210IMF1702106.TXT
MDEDH2259571201702                D89828070100PV4D20170216000030SPEAKER ASM                   M IMCTM S0FL05 FTTL  07070IMCT  S0 PTB  00004                    0400 SR        000000000000 FUJITSU TEN (THAILAN17081NU0003003                                                                                                                              *          20170210IMF1702106.TXT
MDEDH2259572201702                D89828070100PV4D20170216000030SPEAKER ASM                   M IMCTM S0FL05 FTTL  07070IMCT  S0 PTB  00004                    1300 SR        000000000000 FUJITSU TEN (THAILAN17080NU0014014                                                                                                                              *          20170210IMF1702106.TXT
MDEDH2259573201702                D89828070100PV4D20170216000030SPEAKER ASM                   M IMCTM S0FL05 FTTL  07070IMCT  S0 PTB  00004                    1600 SR        000000000000 FUJITSU TEN (THAILAN17080NU0015015                                                                                                                              *          20170210IMF1702106.TXT
MDEDH2259574201702                D89828070200PV1D20170216000030SPEAKER ASM                   M IMCTM S5MA14 FTTL  07070IMCT  S5 PTB  00005                    0230 SR        000000000000 FUJITSU TEN (THAILAN17036PL0001001                                                                                                                              *          20170210IMF1702106.TXT
MDEDH2259575201702                D89828070200PV1D20170216000030SPEAKER ASM                   M IMCTM S5MA14 FTTL  07070IMCT  S5 PTB  00005                    0400 SR        000000000000 FUJITSU TEN (THAILAN17036PL0002002                                                                                                                              *          20170210IMF1702106.TXT
MDEDH2259576201702                D89828070200PV1D20170216000030SPEAKER ASM                   M IMCTM S5MA14 FTTL  07070IMCT  S5 PTB  00005                    0900 SR        000000000000 FUJITSU TEN (THAILAN17005NL0002002                                                                                                                              *          20170210IMF1702106.TXT
MDEDH2259577201702                D89828070200PV1D20170216000030SPEAKER ASM                   M IMCTM S5MA14 FTTL  07070IMCT  S5 PTB  00005                    1300 SR        000000000000 FUJITSU TEN (THAILAN17085ML0007007                                                                                                                              *          20170210IMF1702106.TXT
MDEDH2259578201702                D89828070200PV4D20170216000030SPEAKER ASM                   M IMCTM S0FR05 FTTL  07070IMCT  S0 PTB  00005                    0400 SR        000000000000 FUJITSU TEN (THAILAN17081NU0003003                                                                                                                              *          20170210IMF1702106.TXT
MDEDH2259579201702                D89828070200PV4D20170216000030SPEAKER ASM                   M IMCTM S0FR05 FTTL  07070IMCT  S0 PTB  00005                    1300 SR        000000000000 FUJITSU TEN (THAILAN17080NU0014014                                                                                                                              *          20170210IMF1702106.TXT
MDEDH2259580201702                D89828070200PV4D20170216000030SPEAKER ASM                   M IMCTM S0FR05 FTTL  07070IMCT  S0 PTB  00005                    1600 SR        000000000000 FUJITSU TEN (THAILAN17080NU0015015                                                                                                                              *          20170210IMF1702106.TXT
MDEDH2259581201702                D89828070300PT1D20170215000060SPEAKER ASM                   M IMCTM S5NB082FTTL  07070IMCT  S5 PTB  00015                    2230 SR        000000000000 FUJITSU TEN (THAILAN17064ML0002003                                                                                                                              *          20170210IMF1702106.TXT
MDEDH2259582201702                D89828070300PT1D20170216000030SPEAKER ASM                   M IMCTM S5NB082FTTL  07070IMCT  S5 PTB  00015                    0230 SR        000000000000 FUJITSU TEN (THAILAN17036PL0001001                                                                                                                              *          20170210IMF1702106.TXT
MDEDH2259583201702                D89828070300PT1D20170216000030SPEAKER ASM                   M IMCTM S5NB082FTTL  07070IMCT  S5 PTB  00015                    0400 SR        000000000000 FUJITSU TEN (THAILAN17036PL0002002                                                                                                                              *          20170210IMF1702106.TXT
MDEDH2259584201702                D89828070300PT1D20170216000030SPEAKER ASM                   M IMCTM S5NB082FTTL  07070IMCT  S5 PTB  00015                    0900 SR        000000000000 FUJITSU TEN (THAILAN17005NL0002002                                                                                                                              *          20170210IMF1702106.TXT
MDEDH2259585201702                D89828070300PT1D20170216000030SPEAKER ASM                   M IMCTM S5NB082FTTL  07070IMCT  S5 PTB  00015                    1300 SR        000000000000 FUJITSU TEN (THAILAN17085ML0007007                                                                                                                              *          20170210IMF1702106.TXT
MDEDH2259586201702                D89828070300PT1D20170216000120SPEAKER ASM                   M IMCTM S5NB082FTTL  07070IMCT  S5 PTB  00015                    1600 SR        000000000000 FUJITSU TEN (THAILAN17071ML000600717083ML0011012                                                                                                                *          20170210IMF1702106.TXT
MDEDH2259587201702                D89828070300PT4D20170216000030SPEAKER ASM                   M IMCTM S9TS02 FTTL  07070IMCT  S9 PTB  00015                    0400 SR        000000000000 FUJITSU TEN (THAILAN17081NU0003003                                                                                                                              *          20170210IMF1702106.TXT
MDEDH2259588201702                D89828070300PT4D20170216000030SPEAKER ASM                   M IMCTM S9TS02 FTTL  07070IMCT  S9 PTB  00015                    1300 SR        000000000000 FUJITSU TEN (THAILAN17080NU0014014                                                                                                                              *          20170210IMF1702106.TXT
MDEDH2259589201702                D89828070300PT4D20170216000030SPEAKER ASM                   M IMCTM S9TS02 FTTL  07070IMCT  S9 PTB  00015                    1600 SR        000000000000 FUJITSU TEN (THAILAN17080NU0015015                                                                                                                              *          20170210IMF1702106.TXT
MDEUH2219990201702                D89828070100PT4U20170215000060SPEAKER ASM                   M IMCTM S0FL05 FTTL  07070IMCT  S0 PTB  00004                    2230 SR        000000000000 FUJITSU TEN (THAILAN170C16U0151152                                                                                                                              *          20170210IMF1702106.TXT
MDEUH2219991201702                D89828070100PT4U20170216000030SPEAKER ASM                   M IMCTM S0FL05 FTTL  07070IMCT  S0 PTB  00004                    1300 SR        000000000000 FUJITSU TEN (THAILAN170C16U0153153                                                                                                                              *          20170210IMF1702106.TXT
MDEUH2219992201702                D89828070100PT4U20170216000030SPEAKER ASM                   M IMCTM S0FL05 FTTL  07070IMCT  S0 PTB  00004                    1600 SR        000000000000 FUJITSU TEN (THAILAN170C16U0154154                                                                                                                              *          20170210IMF1702106.TXT
MDEUH2219993201702                D89828070200PV4U20170215000060SPEAKER ASM                   M IMCTM S0FR05 FTTL  07070IMCT  S0 PTB  00005                    2230 SR        000000000000 FUJITSU TEN (THAILAN170C16U0151152                                                                                                                              *          20170210IMF1702106.TXT
MDEUH2219994201702                D89828070200PV4U20170216000030SPEAKER ASM                   M IMCTM S0FR05 FTTL  07070IMCT  S0 PTB  00005                    1300 SR        000000000000 FUJITSU TEN (THAILAN170C16U0153153                                                                                                                              *          20170210IMF1702106.TXT
MDEUH2219995201702                D89828070200PV4U20170216000030SPEAKER ASM                   M IMCTM S0FR05 FTTL  07070IMCT  S0 PTB  00005                    1600 SR        000000000000 FUJITSU TEN (THAILAN170C16U0154154                                                                                                                              *          20170210IMF1702106.TXT
MDEUH2219996201702                D89828070300PT4U20170215000060SPEAKER ASM                   M IMCTM S9TS02 FTTL  07070IMCT  S9 PTB  00015                    2230 SR        000000000000 FUJITSU TEN (THAILAN170C16U0151152                                                                                                                              *          20170210IMF1702106.TXT
MDEUH2219997201702                D89828070300PT4U20170216000030SPEAKER ASM                   M IMCTM S9TS02 FTTL  07070IMCT  S9 PTB  00015                    1300 SR        000000000000 FUJITSU TEN (THAILAN170C16U0153153                                                                                                                              *          20170210IMF1702106.TXT
MDEUH2219998201702                D89828070300PT4U20170216000030SPEAKER ASM                   M IMCTM S9TS02 FTTL  07070IMCT  S9 PTB  00015                    1600 SR        000000000000 FUJITSU TEN (THAILAN170C16U0154154                                                                                                                              *          20170210IMF1702106.TXT
