REC2017021320170213ISUZU                              54     
MDDDH2244977201702                D89821984430PT1D20170216000030RADIO;AM/FM,CD                M IMCTM S5NC06 FTTL  07070IMCT  S5 PTB  00005                    2100 SR        000000000000 FUJITSU TEN (THAILAN170KNDL0073073                                                                                                                              *          20170213IMF1702135.TXT
MDDDH2244978201702                D89821984430PT1D20170216000030RADIO;AM/FM,CD                M IMCTM S5NC06 FTTL  07070IMCT  S5 PTB  00005                    2230 SR        000000000000 FUJITSU TEN (THAILAN170KRAL0037037                                                                                                                              *          20170213IMF1702135.TXT
MDDDH2244979201702                D89828070100PV1D20170216000060SPEAKER ASM                   M IMCTM S5MB11 FTTL  07070IMCT  S5 PTB  00004                    2100 SR        000000000000 FUJITSU TEN (THAILAN170KNDL0073073                                                                                                                              *          20170213IMF1702135.TXT
MDDDH2244980201702                D89828070100PV1D20170216000060SPEAKER ASM                   M IMCTM S5MB11 FTTL  07070IMCT  S5 PTB  00004                    2230 SR        000000000000 FUJITSU TEN (THAILAN170KRAL0037037                                                                                                                              *          20170213IMF1702135.TXT
MDDDH2244981201702                D89828070100PV1D20170217000060SPEAKER ASM                   M IMCTM S5MB11 FTTL  07070IMCT  S5 PTB  00004                    0230 SR        000000000000 FUJITSU TEN (THAILAN170KRCL0022022                                                                                                                              *          20170213IMF1702135.TXT
MDDDH2244982201702                D89828070100PV1D20170217000060SPEAKER ASM                   M IMCTM S5MB11 FTTL  07070IMCT  S5 PTB  00004                    0900 SR        000000000000 FUJITSU TEN (THAILAN170KRTL0014014                                                                                                                              *          20170213IMF1702135.TXT
MDDDH2244983201702                D89828070100PV1D20170217000120SPEAKER ASM                   M IMCTM S5MB11 FTTL  07070IMCT  S5 PTB  00004                    1300 SR        000000000000 FUJITSU TEN (THAILAN170KPFL0130130170KRLL0009009                                                                                                                *          20170213IMF1702135.TXT
MDDDH2244984201702                D89828070200PV1D20170217000060SPEAKER ASM                   M IMCTM S5MA14 FTTL  07070IMCT  S5 PTB  00005                    0230 SR        000000000000 FUJITSU TEN (THAILAN170KRCL0022022                                                                                                                              *          20170213IMF1702135.TXT
MDDDH2244985201702                D89828070200PV1D20170217000060SPEAKER ASM                   M IMCTM S5MA14 FTTL  07070IMCT  S5 PTB  00005                    0900 SR        000000000000 FUJITSU TEN (THAILAN170KRTL0014014                                                                                                                              *          20170213IMF1702135.TXT
MDDDH2244986201702                D89828070200PV1D20170217000060SPEAKER ASM                   M IMCTM S5MA14 FTTL  07070IMCT  S5 PTB  00005                    1300 SR        000000000000 FUJITSU TEN (THAILAN170KRLL0009009                                                                                                                              *          20170213IMF1702135.TXT
MDDDH2244987201702                D89828070300PT1D20170217000060SPEAKER ASM                   M IMCTM S5NB082FTTL  07070IMCT  S5 PTB  00015                    0230 SR        000000000000 FUJITSU TEN (THAILAN170KRCL0022022                                                                                                                              *          20170213IMF1702135.TXT
MDDDH2244988201702                D89828070300PT1D20170217000060SPEAKER ASM                   M IMCTM S5NB082FTTL  07070IMCT  S5 PTB  00015                    0900 SR        000000000000 FUJITSU TEN (THAILAN170KRTL0014014                                                                                                                              *          20170213IMF1702135.TXT
MDDDH2244989201702                D89828070300PT1D20170217000120SPEAKER ASM                   M IMCTM S5NB082FTTL  07070IMCT  S5 PTB  00015                    1300 SR        000000000000 FUJITSU TEN (THAILAN170KPFL0130130170KRLL0009009                                                                                                                *          20170213IMF1702135.TXT
MDDDH2244990201702                D89829645900PT1D20170217000030RADIO;ASM DVD                 M IMCTM S5NC06 FTTL  07070IMCT  S5 CPB  00003                    0900 SR        000000000000 FUJITSU TEN (THAILAN170KRTL0014014                                                                                                                              *          20170213IMF1702135.TXT
MDDDH2244991201702                D89831228300PT1D20170217000030RADIO;AM/FM,CD                M IMCTM S5NC06 FTTL  07070IMCT  S5 CPB  00003                    1300 SR        000000000000 FUJITSU TEN (THAILAN170KPFL0130130                                                                                                                              *          20170213IMF1702135.TXT
MDDDH2244992201702                D89831228400PT1D20170217000030RADIO;AM/FM,CD                M IMCTM S5NC06 FTTL  07070IMCT  S5 CPB  00003                    0230 SR        000000000000 FUJITSU TEN (THAILAN170KRCL0022022                                                                                                                              *          20170213IMF1702135.TXT
MDDUH2214182201702                D89828070100PT4U20170216000030SPEAKER ASM                   M IMCTM S0FL05 FTTL  07070IMCT  S0 PTB  00004                    2100 SR        000000000000 FUJITSU TEN (THAILAN180LUFU0005005                                                                                                                              *          20170213IMF1702135.TXT
MDDUH2214183201702                D89828070100PT4U20170217000060SPEAKER ASM                   M IMCTM S0FL05 FTTL  07070IMCT  S0 PTB  00004                    0230 SR        000000000000 FUJITSU TEN (THAILAN180LUDU0003004                                                                                                                              *          20170213IMF1702135.TXT
MDDUH2214184201702                D89828070100PT4U20170217000060SPEAKER ASM                   M IMCTM S0FL05 FTTL  07070IMCT  S0 PTB  00004                    0900 SR        000000000000 FUJITSU TEN (THAILAN180LUDU0005005180LUEU0014014                                                                                                                *          20170213IMF1702135.TXT
MDDUH2214185201702                D89828070100PT4U20170217000030SPEAKER ASM                   M IMCTM S0FL05 FTTL  07070IMCT  S0 PTB  00004                    1600 SR        000000000000 FUJITSU TEN (THAILAN180LUEU0015015                                                                                                                              *          20170213IMF1702135.TXT
MDDUH2214186201702                D89828070100PT4U20170217000030SPEAKER ASM                   M IMCTM S0FL05 FTTL  07070IMCT  S0 PTB  00004                    2100 SR        000000000000 FUJITSU TEN (THAILAN180LUFU0006006                                                                                                                              *          20170213IMF1702135.TXT
MDDUH2214187201702                D89828070200PV4U20170216000030SPEAKER ASM                   M IMCTM S0FR05 FTTL  07070IMCT  S0 PTB  00005                    2100 SR        000000000000 FUJITSU TEN (THAILAN180LUFU0005005                                                                                                                              *          20170213IMF1702135.TXT
MDDUH2214188201702                D89828070200PV4U20170217000060SPEAKER ASM                   M IMCTM S0FR05 FTTL  07070IMCT  S0 PTB  00005                    0230 SR        000000000000 FUJITSU TEN (THAILAN180LUDU0003004                                                                                                                              *          20170213IMF1702135.TXT
MDDUH2214189201702                D89828070200PV4U20170217000060SPEAKER ASM                   M IMCTM S0FR05 FTTL  07070IMCT  S0 PTB  00005                    0900 SR        000000000000 FUJITSU TEN (THAILAN180LUDU0005005180LUEU0014014                                                                                                                *          20170213IMF1702135.TXT
MDDUH2214190201702                D89828070200PV4U20170217000030SPEAKER ASM                   M IMCTM S0FR05 FTTL  07070IMCT  S0 PTB  00005                    1600 SR        000000000000 FUJITSU TEN (THAILAN180LUEU0015015                                                                                                                              *          20170213IMF1702135.TXT
MDDUH2214191201702                D89828070200PV4U20170217000030SPEAKER ASM                   M IMCTM S0FR05 FTTL  07070IMCT  S0 PTB  00005                    2100 SR        000000000000 FUJITSU TEN (THAILAN180LUFU0006006                                                                                                                              *          20170213IMF1702135.TXT
MDDUH2214192201702                D89828070300PT4U20170216000030SPEAKER ASM                   M IMCTM S9TS02 FTTL  07070IMCT  S9 PTB  00015                    2100 SR        000000000000 FUJITSU TEN (THAILAN180LUFU0005005                                                                                                                              *          20170213IMF1702135.TXT
MDDUH2214193201702                D89828070300PT4U20170217000060SPEAKER ASM                   M IMCTM S9TS02 FTTL  07070IMCT  S9 PTB  00015                    0230 SR        000000000000 FUJITSU TEN (THAILAN180LUDU0003004                                                                                                                              *          20170213IMF1702135.TXT
MDDUH2214194201702                D89828070300PT4U20170217000060SPEAKER ASM                   M IMCTM S9TS02 FTTL  07070IMCT  S9 PTB  00015                    0900 SR        000000000000 FUJITSU TEN (THAILAN180LUDU0005005180LUEU0014014                                                                                                                *          20170213IMF1702135.TXT
MDDUH2214195201702                D89828070300PT4U20170217000030SPEAKER ASM                   M IMCTM S9TS02 FTTL  07070IMCT  S9 PTB  00015                    1600 SR        000000000000 FUJITSU TEN (THAILAN180LUEU0015015                                                                                                                              *          20170213IMF1702135.TXT
MDDUH2214196201702                D89828070300PT4U20170217000030SPEAKER ASM                   M IMCTM S9TS02 FTTL  07070IMCT  S9 PTB  00015                    2100 SR        000000000000 FUJITSU TEN (THAILAN180LUFU0006006                                                                                                                              *          20170213IMF1702135.TXT
MDEDH2266265201702                D89828070100PV1D20170216000060SPEAKER ASM                   M IMCTM S5MB11 FTTL  07070IMCT  S5 PTB  00004                    2230 SR        000000000000 FUJITSU TEN (THAILAN17024NL000900917034PL0017017                                                                                                                *          20170213IMF1702135.TXT
MDEDH2266266201702                D89828070100PV1D20170217000090SPEAKER ASM                   M IMCTM S5MB11 FTTL  07070IMCT  S5 PTB  00004                    0400 SR        000000000000 FUJITSU TEN (THAILAN17073ML000400517075PL0018018                                                                                                                *          20170213IMF1702135.TXT
MDEDH2266267201702                D89828070100PV1D20170217000060SPEAKER ASM                   M IMCTM S5MB11 FTTL  07070IMCT  S5 PTB  00004                    0900 SR        000000000000 FUJITSU TEN (THAILAN17052ML000200217075PL0019019                                                                                                                *          20170213IMF1702135.TXT
MDEDH2266268201702                D89828070100PV1D20170217000030SPEAKER ASM                   M IMCTM S5MB11 FTTL  07070IMCT  S5 PTB  00004                    1300 SR        000000000000 FUJITSU TEN (THAILAN17062ML0005005                                                                                                                              *          20170213IMF1702135.TXT
MDEDH2266269201702                D89828070100PV1D20170217000030SPEAKER ASM                   M IMCTM S5MB11 FTTL  07070IMCT  S5 PTB  00004                    1600 SR        000000000000 FUJITSU TEN (THAILAN17034PL0018018                                                                                                                              *          20170213IMF1702135.TXT
MDEDH2266270201702                D89828070100PV4D20170217000030SPEAKER ASM                   M IMCTM S0FL05 FTTL  07070IMCT  S0 PTB  00004                    0400 SR        000000000000 FUJITSU TEN (THAILAN17080NU0016016                                                                                                                              *          20170213IMF1702135.TXT
MDEDH2266271201702                D89828070100PV4D20170217000030SPEAKER ASM                   M IMCTM S0FL05 FTTL  07070IMCT  S0 PTB  00004                    1300 SR        000000000000 FUJITSU TEN (THAILAN17068NU0002002                                                                                                                              *          20170213IMF1702135.TXT
MDEDH2266272201702                D89828070200PV1D20170216000060SPEAKER ASM                   M IMCTM S5MA14 FTTL  07070IMCT  S5 PTB  00005                    2230 SR        000000000000 FUJITSU TEN (THAILAN17024NL000900917034PL0017017                                                                                                                *          20170213IMF1702135.TXT
MDEDH2266273201702                D89828070200PV1D20170217000030SPEAKER ASM                   M IMCTM S5MA14 FTTL  07070IMCT  S5 PTB  00005                    1600 SR        000000000000 FUJITSU TEN (THAILAN17034PL0018018                                                                                                                              *          20170213IMF1702135.TXT
MDEDH2266274201702                D89828070200PV4D20170217000030SPEAKER ASM                   M IMCTM S0FR05 FTTL  07070IMCT  S0 PTB  00005                    0400 SR        000000000000 FUJITSU TEN (THAILAN17080NU0016016                                                                                                                              *          20170213IMF1702135.TXT
MDEDH2266275201702                D89828070300PT1D20170216000060SPEAKER ASM                   M IMCTM S5NB082FTTL  07070IMCT  S5 PTB  00015                    2230 SR        000000000000 FUJITSU TEN (THAILAN17024NL000900917034PL0017017                                                                                                                *          20170213IMF1702135.TXT
MDEDH2266276201702                D89828070300PT1D20170217000060SPEAKER ASM                   M IMCTM S5NB082FTTL  07070IMCT  S5 PTB  00015                    0400 SR        000000000000 FUJITSU TEN (THAILAN17073ML0004005                                                                                                                              *          20170213IMF1702135.TXT
MDEDH2266277201702                D89828070300PT1D20170217000030SPEAKER ASM                   M IMCTM S5NB082FTTL  07070IMCT  S5 PTB  00015                    1300 SR        000000000000 FUJITSU TEN (THAILAN17062ML0005005                                                                                                                              *          20170213IMF1702135.TXT
MDEDH2266278201702                D89828070300PT1D20170217000030SPEAKER ASM                   M IMCTM S5NB082FTTL  07070IMCT  S5 PTB  00015                    1600 SR        000000000000 FUJITSU TEN (THAILAN17034PL0018018                                                                                                                              *          20170213IMF1702135.TXT
MDEDH2266279201702                D89828070300PT4D20170217000030SPEAKER ASM                   M IMCTM S9TS02 FTTL  07070IMCT  S9 PTB  00015                    0400 SR        000000000000 FUJITSU TEN (THAILAN17080NU0016016                                                                                                                              *          20170213IMF1702135.TXT
MDEDH2266280201702                D89828070300PT4D20170217000030SPEAKER ASM                   M IMCTM S9TS02 FTTL  07070IMCT  S9 PTB  00015                    1300 SR        000000000000 FUJITSU TEN (THAILAN17068NU0002002                                                                                                                              *          20170213IMF1702135.TXT
MDEDH2266281201702                D89829622400PT1D20170217000015RADIO;ASM DVD                 M IMCTM S5NC06 FTTL  07070IMCT  S5 PTB  00003                    1300 SR        000000000000 FUJITSU TEN (THAILAN17062ML0005005                                                                                                                              *          20170213IMF1702135.TXT
MDEUH2222346201702                D89828070100PT4U20170216000030SPEAKER ASM                   M IMCTM S0FL05 FTTL  07070IMCT  S0 PTB  00004                    2230 SR        000000000000 FUJITSU TEN (THAILAN170C16U0155155                                                                                                                              *          20170213IMF1702135.TXT
MDEUH2222347201702                D89828070100PT4U20170217000030SPEAKER ASM                   M IMCTM S0FL05 FTTL  07070IMCT  S0 PTB  00004                    1300 SR        000000000000 FUJITSU TEN (THAILAN170C16U0156156                                                                                                                              *          20170213IMF1702135.TXT
MDEUH2222348201702                D89828070200PV4U20170216000030SPEAKER ASM                   M IMCTM S0FR05 FTTL  07070IMCT  S0 PTB  00005                    2230 SR        000000000000 FUJITSU TEN (THAILAN170C16U0155155                                                                                                                              *          20170213IMF1702135.TXT
MDEUH2222349201702                D89828070200PV4U20170217000030SPEAKER ASM                   M IMCTM S0FR05 FTTL  07070IMCT  S0 PTB  00005                    1300 SR        000000000000 FUJITSU TEN (THAILAN170C16U0156156                                                                                                                              *          20170213IMF1702135.TXT
MDEUH2222350201702                D89828070300PT4U20170216000030SPEAKER ASM                   M IMCTM S9TS02 FTTL  07070IMCT  S9 PTB  00015                    2230 SR        000000000000 FUJITSU TEN (THAILAN170C16U0155155                                                                                                                              *          20170213IMF1702135.TXT
MDEUH2222351201702                D89828070300PT4U20170217000030SPEAKER ASM                   M IMCTM S9TS02 FTTL  07070IMCT  S9 PTB  00015                    1300 SR        000000000000 FUJITSU TEN (THAILAN170C16U0156156                                                                                                                              *          20170213IMF1702135.TXT
