REC2017020320170204ISUZU                              14     
MDEFH2T02588201702                D89828070100PV4F20170208000028SPEAKER ASM                   M IMCTM S7FL05 FTTL  07070IMCT  S7 PTB  00004                    1300 SR        000000000000 FUJITSU TEN (THAILAN17009MR0015   17015NR0028   D170201702    D170201715    000000                                                                              *R         20170203RDF1702036.TXT
MDEFH2T02589201702                D89828070200PV4F20170208000003SPEAKER ASM                   M IMCTM S7TS02 FTTL  07070IMCT  S7 PTB  00005                    1300 SR        000000000000 FUJITSU TEN (THAILAN17015NR0027   17015NR0028   D170201714    D170201715    000000                                                                              *R         20170203RDF1702036.TXT
MDEFH2T02590201702                D89828070300PT4F20170208000004SPEAKER ASM                   M IMCTM S7TS02 FTTL  07070IMCT  S7 PTB  00015                    1300 SR        000000000000 FUJITSU TEN (THAILAN17015NR0027   17015NR0028   D170201714    D170201715    000000                                                                              *R         20170203RDF1702036.TXT
MDEFH2T02591201702                D89829645300PT4F20170207000003RADIO;ASM DVD                 M IMCTM S7TS03 FTTL  07070IMCT  S7 PTB  00003                    2230 SR        000000000000 FUJITSU TEN (THAILAN17014NR0021   17032PR0026   D170201501    D170201511    000000                                                                              *R         20170203RDF1702036.TXT
MDEFH2T02592201702                D89831228800PT4F20170207000006RADIO;AM/FM,CD                M IMCTM S7TS03 FTTL  07070IMCT  S7 PTB  00003                    1600 SR        000000000000 FUJITSU TEN (THAILAN17013NR0015   17013NR0020   D170201403    D170201408    000000                                                                              *R         20170203RDF1702036.TXT
MDEFH2208292201702                D89828070100PV4F20170207000032SPEAKER ASM                   M IMCTM S7FL05 FTTL  07070IMCT  S7 PTB  00004                    1600 SR        000000000000 FUJITSU TEN (THAILAN17002NR0004   17014NR0021   D170201401    D170201501    000000                                                                              *R         20170203RDF1702036.TXT
MDEFH2208293201702                D89828070100PV4F20170207000028SPEAKER ASM                   M IMCTM S7FL05 FTTL  07070IMCT  S7 PTB  00004                    2230 SR        000000000000 FUJITSU TEN (THAILAN17014NR0022   17085MR0009   D170201502    D170201515    000000                                                                              *R         20170203RDF1702036.TXT
MDEFH2208294201702                D89828070100PV4F20170208000008SPEAKER ASM                   M IMCTM S7FL05 FTTL  07070IMCT  S7 PTB  00004                    0400 SR        000000000000 FUJITSU TEN (THAILAN17028NR0014   17028NR0017   C170201601    C170201604    000000                                                                              *R         20170203RDF1702036.TXT
MDEFH2208295201702                D89828070100PV4F20170208000024SPEAKER ASM                   M IMCTM S7FL05 FTTL  07070IMCT  S7 PTB  00004                    0900 SR        000000000000 FUJITSU TEN (THAILAN17028NR0018   17009MR0014   C170201605    D170201701    000000                                                                              *R         20170203RDF1702036.TXT
MDEFH2208296201702                D89828070200PV4F20170207000030SPEAKER ASM                   M IMCTM S7TS02 FTTL  07070IMCT  S7 PTB  00005                    1600 SR        000000000000 FUJITSU TEN (THAILAN17002NR0004   17026MR0007   D170201401    D170201415    000000                                                                              *R         20170203RDF1702036.TXT
MDEFH2208297201702                D89828070200PV4F20170207000025SPEAKER ASM                   M IMCTM S7TS02 FTTL  07070IMCT  S7 PTB  00005                    2230 SR        000000000000 FUJITSU TEN (THAILAN17014NR0021   17015NR0027   D170201501    D170201714    000000                                                                              *R         20170203RDF1702036.TXT
MDEFH2208298201702                D89828070300PT4F20170207000030SPEAKER ASM                   M IMCTM S7TS02 FTTL  07070IMCT  S7 PTB  00015                    1600 SR        000000000000 FUJITSU TEN (THAILAN17002NR0004   17026MR0007   D170201401    D170201415    000000                                                                              *R         20170203RDF1702036.TXT
MDEFH2208299201702                D89828070300PT4F20170207000030SPEAKER ASM                   M IMCTM S7TS02 FTTL  07070IMCT  S7 PTB  00015                    2230 SR        000000000000 FUJITSU TEN (THAILAN17014NR0021   17085MR0009   D170201501    D170201515    000000                                                                              *R         20170203RDF1702036.TXT
MDEFH2208300201702                D89829645300PT4F20170207000006RADIO;ASM DVD                 M IMCTM S7TS03 FTTL  07070IMCT  S7 PTB  00003                    1600 SR        000000000000 FUJITSU TEN (THAILAN17002NR0004   17026MR0007   D170201401    D170201415    000000                                                                              *R         20170203RDF1702036.TXT
