REC2017022520170225ISUZU                              67     
MDDDH2270733201703                D89828070100PV1D20170302000060SPEAKER ASM                   M IMCTM S5MB11 FTTL  07070IMCT  S5 PTB  00004                    0230 SR        000000000000 FUJITSU TEN (THAILAN170KNBL0020020                                                                                                                              *          20170225IMF1702254.TXT
MDDUH2250884201703                D89828070100PT4U20170301000030SPEAKER ASM                   M IMCTM S0FL05 FTTL  07070IMCT  S0 PTB  00004                    2230 SR        000000000000 FUJITSU TEN (THAILAN180LUDU0037037                                                                                                                              *          20170225IMF1702254.TXT
MDDUH2250885201703                D89828070100PT4U20170302000030SPEAKER ASM                   M IMCTM S0FL05 FTTL  07070IMCT  S0 PTB  00004                    0900 SR        000000000000 FUJITSU TEN (THAILAN180LUDU0038038                                                                                                                              *          20170225IMF1702254.TXT
MDDUH2250886201703                D89828070100PT4U20170302000060SPEAKER ASM                   M IMCTM S0FL05 FTTL  07070IMCT  S0 PTB  00004                    1600 SR        000000000000 FUJITSU TEN (THAILAN180LUDU0039040                                                                                                                              *          20170225IMF1702254.TXT
MDDUH2250887201703                D89828070200PV4U20170301000030SPEAKER ASM                   M IMCTM S0FR05 FTTL  07070IMCT  S0 PTB  00005                    2230 SR        000000000000 FUJITSU TEN (THAILAN180LUDU0037037                                                                                                                              *          20170225IMF1702254.TXT
MDDUH2250888201703                D89828070200PV4U20170302000030SPEAKER ASM                   M IMCTM S0FR05 FTTL  07070IMCT  S0 PTB  00005                    0900 SR        000000000000 FUJITSU TEN (THAILAN180LUDU0038038                                                                                                                              *          20170225IMF1702254.TXT
MDDUH2250889201703                D89828070200PV4U20170302000060SPEAKER ASM                   M IMCTM S0FR05 FTTL  07070IMCT  S0 PTB  00005                    1600 SR        000000000000 FUJITSU TEN (THAILAN180LUDU0039040                                                                                                                              *          20170225IMF1702254.TXT
MDDUH2250890201703                D89828070300PT4U20170301000030SPEAKER ASM                   M IMCTM S9TS02 FTTL  07070IMCT  S9 PTB  00015                    2230 SR        000000000000 FUJITSU TEN (THAILAN180LUDU0037037                                                                                                                              *          20170225IMF1702254.TXT
MDDUH2250891201703                D89828070300PT4U20170302000030SPEAKER ASM                   M IMCTM S9TS02 FTTL  07070IMCT  S9 PTB  00015                    0900 SR        000000000000 FUJITSU TEN (THAILAN180LUDU0038038                                                                                                                              *          20170225IMF1702254.TXT
MDDUH2250892201703                D89828070300PT4U20170302000060SPEAKER ASM                   M IMCTM S9TS02 FTTL  07070IMCT  S9 PTB  00015                    1600 SR        000000000000 FUJITSU TEN (THAILAN180LUDU0039040                                                                                                                              *          20170225IMF1702254.TXT
MDEDH2362442201703                D89805293700PV1D20170301000060SPEAKER ASM                   M IMCTM S5MB11 FTTL  07070IMCT  S5 PTB  00003                    2230 SR        000000000000 FUJITSU TEN (THAILAN15018FL0097098                                                                                                                              *          20170225IMF1702254.TXT
MDEDH2362443201703                D89805293700PV1D20170302000030SPEAKER ASM                   M IMCTM S5MB11 FTTL  07070IMCT  S5 PTB  00003                    2100 SR        000000000000 FUJITSU TEN (THAILAN15018FL0099099                                                                                                                              *          20170225IMF1702254.TXT
MDEDH2362444201703                D89828070100PV1D20170301000090SPEAKER ASM                   M IMCTM S5MB11 FTTL  07070IMCT  S5 PTB  00004                    2230 SR        000000000000 FUJITSU TEN (THAILAN16043KL000400417005RL000400417061PL0008008                                                                                                  *          20170225IMF1702254.TXT
MDEDH2362445201703                D89828070100PV1D20170302000030SPEAKER ASM                   M IMCTM S5MB11 FTTL  07070IMCT  S5 PTB  00004                    0230 SR        000000000000 FUJITSU TEN (THAILAN17021NL0005005                                                                                                                              *          20170225IMF1702254.TXT
MDEDH2362446201703                D89828070100PV1D20170302000120SPEAKER ASM                   M IMCTM S5MB11 FTTL  07070IMCT  S5 PTB  00004                    0400 SR        000000000000 FUJITSU TEN (THAILAN17016PL000600717054PL002002017061PL0009009                                                                                                  *          20170225IMF1702254.TXT
MDEDH2362447201703                D89828070100PV1D20170302000120SPEAKER ASM                   M IMCTM S5MB11 FTTL  07070IMCT  S5 PTB  00004                    0900 SR        000000000000 FUJITSU TEN (THAILAN17023NL000700817054PL0021022                                                                                                                *          20170225IMF1702254.TXT
MDEDH2362448201703                D89828070100PV1D20170302000150SPEAKER ASM                   M IMCTM S5MB11 FTTL  07070IMCT  S5 PTB  00004                    1300 SR        000000000000 FUJITSU TEN (THAILAN17046QL000700717052ML000300317054PL002302317061PL001001017076ML0012012                                                                      *          20170225IMF1702254.TXT
MDEDH2362449201703                D89828070100PV1D20170302000150SPEAKER ASM                   M IMCTM S5MB11 FTTL  07070IMCT  S5 PTB  00004                    1600 SR        000000000000 FUJITSU TEN (THAILAN17046QL000800817054PL002402417063NL001001017067ML000100117072QL0001001                                                                      *          20170225IMF1702254.TXT
MDEDH2362450201703                D89828070100PV1D20170302000060SPEAKER ASM                   M IMCTM S5MB11 FTTL  07070IMCT  S5 PTB  00004                    2100 SR        000000000000 FUJITSU TEN (THAILAN16050KL000200217054PL0025025                                                                                                                *          20170225IMF1702254.TXT
MDEDH2362451201703                D89828070100PV4D20170301000030SPEAKER ASM                   M IMCTM S0FL05 FTTL  07070IMCT  S0 PTB  00004                    2230 SR        000000000000 FUJITSU TEN (THAILAN16059KU0001001                                                                                                                              *          20170225IMF1702254.TXT
MDEDH2362452201703                D89828070100PV4D20170302000030SPEAKER ASM                   M IMCTM S0FL05 FTTL  07070IMCT  S0 PTB  00004                    0900 SR        000000000000 FUJITSU TEN (THAILAN17077MU0001001                                                                                                                              *          20170225IMF1702254.TXT
MDEDH2362453201703                D89828070100PV4D20170302000030SPEAKER ASM                   M IMCTM S0FL05 FTTL  07070IMCT  S0 PTB  00004                    1300 SR        000000000000 FUJITSU TEN (THAILAN17032QU0003003                                                                                                                              *          20170225IMF1702254.TXT
MDEDH2362454201703                D89828070100PV4D20170302000060SPEAKER ASM                   M IMCTM S0FL05 FTTL  07070IMCT  S0 PTB  00004                    1600 SR        000000000000 FUJITSU TEN (THAILAN17032QU000400417054PU0003003                                                                                                                *          20170225IMF1702254.TXT
MDEDH2362455201703                D89828070200PV1D20170301000030SPEAKER ASM                   M IMCTM S5MA14 FTTL  07070IMCT  S5 PTB  00005                    2230 SR        000000000000 FUJITSU TEN (THAILAN17005RL0004004                                                                                                                              *          20170225IMF1702254.TXT
MDEDH2362456201703                D89828070200PV1D20170302000030SPEAKER ASM                   M IMCTM S5MA14 FTTL  07070IMCT  S5 PTB  00005                    0230 SR        000000000000 FUJITSU TEN (THAILAN17021NL0005005                                                                                                                              *          20170225IMF1702254.TXT
MDEDH2362457201703                D89828070200PV1D20170302000060SPEAKER ASM                   M IMCTM S5MA14 FTTL  07070IMCT  S5 PTB  00005                    0400 SR        000000000000 FUJITSU TEN (THAILAN17016PL0006007                                                                                                                              *          20170225IMF1702254.TXT
MDEDH2362458201703                D89828070200PV1D20170302000060SPEAKER ASM                   M IMCTM S5MA14 FTTL  07070IMCT  S5 PTB  00005                    0900 SR        000000000000 FUJITSU TEN (THAILAN17023NL0007008                                                                                                                              *          20170225IMF1702254.TXT
MDEDH2362459201703                D89828070200PV1D20170302000030SPEAKER ASM                   M IMCTM S5MA14 FTTL  07070IMCT  S5 PTB  00005                    1300 SR        000000000000 FUJITSU TEN (THAILAN17046QL0007007                                                                                                                              *          20170225IMF1702254.TXT
MDEDH2362460201703                D89828070200PV1D20170302000060SPEAKER ASM                   M IMCTM S5MA14 FTTL  07070IMCT  S5 PTB  00005                    1600 SR        000000000000 FUJITSU TEN (THAILAN17046QL000800817072QL0001001                                                                                                                *          20170225IMF1702254.TXT
MDEDH2362461201703                D89828070200PV1D20170302000030SPEAKER ASM                   M IMCTM S5MA14 FTTL  07070IMCT  S5 PTB  00005                    2100 SR        000000000000 FUJITSU TEN (THAILAN16050KL0002002                                                                                                                              *          20170225IMF1702254.TXT
MDEDH2362462201703                D89828070200PV4D20170301000030SPEAKER ASM                   M IMCTM S0FR05 FTTL  07070IMCT  S0 PTB  00005                    2230 SR        000000000000 FUJITSU TEN (THAILAN16059KU0001001                                                                                                                              *          20170225IMF1702254.TXT
MDEDH2362463201703                D89828070200PV4D20170302000030SPEAKER ASM                   M IMCTM S0FR05 FTTL  07070IMCT  S0 PTB  00005                    1300 SR        000000000000 FUJITSU TEN (THAILAN17032QU0003003                                                                                                                              *          20170225IMF1702254.TXT
MDEDH2362464201703                D89828070200PV4D20170302000030SPEAKER ASM                   M IMCTM S0FR05 FTTL  07070IMCT  S0 PTB  00005                    1600 SR        000000000000 FUJITSU TEN (THAILAN17032QU0004004                                                                                                                              *          20170225IMF1702254.TXT
MDEDH2362465201703                D89828070300PT1D20170301000060SPEAKER ASM                   M IMCTM S5NB082FTTL  07070IMCT  S5 PTB  00015                    2230 SR        000000000000 FUJITSU TEN (THAILAN16043KL000400417005RL0004004                                                                                                                *          20170225IMF1702254.TXT
MDEDH2362466201703                D89828070300PT1D20170302000030SPEAKER ASM                   M IMCTM S5NB082FTTL  07070IMCT  S5 PTB  00015                    0230 SR        000000000000 FUJITSU TEN (THAILAN17021NL0005005                                                                                                                              *          20170225IMF1702254.TXT
MDEDH2362467201703                D89828070300PT1D20170302000060SPEAKER ASM                   M IMCTM S5NB082FTTL  07070IMCT  S5 PTB  00015                    0400 SR        000000000000 FUJITSU TEN (THAILAN17016PL0006007                                                                                                                              *          20170225IMF1702254.TXT
MDEDH2362468201703                D89828070300PT1D20170302000060SPEAKER ASM                   M IMCTM S5NB082FTTL  07070IMCT  S5 PTB  00015                    0900 SR        000000000000 FUJITSU TEN (THAILAN17023NL0007008                                                                                                                              *          20170225IMF1702254.TXT
MDEDH2362469201703                D89828070300PT1D20170302000030SPEAKER ASM                   M IMCTM S5NB082FTTL  07070IMCT  S5 PTB  00015                    1300 SR        000000000000 FUJITSU TEN (THAILAN17046QL0007007                                                                                                                              *          20170225IMF1702254.TXT
MDEDH2362470201703                D89828070300PT1D20170302000120SPEAKER ASM                   M IMCTM S5NB082FTTL  07070IMCT  S5 PTB  00015                    1600 SR        000000000000 FUJITSU TEN (THAILAN17046QL000800817063NL001001017067ML000100117072QL0001001                                                                                    *          20170225IMF1702254.TXT
MDEDH2362471201703                D89828070300PT1D20170302000030SPEAKER ASM                   M IMCTM S5NB082FTTL  07070IMCT  S5 PTB  00015                    2100 SR        000000000000 FUJITSU TEN (THAILAN16050KL0002002                                                                                                                              *          20170225IMF1702254.TXT
MDEDH2362472201703                D89828070300PT4D20170301000030SPEAKER ASM                   M IMCTM S9TS02 FTTL  07070IMCT  S9 PTB  00015                    2230 SR        000000000000 FUJITSU TEN (THAILAN16059KU0001001                                                                                                                              *          20170225IMF1702254.TXT
MDEDH2362473201703                D89828070300PT4D20170302000030SPEAKER ASM                   M IMCTM S9TS02 FTTL  07070IMCT  S9 PTB  00015                    1300 SR        000000000000 FUJITSU TEN (THAILAN17032QU0003003                                                                                                                              *          20170225IMF1702254.TXT
MDEDH2362474201703                D89828070300PT4D20170302000030SPEAKER ASM                   M IMCTM S9TS02 FTTL  07070IMCT  S9 PTB  00015                    1600 SR        000000000000 FUJITSU TEN (THAILAN17032QU0004004                                                                                                                              *          20170225IMF1702254.TXT
MDEDH2362475201703                D89829622400PT1D20170302000015RADIO;ASM DVD                 M IMCTM S5NC06 FTTL  07070IMCT  S5 PTB  00003                    1600 SR        000000000000 FUJITSU TEN (THAILAN17067ML0001001                                                                                                                              *          20170225IMF1702254.TXT
MDEDH2362476201703                D89829645300PT1D20170302000015RADIO;ASM DVD                 M IMCTM S5NC06 FTTL  07070IMCT  S5 PTB  00003                    0230 SR        000000000000 FUJITSU TEN (THAILAN17021NL0005005                                                                                                                              *          20170225IMF1702254.TXT
MDEDH2362477201703                D89829645400PT1D20170301000015RADIO;ASM DVD                 M IMCTM S5NC06 FTTL  07070IMCT  S5 PTB  00003                    2230 SR        000000000000 FUJITSU TEN (THAILAN17005RL0004004                                                                                                                              *          20170225IMF1702254.TXT
MDEDH2362478201703                D89829645400PT1D20170302000015RADIO;ASM DVD                 M IMCTM S5NC06 FTTL  07070IMCT  S5 PTB  00003                    1600 SR        000000000000 FUJITSU TEN (THAILAN17072QL0001001                                                                                                                              *          20170225IMF1702254.TXT
MDEDH2362479201703                D89829645400PT4D20170301000015RADIO;ASM DVD                 M IMCTM S9CO001FTTL  07070IMCT  S9 PTB  00003                    2230 SR        000000000000 FUJITSU TEN (THAILAN16059KU0001001                                                                                                                              *          20170225IMF1702254.TXT
MDEDH2362480201703                D89829645700PT1D20170302000015RADIO;ASM DVD                 M IMCTM S5NC06 FTTL  07070IMCT  S5 X    00003                    1600 SR        000000000000 FUJITSU TEN (THAILAN17063NL0010010                                                                                                                              *          20170225IMF1702254.TXT
MDEDH2362481201703                D89831229000PT1D20170302000015RADIO;AM/FM,CD                M IMCTM S5NC06 FTTL  07070IMCT  S5 PTB  00003                    2100 SR        000000000000 FUJITSU TEN (THAILAN16050KL0002002                                                                                                                              *          20170225IMF1702254.TXT
MDEDH2362482201703                D89831229200PT4D20170302000015RADIO;AM/FM,CD                M IMCTM S9CO001FTTL  07070IMCT  S9 PTB  00003                    1300 SR        000000000000 FUJITSU TEN (THAILAN17032QU0003003                                                                                                                              *          20170225IMF1702254.TXT
MDEDH2362483201703                D89831229200PT4D20170302000015RADIO;AM/FM,CD                M IMCTM S9CO001FTTL  07070IMCT  S9 PTB  00003                    1600 SR        000000000000 FUJITSU TEN (THAILAN17032QU0004004                                                                                                                              *          20170225IMF1702254.TXT
MDEUH2245740201703                D89828070100PT4U20170301000030SPEAKER ASM                   M IMCTM S0FL05 FTTL  07070IMCT  S0 PTB  00004                    2230 SR        000000000000 FUJITSU TEN (THAILAN170C16U0184184                                                                                                                              *          20170225IMF1702254.TXT
MDEUH2245741201703                D89828070100PT4U20170302000030SPEAKER ASM                   M IMCTM S0FL05 FTTL  07070IMCT  S0 PTB  00004                    0230 SR        000000000000 FUJITSU TEN (THAILAN170C47U0024024                                                                                                                              *          20170225IMF1702254.TXT
MDEUH2245742201703                D89828070100PT4U20170302000030SPEAKER ASM                   M IMCTM S0FL05 FTTL  07070IMCT  S0 PTB  00004                    0400 SR        000000000000 FUJITSU TEN (THAILAN170C16U0185185                                                                                                                              *          20170225IMF1702254.TXT
MDEUH2245743201703                D89828070100PT4U20170302000030SPEAKER ASM                   M IMCTM S0FL05 FTTL  07070IMCT  S0 PTB  00004                    0900 SR        000000000000 FUJITSU TEN (THAILAN170C47U0025025                                                                                                                              *          20170225IMF1702254.TXT
MDEUH2245744201703                D89828070100PT4U20170302000030SPEAKER ASM                   M IMCTM S0FL05 FTTL  07070IMCT  S0 PTB  00004                    2100 SR        000000000000 FUJITSU TEN (THAILAN170C16U0186186                                                                                                                              *          20170225IMF1702254.TXT
MDEUH2245745201703                D89828070200PV4U20170301000030SPEAKER ASM                   M IMCTM S0FR05 FTTL  07070IMCT  S0 PTB  00005                    2230 SR        000000000000 FUJITSU TEN (THAILAN170C16U0184184                                                                                                                              *          20170225IMF1702254.TXT
MDEUH2245746201703                D89828070200PV4U20170302000030SPEAKER ASM                   M IMCTM S0FR05 FTTL  07070IMCT  S0 PTB  00005                    0230 SR        000000000000 FUJITSU TEN (THAILAN170C47U0024024                                                                                                                              *          20170225IMF1702254.TXT
MDEUH2245747201703                D89828070200PV4U20170302000030SPEAKER ASM                   M IMCTM S0FR05 FTTL  07070IMCT  S0 PTB  00005                    0400 SR        000000000000 FUJITSU TEN (THAILAN170C16U0185185                                                                                                                              *          20170225IMF1702254.TXT
MDEUH2245748201703                D89828070200PV4U20170302000030SPEAKER ASM                   M IMCTM S0FR05 FTTL  07070IMCT  S0 PTB  00005                    0900 SR        000000000000 FUJITSU TEN (THAILAN170C47U0025025                                                                                                                              *          20170225IMF1702254.TXT
MDEUH2245749201703                D89828070200PV4U20170302000030SPEAKER ASM                   M IMCTM S0FR05 FTTL  07070IMCT  S0 PTB  00005                    2100 SR        000000000000 FUJITSU TEN (THAILAN170C16U0186186                                                                                                                              *          20170225IMF1702254.TXT
MDEUH2245750201703                D89828070300PT4U20170301000030SPEAKER ASM                   M IMCTM S9TS02 FTTL  07070IMCT  S9 PTB  00015                    2230 SR        000000000000 FUJITSU TEN (THAILAN170C16U0184184                                                                                                                              *          20170225IMF1702254.TXT
MDEUH2245751201703                D89828070300PT4U20170302000030SPEAKER ASM                   M IMCTM S9TS02 FTTL  07070IMCT  S9 PTB  00015                    0230 SR        000000000000 FUJITSU TEN (THAILAN170C47U0024024                                                                                                                              *          20170225IMF1702254.TXT
MDEUH2245752201703                D89828070300PT4U20170302000030SPEAKER ASM                   M IMCTM S9TS02 FTTL  07070IMCT  S9 PTB  00015                    0400 SR        000000000000 FUJITSU TEN (THAILAN170C16U0185185                                                                                                                              *          20170225IMF1702254.TXT
MDEUH2245753201703                D89828070300PT4U20170302000030SPEAKER ASM                   M IMCTM S9TS02 FTTL  07070IMCT  S9 PTB  00015                    0900 SR        000000000000 FUJITSU TEN (THAILAN170C47U0025025                                                                                                                              *          20170225IMF1702254.TXT
MDEUH2245754201703                D89828070300PT4U20170302000030SPEAKER ASM                   M IMCTM S9TS02 FTTL  07070IMCT  S9 PTB  00015                    2100 SR        000000000000 FUJITSU TEN (THAILAN170C16U0186186                                                                                                                              *          20170225IMF1702254.TXT
