REC2017020120170202ISUZU                              28     
MAKK71137903201702D4               89805293700P3YK20170213000120SPEAKER ASM                   M IMCTM CM1    FTTL  07070IMKDC 01   PTB00003  K0                1621DES        000000000000 FUJITSU TEN (THAILAN                                                                                                                                            *G         20170201IMF1702016.TXT
MAKK71137904201702D4               89805293700P3YK20170214000150SPEAKER ASM                   M IMCTM CM1    FTTL  07070IMKDC 01   PTB00003  K0                1621DES        000000000000 FUJITSU TEN (THAILAN                                                                                                                                            *G         20170201IMF1702016.TXT
MAKK71137905201702D4               89805293700P3YK20170215000180SPEAKER ASM                   M IMCTM CM1    FTTL  07070IMKDC 01   PTB00003  K0                1621DES        000000000000 FUJITSU TEN (THAILAN                                                                                                                                            *G         20170201IMF1702016.TXT
MAKK71137906201702D4               89805293700P3YK20170216000180SPEAKER ASM                   M IMCTM CM1    FTTL  07070IMKDC 01   PTB00003  K0                1621DES        000000000000 FUJITSU TEN (THAILAN                                                                                                                                            *G         20170201IMF1702016.TXT
MAKK71137907201702D4               89805293700P3YK20170217000180SPEAKER ASM                   M IMCTM CM1    FTTL  07070IMKDC 01   PTB00003  K0                1621DES        000000000000 FUJITSU TEN (THAILAN                                                                                                                                            *G         20170201IMF1702016.TXT
MAKK71137908201702D4               89805294000P3YK20170214000060SPEAKER ASM                   M IMCTM CM1    FTTL  07070IMKDC 01   PTB00015  K0                1621DES        000000000000 FUJITSU TEN (THAILAN                                                                                                                                            *G         20170201IMF1702016.TXT
MAKK71137909201702D4               89805294000P3YK20170215000030SPEAKER ASM                   M IMCTM CM1    FTTL  07070IMKDC 01   PTB00015  K0                1621DES        000000000000 FUJITSU TEN (THAILAN                                                                                                                                            *G         20170201IMF1702016.TXT
MAKK71137910201702D4               89805294000P3YK20170216000030SPEAKER ASM                   M IMCTM CM1    FTTL  07070IMKDC 01   PTB00015  K0                1621DES        000000000000 FUJITSU TEN (THAILAN                                                                                                                                            *G         20170201IMF1702016.TXT
MAKK71137911201702D4               89805294000P3YK20170217000030SPEAKER ASM                   M IMCTM CM1    FTTL  07070IMKDC 01   PTB00015  K0                1621DES        000000000000 FUJITSU TEN (THAILAN                                                                                                                                            *G         20170201IMF1702016.TXT
MAKK71137912201702D4               89805294100P3YK20170214000030SPEAKER ASM                   M IMCTM CM1    FTTL  07070IMKDC 01   PTB00005  K0                1621DES        000000000000 FUJITSU TEN (THAILAN                                                                                                                                            *G         20170201IMF1702016.TXT
MAKK71137913201702D4               89825451200P3YK20170213000060SPEAKER ASM;ROOF              M IMCTM CM1    FTTL  07070IMKDC 01   PTB00015  K0                1621DES        000000000000 FUJITSU TEN (THAILAN                                                                                                                                            *G         20170201IMF1702016.TXT
MAKK71137914201702D4               89825451200P3YK20170214000060SPEAKER ASM;ROOF              M IMCTM CM1    FTTL  07070IMKDC 01   PTB00015  K0                1621DES        000000000000 FUJITSU TEN (THAILAN                                                                                                                                            *G         20170201IMF1702016.TXT
MAKK71137915201702D4               89825451200P3YK20170215000030SPEAKER ASM;ROOF              M IMCTM CM1    FTTL  07070IMKDC 01   PTB00015  K0                1621DES        000000000000 FUJITSU TEN (THAILAN                                                                                                                                            *G         20170201IMF1702016.TXT
MAKK71137916201702D4               89825451200P3YK20170216000060SPEAKER ASM;ROOF              M IMCTM CM1    FTTL  07070IMKDC 01   PTB00015  K0                1621DES        000000000000 FUJITSU TEN (THAILAN                                                                                                                                            *G         20170201IMF1702016.TXT
MAKK71137917201702D4               89825451200P3YK20170217000030SPEAKER ASM;ROOF              M IMCTM CM1    FTTL  07070IMKDC 01   PTB00015  K0                1621DES        000000000000 FUJITSU TEN (THAILAN                                                                                                                                            *G         20170201IMF1702016.TXT
MAKK71137918201702D4               89828070100P3YK20170213000150SPEAKER ASM                   M IMCTM CM1    FTTL  07070IMKDC 01 PTB  00003  K0                1621DES        000000000000 FUJITSU TEN (THAILAN                                                                                                                                            *G         20170201IMF1702016.TXT
MAKK71137919201702D4               89828070100P3YK20170214000150SPEAKER ASM                   M IMCTM CM1    FTTL  07070IMKDC 01 PTB  00003  K0                1621DES        000000000000 FUJITSU TEN (THAILAN                                                                                                                                            *G         20170201IMF1702016.TXT
MAKK71137920201702D4               89828070100P3YK20170215000120SPEAKER ASM                   M IMCTM CM1    FTTL  07070IMKDC 01 PTB  00003  K0                1621DES        000000000000 FUJITSU TEN (THAILAN                                                                                                                                            *G         20170201IMF1702016.TXT
MAKK71137921201702D4               89828070100P3YK20170216000120SPEAKER ASM                   M IMCTM CM1    FTTL  07070IMKDC 01 PTB  00003  K0                1621DES        000000000000 FUJITSU TEN (THAILAN                                                                                                                                            *G         20170201IMF1702016.TXT
MAKK71137922201702D4               89828070100P3YK20170217000150SPEAKER ASM                   M IMCTM CM1    FTTL  07070IMKDC 01 PTB  00003  K0                1621DES        000000000000 FUJITSU TEN (THAILAN                                                                                                                                            *G         20170201IMF1702016.TXT
MAKK71137923201702D4               89828070200P3YK20170213000090SPEAKER ASM                   M IMCTM CM1    FTTL  07070IMKDC 01 PTB  00005  K0                1621DES        000000000000 FUJITSU TEN (THAILAN                                                                                                                                            *G         20170201IMF1702016.TXT
MAKK71137924201702D4               89828070200P3YK20170214000060SPEAKER ASM                   M IMCTM CM1    FTTL  07070IMKDC 01 PTB  00005  K0                1621DES        000000000000 FUJITSU TEN (THAILAN                                                                                                                                            *G         20170201IMF1702016.TXT
MAKK71137925201702D4               89828070200P3YK20170215000030SPEAKER ASM                   M IMCTM CM1    FTTL  07070IMKDC 01 PTB  00005  K0                1621DES        000000000000 FUJITSU TEN (THAILAN                                                                                                                                            *G         20170201IMF1702016.TXT
MAKK71137926201702D4               89828070200P3YK20170216000030SPEAKER ASM                   M IMCTM CM1    FTTL  07070IMKDC 01 PTB  00005  K0                1621DES        000000000000 FUJITSU TEN (THAILAN                                                                                                                                            *G         20170201IMF1702016.TXT
MAKK71137927201702D4               89828070300P3YK20170213000150SPEAKER ASM                   M IMCTM CM1    FTTL  07070IMKDC 01 PTB  00015  K0                1621DES        000000000000 FUJITSU TEN (THAILAN                                                                                                                                            *G         20170201IMF1702016.TXT
MAKK71137928201702D4               89828070300P3YK20170214000060SPEAKER ASM                   M IMCTM CM1    FTTL  07070IMKDC 01 PTB  00015  K0                1621DES        000000000000 FUJITSU TEN (THAILAN                                                                                                                                            *G         20170201IMF1702016.TXT
MAKK71137929201702D4               89828070300P3YK20170215000030SPEAKER ASM                   M IMCTM CM1    FTTL  07070IMKDC 01 PTB  00015  K0                1621DES        000000000000 FUJITSU TEN (THAILAN                                                                                                                                            *G         20170201IMF1702016.TXT
MAKK71137930201702D4               89828070300P3YK20170216000030SPEAKER ASM                   M IMCTM CM1    FTTL  07070IMKDC 01 PTB  00015  K0                1621DES        000000000000 FUJITSU TEN (THAILAN                                                                                                                                            *G         20170201IMF1702016.TXT
