REC2017022820170228ISUZU                              51     
MDDDH2272236201703                D89821984430PT1D20170304000030RADIO;AM/FM,CD                M IMCTM S5NC06 FTTL  07070IMCT  S5 PTB  00005                    0900 SR        000000000000 FUJITSU TEN (THAILAN170KNFL0028028                                                                                                                              *          20170228IMF1702285.TXT
MDDDH2272237201703                D89821984430PT1D20170304000030RADIO;AM/FM,CD                M IMCTM S5NC06 FTTL  07070IMCT  S5 PTB  00005                    1600 SR        000000000000 FUJITSU TEN (THAILAN170KPAL0083083                                                                                                                              *          20170228IMF1702285.TXT
MDDDH2272238201703                D89828070100PV1D20170304000060SPEAKER ASM                   M IMCTM S5MB11 FTTL  07070IMCT  S5 PTB  00004                    0900 SR        000000000000 FUJITSU TEN (THAILAN170KNFL0028028                                                                                                                              *          20170228IMF1702285.TXT
MDDDH2272239201703                D89828070100PV1D20170304000060SPEAKER ASM                   M IMCTM S5MB11 FTTL  07070IMCT  S5 PTB  00004                    1600 SR        000000000000 FUJITSU TEN (THAILAN170KPAL0083083                                                                                                                              *          20170228IMF1702285.TXT
MDDUH2256882201703                D89828070100PT4U20170303000030SPEAKER ASM                   M IMCTM S0FL05 FTTL  07070IMCT  S0 PTB  00004                    2230 SR        000000000000 FUJITSU TEN (THAILAN180LUDU0044044                                                                                                                              *          20170228IMF1702285.TXT
MDDUH2256883201703                D89828070100PT4U20170304000030SPEAKER ASM                   M IMCTM S0FL05 FTTL  07070IMCT  S0 PTB  00004                    0400 SR        000000000000 FUJITSU TEN (THAILAN180LUDU0045045                                                                                                                              *          20170228IMF1702285.TXT
MDDUH2256884201703                D89828070100PT4U20170304000060SPEAKER ASM                   M IMCTM S0FL05 FTTL  07070IMCT  S0 PTB  00004                    1300 SR        000000000000 FUJITSU TEN (THAILAN180LUCU0012012180LUDU0046046                                                                                                                *          20170228IMF1702285.TXT
MDDUH2256885201703                D89828070100PT4U20170304000030SPEAKER ASM                   M IMCTM S0FL05 FTTL  07070IMCT  S0 PTB  00004                    2100 SR        000000000000 FUJITSU TEN (THAILAN180LUDU0047047                                                                                                                              *          20170228IMF1702285.TXT
MDDUH2256886201703                D89828070200PV4U20170303000030SPEAKER ASM                   M IMCTM S0FR05 FTTL  07070IMCT  S0 PTB  00005                    2230 SR        000000000000 FUJITSU TEN (THAILAN180LUDU0044044                                                                                                                              *          20170228IMF1702285.TXT
MDDUH2256887201703                D89828070200PV4U20170304000030SPEAKER ASM                   M IMCTM S0FR05 FTTL  07070IMCT  S0 PTB  00005                    0400 SR        000000000000 FUJITSU TEN (THAILAN180LUDU0045045                                                                                                                              *          20170228IMF1702285.TXT
MDDUH2256888201703                D89828070200PV4U20170304000060SPEAKER ASM                   M IMCTM S0FR05 FTTL  07070IMCT  S0 PTB  00005                    1300 SR        000000000000 FUJITSU TEN (THAILAN180LUCU0012012180LUDU0046046                                                                                                                *          20170228IMF1702285.TXT
MDDUH2256889201703                D89828070200PV4U20170304000030SPEAKER ASM                   M IMCTM S0FR05 FTTL  07070IMCT  S0 PTB  00005                    2100 SR        000000000000 FUJITSU TEN (THAILAN180LUDU0047047                                                                                                                              *          20170228IMF1702285.TXT
MDDUH2256890201703                D89828070300PT4U20170303000030SPEAKER ASM                   M IMCTM S9TS02 FTTL  07070IMCT  S9 PTB  00015                    2230 SR        000000000000 FUJITSU TEN (THAILAN180LUDU0044044                                                                                                                              *          20170228IMF1702285.TXT
MDDUH2256891201703                D89828070300PT4U20170304000030SPEAKER ASM                   M IMCTM S9TS02 FTTL  07070IMCT  S9 PTB  00015                    0400 SR        000000000000 FUJITSU TEN (THAILAN180LUDU0045045                                                                                                                              *          20170228IMF1702285.TXT
MDDUH2256892201703                D89828070300PT4U20170304000060SPEAKER ASM                   M IMCTM S9TS02 FTTL  07070IMCT  S9 PTB  00015                    1300 SR        000000000000 FUJITSU TEN (THAILAN180LUCU0012012180LUDU0046046                                                                                                                *          20170228IMF1702285.TXT
MDDUH2256893201703                D89828070300PT4U20170304000030SPEAKER ASM                   M IMCTM S9TS02 FTTL  07070IMCT  S9 PTB  00015                    2100 SR        000000000000 FUJITSU TEN (THAILAN180LUDU0047047                                                                                                                              *          20170228IMF1702285.TXT
MDDUH2256894201703                D89835097900PT4U20170304000015RADIO;ASM DVD                 M IMCTM S9CO001FTTL  07070IMCT  S9 PTB  00003                    1300 SR        000000000000 FUJITSU TEN (THAILAN180LUCU0012012                                                                                                                              *          20170228IMF1702285.TXT
MDEDH2387427201703                D89805293700PV1D20170304000030SPEAKER ASM                   M IMCTM S5MB11 FTTL  07070IMCT  S5 PTB  00003                    1300 SR        000000000000 FUJITSU TEN (THAILAN15018FL0101101                                                                                                                              *          20170228IMF1702285.TXT
MDEDH2387428201703                D89828070100PV1D20170303000150SPEAKER ASM                   M IMCTM S5MB11 FTTL  07070IMCT  S5 PTB  00004                    2230 SR        000000000000 FUJITSU TEN (THAILAN17034RL000500517042PL000200217054PL003303317061PL001301317069ML0001001                                                                      *          20170228IMF1702285.TXT
MDEDH2387429201703                D89828070100PV1D20170304000060SPEAKER ASM                   M IMCTM S5MB11 FTTL  07070IMCT  S5 PTB  00004                    0230 SR        000000000000 FUJITSU TEN (THAILAN17054PL003403417061PL0014014                                                                                                                *          20170228IMF1702285.TXT
MDEDH2387430201703                D89828070100PV1D20170304000150SPEAKER ASM                   M IMCTM S5MB11 FTTL  07070IMCT  S5 PTB  00004                    0400 SR        000000000000 FUJITSU TEN (THAILAN17031ML001001117041PL000700717054PL0035036                                                                                                  *          20170228IMF1702285.TXT
MDEDH2387431201703                D89828070100PV1D20170304000060SPEAKER ASM                   M IMCTM S5MB11 FTTL  07070IMCT  S5 PTB  00004                    0900 SR        000000000000 FUJITSU TEN (THAILAN17041PL000800817066QL0001001                                                                                                                *          20170228IMF1702285.TXT
MDEDH2387432201703                D89828070100PV1D20170304000120SPEAKER ASM                   M IMCTM S5MB11 FTTL  07070IMCT  S5 PTB  00004                    1300 SR        000000000000 FUJITSU TEN (THAILAN17036PL000300317054PL003703717080NL0012013                                                                                                  *          20170228IMF1702285.TXT
MDEDH2387433201703                D89828070100PV4D20170304000030SPEAKER ASM                   M IMCTM S0FL05 FTTL  07070IMCT  S0 PTB  00004                    0400 SR        000000000000 FUJITSU TEN (THAILAN17069MU0001001                                                                                                                              *          20170228IMF1702285.TXT
MDEDH2387434201703                D89828070100PV4D20170304000030SPEAKER ASM                   M IMCTM S0FL05 FTTL  07070IMCT  S0 PTB  00004                    1300 SR        000000000000 FUJITSU TEN (THAILAN17050RU0008008                                                                                                                              *          20170228IMF1702285.TXT
MDEDH2387435201703                D89828070100PV4D20170304000030SPEAKER ASM                   M IMCTM S0FL05 FTTL  07070IMCT  S0 PTB  00004                    1600 SR        000000000000 FUJITSU TEN (THAILAN17032QU0005005                                                                                                                              *          20170228IMF1702285.TXT
MDEDH2387436201703                D89828070200PV1D20170303000030SPEAKER ASM                   M IMCTM S5MA14 FTTL  07070IMCT  S5 PTB  00005                    2230 SR        000000000000 FUJITSU TEN (THAILAN17042PL0002002                                                                                                                              *          20170228IMF1702285.TXT
MDEDH2387437201703                D89828070200PV1D20170304000060SPEAKER ASM                   M IMCTM S5MA14 FTTL  07070IMCT  S5 PTB  00005                    0400 SR        000000000000 FUJITSU TEN (THAILAN17031ML0010011                                                                                                                              *          20170228IMF1702285.TXT
MDEDH2387438201703                D89828070200PV1D20170304000090SPEAKER ASM                   M IMCTM S5MA14 FTTL  07070IMCT  S5 PTB  00005                    1300 SR        000000000000 FUJITSU TEN (THAILAN17036PL000300317080NL0012013                                                                                                                *          20170228IMF1702285.TXT
MDEDH2387439201703                D89828070200PV4D20170304000030SPEAKER ASM                   M IMCTM S0FR05 FTTL  07070IMCT  S0 PTB  00005                    1300 SR        000000000000 FUJITSU TEN (THAILAN17050RU0008008                                                                                                                              *          20170228IMF1702285.TXT
MDEDH2387440201703                D89828070200PV4D20170304000030SPEAKER ASM                   M IMCTM S0FR05 FTTL  07070IMCT  S0 PTB  00005                    1600 SR        000000000000 FUJITSU TEN (THAILAN17032QU0005005                                                                                                                              *          20170228IMF1702285.TXT
MDEDH2387441201703                D89828070300PT1D20170303000060SPEAKER ASM                   M IMCTM S5NB082FTTL  07070IMCT  S5 PTB  00015                    2230 SR        000000000000 FUJITSU TEN (THAILAN17042PL000200217069ML0001001                                                                                                                *          20170228IMF1702285.TXT
MDEDH2387442201703                D89828070300PT1D20170304000060SPEAKER ASM                   M IMCTM S5NB082FTTL  07070IMCT  S5 PTB  00015                    0400 SR        000000000000 FUJITSU TEN (THAILAN17031ML0010011                                                                                                                              *          20170228IMF1702285.TXT
MDEDH2387443201703                D89828070300PT1D20170304000090SPEAKER ASM                   M IMCTM S5NB082FTTL  07070IMCT  S5 PTB  00015                    1300 SR        000000000000 FUJITSU TEN (THAILAN17036PL000300317080NL0012013                                                                                                                *          20170228IMF1702285.TXT
MDEDH2387444201703                D89828070300PT4D20170304000030SPEAKER ASM                   M IMCTM S9TS02 FTTL  07070IMCT  S9 PTB  00015                    0400 SR        000000000000 FUJITSU TEN (THAILAN17069MU0001001                                                                                                                              *          20170228IMF1702285.TXT
MDEDH2387445201703                D89828070300PT4D20170304000030SPEAKER ASM                   M IMCTM S9TS02 FTTL  07070IMCT  S9 PTB  00015                    1300 SR        000000000000 FUJITSU TEN (THAILAN17050RU0008008                                                                                                                              *          20170228IMF1702285.TXT
MDEDH2387446201703                D89828070300PT4D20170304000030SPEAKER ASM                   M IMCTM S9TS02 FTTL  07070IMCT  S9 PTB  00015                    1600 SR        000000000000 FUJITSU TEN (THAILAN17032QU0005005                                                                                                                              *          20170228IMF1702285.TXT
MDEDH2387447201703                D89829645400PT4D20170304000015RADIO;ASM DVD                 M IMCTM S9CO001FTTL  07070IMCT  S9 PTB  00003                    1300 SR        000000000000 FUJITSU TEN (THAILAN17050RU0008008                                                                                                                              *          20170228IMF1702285.TXT
MDEDH2387448201703                D89831228400PT1D20170303000015RADIO;AM/FM,CD                M IMCTM S5NC06 FTTL  07070IMCT  S5 CPB  00003                    2230 SR        000000000000 FUJITSU TEN (THAILAN17042PL0002002                                                                                                                              *          20170228IMF1702285.TXT
MDEDH2387449201703                D89831228700PT1D20170303000015RADIO;AM/FM,CD                M IMCTM S5NC06 FTTL  07070IMCT  S5 PTB  00003                    2230 SR        000000000000 FUJITSU TEN (THAILAN17069ML0001001                                                                                                                              *          20170228IMF1702285.TXT
MDEDH2387450201703                D89831228700PT4D20170304000015RADIO;AM/FM,CD                M IMCTM S9CO001FTTL  07070IMCT  S9 PTB  00003                    0400 SR        000000000000 FUJITSU TEN (THAILAN17069MU0001001                                                                                                                              *          20170228IMF1702285.TXT
MDEDH2387451201703                D89831229200PT4D20170304000015RADIO;AM/FM,CD                M IMCTM S9CO001FTTL  07070IMCT  S9 PTB  00003                    1600 SR        000000000000 FUJITSU TEN (THAILAN17032QU0005005                                                                                                                              *          20170228IMF1702285.TXT
MDEUH2253118201703                D89828070100PT4U20170304000030SPEAKER ASM                   M IMCTM S0FL05 FTTL  07070IMCT  S0 PTB  00004                    0230 SR        000000000000 FUJITSU TEN (THAILAN170C16U0191191                                                                                                                              *          20170228IMF1702285.TXT
MDEUH2253119201703                D89828070100PT4U20170304000030SPEAKER ASM                   M IMCTM S0FL05 FTTL  07070IMCT  S0 PTB  00004                    0400 SR        000000000000 FUJITSU TEN (THAILAN170C47U0027027                                                                                                                              *          20170228IMF1702285.TXT
MDEUH2253120201703                D89828070100PT4U20170304000030SPEAKER ASM                   M IMCTM S0FL05 FTTL  07070IMCT  S0 PTB  00004                    0900 SR        000000000000 FUJITSU TEN (THAILAN170C16U0192192                                                                                                                              *          20170228IMF1702285.TXT
MDEUH2253121201703                D89828070200PV4U20170304000030SPEAKER ASM                   M IMCTM S0FR05 FTTL  07070IMCT  S0 PTB  00005                    0230 SR        000000000000 FUJITSU TEN (THAILAN170C16U0191191                                                                                                                              *          20170228IMF1702285.TXT
MDEUH2253122201703                D89828070200PV4U20170304000030SPEAKER ASM                   M IMCTM S0FR05 FTTL  07070IMCT  S0 PTB  00005                    0400 SR        000000000000 FUJITSU TEN (THAILAN170C47U0027027                                                                                                                              *          20170228IMF1702285.TXT
MDEUH2253123201703                D89828070200PV4U20170304000030SPEAKER ASM                   M IMCTM S0FR05 FTTL  07070IMCT  S0 PTB  00005                    0900 SR        000000000000 FUJITSU TEN (THAILAN170C16U0192192                                                                                                                              *          20170228IMF1702285.TXT
MDEUH2253124201703                D89828070300PT4U20170304000030SPEAKER ASM                   M IMCTM S9TS02 FTTL  07070IMCT  S9 PTB  00015                    0230 SR        000000000000 FUJITSU TEN (THAILAN170C16U0191191                                                                                                                              *          20170228IMF1702285.TXT
MDEUH2253125201703                D89828070300PT4U20170304000030SPEAKER ASM                   M IMCTM S9TS02 FTTL  07070IMCT  S9 PTB  00015                    0400 SR        000000000000 FUJITSU TEN (THAILAN170C47U0027027                                                                                                                              *          20170228IMF1702285.TXT
MDEUH2253126201703                D89828070300PT4U20170304000030SPEAKER ASM                   M IMCTM S9TS02 FTTL  07070IMCT  S9 PTB  00015                    0900 SR        000000000000 FUJITSU TEN (THAILAN170C16U0192192                                                                                                                              *          20170228IMF1702285.TXT
