REC2017022120170221ISUZU                              53     
MDDDH2267033201702                D89821984430PT1D20170225000030RADIO;AM/FM,CD                M IMCTM S5NC06 FTTL  07070IMCT  S5 PTB  00005                    0230 SR        000000000000 FUJITSU TEN (THAILAN170KNFL0027027                                                                                                                              *          20170221IMF1702214.TXT
MDDDH2267034201702                D89828070100PV1D20170224000060SPEAKER ASM                   M IMCTM S5MB11 FTTL  07070IMCT  S5 PTB  00004                    2100 SR        000000000000 FUJITSU TEN (THAILAN170KRCL0024024                                                                                                                              *          20170221IMF1702214.TXT
MDDDH2267035201702                D89828070100PV1D20170224000060SPEAKER ASM                   M IMCTM S5MB11 FTTL  07070IMCT  S5 PTB  00004                    2230 SR        000000000000 FUJITSU TEN (THAILAN170KRHL0021021                                                                                                                              *          20170221IMF1702214.TXT
MDDDH2267036201702                D89828070100PV1D20170225000060SPEAKER ASM                   M IMCTM S5MB11 FTTL  07070IMCT  S5 PTB  00004                    0230 SR        000000000000 FUJITSU TEN (THAILAN170KNFL0027027                                                                                                                              *          20170221IMF1702214.TXT
MDDDH2267037201702                D89828070100PV1D20170225000060SPEAKER ASM                   M IMCTM S5MB11 FTTL  07070IMCT  S5 PTB  00004                    0400 SR        000000000000 FUJITSU TEN (THAILAN170KPFL0137137                                                                                                                              *          20170221IMF1702214.TXT
MDDDH2267038201702                D89828070100PV1D20170225000060SPEAKER ASM                   M IMCTM S5MB11 FTTL  07070IMCT  S5 PTB  00004                    0900 SR        000000000000 FUJITSU TEN (THAILAN170KRVL0008008                                                                                                                              *          20170221IMF1702214.TXT
MDDDH2267039201702                D89828070200PV1D20170224000060SPEAKER ASM                   M IMCTM S5MA14 FTTL  07070IMCT  S5 PTB  00005                    2100 SR        000000000000 FUJITSU TEN (THAILAN170KRCL0024024                                                                                                                              *          20170221IMF1702214.TXT
MDDDH2267040201702                D89828070200PV1D20170224000060SPEAKER ASM                   M IMCTM S5MA14 FTTL  07070IMCT  S5 PTB  00005                    2230 SR        000000000000 FUJITSU TEN (THAILAN170KRHL0021021                                                                                                                              *          20170221IMF1702214.TXT
MDDDH2267041201702                D89828070200PV1D20170225000060SPEAKER ASM                   M IMCTM S5MA14 FTTL  07070IMCT  S5 PTB  00005                    0900 SR        000000000000 FUJITSU TEN (THAILAN170KRVL0008008                                                                                                                              *          20170221IMF1702214.TXT
MDDDH2267042201702                D89828070300PT1D20170224000060SPEAKER ASM                   M IMCTM S5NB082FTTL  07070IMCT  S5 PTB  00015                    2100 SR        000000000000 FUJITSU TEN (THAILAN170KRCL0024024                                                                                                                              *          20170221IMF1702214.TXT
MDDDH2267043201702                D89828070300PT1D20170224000060SPEAKER ASM                   M IMCTM S5NB082FTTL  07070IMCT  S5 PTB  00015                    2230 SR        000000000000 FUJITSU TEN (THAILAN170KRHL0021021                                                                                                                              *          20170221IMF1702214.TXT
MDDDH2267044201702                D89828070300PT1D20170225000060SPEAKER ASM                   M IMCTM S5NB082FTTL  07070IMCT  S5 PTB  00015                    0400 SR        000000000000 FUJITSU TEN (THAILAN170KPFL0137137                                                                                                                              *          20170221IMF1702214.TXT
MDDDH2267045201702                D89828070300PT1D20170225000060SPEAKER ASM                   M IMCTM S5NB082FTTL  07070IMCT  S5 PTB  00015                    0900 SR        000000000000 FUJITSU TEN (THAILAN170KRVL0008008                                                                                                                              *          20170221IMF1702214.TXT
MDDDH2267046201702                D89831228300PT1D20170225000030RADIO;AM/FM,CD                M IMCTM S5NC06 FTTL  07070IMCT  S5 CPB  00003                    0400 SR        000000000000 FUJITSU TEN (THAILAN170KPFL0137137                                                                                                                              *          20170221IMF1702214.TXT
MDDDH2267047201702                D89831228400PT1D20170224000030RADIO;AM/FM,CD                M IMCTM S5NC06 FTTL  07070IMCT  S5 CPB  00003                    2100 SR        000000000000 FUJITSU TEN (THAILAN170KRCL0024024                                                                                                                              *          20170221IMF1702214.TXT
MDDUH2237127201702                D89828070100PT4U20170225000060SPEAKER ASM                   M IMCTM S0FL05 FTTL  07070IMCT  S0 PTB  00004                    0400 SR        000000000000 FUJITSU TEN (THAILAN180LUDU0033034                                                                                                                              *          20170221IMF1702214.TXT
MDDUH2237128201702                D89828070100PT4U20170225000030SPEAKER ASM                   M IMCTM S0FL05 FTTL  07070IMCT  S0 PTB  00004                    0900 SR        000000000000 FUJITSU TEN (THAILAN180LUDU0035035                                                                                                                              *          20170221IMF1702214.TXT
MDDUH2237129201702                D89828070100PT4U20170225000030SPEAKER ASM                   M IMCTM S0FL05 FTTL  07070IMCT  S0 PTB  00004                    1300 SR        000000000000 FUJITSU TEN (THAILAN180LUDU0036036                                                                                                                              *          20170221IMF1702214.TXT
MDDUH2237130201702                D89828070100PT4U20170225000030SPEAKER ASM                   M IMCTM S0FL05 FTTL  07070IMCT  S0 PTB  00004                    1600 SR        000000000000 FUJITSU TEN (THAILAN180LUCU0001001                                                                                                                              *          20170221IMF1702214.TXT
MDDUH2237131201702                D89828070200PV4U20170225000060SPEAKER ASM                   M IMCTM S0FR05 FTTL  07070IMCT  S0 PTB  00005                    0400 SR        000000000000 FUJITSU TEN (THAILAN180LUDU0033034                                                                                                                              *          20170221IMF1702214.TXT
MDDUH2237132201702                D89828070200PV4U20170225000030SPEAKER ASM                   M IMCTM S0FR05 FTTL  07070IMCT  S0 PTB  00005                    0900 SR        000000000000 FUJITSU TEN (THAILAN180LUDU0035035                                                                                                                              *          20170221IMF1702214.TXT
MDDUH2237133201702                D89828070200PV4U20170225000030SPEAKER ASM                   M IMCTM S0FR05 FTTL  07070IMCT  S0 PTB  00005                    1300 SR        000000000000 FUJITSU TEN (THAILAN180LUDU0036036                                                                                                                              *          20170221IMF1702214.TXT
MDDUH2237134201702                D89828070200PV4U20170225000030SPEAKER ASM                   M IMCTM S0FR05 FTTL  07070IMCT  S0 PTB  00005                    1600 SR        000000000000 FUJITSU TEN (THAILAN180LUCU0001001                                                                                                                              *          20170221IMF1702214.TXT
MDDUH2237135201702                D89828070300PT4U20170225000060SPEAKER ASM                   M IMCTM S9TS02 FTTL  07070IMCT  S9 PTB  00015                    0400 SR        000000000000 FUJITSU TEN (THAILAN180LUDU0033034                                                                                                                              *          20170221IMF1702214.TXT
MDDUH2237136201702                D89828070300PT4U20170225000030SPEAKER ASM                   M IMCTM S9TS02 FTTL  07070IMCT  S9 PTB  00015                    0900 SR        000000000000 FUJITSU TEN (THAILAN180LUDU0035035                                                                                                                              *          20170221IMF1702214.TXT
MDDUH2237137201702                D89828070300PT4U20170225000030SPEAKER ASM                   M IMCTM S9TS02 FTTL  07070IMCT  S9 PTB  00015                    1300 SR        000000000000 FUJITSU TEN (THAILAN180LUDU0036036                                                                                                                              *          20170221IMF1702214.TXT
MDDUH2237138201702                D89828070300PT4U20170225000030SPEAKER ASM                   M IMCTM S9TS02 FTTL  07070IMCT  S9 PTB  00015                    1600 SR        000000000000 FUJITSU TEN (THAILAN180LUCU0001001                                                                                                                              *          20170221IMF1702214.TXT
MDDUH2237139201702                D89835097900PT4U20170225000015RADIO;ASM DVD                 M IMCTM S9CO001FTTL  07070IMCT  S9 PTB  00003                    1600 SR        000000000000 FUJITSU TEN (THAILAN180LUCU0001001                                                                                                                              *          20170221IMF1702214.TXT
MDEDH2320787201702                D89805293700PV1D20170224000030SPEAKER ASM                   M IMCTM S5MB11 FTTL  07070IMCT  S5 PTB  00003                    2230 SR        000000000000 FUJITSU TEN (THAILAN15019FL0156156                                                                                                                              *          20170221IMF1702214.TXT
MDEDH2320788201702                D89805293700PV1D20170225000030SPEAKER ASM                   M IMCTM S5MB11 FTTL  07070IMCT  S5 PTB  00003                    1300 SR        000000000000 FUJITSU TEN (THAILAN15021FL0015015                                                                                                                              *          20170221IMF1702214.TXT
MDEDH2320789201702                D89805293700PV1D20170225000030SPEAKER ASM                   M IMCTM S5MB11 FTTL  07070IMCT  S5 PTB  00003                    1600 SR        000000000000 FUJITSU TEN (THAILAN15021FL0016016                                                                                                                              *          20170221IMF1702214.TXT
MDEDH2320790201702                D89805294000PT1D20170225000030SPEAKER ASM                   M IMCTM S5NB082FTTL  07070IMCT  S5 PTB  00015                    1300 SR        000000000000 FUJITSU TEN (THAILAN15021FL0015015                                                                                                                              *          20170221IMF1702214.TXT
MDEDH2320791201702                D89805294000PT1D20170225000030SPEAKER ASM                   M IMCTM S5NB082FTTL  07070IMCT  S5 PTB  00015                    1600 SR        000000000000 FUJITSU TEN (THAILAN15021FL0016016                                                                                                                              *          20170221IMF1702214.TXT
MDEDH2320792201702                D89805294100PV1D20170225000030SPEAKER ASM                   M IMCTM S5MA14 FTTL  07070IMCT  S5 PTB  00005                    1300 SR        000000000000 FUJITSU TEN (THAILAN15021FL0015015                                                                                                                              *          20170221IMF1702214.TXT
MDEDH2320793201702                D89805294100PV1D20170225000030SPEAKER ASM                   M IMCTM S5MA14 FTTL  07070IMCT  S5 PTB  00005                    1600 SR        000000000000 FUJITSU TEN (THAILAN15021FL0016016                                                                                                                              *          20170221IMF1702214.TXT
MDEDH2320794201702                D89828070100PV1D20170224000090SPEAKER ASM                   M IMCTM S5MB11 FTTL  07070IMCT  S5 PTB  00004                    2230 SR        000000000000 FUJITSU TEN (THAILAN16043KL000300317055NL0010011                                                                                                                *          20170221IMF1702214.TXT
MDEDH2320795201702                D89828070100PV1D20170225000060SPEAKER ASM                   M IMCTM S5MB11 FTTL  07070IMCT  S5 PTB  00004                    0900 SR        000000000000 FUJITSU TEN (THAILAN17062NL000500517075PL0042042                                                                                                                *          20170221IMF1702214.TXT
MDEDH2320796201702                D89828070100PV1D20170225000120SPEAKER ASM                   M IMCTM S5MB11 FTTL  07070IMCT  S5 PTB  00004                    1300 SR        000000000000 FUJITSU TEN (THAILAN17006ML000300317057ML000500517061PL000100117075PL0043043                                                                                    *          20170221IMF1702214.TXT
MDEDH2320797201702                D89828070100PV4D20170224000030SPEAKER ASM                   M IMCTM S0FL05 FTTL  07070IMCT  S0 PTB  00004                    2230 SR        000000000000 FUJITSU TEN (THAILAN17080NU0029029                                                                                                                              *          20170221IMF1702214.TXT
MDEDH2320798201702                D89828070100PV4D20170225000030SPEAKER ASM                   M IMCTM S0FL05 FTTL  07070IMCT  S0 PTB  00004                    1300 SR        000000000000 FUJITSU TEN (THAILAN17054PU0001001                                                                                                                              *          20170221IMF1702214.TXT
MDEDH2320799201702                D89828070200PV4D20170224000030SPEAKER ASM                   M IMCTM S0FR05 FTTL  07070IMCT  S0 PTB  00005                    2230 SR        000000000000 FUJITSU TEN (THAILAN17080NU0029029                                                                                                                              *          20170221IMF1702214.TXT
MDEDH2320800201702                D89828070300PT1D20170224000090SPEAKER ASM                   M IMCTM S5NB082FTTL  07070IMCT  S5 PTB  00015                    2230 SR        000000000000 FUJITSU TEN (THAILAN16043KL000300317055NL0010011                                                                                                                *          20170221IMF1702214.TXT
MDEDH2320801201702                D89828070300PT1D20170225000030SPEAKER ASM                   M IMCTM S5NB082FTTL  07070IMCT  S5 PTB  00015                    0900 SR        000000000000 FUJITSU TEN (THAILAN17062NL0005005                                                                                                                              *          20170221IMF1702214.TXT
MDEDH2320802201702                D89828070300PT1D20170225000030SPEAKER ASM                   M IMCTM S5NB082FTTL  07070IMCT  S5 PTB  00015                    1300 SR        000000000000 FUJITSU TEN (THAILAN17057ML0005005                                                                                                                              *          20170221IMF1702214.TXT
MDEDH2320803201702                D89828070300PT4D20170224000030SPEAKER ASM                   M IMCTM S9TS02 FTTL  07070IMCT  S9 PTB  00015                    2230 SR        000000000000 FUJITSU TEN (THAILAN17080NU0029029                                                                                                                              *          20170221IMF1702214.TXT
MDEDH2320804201702                D89829645700PT1D20170224000030RADIO;ASM DVD                 M IMCTM S5NC06 FTTL  07070IMCT  S5 X    00003                    2230 SR        000000000000 FUJITSU TEN (THAILAN17055NL0010011                                                                                                                              *          20170221IMF1702214.TXT
MDEDH2320805201702                D89831228600PT1D20170225000015RADIO;AM/FM,CD                M IMCTM S5NC06 FTTL  07070IMCT  S5 PTB  00003                    0900 SR        000000000000 FUJITSU TEN (THAILAN17062NL0005005                                                                                                                              *          20170221IMF1702214.TXT
MDEUH2238704201702                D89828070100PT4U20170224000060SPEAKER ASM                   M IMCTM S0FL05 FTTL  07070IMCT  S0 PTB  00004                    2230 SR        000000000000 FUJITSU TEN (THAILAN170C16U0178179                                                                                                                              *          20170221IMF1702214.TXT
MDEUH2238705201702                D89828070100PT4U20170225000030SPEAKER ASM                   M IMCTM S0FL05 FTTL  07070IMCT  S0 PTB  00004                    1300 SR        000000000000 FUJITSU TEN (THAILAN170C16U0180180                                                                                                                              *          20170221IMF1702214.TXT
MDEUH2238706201702                D89828070200PV4U20170224000060SPEAKER ASM                   M IMCTM S0FR05 FTTL  07070IMCT  S0 PTB  00005                    2230 SR        000000000000 FUJITSU TEN (THAILAN170C16U0178179                                                                                                                              *          20170221IMF1702214.TXT
MDEUH2238707201702                D89828070200PV4U20170225000030SPEAKER ASM                   M IMCTM S0FR05 FTTL  07070IMCT  S0 PTB  00005                    1300 SR        000000000000 FUJITSU TEN (THAILAN170C16U0180180                                                                                                                              *          20170221IMF1702214.TXT
MDEUH2238708201702                D89828070300PT4U20170224000060SPEAKER ASM                   M IMCTM S9TS02 FTTL  07070IMCT  S9 PTB  00015                    2230 SR        000000000000 FUJITSU TEN (THAILAN170C16U0178179                                                                                                                              *          20170221IMF1702214.TXT
MDEUH2238709201702                D89828070300PT4U20170225000030SPEAKER ASM                   M IMCTM S9TS02 FTTL  07070IMCT  S9 PTB  00015                    1300 SR        000000000000 FUJITSU TEN (THAILAN170C16U0180180                                                                                                                              *          20170221IMF1702214.TXT
