REC2017022720170227ISUZU                              69     
MDDDH2271328201703                D89821984430PT1D20170303000030RADIO;AM/FM,CD                M IMCTM S5NC06 FTTL  07070IMCT  S5 PTB  00005                    0230 SR        000000000000 FUJITSU TEN (THAILAN170KNDL0075075                                                                                                                              *          20170227IMF1702274.TXT
MDDDH2271329201703                D89828070100PV1D20170303000060SPEAKER ASM                   M IMCTM S5MB11 FTTL  07070IMCT  S5 PTB  00004                    0230 SR        000000000000 FUJITSU TEN (THAILAN170KNDL0075075                                                                                                                              *          20170227IMF1702274.TXT
MDDUH2253783201703                D89828070100PT4U20170302000030SPEAKER ASM                   M IMCTM S0FL05 FTTL  07070IMCT  S0 PTB  00004                    2230 SR        000000000000 FUJITSU TEN (THAILAN180LUDU0041041                                                                                                                              *          20170227IMF1702274.TXT
MDDUH2253784201703                D89828070100PT4U20170303000030SPEAKER ASM                   M IMCTM S0FL05 FTTL  07070IMCT  S0 PTB  00004                    0900 SR        000000000000 FUJITSU TEN (THAILAN180LUCU0011011                                                                                                                              *          20170227IMF1702274.TXT
MDDUH2253785201703                D89828070100PT4U20170303000060SPEAKER ASM                   M IMCTM S0FL05 FTTL  07070IMCT  S0 PTB  00004                    1600 SR        000000000000 FUJITSU TEN (THAILAN180LUDU0042043                                                                                                                              *          20170227IMF1702274.TXT
MDDUH2253786201703                D89828070200PV4U20170302000030SPEAKER ASM                   M IMCTM S0FR05 FTTL  07070IMCT  S0 PTB  00005                    2230 SR        000000000000 FUJITSU TEN (THAILAN180LUDU0041041                                                                                                                              *          20170227IMF1702274.TXT
MDDUH2253787201703                D89828070200PV4U20170303000030SPEAKER ASM                   M IMCTM S0FR05 FTTL  07070IMCT  S0 PTB  00005                    0900 SR        000000000000 FUJITSU TEN (THAILAN180LUCU0011011                                                                                                                              *          20170227IMF1702274.TXT
MDDUH2253788201703                D89828070200PV4U20170303000060SPEAKER ASM                   M IMCTM S0FR05 FTTL  07070IMCT  S0 PTB  00005                    1600 SR        000000000000 FUJITSU TEN (THAILAN180LUDU0042043                                                                                                                              *          20170227IMF1702274.TXT
MDDUH2253789201703                D89828070300PT4U20170302000030SPEAKER ASM                   M IMCTM S9TS02 FTTL  07070IMCT  S9 PTB  00015                    2230 SR        000000000000 FUJITSU TEN (THAILAN180LUDU0041041                                                                                                                              *          20170227IMF1702274.TXT
MDDUH2253790201703                D89828070300PT4U20170303000030SPEAKER ASM                   M IMCTM S9TS02 FTTL  07070IMCT  S9 PTB  00015                    0900 SR        000000000000 FUJITSU TEN (THAILAN180LUCU0011011                                                                                                                              *          20170227IMF1702274.TXT
MDDUH2253791201703                D89828070300PT4U20170303000060SPEAKER ASM                   M IMCTM S9TS02 FTTL  07070IMCT  S9 PTB  00015                    1600 SR        000000000000 FUJITSU TEN (THAILAN180LUDU0042043                                                                                                                              *          20170227IMF1702274.TXT
MDDUH2253792201703                D89835097900PT4U20170303000015RADIO;ASM DVD                 M IMCTM S9CO001FTTL  07070IMCT  S9 PTB  00003                    0900 SR        000000000000 FUJITSU TEN (THAILAN180LUCU0011011                                                                                                                              *          20170227IMF1702274.TXT
MDEDH2375741201703                D89805293700PV1D20170302000090SPEAKER ASM                   M IMCTM S5MB11 FTTL  07070IMCT  S5 PTB  00003                    2230 SR        000000000000 FUJITSU TEN (THAILAN15018FL010010015019FL0163164                                                                                                                *          20170227IMF1702274.TXT
MDEDH2375742201703                D89828070100PV1D20170302000030SPEAKER ASM                   M IMCTM S5MB11 FTTL  07070IMCT  S5 PTB  00004                    2230 SR        000000000000 FUJITSU TEN (THAILAN17061PL0011011                                                                                                                              *          20170227IMF1702274.TXT
MDEDH2375743201703                D89828070100PV1D20170303000030SPEAKER ASM                   M IMCTM S5MB11 FTTL  07070IMCT  S5 PTB  00004                    0230 SR        000000000000 FUJITSU TEN (THAILAN16055KL0003003                                                                                                                              *          20170227IMF1702274.TXT
MDEDH2375744201703                D89828070100PV1D20170303000150SPEAKER ASM                   M IMCTM S5MB11 FTTL  07070IMCT  S5 PTB  00004                    0400 SR        000000000000 FUJITSU TEN (THAILAN17018ML000901017029ML001101117054PL0026027                                                                                                  *          20170227IMF1702274.TXT
MDEDH2375745201703                D89828070100PV1D20170303000120SPEAKER ASM                   M IMCTM S5MB11 FTTL  07070IMCT  S5 PTB  00004                    0900 SR        000000000000 FUJITSU TEN (THAILAN17029ML001201217041PL000500517054PL0028029                                                                                                  *          20170227IMF1702274.TXT
MDEDH2375746201703                D89828070100PV1D20170303000150SPEAKER ASM                   M IMCTM S5MB11 FTTL  07070IMCT  S5 PTB  00004                    1300 SR        000000000000 FUJITSU TEN (THAILAN17013NL000200217041PL000600617054PL003003117068ML0005005                                                                                    *          20170227IMF1702274.TXT
MDEDH2375747201703                D89828070100PV1D20170303000150SPEAKER ASM                   M IMCTM S5MB11 FTTL  07070IMCT  S5 PTB  00004                    1600 SR        000000000000 FUJITSU TEN (THAILAN17034PL002002017054PL003203217057PL000300317061PL001201217085ML0008008                                                                      *          20170227IMF1702274.TXT
MDEDH2375748201703                D89828070100PV1D20170303000060SPEAKER ASM                   M IMCTM S5MB11 FTTL  07070IMCT  S5 PTB  00004                    2100 SR        000000000000 FUJITSU TEN (THAILAN17026RL000100117034RL0004004                                                                                                                *          20170227IMF1702274.TXT
MDEDH2375749201703                D89828070100PV4D20170303000030SPEAKER ASM                   M IMCTM S0FL05 FTTL  07070IMCT  S0 PTB  00004                    0230 SR        000000000000 FUJITSU TEN (THAILAN16059KU0002002                                                                                                                              *          20170227IMF1702274.TXT
MDEDH2375750201703                D89828070100PV4D20170303000030SPEAKER ASM                   M IMCTM S0FL05 FTTL  07070IMCT  S0 PTB  00004                    0900 SR        000000000000 FUJITSU TEN (THAILAN17050RU0007007                                                                                                                              *          20170227IMF1702274.TXT
MDEDH2375751201703                D89828070100PV4D20170303000030SPEAKER ASM                   M IMCTM S0FL05 FTTL  07070IMCT  S0 PTB  00004                    1600 SR        000000000000 FUJITSU TEN (THAILAN17054PU0004004                                                                                                                              *          20170227IMF1702274.TXT
MDEDH2375752201703                D89828070100PV4D20170303000030SPEAKER ASM                   M IMCTM S0FL05 FTTL  07070IMCT  S0 PTB  00004                    2100 SR        000000000000 FUJITSU TEN (THAILAN16059KU0003003                                                                                                                              *          20170227IMF1702274.TXT
MDEDH2375753201703                D89828070200PV1D20170303000030SPEAKER ASM                   M IMCTM S5MA14 FTTL  07070IMCT  S5 PTB  00005                    0230 SR        000000000000 FUJITSU TEN (THAILAN16055KL0003003                                                                                                                              *          20170227IMF1702274.TXT
MDEDH2375754201703                D89828070200PV1D20170303000090SPEAKER ASM                   M IMCTM S5MA14 FTTL  07070IMCT  S5 PTB  00005                    0400 SR        000000000000 FUJITSU TEN (THAILAN17018ML000901017029ML0011011                                                                                                                *          20170227IMF1702274.TXT
MDEDH2375755201703                D89828070200PV1D20170303000030SPEAKER ASM                   M IMCTM S5MA14 FTTL  07070IMCT  S5 PTB  00005                    0900 SR        000000000000 FUJITSU TEN (THAILAN17029ML0012012                                                                                                                              *          20170227IMF1702274.TXT
MDEDH2375756201703                D89828070200PV1D20170303000030SPEAKER ASM                   M IMCTM S5MA14 FTTL  07070IMCT  S5 PTB  00005                    1300 SR        000000000000 FUJITSU TEN (THAILAN17013NL0002002                                                                                                                              *          20170227IMF1702274.TXT
MDEDH2375757201703                D89828070200PV1D20170303000060SPEAKER ASM                   M IMCTM S5MA14 FTTL  07070IMCT  S5 PTB  00005                    1600 SR        000000000000 FUJITSU TEN (THAILAN17034PL002002017085ML0008008                                                                                                                *          20170227IMF1702274.TXT
MDEDH2375758201703                D89828070200PV1D20170303000030SPEAKER ASM                   M IMCTM S5MA14 FTTL  07070IMCT  S5 PTB  00005                    2100 SR        000000000000 FUJITSU TEN (THAILAN17026RL0001001                                                                                                                              *          20170227IMF1702274.TXT
MDEDH2375759201703                D89828070200PV4D20170303000030SPEAKER ASM                   M IMCTM S0FR05 FTTL  07070IMCT  S0 PTB  00005                    0230 SR        000000000000 FUJITSU TEN (THAILAN16059KU0002002                                                                                                                              *          20170227IMF1702274.TXT
MDEDH2375760201703                D89828070200PV4D20170303000030SPEAKER ASM                   M IMCTM S0FR05 FTTL  07070IMCT  S0 PTB  00005                    0900 SR        000000000000 FUJITSU TEN (THAILAN17050RU0007007                                                                                                                              *          20170227IMF1702274.TXT
MDEDH2375761201703                D89828070200PV4D20170303000030SPEAKER ASM                   M IMCTM S0FR05 FTTL  07070IMCT  S0 PTB  00005                    2100 SR        000000000000 FUJITSU TEN (THAILAN16059KU0003003                                                                                                                              *          20170227IMF1702274.TXT
MDEDH2375762201703                D89828070300PT1D20170303000030SPEAKER ASM                   M IMCTM S5NB082FTTL  07070IMCT  S5 PTB  00015                    0230 SR        000000000000 FUJITSU TEN (THAILAN16055KL0003003                                                                                                                              *          20170227IMF1702274.TXT
MDEDH2375763201703                D89828070300PT1D20170303000090SPEAKER ASM                   M IMCTM S5NB082FTTL  07070IMCT  S5 PTB  00015                    0400 SR        000000000000 FUJITSU TEN (THAILAN17018ML000901017029ML0011011                                                                                                                *          20170227IMF1702274.TXT
MDEDH2375764201703                D89828070300PT1D20170303000030SPEAKER ASM                   M IMCTM S5NB082FTTL  07070IMCT  S5 PTB  00015                    0900 SR        000000000000 FUJITSU TEN (THAILAN17029ML0012012                                                                                                                              *          20170227IMF1702274.TXT
MDEDH2375765201703                D89828070300PT1D20170303000060SPEAKER ASM                   M IMCTM S5NB082FTTL  07070IMCT  S5 PTB  00015                    1300 SR        000000000000 FUJITSU TEN (THAILAN17013NL000200217068ML0005005                                                                                                                *          20170227IMF1702274.TXT
MDEDH2375766201703                D89828070300PT1D20170303000060SPEAKER ASM                   M IMCTM S5NB082FTTL  07070IMCT  S5 PTB  00015                    1600 SR        000000000000 FUJITSU TEN (THAILAN17034PL002002017085ML0008008                                                                                                                *          20170227IMF1702274.TXT
MDEDH2375767201703                D89828070300PT1D20170303000030SPEAKER ASM                   M IMCTM S5NB082FTTL  07070IMCT  S5 PTB  00015                    2100 SR        000000000000 FUJITSU TEN (THAILAN17026RL0001001                                                                                                                              *          20170227IMF1702274.TXT
MDEDH2375768201703                D89828070300PT4D20170303000030SPEAKER ASM                   M IMCTM S9TS02 FTTL  07070IMCT  S9 PTB  00015                    0230 SR        000000000000 FUJITSU TEN (THAILAN16059KU0002002                                                                                                                              *          20170227IMF1702274.TXT
MDEDH2375769201703                D89828070300PT4D20170303000030SPEAKER ASM                   M IMCTM S9TS02 FTTL  07070IMCT  S9 PTB  00015                    0900 SR        000000000000 FUJITSU TEN (THAILAN17050RU0007007                                                                                                                              *          20170227IMF1702274.TXT
MDEDH2375770201703                D89828070300PT4D20170303000030SPEAKER ASM                   M IMCTM S9TS02 FTTL  07070IMCT  S9 PTB  00015                    2100 SR        000000000000 FUJITSU TEN (THAILAN16059KU0003003                                                                                                                              *          20170227IMF1702274.TXT
MDEDH2375771201703                D89829622400PT1D20170303000015RADIO;ASM DVD                 M IMCTM S5NC06 FTTL  07070IMCT  S5 PTB  00003                    1300 SR        000000000000 FUJITSU TEN (THAILAN17068ML0005005                                                                                                                              *          20170227IMF1702274.TXT
MDEDH2375772201703                D89829645300PT1D20170303000030RADIO;ASM DVD                 M IMCTM S5NC06 FTTL  07070IMCT  S5 PTB  00003                    0400 SR        000000000000 FUJITSU TEN (THAILAN17018ML0009010                                                                                                                              *          20170227IMF1702274.TXT
MDEDH2375773201703                D89829645400PT1D20170303000015RADIO;ASM DVD                 M IMCTM S5NC06 FTTL  07070IMCT  S5 PTB  00003                    2100 SR        000000000000 FUJITSU TEN (THAILAN17026RL0001001                                                                                                                              *          20170227IMF1702274.TXT
MDEDH2375774201703                D89829645400PT4D20170303000015RADIO;ASM DVD                 M IMCTM S9CO001FTTL  07070IMCT  S9 PTB  00003                    0230 SR        000000000000 FUJITSU TEN (THAILAN16059KU0002002                                                                                                                              *          20170227IMF1702274.TXT
MDEDH2375775201703                D89829645400PT4D20170303000015RADIO;ASM DVD                 M IMCTM S9CO001FTTL  07070IMCT  S9 PTB  00003                    0900 SR        000000000000 FUJITSU TEN (THAILAN17050RU0007007                                                                                                                              *          20170227IMF1702274.TXT
MDEDH2375776201703                D89829645400PT4D20170303000015RADIO;ASM DVD                 M IMCTM S9CO001FTTL  07070IMCT  S9 PTB  00003                    2100 SR        000000000000 FUJITSU TEN (THAILAN16059KU0003003                                                                                                                              *          20170227IMF1702274.TXT
MDEDH2375777201703                D89831228800PT1D20170303000015RADIO;AM/FM,CD                M IMCTM S5NC06 FTTL  07070IMCT  S5 PTB  00003                    1300 SR        000000000000 FUJITSU TEN (THAILAN17013NL0002002                                                                                                                              *          20170227IMF1702274.TXT
MDEDH2375778201703                D89831229000PT1D20170303000015RADIO;AM/FM,CD                M IMCTM S5NC06 FTTL  07070IMCT  S5 PTB  00003                    0230 SR        000000000000 FUJITSU TEN (THAILAN16055KL0003003                                                                                                                              *          20170227IMF1702274.TXT
MDEUH2249378201703                D89828070100PT4U20170302000030SPEAKER ASM                   M IMCTM S0FL05 FTTL  07070IMCT  S0 PTB  00004                    2230 SR        000000000000 FUJITSU TEN (THAILAN170C16U0187187                                                                                                                              *          20170227IMF1702274.TXT
MDEUH2249379201703                D89828070100PT4U20170303000030SPEAKER ASM                   M IMCTM S0FL05 FTTL  07070IMCT  S0 PTB  00004                    0400 SR        000000000000 FUJITSU TEN (THAILAN170C16U0188188                                                                                                                              *          20170227IMF1702274.TXT
MDEUH2249380201703                D89828070100PT4U20170303000030SPEAKER ASM                   M IMCTM S0FL05 FTTL  07070IMCT  S0 PTB  00004                    0900 SR        000000000000 FUJITSU TEN (THAILAN170C47U0026026                                                                                                                              *          20170227IMF1702274.TXT
MDEUH2249381201703                D89828070100PT4U20170303000030SPEAKER ASM                   M IMCTM S0FL05 FTTL  07070IMCT  S0 PTB  00004                    1300 SR        000000000000 FUJITSU TEN (THAILAN160B75U0002002                                                                                                                              *          20170227IMF1702274.TXT
MDEUH2249382201703                D89828070100PT4U20170303000030SPEAKER ASM                   M IMCTM S0FL05 FTTL  07070IMCT  S0 PTB  00004                    1600 SR        000000000000 FUJITSU TEN (THAILAN170C16U0189189                                                                                                                              *          20170227IMF1702274.TXT
MDEUH2249383201703                D89828070100PT4U20170303000030SPEAKER ASM                   M IMCTM S0FL05 FTTL  07070IMCT  S0 PTB  00004                    2230 SR        000000000000 FUJITSU TEN (THAILAN170C16U0190190                                                                                                                              *          20170227IMF1702274.TXT
MDEUH2249384201703                D89828070200PV4U20170302000030SPEAKER ASM                   M IMCTM S0FR05 FTTL  07070IMCT  S0 PTB  00005                    2230 SR        000000000000 FUJITSU TEN (THAILAN170C16U0187187                                                                                                                              *          20170227IMF1702274.TXT
MDEUH2249385201703                D89828070200PV4U20170303000030SPEAKER ASM                   M IMCTM S0FR05 FTTL  07070IMCT  S0 PTB  00005                    0400 SR        000000000000 FUJITSU TEN (THAILAN170C16U0188188                                                                                                                              *          20170227IMF1702274.TXT
MDEUH2249386201703                D89828070200PV4U20170303000030SPEAKER ASM                   M IMCTM S0FR05 FTTL  07070IMCT  S0 PTB  00005                    0900 SR        000000000000 FUJITSU TEN (THAILAN170C47U0026026                                                                                                                              *          20170227IMF1702274.TXT
MDEUH2249387201703                D89828070200PV4U20170303000030SPEAKER ASM                   M IMCTM S0FR05 FTTL  07070IMCT  S0 PTB  00005                    1300 SR        000000000000 FUJITSU TEN (THAILAN160B75U0002002                                                                                                                              *          20170227IMF1702274.TXT
MDEUH2249388201703                D89828070200PV4U20170303000030SPEAKER ASM                   M IMCTM S0FR05 FTTL  07070IMCT  S0 PTB  00005                    1600 SR        000000000000 FUJITSU TEN (THAILAN170C16U0189189                                                                                                                              *          20170227IMF1702274.TXT
MDEUH2249389201703                D89828070200PV4U20170303000030SPEAKER ASM                   M IMCTM S0FR05 FTTL  07070IMCT  S0 PTB  00005                    2230 SR        000000000000 FUJITSU TEN (THAILAN170C16U0190190                                                                                                                              *          20170227IMF1702274.TXT
MDEUH2249390201703                D89828070300PT4U20170302000030SPEAKER ASM                   M IMCTM S9TS02 FTTL  07070IMCT  S9 PTB  00015                    2230 SR        000000000000 FUJITSU TEN (THAILAN170C16U0187187                                                                                                                              *          20170227IMF1702274.TXT
MDEUH2249391201703                D89828070300PT4U20170303000030SPEAKER ASM                   M IMCTM S9TS02 FTTL  07070IMCT  S9 PTB  00015                    0400 SR        000000000000 FUJITSU TEN (THAILAN170C16U0188188                                                                                                                              *          20170227IMF1702274.TXT
MDEUH2249392201703                D89828070300PT4U20170303000030SPEAKER ASM                   M IMCTM S9TS02 FTTL  07070IMCT  S9 PTB  00015                    0900 SR        000000000000 FUJITSU TEN (THAILAN170C47U0026026                                                                                                                              *          20170227IMF1702274.TXT
MDEUH2249393201703                D89828070300PT4U20170303000030SPEAKER ASM                   M IMCTM S9TS02 FTTL  07070IMCT  S9 PTB  00015                    1300 SR        000000000000 FUJITSU TEN (THAILAN160B75U0002002                                                                                                                              *          20170227IMF1702274.TXT
MDEUH2249394201703                D89828070300PT4U20170303000030SPEAKER ASM                   M IMCTM S9TS02 FTTL  07070IMCT  S9 PTB  00015                    1600 SR        000000000000 FUJITSU TEN (THAILAN170C16U0189189                                                                                                                              *          20170227IMF1702274.TXT
MDEUH2249395201703                D89828070300PT4U20170303000030SPEAKER ASM                   M IMCTM S9TS02 FTTL  07070IMCT  S9 PTB  00015                    2230 SR        000000000000 FUJITSU TEN (THAILAN170C16U0190190                                                                                                                              *          20170227IMF1702274.TXT
MDEUH2249396201703                D89829100100PT4U20170303000015RADIO;ASM DVD                 M IMCTM S9CO001FTTL  07070IMCT  S9 PTB  00003                    1300 SR        000000000000 FUJITSU TEN (THAILAN160B75U0002002                                                                                                                              *          20170227IMF1702274.TXT
