REC2017020820170209ISUZU                              61     
MDDDH2231671201702                D89825217900PT1D20170214000030RADIO;AM/FM,CD,D              M IMCTM S5NC06 FTTL  07070IMCT  S5 PTB  00003                    0400 SR        000000000000 FUJITSU TEN (THAILAN170KPJL0036036                                                                                                                              *          20170208IMF1702086.TXT
MDDDH2231672201702                D89825217900PT1D20170214000030RADIO;AM/FM,CD,D              M IMCTM S5NC06 FTTL  07070IMCT  S5 PTB  00003                    0900 SR        000000000000 FUJITSU TEN (THAILAN170KPJL0037037                                                                                                                              *          20170208IMF1702086.TXT
MDDDH2231673201702                D89828070100PV1D20170213000060SPEAKER ASM                   M IMCTM S5MB11 FTTL  07070IMCT  S5 PTB  00004                    2230 SR        000000000000 FUJITSU TEN (THAILAN170KRCL0020020                                                                                                                              *          20170208IMF1702086.TXT
MDDDH2231674201702                D89828070100PV1D20170214000060SPEAKER ASM                   M IMCTM S5MB11 FTTL  07070IMCT  S5 PTB  00004                    0400 SR        000000000000 FUJITSU TEN (THAILAN170KPJL0036036                                                                                                                              *          20170208IMF1702086.TXT
MDDDH2231675201702                D89828070100PV1D20170214000120SPEAKER ASM                   M IMCTM S5MB11 FTTL  07070IMCT  S5 PTB  00004                    0900 SR        000000000000 FUJITSU TEN (THAILAN170KPJL0037037170KRSL0028028                                                                                                                *          20170208IMF1702086.TXT
MDDDH2231676201702                D89828070100PV1D20170214000120SPEAKER ASM                   M IMCTM S5MB11 FTTL  07070IMCT  S5 PTB  00004                    1300 SR        000000000000 FUJITSU TEN (THAILAN170KPFL0128128170KRUL0007007                                                                                                                *          20170208IMF1702086.TXT
MDDDH2231677201702                D89828070100PV1D20170214000060SPEAKER ASM                   M IMCTM S5MB11 FTTL  07070IMCT  S5 PTB  00004                    1600 SR        000000000000 FUJITSU TEN (THAILAN170KRJL0027027                                                                                                                              *          20170208IMF1702086.TXT
MDDDH2231678201702                D89828070200PV1D20170213000060SPEAKER ASM                   M IMCTM S5MA14 FTTL  07070IMCT  S5 PTB  00005                    2230 SR        000000000000 FUJITSU TEN (THAILAN170KRCL0020020                                                                                                                              *          20170208IMF1702086.TXT
MDDDH2231679201702                D89828070200PV1D20170214000060SPEAKER ASM                   M IMCTM S5MA14 FTTL  07070IMCT  S5 PTB  00005                    0900 SR        000000000000 FUJITSU TEN (THAILAN170KRSL0028028                                                                                                                              *          20170208IMF1702086.TXT
MDDDH2231680201702                D89828070200PV1D20170214000060SPEAKER ASM                   M IMCTM S5MA14 FTTL  07070IMCT  S5 PTB  00005                    1300 SR        000000000000 FUJITSU TEN (THAILAN170KRUL0007007                                                                                                                              *          20170208IMF1702086.TXT
MDDDH2231681201702                D89828070200PV1D20170214000060SPEAKER ASM                   M IMCTM S5MA14 FTTL  07070IMCT  S5 PTB  00005                    1600 SR        000000000000 FUJITSU TEN (THAILAN170KRJL0027027                                                                                                                              *          20170208IMF1702086.TXT
MDDDH2231682201702                D89828070300PT1D20170213000060SPEAKER ASM                   M IMCTM S5NB082FTTL  07070IMCT  S5 PTB  00015                    2230 SR        000000000000 FUJITSU TEN (THAILAN170KRCL0020020                                                                                                                              *          20170208IMF1702086.TXT
MDDDH2231683201702                D89828070300PT1D20170214000060SPEAKER ASM                   M IMCTM S5NB082FTTL  07070IMCT  S5 PTB  00015                    0400 SR        000000000000 FUJITSU TEN (THAILAN170KPJL0036036                                                                                                                              *          20170208IMF1702086.TXT
MDDDH2231684201702                D89828070300PT1D20170214000120SPEAKER ASM                   M IMCTM S5NB082FTTL  07070IMCT  S5 PTB  00015                    0900 SR        000000000000 FUJITSU TEN (THAILAN170KPJL0037037170KRSL0028028                                                                                                                *          20170208IMF1702086.TXT
MDDDH2231685201702                D89828070300PT1D20170214000120SPEAKER ASM                   M IMCTM S5NB082FTTL  07070IMCT  S5 PTB  00015                    1300 SR        000000000000 FUJITSU TEN (THAILAN170KPFL0128128170KRUL0007007                                                                                                                *          20170208IMF1702086.TXT
MDDDH2231686201702                D89828070300PT1D20170214000060SPEAKER ASM                   M IMCTM S5NB082FTTL  07070IMCT  S5 PTB  00015                    1600 SR        000000000000 FUJITSU TEN (THAILAN170KRJL0027027                                                                                                                              *          20170208IMF1702086.TXT
MDDDH2231687201702                D89831228300PT1D20170214000030RADIO;AM/FM,CD                M IMCTM S5NC06 FTTL  07070IMCT  S5 CPB  00003                    1300 SR        000000000000 FUJITSU TEN (THAILAN170KPFL0128128                                                                                                                              *          20170208IMF1702086.TXT
MDDDH2231688201702                D89831228400PT1D20170213000030RADIO;AM/FM,CD                M IMCTM S5NC06 FTTL  07070IMCT  S5 CPB  00003                    2230 SR        000000000000 FUJITSU TEN (THAILAN170KRCL0020020                                                                                                                              *          20170208IMF1702086.TXT
MDDUH2202941201702                D89828070100PT4U20170213000030SPEAKER ASM                   M IMCTM S0FL05 FTTL  07070IMCT  S0 PTB  00004                    2100 SR        000000000000 FUJITSU TEN (THAILAN180LUEU0004004                                                                                                                              *          20170208IMF1702086.TXT
MDDUH2202942201702                D89828070100PT4U20170214000030SPEAKER ASM                   M IMCTM S0FL05 FTTL  07070IMCT  S0 PTB  00004                    0230 SR        000000000000 FUJITSU TEN (THAILAN180LUEU0005005                                                                                                                              *          20170208IMF1702086.TXT
MDDUH2202943201702                D89828070100PT4U20170214000030SPEAKER ASM                   M IMCTM S0FL05 FTTL  07070IMCT  S0 PTB  00004                    1300 SR        000000000000 FUJITSU TEN (THAILAN180LUEU0006006                                                                                                                              *          20170208IMF1702086.TXT
MDDUH2202944201702                D89828070100PT4U20170214000030SPEAKER ASM                   M IMCTM S0FL05 FTTL  07070IMCT  S0 PTB  00004                    2100 SR        000000000000 FUJITSU TEN (THAILAN180LUEU0007007                                                                                                                              *          20170208IMF1702086.TXT
MDDUH2202945201702                D89828070200PV4U20170213000030SPEAKER ASM                   M IMCTM S0FR05 FTTL  07070IMCT  S0 PTB  00005                    2100 SR        000000000000 FUJITSU TEN (THAILAN180LUEU0004004                                                                                                                              *          20170208IMF1702086.TXT
MDDUH2202946201702                D89828070200PV4U20170214000030SPEAKER ASM                   M IMCTM S0FR05 FTTL  07070IMCT  S0 PTB  00005                    0230 SR        000000000000 FUJITSU TEN (THAILAN180LUEU0005005                                                                                                                              *          20170208IMF1702086.TXT
MDDUH2202947201702                D89828070200PV4U20170214000030SPEAKER ASM                   M IMCTM S0FR05 FTTL  07070IMCT  S0 PTB  00005                    1300 SR        000000000000 FUJITSU TEN (THAILAN180LUEU0006006                                                                                                                              *          20170208IMF1702086.TXT
MDDUH2202948201702                D89828070200PV4U20170214000030SPEAKER ASM                   M IMCTM S0FR05 FTTL  07070IMCT  S0 PTB  00005                    2100 SR        000000000000 FUJITSU TEN (THAILAN180LUEU0007007                                                                                                                              *          20170208IMF1702086.TXT
MDDUH2202949201702                D89828070300PT4U20170213000030SPEAKER ASM                   M IMCTM S9TS02 FTTL  07070IMCT  S9 PTB  00015                    2100 SR        000000000000 FUJITSU TEN (THAILAN180LUEU0004004                                                                                                                              *          20170208IMF1702086.TXT
MDDUH2202950201702                D89828070300PT4U20170214000030SPEAKER ASM                   M IMCTM S9TS02 FTTL  07070IMCT  S9 PTB  00015                    0230 SR        000000000000 FUJITSU TEN (THAILAN180LUEU0005005                                                                                                                              *          20170208IMF1702086.TXT
MDDUH2202951201702                D89828070300PT4U20170214000030SPEAKER ASM                   M IMCTM S9TS02 FTTL  07070IMCT  S9 PTB  00015                    1300 SR        000000000000 FUJITSU TEN (THAILAN180LUEU0006006                                                                                                                              *          20170208IMF1702086.TXT
MDDUH2202952201702                D89828070300PT4U20170214000030SPEAKER ASM                   M IMCTM S9TS02 FTTL  07070IMCT  S9 PTB  00015                    2100 SR        000000000000 FUJITSU TEN (THAILAN180LUEU0007007                                                                                                                              *          20170208IMF1702086.TXT
MDEDH2243456201702                D89827952200PT4D20170213000015RADIO;AM/FM,CD,D              M IMCTM S9CO001FTTL  07070IMCT  S9 X    00003                    2230 SR        000000000000 FUJITSU TEN (THAILAN17066NU0004004                                                                                                                              *          20170208IMF1702086.TXT
MDEDH2243457201702                D89828070100PV1D20170213000090SPEAKER ASM                   M IMCTM S5MB11 FTTL  07070IMCT  S5 PTB  00004                    2230 SR        000000000000 FUJITSU TEN (THAILAN17063NL000800917075PL0011011                                                                                                                *          20170208IMF1702086.TXT
MDEDH2243458201702                D89828070100PV1D20170214000060SPEAKER ASM                   M IMCTM S5MB11 FTTL  07070IMCT  S5 PTB  00004                    0230 SR        000000000000 FUJITSU TEN (THAILAN17057RL0001002                                                                                                                              *          20170208IMF1702086.TXT
MDEDH2243459201702                D89828070100PV1D20170214000060SPEAKER ASM                   M IMCTM S5MB11 FTTL  07070IMCT  S5 PTB  00004                    0400 SR        000000000000 FUJITSU TEN (THAILAN17058NL000300317075PL0012012                                                                                                                *          20170208IMF1702086.TXT
MDEDH2243460201702                D89828070100PV1D20170214000030SPEAKER ASM                   M IMCTM S5MB11 FTTL  07070IMCT  S5 PTB  00004                    0900 SR        000000000000 FUJITSU TEN (THAILAN17075PL0013013                                                                                                                              *          20170208IMF1702086.TXT
MDEDH2243461201702                D89828070100PV1D20170214000090SPEAKER ASM                   M IMCTM S5MB11 FTTL  07070IMCT  S5 PTB  00004                    1600 SR        000000000000 FUJITSU TEN (THAILAN17057RL000300317075PL0014015                                                                                                                *          20170208IMF1702086.TXT
MDEDH2243462201702                D89828070100PV4D20170213000030SPEAKER ASM                   M IMCTM S0FL05 FTTL  07070IMCT  S0 PTB  00004                    2230 SR        000000000000 FUJITSU TEN (THAILAN17066NU0004004                                                                                                                              *          20170208IMF1702086.TXT
MDEDH2243463201702                D89828070100PV4D20170214000030SPEAKER ASM                   M IMCTM S0FL05 FTTL  07070IMCT  S0 PTB  00004                    0230 SR        000000000000 FUJITSU TEN (THAILAN17075PU0010010                                                                                                                              *          20170208IMF1702086.TXT
MDEDH2243464201702                D89828070100PV4D20170214000060SPEAKER ASM                   M IMCTM S0FL05 FTTL  07070IMCT  S0 PTB  00004                    0900 SR        000000000000 FUJITSU TEN (THAILAN17075PU001101117080NU0010010                                                                                                                *          20170208IMF1702086.TXT
MDEDH2243465201702                D89828070100PV4D20170214000030SPEAKER ASM                   M IMCTM S0FL05 FTTL  07070IMCT  S0 PTB  00004                    1300 SR        000000000000 FUJITSU TEN (THAILAN17081NU0002002                                                                                                                              *          20170208IMF1702086.TXT
MDEDH2243466201702                D89828070100PV4D20170214000090SPEAKER ASM                   M IMCTM S0FL05 FTTL  07070IMCT  S0 PTB  00004                    1600 SR        000000000000 FUJITSU TEN (THAILAN17075PU001201217079NU001601617080NU0011011                                                                                                  *          20170208IMF1702086.TXT
MDEDH2243467201702                D89828070200PV1D20170214000030SPEAKER ASM                   M IMCTM S5MA14 FTTL  07070IMCT  S5 PTB  00005                    0400 SR        000000000000 FUJITSU TEN (THAILAN17058NL0003003                                                                                                                              *          20170208IMF1702086.TXT
MDEDH2243468201702                D89828070200PV4D20170214000030SPEAKER ASM                   M IMCTM S0FR05 FTTL  07070IMCT  S0 PTB  00005                    0900 SR        000000000000 FUJITSU TEN (THAILAN17080NU0010010                                                                                                                              *          20170208IMF1702086.TXT
MDEDH2243469201702                D89828070200PV4D20170214000030SPEAKER ASM                   M IMCTM S0FR05 FTTL  07070IMCT  S0 PTB  00005                    1300 SR        000000000000 FUJITSU TEN (THAILAN17081NU0002002                                                                                                                              *          20170208IMF1702086.TXT
MDEDH2243470201702                D89828070200PV4D20170214000060SPEAKER ASM                   M IMCTM S0FR05 FTTL  07070IMCT  S0 PTB  00005                    1600 SR        000000000000 FUJITSU TEN (THAILAN17079NU001601617080NU0011011                                                                                                                *          20170208IMF1702086.TXT
MDEDH2243471201702                D89828070300PT1D20170213000060SPEAKER ASM                   M IMCTM S5NB082FTTL  07070IMCT  S5 PTB  00015                    2230 SR        000000000000 FUJITSU TEN (THAILAN17063NL0008009                                                                                                                              *          20170208IMF1702086.TXT
MDEDH2243472201702                D89828070300PT1D20170214000030SPEAKER ASM                   M IMCTM S5NB082FTTL  07070IMCT  S5 PTB  00015                    0400 SR        000000000000 FUJITSU TEN (THAILAN17058NL0003003                                                                                                                              *          20170208IMF1702086.TXT
MDEDH2243473201702                D89828070300PT4D20170213000030SPEAKER ASM                   M IMCTM S9TS02 FTTL  07070IMCT  S9 PTB  00015                    2230 SR        000000000000 FUJITSU TEN (THAILAN17066NU0004004                                                                                                                              *          20170208IMF1702086.TXT
MDEDH2243474201702                D89828070300PT4D20170214000030SPEAKER ASM                   M IMCTM S9TS02 FTTL  07070IMCT  S9 PTB  00015                    0900 SR        000000000000 FUJITSU TEN (THAILAN17080NU0010010                                                                                                                              *          20170208IMF1702086.TXT
MDEDH2243475201702                D89828070300PT4D20170214000030SPEAKER ASM                   M IMCTM S9TS02 FTTL  07070IMCT  S9 PTB  00015                    1300 SR        000000000000 FUJITSU TEN (THAILAN17081NU0002002                                                                                                                              *          20170208IMF1702086.TXT
MDEDH2243476201702                D89828070300PT4D20170214000060SPEAKER ASM                   M IMCTM S9TS02 FTTL  07070IMCT  S9 PTB  00015                    1600 SR        000000000000 FUJITSU TEN (THAILAN17079NU001601617080NU0011011                                                                                                                *          20170208IMF1702086.TXT
MDEDH2243477201702                D89829645700PT1D20170213000030RADIO;ASM DVD                 M IMCTM S5NC06 FTTL  07070IMCT  S5 X    00003                    2230 SR        000000000000 FUJITSU TEN (THAILAN17063NL0008009                                                                                                                              *          20170208IMF1702086.TXT
MDEDH2243478201702                D89829645700PT1D20170214000015RADIO;ASM DVD                 M IMCTM S5NC06 FTTL  07070IMCT  S5 X    00003                    0400 SR        000000000000 FUJITSU TEN (THAILAN17058NL0003003                                                                                                                              *          20170208IMF1702086.TXT
MDEDH2243479201702                D89829645700PT4D20170214000015RADIO;ASM DVD                 M IMCTM S9CO001FTTL  07070IMCT  S9 X    00003                    1600 SR        000000000000 FUJITSU TEN (THAILAN17079NU0016016                                                                                                                              *          20170208IMF1702086.TXT
MDEUH2216322201702                D89828070100PT4U20170214000030SPEAKER ASM                   M IMCTM S0FL05 FTTL  07070IMCT  S0 PTB  00004                    0400 SR        000000000000 FUJITSU TEN (THAILAN160B75U0001001                                                                                                                              *          20170208IMF1702086.TXT
MDEUH2216323201702                D89828070100PT4U20170214000030SPEAKER ASM                   M IMCTM S0FL05 FTTL  07070IMCT  S0 PTB  00004                    0900 SR        000000000000 FUJITSU TEN (THAILAN170C16U0148148                                                                                                                              *          20170208IMF1702086.TXT
MDEUH2216324201702                D89828070200PV4U20170214000030SPEAKER ASM                   M IMCTM S0FR05 FTTL  07070IMCT  S0 PTB  00005                    0400 SR        000000000000 FUJITSU TEN (THAILAN160B75U0001001                                                                                                                              *          20170208IMF1702086.TXT
MDEUH2216325201702                D89828070200PV4U20170214000030SPEAKER ASM                   M IMCTM S0FR05 FTTL  07070IMCT  S0 PTB  00005                    0900 SR        000000000000 FUJITSU TEN (THAILAN170C16U0148148                                                                                                                              *          20170208IMF1702086.TXT
MDEUH2216326201702                D89828070300PT4U20170214000030SPEAKER ASM                   M IMCTM S9TS02 FTTL  07070IMCT  S9 PTB  00015                    0400 SR        000000000000 FUJITSU TEN (THAILAN160B75U0001001                                                                                                                              *          20170208IMF1702086.TXT
MDEUH2216327201702                D89828070300PT4U20170214000030SPEAKER ASM                   M IMCTM S9TS02 FTTL  07070IMCT  S9 PTB  00015                    0900 SR        000000000000 FUJITSU TEN (THAILAN170C16U0148148                                                                                                                              *          20170208IMF1702086.TXT
MDEUH2216328201702                D89829100100PT4U20170214000015RADIO;ASM DVD                 M IMCTM S9CO001FTTL  07070IMCT  S9 PTB  00003                    0400 SR        000000000000 FUJITSU TEN (THAILAN160B75U0001001                                                                                                                              *          20170208IMF1702086.TXT
