REC2017022420170224ISUZU                              60     
MDDDH2269982201703                D89828070100PV1D20170301000060SPEAKER ASM                   M IMCTM S5MB11 FTTL  07070IMCT  S5 PTB  00004                    1600 SR        000000000000 FUJITSU TEN (THAILAN170KRSL0029029                                                                                                                              *          20170224IMF1702247.TXT
MDDDH2269983201703                D89828070200PV1D20170301000060SPEAKER ASM                   M IMCTM S5MA14 FTTL  07070IMCT  S5 PTB  00005                    1600 SR        000000000000 FUJITSU TEN (THAILAN170KRSL0029029                                                                                                                              *          20170224IMF1702247.TXT
MDDDH2269984201703                D89828070300PT1D20170301000060SPEAKER ASM                   M IMCTM S5NB082FTTL  07070IMCT  S5 PTB  00015                    1600 SR        000000000000 FUJITSU TEN (THAILAN170KRSL0029029                                                                                                                              *          20170224IMF1702247.TXT
MDDUH2248823201703                D89828070100PT4U20170228000030SPEAKER ASM                   M IMCTM S0FL05 FTTL  07070IMCT  S0 PTB  00004                    2230 SR        000000000000 FUJITSU TEN (THAILAN180LUCU0010010                                                                                                                              *          20170224IMF1702247.TXT
MDDUH2248824201703                D89828070100PT4U20170301000030SPEAKER ASM                   M IMCTM S0FL05 FTTL  07070IMCT  S0 PTB  00004                    0230 SR        000000000000 FUJITSU TEN (THAILAN180LUAU0005005                                                                                                                              *          20170224IMF1702247.TXT
MDDUH2248825201703                D89828070200PV4U20170228000030SPEAKER ASM                   M IMCTM S0FR05 FTTL  07070IMCT  S0 PTB  00005                    2230 SR        000000000000 FUJITSU TEN (THAILAN180LUCU0010010                                                                                                                              *          20170224IMF1702247.TXT
MDDUH2248826201703                D89828070200PV4U20170301000030SPEAKER ASM                   M IMCTM S0FR05 FTTL  07070IMCT  S0 PTB  00005                    0230 SR        000000000000 FUJITSU TEN (THAILAN180LUAU0005005                                                                                                                              *          20170224IMF1702247.TXT
MDDUH2248827201703                D89828070300PT4U20170228000030SPEAKER ASM                   M IMCTM S9TS02 FTTL  07070IMCT  S9 PTB  00015                    2230 SR        000000000000 FUJITSU TEN (THAILAN180LUCU0010010                                                                                                                              *          20170224IMF1702247.TXT
MDDUH2248828201703                D89828070300PT4U20170301000030SPEAKER ASM                   M IMCTM S9TS02 FTTL  07070IMCT  S9 PTB  00015                    0230 SR        000000000000 FUJITSU TEN (THAILAN180LUAU0005005                                                                                                                              *          20170224IMF1702247.TXT
MDDUH2248829201703                D89831228400PT4U20170301000015RADIO;AM/FM,CD                M IMCTM S9CO001FTTL  07070IMCT  S9 CPB  00003                    0230 SR        000000000000 FUJITSU TEN (THAILAN180LUAU0005005                                                                                                                              *          20170224IMF1702247.TXT
MDDUH2248830201703                D89835097900PT4U20170228000015RADIO;ASM DVD                 M IMCTM S9CO001FTTL  07070IMCT  S9 PTB  00003                    2230 SR        000000000000 FUJITSU TEN (THAILAN180LUCU0010010                                                                                                                              *          20170224IMF1702247.TXT
MDEDH2349729201703                D89805293700PV1D20170301000060SPEAKER ASM                   M IMCTM S5MB11 FTTL  07070IMCT  S5 PTB  00003                    0900 SR        000000000000 FUJITSU TEN (THAILAN15019FL0161162                                                                                                                              *          20170224IMF1702247.TXT
MDEDH2349730201703                D89828070100PV1D20170228000060SPEAKER ASM                   M IMCTM S5MB11 FTTL  07070IMCT  S5 PTB  00004                    2100 SR        000000000000 FUJITSU TEN (THAILAN16047KL002702717057PL0001001                                                                                                                *          20170224IMF1702247.TXT
MDEDH2349731201703                D89828070100PV1D20170228000150SPEAKER ASM                   M IMCTM S5MB11 FTTL  07070IMCT  S5 PTB  00004                    2230 SR        000000000000 FUJITSU TEN (THAILAN17020ML000700717032NL000400517057PL000200217061PL0006006                                                                                    *          20170224IMF1702247.TXT
MDEDH2349732201703                D89828070100PV1D20170301000060SPEAKER ASM                   M IMCTM S5MB11 FTTL  07070IMCT  S5 PTB  00004                    0230 SR        000000000000 FUJITSU TEN (THAILAN16044KL000100117013QL0005005                                                                                                                *          20170224IMF1702247.TXT
MDEDH2349733201703                D89828070100PV1D20170301000090SPEAKER ASM                   M IMCTM S5MB11 FTTL  07070IMCT  S5 PTB  00004                    0400 SR        000000000000 FUJITSU TEN (THAILAN17013QL000600617041PL0003004                                                                                                                *          20170224IMF1702247.TXT
MDEDH2349734201703                D89828070100PV1D20170301000060SPEAKER ASM                   M IMCTM S5MB11 FTTL  07070IMCT  S5 PTB  00004                    0900 SR        000000000000 FUJITSU TEN (THAILAN17054PL0013014                                                                                                                              *          20170224IMF1702247.TXT
MDEDH2349735201703                D89828070100PV1D20170301000150SPEAKER ASM                   M IMCTM S5MB11 FTTL  07070IMCT  S5 PTB  00004                    1300 SR        000000000000 FUJITSU TEN (THAILAN17015NL000901017054PL001501617061PL0007007                                                                                                  *          20170224IMF1702247.TXT
MDEDH2349736201703                D89828070100PV1D20170301000090SPEAKER ASM                   M IMCTM S5MB11 FTTL  07070IMCT  S5 PTB  00004                    1600 SR        000000000000 FUJITSU TEN (THAILAN17054PL0017019                                                                                                                              *          20170224IMF1702247.TXT
MDEDH2349737201703                D89828070100PV1D20170301000060SPEAKER ASM                   M IMCTM S5MB11 FTTL  07070IMCT  S5 PTB  00004                    2100 SR        000000000000 FUJITSU TEN (THAILAN17018ML0007008                                                                                                                              *          20170224IMF1702247.TXT
MDEDH2349738201703                D89828070100PV4D20170228000030SPEAKER ASM                   M IMCTM S0FL05 FTTL  07070IMCT  S0 PTB  00004                    2100 SR        000000000000 FUJITSU TEN (THAILAN17032QU0002002                                                                                                                              *          20170224IMF1702247.TXT
MDEDH2349739201703                D89828070100PV4D20170301000030SPEAKER ASM                   M IMCTM S0FL05 FTTL  07070IMCT  S0 PTB  00004                    0230 SR        000000000000 FUJITSU TEN (THAILAN17001NU0001001                                                                                                                              *          20170224IMF1702247.TXT
MDEDH2349740201703                D89828070100PV4D20170301000030SPEAKER ASM                   M IMCTM S0FL05 FTTL  07070IMCT  S0 PTB  00004                    1300 SR        000000000000 FUJITSU TEN (THAILAN17054PU0002002                                                                                                                              *          20170224IMF1702247.TXT
MDEDH2349741201703                D89828070100PV4D20170301000030SPEAKER ASM                   M IMCTM S0FL05 FTTL  07070IMCT  S0 PTB  00004                    1600 SR        000000000000 FUJITSU TEN (THAILAN17063MU0001001                                                                                                                              *          20170224IMF1702247.TXT
MDEDH2349742201703                D89828070200PV1D20170228000030SPEAKER ASM                   M IMCTM S5MA14 FTTL  07070IMCT  S5 PTB  00005                    2100 SR        000000000000 FUJITSU TEN (THAILAN16047KL0027027                                                                                                                              *          20170224IMF1702247.TXT
MDEDH2349743201703                D89828070200PV1D20170228000090SPEAKER ASM                   M IMCTM S5MA14 FTTL  07070IMCT  S5 PTB  00005                    2230 SR        000000000000 FUJITSU TEN (THAILAN17020ML000700717032NL0004005                                                                                                                *          20170224IMF1702247.TXT
MDEDH2349744201703                D89828070200PV1D20170301000030SPEAKER ASM                   M IMCTM S5MA14 FTTL  07070IMCT  S5 PTB  00005                    0230 SR        000000000000 FUJITSU TEN (THAILAN17013QL0005005                                                                                                                              *          20170224IMF1702247.TXT
MDEDH2349745201703                D89828070200PV1D20170301000030SPEAKER ASM                   M IMCTM S5MA14 FTTL  07070IMCT  S5 PTB  00005                    0400 SR        000000000000 FUJITSU TEN (THAILAN17013QL0006006                                                                                                                              *          20170224IMF1702247.TXT
MDEDH2349746201703                D89828070200PV1D20170301000060SPEAKER ASM                   M IMCTM S5MA14 FTTL  07070IMCT  S5 PTB  00005                    1300 SR        000000000000 FUJITSU TEN (THAILAN17015NL0009010                                                                                                                              *          20170224IMF1702247.TXT
MDEDH2349747201703                D89828070200PV1D20170301000060SPEAKER ASM                   M IMCTM S5MA14 FTTL  07070IMCT  S5 PTB  00005                    2100 SR        000000000000 FUJITSU TEN (THAILAN17018ML0007008                                                                                                                              *          20170224IMF1702247.TXT
MDEDH2349748201703                D89828070200PV4D20170228000030SPEAKER ASM                   M IMCTM S0FR05 FTTL  07070IMCT  S0 PTB  00005                    2100 SR        000000000000 FUJITSU TEN (THAILAN17032QU0002002                                                                                                                              *          20170224IMF1702247.TXT
MDEDH2349749201703                D89828070200PV4D20170301000030SPEAKER ASM                   M IMCTM S0FR05 FTTL  07070IMCT  S0 PTB  00005                    0230 SR        000000000000 FUJITSU TEN (THAILAN17001NU0001001                                                                                                                              *          20170224IMF1702247.TXT
MDEDH2349750201703                D89828070300PT1D20170228000030SPEAKER ASM                   M IMCTM S5NB082FTTL  07070IMCT  S5 PTB  00015                    2100 SR        000000000000 FUJITSU TEN (THAILAN16047KL0027027                                                                                                                              *          20170224IMF1702247.TXT
MDEDH2349751201703                D89828070300PT1D20170228000090SPEAKER ASM                   M IMCTM S5NB082FTTL  07070IMCT  S5 PTB  00015                    2230 SR        000000000000 FUJITSU TEN (THAILAN17020ML000700717032NL0004005                                                                                                                *          20170224IMF1702247.TXT
MDEDH2349752201703                D89828070300PT1D20170301000060SPEAKER ASM                   M IMCTM S5NB082FTTL  07070IMCT  S5 PTB  00015                    0230 SR        000000000000 FUJITSU TEN (THAILAN16044KL000100117013QL0005005                                                                                                                *          20170224IMF1702247.TXT
MDEDH2349753201703                D89828070300PT1D20170301000030SPEAKER ASM                   M IMCTM S5NB082FTTL  07070IMCT  S5 PTB  00015                    0400 SR        000000000000 FUJITSU TEN (THAILAN17013QL0006006                                                                                                                              *          20170224IMF1702247.TXT
MDEDH2349754201703                D89828070300PT1D20170301000060SPEAKER ASM                   M IMCTM S5NB082FTTL  07070IMCT  S5 PTB  00015                    1300 SR        000000000000 FUJITSU TEN (THAILAN17015NL0009010                                                                                                                              *          20170224IMF1702247.TXT
MDEDH2349755201703                D89828070300PT1D20170301000060SPEAKER ASM                   M IMCTM S5NB082FTTL  07070IMCT  S5 PTB  00015                    2100 SR        000000000000 FUJITSU TEN (THAILAN17018ML0007008                                                                                                                              *          20170224IMF1702247.TXT
MDEDH2349756201703                D89828070300PT4D20170228000030SPEAKER ASM                   M IMCTM S9TS02 FTTL  07070IMCT  S9 PTB  00015                    2100 SR        000000000000 FUJITSU TEN (THAILAN17032QU0002002                                                                                                                              *          20170224IMF1702247.TXT
MDEDH2349757201703                D89828070300PT4D20170301000030SPEAKER ASM                   M IMCTM S9TS02 FTTL  07070IMCT  S9 PTB  00015                    0230 SR        000000000000 FUJITSU TEN (THAILAN17001NU0001001                                                                                                                              *          20170224IMF1702247.TXT
MDEDH2349758201703                D89828070300PT4D20170301000030SPEAKER ASM                   M IMCTM S9TS02 FTTL  07070IMCT  S9 PTB  00015                    1600 SR        000000000000 FUJITSU TEN (THAILAN17063MU0001001                                                                                                                              *          20170224IMF1702247.TXT
MDEDH2349759201703                D89829645300PT1D20170301000030RADIO;ASM DVD                 M IMCTM S5NC06 FTTL  07070IMCT  S5 PTB  00003                    2100 SR        000000000000 FUJITSU TEN (THAILAN17018ML0007008                                                                                                                              *          20170224IMF1702247.TXT
MDEDH2349760201703                D89831228700PT4D20170301000015RADIO;AM/FM,CD                M IMCTM S9CO001FTTL  07070IMCT  S9 PTB  00003                    1600 SR        000000000000 FUJITSU TEN (THAILAN17063MU0001001                                                                                                                              *          20170224IMF1702247.TXT
MDEDH2349761201703                D89831228800PT4D20170301000015RADIO;AM/FM,CD                M IMCTM S9CO001FTTL  07070IMCT  S9 PTB  00003                    0230 SR        000000000000 FUJITSU TEN (THAILAN17001NU0001001                                                                                                                              *          20170224IMF1702247.TXT
MDEDH2349762201703                D89831228900PT1D20170301000015RADIO;AM/FM,CD                M IMCTM S5NC06 FTTL  07070IMCT  S5 PTB  00003                    0230 SR        000000000000 FUJITSU TEN (THAILAN16044KL0001001                                                                                                                              *          20170224IMF1702247.TXT
MDEDH2349763201703                D89831229200PT1D20170301000015RADIO;AM/FM,CD                M IMCTM S5NC06 FTTL  07070IMCT  S5 PTB  00003                    0230 SR        000000000000 FUJITSU TEN (THAILAN17013QL0005005                                                                                                                              *          20170224IMF1702247.TXT
MDEDH2349764201703                D89831229200PT1D20170301000015RADIO;AM/FM,CD                M IMCTM S5NC06 FTTL  07070IMCT  S5 PTB  00003                    0400 SR        000000000000 FUJITSU TEN (THAILAN17013QL0006006                                                                                                                              *          20170224IMF1702247.TXT
MDEDH2349765201703                D89831229200PT4D20170228000015RADIO;AM/FM,CD                M IMCTM S9CO001FTTL  07070IMCT  S9 PTB  00003                    2100 SR        000000000000 FUJITSU TEN (THAILAN17032QU0002002                                                                                                                              *          20170224IMF1702247.TXT
MDEUH2242308201703                D89828070100PT4U20170301000030SPEAKER ASM                   M IMCTM S0FL05 FTTL  07070IMCT  S0 PTB  00004                    0400 SR        000000000000 FUJITSU TEN (THAILAN170C16U0181181                                                                                                                              *          20170224IMF1702247.TXT
MDEUH2242309201703                D89828070100PT4U20170301000060SPEAKER ASM                   M IMCTM S0FL05 FTTL  07070IMCT  S0 PTB  00004                    0900 SR        000000000000 FUJITSU TEN (THAILAN170C16U0182182170C47U0021021                                                                                                                *          20170224IMF1702247.TXT
MDEUH2242310201703                D89828070100PT4U20170301000030SPEAKER ASM                   M IMCTM S0FL05 FTTL  07070IMCT  S0 PTB  00004                    1300 SR        000000000000 FUJITSU TEN (THAILAN170C16U0183183                                                                                                                              *          20170224IMF1702247.TXT
MDEUH2242311201703                D89828070100PT4U20170301000060SPEAKER ASM                   M IMCTM S0FL05 FTTL  07070IMCT  S0 PTB  00004                    1600 SR        000000000000 FUJITSU TEN (THAILAN170C47U0022023                                                                                                                              *          20170224IMF1702247.TXT
MDEUH2242312201703                D89828070200PV4U20170301000030SPEAKER ASM                   M IMCTM S0FR05 FTTL  07070IMCT  S0 PTB  00005                    0400 SR        000000000000 FUJITSU TEN (THAILAN170C16U0181181                                                                                                                              *          20170224IMF1702247.TXT
MDEUH2242313201703                D89828070200PV4U20170301000060SPEAKER ASM                   M IMCTM S0FR05 FTTL  07070IMCT  S0 PTB  00005                    0900 SR        000000000000 FUJITSU TEN (THAILAN170C16U0182182170C47U0021021                                                                                                                *          20170224IMF1702247.TXT
MDEUH2242314201703                D89828070200PV4U20170301000030SPEAKER ASM                   M IMCTM S0FR05 FTTL  07070IMCT  S0 PTB  00005                    1300 SR        000000000000 FUJITSU TEN (THAILAN170C16U0183183                                                                                                                              *          20170224IMF1702247.TXT
MDEUH2242315201703                D89828070200PV4U20170301000060SPEAKER ASM                   M IMCTM S0FR05 FTTL  07070IMCT  S0 PTB  00005                    1600 SR        000000000000 FUJITSU TEN (THAILAN170C47U0022023                                                                                                                              *          20170224IMF1702247.TXT
MDEUH2242316201703                D89828070300PT4U20170301000030SPEAKER ASM                   M IMCTM S9TS02 FTTL  07070IMCT  S9 PTB  00015                    0400 SR        000000000000 FUJITSU TEN (THAILAN170C16U0181181                                                                                                                              *          20170224IMF1702247.TXT
MDEUH2242317201703                D89828070300PT4U20170301000060SPEAKER ASM                   M IMCTM S9TS02 FTTL  07070IMCT  S9 PTB  00015                    0900 SR        000000000000 FUJITSU TEN (THAILAN170C16U0182182170C47U0021021                                                                                                                *          20170224IMF1702247.TXT
MDEUH2242318201703                D89828070300PT4U20170301000030SPEAKER ASM                   M IMCTM S9TS02 FTTL  07070IMCT  S9 PTB  00015                    1300 SR        000000000000 FUJITSU TEN (THAILAN170C16U0183183                                                                                                                              *          20170224IMF1702247.TXT
MDEUH2242319201703                D89828070300PT4U20170301000060SPEAKER ASM                   M IMCTM S9TS02 FTTL  07070IMCT  S9 PTB  00015                    1600 SR        000000000000 FUJITSU TEN (THAILAN170C47U0022023                                                                                                                              *          20170224IMF1702247.TXT
