REC2017022020170220ISUZU                              54     
MDDDH2264275201702                D89821984430PT1D20170223000030RADIO;AM/FM,CD                M IMCTM S5NC06 FTTL  07070IMCT  S5 PTB  00005                    2100 SR        000000000000 FUJITSU TEN (THAILAN170KNCL0056056                                                                                                                              *          20170220IMF1702204.TXT
MDDDH2264276201702                D89828070100PV1D20170223000060SPEAKER ASM                   M IMCTM S5MB11 FTTL  07070IMCT  S5 PTB  00004                    2100 SR        000000000000 FUJITSU TEN (THAILAN170KNCL0056056                                                                                                                              *          20170220IMF1702204.TXT
MDDDH2264277201702                D89828070100PV1D20170223000060SPEAKER ASM                   M IMCTM S5MB11 FTTL  07070IMCT  S5 PTB  00004                    2230 SR        000000000000 FUJITSU TEN (THAILAN170KRCL0023023                                                                                                                              *          20170220IMF1702204.TXT
MDDDH2264278201702                D89828070100PV1D20170224000060SPEAKER ASM                   M IMCTM S5MB11 FTTL  07070IMCT  S5 PTB  00004                    0400 SR        000000000000 FUJITSU TEN (THAILAN170KNAL0041041                                                                                                                              *          20170220IMF1702204.TXT
MDDDH2264279201702                D89828070100PV1D20170224000060SPEAKER ASM                   M IMCTM S5MB11 FTTL  07070IMCT  S5 PTB  00004                    0900 SR        000000000000 FUJITSU TEN (THAILAN170KRTL0017017                                                                                                                              *          20170220IMF1702204.TXT
MDDDH2264280201702                D89828070100PV1D20170224000060SPEAKER ASM                   M IMCTM S5MB11 FTTL  07070IMCT  S5 PTB  00004                    1300 SR        000000000000 FUJITSU TEN (THAILAN170KRLL0010010                                                                                                                              *          20170220IMF1702204.TXT
MDDDH2264281201702                D89828070200PV1D20170223000060SPEAKER ASM                   M IMCTM S5MA14 FTTL  07070IMCT  S5 PTB  00005                    2230 SR        000000000000 FUJITSU TEN (THAILAN170KRCL0023023                                                                                                                              *          20170220IMF1702204.TXT
MDDDH2264282201702                D89828070200PV1D20170224000060SPEAKER ASM                   M IMCTM S5MA14 FTTL  07070IMCT  S5 PTB  00005                    0900 SR        000000000000 FUJITSU TEN (THAILAN170KRTL0017017                                                                                                                              *          20170220IMF1702204.TXT
MDDDH2264283201702                D89828070200PV1D20170224000060SPEAKER ASM                   M IMCTM S5MA14 FTTL  07070IMCT  S5 PTB  00005                    1300 SR        000000000000 FUJITSU TEN (THAILAN170KRLL0010010                                                                                                                              *          20170220IMF1702204.TXT
MDDDH2264284201702                D89828070300PT1D20170223000060SPEAKER ASM                   M IMCTM S5NB082FTTL  07070IMCT  S5 PTB  00015                    2230 SR        000000000000 FUJITSU TEN (THAILAN170KRCL0023023                                                                                                                              *          20170220IMF1702204.TXT
MDDDH2264285201702                D89828070300PT1D20170224000060SPEAKER ASM                   M IMCTM S5NB082FTTL  07070IMCT  S5 PTB  00015                    0900 SR        000000000000 FUJITSU TEN (THAILAN170KRTL0017017                                                                                                                              *          20170220IMF1702204.TXT
MDDDH2264286201702                D89828070300PT1D20170224000060SPEAKER ASM                   M IMCTM S5NB082FTTL  07070IMCT  S5 PTB  00015                    1300 SR        000000000000 FUJITSU TEN (THAILAN170KRLL0010010                                                                                                                              *          20170220IMF1702204.TXT
MDDDH2264287201702                D89829645900PT1D20170224000030RADIO;ASM DVD                 M IMCTM S5NC06 FTTL  07070IMCT  S5 CPB  00003                    0900 SR        000000000000 FUJITSU TEN (THAILAN170KRTL0017017                                                                                                                              *          20170220IMF1702204.TXT
MDDDH2264288201702                D89831228400PT1D20170223000030RADIO;AM/FM,CD                M IMCTM S5NC06 FTTL  07070IMCT  S5 CPB  00003                    2230 SR        000000000000 FUJITSU TEN (THAILAN170KRCL0023023                                                                                                                              *          20170220IMF1702204.TXT
MDDUH2233291201702                D89828070100PT4U20170223000030SPEAKER ASM                   M IMCTM S0FL05 FTTL  07070IMCT  S0 PTB  00004                    2100 SR        000000000000 FUJITSU TEN (THAILAN180LUEU0018018                                                                                                                              *          20170220IMF1702204.TXT
MDDUH2233292201702                D89828070100PT4U20170224000030SPEAKER ASM                   M IMCTM S0FL05 FTTL  07070IMCT  S0 PTB  00004                    0400 SR        000000000000 FUJITSU TEN (THAILAN180LUDU0028028                                                                                                                              *          20170220IMF1702204.TXT
MDDUH2233293201702                D89828070100PT4U20170224000030SPEAKER ASM                   M IMCTM S0FL05 FTTL  07070IMCT  S0 PTB  00004                    0900 SR        000000000000 FUJITSU TEN (THAILAN180LUDU0029029                                                                                                                              *          20170220IMF1702204.TXT
MDDUH2233294201702                D89828070100PT4U20170224000060SPEAKER ASM                   M IMCTM S0FL05 FTTL  07070IMCT  S0 PTB  00004                    1300 SR        000000000000 FUJITSU TEN (THAILAN180LUDU0030031                                                                                                                              *          20170220IMF1702204.TXT
MDDUH2233295201702                D89828070100PT4U20170224000030SPEAKER ASM                   M IMCTM S0FL05 FTTL  07070IMCT  S0 PTB  00004                    1600 SR        000000000000 FUJITSU TEN (THAILAN180LUDU0032032                                                                                                                              *          20170220IMF1702204.TXT
MDDUH2233296201702                D89828070200PV4U20170223000030SPEAKER ASM                   M IMCTM S0FR05 FTTL  07070IMCT  S0 PTB  00005                    2100 SR        000000000000 FUJITSU TEN (THAILAN180LUEU0018018                                                                                                                              *          20170220IMF1702204.TXT
MDDUH2233297201702                D89828070200PV4U20170224000030SPEAKER ASM                   M IMCTM S0FR05 FTTL  07070IMCT  S0 PTB  00005                    0400 SR        000000000000 FUJITSU TEN (THAILAN180LUDU0028028                                                                                                                              *          20170220IMF1702204.TXT
MDDUH2233298201702                D89828070200PV4U20170224000030SPEAKER ASM                   M IMCTM S0FR05 FTTL  07070IMCT  S0 PTB  00005                    0900 SR        000000000000 FUJITSU TEN (THAILAN180LUDU0029029                                                                                                                              *          20170220IMF1702204.TXT
MDDUH2233299201702                D89828070200PV4U20170224000060SPEAKER ASM                   M IMCTM S0FR05 FTTL  07070IMCT  S0 PTB  00005                    1300 SR        000000000000 FUJITSU TEN (THAILAN180LUDU0030031                                                                                                                              *          20170220IMF1702204.TXT
MDDUH2233300201702                D89828070200PV4U20170224000030SPEAKER ASM                   M IMCTM S0FR05 FTTL  07070IMCT  S0 PTB  00005                    1600 SR        000000000000 FUJITSU TEN (THAILAN180LUDU0032032                                                                                                                              *          20170220IMF1702204.TXT
MDDUH2233301201702                D89828070300PT4U20170223000030SPEAKER ASM                   M IMCTM S9TS02 FTTL  07070IMCT  S9 PTB  00015                    2100 SR        000000000000 FUJITSU TEN (THAILAN180LUEU0018018                                                                                                                              *          20170220IMF1702204.TXT
MDDUH2233302201702                D89828070300PT4U20170224000030SPEAKER ASM                   M IMCTM S9TS02 FTTL  07070IMCT  S9 PTB  00015                    0400 SR        000000000000 FUJITSU TEN (THAILAN180LUDU0028028                                                                                                                              *          20170220IMF1702204.TXT
MDDUH2233303201702                D89828070300PT4U20170224000030SPEAKER ASM                   M IMCTM S9TS02 FTTL  07070IMCT  S9 PTB  00015                    0900 SR        000000000000 FUJITSU TEN (THAILAN180LUDU0029029                                                                                                                              *          20170220IMF1702204.TXT
MDDUH2233304201702                D89828070300PT4U20170224000060SPEAKER ASM                   M IMCTM S9TS02 FTTL  07070IMCT  S9 PTB  00015                    1300 SR        000000000000 FUJITSU TEN (THAILAN180LUDU0030031                                                                                                                              *          20170220IMF1702204.TXT
MDDUH2233305201702                D89828070300PT4U20170224000030SPEAKER ASM                   M IMCTM S9TS02 FTTL  07070IMCT  S9 PTB  00015                    1600 SR        000000000000 FUJITSU TEN (THAILAN180LUDU0032032                                                                                                                              *          20170220IMF1702204.TXT
MDEDH2313514201702                D89805293700PV1D20170223000060SPEAKER ASM                   M IMCTM S5MB11 FTTL  07070IMCT  S5 PTB  00003                    2230 SR        000000000000 FUJITSU TEN (THAILAN15019FL0151152                                                                                                                              *          20170220IMF1702204.TXT
MDEDH2313515201702                D89805293700PV1D20170224000030SPEAKER ASM                   M IMCTM S5MB11 FTTL  07070IMCT  S5 PTB  00003                    0400 SR        000000000000 FUJITSU TEN (THAILAN15019FL0153153                                                                                                                              *          20170220IMF1702204.TXT
MDEDH2313516201702                D89805293700PV1D20170224000030SPEAKER ASM                   M IMCTM S5MB11 FTTL  07070IMCT  S5 PTB  00003                    1300 SR        000000000000 FUJITSU TEN (THAILAN15019FL0154154                                                                                                                              *          20170220IMF1702204.TXT
MDEDH2313517201702                D89805293700PV1D20170224000030SPEAKER ASM                   M IMCTM S5MB11 FTTL  07070IMCT  S5 PTB  00003                    1600 SR        000000000000 FUJITSU TEN (THAILAN15019FL0155155                                                                                                                              *          20170220IMF1702204.TXT
MDEDH2313518201702                D89827952200PT1D20170224000015RADIO;AM/FM,CD,D              M IMCTM S5NC06 FTTL  07070IMCT  S5 X    00003                    1300 SR        000000000000 FUJITSU TEN (THAILAN17065NL0005005                                                                                                                              *          20170220IMF1702204.TXT
MDEDH2313519201702                D89828070100PV1D20170223000030SPEAKER ASM                   M IMCTM S5MB11 FTTL  07070IMCT  S5 PTB  00004                    2230 SR        000000000000 FUJITSU TEN (THAILAN17068NL0006006                                                                                                                              *          20170220IMF1702204.TXT
MDEDH2313520201702                D89828070100PV1D20170224000060SPEAKER ASM                   M IMCTM S5MB11 FTTL  07070IMCT  S5 PTB  00004                    0230 SR        000000000000 FUJITSU TEN (THAILAN17068NL000700717075PL0038038                                                                                                                *          20170220IMF1702204.TXT
MDEDH2313521201702                D89828070100PV1D20170224000030SPEAKER ASM                   M IMCTM S5MB11 FTTL  07070IMCT  S5 PTB  00004                    0400 SR        000000000000 FUJITSU TEN (THAILAN17075PL0039039                                                                                                                              *          20170220IMF1702204.TXT
MDEDH2313522201702                D89828070100PV1D20170224000030SPEAKER ASM                   M IMCTM S5MB11 FTTL  07070IMCT  S5 PTB  00004                    0900 SR        000000000000 FUJITSU TEN (THAILAN17075PL0040040                                                                                                                              *          20170220IMF1702204.TXT
MDEDH2313523201702                D89828070100PV1D20170224000060SPEAKER ASM                   M IMCTM S5MB11 FTTL  07070IMCT  S5 PTB  00004                    1300 SR        000000000000 FUJITSU TEN (THAILAN17065NL000500517075PL0041041                                                                                                                *          20170220IMF1702204.TXT
MDEDH2313524201702                D89828070100PV4D20170224000030SPEAKER ASM                   M IMCTM S0FL05 FTTL  07070IMCT  S0 PTB  00004                    0230 SR        000000000000 FUJITSU TEN (THAILAN17080NU0027027                                                                                                                              *          20170220IMF1702204.TXT
MDEDH2313525201702                D89828070100PV4D20170224000030SPEAKER ASM                   M IMCTM S0FL05 FTTL  07070IMCT  S0 PTB  00004                    1300 SR        000000000000 FUJITSU TEN (THAILAN17080NU0028028                                                                                                                              *          20170220IMF1702204.TXT
MDEDH2313526201702                D89828070200PV4D20170224000030SPEAKER ASM                   M IMCTM S0FR05 FTTL  07070IMCT  S0 PTB  00005                    0230 SR        000000000000 FUJITSU TEN (THAILAN17080NU0027027                                                                                                                              *          20170220IMF1702204.TXT
MDEDH2313527201702                D89828070200PV4D20170224000030SPEAKER ASM                   M IMCTM S0FR05 FTTL  07070IMCT  S0 PTB  00005                    1300 SR        000000000000 FUJITSU TEN (THAILAN17080NU0028028                                                                                                                              *          20170220IMF1702204.TXT
MDEDH2313528201702                D89828070300PT1D20170223000030SPEAKER ASM                   M IMCTM S5NB082FTTL  07070IMCT  S5 PTB  00015                    2230 SR        000000000000 FUJITSU TEN (THAILAN17068NL0006006                                                                                                                              *          20170220IMF1702204.TXT
MDEDH2313529201702                D89828070300PT1D20170224000030SPEAKER ASM                   M IMCTM S5NB082FTTL  07070IMCT  S5 PTB  00015                    0230 SR        000000000000 FUJITSU TEN (THAILAN17068NL0007007                                                                                                                              *          20170220IMF1702204.TXT
MDEDH2313530201702                D89828070300PT1D20170224000030SPEAKER ASM                   M IMCTM S5NB082FTTL  07070IMCT  S5 PTB  00015                    1300 SR        000000000000 FUJITSU TEN (THAILAN17065NL0005005                                                                                                                              *          20170220IMF1702204.TXT
MDEDH2313531201702                D89828070300PT4D20170224000030SPEAKER ASM                   M IMCTM S9TS02 FTTL  07070IMCT  S9 PTB  00015                    0230 SR        000000000000 FUJITSU TEN (THAILAN17080NU0027027                                                                                                                              *          20170220IMF1702204.TXT
MDEDH2313532201702                D89828070300PT4D20170224000030SPEAKER ASM                   M IMCTM S9TS02 FTTL  07070IMCT  S9 PTB  00015                    1300 SR        000000000000 FUJITSU TEN (THAILAN17080NU0028028                                                                                                                              *          20170220IMF1702204.TXT
MDEUH2236970201702                D89828070100PT4U20170223000030SPEAKER ASM                   M IMCTM S0FL05 FTTL  07070IMCT  S0 PTB  00004                    2230 SR        000000000000 FUJITSU TEN (THAILAN170C16U0176176                                                                                                                              *          20170220IMF1702204.TXT
MDEUH2236971201702                D89828070100PT4U20170224000030SPEAKER ASM                   M IMCTM S0FL05 FTTL  07070IMCT  S0 PTB  00004                    0230 SR        000000000000 FUJITSU TEN (THAILAN170C16U0177177                                                                                                                              *          20170220IMF1702204.TXT
MDEUH2236972201702                D89828070200PV4U20170223000030SPEAKER ASM                   M IMCTM S0FR05 FTTL  07070IMCT  S0 PTB  00005                    2230 SR        000000000000 FUJITSU TEN (THAILAN170C16U0176176                                                                                                                              *          20170220IMF1702204.TXT
MDEUH2236973201702                D89828070200PV4U20170224000030SPEAKER ASM                   M IMCTM S0FR05 FTTL  07070IMCT  S0 PTB  00005                    0230 SR        000000000000 FUJITSU TEN (THAILAN170C16U0177177                                                                                                                              *          20170220IMF1702204.TXT
MDEUH2236974201702                D89828070300PT4U20170223000030SPEAKER ASM                   M IMCTM S9TS02 FTTL  07070IMCT  S9 PTB  00015                    2230 SR        000000000000 FUJITSU TEN (THAILAN170C16U0176176                                                                                                                              *          20170220IMF1702204.TXT
MDEUH2236975201702                D89828070300PT4U20170224000030SPEAKER ASM                   M IMCTM S9TS02 FTTL  07070IMCT  S9 PTB  00015                    0230 SR        000000000000 FUJITSU TEN (THAILAN170C16U0177177                                                                                                                              *          20170220IMF1702204.TXT
