REC2017020820170209ISUZU                              23     
MAKK72047792201702D4               89805293700P3YK20170220000120SPEAKER ASM                   M IMCTM CM1    FTTL  07070IMKDC 01   PTB00003  K0                1621DES        000000000000 FUJITSU TEN (THAILAN                                                                                                                                            *G         20170208IMF1702085.TXT
MAKK72047793201702D4               89805293700P3YK20170221000180SPEAKER ASM                   M IMCTM CM1    FTTL  07070IMKDC 01   PTB00003  K0                1621DES        000000000000 FUJITSU TEN (THAILAN                                                                                                                                            *G         20170208IMF1702085.TXT
MAKK72047794201702D4               89805293700P3YK20170222000150SPEAKER ASM                   M IMCTM CM1    FTTL  07070IMKDC 01   PTB00003  K0                1621DES        000000000000 FUJITSU TEN (THAILAN                                                                                                                                            *G         20170208IMF1702085.TXT
MAKK72047795201702D4               89805293700P3YK20170223000150SPEAKER ASM                   M IMCTM CM1    FTTL  07070IMKDC 01   PTB00003  K0                1621DES        000000000000 FUJITSU TEN (THAILAN                                                                                                                                            *G         20170208IMF1702085.TXT
MAKK72047796201702D4               89805294000P3YK20170221000060SPEAKER ASM                   M IMCTM CM1    FTTL  07070IMKDC 01   PTB00015  K0                1621DES        000000000000 FUJITSU TEN (THAILAN                                                                                                                                            *G         20170208IMF1702085.TXT
MAKK72047797201702D4               89805294000P3YK20170222000030SPEAKER ASM                   M IMCTM CM1    FTTL  07070IMKDC 01   PTB00015  K0                1621DES        000000000000 FUJITSU TEN (THAILAN                                                                                                                                            *G         20170208IMF1702085.TXT
MAKK72047798201702D4               89805294000P3YK20170223000030SPEAKER ASM                   M IMCTM CM1    FTTL  07070IMKDC 01   PTB00015  K0                1621DES        000000000000 FUJITSU TEN (THAILAN                                                                                                                                            *G         20170208IMF1702085.TXT
MAKK72047799201702D4               89805294100P3YK20170221000030SPEAKER ASM                   M IMCTM CM1    FTTL  07070IMKDC 01   PTB00005  K0                1621DES        000000000000 FUJITSU TEN (THAILAN                                                                                                                                            *G         20170208IMF1702085.TXT
MAKK72047800201702D4               89805294100P3YK20170223000030SPEAKER ASM                   M IMCTM CM1    FTTL  07070IMKDC 01   PTB00005  K0                1621DES        000000000000 FUJITSU TEN (THAILAN                                                                                                                                            *G         20170208IMF1702085.TXT
MAKK72047801201702D4               89825451200P3YK20170220000060SPEAKER ASM;ROOF              M IMCTM CM1    FTTL  07070IMKDC 01   PTB00015  K0                1621DES        000000000000 FUJITSU TEN (THAILAN                                                                                                                                            *G         20170208IMF1702085.TXT
MAKK72047802201702D4               89825451200P3YK20170221000090SPEAKER ASM;ROOF              M IMCTM CM1    FTTL  07070IMKDC 01   PTB00015  K0                1621DES        000000000000 FUJITSU TEN (THAILAN                                                                                                                                            *G         20170208IMF1702085.TXT
MAKK72047803201702D4               89825451200P3YK20170222000090SPEAKER ASM;ROOF              M IMCTM CM1    FTTL  07070IMKDC 01   PTB00015  K0                1621DES        000000000000 FUJITSU TEN (THAILAN                                                                                                                                            *G         20170208IMF1702085.TXT
MAKK72047804201702D4               89825451200P3YK20170223000060SPEAKER ASM;ROOF              M IMCTM CM1    FTTL  07070IMKDC 01   PTB00015  K0                1621DES        000000000000 FUJITSU TEN (THAILAN                                                                                                                                            *G         20170208IMF1702085.TXT
MAKK72047805201702D4               89828070100P3YK20170220000150SPEAKER ASM                   M IMCTM CM1    FTTL  07070IMKDC 01 PTB  00003  K0                1621DES        000000000000 FUJITSU TEN (THAILAN                                                                                                                                            *G         20170208IMF1702085.TXT
MAKK72047806201702D4               89828070100P3YK20170221000120SPEAKER ASM                   M IMCTM CM1    FTTL  07070IMKDC 01 PTB  00003  K0                1621DES        000000000000 FUJITSU TEN (THAILAN                                                                                                                                            *G         20170208IMF1702085.TXT
MAKK72047807201702D4               89828070100P3YK20170222000120SPEAKER ASM                   M IMCTM CM1    FTTL  07070IMKDC 01 PTB  00003  K0                1621DES        000000000000 FUJITSU TEN (THAILAN                                                                                                                                            *G         20170208IMF1702085.TXT
MAKK72047808201702D4               89828070100P3YK20170223000060SPEAKER ASM                   M IMCTM CM1    FTTL  07070IMKDC 01 PTB  00003  K0                1621DES        000000000000 FUJITSU TEN (THAILAN                                                                                                                                            *G         20170208IMF1702085.TXT
MAKK72047809201702D4               89828070200P3YK20170220000060SPEAKER ASM                   M IMCTM CM1    FTTL  07070IMKDC 01 PTB  00005  K0                1621DES        000000000000 FUJITSU TEN (THAILAN                                                                                                                                            *G         20170208IMF1702085.TXT
MAKK72047810201702D4               89828070200P3YK20170222000030SPEAKER ASM                   M IMCTM CM1    FTTL  07070IMKDC 01 PTB  00005  K0                1621DES        000000000000 FUJITSU TEN (THAILAN                                                                                                                                            *G         20170208IMF1702085.TXT
MAKK72047811201702D4               89828070200P3YK20170223000030SPEAKER ASM                   M IMCTM CM1    FTTL  07070IMKDC 01 PTB  00005  K0                1621DES        000000000000 FUJITSU TEN (THAILAN                                                                                                                                            *G         20170208IMF1702085.TXT
MAKK72047812201702D4               89828070300P3YK20170220000060SPEAKER ASM                   M IMCTM CM1    FTTL  07070IMKDC 01 PTB  00015  K0                1621DES        000000000000 FUJITSU TEN (THAILAN                                                                                                                                            *G         20170208IMF1702085.TXT
MAKK72047813201702D4               89828070300P3YK20170222000030SPEAKER ASM                   M IMCTM CM1    FTTL  07070IMKDC 01 PTB  00015  K0                1621DES        000000000000 FUJITSU TEN (THAILAN                                                                                                                                            *G         20170208IMF1702085.TXT
MAKK72047814201702D4               89828070300P3YK20170223000030SPEAKER ASM                   M IMCTM CM1    FTTL  07070IMKDC 01 PTB  00015  K0                1621DES        000000000000 FUJITSU TEN (THAILAN                                                                                                                                            *G         20170208IMF1702085.TXT
