REC2017021720170217ISUZU                              58     
MDDDH2257575201702                D89821984430PT1D20170221000030RADIO;AM/FM,CD                M IMCTM S5NC06 FTTL  07070IMCT  S5 PTB  00005                    2230 SR        000000000000 FUJITSU TEN (THAILAN170KNCL0053053                                                                                                                              *          20170217IMF1702175.TXT
MDDDH2257576201702                D89821984430PT1D20170222000030RADIO;AM/FM,CD                M IMCTM S5NC06 FTTL  07070IMCT  S5 PTB  00005                    1600 SR        000000000000 FUJITSU TEN (THAILAN170KNCL0054054                                                                                                                              *          20170217IMF1702175.TXT
MDDDH2257577201702                D89828070100PV1D20170221000060SPEAKER ASM                   M IMCTM S5MB11 FTTL  07070IMCT  S5 PTB  00004                    2230 SR        000000000000 FUJITSU TEN (THAILAN170KNCL0053053                                                                                                                              *          20170217IMF1702175.TXT
MDDDH2257578201702                D89828070100PV1D20170222000060SPEAKER ASM                   M IMCTM S5MB11 FTTL  07070IMCT  S5 PTB  00004                    0400 SR        000000000000 FUJITSU TEN (THAILAN170KPFL0135135                                                                                                                              *          20170217IMF1702175.TXT
MDDDH2257579201702                D89828070100PV1D20170222000060SPEAKER ASM                   M IMCTM S5MB11 FTTL  07070IMCT  S5 PTB  00004                    1300 SR        000000000000 FUJITSU TEN (THAILAN170KNBL0019019                                                                                                                              *          20170217IMF1702175.TXT
MDDDH2257580201702                D89828070100PV1D20170222000120SPEAKER ASM                   M IMCTM S5MB11 FTTL  07070IMCT  S5 PTB  00004                    1600 SR        000000000000 FUJITSU TEN (THAILAN170KNCL0054054170KPEL0041041                                                                                                                *          20170217IMF1702175.TXT
MDDDH2257581201702                D89828070300PT1D20170222000060SPEAKER ASM                   M IMCTM S5NB082FTTL  07070IMCT  S5 PTB  00015                    0400 SR        000000000000 FUJITSU TEN (THAILAN170KPFL0135135                                                                                                                              *          20170217IMF1702175.TXT
MDDDH2257582201702                D89828070300PT1D20170222000060SPEAKER ASM                   M IMCTM S5NB082FTTL  07070IMCT  S5 PTB  00015                    1600 SR        000000000000 FUJITSU TEN (THAILAN170KPEL0041041                                                                                                                              *          20170217IMF1702175.TXT
MDDDH2257583201702                D89831228300PT1D20170222000030RADIO;AM/FM,CD                M IMCTM S5NC06 FTTL  07070IMCT  S5 CPB  00003                    0400 SR        000000000000 FUJITSU TEN (THAILAN170KPFL0135135                                                                                                                              *          20170217IMF1702175.TXT
MDDDH2257584201702                D89831228300PT1D20170222000030RADIO;AM/FM,CD                M IMCTM S5NC06 FTTL  07070IMCT  S5 CPB  00003                    1600 SR        000000000000 FUJITSU TEN (THAILAN170KPEL0041041                                                                                                                              *          20170217IMF1702175.TXT
MDDUH2226264201702                D89828070100PT4U20170222000030SPEAKER ASM                   M IMCTM S0FL05 FTTL  07070IMCT  S0 PTB  00004                    0230 SR        000000000000 FUJITSU TEN (THAILAN180LUDU0018018                                                                                                                              *          20170217IMF1702175.TXT
MDDUH2226265201702                D89828070100PT4U20170222000030SPEAKER ASM                   M IMCTM S0FL05 FTTL  07070IMCT  S0 PTB  00004                    0400 SR        000000000000 FUJITSU TEN (THAILAN180LUDU0019019                                                                                                                              *          20170217IMF1702175.TXT
MDDUH2226266201702                D89828070100PT4U20170222000060SPEAKER ASM                   M IMCTM S0FL05 FTTL  07070IMCT  S0 PTB  00004                    0900 SR        000000000000 FUJITSU TEN (THAILAN180LUDU0020021                                                                                                                              *          20170217IMF1702175.TXT
MDDUH2226267201702                D89828070100PT4U20170222000030SPEAKER ASM                   M IMCTM S0FL05 FTTL  07070IMCT  S0 PTB  00004                    1300 SR        000000000000 FUJITSU TEN (THAILAN180LUDU0022022                                                                                                                              *          20170217IMF1702175.TXT
MDDUH2226268201702                D89828070100PT4U20170222000030SPEAKER ASM                   M IMCTM S0FL05 FTTL  07070IMCT  S0 PTB  00004                    1600 SR        000000000000 FUJITSU TEN (THAILAN180LUEU0017017                                                                                                                              *          20170217IMF1702175.TXT
MDDUH2226269201702                D89828070200PV4U20170222000030SPEAKER ASM                   M IMCTM S0FR05 FTTL  07070IMCT  S0 PTB  00005                    0230 SR        000000000000 FUJITSU TEN (THAILAN180LUDU0018018                                                                                                                              *          20170217IMF1702175.TXT
MDDUH2226270201702                D89828070200PV4U20170222000030SPEAKER ASM                   M IMCTM S0FR05 FTTL  07070IMCT  S0 PTB  00005                    0400 SR        000000000000 FUJITSU TEN (THAILAN180LUDU0019019                                                                                                                              *          20170217IMF1702175.TXT
MDDUH2226271201702                D89828070200PV4U20170222000060SPEAKER ASM                   M IMCTM S0FR05 FTTL  07070IMCT  S0 PTB  00005                    0900 SR        000000000000 FUJITSU TEN (THAILAN180LUDU0020021                                                                                                                              *          20170217IMF1702175.TXT
MDDUH2226272201702                D89828070200PV4U20170222000030SPEAKER ASM                   M IMCTM S0FR05 FTTL  07070IMCT  S0 PTB  00005                    1300 SR        000000000000 FUJITSU TEN (THAILAN180LUDU0022022                                                                                                                              *          20170217IMF1702175.TXT
MDDUH2226273201702                D89828070200PV4U20170222000030SPEAKER ASM                   M IMCTM S0FR05 FTTL  07070IMCT  S0 PTB  00005                    1600 SR        000000000000 FUJITSU TEN (THAILAN180LUEU0017017                                                                                                                              *          20170217IMF1702175.TXT
MDDUH2226274201702                D89828070300PT4U20170222000030SPEAKER ASM                   M IMCTM S9TS02 FTTL  07070IMCT  S9 PTB  00015                    0230 SR        000000000000 FUJITSU TEN (THAILAN180LUDU0018018                                                                                                                              *          20170217IMF1702175.TXT
MDDUH2226275201702                D89828070300PT4U20170222000030SPEAKER ASM                   M IMCTM S9TS02 FTTL  07070IMCT  S9 PTB  00015                    0400 SR        000000000000 FUJITSU TEN (THAILAN180LUDU0019019                                                                                                                              *          20170217IMF1702175.TXT
MDDUH2226276201702                D89828070300PT4U20170222000060SPEAKER ASM                   M IMCTM S9TS02 FTTL  07070IMCT  S9 PTB  00015                    0900 SR        000000000000 FUJITSU TEN (THAILAN180LUDU0020021                                                                                                                              *          20170217IMF1702175.TXT
MDDUH2226277201702                D89828070300PT4U20170222000030SPEAKER ASM                   M IMCTM S9TS02 FTTL  07070IMCT  S9 PTB  00015                    1300 SR        000000000000 FUJITSU TEN (THAILAN180LUDU0022022                                                                                                                              *          20170217IMF1702175.TXT
MDDUH2226278201702                D89828070300PT4U20170222000030SPEAKER ASM                   M IMCTM S9TS02 FTTL  07070IMCT  S9 PTB  00015                    1600 SR        000000000000 FUJITSU TEN (THAILAN180LUEU0017017                                                                                                                              *          20170217IMF1702175.TXT
MDEDH2296822201702                D89805293700PV1D20170221000030SPEAKER ASM                   M IMCTM S5MB11 FTTL  07070IMCT  S5 PTB  00003                    2100 SR        000000000000 FUJITSU TEN (THAILAN15019FL0139139                                                                                                                              *          20170217IMF1702175.TXT
MDEDH2296823201702                D89805293700PV1D20170221000060SPEAKER ASM                   M IMCTM S5MB11 FTTL  07070IMCT  S5 PTB  00003                    2230 SR        000000000000 FUJITSU TEN (THAILAN15019FL0140141                                                                                                                              *          20170217IMF1702175.TXT
MDEDH2296824201702                D89805293700PV1D20170222000060SPEAKER ASM                   M IMCTM S5MB11 FTTL  07070IMCT  S5 PTB  00003                    1600 SR        000000000000 FUJITSU TEN (THAILAN15019FL0142143                                                                                                                              *          20170217IMF1702175.TXT
MDEDH2296825201702                D89828070100PV1D20170221000030SPEAKER ASM                   M IMCTM S5MB11 FTTL  07070IMCT  S5 PTB  00004                    2100 SR        000000000000 FUJITSU TEN (THAILAN17053NL0011011                                                                                                                              *          20170217IMF1702175.TXT
MDEDH2296826201702                D89828070100PV1D20170221000060SPEAKER ASM                   M IMCTM S5MB11 FTTL  07070IMCT  S5 PTB  00004                    2230 SR        000000000000 FUJITSU TEN (THAILAN17075PL0030031                                                                                                                              *          20170217IMF1702175.TXT
MDEDH2296827201702                D89828070100PV1D20170222000030SPEAKER ASM                   M IMCTM S5MB11 FTTL  07070IMCT  S5 PTB  00004                    0230 SR        000000000000 FUJITSU TEN (THAILAN17034RL0001001                                                                                                                              *          20170217IMF1702175.TXT
MDEDH2296828201702                D89828070100PV1D20170222000030SPEAKER ASM                   M IMCTM S5MB11 FTTL  07070IMCT  S5 PTB  00004                    0400 SR        000000000000 FUJITSU TEN (THAILAN17034RL0002002                                                                                                                              *          20170217IMF1702175.TXT
MDEDH2296829201702                D89828070100PV1D20170222000120SPEAKER ASM                   M IMCTM S5MB11 FTTL  07070IMCT  S5 PTB  00004                    0900 SR        000000000000 FUJITSU TEN (THAILAN17047RL000200217051RL000100117075PL0032033                                                                                                  *          20170217IMF1702175.TXT
MDEDH2296830201702                D89828070100PV1D20170222000060SPEAKER ASM                   M IMCTM S5MB11 FTTL  07070IMCT  S5 PTB  00004                    1300 SR        000000000000 FUJITSU TEN (THAILAN17034RL000300317046QL0006006                                                                                                                *          20170217IMF1702175.TXT
MDEDH2296831201702                D89828070100PV1D20170222000060SPEAKER ASM                   M IMCTM S5MB11 FTTL  07070IMCT  S5 PTB  00004                    1600 SR        000000000000 FUJITSU TEN (THAILAN17075PL0034035                                                                                                                              *          20170217IMF1702175.TXT
MDEDH2296832201702                D89828070100PV4D20170221000030SPEAKER ASM                   M IMCTM S0FL05 FTTL  07070IMCT  S0 PTB  00004                    2100 SR        000000000000 FUJITSU TEN (THAILAN17080NU0021021                                                                                                                              *          20170217IMF1702175.TXT
MDEDH2296833201702                D89828070100PV4D20170222000030SPEAKER ASM                   M IMCTM S0FL05 FTTL  07070IMCT  S0 PTB  00004                    0230 SR        000000000000 FUJITSU TEN (THAILAN17080NU0022022                                                                                                                              *          20170217IMF1702175.TXT
MDEDH2296834201702                D89828070100PV4D20170222000030SPEAKER ASM                   M IMCTM S0FL05 FTTL  07070IMCT  S0 PTB  00004                    1600 SR        000000000000 FUJITSU TEN (THAILAN17080NU0023023                                                                                                                              *          20170217IMF1702175.TXT
MDEDH2296835201702                D89828070200PV1D20170222000060SPEAKER ASM                   M IMCTM S5MA14 FTTL  07070IMCT  S5 PTB  00005                    0900 SR        000000000000 FUJITSU TEN (THAILAN17047RL000200217051RL0001001                                                                                                                *          20170217IMF1702175.TXT
MDEDH2296836201702                D89828070200PV1D20170222000030SPEAKER ASM                   M IMCTM S5MA14 FTTL  07070IMCT  S5 PTB  00005                    1300 SR        000000000000 FUJITSU TEN (THAILAN17046QL0006006                                                                                                                              *          20170217IMF1702175.TXT
MDEDH2296837201702                D89828070200PV4D20170221000030SPEAKER ASM                   M IMCTM S0FR05 FTTL  07070IMCT  S0 PTB  00005                    2100 SR        000000000000 FUJITSU TEN (THAILAN17080NU0021021                                                                                                                              *          20170217IMF1702175.TXT
MDEDH2296838201702                D89828070200PV4D20170222000030SPEAKER ASM                   M IMCTM S0FR05 FTTL  07070IMCT  S0 PTB  00005                    0230 SR        000000000000 FUJITSU TEN (THAILAN17080NU0022022                                                                                                                              *          20170217IMF1702175.TXT
MDEDH2296839201702                D89828070200PV4D20170222000030SPEAKER ASM                   M IMCTM S0FR05 FTTL  07070IMCT  S0 PTB  00005                    1600 SR        000000000000 FUJITSU TEN (THAILAN17080NU0023023                                                                                                                              *          20170217IMF1702175.TXT
MDEDH2296840201702                D89828070300PT1D20170221000030SPEAKER ASM                   M IMCTM S5NB082FTTL  07070IMCT  S5 PTB  00015                    2100 SR        000000000000 FUJITSU TEN (THAILAN17053NL0011011                                                                                                                              *          20170217IMF1702175.TXT
MDEDH2296841201702                D89828070300PT1D20170222000060SPEAKER ASM                   M IMCTM S5NB082FTTL  07070IMCT  S5 PTB  00015                    0900 SR        000000000000 FUJITSU TEN (THAILAN17047RL000200217051RL0001001                                                                                                                *          20170217IMF1702175.TXT
MDEDH2296842201702                D89828070300PT1D20170222000030SPEAKER ASM                   M IMCTM S5NB082FTTL  07070IMCT  S5 PTB  00015                    1300 SR        000000000000 FUJITSU TEN (THAILAN17046QL0006006                                                                                                                              *          20170217IMF1702175.TXT
MDEDH2296843201702                D89828070300PT4D20170221000030SPEAKER ASM                   M IMCTM S9TS02 FTTL  07070IMCT  S9 PTB  00015                    2100 SR        000000000000 FUJITSU TEN (THAILAN17080NU0021021                                                                                                                              *          20170217IMF1702175.TXT
MDEDH2296844201702                D89828070300PT4D20170222000030SPEAKER ASM                   M IMCTM S9TS02 FTTL  07070IMCT  S9 PTB  00015                    0230 SR        000000000000 FUJITSU TEN (THAILAN17080NU0022022                                                                                                                              *          20170217IMF1702175.TXT
MDEDH2296845201702                D89828070300PT4D20170222000030SPEAKER ASM                   M IMCTM S9TS02 FTTL  07070IMCT  S9 PTB  00015                    1600 SR        000000000000 FUJITSU TEN (THAILAN17080NU0023023                                                                                                                              *          20170217IMF1702175.TXT
MDEDH2296846201702                D89829645400PT1D20170222000015RADIO;ASM DVD                 M IMCTM S5NC06 FTTL  07070IMCT  S5 PTB  00003                    0900 SR        000000000000 FUJITSU TEN (THAILAN17051RL0001001                                                                                                                              *          20170217IMF1702175.TXT
MDEDH2296847201702                D89829645700PT1D20170221000015RADIO;ASM DVD                 M IMCTM S5NC06 FTTL  07070IMCT  S5 X    00003                    2100 SR        000000000000 FUJITSU TEN (THAILAN17053NL0011011                                                                                                                              *          20170217IMF1702175.TXT
MDEDH2296848201702                D89831229000PT1D20170222000015RADIO;AM/FM,CD                M IMCTM S5NC06 FTTL  07070IMCT  S5 PTB  00003                    0900 SR        000000000000 FUJITSU TEN (THAILAN17047RL0002002                                                                                                                              *          20170217IMF1702175.TXT
MDEUH2232251201702                D89828070100PT4U20170221000030SPEAKER ASM                   M IMCTM S0FL05 FTTL  07070IMCT  S0 PTB  00004                    2230 SR        000000000000 FUJITSU TEN (THAILAN170C16U0169169                                                                                                                              *          20170217IMF1702175.TXT
MDEUH2232252201702                D89828070100PT4U20170222000060SPEAKER ASM                   M IMCTM S0FL05 FTTL  07070IMCT  S0 PTB  00004                    1600 SR        000000000000 FUJITSU TEN (THAILAN170C16U0170171                                                                                                                              *          20170217IMF1702175.TXT
MDEUH2232253201702                D89828070200PV4U20170221000030SPEAKER ASM                   M IMCTM S0FR05 FTTL  07070IMCT  S0 PTB  00005                    2230 SR        000000000000 FUJITSU TEN (THAILAN170C16U0169169                                                                                                                              *          20170217IMF1702175.TXT
MDEUH2232254201702                D89828070200PV4U20170222000060SPEAKER ASM                   M IMCTM S0FR05 FTTL  07070IMCT  S0 PTB  00005                    1600 SR        000000000000 FUJITSU TEN (THAILAN170C16U0170171                                                                                                                              *          20170217IMF1702175.TXT
MDEUH2232255201702                D89828070300PT4U20170221000030SPEAKER ASM                   M IMCTM S9TS02 FTTL  07070IMCT  S9 PTB  00015                    2230 SR        000000000000 FUJITSU TEN (THAILAN170C16U0169169                                                                                                                              *          20170217IMF1702175.TXT
MDEUH2232256201702                D89828070300PT4U20170222000060SPEAKER ASM                   M IMCTM S9TS02 FTTL  07070IMCT  S9 PTB  00015                    1600 SR        000000000000 FUJITSU TEN (THAILAN170C16U0170171                                                                                                                              *          20170217IMF1702175.TXT
