REC2017020620170207ISUZU                              42     
MDDDH2222866201702                D89821984430PT1D20170209000030RADIO;AM/FM,CD                M IMCTM S5NC06 FTTL  07070IMCT  S5 PTB  00005                    2230 SR        000000000000 FUJITSU TEN (THAILAN170KPAL0081081                                                                                                                              *          20170206IMF1702065.TXT
MDDDH2222867201702                D89821984430PT1D20170210000030RADIO;AM/FM,CD                M IMCTM S5NC06 FTTL  07070IMCT  S5 PTB  00005                    0900 SR        000000000000 FUJITSU TEN (THAILAN170KRAL0036036                                                                                                                              *          20170206IMF1702065.TXT
MDDDH2222868201702                D89825217900PT1D20170210000030RADIO;AM/FM,CD,D              M IMCTM S5NC06 FTTL  07070IMCT  S5 PTB  00003                    0400 SR        000000000000 FUJITSU TEN (THAILAN170KPJL0034034                                                                                                                              *          20170206IMF1702065.TXT
MDDDH2222869201702                D89825217900PT1D20170210000030RADIO;AM/FM,CD,D              M IMCTM S5NC06 FTTL  07070IMCT  S5 PTB  00003                    1300 SR        000000000000 FUJITSU TEN (THAILAN170KPJL0035035                                                                                                                              *          20170206IMF1702065.TXT
MDDDH2222870201702                D89828070100PV1D20170209000120SPEAKER ASM                   M IMCTM S5MB11 FTTL  07070IMCT  S5 PTB  00004                    2230 SR        000000000000 FUJITSU TEN (THAILAN170KNBL0018018170KPAL0081081                                                                                                                *          20170206IMF1702065.TXT
MDDDH2222871201702                D89828070100PV1D20170210000060SPEAKER ASM                   M IMCTM S5MB11 FTTL  07070IMCT  S5 PTB  00004                    0230 SR        000000000000 FUJITSU TEN (THAILAN170KPFL0126126                                                                                                                              *          20170206IMF1702065.TXT
MDDDH2222872201702                D89828070100PV1D20170210000060SPEAKER ASM                   M IMCTM S5MB11 FTTL  07070IMCT  S5 PTB  00004                    0400 SR        000000000000 FUJITSU TEN (THAILAN170KPJL0034034                                                                                                                              *          20170206IMF1702065.TXT
MDDDH2222873201702                D89828070100PV1D20170210000120SPEAKER ASM                   M IMCTM S5MB11 FTTL  07070IMCT  S5 PTB  00004                    0900 SR        000000000000 FUJITSU TEN (THAILAN170KRAL0036036170KREL0024024                                                                                                                *          20170206IMF1702065.TXT
MDDDH2222874201702                D89828070100PV1D20170210000120SPEAKER ASM                   M IMCTM S5MB11 FTTL  07070IMCT  S5 PTB  00004                    1300 SR        000000000000 FUJITSU TEN (THAILAN170KPJL0035035170KRTL0011011                                                                                                                *          20170206IMF1702065.TXT
MDDDH2222875201702                D89828070200PV1D20170210000060SPEAKER ASM                   M IMCTM S5MA14 FTTL  07070IMCT  S5 PTB  00005                    0900 SR        000000000000 FUJITSU TEN (THAILAN170KREL0024024                                                                                                                              *          20170206IMF1702065.TXT
MDDDH2222876201702                D89828070200PV1D20170210000060SPEAKER ASM                   M IMCTM S5MA14 FTTL  07070IMCT  S5 PTB  00005                    1300 SR        000000000000 FUJITSU TEN (THAILAN170KRTL0011011                                                                                                                              *          20170206IMF1702065.TXT
MDDDH2222877201702                D89828070300PT1D20170210000060SPEAKER ASM                   M IMCTM S5NB082FTTL  07070IMCT  S5 PTB  00015                    0230 SR        000000000000 FUJITSU TEN (THAILAN170KPFL0126126                                                                                                                              *          20170206IMF1702065.TXT
MDDDH2222878201702                D89828070300PT1D20170210000060SPEAKER ASM                   M IMCTM S5NB082FTTL  07070IMCT  S5 PTB  00015                    0400 SR        000000000000 FUJITSU TEN (THAILAN170KPJL0034034                                                                                                                              *          20170206IMF1702065.TXT
MDDDH2222879201702                D89828070300PT1D20170210000060SPEAKER ASM                   M IMCTM S5NB082FTTL  07070IMCT  S5 PTB  00015                    0900 SR        000000000000 FUJITSU TEN (THAILAN170KREL0024024                                                                                                                              *          20170206IMF1702065.TXT
MDDDH2222880201702                D89828070300PT1D20170210000120SPEAKER ASM                   M IMCTM S5NB082FTTL  07070IMCT  S5 PTB  00015                    1300 SR        000000000000 FUJITSU TEN (THAILAN170KPJL0035035170KRTL0011011                                                                                                                *          20170206IMF1702065.TXT
MDDDH2222881201702                D89829645900PT1D20170210000030RADIO;ASM DVD                 M IMCTM S5NC06 FTTL  07070IMCT  S5 CPB  00003                    1300 SR        000000000000 FUJITSU TEN (THAILAN170KRTL0011011                                                                                                                              *          20170206IMF1702065.TXT
MDDDH2222882201702                D89831228300PT1D20170210000030RADIO;AM/FM,CD                M IMCTM S5NC06 FTTL  07070IMCT  S5 CPB  00003                    0230 SR        000000000000 FUJITSU TEN (THAILAN170KPFL0126126                                                                                                                              *          20170206IMF1702065.TXT
MDDDH2222883201702                D89831228400PT1D20170210000030RADIO;AM/FM,CD                M IMCTM S5NC06 FTTL  07070IMCT  S5 CPB  00003                    0900 SR        000000000000 FUJITSU TEN (THAILAN170KREL0024024                                                                                                                              *          20170206IMF1702065.TXT
MDEDH2228406201702                D89828070100PV1D20170209000030SPEAKER ASM                   M IMCTM S5MB11 FTTL  07070IMCT  S5 PTB  00004                    2100 SR        000000000000 FUJITSU TEN (THAILAN17057ML0003003                                                                                                                              *          20170206IMF1702065.TXT
MDEDH2228407201702                D89828070100PV1D20170209000030SPEAKER ASM                   M IMCTM S5MB11 FTTL  07070IMCT  S5 PTB  00004                    2230 SR        000000000000 FUJITSU TEN (THAILAN17057ML0004004                                                                                                                              *          20170206IMF1702065.TXT
MDEDH2228408201702                D89828070100PV1D20170210000090SPEAKER ASM                   M IMCTM S5MB11 FTTL  07070IMCT  S5 PTB  00004                    0400 SR        000000000000 FUJITSU TEN (THAILAN17031NL000300417075PL0006006                                                                                                                *          20170206IMF1702065.TXT
MDEDH2228409201702                D89828070100PV1D20170210000030SPEAKER ASM                   M IMCTM S5MB11 FTTL  07070IMCT  S5 PTB  00004                    1300 SR        000000000000 FUJITSU TEN (THAILAN17062ML0004004                                                                                                                              *          20170206IMF1702065.TXT
MDEDH2228410201702                D89828070100PV4D20170209000060SPEAKER ASM                   M IMCTM S0FL05 FTTL  07070IMCT  S0 PTB  00004                    2230 SR        000000000000 FUJITSU TEN (THAILAN17041PU000100117075PU0006006                                                                                                                *          20170206IMF1702065.TXT
MDEDH2228411201702                D89828070100PV4D20170210000060SPEAKER ASM                   M IMCTM S0FL05 FTTL  07070IMCT  S0 PTB  00004                    0400 SR        000000000000 FUJITSU TEN (THAILAN17075PU000700717080NU0006006                                                                                                                *          20170206IMF1702065.TXT
MDEDH2228412201702                D89828070100PV4D20170210000060SPEAKER ASM                   M IMCTM S0FL05 FTTL  07070IMCT  S0 PTB  00004                    1300 SR        000000000000 FUJITSU TEN (THAILAN17075PU000800817080NU0007007                                                                                                                *          20170206IMF1702065.TXT
MDEDH2228413201702                D89828070200PV4D20170210000030SPEAKER ASM                   M IMCTM S0FR05 FTTL  07070IMCT  S0 PTB  00005                    0400 SR        000000000000 FUJITSU TEN (THAILAN17080NU0006006                                                                                                                              *          20170206IMF1702065.TXT
MDEDH2228414201702                D89828070200PV4D20170210000030SPEAKER ASM                   M IMCTM S0FR05 FTTL  07070IMCT  S0 PTB  00005                    1300 SR        000000000000 FUJITSU TEN (THAILAN17080NU0007007                                                                                                                              *          20170206IMF1702065.TXT
MDEDH2228415201702                D89828070300PT1D20170209000030SPEAKER ASM                   M IMCTM S5NB082FTTL  07070IMCT  S5 PTB  00015                    2100 SR        000000000000 FUJITSU TEN (THAILAN17057ML0003003                                                                                                                              *          20170206IMF1702065.TXT
MDEDH2228416201702                D89828070300PT1D20170209000030SPEAKER ASM                   M IMCTM S5NB082FTTL  07070IMCT  S5 PTB  00015                    2230 SR        000000000000 FUJITSU TEN (THAILAN17057ML0004004                                                                                                                              *          20170206IMF1702065.TXT
MDEDH2228417201702                D89828070300PT1D20170210000030SPEAKER ASM                   M IMCTM S5NB082FTTL  07070IMCT  S5 PTB  00015                    1300 SR        000000000000 FUJITSU TEN (THAILAN17062ML0004004                                                                                                                              *          20170206IMF1702065.TXT
MDEDH2228418201702                D89828070300PT4D20170210000030SPEAKER ASM                   M IMCTM S9TS02 FTTL  07070IMCT  S9 PTB  00015                    0400 SR        000000000000 FUJITSU TEN (THAILAN17080NU0006006                                                                                                                              *          20170206IMF1702065.TXT
MDEDH2228419201702                D89828070300PT4D20170210000030SPEAKER ASM                   M IMCTM S9TS02 FTTL  07070IMCT  S9 PTB  00015                    1300 SR        000000000000 FUJITSU TEN (THAILAN17080NU0007007                                                                                                                              *          20170206IMF1702065.TXT
MDEDH2228420201702                D89829622400PT1D20170210000015RADIO;ASM DVD                 M IMCTM S5NC06 FTTL  07070IMCT  S5 PTB  00003                    1300 SR        000000000000 FUJITSU TEN (THAILAN17062ML0004004                                                                                                                              *          20170206IMF1702065.TXT
MDEUH2213005201702                D89828070100PT4U20170209000030SPEAKER ASM                   M IMCTM S0FL05 FTTL  07070IMCT  S0 PTB  00004                    2230 SR        000000000000 FUJITSU TEN (THAILAN170C16U0143143                                                                                                                              *          20170206IMF1702065.TXT
MDEUH2213006201702                D89828070100PT4U20170210000030SPEAKER ASM                   M IMCTM S0FL05 FTTL  07070IMCT  S0 PTB  00004                    0900 SR        000000000000 FUJITSU TEN (THAILAN170C16U0144144                                                                                                                              *          20170206IMF1702065.TXT
MDEUH2213007201702                D89828070100PT4U20170210000030SPEAKER ASM                   M IMCTM S0FL05 FTTL  07070IMCT  S0 PTB  00004                    1300 SR        000000000000 FUJITSU TEN (THAILAN170C16U0145145                                                                                                                              *          20170206IMF1702065.TXT
MDEUH2213008201702                D89828070200PV4U20170209000030SPEAKER ASM                   M IMCTM S0FR05 FTTL  07070IMCT  S0 PTB  00005                    2230 SR        000000000000 FUJITSU TEN (THAILAN170C16U0143143                                                                                                                              *          20170206IMF1702065.TXT
MDEUH2213009201702                D89828070200PV4U20170210000030SPEAKER ASM                   M IMCTM S0FR05 FTTL  07070IMCT  S0 PTB  00005                    0900 SR        000000000000 FUJITSU TEN (THAILAN170C16U0144144                                                                                                                              *          20170206IMF1702065.TXT
MDEUH2213010201702                D89828070200PV4U20170210000030SPEAKER ASM                   M IMCTM S0FR05 FTTL  07070IMCT  S0 PTB  00005                    1300 SR        000000000000 FUJITSU TEN (THAILAN170C16U0145145                                                                                                                              *          20170206IMF1702065.TXT
MDEUH2213011201702                D89828070300PT4U20170209000030SPEAKER ASM                   M IMCTM S9TS02 FTTL  07070IMCT  S9 PTB  00015                    2230 SR        000000000000 FUJITSU TEN (THAILAN170C16U0143143                                                                                                                              *          20170206IMF1702065.TXT
MDEUH2213012201702                D89828070300PT4U20170210000030SPEAKER ASM                   M IMCTM S9TS02 FTTL  07070IMCT  S9 PTB  00015                    0900 SR        000000000000 FUJITSU TEN (THAILAN170C16U0144144                                                                                                                              *          20170206IMF1702065.TXT
MDEUH2213013201702                D89828070300PT4U20170210000030SPEAKER ASM                   M IMCTM S9TS02 FTTL  07070IMCT  S9 PTB  00015                    1300 SR        000000000000 FUJITSU TEN (THAILAN170C16U0145145                                                                                                                              *          20170206IMF1702065.TXT
