REC2017021820170218ISUZU                              58     
MDDDH2260789201702                D89821984430PT1D20170223000030RADIO;AM/FM,CD                M IMCTM S5NC06 FTTL  07070IMCT  S5 PTB  00005                    0900 SR        000000000000 FUJITSU TEN (THAILAN170KNCL0055055                                                                                                                              *          20170218IMF1702183.TXT
MDDDH2260790201702                D89821984430PT1D20170223000030RADIO;AM/FM,CD                M IMCTM S5NC06 FTTL  07070IMCT  S5 PTB  00005                    1300 SR        000000000000 FUJITSU TEN (THAILAN170KNDL0074074                                                                                                                              *          20170218IMF1702183.TXT
MDDDH2260791201702                D89828070100PV1D20170222000120SPEAKER ASM                   M IMCTM S5MB11 FTTL  07070IMCT  S5 PTB  00004                    2230 SR        000000000000 FUJITSU TEN (THAILAN170KPFL0136136170KRHL0020020                                                                                                                *          20170218IMF1702183.TXT
MDDDH2260792201702                D89828070100PV1D20170223000060SPEAKER ASM                   M IMCTM S5MB11 FTTL  07070IMCT  S5 PTB  00004                    0400 SR        000000000000 FUJITSU TEN (THAILAN170KRTL0016016                                                                                                                              *          20170218IMF1702183.TXT
MDDDH2260793201702                D89828070100PV1D20170223000060SPEAKER ASM                   M IMCTM S5MB11 FTTL  07070IMCT  S5 PTB  00004                    0900 SR        000000000000 FUJITSU TEN (THAILAN170KNCL0055055                                                                                                                              *          20170218IMF1702183.TXT
MDDDH2260794201702                D89828070100PV1D20170223000060SPEAKER ASM                   M IMCTM S5MB11 FTTL  07070IMCT  S5 PTB  00004                    1300 SR        000000000000 FUJITSU TEN (THAILAN170KNDL0074074                                                                                                                              *          20170218IMF1702183.TXT
MDDDH2260795201702                D89828070100PV1D20170223000060SPEAKER ASM                   M IMCTM S5MB11 FTTL  07070IMCT  S5 PTB  00004                    1600 SR        000000000000 FUJITSU TEN (THAILAN170KRUL0008008                                                                                                                              *          20170218IMF1702183.TXT
MDDDH2260796201702                D89828070200PV1D20170222000060SPEAKER ASM                   M IMCTM S5MA14 FTTL  07070IMCT  S5 PTB  00005                    2230 SR        000000000000 FUJITSU TEN (THAILAN170KRHL0020020                                                                                                                              *          20170218IMF1702183.TXT
MDDDH2260797201702                D89828070200PV1D20170223000060SPEAKER ASM                   M IMCTM S5MA14 FTTL  07070IMCT  S5 PTB  00005                    0400 SR        000000000000 FUJITSU TEN (THAILAN170KRTL0016016                                                                                                                              *          20170218IMF1702183.TXT
MDDDH2260798201702                D89828070200PV1D20170223000060SPEAKER ASM                   M IMCTM S5MA14 FTTL  07070IMCT  S5 PTB  00005                    1600 SR        000000000000 FUJITSU TEN (THAILAN170KRUL0008008                                                                                                                              *          20170218IMF1702183.TXT
MDDDH2260799201702                D89828070300PT1D20170222000120SPEAKER ASM                   M IMCTM S5NB082FTTL  07070IMCT  S5 PTB  00015                    2230 SR        000000000000 FUJITSU TEN (THAILAN170KPFL0136136170KRHL0020020                                                                                                                *          20170218IMF1702183.TXT
MDDDH2260800201702                D89828070300PT1D20170223000060SPEAKER ASM                   M IMCTM S5NB082FTTL  07070IMCT  S5 PTB  00015                    0400 SR        000000000000 FUJITSU TEN (THAILAN170KRTL0016016                                                                                                                              *          20170218IMF1702183.TXT
MDDDH2260801201702                D89828070300PT1D20170223000060SPEAKER ASM                   M IMCTM S5NB082FTTL  07070IMCT  S5 PTB  00015                    1600 SR        000000000000 FUJITSU TEN (THAILAN170KRUL0008008                                                                                                                              *          20170218IMF1702183.TXT
MDDDH2260802201702                D89829645900PT1D20170223000030RADIO;ASM DVD                 M IMCTM S5NC06 FTTL  07070IMCT  S5 CPB  00003                    0400 SR        000000000000 FUJITSU TEN (THAILAN170KRTL0016016                                                                                                                              *          20170218IMF1702183.TXT
MDDDH2260803201702                D89831228300PT1D20170222000030RADIO;AM/FM,CD                M IMCTM S5NC06 FTTL  07070IMCT  S5 CPB  00003                    2230 SR        000000000000 FUJITSU TEN (THAILAN170KPFL0136136                                                                                                                              *          20170218IMF1702183.TXT
MDDUH2229854201702                D89828070100PT4U20170223000030SPEAKER ASM                   M IMCTM S0FL05 FTTL  07070IMCT  S0 PTB  00004                    0400 SR        000000000000 FUJITSU TEN (THAILAN180LUDU0023023                                                                                                                              *          20170218IMF1702183.TXT
MDDUH2229855201702                D89828070100PT4U20170223000060SPEAKER ASM                   M IMCTM S0FL05 FTTL  07070IMCT  S0 PTB  00004                    0900 SR        000000000000 FUJITSU TEN (THAILAN180LUDU0024025                                                                                                                              *          20170218IMF1702183.TXT
MDDUH2229856201702                D89828070100PT4U20170223000060SPEAKER ASM                   M IMCTM S0FL05 FTTL  07070IMCT  S0 PTB  00004                    1300 SR        000000000000 FUJITSU TEN (THAILAN180LUDU0026027                                                                                                                              *          20170218IMF1702183.TXT
MDDUH2229857201702                D89828070200PV4U20170223000030SPEAKER ASM                   M IMCTM S0FR05 FTTL  07070IMCT  S0 PTB  00005                    0400 SR        000000000000 FUJITSU TEN (THAILAN180LUDU0023023                                                                                                                              *          20170218IMF1702183.TXT
MDDUH2229858201702                D89828070200PV4U20170223000060SPEAKER ASM                   M IMCTM S0FR05 FTTL  07070IMCT  S0 PTB  00005                    0900 SR        000000000000 FUJITSU TEN (THAILAN180LUDU0024025                                                                                                                              *          20170218IMF1702183.TXT
MDDUH2229859201702                D89828070200PV4U20170223000060SPEAKER ASM                   M IMCTM S0FR05 FTTL  07070IMCT  S0 PTB  00005                    1300 SR        000000000000 FUJITSU TEN (THAILAN180LUDU0026027                                                                                                                              *          20170218IMF1702183.TXT
MDDUH2229860201702                D89828070300PT4U20170223000030SPEAKER ASM                   M IMCTM S9TS02 FTTL  07070IMCT  S9 PTB  00015                    0400 SR        000000000000 FUJITSU TEN (THAILAN180LUDU0023023                                                                                                                              *          20170218IMF1702183.TXT
MDDUH2229861201702                D89828070300PT4U20170223000060SPEAKER ASM                   M IMCTM S9TS02 FTTL  07070IMCT  S9 PTB  00015                    0900 SR        000000000000 FUJITSU TEN (THAILAN180LUDU0024025                                                                                                                              *          20170218IMF1702183.TXT
MDDUH2229862201702                D89828070300PT4U20170223000060SPEAKER ASM                   M IMCTM S9TS02 FTTL  07070IMCT  S9 PTB  00015                    1300 SR        000000000000 FUJITSU TEN (THAILAN180LUDU0026027                                                                                                                              *          20170218IMF1702183.TXT
MDEDH2305560201702                D89805293700PV1D20170222000030SPEAKER ASM                   M IMCTM S5MB11 FTTL  07070IMCT  S5 PTB  00003                    2100 SR        000000000000 FUJITSU TEN (THAILAN15021FL0013013                                                                                                                              *          20170218IMF1702183.TXT
MDEDH2305561201702                D89805293700PV1D20170222000030SPEAKER ASM                   M IMCTM S5MB11 FTTL  07070IMCT  S5 PTB  00003                    2230 SR        000000000000 FUJITSU TEN (THAILAN15021FL0014014                                                                                                                              *          20170218IMF1702183.TXT
MDEDH2305562201702                D89805293700PV1D20170223000060SPEAKER ASM                   M IMCTM S5MB11 FTTL  07070IMCT  S5 PTB  00003                    0230 SR        000000000000 FUJITSU TEN (THAILAN15019FL0144145                                                                                                                              *          20170218IMF1702183.TXT
MDEDH2305563201702                D89805293700PV1D20170223000030SPEAKER ASM                   M IMCTM S5MB11 FTTL  07070IMCT  S5 PTB  00003                    0400 SR        000000000000 FUJITSU TEN (THAILAN15019FL0146146                                                                                                                              *          20170218IMF1702183.TXT
MDEDH2305564201702                D89805293700PV1D20170223000030SPEAKER ASM                   M IMCTM S5MB11 FTTL  07070IMCT  S5 PTB  00003                    0900 SR        000000000000 FUJITSU TEN (THAILAN15019FL0147147                                                                                                                              *          20170218IMF1702183.TXT
MDEDH2305565201702                D89805293700PV1D20170223000030SPEAKER ASM                   M IMCTM S5MB11 FTTL  07070IMCT  S5 PTB  00003                    1300 SR        000000000000 FUJITSU TEN (THAILAN15019FL0148148                                                                                                                              *          20170218IMF1702183.TXT
MDEDH2305566201702                D89805293700PV1D20170223000060SPEAKER ASM                   M IMCTM S5MB11 FTTL  07070IMCT  S5 PTB  00003                    1600 SR        000000000000 FUJITSU TEN (THAILAN15019FL0149150                                                                                                                              *          20170218IMF1702183.TXT
MDEDH2305567201702                D89805294000PT1D20170222000030SPEAKER ASM                   M IMCTM S5NB082FTTL  07070IMCT  S5 PTB  00015                    2100 SR        000000000000 FUJITSU TEN (THAILAN15021FL0013013                                                                                                                              *          20170218IMF1702183.TXT
MDEDH2305568201702                D89805294000PT1D20170222000030SPEAKER ASM                   M IMCTM S5NB082FTTL  07070IMCT  S5 PTB  00015                    2230 SR        000000000000 FUJITSU TEN (THAILAN15021FL0014014                                                                                                                              *          20170218IMF1702183.TXT
MDEDH2305569201702                D89805294100PV1D20170222000030SPEAKER ASM                   M IMCTM S5MA14 FTTL  07070IMCT  S5 PTB  00005                    2100 SR        000000000000 FUJITSU TEN (THAILAN15021FL0013013                                                                                                                              *          20170218IMF1702183.TXT
MDEDH2305570201702                D89805294100PV1D20170222000030SPEAKER ASM                   M IMCTM S5MA14 FTTL  07070IMCT  S5 PTB  00005                    2230 SR        000000000000 FUJITSU TEN (THAILAN15021FL0014014                                                                                                                              *          20170218IMF1702183.TXT
MDEDH2305571201702                D89827952200PT1D20170223000015RADIO;AM/FM,CD,D              M IMCTM S5NC06 FTTL  07070IMCT  S5 X    00003                    1600 SR        000000000000 FUJITSU TEN (THAILAN17066NL0008008                                                                                                                              *          20170218IMF1702183.TXT
MDEDH2305572201702                D89828070100PV1D20170223000030SPEAKER ASM                   M IMCTM S5MB11 FTTL  07070IMCT  S5 PTB  00004                    0900 SR        000000000000 FUJITSU TEN (THAILAN17060NL0006006                                                                                                                              *          20170218IMF1702183.TXT
MDEDH2305573201702                D89828070100PV1D20170223000030SPEAKER ASM                   M IMCTM S5MB11 FTTL  07070IMCT  S5 PTB  00004                    1300 SR        000000000000 FUJITSU TEN (THAILAN17075PL0036036                                                                                                                              *          20170218IMF1702183.TXT
MDEDH2305574201702                D89828070100PV1D20170223000090SPEAKER ASM                   M IMCTM S5MB11 FTTL  07070IMCT  S5 PTB  00004                    1600 SR        000000000000 FUJITSU TEN (THAILAN17053NL001201217066NL000800817075PL0037037                                                                                                  *          20170218IMF1702183.TXT
MDEDH2305575201702                D89828070100PV4D20170222000030SPEAKER ASM                   M IMCTM S0FL05 FTTL  07070IMCT  S0 PTB  00004                    2230 SR        000000000000 FUJITSU TEN (THAILAN17080NU0024024                                                                                                                              *          20170218IMF1702183.TXT
MDEDH2305576201702                D89828070100PV4D20170223000030SPEAKER ASM                   M IMCTM S0FL05 FTTL  07070IMCT  S0 PTB  00004                    0400 SR        000000000000 FUJITSU TEN (THAILAN17080NU0025025                                                                                                                              *          20170218IMF1702183.TXT
MDEDH2305577201702                D89828070100PV4D20170223000030SPEAKER ASM                   M IMCTM S0FL05 FTTL  07070IMCT  S0 PTB  00004                    1600 SR        000000000000 FUJITSU TEN (THAILAN17080NU0026026                                                                                                                              *          20170218IMF1702183.TXT
MDEDH2305578201702                D89828070200PV1D20170223000030SPEAKER ASM                   M IMCTM S5MA14 FTTL  07070IMCT  S5 PTB  00005                    0900 SR        000000000000 FUJITSU TEN (THAILAN17060NL0006006                                                                                                                              *          20170218IMF1702183.TXT
MDEDH2305579201702                D89828070200PV4D20170222000030SPEAKER ASM                   M IMCTM S0FR05 FTTL  07070IMCT  S0 PTB  00005                    2230 SR        000000000000 FUJITSU TEN (THAILAN17080NU0024024                                                                                                                              *          20170218IMF1702183.TXT
MDEDH2305580201702                D89828070200PV4D20170223000030SPEAKER ASM                   M IMCTM S0FR05 FTTL  07070IMCT  S0 PTB  00005                    0400 SR        000000000000 FUJITSU TEN (THAILAN17080NU0025025                                                                                                                              *          20170218IMF1702183.TXT
MDEDH2305581201702                D89828070200PV4D20170223000030SPEAKER ASM                   M IMCTM S0FR05 FTTL  07070IMCT  S0 PTB  00005                    1600 SR        000000000000 FUJITSU TEN (THAILAN17080NU0026026                                                                                                                              *          20170218IMF1702183.TXT
MDEDH2305582201702                D89828070300PT1D20170223000030SPEAKER ASM                   M IMCTM S5NB082FTTL  07070IMCT  S5 PTB  00015                    0900 SR        000000000000 FUJITSU TEN (THAILAN17060NL0006006                                                                                                                              *          20170218IMF1702183.TXT
MDEDH2305583201702                D89828070300PT1D20170223000060SPEAKER ASM                   M IMCTM S5NB082FTTL  07070IMCT  S5 PTB  00015                    1600 SR        000000000000 FUJITSU TEN (THAILAN17053NL001201217066NL0008008                                                                                                                *          20170218IMF1702183.TXT
MDEDH2305584201702                D89828070300PT4D20170222000030SPEAKER ASM                   M IMCTM S9TS02 FTTL  07070IMCT  S9 PTB  00015                    2230 SR        000000000000 FUJITSU TEN (THAILAN17080NU0024024                                                                                                                              *          20170218IMF1702183.TXT
MDEDH2305585201702                D89828070300PT4D20170223000030SPEAKER ASM                   M IMCTM S9TS02 FTTL  07070IMCT  S9 PTB  00015                    0400 SR        000000000000 FUJITSU TEN (THAILAN17080NU0025025                                                                                                                              *          20170218IMF1702183.TXT
MDEDH2305586201702                D89828070300PT4D20170223000030SPEAKER ASM                   M IMCTM S9TS02 FTTL  07070IMCT  S9 PTB  00015                    1600 SR        000000000000 FUJITSU TEN (THAILAN17080NU0026026                                                                                                                              *          20170218IMF1702183.TXT
MDEDH2305587201702                D89829645700PT1D20170223000015RADIO;ASM DVD                 M IMCTM S5NC06 FTTL  07070IMCT  S5 X    00003                    1600 SR        000000000000 FUJITSU TEN (THAILAN17053NL0012012                                                                                                                              *          20170218IMF1702183.TXT
MDEUH2234579201702                D89828070100PT4U20170222000060SPEAKER ASM                   M IMCTM S0FL05 FTTL  07070IMCT  S0 PTB  00004                    2230 SR        000000000000 FUJITSU TEN (THAILAN170C16U0172173                                                                                                                              *          20170218IMF1702183.TXT
MDEUH2234580201702                D89828070100PT4U20170223000060SPEAKER ASM                   M IMCTM S0FL05 FTTL  07070IMCT  S0 PTB  00004                    1600 SR        000000000000 FUJITSU TEN (THAILAN170C16U0174175                                                                                                                              *          20170218IMF1702183.TXT
MDEUH2234581201702                D89828070200PV4U20170222000060SPEAKER ASM                   M IMCTM S0FR05 FTTL  07070IMCT  S0 PTB  00005                    2230 SR        000000000000 FUJITSU TEN (THAILAN170C16U0172173                                                                                                                              *          20170218IMF1702183.TXT
MDEUH2234582201702                D89828070200PV4U20170223000060SPEAKER ASM                   M IMCTM S0FR05 FTTL  07070IMCT  S0 PTB  00005                    1600 SR        000000000000 FUJITSU TEN (THAILAN170C16U0174175                                                                                                                              *          20170218IMF1702183.TXT
MDEUH2234583201702                D89828070300PT4U20170222000060SPEAKER ASM                   M IMCTM S9TS02 FTTL  07070IMCT  S9 PTB  00015                    2230 SR        000000000000 FUJITSU TEN (THAILAN170C16U0172173                                                                                                                              *          20170218IMF1702183.TXT
MDEUH2234584201702                D89828070300PT4U20170223000060SPEAKER ASM                   M IMCTM S9TS02 FTTL  07070IMCT  S9 PTB  00015                    1600 SR        000000000000 FUJITSU TEN (THAILAN170C16U0174175                                                                                                                              *          20170218IMF1702183.TXT
