REC2017022120170221ISUZU                              6      
MDEFH2T18725201702                D89828070100PV4F20170225000004SPEAKER ASM                   M IMCTM S7FL05 FTTL  07070IMCT  S7 PTB  00004                    0400 SR        000000000000 FUJITSU TEN (THAILAN16041KR0031   16041KR0032   H170205514    H170205515    000000                                                                              *R         20170221RDF1702214.TXT
MDEFH2T18726201702                D89828070300PT4F20170224000012SPEAKER ASM                   M IMCTM S7TS02 FTTL  07070IMCT  S7 PTB  00015                    1600 SR        000000000000 FUJITSU TEN (THAILAN17030RR0021   17030RR0023   F170205401    F170205411    000000                                                                              *R         20170221RDF1702214.TXT
MDEFH2T18727201702                D89831228900PT4F20170224000003RADIO;AM/FM,CD                M IMCTM S7TS03 FTTL  07070IMCT  S7 PTB  00003                    1600 SR        000000000000 FUJITSU TEN (THAILAN17032RR0020   17032RR0022   F170205402    F170205404    000000                                                                              *R         20170221RDF1702214.TXT
MDEFH2261211201702                D89828070100PV4F20170224000004SPEAKER ASM                   M IMCTM S7FL05 FTTL  07070IMCT  S7 PTB  00004                    1600 SR        000000000000 FUJITSU TEN (THAILAN17030RR0021   17032RR0020   F170205401    F170205402    000000                                                                              *R         20170221RDF1702214.TXT
MDEFH2261212201702                D89828070100PV4F20170224000028SPEAKER ASM                   M IMCTM S7FL05 FTTL  07070IMCT  S7 PTB  00004                    2100 SR        000000000000 FUJITSU TEN (THAILAN17032RR0021   17012RR0009   F170205403    H170205501    000000                                                                              *R         20170221RDF1702214.TXT
MDEFH2261213201702                D89828070100PV4F20170225000024SPEAKER ASM                   M IMCTM S7FL05 FTTL  07070IMCT  S7 PTB  00004                    0230 SR        000000000000 FUJITSU TEN (THAILAN17012RR0010   16041KR0030   H170205502    H170205513    000000                                                                              *R         20170221RDF1702214.TXT
