REC2017022820170228ISUZU                              3      
MHEUGD800908000000                 89828070100PT4U20170417000002SPEAKER ASM                   M IMCTM ST00000FTTL  15090IMCT  ST PTB  00004 CDC             PJC0830 SR        000000000000 FUJITSU TEN (THAILAN180C60U0002002                                                                                                                              *  2017030600000000IMF1702281.TXT
MHEUGD800910000000                 89828070200PV4U20170417000002SPEAKER ASM                   M IMCTM ST00000FTTL  15090IMCT  ST PTB  00005 CDC             PJC0830 SR        000000000000 FUJITSU TEN (THAILAN180C60U0002002                                                                                                                              *  2017030600000000IMF1702281.TXT
MHEUGD800912000000                 89828070300PT4U20170417000002SPEAKER ASM                   M IMCTM ST00000FTTL  15090IMCT  ST PTB  00015 CDC             PJC0830 SR        000000000000 FUJITSU TEN (THAILAN180C60U0002002                                                                                                                              *  2017030600000000IMF1702281.TXT
