REC2017022320170224ISUZU                              63     
MDDDH2269256201702                D89828070100PV1D20170228000060SPEAKER ASM                   M IMCTM S5MB11 FTTL  07070IMCT  S5 PTB  00004                    1300 SR        000000000000 FUJITSU TEN (THAILAN170KNAL0042042                                                                                                                              *          20170223IMF1702235.TXT
MDDUH2245305201702                D89828070100PT4U20170227000030SPEAKER ASM                   M IMCTM S0FL05 FTTL  07070IMCT  S0 PTB  00004                    2230 SR        000000000000 FUJITSU TEN (THAILAN180LUCU0006006                                                                                                                              *          20170223IMF1702235.TXT
MDDUH2245306201702                D89828070100PT4U20170228000030SPEAKER ASM                   M IMCTM S0FL05 FTTL  07070IMCT  S0 PTB  00004                    0230 SR        000000000000 FUJITSU TEN (THAILAN180LUCU0007007                                                                                                                              *          20170223IMF1702235.TXT
MDDUH2245307201702                D89828070100PT4U20170228000030SPEAKER ASM                   M IMCTM S0FL05 FTTL  07070IMCT  S0 PTB  00004                    0400 SR        000000000000 FUJITSU TEN (THAILAN180LUCU0008008                                                                                                                              *          20170223IMF1702235.TXT
MDDUH2245308201702                D89828070100PT4U20170228000060SPEAKER ASM                   M IMCTM S0FL05 FTTL  07070IMCT  S0 PTB  00004                    0900 SR        000000000000 FUJITSU TEN (THAILAN180LUAU0003003180LUBU0002002                                                                                                                *          20170223IMF1702235.TXT
MDDUH2245309201702                D89828070100PT4U20170228000060SPEAKER ASM                   M IMCTM S0FL05 FTTL  07070IMCT  S0 PTB  00004                    1300 SR        000000000000 FUJITSU TEN (THAILAN180LUAU0004004180LUCU0009009                                                                                                                *          20170223IMF1702235.TXT
MDDUH2245310201702                D89828070100PT4U20170228000030SPEAKER ASM                   M IMCTM S0FL05 FTTL  07070IMCT  S0 PTB  00004                    1600 SR        000000000000 FUJITSU TEN (THAILAN180LUBU0003003                                                                                                                              *          20170223IMF1702235.TXT
MDDUH2245311201702                D89828070200PV4U20170227000030SPEAKER ASM                   M IMCTM S0FR05 FTTL  07070IMCT  S0 PTB  00005                    2230 SR        000000000000 FUJITSU TEN (THAILAN180LUCU0006006                                                                                                                              *          20170223IMF1702235.TXT
MDDUH2245312201702                D89828070200PV4U20170228000030SPEAKER ASM                   M IMCTM S0FR05 FTTL  07070IMCT  S0 PTB  00005                    0230 SR        000000000000 FUJITSU TEN (THAILAN180LUCU0007007                                                                                                                              *          20170223IMF1702235.TXT
MDDUH2245313201702                D89828070200PV4U20170228000030SPEAKER ASM                   M IMCTM S0FR05 FTTL  07070IMCT  S0 PTB  00005                    0400 SR        000000000000 FUJITSU TEN (THAILAN180LUCU0008008                                                                                                                              *          20170223IMF1702235.TXT
MDDUH2245314201702                D89828070200PV4U20170228000060SPEAKER ASM                   M IMCTM S0FR05 FTTL  07070IMCT  S0 PTB  00005                    0900 SR        000000000000 FUJITSU TEN (THAILAN180LUAU0003003180LUBU0002002                                                                                                                *          20170223IMF1702235.TXT
MDDUH2245315201702                D89828070200PV4U20170228000060SPEAKER ASM                   M IMCTM S0FR05 FTTL  07070IMCT  S0 PTB  00005                    1300 SR        000000000000 FUJITSU TEN (THAILAN180LUAU0004004180LUCU0009009                                                                                                                *          20170223IMF1702235.TXT
MDDUH2245316201702                D89828070200PV4U20170228000030SPEAKER ASM                   M IMCTM S0FR05 FTTL  07070IMCT  S0 PTB  00005                    1600 SR        000000000000 FUJITSU TEN (THAILAN180LUBU0003003                                                                                                                              *          20170223IMF1702235.TXT
MDDUH2245317201702                D89828070300PT4U20170227000030SPEAKER ASM                   M IMCTM S9TS02 FTTL  07070IMCT  S9 PTB  00015                    2230 SR        000000000000 FUJITSU TEN (THAILAN180LUCU0006006                                                                                                                              *          20170223IMF1702235.TXT
MDDUH2245318201702                D89828070300PT4U20170228000030SPEAKER ASM                   M IMCTM S9TS02 FTTL  07070IMCT  S9 PTB  00015                    0230 SR        000000000000 FUJITSU TEN (THAILAN180LUCU0007007                                                                                                                              *          20170223IMF1702235.TXT
MDDUH2245319201702                D89828070300PT4U20170228000030SPEAKER ASM                   M IMCTM S9TS02 FTTL  07070IMCT  S9 PTB  00015                    0400 SR        000000000000 FUJITSU TEN (THAILAN180LUCU0008008                                                                                                                              *          20170223IMF1702235.TXT
MDDUH2245320201702                D89828070300PT4U20170228000060SPEAKER ASM                   M IMCTM S9TS02 FTTL  07070IMCT  S9 PTB  00015                    0900 SR        000000000000 FUJITSU TEN (THAILAN180LUAU0003003180LUBU0002002                                                                                                                *          20170223IMF1702235.TXT
MDDUH2245321201702                D89828070300PT4U20170228000060SPEAKER ASM                   M IMCTM S9TS02 FTTL  07070IMCT  S9 PTB  00015                    1300 SR        000000000000 FUJITSU TEN (THAILAN180LUAU0004004180LUCU0009009                                                                                                                *          20170223IMF1702235.TXT
MDDUH2245322201702                D89828070300PT4U20170228000030SPEAKER ASM                   M IMCTM S9TS02 FTTL  07070IMCT  S9 PTB  00015                    1600 SR        000000000000 FUJITSU TEN (THAILAN180LUBU0003003                                                                                                                              *          20170223IMF1702235.TXT
MDDUH2245323201702                D89831228400PT4U20170228000015RADIO;AM/FM,CD                M IMCTM S9CO001FTTL  07070IMCT  S9 CPB  00003                    0900 SR        000000000000 FUJITSU TEN (THAILAN180LUAU0003003                                                                                                                              *          20170223IMF1702235.TXT
MDDUH2245324201702                D89831228400PT4U20170228000015RADIO;AM/FM,CD                M IMCTM S9CO001FTTL  07070IMCT  S9 CPB  00003                    1300 SR        000000000000 FUJITSU TEN (THAILAN180LUAU0004004                                                                                                                              *          20170223IMF1702235.TXT
MDDUH2245325201702                D89835097900PT4U20170227000015RADIO;ASM DVD                 M IMCTM S9CO001FTTL  07070IMCT  S9 PTB  00003                    2230 SR        000000000000 FUJITSU TEN (THAILAN180LUCU0006006                                                                                                                              *          20170223IMF1702235.TXT
MDDUH2245326201702                D89835097900PT4U20170228000015RADIO;ASM DVD                 M IMCTM S9CO001FTTL  07070IMCT  S9 PTB  00003                    0230 SR        000000000000 FUJITSU TEN (THAILAN180LUCU0007007                                                                                                                              *          20170223IMF1702235.TXT
MDDUH2245327201702                D89835097900PT4U20170228000015RADIO;ASM DVD                 M IMCTM S9CO001FTTL  07070IMCT  S9 PTB  00003                    0400 SR        000000000000 FUJITSU TEN (THAILAN180LUCU0008008                                                                                                                              *          20170223IMF1702235.TXT
MDDUH2245328201702                D89835097900PT4U20170228000015RADIO;ASM DVD                 M IMCTM S9CO001FTTL  07070IMCT  S9 PTB  00003                    0900 SR        000000000000 FUJITSU TEN (THAILAN180LUBU0002002                                                                                                                              *          20170223IMF1702235.TXT
MDDUH2245329201702                D89835097900PT4U20170228000015RADIO;ASM DVD                 M IMCTM S9CO001FTTL  07070IMCT  S9 PTB  00003                    1300 SR        000000000000 FUJITSU TEN (THAILAN180LUCU0009009                                                                                                                              *          20170223IMF1702235.TXT
MDDUH2245330201702                D89835097900PT4U20170228000015RADIO;ASM DVD                 M IMCTM S9CO001FTTL  07070IMCT  S9 PTB  00003                    1600 SR        000000000000 FUJITSU TEN (THAILAN180LUBU0003003                                                                                                                              *          20170223IMF1702235.TXT
MDEDH2339191201702                D89805293700PV1D20170227000030SPEAKER ASM                   M IMCTM S5MB11 FTTL  07070IMCT  S5 PTB  00003                    2230 SR        000000000000 FUJITSU TEN (THAILAN15019FL0160160                                                                                                                              *          20170223IMF1702235.TXT
MDEDH2339192201702                D89805293700PV1D20170228000030SPEAKER ASM                   M IMCTM S5MB11 FTTL  07070IMCT  S5 PTB  00003                    1300 SR        000000000000 FUJITSU TEN (THAILAN15018FL0096096                                                                                                                              *          20170223IMF1702235.TXT
MDEDH2339193201702                D89805293700PV4D20170227000030SPEAKER ASM                   M IMCTM S0FR05 FTTL  07070IMCT  S0 PTB  00003                    2230 SR        000000000000 FUJITSU TEN (THAILAN15081DU0018018                                                                                                                              *          20170223IMF1702235.TXT
MDEDH2339194201702                D89805294000PT4D20170227000030SPEAKER ASM                   M IMCTM S9AFA25FTTL  07070IMCT  S9 PTB  00015                    2230 SR        000000000000 FUJITSU TEN (THAILAN15081DU0018018                                                                                                                              *          20170223IMF1702235.TXT
MDEDH2339195201702                D89805294200PT4D20170227000030SPEAKER ASM                   M IMCTM S9AFA25FTTL  07070IMCT  S9 PTB  00030                    2230 SR        000000000000 FUJITSU TEN (THAILAN15081DU0018018                                                                                                                              *          20170223IMF1702235.TXT
MDEDH2339196201702                D89806470400PT4D20170227000015SPEAKER ASM;RDO,              M IMCTM S0TL03 FTTL  07070IMCT  S0 PTB  00015                    2230 SR        000000000000 FUJITSU TEN (THAILAN15081DU0018018                                                                                                                              *          20170223IMF1702235.TXT
MDEDH2339197201702                D89828070100PV1D20170227000030SPEAKER ASM                   M IMCTM S5MB11 FTTL  07070IMCT  S5 PTB  00004                    2100 SR        000000000000 FUJITSU TEN (THAILAN17008ML0003003                                                                                                                              *          20170223IMF1702235.TXT
MDEDH2339198201702                D89828070100PV1D20170227000120SPEAKER ASM                   M IMCTM S5MB11 FTTL  07070IMCT  S5 PTB  00004                    2230 SR        000000000000 FUJITSU TEN (THAILAN17008ML000400417047RL000300317054PL000800817061PL0005005                                                                                    *          20170223IMF1702235.TXT
MDEDH2339199201702                D89828070100PV1D20170228000060SPEAKER ASM                   M IMCTM S5MB11 FTTL  07070IMCT  S5 PTB  00004                    0230 SR        000000000000 FUJITSU TEN (THAILAN17054PL0009010                                                                                                                              *          20170223IMF1702235.TXT
MDEDH2339200201702                D89828070100PV1D20170228000090SPEAKER ASM                   M IMCTM S5MB11 FTTL  07070IMCT  S5 PTB  00004                    0400 SR        000000000000 FUJITSU TEN (THAILAN17012ML000700717013QL000300317079ML0002002                                                                                                  *          20170223IMF1702235.TXT
MDEDH2339201201702                D89828070100PV1D20170228000150SPEAKER ASM                   M IMCTM S5MB11 FTTL  07070IMCT  S5 PTB  00004                    0900 SR        000000000000 FUJITSU TEN (THAILAN17013QL000400417040PL000200317054PL0011012                                                                                                  *          20170223IMF1702235.TXT
MDEDH2339202201702                D89828070100PV1D20170228000060SPEAKER ASM                   M IMCTM S5MB11 FTTL  07070IMCT  S5 PTB  00004                    1300 SR        000000000000 FUJITSU TEN (THAILAN17002RL000200217014NL0002002                                                                                                                *          20170223IMF1702235.TXT
MDEDH2339203201702                D89828070100PV1D20170228000030SPEAKER ASM                   M IMCTM S5MB11 FTTL  07070IMCT  S5 PTB  00004                    1600 SR        000000000000 FUJITSU TEN (THAILAN17008ML0005005                                                                                                                              *          20170223IMF1702235.TXT
MDEDH2339204201702                D89828070100PV4D20170228000030SPEAKER ASM                   M IMCTM S0FL05 FTTL  07070IMCT  S0 PTB  00004                    1300 SR        000000000000 FUJITSU TEN (THAILAN17032QU0001001                                                                                                                              *          20170223IMF1702235.TXT
MDEDH2339205201702                D89828070200PV1D20170227000030SPEAKER ASM                   M IMCTM S5MA14 FTTL  07070IMCT  S5 PTB  00005                    2230 SR        000000000000 FUJITSU TEN (THAILAN17047RL0003003                                                                                                                              *          20170223IMF1702235.TXT
MDEDH2339206201702                D89828070200PV1D20170228000060SPEAKER ASM                   M IMCTM S5MA14 FTTL  07070IMCT  S5 PTB  00005                    0400 SR        000000000000 FUJITSU TEN (THAILAN17012ML000700717013QL0003003                                                                                                                *          20170223IMF1702235.TXT
MDEDH2339207201702                D89828070200PV1D20170228000030SPEAKER ASM                   M IMCTM S5MA14 FTTL  07070IMCT  S5 PTB  00005                    0900 SR        000000000000 FUJITSU TEN (THAILAN17013QL0004004                                                                                                                              *          20170223IMF1702235.TXT
MDEDH2339208201702                D89828070200PV1D20170228000060SPEAKER ASM                   M IMCTM S5MA14 FTTL  07070IMCT  S5 PTB  00005                    1300 SR        000000000000 FUJITSU TEN (THAILAN17002RL000200217014NL0002002                                                                                                                *          20170223IMF1702235.TXT
MDEDH2339209201702                D89828070200PV4D20170228000030SPEAKER ASM                   M IMCTM S0FR05 FTTL  07070IMCT  S0 PTB  00005                    1300 SR        000000000000 FUJITSU TEN (THAILAN17032QU0001001                                                                                                                              *          20170223IMF1702235.TXT
MDEDH2339210201702                D89828070300PT1D20170227000030SPEAKER ASM                   M IMCTM S5NB082FTTL  07070IMCT  S5 PTB  00015                    2100 SR        000000000000 FUJITSU TEN (THAILAN17008ML0003003                                                                                                                              *          20170223IMF1702235.TXT
MDEDH2339211201702                D89828070300PT1D20170227000060SPEAKER ASM                   M IMCTM S5NB082FTTL  07070IMCT  S5 PTB  00015                    2230 SR        000000000000 FUJITSU TEN (THAILAN17008ML000400417047RL0003003                                                                                                                *          20170223IMF1702235.TXT
MDEDH2339212201702                D89828070300PT1D20170228000060SPEAKER ASM                   M IMCTM S5NB082FTTL  07070IMCT  S5 PTB  00015                    0400 SR        000000000000 FUJITSU TEN (THAILAN17012ML000700717013QL0003003                                                                                                                *          20170223IMF1702235.TXT
MDEDH2339213201702                D89828070300PT1D20170228000030SPEAKER ASM                   M IMCTM S5NB082FTTL  07070IMCT  S5 PTB  00015                    0900 SR        000000000000 FUJITSU TEN (THAILAN17013QL0004004                                                                                                                              *          20170223IMF1702235.TXT
MDEDH2339214201702                D89828070300PT1D20170228000060SPEAKER ASM                   M IMCTM S5NB082FTTL  07070IMCT  S5 PTB  00015                    1300 SR        000000000000 FUJITSU TEN (THAILAN17002RL000200217014NL0002002                                                                                                                *          20170223IMF1702235.TXT
MDEDH2339215201702                D89828070300PT1D20170228000030SPEAKER ASM                   M IMCTM S5NB082FTTL  07070IMCT  S5 PTB  00015                    1600 SR        000000000000 FUJITSU TEN (THAILAN17008ML0005005                                                                                                                              *          20170223IMF1702235.TXT
MDEDH2339216201702                D89828070300PT4D20170228000030SPEAKER ASM                   M IMCTM S9TS02 FTTL  07070IMCT  S9 PTB  00015                    1300 SR        000000000000 FUJITSU TEN (THAILAN17032QU0001001                                                                                                                              *          20170223IMF1702235.TXT
MDEDH2339217201702                D89829622400PT1D20170227000015RADIO;ASM DVD                 M IMCTM S5NC06 FTTL  07070IMCT  S5 PTB  00003                    2100 SR        000000000000 FUJITSU TEN (THAILAN17008ML0003003                                                                                                                              *          20170223IMF1702235.TXT
MDEDH2339218201702                D89829622400PT1D20170227000015RADIO;ASM DVD                 M IMCTM S5NC06 FTTL  07070IMCT  S5 PTB  00003                    2230 SR        000000000000 FUJITSU TEN (THAILAN17008ML0004004                                                                                                                              *          20170223IMF1702235.TXT
MDEDH2339219201702                D89829622400PT1D20170228000015RADIO;ASM DVD                 M IMCTM S5NC06 FTTL  07070IMCT  S5 PTB  00003                    1600 SR        000000000000 FUJITSU TEN (THAILAN17008ML0005005                                                                                                                              *          20170223IMF1702235.TXT
MDEDH2339220201702                D89829645300PT1D20170228000015RADIO;ASM DVD                 M IMCTM S5NC06 FTTL  07070IMCT  S5 PTB  00003                    1300 SR        000000000000 FUJITSU TEN (THAILAN17014NL0002002                                                                                                                              *          20170223IMF1702235.TXT
MDEDH2339221201702                D89831228800PT1D20170228000015RADIO;AM/FM,CD                M IMCTM S5NC06 FTTL  07070IMCT  S5 PTB  00003                    0400 SR        000000000000 FUJITSU TEN (THAILAN17012ML0007007                                                                                                                              *          20170223IMF1702235.TXT
MDEDH2339222201702                D89831229000PT1D20170227000015RADIO;AM/FM,CD                M IMCTM S5NC06 FTTL  07070IMCT  S5 PTB  00003                    2230 SR        000000000000 FUJITSU TEN (THAILAN17047RL0003003                                                                                                                              *          20170223IMF1702235.TXT
MDEDH2339223201702                D89831229000PT1D20170228000015RADIO;AM/FM,CD                M IMCTM S5NC06 FTTL  07070IMCT  S5 PTB  00003                    1300 SR        000000000000 FUJITSU TEN (THAILAN17002RL0002002                                                                                                                              *          20170223IMF1702235.TXT
MDEDH2339224201702                D89831229200PT1D20170228000015RADIO;AM/FM,CD                M IMCTM S5NC06 FTTL  07070IMCT  S5 PTB  00003                    0400 SR        000000000000 FUJITSU TEN (THAILAN17013QL0003003                                                                                                                              *          20170223IMF1702235.TXT
MDEDH2339225201702                D89831229200PT1D20170228000015RADIO;AM/FM,CD                M IMCTM S5NC06 FTTL  07070IMCT  S5 PTB  00003                    0900 SR        000000000000 FUJITSU TEN (THAILAN17013QL0004004                                                                                                                              *          20170223IMF1702235.TXT
MDEDH2339226201702                D89831229200PT4D20170228000015RADIO;AM/FM,CD                M IMCTM S9CO001FTTL  07070IMCT  S9 PTB  00003                    1300 SR        000000000000 FUJITSU TEN (THAILAN17032QU0001001                                                                                                                              *          20170223IMF1702235.TXT
