REC2017021420170215ISUZU                              63     
MDDDH2248614201702                D89821984430PT1D20170218000030RADIO;AM/FM,CD                M IMCTM S5NC06 FTTL  07070IMCT  S5 PTB  00005                    0900 SR        000000000000 FUJITSU TEN (THAILAN170KNEL0063063                                                                                                                              *          20170214IMF1702145.TXT
MDDDH2248615201702                D89825217900PT1D20170217000030RADIO;AM/FM,CD,D              M IMCTM S5NC06 FTTL  07070IMCT  S5 PTB  00003                    2100 SR        000000000000 FUJITSU TEN (THAILAN170KPJL0039039                                                                                                                              *          20170214IMF1702145.TXT
MDDDH2248616201702                D89825217900PT1D20170218000030RADIO;AM/FM,CD,D              M IMCTM S5NC06 FTTL  07070IMCT  S5 PTB  00003                    0400 SR        000000000000 FUJITSU TEN (THAILAN170KPJL0040040                                                                                                                              *          20170214IMF1702145.TXT
MDDDH2248617201702                D89828070100PV1D20170217000060SPEAKER ASM                   M IMCTM S5MB11 FTTL  07070IMCT  S5 PTB  00004                    2100 SR        000000000000 FUJITSU TEN (THAILAN170KPJL0039039                                                                                                                              *          20170214IMF1702145.TXT
MDDDH2248618201702                D89828070100PV1D20170217000060SPEAKER ASM                   M IMCTM S5MB11 FTTL  07070IMCT  S5 PTB  00004                    2230 SR        000000000000 FUJITSU TEN (THAILAN170KPFL0131131                                                                                                                              *          20170214IMF1702145.TXT
MDDDH2248619201702                D89828070100PV1D20170218000120SPEAKER ASM                   M IMCTM S5MB11 FTTL  07070IMCT  S5 PTB  00004                    0400 SR        000000000000 FUJITSU TEN (THAILAN170KPJL0040040170KRJL0029029                                                                                                                *          20170214IMF1702145.TXT
MDDDH2248620201702                D89828070100PV1D20170218000060SPEAKER ASM                   M IMCTM S5MB11 FTTL  07070IMCT  S5 PTB  00004                    0900 SR        000000000000 FUJITSU TEN (THAILAN170KNEL0063063                                                                                                                              *          20170214IMF1702145.TXT
MDDDH2248621201702                D89828070100PV1D20170218000060SPEAKER ASM                   M IMCTM S5MB11 FTTL  07070IMCT  S5 PTB  00004                    1300 SR        000000000000 FUJITSU TEN (THAILAN170KRTL0015015                                                                                                                              *          20170214IMF1702145.TXT
MDDDH2248622201702                D89828070200PV1D20170218000060SPEAKER ASM                   M IMCTM S5MA14 FTTL  07070IMCT  S5 PTB  00005                    0400 SR        000000000000 FUJITSU TEN (THAILAN170KRJL0029029                                                                                                                              *          20170214IMF1702145.TXT
MDDDH2248623201702                D89828070200PV1D20170218000060SPEAKER ASM                   M IMCTM S5MA14 FTTL  07070IMCT  S5 PTB  00005                    1300 SR        000000000000 FUJITSU TEN (THAILAN170KRTL0015015                                                                                                                              *          20170214IMF1702145.TXT
MDDDH2248624201702                D89828070300PT1D20170217000060SPEAKER ASM                   M IMCTM S5NB082FTTL  07070IMCT  S5 PTB  00015                    2100 SR        000000000000 FUJITSU TEN (THAILAN170KPJL0039039                                                                                                                              *          20170214IMF1702145.TXT
MDDDH2248625201702                D89828070300PT1D20170217000060SPEAKER ASM                   M IMCTM S5NB082FTTL  07070IMCT  S5 PTB  00015                    2230 SR        000000000000 FUJITSU TEN (THAILAN170KPFL0131131                                                                                                                              *          20170214IMF1702145.TXT
MDDDH2248626201702                D89828070300PT1D20170218000120SPEAKER ASM                   M IMCTM S5NB082FTTL  07070IMCT  S5 PTB  00015                    0400 SR        000000000000 FUJITSU TEN (THAILAN170KPJL0040040170KRJL0029029                                                                                                                *          20170214IMF1702145.TXT
MDDDH2248627201702                D89828070300PT1D20170218000060SPEAKER ASM                   M IMCTM S5NB082FTTL  07070IMCT  S5 PTB  00015                    1300 SR        000000000000 FUJITSU TEN (THAILAN170KRTL0015015                                                                                                                              *          20170214IMF1702145.TXT
MDDDH2248628201702                D89829645900PT1D20170218000030RADIO;ASM DVD                 M IMCTM S5NC06 FTTL  07070IMCT  S5 CPB  00003                    1300 SR        000000000000 FUJITSU TEN (THAILAN170KRTL0015015                                                                                                                              *          20170214IMF1702145.TXT
MDDDH2248629201702                D89831228300PT1D20170217000030RADIO;AM/FM,CD                M IMCTM S5NC06 FTTL  07070IMCT  S5 CPB  00003                    2230 SR        000000000000 FUJITSU TEN (THAILAN170KPFL0131131                                                                                                                              *          20170214IMF1702145.TXT
MDDUH2218035201702                D89828070100PT4U20170217000060SPEAKER ASM                   M IMCTM S0FL05 FTTL  07070IMCT  S0 PTB  00004                    2230 SR        000000000000 FUJITSU TEN (THAILAN180LUDU0006006180LUEU0016016                                                                                                                *          20170214IMF1702145.TXT
MDDUH2218036201702                D89828070100PT4U20170218000030SPEAKER ASM                   M IMCTM S0FL05 FTTL  07070IMCT  S0 PTB  00004                    0230 SR        000000000000 FUJITSU TEN (THAILAN180LUDU0007007                                                                                                                              *          20170214IMF1702145.TXT
MDDUH2218037201702                D89828070100PT4U20170218000030SPEAKER ASM                   M IMCTM S0FL05 FTTL  07070IMCT  S0 PTB  00004                    0400 SR        000000000000 FUJITSU TEN (THAILAN180LUDU0008008                                                                                                                              *          20170214IMF1702145.TXT
MDDUH2218038201702                D89828070200PV4U20170217000060SPEAKER ASM                   M IMCTM S0FR05 FTTL  07070IMCT  S0 PTB  00005                    2230 SR        000000000000 FUJITSU TEN (THAILAN180LUDU0006006180LUEU0016016                                                                                                                *          20170214IMF1702145.TXT
MDDUH2218039201702                D89828070200PV4U20170218000030SPEAKER ASM                   M IMCTM S0FR05 FTTL  07070IMCT  S0 PTB  00005                    0230 SR        000000000000 FUJITSU TEN (THAILAN180LUDU0007007                                                                                                                              *          20170214IMF1702145.TXT
MDDUH2218040201702                D89828070200PV4U20170218000030SPEAKER ASM                   M IMCTM S0FR05 FTTL  07070IMCT  S0 PTB  00005                    0400 SR        000000000000 FUJITSU TEN (THAILAN180LUDU0008008                                                                                                                              *          20170214IMF1702145.TXT
MDDUH2218041201702                D89828070300PT4U20170217000060SPEAKER ASM                   M IMCTM S9TS02 FTTL  07070IMCT  S9 PTB  00015                    2230 SR        000000000000 FUJITSU TEN (THAILAN180LUDU0006006180LUEU0016016                                                                                                                *          20170214IMF1702145.TXT
MDDUH2218042201702                D89828070300PT4U20170218000030SPEAKER ASM                   M IMCTM S9TS02 FTTL  07070IMCT  S9 PTB  00015                    0230 SR        000000000000 FUJITSU TEN (THAILAN180LUDU0007007                                                                                                                              *          20170214IMF1702145.TXT
MDDUH2218043201702                D89828070300PT4U20170218000030SPEAKER ASM                   M IMCTM S9TS02 FTTL  07070IMCT  S9 PTB  00015                    0400 SR        000000000000 FUJITSU TEN (THAILAN180LUDU0008008                                                                                                                              *          20170214IMF1702145.TXT
MDEDH2272284201702                D89828070100PV1D20170217000030SPEAKER ASM                   M IMCTM S5MB11 FTTL  07070IMCT  S5 PTB  00004                    2100 SR        000000000000 FUJITSU TEN (THAILAN17034PL0019019                                                                                                                              *          20170214IMF1702145.TXT
MDEDH2272285201702                D89828070100PV1D20170217000060SPEAKER ASM                   M IMCTM S5MB11 FTTL  07070IMCT  S5 PTB  00004                    2230 SR        000000000000 FUJITSU TEN (THAILAN17037RL0002003                                                                                                                              *          20170214IMF1702145.TXT
MDEDH2272286201702                D89828070100PV1D20170218000060SPEAKER ASM                   M IMCTM S5MB11 FTTL  07070IMCT  S5 PTB  00004                    0230 SR        000000000000 FUJITSU TEN (THAILAN17071NL000700717075NL0006006                                                                                                                *          20170214IMF1702145.TXT
MDEDH2272287201702                D89828070100PV1D20170218000060SPEAKER ASM                   M IMCTM S5MB11 FTTL  07070IMCT  S5 PTB  00004                    0900 SR        000000000000 FUJITSU TEN (THAILAN17001NL000600617014PL0001001                                                                                                                *          20170214IMF1702145.TXT
MDEDH2272288201702                D89828070100PV1D20170218000060SPEAKER ASM                   M IMCTM S5MB11 FTTL  07070IMCT  S5 PTB  00004                    1300 SR        000000000000 FUJITSU TEN (THAILAN17032PL000200217099ML0004004                                                                                                                *          20170214IMF1702145.TXT
MDEDH2272289201702                D89828070100PV1D20170218000030SPEAKER ASM                   M IMCTM S5MB11 FTTL  07070IMCT  S5 PTB  00004                    2100 SR        000000000000 FUJITSU TEN (THAILAN17063ML0003003                                                                                                                              *          20170214IMF1702145.TXT
MDEDH2272290201702                D89828070100PV4D20170217000030SPEAKER ASM                   M IMCTM S0FL05 FTTL  07070IMCT  S0 PTB  00004                    2230 SR        000000000000 FUJITSU TEN (THAILAN17081NU0004004                                                                                                                              *          20170214IMF1702145.TXT
MDEDH2272291201702                D89828070100PV4D20170218000030SPEAKER ASM                   M IMCTM S0FL05 FTTL  07070IMCT  S0 PTB  00004                    1300 SR        000000000000 FUJITSU TEN (THAILAN17075PU0015015                                                                                                                              *          20170214IMF1702145.TXT
MDEDH2272292201702                D89828070200PV1D20170217000030SPEAKER ASM                   M IMCTM S5MA14 FTTL  07070IMCT  S5 PTB  00005                    2100 SR        000000000000 FUJITSU TEN (THAILAN17034PL0019019                                                                                                                              *          20170214IMF1702145.TXT
MDEDH2272293201702                D89828070200PV1D20170217000060SPEAKER ASM                   M IMCTM S5MA14 FTTL  07070IMCT  S5 PTB  00005                    2230 SR        000000000000 FUJITSU TEN (THAILAN17037RL0002003                                                                                                                              *          20170214IMF1702145.TXT
MDEDH2272294201702                D89828070200PV1D20170218000060SPEAKER ASM                   M IMCTM S5MA14 FTTL  07070IMCT  S5 PTB  00005                    0230 SR        000000000000 FUJITSU TEN (THAILAN17071NL000700717075NL0006006                                                                                                                *          20170214IMF1702145.TXT
MDEDH2272295201702                D89828070200PV1D20170218000060SPEAKER ASM                   M IMCTM S5MA14 FTTL  07070IMCT  S5 PTB  00005                    0900 SR        000000000000 FUJITSU TEN (THAILAN17001NL000600617014PL0001001                                                                                                                *          20170214IMF1702145.TXT
MDEDH2272296201702                D89828070200PV1D20170218000060SPEAKER ASM                   M IMCTM S5MA14 FTTL  07070IMCT  S5 PTB  00005                    1300 SR        000000000000 FUJITSU TEN (THAILAN17032PL000200217099ML0004004                                                                                                                *          20170214IMF1702145.TXT
MDEDH2272297201702                D89828070200PV4D20170217000030SPEAKER ASM                   M IMCTM S0FR05 FTTL  07070IMCT  S0 PTB  00005                    2230 SR        000000000000 FUJITSU TEN (THAILAN17081NU0004004                                                                                                                              *          20170214IMF1702145.TXT
MDEDH2272298201702                D89828070300PT1D20170217000030SPEAKER ASM                   M IMCTM S5NB082FTTL  07070IMCT  S5 PTB  00015                    2100 SR        000000000000 FUJITSU TEN (THAILAN17034PL0019019                                                                                                                              *          20170214IMF1702145.TXT
MDEDH2272299201702                D89828070300PT1D20170217000060SPEAKER ASM                   M IMCTM S5NB082FTTL  07070IMCT  S5 PTB  00015                    2230 SR        000000000000 FUJITSU TEN (THAILAN17037RL0002003                                                                                                                              *          20170214IMF1702145.TXT
MDEDH2272300201702                D89828070300PT1D20170218000060SPEAKER ASM                   M IMCTM S5NB082FTTL  07070IMCT  S5 PTB  00015                    0230 SR        000000000000 FUJITSU TEN (THAILAN17071NL000700717075NL0006006                                                                                                                *          20170214IMF1702145.TXT
MDEDH2272301201702                D89828070300PT1D20170218000060SPEAKER ASM                   M IMCTM S5NB082FTTL  07070IMCT  S5 PTB  00015                    0900 SR        000000000000 FUJITSU TEN (THAILAN17001NL000600617014PL0001001                                                                                                                *          20170214IMF1702145.TXT
MDEDH2272302201702                D89828070300PT1D20170218000060SPEAKER ASM                   M IMCTM S5NB082FTTL  07070IMCT  S5 PTB  00015                    1300 SR        000000000000 FUJITSU TEN (THAILAN17032PL000200217099ML0004004                                                                                                                *          20170214IMF1702145.TXT
MDEDH2272303201702                D89828070300PT1D20170218000030SPEAKER ASM                   M IMCTM S5NB082FTTL  07070IMCT  S5 PTB  00015                    2100 SR        000000000000 FUJITSU TEN (THAILAN17063ML0003003                                                                                                                              *          20170214IMF1702145.TXT
MDEDH2272304201702                D89828070300PT4D20170217000030SPEAKER ASM                   M IMCTM S9TS02 FTTL  07070IMCT  S9 PTB  00015                    2230 SR        000000000000 FUJITSU TEN (THAILAN17081NU0004004                                                                                                                              *          20170214IMF1702145.TXT
MDEDH2272305201702                D89829645300PT1D20170218000030RADIO;ASM DVD                 M IMCTM S5NC06 FTTL  07070IMCT  S5 PTB  00003                    1300 SR        000000000000 FUJITSU TEN (THAILAN17032PL000200217099ML0004004                                                                                                                *          20170214IMF1702145.TXT
MDEDH2272306201702                D89829645700PT1D20170218000030RADIO;ASM DVD                 M IMCTM S5NC06 FTTL  07070IMCT  S5 X    00003                    0230 SR        000000000000 FUJITSU TEN (THAILAN17071NL000700717075NL0006006                                                                                                                *          20170214IMF1702145.TXT
MDEDH2272307201702                D89831228700PT1D20170218000015RADIO;AM/FM,CD                M IMCTM S5NC06 FTTL  07070IMCT  S5 PTB  00003                    2100 SR        000000000000 FUJITSU TEN (THAILAN17063ML0003003                                                                                                                              *          20170214IMF1702145.TXT
MDEDH2272308201702                D89831228800PT1D20170218000015RADIO;AM/FM,CD                M IMCTM S5NC06 FTTL  07070IMCT  S5 PTB  00003                    0900 SR        000000000000 FUJITSU TEN (THAILAN17001NL0006006                                                                                                                              *          20170214IMF1702145.TXT
MDEDH2272309201702                D89831229000PT1D20170217000030RADIO;AM/FM,CD                M IMCTM S5NC06 FTTL  07070IMCT  S5 PTB  00003                    2230 SR        000000000000 FUJITSU TEN (THAILAN17037RL0002003                                                                                                                              *          20170214IMF1702145.TXT
MDEUH2224495201702                D89828070100PT4U20170218000030SPEAKER ASM                   M IMCTM S0FL05 FTTL  07070IMCT  S0 PTB  00004                    0400 SR        000000000000 FUJITSU TEN (THAILAN170C16U0157157                                                                                                                              *          20170214IMF1702145.TXT
MDEUH2224496201702                D89828070100PT4U20170218000030SPEAKER ASM                   M IMCTM S0FL05 FTTL  07070IMCT  S0 PTB  00004                    0900 SR        000000000000 FUJITSU TEN (THAILAN170C16U0158158                                                                                                                              *          20170214IMF1702145.TXT
MDEUH2224497201702                D89828070100PT4U20170218000030SPEAKER ASM                   M IMCTM S0FL05 FTTL  07070IMCT  S0 PTB  00004                    1300 SR        000000000000 FUJITSU TEN (THAILAN170C16U0159159                                                                                                                              *          20170214IMF1702145.TXT
MDEUH2224498201702                D89828070100PT4U20170218000030SPEAKER ASM                   M IMCTM S0FL05 FTTL  07070IMCT  S0 PTB  00004                    1600 SR        000000000000 FUJITSU TEN (THAILAN170C16U0160160                                                                                                                              *          20170214IMF1702145.TXT
MDEUH2224499201702                D89828070200PV4U20170218000030SPEAKER ASM                   M IMCTM S0FR05 FTTL  07070IMCT  S0 PTB  00005                    0400 SR        000000000000 FUJITSU TEN (THAILAN170C16U0157157                                                                                                                              *          20170214IMF1702145.TXT
MDEUH2224500201702                D89828070200PV4U20170218000030SPEAKER ASM                   M IMCTM S0FR05 FTTL  07070IMCT  S0 PTB  00005                    0900 SR        000000000000 FUJITSU TEN (THAILAN170C16U0158158                                                                                                                              *          20170214IMF1702145.TXT
MDEUH2224501201702                D89828070200PV4U20170218000030SPEAKER ASM                   M IMCTM S0FR05 FTTL  07070IMCT  S0 PTB  00005                    1300 SR        000000000000 FUJITSU TEN (THAILAN170C16U0159159                                                                                                                              *          20170214IMF1702145.TXT
MDEUH2224502201702                D89828070200PV4U20170218000030SPEAKER ASM                   M IMCTM S0FR05 FTTL  07070IMCT  S0 PTB  00005                    1600 SR        000000000000 FUJITSU TEN (THAILAN170C16U0160160                                                                                                                              *          20170214IMF1702145.TXT
MDEUH2224503201702                D89828070300PT4U20170218000030SPEAKER ASM                   M IMCTM S9TS02 FTTL  07070IMCT  S9 PTB  00015                    0400 SR        000000000000 FUJITSU TEN (THAILAN170C16U0157157                                                                                                                              *          20170214IMF1702145.TXT
MDEUH2224504201702                D89828070300PT4U20170218000030SPEAKER ASM                   M IMCTM S9TS02 FTTL  07070IMCT  S9 PTB  00015                    0900 SR        000000000000 FUJITSU TEN (THAILAN170C16U0158158                                                                                                                              *          20170214IMF1702145.TXT
MDEUH2224505201702                D89828070300PT4U20170218000030SPEAKER ASM                   M IMCTM S9TS02 FTTL  07070IMCT  S9 PTB  00015                    1300 SR        000000000000 FUJITSU TEN (THAILAN170C16U0159159                                                                                                                              *          20170214IMF1702145.TXT
MDEUH2224506201702                D89828070300PT4U20170218000030SPEAKER ASM                   M IMCTM S9TS02 FTTL  07070IMCT  S9 PTB  00015                    1600 SR        000000000000 FUJITSU TEN (THAILAN170C16U0160160                                                                                                                              *          20170214IMF1702145.TXT
