REC2017021620170216ISUZU                              51     
MDDDH2255382201702                D89821984430PT1D20170220000030RADIO;AM/FM,CD                M IMCTM S5NC06 FTTL  07070IMCT  S5 PTB  00005                    2230 SR        000000000000 FUJITSU TEN (THAILAN170KNEL0065065                                                                                                                              *          20170216IMF1702166.TXT
MDDDH2255383201702                D89821984430PT1D20170221000030RADIO;AM/FM,CD                M IMCTM S5NC06 FTTL  07070IMCT  S5 PTB  00005                    1600 SR        000000000000 FUJITSU TEN (THAILAN170KNEL0066066                                                                                                                              *          20170216IMF1702166.TXT
MDDDH2255384201702                D89828070100PV1D20170220000060SPEAKER ASM                   M IMCTM S5MB11 FTTL  07070IMCT  S5 PTB  00004                    2230 SR        000000000000 FUJITSU TEN (THAILAN170KNEL0065065                                                                                                                              *          20170216IMF1702166.TXT
MDDDH2255385201702                D89828070100PV1D20170221000060SPEAKER ASM                   M IMCTM S5MB11 FTTL  07070IMCT  S5 PTB  00004                    1300 SR        000000000000 FUJITSU TEN (THAILAN170KPFL0134134                                                                                                                              *          20170216IMF1702166.TXT
MDDDH2255386201702                D89828070100PV1D20170221000060SPEAKER ASM                   M IMCTM S5MB11 FTTL  07070IMCT  S5 PTB  00004                    1600 SR        000000000000 FUJITSU TEN (THAILAN170KNEL0066066                                                                                                                              *          20170216IMF1702166.TXT
MDDDH2255387201702                D89828070300PT1D20170221000060SPEAKER ASM                   M IMCTM S5NB082FTTL  07070IMCT  S5 PTB  00015                    1300 SR        000000000000 FUJITSU TEN (THAILAN170KPFL0134134                                                                                                                              *          20170216IMF1702166.TXT
MDDDH2255388201702                D89831228300PT1D20170221000030RADIO;AM/FM,CD                M IMCTM S5NC06 FTTL  07070IMCT  S5 CPB  00003                    1300 SR        000000000000 FUJITSU TEN (THAILAN170KPFL0134134                                                                                                                              *          20170216IMF1702166.TXT
MDDUH2223051201702                D89828070100PT4U20170221000060SPEAKER ASM                   M IMCTM S0FL05 FTTL  07070IMCT  S0 PTB  00004                    0230 SR        000000000000 FUJITSU TEN (THAILAN180LUDU0013014                                                                                                                              *          20170216IMF1702166.TXT
MDDUH2223052201702                D89828070100PT4U20170221000030SPEAKER ASM                   M IMCTM S0FL05 FTTL  07070IMCT  S0 PTB  00004                    0400 SR        000000000000 FUJITSU TEN (THAILAN180LUDU0015015                                                                                                                              *          20170216IMF1702166.TXT
MDDUH2223053201702                D89828070100PT4U20170221000060SPEAKER ASM                   M IMCTM S0FL05 FTTL  07070IMCT  S0 PTB  00004                    0900 SR        000000000000 FUJITSU TEN (THAILAN180LUDU0016017                                                                                                                              *          20170216IMF1702166.TXT
MDDUH2223054201702                D89828070200PV4U20170221000060SPEAKER ASM                   M IMCTM S0FR05 FTTL  07070IMCT  S0 PTB  00005                    0230 SR        000000000000 FUJITSU TEN (THAILAN180LUDU0013014                                                                                                                              *          20170216IMF1702166.TXT
MDDUH2223055201702                D89828070200PV4U20170221000030SPEAKER ASM                   M IMCTM S0FR05 FTTL  07070IMCT  S0 PTB  00005                    0400 SR        000000000000 FUJITSU TEN (THAILAN180LUDU0015015                                                                                                                              *          20170216IMF1702166.TXT
MDDUH2223056201702                D89828070200PV4U20170221000060SPEAKER ASM                   M IMCTM S0FR05 FTTL  07070IMCT  S0 PTB  00005                    0900 SR        000000000000 FUJITSU TEN (THAILAN180LUDU0016017                                                                                                                              *          20170216IMF1702166.TXT
MDDUH2223057201702                D89828070300PT4U20170221000060SPEAKER ASM                   M IMCTM S9TS02 FTTL  07070IMCT  S9 PTB  00015                    0230 SR        000000000000 FUJITSU TEN (THAILAN180LUDU0013014                                                                                                                              *          20170216IMF1702166.TXT
MDDUH2223058201702                D89828070300PT4U20170221000030SPEAKER ASM                   M IMCTM S9TS02 FTTL  07070IMCT  S9 PTB  00015                    0400 SR        000000000000 FUJITSU TEN (THAILAN180LUDU0015015                                                                                                                              *          20170216IMF1702166.TXT
MDDUH2223059201702                D89828070300PT4U20170221000060SPEAKER ASM                   M IMCTM S9TS02 FTTL  07070IMCT  S9 PTB  00015                    0900 SR        000000000000 FUJITSU TEN (THAILAN180LUDU0016017                                                                                                                              *          20170216IMF1702166.TXT
MDEDH2287096201702                D89805293700PV1D20170221000060SPEAKER ASM                   M IMCTM S5MB11 FTTL  07070IMCT  S5 PTB  00003                    0900 SR        000000000000 FUJITSU TEN (THAILAN15019FL0136137                                                                                                                              *          20170216IMF1702166.TXT
MDEDH2287097201702                D89805293700PV1D20170221000030SPEAKER ASM                   M IMCTM S5MB11 FTTL  07070IMCT  S5 PTB  00003                    1600 SR        000000000000 FUJITSU TEN (THAILAN15019FL0138138                                                                                                                              *          20170216IMF1702166.TXT
MDEDH2287098201702                D89828070100PV1D20170220000030SPEAKER ASM                   M IMCTM S5MB11 FTTL  07070IMCT  S5 PTB  00004                    2100 SR        000000000000 FUJITSU TEN (THAILAN17075PL0022022                                                                                                                              *          20170216IMF1702166.TXT
MDEDH2287099201702                D89828070100PV1D20170220000090SPEAKER ASM                   M IMCTM S5MB11 FTTL  07070IMCT  S5 PTB  00004                    2230 SR        000000000000 FUJITSU TEN (THAILAN17075PL002302317079QL0005006                                                                                                                *          20170216IMF1702166.TXT
MDEDH2287100201702                D89828070100PV1D20170221000060SPEAKER ASM                   M IMCTM S5MB11 FTTL  07070IMCT  S5 PTB  00004                    0230 SR        000000000000 FUJITSU TEN (THAILAN17075PL0024025                                                                                                                              *          20170216IMF1702166.TXT
MDEDH2287101201702                D89828070100PV1D20170221000090SPEAKER ASM                   M IMCTM S5MB11 FTTL  07070IMCT  S5 PTB  00004                    0400 SR        000000000000 FUJITSU TEN (THAILAN17050RL000300417053NL0010010                                                                                                                *          20170216IMF1702166.TXT
MDEDH2287102201702                D89828070100PV1D20170221000060SPEAKER ASM                   M IMCTM S5MB11 FTTL  07070IMCT  S5 PTB  00004                    0900 SR        000000000000 FUJITSU TEN (THAILAN17075PL0026027                                                                                                                              *          20170216IMF1702166.TXT
MDEDH2287103201702                D89828070100PV1D20170221000060SPEAKER ASM                   M IMCTM S5MB11 FTTL  07070IMCT  S5 PTB  00004                    1300 SR        000000000000 FUJITSU TEN (THAILAN17028RL000300317075PL0028028                                                                                                                *          20170216IMF1702166.TXT
MDEDH2287104201702                D89828070100PV1D20170221000120SPEAKER ASM                   M IMCTM S5MB11 FTTL  07070IMCT  S5 PTB  00004                    1600 SR        000000000000 FUJITSU TEN (THAILAN17005RL000200317014RL000200217075PL0029029                                                                                                  *          20170216IMF1702166.TXT
MDEDH2287105201702                D89828070100PV4D20170220000030SPEAKER ASM                   M IMCTM S0FL05 FTTL  07070IMCT  S0 PTB  00004                    2100 SR        000000000000 FUJITSU TEN (THAILAN17080NU0019019                                                                                                                              *          20170216IMF1702166.TXT
MDEDH2287106201702                D89828070100PV4D20170221000030SPEAKER ASM                   M IMCTM S0FL05 FTTL  07070IMCT  S0 PTB  00004                    0900 SR        000000000000 FUJITSU TEN (THAILAN17079NU0017017                                                                                                                              *          20170216IMF1702166.TXT
MDEDH2287107201702                D89828070100PV4D20170221000030SPEAKER ASM                   M IMCTM S0FL05 FTTL  07070IMCT  S0 PTB  00004                    1600 SR        000000000000 FUJITSU TEN (THAILAN17080NU0020020                                                                                                                              *          20170216IMF1702166.TXT
MDEDH2287108201702                D89828070200PV1D20170221000060SPEAKER ASM                   M IMCTM S5MA14 FTTL  07070IMCT  S5 PTB  00005                    0400 SR        000000000000 FUJITSU TEN (THAILAN17050RL0003004                                                                                                                              *          20170216IMF1702166.TXT
MDEDH2287109201702                D89828070200PV1D20170221000060SPEAKER ASM                   M IMCTM S5MA14 FTTL  07070IMCT  S5 PTB  00005                    1600 SR        000000000000 FUJITSU TEN (THAILAN17005RL0002003                                                                                                                              *          20170216IMF1702166.TXT
MDEDH2287110201702                D89828070200PV4D20170220000030SPEAKER ASM                   M IMCTM S0FR05 FTTL  07070IMCT  S0 PTB  00005                    2100 SR        000000000000 FUJITSU TEN (THAILAN17080NU0019019                                                                                                                              *          20170216IMF1702166.TXT
MDEDH2287111201702                D89828070200PV4D20170221000030SPEAKER ASM                   M IMCTM S0FR05 FTTL  07070IMCT  S0 PTB  00005                    0900 SR        000000000000 FUJITSU TEN (THAILAN17079NU0017017                                                                                                                              *          20170216IMF1702166.TXT
MDEDH2287112201702                D89828070200PV4D20170221000030SPEAKER ASM                   M IMCTM S0FR05 FTTL  07070IMCT  S0 PTB  00005                    1600 SR        000000000000 FUJITSU TEN (THAILAN17080NU0020020                                                                                                                              *          20170216IMF1702166.TXT
MDEDH2287113201702                D89828070300PT1D20170221000090SPEAKER ASM                   M IMCTM S5NB082FTTL  07070IMCT  S5 PTB  00015                    0400 SR        000000000000 FUJITSU TEN (THAILAN17050RL000300417053NL0010010                                                                                                                *          20170216IMF1702166.TXT
MDEDH2287114201702                D89828070300PT1D20170221000060SPEAKER ASM                   M IMCTM S5NB082FTTL  07070IMCT  S5 PTB  00015                    1600 SR        000000000000 FUJITSU TEN (THAILAN17005RL0002003                                                                                                                              *          20170216IMF1702166.TXT
MDEDH2287115201702                D89828070300PT4D20170220000030SPEAKER ASM                   M IMCTM S9TS02 FTTL  07070IMCT  S9 PTB  00015                    2100 SR        000000000000 FUJITSU TEN (THAILAN17080NU0019019                                                                                                                              *          20170216IMF1702166.TXT
MDEDH2287116201702                D89828070300PT4D20170221000030SPEAKER ASM                   M IMCTM S9TS02 FTTL  07070IMCT  S9 PTB  00015                    0900 SR        000000000000 FUJITSU TEN (THAILAN17079NU0017017                                                                                                                              *          20170216IMF1702166.TXT
MDEDH2287117201702                D89828070300PT4D20170221000030SPEAKER ASM                   M IMCTM S9TS02 FTTL  07070IMCT  S9 PTB  00015                    1600 SR        000000000000 FUJITSU TEN (THAILAN17080NU0020020                                                                                                                              *          20170216IMF1702166.TXT
MDEDH2287118201702                D89829645400PT1D20170221000030RADIO;ASM DVD                 M IMCTM S5NC06 FTTL  07070IMCT  S5 PTB  00003                    0400 SR        000000000000 FUJITSU TEN (THAILAN17050RL0003004                                                                                                                              *          20170216IMF1702166.TXT
MDEDH2287119201702                D89829645400PT1D20170221000030RADIO;ASM DVD                 M IMCTM S5NC06 FTTL  07070IMCT  S5 PTB  00003                    1600 SR        000000000000 FUJITSU TEN (THAILAN17005RL0002003                                                                                                                              *          20170216IMF1702166.TXT
MDEDH2287120201702                D89829645700PT1D20170221000015RADIO;ASM DVD                 M IMCTM S5NC06 FTTL  07070IMCT  S5 X    00003                    0400 SR        000000000000 FUJITSU TEN (THAILAN17053NL0010010                                                                                                                              *          20170216IMF1702166.TXT
MDEDH2287121201702                D89829645700PT4D20170221000015RADIO;ASM DVD                 M IMCTM S9CO001FTTL  07070IMCT  S9 X    00003                    0900 SR        000000000000 FUJITSU TEN (THAILAN17079NU0017017                                                                                                                              *          20170216IMF1702166.TXT
MDEUH2229764201702                D89828070100PT4U20170220000030SPEAKER ASM                   M IMCTM S0FL05 FTTL  07070IMCT  S0 PTB  00004                    2230 SR        000000000000 FUJITSU TEN (THAILAN170C16U0165165                                                                                                                              *          20170216IMF1702166.TXT
MDEUH2229765201702                D89828070100PT4U20170221000030SPEAKER ASM                   M IMCTM S0FL05 FTTL  07070IMCT  S0 PTB  00004                    1300 SR        000000000000 FUJITSU TEN (THAILAN170C16U0166166                                                                                                                              *          20170216IMF1702166.TXT
MDEUH2229766201702                D89828070100PT4U20170221000060SPEAKER ASM                   M IMCTM S0FL05 FTTL  07070IMCT  S0 PTB  00004                    1600 SR        000000000000 FUJITSU TEN (THAILAN170C16U0167168                                                                                                                              *          20170216IMF1702166.TXT
MDEUH2229767201702                D89828070200PV4U20170220000030SPEAKER ASM                   M IMCTM S0FR05 FTTL  07070IMCT  S0 PTB  00005                    2230 SR        000000000000 FUJITSU TEN (THAILAN170C16U0165165                                                                                                                              *          20170216IMF1702166.TXT
MDEUH2229768201702                D89828070200PV4U20170221000030SPEAKER ASM                   M IMCTM S0FR05 FTTL  07070IMCT  S0 PTB  00005                    1300 SR        000000000000 FUJITSU TEN (THAILAN170C16U0166166                                                                                                                              *          20170216IMF1702166.TXT
MDEUH2229769201702                D89828070200PV4U20170221000060SPEAKER ASM                   M IMCTM S0FR05 FTTL  07070IMCT  S0 PTB  00005                    1600 SR        000000000000 FUJITSU TEN (THAILAN170C16U0167168                                                                                                                              *          20170216IMF1702166.TXT
MDEUH2229770201702                D89828070300PT4U20170220000030SPEAKER ASM                   M IMCTM S9TS02 FTTL  07070IMCT  S9 PTB  00015                    2230 SR        000000000000 FUJITSU TEN (THAILAN170C16U0165165                                                                                                                              *          20170216IMF1702166.TXT
MDEUH2229771201702                D89828070300PT4U20170221000030SPEAKER ASM                   M IMCTM S9TS02 FTTL  07070IMCT  S9 PTB  00015                    1300 SR        000000000000 FUJITSU TEN (THAILAN170C16U0166166                                                                                                                              *          20170216IMF1702166.TXT
MDEUH2229772201702                D89828070300PT4U20170221000060SPEAKER ASM                   M IMCTM S9TS02 FTTL  07070IMCT  S9 PTB  00015                    1600 SR        000000000000 FUJITSU TEN (THAILAN170C16U0167168                                                                                                                              *          20170216IMF1702166.TXT
