REC2017032420170324ISUZU                              14     
MDEFH3T25233201703                D89828070100PV4F20170330000030SPEAKER ASM                   M IMCTM S7FL05 FTTL  07070IMCT  S7 PTB  00003                    0900 SR        000000000000 FUJITSU TEN (THAILAN17025SR0006   17050MR0054   F170307501    F170307515    000000                                                                              *R         20170324RDF1703247.TXT
MDEFH3T25234201703                D89828070200PV4F20170330000010SPEAKER ASM                   M IMCTM S7TS02 FTTL  07070IMCT  S7 PTB  00005                    0230 SR        000000000000 FUJITSU TEN (THAILAN17050RR0045   17051RR0030   D170307411    D170307415    000000                                                                              *R         20170324RDF1703247.TXT
MDEFH3T25235201703                D89828070300PT4F20170330000018SPEAKER ASM                   M IMCTM S7TS02 FTTL  07070IMCT  S7 PTB  00015                    0900 SR        000000000000 FUJITSU TEN (THAILAN17025SR0006   17025SR0014   F170307501    F170307509    000000                                                                              *R         20170324RDF1703247.TXT
MDEFH3T25236201703                D89829645400PT4F20170330000004RADIO;ASM DVD                 M IMCTM S7TS03 FTTL  07070IMCT  S7 PTB  00003                    0230 SR        000000000000 FUJITSU TEN (THAILAN17050RR0045   17051RR0030   D170307411    D170307415    000000                                                                              *R         20170324RDF1703247.TXT
MDEFH3T25237201703                D89831228800PT4F20170329000002RADIO;AM/FM,CD                M IMCTM S7TS03 FTTL  07070IMCT  S7 PTB  00003                    2100 SR        000000000000 FUJITSU TEN (THAILAN17012MR0032   17012MR0033   D170307311    D170307414    000000                                                                              *R         20170324RDF1703247.TXT
MDEFH3T25238201703                D89831229000PT4F20170329000005RADIO;AM/FM,CD                M IMCTM S7TS03 FTTL  07070IMCT  S7 PTB  00003                    1600 SR        000000000000 FUJITSU TEN (THAILAN16050KR0014   16050KR0018   D170307301    D170307305    000000                                                                              *R         20170324RDF1703247.TXT
MDEFH3279698201703                D89828070100PV4F20170329000018SPEAKER ASM                   M IMCTM S7FL05 FTTL  07070IMCT  S7 PTB  00003                    1600 SR        000000000000 FUJITSU TEN (THAILAN16050KR0014   17010MR0014   D170307301    D170307309    000000                                                                              *R         20170324RDF1703247.TXT
MDEFH3279699201703                D89828070100PV4F20170329000012SPEAKER ASM                   M IMCTM S7FL05 FTTL  07070IMCT  S7 PTB  00003                    2100 SR        000000000000 FUJITSU TEN (THAILAN17010MR0015   17032NR0024   D170307310    D170307315    000000                                                                              *R         20170324RDF1703247.TXT
MDEFH3279700201703                D89828070100PV4F20170329000018SPEAKER ASM                   M IMCTM S7FL05 FTTL  07070IMCT  S7 PTB  00003                    2230 SR        000000000000 FUJITSU TEN (THAILAN17031NR0021   17031NR0029   D170307401    D170307409    000000                                                                              *R         20170324RDF1703247.TXT
MDEFH3279701201703                D89828070100PV4F20170330000012SPEAKER ASM                   M IMCTM S7FL05 FTTL  07070IMCT  S7 PTB  00003                    0230 SR        000000000000 FUJITSU TEN (THAILAN17031NR0030   17051RR0030   D170307410    D170307415    000000                                                                              *R         20170324RDF1703247.TXT
MDEFH3279702201703                D89828070200PV4F20170329000010SPEAKER ASM                   M IMCTM S7TS02 FTTL  07070IMCT  S7 PTB  00005                    1600 SR        000000000000 FUJITSU TEN (THAILAN16050KR0014   16050KR0018   D170307301    D170307305    000000                                                                              *R         20170324RDF1703247.TXT
MDEFH3279703201703                D89828070200PV4F20170329000010SPEAKER ASM                   M IMCTM S7TS02 FTTL  07070IMCT  S7 PTB  00005                    2100 SR        000000000000 FUJITSU TEN (THAILAN17012MR0032   17032NR0024   D170307311    D170307315    000000                                                                              *R         20170324RDF1703247.TXT
MDEFH3279704201703                D89828070300PT4F20170329000015SPEAKER ASM                   M IMCTM S7TS02 FTTL  07070IMCT  S7 PTB  00015                    1600 SR        000000000000 FUJITSU TEN (THAILAN16050KR0014   17032NR0022   D170307301    D170307313    000000                                                                              *R         20170324RDF1703247.TXT
MDEFH3279705201703                D89828070300PT4F20170329000015SPEAKER ASM                   M IMCTM S7TS02 FTTL  07070IMCT  S7 PTB  00015                    2100 SR        000000000000 FUJITSU TEN (THAILAN17032NR0022   17051RR0030   D170307313    D170307415    000000                                                                              *R         20170324RDF1703247.TXT
