REC2017031620170316ISUZU                              30     
MAKK73059804201703D4               89805293700P3YK20170327000210SPEAKER ASM                   M IMCTM CM1    FTTL  07070IMKDC 01   PTB00003  K0                1621DES        000000000000 FUJITSU TEN (THAILAN                                                                                                                                            *G         20170316IMF1703161.TXT
MAKK73059805201703D4               89805293700P3YK20170328000270SPEAKER ASM                   M IMCTM CM1    FTTL  07070IMKDC 01   PTB00003  K0                1621DES        000000000000 FUJITSU TEN (THAILAN                                                                                                                                            *G         20170316IMF1703161.TXT
MAKK73059806201703D4               89805293700P3YK20170329000300SPEAKER ASM                   M IMCTM CM1    FTTL  07070IMKDC 01   PTB00003  K0                1621DES        000000000000 FUJITSU TEN (THAILAN                                                                                                                                            *G         20170316IMF1703161.TXT
MAKK73059807201703D4               89805293700P3YK20170330000120SPEAKER ASM                   M IMCTM CM1    FTTL  07070IMKDC 01   PTB00003  K0                1621DES        000000000000 FUJITSU TEN (THAILAN                                                                                                                                            *G         20170316IMF1703161.TXT
MAKK73059808201703D4               89805293700P3YK20170331000150SPEAKER ASM                   M IMCTM CM1    FTTL  07070IMKDC 01   PTB00003  K0                1621DES        000000000000 FUJITSU TEN (THAILAN                                                                                                                                            *G         20170316IMF1703161.TXT
MAKK73059809201703D4               89805294000P3YK20170327000090SPEAKER ASM                   M IMCTM CM1    FTTL  07070IMKDC 01   PTB00015  K0                1621DES        000000000000 FUJITSU TEN (THAILAN                                                                                                                                            *G         20170316IMF1703161.TXT
MAKK73059810201703D4               89805294000P3YK20170328000060SPEAKER ASM                   M IMCTM CM1    FTTL  07070IMKDC 01   PTB00015  K0                1621DES        000000000000 FUJITSU TEN (THAILAN                                                                                                                                            *G         20170316IMF1703161.TXT
MAKK73059811201703D4               89805294000P3YK20170329000060SPEAKER ASM                   M IMCTM CM1    FTTL  07070IMKDC 01   PTB00015  K0                1621DES        000000000000 FUJITSU TEN (THAILAN                                                                                                                                            *G         20170316IMF1703161.TXT
MAKK73059812201703D4               89805294000P3YK20170330000030SPEAKER ASM                   M IMCTM CM1    FTTL  07070IMKDC 01   PTB00015  K0                1621DES        000000000000 FUJITSU TEN (THAILAN                                                                                                                                            *G         20170316IMF1703161.TXT
MAKK73059813201703D4               89805294000P3YK20170331000030SPEAKER ASM                   M IMCTM CM1    FTTL  07070IMKDC 01   PTB00015  K0                1621DES        000000000000 FUJITSU TEN (THAILAN                                                                                                                                            *G         20170316IMF1703161.TXT
MAKK73059814201703D4               89805294100P3YK20170327000090SPEAKER ASM                   M IMCTM CM1    FTTL  07070IMKDC 01   PTB00005  K0                1621DES        000000000000 FUJITSU TEN (THAILAN                                                                                                                                            *G         20170316IMF1703161.TXT
MAKK73059815201703D4               89805294100P3YK20170328000030SPEAKER ASM                   M IMCTM CM1    FTTL  07070IMKDC 01   PTB00005  K0                1621DES        000000000000 FUJITSU TEN (THAILAN                                                                                                                                            *G         20170316IMF1703161.TXT
MAKK73059816201703D4               89805294100P3YK20170329000030SPEAKER ASM                   M IMCTM CM1    FTTL  07070IMKDC 01   PTB00005  K0                1621DES        000000000000 FUJITSU TEN (THAILAN                                                                                                                                            *G         20170316IMF1703161.TXT
MAKK73059817201703D4               89805294100P3YK20170330000030SPEAKER ASM                   M IMCTM CM1    FTTL  07070IMKDC 01   PTB00005  K0                1621DES        000000000000 FUJITSU TEN (THAILAN                                                                                                                                            *G         20170316IMF1703161.TXT
MAKK73059818201703D4               89825451200P3YK20170329000150SPEAKER ASM;ROOF              M IMCTM CM1    FTTL  07070IMKDC 01   PTB00015  K0                1621DES        000000000000 FUJITSU TEN (THAILAN                                                                                                                                            *G         20170316IMF1703161.TXT
MAKK73059819201703D4               89825451200P3YK20170330000120SPEAKER ASM;ROOF              M IMCTM CM1    FTTL  07070IMKDC 01   PTB00015  K0                1621DES        000000000000 FUJITSU TEN (THAILAN                                                                                                                                            *G         20170316IMF1703161.TXT
MAKK73059820201703D4               89828070100P3YK20170327000210SPEAKER ASM                   M IMCTM CM1    FTTL  07070IMKDC 01 PTB  00003  K0                1621DES        000000000000 FUJITSU TEN (THAILAN                                                                                                                                            *G         20170316IMF1703161.TXT
MAKK73059821201703D4               89828070100P3YK20170328000150SPEAKER ASM                   M IMCTM CM1    FTTL  07070IMKDC 01 PTB  00003  K0                1621DES        000000000000 FUJITSU TEN (THAILAN                                                                                                                                            *G         20170316IMF1703161.TXT
MAKK73059822201703D4               89828070100P3YK20170329000150SPEAKER ASM                   M IMCTM CM1    FTTL  07070IMKDC 01 PTB  00003  K0                1621DES        000000000000 FUJITSU TEN (THAILAN                                                                                                                                            *G         20170316IMF1703161.TXT
MAKK73059823201703D4               89828070100P3YK20170330000150SPEAKER ASM                   M IMCTM CM1    FTTL  07070IMKDC 01 PTB  00003  K0                1621DES        000000000000 FUJITSU TEN (THAILAN                                                                                                                                            *G         20170316IMF1703161.TXT
MAKK73059824201703D4               89828070100P3YK20170331000030SPEAKER ASM                   M IMCTM CM1    FTTL  07070IMKDC 01 PTB  00003  K0                1621DES        000000000000 FUJITSU TEN (THAILAN                                                                                                                                            *G         20170316IMF1703161.TXT
MAKK73059825201703D4               89828070200P3YK20170327000030SPEAKER ASM                   M IMCTM CM1    FTTL  07070IMKDC 01 PTB  00005  K0                1621DES        000000000000 FUJITSU TEN (THAILAN                                                                                                                                            *G         20170316IMF1703161.TXT
MAKK73059826201703D4               89828070200P3YK20170329000150SPEAKER ASM                   M IMCTM CM1    FTTL  07070IMKDC 01 PTB  00005  K0                1621DES        000000000000 FUJITSU TEN (THAILAN                                                                                                                                            *G         20170316IMF1703161.TXT
MAKK73059827201703D4               89828070200P3YK20170330000120SPEAKER ASM                   M IMCTM CM1    FTTL  07070IMKDC 01 PTB  00005  K0                1621DES        000000000000 FUJITSU TEN (THAILAN                                                                                                                                            *G         20170316IMF1703161.TXT
MAKK73059828201703D4               89828070200P3YK20170331000030SPEAKER ASM                   M IMCTM CM1    FTTL  07070IMKDC 01 PTB  00005  K0                1621DES        000000000000 FUJITSU TEN (THAILAN                                                                                                                                            *G         20170316IMF1703161.TXT
MAKK73059829201703D4               89828070300P3YK20170327000060SPEAKER ASM                   M IMCTM CM1    FTTL  07070IMKDC 01 PTB  00015  K0                1621DES        000000000000 FUJITSU TEN (THAILAN                                                                                                                                            *G         20170316IMF1703161.TXT
MAKK73059830201703D4               89828070300P3YK20170329000150SPEAKER ASM                   M IMCTM CM1    FTTL  07070IMKDC 01 PTB  00015  K0                1621DES        000000000000 FUJITSU TEN (THAILAN                                                                                                                                            *G         20170316IMF1703161.TXT
MAKK73059831201703D4               89828070300P3YK20170330000120SPEAKER ASM                   M IMCTM CM1    FTTL  07070IMKDC 01 PTB  00015  K0                1621DES        000000000000 FUJITSU TEN (THAILAN                                                                                                                                            *G         20170316IMF1703161.TXT
MAKK73059832201703D4               89828070300P3YK20170331000030SPEAKER ASM                   M IMCTM CM1    FTTL  07070IMKDC 01 PTB  00015  K0                1621DES        000000000000 FUJITSU TEN (THAILAN                                                                                                                                            *G         20170316IMF1703161.TXT
MAKK73059833201703D4               89831228800P3YK20170330000015RADIO;AM/FM,CD                M IMCTM CM1    FTTL  07070IMKDC 01 PTB  00003  K0                1621DES        000000000000 FUJITSU TEN (THAILAN                                                                                                                                            *G         20170316IMF1703161.TXT
