REC2017030820170309ISUZU                              12     
MDEFH3T08146201703                D89828070100PV4F20170313000030SPEAKER ASM                   M IMCTM S7FL05 FTTL  07070IMCT  S7 PTB  00003                    0900 SR        000000000000 FUJITSU TEN (THAILAN17004MR0014   17040PR0005   S170303401    S170303415    000000                                                                              *R         20170308RDF1703085.TXT
MDEFH3T08147201703                D89828070200PV4F20170312000009SPEAKER ASM                   M IMCTM S7TS02 FTTL  07070IMCT  S7 PTB  00005                    0230 SR        000000000000 FUJITSU TEN (THAILAN17099MR0045   17029MR0023   D170303310    D170303315    000000                                                                              *R         20170308RDF1703085.TXT
MDEFH3T08148201703                D89828070300PT4F20170311000015SPEAKER ASM                   M IMCTM S7TS02 FTTL  07070IMCT  S7 PTB  00015                    2230 SR        000000000000 FUJITSU TEN (THAILAN17099MR0042   17029MR0023   D170303307    D170303315    000000                                                                              *R         20170308RDF1703085.TXT
MDEFH3T08149201703                D89829645300PT4F20170312000001RADIO;ASM DVD                 M IMCTM S7TS03 FTTL  07070IMCT  S7 PTB  00003                    0230 SR        000000000000 FUJITSU TEN (THAILAN17099MR0045   17099MR0045   D170303310    D170303310    000000                                                                              *R         20170308RDF1703085.TXT
MDEFH3226952201703                D89828070100PV4F20170311000018SPEAKER ASM                   M IMCTM S7FL05 FTTL  07070IMCT  S7 PTB  00003                    1600 SR        000000000000 FUJITSU TEN (THAILAN17038RR0011   17079QR0046   D170303201    D170303209    000000                                                                              *R         20170308RDF1703085.TXT
MDEFH3226953201703                D89828070100PV4F20170311000012SPEAKER ASM                   M IMCTM S7FL05 FTTL  07070IMCT  S7 PTB  00003                    2100 SR        000000000000 FUJITSU TEN (THAILAN17079QR0047   17079QR0052   D170303210    D170303215    000000                                                                              *R         20170308RDF1703085.TXT
MDEFH3226954201703                D89828070100PV4F20170311000018SPEAKER ASM                   M IMCTM S7FL05 FTTL  07070IMCT  S7 PTB  00003                    2230 SR        000000000000 FUJITSU TEN (THAILAN17083MR0017   17099MR0044   D170303301    D170303309    000000                                                                              *R         20170308RDF1703085.TXT
MDEFH3226955201703                D89828070100PV4F20170312000012SPEAKER ASM                   M IMCTM S7FL05 FTTL  07070IMCT  S7 PTB  00003                    0230 SR        000000000000 FUJITSU TEN (THAILAN17099MR0045   17029MR0023   D170303310    D170303315    000000                                                                              *R         20170308RDF1703085.TXT
MDEFH3226956201703                D89828070200PV4F20170311000005SPEAKER ASM                   M IMCTM S7TS02 FTTL  07070IMCT  S7 PTB  00005                    1600 SR        000000000000 FUJITSU TEN (THAILAN17038RR0011   17099MR0040   D170303201    D170303305    000000                                                                              *R         20170308RDF1703085.TXT
MDEFH3226957201703                D89828070200PV4F20170311000010SPEAKER ASM                   M IMCTM S7TS02 FTTL  07070IMCT  S7 PTB  00005                    2230 SR        000000000000 FUJITSU TEN (THAILAN17099MR0040   17099MR0045   D170303305    D170303310    000000                                                                              *R         20170308RDF1703085.TXT
MDEFH3226958201703                D89828070300PT4F20170311000015SPEAKER ASM                   M IMCTM S7TS02 FTTL  07070IMCT  S7 PTB  00015                    1600 SR        000000000000 FUJITSU TEN (THAILAN17038RR0011   17099MR0042   D170303201    D170303307    000000                                                                              *R         20170308RDF1703085.TXT
MDEFH3226959201703                D89829645300PT4F20170311000006RADIO;ASM DVD                 M IMCTM S7TS03 FTTL  07070IMCT  S7 PTB  00003                    2230 SR        000000000000 FUJITSU TEN (THAILAN17099MR0039   17099MR0044   D170303304    D170303309    000000                                                                              *R         20170308RDF1703085.TXT
