REC2017032820170329ISUZU                              63     
MDDDH3236391201704                D89821984430PT1D20170401000030RADIO;AM/FM,CD                M IMCTM S5NC06 FTTL  07070IMCT  S5 PTB  00005                    1300 SR        000000000000 FUJITSU TEN (THAILAN170KRAL0038038                                                                                                                              *          20170328IMF1703284.TXT
MDDDH3236392201704                D89828070100PV1D20170331000060SPEAKER ASM                   M IMCTM S5MB11 FTTL  07070IMCT  S5 PTB  00003                    2230 SR        000000000000 FUJITSU TEN (THAILAN170KPFL0139139                                                                                                                              *          20170328IMF1703284.TXT
MDDDH3236393201704                D89828070100PV1D20170401000060SPEAKER ASM                   M IMCTM S5MB11 FTTL  07070IMCT  S5 PTB  00003                    0230 SR        000000000000 FUJITSU TEN (THAILAN170KRFL0062062                                                                                                                              *          20170328IMF1703284.TXT
MDDDH3236394201704                D89828070100PV1D20170401000060SPEAKER ASM                   M IMCTM S5MB11 FTTL  07070IMCT  S5 PTB  00003                    0400 SR        000000000000 FUJITSU TEN (THAILAN170KPFL0140140                                                                                                                              *          20170328IMF1703284.TXT
MDDDH3236395201704                D89828070100PV1D20170401000120SPEAKER ASM                   M IMCTM S5MB11 FTTL  07070IMCT  S5 PTB  00003                    0900 SR        000000000000 FUJITSU TEN (THAILAN170KPFL0141141170KRFL0063063                                                                                                                *          20170328IMF1703284.TXT
MDDDH3236396201704                D89828070100PV1D20170401000120SPEAKER ASM                   M IMCTM S5MB11 FTTL  07070IMCT  S5 PTB  00003                    1300 SR        000000000000 FUJITSU TEN (THAILAN170KRAL0038038170KRHL0022022                                                                                                                *          20170328IMF1703284.TXT
MDDDH3236397201704                D89828070200PV1D20170401000060SPEAKER ASM                   M IMCTM S5MA14 FTTL  07070IMCT  S5 PTB  00005                    0230 SR        000000000000 FUJITSU TEN (THAILAN170KRFL0062062                                                                                                                              *          20170328IMF1703284.TXT
MDDDH3236398201704                D89828070200PV1D20170401000060SPEAKER ASM                   M IMCTM S5MA14 FTTL  07070IMCT  S5 PTB  00005                    0900 SR        000000000000 FUJITSU TEN (THAILAN170KRFL0063063                                                                                                                              *          20170328IMF1703284.TXT
MDDDH3236399201704                D89828070200PV1D20170401000060SPEAKER ASM                   M IMCTM S5MA14 FTTL  07070IMCT  S5 PTB  00005                    1300 SR        000000000000 FUJITSU TEN (THAILAN170KRHL0022022                                                                                                                              *          20170328IMF1703284.TXT
MDDDH3236400201704                D89828070300PT1D20170331000060SPEAKER ASM                   M IMCTM S5NB082FTTL  07070IMCT  S5 PTB  00015                    2230 SR        000000000000 FUJITSU TEN (THAILAN170KPFL0139139                                                                                                                              *          20170328IMF1703284.TXT
MDDDH3236401201704                D89828070300PT1D20170401000060SPEAKER ASM                   M IMCTM S5NB082FTTL  07070IMCT  S5 PTB  00015                    0230 SR        000000000000 FUJITSU TEN (THAILAN170KRFL0062062                                                                                                                              *          20170328IMF1703284.TXT
MDDDH3236402201704                D89828070300PT1D20170401000060SPEAKER ASM                   M IMCTM S5NB082FTTL  07070IMCT  S5 PTB  00015                    0400 SR        000000000000 FUJITSU TEN (THAILAN170KPFL0140140                                                                                                                              *          20170328IMF1703284.TXT
MDDDH3236403201704                D89828070300PT1D20170401000120SPEAKER ASM                   M IMCTM S5NB082FTTL  07070IMCT  S5 PTB  00015                    0900 SR        000000000000 FUJITSU TEN (THAILAN170KPFL0141141170KRFL0063063                                                                                                                *          20170328IMF1703284.TXT
MDDDH3236404201704                D89828070300PT1D20170401000060SPEAKER ASM                   M IMCTM S5NB082FTTL  07070IMCT  S5 PTB  00015                    1300 SR        000000000000 FUJITSU TEN (THAILAN170KRHL0022022                                                                                                                              *          20170328IMF1703284.TXT
MDDDH3236405201704                D89829645900PT1D20170401000030RADIO;ASM DVD                 M IMCTM S5NC06 FTTL  07070IMCT  S5 CPB  00003                    0230 SR        000000000000 FUJITSU TEN (THAILAN170KRFL0062062                                                                                                                              *          20170328IMF1703284.TXT
MDDDH3236406201704                D89829645900PT1D20170401000030RADIO;ASM DVD                 M IMCTM S5NC06 FTTL  07070IMCT  S5 CPB  00003                    0900 SR        000000000000 FUJITSU TEN (THAILAN170KRFL0063063                                                                                                                              *          20170328IMF1703284.TXT
MDDDH3236407201704                D89831228300PT1D20170331000030RADIO;AM/FM,CD                M IMCTM S5NC06 FTTL  07070IMCT  S5 CPB  00003                    2230 SR        000000000000 FUJITSU TEN (THAILAN170KPFL0139139                                                                                                                              *          20170328IMF1703284.TXT
MDDDH3236408201704                D89831228300PT1D20170401000030RADIO;AM/FM,CD                M IMCTM S5NC06 FTTL  07070IMCT  S5 CPB  00003                    0400 SR        000000000000 FUJITSU TEN (THAILAN170KPFL0140140                                                                                                                              *          20170328IMF1703284.TXT
MDDDH3236409201704                D89831228300PT1D20170401000030RADIO;AM/FM,CD                M IMCTM S5NC06 FTTL  07070IMCT  S5 CPB  00003                    0900 SR        000000000000 FUJITSU TEN (THAILAN170KPFL0141141                                                                                                                              *          20170328IMF1703284.TXT
MDDUH3258792201704                D89828070100PT4U20170331000030SPEAKER ASM                   M IMCTM S0FL05 FTTL  07070IMCT  S0 PTB  00003                    2100 SR        000000000000 FUJITSU TEN (THAILAN180LUDU0075075                                                                                                                              *          20170328IMF1703284.TXT
MDDUH3258793201704                D89828070100PT4U20170331000030SPEAKER ASM                   M IMCTM S0FL05 FTTL  07070IMCT  S0 PTB  00003                    2230 SR        000000000000 FUJITSU TEN (THAILAN180LUDU0076076                                                                                                                              *          20170328IMF1703284.TXT
MDDUH3258794201704                D89828070100PT4U20170401000060SPEAKER ASM                   M IMCTM S0FL05 FTTL  07070IMCT  S0 PTB  00003                    1300 SR        000000000000 FUJITSU TEN (THAILAN180LUDU0077078                                                                                                                              *          20170328IMF1703284.TXT
MDDUH3258795201704                D89828070200PV4U20170331000030SPEAKER ASM                   M IMCTM S0FR05 FTTL  07070IMCT  S0 PTB  00005                    2100 SR        000000000000 FUJITSU TEN (THAILAN180LUDU0075075                                                                                                                              *          20170328IMF1703284.TXT
MDDUH3258796201704                D89828070200PV4U20170331000030SPEAKER ASM                   M IMCTM S0FR05 FTTL  07070IMCT  S0 PTB  00005                    2230 SR        000000000000 FUJITSU TEN (THAILAN180LUDU0076076                                                                                                                              *          20170328IMF1703284.TXT
MDDUH3258797201704                D89828070200PV4U20170401000060SPEAKER ASM                   M IMCTM S0FR05 FTTL  07070IMCT  S0 PTB  00005                    1300 SR        000000000000 FUJITSU TEN (THAILAN180LUDU0077078                                                                                                                              *          20170328IMF1703284.TXT
MDDUH3258798201704                D89828070300PT4U20170331000030SPEAKER ASM                   M IMCTM S9TS02 FTTL  07070IMCT  S9 PTB  00015                    2100 SR        000000000000 FUJITSU TEN (THAILAN180LUDU0075075                                                                                                                              *          20170328IMF1703284.TXT
MDDUH3258799201704                D89828070300PT4U20170331000030SPEAKER ASM                   M IMCTM S9TS02 FTTL  07070IMCT  S9 PTB  00015                    2230 SR        000000000000 FUJITSU TEN (THAILAN180LUDU0076076                                                                                                                              *          20170328IMF1703284.TXT
MDDUH3258800201704                D89828070300PT4U20170401000060SPEAKER ASM                   M IMCTM S9TS02 FTTL  07070IMCT  S9 PTB  00015                    1300 SR        000000000000 FUJITSU TEN (THAILAN180LUDU0077078                                                                                                                              *          20170328IMF1703284.TXT
MDEDH3401358201704                D89805293700PV1D20170331000030SPEAKER ASM                   M IMCTM S5MB11 FTTL  07070IMCT  S5 PTB  00003                    2100 SR        000000000000 FUJITSU TEN (THAILAN15019FL0170170                                                                                                                              *          20170328IMF1703284.TXT
MDEDH3401359201704                D89805293700PV1D20170331000090SPEAKER ASM                   M IMCTM S5MB11 FTTL  07070IMCT  S5 PTB  00003                    2230 SR        000000000000 FUJITSU TEN (THAILAN15018FL010410415019FL017117115028BL0049049                                                                                                  *          20170328IMF1703284.TXT
MDEDH3401360201704                D89805293700PV1D20170401000030SPEAKER ASM                   M IMCTM S5MB11 FTTL  07070IMCT  S5 PTB  00003                    0230 SR        000000000000 FUJITSU TEN (THAILAN15018FL0105105                                                                                                                              *          20170328IMF1703284.TXT
MDEDH3401361201704                D89805293700PV1D20170401000030SPEAKER ASM                   M IMCTM S5MB11 FTTL  07070IMCT  S5 PTB  00003                    1600 SR        000000000000 FUJITSU TEN (THAILAN15019FL0172172                                                                                                                              *          20170328IMF1703284.TXT
MDEDH3401362201704                D89805294000PT1D20170331000030SPEAKER ASM                   M IMCTM S5NB082FTTL  07070IMCT  S5 PTB  00015                    2230 SR        000000000000 FUJITSU TEN (THAILAN15028BL0049049                                                                                                                              *          20170328IMF1703284.TXT
MDEDH3401363201704                D89805294100PV1D20170331000030SPEAKER ASM                   M IMCTM S5MA14 FTTL  07070IMCT  S5 PTB  00005                    2230 SR        000000000000 FUJITSU TEN (THAILAN15028BL0049049                                                                                                                              *          20170328IMF1703284.TXT
MDEDH3401364201704                D89828070100PV1D20170401000030SPEAKER ASM                   M IMCTM S5MB11 FTTL  07070IMCT  S5 PTB  00003                    0400 SR        000000000000 FUJITSU TEN (THAILAN17032NL0008008                                                                                                                              *          20170328IMF1703284.TXT
MDEDH3401365201704                D89828070100PV1D20170401000030SPEAKER ASM                   M IMCTM S5MB11 FTTL  07070IMCT  S5 PTB  00003                    0900 SR        000000000000 FUJITSU TEN (THAILAN17053NL0027027                                                                                                                              *          20170328IMF1703284.TXT
MDEDH3401366201704                D89828070100PV4D20170331000030SPEAKER ASM                   M IMCTM S0FL05 FTTL  07070IMCT  S0 PTB  00003                    2230 SR        000000000000 FUJITSU TEN (THAILAN17018MU0004004                                                                                                                              *          20170328IMF1703284.TXT
MDEDH3401367201704                D89828070100PV4D20170401000030SPEAKER ASM                   M IMCTM S0FL05 FTTL  07070IMCT  S0 PTB  00003                    1600 SR        000000000000 FUJITSU TEN (THAILAN17018MU0005005                                                                                                                              *          20170328IMF1703284.TXT
MDEDH3401368201704                D89828070200PV1D20170401000030SPEAKER ASM                   M IMCTM S5MA14 FTTL  07070IMCT  S5 PTB  00005                    0400 SR        000000000000 FUJITSU TEN (THAILAN17032NL0008008                                                                                                                              *          20170328IMF1703284.TXT
MDEDH3401369201704                D89828070200PV4D20170331000030SPEAKER ASM                   M IMCTM S0FR05 FTTL  07070IMCT  S0 PTB  00005                    2230 SR        000000000000 FUJITSU TEN (THAILAN17018MU0004004                                                                                                                              *          20170328IMF1703284.TXT
MDEDH3401370201704                D89828070200PV4D20170401000030SPEAKER ASM                   M IMCTM S0FR05 FTTL  07070IMCT  S0 PTB  00005                    1600 SR        000000000000 FUJITSU TEN (THAILAN17018MU0005005                                                                                                                              *          20170328IMF1703284.TXT
MDEDH3401371201704                D89828070300PT1D20170401000030SPEAKER ASM                   M IMCTM S5NB082FTTL  07070IMCT  S5 PTB  00015                    0400 SR        000000000000 FUJITSU TEN (THAILAN17032NL0008008                                                                                                                              *          20170328IMF1703284.TXT
MDEDH3401372201704                D89828070300PT1D20170401000030SPEAKER ASM                   M IMCTM S5NB082FTTL  07070IMCT  S5 PTB  00015                    0900 SR        000000000000 FUJITSU TEN (THAILAN17053NL0027027                                                                                                                              *          20170328IMF1703284.TXT
MDEDH3401373201704                D89828070300PT4D20170331000030SPEAKER ASM                   M IMCTM S9TS02 FTTL  07070IMCT  S9 PTB  00015                    2230 SR        000000000000 FUJITSU TEN (THAILAN17018MU0004004                                                                                                                              *          20170328IMF1703284.TXT
MDEDH3401374201704                D89828070300PT4D20170401000030SPEAKER ASM                   M IMCTM S9TS02 FTTL  07070IMCT  S9 PTB  00015                    1600 SR        000000000000 FUJITSU TEN (THAILAN17018MU0005005                                                                                                                              *          20170328IMF1703284.TXT
MDEDH3401375201704                D89829645300PT4D20170331000015RADIO;ASM DVD                 M IMCTM S9CO001FTTL  07070IMCT  S9 PTB  00003                    2230 SR        000000000000 FUJITSU TEN (THAILAN17018MU0004004                                                                                                                              *          20170328IMF1703284.TXT
MDEDH3401376201704                D89829645300PT4D20170401000015RADIO;ASM DVD                 M IMCTM S9CO001FTTL  07070IMCT  S9 PTB  00003                    1600 SR        000000000000 FUJITSU TEN (THAILAN17018MU0005005                                                                                                                              *          20170328IMF1703284.TXT
MDEDH3401377201704                D89829645700PT1D20170401000015RADIO;ASM DVD                 M IMCTM S5NC06 FTTL  07070IMCT  S5 X    00003                    0900 SR        000000000000 FUJITSU TEN (THAILAN17053NL0027027                                                                                                                              *          20170328IMF1703284.TXT
MDEUH3267619201704                D89828070100PT4U20170401000030SPEAKER ASM                   M IMCTM S0FL05 FTTL  07070IMCT  S0 PTB  00003                    0230 SR        000000000000 FUJITSU TEN (THAILAN18018TU0008008                                                                                                                              *          20170328IMF1703284.TXT
MDEUH3267620201704                D89828070100PT4U20170401000030SPEAKER ASM                   M IMCTM S0FL05 FTTL  07070IMCT  S0 PTB  00003                    0400 SR        000000000000 FUJITSU TEN (THAILAN18018TU0009009                                                                                                                              *          20170328IMF1703284.TXT
MDEUH3267621201704                D89828070100PT4U20170401000030SPEAKER ASM                   M IMCTM S0FL05 FTTL  07070IMCT  S0 PTB  00003                    0900 SR        000000000000 FUJITSU TEN (THAILAN18022TU0008008                                                                                                                              *          20170328IMF1703284.TXT
MDEUH3267622201704                D89828070100PT4U20170401000030SPEAKER ASM                   M IMCTM S0FL05 FTTL  07070IMCT  S0 PTB  00003                    1300 SR        000000000000 FUJITSU TEN (THAILAN18018TU0010010                                                                                                                              *          20170328IMF1703284.TXT
MDEUH3267623201704                D89828070100PT4U20170401000030SPEAKER ASM                   M IMCTM S0FL05 FTTL  07070IMCT  S0 PTB  00003                    2100 SR        000000000000 FUJITSU TEN (THAILAN18022TU0009009                                                                                                                              *          20170328IMF1703284.TXT
MDEUH3267624201704                D89828070200PV4U20170401000030SPEAKER ASM                   M IMCTM S0FR05 FTTL  07070IMCT  S0 PTB  00005                    0230 SR        000000000000 FUJITSU TEN (THAILAN18018TU0008008                                                                                                                              *          20170328IMF1703284.TXT
MDEUH3267625201704                D89828070200PV4U20170401000030SPEAKER ASM                   M IMCTM S0FR05 FTTL  07070IMCT  S0 PTB  00005                    0400 SR        000000000000 FUJITSU TEN (THAILAN18018TU0009009                                                                                                                              *          20170328IMF1703284.TXT
MDEUH3267626201704                D89828070200PV4U20170401000030SPEAKER ASM                   M IMCTM S0FR05 FTTL  07070IMCT  S0 PTB  00005                    0900 SR        000000000000 FUJITSU TEN (THAILAN18022TU0008008                                                                                                                              *          20170328IMF1703284.TXT
MDEUH3267627201704                D89828070200PV4U20170401000030SPEAKER ASM                   M IMCTM S0FR05 FTTL  07070IMCT  S0 PTB  00005                    1300 SR        000000000000 FUJITSU TEN (THAILAN18018TU0010010                                                                                                                              *          20170328IMF1703284.TXT
MDEUH3267628201704                D89828070200PV4U20170401000030SPEAKER ASM                   M IMCTM S0FR05 FTTL  07070IMCT  S0 PTB  00005                    2100 SR        000000000000 FUJITSU TEN (THAILAN18022TU0009009                                                                                                                              *          20170328IMF1703284.TXT
MDEUH3267629201704                D89828070300PT4U20170401000030SPEAKER ASM                   M IMCTM S9TS02 FTTL  07070IMCT  S9 PTB  00015                    0230 SR        000000000000 FUJITSU TEN (THAILAN18018TU0008008                                                                                                                              *          20170328IMF1703284.TXT
MDEUH3267630201704                D89828070300PT4U20170401000030SPEAKER ASM                   M IMCTM S9TS02 FTTL  07070IMCT  S9 PTB  00015                    0400 SR        000000000000 FUJITSU TEN (THAILAN18018TU0009009                                                                                                                              *          20170328IMF1703284.TXT
MDEUH3267631201704                D89828070300PT4U20170401000030SPEAKER ASM                   M IMCTM S9TS02 FTTL  07070IMCT  S9 PTB  00015                    0900 SR        000000000000 FUJITSU TEN (THAILAN18022TU0008008                                                                                                                              *          20170328IMF1703284.TXT
MDEUH3267632201704                D89828070300PT4U20170401000030SPEAKER ASM                   M IMCTM S9TS02 FTTL  07070IMCT  S9 PTB  00015                    1300 SR        000000000000 FUJITSU TEN (THAILAN18018TU0010010                                                                                                                              *          20170328IMF1703284.TXT
MDEUH3267633201704                D89828070300PT4U20170401000030SPEAKER ASM                   M IMCTM S9TS02 FTTL  07070IMCT  S9 PTB  00015                    2100 SR        000000000000 FUJITSU TEN (THAILAN18022TU0009009                                                                                                                              *          20170328IMF1703284.TXT
