REC2017030320170303ISUZU                              66     
MDDDH3200952201703                D89821984430PT1D20170308000030RADIO;AM/FM,CD                M IMCTM S5NC06 FTTL  07070IMCT  S5 PTB  00005                    0400 SR        000000000000 FUJITSU TEN (THAILAN170KPAL0085085                                                                                                                              *          20170303IMF1703039.TXT
MDDDH3200953201703                D89828070100PV1D20170308000060SPEAKER ASM                   M IMCTM S5MB11 FTTL  07070IMCT  S5 PTB  00004                    0400 SR        000000000000 FUJITSU TEN (THAILAN170KPAL0085085                                                                                                                              *          20170303IMF1703039.TXT
MDDUH3206675201703                D89828070100PT4U20170307000060SPEAKER ASM                   M IMCTM S0FL05 FTTL  07070IMCT  S0 PTB  00004                    2230 SR        000000000000 FUJITSU TEN (THAILAN180LUDU0051051180LUEU0021021                                                                                                                *          20170303IMF1703039.TXT
MDDUH3206676201703                D89828070100PT4U20170308000060SPEAKER ASM                   M IMCTM S0FL05 FTTL  07070IMCT  S0 PTB  00004                    0400 SR        000000000000 FUJITSU TEN (THAILAN180LUDU0052052180LUEU0022022                                                                                                                *          20170303IMF1703039.TXT
MDDUH3206677201703                D89828070100PT4U20170308000030SPEAKER ASM                   M IMCTM S0FL05 FTTL  07070IMCT  S0 PTB  00004                    0900 SR        000000000000 FUJITSU TEN (THAILAN180LUEU0023023                                                                                                                              *          20170303IMF1703039.TXT
MDDUH3206678201703                D89828070100PT4U20170308000030SPEAKER ASM                   M IMCTM S0FL05 FTTL  07070IMCT  S0 PTB  00004                    1300 SR        000000000000 FUJITSU TEN (THAILAN180LUDU0053053                                                                                                                              *          20170303IMF1703039.TXT
MDDUH3206679201703                D89828070100PT4U20170308000060SPEAKER ASM                   M IMCTM S0FL05 FTTL  07070IMCT  S0 PTB  00004                    1600 SR        000000000000 FUJITSU TEN (THAILAN180LUDU0054054180LUFU0009009                                                                                                                *          20170303IMF1703039.TXT
MDDUH3206680201703                D89828070200PV4U20170307000060SPEAKER ASM                   M IMCTM S0FR05 FTTL  07070IMCT  S0 PTB  00005                    2230 SR        000000000000 FUJITSU TEN (THAILAN180LUDU0051051180LUEU0021021                                                                                                                *          20170303IMF1703039.TXT
MDDUH3206681201703                D89828070200PV4U20170308000060SPEAKER ASM                   M IMCTM S0FR05 FTTL  07070IMCT  S0 PTB  00005                    0400 SR        000000000000 FUJITSU TEN (THAILAN180LUDU0052052180LUEU0022022                                                                                                                *          20170303IMF1703039.TXT
MDDUH3206682201703                D89828070200PV4U20170308000030SPEAKER ASM                   M IMCTM S0FR05 FTTL  07070IMCT  S0 PTB  00005                    0900 SR        000000000000 FUJITSU TEN (THAILAN180LUEU0023023                                                                                                                              *          20170303IMF1703039.TXT
MDDUH3206683201703                D89828070200PV4U20170308000030SPEAKER ASM                   M IMCTM S0FR05 FTTL  07070IMCT  S0 PTB  00005                    1300 SR        000000000000 FUJITSU TEN (THAILAN180LUDU0053053                                                                                                                              *          20170303IMF1703039.TXT
MDDUH3206684201703                D89828070200PV4U20170308000060SPEAKER ASM                   M IMCTM S0FR05 FTTL  07070IMCT  S0 PTB  00005                    1600 SR        000000000000 FUJITSU TEN (THAILAN180LUDU0054054180LUFU0009009                                                                                                                *          20170303IMF1703039.TXT
MDDUH3206685201703                D89828070300PT4U20170307000060SPEAKER ASM                   M IMCTM S9TS02 FTTL  07070IMCT  S9 PTB  00015                    2230 SR        000000000000 FUJITSU TEN (THAILAN180LUDU0051051180LUEU0021021                                                                                                                *          20170303IMF1703039.TXT
MDDUH3206686201703                D89828070300PT4U20170308000060SPEAKER ASM                   M IMCTM S9TS02 FTTL  07070IMCT  S9 PTB  00015                    0400 SR        000000000000 FUJITSU TEN (THAILAN180LUDU0052052180LUEU0022022                                                                                                                *          20170303IMF1703039.TXT
MDDUH3206687201703                D89828070300PT4U20170308000030SPEAKER ASM                   M IMCTM S9TS02 FTTL  07070IMCT  S9 PTB  00015                    0900 SR        000000000000 FUJITSU TEN (THAILAN180LUEU0023023                                                                                                                              *          20170303IMF1703039.TXT
MDDUH3206688201703                D89828070300PT4U20170308000030SPEAKER ASM                   M IMCTM S9TS02 FTTL  07070IMCT  S9 PTB  00015                    1300 SR        000000000000 FUJITSU TEN (THAILAN180LUDU0053053                                                                                                                              *          20170303IMF1703039.TXT
MDDUH3206689201703                D89828070300PT4U20170308000060SPEAKER ASM                   M IMCTM S9TS02 FTTL  07070IMCT  S9 PTB  00015                    1600 SR        000000000000 FUJITSU TEN (THAILAN180LUDU0054054180LUFU0009009                                                                                                                *          20170303IMF1703039.TXT
MDEDH3224068201703                D89827952200PT1D20170308000015RADIO;AM/FM,CD,D              M IMCTM S5NC06 FTTL  07070IMCT  S5 X    00003                    1300 SR        000000000000 FUJITSU TEN (THAILAN17056NL0007007                                                                                                                              *          20170303IMF1703039.TXT
MDEDH3224069201703                D89827952200PT1D20170308000045RADIO;AM/FM,CD,D              M IMCTM S5NC06 FTTL  07070IMCT  S5 X    00003                    1600 SR        000000000000 FUJITSU TEN (THAILAN17056NL000800917065NL0006006                                                                                                                *          20170303IMF1703039.TXT
MDEDH3224070201703                D89828070100PV1D20170307000120SPEAKER ASM                   M IMCTM S5MB11 FTTL  07070IMCT  S5 PTB  00004                    2230 SR        000000000000 FUJITSU TEN (THAILAN17013QL001201217026NL000100117064ML000400417080NL0015015                                                                                    *          20170303IMF1703039.TXT
MDEDH3224071201703                D89828070100PV1D20170308000060SPEAKER ASM                   M IMCTM S5MB11 FTTL  07070IMCT  S5 PTB  00004                    0230 SR        000000000000 FUJITSU TEN (THAILAN17012ML001101117061PL0017017                                                                                                                *          20170303IMF1703039.TXT
MDEDH3224072201703                D89828070100PV1D20170308000120SPEAKER ASM                   M IMCTM S5MB11 FTTL  07070IMCT  S5 PTB  00004                    0400 SR        000000000000 FUJITSU TEN (THAILAN17033QL0004007                                                                                                                              *          20170303IMF1703039.TXT
MDEDH3224073201703                D89828070100PV1D20170308000120SPEAKER ASM                   M IMCTM S5MB11 FTTL  07070IMCT  S5 PTB  00004                    0900 SR        000000000000 FUJITSU TEN (THAILAN17013QL001301317022ML001001017072NL000100117076NL0003003                                                                                    *          20170303IMF1703039.TXT
MDEDH3224074201703                D89828070100PV1D20170308000120SPEAKER ASM                   M IMCTM S5MB11 FTTL  07070IMCT  S5 PTB  00004                    1300 SR        000000000000 FUJITSU TEN (THAILAN17013QL001401417046TL000300417056NL0007007                                                                                                  *          20170303IMF1703039.TXT
MDEDH3224075201703                D89828070100PV1D20170308000210SPEAKER ASM                   M IMCTM S5MB11 FTTL  07070IMCT  S5 PTB  00004                    1600 SR        000000000000 FUJITSU TEN (THAILAN17013QL001501517037RL000400517056NL000800917065NL000600617080NL0016016                                                                      *          20170303IMF1703039.TXT
MDEDH3224076201703                D89828070100PV1D20170308000060SPEAKER ASM                   M IMCTM S5MB11 FTTL  07070IMCT  S5 PTB  00004                    2100 SR        000000000000 FUJITSU TEN (THAILAN17072NL000200217083ML0015015                                                                                                                *          20170303IMF1703039.TXT
MDEDH3224077201703                D89828070100PV4D20170308000030SPEAKER ASM                   M IMCTM S0FL05 FTTL  07070IMCT  S0 PTB  00004                    0230 SR        000000000000 FUJITSU TEN (THAILAN17031MU0002002                                                                                                                              *          20170303IMF1703039.TXT
MDEDH3224078201703                D89828070100PV4D20170308000030SPEAKER ASM                   M IMCTM S0FL05 FTTL  07070IMCT  S0 PTB  00004                    0900 SR        000000000000 FUJITSU TEN (THAILAN17031NU0003003                                                                                                                              *          20170303IMF1703039.TXT
MDEDH3224079201703                D89828070100PV4D20170308000030SPEAKER ASM                   M IMCTM S0FL05 FTTL  07070IMCT  S0 PTB  00004                    2100 SR        000000000000 FUJITSU TEN (THAILAN17050RU0011011                                                                                                                              *          20170303IMF1703039.TXT
MDEDH3224080201703                D89828070200PV1D20170307000090SPEAKER ASM                   M IMCTM S5MA14 FTTL  07070IMCT  S5 PTB  00005                    2230 SR        000000000000 FUJITSU TEN (THAILAN17013QL001201217026NL000100117080NL0015015                                                                                                  *          20170303IMF1703039.TXT
MDEDH3224081201703                D89828070200PV1D20170308000030SPEAKER ASM                   M IMCTM S5MA14 FTTL  07070IMCT  S5 PTB  00005                    0230 SR        000000000000 FUJITSU TEN (THAILAN17012ML0011011                                                                                                                              *          20170303IMF1703039.TXT
MDEDH3224082201703                D89828070200PV1D20170308000120SPEAKER ASM                   M IMCTM S5MA14 FTTL  07070IMCT  S5 PTB  00005                    0400 SR        000000000000 FUJITSU TEN (THAILAN17033QL0004007                                                                                                                              *          20170303IMF1703039.TXT
MDEDH3224083201703                D89828070200PV1D20170308000120SPEAKER ASM                   M IMCTM S5MA14 FTTL  07070IMCT  S5 PTB  00005                    0900 SR        000000000000 FUJITSU TEN (THAILAN17013QL001301317022ML001001017072NL000100117076NL0003003                                                                                    *          20170303IMF1703039.TXT
MDEDH3224084201703                D89828070200PV1D20170308000090SPEAKER ASM                   M IMCTM S5MA14 FTTL  07070IMCT  S5 PTB  00005                    1300 SR        000000000000 FUJITSU TEN (THAILAN17013QL001401417046TL0003004                                                                                                                *          20170303IMF1703039.TXT
MDEDH3224085201703                D89828070200PV1D20170308000120SPEAKER ASM                   M IMCTM S5MA14 FTTL  07070IMCT  S5 PTB  00005                    1600 SR        000000000000 FUJITSU TEN (THAILAN17013QL001501517037RL000400517080NL0016016                                                                                                  *          20170303IMF1703039.TXT
MDEDH3224086201703                D89828070200PV1D20170308000030SPEAKER ASM                   M IMCTM S5MA14 FTTL  07070IMCT  S5 PTB  00005                    2100 SR        000000000000 FUJITSU TEN (THAILAN17072NL0002002                                                                                                                              *          20170303IMF1703039.TXT
MDEDH3224087201703                D89828070200PV4D20170308000030SPEAKER ASM                   M IMCTM S0FR05 FTTL  07070IMCT  S0 PTB  00005                    0230 SR        000000000000 FUJITSU TEN (THAILAN17031MU0002002                                                                                                                              *          20170303IMF1703039.TXT
MDEDH3224088201703                D89828070200PV4D20170308000030SPEAKER ASM                   M IMCTM S0FR05 FTTL  07070IMCT  S0 PTB  00005                    2100 SR        000000000000 FUJITSU TEN (THAILAN17050RU0011011                                                                                                                              *          20170303IMF1703039.TXT
MDEDH3224089201703                D89828070300PT1D20170307000120SPEAKER ASM                   M IMCTM S5NB082FTTL  07070IMCT  S5 PTB  00015                    2230 SR        000000000000 FUJITSU TEN (THAILAN17013QL001201217026NL000100117064ML000400417080NL0015015                                                                                    *          20170303IMF1703039.TXT
MDEDH3224090201703                D89828070300PT1D20170308000030SPEAKER ASM                   M IMCTM S5NB082FTTL  07070IMCT  S5 PTB  00015                    0230 SR        000000000000 FUJITSU TEN (THAILAN17012ML0011011                                                                                                                              *          20170303IMF1703039.TXT
MDEDH3224091201703                D89828070300PT1D20170308000120SPEAKER ASM                   M IMCTM S5NB082FTTL  07070IMCT  S5 PTB  00015                    0400 SR        000000000000 FUJITSU TEN (THAILAN17033QL0004007                                                                                                                              *          20170303IMF1703039.TXT
MDEDH3224092201703                D89828070300PT1D20170308000120SPEAKER ASM                   M IMCTM S5NB082FTTL  07070IMCT  S5 PTB  00015                    0900 SR        000000000000 FUJITSU TEN (THAILAN17013QL001301317022ML001001017072NL000100117076NL0003003                                                                                    *          20170303IMF1703039.TXT
MDEDH3224093201703                D89828070300PT1D20170308000120SPEAKER ASM                   M IMCTM S5NB082FTTL  07070IMCT  S5 PTB  00015                    1300 SR        000000000000 FUJITSU TEN (THAILAN17013QL001401417046TL000300417056NL0007007                                                                                                  *          20170303IMF1703039.TXT
MDEDH3224094201703                D89828070300PT1D20170308000210SPEAKER ASM                   M IMCTM S5NB082FTTL  07070IMCT  S5 PTB  00015                    1600 SR        000000000000 FUJITSU TEN (THAILAN17013QL001501517037RL000400517056NL000800917065NL000600617080NL0016016                                                                      *          20170303IMF1703039.TXT
MDEDH3224095201703                D89828070300PT1D20170308000060SPEAKER ASM                   M IMCTM S5NB082FTTL  07070IMCT  S5 PTB  00015                    2100 SR        000000000000 FUJITSU TEN (THAILAN17072NL000200217083ML0015015                                                                                                                *          20170303IMF1703039.TXT
MDEDH3224096201703                D89828070300PT4D20170308000030SPEAKER ASM                   M IMCTM S9TS02 FTTL  07070IMCT  S9 PTB  00015                    0230 SR        000000000000 FUJITSU TEN (THAILAN17031MU0002002                                                                                                                              *          20170303IMF1703039.TXT
MDEDH3224097201703                D89828070300PT4D20170308000030SPEAKER ASM                   M IMCTM S9TS02 FTTL  07070IMCT  S9 PTB  00015                    2100 SR        000000000000 FUJITSU TEN (THAILAN17050RU0011011                                                                                                                              *          20170303IMF1703039.TXT
MDEDH3224098201703                D89829645400PT4D20170308000015RADIO;ASM DVD                 M IMCTM S9CO001FTTL  07070IMCT  S9 PTB  00003                    2100 SR        000000000000 FUJITSU TEN (THAILAN17050RU0011011                                                                                                                              *          20170303IMF1703039.TXT
MDEDH3224099201703                D89829645700PT1D20170308000015RADIO;ASM DVD                 M IMCTM S5NC06 FTTL  07070IMCT  S5 X    00003                    0900 SR        000000000000 FUJITSU TEN (THAILAN17072NL0001001                                                                                                                              *          20170303IMF1703039.TXT
MDEDH3224100201703                D89829645700PT1D20170308000015RADIO;ASM DVD                 M IMCTM S5NC06 FTTL  07070IMCT  S5 X    00003                    2100 SR        000000000000 FUJITSU TEN (THAILAN17072NL0002002                                                                                                                              *          20170303IMF1703039.TXT
MDEDH3224101201703                D89831228800PT1D20170308000015RADIO;AM/FM,CD                M IMCTM S5NC06 FTTL  07070IMCT  S5 PTB  00003                    0230 SR        000000000000 FUJITSU TEN (THAILAN17012ML0011011                                                                                                                              *          20170303IMF1703039.TXT
MDEDH3224102201703                D89831229000PT1D20170308000030RADIO;AM/FM,CD                M IMCTM S5NC06 FTTL  07070IMCT  S5 PTB  00003                    1600 SR        000000000000 FUJITSU TEN (THAILAN17037RL0004005                                                                                                                              *          20170303IMF1703039.TXT
MDEDH3224103201703                D89831229200PT1D20170307000015RADIO;AM/FM,CD                M IMCTM S5NC06 FTTL  07070IMCT  S5 PTB  00003                    2230 SR        000000000000 FUJITSU TEN (THAILAN17013QL0012012                                                                                                                              *          20170303IMF1703039.TXT
MDEDH3224104201703                D89831229200PT1D20170308000060RADIO;AM/FM,CD                M IMCTM S5NC06 FTTL  07070IMCT  S5 PTB  00003                    0400 SR        000000000000 FUJITSU TEN (THAILAN17033QL0004007                                                                                                                              *          20170303IMF1703039.TXT
MDEDH3224105201703                D89831229200PT1D20170308000015RADIO;AM/FM,CD                M IMCTM S5NC06 FTTL  07070IMCT  S5 PTB  00003                    0900 SR        000000000000 FUJITSU TEN (THAILAN17013QL0013013                                                                                                                              *          20170303IMF1703039.TXT
MDEDH3224106201703                D89831229200PT1D20170308000015RADIO;AM/FM,CD                M IMCTM S5NC06 FTTL  07070IMCT  S5 PTB  00003                    1300 SR        000000000000 FUJITSU TEN (THAILAN17013QL0014014                                                                                                                              *          20170303IMF1703039.TXT
MDEDH3224107201703                D89831229200PT1D20170308000015RADIO;AM/FM,CD                M IMCTM S5NC06 FTTL  07070IMCT  S5 PTB  00003                    1600 SR        000000000000 FUJITSU TEN (THAILAN17013QL0015015                                                                                                                              *          20170303IMF1703039.TXT
MDEUH3204058201703                D89828070100PT4U20170308000030SPEAKER ASM                   M IMCTM S0FL05 FTTL  07070IMCT  S0 PTB  00004                    0900 SR        000000000000 FUJITSU TEN (THAILAN170C47U0032032                                                                                                                              *          20170303IMF1703039.TXT
MDEUH3204059201703                D89828070100PT4U20170308000030SPEAKER ASM                   M IMCTM S0FL05 FTTL  07070IMCT  S0 PTB  00004                    1600 SR        000000000000 FUJITSU TEN (THAILAN170C16U0194194                                                                                                                              *          20170303IMF1703039.TXT
MDEUH3204060201703                D89828070100PT4U20170308000030SPEAKER ASM                   M IMCTM S0FL05 FTTL  07070IMCT  S0 PTB  00004                    2230 SR        000000000000 FUJITSU TEN (THAILAN170C47U0033033                                                                                                                              *          20170303IMF1703039.TXT
MDEUH3204061201703                D89828070200PV4U20170308000030SPEAKER ASM                   M IMCTM S0FR05 FTTL  07070IMCT  S0 PTB  00005                    0900 SR        000000000000 FUJITSU TEN (THAILAN170C47U0032032                                                                                                                              *          20170303IMF1703039.TXT
MDEUH3204062201703                D89828070200PV4U20170308000030SPEAKER ASM                   M IMCTM S0FR05 FTTL  07070IMCT  S0 PTB  00005                    1600 SR        000000000000 FUJITSU TEN (THAILAN170C16U0194194                                                                                                                              *          20170303IMF1703039.TXT
MDEUH3204063201703                D89828070200PV4U20170308000030SPEAKER ASM                   M IMCTM S0FR05 FTTL  07070IMCT  S0 PTB  00005                    2230 SR        000000000000 FUJITSU TEN (THAILAN170C47U0033033                                                                                                                              *          20170303IMF1703039.TXT
MDEUH3204064201703                D89828070300PT4U20170308000030SPEAKER ASM                   M IMCTM S9TS02 FTTL  07070IMCT  S9 PTB  00015                    0900 SR        000000000000 FUJITSU TEN (THAILAN170C47U0032032                                                                                                                              *          20170303IMF1703039.TXT
MDEUH3204065201703                D89828070300PT4U20170308000030SPEAKER ASM                   M IMCTM S9TS02 FTTL  07070IMCT  S9 PTB  00015                    1600 SR        000000000000 FUJITSU TEN (THAILAN170C16U0194194                                                                                                                              *          20170303IMF1703039.TXT
MDEUH3204066201703                D89828070300PT4U20170308000030SPEAKER ASM                   M IMCTM S9TS02 FTTL  07070IMCT  S9 PTB  00015                    2230 SR        000000000000 FUJITSU TEN (THAILAN170C47U0033033                                                                                                                              *          20170303IMF1703039.TXT
