REC2017030920170309ISUZU                              69     
MDDDH3204543201703                D89821984430PT1D20170314000030RADIO;AM/FM,CD                M IMCTM S5NC06 FTTL  07070IMCT  S5 PTB  00005                    1600 SR        000000000000 FUJITSU TEN (THAILAN170KNDL0077077                                                                                                                              *          20170309IMF1703099.TXT
MDDDH3204544201703                D89828070100PV1D20170313000060SPEAKER ASM                   M IMCTM S5MB11 FTTL  07070IMCT  S5 PTB  00003                    2230 SR        000000000000 FUJITSU TEN (THAILAN170KNAL0043043                                                                                                                              *          20170309IMF1703099.TXT
MDDDH3204545201703                D89828070100PV1D20170314000120SPEAKER ASM                   M IMCTM S5MB11 FTTL  07070IMCT  S5 PTB  00003                    1600 SR        000000000000 FUJITSU TEN (THAILAN170KNBL0021021170KNDL0077077                                                                                                                *          20170309IMF1703099.TXT
MDDUH3227064201703                D89828070100PT4U20170313000030SPEAKER ASM                   M IMCTM S0FL05 FTTL  07070IMCT  S0 PTB  00003                    2100 SR        000000000000 FUJITSU TEN (THAILAN180LUEU0035035                                                                                                                              *          20170309IMF1703099.TXT
MDDUH3227065201703                D89828070100PT4U20170314000030SPEAKER ASM                   M IMCTM S0FL05 FTTL  07070IMCT  S0 PTB  00003                    0400 SR        000000000000 FUJITSU TEN (THAILAN180LUEU0036036                                                                                                                              *          20170309IMF1703099.TXT
MDDUH3227066201703                D89828070100PT4U20170314000030SPEAKER ASM                   M IMCTM S0FL05 FTTL  07070IMCT  S0 PTB  00003                    1600 SR        000000000000 FUJITSU TEN (THAILAN180LUCU0015015                                                                                                                              *          20170309IMF1703099.TXT
MDDUH3227067201703                D89828070200PV4U20170313000030SPEAKER ASM                   M IMCTM S0FR05 FTTL  07070IMCT  S0 PTB  00005                    2100 SR        000000000000 FUJITSU TEN (THAILAN180LUEU0035035                                                                                                                              *          20170309IMF1703099.TXT
MDDUH3227068201703                D89828070200PV4U20170314000030SPEAKER ASM                   M IMCTM S0FR05 FTTL  07070IMCT  S0 PTB  00005                    0400 SR        000000000000 FUJITSU TEN (THAILAN180LUEU0036036                                                                                                                              *          20170309IMF1703099.TXT
MDDUH3227069201703                D89828070200PV4U20170314000030SPEAKER ASM                   M IMCTM S0FR05 FTTL  07070IMCT  S0 PTB  00005                    1600 SR        000000000000 FUJITSU TEN (THAILAN180LUCU0015015                                                                                                                              *          20170309IMF1703099.TXT
MDDUH3227070201703                D89828070300PT4U20170313000030SPEAKER ASM                   M IMCTM S9TS02 FTTL  07070IMCT  S9 PTB  00015                    2100 SR        000000000000 FUJITSU TEN (THAILAN180LUEU0035035                                                                                                                              *          20170309IMF1703099.TXT
MDDUH3227071201703                D89828070300PT4U20170314000030SPEAKER ASM                   M IMCTM S9TS02 FTTL  07070IMCT  S9 PTB  00015                    0400 SR        000000000000 FUJITSU TEN (THAILAN180LUEU0036036                                                                                                                              *          20170309IMF1703099.TXT
MDDUH3227072201703                D89828070300PT4U20170314000030SPEAKER ASM                   M IMCTM S9TS02 FTTL  07070IMCT  S9 PTB  00015                    1600 SR        000000000000 FUJITSU TEN (THAILAN180LUCU0015015                                                                                                                              *          20170309IMF1703099.TXT
MDDUH3227073201703                D89835097900PT4U20170314000015RADIO;ASM DVD                 M IMCTM S9CO001FTTL  07070IMCT  S9 PTB  00003                    1600 SR        000000000000 FUJITSU TEN (THAILAN180LUCU0015015                                                                                                                              *          20170309IMF1703099.TXT
MDEDH3280206201703                D89828070100PV1D20170313000030SPEAKER ASM                   M IMCTM S5MB11 FTTL  07070IMCT  S5 PTB  00003                    2100 SR        000000000000 FUJITSU TEN (THAILAN17032RL0002002                                                                                                                              *          20170309IMF1703099.TXT
MDEDH3280207201703                D89828070100PV1D20170313000120SPEAKER ASM                   M IMCTM S5MB11 FTTL  07070IMCT  S5 PTB  00003                    2230 SR        000000000000 FUJITSU TEN (THAILAN17060NL000900917064NL000400417072NL000400417076NL0006006                                                                                    *          20170309IMF1703099.TXT
MDEDH3280208201703                D89828070100PV1D20170314000030SPEAKER ASM                   M IMCTM S5MB11 FTTL  07070IMCT  S5 PTB  00003                    0230 SR        000000000000 FUJITSU TEN (THAILAN17080NL0020020                                                                                                                              *          20170309IMF1703099.TXT
MDEDH3280209201703                D89828070100PV1D20170314000120SPEAKER ASM                   M IMCTM S5MB11 FTTL  07070IMCT  S5 PTB  00003                    0400 SR        000000000000 FUJITSU TEN (THAILAN17006ML000400417026NL000200217053NL001301317080NL0021021                                                                                    *          20170309IMF1703099.TXT
MDEDH3280210201703                D89828070100PV1D20170314000120SPEAKER ASM                   M IMCTM S5MB11 FTTL  07070IMCT  S5 PTB  00003                    0900 SR        000000000000 FUJITSU TEN (THAILAN17026NL000300317055NL001701817075NL0007007                                                                                                  *          20170309IMF1703099.TXT
MDEDH3280211201703                D89828070100PV1D20170314000120SPEAKER ASM                   M IMCTM S5MB11 FTTL  07070IMCT  S5 PTB  00003                    1300 SR        000000000000 FUJITSU TEN (THAILAN17010ML001401417057NL000700717068NL0008009                                                                                                  *          20170309IMF1703099.TXT
MDEDH3280212201703                D89828070100PV1D20170314000090SPEAKER ASM                   M IMCTM S5MB11 FTTL  07070IMCT  S5 PTB  00003                    1600 SR        000000000000 FUJITSU TEN (THAILAN17072NL000500617079QL0010010                                                                                                                *          20170309IMF1703099.TXT
MDEDH3280213201703                D89828070100PV1D20170314000060SPEAKER ASM                   M IMCTM S5MB11 FTTL  07070IMCT  S5 PTB  00003                    2100 SR        000000000000 FUJITSU TEN (THAILAN17074NL0018019                                                                                                                              *          20170309IMF1703099.TXT
MDEDH3280214201703                D89828070100PV4D20170313000030SPEAKER ASM                   M IMCTM S0FL05 FTTL  07070IMCT  S0 PTB  00003                    2230 SR        000000000000 FUJITSU TEN (THAILAN17079NU0023023                                                                                                                              *          20170309IMF1703099.TXT
MDEDH3280215201703                D89828070100PV4D20170314000030SPEAKER ASM                   M IMCTM S0FL05 FTTL  07070IMCT  S0 PTB  00003                    1600 SR        000000000000 FUJITSU TEN (THAILAN17068MU0002002                                                                                                                              *          20170309IMF1703099.TXT
MDEDH3280216201703                D89828070100PV4D20170314000030SPEAKER ASM                   M IMCTM S0FL05 FTTL  07070IMCT  S0 PTB  00003                    2230 SR        000000000000 FUJITSU TEN (THAILAN17079NU0024024                                                                                                                              *          20170309IMF1703099.TXT
MDEDH3280217201703                D89828070200PV1D20170313000090SPEAKER ASM                   M IMCTM S5MA14 FTTL  07070IMCT  S5 PTB  00005                    2230 SR        000000000000 FUJITSU TEN (THAILAN17060NL000900917072NL000400417076NL0006006                                                                                                  *          20170309IMF1703099.TXT
MDEDH3280218201703                D89828070200PV1D20170314000030SPEAKER ASM                   M IMCTM S5MA14 FTTL  07070IMCT  S5 PTB  00005                    0230 SR        000000000000 FUJITSU TEN (THAILAN17080NL0020020                                                                                                                              *          20170309IMF1703099.TXT
MDEDH3280219201703                D89828070200PV1D20170314000060SPEAKER ASM                   M IMCTM S5MA14 FTTL  07070IMCT  S5 PTB  00005                    0400 SR        000000000000 FUJITSU TEN (THAILAN17026NL000200217080NL0021021                                                                                                                *          20170309IMF1703099.TXT
MDEDH3280220201703                D89828070200PV1D20170314000060SPEAKER ASM                   M IMCTM S5MA14 FTTL  07070IMCT  S5 PTB  00005                    0900 SR        000000000000 FUJITSU TEN (THAILAN17026NL000300317075NL0007007                                                                                                                *          20170309IMF1703099.TXT
MDEDH3280221201703                D89828070200PV1D20170314000030SPEAKER ASM                   M IMCTM S5MA14 FTTL  07070IMCT  S5 PTB  00005                    1300 SR        000000000000 FUJITSU TEN (THAILAN17057NL0007007                                                                                                                              *          20170309IMF1703099.TXT
MDEDH3280222201703                D89828070200PV1D20170314000060SPEAKER ASM                   M IMCTM S5MA14 FTTL  07070IMCT  S5 PTB  00005                    1600 SR        000000000000 FUJITSU TEN (THAILAN17072NL0005006                                                                                                                              *          20170309IMF1703099.TXT
MDEDH3280223201703                D89828070200PV1D20170314000060SPEAKER ASM                   M IMCTM S5MA14 FTTL  07070IMCT  S5 PTB  00005                    2100 SR        000000000000 FUJITSU TEN (THAILAN17074NL0018019                                                                                                                              *          20170309IMF1703099.TXT
MDEDH3280224201703                D89828070200PV4D20170313000030SPEAKER ASM                   M IMCTM S0FR05 FTTL  07070IMCT  S0 PTB  00005                    2230 SR        000000000000 FUJITSU TEN (THAILAN17079NU0023023                                                                                                                              *          20170309IMF1703099.TXT
MDEDH3280225201703                D89828070200PV4D20170314000030SPEAKER ASM                   M IMCTM S0FR05 FTTL  07070IMCT  S0 PTB  00005                    2230 SR        000000000000 FUJITSU TEN (THAILAN17079NU0024024                                                                                                                              *          20170309IMF1703099.TXT
MDEDH3280226201703                D89828070300PT1D20170313000030SPEAKER ASM                   M IMCTM S5NB082FTTL  07070IMCT  S5 PTB  00015                    2100 SR        000000000000 FUJITSU TEN (THAILAN17032RL0002002                                                                                                                              *          20170309IMF1703099.TXT
MDEDH3280227201703                D89828070300PT1D20170313000120SPEAKER ASM                   M IMCTM S5NB082FTTL  07070IMCT  S5 PTB  00015                    2230 SR        000000000000 FUJITSU TEN (THAILAN17060NL000900917064NL000400417072NL000400417076NL0006006                                                                                    *          20170309IMF1703099.TXT
MDEDH3280228201703                D89828070300PT1D20170314000030SPEAKER ASM                   M IMCTM S5NB082FTTL  07070IMCT  S5 PTB  00015                    0230 SR        000000000000 FUJITSU TEN (THAILAN17080NL0020020                                                                                                                              *          20170309IMF1703099.TXT
MDEDH3280229201703                D89828070300PT1D20170314000090SPEAKER ASM                   M IMCTM S5NB082FTTL  07070IMCT  S5 PTB  00015                    0400 SR        000000000000 FUJITSU TEN (THAILAN17026NL000200217053NL001301317080NL0021021                                                                                                  *          20170309IMF1703099.TXT
MDEDH3280230201703                D89828070300PT1D20170314000120SPEAKER ASM                   M IMCTM S5NB082FTTL  07070IMCT  S5 PTB  00015                    0900 SR        000000000000 FUJITSU TEN (THAILAN17026NL000300317055NL001701817075NL0007007                                                                                                  *          20170309IMF1703099.TXT
MDEDH3280231201703                D89828070300PT1D20170314000090SPEAKER ASM                   M IMCTM S5NB082FTTL  07070IMCT  S5 PTB  00015                    1300 SR        000000000000 FUJITSU TEN (THAILAN17057NL000700717068NL0008009                                                                                                                *          20170309IMF1703099.TXT
MDEDH3280232201703                D89828070300PT1D20170314000060SPEAKER ASM                   M IMCTM S5NB082FTTL  07070IMCT  S5 PTB  00015                    1600 SR        000000000000 FUJITSU TEN (THAILAN17072NL0005006                                                                                                                              *          20170309IMF1703099.TXT
MDEDH3280233201703                D89828070300PT1D20170314000060SPEAKER ASM                   M IMCTM S5NB082FTTL  07070IMCT  S5 PTB  00015                    2100 SR        000000000000 FUJITSU TEN (THAILAN17074NL0018019                                                                                                                              *          20170309IMF1703099.TXT
MDEDH3280234201703                D89828070300PT4D20170313000030SPEAKER ASM                   M IMCTM S9TS02 FTTL  07070IMCT  S9 PTB  00015                    2230 SR        000000000000 FUJITSU TEN (THAILAN17079NU0023023                                                                                                                              *          20170309IMF1703099.TXT
MDEDH3280235201703                D89828070300PT4D20170314000030SPEAKER ASM                   M IMCTM S9TS02 FTTL  07070IMCT  S9 PTB  00015                    1600 SR        000000000000 FUJITSU TEN (THAILAN17068MU0002002                                                                                                                              *          20170309IMF1703099.TXT
MDEDH3280236201703                D89828070300PT4D20170314000030SPEAKER ASM                   M IMCTM S9TS02 FTTL  07070IMCT  S9 PTB  00015                    2230 SR        000000000000 FUJITSU TEN (THAILAN17079NU0024024                                                                                                                              *          20170309IMF1703099.TXT
MDEDH3280237201703                D89829622400PT4D20170314000015RADIO;ASM DVD                 M IMCTM S9CO001FTTL  07070IMCT  S9 PTB  00003                    1600 SR        000000000000 FUJITSU TEN (THAILAN17068MU0002002                                                                                                                              *          20170309IMF1703099.TXT
MDEDH3280238201703                D89829645700PT1D20170313000030RADIO;ASM DVD                 M IMCTM S5NC06 FTTL  07070IMCT  S5 X    00003                    2230 SR        000000000000 FUJITSU TEN (THAILAN17064NL000400417072NL0004004                                                                                                                *          20170309IMF1703099.TXT
MDEDH3280239201703                D89829645700PT1D20170314000015RADIO;ASM DVD                 M IMCTM S5NC06 FTTL  07070IMCT  S5 X    00003                    0400 SR        000000000000 FUJITSU TEN (THAILAN17053NL0013013                                                                                                                              *          20170309IMF1703099.TXT
MDEDH3280240201703                D89829645700PT1D20170314000045RADIO;ASM DVD                 M IMCTM S5NC06 FTTL  07070IMCT  S5 X    00003                    0900 SR        000000000000 FUJITSU TEN (THAILAN17055NL001701817075NL0007007                                                                                                                *          20170309IMF1703099.TXT
MDEDH3280241201703                D89829645700PT1D20170314000015RADIO;ASM DVD                 M IMCTM S5NC06 FTTL  07070IMCT  S5 X    00003                    1300 SR        000000000000 FUJITSU TEN (THAILAN17057NL0007007                                                                                                                              *          20170309IMF1703099.TXT
MDEDH3280242201703                D89829645700PT1D20170314000030RADIO;ASM DVD                 M IMCTM S5NC06 FTTL  07070IMCT  S5 X    00003                    1600 SR        000000000000 FUJITSU TEN (THAILAN17072NL0005006                                                                                                                              *          20170309IMF1703099.TXT
MDEDH3280243201703                D89829645700PT1D20170314000030RADIO;ASM DVD                 M IMCTM S5NC06 FTTL  07070IMCT  S5 X    00003                    2100 SR        000000000000 FUJITSU TEN (THAILAN17074NL0018019                                                                                                                              *          20170309IMF1703099.TXT
MDEDH3280244201703                D89829645700PT4D20170313000015RADIO;ASM DVD                 M IMCTM S9CO001FTTL  07070IMCT  S9 X    00003                    2230 SR        000000000000 FUJITSU TEN (THAILAN17079NU0023023                                                                                                                              *          20170309IMF1703099.TXT
MDEDH3280245201703                D89829645700PT4D20170314000015RADIO;ASM DVD                 M IMCTM S9CO001FTTL  07070IMCT  S9 X    00003                    2230 SR        000000000000 FUJITSU TEN (THAILAN17079NU0024024                                                                                                                              *          20170309IMF1703099.TXT
MDEDH3280246201703                D89831228900PT1D20170313000015RADIO;AM/FM,CD                M IMCTM S5NC06 FTTL  07070IMCT  S5 PTB  00003                    2100 SR        000000000000 FUJITSU TEN (THAILAN17032RL0002002                                                                                                                              *          20170309IMF1703099.TXT
MDEUH3214941201703                D89828070100PT4U20170313000030SPEAKER ASM                   M IMCTM S0FL05 FTTL  07070IMCT  S0 PTB  00003                    2230 SR        000000000000 FUJITSU TEN (THAILAN18017TU0001001                                                                                                                              *          20170309IMF1703099.TXT
MDEUH3214942201703                D89828070100PT4U20170314000030SPEAKER ASM                   M IMCTM S0FL05 FTTL  07070IMCT  S0 PTB  00003                    0230 SR        000000000000 FUJITSU TEN (THAILAN18023TU0003003                                                                                                                              *          20170309IMF1703099.TXT
MDEUH3214943201703                D89828070100PT4U20170314000060SPEAKER ASM                   M IMCTM S0FL05 FTTL  07070IMCT  S0 PTB  00003                    0900 SR        000000000000 FUJITSU TEN (THAILAN170C16U019819818023TU0004004                                                                                                                *          20170309IMF1703099.TXT
MDEUH3214944201703                D89828070100PT4U20170314000060SPEAKER ASM                   M IMCTM S0FL05 FTTL  07070IMCT  S0 PTB  00003                    1300 SR        000000000000 FUJITSU TEN (THAILAN18018TU000200218022TU0002002                                                                                                                *          20170309IMF1703099.TXT
MDEUH3214945201703                D89828070100PT4U20170314000030SPEAKER ASM                   M IMCTM S0FL05 FTTL  07070IMCT  S0 PTB  00003                    1600 SR        000000000000 FUJITSU TEN (THAILAN18018TU0003003                                                                                                                              *          20170309IMF1703099.TXT
MDEUH3214946201703                D89828070200PV4U20170313000030SPEAKER ASM                   M IMCTM S0FR05 FTTL  07070IMCT  S0 PTB  00005                    2230 SR        000000000000 FUJITSU TEN (THAILAN18017TU0001001                                                                                                                              *          20170309IMF1703099.TXT
MDEUH3214947201703                D89828070200PV4U20170314000030SPEAKER ASM                   M IMCTM S0FR05 FTTL  07070IMCT  S0 PTB  00005                    0230 SR        000000000000 FUJITSU TEN (THAILAN18023TU0003003                                                                                                                              *          20170309IMF1703099.TXT
MDEUH3214948201703                D89828070200PV4U20170314000060SPEAKER ASM                   M IMCTM S0FR05 FTTL  07070IMCT  S0 PTB  00005                    0900 SR        000000000000 FUJITSU TEN (THAILAN170C16U019819818023TU0004004                                                                                                                *          20170309IMF1703099.TXT
MDEUH3214949201703                D89828070200PV4U20170314000060SPEAKER ASM                   M IMCTM S0FR05 FTTL  07070IMCT  S0 PTB  00005                    1300 SR        000000000000 FUJITSU TEN (THAILAN18018TU000200218022TU0002002                                                                                                                *          20170309IMF1703099.TXT
MDEUH3214950201703                D89828070200PV4U20170314000030SPEAKER ASM                   M IMCTM S0FR05 FTTL  07070IMCT  S0 PTB  00005                    1600 SR        000000000000 FUJITSU TEN (THAILAN18018TU0003003                                                                                                                              *          20170309IMF1703099.TXT
MDEUH3214951201703                D89828070300PT4U20170313000030SPEAKER ASM                   M IMCTM S9TS02 FTTL  07070IMCT  S9 PTB  00015                    2230 SR        000000000000 FUJITSU TEN (THAILAN18017TU0001001                                                                                                                              *          20170309IMF1703099.TXT
MDEUH3214952201703                D89828070300PT4U20170314000030SPEAKER ASM                   M IMCTM S9TS02 FTTL  07070IMCT  S9 PTB  00015                    0230 SR        000000000000 FUJITSU TEN (THAILAN18023TU0003003                                                                                                                              *          20170309IMF1703099.TXT
MDEUH3214953201703                D89828070300PT4U20170314000060SPEAKER ASM                   M IMCTM S9TS02 FTTL  07070IMCT  S9 PTB  00015                    0900 SR        000000000000 FUJITSU TEN (THAILAN170C16U019819818023TU0004004                                                                                                                *          20170309IMF1703099.TXT
MDEUH3214954201703                D89828070300PT4U20170314000060SPEAKER ASM                   M IMCTM S9TS02 FTTL  07070IMCT  S9 PTB  00015                    1300 SR        000000000000 FUJITSU TEN (THAILAN18018TU000200218022TU0002002                                                                                                                *          20170309IMF1703099.TXT
MDEUH3214955201703                D89828070300PT4U20170314000030SPEAKER ASM                   M IMCTM S9TS02 FTTL  07070IMCT  S9 PTB  00015                    1600 SR        000000000000 FUJITSU TEN (THAILAN18018TU0003003                                                                                                                              *          20170309IMF1703099.TXT
