REC2017032220170322ISUZU                              3      
MADUH3601544201705                 89828070100PT4U20170417000002SPEAKER ASM                   M IMCTM ST00000FTTL  07070IMCT  ST PTB  00003  DC                0000 SR        000000000000 FUJITSU TEN (THAILAN180L5CU0005005                                                                                                                              *P         20170322IMF1703221.TXT
MADUH3601545201705                 89828070200PV4U20170417000002SPEAKER ASM                   M IMCTM ST00000FTTL  07070IMCT  ST PTB  00005  DC                0000 SR        000000000000 FUJITSU TEN (THAILAN180L5CU0005005                                                                                                                              *P         20170322IMF1703221.TXT
MADUH3601546201705                 89828070300PT4U20170417000002SPEAKER ASM                   M IMCTM ST00000FTTL  07070IMCT  ST PTB  00015  DC                0000 SR        000000000000 FUJITSU TEN (THAILAN180L5CU0005005                                                                                                                              *P         20170322IMF1703221.TXT
