REC2017031320170313ISUZU                              6      
MDEFH3T12913201703                D89828070100PV4F20170317000030SPEAKER ASM                   M IMCTM S7FL05 FTTL  07070IMCT  S7 PTB  00003                    1300 SR        000000000000 FUJITSU TEN (THAILAN17040MR0001   17053RR0005   C170304801    C170304815    000000                                                                              *R         20170313RDF1703134.TXT
MDEFH3T12914201703                D89828070300PT4F20170316000012SPEAKER ASM                   M IMCTM S7TS02 FTTL  07070IMCT  S7 PTB  00015                    2100 SR        000000000000 FUJITSU TEN (THAILAN17060MR0022   17067MR0020   F170304608    F170304613    000000                                                                              *R         20170313RDF1703134.TXT
MDEFH3T12915201703                D89829622400PT4F20170316000006RADIO;ASM DVD                 M IMCTM S7TS03 FTTL  07070IMCT  S7 PTB  00003                    2100 SR        000000000000 FUJITSU TEN (THAILAN17060MR0022   17067MR0020   F170304608    F170304613    000000                                                                              *R         20170313RDF1703134.TXT
MDEFH3245359201703                D89828070100PV4F20170316000006SPEAKER ASM                   M IMCTM S7FL05 FTTL  07070IMCT  S7 PTB  00003                    1600 SR        000000000000 FUJITSU TEN (THAILAN17054MR0006   17054MR0008   F170304601    F170304603    000000                                                                              *R         20170313RDF1703134.TXT
MDEFH3245360201703                D89828070100PV4F20170316000024SPEAKER ASM                   M IMCTM S7FL05 FTTL  07070IMCT  S7 PTB  00003                    2100 SR        000000000000 FUJITSU TEN (THAILAN17054MR0009   17055MR0021   F170304604    F170304615    000000                                                                              *R         20170313RDF1703134.TXT
MDEFH3245361201703                D89828070100PV4F20170317000030SPEAKER ASM                   M IMCTM S7FL05 FTTL  07070IMCT  S7 PTB  00003                    0400 SR        000000000000 FUJITSU TEN (THAILAN17001MR0001   17085LR0029   R170304701    R170304715    000000                                                                              *R         20170313RDF1703134.TXT
