REC2017033120170331ISUZU                              51     
MDDDH3250173201704                D89821984430PT1D20170405000030RADIO;AM/FM,CD                M IMCTM S5NC06 FTTL  07070IMCT  S5 PTB  00005                    0400 SR        000000000000 FUJITSU TEN (THAILAN170KNDL0090090                                                                                                                              *          20170331IMF1703313.TXT
MDDDH3250174201704                D89821984430PT1D20170405000030RADIO;AM/FM,CD                M IMCTM S5NC06 FTTL  07070IMCT  S5 PTB  00005                    1300 SR        000000000000 FUJITSU TEN (THAILAN170KRAL0041041                                                                                                                              *          20170331IMF1703313.TXT
MDDDH3250175201704                D89821984430PT1D20170405000030RADIO;AM/FM,CD                M IMCTM S5NC06 FTTL  07070IMCT  S5 PTB  00005                    1600 SR        000000000000 FUJITSU TEN (THAILAN170KNEL0074074                                                                                                                              *          20170331IMF1703313.TXT
MDDDH3250176201704                D89828070100PV1D20170404000060SPEAKER ASM                   M IMCTM S5MB11 FTTL  07070IMCT  S5 PTB  00003                    2230 SR        000000000000 FUJITSU TEN (THAILAN170KRJL0031031                                                                                                                              *          20170331IMF1703313.TXT
MDDDH3250177201704                D89828070100PV1D20170405000060SPEAKER ASM                   M IMCTM S5MB11 FTTL  07070IMCT  S5 PTB  00003                    0400 SR        000000000000 FUJITSU TEN (THAILAN170KNDL0090090                                                                                                                              *          20170331IMF1703313.TXT
MDDDH3250178201704                D89828070100PV1D20170405000060SPEAKER ASM                   M IMCTM S5MB11 FTTL  07070IMCT  S5 PTB  00003                    0900 SR        000000000000 FUJITSU TEN (THAILAN170KNBL0028028                                                                                                                              *          20170331IMF1703313.TXT
MDDDH3250179201704                D89828070100PV1D20170405000060SPEAKER ASM                   M IMCTM S5MB11 FTTL  07070IMCT  S5 PTB  00003                    1300 SR        000000000000 FUJITSU TEN (THAILAN170KRAL0041041                                                                                                                              *          20170331IMF1703313.TXT
MDDDH3250180201704                D89828070100PV1D20170405000120SPEAKER ASM                   M IMCTM S5MB11 FTTL  07070IMCT  S5 PTB  00003                    1600 SR        000000000000 FUJITSU TEN (THAILAN170KNEL0074074170KRRL0018018                                                                                                                *          20170331IMF1703313.TXT
MDDDH3250181201704                D89828070200PV1D20170404000060SPEAKER ASM                   M IMCTM S5MA14 FTTL  07070IMCT  S5 PTB  00005                    2230 SR        000000000000 FUJITSU TEN (THAILAN170KRJL0031031                                                                                                                              *          20170331IMF1703313.TXT
MDDDH3250182201704                D89828070200PV1D20170405000060SPEAKER ASM                   M IMCTM S5MA14 FTTL  07070IMCT  S5 PTB  00005                    1600 SR        000000000000 FUJITSU TEN (THAILAN170KRRL0018018                                                                                                                              *          20170331IMF1703313.TXT
MDDDH3250183201704                D89828070300PT1D20170404000060SPEAKER ASM                   M IMCTM S5NB082FTTL  07070IMCT  S5 PTB  00015                    2230 SR        000000000000 FUJITSU TEN (THAILAN170KRJL0031031                                                                                                                              *          20170331IMF1703313.TXT
MDDDH3250184201704                D89828070300PT1D20170405000060SPEAKER ASM                   M IMCTM S5NB082FTTL  07070IMCT  S5 PTB  00015                    1600 SR        000000000000 FUJITSU TEN (THAILAN170KRRL0018018                                                                                                                              *          20170331IMF1703313.TXT
MDDUH3269436201704                D89828070100PT4U20170404000030SPEAKER ASM                   M IMCTM S0FL05 FTTL  07070IMCT  S0 PTB  00003                    2230 SR        000000000000 FUJITSU TEN (THAILAN180LUDU0086086                                                                                                                              *          20170331IMF1703313.TXT
MDDUH3269437201704                D89828070100PT4U20170405000060SPEAKER ASM                   M IMCTM S0FL05 FTTL  07070IMCT  S0 PTB  00003                    0900 SR        000000000000 FUJITSU TEN (THAILAN180LUDU0087087180LUFU0013013                                                                                                                *          20170331IMF1703313.TXT
MDDUH3269438201704                D89828070100PT4U20170405000030SPEAKER ASM                   M IMCTM S0FL05 FTTL  07070IMCT  S0 PTB  00003                    1300 SR        000000000000 FUJITSU TEN (THAILAN180LUEU0049049                                                                                                                              *          20170331IMF1703313.TXT
MDDUH3269439201704                D89828070100PT4U20170405000060SPEAKER ASM                   M IMCTM S0FL05 FTTL  07070IMCT  S0 PTB  00003                    1600 SR        000000000000 FUJITSU TEN (THAILAN180LUDU0088089                                                                                                                              *          20170331IMF1703313.TXT
MDDUH3269440201704                D89828070200PV4U20170404000030SPEAKER ASM                   M IMCTM S0FR05 FTTL  07070IMCT  S0 PTB  00005                    2230 SR        000000000000 FUJITSU TEN (THAILAN180LUDU0086086                                                                                                                              *          20170331IMF1703313.TXT
MDDUH3269441201704                D89828070200PV4U20170405000060SPEAKER ASM                   M IMCTM S0FR05 FTTL  07070IMCT  S0 PTB  00005                    0900 SR        000000000000 FUJITSU TEN (THAILAN180LUDU0087087180LUFU0013013                                                                                                                *          20170331IMF1703313.TXT
MDDUH3269442201704                D89828070200PV4U20170405000030SPEAKER ASM                   M IMCTM S0FR05 FTTL  07070IMCT  S0 PTB  00005                    1300 SR        000000000000 FUJITSU TEN (THAILAN180LUEU0049049                                                                                                                              *          20170331IMF1703313.TXT
MDDUH3269443201704                D89828070200PV4U20170405000060SPEAKER ASM                   M IMCTM S0FR05 FTTL  07070IMCT  S0 PTB  00005                    1600 SR        000000000000 FUJITSU TEN (THAILAN180LUDU0088089                                                                                                                              *          20170331IMF1703313.TXT
MDDUH3269444201704                D89828070300PT4U20170404000030SPEAKER ASM                   M IMCTM S9TS02 FTTL  07070IMCT  S9 PTB  00015                    2230 SR        000000000000 FUJITSU TEN (THAILAN180LUDU0086086                                                                                                                              *          20170331IMF1703313.TXT
MDDUH3269445201704                D89828070300PT4U20170405000060SPEAKER ASM                   M IMCTM S9TS02 FTTL  07070IMCT  S9 PTB  00015                    0900 SR        000000000000 FUJITSU TEN (THAILAN180LUDU0087087180LUFU0013013                                                                                                                *          20170331IMF1703313.TXT
MDDUH3269446201704                D89828070300PT4U20170405000030SPEAKER ASM                   M IMCTM S9TS02 FTTL  07070IMCT  S9 PTB  00015                    1300 SR        000000000000 FUJITSU TEN (THAILAN180LUEU0049049                                                                                                                              *          20170331IMF1703313.TXT
MDDUH3269447201704                D89828070300PT4U20170405000060SPEAKER ASM                   M IMCTM S9TS02 FTTL  07070IMCT  S9 PTB  00015                    1600 SR        000000000000 FUJITSU TEN (THAILAN180LUDU0088089                                                                                                                              *          20170331IMF1703313.TXT
MDEDH3418509201704                D89805293700PV1D20170404000030SPEAKER ASM                   M IMCTM S5MB11 FTTL  07070IMCT  S5 PTB  00003                    2230 SR        000000000000 FUJITSU TEN (THAILAN15019FL0174174                                                                                                                              *          20170331IMF1703313.TXT
MDEDH3418510201704                D89805293700PV1D20170405000030SPEAKER ASM                   M IMCTM S5MB11 FTTL  07070IMCT  S5 PTB  00003                    0900 SR        000000000000 FUJITSU TEN (THAILAN15018FL0109109                                                                                                                              *          20170331IMF1703313.TXT
MDEDH3418511201704                D89827952200PT1D20170405000015RADIO;AM/FM,CD,D              M IMCTM S5NC06 FTTL  07070IMCT  S5 X    00003                    0400 SR        000000000000 FUJITSU TEN (THAILAN17065NL0009009                                                                                                                              *          20170331IMF1703313.TXT
MDEDH3418512201704                D89828070100PV1D20170404000030SPEAKER ASM                   M IMCTM S5MB11 FTTL  07070IMCT  S5 PTB  00003                    2230 SR        000000000000 FUJITSU TEN (THAILAN17070NL0006006                                                                                                                              *          20170331IMF1703313.TXT
MDEDH3418513201704                D89828070100PV1D20170405000060SPEAKER ASM                   M IMCTM S5MB11 FTTL  07070IMCT  S5 PTB  00003                    0230 SR        000000000000 FUJITSU TEN (THAILAN17041PL0015016                                                                                                                              *          20170331IMF1703313.TXT
MDEDH3418514201704                D89828070100PV1D20170405000090SPEAKER ASM                   M IMCTM S5MB11 FTTL  07070IMCT  S5 PTB  00003                    0400 SR        000000000000 FUJITSU TEN (THAILAN17029NL000600717065NL0009009                                                                                                                *          20170331IMF1703313.TXT
MDEDH3418515201704                D89828070100PV1D20170405000060SPEAKER ASM                   M IMCTM S5MB11 FTTL  07070IMCT  S5 PTB  00003                    0900 SR        000000000000 FUJITSU TEN (THAILAN17041PL0017018                                                                                                                              *          20170331IMF1703313.TXT
MDEDH3418516201704                D89828070100PV1D20170405000060SPEAKER ASM                   M IMCTM S5MB11 FTTL  07070IMCT  S5 PTB  00003                    1300 SR        000000000000 FUJITSU TEN (THAILAN17041PL0019020                                                                                                                              *          20170331IMF1703313.TXT
MDEDH3418517201704                D89828070100PV1D20170405000060SPEAKER ASM                   M IMCTM S5MB11 FTTL  07070IMCT  S5 PTB  00003                    1600 SR        000000000000 FUJITSU TEN (THAILAN17064NL0009010                                                                                                                              *          20170331IMF1703313.TXT
MDEDH3418518201704                D89828070200PV1D20170404000030SPEAKER ASM                   M IMCTM S5MA14 FTTL  07070IMCT  S5 PTB  00005                    2230 SR        000000000000 FUJITSU TEN (THAILAN17070NL0006006                                                                                                                              *          20170331IMF1703313.TXT
MDEDH3418519201704                D89828070300PT1D20170404000030SPEAKER ASM                   M IMCTM S5NB082FTTL  07070IMCT  S5 PTB  00015                    2230 SR        000000000000 FUJITSU TEN (THAILAN17070NL0006006                                                                                                                              *          20170331IMF1703313.TXT
MDEDH3418520201704                D89828070300PT1D20170405000090SPEAKER ASM                   M IMCTM S5NB082FTTL  07070IMCT  S5 PTB  00015                    0400 SR        000000000000 FUJITSU TEN (THAILAN17029NL000600717065NL0009009                                                                                                                *          20170331IMF1703313.TXT
MDEDH3418521201704                D89828070300PT1D20170405000060SPEAKER ASM                   M IMCTM S5NB082FTTL  07070IMCT  S5 PTB  00015                    1600 SR        000000000000 FUJITSU TEN (THAILAN17064NL0009010                                                                                                                              *          20170331IMF1703313.TXT
MDEDH3418522201704                D89829645700PT1D20170404000015RADIO;ASM DVD                 M IMCTM S5NC06 FTTL  07070IMCT  S5 X    00003                    2230 SR        000000000000 FUJITSU TEN (THAILAN17070NL0006006                                                                                                                              *          20170331IMF1703313.TXT
MDEDH3418523201704                D89829645700PT1D20170405000030RADIO;ASM DVD                 M IMCTM S5NC06 FTTL  07070IMCT  S5 X    00003                    1600 SR        000000000000 FUJITSU TEN (THAILAN17064NL0009010                                                                                                                              *          20170331IMF1703313.TXT
MDEUH3277352201704                D89828070100PT4U20170405000030SPEAKER ASM                   M IMCTM S0FL05 FTTL  07070IMCT  S0 PTB  00003                    0230 SR        000000000000 FUJITSU TEN (THAILAN18018TU0012012                                                                                                                              *          20170331IMF1703313.TXT
MDEUH3277353201704                D89828070100PT4U20170405000060SPEAKER ASM                   M IMCTM S0FL05 FTTL  07070IMCT  S0 PTB  00003                    0400 SR        000000000000 FUJITSU TEN (THAILAN160B95U004504518024TU0007007                                                                                                                *          20170331IMF1703313.TXT
MDEUH3277354201704                D89828070100PT4U20170405000030SPEAKER ASM                   M IMCTM S0FL05 FTTL  07070IMCT  S0 PTB  00003                    0900 SR        000000000000 FUJITSU TEN (THAILAN18018TU0013013                                                                                                                              *          20170331IMF1703313.TXT
MDEUH3277355201704                D89828070100PT4U20170405000030SPEAKER ASM                   M IMCTM S0FL05 FTTL  07070IMCT  S0 PTB  00003                    1300 SR        000000000000 FUJITSU TEN (THAILAN18024TU0008008                                                                                                                              *          20170331IMF1703313.TXT
MDEUH3277356201704                D89828070200PV4U20170405000030SPEAKER ASM                   M IMCTM S0FR05 FTTL  07070IMCT  S0 PTB  00005                    0230 SR        000000000000 FUJITSU TEN (THAILAN18018TU0012012                                                                                                                              *          20170331IMF1703313.TXT
MDEUH3277357201704                D89828070200PV4U20170405000060SPEAKER ASM                   M IMCTM S0FR05 FTTL  07070IMCT  S0 PTB  00005                    0400 SR        000000000000 FUJITSU TEN (THAILAN160B95U004504518024TU0007007                                                                                                                *          20170331IMF1703313.TXT
MDEUH3277358201704                D89828070200PV4U20170405000030SPEAKER ASM                   M IMCTM S0FR05 FTTL  07070IMCT  S0 PTB  00005                    0900 SR        000000000000 FUJITSU TEN (THAILAN18018TU0013013                                                                                                                              *          20170331IMF1703313.TXT
MDEUH3277359201704                D89828070200PV4U20170405000030SPEAKER ASM                   M IMCTM S0FR05 FTTL  07070IMCT  S0 PTB  00005                    1300 SR        000000000000 FUJITSU TEN (THAILAN18024TU0008008                                                                                                                              *          20170331IMF1703313.TXT
MDEUH3277360201704                D89828070300PT4U20170405000030SPEAKER ASM                   M IMCTM S9TS02 FTTL  07070IMCT  S9 PTB  00015                    0230 SR        000000000000 FUJITSU TEN (THAILAN18018TU0012012                                                                                                                              *          20170331IMF1703313.TXT
MDEUH3277361201704                D89828070300PT4U20170405000060SPEAKER ASM                   M IMCTM S9TS02 FTTL  07070IMCT  S9 PTB  00015                    0400 SR        000000000000 FUJITSU TEN (THAILAN160B95U004504518024TU0007007                                                                                                                *          20170331IMF1703313.TXT
MDEUH3277362201704                D89828070300PT4U20170405000030SPEAKER ASM                   M IMCTM S9TS02 FTTL  07070IMCT  S9 PTB  00015                    0900 SR        000000000000 FUJITSU TEN (THAILAN18018TU0013013                                                                                                                              *          20170331IMF1703313.TXT
MDEUH3277363201704                D89828070300PT4U20170405000030SPEAKER ASM                   M IMCTM S9TS02 FTTL  07070IMCT  S9 PTB  00015                    1300 SR        000000000000 FUJITSU TEN (THAILAN18024TU0008008                                                                                                                              *          20170331IMF1703313.TXT
