REC2017030120170302ISUZU                              7      
MADUH3600281201706                 89828070100PT4U20170508000002SPEAKER ASM                   M IMCTM ST00000FTTL  07070IMCT  ST PTB  00004  DC                0000 SR        000000000000 FUJITSU TEN (THAILAN180L5GU0001001                                                                                                                              *P         20170301IMF1703016.TXT
MADUH3600282201706                 89828070200PV4U20170508000002SPEAKER ASM                   M IMCTM ST00000FTTL  07070IMCT  ST PTB  00005  DC                0000 SR        000000000000 FUJITSU TEN (THAILAN180L5GU0001001                                                                                                                              *P         20170301IMF1703016.TXT
MADUH3600283201706                 89828070300PT4U20170508000002SPEAKER ASM                   M IMCTM ST00000FTTL  07070IMCT  ST PTB  00015  DC                0000 SR        000000000000 FUJITSU TEN (THAILAN180L5GU0001001                                                                                                                              *P         20170301IMF1703016.TXT
MAEUH3600280201706                 89828070100PT4U20170508000002SPEAKER ASM                   M IMCTM ST00000FTTL  07070IMCT  ST PTB  00004  DC                0000 SR        000000000000 FUJITSU TEN (THAILAN18066TU0001001                                                                                                                              *P         20170301IMF1703016.TXT
MAEUH3600281201706                 89828070200PV4U20170508000002SPEAKER ASM                   M IMCTM ST00000FTTL  07070IMCT  ST PTB  00005  DC                0000 SR        000000000000 FUJITSU TEN (THAILAN18066TU0001001                                                                                                                              *P         20170301IMF1703016.TXT
MAEUH3600282201706                 89828070300PT4U20170508000002SPEAKER ASM                   M IMCTM ST00000FTTL  07070IMCT  ST PTB  00015  DC                0000 SR        000000000000 FUJITSU TEN (THAILAN18066TU0001001                                                                                                                              *P         20170301IMF1703016.TXT
MAEUH3600283201706                 89835098100PT4U20170508000001RADIO;ASM DVD                 M IMCTM ST00000FTTL  07070IMCT  ST*X    00003  DC                0000 SR        000000000000 FUJITSU TEN (THAILAN18066TU0001001                                                                                                                              *P         20170301IMF1703016.TXT
