REC2017032420170324ISUZU                              41     
MDDDH3224958201703                D89821984430PT1D20170330000060RADIO;AM/FM,CD                M IMCTM S5NC06 FTTL  07070IMCT  S5 PTB  00005                    0900 SR        000000000000 FUJITSU TEN (THAILAN170KNDL0084084170KPAL0088088                                                                                                                *          20170324IMF1703247.TXT
MDDDH3224959201703                D89821984430PT4D20170329000030RADIO;AM/FM,CD                M IMCTM S9CO001FTTL  07070IMCT  S9 PTB  00005                    2100 SR        000000000000 FUJITSU TEN (THAILAN170KNEU0003003                                                                                                                              *          20170324IMF1703247.TXT
MDDDH3224960201703                D89828070100PV1D20170329000060SPEAKER ASM                   M IMCTM S5MB11 FTTL  07070IMCT  S5 PTB  00003                    2100 SR        000000000000 FUJITSU TEN (THAILAN170KRSL0030030                                                                                                                              *          20170324IMF1703247.TXT
MDDDH3224961201703                D89828070100PV1D20170329000120SPEAKER ASM                   M IMCTM S5MB11 FTTL  07070IMCT  S5 PTB  00003                    2230 SR        000000000000 FUJITSU TEN (THAILAN170KRDL0009009170KRRL0017017                                                                                                                *          20170324IMF1703247.TXT
MDDDH3224962201703                D89828070100PV1D20170330000060SPEAKER ASM                   M IMCTM S5MB11 FTTL  07070IMCT  S5 PTB  00003                    0230 SR        000000000000 FUJITSU TEN (THAILAN170KNAL0046046                                                                                                                              *          20170324IMF1703247.TXT
MDDDH3224963201703                D89828070100PV1D20170330000120SPEAKER ASM                   M IMCTM S5MB11 FTTL  07070IMCT  S5 PTB  00003                    0400 SR        000000000000 FUJITSU TEN (THAILAN170KNBL0027027170KREL0028028                                                                                                                *          20170324IMF1703247.TXT
MDDDH3224964201703                D89828070100PV1D20170330000120SPEAKER ASM                   M IMCTM S5MB11 FTTL  07070IMCT  S5 PTB  00003                    0900 SR        000000000000 FUJITSU TEN (THAILAN170KNDL0084084170KPAL0088088                                                                                                                *          20170324IMF1703247.TXT
MDDDH3224965201703                D89828070100PV1D20170330000120SPEAKER ASM                   M IMCTM S5MB11 FTTL  07070IMCT  S5 PTB  00003                    1300 SR        000000000000 FUJITSU TEN (THAILAN170KNAL0047047170KPNL0001001                                                                                                                *          20170324IMF1703247.TXT
MDDDH3224966201703                D89828070100PV1D20170330000060SPEAKER ASM                   M IMCTM S5MB11 FTTL  07070IMCT  S5 PTB  00003                    1600 SR        000000000000 FUJITSU TEN (THAILAN170KPEL0043043                                                                                                                              *          20170324IMF1703247.TXT
MDDDH3224967201703                D89828070100PV4D20170329000060SPEAKER ASM                   M IMCTM S0FL05 FTTL  07070IMCT  S0 PTB  00003                    2100 SR        000000000000 FUJITSU TEN (THAILAN170KNEU0003003                                                                                                                              *          20170324IMF1703247.TXT
MDDDH3224968201703                D89828070200PV1D20170329000060SPEAKER ASM                   M IMCTM S5MA14 FTTL  07070IMCT  S5 PTB  00005                    2100 SR        000000000000 FUJITSU TEN (THAILAN170KRSL0030030                                                                                                                              *          20170324IMF1703247.TXT
MDDDH3224969201703                D89828070200PV1D20170329000120SPEAKER ASM                   M IMCTM S5MA14 FTTL  07070IMCT  S5 PTB  00005                    2230 SR        000000000000 FUJITSU TEN (THAILAN170KRDL0009009170KRRL0017017                                                                                                                *          20170324IMF1703247.TXT
MDDDH3224970201703                D89828070200PV1D20170330000060SPEAKER ASM                   M IMCTM S5MA14 FTTL  07070IMCT  S5 PTB  00005                    0400 SR        000000000000 FUJITSU TEN (THAILAN170KREL0028028                                                                                                                              *          20170324IMF1703247.TXT
MDDDH3224971201703                D89828070300PT1D20170329000060SPEAKER ASM                   M IMCTM S5NB082FTTL  07070IMCT  S5 PTB  00015                    2100 SR        000000000000 FUJITSU TEN (THAILAN170KRSL0030030                                                                                                                              *          20170324IMF1703247.TXT
MDDDH3224972201703                D89828070300PT1D20170329000120SPEAKER ASM                   M IMCTM S5NB082FTTL  07070IMCT  S5 PTB  00015                    2230 SR        000000000000 FUJITSU TEN (THAILAN170KRDL0009009170KRRL0017017                                                                                                                *          20170324IMF1703247.TXT
MDDDH3224973201703                D89828070300PT1D20170330000060SPEAKER ASM                   M IMCTM S5NB082FTTL  07070IMCT  S5 PTB  00015                    0400 SR        000000000000 FUJITSU TEN (THAILAN170KREL0028028                                                                                                                              *          20170324IMF1703247.TXT
MDDDH3224974201703                D89828070300PT1D20170330000060SPEAKER ASM                   M IMCTM S5NB082FTTL  07070IMCT  S5 PTB  00015                    1300 SR        000000000000 FUJITSU TEN (THAILAN170KPNL0001001                                                                                                                              *          20170324IMF1703247.TXT
MDDDH3224975201703                D89828070300PT1D20170330000060SPEAKER ASM                   M IMCTM S5NB082FTTL  07070IMCT  S5 PTB  00015                    1600 SR        000000000000 FUJITSU TEN (THAILAN170KPEL0043043                                                                                                                              *          20170324IMF1703247.TXT
MDDDH3224976201703                D89831228300PT1D20170330000030RADIO;AM/FM,CD                M IMCTM S5NC06 FTTL  07070IMCT  S5 CPB  00003                    1600 SR        000000000000 FUJITSU TEN (THAILAN170KPEL0043043                                                                                                                              *          20170324IMF1703247.TXT
MDDDH3224977201703                D89831228400PT1D20170329000030RADIO;AM/FM,CD                M IMCTM S5NC06 FTTL  07070IMCT  S5 CPB  00003                    2230 SR        000000000000 FUJITSU TEN (THAILAN170KRDL0009009                                                                                                                              *          20170324IMF1703247.TXT
MDDDH3224978201703                D89831228400PT1D20170330000030RADIO;AM/FM,CD                M IMCTM S5NC06 FTTL  07070IMCT  S5 CPB  00003                    0400 SR        000000000000 FUJITSU TEN (THAILAN170KREL0028028                                                                                                                              *          20170324IMF1703247.TXT
MDDUH3250745201703                D89828070100PT4U20170329000030SPEAKER ASM                   M IMCTM S0FL05 FTTL  07070IMCT  S0 PTB  00003                    2230 SR        000000000000 FUJITSU TEN (THAILAN180LUEU0040040                                                                                                                              *          20170324IMF1703247.TXT
MDDUH3250746201703                D89828070100PT4U20170330000030SPEAKER ASM                   M IMCTM S0FL05 FTTL  07070IMCT  S0 PTB  00003                    0230 SR        000000000000 FUJITSU TEN (THAILAN180LUEU0041041                                                                                                                              *          20170324IMF1703247.TXT
MDDUH3250747201703                D89828070100PT4U20170330000030SPEAKER ASM                   M IMCTM S0FL05 FTTL  07070IMCT  S0 PTB  00003                    0400 SR        000000000000 FUJITSU TEN (THAILAN180LUCU0033033                                                                                                                              *          20170324IMF1703247.TXT
MDDUH3250748201703                D89828070100PT4U20170330000060SPEAKER ASM                   M IMCTM S0FL05 FTTL  07070IMCT  S0 PTB  00003                    0900 SR        000000000000 FUJITSU TEN (THAILAN180LUDU0070070180LUEU0042042                                                                                                                *          20170324IMF1703247.TXT
MDDUH3250749201703                D89828070100PT4U20170330000060SPEAKER ASM                   M IMCTM S0FL05 FTTL  07070IMCT  S0 PTB  00003                    1300 SR        000000000000 FUJITSU TEN (THAILAN180LUCU0034034180LUDU0071071                                                                                                                *          20170324IMF1703247.TXT
MDDUH3250750201703                D89828070100PT4U20170330000030SPEAKER ASM                   M IMCTM S0FL05 FTTL  07070IMCT  S0 PTB  00003                    1600 SR        000000000000 FUJITSU TEN (THAILAN180LUEU0043043                                                                                                                              *          20170324IMF1703247.TXT
MDDUH3250751201703                D89828070200PV4U20170329000030SPEAKER ASM                   M IMCTM S0FR05 FTTL  07070IMCT  S0 PTB  00005                    2230 SR        000000000000 FUJITSU TEN (THAILAN180LUEU0040040                                                                                                                              *          20170324IMF1703247.TXT
MDDUH3250752201703                D89828070200PV4U20170330000030SPEAKER ASM                   M IMCTM S0FR05 FTTL  07070IMCT  S0 PTB  00005                    0230 SR        000000000000 FUJITSU TEN (THAILAN180LUEU0041041                                                                                                                              *          20170324IMF1703247.TXT
MDDUH3250753201703                D89828070200PV4U20170330000030SPEAKER ASM                   M IMCTM S0FR05 FTTL  07070IMCT  S0 PTB  00005                    0400 SR        000000000000 FUJITSU TEN (THAILAN180LUCU0033033                                                                                                                              *          20170324IMF1703247.TXT
MDDUH3250754201703                D89828070200PV4U20170330000060SPEAKER ASM                   M IMCTM S0FR05 FTTL  07070IMCT  S0 PTB  00005                    0900 SR        000000000000 FUJITSU TEN (THAILAN180LUDU0070070180LUEU0042042                                                                                                                *          20170324IMF1703247.TXT
MDDUH3250755201703                D89828070200PV4U20170330000060SPEAKER ASM                   M IMCTM S0FR05 FTTL  07070IMCT  S0 PTB  00005                    1300 SR        000000000000 FUJITSU TEN (THAILAN180LUCU0034034180LUDU0071071                                                                                                                *          20170324IMF1703247.TXT
MDDUH3250756201703                D89828070200PV4U20170330000030SPEAKER ASM                   M IMCTM S0FR05 FTTL  07070IMCT  S0 PTB  00005                    1600 SR        000000000000 FUJITSU TEN (THAILAN180LUEU0043043                                                                                                                              *          20170324IMF1703247.TXT
MDDUH3250757201703                D89828070300PT4U20170329000030SPEAKER ASM                   M IMCTM S9TS02 FTTL  07070IMCT  S9 PTB  00015                    2230 SR        000000000000 FUJITSU TEN (THAILAN180LUEU0040040                                                                                                                              *          20170324IMF1703247.TXT
MDDUH3250758201703                D89828070300PT4U20170330000030SPEAKER ASM                   M IMCTM S9TS02 FTTL  07070IMCT  S9 PTB  00015                    0230 SR        000000000000 FUJITSU TEN (THAILAN180LUEU0041041                                                                                                                              *          20170324IMF1703247.TXT
MDDUH3250759201703                D89828070300PT4U20170330000030SPEAKER ASM                   M IMCTM S9TS02 FTTL  07070IMCT  S9 PTB  00015                    0400 SR        000000000000 FUJITSU TEN (THAILAN180LUCU0033033                                                                                                                              *          20170324IMF1703247.TXT
MDDUH3250760201703                D89828070300PT4U20170330000060SPEAKER ASM                   M IMCTM S9TS02 FTTL  07070IMCT  S9 PTB  00015                    0900 SR        000000000000 FUJITSU TEN (THAILAN180LUDU0070070180LUEU0042042                                                                                                                *          20170324IMF1703247.TXT
MDDUH3250761201703                D89828070300PT4U20170330000060SPEAKER ASM                   M IMCTM S9TS02 FTTL  07070IMCT  S9 PTB  00015                    1300 SR        000000000000 FUJITSU TEN (THAILAN180LUCU0034034180LUDU0071071                                                                                                                *          20170324IMF1703247.TXT
MDDUH3250762201703                D89828070300PT4U20170330000030SPEAKER ASM                   M IMCTM S9TS02 FTTL  07070IMCT  S9 PTB  00015                    1600 SR        000000000000 FUJITSU TEN (THAILAN180LUEU0043043                                                                                                                              *          20170324IMF1703247.TXT
MDDUH3250763201703                D89835097900PT4U20170330000015RADIO;ASM DVD                 M IMCTM S9CO001FTTL  07070IMCT  S9 PTB  00003                    0400 SR        000000000000 FUJITSU TEN (THAILAN180LUCU0033033                                                                                                                              *          20170324IMF1703247.TXT
MDDUH3250764201703                D89835097900PT4U20170330000015RADIO;ASM DVD                 M IMCTM S9CO001FTTL  07070IMCT  S9 PTB  00003                    1300 SR        000000000000 FUJITSU TEN (THAILAN180LUCU0034034                                                                                                                              *          20170324IMF1703247.TXT
