REC2017032720170327ISUZU                              3      
MECKH3801064000000          IMKDC  89828070100P3YK20170421000006SPEAKER ASM                   M IMCTM IMKDC  FTTL  07070IMKDC KK*PTB  00003    K295B0600   001 0000 ES        000000000000 FUJITSU TEN (THAILAN                                                                                                                                            *E         20170327IMF1703271.TXT
MECKH3801065000000          IMKDC  89828070200P3YK20170421000006SPEAKER ASM                   M IMCTM IMKDC  FTTL  07070IMKDC KK*PTB  00005    K295B0600   001 0000 ES        000000000000 FUJITSU TEN (THAILAN                                                                                                                                            *E         20170327IMF1703271.TXT
MECKH3801066000000          IMKDC  89828070300P3YK20170421000006SPEAKER ASM                   M IMCTM IMKDC  FTTL  07070IMKDC KK*PTB  00015    K295B0600   001 0000 ES        000000000000 FUJITSU TEN (THAILAN                                                                                                                                            *E         20170327IMF1703271.TXT
