REC2017031620170316ISUZU                              55     
MDDDH3210837201703                D89821984430PT1D20170320000030RADIO;AM/FM,CD                M IMCTM S5NC06 FTTL  07070IMCT  S5 PTB  00005                    2230 SR        000000000000 FUJITSU TEN (THAILAN170KNDL0079079                                                                                                                              *          20170316IMF1703166.TXT
MDDDH3210838201703                D89828070100PV1D20170320000060SPEAKER ASM                   M IMCTM S5MB11 FTTL  07070IMCT  S5 PTB  00003                    2230 SR        000000000000 FUJITSU TEN (THAILAN170KNDL0079079                                                                                                                              *          20170316IMF1703166.TXT
MDDUH3240075201703                D89828070100PT4U20170320000030SPEAKER ASM                   M IMCTM S0FL05 FTTL  07070IMCT  S0 PTB  00003                    2230 SR        000000000000 FUJITSU TEN (THAILAN180LUCU0024024                                                                                                                              *          20170316IMF1703166.TXT
MDDUH3240076201703                D89828070200PV4U20170320000030SPEAKER ASM                   M IMCTM S0FR05 FTTL  07070IMCT  S0 PTB  00005                    2230 SR        000000000000 FUJITSU TEN (THAILAN180LUCU0024024                                                                                                                              *          20170316IMF1703166.TXT
MDDUH3240077201703                D89828070300PT4U20170320000030SPEAKER ASM                   M IMCTM S9TS02 FTTL  07070IMCT  S9 PTB  00015                    2230 SR        000000000000 FUJITSU TEN (THAILAN180LUCU0024024                                                                                                                              *          20170316IMF1703166.TXT
MDDUH3240078201703                D89835097900PT4U20170320000015RADIO;ASM DVD                 M IMCTM S9CO001FTTL  07070IMCT  S9 PTB  00003                    2230 SR        000000000000 FUJITSU TEN (THAILAN180LUCU0024024                                                                                                                              *          20170316IMF1703166.TXT
MDEDH3343837201703                D89827952200PT1D20170321000030RADIO;AM/FM,CD,D              M IMCTM S5NC06 FTTL  07070IMCT  S5 X    00003                    1300 SR        000000000000 FUJITSU TEN (THAILAN17066NL0015016                                                                                                                              *          20170316IMF1703166.TXT
MDEDH3343838201703                D89828070100PV1D20170320000060SPEAKER ASM                   M IMCTM S5MB11 FTTL  07070IMCT  S5 PTB  00003                    2100 SR        000000000000 FUJITSU TEN (THAILAN17028NL000400417064NL0007007                                                                                                                *          20170316IMF1703166.TXT
MDEDH3343839201703                D89828070100PV1D20170320000120SPEAKER ASM                   M IMCTM S5MB11 FTTL  07070IMCT  S5 PTB  00003                    2230 SR        000000000000 FUJITSU TEN (THAILAN17028NL000500517064NL000800817080NL0035036                                                                                                  *          20170316IMF1703166.TXT
MDEDH3343840201703                D89828070100PV1D20170321000030SPEAKER ASM                   M IMCTM S5MB11 FTTL  07070IMCT  S5 PTB  00003                    0230 SR        000000000000 FUJITSU TEN (THAILAN17072NL0019019                                                                                                                              *          20170316IMF1703166.TXT
MDEDH3343841201703                D89828070100PV1D20170321000090SPEAKER ASM                   M IMCTM S5MB11 FTTL  07070IMCT  S5 PTB  00003                    0400 SR        000000000000 FUJITSU TEN (THAILAN17060NL001101117068NL001001017071NL0008008                                                                                                  *          20170316IMF1703166.TXT
MDEDH3343842201703                D89828070100PV1D20170321000120SPEAKER ASM                   M IMCTM S5MB11 FTTL  07070IMCT  S5 PTB  00003                    0900 SR        000000000000 FUJITSU TEN (THAILAN17028NL000600617060NL001201217071NL000900917074NL0020020                                                                                    *          20170316IMF1703166.TXT
MDEDH3343843201703                D89828070100PV1D20170321000150SPEAKER ASM                   M IMCTM S5MB11 FTTL  07070IMCT  S5 PTB  00003                    1300 SR        000000000000 FUJITSU TEN (THAILAN17028NL000700717066NL001501617080NL0037038                                                                                                  *          20170316IMF1703166.TXT
MDEDH3343844201703                D89828070100PV4D20170321000030SPEAKER ASM                   M IMCTM S0FL05 FTTL  07070IMCT  S0 PTB  00003                    0400 SR        000000000000 FUJITSU TEN (THAILAN17079NU0036036                                                                                                                              *          20170316IMF1703166.TXT
MDEDH3343845201703                D89828070100PV4D20170321000030SPEAKER ASM                   M IMCTM S0FL05 FTTL  07070IMCT  S0 PTB  00003                    0900 SR        000000000000 FUJITSU TEN (THAILAN17081NU0008008                                                                                                                              *          20170316IMF1703166.TXT
MDEDH3343846201703                D89828070100PV4D20170321000030SPEAKER ASM                   M IMCTM S0FL05 FTTL  07070IMCT  S0 PTB  00003                    1600 SR        000000000000 FUJITSU TEN (THAILAN17079NU0037037                                                                                                                              *          20170316IMF1703166.TXT
MDEDH3343847201703                D89828070200PV1D20170320000060SPEAKER ASM                   M IMCTM S5MA14 FTTL  07070IMCT  S5 PTB  00005                    2230 SR        000000000000 FUJITSU TEN (THAILAN17080NL0035036                                                                                                                              *          20170316IMF1703166.TXT
MDEDH3343848201703                D89828070200PV1D20170321000030SPEAKER ASM                   M IMCTM S5MA14 FTTL  07070IMCT  S5 PTB  00005                    0230 SR        000000000000 FUJITSU TEN (THAILAN17072NL0019019                                                                                                                              *          20170316IMF1703166.TXT
MDEDH3343849201703                D89828070200PV1D20170321000060SPEAKER ASM                   M IMCTM S5MA14 FTTL  07070IMCT  S5 PTB  00005                    0400 SR        000000000000 FUJITSU TEN (THAILAN17060NL001101117071NL0008008                                                                                                                *          20170316IMF1703166.TXT
MDEDH3343850201703                D89828070200PV1D20170321000090SPEAKER ASM                   M IMCTM S5MA14 FTTL  07070IMCT  S5 PTB  00005                    0900 SR        000000000000 FUJITSU TEN (THAILAN17060NL001201217071NL000900917074NL0020020                                                                                                  *          20170316IMF1703166.TXT
MDEDH3343851201703                D89828070200PV1D20170321000060SPEAKER ASM                   M IMCTM S5MA14 FTTL  07070IMCT  S5 PTB  00005                    1300 SR        000000000000 FUJITSU TEN (THAILAN17080NL0037038                                                                                                                              *          20170316IMF1703166.TXT
MDEDH3343852201703                D89828070200PV4D20170321000030SPEAKER ASM                   M IMCTM S0FR05 FTTL  07070IMCT  S0 PTB  00005                    0400 SR        000000000000 FUJITSU TEN (THAILAN17079NU0036036                                                                                                                              *          20170316IMF1703166.TXT
MDEDH3343853201703                D89828070200PV4D20170321000030SPEAKER ASM                   M IMCTM S0FR05 FTTL  07070IMCT  S0 PTB  00005                    0900 SR        000000000000 FUJITSU TEN (THAILAN17081NU0008008                                                                                                                              *          20170316IMF1703166.TXT
MDEDH3343854201703                D89828070200PV4D20170321000030SPEAKER ASM                   M IMCTM S0FR05 FTTL  07070IMCT  S0 PTB  00005                    1600 SR        000000000000 FUJITSU TEN (THAILAN17079NU0037037                                                                                                                              *          20170316IMF1703166.TXT
MDEDH3343855201703                D89828070300PT1D20170320000030SPEAKER ASM                   M IMCTM S5NB082FTTL  07070IMCT  S5 PTB  00015                    2100 SR        000000000000 FUJITSU TEN (THAILAN17064NL0007007                                                                                                                              *          20170316IMF1703166.TXT
MDEDH3343856201703                D89828070300PT1D20170320000090SPEAKER ASM                   M IMCTM S5NB082FTTL  07070IMCT  S5 PTB  00015                    2230 SR        000000000000 FUJITSU TEN (THAILAN17064NL000800817080NL0035036                                                                                                                *          20170316IMF1703166.TXT
MDEDH3343857201703                D89828070300PT1D20170321000030SPEAKER ASM                   M IMCTM S5NB082FTTL  07070IMCT  S5 PTB  00015                    0230 SR        000000000000 FUJITSU TEN (THAILAN17072NL0019019                                                                                                                              *          20170316IMF1703166.TXT
MDEDH3343858201703                D89828070300PT1D20170321000090SPEAKER ASM                   M IMCTM S5NB082FTTL  07070IMCT  S5 PTB  00015                    0400 SR        000000000000 FUJITSU TEN (THAILAN17060NL001101117068NL001001017071NL0008008                                                                                                  *          20170316IMF1703166.TXT
MDEDH3343859201703                D89828070300PT1D20170321000090SPEAKER ASM                   M IMCTM S5NB082FTTL  07070IMCT  S5 PTB  00015                    0900 SR        000000000000 FUJITSU TEN (THAILAN17060NL001201217071NL000900917074NL0020020                                                                                                  *          20170316IMF1703166.TXT
MDEDH3343860201703                D89828070300PT1D20170321000120SPEAKER ASM                   M IMCTM S5NB082FTTL  07070IMCT  S5 PTB  00015                    1300 SR        000000000000 FUJITSU TEN (THAILAN17066NL001501617080NL0037038                                                                                                                *          20170316IMF1703166.TXT
MDEDH3343861201703                D89828070300PT4D20170321000030SPEAKER ASM                   M IMCTM S9TS02 FTTL  07070IMCT  S9 PTB  00015                    0400 SR        000000000000 FUJITSU TEN (THAILAN17079NU0036036                                                                                                                              *          20170316IMF1703166.TXT
MDEDH3343862201703                D89828070300PT4D20170321000030SPEAKER ASM                   M IMCTM S9TS02 FTTL  07070IMCT  S9 PTB  00015                    0900 SR        000000000000 FUJITSU TEN (THAILAN17081NU0008008                                                                                                                              *          20170316IMF1703166.TXT
MDEDH3343863201703                D89828070300PT4D20170321000030SPEAKER ASM                   M IMCTM S9TS02 FTTL  07070IMCT  S9 PTB  00015                    1600 SR        000000000000 FUJITSU TEN (THAILAN17079NU0037037                                                                                                                              *          20170316IMF1703166.TXT
MDEDH3343864201703                D89829645700PT1D20170320000015RADIO;ASM DVD                 M IMCTM S5NC06 FTTL  07070IMCT  S5 X    00003                    2100 SR        000000000000 FUJITSU TEN (THAILAN17064NL0007007                                                                                                                              *          20170316IMF1703166.TXT
MDEDH3343865201703                D89829645700PT1D20170320000015RADIO;ASM DVD                 M IMCTM S5NC06 FTTL  07070IMCT  S5 X    00003                    2230 SR        000000000000 FUJITSU TEN (THAILAN17064NL0008008                                                                                                                              *          20170316IMF1703166.TXT
MDEDH3343866201703                D89829645700PT1D20170321000015RADIO;ASM DVD                 M IMCTM S5NC06 FTTL  07070IMCT  S5 X    00003                    0230 SR        000000000000 FUJITSU TEN (THAILAN17072NL0019019                                                                                                                              *          20170316IMF1703166.TXT
MDEDH3343867201703                D89829645700PT1D20170321000015RADIO;ASM DVD                 M IMCTM S5NC06 FTTL  07070IMCT  S5 X    00003                    0400 SR        000000000000 FUJITSU TEN (THAILAN17071NL0008008                                                                                                                              *          20170316IMF1703166.TXT
MDEDH3343868201703                D89829645700PT1D20170321000030RADIO;ASM DVD                 M IMCTM S5NC06 FTTL  07070IMCT  S5 X    00003                    0900 SR        000000000000 FUJITSU TEN (THAILAN17071NL000900917074NL0020020                                                                                                                *          20170316IMF1703166.TXT
MDEDH3343869201703                D89829645700PT4D20170321000015RADIO;ASM DVD                 M IMCTM S9CO001FTTL  07070IMCT  S9 X    00003                    0400 SR        000000000000 FUJITSU TEN (THAILAN17079NU0036036                                                                                                                              *          20170316IMF1703166.TXT
MDEDH3343870201703                D89829645700PT4D20170321000015RADIO;ASM DVD                 M IMCTM S9CO001FTTL  07070IMCT  S9 X    00003                    1600 SR        000000000000 FUJITSU TEN (THAILAN17079NU0037037                                                                                                                              *          20170316IMF1703166.TXT
MDEUH3238363201703                D89828070100PT4U20170320000030SPEAKER ASM                   M IMCTM S0FL05 FTTL  07070IMCT  S0 PTB  00003                    2230 SR        000000000000 FUJITSU TEN (THAILAN18023TU0016016                                                                                                                              *          20170316IMF1703166.TXT
MDEUH3238364201703                D89828070100PT4U20170321000030SPEAKER ASM                   M IMCTM S0FL05 FTTL  07070IMCT  S0 PTB  00003                    0230 SR        000000000000 FUJITSU TEN (THAILAN170C13U0076076                                                                                                                              *          20170316IMF1703166.TXT
MDEUH3238365201703                D89828070100PT4U20170321000030SPEAKER ASM                   M IMCTM S0FL05 FTTL  07070IMCT  S0 PTB  00003                    0400 SR        000000000000 FUJITSU TEN (THAILAN170C13U0077077                                                                                                                              *          20170316IMF1703166.TXT
MDEUH3238366201703                D89828070100PT4U20170321000030SPEAKER ASM                   M IMCTM S0FL05 FTTL  07070IMCT  S0 PTB  00003                    0900 SR        000000000000 FUJITSU TEN (THAILAN18023TU0017017                                                                                                                              *          20170316IMF1703166.TXT
MDEUH3238367201703                D89828070100PT4U20170321000060SPEAKER ASM                   M IMCTM S0FL05 FTTL  07070IMCT  S0 PTB  00003                    1300 SR        000000000000 FUJITSU TEN (THAILAN170C12U0043044                                                                                                                              *          20170316IMF1703166.TXT
MDEUH3238368201703                D89828070200PV4U20170320000030SPEAKER ASM                   M IMCTM S0FR05 FTTL  07070IMCT  S0 PTB  00005                    2230 SR        000000000000 FUJITSU TEN (THAILAN18023TU0016016                                                                                                                              *          20170316IMF1703166.TXT
MDEUH3238369201703                D89828070200PV4U20170321000030SPEAKER ASM                   M IMCTM S0FR05 FTTL  07070IMCT  S0 PTB  00005                    0230 SR        000000000000 FUJITSU TEN (THAILAN170C13U0076076                                                                                                                              *          20170316IMF1703166.TXT
MDEUH3238370201703                D89828070200PV4U20170321000030SPEAKER ASM                   M IMCTM S0FR05 FTTL  07070IMCT  S0 PTB  00005                    0400 SR        000000000000 FUJITSU TEN (THAILAN170C13U0077077                                                                                                                              *          20170316IMF1703166.TXT
MDEUH3238371201703                D89828070200PV4U20170321000030SPEAKER ASM                   M IMCTM S0FR05 FTTL  07070IMCT  S0 PTB  00005                    0900 SR        000000000000 FUJITSU TEN (THAILAN18023TU0017017                                                                                                                              *          20170316IMF1703166.TXT
MDEUH3238372201703                D89828070200PV4U20170321000060SPEAKER ASM                   M IMCTM S0FR05 FTTL  07070IMCT  S0 PTB  00005                    1300 SR        000000000000 FUJITSU TEN (THAILAN170C12U0043044                                                                                                                              *          20170316IMF1703166.TXT
MDEUH3238373201703                D89828070300PT4U20170320000030SPEAKER ASM                   M IMCTM S9TS02 FTTL  07070IMCT  S9 PTB  00015                    2230 SR        000000000000 FUJITSU TEN (THAILAN18023TU0016016                                                                                                                              *          20170316IMF1703166.TXT
MDEUH3238374201703                D89828070300PT4U20170321000030SPEAKER ASM                   M IMCTM S9TS02 FTTL  07070IMCT  S9 PTB  00015                    0230 SR        000000000000 FUJITSU TEN (THAILAN170C13U0076076                                                                                                                              *          20170316IMF1703166.TXT
MDEUH3238375201703                D89828070300PT4U20170321000030SPEAKER ASM                   M IMCTM S9TS02 FTTL  07070IMCT  S9 PTB  00015                    0400 SR        000000000000 FUJITSU TEN (THAILAN170C13U0077077                                                                                                                              *          20170316IMF1703166.TXT
MDEUH3238376201703                D89828070300PT4U20170321000030SPEAKER ASM                   M IMCTM S9TS02 FTTL  07070IMCT  S9 PTB  00015                    0900 SR        000000000000 FUJITSU TEN (THAILAN18023TU0017017                                                                                                                              *          20170316IMF1703166.TXT
MDEUH3238377201703                D89828070300PT4U20170321000060SPEAKER ASM                   M IMCTM S9TS02 FTTL  07070IMCT  S9 PTB  00015                    1300 SR        000000000000 FUJITSU TEN (THAILAN170C12U0043044                                                                                                                              *          20170316IMF1703166.TXT
