REC2017031720170317ISUZU                              9      
MDEFH3T17412201703                D89828070100PV4F20170322000012SPEAKER ASM                   M IMCTM S7FL05 FTTL  07070IMCT  S7 PTB  00003                    0900 SR        000000000000 FUJITSU TEN (THAILAN17017QR0007   17019QR0002   S170305810    S170305815    000000                                                                              *R         20170317RDF1703175.TXT
MDEFH3T17413201703                D89828070200PV4F20170321000003SPEAKER ASM                   M IMCTM S7TS02 FTTL  07070IMCT  S7 PTB  00005                    2230 SR        000000000000 FUJITSU TEN (THAILAN17028QR0017   17028QR0018   D170305714    D170305715    000000                                                                              *R         20170317RDF1703175.TXT
MDEFH3T17414201703                D89828070300PT4F20170321000008SPEAKER ASM                   M IMCTM S7TS02 FTTL  07070IMCT  S7 PTB  00015                    2100 SR        000000000000 FUJITSU TEN (THAILAN17028QR0016   17028QR0018   D170305712    D170305715    000000                                                                              *R         20170317RDF1703175.TXT
MDEFH3T17415201703                D89831229200PT4F20170321000001RADIO;AM/FM,CD                M IMCTM S7TS03 FTTL  07070IMCT  S7 PTB  00003                    2230 SR        000000000000 FUJITSU TEN (THAILAN17028QR0018   17028QR0018   D170305715    D170305715    000000                                                                              *R         20170317RDF1703175.TXT
MDEFH3258057201703                D89828070100PV4F20170321000027SPEAKER ASM                   M IMCTM S7FL05 FTTL  07070IMCT  S7 PTB  00003                    2100 SR        000000000000 FUJITSU TEN (THAILAN17023QR0004   17028QR0017   D170305701    D170305714    000000                                                                              *R         20170317RDF1703175.TXT
MDEFH3258058201703                D89828070100PV4F20170321000003SPEAKER ASM                   M IMCTM S7FL05 FTTL  07070IMCT  S7 PTB  00003                    2230 SR        000000000000 FUJITSU TEN (THAILAN17028QR0017   17028QR0018   D170305714    D170305715    000000                                                                              *R         20170317RDF1703175.TXT
MDEFH3258059201703                D89828070100PV4F20170322000018SPEAKER ASM                   M IMCTM S7FL05 FTTL  07070IMCT  S7 PTB  00003                    0400 SR        000000000000 FUJITSU TEN (THAILAN17004MR0022   17017QR0006   S170305801    S170305809    000000                                                                              *R         20170317RDF1703175.TXT
MDEFH3258060201703                D89828070200PV4F20170321000005SPEAKER ASM                   M IMCTM S7TS02 FTTL  07070IMCT  S7 PTB  00005                    2100 SR        000000000000 FUJITSU TEN (THAILAN17028QR0016   17028QR0017   D170305712    D170305714    000000                                                                              *R         20170317RDF1703175.TXT
MDEFH3258061201703                D89831229200PT4F20170321000003RADIO;AM/FM,CD                M IMCTM S7TS03 FTTL  07070IMCT  S7 PTB  00003                    2100 SR        000000000000 FUJITSU TEN (THAILAN17028QR0016   17028QR0017   D170305712    D170305714    000000                                                                              *R         20170317RDF1703175.TXT
