REC2017031820170318ISUZU                              63     
MDDDH3212606201703                D89821984430PT1D20170323000030RADIO;AM/FM,CD                M IMCTM S5NC06 FTTL  07070IMCT  S5 PTB  00005                    0400 SR        000000000000 FUJITSU TEN (THAILAN170KNDL0080080                                                                                                                              *          20170318IMF1703182.TXT
MDDDH3212607201703                D89828070100PV1D20170323000060SPEAKER ASM                   M IMCTM S5MB11 FTTL  07070IMCT  S5 PTB  00003                    0400 SR        000000000000 FUJITSU TEN (THAILAN170KNDL0080080                                                                                                                              *          20170318IMF1703182.TXT
MDDUH3243520201703                D89828070100PT4U20170322000030SPEAKER ASM                   M IMCTM S0FL05 FTTL  07070IMCT  S0 PTB  00003                    2230 SR        000000000000 FUJITSU TEN (THAILAN180LUCU0027027                                                                                                                              *          20170318IMF1703182.TXT
MDDUH3243521201703                D89828070100PT4U20170323000060SPEAKER ASM                   M IMCTM S0FL05 FTTL  07070IMCT  S0 PTB  00003                    1300 SR        000000000000 FUJITSU TEN (THAILAN180LUCU0028029                                                                                                                              *          20170318IMF1703182.TXT
MDDUH3243522201703                D89828070200PV4U20170322000030SPEAKER ASM                   M IMCTM S0FR05 FTTL  07070IMCT  S0 PTB  00005                    2230 SR        000000000000 FUJITSU TEN (THAILAN180LUCU0027027                                                                                                                              *          20170318IMF1703182.TXT
MDDUH3243523201703                D89828070200PV4U20170323000060SPEAKER ASM                   M IMCTM S0FR05 FTTL  07070IMCT  S0 PTB  00005                    1300 SR        000000000000 FUJITSU TEN (THAILAN180LUCU0028029                                                                                                                              *          20170318IMF1703182.TXT
MDDUH3243524201703                D89828070300PT4U20170322000030SPEAKER ASM                   M IMCTM S9TS02 FTTL  07070IMCT  S9 PTB  00015                    2230 SR        000000000000 FUJITSU TEN (THAILAN180LUCU0027027                                                                                                                              *          20170318IMF1703182.TXT
MDDUH3243525201703                D89828070300PT4U20170323000060SPEAKER ASM                   M IMCTM S9TS02 FTTL  07070IMCT  S9 PTB  00015                    1300 SR        000000000000 FUJITSU TEN (THAILAN180LUCU0028029                                                                                                                              *          20170318IMF1703182.TXT
MDDUH3243526201703                D89835097900PT4U20170322000015RADIO;ASM DVD                 M IMCTM S9CO001FTTL  07070IMCT  S9 PTB  00003                    2230 SR        000000000000 FUJITSU TEN (THAILAN180LUCU0027027                                                                                                                              *          20170318IMF1703182.TXT
MDDUH3243527201703                D89835097900PT4U20170323000030RADIO;ASM DVD                 M IMCTM S9CO001FTTL  07070IMCT  S9 PTB  00003                    1300 SR        000000000000 FUJITSU TEN (THAILAN180LUCU0028029                                                                                                                              *          20170318IMF1703182.TXT
MDEDH3362708201703                D89827952200PT1D20170322000045RADIO;AM/FM,CD,D              M IMCTM S5NC06 FTTL  07070IMCT  S5 X    00003                    2230 SR        000000000000 FUJITSU TEN (THAILAN17056NL001601617066NL0017018                                                                                                                *          20170318IMF1703182.TXT
MDEDH3362709201703                D89827952200PT1D20170323000030RADIO;AM/FM,CD,D              M IMCTM S5NC06 FTTL  07070IMCT  S5 X    00003                    0900 SR        000000000000 FUJITSU TEN (THAILAN17066NL0019020                                                                                                                              *          20170318IMF1703182.TXT
MDEDH3362710201703                D89827952200PT1D20170323000015RADIO;AM/FM,CD,D              M IMCTM S5NC06 FTTL  07070IMCT  S5 X    00003                    1600 SR        000000000000 FUJITSU TEN (THAILAN17066NL0021021                                                                                                                              *          20170318IMF1703182.TXT
MDEDH3362711201703                D89828070100PV1D20170322000060SPEAKER ASM                   M IMCTM S5MB11 FTTL  07070IMCT  S5 PTB  00003                    2100 SR        000000000000 FUJITSU TEN (THAILAN17068NL001101117072NL0020020                                                                                                                *          20170318IMF1703182.TXT
MDEDH3362712201703                D89828070100PV1D20170322000150SPEAKER ASM                   M IMCTM S5MB11 FTTL  07070IMCT  S5 PTB  00003                    2230 SR        000000000000 FUJITSU TEN (THAILAN17056NL001601617059NL000600617066NL001701817070NL0002002                                                                                    *          20170318IMF1703182.TXT
MDEDH3362713201703                D89828070100PV1D20170323000060SPEAKER ASM                   M IMCTM S5MB11 FTTL  07070IMCT  S5 PTB  00003                    0230 SR        000000000000 FUJITSU TEN (THAILAN17053NL001901917080NL0041041                                                                                                                *          20170318IMF1703182.TXT
MDEDH3362714201703                D89828070100PV1D20170323000060SPEAKER ASM                   M IMCTM S5MB11 FTTL  07070IMCT  S5 PTB  00003                    0400 SR        000000000000 FUJITSU TEN (THAILAN17068NL0012013                                                                                                                              *          20170318IMF1703182.TXT
MDEDH3362715201703                D89828070100PV1D20170323000090SPEAKER ASM                   M IMCTM S5MB11 FTTL  07070IMCT  S5 PTB  00003                    0900 SR        000000000000 FUJITSU TEN (THAILAN17066NL001902017076NL0007007                                                                                                                *          20170318IMF1703182.TXT
MDEDH3362716201703                D89828070100PV1D20170323000150SPEAKER ASM                   M IMCTM S5MB11 FTTL  07070IMCT  S5 PTB  00003                    1300 SR        000000000000 FUJITSU TEN (THAILAN17053NL002002017059NL000700717060NL001301317074NL002102117080NL0042042                                                                      *          20170318IMF1703182.TXT
MDEDH3362717201703                D89828070100PV1D20170323000030SPEAKER ASM                   M IMCTM S5MB11 FTTL  07070IMCT  S5 PTB  00003                    1600 SR        000000000000 FUJITSU TEN (THAILAN17066NL0021021                                                                                                                              *          20170318IMF1703182.TXT
MDEDH3362718201703                D89828070100PV1D20170323000030SPEAKER ASM                   M IMCTM S5MB11 FTTL  07070IMCT  S5 PTB  00003                    2100 SR        000000000000 FUJITSU TEN (THAILAN17080NL0043043                                                                                                                              *          20170318IMF1703182.TXT
MDEDH3362719201703                D89828070100PV4D20170322000030SPEAKER ASM                   M IMCTM S0FL05 FTTL  07070IMCT  S0 PTB  00003                    2100 SR        000000000000 FUJITSU TEN (THAILAN17026NU0002002                                                                                                                              *          20170318IMF1703182.TXT
MDEDH3362720201703                D89828070100PV4D20170323000030SPEAKER ASM                   M IMCTM S0FL05 FTTL  07070IMCT  S0 PTB  00003                    0900 SR        000000000000 FUJITSU TEN (THAILAN17081NU0010010                                                                                                                              *          20170318IMF1703182.TXT
MDEDH3362721201703                D89828070100PV4D20170323000030SPEAKER ASM                   M IMCTM S0FL05 FTTL  07070IMCT  S0 PTB  00003                    1300 SR        000000000000 FUJITSU TEN (THAILAN17031MU0006006                                                                                                                              *          20170318IMF1703182.TXT
MDEDH3362722201703                D89828070200PV1D20170322000030SPEAKER ASM                   M IMCTM S5MA14 FTTL  07070IMCT  S5 PTB  00005                    2100 SR        000000000000 FUJITSU TEN (THAILAN17072NL0020020                                                                                                                              *          20170318IMF1703182.TXT
MDEDH3362723201703                D89828070200PV1D20170322000060SPEAKER ASM                   M IMCTM S5MA14 FTTL  07070IMCT  S5 PTB  00005                    2230 SR        000000000000 FUJITSU TEN (THAILAN17059NL000600617070NL0002002                                                                                                                *          20170318IMF1703182.TXT
MDEDH3362724201703                D89828070200PV1D20170323000030SPEAKER ASM                   M IMCTM S5MA14 FTTL  07070IMCT  S5 PTB  00005                    0230 SR        000000000000 FUJITSU TEN (THAILAN17080NL0041041                                                                                                                              *          20170318IMF1703182.TXT
MDEDH3362725201703                D89828070200PV1D20170323000030SPEAKER ASM                   M IMCTM S5MA14 FTTL  07070IMCT  S5 PTB  00005                    0900 SR        000000000000 FUJITSU TEN (THAILAN17076NL0007007                                                                                                                              *          20170318IMF1703182.TXT
MDEDH3362726201703                D89828070200PV1D20170323000120SPEAKER ASM                   M IMCTM S5MA14 FTTL  07070IMCT  S5 PTB  00005                    1300 SR        000000000000 FUJITSU TEN (THAILAN17059NL000700717060NL001301317074NL002102117080NL0042042                                                                                    *          20170318IMF1703182.TXT
MDEDH3362727201703                D89828070200PV1D20170323000030SPEAKER ASM                   M IMCTM S5MA14 FTTL  07070IMCT  S5 PTB  00005                    2100 SR        000000000000 FUJITSU TEN (THAILAN17080NL0043043                                                                                                                              *          20170318IMF1703182.TXT
MDEDH3362728201703                D89828070200PV4D20170322000030SPEAKER ASM                   M IMCTM S0FR05 FTTL  07070IMCT  S0 PTB  00005                    2100 SR        000000000000 FUJITSU TEN (THAILAN17026NU0002002                                                                                                                              *          20170318IMF1703182.TXT
MDEDH3362729201703                D89828070200PV4D20170323000030SPEAKER ASM                   M IMCTM S0FR05 FTTL  07070IMCT  S0 PTB  00005                    0900 SR        000000000000 FUJITSU TEN (THAILAN17081NU0010010                                                                                                                              *          20170318IMF1703182.TXT
MDEDH3362730201703                D89828070200PV4D20170323000030SPEAKER ASM                   M IMCTM S0FR05 FTTL  07070IMCT  S0 PTB  00005                    1300 SR        000000000000 FUJITSU TEN (THAILAN17031MU0006006                                                                                                                              *          20170318IMF1703182.TXT
MDEDH3362731201703                D89828070300PT1D20170322000060SPEAKER ASM                   M IMCTM S5NB082FTTL  07070IMCT  S5 PTB  00015                    2100 SR        000000000000 FUJITSU TEN (THAILAN17068NL001101117072NL0020020                                                                                                                *          20170318IMF1703182.TXT
MDEDH3362732201703                D89828070300PT1D20170322000150SPEAKER ASM                   M IMCTM S5NB082FTTL  07070IMCT  S5 PTB  00015                    2230 SR        000000000000 FUJITSU TEN (THAILAN17056NL001601617059NL000600617066NL001701817070NL0002002                                                                                    *          20170318IMF1703182.TXT
MDEDH3362733201703                D89828070300PT1D20170323000060SPEAKER ASM                   M IMCTM S5NB082FTTL  07070IMCT  S5 PTB  00015                    0230 SR        000000000000 FUJITSU TEN (THAILAN17053NL001901917080NL0041041                                                                                                                *          20170318IMF1703182.TXT
MDEDH3362734201703                D89828070300PT1D20170323000060SPEAKER ASM                   M IMCTM S5NB082FTTL  07070IMCT  S5 PTB  00015                    0400 SR        000000000000 FUJITSU TEN (THAILAN17068NL0012013                                                                                                                              *          20170318IMF1703182.TXT
MDEDH3362735201703                D89828070300PT1D20170323000090SPEAKER ASM                   M IMCTM S5NB082FTTL  07070IMCT  S5 PTB  00015                    0900 SR        000000000000 FUJITSU TEN (THAILAN17066NL001902017076NL0007007                                                                                                                *          20170318IMF1703182.TXT
MDEDH3362736201703                D89828070300PT1D20170323000150SPEAKER ASM                   M IMCTM S5NB082FTTL  07070IMCT  S5 PTB  00015                    1300 SR        000000000000 FUJITSU TEN (THAILAN17053NL002002017059NL000700717060NL001301317074NL002102117080NL0042042                                                                      *          20170318IMF1703182.TXT
MDEDH3362737201703                D89828070300PT1D20170323000030SPEAKER ASM                   M IMCTM S5NB082FTTL  07070IMCT  S5 PTB  00015                    1600 SR        000000000000 FUJITSU TEN (THAILAN17066NL0021021                                                                                                                              *          20170318IMF1703182.TXT
MDEDH3362738201703                D89828070300PT1D20170323000030SPEAKER ASM                   M IMCTM S5NB082FTTL  07070IMCT  S5 PTB  00015                    2100 SR        000000000000 FUJITSU TEN (THAILAN17080NL0043043                                                                                                                              *          20170318IMF1703182.TXT
MDEDH3362739201703                D89828070300PT4D20170322000030SPEAKER ASM                   M IMCTM S9TS02 FTTL  07070IMCT  S9 PTB  00015                    2100 SR        000000000000 FUJITSU TEN (THAILAN17026NU0002002                                                                                                                              *          20170318IMF1703182.TXT
MDEDH3362740201703                D89828070300PT4D20170323000030SPEAKER ASM                   M IMCTM S9TS02 FTTL  07070IMCT  S9 PTB  00015                    0900 SR        000000000000 FUJITSU TEN (THAILAN17081NU0010010                                                                                                                              *          20170318IMF1703182.TXT
MDEDH3362741201703                D89828070300PT4D20170323000030SPEAKER ASM                   M IMCTM S9TS02 FTTL  07070IMCT  S9 PTB  00015                    1300 SR        000000000000 FUJITSU TEN (THAILAN17031MU0006006                                                                                                                              *          20170318IMF1703182.TXT
MDEDH3362742201703                D89829645700PT1D20170322000015RADIO;ASM DVD                 M IMCTM S5NC06 FTTL  07070IMCT  S5 X    00003                    2100 SR        000000000000 FUJITSU TEN (THAILAN17072NL0020020                                                                                                                              *          20170318IMF1703182.TXT
MDEDH3362743201703                D89829645700PT1D20170322000015RADIO;ASM DVD                 M IMCTM S5NC06 FTTL  07070IMCT  S5 X    00003                    2230 SR        000000000000 FUJITSU TEN (THAILAN17070NL0002002                                                                                                                              *          20170318IMF1703182.TXT
MDEDH3362744201703                D89829645700PT1D20170323000015RADIO;ASM DVD                 M IMCTM S5NC06 FTTL  07070IMCT  S5 X    00003                    0230 SR        000000000000 FUJITSU TEN (THAILAN17053NL0019019                                                                                                                              *          20170318IMF1703182.TXT
MDEDH3362745201703                D89829645700PT1D20170323000030RADIO;ASM DVD                 M IMCTM S5NC06 FTTL  07070IMCT  S5 X    00003                    1300 SR        000000000000 FUJITSU TEN (THAILAN17053NL002002017074NL0021021                                                                                                                *          20170318IMF1703182.TXT
MDEUH3245701201703                D89828070100PT4U20170322000030SPEAKER ASM                   M IMCTM S0FL05 FTTL  07070IMCT  S0 PTB  00003                    2230 SR        000000000000 FUJITSU TEN (THAILAN18023TU0020020                                                                                                                              *          20170318IMF1703182.TXT
MDEUH3245702201703                D89828070100PT4U20170323000030SPEAKER ASM                   M IMCTM S0FL05 FTTL  07070IMCT  S0 PTB  00003                    0230 SR        000000000000 FUJITSU TEN (THAILAN170C13U0080080                                                                                                                              *          20170318IMF1703182.TXT
MDEUH3245703201703                D89828070100PT4U20170323000030SPEAKER ASM                   M IMCTM S0FL05 FTTL  07070IMCT  S0 PTB  00003                    0400 SR        000000000000 FUJITSU TEN (THAILAN18020TU0001001                                                                                                                              *          20170318IMF1703182.TXT
MDEUH3245704201703                D89828070100PT4U20170323000030SPEAKER ASM                   M IMCTM S0FL05 FTTL  07070IMCT  S0 PTB  00003                    0900 SR        000000000000 FUJITSU TEN (THAILAN170C13U0081081                                                                                                                              *          20170318IMF1703182.TXT
MDEUH3245705201703                D89828070100PT4U20170323000030SPEAKER ASM                   M IMCTM S0FL05 FTTL  07070IMCT  S0 PTB  00003                    1600 SR        000000000000 FUJITSU TEN (THAILAN18023TU0021021                                                                                                                              *          20170318IMF1703182.TXT
MDEUH3245706201703                D89828070200PV4U20170322000030SPEAKER ASM                   M IMCTM S0FR05 FTTL  07070IMCT  S0 PTB  00005                    2230 SR        000000000000 FUJITSU TEN (THAILAN18023TU0020020                                                                                                                              *          20170318IMF1703182.TXT
MDEUH3245707201703                D89828070200PV4U20170323000030SPEAKER ASM                   M IMCTM S0FR05 FTTL  07070IMCT  S0 PTB  00005                    0230 SR        000000000000 FUJITSU TEN (THAILAN170C13U0080080                                                                                                                              *          20170318IMF1703182.TXT
MDEUH3245708201703                D89828070200PV4U20170323000030SPEAKER ASM                   M IMCTM S0FR05 FTTL  07070IMCT  S0 PTB  00005                    0400 SR        000000000000 FUJITSU TEN (THAILAN18020TU0001001                                                                                                                              *          20170318IMF1703182.TXT
MDEUH3245709201703                D89828070200PV4U20170323000030SPEAKER ASM                   M IMCTM S0FR05 FTTL  07070IMCT  S0 PTB  00005                    0900 SR        000000000000 FUJITSU TEN (THAILAN170C13U0081081                                                                                                                              *          20170318IMF1703182.TXT
MDEUH3245710201703                D89828070200PV4U20170323000030SPEAKER ASM                   M IMCTM S0FR05 FTTL  07070IMCT  S0 PTB  00005                    1600 SR        000000000000 FUJITSU TEN (THAILAN18023TU0021021                                                                                                                              *          20170318IMF1703182.TXT
MDEUH3245711201703                D89828070300PT4U20170322000030SPEAKER ASM                   M IMCTM S9TS02 FTTL  07070IMCT  S9 PTB  00015                    2230 SR        000000000000 FUJITSU TEN (THAILAN18023TU0020020                                                                                                                              *          20170318IMF1703182.TXT
MDEUH3245712201703                D89828070300PT4U20170323000030SPEAKER ASM                   M IMCTM S9TS02 FTTL  07070IMCT  S9 PTB  00015                    0230 SR        000000000000 FUJITSU TEN (THAILAN170C13U0080080                                                                                                                              *          20170318IMF1703182.TXT
MDEUH3245713201703                D89828070300PT4U20170323000030SPEAKER ASM                   M IMCTM S9TS02 FTTL  07070IMCT  S9 PTB  00015                    0400 SR        000000000000 FUJITSU TEN (THAILAN18020TU0001001                                                                                                                              *          20170318IMF1703182.TXT
MDEUH3245714201703                D89828070300PT4U20170323000030SPEAKER ASM                   M IMCTM S9TS02 FTTL  07070IMCT  S9 PTB  00015                    0900 SR        000000000000 FUJITSU TEN (THAILAN170C13U0081081                                                                                                                              *          20170318IMF1703182.TXT
MDEUH3245715201703                D89828070300PT4U20170323000030SPEAKER ASM                   M IMCTM S9TS02 FTTL  07070IMCT  S9 PTB  00015                    1600 SR        000000000000 FUJITSU TEN (THAILAN18023TU0021021                                                                                                                              *          20170318IMF1703182.TXT
