REC2017030920170309ISUZU                              33     
MAKK73039539201703D4               89805293700P3YK20170320000210SPEAKER ASM                   M IMCTM CM1    FTTL  07070IMKDC 01   PTB00003  K0                1621DES        000000000000 FUJITSU TEN (THAILAN                                                                                                                                            *G         20170309IMF1703091.TXT
MAKK73039540201703D4               89805293700P3YK20170321000240SPEAKER ASM                   M IMCTM CM1    FTTL  07070IMKDC 01   PTB00003  K0                1621DES        000000000000 FUJITSU TEN (THAILAN                                                                                                                                            *G         20170309IMF1703091.TXT
MAKK73039541201703D4               89805293700P3YK20170322000210SPEAKER ASM                   M IMCTM CM1    FTTL  07070IMKDC 01   PTB00003  K0                1621DES        000000000000 FUJITSU TEN (THAILAN                                                                                                                                            *G         20170309IMF1703091.TXT
MAKK73039542201703D4               89805293700P3YK20170323000240SPEAKER ASM                   M IMCTM CM1    FTTL  07070IMKDC 01   PTB00003  K0                1621DES        000000000000 FUJITSU TEN (THAILAN                                                                                                                                            *G         20170309IMF1703091.TXT
MAKK73039543201703D4               89805293700P3YK20170324000240SPEAKER ASM                   M IMCTM CM1    FTTL  07070IMKDC 01   PTB00003  K0                1621DES        000000000000 FUJITSU TEN (THAILAN                                                                                                                                            *G         20170309IMF1703091.TXT
MAKK73039544201703D4               89805293700P3YK20170325000240SPEAKER ASM                   M IMCTM CM1    FTTL  07070IMKDC 01   PTB00003  K0                1621DES        000000000000 FUJITSU TEN (THAILAN                                                                                                                                            *G         20170309IMF1703091.TXT
MAKK73039545201703D4               89805294000P3YK20170321000030SPEAKER ASM                   M IMCTM CM1    FTTL  07070IMKDC 01   PTB00015  K0                1621DES        000000000000 FUJITSU TEN (THAILAN                                                                                                                                            *G         20170309IMF1703091.TXT
MAKK73039546201703D4               89805294000P3YK20170322000030SPEAKER ASM                   M IMCTM CM1    FTTL  07070IMKDC 01   PTB00015  K0                1621DES        000000000000 FUJITSU TEN (THAILAN                                                                                                                                            *G         20170309IMF1703091.TXT
MAKK73039547201703D4               89805294000P3YK20170323000090SPEAKER ASM                   M IMCTM CM1    FTTL  07070IMKDC 01   PTB00015  K0                1621DES        000000000000 FUJITSU TEN (THAILAN                                                                                                                                            *G         20170309IMF1703091.TXT
MAKK73039548201703D4               89805294000P3YK20170324000120SPEAKER ASM                   M IMCTM CM1    FTTL  07070IMKDC 01   PTB00015  K0                1621DES        000000000000 FUJITSU TEN (THAILAN                                                                                                                                            *G         20170309IMF1703091.TXT
MAKK73039549201703D4               89805294000P3YK20170325000030SPEAKER ASM                   M IMCTM CM1    FTTL  07070IMKDC 01   PTB00015  K0                1621DES        000000000000 FUJITSU TEN (THAILAN                                                                                                                                            *G         20170309IMF1703091.TXT
MAKK73039550201703D4               89805294100P3YK20170322000030SPEAKER ASM                   M IMCTM CM1    FTTL  07070IMKDC 01   PTB00005  K0                1621DES        000000000000 FUJITSU TEN (THAILAN                                                                                                                                            *G         20170309IMF1703091.TXT
MAKK73039551201703D4               89805294100P3YK20170323000030SPEAKER ASM                   M IMCTM CM1    FTTL  07070IMKDC 01   PTB00005  K0                1621DES        000000000000 FUJITSU TEN (THAILAN                                                                                                                                            *G         20170309IMF1703091.TXT
MAKK73039552201703D4               89805294100P3YK20170324000060SPEAKER ASM                   M IMCTM CM1    FTTL  07070IMKDC 01   PTB00005  K0                1621DES        000000000000 FUJITSU TEN (THAILAN                                                                                                                                            *G         20170309IMF1703091.TXT
MAKK73039553201703D4               89805294100P3YK20170325000030SPEAKER ASM                   M IMCTM CM1    FTTL  07070IMKDC 01   PTB00005  K0                1621DES        000000000000 FUJITSU TEN (THAILAN                                                                                                                                            *G         20170309IMF1703091.TXT
MAKK73039554201703D4               89805294200P3YK20170323000030SPEAKER ASM                   M IMCTM CM1    FTTL  07070IMKDC 01 X    00030  K0                1621DES        000000000000 FUJITSU TEN (THAILAN                                                                                                                                            *G         20170309IMF1703091.TXT
MAKK73039555201703D4               89805294200P3YK20170324000030SPEAKER ASM                   M IMCTM CM1    FTTL  07070IMKDC 01 X    00030  K0                1621DES        000000000000 FUJITSU TEN (THAILAN                                                                                                                                            *G         20170309IMF1703091.TXT
MAKK73039556201703D4               89806470400P3YK20170323000015SPEAKER ASM;RDO,              M IMCTM CM1    FTTL  07070IMKDC 01   PTB00015  K0                1621DES        000000000000 FUJITSU TEN (THAILAN                                                                                                                                            *G         20170309IMF1703091.TXT
MAKK73039557201703D4               89806470400P3YK20170324000015SPEAKER ASM;RDO,              M IMCTM CM1    FTTL  07070IMKDC 01   PTB00015  K0                1621DES        000000000000 FUJITSU TEN (THAILAN                                                                                                                                            *G         20170309IMF1703091.TXT
MAKK73039558201703D4               89825451200P3YK20170325000090SPEAKER ASM;ROOF              M IMCTM CM1    FTTL  07070IMKDC 01   PTB00015  K0                1621DES        000000000000 FUJITSU TEN (THAILAN                                                                                                                                            *G         20170309IMF1703091.TXT
MAKK73039559201703D4               89828070100P3YK20170320000180SPEAKER ASM                   M IMCTM CM1    FTTL  07070IMKDC 01 PTB  00003  K0                1621DES        000000000000 FUJITSU TEN (THAILAN                                                                                                                                            *G         20170309IMF1703091.TXT
MAKK73039560201703D4               89828070100P3YK20170321000180SPEAKER ASM                   M IMCTM CM1    FTTL  07070IMKDC 01 PTB  00003  K0                1621DES        000000000000 FUJITSU TEN (THAILAN                                                                                                                                            *G         20170309IMF1703091.TXT
MAKK73039561201703D4               89828070100P3YK20170322000180SPEAKER ASM                   M IMCTM CM1    FTTL  07070IMKDC 01 PTB  00003  K0                1621DES        000000000000 FUJITSU TEN (THAILAN                                                                                                                                            *G         20170309IMF1703091.TXT
MAKK73039562201703D4               89828070100P3YK20170323000180SPEAKER ASM                   M IMCTM CM1    FTTL  07070IMKDC 01 PTB  00003  K0                1621DES        000000000000 FUJITSU TEN (THAILAN                                                                                                                                            *G         20170309IMF1703091.TXT
MAKK73039563201703D4               89828070100P3YK20170324000180SPEAKER ASM                   M IMCTM CM1    FTTL  07070IMKDC 01 PTB  00003  K0                1621DES        000000000000 FUJITSU TEN (THAILAN                                                                                                                                            *G         20170309IMF1703091.TXT
MAKK73039564201703D4               89828070100P3YK20170325000150SPEAKER ASM                   M IMCTM CM1    FTTL  07070IMKDC 01 PTB  00003  K0                1621DES        000000000000 FUJITSU TEN (THAILAN                                                                                                                                            *G         20170309IMF1703091.TXT
MAKK73039565201703D4               89828070200P3YK20170320000030SPEAKER ASM                   M IMCTM CM1    FTTL  07070IMKDC 01 PTB  00005  K0                1621DES        000000000000 FUJITSU TEN (THAILAN                                                                                                                                            *G         20170309IMF1703091.TXT
MAKK73039566201703D4               89828070200P3YK20170322000030SPEAKER ASM                   M IMCTM CM1    FTTL  07070IMKDC 01 PTB  00005  K0                1621DES        000000000000 FUJITSU TEN (THAILAN                                                                                                                                            *G         20170309IMF1703091.TXT
MAKK73039567201703D4               89828070200P3YK20170325000060SPEAKER ASM                   M IMCTM CM1    FTTL  07070IMKDC 01 PTB  00005  K0                1621DES        000000000000 FUJITSU TEN (THAILAN                                                                                                                                            *G         20170309IMF1703091.TXT
MAKK73039568201703D4               89828070300P3YK20170320000090SPEAKER ASM                   M IMCTM CM1    FTTL  07070IMKDC 01 PTB  00015  K0                1621DES        000000000000 FUJITSU TEN (THAILAN                                                                                                                                            *G         20170309IMF1703091.TXT
MAKK73039569201703D4               89828070300P3YK20170322000030SPEAKER ASM                   M IMCTM CM1    FTTL  07070IMKDC 01 PTB  00015  K0                1621DES        000000000000 FUJITSU TEN (THAILAN                                                                                                                                            *G         20170309IMF1703091.TXT
MAKK73039570201703D4               89828070300P3YK20170325000090SPEAKER ASM                   M IMCTM CM1    FTTL  07070IMKDC 01 PTB  00015  K0                1621DES        000000000000 FUJITSU TEN (THAILAN                                                                                                                                            *G         20170309IMF1703091.TXT
MAKK73039571201703D4               89831228700P3YK20170325000015RADIO;AM/FM,CD                M IMCTM CM1    FTTL  07070IMKDC 01 PTB  00003  K0                1621DES        000000000000 FUJITSU TEN (THAILAN                                                                                                                                            *G         20170309IMF1703091.TXT
