REC2017030120170302ISUZU                              3      
MADDH3600311201706                 89828070100PV1D20170508000006SPEAKER ASM                   M IMCTM ST00000FTTL  07070IMCT  ST PTB  00004  DC                0000 SR        000000000000 FUJITSU TEN (THAILAN180L1AL0001001180L1BL0001001180L1CL0001001                                                                                                  *P         20170301IMF1703018.TXT
MADDH3600312201706                 89828070200PV1D20170508000004SPEAKER ASM                   M IMCTM ST00000FTTL  07070IMCT  ST PTB  00005  DC                0000 SR        000000000000 FUJITSU TEN (THAILAN180L1BL0001001180L1CL0001001                                                                                                                *P         20170301IMF1703018.TXT
MADDH3600313201706                 89828070300PT1D20170508000006SPEAKER ASM                   M IMCTM ST00000FTTL  07070IMCT  ST PTB  00015  DC                0000 SR        000000000000 FUJITSU TEN (THAILAN180L1AL0001001180L1BL0001001180L1CL0001001                                                                                                  *P         20170301IMF1703018.TXT
