REC2017032920170329ISUZU                              53     
MDDDH3240678201704                D89821984430PT1D20170401000030RADIO;AM/FM,CD                M IMCTM S5NC06 FTTL  07070IMCT  S5 PTB  00005                    2100 SR        000000000000 FUJITSU TEN (THAILAN170KNDL0087087                                                                                                                              *          20170329IMF1703296.TXT
MDDDH3240679201704                D89821984430PT1D20170401000030RADIO;AM/FM,CD                M IMCTM S5NC06 FTTL  07070IMCT  S5 PTB  00005                    2230 SR        000000000000 FUJITSU TEN (THAILAN170KRAL0039039                                                                                                                              *          20170329IMF1703296.TXT
MDDDH3240680201704                D89821984430PT1D20170402000030RADIO;AM/FM,CD                M IMCTM S5NC06 FTTL  07070IMCT  S5 PTB  00005                    0230 SR        000000000000 FUJITSU TEN (THAILAN170KNDL0088088                                                                                                                              *          20170329IMF1703296.TXT
MDDDH3240681201704                D89821984430PT1D20170403000030RADIO;AM/FM,CD                M IMCTM S5NC06 FTTL  07070IMCT  S5 PTB  00005                    0900 SR        000000000000 FUJITSU TEN (THAILAN170KNCL0060060                                                                                                                              *          20170329IMF1703296.TXT
MDDDH3240682201704                D89821984430PT4D20170403000030RADIO;AM/FM,CD                M IMCTM S9CO001FTTL  07070IMCT  S9 PTB  00005                    1300 SR        000000000000 FUJITSU TEN (THAILAN170KRAU0004004                                                                                                                              *          20170329IMF1703296.TXT
MDDDH3240683201704                D89828070100PV1D20170401000060SPEAKER ASM                   M IMCTM S5MB11 FTTL  07070IMCT  S5 PTB  00003                    2100 SR        000000000000 FUJITSU TEN (THAILAN170KNDL0087087                                                                                                                              *          20170329IMF1703296.TXT
MDDDH3240684201704                D89828070100PV1D20170401000060SPEAKER ASM                   M IMCTM S5MB11 FTTL  07070IMCT  S5 PTB  00003                    2230 SR        000000000000 FUJITSU TEN (THAILAN170KRAL0039039                                                                                                                              *          20170329IMF1703296.TXT
MDDDH3240685201704                D89828070100PV1D20170402000060SPEAKER ASM                   M IMCTM S5MB11 FTTL  07070IMCT  S5 PTB  00003                    0230 SR        000000000000 FUJITSU TEN (THAILAN170KNDL0088088                                                                                                                              *          20170329IMF1703296.TXT
MDDDH3240686201704                D89828070100PV1D20170402000120SPEAKER ASM                   M IMCTM S5MB11 FTTL  07070IMCT  S5 PTB  00003                    0400 SR        000000000000 FUJITSU TEN (THAILAN170KRFL0064064170KRTL0018018                                                                                                                *          20170329IMF1703296.TXT
MDDDH3240687201704                D89828070100PV1D20170403000120SPEAKER ASM                   M IMCTM S5MB11 FTTL  07070IMCT  S5 PTB  00003                    0900 SR        000000000000 FUJITSU TEN (THAILAN170KNCL0060060170KRSL0032032                                                                                                                *          20170329IMF1703296.TXT
MDDDH3240688201704                D89828070100PV1D20170403000060SPEAKER ASM                   M IMCTM S5MB11 FTTL  07070IMCT  S5 PTB  00003                    1300 SR        000000000000 FUJITSU TEN (THAILAN170KRGL0005005                                                                                                                              *          20170329IMF1703296.TXT
MDDDH3240689201704                D89828070100PV4D20170403000060SPEAKER ASM                   M IMCTM S0FL05 FTTL  07070IMCT  S0 PTB  00003                    1300 SR        000000000000 FUJITSU TEN (THAILAN170KRAU0004004                                                                                                                              *          20170329IMF1703296.TXT
MDDDH3240690201704                D89828070200PV1D20170402000120SPEAKER ASM                   M IMCTM S5MA14 FTTL  07070IMCT  S5 PTB  00005                    0400 SR        000000000000 FUJITSU TEN (THAILAN170KRFL0064064170KRTL0018018                                                                                                                *          20170329IMF1703296.TXT
MDDDH3240691201704                D89828070200PV1D20170403000060SPEAKER ASM                   M IMCTM S5MA14 FTTL  07070IMCT  S5 PTB  00005                    0900 SR        000000000000 FUJITSU TEN (THAILAN170KRSL0032032                                                                                                                              *          20170329IMF1703296.TXT
MDDDH3240692201704                D89828070200PV1D20170403000060SPEAKER ASM                   M IMCTM S5MA14 FTTL  07070IMCT  S5 PTB  00005                    1300 SR        000000000000 FUJITSU TEN (THAILAN170KRGL0005005                                                                                                                              *          20170329IMF1703296.TXT
MDDDH3240693201704                D89828070300PT1D20170402000120SPEAKER ASM                   M IMCTM S5NB082FTTL  07070IMCT  S5 PTB  00015                    0400 SR        000000000000 FUJITSU TEN (THAILAN170KRFL0064064170KRTL0018018                                                                                                                *          20170329IMF1703296.TXT
MDDDH3240694201704                D89828070300PT1D20170403000060SPEAKER ASM                   M IMCTM S5NB082FTTL  07070IMCT  S5 PTB  00015                    0900 SR        000000000000 FUJITSU TEN (THAILAN170KRSL0032032                                                                                                                              *          20170329IMF1703296.TXT
MDDDH3240695201704                D89828070300PT1D20170403000060SPEAKER ASM                   M IMCTM S5NB082FTTL  07070IMCT  S5 PTB  00015                    1300 SR        000000000000 FUJITSU TEN (THAILAN170KRGL0005005                                                                                                                              *          20170329IMF1703296.TXT
MDDDH3240696201704                D89829645900PT1D20170402000060RADIO;ASM DVD                 M IMCTM S5NC06 FTTL  07070IMCT  S5 CPB  00003                    0400 SR        000000000000 FUJITSU TEN (THAILAN170KRFL0064064170KRTL0018018                                                                                                                *          20170329IMF1703296.TXT
MDDDH3240697201704                D89829645900PT1D20170403000030RADIO;ASM DVD                 M IMCTM S5NC06 FTTL  07070IMCT  S5 CPB  00003                    1300 SR        000000000000 FUJITSU TEN (THAILAN170KRGL0005005                                                                                                                              *          20170329IMF1703296.TXT
MDDUH3261879201704                D89828070100PT4U20170401000060SPEAKER ASM                   M IMCTM S0FL05 FTTL  07070IMCT  S0 PTB  00003                    2230 SR        000000000000 FUJITSU TEN (THAILAN180LUDU0079080                                                                                                                              *          20170329IMF1703296.TXT
MDDUH3261880201704                D89828070100PT4U20170403000060SPEAKER ASM                   M IMCTM S0FL05 FTTL  07070IMCT  S0 PTB  00003                    0900 SR        000000000000 FUJITSU TEN (THAILAN180LUDU0081081180LUEU0045045                                                                                                                *          20170329IMF1703296.TXT
MDDUH3261881201704                D89828070100PT4U20170403000060SPEAKER ASM                   M IMCTM S0FL05 FTTL  07070IMCT  S0 PTB  00003                    1600 SR        000000000000 FUJITSU TEN (THAILAN180LUDU0082082180LUEU0046046                                                                                                                *          20170329IMF1703296.TXT
MDDUH3261882201704                D89828070200PV4U20170401000060SPEAKER ASM                   M IMCTM S0FR05 FTTL  07070IMCT  S0 PTB  00005                    2230 SR        000000000000 FUJITSU TEN (THAILAN180LUDU0079080                                                                                                                              *          20170329IMF1703296.TXT
MDDUH3261883201704                D89828070200PV4U20170403000060SPEAKER ASM                   M IMCTM S0FR05 FTTL  07070IMCT  S0 PTB  00005                    0900 SR        000000000000 FUJITSU TEN (THAILAN180LUDU0081081180LUEU0045045                                                                                                                *          20170329IMF1703296.TXT
MDDUH3261884201704                D89828070200PV4U20170403000060SPEAKER ASM                   M IMCTM S0FR05 FTTL  07070IMCT  S0 PTB  00005                    1600 SR        000000000000 FUJITSU TEN (THAILAN180LUDU0082082180LUEU0046046                                                                                                                *          20170329IMF1703296.TXT
MDDUH3261885201704                D89828070300PT4U20170401000060SPEAKER ASM                   M IMCTM S9TS02 FTTL  07070IMCT  S9 PTB  00015                    2230 SR        000000000000 FUJITSU TEN (THAILAN180LUDU0079080                                                                                                                              *          20170329IMF1703296.TXT
MDDUH3261886201704                D89828070300PT4U20170403000060SPEAKER ASM                   M IMCTM S9TS02 FTTL  07070IMCT  S9 PTB  00015                    0900 SR        000000000000 FUJITSU TEN (THAILAN180LUDU0081081180LUEU0045045                                                                                                                *          20170329IMF1703296.TXT
MDDUH3261887201704                D89828070300PT4U20170403000060SPEAKER ASM                   M IMCTM S9TS02 FTTL  07070IMCT  S9 PTB  00015                    1600 SR        000000000000 FUJITSU TEN (THAILAN180LUDU0082082180LUEU0046046                                                                                                                *          20170329IMF1703296.TXT
MDEDH3406500201704                D89805293700PV1D20170403000030SPEAKER ASM                   M IMCTM S5MB11 FTTL  07070IMCT  S5 PTB  00003                    1300 SR        000000000000 FUJITSU TEN (THAILAN15018FL0106106                                                                                                                              *          20170329IMF1703296.TXT
MDEDH3406501201704                D89805293700PV1D20170403000030SPEAKER ASM                   M IMCTM S5MB11 FTTL  07070IMCT  S5 PTB  00003                    1600 SR        000000000000 FUJITSU TEN (THAILAN15018FL0107107                                                                                                                              *          20170329IMF1703296.TXT
MDEDH3406502201704                D89828070100PV1D20170401000030SPEAKER ASM                   M IMCTM S5MB11 FTTL  07070IMCT  S5 PTB  00003                    2100 SR        000000000000 FUJITSU TEN (THAILAN17070NL0005005                                                                                                                              *          20170329IMF1703296.TXT
MDEDH3406503201704                D89828070100PV1D20170401000060SPEAKER ASM                   M IMCTM S5MB11 FTTL  07070IMCT  S5 PTB  00003                    2230 SR        000000000000 FUJITSU TEN (THAILAN17080NL0052053                                                                                                                              *          20170329IMF1703296.TXT
MDEDH3406504201704                D89828070100PV1D20170403000030SPEAKER ASM                   M IMCTM S5MB11 FTTL  07070IMCT  S5 PTB  00003                    1300 SR        000000000000 FUJITSU TEN (THAILAN17050ML0014014                                                                                                                              *          20170329IMF1703296.TXT
MDEDH3406505201704                D89828070100PV1D20170403000090SPEAKER ASM                   M IMCTM S5MB11 FTTL  07070IMCT  S5 PTB  00003                    1600 SR        000000000000 FUJITSU TEN (THAILAN17015PL000700717028NL000800817050ML0015015                                                                                                  *          20170329IMF1703296.TXT
MDEDH3406506201704                D89828070200PV1D20170401000030SPEAKER ASM                   M IMCTM S5MA14 FTTL  07070IMCT  S5 PTB  00005                    2100 SR        000000000000 FUJITSU TEN (THAILAN17070NL0005005                                                                                                                              *          20170329IMF1703296.TXT
MDEDH3406507201704                D89828070200PV1D20170401000060SPEAKER ASM                   M IMCTM S5MA14 FTTL  07070IMCT  S5 PTB  00005                    2230 SR        000000000000 FUJITSU TEN (THAILAN17080NL0052053                                                                                                                              *          20170329IMF1703296.TXT
MDEDH3406508201704                D89828070200PV1D20170403000030SPEAKER ASM                   M IMCTM S5MA14 FTTL  07070IMCT  S5 PTB  00005                    1600 SR        000000000000 FUJITSU TEN (THAILAN17015PL0007007                                                                                                                              *          20170329IMF1703296.TXT
MDEDH3406509201704                D89828070300PT1D20170401000030SPEAKER ASM                   M IMCTM S5NB082FTTL  07070IMCT  S5 PTB  00015                    2100 SR        000000000000 FUJITSU TEN (THAILAN17070NL0005005                                                                                                                              *          20170329IMF1703296.TXT
MDEDH3406510201704                D89828070300PT1D20170401000060SPEAKER ASM                   M IMCTM S5NB082FTTL  07070IMCT  S5 PTB  00015                    2230 SR        000000000000 FUJITSU TEN (THAILAN17080NL0052053                                                                                                                              *          20170329IMF1703296.TXT
MDEDH3406511201704                D89828070300PT1D20170403000030SPEAKER ASM                   M IMCTM S5NB082FTTL  07070IMCT  S5 PTB  00015                    1600 SR        000000000000 FUJITSU TEN (THAILAN17015PL0007007                                                                                                                              *          20170329IMF1703296.TXT
MDEDH3406512201704                D89829645300PT1D20170403000015RADIO;ASM DVD                 M IMCTM S5NC06 FTTL  07070IMCT  S5 PTB  00003                    1600 SR        000000000000 FUJITSU TEN (THAILAN17015PL0007007                                                                                                                              *          20170329IMF1703296.TXT
MDEDH3406513201704                D89829645700PT1D20170401000015RADIO;ASM DVD                 M IMCTM S5NC06 FTTL  07070IMCT  S5 X    00003                    2100 SR        000000000000 FUJITSU TEN (THAILAN17070NL0005005                                                                                                                              *          20170329IMF1703296.TXT
MDEUH3270793201704                D89828070100PT4U20170402000030SPEAKER ASM                   M IMCTM S0FL05 FTTL  07070IMCT  S0 PTB  00003                    0230 SR        000000000000 FUJITSU TEN (THAILAN18018TU0011011                                                                                                                              *          20170329IMF1703296.TXT
MDEUH3270794201704                D89828070100PT4U20170402000030SPEAKER ASM                   M IMCTM S0FL05 FTTL  07070IMCT  S0 PTB  00003                    0400 SR        000000000000 FUJITSU TEN (THAILAN18016TU0001001                                                                                                                              *          20170329IMF1703296.TXT
MDEUH3270795201704                D89828070100PT4U20170403000030SPEAKER ASM                   M IMCTM S0FL05 FTTL  07070IMCT  S0 PTB  00003                    0900 SR        000000000000 FUJITSU TEN (THAILAN18020TU0002002                                                                                                                              *          20170329IMF1703296.TXT
MDEUH3270796201704                D89828070200PV4U20170402000030SPEAKER ASM                   M IMCTM S0FR05 FTTL  07070IMCT  S0 PTB  00005                    0230 SR        000000000000 FUJITSU TEN (THAILAN18018TU0011011                                                                                                                              *          20170329IMF1703296.TXT
MDEUH3270797201704                D89828070200PV4U20170402000030SPEAKER ASM                   M IMCTM S0FR05 FTTL  07070IMCT  S0 PTB  00005                    0400 SR        000000000000 FUJITSU TEN (THAILAN18016TU0001001                                                                                                                              *          20170329IMF1703296.TXT
MDEUH3270798201704                D89828070200PV4U20170403000030SPEAKER ASM                   M IMCTM S0FR05 FTTL  07070IMCT  S0 PTB  00005                    0900 SR        000000000000 FUJITSU TEN (THAILAN18020TU0002002                                                                                                                              *          20170329IMF1703296.TXT
MDEUH3270799201704                D89828070300PT4U20170402000030SPEAKER ASM                   M IMCTM S9TS02 FTTL  07070IMCT  S9 PTB  00015                    0230 SR        000000000000 FUJITSU TEN (THAILAN18018TU0011011                                                                                                                              *          20170329IMF1703296.TXT
MDEUH3270800201704                D89828070300PT4U20170402000030SPEAKER ASM                   M IMCTM S9TS02 FTTL  07070IMCT  S9 PTB  00015                    0400 SR        000000000000 FUJITSU TEN (THAILAN18016TU0001001                                                                                                                              *          20170329IMF1703296.TXT
MDEUH3270801201704                D89828070300PT4U20170403000030SPEAKER ASM                   M IMCTM S9TS02 FTTL  07070IMCT  S9 PTB  00015                    0900 SR        000000000000 FUJITSU TEN (THAILAN18020TU0002002                                                                                                                              *          20170329IMF1703296.TXT
MDEUH3270802201704                D89836135900PT4U20170402000015RADIO;ASM DVD                 M IMCTM S9CO001FTTL  07070IMCT  S9*PTB  00003                    0400 SR        000000000000 FUJITSU TEN (THAILAN18016TU0001001                                                                                                                              *          20170329IMF1703296.TXT
