REC2017030120170301ISUZU                              59     
MDDUH3200529201703                D89828070100PT4U20170305000030SPEAKER ASM                   M IMCTM S0FL05 FTTL  07070IMCT  S0 PTB  00004                    0230 SR        000000000000 FUJITSU TEN (THAILAN180LUDU0048048                                                                                                                              *          20170301IMF1703014.TXT
MDDUH3200530201703                D89828070100PT4U20170305000030SPEAKER ASM                   M IMCTM S0FL05 FTTL  07070IMCT  S0 PTB  00004                    0400 SR        000000000000 FUJITSU TEN (THAILAN180LUFU0007007                                                                                                                              *          20170301IMF1703014.TXT
MDDUH3200531201703                D89828070100PT4U20170306000030SPEAKER ASM                   M IMCTM S0FL05 FTTL  07070IMCT  S0 PTB  00004                    0900 SR        000000000000 FUJITSU TEN (THAILAN180LUEU0019019                                                                                                                              *          20170301IMF1703014.TXT
MDDUH3200532201703                D89828070100PT4U20170306000030SPEAKER ASM                   M IMCTM S0FL05 FTTL  07070IMCT  S0 PTB  00004                    1300 SR        000000000000 FUJITSU TEN (THAILAN180LUDU0049049                                                                                                                              *          20170301IMF1703014.TXT
MDDUH3200533201703                D89828070100PT4U20170306000030SPEAKER ASM                   M IMCTM S0FL05 FTTL  07070IMCT  S0 PTB  00004                    1600 SR        000000000000 FUJITSU TEN (THAILAN180LUEU0020020                                                                                                                              *          20170301IMF1703014.TXT
MDDUH3200534201703                D89828070200PV4U20170305000030SPEAKER ASM                   M IMCTM S0FR05 FTTL  07070IMCT  S0 PTB  00005                    0230 SR        000000000000 FUJITSU TEN (THAILAN180LUDU0048048                                                                                                                              *          20170301IMF1703014.TXT
MDDUH3200535201703                D89828070200PV4U20170305000030SPEAKER ASM                   M IMCTM S0FR05 FTTL  07070IMCT  S0 PTB  00005                    0400 SR        000000000000 FUJITSU TEN (THAILAN180LUFU0007007                                                                                                                              *          20170301IMF1703014.TXT
MDDUH3200536201703                D89828070200PV4U20170306000030SPEAKER ASM                   M IMCTM S0FR05 FTTL  07070IMCT  S0 PTB  00005                    0900 SR        000000000000 FUJITSU TEN (THAILAN180LUEU0019019                                                                                                                              *          20170301IMF1703014.TXT
MDDUH3200537201703                D89828070200PV4U20170306000030SPEAKER ASM                   M IMCTM S0FR05 FTTL  07070IMCT  S0 PTB  00005                    1300 SR        000000000000 FUJITSU TEN (THAILAN180LUDU0049049                                                                                                                              *          20170301IMF1703014.TXT
MDDUH3200538201703                D89828070200PV4U20170306000030SPEAKER ASM                   M IMCTM S0FR05 FTTL  07070IMCT  S0 PTB  00005                    1600 SR        000000000000 FUJITSU TEN (THAILAN180LUEU0020020                                                                                                                              *          20170301IMF1703014.TXT
MDDUH3200539201703                D89828070300PT4U20170305000030SPEAKER ASM                   M IMCTM S9TS02 FTTL  07070IMCT  S9 PTB  00015                    0230 SR        000000000000 FUJITSU TEN (THAILAN180LUDU0048048                                                                                                                              *          20170301IMF1703014.TXT
MDDUH3200540201703                D89828070300PT4U20170305000030SPEAKER ASM                   M IMCTM S9TS02 FTTL  07070IMCT  S9 PTB  00015                    0400 SR        000000000000 FUJITSU TEN (THAILAN180LUFU0007007                                                                                                                              *          20170301IMF1703014.TXT
MDDUH3200541201703                D89828070300PT4U20170306000030SPEAKER ASM                   M IMCTM S9TS02 FTTL  07070IMCT  S9 PTB  00015                    0900 SR        000000000000 FUJITSU TEN (THAILAN180LUEU0019019                                                                                                                              *          20170301IMF1703014.TXT
MDDUH3200542201703                D89828070300PT4U20170306000030SPEAKER ASM                   M IMCTM S9TS02 FTTL  07070IMCT  S9 PTB  00015                    1300 SR        000000000000 FUJITSU TEN (THAILAN180LUDU0049049                                                                                                                              *          20170301IMF1703014.TXT
MDDUH3200543201703                D89828070300PT4U20170306000030SPEAKER ASM                   M IMCTM S9TS02 FTTL  07070IMCT  S9 PTB  00015                    1600 SR        000000000000 FUJITSU TEN (THAILAN180LUEU0020020                                                                                                                              *          20170301IMF1703014.TXT
MDEDH3202459201703                D89805293700PV1D20170304000030SPEAKER ASM                   M IMCTM S5MB11 FTTL  07070IMCT  S5 PTB  00003                    2230 SR        000000000000 FUJITSU TEN (THAILAN15019FL0165165                                                                                                                              *          20170301IMF1703014.TXT
MDEDH3202460201703                D89827952200PT1D20170306000030RADIO;AM/FM,CD,D              M IMCTM S5NC06 FTTL  07070IMCT  S5 X    00003                    0900 SR        000000000000 FUJITSU TEN (THAILAN17056NL0001002                                                                                                                              *          20170301IMF1703014.TXT
MDEDH3202461201703                D89827952200PT1D20170306000015RADIO;AM/FM,CD,D              M IMCTM S5NC06 FTTL  07070IMCT  S5 X    00003                    1300 SR        000000000000 FUJITSU TEN (THAILAN17056NL0003003                                                                                                                              *          20170301IMF1703014.TXT
MDEDH3202462201703                D89828070100PV1D20170304000030SPEAKER ASM                   M IMCTM S5MB11 FTTL  07070IMCT  S5 PTB  00004                    2100 SR        000000000000 FUJITSU TEN (THAILAN17033QL0002002                                                                                                                              *          20170301IMF1703014.TXT
MDEDH3202463201703                D89828070100PV1D20170304000120SPEAKER ASM                   M IMCTM S5MB11 FTTL  07070IMCT  S5 PTB  00004                    2230 SR        000000000000 FUJITSU TEN (THAILAN17013QL000700717033QL000300317061PL0015016                                                                                                  *          20170301IMF1703014.TXT
MDEDH3202464201703                D89828070100PV1D20170305000060SPEAKER ASM                   M IMCTM S5MB11 FTTL  07070IMCT  S5 PTB  00004                    0230 SR        000000000000 FUJITSU TEN (THAILAN17004ML000400417023NL0009009                                                                                                                *          20170301IMF1703014.TXT
MDEDH3202465201703                D89828070100PV1D20170305000120SPEAKER ASM                   M IMCTM S5MB11 FTTL  07070IMCT  S5 PTB  00004                    0400 SR        000000000000 FUJITSU TEN (THAILAN17013QL000800817058NL000400417068ML000600617077ML0003003                                                                                    *          20170301IMF1703014.TXT
MDEDH3202466201703                D89828070100PV1D20170306000120SPEAKER ASM                   M IMCTM S5MB11 FTTL  07070IMCT  S5 PTB  00004                    0900 SR        000000000000 FUJITSU TEN (THAILAN17010ML000901017056NL0001002                                                                                                                *          20170301IMF1703014.TXT
MDEDH3202467201703                D89828070100PV1D20170306000150SPEAKER ASM                   M IMCTM S5MB11 FTTL  07070IMCT  S5 PTB  00004                    1300 SR        000000000000 FUJITSU TEN (THAILAN17010ML001101217022ML000800817056NL000300317058NL0005005                                                                                    *          20170301IMF1703014.TXT
MDEDH3202468201703                D89828070100PV1D20170306000030SPEAKER ASM                   M IMCTM S5MB11 FTTL  07070IMCT  S5 PTB  00004                    1600 SR        000000000000 FUJITSU TEN (THAILAN17022ML0009009                                                                                                                              *          20170301IMF1703014.TXT
MDEDH3202469201703                D89828070100PV4D20170304000030SPEAKER ASM                   M IMCTM S0FL05 FTTL  07070IMCT  S0 PTB  00004                    2230 SR        000000000000 FUJITSU TEN (THAILAN17031MU0001001                                                                                                                              *          20170301IMF1703014.TXT
MDEDH3202470201703                D89828070100PV4D20170306000030SPEAKER ASM                   M IMCTM S0FL05 FTTL  07070IMCT  S0 PTB  00004                    0900 SR        000000000000 FUJITSU TEN (THAILAN17031NU0001001                                                                                                                              *          20170301IMF1703014.TXT
MDEDH3202471201703                D89828070100PV4D20170306000030SPEAKER ASM                   M IMCTM S0FL05 FTTL  07070IMCT  S0 PTB  00004                    1300 SR        000000000000 FUJITSU TEN (THAILAN17079NU0018018                                                                                                                              *          20170301IMF1703014.TXT
MDEDH3202472201703                D89828070100PV4D20170306000030SPEAKER ASM                   M IMCTM S0FL05 FTTL  07070IMCT  S0 PTB  00004                    2100 SR        000000000000 FUJITSU TEN (THAILAN17050RU0009009                                                                                                                              *          20170301IMF1703014.TXT
MDEDH3202473201703                D89828070200PV1D20170304000030SPEAKER ASM                   M IMCTM S5MA14 FTTL  07070IMCT  S5 PTB  00005                    2100 SR        000000000000 FUJITSU TEN (THAILAN17033QL0002002                                                                                                                              *          20170301IMF1703014.TXT
MDEDH3202474201703                D89828070200PV1D20170304000060SPEAKER ASM                   M IMCTM S5MA14 FTTL  07070IMCT  S5 PTB  00005                    2230 SR        000000000000 FUJITSU TEN (THAILAN17013QL000700717033QL0003003                                                                                                                *          20170301IMF1703014.TXT
MDEDH3202475201703                D89828070200PV1D20170305000030SPEAKER ASM                   M IMCTM S5MA14 FTTL  07070IMCT  S5 PTB  00005                    0230 SR        000000000000 FUJITSU TEN (THAILAN17023NL0009009                                                                                                                              *          20170301IMF1703014.TXT
MDEDH3202476201703                D89828070200PV1D20170305000060SPEAKER ASM                   M IMCTM S5MA14 FTTL  07070IMCT  S5 PTB  00005                    0400 SR        000000000000 FUJITSU TEN (THAILAN17013QL000800817058NL0004004                                                                                                                *          20170301IMF1703014.TXT
MDEDH3202477201703                D89828070200PV1D20170306000060SPEAKER ASM                   M IMCTM S5MA14 FTTL  07070IMCT  S5 PTB  00005                    1300 SR        000000000000 FUJITSU TEN (THAILAN17022ML000800817058NL0005005                                                                                                                *          20170301IMF1703014.TXT
MDEDH3202478201703                D89828070200PV1D20170306000030SPEAKER ASM                   M IMCTM S5MA14 FTTL  07070IMCT  S5 PTB  00005                    1600 SR        000000000000 FUJITSU TEN (THAILAN17022ML0009009                                                                                                                              *          20170301IMF1703014.TXT
MDEDH3202479201703                D89828070200PV4D20170304000030SPEAKER ASM                   M IMCTM S0FR05 FTTL  07070IMCT  S0 PTB  00005                    2230 SR        000000000000 FUJITSU TEN (THAILAN17031MU0001001                                                                                                                              *          20170301IMF1703014.TXT
MDEDH3202480201703                D89828070200PV4D20170306000030SPEAKER ASM                   M IMCTM S0FR05 FTTL  07070IMCT  S0 PTB  00005                    1300 SR        000000000000 FUJITSU TEN (THAILAN17079NU0018018                                                                                                                              *          20170301IMF1703014.TXT
MDEDH3202481201703                D89828070200PV4D20170306000030SPEAKER ASM                   M IMCTM S0FR05 FTTL  07070IMCT  S0 PTB  00005                    2100 SR        000000000000 FUJITSU TEN (THAILAN17050RU0009009                                                                                                                              *          20170301IMF1703014.TXT
MDEDH3202482201703                D89828070300PT1D20170304000030SPEAKER ASM                   M IMCTM S5NB082FTTL  07070IMCT  S5 PTB  00015                    2100 SR        000000000000 FUJITSU TEN (THAILAN17033QL0002002                                                                                                                              *          20170301IMF1703014.TXT
MDEDH3202483201703                D89828070300PT1D20170304000060SPEAKER ASM                   M IMCTM S5NB082FTTL  07070IMCT  S5 PTB  00015                    2230 SR        000000000000 FUJITSU TEN (THAILAN17013QL000700717033QL0003003                                                                                                                *          20170301IMF1703014.TXT
MDEDH3202484201703                D89828070300PT1D20170305000030SPEAKER ASM                   M IMCTM S5NB082FTTL  07070IMCT  S5 PTB  00015                    0230 SR        000000000000 FUJITSU TEN (THAILAN17023NL0009009                                                                                                                              *          20170301IMF1703014.TXT
MDEDH3202485201703                D89828070300PT1D20170305000090SPEAKER ASM                   M IMCTM S5NB082FTTL  07070IMCT  S5 PTB  00015                    0400 SR        000000000000 FUJITSU TEN (THAILAN17013QL000800817058NL000400417068ML0006006                                                                                                  *          20170301IMF1703014.TXT
MDEDH3202486201703                D89828070300PT1D20170306000060SPEAKER ASM                   M IMCTM S5NB082FTTL  07070IMCT  S5 PTB  00015                    0900 SR        000000000000 FUJITSU TEN (THAILAN17056NL0001002                                                                                                                              *          20170301IMF1703014.TXT
MDEDH3202487201703                D89828070300PT1D20170306000090SPEAKER ASM                   M IMCTM S5NB082FTTL  07070IMCT  S5 PTB  00015                    1300 SR        000000000000 FUJITSU TEN (THAILAN17022ML000800817056NL000300317058NL0005005                                                                                                  *          20170301IMF1703014.TXT
MDEDH3202488201703                D89828070300PT1D20170306000030SPEAKER ASM                   M IMCTM S5NB082FTTL  07070IMCT  S5 PTB  00015                    1600 SR        000000000000 FUJITSU TEN (THAILAN17022ML0009009                                                                                                                              *          20170301IMF1703014.TXT
MDEDH3202489201703                D89828070300PT4D20170304000030SPEAKER ASM                   M IMCTM S9TS02 FTTL  07070IMCT  S9 PTB  00015                    2230 SR        000000000000 FUJITSU TEN (THAILAN17031MU0001001                                                                                                                              *          20170301IMF1703014.TXT
MDEDH3202490201703                D89828070300PT4D20170306000030SPEAKER ASM                   M IMCTM S9TS02 FTTL  07070IMCT  S9 PTB  00015                    1300 SR        000000000000 FUJITSU TEN (THAILAN17079NU0018018                                                                                                                              *          20170301IMF1703014.TXT
MDEDH3202491201703                D89828070300PT4D20170306000030SPEAKER ASM                   M IMCTM S9TS02 FTTL  07070IMCT  S9 PTB  00015                    2100 SR        000000000000 FUJITSU TEN (THAILAN17050RU0009009                                                                                                                              *          20170301IMF1703014.TXT
MDEDH3202492201703                D89829622400PT1D20170305000015RADIO;ASM DVD                 M IMCTM S5NC06 FTTL  07070IMCT  S5 PTB  00003                    0400 SR        000000000000 FUJITSU TEN (THAILAN17068ML0006006                                                                                                                              *          20170301IMF1703014.TXT
MDEDH3202493201703                D89829645400PT4D20170306000015RADIO;ASM DVD                 M IMCTM S9CO001FTTL  07070IMCT  S9 PTB  00003                    2100 SR        000000000000 FUJITSU TEN (THAILAN17050RU0009009                                                                                                                              *          20170301IMF1703014.TXT
MDEDH3202494201703                D89829645700PT1D20170305000015RADIO;ASM DVD                 M IMCTM S5NC06 FTTL  07070IMCT  S5 X    00003                    0400 SR        000000000000 FUJITSU TEN (THAILAN17058NL0004004                                                                                                                              *          20170301IMF1703014.TXT
MDEDH3202495201703                D89829645700PT1D20170306000015RADIO;ASM DVD                 M IMCTM S5NC06 FTTL  07070IMCT  S5 X    00003                    1300 SR        000000000000 FUJITSU TEN (THAILAN17058NL0005005                                                                                                                              *          20170301IMF1703014.TXT
MDEDH3202496201703                D89829645700PT4D20170306000015RADIO;ASM DVD                 M IMCTM S9CO001FTTL  07070IMCT  S9 X    00003                    1300 SR        000000000000 FUJITSU TEN (THAILAN17079NU0018018                                                                                                                              *          20170301IMF1703014.TXT
MDEDH3202497201703                D89831229200PT1D20170304000015RADIO;AM/FM,CD                M IMCTM S5NC06 FTTL  07070IMCT  S5 PTB  00003                    2100 SR        000000000000 FUJITSU TEN (THAILAN17033QL0002002                                                                                                                              *          20170301IMF1703014.TXT
MDEDH3202498201703                D89831229200PT1D20170304000030RADIO;AM/FM,CD                M IMCTM S5NC06 FTTL  07070IMCT  S5 PTB  00003                    2230 SR        000000000000 FUJITSU TEN (THAILAN17013QL000700717033QL0003003                                                                                                                *          20170301IMF1703014.TXT
MDEDH3202499201703                D89831229200PT1D20170305000015RADIO;AM/FM,CD                M IMCTM S5NC06 FTTL  07070IMCT  S5 PTB  00003                    0400 SR        000000000000 FUJITSU TEN (THAILAN17013QL0008008                                                                                                                              *          20170301IMF1703014.TXT
MDEUH3200204201703                D89828070100PT4U20170304000030SPEAKER ASM                   M IMCTM S0FL05 FTTL  07070IMCT  S0 PTB  00004                    2230 SR        000000000000 FUJITSU TEN (THAILAN170C47U0028028                                                                                                                              *          20170301IMF1703014.TXT
MDEUH3200205201703                D89828070200PV4U20170304000030SPEAKER ASM                   M IMCTM S0FR05 FTTL  07070IMCT  S0 PTB  00005                    2230 SR        000000000000 FUJITSU TEN (THAILAN170C47U0028028                                                                                                                              *          20170301IMF1703014.TXT
MDEUH3200206201703                D89828070300PT4U20170304000030SPEAKER ASM                   M IMCTM S9TS02 FTTL  07070IMCT  S9 PTB  00015                    2230 SR        000000000000 FUJITSU TEN (THAILAN170C47U0028028                                                                                                                              *          20170301IMF1703014.TXT
