REC2017032220170322ISUZU                              9      
MDEFH3T22382201703                D89828070100PV4F20170328000027SPEAKER ASM                   M IMCTM S7FL05 FTTL  07070IMCT  S7 PTB  00003                    0900 SR        000000000000 FUJITSU TEN (THAILAN17075QR0022   17027RR0023   S170306902    S170306915    000000                                                                              *R         20170322RDF1703224.TXT
MDEFH3T22383201703                D89828070200PV4F20170327000008SPEAKER ASM                   M IMCTM S7TS02 FTTL  07070IMCT  S7 PTB  00005                    2230 SR        000000000000 FUJITSU TEN (THAILAN17018SR0035   17018SR0038   C170306801    C170306804    000000                                                                              *R         20170322RDF1703224.TXT
MDEFH3T22384201703                D89828070300PT4F20170327000008SPEAKER ASM                   M IMCTM S7TS02 FTTL  07070IMCT  S7 PTB  00015                    2230 SR        000000000000 FUJITSU TEN (THAILAN17018SR0035   17018SR0038   C170306801    C170306804    000000                                                                              *R         20170322RDF1703224.TXT
MDEFH3T22385201703                D89831228400PT4F20170327000004RADIO;AM/FM,CD                M IMCTM S7TS03 FTTL  07070IMCT  S7 CPB  00003                    2230 SR        000000000000 FUJITSU TEN (THAILAN17018SR0035   17018SR0038   C170306801    C170306804    000000                                                                              *R         20170322RDF1703224.TXT
MDEFH3272017201703                D89828070100PV4F20170327000009SPEAKER ASM                   M IMCTM S7FL05 FTTL  07070IMCT  S7 PTB  00003                    1300 SR        000000000000 FUJITSU TEN (THAILAN17027NR0021   17027NR0025   R170306701    R170306705    000000                                                                              *R         20170322RDF1703224.TXT
MDEFH3272018201703                D89828070100PV4F20170327000021SPEAKER ASM                   M IMCTM S7FL05 FTTL  07070IMCT  S7 PTB  00003                    1600 SR        000000000000 FUJITSU TEN (THAILAN17027NR0025   17037MR0019   R170306705    R170306715    000000                                                                              *R         20170322RDF1703224.TXT
MDEFH3272019201703                D89828070100PV4F20170327000018SPEAKER ASM                   M IMCTM S7FL05 FTTL  07070IMCT  S7 PTB  00003                    2230 SR        000000000000 FUJITSU TEN (THAILAN17018SR0035   17028NR0025   C170306801    C170306809    000000                                                                              *R         20170322RDF1703224.TXT
MDEFH3272020201703                D89828070100PV4F20170328000012SPEAKER ASM                   M IMCTM S7FL05 FTTL  07070IMCT  S7 PTB  00003                    0230 SR        000000000000 FUJITSU TEN (THAILAN17040MR0011   17002MR0003   C170306810    C170306815    000000                                                                              *R         20170322RDF1703224.TXT
MDEFH3272021201703                D89828070100PV4F20170328000003SPEAKER ASM                   M IMCTM S7FL05 FTTL  07070IMCT  S7 PTB  00003                    0400 SR        000000000000 FUJITSU TEN (THAILAN17075QR0021   17075QR0022   S170306901    S170306902    000000                                                                              *R         20170322RDF1703224.TXT
