REC2017030120170302ISUZU                              39     
MAKK72107587201703D4               89805293700P3YK20170313000240SPEAKER ASM                   M IMCTM CM1    FTTL  07070IMKDC 01   PTB00003  K0                1621DES        000000000000 FUJITSU TEN (THAILAN                                                                                                                                            *G         20170301IMF1703017.TXT
MAKK72107588201703D4               89805293700P3YK20170314000150SPEAKER ASM                   M IMCTM CM1    FTTL  07070IMKDC 01   PTB00003  K0                1621DES        000000000000 FUJITSU TEN (THAILAN                                                                                                                                            *G         20170301IMF1703017.TXT
MAKK72107589201703D4               89805293700P3YK20170315000210SPEAKER ASM                   M IMCTM CM1    FTTL  07070IMKDC 01   PTB00003  K0                1621DES        000000000000 FUJITSU TEN (THAILAN                                                                                                                                            *G         20170301IMF1703017.TXT
MAKK72107590201703D4               89805293700P3YK20170316000270SPEAKER ASM                   M IMCTM CM1    FTTL  07070IMKDC 01   PTB00003  K0                1621DES        000000000000 FUJITSU TEN (THAILAN                                                                                                                                            *G         20170301IMF1703017.TXT
MAKK72107591201703D4               89805293700P3YK20170317000210SPEAKER ASM                   M IMCTM CM1    FTTL  07070IMKDC 01   PTB00003  K0                1621DES        000000000000 FUJITSU TEN (THAILAN                                                                                                                                            *G         20170301IMF1703017.TXT
MAKK72107592201703D4               89805293700P3YK20170318000090SPEAKER ASM                   M IMCTM CM1    FTTL  07070IMKDC 01   PTB00003  K0                1621DES        000000000000 FUJITSU TEN (THAILAN                                                                                                                                            *G         20170301IMF1703017.TXT
MAKK72107593201703D4               89805294000P3YK20170313000030SPEAKER ASM                   M IMCTM CM1    FTTL  07070IMKDC 01   PTB00015  K0                1621DES        000000000000 FUJITSU TEN (THAILAN                                                                                                                                            *G         20170301IMF1703017.TXT
MAKK72107594201703D4               89805294000P3YK20170314000030SPEAKER ASM                   M IMCTM CM1    FTTL  07070IMKDC 01   PTB00015  K0                1621DES        000000000000 FUJITSU TEN (THAILAN                                                                                                                                            *G         20170301IMF1703017.TXT
MAKK72107595201703D4               89805294000P3YK20170315000030SPEAKER ASM                   M IMCTM CM1    FTTL  07070IMKDC 01   PTB00015  K0                1621DES        000000000000 FUJITSU TEN (THAILAN                                                                                                                                            *G         20170301IMF1703017.TXT
MAKK72107596201703D4               89805294000P3YK20170316000060SPEAKER ASM                   M IMCTM CM1    FTTL  07070IMKDC 01   PTB00015  K0                1621DES        000000000000 FUJITSU TEN (THAILAN                                                                                                                                            *G         20170301IMF1703017.TXT
MAKK72107597201703D4               89805294000P3YK20170317000030SPEAKER ASM                   M IMCTM CM1    FTTL  07070IMKDC 01   PTB00015  K0                1621DES        000000000000 FUJITSU TEN (THAILAN                                                                                                                                            *G         20170301IMF1703017.TXT
MAKK72107598201703D4               89805294000P3YK20170318000060SPEAKER ASM                   M IMCTM CM1    FTTL  07070IMKDC 01   PTB00015  K0                1621DES        000000000000 FUJITSU TEN (THAILAN                                                                                                                                            *G         20170301IMF1703017.TXT
MAKK72107599201703D4               89805294100P3YK20170314000030SPEAKER ASM                   M IMCTM CM1    FTTL  07070IMKDC 01   PTB00005  K0                1621DES        000000000000 FUJITSU TEN (THAILAN                                                                                                                                            *G         20170301IMF1703017.TXT
MAKK72107600201703D4               89805294100P3YK20170315000030SPEAKER ASM                   M IMCTM CM1    FTTL  07070IMKDC 01   PTB00005  K0                1621DES        000000000000 FUJITSU TEN (THAILAN                                                                                                                                            *G         20170301IMF1703017.TXT
MAKK72107601201703D4               89805294100P3YK20170316000030SPEAKER ASM                   M IMCTM CM1    FTTL  07070IMKDC 01   PTB00005  K0                1621DES        000000000000 FUJITSU TEN (THAILAN                                                                                                                                            *G         20170301IMF1703017.TXT
MAKK72107602201703D4               89805294100P3YK20170317000030SPEAKER ASM                   M IMCTM CM1    FTTL  07070IMKDC 01   PTB00005  K0                1621DES        000000000000 FUJITSU TEN (THAILAN                                                                                                                                            *G         20170301IMF1703017.TXT
MAKK72107603201703D4               89805294100P3YK20170318000060SPEAKER ASM                   M IMCTM CM1    FTTL  07070IMKDC 01   PTB00005  K0                1621DES        000000000000 FUJITSU TEN (THAILAN                                                                                                                                            *G         20170301IMF1703017.TXT
MAKK72107604201703D4               89825451200P3YK20170314000030SPEAKER ASM;ROOF              M IMCTM CM1    FTTL  07070IMKDC 01   PTB00015  K0                1621DES        000000000000 FUJITSU TEN (THAILAN                                                                                                                                            *G         20170301IMF1703017.TXT
MAKK72107605201703D4               89825451200P3YK20170316000060SPEAKER ASM;ROOF              M IMCTM CM1    FTTL  07070IMKDC 01   PTB00015  K0                1621DES        000000000000 FUJITSU TEN (THAILAN                                                                                                                                            *G         20170301IMF1703017.TXT
MAKK72107606201703D4               89825451200P3YK20170318000030SPEAKER ASM;ROOF              M IMCTM CM1    FTTL  07070IMKDC 01   PTB00015  K0                1621DES        000000000000 FUJITSU TEN (THAILAN                                                                                                                                            *G         20170301IMF1703017.TXT
MAKK72107607201703D4               89828070100P3YK20170313000180SPEAKER ASM                   M IMCTM CM1    FTTL  07070IMKDC 01 PTB  00003  K0                1621DES        000000000000 FUJITSU TEN (THAILAN                                                                                                                                            *G         20170301IMF1703017.TXT
MAKK72107608201703D4               89828070100P3YK20170314000240SPEAKER ASM                   M IMCTM CM1    FTTL  07070IMKDC 01 PTB  00003  K0                1621DES        000000000000 FUJITSU TEN (THAILAN                                                                                                                                            *G         20170301IMF1703017.TXT
MAKK72107609201703D4               89828070100P3YK20170315000210SPEAKER ASM                   M IMCTM CM1    FTTL  07070IMKDC 01 PTB  00003  K0                1621DES        000000000000 FUJITSU TEN (THAILAN                                                                                                                                            *G         20170301IMF1703017.TXT
MAKK72107610201703D4               89828070100P3YK20170316000180SPEAKER ASM                   M IMCTM CM1    FTTL  07070IMKDC 01 PTB  00003  K0                1621DES        000000000000 FUJITSU TEN (THAILAN                                                                                                                                            *G         20170301IMF1703017.TXT
MAKK72107611201703D4               89828070100P3YK20170317000210SPEAKER ASM                   M IMCTM CM1    FTTL  07070IMKDC 01 PTB  00003  K0                1621DES        000000000000 FUJITSU TEN (THAILAN                                                                                                                                            *G         20170301IMF1703017.TXT
MAKK72107612201703D4               89828070100P3YK20170318000300SPEAKER ASM                   M IMCTM CM1    FTTL  07070IMKDC 01 PTB  00003  K0                1621DES        000000000000 FUJITSU TEN (THAILAN                                                                                                                                            *G         20170301IMF1703017.TXT
MAKK72107613201703D4               89828070200P3YK20170313000030SPEAKER ASM                   M IMCTM CM1    FTTL  07070IMKDC 01 PTB  00005  K0                1621DES        000000000000 FUJITSU TEN (THAILAN                                                                                                                                            *G         20170301IMF1703017.TXT
MAKK72107614201703D4               89828070200P3YK20170314000060SPEAKER ASM                   M IMCTM CM1    FTTL  07070IMKDC 01 PTB  00005  K0                1621DES        000000000000 FUJITSU TEN (THAILAN                                                                                                                                            *G         20170301IMF1703017.TXT
MAKK72107615201703D4               89828070200P3YK20170315000030SPEAKER ASM                   M IMCTM CM1    FTTL  07070IMKDC 01 PTB  00005  K0                1621DES        000000000000 FUJITSU TEN (THAILAN                                                                                                                                            *G         20170301IMF1703017.TXT
MAKK72107616201703D4               89828070200P3YK20170316000060SPEAKER ASM                   M IMCTM CM1    FTTL  07070IMKDC 01 PTB  00005  K0                1621DES        000000000000 FUJITSU TEN (THAILAN                                                                                                                                            *G         20170301IMF1703017.TXT
MAKK72107617201703D4               89828070200P3YK20170317000030SPEAKER ASM                   M IMCTM CM1    FTTL  07070IMKDC 01 PTB  00005  K0                1621DES        000000000000 FUJITSU TEN (THAILAN                                                                                                                                            *G         20170301IMF1703017.TXT
MAKK72107618201703D4               89828070200P3YK20170318000180SPEAKER ASM                   M IMCTM CM1    FTTL  07070IMKDC 01 PTB  00005  K0                1621DES        000000000000 FUJITSU TEN (THAILAN                                                                                                                                            *G         20170301IMF1703017.TXT
MAKK72107619201703D4               89828070300P3YK20170313000030SPEAKER ASM                   M IMCTM CM1    FTTL  07070IMKDC 01 PTB  00015  K0                1621DES        000000000000 FUJITSU TEN (THAILAN                                                                                                                                            *G         20170301IMF1703017.TXT
MAKK72107620201703D4               89828070300P3YK20170314000090SPEAKER ASM                   M IMCTM CM1    FTTL  07070IMKDC 01 PTB  00015  K0                1621DES        000000000000 FUJITSU TEN (THAILAN                                                                                                                                            *G         20170301IMF1703017.TXT
MAKK72107621201703D4               89828070300P3YK20170315000030SPEAKER ASM                   M IMCTM CM1    FTTL  07070IMKDC 01 PTB  00015  K0                1621DES        000000000000 FUJITSU TEN (THAILAN                                                                                                                                            *G         20170301IMF1703017.TXT
MAKK72107622201703D4               89828070300P3YK20170316000060SPEAKER ASM                   M IMCTM CM1    FTTL  07070IMKDC 01 PTB  00015  K0                1621DES        000000000000 FUJITSU TEN (THAILAN                                                                                                                                            *G         20170301IMF1703017.TXT
MAKK72107623201703D4               89828070300P3YK20170317000090SPEAKER ASM                   M IMCTM CM1    FTTL  07070IMKDC 01 PTB  00015  K0                1621DES        000000000000 FUJITSU TEN (THAILAN                                                                                                                                            *G         20170301IMF1703017.TXT
MAKK72107624201703D4               89828070300P3YK20170318000180SPEAKER ASM                   M IMCTM CM1    FTTL  07070IMKDC 01 PTB  00015  K0                1621DES        000000000000 FUJITSU TEN (THAILAN                                                                                                                                            *G         20170301IMF1703017.TXT
MAKK72107625201703D4               89831228700P3YK20170314000015RADIO;AM/FM,CD                M IMCTM CM1    FTTL  07070IMKDC 01 PTB  00003  K0                1621DES        000000000000 FUJITSU TEN (THAILAN                                                                                                                                            *G         20170301IMF1703017.TXT
