REC2017033020170330ISUZU                              77     
MDDDH3245603201704                D89821984430PT1D20170403000060RADIO;AM/FM,CD                M IMCTM S5NC06 FTTL  07070IMCT  S5 PTB  00005                    2230 SR        000000000000 FUJITSU TEN (THAILAN170KPAL0089089170KRAL0040040                                                                                                                *          20170330IMF1703304.TXT
MDDDH3245604201704                D89821984430PT1D20170404000030RADIO;AM/FM,CD                M IMCTM S5NC06 FTTL  07070IMCT  S5 PTB  00005                    0400 SR        000000000000 FUJITSU TEN (THAILAN170KPAL0090090                                                                                                                              *          20170330IMF1703304.TXT
MDDDH3245605201704                D89821984430PT1D20170404000030RADIO;AM/FM,CD                M IMCTM S5NC06 FTTL  07070IMCT  S5 PTB  00005                    1300 SR        000000000000 FUJITSU TEN (THAILAN170KNFL0031031                                                                                                                              *          20170330IMF1703304.TXT
MDDDH3245606201704                D89821984430PT1D20170404000030RADIO;AM/FM,CD                M IMCTM S5NC06 FTTL  07070IMCT  S5 PTB  00005                    1600 SR        000000000000 FUJITSU TEN (THAILAN170KNDL0089089                                                                                                                              *          20170330IMF1703304.TXT
MDDDH3245607201704                D89821984430PT1D20170404000030RADIO;AM/FM,CD                M IMCTM S5NC06 FTTL  07070IMCT  S5 PTB  00005                    2100 SR        000000000000 FUJITSU TEN (THAILAN170KPAL0091091                                                                                                                              *          20170330IMF1703304.TXT
MDDDH3245608201704                D89828070100PV1D20170403000120SPEAKER ASM                   M IMCTM S5MB11 FTTL  07070IMCT  S5 PTB  00003                    2230 SR        000000000000 FUJITSU TEN (THAILAN170KPAL0089089170KRAL0040040                                                                                                                *          20170330IMF1703304.TXT
MDDDH3245609201704                D89828070100PV1D20170404000060SPEAKER ASM                   M IMCTM S5MB11 FTTL  07070IMCT  S5 PTB  00003                    0400 SR        000000000000 FUJITSU TEN (THAILAN170KPAL0090090                                                                                                                              *          20170330IMF1703304.TXT
MDDDH3245610201704                D89828070100PV1D20170404000060SPEAKER ASM                   M IMCTM S5MB11 FTTL  07070IMCT  S5 PTB  00003                    0900 SR        000000000000 FUJITSU TEN (THAILAN170KRTL0019019                                                                                                                              *          20170330IMF1703304.TXT
MDDDH3245611201704                D89828070100PV1D20170404000120SPEAKER ASM                   M IMCTM S5MB11 FTTL  07070IMCT  S5 PTB  00003                    1300 SR        000000000000 FUJITSU TEN (THAILAN170KNFL0031031170KRHL0023023                                                                                                                *          20170330IMF1703304.TXT
MDDDH3245612201704                D89828070100PV1D20170404000120SPEAKER ASM                   M IMCTM S5MB11 FTTL  07070IMCT  S5 PTB  00003                    1600 SR        000000000000 FUJITSU TEN (THAILAN170KNAL0048048170KNDL0089089                                                                                                                *          20170330IMF1703304.TXT
MDDDH3245613201704                D89828070100PV1D20170404000060SPEAKER ASM                   M IMCTM S5MB11 FTTL  07070IMCT  S5 PTB  00003                    2100 SR        000000000000 FUJITSU TEN (THAILAN170KPAL0091091                                                                                                                              *          20170330IMF1703304.TXT
MDDDH3245614201704                D89828070200PV1D20170404000060SPEAKER ASM                   M IMCTM S5MA14 FTTL  07070IMCT  S5 PTB  00005                    0900 SR        000000000000 FUJITSU TEN (THAILAN170KRTL0019019                                                                                                                              *          20170330IMF1703304.TXT
MDDDH3245615201704                D89828070200PV1D20170404000060SPEAKER ASM                   M IMCTM S5MA14 FTTL  07070IMCT  S5 PTB  00005                    1300 SR        000000000000 FUJITSU TEN (THAILAN170KRHL0023023                                                                                                                              *          20170330IMF1703304.TXT
MDDDH3245616201704                D89828070300PT1D20170404000060SPEAKER ASM                   M IMCTM S5NB082FTTL  07070IMCT  S5 PTB  00015                    0900 SR        000000000000 FUJITSU TEN (THAILAN170KRTL0019019                                                                                                                              *          20170330IMF1703304.TXT
MDDDH3245617201704                D89828070300PT1D20170404000060SPEAKER ASM                   M IMCTM S5NB082FTTL  07070IMCT  S5 PTB  00015                    1300 SR        000000000000 FUJITSU TEN (THAILAN170KRHL0023023                                                                                                                              *          20170330IMF1703304.TXT
MDDDH3245618201704                D89829645900PT1D20170404000030RADIO;ASM DVD                 M IMCTM S5NC06 FTTL  07070IMCT  S5 CPB  00003                    0900 SR        000000000000 FUJITSU TEN (THAILAN170KRTL0019019                                                                                                                              *          20170330IMF1703304.TXT
MDDUH3265688201704                D89828070100PT4U20170404000030SPEAKER ASM                   M IMCTM S0FL05 FTTL  07070IMCT  S0 PTB  00003                    0230 SR        000000000000 FUJITSU TEN (THAILAN180LUEU0047047                                                                                                                              *          20170330IMF1703304.TXT
MDDUH3265689201704                D89828070100PT4U20170404000030SPEAKER ASM                   M IMCTM S0FL05 FTTL  07070IMCT  S0 PTB  00003                    0900 SR        000000000000 FUJITSU TEN (THAILAN180LUEU0048048                                                                                                                              *          20170330IMF1703304.TXT
MDDUH3265690201704                D89828070100PT4U20170404000030SPEAKER ASM                   M IMCTM S0FL05 FTTL  07070IMCT  S0 PTB  00003                    1300 SR        000000000000 FUJITSU TEN (THAILAN180LUDU0083083                                                                                                                              *          20170330IMF1703304.TXT
MDDUH3265691201704                D89828070100PT4U20170404000030SPEAKER ASM                   M IMCTM S0FL05 FTTL  07070IMCT  S0 PTB  00003                    1600 SR        000000000000 FUJITSU TEN (THAILAN180LUDU0084084                                                                                                                              *          20170330IMF1703304.TXT
MDDUH3265692201704                D89828070100PT4U20170404000030SPEAKER ASM                   M IMCTM S0FL05 FTTL  07070IMCT  S0 PTB  00003                    2230 SR        000000000000 FUJITSU TEN (THAILAN180LUDU0085085                                                                                                                              *          20170330IMF1703304.TXT
MDDUH3265693201704                D89828070200PV4U20170404000030SPEAKER ASM                   M IMCTM S0FR05 FTTL  07070IMCT  S0 PTB  00005                    0230 SR        000000000000 FUJITSU TEN (THAILAN180LUEU0047047                                                                                                                              *          20170330IMF1703304.TXT
MDDUH3265694201704                D89828070200PV4U20170404000030SPEAKER ASM                   M IMCTM S0FR05 FTTL  07070IMCT  S0 PTB  00005                    0900 SR        000000000000 FUJITSU TEN (THAILAN180LUEU0048048                                                                                                                              *          20170330IMF1703304.TXT
MDDUH3265695201704                D89828070200PV4U20170404000030SPEAKER ASM                   M IMCTM S0FR05 FTTL  07070IMCT  S0 PTB  00005                    1300 SR        000000000000 FUJITSU TEN (THAILAN180LUDU0083083                                                                                                                              *          20170330IMF1703304.TXT
MDDUH3265696201704                D89828070200PV4U20170404000030SPEAKER ASM                   M IMCTM S0FR05 FTTL  07070IMCT  S0 PTB  00005                    1600 SR        000000000000 FUJITSU TEN (THAILAN180LUDU0084084                                                                                                                              *          20170330IMF1703304.TXT
MDDUH3265697201704                D89828070200PV4U20170404000030SPEAKER ASM                   M IMCTM S0FR05 FTTL  07070IMCT  S0 PTB  00005                    2230 SR        000000000000 FUJITSU TEN (THAILAN180LUDU0085085                                                                                                                              *          20170330IMF1703304.TXT
MDDUH3265698201704                D89828070300PT4U20170404000030SPEAKER ASM                   M IMCTM S9TS02 FTTL  07070IMCT  S9 PTB  00015                    0230 SR        000000000000 FUJITSU TEN (THAILAN180LUEU0047047                                                                                                                              *          20170330IMF1703304.TXT
MDDUH3265699201704                D89828070300PT4U20170404000030SPEAKER ASM                   M IMCTM S9TS02 FTTL  07070IMCT  S9 PTB  00015                    0900 SR        000000000000 FUJITSU TEN (THAILAN180LUEU0048048                                                                                                                              *          20170330IMF1703304.TXT
MDDUH3265700201704                D89828070300PT4U20170404000030SPEAKER ASM                   M IMCTM S9TS02 FTTL  07070IMCT  S9 PTB  00015                    1300 SR        000000000000 FUJITSU TEN (THAILAN180LUDU0083083                                                                                                                              *          20170330IMF1703304.TXT
MDDUH3265701201704                D89828070300PT4U20170404000030SPEAKER ASM                   M IMCTM S9TS02 FTTL  07070IMCT  S9 PTB  00015                    1600 SR        000000000000 FUJITSU TEN (THAILAN180LUDU0084084                                                                                                                              *          20170330IMF1703304.TXT
MDDUH3265702201704                D89828070300PT4U20170404000030SPEAKER ASM                   M IMCTM S9TS02 FTTL  07070IMCT  S9 PTB  00015                    2230 SR        000000000000 FUJITSU TEN (THAILAN180LUDU0085085                                                                                                                              *          20170330IMF1703304.TXT
MDEDH3411815201704                D89805293700PV1D20170403000030SPEAKER ASM                   M IMCTM S5MB11 FTTL  07070IMCT  S5 PTB  00003                    2100 SR        000000000000 FUJITSU TEN (THAILAN15018FL0108108                                                                                                                              *          20170330IMF1703304.TXT
MDEDH3411816201704                D89805293700PV1D20170404000030SPEAKER ASM                   M IMCTM S5MB11 FTTL  07070IMCT  S5 PTB  00003                    0400 SR        000000000000 FUJITSU TEN (THAILAN15019FL0173173                                                                                                                              *          20170330IMF1703304.TXT
MDEDH3411817201704                D89828070100PV1D20170403000030SPEAKER ASM                   M IMCTM S5MB11 FTTL  07070IMCT  S5 PTB  00003                    2100 SR        000000000000 FUJITSU TEN (THAILAN17041PL0011011                                                                                                                              *          20170330IMF1703304.TXT
MDEDH3411818201704                D89828070100PV1D20170403000060SPEAKER ASM                   M IMCTM S5MB11 FTTL  07070IMCT  S5 PTB  00003                    2230 SR        000000000000 FUJITSU TEN (THAILAN17041PL001201217050ML0016016                                                                                                                *          20170330IMF1703304.TXT
MDEDH3411819201704                D89828070100PV1D20170404000030SPEAKER ASM                   M IMCTM S5MB11 FTTL  07070IMCT  S5 PTB  00003                    0230 SR        000000000000 FUJITSU TEN (THAILAN17080NL0054054                                                                                                                              *          20170330IMF1703304.TXT
MDEDH3411820201704                D89828070100PV1D20170404000060SPEAKER ASM                   M IMCTM S5MB11 FTTL  07070IMCT  S5 PTB  00003                    0900 SR        000000000000 FUJITSU TEN (THAILAN17041PL0013014                                                                                                                              *          20170330IMF1703304.TXT
MDEDH3411821201704                D89828070100PV1D20170404000030SPEAKER ASM                   M IMCTM S5MB11 FTTL  07070IMCT  S5 PTB  00003                    1300 SR        000000000000 FUJITSU TEN (THAILAN17029NL0005005                                                                                                                              *          20170330IMF1703304.TXT
MDEDH3411822201704                D89828070100PV1D20170404000060SPEAKER ASM                   M IMCTM S5MB11 FTTL  07070IMCT  S5 PTB  00003                    1600 SR        000000000000 FUJITSU TEN (THAILAN17034PL002402417079QL0011011                                                                                                                *          20170330IMF1703304.TXT
MDEDH3411823201704                D89828070100PV1D20170404000030SPEAKER ASM                   M IMCTM S5MB11 FTTL  07070IMCT  S5 PTB  00003                    2100 SR        000000000000 FUJITSU TEN (THAILAN17062ML0007007                                                                                                                              *          20170330IMF1703304.TXT
MDEDH3411824201704                D89828070100PV4D20170404000030SPEAKER ASM                   M IMCTM S0FL05 FTTL  07070IMCT  S0 PTB  00003                    0400 SR        000000000000 FUJITSU TEN (THAILAN17072NU0001001                                                                                                                              *          20170330IMF1703304.TXT
MDEDH3411825201704                D89828070100PV4D20170404000030SPEAKER ASM                   M IMCTM S0FL05 FTTL  07070IMCT  S0 PTB  00003                    1600 SR        000000000000 FUJITSU TEN (THAILAN17072NU0002002                                                                                                                              *          20170330IMF1703304.TXT
MDEDH3411826201704                D89828070200PV1D20170404000030SPEAKER ASM                   M IMCTM S5MA14 FTTL  07070IMCT  S5 PTB  00005                    0230 SR        000000000000 FUJITSU TEN (THAILAN17080NL0054054                                                                                                                              *          20170330IMF1703304.TXT
MDEDH3411827201704                D89828070200PV1D20170404000030SPEAKER ASM                   M IMCTM S5MA14 FTTL  07070IMCT  S5 PTB  00005                    1600 SR        000000000000 FUJITSU TEN (THAILAN17034PL0024024                                                                                                                              *          20170330IMF1703304.TXT
MDEDH3411828201704                D89828070200PV4D20170404000030SPEAKER ASM                   M IMCTM S0FR05 FTTL  07070IMCT  S0 PTB  00005                    0400 SR        000000000000 FUJITSU TEN (THAILAN17072NU0001001                                                                                                                              *          20170330IMF1703304.TXT
MDEDH3411829201704                D89828070200PV4D20170404000030SPEAKER ASM                   M IMCTM S0FR05 FTTL  07070IMCT  S0 PTB  00005                    1600 SR        000000000000 FUJITSU TEN (THAILAN17072NU0002002                                                                                                                              *          20170330IMF1703304.TXT
MDEDH3411830201704                D89828070300PT1D20170404000030SPEAKER ASM                   M IMCTM S5NB082FTTL  07070IMCT  S5 PTB  00015                    0230 SR        000000000000 FUJITSU TEN (THAILAN17080NL0054054                                                                                                                              *          20170330IMF1703304.TXT
MDEDH3411831201704                D89828070300PT1D20170404000030SPEAKER ASM                   M IMCTM S5NB082FTTL  07070IMCT  S5 PTB  00015                    1300 SR        000000000000 FUJITSU TEN (THAILAN17029NL0005005                                                                                                                              *          20170330IMF1703304.TXT
MDEDH3411832201704                D89828070300PT1D20170404000030SPEAKER ASM                   M IMCTM S5NB082FTTL  07070IMCT  S5 PTB  00015                    1600 SR        000000000000 FUJITSU TEN (THAILAN17034PL0024024                                                                                                                              *          20170330IMF1703304.TXT
MDEDH3411833201704                D89828070300PT1D20170404000030SPEAKER ASM                   M IMCTM S5NB082FTTL  07070IMCT  S5 PTB  00015                    2100 SR        000000000000 FUJITSU TEN (THAILAN17062ML0007007                                                                                                                              *          20170330IMF1703304.TXT
MDEDH3411834201704                D89828070300PT4D20170404000030SPEAKER ASM                   M IMCTM S9TS02 FTTL  07070IMCT  S9 PTB  00015                    0400 SR        000000000000 FUJITSU TEN (THAILAN17072NU0001001                                                                                                                              *          20170330IMF1703304.TXT
MDEDH3411835201704                D89828070300PT4D20170404000030SPEAKER ASM                   M IMCTM S9TS02 FTTL  07070IMCT  S9 PTB  00015                    1600 SR        000000000000 FUJITSU TEN (THAILAN17072NU0002002                                                                                                                              *          20170330IMF1703304.TXT
MDEDH3411836201704                D89829622400PT1D20170404000015RADIO;ASM DVD                 M IMCTM S5NC06 FTTL  07070IMCT  S5 PTB  00003                    2100 SR        000000000000 FUJITSU TEN (THAILAN17062ML0007007                                                                                                                              *          20170330IMF1703304.TXT
MDEDH3411837201704                D89829645700PT4D20170404000015RADIO;ASM DVD                 M IMCTM S9CO001FTTL  07070IMCT  S9 X    00003                    0400 SR        000000000000 FUJITSU TEN (THAILAN17072NU0001001                                                                                                                              *          20170330IMF1703304.TXT
MDEDH3411838201704                D89829645700PT4D20170404000015RADIO;ASM DVD                 M IMCTM S9CO001FTTL  07070IMCT  S9 X    00003                    1600 SR        000000000000 FUJITSU TEN (THAILAN17072NU0002002                                                                                                                              *          20170330IMF1703304.TXT
MDEUH3273467201704                D89828070100PT4U20170403000030SPEAKER ASM                   M IMCTM S0FL05 FTTL  07070IMCT  S0 PTB  00003                    2100 SR        000000000000 FUJITSU TEN (THAILAN18022TU0010010                                                                                                                              *          20170330IMF1703304.TXT
MDEUH3273468201704                D89828070100PT4U20170403000030SPEAKER ASM                   M IMCTM S0FL05 FTTL  07070IMCT  S0 PTB  00003                    2230 SR        000000000000 FUJITSU TEN (THAILAN18016TU0002002                                                                                                                              *          20170330IMF1703304.TXT
MDEUH3273469201704                D89828070100PT4U20170404000030SPEAKER ASM                   M IMCTM S0FL05 FTTL  07070IMCT  S0 PTB  00003                    0230 SR        000000000000 FUJITSU TEN (THAILAN18016TU0003003                                                                                                                              *          20170330IMF1703304.TXT
MDEUH3273470201704                D89828070100PT4U20170404000030SPEAKER ASM                   M IMCTM S0FL05 FTTL  07070IMCT  S0 PTB  00003                    0900 SR        000000000000 FUJITSU TEN (THAILAN18016TU0004004                                                                                                                              *          20170330IMF1703304.TXT
MDEUH3273471201704                D89828070100PT4U20170404000030SPEAKER ASM                   M IMCTM S0FL05 FTTL  07070IMCT  S0 PTB  00003                    1600 SR        000000000000 FUJITSU TEN (THAILAN18016TU0005005                                                                                                                              *          20170330IMF1703304.TXT
MDEUH3273472201704                D89828070100PT4U20170404000030SPEAKER ASM                   M IMCTM S0FL05 FTTL  07070IMCT  S0 PTB  00003                    2100 SR        000000000000 FUJITSU TEN (THAILAN18024TU0006006                                                                                                                              *          20170330IMF1703304.TXT
MDEUH3273473201704                D89828070200PV4U20170403000030SPEAKER ASM                   M IMCTM S0FR05 FTTL  07070IMCT  S0 PTB  00005                    2100 SR        000000000000 FUJITSU TEN (THAILAN18022TU0010010                                                                                                                              *          20170330IMF1703304.TXT
MDEUH3273474201704                D89828070200PV4U20170403000030SPEAKER ASM                   M IMCTM S0FR05 FTTL  07070IMCT  S0 PTB  00005                    2230 SR        000000000000 FUJITSU TEN (THAILAN18016TU0002002                                                                                                                              *          20170330IMF1703304.TXT
MDEUH3273475201704                D89828070200PV4U20170404000030SPEAKER ASM                   M IMCTM S0FR05 FTTL  07070IMCT  S0 PTB  00005                    0230 SR        000000000000 FUJITSU TEN (THAILAN18016TU0003003                                                                                                                              *          20170330IMF1703304.TXT
MDEUH3273476201704                D89828070200PV4U20170404000030SPEAKER ASM                   M IMCTM S0FR05 FTTL  07070IMCT  S0 PTB  00005                    0900 SR        000000000000 FUJITSU TEN (THAILAN18016TU0004004                                                                                                                              *          20170330IMF1703304.TXT
MDEUH3273477201704                D89828070200PV4U20170404000030SPEAKER ASM                   M IMCTM S0FR05 FTTL  07070IMCT  S0 PTB  00005                    1600 SR        000000000000 FUJITSU TEN (THAILAN18016TU0005005                                                                                                                              *          20170330IMF1703304.TXT
MDEUH3273478201704                D89828070200PV4U20170404000030SPEAKER ASM                   M IMCTM S0FR05 FTTL  07070IMCT  S0 PTB  00005                    2100 SR        000000000000 FUJITSU TEN (THAILAN18024TU0006006                                                                                                                              *          20170330IMF1703304.TXT
MDEUH3273479201704                D89828070300PT4U20170403000030SPEAKER ASM                   M IMCTM S9TS02 FTTL  07070IMCT  S9 PTB  00015                    2100 SR        000000000000 FUJITSU TEN (THAILAN18022TU0010010                                                                                                                              *          20170330IMF1703304.TXT
MDEUH3273480201704                D89828070300PT4U20170403000030SPEAKER ASM                   M IMCTM S9TS02 FTTL  07070IMCT  S9 PTB  00015                    2230 SR        000000000000 FUJITSU TEN (THAILAN18016TU0002002                                                                                                                              *          20170330IMF1703304.TXT
MDEUH3273481201704                D89828070300PT4U20170404000030SPEAKER ASM                   M IMCTM S9TS02 FTTL  07070IMCT  S9 PTB  00015                    0230 SR        000000000000 FUJITSU TEN (THAILAN18016TU0003003                                                                                                                              *          20170330IMF1703304.TXT
MDEUH3273482201704                D89828070300PT4U20170404000030SPEAKER ASM                   M IMCTM S9TS02 FTTL  07070IMCT  S9 PTB  00015                    0900 SR        000000000000 FUJITSU TEN (THAILAN18016TU0004004                                                                                                                              *          20170330IMF1703304.TXT
MDEUH3273483201704                D89828070300PT4U20170404000030SPEAKER ASM                   M IMCTM S9TS02 FTTL  07070IMCT  S9 PTB  00015                    1600 SR        000000000000 FUJITSU TEN (THAILAN18016TU0005005                                                                                                                              *          20170330IMF1703304.TXT
MDEUH3273484201704                D89828070300PT4U20170404000030SPEAKER ASM                   M IMCTM S9TS02 FTTL  07070IMCT  S9 PTB  00015                    2100 SR        000000000000 FUJITSU TEN (THAILAN18024TU0006006                                                                                                                              *          20170330IMF1703304.TXT
MDEUH3273485201704                D89836135900PT4U20170403000015RADIO;ASM DVD                 M IMCTM S9CO001FTTL  07070IMCT  S9 PTB  00003                    2230 SR        000000000000 FUJITSU TEN (THAILAN18016TU0002002                                                                                                                              *          20170330IMF1703304.TXT
MDEUH3273486201704                D89836135900PT4U20170404000015RADIO;ASM DVD                 M IMCTM S9CO001FTTL  07070IMCT  S9 PTB  00003                    0230 SR        000000000000 FUJITSU TEN (THAILAN18016TU0003003                                                                                                                              *          20170330IMF1703304.TXT
MDEUH3273487201704                D89836135900PT4U20170404000015RADIO;ASM DVD                 M IMCTM S9CO001FTTL  07070IMCT  S9 PTB  00003                    0900 SR        000000000000 FUJITSU TEN (THAILAN18016TU0004004                                                                                                                              *          20170330IMF1703304.TXT
MDEUH3273488201704                D89836135900PT4U20170404000015RADIO;ASM DVD                 M IMCTM S9CO001FTTL  07070IMCT  S9 PTB  00003                    1600 SR        000000000000 FUJITSU TEN (THAILAN18016TU0005005                                                                                                                              *          20170330IMF1703304.TXT
