REC2017032120170321ISUZU                              47     
MDDDH3214417201703                D89821984430PT4D20170327000030RADIO;AM/FM,CD                M IMCTM S9CO001FTTL  07070IMCT  S9 PTB  00005                    2100 SR        000000000000 FUJITSU TEN (THAILAN170KNEU0002002                                                                                                                              *          20170321IMF1703215.TXT
MDDDH3214418201703                D89828070100PV1D20170324000060SPEAKER ASM                   M IMCTM S5MB11 FTTL  07070IMCT  S5 PTB  00003                    2230 SR        000000000000 FUJITSU TEN (THAILAN170KRVL0009009                                                                                                                              *          20170321IMF1703215.TXT
MDDDH3214419201703                D89828070100PV1D20170325000060SPEAKER ASM                   M IMCTM S5MB11 FTTL  07070IMCT  S5 PTB  00003                    0230 SR        000000000000 FUJITSU TEN (THAILAN170KRVL0010010                                                                                                                              *          20170321IMF1703215.TXT
MDDDH3214420201703                D89828070100PV4D20170327000060SPEAKER ASM                   M IMCTM S0FL05 FTTL  07070IMCT  S0 PTB  00003                    2100 SR        000000000000 FUJITSU TEN (THAILAN170KNEU0002002                                                                                                                              *          20170321IMF1703215.TXT
MDDDH3214421201703                D89828070200PV1D20170324000060SPEAKER ASM                   M IMCTM S5MA14 FTTL  07070IMCT  S5 PTB  00005                    2230 SR        000000000000 FUJITSU TEN (THAILAN170KRVL0009009                                                                                                                              *          20170321IMF1703215.TXT
MDDDH3214422201703                D89828070200PV1D20170325000060SPEAKER ASM                   M IMCTM S5MA14 FTTL  07070IMCT  S5 PTB  00005                    0230 SR        000000000000 FUJITSU TEN (THAILAN170KRVL0010010                                                                                                                              *          20170321IMF1703215.TXT
MDDDH3214423201703                D89828070300PT1D20170324000060SPEAKER ASM                   M IMCTM S5NB082FTTL  07070IMCT  S5 PTB  00015                    2230 SR        000000000000 FUJITSU TEN (THAILAN170KRVL0009009                                                                                                                              *          20170321IMF1703215.TXT
MDDDH3214424201703                D89828070300PT1D20170325000060SPEAKER ASM                   M IMCTM S5NB082FTTL  07070IMCT  S5 PTB  00015                    0230 SR        000000000000 FUJITSU TEN (THAILAN170KRVL0010010                                                                                                                              *          20170321IMF1703215.TXT
MDEDH3381560201703                D89828070100PV1D20170324000060SPEAKER ASM                   M IMCTM S5MB11 FTTL  07070IMCT  S5 PTB  00003                    2100 SR        000000000000 FUJITSU TEN (THAILAN17074NL0022023                                                                                                                              *          20170321IMF1703215.TXT
MDEDH3381561201703                D89828070100PV1D20170324000090SPEAKER ASM                   M IMCTM S5MB11 FTTL  07070IMCT  S5 PTB  00003                    2230 SR        000000000000 FUJITSU TEN (THAILAN17010ML001501517050ML000900917059NL0008008                                                                                                  *          20170321IMF1703215.TXT
MDEDH3381562201703                D89828070100PV1D20170325000030SPEAKER ASM                   M IMCTM S5MB11 FTTL  07070IMCT  S5 PTB  00003                    0230 SR        000000000000 FUJITSU TEN (THAILAN17010ML0016016                                                                                                                              *          20170321IMF1703215.TXT
MDEDH3381563201703                D89828070100PV1D20170325000060SPEAKER ASM                   M IMCTM S5MB11 FTTL  07070IMCT  S5 PTB  00003                    0400 SR        000000000000 FUJITSU TEN (THAILAN17050ML0010011                                                                                                                              *          20170321IMF1703215.TXT
MDEDH3381564201703                D89828070100PV1D20170327000150SPEAKER ASM                   M IMCTM S5MB11 FTTL  07070IMCT  S5 PTB  00003                    0900 SR        000000000000 FUJITSU TEN (THAILAN17010ML001701717022ML001301417052RL0001002                                                                                                  *          20170321IMF1703215.TXT
MDEDH3381565201703                D89828070100PV1D20170327000120SPEAKER ASM                   M IMCTM S5MB11 FTTL  07070IMCT  S5 PTB  00003                    1300 SR        000000000000 FUJITSU TEN (THAILAN17004ML000700717052RL000300317053RL000100117080NL0051051                                                                                    *          20170321IMF1703215.TXT
MDEDH3381566201703                D89828070100PV1D20170327000060SPEAKER ASM                   M IMCTM S5MB11 FTTL  07070IMCT  S5 PTB  00003                    1600 SR        000000000000 FUJITSU TEN (THAILAN17015NL001101117052RL0004004                                                                                                                *          20170321IMF1703215.TXT
MDEDH3381567201703                D89828070100PV4D20170327000030SPEAKER ASM                   M IMCTM S0FL05 FTTL  07070IMCT  S0 PTB  00003                    0900 SR        000000000000 FUJITSU TEN (THAILAN17031MU0007007                                                                                                                              *          20170321IMF1703215.TXT
MDEDH3381568201703                D89828070200PV1D20170324000060SPEAKER ASM                   M IMCTM S5MA14 FTTL  07070IMCT  S5 PTB  00005                    2100 SR        000000000000 FUJITSU TEN (THAILAN17074NL0022023                                                                                                                              *          20170321IMF1703215.TXT
MDEDH3381569201703                D89828070200PV1D20170324000030SPEAKER ASM                   M IMCTM S5MA14 FTTL  07070IMCT  S5 PTB  00005                    2230 SR        000000000000 FUJITSU TEN (THAILAN17059NL0008008                                                                                                                              *          20170321IMF1703215.TXT
MDEDH3381570201703                D89828070200PV1D20170327000060SPEAKER ASM                   M IMCTM S5MA14 FTTL  07070IMCT  S5 PTB  00005                    0900 SR        000000000000 FUJITSU TEN (THAILAN17022ML0013014                                                                                                                              *          20170321IMF1703215.TXT
MDEDH3381571201703                D89828070200PV1D20170327000030SPEAKER ASM                   M IMCTM S5MA14 FTTL  07070IMCT  S5 PTB  00005                    1300 SR        000000000000 FUJITSU TEN (THAILAN17080NL0051051                                                                                                                              *          20170321IMF1703215.TXT
MDEDH3381572201703                D89828070200PV1D20170327000030SPEAKER ASM                   M IMCTM S5MA14 FTTL  07070IMCT  S5 PTB  00005                    1600 SR        000000000000 FUJITSU TEN (THAILAN17015NL0011011                                                                                                                              *          20170321IMF1703215.TXT
MDEDH3381573201703                D89828070200PV4D20170327000030SPEAKER ASM                   M IMCTM S0FR05 FTTL  07070IMCT  S0 PTB  00005                    0900 SR        000000000000 FUJITSU TEN (THAILAN17031MU0007007                                                                                                                              *          20170321IMF1703215.TXT
MDEDH3381574201703                D89828070300PT1D20170324000060SPEAKER ASM                   M IMCTM S5NB082FTTL  07070IMCT  S5 PTB  00015                    2100 SR        000000000000 FUJITSU TEN (THAILAN17074NL0022023                                                                                                                              *          20170321IMF1703215.TXT
MDEDH3381575201703                D89828070300PT1D20170324000030SPEAKER ASM                   M IMCTM S5NB082FTTL  07070IMCT  S5 PTB  00015                    2230 SR        000000000000 FUJITSU TEN (THAILAN17059NL0008008                                                                                                                              *          20170321IMF1703215.TXT
MDEDH3381576201703                D89828070300PT1D20170327000060SPEAKER ASM                   M IMCTM S5NB082FTTL  07070IMCT  S5 PTB  00015                    0900 SR        000000000000 FUJITSU TEN (THAILAN17022ML0013014                                                                                                                              *          20170321IMF1703215.TXT
MDEDH3381577201703                D89828070300PT1D20170327000030SPEAKER ASM                   M IMCTM S5NB082FTTL  07070IMCT  S5 PTB  00015                    1300 SR        000000000000 FUJITSU TEN (THAILAN17080NL0051051                                                                                                                              *          20170321IMF1703215.TXT
MDEDH3381578201703                D89828070300PT1D20170327000030SPEAKER ASM                   M IMCTM S5NB082FTTL  07070IMCT  S5 PTB  00015                    1600 SR        000000000000 FUJITSU TEN (THAILAN17015NL0011011                                                                                                                              *          20170321IMF1703215.TXT
MDEDH3381579201703                D89828070300PT4D20170327000030SPEAKER ASM                   M IMCTM S9TS02 FTTL  07070IMCT  S9 PTB  00015                    0900 SR        000000000000 FUJITSU TEN (THAILAN17031MU0007007                                                                                                                              *          20170321IMF1703215.TXT
MDEDH3381580201703                D89829645700PT1D20170324000030RADIO;ASM DVD                 M IMCTM S5NC06 FTTL  07070IMCT  S5 X    00003                    2100 SR        000000000000 FUJITSU TEN (THAILAN17074NL0022023                                                                                                                              *          20170321IMF1703215.TXT
MDEUH3254127201703                D89828070100PT4U20170324000060SPEAKER ASM                   M IMCTM S0FL05 FTTL  07070IMCT  S0 PTB  00003                    2230 SR        000000000000 FUJITSU TEN (THAILAN170C13U0085085170C16U0203203                                                                                                                *          20170321IMF1703215.TXT
MDEUH3254128201703                D89828070100PT4U20170325000030SPEAKER ASM                   M IMCTM S0FL05 FTTL  07070IMCT  S0 PTB  00003                    0230 SR        000000000000 FUJITSU TEN (THAILAN170C16U0204204                                                                                                                              *          20170321IMF1703215.TXT
MDEUH3254129201703                D89828070100PT4U20170325000030SPEAKER ASM                   M IMCTM S0FL05 FTTL  07070IMCT  S0 PTB  00003                    0400 SR        000000000000 FUJITSU TEN (THAILAN170C16U0205205                                                                                                                              *          20170321IMF1703215.TXT
MDEUH3254130201703                D89828070100PT4U20170327000030SPEAKER ASM                   M IMCTM S0FL05 FTTL  07070IMCT  S0 PTB  00003                    0900 SR        000000000000 FUJITSU TEN (THAILAN170C16U0206206                                                                                                                              *          20170321IMF1703215.TXT
MDEUH3254131201703                D89828070100PT4U20170327000060SPEAKER ASM                   M IMCTM S0FL05 FTTL  07070IMCT  S0 PTB  00003                    1300 SR        000000000000 FUJITSU TEN (THAILAN170C13U008608618024TU0005005                                                                                                                *          20170321IMF1703215.TXT
MDEUH3254132201703                D89828070100PT4U20170327000030SPEAKER ASM                   M IMCTM S0FL05 FTTL  07070IMCT  S0 PTB  00003                    1600 SR        000000000000 FUJITSU TEN (THAILAN170C16U0207207                                                                                                                              *          20170321IMF1703215.TXT
MDEUH3254133201703                D89828070200PV4U20170324000060SPEAKER ASM                   M IMCTM S0FR05 FTTL  07070IMCT  S0 PTB  00005                    2230 SR        000000000000 FUJITSU TEN (THAILAN170C13U0085085170C16U0203203                                                                                                                *          20170321IMF1703215.TXT
MDEUH3254134201703                D89828070200PV4U20170325000030SPEAKER ASM                   M IMCTM S0FR05 FTTL  07070IMCT  S0 PTB  00005                    0230 SR        000000000000 FUJITSU TEN (THAILAN170C16U0204204                                                                                                                              *          20170321IMF1703215.TXT
MDEUH3254135201703                D89828070200PV4U20170325000030SPEAKER ASM                   M IMCTM S0FR05 FTTL  07070IMCT  S0 PTB  00005                    0400 SR        000000000000 FUJITSU TEN (THAILAN170C16U0205205                                                                                                                              *          20170321IMF1703215.TXT
MDEUH3254136201703                D89828070200PV4U20170327000030SPEAKER ASM                   M IMCTM S0FR05 FTTL  07070IMCT  S0 PTB  00005                    0900 SR        000000000000 FUJITSU TEN (THAILAN170C16U0206206                                                                                                                              *          20170321IMF1703215.TXT
MDEUH3254137201703                D89828070200PV4U20170327000060SPEAKER ASM                   M IMCTM S0FR05 FTTL  07070IMCT  S0 PTB  00005                    1300 SR        000000000000 FUJITSU TEN (THAILAN170C13U008608618024TU0005005                                                                                                                *          20170321IMF1703215.TXT
MDEUH3254138201703                D89828070200PV4U20170327000030SPEAKER ASM                   M IMCTM S0FR05 FTTL  07070IMCT  S0 PTB  00005                    1600 SR        000000000000 FUJITSU TEN (THAILAN170C16U0207207                                                                                                                              *          20170321IMF1703215.TXT
MDEUH3254139201703                D89828070300PT4U20170324000060SPEAKER ASM                   M IMCTM S9TS02 FTTL  07070IMCT  S9 PTB  00015                    2230 SR        000000000000 FUJITSU TEN (THAILAN170C13U0085085170C16U0203203                                                                                                                *          20170321IMF1703215.TXT
MDEUH3254140201703                D89828070300PT4U20170325000030SPEAKER ASM                   M IMCTM S9TS02 FTTL  07070IMCT  S9 PTB  00015                    0230 SR        000000000000 FUJITSU TEN (THAILAN170C16U0204204                                                                                                                              *          20170321IMF1703215.TXT
MDEUH3254141201703                D89828070300PT4U20170325000030SPEAKER ASM                   M IMCTM S9TS02 FTTL  07070IMCT  S9 PTB  00015                    0400 SR        000000000000 FUJITSU TEN (THAILAN170C16U0205205                                                                                                                              *          20170321IMF1703215.TXT
MDEUH3254142201703                D89828070300PT4U20170327000030SPEAKER ASM                   M IMCTM S9TS02 FTTL  07070IMCT  S9 PTB  00015                    0900 SR        000000000000 FUJITSU TEN (THAILAN170C16U0206206                                                                                                                              *          20170321IMF1703215.TXT
MDEUH3254143201703                D89828070300PT4U20170327000060SPEAKER ASM                   M IMCTM S9TS02 FTTL  07070IMCT  S9 PTB  00015                    1300 SR        000000000000 FUJITSU TEN (THAILAN170C13U008608618024TU0005005                                                                                                                *          20170321IMF1703215.TXT
MDEUH3254144201703                D89828070300PT4U20170327000030SPEAKER ASM                   M IMCTM S9TS02 FTTL  07070IMCT  S9 PTB  00015                    1600 SR        000000000000 FUJITSU TEN (THAILAN170C16U0207207                                                                                                                              *          20170321IMF1703215.TXT
