REC2017031720170317ISUZU                              55     
MDDDH3211646201703                D89828070100PV1D20170322000060SPEAKER ASM                   M IMCTM S5MB11 FTTL  07070IMCT  S5 PTB  00003                    0900 SR        000000000000 FUJITSU TEN (THAILAN170KNBL0023023                                                                                                                              *          20170317IMF1703175.TXT
MDDDH3211647201703                D89828070100PV1D20170322000060SPEAKER ASM                   M IMCTM S5MB11 FTTL  07070IMCT  S5 PTB  00003                    1300 SR        000000000000 FUJITSU TEN (THAILAN170KNBL0024024                                                                                                                              *          20170317IMF1703175.TXT
MDDUH3241330201703                D89828070100PT4U20170321000030SPEAKER ASM                   M IMCTM S0FL05 FTTL  07070IMCT  S0 PTB  00003                    2100 SR        000000000000 FUJITSU TEN (THAILAN180LUCU0025025                                                                                                                              *          20170317IMF1703175.TXT
MDDUH3241331201703                D89828070100PT4U20170322000030SPEAKER ASM                   M IMCTM S0FL05 FTTL  07070IMCT  S0 PTB  00003                    0230 SR        000000000000 FUJITSU TEN (THAILAN180LUCU0026026                                                                                                                              *          20170317IMF1703175.TXT
MDDUH3241332201703                D89828070100PT4U20170322000030SPEAKER ASM                   M IMCTM S0FL05 FTTL  07070IMCT  S0 PTB  00003                    0400 SR        000000000000 FUJITSU TEN (THAILAN180LUDU0068068                                                                                                                              *          20170317IMF1703175.TXT
MDDUH3241333201703                D89828070200PV4U20170321000030SPEAKER ASM                   M IMCTM S0FR05 FTTL  07070IMCT  S0 PTB  00005                    2100 SR        000000000000 FUJITSU TEN (THAILAN180LUCU0025025                                                                                                                              *          20170317IMF1703175.TXT
MDDUH3241334201703                D89828070200PV4U20170322000030SPEAKER ASM                   M IMCTM S0FR05 FTTL  07070IMCT  S0 PTB  00005                    0230 SR        000000000000 FUJITSU TEN (THAILAN180LUCU0026026                                                                                                                              *          20170317IMF1703175.TXT
MDDUH3241335201703                D89828070200PV4U20170322000030SPEAKER ASM                   M IMCTM S0FR05 FTTL  07070IMCT  S0 PTB  00005                    0400 SR        000000000000 FUJITSU TEN (THAILAN180LUDU0068068                                                                                                                              *          20170317IMF1703175.TXT
MDDUH3241336201703                D89828070300PT4U20170321000030SPEAKER ASM                   M IMCTM S9TS02 FTTL  07070IMCT  S9 PTB  00015                    2100 SR        000000000000 FUJITSU TEN (THAILAN180LUCU0025025                                                                                                                              *          20170317IMF1703175.TXT
MDDUH3241337201703                D89828070300PT4U20170322000030SPEAKER ASM                   M IMCTM S9TS02 FTTL  07070IMCT  S9 PTB  00015                    0230 SR        000000000000 FUJITSU TEN (THAILAN180LUCU0026026                                                                                                                              *          20170317IMF1703175.TXT
MDDUH3241338201703                D89828070300PT4U20170322000030SPEAKER ASM                   M IMCTM S9TS02 FTTL  07070IMCT  S9 PTB  00015                    0400 SR        000000000000 FUJITSU TEN (THAILAN180LUDU0068068                                                                                                                              *          20170317IMF1703175.TXT
MDDUH3241339201703                D89835097900PT4U20170321000015RADIO;ASM DVD                 M IMCTM S9CO001FTTL  07070IMCT  S9 PTB  00003                    2100 SR        000000000000 FUJITSU TEN (THAILAN180LUCU0025025                                                                                                                              *          20170317IMF1703175.TXT
MDDUH3241340201703                D89835097900PT4U20170322000015RADIO;ASM DVD                 M IMCTM S9CO001FTTL  07070IMCT  S9 PTB  00003                    0230 SR        000000000000 FUJITSU TEN (THAILAN180LUCU0026026                                                                                                                              *          20170317IMF1703175.TXT
MDEDH3353377201703                D89827952200PT1D20170322000015RADIO;AM/FM,CD,D              M IMCTM S5NC06 FTTL  07070IMCT  S5 X    00003                    0400 SR        000000000000 FUJITSU TEN (THAILAN17056NL0015015                                                                                                                              *          20170317IMF1703175.TXT
MDEDH3353378201703                D89828070100PV1D20170321000060SPEAKER ASM                   M IMCTM S5MB11 FTTL  07070IMCT  S5 PTB  00003                    2100 SR        000000000000 FUJITSU TEN (THAILAN17026NL001001017075PL0044044                                                                                                                *          20170317IMF1703175.TXT
MDEDH3353379201703                D89828070100PV1D20170321000150SPEAKER ASM                   M IMCTM S5MB11 FTTL  07070IMCT  S5 PTB  00003                    2230 SR        000000000000 FUJITSU TEN (THAILAN17026NL001101117040PL000400417053NL001801817057RL0006007                                                                                    *          20170317IMF1703175.TXT
MDEDH3353380201703                D89828070100PV1D20170322000060SPEAKER ASM                   M IMCTM S5MB11 FTTL  07070IMCT  S5 PTB  00003                    0230 SR        000000000000 FUJITSU TEN (THAILAN17026NL001201217057RL0008008                                                                                                                *          20170317IMF1703175.TXT
MDEDH3353381201703                D89828070100PV1D20170322000090SPEAKER ASM                   M IMCTM S5MB11 FTTL  07070IMCT  S5 PTB  00003                    0400 SR        000000000000 FUJITSU TEN (THAILAN17056NL001501517062NL000700717080NL0039039                                                                                                  *          20170317IMF1703175.TXT
MDEDH3353382201703                D89828070100PV1D20170322000090SPEAKER ASM                   M IMCTM S5MB11 FTTL  07070IMCT  S5 PTB  00003                    0900 SR        000000000000 FUJITSU TEN (THAILAN17026NL001301317040PL000500517057RL0009009                                                                                                  *          20170317IMF1703175.TXT
MDEDH3353383201703                D89828070100PV1D20170322000060SPEAKER ASM                   M IMCTM S5MB11 FTTL  07070IMCT  S5 PTB  00003                    1300 SR        000000000000 FUJITSU TEN (THAILAN17026NL001401417080NL0040040                                                                                                                *          20170317IMF1703175.TXT
MDEDH3353384201703                D89828070100PV4D20170321000030SPEAKER ASM                   M IMCTM S0FL05 FTTL  07070IMCT  S0 PTB  00003                    2230 SR        000000000000 FUJITSU TEN (THAILAN17064NU0004004                                                                                                                              *          20170317IMF1703175.TXT
MDEDH3353385201703                D89828070100PV4D20170322000030SPEAKER ASM                   M IMCTM S0FL05 FTTL  07070IMCT  S0 PTB  00003                    0900 SR        000000000000 FUJITSU TEN (THAILAN17026NU0001001                                                                                                                              *          20170317IMF1703175.TXT
MDEDH3353386201703                D89828070100PV4D20170322000030SPEAKER ASM                   M IMCTM S0FL05 FTTL  07070IMCT  S0 PTB  00003                    1300 SR        000000000000 FUJITSU TEN (THAILAN17081NU0009009                                                                                                                              *          20170317IMF1703175.TXT
MDEDH3353387201703                D89828070200PV1D20170321000030SPEAKER ASM                   M IMCTM S5MA14 FTTL  07070IMCT  S5 PTB  00005                    2100 SR        000000000000 FUJITSU TEN (THAILAN17026NL0010010                                                                                                                              *          20170317IMF1703175.TXT
MDEDH3353388201703                D89828070200PV1D20170321000030SPEAKER ASM                   M IMCTM S5MA14 FTTL  07070IMCT  S5 PTB  00005                    2230 SR        000000000000 FUJITSU TEN (THAILAN17026NL0011011                                                                                                                              *          20170317IMF1703175.TXT
MDEDH3353389201703                D89828070200PV1D20170322000030SPEAKER ASM                   M IMCTM S5MA14 FTTL  07070IMCT  S5 PTB  00005                    0230 SR        000000000000 FUJITSU TEN (THAILAN17026NL0012012                                                                                                                              *          20170317IMF1703175.TXT
MDEDH3353390201703                D89828070200PV1D20170322000030SPEAKER ASM                   M IMCTM S5MA14 FTTL  07070IMCT  S5 PTB  00005                    0400 SR        000000000000 FUJITSU TEN (THAILAN17080NL0039039                                                                                                                              *          20170317IMF1703175.TXT
MDEDH3353391201703                D89828070200PV1D20170322000030SPEAKER ASM                   M IMCTM S5MA14 FTTL  07070IMCT  S5 PTB  00005                    0900 SR        000000000000 FUJITSU TEN (THAILAN17026NL0013013                                                                                                                              *          20170317IMF1703175.TXT
MDEDH3353392201703                D89828070200PV1D20170322000060SPEAKER ASM                   M IMCTM S5MA14 FTTL  07070IMCT  S5 PTB  00005                    1300 SR        000000000000 FUJITSU TEN (THAILAN17026NL001401417080NL0040040                                                                                                                *          20170317IMF1703175.TXT
MDEDH3353393201703                D89828070200PV4D20170322000030SPEAKER ASM                   M IMCTM S0FR05 FTTL  07070IMCT  S0 PTB  00005                    0900 SR        000000000000 FUJITSU TEN (THAILAN17026NU0001001                                                                                                                              *          20170317IMF1703175.TXT
MDEDH3353394201703                D89828070200PV4D20170322000030SPEAKER ASM                   M IMCTM S0FR05 FTTL  07070IMCT  S0 PTB  00005                    1300 SR        000000000000 FUJITSU TEN (THAILAN17081NU0009009                                                                                                                              *          20170317IMF1703175.TXT
MDEDH3353395201703                D89828070300PT1D20170321000030SPEAKER ASM                   M IMCTM S5NB082FTTL  07070IMCT  S5 PTB  00015                    2100 SR        000000000000 FUJITSU TEN (THAILAN17026NL0010010                                                                                                                              *          20170317IMF1703175.TXT
MDEDH3353396201703                D89828070300PT1D20170321000060SPEAKER ASM                   M IMCTM S5NB082FTTL  07070IMCT  S5 PTB  00015                    2230 SR        000000000000 FUJITSU TEN (THAILAN17026NL001101117053NL0018018                                                                                                                *          20170317IMF1703175.TXT
MDEDH3353397201703                D89828070300PT1D20170322000030SPEAKER ASM                   M IMCTM S5NB082FTTL  07070IMCT  S5 PTB  00015                    0230 SR        000000000000 FUJITSU TEN (THAILAN17026NL0012012                                                                                                                              *          20170317IMF1703175.TXT
MDEDH3353398201703                D89828070300PT1D20170322000090SPEAKER ASM                   M IMCTM S5NB082FTTL  07070IMCT  S5 PTB  00015                    0400 SR        000000000000 FUJITSU TEN (THAILAN17056NL001501517062NL000700717080NL0039039                                                                                                  *          20170317IMF1703175.TXT
MDEDH3353399201703                D89828070300PT1D20170322000030SPEAKER ASM                   M IMCTM S5NB082FTTL  07070IMCT  S5 PTB  00015                    0900 SR        000000000000 FUJITSU TEN (THAILAN17026NL0013013                                                                                                                              *          20170317IMF1703175.TXT
MDEDH3353400201703                D89828070300PT1D20170322000060SPEAKER ASM                   M IMCTM S5NB082FTTL  07070IMCT  S5 PTB  00015                    1300 SR        000000000000 FUJITSU TEN (THAILAN17026NL001401417080NL0040040                                                                                                                *          20170317IMF1703175.TXT
MDEDH3353401201703                D89828070300PT4D20170321000030SPEAKER ASM                   M IMCTM S9TS02 FTTL  07070IMCT  S9 PTB  00015                    2230 SR        000000000000 FUJITSU TEN (THAILAN17064NU0004004                                                                                                                              *          20170317IMF1703175.TXT
MDEDH3353402201703                D89828070300PT4D20170322000030SPEAKER ASM                   M IMCTM S9TS02 FTTL  07070IMCT  S9 PTB  00015                    0900 SR        000000000000 FUJITSU TEN (THAILAN17026NU0001001                                                                                                                              *          20170317IMF1703175.TXT
MDEDH3353403201703                D89828070300PT4D20170322000030SPEAKER ASM                   M IMCTM S9TS02 FTTL  07070IMCT  S9 PTB  00015                    1300 SR        000000000000 FUJITSU TEN (THAILAN17081NU0009009                                                                                                                              *          20170317IMF1703175.TXT
MDEDH3353404201703                D89829645700PT1D20170321000015RADIO;ASM DVD                 M IMCTM S5NC06 FTTL  07070IMCT  S5 X    00003                    2230 SR        000000000000 FUJITSU TEN (THAILAN17053NL0018018                                                                                                                              *          20170317IMF1703175.TXT
MDEDH3353405201703                D89829645700PT4D20170321000015RADIO;ASM DVD                 M IMCTM S9CO001FTTL  07070IMCT  S9 X    00003                    2230 SR        000000000000 FUJITSU TEN (THAILAN17064NU0004004                                                                                                                              *          20170317IMF1703175.TXT
MDEDH3353406201703                D89831228600PT1D20170322000015RADIO;AM/FM,CD                M IMCTM S5NC06 FTTL  07070IMCT  S5 PTB  00003                    0400 SR        000000000000 FUJITSU TEN (THAILAN17062NL0007007                                                                                                                              *          20170317IMF1703175.TXT
MDEUH3242083201703                D89828070100PT4U20170321000030SPEAKER ASM                   M IMCTM S0FL05 FTTL  07070IMCT  S0 PTB  00003                    2230 SR        000000000000 FUJITSU TEN (THAILAN18023TU0018018                                                                                                                              *          20170317IMF1703175.TXT
MDEUH3242084201703                D89828070100PT4U20170322000060SPEAKER ASM                   M IMCTM S0FL05 FTTL  07070IMCT  S0 PTB  00003                    0900 SR        000000000000 FUJITSU TEN (THAILAN170C13U007807818023TU0019019                                                                                                                *          20170317IMF1703175.TXT
MDEUH3242085201703                D89828070100PT4U20170322000030SPEAKER ASM                   M IMCTM S0FL05 FTTL  07070IMCT  S0 PTB  00003                    1300 SR        000000000000 FUJITSU TEN (THAILAN170C12U0045045                                                                                                                              *          20170317IMF1703175.TXT
MDEUH3242086201703                D89828070100PT4U20170322000030SPEAKER ASM                   M IMCTM S0FL05 FTTL  07070IMCT  S0 PTB  00003                    1600 SR        000000000000 FUJITSU TEN (THAILAN170C13U0079079                                                                                                                              *          20170317IMF1703175.TXT
MDEUH3242087201703                D89828070200PV4U20170321000030SPEAKER ASM                   M IMCTM S0FR05 FTTL  07070IMCT  S0 PTB  00005                    2230 SR        000000000000 FUJITSU TEN (THAILAN18023TU0018018                                                                                                                              *          20170317IMF1703175.TXT
MDEUH3242088201703                D89828070200PV4U20170322000060SPEAKER ASM                   M IMCTM S0FR05 FTTL  07070IMCT  S0 PTB  00005                    0900 SR        000000000000 FUJITSU TEN (THAILAN170C13U007807818023TU0019019                                                                                                                *          20170317IMF1703175.TXT
MDEUH3242089201703                D89828070200PV4U20170322000030SPEAKER ASM                   M IMCTM S0FR05 FTTL  07070IMCT  S0 PTB  00005                    1300 SR        000000000000 FUJITSU TEN (THAILAN170C12U0045045                                                                                                                              *          20170317IMF1703175.TXT
MDEUH3242090201703                D89828070200PV4U20170322000030SPEAKER ASM                   M IMCTM S0FR05 FTTL  07070IMCT  S0 PTB  00005                    1600 SR        000000000000 FUJITSU TEN (THAILAN170C13U0079079                                                                                                                              *          20170317IMF1703175.TXT
MDEUH3242091201703                D89828070300PT4U20170321000030SPEAKER ASM                   M IMCTM S9TS02 FTTL  07070IMCT  S9 PTB  00015                    2230 SR        000000000000 FUJITSU TEN (THAILAN18023TU0018018                                                                                                                              *          20170317IMF1703175.TXT
MDEUH3242092201703                D89828070300PT4U20170322000060SPEAKER ASM                   M IMCTM S9TS02 FTTL  07070IMCT  S9 PTB  00015                    0900 SR        000000000000 FUJITSU TEN (THAILAN170C13U007807818023TU0019019                                                                                                                *          20170317IMF1703175.TXT
MDEUH3242093201703                D89828070300PT4U20170322000030SPEAKER ASM                   M IMCTM S9TS02 FTTL  07070IMCT  S9 PTB  00015                    1300 SR        000000000000 FUJITSU TEN (THAILAN170C12U0045045                                                                                                                              *          20170317IMF1703175.TXT
MDEUH3242094201703                D89828070300PT4U20170322000030SPEAKER ASM                   M IMCTM S9TS02 FTTL  07070IMCT  S9 PTB  00015                    1600 SR        000000000000 FUJITSU TEN (THAILAN170C13U0079079                                                                                                                              *          20170317IMF1703175.TXT
