REC2017032220170322ISUZU                              53     
MDDDH3216370201703                D89821984430PT1D20170328000030RADIO;AM/FM,CD                M IMCTM S5NC06 FTTL  07070IMCT  S5 PTB  00005                    1300 SR        000000000000 FUJITSU TEN (THAILAN170KNEL0071071                                                                                                                              *          20170322IMF1703224.TXT
MDDDH3216371201703                D89828070100PV1D20170327000060SPEAKER ASM                   M IMCTM S5MB11 FTTL  07070IMCT  S5 PTB  00003                    2230 SR        000000000000 FUJITSU TEN (THAILAN170KNAL0045045                                                                                                                              *          20170322IMF1703224.TXT
MDDDH3216372201703                D89828070100PV1D20170328000060SPEAKER ASM                   M IMCTM S5MB11 FTTL  07070IMCT  S5 PTB  00003                    1300 SR        000000000000 FUJITSU TEN (THAILAN170KNEL0071071                                                                                                                              *          20170322IMF1703224.TXT
MDEDH3390059201703                D89805293700PV1D20170327000030SPEAKER ASM                   M IMCTM S5MB11 FTTL  07070IMCT  S5 PTB  00003                    2230 SR        000000000000 FUJITSU TEN (THAILAN15043DL0017017                                                                                                                              *          20170322IMF1703224.TXT
MDEDH3390060201703                D89805293700PV1D20170328000030SPEAKER ASM                   M IMCTM S5MB11 FTTL  07070IMCT  S5 PTB  00003                    0230 SR        000000000000 FUJITSU TEN (THAILAN15034DL0001001                                                                                                                              *          20170322IMF1703224.TXT
MDEDH3390061201703                D89805294000PT1D20170327000030SPEAKER ASM                   M IMCTM S5NB082FTTL  07070IMCT  S5 PTB  00015                    2230 SR        000000000000 FUJITSU TEN (THAILAN15043DL0017017                                                                                                                              *          20170322IMF1703224.TXT
MDEDH3390062201703                D89805294000PT1D20170328000030SPEAKER ASM                   M IMCTM S5NB082FTTL  07070IMCT  S5 PTB  00015                    0230 SR        000000000000 FUJITSU TEN (THAILAN15034DL0001001                                                                                                                              *          20170322IMF1703224.TXT
MDEDH3390063201703                D89805294200PT1D20170327000030SPEAKER ASM                   M IMCTM S5AS011FTTL  07070IMCT  S6 PTB  00030                    2230 SR        000000000000 FUJITSU TEN (THAILAN15043DL0017017                                                                                                                              *          20170322IMF1703224.TXT
MDEDH3390064201703                D89805294200PT1D20170328000030SPEAKER ASM                   M IMCTM S5AS011FTTL  07070IMCT  S6 PTB  00030                    0230 SR        000000000000 FUJITSU TEN (THAILAN15034DL0001001                                                                                                                              *          20170322IMF1703224.TXT
MDEDH3390065201703                D89806470400PT1D20170327000015SPEAKER ASM;RDO,              M IMCTM S5EA18 FTTL  07070IMCT  S6 PTB  00015                    2230 SR        000000000000 FUJITSU TEN (THAILAN15043DL0017017                                                                                                                              *          20170322IMF1703224.TXT
MDEDH3390066201703                D89806470400PT1D20170328000015SPEAKER ASM;RDO,              M IMCTM S5EA18 FTTL  07070IMCT  S6 PTB  00015                    0230 SR        000000000000 FUJITSU TEN (THAILAN15034DL0001001                                                                                                                              *          20170322IMF1703224.TXT
MDEDH3390067201703                D89824360220PT1D20170327000015RADIO;AM/FM,CD                M IMCTM S5NC06 FTTL  07070IMCT  S5 CPB  00003                    2230 SR        000000000000 FUJITSU TEN (THAILAN15043DL0017017                                                                                                                              *          20170322IMF1703224.TXT
MDEDH3390068201703                D89824360220PT1D20170328000015RADIO;AM/FM,CD                M IMCTM S5NC06 FTTL  07070IMCT  S5 CPB  00003                    0230 SR        000000000000 FUJITSU TEN (THAILAN15034DL0001001                                                                                                                              *          20170322IMF1703224.TXT
MDEDH3390069201703                D89828070100PV1D20170327000060SPEAKER ASM                   M IMCTM S5MB11 FTTL  07070IMCT  S5 PTB  00003                    2100 SR        000000000000 FUJITSU TEN (THAILAN17057ML000600617059NL0009009                                                                                                                *          20170322IMF1703224.TXT
MDEDH3390070201703                D89828070100PV1D20170327000060SPEAKER ASM                   M IMCTM S5MB11 FTTL  07070IMCT  S5 PTB  00003                    2230 SR        000000000000 FUJITSU TEN (THAILAN17054RL0001002                                                                                                                              *          20170322IMF1703224.TXT
MDEDH3390071201703                D89828070100PV1D20170328000030SPEAKER ASM                   M IMCTM S5MB11 FTTL  07070IMCT  S5 PTB  00003                    0230 SR        000000000000 FUJITSU TEN (THAILAN17052RL0005005                                                                                                                              *          20170322IMF1703224.TXT
MDEDH3390072201703                D89828070100PV1D20170328000090SPEAKER ASM                   M IMCTM S5MB11 FTTL  07070IMCT  S5 PTB  00003                    0400 SR        000000000000 FUJITSU TEN (THAILAN17022ML001501517034RL000700717057RL0010010                                                                                                  *          20170322IMF1703224.TXT
MDEDH3390073201703                D89828070100PV1D20170328000120SPEAKER ASM                   M IMCTM S5MB11 FTTL  07070IMCT  S5 PTB  00003                    0900 SR        000000000000 FUJITSU TEN (THAILAN17057RL001101117060NL001401417070NL000400417076ML0014014                                                                                    *          20170322IMF1703224.TXT
MDEDH3390074201703                D89828070100PV1D20170328000090SPEAKER ASM                   M IMCTM S5MB11 FTTL  07070IMCT  S5 PTB  00003                    1300 SR        000000000000 FUJITSU TEN (THAILAN17060NL001501517071ML000900917085ML0010010                                                                                                  *          20170322IMF1703224.TXT
MDEDH3390075201703                D89828070100PV1D20170328000030SPEAKER ASM                   M IMCTM S5MB11 FTTL  07070IMCT  S5 PTB  00003                    1600 SR        000000000000 FUJITSU TEN (THAILAN17050ML0012012                                                                                                                              *          20170322IMF1703224.TXT
MDEDH3390076201703                D89828070100PV1D20170328000030SPEAKER ASM                   M IMCTM S5MB11 FTTL  07070IMCT  S5 PTB  00003                    2100 SR        000000000000 FUJITSU TEN (THAILAN17050ML0013013                                                                                                                              *          20170322IMF1703224.TXT
MDEDH3390077201703                D89828070100PV4D20170328000030SPEAKER ASM                   M IMCTM S0FL05 FTTL  07070IMCT  S0 PTB  00003                    0900 SR        000000000000 FUJITSU TEN (THAILAN17031MU0008008                                                                                                                              *          20170322IMF1703224.TXT
MDEDH3390078201703                D89828070200PV1D20170327000030SPEAKER ASM                   M IMCTM S5MA14 FTTL  07070IMCT  S5 PTB  00005                    2100 SR        000000000000 FUJITSU TEN (THAILAN17059NL0009009                                                                                                                              *          20170322IMF1703224.TXT
MDEDH3390079201703                D89828070200PV1D20170327000060SPEAKER ASM                   M IMCTM S5MA14 FTTL  07070IMCT  S5 PTB  00005                    2230 SR        000000000000 FUJITSU TEN (THAILAN17054RL0001002                                                                                                                              *          20170322IMF1703224.TXT
MDEDH3390080201703                D89828070200PV1D20170328000030SPEAKER ASM                   M IMCTM S5MA14 FTTL  07070IMCT  S5 PTB  00005                    0400 SR        000000000000 FUJITSU TEN (THAILAN17022ML0015015                                                                                                                              *          20170322IMF1703224.TXT
MDEDH3390081201703                D89828070200PV1D20170328000060SPEAKER ASM                   M IMCTM S5MA14 FTTL  07070IMCT  S5 PTB  00005                    0900 SR        000000000000 FUJITSU TEN (THAILAN17060NL001401417070NL0004004                                                                                                                *          20170322IMF1703224.TXT
MDEDH3390082201703                D89828070200PV1D20170328000060SPEAKER ASM                   M IMCTM S5MA14 FTTL  07070IMCT  S5 PTB  00005                    1300 SR        000000000000 FUJITSU TEN (THAILAN17060NL001501517085ML0010010                                                                                                                *          20170322IMF1703224.TXT
MDEDH3390083201703                D89828070200PV4D20170328000030SPEAKER ASM                   M IMCTM S0FR05 FTTL  07070IMCT  S0 PTB  00005                    0900 SR        000000000000 FUJITSU TEN (THAILAN17031MU0008008                                                                                                                              *          20170322IMF1703224.TXT
MDEDH3390084201703                D89828070300PT1D20170327000060SPEAKER ASM                   M IMCTM S5NB082FTTL  07070IMCT  S5 PTB  00015                    2100 SR        000000000000 FUJITSU TEN (THAILAN17057ML000600617059NL0009009                                                                                                                *          20170322IMF1703224.TXT
MDEDH3390085201703                D89828070300PT1D20170327000060SPEAKER ASM                   M IMCTM S5NB082FTTL  07070IMCT  S5 PTB  00015                    2230 SR        000000000000 FUJITSU TEN (THAILAN17054RL0001002                                                                                                                              *          20170322IMF1703224.TXT
MDEDH3390086201703                D89828070300PT1D20170328000030SPEAKER ASM                   M IMCTM S5NB082FTTL  07070IMCT  S5 PTB  00015                    0400 SR        000000000000 FUJITSU TEN (THAILAN17022ML0015015                                                                                                                              *          20170322IMF1703224.TXT
MDEDH3390087201703                D89828070300PT1D20170328000060SPEAKER ASM                   M IMCTM S5NB082FTTL  07070IMCT  S5 PTB  00015                    0900 SR        000000000000 FUJITSU TEN (THAILAN17060NL001401417070NL0004004                                                                                                                *          20170322IMF1703224.TXT
MDEDH3390088201703                D89828070300PT1D20170328000090SPEAKER ASM                   M IMCTM S5NB082FTTL  07070IMCT  S5 PTB  00015                    1300 SR        000000000000 FUJITSU TEN (THAILAN17060NL001501517071ML000900917085ML0010010                                                                                                  *          20170322IMF1703224.TXT
MDEDH3390089201703                D89828070300PT4D20170328000030SPEAKER ASM                   M IMCTM S9TS02 FTTL  07070IMCT  S9 PTB  00015                    0900 SR        000000000000 FUJITSU TEN (THAILAN17031MU0008008                                                                                                                              *          20170322IMF1703224.TXT
MDEDH3390090201703                D89829645700PT1D20170328000015RADIO;ASM DVD                 M IMCTM S5NC06 FTTL  07070IMCT  S5 X    00003                    0900 SR        000000000000 FUJITSU TEN (THAILAN17070NL0004004                                                                                                                              *          20170322IMF1703224.TXT
MDEUH3258852201703                D89828070100PT4U20170327000030SPEAKER ASM                   M IMCTM S0FL05 FTTL  07070IMCT  S0 PTB  00003                    2230 SR        000000000000 FUJITSU TEN (THAILAN170C16U0208208                                                                                                                              *          20170322IMF1703224.TXT
MDEUH3258853201703                D89828070100PT4U20170328000030SPEAKER ASM                   M IMCTM S0FL05 FTTL  07070IMCT  S0 PTB  00003                    0230 SR        000000000000 FUJITSU TEN (THAILAN170C16U0209209                                                                                                                              *          20170322IMF1703224.TXT
MDEUH3258854201703                D89828070100PT4U20170328000060SPEAKER ASM                   M IMCTM S0FL05 FTTL  07070IMCT  S0 PTB  00003                    0400 SR        000000000000 FUJITSU TEN (THAILAN170C13U0087087170C16U0210210                                                                                                                *          20170322IMF1703224.TXT
MDEUH3258855201703                D89828070100PT4U20170328000060SPEAKER ASM                   M IMCTM S0FL05 FTTL  07070IMCT  S0 PTB  00003                    1300 SR        000000000000 FUJITSU TEN (THAILAN170C13U0088088170C16U0211211                                                                                                                *          20170322IMF1703224.TXT
MDEUH3258856201703                D89828070100PT4U20170328000030SPEAKER ASM                   M IMCTM S0FL05 FTTL  07070IMCT  S0 PTB  00003                    1600 SR        000000000000 FUJITSU TEN (THAILAN170C16U0212212                                                                                                                              *          20170322IMF1703224.TXT
MDEUH3258857201703                D89828070100PT4U20170328000030SPEAKER ASM                   M IMCTM S0FL05 FTTL  07070IMCT  S0 PTB  00003                    2100 SR        000000000000 FUJITSU TEN (THAILAN170C16U0213213                                                                                                                              *          20170322IMF1703224.TXT
MDEUH3258858201703                D89828070200PV4U20170327000030SPEAKER ASM                   M IMCTM S0FR05 FTTL  07070IMCT  S0 PTB  00005                    2230 SR        000000000000 FUJITSU TEN (THAILAN170C16U0208208                                                                                                                              *          20170322IMF1703224.TXT
MDEUH3258859201703                D89828070200PV4U20170328000030SPEAKER ASM                   M IMCTM S0FR05 FTTL  07070IMCT  S0 PTB  00005                    0230 SR        000000000000 FUJITSU TEN (THAILAN170C16U0209209                                                                                                                              *          20170322IMF1703224.TXT
MDEUH3258860201703                D89828070200PV4U20170328000060SPEAKER ASM                   M IMCTM S0FR05 FTTL  07070IMCT  S0 PTB  00005                    0400 SR        000000000000 FUJITSU TEN (THAILAN170C13U0087087170C16U0210210                                                                                                                *          20170322IMF1703224.TXT
MDEUH3258861201703                D89828070200PV4U20170328000060SPEAKER ASM                   M IMCTM S0FR05 FTTL  07070IMCT  S0 PTB  00005                    1300 SR        000000000000 FUJITSU TEN (THAILAN170C13U0088088170C16U0211211                                                                                                                *          20170322IMF1703224.TXT
MDEUH3258862201703                D89828070200PV4U20170328000030SPEAKER ASM                   M IMCTM S0FR05 FTTL  07070IMCT  S0 PTB  00005                    1600 SR        000000000000 FUJITSU TEN (THAILAN170C16U0212212                                                                                                                              *          20170322IMF1703224.TXT
MDEUH3258863201703                D89828070200PV4U20170328000030SPEAKER ASM                   M IMCTM S0FR05 FTTL  07070IMCT  S0 PTB  00005                    2100 SR        000000000000 FUJITSU TEN (THAILAN170C16U0213213                                                                                                                              *          20170322IMF1703224.TXT
MDEUH3258864201703                D89828070300PT4U20170327000030SPEAKER ASM                   M IMCTM S9TS02 FTTL  07070IMCT  S9 PTB  00015                    2230 SR        000000000000 FUJITSU TEN (THAILAN170C16U0208208                                                                                                                              *          20170322IMF1703224.TXT
MDEUH3258865201703                D89828070300PT4U20170328000030SPEAKER ASM                   M IMCTM S9TS02 FTTL  07070IMCT  S9 PTB  00015                    0230 SR        000000000000 FUJITSU TEN (THAILAN170C16U0209209                                                                                                                              *          20170322IMF1703224.TXT
MDEUH3258866201703                D89828070300PT4U20170328000060SPEAKER ASM                   M IMCTM S9TS02 FTTL  07070IMCT  S9 PTB  00015                    0400 SR        000000000000 FUJITSU TEN (THAILAN170C13U0087087170C16U0210210                                                                                                                *          20170322IMF1703224.TXT
MDEUH3258867201703                D89828070300PT4U20170328000060SPEAKER ASM                   M IMCTM S9TS02 FTTL  07070IMCT  S9 PTB  00015                    1300 SR        000000000000 FUJITSU TEN (THAILAN170C13U0088088170C16U0211211                                                                                                                *          20170322IMF1703224.TXT
MDEUH3258868201703                D89828070300PT4U20170328000030SPEAKER ASM                   M IMCTM S9TS02 FTTL  07070IMCT  S9 PTB  00015                    1600 SR        000000000000 FUJITSU TEN (THAILAN170C16U0212212                                                                                                                              *          20170322IMF1703224.TXT
MDEUH3258869201703                D89828070300PT4U20170328000030SPEAKER ASM                   M IMCTM S9TS02 FTTL  07070IMCT  S9 PTB  00015                    2100 SR        000000000000 FUJITSU TEN (THAILAN170C16U0213213                                                                                                                              *          20170322IMF1703224.TXT
