REC2017030620170306ISUZU                              68     
MDDDH3202976201703                D89821984430PT1D20170310000030RADIO;AM/FM,CD                M IMCTM S5NC06 FTTL  07070IMCT  S5 PTB  00005                    0900 SR        000000000000 FUJITSU TEN (THAILAN170KNDL0076076                                                                                                                              *          20170306IMF1703065.TXT
MDDDH3202977201703                D89828070100PV1D20170310000060SPEAKER ASM                   M IMCTM S5MB11 FTTL  07070IMCT  S5 PTB  00004                    0900 SR        000000000000 FUJITSU TEN (THAILAN170KNDL0076076                                                                                                                              *          20170306IMF1703065.TXT
MDDUH3215559201703                D89828070100PT4U20170309000030SPEAKER ASM                   M IMCTM S0FL05 FTTL  07070IMCT  S0 PTB  00004                    2230 SR        000000000000 FUJITSU TEN (THAILAN180LUEU0026026                                                                                                                              *          20170306IMF1703065.TXT
MDDUH3215560201703                D89828070100PT4U20170310000030SPEAKER ASM                   M IMCTM S0FL05 FTTL  07070IMCT  S0 PTB  00004                    0230 SR        000000000000 FUJITSU TEN (THAILAN180LUDU0058058                                                                                                                              *          20170306IMF1703065.TXT
MDDUH3215561201703                D89828070100PT4U20170310000030SPEAKER ASM                   M IMCTM S0FL05 FTTL  07070IMCT  S0 PTB  00004                    0400 SR        000000000000 FUJITSU TEN (THAILAN180LUEU0027027                                                                                                                              *          20170306IMF1703065.TXT
MDDUH3215562201703                D89828070100PT4U20170310000030SPEAKER ASM                   M IMCTM S0FL05 FTTL  07070IMCT  S0 PTB  00004                    0900 SR        000000000000 FUJITSU TEN (THAILAN180LUEU0028028                                                                                                                              *          20170306IMF1703065.TXT
MDDUH3215563201703                D89828070100PT4U20170310000030SPEAKER ASM                   M IMCTM S0FL05 FTTL  07070IMCT  S0 PTB  00004                    1300 SR        000000000000 FUJITSU TEN (THAILAN180LUDU0059059                                                                                                                              *          20170306IMF1703065.TXT
MDDUH3215564201703                D89828070100PT4U20170310000060SPEAKER ASM                   M IMCTM S0FL05 FTTL  07070IMCT  S0 PTB  00004                    1600 SR        000000000000 FUJITSU TEN (THAILAN180LUEU0029030                                                                                                                              *          20170306IMF1703065.TXT
MDDUH3215565201703                D89828070200PV4U20170309000030SPEAKER ASM                   M IMCTM S0FR05 FTTL  07070IMCT  S0 PTB  00005                    2230 SR        000000000000 FUJITSU TEN (THAILAN180LUEU0026026                                                                                                                              *          20170306IMF1703065.TXT
MDDUH3215566201703                D89828070200PV4U20170310000030SPEAKER ASM                   M IMCTM S0FR05 FTTL  07070IMCT  S0 PTB  00005                    0230 SR        000000000000 FUJITSU TEN (THAILAN180LUDU0058058                                                                                                                              *          20170306IMF1703065.TXT
MDDUH3215567201703                D89828070200PV4U20170310000030SPEAKER ASM                   M IMCTM S0FR05 FTTL  07070IMCT  S0 PTB  00005                    0400 SR        000000000000 FUJITSU TEN (THAILAN180LUEU0027027                                                                                                                              *          20170306IMF1703065.TXT
MDDUH3215568201703                D89828070200PV4U20170310000030SPEAKER ASM                   M IMCTM S0FR05 FTTL  07070IMCT  S0 PTB  00005                    0900 SR        000000000000 FUJITSU TEN (THAILAN180LUEU0028028                                                                                                                              *          20170306IMF1703065.TXT
MDDUH3215569201703                D89828070200PV4U20170310000030SPEAKER ASM                   M IMCTM S0FR05 FTTL  07070IMCT  S0 PTB  00005                    1300 SR        000000000000 FUJITSU TEN (THAILAN180LUDU0059059                                                                                                                              *          20170306IMF1703065.TXT
MDDUH3215570201703                D89828070200PV4U20170310000060SPEAKER ASM                   M IMCTM S0FR05 FTTL  07070IMCT  S0 PTB  00005                    1600 SR        000000000000 FUJITSU TEN (THAILAN180LUEU0029030                                                                                                                              *          20170306IMF1703065.TXT
MDDUH3215571201703                D89828070300PT4U20170309000030SPEAKER ASM                   M IMCTM S9TS02 FTTL  07070IMCT  S9 PTB  00015                    2230 SR        000000000000 FUJITSU TEN (THAILAN180LUEU0026026                                                                                                                              *          20170306IMF1703065.TXT
MDDUH3215572201703                D89828070300PT4U20170310000030SPEAKER ASM                   M IMCTM S9TS02 FTTL  07070IMCT  S9 PTB  00015                    0230 SR        000000000000 FUJITSU TEN (THAILAN180LUDU0058058                                                                                                                              *          20170306IMF1703065.TXT
MDDUH3215573201703                D89828070300PT4U20170310000030SPEAKER ASM                   M IMCTM S9TS02 FTTL  07070IMCT  S9 PTB  00015                    0400 SR        000000000000 FUJITSU TEN (THAILAN180LUEU0027027                                                                                                                              *          20170306IMF1703065.TXT
MDDUH3215574201703                D89828070300PT4U20170310000030SPEAKER ASM                   M IMCTM S9TS02 FTTL  07070IMCT  S9 PTB  00015                    0900 SR        000000000000 FUJITSU TEN (THAILAN180LUEU0028028                                                                                                                              *          20170306IMF1703065.TXT
MDDUH3215575201703                D89828070300PT4U20170310000030SPEAKER ASM                   M IMCTM S9TS02 FTTL  07070IMCT  S9 PTB  00015                    1300 SR        000000000000 FUJITSU TEN (THAILAN180LUDU0059059                                                                                                                              *          20170306IMF1703065.TXT
MDDUH3215576201703                D89828070300PT4U20170310000060SPEAKER ASM                   M IMCTM S9TS02 FTTL  07070IMCT  S9 PTB  00015                    1600 SR        000000000000 FUJITSU TEN (THAILAN180LUEU0029030                                                                                                                              *          20170306IMF1703065.TXT
MDEDH3248369201703                D89805293700PV1D20170310000030SPEAKER ASM                   M IMCTM S5MB11 FTTL  07070IMCT  S5 PTB  00003                    2100 SR        000000000000 FUJITSU TEN (THAILAN15019FL0169169                                                                                                                              *          20170306IMF1703065.TXT
MDEDH3248370201703                D89827952200PT1D20170310000015RADIO;AM/FM,CD,D              M IMCTM S5NC06 FTTL  07070IMCT  S5 X    00003                    0400 SR        000000000000 FUJITSU TEN (THAILAN17066NL0011011                                                                                                                              *          20170306IMF1703065.TXT
MDEDH3248371201703                D89827952200PT1D20170310000015RADIO;AM/FM,CD,D              M IMCTM S5NC06 FTTL  07070IMCT  S5 X    00003                    1300 SR        000000000000 FUJITSU TEN (THAILAN17066NL0012012                                                                                                                              *          20170306IMF1703065.TXT
MDEDH3248372201703                D89827952200PT1D20170310000015RADIO;AM/FM,CD,D              M IMCTM S5NC06 FTTL  07070IMCT  S5 X    00003                    1600 SR        000000000000 FUJITSU TEN (THAILAN17056NL0010010                                                                                                                              *          20170306IMF1703065.TXT
MDEDH3248373201703                D89828070100PV1D20170309000150SPEAKER ASM                   M IMCTM S5MB11 FTTL  07070IMCT  S5 PTB  00004                    2230 SR        000000000000 FUJITSU TEN (THAILAN17029NL000200317041PL000900917061PL001901917074NL0014014                                                                                    *          20170306IMF1703065.TXT
MDEDH3248374201703                D89828070100PV1D20170310000060SPEAKER ASM                   M IMCTM S5MB11 FTTL  07070IMCT  S5 PTB  00004                    0230 SR        000000000000 FUJITSU TEN (THAILAN17036RL000100117074NL0015015                                                                                                                *          20170306IMF1703065.TXT
MDEDH3248375201703                D89828070100PV1D20170310000150SPEAKER ASM                   M IMCTM S5MB11 FTTL  07070IMCT  S5 PTB  00004                    0400 SR        000000000000 FUJITSU TEN (THAILAN17013QL001902017060NL000700717066NL001101117079QL0007007                                                                                    *          20170306IMF1703065.TXT
MDEDH3248376201703                D89828070100PV1D20170310000060SPEAKER ASM                   M IMCTM S5MB11 FTTL  07070IMCT  S5 PTB  00004                    0900 SR        000000000000 FUJITSU TEN (THAILAN17070NL000100117074NL0016016                                                                                                                *          20170306IMF1703065.TXT
MDEDH3248377201703                D89828070100PV1D20170310000150SPEAKER ASM                   M IMCTM S5MB11 FTTL  07070IMCT  S5 PTB  00004                    1300 SR        000000000000 FUJITSU TEN (THAILAN17041PL001001017057NL000300317066NL001201217080NL001901917081NL0005005                                                                      *          20170306IMF1703065.TXT
MDEDH3248378201703                D89828070100PV1D20170310000150SPEAKER ASM                   M IMCTM S5MB11 FTTL  07070IMCT  S5 PTB  00004                    1600 SR        000000000000 FUJITSU TEN (THAILAN17022ML001101117054PL003903917056NL001001017057NL000400417081NL0006006                                                                      *          20170306IMF1703065.TXT
MDEDH3248379201703                D89828070100PV1D20170310000030SPEAKER ASM                   M IMCTM S5MB11 FTTL  07070IMCT  S5 PTB  00004                    2100 SR        000000000000 FUJITSU TEN (THAILAN17022ML0012012                                                                                                                              *          20170306IMF1703065.TXT
MDEDH3248380201703                D89828070100PV4D20170310000030SPEAKER ASM                   M IMCTM S0FL05 FTTL  07070IMCT  S0 PTB  00004                    0400 SR        000000000000 FUJITSU TEN (THAILAN17079NU0019019                                                                                                                              *          20170306IMF1703065.TXT
MDEDH3248381201703                D89828070100PV4D20170310000030SPEAKER ASM                   M IMCTM S0FL05 FTTL  07070IMCT  S0 PTB  00004                    0900 SR        000000000000 FUJITSU TEN (THAILAN17079NU0020020                                                                                                                              *          20170306IMF1703065.TXT
MDEDH3248382201703                D89828070100PV4D20170310000030SPEAKER ASM                   M IMCTM S0FL05 FTTL  07070IMCT  S0 PTB  00004                    2100 SR        000000000000 FUJITSU TEN (THAILAN17031MU0005005                                                                                                                              *          20170306IMF1703065.TXT
MDEDH3248383201703                D89828070200PV1D20170309000030SPEAKER ASM                   M IMCTM S5MA14 FTTL  07070IMCT  S5 PTB  00005                    2230 SR        000000000000 FUJITSU TEN (THAILAN17074NL0014014                                                                                                                              *          20170306IMF1703065.TXT
MDEDH3248384201703                D89828070200PV1D20170310000060SPEAKER ASM                   M IMCTM S5MA14 FTTL  07070IMCT  S5 PTB  00005                    0230 SR        000000000000 FUJITSU TEN (THAILAN17036RL000100117074NL0015015                                                                                                                *          20170306IMF1703065.TXT
MDEDH3248385201703                D89828070200PV1D20170310000090SPEAKER ASM                   M IMCTM S5MA14 FTTL  07070IMCT  S5 PTB  00005                    0400 SR        000000000000 FUJITSU TEN (THAILAN17013QL001902017060NL0007007                                                                                                                *          20170306IMF1703065.TXT
MDEDH3248386201703                D89828070200PV1D20170310000060SPEAKER ASM                   M IMCTM S5MA14 FTTL  07070IMCT  S5 PTB  00005                    0900 SR        000000000000 FUJITSU TEN (THAILAN17070NL000100117074NL0016016                                                                                                                *          20170306IMF1703065.TXT
MDEDH3248387201703                D89828070200PV1D20170310000090SPEAKER ASM                   M IMCTM S5MA14 FTTL  07070IMCT  S5 PTB  00005                    1300 SR        000000000000 FUJITSU TEN (THAILAN17057NL000300317080NL001901917081NL0005005                                                                                                  *          20170306IMF1703065.TXT
MDEDH3248388201703                D89828070200PV1D20170310000090SPEAKER ASM                   M IMCTM S5MA14 FTTL  07070IMCT  S5 PTB  00005                    1600 SR        000000000000 FUJITSU TEN (THAILAN17022ML001101117057NL000400417081NL0006006                                                                                                  *          20170306IMF1703065.TXT
MDEDH3248389201703                D89828070200PV1D20170310000030SPEAKER ASM                   M IMCTM S5MA14 FTTL  07070IMCT  S5 PTB  00005                    2100 SR        000000000000 FUJITSU TEN (THAILAN17022ML0012012                                                                                                                              *          20170306IMF1703065.TXT
MDEDH3248390201703                D89828070200PV4D20170310000030SPEAKER ASM                   M IMCTM S0FR05 FTTL  07070IMCT  S0 PTB  00005                    0400 SR        000000000000 FUJITSU TEN (THAILAN17079NU0019019                                                                                                                              *          20170306IMF1703065.TXT
MDEDH3248391201703                D89828070200PV4D20170310000030SPEAKER ASM                   M IMCTM S0FR05 FTTL  07070IMCT  S0 PTB  00005                    0900 SR        000000000000 FUJITSU TEN (THAILAN17079NU0020020                                                                                                                              *          20170306IMF1703065.TXT
MDEDH3248392201703                D89828070200PV4D20170310000030SPEAKER ASM                   M IMCTM S0FR05 FTTL  07070IMCT  S0 PTB  00005                    2100 SR        000000000000 FUJITSU TEN (THAILAN17031MU0005005                                                                                                                              *          20170306IMF1703065.TXT
MDEDH3248393201703                D89828070300PT1D20170309000090SPEAKER ASM                   M IMCTM S5NB082FTTL  07070IMCT  S5 PTB  00015                    2230 SR        000000000000 FUJITSU TEN (THAILAN17029NL000200317074NL0014014                                                                                                                *          20170306IMF1703065.TXT
MDEDH3248394201703                D89828070300PT1D20170310000060SPEAKER ASM                   M IMCTM S5NB082FTTL  07070IMCT  S5 PTB  00015                    0230 SR        000000000000 FUJITSU TEN (THAILAN17036RL000100117074NL0015015                                                                                                                *          20170306IMF1703065.TXT
MDEDH3248395201703                D89828070300PT1D20170310000120SPEAKER ASM                   M IMCTM S5NB082FTTL  07070IMCT  S5 PTB  00015                    0400 SR        000000000000 FUJITSU TEN (THAILAN17013QL001902017060NL000700717066NL0011011                                                                                                  *          20170306IMF1703065.TXT
MDEDH3248396201703                D89828070300PT1D20170310000060SPEAKER ASM                   M IMCTM S5NB082FTTL  07070IMCT  S5 PTB  00015                    0900 SR        000000000000 FUJITSU TEN (THAILAN17070NL000100117074NL0016016                                                                                                                *          20170306IMF1703065.TXT
MDEDH3248397201703                D89828070300PT1D20170310000120SPEAKER ASM                   M IMCTM S5NB082FTTL  07070IMCT  S5 PTB  00015                    1300 SR        000000000000 FUJITSU TEN (THAILAN17057NL000300317066NL001201217080NL001901917081NL0005005                                                                                    *          20170306IMF1703065.TXT
MDEDH3248398201703                D89828070300PT1D20170310000120SPEAKER ASM                   M IMCTM S5NB082FTTL  07070IMCT  S5 PTB  00015                    1600 SR        000000000000 FUJITSU TEN (THAILAN17022ML001101117056NL001001017057NL000400417081NL0006006                                                                                    *          20170306IMF1703065.TXT
MDEDH3248399201703                D89828070300PT1D20170310000030SPEAKER ASM                   M IMCTM S5NB082FTTL  07070IMCT  S5 PTB  00015                    2100 SR        000000000000 FUJITSU TEN (THAILAN17022ML0012012                                                                                                                              *          20170306IMF1703065.TXT
MDEDH3248400201703                D89828070300PT4D20170310000030SPEAKER ASM                   M IMCTM S9TS02 FTTL  07070IMCT  S9 PTB  00015                    0400 SR        000000000000 FUJITSU TEN (THAILAN17079NU0019019                                                                                                                              *          20170306IMF1703065.TXT
MDEDH3248401201703                D89828070300PT4D20170310000030SPEAKER ASM                   M IMCTM S9TS02 FTTL  07070IMCT  S9 PTB  00015                    0900 SR        000000000000 FUJITSU TEN (THAILAN17079NU0020020                                                                                                                              *          20170306IMF1703065.TXT
MDEDH3248402201703                D89828070300PT4D20170310000030SPEAKER ASM                   M IMCTM S9TS02 FTTL  07070IMCT  S9 PTB  00015                    2100 SR        000000000000 FUJITSU TEN (THAILAN17031MU0005005                                                                                                                              *          20170306IMF1703065.TXT
MDEDH3248403201703                D89829645700PT1D20170309000015RADIO;ASM DVD                 M IMCTM S5NC06 FTTL  07070IMCT  S5 X    00003                    2230 SR        000000000000 FUJITSU TEN (THAILAN17074NL0014014                                                                                                                              *          20170306IMF1703065.TXT
MDEDH3248404201703                D89829645700PT1D20170310000015RADIO;ASM DVD                 M IMCTM S5NC06 FTTL  07070IMCT  S5 X    00003                    0230 SR        000000000000 FUJITSU TEN (THAILAN17074NL0015015                                                                                                                              *          20170306IMF1703065.TXT
MDEDH3248405201703                D89829645700PT1D20170310000030RADIO;ASM DVD                 M IMCTM S5NC06 FTTL  07070IMCT  S5 X    00003                    0900 SR        000000000000 FUJITSU TEN (THAILAN17070NL000100117074NL0016016                                                                                                                *          20170306IMF1703065.TXT
MDEDH3248406201703                D89829645700PT1D20170310000015RADIO;ASM DVD                 M IMCTM S5NC06 FTTL  07070IMCT  S5 X    00003                    1300 SR        000000000000 FUJITSU TEN (THAILAN17057NL0003003                                                                                                                              *          20170306IMF1703065.TXT
MDEDH3248407201703                D89829645700PT1D20170310000015RADIO;ASM DVD                 M IMCTM S5NC06 FTTL  07070IMCT  S5 X    00003                    1600 SR        000000000000 FUJITSU TEN (THAILAN17057NL0004004                                                                                                                              *          20170306IMF1703065.TXT
MDEDH3248408201703                D89829645700PT4D20170310000015RADIO;ASM DVD                 M IMCTM S9CO001FTTL  07070IMCT  S9 X    00003                    0400 SR        000000000000 FUJITSU TEN (THAILAN17079NU0019019                                                                                                                              *          20170306IMF1703065.TXT
MDEDH3248409201703                D89829645700PT4D20170310000015RADIO;ASM DVD                 M IMCTM S9CO001FTTL  07070IMCT  S9 X    00003                    0900 SR        000000000000 FUJITSU TEN (THAILAN17079NU0020020                                                                                                                              *          20170306IMF1703065.TXT
MDEDH3248410201703                D89831229200PT1D20170310000030RADIO;AM/FM,CD                M IMCTM S5NC06 FTTL  07070IMCT  S5 PTB  00003                    0400 SR        000000000000 FUJITSU TEN (THAILAN17013QL0019020                                                                                                                              *          20170306IMF1703065.TXT
MDEUH3208930201703                D89828070100PT4U20170310000030SPEAKER ASM                   M IMCTM S0FL05 FTTL  07070IMCT  S0 PTB  00004                    0900 SR        000000000000 FUJITSU TEN (THAILAN170C16U0196196                                                                                                                              *          20170306IMF1703065.TXT
MDEUH3208931201703                D89828070100PT4U20170310000030SPEAKER ASM                   M IMCTM S0FL05 FTTL  07070IMCT  S0 PTB  00004                    1600 SR        000000000000 FUJITSU TEN (THAILAN170C47U0037037                                                                                                                              *          20170306IMF1703065.TXT
MDEUH3208932201703                D89828070200PV4U20170310000030SPEAKER ASM                   M IMCTM S0FR05 FTTL  07070IMCT  S0 PTB  00005                    0900 SR        000000000000 FUJITSU TEN (THAILAN170C16U0196196                                                                                                                              *          20170306IMF1703065.TXT
MDEUH3208933201703                D89828070200PV4U20170310000030SPEAKER ASM                   M IMCTM S0FR05 FTTL  07070IMCT  S0 PTB  00005                    1600 SR        000000000000 FUJITSU TEN (THAILAN170C47U0037037                                                                                                                              *          20170306IMF1703065.TXT
MDEUH3208934201703                D89828070300PT4U20170310000030SPEAKER ASM                   M IMCTM S9TS02 FTTL  07070IMCT  S9 PTB  00015                    0900 SR        000000000000 FUJITSU TEN (THAILAN170C16U0196196                                                                                                                              *          20170306IMF1703065.TXT
MDEUH3208935201703                D89828070300PT4U20170310000030SPEAKER ASM                   M IMCTM S9TS02 FTTL  07070IMCT  S9 PTB  00015                    1600 SR        000000000000 FUJITSU TEN (THAILAN170C47U0037037                                                                                                                              *          20170306IMF1703065.TXT
