REC2017030420170306ISUZU                              65     
MDDDH3201788201703                D89821984430PT1D20170308000030RADIO;AM/FM,CD                M IMCTM S5NC06 FTTL  07070IMCT  S5 PTB  00005                    2230 SR        000000000000 FUJITSU TEN (THAILAN170KPAL0086086                                                                                                                              *          20170304IMF1703042.TXT
MDDDH3201789201703                D89821984430PT1D20170309000030RADIO;AM/FM,CD                M IMCTM S5NC06 FTTL  07070IMCT  S5 PTB  00005                    2100 SR        000000000000 FUJITSU TEN (THAILAN170KNEL0067067                                                                                                                              *          20170304IMF1703042.TXT
MDDDH3201790201703                D89828070100PV1D20170308000060SPEAKER ASM                   M IMCTM S5MB11 FTTL  07070IMCT  S5 PTB  00004                    2230 SR        000000000000 FUJITSU TEN (THAILAN170KPAL0086086                                                                                                                              *          20170304IMF1703042.TXT
MDDDH3201791201703                D89828070100PV1D20170309000060SPEAKER ASM                   M IMCTM S5MB11 FTTL  07070IMCT  S5 PTB  00004                    2100 SR        000000000000 FUJITSU TEN (THAILAN170KNEL0067067                                                                                                                              *          20170304IMF1703042.TXT
MDDUH3211181201703                D89828070100PT4U20170308000030SPEAKER ASM                   M IMCTM S0FL05 FTTL  07070IMCT  S0 PTB  00004                    2230 SR        000000000000 FUJITSU TEN (THAILAN180LUEU0024024                                                                                                                              *          20170304IMF1703042.TXT
MDDUH3211182201703                D89828070100PT4U20170309000030SPEAKER ASM                   M IMCTM S0FL05 FTTL  07070IMCT  S0 PTB  00004                    0400 SR        000000000000 FUJITSU TEN (THAILAN180LUDU0055055                                                                                                                              *          20170304IMF1703042.TXT
MDDUH3211183201703                D89828070100PT4U20170309000030SPEAKER ASM                   M IMCTM S0FL05 FTTL  07070IMCT  S0 PTB  00004                    1300 SR        000000000000 FUJITSU TEN (THAILAN180LUFU0010010                                                                                                                              *          20170304IMF1703042.TXT
MDDUH3211184201703                D89828070100PT4U20170309000030SPEAKER ASM                   M IMCTM S0FL05 FTTL  07070IMCT  S0 PTB  00004                    1600 SR        000000000000 FUJITSU TEN (THAILAN180LUDU0056056                                                                                                                              *          20170304IMF1703042.TXT
MDDUH3211185201703                D89828070100PT4U20170309000030SPEAKER ASM                   M IMCTM S0FL05 FTTL  07070IMCT  S0 PTB  00004                    2100 SR        000000000000 FUJITSU TEN (THAILAN180LUEU0025025                                                                                                                              *          20170304IMF1703042.TXT
MDDUH3211186201703                D89828070100PT4U20170309000030SPEAKER ASM                   M IMCTM S0FL05 FTTL  07070IMCT  S0 PTB  00004                    2230 SR        000000000000 FUJITSU TEN (THAILAN180LUDU0057057                                                                                                                              *          20170304IMF1703042.TXT
MDDUH3211187201703                D89828070200PV4U20170308000030SPEAKER ASM                   M IMCTM S0FR05 FTTL  07070IMCT  S0 PTB  00005                    2230 SR        000000000000 FUJITSU TEN (THAILAN180LUEU0024024                                                                                                                              *          20170304IMF1703042.TXT
MDDUH3211188201703                D89828070200PV4U20170309000030SPEAKER ASM                   M IMCTM S0FR05 FTTL  07070IMCT  S0 PTB  00005                    0400 SR        000000000000 FUJITSU TEN (THAILAN180LUDU0055055                                                                                                                              *          20170304IMF1703042.TXT
MDDUH3211189201703                D89828070200PV4U20170309000030SPEAKER ASM                   M IMCTM S0FR05 FTTL  07070IMCT  S0 PTB  00005                    1300 SR        000000000000 FUJITSU TEN (THAILAN180LUFU0010010                                                                                                                              *          20170304IMF1703042.TXT
MDDUH3211190201703                D89828070200PV4U20170309000030SPEAKER ASM                   M IMCTM S0FR05 FTTL  07070IMCT  S0 PTB  00005                    1600 SR        000000000000 FUJITSU TEN (THAILAN180LUDU0056056                                                                                                                              *          20170304IMF1703042.TXT
MDDUH3211191201703                D89828070200PV4U20170309000030SPEAKER ASM                   M IMCTM S0FR05 FTTL  07070IMCT  S0 PTB  00005                    2100 SR        000000000000 FUJITSU TEN (THAILAN180LUEU0025025                                                                                                                              *          20170304IMF1703042.TXT
MDDUH3211192201703                D89828070200PV4U20170309000030SPEAKER ASM                   M IMCTM S0FR05 FTTL  07070IMCT  S0 PTB  00005                    2230 SR        000000000000 FUJITSU TEN (THAILAN180LUDU0057057                                                                                                                              *          20170304IMF1703042.TXT
MDDUH3211193201703                D89828070300PT4U20170308000030SPEAKER ASM                   M IMCTM S9TS02 FTTL  07070IMCT  S9 PTB  00015                    2230 SR        000000000000 FUJITSU TEN (THAILAN180LUEU0024024                                                                                                                              *          20170304IMF1703042.TXT
MDDUH3211194201703                D89828070300PT4U20170309000030SPEAKER ASM                   M IMCTM S9TS02 FTTL  07070IMCT  S9 PTB  00015                    0400 SR        000000000000 FUJITSU TEN (THAILAN180LUDU0055055                                                                                                                              *          20170304IMF1703042.TXT
MDDUH3211195201703                D89828070300PT4U20170309000030SPEAKER ASM                   M IMCTM S9TS02 FTTL  07070IMCT  S9 PTB  00015                    1300 SR        000000000000 FUJITSU TEN (THAILAN180LUFU0010010                                                                                                                              *          20170304IMF1703042.TXT
MDDUH3211196201703                D89828070300PT4U20170309000030SPEAKER ASM                   M IMCTM S9TS02 FTTL  07070IMCT  S9 PTB  00015                    1600 SR        000000000000 FUJITSU TEN (THAILAN180LUDU0056056                                                                                                                              *          20170304IMF1703042.TXT
MDDUH3211197201703                D89828070300PT4U20170309000030SPEAKER ASM                   M IMCTM S9TS02 FTTL  07070IMCT  S9 PTB  00015                    2100 SR        000000000000 FUJITSU TEN (THAILAN180LUEU0025025                                                                                                                              *          20170304IMF1703042.TXT
MDDUH3211198201703                D89828070300PT4U20170309000030SPEAKER ASM                   M IMCTM S9TS02 FTTL  07070IMCT  S9 PTB  00015                    2230 SR        000000000000 FUJITSU TEN (THAILAN180LUDU0057057                                                                                                                              *          20170304IMF1703042.TXT
MDEDH3236333201703                D89827952200PT1D20170309000015RADIO;AM/FM,CD,D              M IMCTM S5NC06 FTTL  07070IMCT  S5 X    00003                    0900 SR        000000000000 FUJITSU TEN (THAILAN17066NL0009009                                                                                                                              *          20170304IMF1703042.TXT
MDEDH3236334201703                D89827952200PT1D20170309000015RADIO;AM/FM,CD,D              M IMCTM S5NC06 FTTL  07070IMCT  S5 X    00003                    1600 SR        000000000000 FUJITSU TEN (THAILAN17066NL0010010                                                                                                                              *          20170304IMF1703042.TXT
MDEDH3236335201703                D89828070100PV1D20170308000090SPEAKER ASM                   M IMCTM S5MB11 FTTL  07070IMCT  S5 PTB  00004                    2230 SR        000000000000 FUJITSU TEN (THAILAN17020ML000800817074NL0009010                                                                                                                *          20170304IMF1703042.TXT
MDEDH3236336201703                D89828070100PV1D20170309000060SPEAKER ASM                   M IMCTM S5MB11 FTTL  07070IMCT  S5 PTB  00004                    0230 SR        000000000000 FUJITSU TEN (THAILAN17008RL000200217074NL0011011                                                                                                                *          20170304IMF1703042.TXT
MDEDH3236337201703                D89828070100PV1D20170309000150SPEAKER ASM                   M IMCTM S5MB11 FTTL  07070IMCT  S5 PTB  00004                    0400 SR        000000000000 FUJITSU TEN (THAILAN17004ML000500517057NL000100217074NL001201217076NL0004004                                                                                    *          20170304IMF1703042.TXT
MDEDH3236338201703                D89828070100PV1D20170309000120SPEAKER ASM                   M IMCTM S5MB11 FTTL  07070IMCT  S5 PTB  00004                    0900 SR        000000000000 FUJITSU TEN (THAILAN17013QL001601617031ML001201217044ML000500517066NL0009009                                                                                    *          20170304IMF1703042.TXT
MDEDH3236339201703                D89828070100PV1D20170309000120SPEAKER ASM                   M IMCTM S5MB11 FTTL  07070IMCT  S5 PTB  00004                    1300 SR        000000000000 FUJITSU TEN (THAILAN17013QL001701717061PL001801817074NL001301317076NL0005005                                                                                    *          20170304IMF1703042.TXT
MDEDH3236340201703                D89828070100PV1D20170309000210SPEAKER ASM                   M IMCTM S5MB11 FTTL  07070IMCT  S5 PTB  00004                    1600 SR        000000000000 FUJITSU TEN (THAILAN17004ML000600617013QL001801817032NL000600617054PL003803817066NL001001017080NL0017018                                                        *          20170304IMF1703042.TXT
MDEDH3236341201703                D89828070100PV4D20170309000030SPEAKER ASM                   M IMCTM S0FL05 FTTL  07070IMCT  S0 PTB  00004                    0230 SR        000000000000 FUJITSU TEN (THAILAN17031MU0003003                                                                                                                              *          20170304IMF1703042.TXT
MDEDH3236342201703                D89828070100PV4D20170309000030SPEAKER ASM                   M IMCTM S0FL05 FTTL  07070IMCT  S0 PTB  00004                    0900 SR        000000000000 FUJITSU TEN (THAILAN17031MU0004004                                                                                                                              *          20170304IMF1703042.TXT
MDEDH3236343201703                D89828070100PV4D20170309000030SPEAKER ASM                   M IMCTM S0FL05 FTTL  07070IMCT  S0 PTB  00004                    1600 SR        000000000000 FUJITSU TEN (THAILAN17031NU0004004                                                                                                                              *          20170304IMF1703042.TXT
MDEDH3236344201703                D89828070200PV1D20170308000090SPEAKER ASM                   M IMCTM S5MA14 FTTL  07070IMCT  S5 PTB  00005                    2230 SR        000000000000 FUJITSU TEN (THAILAN17020ML000800817074NL0009010                                                                                                                *          20170304IMF1703042.TXT
MDEDH3236345201703                D89828070200PV1D20170309000030SPEAKER ASM                   M IMCTM S5MA14 FTTL  07070IMCT  S5 PTB  00005                    0230 SR        000000000000 FUJITSU TEN (THAILAN17074NL0011011                                                                                                                              *          20170304IMF1703042.TXT
MDEDH3236346201703                D89828070200PV1D20170309000120SPEAKER ASM                   M IMCTM S5MA14 FTTL  07070IMCT  S5 PTB  00005                    0400 SR        000000000000 FUJITSU TEN (THAILAN17057NL000100217074NL001201217076NL0004004                                                                                                  *          20170304IMF1703042.TXT
MDEDH3236347201703                D89828070200PV1D20170309000060SPEAKER ASM                   M IMCTM S5MA14 FTTL  07070IMCT  S5 PTB  00005                    0900 SR        000000000000 FUJITSU TEN (THAILAN17013QL001601617031ML0012012                                                                                                                *          20170304IMF1703042.TXT
MDEDH3236348201703                D89828070200PV1D20170309000090SPEAKER ASM                   M IMCTM S5MA14 FTTL  07070IMCT  S5 PTB  00005                    1300 SR        000000000000 FUJITSU TEN (THAILAN17013QL001701717074NL001301317076NL0005005                                                                                                  *          20170304IMF1703042.TXT
MDEDH3236349201703                D89828070200PV1D20170309000120SPEAKER ASM                   M IMCTM S5MA14 FTTL  07070IMCT  S5 PTB  00005                    1600 SR        000000000000 FUJITSU TEN (THAILAN17013QL001801817032NL000600617080NL0017018                                                                                                  *          20170304IMF1703042.TXT
MDEDH3236350201703                D89828070200PV4D20170309000030SPEAKER ASM                   M IMCTM S0FR05 FTTL  07070IMCT  S0 PTB  00005                    0230 SR        000000000000 FUJITSU TEN (THAILAN17031MU0003003                                                                                                                              *          20170304IMF1703042.TXT
MDEDH3236351201703                D89828070200PV4D20170309000030SPEAKER ASM                   M IMCTM S0FR05 FTTL  07070IMCT  S0 PTB  00005                    0900 SR        000000000000 FUJITSU TEN (THAILAN17031MU0004004                                                                                                                              *          20170304IMF1703042.TXT
MDEDH3236352201703                D89828070300PT1D20170308000090SPEAKER ASM                   M IMCTM S5NB082FTTL  07070IMCT  S5 PTB  00015                    2230 SR        000000000000 FUJITSU TEN (THAILAN17020ML000800817074NL0009010                                                                                                                *          20170304IMF1703042.TXT
MDEDH3236353201703                D89828070300PT1D20170309000030SPEAKER ASM                   M IMCTM S5NB082FTTL  07070IMCT  S5 PTB  00015                    0230 SR        000000000000 FUJITSU TEN (THAILAN17074NL0011011                                                                                                                              *          20170304IMF1703042.TXT
MDEDH3236354201703                D89828070300PT1D20170309000120SPEAKER ASM                   M IMCTM S5NB082FTTL  07070IMCT  S5 PTB  00015                    0400 SR        000000000000 FUJITSU TEN (THAILAN17057NL000100217074NL001201217076NL0004004                                                                                                  *          20170304IMF1703042.TXT
MDEDH3236355201703                D89828070300PT1D20170309000090SPEAKER ASM                   M IMCTM S5NB082FTTL  07070IMCT  S5 PTB  00015                    0900 SR        000000000000 FUJITSU TEN (THAILAN17013QL001601617031ML001201217066NL0009009                                                                                                  *          20170304IMF1703042.TXT
MDEDH3236356201703                D89828070300PT1D20170309000090SPEAKER ASM                   M IMCTM S5NB082FTTL  07070IMCT  S5 PTB  00015                    1300 SR        000000000000 FUJITSU TEN (THAILAN17013QL001701717074NL001301317076NL0005005                                                                                                  *          20170304IMF1703042.TXT
MDEDH3236357201703                D89828070300PT1D20170309000150SPEAKER ASM                   M IMCTM S5NB082FTTL  07070IMCT  S5 PTB  00015                    1600 SR        000000000000 FUJITSU TEN (THAILAN17013QL001801817032NL000600617066NL001001017080NL0017018                                                                                    *          20170304IMF1703042.TXT
MDEDH3236358201703                D89828070300PT4D20170309000030SPEAKER ASM                   M IMCTM S9TS02 FTTL  07070IMCT  S9 PTB  00015                    0230 SR        000000000000 FUJITSU TEN (THAILAN17031MU0003003                                                                                                                              *          20170304IMF1703042.TXT
MDEDH3236359201703                D89828070300PT4D20170309000030SPEAKER ASM                   M IMCTM S9TS02 FTTL  07070IMCT  S9 PTB  00015                    0900 SR        000000000000 FUJITSU TEN (THAILAN17031MU0004004                                                                                                                              *          20170304IMF1703042.TXT
MDEDH3236360201703                D89829645700PT1D20170308000030RADIO;ASM DVD                 M IMCTM S5NC06 FTTL  07070IMCT  S5 X    00003                    2230 SR        000000000000 FUJITSU TEN (THAILAN17074NL0009010                                                                                                                              *          20170304IMF1703042.TXT
MDEDH3236361201703                D89829645700PT1D20170309000015RADIO;ASM DVD                 M IMCTM S5NC06 FTTL  07070IMCT  S5 X    00003                    0230 SR        000000000000 FUJITSU TEN (THAILAN17074NL0011011                                                                                                                              *          20170304IMF1703042.TXT
MDEDH3236362201703                D89829645700PT1D20170309000045RADIO;ASM DVD                 M IMCTM S5NC06 FTTL  07070IMCT  S5 X    00003                    0400 SR        000000000000 FUJITSU TEN (THAILAN17057NL000100217074NL0012012                                                                                                                *          20170304IMF1703042.TXT
MDEDH3236363201703                D89829645700PT1D20170309000015RADIO;ASM DVD                 M IMCTM S5NC06 FTTL  07070IMCT  S5 X    00003                    1300 SR        000000000000 FUJITSU TEN (THAILAN17074NL0013013                                                                                                                              *          20170304IMF1703042.TXT
MDEDH3236364201703                D89831229200PT1D20170309000015RADIO;AM/FM,CD                M IMCTM S5NC06 FTTL  07070IMCT  S5 PTB  00003                    0900 SR        000000000000 FUJITSU TEN (THAILAN17013QL0016016                                                                                                                              *          20170304IMF1703042.TXT
MDEDH3236365201703                D89831229200PT1D20170309000015RADIO;AM/FM,CD                M IMCTM S5NC06 FTTL  07070IMCT  S5 PTB  00003                    1300 SR        000000000000 FUJITSU TEN (THAILAN17013QL0017017                                                                                                                              *          20170304IMF1703042.TXT
MDEDH3236366201703                D89831229200PT1D20170309000015RADIO;AM/FM,CD                M IMCTM S5NC06 FTTL  07070IMCT  S5 PTB  00003                    1600 SR        000000000000 FUJITSU TEN (THAILAN17013QL0018018                                                                                                                              *          20170304IMF1703042.TXT
MDEUH3206586201703                D89828070100PT4U20170309000030SPEAKER ASM                   M IMCTM S0FL05 FTTL  07070IMCT  S0 PTB  00004                    0400 SR        000000000000 FUJITSU TEN (THAILAN170C47U0034034                                                                                                                              *          20170304IMF1703042.TXT
MDEUH3206587201703                D89828070100PT4U20170309000060SPEAKER ASM                   M IMCTM S0FL05 FTTL  07070IMCT  S0 PTB  00004                    0900 SR        000000000000 FUJITSU TEN (THAILAN170C16U0195195170C47U0035035                                                                                                                *          20170304IMF1703042.TXT
MDEUH3206588201703                D89828070100PT4U20170309000030SPEAKER ASM                   M IMCTM S0FL05 FTTL  07070IMCT  S0 PTB  00004                    1600 SR        000000000000 FUJITSU TEN (THAILAN170C47U0036036                                                                                                                              *          20170304IMF1703042.TXT
MDEUH3206589201703                D89828070200PV4U20170309000030SPEAKER ASM                   M IMCTM S0FR05 FTTL  07070IMCT  S0 PTB  00005                    0400 SR        000000000000 FUJITSU TEN (THAILAN170C47U0034034                                                                                                                              *          20170304IMF1703042.TXT
MDEUH3206590201703                D89828070200PV4U20170309000060SPEAKER ASM                   M IMCTM S0FR05 FTTL  07070IMCT  S0 PTB  00005                    0900 SR        000000000000 FUJITSU TEN (THAILAN170C16U0195195170C47U0035035                                                                                                                *          20170304IMF1703042.TXT
MDEUH3206591201703                D89828070200PV4U20170309000030SPEAKER ASM                   M IMCTM S0FR05 FTTL  07070IMCT  S0 PTB  00005                    1600 SR        000000000000 FUJITSU TEN (THAILAN170C47U0036036                                                                                                                              *          20170304IMF1703042.TXT
MDEUH3206592201703                D89828070300PT4U20170309000030SPEAKER ASM                   M IMCTM S9TS02 FTTL  07070IMCT  S9 PTB  00015                    0400 SR        000000000000 FUJITSU TEN (THAILAN170C47U0034034                                                                                                                              *          20170304IMF1703042.TXT
MDEUH3206593201703                D89828070300PT4U20170309000060SPEAKER ASM                   M IMCTM S9TS02 FTTL  07070IMCT  S9 PTB  00015                    0900 SR        000000000000 FUJITSU TEN (THAILAN170C16U0195195170C47U0035035                                                                                                                *          20170304IMF1703042.TXT
MDEUH3206594201703                D89828070300PT4U20170309000030SPEAKER ASM                   M IMCTM S9TS02 FTTL  07070IMCT  S9 PTB  00015                    1600 SR        000000000000 FUJITSU TEN (THAILAN170C47U0036036                                                                                                                              *          20170304IMF1703042.TXT
