REC2017032320170323ISUZU                              49     
MDDDH3219262201703                D89821984430PT1D20170329000030RADIO;AM/FM,CD                M IMCTM S5NC06 FTTL  07070IMCT  S5 PTB  00005                    0230 SR        000000000000 FUJITSU TEN (THAILAN170KNDL0082082                                                                                                                              *          20170323IMF1703234.TXT
MDDDH3219263201703                D89821984430PT1D20170329000030RADIO;AM/FM,CD                M IMCTM S5NC06 FTTL  07070IMCT  S5 PTB  00005                    0400 SR        000000000000 FUJITSU TEN (THAILAN170KNDL0083083                                                                                                                              *          20170323IMF1703234.TXT
MDDDH3219264201703                D89821984430PT1D20170329000030RADIO;AM/FM,CD                M IMCTM S5NC06 FTTL  07070IMCT  S5 PTB  00005                    0900 SR        000000000000 FUJITSU TEN (THAILAN170KPAL0087087                                                                                                                              *          20170323IMF1703234.TXT
MDDDH3219265201703                D89821984430PT1D20170329000030RADIO;AM/FM,CD                M IMCTM S5NC06 FTTL  07070IMCT  S5 PTB  00005                    1600 SR        000000000000 FUJITSU TEN (THAILAN170KNCL0059059                                                                                                                              *          20170323IMF1703234.TXT
MDDDH3219266201703                D89821984430PT4D20170329000030RADIO;AM/FM,CD                M IMCTM S9CO001FTTL  07070IMCT  S9 PTB  00005                    0230 SR        000000000000 FUJITSU TEN (THAILAN170KNFU0001001                                                                                                                              *          20170323IMF1703234.TXT
MDDDH3219267201703                D89825217900PT1D20170329000030RADIO;AM/FM,CD,D              M IMCTM S5NC06 FTTL  07070IMCT  S5 PTB  00003                    1300 SR        000000000000 FUJITSU TEN (THAILAN170KPJL0042042                                                                                                                              *          20170323IMF1703234.TXT
MDDDH3219268201703                D89828070100PV1D20170328000060SPEAKER ASM                   M IMCTM S5MB11 FTTL  07070IMCT  S5 PTB  00003                    2230 SR        000000000000 FUJITSU TEN (THAILAN170KNBL0025025                                                                                                                              *          20170323IMF1703234.TXT
MDDDH3219269201703                D89828070100PV1D20170329000060SPEAKER ASM                   M IMCTM S5MB11 FTTL  07070IMCT  S5 PTB  00003                    0230 SR        000000000000 FUJITSU TEN (THAILAN170KNDL0082082                                                                                                                              *          20170323IMF1703234.TXT
MDDDH3219270201703                D89828070100PV1D20170329000120SPEAKER ASM                   M IMCTM S5MB11 FTTL  07070IMCT  S5 PTB  00003                    0400 SR        000000000000 FUJITSU TEN (THAILAN170KNDL0083083170KRRL0016016                                                                                                                *          20170323IMF1703234.TXT
MDDDH3219271201703                D89828070100PV1D20170329000120SPEAKER ASM                   M IMCTM S5MB11 FTTL  07070IMCT  S5 PTB  00003                    0900 SR        000000000000 FUJITSU TEN (THAILAN170KPAL0087087170KPEL0042042                                                                                                                *          20170323IMF1703234.TXT
MDDDH3219272201703                D89828070100PV1D20170329000120SPEAKER ASM                   M IMCTM S5MB11 FTTL  07070IMCT  S5 PTB  00003                    1300 SR        000000000000 FUJITSU TEN (THAILAN170KNBL0026026170KPJL0042042                                                                                                                *          20170323IMF1703234.TXT
MDDDH3219273201703                D89828070100PV1D20170329000060SPEAKER ASM                   M IMCTM S5MB11 FTTL  07070IMCT  S5 PTB  00003                    1600 SR        000000000000 FUJITSU TEN (THAILAN170KNCL0059059                                                                                                                              *          20170323IMF1703234.TXT
MDDDH3219274201703                D89828070100PV4D20170329000060SPEAKER ASM                   M IMCTM S0FL05 FTTL  07070IMCT  S0 PTB  00003                    0230 SR        000000000000 FUJITSU TEN (THAILAN170KNFU0001001                                                                                                                              *          20170323IMF1703234.TXT
MDDDH3219275201703                D89828070200PV1D20170329000060SPEAKER ASM                   M IMCTM S5MA14 FTTL  07070IMCT  S5 PTB  00005                    0400 SR        000000000000 FUJITSU TEN (THAILAN170KRRL0016016                                                                                                                              *          20170323IMF1703234.TXT
MDDDH3219276201703                D89828070300PT1D20170329000060SPEAKER ASM                   M IMCTM S5NB082FTTL  07070IMCT  S5 PTB  00015                    0400 SR        000000000000 FUJITSU TEN (THAILAN170KRRL0016016                                                                                                                              *          20170323IMF1703234.TXT
MDDDH3219277201703                D89828070300PT1D20170329000060SPEAKER ASM                   M IMCTM S5NB082FTTL  07070IMCT  S5 PTB  00015                    0900 SR        000000000000 FUJITSU TEN (THAILAN170KPEL0042042                                                                                                                              *          20170323IMF1703234.TXT
MDDDH3219278201703                D89828070300PT1D20170329000060SPEAKER ASM                   M IMCTM S5NB082FTTL  07070IMCT  S5 PTB  00015                    1300 SR        000000000000 FUJITSU TEN (THAILAN170KPJL0042042                                                                                                                              *          20170323IMF1703234.TXT
MDDDH3219279201703                D89831228300PT1D20170329000030RADIO;AM/FM,CD                M IMCTM S5NC06 FTTL  07070IMCT  S5 CPB  00003                    0900 SR        000000000000 FUJITSU TEN (THAILAN170KPEL0042042                                                                                                                              *          20170323IMF1703234.TXT
MDDUH3247501201703                D89828070100PT4U20170328000060SPEAKER ASM                   M IMCTM S0FL05 FTTL  07070IMCT  S0 PTB  00003                    2230 SR        000000000000 FUJITSU TEN (THAILAN180LUDU0069069180LUEU0039039                                                                                                                *          20170323IMF1703234.TXT
MDDUH3247502201703                D89828070100PT4U20170329000030SPEAKER ASM                   M IMCTM S0FL05 FTTL  07070IMCT  S0 PTB  00003                    0900 SR        000000000000 FUJITSU TEN (THAILAN180LUCU0032032                                                                                                                              *          20170323IMF1703234.TXT
MDDUH3247503201703                D89828070200PV4U20170328000060SPEAKER ASM                   M IMCTM S0FR05 FTTL  07070IMCT  S0 PTB  00005                    2230 SR        000000000000 FUJITSU TEN (THAILAN180LUDU0069069180LUEU0039039                                                                                                                *          20170323IMF1703234.TXT
MDDUH3247504201703                D89828070200PV4U20170329000030SPEAKER ASM                   M IMCTM S0FR05 FTTL  07070IMCT  S0 PTB  00005                    0900 SR        000000000000 FUJITSU TEN (THAILAN180LUCU0032032                                                                                                                              *          20170323IMF1703234.TXT
MDDUH3247505201703                D89828070300PT4U20170328000060SPEAKER ASM                   M IMCTM S9TS02 FTTL  07070IMCT  S9 PTB  00015                    2230 SR        000000000000 FUJITSU TEN (THAILAN180LUDU0069069180LUEU0039039                                                                                                                *          20170323IMF1703234.TXT
MDDUH3247506201703                D89828070300PT4U20170329000030SPEAKER ASM                   M IMCTM S9TS02 FTTL  07070IMCT  S9 PTB  00015                    0900 SR        000000000000 FUJITSU TEN (THAILAN180LUCU0032032                                                                                                                              *          20170323IMF1703234.TXT
MDDUH3247507201703                D89835097900PT4U20170329000015RADIO;ASM DVD                 M IMCTM S9CO001FTTL  07070IMCT  S9 PTB  00003                    0900 SR        000000000000 FUJITSU TEN (THAILAN180LUCU0032032                                                                                                                              *          20170323IMF1703234.TXT
MDEDH3395886201703                D89805293700PV1D20170328000060SPEAKER ASM                   M IMCTM S5MB11 FTTL  07070IMCT  S5 PTB  00003                    2230 SR        000000000000 FUJITSU TEN (THAILAN15021DL0001002                                                                                                                              *          20170323IMF1703234.TXT
MDEDH3395887201703                D89828070100PV1D20170328000030SPEAKER ASM                   M IMCTM S5MB11 FTTL  07070IMCT  S5 PTB  00003                    2100 SR        000000000000 FUJITSU TEN (THAILAN17022SL0001001                                                                                                                              *          20170323IMF1703234.TXT
MDEDH3395888201703                D89828070100PV1D20170328000030SPEAKER ASM                   M IMCTM S5MB11 FTTL  07070IMCT  S5 PTB  00003                    2230 SR        000000000000 FUJITSU TEN (THAILAN17012ML0017017                                                                                                                              *          20170323IMF1703234.TXT
MDEDH3395889201703                D89828070100PV1D20170329000030SPEAKER ASM                   M IMCTM S5MB11 FTTL  07070IMCT  S5 PTB  00003                    0230 SR        000000000000 FUJITSU TEN (THAILAN17014NL0003003                                                                                                                              *          20170323IMF1703234.TXT
MDEDH3395890201703                D89828070200PV1D20170328000030SPEAKER ASM                   M IMCTM S5MA14 FTTL  07070IMCT  S5 PTB  00005                    2100 SR        000000000000 FUJITSU TEN (THAILAN17022SL0001001                                                                                                                              *          20170323IMF1703234.TXT
MDEDH3395891201703                D89828070200PV1D20170328000030SPEAKER ASM                   M IMCTM S5MA14 FTTL  07070IMCT  S5 PTB  00005                    2230 SR        000000000000 FUJITSU TEN (THAILAN17012ML0017017                                                                                                                              *          20170323IMF1703234.TXT
MDEDH3395892201703                D89828070200PV1D20170329000030SPEAKER ASM                   M IMCTM S5MA14 FTTL  07070IMCT  S5 PTB  00005                    0230 SR        000000000000 FUJITSU TEN (THAILAN17014NL0003003                                                                                                                              *          20170323IMF1703234.TXT
MDEDH3395893201703                D89828070300PT1D20170328000030SPEAKER ASM                   M IMCTM S5NB082FTTL  07070IMCT  S5 PTB  00015                    2100 SR        000000000000 FUJITSU TEN (THAILAN17022SL0001001                                                                                                                              *          20170323IMF1703234.TXT
MDEDH3395894201703                D89828070300PT1D20170328000030SPEAKER ASM                   M IMCTM S5NB082FTTL  07070IMCT  S5 PTB  00015                    2230 SR        000000000000 FUJITSU TEN (THAILAN17012ML0017017                                                                                                                              *          20170323IMF1703234.TXT
MDEDH3395895201703                D89828070300PT1D20170329000030SPEAKER ASM                   M IMCTM S5NB082FTTL  07070IMCT  S5 PTB  00015                    0230 SR        000000000000 FUJITSU TEN (THAILAN17014NL0003003                                                                                                                              *          20170323IMF1703234.TXT
MDEDH3395896201703                D89829645300PT1D20170329000015RADIO;ASM DVD                 M IMCTM S5NC06 FTTL  07070IMCT  S5 PTB  00003                    0230 SR        000000000000 FUJITSU TEN (THAILAN17014NL0003003                                                                                                                              *          20170323IMF1703234.TXT
MDEDH3395897201703                D89831228800PT1D20170328000015RADIO;AM/FM,CD                M IMCTM S5NC06 FTTL  07070IMCT  S5 PTB  00003                    2230 SR        000000000000 FUJITSU TEN (THAILAN17012ML0017017                                                                                                                              *          20170323IMF1703234.TXT
MDEUH3263113201703                D89828070100PT4U20170329000030SPEAKER ASM                   M IMCTM S0FL05 FTTL  07070IMCT  S0 PTB  00003                    0400 SR        000000000000 FUJITSU TEN (THAILAN18018TU0007007                                                                                                                              *          20170323IMF1703234.TXT
MDEUH3263114201703                D89828070100PT4U20170329000030SPEAKER ASM                   M IMCTM S0FL05 FTTL  07070IMCT  S0 PTB  00003                    0900 SR        000000000000 FUJITSU TEN (THAILAN170C16U0214214                                                                                                                              *          20170323IMF1703234.TXT
MDEUH3263115201703                D89828070100PT4U20170329000060SPEAKER ASM                   M IMCTM S0FL05 FTTL  07070IMCT  S0 PTB  00003                    1300 SR        000000000000 FUJITSU TEN (THAILAN170C16U0215216                                                                                                                              *          20170323IMF1703234.TXT
MDEUH3263116201703                D89828070100PT4U20170329000030SPEAKER ASM                   M IMCTM S0FL05 FTTL  07070IMCT  S0 PTB  00003                    1600 SR        000000000000 FUJITSU TEN (THAILAN18022TU0006006                                                                                                                              *          20170323IMF1703234.TXT
MDEUH3263117201703                D89828070200PV4U20170329000030SPEAKER ASM                   M IMCTM S0FR05 FTTL  07070IMCT  S0 PTB  00005                    0400 SR        000000000000 FUJITSU TEN (THAILAN18018TU0007007                                                                                                                              *          20170323IMF1703234.TXT
MDEUH3263118201703                D89828070200PV4U20170329000030SPEAKER ASM                   M IMCTM S0FR05 FTTL  07070IMCT  S0 PTB  00005                    0900 SR        000000000000 FUJITSU TEN (THAILAN170C16U0214214                                                                                                                              *          20170323IMF1703234.TXT
MDEUH3263119201703                D89828070200PV4U20170329000060SPEAKER ASM                   M IMCTM S0FR05 FTTL  07070IMCT  S0 PTB  00005                    1300 SR        000000000000 FUJITSU TEN (THAILAN170C16U0215216                                                                                                                              *          20170323IMF1703234.TXT
MDEUH3263120201703                D89828070200PV4U20170329000030SPEAKER ASM                   M IMCTM S0FR05 FTTL  07070IMCT  S0 PTB  00005                    1600 SR        000000000000 FUJITSU TEN (THAILAN18022TU0006006                                                                                                                              *          20170323IMF1703234.TXT
MDEUH3263121201703                D89828070300PT4U20170329000030SPEAKER ASM                   M IMCTM S9TS02 FTTL  07070IMCT  S9 PTB  00015                    0400 SR        000000000000 FUJITSU TEN (THAILAN18018TU0007007                                                                                                                              *          20170323IMF1703234.TXT
MDEUH3263122201703                D89828070300PT4U20170329000030SPEAKER ASM                   M IMCTM S9TS02 FTTL  07070IMCT  S9 PTB  00015                    0900 SR        000000000000 FUJITSU TEN (THAILAN170C16U0214214                                                                                                                              *          20170323IMF1703234.TXT
MDEUH3263123201703                D89828070300PT4U20170329000060SPEAKER ASM                   M IMCTM S9TS02 FTTL  07070IMCT  S9 PTB  00015                    1300 SR        000000000000 FUJITSU TEN (THAILAN170C16U0215216                                                                                                                              *          20170323IMF1703234.TXT
MDEUH3263124201703                D89828070300PT4U20170329000030SPEAKER ASM                   M IMCTM S9TS02 FTTL  07070IMCT  S9 PTB  00015                    1600 SR        000000000000 FUJITSU TEN (THAILAN18022TU0006006                                                                                                                              *          20170323IMF1703234.TXT
