REC2017042120170421ISUZU                              24     
MAKK74065114201704D4               89805293700P3YK20170502000150SPEAKER ASM                   M IMCTM CM1    FTTL  07070IMKDC KA   PTB00003  K0                1621DES        000000000000 FUJITSU TEN (THAILAN                                                                                                                                            *G         20170421IMF1704211.TXT
MAKK74065115201704D4               89805293700P3YK20170503000180SPEAKER ASM                   M IMCTM CM1    FTTL  07070IMKDC KA   PTB00003  K0                1621DES        000000000000 FUJITSU TEN (THAILAN                                                                                                                                            *G         20170421IMF1704211.TXT
MAKK74065116201704D4               89805293700P3YK20170504000120SPEAKER ASM                   M IMCTM CM1    FTTL  07070IMKDC KA   PTB00003  K0                1621DES        000000000000 FUJITSU TEN (THAILAN                                                                                                                                            *G         20170421IMF1704211.TXT
MAKK74065117201704D4               89805294000P3YK20170502000060SPEAKER ASM                   M IMCTM CM1    FTTL  07070IMKDC KA   PTB00015  K0                1621DES        000000000000 FUJITSU TEN (THAILAN                                                                                                                                            *G         20170421IMF1704211.TXT
MAKK74065118201704D4               89805294000P3YK20170503000120SPEAKER ASM                   M IMCTM CM1    FTTL  07070IMKDC KA   PTB00015  K0                1621DES        000000000000 FUJITSU TEN (THAILAN                                                                                                                                            *G         20170421IMF1704211.TXT
MAKK74065119201704D4               89805294000P3YK20170504000090SPEAKER ASM                   M IMCTM CM1    FTTL  07070IMKDC KA   PTB00015  K0                1621DES        000000000000 FUJITSU TEN (THAILAN                                                                                                                                            *G         20170421IMF1704211.TXT
MAKK74065120201704D4               89805294100P3YK20170502000030SPEAKER ASM                   M IMCTM CM1    FTTL  07070IMKDC KA   PTB00005  K0                1621DES        000000000000 FUJITSU TEN (THAILAN                                                                                                                                            *G         20170421IMF1704211.TXT
MAKK74065121201704D4               89805294100P3YK20170503000060SPEAKER ASM                   M IMCTM CM1    FTTL  07070IMKDC KA   PTB00005  K0                1621DES        000000000000 FUJITSU TEN (THAILAN                                                                                                                                            *G         20170421IMF1704211.TXT
MAKK74065122201704D4               89805294100P3YK20170504000030SPEAKER ASM                   M IMCTM CM1    FTTL  07070IMKDC KA   PTB00005  K0                1621DES        000000000000 FUJITSU TEN (THAILAN                                                                                                                                            *G         20170421IMF1704211.TXT
MAKK74065123201704D4               89805294200P3YK20170504000120SPEAKER ASM                   M IMCTM CM1    FTTL  07070IMKDC KA X    00030  K0                1621DES        000000000000 FUJITSU TEN (THAILAN                                                                                                                                            *G         20170421IMF1704211.TXT
MAKK74065124201704D4               89806470400P3YK20170504000060SPEAKER ASM;RDO,              M IMCTM CM1    FTTL  07070IMKDC KA   PTB00015  K0                1621DES        000000000000 FUJITSU TEN (THAILAN                                                                                                                                            *G         20170421IMF1704211.TXT
MAKK74065125201704D4               89825451200P3YK20170502000060SPEAKER ASM;ROOF              M IMCTM CM1    FTTL  07070IMKDC KA   PTB00015  K0                1621DES        000000000000 FUJITSU TEN (THAILAN                                                                                                                                            *G         20170421IMF1704211.TXT
MAKK74065126201704D4               89825451200P3YK20170503000090SPEAKER ASM;ROOF              M IMCTM CM1    FTTL  07070IMKDC KA   PTB00015  K0                1621DES        000000000000 FUJITSU TEN (THAILAN                                                                                                                                            *G         20170421IMF1704211.TXT
MAKK74065127201704D4               89828070100P3YK20170502000090SPEAKER ASM                   M IMCTM CM1    FTTL  07070IMKDC KA PTB  00003  K0                1621DES        000000000000 FUJITSU TEN (THAILAN                                                                                                                                            *G         20170421IMF1704211.TXT
MAKK74065128201704D4               89828070100P3YK20170503000060SPEAKER ASM                   M IMCTM CM1    FTTL  07070IMKDC KA PTB  00003  K0                1621DES        000000000000 FUJITSU TEN (THAILAN                                                                                                                                            *G         20170421IMF1704211.TXT
MAKK74065129201704D4               89828070100P3YK20170504000090SPEAKER ASM                   M IMCTM CM1    FTTL  07070IMKDC KA PTB  00003  K0                1621DES        000000000000 FUJITSU TEN (THAILAN                                                                                                                                            *G         20170421IMF1704211.TXT
MAKK74065130201704D4               89828070200P3YK20170502000030SPEAKER ASM                   M IMCTM CM1    FTTL  07070IMKDC KA PTB  00005  K0                1621DES        000000000000 FUJITSU TEN (THAILAN                                                                                                                                            *G         20170421IMF1704211.TXT
MAKK74065131201704D4               89828070200P3YK20170503000030SPEAKER ASM                   M IMCTM CM1    FTTL  07070IMKDC KA PTB  00005  K0                1621DES        000000000000 FUJITSU TEN (THAILAN                                                                                                                                            *G         20170421IMF1704211.TXT
MAKK74065132201704D4               89828070200P3YK20170504000030SPEAKER ASM                   M IMCTM CM1    FTTL  07070IMKDC KA PTB  00005  K0                1621DES        000000000000 FUJITSU TEN (THAILAN                                                                                                                                            *G         20170421IMF1704211.TXT
MAKK74065133201704D4               89828070300P3YK20170502000060SPEAKER ASM                   M IMCTM CM1    FTTL  07070IMKDC KA PTB  00015  K0                1621DES        000000000000 FUJITSU TEN (THAILAN                                                                                                                                            *G         20170421IMF1704211.TXT
MAKK74065134201704D4               89828070300P3YK20170503000060SPEAKER ASM                   M IMCTM CM1    FTTL  07070IMKDC KA PTB  00015  K0                1621DES        000000000000 FUJITSU TEN (THAILAN                                                                                                                                            *G         20170421IMF1704211.TXT
MAKK74065135201704D4               89828070300P3YK20170504000030SPEAKER ASM                   M IMCTM CM1    FTTL  07070IMKDC KA PTB  00015  K0                1621DES        000000000000 FUJITSU TEN (THAILAN                                                                                                                                            *G         20170421IMF1704211.TXT
MAKK74065136201704D4               89831228700P3YK20170503000015RADIO;AM/FM,CD                M IMCTM CM1    FTTL  07070IMKDC KA PTB  00003  K0                1621DES        000000000000 FUJITSU TEN (THAILAN                                                                                                                                            *G         20170421IMF1704211.TXT
MAKK74065137201704D4               89831228800P3YK20170503000015RADIO;AM/FM,CD                M IMCTM CM1    FTTL  07070IMKDC KA PTB  00003  K0                1621DES        000000000000 FUJITSU TEN (THAILAN                                                                                                                                            *G         20170421IMF1704211.TXT
