REC2017042020170421ISUZU                              87     
MDDDH4230956201704                D89821984430PT1D20170424000030RADIO;AM/FM,CD                M IMCTM S5NC06 FTTL  07070IMCT  S5 PTB  00005                    2230 SR        000000000000 FUJITSU TEN (THAILAN170KNEL0083083                                                                                                                              *          20170420IMF1704206.TXT
MDDDH4230957201704                D89821984430PT1D20170425000030RADIO;AM/FM,CD                M IMCTM S5NC06 FTTL  07070IMCT  S5 PTB  00005                    0900 SR        000000000000 FUJITSU TEN (THAILAN170KPAL0092092                                                                                                                              *          20170420IMF1704206.TXT
MDDDH4230958201704                D89821984430PT1D20170425000030RADIO;AM/FM,CD                M IMCTM S5NC06 FTTL  07070IMCT  S5 PTB  00005                    1300 SR        000000000000 FUJITSU TEN (THAILAN170KRAL0043043                                                                                                                              *          20170420IMF1704206.TXT
MDDDH4230959201704                D89821984430PT1D20170425000060RADIO;AM/FM,CD                M IMCTM S5NC06 FTTL  07070IMCT  S5 PTB  00005                    1600 SR        000000000000 FUJITSU TEN (THAILAN170KNFL0034034170KRAL0044044                                                                                                                *          20170420IMF1704206.TXT
MDDDH4230960201704                D89828070100PV1D20170424000060SPEAKER ASM                   M IMCTM S5MB11 FTTL  07070IMCT  S5 PTB  00003                    2230 SR        000000000000 FUJITSU TEN (THAILAN170KNEL0083083                                                                                                                              *          20170420IMF1704206.TXT
MDDDH4230961201704                D89828070100PV1D20170425000060SPEAKER ASM                   M IMCTM S5MB11 FTTL  07070IMCT  S5 PTB  00003                    0400 SR        000000000000 FUJITSU TEN (THAILAN170KPCL0050050                                                                                                                              *          20170420IMF1704206.TXT
MDDDH4230962201704                D89828070100PV1D20170425000060SPEAKER ASM                   M IMCTM S5MB11 FTTL  07070IMCT  S5 PTB  00003                    0900 SR        000000000000 FUJITSU TEN (THAILAN170KPAL0092092                                                                                                                              *          20170420IMF1704206.TXT
MDDDH4230963201704                D89828070100PV1D20170425000060SPEAKER ASM                   M IMCTM S5MB11 FTTL  07070IMCT  S5 PTB  00003                    1300 SR        000000000000 FUJITSU TEN (THAILAN170KRAL0043043                                                                                                                              *          20170420IMF1704206.TXT
MDDDH4230964201704                D89828070100PV1D20170425000180SPEAKER ASM                   M IMCTM S5MB11 FTTL  07070IMCT  S5 PTB  00003                    1600 SR        000000000000 FUJITSU TEN (THAILAN170KNFL0034034170KRAL0044044170KRJL0033033                                                                                                  *          20170420IMF1704206.TXT
MDDDH4230965201704                D89828070100PV1D20170425000060SPEAKER ASM                   M IMCTM S5MB11 FTTL  07070IMCT  S5 PTB  00003                    2100 SR        000000000000 FUJITSU TEN (THAILAN170KRFL0070070                                                                                                                              *          20170420IMF1704206.TXT
MDDDH4230966201704                D89828070200PV1D20170425000060SPEAKER ASM                   M IMCTM S5MA14 FTTL  07070IMCT  S5 PTB  00005                    1600 SR        000000000000 FUJITSU TEN (THAILAN170KRJL0033033                                                                                                                              *          20170420IMF1704206.TXT
MDDDH4230967201704                D89828070200PV1D20170425000060SPEAKER ASM                   M IMCTM S5MA14 FTTL  07070IMCT  S5 PTB  00005                    2100 SR        000000000000 FUJITSU TEN (THAILAN170KRFL0070070                                                                                                                              *          20170420IMF1704206.TXT
MDDDH4230968201704                D89828070300PT1D20170425000060SPEAKER ASM                   M IMCTM S5NB082FTTL  07070IMCT  S5 PTB  00015                    0400 SR        000000000000 FUJITSU TEN (THAILAN170KPCL0050050                                                                                                                              *          20170420IMF1704206.TXT
MDDDH4230969201704                D89828070300PT1D20170425000060SPEAKER ASM                   M IMCTM S5NB082FTTL  07070IMCT  S5 PTB  00015                    1600 SR        000000000000 FUJITSU TEN (THAILAN170KRJL0033033                                                                                                                              *          20170420IMF1704206.TXT
MDDDH4230970201704                D89828070300PT1D20170425000060SPEAKER ASM                   M IMCTM S5NB082FTTL  07070IMCT  S5 PTB  00015                    2100 SR        000000000000 FUJITSU TEN (THAILAN170KRFL0070070                                                                                                                              *          20170420IMF1704206.TXT
MDDDH4230971201704                D89829645900PT1D20170425000030RADIO;ASM DVD                 M IMCTM S5NC06 FTTL  07070IMCT  S5 CPB  00003                    2100 SR        000000000000 FUJITSU TEN (THAILAN170KRFL0070070                                                                                                                              *          20170420IMF1704206.TXT
MDDDH4230972201704                D89831228300PT1D20170425000030RADIO;AM/FM,CD                M IMCTM S5NC06 FTTL  07070IMCT  S5 CPB  00003                    0400 SR        000000000000 FUJITSU TEN (THAILAN170KPCL0050050                                                                                                                              *          20170420IMF1704206.TXT
MDDUH4225683201704                D89828070100PT4U20170424000030SPEAKER ASM                   M IMCTM S0FL05 FTTL  07070IMCT  S0 PTB  00003                    2230 SR        000000000000 FUJITSU TEN (THAILAN180LUDU0102102                                                                                                                              *          20170420IMF1704206.TXT
MDDUH4225684201704                D89828070100PT4U20170425000030SPEAKER ASM                   M IMCTM S0FL05 FTTL  07070IMCT  S0 PTB  00003                    0230 SR        000000000000 FUJITSU TEN (THAILAN180LUEU0062062                                                                                                                              *          20170420IMF1704206.TXT
MDDUH4225685201704                D89828070100PT4U20170425000030SPEAKER ASM                   M IMCTM S0FL05 FTTL  07070IMCT  S0 PTB  00003                    0900 SR        000000000000 FUJITSU TEN (THAILAN180LUDU0103103                                                                                                                              *          20170420IMF1704206.TXT
MDDUH4225686201704                D89828070100PT4U20170425000030SPEAKER ASM                   M IMCTM S0FL05 FTTL  07070IMCT  S0 PTB  00003                    1300 SR        000000000000 FUJITSU TEN (THAILAN180LUDU0104104                                                                                                                              *          20170420IMF1704206.TXT
MDDUH4225687201704                D89828070100PT4U20170425000030SPEAKER ASM                   M IMCTM S0FL05 FTTL  07070IMCT  S0 PTB  00003                    1600 SR        000000000000 FUJITSU TEN (THAILAN180LUFU0016016                                                                                                                              *          20170420IMF1704206.TXT
MDDUH4225688201704                D89828070200PV4U20170424000030SPEAKER ASM                   M IMCTM S0FR05 FTTL  07070IMCT  S0 PTB  00005                    2230 SR        000000000000 FUJITSU TEN (THAILAN180LUDU0102102                                                                                                                              *          20170420IMF1704206.TXT
MDDUH4225689201704                D89828070200PV4U20170425000030SPEAKER ASM                   M IMCTM S0FR05 FTTL  07070IMCT  S0 PTB  00005                    0230 SR        000000000000 FUJITSU TEN (THAILAN180LUEU0062062                                                                                                                              *          20170420IMF1704206.TXT
MDDUH4225690201704                D89828070200PV4U20170425000030SPEAKER ASM                   M IMCTM S0FR05 FTTL  07070IMCT  S0 PTB  00005                    0900 SR        000000000000 FUJITSU TEN (THAILAN180LUDU0103103                                                                                                                              *          20170420IMF1704206.TXT
MDDUH4225691201704                D89828070200PV4U20170425000030SPEAKER ASM                   M IMCTM S0FR05 FTTL  07070IMCT  S0 PTB  00005                    1300 SR        000000000000 FUJITSU TEN (THAILAN180LUDU0104104                                                                                                                              *          20170420IMF1704206.TXT
MDDUH4225692201704                D89828070200PV4U20170425000030SPEAKER ASM                   M IMCTM S0FR05 FTTL  07070IMCT  S0 PTB  00005                    1600 SR        000000000000 FUJITSU TEN (THAILAN180LUFU0016016                                                                                                                              *          20170420IMF1704206.TXT
MDDUH4225693201704                D89828070300PT4U20170424000030SPEAKER ASM                   M IMCTM S9TS02 FTTL  07070IMCT  S9 PTB  00015                    2230 SR        000000000000 FUJITSU TEN (THAILAN180LUDU0102102                                                                                                                              *          20170420IMF1704206.TXT
MDDUH4225694201704                D89828070300PT4U20170425000030SPEAKER ASM                   M IMCTM S9TS02 FTTL  07070IMCT  S9 PTB  00015                    0230 SR        000000000000 FUJITSU TEN (THAILAN180LUEU0062062                                                                                                                              *          20170420IMF1704206.TXT
MDDUH4225695201704                D89828070300PT4U20170425000030SPEAKER ASM                   M IMCTM S9TS02 FTTL  07070IMCT  S9 PTB  00015                    0900 SR        000000000000 FUJITSU TEN (THAILAN180LUDU0103103                                                                                                                              *          20170420IMF1704206.TXT
MDDUH4225696201704                D89828070300PT4U20170425000030SPEAKER ASM                   M IMCTM S9TS02 FTTL  07070IMCT  S9 PTB  00015                    1300 SR        000000000000 FUJITSU TEN (THAILAN180LUDU0104104                                                                                                                              *          20170420IMF1704206.TXT
MDDUH4225697201704                D89828070300PT4U20170425000030SPEAKER ASM                   M IMCTM S9TS02 FTTL  07070IMCT  S9 PTB  00015                    1600 SR        000000000000 FUJITSU TEN (THAILAN180LUFU0016016                                                                                                                              *          20170420IMF1704206.TXT
MDEDH4243211201704                D89805293700PV1D20170424000030SPEAKER ASM                   M IMCTM S5MB11 FTTL  07070IMCT  S5 PTB  00003                    2230 SR        000000000000 FUJITSU TEN (THAILAN15028BL0050050                                                                                                                              *          20170420IMF1704206.TXT
MDEDH4243212201704                D89805294000PT1D20170424000030SPEAKER ASM                   M IMCTM S5NB082FTTL  07070IMCT  S5 PTB  00015                    2230 SR        000000000000 FUJITSU TEN (THAILAN15028BL0050050                                                                                                                              *          20170420IMF1704206.TXT
MDEDH4243213201704                D89805294100PV1D20170424000030SPEAKER ASM                   M IMCTM S5MA14 FTTL  07070IMCT  S5 PTB  00005                    2230 SR        000000000000 FUJITSU TEN (THAILAN15028BL0050050                                                                                                                              *          20170420IMF1704206.TXT
MDEDH4243214201704                D89827952200PT1D20170425000015RADIO;AM/FM,CD,D              M IMCTM S5NC06 FTTL  07070IMCT  S5 X    00003                    1300 SR        000000000000 FUJITSU TEN (THAILAN17056NL0022022                                                                                                                              *          20170420IMF1704206.TXT
MDEDH4243215201704                D89828070100PV1D20170424000030SPEAKER ASM                   M IMCTM S5MB11 FTTL  07070IMCT  S5 PTB  00003                    2230 SR        000000000000 FUJITSU TEN (THAILAN17069ML0003003                                                                                                                              *          20170420IMF1704206.TXT
MDEDH4243216201704                D89828070100PV1D20170425000060SPEAKER ASM                   M IMCTM S5MB11 FTTL  07070IMCT  S5 PTB  00003                    0230 SR        000000000000 FUJITSU TEN (THAILAN17063NL0015016                                                                                                                              *          20170420IMF1704206.TXT
MDEDH4243217201704                D89828070100PV1D20170425000060SPEAKER ASM                   M IMCTM S5MB11 FTTL  07070IMCT  S5 PTB  00003                    0400 SR        000000000000 FUJITSU TEN (THAILAN17032PL000400417079NL0052052                                                                                                                *          20170420IMF1704206.TXT
MDEDH4243218201704                D89828070100PV1D20170425000060SPEAKER ASM                   M IMCTM S5MB11 FTTL  07070IMCT  S5 PTB  00003                    0900 SR        000000000000 FUJITSU TEN (THAILAN17069NL0006007                                                                                                                              *          20170420IMF1704206.TXT
MDEDH4243219201704                D89828070100PV1D20170425000060SPEAKER ASM                   M IMCTM S5MB11 FTTL  07070IMCT  S5 PTB  00003                    1300 SR        000000000000 FUJITSU TEN (THAILAN17055NL002602617056NL0022022                                                                                                                *          20170420IMF1704206.TXT
MDEDH4243220201704                D89828070100PV1D20170425000060SPEAKER ASM                   M IMCTM S5MB11 FTTL  07070IMCT  S5 PTB  00003                    1600 SR        000000000000 FUJITSU TEN (THAILAN17043RL000300317063ML0005005                                                                                                                *          20170420IMF1704206.TXT
MDEDH4243221201704                D89828070100PV1D20170425000030SPEAKER ASM                   M IMCTM S5MB11 FTTL  07070IMCT  S5 PTB  00003                    2230 SR        000000000000 FUJITSU TEN (THAILAN17001NL0009009                                                                                                                              *          20170420IMF1704206.TXT
MDEDH4243222201704                D89828070100PV4D20170425000030SPEAKER ASM                   M IMCTM S0FL05 FTTL  07070IMCT  S0 PTB  00003                    1300 SR        000000000000 FUJITSU TEN (THAILAN17055NU0008008                                                                                                                              *          20170420IMF1704206.TXT
MDEDH4243223201704                D89828070200PV1D20170425000060SPEAKER ASM                   M IMCTM S5MA14 FTTL  07070IMCT  S5 PTB  00005                    0400 SR        000000000000 FUJITSU TEN (THAILAN17032PL000400417079NL0052052                                                                                                                *          20170420IMF1704206.TXT
MDEDH4243224201704                D89828070200PV1D20170425000060SPEAKER ASM                   M IMCTM S5MA14 FTTL  07070IMCT  S5 PTB  00005                    0900 SR        000000000000 FUJITSU TEN (THAILAN17069NL0006007                                                                                                                              *          20170420IMF1704206.TXT
MDEDH4243225201704                D89828070200PV1D20170425000030SPEAKER ASM                   M IMCTM S5MA14 FTTL  07070IMCT  S5 PTB  00005                    1600 SR        000000000000 FUJITSU TEN (THAILAN17043RL0003003                                                                                                                              *          20170420IMF1704206.TXT
MDEDH4243226201704                D89828070200PV1D20170425000030SPEAKER ASM                   M IMCTM S5MA14 FTTL  07070IMCT  S5 PTB  00005                    2230 SR        000000000000 FUJITSU TEN (THAILAN17001NL0009009                                                                                                                              *          20170420IMF1704206.TXT
MDEDH4243227201704                D89828070300PT1D20170424000030SPEAKER ASM                   M IMCTM S5NB082FTTL  07070IMCT  S5 PTB  00015                    2230 SR        000000000000 FUJITSU TEN (THAILAN17069ML0003003                                                                                                                              *          20170420IMF1704206.TXT
MDEDH4243228201704                D89828070300PT1D20170425000060SPEAKER ASM                   M IMCTM S5NB082FTTL  07070IMCT  S5 PTB  00015                    0230 SR        000000000000 FUJITSU TEN (THAILAN17063NL0015016                                                                                                                              *          20170420IMF1704206.TXT
MDEDH4243229201704                D89828070300PT1D20170425000060SPEAKER ASM                   M IMCTM S5NB082FTTL  07070IMCT  S5 PTB  00015                    0400 SR        000000000000 FUJITSU TEN (THAILAN17032PL000400417079NL0052052                                                                                                                *          20170420IMF1704206.TXT
MDEDH4243230201704                D89828070300PT1D20170425000060SPEAKER ASM                   M IMCTM S5NB082FTTL  07070IMCT  S5 PTB  00015                    0900 SR        000000000000 FUJITSU TEN (THAILAN17069NL0006007                                                                                                                              *          20170420IMF1704206.TXT
MDEDH4243231201704                D89828070300PT1D20170425000060SPEAKER ASM                   M IMCTM S5NB082FTTL  07070IMCT  S5 PTB  00015                    1300 SR        000000000000 FUJITSU TEN (THAILAN17055NL002602617056NL0022022                                                                                                                *          20170420IMF1704206.TXT
MDEDH4243232201704                D89828070300PT1D20170425000060SPEAKER ASM                   M IMCTM S5NB082FTTL  07070IMCT  S5 PTB  00015                    1600 SR        000000000000 FUJITSU TEN (THAILAN17043RL000300317063ML0005005                                                                                                                *          20170420IMF1704206.TXT
MDEDH4243233201704                D89828070300PT1D20170425000030SPEAKER ASM                   M IMCTM S5NB082FTTL  07070IMCT  S5 PTB  00015                    2230 SR        000000000000 FUJITSU TEN (THAILAN17001NL0009009                                                                                                                              *          20170420IMF1704206.TXT
MDEDH4243234201704                D89828070300PT4D20170425000030SPEAKER ASM                   M IMCTM S9TS02 FTTL  07070IMCT  S9 PTB  00015                    1300 SR        000000000000 FUJITSU TEN (THAILAN17055NU0008008                                                                                                                              *          20170420IMF1704206.TXT
MDEDH4243235201704                D89829645300PT1D20170425000015RADIO;ASM DVD                 M IMCTM S5NC06 FTTL  07070IMCT  S5 PTB  00003                    0400 SR        000000000000 FUJITSU TEN (THAILAN17032PL0004004                                                                                                                              *          20170420IMF1704206.TXT
MDEDH4243236201704                D89829645400PT1D20170425000015RADIO;ASM DVD                 M IMCTM S5NC06 FTTL  07070IMCT  S5 PTB  00003                    1600 SR        000000000000 FUJITSU TEN (THAILAN17043RL0003003                                                                                                                              *          20170420IMF1704206.TXT
MDEDH4243237201704                D89829645700PT1D20170425000030RADIO;ASM DVD                 M IMCTM S5NC06 FTTL  07070IMCT  S5 X    00003                    0230 SR        000000000000 FUJITSU TEN (THAILAN17063NL0015016                                                                                                                              *          20170420IMF1704206.TXT
MDEDH4243238201704                D89829645700PT1D20170425000015RADIO;ASM DVD                 M IMCTM S5NC06 FTTL  07070IMCT  S5 X    00003                    0400 SR        000000000000 FUJITSU TEN (THAILAN17079NL0052052                                                                                                                              *          20170420IMF1704206.TXT
MDEDH4243239201704                D89829645700PT1D20170425000030RADIO;ASM DVD                 M IMCTM S5NC06 FTTL  07070IMCT  S5 X    00003                    0900 SR        000000000000 FUJITSU TEN (THAILAN17069NL0006007                                                                                                                              *          20170420IMF1704206.TXT
MDEDH4243240201704                D89829645700PT1D20170425000015RADIO;ASM DVD                 M IMCTM S5NC06 FTTL  07070IMCT  S5 X    00003                    1300 SR        000000000000 FUJITSU TEN (THAILAN17055NL0026026                                                                                                                              *          20170420IMF1704206.TXT
MDEDH4243241201704                D89829645700PT4D20170425000015RADIO;ASM DVD                 M IMCTM S9CO001FTTL  07070IMCT  S9 X    00003                    1300 SR        000000000000 FUJITSU TEN (THAILAN17055NU0008008                                                                                                                              *          20170420IMF1704206.TXT
MDEDH4243242201704                D89831228700PT1D20170424000015RADIO;AM/FM,CD                M IMCTM S5NC06 FTTL  07070IMCT  S5 PTB  00003                    2230 SR        000000000000 FUJITSU TEN (THAILAN17069ML0003003                                                                                                                              *          20170420IMF1704206.TXT
MDEDH4243243201704                D89831228700PT1D20170425000015RADIO;AM/FM,CD                M IMCTM S5NC06 FTTL  07070IMCT  S5 PTB  00003                    1600 SR        000000000000 FUJITSU TEN (THAILAN17063ML0005005                                                                                                                              *          20170420IMF1704206.TXT
MDEDH4243244201704                D89831228800PT1D20170425000015RADIO;AM/FM,CD                M IMCTM S5NC06 FTTL  07070IMCT  S5 PTB  00003                    2230 SR        000000000000 FUJITSU TEN (THAILAN17001NL0009009                                                                                                                              *          20170420IMF1704206.TXT
MDEUH4226373201704                D89828070100PT4U20170424000030SPEAKER ASM                   M IMCTM S0FL05 FTTL  07070IMCT  S0 PTB  00003                    2100 SR        000000000000 FUJITSU TEN (THAILAN18017TU0005005                                                                                                                              *          20170420IMF1704206.TXT
MDEUH4226374201704                D89828070100PT4U20170424000030SPEAKER ASM                   M IMCTM S0FL05 FTTL  07070IMCT  S0 PTB  00003                    2230 SR        000000000000 FUJITSU TEN (THAILAN18023TU0041041                                                                                                                              *          20170420IMF1704206.TXT
MDEUH4226375201704                D89828070100PT4U20170425000030SPEAKER ASM                   M IMCTM S0FL05 FTTL  07070IMCT  S0 PTB  00003                    0400 SR        000000000000 FUJITSU TEN (THAILAN18023TU0042042                                                                                                                              *          20170420IMF1704206.TXT
MDEUH4226376201704                D89828070100PT4U20170425000030SPEAKER ASM                   M IMCTM S0FL05 FTTL  07070IMCT  S0 PTB  00003                    0900 SR        000000000000 FUJITSU TEN (THAILAN18023TU0043043                                                                                                                              *          20170420IMF1704206.TXT
MDEUH4226377201704                D89828070100PT4U20170425000060SPEAKER ASM                   M IMCTM S0FL05 FTTL  07070IMCT  S0 PTB  00003                    1600 SR        000000000000 FUJITSU TEN (THAILAN160B94U002402418020TU0003003                                                                                                                *          20170420IMF1704206.TXT
MDEUH4226378201704                D89828070100PT4U20170425000030SPEAKER ASM                   M IMCTM S0FL05 FTTL  07070IMCT  S0 PTB  00003                    2100 SR        000000000000 FUJITSU TEN (THAILAN160B94U0025025                                                                                                                              *          20170420IMF1704206.TXT
MDEUH4226379201704                D89828070100PT4U20170425000030SPEAKER ASM                   M IMCTM S0FL05 FTTL  07070IMCT  S0 PTB  00003                    2230 SR        000000000000 FUJITSU TEN (THAILAN18023TU0044044                                                                                                                              *          20170420IMF1704206.TXT
MDEUH4226380201704                D89828070200PV4U20170424000030SPEAKER ASM                   M IMCTM S0FR05 FTTL  07070IMCT  S0 PTB  00005                    2100 SR        000000000000 FUJITSU TEN (THAILAN18017TU0005005                                                                                                                              *          20170420IMF1704206.TXT
MDEUH4226381201704                D89828070200PV4U20170424000030SPEAKER ASM                   M IMCTM S0FR05 FTTL  07070IMCT  S0 PTB  00005                    2230 SR        000000000000 FUJITSU TEN (THAILAN18023TU0041041                                                                                                                              *          20170420IMF1704206.TXT
MDEUH4226382201704                D89828070200PV4U20170425000030SPEAKER ASM                   M IMCTM S0FR05 FTTL  07070IMCT  S0 PTB  00005                    0400 SR        000000000000 FUJITSU TEN (THAILAN18023TU0042042                                                                                                                              *          20170420IMF1704206.TXT
MDEUH4226383201704                D89828070200PV4U20170425000030SPEAKER ASM                   M IMCTM S0FR05 FTTL  07070IMCT  S0 PTB  00005                    0900 SR        000000000000 FUJITSU TEN (THAILAN18023TU0043043                                                                                                                              *          20170420IMF1704206.TXT
MDEUH4226384201704                D89828070200PV4U20170425000060SPEAKER ASM                   M IMCTM S0FR05 FTTL  07070IMCT  S0 PTB  00005                    1600 SR        000000000000 FUJITSU TEN (THAILAN160B94U002402418020TU0003003                                                                                                                *          20170420IMF1704206.TXT
MDEUH4226385201704                D89828070200PV4U20170425000030SPEAKER ASM                   M IMCTM S0FR05 FTTL  07070IMCT  S0 PTB  00005                    2100 SR        000000000000 FUJITSU TEN (THAILAN160B94U0025025                                                                                                                              *          20170420IMF1704206.TXT
MDEUH4226386201704                D89828070200PV4U20170425000030SPEAKER ASM                   M IMCTM S0FR05 FTTL  07070IMCT  S0 PTB  00005                    2230 SR        000000000000 FUJITSU TEN (THAILAN18023TU0044044                                                                                                                              *          20170420IMF1704206.TXT
MDEUH4226387201704                D89828070300PT4U20170424000030SPEAKER ASM                   M IMCTM S9TS02 FTTL  07070IMCT  S9 PTB  00015                    2100 SR        000000000000 FUJITSU TEN (THAILAN18017TU0005005                                                                                                                              *          20170420IMF1704206.TXT
MDEUH4226388201704                D89828070300PT4U20170424000030SPEAKER ASM                   M IMCTM S9TS02 FTTL  07070IMCT  S9 PTB  00015                    2230 SR        000000000000 FUJITSU TEN (THAILAN18023TU0041041                                                                                                                              *          20170420IMF1704206.TXT
MDEUH4226389201704                D89828070300PT4U20170425000030SPEAKER ASM                   M IMCTM S9TS02 FTTL  07070IMCT  S9 PTB  00015                    0400 SR        000000000000 FUJITSU TEN (THAILAN18023TU0042042                                                                                                                              *          20170420IMF1704206.TXT
MDEUH4226390201704                D89828070300PT4U20170425000030SPEAKER ASM                   M IMCTM S9TS02 FTTL  07070IMCT  S9 PTB  00015                    0900 SR        000000000000 FUJITSU TEN (THAILAN18023TU0043043                                                                                                                              *          20170420IMF1704206.TXT
MDEUH4226391201704                D89828070300PT4U20170425000060SPEAKER ASM                   M IMCTM S9TS02 FTTL  07070IMCT  S9 PTB  00015                    1600 SR        000000000000 FUJITSU TEN (THAILAN160B94U002402418020TU0003003                                                                                                                *          20170420IMF1704206.TXT
MDEUH4226392201704                D89828070300PT4U20170425000030SPEAKER ASM                   M IMCTM S9TS02 FTTL  07070IMCT  S9 PTB  00015                    2100 SR        000000000000 FUJITSU TEN (THAILAN160B94U0025025                                                                                                                              *          20170420IMF1704206.TXT
MDEUH4226393201704                D89828070300PT4U20170425000030SPEAKER ASM                   M IMCTM S9TS02 FTTL  07070IMCT  S9 PTB  00015                    2230 SR        000000000000 FUJITSU TEN (THAILAN18023TU0044044                                                                                                                              *          20170420IMF1704206.TXT
