REC2017040120170403ISUZU                              57     
MDDDH4200890201704                D89821984430PT1D20170405000030RADIO;AM/FM,CD                M IMCTM S5NC06 FTTL  07070IMCT  S5 PTB  00005                    2230 SR        000000000000 FUJITSU TEN (THAILAN170KNEL0075075                                                                                                                              *          20170401IMF1704017.TXT
MDDDH4200891201704                D89821984430PT1D20170417000030RADIO;AM/FM,CD                M IMCTM S5NC06 FTTL  07070IMCT  S5 PTB  00005                    0900 SR        000000000000 FUJITSU TEN (THAILAN170KNEL0076076                                                                                                                              *          20170401IMF1704017.TXT
MDDDH4200892201704                D89821984430PT1D20170417000030RADIO;AM/FM,CD                M IMCTM S5NC06 FTTL  07070IMCT  S5 PTB  00005                    1600 SR        000000000000 FUJITSU TEN (THAILAN170KNEL0077077                                                                                                                              *          20170401IMF1704017.TXT
MDDDH4200893201704                D89828070100PV1D20170405000060SPEAKER ASM                   M IMCTM S5MB11 FTTL  07070IMCT  S5 PTB  00003                    2100 SR        000000000000 FUJITSU TEN (THAILAN170KRFL0065065                                                                                                                              *          20170401IMF1704017.TXT
MDDDH4200894201704                D89828070100PV1D20170405000120SPEAKER ASM                   M IMCTM S5MB11 FTTL  07070IMCT  S5 PTB  00003                    2230 SR        000000000000 FUJITSU TEN (THAILAN170KNEL0075075170KRQL0005005                                                                                                                *          20170401IMF1704017.TXT
MDDDH4200895201704                D89828070100PV1D20170406000060SPEAKER ASM                   M IMCTM S5MB11 FTTL  07070IMCT  S5 PTB  00003                    0400 SR        000000000000 FUJITSU TEN (THAILAN170KRFL0066066                                                                                                                              *          20170401IMF1704017.TXT
MDDDH4200896201704                D89828070100PV1D20170417000060SPEAKER ASM                   M IMCTM S5MB11 FTTL  07070IMCT  S5 PTB  00003                    0900 SR        000000000000 FUJITSU TEN (THAILAN170KNEL0076076                                                                                                                              *          20170401IMF1704017.TXT
MDDDH4200897201704                D89828070100PV1D20170417000060SPEAKER ASM                   M IMCTM S5MB11 FTTL  07070IMCT  S5 PTB  00003                    1300 SR        000000000000 FUJITSU TEN (THAILAN170KPCL0039039                                                                                                                              *          20170401IMF1704017.TXT
MDDDH4200898201704                D89828070100PV1D20170417000060SPEAKER ASM                   M IMCTM S5MB11 FTTL  07070IMCT  S5 PTB  00003                    1600 SR        000000000000 FUJITSU TEN (THAILAN170KNEL0077077                                                                                                                              *          20170401IMF1704017.TXT
MDDDH4200899201704                D89828070200PV1D20170405000060SPEAKER ASM                   M IMCTM S5MA14 FTTL  07070IMCT  S5 PTB  00005                    2100 SR        000000000000 FUJITSU TEN (THAILAN170KRFL0065065                                                                                                                              *          20170401IMF1704017.TXT
MDDDH4200900201704                D89828070200PV1D20170405000060SPEAKER ASM                   M IMCTM S5MA14 FTTL  07070IMCT  S5 PTB  00005                    2230 SR        000000000000 FUJITSU TEN (THAILAN170KRQL0005005                                                                                                                              *          20170401IMF1704017.TXT
MDDDH4200901201704                D89828070200PV1D20170406000060SPEAKER ASM                   M IMCTM S5MA14 FTTL  07070IMCT  S5 PTB  00005                    0400 SR        000000000000 FUJITSU TEN (THAILAN170KRFL0066066                                                                                                                              *          20170401IMF1704017.TXT
MDDDH4200902201704                D89828070300PT1D20170405000060SPEAKER ASM                   M IMCTM S5NB082FTTL  07070IMCT  S5 PTB  00015                    2100 SR        000000000000 FUJITSU TEN (THAILAN170KRFL0065065                                                                                                                              *          20170401IMF1704017.TXT
MDDDH4200903201704                D89828070300PT1D20170405000060SPEAKER ASM                   M IMCTM S5NB082FTTL  07070IMCT  S5 PTB  00015                    2230 SR        000000000000 FUJITSU TEN (THAILAN170KRQL0005005                                                                                                                              *          20170401IMF1704017.TXT
MDDDH4200904201704                D89828070300PT1D20170406000060SPEAKER ASM                   M IMCTM S5NB082FTTL  07070IMCT  S5 PTB  00015                    0400 SR        000000000000 FUJITSU TEN (THAILAN170KRFL0066066                                                                                                                              *          20170401IMF1704017.TXT
MDDDH4200905201704                D89828070300PT1D20170417000060SPEAKER ASM                   M IMCTM S5NB082FTTL  07070IMCT  S5 PTB  00015                    1300 SR        000000000000 FUJITSU TEN (THAILAN170KPCL0039039                                                                                                                              *          20170401IMF1704017.TXT
MDDDH4200906201704                D89829645900PT1D20170405000030RADIO;ASM DVD                 M IMCTM S5NC06 FTTL  07070IMCT  S5 CPB  00003                    2100 SR        000000000000 FUJITSU TEN (THAILAN170KRFL0065065                                                                                                                              *          20170401IMF1704017.TXT
MDDDH4200907201704                D89829645900PT1D20170406000030RADIO;ASM DVD                 M IMCTM S5NC06 FTTL  07070IMCT  S5 CPB  00003                    0400 SR        000000000000 FUJITSU TEN (THAILAN170KRFL0066066                                                                                                                              *          20170401IMF1704017.TXT
MDDDH4200908201704                D89831228300PT1D20170417000030RADIO;AM/FM,CD                M IMCTM S5NC06 FTTL  07070IMCT  S5 CPB  00003                    1300 SR        000000000000 FUJITSU TEN (THAILAN170KPCL0039039                                                                                                                              *          20170401IMF1704017.TXT
MDDUH4200714201704                D89828070100PT4U20170405000030SPEAKER ASM                   M IMCTM S0FL05 FTTL  07070IMCT  S0 PTB  00003                    2100 SR        000000000000 FUJITSU TEN (THAILAN180LUDU0090090                                                                                                                              *          20170401IMF1704017.TXT
MDDUH4200715201704                D89828070100PT4U20170405000030SPEAKER ASM                   M IMCTM S0FL05 FTTL  07070IMCT  S0 PTB  00003                    2230 SR        000000000000 FUJITSU TEN (THAILAN180LUEU0050050                                                                                                                              *          20170401IMF1704017.TXT
MDDUH4200716201704                D89828070100PT4U20170406000030SPEAKER ASM                   M IMCTM S0FL05 FTTL  07070IMCT  S0 PTB  00003                    0230 SR        000000000000 FUJITSU TEN (THAILAN180LUFU0014014                                                                                                                              *          20170401IMF1704017.TXT
MDDUH4200717201704                D89828070100PT4U20170406000030SPEAKER ASM                   M IMCTM S0FL05 FTTL  07070IMCT  S0 PTB  00003                    0400 SR        000000000000 FUJITSU TEN (THAILAN180LUAU0006006                                                                                                                              *          20170401IMF1704017.TXT
MDDUH4200718201704                D89828070100PT4U20170417000030SPEAKER ASM                   M IMCTM S0FL05 FTTL  07070IMCT  S0 PTB  00003                    0900 SR        000000000000 FUJITSU TEN (THAILAN180LUFU0015015                                                                                                                              *          20170401IMF1704017.TXT
MDDUH4200719201704                D89828070100PT4U20170417000030SPEAKER ASM                   M IMCTM S0FL05 FTTL  07070IMCT  S0 PTB  00003                    1300 SR        000000000000 FUJITSU TEN (THAILAN180LUEU0051051                                                                                                                              *          20170401IMF1704017.TXT
MDDUH4200720201704                D89828070100PT4U20170417000030SPEAKER ASM                   M IMCTM S0FL05 FTTL  07070IMCT  S0 PTB  00003                    1600 SR        000000000000 FUJITSU TEN (THAILAN180LUCU0037037                                                                                                                              *          20170401IMF1704017.TXT
MDDUH4200721201704                D89828070200PV4U20170405000030SPEAKER ASM                   M IMCTM S0FR05 FTTL  07070IMCT  S0 PTB  00005                    2100 SR        000000000000 FUJITSU TEN (THAILAN180LUDU0090090                                                                                                                              *          20170401IMF1704017.TXT
MDDUH4200722201704                D89828070200PV4U20170405000030SPEAKER ASM                   M IMCTM S0FR05 FTTL  07070IMCT  S0 PTB  00005                    2230 SR        000000000000 FUJITSU TEN (THAILAN180LUEU0050050                                                                                                                              *          20170401IMF1704017.TXT
MDDUH4200723201704                D89828070200PV4U20170406000030SPEAKER ASM                   M IMCTM S0FR05 FTTL  07070IMCT  S0 PTB  00005                    0230 SR        000000000000 FUJITSU TEN (THAILAN180LUFU0014014                                                                                                                              *          20170401IMF1704017.TXT
MDDUH4200724201704                D89828070200PV4U20170406000030SPEAKER ASM                   M IMCTM S0FR05 FTTL  07070IMCT  S0 PTB  00005                    0400 SR        000000000000 FUJITSU TEN (THAILAN180LUAU0006006                                                                                                                              *          20170401IMF1704017.TXT
MDDUH4200725201704                D89828070200PV4U20170417000030SPEAKER ASM                   M IMCTM S0FR05 FTTL  07070IMCT  S0 PTB  00005                    0900 SR        000000000000 FUJITSU TEN (THAILAN180LUFU0015015                                                                                                                              *          20170401IMF1704017.TXT
MDDUH4200726201704                D89828070200PV4U20170417000030SPEAKER ASM                   M IMCTM S0FR05 FTTL  07070IMCT  S0 PTB  00005                    1300 SR        000000000000 FUJITSU TEN (THAILAN180LUEU0051051                                                                                                                              *          20170401IMF1704017.TXT
MDDUH4200727201704                D89828070200PV4U20170417000030SPEAKER ASM                   M IMCTM S0FR05 FTTL  07070IMCT  S0 PTB  00005                    1600 SR        000000000000 FUJITSU TEN (THAILAN180LUCU0037037                                                                                                                              *          20170401IMF1704017.TXT
MDDUH4200728201704                D89828070300PT4U20170405000030SPEAKER ASM                   M IMCTM S9TS02 FTTL  07070IMCT  S9 PTB  00015                    2100 SR        000000000000 FUJITSU TEN (THAILAN180LUDU0090090                                                                                                                              *          20170401IMF1704017.TXT
MDDUH4200729201704                D89828070300PT4U20170405000030SPEAKER ASM                   M IMCTM S9TS02 FTTL  07070IMCT  S9 PTB  00015                    2230 SR        000000000000 FUJITSU TEN (THAILAN180LUEU0050050                                                                                                                              *          20170401IMF1704017.TXT
MDDUH4200730201704                D89828070300PT4U20170406000030SPEAKER ASM                   M IMCTM S9TS02 FTTL  07070IMCT  S9 PTB  00015                    0230 SR        000000000000 FUJITSU TEN (THAILAN180LUFU0014014                                                                                                                              *          20170401IMF1704017.TXT
MDDUH4200731201704                D89828070300PT4U20170406000030SPEAKER ASM                   M IMCTM S9TS02 FTTL  07070IMCT  S9 PTB  00015                    0400 SR        000000000000 FUJITSU TEN (THAILAN180LUAU0006006                                                                                                                              *          20170401IMF1704017.TXT
MDDUH4200732201704                D89828070300PT4U20170417000030SPEAKER ASM                   M IMCTM S9TS02 FTTL  07070IMCT  S9 PTB  00015                    0900 SR        000000000000 FUJITSU TEN (THAILAN180LUFU0015015                                                                                                                              *          20170401IMF1704017.TXT
MDDUH4200733201704                D89828070300PT4U20170417000030SPEAKER ASM                   M IMCTM S9TS02 FTTL  07070IMCT  S9 PTB  00015                    1300 SR        000000000000 FUJITSU TEN (THAILAN180LUEU0051051                                                                                                                              *          20170401IMF1704017.TXT
MDDUH4200734201704                D89828070300PT4U20170417000030SPEAKER ASM                   M IMCTM S9TS02 FTTL  07070IMCT  S9 PTB  00015                    1600 SR        000000000000 FUJITSU TEN (THAILAN180LUCU0037037                                                                                                                              *          20170401IMF1704017.TXT
MDDUH4200735201704                D89831228400PT4U20170406000015RADIO;AM/FM,CD                M IMCTM S9CO001FTTL  07070IMCT  S9 CPB  00003                    0400 SR        000000000000 FUJITSU TEN (THAILAN180LUAU0006006                                                                                                                              *          20170401IMF1704017.TXT
MDDUH4200736201704                D89835097900PT4U20170417000015RADIO;ASM DVD                 M IMCTM S9CO001FTTL  07070IMCT  S9 PTB  00003                    1600 SR        000000000000 FUJITSU TEN (THAILAN180LUCU0037037                                                                                                                              *          20170401IMF1704017.TXT
MDEDH4200988201704                D89827952200PT1D20170406000015RADIO;AM/FM,CD,D              M IMCTM S5NC06 FTTL  07070IMCT  S5 X    00003                    0400 SR        000000000000 FUJITSU TEN (THAILAN17056NL0019019                                                                                                                              *          20170401IMF1704017.TXT
MDEDH4200989201704                D89828070100PV1D20170406000060SPEAKER ASM                   M IMCTM S5MB11 FTTL  07070IMCT  S5 PTB  00003                    0230 SR        000000000000 FUJITSU TEN (THAILAN17041PL0021022                                                                                                                              *          20170401IMF1704017.TXT
MDEDH4200990201704                D89828070100PV1D20170406000060SPEAKER ASM                   M IMCTM S5MB11 FTTL  07070IMCT  S5 PTB  00003                    0400 SR        000000000000 FUJITSU TEN (THAILAN17041PL002302317056NL0019019                                                                                                                *          20170401IMF1704017.TXT
MDEDH4200991201704                D89828070100PV1D20170417000060SPEAKER ASM                   M IMCTM S5MB11 FTTL  07070IMCT  S5 PTB  00003                    0900 SR        000000000000 FUJITSU TEN (THAILAN17052SL000200217076ML0015015                                                                                                                *          20170401IMF1704017.TXT
MDEDH4200992201704                D89828070100PV1D20170417000060SPEAKER ASM                   M IMCTM S5MB11 FTTL  07070IMCT  S5 PTB  00003                    1300 SR        000000000000 FUJITSU TEN (THAILAN17080NL0055056                                                                                                                              *          20170401IMF1704017.TXT
MDEDH4200993201704                D89828070200PV1D20170417000060SPEAKER ASM                   M IMCTM S5MA14 FTTL  07070IMCT  S5 PTB  00005                    1300 SR        000000000000 FUJITSU TEN (THAILAN17080NL0055056                                                                                                                              *          20170401IMF1704017.TXT
MDEDH4200994201704                D89828070300PT1D20170406000030SPEAKER ASM                   M IMCTM S5NB082FTTL  07070IMCT  S5 PTB  00015                    0400 SR        000000000000 FUJITSU TEN (THAILAN17056NL0019019                                                                                                                              *          20170401IMF1704017.TXT
MDEDH4200995201704                D89828070300PT1D20170417000030SPEAKER ASM                   M IMCTM S5NB082FTTL  07070IMCT  S5 PTB  00015                    0900 SR        000000000000 FUJITSU TEN (THAILAN17052SL0002002                                                                                                                              *          20170401IMF1704017.TXT
MDEDH4200996201704                D89828070300PT1D20170417000060SPEAKER ASM                   M IMCTM S5NB082FTTL  07070IMCT  S5 PTB  00015                    1300 SR        000000000000 FUJITSU TEN (THAILAN17080NL0055056                                                                                                                              *          20170401IMF1704017.TXT
MDEUH4200380201704                D89828070100PT4U20170406000030SPEAKER ASM                   M IMCTM S0FL05 FTTL  07070IMCT  S0 PTB  00003                    0230 SR        000000000000 FUJITSU TEN (THAILAN18083SU0001001                                                                                                                              *          20170401IMF1704017.TXT
MDEUH4200381201704                D89828070100PT4U20170417000030SPEAKER ASM                   M IMCTM S0FL05 FTTL  07070IMCT  S0 PTB  00003                    1300 SR        000000000000 FUJITSU TEN (THAILAN18023TU0024024                                                                                                                              *          20170401IMF1704017.TXT
MDEUH4200382201704                D89828070200PV4U20170406000030SPEAKER ASM                   M IMCTM S0FR05 FTTL  07070IMCT  S0 PTB  00005                    0230 SR        000000000000 FUJITSU TEN (THAILAN18083SU0001001                                                                                                                              *          20170401IMF1704017.TXT
MDEUH4200383201704                D89828070200PV4U20170417000030SPEAKER ASM                   M IMCTM S0FR05 FTTL  07070IMCT  S0 PTB  00005                    1300 SR        000000000000 FUJITSU TEN (THAILAN18023TU0024024                                                                                                                              *          20170401IMF1704017.TXT
MDEUH4200384201704                D89828070300PT4U20170406000030SPEAKER ASM                   M IMCTM S9TS02 FTTL  07070IMCT  S9 PTB  00015                    0230 SR        000000000000 FUJITSU TEN (THAILAN18083SU0001001                                                                                                                              *          20170401IMF1704017.TXT
MDEUH4200385201704                D89828070300PT4U20170417000030SPEAKER ASM                   M IMCTM S9TS02 FTTL  07070IMCT  S9 PTB  00015                    1300 SR        000000000000 FUJITSU TEN (THAILAN18023TU0024024                                                                                                                              *          20170401IMF1704017.TXT
