REC2017042720170427ISUZU                              73     
MDDDH4256434201705                D89821984430PT1D20170503000030RADIO;AM/FM,CD                M IMCTM S5NC06 FTTL  07070IMCT  S5 PTB  00005                    0900 SR        000000000000 FUJITSU TEN (THAILAN170KPAL0095095                                                                                                                              *          20170427IMF1704274.TXT
MDDDH4256435201705                D89821984430PT1D20170503000030RADIO;AM/FM,CD                M IMCTM S5NC06 FTTL  07070IMCT  S5 PTB  00005                    1300 SR        000000000000 FUJITSU TEN (THAILAN170KNDL0096096                                                                                                                              *          20170427IMF1704274.TXT
MDDDH4256436201705                D89821984430PT1D20170503000030RADIO;AM/FM,CD                M IMCTM S5NC06 FTTL  07070IMCT  S5 PTB  00005                    1600 SR        000000000000 FUJITSU TEN (THAILAN170KRAL0050050                                                                                                                              *          20170427IMF1704274.TXT
MDDDH4256437201705                D89828070100PV1D20170502000060SPEAKER ASM                   M IMCTM S5MB11 FTTL  07070IMCT  S5 PTB  00003                    2230 SR        000000000000 FUJITSU TEN (THAILAN170KPPL0011011                                                                                                                              *          20170427IMF1704274.TXT
MDDDH4256438201705                D89828070100PV1D20170503000060SPEAKER ASM                   M IMCTM S5MB11 FTTL  07070IMCT  S5 PTB  00003                    0900 SR        000000000000 FUJITSU TEN (THAILAN170KPAL0095095                                                                                                                              *          20170427IMF1704274.TXT
MDDDH4256439201705                D89828070100PV1D20170503000060SPEAKER ASM                   M IMCTM S5MB11 FTTL  07070IMCT  S5 PTB  00003                    1300 SR        000000000000 FUJITSU TEN (THAILAN170KNDL0096096                                                                                                                              *          20170427IMF1704274.TXT
MDDDH4256440201705                D89828070100PV1D20170503000060SPEAKER ASM                   M IMCTM S5MB11 FTTL  07070IMCT  S5 PTB  00003                    1600 SR        000000000000 FUJITSU TEN (THAILAN170KRAL0050050                                                                                                                              *          20170427IMF1704274.TXT
MDDDH4256441201705                D89828070300PT1D20170502000060SPEAKER ASM                   M IMCTM S5NB082FTTL  07070IMCT  S5 PTB  00015                    2230 SR        000000000000 FUJITSU TEN (THAILAN170KPPL0011011                                                                                                                              *          20170427IMF1704274.TXT
MDDDH4256442201705                D89831228300PT1D20170502000030RADIO;AM/FM,CD                M IMCTM S5NC06 FTTL  07070IMCT  S5 CPB  00003                    2230 SR        000000000000 FUJITSU TEN (THAILAN170KPPL0011011                                                                                                                              *          20170427IMF1704274.TXT
MDDUH4245826201705                D89828070100PT4U20170502000030SPEAKER ASM                   M IMCTM S0FL05 FTTL  07070IMCT  S0 PTB  00003                    2230 SR        000000000000 FUJITSU TEN (THAILAN180LUDU0119119                                                                                                                              *          20170427IMF1704274.TXT
MDDUH4245827201705                D89828070100PT4U20170503000030SPEAKER ASM                   M IMCTM S0FL05 FTTL  07070IMCT  S0 PTB  00003                    0900 SR        000000000000 FUJITSU TEN (THAILAN180LUEU0071071                                                                                                                              *          20170427IMF1704274.TXT
MDDUH4245828201705                D89828070100PT4U20170503000030SPEAKER ASM                   M IMCTM S0FL05 FTTL  07070IMCT  S0 PTB  00003                    1600 SR        000000000000 FUJITSU TEN (THAILAN180LUEU0072072                                                                                                                              *          20170427IMF1704274.TXT
MDDUH4245829201705                D89828070200PV4U20170502000030SPEAKER ASM                   M IMCTM S0FR05 FTTL  07070IMCT  S0 PTB  00005                    2230 SR        000000000000 FUJITSU TEN (THAILAN180LUDU0119119                                                                                                                              *          20170427IMF1704274.TXT
MDDUH4245830201705                D89828070200PV4U20170503000030SPEAKER ASM                   M IMCTM S0FR05 FTTL  07070IMCT  S0 PTB  00005                    0900 SR        000000000000 FUJITSU TEN (THAILAN180LUEU0071071                                                                                                                              *          20170427IMF1704274.TXT
MDDUH4245831201705                D89828070200PV4U20170503000030SPEAKER ASM                   M IMCTM S0FR05 FTTL  07070IMCT  S0 PTB  00005                    1600 SR        000000000000 FUJITSU TEN (THAILAN180LUEU0072072                                                                                                                              *          20170427IMF1704274.TXT
MDDUH4245832201705                D89828070300PT4U20170502000030SPEAKER ASM                   M IMCTM S9TS02 FTTL  07070IMCT  S9 PTB  00015                    2230 SR        000000000000 FUJITSU TEN (THAILAN180LUDU0119119                                                                                                                              *          20170427IMF1704274.TXT
MDDUH4245833201705                D89828070300PT4U20170503000030SPEAKER ASM                   M IMCTM S9TS02 FTTL  07070IMCT  S9 PTB  00015                    0900 SR        000000000000 FUJITSU TEN (THAILAN180LUEU0071071                                                                                                                              *          20170427IMF1704274.TXT
MDDUH4245834201705                D89828070300PT4U20170503000030SPEAKER ASM                   M IMCTM S9TS02 FTTL  07070IMCT  S9 PTB  00015                    1600 SR        000000000000 FUJITSU TEN (THAILAN180LUEU0072072                                                                                                                              *          20170427IMF1704274.TXT
MDEDH4282456201705                D89805293700PV1D20170502000030SPEAKER ASM                   M IMCTM S5MB11 FTTL  07070IMCT  S5 PTB  00003                    2230 SR        000000000000 FUJITSU TEN (THAILAN15019FL0190190                                                                                                                              *          20170427IMF1704274.TXT
MDEDH4282457201705                D89805293700PV1D20170503000030SPEAKER ASM                   M IMCTM S5MB11 FTTL  07070IMCT  S5 PTB  00003                    0230 SR        000000000000 FUJITSU TEN (THAILAN15018FL0113113                                                                                                                              *          20170427IMF1704274.TXT
MDEDH4282458201705                D89805293700PV1D20170503000030SPEAKER ASM                   M IMCTM S5MB11 FTTL  07070IMCT  S5 PTB  00003                    0400 SR        000000000000 FUJITSU TEN (THAILAN15018FL0114114                                                                                                                              *          20170427IMF1704274.TXT
MDEDH4282459201705                D89805293700PV1D20170503000060SPEAKER ASM                   M IMCTM S5MB11 FTTL  07070IMCT  S5 PTB  00003                    1600 SR        000000000000 FUJITSU TEN (THAILAN15019FL0191192                                                                                                                              *          20170427IMF1704274.TXT
MDEDH4282460201705                D89805293700PV4D20170503000030SPEAKER ASM                   M IMCTM S0FR05 FTTL  07070IMCT  S0 PTB  00003                    0230 SR        000000000000 FUJITSU TEN (THAILAN15019FU0045045                                                                                                                              *          20170427IMF1704274.TXT
MDEDH4282461201705                D89805293700PV4D20170503000030SPEAKER ASM                   M IMCTM S0FR05 FTTL  07070IMCT  S0 PTB  00003                    0900 SR        000000000000 FUJITSU TEN (THAILAN15081DU0020020                                                                                                                              *          20170427IMF1704274.TXT
MDEDH4282462201705                D89805293700PV4D20170503000030SPEAKER ASM                   M IMCTM S0FR05 FTTL  07070IMCT  S0 PTB  00003                    2100 SR        000000000000 FUJITSU TEN (THAILAN15019FU0046046                                                                                                                              *          20170427IMF1704274.TXT
MDEDH4282463201705                D89805294000PT4D20170503000030SPEAKER ASM                   M IMCTM S9AFA25FTTL  07070IMCT  S9 PTB  00015                    0900 SR        000000000000 FUJITSU TEN (THAILAN15081DU0020020                                                                                                                              *          20170427IMF1704274.TXT
MDEDH4282464201705                D89805294200PT4D20170503000030SPEAKER ASM                   M IMCTM S9AFA25FTTL  07070IMCT  S9 PTB  00030                    0900 SR        000000000000 FUJITSU TEN (THAILAN15081DU0020020                                                                                                                              *          20170427IMF1704274.TXT
MDEDH4282465201705                D89806470400PT4D20170503000015SPEAKER ASM;RDO,              M IMCTM S0TL03 FTTL  07070IMCT  S0 PTB  00015                    0900 SR        000000000000 FUJITSU TEN (THAILAN15081DU0020020                                                                                                                              *          20170427IMF1704274.TXT
MDEDH4282466201705                D89828070100PV1D20170502000030SPEAKER ASM                   M IMCTM S5MB11 FTTL  07070IMCT  S5 PTB  00003                    2230 SR        000000000000 FUJITSU TEN (THAILAN17057NL0020020                                                                                                                              *          20170427IMF1704274.TXT
MDEDH4282467201705                D89828070100PV1D20170503000030SPEAKER ASM                   M IMCTM S5MB11 FTTL  07070IMCT  S5 PTB  00003                    0230 SR        000000000000 FUJITSU TEN (THAILAN17029ML0018018                                                                                                                              *          20170427IMF1704274.TXT
MDEDH4282468201705                D89828070100PV1D20170503000090SPEAKER ASM                   M IMCTM S5MB11 FTTL  07070IMCT  S5 PTB  00003                    0400 SR        000000000000 FUJITSU TEN (THAILAN16046KL002202217031ML001501517042PL0003003                                                                                                  *          20170427IMF1704274.TXT
MDEDH4282469201705                D89828070100PV1D20170503000060SPEAKER ASM                   M IMCTM S5MB11 FTTL  07070IMCT  S5 PTB  00003                    0900 SR        000000000000 FUJITSU TEN (THAILAN17055NL0027028                                                                                                                              *          20170427IMF1704274.TXT
MDEDH4282470201705                D89828070100PV1D20170503000060SPEAKER ASM                   M IMCTM S5MB11 FTTL  07070IMCT  S5 PTB  00003                    1300 SR        000000000000 FUJITSU TEN (THAILAN17072NL0024025                                                                                                                              *          20170427IMF1704274.TXT
MDEDH4282471201705                D89828070100PV1D20170503000090SPEAKER ASM                   M IMCTM S5MB11 FTTL  07070IMCT  S5 PTB  00003                    1600 SR        000000000000 FUJITSU TEN (THAILAN17055NL002902917061NL000200217082NL0004004                                                                                                  *          20170427IMF1704274.TXT
MDEDH4282472201705                D89828070100PV1D20170503000060SPEAKER ASM                   M IMCTM S5MB11 FTTL  07070IMCT  S5 PTB  00003                    2100 SR        000000000000 FUJITSU TEN (THAILAN17080NL0064065                                                                                                                              *          20170427IMF1704274.TXT
MDEDH4282473201705                D89828070100PV4D20170502000030SPEAKER ASM                   M IMCTM S0FL05 FTTL  07070IMCT  S0 PTB  00003                    2230 SR        000000000000 FUJITSU TEN (THAILAN17018MU0006006                                                                                                                              *          20170427IMF1704274.TXT
MDEDH4282474201705                D89828070100PV4D20170503000030SPEAKER ASM                   M IMCTM S0FL05 FTTL  07070IMCT  S0 PTB  00003                    1300 SR        000000000000 FUJITSU TEN (THAILAN17031MU0010010                                                                                                                              *          20170427IMF1704274.TXT
MDEDH4282475201705                D89828070100PV4D20170503000030SPEAKER ASM                   M IMCTM S0FL05 FTTL  07070IMCT  S0 PTB  00003                    1600 SR        000000000000 FUJITSU TEN (THAILAN17018MU0007007                                                                                                                              *          20170427IMF1704274.TXT
MDEDH4282476201705                D89828070200PV1D20170502000030SPEAKER ASM                   M IMCTM S5MA14 FTTL  07070IMCT  S5 PTB  00005                    2230 SR        000000000000 FUJITSU TEN (THAILAN17057NL0020020                                                                                                                              *          20170427IMF1704274.TXT
MDEDH4282477201705                D89828070200PV1D20170503000030SPEAKER ASM                   M IMCTM S5MA14 FTTL  07070IMCT  S5 PTB  00005                    0230 SR        000000000000 FUJITSU TEN (THAILAN17029ML0018018                                                                                                                              *          20170427IMF1704274.TXT
MDEDH4282478201705                D89828070200PV1D20170503000090SPEAKER ASM                   M IMCTM S5MA14 FTTL  07070IMCT  S5 PTB  00005                    0400 SR        000000000000 FUJITSU TEN (THAILAN16046KL002202217031ML001501517042PL0003003                                                                                                  *          20170427IMF1704274.TXT
MDEDH4282479201705                D89828070200PV1D20170503000060SPEAKER ASM                   M IMCTM S5MA14 FTTL  07070IMCT  S5 PTB  00005                    1300 SR        000000000000 FUJITSU TEN (THAILAN17072NL0024025                                                                                                                              *          20170427IMF1704274.TXT
MDEDH4282480201705                D89828070200PV1D20170503000060SPEAKER ASM                   M IMCTM S5MA14 FTTL  07070IMCT  S5 PTB  00005                    1600 SR        000000000000 FUJITSU TEN (THAILAN17061NL000200217082NL0004004                                                                                                                *          20170427IMF1704274.TXT
MDEDH4282481201705                D89828070200PV1D20170503000060SPEAKER ASM                   M IMCTM S5MA14 FTTL  07070IMCT  S5 PTB  00005                    2100 SR        000000000000 FUJITSU TEN (THAILAN17080NL0064065                                                                                                                              *          20170427IMF1704274.TXT
MDEDH4282482201705                D89828070200PV4D20170502000030SPEAKER ASM                   M IMCTM S0FR05 FTTL  07070IMCT  S0 PTB  00005                    2230 SR        000000000000 FUJITSU TEN (THAILAN17018MU0006006                                                                                                                              *          20170427IMF1704274.TXT
MDEDH4282483201705                D89828070200PV4D20170503000030SPEAKER ASM                   M IMCTM S0FR05 FTTL  07070IMCT  S0 PTB  00005                    1300 SR        000000000000 FUJITSU TEN (THAILAN17031MU0010010                                                                                                                              *          20170427IMF1704274.TXT
MDEDH4282484201705                D89828070200PV4D20170503000030SPEAKER ASM                   M IMCTM S0FR05 FTTL  07070IMCT  S0 PTB  00005                    1600 SR        000000000000 FUJITSU TEN (THAILAN17018MU0007007                                                                                                                              *          20170427IMF1704274.TXT
MDEDH4282485201705                D89828070300PT1D20170502000030SPEAKER ASM                   M IMCTM S5NB082FTTL  07070IMCT  S5 PTB  00015                    2230 SR        000000000000 FUJITSU TEN (THAILAN17057NL0020020                                                                                                                              *          20170427IMF1704274.TXT
MDEDH4282486201705                D89828070300PT1D20170503000030SPEAKER ASM                   M IMCTM S5NB082FTTL  07070IMCT  S5 PTB  00015                    0230 SR        000000000000 FUJITSU TEN (THAILAN17029ML0018018                                                                                                                              *          20170427IMF1704274.TXT
MDEDH4282487201705                D89828070300PT1D20170503000090SPEAKER ASM                   M IMCTM S5NB082FTTL  07070IMCT  S5 PTB  00015                    0400 SR        000000000000 FUJITSU TEN (THAILAN16046KL002202217031ML001501517042PL0003003                                                                                                  *          20170427IMF1704274.TXT
MDEDH4282488201705                D89828070300PT1D20170503000060SPEAKER ASM                   M IMCTM S5NB082FTTL  07070IMCT  S5 PTB  00015                    0900 SR        000000000000 FUJITSU TEN (THAILAN17055NL0027028                                                                                                                              *          20170427IMF1704274.TXT
MDEDH4282489201705                D89828070300PT1D20170503000060SPEAKER ASM                   M IMCTM S5NB082FTTL  07070IMCT  S5 PTB  00015                    1300 SR        000000000000 FUJITSU TEN (THAILAN17072NL0024025                                                                                                                              *          20170427IMF1704274.TXT
MDEDH4282490201705                D89828070300PT1D20170503000090SPEAKER ASM                   M IMCTM S5NB082FTTL  07070IMCT  S5 PTB  00015                    1600 SR        000000000000 FUJITSU TEN (THAILAN17055NL002902917061NL000200217082NL0004004                                                                                                  *          20170427IMF1704274.TXT
MDEDH4282491201705                D89828070300PT1D20170503000060SPEAKER ASM                   M IMCTM S5NB082FTTL  07070IMCT  S5 PTB  00015                    2100 SR        000000000000 FUJITSU TEN (THAILAN17080NL0064065                                                                                                                              *          20170427IMF1704274.TXT
MDEDH4282492201705                D89828070300PT4D20170502000030SPEAKER ASM                   M IMCTM S9TS02 FTTL  07070IMCT  S9 PTB  00015                    2230 SR        000000000000 FUJITSU TEN (THAILAN17018MU0006006                                                                                                                              *          20170427IMF1704274.TXT
MDEDH4282493201705                D89828070300PT4D20170503000030SPEAKER ASM                   M IMCTM S9TS02 FTTL  07070IMCT  S9 PTB  00015                    1300 SR        000000000000 FUJITSU TEN (THAILAN17031MU0010010                                                                                                                              *          20170427IMF1704274.TXT
MDEDH4282494201705                D89828070300PT4D20170503000030SPEAKER ASM                   M IMCTM S9TS02 FTTL  07070IMCT  S9 PTB  00015                    1600 SR        000000000000 FUJITSU TEN (THAILAN17018MU0007007                                                                                                                              *          20170427IMF1704274.TXT
MDEDH4282495201705                D89829645310PT4D20170502000015RADIO;ASM DVD                 M IMCTM S9CO001FTTL  07070IMCT  S9*PTB  00003                    2230 SR        000000000000 FUJITSU TEN (THAILAN17018MU0006006                                                                                                                              *          20170427IMF1704274.TXT
MDEDH4282496201705                D89829645310PT4D20170503000015RADIO;ASM DVD                 M IMCTM S9CO001FTTL  07070IMCT  S9*PTB  00003                    1600 SR        000000000000 FUJITSU TEN (THAILAN17018MU0007007                                                                                                                              *          20170427IMF1704274.TXT
MDEDH4282497201705                D89829645710PT1D20170502000015RADIO;ASM DVD                 M IMCTM S5NC06 FTTL  07070IMCT  S5 X    00003                    2230 SR        000000000000 FUJITSU TEN (THAILAN17057NL0020020                                                                                                                              *          20170427IMF1704274.TXT
MDEDH4282498201705                D89829645710PT1D20170503000030RADIO;ASM DVD                 M IMCTM S5NC06 FTTL  07070IMCT  S5 X    00003                    0900 SR        000000000000 FUJITSU TEN (THAILAN17055NL0027028                                                                                                                              *          20170427IMF1704274.TXT
MDEDH4282499201705                D89829645710PT1D20170503000030RADIO;ASM DVD                 M IMCTM S5NC06 FTTL  07070IMCT  S5 X    00003                    1300 SR        000000000000 FUJITSU TEN (THAILAN17072NL0024025                                                                                                                              *          20170427IMF1704274.TXT
MDEDH4282500201705                D89829645710PT1D20170503000015RADIO;ASM DVD                 M IMCTM S5NC06 FTTL  07070IMCT  S5 X    00003                    1600 SR        000000000000 FUJITSU TEN (THAILAN17055NL0029029                                                                                                                              *          20170427IMF1704274.TXT
MDEDH4282501201705                D89831228400PT1D20170503000015RADIO;AM/FM,CD                M IMCTM S5NC06 FTTL  07070IMCT  S5 CPB  00003                    0400 SR        000000000000 FUJITSU TEN (THAILAN17042PL0003003                                                                                                                              *          20170427IMF1704274.TXT
MDEUH4249650201705                D89828070100PT4U20170503000030SPEAKER ASM                   M IMCTM S0FL05 FTTL  07070IMCT  S0 PTB  00003                    0400 SR        000000000000 FUJITSU TEN (THAILAN18023TU0058058                                                                                                                              *          20170427IMF1704274.TXT
MDEUH4249651201705                D89828070100PT4U20170503000030SPEAKER ASM                   M IMCTM S0FL05 FTTL  07070IMCT  S0 PTB  00003                    1300 SR        000000000000 FUJITSU TEN (THAILAN18024TU0009009                                                                                                                              *          20170427IMF1704274.TXT
MDEUH4249652201705                D89828070100PT4U20170503000030SPEAKER ASM                   M IMCTM S0FL05 FTTL  07070IMCT  S0 PTB  00003                    1600 SR        000000000000 FUJITSU TEN (THAILAN160B94U0028028                                                                                                                              *          20170427IMF1704274.TXT
MDEUH4249653201705                D89828070200PV4U20170503000030SPEAKER ASM                   M IMCTM S0FR05 FTTL  07070IMCT  S0 PTB  00005                    0400 SR        000000000000 FUJITSU TEN (THAILAN18023TU0058058                                                                                                                              *          20170427IMF1704274.TXT
MDEUH4249654201705                D89828070200PV4U20170503000030SPEAKER ASM                   M IMCTM S0FR05 FTTL  07070IMCT  S0 PTB  00005                    1300 SR        000000000000 FUJITSU TEN (THAILAN18024TU0009009                                                                                                                              *          20170427IMF1704274.TXT
MDEUH4249655201705                D89828070200PV4U20170503000030SPEAKER ASM                   M IMCTM S0FR05 FTTL  07070IMCT  S0 PTB  00005                    1600 SR        000000000000 FUJITSU TEN (THAILAN160B94U0028028                                                                                                                              *          20170427IMF1704274.TXT
MDEUH4249656201705                D89828070300PT4U20170503000030SPEAKER ASM                   M IMCTM S9TS02 FTTL  07070IMCT  S9 PTB  00015                    0400 SR        000000000000 FUJITSU TEN (THAILAN18023TU0058058                                                                                                                              *          20170427IMF1704274.TXT
MDEUH4249657201705                D89828070300PT4U20170503000030SPEAKER ASM                   M IMCTM S9TS02 FTTL  07070IMCT  S9 PTB  00015                    1300 SR        000000000000 FUJITSU TEN (THAILAN18024TU0009009                                                                                                                              *          20170427IMF1704274.TXT
MDEUH4249658201705                D89828070300PT4U20170503000030SPEAKER ASM                   M IMCTM S9TS02 FTTL  07070IMCT  S9 PTB  00015                    1600 SR        000000000000 FUJITSU TEN (THAILAN160B94U0028028                                                                                                                              *          20170427IMF1704274.TXT
