REC2017042620170427ISUZU                              68     
MDDDH4253492201705                D89821984430PT1D20170429000030RADIO;AM/FM,CD                M IMCTM S5NC06 FTTL  07070IMCT  S5 PTB  00005                    2230 SR        000000000000 FUJITSU TEN (THAILAN170KNDL0095095                                                                                                                              *          20170426IMF1704266.TXT
MDDDH4253493201705                D89821984430PT1D20170430000030RADIO;AM/FM,CD                M IMCTM S5NC06 FTTL  07070IMCT  S5 PTB  00005                    0230 SR        000000000000 FUJITSU TEN (THAILAN170KRAL0049049                                                                                                                              *          20170426IMF1704266.TXT
MDDDH4253494201705                D89821984430PT1D20170502000030RADIO;AM/FM,CD                M IMCTM S5NC06 FTTL  07070IMCT  S5 PTB  00005                    1300 SR        000000000000 FUJITSU TEN (THAILAN170KNCL0064064                                                                                                                              *          20170426IMF1704266.TXT
MDDDH4253495201705                D89828070100PV1D20170429000060SPEAKER ASM                   M IMCTM S5MB11 FTTL  07070IMCT  S5 PTB  00003                    2230 SR        000000000000 FUJITSU TEN (THAILAN170KNDL0095095                                                                                                                              *          20170426IMF1704266.TXT
MDDDH4253496201705                D89828070100PV1D20170430000060SPEAKER ASM                   M IMCTM S5MB11 FTTL  07070IMCT  S5 PTB  00003                    0230 SR        000000000000 FUJITSU TEN (THAILAN170KRAL0049049                                                                                                                              *          20170426IMF1704266.TXT
MDDDH4253497201705                D89828070100PV1D20170430000060SPEAKER ASM                   M IMCTM S5MB11 FTTL  07070IMCT  S5 PTB  00003                    0400 SR        000000000000 FUJITSU TEN (THAILAN170KPFL0148148                                                                                                                              *          20170426IMF1704266.TXT
MDDDH4253498201705                D89828070100PV1D20170502000060SPEAKER ASM                   M IMCTM S5MB11 FTTL  07070IMCT  S5 PTB  00003                    0900 SR        000000000000 FUJITSU TEN (THAILAN170KRSL0036036                                                                                                                              *          20170426IMF1704266.TXT
MDDDH4253499201705                D89828070100PV1D20170502000060SPEAKER ASM                   M IMCTM S5MB11 FTTL  07070IMCT  S5 PTB  00003                    1300 SR        000000000000 FUJITSU TEN (THAILAN170KNCL0064064                                                                                                                              *          20170426IMF1704266.TXT
MDDDH4253500201705                D89828070200PV1D20170502000060SPEAKER ASM                   M IMCTM S5MA14 FTTL  07070IMCT  S5 PTB  00005                    0900 SR        000000000000 FUJITSU TEN (THAILAN170KRSL0036036                                                                                                                              *          20170426IMF1704266.TXT
MDDDH4253501201705                D89828070300PT1D20170430000060SPEAKER ASM                   M IMCTM S5NB082FTTL  07070IMCT  S5 PTB  00015                    0400 SR        000000000000 FUJITSU TEN (THAILAN170KPFL0148148                                                                                                                              *          20170426IMF1704266.TXT
MDDDH4253502201705                D89828070300PT1D20170502000060SPEAKER ASM                   M IMCTM S5NB082FTTL  07070IMCT  S5 PTB  00015                    0900 SR        000000000000 FUJITSU TEN (THAILAN170KRSL0036036                                                                                                                              *          20170426IMF1704266.TXT
MDDDH4253503201705                D89831228300PT1D20170430000030RADIO;AM/FM,CD                M IMCTM S5NC06 FTTL  07070IMCT  S5 CPB  00003                    0400 SR        000000000000 FUJITSU TEN (THAILAN170KPFL0148148                                                                                                                              *          20170426IMF1704266.TXT
MDDUH4243165201705                D89828070100PT4U20170429000030SPEAKER ASM                   M IMCTM S0FL05 FTTL  07070IMCT  S0 PTB  00003                    2230 SR        000000000000 FUJITSU TEN (THAILAN180LUDU0118118                                                                                                                              *          20170426IMF1704266.TXT
MDDUH4243166201705                D89828070100PT4U20170502000060SPEAKER ASM                   M IMCTM S0FL05 FTTL  07070IMCT  S0 PTB  00003                    1300 SR        000000000000 FUJITSU TEN (THAILAN180LUAU0010010180LUEU0069069                                                                                                                *          20170426IMF1704266.TXT
MDDUH4243167201705                D89828070100PT4U20170502000030SPEAKER ASM                   M IMCTM S0FL05 FTTL  07070IMCT  S0 PTB  00003                    1600 SR        000000000000 FUJITSU TEN (THAILAN180LUEU0070070                                                                                                                              *          20170426IMF1704266.TXT
MDDUH4243168201705                D89828070200PV4U20170429000030SPEAKER ASM                   M IMCTM S0FR05 FTTL  07070IMCT  S0 PTB  00005                    2230 SR        000000000000 FUJITSU TEN (THAILAN180LUDU0118118                                                                                                                              *          20170426IMF1704266.TXT
MDDUH4243169201705                D89828070200PV4U20170502000060SPEAKER ASM                   M IMCTM S0FR05 FTTL  07070IMCT  S0 PTB  00005                    1300 SR        000000000000 FUJITSU TEN (THAILAN180LUAU0010010180LUEU0069069                                                                                                                *          20170426IMF1704266.TXT
MDDUH4243170201705                D89828070200PV4U20170502000030SPEAKER ASM                   M IMCTM S0FR05 FTTL  07070IMCT  S0 PTB  00005                    1600 SR        000000000000 FUJITSU TEN (THAILAN180LUEU0070070                                                                                                                              *          20170426IMF1704266.TXT
MDDUH4243171201705                D89828070300PT4U20170429000030SPEAKER ASM                   M IMCTM S9TS02 FTTL  07070IMCT  S9 PTB  00015                    2230 SR        000000000000 FUJITSU TEN (THAILAN180LUDU0118118                                                                                                                              *          20170426IMF1704266.TXT
MDDUH4243172201705                D89828070300PT4U20170502000060SPEAKER ASM                   M IMCTM S9TS02 FTTL  07070IMCT  S9 PTB  00015                    1300 SR        000000000000 FUJITSU TEN (THAILAN180LUAU0010010180LUEU0069069                                                                                                                *          20170426IMF1704266.TXT
MDDUH4243173201705                D89828070300PT4U20170502000030SPEAKER ASM                   M IMCTM S9TS02 FTTL  07070IMCT  S9 PTB  00015                    1600 SR        000000000000 FUJITSU TEN (THAILAN180LUEU0070070                                                                                                                              *          20170426IMF1704266.TXT
MDDUH4243174201705                D89831228400PT4U20170502000015RADIO;AM/FM,CD                M IMCTM S9CO001FTTL  07070IMCT  S9 CPB  00003                    1300 SR        000000000000 FUJITSU TEN (THAILAN180LUAU0010010                                                                                                                              *          20170426IMF1704266.TXT
MDEDH4273108201705                D89805293700PV1D20170502000060SPEAKER ASM                   M IMCTM S5MB11 FTTL  07070IMCT  S5 PTB  00003                    1600 SR        000000000000 FUJITSU TEN (THAILAN15018FL011211215019FL0189189                                                                                                                *          20170426IMF1704266.TXT
MDEDH4273109201705                D89805293700PV1D20170502000030SPEAKER ASM                   M IMCTM S5MB11 FTTL  07070IMCT  S5 PTB  00003                    2100 SR        000000000000 FUJITSU TEN (THAILAN15029BL0010010                                                                                                                              *          20170426IMF1704266.TXT
MDEDH4273110201705                D89805293700PV4D20170430000030SPEAKER ASM                   M IMCTM S0FR05 FTTL  07070IMCT  S0 PTB  00003                    0230 SR        000000000000 FUJITSU TEN (THAILAN15081DU0019019                                                                                                                              *          20170426IMF1704266.TXT
MDEDH4273111201705                D89805294000PT1D20170502000030SPEAKER ASM                   M IMCTM S5NB082FTTL  07070IMCT  S5 PTB  00015                    2100 SR        000000000000 FUJITSU TEN (THAILAN15029BL0010010                                                                                                                              *          20170426IMF1704266.TXT
MDEDH4273112201705                D89805294000PT4D20170430000030SPEAKER ASM                   M IMCTM S9AFA25FTTL  07070IMCT  S9 PTB  00015                    0230 SR        000000000000 FUJITSU TEN (THAILAN15081DU0019019                                                                                                                              *          20170426IMF1704266.TXT
MDEDH4273113201705                D89805294100PV1D20170502000030SPEAKER ASM                   M IMCTM S5MA14 FTTL  07070IMCT  S5 PTB  00005                    2100 SR        000000000000 FUJITSU TEN (THAILAN15029BL0010010                                                                                                                              *          20170426IMF1704266.TXT
MDEDH4273114201705                D89805294200PT4D20170430000030SPEAKER ASM                   M IMCTM S9AFA25FTTL  07070IMCT  S9 PTB  00030                    0230 SR        000000000000 FUJITSU TEN (THAILAN15081DU0019019                                                                                                                              *          20170426IMF1704266.TXT
MDEDH4273115201705                D89806470400PT4D20170430000015SPEAKER ASM;RDO,              M IMCTM S0TL03 FTTL  07070IMCT  S0 PTB  00015                    0230 SR        000000000000 FUJITSU TEN (THAILAN15081DU0019019                                                                                                                              *          20170426IMF1704266.TXT
MDEDH4273116201705                D89827952210PT1D20170502000015RADIO;AM/FM,CD,D              M IMCTM S5NC06 FTTL  07070IMCT  S5 X    00003                    1600 SR        000000000000 FUJITSU TEN (THAILAN17056NL0023023                                                                                                                              *          20170426IMF1704266.TXT
MDEDH4273117201705                D89828070100PV1D20170429000060SPEAKER ASM                   M IMCTM S5MB11 FTTL  07070IMCT  S5 PTB  00003                    2230 SR        000000000000 FUJITSU TEN (THAILAN16046KL002102117072NL0023023                                                                                                                *          20170426IMF1704266.TXT
MDEDH4273118201705                D89828070100PV1D20170430000060SPEAKER ASM                   M IMCTM S5MB11 FTTL  07070IMCT  S5 PTB  00003                    0400 SR        000000000000 FUJITSU TEN (THAILAN17082NL0002003                                                                                                                              *          20170426IMF1704266.TXT
MDEDH4273119201705                D89828070100PV1D20170502000090SPEAKER ASM                   M IMCTM S5MB11 FTTL  07070IMCT  S5 PTB  00003                    0900 SR        000000000000 FUJITSU TEN (THAILAN16041KL000200217022ML0016017                                                                                                                *          20170426IMF1704266.TXT
MDEDH4273120201705                D89828070100PV1D20170502000030SPEAKER ASM                   M IMCTM S5MB11 FTTL  07070IMCT  S5 PTB  00003                    1300 SR        000000000000 FUJITSU TEN (THAILAN17080NL0063063                                                                                                                              *          20170426IMF1704266.TXT
MDEDH4273121201705                D89828070100PV1D20170502000120SPEAKER ASM                   M IMCTM S5MB11 FTTL  07070IMCT  S5 PTB  00003                    1600 SR        000000000000 FUJITSU TEN (THAILAN17008RL000300317022ML001801817052SL000300317056NL0023023                                                                                    *          20170426IMF1704266.TXT
MDEDH4273122201705                D89828070100PV1D20170502000030SPEAKER ASM                   M IMCTM S5MB11 FTTL  07070IMCT  S5 PTB  00003                    2100 SR        000000000000 FUJITSU TEN (THAILAN17022ML0019019                                                                                                                              *          20170426IMF1704266.TXT
MDEDH4273123201705                D89828070100PV4D20170502000030SPEAKER ASM                   M IMCTM S0FL05 FTTL  07070IMCT  S0 PTB  00003                    0900 SR        000000000000 FUJITSU TEN (THAILAN17031MU0009009                                                                                                                              *          20170426IMF1704266.TXT
MDEDH4273124201705                D89828070200PV1D20170429000060SPEAKER ASM                   M IMCTM S5MA14 FTTL  07070IMCT  S5 PTB  00005                    2230 SR        000000000000 FUJITSU TEN (THAILAN16046KL002102117072NL0023023                                                                                                                *          20170426IMF1704266.TXT
MDEDH4273125201705                D89828070200PV1D20170430000060SPEAKER ASM                   M IMCTM S5MA14 FTTL  07070IMCT  S5 PTB  00005                    0400 SR        000000000000 FUJITSU TEN (THAILAN17082NL0002003                                                                                                                              *          20170426IMF1704266.TXT
MDEDH4273126201705                D89828070200PV1D20170502000060SPEAKER ASM                   M IMCTM S5MA14 FTTL  07070IMCT  S5 PTB  00005                    0900 SR        000000000000 FUJITSU TEN (THAILAN17022ML0016017                                                                                                                              *          20170426IMF1704266.TXT
MDEDH4273127201705                D89828070200PV1D20170502000030SPEAKER ASM                   M IMCTM S5MA14 FTTL  07070IMCT  S5 PTB  00005                    1300 SR        000000000000 FUJITSU TEN (THAILAN17080NL0063063                                                                                                                              *          20170426IMF1704266.TXT
MDEDH4273128201705                D89828070200PV1D20170502000030SPEAKER ASM                   M IMCTM S5MA14 FTTL  07070IMCT  S5 PTB  00005                    1600 SR        000000000000 FUJITSU TEN (THAILAN17022ML0018018                                                                                                                              *          20170426IMF1704266.TXT
MDEDH4273129201705                D89828070200PV1D20170502000030SPEAKER ASM                   M IMCTM S5MA14 FTTL  07070IMCT  S5 PTB  00005                    2100 SR        000000000000 FUJITSU TEN (THAILAN17022ML0019019                                                                                                                              *          20170426IMF1704266.TXT
MDEDH4273130201705                D89828070200PV4D20170502000030SPEAKER ASM                   M IMCTM S0FR05 FTTL  07070IMCT  S0 PTB  00005                    0900 SR        000000000000 FUJITSU TEN (THAILAN17031MU0009009                                                                                                                              *          20170426IMF1704266.TXT
MDEDH4273131201705                D89828070300PT1D20170429000060SPEAKER ASM                   M IMCTM S5NB082FTTL  07070IMCT  S5 PTB  00015                    2230 SR        000000000000 FUJITSU TEN (THAILAN16046KL002102117072NL0023023                                                                                                                *          20170426IMF1704266.TXT
MDEDH4273132201705                D89828070300PT1D20170430000060SPEAKER ASM                   M IMCTM S5NB082FTTL  07070IMCT  S5 PTB  00015                    0400 SR        000000000000 FUJITSU TEN (THAILAN17082NL0002003                                                                                                                              *          20170426IMF1704266.TXT
MDEDH4273133201705                D89828070300PT1D20170502000060SPEAKER ASM                   M IMCTM S5NB082FTTL  07070IMCT  S5 PTB  00015                    0900 SR        000000000000 FUJITSU TEN (THAILAN17022ML0016017                                                                                                                              *          20170426IMF1704266.TXT
MDEDH4273134201705                D89828070300PT1D20170502000030SPEAKER ASM                   M IMCTM S5NB082FTTL  07070IMCT  S5 PTB  00015                    1300 SR        000000000000 FUJITSU TEN (THAILAN17080NL0063063                                                                                                                              *          20170426IMF1704266.TXT
MDEDH4273135201705                D89828070300PT1D20170502000090SPEAKER ASM                   M IMCTM S5NB082FTTL  07070IMCT  S5 PTB  00015                    1600 SR        000000000000 FUJITSU TEN (THAILAN17022ML001801817052SL000300317056NL0023023                                                                                                  *          20170426IMF1704266.TXT
MDEDH4273136201705                D89828070300PT1D20170502000030SPEAKER ASM                   M IMCTM S5NB082FTTL  07070IMCT  S5 PTB  00015                    2100 SR        000000000000 FUJITSU TEN (THAILAN17022ML0019019                                                                                                                              *          20170426IMF1704266.TXT
MDEDH4273137201705                D89828070300PT4D20170502000030SPEAKER ASM                   M IMCTM S9TS02 FTTL  07070IMCT  S9 PTB  00015                    0900 SR        000000000000 FUJITSU TEN (THAILAN17031MU0009009                                                                                                                              *          20170426IMF1704266.TXT
MDEDH4273138201705                D89829645710PT1D20170429000015RADIO;ASM DVD                 M IMCTM S5NC06 FTTL  07070IMCT  S5 X    00003                    2230 SR        000000000000 FUJITSU TEN (THAILAN17072NL0023023                                                                                                                              *          20170426IMF1704266.TXT
MDEUH4246048201705                D89828070100PT4U20170429000030SPEAKER ASM                   M IMCTM S0FL05 FTTL  07070IMCT  S0 PTB  00003                    2100 SR        000000000000 FUJITSU TEN (THAILAN18023TU0055055                                                                                                                              *          20170426IMF1704266.TXT
MDEUH4246049201705                D89828070100PT4U20170430000030SPEAKER ASM                   M IMCTM S0FL05 FTTL  07070IMCT  S0 PTB  00003                    0230 SR        000000000000 FUJITSU TEN (THAILAN160B95U0050050                                                                                                                              *          20170426IMF1704266.TXT
MDEUH4246050201705                D89828070100PT4U20170430000030SPEAKER ASM                   M IMCTM S0FL05 FTTL  07070IMCT  S0 PTB  00003                    0400 SR        000000000000 FUJITSU TEN (THAILAN18023TU0056056                                                                                                                              *          20170426IMF1704266.TXT
MDEUH4246051201705                D89828070100PT4U20170502000030SPEAKER ASM                   M IMCTM S0FL05 FTTL  07070IMCT  S0 PTB  00003                    0900 SR        000000000000 FUJITSU TEN (THAILAN18018TU0015015                                                                                                                              *          20170426IMF1704266.TXT
MDEUH4246052201705                D89828070100PT4U20170502000060SPEAKER ASM                   M IMCTM S0FL05 FTTL  07070IMCT  S0 PTB  00003                    1600 SR        000000000000 FUJITSU TEN (THAILAN160B94U002702718023TU0057057                                                                                                                *          20170426IMF1704266.TXT
MDEUH4246053201705                D89828070200PV4U20170429000030SPEAKER ASM                   M IMCTM S0FR05 FTTL  07070IMCT  S0 PTB  00005                    2100 SR        000000000000 FUJITSU TEN (THAILAN18023TU0055055                                                                                                                              *          20170426IMF1704266.TXT
MDEUH4246054201705                D89828070200PV4U20170430000030SPEAKER ASM                   M IMCTM S0FR05 FTTL  07070IMCT  S0 PTB  00005                    0230 SR        000000000000 FUJITSU TEN (THAILAN160B95U0050050                                                                                                                              *          20170426IMF1704266.TXT
MDEUH4246055201705                D89828070200PV4U20170430000030SPEAKER ASM                   M IMCTM S0FR05 FTTL  07070IMCT  S0 PTB  00005                    0400 SR        000000000000 FUJITSU TEN (THAILAN18023TU0056056                                                                                                                              *          20170426IMF1704266.TXT
MDEUH4246056201705                D89828070200PV4U20170502000030SPEAKER ASM                   M IMCTM S0FR05 FTTL  07070IMCT  S0 PTB  00005                    0900 SR        000000000000 FUJITSU TEN (THAILAN18018TU0015015                                                                                                                              *          20170426IMF1704266.TXT
MDEUH4246057201705                D89828070200PV4U20170502000060SPEAKER ASM                   M IMCTM S0FR05 FTTL  07070IMCT  S0 PTB  00005                    1600 SR        000000000000 FUJITSU TEN (THAILAN160B94U002702718023TU0057057                                                                                                                *          20170426IMF1704266.TXT
MDEUH4246058201705                D89828070300PT4U20170429000030SPEAKER ASM                   M IMCTM S9TS02 FTTL  07070IMCT  S9 PTB  00015                    2100 SR        000000000000 FUJITSU TEN (THAILAN18023TU0055055                                                                                                                              *          20170426IMF1704266.TXT
MDEUH4246059201705                D89828070300PT4U20170430000030SPEAKER ASM                   M IMCTM S9TS02 FTTL  07070IMCT  S9 PTB  00015                    0230 SR        000000000000 FUJITSU TEN (THAILAN160B95U0050050                                                                                                                              *          20170426IMF1704266.TXT
MDEUH4246060201705                D89828070300PT4U20170430000030SPEAKER ASM                   M IMCTM S9TS02 FTTL  07070IMCT  S9 PTB  00015                    0400 SR        000000000000 FUJITSU TEN (THAILAN18023TU0056056                                                                                                                              *          20170426IMF1704266.TXT
MDEUH4246061201705                D89828070300PT4U20170502000030SPEAKER ASM                   M IMCTM S9TS02 FTTL  07070IMCT  S9 PTB  00015                    0900 SR        000000000000 FUJITSU TEN (THAILAN18018TU0015015                                                                                                                              *          20170426IMF1704266.TXT
MDEUH4246062201705                D89828070300PT4U20170502000060SPEAKER ASM                   M IMCTM S9TS02 FTTL  07070IMCT  S9 PTB  00015                    1600 SR        000000000000 FUJITSU TEN (THAILAN160B94U002702718023TU0057057                                                                                                                *          20170426IMF1704266.TXT
