REC2017042820170428ISUZU                              69     
MDDDH4259556201705                D89821984430PT1D20170504000030RADIO;AM/FM,CD                M IMCTM S5NC06 FTTL  07070IMCT  S5 PTB  00005                    0900 SR        000000000000 FUJITSU TEN (THAILAN170KNFL0036036                                                                                                                              *          20170428IMF1704285.TXT
MDDDH4259557201705                D89821984430PT1D20170504000030RADIO;AM/FM,CD                M IMCTM S5NC06 FTTL  07070IMCT  S5 PTB  00005                    1300 SR        000000000000 FUJITSU TEN (THAILAN170KRAL0051051                                                                                                                              *          20170428IMF1704285.TXT
MDDDH4259558201705                D89821984430PT1D20170504000060RADIO;AM/FM,CD                M IMCTM S5NC06 FTTL  07070IMCT  S5 PTB  00005                    1600 SR        000000000000 FUJITSU TEN (THAILAN170KRAL0052053                                                                                                                              *          20170428IMF1704285.TXT
MDDDH4259559201705                D89821984430PT1D20170504000030RADIO;AM/FM,CD                M IMCTM S5NC06 FTTL  07070IMCT  S5 PTB  00005                    2100 SR        000000000000 FUJITSU TEN (THAILAN170KNDL0097097                                                                                                                              *          20170428IMF1704285.TXT
MDDDH4259560201705                D89828070100PV1D20170504000060SPEAKER ASM                   M IMCTM S5MB11 FTTL  07070IMCT  S5 PTB  00003                    0230 SR        000000000000 FUJITSU TEN (THAILAN170KRCL0028028                                                                                                                              *          20170428IMF1704285.TXT
MDDDH4259561201705                D89828070100PV1D20170504000060SPEAKER ASM                   M IMCTM S5MB11 FTTL  07070IMCT  S5 PTB  00003                    0900 SR        000000000000 FUJITSU TEN (THAILAN170KNFL0036036                                                                                                                              *          20170428IMF1704285.TXT
MDDDH4259562201705                D89828070100PV1D20170504000120SPEAKER ASM                   M IMCTM S5MB11 FTTL  07070IMCT  S5 PTB  00003                    1300 SR        000000000000 FUJITSU TEN (THAILAN170KPCL0055055170KRAL0051051                                                                                                                *          20170428IMF1704285.TXT
MDDDH4259563201705                D89828070100PV1D20170504000120SPEAKER ASM                   M IMCTM S5MB11 FTTL  07070IMCT  S5 PTB  00003                    1600 SR        000000000000 FUJITSU TEN (THAILAN170KRAL0052053                                                                                                                              *          20170428IMF1704285.TXT
MDDDH4259564201705                D89828070100PV1D20170504000060SPEAKER ASM                   M IMCTM S5MB11 FTTL  07070IMCT  S5 PTB  00003                    2100 SR        000000000000 FUJITSU TEN (THAILAN170KNDL0097097                                                                                                                              *          20170428IMF1704285.TXT
MDDDH4259565201705                D89828070200PV1D20170504000060SPEAKER ASM                   M IMCTM S5MA14 FTTL  07070IMCT  S5 PTB  00005                    0230 SR        000000000000 FUJITSU TEN (THAILAN170KRCL0028028                                                                                                                              *          20170428IMF1704285.TXT
MDDDH4259566201705                D89828070300PT1D20170504000060SPEAKER ASM                   M IMCTM S5NB082FTTL  07070IMCT  S5 PTB  00015                    0230 SR        000000000000 FUJITSU TEN (THAILAN170KRCL0028028                                                                                                                              *          20170428IMF1704285.TXT
MDDDH4259567201705                D89828070300PT1D20170504000060SPEAKER ASM                   M IMCTM S5NB082FTTL  07070IMCT  S5 PTB  00015                    1300 SR        000000000000 FUJITSU TEN (THAILAN170KPCL0055055                                                                                                                              *          20170428IMF1704285.TXT
MDDDH4259568201705                D89831228300PT1D20170504000030RADIO;AM/FM,CD                M IMCTM S5NC06 FTTL  07070IMCT  S5 CPB  00003                    1300 SR        000000000000 FUJITSU TEN (THAILAN170KPCL0055055                                                                                                                              *          20170428IMF1704285.TXT
MDDDH4259569201705                D89831228400PT1D20170504000030RADIO;AM/FM,CD                M IMCTM S5NC06 FTTL  07070IMCT  S5 CPB  00003                    0230 SR        000000000000 FUJITSU TEN (THAILAN170KRCL0028028                                                                                                                              *          20170428IMF1704285.TXT
MDDUH4248667201705                D89828070100PT4U20170504000030SPEAKER ASM                   M IMCTM S0FL05 FTTL  07070IMCT  S0 PTB  00003                    0230 SR        000000000000 FUJITSU TEN (THAILAN180LUDU0120120                                                                                                                              *          20170428IMF1704285.TXT
MDDUH4248668201705                D89828070100PT4U20170504000060SPEAKER ASM                   M IMCTM S0FL05 FTTL  07070IMCT  S0 PTB  00003                    0900 SR        000000000000 FUJITSU TEN (THAILAN180LUDU0121121180LUEU0073073                                                                                                                *          20170428IMF1704285.TXT
MDDUH4248669201705                D89828070100PT4U20170504000030SPEAKER ASM                   M IMCTM S0FL05 FTTL  07070IMCT  S0 PTB  00003                    1300 SR        000000000000 FUJITSU TEN (THAILAN180LUEU0074074                                                                                                                              *          20170428IMF1704285.TXT
MDDUH4248670201705                D89828070100PT4U20170504000060SPEAKER ASM                   M IMCTM S0FL05 FTTL  07070IMCT  S0 PTB  00003                    1600 SR        000000000000 FUJITSU TEN (THAILAN180LUDU0122122180LUFU0019019                                                                                                                *          20170428IMF1704285.TXT
MDDUH4248671201705                D89828070200PV4U20170504000030SPEAKER ASM                   M IMCTM S0FR05 FTTL  07070IMCT  S0 PTB  00005                    0230 SR        000000000000 FUJITSU TEN (THAILAN180LUDU0120120                                                                                                                              *          20170428IMF1704285.TXT
MDDUH4248672201705                D89828070200PV4U20170504000060SPEAKER ASM                   M IMCTM S0FR05 FTTL  07070IMCT  S0 PTB  00005                    0900 SR        000000000000 FUJITSU TEN (THAILAN180LUDU0121121180LUEU0073073                                                                                                                *          20170428IMF1704285.TXT
MDDUH4248673201705                D89828070200PV4U20170504000030SPEAKER ASM                   M IMCTM S0FR05 FTTL  07070IMCT  S0 PTB  00005                    1300 SR        000000000000 FUJITSU TEN (THAILAN180LUEU0074074                                                                                                                              *          20170428IMF1704285.TXT
MDDUH4248674201705                D89828070200PV4U20170504000060SPEAKER ASM                   M IMCTM S0FR05 FTTL  07070IMCT  S0 PTB  00005                    1600 SR        000000000000 FUJITSU TEN (THAILAN180LUDU0122122180LUFU0019019                                                                                                                *          20170428IMF1704285.TXT
MDDUH4248675201705                D89828070300PT4U20170504000030SPEAKER ASM                   M IMCTM S9TS02 FTTL  07070IMCT  S9 PTB  00015                    0230 SR        000000000000 FUJITSU TEN (THAILAN180LUDU0120120                                                                                                                              *          20170428IMF1704285.TXT
MDDUH4248676201705                D89828070300PT4U20170504000060SPEAKER ASM                   M IMCTM S9TS02 FTTL  07070IMCT  S9 PTB  00015                    0900 SR        000000000000 FUJITSU TEN (THAILAN180LUDU0121121180LUEU0073073                                                                                                                *          20170428IMF1704285.TXT
MDDUH4248677201705                D89828070300PT4U20170504000030SPEAKER ASM                   M IMCTM S9TS02 FTTL  07070IMCT  S9 PTB  00015                    1300 SR        000000000000 FUJITSU TEN (THAILAN180LUEU0074074                                                                                                                              *          20170428IMF1704285.TXT
MDDUH4248678201705                D89828070300PT4U20170504000060SPEAKER ASM                   M IMCTM S9TS02 FTTL  07070IMCT  S9 PTB  00015                    1600 SR        000000000000 FUJITSU TEN (THAILAN180LUDU0122122180LUFU0019019                                                                                                                *          20170428IMF1704285.TXT
MDEDH4292400201705                D89805293700PV1D20170504000030SPEAKER ASM                   M IMCTM S5MB11 FTTL  07070IMCT  S5 PTB  00003                    0400 SR        000000000000 FUJITSU TEN (THAILAN15018FL0115115                                                                                                                              *          20170428IMF1704285.TXT
MDEDH4292401201705                D89827952210PT1D20170504000015RADIO;AM/FM,CD,D              M IMCTM S5NC06 FTTL  07070IMCT  S5 X    00003                    0400 SR        000000000000 FUJITSU TEN (THAILAN17056NL0024024                                                                                                                              *          20170428IMF1704285.TXT
MDEDH4292402201705                D89827952210PT1D20170504000015RADIO;AM/FM,CD,D              M IMCTM S5NC06 FTTL  07070IMCT  S5 X    00003                    0900 SR        000000000000 FUJITSU TEN (THAILAN17056NL0025025                                                                                                                              *          20170428IMF1704285.TXT
MDEDH4292403201705                D89828070100PV1D20170503000090SPEAKER ASM                   M IMCTM S5MB11 FTTL  07070IMCT  S5 PTB  00003                    2230 SR        000000000000 FUJITSU TEN (THAILAN17022ML002002017053NL002802817055NL0030030                                                                                                  *          20170428IMF1704285.TXT
MDEDH4292404201705                D89828070100PV1D20170504000030SPEAKER ASM                   M IMCTM S5MB11 FTTL  07070IMCT  S5 PTB  00003                    0230 SR        000000000000 FUJITSU TEN (THAILAN17031ML0016016                                                                                                                              *          20170428IMF1704285.TXT
MDEDH4292405201705                D89828070100PV1D20170504000090SPEAKER ASM                   M IMCTM S5MB11 FTTL  07070IMCT  S5 PTB  00003                    0400 SR        000000000000 FUJITSU TEN (THAILAN17006ML000600617056NL002402417079NL0053053                                                                                                  *          20170428IMF1704285.TXT
MDEDH4292406201705                D89828070100PV1D20170504000060SPEAKER ASM                   M IMCTM S5MB11 FTTL  07070IMCT  S5 PTB  00003                    0900 SR        000000000000 FUJITSU TEN (THAILAN17056NL002502517079NL0054054                                                                                                                *          20170428IMF1704285.TXT
MDEDH4292407201705                D89828070100PV1D20170504000030SPEAKER ASM                   M IMCTM S5MB11 FTTL  07070IMCT  S5 PTB  00003                    1300 SR        000000000000 FUJITSU TEN (THAILAN17031ML0017017                                                                                                                              *          20170428IMF1704285.TXT
MDEDH4292408201705                D89828070100PV1D20170504000030SPEAKER ASM                   M IMCTM S5MB11 FTTL  07070IMCT  S5 PTB  00003                    1600 SR        000000000000 FUJITSU TEN (THAILAN16046KL0023023                                                                                                                              *          20170428IMF1704285.TXT
MDEDH4292409201705                D89828070100PV1D20170504000030SPEAKER ASM                   M IMCTM S5MB11 FTTL  07070IMCT  S5 PTB  00003                    2100 SR        000000000000 FUJITSU TEN (THAILAN16046KL0024024                                                                                                                              *          20170428IMF1704285.TXT
MDEDH4292410201705                D89828070100PV4D20170504000030SPEAKER ASM                   M IMCTM S0FL05 FTTL  07070IMCT  S0 PTB  00003                    0400 SR        000000000000 FUJITSU TEN (THAILAN16055KU0001001                                                                                                                              *          20170428IMF1704285.TXT
MDEDH4292411201705                D89828070100PV4D20170504000030SPEAKER ASM                   M IMCTM S0FL05 FTTL  07070IMCT  S0 PTB  00003                    1300 SR        000000000000 FUJITSU TEN (THAILAN17031MU0011011                                                                                                                              *          20170428IMF1704285.TXT
MDEDH4292412201705                D89828070200PV1D20170503000030SPEAKER ASM                   M IMCTM S5MA14 FTTL  07070IMCT  S5 PTB  00005                    2230 SR        000000000000 FUJITSU TEN (THAILAN17022ML0020020                                                                                                                              *          20170428IMF1704285.TXT
MDEDH4292413201705                D89828070200PV1D20170504000030SPEAKER ASM                   M IMCTM S5MA14 FTTL  07070IMCT  S5 PTB  00005                    0230 SR        000000000000 FUJITSU TEN (THAILAN17031ML0016016                                                                                                                              *          20170428IMF1704285.TXT
MDEDH4292414201705                D89828070200PV1D20170504000030SPEAKER ASM                   M IMCTM S5MA14 FTTL  07070IMCT  S5 PTB  00005                    0400 SR        000000000000 FUJITSU TEN (THAILAN17079NL0053053                                                                                                                              *          20170428IMF1704285.TXT
MDEDH4292415201705                D89828070200PV1D20170504000030SPEAKER ASM                   M IMCTM S5MA14 FTTL  07070IMCT  S5 PTB  00005                    0900 SR        000000000000 FUJITSU TEN (THAILAN17079NL0054054                                                                                                                              *          20170428IMF1704285.TXT
MDEDH4292416201705                D89828070200PV1D20170504000030SPEAKER ASM                   M IMCTM S5MA14 FTTL  07070IMCT  S5 PTB  00005                    1300 SR        000000000000 FUJITSU TEN (THAILAN17031ML0017017                                                                                                                              *          20170428IMF1704285.TXT
MDEDH4292417201705                D89828070200PV1D20170504000030SPEAKER ASM                   M IMCTM S5MA14 FTTL  07070IMCT  S5 PTB  00005                    1600 SR        000000000000 FUJITSU TEN (THAILAN16046KL0023023                                                                                                                              *          20170428IMF1704285.TXT
MDEDH4292418201705                D89828070200PV1D20170504000030SPEAKER ASM                   M IMCTM S5MA14 FTTL  07070IMCT  S5 PTB  00005                    2100 SR        000000000000 FUJITSU TEN (THAILAN16046KL0024024                                                                                                                              *          20170428IMF1704285.TXT
MDEDH4292419201705                D89828070200PV4D20170504000030SPEAKER ASM                   M IMCTM S0FR05 FTTL  07070IMCT  S0 PTB  00005                    0400 SR        000000000000 FUJITSU TEN (THAILAN16055KU0001001                                                                                                                              *          20170428IMF1704285.TXT
MDEDH4292420201705                D89828070200PV4D20170504000030SPEAKER ASM                   M IMCTM S0FR05 FTTL  07070IMCT  S0 PTB  00005                    1300 SR        000000000000 FUJITSU TEN (THAILAN17031MU0011011                                                                                                                              *          20170428IMF1704285.TXT
MDEDH4292421201705                D89828070300PT1D20170503000090SPEAKER ASM                   M IMCTM S5NB082FTTL  07070IMCT  S5 PTB  00015                    2230 SR        000000000000 FUJITSU TEN (THAILAN17022ML002002017053NL002802817055NL0030030                                                                                                  *          20170428IMF1704285.TXT
MDEDH4292422201705                D89828070300PT1D20170504000030SPEAKER ASM                   M IMCTM S5NB082FTTL  07070IMCT  S5 PTB  00015                    0230 SR        000000000000 FUJITSU TEN (THAILAN17031ML0016016                                                                                                                              *          20170428IMF1704285.TXT
MDEDH4292423201705                D89828070300PT1D20170504000060SPEAKER ASM                   M IMCTM S5NB082FTTL  07070IMCT  S5 PTB  00015                    0400 SR        000000000000 FUJITSU TEN (THAILAN17056NL002402417079NL0053053                                                                                                                *          20170428IMF1704285.TXT
MDEDH4292424201705                D89828070300PT1D20170504000060SPEAKER ASM                   M IMCTM S5NB082FTTL  07070IMCT  S5 PTB  00015                    0900 SR        000000000000 FUJITSU TEN (THAILAN17056NL002502517079NL0054054                                                                                                                *          20170428IMF1704285.TXT
MDEDH4292425201705                D89828070300PT1D20170504000030SPEAKER ASM                   M IMCTM S5NB082FTTL  07070IMCT  S5 PTB  00015                    1300 SR        000000000000 FUJITSU TEN (THAILAN17031ML0017017                                                                                                                              *          20170428IMF1704285.TXT
MDEDH4292426201705                D89828070300PT1D20170504000030SPEAKER ASM                   M IMCTM S5NB082FTTL  07070IMCT  S5 PTB  00015                    1600 SR        000000000000 FUJITSU TEN (THAILAN16046KL0023023                                                                                                                              *          20170428IMF1704285.TXT
MDEDH4292427201705                D89828070300PT1D20170504000030SPEAKER ASM                   M IMCTM S5NB082FTTL  07070IMCT  S5 PTB  00015                    2100 SR        000000000000 FUJITSU TEN (THAILAN16046KL0024024                                                                                                                              *          20170428IMF1704285.TXT
MDEDH4292428201705                D89828070300PT4D20170504000030SPEAKER ASM                   M IMCTM S9TS02 FTTL  07070IMCT  S9 PTB  00015                    0400 SR        000000000000 FUJITSU TEN (THAILAN16055KU0001001                                                                                                                              *          20170428IMF1704285.TXT
MDEDH4292429201705                D89828070300PT4D20170504000030SPEAKER ASM                   M IMCTM S9TS02 FTTL  07070IMCT  S9 PTB  00015                    1300 SR        000000000000 FUJITSU TEN (THAILAN17031MU0011011                                                                                                                              *          20170428IMF1704285.TXT
MDEDH4292430201705                D89829645710PT1D20170503000030RADIO;ASM DVD                 M IMCTM S5NC06 FTTL  07070IMCT  S5 X    00003                    2230 SR        000000000000 FUJITSU TEN (THAILAN17053NL002802817055NL0030030                                                                                                                *          20170428IMF1704285.TXT
MDEDH4292431201705                D89829645710PT1D20170504000015RADIO;ASM DVD                 M IMCTM S5NC06 FTTL  07070IMCT  S5 X    00003                    0400 SR        000000000000 FUJITSU TEN (THAILAN17079NL0053053                                                                                                                              *          20170428IMF1704285.TXT
MDEDH4292432201705                D89829645710PT1D20170504000015RADIO;ASM DVD                 M IMCTM S5NC06 FTTL  07070IMCT  S5 X    00003                    0900 SR        000000000000 FUJITSU TEN (THAILAN17079NL0054054                                                                                                                              *          20170428IMF1704285.TXT
MDEDH4292433201705                D89831229000PT4D20170504000015RADIO;AM/FM,CD                M IMCTM S9CO001FTTL  07070IMCT  S9 PTB  00003                    0400 SR        000000000000 FUJITSU TEN (THAILAN16055KU0001001                                                                                                                              *          20170428IMF1704285.TXT
MDEUH4252320201705                D89828070100PT4U20170503000060SPEAKER ASM                   M IMCTM S0FL05 FTTL  07070IMCT  S0 PTB  00003                    2230 SR        000000000000 FUJITSU TEN (THAILAN160B95U005105118023TU0059059                                                                                                                *          20170428IMF1704285.TXT
MDEUH4252321201705                D89828070100PT4U20170504000030SPEAKER ASM                   M IMCTM S0FL05 FTTL  07070IMCT  S0 PTB  00003                    0400 SR        000000000000 FUJITSU TEN (THAILAN18023TU0060060                                                                                                                              *          20170428IMF1704285.TXT
MDEUH4252322201705                D89828070100PT4U20170504000030SPEAKER ASM                   M IMCTM S0FL05 FTTL  07070IMCT  S0 PTB  00003                    1600 SR        000000000000 FUJITSU TEN (THAILAN18083SU0002002                                                                                                                              *          20170428IMF1704285.TXT
MDEUH4252323201705                D89828070200PV4U20170503000060SPEAKER ASM                   M IMCTM S0FR05 FTTL  07070IMCT  S0 PTB  00005                    2230 SR        000000000000 FUJITSU TEN (THAILAN160B95U005105118023TU0059059                                                                                                                *          20170428IMF1704285.TXT
MDEUH4252324201705                D89828070200PV4U20170504000030SPEAKER ASM                   M IMCTM S0FR05 FTTL  07070IMCT  S0 PTB  00005                    0400 SR        000000000000 FUJITSU TEN (THAILAN18023TU0060060                                                                                                                              *          20170428IMF1704285.TXT
MDEUH4252325201705                D89828070200PV4U20170504000030SPEAKER ASM                   M IMCTM S0FR05 FTTL  07070IMCT  S0 PTB  00005                    1600 SR        000000000000 FUJITSU TEN (THAILAN18083SU0002002                                                                                                                              *          20170428IMF1704285.TXT
MDEUH4252326201705                D89828070300PT4U20170503000060SPEAKER ASM                   M IMCTM S9TS02 FTTL  07070IMCT  S9 PTB  00015                    2230 SR        000000000000 FUJITSU TEN (THAILAN160B95U005105118023TU0059059                                                                                                                *          20170428IMF1704285.TXT
MDEUH4252327201705                D89828070300PT4U20170504000030SPEAKER ASM                   M IMCTM S9TS02 FTTL  07070IMCT  S9 PTB  00015                    0400 SR        000000000000 FUJITSU TEN (THAILAN18023TU0060060                                                                                                                              *          20170428IMF1704285.TXT
MDEUH4252328201705                D89828070300PT4U20170504000030SPEAKER ASM                   M IMCTM S9TS02 FTTL  07070IMCT  S9 PTB  00015                    1600 SR        000000000000 FUJITSU TEN (THAILAN18083SU0002002                                                                                                                              *          20170428IMF1704285.TXT
