REC2017040520170405ISUZU                              70     
MDDDH4214396201704                D89821984430PT1D20170420000030RADIO;AM/FM,CD                M IMCTM S5NC06 FTTL  07070IMCT  S5 PTB  00005                    0400 SR        000000000000 FUJITSU TEN (THAILAN170KNEL0078078                                                                                                                              *          20170405IMF1704055.TXT
MDDDH4214397201704                D89821984430PT1D20170420000030RADIO;AM/FM,CD                M IMCTM S5NC06 FTTL  07070IMCT  S5 PTB  00005                    1300 SR        000000000000 FUJITSU TEN (THAILAN170KNEL0079079                                                                                                                              *          20170405IMF1704055.TXT
MDDDH4214398201704                D89821984430PT1D20170420000030RADIO;AM/FM,CD                M IMCTM S5NC06 FTTL  07070IMCT  S5 PTB  00005                    2100 SR        000000000000 FUJITSU TEN (THAILAN170KNEL0080080                                                                                                                              *          20170405IMF1704055.TXT
MDDDH4214399201704                D89828070100PV1D20170419000060SPEAKER ASM                   M IMCTM S5MB11 FTTL  07070IMCT  S5 PTB  00003                    2230 SR        000000000000 FUJITSU TEN (THAILAN170KRCL0026026                                                                                                                              *          20170405IMF1704055.TXT
MDDDH4214400201704                D89828070100PV1D20170420000120SPEAKER ASM                   M IMCTM S5MB11 FTTL  07070IMCT  S5 PTB  00003                    0400 SR        000000000000 FUJITSU TEN (THAILAN170KNEL0078078170KPCL0045045                                                                                                                *          20170405IMF1704055.TXT
MDDDH4214401201704                D89828070100PV1D20170420000060SPEAKER ASM                   M IMCTM S5MB11 FTTL  07070IMCT  S5 PTB  00003                    0900 SR        000000000000 FUJITSU TEN (THAILAN170KRRL0019019                                                                                                                              *          20170405IMF1704055.TXT
MDDDH4214402201704                D89828070100PV1D20170420000060SPEAKER ASM                   M IMCTM S5MB11 FTTL  07070IMCT  S5 PTB  00003                    1300 SR        000000000000 FUJITSU TEN (THAILAN170KNEL0079079                                                                                                                              *          20170405IMF1704055.TXT
MDDDH4214403201704                D89828070100PV1D20170420000060SPEAKER ASM                   M IMCTM S5MB11 FTTL  07070IMCT  S5 PTB  00003                    1600 SR        000000000000 FUJITSU TEN (THAILAN170KPCL0046046                                                                                                                              *          20170405IMF1704055.TXT
MDDDH4214404201704                D89828070100PV1D20170420000060SPEAKER ASM                   M IMCTM S5MB11 FTTL  07070IMCT  S5 PTB  00003                    2100 SR        000000000000 FUJITSU TEN (THAILAN170KNEL0080080                                                                                                                              *          20170405IMF1704055.TXT
MDDDH4214405201704                D89828070200PV1D20170419000060SPEAKER ASM                   M IMCTM S5MA14 FTTL  07070IMCT  S5 PTB  00005                    2230 SR        000000000000 FUJITSU TEN (THAILAN170KRCL0026026                                                                                                                              *          20170405IMF1704055.TXT
MDDDH4214406201704                D89828070200PV1D20170420000060SPEAKER ASM                   M IMCTM S5MA14 FTTL  07070IMCT  S5 PTB  00005                    0900 SR        000000000000 FUJITSU TEN (THAILAN170KRRL0019019                                                                                                                              *          20170405IMF1704055.TXT
MDDDH4214407201704                D89828070300PT1D20170419000060SPEAKER ASM                   M IMCTM S5NB082FTTL  07070IMCT  S5 PTB  00015                    2230 SR        000000000000 FUJITSU TEN (THAILAN170KRCL0026026                                                                                                                              *          20170405IMF1704055.TXT
MDDDH4214408201704                D89828070300PT1D20170420000060SPEAKER ASM                   M IMCTM S5NB082FTTL  07070IMCT  S5 PTB  00015                    0400 SR        000000000000 FUJITSU TEN (THAILAN170KPCL0045045                                                                                                                              *          20170405IMF1704055.TXT
MDDDH4214409201704                D89828070300PT1D20170420000060SPEAKER ASM                   M IMCTM S5NB082FTTL  07070IMCT  S5 PTB  00015                    0900 SR        000000000000 FUJITSU TEN (THAILAN170KRRL0019019                                                                                                                              *          20170405IMF1704055.TXT
MDDDH4214410201704                D89828070300PT1D20170420000060SPEAKER ASM                   M IMCTM S5NB082FTTL  07070IMCT  S5 PTB  00015                    1600 SR        000000000000 FUJITSU TEN (THAILAN170KPCL0046046                                                                                                                              *          20170405IMF1704055.TXT
MDDDH4214411201704                D89831228300PT1D20170420000030RADIO;AM/FM,CD                M IMCTM S5NC06 FTTL  07070IMCT  S5 CPB  00003                    0400 SR        000000000000 FUJITSU TEN (THAILAN170KPCL0045045                                                                                                                              *          20170405IMF1704055.TXT
MDDDH4214412201704                D89831228300PT1D20170420000030RADIO;AM/FM,CD                M IMCTM S5NC06 FTTL  07070IMCT  S5 CPB  00003                    1600 SR        000000000000 FUJITSU TEN (THAILAN170KPCL0046046                                                                                                                              *          20170405IMF1704055.TXT
MDDDH4214413201704                D89831228400PT1D20170419000030RADIO;AM/FM,CD                M IMCTM S5NC06 FTTL  07070IMCT  S5 CPB  00003                    2230 SR        000000000000 FUJITSU TEN (THAILAN170KRCL0026026                                                                                                                              *          20170405IMF1704055.TXT
MDDUH4211040201704                D89828070100PT4U20170419000030SPEAKER ASM                   M IMCTM S0FL05 FTTL  07070IMCT  S0 PTB  00003                    2230 SR        000000000000 FUJITSU TEN (THAILAN180LUEU0055055                                                                                                                              *          20170405IMF1704055.TXT
MDDUH4211041201704                D89828070100PT4U20170420000030SPEAKER ASM                   M IMCTM S0FL05 FTTL  07070IMCT  S0 PTB  00003                    0400 SR        000000000000 FUJITSU TEN (THAILAN180LUAU0009009                                                                                                                              *          20170405IMF1704055.TXT
MDDUH4211042201704                D89828070100PT4U20170420000060SPEAKER ASM                   M IMCTM S0FL05 FTTL  07070IMCT  S0 PTB  00003                    0900 SR        000000000000 FUJITSU TEN (THAILAN180LUDU0094094180LUEU0056056                                                                                                                *          20170405IMF1704055.TXT
MDDUH4211043201704                D89828070100PT4U20170420000030SPEAKER ASM                   M IMCTM S0FL05 FTTL  07070IMCT  S0 PTB  00003                    1600 SR        000000000000 FUJITSU TEN (THAILAN180LUCU0039039                                                                                                                              *          20170405IMF1704055.TXT
MDDUH4211044201704                D89828070200PV4U20170419000030SPEAKER ASM                   M IMCTM S0FR05 FTTL  07070IMCT  S0 PTB  00005                    2230 SR        000000000000 FUJITSU TEN (THAILAN180LUEU0055055                                                                                                                              *          20170405IMF1704055.TXT
MDDUH4211045201704                D89828070200PV4U20170420000030SPEAKER ASM                   M IMCTM S0FR05 FTTL  07070IMCT  S0 PTB  00005                    0400 SR        000000000000 FUJITSU TEN (THAILAN180LUAU0009009                                                                                                                              *          20170405IMF1704055.TXT
MDDUH4211046201704                D89828070200PV4U20170420000060SPEAKER ASM                   M IMCTM S0FR05 FTTL  07070IMCT  S0 PTB  00005                    0900 SR        000000000000 FUJITSU TEN (THAILAN180LUDU0094094180LUEU0056056                                                                                                                *          20170405IMF1704055.TXT
MDDUH4211047201704                D89828070200PV4U20170420000030SPEAKER ASM                   M IMCTM S0FR05 FTTL  07070IMCT  S0 PTB  00005                    1600 SR        000000000000 FUJITSU TEN (THAILAN180LUCU0039039                                                                                                                              *          20170405IMF1704055.TXT
MDDUH4211048201704                D89828070300PT4U20170419000030SPEAKER ASM                   M IMCTM S9TS02 FTTL  07070IMCT  S9 PTB  00015                    2230 SR        000000000000 FUJITSU TEN (THAILAN180LUEU0055055                                                                                                                              *          20170405IMF1704055.TXT
MDDUH4211049201704                D89828070300PT4U20170420000030SPEAKER ASM                   M IMCTM S9TS02 FTTL  07070IMCT  S9 PTB  00015                    0400 SR        000000000000 FUJITSU TEN (THAILAN180LUAU0009009                                                                                                                              *          20170405IMF1704055.TXT
MDDUH4211050201704                D89828070300PT4U20170420000060SPEAKER ASM                   M IMCTM S9TS02 FTTL  07070IMCT  S9 PTB  00015                    0900 SR        000000000000 FUJITSU TEN (THAILAN180LUDU0094094180LUEU0056056                                                                                                                *          20170405IMF1704055.TXT
MDDUH4211051201704                D89828070300PT4U20170420000030SPEAKER ASM                   M IMCTM S9TS02 FTTL  07070IMCT  S9 PTB  00015                    1600 SR        000000000000 FUJITSU TEN (THAILAN180LUCU0039039                                                                                                                              *          20170405IMF1704055.TXT
MDDUH4211052201704                D89831228400PT4U20170420000015RADIO;AM/FM,CD                M IMCTM S9CO001FTTL  07070IMCT  S9 CPB  00003                    0400 SR        000000000000 FUJITSU TEN (THAILAN180LUAU0009009                                                                                                                              *          20170405IMF1704055.TXT
MDDUH4211053201704                D89835097900PT4U20170420000015RADIO;ASM DVD                 M IMCTM S9CO001FTTL  07070IMCT  S9 PTB  00003                    1600 SR        000000000000 FUJITSU TEN (THAILAN180LUCU0039039                                                                                                                              *          20170405IMF1704055.TXT
MDEDH4219962201704                D89805293700PV1D20170419000060SPEAKER ASM                   M IMCTM S5MB11 FTTL  07070IMCT  S5 PTB  00003                    2230 SR        000000000000 FUJITSU TEN (THAILAN15019FL0177178                                                                                                                              *          20170405IMF1704055.TXT
MDEDH4219963201704                D89805293700PV4D20170420000030SPEAKER ASM                   M IMCTM S0FR05 FTTL  07070IMCT  S0 PTB  00003                    2230 SR        000000000000 FUJITSU TEN (THAILAN15018FU0034034                                                                                                                              *          20170405IMF1704055.TXT
MDEDH4219964201704                D89827952200PT1D20170420000015RADIO;AM/FM,CD,D              M IMCTM S5NC06 FTTL  07070IMCT  S5 X    00003                    1600 SR        000000000000 FUJITSU TEN (THAILAN17066NL0026026                                                                                                                              *          20170405IMF1704055.TXT
MDEDH4219965201704                D89828070100PV1D20170420000060SPEAKER ASM                   M IMCTM S5MB11 FTTL  07070IMCT  S5 PTB  00003                    0230 SR        000000000000 FUJITSU TEN (THAILAN17046QL0010011                                                                                                                              *          20170405IMF1704055.TXT
MDEDH4219966201704                D89828070100PV1D20170420000060SPEAKER ASM                   M IMCTM S5MB11 FTTL  07070IMCT  S5 PTB  00003                    0400 SR        000000000000 FUJITSU TEN (THAILAN17080NL0059060                                                                                                                              *          20170405IMF1704055.TXT
MDEDH4219967201704                D89828070100PV1D20170420000060SPEAKER ASM                   M IMCTM S5MB11 FTTL  07070IMCT  S5 PTB  00003                    0900 SR        000000000000 FUJITSU TEN (THAILAN17057NL0016017                                                                                                                              *          20170405IMF1704055.TXT
MDEDH4219968201704                D89828070100PV1D20170420000090SPEAKER ASM                   M IMCTM S5MB11 FTTL  07070IMCT  S5 PTB  00003                    1300 SR        000000000000 FUJITSU TEN (THAILAN17050ML001902017061NL0001001                                                                                                                *          20170405IMF1704055.TXT
MDEDH4219969201704                D89828070100PV1D20170420000090SPEAKER ASM                   M IMCTM S5MB11 FTTL  07070IMCT  S5 PTB  00003                    1600 SR        000000000000 FUJITSU TEN (THAILAN16040KL000100117028NL000900917066NL0026026                                                                                                  *          20170405IMF1704055.TXT
MDEDH4219970201704                D89828070100PV1D20170420000030SPEAKER ASM                   M IMCTM S5MB11 FTTL  07070IMCT  S5 PTB  00003                    2100 SR        000000000000 FUJITSU TEN (THAILAN17023QL0001001                                                                                                                              *          20170405IMF1704055.TXT
MDEDH4219971201704                D89828070200PV1D20170420000060SPEAKER ASM                   M IMCTM S5MA14 FTTL  07070IMCT  S5 PTB  00005                    0230 SR        000000000000 FUJITSU TEN (THAILAN17046QL0010011                                                                                                                              *          20170405IMF1704055.TXT
MDEDH4219972201704                D89828070200PV1D20170420000060SPEAKER ASM                   M IMCTM S5MA14 FTTL  07070IMCT  S5 PTB  00005                    0400 SR        000000000000 FUJITSU TEN (THAILAN17080NL0059060                                                                                                                              *          20170405IMF1704055.TXT
MDEDH4219973201704                D89828070200PV1D20170420000060SPEAKER ASM                   M IMCTM S5MA14 FTTL  07070IMCT  S5 PTB  00005                    0900 SR        000000000000 FUJITSU TEN (THAILAN17057NL0016017                                                                                                                              *          20170405IMF1704055.TXT
MDEDH4219974201704                D89828070200PV1D20170420000030SPEAKER ASM                   M IMCTM S5MA14 FTTL  07070IMCT  S5 PTB  00005                    1300 SR        000000000000 FUJITSU TEN (THAILAN17061NL0001001                                                                                                                              *          20170405IMF1704055.TXT
MDEDH4219975201704                D89828070300PT1D20170420000060SPEAKER ASM                   M IMCTM S5NB082FTTL  07070IMCT  S5 PTB  00015                    0230 SR        000000000000 FUJITSU TEN (THAILAN17046QL0010011                                                                                                                              *          20170405IMF1704055.TXT
MDEDH4219976201704                D89828070300PT1D20170420000060SPEAKER ASM                   M IMCTM S5NB082FTTL  07070IMCT  S5 PTB  00015                    0400 SR        000000000000 FUJITSU TEN (THAILAN17080NL0059060                                                                                                                              *          20170405IMF1704055.TXT
MDEDH4219977201704                D89828070300PT1D20170420000060SPEAKER ASM                   M IMCTM S5NB082FTTL  07070IMCT  S5 PTB  00015                    0900 SR        000000000000 FUJITSU TEN (THAILAN17057NL0016017                                                                                                                              *          20170405IMF1704055.TXT
MDEDH4219978201704                D89828070300PT1D20170420000030SPEAKER ASM                   M IMCTM S5NB082FTTL  07070IMCT  S5 PTB  00015                    1300 SR        000000000000 FUJITSU TEN (THAILAN17061NL0001001                                                                                                                              *          20170405IMF1704055.TXT
MDEDH4219979201704                D89828070300PT1D20170420000030SPEAKER ASM                   M IMCTM S5NB082FTTL  07070IMCT  S5 PTB  00015                    1600 SR        000000000000 FUJITSU TEN (THAILAN17066NL0026026                                                                                                                              *          20170405IMF1704055.TXT
MDEDH4219980201704                D89829645700PT1D20170420000030RADIO;ASM DVD                 M IMCTM S5NC06 FTTL  07070IMCT  S5 X    00003                    0900 SR        000000000000 FUJITSU TEN (THAILAN17057NL0016017                                                                                                                              *          20170405IMF1704055.TXT
MDEUH4211686201704                D89828070100PT4U20170419000030SPEAKER ASM                   M IMCTM S0FL05 FTTL  07070IMCT  S0 PTB  00003                    2230 SR        000000000000 FUJITSU TEN (THAILAN160B94U0023023                                                                                                                              *          20170405IMF1704055.TXT
MDEUH4211687201704                D89828070100PT4U20170420000030SPEAKER ASM                   M IMCTM S0FL05 FTTL  07070IMCT  S0 PTB  00003                    0230 SR        000000000000 FUJITSU TEN (THAILAN18023TU0030030                                                                                                                              *          20170405IMF1704055.TXT
MDEUH4211688201704                D89828070100PT4U20170420000030SPEAKER ASM                   M IMCTM S0FL05 FTTL  07070IMCT  S0 PTB  00003                    0900 SR        000000000000 FUJITSU TEN (THAILAN18023TU0031031                                                                                                                              *          20170405IMF1704055.TXT
MDEUH4211689201704                D89828070100PT4U20170420000030SPEAKER ASM                   M IMCTM S0FL05 FTTL  07070IMCT  S0 PTB  00003                    1300 SR        000000000000 FUJITSU TEN (THAILAN18021TU0003003                                                                                                                              *          20170405IMF1704055.TXT
MDEUH4211690201704                D89828070100PT4U20170420000060SPEAKER ASM                   M IMCTM S0FL05 FTTL  07070IMCT  S0 PTB  00003                    1600 SR        000000000000 FUJITSU TEN (THAILAN160B95U004704718018TU0014014                                                                                                                *          20170405IMF1704055.TXT
MDEUH4211691201704                D89828070100PT4U20170420000030SPEAKER ASM                   M IMCTM S0FL05 FTTL  07070IMCT  S0 PTB  00003                    2100 SR        000000000000 FUJITSU TEN (THAILAN18022TU0012012                                                                                                                              *          20170405IMF1704055.TXT
MDEUH4211692201704                D89828070200PV4U20170419000030SPEAKER ASM                   M IMCTM S0FR05 FTTL  07070IMCT  S0 PTB  00005                    2230 SR        000000000000 FUJITSU TEN (THAILAN160B94U0023023                                                                                                                              *          20170405IMF1704055.TXT
MDEUH4211693201704                D89828070200PV4U20170420000030SPEAKER ASM                   M IMCTM S0FR05 FTTL  07070IMCT  S0 PTB  00005                    0230 SR        000000000000 FUJITSU TEN (THAILAN18023TU0030030                                                                                                                              *          20170405IMF1704055.TXT
MDEUH4211694201704                D89828070200PV4U20170420000030SPEAKER ASM                   M IMCTM S0FR05 FTTL  07070IMCT  S0 PTB  00005                    0900 SR        000000000000 FUJITSU TEN (THAILAN18023TU0031031                                                                                                                              *          20170405IMF1704055.TXT
MDEUH4211695201704                D89828070200PV4U20170420000030SPEAKER ASM                   M IMCTM S0FR05 FTTL  07070IMCT  S0 PTB  00005                    1300 SR        000000000000 FUJITSU TEN (THAILAN18021TU0003003                                                                                                                              *          20170405IMF1704055.TXT
MDEUH4211696201704                D89828070200PV4U20170420000060SPEAKER ASM                   M IMCTM S0FR05 FTTL  07070IMCT  S0 PTB  00005                    1600 SR        000000000000 FUJITSU TEN (THAILAN160B95U004704718018TU0014014                                                                                                                *          20170405IMF1704055.TXT
MDEUH4211697201704                D89828070200PV4U20170420000030SPEAKER ASM                   M IMCTM S0FR05 FTTL  07070IMCT  S0 PTB  00005                    2100 SR        000000000000 FUJITSU TEN (THAILAN18022TU0012012                                                                                                                              *          20170405IMF1704055.TXT
MDEUH4211698201704                D89828070300PT4U20170419000030SPEAKER ASM                   M IMCTM S9TS02 FTTL  07070IMCT  S9 PTB  00015                    2230 SR        000000000000 FUJITSU TEN (THAILAN160B94U0023023                                                                                                                              *          20170405IMF1704055.TXT
MDEUH4211699201704                D89828070300PT4U20170420000030SPEAKER ASM                   M IMCTM S9TS02 FTTL  07070IMCT  S9 PTB  00015                    0230 SR        000000000000 FUJITSU TEN (THAILAN18023TU0030030                                                                                                                              *          20170405IMF1704055.TXT
MDEUH4211700201704                D89828070300PT4U20170420000030SPEAKER ASM                   M IMCTM S9TS02 FTTL  07070IMCT  S9 PTB  00015                    0900 SR        000000000000 FUJITSU TEN (THAILAN18023TU0031031                                                                                                                              *          20170405IMF1704055.TXT
MDEUH4211701201704                D89828070300PT4U20170420000030SPEAKER ASM                   M IMCTM S9TS02 FTTL  07070IMCT  S9 PTB  00015                    1300 SR        000000000000 FUJITSU TEN (THAILAN18021TU0003003                                                                                                                              *          20170405IMF1704055.TXT
MDEUH4211702201704                D89828070300PT4U20170420000060SPEAKER ASM                   M IMCTM S9TS02 FTTL  07070IMCT  S9 PTB  00015                    1600 SR        000000000000 FUJITSU TEN (THAILAN160B95U004704718018TU0014014                                                                                                                *          20170405IMF1704055.TXT
MDEUH4211703201704                D89828070300PT4U20170420000030SPEAKER ASM                   M IMCTM S9TS02 FTTL  07070IMCT  S9 PTB  00015                    2100 SR        000000000000 FUJITSU TEN (THAILAN18022TU0012012                                                                                                                              *          20170405IMF1704055.TXT
MDEUH4211704201704                D89836135900PT4U20170420000015RADIO;ASM DVD                 M IMCTM S9CO001FTTL  07070IMCT  S9 PTB  00003                    1300 SR        000000000000 FUJITSU TEN (THAILAN18021TU0003003                                                                                                                              *          20170405IMF1704055.TXT
