REC2017040420170404ISUZU                              4      
MAEDH4600311201707                 89828070100PV1D20170605000004SPEAKER ASM                   M IMCTM ST00000FTTL  07070IMCT  ST PTB  00003  DC                0000 SR        000000000000 FUJITSU TEN (THAILAN18072TL000100118073TL0001001                                                                                                                *P         20170404IMF1704043.TXT
MAEDH4600312201707                 89828070200PV1D20170605000002SPEAKER ASM                   M IMCTM ST00000FTTL  07070IMCT  ST PTB  00005  DC                0000 SR        000000000000 FUJITSU TEN (THAILAN18073TL0001001                                                                                                                              *P         20170404IMF1704043.TXT
MAEDH4600313201707                 89828070300PT1D20170605000002SPEAKER ASM                   M IMCTM ST00000FTTL  07070IMCT  ST PTB  00015  DC                0000 SR        000000000000 FUJITSU TEN (THAILAN18073TL0001001                                                                                                                              *P         20170404IMF1704043.TXT
MAEDH4600314201707                 89831229200PT1D20170605000001RADIO;AM/FM,CD                M IMCTM ST00000FTTL  07070IMCT  ST PTB  00003  DC                0000 SR        000000000000 FUJITSU TEN (THAILAN18073TL0001001                                                                                                                              *P         20170404IMF1704043.TXT
