REC2017042520170425ISUZU                              49     
MDDDH4250276201704                D89821984430PT1D20170429000030RADIO;AM/FM,CD                M IMCTM S5NC06 FTTL  07070IMCT  S5 PTB  00005                    0400 SR        000000000000 FUJITSU TEN (THAILAN170KNFL0035035                                                                                                                              *          20170425IMF1704256.TXT
MDDDH4250277201704                D89825217900PT1D20170429000030RADIO;AM/FM,CD,D              M IMCTM S5NC06 FTTL  07070IMCT  S5 PTB  00003                    1300 SR        000000000000 FUJITSU TEN (THAILAN170KPJL0045045                                                                                                                              *          20170425IMF1704256.TXT
MDDDH4250278201704                D89828070100PV1D20170429000060SPEAKER ASM                   M IMCTM S5MB11 FTTL  07070IMCT  S5 PTB  00003                    0230 SR        000000000000 FUJITSU TEN (THAILAN170KPFL0147147                                                                                                                              *          20170425IMF1704256.TXT
MDDDH4250279201704                D89828070100PV1D20170429000120SPEAKER ASM                   M IMCTM S5MB11 FTTL  07070IMCT  S5 PTB  00003                    0400 SR        000000000000 FUJITSU TEN (THAILAN170KNFL0035035170KPCL0054054                                                                                                                *          20170425IMF1704256.TXT
MDDDH4250280201704                D89828070100PV1D20170429000120SPEAKER ASM                   M IMCTM S5MB11 FTTL  07070IMCT  S5 PTB  00003                    0900 SR        000000000000 FUJITSU TEN (THAILAN170KRHL0026026170KRSL0035035                                                                                                                *          20170425IMF1704256.TXT
MDDDH4250281201704                D89828070100PV1D20170429000060SPEAKER ASM                   M IMCTM S5MB11 FTTL  07070IMCT  S5 PTB  00003                    1300 SR        000000000000 FUJITSU TEN (THAILAN170KPJL0045045                                                                                                                              *          20170425IMF1704256.TXT
MDDDH4250282201704                D89828070200PV1D20170429000120SPEAKER ASM                   M IMCTM S5MA14 FTTL  07070IMCT  S5 PTB  00005                    0900 SR        000000000000 FUJITSU TEN (THAILAN170KRHL0026026170KRSL0035035                                                                                                                *          20170425IMF1704256.TXT
MDDDH4250283201704                D89828070300PT1D20170429000060SPEAKER ASM                   M IMCTM S5NB082FTTL  07070IMCT  S5 PTB  00015                    0230 SR        000000000000 FUJITSU TEN (THAILAN170KPFL0147147                                                                                                                              *          20170425IMF1704256.TXT
MDDDH4250284201704                D89828070300PT1D20170429000060SPEAKER ASM                   M IMCTM S5NB082FTTL  07070IMCT  S5 PTB  00015                    0400 SR        000000000000 FUJITSU TEN (THAILAN170KPCL0054054                                                                                                                              *          20170425IMF1704256.TXT
MDDDH4250285201704                D89828070300PT1D20170429000120SPEAKER ASM                   M IMCTM S5NB082FTTL  07070IMCT  S5 PTB  00015                    0900 SR        000000000000 FUJITSU TEN (THAILAN170KRHL0026026170KRSL0035035                                                                                                                *          20170425IMF1704256.TXT
MDDDH4250286201704                D89828070300PT1D20170429000060SPEAKER ASM                   M IMCTM S5NB082FTTL  07070IMCT  S5 PTB  00015                    1300 SR        000000000000 FUJITSU TEN (THAILAN170KPJL0045045                                                                                                                              *          20170425IMF1704256.TXT
MDDDH4250287201704                D89831228300PT1D20170429000030RADIO;AM/FM,CD                M IMCTM S5NC06 FTTL  07070IMCT  S5 CPB  00003                    0230 SR        000000000000 FUJITSU TEN (THAILAN170KPFL0147147                                                                                                                              *          20170425IMF1704256.TXT
MDDDH4250288201704                D89831228300PT1D20170429000030RADIO;AM/FM,CD                M IMCTM S5NC06 FTTL  07070IMCT  S5 CPB  00003                    0400 SR        000000000000 FUJITSU TEN (THAILAN170KPCL0054054                                                                                                                              *          20170425IMF1704256.TXT
MDDUH4240581201704                D89828070100PT4U20170429000060SPEAKER ASM                   M IMCTM S0FL05 FTTL  07070IMCT  S0 PTB  00003                    0400 SR        000000000000 FUJITSU TEN (THAILAN180LUDU0115116                                                                                                                              *          20170425IMF1704256.TXT
MDDUH4240582201704                D89828070100PT4U20170429000030SPEAKER ASM                   M IMCTM S0FL05 FTTL  07070IMCT  S0 PTB  00003                    0900 SR        000000000000 FUJITSU TEN (THAILAN180LUEU0068068                                                                                                                              *          20170425IMF1704256.TXT
MDDUH4240583201704                D89828070100PT4U20170429000030SPEAKER ASM                   M IMCTM S0FL05 FTTL  07070IMCT  S0 PTB  00003                    1300 SR        000000000000 FUJITSU TEN (THAILAN180LUDU0117117                                                                                                                              *          20170425IMF1704256.TXT
MDDUH4240584201704                D89828070200PV4U20170429000060SPEAKER ASM                   M IMCTM S0FR05 FTTL  07070IMCT  S0 PTB  00005                    0400 SR        000000000000 FUJITSU TEN (THAILAN180LUDU0115116                                                                                                                              *          20170425IMF1704256.TXT
MDDUH4240585201704                D89828070200PV4U20170429000030SPEAKER ASM                   M IMCTM S0FR05 FTTL  07070IMCT  S0 PTB  00005                    0900 SR        000000000000 FUJITSU TEN (THAILAN180LUEU0068068                                                                                                                              *          20170425IMF1704256.TXT
MDDUH4240586201704                D89828070200PV4U20170429000030SPEAKER ASM                   M IMCTM S0FR05 FTTL  07070IMCT  S0 PTB  00005                    1300 SR        000000000000 FUJITSU TEN (THAILAN180LUDU0117117                                                                                                                              *          20170425IMF1704256.TXT
MDDUH4240587201704                D89828070300PT4U20170429000060SPEAKER ASM                   M IMCTM S9TS02 FTTL  07070IMCT  S9 PTB  00015                    0400 SR        000000000000 FUJITSU TEN (THAILAN180LUDU0115116                                                                                                                              *          20170425IMF1704256.TXT
MDDUH4240588201704                D89828070300PT4U20170429000030SPEAKER ASM                   M IMCTM S9TS02 FTTL  07070IMCT  S9 PTB  00015                    0900 SR        000000000000 FUJITSU TEN (THAILAN180LUEU0068068                                                                                                                              *          20170425IMF1704256.TXT
MDDUH4240589201704                D89828070300PT4U20170429000030SPEAKER ASM                   M IMCTM S9TS02 FTTL  07070IMCT  S9 PTB  00015                    1300 SR        000000000000 FUJITSU TEN (THAILAN180LUDU0117117                                                                                                                              *          20170425IMF1704256.TXT
MDEDH4266377201704                D89805293700PV1D20170428000060SPEAKER ASM                   M IMCTM S5MB11 FTTL  07070IMCT  S5 PTB  00003                    2230 SR        000000000000 FUJITSU TEN (THAILAN15019FL0185186                                                                                                                              *          20170425IMF1704256.TXT
MDEDH4266378201704                D89805293700PV1D20170429000060SPEAKER ASM                   M IMCTM S5MB11 FTTL  07070IMCT  S5 PTB  00003                    1300 SR        000000000000 FUJITSU TEN (THAILAN15019FL0187188                                                                                                                              *          20170425IMF1704256.TXT
MDEDH4266379201704                D89805293700PV1D20170429000060SPEAKER ASM                   M IMCTM S5MB11 FTTL  07070IMCT  S5 PTB  00003                    1600 SR        000000000000 FUJITSU TEN (THAILAN15018FL0110111                                                                                                                              *          20170425IMF1704256.TXT
MDEDH4266380201704                D89805293700PV4D20170429000030SPEAKER ASM                   M IMCTM S0FR05 FTTL  07070IMCT  S0 PTB  00003                    1600 SR        000000000000 FUJITSU TEN (THAILAN15019FU0044044                                                                                                                              *          20170425IMF1704256.TXT
MDEDH4266381201704                D89828070100PV1D20170429000060SPEAKER ASM                   M IMCTM S5MB11 FTTL  07070IMCT  S5 PTB  00003                    0400 SR        000000000000 FUJITSU TEN (THAILAN17081NL0012013                                                                                                                              *          20170425IMF1704256.TXT
MDEDH4266382201704                D89828070100PV1D20170429000030SPEAKER ASM                   M IMCTM S5MB11 FTTL  07070IMCT  S5 PTB  00003                    1600 SR        000000000000 FUJITSU TEN (THAILAN17029ML0016016                                                                                                                              *          20170425IMF1704256.TXT
MDEDH4266383201704                D89828070100PV1D20170429000030SPEAKER ASM                   M IMCTM S5MB11 FTTL  07070IMCT  S5 PTB  00003                    2100 SR        000000000000 FUJITSU TEN (THAILAN17029ML0017017                                                                                                                              *          20170425IMF1704256.TXT
MDEDH4266384201704                D89828070200PV1D20170429000060SPEAKER ASM                   M IMCTM S5MA14 FTTL  07070IMCT  S5 PTB  00005                    0400 SR        000000000000 FUJITSU TEN (THAILAN17081NL0012013                                                                                                                              *          20170425IMF1704256.TXT
MDEDH4266385201704                D89828070200PV1D20170429000030SPEAKER ASM                   M IMCTM S5MA14 FTTL  07070IMCT  S5 PTB  00005                    1600 SR        000000000000 FUJITSU TEN (THAILAN17029ML0016016                                                                                                                              *          20170425IMF1704256.TXT
MDEDH4266386201704                D89828070200PV1D20170429000030SPEAKER ASM                   M IMCTM S5MA14 FTTL  07070IMCT  S5 PTB  00005                    2100 SR        000000000000 FUJITSU TEN (THAILAN17029ML0017017                                                                                                                              *          20170425IMF1704256.TXT
MDEDH4266387201704                D89828070300PT1D20170429000060SPEAKER ASM                   M IMCTM S5NB082FTTL  07070IMCT  S5 PTB  00015                    0400 SR        000000000000 FUJITSU TEN (THAILAN17081NL0012013                                                                                                                              *          20170425IMF1704256.TXT
MDEDH4266388201704                D89828070300PT1D20170429000030SPEAKER ASM                   M IMCTM S5NB082FTTL  07070IMCT  S5 PTB  00015                    1600 SR        000000000000 FUJITSU TEN (THAILAN17029ML0016016                                                                                                                              *          20170425IMF1704256.TXT
MDEDH4266389201704                D89828070300PT1D20170429000030SPEAKER ASM                   M IMCTM S5NB082FTTL  07070IMCT  S5 PTB  00015                    2100 SR        000000000000 FUJITSU TEN (THAILAN17029ML0017017                                                                                                                              *          20170425IMF1704256.TXT
MDEUH4242842201704                D89828070100PT4U20170428000030SPEAKER ASM                   M IMCTM S0FL05 FTTL  07070IMCT  S0 PTB  00003                    2230 SR        000000000000 FUJITSU TEN (THAILAN18016TU0011011                                                                                                                              *          20170425IMF1704256.TXT
MDEUH4242843201704                D89828070100PT4U20170429000030SPEAKER ASM                   M IMCTM S0FL05 FTTL  07070IMCT  S0 PTB  00003                    0230 SR        000000000000 FUJITSU TEN (THAILAN18023TU0054054                                                                                                                              *          20170425IMF1704256.TXT
MDEUH4242844201704                D89828070100PT4U20170429000030SPEAKER ASM                   M IMCTM S0FL05 FTTL  07070IMCT  S0 PTB  00003                    0900 SR        000000000000 FUJITSU TEN (THAILAN160B94U0026026                                                                                                                              *          20170425IMF1704256.TXT
MDEUH4242845201704                D89828070100PT4U20170429000030SPEAKER ASM                   M IMCTM S0FL05 FTTL  07070IMCT  S0 PTB  00003                    1300 SR        000000000000 FUJITSU TEN (THAILAN170C41U0001001                                                                                                                              *          20170425IMF1704256.TXT
MDEUH4242846201704                D89828070200PV4U20170428000030SPEAKER ASM                   M IMCTM S0FR05 FTTL  07070IMCT  S0 PTB  00005                    2230 SR        000000000000 FUJITSU TEN (THAILAN18016TU0011011                                                                                                                              *          20170425IMF1704256.TXT
MDEUH4242847201704                D89828070200PV4U20170429000030SPEAKER ASM                   M IMCTM S0FR05 FTTL  07070IMCT  S0 PTB  00005                    0230 SR        000000000000 FUJITSU TEN (THAILAN18023TU0054054                                                                                                                              *          20170425IMF1704256.TXT
MDEUH4242848201704                D89828070200PV4U20170429000030SPEAKER ASM                   M IMCTM S0FR05 FTTL  07070IMCT  S0 PTB  00005                    0900 SR        000000000000 FUJITSU TEN (THAILAN160B94U0026026                                                                                                                              *          20170425IMF1704256.TXT
MDEUH4242849201704                D89828070200PV4U20170429000030SPEAKER ASM                   M IMCTM S0FR05 FTTL  07070IMCT  S0 PTB  00005                    1300 SR        000000000000 FUJITSU TEN (THAILAN170C41U0001001                                                                                                                              *          20170425IMF1704256.TXT
MDEUH4242850201704                D89828070300PT4U20170428000030SPEAKER ASM                   M IMCTM S9TS02 FTTL  07070IMCT  S9 PTB  00015                    2230 SR        000000000000 FUJITSU TEN (THAILAN18016TU0011011                                                                                                                              *          20170425IMF1704256.TXT
MDEUH4242851201704                D89828070300PT4U20170429000030SPEAKER ASM                   M IMCTM S9TS02 FTTL  07070IMCT  S9 PTB  00015                    0230 SR        000000000000 FUJITSU TEN (THAILAN18023TU0054054                                                                                                                              *          20170425IMF1704256.TXT
MDEUH4242852201704                D89828070300PT4U20170429000030SPEAKER ASM                   M IMCTM S9TS02 FTTL  07070IMCT  S9 PTB  00015                    0900 SR        000000000000 FUJITSU TEN (THAILAN160B94U0026026                                                                                                                              *          20170425IMF1704256.TXT
MDEUH4242853201704                D89828070300PT4U20170429000030SPEAKER ASM                   M IMCTM S9TS02 FTTL  07070IMCT  S9 PTB  00015                    1300 SR        000000000000 FUJITSU TEN (THAILAN170C41U0001001                                                                                                                              *          20170425IMF1704256.TXT
MDEUH4242854201704                D89829100110PT4U20170429000015RADIO;ASM DVD                 M IMCTM S9CO001FTTL  07070IMCT  S9*PTB  00003                    1300 SR        000000000000 FUJITSU TEN (THAILAN170C41U0001001                                                                                                                              *          20170425IMF1704256.TXT
MDEUH4242855201704                D89836135900PT4U20170428000015RADIO;ASM DVD                 M IMCTM S9CO001FTTL  07070IMCT  S9 PTB  00003                    2230 SR        000000000000 FUJITSU TEN (THAILAN18016TU0011011                                                                                                                              *          20170425IMF1704256.TXT
