REC2017042720170427ISUZU                              7      
MDEBH4T01303201705                D89828070100PT4B20170503000030SPEAKER ASM                   M IMCTM S7FL05 FTTL  07070IMCT  S7 PTB  00003                    0900 SR        000000000000 FUJITSU TEN (THAILAN170C34R0015   18004TR0013   Y170500801    Y170500815    000000                                                                              *R         20170427RDF1704274.TXT
MDEBH4T01304201705                D89828070200PV4B20170503000030SPEAKER ASM                   M IMCTM S7TS02 FTTL  07070IMCT  S7 PTB  00005                    0900 SR        000000000000 FUJITSU TEN (THAILAN170C34R0015   18004TR0013   Y170500801    Y170500815    000000                                                                              *R         20170427RDF1704274.TXT
MDEBH4T01305201705                D89828070300PT4B20170503000030SPEAKER ASM                   M IMCTM S7TS02 FTTL  07070IMCT  S7 PTB  00015                    0900 SR        000000000000 FUJITSU TEN (THAILAN170C34R0015   18004TR0013   Y170500801    Y170500815    000000                                                                              *R         20170427RDF1704274.TXT
MDEFH4T17260201705                D89805293700PV4F20170502000030SPEAKER ASM                   M IMCTM S7FR05 FTTL  07070IMCT  S7 PTB  00003                    1600 SR        000000000000 FUJITSU TEN (THAILAN15018FR0132   15019FR0161   D170500501    D170500515    000000                                                                              *R         20170427RDF1704274.TXT
MDEFH4T17261201705                D89828070100PV4F20170503000030SPEAKER ASM                   M IMCTM S7FL05 FTTL  07070IMCT  S7 PTB  00003                    0230 SR        000000000000 FUJITSU TEN (THAILAN17037MR0020   17008RR0042   R170500701    R170500715    000000                                                                              *R         20170427RDF1704274.TXT
MDEFH4254503201705                D89828070100PV4F20170502000027SPEAKER ASM                   M IMCTM S7FL05 FTTL  07070IMCT  S7 PTB  00003                    2100 SR        000000000000 FUJITSU TEN (THAILAN16040KR0055   16040KR0068   R170500601    R170500614    000000                                                                              *R         20170427RDF1704274.TXT
MDEFH4254504201705                D89828070100PV4F20170502000003SPEAKER ASM                   M IMCTM S7FL05 FTTL  07070IMCT  S7 PTB  00003                    2230 SR        000000000000 FUJITSU TEN (THAILAN16040KR0068   17008RR0039   R170500614    R170500615    000000                                                                              *R         20170427RDF1704274.TXT
