REC2017042220170422ISUZU                              69     
MDDDH4240857201704                D89821984430PT1D20170427000060RADIO;AM/FM,CD                M IMCTM S5NC06 FTTL  07070IMCT  S5 PTB  00005                    0400 SR        000000000000 FUJITSU TEN (THAILAN170KNEL0085085170KRAL0047047                                                                                                                *          20170422IMF1704224.TXT
MDDDH4240858201704                D89821984430PT1D20170427000060RADIO;AM/FM,CD                M IMCTM S5NC06 FTTL  07070IMCT  S5 PTB  00005                    1600 SR        000000000000 FUJITSU TEN (THAILAN170KNDL0093093170KPAL0093093                                                                                                                *          20170422IMF1704224.TXT
MDDDH4240859201704                D89821984430PT1D20170427000030RADIO;AM/FM,CD                M IMCTM S5NC06 FTTL  07070IMCT  S5 PTB  00005                    2100 SR        000000000000 FUJITSU TEN (THAILAN170KNEL0086086                                                                                                                              *          20170422IMF1704224.TXT
MDDDH4240860201704                D89828070100PV1D20170426000060SPEAKER ASM                   M IMCTM S5MB11 FTTL  07070IMCT  S5 PTB  00003                    2230 SR        000000000000 FUJITSU TEN (THAILAN170KRFL0071071                                                                                                                              *          20170422IMF1704224.TXT
MDDDH4240861201704                D89828070100PV1D20170427000120SPEAKER ASM                   M IMCTM S5MB11 FTTL  07070IMCT  S5 PTB  00003                    0400 SR        000000000000 FUJITSU TEN (THAILAN170KNEL0085085170KRAL0047047                                                                                                                *          20170422IMF1704224.TXT
MDDDH4240862201704                D89828070100PV1D20170427000060SPEAKER ASM                   M IMCTM S5MB11 FTTL  07070IMCT  S5 PTB  00003                    0900 SR        000000000000 FUJITSU TEN (THAILAN170KRGL0006006                                                                                                                              *          20170422IMF1704224.TXT
MDDDH4240863201704                D89828070100PV1D20170427000060SPEAKER ASM                   M IMCTM S5MB11 FTTL  07070IMCT  S5 PTB  00003                    1300 SR        000000000000 FUJITSU TEN (THAILAN170KPCL0052052                                                                                                                              *          20170422IMF1704224.TXT
MDDDH4240864201704                D89828070100PV1D20170427000120SPEAKER ASM                   M IMCTM S5MB11 FTTL  07070IMCT  S5 PTB  00003                    1600 SR        000000000000 FUJITSU TEN (THAILAN170KNDL0093093170KPAL0093093                                                                                                                *          20170422IMF1704224.TXT
MDDDH4240865201704                D89828070100PV1D20170427000060SPEAKER ASM                   M IMCTM S5MB11 FTTL  07070IMCT  S5 PTB  00003                    2100 SR        000000000000 FUJITSU TEN (THAILAN170KNEL0086086                                                                                                                              *          20170422IMF1704224.TXT
MDDDH4240866201704                D89828070200PV1D20170426000060SPEAKER ASM                   M IMCTM S5MA14 FTTL  07070IMCT  S5 PTB  00005                    2230 SR        000000000000 FUJITSU TEN (THAILAN170KRFL0071071                                                                                                                              *          20170422IMF1704224.TXT
MDDDH4240867201704                D89828070200PV1D20170427000060SPEAKER ASM                   M IMCTM S5MA14 FTTL  07070IMCT  S5 PTB  00005                    0900 SR        000000000000 FUJITSU TEN (THAILAN170KRGL0006006                                                                                                                              *          20170422IMF1704224.TXT
MDDDH4240868201704                D89828070300PT1D20170426000060SPEAKER ASM                   M IMCTM S5NB082FTTL  07070IMCT  S5 PTB  00015                    2230 SR        000000000000 FUJITSU TEN (THAILAN170KRFL0071071                                                                                                                              *          20170422IMF1704224.TXT
MDDDH4240869201704                D89828070300PT1D20170427000060SPEAKER ASM                   M IMCTM S5NB082FTTL  07070IMCT  S5 PTB  00015                    0900 SR        000000000000 FUJITSU TEN (THAILAN170KRGL0006006                                                                                                                              *          20170422IMF1704224.TXT
MDDDH4240870201704                D89828070300PT1D20170427000060SPEAKER ASM                   M IMCTM S5NB082FTTL  07070IMCT  S5 PTB  00015                    1300 SR        000000000000 FUJITSU TEN (THAILAN170KPCL0052052                                                                                                                              *          20170422IMF1704224.TXT
MDDDH4240871201704                D89829645900PT1D20170426000030RADIO;ASM DVD                 M IMCTM S5NC06 FTTL  07070IMCT  S5 CPB  00003                    2230 SR        000000000000 FUJITSU TEN (THAILAN170KRFL0071071                                                                                                                              *          20170422IMF1704224.TXT
MDDDH4240872201704                D89829645900PT1D20170427000030RADIO;ASM DVD                 M IMCTM S5NC06 FTTL  07070IMCT  S5 CPB  00003                    0900 SR        000000000000 FUJITSU TEN (THAILAN170KRGL0006006                                                                                                                              *          20170422IMF1704224.TXT
MDDDH4240873201704                D89831228300PT1D20170427000030RADIO;AM/FM,CD                M IMCTM S5NC06 FTTL  07070IMCT  S5 CPB  00003                    1300 SR        000000000000 FUJITSU TEN (THAILAN170KPCL0052052                                                                                                                              *          20170422IMF1704224.TXT
MDDUH4232621201704                D89828070100PT4U20170426000030SPEAKER ASM                   M IMCTM S0FL05 FTTL  07070IMCT  S0 PTB  00003                    2230 SR        000000000000 FUJITSU TEN (THAILAN180LUEU0064064                                                                                                                              *          20170422IMF1704224.TXT
MDDUH4232622201704                D89828070100PT4U20170427000030SPEAKER ASM                   M IMCTM S0FL05 FTTL  07070IMCT  S0 PTB  00003                    0400 SR        000000000000 FUJITSU TEN (THAILAN180LUDU0108108                                                                                                                              *          20170422IMF1704224.TXT
MDDUH4232623201704                D89828070100PT4U20170427000060SPEAKER ASM                   M IMCTM S0FL05 FTTL  07070IMCT  S0 PTB  00003                    0900 SR        000000000000 FUJITSU TEN (THAILAN180LUDU0109109180LUFU0018018                                                                                                                *          20170422IMF1704224.TXT
MDDUH4232624201704                D89828070100PT4U20170427000030SPEAKER ASM                   M IMCTM S0FL05 FTTL  07070IMCT  S0 PTB  00003                    1600 SR        000000000000 FUJITSU TEN (THAILAN180LUDU0110110                                                                                                                              *          20170422IMF1704224.TXT
MDDUH4232625201704                D89828070100PT4U20170427000030SPEAKER ASM                   M IMCTM S0FL05 FTTL  07070IMCT  S0 PTB  00003                    2230 SR        000000000000 FUJITSU TEN (THAILAN180LUDU0111111                                                                                                                              *          20170422IMF1704224.TXT
MDDUH4232626201704                D89828070200PV4U20170426000030SPEAKER ASM                   M IMCTM S0FR05 FTTL  07070IMCT  S0 PTB  00005                    2230 SR        000000000000 FUJITSU TEN (THAILAN180LUEU0064064                                                                                                                              *          20170422IMF1704224.TXT
MDDUH4232627201704                D89828070200PV4U20170427000030SPEAKER ASM                   M IMCTM S0FR05 FTTL  07070IMCT  S0 PTB  00005                    0400 SR        000000000000 FUJITSU TEN (THAILAN180LUDU0108108                                                                                                                              *          20170422IMF1704224.TXT
MDDUH4232628201704                D89828070200PV4U20170427000060SPEAKER ASM                   M IMCTM S0FR05 FTTL  07070IMCT  S0 PTB  00005                    0900 SR        000000000000 FUJITSU TEN (THAILAN180LUDU0109109180LUFU0018018                                                                                                                *          20170422IMF1704224.TXT
MDDUH4232629201704                D89828070200PV4U20170427000030SPEAKER ASM                   M IMCTM S0FR05 FTTL  07070IMCT  S0 PTB  00005                    1600 SR        000000000000 FUJITSU TEN (THAILAN180LUDU0110110                                                                                                                              *          20170422IMF1704224.TXT
MDDUH4232630201704                D89828070200PV4U20170427000030SPEAKER ASM                   M IMCTM S0FR05 FTTL  07070IMCT  S0 PTB  00005                    2230 SR        000000000000 FUJITSU TEN (THAILAN180LUDU0111111                                                                                                                              *          20170422IMF1704224.TXT
MDDUH4232631201704                D89828070300PT4U20170426000030SPEAKER ASM                   M IMCTM S9TS02 FTTL  07070IMCT  S9 PTB  00015                    2230 SR        000000000000 FUJITSU TEN (THAILAN180LUEU0064064                                                                                                                              *          20170422IMF1704224.TXT
MDDUH4232632201704                D89828070300PT4U20170427000030SPEAKER ASM                   M IMCTM S9TS02 FTTL  07070IMCT  S9 PTB  00015                    0400 SR        000000000000 FUJITSU TEN (THAILAN180LUDU0108108                                                                                                                              *          20170422IMF1704224.TXT
MDDUH4232633201704                D89828070300PT4U20170427000060SPEAKER ASM                   M IMCTM S9TS02 FTTL  07070IMCT  S9 PTB  00015                    0900 SR        000000000000 FUJITSU TEN (THAILAN180LUDU0109109180LUFU0018018                                                                                                                *          20170422IMF1704224.TXT
MDDUH4232634201704                D89828070300PT4U20170427000030SPEAKER ASM                   M IMCTM S9TS02 FTTL  07070IMCT  S9 PTB  00015                    1600 SR        000000000000 FUJITSU TEN (THAILAN180LUDU0110110                                                                                                                              *          20170422IMF1704224.TXT
MDDUH4232635201704                D89828070300PT4U20170427000030SPEAKER ASM                   M IMCTM S9TS02 FTTL  07070IMCT  S9 PTB  00015                    2230 SR        000000000000 FUJITSU TEN (THAILAN180LUDU0111111                                                                                                                              *          20170422IMF1704224.TXT
MDEDH4255655201704                D89827952200PT1D20170427000015RADIO;AM/FM,CD,D              M IMCTM S5NC06 FTTL  07070IMCT  S5 X    00003                    0230 SR        000000000000 FUJITSU TEN (THAILAN17066NL0027027                                                                                                                              *          20170422IMF1704224.TXT
MDEDH4255656201704                D89828070100PV1D20170426000030SPEAKER ASM                   M IMCTM S5MB11 FTTL  07070IMCT  S5 PTB  00003                    2230 SR        000000000000 FUJITSU TEN (THAILAN17008ML0009009                                                                                                                              *          20170422IMF1704224.TXT
MDEDH4255657201704                D89828070100PV1D20170427000030SPEAKER ASM                   M IMCTM S5MB11 FTTL  07070IMCT  S5 PTB  00003                    0230 SR        000000000000 FUJITSU TEN (THAILAN17066NL0027027                                                                                                                              *          20170422IMF1704224.TXT
MDEDH4255658201704                D89828070100PV1D20170427000060SPEAKER ASM                   M IMCTM S5MB11 FTTL  07070IMCT  S5 PTB  00003                    0400 SR        000000000000 FUJITSU TEN (THAILAN17010ML0018019                                                                                                                              *          20170422IMF1704224.TXT
MDEDH4255659201704                D89828070100PV1D20170427000090SPEAKER ASM                   M IMCTM S5MB11 FTTL  07070IMCT  S5 PTB  00003                    0900 SR        000000000000 FUJITSU TEN (THAILAN17050ML002102117057NL0018019                                                                                                                *          20170422IMF1704224.TXT
MDEDH4255660201704                D89828070100PV1D20170427000060SPEAKER ASM                   M IMCTM S5MB11 FTTL  07070IMCT  S5 PTB  00003                    1300 SR        000000000000 FUJITSU TEN (THAILAN17072NL0021022                                                                                                                              *          20170422IMF1704224.TXT
MDEDH4255661201704                D89828070100PV1D20170427000060SPEAKER ASM                   M IMCTM S5MB11 FTTL  07070IMCT  S5 PTB  00003                    1600 SR        000000000000 FUJITSU TEN (THAILAN17070NL000700717076NL0008008                                                                                                                *          20170422IMF1704224.TXT
MDEDH4255662201704                D89828070100PV1D20170427000060SPEAKER ASM                   M IMCTM S5MB11 FTTL  07070IMCT  S5 PTB  00003                    2230 SR        000000000000 FUJITSU TEN (THAILAN17050ML0022023                                                                                                                              *          20170422IMF1704224.TXT
MDEDH4255663201704                D89828070100PV4D20170427000030SPEAKER ASM                   M IMCTM S0FL05 FTTL  07070IMCT  S0 PTB  00003                    1300 SR        000000000000 FUJITSU TEN (THAILAN17053NU0014014                                                                                                                              *          20170422IMF1704224.TXT
MDEDH4255664201704                D89828070200PV1D20170427000060SPEAKER ASM                   M IMCTM S5MA14 FTTL  07070IMCT  S5 PTB  00005                    0900 SR        000000000000 FUJITSU TEN (THAILAN17057NL0018019                                                                                                                              *          20170422IMF1704224.TXT
MDEDH4255665201704                D89828070200PV1D20170427000060SPEAKER ASM                   M IMCTM S5MA14 FTTL  07070IMCT  S5 PTB  00005                    1300 SR        000000000000 FUJITSU TEN (THAILAN17072NL0021022                                                                                                                              *          20170422IMF1704224.TXT
MDEDH4255666201704                D89828070200PV1D20170427000060SPEAKER ASM                   M IMCTM S5MA14 FTTL  07070IMCT  S5 PTB  00005                    1600 SR        000000000000 FUJITSU TEN (THAILAN17070NL000700717076NL0008008                                                                                                                *          20170422IMF1704224.TXT
MDEDH4255667201704                D89828070300PT1D20170426000030SPEAKER ASM                   M IMCTM S5NB082FTTL  07070IMCT  S5 PTB  00015                    2230 SR        000000000000 FUJITSU TEN (THAILAN17008ML0009009                                                                                                                              *          20170422IMF1704224.TXT
MDEDH4255668201704                D89828070300PT1D20170427000030SPEAKER ASM                   M IMCTM S5NB082FTTL  07070IMCT  S5 PTB  00015                    0230 SR        000000000000 FUJITSU TEN (THAILAN17066NL0027027                                                                                                                              *          20170422IMF1704224.TXT
MDEDH4255669201704                D89828070300PT1D20170427000060SPEAKER ASM                   M IMCTM S5NB082FTTL  07070IMCT  S5 PTB  00015                    0900 SR        000000000000 FUJITSU TEN (THAILAN17057NL0018019                                                                                                                              *          20170422IMF1704224.TXT
MDEDH4255670201704                D89828070300PT1D20170427000060SPEAKER ASM                   M IMCTM S5NB082FTTL  07070IMCT  S5 PTB  00015                    1300 SR        000000000000 FUJITSU TEN (THAILAN17072NL0021022                                                                                                                              *          20170422IMF1704224.TXT
MDEDH4255671201704                D89828070300PT1D20170427000060SPEAKER ASM                   M IMCTM S5NB082FTTL  07070IMCT  S5 PTB  00015                    1600 SR        000000000000 FUJITSU TEN (THAILAN17070NL000700717076NL0008008                                                                                                                *          20170422IMF1704224.TXT
MDEDH4255672201704                D89828070300PT4D20170427000030SPEAKER ASM                   M IMCTM S9TS02 FTTL  07070IMCT  S9 PTB  00015                    1300 SR        000000000000 FUJITSU TEN (THAILAN17053NU0014014                                                                                                                              *          20170422IMF1704224.TXT
MDEDH4255673201704                D89829622400PT1D20170426000015RADIO;ASM DVD                 M IMCTM S5NC06 FTTL  07070IMCT  S5 PTB  00003                    2230 SR        000000000000 FUJITSU TEN (THAILAN17008ML0009009                                                                                                                              *          20170422IMF1704224.TXT
MDEDH4255674201704                D89829645700PT1D20170427000030RADIO;ASM DVD                 M IMCTM S5NC06 FTTL  07070IMCT  S5 X    00003                    0900 SR        000000000000 FUJITSU TEN (THAILAN17057NL0018019                                                                                                                              *          20170422IMF1704224.TXT
MDEDH4255675201704                D89829645700PT1D20170427000030RADIO;ASM DVD                 M IMCTM S5NC06 FTTL  07070IMCT  S5 X    00003                    1300 SR        000000000000 FUJITSU TEN (THAILAN17072NL0021022                                                                                                                              *          20170422IMF1704224.TXT
MDEDH4255676201704                D89829645700PT1D20170427000015RADIO;ASM DVD                 M IMCTM S5NC06 FTTL  07070IMCT  S5 X    00003                    1600 SR        000000000000 FUJITSU TEN (THAILAN17070NL0007007                                                                                                                              *          20170422IMF1704224.TXT
MDEDH4255677201704                D89829645700PT4D20170427000015RADIO;ASM DVD                 M IMCTM S9CO001FTTL  07070IMCT  S9 X    00003                    1300 SR        000000000000 FUJITSU TEN (THAILAN17053NU0014014                                                                                                                              *          20170422IMF1704224.TXT
MDEUH4234877201704                D89828070100PT4U20170426000030SPEAKER ASM                   M IMCTM S0FL05 FTTL  07070IMCT  S0 PTB  00003                    2230 SR        000000000000 FUJITSU TEN (THAILAN18019TU0003003                                                                                                                              *          20170422IMF1704224.TXT
MDEUH4234878201704                D89828070100PT4U20170427000060SPEAKER ASM                   M IMCTM S0FL05 FTTL  07070IMCT  S0 PTB  00003                    0400 SR        000000000000 FUJITSU TEN (THAILAN18016TU000900918022TU0013013                                                                                                                *          20170422IMF1704224.TXT
MDEUH4234879201704                D89828070100PT4U20170427000030SPEAKER ASM                   M IMCTM S0FL05 FTTL  07070IMCT  S0 PTB  00003                    1300 SR        000000000000 FUJITSU TEN (THAILAN18023TU0047047                                                                                                                              *          20170422IMF1704224.TXT
MDEUH4234880201704                D89828070100PT4U20170427000060SPEAKER ASM                   M IMCTM S0FL05 FTTL  07070IMCT  S0 PTB  00003                    1600 SR        000000000000 FUJITSU TEN (THAILAN18023TU0048049                                                                                                                              *          20170422IMF1704224.TXT
MDEUH4234881201704                D89828070200PV4U20170426000030SPEAKER ASM                   M IMCTM S0FR05 FTTL  07070IMCT  S0 PTB  00005                    2230 SR        000000000000 FUJITSU TEN (THAILAN18019TU0003003                                                                                                                              *          20170422IMF1704224.TXT
MDEUH4234882201704                D89828070200PV4U20170427000060SPEAKER ASM                   M IMCTM S0FR05 FTTL  07070IMCT  S0 PTB  00005                    0400 SR        000000000000 FUJITSU TEN (THAILAN18016TU000900918022TU0013013                                                                                                                *          20170422IMF1704224.TXT
MDEUH4234883201704                D89828070200PV4U20170427000030SPEAKER ASM                   M IMCTM S0FR05 FTTL  07070IMCT  S0 PTB  00005                    1300 SR        000000000000 FUJITSU TEN (THAILAN18023TU0047047                                                                                                                              *          20170422IMF1704224.TXT
MDEUH4234884201704                D89828070200PV4U20170427000060SPEAKER ASM                   M IMCTM S0FR05 FTTL  07070IMCT  S0 PTB  00005                    1600 SR        000000000000 FUJITSU TEN (THAILAN18023TU0048049                                                                                                                              *          20170422IMF1704224.TXT
MDEUH4234885201704                D89828070300PT4U20170426000030SPEAKER ASM                   M IMCTM S9TS02 FTTL  07070IMCT  S9 PTB  00015                    2230 SR        000000000000 FUJITSU TEN (THAILAN18019TU0003003                                                                                                                              *          20170422IMF1704224.TXT
MDEUH4234886201704                D89828070300PT4U20170427000060SPEAKER ASM                   M IMCTM S9TS02 FTTL  07070IMCT  S9 PTB  00015                    0400 SR        000000000000 FUJITSU TEN (THAILAN18016TU000900918022TU0013013                                                                                                                *          20170422IMF1704224.TXT
MDEUH4234887201704                D89828070300PT4U20170427000030SPEAKER ASM                   M IMCTM S9TS02 FTTL  07070IMCT  S9 PTB  00015                    1300 SR        000000000000 FUJITSU TEN (THAILAN18023TU0047047                                                                                                                              *          20170422IMF1704224.TXT
MDEUH4234888201704                D89828070300PT4U20170427000060SPEAKER ASM                   M IMCTM S9TS02 FTTL  07070IMCT  S9 PTB  00015                    1600 SR        000000000000 FUJITSU TEN (THAILAN18023TU0048049                                                                                                                              *          20170422IMF1704224.TXT
MDEUH4234889201704                D89836135900PT4U20170426000015RADIO;ASM DVD                 M IMCTM S9CO001FTTL  07070IMCT  S9 PTB  00003                    2230 SR        000000000000 FUJITSU TEN (THAILAN18019TU0003003                                                                                                                              *          20170422IMF1704224.TXT
MDEUH4234890201704                D89836135900PT4U20170427000015RADIO;ASM DVD                 M IMCTM S9CO001FTTL  07070IMCT  S9 PTB  00003                    0400 SR        000000000000 FUJITSU TEN (THAILAN18016TU0009009                                                                                                                              *          20170422IMF1704224.TXT
