REC2017042120170421ISUZU                              76     
MDDDH4235828201704                D89821984430PT1D20170425000030RADIO;AM/FM,CD                M IMCTM S5NC06 FTTL  07070IMCT  S5 PTB  00005                    2230 SR        000000000000 FUJITSU TEN (THAILAN170KNEL0084084                                                                                                                              *          20170421IMF1704215.TXT
MDDDH4235829201704                D89821984430PT1D20170426000030RADIO;AM/FM,CD                M IMCTM S5NC06 FTTL  07070IMCT  S5 PTB  00005                    0400 SR        000000000000 FUJITSU TEN (THAILAN170KRAL0045045                                                                                                                              *          20170421IMF1704215.TXT
MDDDH4235830201704                D89821984430PT1D20170426000030RADIO;AM/FM,CD                M IMCTM S5NC06 FTTL  07070IMCT  S5 PTB  00005                    1600 SR        000000000000 FUJITSU TEN (THAILAN170KNCL0063063                                                                                                                              *          20170421IMF1704215.TXT
MDDDH4235831201704                D89821984430PT1D20170426000030RADIO;AM/FM,CD                M IMCTM S5NC06 FTTL  07070IMCT  S5 PTB  00005                    2100 SR        000000000000 FUJITSU TEN (THAILAN170KRAL0046046                                                                                                                              *          20170421IMF1704215.TXT
MDDDH4235832201704                D89825217900PT1D20170426000030RADIO;AM/FM,CD,D              M IMCTM S5NC06 FTTL  07070IMCT  S5 PTB  00003                    1300 SR        000000000000 FUJITSU TEN (THAILAN170KPJL0044044                                                                                                                              *          20170421IMF1704215.TXT
MDDDH4235833201704                D89828070100PV1D20170425000060SPEAKER ASM                   M IMCTM S5MB11 FTTL  07070IMCT  S5 PTB  00003                    2230 SR        000000000000 FUJITSU TEN (THAILAN170KNEL0084084                                                                                                                              *          20170421IMF1704215.TXT
MDDDH4235834201704                D89828070100PV1D20170426000120SPEAKER ASM                   M IMCTM S5MB11 FTTL  07070IMCT  S5 PTB  00003                    0400 SR        000000000000 FUJITSU TEN (THAILAN170KPCL0051051170KRAL0045045                                                                                                                *          20170421IMF1704215.TXT
MDDDH4235835201704                D89828070100PV1D20170426000120SPEAKER ASM                   M IMCTM S5MB11 FTTL  07070IMCT  S5 PTB  00003                    1300 SR        000000000000 FUJITSU TEN (THAILAN170KPFL0146146170KPJL0044044                                                                                                                *          20170421IMF1704215.TXT
MDDDH4235836201704                D89828070100PV1D20170426000120SPEAKER ASM                   M IMCTM S5MB11 FTTL  07070IMCT  S5 PTB  00003                    1600 SR        000000000000 FUJITSU TEN (THAILAN170KNCL0063063170KRRL0020020                                                                                                                *          20170421IMF1704215.TXT
MDDDH4235837201704                D89828070100PV1D20170426000060SPEAKER ASM                   M IMCTM S5MB11 FTTL  07070IMCT  S5 PTB  00003                    2100 SR        000000000000 FUJITSU TEN (THAILAN170KRAL0046046                                                                                                                              *          20170421IMF1704215.TXT
MDDDH4235838201704                D89828070100PV4D20170426000060SPEAKER ASM                   M IMCTM S0FL05 FTTL  07070IMCT  S0 PTB  00003                    0900 SR        000000000000 FUJITSU TEN (THAILAN170KPFU0010010                                                                                                                              *          20170421IMF1704215.TXT
MDDDH4235839201704                D89828070200PV1D20170426000060SPEAKER ASM                   M IMCTM S5MA14 FTTL  07070IMCT  S5 PTB  00005                    1600 SR        000000000000 FUJITSU TEN (THAILAN170KRRL0020020                                                                                                                              *          20170421IMF1704215.TXT
MDDDH4235840201704                D89828070300PT1D20170426000060SPEAKER ASM                   M IMCTM S5NB082FTTL  07070IMCT  S5 PTB  00015                    0400 SR        000000000000 FUJITSU TEN (THAILAN170KPCL0051051                                                                                                                              *          20170421IMF1704215.TXT
MDDDH4235841201704                D89828070300PT1D20170426000120SPEAKER ASM                   M IMCTM S5NB082FTTL  07070IMCT  S5 PTB  00015                    1300 SR        000000000000 FUJITSU TEN (THAILAN170KPFL0146146170KPJL0044044                                                                                                                *          20170421IMF1704215.TXT
MDDDH4235842201704                D89828070300PT1D20170426000060SPEAKER ASM                   M IMCTM S5NB082FTTL  07070IMCT  S5 PTB  00015                    1600 SR        000000000000 FUJITSU TEN (THAILAN170KRRL0020020                                                                                                                              *          20170421IMF1704215.TXT
MDDDH4235843201704                D89828070300PT4D20170426000060SPEAKER ASM                   M IMCTM S9TS02 FTTL  07070IMCT  S9 PTB  00015                    0900 SR        000000000000 FUJITSU TEN (THAILAN170KPFU0010010                                                                                                                              *          20170421IMF1704215.TXT
MDDDH4235844201704                D89831228300PT1D20170426000030RADIO;AM/FM,CD                M IMCTM S5NC06 FTTL  07070IMCT  S5 CPB  00003                    0400 SR        000000000000 FUJITSU TEN (THAILAN170KPCL0051051                                                                                                                              *          20170421IMF1704215.TXT
MDDDH4235845201704                D89831228300PT1D20170426000030RADIO;AM/FM,CD                M IMCTM S5NC06 FTTL  07070IMCT  S5 CPB  00003                    1300 SR        000000000000 FUJITSU TEN (THAILAN170KPFL0146146                                                                                                                              *          20170421IMF1704215.TXT
MDDDH4235846201704                D89831228300PT4D20170426000030RADIO;AM/FM,CD                M IMCTM S9CO001FTTL  07070IMCT  S9 CPB  00003                    0900 SR        000000000000 FUJITSU TEN (THAILAN170KPFU0010010                                                                                                                              *          20170421IMF1704215.TXT
MDDUH4229172201704                D89828070100PT4U20170425000030SPEAKER ASM                   M IMCTM S0FL05 FTTL  07070IMCT  S0 PTB  00003                    2230 SR        000000000000 FUJITSU TEN (THAILAN180LUDU0105105                                                                                                                              *          20170421IMF1704215.TXT
MDDUH4229173201704                D89828070100PT4U20170426000030SPEAKER ASM                   M IMCTM S0FL05 FTTL  07070IMCT  S0 PTB  00003                    0230 SR        000000000000 FUJITSU TEN (THAILAN180LUDU0106106                                                                                                                              *          20170421IMF1704215.TXT
MDDUH4229174201704                D89828070100PT4U20170426000030SPEAKER ASM                   M IMCTM S0FL05 FTTL  07070IMCT  S0 PTB  00003                    0400 SR        000000000000 FUJITSU TEN (THAILAN180LUEU0063063                                                                                                                              *          20170421IMF1704215.TXT
MDDUH4229175201704                D89828070100PT4U20170426000060SPEAKER ASM                   M IMCTM S0FL05 FTTL  07070IMCT  S0 PTB  00003                    1600 SR        000000000000 FUJITSU TEN (THAILAN180LUDU0107107180LUFU0017017                                                                                                                *          20170421IMF1704215.TXT
MDDUH4229176201704                D89828070200PV4U20170425000030SPEAKER ASM                   M IMCTM S0FR05 FTTL  07070IMCT  S0 PTB  00005                    2230 SR        000000000000 FUJITSU TEN (THAILAN180LUDU0105105                                                                                                                              *          20170421IMF1704215.TXT
MDDUH4229177201704                D89828070200PV4U20170426000030SPEAKER ASM                   M IMCTM S0FR05 FTTL  07070IMCT  S0 PTB  00005                    0230 SR        000000000000 FUJITSU TEN (THAILAN180LUDU0106106                                                                                                                              *          20170421IMF1704215.TXT
MDDUH4229178201704                D89828070200PV4U20170426000030SPEAKER ASM                   M IMCTM S0FR05 FTTL  07070IMCT  S0 PTB  00005                    0400 SR        000000000000 FUJITSU TEN (THAILAN180LUEU0063063                                                                                                                              *          20170421IMF1704215.TXT
MDDUH4229179201704                D89828070200PV4U20170426000060SPEAKER ASM                   M IMCTM S0FR05 FTTL  07070IMCT  S0 PTB  00005                    1600 SR        000000000000 FUJITSU TEN (THAILAN180LUDU0107107180LUFU0017017                                                                                                                *          20170421IMF1704215.TXT
MDDUH4229180201704                D89828070300PT4U20170425000030SPEAKER ASM                   M IMCTM S9TS02 FTTL  07070IMCT  S9 PTB  00015                    2230 SR        000000000000 FUJITSU TEN (THAILAN180LUDU0105105                                                                                                                              *          20170421IMF1704215.TXT
MDDUH4229181201704                D89828070300PT4U20170426000030SPEAKER ASM                   M IMCTM S9TS02 FTTL  07070IMCT  S9 PTB  00015                    0230 SR        000000000000 FUJITSU TEN (THAILAN180LUDU0106106                                                                                                                              *          20170421IMF1704215.TXT
MDDUH4229182201704                D89828070300PT4U20170426000030SPEAKER ASM                   M IMCTM S9TS02 FTTL  07070IMCT  S9 PTB  00015                    0400 SR        000000000000 FUJITSU TEN (THAILAN180LUEU0063063                                                                                                                              *          20170421IMF1704215.TXT
MDDUH4229183201704                D89828070300PT4U20170426000060SPEAKER ASM                   M IMCTM S9TS02 FTTL  07070IMCT  S9 PTB  00015                    1600 SR        000000000000 FUJITSU TEN (THAILAN180LUDU0107107180LUFU0017017                                                                                                                *          20170421IMF1704215.TXT
MDEDH4249476201704                D89827952200PT1D20170426000015RADIO;AM/FM,CD,D              M IMCTM S5NC06 FTTL  07070IMCT  S5 X    00003                    1600 SR        000000000000 FUJITSU TEN (THAILAN17065NL0010010                                                                                                                              *          20170421IMF1704215.TXT
MDEDH4249477201704                D89827952200PT1D20170426000015RADIO;AM/FM,CD,D              M IMCTM S5NC06 FTTL  07070IMCT  S5 X    00003                    2100 SR        000000000000 FUJITSU TEN (THAILAN17065NL0011011                                                                                                                              *          20170421IMF1704215.TXT
MDEDH4249478201704                D89828070100PV1D20170425000030SPEAKER ASM                   M IMCTM S5MB11 FTTL  07070IMCT  S5 PTB  00003                    2230 SR        000000000000 FUJITSU TEN (THAILAN17001NL0010010                                                                                                                              *          20170421IMF1704215.TXT
MDEDH4249479201704                D89828070100PV1D20170426000030SPEAKER ASM                   M IMCTM S5MB11 FTTL  07070IMCT  S5 PTB  00003                    0230 SR        000000000000 FUJITSU TEN (THAILAN17069NL0008008                                                                                                                              *          20170421IMF1704215.TXT
MDEDH4249480201704                D89828070100PV1D20170426000090SPEAKER ASM                   M IMCTM S5MB11 FTTL  07070IMCT  S5 PTB  00003                    0400 SR        000000000000 FUJITSU TEN (THAILAN17029ML001401517063NL0017017                                                                                                                *          20170421IMF1704215.TXT
MDEDH4249481201704                D89828070100PV1D20170426000090SPEAKER ASM                   M IMCTM S5MB11 FTTL  07070IMCT  S5 PTB  00003                    0900 SR        000000000000 FUJITSU TEN (THAILAN17058NL001601717075NL0010010                                                                                                                *          20170421IMF1704215.TXT
MDEDH4249482201704                D89828070100PV1D20170426000030SPEAKER ASM                   M IMCTM S5MB11 FTTL  07070IMCT  S5 PTB  00003                    1300 SR        000000000000 FUJITSU TEN (THAILAN17023ML0002002                                                                                                                              *          20170421IMF1704215.TXT
MDEDH4249483201704                D89828070100PV1D20170426000030SPEAKER ASM                   M IMCTM S5MB11 FTTL  07070IMCT  S5 PTB  00003                    1600 SR        000000000000 FUJITSU TEN (THAILAN17065NL0010010                                                                                                                              *          20170421IMF1704215.TXT
MDEDH4249484201704                D89828070100PV1D20170426000030SPEAKER ASM                   M IMCTM S5MB11 FTTL  07070IMCT  S5 PTB  00003                    2100 SR        000000000000 FUJITSU TEN (THAILAN17065NL0011011                                                                                                                              *          20170421IMF1704215.TXT
MDEDH4249485201704                D89828070100PV1D20170426000030SPEAKER ASM                   M IMCTM S5MB11 FTTL  07070IMCT  S5 PTB  00003                    2230 SR        000000000000 FUJITSU TEN (THAILAN17008ML0008008                                                                                                                              *          20170421IMF1704215.TXT
MDEDH4249486201704                D89828070100PV4D20170426000030SPEAKER ASM                   M IMCTM S0FL05 FTTL  07070IMCT  S0 PTB  00003                    2230 SR        000000000000 FUJITSU TEN (THAILAN17055NU0009009                                                                                                                              *          20170421IMF1704215.TXT
MDEDH4249487201704                D89828070200PV1D20170425000030SPEAKER ASM                   M IMCTM S5MA14 FTTL  07070IMCT  S5 PTB  00005                    2230 SR        000000000000 FUJITSU TEN (THAILAN17001NL0010010                                                                                                                              *          20170421IMF1704215.TXT
MDEDH4249488201704                D89828070200PV1D20170426000030SPEAKER ASM                   M IMCTM S5MA14 FTTL  07070IMCT  S5 PTB  00005                    0230 SR        000000000000 FUJITSU TEN (THAILAN17069NL0008008                                                                                                                              *          20170421IMF1704215.TXT
MDEDH4249489201704                D89828070200PV1D20170426000060SPEAKER ASM                   M IMCTM S5MA14 FTTL  07070IMCT  S5 PTB  00005                    0400 SR        000000000000 FUJITSU TEN (THAILAN17029ML0014015                                                                                                                              *          20170421IMF1704215.TXT
MDEDH4249490201704                D89828070200PV1D20170426000090SPEAKER ASM                   M IMCTM S5MA14 FTTL  07070IMCT  S5 PTB  00005                    0900 SR        000000000000 FUJITSU TEN (THAILAN17058NL001601717075NL0010010                                                                                                                *          20170421IMF1704215.TXT
MDEDH4249491201704                D89828070200PV1D20170426000030SPEAKER ASM                   M IMCTM S5MA14 FTTL  07070IMCT  S5 PTB  00005                    1300 SR        000000000000 FUJITSU TEN (THAILAN17023ML0002002                                                                                                                              *          20170421IMF1704215.TXT
MDEDH4249492201704                D89828070300PT1D20170425000030SPEAKER ASM                   M IMCTM S5NB082FTTL  07070IMCT  S5 PTB  00015                    2230 SR        000000000000 FUJITSU TEN (THAILAN17001NL0010010                                                                                                                              *          20170421IMF1704215.TXT
MDEDH4249493201704                D89828070300PT1D20170426000030SPEAKER ASM                   M IMCTM S5NB082FTTL  07070IMCT  S5 PTB  00015                    0230 SR        000000000000 FUJITSU TEN (THAILAN17069NL0008008                                                                                                                              *          20170421IMF1704215.TXT
MDEDH4249494201704                D89828070300PT1D20170426000090SPEAKER ASM                   M IMCTM S5NB082FTTL  07070IMCT  S5 PTB  00015                    0400 SR        000000000000 FUJITSU TEN (THAILAN17029ML001401517063NL0017017                                                                                                                *          20170421IMF1704215.TXT
MDEDH4249495201704                D89828070300PT1D20170426000090SPEAKER ASM                   M IMCTM S5NB082FTTL  07070IMCT  S5 PTB  00015                    0900 SR        000000000000 FUJITSU TEN (THAILAN17058NL001601717075NL0010010                                                                                                                *          20170421IMF1704215.TXT
MDEDH4249496201704                D89828070300PT1D20170426000030SPEAKER ASM                   M IMCTM S5NB082FTTL  07070IMCT  S5 PTB  00015                    1300 SR        000000000000 FUJITSU TEN (THAILAN17023ML0002002                                                                                                                              *          20170421IMF1704215.TXT
MDEDH4249497201704                D89828070300PT1D20170426000030SPEAKER ASM                   M IMCTM S5NB082FTTL  07070IMCT  S5 PTB  00015                    1600 SR        000000000000 FUJITSU TEN (THAILAN17065NL0010010                                                                                                                              *          20170421IMF1704215.TXT
MDEDH4249498201704                D89828070300PT1D20170426000030SPEAKER ASM                   M IMCTM S5NB082FTTL  07070IMCT  S5 PTB  00015                    2100 SR        000000000000 FUJITSU TEN (THAILAN17065NL0011011                                                                                                                              *          20170421IMF1704215.TXT
MDEDH4249499201704                D89828070300PT1D20170426000030SPEAKER ASM                   M IMCTM S5NB082FTTL  07070IMCT  S5 PTB  00015                    2230 SR        000000000000 FUJITSU TEN (THAILAN17008ML0008008                                                                                                                              *          20170421IMF1704215.TXT
MDEDH4249500201704                D89828070300PT4D20170426000030SPEAKER ASM                   M IMCTM S9TS02 FTTL  07070IMCT  S9 PTB  00015                    2230 SR        000000000000 FUJITSU TEN (THAILAN17055NU0009009                                                                                                                              *          20170421IMF1704215.TXT
MDEDH4249501201704                D89829622400PT1D20170426000015RADIO;ASM DVD                 M IMCTM S5NC06 FTTL  07070IMCT  S5 PTB  00003                    2230 SR        000000000000 FUJITSU TEN (THAILAN17008ML0008008                                                                                                                              *          20170421IMF1704215.TXT
MDEDH4249502201704                D89829645700PT1D20170426000015RADIO;ASM DVD                 M IMCTM S5NC06 FTTL  07070IMCT  S5 X    00003                    0230 SR        000000000000 FUJITSU TEN (THAILAN17069NL0008008                                                                                                                              *          20170421IMF1704215.TXT
MDEDH4249503201704                D89829645700PT1D20170426000015RADIO;ASM DVD                 M IMCTM S5NC06 FTTL  07070IMCT  S5 X    00003                    0400 SR        000000000000 FUJITSU TEN (THAILAN17063NL0017017                                                                                                                              *          20170421IMF1704215.TXT
MDEDH4249504201704                D89829645700PT1D20170426000045RADIO;ASM DVD                 M IMCTM S5NC06 FTTL  07070IMCT  S5 X    00003                    0900 SR        000000000000 FUJITSU TEN (THAILAN17058NL001601717075NL0010010                                                                                                                *          20170421IMF1704215.TXT
MDEDH4249505201704                D89829645700PT4D20170426000015RADIO;ASM DVD                 M IMCTM S9CO001FTTL  07070IMCT  S9 X    00003                    2230 SR        000000000000 FUJITSU TEN (THAILAN17055NU0009009                                                                                                                              *          20170421IMF1704215.TXT
MDEDH4249506201704                D89831228800PT1D20170425000015RADIO;AM/FM,CD                M IMCTM S5NC06 FTTL  07070IMCT  S5 PTB  00003                    2230 SR        000000000000 FUJITSU TEN (THAILAN17001NL0010010                                                                                                                              *          20170421IMF1704215.TXT
MDEDH4249507201704                D89831228800PT1D20170426000015RADIO;AM/FM,CD                M IMCTM S5NC06 FTTL  07070IMCT  S5 PTB  00003                    1300 SR        000000000000 FUJITSU TEN (THAILAN17023ML0002002                                                                                                                              *          20170421IMF1704215.TXT
MDEUH4231075201704                D89828070100PT4U20170426000030SPEAKER ASM                   M IMCTM S0FL05 FTTL  07070IMCT  S0 PTB  00003                    0400 SR        000000000000 FUJITSU TEN (THAILAN18023TU0045045                                                                                                                              *          20170421IMF1704215.TXT
MDEUH4231076201704                D89828070100PT4U20170426000060SPEAKER ASM                   M IMCTM S0FL05 FTTL  07070IMCT  S0 PTB  00003                    0900 SR        000000000000 FUJITSU TEN (THAILAN18016TU000800818019TU0002002                                                                                                                *          20170421IMF1704215.TXT
MDEUH4231077201704                D89828070100PT4U20170426000030SPEAKER ASM                   M IMCTM S0FL05 FTTL  07070IMCT  S0 PTB  00003                    1600 SR        000000000000 FUJITSU TEN (THAILAN18023TU0046046                                                                                                                              *          20170421IMF1704215.TXT
MDEUH4231078201704                D89828070100PT4U20170426000030SPEAKER ASM                   M IMCTM S0FL05 FTTL  07070IMCT  S0 PTB  00003                    2100 SR        000000000000 FUJITSU TEN (THAILAN160B95U0049049                                                                                                                              *          20170421IMF1704215.TXT
MDEUH4231079201704                D89828070200PV4U20170426000030SPEAKER ASM                   M IMCTM S0FR05 FTTL  07070IMCT  S0 PTB  00005                    0400 SR        000000000000 FUJITSU TEN (THAILAN18023TU0045045                                                                                                                              *          20170421IMF1704215.TXT
MDEUH4231080201704                D89828070200PV4U20170426000060SPEAKER ASM                   M IMCTM S0FR05 FTTL  07070IMCT  S0 PTB  00005                    0900 SR        000000000000 FUJITSU TEN (THAILAN18016TU000800818019TU0002002                                                                                                                *          20170421IMF1704215.TXT
MDEUH4231081201704                D89828070200PV4U20170426000030SPEAKER ASM                   M IMCTM S0FR05 FTTL  07070IMCT  S0 PTB  00005                    1600 SR        000000000000 FUJITSU TEN (THAILAN18023TU0046046                                                                                                                              *          20170421IMF1704215.TXT
MDEUH4231082201704                D89828070200PV4U20170426000030SPEAKER ASM                   M IMCTM S0FR05 FTTL  07070IMCT  S0 PTB  00005                    2100 SR        000000000000 FUJITSU TEN (THAILAN160B95U0049049                                                                                                                              *          20170421IMF1704215.TXT
MDEUH4231083201704                D89828070300PT4U20170426000030SPEAKER ASM                   M IMCTM S9TS02 FTTL  07070IMCT  S9 PTB  00015                    0400 SR        000000000000 FUJITSU TEN (THAILAN18023TU0045045                                                                                                                              *          20170421IMF1704215.TXT
MDEUH4231084201704                D89828070300PT4U20170426000060SPEAKER ASM                   M IMCTM S9TS02 FTTL  07070IMCT  S9 PTB  00015                    0900 SR        000000000000 FUJITSU TEN (THAILAN18016TU000800818019TU0002002                                                                                                                *          20170421IMF1704215.TXT
MDEUH4231085201704                D89828070300PT4U20170426000030SPEAKER ASM                   M IMCTM S9TS02 FTTL  07070IMCT  S9 PTB  00015                    1600 SR        000000000000 FUJITSU TEN (THAILAN18023TU0046046                                                                                                                              *          20170421IMF1704215.TXT
MDEUH4231086201704                D89828070300PT4U20170426000030SPEAKER ASM                   M IMCTM S9TS02 FTTL  07070IMCT  S9 PTB  00015                    2100 SR        000000000000 FUJITSU TEN (THAILAN160B95U0049049                                                                                                                              *          20170421IMF1704215.TXT
MDEUH4231087201704                D89836135900PT4U20170426000030RADIO;ASM DVD                 M IMCTM S9CO001FTTL  07070IMCT  S9 PTB  00003                    0900 SR        000000000000 FUJITSU TEN (THAILAN18016TU000800818019TU0002002                                                                                                                *          20170421IMF1704215.TXT
