REC2017041820170418ISUZU                              57     
MDDDH4222724201704                D89821984430PT1D20170422000030RADIO;AM/FM,CD                M IMCTM S5NC06 FTTL  07070IMCT  S5 PTB  00005                    0230 SR        000000000000 FUJITSU TEN (THAILAN170KNEL0081081                                                                                                                              *          20170418IMF1704185.TXT
MDDDH4222725201704                D89821984430PT1D20170422000060RADIO;AM/FM,CD                M IMCTM S5NC06 FTTL  07070IMCT  S5 PTB  00005                    0400 SR        000000000000 FUJITSU TEN (THAILAN170KNFL0033033170KRAL0042042                                                                                                                *          20170418IMF1704185.TXT
MDDDH4222726201704                D89821984430PT1D20170422000030RADIO;AM/FM,CD                M IMCTM S5NC06 FTTL  07070IMCT  S5 PTB  00005                    1600 SR        000000000000 FUJITSU TEN (THAILAN170KNEL0082082                                                                                                                              *          20170418IMF1704185.TXT
MDDDH4222727201704                D89828070100PV1D20170421000060SPEAKER ASM                   M IMCTM S5MB11 FTTL  07070IMCT  S5 PTB  00003                    2230 SR        000000000000 FUJITSU TEN (THAILAN170KRFL0069069                                                                                                                              *          20170418IMF1704185.TXT
MDDDH4222728201704                D89828070100PV1D20170422000060SPEAKER ASM                   M IMCTM S5MB11 FTTL  07070IMCT  S5 PTB  00003                    0230 SR        000000000000 FUJITSU TEN (THAILAN170KNEL0081081                                                                                                                              *          20170418IMF1704185.TXT
MDDDH4222729201704                D89828070100PV1D20170422000120SPEAKER ASM                   M IMCTM S5MB11 FTTL  07070IMCT  S5 PTB  00003                    0400 SR        000000000000 FUJITSU TEN (THAILAN170KNFL0033033170KRAL0042042                                                                                                                *          20170418IMF1704185.TXT
MDDDH4222730201704                D89828070100PV1D20170422000060SPEAKER ASM                   M IMCTM S5MB11 FTTL  07070IMCT  S5 PTB  00003                    0900 SR        000000000000 FUJITSU TEN (THAILAN170KPGL0016016                                                                                                                              *          20170418IMF1704185.TXT
MDDDH4222731201704                D89828070100PV1D20170422000060SPEAKER ASM                   M IMCTM S5MB11 FTTL  07070IMCT  S5 PTB  00003                    1300 SR        000000000000 FUJITSU TEN (THAILAN170KRHL0024024                                                                                                                              *          20170418IMF1704185.TXT
MDDDH4222732201704                D89828070100PV1D20170422000060SPEAKER ASM                   M IMCTM S5MB11 FTTL  07070IMCT  S5 PTB  00003                    1600 SR        000000000000 FUJITSU TEN (THAILAN170KNEL0082082                                                                                                                              *          20170418IMF1704185.TXT
MDDDH4222733201704                D89828070200PV1D20170421000060SPEAKER ASM                   M IMCTM S5MA14 FTTL  07070IMCT  S5 PTB  00005                    2230 SR        000000000000 FUJITSU TEN (THAILAN170KRFL0069069                                                                                                                              *          20170418IMF1704185.TXT
MDDDH4222734201704                D89828070200PV1D20170422000060SPEAKER ASM                   M IMCTM S5MA14 FTTL  07070IMCT  S5 PTB  00005                    1300 SR        000000000000 FUJITSU TEN (THAILAN170KRHL0024024                                                                                                                              *          20170418IMF1704185.TXT
MDDDH4222735201704                D89828070300PT1D20170421000060SPEAKER ASM                   M IMCTM S5NB082FTTL  07070IMCT  S5 PTB  00015                    2230 SR        000000000000 FUJITSU TEN (THAILAN170KRFL0069069                                                                                                                              *          20170418IMF1704185.TXT
MDDDH4222736201704                D89828070300PT1D20170422000060SPEAKER ASM                   M IMCTM S5NB082FTTL  07070IMCT  S5 PTB  00015                    0900 SR        000000000000 FUJITSU TEN (THAILAN170KPGL0016016                                                                                                                              *          20170418IMF1704185.TXT
MDDDH4222737201704                D89828070300PT1D20170422000060SPEAKER ASM                   M IMCTM S5NB082FTTL  07070IMCT  S5 PTB  00015                    1300 SR        000000000000 FUJITSU TEN (THAILAN170KRHL0024024                                                                                                                              *          20170418IMF1704185.TXT
MDDDH4222738201704                D89829645900PT1D20170421000030RADIO;ASM DVD                 M IMCTM S5NC06 FTTL  07070IMCT  S5 CPB  00003                    2230 SR        000000000000 FUJITSU TEN (THAILAN170KRFL0069069                                                                                                                              *          20170418IMF1704185.TXT
MDDDH4222739201704                D89831228300PT1D20170422000030RADIO;AM/FM,CD                M IMCTM S5NC06 FTTL  07070IMCT  S5 CPB  00003                    0900 SR        000000000000 FUJITSU TEN (THAILAN170KPGL0016016                                                                                                                              *          20170418IMF1704185.TXT
MDDUH4219218201704                D89828070100PT4U20170422000060SPEAKER ASM                   M IMCTM S0FL05 FTTL  07070IMCT  S0 PTB  00003                    0400 SR        000000000000 FUJITSU TEN (THAILAN180LUDU0098098180LUEU0059059                                                                                                                *          20170418IMF1704185.TXT
MDDUH4219219201704                D89828070100PT4U20170422000030SPEAKER ASM                   M IMCTM S0FL05 FTTL  07070IMCT  S0 PTB  00003                    0900 SR        000000000000 FUJITSU TEN (THAILAN180LUEU0060060                                                                                                                              *          20170418IMF1704185.TXT
MDDUH4219220201704                D89828070100PT4U20170422000030SPEAKER ASM                   M IMCTM S0FL05 FTTL  07070IMCT  S0 PTB  00003                    1300 SR        000000000000 FUJITSU TEN (THAILAN180LUCU0041041                                                                                                                              *          20170418IMF1704185.TXT
MDDUH4219221201704                D89828070100PT4U20170422000030SPEAKER ASM                   M IMCTM S0FL05 FTTL  07070IMCT  S0 PTB  00003                    2100 SR        000000000000 FUJITSU TEN (THAILAN180LUDU0099099                                                                                                                              *          20170418IMF1704185.TXT
MDDUH4219222201704                D89828070200PV4U20170422000060SPEAKER ASM                   M IMCTM S0FR05 FTTL  07070IMCT  S0 PTB  00005                    0400 SR        000000000000 FUJITSU TEN (THAILAN180LUDU0098098180LUEU0059059                                                                                                                *          20170418IMF1704185.TXT
MDDUH4219223201704                D89828070200PV4U20170422000030SPEAKER ASM                   M IMCTM S0FR05 FTTL  07070IMCT  S0 PTB  00005                    0900 SR        000000000000 FUJITSU TEN (THAILAN180LUEU0060060                                                                                                                              *          20170418IMF1704185.TXT
MDDUH4219224201704                D89828070200PV4U20170422000030SPEAKER ASM                   M IMCTM S0FR05 FTTL  07070IMCT  S0 PTB  00005                    1300 SR        000000000000 FUJITSU TEN (THAILAN180LUCU0041041                                                                                                                              *          20170418IMF1704185.TXT
MDDUH4219225201704                D89828070200PV4U20170422000030SPEAKER ASM                   M IMCTM S0FR05 FTTL  07070IMCT  S0 PTB  00005                    2100 SR        000000000000 FUJITSU TEN (THAILAN180LUDU0099099                                                                                                                              *          20170418IMF1704185.TXT
MDDUH4219226201704                D89828070300PT4U20170422000060SPEAKER ASM                   M IMCTM S9TS02 FTTL  07070IMCT  S9 PTB  00015                    0400 SR        000000000000 FUJITSU TEN (THAILAN180LUDU0098098180LUEU0059059                                                                                                                *          20170418IMF1704185.TXT
MDDUH4219227201704                D89828070300PT4U20170422000030SPEAKER ASM                   M IMCTM S9TS02 FTTL  07070IMCT  S9 PTB  00015                    0900 SR        000000000000 FUJITSU TEN (THAILAN180LUEU0060060                                                                                                                              *          20170418IMF1704185.TXT
MDDUH4219228201704                D89828070300PT4U20170422000030SPEAKER ASM                   M IMCTM S9TS02 FTTL  07070IMCT  S9 PTB  00015                    1300 SR        000000000000 FUJITSU TEN (THAILAN180LUCU0041041                                                                                                                              *          20170418IMF1704185.TXT
MDDUH4219229201704                D89828070300PT4U20170422000030SPEAKER ASM                   M IMCTM S9TS02 FTTL  07070IMCT  S9 PTB  00015                    2100 SR        000000000000 FUJITSU TEN (THAILAN180LUDU0099099                                                                                                                              *          20170418IMF1704185.TXT
MDDUH4219230201704                D89835097900PT4U20170422000015RADIO;ASM DVD                 M IMCTM S9CO001FTTL  07070IMCT  S9 PTB  00003                    1300 SR        000000000000 FUJITSU TEN (THAILAN180LUCU0041041                                                                                                                              *          20170418IMF1704185.TXT
MDEDH4233640201704                D89828070100PV1D20170421000090SPEAKER ASM                   M IMCTM S5MB11 FTTL  07070IMCT  S5 PTB  00003                    2230 SR        000000000000 FUJITSU TEN (THAILAN17023QL000200317064NL0012012                                                                                                                *          20170418IMF1704185.TXT
MDEDH4233641201704                D89828070100PV1D20170422000030SPEAKER ASM                   M IMCTM S5MB11 FTTL  07070IMCT  S5 PTB  00003                    0400 SR        000000000000 FUJITSU TEN (THAILAN17007SL0004004                                                                                                                              *          20170418IMF1704185.TXT
MDEDH4233642201704                D89828070100PV1D20170422000060SPEAKER ASM                   M IMCTM S5MB11 FTTL  07070IMCT  S5 PTB  00003                    0900 SR        000000000000 FUJITSU TEN (THAILAN17060NL001701717079NL0048048                                                                                                                *          20170418IMF1704185.TXT
MDEDH4233643201704                D89828070100PV1D20170422000090SPEAKER ASM                   M IMCTM S5MB11 FTTL  07070IMCT  S5 PTB  00003                    1300 SR        000000000000 FUJITSU TEN (THAILAN17079NL0049051                                                                                                                              *          20170418IMF1704185.TXT
MDEDH4233644201704                D89828070200PV1D20170422000030SPEAKER ASM                   M IMCTM S5MA14 FTTL  07070IMCT  S5 PTB  00005                    0400 SR        000000000000 FUJITSU TEN (THAILAN17007SL0004004                                                                                                                              *          20170418IMF1704185.TXT
MDEDH4233645201704                D89828070200PV1D20170422000060SPEAKER ASM                   M IMCTM S5MA14 FTTL  07070IMCT  S5 PTB  00005                    0900 SR        000000000000 FUJITSU TEN (THAILAN17060NL001701717079NL0048048                                                                                                                *          20170418IMF1704185.TXT
MDEDH4233646201704                D89828070200PV1D20170422000090SPEAKER ASM                   M IMCTM S5MA14 FTTL  07070IMCT  S5 PTB  00005                    1300 SR        000000000000 FUJITSU TEN (THAILAN17079NL0049051                                                                                                                              *          20170418IMF1704185.TXT
MDEDH4233647201704                D89828070300PT1D20170421000030SPEAKER ASM                   M IMCTM S5NB082FTTL  07070IMCT  S5 PTB  00015                    2230 SR        000000000000 FUJITSU TEN (THAILAN17064NL0012012                                                                                                                              *          20170418IMF1704185.TXT
MDEDH4233648201704                D89828070300PT1D20170422000030SPEAKER ASM                   M IMCTM S5NB082FTTL  07070IMCT  S5 PTB  00015                    0400 SR        000000000000 FUJITSU TEN (THAILAN17007SL0004004                                                                                                                              *          20170418IMF1704185.TXT
MDEDH4233649201704                D89828070300PT1D20170422000060SPEAKER ASM                   M IMCTM S5NB082FTTL  07070IMCT  S5 PTB  00015                    0900 SR        000000000000 FUJITSU TEN (THAILAN17060NL001701717079NL0048048                                                                                                                *          20170418IMF1704185.TXT
MDEDH4233650201704                D89828070300PT1D20170422000090SPEAKER ASM                   M IMCTM S5NB082FTTL  07070IMCT  S5 PTB  00015                    1300 SR        000000000000 FUJITSU TEN (THAILAN17079NL0049051                                                                                                                              *          20170418IMF1704185.TXT
MDEDH4233651201704                D89829645700PT1D20170421000015RADIO;ASM DVD                 M IMCTM S5NC06 FTTL  07070IMCT  S5 X    00003                    2230 SR        000000000000 FUJITSU TEN (THAILAN17064NL0012012                                                                                                                              *          20170418IMF1704185.TXT
MDEDH4233652201704                D89829645700PT1D20170422000015RADIO;ASM DVD                 M IMCTM S5NC06 FTTL  07070IMCT  S5 X    00003                    0900 SR        000000000000 FUJITSU TEN (THAILAN17079NL0048048                                                                                                                              *          20170418IMF1704185.TXT
MDEDH4233653201704                D89829645700PT1D20170422000045RADIO;ASM DVD                 M IMCTM S5NC06 FTTL  07070IMCT  S5 X    00003                    1300 SR        000000000000 FUJITSU TEN (THAILAN17079NL0049051                                                                                                                              *          20170418IMF1704185.TXT
MDEDH4233654201704                D89831229200PT1D20170422000015RADIO;AM/FM,CD                M IMCTM S5NC06 FTTL  07070IMCT  S5 PTB  00003                    0400 SR        000000000000 FUJITSU TEN (THAILAN17007SL0004004                                                                                                                              *          20170418IMF1704185.TXT
MDEUH4219510201704                D89828070100PT4U20170421000060SPEAKER ASM                   M IMCTM S0FL05 FTTL  07070IMCT  S0 PTB  00003                    2230 SR        000000000000 FUJITSU TEN (THAILAN160B95U004804818023TU0036036                                                                                                                *          20170418IMF1704185.TXT
MDEUH4219511201704                D89828070100PT4U20170422000030SPEAKER ASM                   M IMCTM S0FL05 FTTL  07070IMCT  S0 PTB  00003                    0400 SR        000000000000 FUJITSU TEN (THAILAN18023TU0037037                                                                                                                              *          20170418IMF1704185.TXT
MDEUH4219512201704                D89828070100PT4U20170422000030SPEAKER ASM                   M IMCTM S0FL05 FTTL  07070IMCT  S0 PTB  00003                    1300 SR        000000000000 FUJITSU TEN (THAILAN18021TU0005005                                                                                                                              *          20170418IMF1704185.TXT
MDEUH4219513201704                D89828070100PT4U20170422000030SPEAKER ASM                   M IMCTM S0FL05 FTTL  07070IMCT  S0 PTB  00003                    1600 SR        000000000000 FUJITSU TEN (THAILAN18023TU0038038                                                                                                                              *          20170418IMF1704185.TXT
MDEUH4219514201704                D89828070200PV4U20170421000060SPEAKER ASM                   M IMCTM S0FR05 FTTL  07070IMCT  S0 PTB  00005                    2230 SR        000000000000 FUJITSU TEN (THAILAN160B95U004804818023TU0036036                                                                                                                *          20170418IMF1704185.TXT
MDEUH4219515201704                D89828070200PV4U20170422000030SPEAKER ASM                   M IMCTM S0FR05 FTTL  07070IMCT  S0 PTB  00005                    0400 SR        000000000000 FUJITSU TEN (THAILAN18023TU0037037                                                                                                                              *          20170418IMF1704185.TXT
MDEUH4219516201704                D89828070200PV4U20170422000030SPEAKER ASM                   M IMCTM S0FR05 FTTL  07070IMCT  S0 PTB  00005                    1300 SR        000000000000 FUJITSU TEN (THAILAN18021TU0005005                                                                                                                              *          20170418IMF1704185.TXT
MDEUH4219517201704                D89828070200PV4U20170422000030SPEAKER ASM                   M IMCTM S0FR05 FTTL  07070IMCT  S0 PTB  00005                    1600 SR        000000000000 FUJITSU TEN (THAILAN18023TU0038038                                                                                                                              *          20170418IMF1704185.TXT
MDEUH4219518201704                D89828070300PT4U20170421000060SPEAKER ASM                   M IMCTM S9TS02 FTTL  07070IMCT  S9 PTB  00015                    2230 SR        000000000000 FUJITSU TEN (THAILAN160B95U004804818023TU0036036                                                                                                                *          20170418IMF1704185.TXT
MDEUH4219519201704                D89828070300PT4U20170422000030SPEAKER ASM                   M IMCTM S9TS02 FTTL  07070IMCT  S9 PTB  00015                    0400 SR        000000000000 FUJITSU TEN (THAILAN18023TU0037037                                                                                                                              *          20170418IMF1704185.TXT
MDEUH4219520201704                D89828070300PT4U20170422000030SPEAKER ASM                   M IMCTM S9TS02 FTTL  07070IMCT  S9 PTB  00015                    1300 SR        000000000000 FUJITSU TEN (THAILAN18021TU0005005                                                                                                                              *          20170418IMF1704185.TXT
MDEUH4219521201704                D89828070300PT4U20170422000030SPEAKER ASM                   M IMCTM S9TS02 FTTL  07070IMCT  S9 PTB  00015                    1600 SR        000000000000 FUJITSU TEN (THAILAN18023TU0038038                                                                                                                              *          20170418IMF1704185.TXT
MDEUH4219522201704                D89836135900PT4U20170422000015RADIO;ASM DVD                 M IMCTM S9CO001FTTL  07070IMCT  S9 PTB  00003                    1300 SR        000000000000 FUJITSU TEN (THAILAN18021TU0005005                                                                                                                              *          20170418IMF1704185.TXT
