REC2017041920170419ISUZU                              56     
MDDDH4226802201704                D89821984430PT1D20170424000030RADIO;AM/FM,CD                M IMCTM S5NC06 FTTL  07070IMCT  S5 PTB  00005                    0900 SR        000000000000 FUJITSU TEN (THAILAN170KNCL0062062                                                                                                                              *          20170419IMF1704194.TXT
MDDDH4226803201704                D89828070100PV1D20170422000060SPEAKER ASM                   M IMCTM S5MB11 FTTL  07070IMCT  S5 PTB  00003                    2230 SR        000000000000 FUJITSU TEN (THAILAN170KPCL0049049                                                                                                                              *          20170419IMF1704194.TXT
MDDDH4226804201704                D89828070100PV1D20170423000060SPEAKER ASM                   M IMCTM S5MB11 FTTL  07070IMCT  S5 PTB  00003                    0230 SR        000000000000 FUJITSU TEN (THAILAN170KPFL0144144                                                                                                                              *          20170419IMF1704194.TXT
MDDDH4226805201704                D89828070100PV1D20170423000120SPEAKER ASM                   M IMCTM S5MB11 FTTL  07070IMCT  S5 PTB  00003                    0400 SR        000000000000 FUJITSU TEN (THAILAN170KRHL0025025170KRSL0034034                                                                                                                *          20170419IMF1704194.TXT
MDDDH4226806201704                D89828070100PV1D20170424000060SPEAKER ASM                   M IMCTM S5MB11 FTTL  07070IMCT  S5 PTB  00003                    0900 SR        000000000000 FUJITSU TEN (THAILAN170KNCL0062062                                                                                                                              *          20170419IMF1704194.TXT
MDDDH4226807201704                D89828070100PV1D20170424000120SPEAKER ASM                   M IMCTM S5MB11 FTTL  07070IMCT  S5 PTB  00003                    1300 SR        000000000000 FUJITSU TEN (THAILAN170KPFL0145145170KRCL0027027                                                                                                                *          20170419IMF1704194.TXT
MDDDH4226808201704                D89828070200PV1D20170423000120SPEAKER ASM                   M IMCTM S5MA14 FTTL  07070IMCT  S5 PTB  00005                    0400 SR        000000000000 FUJITSU TEN (THAILAN170KRHL0025025170KRSL0034034                                                                                                                *          20170419IMF1704194.TXT
MDDDH4226809201704                D89828070200PV1D20170424000060SPEAKER ASM                   M IMCTM S5MA14 FTTL  07070IMCT  S5 PTB  00005                    1300 SR        000000000000 FUJITSU TEN (THAILAN170KRCL0027027                                                                                                                              *          20170419IMF1704194.TXT
MDDDH4226810201704                D89828070300PT1D20170422000060SPEAKER ASM                   M IMCTM S5NB082FTTL  07070IMCT  S5 PTB  00015                    2230 SR        000000000000 FUJITSU TEN (THAILAN170KPCL0049049                                                                                                                              *          20170419IMF1704194.TXT
MDDDH4226811201704                D89828070300PT1D20170423000060SPEAKER ASM                   M IMCTM S5NB082FTTL  07070IMCT  S5 PTB  00015                    0230 SR        000000000000 FUJITSU TEN (THAILAN170KPFL0144144                                                                                                                              *          20170419IMF1704194.TXT
MDDDH4226812201704                D89828070300PT1D20170423000120SPEAKER ASM                   M IMCTM S5NB082FTTL  07070IMCT  S5 PTB  00015                    0400 SR        000000000000 FUJITSU TEN (THAILAN170KRHL0025025170KRSL0034034                                                                                                                *          20170419IMF1704194.TXT
MDDDH4226813201704                D89828070300PT1D20170424000120SPEAKER ASM                   M IMCTM S5NB082FTTL  07070IMCT  S5 PTB  00015                    1300 SR        000000000000 FUJITSU TEN (THAILAN170KPFL0145145170KRCL0027027                                                                                                                *          20170419IMF1704194.TXT
MDDDH4226814201704                D89831228300PT1D20170422000030RADIO;AM/FM,CD                M IMCTM S5NC06 FTTL  07070IMCT  S5 CPB  00003                    2230 SR        000000000000 FUJITSU TEN (THAILAN170KPCL0049049                                                                                                                              *          20170419IMF1704194.TXT
MDDDH4226815201704                D89831228300PT1D20170423000030RADIO;AM/FM,CD                M IMCTM S5NC06 FTTL  07070IMCT  S5 CPB  00003                    0230 SR        000000000000 FUJITSU TEN (THAILAN170KPFL0144144                                                                                                                              *          20170419IMF1704194.TXT
MDDDH4226816201704                D89831228300PT1D20170424000030RADIO;AM/FM,CD                M IMCTM S5NC06 FTTL  07070IMCT  S5 CPB  00003                    1300 SR        000000000000 FUJITSU TEN (THAILAN170KPFL0145145                                                                                                                              *          20170419IMF1704194.TXT
MDDDH4226817201704                D89831228400PT1D20170424000030RADIO;AM/FM,CD                M IMCTM S5NC06 FTTL  07070IMCT  S5 CPB  00003                    1300 SR        000000000000 FUJITSU TEN (THAILAN170KRCL0027027                                                                                                                              *          20170419IMF1704194.TXT
MDDUH4222423201704                D89828070100PT4U20170422000060SPEAKER ASM                   M IMCTM S0FL05 FTTL  07070IMCT  S0 PTB  00003                    2230 SR        000000000000 FUJITSU TEN (THAILAN180LUBU0006006180LUEU0061061                                                                                                                *          20170419IMF1704194.TXT
MDDUH4222424201704                D89828070100PT4U20170424000030SPEAKER ASM                   M IMCTM S0FL05 FTTL  07070IMCT  S0 PTB  00003                    0900 SR        000000000000 FUJITSU TEN (THAILAN180LUDU0100100                                                                                                                              *          20170419IMF1704194.TXT
MDDUH4222425201704                D89828070100PT4U20170424000030SPEAKER ASM                   M IMCTM S0FL05 FTTL  07070IMCT  S0 PTB  00003                    1300 SR        000000000000 FUJITSU TEN (THAILAN180LUDU0101101                                                                                                                              *          20170419IMF1704194.TXT
MDDUH4222426201704                D89828070200PV4U20170422000060SPEAKER ASM                   M IMCTM S0FR05 FTTL  07070IMCT  S0 PTB  00005                    2230 SR        000000000000 FUJITSU TEN (THAILAN180LUBU0006006180LUEU0061061                                                                                                                *          20170419IMF1704194.TXT
MDDUH4222427201704                D89828070200PV4U20170424000030SPEAKER ASM                   M IMCTM S0FR05 FTTL  07070IMCT  S0 PTB  00005                    0900 SR        000000000000 FUJITSU TEN (THAILAN180LUDU0100100                                                                                                                              *          20170419IMF1704194.TXT
MDDUH4222428201704                D89828070200PV4U20170424000030SPEAKER ASM                   M IMCTM S0FR05 FTTL  07070IMCT  S0 PTB  00005                    1300 SR        000000000000 FUJITSU TEN (THAILAN180LUDU0101101                                                                                                                              *          20170419IMF1704194.TXT
MDDUH4222429201704                D89828070300PT4U20170422000060SPEAKER ASM                   M IMCTM S9TS02 FTTL  07070IMCT  S9 PTB  00015                    2230 SR        000000000000 FUJITSU TEN (THAILAN180LUBU0006006180LUEU0061061                                                                                                                *          20170419IMF1704194.TXT
MDDUH4222430201704                D89828070300PT4U20170424000030SPEAKER ASM                   M IMCTM S9TS02 FTTL  07070IMCT  S9 PTB  00015                    0900 SR        000000000000 FUJITSU TEN (THAILAN180LUDU0100100                                                                                                                              *          20170419IMF1704194.TXT
MDDUH4222431201704                D89828070300PT4U20170424000030SPEAKER ASM                   M IMCTM S9TS02 FTTL  07070IMCT  S9 PTB  00015                    1300 SR        000000000000 FUJITSU TEN (THAILAN180LUDU0101101                                                                                                                              *          20170419IMF1704194.TXT
MDDUH4222432201704                D89835097900PT4U20170422000015RADIO;ASM DVD                 M IMCTM S9CO001FTTL  07070IMCT  S9 PTB  00003                    2230 SR        000000000000 FUJITSU TEN (THAILAN180LUBU0006006                                                                                                                              *          20170419IMF1704194.TXT
MDEDH4238102201704                D89805293700PV1D20170422000030SPEAKER ASM                   M IMCTM S5MB11 FTTL  07070IMCT  S5 PTB  00003                    2100 SR        000000000000 FUJITSU TEN (THAILAN15019FL0182182                                                                                                                              *          20170419IMF1704194.TXT
MDEDH4238103201704                D89805293700PV1D20170422000030SPEAKER ASM                   M IMCTM S5MB11 FTTL  07070IMCT  S5 PTB  00003                    2230 SR        000000000000 FUJITSU TEN (THAILAN15019FL0183183                                                                                                                              *          20170419IMF1704194.TXT
MDEDH4238104201704                D89805293700PV1D20170424000030SPEAKER ASM                   M IMCTM S5MB11 FTTL  07070IMCT  S5 PTB  00003                    1600 SR        000000000000 FUJITSU TEN (THAILAN15019FL0184184                                                                                                                              *          20170419IMF1704194.TXT
MDEDH4238105201704                D89828070100PV1D20170422000060SPEAKER ASM                   M IMCTM S5MB11 FTTL  07070IMCT  S5 PTB  00003                    2230 SR        000000000000 FUJITSU TEN (THAILAN17062NL0008009                                                                                                                              *          20170419IMF1704194.TXT
MDEDH4238106201704                D89828070100PV1D20170424000060SPEAKER ASM                   M IMCTM S5MB11 FTTL  07070IMCT  S5 PTB  00003                    0900 SR        000000000000 FUJITSU TEN (THAILAN17006ML000500517013NL0004004                                                                                                                *          20170419IMF1704194.TXT
MDEDH4238107201704                D89828070100PV1D20170424000030SPEAKER ASM                   M IMCTM S5MB11 FTTL  07070IMCT  S5 PTB  00003                    1300 SR        000000000000 FUJITSU TEN (THAILAN17018ML0014014                                                                                                                              *          20170419IMF1704194.TXT
MDEDH4238108201704                D89828070100PV4D20170424000030SPEAKER ASM                   M IMCTM S0FL05 FTTL  07070IMCT  S0 PTB  00003                    1300 SR        000000000000 FUJITSU TEN (THAILAN17055NU0007007                                                                                                                              *          20170419IMF1704194.TXT
MDEDH4238109201704                D89828070200PV1D20170424000030SPEAKER ASM                   M IMCTM S5MA14 FTTL  07070IMCT  S5 PTB  00005                    0900 SR        000000000000 FUJITSU TEN (THAILAN17013NL0004004                                                                                                                              *          20170419IMF1704194.TXT
MDEDH4238110201704                D89828070200PV1D20170424000030SPEAKER ASM                   M IMCTM S5MA14 FTTL  07070IMCT  S5 PTB  00005                    1300 SR        000000000000 FUJITSU TEN (THAILAN17018ML0014014                                                                                                                              *          20170419IMF1704194.TXT
MDEDH4238111201704                D89828070300PT1D20170422000060SPEAKER ASM                   M IMCTM S5NB082FTTL  07070IMCT  S5 PTB  00015                    2230 SR        000000000000 FUJITSU TEN (THAILAN17062NL0008009                                                                                                                              *          20170419IMF1704194.TXT
MDEDH4238112201704                D89828070300PT1D20170424000030SPEAKER ASM                   M IMCTM S5NB082FTTL  07070IMCT  S5 PTB  00015                    0900 SR        000000000000 FUJITSU TEN (THAILAN17013NL0004004                                                                                                                              *          20170419IMF1704194.TXT
MDEDH4238113201704                D89828070300PT1D20170424000030SPEAKER ASM                   M IMCTM S5NB082FTTL  07070IMCT  S5 PTB  00015                    1300 SR        000000000000 FUJITSU TEN (THAILAN17018ML0014014                                                                                                                              *          20170419IMF1704194.TXT
MDEDH4238114201704                D89828070300PT4D20170424000030SPEAKER ASM                   M IMCTM S9TS02 FTTL  07070IMCT  S9 PTB  00015                    1300 SR        000000000000 FUJITSU TEN (THAILAN17055NU0007007                                                                                                                              *          20170419IMF1704194.TXT
MDEDH4238115201704                D89829645300PT1D20170424000015RADIO;ASM DVD                 M IMCTM S5NC06 FTTL  07070IMCT  S5 PTB  00003                    1300 SR        000000000000 FUJITSU TEN (THAILAN17018ML0014014                                                                                                                              *          20170419IMF1704194.TXT
MDEDH4238116201704                D89829645700PT4D20170424000015RADIO;ASM DVD                 M IMCTM S9CO001FTTL  07070IMCT  S9 X    00003                    1300 SR        000000000000 FUJITSU TEN (THAILAN17055NU0007007                                                                                                                              *          20170419IMF1704194.TXT
MDEDH4238117201704                D89831228600PT1D20170422000030RADIO;AM/FM,CD                M IMCTM S5NC06 FTTL  07070IMCT  S5 PTB  00003                    2230 SR        000000000000 FUJITSU TEN (THAILAN17062NL0008009                                                                                                                              *          20170419IMF1704194.TXT
MDEDH4238118201704                D89831228800PT1D20170424000015RADIO;AM/FM,CD                M IMCTM S5NC06 FTTL  07070IMCT  S5 PTB  00003                    0900 SR        000000000000 FUJITSU TEN (THAILAN17013NL0004004                                                                                                                              *          20170419IMF1704194.TXT
MDEUH4223066201704                D89828070100PT4U20170423000030SPEAKER ASM                   M IMCTM S0FL05 FTTL  07070IMCT  S0 PTB  00003                    0230 SR        000000000000 FUJITSU TEN (THAILAN18023TU0039039                                                                                                                              *          20170419IMF1704194.TXT
MDEUH4223067201704                D89828070100PT4U20170423000030SPEAKER ASM                   M IMCTM S0FL05 FTTL  07070IMCT  S0 PTB  00003                    0400 SR        000000000000 FUJITSU TEN (THAILAN18017TU0004004                                                                                                                              *          20170419IMF1704194.TXT
MDEUH4223068201704                D89828070100PT4U20170424000030SPEAKER ASM                   M IMCTM S0FL05 FTTL  07070IMCT  S0 PTB  00003                    0900 SR        000000000000 FUJITSU TEN (THAILAN18021TU0006006                                                                                                                              *          20170419IMF1704194.TXT
MDEUH4223069201704                D89828070100PT4U20170424000030SPEAKER ASM                   M IMCTM S0FL05 FTTL  07070IMCT  S0 PTB  00003                    1300 SR        000000000000 FUJITSU TEN (THAILAN18023TU0040040                                                                                                                              *          20170419IMF1704194.TXT
MDEUH4223070201704                D89828070200PV4U20170423000030SPEAKER ASM                   M IMCTM S0FR05 FTTL  07070IMCT  S0 PTB  00005                    0230 SR        000000000000 FUJITSU TEN (THAILAN18023TU0039039                                                                                                                              *          20170419IMF1704194.TXT
MDEUH4223071201704                D89828070200PV4U20170423000030SPEAKER ASM                   M IMCTM S0FR05 FTTL  07070IMCT  S0 PTB  00005                    0400 SR        000000000000 FUJITSU TEN (THAILAN18017TU0004004                                                                                                                              *          20170419IMF1704194.TXT
MDEUH4223072201704                D89828070200PV4U20170424000030SPEAKER ASM                   M IMCTM S0FR05 FTTL  07070IMCT  S0 PTB  00005                    0900 SR        000000000000 FUJITSU TEN (THAILAN18021TU0006006                                                                                                                              *          20170419IMF1704194.TXT
MDEUH4223073201704                D89828070200PV4U20170424000030SPEAKER ASM                   M IMCTM S0FR05 FTTL  07070IMCT  S0 PTB  00005                    1300 SR        000000000000 FUJITSU TEN (THAILAN18023TU0040040                                                                                                                              *          20170419IMF1704194.TXT
MDEUH4223074201704                D89828070300PT4U20170423000030SPEAKER ASM                   M IMCTM S9TS02 FTTL  07070IMCT  S9 PTB  00015                    0230 SR        000000000000 FUJITSU TEN (THAILAN18023TU0039039                                                                                                                              *          20170419IMF1704194.TXT
MDEUH4223075201704                D89828070300PT4U20170423000030SPEAKER ASM                   M IMCTM S9TS02 FTTL  07070IMCT  S9 PTB  00015                    0400 SR        000000000000 FUJITSU TEN (THAILAN18017TU0004004                                                                                                                              *          20170419IMF1704194.TXT
MDEUH4223076201704                D89828070300PT4U20170424000030SPEAKER ASM                   M IMCTM S9TS02 FTTL  07070IMCT  S9 PTB  00015                    0900 SR        000000000000 FUJITSU TEN (THAILAN18021TU0006006                                                                                                                              *          20170419IMF1704194.TXT
MDEUH4223077201704                D89828070300PT4U20170424000030SPEAKER ASM                   M IMCTM S9TS02 FTTL  07070IMCT  S9 PTB  00015                    1300 SR        000000000000 FUJITSU TEN (THAILAN18023TU0040040                                                                                                                              *          20170419IMF1704194.TXT
MDEUH4223078201704                D89836135900PT4U20170424000015RADIO;ASM DVD                 M IMCTM S9CO001FTTL  07070IMCT  S9 PTB  00003                    0900 SR        000000000000 FUJITSU TEN (THAILAN18021TU0006006                                                                                                                              *          20170419IMF1704194.TXT
