REC2017042520170425ISUZU                              6      
MDEFH4T14653201704                D89828070100PV4F20170429000030SPEAKER ASM                   M IMCTM S7FL05 FTTL  07070IMCT  S7 PTB  00003                    0400 SR        000000000000 FUJITSU TEN (THAILAN16042KR0029   17045MR0042   S170500101    S170500115    000000                                                                              *R         20170425RDF1704256.TXT
MDEFH4T14654201704                D89828070300PT4F20170428000022SPEAKER ASM                   M IMCTM S7TS02 FTTL  07070IMCT  S7 PTB  00015                    1600 SR        000000000000 FUJITSU TEN (THAILAN17030RR0033   17057MR0020   F170405004    F170405015    000000                                                                              *R         20170425RDF1704256.TXT
MDEFH4T14655201704                D89831228900PT4F20170428000002RADIO;AM/FM,CD                M IMCTM S7TS03 FTTL  07070IMCT  S7 PTB  00003                    1600 SR        000000000000 FUJITSU TEN (THAILAN17077QR0001   17032RR0023   F170405005    F170405012    000000                                                                              *R         20170425RDF1704256.TXT
MDEFH4246698201704                D89828070100PV4F20170428000027SPEAKER ASM                   M IMCTM S7FL05 FTTL  07070IMCT  S7 PTB  00003                    1600 SR        000000000000 FUJITSU TEN (THAILAN17006MR0037   17057MR0019   F170405001    F170405014    000000                                                                              *R         20170425RDF1704256.TXT
MDEFH4246699201704                D89828070100PV4F20170428000003SPEAKER ASM                   M IMCTM S7FL05 FTTL  07070IMCT  S7 PTB  00003                    2100 SR        000000000000 FUJITSU TEN (THAILAN17057MR0019   17057MR0020   F170405014    F170405015    000000                                                                              *R         20170425RDF1704256.TXT
MDEFH4246700201704                D89828070100PV4F20170428000030SPEAKER ASM                   M IMCTM S7FL05 FTTL  07070IMCT  S7 PTB  00003                    2230 SR        000000000000 FUJITSU TEN (THAILAN17004MR0035   17027RR0026   S170405101    S170405115    000000                                                                              *R         20170425RDF1704256.TXT
