REC2017040420170404ISUZU                              66     
MDDDH4210145201704                D89821984430PT1D20170419000030RADIO;AM/FM,CD                M IMCTM S5NC06 FTTL  07070IMCT  S5 PTB  00005                    1300 SR        000000000000 FUJITSU TEN (THAILAN170KNFL0032032                                                                                                                              *          20170404IMF1704045.TXT
MDDDH4210146201704                D89821984430PT1D20170419000030RADIO;AM/FM,CD                M IMCTM S5NC06 FTTL  07070IMCT  S5 PTB  00005                    2100 SR        000000000000 FUJITSU TEN (THAILAN170KNDL0091091                                                                                                                              *          20170404IMF1704045.TXT
MDDDH4210147201704                D89828070100PV1D20170418000060SPEAKER ASM                   M IMCTM S5MB11 FTTL  07070IMCT  S5 PTB  00003                    2230 SR        000000000000 FUJITSU TEN (THAILAN170KRFL0068068                                                                                                                              *          20170404IMF1704045.TXT
MDDDH4210148201704                D89828070100PV1D20170419000120SPEAKER ASM                   M IMCTM S5MB11 FTTL  07070IMCT  S5 PTB  00003                    0400 SR        000000000000 FUJITSU TEN (THAILAN170KPCL0043043170KRCL0025025                                                                                                                *          20170404IMF1704045.TXT
MDDDH4210149201704                D89828070100PV1D20170419000120SPEAKER ASM                   M IMCTM S5MB11 FTTL  07070IMCT  S5 PTB  00003                    1300 SR        000000000000 FUJITSU TEN (THAILAN170KNFL0032032170KPCL0044044                                                                                                                *          20170404IMF1704045.TXT
MDDDH4210150201704                D89828070100PV1D20170419000060SPEAKER ASM                   M IMCTM S5MB11 FTTL  07070IMCT  S5 PTB  00003                    1600 SR        000000000000 FUJITSU TEN (THAILAN170KRJL0032032                                                                                                                              *          20170404IMF1704045.TXT
MDDDH4210151201704                D89828070100PV1D20170419000060SPEAKER ASM                   M IMCTM S5MB11 FTTL  07070IMCT  S5 PTB  00003                    2100 SR        000000000000 FUJITSU TEN (THAILAN170KNDL0091091                                                                                                                              *          20170404IMF1704045.TXT
MDDDH4210152201704                D89828070200PV1D20170418000060SPEAKER ASM                   M IMCTM S5MA14 FTTL  07070IMCT  S5 PTB  00005                    2230 SR        000000000000 FUJITSU TEN (THAILAN170KRFL0068068                                                                                                                              *          20170404IMF1704045.TXT
MDDDH4210153201704                D89828070200PV1D20170419000060SPEAKER ASM                   M IMCTM S5MA14 FTTL  07070IMCT  S5 PTB  00005                    0400 SR        000000000000 FUJITSU TEN (THAILAN170KRCL0025025                                                                                                                              *          20170404IMF1704045.TXT
MDDDH4210154201704                D89828070200PV1D20170419000060SPEAKER ASM                   M IMCTM S5MA14 FTTL  07070IMCT  S5 PTB  00005                    1600 SR        000000000000 FUJITSU TEN (THAILAN170KRJL0032032                                                                                                                              *          20170404IMF1704045.TXT
MDDDH4210155201704                D89828070300PT1D20170418000060SPEAKER ASM                   M IMCTM S5NB082FTTL  07070IMCT  S5 PTB  00015                    2230 SR        000000000000 FUJITSU TEN (THAILAN170KRFL0068068                                                                                                                              *          20170404IMF1704045.TXT
MDDDH4210156201704                D89828070300PT1D20170419000120SPEAKER ASM                   M IMCTM S5NB082FTTL  07070IMCT  S5 PTB  00015                    0400 SR        000000000000 FUJITSU TEN (THAILAN170KPCL0043043170KRCL0025025                                                                                                                *          20170404IMF1704045.TXT
MDDDH4210157201704                D89828070300PT1D20170419000060SPEAKER ASM                   M IMCTM S5NB082FTTL  07070IMCT  S5 PTB  00015                    1300 SR        000000000000 FUJITSU TEN (THAILAN170KPCL0044044                                                                                                                              *          20170404IMF1704045.TXT
MDDDH4210158201704                D89828070300PT1D20170419000060SPEAKER ASM                   M IMCTM S5NB082FTTL  07070IMCT  S5 PTB  00015                    1600 SR        000000000000 FUJITSU TEN (THAILAN170KRJL0032032                                                                                                                              *          20170404IMF1704045.TXT
MDDDH4210159201704                D89829645900PT1D20170418000030RADIO;ASM DVD                 M IMCTM S5NC06 FTTL  07070IMCT  S5 CPB  00003                    2230 SR        000000000000 FUJITSU TEN (THAILAN170KRFL0068068                                                                                                                              *          20170404IMF1704045.TXT
MDDDH4210160201704                D89831228300PT1D20170419000030RADIO;AM/FM,CD                M IMCTM S5NC06 FTTL  07070IMCT  S5 CPB  00003                    0400 SR        000000000000 FUJITSU TEN (THAILAN170KPCL0043043                                                                                                                              *          20170404IMF1704045.TXT
MDDDH4210161201704                D89831228300PT1D20170419000030RADIO;AM/FM,CD                M IMCTM S5NC06 FTTL  07070IMCT  S5 CPB  00003                    1300 SR        000000000000 FUJITSU TEN (THAILAN170KPCL0044044                                                                                                                              *          20170404IMF1704045.TXT
MDDDH4210162201704                D89831228400PT1D20170419000030RADIO;AM/FM,CD                M IMCTM S5NC06 FTTL  07070IMCT  S5 CPB  00003                    0400 SR        000000000000 FUJITSU TEN (THAILAN170KRCL0025025                                                                                                                              *          20170404IMF1704045.TXT
MDDUH4208040201704                D89828070100PT4U20170419000060SPEAKER ASM                   M IMCTM S0FL05 FTTL  07070IMCT  S0 PTB  00003                    0400 SR        000000000000 FUJITSU TEN (THAILAN180LUCU0038038180LUEU0053053                                                                                                                *          20170404IMF1704045.TXT
MDDUH4208041201704                D89828070100PT4U20170419000030SPEAKER ASM                   M IMCTM S0FL05 FTTL  07070IMCT  S0 PTB  00003                    0900 SR        000000000000 FUJITSU TEN (THAILAN180LUDU0093093                                                                                                                              *          20170404IMF1704045.TXT
MDDUH4208042201704                D89828070100PT4U20170419000030SPEAKER ASM                   M IMCTM S0FL05 FTTL  07070IMCT  S0 PTB  00003                    1300 SR        000000000000 FUJITSU TEN (THAILAN180LUEU0054054                                                                                                                              *          20170404IMF1704045.TXT
MDDUH4208043201704                D89828070200PV4U20170419000060SPEAKER ASM                   M IMCTM S0FR05 FTTL  07070IMCT  S0 PTB  00005                    0400 SR        000000000000 FUJITSU TEN (THAILAN180LUCU0038038180LUEU0053053                                                                                                                *          20170404IMF1704045.TXT
MDDUH4208044201704                D89828070200PV4U20170419000030SPEAKER ASM                   M IMCTM S0FR05 FTTL  07070IMCT  S0 PTB  00005                    0900 SR        000000000000 FUJITSU TEN (THAILAN180LUDU0093093                                                                                                                              *          20170404IMF1704045.TXT
MDDUH4208045201704                D89828070200PV4U20170419000030SPEAKER ASM                   M IMCTM S0FR05 FTTL  07070IMCT  S0 PTB  00005                    1300 SR        000000000000 FUJITSU TEN (THAILAN180LUEU0054054                                                                                                                              *          20170404IMF1704045.TXT
MDDUH4208046201704                D89828070300PT4U20170419000060SPEAKER ASM                   M IMCTM S9TS02 FTTL  07070IMCT  S9 PTB  00015                    0400 SR        000000000000 FUJITSU TEN (THAILAN180LUCU0038038180LUEU0053053                                                                                                                *          20170404IMF1704045.TXT
MDDUH4208047201704                D89828070300PT4U20170419000030SPEAKER ASM                   M IMCTM S9TS02 FTTL  07070IMCT  S9 PTB  00015                    0900 SR        000000000000 FUJITSU TEN (THAILAN180LUDU0093093                                                                                                                              *          20170404IMF1704045.TXT
MDDUH4208048201704                D89828070300PT4U20170419000030SPEAKER ASM                   M IMCTM S9TS02 FTTL  07070IMCT  S9 PTB  00015                    1300 SR        000000000000 FUJITSU TEN (THAILAN180LUEU0054054                                                                                                                              *          20170404IMF1704045.TXT
MDDUH4208049201704                D89835097900PT4U20170419000015RADIO;ASM DVD                 M IMCTM S9CO001FTTL  07070IMCT  S9 PTB  00003                    0400 SR        000000000000 FUJITSU TEN (THAILAN180LUCU0038038                                                                                                                              *          20170404IMF1704045.TXT
MDEDH4212020201704                D89805293700PV1D20170419000060SPEAKER ASM                   M IMCTM S5MB11 FTTL  07070IMCT  S5 PTB  00003                    0230 SR        000000000000 FUJITSU TEN (THAILAN15019FL0175176                                                                                                                              *          20170404IMF1704045.TXT
MDEDH4212021201704                D89805293700PV4D20170419000030SPEAKER ASM                   M IMCTM S0FR05 FTTL  07070IMCT  S0 PTB  00003                    0230 SR        000000000000 FUJITSU TEN (THAILAN15018FU0032032                                                                                                                              *          20170404IMF1704045.TXT
MDEDH4212022201704                D89805293700PV4D20170419000030SPEAKER ASM                   M IMCTM S0FR05 FTTL  07070IMCT  S0 PTB  00003                    0900 SR        000000000000 FUJITSU TEN (THAILAN15028BU0010010                                                                                                                              *          20170404IMF1704045.TXT
MDEDH4212023201704                D89805293700PV4D20170419000030SPEAKER ASM                   M IMCTM S0FR05 FTTL  07070IMCT  S0 PTB  00003                    1600 SR        000000000000 FUJITSU TEN (THAILAN15018FU0033033                                                                                                                              *          20170404IMF1704045.TXT
MDEDH4212024201704                D89805294000PT4D20170419000030SPEAKER ASM                   M IMCTM S9AFA25FTTL  07070IMCT  S9 PTB  00015                    0900 SR        000000000000 FUJITSU TEN (THAILAN15028BU0010010                                                                                                                              *          20170404IMF1704045.TXT
MDEDH4212025201704                D89805294100PV4D20170419000030SPEAKER ASM                   M IMCTM S0FR05 FTTL  07070IMCT  S0 PTB  00005                    0900 SR        000000000000 FUJITSU TEN (THAILAN15028BU0010010                                                                                                                              *          20170404IMF1704045.TXT
MDEDH4212026201704                D89827952200PT1D20170418000030RADIO;AM/FM,CD,D              M IMCTM S5NC06 FTTL  07070IMCT  S5 X    00003                    2230 SR        000000000000 FUJITSU TEN (THAILAN17066NL0024025                                                                                                                              *          20170404IMF1704045.TXT
MDEDH4212027201704                D89827952200PT1D20170419000030RADIO;AM/FM,CD,D              M IMCTM S5NC06 FTTL  07070IMCT  S5 X    00003                    0900 SR        000000000000 FUJITSU TEN (THAILAN17056NL0020021                                                                                                                              *          20170404IMF1704045.TXT
MDEDH4212028201704                D89828070100PV1D20170418000060SPEAKER ASM                   M IMCTM S5MB11 FTTL  07070IMCT  S5 PTB  00003                    2230 SR        000000000000 FUJITSU TEN (THAILAN17066NL0024025                                                                                                                              *          20170404IMF1704045.TXT
MDEDH4212029201704                D89828070100PV1D20170419000060SPEAKER ASM                   M IMCTM S5MB11 FTTL  07070IMCT  S5 PTB  00003                    0400 SR        000000000000 FUJITSU TEN (THAILAN17080NL0057058                                                                                                                              *          20170404IMF1704045.TXT
MDEDH4212030201704                D89828070100PV1D20170419000120SPEAKER ASM                   M IMCTM S5MB11 FTTL  07070IMCT  S5 PTB  00003                    0900 SR        000000000000 FUJITSU TEN (THAILAN17050ML001701817056NL0020021                                                                                                                *          20170404IMF1704045.TXT
MDEDH4212031201704                D89828070100PV1D20170419000030SPEAKER ASM                   M IMCTM S5MB11 FTTL  07070IMCT  S5 PTB  00003                    1300 SR        000000000000 FUJITSU TEN (THAILAN17044ML0007007                                                                                                                              *          20170404IMF1704045.TXT
MDEDH4212032201704                D89828070100PV1D20170419000090SPEAKER ASM                   M IMCTM S5MB11 FTTL  07070IMCT  S5 PTB  00003                    1600 SR        000000000000 FUJITSU TEN (THAILAN17044ML000800817059NL001001017083ML0016016                                                                                                  *          20170404IMF1704045.TXT
MDEDH4212033201704                D89828070100PV1D20170419000030SPEAKER ASM                   M IMCTM S5MB11 FTTL  07070IMCT  S5 PTB  00003                    2100 SR        000000000000 FUJITSU TEN (THAILAN17068NL0014014                                                                                                                              *          20170404IMF1704045.TXT
MDEDH4212034201704                D89828070200PV1D20170419000060SPEAKER ASM                   M IMCTM S5MA14 FTTL  07070IMCT  S5 PTB  00005                    0400 SR        000000000000 FUJITSU TEN (THAILAN17080NL0057058                                                                                                                              *          20170404IMF1704045.TXT
MDEDH4212035201704                D89828070200PV1D20170419000030SPEAKER ASM                   M IMCTM S5MA14 FTTL  07070IMCT  S5 PTB  00005                    1600 SR        000000000000 FUJITSU TEN (THAILAN17059NL0010010                                                                                                                              *          20170404IMF1704045.TXT
MDEDH4212036201704                D89828070300PT1D20170418000060SPEAKER ASM                   M IMCTM S5NB082FTTL  07070IMCT  S5 PTB  00015                    2230 SR        000000000000 FUJITSU TEN (THAILAN17066NL0024025                                                                                                                              *          20170404IMF1704045.TXT
MDEDH4212037201704                D89828070300PT1D20170419000060SPEAKER ASM                   M IMCTM S5NB082FTTL  07070IMCT  S5 PTB  00015                    0400 SR        000000000000 FUJITSU TEN (THAILAN17080NL0057058                                                                                                                              *          20170404IMF1704045.TXT
MDEDH4212038201704                D89828070300PT1D20170419000060SPEAKER ASM                   M IMCTM S5NB082FTTL  07070IMCT  S5 PTB  00015                    0900 SR        000000000000 FUJITSU TEN (THAILAN17056NL0020021                                                                                                                              *          20170404IMF1704045.TXT
MDEDH4212039201704                D89828070300PT1D20170419000060SPEAKER ASM                   M IMCTM S5NB082FTTL  07070IMCT  S5 PTB  00015                    1600 SR        000000000000 FUJITSU TEN (THAILAN17059NL001001017083ML0016016                                                                                                                *          20170404IMF1704045.TXT
MDEDH4212040201704                D89828070300PT1D20170419000030SPEAKER ASM                   M IMCTM S5NB082FTTL  07070IMCT  S5 PTB  00015                    2100 SR        000000000000 FUJITSU TEN (THAILAN17068NL0014014                                                                                                                              *          20170404IMF1704045.TXT
MDEUH4207336201704                D89828070100PT4U20170418000030SPEAKER ASM                   M IMCTM S0FL05 FTTL  07070IMCT  S0 PTB  00003                    2230 SR        000000000000 FUJITSU TEN (THAILAN18023TU0028028                                                                                                                              *          20170404IMF1704045.TXT
MDEUH4207337201704                D89828070100PT4U20170419000030SPEAKER ASM                   M IMCTM S0FL05 FTTL  07070IMCT  S0 PTB  00003                    0900 SR        000000000000 FUJITSU TEN (THAILAN18021TU0002002                                                                                                                              *          20170404IMF1704045.TXT
MDEUH4207338201704                D89828070100PT4U20170419000030SPEAKER ASM                   M IMCTM S0FL05 FTTL  07070IMCT  S0 PTB  00003                    1300 SR        000000000000 FUJITSU TEN (THAILAN18022TU0011011                                                                                                                              *          20170404IMF1704045.TXT
MDEUH4207339201704                D89828070100PT4U20170419000060SPEAKER ASM                   M IMCTM S0FL05 FTTL  07070IMCT  S0 PTB  00003                    1600 SR        000000000000 FUJITSU TEN (THAILAN160B95U004604618016TU0007007                                                                                                                *          20170404IMF1704045.TXT
MDEUH4207340201704                D89828070100PT4U20170419000030SPEAKER ASM                   M IMCTM S0FL05 FTTL  07070IMCT  S0 PTB  00003                    2100 SR        000000000000 FUJITSU TEN (THAILAN18023TU0029029                                                                                                                              *          20170404IMF1704045.TXT
MDEUH4207341201704                D89828070200PV4U20170418000030SPEAKER ASM                   M IMCTM S0FR05 FTTL  07070IMCT  S0 PTB  00005                    2230 SR        000000000000 FUJITSU TEN (THAILAN18023TU0028028                                                                                                                              *          20170404IMF1704045.TXT
MDEUH4207342201704                D89828070200PV4U20170419000030SPEAKER ASM                   M IMCTM S0FR05 FTTL  07070IMCT  S0 PTB  00005                    0900 SR        000000000000 FUJITSU TEN (THAILAN18021TU0002002                                                                                                                              *          20170404IMF1704045.TXT
MDEUH4207343201704                D89828070200PV4U20170419000030SPEAKER ASM                   M IMCTM S0FR05 FTTL  07070IMCT  S0 PTB  00005                    1300 SR        000000000000 FUJITSU TEN (THAILAN18022TU0011011                                                                                                                              *          20170404IMF1704045.TXT
MDEUH4207344201704                D89828070200PV4U20170419000060SPEAKER ASM                   M IMCTM S0FR05 FTTL  07070IMCT  S0 PTB  00005                    1600 SR        000000000000 FUJITSU TEN (THAILAN160B95U004604618016TU0007007                                                                                                                *          20170404IMF1704045.TXT
MDEUH4207345201704                D89828070200PV4U20170419000030SPEAKER ASM                   M IMCTM S0FR05 FTTL  07070IMCT  S0 PTB  00005                    2100 SR        000000000000 FUJITSU TEN (THAILAN18023TU0029029                                                                                                                              *          20170404IMF1704045.TXT
MDEUH4207346201704                D89828070300PT4U20170418000030SPEAKER ASM                   M IMCTM S9TS02 FTTL  07070IMCT  S9 PTB  00015                    2230 SR        000000000000 FUJITSU TEN (THAILAN18023TU0028028                                                                                                                              *          20170404IMF1704045.TXT
MDEUH4207347201704                D89828070300PT4U20170419000030SPEAKER ASM                   M IMCTM S9TS02 FTTL  07070IMCT  S9 PTB  00015                    0900 SR        000000000000 FUJITSU TEN (THAILAN18021TU0002002                                                                                                                              *          20170404IMF1704045.TXT
MDEUH4207348201704                D89828070300PT4U20170419000030SPEAKER ASM                   M IMCTM S9TS02 FTTL  07070IMCT  S9 PTB  00015                    1300 SR        000000000000 FUJITSU TEN (THAILAN18022TU0011011                                                                                                                              *          20170404IMF1704045.TXT
MDEUH4207349201704                D89828070300PT4U20170419000060SPEAKER ASM                   M IMCTM S9TS02 FTTL  07070IMCT  S9 PTB  00015                    1600 SR        000000000000 FUJITSU TEN (THAILAN160B95U004604618016TU0007007                                                                                                                *          20170404IMF1704045.TXT
MDEUH4207350201704                D89828070300PT4U20170419000030SPEAKER ASM                   M IMCTM S9TS02 FTTL  07070IMCT  S9 PTB  00015                    2100 SR        000000000000 FUJITSU TEN (THAILAN18023TU0029029                                                                                                                              *          20170404IMF1704045.TXT
MDEUH4207351201704                D89836135900PT4U20170419000015RADIO;ASM DVD                 M IMCTM S9CO001FTTL  07070IMCT  S9 PTB  00003                    0900 SR        000000000000 FUJITSU TEN (THAILAN18021TU0002002                                                                                                                              *          20170404IMF1704045.TXT
MDEUH4207352201704                D89836135900PT4U20170419000015RADIO;ASM DVD                 M IMCTM S9CO001FTTL  07070IMCT  S9 PTB  00003                    1600 SR        000000000000 FUJITSU TEN (THAILAN18016TU0007007                                                                                                                              *          20170404IMF1704045.TXT
