REC2017042120170422ISUZU                              3      
MADDH4600328201706                 89828070100PV1D20170508000004SPEAKER ASM                   M IMCTM ST00000FTTL  07070IMCT  ST PTB  00003  DC                0000 SR        000000000000 FUJITSU TEN (THAILAN180L1AL0001001180L1BL0001001                                                                                                                *P         20170421IMF1704219.TXT
MADDH4600329201706                 89828070200PV1D20170508000002SPEAKER ASM                   M IMCTM ST00000FTTL  07070IMCT  ST PTB  00005  DC                0000 SR        000000000000 FUJITSU TEN (THAILAN180L1BL0001001                                                                                                                              *P         20170421IMF1704219.TXT
MADDH4600330201706                 89828070300PT1D20170508000004SPEAKER ASM                   M IMCTM ST00000FTTL  07070IMCT  ST PTB  00015  DC                0000 SR        000000000000 FUJITSU TEN (THAILAN180L1AL0001001180L1BL0001001                                                                                                                *P         20170421IMF1704219.TXT
