REC2017041720170418ISUZU                              73     
MDDDH4218447201704                D89821984430PT1D20170421000030RADIO;AM/FM,CD                M IMCTM S5NC06 FTTL  07070IMCT  S5 PTB  00005                    1300 SR        000000000000 FUJITSU TEN (THAILAN170KNDL0092092                                                                                                                              *          20170417IMF1704175.TXT
MDDDH4218448201704                D89828070100PV1D20170420000060SPEAKER ASM                   M IMCTM S5MB11 FTTL  07070IMCT  S5 PTB  00003                    2230 SR        000000000000 FUJITSU TEN (THAILAN170KPCL0047047                                                                                                                              *          20170417IMF1704175.TXT
MDDDH4218449201704                D89828070100PV1D20170421000120SPEAKER ASM                   M IMCTM S5MB11 FTTL  07070IMCT  S5 PTB  00003                    0400 SR        000000000000 FUJITSU TEN (THAILAN170KPCL0048048170KPFL0142142                                                                                                                *          20170417IMF1704175.TXT
MDDDH4218450201704                D89828070100PV1D20170421000120SPEAKER ASM                   M IMCTM S5MB11 FTTL  07070IMCT  S5 PTB  00003                    0900 SR        000000000000 FUJITSU TEN (THAILAN170KPNL0002002170KRSL0033033                                                                                                                *          20170417IMF1704175.TXT
MDDDH4218451201704                D89828070100PV1D20170421000060SPEAKER ASM                   M IMCTM S5MB11 FTTL  07070IMCT  S5 PTB  00003                    1300 SR        000000000000 FUJITSU TEN (THAILAN170KNDL0092092                                                                                                                              *          20170417IMF1704175.TXT
MDDDH4218452201704                D89828070100PV1D20170421000060SPEAKER ASM                   M IMCTM S5MB11 FTTL  07070IMCT  S5 PTB  00003                    1600 SR        000000000000 FUJITSU TEN (THAILAN170KPFL0143143                                                                                                                              *          20170417IMF1704175.TXT
MDDDH4218453201704                D89828070200PV1D20170421000060SPEAKER ASM                   M IMCTM S5MA14 FTTL  07070IMCT  S5 PTB  00005                    0900 SR        000000000000 FUJITSU TEN (THAILAN170KRSL0033033                                                                                                                              *          20170417IMF1704175.TXT
MDDDH4218454201704                D89828070300PT1D20170420000060SPEAKER ASM                   M IMCTM S5NB082FTTL  07070IMCT  S5 PTB  00015                    2230 SR        000000000000 FUJITSU TEN (THAILAN170KPCL0047047                                                                                                                              *          20170417IMF1704175.TXT
MDDDH4218455201704                D89828070300PT1D20170421000120SPEAKER ASM                   M IMCTM S5NB082FTTL  07070IMCT  S5 PTB  00015                    0400 SR        000000000000 FUJITSU TEN (THAILAN170KPCL0048048170KPFL0142142                                                                                                                *          20170417IMF1704175.TXT
MDDDH4218456201704                D89828070300PT1D20170421000120SPEAKER ASM                   M IMCTM S5NB082FTTL  07070IMCT  S5 PTB  00015                    0900 SR        000000000000 FUJITSU TEN (THAILAN170KPNL0002002170KRSL0033033                                                                                                                *          20170417IMF1704175.TXT
MDDDH4218457201704                D89828070300PT1D20170421000060SPEAKER ASM                   M IMCTM S5NB082FTTL  07070IMCT  S5 PTB  00015                    1600 SR        000000000000 FUJITSU TEN (THAILAN170KPFL0143143                                                                                                                              *          20170417IMF1704175.TXT
MDDDH4218458201704                D89831228300PT1D20170420000030RADIO;AM/FM,CD                M IMCTM S5NC06 FTTL  07070IMCT  S5 CPB  00003                    2230 SR        000000000000 FUJITSU TEN (THAILAN170KPCL0047047                                                                                                                              *          20170417IMF1704175.TXT
MDDDH4218459201704                D89831228300PT1D20170421000060RADIO;AM/FM,CD                M IMCTM S5NC06 FTTL  07070IMCT  S5 CPB  00003                    0400 SR        000000000000 FUJITSU TEN (THAILAN170KPCL0048048170KPFL0142142                                                                                                                *          20170417IMF1704175.TXT
MDDDH4218460201704                D89831228300PT1D20170421000030RADIO;AM/FM,CD                M IMCTM S5NC06 FTTL  07070IMCT  S5 CPB  00003                    1600 SR        000000000000 FUJITSU TEN (THAILAN170KPFL0143143                                                                                                                              *          20170417IMF1704175.TXT
MDDUH4214942201704                D89828070100PT4U20170420000030SPEAKER ASM                   M IMCTM S0FL05 FTTL  07070IMCT  S0 PTB  00003                    2230 SR        000000000000 FUJITSU TEN (THAILAN180LUEU0057057                                                                                                                              *          20170417IMF1704175.TXT
MDDUH4214943201704                D89828070100PT4U20170421000060SPEAKER ASM                   M IMCTM S0FL05 FTTL  07070IMCT  S0 PTB  00003                    0400 SR        000000000000 FUJITSU TEN (THAILAN180LUCU0040040180LUDU0095095                                                                                                                *          20170417IMF1704175.TXT
MDDUH4214944201704                D89828070100PT4U20170421000030SPEAKER ASM                   M IMCTM S0FL05 FTTL  07070IMCT  S0 PTB  00003                    0900 SR        000000000000 FUJITSU TEN (THAILAN180LUDU0096096                                                                                                                              *          20170417IMF1704175.TXT
MDDUH4214945201704                D89828070100PT4U20170421000030SPEAKER ASM                   M IMCTM S0FL05 FTTL  07070IMCT  S0 PTB  00003                    1300 SR        000000000000 FUJITSU TEN (THAILAN180LUEU0058058                                                                                                                              *          20170417IMF1704175.TXT
MDDUH4214946201704                D89828070100PT4U20170421000030SPEAKER ASM                   M IMCTM S0FL05 FTTL  07070IMCT  S0 PTB  00003                    1600 SR        000000000000 FUJITSU TEN (THAILAN180LUBU0005005                                                                                                                              *          20170417IMF1704175.TXT
MDDUH4214947201704                D89828070100PT4U20170421000030SPEAKER ASM                   M IMCTM S0FL05 FTTL  07070IMCT  S0 PTB  00003                    2230 SR        000000000000 FUJITSU TEN (THAILAN180LUDU0097097                                                                                                                              *          20170417IMF1704175.TXT
MDDUH4214948201704                D89828070200PV4U20170420000030SPEAKER ASM                   M IMCTM S0FR05 FTTL  07070IMCT  S0 PTB  00005                    2230 SR        000000000000 FUJITSU TEN (THAILAN180LUEU0057057                                                                                                                              *          20170417IMF1704175.TXT
MDDUH4214949201704                D89828070200PV4U20170421000060SPEAKER ASM                   M IMCTM S0FR05 FTTL  07070IMCT  S0 PTB  00005                    0400 SR        000000000000 FUJITSU TEN (THAILAN180LUCU0040040180LUDU0095095                                                                                                                *          20170417IMF1704175.TXT
MDDUH4214950201704                D89828070200PV4U20170421000030SPEAKER ASM                   M IMCTM S0FR05 FTTL  07070IMCT  S0 PTB  00005                    0900 SR        000000000000 FUJITSU TEN (THAILAN180LUDU0096096                                                                                                                              *          20170417IMF1704175.TXT
MDDUH4214951201704                D89828070200PV4U20170421000030SPEAKER ASM                   M IMCTM S0FR05 FTTL  07070IMCT  S0 PTB  00005                    1300 SR        000000000000 FUJITSU TEN (THAILAN180LUEU0058058                                                                                                                              *          20170417IMF1704175.TXT
MDDUH4214952201704                D89828070200PV4U20170421000030SPEAKER ASM                   M IMCTM S0FR05 FTTL  07070IMCT  S0 PTB  00005                    1600 SR        000000000000 FUJITSU TEN (THAILAN180LUBU0005005                                                                                                                              *          20170417IMF1704175.TXT
MDDUH4214953201704                D89828070200PV4U20170421000030SPEAKER ASM                   M IMCTM S0FR05 FTTL  07070IMCT  S0 PTB  00005                    2230 SR        000000000000 FUJITSU TEN (THAILAN180LUDU0097097                                                                                                                              *          20170417IMF1704175.TXT
MDDUH4214954201704                D89828070300PT4U20170420000030SPEAKER ASM                   M IMCTM S9TS02 FTTL  07070IMCT  S9 PTB  00015                    2230 SR        000000000000 FUJITSU TEN (THAILAN180LUEU0057057                                                                                                                              *          20170417IMF1704175.TXT
MDDUH4214955201704                D89828070300PT4U20170421000060SPEAKER ASM                   M IMCTM S9TS02 FTTL  07070IMCT  S9 PTB  00015                    0400 SR        000000000000 FUJITSU TEN (THAILAN180LUCU0040040180LUDU0095095                                                                                                                *          20170417IMF1704175.TXT
MDDUH4214956201704                D89828070300PT4U20170421000030SPEAKER ASM                   M IMCTM S9TS02 FTTL  07070IMCT  S9 PTB  00015                    0900 SR        000000000000 FUJITSU TEN (THAILAN180LUDU0096096                                                                                                                              *          20170417IMF1704175.TXT
MDDUH4214957201704                D89828070300PT4U20170421000030SPEAKER ASM                   M IMCTM S9TS02 FTTL  07070IMCT  S9 PTB  00015                    1300 SR        000000000000 FUJITSU TEN (THAILAN180LUEU0058058                                                                                                                              *          20170417IMF1704175.TXT
MDDUH4214958201704                D89828070300PT4U20170421000030SPEAKER ASM                   M IMCTM S9TS02 FTTL  07070IMCT  S9 PTB  00015                    1600 SR        000000000000 FUJITSU TEN (THAILAN180LUBU0005005                                                                                                                              *          20170417IMF1704175.TXT
MDDUH4214959201704                D89828070300PT4U20170421000030SPEAKER ASM                   M IMCTM S9TS02 FTTL  07070IMCT  S9 PTB  00015                    2230 SR        000000000000 FUJITSU TEN (THAILAN180LUDU0097097                                                                                                                              *          20170417IMF1704175.TXT
MDDUH4214960201704                D89835097900PT4U20170421000015RADIO;ASM DVD                 M IMCTM S9CO001FTTL  07070IMCT  S9 PTB  00003                    0400 SR        000000000000 FUJITSU TEN (THAILAN180LUCU0040040                                                                                                                              *          20170417IMF1704175.TXT
MDDUH4214961201704                D89835097900PT4U20170421000015RADIO;ASM DVD                 M IMCTM S9CO001FTTL  07070IMCT  S9 PTB  00003                    1600 SR        000000000000 FUJITSU TEN (THAILAN180LUBU0005005                                                                                                                              *          20170417IMF1704175.TXT
MDEDH4227292201704                D89805293700PV1D20170420000060SPEAKER ASM                   M IMCTM S5MB11 FTTL  07070IMCT  S5 PTB  00003                    2230 SR        000000000000 FUJITSU TEN (THAILAN15030BL0020021                                                                                                                              *          20170417IMF1704175.TXT
MDEDH4227293201704                D89805293700PV1D20170421000060SPEAKER ASM                   M IMCTM S5MB11 FTTL  07070IMCT  S5 PTB  00003                    0230 SR        000000000000 FUJITSU TEN (THAILAN15019FL0179180                                                                                                                              *          20170417IMF1704175.TXT
MDEDH4227294201704                D89805293700PV1D20170421000030SPEAKER ASM                   M IMCTM S5MB11 FTTL  07070IMCT  S5 PTB  00003                    1600 SR        000000000000 FUJITSU TEN (THAILAN15019FL0181181                                                                                                                              *          20170417IMF1704175.TXT
MDEDH4227295201704                D89805293700PV4D20170421000030SPEAKER ASM                   M IMCTM S0FR05 FTTL  07070IMCT  S0 PTB  00003                    0400 SR        000000000000 FUJITSU TEN (THAILAN15028BU0011011                                                                                                                              *          20170417IMF1704175.TXT
MDEDH4227296201704                D89805293700PV4D20170421000030SPEAKER ASM                   M IMCTM S0FR05 FTTL  07070IMCT  S0 PTB  00003                    1600 SR        000000000000 FUJITSU TEN (THAILAN15029BU0008008                                                                                                                              *          20170417IMF1704175.TXT
MDEDH4227297201704                D89805294000PT1D20170420000060SPEAKER ASM                   M IMCTM S5NB082FTTL  07070IMCT  S5 PTB  00015                    2230 SR        000000000000 FUJITSU TEN (THAILAN15030BL0020021                                                                                                                              *          20170417IMF1704175.TXT
MDEDH4227298201704                D89805294000PT4D20170421000030SPEAKER ASM                   M IMCTM S9AFA25FTTL  07070IMCT  S9 PTB  00015                    0400 SR        000000000000 FUJITSU TEN (THAILAN15028BU0011011                                                                                                                              *          20170417IMF1704175.TXT
MDEDH4227299201704                D89805294000PT4D20170421000030SPEAKER ASM                   M IMCTM S9AFA25FTTL  07070IMCT  S9 PTB  00015                    1600 SR        000000000000 FUJITSU TEN (THAILAN15029BU0008008                                                                                                                              *          20170417IMF1704175.TXT
MDEDH4227300201704                D89805294100PV1D20170420000060SPEAKER ASM                   M IMCTM S5MA14 FTTL  07070IMCT  S5 PTB  00005                    2230 SR        000000000000 FUJITSU TEN (THAILAN15030BL0020021                                                                                                                              *          20170417IMF1704175.TXT
MDEDH4227301201704                D89805294100PV4D20170421000030SPEAKER ASM                   M IMCTM S0FR05 FTTL  07070IMCT  S0 PTB  00005                    0400 SR        000000000000 FUJITSU TEN (THAILAN15028BU0011011                                                                                                                              *          20170417IMF1704175.TXT
MDEDH4227302201704                D89805294100PV4D20170421000030SPEAKER ASM                   M IMCTM S0FR05 FTTL  07070IMCT  S0 PTB  00005                    1600 SR        000000000000 FUJITSU TEN (THAILAN15029BU0008008                                                                                                                              *          20170417IMF1704175.TXT
MDEDH4227303201704                D89828070100PV1D20170421000090SPEAKER ASM                   M IMCTM S5MB11 FTTL  07070IMCT  S5 PTB  00003                    0400 SR        000000000000 FUJITSU TEN (THAILAN17058NL001401417080NL0061062                                                                                                                *          20170417IMF1704175.TXT
MDEDH4227304201704                D89828070100PV1D20170421000060SPEAKER ASM                   M IMCTM S5MB11 FTTL  07070IMCT  S5 PTB  00003                    1300 SR        000000000000 FUJITSU TEN (THAILAN17073NL0003004                                                                                                                              *          20170417IMF1704175.TXT
MDEDH4227305201704                D89828070100PV1D20170421000090SPEAKER ASM                   M IMCTM S5MB11 FTTL  07070IMCT  S5 PTB  00003                    1600 SR        000000000000 FUJITSU TEN (THAILAN17054NL000600617057ML000700717058NL0015015                                                                                                  *          20170417IMF1704175.TXT
MDEDH4227306201704                D89828070100PV1D20170421000030SPEAKER ASM                   M IMCTM S5MB11 FTTL  07070IMCT  S5 PTB  00003                    2100 SR        000000000000 FUJITSU TEN (THAILAN17064NL0011011                                                                                                                              *          20170417IMF1704175.TXT
MDEDH4227307201704                D89828070200PV1D20170421000090SPEAKER ASM                   M IMCTM S5MA14 FTTL  07070IMCT  S5 PTB  00005                    0400 SR        000000000000 FUJITSU TEN (THAILAN17058NL001401417080NL0061062                                                                                                                *          20170417IMF1704175.TXT
MDEDH4227308201704                D89828070200PV1D20170421000060SPEAKER ASM                   M IMCTM S5MA14 FTTL  07070IMCT  S5 PTB  00005                    1300 SR        000000000000 FUJITSU TEN (THAILAN17073NL0003004                                                                                                                              *          20170417IMF1704175.TXT
MDEDH4227309201704                D89828070200PV1D20170421000060SPEAKER ASM                   M IMCTM S5MA14 FTTL  07070IMCT  S5 PTB  00005                    1600 SR        000000000000 FUJITSU TEN (THAILAN17054NL000600617058NL0015015                                                                                                                *          20170417IMF1704175.TXT
MDEDH4227310201704                D89828070300PT1D20170421000090SPEAKER ASM                   M IMCTM S5NB082FTTL  07070IMCT  S5 PTB  00015                    0400 SR        000000000000 FUJITSU TEN (THAILAN17058NL001401417080NL0061062                                                                                                                *          20170417IMF1704175.TXT
MDEDH4227311201704                D89828070300PT1D20170421000060SPEAKER ASM                   M IMCTM S5NB082FTTL  07070IMCT  S5 PTB  00015                    1300 SR        000000000000 FUJITSU TEN (THAILAN17073NL0003004                                                                                                                              *          20170417IMF1704175.TXT
MDEDH4227312201704                D89828070300PT1D20170421000090SPEAKER ASM                   M IMCTM S5NB082FTTL  07070IMCT  S5 PTB  00015                    1600 SR        000000000000 FUJITSU TEN (THAILAN17054NL000600617057ML000700717058NL0015015                                                                                                  *          20170417IMF1704175.TXT
MDEDH4227313201704                D89828070300PT1D20170421000030SPEAKER ASM                   M IMCTM S5NB082FTTL  07070IMCT  S5 PTB  00015                    2100 SR        000000000000 FUJITSU TEN (THAILAN17064NL0011011                                                                                                                              *          20170417IMF1704175.TXT
MDEDH4227314201704                D89829645700PT1D20170421000015RADIO;ASM DVD                 M IMCTM S5NC06 FTTL  07070IMCT  S5 X    00003                    0400 SR        000000000000 FUJITSU TEN (THAILAN17058NL0014014                                                                                                                              *          20170417IMF1704175.TXT
MDEDH4227315201704                D89829645700PT1D20170421000030RADIO;ASM DVD                 M IMCTM S5NC06 FTTL  07070IMCT  S5 X    00003                    1300 SR        000000000000 FUJITSU TEN (THAILAN17073NL0003004                                                                                                                              *          20170417IMF1704175.TXT
MDEDH4227316201704                D89829645700PT1D20170421000030RADIO;ASM DVD                 M IMCTM S5NC06 FTTL  07070IMCT  S5 X    00003                    1600 SR        000000000000 FUJITSU TEN (THAILAN17054NL000600617058NL0015015                                                                                                                *          20170417IMF1704175.TXT
MDEDH4227317201704                D89829645700PT1D20170421000015RADIO;ASM DVD                 M IMCTM S5NC06 FTTL  07070IMCT  S5 X    00003                    2100 SR        000000000000 FUJITSU TEN (THAILAN17064NL0011011                                                                                                                              *          20170417IMF1704175.TXT
MDEUH4215955201704                D89828070100PT4U20170420000030SPEAKER ASM                   M IMCTM S0FL05 FTTL  07070IMCT  S0 PTB  00003                    2230 SR        000000000000 FUJITSU TEN (THAILAN18023TU0032032                                                                                                                              *          20170417IMF1704175.TXT
MDEUH4215956201704                D89828070100PT4U20170421000030SPEAKER ASM                   M IMCTM S0FL05 FTTL  07070IMCT  S0 PTB  00003                    0900 SR        000000000000 FUJITSU TEN (THAILAN18023TU0033033                                                                                                                              *          20170417IMF1704175.TXT
MDEUH4215957201704                D89828070100PT4U20170421000030SPEAKER ASM                   M IMCTM S0FL05 FTTL  07070IMCT  S0 PTB  00003                    1300 SR        000000000000 FUJITSU TEN (THAILAN18023TU0034034                                                                                                                              *          20170417IMF1704175.TXT
MDEUH4215958201704                D89828070100PT4U20170421000060SPEAKER ASM                   M IMCTM S0FL05 FTTL  07070IMCT  S0 PTB  00003                    1600 SR        000000000000 FUJITSU TEN (THAILAN18021TU000400418023TU0035035                                                                                                                *          20170417IMF1704175.TXT
MDEUH4215959201704                D89828070200PV4U20170420000030SPEAKER ASM                   M IMCTM S0FR05 FTTL  07070IMCT  S0 PTB  00005                    2230 SR        000000000000 FUJITSU TEN (THAILAN18023TU0032032                                                                                                                              *          20170417IMF1704175.TXT
MDEUH4215960201704                D89828070200PV4U20170421000030SPEAKER ASM                   M IMCTM S0FR05 FTTL  07070IMCT  S0 PTB  00005                    0900 SR        000000000000 FUJITSU TEN (THAILAN18023TU0033033                                                                                                                              *          20170417IMF1704175.TXT
MDEUH4215961201704                D89828070200PV4U20170421000030SPEAKER ASM                   M IMCTM S0FR05 FTTL  07070IMCT  S0 PTB  00005                    1300 SR        000000000000 FUJITSU TEN (THAILAN18023TU0034034                                                                                                                              *          20170417IMF1704175.TXT
MDEUH4215962201704                D89828070200PV4U20170421000060SPEAKER ASM                   M IMCTM S0FR05 FTTL  07070IMCT  S0 PTB  00005                    1600 SR        000000000000 FUJITSU TEN (THAILAN18021TU000400418023TU0035035                                                                                                                *          20170417IMF1704175.TXT
MDEUH4215963201704                D89828070300PT4U20170420000030SPEAKER ASM                   M IMCTM S9TS02 FTTL  07070IMCT  S9 PTB  00015                    2230 SR        000000000000 FUJITSU TEN (THAILAN18023TU0032032                                                                                                                              *          20170417IMF1704175.TXT
MDEUH4215964201704                D89828070300PT4U20170421000030SPEAKER ASM                   M IMCTM S9TS02 FTTL  07070IMCT  S9 PTB  00015                    0900 SR        000000000000 FUJITSU TEN (THAILAN18023TU0033033                                                                                                                              *          20170417IMF1704175.TXT
MDEUH4215965201704                D89828070300PT4U20170421000030SPEAKER ASM                   M IMCTM S9TS02 FTTL  07070IMCT  S9 PTB  00015                    1300 SR        000000000000 FUJITSU TEN (THAILAN18023TU0034034                                                                                                                              *          20170417IMF1704175.TXT
MDEUH4215966201704                D89828070300PT4U20170421000060SPEAKER ASM                   M IMCTM S9TS02 FTTL  07070IMCT  S9 PTB  00015                    1600 SR        000000000000 FUJITSU TEN (THAILAN18021TU000400418023TU0035035                                                                                                                *          20170417IMF1704175.TXT
MDEUH4215967201704                D89836135900PT4U20170421000015RADIO;ASM DVD                 M IMCTM S9CO001FTTL  07070IMCT  S9 PTB  00003                    1600 SR        000000000000 FUJITSU TEN (THAILAN18021TU0004004                                                                                                                              *          20170417IMF1704175.TXT
