REC2017050820170508ISUZU                              59     
MDDDH5224939201705                D89821984430PT1D20170512000030RADIO;AM/FM,CD                M IMCTM S5NC06 FTTL  07070IMCT  S5 PTB  00005                    0230 SR        000000000000 FUJITSU TEN (THAILAN170KNCL0068068                                                                                                                              *          20170508IMF1705084.TXT
MDDDH5224940201705                D89821984430PT1D20170512000030RADIO;AM/FM,CD                M IMCTM S5NC06 FTTL  07070IMCT  S5 PTB  00005                    0400 SR        000000000000 FUJITSU TEN (THAILAN170KPAL0102102                                                                                                                              *          20170508IMF1705084.TXT
MDDDH5224941201705                D89821984430PT1D20170512000060RADIO;AM/FM,CD                M IMCTM S5NC06 FTTL  07070IMCT  S5 PTB  00005                    0900 SR        000000000000 FUJITSU TEN (THAILAN170KNFL0038038170KRAL0063063                                                                                                                *          20170508IMF1705084.TXT
MDDDH5224942201705                D89821984430PT1D20170512000030RADIO;AM/FM,CD                M IMCTM S5NC06 FTTL  07070IMCT  S5 PTB  00005                    1300 SR        000000000000 FUJITSU TEN (THAILAN170KNEL0091091                                                                                                                              *          20170508IMF1705084.TXT
MDDDH5224943201705                D89828070100PV1D20170511000060SPEAKER ASM                   M IMCTM S5MB11 FTTL  07070IMCT  S5 PTB  00003                    2230 SR        000000000000 FUJITSU TEN (THAILAN170KPFL0152152                                                                                                                              *          20170508IMF1705084.TXT
MDDDH5224944201705                D89828070100PV1D20170512000060SPEAKER ASM                   M IMCTM S5MB11 FTTL  07070IMCT  S5 PTB  00003                    0230 SR        000000000000 FUJITSU TEN (THAILAN170KNCL0068068                                                                                                                              *          20170508IMF1705084.TXT
MDDDH5224945201705                D89828070100PV1D20170512000120SPEAKER ASM                   M IMCTM S5MB11 FTTL  07070IMCT  S5 PTB  00003                    0400 SR        000000000000 FUJITSU TEN (THAILAN170KPAL0102102170KRCL0029029                                                                                                                *          20170508IMF1705084.TXT
MDDDH5224946201705                D89828070100PV1D20170512000120SPEAKER ASM                   M IMCTM S5MB11 FTTL  07070IMCT  S5 PTB  00003                    0900 SR        000000000000 FUJITSU TEN (THAILAN170KNFL0038038170KRAL0063063                                                                                                                *          20170508IMF1705084.TXT
MDDDH5224947201705                D89828070100PV1D20170512000120SPEAKER ASM                   M IMCTM S5MB11 FTTL  07070IMCT  S5 PTB  00003                    1300 SR        000000000000 FUJITSU TEN (THAILAN170KNEL0091091170KRFL0077077                                                                                                                *          20170508IMF1705084.TXT
MDDDH5224948201705                D89828070100PV1D20170512000120SPEAKER ASM                   M IMCTM S5MB11 FTTL  07070IMCT  S5 PTB  00003                    1600 SR        000000000000 FUJITSU TEN (THAILAN170KPCL0059059170KPEL0046046                                                                                                                *          20170508IMF1705084.TXT
MDDDH5224949201705                D89828070200PV1D20170512000060SPEAKER ASM                   M IMCTM S5MA14 FTTL  07070IMCT  S5 PTB  00005                    0400 SR        000000000000 FUJITSU TEN (THAILAN170KRCL0029029                                                                                                                              *          20170508IMF1705084.TXT
MDDDH5224950201705                D89828070200PV1D20170512000060SPEAKER ASM                   M IMCTM S5MA14 FTTL  07070IMCT  S5 PTB  00005                    1300 SR        000000000000 FUJITSU TEN (THAILAN170KRFL0077077                                                                                                                              *          20170508IMF1705084.TXT
MDDDH5224951201705                D89828070300PT1D20170511000060SPEAKER ASM                   M IMCTM S5NB082FTTL  07070IMCT  S5 PTB  00015                    2230 SR        000000000000 FUJITSU TEN (THAILAN170KPFL0152152                                                                                                                              *          20170508IMF1705084.TXT
MDDDH5224952201705                D89828070300PT1D20170512000060SPEAKER ASM                   M IMCTM S5NB082FTTL  07070IMCT  S5 PTB  00015                    0400 SR        000000000000 FUJITSU TEN (THAILAN170KRCL0029029                                                                                                                              *          20170508IMF1705084.TXT
MDDDH5224953201705                D89828070300PT1D20170512000060SPEAKER ASM                   M IMCTM S5NB082FTTL  07070IMCT  S5 PTB  00015                    1300 SR        000000000000 FUJITSU TEN (THAILAN170KRFL0077077                                                                                                                              *          20170508IMF1705084.TXT
MDDDH5224954201705                D89828070300PT1D20170512000120SPEAKER ASM                   M IMCTM S5NB082FTTL  07070IMCT  S5 PTB  00015                    1600 SR        000000000000 FUJITSU TEN (THAILAN170KPCL0059059170KPEL0046046                                                                                                                *          20170508IMF1705084.TXT
MDDDH5224955201705                D89829645910PT1D20170512000030RADIO;ASM DVD                 M IMCTM S5NC06 FTTL  07070IMCT  S5 CPB  00003                    1300 SR        000000000000 FUJITSU TEN (THAILAN170KRFL0077077                                                                                                                              *          20170508IMF1705084.TXT
MDDDH5224956201705                D89831228300PT1D20170511000030RADIO;AM/FM,CD                M IMCTM S5NC06 FTTL  07070IMCT  S5 CPB  00003                    2230 SR        000000000000 FUJITSU TEN (THAILAN170KPFL0152152                                                                                                                              *          20170508IMF1705084.TXT
MDDDH5224957201705                D89831228300PT1D20170512000060RADIO;AM/FM,CD                M IMCTM S5NC06 FTTL  07070IMCT  S5 CPB  00003                    1600 SR        000000000000 FUJITSU TEN (THAILAN170KPCL0059059170KPEL0046046                                                                                                                *          20170508IMF1705084.TXT
MDDDH5224958201705                D89831228400PT1D20170512000030RADIO;AM/FM,CD                M IMCTM S5NC06 FTTL  07070IMCT  S5 CPB  00003                    0400 SR        000000000000 FUJITSU TEN (THAILAN170KRCL0029029                                                                                                                              *          20170508IMF1705084.TXT
MDDUH5209443201705                D89828070100PT4U20170512000030SPEAKER ASM                   M IMCTM S0FL05 FTTL  07070IMCT  S0 PTB  00003                    0900 SR        000000000000 FUJITSU TEN (THAILAN180LUDU0134134                                                                                                                              *          20170508IMF1705084.TXT
MDDUH5209444201705                D89828070100PT4U20170512000030SPEAKER ASM                   M IMCTM S0FL05 FTTL  07070IMCT  S0 PTB  00003                    1600 SR        000000000000 FUJITSU TEN (THAILAN180LUDU0135135                                                                                                                              *          20170508IMF1705084.TXT
MDDUH5209445201705                D89828070200PV4U20170512000030SPEAKER ASM                   M IMCTM S0FR05 FTTL  07070IMCT  S0 PTB  00005                    0900 SR        000000000000 FUJITSU TEN (THAILAN180LUDU0134134                                                                                                                              *          20170508IMF1705084.TXT
MDDUH5209446201705                D89828070200PV4U20170512000030SPEAKER ASM                   M IMCTM S0FR05 FTTL  07070IMCT  S0 PTB  00005                    1600 SR        000000000000 FUJITSU TEN (THAILAN180LUDU0135135                                                                                                                              *          20170508IMF1705084.TXT
MDDUH5209447201705                D89828070300PT4U20170512000030SPEAKER ASM                   M IMCTM S9TS02 FTTL  07070IMCT  S9 PTB  00015                    0900 SR        000000000000 FUJITSU TEN (THAILAN180LUDU0134134                                                                                                                              *          20170508IMF1705084.TXT
MDDUH5209448201705                D89828070300PT4U20170512000030SPEAKER ASM                   M IMCTM S9TS02 FTTL  07070IMCT  S9 PTB  00015                    1600 SR        000000000000 FUJITSU TEN (THAILAN180LUDU0135135                                                                                                                              *          20170508IMF1705084.TXT
MDEDH5217099201705                D89805293700PV4D20170511000030SPEAKER ASM                   M IMCTM S0FR05 FTTL  07070IMCT  S0 PTB  00003                    2100 SR        000000000000 FUJITSU TEN (THAILAN15018FU0035035                                                                                                                              *          20170508IMF1705084.TXT
MDEDH5217100201705                D89805293700PV4D20170511000030SPEAKER ASM                   M IMCTM S0FR05 FTTL  07070IMCT  S0 PTB  00003                    2230 SR        000000000000 FUJITSU TEN (THAILAN15018FU0036036                                                                                                                              *          20170508IMF1705084.TXT
MDEDH5217101201705                D89805293700PV4D20170512000030SPEAKER ASM                   M IMCTM S0FR05 FTTL  07070IMCT  S0 PTB  00003                    0230 SR        000000000000 FUJITSU TEN (THAILAN15019FU0052052                                                                                                                              *          20170508IMF1705084.TXT
MDEDH5217102201705                D89828070100PV1D20170512000030SPEAKER ASM                   M IMCTM S5MB11 FTTL  07070IMCT  S5 PTB  00003                    0230 SR        000000000000 FUJITSU TEN (THAILAN17082NL0006006                                                                                                                              *          20170508IMF1705084.TXT
MDEDH5217103201705                D89828070100PV1D20170512000030SPEAKER ASM                   M IMCTM S5MB11 FTTL  07070IMCT  S5 PTB  00003                    0400 SR        000000000000 FUJITSU TEN (THAILAN17082NL0007007                                                                                                                              *          20170508IMF1705084.TXT
MDEDH5217104201705                D89828070100PV1D20170512000060SPEAKER ASM                   M IMCTM S5MB11 FTTL  07070IMCT  S5 PTB  00003                    1600 SR        000000000000 FUJITSU TEN (THAILAN17076ML0016017                                                                                                                              *          20170508IMF1705084.TXT
MDEDH5217105201705                D89828070100PV1D20170512000030SPEAKER ASM                   M IMCTM S5MB11 FTTL  07070IMCT  S5 PTB  00003                    2100 SR        000000000000 FUJITSU TEN (THAILAN17022ML0022022                                                                                                                              *          20170508IMF1705084.TXT
MDEDH5217106201705                D89828070100PV4D20170512000030SPEAKER ASM                   M IMCTM S0FL05 FTTL  07070IMCT  S0 PTB  00003                    1300 SR        000000000000 FUJITSU TEN (THAILAN17055NU0012012                                                                                                                              *          20170508IMF1705084.TXT
MDEDH5217107201705                D89828070100PV4D20170512000030SPEAKER ASM                   M IMCTM S0FL05 FTTL  07070IMCT  S0 PTB  00003                    1600 SR        000000000000 FUJITSU TEN (THAILAN17076MU0003003                                                                                                                              *          20170508IMF1705084.TXT
MDEDH5217108201705                D89828070200PV1D20170512000030SPEAKER ASM                   M IMCTM S5MA14 FTTL  07070IMCT  S5 PTB  00005                    0230 SR        000000000000 FUJITSU TEN (THAILAN17082NL0006006                                                                                                                              *          20170508IMF1705084.TXT
MDEDH5217109201705                D89828070200PV1D20170512000030SPEAKER ASM                   M IMCTM S5MA14 FTTL  07070IMCT  S5 PTB  00005                    0400 SR        000000000000 FUJITSU TEN (THAILAN17082NL0007007                                                                                                                              *          20170508IMF1705084.TXT
MDEDH5217110201705                D89828070200PV1D20170512000030SPEAKER ASM                   M IMCTM S5MA14 FTTL  07070IMCT  S5 PTB  00005                    2100 SR        000000000000 FUJITSU TEN (THAILAN17022ML0022022                                                                                                                              *          20170508IMF1705084.TXT
MDEDH5217111201705                D89828070300PT1D20170512000030SPEAKER ASM                   M IMCTM S5NB082FTTL  07070IMCT  S5 PTB  00015                    0230 SR        000000000000 FUJITSU TEN (THAILAN17082NL0006006                                                                                                                              *          20170508IMF1705084.TXT
MDEDH5217112201705                D89828070300PT1D20170512000030SPEAKER ASM                   M IMCTM S5NB082FTTL  07070IMCT  S5 PTB  00015                    0400 SR        000000000000 FUJITSU TEN (THAILAN17082NL0007007                                                                                                                              *          20170508IMF1705084.TXT
MDEDH5217113201705                D89828070300PT1D20170512000030SPEAKER ASM                   M IMCTM S5NB082FTTL  07070IMCT  S5 PTB  00015                    2100 SR        000000000000 FUJITSU TEN (THAILAN17022ML0022022                                                                                                                              *          20170508IMF1705084.TXT
MDEDH5217114201705                D89828070300PT4D20170512000030SPEAKER ASM                   M IMCTM S9TS02 FTTL  07070IMCT  S9 PTB  00015                    1300 SR        000000000000 FUJITSU TEN (THAILAN17055NU0012012                                                                                                                              *          20170508IMF1705084.TXT
MDEDH5217115201705                D89829645710PT4D20170512000015RADIO;ASM DVD                 M IMCTM S9CO001FTTL  07070IMCT  S9 X    00003                    1300 SR        000000000000 FUJITSU TEN (THAILAN17055NU0012012                                                                                                                              *          20170508IMF1705084.TXT
MDEUH5213742201705                D89828070100PT4U20170512000030SPEAKER ASM                   M IMCTM S0FL05 FTTL  07070IMCT  S0 PTB  00003                    0230 SR        000000000000 FUJITSU TEN (THAILAN18024TU0010010                                                                                                                              *          20170508IMF1705084.TXT
MDEUH5213743201705                D89828070100PT4U20170512000030SPEAKER ASM                   M IMCTM S0FL05 FTTL  07070IMCT  S0 PTB  00003                    0400 SR        000000000000 FUJITSU TEN (THAILAN160B95U0055055                                                                                                                              *          20170508IMF1705084.TXT
MDEUH5213744201705                D89828070100PT4U20170512000030SPEAKER ASM                   M IMCTM S0FL05 FTTL  07070IMCT  S0 PTB  00003                    0900 SR        000000000000 FUJITSU TEN (THAILAN18023TU0072072                                                                                                                              *          20170508IMF1705084.TXT
MDEUH5213745201705                D89828070100PT4U20170512000030SPEAKER ASM                   M IMCTM S0FL05 FTTL  07070IMCT  S0 PTB  00003                    1300 SR        000000000000 FUJITSU TEN (THAILAN18023TU0073073                                                                                                                              *          20170508IMF1705084.TXT
MDEUH5213746201705                D89828070100PT4U20170512000030SPEAKER ASM                   M IMCTM S0FL05 FTTL  07070IMCT  S0 PTB  00003                    1600 SR        000000000000 FUJITSU TEN (THAILAN18021TU0010010                                                                                                                              *          20170508IMF1705084.TXT
MDEUH5213747201705                D89828070200PV4U20170512000030SPEAKER ASM                   M IMCTM S0FR05 FTTL  07070IMCT  S0 PTB  00005                    0230 SR        000000000000 FUJITSU TEN (THAILAN18024TU0010010                                                                                                                              *          20170508IMF1705084.TXT
MDEUH5213748201705                D89828070200PV4U20170512000030SPEAKER ASM                   M IMCTM S0FR05 FTTL  07070IMCT  S0 PTB  00005                    0400 SR        000000000000 FUJITSU TEN (THAILAN160B95U0055055                                                                                                                              *          20170508IMF1705084.TXT
MDEUH5213749201705                D89828070200PV4U20170512000030SPEAKER ASM                   M IMCTM S0FR05 FTTL  07070IMCT  S0 PTB  00005                    0900 SR        000000000000 FUJITSU TEN (THAILAN18023TU0072072                                                                                                                              *          20170508IMF1705084.TXT
MDEUH5213750201705                D89828070200PV4U20170512000030SPEAKER ASM                   M IMCTM S0FR05 FTTL  07070IMCT  S0 PTB  00005                    1300 SR        000000000000 FUJITSU TEN (THAILAN18023TU0073073                                                                                                                              *          20170508IMF1705084.TXT
MDEUH5213751201705                D89828070200PV4U20170512000030SPEAKER ASM                   M IMCTM S0FR05 FTTL  07070IMCT  S0 PTB  00005                    1600 SR        000000000000 FUJITSU TEN (THAILAN18021TU0010010                                                                                                                              *          20170508IMF1705084.TXT
MDEUH5213752201705                D89828070300PT4U20170512000030SPEAKER ASM                   M IMCTM S9TS02 FTTL  07070IMCT  S9 PTB  00015                    0230 SR        000000000000 FUJITSU TEN (THAILAN18024TU0010010                                                                                                                              *          20170508IMF1705084.TXT
MDEUH5213753201705                D89828070300PT4U20170512000030SPEAKER ASM                   M IMCTM S9TS02 FTTL  07070IMCT  S9 PTB  00015                    0400 SR        000000000000 FUJITSU TEN (THAILAN160B95U0055055                                                                                                                              *          20170508IMF1705084.TXT
MDEUH5213754201705                D89828070300PT4U20170512000030SPEAKER ASM                   M IMCTM S9TS02 FTTL  07070IMCT  S9 PTB  00015                    0900 SR        000000000000 FUJITSU TEN (THAILAN18023TU0072072                                                                                                                              *          20170508IMF1705084.TXT
MDEUH5213755201705                D89828070300PT4U20170512000030SPEAKER ASM                   M IMCTM S9TS02 FTTL  07070IMCT  S9 PTB  00015                    1300 SR        000000000000 FUJITSU TEN (THAILAN18023TU0073073                                                                                                                              *          20170508IMF1705084.TXT
MDEUH5213756201705                D89828070300PT4U20170512000030SPEAKER ASM                   M IMCTM S9TS02 FTTL  07070IMCT  S9 PTB  00015                    1600 SR        000000000000 FUJITSU TEN (THAILAN18021TU0010010                                                                                                                              *          20170508IMF1705084.TXT
MDEUH5213757201705                D89836135900PT4U20170512000015RADIO;ASM DVD                 M IMCTM S9CO001FTTL  07070IMCT  S9 PTB  00003                    1600 SR        000000000000 FUJITSU TEN (THAILAN18021TU0010010                                                                                                                              *          20170508IMF1705084.TXT
