REC2017052020170522ISUZU                              19     
MDEFH5T18260201705                D89805293700PV4F20170524000016SPEAKER ASM                   M IMCTM S7FR05 FTTL  07070IMCT  S7 PTB  00003                    1600 SR        000000000000 FUJITSU TEN (THAILAN15010HR0069   15031BR0195   D170505001    D170505008    000000                                                                              *R         20170520RDF1705204.TXT
MDEFH5T18261201705                D89805294000PT4F20170524000016SPEAKER ASM                   M IMCTM S7TS02 FTTL  07070IMCT  S7 PTB  00015                    1600 SR        000000000000 FUJITSU TEN (THAILAN15010HR0069   15031BR0195   D170505001    D170505008    000000                                                                              *R         20170520RDF1705204.TXT
MDEFH5T18262201705                D89805294100PV4F20170524000016SPEAKER ASM                   M IMCTM S7FR05 FTTL  07070IMCT  S7 PTB  00005                    1600 SR        000000000000 FUJITSU TEN (THAILAN15010HR0069   15031BR0195   D170505001    D170505008    000000                                                                              *R         20170520RDF1705204.TXT
MDEFH5T18263201705                D89828070100PV4F20170525000020SPEAKER ASM                   M IMCTM S7FL05 FTTL  07070IMCT  S7 PTB  00003                    0900 SR        000000000000 FUJITSU TEN (THAILAN17064MR0034   17071MR0047   F170505206    F170505215    000000                                                                              *R         20170520RDF1705204.TXT
MDEFH5T18264201705                D89828070200PV4F20170524000003SPEAKER ASM                   M IMCTM S7TS02 FTTL  07070IMCT  S7 PTB  00005                    2230 SR        000000000000 FUJITSU TEN (THAILAN17085MR0029   17085MR0030   D170505114    D170505115    000000                                                                              *R         20170520RDF1705204.TXT
MDEFH5T18265201705                D89828070300PT4F20170525000017SPEAKER ASM                   M IMCTM S7TS02 FTTL  07070IMCT  S7 PTB  00015                    0900 SR        000000000000 FUJITSU TEN (THAILAN17063MR0028   17071MR0047   F170505207    F170505215    000000                                                                              *R         20170520RDF1705204.TXT
MDEFH5T18266201705                D89829622410PT4F20170525000001RADIO;ASM DVD                 M IMCTM S7TS03 FTTL  07070IMCT  S7 PTB  00003                    0900 SR        000000000000 FUJITSU TEN (THAILAN17056MR0035   17056MR0035   F170505209    F170505209    000000                                                                              *R         20170520RDF1705204.TXT
MDEFH5T18267201705                D89829645310PT4F20170524000005RADIO;ASM DVD                 M IMCTM S7TS03 FTTL  07070IMCT  S7 PTB  00003                    1600 SR        000000000000 FUJITSU TEN (THAILAN17014NR0032   17032PR0040   D170505011    D170505102    000000                                                                              *R         20170520RDF1705204.TXT
MDEFH5T18268201705                D89831228700PT4F20170525000001RADIO;AM/FM,CD                M IMCTM S7TS03 FTTL  07070IMCT  S7 PTB  00003                    0900 SR        000000000000 FUJITSU TEN (THAILAN17063MR0028   17063MR0028   F170505207    F170505207    000000                                                                              *R         20170520RDF1705204.TXT
MDEFH5248025201705                D89828070100PV4F20170524000015SPEAKER ASM                   M IMCTM S7FL05 FTTL  07070IMCT  S7 PTB  00003                    1600 SR        000000000000 FUJITSU TEN (THAILAN17005NR0035   17017NR0029   D170505009    D170505101    000000                                                                              *R         20170520RDF1705204.TXT
MDEFH5248026201705                D89828070100PV4F20170524000027SPEAKER ASM                   M IMCTM S7FL05 FTTL  07070IMCT  S7 PTB  00003                    2100 SR        000000000000 FUJITSU TEN (THAILAN17017NR0029   17085MR0029   D170505101    D170505114    000000                                                                              *R         20170520RDF1705204.TXT
MDEFH5248027201705                D89828070100PV4F20170524000003SPEAKER ASM                   M IMCTM S7FL05 FTTL  07070IMCT  S7 PTB  00003                    2230 SR        000000000000 FUJITSU TEN (THAILAN17085MR0030   17056MR0032   D170505115    F170505201    000000                                                                              *R         20170520RDF1705204.TXT
MDEFH5248028201705                D89828070100PV4F20170525000009SPEAKER ASM                   M IMCTM S7FL05 FTTL  07070IMCT  S7 PTB  00003                    0400 SR        000000000000 FUJITSU TEN (THAILAN17056MR0032   17057MR0022   F170505201    F170505205    000000                                                                              *R         20170520RDF1705204.TXT
MDEFH5248029201705                D89828070200PV4F20170524000015SPEAKER ASM                   M IMCTM S7TS02 FTTL  07070IMCT  S7 PTB  00005                    1600 SR        000000000000 FUJITSU TEN (THAILAN17005NR0035   17017NR0029   D170505009    D170505101    000000                                                                              *R         20170520RDF1705204.TXT
MDEFH5248030201705                D89828070200PV4F20170524000010SPEAKER ASM                   M IMCTM S7TS02 FTTL  07070IMCT  S7 PTB  00005                    2100 SR        000000000000 FUJITSU TEN (THAILAN17017NR0029   17085MR0029   D170505101    D170505114    000000                                                                              *R         20170520RDF1705204.TXT
MDEFH5248031201705                D89828070300PT4F20170524000015SPEAKER ASM                   M IMCTM S7TS02 FTTL  07070IMCT  S7 PTB  00015                    1600 SR        000000000000 FUJITSU TEN (THAILAN17005NR0035   17017NR0029   D170505009    D170505101    000000                                                                              *R         20170520RDF1705204.TXT
MDEFH5248032201705                D89828070300PT4F20170524000015SPEAKER ASM                   M IMCTM S7TS02 FTTL  07070IMCT  S7 PTB  00015                    2100 SR        000000000000 FUJITSU TEN (THAILAN17017NR0029   17085MR0029   D170505101    D170505114    000000                                                                              *R         20170520RDF1705204.TXT
MDEFH5248033201705                D89828070300PT4F20170524000015SPEAKER ASM                   M IMCTM S7TS02 FTTL  07070IMCT  S7 PTB  00015                    2230 SR        000000000000 FUJITSU TEN (THAILAN17085MR0030   17063MR0028   D170505115    F170505207    000000                                                                              *R         20170520RDF1705204.TXT
MDEFH5248034201705                D89829622410PT4F20170525000003RADIO;ASM DVD                 M IMCTM S7TS03 FTTL  07070IMCT  S7 PTB  00003                    0400 SR        000000000000 FUJITSU TEN (THAILAN17056MR0032   17056MR0034   F170505201    F170505208    000000                                                                              *R         20170520RDF1705204.TXT
