REC2017052220170522ISUZU                              56     
MDDDH5294018201705                D89821984430PT1D20170525000030RADIO;AM/FM,CD                M IMCTM S5NC06 FTTL  07070IMCT  S5 PTB  00005                    2230 SR        000000000000 FUJITSU TEN (THAILAN170KNEL0100100                                                                                                                              *          20170522IMF1705223.TXT
MDDDH5294019201705                D89821984430PT1D20170526000060RADIO;AM/FM,CD                M IMCTM S5NC06 FTTL  07070IMCT  S5 PTB  00005                    0400 SR        000000000000 FUJITSU TEN (THAILAN170KNEL0101101170KPAL0110110                                                                                                                *          20170522IMF1705223.TXT
MDDDH5294020201705                D89821984430PT1D20170526000030RADIO;AM/FM,CD                M IMCTM S5NC06 FTTL  07070IMCT  S5 PTB  00005                    0900 SR        000000000000 FUJITSU TEN (THAILAN170KRAL0079079                                                                                                                              *          20170522IMF1705223.TXT
MDDDH5294021201705                D89821984430PT1D20170526000060RADIO;AM/FM,CD                M IMCTM S5NC06 FTTL  07070IMCT  S5 PTB  00005                    1300 SR        000000000000 FUJITSU TEN (THAILAN170KNCL0081081170KNFL0041041                                                                                                                *          20170522IMF1705223.TXT
MDDDH5294022201705                D89821984430PT1D20170526000030RADIO;AM/FM,CD                M IMCTM S5NC06 FTTL  07070IMCT  S5 PTB  00005                    2230 SR        000000000000 FUJITSU TEN (THAILAN170KRAL0080080                                                                                                                              *          20170522IMF1705223.TXT
MDDDH5294023201705                D89825217910PT1D20170526000030RADIO;AM/FM,CD,D              M IMCTM S5NC06 FTTL  07070IMCT  S5 PTB  00003                    2100 SR        000000000000 FUJITSU TEN (THAILAN170KPKL0015015                                                                                                                              *          20170522IMF1705223.TXT
MDDDH5294024201705                D89828070100PV1D20170525000060SPEAKER ASM                   M IMCTM S5MB11 FTTL  07070IMCT  S5 PTB  00003                    2230 SR        000000000000 FUJITSU TEN (THAILAN170KNEL0100100                                                                                                                              *          20170522IMF1705223.TXT
MDDDH5294025201705                D89828070100PV1D20170526000060SPEAKER ASM                   M IMCTM S5MB11 FTTL  07070IMCT  S5 PTB  00003                    0230 SR        000000000000 FUJITSU TEN (THAILAN170KRFL0091091                                                                                                                              *          20170522IMF1705223.TXT
MDDDH5294026201705                D89828070100PV1D20170526000120SPEAKER ASM                   M IMCTM S5MB11 FTTL  07070IMCT  S5 PTB  00003                    0400 SR        000000000000 FUJITSU TEN (THAILAN170KNEL0101101170KPAL0110110                                                                                                                *          20170522IMF1705223.TXT
MDDDH5294027201705                D89828070100PV1D20170526000060SPEAKER ASM                   M IMCTM S5MB11 FTTL  07070IMCT  S5 PTB  00003                    0900 SR        000000000000 FUJITSU TEN (THAILAN170KRAL0079079                                                                                                                              *          20170522IMF1705223.TXT
MDDDH5294028201705                D89828070100PV1D20170526000180SPEAKER ASM                   M IMCTM S5MB11 FTTL  07070IMCT  S5 PTB  00003                    1300 SR        000000000000 FUJITSU TEN (THAILAN170KNCL0081081170KNFL0041041170KRJL0036036                                                                                                  *          20170522IMF1705223.TXT
MDDDH5294029201705                D89828070100PV1D20170526000060SPEAKER ASM                   M IMCTM S5MB11 FTTL  07070IMCT  S5 PTB  00003                    2100 SR        000000000000 FUJITSU TEN (THAILAN170KPKL0015015                                                                                                                              *          20170522IMF1705223.TXT
MDDDH5294030201705                D89828070100PV1D20170526000060SPEAKER ASM                   M IMCTM S5MB11 FTTL  07070IMCT  S5 PTB  00003                    2230 SR        000000000000 FUJITSU TEN (THAILAN170KRAL0080080                                                                                                                              *          20170522IMF1705223.TXT
MDDDH5294031201705                D89828070200PV1D20170526000060SPEAKER ASM                   M IMCTM S5MA14 FTTL  07070IMCT  S5 PTB  00005                    0230 SR        000000000000 FUJITSU TEN (THAILAN170KRFL0091091                                                                                                                              *          20170522IMF1705223.TXT
MDDDH5294032201705                D89828070200PV1D20170526000060SPEAKER ASM                   M IMCTM S5MA14 FTTL  07070IMCT  S5 PTB  00005                    1300 SR        000000000000 FUJITSU TEN (THAILAN170KRJL0036036                                                                                                                              *          20170522IMF1705223.TXT
MDDDH5294033201705                D89828070300PT1D20170526000060SPEAKER ASM                   M IMCTM S5NB082FTTL  07070IMCT  S5 PTB  00015                    0230 SR        000000000000 FUJITSU TEN (THAILAN170KRFL0091091                                                                                                                              *          20170522IMF1705223.TXT
MDDDH5294034201705                D89828070300PT1D20170526000060SPEAKER ASM                   M IMCTM S5NB082FTTL  07070IMCT  S5 PTB  00015                    1300 SR        000000000000 FUJITSU TEN (THAILAN170KRJL0036036                                                                                                                              *          20170522IMF1705223.TXT
MDDDH5294035201705                D89828070300PT1D20170526000060SPEAKER ASM                   M IMCTM S5NB082FTTL  07070IMCT  S5 PTB  00015                    2100 SR        000000000000 FUJITSU TEN (THAILAN170KPKL0015015                                                                                                                              *          20170522IMF1705223.TXT
MDDDH5294036201705                D89829645910PT1D20170526000030RADIO;ASM DVD                 M IMCTM S5NC06 FTTL  07070IMCT  S5 CPB  00003                    0230 SR        000000000000 FUJITSU TEN (THAILAN170KRFL0091091                                                                                                                              *          20170522IMF1705223.TXT
MDDUH5238198201705                D89828070100PT4U20170526000030SPEAKER ASM                   M IMCTM S0FL05 FTTL  07070IMCT  S0 PTB  00003                    0230 SR        000000000000 FUJITSU TEN (THAILAN180LUEU0092092                                                                                                                              *          20170522IMF1705223.TXT
MDDUH5238199201705                D89828070100PT4U20170526000030SPEAKER ASM                   M IMCTM S0FL05 FTTL  07070IMCT  S0 PTB  00003                    0900 SR        000000000000 FUJITSU TEN (THAILAN180LUEU0093093                                                                                                                              *          20170522IMF1705223.TXT
MDDUH5238200201705                D89828070200PV4U20170526000030SPEAKER ASM                   M IMCTM S0FR05 FTTL  07070IMCT  S0 PTB  00005                    0230 SR        000000000000 FUJITSU TEN (THAILAN180LUEU0092092                                                                                                                              *          20170522IMF1705223.TXT
MDDUH5238201201705                D89828070200PV4U20170526000030SPEAKER ASM                   M IMCTM S0FR05 FTTL  07070IMCT  S0 PTB  00005                    0900 SR        000000000000 FUJITSU TEN (THAILAN180LUEU0093093                                                                                                                              *          20170522IMF1705223.TXT
MDDUH5238202201705                D89828070300PT4U20170526000030SPEAKER ASM                   M IMCTM S9TS02 FTTL  07070IMCT  S9 PTB  00015                    0230 SR        000000000000 FUJITSU TEN (THAILAN180LUEU0092092                                                                                                                              *          20170522IMF1705223.TXT
MDDUH5238203201705                D89828070300PT4U20170526000030SPEAKER ASM                   M IMCTM S9TS02 FTTL  07070IMCT  S9 PTB  00015                    0900 SR        000000000000 FUJITSU TEN (THAILAN180LUEU0093093                                                                                                                              *          20170522IMF1705223.TXT
MDEDH5268088201705                D89805293700PV4D20170526000030SPEAKER ASM                   M IMCTM S0FR05 FTTL  07070IMCT  S0 PTB  00003                    1300 SR        000000000000 FUJITSU TEN (THAILAN15028BU0012012                                                                                                                              *          20170522IMF1705223.TXT
MDEDH5268089201705                D89805294000PT4D20170526000030SPEAKER ASM                   M IMCTM S9AFA25FTTL  07070IMCT  S9 PTB  00015                    1300 SR        000000000000 FUJITSU TEN (THAILAN15028BU0012012                                                                                                                              *          20170522IMF1705223.TXT
MDEDH5268090201705                D89805294100PV4D20170526000030SPEAKER ASM                   M IMCTM S0FR05 FTTL  07070IMCT  S0 PTB  00005                    1300 SR        000000000000 FUJITSU TEN (THAILAN15028BU0012012                                                                                                                              *          20170522IMF1705223.TXT
MDEDH5268091201705                D89828070100PV1D20170526000030SPEAKER ASM                   M IMCTM S5MB11 FTTL  07070IMCT  S5 PTB  00003                    0230 SR        000000000000 FUJITSU TEN (THAILAN17080NL0068068                                                                                                                              *          20170522IMF1705223.TXT
MDEDH5268092201705                D89828070100PV1D20170526000030SPEAKER ASM                   M IMCTM S5MB11 FTTL  07070IMCT  S5 PTB  00003                    0400 SR        000000000000 FUJITSU TEN (THAILAN17080NL0069069                                                                                                                              *          20170522IMF1705223.TXT
MDEDH5268093201705                D89828070100PV4D20170525000030SPEAKER ASM                   M IMCTM S0FL05 FTTL  07070IMCT  S0 PTB  00003                    2230 SR        000000000000 FUJITSU TEN (THAILAN17071MU0003003                                                                                                                              *          20170522IMF1705223.TXT
MDEDH5268094201705                D89828070100PV4D20170526000030SPEAKER ASM                   M IMCTM S0FL05 FTTL  07070IMCT  S0 PTB  00003                    0230 SR        000000000000 FUJITSU TEN (THAILAN17057NU0004004                                                                                                                              *          20170522IMF1705223.TXT
MDEDH5268095201705                D89828070100PV4D20170526000030SPEAKER ASM                   M IMCTM S0FL05 FTTL  07070IMCT  S0 PTB  00003                    0900 SR        000000000000 FUJITSU TEN (THAILAN17029MU0003003                                                                                                                              *          20170522IMF1705223.TXT
MDEDH5268096201705                D89828070200PV1D20170526000030SPEAKER ASM                   M IMCTM S5MA14 FTTL  07070IMCT  S5 PTB  00005                    0230 SR        000000000000 FUJITSU TEN (THAILAN17080NL0068068                                                                                                                              *          20170522IMF1705223.TXT
MDEDH5268097201705                D89828070200PV1D20170526000030SPEAKER ASM                   M IMCTM S5MA14 FTTL  07070IMCT  S5 PTB  00005                    0400 SR        000000000000 FUJITSU TEN (THAILAN17080NL0069069                                                                                                                              *          20170522IMF1705223.TXT
MDEDH5268098201705                D89828070200PV4D20170526000030SPEAKER ASM                   M IMCTM S0FR05 FTTL  07070IMCT  S0 PTB  00005                    0230 SR        000000000000 FUJITSU TEN (THAILAN17057NU0004004                                                                                                                              *          20170522IMF1705223.TXT
MDEDH5268099201705                D89828070200PV4D20170526000030SPEAKER ASM                   M IMCTM S0FR05 FTTL  07070IMCT  S0 PTB  00005                    0900 SR        000000000000 FUJITSU TEN (THAILAN17029MU0003003                                                                                                                              *          20170522IMF1705223.TXT
MDEDH5268100201705                D89828070300PT1D20170526000030SPEAKER ASM                   M IMCTM S5NB082FTTL  07070IMCT  S5 PTB  00015                    0230 SR        000000000000 FUJITSU TEN (THAILAN17080NL0068068                                                                                                                              *          20170522IMF1705223.TXT
MDEDH5268101201705                D89828070300PT1D20170526000030SPEAKER ASM                   M IMCTM S5NB082FTTL  07070IMCT  S5 PTB  00015                    0400 SR        000000000000 FUJITSU TEN (THAILAN17080NL0069069                                                                                                                              *          20170522IMF1705223.TXT
MDEDH5268102201705                D89828070300PT4D20170525000030SPEAKER ASM                   M IMCTM S9TS02 FTTL  07070IMCT  S9 PTB  00015                    2230 SR        000000000000 FUJITSU TEN (THAILAN17071MU0003003                                                                                                                              *          20170522IMF1705223.TXT
MDEDH5268103201705                D89828070300PT4D20170526000030SPEAKER ASM                   M IMCTM S9TS02 FTTL  07070IMCT  S9 PTB  00015                    0230 SR        000000000000 FUJITSU TEN (THAILAN17057NU0004004                                                                                                                              *          20170522IMF1705223.TXT
MDEDH5268104201705                D89828070300PT4D20170526000030SPEAKER ASM                   M IMCTM S9TS02 FTTL  07070IMCT  S9 PTB  00015                    0900 SR        000000000000 FUJITSU TEN (THAILAN17029MU0003003                                                                                                                              *          20170522IMF1705223.TXT
MDEDH5268105201705                D89829645710PT4D20170526000015RADIO;ASM DVD                 M IMCTM S9CO001FTTL  07070IMCT  S9 PTB  00003                    0230 SR        000000000000 FUJITSU TEN (THAILAN17057NU0004004                                                                                                                              *          20170522IMF1705223.TXT
MDEUH5252896201705                D89828070100PT4U20170525000030SPEAKER ASM                   M IMCTM S0FL05 FTTL  07070IMCT  S0 PTB  00003                    2100 SR        000000000000 FUJITSU TEN (THAILAN18023TU0091091                                                                                                                              *          20170522IMF1705223.TXT
MDEUH5252897201705                D89828070100PT4U20170526000030SPEAKER ASM                   M IMCTM S0FL05 FTTL  07070IMCT  S0 PTB  00003                    0900 SR        000000000000 FUJITSU TEN (THAILAN18018TU0020020                                                                                                                              *          20170522IMF1705223.TXT
MDEUH5252898201705                D89828070100PT4U20170526000030SPEAKER ASM                   M IMCTM S0FL05 FTTL  07070IMCT  S0 PTB  00003                    1300 SR        000000000000 FUJITSU TEN (THAILAN18023TU0092092                                                                                                                              *          20170522IMF1705223.TXT
MDEUH5252899201705                D89828070100PT4U20170526000030SPEAKER ASM                   M IMCTM S0FL05 FTTL  07070IMCT  S0 PTB  00003                    1600 SR        000000000000 FUJITSU TEN (THAILAN18021TU0018018                                                                                                                              *          20170522IMF1705223.TXT
MDEUH5252900201705                D89828070200PV4U20170525000030SPEAKER ASM                   M IMCTM S0FR05 FTTL  07070IMCT  S0 PTB  00005                    2100 SR        000000000000 FUJITSU TEN (THAILAN18023TU0091091                                                                                                                              *          20170522IMF1705223.TXT
MDEUH5252901201705                D89828070200PV4U20170526000030SPEAKER ASM                   M IMCTM S0FR05 FTTL  07070IMCT  S0 PTB  00005                    0900 SR        000000000000 FUJITSU TEN (THAILAN18018TU0020020                                                                                                                              *          20170522IMF1705223.TXT
MDEUH5252902201705                D89828070200PV4U20170526000030SPEAKER ASM                   M IMCTM S0FR05 FTTL  07070IMCT  S0 PTB  00005                    1300 SR        000000000000 FUJITSU TEN (THAILAN18023TU0092092                                                                                                                              *          20170522IMF1705223.TXT
MDEUH5252903201705                D89828070200PV4U20170526000030SPEAKER ASM                   M IMCTM S0FR05 FTTL  07070IMCT  S0 PTB  00005                    1600 SR        000000000000 FUJITSU TEN (THAILAN18021TU0018018                                                                                                                              *          20170522IMF1705223.TXT
MDEUH5252904201705                D89828070300PT4U20170525000030SPEAKER ASM                   M IMCTM S9TS02 FTTL  07070IMCT  S9 PTB  00015                    2100 SR        000000000000 FUJITSU TEN (THAILAN18023TU0091091                                                                                                                              *          20170522IMF1705223.TXT
MDEUH5252905201705                D89828070300PT4U20170526000030SPEAKER ASM                   M IMCTM S9TS02 FTTL  07070IMCT  S9 PTB  00015                    0900 SR        000000000000 FUJITSU TEN (THAILAN18018TU0020020                                                                                                                              *          20170522IMF1705223.TXT
MDEUH5252906201705                D89828070300PT4U20170526000030SPEAKER ASM                   M IMCTM S9TS02 FTTL  07070IMCT  S9 PTB  00015                    1300 SR        000000000000 FUJITSU TEN (THAILAN18023TU0092092                                                                                                                              *          20170522IMF1705223.TXT
MDEUH5252907201705                D89828070300PT4U20170526000030SPEAKER ASM                   M IMCTM S9TS02 FTTL  07070IMCT  S9 PTB  00015                    1600 SR        000000000000 FUJITSU TEN (THAILAN18021TU0018018                                                                                                                              *          20170522IMF1705223.TXT
MDEUH5252908201705                D89836135900PT4U20170526000015RADIO;ASM DVD                 M IMCTM S9CO001FTTL  07070IMCT  S9 PTB  00003                    1600 SR        000000000000 FUJITSU TEN (THAILAN18021TU0018018                                                                                                                              *          20170522IMF1705223.TXT
