REC2017052620170526ISUZU                              58     
MDDDH5314385201706                D89821984430PT1D20170601000060RADIO;AM/FM,CD                M IMCTM S5NC06 FTTL  07070IMCT  S5 PTB  00005                    0400 SR        000000000000 FUJITSU TEN (THAILAN170KNCL0083083170KRAL0082082                                                                                                                *          20170526IMF1705266.TXT
MDDDH5314386201706                D89821984430PT1D20170601000030RADIO;AM/FM,CD                M IMCTM S5NC06 FTTL  07070IMCT  S5 PTB  00005                    1300 SR        000000000000 FUJITSU TEN (THAILAN170KNDL0115115                                                                                                                              *          20170526IMF1705266.TXT
MDDDH5314387201706                D89828070100PV1D20170531000120SPEAKER ASM                   M IMCTM S5MB11 FTTL  07070IMCT  S5 PTB  00003                    2230 SR        000000000000 FUJITSU TEN (THAILAN170KNAL0054054170KPFL0169169                                                                                                                *          20170526IMF1705266.TXT
MDDDH5314388201706                D89828070100PV1D20170601000120SPEAKER ASM                   M IMCTM S5MB11 FTTL  07070IMCT  S5 PTB  00003                    0400 SR        000000000000 FUJITSU TEN (THAILAN170KNCL0083083170KRAL0082082                                                                                                                *          20170526IMF1705266.TXT
MDDDH5314389201706                D89828070100PV1D20170601000060SPEAKER ASM                   M IMCTM S5MB11 FTTL  07070IMCT  S5 PTB  00003                    0900 SR        000000000000 FUJITSU TEN (THAILAN170KRFL0094094                                                                                                                              *          20170526IMF1705266.TXT
MDDDH5314390201706                D89828070100PV1D20170601000120SPEAKER ASM                   M IMCTM S5MB11 FTTL  07070IMCT  S5 PTB  00003                    1300 SR        000000000000 FUJITSU TEN (THAILAN170KNDL0115115170KPCL0064064                                                                                                                *          20170526IMF1705266.TXT
MDDDH5314391201706                D89828070100PV1D20170601000060SPEAKER ASM                   M IMCTM S5MB11 FTTL  07070IMCT  S5 PTB  00003                    1600 SR        000000000000 FUJITSU TEN (THAILAN170KRKL0004004                                                                                                                              *          20170526IMF1705266.TXT
MDDDH5314392201706                D89828070200PV1D20170601000060SPEAKER ASM                   M IMCTM S5MA14 FTTL  07070IMCT  S5 PTB  00005                    0900 SR        000000000000 FUJITSU TEN (THAILAN170KRFL0094094                                                                                                                              *          20170526IMF1705266.TXT
MDDDH5314393201706                D89828070200PV1D20170601000060SPEAKER ASM                   M IMCTM S5MA14 FTTL  07070IMCT  S5 PTB  00005                    1600 SR        000000000000 FUJITSU TEN (THAILAN170KRKL0004004                                                                                                                              *          20170526IMF1705266.TXT
MDDDH5314394201706                D89828070300PT1D20170531000060SPEAKER ASM                   M IMCTM S5NB082FTTL  07070IMCT  S5 PTB  00015                    2230 SR        000000000000 FUJITSU TEN (THAILAN170KPFL0169169                                                                                                                              *          20170526IMF1705266.TXT
MDDDH5314395201706                D89828070300PT1D20170601000060SPEAKER ASM                   M IMCTM S5NB082FTTL  07070IMCT  S5 PTB  00015                    0900 SR        000000000000 FUJITSU TEN (THAILAN170KRFL0094094                                                                                                                              *          20170526IMF1705266.TXT
MDDDH5314396201706                D89828070300PT1D20170601000060SPEAKER ASM                   M IMCTM S5NB082FTTL  07070IMCT  S5 PTB  00015                    1300 SR        000000000000 FUJITSU TEN (THAILAN170KPCL0064064                                                                                                                              *          20170526IMF1705266.TXT
MDDDH5314397201706                D89828070300PT1D20170601000060SPEAKER ASM                   M IMCTM S5NB082FTTL  07070IMCT  S5 PTB  00015                    1600 SR        000000000000 FUJITSU TEN (THAILAN170KRKL0004004                                                                                                                              *          20170526IMF1705266.TXT
MDDDH5314398201706                D89829645910PT1D20170601000030RADIO;ASM DVD                 M IMCTM S5NC06 FTTL  07070IMCT  S5 CPB  00003                    0900 SR        000000000000 FUJITSU TEN (THAILAN170KRFL0094094                                                                                                                              *          20170526IMF1705266.TXT
MDDDH5314399201706                D89831228300PT1D20170531000030RADIO;AM/FM,CD                M IMCTM S5NC06 FTTL  07070IMCT  S5 CPB  00003                    2230 SR        000000000000 FUJITSU TEN (THAILAN170KPFL0169169                                                                                                                              *          20170526IMF1705266.TXT
MDDDH5314400201706                D89831228300PT1D20170601000030RADIO;AM/FM,CD                M IMCTM S5NC06 FTTL  07070IMCT  S5 CPB  00003                    1300 SR        000000000000 FUJITSU TEN (THAILAN170KPCL0064064                                                                                                                              *          20170526IMF1705266.TXT
MDDUH5249726201706                D89828070100PT4U20170531000030SPEAKER ASM                   M IMCTM S0FL05 FTTL  07070IMCT  S0 PTB  00003                    2230 SR        000000000000 FUJITSU TEN (THAILAN180LUAU0013013                                                                                                                              *          20170526IMF1705266.TXT
MDDUH5249727201706                D89828070100PT4U20170601000060SPEAKER ASM                   M IMCTM S0FL05 FTTL  07070IMCT  S0 PTB  00003                    0230 SR        000000000000 FUJITSU TEN (THAILAN180LUDU0153153180LUEU0096096                                                                                                                *          20170526IMF1705266.TXT
MDDUH5249728201706                D89828070100PT4U20170601000030SPEAKER ASM                   M IMCTM S0FL05 FTTL  07070IMCT  S0 PTB  00003                    0900 SR        000000000000 FUJITSU TEN (THAILAN180LUDU0154154                                                                                                                              *          20170526IMF1705266.TXT
MDDUH5249729201706                D89828070100PT4U20170601000030SPEAKER ASM                   M IMCTM S0FL05 FTTL  07070IMCT  S0 PTB  00003                    1600 SR        000000000000 FUJITSU TEN (THAILAN180LUDU0155155                                                                                                                              *          20170526IMF1705266.TXT
MDDUH5249730201706                D89828070200PV4U20170531000030SPEAKER ASM                   M IMCTM S0FR05 FTTL  07070IMCT  S0 PTB  00005                    2230 SR        000000000000 FUJITSU TEN (THAILAN180LUAU0013013                                                                                                                              *          20170526IMF1705266.TXT
MDDUH5249731201706                D89828070200PV4U20170601000060SPEAKER ASM                   M IMCTM S0FR05 FTTL  07070IMCT  S0 PTB  00005                    0230 SR        000000000000 FUJITSU TEN (THAILAN180LUDU0153153180LUEU0096096                                                                                                                *          20170526IMF1705266.TXT
MDDUH5249732201706                D89828070200PV4U20170601000030SPEAKER ASM                   M IMCTM S0FR05 FTTL  07070IMCT  S0 PTB  00005                    0900 SR        000000000000 FUJITSU TEN (THAILAN180LUDU0154154                                                                                                                              *          20170526IMF1705266.TXT
MDDUH5249733201706                D89828070200PV4U20170601000030SPEAKER ASM                   M IMCTM S0FR05 FTTL  07070IMCT  S0 PTB  00005                    1600 SR        000000000000 FUJITSU TEN (THAILAN180LUDU0155155                                                                                                                              *          20170526IMF1705266.TXT
MDDUH5249734201706                D89828070300PT4U20170531000030SPEAKER ASM                   M IMCTM S9TS02 FTTL  07070IMCT  S9 PTB  00015                    2230 SR        000000000000 FUJITSU TEN (THAILAN180LUAU0013013                                                                                                                              *          20170526IMF1705266.TXT
MDDUH5249735201706                D89828070300PT4U20170601000060SPEAKER ASM                   M IMCTM S9TS02 FTTL  07070IMCT  S9 PTB  00015                    0230 SR        000000000000 FUJITSU TEN (THAILAN180LUDU0153153180LUEU0096096                                                                                                                *          20170526IMF1705266.TXT
MDDUH5249736201706                D89828070300PT4U20170601000030SPEAKER ASM                   M IMCTM S9TS02 FTTL  07070IMCT  S9 PTB  00015                    0900 SR        000000000000 FUJITSU TEN (THAILAN180LUDU0154154                                                                                                                              *          20170526IMF1705266.TXT
MDDUH5249737201706                D89828070300PT4U20170601000030SPEAKER ASM                   M IMCTM S9TS02 FTTL  07070IMCT  S9 PTB  00015                    1600 SR        000000000000 FUJITSU TEN (THAILAN180LUDU0155155                                                                                                                              *          20170526IMF1705266.TXT
MDDUH5249738201706                D89831228400PT4U20170531000015RADIO;AM/FM,CD                M IMCTM S9CO001FTTL  07070IMCT  S9 CPB  00003                    2230 SR        000000000000 FUJITSU TEN (THAILAN180LUAU0013013                                                                                                                              *          20170526IMF1705266.TXT
MDEDH5284318201706                D89805293700PV1D20170601000030SPEAKER ASM                   M IMCTM S5MB14 FTTL  07070IMCT  S5 PTB  00003                    2100 SR        000000000000 FUJITSU TEN (THAILAN15019FL0194194                                                                                                                              *          20170526IMF1705266.TXT
MDEDH5284319201706                D89805293700PV4D20170531000030SPEAKER ASM                   M IMCTM S0FR05 FTTL  07070IMCT  S0 PTB  00003                    2100 SR        000000000000 FUJITSU TEN (THAILAN15028BU0015015                                                                                                                              *          20170526IMF1705266.TXT
MDEDH5284320201706                D89805294000PT4D20170531000030SPEAKER ASM                   M IMCTM S9AFA25FTTL  07070IMCT  S9 PTB  00015                    2100 SR        000000000000 FUJITSU TEN (THAILAN15028BU0015015                                                                                                                              *          20170526IMF1705266.TXT
MDEDH5284321201706                D89805294100PV4D20170531000030SPEAKER ASM                   M IMCTM S0FR05 FTTL  07070IMCT  S0 PTB  00005                    2100 SR        000000000000 FUJITSU TEN (THAILAN15028BU0015015                                                                                                                              *          20170526IMF1705266.TXT
MDEDH5284322201706                D89828070100PV1D20170531000030SPEAKER ASM                   M IMCTM S5MB11 FTTL  07070IMCT  S5 PTB  00003                    2230 SR        000000000000 FUJITSU TEN (THAILAN17080NL0070070                                                                                                                              *          20170526IMF1705266.TXT
MDEDH5284323201706                D89828070100PV1D20170601000030SPEAKER ASM                   M IMCTM S5MB11 FTTL  07070IMCT  S5 PTB  00003                    0230 SR        000000000000 FUJITSU TEN (THAILAN17025NL0004004                                                                                                                              *          20170526IMF1705266.TXT
MDEDH5284324201706                D89828070100PV1D20170601000030SPEAKER ASM                   M IMCTM S5MB11 FTTL  07070IMCT  S5 PTB  00003                    0400 SR        000000000000 FUJITSU TEN (THAILAN17029NL0008008                                                                                                                              *          20170526IMF1705266.TXT
MDEDH5284325201706                D89828070100PV1D20170601000030SPEAKER ASM                   M IMCTM S5MB11 FTTL  07070IMCT  S5 PTB  00003                    0900 SR        000000000000 FUJITSU TEN (THAILAN17051RL0002002                                                                                                                              *          20170526IMF1705266.TXT
MDEDH5284326201706                D89828070100PV1D20170601000030SPEAKER ASM                   M IMCTM S5MB11 FTTL  07070IMCT  S5 PTB  00003                    1300 SR        000000000000 FUJITSU TEN (THAILAN17080NL0071071                                                                                                                              *          20170526IMF1705266.TXT
MDEDH5284327201706                D89828070100PV4D20170601000030SPEAKER ASM                   M IMCTM S0FL05 FTTL  07070IMCT  S0 PTB  00003                    1300 SR        000000000000 FUJITSU TEN (THAILAN17058NU0008008                                                                                                                              *          20170526IMF1705266.TXT
MDEDH5284328201706                D89828070200PV1D20170531000030SPEAKER ASM                   M IMCTM S5MA14 FTTL  07070IMCT  S5 PTB  00005                    2230 SR        000000000000 FUJITSU TEN (THAILAN17080NL0070070                                                                                                                              *          20170526IMF1705266.TXT
MDEDH5284329201706                D89828070200PV1D20170601000030SPEAKER ASM                   M IMCTM S5MA14 FTTL  07070IMCT  S5 PTB  00005                    0230 SR        000000000000 FUJITSU TEN (THAILAN17025NL0004004                                                                                                                              *          20170526IMF1705266.TXT
MDEDH5284330201706                D89828070200PV1D20170601000030SPEAKER ASM                   M IMCTM S5MA14 FTTL  07070IMCT  S5 PTB  00005                    0900 SR        000000000000 FUJITSU TEN (THAILAN17051RL0002002                                                                                                                              *          20170526IMF1705266.TXT
MDEDH5284331201706                D89828070200PV1D20170601000030SPEAKER ASM                   M IMCTM S5MA14 FTTL  07070IMCT  S5 PTB  00005                    1300 SR        000000000000 FUJITSU TEN (THAILAN17080NL0071071                                                                                                                              *          20170526IMF1705266.TXT
MDEDH5284332201706                D89828070200PV4D20170601000030SPEAKER ASM                   M IMCTM S0FR05 FTTL  07070IMCT  S0 PTB  00005                    1300 SR        000000000000 FUJITSU TEN (THAILAN17058NU0008008                                                                                                                              *          20170526IMF1705266.TXT
MDEDH5284333201706                D89828070300PT1D20170531000030SPEAKER ASM                   M IMCTM S5NB082FTTL  07070IMCT  S5 PTB  00015                    2230 SR        000000000000 FUJITSU TEN (THAILAN17080NL0070070                                                                                                                              *          20170526IMF1705266.TXT
MDEDH5284334201706                D89828070300PT1D20170601000030SPEAKER ASM                   M IMCTM S5NB082FTTL  07070IMCT  S5 PTB  00015                    0230 SR        000000000000 FUJITSU TEN (THAILAN17025NL0004004                                                                                                                              *          20170526IMF1705266.TXT
MDEDH5284335201706                D89828070300PT1D20170601000030SPEAKER ASM                   M IMCTM S5NB082FTTL  07070IMCT  S5 PTB  00015                    0400 SR        000000000000 FUJITSU TEN (THAILAN17029NL0008008                                                                                                                              *          20170526IMF1705266.TXT
MDEDH5284336201706                D89828070300PT1D20170601000030SPEAKER ASM                   M IMCTM S5NB082FTTL  07070IMCT  S5 PTB  00015                    0900 SR        000000000000 FUJITSU TEN (THAILAN17051RL0002002                                                                                                                              *          20170526IMF1705266.TXT
MDEDH5284337201706                D89828070300PT1D20170601000030SPEAKER ASM                   M IMCTM S5NB082FTTL  07070IMCT  S5 PTB  00015                    1300 SR        000000000000 FUJITSU TEN (THAILAN17080NL0071071                                                                                                                              *          20170526IMF1705266.TXT
MDEDH5284338201706                D89828070300PT4D20170601000030SPEAKER ASM                   M IMCTM S9TS02 FTTL  07070IMCT  S9 PTB  00015                    1300 SR        000000000000 FUJITSU TEN (THAILAN17058NU0008008                                                                                                                              *          20170526IMF1705266.TXT
MDEDH5284339201706                D89829645410PT1D20170601000015RADIO;ASM DVD                 M IMCTM S5NC06 FTTL  07070IMCT  S5 PTB  00003                    0900 SR        000000000000 FUJITSU TEN (THAILAN17051RL0002002                                                                                                                              *          20170526IMF1705266.TXT
MDEDH5284340201706                D89829645710PT4D20170601000015RADIO;ASM DVD                 M IMCTM S9CO001FTTL  07070IMCT  S9 PTB  00003                    1300 SR        000000000000 FUJITSU TEN (THAILAN17058NU0008008                                                                                                                              *          20170526IMF1705266.TXT
MDEUH5263953201706                D89828070100PT4U20170601000030SPEAKER ASM                   M IMCTM S0FL05 FTTL  07070IMCT  S0 PTB  00003                    0400 SR        000000000000 FUJITSU TEN (THAILAN160B95U0065065                                                                                                                              *          20170526IMF1705266.TXT
MDEUH5263954201706                D89828070100PT4U20170601000030SPEAKER ASM                   M IMCTM S0FL05 FTTL  07070IMCT  S0 PTB  00003                    1300 SR        000000000000 FUJITSU TEN (THAILAN18091SU0001001                                                                                                                              *          20170526IMF1705266.TXT
MDEUH5263955201706                D89828070200PV4U20170601000030SPEAKER ASM                   M IMCTM S0FR05 FTTL  07070IMCT  S0 PTB  00005                    0400 SR        000000000000 FUJITSU TEN (THAILAN160B95U0065065                                                                                                                              *          20170526IMF1705266.TXT
MDEUH5263956201706                D89828070200PV4U20170601000030SPEAKER ASM                   M IMCTM S0FR05 FTTL  07070IMCT  S0 PTB  00005                    1300 SR        000000000000 FUJITSU TEN (THAILAN18091SU0001001                                                                                                                              *          20170526IMF1705266.TXT
MDEUH5263957201706                D89828070300PT4U20170601000030SPEAKER ASM                   M IMCTM S9TS02 FTTL  07070IMCT  S9 PTB  00015                    0400 SR        000000000000 FUJITSU TEN (THAILAN160B95U0065065                                                                                                                              *          20170526IMF1705266.TXT
MDEUH5263958201706                D89828070300PT4U20170601000030SPEAKER ASM                   M IMCTM S9TS02 FTTL  07070IMCT  S9 PTB  00015                    1300 SR        000000000000 FUJITSU TEN (THAILAN18091SU0001001                                                                                                                              *          20170526IMF1705266.TXT
