REC2017051820170518ISUZU                              60     
MDDDH5274980201705                D89821984430PT1D20170522000030RADIO;AM/FM,CD                M IMCTM S5NC06 FTTL  07070IMCT  S5 PTB  00005                    2230 SR        000000000000 FUJITSU TEN (THAILAN170KRAL0073073                                                                                                                              *          20170518IMF1705183.TXT
MDDDH5274981201705                D89821984430PT1D20170523000030RADIO;AM/FM,CD                M IMCTM S5NC06 FTTL  07070IMCT  S5 PTB  00005                    0230 SR        000000000000 FUJITSU TEN (THAILAN170KNCL0078078                                                                                                                              *          20170518IMF1705183.TXT
MDDDH5274982201705                D89821984430PT1D20170523000030RADIO;AM/FM,CD                M IMCTM S5NC06 FTTL  07070IMCT  S5 PTB  00005                    0400 SR        000000000000 FUJITSU TEN (THAILAN170KNDL0112112                                                                                                                              *          20170518IMF1705183.TXT
MDDDH5274983201705                D89821984430PT1D20170523000060RADIO;AM/FM,CD                M IMCTM S5NC06 FTTL  07070IMCT  S5 PTB  00005                    0900 SR        000000000000 FUJITSU TEN (THAILAN170KPAL0108108170KRAL0074074                                                                                                                *          20170518IMF1705183.TXT
MDDDH5274984201705                D89821984430PT1D20170523000030RADIO;AM/FM,CD                M IMCTM S5NC06 FTTL  07070IMCT  S5 PTB  00005                    1300 SR        000000000000 FUJITSU TEN (THAILAN170KNEL0096096                                                                                                                              *          20170518IMF1705183.TXT
MDDDH5274985201705                D89821984430PT1D20170523000030RADIO;AM/FM,CD                M IMCTM S5NC06 FTTL  07070IMCT  S5 PTB  00005                    2100 SR        000000000000 FUJITSU TEN (THAILAN170KNEL0097097                                                                                                                              *          20170518IMF1705183.TXT
MDDDH5274986201705                D89825217910PT1D20170523000030RADIO;AM/FM,CD,D              M IMCTM S5NC06 FTTL  07070IMCT  S5 PTB  00003                    1600 SR        000000000000 FUJITSU TEN (THAILAN170KPJL0049049                                                                                                                              *          20170518IMF1705183.TXT
MDDDH5274987201705                D89828070100PV1D20170522000120SPEAKER ASM                   M IMCTM S5MB11 FTTL  07070IMCT  S5 PTB  00003                    2230 SR        000000000000 FUJITSU TEN (THAILAN170KPFL0162162170KRAL0073073                                                                                                                *          20170518IMF1705183.TXT
MDDDH5274988201705                D89828070100PV1D20170523000060SPEAKER ASM                   M IMCTM S5MB11 FTTL  07070IMCT  S5 PTB  00003                    0230 SR        000000000000 FUJITSU TEN (THAILAN170KNCL0078078                                                                                                                              *          20170518IMF1705183.TXT
MDDDH5274989201705                D89828070100PV1D20170523000060SPEAKER ASM                   M IMCTM S5MB11 FTTL  07070IMCT  S5 PTB  00003                    0400 SR        000000000000 FUJITSU TEN (THAILAN170KNDL0112112                                                                                                                              *          20170518IMF1705183.TXT
MDDDH5274990201705                D89828070100PV1D20170523000120SPEAKER ASM                   M IMCTM S5MB11 FTTL  07070IMCT  S5 PTB  00003                    0900 SR        000000000000 FUJITSU TEN (THAILAN170KPAL0108108170KRAL0074074                                                                                                                *          20170518IMF1705183.TXT
MDDDH5274991201705                D89828070100PV1D20170523000120SPEAKER ASM                   M IMCTM S5MB11 FTTL  07070IMCT  S5 PTB  00003                    1300 SR        000000000000 FUJITSU TEN (THAILAN170KNEL0096096170KRFL0088088                                                                                                                *          20170518IMF1705183.TXT
MDDDH5274992201705                D89828070100PV1D20170523000240SPEAKER ASM                   M IMCTM S5MB11 FTTL  07070IMCT  S5 PTB  00003                    1600 SR        000000000000 FUJITSU TEN (THAILAN170KNAL0052052170KPJL0049049170KRHL0031031170KRSL0041041                                                                                    *          20170518IMF1705183.TXT
MDDDH5274993201705                D89828070100PV1D20170523000060SPEAKER ASM                   M IMCTM S5MB11 FTTL  07070IMCT  S5 PTB  00003                    2100 SR        000000000000 FUJITSU TEN (THAILAN170KNEL0097097                                                                                                                              *          20170518IMF1705183.TXT
MDDDH5274994201705                D89828070200PV1D20170523000060SPEAKER ASM                   M IMCTM S5MA14 FTTL  07070IMCT  S5 PTB  00005                    1300 SR        000000000000 FUJITSU TEN (THAILAN170KRFL0088088                                                                                                                              *          20170518IMF1705183.TXT
MDDDH5274995201705                D89828070200PV1D20170523000120SPEAKER ASM                   M IMCTM S5MA14 FTTL  07070IMCT  S5 PTB  00005                    1600 SR        000000000000 FUJITSU TEN (THAILAN170KRHL0031031170KRSL0041041                                                                                                                *          20170518IMF1705183.TXT
MDDDH5274996201705                D89828070300PT1D20170522000060SPEAKER ASM                   M IMCTM S5NB082FTTL  07070IMCT  S5 PTB  00015                    2230 SR        000000000000 FUJITSU TEN (THAILAN170KPFL0162162                                                                                                                              *          20170518IMF1705183.TXT
MDDDH5274997201705                D89828070300PT1D20170523000060SPEAKER ASM                   M IMCTM S5NB082FTTL  07070IMCT  S5 PTB  00015                    1300 SR        000000000000 FUJITSU TEN (THAILAN170KRFL0088088                                                                                                                              *          20170518IMF1705183.TXT
MDDDH5274998201705                D89828070300PT1D20170523000180SPEAKER ASM                   M IMCTM S5NB082FTTL  07070IMCT  S5 PTB  00015                    1600 SR        000000000000 FUJITSU TEN (THAILAN170KPJL0049049170KRHL0031031170KRSL0041041                                                                                                  *          20170518IMF1705183.TXT
MDDDH5274999201705                D89829645910PT1D20170523000030RADIO;ASM DVD                 M IMCTM S5NC06 FTTL  07070IMCT  S5 CPB  00003                    1300 SR        000000000000 FUJITSU TEN (THAILAN170KRFL0088088                                                                                                                              *          20170518IMF1705183.TXT
MDDDH5275000201705                D89831228300PT1D20170522000030RADIO;AM/FM,CD                M IMCTM S5NC06 FTTL  07070IMCT  S5 CPB  00003                    2230 SR        000000000000 FUJITSU TEN (THAILAN170KPFL0162162                                                                                                                              *          20170518IMF1705183.TXT
MDDUH5231294201705                D89828070100PT4U20170522000030SPEAKER ASM                   M IMCTM S0FL05 FTTL  07070IMCT  S0 PTB  00003                    2230 SR        000000000000 FUJITSU TEN (THAILAN180LUDU0148148                                                                                                                              *          20170518IMF1705183.TXT
MDDUH5231295201705                D89828070100PT4U20170523000030SPEAKER ASM                   M IMCTM S0FL05 FTTL  07070IMCT  S0 PTB  00003                    0900 SR        000000000000 FUJITSU TEN (THAILAN180LUEU0086086                                                                                                                              *          20170518IMF1705183.TXT
MDDUH5231296201705                D89828070100PT4U20170523000030SPEAKER ASM                   M IMCTM S0FL05 FTTL  07070IMCT  S0 PTB  00003                    1300 SR        000000000000 FUJITSU TEN (THAILAN180LUEU0087087                                                                                                                              *          20170518IMF1705183.TXT
MDDUH5231297201705                D89828070100PT4U20170523000060SPEAKER ASM                   M IMCTM S0FL05 FTTL  07070IMCT  S0 PTB  00003                    1600 SR        000000000000 FUJITSU TEN (THAILAN180LUEU0088088180LUFU0025025                                                                                                                *          20170518IMF1705183.TXT
MDDUH5231298201705                D89828070200PV4U20170522000030SPEAKER ASM                   M IMCTM S0FR05 FTTL  07070IMCT  S0 PTB  00005                    2230 SR        000000000000 FUJITSU TEN (THAILAN180LUDU0148148                                                                                                                              *          20170518IMF1705183.TXT
MDDUH5231299201705                D89828070200PV4U20170523000030SPEAKER ASM                   M IMCTM S0FR05 FTTL  07070IMCT  S0 PTB  00005                    0900 SR        000000000000 FUJITSU TEN (THAILAN180LUEU0086086                                                                                                                              *          20170518IMF1705183.TXT
MDDUH5231300201705                D89828070200PV4U20170523000030SPEAKER ASM                   M IMCTM S0FR05 FTTL  07070IMCT  S0 PTB  00005                    1300 SR        000000000000 FUJITSU TEN (THAILAN180LUEU0087087                                                                                                                              *          20170518IMF1705183.TXT
MDDUH5231301201705                D89828070200PV4U20170523000060SPEAKER ASM                   M IMCTM S0FR05 FTTL  07070IMCT  S0 PTB  00005                    1600 SR        000000000000 FUJITSU TEN (THAILAN180LUEU0088088180LUFU0025025                                                                                                                *          20170518IMF1705183.TXT
MDDUH5231302201705                D89828070300PT4U20170522000030SPEAKER ASM                   M IMCTM S9TS02 FTTL  07070IMCT  S9 PTB  00015                    2230 SR        000000000000 FUJITSU TEN (THAILAN180LUDU0148148                                                                                                                              *          20170518IMF1705183.TXT
MDDUH5231303201705                D89828070300PT4U20170523000030SPEAKER ASM                   M IMCTM S9TS02 FTTL  07070IMCT  S9 PTB  00015                    0900 SR        000000000000 FUJITSU TEN (THAILAN180LUEU0086086                                                                                                                              *          20170518IMF1705183.TXT
MDDUH5231304201705                D89828070300PT4U20170523000030SPEAKER ASM                   M IMCTM S9TS02 FTTL  07070IMCT  S9 PTB  00015                    1300 SR        000000000000 FUJITSU TEN (THAILAN180LUEU0087087                                                                                                                              *          20170518IMF1705183.TXT
MDDUH5231305201705                D89828070300PT4U20170523000060SPEAKER ASM                   M IMCTM S9TS02 FTTL  07070IMCT  S9 PTB  00015                    1600 SR        000000000000 FUJITSU TEN (THAILAN180LUEU0088088180LUFU0025025                                                                                                                *          20170518IMF1705183.TXT
MDEDH5255583201705                D89827952210PT4D20170522000015RADIO;AM/FM,CD,D              M IMCTM S9CO001FTTL  07070IMCT  S9 PTB  00003                    2100 SR        000000000000 FUJITSU TEN (THAILAN17056NU0003003                                                                                                                              *          20170518IMF1705183.TXT
MDEDH5255584201705                D89828070100PV1D20170523000060SPEAKER ASM                   M IMCTM S5MB11 FTTL  07070IMCT  S5 PTB  00003                    0400 SR        000000000000 FUJITSU TEN (THAILAN17033NL0001002                                                                                                                              *          20170518IMF1705183.TXT
MDEDH5255585201705                D89828070100PV4D20170522000030SPEAKER ASM                   M IMCTM S0FL05 FTTL  07070IMCT  S0 PTB  00003                    2100 SR        000000000000 FUJITSU TEN (THAILAN17056NU0003003                                                                                                                              *          20170518IMF1705183.TXT
MDEDH5255586201705                D89828070100PV4D20170523000030SPEAKER ASM                   M IMCTM S0FL05 FTTL  07070IMCT  S0 PTB  00003                    0400 SR        000000000000 FUJITSU TEN (THAILAN17085MU0001001                                                                                                                              *          20170518IMF1705183.TXT
MDEDH5255587201705                D89828070100PV4D20170523000030SPEAKER ASM                   M IMCTM S0FL05 FTTL  07070IMCT  S0 PTB  00003                    2100 SR        000000000000 FUJITSU TEN (THAILAN17029MU0002002                                                                                                                              *          20170518IMF1705183.TXT
MDEDH5255588201705                D89828070200PV1D20170523000060SPEAKER ASM                   M IMCTM S5MA14 FTTL  07070IMCT  S5 PTB  00005                    0400 SR        000000000000 FUJITSU TEN (THAILAN17033NL0001002                                                                                                                              *          20170518IMF1705183.TXT
MDEDH5255589201705                D89828070200PV4D20170523000030SPEAKER ASM                   M IMCTM S0FR05 FTTL  07070IMCT  S0 PTB  00005                    0400 SR        000000000000 FUJITSU TEN (THAILAN17085MU0001001                                                                                                                              *          20170518IMF1705183.TXT
MDEDH5255590201705                D89828070200PV4D20170523000030SPEAKER ASM                   M IMCTM S0FR05 FTTL  07070IMCT  S0 PTB  00005                    2100 SR        000000000000 FUJITSU TEN (THAILAN17029MU0002002                                                                                                                              *          20170518IMF1705183.TXT
MDEDH5255591201705                D89828070300PT1D20170523000060SPEAKER ASM                   M IMCTM S5NB082FTTL  07070IMCT  S5 PTB  00015                    0400 SR        000000000000 FUJITSU TEN (THAILAN17033NL0001002                                                                                                                              *          20170518IMF1705183.TXT
MDEDH5255592201705                D89828070300PT4D20170522000030SPEAKER ASM                   M IMCTM S9TS02 FTTL  07070IMCT  S9 PTB  00015                    2100 SR        000000000000 FUJITSU TEN (THAILAN17056NU0003003                                                                                                                              *          20170518IMF1705183.TXT
MDEDH5255593201705                D89828070300PT4D20170523000030SPEAKER ASM                   M IMCTM S9TS02 FTTL  07070IMCT  S9 PTB  00015                    0400 SR        000000000000 FUJITSU TEN (THAILAN17085MU0001001                                                                                                                              *          20170518IMF1705183.TXT
MDEDH5255594201705                D89828070300PT4D20170523000030SPEAKER ASM                   M IMCTM S9TS02 FTTL  07070IMCT  S9 PTB  00015                    2100 SR        000000000000 FUJITSU TEN (THAILAN17029MU0002002                                                                                                                              *          20170518IMF1705183.TXT
MDEUH5242406201705                D89828070100PT4U20170522000030SPEAKER ASM                   M IMCTM S0FL05 FTTL  07070IMCT  S0 PTB  00003                    2230 SR        000000000000 FUJITSU TEN (THAILAN18082SU0003003                                                                                                                              *          20170518IMF1705183.TXT
MDEUH5242407201705                D89828070100PT4U20170523000030SPEAKER ASM                   M IMCTM S0FL05 FTTL  07070IMCT  S0 PTB  00003                    0230 SR        000000000000 FUJITSU TEN (THAILAN160B95U0060060                                                                                                                              *          20170518IMF1705183.TXT
MDEUH5242408201705                D89828070100PT4U20170523000030SPEAKER ASM                   M IMCTM S0FL05 FTTL  07070IMCT  S0 PTB  00003                    0900 SR        000000000000 FUJITSU TEN (THAILAN18023TU0086086                                                                                                                              *          20170518IMF1705183.TXT
MDEUH5242409201705                D89828070100PT4U20170523000030SPEAKER ASM                   M IMCTM S0FL05 FTTL  07070IMCT  S0 PTB  00003                    1300 SR        000000000000 FUJITSU TEN (THAILAN18023TU0087087                                                                                                                              *          20170518IMF1705183.TXT
MDEUH5242410201705                D89828070100PT4U20170523000030SPEAKER ASM                   M IMCTM S0FL05 FTTL  07070IMCT  S0 PTB  00003                    1600 SR        000000000000 FUJITSU TEN (THAILAN18018TU0019019                                                                                                                              *          20170518IMF1705183.TXT
MDEUH5242411201705                D89828070200PV4U20170522000030SPEAKER ASM                   M IMCTM S0FR05 FTTL  07070IMCT  S0 PTB  00005                    2230 SR        000000000000 FUJITSU TEN (THAILAN18082SU0003003                                                                                                                              *          20170518IMF1705183.TXT
MDEUH5242412201705                D89828070200PV4U20170523000030SPEAKER ASM                   M IMCTM S0FR05 FTTL  07070IMCT  S0 PTB  00005                    0230 SR        000000000000 FUJITSU TEN (THAILAN160B95U0060060                                                                                                                              *          20170518IMF1705183.TXT
MDEUH5242413201705                D89828070200PV4U20170523000030SPEAKER ASM                   M IMCTM S0FR05 FTTL  07070IMCT  S0 PTB  00005                    0900 SR        000000000000 FUJITSU TEN (THAILAN18023TU0086086                                                                                                                              *          20170518IMF1705183.TXT
MDEUH5242414201705                D89828070200PV4U20170523000030SPEAKER ASM                   M IMCTM S0FR05 FTTL  07070IMCT  S0 PTB  00005                    1300 SR        000000000000 FUJITSU TEN (THAILAN18023TU0087087                                                                                                                              *          20170518IMF1705183.TXT
MDEUH5242415201705                D89828070200PV4U20170523000030SPEAKER ASM                   M IMCTM S0FR05 FTTL  07070IMCT  S0 PTB  00005                    1600 SR        000000000000 FUJITSU TEN (THAILAN18018TU0019019                                                                                                                              *          20170518IMF1705183.TXT
MDEUH5242416201705                D89828070300PT4U20170522000030SPEAKER ASM                   M IMCTM S9TS02 FTTL  07070IMCT  S9 PTB  00015                    2230 SR        000000000000 FUJITSU TEN (THAILAN18082SU0003003                                                                                                                              *          20170518IMF1705183.TXT
MDEUH5242417201705                D89828070300PT4U20170523000030SPEAKER ASM                   M IMCTM S9TS02 FTTL  07070IMCT  S9 PTB  00015                    0230 SR        000000000000 FUJITSU TEN (THAILAN160B95U0060060                                                                                                                              *          20170518IMF1705183.TXT
MDEUH5242418201705                D89828070300PT4U20170523000030SPEAKER ASM                   M IMCTM S9TS02 FTTL  07070IMCT  S9 PTB  00015                    0900 SR        000000000000 FUJITSU TEN (THAILAN18023TU0086086                                                                                                                              *          20170518IMF1705183.TXT
MDEUH5242419201705                D89828070300PT4U20170523000030SPEAKER ASM                   M IMCTM S9TS02 FTTL  07070IMCT  S9 PTB  00015                    1300 SR        000000000000 FUJITSU TEN (THAILAN18023TU0087087                                                                                                                              *          20170518IMF1705183.TXT
MDEUH5242420201705                D89828070300PT4U20170523000030SPEAKER ASM                   M IMCTM S9TS02 FTTL  07070IMCT  S9 PTB  00015                    1600 SR        000000000000 FUJITSU TEN (THAILAN18018TU0019019                                                                                                                              *          20170518IMF1705183.TXT
