REC2017051820170518ISUZU                              4      
MACK75001814201705          IMKDC  89805293700P3YK20170531000001SPEAKER ASM                   M IMCTM IMKDC  FTTL  07070IMKDC KN   PTB00003    K293G5220   001 0000 ES        000000000000 FUJITSU TEN (THAILAN                                                                                                                                            *          20170518IMF1705185.TXT
MACK75001815201705          IMKDC  89805294000P3YK20170529000003SPEAKER ASM                   M IMCTM IMKDC  FTTL  07070IMKDC KN   PTB00015    K293G4980   001 0000 ES        000000000000 FUJITSU TEN (THAILAN                                                                                                                                            *          20170518IMF1705185.TXT
MACK75001816201705          IMKDC  89805294000P3YK20170531000002SPEAKER ASM                   M IMCTM IMKDC  FTTL  07070IMKDC KN   PTB00015    K293G5210   001 0000 ES        000000000000 FUJITSU TEN (THAILAN                                                                                                                                            *          20170518IMF1705185.TXT
MACK75001817201705          IMKDC  89828070300P3YK20170530000002SPEAKER ASM                   M IMCTM IMKDC  FTTL  07070IMKDC KN PTB  00015    K293G5060   001 0000 ES        000000000000 FUJITSU TEN (THAILAN                                                                                                                                            *          20170518IMF1705185.TXT
