REC2017052520170525ISUZU                              60     
MDDDH5310285201705                D89821984430PT1D20170531000030RADIO;AM/FM,CD                M IMCTM S5NC06 FTTL  07070IMCT  S5 PTB  00005                    0400 SR        000000000000 FUJITSU TEN (THAILAN170KNEL0108108                                                                                                                              *          20170525IMF1705259.TXT
MDDDH5310286201705                D89825217910PT1D20170530000030RADIO;AM/FM,CD,D              M IMCTM S5NC06 FTTL  07070IMCT  S5 PTB  00003                    2230 SR        000000000000 FUJITSU TEN (THAILAN170KPJL0052052                                                                                                                              *          20170525IMF1705259.TXT
MDDDH5310287201705                D89825217910PT1D20170531000030RADIO;AM/FM,CD,D              M IMCTM S5NC06 FTTL  07070IMCT  S5 PTB  00003                    1300 SR        000000000000 FUJITSU TEN (THAILAN170KPKL0016016                                                                                                                              *          20170525IMF1705259.TXT
MDDDH5310288201705                D89828070100PV1D20170530000120SPEAKER ASM                   M IMCTM S5MB11 FTTL  07070IMCT  S5 PTB  00003                    2230 SR        000000000000 FUJITSU TEN (THAILAN170KPJL0052052170KRFL0093093                                                                                                                *          20170525IMF1705259.TXT
MDDDH5310289201705                D89828070100PV1D20170531000120SPEAKER ASM                   M IMCTM S5MB11 FTTL  07070IMCT  S5 PTB  00003                    0400 SR        000000000000 FUJITSU TEN (THAILAN170KNEL0108108170KPFL0168168                                                                                                                *          20170525IMF1705259.TXT
MDDDH5310290201705                D89828070100PV1D20170531000120SPEAKER ASM                   M IMCTM S5MB11 FTTL  07070IMCT  S5 PTB  00003                    0900 SR        000000000000 FUJITSU TEN (THAILAN170KPEL0048048170KRRL0024024                                                                                                                *          20170525IMF1705259.TXT
MDDDH5310291201705                D89828070100PV1D20170531000060SPEAKER ASM                   M IMCTM S5MB11 FTTL  07070IMCT  S5 PTB  00003                    1300 SR        000000000000 FUJITSU TEN (THAILAN170KPKL0016016                                                                                                                              *          20170525IMF1705259.TXT
MDDDH5310292201705                D89828070200PV1D20170530000060SPEAKER ASM                   M IMCTM S5MA14 FTTL  07070IMCT  S5 PTB  00005                    2230 SR        000000000000 FUJITSU TEN (THAILAN170KRFL0093093                                                                                                                              *          20170525IMF1705259.TXT
MDDDH5310293201705                D89828070200PV1D20170531000060SPEAKER ASM                   M IMCTM S5MA14 FTTL  07070IMCT  S5 PTB  00005                    0900 SR        000000000000 FUJITSU TEN (THAILAN170KRRL0024024                                                                                                                              *          20170525IMF1705259.TXT
MDDDH5310294201705                D89828070300PT1D20170530000120SPEAKER ASM                   M IMCTM S5NB082FTTL  07070IMCT  S5 PTB  00015                    2230 SR        000000000000 FUJITSU TEN (THAILAN170KPJL0052052170KRFL0093093                                                                                                                *          20170525IMF1705259.TXT
MDDDH5310295201705                D89828070300PT1D20170531000060SPEAKER ASM                   M IMCTM S5NB082FTTL  07070IMCT  S5 PTB  00015                    0400 SR        000000000000 FUJITSU TEN (THAILAN170KPFL0168168                                                                                                                              *          20170525IMF1705259.TXT
MDDDH5310296201705                D89828070300PT1D20170531000120SPEAKER ASM                   M IMCTM S5NB082FTTL  07070IMCT  S5 PTB  00015                    0900 SR        000000000000 FUJITSU TEN (THAILAN170KPEL0048048170KRRL0024024                                                                                                                *          20170525IMF1705259.TXT
MDDDH5310297201705                D89828070300PT1D20170531000060SPEAKER ASM                   M IMCTM S5NB082FTTL  07070IMCT  S5 PTB  00015                    1300 SR        000000000000 FUJITSU TEN (THAILAN170KPKL0016016                                                                                                                              *          20170525IMF1705259.TXT
MDDDH5310298201705                D89829645910PT1D20170530000030RADIO;ASM DVD                 M IMCTM S5NC06 FTTL  07070IMCT  S5 CPB  00003                    2230 SR        000000000000 FUJITSU TEN (THAILAN170KRFL0093093                                                                                                                              *          20170525IMF1705259.TXT
MDDDH5310299201705                D89831228300PT1D20170531000030RADIO;AM/FM,CD                M IMCTM S5NC06 FTTL  07070IMCT  S5 CPB  00003                    0400 SR        000000000000 FUJITSU TEN (THAILAN170KPFL0168168                                                                                                                              *          20170525IMF1705259.TXT
MDDDH5310300201705                D89831228300PT1D20170531000030RADIO;AM/FM,CD                M IMCTM S5NC06 FTTL  07070IMCT  S5 CPB  00003                    0900 SR        000000000000 FUJITSU TEN (THAILAN170KPEL0048048                                                                                                                              *          20170525IMF1705259.TXT
MDDUH5246155201705                D89828070100PT4U20170530000030SPEAKER ASM                   M IMCTM S0FL05 FTTL  07070IMCT  S0 PTB  00003                    2100 SR        000000000000 FUJITSU TEN (THAILAN180LUAU0012012                                                                                                                              *          20170525IMF1705259.TXT
MDDUH5246156201705                D89828070100PT4U20170531000060SPEAKER ASM                   M IMCTM S0FL05 FTTL  07070IMCT  S0 PTB  00003                    0900 SR        000000000000 FUJITSU TEN (THAILAN180LUBU0011011180LUDU0152152                                                                                                                *          20170525IMF1705259.TXT
MDDUH5246157201705                D89828070100PT4U20170531000030SPEAKER ASM                   M IMCTM S0FL05 FTTL  07070IMCT  S0 PTB  00003                    1300 SR        000000000000 FUJITSU TEN (THAILAN180LUEU0095095                                                                                                                              *          20170525IMF1705259.TXT
MDDUH5246158201705                D89828070100PT4U20170531000030SPEAKER ASM                   M IMCTM S0FL05 FTTL  07070IMCT  S0 PTB  00003                    1600 SR        000000000000 FUJITSU TEN (THAILAN180LUFU0029029                                                                                                                              *          20170525IMF1705259.TXT
MDDUH5246159201705                D89828070200PV4U20170530000030SPEAKER ASM                   M IMCTM S0FR05 FTTL  07070IMCT  S0 PTB  00005                    2100 SR        000000000000 FUJITSU TEN (THAILAN180LUAU0012012                                                                                                                              *          20170525IMF1705259.TXT
MDDUH5246160201705                D89828070200PV4U20170531000060SPEAKER ASM                   M IMCTM S0FR05 FTTL  07070IMCT  S0 PTB  00005                    0900 SR        000000000000 FUJITSU TEN (THAILAN180LUBU0011011180LUDU0152152                                                                                                                *          20170525IMF1705259.TXT
MDDUH5246161201705                D89828070200PV4U20170531000030SPEAKER ASM                   M IMCTM S0FR05 FTTL  07070IMCT  S0 PTB  00005                    1300 SR        000000000000 FUJITSU TEN (THAILAN180LUEU0095095                                                                                                                              *          20170525IMF1705259.TXT
MDDUH5246162201705                D89828070200PV4U20170531000030SPEAKER ASM                   M IMCTM S0FR05 FTTL  07070IMCT  S0 PTB  00005                    1600 SR        000000000000 FUJITSU TEN (THAILAN180LUFU0029029                                                                                                                              *          20170525IMF1705259.TXT
MDDUH5246163201705                D89828070300PT4U20170530000030SPEAKER ASM                   M IMCTM S9TS02 FTTL  07070IMCT  S9 PTB  00015                    2100 SR        000000000000 FUJITSU TEN (THAILAN180LUAU0012012                                                                                                                              *          20170525IMF1705259.TXT
MDDUH5246164201705                D89828070300PT4U20170531000060SPEAKER ASM                   M IMCTM S9TS02 FTTL  07070IMCT  S9 PTB  00015                    0900 SR        000000000000 FUJITSU TEN (THAILAN180LUBU0011011180LUDU0152152                                                                                                                *          20170525IMF1705259.TXT
MDDUH5246165201705                D89828070300PT4U20170531000030SPEAKER ASM                   M IMCTM S9TS02 FTTL  07070IMCT  S9 PTB  00015                    1300 SR        000000000000 FUJITSU TEN (THAILAN180LUEU0095095                                                                                                                              *          20170525IMF1705259.TXT
MDDUH5246166201705                D89828070300PT4U20170531000030SPEAKER ASM                   M IMCTM S9TS02 FTTL  07070IMCT  S9 PTB  00015                    1600 SR        000000000000 FUJITSU TEN (THAILAN180LUFU0029029                                                                                                                              *          20170525IMF1705259.TXT
MDDUH5246167201705                D89831228400PT4U20170530000015RADIO;AM/FM,CD                M IMCTM S9CO001FTTL  07070IMCT  S9 CPB  00003                    2100 SR        000000000000 FUJITSU TEN (THAILAN180LUAU0012012                                                                                                                              *          20170525IMF1705259.TXT
MDDUH5246168201705                D89835097900PT4U20170531000015RADIO;ASM DVD                 M IMCTM S9CO001FTTL  07070IMCT  S9 PTB  00003                    0900 SR        000000000000 FUJITSU TEN (THAILAN180LUBU0011011                                                                                                                              *          20170525IMF1705259.TXT
MDEDH5279016201705                D89805293700PV1D20170531000030SPEAKER ASM                   M IMCTM S5MB14 FTTL  07070IMCT  S5 PTB  00003                    1300 SR        000000000000 FUJITSU TEN (THAILAN15019FL0193193                                                                                                                              *          20170525IMF1705259.TXT
MDEDH5279017201705                D89805293700PV4D20170530000030SPEAKER ASM                   M IMCTM S0FR05 FTTL  07070IMCT  S0 PTB  00003                    2230 SR        000000000000 FUJITSU TEN (THAILAN15030BU0008008                                                                                                                              *          20170525IMF1705259.TXT
MDEDH5279018201705                D89805293700PV4D20170531000030SPEAKER ASM                   M IMCTM S0FR05 FTTL  07070IMCT  S0 PTB  00003                    0230 SR        000000000000 FUJITSU TEN (THAILAN15028BU0014014                                                                                                                              *          20170525IMF1705259.TXT
MDEDH5279019201705                D89805294000PT4D20170530000030SPEAKER ASM                   M IMCTM S9AFA25FTTL  07070IMCT  S9 PTB  00015                    2230 SR        000000000000 FUJITSU TEN (THAILAN15030BU0008008                                                                                                                              *          20170525IMF1705259.TXT
MDEDH5279020201705                D89805294000PT4D20170531000030SPEAKER ASM                   M IMCTM S9AFA25FTTL  07070IMCT  S9 PTB  00015                    0230 SR        000000000000 FUJITSU TEN (THAILAN15028BU0014014                                                                                                                              *          20170525IMF1705259.TXT
MDEDH5279021201705                D89805294100PV4D20170530000030SPEAKER ASM                   M IMCTM S0FR05 FTTL  07070IMCT  S0 PTB  00005                    2230 SR        000000000000 FUJITSU TEN (THAILAN15030BU0008008                                                                                                                              *          20170525IMF1705259.TXT
MDEDH5279022201705                D89805294100PV4D20170531000030SPEAKER ASM                   M IMCTM S0FR05 FTTL  07070IMCT  S0 PTB  00005                    0230 SR        000000000000 FUJITSU TEN (THAILAN15028BU0014014                                                                                                                              *          20170525IMF1705259.TXT
MDEDH5279023201705                D89828070100PV1D20170531000030SPEAKER ASM                   M IMCTM S5MB11 FTTL  07070IMCT  S5 PTB  00003                    0230 SR        000000000000 FUJITSU TEN (THAILAN17055NL0031031                                                                                                                              *          20170525IMF1705259.TXT
MDEDH5279024201705                D89828070100PV1D20170531000030SPEAKER ASM                   M IMCTM S5MB11 FTTL  07070IMCT  S5 PTB  00003                    0400 SR        000000000000 FUJITSU TEN (THAILAN17055NL0032032                                                                                                                              *          20170525IMF1705259.TXT
MDEDH5279025201705                D89828070100PV1D20170531000060SPEAKER ASM                   M IMCTM S5MB11 FTTL  07070IMCT  S5 PTB  00003                    1600 SR        000000000000 FUJITSU TEN (THAILAN17024NL001001017057NL0021021                                                                                                                *          20170525IMF1705259.TXT
MDEDH5279026201705                D89828070100PV1D20170531000060SPEAKER ASM                   M IMCTM S5MB11 FTTL  07070IMCT  S5 PTB  00003                    2100 SR        000000000000 FUJITSU TEN (THAILAN17009QL000100117036QL0002002                                                                                                                *          20170525IMF1705259.TXT
MDEDH5279027201705                D89828070100PV4D20170531000030SPEAKER ASM                   M IMCTM S0FL05 FTTL  07070IMCT  S0 PTB  00003                    1300 SR        000000000000 FUJITSU TEN (THAILAN17032NU0002002                                                                                                                              *          20170525IMF1705259.TXT
MDEDH5279028201705                D89828070200PV1D20170531000060SPEAKER ASM                   M IMCTM S5MA14 FTTL  07070IMCT  S5 PTB  00005                    1600 SR        000000000000 FUJITSU TEN (THAILAN17024NL001001017057NL0021021                                                                                                                *          20170525IMF1705259.TXT
MDEDH5279029201705                D89828070200PV1D20170531000060SPEAKER ASM                   M IMCTM S5MA14 FTTL  07070IMCT  S5 PTB  00005                    2100 SR        000000000000 FUJITSU TEN (THAILAN17009QL000100117036QL0002002                                                                                                                *          20170525IMF1705259.TXT
MDEDH5279030201705                D89828070200PV4D20170531000030SPEAKER ASM                   M IMCTM S0FR05 FTTL  07070IMCT  S0 PTB  00005                    1300 SR        000000000000 FUJITSU TEN (THAILAN17032NU0002002                                                                                                                              *          20170525IMF1705259.TXT
MDEDH5279031201705                D89828070300PT1D20170531000030SPEAKER ASM                   M IMCTM S5NB082FTTL  07070IMCT  S5 PTB  00015                    0230 SR        000000000000 FUJITSU TEN (THAILAN17055NL0031031                                                                                                                              *          20170525IMF1705259.TXT
MDEDH5279032201705                D89828070300PT1D20170531000030SPEAKER ASM                   M IMCTM S5NB082FTTL  07070IMCT  S5 PTB  00015                    0400 SR        000000000000 FUJITSU TEN (THAILAN17055NL0032032                                                                                                                              *          20170525IMF1705259.TXT
MDEDH5279033201705                D89828070300PT1D20170531000060SPEAKER ASM                   M IMCTM S5NB082FTTL  07070IMCT  S5 PTB  00015                    1600 SR        000000000000 FUJITSU TEN (THAILAN17024NL001001017057NL0021021                                                                                                                *          20170525IMF1705259.TXT
MDEDH5279034201705                D89828070300PT1D20170531000060SPEAKER ASM                   M IMCTM S5NB082FTTL  07070IMCT  S5 PTB  00015                    2100 SR        000000000000 FUJITSU TEN (THAILAN17009QL000100117036QL0002002                                                                                                                *          20170525IMF1705259.TXT
MDEDH5279035201705                D89828070300PT4D20170531000030SPEAKER ASM                   M IMCTM S9TS02 FTTL  07070IMCT  S9 PTB  00015                    1300 SR        000000000000 FUJITSU TEN (THAILAN17032NU0002002                                                                                                                              *          20170525IMF1705259.TXT
MDEDH5279036201705                D89829645710PT1D20170531000015RADIO;ASM DVD                 M IMCTM S5NC06 FTTL  07070IMCT  S5 PTB  00003                    0230 SR        000000000000 FUJITSU TEN (THAILAN17055NL0031031                                                                                                                              *          20170525IMF1705259.TXT
MDEDH5279037201705                D89829645710PT1D20170531000015RADIO;ASM DVD                 M IMCTM S5NC06 FTTL  07070IMCT  S5 PTB  00003                    0400 SR        000000000000 FUJITSU TEN (THAILAN17055NL0032032                                                                                                                              *          20170525IMF1705259.TXT
MDEDH5279038201705                D89829645710PT1D20170531000015RADIO;ASM DVD                 M IMCTM S5NC06 FTTL  07070IMCT  S5 PTB  00003                    1600 SR        000000000000 FUJITSU TEN (THAILAN17057NL0021021                                                                                                                              *          20170525IMF1705259.TXT
MDEDH5279039201705                D89831229200PT1D20170531000015RADIO;AM/FM,CD                M IMCTM S5NC06 FTTL  07070IMCT  S5 PTB  00003                    2100 SR        000000000000 FUJITSU TEN (THAILAN17009QL0001001                                                                                                                              *          20170525IMF1705259.TXT
MDEUH5262215201705                D89828070100PT4U20170531000030SPEAKER ASM                   M IMCTM S0FL05 FTTL  07070IMCT  S0 PTB  00003                    0230 SR        000000000000 FUJITSU TEN (THAILAN160B95U0064064                                                                                                                              *          20170525IMF1705259.TXT
MDEUH5262216201705                D89828070100PT4U20170531000030SPEAKER ASM                   M IMCTM S0FL05 FTTL  07070IMCT  S0 PTB  00003                    0900 SR        000000000000 FUJITSU TEN (THAILAN18024TU0014014                                                                                                                              *          20170525IMF1705259.TXT
MDEUH5262217201705                D89828070200PV4U20170531000030SPEAKER ASM                   M IMCTM S0FR05 FTTL  07070IMCT  S0 PTB  00005                    0230 SR        000000000000 FUJITSU TEN (THAILAN160B95U0064064                                                                                                                              *          20170525IMF1705259.TXT
MDEUH5262218201705                D89828070200PV4U20170531000030SPEAKER ASM                   M IMCTM S0FR05 FTTL  07070IMCT  S0 PTB  00005                    0900 SR        000000000000 FUJITSU TEN (THAILAN18024TU0014014                                                                                                                              *          20170525IMF1705259.TXT
MDEUH5262219201705                D89828070300PT4U20170531000030SPEAKER ASM                   M IMCTM S9TS02 FTTL  07070IMCT  S9 PTB  00015                    0230 SR        000000000000 FUJITSU TEN (THAILAN160B95U0064064                                                                                                                              *          20170525IMF1705259.TXT
MDEUH5262220201705                D89828070300PT4U20170531000030SPEAKER ASM                   M IMCTM S9TS02 FTTL  07070IMCT  S9 PTB  00015                    0900 SR        000000000000 FUJITSU TEN (THAILAN18024TU0014014                                                                                                                              *          20170525IMF1705259.TXT
