REC2017052920170529ISUZU                              68     
MDDDH5318703201706                D89821984430PT1D20170601000030RADIO;AM/FM,CD                M IMCTM S5NC06 FTTL  07070IMCT  S5 PTB  00005                    2230 SR        000000000000 FUJITSU TEN (THAILAN170KNEL0109109                                                                                                                              *          20170529IMF1705295.TXT
MDDDH5318704201706                D89821984430PT1D20170602000030RADIO;AM/FM,CD                M IMCTM S5NC06 FTTL  07070IMCT  S5 PTB  00005                    0400 SR        000000000000 FUJITSU TEN (THAILAN170KNDL0116116                                                                                                                              *          20170529IMF1705295.TXT
MDDDH5318705201706                D89821984430PT1D20170602000030RADIO;AM/FM,CD                M IMCTM S5NC06 FTTL  07070IMCT  S5 PTB  00005                    1300 SR        000000000000 FUJITSU TEN (THAILAN170KRAL0083083                                                                                                                              *          20170529IMF1705295.TXT
MDDDH5318706201706                D89828070100PV1D20170601000060SPEAKER ASM                   M IMCTM S5MB11 FTTL  07070IMCT  S5 PTB  00004                    2230 SR        000000000000 FUJITSU TEN (THAILAN170KNEL0109109                                                                                                                              *          20170529IMF1705295.TXT
MDDDH5318707201706                D89828070100PV1D20170602000060SPEAKER ASM                   M IMCTM S5MB11 FTTL  07070IMCT  S5 PTB  00004                    0400 SR        000000000000 FUJITSU TEN (THAILAN170KNDL0116116                                                                                                                              *          20170529IMF1705295.TXT
MDDDH5318708201706                D89828070100PV1D20170602000060SPEAKER ASM                   M IMCTM S5MB11 FTTL  07070IMCT  S5 PTB  00004                    0900 SR        000000000000 FUJITSU TEN (THAILAN170KRFL0095095                                                                                                                              *          20170529IMF1705295.TXT
MDDDH5318709201706                D89828070100PV1D20170602000180SPEAKER ASM                   M IMCTM S5MB11 FTTL  07070IMCT  S5 PTB  00004                    1300 SR        000000000000 FUJITSU TEN (THAILAN170KNBL0032032170KRAL0083083170KRSL0043043                                                                                                  *          20170529IMF1705295.TXT
MDDDH5318710201706                D89828070100PV1D20170602000060SPEAKER ASM                   M IMCTM S5MB11 FTTL  07070IMCT  S5 PTB  00004                    2100 SR        000000000000 FUJITSU TEN (THAILAN170KPFL0170170                                                                                                                              *          20170529IMF1705295.TXT
MDDDH5318711201706                D89828070200PV1D20170602000060SPEAKER ASM                   M IMCTM S5MA14 FTTL  07070IMCT  S5 PTB  00005                    0900 SR        000000000000 FUJITSU TEN (THAILAN170KRFL0095095                                                                                                                              *          20170529IMF1705295.TXT
MDDDH5318712201706                D89828070200PV1D20170602000060SPEAKER ASM                   M IMCTM S5MA14 FTTL  07070IMCT  S5 PTB  00005                    1300 SR        000000000000 FUJITSU TEN (THAILAN170KRSL0043043                                                                                                                              *          20170529IMF1705295.TXT
MDDDH5318713201706                D89828070300PT1D20170602000060SPEAKER ASM                   M IMCTM S5NB082FTTL  07070IMCT  S5 PTB  00015                    0900 SR        000000000000 FUJITSU TEN (THAILAN170KRFL0095095                                                                                                                              *          20170529IMF1705295.TXT
MDDDH5318714201706                D89828070300PT1D20170602000060SPEAKER ASM                   M IMCTM S5NB082FTTL  07070IMCT  S5 PTB  00015                    1300 SR        000000000000 FUJITSU TEN (THAILAN170KRSL0043043                                                                                                                              *          20170529IMF1705295.TXT
MDDDH5318715201706                D89828070300PT1D20170602000060SPEAKER ASM                   M IMCTM S5NB082FTTL  07070IMCT  S5 PTB  00015                    2100 SR        000000000000 FUJITSU TEN (THAILAN170KPFL0170170                                                                                                                              *          20170529IMF1705295.TXT
MDDDH5318716201706                D89829645910PT1D20170602000030RADIO;ASM DVD                 M IMCTM S5NC06 FTTL  07070IMCT  S5 CPB  00003                    0900 SR        000000000000 FUJITSU TEN (THAILAN170KRFL0095095                                                                                                                              *          20170529IMF1705295.TXT
MDDDH5318717201706                D89831228300PT1D20170602000030RADIO;AM/FM,CD                M IMCTM S5NC06 FTTL  07070IMCT  S5 CPB  00003                    2100 SR        000000000000 FUJITSU TEN (THAILAN170KPFL0170170                                                                                                                              *          20170529IMF1705295.TXT
MDDUH5253116201706                D89828070100PT4U20170601000030SPEAKER ASM                   M IMCTM S0FL05 FTTL  07070IMCT  S0 PTB  00004                    2230 SR        000000000000 FUJITSU TEN (THAILAN180LUCU0042042                                                                                                                              *          20170529IMF1705295.TXT
MDDUH5253117201706                D89828070100PT4U20170602000030SPEAKER ASM                   M IMCTM S0FL05 FTTL  07070IMCT  S0 PTB  00004                    0230 SR        000000000000 FUJITSU TEN (THAILAN180LUAU0014014                                                                                                                              *          20170529IMF1705295.TXT
MDDUH5253118201706                D89828070100PT4U20170602000030SPEAKER ASM                   M IMCTM S0FL05 FTTL  07070IMCT  S0 PTB  00004                    0400 SR        000000000000 FUJITSU TEN (THAILAN180LUDU0156156                                                                                                                              *          20170529IMF1705295.TXT
MDDUH5253119201706                D89828070100PT4U20170602000030SPEAKER ASM                   M IMCTM S0FL05 FTTL  07070IMCT  S0 PTB  00004                    0900 SR        000000000000 FUJITSU TEN (THAILAN180LUDU0157157                                                                                                                              *          20170529IMF1705295.TXT
MDDUH5253120201706                D89828070200PV4U20170601000030SPEAKER ASM                   M IMCTM S0FR05 FTTL  07070IMCT  S0 PTB  00005                    2230 SR        000000000000 FUJITSU TEN (THAILAN180LUCU0042042                                                                                                                              *          20170529IMF1705295.TXT
MDDUH5253121201706                D89828070200PV4U20170602000030SPEAKER ASM                   M IMCTM S0FR05 FTTL  07070IMCT  S0 PTB  00005                    0230 SR        000000000000 FUJITSU TEN (THAILAN180LUAU0014014                                                                                                                              *          20170529IMF1705295.TXT
MDDUH5253122201706                D89828070200PV4U20170602000030SPEAKER ASM                   M IMCTM S0FR05 FTTL  07070IMCT  S0 PTB  00005                    0400 SR        000000000000 FUJITSU TEN (THAILAN180LUDU0156156                                                                                                                              *          20170529IMF1705295.TXT
MDDUH5253123201706                D89828070200PV4U20170602000030SPEAKER ASM                   M IMCTM S0FR05 FTTL  07070IMCT  S0 PTB  00005                    0900 SR        000000000000 FUJITSU TEN (THAILAN180LUDU0157157                                                                                                                              *          20170529IMF1705295.TXT
MDDUH5253124201706                D89828070300PT4U20170601000030SPEAKER ASM                   M IMCTM S9TS02 FTTL  07070IMCT  S9 PTB  00015                    2230 SR        000000000000 FUJITSU TEN (THAILAN180LUCU0042042                                                                                                                              *          20170529IMF1705295.TXT
MDDUH5253125201706                D89828070300PT4U20170602000030SPEAKER ASM                   M IMCTM S9TS02 FTTL  07070IMCT  S9 PTB  00015                    0230 SR        000000000000 FUJITSU TEN (THAILAN180LUAU0014014                                                                                                                              *          20170529IMF1705295.TXT
MDDUH5253126201706                D89828070300PT4U20170602000030SPEAKER ASM                   M IMCTM S9TS02 FTTL  07070IMCT  S9 PTB  00015                    0400 SR        000000000000 FUJITSU TEN (THAILAN180LUDU0156156                                                                                                                              *          20170529IMF1705295.TXT
MDDUH5253127201706                D89828070300PT4U20170602000030SPEAKER ASM                   M IMCTM S9TS02 FTTL  07070IMCT  S9 PTB  00015                    0900 SR        000000000000 FUJITSU TEN (THAILAN180LUDU0157157                                                                                                                              *          20170529IMF1705295.TXT
MDDUH5253128201706                D89831228400PT4U20170602000015RADIO;AM/FM,CD                M IMCTM S9CO001FTTL  07070IMCT  S9 CPB  00003                    0230 SR        000000000000 FUJITSU TEN (THAILAN180LUAU0014014                                                                                                                              *          20170529IMF1705295.TXT
MDDUH5253129201706                D89835097900PT4U20170601000015RADIO;ASM DVD                 M IMCTM S9CO001FTTL  07070IMCT  S9 PTB  00003                    2230 SR        000000000000 FUJITSU TEN (THAILAN180LUCU0042042                                                                                                                              *          20170529IMF1705295.TXT
MDEDH5289113201706                D89805293700PV1D20170601000030SPEAKER ASM                   M IMCTM S5MB14 FTTL  07070IMCT  S5 PTB  00003                    2230 SR        000000000000 FUJITSU TEN (THAILAN15019FL0195195                                                                                                                              *          20170529IMF1705295.TXT
MDEDH5289114201706                D89805293700PV4D20170601000030SPEAKER ASM                   M IMCTM S0FR05 FTTL  07070IMCT  S0 PTB  00003                    2100 SR        000000000000 FUJITSU TEN (THAILAN15030BU0009009                                                                                                                              *          20170529IMF1705295.TXT
MDEDH5289115201706                D89805294000PT4D20170601000030SPEAKER ASM                   M IMCTM S9AFA25FTTL  07070IMCT  S9 PTB  00015                    2100 SR        000000000000 FUJITSU TEN (THAILAN15030BU0009009                                                                                                                              *          20170529IMF1705295.TXT
MDEDH5289116201706                D89805294100PV4D20170601000030SPEAKER ASM                   M IMCTM S0FR05 FTTL  07070IMCT  S0 PTB  00005                    2100 SR        000000000000 FUJITSU TEN (THAILAN15030BU0009009                                                                                                                              *          20170529IMF1705295.TXT
MDEDH5289117201706                D89828070100PV1D20170601000060SPEAKER ASM                   M IMCTM S5MB11 FTTL  07070IMCT  S5 PTB  00004                    2230 SR        000000000000 FUJITSU TEN (THAILAN17057NL0022023                                                                                                                              *          20170529IMF1705295.TXT
MDEDH5289118201706                D89828070100PV1D20170602000030SPEAKER ASM                   M IMCTM S5MB11 FTTL  07070IMCT  S5 PTB  00004                    0230 SR        000000000000 FUJITSU TEN (THAILAN17072NL0030030                                                                                                                              *          20170529IMF1705295.TXT
MDEDH5289119201706                D89828070100PV1D20170602000060SPEAKER ASM                   M IMCTM S5MB11 FTTL  07070IMCT  S5 PTB  00004                    0400 SR        000000000000 FUJITSU TEN (THAILAN17026NL001701717072NL0031031                                                                                                                *          20170529IMF1705295.TXT
MDEDH5289120201706                D89828070100PV1D20170602000030SPEAKER ASM                   M IMCTM S5MB11 FTTL  07070IMCT  S5 PTB  00004                    0900 SR        000000000000 FUJITSU TEN (THAILAN17058NL0018018                                                                                                                              *          20170529IMF1705295.TXT
MDEDH5289121201706                D89828070100PV1D20170602000030SPEAKER ASM                   M IMCTM S5MB11 FTTL  07070IMCT  S5 PTB  00004                    2230 SR        000000000000 FUJITSU TEN (THAILAN17055NL0033033                                                                                                                              *          20170529IMF1705295.TXT
MDEDH5289122201706                D89828070100PV4D20170602000030SPEAKER ASM                   M IMCTM S0FL05 FTTL  07070IMCT  S0 PTB  00004                    1300 SR        000000000000 FUJITSU TEN (THAILAN17080NU0030030                                                                                                                              *          20170529IMF1705295.TXT
MDEDH5289123201706                D89828070200PV1D20170601000060SPEAKER ASM                   M IMCTM S5MA14 FTTL  07070IMCT  S5 PTB  00005                    2230 SR        000000000000 FUJITSU TEN (THAILAN17057NL0022023                                                                                                                              *          20170529IMF1705295.TXT
MDEDH5289124201706                D89828070200PV1D20170602000030SPEAKER ASM                   M IMCTM S5MA14 FTTL  07070IMCT  S5 PTB  00005                    0230 SR        000000000000 FUJITSU TEN (THAILAN17072NL0030030                                                                                                                              *          20170529IMF1705295.TXT
MDEDH5289125201706                D89828070200PV1D20170602000060SPEAKER ASM                   M IMCTM S5MA14 FTTL  07070IMCT  S5 PTB  00005                    0400 SR        000000000000 FUJITSU TEN (THAILAN17026NL001701717072NL0031031                                                                                                                *          20170529IMF1705295.TXT
MDEDH5289126201706                D89828070200PV1D20170602000030SPEAKER ASM                   M IMCTM S5MA14 FTTL  07070IMCT  S5 PTB  00005                    0900 SR        000000000000 FUJITSU TEN (THAILAN17058NL0018018                                                                                                                              *          20170529IMF1705295.TXT
MDEDH5289127201706                D89828070200PV4D20170602000030SPEAKER ASM                   M IMCTM S0FR05 FTTL  07070IMCT  S0 PTB  00005                    1300 SR        000000000000 FUJITSU TEN (THAILAN17080NU0030030                                                                                                                              *          20170529IMF1705295.TXT
MDEDH5289128201706                D89828070300PT1D20170601000060SPEAKER ASM                   M IMCTM S5NB082FTTL  07070IMCT  S5 PTB  00015                    2230 SR        000000000000 FUJITSU TEN (THAILAN17057NL0022023                                                                                                                              *          20170529IMF1705295.TXT
MDEDH5289129201706                D89828070300PT1D20170602000030SPEAKER ASM                   M IMCTM S5NB082FTTL  07070IMCT  S5 PTB  00015                    0230 SR        000000000000 FUJITSU TEN (THAILAN17072NL0030030                                                                                                                              *          20170529IMF1705295.TXT
MDEDH5289130201706                D89828070300PT1D20170602000060SPEAKER ASM                   M IMCTM S5NB082FTTL  07070IMCT  S5 PTB  00015                    0400 SR        000000000000 FUJITSU TEN (THAILAN17026NL001701717072NL0031031                                                                                                                *          20170529IMF1705295.TXT
MDEDH5289131201706                D89828070300PT1D20170602000030SPEAKER ASM                   M IMCTM S5NB082FTTL  07070IMCT  S5 PTB  00015                    0900 SR        000000000000 FUJITSU TEN (THAILAN17058NL0018018                                                                                                                              *          20170529IMF1705295.TXT
MDEDH5289132201706                D89828070300PT1D20170602000030SPEAKER ASM                   M IMCTM S5NB082FTTL  07070IMCT  S5 PTB  00015                    2230 SR        000000000000 FUJITSU TEN (THAILAN17055NL0033033                                                                                                                              *          20170529IMF1705295.TXT
MDEDH5289133201706                D89828070300PT4D20170602000030SPEAKER ASM                   M IMCTM S9TS02 FTTL  07070IMCT  S9 PTB  00015                    1300 SR        000000000000 FUJITSU TEN (THAILAN17080NU0030030                                                                                                                              *          20170529IMF1705295.TXT
MDEDH5289134201706                D89829645710PT1D20170601000030RADIO;ASM DVD                 M IMCTM S5NC06 FTTL  07070IMCT  S5 PTB  00003                    2230 SR        000000000000 FUJITSU TEN (THAILAN17057NL0022023                                                                                                                              *          20170529IMF1705295.TXT
MDEDH5289135201706                D89829645710PT1D20170602000015RADIO;ASM DVD                 M IMCTM S5NC06 FTTL  07070IMCT  S5 PTB  00003                    0230 SR        000000000000 FUJITSU TEN (THAILAN17072NL0030030                                                                                                                              *          20170529IMF1705295.TXT
MDEDH5289136201706                D89829645710PT1D20170602000015RADIO;ASM DVD                 M IMCTM S5NC06 FTTL  07070IMCT  S5 PTB  00003                    0400 SR        000000000000 FUJITSU TEN (THAILAN17072NL0031031                                                                                                                              *          20170529IMF1705295.TXT
MDEDH5289137201706                D89829645710PT1D20170602000015RADIO;ASM DVD                 M IMCTM S5NC06 FTTL  07070IMCT  S5 PTB  00003                    0900 SR        000000000000 FUJITSU TEN (THAILAN17058NL0018018                                                                                                                              *          20170529IMF1705295.TXT
MDEDH5289138201706                D89829645710PT1D20170602000015RADIO;ASM DVD                 M IMCTM S5NC06 FTTL  07070IMCT  S5 PTB  00003                    2230 SR        000000000000 FUJITSU TEN (THAILAN17055NL0033033                                                                                                                              *          20170529IMF1705295.TXT
MDEUH5265844201706                D89828070100PT4U20170602000030SPEAKER ASM                   M IMCTM S0FL05 FTTL  07070IMCT  S0 PTB  00004                    0230 SR        000000000000 FUJITSU TEN (THAILAN18021TU0019019                                                                                                                              *          20170529IMF1705295.TXT
MDEUH5265845201706                D89828070100PT4U20170602000030SPEAKER ASM                   M IMCTM S0FL05 FTTL  07070IMCT  S0 PTB  00004                    0900 SR        000000000000 FUJITSU TEN (THAILAN160B95U0066066                                                                                                                              *          20170529IMF1705295.TXT
MDEUH5265846201706                D89828070100PT4U20170602000030SPEAKER ASM                   M IMCTM S0FL05 FTTL  07070IMCT  S0 PTB  00004                    1300 SR        000000000000 FUJITSU TEN (THAILAN170C13U0089089                                                                                                                              *          20170529IMF1705295.TXT
MDEUH5265847201706                D89828070100PT4U20170602000030SPEAKER ASM                   M IMCTM S0FL05 FTTL  07070IMCT  S0 PTB  00004                    1600 SR        000000000000 FUJITSU TEN (THAILAN170C16U0217217                                                                                                                              *          20170529IMF1705295.TXT
MDEUH5265848201706                D89828070200PV4U20170602000030SPEAKER ASM                   M IMCTM S0FR05 FTTL  07070IMCT  S0 PTB  00005                    0230 SR        000000000000 FUJITSU TEN (THAILAN18021TU0019019                                                                                                                              *          20170529IMF1705295.TXT
MDEUH5265849201706                D89828070200PV4U20170602000030SPEAKER ASM                   M IMCTM S0FR05 FTTL  07070IMCT  S0 PTB  00005                    0900 SR        000000000000 FUJITSU TEN (THAILAN160B95U0066066                                                                                                                              *          20170529IMF1705295.TXT
MDEUH5265850201706                D89828070200PV4U20170602000030SPEAKER ASM                   M IMCTM S0FR05 FTTL  07070IMCT  S0 PTB  00005                    1300 SR        000000000000 FUJITSU TEN (THAILAN170C13U0089089                                                                                                                              *          20170529IMF1705295.TXT
MDEUH5265851201706                D89828070200PV4U20170602000030SPEAKER ASM                   M IMCTM S0FR05 FTTL  07070IMCT  S0 PTB  00005                    1600 SR        000000000000 FUJITSU TEN (THAILAN170C16U0217217                                                                                                                              *          20170529IMF1705295.TXT
MDEUH5265852201706                D89828070300PT4U20170602000030SPEAKER ASM                   M IMCTM S9TS02 FTTL  07070IMCT  S9 PTB  00015                    0230 SR        000000000000 FUJITSU TEN (THAILAN18021TU0019019                                                                                                                              *          20170529IMF1705295.TXT
MDEUH5265853201706                D89828070300PT4U20170602000030SPEAKER ASM                   M IMCTM S9TS02 FTTL  07070IMCT  S9 PTB  00015                    0900 SR        000000000000 FUJITSU TEN (THAILAN160B95U0066066                                                                                                                              *          20170529IMF1705295.TXT
MDEUH5265854201706                D89828070300PT4U20170602000030SPEAKER ASM                   M IMCTM S9TS02 FTTL  07070IMCT  S9 PTB  00015                    1300 SR        000000000000 FUJITSU TEN (THAILAN170C13U0089089                                                                                                                              *          20170529IMF1705295.TXT
MDEUH5265855201706                D89828070300PT4U20170602000030SPEAKER ASM                   M IMCTM S9TS02 FTTL  07070IMCT  S9 PTB  00015                    1600 SR        000000000000 FUJITSU TEN (THAILAN170C16U0217217                                                                                                                              *          20170529IMF1705295.TXT
MDEUH5265856201706                D89836135900PT4U20170602000015RADIO;ASM DVD                 M IMCTM S9CO001FTTL  07070IMCT  S9 PTB  00003                    0230 SR        000000000000 FUJITSU TEN (THAILAN18021TU0019019                                                                                                                              *          20170529IMF1705295.TXT
