REC2017051120170511ISUZU                              7      
MADDH5602322201708                 89828070100PV1D20170705000002SPEAKER ASM                   M IMCTM ST00000FTTL  07070IMCT  ST PTB  00003  DC                0000 SR        000000000000 FUJITSU TEN (THAILAN180L1BL0002002                                                                                                                              *P         20170511IMF1705111.TXT
MADDH5602323201708                 89828070200PV1D20170705000002SPEAKER ASM                   M IMCTM ST00000FTTL  07070IMCT  ST PTB  00005  DC                0000 SR        000000000000 FUJITSU TEN (THAILAN180L1BL0002002                                                                                                                              *P         20170511IMF1705111.TXT
MADDH5602324201708                 89828070300PT1D20170705000002SPEAKER ASM                   M IMCTM ST00000FTTL  07070IMCT  ST PTB  00015  DC                0000 SR        000000000000 FUJITSU TEN (THAILAN180L1BL0002002                                                                                                                              *P         20170511IMF1705111.TXT
MAEDH5600319201708                 89828070100PV1D20170705000004SPEAKER ASM                   M IMCTM ST00000FTTL  07070IMCT  ST PTB  00003  DC                0000 SR        000000000000 FUJITSU TEN (THAILAN18002UL000100118003UL0001001                                                                                                                *P         20170511IMF1705111.TXT
MAEDH5600320201708                 89828070200PV1D20170705000004SPEAKER ASM                   M IMCTM ST00000FTTL  07070IMCT  ST PTB  00005  DC                0000 SR        000000000000 FUJITSU TEN (THAILAN18002UL000100118003UL0001001                                                                                                                *P         20170511IMF1705111.TXT
MAEDH5600321201708                 89828070300PT1D20170705000004SPEAKER ASM                   M IMCTM ST00000FTTL  07070IMCT  ST PTB  00015  DC                0000 SR        000000000000 FUJITSU TEN (THAILAN18002UL000100118003UL0001001                                                                                                                *P         20170511IMF1705111.TXT
MAEDH5600322201708                 89829645410PT1D20170705000001RADIO;ASM DVD                 M IMCTM ST00000FTTL  07070IMCT  ST PTB  00003  DC                0000 SR        000000000000 FUJITSU TEN (THAILAN18003UL0001001                                                                                                                              *P         20170511IMF1705111.TXT
