REC2017050220170502ISUZU                              52     
MDDDH5201123201705                D89821984430PT1D20170505000060RADIO;AM/FM,CD                M IMCTM S5NC06 FTTL  07070IMCT  S5 PTB  00005                    2230 SR        000000000000 FUJITSU TEN (THAILAN170KNEL0090090170KPAL0096096                                                                                                                *          20170502IMF1705024.TXT
MDDDH5201124201705                D89821984430PT1D20170506000060RADIO;AM/FM,CD                M IMCTM S5NC06 FTTL  07070IMCT  S5 PTB  00005                    0400 SR        000000000000 FUJITSU TEN (THAILAN170KNCL0066066170KPAL0097097                                                                                                                *          20170502IMF1705024.TXT
MDDDH5201125201705                D89821984430PT1D20170508000030RADIO;AM/FM,CD                M IMCTM S5NC06 FTTL  07070IMCT  S5 PTB  00005                    2100 SR        000000000000 FUJITSU TEN (THAILAN170KNDL0098098                                                                                                                              *          20170502IMF1705024.TXT
MDDDH5201126201705                D89825217910PT1D20170508000030RADIO;AM/FM,CD,D              M IMCTM S5NC06 FTTL  07070IMCT  S5 PTB  00003                    0900 SR        000000000000 FUJITSU TEN (THAILAN170KPJL0047047                                                                                                                              *          20170502IMF1705024.TXT
MDDDH5201127201705                D89828070100PV1D20170505000120SPEAKER ASM                   M IMCTM S5MB11 FTTL  07070IMCT  S5 PTB  00003                    2230 SR        000000000000 FUJITSU TEN (THAILAN170KNEL0090090170KPAL0096096                                                                                                                *          20170502IMF1705024.TXT
MDDDH5201128201705                D89828070100PV1D20170506000060SPEAKER ASM                   M IMCTM S5MB11 FTTL  07070IMCT  S5 PTB  00003                    0230 SR        000000000000 FUJITSU TEN (THAILAN170KRSL0037037                                                                                                                              *          20170502IMF1705024.TXT
MDDDH5201129201705                D89828070100PV1D20170506000120SPEAKER ASM                   M IMCTM S5MB11 FTTL  07070IMCT  S5 PTB  00003                    0400 SR        000000000000 FUJITSU TEN (THAILAN170KNCL0066066170KPAL0097097                                                                                                                *          20170502IMF1705024.TXT
MDDDH5201130201705                D89828070100PV1D20170508000120SPEAKER ASM                   M IMCTM S5MB11 FTTL  07070IMCT  S5 PTB  00003                    0900 SR        000000000000 FUJITSU TEN (THAILAN170KPJL0047047170KPPL0012012                                                                                                                *          20170502IMF1705024.TXT
MDDDH5201131201705                D89828070100PV1D20170508000120SPEAKER ASM                   M IMCTM S5MB11 FTTL  07070IMCT  S5 PTB  00003                    1300 SR        000000000000 FUJITSU TEN (THAILAN170KNAL0049049170KRGL0008008                                                                                                                *          20170502IMF1705024.TXT
MDDDH5201132201705                D89828070100PV1D20170508000060SPEAKER ASM                   M IMCTM S5MB11 FTTL  07070IMCT  S5 PTB  00003                    1600 SR        000000000000 FUJITSU TEN (THAILAN170KPDL0006006                                                                                                                              *          20170502IMF1705024.TXT
MDDDH5201133201705                D89828070100PV1D20170508000060SPEAKER ASM                   M IMCTM S5MB11 FTTL  07070IMCT  S5 PTB  00003                    2100 SR        000000000000 FUJITSU TEN (THAILAN170KNDL0098098                                                                                                                              *          20170502IMF1705024.TXT
MDDDH5201134201705                D89828070200PV1D20170506000060SPEAKER ASM                   M IMCTM S5MA14 FTTL  07070IMCT  S5 PTB  00005                    0230 SR        000000000000 FUJITSU TEN (THAILAN170KRSL0037037                                                                                                                              *          20170502IMF1705024.TXT
MDDDH5201135201705                D89828070200PV1D20170508000060SPEAKER ASM                   M IMCTM S5MA14 FTTL  07070IMCT  S5 PTB  00005                    1300 SR        000000000000 FUJITSU TEN (THAILAN170KRGL0008008                                                                                                                              *          20170502IMF1705024.TXT
MDDDH5201136201705                D89828070300PT1D20170506000060SPEAKER ASM                   M IMCTM S5NB082FTTL  07070IMCT  S5 PTB  00015                    0230 SR        000000000000 FUJITSU TEN (THAILAN170KRSL0037037                                                                                                                              *          20170502IMF1705024.TXT
MDDDH5201137201705                D89828070300PT1D20170508000120SPEAKER ASM                   M IMCTM S5NB082FTTL  07070IMCT  S5 PTB  00015                    0900 SR        000000000000 FUJITSU TEN (THAILAN170KPJL0047047170KPPL0012012                                                                                                                *          20170502IMF1705024.TXT
MDDDH5201138201705                D89828070300PT1D20170508000060SPEAKER ASM                   M IMCTM S5NB082FTTL  07070IMCT  S5 PTB  00015                    1300 SR        000000000000 FUJITSU TEN (THAILAN170KRGL0008008                                                                                                                              *          20170502IMF1705024.TXT
MDDDH5201139201705                D89828070300PT1D20170508000060SPEAKER ASM                   M IMCTM S5NB082FTTL  07070IMCT  S5 PTB  00015                    1600 SR        000000000000 FUJITSU TEN (THAILAN170KPDL0006006                                                                                                                              *          20170502IMF1705024.TXT
MDDDH5201140201705                D89829645910PT1D20170508000030RADIO;ASM DVD                 M IMCTM S5NC06 FTTL  07070IMCT  S5 CPB  00003                    1300 SR        000000000000 FUJITSU TEN (THAILAN170KRGL0008008                                                                                                                              *          20170502IMF1705024.TXT
MDDDH5201141201705                D89831228300PT1D20170508000030RADIO;AM/FM,CD                M IMCTM S5NC06 FTTL  07070IMCT  S5 CPB  00003                    0900 SR        000000000000 FUJITSU TEN (THAILAN170KPPL0012012                                                                                                                              *          20170502IMF1705024.TXT
MDDDH5201142201705                D89831228300PT1D20170508000030RADIO;AM/FM,CD                M IMCTM S5NC06 FTTL  07070IMCT  S5 CPB  00003                    1600 SR        000000000000 FUJITSU TEN (THAILAN170KPDL0006006                                                                                                                              *          20170502IMF1705024.TXT
MDDUH5200217201705                D89828070100PT4U20170508000030SPEAKER ASM                   M IMCTM S0FL05 FTTL  07070IMCT  S0 PTB  00003                    1300 SR        000000000000 FUJITSU TEN (THAILAN180LUDU0125125                                                                                                                              *          20170502IMF1705024.TXT
MDDUH5200218201705                D89828070200PV4U20170508000030SPEAKER ASM                   M IMCTM S0FR05 FTTL  07070IMCT  S0 PTB  00005                    1300 SR        000000000000 FUJITSU TEN (THAILAN180LUDU0125125                                                                                                                              *          20170502IMF1705024.TXT
MDDUH5200219201705                D89828070300PT4U20170508000030SPEAKER ASM                   M IMCTM S9TS02 FTTL  07070IMCT  S9 PTB  00015                    1300 SR        000000000000 FUJITSU TEN (THAILAN180LUDU0125125                                                                                                                              *          20170502IMF1705024.TXT
MDEDH5200860201705                D89828070100PV4D20170505000030SPEAKER ASM                   M IMCTM S0FL05 FTTL  07070IMCT  S0 PTB  00003                    2230 SR        000000000000 FUJITSU TEN (THAILAN17060NU0005005                                                                                                                              *          20170502IMF1705024.TXT
MDEDH5200861201705                D89828070100PV4D20170506000030SPEAKER ASM                   M IMCTM S0FL05 FTTL  07070IMCT  S0 PTB  00003                    0230 SR        000000000000 FUJITSU TEN (THAILAN17076MU0002002                                                                                                                              *          20170502IMF1705024.TXT
MDEDH5200862201705                D89828070100PV4D20170508000030SPEAKER ASM                   M IMCTM S0FL05 FTTL  07070IMCT  S0 PTB  00003                    0900 SR        000000000000 FUJITSU TEN (THAILAN17060NU0006006                                                                                                                              *          20170502IMF1705024.TXT
MDEDH5200863201705                D89828070100PV4D20170508000030SPEAKER ASM                   M IMCTM S0FL05 FTTL  07070IMCT  S0 PTB  00003                    1300 SR        000000000000 FUJITSU TEN (THAILAN17029NU0004004                                                                                                                              *          20170502IMF1705024.TXT
MDEDH5200864201705                D89828070100PV4D20170508000030SPEAKER ASM                   M IMCTM S0FL05 FTTL  07070IMCT  S0 PTB  00003                    2100 SR        000000000000 FUJITSU TEN (THAILAN17057NU0001001                                                                                                                              *          20170502IMF1705024.TXT
MDEDH5200865201705                D89828070200PV4D20170505000030SPEAKER ASM                   M IMCTM S0FR05 FTTL  07070IMCT  S0 PTB  00005                    2230 SR        000000000000 FUJITSU TEN (THAILAN17060NU0005005                                                                                                                              *          20170502IMF1705024.TXT
MDEDH5200866201705                D89828070200PV4D20170508000030SPEAKER ASM                   M IMCTM S0FR05 FTTL  07070IMCT  S0 PTB  00005                    0900 SR        000000000000 FUJITSU TEN (THAILAN17060NU0006006                                                                                                                              *          20170502IMF1705024.TXT
MDEDH5200867201705                D89828070200PV4D20170508000030SPEAKER ASM                   M IMCTM S0FR05 FTTL  07070IMCT  S0 PTB  00005                    2100 SR        000000000000 FUJITSU TEN (THAILAN17057NU0001001                                                                                                                              *          20170502IMF1705024.TXT
MDEDH5200868201705                D89828070300PT4D20170505000030SPEAKER ASM                   M IMCTM S9TS02 FTTL  07070IMCT  S9 PTB  00015                    2230 SR        000000000000 FUJITSU TEN (THAILAN17060NU0005005                                                                                                                              *          20170502IMF1705024.TXT
MDEDH5200869201705                D89828070300PT4D20170508000030SPEAKER ASM                   M IMCTM S9TS02 FTTL  07070IMCT  S9 PTB  00015                    0900 SR        000000000000 FUJITSU TEN (THAILAN17060NU0006006                                                                                                                              *          20170502IMF1705024.TXT
MDEDH5200870201705                D89828070300PT4D20170508000030SPEAKER ASM                   M IMCTM S9TS02 FTTL  07070IMCT  S9 PTB  00015                    1300 SR        000000000000 FUJITSU TEN (THAILAN17029NU0004004                                                                                                                              *          20170502IMF1705024.TXT
MDEDH5200871201705                D89828070300PT4D20170508000030SPEAKER ASM                   M IMCTM S9TS02 FTTL  07070IMCT  S9 PTB  00015                    2100 SR        000000000000 FUJITSU TEN (THAILAN17057NU0001001                                                                                                                              *          20170502IMF1705024.TXT
MDEDH5200872201705                D89829645710PT4D20170508000015RADIO;ASM DVD                 M IMCTM S9CO001FTTL  07070IMCT  S9 X    00003                    2100 SR        000000000000 FUJITSU TEN (THAILAN17057NU0001001                                                                                                                              *          20170502IMF1705024.TXT
MDEUH5200692201705                D89828070100PT4U20170505000060SPEAKER ASM                   M IMCTM S0FL05 FTTL  07070IMCT  S0 PTB  00003                    2230 SR        000000000000 FUJITSU TEN (THAILAN18023TU0062063                                                                                                                              *          20170502IMF1705024.TXT
MDEUH5200693201705                D89828070100PT4U20170506000030SPEAKER ASM                   M IMCTM S0FL05 FTTL  07070IMCT  S0 PTB  00003                    0400 SR        000000000000 FUJITSU TEN (THAILAN18018TU0016016                                                                                                                              *          20170502IMF1705024.TXT
MDEUH5200694201705                D89828070100PT4U20170508000030SPEAKER ASM                   M IMCTM S0FL05 FTTL  07070IMCT  S0 PTB  00003                    0900 SR        000000000000 FUJITSU TEN (THAILAN18021TU0008008                                                                                                                              *          20170502IMF1705024.TXT
MDEUH5200695201705                D89828070100PT4U20170508000030SPEAKER ASM                   M IMCTM S0FL05 FTTL  07070IMCT  S0 PTB  00003                    1300 SR        000000000000 FUJITSU TEN (THAILAN18023TU0064064                                                                                                                              *          20170502IMF1705024.TXT
MDEUH5200696201705                D89828070100PT4U20170508000030SPEAKER ASM                   M IMCTM S0FL05 FTTL  07070IMCT  S0 PTB  00003                    1600 SR        000000000000 FUJITSU TEN (THAILAN18023TU0065065                                                                                                                              *          20170502IMF1705024.TXT
MDEUH5200697201705                D89828070200PV4U20170505000060SPEAKER ASM                   M IMCTM S0FR05 FTTL  07070IMCT  S0 PTB  00005                    2230 SR        000000000000 FUJITSU TEN (THAILAN18023TU0062063                                                                                                                              *          20170502IMF1705024.TXT
MDEUH5200698201705                D89828070200PV4U20170506000030SPEAKER ASM                   M IMCTM S0FR05 FTTL  07070IMCT  S0 PTB  00005                    0400 SR        000000000000 FUJITSU TEN (THAILAN18018TU0016016                                                                                                                              *          20170502IMF1705024.TXT
MDEUH5200699201705                D89828070200PV4U20170508000030SPEAKER ASM                   M IMCTM S0FR05 FTTL  07070IMCT  S0 PTB  00005                    0900 SR        000000000000 FUJITSU TEN (THAILAN18021TU0008008                                                                                                                              *          20170502IMF1705024.TXT
MDEUH5200700201705                D89828070200PV4U20170508000030SPEAKER ASM                   M IMCTM S0FR05 FTTL  07070IMCT  S0 PTB  00005                    1300 SR        000000000000 FUJITSU TEN (THAILAN18023TU0064064                                                                                                                              *          20170502IMF1705024.TXT
MDEUH5200701201705                D89828070200PV4U20170508000030SPEAKER ASM                   M IMCTM S0FR05 FTTL  07070IMCT  S0 PTB  00005                    1600 SR        000000000000 FUJITSU TEN (THAILAN18023TU0065065                                                                                                                              *          20170502IMF1705024.TXT
MDEUH5200702201705                D89828070300PT4U20170505000060SPEAKER ASM                   M IMCTM S9TS02 FTTL  07070IMCT  S9 PTB  00015                    2230 SR        000000000000 FUJITSU TEN (THAILAN18023TU0062063                                                                                                                              *          20170502IMF1705024.TXT
MDEUH5200703201705                D89828070300PT4U20170506000030SPEAKER ASM                   M IMCTM S9TS02 FTTL  07070IMCT  S9 PTB  00015                    0400 SR        000000000000 FUJITSU TEN (THAILAN18018TU0016016                                                                                                                              *          20170502IMF1705024.TXT
MDEUH5200704201705                D89828070300PT4U20170508000030SPEAKER ASM                   M IMCTM S9TS02 FTTL  07070IMCT  S9 PTB  00015                    0900 SR        000000000000 FUJITSU TEN (THAILAN18021TU0008008                                                                                                                              *          20170502IMF1705024.TXT
MDEUH5200705201705                D89828070300PT4U20170508000030SPEAKER ASM                   M IMCTM S9TS02 FTTL  07070IMCT  S9 PTB  00015                    1300 SR        000000000000 FUJITSU TEN (THAILAN18023TU0064064                                                                                                                              *          20170502IMF1705024.TXT
MDEUH5200706201705                D89828070300PT4U20170508000030SPEAKER ASM                   M IMCTM S9TS02 FTTL  07070IMCT  S9 PTB  00015                    1600 SR        000000000000 FUJITSU TEN (THAILAN18023TU0065065                                                                                                                              *          20170502IMF1705024.TXT
MDEUH5200707201705                D89836135900PT4U20170508000015RADIO;ASM DVD                 M IMCTM S9CO001FTTL  07070IMCT  S9 PTB  00003                    0900 SR        000000000000 FUJITSU TEN (THAILAN18021TU0008008                                                                                                                              *          20170502IMF1705024.TXT
