REC2017051320170513ISUZU                              71     
MDDDH5253700201705                D89821984430PT1D20170517000030RADIO;AM/FM,CD                M IMCTM S5NC06 FTTL  07070IMCT  S5 PTB  00005                    2230 SR        000000000000 FUJITSU TEN (THAILAN170KNDL0109109                                                                                                                              *          20170513IMF1705134.TXT
MDDDH5253701201705                D89821984430PT1D20170518000030RADIO;AM/FM,CD                M IMCTM S5NC06 FTTL  07070IMCT  S5 PTB  00005                    0400 SR        000000000000 FUJITSU TEN (THAILAN170KNCL0073073                                                                                                                              *          20170513IMF1705134.TXT
MDDDH5253702201705                D89821984430PT1D20170518000060RADIO;AM/FM,CD                M IMCTM S5NC06 FTTL  07070IMCT  S5 PTB  00005                    1300 SR        000000000000 FUJITSU TEN (THAILAN170KNCL0074074170KRAL0069069                                                                                                                *          20170513IMF1705134.TXT
MDDDH5253703201705                D89821984430PT1D20170518000030RADIO;AM/FM,CD                M IMCTM S5NC06 FTTL  07070IMCT  S5 PTB  00005                    1600 SR        000000000000 FUJITSU TEN (THAILAN170KNCL0075075                                                                                                                              *          20170513IMF1705134.TXT
MDDDH5253704201705                D89821984430PT1D20170518000030RADIO;AM/FM,CD                M IMCTM S5NC06 FTTL  07070IMCT  S5 PTB  00005                    2100 SR        000000000000 FUJITSU TEN (THAILAN170KPAL0106106                                                                                                                              *          20170513IMF1705134.TXT
MDDDH5253705201705                D89828070100PV1D20170517000060SPEAKER ASM                   M IMCTM S5MB11 FTTL  07070IMCT  S5 PTB  00003                    2230 SR        000000000000 FUJITSU TEN (THAILAN170KNDL0109109                                                                                                                              *          20170513IMF1705134.TXT
MDDDH5253706201705                D89828070100PV1D20170518000060SPEAKER ASM                   M IMCTM S5MB11 FTTL  07070IMCT  S5 PTB  00003                    0230 SR        000000000000 FUJITSU TEN (THAILAN170KRFL0083083                                                                                                                              *          20170513IMF1705134.TXT
MDDDH5253707201705                D89828070100PV1D20170518000120SPEAKER ASM                   M IMCTM S5MB11 FTTL  07070IMCT  S5 PTB  00003                    0400 SR        000000000000 FUJITSU TEN (THAILAN170KNCL0073073170KPFL0157157                                                                                                                *          20170513IMF1705134.TXT
MDDDH5253708201705                D89828070100PV1D20170518000120SPEAKER ASM                   M IMCTM S5MB11 FTTL  07070IMCT  S5 PTB  00003                    0900 SR        000000000000 FUJITSU TEN (THAILAN170KRFL0084084170KRHL0030030                                                                                                                *          20170513IMF1705134.TXT
MDDDH5253709201705                D89828070100PV1D20170518000120SPEAKER ASM                   M IMCTM S5MB11 FTTL  07070IMCT  S5 PTB  00003                    1300 SR        000000000000 FUJITSU TEN (THAILAN170KNCL0074074170KRAL0069069                                                                                                                *          20170513IMF1705134.TXT
MDDDH5253710201705                D89828070100PV1D20170518000180SPEAKER ASM                   M IMCTM S5MB11 FTTL  07070IMCT  S5 PTB  00003                    1600 SR        000000000000 FUJITSU TEN (THAILAN170KNCL0075075170KPFL0158158170KRRL0023023                                                                                                  *          20170513IMF1705134.TXT
MDDDH5253711201705                D89828070100PV1D20170518000060SPEAKER ASM                   M IMCTM S5MB11 FTTL  07070IMCT  S5 PTB  00003                    2100 SR        000000000000 FUJITSU TEN (THAILAN170KPAL0106106                                                                                                                              *          20170513IMF1705134.TXT
MDDDH5253712201705                D89828070200PV1D20170518000060SPEAKER ASM                   M IMCTM S5MA14 FTTL  07070IMCT  S5 PTB  00005                    0230 SR        000000000000 FUJITSU TEN (THAILAN170KRFL0083083                                                                                                                              *          20170513IMF1705134.TXT
MDDDH5253713201705                D89828070200PV1D20170518000120SPEAKER ASM                   M IMCTM S5MA14 FTTL  07070IMCT  S5 PTB  00005                    0900 SR        000000000000 FUJITSU TEN (THAILAN170KRFL0084084170KRHL0030030                                                                                                                *          20170513IMF1705134.TXT
MDDDH5253714201705                D89828070200PV1D20170518000060SPEAKER ASM                   M IMCTM S5MA14 FTTL  07070IMCT  S5 PTB  00005                    1600 SR        000000000000 FUJITSU TEN (THAILAN170KRRL0023023                                                                                                                              *          20170513IMF1705134.TXT
MDDDH5253715201705                D89828070300PT1D20170518000060SPEAKER ASM                   M IMCTM S5NB082FTTL  07070IMCT  S5 PTB  00015                    0230 SR        000000000000 FUJITSU TEN (THAILAN170KRFL0083083                                                                                                                              *          20170513IMF1705134.TXT
MDDDH5253716201705                D89828070300PT1D20170518000060SPEAKER ASM                   M IMCTM S5NB082FTTL  07070IMCT  S5 PTB  00015                    0400 SR        000000000000 FUJITSU TEN (THAILAN170KPFL0157157                                                                                                                              *          20170513IMF1705134.TXT
MDDDH5253717201705                D89828070300PT1D20170518000120SPEAKER ASM                   M IMCTM S5NB082FTTL  07070IMCT  S5 PTB  00015                    0900 SR        000000000000 FUJITSU TEN (THAILAN170KRFL0084084170KRHL0030030                                                                                                                *          20170513IMF1705134.TXT
MDDDH5253718201705                D89828070300PT1D20170518000120SPEAKER ASM                   M IMCTM S5NB082FTTL  07070IMCT  S5 PTB  00015                    1600 SR        000000000000 FUJITSU TEN (THAILAN170KPFL0158158170KRRL0023023                                                                                                                *          20170513IMF1705134.TXT
MDDDH5253719201705                D89829645910PT1D20170518000030RADIO;ASM DVD                 M IMCTM S5NC06 FTTL  07070IMCT  S5 CPB  00003                    0230 SR        000000000000 FUJITSU TEN (THAILAN170KRFL0083083                                                                                                                              *          20170513IMF1705134.TXT
MDDDH5253720201705                D89829645910PT1D20170518000030RADIO;ASM DVD                 M IMCTM S5NC06 FTTL  07070IMCT  S5 CPB  00003                    0900 SR        000000000000 FUJITSU TEN (THAILAN170KRFL0084084                                                                                                                              *          20170513IMF1705134.TXT
MDDDH5253721201705                D89831228300PT1D20170518000030RADIO;AM/FM,CD                M IMCTM S5NC06 FTTL  07070IMCT  S5 CPB  00003                    0400 SR        000000000000 FUJITSU TEN (THAILAN170KPFL0157157                                                                                                                              *          20170513IMF1705134.TXT
MDDDH5253722201705                D89831228300PT1D20170518000030RADIO;AM/FM,CD                M IMCTM S5NC06 FTTL  07070IMCT  S5 CPB  00003                    1600 SR        000000000000 FUJITSU TEN (THAILAN170KPFL0158158                                                                                                                              *          20170513IMF1705134.TXT
MDDUH5221367201705                D89828070100PT4U20170517000030SPEAKER ASM                   M IMCTM S0FL05 FTTL  07070IMCT  S0 PTB  00003                    2230 SR        000000000000 FUJITSU TEN (THAILAN180LUEU0080080                                                                                                                              *          20170513IMF1705134.TXT
MDDUH5221368201705                D89828070100PT4U20170518000030SPEAKER ASM                   M IMCTM S0FL05 FTTL  07070IMCT  S0 PTB  00003                    0230 SR        000000000000 FUJITSU TEN (THAILAN180LUDU0142142                                                                                                                              *          20170513IMF1705134.TXT
MDDUH5221369201705                D89828070100PT4U20170518000030SPEAKER ASM                   M IMCTM S0FL05 FTTL  07070IMCT  S0 PTB  00003                    1300 SR        000000000000 FUJITSU TEN (THAILAN180LUDU0143143                                                                                                                              *          20170513IMF1705134.TXT
MDDUH5221370201705                D89828070100PT4U20170518000030SPEAKER ASM                   M IMCTM S0FL05 FTTL  07070IMCT  S0 PTB  00003                    1600 SR        000000000000 FUJITSU TEN (THAILAN180LUEU0081081                                                                                                                              *          20170513IMF1705134.TXT
MDDUH5221371201705                D89828070200PV4U20170517000030SPEAKER ASM                   M IMCTM S0FR05 FTTL  07070IMCT  S0 PTB  00005                    2230 SR        000000000000 FUJITSU TEN (THAILAN180LUEU0080080                                                                                                                              *          20170513IMF1705134.TXT
MDDUH5221372201705                D89828070200PV4U20170518000030SPEAKER ASM                   M IMCTM S0FR05 FTTL  07070IMCT  S0 PTB  00005                    0230 SR        000000000000 FUJITSU TEN (THAILAN180LUDU0142142                                                                                                                              *          20170513IMF1705134.TXT
MDDUH5221373201705                D89828070200PV4U20170518000030SPEAKER ASM                   M IMCTM S0FR05 FTTL  07070IMCT  S0 PTB  00005                    1300 SR        000000000000 FUJITSU TEN (THAILAN180LUDU0143143                                                                                                                              *          20170513IMF1705134.TXT
MDDUH5221374201705                D89828070200PV4U20170518000030SPEAKER ASM                   M IMCTM S0FR05 FTTL  07070IMCT  S0 PTB  00005                    1600 SR        000000000000 FUJITSU TEN (THAILAN180LUEU0081081                                                                                                                              *          20170513IMF1705134.TXT
MDDUH5221375201705                D89828070300PT4U20170517000030SPEAKER ASM                   M IMCTM S9TS02 FTTL  07070IMCT  S9 PTB  00015                    2230 SR        000000000000 FUJITSU TEN (THAILAN180LUEU0080080                                                                                                                              *          20170513IMF1705134.TXT
MDDUH5221376201705                D89828070300PT4U20170518000030SPEAKER ASM                   M IMCTM S9TS02 FTTL  07070IMCT  S9 PTB  00015                    0230 SR        000000000000 FUJITSU TEN (THAILAN180LUDU0142142                                                                                                                              *          20170513IMF1705134.TXT
MDDUH5221377201705                D89828070300PT4U20170518000030SPEAKER ASM                   M IMCTM S9TS02 FTTL  07070IMCT  S9 PTB  00015                    1300 SR        000000000000 FUJITSU TEN (THAILAN180LUDU0143143                                                                                                                              *          20170513IMF1705134.TXT
MDDUH5221378201705                D89828070300PT4U20170518000030SPEAKER ASM                   M IMCTM S9TS02 FTTL  07070IMCT  S9 PTB  00015                    1600 SR        000000000000 FUJITSU TEN (THAILAN180LUEU0081081                                                                                                                              *          20170513IMF1705134.TXT
MDEDH5238874201705                D89828070100PV1D20170517000030SPEAKER ASM                   M IMCTM S5MB11 FTTL  07070IMCT  S5 PTB  00003                    2230 SR        000000000000 FUJITSU TEN (THAILAN17072NL0027027                                                                                                                              *          20170513IMF1705134.TXT
MDEDH5238875201705                D89828070100PV1D20170518000030SPEAKER ASM                   M IMCTM S5MB11 FTTL  07070IMCT  S5 PTB  00003                    0230 SR        000000000000 FUJITSU TEN (THAILAN17072NL0028028                                                                                                                              *          20170513IMF1705134.TXT
MDEDH5238876201705                D89828070100PV4D20170517000030SPEAKER ASM                   M IMCTM S0FL05 FTTL  07070IMCT  S0 PTB  00003                    2230 SR        000000000000 FUJITSU TEN (THAILAN17018MU0008008                                                                                                                              *          20170513IMF1705134.TXT
MDEDH5238877201705                D89828070100PV4D20170518000030SPEAKER ASM                   M IMCTM S0FL05 FTTL  07070IMCT  S0 PTB  00003                    0400 SR        000000000000 FUJITSU TEN (THAILAN17060NU0007007                                                                                                                              *          20170513IMF1705134.TXT
MDEDH5238878201705                D89828070100PV4D20170518000030SPEAKER ASM                   M IMCTM S0FL05 FTTL  07070IMCT  S0 PTB  00003                    1300 SR        000000000000 FUJITSU TEN (THAILAN17031MU0012012                                                                                                                              *          20170513IMF1705134.TXT
MDEDH5238879201705                D89828070100PV4D20170518000060SPEAKER ASM                   M IMCTM S0FL05 FTTL  07070IMCT  S0 PTB  00003                    1600 SR        000000000000 FUJITSU TEN (THAILAN17029NU000600617048MU0001001                                                                                                                *          20170513IMF1705134.TXT
MDEDH5238880201705                D89828070200PV1D20170517000030SPEAKER ASM                   M IMCTM S5MA14 FTTL  07070IMCT  S5 PTB  00005                    2230 SR        000000000000 FUJITSU TEN (THAILAN17072NL0027027                                                                                                                              *          20170513IMF1705134.TXT
MDEDH5238881201705                D89828070200PV1D20170518000030SPEAKER ASM                   M IMCTM S5MA14 FTTL  07070IMCT  S5 PTB  00005                    0230 SR        000000000000 FUJITSU TEN (THAILAN17072NL0028028                                                                                                                              *          20170513IMF1705134.TXT
MDEDH5238882201705                D89828070200PV4D20170517000030SPEAKER ASM                   M IMCTM S0FR05 FTTL  07070IMCT  S0 PTB  00005                    2230 SR        000000000000 FUJITSU TEN (THAILAN17018MU0008008                                                                                                                              *          20170513IMF1705134.TXT
MDEDH5238883201705                D89828070200PV4D20170518000030SPEAKER ASM                   M IMCTM S0FR05 FTTL  07070IMCT  S0 PTB  00005                    0400 SR        000000000000 FUJITSU TEN (THAILAN17060NU0007007                                                                                                                              *          20170513IMF1705134.TXT
MDEDH5238884201705                D89828070200PV4D20170518000030SPEAKER ASM                   M IMCTM S0FR05 FTTL  07070IMCT  S0 PTB  00005                    1300 SR        000000000000 FUJITSU TEN (THAILAN17031MU0012012                                                                                                                              *          20170513IMF1705134.TXT
MDEDH5238885201705                D89828070300PT1D20170517000030SPEAKER ASM                   M IMCTM S5NB082FTTL  07070IMCT  S5 PTB  00015                    2230 SR        000000000000 FUJITSU TEN (THAILAN17072NL0027027                                                                                                                              *          20170513IMF1705134.TXT
MDEDH5238886201705                D89828070300PT1D20170518000030SPEAKER ASM                   M IMCTM S5NB082FTTL  07070IMCT  S5 PTB  00015                    0230 SR        000000000000 FUJITSU TEN (THAILAN17072NL0028028                                                                                                                              *          20170513IMF1705134.TXT
MDEDH5238887201705                D89828070300PT4D20170517000030SPEAKER ASM                   M IMCTM S9TS02 FTTL  07070IMCT  S9 PTB  00015                    2230 SR        000000000000 FUJITSU TEN (THAILAN17018MU0008008                                                                                                                              *          20170513IMF1705134.TXT
MDEDH5238888201705                D89828070300PT4D20170518000030SPEAKER ASM                   M IMCTM S9TS02 FTTL  07070IMCT  S9 PTB  00015                    0400 SR        000000000000 FUJITSU TEN (THAILAN17060NU0007007                                                                                                                              *          20170513IMF1705134.TXT
MDEDH5238889201705                D89828070300PT4D20170518000030SPEAKER ASM                   M IMCTM S9TS02 FTTL  07070IMCT  S9 PTB  00015                    1300 SR        000000000000 FUJITSU TEN (THAILAN17031MU0012012                                                                                                                              *          20170513IMF1705134.TXT
MDEDH5238890201705                D89828070300PT4D20170518000030SPEAKER ASM                   M IMCTM S9TS02 FTTL  07070IMCT  S9 PTB  00015                    1600 SR        000000000000 FUJITSU TEN (THAILAN17029NU0006006                                                                                                                              *          20170513IMF1705134.TXT
MDEDH5238891201705                D89829645310PT4D20170517000015RADIO;ASM DVD                 M IMCTM S9CO001FTTL  07070IMCT  S9 PTB  00003                    2230 SR        000000000000 FUJITSU TEN (THAILAN17018MU0008008                                                                                                                              *          20170513IMF1705134.TXT
MDEDH5238892201705                D89829645710PT1D20170517000015RADIO;ASM DVD                 M IMCTM S5NC06 FTTL  07070IMCT  S5 PTB  00003                    2230 SR        000000000000 FUJITSU TEN (THAILAN17072NL0027027                                                                                                                              *          20170513IMF1705134.TXT
MDEDH5238893201705                D89829645710PT1D20170518000015RADIO;ASM DVD                 M IMCTM S5NC06 FTTL  07070IMCT  S5 PTB  00003                    0230 SR        000000000000 FUJITSU TEN (THAILAN17072NL0028028                                                                                                                              *          20170513IMF1705134.TXT
MDEUH5230047201705                D89828070100PT4U20170517000030SPEAKER ASM                   M IMCTM S0FL05 FTTL  07070IMCT  S0 PTB  00003                    2100 SR        000000000000 FUJITSU TEN (THAILAN160B95U0058058                                                                                                                              *          20170513IMF1705134.TXT
MDEUH5230048201705                D89828070100PT4U20170518000030SPEAKER ASM                   M IMCTM S0FL05 FTTL  07070IMCT  S0 PTB  00003                    0230 SR        000000000000 FUJITSU TEN (THAILAN18021TU0011011                                                                                                                              *          20170513IMF1705134.TXT
MDEUH5230049201705                D89828070100PT4U20170518000060SPEAKER ASM                   M IMCTM S0FL05 FTTL  07070IMCT  S0 PTB  00003                    0900 SR        000000000000 FUJITSU TEN (THAILAN18023TU0080081                                                                                                                              *          20170513IMF1705134.TXT
MDEUH5230050201705                D89828070100PT4U20170518000030SPEAKER ASM                   M IMCTM S0FL05 FTTL  07070IMCT  S0 PTB  00003                    1600 SR        000000000000 FUJITSU TEN (THAILAN18022TU0017017                                                                                                                              *          20170513IMF1705134.TXT
MDEUH5230051201705                D89828070100PT4U20170518000030SPEAKER ASM                   M IMCTM S0FL05 FTTL  07070IMCT  S0 PTB  00003                    2100 SR        000000000000 FUJITSU TEN (THAILAN160B95U0059059                                                                                                                              *          20170513IMF1705134.TXT
MDEUH5230052201705                D89828070200PV4U20170517000030SPEAKER ASM                   M IMCTM S0FR05 FTTL  07070IMCT  S0 PTB  00005                    2100 SR        000000000000 FUJITSU TEN (THAILAN160B95U0058058                                                                                                                              *          20170513IMF1705134.TXT
MDEUH5230053201705                D89828070200PV4U20170518000030SPEAKER ASM                   M IMCTM S0FR05 FTTL  07070IMCT  S0 PTB  00005                    0230 SR        000000000000 FUJITSU TEN (THAILAN18021TU0011011                                                                                                                              *          20170513IMF1705134.TXT
MDEUH5230054201705                D89828070200PV4U20170518000060SPEAKER ASM                   M IMCTM S0FR05 FTTL  07070IMCT  S0 PTB  00005                    0900 SR        000000000000 FUJITSU TEN (THAILAN18023TU0080081                                                                                                                              *          20170513IMF1705134.TXT
MDEUH5230055201705                D89828070200PV4U20170518000030SPEAKER ASM                   M IMCTM S0FR05 FTTL  07070IMCT  S0 PTB  00005                    1600 SR        000000000000 FUJITSU TEN (THAILAN18022TU0017017                                                                                                                              *          20170513IMF1705134.TXT
MDEUH5230056201705                D89828070200PV4U20170518000030SPEAKER ASM                   M IMCTM S0FR05 FTTL  07070IMCT  S0 PTB  00005                    2100 SR        000000000000 FUJITSU TEN (THAILAN160B95U0059059                                                                                                                              *          20170513IMF1705134.TXT
MDEUH5230057201705                D89828070300PT4U20170517000030SPEAKER ASM                   M IMCTM S9TS02 FTTL  07070IMCT  S9 PTB  00015                    2100 SR        000000000000 FUJITSU TEN (THAILAN160B95U0058058                                                                                                                              *          20170513IMF1705134.TXT
MDEUH5230058201705                D89828070300PT4U20170518000030SPEAKER ASM                   M IMCTM S9TS02 FTTL  07070IMCT  S9 PTB  00015                    0230 SR        000000000000 FUJITSU TEN (THAILAN18021TU0011011                                                                                                                              *          20170513IMF1705134.TXT
MDEUH5230059201705                D89828070300PT4U20170518000060SPEAKER ASM                   M IMCTM S9TS02 FTTL  07070IMCT  S9 PTB  00015                    0900 SR        000000000000 FUJITSU TEN (THAILAN18023TU0080081                                                                                                                              *          20170513IMF1705134.TXT
MDEUH5230060201705                D89828070300PT4U20170518000030SPEAKER ASM                   M IMCTM S9TS02 FTTL  07070IMCT  S9 PTB  00015                    1600 SR        000000000000 FUJITSU TEN (THAILAN18022TU0017017                                                                                                                              *          20170513IMF1705134.TXT
MDEUH5230061201705                D89828070300PT4U20170518000030SPEAKER ASM                   M IMCTM S9TS02 FTTL  07070IMCT  S9 PTB  00015                    2100 SR        000000000000 FUJITSU TEN (THAILAN160B95U0059059                                                                                                                              *          20170513IMF1705134.TXT
MDEUH5230062201705                D89836135900PT4U20170518000015RADIO;ASM DVD                 M IMCTM S9CO001FTTL  07070IMCT  S9 PTB  00003                    0230 SR        000000000000 FUJITSU TEN (THAILAN18021TU0011011                                                                                                                              *          20170513IMF1705134.TXT
