REC2017042920170429ISUZU                              52     
MDDDH4263977201705                D89821984430PT1D20170504000030RADIO;AM/FM,CD                M IMCTM S5NC06 FTTL  07070IMCT  S5 PTB  00005                    2230 SR        000000000000 FUJITSU TEN (THAILAN170KRAL0054054                                                                                                                              *          20170429IMF1704294.TXT
MDDDH4263978201705                D89821984430PT1D20170505000030RADIO;AM/FM,CD                M IMCTM S5NC06 FTTL  07070IMCT  S5 PTB  00005                    0400 SR        000000000000 FUJITSU TEN (THAILAN170KNCL0065065                                                                                                                              *          20170429IMF1704294.TXT
MDDDH4263979201705                D89821984430PT1D20170505000030RADIO;AM/FM,CD                M IMCTM S5NC06 FTTL  07070IMCT  S5 PTB  00005                    0900 SR        000000000000 FUJITSU TEN (THAILAN170KRAL0055055                                                                                                                              *          20170429IMF1704294.TXT
MDDDH4263980201705                D89821984430PT1D20170505000030RADIO;AM/FM,CD                M IMCTM S5NC06 FTTL  07070IMCT  S5 PTB  00005                    2100 SR        000000000000 FUJITSU TEN (THAILAN170KRAL0056056                                                                                                                              *          20170429IMF1704294.TXT
MDDDH4263981201705                D89825217910PT1D20170505000030RADIO;AM/FM,CD,D              M IMCTM S5NC06 FTTL  07070IMCT  S5 PTB  00003                    0400 SR        000000000000 FUJITSU TEN (THAILAN170KPJL0046046                                                                                                                              *          20170429IMF1704294.TXT
MDDDH4263982201705                D89828070100PV1D20170504000120SPEAKER ASM                   M IMCTM S5MB11 FTTL  07070IMCT  S5 PTB  00003                    2230 SR        000000000000 FUJITSU TEN (THAILAN170KRAL0054054170KRFL0073073                                                                                                                *          20170429IMF1704294.TXT
MDDDH4263983201705                D89828070100PV1D20170505000120SPEAKER ASM                   M IMCTM S5MB11 FTTL  07070IMCT  S5 PTB  00003                    0400 SR        000000000000 FUJITSU TEN (THAILAN170KNCL0065065170KPJL0046046                                                                                                                *          20170429IMF1704294.TXT
MDDDH4263984201705                D89828070100PV1D20170505000060SPEAKER ASM                   M IMCTM S5MB11 FTTL  07070IMCT  S5 PTB  00003                    0900 SR        000000000000 FUJITSU TEN (THAILAN170KRAL0055055                                                                                                                              *          20170429IMF1704294.TXT
MDDDH4263985201705                D89828070100PV1D20170505000120SPEAKER ASM                   M IMCTM S5MB11 FTTL  07070IMCT  S5 PTB  00003                    1300 SR        000000000000 FUJITSU TEN (THAILAN170KRDL0011011170KRJL0034034                                                                                                                *          20170429IMF1704294.TXT
MDDDH4263986201705                D89828070100PV1D20170505000060SPEAKER ASM                   M IMCTM S5MB11 FTTL  07070IMCT  S5 PTB  00003                    2100 SR        000000000000 FUJITSU TEN (THAILAN170KRAL0056056                                                                                                                              *          20170429IMF1704294.TXT
MDDDH4263987201705                D89828070200PV1D20170504000060SPEAKER ASM                   M IMCTM S5MA14 FTTL  07070IMCT  S5 PTB  00005                    2230 SR        000000000000 FUJITSU TEN (THAILAN170KRFL0073073                                                                                                                              *          20170429IMF1704294.TXT
MDDDH4263988201705                D89828070200PV1D20170505000120SPEAKER ASM                   M IMCTM S5MA14 FTTL  07070IMCT  S5 PTB  00005                    1300 SR        000000000000 FUJITSU TEN (THAILAN170KRDL0011011170KRJL0034034                                                                                                                *          20170429IMF1704294.TXT
MDDDH4263989201705                D89828070300PT1D20170504000060SPEAKER ASM                   M IMCTM S5NB082FTTL  07070IMCT  S5 PTB  00015                    2230 SR        000000000000 FUJITSU TEN (THAILAN170KRFL0073073                                                                                                                              *          20170429IMF1704294.TXT
MDDDH4263990201705                D89828070300PT1D20170505000060SPEAKER ASM                   M IMCTM S5NB082FTTL  07070IMCT  S5 PTB  00015                    0400 SR        000000000000 FUJITSU TEN (THAILAN170KPJL0046046                                                                                                                              *          20170429IMF1704294.TXT
MDDDH4263991201705                D89828070300PT1D20170505000120SPEAKER ASM                   M IMCTM S5NB082FTTL  07070IMCT  S5 PTB  00015                    1300 SR        000000000000 FUJITSU TEN (THAILAN170KRDL0011011170KRJL0034034                                                                                                                *          20170429IMF1704294.TXT
MDDDH4263992201705                D89829645910PT1D20170504000030RADIO;ASM DVD                 M IMCTM S5NC06 FTTL  07070IMCT  S5 CPB  00003                    2230 SR        000000000000 FUJITSU TEN (THAILAN170KRFL0073073                                                                                                                              *          20170429IMF1704294.TXT
MDDDH4263993201705                D89831228400PT1D20170505000030RADIO;AM/FM,CD                M IMCTM S5NC06 FTTL  07070IMCT  S5 CPB  00003                    1300 SR        000000000000 FUJITSU TEN (THAILAN170KRDL0011011                                                                                                                              *          20170429IMF1704294.TXT
MDDUH4252099201705                D89828070100PT4U20170505000030SPEAKER ASM                   M IMCTM S0FL05 FTTL  07070IMCT  S0 PTB  00003                    0230 SR        000000000000 FUJITSU TEN (THAILAN180LUDU0123123                                                                                                                              *          20170429IMF1704294.TXT
MDDUH4252100201705                D89828070100PT4U20170505000030SPEAKER ASM                   M IMCTM S0FL05 FTTL  07070IMCT  S0 PTB  00003                    0900 SR        000000000000 FUJITSU TEN (THAILAN180LUFU0020020                                                                                                                              *          20170429IMF1704294.TXT
MDDUH4252101201705                D89828070100PT4U20170505000030SPEAKER ASM                   M IMCTM S0FL05 FTTL  07070IMCT  S0 PTB  00003                    1600 SR        000000000000 FUJITSU TEN (THAILAN180LUDU0124124                                                                                                                              *          20170429IMF1704294.TXT
MDDUH4252102201705                D89828070200PV4U20170505000030SPEAKER ASM                   M IMCTM S0FR05 FTTL  07070IMCT  S0 PTB  00005                    0230 SR        000000000000 FUJITSU TEN (THAILAN180LUDU0123123                                                                                                                              *          20170429IMF1704294.TXT
MDDUH4252103201705                D89828070200PV4U20170505000030SPEAKER ASM                   M IMCTM S0FR05 FTTL  07070IMCT  S0 PTB  00005                    0900 SR        000000000000 FUJITSU TEN (THAILAN180LUFU0020020                                                                                                                              *          20170429IMF1704294.TXT
MDDUH4252104201705                D89828070200PV4U20170505000030SPEAKER ASM                   M IMCTM S0FR05 FTTL  07070IMCT  S0 PTB  00005                    1600 SR        000000000000 FUJITSU TEN (THAILAN180LUDU0124124                                                                                                                              *          20170429IMF1704294.TXT
MDDUH4252105201705                D89828070300PT4U20170505000030SPEAKER ASM                   M IMCTM S9TS02 FTTL  07070IMCT  S9 PTB  00015                    0230 SR        000000000000 FUJITSU TEN (THAILAN180LUDU0123123                                                                                                                              *          20170429IMF1704294.TXT
MDDUH4252106201705                D89828070300PT4U20170505000030SPEAKER ASM                   M IMCTM S9TS02 FTTL  07070IMCT  S9 PTB  00015                    0900 SR        000000000000 FUJITSU TEN (THAILAN180LUFU0020020                                                                                                                              *          20170429IMF1704294.TXT
MDDUH4252107201705                D89828070300PT4U20170505000030SPEAKER ASM                   M IMCTM S9TS02 FTTL  07070IMCT  S9 PTB  00015                    1600 SR        000000000000 FUJITSU TEN (THAILAN180LUDU0124124                                                                                                                              *          20170429IMF1704294.TXT
MDEDH4298944201705                D89805293700PV4D20170504000030SPEAKER ASM                   M IMCTM S0FR05 FTTL  07070IMCT  S0 PTB  00003                    2230 SR        000000000000 FUJITSU TEN (THAILAN15019FU0047047                                                                                                                              *          20170429IMF1704294.TXT
MDEDH4298945201705                D89805293700PV4D20170505000030SPEAKER ASM                   M IMCTM S0FR05 FTTL  07070IMCT  S0 PTB  00003                    0230 SR        000000000000 FUJITSU TEN (THAILAN15019FU0048048                                                                                                                              *          20170429IMF1704294.TXT
MDEDH4298946201705                D89828070100PV1D20170505000030SPEAKER ASM                   M IMCTM S5MB11 FTTL  07070IMCT  S5 PTB  00003                    0230 SR        000000000000 FUJITSU TEN (THAILAN17079QL0012012                                                                                                                              *          20170429IMF1704294.TXT
MDEDH4298947201705                D89828070100PV1D20170505000030SPEAKER ASM                   M IMCTM S5MB11 FTTL  07070IMCT  S5 PTB  00003                    0400 SR        000000000000 FUJITSU TEN (THAILAN17079QL0013013                                                                                                                              *          20170429IMF1704294.TXT
MDEDH4298948201705                D89828070100PV1D20170505000060SPEAKER ASM                   M IMCTM S5MB11 FTTL  07070IMCT  S5 PTB  00003                    0900 SR        000000000000 FUJITSU TEN (THAILAN17074NL0026027                                                                                                                              *          20170429IMF1704294.TXT
MDEDH4298949201705                D89828070100PV1D20170505000030SPEAKER ASM                   M IMCTM S5MB11 FTTL  07070IMCT  S5 PTB  00003                    1600 SR        000000000000 FUJITSU TEN (THAILAN17004ML0008008                                                                                                                              *          20170429IMF1704294.TXT
MDEDH4298950201705                D89828070100PV1D20170505000030SPEAKER ASM                   M IMCTM S5MB11 FTTL  07070IMCT  S5 PTB  00003                    2100 SR        000000000000 FUJITSU TEN (THAILAN17054ML0001001                                                                                                                              *          20170429IMF1704294.TXT
MDEDH4298951201705                D89828070100PV4D20170505000030SPEAKER ASM                   M IMCTM S0FL05 FTTL  07070IMCT  S0 PTB  00003                    0900 SR        000000000000 FUJITSU TEN (THAILAN17055NU0011011                                                                                                                              *          20170429IMF1704294.TXT
MDEDH4298952201705                D89828070100PV4D20170505000030SPEAKER ASM                   M IMCTM S0FL05 FTTL  07070IMCT  S0 PTB  00003                    1300 SR        000000000000 FUJITSU TEN (THAILAN17059NU0002002                                                                                                                              *          20170429IMF1704294.TXT
MDEDH4298953201705                D89828070100PV4D20170505000030SPEAKER ASM                   M IMCTM S0FL05 FTTL  07070IMCT  S0 PTB  00003                    2100 SR        000000000000 FUJITSU TEN (THAILAN17050MU0002002                                                                                                                              *          20170429IMF1704294.TXT
MDEDH4298954201705                D89828070200PV1D20170505000060SPEAKER ASM                   M IMCTM S5MA14 FTTL  07070IMCT  S5 PTB  00005                    0900 SR        000000000000 FUJITSU TEN (THAILAN17074NL0026027                                                                                                                              *          20170429IMF1704294.TXT
MDEDH4298955201705                D89828070200PV4D20170505000030SPEAKER ASM                   M IMCTM S0FR05 FTTL  07070IMCT  S0 PTB  00005                    1300 SR        000000000000 FUJITSU TEN (THAILAN17059NU0002002                                                                                                                              *          20170429IMF1704294.TXT
MDEDH4298956201705                D89828070300PT1D20170505000060SPEAKER ASM                   M IMCTM S5NB082FTTL  07070IMCT  S5 PTB  00015                    0900 SR        000000000000 FUJITSU TEN (THAILAN17074NL0026027                                                                                                                              *          20170429IMF1704294.TXT
MDEDH4298957201705                D89828070300PT4D20170505000030SPEAKER ASM                   M IMCTM S9TS02 FTTL  07070IMCT  S9 PTB  00015                    0900 SR        000000000000 FUJITSU TEN (THAILAN17055NU0011011                                                                                                                              *          20170429IMF1704294.TXT
MDEDH4298958201705                D89828070300PT4D20170505000030SPEAKER ASM                   M IMCTM S9TS02 FTTL  07070IMCT  S9 PTB  00015                    1300 SR        000000000000 FUJITSU TEN (THAILAN17059NU0002002                                                                                                                              *          20170429IMF1704294.TXT
MDEDH4298959201705                D89829645710PT1D20170505000030RADIO;ASM DVD                 M IMCTM S5NC06 FTTL  07070IMCT  S5 X    00003                    0900 SR        000000000000 FUJITSU TEN (THAILAN17074NL0026027                                                                                                                              *          20170429IMF1704294.TXT
MDEDH4298960201705                D89829645710PT4D20170505000015RADIO;ASM DVD                 M IMCTM S9CO001FTTL  07070IMCT  S9 X    00003                    0900 SR        000000000000 FUJITSU TEN (THAILAN17055NU0011011                                                                                                                              *          20170429IMF1704294.TXT
MDEUH4255269201705                D89828070100PT4U20170504000030SPEAKER ASM                   M IMCTM S0FL05 FTTL  07070IMCT  S0 PTB  00003                    2230 SR        000000000000 FUJITSU TEN (THAILAN160B94U0029029                                                                                                                              *          20170429IMF1704294.TXT
MDEUH4255270201705                D89828070100PT4U20170505000030SPEAKER ASM                   M IMCTM S0FL05 FTTL  07070IMCT  S0 PTB  00003                    0400 SR        000000000000 FUJITSU TEN (THAILAN160B95U0052052                                                                                                                              *          20170429IMF1704294.TXT
MDEUH4255271201705                D89828070100PT4U20170505000030SPEAKER ASM                   M IMCTM S0FL05 FTTL  07070IMCT  S0 PTB  00003                    1300 SR        000000000000 FUJITSU TEN (THAILAN18023TU0061061                                                                                                                              *          20170429IMF1704294.TXT
MDEUH4255272201705                D89828070200PV4U20170504000030SPEAKER ASM                   M IMCTM S0FR05 FTTL  07070IMCT  S0 PTB  00005                    2230 SR        000000000000 FUJITSU TEN (THAILAN160B94U0029029                                                                                                                              *          20170429IMF1704294.TXT
MDEUH4255273201705                D89828070200PV4U20170505000030SPEAKER ASM                   M IMCTM S0FR05 FTTL  07070IMCT  S0 PTB  00005                    0400 SR        000000000000 FUJITSU TEN (THAILAN160B95U0052052                                                                                                                              *          20170429IMF1704294.TXT
MDEUH4255274201705                D89828070200PV4U20170505000030SPEAKER ASM                   M IMCTM S0FR05 FTTL  07070IMCT  S0 PTB  00005                    1300 SR        000000000000 FUJITSU TEN (THAILAN18023TU0061061                                                                                                                              *          20170429IMF1704294.TXT
MDEUH4255275201705                D89828070300PT4U20170504000030SPEAKER ASM                   M IMCTM S9TS02 FTTL  07070IMCT  S9 PTB  00015                    2230 SR        000000000000 FUJITSU TEN (THAILAN160B94U0029029                                                                                                                              *          20170429IMF1704294.TXT
MDEUH4255276201705                D89828070300PT4U20170505000030SPEAKER ASM                   M IMCTM S9TS02 FTTL  07070IMCT  S9 PTB  00015                    0400 SR        000000000000 FUJITSU TEN (THAILAN160B95U0052052                                                                                                                              *          20170429IMF1704294.TXT
MDEUH4255277201705                D89828070300PT4U20170505000030SPEAKER ASM                   M IMCTM S9TS02 FTTL  07070IMCT  S9 PTB  00015                    1300 SR        000000000000 FUJITSU TEN (THAILAN18023TU0061061                                                                                                                              *          20170429IMF1704294.TXT
