REC2017051920170519ISUZU                              8      
MAD6H5601856201708                 89828070100PV5620170720000002SPEAKER ASM                   M IMCTM GT00000FTTL  07070G/WAY GT PTB  00003  DC                0000 GW        000000000000 FUJITSU TEN (THAILAN180L1BG0001001                                                                                                                              *P         20170519IMF1705191.TXT
MAD6H5601857201708                 89828070100PV5620170720000002SPEAKER ASM                   M IMCTM GT00000FTTL  07070G/WAY GT PTB  00003  DC                0000 GW        0000000000005FUJITSU TEN (THAILAN180L1AG0001001                                                                                                                              *P         20170519IMF1705191.TXT
MAD6H5601858201708                 89828070200PV5620170720000002SPEAKER ASM                   M IMCTM GT00000FTTL  07070G/WAY GT PTB  00005  DC                0000 GW        000000000000 FUJITSU TEN (THAILAN180L1BG0001001                                                                                                                              *P         20170519IMF1705191.TXT
MAD6H5601859201708                 89828070300PT5620170720000002SPEAKER ASM                   M IMCTM GT00000FTTL  07070G/WAY GT PTB  00015  DC                0000 GW        000000000000 FUJITSU TEN (THAILAN180L1BG0001001                                                                                                                              *P         20170519IMF1705191.TXT
MAD6H5601860201708                 89828070300PT5620170720000002SPEAKER ASM                   M IMCTM GT00000FTTL  07070G/WAY GT PTB  00015  DC                0000 GW        0000000000005FUJITSU TEN (THAILAN180L1AG0001001                                                                                                                              *P         20170519IMF1705191.TXT
MAE6H5601476201708                 89828070100PV5620170720000002SPEAKER ASM                   M IMCTM GT00000FTTL  07070G/WAY GT PTB  00003  DC                0000 GW        000000000000 FUJITSU TEN (THAILAN18002UG0001001                                                                                                                              *P         20170519IMF1705191.TXT
MAE6H5601477201708                 89828070200PV5620170720000002SPEAKER ASM                   M IMCTM GT00000FTTL  07070G/WAY GT PTB  00005  DC                0000 GW        000000000000 FUJITSU TEN (THAILAN18002UG0001001                                                                                                                              *P         20170519IMF1705191.TXT
MAE6H5601478201708                 89828070300PT5620170720000002SPEAKER ASM                   M IMCTM GT00000FTTL  07070G/WAY GT PTB  00015  DC                0000 GW        000000000000 FUJITSU TEN (THAILAN18002UG0001001                                                                                                                              *P         20170519IMF1705191.TXT
