REC2017053120170531ISUZU                              3      
MAEUH5600288201708                 89828070100PT4U20170703000002SPEAKER ASM                   M IMCTM ST00000FTTL  07070IMCT  ST PTB  00004  DC                0000 SR        000000000000 FUJITSU TEN (THAILAN18010VU0001001                                                                                                                              *P         20170531IMF1705312.TXT
MAEUH5600289201708                 89828070200PV4U20170703000002SPEAKER ASM                   M IMCTM ST00000FTTL  07070IMCT  ST PTB  00005  DC                0000 SR        000000000000 FUJITSU TEN (THAILAN18010VU0001001                                                                                                                              *P         20170531IMF1705312.TXT
MAEUH5600290201708                 89828070300PT4U20170703000002SPEAKER ASM                   M IMCTM ST00000FTTL  07070IMCT  ST PTB  00015  DC                0000 SR        000000000000 FUJITSU TEN (THAILAN18010VU0001001                                                                                                                              *P         20170531IMF1705312.TXT
