REC2017050420170504ISUZU                              60     
MDDDH5212896201705                D89821984430PT1D20170509000030RADIO;AM/FM,CD                M IMCTM S5NC06 FTTL  07070IMCT  S5 PTB  00005                    2230 SR        000000000000 FUJITSU TEN (THAILAN170KNDL0100100                                                                                                                              *          20170504IMF1705046.TXT
MDDDH5212897201705                D89821984430PT1D20170510000030RADIO;AM/FM,CD                M IMCTM S5NC06 FTTL  07070IMCT  S5 PTB  00005                    0400 SR        000000000000 FUJITSU TEN (THAILAN170KPAL0100100                                                                                                                              *          20170504IMF1705046.TXT
MDDDH5212898201705                D89821984430PT1D20170510000030RADIO;AM/FM,CD                M IMCTM S5NC06 FTTL  07070IMCT  S5 PTB  00005                    0900 SR        000000000000 FUJITSU TEN (THAILAN170KNDL0101101                                                                                                                              *          20170504IMF1705046.TXT
MDDDH5212899201705                D89821984430PT1D20170510000030RADIO;AM/FM,CD                M IMCTM S5NC06 FTTL  07070IMCT  S5 PTB  00005                    1600 SR        000000000000 FUJITSU TEN (THAILAN170KRAL0059059                                                                                                                              *          20170504IMF1705046.TXT
MDDDH5212900201705                D89828070100PV1D20170509000120SPEAKER ASM                   M IMCTM S5MB11 FTTL  07070IMCT  S5 PTB  00003                    2230 SR        000000000000 FUJITSU TEN (THAILAN170KNDL0100100170KRHL0027027                                                                                                                *          20170504IMF1705046.TXT
MDDDH5212901201705                D89828070100PV1D20170510000120SPEAKER ASM                   M IMCTM S5MB11 FTTL  07070IMCT  S5 PTB  00003                    0400 SR        000000000000 FUJITSU TEN (THAILAN170KPAL0100100170KPCL0057057                                                                                                                *          20170504IMF1705046.TXT
MDDDH5212902201705                D89828070100PV1D20170510000120SPEAKER ASM                   M IMCTM S5MB11 FTTL  07070IMCT  S5 PTB  00003                    0900 SR        000000000000 FUJITSU TEN (THAILAN170KNDL0101101170KRFL0075075                                                                                                                *          20170504IMF1705046.TXT
MDDDH5212903201705                D89828070100PV1D20170510000120SPEAKER ASM                   M IMCTM S5MB11 FTTL  07070IMCT  S5 PTB  00003                    1300 SR        000000000000 FUJITSU TEN (THAILAN170KPFL0150150170KRRL0021021                                                                                                                *          20170504IMF1705046.TXT
MDDDH5212904201705                D89828070100PV1D20170510000060SPEAKER ASM                   M IMCTM S5MB11 FTTL  07070IMCT  S5 PTB  00003                    1600 SR        000000000000 FUJITSU TEN (THAILAN170KRAL0059059                                                                                                                              *          20170504IMF1705046.TXT
MDDDH5212905201705                D89828070100PV1D20170510000060SPEAKER ASM                   M IMCTM S5MB11 FTTL  07070IMCT  S5 PTB  00003                    2230 SR        000000000000 FUJITSU TEN (THAILAN170KPFL0151151                                                                                                                              *          20170504IMF1705046.TXT
MDDDH5212906201705                D89828070100PV4D20170509000060SPEAKER ASM                   M IMCTM S0FL05 FTTL  07070IMCT  S0 PTB  00003                    2230 SR        000000000000 FUJITSU TEN (THAILAN170KPFU0011011                                                                                                                              *          20170504IMF1705046.TXT
MDDDH5212907201705                D89828070200PV1D20170509000060SPEAKER ASM                   M IMCTM S5MA14 FTTL  07070IMCT  S5 PTB  00005                    2230 SR        000000000000 FUJITSU TEN (THAILAN170KRHL0027027                                                                                                                              *          20170504IMF1705046.TXT
MDDDH5212908201705                D89828070200PV1D20170510000060SPEAKER ASM                   M IMCTM S5MA14 FTTL  07070IMCT  S5 PTB  00005                    0900 SR        000000000000 FUJITSU TEN (THAILAN170KRFL0075075                                                                                                                              *          20170504IMF1705046.TXT
MDDDH5212909201705                D89828070200PV1D20170510000060SPEAKER ASM                   M IMCTM S5MA14 FTTL  07070IMCT  S5 PTB  00005                    1300 SR        000000000000 FUJITSU TEN (THAILAN170KRRL0021021                                                                                                                              *          20170504IMF1705046.TXT
MDDDH5212910201705                D89828070300PT1D20170509000060SPEAKER ASM                   M IMCTM S5NB082FTTL  07070IMCT  S5 PTB  00015                    2230 SR        000000000000 FUJITSU TEN (THAILAN170KRHL0027027                                                                                                                              *          20170504IMF1705046.TXT
MDDDH5212911201705                D89828070300PT1D20170510000060SPEAKER ASM                   M IMCTM S5NB082FTTL  07070IMCT  S5 PTB  00015                    0400 SR        000000000000 FUJITSU TEN (THAILAN170KPCL0057057                                                                                                                              *          20170504IMF1705046.TXT
MDDDH5212912201705                D89828070300PT1D20170510000060SPEAKER ASM                   M IMCTM S5NB082FTTL  07070IMCT  S5 PTB  00015                    0900 SR        000000000000 FUJITSU TEN (THAILAN170KRFL0075075                                                                                                                              *          20170504IMF1705046.TXT
MDDDH5212913201705                D89828070300PT1D20170510000120SPEAKER ASM                   M IMCTM S5NB082FTTL  07070IMCT  S5 PTB  00015                    1300 SR        000000000000 FUJITSU TEN (THAILAN170KPFL0150150170KRRL0021021                                                                                                                *          20170504IMF1705046.TXT
MDDDH5212914201705                D89828070300PT1D20170510000060SPEAKER ASM                   M IMCTM S5NB082FTTL  07070IMCT  S5 PTB  00015                    2230 SR        000000000000 FUJITSU TEN (THAILAN170KPFL0151151                                                                                                                              *          20170504IMF1705046.TXT
MDDDH5212915201705                D89828070300PT4D20170509000060SPEAKER ASM                   M IMCTM S9TS02 FTTL  07070IMCT  S9 PTB  00015                    2230 SR        000000000000 FUJITSU TEN (THAILAN170KPFU0011011                                                                                                                              *          20170504IMF1705046.TXT
MDDDH5212916201705                D89829645910PT1D20170510000030RADIO;ASM DVD                 M IMCTM S5NC06 FTTL  07070IMCT  S5 CPB  00003                    0900 SR        000000000000 FUJITSU TEN (THAILAN170KRFL0075075                                                                                                                              *          20170504IMF1705046.TXT
MDDDH5212917201705                D89831228300PT1D20170510000030RADIO;AM/FM,CD                M IMCTM S5NC06 FTTL  07070IMCT  S5 CPB  00003                    0400 SR        000000000000 FUJITSU TEN (THAILAN170KPCL0057057                                                                                                                              *          20170504IMF1705046.TXT
MDDDH5212918201705                D89831228300PT1D20170510000030RADIO;AM/FM,CD                M IMCTM S5NC06 FTTL  07070IMCT  S5 CPB  00003                    1300 SR        000000000000 FUJITSU TEN (THAILAN170KPFL0150150                                                                                                                              *          20170504IMF1705046.TXT
MDDDH5212919201705                D89831228300PT1D20170510000030RADIO;AM/FM,CD                M IMCTM S5NC06 FTTL  07070IMCT  S5 CPB  00003                    2230 SR        000000000000 FUJITSU TEN (THAILAN170KPFL0151151                                                                                                                              *          20170504IMF1705046.TXT
MDDDH5212920201705                D89831228300PT4D20170509000030RADIO;AM/FM,CD                M IMCTM S9CO001FTTL  07070IMCT  S9 CPB  00003                    2230 SR        000000000000 FUJITSU TEN (THAILAN170KPFU0011011                                                                                                                              *          20170504IMF1705046.TXT
MDDUH5203863201705                D89828070100PT4U20170510000030SPEAKER ASM                   M IMCTM S0FL05 FTTL  07070IMCT  S0 PTB  00003                    0230 SR        000000000000 FUJITSU TEN (THAILAN180LUDU0128128                                                                                                                              *          20170504IMF1705046.TXT
MDDUH5203864201705                D89828070100PT4U20170510000030SPEAKER ASM                   M IMCTM S0FL05 FTTL  07070IMCT  S0 PTB  00003                    2100 SR        000000000000 FUJITSU TEN (THAILAN180LUFU0021021                                                                                                                              *          20170504IMF1705046.TXT
MDDUH5203865201705                D89828070200PV4U20170510000030SPEAKER ASM                   M IMCTM S0FR05 FTTL  07070IMCT  S0 PTB  00005                    0230 SR        000000000000 FUJITSU TEN (THAILAN180LUDU0128128                                                                                                                              *          20170504IMF1705046.TXT
MDDUH5203866201705                D89828070200PV4U20170510000030SPEAKER ASM                   M IMCTM S0FR05 FTTL  07070IMCT  S0 PTB  00005                    2100 SR        000000000000 FUJITSU TEN (THAILAN180LUFU0021021                                                                                                                              *          20170504IMF1705046.TXT
MDDUH5203867201705                D89828070300PT4U20170510000030SPEAKER ASM                   M IMCTM S9TS02 FTTL  07070IMCT  S9 PTB  00015                    0230 SR        000000000000 FUJITSU TEN (THAILAN180LUDU0128128                                                                                                                              *          20170504IMF1705046.TXT
MDDUH5203868201705                D89828070300PT4U20170510000030SPEAKER ASM                   M IMCTM S9TS02 FTTL  07070IMCT  S9 PTB  00015                    2100 SR        000000000000 FUJITSU TEN (THAILAN180LUFU0021021                                                                                                                              *          20170504IMF1705046.TXT
MDEDH5208650201705                D89828070100PV1D20170509000030SPEAKER ASM                   M IMCTM S5MB11 FTTL  07070IMCT  S5 PTB  00003                    2230 SR        000000000000 FUJITSU TEN (THAILAN17032NL0010010                                                                                                                              *          20170504IMF1705046.TXT
MDEDH5208651201705                D89828070100PV1D20170510000030SPEAKER ASM                   M IMCTM S5MB11 FTTL  07070IMCT  S5 PTB  00003                    0230 SR        000000000000 FUJITSU TEN (THAILAN17015PL0008008                                                                                                                              *          20170504IMF1705046.TXT
MDEDH5208652201705                D89828070100PV1D20170510000030SPEAKER ASM                   M IMCTM S5MB11 FTTL  07070IMCT  S5 PTB  00003                    0900 SR        000000000000 FUJITSU TEN (THAILAN17081QL0001001                                                                                                                              *          20170504IMF1705046.TXT
MDEDH5208653201705                D89828070100PV1D20170510000030SPEAKER ASM                   M IMCTM S5MB11 FTTL  07070IMCT  S5 PTB  00003                    2100 SR        000000000000 FUJITSU TEN (THAILAN17022ML0021021                                                                                                                              *          20170504IMF1705046.TXT
MDEDH5208654201705                D89828070100PV4D20170510000030SPEAKER ASM                   M IMCTM S0FL05 FTTL  07070IMCT  S0 PTB  00003                    0230 SR        000000000000 FUJITSU TEN (THAILAN17034PU0028028                                                                                                                              *          20170504IMF1705046.TXT
MDEDH5208655201705                D89828070100PV4D20170510000030SPEAKER ASM                   M IMCTM S0FL05 FTTL  07070IMCT  S0 PTB  00003                    0900 SR        000000000000 FUJITSU TEN (THAILAN17034PU0029029                                                                                                                              *          20170504IMF1705046.TXT
MDEDH5208656201705                D89828070100PV4D20170510000030SPEAKER ASM                   M IMCTM S0FL05 FTTL  07070IMCT  S0 PTB  00003                    1600 SR        000000000000 FUJITSU TEN (THAILAN17059NU0003003                                                                                                                              *          20170504IMF1705046.TXT
MDEDH5208657201705                D89828070200PV1D20170509000030SPEAKER ASM                   M IMCTM S5MA14 FTTL  07070IMCT  S5 PTB  00005                    2230 SR        000000000000 FUJITSU TEN (THAILAN17032NL0010010                                                                                                                              *          20170504IMF1705046.TXT
MDEDH5208658201705                D89828070200PV1D20170510000030SPEAKER ASM                   M IMCTM S5MA14 FTTL  07070IMCT  S5 PTB  00005                    0230 SR        000000000000 FUJITSU TEN (THAILAN17015PL0008008                                                                                                                              *          20170504IMF1705046.TXT
MDEDH5208659201705                D89828070200PV1D20170510000030SPEAKER ASM                   M IMCTM S5MA14 FTTL  07070IMCT  S5 PTB  00005                    0900 SR        000000000000 FUJITSU TEN (THAILAN17081QL0001001                                                                                                                              *          20170504IMF1705046.TXT
MDEDH5208660201705                D89828070200PV1D20170510000030SPEAKER ASM                   M IMCTM S5MA14 FTTL  07070IMCT  S5 PTB  00005                    2100 SR        000000000000 FUJITSU TEN (THAILAN17022ML0021021                                                                                                                              *          20170504IMF1705046.TXT
MDEDH5208661201705                D89828070200PV4D20170510000030SPEAKER ASM                   M IMCTM S0FR05 FTTL  07070IMCT  S0 PTB  00005                    0230 SR        000000000000 FUJITSU TEN (THAILAN17034PU0028028                                                                                                                              *          20170504IMF1705046.TXT
MDEDH5208662201705                D89828070200PV4D20170510000030SPEAKER ASM                   M IMCTM S0FR05 FTTL  07070IMCT  S0 PTB  00005                    0900 SR        000000000000 FUJITSU TEN (THAILAN17034PU0029029                                                                                                                              *          20170504IMF1705046.TXT
MDEDH5208663201705                D89828070200PV4D20170510000030SPEAKER ASM                   M IMCTM S0FR05 FTTL  07070IMCT  S0 PTB  00005                    1600 SR        000000000000 FUJITSU TEN (THAILAN17059NU0003003                                                                                                                              *          20170504IMF1705046.TXT
MDEDH5208664201705                D89828070300PT1D20170509000030SPEAKER ASM                   M IMCTM S5NB082FTTL  07070IMCT  S5 PTB  00015                    2230 SR        000000000000 FUJITSU TEN (THAILAN17032NL0010010                                                                                                                              *          20170504IMF1705046.TXT
MDEDH5208665201705                D89828070300PT1D20170510000030SPEAKER ASM                   M IMCTM S5NB082FTTL  07070IMCT  S5 PTB  00015                    0230 SR        000000000000 FUJITSU TEN (THAILAN17015PL0008008                                                                                                                              *          20170504IMF1705046.TXT
MDEDH5208666201705                D89828070300PT1D20170510000030SPEAKER ASM                   M IMCTM S5NB082FTTL  07070IMCT  S5 PTB  00015                    0900 SR        000000000000 FUJITSU TEN (THAILAN17081QL0001001                                                                                                                              *          20170504IMF1705046.TXT
MDEDH5208667201705                D89828070300PT1D20170510000030SPEAKER ASM                   M IMCTM S5NB082FTTL  07070IMCT  S5 PTB  00015                    2100 SR        000000000000 FUJITSU TEN (THAILAN17022ML0021021                                                                                                                              *          20170504IMF1705046.TXT
MDEDH5208668201705                D89828070300PT4D20170510000030SPEAKER ASM                   M IMCTM S9TS02 FTTL  07070IMCT  S9 PTB  00015                    0230 SR        000000000000 FUJITSU TEN (THAILAN17034PU0028028                                                                                                                              *          20170504IMF1705046.TXT
MDEDH5208669201705                D89828070300PT4D20170510000030SPEAKER ASM                   M IMCTM S9TS02 FTTL  07070IMCT  S9 PTB  00015                    0900 SR        000000000000 FUJITSU TEN (THAILAN17034PU0029029                                                                                                                              *          20170504IMF1705046.TXT
MDEDH5208670201705                D89828070300PT4D20170510000030SPEAKER ASM                   M IMCTM S9TS02 FTTL  07070IMCT  S9 PTB  00015                    1600 SR        000000000000 FUJITSU TEN (THAILAN17059NU0003003                                                                                                                              *          20170504IMF1705046.TXT
MDEDH5208671201705                D89829645310PT1D20170510000015RADIO;ASM DVD                 M IMCTM S5NC06 FTTL  07070IMCT  S5 PTB  00003                    0230 SR        000000000000 FUJITSU TEN (THAILAN17015PL0008008                                                                                                                              *          20170504IMF1705046.TXT
MDEDH5208672201705                D89831229000PT1D20170510000015RADIO;AM/FM,CD                M IMCTM S5NC06 FTTL  07070IMCT  S5 PTB  00003                    0900 SR        000000000000 FUJITSU TEN (THAILAN17081QL0001001                                                                                                                              *          20170504IMF1705046.TXT
MDEUH5208488201705                D89828070100PT4U20170510000030SPEAKER ASM                   M IMCTM S0FL05 FTTL  07070IMCT  S0 PTB  00003                    0900 SR        000000000000 FUJITSU TEN (THAILAN18017TU0006006                                                                                                                              *          20170504IMF1705046.TXT
MDEUH5208489201705                D89828070100PT4U20170510000060SPEAKER ASM                   M IMCTM S0FL05 FTTL  07070IMCT  S0 PTB  00003                    1300 SR        000000000000 FUJITSU TEN (THAILAN18017TU000700718023TU0069069                                                                                                                *          20170504IMF1705046.TXT
MDEUH5208490201705                D89828070200PV4U20170510000030SPEAKER ASM                   M IMCTM S0FR05 FTTL  07070IMCT  S0 PTB  00005                    0900 SR        000000000000 FUJITSU TEN (THAILAN18017TU0006006                                                                                                                              *          20170504IMF1705046.TXT
MDEUH5208491201705                D89828070200PV4U20170510000060SPEAKER ASM                   M IMCTM S0FR05 FTTL  07070IMCT  S0 PTB  00005                    1300 SR        000000000000 FUJITSU TEN (THAILAN18017TU000700718023TU0069069                                                                                                                *          20170504IMF1705046.TXT
MDEUH5208492201705                D89828070300PT4U20170510000030SPEAKER ASM                   M IMCTM S9TS02 FTTL  07070IMCT  S9 PTB  00015                    0900 SR        000000000000 FUJITSU TEN (THAILAN18017TU0006006                                                                                                                              *          20170504IMF1705046.TXT
MDEUH5208493201705                D89828070300PT4U20170510000060SPEAKER ASM                   M IMCTM S9TS02 FTTL  07070IMCT  S9 PTB  00015                    1300 SR        000000000000 FUJITSU TEN (THAILAN18017TU000700718023TU0069069                                                                                                                *          20170504IMF1705046.TXT
