REC2017051120170512ISUZU                              3      
MADUH5600278201707                 89828070100PT4U20170705000004SPEAKER ASM                   M IMCTM ST00000FTTL  07070IMCT  ST PTB  00003  DC                0000 SR        000000000000 FUJITSU TEN (THAILAN180L5JU0003004                                                                                                                              *P         20170511IMF1705119.TXT
MADUH5600279201707                 89828070200PV4U20170705000004SPEAKER ASM                   M IMCTM ST00000FTTL  07070IMCT  ST PTB  00005  DC                0000 SR        000000000000 FUJITSU TEN (THAILAN180L5JU0003004                                                                                                                              *P         20170511IMF1705119.TXT
MADUH5600280201707                 89828070300PT4U20170705000004SPEAKER ASM                   M IMCTM ST00000FTTL  07070IMCT  ST PTB  00015  DC                0000 SR        000000000000 FUJITSU TEN (THAILAN180L5JU0003004                                                                                                                              *P         20170511IMF1705119.TXT
