REC2017051020170510ISUZU                              65     
MDDDH5235690201705                D89821984430PT1D20170513000030RADIO;AM/FM,CD                M IMCTM S5NC06 FTTL  07070IMCT  S5 PTB  00005                    2230 SR        000000000000 FUJITSU TEN (THAILAN170KNCL0070070                                                                                                                              *          20170510IMF1705104.TXT
MDDDH5235691201705                D89821984430PT1D20170514000030RADIO;AM/FM,CD                M IMCTM S5NC06 FTTL  07070IMCT  S5 PTB  00005                    0400 SR        000000000000 FUJITSU TEN (THAILAN170KNDL0105105                                                                                                                              *          20170510IMF1705104.TXT
MDDDH5235692201705                D89821984430PT1D20170515000030RADIO;AM/FM,CD                M IMCTM S5NC06 FTTL  07070IMCT  S5 PTB  00005                    0900 SR        000000000000 FUJITSU TEN (THAILAN170KRAL0066066                                                                                                                              *          20170510IMF1705104.TXT
MDDDH5235693201705                D89825217910PT1D20170515000030RADIO;AM/FM,CD,D              M IMCTM S5NC06 FTTL  07070IMCT  S5 PTB  00003                    2100 SR        000000000000 FUJITSU TEN (THAILAN170KPKL0014014                                                                                                                              *          20170510IMF1705104.TXT
MDDDH5235694201705                D89828070100PV1D20170513000120SPEAKER ASM                   M IMCTM S5MB11 FTTL  07070IMCT  S5 PTB  00003                    2230 SR        000000000000 FUJITSU TEN (THAILAN170KNCL0070070170KRFL0078078                                                                                                                *          20170510IMF1705104.TXT
MDDDH5235695201705                D89828070100PV1D20170514000120SPEAKER ASM                   M IMCTM S5MB11 FTTL  07070IMCT  S5 PTB  00003                    0400 SR        000000000000 FUJITSU TEN (THAILAN170KNDL0105105170KRFL0079079                                                                                                                *          20170510IMF1705104.TXT
MDDDH5235696201705                D89828070100PV1D20170515000120SPEAKER ASM                   M IMCTM S5MB11 FTTL  07070IMCT  S5 PTB  00003                    0900 SR        000000000000 FUJITSU TEN (THAILAN170KPDL0007007170KRAL0066066                                                                                                                *          20170510IMF1705104.TXT
MDDDH5235697201705                D89828070100PV1D20170515000060SPEAKER ASM                   M IMCTM S5MB11 FTTL  07070IMCT  S5 PTB  00003                    1300 SR        000000000000 FUJITSU TEN (THAILAN170KRCL0031031                                                                                                                              *          20170510IMF1705104.TXT
MDDDH5235698201705                D89828070100PV1D20170515000060SPEAKER ASM                   M IMCTM S5MB11 FTTL  07070IMCT  S5 PTB  00003                    1600 SR        000000000000 FUJITSU TEN (THAILAN170KNAL0050050                                                                                                                              *          20170510IMF1705104.TXT
MDDDH5235699201705                D89828070100PV1D20170515000060SPEAKER ASM                   M IMCTM S5MB11 FTTL  07070IMCT  S5 PTB  00003                    2100 SR        000000000000 FUJITSU TEN (THAILAN170KPKL0014014                                                                                                                              *          20170510IMF1705104.TXT
MDDDH5235700201705                D89828070200PV1D20170513000060SPEAKER ASM                   M IMCTM S5MA14 FTTL  07070IMCT  S5 PTB  00005                    2230 SR        000000000000 FUJITSU TEN (THAILAN170KRFL0078078                                                                                                                              *          20170510IMF1705104.TXT
MDDDH5235701201705                D89828070200PV1D20170514000060SPEAKER ASM                   M IMCTM S5MA14 FTTL  07070IMCT  S5 PTB  00005                    0400 SR        000000000000 FUJITSU TEN (THAILAN170KRFL0079079                                                                                                                              *          20170510IMF1705104.TXT
MDDDH5235702201705                D89828070200PV1D20170515000060SPEAKER ASM                   M IMCTM S5MA14 FTTL  07070IMCT  S5 PTB  00005                    1300 SR        000000000000 FUJITSU TEN (THAILAN170KRCL0031031                                                                                                                              *          20170510IMF1705104.TXT
MDDDH5235703201705                D89828070300PT1D20170513000060SPEAKER ASM                   M IMCTM S5NB082FTTL  07070IMCT  S5 PTB  00015                    2230 SR        000000000000 FUJITSU TEN (THAILAN170KRFL0078078                                                                                                                              *          20170510IMF1705104.TXT
MDDDH5235704201705                D89828070300PT1D20170514000060SPEAKER ASM                   M IMCTM S5NB082FTTL  07070IMCT  S5 PTB  00015                    0400 SR        000000000000 FUJITSU TEN (THAILAN170KRFL0079079                                                                                                                              *          20170510IMF1705104.TXT
MDDDH5235705201705                D89828070300PT1D20170515000060SPEAKER ASM                   M IMCTM S5NB082FTTL  07070IMCT  S5 PTB  00015                    0900 SR        000000000000 FUJITSU TEN (THAILAN170KPDL0007007                                                                                                                              *          20170510IMF1705104.TXT
MDDDH5235706201705                D89828070300PT1D20170515000060SPEAKER ASM                   M IMCTM S5NB082FTTL  07070IMCT  S5 PTB  00015                    1300 SR        000000000000 FUJITSU TEN (THAILAN170KRCL0031031                                                                                                                              *          20170510IMF1705104.TXT
MDDDH5235707201705                D89828070300PT1D20170515000060SPEAKER ASM                   M IMCTM S5NB082FTTL  07070IMCT  S5 PTB  00015                    2100 SR        000000000000 FUJITSU TEN (THAILAN170KPKL0014014                                                                                                                              *          20170510IMF1705104.TXT
MDDDH5235708201705                D89829645910PT1D20170513000030RADIO;ASM DVD                 M IMCTM S5NC06 FTTL  07070IMCT  S5 CPB  00003                    2230 SR        000000000000 FUJITSU TEN (THAILAN170KRFL0078078                                                                                                                              *          20170510IMF1705104.TXT
MDDDH5235709201705                D89829645910PT1D20170514000030RADIO;ASM DVD                 M IMCTM S5NC06 FTTL  07070IMCT  S5 CPB  00003                    0400 SR        000000000000 FUJITSU TEN (THAILAN170KRFL0079079                                                                                                                              *          20170510IMF1705104.TXT
MDDDH5235710201705                D89831228300PT1D20170515000030RADIO;AM/FM,CD                M IMCTM S5NC06 FTTL  07070IMCT  S5 CPB  00003                    0900 SR        000000000000 FUJITSU TEN (THAILAN170KPDL0007007                                                                                                                              *          20170510IMF1705104.TXT
MDDDH5235711201705                D89831228400PT1D20170515000030RADIO;AM/FM,CD                M IMCTM S5NC06 FTTL  07070IMCT  S5 CPB  00003                    1300 SR        000000000000 FUJITSU TEN (THAILAN170KRCL0031031                                                                                                                              *          20170510IMF1705104.TXT
MDDUH5213915201705                D89828070100PT4U20170513000030SPEAKER ASM                   M IMCTM S0FL05 FTTL  07070IMCT  S0 PTB  00003                    2100 SR        000000000000 FUJITSU TEN (THAILAN180LUDU0138138                                                                                                                              *          20170510IMF1705104.TXT
MDDUH5213916201705                D89828070100PT4U20170514000030SPEAKER ASM                   M IMCTM S0FL05 FTTL  07070IMCT  S0 PTB  00003                    0400 SR        000000000000 FUJITSU TEN (THAILAN180LUEU0075075                                                                                                                              *          20170510IMF1705104.TXT
MDDUH5213917201705                D89828070100PT4U20170515000030SPEAKER ASM                   M IMCTM S0FL05 FTTL  07070IMCT  S0 PTB  00003                    0900 SR        000000000000 FUJITSU TEN (THAILAN180LUDU0139139                                                                                                                              *          20170510IMF1705104.TXT
MDDUH5213918201705                D89828070100PT4U20170515000030SPEAKER ASM                   M IMCTM S0FL05 FTTL  07070IMCT  S0 PTB  00003                    1300 SR        000000000000 FUJITSU TEN (THAILAN180LUEU0076076                                                                                                                              *          20170510IMF1705104.TXT
MDDUH5213919201705                D89828070200PV4U20170513000030SPEAKER ASM                   M IMCTM S0FR05 FTTL  07070IMCT  S0 PTB  00005                    2100 SR        000000000000 FUJITSU TEN (THAILAN180LUDU0138138                                                                                                                              *          20170510IMF1705104.TXT
MDDUH5213920201705                D89828070200PV4U20170514000030SPEAKER ASM                   M IMCTM S0FR05 FTTL  07070IMCT  S0 PTB  00005                    0400 SR        000000000000 FUJITSU TEN (THAILAN180LUEU0075075                                                                                                                              *          20170510IMF1705104.TXT
MDDUH5213921201705                D89828070200PV4U20170515000030SPEAKER ASM                   M IMCTM S0FR05 FTTL  07070IMCT  S0 PTB  00005                    0900 SR        000000000000 FUJITSU TEN (THAILAN180LUDU0139139                                                                                                                              *          20170510IMF1705104.TXT
MDDUH5213922201705                D89828070200PV4U20170515000030SPEAKER ASM                   M IMCTM S0FR05 FTTL  07070IMCT  S0 PTB  00005                    1300 SR        000000000000 FUJITSU TEN (THAILAN180LUEU0076076                                                                                                                              *          20170510IMF1705104.TXT
MDDUH5213923201705                D89828070300PT4U20170513000030SPEAKER ASM                   M IMCTM S9TS02 FTTL  07070IMCT  S9 PTB  00015                    2100 SR        000000000000 FUJITSU TEN (THAILAN180LUDU0138138                                                                                                                              *          20170510IMF1705104.TXT
MDDUH5213924201705                D89828070300PT4U20170514000030SPEAKER ASM                   M IMCTM S9TS02 FTTL  07070IMCT  S9 PTB  00015                    0400 SR        000000000000 FUJITSU TEN (THAILAN180LUEU0075075                                                                                                                              *          20170510IMF1705104.TXT
MDDUH5213925201705                D89828070300PT4U20170515000030SPEAKER ASM                   M IMCTM S9TS02 FTTL  07070IMCT  S9 PTB  00015                    0900 SR        000000000000 FUJITSU TEN (THAILAN180LUDU0139139                                                                                                                              *          20170510IMF1705104.TXT
MDDUH5213926201705                D89828070300PT4U20170515000030SPEAKER ASM                   M IMCTM S9TS02 FTTL  07070IMCT  S9 PTB  00015                    1300 SR        000000000000 FUJITSU TEN (THAILAN180LUEU0076076                                                                                                                              *          20170510IMF1705104.TXT
MDEDH5226293201705                D89805293700PV4D20170514000030SPEAKER ASM                   M IMCTM S0FR05 FTTL  07070IMCT  S0 PTB  00003                    0230 SR        000000000000 FUJITSU TEN (THAILAN15018FU0037037                                                                                                                              *          20170510IMF1705104.TXT
MDEDH5226294201705                D89805293700PV4D20170515000030SPEAKER ASM                   M IMCTM S0FR05 FTTL  07070IMCT  S0 PTB  00003                    1600 SR        000000000000 FUJITSU TEN (THAILAN15018FU0038038                                                                                                                              *          20170510IMF1705104.TXT
MDEDH5226295201705                D89828070100PV1D20170514000030SPEAKER ASM                   M IMCTM S5MB11 FTTL  07070IMCT  S5 PTB  00003                    0230 SR        000000000000 FUJITSU TEN (THAILAN17050RL0006006                                                                                                                              *          20170510IMF1705104.TXT
MDEDH5226296201705                D89828070100PV1D20170514000030SPEAKER ASM                   M IMCTM S5MB11 FTTL  07070IMCT  S5 PTB  00003                    0400 SR        000000000000 FUJITSU TEN (THAILAN17050RL0007007                                                                                                                              *          20170510IMF1705104.TXT
MDEDH5226297201705                D89828070100PV1D20170515000030SPEAKER ASM                   M IMCTM S5MB11 FTTL  07070IMCT  S5 PTB  00003                    1300 SR        000000000000 FUJITSU TEN (THAILAN17063ML0006006                                                                                                                              *          20170510IMF1705104.TXT
MDEDH5226298201705                D89828070100PV1D20170515000030SPEAKER ASM                   M IMCTM S5MB11 FTTL  07070IMCT  S5 PTB  00003                    1600 SR        000000000000 FUJITSU TEN (THAILAN17077ML0004004                                                                                                                              *          20170510IMF1705104.TXT
MDEDH5226299201705                D89828070100PV4D20170515000030SPEAKER ASM                   M IMCTM S0FL05 FTTL  07070IMCT  S0 PTB  00003                    0900 SR        000000000000 FUJITSU TEN (THAILAN17057NU0002002                                                                                                                              *          20170510IMF1705104.TXT
MDEDH5226300201705                D89828070100PV4D20170515000030SPEAKER ASM                   M IMCTM S0FL05 FTTL  07070IMCT  S0 PTB  00003                    1300 SR        000000000000 FUJITSU TEN (THAILAN17064NU0005005                                                                                                                              *          20170510IMF1705104.TXT
MDEDH5226301201705                D89828070200PV1D20170514000030SPEAKER ASM                   M IMCTM S5MA14 FTTL  07070IMCT  S5 PTB  00005                    0230 SR        000000000000 FUJITSU TEN (THAILAN17050RL0006006                                                                                                                              *          20170510IMF1705104.TXT
MDEDH5226302201705                D89828070200PV1D20170514000030SPEAKER ASM                   M IMCTM S5MA14 FTTL  07070IMCT  S5 PTB  00005                    0400 SR        000000000000 FUJITSU TEN (THAILAN17050RL0007007                                                                                                                              *          20170510IMF1705104.TXT
MDEDH5226303201705                D89828070200PV4D20170515000030SPEAKER ASM                   M IMCTM S0FR05 FTTL  07070IMCT  S0 PTB  00005                    0900 SR        000000000000 FUJITSU TEN (THAILAN17057NU0002002                                                                                                                              *          20170510IMF1705104.TXT
MDEDH5226304201705                D89828070300PT1D20170514000030SPEAKER ASM                   M IMCTM S5NB082FTTL  07070IMCT  S5 PTB  00015                    0230 SR        000000000000 FUJITSU TEN (THAILAN17050RL0006006                                                                                                                              *          20170510IMF1705104.TXT
MDEDH5226305201705                D89828070300PT1D20170514000030SPEAKER ASM                   M IMCTM S5NB082FTTL  07070IMCT  S5 PTB  00015                    0400 SR        000000000000 FUJITSU TEN (THAILAN17050RL0007007                                                                                                                              *          20170510IMF1705104.TXT
MDEDH5226306201705                D89828070300PT1D20170515000030SPEAKER ASM                   M IMCTM S5NB082FTTL  07070IMCT  S5 PTB  00015                    1300 SR        000000000000 FUJITSU TEN (THAILAN17063ML0006006                                                                                                                              *          20170510IMF1705104.TXT
MDEDH5226307201705                D89828070300PT4D20170515000030SPEAKER ASM                   M IMCTM S9TS02 FTTL  07070IMCT  S9 PTB  00015                    0900 SR        000000000000 FUJITSU TEN (THAILAN17057NU0002002                                                                                                                              *          20170510IMF1705104.TXT
MDEDH5226308201705                D89828070300PT4D20170515000030SPEAKER ASM                   M IMCTM S9TS02 FTTL  07070IMCT  S9 PTB  00015                    1300 SR        000000000000 FUJITSU TEN (THAILAN17064NU0005005                                                                                                                              *          20170510IMF1705104.TXT
MDEDH5226309201705                D89829645410PT1D20170514000015RADIO;ASM DVD                 M IMCTM S5NC06 FTTL  07070IMCT  S5 PTB  00003                    0230 SR        000000000000 FUJITSU TEN (THAILAN17050RL0006006                                                                                                                              *          20170510IMF1705104.TXT
MDEDH5226310201705                D89829645410PT1D20170514000015RADIO;ASM DVD                 M IMCTM S5NC06 FTTL  07070IMCT  S5 PTB  00003                    0400 SR        000000000000 FUJITSU TEN (THAILAN17050RL0007007                                                                                                                              *          20170510IMF1705104.TXT
MDEDH5226311201705                D89829645710PT4D20170515000015RADIO;ASM DVD                 M IMCTM S9CO001FTTL  07070IMCT  S9 PTB  00003                    0900 SR        000000000000 FUJITSU TEN (THAILAN17057NU0002002                                                                                                                              *          20170510IMF1705104.TXT
MDEDH5226312201705                D89829645710PT4D20170515000015RADIO;ASM DVD                 M IMCTM S9CO001FTTL  07070IMCT  S9 PTB  00003                    1300 SR        000000000000 FUJITSU TEN (THAILAN17064NU0005005                                                                                                                              *          20170510IMF1705104.TXT
MDEDH5226313201705                D89831228700PT1D20170515000015RADIO;AM/FM,CD                M IMCTM S5NC06 FTTL  07070IMCT  S5 PTB  00003                    1300 SR        000000000000 FUJITSU TEN (THAILAN17063ML0006006                                                                                                                              *          20170510IMF1705104.TXT
MDEUH5219777201705                D89828070100PT4U20170513000030SPEAKER ASM                   M IMCTM S0FL05 FTTL  07070IMCT  S0 PTB  00003                    2230 SR        000000000000 FUJITSU TEN (THAILAN18023TU0075075                                                                                                                              *          20170510IMF1705104.TXT
MDEUH5219778201705                D89828070100PT4U20170514000030SPEAKER ASM                   M IMCTM S0FL05 FTTL  07070IMCT  S0 PTB  00003                    0230 SR        000000000000 FUJITSU TEN (THAILAN18022TU0014014                                                                                                                              *          20170510IMF1705104.TXT
MDEUH5219779201705                D89828070100PT4U20170515000030SPEAKER ASM                   M IMCTM S0FL05 FTTL  07070IMCT  S0 PTB  00003                    1300 SR        000000000000 FUJITSU TEN (THAILAN18019TU0004004                                                                                                                              *          20170510IMF1705104.TXT
MDEUH5219780201705                D89828070200PV4U20170513000030SPEAKER ASM                   M IMCTM S0FR05 FTTL  07070IMCT  S0 PTB  00005                    2230 SR        000000000000 FUJITSU TEN (THAILAN18023TU0075075                                                                                                                              *          20170510IMF1705104.TXT
MDEUH5219781201705                D89828070200PV4U20170514000030SPEAKER ASM                   M IMCTM S0FR05 FTTL  07070IMCT  S0 PTB  00005                    0230 SR        000000000000 FUJITSU TEN (THAILAN18022TU0014014                                                                                                                              *          20170510IMF1705104.TXT
MDEUH5219782201705                D89828070200PV4U20170515000030SPEAKER ASM                   M IMCTM S0FR05 FTTL  07070IMCT  S0 PTB  00005                    1300 SR        000000000000 FUJITSU TEN (THAILAN18019TU0004004                                                                                                                              *          20170510IMF1705104.TXT
MDEUH5219783201705                D89828070300PT4U20170513000030SPEAKER ASM                   M IMCTM S9TS02 FTTL  07070IMCT  S9 PTB  00015                    2230 SR        000000000000 FUJITSU TEN (THAILAN18023TU0075075                                                                                                                              *          20170510IMF1705104.TXT
MDEUH5219784201705                D89828070300PT4U20170514000030SPEAKER ASM                   M IMCTM S9TS02 FTTL  07070IMCT  S9 PTB  00015                    0230 SR        000000000000 FUJITSU TEN (THAILAN18022TU0014014                                                                                                                              *          20170510IMF1705104.TXT
MDEUH5219785201705                D89828070300PT4U20170515000030SPEAKER ASM                   M IMCTM S9TS02 FTTL  07070IMCT  S9 PTB  00015                    1300 SR        000000000000 FUJITSU TEN (THAILAN18019TU0004004                                                                                                                              *          20170510IMF1705104.TXT
MDEUH5219786201705                D89836135900PT4U20170515000015RADIO;ASM DVD                 M IMCTM S9CO001FTTL  07070IMCT  S9 PTB  00003                    1300 SR        000000000000 FUJITSU TEN (THAILAN18019TU0004004                                                                                                                              *          20170510IMF1705104.TXT
