REC2017051920170519ISUZU                              18     
MDEFH5T17128201705                D89805293700PV4F20170523000002SPEAKER ASM                   M IMCTM S7FR05 FTTL  07070IMCT  S7 PTB  00003                    1600 SR        000000000000 FUJITSU TEN (THAILAN15031BR0190   15031BR0190   D170504801    D170504801    000000                                                                              *R         20170519RDF1705194.TXT
MDEFH5T17129201705                D89805294000PT4F20170523000002SPEAKER ASM                   M IMCTM S7TS02 FTTL  07070IMCT  S7 PTB  00015                    1600 SR        000000000000 FUJITSU TEN (THAILAN15031BR0190   15031BR0190   D170504801    D170504801    000000                                                                              *R         20170519RDF1705194.TXT
MDEFH5T17130201705                D89805294100PV4F20170523000002SPEAKER ASM                   M IMCTM S7FR05 FTTL  07070IMCT  S7 PTB  00005                    1600 SR        000000000000 FUJITSU TEN (THAILAN15031BR0190   15031BR0190   D170504801    D170504801    000000                                                                              *R         20170519RDF1705194.TXT
MDEFH5T17131201705                D89828070100PV4F20170524000022SPEAKER ASM                   M IMCTM S7FL05 FTTL  07070IMCT  S7 PTB  00003                    0230 SR        000000000000 FUJITSU TEN (THAILAN17031MR0027   17083MR0041   D170504905    D170504915    000000                                                                              *R         20170519RDF1705194.TXT
MDEFH5T17132201705                D89828070200PV4F20170524000011SPEAKER ASM                   M IMCTM S7TS02 FTTL  07070IMCT  S7 PTB  00005                    0230 SR        000000000000 FUJITSU TEN (THAILAN17031MR0027   17032PR0038   D170504905    D170504910    000000                                                                              *R         20170519RDF1705194.TXT
MDEFH5T17133201705                D89828070300PT4F20170524000007SPEAKER ASM                   M IMCTM S7TS02 FTTL  07070IMCT  S7 PTB  00015                    0230 SR        000000000000 FUJITSU TEN (THAILAN17032PR0038   17083MR0041   D170504910    D170504915    000000                                                                              *R         20170519RDF1705194.TXT
MDEFH5T17134201705                D89829645310PT4F20170524000002RADIO;ASM DVD                 M IMCTM S7TS03 FTTL  07070IMCT  S7 PTB  00003                    0230 SR        000000000000 FUJITSU TEN (THAILAN17027MR0036   17032PR0038   D170504904    D170504910    000000                                                                              *R         20170519RDF1705194.TXT
MDEFH5T17135201705                D89831228800PT4F20170523000003RADIO;AM/FM,CD                M IMCTM S7TS03 FTTL  07070IMCT  S7 PTB  00003                    1600 SR        000000000000 FUJITSU TEN (THAILAN17001NR0048   17001NR0050   D170504802    D170504804    000000                                                                              *R         20170519RDF1705194.TXT
MDEFH5244623201705                D89828070100PV4F20170523000003SPEAKER ASM                   M IMCTM S7FL05 FTTL  07070IMCT  S7 PTB  00003                    1600 SR        000000000000 FUJITSU TEN (THAILAN17001NR0048   17001NR0049   D170504802    D170504803    000000                                                                              *R         20170519RDF1705194.TXT
MDEFH5244624201705                D89828070100PV4F20170523000027SPEAKER ASM                   M IMCTM S7FL05 FTTL  07070IMCT  S7 PTB  00003                    2100 SR        000000000000 FUJITSU TEN (THAILAN17001NR0049   17024NR0021   D170504803    D170504901    000000                                                                              *R         20170519RDF1705194.TXT
MDEFH5244625201705                D89828070100PV4F20170523000006SPEAKER ASM                   M IMCTM S7FL05 FTTL  07070IMCT  S7 PTB  00003                    2230 SR        000000000000 FUJITSU TEN (THAILAN17024NR0022   17027MR0036   D170504902    D170504904    000000                                                                              *R         20170519RDF1705194.TXT
MDEFH5244626201705                D89828070200PV4F20170523000005SPEAKER ASM                   M IMCTM S7TS02 FTTL  07070IMCT  S7 PTB  00005                    1600 SR        000000000000 FUJITSU TEN (THAILAN17001NR0048   17001NR0050   D170504802    D170504804    000000                                                                              *R         20170519RDF1705194.TXT
MDEFH5244627201705                D89828070200PV4F20170523000025SPEAKER ASM                   M IMCTM S7TS02 FTTL  07070IMCT  S7 PTB  00005                    2100 SR        000000000000 FUJITSU TEN (THAILAN17001NR0050   17024NR0022   D170504804    D170504902    000000                                                                              *R         20170519RDF1705194.TXT
MDEFH5244628201705                D89828070200PV4F20170523000005SPEAKER ASM                   M IMCTM S7TS02 FTTL  07070IMCT  S7 PTB  00005                    2230 SR        000000000000 FUJITSU TEN (THAILAN17024NR0023   17031MR0027   D170504903    D170504905    000000                                                                              *R         20170519RDF1705194.TXT
MDEFH5244629201705                D89828070300PT4F20170523000015SPEAKER ASM                   M IMCTM S7TS02 FTTL  07070IMCT  S7 PTB  00015                    1600 SR        000000000000 FUJITSU TEN (THAILAN17001NR0048   17024NR0018   D170504802    D170504809    000000                                                                              *R         20170519RDF1705194.TXT
MDEFH5244630201705                D89828070300PT4F20170523000015SPEAKER ASM                   M IMCTM S7TS02 FTTL  07070IMCT  S7 PTB  00015                    2100 SR        000000000000 FUJITSU TEN (THAILAN17024NR0018   17024NR0022   D170504809    D170504902    000000                                                                              *R         20170519RDF1705194.TXT
MDEFH5244631201705                D89828070300PT4F20170523000015SPEAKER ASM                   M IMCTM S7TS02 FTTL  07070IMCT  S7 PTB  00015                    2230 SR        000000000000 FUJITSU TEN (THAILAN17024NR0023   17032PR0038   D170504903    D170504910    000000                                                                              *R         20170519RDF1705194.TXT
MDEFH5244632201705                D89829645310PT4F20170523000003RADIO;ASM DVD                 M IMCTM S7TS03 FTTL  07070IMCT  S7 PTB  00003                    2100 SR        000000000000 FUJITSU TEN (THAILAN17032PR0037   17099MR0063   D170504812    D170504815    000000                                                                              *R         20170519RDF1705194.TXT
