REC2017052920170529ISUZU                              12     
MDEBH5T02447201706                D89828070100PT4B20170602000010SPEAKER ASM                   M IMCTM S7FL05 FTTL  07070IMCT  S7 PTB  00004                    0900 SR        000000000000 FUJITSU TEN (THAILAN18004TR0014   18004TR0018   Y170600611    Y170600615    000000                                                                              *R         20170529RDF1705295.TXT
MDEBH5T02448201706                D89828070200PV4B20170602000010SPEAKER ASM                   M IMCTM S7TS02 FTTL  07070IMCT  S7 PTB  00005                    0900 SR        000000000000 FUJITSU TEN (THAILAN18004TR0014   18004TR0018   Y170600611    Y170600615    000000                                                                              *R         20170529RDF1705295.TXT
MDEBH5T02449201706                D89828070300PT4B20170602000030SPEAKER ASM                   M IMCTM S7TS02 FTTL  07070IMCT  S7 PTB  00015                    0400 SR        000000000000 FUJITSU TEN (THAILAN170C34R0019   18004TR0018   Y170600601    Y170600615    000000                                                                              *R         20170529RDF1705295.TXT
MDEBH5T02450201706                D89829100110PT4B20170602000008RADIO;ASM DVD                 M IMCTM S7TS03 FTTL  07070IMCT  S7 PTB  00003                    0400 SR        000000000000 FUJITSU TEN (THAILAN170C40R0012   170C40R0015   Y170600602    Y170600610    000000                                                                              *R         20170529RDF1705295.TXT
MDEBH5203009201706                D89828070100PT4B20170602000020SPEAKER ASM                   M IMCTM S7FL05 FTTL  07070IMCT  S7 PTB  00004                    0400 SR        000000000000 FUJITSU TEN (THAILAN170C34R0019   170C40R0015   Y170600601    Y170600610    000000                                                                              *R         20170529RDF1705295.TXT
MDEBH5203010201706                D89828070200PV4B20170602000020SPEAKER ASM                   M IMCTM S7TS02 FTTL  07070IMCT  S7 PTB  00005                    0400 SR        000000000000 FUJITSU TEN (THAILAN170C34R0019   170C40R0015   Y170600601    Y170600610    000000                                                                              *R         20170529RDF1705295.TXT
MDEFH5T26457201706                D89828070100PV4F20170601000028SPEAKER ASM                   M IMCTM S7FL05 FTTL  07070IMCT  S7 PTB  00004                    2230 SR        000000000000 FUJITSU TEN (THAILAN17027NR0035   17064QR0021   R170600502    R170600515    000000                                                                              *R         20170529RDF1705295.TXT
MDEFH5T26458201706                D89828070200PV4F20170601000012SPEAKER ASM                   M IMCTM S7TS02 FTTL  07070IMCT  S7 PTB  00005                    1300 SR        000000000000 FUJITSU TEN (THAILAN17015RR0013   17018SR0046   C170600401    C170600406    000000                                                                              *R         20170529RDF1705295.TXT
MDEFH5T26459201706                D89828070300PT4F20170601000012SPEAKER ASM                   M IMCTM S7TS02 FTTL  07070IMCT  S7 PTB  00015                    1300 SR        000000000000 FUJITSU TEN (THAILAN17015RR0013   17018SR0046   C170600401    C170600406    000000                                                                              *R         20170529RDF1705295.TXT
MDEFH5T26460201706                D89831228400PT4F20170601000003RADIO;AM/FM,CD                M IMCTM S7TS03 FTTL  07070IMCT  S7 CPB  00003                    1300 SR        000000000000 FUJITSU TEN (THAILAN17018SR0044   17018SR0046   C170600404    C170600406    000000                                                                              *R         20170529RDF1705295.TXT
MDEFH5271099201706                D89828070100PV4F20170601000024SPEAKER ASM                   M IMCTM S7FL05 FTTL  07070IMCT  S7 PTB  00004                    1300 SR        000000000000 FUJITSU TEN (THAILAN17015RR0013   17066QR0047   C170600401    C170600412    000000                                                                              *R         20170529RDF1705295.TXT
MDEFH5271100201706                D89828070100PV4F20170601000008SPEAKER ASM                   M IMCTM S7FL05 FTTL  07070IMCT  S7 PTB  00004                    1600 SR        000000000000 FUJITSU TEN (THAILAN17028NR0036   17027NR0034   C170600413    R170600501    000000                                                                              *R         20170529RDF1705295.TXT
