REC2017051720170517ISUZU                              57     
MDDDH5269731201705                D89821984430PT1D20170520000030RADIO;AM/FM,CD                M IMCTM S5NC06 FTTL  07070IMCT  S5 PTB  00005                    2230 SR        000000000000 FUJITSU TEN (THAILAN170KNEL0095095                                                                                                                              *          20170517IMF1705175.TXT
MDDDH5269732201705                D89821984430PT1D20170521000030RADIO;AM/FM,CD                M IMCTM S5NC06 FTTL  07070IMCT  S5 PTB  00005                    0230 SR        000000000000 FUJITSU TEN (THAILAN170KNCL0077077                                                                                                                              *          20170517IMF1705175.TXT
MDDDH5269733201705                D89821984430PT1D20170522000030RADIO;AM/FM,CD                M IMCTM S5NC06 FTTL  07070IMCT  S5 PTB  00005                    2100 SR        000000000000 FUJITSU TEN (THAILAN170KPAL0107107                                                                                                                              *          20170517IMF1705175.TXT
MDDDH5269734201705                D89828070100PV1D20170520000060SPEAKER ASM                   M IMCTM S5MB11 FTTL  07070IMCT  S5 PTB  00003                    2230 SR        000000000000 FUJITSU TEN (THAILAN170KNEL0095095                                                                                                                              *          20170517IMF1705175.TXT
MDDDH5269735201705                D89828070100PV1D20170521000060SPEAKER ASM                   M IMCTM S5MB11 FTTL  07070IMCT  S5 PTB  00003                    0230 SR        000000000000 FUJITSU TEN (THAILAN170KNCL0077077                                                                                                                              *          20170517IMF1705175.TXT
MDDDH5269736201705                D89828070100PV1D20170521000120SPEAKER ASM                   M IMCTM S5MB11 FTTL  07070IMCT  S5 PTB  00003                    0400 SR        000000000000 FUJITSU TEN (THAILAN170KNAL0051051170KRFL0087087                                                                                                                *          20170517IMF1705175.TXT
MDDDH5269737201705                D89828070100PV1D20170522000060SPEAKER ASM                   M IMCTM S5MB11 FTTL  07070IMCT  S5 PTB  00003                    0900 SR        000000000000 FUJITSU TEN (THAILAN170KPCL0062062                                                                                                                              *          20170517IMF1705175.TXT
MDDDH5269738201705                D89828070100PV1D20170522000120SPEAKER ASM                   M IMCTM S5MB11 FTTL  07070IMCT  S5 PTB  00003                    1300 SR        000000000000 FUJITSU TEN (THAILAN170KNBL0031031170KRML0006006                                                                                                                *          20170517IMF1705175.TXT
MDDDH5269739201705                D89828070100PV1D20170522000060SPEAKER ASM                   M IMCTM S5MB11 FTTL  07070IMCT  S5 PTB  00003                    1600 SR        000000000000 FUJITSU TEN (THAILAN170KPGL0017017                                                                                                                              *          20170517IMF1705175.TXT
MDDDH5269740201705                D89828070100PV1D20170522000060SPEAKER ASM                   M IMCTM S5MB11 FTTL  07070IMCT  S5 PTB  00003                    2100 SR        000000000000 FUJITSU TEN (THAILAN170KPAL0107107                                                                                                                              *          20170517IMF1705175.TXT
MDDDH5269741201705                D89828070200PV1D20170521000060SPEAKER ASM                   M IMCTM S5MA14 FTTL  07070IMCT  S5 PTB  00005                    0400 SR        000000000000 FUJITSU TEN (THAILAN170KRFL0087087                                                                                                                              *          20170517IMF1705175.TXT
MDDDH5269742201705                D89828070200PV1D20170522000060SPEAKER ASM                   M IMCTM S5MA14 FTTL  07070IMCT  S5 PTB  00005                    1300 SR        000000000000 FUJITSU TEN (THAILAN170KRML0006006                                                                                                                              *          20170517IMF1705175.TXT
MDDDH5269743201705                D89828070300PT1D20170521000060SPEAKER ASM                   M IMCTM S5NB082FTTL  07070IMCT  S5 PTB  00015                    0400 SR        000000000000 FUJITSU TEN (THAILAN170KRFL0087087                                                                                                                              *          20170517IMF1705175.TXT
MDDDH5269744201705                D89828070300PT1D20170522000060SPEAKER ASM                   M IMCTM S5NB082FTTL  07070IMCT  S5 PTB  00015                    0900 SR        000000000000 FUJITSU TEN (THAILAN170KPCL0062062                                                                                                                              *          20170517IMF1705175.TXT
MDDDH5269745201705                D89828070300PT1D20170522000060SPEAKER ASM                   M IMCTM S5NB082FTTL  07070IMCT  S5 PTB  00015                    1300 SR        000000000000 FUJITSU TEN (THAILAN170KRML0006006                                                                                                                              *          20170517IMF1705175.TXT
MDDDH5269746201705                D89828070300PT1D20170522000060SPEAKER ASM                   M IMCTM S5NB082FTTL  07070IMCT  S5 PTB  00015                    1600 SR        000000000000 FUJITSU TEN (THAILAN170KPGL0017017                                                                                                                              *          20170517IMF1705175.TXT
MDDDH5269747201705                D89829645910PT1D20170521000030RADIO;ASM DVD                 M IMCTM S5NC06 FTTL  07070IMCT  S5 CPB  00003                    0400 SR        000000000000 FUJITSU TEN (THAILAN170KRFL0087087                                                                                                                              *          20170517IMF1705175.TXT
MDDDH5269748201705                D89831228300PT1D20170522000030RADIO;AM/FM,CD                M IMCTM S5NC06 FTTL  07070IMCT  S5 CPB  00003                    0900 SR        000000000000 FUJITSU TEN (THAILAN170KPCL0062062                                                                                                                              *          20170517IMF1705175.TXT
MDDDH5269749201705                D89831228300PT1D20170522000030RADIO;AM/FM,CD                M IMCTM S5NC06 FTTL  07070IMCT  S5 CPB  00003                    1600 SR        000000000000 FUJITSU TEN (THAILAN170KPGL0017017                                                                                                                              *          20170517IMF1705175.TXT
MDDUH5228428201705                D89828070100PT4U20170520000030SPEAKER ASM                   M IMCTM S0FL05 FTTL  07070IMCT  S0 PTB  00003                    2100 SR        000000000000 FUJITSU TEN (THAILAN180LUDU0147147                                                                                                                              *          20170517IMF1705175.TXT
MDDUH5228429201705                D89828070100PT4U20170520000030SPEAKER ASM                   M IMCTM S0FL05 FTTL  07070IMCT  S0 PTB  00003                    2230 SR        000000000000 FUJITSU TEN (THAILAN180LUEU0084084                                                                                                                              *          20170517IMF1705175.TXT
MDDUH5228430201705                D89828070100PT4U20170521000030SPEAKER ASM                   M IMCTM S0FL05 FTTL  07070IMCT  S0 PTB  00003                    0400 SR        000000000000 FUJITSU TEN (THAILAN180LUFU0024024                                                                                                                              *          20170517IMF1705175.TXT
MDDUH5228431201705                D89828070100PT4U20170522000030SPEAKER ASM                   M IMCTM S0FL05 FTTL  07070IMCT  S0 PTB  00003                    1300 SR        000000000000 FUJITSU TEN (THAILAN180LUEU0085085                                                                                                                              *          20170517IMF1705175.TXT
MDDUH5228432201705                D89828070200PV4U20170520000030SPEAKER ASM                   M IMCTM S0FR05 FTTL  07070IMCT  S0 PTB  00005                    2100 SR        000000000000 FUJITSU TEN (THAILAN180LUDU0147147                                                                                                                              *          20170517IMF1705175.TXT
MDDUH5228433201705                D89828070200PV4U20170520000030SPEAKER ASM                   M IMCTM S0FR05 FTTL  07070IMCT  S0 PTB  00005                    2230 SR        000000000000 FUJITSU TEN (THAILAN180LUEU0084084                                                                                                                              *          20170517IMF1705175.TXT
MDDUH5228434201705                D89828070200PV4U20170521000030SPEAKER ASM                   M IMCTM S0FR05 FTTL  07070IMCT  S0 PTB  00005                    0400 SR        000000000000 FUJITSU TEN (THAILAN180LUFU0024024                                                                                                                              *          20170517IMF1705175.TXT
MDDUH5228435201705                D89828070200PV4U20170522000030SPEAKER ASM                   M IMCTM S0FR05 FTTL  07070IMCT  S0 PTB  00005                    1300 SR        000000000000 FUJITSU TEN (THAILAN180LUEU0085085                                                                                                                              *          20170517IMF1705175.TXT
MDDUH5228436201705                D89828070300PT4U20170520000030SPEAKER ASM                   M IMCTM S9TS02 FTTL  07070IMCT  S9 PTB  00015                    2100 SR        000000000000 FUJITSU TEN (THAILAN180LUDU0147147                                                                                                                              *          20170517IMF1705175.TXT
MDDUH5228437201705                D89828070300PT4U20170520000030SPEAKER ASM                   M IMCTM S9TS02 FTTL  07070IMCT  S9 PTB  00015                    2230 SR        000000000000 FUJITSU TEN (THAILAN180LUEU0084084                                                                                                                              *          20170517IMF1705175.TXT
MDDUH5228438201705                D89828070300PT4U20170521000030SPEAKER ASM                   M IMCTM S9TS02 FTTL  07070IMCT  S9 PTB  00015                    0400 SR        000000000000 FUJITSU TEN (THAILAN180LUFU0024024                                                                                                                              *          20170517IMF1705175.TXT
MDDUH5228439201705                D89828070300PT4U20170522000030SPEAKER ASM                   M IMCTM S9TS02 FTTL  07070IMCT  S9 PTB  00015                    1300 SR        000000000000 FUJITSU TEN (THAILAN180LUEU0085085                                                                                                                              *          20170517IMF1705175.TXT
MDEDH5252072201705                D89828070100PV1D20170520000060SPEAKER ASM                   M IMCTM S5MB11 FTTL  07070IMCT  S5 PTB  00003                    2230 SR        000000000000 FUJITSU TEN (THAILAN17015NL0012013                                                                                                                              *          20170517IMF1705175.TXT
MDEDH5252073201705                D89828070100PV1D20170522000060SPEAKER ASM                   M IMCTM S5MB11 FTTL  07070IMCT  S5 PTB  00003                    0900 SR        000000000000 FUJITSU TEN (THAILAN17050ML002602617068ML0007007                                                                                                                *          20170517IMF1705175.TXT
MDEDH5252074201705                D89828070100PV4D20170521000030SPEAKER ASM                   M IMCTM S0FL05 FTTL  07070IMCT  S0 PTB  00003                    0230 SR        000000000000 FUJITSU TEN (THAILAN17055NU0013013                                                                                                                              *          20170517IMF1705175.TXT
MDEDH5252075201705                D89828070100PV4D20170522000030SPEAKER ASM                   M IMCTM S0FL05 FTTL  07070IMCT  S0 PTB  00003                    0900 SR        000000000000 FUJITSU TEN (THAILAN17058NU0005005                                                                                                                              *          20170517IMF1705175.TXT
MDEDH5252076201705                D89828070100PV4D20170522000030SPEAKER ASM                   M IMCTM S0FL05 FTTL  07070IMCT  S0 PTB  00003                    1300 SR        000000000000 FUJITSU TEN (THAILAN17031MU0013013                                                                                                                              *          20170517IMF1705175.TXT
MDEDH5252077201705                D89828070200PV1D20170520000060SPEAKER ASM                   M IMCTM S5MA14 FTTL  07070IMCT  S5 PTB  00005                    2230 SR        000000000000 FUJITSU TEN (THAILAN17015NL0012013                                                                                                                              *          20170517IMF1705175.TXT
MDEDH5252078201705                D89828070200PV4D20170522000030SPEAKER ASM                   M IMCTM S0FR05 FTTL  07070IMCT  S0 PTB  00005                    0900 SR        000000000000 FUJITSU TEN (THAILAN17058NU0005005                                                                                                                              *          20170517IMF1705175.TXT
MDEDH5252079201705                D89828070200PV4D20170522000030SPEAKER ASM                   M IMCTM S0FR05 FTTL  07070IMCT  S0 PTB  00005                    1300 SR        000000000000 FUJITSU TEN (THAILAN17031MU0013013                                                                                                                              *          20170517IMF1705175.TXT
MDEDH5252080201705                D89828070300PT1D20170520000060SPEAKER ASM                   M IMCTM S5NB082FTTL  07070IMCT  S5 PTB  00015                    2230 SR        000000000000 FUJITSU TEN (THAILAN17015NL0012013                                                                                                                              *          20170517IMF1705175.TXT
MDEDH5252081201705                D89828070300PT1D20170522000030SPEAKER ASM                   M IMCTM S5NB082FTTL  07070IMCT  S5 PTB  00015                    0900 SR        000000000000 FUJITSU TEN (THAILAN17068ML0007007                                                                                                                              *          20170517IMF1705175.TXT
MDEDH5252082201705                D89828070300PT4D20170521000030SPEAKER ASM                   M IMCTM S9TS02 FTTL  07070IMCT  S9 PTB  00015                    0230 SR        000000000000 FUJITSU TEN (THAILAN17055NU0013013                                                                                                                              *          20170517IMF1705175.TXT
MDEDH5252083201705                D89828070300PT4D20170522000030SPEAKER ASM                   M IMCTM S9TS02 FTTL  07070IMCT  S9 PTB  00015                    0900 SR        000000000000 FUJITSU TEN (THAILAN17058NU0005005                                                                                                                              *          20170517IMF1705175.TXT
MDEDH5252084201705                D89828070300PT4D20170522000030SPEAKER ASM                   M IMCTM S9TS02 FTTL  07070IMCT  S9 PTB  00015                    1300 SR        000000000000 FUJITSU TEN (THAILAN17031MU0013013                                                                                                                              *          20170517IMF1705175.TXT
MDEDH5252085201705                D89829622410PT1D20170522000015RADIO;ASM DVD                 M IMCTM S5NC06 FTTL  07070IMCT  S5 PTB  00003                    0900 SR        000000000000 FUJITSU TEN (THAILAN17068ML0007007                                                                                                                              *          20170517IMF1705175.TXT
MDEDH5252086201705                D89829645710PT4D20170521000015RADIO;ASM DVD                 M IMCTM S9CO001FTTL  07070IMCT  S9 PTB  00003                    0230 SR        000000000000 FUJITSU TEN (THAILAN17055NU0013013                                                                                                                              *          20170517IMF1705175.TXT
MDEDH5252087201705                D89829645710PT4D20170522000015RADIO;ASM DVD                 M IMCTM S9CO001FTTL  07070IMCT  S9 PTB  00003                    0900 SR        000000000000 FUJITSU TEN (THAILAN17058NU0005005                                                                                                                              *          20170517IMF1705175.TXT
MDEUH5239248201705                D89828070100PT4U20170521000030SPEAKER ASM                   M IMCTM S0FL05 FTTL  07070IMCT  S0 PTB  00003                    0230 SR        000000000000 FUJITSU TEN (THAILAN18082SU0001001                                                                                                                              *          20170517IMF1705175.TXT
MDEUH5239249201705                D89828070100PT4U20170522000060SPEAKER ASM                   M IMCTM S0FL05 FTTL  07070IMCT  S0 PTB  00003                    0900 SR        000000000000 FUJITSU TEN (THAILAN18081SU000100118082SU0002002                                                                                                                *          20170517IMF1705175.TXT
MDEUH5239250201705                D89828070100PT4U20170522000030SPEAKER ASM                   M IMCTM S0FL05 FTTL  07070IMCT  S0 PTB  00003                    1600 SR        000000000000 FUJITSU TEN (THAILAN18023TU0085085                                                                                                                              *          20170517IMF1705175.TXT
MDEUH5239251201705                D89828070200PV4U20170521000030SPEAKER ASM                   M IMCTM S0FR05 FTTL  07070IMCT  S0 PTB  00005                    0230 SR        000000000000 FUJITSU TEN (THAILAN18082SU0001001                                                                                                                              *          20170517IMF1705175.TXT
MDEUH5239252201705                D89828070200PV4U20170522000060SPEAKER ASM                   M IMCTM S0FR05 FTTL  07070IMCT  S0 PTB  00005                    0900 SR        000000000000 FUJITSU TEN (THAILAN18081SU000100118082SU0002002                                                                                                                *          20170517IMF1705175.TXT
MDEUH5239253201705                D89828070200PV4U20170522000030SPEAKER ASM                   M IMCTM S0FR05 FTTL  07070IMCT  S0 PTB  00005                    1600 SR        000000000000 FUJITSU TEN (THAILAN18023TU0085085                                                                                                                              *          20170517IMF1705175.TXT
MDEUH5239254201705                D89828070300PT4U20170521000030SPEAKER ASM                   M IMCTM S9TS02 FTTL  07070IMCT  S9 PTB  00015                    0230 SR        000000000000 FUJITSU TEN (THAILAN18082SU0001001                                                                                                                              *          20170517IMF1705175.TXT
MDEUH5239255201705                D89828070300PT4U20170522000060SPEAKER ASM                   M IMCTM S9TS02 FTTL  07070IMCT  S9 PTB  00015                    0900 SR        000000000000 FUJITSU TEN (THAILAN18081SU000100118082SU0002002                                                                                                                *          20170517IMF1705175.TXT
MDEUH5239256201705                D89828070300PT4U20170522000030SPEAKER ASM                   M IMCTM S9TS02 FTTL  07070IMCT  S9 PTB  00015                    1600 SR        000000000000 FUJITSU TEN (THAILAN18023TU0085085                                                                                                                              *          20170517IMF1705175.TXT
MDEUH5239257201705                D89835098000PT4U20170522000015RADIO;ASM DVD                 M IMCTM S9CO001FTTL  07070IMCT  S9 PTB  00003                    0900 SR        000000000000 FUJITSU TEN (THAILAN18081SU0001001                                                                                                                              *          20170517IMF1705175.TXT
