REC2017052220170522ISUZU                              16     
MDEFH5T19449201705                D89805293700PV4F20170525000008SPEAKER ASM                   M IMCTM S7FR05 FTTL  07070IMCT  S7 PTB  00003                    2230 SR        000000000000 FUJITSU TEN (THAILAN15010HR0073   15031BR0198   D170505402    D170505405    000000                                                                              *R         20170522RDF1705223.TXT
MDEFH5T19450201705                D89805294000PT4F20170525000026SPEAKER ASM                   M IMCTM S7TS02 FTTL  07070IMCT  S7 PTB  00015                    1600 SR        000000000000 FUJITSU TEN (THAILAN15029BR0139   15031BR0198   D170505301    D170505405    000000                                                                              *R         20170522RDF1705223.TXT
MDEFH5T19451201705                D89805294100PV4F20170525000006SPEAKER ASM                   M IMCTM S7FR05 FTTL  07070IMCT  S7 PTB  00005                    2230 SR        000000000000 FUJITSU TEN (THAILAN15031BR0196   15031BR0198   D170505403    D170505405    000000                                                                              *R         20170522RDF1705223.TXT
MDEFH5T19452201705                D89828070100PV4F20170526000028SPEAKER ASM                   M IMCTM S7FL05 FTTL  07070IMCT  S7 PTB  00003                    0400 SR        000000000000 FUJITSU TEN (THAILAN17057MR0023   17068MR0033   F170505502    F170505515    000000                                                                              *R         20170522RDF1705223.TXT
MDEFH5T19453201705                D89828070200PV4F20170525000019SPEAKER ASM                   M IMCTM S7TS02 FTTL  07070IMCT  S7 PTB  00005                    2230 SR        000000000000 FUJITSU TEN (THAILAN17005NR0037   17024NR0025   D170505406    D170505415    000000                                                                              *R         20170522RDF1705223.TXT
MDEFH5T19454201705                D89828070300PT4F20170526000019SPEAKER ASM                   M IMCTM S7TS02 FTTL  07070IMCT  S7 PTB  00015                    0400 SR        000000000000 FUJITSU TEN (THAILAN17057MR0027   17068MR0033   F170505506    F170505515    000000                                                                              *R         20170522RDF1705223.TXT
MDEFH5T19455201705                D89829622410PT4F20170526000004RADIO;ASM DVD                 M IMCTM S7TS03 FTTL  07070IMCT  S7 PTB  00003                    0400 SR        000000000000 FUJITSU TEN (THAILAN17056MR0036   17068MR0033   F170505501    F170505515    000000                                                                              *R         20170522RDF1705223.TXT
MDEFH5T19456201705                D89829645310PT4F20170525000002RADIO;ASM DVD                 M IMCTM S7TS03 FTTL  07070IMCT  S7 PTB  00003                    2230 SR        000000000000 FUJITSU TEN (THAILAN17014NR0034   17014NR0035   D170505408    D170505409    000000                                                                              *R         20170522RDF1705223.TXT
MDEFH5T19457201705                D89831229200PT4F20170525000007RADIO;AM/FM,CD                M IMCTM S7TS03 FTTL  07070IMCT  S7 PTB  00003                    1600 SR        000000000000 FUJITSU TEN (THAILAN17013QR0019   17013QR0025   D170505309    D170505315    000000                                                                              *R         20170522RDF1705223.TXT
MDEFH5252223201705                D89805293700PV4F20170525000018SPEAKER ASM                   M IMCTM S7FR05 FTTL  07070IMCT  S7 PTB  00003                    1600 SR        000000000000 FUJITSU TEN (THAILAN15029BR0139   15010HR0072   D170505301    D170505401    000000                                                                              *R         20170522RDF1705223.TXT
MDEFH5252224201705                D89805294100PV4F20170525000020SPEAKER ASM                   M IMCTM S7FR05 FTTL  07070IMCT  S7 PTB  00005                    1600 SR        000000000000 FUJITSU TEN (THAILAN15029BR0139   15010HR0073   D170505301    D170505402    000000                                                                              *R         20170522RDF1705223.TXT
MDEFH5252225201705                D89828070100PV4F20170525000015SPEAKER ASM                   M IMCTM S7FL05 FTTL  07070IMCT  S7 PTB  00003                    1600 SR        000000000000 FUJITSU TEN (THAILAN17013QR0019   17005NR0037   D170505309    D170505406    000000                                                                              *R         20170522RDF1705223.TXT
MDEFH5252226201705                D89828070100PV4F20170525000021SPEAKER ASM                   M IMCTM S7FL05 FTTL  07070IMCT  S7 PTB  00003                    2230 SR        000000000000 FUJITSU TEN (THAILAN17005NR0037   17056MR0036   D170505406    F170505501    000000                                                                              *R         20170522RDF1705223.TXT
MDEFH5252227201705                D89828070200PV4F20170525000015SPEAKER ASM                   M IMCTM S7TS02 FTTL  07070IMCT  S7 PTB  00005                    1600 SR        000000000000 FUJITSU TEN (THAILAN17013QR0019   17005NR0037   D170505309    D170505406    000000                                                                              *R         20170522RDF1705223.TXT
MDEFH5252228201705                D89828070300PT4F20170525000015SPEAKER ASM                   M IMCTM S7TS02 FTTL  07070IMCT  S7 PTB  00015                    1600 SR        000000000000 FUJITSU TEN (THAILAN17013QR0019   17005NR0037   D170505309    D170505406    000000                                                                              *R         20170522RDF1705223.TXT
MDEFH5252229201705                D89828070300PT4F20170525000030SPEAKER ASM                   M IMCTM S7TS02 FTTL  07070IMCT  S7 PTB  00015                    2230 SR        000000000000 FUJITSU TEN (THAILAN17005NR0037   17057MR0027   D170505406    F170505506    000000                                                                              *R         20170522RDF1705223.TXT
