REC2017051120170512ISUZU                              6      
MAD6H5600262201708                 89828070100PV5620170720000004SPEAKER ASM                   M IMCTM GT00000FTTL  07070G/WAY GT PTB  00003  DC                0000 GW        000000000000 FUJITSU TEN (THAILAN180L1AG0001001180L1BG0001001                                                                                                                *P         20170511IMF1705117.TXT
MAD6H5600263201708                 89828070200PV5620170720000002SPEAKER ASM                   M IMCTM GT00000FTTL  07070G/WAY GT PTB  00005  DC                0000 GW        000000000000 FUJITSU TEN (THAILAN180L1BG0001001                                                                                                                              *P         20170511IMF1705117.TXT
MAD6H5600264201708                 89828070300PT5620170720000004SPEAKER ASM                   M IMCTM GT00000FTTL  07070G/WAY GT PTB  00015  DC                0000 GW        000000000000 FUJITSU TEN (THAILAN180L1AG0001001180L1BG0001001                                                                                                                *P         20170511IMF1705117.TXT
MAE6H5600278201708                 89828070100PV5620170720000002SPEAKER ASM                   M IMCTM GT00000FTTL  07070G/WAY GT PTB  00003  DC                0000 GW        000000000000 FUJITSU TEN (THAILAN18002UG0001001                                                                                                                              *P         20170511IMF1705117.TXT
MAE6H5600279201708                 89828070200PV5620170720000002SPEAKER ASM                   M IMCTM GT00000FTTL  07070G/WAY GT PTB  00005  DC                0000 GW        000000000000 FUJITSU TEN (THAILAN18002UG0001001                                                                                                                              *P         20170511IMF1705117.TXT
MAE6H5600280201708                 89828070300PT5620170720000002SPEAKER ASM                   M IMCTM GT00000FTTL  07070G/WAY GT PTB  00015  DC                0000 GW        000000000000 FUJITSU TEN (THAILAN18002UG0001001                                                                                                                              *P         20170511IMF1705117.TXT
