REC2017051720170518ISUZU                              32     
MAKK75098528201705D4               89805293700P3YK20170529000150SPEAKER ASM                   M IMCTM CM1    FTTL  07070IMKDC KA   PTB00003  K0                1621DES        000000000000 FUJITSU TEN (THAILAN                                                                                                                                            *G         20170517IMF1705176.TXT
MAKK75098529201705D4               89805293700P3YK20170530000120SPEAKER ASM                   M IMCTM CM1    FTTL  07070IMKDC KA   PTB00003  K0                1621DES        000000000000 FUJITSU TEN (THAILAN                                                                                                                                            *G         20170517IMF1705176.TXT
MAKK75098530201705D4               89805293700P3YK20170531000150SPEAKER ASM                   M IMCTM CM1    FTTL  07070IMKDC KA   PTB00003  K0                1621DES        000000000000 FUJITSU TEN (THAILAN                                                                                                                                            *G         20170517IMF1705176.TXT
MAKK75098531201705D4               89805293700P3YK20170601000150SPEAKER ASM                   M IMCTM CM1    FTTL  07070IMKDC KA   PTB00003  K0                1621DES        000000000000 FUJITSU TEN (THAILAN                                                                                                                                            *G         20170517IMF1705176.TXT
MAKK75098532201705D1               89805293700P3YK20170602000150SPEAKER ASM                   M IMCTM CM1    FTTL  07070IMKDC KA   PTB00003  K0                0900DES        000000000000 FUJITSU TEN (THAILAN                                                                                                                                            *G         20170517IMF1705176.TXT
MAKK75098533201705D4               89805294000P3YK20170529000060SPEAKER ASM                   M IMCTM CM1    FTTL  07070IMKDC KA   PTB00015  K0                1621DES        000000000000 FUJITSU TEN (THAILAN                                                                                                                                            *G         20170517IMF1705176.TXT
MAKK75098534201705D4               89805294000P3YK20170530000090SPEAKER ASM                   M IMCTM CM1    FTTL  07070IMKDC KA   PTB00015  K0                1621DES        000000000000 FUJITSU TEN (THAILAN                                                                                                                                            *G         20170517IMF1705176.TXT
MAKK75098535201705D4               89805294000P3YK20170601000120SPEAKER ASM                   M IMCTM CM1    FTTL  07070IMKDC KA   PTB00015  K0                1621DES        000000000000 FUJITSU TEN (THAILAN                                                                                                                                            *G         20170517IMF1705176.TXT
MAKK75098536201705D4               89805294100P3YK20170529000060SPEAKER ASM                   M IMCTM CM1    FTTL  07070IMKDC KA   PTB00005  K0                1621DES        000000000000 FUJITSU TEN (THAILAN                                                                                                                                            *G         20170517IMF1705176.TXT
MAKK75098537201705D4               89805294100P3YK20170530000060SPEAKER ASM                   M IMCTM CM1    FTTL  07070IMKDC KA   PTB00005  K0                1621DES        000000000000 FUJITSU TEN (THAILAN                                                                                                                                            *G         20170517IMF1705176.TXT
MAKK75098538201705D4               89805294100P3YK20170601000030SPEAKER ASM                   M IMCTM CM1    FTTL  07070IMKDC KA   PTB00005  K0                1621DES        000000000000 FUJITSU TEN (THAILAN                                                                                                                                            *G         20170517IMF1705176.TXT
MAKK75098539201705D4               89805294200P3YK20170601000060SPEAKER ASM                   M IMCTM CM1    FTTL  07070IMKDC KA X    00030  K0                1621DES        000000000000 FUJITSU TEN (THAILAN                                                                                                                                            *G         20170517IMF1705176.TXT
MAKK75098540201705D4               89806470400P3YK20170601000030SPEAKER ASM;RDO,              M IMCTM CM1    FTTL  07070IMKDC KA   PTB00015  K0                1621DES        000000000000 FUJITSU TEN (THAILAN                                                                                                                                            *G         20170517IMF1705176.TXT
MAKK75098541201705D4               89825451200P3YK20170529000030SPEAKER ASM;ROOF              M IMCTM CM1    FTTL  07070IMKDC KA   PTB00015  K0                1621DES        000000000000 FUJITSU TEN (THAILAN                                                                                                                                            *G         20170517IMF1705176.TXT
MAKK75098542201705D4               89825451200P3YK20170530000090SPEAKER ASM;ROOF              M IMCTM CM1    FTTL  07070IMKDC KA   PTB00015  K0                1621DES        000000000000 FUJITSU TEN (THAILAN                                                                                                                                            *G         20170517IMF1705176.TXT
MAKK75098543201705D4               89828070100P3YK20170529000030SPEAKER ASM                   M IMCTM CM1    FTTL  07070IMKDC KA PTB  00003  K0                1621DES        000000000000 FUJITSU TEN (THAILAN                                                                                                                                            *G         20170517IMF1705176.TXT
MAKK75098544201705D4               89828070100P3YK20170530000090SPEAKER ASM                   M IMCTM CM1    FTTL  07070IMKDC KA PTB  00003  K0                1621DES        000000000000 FUJITSU TEN (THAILAN                                                                                                                                            *G         20170517IMF1705176.TXT
MAKK75098545201705D4               89828070100P3YK20170531000090SPEAKER ASM                   M IMCTM CM1    FTTL  07070IMKDC KA PTB  00003  K0                1621DES        000000000000 FUJITSU TEN (THAILAN                                                                                                                                            *G         20170517IMF1705176.TXT
MAKK75098546201705D4               89828070100P3YK20170601000120SPEAKER ASM                   M IMCTM CM1    FTTL  07070IMKDC KA PTB  00003  K0                1621DES        000000000000 FUJITSU TEN (THAILAN                                                                                                                                            *G         20170517IMF1705176.TXT
MAKK75098547201705D1               89828070100P3YK20170602000090SPEAKER ASM                   M IMCTM CM1    FTTL  07070IMKDC KA PTB  00003  K0                0900DES        000000000000 FUJITSU TEN (THAILAN                                                                                                                                            *G         20170517IMF1705176.TXT
MAKK75098548201705D4               89828070200P3YK20170529000030SPEAKER ASM                   M IMCTM CM1    FTTL  07070IMKDC KA PTB  00005  K0                1621DES        000000000000 FUJITSU TEN (THAILAN                                                                                                                                            *G         20170517IMF1705176.TXT
MAKK75098549201705D4               89828070200P3YK20170530000030SPEAKER ASM                   M IMCTM CM1    FTTL  07070IMKDC KA PTB  00005  K0                1621DES        000000000000 FUJITSU TEN (THAILAN                                                                                                                                            *G         20170517IMF1705176.TXT
MAKK75098550201705D4               89828070200P3YK20170531000030SPEAKER ASM                   M IMCTM CM1    FTTL  07070IMKDC KA PTB  00005  K0                1621DES        000000000000 FUJITSU TEN (THAILAN                                                                                                                                            *G         20170517IMF1705176.TXT
MAKK75098551201705D4               89828070200P3YK20170601000030SPEAKER ASM                   M IMCTM CM1    FTTL  07070IMKDC KA PTB  00005  K0                1621DES        000000000000 FUJITSU TEN (THAILAN                                                                                                                                            *G         20170517IMF1705176.TXT
MAKK75098552201705D1               89828070200P3YK20170602000030SPEAKER ASM                   M IMCTM CM1    FTTL  07070IMKDC KA PTB  00005  K0                0900DES        000000000000 FUJITSU TEN (THAILAN                                                                                                                                            *G         20170517IMF1705176.TXT
MAKK75098553201705D4               89828070300P3YK20170529000030SPEAKER ASM                   M IMCTM CM1    FTTL  07070IMKDC KA PTB  00015  K0                1621DES        000000000000 FUJITSU TEN (THAILAN                                                                                                                                            *G         20170517IMF1705176.TXT
MAKK75098554201705D4               89828070300P3YK20170530000090SPEAKER ASM                   M IMCTM CM1    FTTL  07070IMKDC KA PTB  00015  K0                1621DES        000000000000 FUJITSU TEN (THAILAN                                                                                                                                            *G         20170517IMF1705176.TXT
MAKK75098555201705D4               89828070300P3YK20170531000030SPEAKER ASM                   M IMCTM CM1    FTTL  07070IMKDC KA PTB  00015  K0                1621DES        000000000000 FUJITSU TEN (THAILAN                                                                                                                                            *G         20170517IMF1705176.TXT
MAKK75098556201705D4               89828070300P3YK20170601000030SPEAKER ASM                   M IMCTM CM1    FTTL  07070IMKDC KA PTB  00015  K0                1621DES        000000000000 FUJITSU TEN (THAILAN                                                                                                                                            *G         20170517IMF1705176.TXT
MAKK75098557201705D1               89828070300P3YK20170602000060SPEAKER ASM                   M IMCTM CM1    FTTL  07070IMKDC KA PTB  00015  K0                0900DES        000000000000 FUJITSU TEN (THAILAN                                                                                                                                            *G         20170517IMF1705176.TXT
MAKK75098558201705D4               89831228700P3YK20170530000015RADIO;AM/FM,CD                M IMCTM CM1    FTTL  07070IMKDC KA PTB  00003  K0                1621DES        000000000000 FUJITSU TEN (THAILAN                                                                                                                                            *G         20170517IMF1705176.TXT
MAKK75098559201705D4               89831228800P3YK20170601000030RADIO;AM/FM,CD                M IMCTM CM1    FTTL  07070IMKDC KA PTB  00003  K0                1621DES        000000000000 FUJITSU TEN (THAILAN                                                                                                                                            *G         20170517IMF1705176.TXT
