REC2017061320170613ISUZU                              70     
MDDDH6237351201706                D89821984430PT1D20170617000030RADIO;AM/FM,CD                M IMCTM S5NC06 FTTL  07070IMCT  S5 PTB  00005                    0900 SR        000000000000 FUJITSU TEN (THAILAN170KNCL0085085                                                                                                                              *          20170613WMF1706134.TXT
MDDDH6237352201706                D89825217910PT1D20170617000030RADIO;AM/FM,CD,D              M IMCTM S5NC06 FTTL  07070IMCT  S5 PTB  00003                    1300 SR        000000000000 FUJITSU TEN (THAILAN170KPJL0053053                                                                                                                              *          20170613WMF1706134.TXT
MDDDH6237353201706                D89825217910PT1D20170617000030RADIO;AM/FM,CD,D              M IMCTM S5NC06 FTTL  07070IMCT  S5 PTB  00003                    1600 SR        000000000000 FUJITSU TEN (THAILAN170KPKL0017017                                                                                                                              *          20170613WMF1706134.TXT
MDDDH6237354201706                D89828070100PV1D20170616000060SPEAKER ASM                   M IMCTM S5MB11 FTTL  07070IMCT  S5 PTB  00003                    2230 SR        000000000000 FUJITSU TEN (THAILAN170KRFL0112112                                                                                                                              *          20170613WMF1706134.TXT
MDDDH6237355201706                D89828070100PV1D20170617000120SPEAKER ASM                   M IMCTM S5MB11 FTTL  07070IMCT  S5 PTB  00003                    0400 SR        000000000000 FUJITSU TEN (THAILAN170KREL0034034170KRFL0113113                                                                                                                *          20170613WMF1706134.TXT
MDDDH6237356201706                D89828070100PV1D20170617000060SPEAKER ASM                   M IMCTM S5MB11 FTTL  07070IMCT  S5 PTB  00003                    0900 SR        000000000000 FUJITSU TEN (THAILAN170KNCL0085085                                                                                                                              *          20170613WMF1706134.TXT
MDDDH6237357201706                D89828070100PV1D20170617000060SPEAKER ASM                   M IMCTM S5MB11 FTTL  07070IMCT  S5 PTB  00003                    1300 SR        000000000000 FUJITSU TEN (THAILAN170KPJL0053053                                                                                                                              *          20170613WMF1706134.TXT
MDDDH6237358201706                D89828070100PV1D20170617000060SPEAKER ASM                   M IMCTM S5MB11 FTTL  07070IMCT  S5 PTB  00003                    1600 SR        000000000000 FUJITSU TEN (THAILAN170KPKL0017017                                                                                                                              *          20170613WMF1706134.TXT
MDDDH6237359201706                D89828070100PV1D20170617000060SPEAKER ASM                   M IMCTM S5MB11 FTTL  07070IMCT  S5 PTB  00003                    2100 SR        000000000000 FUJITSU TEN (THAILAN170KRLL0011011                                                                                                                              *          20170613WMF1706134.TXT
MDDDH6237360201706                D89828070100PV4D20170616000060SPEAKER ASM                   M IMCTM S0FL05 FTTL  07070IMCT  S0 PTB  00003                    2230 SR        000000000000 FUJITSU TEN (THAILAN170KPFU0012012                                                                                                                              *          20170613WMF1706134.TXT
MDDDH6237361201706                D89828070200PV1D20170616000060SPEAKER ASM                   M IMCTM S5MA14 FTTL  07070IMCT  S5 PTB  00005                    2230 SR        000000000000 FUJITSU TEN (THAILAN170KRFL0112112                                                                                                                              *          20170613WMF1706134.TXT
MDDDH6237362201706                D89828070200PV1D20170617000120SPEAKER ASM                   M IMCTM S5MA14 FTTL  07070IMCT  S5 PTB  00005                    0400 SR        000000000000 FUJITSU TEN (THAILAN170KREL0034034170KRFL0113113                                                                                                                *          20170613WMF1706134.TXT
MDDDH6237363201706                D89828070200PV1D20170617000060SPEAKER ASM                   M IMCTM S5MA14 FTTL  07070IMCT  S5 PTB  00005                    2100 SR        000000000000 FUJITSU TEN (THAILAN170KRLL0011011                                                                                                                              *          20170613WMF1706134.TXT
MDDDH6237364201706                D89828070300PT1D20170616000060SPEAKER ASM                   M IMCTM S5NB082FTTL  07070IMCT  S5 PTB  00015                    2230 SR        000000000000 FUJITSU TEN (THAILAN170KRFL0112112                                                                                                                              *          20170613WMF1706134.TXT
MDDDH6237365201706                D89828070300PT1D20170617000120SPEAKER ASM                   M IMCTM S5NB082FTTL  07070IMCT  S5 PTB  00015                    0400 SR        000000000000 FUJITSU TEN (THAILAN170KREL0034034170KRFL0113113                                                                                                                *          20170613WMF1706134.TXT
MDDDH6237366201706                D89828070300PT1D20170617000060SPEAKER ASM                   M IMCTM S5NB082FTTL  07070IMCT  S5 PTB  00015                    1300 SR        000000000000 FUJITSU TEN (THAILAN170KPJL0053053                                                                                                                              *          20170613WMF1706134.TXT
MDDDH6237367201706                D89828070300PT1D20170617000060SPEAKER ASM                   M IMCTM S5NB082FTTL  07070IMCT  S5 PTB  00015                    1600 SR        000000000000 FUJITSU TEN (THAILAN170KPKL0017017                                                                                                                              *          20170613WMF1706134.TXT
MDDDH6237368201706                D89828070300PT1D20170617000060SPEAKER ASM                   M IMCTM S5NB082FTTL  07070IMCT  S5 PTB  00015                    2100 SR        000000000000 FUJITSU TEN (THAILAN170KRLL0011011                                                                                                                              *          20170613WMF1706134.TXT
MDDDH6237369201706                D89828070300PT4D20170616000060SPEAKER ASM                   M IMCTM S9TS02 FTTL  07070IMCT  S9 PTB  00015                    2230 SR        000000000000 FUJITSU TEN (THAILAN170KPFU0012012                                                                                                                              *          20170613WMF1706134.TXT
MDDDH6237370201706                D89829645910PT1D20170616000030RADIO;ASM DVD                 M IMCTM S5NC06 FTTL  07070IMCT  S5 CPB  00003                    2230 SR        000000000000 FUJITSU TEN (THAILAN170KRFL0112112                                                                                                                              *          20170613WMF1706134.TXT
MDDDH6237371201706                D89829645910PT1D20170617000030RADIO;ASM DVD                 M IMCTM S5NC06 FTTL  07070IMCT  S5 CPB  00003                    0400 SR        000000000000 FUJITSU TEN (THAILAN170KRFL0113113                                                                                                                              *          20170613WMF1706134.TXT
MDDDH6237372201706                D89831228300PT4D20170616000030RADIO;AM/FM,CD                M IMCTM S9CO001FTTL  07070IMCT  S9 CPB  00003                    2230 SR        000000000000 FUJITSU TEN (THAILAN170KPFU0012012                                                                                                                              *          20170613WMF1706134.TXT
MDDDH6237373201706                D89831228400PT1D20170617000030RADIO;AM/FM,CD                M IMCTM S5NC06 FTTL  07070IMCT  S5 CPB  00003                    0400 SR        000000000000 FUJITSU TEN (THAILAN170KREL0034034                                                                                                                              *          20170613WMF1706134.TXT
MDDUH6229768201706                D89828070100PT4U20170616000030SPEAKER ASM                   M IMCTM S0FL05 FTTL  07070IMCT  S0 PTB  00003                    2230 SR        000000000000 FUJITSU TEN (THAILAN180LUDU0175175                                                                                                                              *          20170613WMF1706134.TXT
MDDUH6229769201706                D89828070100PT4U20170617000030SPEAKER ASM                   M IMCTM S0FL05 FTTL  07070IMCT  S0 PTB  00003                    0400 SR        000000000000 FUJITSU TEN (THAILAN180LUDU0176176                                                                                                                              *          20170613WMF1706134.TXT
MDDUH6229770201706                D89828070100PT4U20170617000030SPEAKER ASM                   M IMCTM S0FL05 FTTL  07070IMCT  S0 PTB  00003                    0900 SR        000000000000 FUJITSU TEN (THAILAN180LUAU0016016                                                                                                                              *          20170613WMF1706134.TXT
MDDUH6229771201706                D89828070100PT4U20170617000060SPEAKER ASM                   M IMCTM S0FL05 FTTL  07070IMCT  S0 PTB  00003                    1300 SR        000000000000 FUJITSU TEN (THAILAN180LUDU0177177180LUEU0110110                                                                                                                *          20170613WMF1706134.TXT
MDDUH6229772201706                D89828070200PV4U20170616000030SPEAKER ASM                   M IMCTM S0FR05 FTTL  07070IMCT  S0 PTB  00005                    2230 SR        000000000000 FUJITSU TEN (THAILAN180LUDU0175175                                                                                                                              *          20170613WMF1706134.TXT
MDDUH6229773201706                D89828070200PV4U20170617000030SPEAKER ASM                   M IMCTM S0FR05 FTTL  07070IMCT  S0 PTB  00005                    0400 SR        000000000000 FUJITSU TEN (THAILAN180LUDU0176176                                                                                                                              *          20170613WMF1706134.TXT
MDDUH6229774201706                D89828070200PV4U20170617000030SPEAKER ASM                   M IMCTM S0FR05 FTTL  07070IMCT  S0 PTB  00005                    0900 SR        000000000000 FUJITSU TEN (THAILAN180LUAU0016016                                                                                                                              *          20170613WMF1706134.TXT
MDDUH6229775201706                D89828070200PV4U20170617000060SPEAKER ASM                   M IMCTM S0FR05 FTTL  07070IMCT  S0 PTB  00005                    1300 SR        000000000000 FUJITSU TEN (THAILAN180LUDU0177177180LUEU0110110                                                                                                                *          20170613WMF1706134.TXT
MDDUH6229776201706                D89828070300PT4U20170616000030SPEAKER ASM                   M IMCTM S9TS02 FTTL  07070IMCT  S9 PTB  00015                    2230 SR        000000000000 FUJITSU TEN (THAILAN180LUDU0175175                                                                                                                              *          20170613WMF1706134.TXT
MDDUH6229777201706                D89828070300PT4U20170617000030SPEAKER ASM                   M IMCTM S9TS02 FTTL  07070IMCT  S9 PTB  00015                    0400 SR        000000000000 FUJITSU TEN (THAILAN180LUDU0176176                                                                                                                              *          20170613WMF1706134.TXT
MDDUH6229778201706                D89828070300PT4U20170617000030SPEAKER ASM                   M IMCTM S9TS02 FTTL  07070IMCT  S9 PTB  00015                    0900 SR        000000000000 FUJITSU TEN (THAILAN180LUAU0016016                                                                                                                              *          20170613WMF1706134.TXT
MDDUH6229779201706                D89828070300PT4U20170617000060SPEAKER ASM                   M IMCTM S9TS02 FTTL  07070IMCT  S9 PTB  00015                    1300 SR        000000000000 FUJITSU TEN (THAILAN180LUDU0177177180LUEU0110110                                                                                                                *          20170613WMF1706134.TXT
MDDUH6229780201706                D89831228400PT4U20170617000015RADIO;AM/FM,CD                M IMCTM S9CO001FTTL  07070IMCT  S9 CPB  00003                    0900 SR        000000000000 FUJITSU TEN (THAILAN180LUAU0016016                                                                                                                              *          20170613WMF1706134.TXT
MDEDH6256889201706                D89805293700PV1D20170617000030SPEAKER ASM                   M IMCTM S5MB14 FTTL  07070IMCT  S5 PTB  00003                    1600 SR        000000000000 FUJITSU TEN (THAILAN15081DL0020020                                                                                                                              *          20170613WMF1706134.TXT
MDEDH6256890201706                D89805293700PV1D20170617000030SPEAKER ASM                   M IMCTM S5MB14 FTTL  07070IMCT  S5 PTB  00003                    2100 SR        000000000000 FUJITSU TEN (THAILAN15081DL0021021                                                                                                                              *          20170613WMF1706134.TXT
MDEDH6256891201706                D89805294000PT1D20170617000030SPEAKER ASM                   M IMCTM S5NB082FTTL  07070IMCT  S5 PTB  00015                    1600 SR        000000000000 FUJITSU TEN (THAILAN15081DL0020020                                                                                                                              *          20170613WMF1706134.TXT
MDEDH6256892201706                D89805294000PT1D20170617000030SPEAKER ASM                   M IMCTM S5NB082FTTL  07070IMCT  S5 PTB  00015                    2100 SR        000000000000 FUJITSU TEN (THAILAN15081DL0021021                                                                                                                              *          20170613WMF1706134.TXT
MDEDH6256893201706                D89805294200PT1D20170617000030SPEAKER ASM                   M IMCTM S5AS011FTTL  07070IMCT  S6 PTB  00030                    1600 SR        000000000000 FUJITSU TEN (THAILAN15081DL0020020                                                                                                                              *          20170613WMF1706134.TXT
MDEDH6256894201706                D89805294200PT1D20170617000030SPEAKER ASM                   M IMCTM S5AS011FTTL  07070IMCT  S6 PTB  00030                    2100 SR        000000000000 FUJITSU TEN (THAILAN15081DL0021021                                                                                                                              *          20170613WMF1706134.TXT
MDEDH6256895201706                D89806470400PT1D20170617000015SPEAKER ASM;RDO,              M IMCTM S5EA18 FTTL  07070IMCT  S6 PTB  00015                    1600 SR        000000000000 FUJITSU TEN (THAILAN15081DL0020020                                                                                                                              *          20170613WMF1706134.TXT
MDEDH6256896201706                D89806470400PT1D20170617000015SPEAKER ASM;RDO,              M IMCTM S5EA18 FTTL  07070IMCT  S6 PTB  00015                    2100 SR        000000000000 FUJITSU TEN (THAILAN15081DL0021021                                                                                                                              *          20170613WMF1706134.TXT
MDEDH6256897201706                D89828070100PV1D20170616000060SPEAKER ASM                   M IMCTM S5MB11 FTTL  07070IMCT  S5 PTB  00003                    2230 SR        000000000000 FUJITSU TEN (THAILAN17010ML0023024                                                                                                                              *          20170613WMF1706134.TXT
MDEDH6256898201706                D89828070100PV1D20170617000060SPEAKER ASM                   M IMCTM S5MB11 FTTL  07070IMCT  S5 PTB  00003                    0230 SR        000000000000 FUJITSU TEN (THAILAN17062NL0010011                                                                                                                              *          20170613WMF1706134.TXT
MDEDH6256899201706                D89828070100PV1D20170617000060SPEAKER ASM                   M IMCTM S5MB11 FTTL  07070IMCT  S5 PTB  00003                    0900 SR        000000000000 FUJITSU TEN (THAILAN17074NL0040041                                                                                                                              *          20170613WMF1706134.TXT
MDEDH6256900201706                D89828070100PV1D20170617000060SPEAKER ASM                   M IMCTM S5MB11 FTTL  07070IMCT  S5 PTB  00003                    1300 SR        000000000000 FUJITSU TEN (THAILAN17022ML0024025                                                                                                                              *          20170613WMF1706134.TXT
MDEDH6256901201706                D89828070100PV4D20170617000030SPEAKER ASM                   M IMCTM S0FL05 FTTL  07070IMCT  S0 PTB  00003                    0900 SR        000000000000 FUJITSU TEN (THAILAN17080NU0036036                                                                                                                              *          20170613WMF1706134.TXT
MDEDH6256902201706                D89828070200PV1D20170617000060SPEAKER ASM                   M IMCTM S5MA14 FTTL  07070IMCT  S5 PTB  00005                    0900 SR        000000000000 FUJITSU TEN (THAILAN17074NL0040041                                                                                                                              *          20170613WMF1706134.TXT
MDEDH6256903201706                D89828070200PV1D20170617000060SPEAKER ASM                   M IMCTM S5MA14 FTTL  07070IMCT  S5 PTB  00005                    1300 SR        000000000000 FUJITSU TEN (THAILAN17022ML0024025                                                                                                                              *          20170613WMF1706134.TXT
MDEDH6256904201706                D89828070200PV4D20170617000030SPEAKER ASM                   M IMCTM S0FR05 FTTL  07070IMCT  S0 PTB  00005                    0900 SR        000000000000 FUJITSU TEN (THAILAN17080NU0036036                                                                                                                              *          20170613WMF1706134.TXT
MDEDH6256905201706                D89828070300PT1D20170617000060SPEAKER ASM                   M IMCTM S5NB082FTTL  07070IMCT  S5 PTB  00015                    0230 SR        000000000000 FUJITSU TEN (THAILAN17062NL0010011                                                                                                                              *          20170613WMF1706134.TXT
MDEDH6256906201706                D89828070300PT1D20170617000060SPEAKER ASM                   M IMCTM S5NB082FTTL  07070IMCT  S5 PTB  00015                    0900 SR        000000000000 FUJITSU TEN (THAILAN17074NL0040041                                                                                                                              *          20170613WMF1706134.TXT
MDEDH6256907201706                D89828070300PT1D20170617000060SPEAKER ASM                   M IMCTM S5NB082FTTL  07070IMCT  S5 PTB  00015                    1300 SR        000000000000 FUJITSU TEN (THAILAN17022ML0024025                                                                                                                              *          20170613WMF1706134.TXT
MDEDH6256908201706                D89828070300PT4D20170617000030SPEAKER ASM                   M IMCTM S9TS02 FTTL  07070IMCT  S9 PTB  00015                    0900 SR        000000000000 FUJITSU TEN (THAILAN17080NU0036036                                                                                                                              *          20170613WMF1706134.TXT
MDEDH6256909201706                D89831228600PT1D20170617000030RADIO;AM/FM,CD                M IMCTM S5NC06 FTTL  07070IMCT  S5 PTB  00003                    0230 SR        000000000000 FUJITSU TEN (THAILAN17062NL0010011                                                                                                                              *          20170613WMF1706134.TXT
MDEDH6256910201706                D89848581800PT1D20170617000030RADIO;AM/FM CD D              M IMCTM S5NC06 FTTL  07070IMCT  S5 PTB  00003                    0900 SR        000000000000 FUJITSU TEN (THAILAN17074NL0040041                                                                                                                              *          20170613WMF1706134.TXT
MDEUH6230678201706                D89828070100PT4U20170616000030SPEAKER ASM                   M IMCTM S0FL05 FTTL  07070IMCT  S0 PTB  00003                    2230 SR        000000000000 FUJITSU TEN (THAILAN18022TU0024024                                                                                                                              *          20170613WMF1706134.TXT
MDEUH6230679201706                D89828070100PT4U20170617000030SPEAKER ASM                   M IMCTM S0FL05 FTTL  07070IMCT  S0 PTB  00003                    0400 SR        000000000000 FUJITSU TEN (THAILAN170C16U0233233                                                                                                                              *          20170613WMF1706134.TXT
MDEUH6230680201706                D89828070100PT4U20170617000030SPEAKER ASM                   M IMCTM S0FL05 FTTL  07070IMCT  S0 PTB  00003                    0900 SR        000000000000 FUJITSU TEN (THAILAN170C12U0047047                                                                                                                              *          20170613WMF1706134.TXT
MDEUH6230681201706                D89828070100PT4U20170617000030SPEAKER ASM                   M IMCTM S0FL05 FTTL  07070IMCT  S0 PTB  00003                    1600 SR        000000000000 FUJITSU TEN (THAILAN170C16U0234234                                                                                                                              *          20170613WMF1706134.TXT
MDEUH6230682201706                D89828070200PV4U20170616000030SPEAKER ASM                   M IMCTM S0FR05 FTTL  07070IMCT  S0 PTB  00005                    2230 SR        000000000000 FUJITSU TEN (THAILAN18022TU0024024                                                                                                                              *          20170613WMF1706134.TXT
MDEUH6230683201706                D89828070200PV4U20170617000030SPEAKER ASM                   M IMCTM S0FR05 FTTL  07070IMCT  S0 PTB  00005                    0400 SR        000000000000 FUJITSU TEN (THAILAN170C16U0233233                                                                                                                              *          20170613WMF1706134.TXT
MDEUH6230684201706                D89828070200PV4U20170617000030SPEAKER ASM                   M IMCTM S0FR05 FTTL  07070IMCT  S0 PTB  00005                    0900 SR        000000000000 FUJITSU TEN (THAILAN170C12U0047047                                                                                                                              *          20170613WMF1706134.TXT
MDEUH6230685201706                D89828070200PV4U20170617000030SPEAKER ASM                   M IMCTM S0FR05 FTTL  07070IMCT  S0 PTB  00005                    1600 SR        000000000000 FUJITSU TEN (THAILAN170C16U0234234                                                                                                                              *          20170613WMF1706134.TXT
MDEUH6230686201706                D89828070300PT4U20170616000030SPEAKER ASM                   M IMCTM S9TS02 FTTL  07070IMCT  S9 PTB  00015                    2230 SR        000000000000 FUJITSU TEN (THAILAN18022TU0024024                                                                                                                              *          20170613WMF1706134.TXT
MDEUH6230687201706                D89828070300PT4U20170617000030SPEAKER ASM                   M IMCTM S9TS02 FTTL  07070IMCT  S9 PTB  00015                    0400 SR        000000000000 FUJITSU TEN (THAILAN170C16U0233233                                                                                                                              *          20170613WMF1706134.TXT
MDEUH6230688201706                D89828070300PT4U20170617000030SPEAKER ASM                   M IMCTM S9TS02 FTTL  07070IMCT  S9 PTB  00015                    0900 SR        000000000000 FUJITSU TEN (THAILAN170C12U0047047                                                                                                                              *          20170613WMF1706134.TXT
MDEUH6230689201706                D89828070300PT4U20170617000030SPEAKER ASM                   M IMCTM S9TS02 FTTL  07070IMCT  S9 PTB  00015                    1600 SR        000000000000 FUJITSU TEN (THAILAN170C16U0234234                                                                                                                              *          20170613WMF1706134.TXT
