REC2017061520170615ISUZU                              37     
MAKK76070665201706D1               89805293700P3YK20170626000120SPEAKER ASM                   M IMCTM CM1    FTTL  07070IMKDC KA   PTB00003  K0                0900DES        000000000000 FUJITSU TEN (THAILAN                                                                                                                                            *G         20170615WMF1706151.TXT
MAKK76070666201706D1               89805293700P3YK20170627000090SPEAKER ASM                   M IMCTM CM1    FTTL  07070IMKDC KA   PTB00003  K0                0900DES        000000000000 FUJITSU TEN (THAILAN                                                                                                                                            *G         20170615WMF1706151.TXT
MAKK76070667201706D1               89805293700P3YK20170628000210SPEAKER ASM                   M IMCTM CM1    FTTL  07070IMKDC KA   PTB00003  K0                0900DES        000000000000 FUJITSU TEN (THAILAN                                                                                                                                            *G         20170615WMF1706151.TXT
MAKK76070668201706D1               89805293700P3YK20170629000060SPEAKER ASM                   M IMCTM CM1    FTTL  07070IMKDC KA   PTB00003  K0                0900DES        000000000000 FUJITSU TEN (THAILAN                                                                                                                                            *G         20170615WMF1706151.TXT
MAKK76070669201706D1               89805293700P3YK20170630000180SPEAKER ASM                   M IMCTM CM1    FTTL  07070IMKDC KA   PTB00003  K0                0900DES        000000000000 FUJITSU TEN (THAILAN                                                                                                                                            *G         20170615WMF1706151.TXT
MAKK76070670201706D1               89805294000P3YK20170626000060SPEAKER ASM                   M IMCTM CM1    FTTL  07070IMKDC KA   PTB00015  K0                0900DES        000000000000 FUJITSU TEN (THAILAN                                                                                                                                            *G         20170615WMF1706151.TXT
MAKK76070671201706D1               89805294000P3YK20170627000030SPEAKER ASM                   M IMCTM CM1    FTTL  07070IMKDC KA   PTB00015  K0                0900DES        000000000000 FUJITSU TEN (THAILAN                                                                                                                                            *G         20170615WMF1706151.TXT
MAKK76070672201706D1               89805294000P3YK20170628000150SPEAKER ASM                   M IMCTM CM1    FTTL  07070IMKDC KA   PTB00015  K0                0900DES        000000000000 FUJITSU TEN (THAILAN                                                                                                                                            *G         20170615WMF1706151.TXT
MAKK76070673201706D1               89805294000P3YK20170630000030SPEAKER ASM                   M IMCTM CM1    FTTL  07070IMKDC KA   PTB00015  K0                0900DES        000000000000 FUJITSU TEN (THAILAN                                                                                                                                            *G         20170615WMF1706151.TXT
MAKK76070674201706D1               89805294100P3YK20170626000030SPEAKER ASM                   M IMCTM CM1    FTTL  07070IMKDC KA   PTB00005  K0                0900DES        000000000000 FUJITSU TEN (THAILAN                                                                                                                                            *G         20170615WMF1706151.TXT
MAKK76070675201706D1               89805294100P3YK20170627000030SPEAKER ASM                   M IMCTM CM1    FTTL  07070IMKDC KA   PTB00005  K0                0900DES        000000000000 FUJITSU TEN (THAILAN                                                                                                                                            *G         20170615WMF1706151.TXT
MAKK76070676201706D1               89805294100P3YK20170628000090SPEAKER ASM                   M IMCTM CM1    FTTL  07070IMKDC KA   PTB00005  K0                0900DES        000000000000 FUJITSU TEN (THAILAN                                                                                                                                            *G         20170615WMF1706151.TXT
MAKK76070677201706D1               89805294100P3YK20170630000030SPEAKER ASM                   M IMCTM CM1    FTTL  07070IMKDC KA   PTB00005  K0                0900DES        000000000000 FUJITSU TEN (THAILAN                                                                                                                                            *G         20170615WMF1706151.TXT
MAKK76070678201706D1               89805294200P3YK20170626000030SPEAKER ASM                   M IMCTM CM1    FTTL  07070IMKDC KA X    00030  K0                0900DES        000000000000 FUJITSU TEN (THAILAN                                                                                                                                            *G         20170615WMF1706151.TXT
MAKK76070679201706D1               89805294200P3YK20170628000060SPEAKER ASM                   M IMCTM CM1    FTTL  07070IMKDC KA X    00030  K0                0900DES        000000000000 FUJITSU TEN (THAILAN                                                                                                                                            *G         20170615WMF1706151.TXT
MAKK76070680201706D1               89806470400P3YK20170626000015SPEAKER ASM;RDO,              M IMCTM CM1    FTTL  07070IMKDC KA   PTB00015  K0                0900DES        000000000000 FUJITSU TEN (THAILAN                                                                                                                                            *G         20170615WMF1706151.TXT
MAKK76070681201706D1               89806470400P3YK20170628000030SPEAKER ASM;RDO,              M IMCTM CM1    FTTL  07070IMKDC KA   PTB00015  K0                0900DES        000000000000 FUJITSU TEN (THAILAN                                                                                                                                            *G         20170615WMF1706151.TXT
MAKK76070682201706D1               89825451200P3YK20170626000030SPEAKER ASM;ROOF              M IMCTM CM1    FTTL  07070IMKDC KA   PTB00015  K0                0900DES        000000000000 FUJITSU TEN (THAILAN                                                                                                                                            *G         20170615WMF1706151.TXT
MAKK76070683201706D1               89825451200P3YK20170627000030SPEAKER ASM;ROOF              M IMCTM CM1    FTTL  07070IMKDC KA   PTB00015  K0                0900DES        000000000000 FUJITSU TEN (THAILAN                                                                                                                                            *G         20170615WMF1706151.TXT
MAKK76070684201706D1               89825451200P3YK20170629000030SPEAKER ASM;ROOF              M IMCTM CM1    FTTL  07070IMKDC KA   PTB00015  K0                0900DES        000000000000 FUJITSU TEN (THAILAN                                                                                                                                            *G         20170615WMF1706151.TXT
MAKK76070685201706D1               89825451200P3YK20170630000030SPEAKER ASM;ROOF              M IMCTM CM1    FTTL  07070IMKDC KA   PTB00015  K0                0900DES        000000000000 FUJITSU TEN (THAILAN                                                                                                                                            *G         20170615WMF1706151.TXT
MAKK76070686201706D1               89828070100P3YK20170626000120SPEAKER ASM                   M IMCTM CM1    FTTL  07070IMKDC KA PTB  00003  K0                0900DES        000000000000 FUJITSU TEN (THAILAN                                                                                                                                            *G         20170615WMF1706151.TXT
MAKK76070687201706D1               89828070100P3YK20170627000150SPEAKER ASM                   M IMCTM CM1    FTTL  07070IMKDC KA PTB  00003  K0                0900DES        000000000000 FUJITSU TEN (THAILAN                                                                                                                                            *G         20170615WMF1706151.TXT
MAKK76070688201706D1               89828070100P3YK20170628000030SPEAKER ASM                   M IMCTM CM1    FTTL  07070IMKDC KA PTB  00003  K0                0900DES        000000000000 FUJITSU TEN (THAILAN                                                                                                                                            *G         20170615WMF1706151.TXT
MAKK76070689201706D1               89828070100P3YK20170629000180SPEAKER ASM                   M IMCTM CM1    FTTL  07070IMKDC KA PTB  00003  K0                0900DES        000000000000 FUJITSU TEN (THAILAN                                                                                                                                            *G         20170615WMF1706151.TXT
MAKK76070690201706D1               89828070100P3YK20170630000150SPEAKER ASM                   M IMCTM CM1    FTTL  07070IMKDC KA PTB  00003  K0                0900DES        000000000000 FUJITSU TEN (THAILAN                                                                                                                                            *G         20170615WMF1706151.TXT
MAKK76070691201706D1               89828070200P3YK20170626000090SPEAKER ASM                   M IMCTM CM1    FTTL  07070IMKDC KA PTB  00005  K0                0900DES        000000000000 FUJITSU TEN (THAILAN                                                                                                                                            *G         20170615WMF1706151.TXT
MAKK76070692201706D1               89828070200P3YK20170627000120SPEAKER ASM                   M IMCTM CM1    FTTL  07070IMKDC KA PTB  00005  K0                0900DES        000000000000 FUJITSU TEN (THAILAN                                                                                                                                            *G         20170615WMF1706151.TXT
MAKK76070693201706D1               89828070200P3YK20170628000030SPEAKER ASM                   M IMCTM CM1    FTTL  07070IMKDC KA PTB  00005  K0                0900DES        000000000000 FUJITSU TEN (THAILAN                                                                                                                                            *G         20170615WMF1706151.TXT
MAKK76070694201706D1               89828070200P3YK20170629000120SPEAKER ASM                   M IMCTM CM1    FTTL  07070IMKDC KA PTB  00005  K0                0900DES        000000000000 FUJITSU TEN (THAILAN                                                                                                                                            *G         20170615WMF1706151.TXT
MAKK76070695201706D1               89828070200P3YK20170630000060SPEAKER ASM                   M IMCTM CM1    FTTL  07070IMKDC KA PTB  00005  K0                0900DES        000000000000 FUJITSU TEN (THAILAN                                                                                                                                            *G         20170615WMF1706151.TXT
MAKK76070696201706D1               89828070300P3YK20170626000090SPEAKER ASM                   M IMCTM CM1    FTTL  07070IMKDC KA PTB  00015  K0                0900DES        000000000000 FUJITSU TEN (THAILAN                                                                                                                                            *G         20170615WMF1706151.TXT
MAKK76070697201706D1               89828070300P3YK20170627000120SPEAKER ASM                   M IMCTM CM1    FTTL  07070IMKDC KA PTB  00015  K0                0900DES        000000000000 FUJITSU TEN (THAILAN                                                                                                                                            *G         20170615WMF1706151.TXT
MAKK76070698201706D1               89828070300P3YK20170628000030SPEAKER ASM                   M IMCTM CM1    FTTL  07070IMKDC KA PTB  00015  K0                0900DES        000000000000 FUJITSU TEN (THAILAN                                                                                                                                            *G         20170615WMF1706151.TXT
MAKK76070699201706D1               89828070300P3YK20170629000120SPEAKER ASM                   M IMCTM CM1    FTTL  07070IMKDC KA PTB  00015  K0                0900DES        000000000000 FUJITSU TEN (THAILAN                                                                                                                                            *G         20170615WMF1706151.TXT
MAKK76070700201706D1               89828070300P3YK20170630000090SPEAKER ASM                   M IMCTM CM1    FTTL  07070IMKDC KA PTB  00015  K0                0900DES        000000000000 FUJITSU TEN (THAILAN                                                                                                                                            *G         20170615WMF1706151.TXT
MAKK76070701201706D1               89831228800P3YK20170630000015RADIO;AM/FM,CD                M IMCTM CM1    FTTL  07070IMKDC KA PTB  00003  K0                0900DES        000000000000 FUJITSU TEN (THAILAN                                                                                                                                            *G         20170615WMF1706151.TXT
