REC2017060720170607ISUZU                              6      
MADDH6600278201708                 89828070100PV4D20170724000002SPEAKER ASM                   M IMCTM ST00000FTTL  07070IMCT  ST PTB  00004  DC                0000 SR        000000000000 FUJITSU TEN (THAILAN180L2CU0001001                                                                                                                              *P         20170607WMF1706076.TXT
MADDH6600279201708                 89828070300PT4D20170724000002SPEAKER ASM                   M IMCTM ST00000FTTL  07070IMCT  ST PTB  00015  DC                0000 SR        000000000000 FUJITSU TEN (THAILAN180L2CU0001001                                                                                                                              *P         20170607WMF1706076.TXT
MAEDH6600345201708                 89828070100PV4D20170724000004SPEAKER ASM                   M IMCTM ST00000FTTL  07070IMCT  ST PTB  00004  DC                0000 SR        000000000000 FUJITSU TEN (THAILAN18003VU000100118004VU0001001                                                                                                                *P         20170607WMF1706076.TXT
MAEDH6600346201708                 89828070200PV4D20170724000002SPEAKER ASM                   M IMCTM ST00000FTTL  07070IMCT  ST PTB  00005  DC                0000 SR        000000000000 FUJITSU TEN (THAILAN18004VU0001001                                                                                                                              *P         20170607WMF1706076.TXT
MAEDH6600347201708                 89828070300PT4D20170724000004SPEAKER ASM                   M IMCTM ST00000FTTL  07070IMCT  ST PTB  00015  DC                0000 SR        000000000000 FUJITSU TEN (THAILAN18003VU000100118004VU0001001                                                                                                                *P         20170607WMF1706076.TXT
MAEDH6600348201708                 89829622410PT4D20170724000001RADIO;ASM DVD                 M IMCTM ST00000FTTL  07070IMCT  ST PTB  00003  DC                0000 SR        000000000000 FUJITSU TEN (THAILAN18003VU0001001                                                                                                                              *P         20170607WMF1706076.TXT
