REC2017062020170620ISUZU                              58     
MDDDH6260363201706                D89821984430PT1D20170623000030RADIO;AM/FM,CD                M IMCTM S5NC06 FTTL  07070IMCT  S5 PTB  00005                    2230 SR        000000000000 FUJITSU TEN (THAILAN170KNDL0127127                                                                                                                              *          20170620WMF1706204.TXT
MDDDH6260364201706                D89821984430PT1D20170624000030RADIO;AM/FM,CD                M IMCTM S5NC06 FTTL  07070IMCT  S5 PTB  00005                    0400 SR        000000000000 FUJITSU TEN (THAILAN170KNDL0128128                                                                                                                              *          20170620WMF1706204.TXT
MDDDH6260365201706                D89821984430PT1D20170626000030RADIO;AM/FM,CD                M IMCTM S5NC06 FTTL  07070IMCT  S5 PTB  00005                    0900 SR        000000000000 FUJITSU TEN (THAILAN170KRAL0095095                                                                                                                              *          20170620WMF1706204.TXT
MDDDH6260366201706                D89821984430PT1D20170626000030RADIO;AM/FM,CD                M IMCTM S5NC06 FTTL  07070IMCT  S5 PTB  00005                    1300 SR        000000000000 FUJITSU TEN (THAILAN170KNCL0088088                                                                                                                              *          20170620WMF1706204.TXT
MDDDH6260367201706                D89828070100PV1D20170623000060SPEAKER ASM                   M IMCTM S5MB11 FTTL  07070IMCT  S5 PTB  00003                    2230 SR        000000000000 FUJITSU TEN (THAILAN170KNDL0127127                                                                                                                              *          20170620WMF1706204.TXT
MDDDH6260368201706                D89828070100PV1D20170624000060SPEAKER ASM                   M IMCTM S5MB11 FTTL  07070IMCT  S5 PTB  00003                    0230 SR        000000000000 FUJITSU TEN (THAILAN170KNAL0060060                                                                                                                              *          20170620WMF1706204.TXT
MDDDH6260369201706                D89828070100PV1D20170624000060SPEAKER ASM                   M IMCTM S5MB11 FTTL  07070IMCT  S5 PTB  00003                    0400 SR        000000000000 FUJITSU TEN (THAILAN170KNDL0128128                                                                                                                              *          20170620WMF1706204.TXT
MDDDH6260370201706                D89828070100PV1D20170626000120SPEAKER ASM                   M IMCTM S5MB11 FTTL  07070IMCT  S5 PTB  00003                    0900 SR        000000000000 FUJITSU TEN (THAILAN170KRAL0095095170KRQL0006006                                                                                                                *          20170620WMF1706204.TXT
MDDDH6260371201706                D89828070100PV1D20170626000060SPEAKER ASM                   M IMCTM S5MB11 FTTL  07070IMCT  S5 PTB  00003                    1300 SR        000000000000 FUJITSU TEN (THAILAN170KNCL0088088                                                                                                                              *          20170620WMF1706204.TXT
MDDDH6260372201706                D89828070100PV1D20170626000060SPEAKER ASM                   M IMCTM S5MB11 FTTL  07070IMCT  S5 PTB  00003                    1600 SR        000000000000 FUJITSU TEN (THAILAN170KNBL0035035                                                                                                                              *          20170620WMF1706204.TXT
MDDDH6260373201706                D89828070200PV1D20170626000060SPEAKER ASM                   M IMCTM S5MA14 FTTL  07070IMCT  S5 PTB  00005                    0900 SR        000000000000 FUJITSU TEN (THAILAN170KRQL0006006                                                                                                                              *          20170620WMF1706204.TXT
MDDDH6260374201706                D89828070300PT1D20170626000060SPEAKER ASM                   M IMCTM S5NB082FTTL  07070IMCT  S5 PTB  00015                    0900 SR        000000000000 FUJITSU TEN (THAILAN170KRQL0006006                                                                                                                              *          20170620WMF1706204.TXT
MDDUH6236019201706                D89828070100PT4U20170624000030SPEAKER ASM                   M IMCTM S0FL05 FTTL  07070IMCT  S0 PTB  00003                    0230 SR        000000000000 FUJITSU TEN (THAILAN180LUEU0111111                                                                                                                              *          20170620WMF1706204.TXT
MDDUH6236020201706                D89828070100PT4U20170626000030SPEAKER ASM                   M IMCTM S0FL05 FTTL  07070IMCT  S0 PTB  00003                    1600 SR        000000000000 FUJITSU TEN (THAILAN180LUEU0112112                                                                                                                              *          20170620WMF1706204.TXT
MDDUH6236021201706                D89828070200PV4U20170624000030SPEAKER ASM                   M IMCTM S0FR05 FTTL  07070IMCT  S0 PTB  00005                    0230 SR        000000000000 FUJITSU TEN (THAILAN180LUEU0111111                                                                                                                              *          20170620WMF1706204.TXT
MDDUH6236022201706                D89828070200PV4U20170626000030SPEAKER ASM                   M IMCTM S0FR05 FTTL  07070IMCT  S0 PTB  00005                    1600 SR        000000000000 FUJITSU TEN (THAILAN180LUEU0112112                                                                                                                              *          20170620WMF1706204.TXT
MDDUH6236023201706                D89828070300PT4U20170624000030SPEAKER ASM                   M IMCTM S9TS02 FTTL  07070IMCT  S9 PTB  00015                    0230 SR        000000000000 FUJITSU TEN (THAILAN180LUEU0111111                                                                                                                              *          20170620WMF1706204.TXT
MDDUH6236024201706                D89828070300PT4U20170626000030SPEAKER ASM                   M IMCTM S9TS02 FTTL  07070IMCT  S9 PTB  00015                    1600 SR        000000000000 FUJITSU TEN (THAILAN180LUEU0112112                                                                                                                              *          20170620WMF1706204.TXT
MDEDH6292841201706                D89828070100PV1D20170623000030SPEAKER ASM                   M IMCTM S5MB11 FTTL  07070IMCT  S5 PTB  00003                    2230 SR        000000000000 FUJITSU TEN (THAILAN17074NL0045045                                                                                                                              *          20170620WMF1706204.TXT
MDEDH6292842201706                D89828070100PV1D20170624000060SPEAKER ASM                   M IMCTM S5MB11 FTTL  07070IMCT  S5 PTB  00003                    0230 SR        000000000000 FUJITSU TEN (THAILAN17057NL0031032                                                                                                                              *          20170620WMF1706204.TXT
MDEDH6292843201706                D89828070100PV1D20170624000060SPEAKER ASM                   M IMCTM S5MB11 FTTL  07070IMCT  S5 PTB  00003                    0400 SR        000000000000 FUJITSU TEN (THAILAN17052TL0002003                                                                                                                              *          20170620WMF1706204.TXT
MDEDH6292844201706                D89828070100PV1D20170626000030SPEAKER ASM                   M IMCTM S5MB11 FTTL  07070IMCT  S5 PTB  00003                    1300 SR        000000000000 FUJITSU TEN (THAILAN17052TL0004004                                                                                                                              *          20170620WMF1706204.TXT
MDEDH6292845201706                D89828070100PV1D20170626000030SPEAKER ASM                   M IMCTM S5MB11 FTTL  07070IMCT  S5 PTB  00003                    1600 SR        000000000000 FUJITSU TEN (THAILAN17050RL0013013                                                                                                                              *          20170620WMF1706204.TXT
MDEDH6292846201706                D89828070100PV1D20170626000030SPEAKER ASM                   M IMCTM S5MB11 FTTL  07070IMCT  S5 PTB  00003                    2100 SR        000000000000 FUJITSU TEN (THAILAN17060NL0023023                                                                                                                              *          20170620WMF1706204.TXT
MDEDH6292847201706                D89828070100PV1D20170626000030SPEAKER ASM                   M IMCTM S5MB11 FTTL  07070IMCT  S5 PTB  00003                    2230 SR        000000000000 FUJITSU TEN (THAILAN17028QL0001001                                                                                                                              *          20170620WMF1706204.TXT
MDEDH6292848201706                D89828070100PV4D20170626000030SPEAKER ASM                   M IMCTM S0FL05 FTTL  07070IMCT  S0 PTB  00003                    1300 SR        000000000000 FUJITSU TEN (THAILAN17074NU0011011                                                                                                                              *          20170620WMF1706204.TXT
MDEDH6292849201706                D89828070200PV1D20170623000030SPEAKER ASM                   M IMCTM S5MA14 FTTL  07070IMCT  S5 PTB  00005                    2230 SR        000000000000 FUJITSU TEN (THAILAN17074NL0045045                                                                                                                              *          20170620WMF1706204.TXT
MDEDH6292850201706                D89828070200PV1D20170624000060SPEAKER ASM                   M IMCTM S5MA14 FTTL  07070IMCT  S5 PTB  00005                    0230 SR        000000000000 FUJITSU TEN (THAILAN17057NL0031032                                                                                                                              *          20170620WMF1706204.TXT
MDEDH6292851201706                D89828070200PV1D20170626000030SPEAKER ASM                   M IMCTM S5MA14 FTTL  07070IMCT  S5 PTB  00005                    1600 SR        000000000000 FUJITSU TEN (THAILAN17050RL0013013                                                                                                                              *          20170620WMF1706204.TXT
MDEDH6292852201706                D89828070200PV1D20170626000030SPEAKER ASM                   M IMCTM S5MA14 FTTL  07070IMCT  S5 PTB  00005                    2100 SR        000000000000 FUJITSU TEN (THAILAN17060NL0023023                                                                                                                              *          20170620WMF1706204.TXT
MDEDH6292853201706                D89828070200PV1D20170626000030SPEAKER ASM                   M IMCTM S5MA14 FTTL  07070IMCT  S5 PTB  00005                    2230 SR        000000000000 FUJITSU TEN (THAILAN17028QL0001001                                                                                                                              *          20170620WMF1706204.TXT
MDEDH6292854201706                D89828070200PV4D20170626000030SPEAKER ASM                   M IMCTM S0FR05 FTTL  07070IMCT  S0 PTB  00005                    1300 SR        000000000000 FUJITSU TEN (THAILAN17074NU0011011                                                                                                                              *          20170620WMF1706204.TXT
MDEDH6292855201706                D89828070300PT1D20170623000030SPEAKER ASM                   M IMCTM S5NB082FTTL  07070IMCT  S5 PTB  00015                    2230 SR        000000000000 FUJITSU TEN (THAILAN17074NL0045045                                                                                                                              *          20170620WMF1706204.TXT
MDEDH6292856201706                D89828070300PT1D20170624000060SPEAKER ASM                   M IMCTM S5NB082FTTL  07070IMCT  S5 PTB  00015                    0230 SR        000000000000 FUJITSU TEN (THAILAN17057NL0031032                                                                                                                              *          20170620WMF1706204.TXT
MDEDH6292857201706                D89828070300PT1D20170626000030SPEAKER ASM                   M IMCTM S5NB082FTTL  07070IMCT  S5 PTB  00015                    1600 SR        000000000000 FUJITSU TEN (THAILAN17050RL0013013                                                                                                                              *          20170620WMF1706204.TXT
MDEDH6292858201706                D89828070300PT1D20170626000030SPEAKER ASM                   M IMCTM S5NB082FTTL  07070IMCT  S5 PTB  00015                    2100 SR        000000000000 FUJITSU TEN (THAILAN17060NL0023023                                                                                                                              *          20170620WMF1706204.TXT
MDEDH6292859201706                D89828070300PT1D20170626000030SPEAKER ASM                   M IMCTM S5NB082FTTL  07070IMCT  S5 PTB  00015                    2230 SR        000000000000 FUJITSU TEN (THAILAN17028QL0001001                                                                                                                              *          20170620WMF1706204.TXT
MDEDH6292860201706                D89828070300PT4D20170626000030SPEAKER ASM                   M IMCTM S9TS02 FTTL  07070IMCT  S9 PTB  00015                    1300 SR        000000000000 FUJITSU TEN (THAILAN17074NU0011011                                                                                                                              *          20170620WMF1706204.TXT
MDEDH6292861201706                D89829645410PT1D20170626000015RADIO;ASM DVD                 M IMCTM S5NC06 FTTL  07070IMCT  S5 PTB  00003                    1600 SR        000000000000 FUJITSU TEN (THAILAN17050RL0013013                                                                                                                              *          20170620WMF1706204.TXT
MDEDH6292862201706                D89831229200PT1D20170626000015RADIO;AM/FM,CD                M IMCTM S5NC06 FTTL  07070IMCT  S5 PTB  00003                    2230 SR        000000000000 FUJITSU TEN (THAILAN17028QL0001001                                                                                                                              *          20170620WMF1706204.TXT
MDEDH6292863201706                D89848581800PT1D20170623000015RADIO;AM/FM CD D              M IMCTM S5NC06 FTTL  07070IMCT  S5 PTB  00003                    2230 SR        000000000000 FUJITSU TEN (THAILAN17074NL0045045                                                                                                                              *          20170620WMF1706204.TXT
MDEDH6292864201706                D89848581800PT1D20170624000030RADIO;AM/FM CD D              M IMCTM S5NC06 FTTL  07070IMCT  S5 PTB  00003                    0230 SR        000000000000 FUJITSU TEN (THAILAN17057NL0031032                                                                                                                              *          20170620WMF1706204.TXT
MDEDH6292865201706                D89848581800PT4D20170626000015RADIO;AM/FM CD D              M IMCTM S9CO001FTTL  07070IMCT  S9 PTB  00003                    1300 SR        000000000000 FUJITSU TEN (THAILAN17074NU0011011                                                                                                                              *          20170620WMF1706204.TXT
MDEUH6259746201706                D89828070100PT4U20170623000060SPEAKER ASM                   M IMCTM S0FL05 FTTL  07070IMCT  S0 PTB  00003                    2230 SR        000000000000 FUJITSU TEN (THAILAN170C12U005105118022TU0028028                                                                                                                *          20170620WMF1706204.TXT
MDEUH6259747201706                D89828070100PT4U20170624000030SPEAKER ASM                   M IMCTM S0FL05 FTTL  07070IMCT  S0 PTB  00003                    0400 SR        000000000000 FUJITSU TEN (THAILAN170C12U0052052                                                                                                                              *          20170620WMF1706204.TXT
MDEUH6259748201706                D89828070100PT4U20170626000060SPEAKER ASM                   M IMCTM S0FL05 FTTL  07070IMCT  S0 PTB  00003                    0900 SR        000000000000 FUJITSU TEN (THAILAN170C16U024824818023TU0108108                                                                                                                *          20170620WMF1706204.TXT
MDEUH6259749201706                D89828070100PT4U20170626000030SPEAKER ASM                   M IMCTM S0FL05 FTTL  07070IMCT  S0 PTB  00003                    1300 SR        000000000000 FUJITSU TEN (THAILAN170C12U0053053                                                                                                                              *          20170620WMF1706204.TXT
MDEUH6259750201706                D89828070100PT4U20170626000030SPEAKER ASM                   M IMCTM S0FL05 FTTL  07070IMCT  S0 PTB  00003                    1600 SR        000000000000 FUJITSU TEN (THAILAN18017TU0018018                                                                                                                              *          20170620WMF1706204.TXT
MDEUH6259751201706                D89828070200PV4U20170623000060SPEAKER ASM                   M IMCTM S0FR05 FTTL  07070IMCT  S0 PTB  00005                    2230 SR        000000000000 FUJITSU TEN (THAILAN170C12U005105118022TU0028028                                                                                                                *          20170620WMF1706204.TXT
MDEUH6259752201706                D89828070200PV4U20170624000030SPEAKER ASM                   M IMCTM S0FR05 FTTL  07070IMCT  S0 PTB  00005                    0400 SR        000000000000 FUJITSU TEN (THAILAN170C12U0052052                                                                                                                              *          20170620WMF1706204.TXT
MDEUH6259753201706                D89828070200PV4U20170626000060SPEAKER ASM                   M IMCTM S0FR05 FTTL  07070IMCT  S0 PTB  00005                    0900 SR        000000000000 FUJITSU TEN (THAILAN170C16U024824818023TU0108108                                                                                                                *          20170620WMF1706204.TXT
MDEUH6259754201706                D89828070200PV4U20170626000030SPEAKER ASM                   M IMCTM S0FR05 FTTL  07070IMCT  S0 PTB  00005                    1300 SR        000000000000 FUJITSU TEN (THAILAN170C12U0053053                                                                                                                              *          20170620WMF1706204.TXT
MDEUH6259755201706                D89828070200PV4U20170626000030SPEAKER ASM                   M IMCTM S0FR05 FTTL  07070IMCT  S0 PTB  00005                    1600 SR        000000000000 FUJITSU TEN (THAILAN18017TU0018018                                                                                                                              *          20170620WMF1706204.TXT
MDEUH6259756201706                D89828070300PT4U20170623000060SPEAKER ASM                   M IMCTM S9TS02 FTTL  07070IMCT  S9 PTB  00015                    2230 SR        000000000000 FUJITSU TEN (THAILAN170C12U005105118022TU0028028                                                                                                                *          20170620WMF1706204.TXT
MDEUH6259757201706                D89828070300PT4U20170624000030SPEAKER ASM                   M IMCTM S9TS02 FTTL  07070IMCT  S9 PTB  00015                    0400 SR        000000000000 FUJITSU TEN (THAILAN170C12U0052052                                                                                                                              *          20170620WMF1706204.TXT
MDEUH6259758201706                D89828070300PT4U20170626000060SPEAKER ASM                   M IMCTM S9TS02 FTTL  07070IMCT  S9 PTB  00015                    0900 SR        000000000000 FUJITSU TEN (THAILAN170C16U024824818023TU0108108                                                                                                                *          20170620WMF1706204.TXT
MDEUH6259759201706                D89828070300PT4U20170626000030SPEAKER ASM                   M IMCTM S9TS02 FTTL  07070IMCT  S9 PTB  00015                    1300 SR        000000000000 FUJITSU TEN (THAILAN170C12U0053053                                                                                                                              *          20170620WMF1706204.TXT
MDEUH6259760201706                D89828070300PT4U20170626000030SPEAKER ASM                   M IMCTM S9TS02 FTTL  07070IMCT  S9 PTB  00015                    1600 SR        000000000000 FUJITSU TEN (THAILAN18017TU0018018                                                                                                                              *          20170620WMF1706204.TXT
