REC2017062620170626ISUZU                              53     
MDDDH6275722201706                D89821984430PT1D20170630000030RADIO;AM/FM,CD                M IMCTM S5NC06 FTTL  07070IMCT  S5 PTB  00005                    0230 SR        000000000000 FUJITSU TEN (THAILAN170KNEL0125125                                                                                                                              *          20170626WMF1706264.TXT
MDDDH6275723201706                D89821984430PT1D20170630000030RADIO;AM/FM,CD                M IMCTM S5NC06 FTTL  07070IMCT  S5 PTB  00005                    0400 SR        000000000000 FUJITSU TEN (THAILAN170KNFL0048048                                                                                                                              *          20170626WMF1706264.TXT
MDDDH6275724201706                D89821984430PT1D20170630000030RADIO;AM/FM,CD                M IMCTM S5NC06 FTTL  07070IMCT  S5 PTB  00005                    1300 SR        000000000000 FUJITSU TEN (THAILAN170KNEL0126126                                                                                                                              *          20170626WMF1706264.TXT
MDDDH6275725201706                D89828070100PV1D20170630000060SPEAKER ASM                   M IMCTM S5MB11 FTTL  07070IMCT  S5 PTB  00004                    0230 SR        000000000000 FUJITSU TEN (THAILAN170KNEL0125125                                                                                                                              *          20170626WMF1706264.TXT
MDDDH6275726201706                D89828070100PV1D20170630000120SPEAKER ASM                   M IMCTM S5MB11 FTTL  07070IMCT  S5 PTB  00004                    0400 SR        000000000000 FUJITSU TEN (THAILAN170KNFL0048048170KREL0037037                                                                                                                *          20170626WMF1706264.TXT
MDDDH6275727201706                D89828070100PV1D20170630000120SPEAKER ASM                   M IMCTM S5MB11 FTTL  07070IMCT  S5 PTB  00004                    0900 SR        000000000000 FUJITSU TEN (THAILAN170KPNL0004004170KRRL0026026                                                                                                                *          20170626WMF1706264.TXT
MDDDH6275728201706                D89828070100PV1D20170630000060SPEAKER ASM                   M IMCTM S5MB11 FTTL  07070IMCT  S5 PTB  00004                    1300 SR        000000000000 FUJITSU TEN (THAILAN170KNEL0126126                                                                                                                              *          20170626WMF1706264.TXT
MDDDH6275729201706                D89828070200PV1D20170630000060SPEAKER ASM                   M IMCTM S5MA14 FTTL  07070IMCT  S5 PTB  00005                    0400 SR        000000000000 FUJITSU TEN (THAILAN170KREL0037037                                                                                                                              *          20170626WMF1706264.TXT
MDDDH6275730201706                D89828070200PV1D20170630000060SPEAKER ASM                   M IMCTM S5MA14 FTTL  07070IMCT  S5 PTB  00005                    0900 SR        000000000000 FUJITSU TEN (THAILAN170KRRL0026026                                                                                                                              *          20170626WMF1706264.TXT
MDDDH6275731201706                D89828070300PT1D20170630000060SPEAKER ASM                   M IMCTM S5NB082FTTL  07070IMCT  S5 PTB  00015                    0400 SR        000000000000 FUJITSU TEN (THAILAN170KREL0037037                                                                                                                              *          20170626WMF1706264.TXT
MDDDH6275732201706                D89828070300PT1D20170630000120SPEAKER ASM                   M IMCTM S5NB082FTTL  07070IMCT  S5 PTB  00015                    0900 SR        000000000000 FUJITSU TEN (THAILAN170KPNL0004004170KRRL0026026                                                                                                                *          20170626WMF1706264.TXT
MDDDH6275733201706                D89831228400PT1D20170630000030RADIO;AM/FM,CD                M IMCTM S5NC06 FTTL  07070IMCT  S5 CPB  00003                    0400 SR        000000000000 FUJITSU TEN (THAILAN170KREL0037037                                                                                                                              *          20170626WMF1706264.TXT
MDEDH6312899201706                D89828070100PV1D20170629000090SPEAKER ASM                   M IMCTM S5MB11 FTTL  07070IMCT  S5 PTB  00004                    2230 SR        000000000000 FUJITSU TEN (THAILAN17060NL002402517071NL0012012                                                                                                                *          20170626WMF1706264.TXT
MDEDH6312900201706                D89828070100PV1D20170630000030SPEAKER ASM                   M IMCTM S5MB11 FTTL  07070IMCT  S5 PTB  00004                    0230 SR        000000000000 FUJITSU TEN (THAILAN17074NL0052052                                                                                                                              *          20170626WMF1706264.TXT
MDEDH6312901201706                D89828070100PV1D20170630000030SPEAKER ASM                   M IMCTM S5MB11 FTTL  07070IMCT  S5 PTB  00004                    1300 SR        000000000000 FUJITSU TEN (THAILAN17052TL0007007                                                                                                                              *          20170626WMF1706264.TXT
MDEDH6312902201706                D89828070100PV1D20170630000060SPEAKER ASM                   M IMCTM S5MB11 FTTL  07070IMCT  S5 PTB  00004                    1600 SR        000000000000 FUJITSU TEN (THAILAN17013QL002302317052TL0008008                                                                                                                *          20170626WMF1706264.TXT
MDEDH6312903201706                D89828070100PV1D20170630000060SPEAKER ASM                   M IMCTM S5MB11 FTTL  07070IMCT  S5 PTB  00004                    2100 SR        000000000000 FUJITSU TEN (THAILAN17013QL002402417079QL0014014                                                                                                                *          20170626WMF1706264.TXT
MDEDH6312904201706                D89828070100PV4D20170630000030SPEAKER ASM                   M IMCTM S0FL05 FTTL  07070IMCT  S0 PTB  00004                    0900 SR        000000000000 FUJITSU TEN (THAILAN17055NU0026026                                                                                                                              *          20170626WMF1706264.TXT
MDEDH6312905201706                D89828070200PV1D20170629000090SPEAKER ASM                   M IMCTM S5MA14 FTTL  07070IMCT  S5 PTB  00005                    2230 SR        000000000000 FUJITSU TEN (THAILAN17060NL002402517071NL0012012                                                                                                                *          20170626WMF1706264.TXT
MDEDH6312906201706                D89828070200PV1D20170630000030SPEAKER ASM                   M IMCTM S5MA14 FTTL  07070IMCT  S5 PTB  00005                    0230 SR        000000000000 FUJITSU TEN (THAILAN17074NL0052052                                                                                                                              *          20170626WMF1706264.TXT
MDEDH6312907201706                D89828070200PV1D20170630000030SPEAKER ASM                   M IMCTM S5MA14 FTTL  07070IMCT  S5 PTB  00005                    1600 SR        000000000000 FUJITSU TEN (THAILAN17013QL0023023                                                                                                                              *          20170626WMF1706264.TXT
MDEDH6312908201706                D89828070200PV1D20170630000030SPEAKER ASM                   M IMCTM S5MA14 FTTL  07070IMCT  S5 PTB  00005                    2100 SR        000000000000 FUJITSU TEN (THAILAN17013QL0024024                                                                                                                              *          20170626WMF1706264.TXT
MDEDH6312909201706                D89828070300PT1D20170629000090SPEAKER ASM                   M IMCTM S5NB082FTTL  07070IMCT  S5 PTB  00015                    2230 SR        000000000000 FUJITSU TEN (THAILAN17060NL002402517071NL0012012                                                                                                                *          20170626WMF1706264.TXT
MDEDH6312910201706                D89828070300PT1D20170630000030SPEAKER ASM                   M IMCTM S5NB082FTTL  07070IMCT  S5 PTB  00015                    0230 SR        000000000000 FUJITSU TEN (THAILAN17074NL0052052                                                                                                                              *          20170626WMF1706264.TXT
MDEDH6312911201706                D89828070300PT1D20170630000030SPEAKER ASM                   M IMCTM S5NB082FTTL  07070IMCT  S5 PTB  00015                    1600 SR        000000000000 FUJITSU TEN (THAILAN17013QL0023023                                                                                                                              *          20170626WMF1706264.TXT
MDEDH6312912201706                D89828070300PT1D20170630000030SPEAKER ASM                   M IMCTM S5NB082FTTL  07070IMCT  S5 PTB  00015                    2100 SR        000000000000 FUJITSU TEN (THAILAN17013QL0024024                                                                                                                              *          20170626WMF1706264.TXT
MDEDH6312913201706                D89828070300PT4D20170630000030SPEAKER ASM                   M IMCTM S9TS02 FTTL  07070IMCT  S9 PTB  00015                    0900 SR        000000000000 FUJITSU TEN (THAILAN17055NU0026026                                                                                                                              *          20170626WMF1706264.TXT
MDEDH6312914201706                D89831229200PT1D20170630000015RADIO;AM/FM,CD                M IMCTM S5NC06 FTTL  07070IMCT  S5 PTB  00003                    1600 SR        000000000000 FUJITSU TEN (THAILAN17013QL0023023                                                                                                                              *          20170626WMF1706264.TXT
MDEDH6312915201706                D89831229200PT1D20170630000015RADIO;AM/FM,CD                M IMCTM S5NC06 FTTL  07070IMCT  S5 PTB  00003                    2100 SR        000000000000 FUJITSU TEN (THAILAN17013QL0024024                                                                                                                              *          20170626WMF1706264.TXT
MDEDH6312916201706                D89848581800PT1D20170629000015RADIO;AM/FM CD D              M IMCTM S5NC06 FTTL  07070IMCT  S5 PTB  00003                    2230 SR        000000000000 FUJITSU TEN (THAILAN17071NL0012012                                                                                                                              *          20170626WMF1706264.TXT
MDEDH6312917201706                D89848581800PT1D20170630000015RADIO;AM/FM CD D              M IMCTM S5NC06 FTTL  07070IMCT  S5 PTB  00003                    0230 SR        000000000000 FUJITSU TEN (THAILAN17074NL0052052                                                                                                                              *          20170626WMF1706264.TXT
MDEDH6312918201706                D89848581800PT4D20170630000015RADIO;AM/FM CD D              M IMCTM S9CO001FTTL  07070IMCT  S9 PTB  00003                    0900 SR        000000000000 FUJITSU TEN (THAILAN17055NU0026026                                                                                                                              *          20170626WMF1706264.TXT
MDEUH6279664201706                D89828070100PT4U20170629000060SPEAKER ASM                   M IMCTM S0FL05 FTTL  07070IMCT  S0 PTB  00004                    2230 SR        000000000000 FUJITSU TEN (THAILAN170C16U025825818022TU0033033                                                                                                                *          20170626WMF1706264.TXT
MDEUH6279665201706                D89828070100PT4U20170630000030SPEAKER ASM                   M IMCTM S0FL05 FTTL  07070IMCT  S0 PTB  00004                    0230 SR        000000000000 FUJITSU TEN (THAILAN18017TU0022022                                                                                                                              *          20170626WMF1706264.TXT
MDEUH6279666201706                D89828070100PT4U20170630000030SPEAKER ASM                   M IMCTM S0FL05 FTTL  07070IMCT  S0 PTB  00004                    0400 SR        000000000000 FUJITSU TEN (THAILAN170C16U0259259                                                                                                                              *          20170626WMF1706264.TXT
MDEUH6279667201706                D89828070100PT4U20170630000030SPEAKER ASM                   M IMCTM S0FL05 FTTL  07070IMCT  S0 PTB  00004                    0900 SR        000000000000 FUJITSU TEN (THAILAN18022TU0034034                                                                                                                              *          20170626WMF1706264.TXT
MDEUH6279668201706                D89828070100PT4U20170630000060SPEAKER ASM                   M IMCTM S0FL05 FTTL  07070IMCT  S0 PTB  00004                    1300 SR        000000000000 FUJITSU TEN (THAILAN170C16U0260261                                                                                                                              *          20170626WMF1706264.TXT
MDEUH6279669201706                D89828070100PT4U20170630000030SPEAKER ASM                   M IMCTM S0FL05 FTTL  07070IMCT  S0 PTB  00004                    1600 SR        000000000000 FUJITSU TEN (THAILAN170C16U0262262                                                                                                                              *          20170626WMF1706264.TXT
MDEUH6279670201706                D89828070100PT4U20170630000030SPEAKER ASM                   M IMCTM S0FL05 FTTL  07070IMCT  S0 PTB  00004                    2100 SR        000000000000 FUJITSU TEN (THAILAN18022TU0035035                                                                                                                              *          20170626WMF1706264.TXT
MDEUH6279671201706                D89828070200PV4U20170629000060SPEAKER ASM                   M IMCTM S0FR05 FTTL  07070IMCT  S0 PTB  00005                    2230 SR        000000000000 FUJITSU TEN (THAILAN170C16U025825818022TU0033033                                                                                                                *          20170626WMF1706264.TXT
MDEUH6279672201706                D89828070200PV4U20170630000030SPEAKER ASM                   M IMCTM S0FR05 FTTL  07070IMCT  S0 PTB  00005                    0230 SR        000000000000 FUJITSU TEN (THAILAN18017TU0022022                                                                                                                              *          20170626WMF1706264.TXT
MDEUH6279673201706                D89828070200PV4U20170630000030SPEAKER ASM                   M IMCTM S0FR05 FTTL  07070IMCT  S0 PTB  00005                    0400 SR        000000000000 FUJITSU TEN (THAILAN170C16U0259259                                                                                                                              *          20170626WMF1706264.TXT
MDEUH6279674201706                D89828070200PV4U20170630000030SPEAKER ASM                   M IMCTM S0FR05 FTTL  07070IMCT  S0 PTB  00005                    0900 SR        000000000000 FUJITSU TEN (THAILAN18022TU0034034                                                                                                                              *          20170626WMF1706264.TXT
MDEUH6279675201706                D89828070200PV4U20170630000060SPEAKER ASM                   M IMCTM S0FR05 FTTL  07070IMCT  S0 PTB  00005                    1300 SR        000000000000 FUJITSU TEN (THAILAN170C16U0260261                                                                                                                              *          20170626WMF1706264.TXT
MDEUH6279676201706                D89828070200PV4U20170630000030SPEAKER ASM                   M IMCTM S0FR05 FTTL  07070IMCT  S0 PTB  00005                    1600 SR        000000000000 FUJITSU TEN (THAILAN170C16U0262262                                                                                                                              *          20170626WMF1706264.TXT
MDEUH6279677201706                D89828070200PV4U20170630000030SPEAKER ASM                   M IMCTM S0FR05 FTTL  07070IMCT  S0 PTB  00005                    2100 SR        000000000000 FUJITSU TEN (THAILAN18022TU0035035                                                                                                                              *          20170626WMF1706264.TXT
MDEUH6279678201706                D89828070300PT4U20170629000060SPEAKER ASM                   M IMCTM S9TS02 FTTL  07070IMCT  S9 PTB  00015                    2230 SR        000000000000 FUJITSU TEN (THAILAN170C16U025825818022TU0033033                                                                                                                *          20170626WMF1706264.TXT
MDEUH6279679201706                D89828070300PT4U20170630000030SPEAKER ASM                   M IMCTM S9TS02 FTTL  07070IMCT  S9 PTB  00015                    0230 SR        000000000000 FUJITSU TEN (THAILAN18017TU0022022                                                                                                                              *          20170626WMF1706264.TXT
MDEUH6279680201706                D89828070300PT4U20170630000030SPEAKER ASM                   M IMCTM S9TS02 FTTL  07070IMCT  S9 PTB  00015                    0400 SR        000000000000 FUJITSU TEN (THAILAN170C16U0259259                                                                                                                              *          20170626WMF1706264.TXT
MDEUH6279681201706                D89828070300PT4U20170630000030SPEAKER ASM                   M IMCTM S9TS02 FTTL  07070IMCT  S9 PTB  00015                    0900 SR        000000000000 FUJITSU TEN (THAILAN18022TU0034034                                                                                                                              *          20170626WMF1706264.TXT
MDEUH6279682201706                D89828070300PT4U20170630000060SPEAKER ASM                   M IMCTM S9TS02 FTTL  07070IMCT  S9 PTB  00015                    1300 SR        000000000000 FUJITSU TEN (THAILAN170C16U0260261                                                                                                                              *          20170626WMF1706264.TXT
MDEUH6279683201706                D89828070300PT4U20170630000030SPEAKER ASM                   M IMCTM S9TS02 FTTL  07070IMCT  S9 PTB  00015                    1600 SR        000000000000 FUJITSU TEN (THAILAN170C16U0262262                                                                                                                              *          20170626WMF1706264.TXT
MDEUH6279684201706                D89828070300PT4U20170630000030SPEAKER ASM                   M IMCTM S9TS02 FTTL  07070IMCT  S9 PTB  00015                    2100 SR        000000000000 FUJITSU TEN (THAILAN18022TU0035035                                                                                                                              *          20170626WMF1706264.TXT
