REC2017060520170605ISUZU                              13     
MDEFH6T02762201706                D89805293700PV4F20170608000004SPEAKER ASM                   M IMCTM S7FR05 FTTL  07070IMCT  S7 PTB  00003                    1600 SR        000000000000 FUJITSU TEN (THAILAN15010HR0077   15010HR0078   D170601901    D170601902    000000                                                                              *R         20170605RDF1706054.TXT
MDEFH6T02763201706                D89805294000PT4F20170608000004SPEAKER ASM                   M IMCTM S7TS02 FTTL  07070IMCT  S7 PTB  00015                    1600 SR        000000000000 FUJITSU TEN (THAILAN15010HR0077   15010HR0078   D170601901    D170601902    000000                                                                              *R         20170605RDF1706054.TXT
MDEFH6T02764201706                D89805294100PV4F20170608000004SPEAKER ASM                   M IMCTM S7FR05 FTTL  07070IMCT  S7 PTB  00005                    1600 SR        000000000000 FUJITSU TEN (THAILAN15010HR0077   15010HR0078   D170601901    D170601902    000000                                                                              *R         20170605RDF1706054.TXT
MDEFH6T02765201706                D89828070100PV4F20170609000030SPEAKER ASM                   M IMCTM S7FL05 FTTL  07070IMCT  S7 PTB  00004                    0900 SR        000000000000 FUJITSU TEN (THAILAN17030NR0029   17039NR0039   D170602101    D170602115    000000                                                                              *R         20170605RDF1706054.TXT
MDEFH6T02766201706                D89828070200PV4F20170609000022SPEAKER ASM                   M IMCTM S7TS02 FTTL  07070IMCT  S7 PTB  00005                    0900 SR        000000000000 FUJITSU TEN (THAILAN17032NR0037   17039NR0039   D170602104    D170602115    000000                                                                              *R         20170605RDF1706054.TXT
MDEFH6T02767201706                D89828070300PT4F20170609000017SPEAKER ASM                   M IMCTM S7TS02 FTTL  07070IMCT  S7 PTB  00015                    0900 SR        000000000000 FUJITSU TEN (THAILAN17032NR0039   17039NR0039   D170602106    D170602115    000000                                                                              *R         20170605RDF1706054.TXT
MDEFH6T02768201706                D89829645510PT4F20170608000001RADIO;ASM DVD                 M IMCTM S7TS03 FTTL  07070IMCT  S7 CPB  00003                    1600 SR        000000000000 FUJITSU TEN (THAILAN17001RR0019   17001RR0019   D170601903    D170601903    000000                                                                              *R         20170605RDF1706054.TXT
MDEFH6208582201706                D89828070100PV4F20170608000016SPEAKER ASM                   M IMCTM S7FL05 FTTL  07070IMCT  S7 PTB  00004                    1600 SR        000000000000 FUJITSU TEN (THAILAN17001RR0019   17010MR0031   D170601903    D170601910    000000                                                                              *R         20170605RDF1706054.TXT
MDEFH6208583201706                D89828070100PV4F20170608000012SPEAKER ASM                   M IMCTM S7FL05 FTTL  07070IMCT  S7 PTB  00004                    2100 SR        000000000000 FUJITSU TEN (THAILAN17002MR0005   17030NR0028   C170602001    D170601915    000000                                                                              *R         20170605RDF1706054.TXT
MDEFH6208584201706                D89828070100PV4F20170609000028SPEAKER ASM                   M IMCTM S7FL05 FTTL  07070IMCT  S7 PTB  00004                    0230 SR        000000000000 FUJITSU TEN (THAILAN17015RR0016   17066QR0050   C170602002    C170602015    000000                                                                              *R         20170605RDF1706054.TXT
MDEFH6208585201706                D89828070200PV4F20170608000005SPEAKER ASM                   M IMCTM S7TS02 FTTL  07070IMCT  S7 PTB  00005                    1600 SR        000000000000 FUJITSU TEN (THAILAN17015RR0016   17009NR0015   C170602002    D170601904    000000                                                                              *R         20170605RDF1706054.TXT
MDEFH6208586201706                D89828070200PV4F20170609000005SPEAKER ASM                   M IMCTM S7TS02 FTTL  07070IMCT  S7 PTB  00005                    0230 SR        000000000000 FUJITSU TEN (THAILAN17015RR0016   17032NR0036   C170602002    D170602103    000000                                                                              *R         20170605RDF1706054.TXT
MDEFH6208587201706                D89828070300PT4F20170608000015SPEAKER ASM                   M IMCTM S7TS02 FTTL  07070IMCT  S7 PTB  00015                    1600 SR        000000000000 FUJITSU TEN (THAILAN17015RR0016   17032NR0039   C170602002    D170602106    000000                                                                              *R         20170605RDF1706054.TXT
