REC2017060620170606ISUZU                              67     
MDDDH6212988201706                D89821984430PT1D20170610000030RADIO;AM/FM,CD                M IMCTM S5NC06 FTTL  07070IMCT  S5 PTB  00005                    0230 SR        000000000000 FUJITSU TEN (THAILAN170KNDL0120120                                                                                                                              *          20170606WMF1706064.TXT
MDDDH6212989201706                D89821984430PT1D20170610000030RADIO;AM/FM,CD                M IMCTM S5NC06 FTTL  07070IMCT  S5 PTB  00005                    0400 SR        000000000000 FUJITSU TEN (THAILAN170KRAL0091091                                                                                                                              *          20170606WMF1706064.TXT
MDDDH6212990201706                D89821984430PT1D20170610000030RADIO;AM/FM,CD                M IMCTM S5NC06 FTTL  07070IMCT  S5 PTB  00005                    0900 SR        000000000000 FUJITSU TEN (THAILAN170KPAL0118118                                                                                                                              *          20170606WMF1706064.TXT
MDDDH6212991201706                D89828070100PV1D20170610000060SPEAKER ASM                   M IMCTM S5MB11 FTTL  07070IMCT  S5 PTB  00004                    0230 SR        000000000000 FUJITSU TEN (THAILAN170KNDL0120120                                                                                                                              *          20170606WMF1706064.TXT
MDDDH6212992201706                D89828070100PV1D20170610000120SPEAKER ASM                   M IMCTM S5MB11 FTTL  07070IMCT  S5 PTB  00004                    0400 SR        000000000000 FUJITSU TEN (THAILAN170KRAL0091091170KRSL0045045                                                                                                                *          20170606WMF1706064.TXT
MDDDH6212993201706                D89828070100PV1D20170610000060SPEAKER ASM                   M IMCTM S5MB11 FTTL  07070IMCT  S5 PTB  00004                    0900 SR        000000000000 FUJITSU TEN (THAILAN170KPAL0118118                                                                                                                              *          20170606WMF1706064.TXT
MDDDH6212994201706                D89828070100PV1D20170610000120SPEAKER ASM                   M IMCTM S5MB11 FTTL  07070IMCT  S5 PTB  00004                    1300 SR        000000000000 FUJITSU TEN (THAILAN170KPFL0176176170KRDL0014014                                                                                                                *          20170606WMF1706064.TXT
MDDDH6212995201706                D89828070100PV1D20170610000060SPEAKER ASM                   M IMCTM S5MB11 FTTL  07070IMCT  S5 PTB  00004                    2100 SR        000000000000 FUJITSU TEN (THAILAN170KREL0033033                                                                                                                              *          20170606WMF1706064.TXT
MDDDH6212996201706                D89828070200PV1D20170610000060SPEAKER ASM                   M IMCTM S5MA14 FTTL  07070IMCT  S5 PTB  00005                    0400 SR        000000000000 FUJITSU TEN (THAILAN170KRSL0045045                                                                                                                              *          20170606WMF1706064.TXT
MDDDH6212997201706                D89828070200PV1D20170610000060SPEAKER ASM                   M IMCTM S5MA14 FTTL  07070IMCT  S5 PTB  00005                    1300 SR        000000000000 FUJITSU TEN (THAILAN170KRDL0014014                                                                                                                              *          20170606WMF1706064.TXT
MDDDH6212998201706                D89828070200PV1D20170610000060SPEAKER ASM                   M IMCTM S5MA14 FTTL  07070IMCT  S5 PTB  00005                    2100 SR        000000000000 FUJITSU TEN (THAILAN170KREL0033033                                                                                                                              *          20170606WMF1706064.TXT
MDDDH6212999201706                D89828070300PT1D20170610000060SPEAKER ASM                   M IMCTM S5NB082FTTL  07070IMCT  S5 PTB  00015                    0400 SR        000000000000 FUJITSU TEN (THAILAN170KRSL0045045                                                                                                                              *          20170606WMF1706064.TXT
MDDDH6213000201706                D89828070300PT1D20170610000120SPEAKER ASM                   M IMCTM S5NB082FTTL  07070IMCT  S5 PTB  00015                    1300 SR        000000000000 FUJITSU TEN (THAILAN170KPFL0176176170KRDL0014014                                                                                                                *          20170606WMF1706064.TXT
MDDDH6213001201706                D89828070300PT1D20170610000060SPEAKER ASM                   M IMCTM S5NB082FTTL  07070IMCT  S5 PTB  00015                    2100 SR        000000000000 FUJITSU TEN (THAILAN170KREL0033033                                                                                                                              *          20170606WMF1706064.TXT
MDDDH6213002201706                D89831228300PT1D20170610000030RADIO;AM/FM,CD                M IMCTM S5NC06 FTTL  07070IMCT  S5 CPB  00003                    1300 SR        000000000000 FUJITSU TEN (THAILAN170KPFL0176176                                                                                                                              *          20170606WMF1706064.TXT
MDDDH6213003201706                D89831228400PT1D20170610000030RADIO;AM/FM,CD                M IMCTM S5NC06 FTTL  07070IMCT  S5 CPB  00003                    1300 SR        000000000000 FUJITSU TEN (THAILAN170KRDL0014014                                                                                                                              *          20170606WMF1706064.TXT
MDDDH6213004201706                D89831228400PT1D20170610000030RADIO;AM/FM,CD                M IMCTM S5NC06 FTTL  07070IMCT  S5 CPB  00003                    2100 SR        000000000000 FUJITSU TEN (THAILAN170KREL0033033                                                                                                                              *          20170606WMF1706064.TXT
MDDUH6211295201706                D89828070100PT4U20170609000060SPEAKER ASM                   M IMCTM S0FL05 FTTL  07070IMCT  S0 PTB  00004                    2230 SR        000000000000 FUJITSU TEN (THAILAN180LUDU0166166180LUFU0034034                                                                                                                *          20170606WMF1706064.TXT
MDDUH6211296201706                D89828070100PT4U20170610000030SPEAKER ASM                   M IMCTM S0FL05 FTTL  07070IMCT  S0 PTB  00004                    0230 SR        000000000000 FUJITSU TEN (THAILAN180LUDU0167167                                                                                                                              *          20170606WMF1706064.TXT
MDDUH6211297201706                D89828070100PT4U20170610000030SPEAKER ASM                   M IMCTM S0FL05 FTTL  07070IMCT  S0 PTB  00004                    0400 SR        000000000000 FUJITSU TEN (THAILAN180LUAU0015015                                                                                                                              *          20170606WMF1706064.TXT
MDDUH6211298201706                D89828070100PT4U20170610000060SPEAKER ASM                   M IMCTM S0FL05 FTTL  07070IMCT  S0 PTB  00004                    1300 SR        000000000000 FUJITSU TEN (THAILAN180LUCU0049049180LUDU0168168                                                                                                                *          20170606WMF1706064.TXT
MDDUH6211299201706                D89828070100PT4U20170610000030SPEAKER ASM                   M IMCTM S0FL05 FTTL  07070IMCT  S0 PTB  00004                    2100 SR        000000000000 FUJITSU TEN (THAILAN180LUEU0101101                                                                                                                              *          20170606WMF1706064.TXT
MDDUH6211300201706                D89828070200PV4U20170609000060SPEAKER ASM                   M IMCTM S0FR05 FTTL  07070IMCT  S0 PTB  00005                    2230 SR        000000000000 FUJITSU TEN (THAILAN180LUDU0166166180LUFU0034034                                                                                                                *          20170606WMF1706064.TXT
MDDUH6211301201706                D89828070200PV4U20170610000030SPEAKER ASM                   M IMCTM S0FR05 FTTL  07070IMCT  S0 PTB  00005                    0230 SR        000000000000 FUJITSU TEN (THAILAN180LUDU0167167                                                                                                                              *          20170606WMF1706064.TXT
MDDUH6211302201706                D89828070200PV4U20170610000030SPEAKER ASM                   M IMCTM S0FR05 FTTL  07070IMCT  S0 PTB  00005                    0400 SR        000000000000 FUJITSU TEN (THAILAN180LUAU0015015                                                                                                                              *          20170606WMF1706064.TXT
MDDUH6211303201706                D89828070200PV4U20170610000060SPEAKER ASM                   M IMCTM S0FR05 FTTL  07070IMCT  S0 PTB  00005                    1300 SR        000000000000 FUJITSU TEN (THAILAN180LUCU0049049180LUDU0168168                                                                                                                *          20170606WMF1706064.TXT
MDDUH6211304201706                D89828070200PV4U20170610000030SPEAKER ASM                   M IMCTM S0FR05 FTTL  07070IMCT  S0 PTB  00005                    2100 SR        000000000000 FUJITSU TEN (THAILAN180LUEU0101101                                                                                                                              *          20170606WMF1706064.TXT
MDDUH6211305201706                D89828070300PT4U20170609000060SPEAKER ASM                   M IMCTM S9TS02 FTTL  07070IMCT  S9 PTB  00015                    2230 SR        000000000000 FUJITSU TEN (THAILAN180LUDU0166166180LUFU0034034                                                                                                                *          20170606WMF1706064.TXT
MDDUH6211306201706                D89828070300PT4U20170610000030SPEAKER ASM                   M IMCTM S9TS02 FTTL  07070IMCT  S9 PTB  00015                    0230 SR        000000000000 FUJITSU TEN (THAILAN180LUDU0167167                                                                                                                              *          20170606WMF1706064.TXT
MDDUH6211307201706                D89828070300PT4U20170610000030SPEAKER ASM                   M IMCTM S9TS02 FTTL  07070IMCT  S9 PTB  00015                    0400 SR        000000000000 FUJITSU TEN (THAILAN180LUAU0015015                                                                                                                              *          20170606WMF1706064.TXT
MDDUH6211308201706                D89828070300PT4U20170610000060SPEAKER ASM                   M IMCTM S9TS02 FTTL  07070IMCT  S9 PTB  00015                    1300 SR        000000000000 FUJITSU TEN (THAILAN180LUCU0049049180LUDU0168168                                                                                                                *          20170606WMF1706064.TXT
MDDUH6211309201706                D89828070300PT4U20170610000030SPEAKER ASM                   M IMCTM S9TS02 FTTL  07070IMCT  S9 PTB  00015                    2100 SR        000000000000 FUJITSU TEN (THAILAN180LUEU0101101                                                                                                                              *          20170606WMF1706064.TXT
MDDUH6211310201706                D89831228400PT4U20170610000015RADIO;AM/FM,CD                M IMCTM S9CO001FTTL  07070IMCT  S9 CPB  00003                    0400 SR        000000000000 FUJITSU TEN (THAILAN180LUAU0015015                                                                                                                              *          20170606WMF1706064.TXT
MDDUH6211311201706                D89835097900PT4U20170610000015RADIO;ASM DVD                 M IMCTM S9CO001FTTL  07070IMCT  S9 PTB  00003                    1300 SR        000000000000 FUJITSU TEN (THAILAN180LUCU0049049                                                                                                                              *          20170606WMF1706064.TXT
MDEDH6218456201706                D89827952210PT1D20170610000015RADIO;AM/FM,CD,D              M IMCTM S5NC06 FTTL  07070IMCT  S5 PTB  00003                    0900 SR        000000000000 FUJITSU TEN (THAILAN17056NL0026026                                                                                                                              *          20170606WMF1706064.TXT
MDEDH6218457201706                D89828070100PV1D20170609000120SPEAKER ASM                   M IMCTM S5MB11 FTTL  07070IMCT  S5 PTB  00004                    2230 SR        000000000000 FUJITSU TEN (THAILAN17028NL001001117072NL0034035                                                                                                                *          20170606WMF1706064.TXT
MDEDH6218458201706                D89828070100PV1D20170610000060SPEAKER ASM                   M IMCTM S5MB11 FTTL  07070IMCT  S5 PTB  00004                    0900 SR        000000000000 FUJITSU TEN (THAILAN17054NL000700717056NL0026026                                                                                                                *          20170606WMF1706064.TXT
MDEDH6218459201706                D89828070100PV1D20170610000030SPEAKER ASM                   M IMCTM S5MB11 FTTL  07070IMCT  S5 PTB  00004                    1300 SR        000000000000 FUJITSU TEN (THAILAN17079NL0058058                                                                                                                              *          20170606WMF1706064.TXT
MDEDH6218460201706                D89828070100PV1D20170610000030SPEAKER ASM                   M IMCTM S5MB11 FTTL  07070IMCT  S5 PTB  00004                    1600 SR        000000000000 FUJITSU TEN (THAILAN17075NL0011011                                                                                                                              *          20170606WMF1706064.TXT
MDEDH6218461201706                D89828070100PV1D20170610000030SPEAKER ASM                   M IMCTM S5MB11 FTTL  07070IMCT  S5 PTB  00004                    2100 SR        000000000000 FUJITSU TEN (THAILAN17075NL0012012                                                                                                                              *          20170606WMF1706064.TXT
MDEDH6218462201706                D89828070100PV4D20170610000030SPEAKER ASM                   M IMCTM S0FL05 FTTL  07070IMCT  S0 PTB  00004                    1300 SR        000000000000 FUJITSU TEN (THAILAN17080NU0031031                                                                                                                              *          20170606WMF1706064.TXT
MDEDH6218463201706                D89828070200PV1D20170609000060SPEAKER ASM                   M IMCTM S5MA14 FTTL  07070IMCT  S5 PTB  00005                    2230 SR        000000000000 FUJITSU TEN (THAILAN17072NL0034035                                                                                                                              *          20170606WMF1706064.TXT
MDEDH6218464201706                D89828070200PV1D20170610000030SPEAKER ASM                   M IMCTM S5MA14 FTTL  07070IMCT  S5 PTB  00005                    0900 SR        000000000000 FUJITSU TEN (THAILAN17054NL0007007                                                                                                                              *          20170606WMF1706064.TXT
MDEDH6218465201706                D89828070200PV1D20170610000030SPEAKER ASM                   M IMCTM S5MA14 FTTL  07070IMCT  S5 PTB  00005                    1300 SR        000000000000 FUJITSU TEN (THAILAN17079NL0058058                                                                                                                              *          20170606WMF1706064.TXT
MDEDH6218466201706                D89828070200PV1D20170610000030SPEAKER ASM                   M IMCTM S5MA14 FTTL  07070IMCT  S5 PTB  00005                    1600 SR        000000000000 FUJITSU TEN (THAILAN17075NL0011011                                                                                                                              *          20170606WMF1706064.TXT
MDEDH6218467201706                D89828070200PV1D20170610000030SPEAKER ASM                   M IMCTM S5MA14 FTTL  07070IMCT  S5 PTB  00005                    2100 SR        000000000000 FUJITSU TEN (THAILAN17075NL0012012                                                                                                                              *          20170606WMF1706064.TXT
MDEDH6218468201706                D89828070200PV4D20170610000030SPEAKER ASM                   M IMCTM S0FR05 FTTL  07070IMCT  S0 PTB  00005                    1300 SR        000000000000 FUJITSU TEN (THAILAN17080NU0031031                                                                                                                              *          20170606WMF1706064.TXT
MDEDH6218469201706                D89828070300PT1D20170609000060SPEAKER ASM                   M IMCTM S5NB082FTTL  07070IMCT  S5 PTB  00015                    2230 SR        000000000000 FUJITSU TEN (THAILAN17072NL0034035                                                                                                                              *          20170606WMF1706064.TXT
MDEDH6218470201706                D89828070300PT1D20170610000060SPEAKER ASM                   M IMCTM S5NB082FTTL  07070IMCT  S5 PTB  00015                    0900 SR        000000000000 FUJITSU TEN (THAILAN17054NL000700717056NL0026026                                                                                                                *          20170606WMF1706064.TXT
MDEDH6218471201706                D89828070300PT1D20170610000030SPEAKER ASM                   M IMCTM S5NB082FTTL  07070IMCT  S5 PTB  00015                    1300 SR        000000000000 FUJITSU TEN (THAILAN17079NL0058058                                                                                                                              *          20170606WMF1706064.TXT
MDEDH6218472201706                D89828070300PT1D20170610000030SPEAKER ASM                   M IMCTM S5NB082FTTL  07070IMCT  S5 PTB  00015                    1600 SR        000000000000 FUJITSU TEN (THAILAN17075NL0011011                                                                                                                              *          20170606WMF1706064.TXT
MDEDH6218473201706                D89828070300PT1D20170610000030SPEAKER ASM                   M IMCTM S5NB082FTTL  07070IMCT  S5 PTB  00015                    2100 SR        000000000000 FUJITSU TEN (THAILAN17075NL0012012                                                                                                                              *          20170606WMF1706064.TXT
MDEDH6218474201706                D89828070300PT4D20170610000030SPEAKER ASM                   M IMCTM S9TS02 FTTL  07070IMCT  S9 PTB  00015                    1300 SR        000000000000 FUJITSU TEN (THAILAN17080NU0031031                                                                                                                              *          20170606WMF1706064.TXT
MDEDH6218475201706                D89829645710PT1D20170609000030RADIO;ASM DVD                 M IMCTM S5NC06 FTTL  07070IMCT  S5 PTB  00003                    2230 SR        000000000000 FUJITSU TEN (THAILAN17072NL0034035                                                                                                                              *          20170606WMF1706064.TXT
MDEDH6218476201706                D89829645710PT1D20170610000015RADIO;ASM DVD                 M IMCTM S5NC06 FTTL  07070IMCT  S5 PTB  00003                    0900 SR        000000000000 FUJITSU TEN (THAILAN17054NL0007007                                                                                                                              *          20170606WMF1706064.TXT
MDEDH6218477201706                D89829645710PT1D20170610000015RADIO;ASM DVD                 M IMCTM S5NC06 FTTL  07070IMCT  S5 PTB  00003                    1300 SR        000000000000 FUJITSU TEN (THAILAN17079NL0058058                                                                                                                              *          20170606WMF1706064.TXT
MDEDH6218478201706                D89848581800PT1D20170610000015RADIO;AM/FM CD D              M IMCTM S55000 FTTL  07070IMCT  S5*X    00030                    1600 SR        000000000000 FUJITSU TEN (THAILAN17075NL0011011                                                                                                                              *          20170606WMF1706064.TXT
MDEDH6218479201706                D89848581800PT1D20170610000015RADIO;AM/FM CD D              M IMCTM S55000 FTTL  07070IMCT  S5*X    00030                    2100 SR        000000000000 FUJITSU TEN (THAILAN17075NL0012012                                                                                                                              *          20170606WMF1706064.TXT
MDEUH6209086201706                D89828070100PT4U20170610000030SPEAKER ASM                   M IMCTM S0FL05 FTTL  07070IMCT  S0 PTB  00004                    0400 SR        000000000000 FUJITSU TEN (THAILAN170C16U0224224                                                                                                                              *          20170606WMF1706064.TXT
MDEUH6209087201706                D89828070100PT4U20170610000030SPEAKER ASM                   M IMCTM S0FL05 FTTL  07070IMCT  S0 PTB  00004                    0900 SR        000000000000 FUJITSU TEN (THAILAN170C13U0097097                                                                                                                              *          20170606WMF1706064.TXT
MDEUH6209088201706                D89828070100PT4U20170610000030SPEAKER ASM                   M IMCTM S0FL05 FTTL  07070IMCT  S0 PTB  00004                    1600 SR        000000000000 FUJITSU TEN (THAILAN18022TU0020020                                                                                                                              *          20170606WMF1706064.TXT
MDEUH6209089201706                D89828070200PV4U20170610000030SPEAKER ASM                   M IMCTM S0FR05 FTTL  07070IMCT  S0 PTB  00005                    0400 SR        000000000000 FUJITSU TEN (THAILAN170C16U0224224                                                                                                                              *          20170606WMF1706064.TXT
MDEUH6209090201706                D89828070200PV4U20170610000030SPEAKER ASM                   M IMCTM S0FR05 FTTL  07070IMCT  S0 PTB  00005                    0900 SR        000000000000 FUJITSU TEN (THAILAN170C13U0097097                                                                                                                              *          20170606WMF1706064.TXT
MDEUH6209091201706                D89828070200PV4U20170610000030SPEAKER ASM                   M IMCTM S0FR05 FTTL  07070IMCT  S0 PTB  00005                    1600 SR        000000000000 FUJITSU TEN (THAILAN18022TU0020020                                                                                                                              *          20170606WMF1706064.TXT
MDEUH6209092201706                D89828070300PT4U20170610000030SPEAKER ASM                   M IMCTM S9TS02 FTTL  07070IMCT  S9 PTB  00015                    0400 SR        000000000000 FUJITSU TEN (THAILAN170C16U0224224                                                                                                                              *          20170606WMF1706064.TXT
MDEUH6209093201706                D89828070300PT4U20170610000030SPEAKER ASM                   M IMCTM S9TS02 FTTL  07070IMCT  S9 PTB  00015                    0900 SR        000000000000 FUJITSU TEN (THAILAN170C13U0097097                                                                                                                              *          20170606WMF1706064.TXT
MDEUH6209094201706                D89828070300PT4U20170610000030SPEAKER ASM                   M IMCTM S9TS02 FTTL  07070IMCT  S9 PTB  00015                    1600 SR        000000000000 FUJITSU TEN (THAILAN18022TU0020020                                                                                                                              *          20170606WMF1706064.TXT
