REC2017040420170405ISUZU                              4      
MADUH4600323201706                 89828070100PT4U20170605000008SPEAKER ASM                   M IMCTM ST00000FTTL  07070IMCT  ST PTB  00003  DC                0000 SR        000000000000 FUJITSU TEN (THAILAN180L5HU0001002180L5JU0001002                                                                                                                *P         20170404IMF1704047.TXT
MADUH4600324201706                 89828070200PV4U20170605000008SPEAKER ASM                   M IMCTM ST00000FTTL  07070IMCT  ST PTB  00005  DC                0000 SR        000000000000 FUJITSU TEN (THAILAN180L5HU0001002180L5JU0001002                                                                                                                *P         20170404IMF1704047.TXT
MADUH4600325201706                 89828070300PT4U20170605000008SPEAKER ASM                   M IMCTM ST00000FTTL  07070IMCT  ST PTB  00015  DC                0000 SR        000000000000 FUJITSU TEN (THAILAN180L5HU0001002180L5JU0001002                                                                                                                *P         20170404IMF1704047.TXT
MADUH4600326201706                 89835097900PT4U20170605000002RADIO;ASM DVD                 M IMCTM ST00000FTTL  07070IMCT  ST PTB  00003  DC                0000 SR        000000000000 FUJITSU TEN (THAILAN180L5HU0001002                                                                                                                              *P         20170404IMF1704047.TXT
