REC2017063020170630ISUZU                              60     
MDDDH6294240201707                D89821984430PT1D20170706000030RADIO;AM/FM,CD                M IMCTM S5NC06 FTTL  07070IMCT  S5 PTB  00005                    0400 SR        000000000000 FUJITSU TEN (THAILAN170KPAL0125125                                                                                                                              *          20170630WMF1706307.TXT
MDDDH6294241201707                D89821984430PT1D20170706000030RADIO;AM/FM,CD                M IMCTM S5NC06 FTTL  07070IMCT  S5 PTB  00005                    1300 SR        000000000000 FUJITSU TEN (THAILAN170KRAL0102102                                                                                                                              *          20170630WMF1706307.TXT
MDDDH6294242201707                D89821984430PT1D20170706000030RADIO;AM/FM,CD                M IMCTM S5NC06 FTTL  07070IMCT  S5 PTB  00005                    1600 SR        000000000000 FUJITSU TEN (THAILAN170KNDL0135135                                                                                                                              *          20170630WMF1706307.TXT
MDDDH6294243201707                D89828070100PV1D20170706000060SPEAKER ASM                   M IMCTM S5MB11 FTTL  07070IMCT  S5 PTB  00004                    0400 SR        000000000000 FUJITSU TEN (THAILAN170KPAL0125125                                                                                                                              *          20170630WMF1706307.TXT
MDDDH6294244201707                D89828070100PV1D20170706000060SPEAKER ASM                   M IMCTM S5MB11 FTTL  07070IMCT  S5 PTB  00004                    0900 SR        000000000000 FUJITSU TEN (THAILAN170KPEL0054054                                                                                                                              *          20170630WMF1706307.TXT
MDDDH6294245201707                D89828070100PV1D20170706000120SPEAKER ASM                   M IMCTM S5MB11 FTTL  07070IMCT  S5 PTB  00004                    1300 SR        000000000000 FUJITSU TEN (THAILAN170KRAL0102102170KREL0038038                                                                                                                *          20170630WMF1706307.TXT
MDDDH6294246201707                D89828070100PV1D20170706000180SPEAKER ASM                   M IMCTM S5MB11 FTTL  07070IMCT  S5 PTB  00004                    1600 SR        000000000000 FUJITSU TEN (THAILAN170KNDL0135135170KPCL0070070170KPFL0182182                                                                                                  *          20170630WMF1706307.TXT
MDDDH6294247201707                D89828070100PV1D20170706000060SPEAKER ASM                   M IMCTM S5MB11 FTTL  07070IMCT  S5 PTB  00004                    2100 SR        000000000000 FUJITSU TEN (THAILAN170KNAL0063063                                                                                                                              *          20170630WMF1706307.TXT
MDDDH6294248201707                D89828070200PV1D20170706000060SPEAKER ASM                   M IMCTM S5MA14 FTTL  07070IMCT  S5 PTB  00005                    1300 SR        000000000000 FUJITSU TEN (THAILAN170KREL0038038                                                                                                                              *          20170630WMF1706307.TXT
MDDDH6294249201707                D89828070300PT1D20170706000060SPEAKER ASM                   M IMCTM S5NB082FTTL  07070IMCT  S5 PTB  00015                    0900 SR        000000000000 FUJITSU TEN (THAILAN170KPEL0054054                                                                                                                              *          20170630WMF1706307.TXT
MDDDH6294250201707                D89828070300PT1D20170706000060SPEAKER ASM                   M IMCTM S5NB082FTTL  07070IMCT  S5 PTB  00015                    1300 SR        000000000000 FUJITSU TEN (THAILAN170KREL0038038                                                                                                                              *          20170630WMF1706307.TXT
MDDDH6294251201707                D89828070300PT1D20170706000120SPEAKER ASM                   M IMCTM S5NB082FTTL  07070IMCT  S5 PTB  00015                    1600 SR        000000000000 FUJITSU TEN (THAILAN170KPCL0070070170KPFL0182182                                                                                                                *          20170630WMF1706307.TXT
MDDDH6294252201707                D89831228300PT1D20170706000030RADIO;AM/FM,CD                M IMCTM S5NC06 FTTL  07070IMCT  S5 CPB  00003                    0900 SR        000000000000 FUJITSU TEN (THAILAN170KPEL0054054                                                                                                                              *          20170630WMF1706307.TXT
MDDDH6294253201707                D89831228300PT1D20170706000060RADIO;AM/FM,CD                M IMCTM S5NC06 FTTL  07070IMCT  S5 CPB  00003                    1600 SR        000000000000 FUJITSU TEN (THAILAN170KPCL0070070170KPFL0182182                                                                                                                *          20170630WMF1706307.TXT
MDDDH6294254201707                D89831228400PT1D20170706000030RADIO;AM/FM,CD                M IMCTM S5NC06 FTTL  07070IMCT  S5 CPB  00003                    1300 SR        000000000000 FUJITSU TEN (THAILAN170KREL0038038                                                                                                                              *          20170630WMF1706307.TXT
MDDUH6246546201707                D89828070100PT4U20170706000030SPEAKER ASM                   M IMCTM S0FL05 FTTL  07070IMCT  S0 PTB  00004                    0900 SR        000000000000 FUJITSU TEN (THAILAN180LUDU0188188                                                                                                                              *          20170630WMF1706307.TXT
MDDUH6246547201707                D89828070100PT4U20170706000060SPEAKER ASM                   M IMCTM S0FL05 FTTL  07070IMCT  S0 PTB  00004                    1600 SR        000000000000 FUJITSU TEN (THAILAN180LUCU0057057180LUDU0189189                                                                                                                *          20170630WMF1706307.TXT
MDDUH6246548201707                D89828070200PV4U20170706000030SPEAKER ASM                   M IMCTM S0FR05 FTTL  07070IMCT  S0 PTB  00005                    0900 SR        000000000000 FUJITSU TEN (THAILAN180LUDU0188188                                                                                                                              *          20170630WMF1706307.TXT
MDDUH6246549201707                D89828070200PV4U20170706000060SPEAKER ASM                   M IMCTM S0FR05 FTTL  07070IMCT  S0 PTB  00005                    1600 SR        000000000000 FUJITSU TEN (THAILAN180LUCU0057057180LUDU0189189                                                                                                                *          20170630WMF1706307.TXT
MDDUH6246550201707                D89828070300PT4U20170706000030SPEAKER ASM                   M IMCTM S9TS02 FTTL  07070IMCT  S9 PTB  00015                    0900 SR        000000000000 FUJITSU TEN (THAILAN180LUDU0188188                                                                                                                              *          20170630WMF1706307.TXT
MDDUH6246551201707                D89828070300PT4U20170706000060SPEAKER ASM                   M IMCTM S9TS02 FTTL  07070IMCT  S9 PTB  00015                    1600 SR        000000000000 FUJITSU TEN (THAILAN180LUCU0057057180LUDU0189189                                                                                                                *          20170630WMF1706307.TXT
MDDUH6246552201707                D89835097910PT4U20170706000015RADIO;ASM DVD                 M IMCTM S9TS01 FTTL  07070IMCT  S9 PTB  00003                    1600 SR        000000000000 FUJITSU TEN (THAILAN180LUCU0057057                                                                                                                              *          20170630WMF1706307.TXT
MDEDH6333543201707                D89828070100PV1D20170705000060SPEAKER ASM                   M IMCTM S5MB11 FTTL  07070IMCT  S5 PTB  00004                    2230 SR        000000000000 FUJITSU TEN (THAILAN17041PL0032033                                                                                                                              *          20170630WMF1706307.TXT
MDEDH6333544201707                D89828070100PV1D20170706000090SPEAKER ASM                   M IMCTM S5MB11 FTTL  07070IMCT  S5 PTB  00004                    0230 SR        000000000000 FUJITSU TEN (THAILAN17034PL002702717051TL0004005                                                                                                                *          20170630WMF1706307.TXT
MDEDH6333545201707                D89828070100PV1D20170706000060SPEAKER ASM                   M IMCTM S5MB11 FTTL  07070IMCT  S5 PTB  00004                    0400 SR        000000000000 FUJITSU TEN (THAILAN17001NL001401417034PL0028028                                                                                                                *          20170630WMF1706307.TXT
MDEDH6333546201707                D89828070100PV1D20170706000060SPEAKER ASM                   M IMCTM S5MB11 FTTL  07070IMCT  S5 PTB  00004                    0900 SR        000000000000 FUJITSU TEN (THAILAN17030NL000400417068NL0017017                                                                                                                *          20170630WMF1706307.TXT
MDEDH6333547201707                D89828070100PV1D20170706000030SPEAKER ASM                   M IMCTM S5MB11 FTTL  07070IMCT  S5 PTB  00004                    1300 SR        000000000000 FUJITSU TEN (THAILAN17068NL0018018                                                                                                                              *          20170630WMF1706307.TXT
MDEDH6333548201707                D89828070100PV4D20170706000030SPEAKER ASM                   M IMCTM S0FL05 FTTL  07070IMCT  S0 PTB  00004                    0230 SR        000000000000 FUJITSU TEN (THAILAN17052TU0003003                                                                                                                              *          20170630WMF1706307.TXT
MDEDH6333549201707                D89828070100PV4D20170706000030SPEAKER ASM                   M IMCTM S0FL05 FTTL  07070IMCT  S0 PTB  00004                    0400 SR        000000000000 FUJITSU TEN (THAILAN17029NU0007007                                                                                                                              *          20170630WMF1706307.TXT
MDEDH6333550201707                D89828070100PV4D20170706000030SPEAKER ASM                   M IMCTM S0FL05 FTTL  07070IMCT  S0 PTB  00004                    1600 SR        000000000000 FUJITSU TEN (THAILAN17052TU0004004                                                                                                                              *          20170630WMF1706307.TXT
MDEDH6333551201707                D89828070100PV4D20170706000030SPEAKER ASM                   M IMCTM S0FL05 FTTL  07070IMCT  S0 PTB  00004                    2100 SR        000000000000 FUJITSU TEN (THAILAN17053NU0015015                                                                                                                              *          20170630WMF1706307.TXT
MDEDH6333552201707                D89828070200PV1D20170706000030SPEAKER ASM                   M IMCTM S5MA14 FTTL  07070IMCT  S5 PTB  00005                    0230 SR        000000000000 FUJITSU TEN (THAILAN17034PL0027027                                                                                                                              *          20170630WMF1706307.TXT
MDEDH6333553201707                D89828070200PV1D20170706000060SPEAKER ASM                   M IMCTM S5MA14 FTTL  07070IMCT  S5 PTB  00005                    0400 SR        000000000000 FUJITSU TEN (THAILAN17001NL001401417034PL0028028                                                                                                                *          20170630WMF1706307.TXT
MDEDH6333554201707                D89828070300PT1D20170706000030SPEAKER ASM                   M IMCTM S5NB082FTTL  07070IMCT  S5 PTB  00015                    0230 SR        000000000000 FUJITSU TEN (THAILAN17034PL0027027                                                                                                                              *          20170630WMF1706307.TXT
MDEDH6333555201707                D89828070300PT1D20170706000060SPEAKER ASM                   M IMCTM S5NB082FTTL  07070IMCT  S5 PTB  00015                    0400 SR        000000000000 FUJITSU TEN (THAILAN17001NL001401417034PL0028028                                                                                                                *          20170630WMF1706307.TXT
MDEDH6333556201707                D89828070300PT1D20170706000030SPEAKER ASM                   M IMCTM S5NB082FTTL  07070IMCT  S5 PTB  00015                    0900 SR        000000000000 FUJITSU TEN (THAILAN17068NL0017017                                                                                                                              *          20170630WMF1706307.TXT
MDEDH6333557201707                D89828070300PT1D20170706000030SPEAKER ASM                   M IMCTM S5NB082FTTL  07070IMCT  S5 PTB  00015                    1300 SR        000000000000 FUJITSU TEN (THAILAN17068NL0018018                                                                                                                              *          20170630WMF1706307.TXT
MDEDH6333558201707                D89828070300PT4D20170706000030SPEAKER ASM                   M IMCTM S9TS02 FTTL  07070IMCT  S9 PTB  00015                    0400 SR        000000000000 FUJITSU TEN (THAILAN17029NU0007007                                                                                                                              *          20170630WMF1706307.TXT
MDEDH6333559201707                D89828070300PT4D20170706000030SPEAKER ASM                   M IMCTM S9TS02 FTTL  07070IMCT  S9 PTB  00015                    2100 SR        000000000000 FUJITSU TEN (THAILAN17053NU0015015                                                                                                                              *          20170630WMF1706307.TXT
MDEDH6333560201707                D89831228800PT1D20170706000015RADIO;AM/FM,CD                M IMCTM S5NC06 FTTL  07070IMCT  S5 PTB  00003                    0400 SR        000000000000 FUJITSU TEN (THAILAN17001NL0014014                                                                                                                              *          20170630WMF1706307.TXT
MDEDH6333561201707                D89848581800PT4D20170706000015RADIO;AM/FM CD D              M IMCTM S9CO001FTTL  07070IMCT  S9 PTB  00003                    2100 SR        000000000000 FUJITSU TEN (THAILAN17053NU0015015                                                                                                                              *          20170630WMF1706307.TXT
MDEUH6297592201707                D89828070100PT4U20170705000030SPEAKER ASM                   M IMCTM S0FL05 FTTL  07070IMCT  S0 PTB  00004                    2230 SR        000000000000 FUJITSU TEN (THAILAN170C16U0270270                                                                                                                              *          20170630WMF1706307.TXT
MDEUH6297593201707                D89828070100PT4U20170706000030SPEAKER ASM                   M IMCTM S0FL05 FTTL  07070IMCT  S0 PTB  00004                    0400 SR        000000000000 FUJITSU TEN (THAILAN170C16U0271271                                                                                                                              *          20170630WMF1706307.TXT
MDEUH6297594201707                D89828070100PT4U20170706000030SPEAKER ASM                   M IMCTM S0FL05 FTTL  07070IMCT  S0 PTB  00004                    0900 SR        000000000000 FUJITSU TEN (THAILAN170C41U0004004                                                                                                                              *          20170630WMF1706307.TXT
MDEUH6297595201707                D89828070100PT4U20170706000060SPEAKER ASM                   M IMCTM S0FL05 FTTL  07070IMCT  S0 PTB  00004                    1300 SR        000000000000 FUJITSU TEN (THAILAN170C16U027227218022TU0041041                                                                                                                *          20170630WMF1706307.TXT
MDEUH6297596201707                D89828070100PT4U20170706000030SPEAKER ASM                   M IMCTM S0FL05 FTTL  07070IMCT  S0 PTB  00004                    1600 SR        000000000000 FUJITSU TEN (THAILAN18023TU0112112                                                                                                                              *          20170630WMF1706307.TXT
MDEUH6297597201707                D89828070100PT4U20170706000030SPEAKER ASM                   M IMCTM S0FL05 FTTL  07070IMCT  S0 PTB  00004                    2230 SR        000000000000 FUJITSU TEN (THAILAN18022TU0042042                                                                                                                              *          20170630WMF1706307.TXT
MDEUH6297598201707                D89828070200PV4U20170705000030SPEAKER ASM                   M IMCTM S0FR05 FTTL  07070IMCT  S0 PTB  00005                    2230 SR        000000000000 FUJITSU TEN (THAILAN170C16U0270270                                                                                                                              *          20170630WMF1706307.TXT
MDEUH6297599201707                D89828070200PV4U20170706000030SPEAKER ASM                   M IMCTM S0FR05 FTTL  07070IMCT  S0 PTB  00005                    0400 SR        000000000000 FUJITSU TEN (THAILAN170C16U0271271                                                                                                                              *          20170630WMF1706307.TXT
MDEUH6297600201707                D89828070200PV4U20170706000030SPEAKER ASM                   M IMCTM S0FR05 FTTL  07070IMCT  S0 PTB  00005                    0900 SR        000000000000 FUJITSU TEN (THAILAN170C41U0004004                                                                                                                              *          20170630WMF1706307.TXT
MDEUH6297601201707                D89828070200PV4U20170706000060SPEAKER ASM                   M IMCTM S0FR05 FTTL  07070IMCT  S0 PTB  00005                    1300 SR        000000000000 FUJITSU TEN (THAILAN170C16U027227218022TU0041041                                                                                                                *          20170630WMF1706307.TXT
MDEUH6297602201707                D89828070200PV4U20170706000030SPEAKER ASM                   M IMCTM S0FR05 FTTL  07070IMCT  S0 PTB  00005                    1600 SR        000000000000 FUJITSU TEN (THAILAN18023TU0112112                                                                                                                              *          20170630WMF1706307.TXT
MDEUH6297603201707                D89828070200PV4U20170706000030SPEAKER ASM                   M IMCTM S0FR05 FTTL  07070IMCT  S0 PTB  00005                    2230 SR        000000000000 FUJITSU TEN (THAILAN18022TU0042042                                                                                                                              *          20170630WMF1706307.TXT
MDEUH6297604201707                D89828070300PT4U20170705000030SPEAKER ASM                   M IMCTM S9TS02 FTTL  07070IMCT  S9 PTB  00015                    2230 SR        000000000000 FUJITSU TEN (THAILAN170C16U0270270                                                                                                                              *          20170630WMF1706307.TXT
MDEUH6297605201707                D89828070300PT4U20170706000030SPEAKER ASM                   M IMCTM S9TS02 FTTL  07070IMCT  S9 PTB  00015                    0400 SR        000000000000 FUJITSU TEN (THAILAN170C16U0271271                                                                                                                              *          20170630WMF1706307.TXT
MDEUH6297606201707                D89828070300PT4U20170706000030SPEAKER ASM                   M IMCTM S9TS02 FTTL  07070IMCT  S9 PTB  00015                    0900 SR        000000000000 FUJITSU TEN (THAILAN170C41U0004004                                                                                                                              *          20170630WMF1706307.TXT
MDEUH6297607201707                D89828070300PT4U20170706000060SPEAKER ASM                   M IMCTM S9TS02 FTTL  07070IMCT  S9 PTB  00015                    1300 SR        000000000000 FUJITSU TEN (THAILAN170C16U027227218022TU0041041                                                                                                                *          20170630WMF1706307.TXT
MDEUH6297608201707                D89828070300PT4U20170706000030SPEAKER ASM                   M IMCTM S9TS02 FTTL  07070IMCT  S9 PTB  00015                    1600 SR        000000000000 FUJITSU TEN (THAILAN18023TU0112112                                                                                                                              *          20170630WMF1706307.TXT
MDEUH6297609201707                D89828070300PT4U20170706000030SPEAKER ASM                   M IMCTM S9TS02 FTTL  07070IMCT  S9 PTB  00015                    2230 SR        000000000000 FUJITSU TEN (THAILAN18022TU0042042                                                                                                                              *          20170630WMF1706307.TXT
MDEUH6297610201707                D89829100110PT4U20170706000015RADIO;ASM DVD                 M IMCTM S9CO001FTTL  07070IMCT  S9 PTB  00003                    0900 SR        000000000000 FUJITSU TEN (THAILAN170C41U0004004                                                                                                                              *          20170630WMF1706307.TXT
