REC2017062220170622ISUZU                              38     
MAKK76089019201706D1               89805293700P3YK20170703000150SPEAKER ASM                   M IMCTM CM1    FTTL  07070IMKDC KA   PTB00003  K0                0900DES        000000000000 FUJITSU TEN (THAILAN                                                                                                                                            *G         20170622WMF1706221.TXT
MAKK76089020201706D1               89805293700P3YK20170704000120SPEAKER ASM                   M IMCTM CM1    FTTL  07070IMKDC KA   PTB00003  K0                0900DES        000000000000 FUJITSU TEN (THAILAN                                                                                                                                            *G         20170622WMF1706221.TXT
MAKK76089021201706D1               89805293700P3YK20170705000150SPEAKER ASM                   M IMCTM CM1    FTTL  07070IMKDC KA   PTB00003  K0                0900DES        000000000000 FUJITSU TEN (THAILAN                                                                                                                                            *G         20170622WMF1706221.TXT
MAKK76089022201706D1               89805293700P3YK20170706000180SPEAKER ASM                   M IMCTM CM1    FTTL  07070IMKDC KA   PTB00003  K0                0900DES        000000000000 FUJITSU TEN (THAILAN                                                                                                                                            *G         20170622WMF1706221.TXT
MAKK76089023201706D1               89805293700P3YK20170707000180SPEAKER ASM                   M IMCTM CM1    FTTL  07070IMKDC KA   PTB00003  K0                0900DES        000000000000 FUJITSU TEN (THAILAN                                                                                                                                            *G         20170622WMF1706221.TXT
MAKK76089024201706D1               89805293700P3YK20170708000120SPEAKER ASM                   M IMCTM CM1    FTTL  07070IMKDC KA   PTB00003  K0                0900DES        000000000000 FUJITSU TEN (THAILAN                                                                                                                                            *G         20170622WMF1706221.TXT
MAKK76089025201706D1               89805294000P3YK20170703000030SPEAKER ASM                   M IMCTM CM1    FTTL  07070IMKDC KA   PTB00015  K0                0900DES        000000000000 FUJITSU TEN (THAILAN                                                                                                                                            *G         20170622WMF1706221.TXT
MAKK76089026201706D1               89805294000P3YK20170704000030SPEAKER ASM                   M IMCTM CM1    FTTL  07070IMKDC KA   PTB00015  K0                0900DES        000000000000 FUJITSU TEN (THAILAN                                                                                                                                            *G         20170622WMF1706221.TXT
MAKK76089027201706D1               89805294000P3YK20170705000060SPEAKER ASM                   M IMCTM CM1    FTTL  07070IMKDC KA   PTB00015  K0                0900DES        000000000000 FUJITSU TEN (THAILAN                                                                                                                                            *G         20170622WMF1706221.TXT
MAKK76089028201706D1               89805294000P3YK20170706000090SPEAKER ASM                   M IMCTM CM1    FTTL  07070IMKDC KA   PTB00015  K0                0900DES        000000000000 FUJITSU TEN (THAILAN                                                                                                                                            *G         20170622WMF1706221.TXT
MAKK76089029201706D1               89805294000P3YK20170707000030SPEAKER ASM                   M IMCTM CM1    FTTL  07070IMKDC KA   PTB00015  K0                0900DES        000000000000 FUJITSU TEN (THAILAN                                                                                                                                            *G         20170622WMF1706221.TXT
MAKK76089030201706D1               89805294000P3YK20170708000030SPEAKER ASM                   M IMCTM CM1    FTTL  07070IMKDC KA   PTB00015  K0                0900DES        000000000000 FUJITSU TEN (THAILAN                                                                                                                                            *G         20170622WMF1706221.TXT
MAKK76089031201706D1               89805294100P3YK20170703000030SPEAKER ASM                   M IMCTM CM1    FTTL  07070IMKDC KA   PTB00005  K0                0900DES        000000000000 FUJITSU TEN (THAILAN                                                                                                                                            *G         20170622WMF1706221.TXT
MAKK76089032201706D1               89805294100P3YK20170704000030SPEAKER ASM                   M IMCTM CM1    FTTL  07070IMKDC KA   PTB00005  K0                0900DES        000000000000 FUJITSU TEN (THAILAN                                                                                                                                            *G         20170622WMF1706221.TXT
MAKK76089033201706D1               89805294100P3YK20170705000030SPEAKER ASM                   M IMCTM CM1    FTTL  07070IMKDC KA   PTB00005  K0                0900DES        000000000000 FUJITSU TEN (THAILAN                                                                                                                                            *G         20170622WMF1706221.TXT
MAKK76089034201706D1               89805294100P3YK20170706000060SPEAKER ASM                   M IMCTM CM1    FTTL  07070IMKDC KA   PTB00005  K0                0900DES        000000000000 FUJITSU TEN (THAILAN                                                                                                                                            *G         20170622WMF1706221.TXT
MAKK76089035201706D1               89805294100P3YK20170708000030SPEAKER ASM                   M IMCTM CM1    FTTL  07070IMKDC KA   PTB00005  K0                0900DES        000000000000 FUJITSU TEN (THAILAN                                                                                                                                            *G         20170622WMF1706221.TXT
MAKK76089036201706D1               89825451200P3YK20170707000060SPEAKER ASM;ROOF              M IMCTM CM1    FTTL  07070IMKDC KA   PTB00015  K0                0900DES        000000000000 FUJITSU TEN (THAILAN                                                                                                                                            *G         20170622WMF1706221.TXT
MAKK76089037201706D1               89828070100P3YK20170703000090SPEAKER ASM                   M IMCTM CM1    FTTL  07070IMKDC KA PTB  00003  K0                0900DES        000000000000 FUJITSU TEN (THAILAN                                                                                                                                            *G         20170622WMF1706221.TXT
MAKK76089038201706D1               89828070100P3YK20170704000060SPEAKER ASM                   M IMCTM CM1    FTTL  07070IMKDC KA PTB  00003  K0                0900DES        000000000000 FUJITSU TEN (THAILAN                                                                                                                                            *G         20170622WMF1706221.TXT
MAKK76089039201706D1               89828070100P3YK20170705000120SPEAKER ASM                   M IMCTM CM1    FTTL  07070IMKDC KA PTB  00003  K0                0900DES        000000000000 FUJITSU TEN (THAILAN                                                                                                                                            *G         20170622WMF1706221.TXT
MAKK76089040201706D1               89828070100P3YK20170706000120SPEAKER ASM                   M IMCTM CM1    FTTL  07070IMKDC KA PTB  00003  K0                0900DES        000000000000 FUJITSU TEN (THAILAN                                                                                                                                            *G         20170622WMF1706221.TXT
MAKK76089041201706D1               89828070100P3YK20170707000090SPEAKER ASM                   M IMCTM CM1    FTTL  07070IMKDC KA PTB  00003  K0                0900DES        000000000000 FUJITSU TEN (THAILAN                                                                                                                                            *G         20170622WMF1706221.TXT
MAKK76089042201706D1               89828070100P3YK20170708000150SPEAKER ASM                   M IMCTM CM1    FTTL  07070IMKDC KA PTB  00003  K0                0900DES        000000000000 FUJITSU TEN (THAILAN                                                                                                                                            *G         20170622WMF1706221.TXT
MAKK76089043201706D1               89828070200P3YK20170703000060SPEAKER ASM                   M IMCTM CM1    FTTL  07070IMKDC KA PTB  00005  K0                0900DES        000000000000 FUJITSU TEN (THAILAN                                                                                                                                            *G         20170622WMF1706221.TXT
MAKK76089044201706D1               89828070200P3YK20170704000060SPEAKER ASM                   M IMCTM CM1    FTTL  07070IMKDC KA PTB  00005  K0                0900DES        000000000000 FUJITSU TEN (THAILAN                                                                                                                                            *G         20170622WMF1706221.TXT
MAKK76089045201706D1               89828070200P3YK20170705000090SPEAKER ASM                   M IMCTM CM1    FTTL  07070IMKDC KA PTB  00005  K0                0900DES        000000000000 FUJITSU TEN (THAILAN                                                                                                                                            *G         20170622WMF1706221.TXT
MAKK76089046201706D1               89828070200P3YK20170706000030SPEAKER ASM                   M IMCTM CM1    FTTL  07070IMKDC KA PTB  00005  K0                0900DES        000000000000 FUJITSU TEN (THAILAN                                                                                                                                            *G         20170622WMF1706221.TXT
MAKK76089047201706D1               89828070200P3YK20170707000060SPEAKER ASM                   M IMCTM CM1    FTTL  07070IMKDC KA PTB  00005  K0                0900DES        000000000000 FUJITSU TEN (THAILAN                                                                                                                                            *G         20170622WMF1706221.TXT
MAKK76089048201706D1               89828070200P3YK20170708000090SPEAKER ASM                   M IMCTM CM1    FTTL  07070IMKDC KA PTB  00005  K0                0900DES        000000000000 FUJITSU TEN (THAILAN                                                                                                                                            *G         20170622WMF1706221.TXT
MAKK76089049201706D1               89828070300P3YK20170703000060SPEAKER ASM                   M IMCTM CM1    FTTL  07070IMKDC KA PTB  00015  K0                0900DES        000000000000 FUJITSU TEN (THAILAN                                                                                                                                            *G         20170622WMF1706221.TXT
MAKK76089050201706D1               89828070300P3YK20170704000060SPEAKER ASM                   M IMCTM CM1    FTTL  07070IMKDC KA PTB  00015  K0                0900DES        000000000000 FUJITSU TEN (THAILAN                                                                                                                                            *G         20170622WMF1706221.TXT
MAKK76089051201706D1               89828070300P3YK20170705000090SPEAKER ASM                   M IMCTM CM1    FTTL  07070IMKDC KA PTB  00015  K0                0900DES        000000000000 FUJITSU TEN (THAILAN                                                                                                                                            *G         20170622WMF1706221.TXT
MAKK76089052201706D1               89828070300P3YK20170706000030SPEAKER ASM                   M IMCTM CM1    FTTL  07070IMKDC KA PTB  00015  K0                0900DES        000000000000 FUJITSU TEN (THAILAN                                                                                                                                            *G         20170622WMF1706221.TXT
MAKK76089053201706D1               89828070300P3YK20170707000090SPEAKER ASM                   M IMCTM CM1    FTTL  07070IMKDC KA PTB  00015  K0                0900DES        000000000000 FUJITSU TEN (THAILAN                                                                                                                                            *G         20170622WMF1706221.TXT
MAKK76089054201706D1               89828070300P3YK20170708000150SPEAKER ASM                   M IMCTM CM1    FTTL  07070IMKDC KA PTB  00015  K0                0900DES        000000000000 FUJITSU TEN (THAILAN                                                                                                                                            *G         20170622WMF1706221.TXT
MAKK76089055201706D1               89831228700P3YK20170707000015RADIO;AM/FM,CD                M IMCTM CM1    FTTL  07070IMKDC KA PTB  00003  K0                0900DES        000000000000 FUJITSU TEN (THAILAN                                                                                                                                            *G         20170622WMF1706221.TXT
MAKK76089056201706D1               89834050100P3YK20170705000015RADIO;ASM DVD                 M IMCTM CM1    FTTL  07070IMKDC KA PTB  00003  K0                0900DES        000000000000 FUJITSU TEN (THAILAN                                                                                                                                            *G         20170622WMF1706221.TXT
