REC2017052520170525ISUZU                              4      
MADUH5601543201707                 89828070100PT4U20170703000004SPEAKER ASM                   M IMCTM ST00000FTTL  07070IMCT  ST PTB  00003  DC                0000 SR        000000000000 FUJITSU TEN (THAILAN180L5KU0001001180L5LU0001001                                                                                                                *P         20170525IMF1705253.TXT
MADUH5601544201707                 89828070200PV4U20170703000004SPEAKER ASM                   M IMCTM ST00000FTTL  07070IMCT  ST PTB  00005  DC                0000 SR        000000000000 FUJITSU TEN (THAILAN180L5KU0001001180L5LU0001001                                                                                                                *P         20170525IMF1705253.TXT
MADUH5601545201707                 89828070300PT4U20170703000004SPEAKER ASM                   M IMCTM ST00000FTTL  07070IMCT  ST PTB  00015  DC                0000 SR        000000000000 FUJITSU TEN (THAILAN180L5KU0001001180L5LU0001001                                                                                                                *P         20170525IMF1705253.TXT
MADUH5601546201707                 89835097910PT4U20170703000001RADIO;ASM DVD                 M IMCTM ST00000FTTL  07070IMCT  ST*PTB  00003  DC                0000 SR        000000000000 FUJITSU TEN (THAILAN180L5KU0001001                                                                                                                              *P         20170525IMF1705253.TXT
