REC2017061420170614ISUZU                              6      
MADDH6603529201707                 89828070100PV1D20170724000006SPEAKER ASM                   M IMCTM ST00000FTTL  07070IMCT  ST PTB  00003  DC                0000 SR        000000000000 FUJITSU TEN (THAILAN180L2HL0001001180L2JL0001002                                                                                                                *P         20170614WMF1706141.TXT
MADDH6603530201707                 89828070200PV1D20170724000004SPEAKER ASM                   M IMCTM ST00000FTTL  07070IMCT  ST PTB  00005  DC                0000 SR        000000000000 FUJITSU TEN (THAILAN180L2JL0001002                                                                                                                              *P         20170614WMF1706141.TXT
MADDH6603531201707                 89828070300PT1D20170724000006SPEAKER ASM                   M IMCTM ST00000FTTL  07070IMCT  ST PTB  00015  DC                0000 SR        000000000000 FUJITSU TEN (THAILAN180L2HL0001001180L2JL0001002                                                                                                                *P         20170614WMF1706141.TXT
MAEDH6605046201707                 89828070100PV1D20170724000008SPEAKER ASM                   M IMCTM ST00000FTTL  07070IMCT  ST PTB  00003  DC                0000 SR        000000000000 FUJITSU TEN (THAILAN18005VL000100118006VL000100118007VL000100118009VL0001001                                                                                    *P         20170614WMF1706141.TXT
MAEDH6605047201707                 89828070200PV1D20170724000004SPEAKER ASM                   M IMCTM ST00000FTTL  07070IMCT  ST PTB  00005  DC                0000 SR        000000000000 FUJITSU TEN (THAILAN18006VL000100118007VL0001001                                                                                                                *P         20170614WMF1706141.TXT
MAEDH6605048201707                 89828070300PT1D20170724000004SPEAKER ASM                   M IMCTM ST00000FTTL  07070IMCT  ST PTB  00015  DC                0000 SR        000000000000 FUJITSU TEN (THAILAN18006VL000100118007VL0001001                                                                                                                *P         20170614WMF1706141.TXT
