REC2017062120170621ISUZU                              3      
MAEUH6602059201709                 89828070100PT4U20170825000006SPEAKER ASM                   M IMCTM ST00000FTTL  07070IMCT  ST PTB  00003  DC                0000 SR        000000000000 FUJITSU TEN (THAILAN18013VU000100118014VU0001002                                                                                                                *P         20170621WMF1706212.TXT
MAEUH6602060201709                 89828070200PV4U20170825000006SPEAKER ASM                   M IMCTM ST00000FTTL  07070IMCT  ST PTB  00005  DC                0000 SR        000000000000 FUJITSU TEN (THAILAN18013VU000100118014VU0001002                                                                                                                *P         20170621WMF1706212.TXT
MAEUH6602061201709                 89828070300PT4U20170825000006SPEAKER ASM                   M IMCTM ST00000FTTL  07070IMCT  ST PTB  00015  DC                0000 SR        000000000000 FUJITSU TEN (THAILAN18013VU000100118014VU0001002                                                                                                                *P         20170621WMF1706212.TXT
