REC2017060620170606ISUZU                              6      
MDEFH6T04064201706                D89828070100PV4F20170610000012SPEAKER ASM                   M IMCTM S7FL05 FTTL  07070IMCT  S7 PTB  00004                    0230 SR        000000000000 FUJITSU TEN (THAILAN17048MR0016   17045MR0054   S170602310    S170602315    000000                                                                              *R         20170606RDF1706064.TXT
MDEFH6T04065201706                D89828070300PT4F20170609000010SPEAKER ASM                   M IMCTM S7TS02 FTTL  07070IMCT  S7 PTB  00015                    1300 SR        000000000000 FUJITSU TEN (THAILAN17008MR0043   17030RR0048   F170602201    F170602209    000000                                                                              *R         20170606RDF1706064.TXT
MDEFH6T04066201706                D89829622410PT4F20170609000002RADIO;ASM DVD                 M IMCTM S7TS03 FTTL  07070IMCT  S7 PTB  00003                    1300 SR        000000000000 FUJITSU TEN (THAILAN17008MR0043   17008MR0044   F170602201    F170602202    000000                                                                              *R         20170606RDF1706064.TXT
MDEFH6211810201706                D89828070100PV4F20170609000008SPEAKER ASM                   M IMCTM S7FL05 FTTL  07070IMCT  S7 PTB  00004                    1300 SR        000000000000 FUJITSU TEN (THAILAN17008MR0043   17055MR0043   F170602201    F170602204    000000                                                                              *R         20170606RDF1706064.TXT
MDEFH6211811201706                D89828070100PV4F20170609000024SPEAKER ASM                   M IMCTM S7FL05 FTTL  07070IMCT  S7 PTB  00004                    1600 SR        000000000000 FUJITSU TEN (THAILAN17030RR0046   17003MR0008   F170602205    S170602301    000000                                                                              *R         20170606RDF1706064.TXT
MDEFH6211812201706                D89828070100PV4F20170609000016SPEAKER ASM                   M IMCTM S7FL05 FTTL  07070IMCT  S7 PTB  00004                    2230 SR        000000000000 FUJITSU TEN (THAILAN17005MR0005   17048MR0015   S170602302    S170602309    000000                                                                              *R         20170606RDF1706064.TXT
