REC2017061520170615ISUZU                              63     
MDDDH6245511201706                D89821984430PT1D20170620000030RADIO;AM/FM,CD                M IMCTM S5NC06 FTTL  07070IMCT  S5 PTB  00005                    0400 SR        000000000000 FUJITSU TEN (THAILAN170KNCL0086086                                                                                                                              *          20170615WMF1706156.TXT
MDDDH6245512201706                D89821984430PT1D20170620000030RADIO;AM/FM,CD                M IMCTM S5NC06 FTTL  07070IMCT  S5 PTB  00005                    2100 SR        000000000000 FUJITSU TEN (THAILAN170KNEL0116116                                                                                                                              *          20170615WMF1706156.TXT
MDDDH6245513201706                D89825217910PT1D20170619000030RADIO;AM/FM,CD,D              M IMCTM S5NC06 FTTL  07070IMCT  S5 PTB  00003                    2230 SR        000000000000 FUJITSU TEN (THAILAN170KPKL0018018                                                                                                                              *          20170615WMF1706156.TXT
MDDDH6245514201706                D89828070100PV1D20170619000060SPEAKER ASM                   M IMCTM S5MB11 FTTL  07070IMCT  S5 PTB  00003                    2230 SR        000000000000 FUJITSU TEN (THAILAN170KPKL0018018                                                                                                                              *          20170615WMF1706156.TXT
MDDDH6245515201706                D89828070100PV1D20170620000060SPEAKER ASM                   M IMCTM S5MB11 FTTL  07070IMCT  S5 PTB  00003                    0230 SR        000000000000 FUJITSU TEN (THAILAN170KNAL0058058                                                                                                                              *          20170615WMF1706156.TXT
MDDDH6245516201706                D89828070100PV1D20170620000060SPEAKER ASM                   M IMCTM S5MB11 FTTL  07070IMCT  S5 PTB  00003                    0400 SR        000000000000 FUJITSU TEN (THAILAN170KNCL0086086                                                                                                                              *          20170615WMF1706156.TXT
MDDDH6245517201706                D89828070100PV1D20170620000060SPEAKER ASM                   M IMCTM S5MB11 FTTL  07070IMCT  S5 PTB  00003                    0900 SR        000000000000 FUJITSU TEN (THAILAN170KNBL0034034                                                                                                                              *          20170615WMF1706156.TXT
MDDDH6245518201706                D89828070100PV1D20170620000120SPEAKER ASM                   M IMCTM S5MB11 FTTL  07070IMCT  S5 PTB  00003                    1300 SR        000000000000 FUJITSU TEN (THAILAN170KPEL0052052170KRML0008008                                                                                                                *          20170615WMF1706156.TXT
MDDDH6245519201706                D89828070100PV1D20170620000060SPEAKER ASM                   M IMCTM S5MB11 FTTL  07070IMCT  S5 PTB  00003                    2100 SR        000000000000 FUJITSU TEN (THAILAN170KNEL0116116                                                                                                                              *          20170615WMF1706156.TXT
MDDDH6245520201706                D89828070200PV1D20170620000060SPEAKER ASM                   M IMCTM S5MA14 FTTL  07070IMCT  S5 PTB  00005                    1300 SR        000000000000 FUJITSU TEN (THAILAN170KRML0008008                                                                                                                              *          20170615WMF1706156.TXT
MDDDH6245521201706                D89828070300PT1D20170619000060SPEAKER ASM                   M IMCTM S5NB082FTTL  07070IMCT  S5 PTB  00015                    2230 SR        000000000000 FUJITSU TEN (THAILAN170KPKL0018018                                                                                                                              *          20170615WMF1706156.TXT
MDDDH6245522201706                D89828070300PT1D20170620000120SPEAKER ASM                   M IMCTM S5NB082FTTL  07070IMCT  S5 PTB  00015                    1300 SR        000000000000 FUJITSU TEN (THAILAN170KPEL0052052170KRML0008008                                                                                                                *          20170615WMF1706156.TXT
MDDDH6245523201706                D89831228300PT1D20170620000030RADIO;AM/FM,CD                M IMCTM S5NC06 FTTL  07070IMCT  S5 CPB  00003                    1300 SR        000000000000 FUJITSU TEN (THAILAN170KPEL0052052                                                                                                                              *          20170615WMF1706156.TXT
MDDUH6234231201706                D89828070100PT4U20170620000030SPEAKER ASM                   M IMCTM S0FL05 FTTL  07070IMCT  S0 PTB  00003                    0230 SR        000000000000 FUJITSU TEN (THAILAN180LUDU0180180                                                                                                                              *          20170615WMF1706156.TXT
MDDUH6234232201706                D89828070100PT4U20170620000030SPEAKER ASM                   M IMCTM S0FL05 FTTL  07070IMCT  S0 PTB  00003                    1600 SR        000000000000 FUJITSU TEN (THAILAN180LUDU0181181                                                                                                                              *          20170615WMF1706156.TXT
MDDUH6234233201706                D89828070200PV4U20170620000030SPEAKER ASM                   M IMCTM S0FR05 FTTL  07070IMCT  S0 PTB  00005                    0230 SR        000000000000 FUJITSU TEN (THAILAN180LUDU0180180                                                                                                                              *          20170615WMF1706156.TXT
MDDUH6234234201706                D89828070200PV4U20170620000030SPEAKER ASM                   M IMCTM S0FR05 FTTL  07070IMCT  S0 PTB  00005                    1600 SR        000000000000 FUJITSU TEN (THAILAN180LUDU0181181                                                                                                                              *          20170615WMF1706156.TXT
MDDUH6234235201706                D89828070300PT4U20170620000030SPEAKER ASM                   M IMCTM S9TS02 FTTL  07070IMCT  S9 PTB  00015                    0230 SR        000000000000 FUJITSU TEN (THAILAN180LUDU0180180                                                                                                                              *          20170615WMF1706156.TXT
MDDUH6234236201706                D89828070300PT4U20170620000030SPEAKER ASM                   M IMCTM S9TS02 FTTL  07070IMCT  S9 PTB  00015                    1600 SR        000000000000 FUJITSU TEN (THAILAN180LUDU0181181                                                                                                                              *          20170615WMF1706156.TXT
MDEDH6268842201706                D89828070100PV1D20170619000060SPEAKER ASM                   M IMCTM S5MB11 FTTL  07070IMCT  S5 PTB  00003                    2230 SR        000000000000 FUJITSU TEN (THAILAN17015NL0014015                                                                                                                              *          20170615WMF1706156.TXT
MDEDH6268843201706                D89828070100PV1D20170620000060SPEAKER ASM                   M IMCTM S5MB11 FTTL  07070IMCT  S5 PTB  00003                    0400 SR        000000000000 FUJITSU TEN (THAILAN17079NL0063064                                                                                                                              *          20170615WMF1706156.TXT
MDEDH6268844201706                D89828070100PV1D20170620000060SPEAKER ASM                   M IMCTM S5MB11 FTTL  07070IMCT  S5 PTB  00003                    0900 SR        000000000000 FUJITSU TEN (THAILAN17057NL0029030                                                                                                                              *          20170615WMF1706156.TXT
MDEDH6268845201706                D89828070100PV1D20170620000060SPEAKER ASM                   M IMCTM S5MB11 FTTL  07070IMCT  S5 PTB  00003                    1600 SR        000000000000 FUJITSU TEN (THAILAN17044ML001001017070NL0009009                                                                                                                *          20170615WMF1706156.TXT
MDEDH6268846201706                D89828070100PV1D20170620000030SPEAKER ASM                   M IMCTM S5MB11 FTTL  07070IMCT  S5 PTB  00003                    2230 SR        000000000000 FUJITSU TEN (THAILAN17058NL0021021                                                                                                                              *          20170615WMF1706156.TXT
MDEDH6268847201706                D89828070100PV4D20170619000030SPEAKER ASM                   M IMCTM S0FL05 FTTL  07070IMCT  S0 PTB  00003                    2230 SR        000000000000 FUJITSU TEN (THAILAN17021NU0002002                                                                                                                              *          20170615WMF1706156.TXT
MDEDH6268848201706                D89828070100PV4D20170620000030SPEAKER ASM                   M IMCTM S0FL05 FTTL  07070IMCT  S0 PTB  00003                    0900 SR        000000000000 FUJITSU TEN (THAILAN17055NU0022022                                                                                                                              *          20170615WMF1706156.TXT
MDEDH6268849201706                D89828070100PV4D20170620000030SPEAKER ASM                   M IMCTM S0FL05 FTTL  07070IMCT  S0 PTB  00003                    1300 SR        000000000000 FUJITSU TEN (THAILAN17034PU0035035                                                                                                                              *          20170615WMF1706156.TXT
MDEDH6268850201706                D89828070200PV1D20170619000060SPEAKER ASM                   M IMCTM S5MA14 FTTL  07070IMCT  S5 PTB  00005                    2230 SR        000000000000 FUJITSU TEN (THAILAN17015NL0014015                                                                                                                              *          20170615WMF1706156.TXT
MDEDH6268851201706                D89828070200PV1D20170620000060SPEAKER ASM                   M IMCTM S5MA14 FTTL  07070IMCT  S5 PTB  00005                    0400 SR        000000000000 FUJITSU TEN (THAILAN17079NL0063064                                                                                                                              *          20170615WMF1706156.TXT
MDEDH6268852201706                D89828070200PV1D20170620000060SPEAKER ASM                   M IMCTM S5MA14 FTTL  07070IMCT  S5 PTB  00005                    0900 SR        000000000000 FUJITSU TEN (THAILAN17057NL0029030                                                                                                                              *          20170615WMF1706156.TXT
MDEDH6268853201706                D89828070200PV1D20170620000030SPEAKER ASM                   M IMCTM S5MA14 FTTL  07070IMCT  S5 PTB  00005                    1600 SR        000000000000 FUJITSU TEN (THAILAN17070NL0009009                                                                                                                              *          20170615WMF1706156.TXT
MDEDH6268854201706                D89828070200PV1D20170620000030SPEAKER ASM                   M IMCTM S5MA14 FTTL  07070IMCT  S5 PTB  00005                    2230 SR        000000000000 FUJITSU TEN (THAILAN17058NL0021021                                                                                                                              *          20170615WMF1706156.TXT
MDEDH6268855201706                D89828070200PV4D20170619000030SPEAKER ASM                   M IMCTM S0FR05 FTTL  07070IMCT  S0 PTB  00005                    2230 SR        000000000000 FUJITSU TEN (THAILAN17021NU0002002                                                                                                                              *          20170615WMF1706156.TXT
MDEDH6268856201706                D89828070200PV4D20170620000030SPEAKER ASM                   M IMCTM S0FR05 FTTL  07070IMCT  S0 PTB  00005                    1300 SR        000000000000 FUJITSU TEN (THAILAN17034PU0035035                                                                                                                              *          20170615WMF1706156.TXT
MDEDH6268857201706                D89828070300PT1D20170619000060SPEAKER ASM                   M IMCTM S5NB082FTTL  07070IMCT  S5 PTB  00015                    2230 SR        000000000000 FUJITSU TEN (THAILAN17015NL0014015                                                                                                                              *          20170615WMF1706156.TXT
MDEDH6268858201706                D89828070300PT1D20170620000060SPEAKER ASM                   M IMCTM S5NB082FTTL  07070IMCT  S5 PTB  00015                    0400 SR        000000000000 FUJITSU TEN (THAILAN17079NL0063064                                                                                                                              *          20170615WMF1706156.TXT
MDEDH6268859201706                D89828070300PT1D20170620000060SPEAKER ASM                   M IMCTM S5NB082FTTL  07070IMCT  S5 PTB  00015                    0900 SR        000000000000 FUJITSU TEN (THAILAN17057NL0029030                                                                                                                              *          20170615WMF1706156.TXT
MDEDH6268860201706                D89828070300PT1D20170620000030SPEAKER ASM                   M IMCTM S5NB082FTTL  07070IMCT  S5 PTB  00015                    1600 SR        000000000000 FUJITSU TEN (THAILAN17070NL0009009                                                                                                                              *          20170615WMF1706156.TXT
MDEDH6268861201706                D89828070300PT1D20170620000030SPEAKER ASM                   M IMCTM S5NB082FTTL  07070IMCT  S5 PTB  00015                    2230 SR        000000000000 FUJITSU TEN (THAILAN17058NL0021021                                                                                                                              *          20170615WMF1706156.TXT
MDEDH6268862201706                D89828070300PT4D20170619000030SPEAKER ASM                   M IMCTM S9TS02 FTTL  07070IMCT  S9 PTB  00015                    2230 SR        000000000000 FUJITSU TEN (THAILAN17021NU0002002                                                                                                                              *          20170615WMF1706156.TXT
MDEDH6268863201706                D89828070300PT4D20170620000030SPEAKER ASM                   M IMCTM S9TS02 FTTL  07070IMCT  S9 PTB  00015                    0900 SR        000000000000 FUJITSU TEN (THAILAN17055NU0022022                                                                                                                              *          20170615WMF1706156.TXT
MDEDH6268864201706                D89828070300PT4D20170620000030SPEAKER ASM                   M IMCTM S9TS02 FTTL  07070IMCT  S9 PTB  00015                    1300 SR        000000000000 FUJITSU TEN (THAILAN17034PU0035035                                                                                                                              *          20170615WMF1706156.TXT
MDEDH6268865201706                D89829645310PT4D20170619000015RADIO;ASM DVD                 M IMCTM S9CO001FTTL  07070IMCT  S9 PTB  00003                    2230 SR        000000000000 FUJITSU TEN (THAILAN17021NU0002002                                                                                                                              *          20170615WMF1706156.TXT
MDEDH6268866201706                D89848581800PT1D20170620000030RADIO;AM/FM CD D              M IMCTM S5NC06 FTTL  07070IMCT  S5 PTB  00003                    0400 SR        000000000000 FUJITSU TEN (THAILAN17079NL0063064                                                                                                                              *          20170615WMF1706156.TXT
MDEDH6268867201706                D89848581800PT1D20170620000030RADIO;AM/FM CD D              M IMCTM S5NC06 FTTL  07070IMCT  S5 PTB  00003                    0900 SR        000000000000 FUJITSU TEN (THAILAN17057NL0029030                                                                                                                              *          20170615WMF1706156.TXT
MDEDH6268868201706                D89848581800PT1D20170620000015RADIO;AM/FM CD D              M IMCTM S5NC06 FTTL  07070IMCT  S5 PTB  00003                    1600 SR        000000000000 FUJITSU TEN (THAILAN17070NL0009009                                                                                                                              *          20170615WMF1706156.TXT
MDEDH6268869201706                D89848581800PT1D20170620000015RADIO;AM/FM CD D              M IMCTM S5NC06 FTTL  07070IMCT  S5 PTB  00003                    2230 SR        000000000000 FUJITSU TEN (THAILAN17058NL0021021                                                                                                                              *          20170615WMF1706156.TXT
MDEDH6268870201706                D89848581800PT4D20170620000015RADIO;AM/FM CD D              M IMCTM S9CO001FTTL  07070IMCT  S9 PTB  00003                    0900 SR        000000000000 FUJITSU TEN (THAILAN17055NU0022022                                                                                                                              *          20170615WMF1706156.TXT
MDEUH6239019201706                D89828070100PT4U20170619000030SPEAKER ASM                   M IMCTM S0FL05 FTTL  07070IMCT  S0 PTB  00003                    2100 SR        000000000000 FUJITSU TEN (THAILAN170C16U0237237                                                                                                                              *          20170615WMF1706156.TXT
MDEUH6239020201706                D89828070100PT4U20170619000030SPEAKER ASM                   M IMCTM S0FL05 FTTL  07070IMCT  S0 PTB  00003                    2230 SR        000000000000 FUJITSU TEN (THAILAN170C13U0103103                                                                                                                              *          20170615WMF1706156.TXT
MDEUH6239021201706                D89828070100PT4U20170620000030SPEAKER ASM                   M IMCTM S0FL05 FTTL  07070IMCT  S0 PTB  00003                    0230 SR        000000000000 FUJITSU TEN (THAILAN18017TU0014014                                                                                                                              *          20170615WMF1706156.TXT
MDEUH6239022201706                D89828070100PT4U20170620000060SPEAKER ASM                   M IMCTM S0FL05 FTTL  07070IMCT  S0 PTB  00003                    0900 SR        000000000000 FUJITSU TEN (THAILAN170C16U023823818023TU0104104                                                                                                                *          20170615WMF1706156.TXT
MDEUH6239023201706                D89828070100PT4U20170620000060SPEAKER ASM                   M IMCTM S0FL05 FTTL  07070IMCT  S0 PTB  00003                    1300 SR        000000000000 FUJITSU TEN (THAILAN18018TU002502518023TU0105105                                                                                                                *          20170615WMF1706156.TXT
MDEUH6239024201706                D89828070200PV4U20170619000030SPEAKER ASM                   M IMCTM S0FR05 FTTL  07070IMCT  S0 PTB  00005                    2100 SR        000000000000 FUJITSU TEN (THAILAN170C16U0237237                                                                                                                              *          20170615WMF1706156.TXT
MDEUH6239025201706                D89828070200PV4U20170619000030SPEAKER ASM                   M IMCTM S0FR05 FTTL  07070IMCT  S0 PTB  00005                    2230 SR        000000000000 FUJITSU TEN (THAILAN170C13U0103103                                                                                                                              *          20170615WMF1706156.TXT
MDEUH6239026201706                D89828070200PV4U20170620000030SPEAKER ASM                   M IMCTM S0FR05 FTTL  07070IMCT  S0 PTB  00005                    0230 SR        000000000000 FUJITSU TEN (THAILAN18017TU0014014                                                                                                                              *          20170615WMF1706156.TXT
MDEUH6239027201706                D89828070200PV4U20170620000060SPEAKER ASM                   M IMCTM S0FR05 FTTL  07070IMCT  S0 PTB  00005                    0900 SR        000000000000 FUJITSU TEN (THAILAN170C16U023823818023TU0104104                                                                                                                *          20170615WMF1706156.TXT
MDEUH6239028201706                D89828070200PV4U20170620000060SPEAKER ASM                   M IMCTM S0FR05 FTTL  07070IMCT  S0 PTB  00005                    1300 SR        000000000000 FUJITSU TEN (THAILAN18018TU002502518023TU0105105                                                                                                                *          20170615WMF1706156.TXT
MDEUH6239029201706                D89828070300PT4U20170619000030SPEAKER ASM                   M IMCTM S9TS02 FTTL  07070IMCT  S9 PTB  00015                    2100 SR        000000000000 FUJITSU TEN (THAILAN170C16U0237237                                                                                                                              *          20170615WMF1706156.TXT
MDEUH6239030201706                D89828070300PT4U20170619000030SPEAKER ASM                   M IMCTM S9TS02 FTTL  07070IMCT  S9 PTB  00015                    2230 SR        000000000000 FUJITSU TEN (THAILAN170C13U0103103                                                                                                                              *          20170615WMF1706156.TXT
MDEUH6239031201706                D89828070300PT4U20170620000030SPEAKER ASM                   M IMCTM S9TS02 FTTL  07070IMCT  S9 PTB  00015                    0230 SR        000000000000 FUJITSU TEN (THAILAN18017TU0014014                                                                                                                              *          20170615WMF1706156.TXT
MDEUH6239032201706                D89828070300PT4U20170620000060SPEAKER ASM                   M IMCTM S9TS02 FTTL  07070IMCT  S9 PTB  00015                    0900 SR        000000000000 FUJITSU TEN (THAILAN170C16U023823818023TU0104104                                                                                                                *          20170615WMF1706156.TXT
MDEUH6239033201706                D89828070300PT4U20170620000060SPEAKER ASM                   M IMCTM S9TS02 FTTL  07070IMCT  S9 PTB  00015                    1300 SR        000000000000 FUJITSU TEN (THAILAN18018TU002502518023TU0105105                                                                                                                *          20170615WMF1706156.TXT
