REC2017060120170601ISUZU                              19     
MDEFH6T00303201706                D89805293700PV4F20170606000019SPEAKER ASM                   M IMCTM S7FR05 FTTL  07070IMCT  S7 PTB  00003                    2230 SR        000000000000 FUJITSU TEN (THAILAN15030BR0132   15010HR0076   D170601401    D170601410    000000                                                                              *R         20170601RDF1706015.TXT
MDEFH6T00304201706                D89805294000PT4F20170606000010SPEAKER ASM                   M IMCTM S7TS02 FTTL  07070IMCT  S7 PTB  00015                    2230 SR        000000000000 FUJITSU TEN (THAILAN15031BR0201   15010HR0076   D170601406    D170601410    000000                                                                              *R         20170601RDF1706015.TXT
MDEFH6T00305201706                D89805294100PV4F20170606000020SPEAKER ASM                   M IMCTM S7FR05 FTTL  07070IMCT  S7 PTB  00005                    2230 SR        000000000000 FUJITSU TEN (THAILAN15030BR0132   15010HR0076   D170601401    D170601410    000000                                                                              *R         20170601RDF1706015.TXT
MDEFH6T00306201706                D89828070100PV4F20170607000030SPEAKER ASM                   M IMCTM S7FL05 FTTL  07070IMCT  S7 PTB  00004                    0900 SR        000000000000 FUJITSU TEN (THAILAN17031NR0035   17034PR0047   D170601501    D170601515    000000                                                                              *R         20170601RDF1706015.TXT
MDEFH6T00307201706                D89828070200PV4F20170607000012SPEAKER ASM                   M IMCTM S7TS02 FTTL  07070IMCT  S7 PTB  00005                    0900 SR        000000000000 FUJITSU TEN (THAILAN17034PR0042   17034PR0047   D170601510    D170601515    000000                                                                              *R         20170601RDF1706015.TXT
MDEFH6T00308201706                D89828070300PT4F20170607000002SPEAKER ASM                   M IMCTM S7TS02 FTTL  07070IMCT  S7 PTB  00015                    0900 SR        000000000000 FUJITSU TEN (THAILAN17034PR0047   17034PR0047   D170601515    D170601515    000000                                                                              *R         20170601RDF1706015.TXT
MDEFH6T00309201706                D89829645310PT4F20170606000002RADIO;ASM DVD                 M IMCTM S7TS03 FTTL  07070IMCT  S7 PTB  00003                    2230 SR        000000000000 FUJITSU TEN (THAILAN17032PR0044   17032PR0045   D170601412    D170601509    000000                                                                              *R         20170601RDF1706015.TXT
MDEFH6T00310201706                D89829645410PT4F20170606000003RADIO;ASM DVD                 M IMCTM S7TS03 FTTL  07070IMCT  S7 PTB  00003                    1600 SR        000000000000 FUJITSU TEN (THAILAN17072QR0040   17072QR0042   D170601311    D170601313    000000                                                                              *R         20170601RDF1706015.TXT
MDEFH6T00311201706                D89829645510PT4F20170606000002RADIO;ASM DVD                 M IMCTM S7TS03 FTTL  07070IMCT  S7 CPB  00003                    2230 SR        000000000000 FUJITSU TEN (THAILAN17083QR0054   17083QR0055   D170601414    D170601415    000000                                                                              *R         20170601RDF1706015.TXT
MDEFH6T00312201706                D89831229000PT4F20170606000002RADIO;AM/FM,CD                M IMCTM S7TS03 FTTL  07070IMCT  S7 PTB  00003                    1600 SR        000000000000 FUJITSU TEN (THAILAN17037RR0064   17037RR0065   D170601314    D170601315    000000                                                                              *R         20170601RDF1706015.TXT
MDEFH6200204201706                D89805293700PV4F20170606000021SPEAKER ASM                   M IMCTM S7FR05 FTTL  07070IMCT  S7 PTB  00003                    1600 SR        000000000000 FUJITSU TEN (THAILAN15028BR0122   15030BR0132   D170601301    D170601401    000000                                                                              *R         20170601RDF1706015.TXT
MDEFH6200205201706                D89805294000PT4F20170606000030SPEAKER ASM                   M IMCTM S7TS02 FTTL  07070IMCT  S7 PTB  00015                    1600 SR        000000000000 FUJITSU TEN (THAILAN15028BR0122   15030BR0136   D170601301    D170601405    000000                                                                              *R         20170601RDF1706015.TXT
MDEFH6200206201706                D89805294100PV4F20170606000020SPEAKER ASM                   M IMCTM S7FR05 FTTL  07070IMCT  S7 PTB  00005                    1600 SR        000000000000 FUJITSU TEN (THAILAN15028BR0122   15028BR0131   D170601301    D170601310    000000                                                                              *R         20170601RDF1706015.TXT
MDEFH6200207201706                D89828070100PV4F20170606000012SPEAKER ASM                   M IMCTM S7FL05 FTTL  07070IMCT  S7 PTB  00004                    1600 SR        000000000000 FUJITSU TEN (THAILAN17072QR0040   17016PR0066   D170601311    D170601411    000000                                                                              *R         20170601RDF1706015.TXT
MDEFH6200208201706                D89828070100PV4F20170606000008SPEAKER ASM                   M IMCTM S7FL05 FTTL  07070IMCT  S7 PTB  00004                    2230 SR        000000000000 FUJITSU TEN (THAILAN17032PR0044   17083QR0055   D170601412    D170601415    000000                                                                              *R         20170601RDF1706015.TXT
MDEFH6200209201706                D89828070200PV4F20170606000010SPEAKER ASM                   M IMCTM S7TS02 FTTL  07070IMCT  S7 PTB  00005                    1600 SR        000000000000 FUJITSU TEN (THAILAN17072QR0040   17037RR0065   D170601311    D170601315    000000                                                                              *R         20170601RDF1706015.TXT
MDEFH6200210201706                D89828070200PV4F20170606000010SPEAKER ASM                   M IMCTM S7TS02 FTTL  07070IMCT  S7 PTB  00005                    2230 SR        000000000000 FUJITSU TEN (THAILAN17016PR0066   17032PR0045   D170601411    D170601509    000000                                                                              *R         20170601RDF1706015.TXT
MDEFH6200211201706                D89828070300PT4F20170606000015SPEAKER ASM                   M IMCTM S7TS02 FTTL  07070IMCT  S7 PTB  00015                    1600 SR        000000000000 FUJITSU TEN (THAILAN17072QR0040   17083QR0054   D170601311    D170601414    000000                                                                              *R         20170601RDF1706015.TXT
MDEFH6200212201706                D89828070300PT4F20170606000015SPEAKER ASM                   M IMCTM S7TS02 FTTL  07070IMCT  S7 PTB  00015                    2230 SR        000000000000 FUJITSU TEN (THAILAN17083QR0054   17034PR0046   D170601414    D170601514    000000                                                                              *R         20170601RDF1706015.TXT
