REC2017060820170608ISUZU                              76     
MDDDH6220750201706                D89821984430PT1D20170613000030RADIO;AM/FM,CD                M IMCTM S5NC06 FTTL  07070IMCT  S5 PTB  00005                    0400 SR        000000000000 FUJITSU TEN (THAILAN170KRWL0001001                                                                                                                              *          20170608WMF1706085.TXT
MDDDH6220751201706                D89821984430PT1D20170613000030RADIO;AM/FM,CD                M IMCTM S5NC06 FTTL  07070IMCT  S5 PTB  00005                    0900 SR        000000000000 FUJITSU TEN (THAILAN170KNHL0001001                                                                                                                              *          20170608WMF1706085.TXT
MDDDH6220752201706                D89821984430PT1D20170613000030RADIO;AM/FM,CD                M IMCTM S5NC06 FTTL  07070IMCT  S5 PTB  00005                    1600 SR        000000000000 FUJITSU TEN (THAILAN170KNDL0122122                                                                                                                              *          20170608WMF1706085.TXT
MDDDH6220753201706                D89828070100PV1D20170613000060SPEAKER ASM                   M IMCTM S5MB11 FTTL  07070IMCT  S5 PTB  00003                    0230 SR        000000000000 FUJITSU TEN (THAILAN170KRSL0046046                                                                                                                              *          20170608WMF1706085.TXT
MDDDH6220754201706                D89828070100PV1D20170613000060SPEAKER ASM                   M IMCTM S5MB11 FTTL  07070IMCT  S5 PTB  00003                    0400 SR        000000000000 FUJITSU TEN (THAILAN170KRWL0001001                                                                                                                              *          20170608WMF1706085.TXT
MDDDH6220755201706                D89828070100PV1D20170613000060SPEAKER ASM                   M IMCTM S5MB11 FTTL  07070IMCT  S5 PTB  00003                    0900 SR        000000000000 FUJITSU TEN (THAILAN170KNHL0001001                                                                                                                              *          20170608WMF1706085.TXT
MDDDH6220756201706                D89828070100PV1D20170613000060SPEAKER ASM                   M IMCTM S5MB11 FTTL  07070IMCT  S5 PTB  00003                    1300 SR        000000000000 FUJITSU TEN (THAILAN170KRFL0103103                                                                                                                              *          20170608WMF1706085.TXT
MDDDH6220757201706                D89828070100PV1D20170613000180SPEAKER ASM                   M IMCTM S5MB11 FTTL  07070IMCT  S5 PTB  00003                    1600 SR        000000000000 FUJITSU TEN (THAILAN170KNDL0122122170KPLL0009009170KRFL0104104                                                                                                  *          20170608WMF1706085.TXT
MDDDH6220758201706                D89828070200PV1D20170613000060SPEAKER ASM                   M IMCTM S5MA14 FTTL  07070IMCT  S5 PTB  00005                    0230 SR        000000000000 FUJITSU TEN (THAILAN170KRSL0046046                                                                                                                              *          20170608WMF1706085.TXT
MDDDH6220759201706                D89828070200PV1D20170613000060SPEAKER ASM                   M IMCTM S5MA14 FTTL  07070IMCT  S5 PTB  00005                    1300 SR        000000000000 FUJITSU TEN (THAILAN170KRFL0103103                                                                                                                              *          20170608WMF1706085.TXT
MDDDH6220760201706                D89828070200PV1D20170613000060SPEAKER ASM                   M IMCTM S5MA14 FTTL  07070IMCT  S5 PTB  00005                    1600 SR        000000000000 FUJITSU TEN (THAILAN170KRFL0104104                                                                                                                              *          20170608WMF1706085.TXT
MDDDH6220761201706                D89828070300PT1D20170613000060SPEAKER ASM                   M IMCTM S5NB082FTTL  07070IMCT  S5 PTB  00015                    0230 SR        000000000000 FUJITSU TEN (THAILAN170KRSL0046046                                                                                                                              *          20170608WMF1706085.TXT
MDDDH6220762201706                D89828070300PT1D20170613000060SPEAKER ASM                   M IMCTM S5NB082FTTL  07070IMCT  S5 PTB  00015                    1300 SR        000000000000 FUJITSU TEN (THAILAN170KRFL0103103                                                                                                                              *          20170608WMF1706085.TXT
MDDDH6220763201706                D89828070300PT1D20170613000120SPEAKER ASM                   M IMCTM S5NB082FTTL  07070IMCT  S5 PTB  00015                    1600 SR        000000000000 FUJITSU TEN (THAILAN170KPLL0009009170KRFL0104104                                                                                                                *          20170608WMF1706085.TXT
MDDDH6220764201706                D89829645910PT1D20170613000030RADIO;ASM DVD                 M IMCTM S5NC06 FTTL  07070IMCT  S5 CPB  00003                    1300 SR        000000000000 FUJITSU TEN (THAILAN170KRFL0103103                                                                                                                              *          20170608WMF1706085.TXT
MDDDH6220765201706                D89829645910PT1D20170613000030RADIO;ASM DVD                 M IMCTM S5NC06 FTTL  07070IMCT  S5 CPB  00003                    1600 SR        000000000000 FUJITSU TEN (THAILAN170KRFL0104104                                                                                                                              *          20170608WMF1706085.TXT
MDDUH6217512201706                D89828070100PT4U20170612000030SPEAKER ASM                   M IMCTM S0FL05 FTTL  07070IMCT  S0 PTB  00003                    2230 SR        000000000000 FUJITSU TEN (THAILAN180LUEU0103103                                                                                                                              *          20170608WMF1706085.TXT
MDDUH6217513201706                D89828070100PT4U20170613000030SPEAKER ASM                   M IMCTM S0FL05 FTTL  07070IMCT  S0 PTB  00003                    0400 SR        000000000000 FUJITSU TEN (THAILAN180LUCU0051051                                                                                                                              *          20170608WMF1706085.TXT
MDDUH6217514201706                D89828070100PT4U20170613000030SPEAKER ASM                   M IMCTM S0FL05 FTTL  07070IMCT  S0 PTB  00003                    1600 SR        000000000000 FUJITSU TEN (THAILAN180LUEU0104104                                                                                                                              *          20170608WMF1706085.TXT
MDDUH6217515201706                D89828070200PV4U20170612000030SPEAKER ASM                   M IMCTM S0FR05 FTTL  07070IMCT  S0 PTB  00005                    2230 SR        000000000000 FUJITSU TEN (THAILAN180LUEU0103103                                                                                                                              *          20170608WMF1706085.TXT
MDDUH6217516201706                D89828070200PV4U20170613000030SPEAKER ASM                   M IMCTM S0FR05 FTTL  07070IMCT  S0 PTB  00005                    0400 SR        000000000000 FUJITSU TEN (THAILAN180LUCU0051051                                                                                                                              *          20170608WMF1706085.TXT
MDDUH6217517201706                D89828070200PV4U20170613000030SPEAKER ASM                   M IMCTM S0FR05 FTTL  07070IMCT  S0 PTB  00005                    1600 SR        000000000000 FUJITSU TEN (THAILAN180LUEU0104104                                                                                                                              *          20170608WMF1706085.TXT
MDDUH6217518201706                D89828070300PT4U20170612000030SPEAKER ASM                   M IMCTM S9TS02 FTTL  07070IMCT  S9 PTB  00015                    2230 SR        000000000000 FUJITSU TEN (THAILAN180LUEU0103103                                                                                                                              *          20170608WMF1706085.TXT
MDDUH6217519201706                D89828070300PT4U20170613000030SPEAKER ASM                   M IMCTM S9TS02 FTTL  07070IMCT  S9 PTB  00015                    0400 SR        000000000000 FUJITSU TEN (THAILAN180LUCU0051051                                                                                                                              *          20170608WMF1706085.TXT
MDDUH6217520201706                D89828070300PT4U20170613000030SPEAKER ASM                   M IMCTM S9TS02 FTTL  07070IMCT  S9 PTB  00015                    1600 SR        000000000000 FUJITSU TEN (THAILAN180LUEU0104104                                                                                                                              *          20170608WMF1706085.TXT
MDDUH6217521201706                D89835097900PT4U20170613000015RADIO;ASM DVD                 M IMCTM S9CO001FTTL  07070IMCT  S9 PTB  00003                    0400 SR        000000000000 FUJITSU TEN (THAILAN180LUCU0051051                                                                                                                              *          20170608WMF1706085.TXT
MDEDH6230564201706                D89828070100PV1D20170612000120SPEAKER ASM                   M IMCTM S5MB11 FTTL  07070IMCT  S5 PTB  00003                    2230 SR        000000000000 FUJITSU TEN (THAILAN17053NL002903017079NL0059060                                                                                                                *          20170608WMF1706085.TXT
MDEDH6230565201706                D89828070100PV1D20170613000060SPEAKER ASM                   M IMCTM S5MB11 FTTL  07070IMCT  S5 PTB  00003                    0400 SR        000000000000 FUJITSU TEN (THAILAN17060NL0018019                                                                                                                              *          20170608WMF1706085.TXT
MDEDH6230566201706                D89828070100PV1D20170613000060SPEAKER ASM                   M IMCTM S5MB11 FTTL  07070IMCT  S5 PTB  00003                    0900 SR        000000000000 FUJITSU TEN (THAILAN17029ML0019020                                                                                                                              *          20170608WMF1706085.TXT
MDEDH6230567201706                D89828070100PV1D20170613000060SPEAKER ASM                   M IMCTM S5MB11 FTTL  07070IMCT  S5 PTB  00003                    1300 SR        000000000000 FUJITSU TEN (THAILAN17057ML000800817067NL0005005                                                                                                                *          20170608WMF1706085.TXT
MDEDH6230568201706                D89828070100PV1D20170613000030SPEAKER ASM                   M IMCTM S5MB11 FTTL  07070IMCT  S5 PTB  00003                    1600 SR        000000000000 FUJITSU TEN (THAILAN17057NL0027027                                                                                                                              *          20170608WMF1706085.TXT
MDEDH6230569201706                D89828070100PV1D20170613000060SPEAKER ASM                   M IMCTM S5MB11 FTTL  07070IMCT  S5 PTB  00003                    2100 SR        000000000000 FUJITSU TEN (THAILAN17057NL002802817063NL0018018                                                                                                                *          20170608WMF1706085.TXT
MDEDH6230570201706                D89828070100PV1D20170613000030SPEAKER ASM                   M IMCTM S5MB11 FTTL  07070IMCT  S5 PTB  00003                    2230 SR        000000000000 FUJITSU TEN (THAILAN17071NL0011011                                                                                                                              *          20170608WMF1706085.TXT
MDEDH6230571201706                D89828070100PV4D20170612000030SPEAKER ASM                   M IMCTM S0FL05 FTTL  07070IMCT  S0 PTB  00003                    2230 SR        000000000000 FUJITSU TEN (THAILAN17080NU0033033                                                                                                                              *          20170608WMF1706085.TXT
MDEDH6230572201706                D89828070100PV4D20170613000030SPEAKER ASM                   M IMCTM S0FL05 FTTL  07070IMCT  S0 PTB  00003                    0900 SR        000000000000 FUJITSU TEN (THAILAN17055NU0018018                                                                                                                              *          20170608WMF1706085.TXT
MDEDH6230573201706                D89828070100PV4D20170613000030SPEAKER ASM                   M IMCTM S0FL05 FTTL  07070IMCT  S0 PTB  00003                    1300 SR        000000000000 FUJITSU TEN (THAILAN17071MU0004004                                                                                                                              *          20170608WMF1706085.TXT
MDEDH6230574201706                D89828070100PV4D20170613000030SPEAKER ASM                   M IMCTM S0FL05 FTTL  07070IMCT  S0 PTB  00003                    1600 SR        000000000000 FUJITSU TEN (THAILAN17066NU0006006                                                                                                                              *          20170608WMF1706085.TXT
MDEDH6230575201706                D89828070200PV1D20170612000060SPEAKER ASM                   M IMCTM S5MA14 FTTL  07070IMCT  S5 PTB  00005                    2230 SR        000000000000 FUJITSU TEN (THAILAN17079NL0059060                                                                                                                              *          20170608WMF1706085.TXT
MDEDH6230576201706                D89828070200PV1D20170613000060SPEAKER ASM                   M IMCTM S5MA14 FTTL  07070IMCT  S5 PTB  00005                    0400 SR        000000000000 FUJITSU TEN (THAILAN17060NL0018019                                                                                                                              *          20170608WMF1706085.TXT
MDEDH6230577201706                D89828070200PV1D20170613000060SPEAKER ASM                   M IMCTM S5MA14 FTTL  07070IMCT  S5 PTB  00005                    0900 SR        000000000000 FUJITSU TEN (THAILAN17029ML0019020                                                                                                                              *          20170608WMF1706085.TXT
MDEDH6230578201706                D89828070200PV1D20170613000030SPEAKER ASM                   M IMCTM S5MA14 FTTL  07070IMCT  S5 PTB  00005                    1600 SR        000000000000 FUJITSU TEN (THAILAN17057NL0027027                                                                                                                              *          20170608WMF1706085.TXT
MDEDH6230579201706                D89828070200PV1D20170613000030SPEAKER ASM                   M IMCTM S5MA14 FTTL  07070IMCT  S5 PTB  00005                    2100 SR        000000000000 FUJITSU TEN (THAILAN17057NL0028028                                                                                                                              *          20170608WMF1706085.TXT
MDEDH6230580201706                D89828070200PV1D20170613000030SPEAKER ASM                   M IMCTM S5MA14 FTTL  07070IMCT  S5 PTB  00005                    2230 SR        000000000000 FUJITSU TEN (THAILAN17071NL0011011                                                                                                                              *          20170608WMF1706085.TXT
MDEDH6230581201706                D89828070200PV4D20170612000030SPEAKER ASM                   M IMCTM S0FR05 FTTL  07070IMCT  S0 PTB  00005                    2230 SR        000000000000 FUJITSU TEN (THAILAN17080NU0033033                                                                                                                              *          20170608WMF1706085.TXT
MDEDH6230582201706                D89828070300PT1D20170612000120SPEAKER ASM                   M IMCTM S5NB082FTTL  07070IMCT  S5 PTB  00015                    2230 SR        000000000000 FUJITSU TEN (THAILAN17053NL002903017079NL0059060                                                                                                                *          20170608WMF1706085.TXT
MDEDH6230583201706                D89828070300PT1D20170613000060SPEAKER ASM                   M IMCTM S5NB082FTTL  07070IMCT  S5 PTB  00015                    0400 SR        000000000000 FUJITSU TEN (THAILAN17060NL0018019                                                                                                                              *          20170608WMF1706085.TXT
MDEDH6230584201706                D89828070300PT1D20170613000060SPEAKER ASM                   M IMCTM S5NB082FTTL  07070IMCT  S5 PTB  00015                    0900 SR        000000000000 FUJITSU TEN (THAILAN17029ML0019020                                                                                                                              *          20170608WMF1706085.TXT
MDEDH6230585201706                D89828070300PT1D20170613000060SPEAKER ASM                   M IMCTM S5NB082FTTL  07070IMCT  S5 PTB  00015                    1300 SR        000000000000 FUJITSU TEN (THAILAN17057ML000800817067NL0005005                                                                                                                *          20170608WMF1706085.TXT
MDEDH6230586201706                D89828070300PT1D20170613000030SPEAKER ASM                   M IMCTM S5NB082FTTL  07070IMCT  S5 PTB  00015                    1600 SR        000000000000 FUJITSU TEN (THAILAN17057NL0027027                                                                                                                              *          20170608WMF1706085.TXT
MDEDH6230587201706                D89828070300PT1D20170613000060SPEAKER ASM                   M IMCTM S5NB082FTTL  07070IMCT  S5 PTB  00015                    2100 SR        000000000000 FUJITSU TEN (THAILAN17057NL002802817063NL0018018                                                                                                                *          20170608WMF1706085.TXT
MDEDH6230588201706                D89828070300PT1D20170613000030SPEAKER ASM                   M IMCTM S5NB082FTTL  07070IMCT  S5 PTB  00015                    2230 SR        000000000000 FUJITSU TEN (THAILAN17071NL0011011                                                                                                                              *          20170608WMF1706085.TXT
MDEDH6230589201706                D89828070300PT4D20170612000030SPEAKER ASM                   M IMCTM S9TS02 FTTL  07070IMCT  S9 PTB  00015                    2230 SR        000000000000 FUJITSU TEN (THAILAN17080NU0033033                                                                                                                              *          20170608WMF1706085.TXT
MDEDH6230590201706                D89828070300PT4D20170613000030SPEAKER ASM                   M IMCTM S9TS02 FTTL  07070IMCT  S9 PTB  00015                    0900 SR        000000000000 FUJITSU TEN (THAILAN17055NU0018018                                                                                                                              *          20170608WMF1706085.TXT
MDEDH6230591201706                D89828070300PT4D20170613000030SPEAKER ASM                   M IMCTM S9TS02 FTTL  07070IMCT  S9 PTB  00015                    1300 SR        000000000000 FUJITSU TEN (THAILAN17071MU0004004                                                                                                                              *          20170608WMF1706085.TXT
MDEDH6230592201706                D89828070300PT4D20170613000030SPEAKER ASM                   M IMCTM S9TS02 FTTL  07070IMCT  S9 PTB  00015                    1600 SR        000000000000 FUJITSU TEN (THAILAN17066NU0006006                                                                                                                              *          20170608WMF1706085.TXT
MDEDH6230593201706                D89848581800PT1D20170612000060RADIO;AM/FM CD D              M IMCTM S55000 FTTL  07070IMCT  S5 PTB  00003                    2230 SR        000000000000 FUJITSU TEN (THAILAN17053NL002903017079NL0059060                                                                                                                *          20170608WMF1706085.TXT
MDEDH6230594201706                D89848581800PT1D20170613000015RADIO;AM/FM CD D              M IMCTM S55000 FTTL  07070IMCT  S5 PTB  00003                    1600 SR        000000000000 FUJITSU TEN (THAILAN17057NL0027027                                                                                                                              *          20170608WMF1706085.TXT
MDEDH6230595201706                D89848581800PT1D20170613000030RADIO;AM/FM CD D              M IMCTM S55000 FTTL  07070IMCT  S5 PTB  00003                    2100 SR        000000000000 FUJITSU TEN (THAILAN17057NL002802817063NL0018018                                                                                                                *          20170608WMF1706085.TXT
MDEDH6230596201706                D89848581800PT1D20170613000015RADIO;AM/FM CD D              M IMCTM S55000 FTTL  07070IMCT  S5 PTB  00003                    2230 SR        000000000000 FUJITSU TEN (THAILAN17071NL0011011                                                                                                                              *          20170608WMF1706085.TXT
MDEDH6230597201706                D89848581800PT4D20170613000015RADIO;AM/FM CD D              M IMCTM S22000 FTTL  07070IMCT  S2 PTB  00003                    0900 SR        000000000000 FUJITSU TEN (THAILAN17055NU0018018                                                                                                                              *          20170608WMF1706085.TXT
MDEDH6230598201706                D89848582500PT4D20170613000015RADIO;AM/FM CD D              M IMCTM S22000 FTTL  07070IMCT  S2*PTB  00003                    1600 SR        000000000000 FUJITSU TEN (THAILAN17066NU0006006                                                                                                                              *          20170608WMF1706085.TXT
MDEUH6216425201706                D89828070100PT4U20170612000030SPEAKER ASM                   M IMCTM S0FL05 FTTL  07070IMCT  S0 PTB  00003                    2230 SR        000000000000 FUJITSU TEN (THAILAN170C13U0099099                                                                                                                              *          20170608WMF1706085.TXT
MDEUH6216426201706                D89828070100PT4U20170613000030SPEAKER ASM                   M IMCTM S0FL05 FTTL  07070IMCT  S0 PTB  00003                    0230 SR        000000000000 FUJITSU TEN (THAILAN18020TU0005005                                                                                                                              *          20170608WMF1706085.TXT
MDEUH6216427201706                D89828070100PT4U20170613000060SPEAKER ASM                   M IMCTM S0FL05 FTTL  07070IMCT  S0 PTB  00003                    0900 SR        000000000000 FUJITSU TEN (THAILAN170C16U022722718023TU0097097                                                                                                                *          20170608WMF1706085.TXT
MDEUH6216428201706                D89828070100PT4U20170613000030SPEAKER ASM                   M IMCTM S0FL05 FTTL  07070IMCT  S0 PTB  00003                    1300 SR        000000000000 FUJITSU TEN (THAILAN18018TU0023023                                                                                                                              *          20170608WMF1706085.TXT
MDEUH6216429201706                D89828070100PT4U20170613000060SPEAKER ASM                   M IMCTM S0FL05 FTTL  07070IMCT  S0 PTB  00003                    1600 SR        000000000000 FUJITSU TEN (THAILAN170C13U0100100170C16U0228228                                                                                                                *          20170608WMF1706085.TXT
MDEUH6216430201706                D89828070200PV4U20170612000030SPEAKER ASM                   M IMCTM S0FR05 FTTL  07070IMCT  S0 PTB  00005                    2230 SR        000000000000 FUJITSU TEN (THAILAN170C13U0099099                                                                                                                              *          20170608WMF1706085.TXT
MDEUH6216431201706                D89828070200PV4U20170613000030SPEAKER ASM                   M IMCTM S0FR05 FTTL  07070IMCT  S0 PTB  00005                    0230 SR        000000000000 FUJITSU TEN (THAILAN18020TU0005005                                                                                                                              *          20170608WMF1706085.TXT
MDEUH6216432201706                D89828070200PV4U20170613000060SPEAKER ASM                   M IMCTM S0FR05 FTTL  07070IMCT  S0 PTB  00005                    0900 SR        000000000000 FUJITSU TEN (THAILAN170C16U022722718023TU0097097                                                                                                                *          20170608WMF1706085.TXT
MDEUH6216433201706                D89828070200PV4U20170613000030SPEAKER ASM                   M IMCTM S0FR05 FTTL  07070IMCT  S0 PTB  00005                    1300 SR        000000000000 FUJITSU TEN (THAILAN18018TU0023023                                                                                                                              *          20170608WMF1706085.TXT
MDEUH6216434201706                D89828070200PV4U20170613000060SPEAKER ASM                   M IMCTM S0FR05 FTTL  07070IMCT  S0 PTB  00005                    1600 SR        000000000000 FUJITSU TEN (THAILAN170C13U0100100170C16U0228228                                                                                                                *          20170608WMF1706085.TXT
MDEUH6216435201706                D89828070300PT4U20170612000030SPEAKER ASM                   M IMCTM S9TS02 FTTL  07070IMCT  S9 PTB  00015                    2230 SR        000000000000 FUJITSU TEN (THAILAN170C13U0099099                                                                                                                              *          20170608WMF1706085.TXT
MDEUH6216436201706                D89828070300PT4U20170613000030SPEAKER ASM                   M IMCTM S9TS02 FTTL  07070IMCT  S9 PTB  00015                    0230 SR        000000000000 FUJITSU TEN (THAILAN18020TU0005005                                                                                                                              *          20170608WMF1706085.TXT
MDEUH6216437201706                D89828070300PT4U20170613000060SPEAKER ASM                   M IMCTM S9TS02 FTTL  07070IMCT  S9 PTB  00015                    0900 SR        000000000000 FUJITSU TEN (THAILAN170C16U022722718023TU0097097                                                                                                                *          20170608WMF1706085.TXT
MDEUH6216438201706                D89828070300PT4U20170613000030SPEAKER ASM                   M IMCTM S9TS02 FTTL  07070IMCT  S9 PTB  00015                    1300 SR        000000000000 FUJITSU TEN (THAILAN18018TU0023023                                                                                                                              *          20170608WMF1706085.TXT
MDEUH6216439201706                D89828070300PT4U20170613000060SPEAKER ASM                   M IMCTM S9TS02 FTTL  07070IMCT  S9 PTB  00015                    1600 SR        000000000000 FUJITSU TEN (THAILAN170C13U0100100170C16U0228228                                                                                                                *          20170608WMF1706085.TXT
