REC2017062720170627ISUZU                              48     
MDDDH6279420201707                D89821984430PT1D20170630000030RADIO;AM/FM,CD                M IMCTM S5NC06 FTTL  07070IMCT  S5 PTB  00005                    2230 SR        000000000000 FUJITSU TEN (THAILAN170KPAL0120120                                                                                                                              *          20170627WMF1706273.TXT
MDDDH6279421201707                D89821984430PT1D20170703000030RADIO;AM/FM,CD                M IMCTM S5NC06 FTTL  07070IMCT  S5 PTB  00005                    0900 SR        000000000000 FUJITSU TEN (THAILAN170KNDL0133133                                                                                                                              *          20170627WMF1706273.TXT
MDDDH6279422201707                D89821984430PT1D20170703000060RADIO;AM/FM,CD                M IMCTM S5NC06 FTTL  07070IMCT  S5 PTB  00005                    1300 SR        000000000000 FUJITSU TEN (THAILAN170KPAL0121121170KRAL0097097                                                                                                                *          20170627WMF1706273.TXT
MDDDH6279423201707                D89828070100PV1D20170630000060SPEAKER ASM                   M IMCTM S5MB11 FTTL  07070IMCT  S5 PTB  00004                    2230 SR        000000000000 FUJITSU TEN (THAILAN170KPAL0120120                                                                                                                              *          20170627WMF1706273.TXT
MDDDH6279424201707                D89828070100PV1D20170701000060SPEAKER ASM                   M IMCTM S5MB11 FTTL  07070IMCT  S5 PTB  00004                    0230 SR        000000000000 FUJITSU TEN (THAILAN170KPCL0067067                                                                                                                              *          20170627WMF1706273.TXT
MDDDH6279425201707                D89828070100PV1D20170701000060SPEAKER ASM                   M IMCTM S5MB11 FTTL  07070IMCT  S5 PTB  00004                    0400 SR        000000000000 FUJITSU TEN (THAILAN170KRSL0048048                                                                                                                              *          20170627WMF1706273.TXT
MDDDH6279426201707                D89828070100PV1D20170703000120SPEAKER ASM                   M IMCTM S5MB11 FTTL  07070IMCT  S5 PTB  00004                    0900 SR        000000000000 FUJITSU TEN (THAILAN170KNDL0133133170KPFL0178178                                                                                                                *          20170627WMF1706273.TXT
MDDDH6279427201707                D89828070100PV1D20170703000120SPEAKER ASM                   M IMCTM S5MB11 FTTL  07070IMCT  S5 PTB  00004                    1300 SR        000000000000 FUJITSU TEN (THAILAN170KPAL0121121170KRAL0097097                                                                                                                *          20170627WMF1706273.TXT
MDDDH6279428201707                D89828070100PV1D20170703000060SPEAKER ASM                   M IMCTM S5MB11 FTTL  07070IMCT  S5 PTB  00004                    1600 SR        000000000000 FUJITSU TEN (THAILAN170KNAL0062062                                                                                                                              *          20170627WMF1706273.TXT
MDDDH6279429201707                D89828070200PV1D20170701000060SPEAKER ASM                   M IMCTM S5MA14 FTTL  07070IMCT  S5 PTB  00005                    0400 SR        000000000000 FUJITSU TEN (THAILAN170KRSL0048048                                                                                                                              *          20170627WMF1706273.TXT
MDDDH6279430201707                D89828070300PT1D20170701000060SPEAKER ASM                   M IMCTM S5NB082FTTL  07070IMCT  S5 PTB  00015                    0230 SR        000000000000 FUJITSU TEN (THAILAN170KPCL0067067                                                                                                                              *          20170627WMF1706273.TXT
MDDDH6279431201707                D89828070300PT1D20170701000060SPEAKER ASM                   M IMCTM S5NB082FTTL  07070IMCT  S5 PTB  00015                    0400 SR        000000000000 FUJITSU TEN (THAILAN170KRSL0048048                                                                                                                              *          20170627WMF1706273.TXT
MDDDH6279432201707                D89828070300PT1D20170703000060SPEAKER ASM                   M IMCTM S5NB082FTTL  07070IMCT  S5 PTB  00015                    0900 SR        000000000000 FUJITSU TEN (THAILAN170KPFL0178178                                                                                                                              *          20170627WMF1706273.TXT
MDDDH6279433201707                D89831228300PT1D20170701000030RADIO;AM/FM,CD                M IMCTM S5NC06 FTTL  07070IMCT  S5 CPB  00003                    0230 SR        000000000000 FUJITSU TEN (THAILAN170KPCL0067067                                                                                                                              *          20170627WMF1706273.TXT
MDDDH6279434201707                D89831228300PT1D20170703000030RADIO;AM/FM,CD                M IMCTM S5NC06 FTTL  07070IMCT  S5 CPB  00003                    0900 SR        000000000000 FUJITSU TEN (THAILAN170KPFL0178178                                                                                                                              *          20170627WMF1706273.TXT
MDDUH6239641201707                D89828070100PT4U20170703000030SPEAKER ASM                   M IMCTM S0FL05 FTTL  07070IMCT  S0 PTB  00004                    0900 SR        000000000000 FUJITSU TEN (THAILAN180LUDU0182182                                                                                                                              *          20170627WMF1706273.TXT
MDDUH6239642201707                D89828070100PT4U20170703000030SPEAKER ASM                   M IMCTM S0FL05 FTTL  07070IMCT  S0 PTB  00004                    1300 SR        000000000000 FUJITSU TEN (THAILAN180LUFU0035035                                                                                                                              *          20170627WMF1706273.TXT
MDDUH6239643201707                D89828070100PT4U20170703000030SPEAKER ASM                   M IMCTM S0FL05 FTTL  07070IMCT  S0 PTB  00004                    2100 SR        000000000000 FUJITSU TEN (THAILAN180LUDU0183183                                                                                                                              *          20170627WMF1706273.TXT
MDDUH6239644201707                D89828070200PV4U20170703000030SPEAKER ASM                   M IMCTM S0FR05 FTTL  07070IMCT  S0 PTB  00005                    0900 SR        000000000000 FUJITSU TEN (THAILAN180LUDU0182182                                                                                                                              *          20170627WMF1706273.TXT
MDDUH6239645201707                D89828070200PV4U20170703000030SPEAKER ASM                   M IMCTM S0FR05 FTTL  07070IMCT  S0 PTB  00005                    1300 SR        000000000000 FUJITSU TEN (THAILAN180LUFU0035035                                                                                                                              *          20170627WMF1706273.TXT
MDDUH6239646201707                D89828070200PV4U20170703000030SPEAKER ASM                   M IMCTM S0FR05 FTTL  07070IMCT  S0 PTB  00005                    2100 SR        000000000000 FUJITSU TEN (THAILAN180LUDU0183183                                                                                                                              *          20170627WMF1706273.TXT
MDDUH6239647201707                D89828070300PT4U20170703000030SPEAKER ASM                   M IMCTM S9TS02 FTTL  07070IMCT  S9 PTB  00015                    0900 SR        000000000000 FUJITSU TEN (THAILAN180LUDU0182182                                                                                                                              *          20170627WMF1706273.TXT
MDDUH6239648201707                D89828070300PT4U20170703000030SPEAKER ASM                   M IMCTM S9TS02 FTTL  07070IMCT  S9 PTB  00015                    1300 SR        000000000000 FUJITSU TEN (THAILAN180LUFU0035035                                                                                                                              *          20170627WMF1706273.TXT
MDDUH6239649201707                D89828070300PT4U20170703000030SPEAKER ASM                   M IMCTM S9TS02 FTTL  07070IMCT  S9 PTB  00015                    2100 SR        000000000000 FUJITSU TEN (THAILAN180LUDU0183183                                                                                                                              *          20170627WMF1706273.TXT
MDEDH6317447201707                D89828070100PV1D20170630000060SPEAKER ASM                   M IMCTM S5MB11 FTTL  07070IMCT  S5 PTB  00004                    2230 SR        000000000000 FUJITSU TEN (THAILAN17080NL0074075                                                                                                                              *          20170627WMF1706273.TXT
MDEDH6317448201707                D89828070100PV1D20170701000090SPEAKER ASM                   M IMCTM S5MB11 FTTL  07070IMCT  S5 PTB  00004                    0400 SR        000000000000 FUJITSU TEN (THAILAN17002RL000300317051TL0002003                                                                                                                *          20170627WMF1706273.TXT
MDEDH6317449201707                D89828070100PV1D20170703000030SPEAKER ASM                   M IMCTM S5MB11 FTTL  07070IMCT  S5 PTB  00004                    2100 SR        000000000000 FUJITSU TEN (THAILAN16046KL0025025                                                                                                                              *          20170627WMF1706273.TXT
MDEDH6317450201707                D89828070100PV4D20170630000030SPEAKER ASM                   M IMCTM S0FL05 FTTL  07070IMCT  S0 PTB  00004                    2230 SR        000000000000 FUJITSU TEN (THAILAN16041KU0001001                                                                                                                              *          20170627WMF1706273.TXT
MDEDH6317451201707                D89828070100PV4D20170703000030SPEAKER ASM                   M IMCTM S0FL05 FTTL  07070IMCT  S0 PTB  00004                    0900 SR        000000000000 FUJITSU TEN (THAILAN17080NU0037037                                                                                                                              *          20170627WMF1706273.TXT
MDEDH6317452201707                D89828070100PV4D20170703000030SPEAKER ASM                   M IMCTM S0FL05 FTTL  07070IMCT  S0 PTB  00004                    1600 SR        000000000000 FUJITSU TEN (THAILAN17052TU0001001                                                                                                                              *          20170627WMF1706273.TXT
MDEDH6317453201707                D89828070200PV1D20170630000060SPEAKER ASM                   M IMCTM S5MA14 FTTL  07070IMCT  S5 PTB  00005                    2230 SR        000000000000 FUJITSU TEN (THAILAN17080NL0074075                                                                                                                              *          20170627WMF1706273.TXT
MDEDH6317454201707                D89828070200PV1D20170701000030SPEAKER ASM                   M IMCTM S5MA14 FTTL  07070IMCT  S5 PTB  00005                    0400 SR        000000000000 FUJITSU TEN (THAILAN17002RL0003003                                                                                                                              *          20170627WMF1706273.TXT
MDEDH6317455201707                D89828070200PV1D20170703000030SPEAKER ASM                   M IMCTM S5MA14 FTTL  07070IMCT  S5 PTB  00005                    2100 SR        000000000000 FUJITSU TEN (THAILAN16046KL0025025                                                                                                                              *          20170627WMF1706273.TXT
MDEDH6317456201707                D89828070200PV4D20170703000030SPEAKER ASM                   M IMCTM S0FR05 FTTL  07070IMCT  S0 PTB  00005                    0900 SR        000000000000 FUJITSU TEN (THAILAN17080NU0037037                                                                                                                              *          20170627WMF1706273.TXT
MDEDH6317457201707                D89828070300PT1D20170630000060SPEAKER ASM                   M IMCTM S5NB082FTTL  07070IMCT  S5 PTB  00015                    2230 SR        000000000000 FUJITSU TEN (THAILAN17080NL0074075                                                                                                                              *          20170627WMF1706273.TXT
MDEDH6317458201707                D89828070300PT1D20170701000030SPEAKER ASM                   M IMCTM S5NB082FTTL  07070IMCT  S5 PTB  00015                    0400 SR        000000000000 FUJITSU TEN (THAILAN17002RL0003003                                                                                                                              *          20170627WMF1706273.TXT
MDEDH6317459201707                D89828070300PT1D20170703000030SPEAKER ASM                   M IMCTM S5NB082FTTL  07070IMCT  S5 PTB  00015                    2100 SR        000000000000 FUJITSU TEN (THAILAN16046KL0025025                                                                                                                              *          20170627WMF1706273.TXT
MDEDH6317460201707                D89828070300PT4D20170703000030SPEAKER ASM                   M IMCTM S9TS02 FTTL  07070IMCT  S9 PTB  00015                    0900 SR        000000000000 FUJITSU TEN (THAILAN17080NU0037037                                                                                                                              *          20170627WMF1706273.TXT
MDEDH6317461201707                D89831229000PT1D20170701000015RADIO;AM/FM,CD                M IMCTM S5NC06 FTTL  07070IMCT  S5 PTB  00003                    0400 SR        000000000000 FUJITSU TEN (THAILAN17002RL0003003                                                                                                                              *          20170627WMF1706273.TXT
MDEUH6284493201707                D89828070100PT4U20170630000030SPEAKER ASM                   M IMCTM S0FL05 FTTL  07070IMCT  S0 PTB  00004                    2230 SR        000000000000 FUJITSU TEN (THAILAN18022TU0036036                                                                                                                              *          20170627WMF1706273.TXT
MDEUH6284494201707                D89828070100PT4U20170701000060SPEAKER ASM                   M IMCTM S0FL05 FTTL  07070IMCT  S0 PTB  00004                    0400 SR        000000000000 FUJITSU TEN (THAILAN170C16U026326318023TU0109109                                                                                                                *          20170627WMF1706273.TXT
MDEUH6284495201707                D89828070100PT4U20170703000030SPEAKER ASM                   M IMCTM S0FL05 FTTL  07070IMCT  S0 PTB  00004                    1300 SR        000000000000 FUJITSU TEN (THAILAN170C16U0264264                                                                                                                              *          20170627WMF1706273.TXT
MDEUH6284496201707                D89828070200PV4U20170630000030SPEAKER ASM                   M IMCTM S0FR05 FTTL  07070IMCT  S0 PTB  00005                    2230 SR        000000000000 FUJITSU TEN (THAILAN18022TU0036036                                                                                                                              *          20170627WMF1706273.TXT
MDEUH6284497201707                D89828070200PV4U20170701000060SPEAKER ASM                   M IMCTM S0FR05 FTTL  07070IMCT  S0 PTB  00005                    0400 SR        000000000000 FUJITSU TEN (THAILAN170C16U026326318023TU0109109                                                                                                                *          20170627WMF1706273.TXT
MDEUH6284498201707                D89828070200PV4U20170703000030SPEAKER ASM                   M IMCTM S0FR05 FTTL  07070IMCT  S0 PTB  00005                    1300 SR        000000000000 FUJITSU TEN (THAILAN170C16U0264264                                                                                                                              *          20170627WMF1706273.TXT
MDEUH6284499201707                D89828070300PT4U20170630000030SPEAKER ASM                   M IMCTM S9TS02 FTTL  07070IMCT  S9 PTB  00015                    2230 SR        000000000000 FUJITSU TEN (THAILAN18022TU0036036                                                                                                                              *          20170627WMF1706273.TXT
MDEUH6284500201707                D89828070300PT4U20170701000060SPEAKER ASM                   M IMCTM S9TS02 FTTL  07070IMCT  S9 PTB  00015                    0400 SR        000000000000 FUJITSU TEN (THAILAN170C16U026326318023TU0109109                                                                                                                *          20170627WMF1706273.TXT
MDEUH6284501201707                D89828070300PT4U20170703000030SPEAKER ASM                   M IMCTM S9TS02 FTTL  07070IMCT  S9 PTB  00015                    1300 SR        000000000000 FUJITSU TEN (THAILAN170C16U0264264                                                                                                                              *          20170627WMF1706273.TXT
