REC2017060220170602ISUZU                              68     
MDDDH6205101201706                D89821984430PT1D20170607000030RADIO;AM/FM,CD                M IMCTM S5NC06 FTTL  07070IMCT  S5 PTB  00005                    2230 SR        000000000000 FUJITSU TEN (THAILAN170KPAL0116116                                                                                                                              *          20170602IMF1706025.TXT
MDDDH6205102201706                D89821984430PT1D20170608000060RADIO;AM/FM,CD                M IMCTM S5NC06 FTTL  07070IMCT  S5 PTB  00005                    0400 SR        000000000000 FUJITSU TEN (THAILAN170KNDL0118118170KRAL0089089                                                                                                                *          20170602IMF1706025.TXT
MDDDH6205103201706                D89821984430PT1D20170608000030RADIO;AM/FM,CD                M IMCTM S5NC06 FTTL  07070IMCT  S5 PTB  00005                    1300 SR        000000000000 FUJITSU TEN (THAILAN170KNEL0111111                                                                                                                              *          20170602IMF1706025.TXT
MDDDH6205104201706                D89821984430PT1D20170608000060RADIO;AM/FM,CD                M IMCTM S5NC06 FTTL  07070IMCT  S5 PTB  00005                    1600 SR        000000000000 FUJITSU TEN (THAILAN170KNCL0084084170KPAL0117117                                                                                                                *          20170602IMF1706025.TXT
MDDDH6205105201706                D89828070100PV1D20170607000060SPEAKER ASM                   M IMCTM S5MB11 FTTL  07070IMCT  S5 PTB  00004                    2230 SR        000000000000 FUJITSU TEN (THAILAN170KPAL0116116                                                                                                                              *          20170602IMF1706025.TXT
MDDDH6205106201706                D89828070100PV1D20170608000120SPEAKER ASM                   M IMCTM S5MB11 FTTL  07070IMCT  S5 PTB  00004                    0400 SR        000000000000 FUJITSU TEN (THAILAN170KNDL0118118170KRAL0089089                                                                                                                *          20170602IMF1706025.TXT
MDDDH6205107201706                D89828070100PV1D20170608000060SPEAKER ASM                   M IMCTM S5MB11 FTTL  07070IMCT  S5 PTB  00004                    0900 SR        000000000000 FUJITSU TEN (THAILAN170KPFL0173173                                                                                                                              *          20170602IMF1706025.TXT
MDDDH6205108201706                D89828070100PV1D20170608000120SPEAKER ASM                   M IMCTM S5MB11 FTTL  07070IMCT  S5 PTB  00004                    1300 SR        000000000000 FUJITSU TEN (THAILAN170KNEL0111111170KRRL0025025                                                                                                                *          20170602IMF1706025.TXT
MDDDH6205109201706                D89828070100PV1D20170608000120SPEAKER ASM                   M IMCTM S5MB11 FTTL  07070IMCT  S5 PTB  00004                    1600 SR        000000000000 FUJITSU TEN (THAILAN170KNCL0084084170KPAL0117117                                                                                                                *          20170602IMF1706025.TXT
MDDDH6205110201706                D89828070200PV1D20170608000060SPEAKER ASM                   M IMCTM S5MA14 FTTL  07070IMCT  S5 PTB  00005                    1300 SR        000000000000 FUJITSU TEN (THAILAN170KRRL0025025                                                                                                                              *          20170602IMF1706025.TXT
MDDDH6205111201706                D89828070300PT1D20170608000060SPEAKER ASM                   M IMCTM S5NB082FTTL  07070IMCT  S5 PTB  00015                    0900 SR        000000000000 FUJITSU TEN (THAILAN170KPFL0173173                                                                                                                              *          20170602IMF1706025.TXT
MDDDH6205112201706                D89828070300PT1D20170608000060SPEAKER ASM                   M IMCTM S5NB082FTTL  07070IMCT  S5 PTB  00015                    1300 SR        000000000000 FUJITSU TEN (THAILAN170KRRL0025025                                                                                                                              *          20170602IMF1706025.TXT
MDDDH6205113201706                D89831228300PT1D20170608000030RADIO;AM/FM,CD                M IMCTM S5NC06 FTTL  07070IMCT  S5 CPB  00003                    0900 SR        000000000000 FUJITSU TEN (THAILAN170KPFL0173173                                                                                                                              *          20170602IMF1706025.TXT
MDDUH6203956201706                D89828070100PT4U20170607000030SPEAKER ASM                   M IMCTM S0FL05 FTTL  07070IMCT  S0 PTB  00004                    2230 SR        000000000000 FUJITSU TEN (THAILAN180LUBU0012012                                                                                                                              *          20170602IMF1706025.TXT
MDDUH6203957201706                D89828070100PT4U20170608000030SPEAKER ASM                   M IMCTM S0FL05 FTTL  07070IMCT  S0 PTB  00004                    0230 SR        000000000000 FUJITSU TEN (THAILAN180LUFU0033033                                                                                                                              *          20170602IMF1706025.TXT
MDDUH6203958201706                D89828070100PT4U20170608000030SPEAKER ASM                   M IMCTM S0FL05 FTTL  07070IMCT  S0 PTB  00004                    0900 SR        000000000000 FUJITSU TEN (THAILAN180LUBU0013013                                                                                                                              *          20170602IMF1706025.TXT
MDDUH6203959201706                D89828070100PT4U20170608000030SPEAKER ASM                   M IMCTM S0FL05 FTTL  07070IMCT  S0 PTB  00004                    1300 SR        000000000000 FUJITSU TEN (THAILAN180LUDU0164164                                                                                                                              *          20170602IMF1706025.TXT
MDDUH6203960201706                D89828070100PT4U20170608000060SPEAKER ASM                   M IMCTM S0FL05 FTTL  07070IMCT  S0 PTB  00004                    1600 SR        000000000000 FUJITSU TEN (THAILAN180LUCU0046046180LUEU0100100                                                                                                                *          20170602IMF1706025.TXT
MDDUH6203961201706                D89828070200PV4U20170607000030SPEAKER ASM                   M IMCTM S0FR05 FTTL  07070IMCT  S0 PTB  00005                    2230 SR        000000000000 FUJITSU TEN (THAILAN180LUBU0012012                                                                                                                              *          20170602IMF1706025.TXT
MDDUH6203962201706                D89828070200PV4U20170608000030SPEAKER ASM                   M IMCTM S0FR05 FTTL  07070IMCT  S0 PTB  00005                    0230 SR        000000000000 FUJITSU TEN (THAILAN180LUFU0033033                                                                                                                              *          20170602IMF1706025.TXT
MDDUH6203963201706                D89828070200PV4U20170608000030SPEAKER ASM                   M IMCTM S0FR05 FTTL  07070IMCT  S0 PTB  00005                    0900 SR        000000000000 FUJITSU TEN (THAILAN180LUBU0013013                                                                                                                              *          20170602IMF1706025.TXT
MDDUH6203964201706                D89828070200PV4U20170608000030SPEAKER ASM                   M IMCTM S0FR05 FTTL  07070IMCT  S0 PTB  00005                    1300 SR        000000000000 FUJITSU TEN (THAILAN180LUDU0164164                                                                                                                              *          20170602IMF1706025.TXT
MDDUH6203965201706                D89828070200PV4U20170608000060SPEAKER ASM                   M IMCTM S0FR05 FTTL  07070IMCT  S0 PTB  00005                    1600 SR        000000000000 FUJITSU TEN (THAILAN180LUCU0046046180LUEU0100100                                                                                                                *          20170602IMF1706025.TXT
MDDUH6203966201706                D89828070300PT4U20170607000030SPEAKER ASM                   M IMCTM S9TS02 FTTL  07070IMCT  S9 PTB  00015                    2230 SR        000000000000 FUJITSU TEN (THAILAN180LUBU0012012                                                                                                                              *          20170602IMF1706025.TXT
MDDUH6203967201706                D89828070300PT4U20170608000030SPEAKER ASM                   M IMCTM S9TS02 FTTL  07070IMCT  S9 PTB  00015                    0230 SR        000000000000 FUJITSU TEN (THAILAN180LUFU0033033                                                                                                                              *          20170602IMF1706025.TXT
MDDUH6203968201706                D89828070300PT4U20170608000030SPEAKER ASM                   M IMCTM S9TS02 FTTL  07070IMCT  S9 PTB  00015                    0900 SR        000000000000 FUJITSU TEN (THAILAN180LUBU0013013                                                                                                                              *          20170602IMF1706025.TXT
MDDUH6203969201706                D89828070300PT4U20170608000030SPEAKER ASM                   M IMCTM S9TS02 FTTL  07070IMCT  S9 PTB  00015                    1300 SR        000000000000 FUJITSU TEN (THAILAN180LUDU0164164                                                                                                                              *          20170602IMF1706025.TXT
MDDUH6203970201706                D89828070300PT4U20170608000060SPEAKER ASM                   M IMCTM S9TS02 FTTL  07070IMCT  S9 PTB  00015                    1600 SR        000000000000 FUJITSU TEN (THAILAN180LUCU0046046180LUEU0100100                                                                                                                *          20170602IMF1706025.TXT
MDDUH6203971201706                D89835097900PT4U20170607000015RADIO;ASM DVD                 M IMCTM S9CO001FTTL  07070IMCT  S9 PTB  00003                    2230 SR        000000000000 FUJITSU TEN (THAILAN180LUBU0012012                                                                                                                              *          20170602IMF1706025.TXT
MDDUH6203972201706                D89835097900PT4U20170608000015RADIO;ASM DVD                 M IMCTM S9CO001FTTL  07070IMCT  S9 PTB  00003                    0900 SR        000000000000 FUJITSU TEN (THAILAN180LUBU0013013                                                                                                                              *          20170602IMF1706025.TXT
MDDUH6203973201706                D89835097900PT4U20170608000015RADIO;ASM DVD                 M IMCTM S9CO001FTTL  07070IMCT  S9 PTB  00003                    1600 SR        000000000000 FUJITSU TEN (THAILAN180LUCU0046046                                                                                                                              *          20170602IMF1706025.TXT
MDEDH6206950201706                D89805293700PV1D20170608000030SPEAKER ASM                   M IMCTM S5MB14 FTTL  07070IMCT  S5 PTB  00003                    0230 SR        000000000000 FUJITSU TEN (THAILAN15028BL0051051                                                                                                                              *          20170602IMF1706025.TXT
MDEDH6206951201706                D89805294000PT1D20170608000030SPEAKER ASM                   M IMCTM S5NB082FTTL  07070IMCT  S5 PTB  00015                    0230 SR        000000000000 FUJITSU TEN (THAILAN15028BL0051051                                                                                                                              *          20170602IMF1706025.TXT
MDEDH6206952201706                D89805294100PV1D20170608000030SPEAKER ASM                   M IMCTM S5MA14 FTTL  07070IMCT  S5 PTB  00005                    0230 SR        000000000000 FUJITSU TEN (THAILAN15028BL0051051                                                                                                                              *          20170602IMF1706025.TXT
MDEDH6206953201706                D89828070100PV1D20170607000060SPEAKER ASM                   M IMCTM S5MB11 FTTL  07070IMCT  S5 PTB  00004                    2230 SR        000000000000 FUJITSU TEN (THAILAN17029NL0009010                                                                                                                              *          20170602IMF1706025.TXT
MDEDH6206954201706                D89828070100PV1D20170608000030SPEAKER ASM                   M IMCTM S5MB11 FTTL  07070IMCT  S5 PTB  00004                    0230 SR        000000000000 FUJITSU TEN (THAILAN17080NL0072072                                                                                                                              *          20170602IMF1706025.TXT
MDEDH6206955201706                D89828070100PV1D20170608000030SPEAKER ASM                   M IMCTM S5MB11 FTTL  07070IMCT  S5 PTB  00004                    0400 SR        000000000000 FUJITSU TEN (THAILAN17080NL0073073                                                                                                                              *          20170602IMF1706025.TXT
MDEDH6206956201706                D89828070100PV1D20170608000060SPEAKER ASM                   M IMCTM S5MB11 FTTL  07070IMCT  S5 PTB  00004                    0900 SR        000000000000 FUJITSU TEN (THAILAN17081NL0014015                                                                                                                              *          20170602IMF1706025.TXT
MDEDH6206957201706                D89828070100PV1D20170608000090SPEAKER ASM                   M IMCTM S5MB11 FTTL  07070IMCT  S5 PTB  00004                    1600 SR        000000000000 FUJITSU TEN (THAILAN17030NL000300317058NL0019020                                                                                                                *          20170602IMF1706025.TXT
MDEDH6206958201706                D89828070100PV1D20170608000030SPEAKER ASM                   M IMCTM S5MB11 FTTL  07070IMCT  S5 PTB  00004                    2100 SR        000000000000 FUJITSU TEN (THAILAN17057NL0026026                                                                                                                              *          20170602IMF1706025.TXT
MDEDH6206959201706                D89828070100PV4D20170608000030SPEAKER ASM                   M IMCTM S0FL05 FTTL  07070IMCT  S0 PTB  00004                    1600 SR        000000000000 FUJITSU TEN (THAILAN17063NU0003003                                                                                                                              *          20170602IMF1706025.TXT
MDEDH6206960201706                D89828070200PV1D20170608000030SPEAKER ASM                   M IMCTM S5MA14 FTTL  07070IMCT  S5 PTB  00005                    0230 SR        000000000000 FUJITSU TEN (THAILAN17080NL0072072                                                                                                                              *          20170602IMF1706025.TXT
MDEDH6206961201706                D89828070200PV1D20170608000030SPEAKER ASM                   M IMCTM S5MA14 FTTL  07070IMCT  S5 PTB  00005                    0400 SR        000000000000 FUJITSU TEN (THAILAN17080NL0073073                                                                                                                              *          20170602IMF1706025.TXT
MDEDH6206962201706                D89828070200PV1D20170608000060SPEAKER ASM                   M IMCTM S5MA14 FTTL  07070IMCT  S5 PTB  00005                    0900 SR        000000000000 FUJITSU TEN (THAILAN17081NL0014015                                                                                                                              *          20170602IMF1706025.TXT
MDEDH6206963201706                D89828070200PV1D20170608000060SPEAKER ASM                   M IMCTM S5MA14 FTTL  07070IMCT  S5 PTB  00005                    1600 SR        000000000000 FUJITSU TEN (THAILAN17058NL0019020                                                                                                                              *          20170602IMF1706025.TXT
MDEDH6206964201706                D89828070200PV1D20170608000030SPEAKER ASM                   M IMCTM S5MA14 FTTL  07070IMCT  S5 PTB  00005                    2100 SR        000000000000 FUJITSU TEN (THAILAN17057NL0026026                                                                                                                              *          20170602IMF1706025.TXT
MDEDH6206965201706                D89828070300PT1D20170607000060SPEAKER ASM                   M IMCTM S5NB082FTTL  07070IMCT  S5 PTB  00015                    2230 SR        000000000000 FUJITSU TEN (THAILAN17029NL0009010                                                                                                                              *          20170602IMF1706025.TXT
MDEDH6206966201706                D89828070300PT1D20170608000030SPEAKER ASM                   M IMCTM S5NB082FTTL  07070IMCT  S5 PTB  00015                    0230 SR        000000000000 FUJITSU TEN (THAILAN17080NL0072072                                                                                                                              *          20170602IMF1706025.TXT
MDEDH6206967201706                D89828070300PT1D20170608000030SPEAKER ASM                   M IMCTM S5NB082FTTL  07070IMCT  S5 PTB  00015                    0400 SR        000000000000 FUJITSU TEN (THAILAN17080NL0073073                                                                                                                              *          20170602IMF1706025.TXT
MDEDH6206968201706                D89828070300PT1D20170608000060SPEAKER ASM                   M IMCTM S5NB082FTTL  07070IMCT  S5 PTB  00015                    0900 SR        000000000000 FUJITSU TEN (THAILAN17081NL0014015                                                                                                                              *          20170602IMF1706025.TXT
MDEDH6206969201706                D89828070300PT1D20170608000060SPEAKER ASM                   M IMCTM S5NB082FTTL  07070IMCT  S5 PTB  00015                    1600 SR        000000000000 FUJITSU TEN (THAILAN17058NL0019020                                                                                                                              *          20170602IMF1706025.TXT
MDEDH6206970201706                D89828070300PT1D20170608000030SPEAKER ASM                   M IMCTM S5NB082FTTL  07070IMCT  S5 PTB  00015                    2100 SR        000000000000 FUJITSU TEN (THAILAN17057NL0026026                                                                                                                              *          20170602IMF1706025.TXT
MDEDH6206971201706                D89828070300PT4D20170608000030SPEAKER ASM                   M IMCTM S9TS02 FTTL  07070IMCT  S9 PTB  00015                    1600 SR        000000000000 FUJITSU TEN (THAILAN17063NU0003003                                                                                                                              *          20170602IMF1706025.TXT
MDEDH6206972201706                D89829645710PT1D20170608000030RADIO;ASM DVD                 M IMCTM S5NC06 FTTL  07070IMCT  S5 PTB  00003                    1600 SR        000000000000 FUJITSU TEN (THAILAN17058NL0019020                                                                                                                              *          20170602IMF1706025.TXT
MDEDH6206973201706                D89829645710PT1D20170608000015RADIO;ASM DVD                 M IMCTM S5NC06 FTTL  07070IMCT  S5 PTB  00003                    2100 SR        000000000000 FUJITSU TEN (THAILAN17057NL0026026                                                                                                                              *          20170602IMF1706025.TXT
MDEDH6206974201706                D89829645710PT4D20170608000015RADIO;ASM DVD                 M IMCTM S9CO001FTTL  07070IMCT  S9 PTB  00003                    1600 SR        000000000000 FUJITSU TEN (THAILAN17063NU0003003                                                                                                                              *          20170602IMF1706025.TXT
MDEUH6203046201706                D89828070100PT4U20170607000030SPEAKER ASM                   M IMCTM S0FL05 FTTL  07070IMCT  S0 PTB  00004                    2230 SR        000000000000 FUJITSU TEN (THAILAN18023TU0095095                                                                                                                              *          20170602IMF1706025.TXT
MDEUH6203047201706                D89828070100PT4U20170608000060SPEAKER ASM                   M IMCTM S0FL05 FTTL  07070IMCT  S0 PTB  00004                    0400 SR        000000000000 FUJITSU TEN (THAILAN170C13U0095095170C16U0221221                                                                                                                *          20170602IMF1706025.TXT
MDEUH6203048201706                D89828070100PT4U20170608000030SPEAKER ASM                   M IMCTM S0FL05 FTTL  07070IMCT  S0 PTB  00004                    0900 SR        000000000000 FUJITSU TEN (THAILAN18022TU0018018                                                                                                                              *          20170602IMF1706025.TXT
MDEUH6203049201706                D89828070100PT4U20170608000030SPEAKER ASM                   M IMCTM S0FL05 FTTL  07070IMCT  S0 PTB  00004                    1600 SR        000000000000 FUJITSU TEN (THAILAN18018TU0022022                                                                                                                              *          20170602IMF1706025.TXT
MDEUH6203050201706                D89828070200PV4U20170607000030SPEAKER ASM                   M IMCTM S0FR05 FTTL  07070IMCT  S0 PTB  00005                    2230 SR        000000000000 FUJITSU TEN (THAILAN18023TU0095095                                                                                                                              *          20170602IMF1706025.TXT
MDEUH6203051201706                D89828070200PV4U20170608000060SPEAKER ASM                   M IMCTM S0FR05 FTTL  07070IMCT  S0 PTB  00005                    0400 SR        000000000000 FUJITSU TEN (THAILAN170C13U0095095170C16U0221221                                                                                                                *          20170602IMF1706025.TXT
MDEUH6203052201706                D89828070200PV4U20170608000030SPEAKER ASM                   M IMCTM S0FR05 FTTL  07070IMCT  S0 PTB  00005                    0900 SR        000000000000 FUJITSU TEN (THAILAN18022TU0018018                                                                                                                              *          20170602IMF1706025.TXT
MDEUH6203053201706                D89828070200PV4U20170608000030SPEAKER ASM                   M IMCTM S0FR05 FTTL  07070IMCT  S0 PTB  00005                    1600 SR        000000000000 FUJITSU TEN (THAILAN18018TU0022022                                                                                                                              *          20170602IMF1706025.TXT
MDEUH6203054201706                D89828070300PT4U20170607000030SPEAKER ASM                   M IMCTM S9TS02 FTTL  07070IMCT  S9 PTB  00015                    2230 SR        000000000000 FUJITSU TEN (THAILAN18023TU0095095                                                                                                                              *          20170602IMF1706025.TXT
MDEUH6203055201706                D89828070300PT4U20170608000060SPEAKER ASM                   M IMCTM S9TS02 FTTL  07070IMCT  S9 PTB  00015                    0400 SR        000000000000 FUJITSU TEN (THAILAN170C13U0095095170C16U0221221                                                                                                                *          20170602IMF1706025.TXT
MDEUH6203056201706                D89828070300PT4U20170608000030SPEAKER ASM                   M IMCTM S9TS02 FTTL  07070IMCT  S9 PTB  00015                    0900 SR        000000000000 FUJITSU TEN (THAILAN18022TU0018018                                                                                                                              *          20170602IMF1706025.TXT
MDEUH6203057201706                D89828070300PT4U20170608000030SPEAKER ASM                   M IMCTM S9TS02 FTTL  07070IMCT  S9 PTB  00015                    1600 SR        000000000000 FUJITSU TEN (THAILAN18018TU0022022                                                                                                                              *          20170602IMF1706025.TXT
