REC2017053120170601ISUZU                              7      
MAEDH5602109201708                 89828070100PV1D20170703000002SPEAKER ASM                   M IMCTM ST00000FTTL  07070IMCT  ST PTB  00004  DC                0000 SR        000000000000 FUJITSU TEN (THAILAN18012VL0001001                                                                                                                              *P         20170531IMF1705317.TXT
MAEDH5602110201708                 89828070100PV1D20170724000008SPEAKER ASM                   M IMCTM ST00000FTTL  07070IMCT  ST PTB  00004  DC                0000 SR        000000000000 FUJITSU TEN (THAILAN18071TL000100218075TL0001002                                                                                                                *P         20170531IMF1705317.TXT
MAEDH5602111201708                 89828070200PV1D20170703000002SPEAKER ASM                   M IMCTM ST00000FTTL  07070IMCT  ST PTB  00005  DC                0000 SR        000000000000 FUJITSU TEN (THAILAN18012VL0001001                                                                                                                              *P         20170531IMF1705317.TXT
MAEDH5602112201708                 89828070200PV1D20170724000008SPEAKER ASM                   M IMCTM ST00000FTTL  07070IMCT  ST PTB  00005  DC                0000 SR        000000000000 FUJITSU TEN (THAILAN18071TL000100218075TL0001002                                                                                                                *P         20170531IMF1705317.TXT
MAEDH5602113201708                 89828070300PT1D20170703000002SPEAKER ASM                   M IMCTM ST00000FTTL  07070IMCT  ST PTB  00015  DC                0000 SR        000000000000 FUJITSU TEN (THAILAN18012VL0001001                                                                                                                              *P         20170531IMF1705317.TXT
MAEDH5602114201708                 89828070300PT1D20170724000008SPEAKER ASM                   M IMCTM ST00000FTTL  07070IMCT  ST PTB  00015  DC                0000 SR        000000000000 FUJITSU TEN (THAILAN18071TL000100218075TL0001002                                                                                                                *P         20170531IMF1705317.TXT
MAEDH5602115201708                 89831229200PT1D20170724000004RADIO;AM/FM,CD                M IMCTM ST00000FTTL  07070IMCT  ST PTB  00003  DC                0000 SR        000000000000 FUJITSU TEN (THAILAN18071TL000100218075TL0001002                                                                                                                *P         20170531IMF1705317.TXT
