REC2017061320170613ISUZU                              8      
MECKH6800408000000          IMKDC  89805294000P3YK20170622000001SPEAKER ASM                   M IMCTM IMKDC  FTTL  07070IMKDC KN*  PTB00015    K293G7400   001 0000 ES        000000000000 FUJITSU TEN (THAILAN                                                                                                                                            *E         20170613WMF1706132.TXT
MECKH6800409000000          IMKDC  89828070300P3YK20170621000001SPEAKER ASM                   M IMCTM IMKDC  FTTL  07070IMKDC KN*PTB  00015    K293G7390   001 0000 ES        000000000000 FUJITSU TEN (THAILAN                                                                                                                                            *E         20170613WMF1706132.TXT
MHDUH5600278201707                 89828070100PT4U20170703000004SPEAKER ASM                   M IMCTM ST00000FTTL  07070IMCT  ST PTB  00003 CDC                0000 SR        000000000000 FUJITSU TEN (THAILAN180L5JU0003004                                                                                                                              *  2017070500000000WMF1706132.TXT
MHDUH5600279201707                 89828070200PV4U20170703000004SPEAKER ASM                   M IMCTM ST00000FTTL  07070IMCT  ST PTB  00005 CDC                0000 SR        000000000000 FUJITSU TEN (THAILAN180L5JU0003004                                                                                                                              *  2017070500000000WMF1706132.TXT
MHDUH5600280201707                 89828070300PT4U20170703000004SPEAKER ASM                   M IMCTM ST00000FTTL  07070IMCT  ST PTB  00015 CDC                0000 SR        000000000000 FUJITSU TEN (THAILAN180L5JU0003004                                                                                                                              *  2017070500000000WMF1706132.TXT
MHEUH5600288201708                 89828070100PT4U20170724000002SPEAKER ASM                   M IMCTM ST00000FTTL  07070IMCT  ST PTB  00004 CDC                0000 SR        000000000000 FUJITSU TEN (THAILAN18010VU0001001                                                                                                                              *  2017070300000000WMF1706132.TXT
MHEUH5600289201708                 89828070200PV4U20170724000002SPEAKER ASM                   M IMCTM ST00000FTTL  07070IMCT  ST PTB  00005 CDC                0000 SR        000000000000 FUJITSU TEN (THAILAN18010VU0001001                                                                                                                              *  2017070300000000WMF1706132.TXT
MHEUH5600290201708                 89828070300PT4U20170724000002SPEAKER ASM                   M IMCTM ST00000FTTL  07070IMCT  ST PTB  00015 CDC                0000 SR        000000000000 FUJITSU TEN (THAILAN18010VU0001001                                                                                                                              *  2017070300000000WMF1706132.TXT
