REC2017060120170601ISUZU                              67     
MDDDH6200853201706                D89821984430PT1D20170607000030RADIO;AM/FM,CD                M IMCTM S5NC06 FTTL  07070IMCT  S5 PTB  00005                    0230 SR        000000000000 FUJITSU TEN (THAILAN170KPAL0115115                                                                                                                              *          20170601IMF1706015.TXT
MDDDH6200854201706                D89821984430PT1D20170607000030RADIO;AM/FM,CD                M IMCTM S5NC06 FTTL  07070IMCT  S5 PTB  00005                    0400 SR        000000000000 FUJITSU TEN (THAILAN170KRAL0088088                                                                                                                              *          20170601IMF1706015.TXT
MDDDH6200855201706                D89821984430PT1D20170607000030RADIO;AM/FM,CD                M IMCTM S5NC06 FTTL  07070IMCT  S5 PTB  00005                    0900 SR        000000000000 FUJITSU TEN (THAILAN170KNEL0110110                                                                                                                              *          20170601IMF1706015.TXT
MDDDH6200856201706                D89828070100PV1D20170607000060SPEAKER ASM                   M IMCTM S5MB11 FTTL  07070IMCT  S5 PTB  00004                    0230 SR        000000000000 FUJITSU TEN (THAILAN170KPAL0115115                                                                                                                              *          20170601IMF1706015.TXT
MDDDH6200857201706                D89828070100PV1D20170607000060SPEAKER ASM                   M IMCTM S5MB11 FTTL  07070IMCT  S5 PTB  00004                    0400 SR        000000000000 FUJITSU TEN (THAILAN170KRAL0088088                                                                                                                              *          20170601IMF1706015.TXT
MDDDH6200858201706                D89828070100PV1D20170607000120SPEAKER ASM                   M IMCTM S5MB11 FTTL  07070IMCT  S5 PTB  00004                    0900 SR        000000000000 FUJITSU TEN (THAILAN170KNEL0110110170KRFL0099099                                                                                                                *          20170601IMF1706015.TXT
MDDDH6200859201706                D89828070100PV1D20170607000060SPEAKER ASM                   M IMCTM S5MB11 FTTL  07070IMCT  S5 PTB  00004                    1300 SR        000000000000 FUJITSU TEN (THAILAN170KRGL0010010                                                                                                                              *          20170601IMF1706015.TXT
MDDDH6200860201706                D89828070100PV1D20170607000060SPEAKER ASM                   M IMCTM S5MB11 FTTL  07070IMCT  S5 PTB  00004                    1600 SR        000000000000 FUJITSU TEN (THAILAN170KNAL0055055                                                                                                                              *          20170601IMF1706015.TXT
MDDDH6200861201706                D89828070100PV1D20170607000060SPEAKER ASM                   M IMCTM S5MB11 FTTL  07070IMCT  S5 PTB  00004                    2100 SR        000000000000 FUJITSU TEN (THAILAN170KPGL0019019                                                                                                                              *          20170601IMF1706015.TXT
MDDDH6200862201706                D89828070200PV1D20170607000060SPEAKER ASM                   M IMCTM S5MA14 FTTL  07070IMCT  S5 PTB  00005                    0900 SR        000000000000 FUJITSU TEN (THAILAN170KRFL0099099                                                                                                                              *          20170601IMF1706015.TXT
MDDDH6200863201706                D89828070200PV1D20170607000060SPEAKER ASM                   M IMCTM S5MA14 FTTL  07070IMCT  S5 PTB  00005                    1300 SR        000000000000 FUJITSU TEN (THAILAN170KRGL0010010                                                                                                                              *          20170601IMF1706015.TXT
MDDDH6200864201706                D89828070300PT1D20170607000060SPEAKER ASM                   M IMCTM S5NB082FTTL  07070IMCT  S5 PTB  00015                    0900 SR        000000000000 FUJITSU TEN (THAILAN170KRFL0099099                                                                                                                              *          20170601IMF1706015.TXT
MDDDH6200865201706                D89828070300PT1D20170607000060SPEAKER ASM                   M IMCTM S5NB082FTTL  07070IMCT  S5 PTB  00015                    1300 SR        000000000000 FUJITSU TEN (THAILAN170KRGL0010010                                                                                                                              *          20170601IMF1706015.TXT
MDDDH6200866201706                D89828070300PT1D20170607000060SPEAKER ASM                   M IMCTM S5NB082FTTL  07070IMCT  S5 PTB  00015                    2100 SR        000000000000 FUJITSU TEN (THAILAN170KPGL0019019                                                                                                                              *          20170601IMF1706015.TXT
MDDDH6200867201706                D89829645910PT1D20170607000030RADIO;ASM DVD                 M IMCTM S5NC06 FTTL  07070IMCT  S5 CPB  00003                    0900 SR        000000000000 FUJITSU TEN (THAILAN170KRFL0099099                                                                                                                              *          20170601IMF1706015.TXT
MDDDH6200868201706                D89829645910PT1D20170607000030RADIO;ASM DVD                 M IMCTM S5NC06 FTTL  07070IMCT  S5 CPB  00003                    1300 SR        000000000000 FUJITSU TEN (THAILAN170KRGL0010010                                                                                                                              *          20170601IMF1706015.TXT
MDDDH6200869201706                D89831228300PT1D20170607000030RADIO;AM/FM,CD                M IMCTM S5NC06 FTTL  07070IMCT  S5 CPB  00003                    2100 SR        000000000000 FUJITSU TEN (THAILAN170KPGL0019019                                                                                                                              *          20170601IMF1706015.TXT
MDDUH6200574201706                D89828070100PT4U20170606000030SPEAKER ASM                   M IMCTM S0FL05 FTTL  07070IMCT  S0 PTB  00004                    2230 SR        000000000000 FUJITSU TEN (THAILAN180LUDU0162162                                                                                                                              *          20170601IMF1706015.TXT
MDDUH6200575201706                D89828070100PT4U20170607000030SPEAKER ASM                   M IMCTM S0FL05 FTTL  07070IMCT  S0 PTB  00004                    0900 SR        000000000000 FUJITSU TEN (THAILAN180LUFU0032032                                                                                                                              *          20170601IMF1706015.TXT
MDDUH6200576201706                D89828070100PT4U20170607000030SPEAKER ASM                   M IMCTM S0FL05 FTTL  07070IMCT  S0 PTB  00004                    1300 SR        000000000000 FUJITSU TEN (THAILAN180LUCU0045045                                                                                                                              *          20170601IMF1706015.TXT
MDDUH6200577201706                D89828070100PT4U20170607000030SPEAKER ASM                   M IMCTM S0FL05 FTTL  07070IMCT  S0 PTB  00004                    2100 SR        000000000000 FUJITSU TEN (THAILAN180LUDU0163163                                                                                                                              *          20170601IMF1706015.TXT
MDDUH6200578201706                D89828070200PV4U20170606000030SPEAKER ASM                   M IMCTM S0FR05 FTTL  07070IMCT  S0 PTB  00005                    2230 SR        000000000000 FUJITSU TEN (THAILAN180LUDU0162162                                                                                                                              *          20170601IMF1706015.TXT
MDDUH6200579201706                D89828070200PV4U20170607000030SPEAKER ASM                   M IMCTM S0FR05 FTTL  07070IMCT  S0 PTB  00005                    0900 SR        000000000000 FUJITSU TEN (THAILAN180LUFU0032032                                                                                                                              *          20170601IMF1706015.TXT
MDDUH6200580201706                D89828070200PV4U20170607000030SPEAKER ASM                   M IMCTM S0FR05 FTTL  07070IMCT  S0 PTB  00005                    1300 SR        000000000000 FUJITSU TEN (THAILAN180LUCU0045045                                                                                                                              *          20170601IMF1706015.TXT
MDDUH6200581201706                D89828070200PV4U20170607000030SPEAKER ASM                   M IMCTM S0FR05 FTTL  07070IMCT  S0 PTB  00005                    2100 SR        000000000000 FUJITSU TEN (THAILAN180LUDU0163163                                                                                                                              *          20170601IMF1706015.TXT
MDDUH6200582201706                D89828070300PT4U20170606000030SPEAKER ASM                   M IMCTM S9TS02 FTTL  07070IMCT  S9 PTB  00015                    2230 SR        000000000000 FUJITSU TEN (THAILAN180LUDU0162162                                                                                                                              *          20170601IMF1706015.TXT
MDDUH6200583201706                D89828070300PT4U20170607000030SPEAKER ASM                   M IMCTM S9TS02 FTTL  07070IMCT  S9 PTB  00015                    0900 SR        000000000000 FUJITSU TEN (THAILAN180LUFU0032032                                                                                                                              *          20170601IMF1706015.TXT
MDDUH6200584201706                D89828070300PT4U20170607000030SPEAKER ASM                   M IMCTM S9TS02 FTTL  07070IMCT  S9 PTB  00015                    1300 SR        000000000000 FUJITSU TEN (THAILAN180LUCU0045045                                                                                                                              *          20170601IMF1706015.TXT
MDDUH6200585201706                D89828070300PT4U20170607000030SPEAKER ASM                   M IMCTM S9TS02 FTTL  07070IMCT  S9 PTB  00015                    2100 SR        000000000000 FUJITSU TEN (THAILAN180LUDU0163163                                                                                                                              *          20170601IMF1706015.TXT
MDDUH6200586201706                D89835097900PT4U20170607000015RADIO;ASM DVD                 M IMCTM S9CO001FTTL  07070IMCT  S9 PTB  00003                    1300 SR        000000000000 FUJITSU TEN (THAILAN180LUCU0045045                                                                                                                              *          20170601IMF1706015.TXT
MDEDH6201290201706                D89805293700PV1D20170606000030SPEAKER ASM                   M IMCTM S5MB14 FTTL  07070IMCT  S5 PTB  00003                    2230 SR        000000000000 FUJITSU TEN (THAILAN15029BL0011011                                                                                                                              *          20170601IMF1706015.TXT
MDEDH6201291201706                D89805294000PT1D20170606000030SPEAKER ASM                   M IMCTM S5NB082FTTL  07070IMCT  S5 PTB  00015                    2230 SR        000000000000 FUJITSU TEN (THAILAN15029BL0011011                                                                                                                              *          20170601IMF1706015.TXT
MDEDH6201292201706                D89805294100PV1D20170606000030SPEAKER ASM                   M IMCTM S5MA14 FTTL  07070IMCT  S5 PTB  00005                    2230 SR        000000000000 FUJITSU TEN (THAILAN15029BL0011011                                                                                                                              *          20170601IMF1706015.TXT
MDEDH6201293201706                D89828070100PV1D20170606000030SPEAKER ASM                   M IMCTM S5MB11 FTTL  07070IMCT  S5 PTB  00004                    2230 SR        000000000000 FUJITSU TEN (THAILAN17057NL0025025                                                                                                                              *          20170601IMF1706015.TXT
MDEDH6201294201706                D89828070100PV1D20170607000030SPEAKER ASM                   M IMCTM S5MB11 FTTL  07070IMCT  S5 PTB  00004                    0230 SR        000000000000 FUJITSU TEN (THAILAN17052TL0001001                                                                                                                              *          20170601IMF1706015.TXT
MDEDH6201295201706                D89828070100PV1D20170607000060SPEAKER ASM                   M IMCTM S5MB11 FTTL  07070IMCT  S5 PTB  00004                    0400 SR        000000000000 FUJITSU TEN (THAILAN17027ML000100117041PL0031031                                                                                                                *          20170601IMF1706015.TXT
MDEDH6201296201706                D89828070100PV1D20170607000060SPEAKER ASM                   M IMCTM S5MB11 FTTL  07070IMCT  S5 PTB  00004                    1300 SR        000000000000 FUJITSU TEN (THAILAN17074NL0036037                                                                                                                              *          20170601IMF1706015.TXT
MDEDH6201297201706                D89828070100PV1D20170607000030SPEAKER ASM                   M IMCTM S5MB11 FTTL  07070IMCT  S5 PTB  00004                    1600 SR        000000000000 FUJITSU TEN (THAILAN17061NL0003003                                                                                                                              *          20170601IMF1706015.TXT
MDEDH6201298201706                D89828070100PV4D20170606000030SPEAKER ASM                   M IMCTM S0FL05 FTTL  07070IMCT  S0 PTB  00004                    2230 SR        000000000000 FUJITSU TEN (THAILAN17055NU0016016                                                                                                                              *          20170601IMF1706015.TXT
MDEDH6201299201706                D89828070100PV4D20170607000030SPEAKER ASM                   M IMCTM S0FL05 FTTL  07070IMCT  S0 PTB  00004                    0230 SR        000000000000 FUJITSU TEN (THAILAN17034PU0033033                                                                                                                              *          20170601IMF1706015.TXT
MDEDH6201300201706                D89828070100PV4D20170607000030SPEAKER ASM                   M IMCTM S0FL05 FTTL  07070IMCT  S0 PTB  00004                    1300 SR        000000000000 FUJITSU TEN (THAILAN17029MU0005005                                                                                                                              *          20170601IMF1706015.TXT
MDEDH6201301201706                D89828070200PV1D20170606000030SPEAKER ASM                   M IMCTM S5MA14 FTTL  07070IMCT  S5 PTB  00005                    2230 SR        000000000000 FUJITSU TEN (THAILAN17057NL0025025                                                                                                                              *          20170601IMF1706015.TXT
MDEDH6201302201706                D89828070200PV1D20170607000030SPEAKER ASM                   M IMCTM S5MA14 FTTL  07070IMCT  S5 PTB  00005                    0400 SR        000000000000 FUJITSU TEN (THAILAN17027ML0001001                                                                                                                              *          20170601IMF1706015.TXT
MDEDH6201303201706                D89828070200PV1D20170607000060SPEAKER ASM                   M IMCTM S5MA14 FTTL  07070IMCT  S5 PTB  00005                    1300 SR        000000000000 FUJITSU TEN (THAILAN17074NL0036037                                                                                                                              *          20170601IMF1706015.TXT
MDEDH6201304201706                D89828070200PV1D20170607000030SPEAKER ASM                   M IMCTM S5MA14 FTTL  07070IMCT  S5 PTB  00005                    1600 SR        000000000000 FUJITSU TEN (THAILAN17061NL0003003                                                                                                                              *          20170601IMF1706015.TXT
MDEDH6201305201706                D89828070200PV4D20170607000030SPEAKER ASM                   M IMCTM S0FR05 FTTL  07070IMCT  S0 PTB  00005                    0230 SR        000000000000 FUJITSU TEN (THAILAN17034PU0033033                                                                                                                              *          20170601IMF1706015.TXT
MDEDH6201306201706                D89828070200PV4D20170607000030SPEAKER ASM                   M IMCTM S0FR05 FTTL  07070IMCT  S0 PTB  00005                    1300 SR        000000000000 FUJITSU TEN (THAILAN17029MU0005005                                                                                                                              *          20170601IMF1706015.TXT
MDEDH6201307201706                D89828070300PT1D20170606000030SPEAKER ASM                   M IMCTM S5NB082FTTL  07070IMCT  S5 PTB  00015                    2230 SR        000000000000 FUJITSU TEN (THAILAN17057NL0025025                                                                                                                              *          20170601IMF1706015.TXT
MDEDH6201308201706                D89828070300PT1D20170607000030SPEAKER ASM                   M IMCTM S5NB082FTTL  07070IMCT  S5 PTB  00015                    0400 SR        000000000000 FUJITSU TEN (THAILAN17027ML0001001                                                                                                                              *          20170601IMF1706015.TXT
MDEDH6201309201706                D89828070300PT1D20170607000060SPEAKER ASM                   M IMCTM S5NB082FTTL  07070IMCT  S5 PTB  00015                    1300 SR        000000000000 FUJITSU TEN (THAILAN17074NL0036037                                                                                                                              *          20170601IMF1706015.TXT
MDEDH6201310201706                D89828070300PT1D20170607000030SPEAKER ASM                   M IMCTM S5NB082FTTL  07070IMCT  S5 PTB  00015                    1600 SR        000000000000 FUJITSU TEN (THAILAN17061NL0003003                                                                                                                              *          20170601IMF1706015.TXT
MDEDH6201311201706                D89828070300PT4D20170606000030SPEAKER ASM                   M IMCTM S9TS02 FTTL  07070IMCT  S9 PTB  00015                    2230 SR        000000000000 FUJITSU TEN (THAILAN17055NU0016016                                                                                                                              *          20170601IMF1706015.TXT
MDEDH6201312201706                D89828070300PT4D20170607000030SPEAKER ASM                   M IMCTM S9TS02 FTTL  07070IMCT  S9 PTB  00015                    0230 SR        000000000000 FUJITSU TEN (THAILAN17034PU0033033                                                                                                                              *          20170601IMF1706015.TXT
MDEDH6201313201706                D89828070300PT4D20170607000030SPEAKER ASM                   M IMCTM S9TS02 FTTL  07070IMCT  S9 PTB  00015                    1300 SR        000000000000 FUJITSU TEN (THAILAN17029MU0005005                                                                                                                              *          20170601IMF1706015.TXT
MDEDH6201314201706                D89829645310PT1D20170607000015RADIO;ASM DVD                 M IMCTM S5NC06 FTTL  07070IMCT  S5 PTB  00003                    0400 SR        000000000000 FUJITSU TEN (THAILAN17027ML0001001                                                                                                                              *          20170601IMF1706015.TXT
MDEDH6201315201706                D89829645710PT1D20170606000015RADIO;ASM DVD                 M IMCTM S5NC06 FTTL  07070IMCT  S5 PTB  00003                    2230 SR        000000000000 FUJITSU TEN (THAILAN17057NL0025025                                                                                                                              *          20170601IMF1706015.TXT
MDEDH6201316201706                D89829645710PT1D20170607000030RADIO;ASM DVD                 M IMCTM S5NC06 FTTL  07070IMCT  S5 PTB  00003                    1300 SR        000000000000 FUJITSU TEN (THAILAN17074NL0036037                                                                                                                              *          20170601IMF1706015.TXT
MDEDH6201317201706                D89829645710PT4D20170606000015RADIO;ASM DVD                 M IMCTM S9CO001FTTL  07070IMCT  S9 PTB  00003                    2230 SR        000000000000 FUJITSU TEN (THAILAN17055NU0016016                                                                                                                              *          20170601IMF1706015.TXT
MDEUH6200439201706                D89828070100PT4U20170607000030SPEAKER ASM                   M IMCTM S0FL05 FTTL  07070IMCT  S0 PTB  00004                    0400 SR        000000000000 FUJITSU TEN (THAILAN170C13U0093093                                                                                                                              *          20170601IMF1706015.TXT
MDEUH6200440201706                D89828070100PT4U20170607000030SPEAKER ASM                   M IMCTM S0FL05 FTTL  07070IMCT  S0 PTB  00004                    0900 SR        000000000000 FUJITSU TEN (THAILAN170C13U0094094                                                                                                                              *          20170601IMF1706015.TXT
MDEUH6200441201706                D89828070100PT4U20170607000030SPEAKER ASM                   M IMCTM S0FL05 FTTL  07070IMCT  S0 PTB  00004                    1300 SR        000000000000 FUJITSU TEN (THAILAN18018TU0021021                                                                                                                              *          20170601IMF1706015.TXT
MDEUH6200442201706                D89828070200PV4U20170607000030SPEAKER ASM                   M IMCTM S0FR05 FTTL  07070IMCT  S0 PTB  00005                    0400 SR        000000000000 FUJITSU TEN (THAILAN170C13U0093093                                                                                                                              *          20170601IMF1706015.TXT
MDEUH6200443201706                D89828070200PV4U20170607000030SPEAKER ASM                   M IMCTM S0FR05 FTTL  07070IMCT  S0 PTB  00005                    0900 SR        000000000000 FUJITSU TEN (THAILAN170C13U0094094                                                                                                                              *          20170601IMF1706015.TXT
MDEUH6200444201706                D89828070200PV4U20170607000030SPEAKER ASM                   M IMCTM S0FR05 FTTL  07070IMCT  S0 PTB  00005                    1300 SR        000000000000 FUJITSU TEN (THAILAN18018TU0021021                                                                                                                              *          20170601IMF1706015.TXT
MDEUH6200445201706                D89828070300PT4U20170607000030SPEAKER ASM                   M IMCTM S9TS02 FTTL  07070IMCT  S9 PTB  00015                    0400 SR        000000000000 FUJITSU TEN (THAILAN170C13U0093093                                                                                                                              *          20170601IMF1706015.TXT
MDEUH6200446201706                D89828070300PT4U20170607000030SPEAKER ASM                   M IMCTM S9TS02 FTTL  07070IMCT  S9 PTB  00015                    0900 SR        000000000000 FUJITSU TEN (THAILAN170C13U0094094                                                                                                                              *          20170601IMF1706015.TXT
MDEUH6200447201706                D89828070300PT4U20170607000030SPEAKER ASM                   M IMCTM S9TS02 FTTL  07070IMCT  S9 PTB  00015                    1300 SR        000000000000 FUJITSU TEN (THAILAN18018TU0021021                                                                                                                              *          20170601IMF1706015.TXT
