REC2017062120170621ISUZU                              6      
MADDH6605332201709                 89828070100PV1D20170825000004SPEAKER ASM                   M IMCTM ST00000FTTL  07070IMCT  ST PTB  00003  DC                0000 SR        000000000000 FUJITSU TEN (THAILAN180L2KL0001001180L2LL0001001                                                                                                                *P         20170621WMF1706211.TXT
MADDH6605333201709                 89828070200PV1D20170825000002SPEAKER ASM                   M IMCTM ST00000FTTL  07070IMCT  ST PTB  00005  DC                0000 SR        000000000000 FUJITSU TEN (THAILAN180L2LL0001001                                                                                                                              *P         20170621WMF1706211.TXT
MADDH6605334201709                 89828070300PT1D20170825000004SPEAKER ASM                   M IMCTM ST00000FTTL  07070IMCT  ST PTB  00015  DC                0000 SR        000000000000 FUJITSU TEN (THAILAN180L2KL0001001180L2LL0001001                                                                                                                *P         20170621WMF1706211.TXT
MAEDH6607232201709                 89828070100PV1D20170825000002SPEAKER ASM                   M IMCTM ST00000FTTL  07070IMCT  ST PTB  00003  DC                0000 SR        000000000000 FUJITSU TEN (THAILAN18015VL0001001                                                                                                                              *P         20170621WMF1706211.TXT
MAEDH6607233201709                 89828070200PV1D20170825000002SPEAKER ASM                   M IMCTM ST00000FTTL  07070IMCT  ST PTB  00005  DC                0000 SR        000000000000 FUJITSU TEN (THAILAN18015VL0001001                                                                                                                              *P         20170621WMF1706211.TXT
MAEDH6607234201709                 89828070300PT1D20170825000002SPEAKER ASM                   M IMCTM ST00000FTTL  07070IMCT  ST PTB  00015  DC                0000 SR        000000000000 FUJITSU TEN (THAILAN18015VL0001001                                                                                                                              *P         20170621WMF1706211.TXT
