REC2017040420170404ISUZU                              4      
MAEUH4600279201707                 89828070100PT4U20170605000006SPEAKER ASM                   M IMCTM ST00000FTTL  07070IMCT  ST PTB  00003  DC                0000 SR        000000000000 FUJITSU TEN (THAILAN18065TU000100218067TU0001001                                                                                                                *P         20170404IMF1704041.TXT
MAEUH4600280201707                 89828070200PV4U20170605000006SPEAKER ASM                   M IMCTM ST00000FTTL  07070IMCT  ST PTB  00005  DC                0000 SR        000000000000 FUJITSU TEN (THAILAN18065TU000100218067TU0001001                                                                                                                *P         20170404IMF1704041.TXT
MAEUH4600281201707                 89828070300PT4U20170605000006SPEAKER ASM                   M IMCTM ST00000FTTL  07070IMCT  ST PTB  00015  DC                0000 SR        000000000000 FUJITSU TEN (THAILAN18065TU000100218067TU0001001                                                                                                                *P         20170404IMF1704041.TXT
MAEUH4600282201707                 89831229200PT4U20170605000003RADIO;AM/FM,CD                M IMCTM ST00000FTTL  07070IMCT  ST PTB  00003  DC                0000 SR        000000000000 FUJITSU TEN (THAILAN18065TU000100218067TU0001001                                                                                                                *P         20170404IMF1704041.TXT
