REC2017060720170607ISUZU                              70     
MDDDH6216955201706                D89821984430PT1D20170610000030RADIO;AM/FM,CD                M IMCTM S5NC06 FTTL  07070IMCT  S5 PTB  00005                    2230 SR        000000000000 FUJITSU TEN (THAILAN170KNDL0121121                                                                                                                              *          20170607WMF1706074.TXT
MDDDH6216956201706                D89821984430PT1D20170611000030RADIO;AM/FM,CD                M IMCTM S5NC06 FTTL  07070IMCT  S5 PTB  00005                    0230 SR        000000000000 FUJITSU TEN (THAILAN170KPRL0001001                                                                                                                              *          20170607WMF1706074.TXT
MDDDH6216957201706                D89821984430PT1D20170611000030RADIO;AM/FM,CD                M IMCTM S5NC06 FTTL  07070IMCT  S5 PTB  00005                    0400 SR        000000000000 FUJITSU TEN (THAILAN170KNGL0001001                                                                                                                              *          20170607WMF1706074.TXT
MDDDH6216958201706                D89828070100PV1D20170610000060SPEAKER ASM                   M IMCTM S5MB11 FTTL  07070IMCT  S5 PTB  00004                    2230 SR        000000000000 FUJITSU TEN (THAILAN170KNDL0121121                                                                                                                              *          20170607WMF1706074.TXT
MDDDH6216959201706                D89828070100PV1D20170611000060SPEAKER ASM                   M IMCTM S5MB11 FTTL  07070IMCT  S5 PTB  00004                    0230 SR        000000000000 FUJITSU TEN (THAILAN170KPRL0001001                                                                                                                              *          20170607WMF1706074.TXT
MDDDH6216960201706                D89828070100PV1D20170611000060SPEAKER ASM                   M IMCTM S5MB11 FTTL  07070IMCT  S5 PTB  00004                    0400 SR        000000000000 FUJITSU TEN (THAILAN170KNGL0001001                                                                                                                              *          20170607WMF1706074.TXT
MDDDH6216961201706                D89828070100PV1D20170612000060SPEAKER ASM                   M IMCTM S5MB11 FTTL  07070IMCT  S5 PTB  00004                    0900 SR        000000000000 FUJITSU TEN (THAILAN170KRFL0101101                                                                                                                              *          20170607WMF1706074.TXT
MDDDH6216962201706                D89828070100PV1D20170612000060SPEAKER ASM                   M IMCTM S5MB11 FTTL  07070IMCT  S5 PTB  00004                    1300 SR        000000000000 FUJITSU TEN (THAILAN170KRFL0100100                                                                                                                              *          20170607WMF1706074.TXT
MDDDH6216963201706                D89828070100PV1D20170612000060SPEAKER ASM                   M IMCTM S5MB11 FTTL  07070IMCT  S5 PTB  00004                    2100 SR        000000000000 FUJITSU TEN (THAILAN170KRFL0102102                                                                                                                              *          20170607WMF1706074.TXT
MDDDH6216964201706                D89828070200PV1D20170612000060SPEAKER ASM                   M IMCTM S5MA14 FTTL  07070IMCT  S5 PTB  00005                    0900 SR        000000000000 FUJITSU TEN (THAILAN170KRFL0101101                                                                                                                              *          20170607WMF1706074.TXT
MDDDH6216965201706                D89828070200PV1D20170612000060SPEAKER ASM                   M IMCTM S5MA14 FTTL  07070IMCT  S5 PTB  00005                    1300 SR        000000000000 FUJITSU TEN (THAILAN170KRFL0100100                                                                                                                              *          20170607WMF1706074.TXT
MDDDH6216966201706                D89828070200PV1D20170612000060SPEAKER ASM                   M IMCTM S5MA14 FTTL  07070IMCT  S5 PTB  00005                    2100 SR        000000000000 FUJITSU TEN (THAILAN170KRFL0102102                                                                                                                              *          20170607WMF1706074.TXT
MDDDH6216967201706                D89828070300PT1D20170612000060SPEAKER ASM                   M IMCTM S5NB082FTTL  07070IMCT  S5 PTB  00015                    0900 SR        000000000000 FUJITSU TEN (THAILAN170KRFL0101101                                                                                                                              *          20170607WMF1706074.TXT
MDDDH6216968201706                D89828070300PT1D20170612000060SPEAKER ASM                   M IMCTM S5NB082FTTL  07070IMCT  S5 PTB  00015                    1300 SR        000000000000 FUJITSU TEN (THAILAN170KRFL0100100                                                                                                                              *          20170607WMF1706074.TXT
MDDDH6216969201706                D89828070300PT1D20170612000060SPEAKER ASM                   M IMCTM S5NB082FTTL  07070IMCT  S5 PTB  00015                    2100 SR        000000000000 FUJITSU TEN (THAILAN170KRFL0102102                                                                                                                              *          20170607WMF1706074.TXT
MDDDH6216970201706                D89829645910PT1D20170612000030RADIO;ASM DVD                 M IMCTM S5NC06 FTTL  07070IMCT  S5 CPB  00003                    0900 SR        000000000000 FUJITSU TEN (THAILAN170KRFL0101101                                                                                                                              *          20170607WMF1706074.TXT
MDDDH6216971201706                D89829645910PT1D20170612000030RADIO;ASM DVD                 M IMCTM S5NC06 FTTL  07070IMCT  S5 CPB  00003                    1300 SR        000000000000 FUJITSU TEN (THAILAN170KRFL0100100                                                                                                                              *          20170607WMF1706074.TXT
MDDDH6216972201706                D89829645910PT1D20170612000030RADIO;ASM DVD                 M IMCTM S5NC06 FTTL  07070IMCT  S5 CPB  00003                    2100 SR        000000000000 FUJITSU TEN (THAILAN170KRFL0102102                                                                                                                              *          20170607WMF1706074.TXT
MDDUH6215135201706                D89828070100PT4U20170611000030SPEAKER ASM                   M IMCTM S0FL05 FTTL  07070IMCT  S0 PTB  00004                    0230 SR        000000000000 FUJITSU TEN (THAILAN180LUCU0050050                                                                                                                              *          20170607WMF1706074.TXT
MDDUH6215136201706                D89828070100PT4U20170611000030SPEAKER ASM                   M IMCTM S0FL05 FTTL  07070IMCT  S0 PTB  00004                    0400 SR        000000000000 FUJITSU TEN (THAILAN180LUEU0102102                                                                                                                              *          20170607WMF1706074.TXT
MDDUH6215137201706                D89828070100PT4U20170612000030SPEAKER ASM                   M IMCTM S0FL05 FTTL  07070IMCT  S0 PTB  00004                    2100 SR        000000000000 FUJITSU TEN (THAILAN180LUDU0169169                                                                                                                              *          20170607WMF1706074.TXT
MDDUH6215138201706                D89828070200PV4U20170611000030SPEAKER ASM                   M IMCTM S0FR05 FTTL  07070IMCT  S0 PTB  00005                    0230 SR        000000000000 FUJITSU TEN (THAILAN180LUCU0050050                                                                                                                              *          20170607WMF1706074.TXT
MDDUH6215139201706                D89828070200PV4U20170611000030SPEAKER ASM                   M IMCTM S0FR05 FTTL  07070IMCT  S0 PTB  00005                    0400 SR        000000000000 FUJITSU TEN (THAILAN180LUEU0102102                                                                                                                              *          20170607WMF1706074.TXT
MDDUH6215140201706                D89828070200PV4U20170612000030SPEAKER ASM                   M IMCTM S0FR05 FTTL  07070IMCT  S0 PTB  00005                    2100 SR        000000000000 FUJITSU TEN (THAILAN180LUDU0169169                                                                                                                              *          20170607WMF1706074.TXT
MDDUH6215141201706                D89828070300PT4U20170611000030SPEAKER ASM                   M IMCTM S9TS02 FTTL  07070IMCT  S9 PTB  00015                    0230 SR        000000000000 FUJITSU TEN (THAILAN180LUCU0050050                                                                                                                              *          20170607WMF1706074.TXT
MDDUH6215142201706                D89828070300PT4U20170611000030SPEAKER ASM                   M IMCTM S9TS02 FTTL  07070IMCT  S9 PTB  00015                    0400 SR        000000000000 FUJITSU TEN (THAILAN180LUEU0102102                                                                                                                              *          20170607WMF1706074.TXT
MDDUH6215143201706                D89828070300PT4U20170612000030SPEAKER ASM                   M IMCTM S9TS02 FTTL  07070IMCT  S9 PTB  00015                    2100 SR        000000000000 FUJITSU TEN (THAILAN180LUDU0169169                                                                                                                              *          20170607WMF1706074.TXT
MDDUH6215144201706                D89835097900PT4U20170611000015RADIO;ASM DVD                 M IMCTM S9CO001FTTL  07070IMCT  S9 PTB  00003                    0230 SR        000000000000 FUJITSU TEN (THAILAN180LUCU0050050                                                                                                                              *          20170607WMF1706074.TXT
MDEDH6224047201706                D89828070100PV1D20170610000030SPEAKER ASM                   M IMCTM S5MB11 FTTL  07070IMCT  S5 PTB  00004                    2230 SR        000000000000 FUJITSU TEN (THAILAN17074NL0038038                                                                                                                              *          20170607WMF1706074.TXT
MDEDH6224048201706                D89828070100PV1D20170611000030SPEAKER ASM                   M IMCTM S5MB11 FTTL  07070IMCT  S5 PTB  00004                    0230 SR        000000000000 FUJITSU TEN (THAILAN17074NL0039039                                                                                                                              *          20170607WMF1706074.TXT
MDEDH6224049201706                D89828070100PV1D20170611000060SPEAKER ASM                   M IMCTM S5MB11 FTTL  07070IMCT  S5 PTB  00004                    0400 SR        000000000000 FUJITSU TEN (THAILAN17015PL000900917062ML0009009                                                                                                                *          20170607WMF1706074.TXT
MDEDH6224050201706                D89828070100PV1D20170612000060SPEAKER ASM                   M IMCTM S5MB11 FTTL  07070IMCT  S5 PTB  00004                    0900 SR        000000000000 FUJITSU TEN (THAILAN17059NL0011012                                                                                                                              *          20170607WMF1706074.TXT
MDEDH6224051201706                D89828070100PV1D20170612000060SPEAKER ASM                   M IMCTM S5MB11 FTTL  07070IMCT  S5 PTB  00004                    1300 SR        000000000000 FUJITSU TEN (THAILAN17064NL001301317068ML0008008                                                                                                                *          20170607WMF1706074.TXT
MDEDH6224052201706                D89828070100PV1D20170612000060SPEAKER ASM                   M IMCTM S5MB11 FTTL  07070IMCT  S5 PTB  00004                    1600 SR        000000000000 FUJITSU TEN (THAILAN17018ML0016017                                                                                                                              *          20170607WMF1706074.TXT
MDEDH6224053201706                D89828070100PV4D20170611000030SPEAKER ASM                   M IMCTM S0FL05 FTTL  07070IMCT  S0 PTB  00004                    0400 SR        000000000000 FUJITSU TEN (THAILAN17080NU0032032                                                                                                                              *          20170607WMF1706074.TXT
MDEDH6224054201706                D89828070100PV4D20170612000030SPEAKER ASM                   M IMCTM S0FL05 FTTL  07070IMCT  S0 PTB  00004                    1300 SR        000000000000 FUJITSU TEN (THAILAN17055NU0017017                                                                                                                              *          20170607WMF1706074.TXT
MDEDH6224055201706                D89828070200PV1D20170610000030SPEAKER ASM                   M IMCTM S5MA14 FTTL  07070IMCT  S5 PTB  00005                    2230 SR        000000000000 FUJITSU TEN (THAILAN17074NL0038038                                                                                                                              *          20170607WMF1706074.TXT
MDEDH6224056201706                D89828070200PV1D20170611000030SPEAKER ASM                   M IMCTM S5MA14 FTTL  07070IMCT  S5 PTB  00005                    0230 SR        000000000000 FUJITSU TEN (THAILAN17074NL0039039                                                                                                                              *          20170607WMF1706074.TXT
MDEDH6224057201706                D89828070200PV1D20170611000030SPEAKER ASM                   M IMCTM S5MA14 FTTL  07070IMCT  S5 PTB  00005                    0400 SR        000000000000 FUJITSU TEN (THAILAN17015PL0009009                                                                                                                              *          20170607WMF1706074.TXT
MDEDH6224058201706                D89828070200PV1D20170612000060SPEAKER ASM                   M IMCTM S5MA14 FTTL  07070IMCT  S5 PTB  00005                    0900 SR        000000000000 FUJITSU TEN (THAILAN17059NL0011012                                                                                                                              *          20170607WMF1706074.TXT
MDEDH6224059201706                D89828070200PV1D20170612000060SPEAKER ASM                   M IMCTM S5MA14 FTTL  07070IMCT  S5 PTB  00005                    1600 SR        000000000000 FUJITSU TEN (THAILAN17018ML0016017                                                                                                                              *          20170607WMF1706074.TXT
MDEDH6224060201706                D89828070200PV4D20170611000030SPEAKER ASM                   M IMCTM S0FR05 FTTL  07070IMCT  S0 PTB  00005                    0400 SR        000000000000 FUJITSU TEN (THAILAN17080NU0032032                                                                                                                              *          20170607WMF1706074.TXT
MDEDH6224061201706                D89828070300PT1D20170610000030SPEAKER ASM                   M IMCTM S5NB082FTTL  07070IMCT  S5 PTB  00015                    2230 SR        000000000000 FUJITSU TEN (THAILAN17074NL0038038                                                                                                                              *          20170607WMF1706074.TXT
MDEDH6224062201706                D89828070300PT1D20170611000030SPEAKER ASM                   M IMCTM S5NB082FTTL  07070IMCT  S5 PTB  00015                    0230 SR        000000000000 FUJITSU TEN (THAILAN17074NL0039039                                                                                                                              *          20170607WMF1706074.TXT
MDEDH6224063201706                D89828070300PT1D20170611000060SPEAKER ASM                   M IMCTM S5NB082FTTL  07070IMCT  S5 PTB  00015                    0400 SR        000000000000 FUJITSU TEN (THAILAN17015PL000900917062ML0009009                                                                                                                *          20170607WMF1706074.TXT
MDEDH6224064201706                D89828070300PT1D20170612000060SPEAKER ASM                   M IMCTM S5NB082FTTL  07070IMCT  S5 PTB  00015                    0900 SR        000000000000 FUJITSU TEN (THAILAN17059NL0011012                                                                                                                              *          20170607WMF1706074.TXT
MDEDH6224065201706                D89828070300PT1D20170612000060SPEAKER ASM                   M IMCTM S5NB082FTTL  07070IMCT  S5 PTB  00015                    1300 SR        000000000000 FUJITSU TEN (THAILAN17064NL001301317068ML0008008                                                                                                                *          20170607WMF1706074.TXT
MDEDH6224066201706                D89828070300PT1D20170612000060SPEAKER ASM                   M IMCTM S5NB082FTTL  07070IMCT  S5 PTB  00015                    1600 SR        000000000000 FUJITSU TEN (THAILAN17018ML0016017                                                                                                                              *          20170607WMF1706074.TXT
MDEDH6224067201706                D89828070300PT4D20170611000030SPEAKER ASM                   M IMCTM S9TS02 FTTL  07070IMCT  S9 PTB  00015                    0400 SR        000000000000 FUJITSU TEN (THAILAN17080NU0032032                                                                                                                              *          20170607WMF1706074.TXT
MDEDH6224068201706                D89828070300PT4D20170612000030SPEAKER ASM                   M IMCTM S9TS02 FTTL  07070IMCT  S9 PTB  00015                    1300 SR        000000000000 FUJITSU TEN (THAILAN17055NU0017017                                                                                                                              *          20170607WMF1706074.TXT
MDEDH6224069201706                D89829622410PT1D20170611000015RADIO;ASM DVD                 M IMCTM S5NC06 FTTL  07070IMCT  S5 PTB  00003                    0400 SR        000000000000 FUJITSU TEN (THAILAN17062ML0009009                                                                                                                              *          20170607WMF1706074.TXT
MDEDH6224070201706                D89829622410PT1D20170612000015RADIO;ASM DVD                 M IMCTM S5NC06 FTTL  07070IMCT  S5 PTB  00003                    1300 SR        000000000000 FUJITSU TEN (THAILAN17068ML0008008                                                                                                                              *          20170607WMF1706074.TXT
MDEDH6224071201706                D89829645310PT1D20170611000015RADIO;ASM DVD                 M IMCTM S5NC06 FTTL  07070IMCT  S5 PTB  00003                    0400 SR        000000000000 FUJITSU TEN (THAILAN17015PL0009009                                                                                                                              *          20170607WMF1706074.TXT
MDEDH6224072201706                D89829645310PT1D20170612000030RADIO;ASM DVD                 M IMCTM S5NC06 FTTL  07070IMCT  S5 PTB  00003                    1600 SR        000000000000 FUJITSU TEN (THAILAN17018ML0016017                                                                                                                              *          20170607WMF1706074.TXT
MDEDH6224073201706                D89848581800PT1D20170610000015RADIO;AM/FM CD D              M IMCTM S55000 FTTL  07070IMCT  S5 X    00030                    2230 SR        000000000000 FUJITSU TEN (THAILAN17074NL0038038                                                                                                                              *          20170607WMF1706074.TXT
MDEDH6224074201706                D89848581800PT1D20170611000015RADIO;AM/FM CD D              M IMCTM S55000 FTTL  07070IMCT  S5 X    00030                    0230 SR        000000000000 FUJITSU TEN (THAILAN17074NL0039039                                                                                                                              *          20170607WMF1706074.TXT
MDEDH6224075201706                D89848581800PT1D20170612000015RADIO;AM/FM CD D              M IMCTM S55000 FTTL  07070IMCT  S5 X    00030                    1300 SR        000000000000 FUJITSU TEN (THAILAN17064NL0013013                                                                                                                              *          20170607WMF1706074.TXT
MDEDH6224076201706                D89848581800PT4D20170612000015RADIO;AM/FM CD D              M IMCTM S22000 FTTL  07070IMCT  S2 X    00030                    1300 SR        000000000000 FUJITSU TEN (THAILAN17055NU0017017                                                                                                                              *          20170607WMF1706074.TXT
MDEUH6212225201706                D89828070100PT4U20170610000060SPEAKER ASM                   M IMCTM S0FL05 FTTL  07070IMCT  S0 PTB  00004                    2230 SR        000000000000 FUJITSU TEN (THAILAN170C16U022522518023TU0096096                                                                                                                *          20170607WMF1706074.TXT
MDEUH6212226201706                D89828070100PT4U20170612000030SPEAKER ASM                   M IMCTM S0FL05 FTTL  07070IMCT  S0 PTB  00004                    0900 SR        000000000000 FUJITSU TEN (THAILAN170C13U0098098                                                                                                                              *          20170607WMF1706074.TXT
MDEUH6212227201706                D89828070100PT4U20170612000060SPEAKER ASM                   M IMCTM S0FL05 FTTL  07070IMCT  S0 PTB  00004                    1300 SR        000000000000 FUJITSU TEN (THAILAN170C16U022622618017TU0011011                                                                                                                *          20170607WMF1706074.TXT
MDEUH6212228201706                D89828070100PT4U20170612000030SPEAKER ASM                   M IMCTM S0FL05 FTTL  07070IMCT  S0 PTB  00004                    1600 SR        000000000000 FUJITSU TEN (THAILAN18022TU0021021                                                                                                                              *          20170607WMF1706074.TXT
MDEUH6212229201706                D89828070200PV4U20170610000060SPEAKER ASM                   M IMCTM S0FR05 FTTL  07070IMCT  S0 PTB  00005                    2230 SR        000000000000 FUJITSU TEN (THAILAN170C16U022522518023TU0096096                                                                                                                *          20170607WMF1706074.TXT
MDEUH6212230201706                D89828070200PV4U20170612000030SPEAKER ASM                   M IMCTM S0FR05 FTTL  07070IMCT  S0 PTB  00005                    0900 SR        000000000000 FUJITSU TEN (THAILAN170C13U0098098                                                                                                                              *          20170607WMF1706074.TXT
MDEUH6212231201706                D89828070200PV4U20170612000060SPEAKER ASM                   M IMCTM S0FR05 FTTL  07070IMCT  S0 PTB  00005                    1300 SR        000000000000 FUJITSU TEN (THAILAN170C16U022622618017TU0011011                                                                                                                *          20170607WMF1706074.TXT
MDEUH6212232201706                D89828070200PV4U20170612000030SPEAKER ASM                   M IMCTM S0FR05 FTTL  07070IMCT  S0 PTB  00005                    1600 SR        000000000000 FUJITSU TEN (THAILAN18022TU0021021                                                                                                                              *          20170607WMF1706074.TXT
MDEUH6212233201706                D89828070300PT4U20170610000060SPEAKER ASM                   M IMCTM S9TS02 FTTL  07070IMCT  S9 PTB  00015                    2230 SR        000000000000 FUJITSU TEN (THAILAN170C16U022522518023TU0096096                                                                                                                *          20170607WMF1706074.TXT
MDEUH6212234201706                D89828070300PT4U20170612000030SPEAKER ASM                   M IMCTM S9TS02 FTTL  07070IMCT  S9 PTB  00015                    0900 SR        000000000000 FUJITSU TEN (THAILAN170C13U0098098                                                                                                                              *          20170607WMF1706074.TXT
MDEUH6212235201706                D89828070300PT4U20170612000060SPEAKER ASM                   M IMCTM S9TS02 FTTL  07070IMCT  S9 PTB  00015                    1300 SR        000000000000 FUJITSU TEN (THAILAN170C16U022622618017TU0011011                                                                                                                *          20170607WMF1706074.TXT
MDEUH6212236201706                D89828070300PT4U20170612000030SPEAKER ASM                   M IMCTM S9TS02 FTTL  07070IMCT  S9 PTB  00015                    1600 SR        000000000000 FUJITSU TEN (THAILAN18022TU0021021                                                                                                                              *          20170607WMF1706074.TXT
