REC2017061220170612ISUZU                              63     
MDDDH6233380201706                D89821984430PT1D20170616000030RADIO;AM/FM,CD                M IMCTM S5NC06 FTTL  07070IMCT  S5 PTB  00005                    0230 SR        000000000000 FUJITSU TEN (THAILAN170KNFL0043043                                                                                                                              *          20170612WMF1706123.TXT
MDDDH6233381201706                D89828070100PV1D20170615000060SPEAKER ASM                   M IMCTM S5MB11 FTTL  07070IMCT  S5 PTB  00003                    2230 SR        000000000000 FUJITSU TEN (THAILAN170KRCL0036036                                                                                                                              *          20170612WMF1706123.TXT
MDDDH6233382201706                D89828070100PV1D20170616000060SPEAKER ASM                   M IMCTM S5MB11 FTTL  07070IMCT  S5 PTB  00003                    0230 SR        000000000000 FUJITSU TEN (THAILAN170KNFL0043043                                                                                                                              *          20170612WMF1706123.TXT
MDDDH6233383201706                D89828070100PV1D20170616000060SPEAKER ASM                   M IMCTM S5MB11 FTTL  07070IMCT  S5 PTB  00003                    0400 SR        000000000000 FUJITSU TEN (THAILAN170KRFL0111111                                                                                                                              *          20170612WMF1706123.TXT
MDDDH6233384201706                D89828070100PV1D20170616000060SPEAKER ASM                   M IMCTM S5MB11 FTTL  07070IMCT  S5 PTB  00003                    0900 SR        000000000000 FUJITSU TEN (THAILAN170KRHL0033033                                                                                                                              *          20170612WMF1706123.TXT
MDDDH6233385201706                D89828070100PV1D20170616000060SPEAKER ASM                   M IMCTM S5MB11 FTTL  07070IMCT  S5 PTB  00003                    1300 SR        000000000000 FUJITSU TEN (THAILAN170KPFL0177177                                                                                                                              *          20170612WMF1706123.TXT
MDDDH6233386201706                D89828070100PV1D20170616000060SPEAKER ASM                   M IMCTM S5MB11 FTTL  07070IMCT  S5 PTB  00003                    1600 SR        000000000000 FUJITSU TEN (THAILAN170KPNL0003003                                                                                                                              *          20170612WMF1706123.TXT
MDDDH6233387201706                D89828070200PV1D20170615000060SPEAKER ASM                   M IMCTM S5MA14 FTTL  07070IMCT  S5 PTB  00005                    2230 SR        000000000000 FUJITSU TEN (THAILAN170KRCL0036036                                                                                                                              *          20170612WMF1706123.TXT
MDDDH6233388201706                D89828070200PV1D20170616000060SPEAKER ASM                   M IMCTM S5MA14 FTTL  07070IMCT  S5 PTB  00005                    0400 SR        000000000000 FUJITSU TEN (THAILAN170KRFL0111111                                                                                                                              *          20170612WMF1706123.TXT
MDDDH6233389201706                D89828070200PV1D20170616000060SPEAKER ASM                   M IMCTM S5MA14 FTTL  07070IMCT  S5 PTB  00005                    0900 SR        000000000000 FUJITSU TEN (THAILAN170KRHL0033033                                                                                                                              *          20170612WMF1706123.TXT
MDDDH6233390201706                D89828070300PT1D20170615000060SPEAKER ASM                   M IMCTM S5NB082FTTL  07070IMCT  S5 PTB  00015                    2230 SR        000000000000 FUJITSU TEN (THAILAN170KRCL0036036                                                                                                                              *          20170612WMF1706123.TXT
MDDDH6233391201706                D89828070300PT1D20170616000060SPEAKER ASM                   M IMCTM S5NB082FTTL  07070IMCT  S5 PTB  00015                    0400 SR        000000000000 FUJITSU TEN (THAILAN170KRFL0111111                                                                                                                              *          20170612WMF1706123.TXT
MDDDH6233392201706                D89828070300PT1D20170616000060SPEAKER ASM                   M IMCTM S5NB082FTTL  07070IMCT  S5 PTB  00015                    0900 SR        000000000000 FUJITSU TEN (THAILAN170KRHL0033033                                                                                                                              *          20170612WMF1706123.TXT
MDDDH6233393201706                D89828070300PT1D20170616000060SPEAKER ASM                   M IMCTM S5NB082FTTL  07070IMCT  S5 PTB  00015                    1300 SR        000000000000 FUJITSU TEN (THAILAN170KPFL0177177                                                                                                                              *          20170612WMF1706123.TXT
MDDDH6233394201706                D89828070300PT1D20170616000060SPEAKER ASM                   M IMCTM S5NB082FTTL  07070IMCT  S5 PTB  00015                    1600 SR        000000000000 FUJITSU TEN (THAILAN170KPNL0003003                                                                                                                              *          20170612WMF1706123.TXT
MDDDH6233395201706                D89829645910PT1D20170616000030RADIO;ASM DVD                 M IMCTM S5NC06 FTTL  07070IMCT  S5 CPB  00003                    0400 SR        000000000000 FUJITSU TEN (THAILAN170KRFL0111111                                                                                                                              *          20170612WMF1706123.TXT
MDDDH6233396201706                D89831228300PT1D20170616000030RADIO;AM/FM,CD                M IMCTM S5NC06 FTTL  07070IMCT  S5 CPB  00003                    1300 SR        000000000000 FUJITSU TEN (THAILAN170KPFL0177177                                                                                                                              *          20170612WMF1706123.TXT
MDDDH6233397201706                D89831228400PT1D20170615000030RADIO;AM/FM,CD                M IMCTM S5NC06 FTTL  07070IMCT  S5 CPB  00003                    2230 SR        000000000000 FUJITSU TEN (THAILAN170KRCL0036036                                                                                                                              *          20170612WMF1706123.TXT
MDDUH6226814201706                D89828070100PT4U20170615000030SPEAKER ASM                   M IMCTM S0FL05 FTTL  07070IMCT  S0 PTB  00003                    2100 SR        000000000000 FUJITSU TEN (THAILAN180LUDU0172172                                                                                                                              *          20170612WMF1706123.TXT
MDDUH6226815201706                D89828070100PT4U20170616000030SPEAKER ASM                   M IMCTM S0FL05 FTTL  07070IMCT  S0 PTB  00003                    0230 SR        000000000000 FUJITSU TEN (THAILAN180LUEU0109109                                                                                                                              *          20170612WMF1706123.TXT
MDDUH6226816201706                D89828070100PT4U20170616000030SPEAKER ASM                   M IMCTM S0FL05 FTTL  07070IMCT  S0 PTB  00003                    0900 SR        000000000000 FUJITSU TEN (THAILAN180LUDU0173173                                                                                                                              *          20170612WMF1706123.TXT
MDDUH6226817201706                D89828070100PT4U20170616000030SPEAKER ASM                   M IMCTM S0FL05 FTTL  07070IMCT  S0 PTB  00003                    1300 SR        000000000000 FUJITSU TEN (THAILAN180LUDU0174174                                                                                                                              *          20170612WMF1706123.TXT
MDDUH6226818201706                D89828070200PV4U20170615000030SPEAKER ASM                   M IMCTM S0FR05 FTTL  07070IMCT  S0 PTB  00005                    2100 SR        000000000000 FUJITSU TEN (THAILAN180LUDU0172172                                                                                                                              *          20170612WMF1706123.TXT
MDDUH6226819201706                D89828070200PV4U20170616000030SPEAKER ASM                   M IMCTM S0FR05 FTTL  07070IMCT  S0 PTB  00005                    0230 SR        000000000000 FUJITSU TEN (THAILAN180LUEU0109109                                                                                                                              *          20170612WMF1706123.TXT
MDDUH6226820201706                D89828070200PV4U20170616000030SPEAKER ASM                   M IMCTM S0FR05 FTTL  07070IMCT  S0 PTB  00005                    0900 SR        000000000000 FUJITSU TEN (THAILAN180LUDU0173173                                                                                                                              *          20170612WMF1706123.TXT
MDDUH6226821201706                D89828070200PV4U20170616000030SPEAKER ASM                   M IMCTM S0FR05 FTTL  07070IMCT  S0 PTB  00005                    1300 SR        000000000000 FUJITSU TEN (THAILAN180LUDU0174174                                                                                                                              *          20170612WMF1706123.TXT
MDDUH6226822201706                D89828070300PT4U20170615000030SPEAKER ASM                   M IMCTM S9TS02 FTTL  07070IMCT  S9 PTB  00015                    2100 SR        000000000000 FUJITSU TEN (THAILAN180LUDU0172172                                                                                                                              *          20170612WMF1706123.TXT
MDDUH6226823201706                D89828070300PT4U20170616000030SPEAKER ASM                   M IMCTM S9TS02 FTTL  07070IMCT  S9 PTB  00015                    0230 SR        000000000000 FUJITSU TEN (THAILAN180LUEU0109109                                                                                                                              *          20170612WMF1706123.TXT
MDDUH6226824201706                D89828070300PT4U20170616000030SPEAKER ASM                   M IMCTM S9TS02 FTTL  07070IMCT  S9 PTB  00015                    0900 SR        000000000000 FUJITSU TEN (THAILAN180LUDU0173173                                                                                                                              *          20170612WMF1706123.TXT
MDDUH6226825201706                D89828070300PT4U20170616000030SPEAKER ASM                   M IMCTM S9TS02 FTTL  07070IMCT  S9 PTB  00015                    1300 SR        000000000000 FUJITSU TEN (THAILAN180LUDU0174174                                                                                                                              *          20170612WMF1706123.TXT
MDEDH6250831201706                D89828070100PV1D20170615000060SPEAKER ASM                   M IMCTM S5MB11 FTTL  07070IMCT  S5 PTB  00003                    2230 SR        000000000000 FUJITSU TEN (THAILAN17006ML000700717053NL0031031                                                                                                                *          20170612WMF1706123.TXT
MDEDH6250832201706                D89828070100PV1D20170616000060SPEAKER ASM                   M IMCTM S5MB11 FTTL  07070IMCT  S5 PTB  00003                    0400 SR        000000000000 FUJITSU TEN (THAILAN17020ML0013014                                                                                                                              *          20170612WMF1706123.TXT
MDEDH6250833201706                D89828070100PV1D20170616000060SPEAKER ASM                   M IMCTM S5MB11 FTTL  07070IMCT  S5 PTB  00003                    0900 SR        000000000000 FUJITSU TEN (THAILAN17007RL000300317008RL0004004                                                                                                                *          20170612WMF1706123.TXT
MDEDH6250834201706                D89828070100PV1D20170616000060SPEAKER ASM                   M IMCTM S5MB11 FTTL  07070IMCT  S5 PTB  00003                    1300 SR        000000000000 FUJITSU TEN (THAILAN17050RL001001017072NL0036036                                                                                                                *          20170612WMF1706123.TXT
MDEDH6250835201706                D89828070100PV1D20170616000060SPEAKER ASM                   M IMCTM S5MB11 FTTL  07070IMCT  S5 PTB  00003                    2100 SR        000000000000 FUJITSU TEN (THAILAN17060NL0020021                                                                                                                              *          20170612WMF1706123.TXT
MDEDH6250836201706                D89828070100PV4D20170615000030SPEAKER ASM                   M IMCTM S0FL05 FTTL  07070IMCT  S0 PTB  00003                    2230 SR        000000000000 FUJITSU TEN (THAILAN17080NU0035035                                                                                                                              *          20170612WMF1706123.TXT
MDEDH6250837201706                D89828070100PV4D20170616000030SPEAKER ASM                   M IMCTM S0FL05 FTTL  07070IMCT  S0 PTB  00003                    0230 SR        000000000000 FUJITSU TEN (THAILAN17055NU0020020                                                                                                                              *          20170612WMF1706123.TXT
MDEDH6250838201706                D89828070100PV4D20170616000030SPEAKER ASM                   M IMCTM S0FL05 FTTL  07070IMCT  S0 PTB  00003                    0900 SR        000000000000 FUJITSU TEN (THAILAN17066NU0009009                                                                                                                              *          20170612WMF1706123.TXT
MDEDH6250839201706                D89828070200PV1D20170616000060SPEAKER ASM                   M IMCTM S5MA14 FTTL  07070IMCT  S5 PTB  00005                    0400 SR        000000000000 FUJITSU TEN (THAILAN17020ML0013014                                                                                                                              *          20170612WMF1706123.TXT
MDEDH6250840201706                D89828070200PV1D20170616000060SPEAKER ASM                   M IMCTM S5MA14 FTTL  07070IMCT  S5 PTB  00005                    1300 SR        000000000000 FUJITSU TEN (THAILAN17050RL001001017072NL0036036                                                                                                                *          20170612WMF1706123.TXT
MDEDH6250841201706                D89828070200PV1D20170616000060SPEAKER ASM                   M IMCTM S5MA14 FTTL  07070IMCT  S5 PTB  00005                    2100 SR        000000000000 FUJITSU TEN (THAILAN17060NL0020021                                                                                                                              *          20170612WMF1706123.TXT
MDEDH6250842201706                D89828070200PV4D20170615000030SPEAKER ASM                   M IMCTM S0FR05 FTTL  07070IMCT  S0 PTB  00005                    2230 SR        000000000000 FUJITSU TEN (THAILAN17080NU0035035                                                                                                                              *          20170612WMF1706123.TXT
MDEDH6250843201706                D89828070300PT1D20170615000030SPEAKER ASM                   M IMCTM S5NB082FTTL  07070IMCT  S5 PTB  00015                    2230 SR        000000000000 FUJITSU TEN (THAILAN17053NL0031031                                                                                                                              *          20170612WMF1706123.TXT
MDEDH6250844201706                D89828070300PT1D20170616000060SPEAKER ASM                   M IMCTM S5NB082FTTL  07070IMCT  S5 PTB  00015                    0400 SR        000000000000 FUJITSU TEN (THAILAN17020ML0013014                                                                                                                              *          20170612WMF1706123.TXT
MDEDH6250845201706                D89828070300PT1D20170616000060SPEAKER ASM                   M IMCTM S5NB082FTTL  07070IMCT  S5 PTB  00015                    1300 SR        000000000000 FUJITSU TEN (THAILAN17050RL001001017072NL0036036                                                                                                                *          20170612WMF1706123.TXT
MDEDH6250846201706                D89828070300PT1D20170616000060SPEAKER ASM                   M IMCTM S5NB082FTTL  07070IMCT  S5 PTB  00015                    2100 SR        000000000000 FUJITSU TEN (THAILAN17060NL0020021                                                                                                                              *          20170612WMF1706123.TXT
MDEDH6250847201706                D89828070300PT4D20170615000030SPEAKER ASM                   M IMCTM S9TS02 FTTL  07070IMCT  S9 PTB  00015                    2230 SR        000000000000 FUJITSU TEN (THAILAN17080NU0035035                                                                                                                              *          20170612WMF1706123.TXT
MDEDH6250848201706                D89828070300PT4D20170616000030SPEAKER ASM                   M IMCTM S9TS02 FTTL  07070IMCT  S9 PTB  00015                    0230 SR        000000000000 FUJITSU TEN (THAILAN17055NU0020020                                                                                                                              *          20170612WMF1706123.TXT
MDEDH6250849201706                D89828070300PT4D20170616000030SPEAKER ASM                   M IMCTM S9TS02 FTTL  07070IMCT  S9 PTB  00015                    0900 SR        000000000000 FUJITSU TEN (THAILAN17066NU0009009                                                                                                                              *          20170612WMF1706123.TXT
MDEDH6250850201706                D89829645410PT1D20170616000015RADIO;ASM DVD                 M IMCTM S5NC06 FTTL  07070IMCT  S5 PTB  00003                    1300 SR        000000000000 FUJITSU TEN (THAILAN17050RL0010010                                                                                                                              *          20170612WMF1706123.TXT
MDEDH6250851201706                D89848581800PT1D20170615000015RADIO;AM/FM CD D              M IMCTM S5NC06 FTTL  07070IMCT  S5 PTB  00003                    2230 SR        000000000000 FUJITSU TEN (THAILAN17053NL0031031                                                                                                                              *          20170612WMF1706123.TXT
MDEDH6250852201706                D89848581800PT1D20170616000015RADIO;AM/FM CD D              M IMCTM S5NC06 FTTL  07070IMCT  S5 PTB  00003                    1300 SR        000000000000 FUJITSU TEN (THAILAN17072NL0036036                                                                                                                              *          20170612WMF1706123.TXT
MDEDH6250853201706                D89848581800PT4D20170616000015RADIO;AM/FM CD D              M IMCTM S22000 FTTL  07070IMCT  S2 PTB  00003                    0230 SR        000000000000 FUJITSU TEN (THAILAN17055NU0020020                                                                                                                              *          20170612WMF1706123.TXT
MDEDH6250854201706                D89848582500PT4D20170616000015RADIO;AM/FM CD D              M IMCTM S22000 FTTL  07070IMCT  S2 PTB  00003                    0900 SR        000000000000 FUJITSU TEN (THAILAN17066NU0009009                                                                                                                              *          20170612WMF1706123.TXT
MDEUH6227474201706                D89828070100PT4U20170616000030SPEAKER ASM                   M IMCTM S0FL05 FTTL  07070IMCT  S0 PTB  00003                    0400 SR        000000000000 FUJITSU TEN (THAILAN18023TU0100100                                                                                                                              *          20170612WMF1706123.TXT
MDEUH6227475201706                D89828070100PT4U20170616000060SPEAKER ASM                   M IMCTM S0FL05 FTTL  07070IMCT  S0 PTB  00003                    1300 SR        000000000000 FUJITSU TEN (THAILAN170C12U004604618022TU0023023                                                                                                                *          20170612WMF1706123.TXT
MDEUH6227476201706                D89828070100PT4U20170616000030SPEAKER ASM                   M IMCTM S0FL05 FTTL  07070IMCT  S0 PTB  00003                    2100 SR        000000000000 FUJITSU TEN (THAILAN18023TU0101101                                                                                                                              *          20170612WMF1706123.TXT
MDEUH6227477201706                D89828070200PV4U20170616000030SPEAKER ASM                   M IMCTM S0FR05 FTTL  07070IMCT  S0 PTB  00005                    0400 SR        000000000000 FUJITSU TEN (THAILAN18023TU0100100                                                                                                                              *          20170612WMF1706123.TXT
MDEUH6227478201706                D89828070200PV4U20170616000060SPEAKER ASM                   M IMCTM S0FR05 FTTL  07070IMCT  S0 PTB  00005                    1300 SR        000000000000 FUJITSU TEN (THAILAN170C12U004604618022TU0023023                                                                                                                *          20170612WMF1706123.TXT
MDEUH6227479201706                D89828070200PV4U20170616000030SPEAKER ASM                   M IMCTM S0FR05 FTTL  07070IMCT  S0 PTB  00005                    2100 SR        000000000000 FUJITSU TEN (THAILAN18023TU0101101                                                                                                                              *          20170612WMF1706123.TXT
MDEUH6227480201706                D89828070300PT4U20170616000030SPEAKER ASM                   M IMCTM S9TS02 FTTL  07070IMCT  S9 PTB  00015                    0400 SR        000000000000 FUJITSU TEN (THAILAN18023TU0100100                                                                                                                              *          20170612WMF1706123.TXT
MDEUH6227481201706                D89828070300PT4U20170616000060SPEAKER ASM                   M IMCTM S9TS02 FTTL  07070IMCT  S9 PTB  00015                    1300 SR        000000000000 FUJITSU TEN (THAILAN170C12U004604618022TU0023023                                                                                                                *          20170612WMF1706123.TXT
MDEUH6227482201706                D89828070300PT4U20170616000030SPEAKER ASM                   M IMCTM S9TS02 FTTL  07070IMCT  S9 PTB  00015                    2100 SR        000000000000 FUJITSU TEN (THAILAN18023TU0101101                                                                                                                              *          20170612WMF1706123.TXT
