REC2017060720170607ISUZU                              5      
MDEFH6T05081201706                D89828070100PV4F20170611000004SPEAKER ASM                   M IMCTM S7FL05 FTTL  07070IMCT  S7 PTB  00004                    0400 SR        000000000000 FUJITSU TEN (THAILAN17071MR0060   17071MR0061   F170602514    F170602515    000000                                                                              *R         20170607RDF1706074.TXT
MDEFH6T05082201706                D89828070300PT4F20170611000001SPEAKER ASM                   M IMCTM S7TS02 FTTL  07070IMCT  S7 PTB  00015                    0400 SR        000000000000 FUJITSU TEN (THAILAN17071MR0061   17071MR0061   F170602515    F170602515    000000                                                                              *R         20170607RDF1706074.TXT
MDEFH6214113201706                D89828070100PV4F20170610000032SPEAKER ASM                   M IMCTM S7FL05 FTTL  07070IMCT  S7 PTB  00004                    1300 SR        000000000000 FUJITSU TEN (THAILAN17054MR0024   17048MR0021   F170602501    S170602415    000000                                                                              *R         20170607RDF1706074.TXT
MDEFH6214114201706                D89828070100PV4F20170611000024SPEAKER ASM                   M IMCTM S7FL05 FTTL  07070IMCT  S7 PTB  00004                    0230 SR        000000000000 FUJITSU TEN (THAILAN17054MR0025   17071MR0059   F170602502    F170602513    000000                                                                              *R         20170607RDF1706074.TXT
MDEFH6214115201706                D89828070300PT4F20170611000015SPEAKER ASM                   M IMCTM S7TS02 FTTL  07070IMCT  S7 PTB  00015                    0230 SR        000000000000 FUJITSU TEN (THAILAN17071MR0054   17071MR0061   F170602508    F170602515    000000                                                                              *R         20170607RDF1706074.TXT
