REC2017061020170610ISUZU                              70     
MDDDH6229006201706                D89821984430PT1D20170615000030RADIO;AM/FM,CD                M IMCTM S5NC06 FTTL  07070IMCT  S5 PTB  00005                    0900 SR        000000000000 FUJITSU TEN (THAILAN170KNEL0113113                                                                                                                              *          20170610WMF1706106.TXT
MDDDH6229007201706                D89821984430PT1D20170615000030RADIO;AM/FM,CD                M IMCTM S5NC06 FTTL  07070IMCT  S5 PTB  00005                    1300 SR        000000000000 FUJITSU TEN (THAILAN170KNEL0114114                                                                                                                              *          20170610WMF1706106.TXT
MDDDH6229008201706                D89828070100PV1D20170614000060SPEAKER ASM                   M IMCTM S5MB11 FTTL  07070IMCT  S5 PTB  00003                    2230 SR        000000000000 FUJITSU TEN (THAILAN170KRFL0107107                                                                                                                              *          20170610WMF1706106.TXT
MDDDH6229009201706                D89828070100PV1D20170615000060SPEAKER ASM                   M IMCTM S5MB11 FTTL  07070IMCT  S5 PTB  00003                    0400 SR        000000000000 FUJITSU TEN (THAILAN170KRFL0108108                                                                                                                              *          20170610WMF1706106.TXT
MDDDH6229010201706                D89828070100PV1D20170615000120SPEAKER ASM                   M IMCTM S5MB11 FTTL  07070IMCT  S5 PTB  00003                    0900 SR        000000000000 FUJITSU TEN (THAILAN170KNEL0113113170KRSL0047047                                                                                                                *          20170610WMF1706106.TXT
MDDDH6229011201706                D89828070100PV1D20170615000060SPEAKER ASM                   M IMCTM S5MB11 FTTL  07070IMCT  S5 PTB  00003                    1300 SR        000000000000 FUJITSU TEN (THAILAN170KNEL0114114                                                                                                                              *          20170610WMF1706106.TXT
MDDDH6229012201706                D89828070100PV1D20170615000180SPEAKER ASM                   M IMCTM S5MB11 FTTL  07070IMCT  S5 PTB  00003                    1600 SR        000000000000 FUJITSU TEN (THAILAN170KNAL0057057170KRFL0109110                                                                                                                *          20170610WMF1706106.TXT
MDDDH6229013201706                D89828070200PV1D20170614000060SPEAKER ASM                   M IMCTM S5MA14 FTTL  07070IMCT  S5 PTB  00005                    2230 SR        000000000000 FUJITSU TEN (THAILAN170KRFL0107107                                                                                                                              *          20170610WMF1706106.TXT
MDDDH6229014201706                D89828070200PV1D20170615000060SPEAKER ASM                   M IMCTM S5MA14 FTTL  07070IMCT  S5 PTB  00005                    0400 SR        000000000000 FUJITSU TEN (THAILAN170KRFL0108108                                                                                                                              *          20170610WMF1706106.TXT
MDDDH6229015201706                D89828070200PV1D20170615000060SPEAKER ASM                   M IMCTM S5MA14 FTTL  07070IMCT  S5 PTB  00005                    0900 SR        000000000000 FUJITSU TEN (THAILAN170KRSL0047047                                                                                                                              *          20170610WMF1706106.TXT
MDDDH6229016201706                D89828070200PV1D20170615000120SPEAKER ASM                   M IMCTM S5MA14 FTTL  07070IMCT  S5 PTB  00005                    1600 SR        000000000000 FUJITSU TEN (THAILAN170KRFL0109110                                                                                                                              *          20170610WMF1706106.TXT
MDDDH6229017201706                D89828070300PT1D20170614000060SPEAKER ASM                   M IMCTM S5NB082FTTL  07070IMCT  S5 PTB  00015                    2230 SR        000000000000 FUJITSU TEN (THAILAN170KRFL0107107                                                                                                                              *          20170610WMF1706106.TXT
MDDDH6229018201706                D89828070300PT1D20170615000060SPEAKER ASM                   M IMCTM S5NB082FTTL  07070IMCT  S5 PTB  00015                    0400 SR        000000000000 FUJITSU TEN (THAILAN170KRFL0108108                                                                                                                              *          20170610WMF1706106.TXT
MDDDH6229019201706                D89828070300PT1D20170615000060SPEAKER ASM                   M IMCTM S5NB082FTTL  07070IMCT  S5 PTB  00015                    0900 SR        000000000000 FUJITSU TEN (THAILAN170KRSL0047047                                                                                                                              *          20170610WMF1706106.TXT
MDDDH6229020201706                D89828070300PT1D20170615000120SPEAKER ASM                   M IMCTM S5NB082FTTL  07070IMCT  S5 PTB  00015                    1600 SR        000000000000 FUJITSU TEN (THAILAN170KRFL0109110                                                                                                                              *          20170610WMF1706106.TXT
MDDDH6229021201706                D89829645910PT1D20170614000030RADIO;ASM DVD                 M IMCTM S5NC06 FTTL  07070IMCT  S5 CPB  00003                    2230 SR        000000000000 FUJITSU TEN (THAILAN170KRFL0107107                                                                                                                              *          20170610WMF1706106.TXT
MDDDH6229022201706                D89829645910PT1D20170615000030RADIO;ASM DVD                 M IMCTM S5NC06 FTTL  07070IMCT  S5 CPB  00003                    0400 SR        000000000000 FUJITSU TEN (THAILAN170KRFL0108108                                                                                                                              *          20170610WMF1706106.TXT
MDDDH6229023201706                D89829645910PT1D20170615000060RADIO;ASM DVD                 M IMCTM S5NC06 FTTL  07070IMCT  S5 CPB  00003                    1600 SR        000000000000 FUJITSU TEN (THAILAN170KRFL0109110                                                                                                                              *          20170610WMF1706106.TXT
MDDUH6222909201706                D89828070100PT4U20170614000030SPEAKER ASM                   M IMCTM S0FL05 FTTL  07070IMCT  S0 PTB  00003                    2230 SR        000000000000 FUJITSU TEN (THAILAN180LUDU0170170                                                                                                                              *          20170610WMF1706106.TXT
MDDUH6222910201706                D89828070100PT4U20170615000030SPEAKER ASM                   M IMCTM S0FL05 FTTL  07070IMCT  S0 PTB  00003                    0230 SR        000000000000 FUJITSU TEN (THAILAN180LUCU0053053                                                                                                                              *          20170610WMF1706106.TXT
MDDUH6222911201706                D89828070100PT4U20170615000060SPEAKER ASM                   M IMCTM S0FL05 FTTL  07070IMCT  S0 PTB  00003                    0900 SR        000000000000 FUJITSU TEN (THAILAN180LUDU0171171180LUEU0107107                                                                                                                *          20170610WMF1706106.TXT
MDDUH6222912201706                D89828070100PT4U20170615000030SPEAKER ASM                   M IMCTM S0FL05 FTTL  07070IMCT  S0 PTB  00003                    1300 SR        000000000000 FUJITSU TEN (THAILAN180LUEU0108108                                                                                                                              *          20170610WMF1706106.TXT
MDDUH6222913201706                D89828070100PT4U20170615000030SPEAKER ASM                   M IMCTM S0FL05 FTTL  07070IMCT  S0 PTB  00003                    1600 SR        000000000000 FUJITSU TEN (THAILAN180LUCU0054054                                                                                                                              *          20170610WMF1706106.TXT
MDDUH6222914201706                D89828070200PV4U20170614000030SPEAKER ASM                   M IMCTM S0FR05 FTTL  07070IMCT  S0 PTB  00005                    2230 SR        000000000000 FUJITSU TEN (THAILAN180LUDU0170170                                                                                                                              *          20170610WMF1706106.TXT
MDDUH6222915201706                D89828070200PV4U20170615000030SPEAKER ASM                   M IMCTM S0FR05 FTTL  07070IMCT  S0 PTB  00005                    0230 SR        000000000000 FUJITSU TEN (THAILAN180LUCU0053053                                                                                                                              *          20170610WMF1706106.TXT
MDDUH6222916201706                D89828070200PV4U20170615000060SPEAKER ASM                   M IMCTM S0FR05 FTTL  07070IMCT  S0 PTB  00005                    0900 SR        000000000000 FUJITSU TEN (THAILAN180LUDU0171171180LUEU0107107                                                                                                                *          20170610WMF1706106.TXT
MDDUH6222917201706                D89828070200PV4U20170615000030SPEAKER ASM                   M IMCTM S0FR05 FTTL  07070IMCT  S0 PTB  00005                    1300 SR        000000000000 FUJITSU TEN (THAILAN180LUEU0108108                                                                                                                              *          20170610WMF1706106.TXT
MDDUH6222918201706                D89828070200PV4U20170615000030SPEAKER ASM                   M IMCTM S0FR05 FTTL  07070IMCT  S0 PTB  00005                    1600 SR        000000000000 FUJITSU TEN (THAILAN180LUCU0054054                                                                                                                              *          20170610WMF1706106.TXT
MDDUH6222919201706                D89828070300PT4U20170614000030SPEAKER ASM                   M IMCTM S9TS02 FTTL  07070IMCT  S9 PTB  00015                    2230 SR        000000000000 FUJITSU TEN (THAILAN180LUDU0170170                                                                                                                              *          20170610WMF1706106.TXT
MDDUH6222920201706                D89828070300PT4U20170615000030SPEAKER ASM                   M IMCTM S9TS02 FTTL  07070IMCT  S9 PTB  00015                    0230 SR        000000000000 FUJITSU TEN (THAILAN180LUCU0053053                                                                                                                              *          20170610WMF1706106.TXT
MDDUH6222921201706                D89828070300PT4U20170615000060SPEAKER ASM                   M IMCTM S9TS02 FTTL  07070IMCT  S9 PTB  00015                    0900 SR        000000000000 FUJITSU TEN (THAILAN180LUDU0171171180LUEU0107107                                                                                                                *          20170610WMF1706106.TXT
MDDUH6222922201706                D89828070300PT4U20170615000030SPEAKER ASM                   M IMCTM S9TS02 FTTL  07070IMCT  S9 PTB  00015                    1300 SR        000000000000 FUJITSU TEN (THAILAN180LUEU0108108                                                                                                                              *          20170610WMF1706106.TXT
MDDUH6222923201706                D89828070300PT4U20170615000030SPEAKER ASM                   M IMCTM S9TS02 FTTL  07070IMCT  S9 PTB  00015                    1600 SR        000000000000 FUJITSU TEN (THAILAN180LUCU0054054                                                                                                                              *          20170610WMF1706106.TXT
MDDUH6222924201706                D89835097900PT4U20170615000015RADIO;ASM DVD                 M IMCTM S9CO001FTTL  07070IMCT  S9 PTB  00003                    0230 SR        000000000000 FUJITSU TEN (THAILAN180LUCU0053053                                                                                                                              *          20170610WMF1706106.TXT
MDDUH6222925201706                D89835097900PT4U20170615000015RADIO;ASM DVD                 M IMCTM S9CO001FTTL  07070IMCT  S9 PTB  00003                    1600 SR        000000000000 FUJITSU TEN (THAILAN180LUCU0054054                                                                                                                              *          20170610WMF1706106.TXT
MDEDH6244353201706                D89828070100PV1D20170614000060SPEAKER ASM                   M IMCTM S5MB11 FTTL  07070IMCT  S5 PTB  00003                    2230 SR        000000000000 FUJITSU TEN (THAILAN17056NL0027028                                                                                                                              *          20170610WMF1706106.TXT
MDEDH6244354201706                D89828070100PV1D20170615000060SPEAKER ASM                   M IMCTM S5MB11 FTTL  07070IMCT  S5 PTB  00003                    0230 SR        000000000000 FUJITSU TEN (THAILAN17068NL0015016                                                                                                                              *          20170610WMF1706106.TXT
MDEDH6244355201706                D89828070100PV1D20170615000060SPEAKER ASM                   M IMCTM S5MB11 FTTL  07070IMCT  S5 PTB  00003                    0400 SR        000000000000 FUJITSU TEN (THAILAN17081NL0016017                                                                                                                              *          20170610WMF1706106.TXT
MDEDH6244356201706                D89828070100PV1D20170615000060SPEAKER ASM                   M IMCTM S5MB11 FTTL  07070IMCT  S5 PTB  00003                    1300 SR        000000000000 FUJITSU TEN (THAILAN17004ML000900917076NL0009009                                                                                                                *          20170610WMF1706106.TXT
MDEDH6244357201706                D89828070100PV1D20170615000060SPEAKER ASM                   M IMCTM S5MB11 FTTL  07070IMCT  S5 PTB  00003                    2100 SR        000000000000 FUJITSU TEN (THAILAN17082NL0009010                                                                                                                              *          20170610WMF1706106.TXT
MDEDH6244358201706                D89828070100PV4D20170614000030SPEAKER ASM                   M IMCTM S0FL05 FTTL  07070IMCT  S0 PTB  00003                    2230 SR        000000000000 FUJITSU TEN (THAILAN17080NU0034034                                                                                                                              *          20170610WMF1706106.TXT
MDEDH6244359201706                D89828070100PV4D20170615000030SPEAKER ASM                   M IMCTM S0FL05 FTTL  07070IMCT  S0 PTB  00003                    0400 SR        000000000000 FUJITSU TEN (THAILAN17066NU0008008                                                                                                                              *          20170610WMF1706106.TXT
MDEDH6244360201706                D89828070100PV4D20170615000030SPEAKER ASM                   M IMCTM S0FL05 FTTL  07070IMCT  S0 PTB  00003                    1600 SR        000000000000 FUJITSU TEN (THAILAN17055NU0019019                                                                                                                              *          20170610WMF1706106.TXT
MDEDH6244361201706                D89828070200PV1D20170615000060SPEAKER ASM                   M IMCTM S5MA14 FTTL  07070IMCT  S5 PTB  00005                    0400 SR        000000000000 FUJITSU TEN (THAILAN17081NL0016017                                                                                                                              *          20170610WMF1706106.TXT
MDEDH6244362201706                D89828070200PV1D20170615000030SPEAKER ASM                   M IMCTM S5MA14 FTTL  07070IMCT  S5 PTB  00005                    1300 SR        000000000000 FUJITSU TEN (THAILAN17076NL0009009                                                                                                                              *          20170610WMF1706106.TXT
MDEDH6244363201706                D89828070200PV1D20170615000060SPEAKER ASM                   M IMCTM S5MA14 FTTL  07070IMCT  S5 PTB  00005                    2100 SR        000000000000 FUJITSU TEN (THAILAN17082NL0009010                                                                                                                              *          20170610WMF1706106.TXT
MDEDH6244364201706                D89828070200PV4D20170614000030SPEAKER ASM                   M IMCTM S0FR05 FTTL  07070IMCT  S0 PTB  00005                    2230 SR        000000000000 FUJITSU TEN (THAILAN17080NU0034034                                                                                                                              *          20170610WMF1706106.TXT
MDEDH6244365201706                D89828070300PT1D20170614000060SPEAKER ASM                   M IMCTM S5NB082FTTL  07070IMCT  S5 PTB  00015                    2230 SR        000000000000 FUJITSU TEN (THAILAN17056NL0027028                                                                                                                              *          20170610WMF1706106.TXT
MDEDH6244366201706                D89828070300PT1D20170615000060SPEAKER ASM                   M IMCTM S5NB082FTTL  07070IMCT  S5 PTB  00015                    0230 SR        000000000000 FUJITSU TEN (THAILAN17068NL0015016                                                                                                                              *          20170610WMF1706106.TXT
MDEDH6244367201706                D89828070300PT1D20170615000060SPEAKER ASM                   M IMCTM S5NB082FTTL  07070IMCT  S5 PTB  00015                    0400 SR        000000000000 FUJITSU TEN (THAILAN17081NL0016017                                                                                                                              *          20170610WMF1706106.TXT
MDEDH6244368201706                D89828070300PT1D20170615000030SPEAKER ASM                   M IMCTM S5NB082FTTL  07070IMCT  S5 PTB  00015                    1300 SR        000000000000 FUJITSU TEN (THAILAN17076NL0009009                                                                                                                              *          20170610WMF1706106.TXT
MDEDH6244369201706                D89828070300PT1D20170615000060SPEAKER ASM                   M IMCTM S5NB082FTTL  07070IMCT  S5 PTB  00015                    2100 SR        000000000000 FUJITSU TEN (THAILAN17082NL0009010                                                                                                                              *          20170610WMF1706106.TXT
MDEDH6244370201706                D89828070300PT4D20170614000030SPEAKER ASM                   M IMCTM S9TS02 FTTL  07070IMCT  S9 PTB  00015                    2230 SR        000000000000 FUJITSU TEN (THAILAN17080NU0034034                                                                                                                              *          20170610WMF1706106.TXT
MDEDH6244371201706                D89828070300PT4D20170615000030SPEAKER ASM                   M IMCTM S9TS02 FTTL  07070IMCT  S9 PTB  00015                    0400 SR        000000000000 FUJITSU TEN (THAILAN17066NU0008008                                                                                                                              *          20170610WMF1706106.TXT
MDEDH6244372201706                D89828070300PT4D20170615000030SPEAKER ASM                   M IMCTM S9TS02 FTTL  07070IMCT  S9 PTB  00015                    1600 SR        000000000000 FUJITSU TEN (THAILAN17055NU0019019                                                                                                                              *          20170610WMF1706106.TXT
MDEDH6244373201706                D89848581800PT4D20170615000015RADIO;AM/FM CD D              M IMCTM S22000 FTTL  07070IMCT  S2 PTB  00003                    1600 SR        000000000000 FUJITSU TEN (THAILAN17055NU0019019                                                                                                                              *          20170610WMF1706106.TXT
MDEDH6244374201706                D89848582500PT1D20170614000030RADIO;AM/FM CD D              M IMCTM S5NC06 FTTL  07070IMCT  S5 PTB  00003                    2230 SR        000000000000 FUJITSU TEN (THAILAN17056NL0027028                                                                                                                              *          20170610WMF1706106.TXT
MDEDH6244375201706                D89848582500PT4D20170615000015RADIO;AM/FM CD D              M IMCTM S22000 FTTL  07070IMCT  S2 PTB  00003                    0400 SR        000000000000 FUJITSU TEN (THAILAN17066NU0008008                                                                                                                              *          20170610WMF1706106.TXT
MDEUH6224427201706                D89828070100PT4U20170614000030SPEAKER ASM                   M IMCTM S0FL05 FTTL  07070IMCT  S0 PTB  00003                    2230 SR        000000000000 FUJITSU TEN (THAILAN170C13U0101101                                                                                                                              *          20170610WMF1706106.TXT
MDEUH6224428201706                D89828070100PT4U20170615000030SPEAKER ASM                   M IMCTM S0FL05 FTTL  07070IMCT  S0 PTB  00003                    0400 SR        000000000000 FUJITSU TEN (THAILAN18018TU0024024                                                                                                                              *          20170610WMF1706106.TXT
MDEUH6224429201706                D89828070100PT4U20170615000030SPEAKER ASM                   M IMCTM S0FL05 FTTL  07070IMCT  S0 PTB  00003                    1300 SR        000000000000 FUJITSU TEN (THAILAN18023TU0099099                                                                                                                              *          20170610WMF1706106.TXT
MDEUH6224430201706                D89828070100PT4U20170615000030SPEAKER ASM                   M IMCTM S0FL05 FTTL  07070IMCT  S0 PTB  00003                    1600 SR        000000000000 FUJITSU TEN (THAILAN170C16U0232232                                                                                                                              *          20170610WMF1706106.TXT
MDEUH6224431201706                D89828070200PV4U20170614000030SPEAKER ASM                   M IMCTM S0FR05 FTTL  07070IMCT  S0 PTB  00005                    2230 SR        000000000000 FUJITSU TEN (THAILAN170C13U0101101                                                                                                                              *          20170610WMF1706106.TXT
MDEUH6224432201706                D89828070200PV4U20170615000030SPEAKER ASM                   M IMCTM S0FR05 FTTL  07070IMCT  S0 PTB  00005                    0400 SR        000000000000 FUJITSU TEN (THAILAN18018TU0024024                                                                                                                              *          20170610WMF1706106.TXT
MDEUH6224433201706                D89828070200PV4U20170615000030SPEAKER ASM                   M IMCTM S0FR05 FTTL  07070IMCT  S0 PTB  00005                    1300 SR        000000000000 FUJITSU TEN (THAILAN18023TU0099099                                                                                                                              *          20170610WMF1706106.TXT
MDEUH6224434201706                D89828070200PV4U20170615000030SPEAKER ASM                   M IMCTM S0FR05 FTTL  07070IMCT  S0 PTB  00005                    1600 SR        000000000000 FUJITSU TEN (THAILAN170C16U0232232                                                                                                                              *          20170610WMF1706106.TXT
MDEUH6224435201706                D89828070300PT4U20170614000030SPEAKER ASM                   M IMCTM S9TS02 FTTL  07070IMCT  S9 PTB  00015                    2230 SR        000000000000 FUJITSU TEN (THAILAN170C13U0101101                                                                                                                              *          20170610WMF1706106.TXT
MDEUH6224436201706                D89828070300PT4U20170615000030SPEAKER ASM                   M IMCTM S9TS02 FTTL  07070IMCT  S9 PTB  00015                    0400 SR        000000000000 FUJITSU TEN (THAILAN18018TU0024024                                                                                                                              *          20170610WMF1706106.TXT
MDEUH6224437201706                D89828070300PT4U20170615000030SPEAKER ASM                   M IMCTM S9TS02 FTTL  07070IMCT  S9 PTB  00015                    1300 SR        000000000000 FUJITSU TEN (THAILAN18023TU0099099                                                                                                                              *          20170610WMF1706106.TXT
MDEUH6224438201706                D89828070300PT4U20170615000030SPEAKER ASM                   M IMCTM S9TS02 FTTL  07070IMCT  S9 PTB  00015                    1600 SR        000000000000 FUJITSU TEN (THAILAN170C16U0232232                                                                                                                              *          20170610WMF1706106.TXT
