REC2017061420170614ISUZU                              7      
MADUH6600324201707                 89828070100PT4U20170724000004SPEAKER ASM                   M IMCTM ST00000FTTL  07070IMCT  ST PTB  00003  DC                0000 SR        000000000000 FUJITSU TEN (THAILAN180L5KU0002003                                                                                                                              *P         20170614WMF1706147.TXT
MADUH6600325201707                 89828070200PV4U20170724000004SPEAKER ASM                   M IMCTM ST00000FTTL  07070IMCT  ST PTB  00005  DC                0000 SR        000000000000 FUJITSU TEN (THAILAN180L5KU0002003                                                                                                                              *P         20170614WMF1706147.TXT
MADUH6600326201707                 89828070300PT4U20170724000004SPEAKER ASM                   M IMCTM ST00000FTTL  07070IMCT  ST PTB  00015  DC                0000 SR        000000000000 FUJITSU TEN (THAILAN180L5KU0002003                                                                                                                              *P         20170614WMF1706147.TXT
MADUH6600327201707                 89835097910PT4U20170724000002RADIO;ASM DVD                 M IMCTM ST00000FTTL  07070IMCT  ST PTB  00003  DC                0000 SR        000000000000 FUJITSU TEN (THAILAN180L5KU0002003                                                                                                                              *P         20170614WMF1706147.TXT
MAEUH6600351201707                 89828070100PT4U20170724000006SPEAKER ASM                   M IMCTM ST00000FTTL  07070IMCT  ST PTB  00003  DC                0000 SR        000000000000 FUJITSU TEN (THAILAN18008VU000100118083TU0001002                                                                                                                *P         20170614WMF1706147.TXT
MAEUH6600352201707                 89828070200PV4U20170724000006SPEAKER ASM                   M IMCTM ST00000FTTL  07070IMCT  ST PTB  00005  DC                0000 SR        000000000000 FUJITSU TEN (THAILAN18008VU000100118083TU0001002                                                                                                                *P         20170614WMF1706147.TXT
MAEUH6600353201707                 89828070300PT4U20170724000006SPEAKER ASM                   M IMCTM ST00000FTTL  07070IMCT  ST PTB  00015  DC                0000 SR        000000000000 FUJITSU TEN (THAILAN18008VU000100118083TU0001002                                                                                                                *P         20170614WMF1706147.TXT
