REC2017072520170725ISUZU                              54     
MDDDH7269568201708                D89821984430PT1D20170801000030RADIO;AM/FM,CD                M IMCTM S5NC06 FTTL  07070IMCT  S5 PTB  00005                    0400 SR        000000000000 FUJITSU TEN (THAILAN170KRAL0109109                                                                                                                              *          20170725WMF1707257.TXT
MDDDH7269569201708                D89821984430PT1D20170801000030RADIO;AM/FM,CD                M IMCTM S5NC06 FTTL  07070IMCT  S5 PTB  00005                    0900 SR        000000000000 FUJITSU TEN (THAILAN170KRAL0110110                                                                                                                              *          20170725WMF1707257.TXT
MDDDH7269570201708                D89821984430PT1D20170801000060RADIO;AM/FM,CD                M IMCTM S5NC06 FTTL  07070IMCT  S5 PTB  00005                    1300 SR        000000000000 FUJITSU TEN (THAILAN170KNDL0148148170KRAL0111111                                                                                                                *          20170725WMF1707257.TXT
MDDDH7269571201708                D89821984430PT1D20170801000030RADIO;AM/FM,CD                M IMCTM S5NC06 FTTL  07070IMCT  S5 PTB  00005                    2100 SR        000000000000 FUJITSU TEN (THAILAN170KNCL0099099                                                                                                                              *          20170725WMF1707257.TXT
MDDDH7269572201708                D89828070100PV1D20170801000060SPEAKER ASM                   M IMCTM S5MB11 FTTL  07070IMCT  S5 PTB  00004                    0230 SR        000000000000 FUJITSU TEN (THAILAN170KPCL0077077                                                                                                                              *          20170725WMF1707257.TXT
MDDDH7269573201708                D89828070100PV1D20170801000120SPEAKER ASM                   M IMCTM S5MB11 FTTL  07070IMCT  S5 PTB  00004                    0400 SR        000000000000 FUJITSU TEN (THAILAN170KPFL0193193170KRAL0109109                                                                                                                *          20170725WMF1707257.TXT
MDDDH7269574201708                D89828070100PV1D20170801000060SPEAKER ASM                   M IMCTM S5MB11 FTTL  07070IMCT  S5 PTB  00004                    0900 SR        000000000000 FUJITSU TEN (THAILAN170KRAL0110110                                                                                                                              *          20170725WMF1707257.TXT
MDDDH7269575201708                D89828070100PV1D20170801000120SPEAKER ASM                   M IMCTM S5MB11 FTTL  07070IMCT  S5 PTB  00004                    1300 SR        000000000000 FUJITSU TEN (THAILAN170KNDL0148148170KRAL0111111                                                                                                                *          20170725WMF1707257.TXT
MDDDH7269576201708                D89828070100PV1D20170801000060SPEAKER ASM                   M IMCTM S5MB11 FTTL  07070IMCT  S5 PTB  00004                    1600 SR        000000000000 FUJITSU TEN (THAILAN170KRJL0043043                                                                                                                              *          20170725WMF1707257.TXT
MDDDH7269577201708                D89828070100PV1D20170801000060SPEAKER ASM                   M IMCTM S5MB11 FTTL  07070IMCT  S5 PTB  00004                    2100 SR        000000000000 FUJITSU TEN (THAILAN170KNCL0099099                                                                                                                              *          20170725WMF1707257.TXT
MDDDH7269578201708                D89828070200PV1D20170801000060SPEAKER ASM                   M IMCTM S5MA14 FTTL  07070IMCT  S5 PTB  00005                    1600 SR        000000000000 FUJITSU TEN (THAILAN170KRJL0043043                                                                                                                              *          20170725WMF1707257.TXT
MDDDH7269579201708                D89828070300PT1D20170801000060SPEAKER ASM                   M IMCTM S5NB082FTTL  07070IMCT  S5 PTB  00015                    0230 SR        000000000000 FUJITSU TEN (THAILAN170KPCL0077077                                                                                                                              *          20170725WMF1707257.TXT
MDDDH7269580201708                D89828070300PT1D20170801000060SPEAKER ASM                   M IMCTM S5NB082FTTL  07070IMCT  S5 PTB  00015                    0400 SR        000000000000 FUJITSU TEN (THAILAN170KPFL0193193                                                                                                                              *          20170725WMF1707257.TXT
MDDDH7269581201708                D89828070300PT1D20170801000060SPEAKER ASM                   M IMCTM S5NB082FTTL  07070IMCT  S5 PTB  00015                    1600 SR        000000000000 FUJITSU TEN (THAILAN170KRJL0043043                                                                                                                              *          20170725WMF1707257.TXT
MDDDH7269582201708                D89831228300PT1D20170801000030RADIO;AM/FM,CD                M IMCTM S5NC06 FTTL  07070IMCT  S5 CPB  00003                    0230 SR        000000000000 FUJITSU TEN (THAILAN170KPCL0077077                                                                                                                              *          20170725WMF1707257.TXT
MDDDH7269583201708                D89831228300PT1D20170801000030RADIO;AM/FM,CD                M IMCTM S5NC06 FTTL  07070IMCT  S5 CPB  00003                    0400 SR        000000000000 FUJITSU TEN (THAILAN170KPFL0193193                                                                                                                              *          20170725WMF1707257.TXT
MDDUH7237799201708                D89828070100PT4U20170731000030SPEAKER ASM                   M IMCTM S0FL05 FTTL  07070IMCT  S0 PTB  00004                    2230 SR        000000000000 FUJITSU TEN (THAILAN180LUEU0130130                                                                                                                              *          20170725WMF1707257.TXT
MDDUH7237800201708                D89828070100PT4U20170801000030SPEAKER ASM                   M IMCTM S0FL05 FTTL  07070IMCT  S0 PTB  00004                    1300 SR        000000000000 FUJITSU TEN (THAILAN180LUEU0131131                                                                                                                              *          20170725WMF1707257.TXT
MDDUH7237801201708                D89828070100PT4U20170801000030SPEAKER ASM                   M IMCTM S0FL05 FTTL  07070IMCT  S0 PTB  00004                    1600 SR        000000000000 FUJITSU TEN (THAILAN180LUFU0039039                                                                                                                              *          20170725WMF1707257.TXT
MDDUH7237802201708                D89828070200PV4U20170731000030SPEAKER ASM                   M IMCTM S0FR05 FTTL  07070IMCT  S0 PTB  00005                    2230 SR        000000000000 FUJITSU TEN (THAILAN180LUEU0130130                                                                                                                              *          20170725WMF1707257.TXT
MDDUH7237803201708                D89828070200PV4U20170801000030SPEAKER ASM                   M IMCTM S0FR05 FTTL  07070IMCT  S0 PTB  00005                    1300 SR        000000000000 FUJITSU TEN (THAILAN180LUEU0131131                                                                                                                              *          20170725WMF1707257.TXT
MDDUH7237804201708                D89828070200PV4U20170801000030SPEAKER ASM                   M IMCTM S0FR05 FTTL  07070IMCT  S0 PTB  00005                    1600 SR        000000000000 FUJITSU TEN (THAILAN180LUFU0039039                                                                                                                              *          20170725WMF1707257.TXT
MDDUH7237805201708                D89828070300PT4U20170731000030SPEAKER ASM                   M IMCTM S9TS02 FTTL  07070IMCT  S9 PTB  00015                    2230 SR        000000000000 FUJITSU TEN (THAILAN180LUEU0130130                                                                                                                              *          20170725WMF1707257.TXT
MDDUH7237806201708                D89828070300PT4U20170801000030SPEAKER ASM                   M IMCTM S9TS02 FTTL  07070IMCT  S9 PTB  00015                    1300 SR        000000000000 FUJITSU TEN (THAILAN180LUEU0131131                                                                                                                              *          20170725WMF1707257.TXT
MDDUH7237807201708                D89828070300PT4U20170801000030SPEAKER ASM                   M IMCTM S9TS02 FTTL  07070IMCT  S9 PTB  00015                    1600 SR        000000000000 FUJITSU TEN (THAILAN180LUFU0039039                                                                                                                              *          20170725WMF1707257.TXT
MDEDH7313067201708                D89828070100PV1D20170731000060SPEAKER ASM                   M IMCTM S5MB11 FTTL  07070IMCT  S5 PTB  00004                    2230 SR        000000000000 FUJITSU TEN (THAILAN17029NL0011012                                                                                                                              *          20170725WMF1707257.TXT
MDEDH7313068201708                D89828070100PV1D20170801000030SPEAKER ASM                   M IMCTM S5MB11 FTTL  07070IMCT  S5 PTB  00004                    0230 SR        000000000000 FUJITSU TEN (THAILAN17041PL0038038                                                                                                                              *          20170725WMF1707257.TXT
MDEDH7313069201708                D89828070100PV1D20170801000030SPEAKER ASM                   M IMCTM S5MB11 FTTL  07070IMCT  S5 PTB  00004                    0400 SR        000000000000 FUJITSU TEN (THAILAN17041PL0039039                                                                                                                              *          20170725WMF1707257.TXT
MDEDH7313070201708                D89828070100PV1D20170801000060SPEAKER ASM                   M IMCTM S5MB11 FTTL  07070IMCT  S5 PTB  00004                    0900 SR        000000000000 FUJITSU TEN (THAILAN17052TL0022023                                                                                                                              *          20170725WMF1707257.TXT
MDEDH7313071201708                D89828070100PV1D20170801000090SPEAKER ASM                   M IMCTM S5MB11 FTTL  07070IMCT  S5 PTB  00004                    1600 SR        000000000000 FUJITSU TEN (THAILAN17051TL002102117065NL0016017                                                                                                                *          20170725WMF1707257.TXT
MDEDH7313072201708                D89828070100PV1D20170801000030SPEAKER ASM                   M IMCTM S5MB11 FTTL  07070IMCT  S5 PTB  00004                    2100 SR        000000000000 FUJITSU TEN (THAILAN17032RL0003003                                                                                                                              *          20170725WMF1707257.TXT
MDEDH7313073201708                D89828070100PV4D20170801000030SPEAKER ASM                   M IMCTM S0FL05 FTTL  07070IMCT  S0 PTB  00004                    0400 SR        000000000000 FUJITSU TEN (THAILAN16047KU0008008                                                                                                                              *          20170725WMF1707257.TXT
MDEDH7313074201708                D89828070100PV4D20170801000030SPEAKER ASM                   M IMCTM S0FL05 FTTL  07070IMCT  S0 PTB  00004                    0900 SR        000000000000 FUJITSU TEN (THAILAN16047KU0009009                                                                                                                              *          20170725WMF1707257.TXT
MDEDH7313075201708                D89828070200PV4D20170801000030SPEAKER ASM                   M IMCTM S0FR05 FTTL  07070IMCT  S0 PTB  00005                    0400 SR        000000000000 FUJITSU TEN (THAILAN16047KU0008008                                                                                                                              *          20170725WMF1707257.TXT
MDEDH7313076201708                D89828070200PV4D20170801000030SPEAKER ASM                   M IMCTM S0FR05 FTTL  07070IMCT  S0 PTB  00005                    0900 SR        000000000000 FUJITSU TEN (THAILAN16047KU0009009                                                                                                                              *          20170725WMF1707257.TXT
MDEDH7313077201708                D89828070300PT1D20170731000060SPEAKER ASM                   M IMCTM S5NB082FTTL  07070IMCT  S5 PTB  00015                    2230 SR        000000000000 FUJITSU TEN (THAILAN17029NL0011012                                                                                                                              *          20170725WMF1707257.TXT
MDEDH7313078201708                D89828070300PT1D20170801000060SPEAKER ASM                   M IMCTM S5NB082FTTL  07070IMCT  S5 PTB  00015                    1600 SR        000000000000 FUJITSU TEN (THAILAN17065NL0016017                                                                                                                              *          20170725WMF1707257.TXT
MDEDH7313079201708                D89828070300PT1D20170801000030SPEAKER ASM                   M IMCTM S5NB082FTTL  07070IMCT  S5 PTB  00015                    2100 SR        000000000000 FUJITSU TEN (THAILAN17032RL0003003                                                                                                                              *          20170725WMF1707257.TXT
MDEDH7313080201708                D89828070300PT4D20170801000030SPEAKER ASM                   M IMCTM S9TS02 FTTL  07070IMCT  S9 PTB  00015                    0400 SR        000000000000 FUJITSU TEN (THAILAN16047KU0008008                                                                                                                              *          20170725WMF1707257.TXT
MDEDH7313081201708                D89828070300PT4D20170801000030SPEAKER ASM                   M IMCTM S9TS02 FTTL  07070IMCT  S9 PTB  00015                    0900 SR        000000000000 FUJITSU TEN (THAILAN16047KU0009009                                                                                                                              *          20170725WMF1707257.TXT
MDEDH7313082201708                D89831228900PT1D20170801000015RADIO;AM/FM,CD                M IMCTM S5NC06 FTTL  07070IMCT  S5 PTB  00003                    2100 SR        000000000000 FUJITSU TEN (THAILAN17032RL0003003                                                                                                                              *          20170725WMF1707257.TXT
MDEDH7313083201708                D89848582500PT1D20170801000030RADIO;AM/FM CD D              M IMCTM S5NC06 FTTL  07070IMCT  S5 PTB  00003                    1600 SR        000000000000 FUJITSU TEN (THAILAN17065NL0016017                                                                                                                              *          20170725WMF1707257.TXT
MDEUH7281134201708                D89828070100PT4U20170801000030SPEAKER ASM                   M IMCTM S0FL05 FTTL  07070IMCT  S0 PTB  00004                    0230 SR        000000000000 FUJITSU TEN (THAILAN18078SU0001001                                                                                                                              *          20170725WMF1707257.TXT
MDEUH7281135201708                D89828070100PT4U20170801000030SPEAKER ASM                   M IMCTM S0FL05 FTTL  07070IMCT  S0 PTB  00004                    0400 SR        000000000000 FUJITSU TEN (THAILAN18078SU0002002                                                                                                                              *          20170725WMF1707257.TXT
MDEUH7281136201708                D89828070100PT4U20170801000030SPEAKER ASM                   M IMCTM S0FL05 FTTL  07070IMCT  S0 PTB  00004                    0900 SR        000000000000 FUJITSU TEN (THAILAN18024TU0016016                                                                                                                              *          20170725WMF1707257.TXT
MDEUH7281137201708                D89828070100PT4U20170801000060SPEAKER ASM                   M IMCTM S0FL05 FTTL  07070IMCT  S0 PTB  00004                    1600 SR        000000000000 FUJITSU TEN (THAILAN170C13U012612618022TU0057057                                                                                                                *          20170725WMF1707257.TXT
MDEUH7281138201708                D89828070200PV4U20170801000030SPEAKER ASM                   M IMCTM S0FR05 FTTL  07070IMCT  S0 PTB  00005                    0230 SR        000000000000 FUJITSU TEN (THAILAN18078SU0001001                                                                                                                              *          20170725WMF1707257.TXT
MDEUH7281139201708                D89828070200PV4U20170801000030SPEAKER ASM                   M IMCTM S0FR05 FTTL  07070IMCT  S0 PTB  00005                    0400 SR        000000000000 FUJITSU TEN (THAILAN18078SU0002002                                                                                                                              *          20170725WMF1707257.TXT
MDEUH7281140201708                D89828070200PV4U20170801000030SPEAKER ASM                   M IMCTM S0FR05 FTTL  07070IMCT  S0 PTB  00005                    0900 SR        000000000000 FUJITSU TEN (THAILAN18024TU0016016                                                                                                                              *          20170725WMF1707257.TXT
MDEUH7281141201708                D89828070200PV4U20170801000060SPEAKER ASM                   M IMCTM S0FR05 FTTL  07070IMCT  S0 PTB  00005                    1600 SR        000000000000 FUJITSU TEN (THAILAN170C13U012612618022TU0057057                                                                                                                *          20170725WMF1707257.TXT
MDEUH7281142201708                D89828070300PT4U20170801000030SPEAKER ASM                   M IMCTM S9TS02 FTTL  07070IMCT  S9 PTB  00015                    0230 SR        000000000000 FUJITSU TEN (THAILAN18078SU0001001                                                                                                                              *          20170725WMF1707257.TXT
MDEUH7281143201708                D89828070300PT4U20170801000030SPEAKER ASM                   M IMCTM S9TS02 FTTL  07070IMCT  S9 PTB  00015                    0400 SR        000000000000 FUJITSU TEN (THAILAN18078SU0002002                                                                                                                              *          20170725WMF1707257.TXT
MDEUH7281144201708                D89828070300PT4U20170801000030SPEAKER ASM                   M IMCTM S9TS02 FTTL  07070IMCT  S9 PTB  00015                    0900 SR        000000000000 FUJITSU TEN (THAILAN18024TU0016016                                                                                                                              *          20170725WMF1707257.TXT
MDEUH7281145201708                D89828070300PT4U20170801000060SPEAKER ASM                   M IMCTM S9TS02 FTTL  07070IMCT  S9 PTB  00015                    1600 SR        000000000000 FUJITSU TEN (THAILAN170C13U012612618022TU0057057                                                                                                                *          20170725WMF1707257.TXT
