REC2017072620170726ISUZU                              60     
MDDDH7274230201708                D89821984430PT1D20170801000030RADIO;AM/FM,CD                M IMCTM S5NC06 FTTL  07070IMCT  S5 PTB  00005                    2230 SR        000000000000 FUJITSU TEN (THAILAN170KPAL0138138                                                                                                                              *          20170726WMF1707266.TXT
MDDDH7274231201708                D89821984430PT1D20170802000030RADIO;AM/FM,CD                M IMCTM S5NC06 FTTL  07070IMCT  S5 PTB  00005                    0400 SR        000000000000 FUJITSU TEN (THAILAN170KPAL0139139                                                                                                                              *          20170726WMF1707266.TXT
MDDDH7274232201708                D89821984430PT1D20170802000030RADIO;AM/FM,CD                M IMCTM S5NC06 FTTL  07070IMCT  S5 PTB  00005                    0900 SR        000000000000 FUJITSU TEN (THAILAN170KNDL0149149                                                                                                                              *          20170726WMF1707266.TXT
MDDDH7274233201708                D89821984430PT1D20170802000030RADIO;AM/FM,CD                M IMCTM S5NC06 FTTL  07070IMCT  S5 PTB  00005                    1300 SR        000000000000 FUJITSU TEN (THAILAN170KNEL0143143                                                                                                                              *          20170726WMF1707266.TXT
MDDDH7274234201708                D89821984430PT1D20170802000060RADIO;AM/FM,CD                M IMCTM S5NC06 FTTL  07070IMCT  S5 PTB  00005                    1600 SR        000000000000 FUJITSU TEN (THAILAN170KNEL0144144170KRAL0112112                                                                                                                *          20170726WMF1707266.TXT
MDDDH7274235201708                D89821984430PT4D20170802000030RADIO;AM/FM,CD                M IMCTM S9CO001FTTL  07070IMCT  S9 PTB  00005                    1600 SR        000000000000 FUJITSU TEN (THAILAN170KNDU0005005                                                                                                                              *          20170726WMF1707266.TXT
MDDDH7274236201708                D89828070100PV1D20170801000060SPEAKER ASM                   M IMCTM S5MB11 FTTL  07070IMCT  S5 PTB  00004                    2230 SR        000000000000 FUJITSU TEN (THAILAN170KPAL0138138                                                                                                                              *          20170726WMF1707266.TXT
MDDDH7274237201708                D89828070100PV1D20170802000060SPEAKER ASM                   M IMCTM S5MB11 FTTL  07070IMCT  S5 PTB  00004                    0400 SR        000000000000 FUJITSU TEN (THAILAN170KPAL0139139                                                                                                                              *          20170726WMF1707266.TXT
MDDDH7274238201708                D89828070100PV1D20170802000060SPEAKER ASM                   M IMCTM S5MB11 FTTL  07070IMCT  S5 PTB  00004                    0900 SR        000000000000 FUJITSU TEN (THAILAN170KNDL0149149                                                                                                                              *          20170726WMF1707266.TXT
MDDDH7274239201708                D89828070100PV1D20170802000060SPEAKER ASM                   M IMCTM S5MB11 FTTL  07070IMCT  S5 PTB  00004                    1300 SR        000000000000 FUJITSU TEN (THAILAN170KNEL0143143                                                                                                                              *          20170726WMF1707266.TXT
MDDDH7274240201708                D89828070100PV1D20170802000180SPEAKER ASM                   M IMCTM S5MB11 FTTL  07070IMCT  S5 PTB  00004                    1600 SR        000000000000 FUJITSU TEN (THAILAN170KNEL0144144170KRAL0112112170KRSL0053053                                                                                                  *          20170726WMF1707266.TXT
MDDDH7274241201708                D89828070100PV1D20170802000060SPEAKER ASM                   M IMCTM S5MB11 FTTL  07070IMCT  S5 PTB  00004                    2100 SR        000000000000 FUJITSU TEN (THAILAN170KPCL0078078                                                                                                                              *          20170726WMF1707266.TXT
MDDDH7274242201708                D89828070100PV4D20170802000060SPEAKER ASM                   M IMCTM S0FL05 FTTL  07070IMCT  S0 PTB  00004                    1600 SR        000000000000 FUJITSU TEN (THAILAN170KNDU0005005                                                                                                                              *          20170726WMF1707266.TXT
MDDDH7274243201708                D89828070200PV1D20170802000060SPEAKER ASM                   M IMCTM S5MA14 FTTL  07070IMCT  S5 PTB  00005                    1600 SR        000000000000 FUJITSU TEN (THAILAN170KRSL0053053                                                                                                                              *          20170726WMF1707266.TXT
MDDDH7274244201708                D89828070300PT1D20170802000060SPEAKER ASM                   M IMCTM S5NB082FTTL  07070IMCT  S5 PTB  00015                    1600 SR        000000000000 FUJITSU TEN (THAILAN170KRSL0053053                                                                                                                              *          20170726WMF1707266.TXT
MDDDH7274245201708                D89828070300PT1D20170802000060SPEAKER ASM                   M IMCTM S5NB082FTTL  07070IMCT  S5 PTB  00015                    2100 SR        000000000000 FUJITSU TEN (THAILAN170KPCL0078078                                                                                                                              *          20170726WMF1707266.TXT
MDDDH7274246201708                D89831228300PT1D20170802000030RADIO;AM/FM,CD                M IMCTM S5NC06 FTTL  07070IMCT  S5 CPB  00003                    2100 SR        000000000000 FUJITSU TEN (THAILAN170KPCL0078078                                                                                                                              *          20170726WMF1707266.TXT
MDDUH7240293201708                D89828070100PT4U20170801000030SPEAKER ASM                   M IMCTM S0FL05 FTTL  07070IMCT  S0 PTB  00004                    2230 SR        000000000000 FUJITSU TEN (THAILAN180LUEU0132132                                                                                                                              *          20170726WMF1707266.TXT
MDDUH7240294201708                D89828070100PT4U20170802000030SPEAKER ASM                   M IMCTM S0FL05 FTTL  07070IMCT  S0 PTB  00004                    0400 SR        000000000000 FUJITSU TEN (THAILAN180LUEU0133133                                                                                                                              *          20170726WMF1707266.TXT
MDDUH7240295201708                D89828070100PT4U20170802000030SPEAKER ASM                   M IMCTM S0FL05 FTTL  07070IMCT  S0 PTB  00004                    0900 SR        000000000000 FUJITSU TEN (THAILAN180LUEU0134134                                                                                                                              *          20170726WMF1707266.TXT
MDDUH7240296201708                D89828070100PT4U20170802000030SPEAKER ASM                   M IMCTM S0FL05 FTTL  07070IMCT  S0 PTB  00004                    1300 SR        000000000000 FUJITSU TEN (THAILAN180LUEU0135135                                                                                                                              *          20170726WMF1707266.TXT
MDDUH7240297201708                D89828070200PV4U20170801000030SPEAKER ASM                   M IMCTM S0FR05 FTTL  07070IMCT  S0 PTB  00005                    2230 SR        000000000000 FUJITSU TEN (THAILAN180LUEU0132132                                                                                                                              *          20170726WMF1707266.TXT
MDDUH7240298201708                D89828070200PV4U20170802000030SPEAKER ASM                   M IMCTM S0FR05 FTTL  07070IMCT  S0 PTB  00005                    0400 SR        000000000000 FUJITSU TEN (THAILAN180LUEU0133133                                                                                                                              *          20170726WMF1707266.TXT
MDDUH7240299201708                D89828070200PV4U20170802000030SPEAKER ASM                   M IMCTM S0FR05 FTTL  07070IMCT  S0 PTB  00005                    0900 SR        000000000000 FUJITSU TEN (THAILAN180LUEU0134134                                                                                                                              *          20170726WMF1707266.TXT
MDDUH7240300201708                D89828070200PV4U20170802000030SPEAKER ASM                   M IMCTM S0FR05 FTTL  07070IMCT  S0 PTB  00005                    1300 SR        000000000000 FUJITSU TEN (THAILAN180LUEU0135135                                                                                                                              *          20170726WMF1707266.TXT
MDDUH7240301201708                D89828070300PT4U20170801000030SPEAKER ASM                   M IMCTM S9TS02 FTTL  07070IMCT  S9 PTB  00015                    2230 SR        000000000000 FUJITSU TEN (THAILAN180LUEU0132132                                                                                                                              *          20170726WMF1707266.TXT
MDDUH7240302201708                D89828070300PT4U20170802000030SPEAKER ASM                   M IMCTM S9TS02 FTTL  07070IMCT  S9 PTB  00015                    0400 SR        000000000000 FUJITSU TEN (THAILAN180LUEU0133133                                                                                                                              *          20170726WMF1707266.TXT
MDDUH7240303201708                D89828070300PT4U20170802000030SPEAKER ASM                   M IMCTM S9TS02 FTTL  07070IMCT  S9 PTB  00015                    0900 SR        000000000000 FUJITSU TEN (THAILAN180LUEU0134134                                                                                                                              *          20170726WMF1707266.TXT
MDDUH7240304201708                D89828070300PT4U20170802000030SPEAKER ASM                   M IMCTM S9TS02 FTTL  07070IMCT  S9 PTB  00015                    1300 SR        000000000000 FUJITSU TEN (THAILAN180LUEU0135135                                                                                                                              *          20170726WMF1707266.TXT
MDEDH7318299201708                D89828070100PV1D20170802000090SPEAKER ASM                   M IMCTM S5MB11 FTTL  07070IMCT  S5 PTB  00004                    0230 SR        000000000000 FUJITSU TEN (THAILAN17041PL004004117055NL0042042                                                                                                                *          20170726WMF1707266.TXT
MDEDH7318300201708                D89828070100PV1D20170802000060SPEAKER ASM                   M IMCTM S5MB11 FTTL  07070IMCT  S5 PTB  00004                    0400 SR        000000000000 FUJITSU TEN (THAILAN17041PL004204217055NL0043043                                                                                                                *          20170726WMF1707266.TXT
MDEDH7318301201708                D89828070100PV1D20170802000060SPEAKER ASM                   M IMCTM S5MB11 FTTL  07070IMCT  S5 PTB  00004                    0900 SR        000000000000 FUJITSU TEN (THAILAN17052TL0024025                                                                                                                              *          20170726WMF1707266.TXT
MDEDH7318302201708                D89828070100PV1D20170802000060SPEAKER ASM                   M IMCTM S5MB11 FTTL  07070IMCT  S5 PTB  00004                    1300 SR        000000000000 FUJITSU TEN (THAILAN17030NL000500517051TL0022022                                                                                                                *          20170726WMF1707266.TXT
MDEDH7318303201708                D89828070100PV1D20170802000030SPEAKER ASM                   M IMCTM S5MB11 FTTL  07070IMCT  S5 PTB  00004                    1600 SR        000000000000 FUJITSU TEN (THAILAN17033RL0003003                                                                                                                              *          20170726WMF1707266.TXT
MDEDH7318304201708                D89828070300PT1D20170802000030SPEAKER ASM                   M IMCTM S5NB082FTTL  07070IMCT  S5 PTB  00015                    0230 SR        000000000000 FUJITSU TEN (THAILAN17055NL0042042                                                                                                                              *          20170726WMF1707266.TXT
MDEDH7318305201708                D89828070300PT1D20170802000030SPEAKER ASM                   M IMCTM S5NB082FTTL  07070IMCT  S5 PTB  00015                    0400 SR        000000000000 FUJITSU TEN (THAILAN17055NL0043043                                                                                                                              *          20170726WMF1707266.TXT
MDEDH7318306201708                D89848581800PT1D20170802000015RADIO;AM/FM CD D              M IMCTM S5NC06 FTTL  07070IMCT  S5 PTB  00003                    0230 SR        000000000000 FUJITSU TEN (THAILAN17055NL0042042                                                                                                                              *          20170726WMF1707266.TXT
MDEDH7318307201708                D89848581800PT1D20170802000015RADIO;AM/FM CD D              M IMCTM S5NC06 FTTL  07070IMCT  S5 PTB  00003                    0400 SR        000000000000 FUJITSU TEN (THAILAN17055NL0043043                                                                                                                              *          20170726WMF1707266.TXT
MDEUH7284939201708                D89828070100PT4U20170801000030SPEAKER ASM                   M IMCTM S0FL05 FTTL  07070IMCT  S0 PTB  00004                    2230 SR        000000000000 FUJITSU TEN (THAILAN170C12U0071071                                                                                                                              *          20170726WMF1707266.TXT
MDEUH7284940201708                D89828070100PT4U20170802000030SPEAKER ASM                   M IMCTM S0FL05 FTTL  07070IMCT  S0 PTB  00004                    0230 SR        000000000000 FUJITSU TEN (THAILAN18022TU0058058                                                                                                                              *          20170726WMF1707266.TXT
MDEUH7284941201708                D89828070100PT4U20170802000030SPEAKER ASM                   M IMCTM S0FL05 FTTL  07070IMCT  S0 PTB  00004                    0900 SR        000000000000 FUJITSU TEN (THAILAN18023TU0126126                                                                                                                              *          20170726WMF1707266.TXT
MDEUH7284942201708                D89828070100PT4U20170802000030SPEAKER ASM                   M IMCTM S0FL05 FTTL  07070IMCT  S0 PTB  00004                    1300 SR        000000000000 FUJITSU TEN (THAILAN170C41U0005005                                                                                                                              *          20170726WMF1707266.TXT
MDEUH7284943201708                D89828070100PT4U20170802000030SPEAKER ASM                   M IMCTM S0FL05 FTTL  07070IMCT  S0 PTB  00004                    1600 SR        000000000000 FUJITSU TEN (THAILAN18022TU0059059                                                                                                                              *          20170726WMF1707266.TXT
MDEUH7284944201708                D89828070100PT4U20170802000030SPEAKER ASM                   M IMCTM S0FL05 FTTL  07070IMCT  S0 PTB  00004                    2100 SR        000000000000 FUJITSU TEN (THAILAN170C12U0072072                                                                                                                              *          20170726WMF1707266.TXT
MDEUH7284945201708                D89828070100PT4U20170802000030SPEAKER ASM                   M IMCTM S0FL05 FTTL  07070IMCT  S0 PTB  00004                    2230 SR        000000000000 FUJITSU TEN (THAILAN18022TU0060060                                                                                                                              *          20170726WMF1707266.TXT
MDEUH7284946201708                D89828070200PV4U20170801000030SPEAKER ASM                   M IMCTM S0FR05 FTTL  07070IMCT  S0 PTB  00005                    2230 SR        000000000000 FUJITSU TEN (THAILAN170C12U0071071                                                                                                                              *          20170726WMF1707266.TXT
MDEUH7284947201708                D89828070200PV4U20170802000030SPEAKER ASM                   M IMCTM S0FR05 FTTL  07070IMCT  S0 PTB  00005                    0230 SR        000000000000 FUJITSU TEN (THAILAN18022TU0058058                                                                                                                              *          20170726WMF1707266.TXT
MDEUH7284948201708                D89828070200PV4U20170802000030SPEAKER ASM                   M IMCTM S0FR05 FTTL  07070IMCT  S0 PTB  00005                    0900 SR        000000000000 FUJITSU TEN (THAILAN18023TU0126126                                                                                                                              *          20170726WMF1707266.TXT
MDEUH7284949201708                D89828070200PV4U20170802000030SPEAKER ASM                   M IMCTM S0FR05 FTTL  07070IMCT  S0 PTB  00005                    1300 SR        000000000000 FUJITSU TEN (THAILAN170C41U0005005                                                                                                                              *          20170726WMF1707266.TXT
MDEUH7284950201708                D89828070200PV4U20170802000030SPEAKER ASM                   M IMCTM S0FR05 FTTL  07070IMCT  S0 PTB  00005                    1600 SR        000000000000 FUJITSU TEN (THAILAN18022TU0059059                                                                                                                              *          20170726WMF1707266.TXT
MDEUH7284951201708                D89828070200PV4U20170802000030SPEAKER ASM                   M IMCTM S0FR05 FTTL  07070IMCT  S0 PTB  00005                    2100 SR        000000000000 FUJITSU TEN (THAILAN170C12U0072072                                                                                                                              *          20170726WMF1707266.TXT
MDEUH7284952201708                D89828070200PV4U20170802000030SPEAKER ASM                   M IMCTM S0FR05 FTTL  07070IMCT  S0 PTB  00005                    2230 SR        000000000000 FUJITSU TEN (THAILAN18022TU0060060                                                                                                                              *          20170726WMF1707266.TXT
MDEUH7284953201708                D89828070300PT4U20170801000030SPEAKER ASM                   M IMCTM S9TS02 FTTL  07070IMCT  S9 PTB  00015                    2230 SR        000000000000 FUJITSU TEN (THAILAN170C12U0071071                                                                                                                              *          20170726WMF1707266.TXT
MDEUH7284954201708                D89828070300PT4U20170802000030SPEAKER ASM                   M IMCTM S9TS02 FTTL  07070IMCT  S9 PTB  00015                    0230 SR        000000000000 FUJITSU TEN (THAILAN18022TU0058058                                                                                                                              *          20170726WMF1707266.TXT
MDEUH7284955201708                D89828070300PT4U20170802000030SPEAKER ASM                   M IMCTM S9TS02 FTTL  07070IMCT  S9 PTB  00015                    0900 SR        000000000000 FUJITSU TEN (THAILAN18023TU0126126                                                                                                                              *          20170726WMF1707266.TXT
MDEUH7284956201708                D89828070300PT4U20170802000030SPEAKER ASM                   M IMCTM S9TS02 FTTL  07070IMCT  S9 PTB  00015                    1300 SR        000000000000 FUJITSU TEN (THAILAN170C41U0005005                                                                                                                              *          20170726WMF1707266.TXT
MDEUH7284957201708                D89828070300PT4U20170802000030SPEAKER ASM                   M IMCTM S9TS02 FTTL  07070IMCT  S9 PTB  00015                    1600 SR        000000000000 FUJITSU TEN (THAILAN18022TU0059059                                                                                                                              *          20170726WMF1707266.TXT
MDEUH7284958201708                D89828070300PT4U20170802000030SPEAKER ASM                   M IMCTM S9TS02 FTTL  07070IMCT  S9 PTB  00015                    2100 SR        000000000000 FUJITSU TEN (THAILAN170C12U0072072                                                                                                                              *          20170726WMF1707266.TXT
MDEUH7284959201708                D89828070300PT4U20170802000030SPEAKER ASM                   M IMCTM S9TS02 FTTL  07070IMCT  S9 PTB  00015                    2230 SR        000000000000 FUJITSU TEN (THAILAN18022TU0060060                                                                                                                              *          20170726WMF1707266.TXT
MDEUH7284960201708                D89829100110PT4U20170802000015RADIO;ASM DVD                 M IMCTM S9CO001FTTL  07070IMCT  S9 PTB  00003                    1300 SR        000000000000 FUJITSU TEN (THAILAN170C41U0005005                                                                                                                              *          20170726WMF1707266.TXT
