REC2017072420170724ISUZU                              50     
MDDDH7266305201707                D89821984430PT1D20170728000030RADIO;AM/FM,CD                M IMCTM S5NC06 FTTL  07070IMCT  S5 PTB  00005                    0230 SR        000000000000 FUJITSU TEN (THAILAN170KNCL0098098                                                                                                                              *          20170724WMF1707245.TXT
MDDDH7266306201707                D89821984430PT1D20170731000030RADIO;AM/FM,CD                M IMCTM S5NC06 FTTL  07070IMCT  S5 PTB  00005                    2230 SR        000000000000 FUJITSU TEN (THAILAN170KRAL0108108                                                                                                                              *          20170724WMF1707245.TXT
MDDDH7266307201707                D89828070100PV1D20170728000060SPEAKER ASM                   M IMCTM S5MB11 FTTL  07070IMCT  S5 PTB  00004                    0230 SR        000000000000 FUJITSU TEN (THAILAN170KNCL0098098                                                                                                                              *          20170724WMF1707245.TXT
MDDDH7266308201707                D89828070100PV1D20170731000060SPEAKER ASM                   M IMCTM S5MB11 FTTL  07070IMCT  S5 PTB  00004                    0900 SR        000000000000 FUJITSU TEN (THAILAN170KNAL0075075                                                                                                                              *          20170724WMF1707245.TXT
MDDDH7266309201707                D89828070100PV1D20170731000060SPEAKER ASM                   M IMCTM S5MB11 FTTL  07070IMCT  S5 PTB  00004                    1300 SR        000000000000 FUJITSU TEN (THAILAN170KNAL0076076                                                                                                                              *          20170724WMF1707245.TXT
MDDDH7266310201707                D89828070100PV1D20170731000060SPEAKER ASM                   M IMCTM S5MB11 FTTL  07070IMCT  S5 PTB  00004                    1600 SR        000000000000 FUJITSU TEN (THAILAN170KNAL0077077                                                                                                                              *          20170724WMF1707245.TXT
MDDDH7266311201707                D89828070100PV1D20170731000060SPEAKER ASM                   M IMCTM S5MB11 FTTL  07070IMCT  S5 PTB  00004                    2230 SR        000000000000 FUJITSU TEN (THAILAN170KRAL0108108                                                                                                                              *          20170724WMF1707245.TXT
MDDUH7236066201707                D89828070100PT4U20170731000030SPEAKER ASM                   M IMCTM S0FL05 FTTL  07070IMCT  S0 PTB  00004                    1600 SR        000000000000 FUJITSU TEN (THAILAN180LUEU0128128                                                                                                                              *          20170724WMF1707245.TXT
MDDUH7236067201707                D89828070100PT4U20170731000030SPEAKER ASM                   M IMCTM S0FL05 FTTL  07070IMCT  S0 PTB  00004                    2100 SR        000000000000 FUJITSU TEN (THAILAN180LUEU0129129                                                                                                                              *          20170724WMF1707245.TXT
MDDUH7236068201707                D89828070200PV4U20170731000030SPEAKER ASM                   M IMCTM S0FR05 FTTL  07070IMCT  S0 PTB  00005                    1600 SR        000000000000 FUJITSU TEN (THAILAN180LUEU0128128                                                                                                                              *          20170724WMF1707245.TXT
MDDUH7236069201707                D89828070200PV4U20170731000030SPEAKER ASM                   M IMCTM S0FR05 FTTL  07070IMCT  S0 PTB  00005                    2100 SR        000000000000 FUJITSU TEN (THAILAN180LUEU0129129                                                                                                                              *          20170724WMF1707245.TXT
MDDUH7236070201707                D89828070300PT4U20170731000030SPEAKER ASM                   M IMCTM S9TS02 FTTL  07070IMCT  S9 PTB  00015                    1600 SR        000000000000 FUJITSU TEN (THAILAN180LUEU0128128                                                                                                                              *          20170724WMF1707245.TXT
MDDUH7236071201707                D89828070300PT4U20170731000030SPEAKER ASM                   M IMCTM S9TS02 FTTL  07070IMCT  S9 PTB  00015                    2100 SR        000000000000 FUJITSU TEN (THAILAN180LUEU0129129                                                                                                                              *          20170724WMF1707245.TXT
MDEDH7306528201707                D89828070100PV1D20170727000060SPEAKER ASM                   M IMCTM S5MB11 FTTL  07070IMCT  S5 PTB  00004                    2230 SR        000000000000 FUJITSU TEN (THAILAN17051TL0016017                                                                                                                              *          20170724WMF1707245.TXT
MDEDH7306529201707                D89828070100PV1D20170728000060SPEAKER ASM                   M IMCTM S5MB11 FTTL  07070IMCT  S5 PTB  00004                    0230 SR        000000000000 FUJITSU TEN (THAILAN17052TL0020021                                                                                                                              *          20170724WMF1707245.TXT
MDEDH7306530201707                D89828070100PV1D20170728000090SPEAKER ASM                   M IMCTM S5MB11 FTTL  07070IMCT  S5 PTB  00004                    0400 SR        000000000000 FUJITSU TEN (THAILAN17032QL000200217051TL0018019                                                                                                                *          20170724WMF1707245.TXT
MDEDH7306531201707                D89828070100PV1D20170731000030SPEAKER ASM                   M IMCTM S5MB11 FTTL  07070IMCT  S5 PTB  00004                    0900 SR        000000000000 FUJITSU TEN (THAILAN17099ML0006006                                                                                                                              *          20170724WMF1707245.TXT
MDEDH7306532201707                D89828070100PV1D20170731000060SPEAKER ASM                   M IMCTM S5MB11 FTTL  07070IMCT  S5 PTB  00004                    1300 SR        000000000000 FUJITSU TEN (THAILAN17010ML002702717051TL0020020                                                                                                                *          20170724WMF1707245.TXT
MDEDH7306533201707                D89828070100PV1D20170731000030SPEAKER ASM                   M IMCTM S5MB11 FTTL  07070IMCT  S5 PTB  00004                    1600 SR        000000000000 FUJITSU TEN (THAILAN17050RL0016016                                                                                                                              *          20170724WMF1707245.TXT
MDEDH7306534201707                D89828070100PV1D20170731000060SPEAKER ASM                   M IMCTM S5MB11 FTTL  07070IMCT  S5 PTB  00004                    2100 SR        000000000000 FUJITSU TEN (THAILAN17041PL0036037                                                                                                                              *          20170724WMF1707245.TXT
MDEDH7306535201707                D89828070100PV4D20170728000030SPEAKER ASM                   M IMCTM S0FL05 FTTL  07070IMCT  S0 PTB  00004                    0400 SR        000000000000 FUJITSU TEN (THAILAN16047KU0006006                                                                                                                              *          20170724WMF1707245.TXT
MDEDH7306536201707                D89828070100PV4D20170731000030SPEAKER ASM                   M IMCTM S0FL05 FTTL  07070IMCT  S0 PTB  00004                    1600 SR        000000000000 FUJITSU TEN (THAILAN16047KU0007007                                                                                                                              *          20170724WMF1707245.TXT
MDEDH7306537201707                D89828070200PV1D20170728000030SPEAKER ASM                   M IMCTM S5MA14 FTTL  07070IMCT  S5 PTB  00005                    0400 SR        000000000000 FUJITSU TEN (THAILAN17032QL0002002                                                                                                                              *          20170724WMF1707245.TXT
MDEDH7306538201707                D89828070200PV1D20170731000030SPEAKER ASM                   M IMCTM S5MA14 FTTL  07070IMCT  S5 PTB  00005                    0900 SR        000000000000 FUJITSU TEN (THAILAN17099ML0006006                                                                                                                              *          20170724WMF1707245.TXT
MDEDH7306539201707                D89828070200PV1D20170731000030SPEAKER ASM                   M IMCTM S5MA14 FTTL  07070IMCT  S5 PTB  00005                    1600 SR        000000000000 FUJITSU TEN (THAILAN17050RL0016016                                                                                                                              *          20170724WMF1707245.TXT
MDEDH7306540201707                D89828070200PV4D20170728000030SPEAKER ASM                   M IMCTM S0FR05 FTTL  07070IMCT  S0 PTB  00005                    0400 SR        000000000000 FUJITSU TEN (THAILAN16047KU0006006                                                                                                                              *          20170724WMF1707245.TXT
MDEDH7306541201707                D89828070200PV4D20170731000030SPEAKER ASM                   M IMCTM S0FR05 FTTL  07070IMCT  S0 PTB  00005                    1600 SR        000000000000 FUJITSU TEN (THAILAN16047KU0007007                                                                                                                              *          20170724WMF1707245.TXT
MDEDH7306542201707                D89828070300PT1D20170728000030SPEAKER ASM                   M IMCTM S5NB082FTTL  07070IMCT  S5 PTB  00015                    0400 SR        000000000000 FUJITSU TEN (THAILAN17032QL0002002                                                                                                                              *          20170724WMF1707245.TXT
MDEDH7306543201707                D89828070300PT1D20170731000030SPEAKER ASM                   M IMCTM S5NB082FTTL  07070IMCT  S5 PTB  00015                    0900 SR        000000000000 FUJITSU TEN (THAILAN17099ML0006006                                                                                                                              *          20170724WMF1707245.TXT
MDEDH7306544201707                D89828070300PT1D20170731000030SPEAKER ASM                   M IMCTM S5NB082FTTL  07070IMCT  S5 PTB  00015                    1600 SR        000000000000 FUJITSU TEN (THAILAN17050RL0016016                                                                                                                              *          20170724WMF1707245.TXT
MDEDH7306545201707                D89828070300PT4D20170728000030SPEAKER ASM                   M IMCTM S9TS02 FTTL  07070IMCT  S9 PTB  00015                    0400 SR        000000000000 FUJITSU TEN (THAILAN16047KU0006006                                                                                                                              *          20170724WMF1707245.TXT
MDEDH7306546201707                D89828070300PT4D20170731000030SPEAKER ASM                   M IMCTM S9TS02 FTTL  07070IMCT  S9 PTB  00015                    1600 SR        000000000000 FUJITSU TEN (THAILAN16047KU0007007                                                                                                                              *          20170724WMF1707245.TXT
MDEDH7306547201707                D89829645310PT1D20170731000015RADIO;ASM DVD                 M IMCTM S5NC06 FTTL  07070IMCT  S5 PTB  00003                    0900 SR        000000000000 FUJITSU TEN (THAILAN17099ML0006006                                                                                                                              *          20170724WMF1707245.TXT
MDEDH7306548201707                D89829645410PT1D20170731000015RADIO;ASM DVD                 M IMCTM S5NC06 FTTL  07070IMCT  S5 PTB  00003                    1600 SR        000000000000 FUJITSU TEN (THAILAN17050RL0016016                                                                                                                              *          20170724WMF1707245.TXT
MDEDH7306549201707                D89831229200PT1D20170728000015RADIO;AM/FM,CD                M IMCTM S5NC06 FTTL  07070IMCT  S5 PTB  00003                    0400 SR        000000000000 FUJITSU TEN (THAILAN17032QL0002002                                                                                                                              *          20170724WMF1707245.TXT
MDEUH7277311201707                D89828070100PT4U20170727000030SPEAKER ASM                   M IMCTM S0FL05 FTTL  07070IMCT  S0 PTB  00004                    2230 SR        000000000000 FUJITSU TEN (THAILAN170C16U0322322                                                                                                                              *          20170724WMF1707245.TXT
MDEUH7277312201707                D89828070100PT4U20170728000030SPEAKER ASM                   M IMCTM S0FL05 FTTL  07070IMCT  S0 PTB  00004                    0230 SR        000000000000 FUJITSU TEN (THAILAN170C13U0125125                                                                                                                              *          20170724WMF1707245.TXT
MDEUH7277313201707                D89828070100PT4U20170728000030SPEAKER ASM                   M IMCTM S0FL05 FTTL  07070IMCT  S0 PTB  00004                    0400 SR        000000000000 FUJITSU TEN (THAILAN170C12U0069069                                                                                                                              *          20170724WMF1707245.TXT
MDEUH7277314201707                D89828070100PT4U20170731000060SPEAKER ASM                   M IMCTM S0FL05 FTTL  07070IMCT  S0 PTB  00004                    0900 SR        000000000000 FUJITSU TEN (THAILAN170C12U007007018018TU0032032                                                                                                                *          20170724WMF1707245.TXT
MDEUH7277315201707                D89828070100PT4U20170731000030SPEAKER ASM                   M IMCTM S0FL05 FTTL  07070IMCT  S0 PTB  00004                    1300 SR        000000000000 FUJITSU TEN (THAILAN18018TU0033033                                                                                                                              *          20170724WMF1707245.TXT
MDEUH7277316201707                D89828070200PV4U20170727000030SPEAKER ASM                   M IMCTM S0FR05 FTTL  07070IMCT  S0 PTB  00005                    2230 SR        000000000000 FUJITSU TEN (THAILAN170C16U0322322                                                                                                                              *          20170724WMF1707245.TXT
MDEUH7277317201707                D89828070200PV4U20170728000030SPEAKER ASM                   M IMCTM S0FR05 FTTL  07070IMCT  S0 PTB  00005                    0230 SR        000000000000 FUJITSU TEN (THAILAN170C13U0125125                                                                                                                              *          20170724WMF1707245.TXT
MDEUH7277318201707                D89828070200PV4U20170728000030SPEAKER ASM                   M IMCTM S0FR05 FTTL  07070IMCT  S0 PTB  00005                    0400 SR        000000000000 FUJITSU TEN (THAILAN170C12U0069069                                                                                                                              *          20170724WMF1707245.TXT
MDEUH7277319201707                D89828070200PV4U20170731000060SPEAKER ASM                   M IMCTM S0FR05 FTTL  07070IMCT  S0 PTB  00005                    0900 SR        000000000000 FUJITSU TEN (THAILAN170C12U007007018018TU0032032                                                                                                                *          20170724WMF1707245.TXT
MDEUH7277320201707                D89828070200PV4U20170731000030SPEAKER ASM                   M IMCTM S0FR05 FTTL  07070IMCT  S0 PTB  00005                    1300 SR        000000000000 FUJITSU TEN (THAILAN18018TU0033033                                                                                                                              *          20170724WMF1707245.TXT
MDEUH7277321201707                D89828070300PT4U20170727000030SPEAKER ASM                   M IMCTM S9TS02 FTTL  07070IMCT  S9 PTB  00015                    2230 SR        000000000000 FUJITSU TEN (THAILAN170C16U0322322                                                                                                                              *          20170724WMF1707245.TXT
MDEUH7277322201707                D89828070300PT4U20170728000030SPEAKER ASM                   M IMCTM S9TS02 FTTL  07070IMCT  S9 PTB  00015                    0230 SR        000000000000 FUJITSU TEN (THAILAN170C13U0125125                                                                                                                              *          20170724WMF1707245.TXT
MDEUH7277323201707                D89828070300PT4U20170728000030SPEAKER ASM                   M IMCTM S9TS02 FTTL  07070IMCT  S9 PTB  00015                    0400 SR        000000000000 FUJITSU TEN (THAILAN170C12U0069069                                                                                                                              *          20170724WMF1707245.TXT
MDEUH7277324201707                D89828070300PT4U20170731000060SPEAKER ASM                   M IMCTM S9TS02 FTTL  07070IMCT  S9 PTB  00015                    0900 SR        000000000000 FUJITSU TEN (THAILAN170C12U007007018018TU0032032                                                                                                                *          20170724WMF1707245.TXT
MDEUH7277325201707                D89828070300PT4U20170731000030SPEAKER ASM                   M IMCTM S9TS02 FTTL  07070IMCT  S9 PTB  00015                    1300 SR        000000000000 FUJITSU TEN (THAILAN18018TU0033033                                                                                                                              *          20170724WMF1707245.TXT
