REC2017071220170712ISUZU                              53     
MDDDH7229711201707                D89821984430PT1D20170716000030RADIO;AM/FM,CD                M IMCTM S5NC06 FTTL  07070IMCT  S5 PTB  00005                    0230 SR        000000000000 FUJITSU TEN (THAILAN170KNEL0131131                                                                                                                              *          20170712WMF1707123.TXT
MDDDH7229712201707                D89821984430PT1D20170717000030RADIO;AM/FM,CD                M IMCTM S5NC06 FTTL  07070IMCT  S5 PTB  00005                    0900 SR        000000000000 FUJITSU TEN (THAILAN170KNEL0132132                                                                                                                              *          20170712WMF1707123.TXT
MDDDH7229713201707                D89821984430PT1D20170717000030RADIO;AM/FM,CD                M IMCTM S5NC06 FTTL  07070IMCT  S5 PTB  00005                    1300 SR        000000000000 FUJITSU TEN (THAILAN170KRAL0105105                                                                                                                              *          20170712WMF1707123.TXT
MDDDH7229714201707                D89828070100PV1D20170715000060SPEAKER ASM                   M IMCTM S5MB11 FTTL  07070IMCT  S5 PTB  00004                    2230 SR        000000000000 FUJITSU TEN (THAILAN170KPFL0187187                                                                                                                              *          20170712WMF1707123.TXT
MDDDH7229715201707                D89828070100PV1D20170716000060SPEAKER ASM                   M IMCTM S5MB11 FTTL  07070IMCT  S5 PTB  00004                    0230 SR        000000000000 FUJITSU TEN (THAILAN170KNEL0131131                                                                                                                              *          20170712WMF1707123.TXT
MDDDH7229716201707                D89828070100PV1D20170716000060SPEAKER ASM                   M IMCTM S5MB11 FTTL  07070IMCT  S5 PTB  00004                    0400 SR        000000000000 FUJITSU TEN (THAILAN170KNAL0066066                                                                                                                              *          20170712WMF1707123.TXT
MDDDH7229717201707                D89828070100PV1D20170717000060SPEAKER ASM                   M IMCTM S5MB11 FTTL  07070IMCT  S5 PTB  00004                    0900 SR        000000000000 FUJITSU TEN (THAILAN170KNEL0132132                                                                                                                              *          20170712WMF1707123.TXT
MDDDH7229718201707                D89828070100PV1D20170717000060SPEAKER ASM                   M IMCTM S5MB11 FTTL  07070IMCT  S5 PTB  00004                    1300 SR        000000000000 FUJITSU TEN (THAILAN170KRAL0105105                                                                                                                              *          20170712WMF1707123.TXT
MDDDH7229719201707                D89828070100PV1D20170717000060SPEAKER ASM                   M IMCTM S5MB11 FTTL  07070IMCT  S5 PTB  00004                    2100 SR        000000000000 FUJITSU TEN (THAILAN170KRFL0118118                                                                                                                              *          20170712WMF1707123.TXT
MDDDH7229720201707                D89828070200PV1D20170717000060SPEAKER ASM                   M IMCTM S5MA14 FTTL  07070IMCT  S5 PTB  00005                    2100 SR        000000000000 FUJITSU TEN (THAILAN170KRFL0118118                                                                                                                              *          20170712WMF1707123.TXT
MDDDH7229721201707                D89828070300PT1D20170715000060SPEAKER ASM                   M IMCTM S5NB082FTTL  07070IMCT  S5 PTB  00015                    2230 SR        000000000000 FUJITSU TEN (THAILAN170KPFL0187187                                                                                                                              *          20170712WMF1707123.TXT
MDDDH7229722201707                D89828070300PT1D20170717000060SPEAKER ASM                   M IMCTM S5NB082FTTL  07070IMCT  S5 PTB  00015                    2100 SR        000000000000 FUJITSU TEN (THAILAN170KRFL0118118                                                                                                                              *          20170712WMF1707123.TXT
MDDDH7229723201707                D89829645910PT1D20170717000030RADIO;ASM DVD                 M IMCTM S5NC06 FTTL  07070IMCT  S5 CPB  00003                    2100 SR        000000000000 FUJITSU TEN (THAILAN170KRFL0118118                                                                                                                              *          20170712WMF1707123.TXT
MDDDH7229724201707                D89831228300PT1D20170715000030RADIO;AM/FM,CD                M IMCTM S5NC06 FTTL  07070IMCT  S5 CPB  00003                    2230 SR        000000000000 FUJITSU TEN (THAILAN170KPFL0187187                                                                                                                              *          20170712WMF1707123.TXT
MDDUH7220281201707                D89828070100PT4U20170715000030SPEAKER ASM                   M IMCTM S0FL05 FTTL  07070IMCT  S0 PTB  00004                    2230 SR        000000000000 FUJITSU TEN (THAILAN180LUDU0208208                                                                                                                              *          20170712WMF1707123.TXT
MDDUH7220282201707                D89828070100PT4U20170716000030SPEAKER ASM                   M IMCTM S0FL05 FTTL  07070IMCT  S0 PTB  00004                    0400 SR        000000000000 FUJITSU TEN (THAILAN180LUEU0119119                                                                                                                              *          20170712WMF1707123.TXT
MDDUH7220283201707                D89828070100PT4U20170717000030SPEAKER ASM                   M IMCTM S0FL05 FTTL  07070IMCT  S0 PTB  00004                    0900 SR        000000000000 FUJITSU TEN (THAILAN180LUDU0209209                                                                                                                              *          20170712WMF1707123.TXT
MDDUH7220284201707                D89828070100PT4U20170717000030SPEAKER ASM                   M IMCTM S0FL05 FTTL  07070IMCT  S0 PTB  00004                    1600 SR        000000000000 FUJITSU TEN (THAILAN180LUCU0062062                                                                                                                              *          20170712WMF1707123.TXT
MDDUH7220285201707                D89828070200PV4U20170715000030SPEAKER ASM                   M IMCTM S0FR05 FTTL  07070IMCT  S0 PTB  00005                    2230 SR        000000000000 FUJITSU TEN (THAILAN180LUDU0208208                                                                                                                              *          20170712WMF1707123.TXT
MDDUH7220286201707                D89828070200PV4U20170716000030SPEAKER ASM                   M IMCTM S0FR05 FTTL  07070IMCT  S0 PTB  00005                    0400 SR        000000000000 FUJITSU TEN (THAILAN180LUEU0119119                                                                                                                              *          20170712WMF1707123.TXT
MDDUH7220287201707                D89828070200PV4U20170717000030SPEAKER ASM                   M IMCTM S0FR05 FTTL  07070IMCT  S0 PTB  00005                    0900 SR        000000000000 FUJITSU TEN (THAILAN180LUDU0209209                                                                                                                              *          20170712WMF1707123.TXT
MDDUH7220288201707                D89828070200PV4U20170717000030SPEAKER ASM                   M IMCTM S0FR05 FTTL  07070IMCT  S0 PTB  00005                    1600 SR        000000000000 FUJITSU TEN (THAILAN180LUCU0062062                                                                                                                              *          20170712WMF1707123.TXT
MDDUH7220289201707                D89828070300PT4U20170715000030SPEAKER ASM                   M IMCTM S9TS02 FTTL  07070IMCT  S9 PTB  00015                    2230 SR        000000000000 FUJITSU TEN (THAILAN180LUDU0208208                                                                                                                              *          20170712WMF1707123.TXT
MDDUH7220290201707                D89828070300PT4U20170716000030SPEAKER ASM                   M IMCTM S9TS02 FTTL  07070IMCT  S9 PTB  00015                    0400 SR        000000000000 FUJITSU TEN (THAILAN180LUEU0119119                                                                                                                              *          20170712WMF1707123.TXT
MDDUH7220291201707                D89828070300PT4U20170717000030SPEAKER ASM                   M IMCTM S9TS02 FTTL  07070IMCT  S9 PTB  00015                    0900 SR        000000000000 FUJITSU TEN (THAILAN180LUDU0209209                                                                                                                              *          20170712WMF1707123.TXT
MDDUH7220292201707                D89828070300PT4U20170717000030SPEAKER ASM                   M IMCTM S9TS02 FTTL  07070IMCT  S9 PTB  00015                    1600 SR        000000000000 FUJITSU TEN (THAILAN180LUCU0062062                                                                                                                              *          20170712WMF1707123.TXT
MDDUH7220293201707                D89835097910PT4U20170717000015RADIO;ASM DVD                 M IMCTM S9TS01 FTTL  07070IMCT  S9 PTB  00003                    1600 SR        000000000000 FUJITSU TEN (THAILAN180LUCU0062062                                                                                                                              *          20170712WMF1707123.TXT
MDEDH7239515201707                D89828070100PV1D20170716000060SPEAKER ASM                   M IMCTM S5MB11 FTTL  07070IMCT  S5 PTB  00004                    0230 SR        000000000000 FUJITSU TEN (THAILAN17077ML0006007                                                                                                                              *          20170712WMF1707123.TXT
MDEDH7239516201707                D89828070100PV1D20170716000060SPEAKER ASM                   M IMCTM S5MB11 FTTL  07070IMCT  S5 PTB  00004                    0400 SR        000000000000 FUJITSU TEN (THAILAN17052ML0004005                                                                                                                              *          20170712WMF1707123.TXT
MDEDH7239517201707                D89828070100PV1D20170717000060SPEAKER ASM                   M IMCTM S5MB11 FTTL  07070IMCT  S5 PTB  00004                    0900 SR        000000000000 FUJITSU TEN (THAILAN17052ML0006007                                                                                                                              *          20170712WMF1707123.TXT
MDEDH7239518201707                D89828070100PV1D20170717000060SPEAKER ASM                   M IMCTM S5MB11 FTTL  07070IMCT  S5 PTB  00004                    1300 SR        000000000000 FUJITSU TEN (THAILAN17077ML0008009                                                                                                                              *          20170712WMF1707123.TXT
MDEDH7239519201707                D89828070100PV1D20170717000060SPEAKER ASM                   M IMCTM S5MB11 FTTL  07070IMCT  S5 PTB  00004                    1600 SR        000000000000 FUJITSU TEN (THAILAN17052ML000800817077ML0010010                                                                                                                *          20170712WMF1707123.TXT
MDEDH7239520201707                D89828070100PV4D20170717000030SPEAKER ASM                   M IMCTM S0FL05 FTTL  07070IMCT  S0 PTB  00004                    1300 SR        000000000000 FUJITSU TEN (THAILAN17074NU0013013                                                                                                                              *          20170712WMF1707123.TXT
MDEDH7239521201707                D89828070200PV4D20170717000030SPEAKER ASM                   M IMCTM S0FR05 FTTL  07070IMCT  S0 PTB  00005                    1300 SR        000000000000 FUJITSU TEN (THAILAN17074NU0013013                                                                                                                              *          20170712WMF1707123.TXT
MDEDH7239522201707                D89828070300PT4D20170717000030SPEAKER ASM                   M IMCTM S9TS02 FTTL  07070IMCT  S9 PTB  00015                    1300 SR        000000000000 FUJITSU TEN (THAILAN17074NU0013013                                                                                                                              *          20170712WMF1707123.TXT
MDEDH7239523201707                D89848581800PT4D20170717000015RADIO;AM/FM CD D              M IMCTM S9CO001FTTL  07070IMCT  S9 PTB  00003                    1300 SR        000000000000 FUJITSU TEN (THAILAN17074NU0013013                                                                                                                              *          20170712WMF1707123.TXT
MDEUH7228387201707                D89828070100PT4U20170716000030SPEAKER ASM                   M IMCTM S0FL05 FTTL  07070IMCT  S0 PTB  00004                    0230 SR        000000000000 FUJITSU TEN (THAILAN170C16U0289289                                                                                                                              *          20170712WMF1707123.TXT
MDEUH7228388201707                D89828070100PT4U20170716000030SPEAKER ASM                   M IMCTM S0FL05 FTTL  07070IMCT  S0 PTB  00004                    0400 SR        000000000000 FUJITSU TEN (THAILAN18021TU0023023                                                                                                                              *          20170712WMF1707123.TXT
MDEUH7228389201707                D89828070100PT4U20170717000030SPEAKER ASM                   M IMCTM S0FL05 FTTL  07070IMCT  S0 PTB  00004                    0900 SR        000000000000 FUJITSU TEN (THAILAN18021TU0024024                                                                                                                              *          20170712WMF1707123.TXT
MDEUH7228390201707                D89828070100PT4U20170717000030SPEAKER ASM                   M IMCTM S0FL05 FTTL  07070IMCT  S0 PTB  00004                    1300 SR        000000000000 FUJITSU TEN (THAILAN170C16U0290290                                                                                                                              *          20170712WMF1707123.TXT
MDEUH7228391201707                D89828070100PT4U20170717000030SPEAKER ASM                   M IMCTM S0FL05 FTTL  07070IMCT  S0 PTB  00004                    2100 SR        000000000000 FUJITSU TEN (THAILAN18020TU0006006                                                                                                                              *          20170712WMF1707123.TXT
MDEUH7228392201707                D89828070200PV4U20170716000030SPEAKER ASM                   M IMCTM S0FR05 FTTL  07070IMCT  S0 PTB  00005                    0230 SR        000000000000 FUJITSU TEN (THAILAN170C16U0289289                                                                                                                              *          20170712WMF1707123.TXT
MDEUH7228393201707                D89828070200PV4U20170716000030SPEAKER ASM                   M IMCTM S0FR05 FTTL  07070IMCT  S0 PTB  00005                    0400 SR        000000000000 FUJITSU TEN (THAILAN18021TU0023023                                                                                                                              *          20170712WMF1707123.TXT
MDEUH7228394201707                D89828070200PV4U20170717000030SPEAKER ASM                   M IMCTM S0FR05 FTTL  07070IMCT  S0 PTB  00005                    0900 SR        000000000000 FUJITSU TEN (THAILAN18021TU0024024                                                                                                                              *          20170712WMF1707123.TXT
MDEUH7228395201707                D89828070200PV4U20170717000030SPEAKER ASM                   M IMCTM S0FR05 FTTL  07070IMCT  S0 PTB  00005                    1300 SR        000000000000 FUJITSU TEN (THAILAN170C16U0290290                                                                                                                              *          20170712WMF1707123.TXT
MDEUH7228396201707                D89828070200PV4U20170717000030SPEAKER ASM                   M IMCTM S0FR05 FTTL  07070IMCT  S0 PTB  00005                    2100 SR        000000000000 FUJITSU TEN (THAILAN18020TU0006006                                                                                                                              *          20170712WMF1707123.TXT
MDEUH7228397201707                D89828070300PT4U20170716000030SPEAKER ASM                   M IMCTM S9TS02 FTTL  07070IMCT  S9 PTB  00015                    0230 SR        000000000000 FUJITSU TEN (THAILAN170C16U0289289                                                                                                                              *          20170712WMF1707123.TXT
MDEUH7228398201707                D89828070300PT4U20170716000030SPEAKER ASM                   M IMCTM S9TS02 FTTL  07070IMCT  S9 PTB  00015                    0400 SR        000000000000 FUJITSU TEN (THAILAN18021TU0023023                                                                                                                              *          20170712WMF1707123.TXT
MDEUH7228399201707                D89828070300PT4U20170717000030SPEAKER ASM                   M IMCTM S9TS02 FTTL  07070IMCT  S9 PTB  00015                    0900 SR        000000000000 FUJITSU TEN (THAILAN18021TU0024024                                                                                                                              *          20170712WMF1707123.TXT
MDEUH7228400201707                D89828070300PT4U20170717000030SPEAKER ASM                   M IMCTM S9TS02 FTTL  07070IMCT  S9 PTB  00015                    1300 SR        000000000000 FUJITSU TEN (THAILAN170C16U0290290                                                                                                                              *          20170712WMF1707123.TXT
MDEUH7228401201707                D89828070300PT4U20170717000030SPEAKER ASM                   M IMCTM S9TS02 FTTL  07070IMCT  S9 PTB  00015                    2100 SR        000000000000 FUJITSU TEN (THAILAN18020TU0006006                                                                                                                              *          20170712WMF1707123.TXT
MDEUH7228402201707                D89848584700PT4U20170716000015RADIO;AM/FM CD D              M IMCTM S9CO001FTTL  07070IMCT  S9 PTB  00003                    0400 SR        000000000000 FUJITSU TEN (THAILAN18021TU0023023                                                                                                                              *          20170712WMF1707123.TXT
MDEUH7228403201707                D89848584700PT4U20170717000015RADIO;AM/FM CD D              M IMCTM S9CO001FTTL  07070IMCT  S9 PTB  00003                    0900 SR        000000000000 FUJITSU TEN (THAILAN18021TU0024024                                                                                                                              *          20170712WMF1707123.TXT
