REC2017071120170711ISUZU                              57     
MDDDH7226578201707                D89821984430PT1D20170715000030RADIO;AM/FM,CD                M IMCTM S5NC06 FTTL  07070IMCT  S5 PTB  00005                    0230 SR        000000000000 FUJITSU TEN (THAILAN170KNEL0130130                                                                                                                              *          20170711WMF1707114.TXT
MDDDH7226579201707                D89821984430PT1D20170715000030RADIO;AM/FM,CD                M IMCTM S5NC06 FTTL  07070IMCT  S5 PTB  00005                    0400 SR        000000000000 FUJITSU TEN (THAILAN170KPAL0133133                                                                                                                              *          20170711WMF1707114.TXT
MDDDH7226580201707                D89821984430PT1D20170715000030RADIO;AM/FM,CD                M IMCTM S5NC06 FTTL  07070IMCT  S5 PTB  00005                    1300 SR        000000000000 FUJITSU TEN (THAILAN170KNFL0053053                                                                                                                              *          20170711WMF1707114.TXT
MDDDH7226581201707                D89821984430PT1D20170715000030RADIO;AM/FM,CD                M IMCTM S5NC06 FTTL  07070IMCT  S5 PTB  00005                    2230 SR        000000000000 FUJITSU TEN (THAILAN170KNDL0144144                                                                                                                              *          20170711WMF1707114.TXT
MDDDH7226582201707                D89828070100PV1D20170715000060SPEAKER ASM                   M IMCTM S5MB11 FTTL  07070IMCT  S5 PTB  00004                    0230 SR        000000000000 FUJITSU TEN (THAILAN170KNEL0130130                                                                                                                              *          20170711WMF1707114.TXT
MDDDH7226583201707                D89828070100PV1D20170715000060SPEAKER ASM                   M IMCTM S5MB11 FTTL  07070IMCT  S5 PTB  00004                    0400 SR        000000000000 FUJITSU TEN (THAILAN170KPAL0133133                                                                                                                              *          20170711WMF1707114.TXT
MDDDH7226584201707                D89828070100PV1D20170715000120SPEAKER ASM                   M IMCTM S5MB11 FTTL  07070IMCT  S5 PTB  00004                    1300 SR        000000000000 FUJITSU TEN (THAILAN170KNFL0053053170KRJL0040040                                                                                                                *          20170711WMF1707114.TXT
MDDDH7226585201707                D89828070100PV1D20170715000060SPEAKER ASM                   M IMCTM S5MB11 FTTL  07070IMCT  S5 PTB  00004                    2230 SR        000000000000 FUJITSU TEN (THAILAN170KNDL0144144                                                                                                                              *          20170711WMF1707114.TXT
MDDDH7226586201707                D89828070200PV1D20170715000060SPEAKER ASM                   M IMCTM S5MA14 FTTL  07070IMCT  S5 PTB  00005                    1300 SR        000000000000 FUJITSU TEN (THAILAN170KRJL0040040                                                                                                                              *          20170711WMF1707114.TXT
MDDDH7226587201707                D89828070300PT1D20170715000060SPEAKER ASM                   M IMCTM S5NB082FTTL  07070IMCT  S5 PTB  00015                    1300 SR        000000000000 FUJITSU TEN (THAILAN170KRJL0040040                                                                                                                              *          20170711WMF1707114.TXT
MDDUH7217292201707                D89828070100PT4U20170714000030SPEAKER ASM                   M IMCTM S0FL05 FTTL  07070IMCT  S0 PTB  00004                    2230 SR        000000000000 FUJITSU TEN (THAILAN180LUDU0205205                                                                                                                              *          20170711WMF1707114.TXT
MDDUH7217293201707                D89828070100PT4U20170715000030SPEAKER ASM                   M IMCTM S0FL05 FTTL  07070IMCT  S0 PTB  00004                    0900 SR        000000000000 FUJITSU TEN (THAILAN180LUDU0206206                                                                                                                              *          20170711WMF1707114.TXT
MDDUH7217294201707                D89828070100PT4U20170715000030SPEAKER ASM                   M IMCTM S0FL05 FTTL  07070IMCT  S0 PTB  00004                    1300 SR        000000000000 FUJITSU TEN (THAILAN180LUCU0061061                                                                                                                              *          20170711WMF1707114.TXT
MDDUH7217295201707                D89828070100PT4U20170715000030SPEAKER ASM                   M IMCTM S0FL05 FTTL  07070IMCT  S0 PTB  00004                    1600 SR        000000000000 FUJITSU TEN (THAILAN180LUDU0207207                                                                                                                              *          20170711WMF1707114.TXT
MDDUH7217296201707                D89828070200PV4U20170714000030SPEAKER ASM                   M IMCTM S0FR05 FTTL  07070IMCT  S0 PTB  00005                    2230 SR        000000000000 FUJITSU TEN (THAILAN180LUDU0205205                                                                                                                              *          20170711WMF1707114.TXT
MDDUH7217297201707                D89828070200PV4U20170715000030SPEAKER ASM                   M IMCTM S0FR05 FTTL  07070IMCT  S0 PTB  00005                    0900 SR        000000000000 FUJITSU TEN (THAILAN180LUDU0206206                                                                                                                              *          20170711WMF1707114.TXT
MDDUH7217298201707                D89828070200PV4U20170715000030SPEAKER ASM                   M IMCTM S0FR05 FTTL  07070IMCT  S0 PTB  00005                    1300 SR        000000000000 FUJITSU TEN (THAILAN180LUCU0061061                                                                                                                              *          20170711WMF1707114.TXT
MDDUH7217299201707                D89828070200PV4U20170715000030SPEAKER ASM                   M IMCTM S0FR05 FTTL  07070IMCT  S0 PTB  00005                    1600 SR        000000000000 FUJITSU TEN (THAILAN180LUDU0207207                                                                                                                              *          20170711WMF1707114.TXT
MDDUH7217300201707                D89828070300PT4U20170714000030SPEAKER ASM                   M IMCTM S9TS02 FTTL  07070IMCT  S9 PTB  00015                    2230 SR        000000000000 FUJITSU TEN (THAILAN180LUDU0205205                                                                                                                              *          20170711WMF1707114.TXT
MDDUH7217301201707                D89828070300PT4U20170715000030SPEAKER ASM                   M IMCTM S9TS02 FTTL  07070IMCT  S9 PTB  00015                    0900 SR        000000000000 FUJITSU TEN (THAILAN180LUDU0206206                                                                                                                              *          20170711WMF1707114.TXT
MDDUH7217302201707                D89828070300PT4U20170715000030SPEAKER ASM                   M IMCTM S9TS02 FTTL  07070IMCT  S9 PTB  00015                    1300 SR        000000000000 FUJITSU TEN (THAILAN180LUCU0061061                                                                                                                              *          20170711WMF1707114.TXT
MDDUH7217303201707                D89828070300PT4U20170715000030SPEAKER ASM                   M IMCTM S9TS02 FTTL  07070IMCT  S9 PTB  00015                    1600 SR        000000000000 FUJITSU TEN (THAILAN180LUDU0207207                                                                                                                              *          20170711WMF1707114.TXT
MDDUH7217304201707                D89835097910PT4U20170715000015RADIO;ASM DVD                 M IMCTM S9TS01 FTTL  07070IMCT  S9 PTB  00003                    1300 SR        000000000000 FUJITSU TEN (THAILAN180LUCU0061061                                                                                                                              *          20170711WMF1707114.TXT
MDEDH7233784201707                D89828070100PV1D20170714000060SPEAKER ASM                   M IMCTM S5MB11 FTTL  07070IMCT  S5 PTB  00004                    2230 SR        000000000000 FUJITSU TEN (THAILAN17023NL001501517052TL0013013                                                                                                                *          20170711WMF1707114.TXT
MDEDH7233785201707                D89828070100PV1D20170715000030SPEAKER ASM                   M IMCTM S5MB11 FTTL  07070IMCT  S5 PTB  00004                    0230 SR        000000000000 FUJITSU TEN (THAILAN17074NL0061061                                                                                                                              *          20170711WMF1707114.TXT
MDEDH7233786201707                D89828070100PV1D20170715000030SPEAKER ASM                   M IMCTM S5MB11 FTTL  07070IMCT  S5 PTB  00004                    0400 SR        000000000000 FUJITSU TEN (THAILAN17074NL0062062                                                                                                                              *          20170711WMF1707114.TXT
MDEDH7233787201707                D89828070100PV1D20170715000060SPEAKER ASM                   M IMCTM S5MB11 FTTL  07070IMCT  S5 PTB  00004                    0900 SR        000000000000 FUJITSU TEN (THAILAN17058NL002702717063NL0023023                                                                                                                *          20170711WMF1707114.TXT
MDEDH7233788201707                D89828070100PV1D20170715000060SPEAKER ASM                   M IMCTM S5MB11 FTTL  07070IMCT  S5 PTB  00004                    1300 SR        000000000000 FUJITSU TEN (THAILAN17051TL001101117060NL0028028                                                                                                                *          20170711WMF1707114.TXT
MDEDH7233789201707                D89828070100PV1D20170715000060SPEAKER ASM                   M IMCTM S5MB11 FTTL  07070IMCT  S5 PTB  00004                    2100 SR        000000000000 FUJITSU TEN (THAILAN17004ML001001017066NL0033033                                                                                                                *          20170711WMF1707114.TXT
MDEDH7233790201707                D89828070100PV4D20170715000030SPEAKER ASM                   M IMCTM S0FL05 FTTL  07070IMCT  S0 PTB  00004                    1300 SR        000000000000 FUJITSU TEN (THAILAN17052TU0009009                                                                                                                              *          20170711WMF1707114.TXT
MDEDH7233791201707                D89828070200PV1D20170714000030SPEAKER ASM                   M IMCTM S5MA14 FTTL  07070IMCT  S5 PTB  00005                    2230 SR        000000000000 FUJITSU TEN (THAILAN17023NL0015015                                                                                                                              *          20170711WMF1707114.TXT
MDEDH7233792201707                D89828070200PV1D20170715000030SPEAKER ASM                   M IMCTM S5MA14 FTTL  07070IMCT  S5 PTB  00005                    0230 SR        000000000000 FUJITSU TEN (THAILAN17074NL0061061                                                                                                                              *          20170711WMF1707114.TXT
MDEDH7233793201707                D89828070200PV1D20170715000030SPEAKER ASM                   M IMCTM S5MA14 FTTL  07070IMCT  S5 PTB  00005                    0400 SR        000000000000 FUJITSU TEN (THAILAN17074NL0062062                                                                                                                              *          20170711WMF1707114.TXT
MDEDH7233794201707                D89828070200PV1D20170715000030SPEAKER ASM                   M IMCTM S5MA14 FTTL  07070IMCT  S5 PTB  00005                    0900 SR        000000000000 FUJITSU TEN (THAILAN17058NL0027027                                                                                                                              *          20170711WMF1707114.TXT
MDEDH7233795201707                D89828070200PV1D20170715000030SPEAKER ASM                   M IMCTM S5MA14 FTTL  07070IMCT  S5 PTB  00005                    1300 SR        000000000000 FUJITSU TEN (THAILAN17060NL0028028                                                                                                                              *          20170711WMF1707114.TXT
MDEDH7233796201707                D89828070300PT1D20170714000030SPEAKER ASM                   M IMCTM S5NB082FTTL  07070IMCT  S5 PTB  00015                    2230 SR        000000000000 FUJITSU TEN (THAILAN17023NL0015015                                                                                                                              *          20170711WMF1707114.TXT
MDEDH7233797201707                D89828070300PT1D20170715000030SPEAKER ASM                   M IMCTM S5NB082FTTL  07070IMCT  S5 PTB  00015                    0230 SR        000000000000 FUJITSU TEN (THAILAN17074NL0061061                                                                                                                              *          20170711WMF1707114.TXT
MDEDH7233798201707                D89828070300PT1D20170715000030SPEAKER ASM                   M IMCTM S5NB082FTTL  07070IMCT  S5 PTB  00015                    0400 SR        000000000000 FUJITSU TEN (THAILAN17074NL0062062                                                                                                                              *          20170711WMF1707114.TXT
MDEDH7233799201707                D89828070300PT1D20170715000060SPEAKER ASM                   M IMCTM S5NB082FTTL  07070IMCT  S5 PTB  00015                    0900 SR        000000000000 FUJITSU TEN (THAILAN17058NL002702717063NL0023023                                                                                                                *          20170711WMF1707114.TXT
MDEDH7233800201707                D89828070300PT1D20170715000030SPEAKER ASM                   M IMCTM S5NB082FTTL  07070IMCT  S5 PTB  00015                    1300 SR        000000000000 FUJITSU TEN (THAILAN17060NL0028028                                                                                                                              *          20170711WMF1707114.TXT
MDEDH7233801201707                D89828070300PT1D20170715000030SPEAKER ASM                   M IMCTM S5NB082FTTL  07070IMCT  S5 PTB  00015                    2100 SR        000000000000 FUJITSU TEN (THAILAN17066NL0033033                                                                                                                              *          20170711WMF1707114.TXT
MDEDH7233802201707                D89848581800PT1D20170715000015RADIO;AM/FM CD D              M IMCTM S5NC06 FTTL  07070IMCT  S5 PTB  00003                    0230 SR        000000000000 FUJITSU TEN (THAILAN17074NL0061061                                                                                                                              *          20170711WMF1707114.TXT
MDEDH7233803201707                D89848581800PT1D20170715000015RADIO;AM/FM CD D              M IMCTM S5NC06 FTTL  07070IMCT  S5 PTB  00003                    0400 SR        000000000000 FUJITSU TEN (THAILAN17074NL0062062                                                                                                                              *          20170711WMF1707114.TXT
MDEDH7233804201707                D89848581800PT1D20170715000030RADIO;AM/FM CD D              M IMCTM S5NC06 FTTL  07070IMCT  S5 PTB  00003                    0900 SR        000000000000 FUJITSU TEN (THAILAN17058NL002702717063NL0023023                                                                                                                *          20170711WMF1707114.TXT
MDEDH7233805201707                D89848582500PT1D20170715000015RADIO;AM/FM CD D              M IMCTM S5NC06 FTTL  07070IMCT  S5 PTB  00003                    2100 SR        000000000000 FUJITSU TEN (THAILAN17066NL0033033                                                                                                                              *          20170711WMF1707114.TXT
MDEUH7224778201707                D89828070100PT4U20170715000030SPEAKER ASM                   M IMCTM S0FL05 FTTL  07070IMCT  S0 PTB  00004                    0230 SR        000000000000 FUJITSU TEN (THAILAN18023TU0118118                                                                                                                              *          20170711WMF1707114.TXT
MDEUH7224779201707                D89828070100PT4U20170715000060SPEAKER ASM                   M IMCTM S0FL05 FTTL  07070IMCT  S0 PTB  00004                    0400 SR        000000000000 FUJITSU TEN (THAILAN170C16U028728718022TU0053053                                                                                                                *          20170711WMF1707114.TXT
MDEUH7224780201707                D89828070100PT4U20170715000030SPEAKER ASM                   M IMCTM S0FL05 FTTL  07070IMCT  S0 PTB  00004                    0900 SR        000000000000 FUJITSU TEN (THAILAN170C16U0288288                                                                                                                              *          20170711WMF1707114.TXT
MDEUH7224781201707                D89828070100PT4U20170715000030SPEAKER ASM                   M IMCTM S0FL05 FTTL  07070IMCT  S0 PTB  00004                    2100 SR        000000000000 FUJITSU TEN (THAILAN18022TU0054054                                                                                                                              *          20170711WMF1707114.TXT
MDEUH7224782201707                D89828070200PV4U20170715000030SPEAKER ASM                   M IMCTM S0FR05 FTTL  07070IMCT  S0 PTB  00005                    0230 SR        000000000000 FUJITSU TEN (THAILAN18023TU0118118                                                                                                                              *          20170711WMF1707114.TXT
MDEUH7224783201707                D89828070200PV4U20170715000060SPEAKER ASM                   M IMCTM S0FR05 FTTL  07070IMCT  S0 PTB  00005                    0400 SR        000000000000 FUJITSU TEN (THAILAN170C16U028728718022TU0053053                                                                                                                *          20170711WMF1707114.TXT
MDEUH7224784201707                D89828070200PV4U20170715000030SPEAKER ASM                   M IMCTM S0FR05 FTTL  07070IMCT  S0 PTB  00005                    0900 SR        000000000000 FUJITSU TEN (THAILAN170C16U0288288                                                                                                                              *          20170711WMF1707114.TXT
MDEUH7224785201707                D89828070200PV4U20170715000030SPEAKER ASM                   M IMCTM S0FR05 FTTL  07070IMCT  S0 PTB  00005                    2100 SR        000000000000 FUJITSU TEN (THAILAN18022TU0054054                                                                                                                              *          20170711WMF1707114.TXT
MDEUH7224786201707                D89828070300PT4U20170715000030SPEAKER ASM                   M IMCTM S9TS02 FTTL  07070IMCT  S9 PTB  00015                    0230 SR        000000000000 FUJITSU TEN (THAILAN18023TU0118118                                                                                                                              *          20170711WMF1707114.TXT
MDEUH7224787201707                D89828070300PT4U20170715000060SPEAKER ASM                   M IMCTM S9TS02 FTTL  07070IMCT  S9 PTB  00015                    0400 SR        000000000000 FUJITSU TEN (THAILAN170C16U028728718022TU0053053                                                                                                                *          20170711WMF1707114.TXT
MDEUH7224788201707                D89828070300PT4U20170715000030SPEAKER ASM                   M IMCTM S9TS02 FTTL  07070IMCT  S9 PTB  00015                    0900 SR        000000000000 FUJITSU TEN (THAILAN170C16U0288288                                                                                                                              *          20170711WMF1707114.TXT
MDEUH7224789201707                D89828070300PT4U20170715000030SPEAKER ASM                   M IMCTM S9TS02 FTTL  07070IMCT  S9 PTB  00015                    2100 SR        000000000000 FUJITSU TEN (THAILAN18022TU0054054                                                                                                                              *          20170711WMF1707114.TXT
