REC2017070820170708ISUZU                              57     
MDDDH7222663201707                D89821984430PT1D20170714000030RADIO;AM/FM,CD                M IMCTM S5NC06 FTTL  07070IMCT  S5 PTB  00005                    0230 SR        000000000000 FUJITSU TEN (THAILAN170KPAL0132132                                                                                                                              *          20170708WMF1707083.TXT
MDDDH7222664201707                D89821984430PT1D20170714000060RADIO;AM/FM,CD                M IMCTM S5NC06 FTTL  07070IMCT  S5 PTB  00005                    1300 SR        000000000000 FUJITSU TEN (THAILAN170KNEL0129129170KNFL0052052                                                                                                                *          20170708WMF1707083.TXT
MDDDH7222665201707                D89828070100PV1D20170713000060SPEAKER ASM                   M IMCTM S5MB11 FTTL  07070IMCT  S5 PTB  00004                    2230 SR        000000000000 FUJITSU TEN (THAILAN170KPFL0186186                                                                                                                              *          20170708WMF1707083.TXT
MDDDH7222666201707                D89828070100PV1D20170714000060SPEAKER ASM                   M IMCTM S5MB11 FTTL  07070IMCT  S5 PTB  00004                    0230 SR        000000000000 FUJITSU TEN (THAILAN170KPAL0132132                                                                                                                              *          20170708WMF1707083.TXT
MDDDH7222667201707                D89828070100PV1D20170714000060SPEAKER ASM                   M IMCTM S5MB11 FTTL  07070IMCT  S5 PTB  00004                    0900 SR        000000000000 FUJITSU TEN (THAILAN170KRJL0039039                                                                                                                              *          20170708WMF1707083.TXT
MDDDH7222668201707                D89828070100PV1D20170714000120SPEAKER ASM                   M IMCTM S5MB11 FTTL  07070IMCT  S5 PTB  00004                    1300 SR        000000000000 FUJITSU TEN (THAILAN170KNEL0129129170KNFL0052052                                                                                                                *          20170708WMF1707083.TXT
MDDDH7222669201707                D89828070100PV1D20170714000060SPEAKER ASM                   M IMCTM S5MB11 FTTL  07070IMCT  S5 PTB  00004                    1600 SR        000000000000 FUJITSU TEN (THAILAN170KRHL0037037                                                                                                                              *          20170708WMF1707083.TXT
MDDDH7222670201707                D89828070100PV1D20170714000060SPEAKER ASM                   M IMCTM S5MB11 FTTL  07070IMCT  S5 PTB  00004                    2100 SR        000000000000 FUJITSU TEN (THAILAN170KNBL0036036                                                                                                                              *          20170708WMF1707083.TXT
MDDDH7222671201707                D89828070200PV1D20170714000060SPEAKER ASM                   M IMCTM S5MA14 FTTL  07070IMCT  S5 PTB  00005                    0900 SR        000000000000 FUJITSU TEN (THAILAN170KRJL0039039                                                                                                                              *          20170708WMF1707083.TXT
MDDDH7222672201707                D89828070200PV1D20170714000060SPEAKER ASM                   M IMCTM S5MA14 FTTL  07070IMCT  S5 PTB  00005                    1600 SR        000000000000 FUJITSU TEN (THAILAN170KRHL0037037                                                                                                                              *          20170708WMF1707083.TXT
MDDDH7222673201707                D89828070300PT1D20170713000060SPEAKER ASM                   M IMCTM S5NB082FTTL  07070IMCT  S5 PTB  00015                    2230 SR        000000000000 FUJITSU TEN (THAILAN170KPFL0186186                                                                                                                              *          20170708WMF1707083.TXT
MDDDH7222674201707                D89828070300PT1D20170714000060SPEAKER ASM                   M IMCTM S5NB082FTTL  07070IMCT  S5 PTB  00015                    0900 SR        000000000000 FUJITSU TEN (THAILAN170KRJL0039039                                                                                                                              *          20170708WMF1707083.TXT
MDDDH7222675201707                D89828070300PT1D20170714000060SPEAKER ASM                   M IMCTM S5NB082FTTL  07070IMCT  S5 PTB  00015                    1600 SR        000000000000 FUJITSU TEN (THAILAN170KRHL0037037                                                                                                                              *          20170708WMF1707083.TXT
MDDDH7222676201707                D89831228300PT1D20170713000030RADIO;AM/FM,CD                M IMCTM S5NC06 FTTL  07070IMCT  S5 CPB  00003                    2230 SR        000000000000 FUJITSU TEN (THAILAN170KPFL0186186                                                                                                                              *          20170708WMF1707083.TXT
MDDUH7214238201707                D89828070100PT4U20170713000030SPEAKER ASM                   M IMCTM S0FL05 FTTL  07070IMCT  S0 PTB  00004                    2230 SR        000000000000 FUJITSU TEN (THAILAN180LUEU0117117                                                                                                                              *          20170708WMF1707083.TXT
MDDUH7214239201707                D89828070100PT4U20170714000030SPEAKER ASM                   M IMCTM S0FL05 FTTL  07070IMCT  S0 PTB  00004                    0400 SR        000000000000 FUJITSU TEN (THAILAN180LUDU0203203                                                                                                                              *          20170708WMF1707083.TXT
MDDUH7214240201707                D89828070100PT4U20170714000060SPEAKER ASM                   M IMCTM S0FL05 FTTL  07070IMCT  S0 PTB  00004                    1300 SR        000000000000 FUJITSU TEN (THAILAN180LUDU0204204180LUEU0118118                                                                                                                *          20170708WMF1707083.TXT
MDDUH7214241201707                D89828070200PV4U20170713000030SPEAKER ASM                   M IMCTM S0FR05 FTTL  07070IMCT  S0 PTB  00005                    2230 SR        000000000000 FUJITSU TEN (THAILAN180LUEU0117117                                                                                                                              *          20170708WMF1707083.TXT
MDDUH7214242201707                D89828070200PV4U20170714000030SPEAKER ASM                   M IMCTM S0FR05 FTTL  07070IMCT  S0 PTB  00005                    0400 SR        000000000000 FUJITSU TEN (THAILAN180LUDU0203203                                                                                                                              *          20170708WMF1707083.TXT
MDDUH7214243201707                D89828070200PV4U20170714000060SPEAKER ASM                   M IMCTM S0FR05 FTTL  07070IMCT  S0 PTB  00005                    1300 SR        000000000000 FUJITSU TEN (THAILAN180LUDU0204204180LUEU0118118                                                                                                                *          20170708WMF1707083.TXT
MDDUH7214244201707                D89828070300PT4U20170713000030SPEAKER ASM                   M IMCTM S9TS02 FTTL  07070IMCT  S9 PTB  00015                    2230 SR        000000000000 FUJITSU TEN (THAILAN180LUEU0117117                                                                                                                              *          20170708WMF1707083.TXT
MDDUH7214245201707                D89828070300PT4U20170714000030SPEAKER ASM                   M IMCTM S9TS02 FTTL  07070IMCT  S9 PTB  00015                    0400 SR        000000000000 FUJITSU TEN (THAILAN180LUDU0203203                                                                                                                              *          20170708WMF1707083.TXT
MDDUH7214246201707                D89828070300PT4U20170714000060SPEAKER ASM                   M IMCTM S9TS02 FTTL  07070IMCT  S9 PTB  00015                    1300 SR        000000000000 FUJITSU TEN (THAILAN180LUDU0204204180LUEU0118118                                                                                                                *          20170708WMF1707083.TXT
MDEDH7228121201707                D89828070100PV1D20170714000060SPEAKER ASM                   M IMCTM S5MB11 FTTL  07070IMCT  S5 PTB  00004                    0230 SR        000000000000 FUJITSU TEN (THAILAN17052TL0011012                                                                                                                              *          20170708WMF1707083.TXT
MDEDH7228122201707                D89828070100PV1D20170714000090SPEAKER ASM                   M IMCTM S5MB11 FTTL  07070IMCT  S5 PTB  00004                    0400 SR        000000000000 FUJITSU TEN (THAILAN17053NL003903917073NL0007008                                                                                                                *          20170708WMF1707083.TXT
MDEDH7228123201707                D89828070100PV1D20170714000030SPEAKER ASM                   M IMCTM S5MB11 FTTL  07070IMCT  S5 PTB  00004                    0900 SR        000000000000 FUJITSU TEN (THAILAN17076NL0010010                                                                                                                              *          20170708WMF1707083.TXT
MDEDH7228124201707                D89828070100PV1D20170714000060SPEAKER ASM                   M IMCTM S5MB11 FTTL  07070IMCT  S5 PTB  00004                    1300 SR        000000000000 FUJITSU TEN (THAILAN17057NL0038039                                                                                                                              *          20170708WMF1707083.TXT
MDEDH7228125201707                D89828070100PV1D20170714000060SPEAKER ASM                   M IMCTM S5MB11 FTTL  07070IMCT  S5 PTB  00004                    1600 SR        000000000000 FUJITSU TEN (THAILAN17066NL0031032                                                                                                                              *          20170708WMF1707083.TXT
MDEDH7228126201707                D89828070100PV4D20170714000030SPEAKER ASM                   M IMCTM S0FL05 FTTL  07070IMCT  S0 PTB  00004                    0400 SR        000000000000 FUJITSU TEN (THAILAN17052TU0008008                                                                                                                              *          20170708WMF1707083.TXT
MDEDH7228127201707                D89828070100PV4D20170714000030SPEAKER ASM                   M IMCTM S0FL05 FTTL  07070IMCT  S0 PTB  00004                    2230 SR        000000000000 FUJITSU TEN (THAILAN17055NU0030030                                                                                                                              *          20170708WMF1707083.TXT
MDEDH7228128201707                D89828070200PV1D20170714000060SPEAKER ASM                   M IMCTM S5MA14 FTTL  07070IMCT  S5 PTB  00005                    0400 SR        000000000000 FUJITSU TEN (THAILAN17073NL0007008                                                                                                                              *          20170708WMF1707083.TXT
MDEDH7228129201707                D89828070200PV1D20170714000030SPEAKER ASM                   M IMCTM S5MA14 FTTL  07070IMCT  S5 PTB  00005                    0900 SR        000000000000 FUJITSU TEN (THAILAN17076NL0010010                                                                                                                              *          20170708WMF1707083.TXT
MDEDH7228130201707                D89828070200PV1D20170714000060SPEAKER ASM                   M IMCTM S5MA14 FTTL  07070IMCT  S5 PTB  00005                    1300 SR        000000000000 FUJITSU TEN (THAILAN17057NL0038039                                                                                                                              *          20170708WMF1707083.TXT
MDEDH7228131201707                D89828070300PT1D20170714000090SPEAKER ASM                   M IMCTM S5NB082FTTL  07070IMCT  S5 PTB  00015                    0400 SR        000000000000 FUJITSU TEN (THAILAN17053NL003903917073NL0007008                                                                                                                *          20170708WMF1707083.TXT
MDEDH7228132201707                D89828070300PT1D20170714000030SPEAKER ASM                   M IMCTM S5NB082FTTL  07070IMCT  S5 PTB  00015                    0900 SR        000000000000 FUJITSU TEN (THAILAN17076NL0010010                                                                                                                              *          20170708WMF1707083.TXT
MDEDH7228133201707                D89828070300PT1D20170714000060SPEAKER ASM                   M IMCTM S5NB082FTTL  07070IMCT  S5 PTB  00015                    1300 SR        000000000000 FUJITSU TEN (THAILAN17057NL0038039                                                                                                                              *          20170708WMF1707083.TXT
MDEDH7228134201707                D89828070300PT1D20170714000060SPEAKER ASM                   M IMCTM S5NB082FTTL  07070IMCT  S5 PTB  00015                    1600 SR        000000000000 FUJITSU TEN (THAILAN17066NL0031032                                                                                                                              *          20170708WMF1707083.TXT
MDEDH7228135201707                D89828070300PT4D20170714000030SPEAKER ASM                   M IMCTM S9TS02 FTTL  07070IMCT  S9 PTB  00015                    2230 SR        000000000000 FUJITSU TEN (THAILAN17055NU0030030                                                                                                                              *          20170708WMF1707083.TXT
MDEDH7228136201707                D89848581800PT1D20170714000045RADIO;AM/FM CD D              M IMCTM S5NC06 FTTL  07070IMCT  S5 PTB  00003                    0400 SR        000000000000 FUJITSU TEN (THAILAN17053NL003903917073NL0007008                                                                                                                *          20170708WMF1707083.TXT
MDEDH7228137201707                D89848581800PT1D20170714000030RADIO;AM/FM CD D              M IMCTM S5NC06 FTTL  07070IMCT  S5 PTB  00003                    1300 SR        000000000000 FUJITSU TEN (THAILAN17057NL0038039                                                                                                                              *          20170708WMF1707083.TXT
MDEDH7228138201707                D89848581800PT4D20170714000015RADIO;AM/FM CD D              M IMCTM S9CO001FTTL  07070IMCT  S9 PTB  00003                    2230 SR        000000000000 FUJITSU TEN (THAILAN17055NU0030030                                                                                                                              *          20170708WMF1707083.TXT
MDEDH7228139201707                D89848582500PT1D20170714000030RADIO;AM/FM CD D              M IMCTM S5NC06 FTTL  07070IMCT  S5 PTB  00003                    1600 SR        000000000000 FUJITSU TEN (THAILAN17066NL0031032                                                                                                                              *          20170708WMF1707083.TXT
MDEUH7221150201707                D89828070100PT4U20170713000030SPEAKER ASM                   M IMCTM S0FL05 FTTL  07070IMCT  S0 PTB  00004                    2230 SR        000000000000 FUJITSU TEN (THAILAN170C16U0285285                                                                                                                              *          20170708WMF1707083.TXT
MDEUH7221151201707                D89828070100PT4U20170714000030SPEAKER ASM                   M IMCTM S0FL05 FTTL  07070IMCT  S0 PTB  00004                    0900 SR        000000000000 FUJITSU TEN (THAILAN18023TU0117117                                                                                                                              *          20170708WMF1707083.TXT
MDEUH7221152201707                D89828070100PT4U20170714000030SPEAKER ASM                   M IMCTM S0FL05 FTTL  07070IMCT  S0 PTB  00004                    1300 SR        000000000000 FUJITSU TEN (THAILAN18018TU0029029                                                                                                                              *          20170708WMF1707083.TXT
MDEUH7221153201707                D89828070100PT4U20170714000030SPEAKER ASM                   M IMCTM S0FL05 FTTL  07070IMCT  S0 PTB  00004                    1600 SR        000000000000 FUJITSU TEN (THAILAN18022TU0052052                                                                                                                              *          20170708WMF1707083.TXT
MDEUH7221154201707                D89828070100PT4U20170714000030SPEAKER ASM                   M IMCTM S0FL05 FTTL  07070IMCT  S0 PTB  00004                    2100 SR        000000000000 FUJITSU TEN (THAILAN170C16U0286286                                                                                                                              *          20170708WMF1707083.TXT
MDEUH7221155201707                D89828070200PV4U20170713000030SPEAKER ASM                   M IMCTM S0FR05 FTTL  07070IMCT  S0 PTB  00005                    2230 SR        000000000000 FUJITSU TEN (THAILAN170C16U0285285                                                                                                                              *          20170708WMF1707083.TXT
MDEUH7221156201707                D89828070200PV4U20170714000030SPEAKER ASM                   M IMCTM S0FR05 FTTL  07070IMCT  S0 PTB  00005                    0900 SR        000000000000 FUJITSU TEN (THAILAN18023TU0117117                                                                                                                              *          20170708WMF1707083.TXT
MDEUH7221157201707                D89828070200PV4U20170714000030SPEAKER ASM                   M IMCTM S0FR05 FTTL  07070IMCT  S0 PTB  00005                    1300 SR        000000000000 FUJITSU TEN (THAILAN18018TU0029029                                                                                                                              *          20170708WMF1707083.TXT
MDEUH7221158201707                D89828070200PV4U20170714000030SPEAKER ASM                   M IMCTM S0FR05 FTTL  07070IMCT  S0 PTB  00005                    1600 SR        000000000000 FUJITSU TEN (THAILAN18022TU0052052                                                                                                                              *          20170708WMF1707083.TXT
MDEUH7221159201707                D89828070200PV4U20170714000030SPEAKER ASM                   M IMCTM S0FR05 FTTL  07070IMCT  S0 PTB  00005                    2100 SR        000000000000 FUJITSU TEN (THAILAN170C16U0286286                                                                                                                              *          20170708WMF1707083.TXT
MDEUH7221160201707                D89828070300PT4U20170713000030SPEAKER ASM                   M IMCTM S9TS02 FTTL  07070IMCT  S9 PTB  00015                    2230 SR        000000000000 FUJITSU TEN (THAILAN170C16U0285285                                                                                                                              *          20170708WMF1707083.TXT
MDEUH7221161201707                D89828070300PT4U20170714000030SPEAKER ASM                   M IMCTM S9TS02 FTTL  07070IMCT  S9 PTB  00015                    0900 SR        000000000000 FUJITSU TEN (THAILAN18023TU0117117                                                                                                                              *          20170708WMF1707083.TXT
MDEUH7221162201707                D89828070300PT4U20170714000030SPEAKER ASM                   M IMCTM S9TS02 FTTL  07070IMCT  S9 PTB  00015                    1300 SR        000000000000 FUJITSU TEN (THAILAN18018TU0029029                                                                                                                              *          20170708WMF1707083.TXT
MDEUH7221163201707                D89828070300PT4U20170714000030SPEAKER ASM                   M IMCTM S9TS02 FTTL  07070IMCT  S9 PTB  00015                    1600 SR        000000000000 FUJITSU TEN (THAILAN18022TU0052052                                                                                                                              *          20170708WMF1707083.TXT
MDEUH7221164201707                D89828070300PT4U20170714000030SPEAKER ASM                   M IMCTM S9TS02 FTTL  07070IMCT  S9 PTB  00015                    2100 SR        000000000000 FUJITSU TEN (THAILAN170C16U0286286                                                                                                                              *          20170708WMF1707083.TXT
