REC2017070320170703ISUZU                              53     
MDDDH7200645201707                D89821984430PT1D20170707000030RADIO;AM/FM,CD                M IMCTM S5NC06 FTTL  07070IMCT  S5 PTB  00005                    0400 SR        000000000000 FUJITSU TEN (THAILAN170KNDL0136136                                                                                                                              *          20170703WMF1707033.TXT
MDDDH7200646201707                D89821984430PT1D20170707000060RADIO;AM/FM,CD                M IMCTM S5NC06 FTTL  07070IMCT  S5 PTB  00005                    0900 SR        000000000000 FUJITSU TEN (THAILAN170KPAL0126126170KRAL0103103                                                                                                                *          20170703WMF1707033.TXT
MDDDH7200647201707                D89821984430PT1D20170707000030RADIO;AM/FM,CD                M IMCTM S5NC06 FTTL  07070IMCT  S5 PTB  00005                    2100 SR        000000000000 FUJITSU TEN (THAILAN170KNCL0091091                                                                                                                              *          20170703WMF1707033.TXT
MDDDH7200648201707                D89828070100PV1D20170707000060SPEAKER ASM                   M IMCTM S5MB11 FTTL  07070IMCT  S5 PTB  00004                    0230 SR        000000000000 FUJITSU TEN (THAILAN170KREL0039039                                                                                                                              *          20170703WMF1707033.TXT
MDDDH7200649201707                D89828070100PV1D20170707000060SPEAKER ASM                   M IMCTM S5MB11 FTTL  07070IMCT  S5 PTB  00004                    0400 SR        000000000000 FUJITSU TEN (THAILAN170KNDL0136136                                                                                                                              *          20170703WMF1707033.TXT
MDDDH7200650201707                D89828070100PV1D20170707000120SPEAKER ASM                   M IMCTM S5MB11 FTTL  07070IMCT  S5 PTB  00004                    0900 SR        000000000000 FUJITSU TEN (THAILAN170KPAL0126126170KRAL0103103                                                                                                                *          20170703WMF1707033.TXT
MDDDH7200651201707                D89828070100PV1D20170707000060SPEAKER ASM                   M IMCTM S5MB11 FTTL  07070IMCT  S5 PTB  00004                    1300 SR        000000000000 FUJITSU TEN (THAILAN170KPCL0071071                                                                                                                              *          20170703WMF1707033.TXT
MDDDH7200652201707                D89828070100PV1D20170707000060SPEAKER ASM                   M IMCTM S5MB11 FTTL  07070IMCT  S5 PTB  00004                    2100 SR        000000000000 FUJITSU TEN (THAILAN170KNCL0091091                                                                                                                              *          20170703WMF1707033.TXT
MDDDH7200653201707                D89828070200PV1D20170707000060SPEAKER ASM                   M IMCTM S5MA14 FTTL  07070IMCT  S5 PTB  00005                    0230 SR        000000000000 FUJITSU TEN (THAILAN170KREL0039039                                                                                                                              *          20170703WMF1707033.TXT
MDDDH7200654201707                D89828070300PT1D20170707000060SPEAKER ASM                   M IMCTM S5NB082FTTL  07070IMCT  S5 PTB  00015                    0230 SR        000000000000 FUJITSU TEN (THAILAN170KREL0039039                                                                                                                              *          20170703WMF1707033.TXT
MDDDH7200655201707                D89828070300PT1D20170707000060SPEAKER ASM                   M IMCTM S5NB082FTTL  07070IMCT  S5 PTB  00015                    1300 SR        000000000000 FUJITSU TEN (THAILAN170KPCL0071071                                                                                                                              *          20170703WMF1707033.TXT
MDDDH7200656201707                D89831228300PT1D20170707000030RADIO;AM/FM,CD                M IMCTM S5NC06 FTTL  07070IMCT  S5 CPB  00003                    1300 SR        000000000000 FUJITSU TEN (THAILAN170KPCL0071071                                                                                                                              *          20170703WMF1707033.TXT
MDDDH7200657201707                D89831228400PT1D20170707000030RADIO;AM/FM,CD                M IMCTM S5NC06 FTTL  07070IMCT  S5 CPB  00003                    0230 SR        000000000000 FUJITSU TEN (THAILAN170KREL0039039                                                                                                                              *          20170703WMF1707033.TXT
MDDUH7200313201707                D89828070100PT4U20170707000030SPEAKER ASM                   M IMCTM S0FL05 FTTL  07070IMCT  S0 PTB  00004                    0400 SR        000000000000 FUJITSU TEN (THAILAN180LUDU0190190                                                                                                                              *          20170703WMF1707033.TXT
MDDUH7200314201707                D89828070100PT4U20170707000030SPEAKER ASM                   M IMCTM S0FL05 FTTL  07070IMCT  S0 PTB  00004                    0900 SR        000000000000 FUJITSU TEN (THAILAN180LUDU0191191                                                                                                                              *          20170703WMF1707033.TXT
MDDUH7200315201707                D89828070200PV4U20170707000030SPEAKER ASM                   M IMCTM S0FR05 FTTL  07070IMCT  S0 PTB  00005                    0400 SR        000000000000 FUJITSU TEN (THAILAN180LUDU0190190                                                                                                                              *          20170703WMF1707033.TXT
MDDUH7200316201707                D89828070200PV4U20170707000030SPEAKER ASM                   M IMCTM S0FR05 FTTL  07070IMCT  S0 PTB  00005                    0900 SR        000000000000 FUJITSU TEN (THAILAN180LUDU0191191                                                                                                                              *          20170703WMF1707033.TXT
MDDUH7200317201707                D89828070300PT4U20170707000030SPEAKER ASM                   M IMCTM S9TS02 FTTL  07070IMCT  S9 PTB  00015                    0400 SR        000000000000 FUJITSU TEN (THAILAN180LUDU0190190                                                                                                                              *          20170703WMF1707033.TXT
MDDUH7200318201707                D89828070300PT4U20170707000030SPEAKER ASM                   M IMCTM S9TS02 FTTL  07070IMCT  S9 PTB  00015                    0900 SR        000000000000 FUJITSU TEN (THAILAN180LUDU0191191                                                                                                                              *          20170703WMF1707033.TXT
MDEDH7201316201707                D89828070100PV1D20170706000120SPEAKER ASM                   M IMCTM S5MB11 FTTL  07070IMCT  S5 PTB  00004                    2230 SR        000000000000 FUJITSU TEN (THAILAN17051TL000600717072NL0039040                                                                                                                *          20170703WMF1707033.TXT
MDEDH7201317201707                D89828070100PV1D20170707000060SPEAKER ASM                   M IMCTM S5MB11 FTTL  07070IMCT  S5 PTB  00004                    0400 SR        000000000000 FUJITSU TEN (THAILAN17041PL0034035                                                                                                                              *          20170703WMF1707033.TXT
MDEDH7201318201707                D89828070100PV1D20170707000060SPEAKER ASM                   M IMCTM S5MB11 FTTL  07070IMCT  S5 PTB  00004                    1300 SR        000000000000 FUJITSU TEN (THAILAN17038RL000100117053NL0036036                                                                                                                *          20170703WMF1707033.TXT
MDEDH7201319201707                D89828070100PV1D20170707000060SPEAKER ASM                   M IMCTM S5MB11 FTTL  07070IMCT  S5 PTB  00004                    1600 SR        000000000000 FUJITSU TEN (THAILAN17074NL0054055                                                                                                                              *          20170703WMF1707033.TXT
MDEDH7201320201707                D89828070100PV4D20170707000030SPEAKER ASM                   M IMCTM S0FL05 FTTL  07070IMCT  S0 PTB  00004                    2230 SR        000000000000 FUJITSU TEN (THAILAN17080NU0039039                                                                                                                              *          20170703WMF1707033.TXT
MDEDH7201321201707                D89828070200PV1D20170706000060SPEAKER ASM                   M IMCTM S5MA14 FTTL  07070IMCT  S5 PTB  00005                    2230 SR        000000000000 FUJITSU TEN (THAILAN17072NL0039040                                                                                                                              *          20170703WMF1707033.TXT
MDEDH7201322201707                D89828070200PV1D20170707000030SPEAKER ASM                   M IMCTM S5MA14 FTTL  07070IMCT  S5 PTB  00005                    1300 SR        000000000000 FUJITSU TEN (THAILAN17038RL0001001                                                                                                                              *          20170703WMF1707033.TXT
MDEDH7201323201707                D89828070200PV1D20170707000060SPEAKER ASM                   M IMCTM S5MA14 FTTL  07070IMCT  S5 PTB  00005                    1600 SR        000000000000 FUJITSU TEN (THAILAN17074NL0054055                                                                                                                              *          20170703WMF1707033.TXT
MDEDH7201324201707                D89828070200PV4D20170707000030SPEAKER ASM                   M IMCTM S0FR05 FTTL  07070IMCT  S0 PTB  00005                    2230 SR        000000000000 FUJITSU TEN (THAILAN17080NU0039039                                                                                                                              *          20170703WMF1707033.TXT
MDEDH7201325201707                D89828070300PT1D20170706000060SPEAKER ASM                   M IMCTM S5NB082FTTL  07070IMCT  S5 PTB  00015                    2230 SR        000000000000 FUJITSU TEN (THAILAN17072NL0039040                                                                                                                              *          20170703WMF1707033.TXT
MDEDH7201326201707                D89828070300PT1D20170707000060SPEAKER ASM                   M IMCTM S5NB082FTTL  07070IMCT  S5 PTB  00015                    1300 SR        000000000000 FUJITSU TEN (THAILAN17038RL000100117053NL0036036                                                                                                                *          20170703WMF1707033.TXT
MDEDH7201327201707                D89828070300PT1D20170707000060SPEAKER ASM                   M IMCTM S5NB082FTTL  07070IMCT  S5 PTB  00015                    1600 SR        000000000000 FUJITSU TEN (THAILAN17074NL0054055                                                                                                                              *          20170703WMF1707033.TXT
MDEDH7201328201707                D89828070300PT4D20170707000030SPEAKER ASM                   M IMCTM S9TS02 FTTL  07070IMCT  S9 PTB  00015                    2230 SR        000000000000 FUJITSU TEN (THAILAN17080NU0039039                                                                                                                              *          20170703WMF1707033.TXT
MDEDH7201329201707                D89848581800PT1D20170706000030RADIO;AM/FM CD D              M IMCTM S5NC06 FTTL  07070IMCT  S5 PTB  00003                    2230 SR        000000000000 FUJITSU TEN (THAILAN17072NL0039040                                                                                                                              *          20170703WMF1707033.TXT
MDEDH7201330201707                D89848581800PT1D20170707000015RADIO;AM/FM CD D              M IMCTM S5NC06 FTTL  07070IMCT  S5 PTB  00003                    1300 SR        000000000000 FUJITSU TEN (THAILAN17053NL0036036                                                                                                                              *          20170703WMF1707033.TXT
MDEDH7201331201707                D89848581800PT1D20170707000030RADIO;AM/FM CD D              M IMCTM S5NC06 FTTL  07070IMCT  S5 PTB  00003                    1600 SR        000000000000 FUJITSU TEN (THAILAN17074NL0054055                                                                                                                              *          20170703WMF1707033.TXT
MDEUH7200793201707                D89828070100PT4U20170706000030SPEAKER ASM                   M IMCTM S0FL05 FTTL  07070IMCT  S0 PTB  00004                    2230 SR        000000000000 FUJITSU TEN (THAILAN18018TU0028028                                                                                                                              *          20170703WMF1707033.TXT
MDEUH7200794201707                D89828070100PT4U20170707000030SPEAKER ASM                   M IMCTM S0FL05 FTTL  07070IMCT  S0 PTB  00004                    0230 SR        000000000000 FUJITSU TEN (THAILAN170C16U0273273                                                                                                                              *          20170703WMF1707033.TXT
MDEUH7200795201707                D89828070100PT4U20170707000030SPEAKER ASM                   M IMCTM S0FL05 FTTL  07070IMCT  S0 PTB  00004                    0400 SR        000000000000 FUJITSU TEN (THAILAN18024TU0015015                                                                                                                              *          20170703WMF1707033.TXT
MDEUH7200796201707                D89828070100PT4U20170707000060SPEAKER ASM                   M IMCTM S0FL05 FTTL  07070IMCT  S0 PTB  00004                    1300 SR        000000000000 FUJITSU TEN (THAILAN170C16U027427418022TU0043043                                                                                                                *          20170703WMF1707033.TXT
MDEUH7200797201707                D89828070100PT4U20170707000030SPEAKER ASM                   M IMCTM S0FL05 FTTL  07070IMCT  S0 PTB  00004                    1600 SR        000000000000 FUJITSU TEN (THAILAN18022TU0044044                                                                                                                              *          20170703WMF1707033.TXT
MDEUH7200798201707                D89828070100PT4U20170707000030SPEAKER ASM                   M IMCTM S0FL05 FTTL  07070IMCT  S0 PTB  00004                    2100 SR        000000000000 FUJITSU TEN (THAILAN170C16U0275275                                                                                                                              *          20170703WMF1707033.TXT
MDEUH7200799201707                D89828070200PV4U20170706000030SPEAKER ASM                   M IMCTM S0FR05 FTTL  07070IMCT  S0 PTB  00005                    2230 SR        000000000000 FUJITSU TEN (THAILAN18018TU0028028                                                                                                                              *          20170703WMF1707033.TXT
MDEUH7200800201707                D89828070200PV4U20170707000030SPEAKER ASM                   M IMCTM S0FR05 FTTL  07070IMCT  S0 PTB  00005                    0230 SR        000000000000 FUJITSU TEN (THAILAN170C16U0273273                                                                                                                              *          20170703WMF1707033.TXT
MDEUH7200801201707                D89828070200PV4U20170707000030SPEAKER ASM                   M IMCTM S0FR05 FTTL  07070IMCT  S0 PTB  00005                    0400 SR        000000000000 FUJITSU TEN (THAILAN18024TU0015015                                                                                                                              *          20170703WMF1707033.TXT
MDEUH7200802201707                D89828070200PV4U20170707000060SPEAKER ASM                   M IMCTM S0FR05 FTTL  07070IMCT  S0 PTB  00005                    1300 SR        000000000000 FUJITSU TEN (THAILAN170C16U027427418022TU0043043                                                                                                                *          20170703WMF1707033.TXT
MDEUH7200803201707                D89828070200PV4U20170707000030SPEAKER ASM                   M IMCTM S0FR05 FTTL  07070IMCT  S0 PTB  00005                    1600 SR        000000000000 FUJITSU TEN (THAILAN18022TU0044044                                                                                                                              *          20170703WMF1707033.TXT
MDEUH7200804201707                D89828070200PV4U20170707000030SPEAKER ASM                   M IMCTM S0FR05 FTTL  07070IMCT  S0 PTB  00005                    2100 SR        000000000000 FUJITSU TEN (THAILAN170C16U0275275                                                                                                                              *          20170703WMF1707033.TXT
MDEUH7200805201707                D89828070300PT4U20170706000030SPEAKER ASM                   M IMCTM S9TS02 FTTL  07070IMCT  S9 PTB  00015                    2230 SR        000000000000 FUJITSU TEN (THAILAN18018TU0028028                                                                                                                              *          20170703WMF1707033.TXT
MDEUH7200806201707                D89828070300PT4U20170707000030SPEAKER ASM                   M IMCTM S9TS02 FTTL  07070IMCT  S9 PTB  00015                    0230 SR        000000000000 FUJITSU TEN (THAILAN170C16U0273273                                                                                                                              *          20170703WMF1707033.TXT
MDEUH7200807201707                D89828070300PT4U20170707000030SPEAKER ASM                   M IMCTM S9TS02 FTTL  07070IMCT  S9 PTB  00015                    0400 SR        000000000000 FUJITSU TEN (THAILAN18024TU0015015                                                                                                                              *          20170703WMF1707033.TXT
MDEUH7200808201707                D89828070300PT4U20170707000060SPEAKER ASM                   M IMCTM S9TS02 FTTL  07070IMCT  S9 PTB  00015                    1300 SR        000000000000 FUJITSU TEN (THAILAN170C16U027427418022TU0043043                                                                                                                *          20170703WMF1707033.TXT
MDEUH7200809201707                D89828070300PT4U20170707000030SPEAKER ASM                   M IMCTM S9TS02 FTTL  07070IMCT  S9 PTB  00015                    1600 SR        000000000000 FUJITSU TEN (THAILAN18022TU0044044                                                                                                                              *          20170703WMF1707033.TXT
MDEUH7200810201707                D89828070300PT4U20170707000030SPEAKER ASM                   M IMCTM S9TS02 FTTL  07070IMCT  S9 PTB  00015                    2100 SR        000000000000 FUJITSU TEN (THAILAN170C16U0275275                                                                                                                              *          20170703WMF1707033.TXT
