REC2017070520170705ISUZU                              69     
MDDDH7208485201707                D89821984430PT1D20170711000030RADIO;AM/FM,CD                M IMCTM S5NC06 FTTL  07070IMCT  S5 PTB  00005                    1300 SR        000000000000 FUJITSU TEN (THAILAN170KNDL0138138                                                                                                                              *          20170705WMF1707054.TXT
MDDDH7208486201707                D89821984430PT1D20170711000060RADIO;AM/FM,CD                M IMCTM S5NC06 FTTL  07070IMCT  S5 PTB  00005                    1600 SR        000000000000 FUJITSU TEN (THAILAN170KNFL0050050170KPAL0128128                                                                                                                *          20170705WMF1707054.TXT
MDDDH7208487201707                D89821984430PT1D20170711000030RADIO;AM/FM,CD                M IMCTM S5NC06 FTTL  07070IMCT  S5 PTB  00005                    2100 SR        000000000000 FUJITSU TEN (THAILAN170KNCL0092092                                                                                                                              *          20170705WMF1707054.TXT
MDDDH7208488201707                D89828070100PV1D20170708000060SPEAKER ASM                   M IMCTM S5MB11 FTTL  07070IMCT  S5 PTB  00004                    2230 SR        000000000000 FUJITSU TEN (THAILAN170KRFL0115115                                                                                                                              *          20170705WMF1707054.TXT
MDDDH7208489201707                D89828070100PV1D20170709000060SPEAKER ASM                   M IMCTM S5MB11 FTTL  07070IMCT  S5 PTB  00004                    0400 SR        000000000000 FUJITSU TEN (THAILAN170KPFL0184184                                                                                                                              *          20170705WMF1707054.TXT
MDDDH7208490201707                D89828070100PV1D20170711000120SPEAKER ASM                   M IMCTM S5MB11 FTTL  07070IMCT  S5 PTB  00004                    0900 SR        000000000000 FUJITSU TEN (THAILAN170KNAL0064064170KRSL0049049                                                                                                                *          20170705WMF1707054.TXT
MDDDH7208491201707                D89828070100PV1D20170711000060SPEAKER ASM                   M IMCTM S5MB11 FTTL  07070IMCT  S5 PTB  00004                    1300 SR        000000000000 FUJITSU TEN (THAILAN170KNDL0138138                                                                                                                              *          20170705WMF1707054.TXT
MDDDH7208492201707                D89828070100PV1D20170711000180SPEAKER ASM                   M IMCTM S5MB11 FTTL  07070IMCT  S5 PTB  00004                    1600 SR        000000000000 FUJITSU TEN (THAILAN170KNFL0050050170KPAL0128128170KPCL0073073                                                                                                  *          20170705WMF1707054.TXT
MDDDH7208493201707                D89828070100PV1D20170711000060SPEAKER ASM                   M IMCTM S5MB11 FTTL  07070IMCT  S5 PTB  00004                    2100 SR        000000000000 FUJITSU TEN (THAILAN170KNCL0092092                                                                                                                              *          20170705WMF1707054.TXT
MDDDH7208494201707                D89828070200PV1D20170708000060SPEAKER ASM                   M IMCTM S5MA14 FTTL  07070IMCT  S5 PTB  00005                    2230 SR        000000000000 FUJITSU TEN (THAILAN170KRFL0115115                                                                                                                              *          20170705WMF1707054.TXT
MDDDH7208495201707                D89828070200PV1D20170711000060SPEAKER ASM                   M IMCTM S5MA14 FTTL  07070IMCT  S5 PTB  00005                    0900 SR        000000000000 FUJITSU TEN (THAILAN170KRSL0049049                                                                                                                              *          20170705WMF1707054.TXT
MDDDH7208496201707                D89828070300PT1D20170708000060SPEAKER ASM                   M IMCTM S5NB082FTTL  07070IMCT  S5 PTB  00015                    2230 SR        000000000000 FUJITSU TEN (THAILAN170KRFL0115115                                                                                                                              *          20170705WMF1707054.TXT
MDDDH7208497201707                D89828070300PT1D20170709000060SPEAKER ASM                   M IMCTM S5NB082FTTL  07070IMCT  S5 PTB  00015                    0400 SR        000000000000 FUJITSU TEN (THAILAN170KPFL0184184                                                                                                                              *          20170705WMF1707054.TXT
MDDDH7208498201707                D89828070300PT1D20170711000060SPEAKER ASM                   M IMCTM S5NB082FTTL  07070IMCT  S5 PTB  00015                    0900 SR        000000000000 FUJITSU TEN (THAILAN170KRSL0049049                                                                                                                              *          20170705WMF1707054.TXT
MDDDH7208499201707                D89828070300PT1D20170711000060SPEAKER ASM                   M IMCTM S5NB082FTTL  07070IMCT  S5 PTB  00015                    1600 SR        000000000000 FUJITSU TEN (THAILAN170KPCL0073073                                                                                                                              *          20170705WMF1707054.TXT
MDDDH7208500201707                D89829645910PT1D20170708000030RADIO;ASM DVD                 M IMCTM S5NC06 FTTL  07070IMCT  S5 CPB  00003                    2230 SR        000000000000 FUJITSU TEN (THAILAN170KRFL0115115                                                                                                                              *          20170705WMF1707054.TXT
MDDDH7208501201707                D89831228300PT1D20170709000030RADIO;AM/FM,CD                M IMCTM S5NC06 FTTL  07070IMCT  S5 CPB  00003                    0400 SR        000000000000 FUJITSU TEN (THAILAN170KPFL0184184                                                                                                                              *          20170705WMF1707054.TXT
MDDDH7208502201707                D89831228300PT1D20170711000030RADIO;AM/FM,CD                M IMCTM S5NC06 FTTL  07070IMCT  S5 CPB  00003                    1600 SR        000000000000 FUJITSU TEN (THAILAN170KPCL0073073                                                                                                                              *          20170705WMF1707054.TXT
MDDUH7204655201707                D89828070100PT4U20170708000030SPEAKER ASM                   M IMCTM S0FL05 FTTL  07070IMCT  S0 PTB  00004                    2230 SR        000000000000 FUJITSU TEN (THAILAN180LUDU0193193                                                                                                                              *          20170705WMF1707054.TXT
MDDUH7204656201707                D89828070100PT4U20170709000030SPEAKER ASM                   M IMCTM S0FL05 FTTL  07070IMCT  S0 PTB  00004                    0400 SR        000000000000 FUJITSU TEN (THAILAN180LUDU0194194                                                                                                                              *          20170705WMF1707054.TXT
MDDUH7204657201707                D89828070100PT4U20170711000030SPEAKER ASM                   M IMCTM S0FL05 FTTL  07070IMCT  S0 PTB  00004                    1300 SR        000000000000 FUJITSU TEN (THAILAN180LUDU0195195                                                                                                                              *          20170705WMF1707054.TXT
MDDUH7204658201707                D89828070100PT4U20170711000060SPEAKER ASM                   M IMCTM S0FL05 FTTL  07070IMCT  S0 PTB  00004                    1600 SR        000000000000 FUJITSU TEN (THAILAN180LUCU0060060180LUEU0115115                                                                                                                *          20170705WMF1707054.TXT
MDDUH7204659201707                D89828070200PV4U20170708000030SPEAKER ASM                   M IMCTM S0FR05 FTTL  07070IMCT  S0 PTB  00005                    2230 SR        000000000000 FUJITSU TEN (THAILAN180LUDU0193193                                                                                                                              *          20170705WMF1707054.TXT
MDDUH7204660201707                D89828070200PV4U20170709000030SPEAKER ASM                   M IMCTM S0FR05 FTTL  07070IMCT  S0 PTB  00005                    0400 SR        000000000000 FUJITSU TEN (THAILAN180LUDU0194194                                                                                                                              *          20170705WMF1707054.TXT
MDDUH7204661201707                D89828070200PV4U20170711000030SPEAKER ASM                   M IMCTM S0FR05 FTTL  07070IMCT  S0 PTB  00005                    1300 SR        000000000000 FUJITSU TEN (THAILAN180LUDU0195195                                                                                                                              *          20170705WMF1707054.TXT
MDDUH7204662201707                D89828070200PV4U20170711000060SPEAKER ASM                   M IMCTM S0FR05 FTTL  07070IMCT  S0 PTB  00005                    1600 SR        000000000000 FUJITSU TEN (THAILAN180LUCU0060060180LUEU0115115                                                                                                                *          20170705WMF1707054.TXT
MDDUH7204663201707                D89828070300PT4U20170708000030SPEAKER ASM                   M IMCTM S9TS02 FTTL  07070IMCT  S9 PTB  00015                    2230 SR        000000000000 FUJITSU TEN (THAILAN180LUDU0193193                                                                                                                              *          20170705WMF1707054.TXT
MDDUH7204664201707                D89828070300PT4U20170709000030SPEAKER ASM                   M IMCTM S9TS02 FTTL  07070IMCT  S9 PTB  00015                    0400 SR        000000000000 FUJITSU TEN (THAILAN180LUDU0194194                                                                                                                              *          20170705WMF1707054.TXT
MDDUH7204665201707                D89828070300PT4U20170711000030SPEAKER ASM                   M IMCTM S9TS02 FTTL  07070IMCT  S9 PTB  00015                    1300 SR        000000000000 FUJITSU TEN (THAILAN180LUDU0195195                                                                                                                              *          20170705WMF1707054.TXT
MDDUH7204666201707                D89828070300PT4U20170711000060SPEAKER ASM                   M IMCTM S9TS02 FTTL  07070IMCT  S9 PTB  00015                    1600 SR        000000000000 FUJITSU TEN (THAILAN180LUCU0060060180LUEU0115115                                                                                                                *          20170705WMF1707054.TXT
MDDUH7204667201707                D89835097910PT4U20170711000015RADIO;ASM DVD                 M IMCTM S9TS01 FTTL  07070IMCT  S9 PTB  00003                    1600 SR        000000000000 FUJITSU TEN (THAILAN180LUCU0060060                                                                                                                              *          20170705WMF1707054.TXT
MDEDH7211880201707                D89805293700PV1D20170708000060SPEAKER ASM                   M IMCTM S5MB14 FTTL  07070IMCT  S5 PTB  00003                    2230 SR        000000000000 FUJITSU TEN (THAILAN15081DL0023024                                                                                                                              *          20170705WMF1707054.TXT
MDEDH7211881201707                D89805293700PV1D20170709000030SPEAKER ASM                   M IMCTM S5MB14 FTTL  07070IMCT  S5 PTB  00003                    0400 SR        000000000000 FUJITSU TEN (THAILAN15081DL0025025                                                                                                                              *          20170705WMF1707054.TXT
MDEDH7211882201707                D89805294000PT1D20170708000060SPEAKER ASM                   M IMCTM S5NB082FTTL  07070IMCT  S5 PTB  00015                    2230 SR        000000000000 FUJITSU TEN (THAILAN15081DL0023024                                                                                                                              *          20170705WMF1707054.TXT
MDEDH7211883201707                D89805294000PT1D20170709000030SPEAKER ASM                   M IMCTM S5NB082FTTL  07070IMCT  S5 PTB  00015                    0400 SR        000000000000 FUJITSU TEN (THAILAN15081DL0025025                                                                                                                              *          20170705WMF1707054.TXT
MDEDH7211884201707                D89805294200PT1D20170708000060SPEAKER ASM                   M IMCTM S5AS011FTTL  07070IMCT  S6 PTB  00030                    2230 SR        000000000000 FUJITSU TEN (THAILAN15081DL0023024                                                                                                                              *          20170705WMF1707054.TXT
MDEDH7211885201707                D89805294200PT1D20170709000030SPEAKER ASM                   M IMCTM S5AS011FTTL  07070IMCT  S6 PTB  00030                    0400 SR        000000000000 FUJITSU TEN (THAILAN15081DL0025025                                                                                                                              *          20170705WMF1707054.TXT
MDEDH7211886201707                D89806470400PT1D20170708000030SPEAKER ASM;RDO,              M IMCTM S5EA18 FTTL  07070IMCT  S6 PTB  00015                    2230 SR        000000000000 FUJITSU TEN (THAILAN15081DL0023024                                                                                                                              *          20170705WMF1707054.TXT
MDEDH7211887201707                D89806470400PT1D20170709000015SPEAKER ASM;RDO,              M IMCTM S5EA18 FTTL  07070IMCT  S6 PTB  00015                    0400 SR        000000000000 FUJITSU TEN (THAILAN15081DL0025025                                                                                                                              *          20170705WMF1707054.TXT
MDEDH7211888201707                D89828070100PV1D20170709000030SPEAKER ASM                   M IMCTM S5MB11 FTTL  07070IMCT  S5 PTB  00004                    0230 SR        000000000000 FUJITSU TEN (THAILAN17058NL0026026                                                                                                                              *          20170705WMF1707054.TXT
MDEDH7211889201707                D89828070100PV1D20170709000030SPEAKER ASM                   M IMCTM S5MB11 FTTL  07070IMCT  S5 PTB  00004                    0400 SR        000000000000 FUJITSU TEN (THAILAN17048ML0001001                                                                                                                              *          20170705WMF1707054.TXT
MDEDH7211890201707                D89828070100PV1D20170711000060SPEAKER ASM                   M IMCTM S5MB11 FTTL  07070IMCT  S5 PTB  00004                    1300 SR        000000000000 FUJITSU TEN (THAILAN17023NL0013014                                                                                                                              *          20170705WMF1707054.TXT
MDEDH7211891201707                D89828070100PV1D20170711000030SPEAKER ASM                   M IMCTM S5MB11 FTTL  07070IMCT  S5 PTB  00004                    1600 SR        000000000000 FUJITSU TEN (THAILAN17065NL0015015                                                                                                                              *          20170705WMF1707054.TXT
MDEDH7211892201707                D89828070100PV4D20170711000030SPEAKER ASM                   M IMCTM S0FL05 FTTL  07070IMCT  S0 PTB  00004                    1300 SR        000000000000 FUJITSU TEN (THAILAN17055NU0027027                                                                                                                              *          20170705WMF1707054.TXT
MDEDH7211893201707                D89828070100PV4D20170711000030SPEAKER ASM                   M IMCTM S0FL05 FTTL  07070IMCT  S0 PTB  00004                    2230 SR        000000000000 FUJITSU TEN (THAILAN17052TU0005005                                                                                                                              *          20170705WMF1707054.TXT
MDEDH7211894201707                D89828070200PV1D20170709000030SPEAKER ASM                   M IMCTM S5MA14 FTTL  07070IMCT  S5 PTB  00005                    0230 SR        000000000000 FUJITSU TEN (THAILAN17058NL0026026                                                                                                                              *          20170705WMF1707054.TXT
MDEDH7211895201707                D89828070200PV1D20170711000060SPEAKER ASM                   M IMCTM S5MA14 FTTL  07070IMCT  S5 PTB  00005                    1300 SR        000000000000 FUJITSU TEN (THAILAN17023NL0013014                                                                                                                              *          20170705WMF1707054.TXT
MDEDH7211896201707                D89828070300PT1D20170709000030SPEAKER ASM                   M IMCTM S5NB082FTTL  07070IMCT  S5 PTB  00015                    0230 SR        000000000000 FUJITSU TEN (THAILAN17058NL0026026                                                                                                                              *          20170705WMF1707054.TXT
MDEDH7211897201707                D89828070300PT1D20170711000060SPEAKER ASM                   M IMCTM S5NB082FTTL  07070IMCT  S5 PTB  00015                    1300 SR        000000000000 FUJITSU TEN (THAILAN17023NL0013014                                                                                                                              *          20170705WMF1707054.TXT
MDEDH7211898201707                D89828070300PT1D20170711000030SPEAKER ASM                   M IMCTM S5NB082FTTL  07070IMCT  S5 PTB  00015                    1600 SR        000000000000 FUJITSU TEN (THAILAN17065NL0015015                                                                                                                              *          20170705WMF1707054.TXT
MDEDH7211899201707                D89828070300PT4D20170711000030SPEAKER ASM                   M IMCTM S9TS02 FTTL  07070IMCT  S9 PTB  00015                    1300 SR        000000000000 FUJITSU TEN (THAILAN17055NU0027027                                                                                                                              *          20170705WMF1707054.TXT
MDEDH7211900201707                D89848581800PT1D20170709000015RADIO;AM/FM CD D              M IMCTM S5NC06 FTTL  07070IMCT  S5 PTB  00003                    0230 SR        000000000000 FUJITSU TEN (THAILAN17058NL0026026                                                                                                                              *          20170705WMF1707054.TXT
MDEDH7211901201707                D89848581800PT4D20170711000015RADIO;AM/FM CD D              M IMCTM S9CO001FTTL  07070IMCT  S9 PTB  00003                    1300 SR        000000000000 FUJITSU TEN (THAILAN17055NU0027027                                                                                                                              *          20170705WMF1707054.TXT
MDEDH7211902201707                D89848582500PT1D20170711000015RADIO;AM/FM CD D              M IMCTM S5NC06 FTTL  07070IMCT  S5 PTB  00003                    1600 SR        000000000000 FUJITSU TEN (THAILAN17065NL0015015                                                                                                                              *          20170705WMF1707054.TXT
MDEUH7208958201707                D89828070100PT4U20170709000030SPEAKER ASM                   M IMCTM S0FL05 FTTL  07070IMCT  S0 PTB  00004                    0230 SR        000000000000 FUJITSU TEN (THAILAN170C16U0279279                                                                                                                              *          20170705WMF1707054.TXT
MDEUH7208959201707                D89828070100PT4U20170709000030SPEAKER ASM                   M IMCTM S0FL05 FTTL  07070IMCT  S0 PTB  00004                    0400 SR        000000000000 FUJITSU TEN (THAILAN18022TU0046046                                                                                                                              *          20170705WMF1707054.TXT
MDEUH7208960201707                D89828070100PT4U20170711000060SPEAKER ASM                   M IMCTM S0FL05 FTTL  07070IMCT  S0 PTB  00004                    0900 SR        000000000000 FUJITSU TEN (THAILAN170C16U028028018022TU0047047                                                                                                                *          20170705WMF1707054.TXT
MDEUH7208961201707                D89828070100PT4U20170711000030SPEAKER ASM                   M IMCTM S0FL05 FTTL  07070IMCT  S0 PTB  00004                    1600 SR        000000000000 FUJITSU TEN (THAILAN18023TU0114114                                                                                                                              *          20170705WMF1707054.TXT
MDEUH7208962201707                D89828070100PT4U20170711000030SPEAKER ASM                   M IMCTM S0FL05 FTTL  07070IMCT  S0 PTB  00004                    2100 SR        000000000000 FUJITSU TEN (THAILAN170C13U0109109                                                                                                                              *          20170705WMF1707054.TXT
MDEUH7208963201707                D89828070200PV4U20170709000030SPEAKER ASM                   M IMCTM S0FR05 FTTL  07070IMCT  S0 PTB  00005                    0230 SR        000000000000 FUJITSU TEN (THAILAN170C16U0279279                                                                                                                              *          20170705WMF1707054.TXT
MDEUH7208964201707                D89828070200PV4U20170709000030SPEAKER ASM                   M IMCTM S0FR05 FTTL  07070IMCT  S0 PTB  00005                    0400 SR        000000000000 FUJITSU TEN (THAILAN18022TU0046046                                                                                                                              *          20170705WMF1707054.TXT
MDEUH7208965201707                D89828070200PV4U20170711000060SPEAKER ASM                   M IMCTM S0FR05 FTTL  07070IMCT  S0 PTB  00005                    0900 SR        000000000000 FUJITSU TEN (THAILAN170C16U028028018022TU0047047                                                                                                                *          20170705WMF1707054.TXT
MDEUH7208966201707                D89828070200PV4U20170711000030SPEAKER ASM                   M IMCTM S0FR05 FTTL  07070IMCT  S0 PTB  00005                    1600 SR        000000000000 FUJITSU TEN (THAILAN18023TU0114114                                                                                                                              *          20170705WMF1707054.TXT
MDEUH7208967201707                D89828070200PV4U20170711000030SPEAKER ASM                   M IMCTM S0FR05 FTTL  07070IMCT  S0 PTB  00005                    2100 SR        000000000000 FUJITSU TEN (THAILAN170C13U0109109                                                                                                                              *          20170705WMF1707054.TXT
MDEUH7208968201707                D89828070300PT4U20170709000030SPEAKER ASM                   M IMCTM S9TS02 FTTL  07070IMCT  S9 PTB  00015                    0230 SR        000000000000 FUJITSU TEN (THAILAN170C16U0279279                                                                                                                              *          20170705WMF1707054.TXT
MDEUH7208969201707                D89828070300PT4U20170709000030SPEAKER ASM                   M IMCTM S9TS02 FTTL  07070IMCT  S9 PTB  00015                    0400 SR        000000000000 FUJITSU TEN (THAILAN18022TU0046046                                                                                                                              *          20170705WMF1707054.TXT
MDEUH7208970201707                D89828070300PT4U20170711000060SPEAKER ASM                   M IMCTM S9TS02 FTTL  07070IMCT  S9 PTB  00015                    0900 SR        000000000000 FUJITSU TEN (THAILAN170C16U028028018022TU0047047                                                                                                                *          20170705WMF1707054.TXT
MDEUH7208971201707                D89828070300PT4U20170711000030SPEAKER ASM                   M IMCTM S9TS02 FTTL  07070IMCT  S9 PTB  00015                    1600 SR        000000000000 FUJITSU TEN (THAILAN18023TU0114114                                                                                                                              *          20170705WMF1707054.TXT
MDEUH7208972201707                D89828070300PT4U20170711000030SPEAKER ASM                   M IMCTM S9TS02 FTTL  07070IMCT  S9 PTB  00015                    2100 SR        000000000000 FUJITSU TEN (THAILAN170C13U0109109                                                                                                                              *          20170705WMF1707054.TXT
