REC2017072620170726ISUZU                              3      
MADDH7602298201710                 89828070100PV1D20170925000002SPEAKER ASM                   M IMCTM ST00000FTTL  07070IMCT  ST PTB  00004  DC                0000 SR        000000000000 FUJITSU TEN (THAILAN180L2LL0002002                                                                                                                              *P         20170726WMF1707261.TXT
MADDH7602299201710                 89828070200PV1D20170925000002SPEAKER ASM                   M IMCTM ST00000FTTL  07070IMCT  ST PTB  00005  DC                0000 SR        000000000000 FUJITSU TEN (THAILAN180L2LL0002002                                                                                                                              *P         20170726WMF1707261.TXT
MADDH7602300201710                 89828070300PT1D20170925000002SPEAKER ASM                   M IMCTM ST00000FTTL  07070IMCT  ST PTB  00015  DC                0000 SR        000000000000 FUJITSU TEN (THAILAN180L2LL0002002                                                                                                                              *P         20170726WMF1707261.TXT
