REC2017070520170705ISUZU                              32     
MAKK77070192201707D1               89805293700P3YK20170717000120SPEAKER ASM                   M IMCTM CM1    FTTL  07070IMKDC KA   PTB00003  K0                0900DES        000000000000 FUJITSU TEN (THAILAN                                                                                                                                            *G         20170705WMF1707057.TXT
MAKK77070193201707D1               89805293700P3YK20170718000150SPEAKER ASM                   M IMCTM CM1    FTTL  07070IMKDC KA   PTB00003  K0                0900DES        000000000000 FUJITSU TEN (THAILAN                                                                                                                                            *G         20170705WMF1707057.TXT
MAKK77070194201707D1               89805293700P3YK20170719000150SPEAKER ASM                   M IMCTM CM1    FTTL  07070IMKDC KA   PTB00003  K0                0900DES        000000000000 FUJITSU TEN (THAILAN                                                                                                                                            *G         20170705WMF1707057.TXT
MAKK77070195201707D1               89805293700P3YK20170720000150SPEAKER ASM                   M IMCTM CM1    FTTL  07070IMKDC KA   PTB00003  K0                0900DES        000000000000 FUJITSU TEN (THAILAN                                                                                                                                            *G         20170705WMF1707057.TXT
MAKK77070196201707D1               89805293700P3YK20170721000210SPEAKER ASM                   M IMCTM CM1    FTTL  07070IMKDC KA   PTB00003  K0                0900DES        000000000000 FUJITSU TEN (THAILAN                                                                                                                                            *G         20170705WMF1707057.TXT
MAKK77070197201707D1               89805294000P3YK20170717000060SPEAKER ASM                   M IMCTM CM1    FTTL  07070IMKDC KA   PTB00015  K0                0900DES        000000000000 FUJITSU TEN (THAILAN                                                                                                                                            *G         20170705WMF1707057.TXT
MAKK77070198201707D1               89805294000P3YK20170718000060SPEAKER ASM                   M IMCTM CM1    FTTL  07070IMKDC KA   PTB00015  K0                0900DES        000000000000 FUJITSU TEN (THAILAN                                                                                                                                            *G         20170705WMF1707057.TXT
MAKK77070199201707D1               89805294000P3YK20170719000060SPEAKER ASM                   M IMCTM CM1    FTTL  07070IMKDC KA   PTB00015  K0                0900DES        000000000000 FUJITSU TEN (THAILAN                                                                                                                                            *G         20170705WMF1707057.TXT
MAKK77070200201707D1               89805294000P3YK20170720000060SPEAKER ASM                   M IMCTM CM1    FTTL  07070IMKDC KA   PTB00015  K0                0900DES        000000000000 FUJITSU TEN (THAILAN                                                                                                                                            *G         20170705WMF1707057.TXT
MAKK77070201201707D1               89805294000P3YK20170721000060SPEAKER ASM                   M IMCTM CM1    FTTL  07070IMKDC KA   PTB00015  K0                0900DES        000000000000 FUJITSU TEN (THAILAN                                                                                                                                            *G         20170705WMF1707057.TXT
MAKK77070202201707D1               89805294100P3YK20170717000030SPEAKER ASM                   M IMCTM CM1    FTTL  07070IMKDC KA   PTB00005  K0                0900DES        000000000000 FUJITSU TEN (THAILAN                                                                                                                                            *G         20170705WMF1707057.TXT
MAKK77070203201707D1               89805294100P3YK20170718000060SPEAKER ASM                   M IMCTM CM1    FTTL  07070IMKDC KA   PTB00005  K0                0900DES        000000000000 FUJITSU TEN (THAILAN                                                                                                                                            *G         20170705WMF1707057.TXT
MAKK77070204201707D1               89805294100P3YK20170719000060SPEAKER ASM                   M IMCTM CM1    FTTL  07070IMKDC KA   PTB00005  K0                0900DES        000000000000 FUJITSU TEN (THAILAN                                                                                                                                            *G         20170705WMF1707057.TXT
MAKK77070205201707D1               89805294100P3YK20170720000060SPEAKER ASM                   M IMCTM CM1    FTTL  07070IMKDC KA   PTB00005  K0                0900DES        000000000000 FUJITSU TEN (THAILAN                                                                                                                                            *G         20170705WMF1707057.TXT
MAKK77070206201707D1               89805294100P3YK20170721000060SPEAKER ASM                   M IMCTM CM1    FTTL  07070IMKDC KA   PTB00005  K0                0900DES        000000000000 FUJITSU TEN (THAILAN                                                                                                                                            *G         20170705WMF1707057.TXT
MAKK77070207201707D1               89825451200P3YK20170719000030SPEAKER ASM;ROOF              M IMCTM CM1    FTTL  07070IMKDC KA   PTB00015  K0                0900DES        000000000000 FUJITSU TEN (THAILAN                                                                                                                                            *G         20170705WMF1707057.TXT
MAKK77070208201707D1               89825451200P3YK20170721000030SPEAKER ASM;ROOF              M IMCTM CM1    FTTL  07070IMKDC KA   PTB00015  K0                0900DES        000000000000 FUJITSU TEN (THAILAN                                                                                                                                            *G         20170705WMF1707057.TXT
MAKK77070209201707D1               89828070100P3YK20170717000210SPEAKER ASM                   M IMCTM CM1    FTTL  07070IMKDC KA PTB  00004  K0                0900DES        000000000000 FUJITSU TEN (THAILAN                                                                                                                                            *G         20170705WMF1707057.TXT
MAKK77070210201707D1               89828070100P3YK20170718000180SPEAKER ASM                   M IMCTM CM1    FTTL  07070IMKDC KA PTB  00004  K0                0900DES        000000000000 FUJITSU TEN (THAILAN                                                                                                                                            *G         20170705WMF1707057.TXT
MAKK77070211201707D1               89828070100P3YK20170719000150SPEAKER ASM                   M IMCTM CM1    FTTL  07070IMKDC KA PTB  00004  K0                0900DES        000000000000 FUJITSU TEN (THAILAN                                                                                                                                            *G         20170705WMF1707057.TXT
MAKK77070212201707D1               89828070100P3YK20170720000150SPEAKER ASM                   M IMCTM CM1    FTTL  07070IMKDC KA PTB  00004  K0                0900DES        000000000000 FUJITSU TEN (THAILAN                                                                                                                                            *G         20170705WMF1707057.TXT
MAKK77070213201707D1               89828070100P3YK20170721000090SPEAKER ASM                   M IMCTM CM1    FTTL  07070IMKDC KA PTB  00004  K0                0900DES        000000000000 FUJITSU TEN (THAILAN                                                                                                                                            *G         20170705WMF1707057.TXT
MAKK77070214201707D1               89828070200P3YK20170717000090SPEAKER ASM                   M IMCTM CM1    FTTL  07070IMKDC KA PTB  00005  K0                0900DES        000000000000 FUJITSU TEN (THAILAN                                                                                                                                            *G         20170705WMF1707057.TXT
MAKK77070215201707D1               89828070200P3YK20170718000090SPEAKER ASM                   M IMCTM CM1    FTTL  07070IMKDC KA PTB  00005  K0                0900DES        000000000000 FUJITSU TEN (THAILAN                                                                                                                                            *G         20170705WMF1707057.TXT
MAKK77070216201707D1               89828070200P3YK20170719000060SPEAKER ASM                   M IMCTM CM1    FTTL  07070IMKDC KA PTB  00005  K0                0900DES        000000000000 FUJITSU TEN (THAILAN                                                                                                                                            *G         20170705WMF1707057.TXT
MAKK77070217201707D1               89828070200P3YK20170720000090SPEAKER ASM                   M IMCTM CM1    FTTL  07070IMKDC KA PTB  00005  K0                0900DES        000000000000 FUJITSU TEN (THAILAN                                                                                                                                            *G         20170705WMF1707057.TXT
MAKK77070218201707D1               89828070300P3YK20170717000120SPEAKER ASM                   M IMCTM CM1    FTTL  07070IMKDC KA PTB  00015  K0                0900DES        000000000000 FUJITSU TEN (THAILAN                                                                                                                                            *G         20170705WMF1707057.TXT
MAKK77070219201707D1               89828070300P3YK20170718000090SPEAKER ASM                   M IMCTM CM1    FTTL  07070IMKDC KA PTB  00015  K0                0900DES        000000000000 FUJITSU TEN (THAILAN                                                                                                                                            *G         20170705WMF1707057.TXT
MAKK77070220201707D1               89828070300P3YK20170719000090SPEAKER ASM                   M IMCTM CM1    FTTL  07070IMKDC KA PTB  00015  K0                0900DES        000000000000 FUJITSU TEN (THAILAN                                                                                                                                            *G         20170705WMF1707057.TXT
MAKK77070221201707D1               89828070300P3YK20170720000090SPEAKER ASM                   M IMCTM CM1    FTTL  07070IMKDC KA PTB  00015  K0                0900DES        000000000000 FUJITSU TEN (THAILAN                                                                                                                                            *G         20170705WMF1707057.TXT
MAKK77070222201707D1               89828070300P3YK20170721000060SPEAKER ASM                   M IMCTM CM1    FTTL  07070IMKDC KA PTB  00015  K0                0900DES        000000000000 FUJITSU TEN (THAILAN                                                                                                                                            *G         20170705WMF1707057.TXT
MAKK77070223201707D1               89831228700P3YK20170721000015RADIO;AM/FM,CD                M IMCTM CM1    FTTL  07070IMKDC KA PTB  00003  K0                0900DES        000000000000 FUJITSU TEN (THAILAN                                                                                                                                            *G         20170705WMF1707057.TXT
