REC2017071920170719ISUZU                              55     
MDDDH7255870201707                D89821984430PT1D20170722000030RADIO;AM/FM,CD                M IMCTM S5NC06 FTTL  07070IMCT  S5 PTB  00005                    2230 SR        000000000000 FUJITSU TEN (THAILAN170KPAL0137137                                                                                                                              *          20170719WMF1707193.TXT
MDDDH7255871201707                D89821984430PT1D20170723000030RADIO;AM/FM,CD                M IMCTM S5NC06 FTTL  07070IMCT  S5 PTB  00005                    0230 SR        000000000000 FUJITSU TEN (THAILAN170KNEL0137137                                                                                                                              *          20170719WMF1707193.TXT
MDDDH7255872201707                D89821984430PT1D20170724000030RADIO;AM/FM,CD                M IMCTM S5NC06 FTTL  07070IMCT  S5 PTB  00005                    1600 SR        000000000000 FUJITSU TEN (THAILAN170KRWL0002002                                                                                                                              *          20170719WMF1707193.TXT
MDDDH7255873201707                D89828070100PV1D20170722000060SPEAKER ASM                   M IMCTM S5MB11 FTTL  07070IMCT  S5 PTB  00004                    2230 SR        000000000000 FUJITSU TEN (THAILAN170KPAL0137137                                                                                                                              *          20170719WMF1707193.TXT
MDDDH7255874201707                D89828070100PV1D20170723000060SPEAKER ASM                   M IMCTM S5MB11 FTTL  07070IMCT  S5 PTB  00004                    0230 SR        000000000000 FUJITSU TEN (THAILAN170KNEL0137137                                                                                                                              *          20170719WMF1707193.TXT
MDDDH7255875201707                D89828070100PV1D20170723000060SPEAKER ASM                   M IMCTM S5MB11 FTTL  07070IMCT  S5 PTB  00004                    0400 SR        000000000000 FUJITSU TEN (THAILAN170KNAL0070070                                                                                                                              *          20170719WMF1707193.TXT
MDDDH7255876201707                D89828070100PV1D20170724000060SPEAKER ASM                   M IMCTM S5MB11 FTTL  07070IMCT  S5 PTB  00004                    1600 SR        000000000000 FUJITSU TEN (THAILAN170KRWL0002002                                                                                                                              *          20170719WMF1707193.TXT
MDDUH7233126201707                D89828070100PT4U20170724000030SPEAKER ASM                   M IMCTM S0FL05 FTTL  07070IMCT  S0 PTB  00004                    0900 SR        000000000000 FUJITSU TEN (THAILAN180LUEU0125125                                                                                                                              *          20170719WMF1707193.TXT
MDDUH7233127201707                D89828070200PV4U20170724000030SPEAKER ASM                   M IMCTM S0FR05 FTTL  07070IMCT  S0 PTB  00005                    0900 SR        000000000000 FUJITSU TEN (THAILAN180LUEU0125125                                                                                                                              *          20170719WMF1707193.TXT
MDDUH7233128201707                D89828070300PT4U20170724000030SPEAKER ASM                   M IMCTM S9TS02 FTTL  07070IMCT  S9 PTB  00015                    0900 SR        000000000000 FUJITSU TEN (THAILAN180LUEU0125125                                                                                                                              *          20170719WMF1707193.TXT
MDEDH7273943201707                D89828070100PV1D20170722000030SPEAKER ASM                   M IMCTM S5MB11 FTTL  07070IMCT  S5 PTB  00004                    2230 SR        000000000000 FUJITSU TEN (THAILAN17077ML0011011                                                                                                                              *          20170719WMF1707193.TXT
MDEDH7273944201707                D89828070100PV1D20170723000030SPEAKER ASM                   M IMCTM S5MB11 FTTL  07070IMCT  S5 PTB  00004                    0230 SR        000000000000 FUJITSU TEN (THAILAN17006ML0009009                                                                                                                              *          20170719WMF1707193.TXT
MDEDH7273945201707                D89828070100PV1D20170723000060SPEAKER ASM                   M IMCTM S5MB11 FTTL  07070IMCT  S5 PTB  00004                    0400 SR        000000000000 FUJITSU TEN (THAILAN17081NL0019020                                                                                                                              *          20170719WMF1707193.TXT
MDEDH7273946201707                D89828070100PV1D20170724000120SPEAKER ASM                   M IMCTM S5MB11 FTTL  07070IMCT  S5 PTB  00004                    0900 SR        000000000000 FUJITSU TEN (THAILAN17023ML000300317051TL001401417076ML002602617080NL0078078                                                                                    *          20170719WMF1707193.TXT
MDEDH7273947201707                D89828070100PV1D20170724000120SPEAKER ASM                   M IMCTM S5MB11 FTTL  07070IMCT  S5 PTB  00004                    1300 SR        000000000000 FUJITSU TEN (THAILAN17051TL001501517068ML000900917076ML002702717080NL0079079                                                                                    *          20170719WMF1707193.TXT
MDEDH7273948201707                D89828070100PV1D20170724000030SPEAKER ASM                   M IMCTM S5MB11 FTTL  07070IMCT  S5 PTB  00004                    1600 SR        000000000000 FUJITSU TEN (THAILAN17068ML0010010                                                                                                                              *          20170719WMF1707193.TXT
MDEDH7273949201707                D89828070100PV1D20170724000030SPEAKER ASM                   M IMCTM S5MB11 FTTL  07070IMCT  S5 PTB  00004                    2100 SR        000000000000 FUJITSU TEN (THAILAN17071NL0014014                                                                                                                              *          20170719WMF1707193.TXT
MDEDH7273950201707                D89828070100PV1D20170724000030SPEAKER ASM                   M IMCTM S5MB11 FTTL  07070IMCT  S5 PTB  00004                    2230 SR        000000000000 FUJITSU TEN (THAILAN17080NL0080080                                                                                                                              *          20170719WMF1707193.TXT
MDEDH7273951201707                D89828070100PV4D20170724000030SPEAKER ASM                   M IMCTM S0FL05 FTTL  07070IMCT  S0 PTB  00004                    1300 SR        000000000000 FUJITSU TEN (THAILAN17052TU0016016                                                                                                                              *          20170719WMF1707193.TXT
MDEDH7273952201707                D89828070200PV1D20170723000060SPEAKER ASM                   M IMCTM S5MA14 FTTL  07070IMCT  S5 PTB  00005                    0400 SR        000000000000 FUJITSU TEN (THAILAN17081NL0019020                                                                                                                              *          20170719WMF1707193.TXT
MDEDH7273953201707                D89828070200PV1D20170724000060SPEAKER ASM                   M IMCTM S5MA14 FTTL  07070IMCT  S5 PTB  00005                    0900 SR        000000000000 FUJITSU TEN (THAILAN17023ML000300317080NL0078078                                                                                                                *          20170719WMF1707193.TXT
MDEDH7273954201707                D89828070200PV1D20170724000030SPEAKER ASM                   M IMCTM S5MA14 FTTL  07070IMCT  S5 PTB  00005                    1300 SR        000000000000 FUJITSU TEN (THAILAN17080NL0079079                                                                                                                              *          20170719WMF1707193.TXT
MDEDH7273955201707                D89828070200PV1D20170724000030SPEAKER ASM                   M IMCTM S5MA14 FTTL  07070IMCT  S5 PTB  00005                    2100 SR        000000000000 FUJITSU TEN (THAILAN17071NL0014014                                                                                                                              *          20170719WMF1707193.TXT
MDEDH7273956201707                D89828070200PV1D20170724000030SPEAKER ASM                   M IMCTM S5MA14 FTTL  07070IMCT  S5 PTB  00005                    2230 SR        000000000000 FUJITSU TEN (THAILAN17080NL0080080                                                                                                                              *          20170719WMF1707193.TXT
MDEDH7273957201707                D89828070300PT1D20170723000060SPEAKER ASM                   M IMCTM S5NB082FTTL  07070IMCT  S5 PTB  00015                    0400 SR        000000000000 FUJITSU TEN (THAILAN17081NL0019020                                                                                                                              *          20170719WMF1707193.TXT
MDEDH7273958201707                D89828070300PT1D20170724000060SPEAKER ASM                   M IMCTM S5NB082FTTL  07070IMCT  S5 PTB  00015                    0900 SR        000000000000 FUJITSU TEN (THAILAN17023ML000300317080NL0078078                                                                                                                *          20170719WMF1707193.TXT
MDEDH7273959201707                D89828070300PT1D20170724000060SPEAKER ASM                   M IMCTM S5NB082FTTL  07070IMCT  S5 PTB  00015                    1300 SR        000000000000 FUJITSU TEN (THAILAN17068ML000900917080NL0079079                                                                                                                *          20170719WMF1707193.TXT
MDEDH7273960201707                D89828070300PT1D20170724000030SPEAKER ASM                   M IMCTM S5NB082FTTL  07070IMCT  S5 PTB  00015                    1600 SR        000000000000 FUJITSU TEN (THAILAN17068ML0010010                                                                                                                              *          20170719WMF1707193.TXT
MDEDH7273961201707                D89828070300PT1D20170724000030SPEAKER ASM                   M IMCTM S5NB082FTTL  07070IMCT  S5 PTB  00015                    2100 SR        000000000000 FUJITSU TEN (THAILAN17071NL0014014                                                                                                                              *          20170719WMF1707193.TXT
MDEDH7273962201707                D89828070300PT1D20170724000030SPEAKER ASM                   M IMCTM S5NB082FTTL  07070IMCT  S5 PTB  00015                    2230 SR        000000000000 FUJITSU TEN (THAILAN17080NL0080080                                                                                                                              *          20170719WMF1707193.TXT
MDEDH7273963201707                D89829622410PT1D20170724000015RADIO;ASM DVD                 M IMCTM S5NC06 FTTL  07070IMCT  S5 PTB  00003                    1300 SR        000000000000 FUJITSU TEN (THAILAN17068ML0009009                                                                                                                              *          20170719WMF1707193.TXT
MDEDH7273964201707                D89829622410PT1D20170724000015RADIO;ASM DVD                 M IMCTM S5NC06 FTTL  07070IMCT  S5 PTB  00003                    1600 SR        000000000000 FUJITSU TEN (THAILAN17068ML0010010                                                                                                                              *          20170719WMF1707193.TXT
MDEDH7273965201707                D89831228800PT1D20170724000015RADIO;AM/FM,CD                M IMCTM S5NC06 FTTL  07070IMCT  S5 PTB  00003                    0900 SR        000000000000 FUJITSU TEN (THAILAN17023ML0003003                                                                                                                              *          20170719WMF1707193.TXT
MDEDH7273966201707                D89848581800PT1D20170724000015RADIO;AM/FM CD D              M IMCTM S5NC06 FTTL  07070IMCT  S5 PTB  00003                    2100 SR        000000000000 FUJITSU TEN (THAILAN17071NL0014014                                                                                                                              *          20170719WMF1707193.TXT
MDEUH7255648201707                D89828070100PT4U20170722000030SPEAKER ASM                   M IMCTM S0FL05 FTTL  07070IMCT  S0 PTB  00004                    2230 SR        000000000000 FUJITSU TEN (THAILAN170C16U0306306                                                                                                                              *          20170719WMF1707193.TXT
MDEUH7255649201707                D89828070100PT4U20170723000030SPEAKER ASM                   M IMCTM S0FL05 FTTL  07070IMCT  S0 PTB  00004                    0230 SR        000000000000 FUJITSU TEN (THAILAN18023TU0120120                                                                                                                              *          20170719WMF1707193.TXT
MDEUH7255650201707                D89828070100PT4U20170723000030SPEAKER ASM                   M IMCTM S0FL05 FTTL  07070IMCT  S0 PTB  00004                    0400 SR        000000000000 FUJITSU TEN (THAILAN170C12U0062062                                                                                                                              *          20170719WMF1707193.TXT
MDEUH7255651201707                D89828070100PT4U20170724000030SPEAKER ASM                   M IMCTM S0FL05 FTTL  07070IMCT  S0 PTB  00004                    0900 SR        000000000000 FUJITSU TEN (THAILAN170C16U0307307                                                                                                                              *          20170719WMF1707193.TXT
MDEUH7255652201707                D89828070100PT4U20170724000060SPEAKER ASM                   M IMCTM S0FL05 FTTL  07070IMCT  S0 PTB  00004                    1300 SR        000000000000 FUJITSU TEN (THAILAN18017TU002702718023TU0121121                                                                                                                *          20170719WMF1707193.TXT
MDEUH7255653201707                D89828070100PT4U20170724000030SPEAKER ASM                   M IMCTM S0FL05 FTTL  07070IMCT  S0 PTB  00004                    1600 SR        000000000000 FUJITSU TEN (THAILAN170C13U0121121                                                                                                                              *          20170719WMF1707193.TXT
MDEUH7255654201707                D89828070100PT4U20170724000030SPEAKER ASM                   M IMCTM S0FL05 FTTL  07070IMCT  S0 PTB  00004                    2230 SR        000000000000 FUJITSU TEN (THAILAN170C16U0308308                                                                                                                              *          20170719WMF1707193.TXT
MDEUH7255655201707                D89828070200PV4U20170722000030SPEAKER ASM                   M IMCTM S0FR05 FTTL  07070IMCT  S0 PTB  00005                    2230 SR        000000000000 FUJITSU TEN (THAILAN170C16U0306306                                                                                                                              *          20170719WMF1707193.TXT
MDEUH7255656201707                D89828070200PV4U20170723000030SPEAKER ASM                   M IMCTM S0FR05 FTTL  07070IMCT  S0 PTB  00005                    0230 SR        000000000000 FUJITSU TEN (THAILAN18023TU0120120                                                                                                                              *          20170719WMF1707193.TXT
MDEUH7255657201707                D89828070200PV4U20170723000030SPEAKER ASM                   M IMCTM S0FR05 FTTL  07070IMCT  S0 PTB  00005                    0400 SR        000000000000 FUJITSU TEN (THAILAN170C12U0062062                                                                                                                              *          20170719WMF1707193.TXT
MDEUH7255658201707                D89828070200PV4U20170724000030SPEAKER ASM                   M IMCTM S0FR05 FTTL  07070IMCT  S0 PTB  00005                    0900 SR        000000000000 FUJITSU TEN (THAILAN170C16U0307307                                                                                                                              *          20170719WMF1707193.TXT
MDEUH7255659201707                D89828070200PV4U20170724000060SPEAKER ASM                   M IMCTM S0FR05 FTTL  07070IMCT  S0 PTB  00005                    1300 SR        000000000000 FUJITSU TEN (THAILAN18017TU002702718023TU0121121                                                                                                                *          20170719WMF1707193.TXT
MDEUH7255660201707                D89828070200PV4U20170724000030SPEAKER ASM                   M IMCTM S0FR05 FTTL  07070IMCT  S0 PTB  00005                    1600 SR        000000000000 FUJITSU TEN (THAILAN170C13U0121121                                                                                                                              *          20170719WMF1707193.TXT
MDEUH7255661201707                D89828070200PV4U20170724000030SPEAKER ASM                   M IMCTM S0FR05 FTTL  07070IMCT  S0 PTB  00005                    2230 SR        000000000000 FUJITSU TEN (THAILAN170C16U0308308                                                                                                                              *          20170719WMF1707193.TXT
MDEUH7255662201707                D89828070300PT4U20170722000030SPEAKER ASM                   M IMCTM S9TS02 FTTL  07070IMCT  S9 PTB  00015                    2230 SR        000000000000 FUJITSU TEN (THAILAN170C16U0306306                                                                                                                              *          20170719WMF1707193.TXT
MDEUH7255663201707                D89828070300PT4U20170723000030SPEAKER ASM                   M IMCTM S9TS02 FTTL  07070IMCT  S9 PTB  00015                    0230 SR        000000000000 FUJITSU TEN (THAILAN18023TU0120120                                                                                                                              *          20170719WMF1707193.TXT
MDEUH7255664201707                D89828070300PT4U20170723000030SPEAKER ASM                   M IMCTM S9TS02 FTTL  07070IMCT  S9 PTB  00015                    0400 SR        000000000000 FUJITSU TEN (THAILAN170C12U0062062                                                                                                                              *          20170719WMF1707193.TXT
MDEUH7255665201707                D89828070300PT4U20170724000030SPEAKER ASM                   M IMCTM S9TS02 FTTL  07070IMCT  S9 PTB  00015                    0900 SR        000000000000 FUJITSU TEN (THAILAN170C16U0307307                                                                                                                              *          20170719WMF1707193.TXT
MDEUH7255666201707                D89828070300PT4U20170724000060SPEAKER ASM                   M IMCTM S9TS02 FTTL  07070IMCT  S9 PTB  00015                    1300 SR        000000000000 FUJITSU TEN (THAILAN18017TU002702718023TU0121121                                                                                                                *          20170719WMF1707193.TXT
MDEUH7255667201707                D89828070300PT4U20170724000030SPEAKER ASM                   M IMCTM S9TS02 FTTL  07070IMCT  S9 PTB  00015                    1600 SR        000000000000 FUJITSU TEN (THAILAN170C13U0121121                                                                                                                              *          20170719WMF1707193.TXT
MDEUH7255668201707                D89828070300PT4U20170724000030SPEAKER ASM                   M IMCTM S9TS02 FTTL  07070IMCT  S9 PTB  00015                    2230 SR        000000000000 FUJITSU TEN (THAILAN170C16U0308308                                                                                                                              *          20170719WMF1707193.TXT
