REC2017072220170722ISUZU                              49     
MDDDH7263513201707                D89821984430PT1D20170726000030RADIO;AM/FM,CD                M IMCTM S5NC06 FTTL  07070IMCT  S5 PTB  00005                    2230 SR        000000000000 FUJITSU TEN (THAILAN170KNEL0141141                                                                                                                              *          20170722WMF1707223.TXT
MDDDH7263514201707                D89821984430PT1D20170727000030RADIO;AM/FM,CD                M IMCTM S5NC06 FTTL  07070IMCT  S5 PTB  00005                    0900 SR        000000000000 FUJITSU TEN (THAILAN170KPRL0002002                                                                                                                              *          20170722WMF1707223.TXT
MDDDH7263515201707                D89821984430PT1D20170727000030RADIO;AM/FM,CD                M IMCTM S5NC06 FTTL  07070IMCT  S5 PTB  00005                    1600 SR        000000000000 FUJITSU TEN (THAILAN170KNEL0142142                                                                                                                              *          20170722WMF1707223.TXT
MDDDH7263516201707                D89828070100PV1D20170726000060SPEAKER ASM                   M IMCTM S5MB11 FTTL  07070IMCT  S5 PTB  00004                    2230 SR        000000000000 FUJITSU TEN (THAILAN170KNEL0141141                                                                                                                              *          20170722WMF1707223.TXT
MDDDH7263517201707                D89828070100PV1D20170727000060SPEAKER ASM                   M IMCTM S5MB11 FTTL  07070IMCT  S5 PTB  00004                    0230 SR        000000000000 FUJITSU TEN (THAILAN170KNAL0073073                                                                                                                              *          20170722WMF1707223.TXT
MDDDH7263518201707                D89828070100PV1D20170727000060SPEAKER ASM                   M IMCTM S5MB11 FTTL  07070IMCT  S5 PTB  00004                    0900 SR        000000000000 FUJITSU TEN (THAILAN170KPRL0002002                                                                                                                              *          20170722WMF1707223.TXT
MDDDH7263519201707                D89828070100PV1D20170727000060SPEAKER ASM                   M IMCTM S5MB11 FTTL  07070IMCT  S5 PTB  00004                    1600 SR        000000000000 FUJITSU TEN (THAILAN170KNEL0142142                                                                                                                              *          20170722WMF1707223.TXT
MDDDH7263520201707                D89828070100PV1D20170727000060SPEAKER ASM                   M IMCTM S5MB11 FTTL  07070IMCT  S5 PTB  00004                    2230 SR        000000000000 FUJITSU TEN (THAILAN170KNAL0074074                                                                                                                              *          20170722WMF1707223.TXT
MDDUH7234838201707                D89828070100PT4U20170727000030SPEAKER ASM                   M IMCTM S0FL05 FTTL  07070IMCT  S0 PTB  00004                    2100 SR        000000000000 FUJITSU TEN (THAILAN180LUEU0127127                                                                                                                              *          20170722WMF1707223.TXT
MDDUH7234839201707                D89828070200PV4U20170727000030SPEAKER ASM                   M IMCTM S0FR05 FTTL  07070IMCT  S0 PTB  00005                    2100 SR        000000000000 FUJITSU TEN (THAILAN180LUEU0127127                                                                                                                              *          20170722WMF1707223.TXT
MDDUH7234840201707                D89828070300PT4U20170727000030SPEAKER ASM                   M IMCTM S9TS02 FTTL  07070IMCT  S9 PTB  00015                    2100 SR        000000000000 FUJITSU TEN (THAILAN180LUEU0127127                                                                                                                              *          20170722WMF1707223.TXT
MDEDH7299822201707                D89828070100PV1D20170726000030SPEAKER ASM                   M IMCTM S5MB11 FTTL  07070IMCT  S5 PTB  00004                    2230 SR        000000000000 FUJITSU TEN (THAILAN17080NL0084084                                                                                                                              *          20170722WMF1707223.TXT
MDEDH7299823201707                D89828070100PV1D20170727000060SPEAKER ASM                   M IMCTM S5MB11 FTTL  07070IMCT  S5 PTB  00004                    0230 SR        000000000000 FUJITSU TEN (THAILAN17008ML001201217080NL0085085                                                                                                                *          20170722WMF1707223.TXT
MDEDH7299824201707                D89828070100PV1D20170727000090SPEAKER ASM                   M IMCTM S5MB11 FTTL  07070IMCT  S5 PTB  00004                    0400 SR        000000000000 FUJITSU TEN (THAILAN17031ML002102217045ML0002002                                                                                                                *          20170722WMF1707223.TXT
MDEDH7299825201707                D89828070100PV1D20170727000090SPEAKER ASM                   M IMCTM S5MB11 FTTL  07070IMCT  S5 PTB  00004                    0900 SR        000000000000 FUJITSU TEN (THAILAN17014QL000100117069NL001001017081NL0023023                                                                                                  *          20170722WMF1707223.TXT
MDEDH7299826201707                D89828070100PV1D20170727000090SPEAKER ASM                   M IMCTM S5MB11 FTTL  07070IMCT  S5 PTB  00004                    1300 SR        000000000000 FUJITSU TEN (THAILAN17026NL002102117079NL007807817083ML0017017                                                                                                  *          20170722WMF1707223.TXT
MDEDH7299827201707                D89828070100PV1D20170727000060SPEAKER ASM                   M IMCTM S5MB11 FTTL  07070IMCT  S5 PTB  00004                    2100 SR        000000000000 FUJITSU TEN (THAILAN17069NL001101117071ML0010010                                                                                                                *          20170722WMF1707223.TXT
MDEDH7299828201707                D89828070200PV1D20170726000030SPEAKER ASM                   M IMCTM S5MA14 FTTL  07070IMCT  S5 PTB  00005                    2230 SR        000000000000 FUJITSU TEN (THAILAN17080NL0084084                                                                                                                              *          20170722WMF1707223.TXT
MDEDH7299829201707                D89828070200PV1D20170727000030SPEAKER ASM                   M IMCTM S5MA14 FTTL  07070IMCT  S5 PTB  00005                    0230 SR        000000000000 FUJITSU TEN (THAILAN17080NL0085085                                                                                                                              *          20170722WMF1707223.TXT
MDEDH7299830201707                D89828070200PV1D20170727000060SPEAKER ASM                   M IMCTM S5MA14 FTTL  07070IMCT  S5 PTB  00005                    0400 SR        000000000000 FUJITSU TEN (THAILAN17031ML0021022                                                                                                                              *          20170722WMF1707223.TXT
MDEDH7299831201707                D89828070200PV1D20170727000090SPEAKER ASM                   M IMCTM S5MA14 FTTL  07070IMCT  S5 PTB  00005                    0900 SR        000000000000 FUJITSU TEN (THAILAN17014QL000100117069NL001001017081NL0023023                                                                                                  *          20170722WMF1707223.TXT
MDEDH7299832201707                D89828070200PV1D20170727000060SPEAKER ASM                   M IMCTM S5MA14 FTTL  07070IMCT  S5 PTB  00005                    1300 SR        000000000000 FUJITSU TEN (THAILAN17026NL002102117079NL0078078                                                                                                                *          20170722WMF1707223.TXT
MDEDH7299833201707                D89828070200PV1D20170727000030SPEAKER ASM                   M IMCTM S5MA14 FTTL  07070IMCT  S5 PTB  00005                    2100 SR        000000000000 FUJITSU TEN (THAILAN17069NL0011011                                                                                                                              *          20170722WMF1707223.TXT
MDEDH7299834201707                D89828070300PT1D20170726000030SPEAKER ASM                   M IMCTM S5NB082FTTL  07070IMCT  S5 PTB  00015                    2230 SR        000000000000 FUJITSU TEN (THAILAN17080NL0084084                                                                                                                              *          20170722WMF1707223.TXT
MDEDH7299835201707                D89828070300PT1D20170727000060SPEAKER ASM                   M IMCTM S5NB082FTTL  07070IMCT  S5 PTB  00015                    0230 SR        000000000000 FUJITSU TEN (THAILAN17008ML001201217080NL0085085                                                                                                                *          20170722WMF1707223.TXT
MDEDH7299836201707                D89828070300PT1D20170727000060SPEAKER ASM                   M IMCTM S5NB082FTTL  07070IMCT  S5 PTB  00015                    0400 SR        000000000000 FUJITSU TEN (THAILAN17031ML0021022                                                                                                                              *          20170722WMF1707223.TXT
MDEDH7299837201707                D89828070300PT1D20170727000090SPEAKER ASM                   M IMCTM S5NB082FTTL  07070IMCT  S5 PTB  00015                    0900 SR        000000000000 FUJITSU TEN (THAILAN17014QL000100117069NL001001017081NL0023023                                                                                                  *          20170722WMF1707223.TXT
MDEDH7299838201707                D89828070300PT1D20170727000090SPEAKER ASM                   M IMCTM S5NB082FTTL  07070IMCT  S5 PTB  00015                    1300 SR        000000000000 FUJITSU TEN (THAILAN17026NL002102117079NL007807817083ML0017017                                                                                                  *          20170722WMF1707223.TXT
MDEDH7299839201707                D89828070300PT1D20170727000060SPEAKER ASM                   M IMCTM S5NB082FTTL  07070IMCT  S5 PTB  00015                    2100 SR        000000000000 FUJITSU TEN (THAILAN17069NL001101117071ML0010010                                                                                                                *          20170722WMF1707223.TXT
MDEDH7299840201707                D89829622410PT1D20170727000015RADIO;ASM DVD                 M IMCTM S5NC06 FTTL  07070IMCT  S5 PTB  00003                    0230 SR        000000000000 FUJITSU TEN (THAILAN17008ML0012012                                                                                                                              *          20170722WMF1707223.TXT
MDEDH7299841201707                D89831229200PT1D20170727000015RADIO;AM/FM,CD                M IMCTM S5NC06 FTTL  07070IMCT  S5 PTB  00003                    0900 SR        000000000000 FUJITSU TEN (THAILAN17014QL0001001                                                                                                                              *          20170722WMF1707223.TXT
MDEDH7299842201707                D89848581800PT1D20170727000015RADIO;AM/FM CD D              M IMCTM S5NC06 FTTL  07070IMCT  S5 PTB  00003                    0900 SR        000000000000 FUJITSU TEN (THAILAN17069NL0010010                                                                                                                              *          20170722WMF1707223.TXT
MDEDH7299843201707                D89848581800PT1D20170727000015RADIO;AM/FM CD D              M IMCTM S5NC06 FTTL  07070IMCT  S5 PTB  00003                    1300 SR        000000000000 FUJITSU TEN (THAILAN17079NL0078078                                                                                                                              *          20170722WMF1707223.TXT
MDEDH7299844201707                D89848581800PT1D20170727000015RADIO;AM/FM CD D              M IMCTM S5NC06 FTTL  07070IMCT  S5 PTB  00003                    2100 SR        000000000000 FUJITSU TEN (THAILAN17069NL0011011                                                                                                                              *          20170722WMF1707223.TXT
MDEUH7272587201707                D89828070100PT4U20170726000060SPEAKER ASM                   M IMCTM S0FL05 FTTL  07070IMCT  S0 PTB  00004                    2230 SR        000000000000 FUJITSU TEN (THAILAN170C16U031831818022TU0056056                                                                                                                *          20170722WMF1707223.TXT
MDEUH7272588201707                D89828070100PT4U20170727000060SPEAKER ASM                   M IMCTM S0FL05 FTTL  07070IMCT  S0 PTB  00004                    0400 SR        000000000000 FUJITSU TEN (THAILAN170C16U0319320                                                                                                                              *          20170722WMF1707223.TXT
MDEUH7272589201707                D89828070100PT4U20170727000060SPEAKER ASM                   M IMCTM S0FL05 FTTL  07070IMCT  S0 PTB  00004                    0900 SR        000000000000 FUJITSU TEN (THAILAN170C12U0067068                                                                                                                              *          20170722WMF1707223.TXT
MDEUH7272590201707                D89828070100PT4U20170727000060SPEAKER ASM                   M IMCTM S0FL05 FTTL  07070IMCT  S0 PTB  00004                    1300 SR        000000000000 FUJITSU TEN (THAILAN170C13U012412418023TU0125125                                                                                                                *          20170722WMF1707223.TXT
MDEUH7272591201707                D89828070100PT4U20170727000030SPEAKER ASM                   M IMCTM S0FL05 FTTL  07070IMCT  S0 PTB  00004                    1600 SR        000000000000 FUJITSU TEN (THAILAN170C16U0321321                                                                                                                              *          20170722WMF1707223.TXT
MDEUH7272592201707                D89828070200PV4U20170726000060SPEAKER ASM                   M IMCTM S0FR05 FTTL  07070IMCT  S0 PTB  00005                    2230 SR        000000000000 FUJITSU TEN (THAILAN170C16U031831818022TU0056056                                                                                                                *          20170722WMF1707223.TXT
MDEUH7272593201707                D89828070200PV4U20170727000060SPEAKER ASM                   M IMCTM S0FR05 FTTL  07070IMCT  S0 PTB  00005                    0400 SR        000000000000 FUJITSU TEN (THAILAN170C16U0319320                                                                                                                              *          20170722WMF1707223.TXT
MDEUH7272594201707                D89828070200PV4U20170727000060SPEAKER ASM                   M IMCTM S0FR05 FTTL  07070IMCT  S0 PTB  00005                    0900 SR        000000000000 FUJITSU TEN (THAILAN170C12U0067068                                                                                                                              *          20170722WMF1707223.TXT
MDEUH7272595201707                D89828070200PV4U20170727000060SPEAKER ASM                   M IMCTM S0FR05 FTTL  07070IMCT  S0 PTB  00005                    1300 SR        000000000000 FUJITSU TEN (THAILAN170C13U012412418023TU0125125                                                                                                                *          20170722WMF1707223.TXT
MDEUH7272596201707                D89828070200PV4U20170727000030SPEAKER ASM                   M IMCTM S0FR05 FTTL  07070IMCT  S0 PTB  00005                    1600 SR        000000000000 FUJITSU TEN (THAILAN170C16U0321321                                                                                                                              *          20170722WMF1707223.TXT
MDEUH7272597201707                D89828070300PT4U20170726000060SPEAKER ASM                   M IMCTM S9TS02 FTTL  07070IMCT  S9 PTB  00015                    2230 SR        000000000000 FUJITSU TEN (THAILAN170C16U031831818022TU0056056                                                                                                                *          20170722WMF1707223.TXT
MDEUH7272598201707                D89828070300PT4U20170727000060SPEAKER ASM                   M IMCTM S9TS02 FTTL  07070IMCT  S9 PTB  00015                    0400 SR        000000000000 FUJITSU TEN (THAILAN170C16U0319320                                                                                                                              *          20170722WMF1707223.TXT
MDEUH7272599201707                D89828070300PT4U20170727000060SPEAKER ASM                   M IMCTM S9TS02 FTTL  07070IMCT  S9 PTB  00015                    0900 SR        000000000000 FUJITSU TEN (THAILAN170C12U0067068                                                                                                                              *          20170722WMF1707223.TXT
MDEUH7272600201707                D89828070300PT4U20170727000060SPEAKER ASM                   M IMCTM S9TS02 FTTL  07070IMCT  S9 PTB  00015                    1300 SR        000000000000 FUJITSU TEN (THAILAN170C13U012412418023TU0125125                                                                                                                *          20170722WMF1707223.TXT
MDEUH7272601201707                D89828070300PT4U20170727000030SPEAKER ASM                   M IMCTM S9TS02 FTTL  07070IMCT  S9 PTB  00015                    1600 SR        000000000000 FUJITSU TEN (THAILAN170C16U0321321                                                                                                                              *          20170722WMF1707223.TXT
