REC2017072720170727ISUZU                              27     
MAKK77116197201707D1               89805293700P3YK20170807000180SPEAKER ASM                   M IMCTM CM1    FTTL  07070IMKDC KA   PTB00003  K0                0900DES        000000000000 FUJITSU TEN (THAILAN                                                                                                                                            *G         20170727WMF1707274.TXT
MAKK77116198201707D1               89805293700P3YK20170808000090SPEAKER ASM                   M IMCTM CM1    FTTL  07070IMKDC KA   PTB00003  K0                0900DES        000000000000 FUJITSU TEN (THAILAN                                                                                                                                            *G         20170727WMF1707274.TXT
MAKK77116199201707D1               89805293700P3YK20170809000090SPEAKER ASM                   M IMCTM CM1    FTTL  07070IMKDC KA   PTB00003  K0                0900DES        000000000000 FUJITSU TEN (THAILAN                                                                                                                                            *G         20170727WMF1707274.TXT
MAKK77116200201707D1               89805293700P3YK20170810000090SPEAKER ASM                   M IMCTM CM1    FTTL  07070IMKDC KA   PTB00003  K0                0900DES        000000000000 FUJITSU TEN (THAILAN                                                                                                                                            *G         20170727WMF1707274.TXT
MAKK77116201201707D1               89805293700P3YK20170811000120SPEAKER ASM                   M IMCTM CM1    FTTL  07070IMKDC KA   PTB00003  K0                0900DES        000000000000 FUJITSU TEN (THAILAN                                                                                                                                            *G         20170727WMF1707274.TXT
MAKK77116202201707D1               89805294000P3YK20170807000060SPEAKER ASM                   M IMCTM CM1    FTTL  07070IMKDC KA   PTB00015  K0                0900DES        000000000000 FUJITSU TEN (THAILAN                                                                                                                                            *G         20170727WMF1707274.TXT
MAKK77116203201707D1               89805294000P3YK20170809000060SPEAKER ASM                   M IMCTM CM1    FTTL  07070IMKDC KA   PTB00015  K0                0900DES        000000000000 FUJITSU TEN (THAILAN                                                                                                                                            *G         20170727WMF1707274.TXT
MAKK77116204201707D1               89805294000P3YK20170810000030SPEAKER ASM                   M IMCTM CM1    FTTL  07070IMKDC KA   PTB00015  K0                0900DES        000000000000 FUJITSU TEN (THAILAN                                                                                                                                            *G         20170727WMF1707274.TXT
MAKK77116205201707D1               89805294000P3YK20170811000030SPEAKER ASM                   M IMCTM CM1    FTTL  07070IMKDC KA   PTB00015  K0                0900DES        000000000000 FUJITSU TEN (THAILAN                                                                                                                                            *G         20170727WMF1707274.TXT
MAKK77116206201707D1               89805294100P3YK20170809000030SPEAKER ASM                   M IMCTM CM1    FTTL  07070IMKDC KA   PTB00005  K0                0900DES        000000000000 FUJITSU TEN (THAILAN                                                                                                                                            *G         20170727WMF1707274.TXT
MAKK77116207201707D1               89805294100P3YK20170811000030SPEAKER ASM                   M IMCTM CM1    FTTL  07070IMKDC KA   PTB00005  K0                0900DES        000000000000 FUJITSU TEN (THAILAN                                                                                                                                            *G         20170727WMF1707274.TXT
MAKK77116208201707D1               89805294200P3YK20170807000060SPEAKER ASM                   M IMCTM CM1    FTTL  07070IMKDC KA X    00030  K0                0900DES        000000000000 FUJITSU TEN (THAILAN                                                                                                                                            *G         20170727WMF1707274.TXT
MAKK77116209201707D1               89805294200P3YK20170809000030SPEAKER ASM                   M IMCTM CM1    FTTL  07070IMKDC KA X    00030  K0                0900DES        000000000000 FUJITSU TEN (THAILAN                                                                                                                                            *G         20170727WMF1707274.TXT
MAKK77116210201707D1               89805294200P3YK20170810000030SPEAKER ASM                   M IMCTM CM1    FTTL  07070IMKDC KA X    00030  K0                0900DES        000000000000 FUJITSU TEN (THAILAN                                                                                                                                            *G         20170727WMF1707274.TXT
MAKK77116211201707D1               89806470400P3YK20170807000030SPEAKER ASM;RDO,              M IMCTM CM1    FTTL  07070IMKDC KA   PTB00015  K0                0900DES        000000000000 FUJITSU TEN (THAILAN                                                                                                                                            *G         20170727WMF1707274.TXT
MAKK77116212201707D1               89806470400P3YK20170809000015SPEAKER ASM;RDO,              M IMCTM CM1    FTTL  07070IMKDC KA   PTB00015  K0                0900DES        000000000000 FUJITSU TEN (THAILAN                                                                                                                                            *G         20170727WMF1707274.TXT
MAKK77116213201707D1               89806470400P3YK20170810000015SPEAKER ASM;RDO,              M IMCTM CM1    FTTL  07070IMKDC KA   PTB00015  K0                0900DES        000000000000 FUJITSU TEN (THAILAN                                                                                                                                            *G         20170727WMF1707274.TXT
MAKK77116214201707D1               89825451200P3YK20170808000030SPEAKER ASM;ROOF              M IMCTM CM1    FTTL  07070IMKDC KA   PTB00015  K0                0900DES        000000000000 FUJITSU TEN (THAILAN                                                                                                                                            *G         20170727WMF1707274.TXT
MAKK77116215201707D1               89825451200P3YK20170809000030SPEAKER ASM;ROOF              M IMCTM CM1    FTTL  07070IMKDC KA   PTB00015  K0                0900DES        000000000000 FUJITSU TEN (THAILAN                                                                                                                                            *G         20170727WMF1707274.TXT
MAKK77116216201707D1               89828070100P3YK20170807000060SPEAKER ASM                   M IMCTM CM1    FTTL  07070IMKDC KA PTB  00004  K0                0900DES        000000000000 FUJITSU TEN (THAILAN                                                                                                                                            *G         20170727WMF1707274.TXT
MAKK77116217201707D1               89828070100P3YK20170808000060SPEAKER ASM                   M IMCTM CM1    FTTL  07070IMKDC KA PTB  00004  K0                0900DES        000000000000 FUJITSU TEN (THAILAN                                                                                                                                            *G         20170727WMF1707274.TXT
MAKK77116218201707D1               89828070100P3YK20170809000060SPEAKER ASM                   M IMCTM CM1    FTTL  07070IMKDC KA PTB  00004  K0                0900DES        000000000000 FUJITSU TEN (THAILAN                                                                                                                                            *G         20170727WMF1707274.TXT
MAKK77116219201707D1               89828070100P3YK20170810000060SPEAKER ASM                   M IMCTM CM1    FTTL  07070IMKDC KA PTB  00004  K0                0900DES        000000000000 FUJITSU TEN (THAILAN                                                                                                                                            *G         20170727WMF1707274.TXT
MAKK77116220201707D1               89828070100P3YK20170811000060SPEAKER ASM                   M IMCTM CM1    FTTL  07070IMKDC KA PTB  00004  K0                0900DES        000000000000 FUJITSU TEN (THAILAN                                                                                                                                            *G         20170727WMF1707274.TXT
MAKK77116221201707D1               89828070200P3YK20170808000030SPEAKER ASM                   M IMCTM CM1    FTTL  07070IMKDC KA PTB  00005  K0                0900DES        000000000000 FUJITSU TEN (THAILAN                                                                                                                                            *G         20170727WMF1707274.TXT
MAKK77116222201707D1               89828070300P3YK20170808000060SPEAKER ASM                   M IMCTM CM1    FTTL  07070IMKDC KA PTB  00015  K0                0900DES        000000000000 FUJITSU TEN (THAILAN                                                                                                                                            *G         20170727WMF1707274.TXT
MAKK77116223201707D1               89828070300P3YK20170810000030SPEAKER ASM                   M IMCTM CM1    FTTL  07070IMKDC KA PTB  00015  K0                0900DES        000000000000 FUJITSU TEN (THAILAN                                                                                                                                            *G         20170727WMF1707274.TXT
