REC2017071320170713ISUZU                              52     
MDDDH7233573201707                D89821984430PT1D20170718000030RADIO;AM/FM,CD                M IMCTM S5NC06 FTTL  07070IMCT  S5 PTB  00005                    0400 SR        000000000000 FUJITSU TEN (THAILAN170KNCL0093093                                                                                                                              *          20170713WMF1707135.TXT
MDDDH7233574201707                D89821984430PT1D20170718000030RADIO;AM/FM,CD                M IMCTM S5NC06 FTTL  07070IMCT  S5 PTB  00005                    1600 SR        000000000000 FUJITSU TEN (THAILAN170KNEL0133133                                                                                                                              *          20170713WMF1707135.TXT
MDDDH7233575201707                D89828070100PV1D20170718000120SPEAKER ASM                   M IMCTM S5MB11 FTTL  07070IMCT  S5 PTB  00004                    0400 SR        000000000000 FUJITSU TEN (THAILAN170KNCL0093093170KPFL0188188                                                                                                                *          20170713WMF1707135.TXT
MDDDH7233576201707                D89828070100PV1D20170718000060SPEAKER ASM                   M IMCTM S5MB11 FTTL  07070IMCT  S5 PTB  00004                    0900 SR        000000000000 FUJITSU TEN (THAILAN170KRHL0038038                                                                                                                              *          20170713WMF1707135.TXT
MDDDH7233577201707                D89828070100PV1D20170718000240SPEAKER ASM                   M IMCTM S5MB11 FTTL  07070IMCT  S5 PTB  00004                    1600 SR        000000000000 FUJITSU TEN (THAILAN170KNEL0133133170KPCL0074075170KRQL0008008                                                                                                  *          20170713WMF1707135.TXT
MDDDH7233578201707                D89828070100PV1D20170718000060SPEAKER ASM                   M IMCTM S5MB11 FTTL  07070IMCT  S5 PTB  00004                    2100 SR        000000000000 FUJITSU TEN (THAILAN170KRRL0027027                                                                                                                              *          20170713WMF1707135.TXT
MDDDH7233579201707                D89828070200PV1D20170718000060SPEAKER ASM                   M IMCTM S5MA14 FTTL  07070IMCT  S5 PTB  00005                    0900 SR        000000000000 FUJITSU TEN (THAILAN170KRHL0038038                                                                                                                              *          20170713WMF1707135.TXT
MDDDH7233580201707                D89828070200PV1D20170718000060SPEAKER ASM                   M IMCTM S5MA14 FTTL  07070IMCT  S5 PTB  00005                    1600 SR        000000000000 FUJITSU TEN (THAILAN170KRQL0008008                                                                                                                              *          20170713WMF1707135.TXT
MDDDH7233581201707                D89828070200PV1D20170718000060SPEAKER ASM                   M IMCTM S5MA14 FTTL  07070IMCT  S5 PTB  00005                    2100 SR        000000000000 FUJITSU TEN (THAILAN170KRRL0027027                                                                                                                              *          20170713WMF1707135.TXT
MDDDH7233582201707                D89828070300PT1D20170718000060SPEAKER ASM                   M IMCTM S5NB082FTTL  07070IMCT  S5 PTB  00015                    0400 SR        000000000000 FUJITSU TEN (THAILAN170KPFL0188188                                                                                                                              *          20170713WMF1707135.TXT
MDDDH7233583201707                D89828070300PT1D20170718000060SPEAKER ASM                   M IMCTM S5NB082FTTL  07070IMCT  S5 PTB  00015                    0900 SR        000000000000 FUJITSU TEN (THAILAN170KRHL0038038                                                                                                                              *          20170713WMF1707135.TXT
MDDDH7233584201707                D89828070300PT1D20170718000180SPEAKER ASM                   M IMCTM S5NB082FTTL  07070IMCT  S5 PTB  00015                    1600 SR        000000000000 FUJITSU TEN (THAILAN170KPCL0074075170KRQL0008008                                                                                                                *          20170713WMF1707135.TXT
MDDDH7233585201707                D89828070300PT1D20170718000060SPEAKER ASM                   M IMCTM S5NB082FTTL  07070IMCT  S5 PTB  00015                    2100 SR        000000000000 FUJITSU TEN (THAILAN170KRRL0027027                                                                                                                              *          20170713WMF1707135.TXT
MDDDH7233586201707                D89831228300PT1D20170718000030RADIO;AM/FM,CD                M IMCTM S5NC06 FTTL  07070IMCT  S5 CPB  00003                    0400 SR        000000000000 FUJITSU TEN (THAILAN170KPFL0188188                                                                                                                              *          20170713WMF1707135.TXT
MDDDH7233587201707                D89831228300PT1D20170718000060RADIO;AM/FM,CD                M IMCTM S5NC06 FTTL  07070IMCT  S5 CPB  00003                    1600 SR        000000000000 FUJITSU TEN (THAILAN170KPCL0074075                                                                                                                              *          20170713WMF1707135.TXT
MDDUH7222808201707                D89828070100PT4U20170717000030SPEAKER ASM                   M IMCTM S0FL05 FTTL  07070IMCT  S0 PTB  00004                    2230 SR        000000000000 FUJITSU TEN (THAILAN180LUDU0210210                                                                                                                              *          20170713WMF1707135.TXT
MDDUH7222809201707                D89828070100PT4U20170718000060SPEAKER ASM                   M IMCTM S0FL05 FTTL  07070IMCT  S0 PTB  00004                    1600 SR        000000000000 FUJITSU TEN (THAILAN180LUDU0211211180LUEU0120120                                                                                                                *          20170713WMF1707135.TXT
MDDUH7222810201707                D89828070200PV4U20170717000030SPEAKER ASM                   M IMCTM S0FR05 FTTL  07070IMCT  S0 PTB  00005                    2230 SR        000000000000 FUJITSU TEN (THAILAN180LUDU0210210                                                                                                                              *          20170713WMF1707135.TXT
MDDUH7222811201707                D89828070200PV4U20170718000060SPEAKER ASM                   M IMCTM S0FR05 FTTL  07070IMCT  S0 PTB  00005                    1600 SR        000000000000 FUJITSU TEN (THAILAN180LUDU0211211180LUEU0120120                                                                                                                *          20170713WMF1707135.TXT
MDDUH7222812201707                D89828070300PT4U20170717000030SPEAKER ASM                   M IMCTM S9TS02 FTTL  07070IMCT  S9 PTB  00015                    2230 SR        000000000000 FUJITSU TEN (THAILAN180LUDU0210210                                                                                                                              *          20170713WMF1707135.TXT
MDDUH7222813201707                D89828070300PT4U20170718000060SPEAKER ASM                   M IMCTM S9TS02 FTTL  07070IMCT  S9 PTB  00015                    1600 SR        000000000000 FUJITSU TEN (THAILAN180LUDU0211211180LUEU0120120                                                                                                                *          20170713WMF1707135.TXT
MDEDH7244301201707                D89828070100PV1D20170717000120SPEAKER ASM                   M IMCTM S5MB11 FTTL  07070IMCT  S5 PTB  00004                    2230 SR        000000000000 FUJITSU TEN (THAILAN17028NL001201317052ML0009010                                                                                                                *          20170713WMF1707135.TXT
MDEDH7244302201707                D89828070100PV1D20170718000060SPEAKER ASM                   M IMCTM S5MB11 FTTL  07070IMCT  S5 PTB  00004                    0230 SR        000000000000 FUJITSU TEN (THAILAN17079NL0069070                                                                                                                              *          20170713WMF1707135.TXT
MDEDH7244303201707                D89828070100PV1D20170718000090SPEAKER ASM                   M IMCTM S5MB11 FTTL  07070IMCT  S5 PTB  00004                    0900 SR        000000000000 FUJITSU TEN (THAILAN17033QL000900917037ML000200217057ML0009009                                                                                                  *          20170713WMF1707135.TXT
MDEDH7244304201707                D89828070100PV1D20170718000090SPEAKER ASM                   M IMCTM S5MB11 FTTL  07070IMCT  S5 PTB  00004                    1300 SR        000000000000 FUJITSU TEN (THAILAN17015NL001801817029ML002202217040ML0001001                                                                                                  *          20170713WMF1707135.TXT
MDEDH7244305201707                D89828070100PV4D20170718000030SPEAKER ASM                   M IMCTM S0FL05 FTTL  07070IMCT  S0 PTB  00004                    2100 SR        000000000000 FUJITSU TEN (THAILAN17052TU0010010                                                                                                                              *          20170713WMF1707135.TXT
MDEDH7244306201707                D89828070200PV1D20170718000060SPEAKER ASM                   M IMCTM S5MA14 FTTL  07070IMCT  S5 PTB  00005                    0230 SR        000000000000 FUJITSU TEN (THAILAN17079NL0069070                                                                                                                              *          20170713WMF1707135.TXT
MDEDH7244307201707                D89828070200PV1D20170718000030SPEAKER ASM                   M IMCTM S5MA14 FTTL  07070IMCT  S5 PTB  00005                    0900 SR        000000000000 FUJITSU TEN (THAILAN17033QL0009009                                                                                                                              *          20170713WMF1707135.TXT
MDEDH7244308201707                D89828070200PV1D20170718000060SPEAKER ASM                   M IMCTM S5MA14 FTTL  07070IMCT  S5 PTB  00005                    1300 SR        000000000000 FUJITSU TEN (THAILAN17015NL001801817029ML0022022                                                                                                                *          20170713WMF1707135.TXT
MDEDH7244309201707                D89828070300PT1D20170718000060SPEAKER ASM                   M IMCTM S5NB082FTTL  07070IMCT  S5 PTB  00015                    0230 SR        000000000000 FUJITSU TEN (THAILAN17079NL0069070                                                                                                                              *          20170713WMF1707135.TXT
MDEDH7244310201707                D89828070300PT1D20170718000060SPEAKER ASM                   M IMCTM S5NB082FTTL  07070IMCT  S5 PTB  00015                    0900 SR        000000000000 FUJITSU TEN (THAILAN17033QL000900917057ML0009009                                                                                                                *          20170713WMF1707135.TXT
MDEDH7244311201707                D89828070300PT1D20170718000060SPEAKER ASM                   M IMCTM S5NB082FTTL  07070IMCT  S5 PTB  00015                    1300 SR        000000000000 FUJITSU TEN (THAILAN17015NL001801817029ML0022022                                                                                                                *          20170713WMF1707135.TXT
MDEDH7244312201707                D89831229200PT1D20170718000015RADIO;AM/FM,CD                M IMCTM S5NC06 FTTL  07070IMCT  S5 PTB  00003                    0900 SR        000000000000 FUJITSU TEN (THAILAN17033QL0009009                                                                                                                              *          20170713WMF1707135.TXT
MDEDH7244313201707                D89848581800PT1D20170718000030RADIO;AM/FM CD D              M IMCTM S5NC06 FTTL  07070IMCT  S5 PTB  00003                    0230 SR        000000000000 FUJITSU TEN (THAILAN17079NL0069070                                                                                                                              *          20170713WMF1707135.TXT
MDEUH7232502201707                D89828070100PT4U20170717000030SPEAKER ASM                   M IMCTM S0FL05 FTTL  07070IMCT  S0 PTB  00004                    2230 SR        000000000000 FUJITSU TEN (THAILAN18018TU0030030                                                                                                                              *          20170713WMF1707135.TXT
MDEUH7232503201707                D89828070100PT4U20170718000060SPEAKER ASM                   M IMCTM S0FL05 FTTL  07070IMCT  S0 PTB  00004                    0400 SR        000000000000 FUJITSU TEN (THAILAN170C12U0060060170C16U0291291                                                                                                                *          20170713WMF1707135.TXT
MDEUH7232504201707                D89828070100PT4U20170718000060SPEAKER ASM                   M IMCTM S0FL05 FTTL  07070IMCT  S0 PTB  00004                    0900 SR        000000000000 FUJITSU TEN (THAILAN170C13U0111111170C16U0292292                                                                                                                *          20170713WMF1707135.TXT
MDEUH7232505201707                D89828070100PT4U20170718000060SPEAKER ASM                   M IMCTM S0FL05 FTTL  07070IMCT  S0 PTB  00004                    1300 SR        000000000000 FUJITSU TEN (THAILAN170C16U029329318023TU0119119                                                                                                                *          20170713WMF1707135.TXT
MDEUH7232506201707                D89828070100PT4U20170718000030SPEAKER ASM                   M IMCTM S0FL05 FTTL  07070IMCT  S0 PTB  00004                    1600 SR        000000000000 FUJITSU TEN (THAILAN170C13U0112112                                                                                                                              *          20170713WMF1707135.TXT
MDEUH7232507201707                D89828070100PT4U20170718000030SPEAKER ASM                   M IMCTM S0FL05 FTTL  07070IMCT  S0 PTB  00004                    2230 SR        000000000000 FUJITSU TEN (THAILAN170C16U0294294                                                                                                                              *          20170713WMF1707135.TXT
MDEUH7232508201707                D89828070200PV4U20170717000030SPEAKER ASM                   M IMCTM S0FR05 FTTL  07070IMCT  S0 PTB  00005                    2230 SR        000000000000 FUJITSU TEN (THAILAN18018TU0030030                                                                                                                              *          20170713WMF1707135.TXT
MDEUH7232509201707                D89828070200PV4U20170718000060SPEAKER ASM                   M IMCTM S0FR05 FTTL  07070IMCT  S0 PTB  00005                    0400 SR        000000000000 FUJITSU TEN (THAILAN170C12U0060060170C16U0291291                                                                                                                *          20170713WMF1707135.TXT
MDEUH7232510201707                D89828070200PV4U20170718000060SPEAKER ASM                   M IMCTM S0FR05 FTTL  07070IMCT  S0 PTB  00005                    0900 SR        000000000000 FUJITSU TEN (THAILAN170C13U0111111170C16U0292292                                                                                                                *          20170713WMF1707135.TXT
MDEUH7232511201707                D89828070200PV4U20170718000060SPEAKER ASM                   M IMCTM S0FR05 FTTL  07070IMCT  S0 PTB  00005                    1300 SR        000000000000 FUJITSU TEN (THAILAN170C16U029329318023TU0119119                                                                                                                *          20170713WMF1707135.TXT
MDEUH7232512201707                D89828070200PV4U20170718000030SPEAKER ASM                   M IMCTM S0FR05 FTTL  07070IMCT  S0 PTB  00005                    1600 SR        000000000000 FUJITSU TEN (THAILAN170C13U0112112                                                                                                                              *          20170713WMF1707135.TXT
MDEUH7232513201707                D89828070200PV4U20170718000030SPEAKER ASM                   M IMCTM S0FR05 FTTL  07070IMCT  S0 PTB  00005                    2230 SR        000000000000 FUJITSU TEN (THAILAN170C16U0294294                                                                                                                              *          20170713WMF1707135.TXT
MDEUH7232514201707                D89828070300PT4U20170717000030SPEAKER ASM                   M IMCTM S9TS02 FTTL  07070IMCT  S9 PTB  00015                    2230 SR        000000000000 FUJITSU TEN (THAILAN18018TU0030030                                                                                                                              *          20170713WMF1707135.TXT
MDEUH7232515201707                D89828070300PT4U20170718000060SPEAKER ASM                   M IMCTM S9TS02 FTTL  07070IMCT  S9 PTB  00015                    0400 SR        000000000000 FUJITSU TEN (THAILAN170C12U0060060170C16U0291291                                                                                                                *          20170713WMF1707135.TXT
MDEUH7232516201707                D89828070300PT4U20170718000060SPEAKER ASM                   M IMCTM S9TS02 FTTL  07070IMCT  S9 PTB  00015                    0900 SR        000000000000 FUJITSU TEN (THAILAN170C13U0111111170C16U0292292                                                                                                                *          20170713WMF1707135.TXT
MDEUH7232517201707                D89828070300PT4U20170718000060SPEAKER ASM                   M IMCTM S9TS02 FTTL  07070IMCT  S9 PTB  00015                    1300 SR        000000000000 FUJITSU TEN (THAILAN170C16U029329318023TU0119119                                                                                                                *          20170713WMF1707135.TXT
MDEUH7232518201707                D89828070300PT4U20170718000030SPEAKER ASM                   M IMCTM S9TS02 FTTL  07070IMCT  S9 PTB  00015                    1600 SR        000000000000 FUJITSU TEN (THAILAN170C13U0112112                                                                                                                              *          20170713WMF1707135.TXT
MDEUH7232519201707                D89828070300PT4U20170718000030SPEAKER ASM                   M IMCTM S9TS02 FTTL  07070IMCT  S9 PTB  00015                    2230 SR        000000000000 FUJITSU TEN (THAILAN170C16U0294294                                                                                                                              *          20170713WMF1707135.TXT
