REC2017071820170718ISUZU                              66     
MDDDH7252457201707                D89821984430PT1D20170722000030RADIO;AM/FM,CD                M IMCTM S5NC06 FTTL  07070IMCT  S5 PTB  00005                    1300 SR        000000000000 FUJITSU TEN (THAILAN170KNEL0135135                                                                                                                              *          20170718WMF1707184.TXT
MDDDH7252458201707                D89821984430PT1D20170722000030RADIO;AM/FM,CD                M IMCTM S5NC06 FTTL  07070IMCT  S5 PTB  00005                    1600 SR        000000000000 FUJITSU TEN (THAILAN170KNEL0136136                                                                                                                              *          20170718WMF1707184.TXT
MDDDH7252459201707                D89828070100PV1D20170721000060SPEAKER ASM                   M IMCTM S5MB11 FTTL  07070IMCT  S5 PTB  00004                    2230 SR        000000000000 FUJITSU TEN (THAILAN170KPFL0190190                                                                                                                              *          20170718WMF1707184.TXT
MDDDH7252460201707                D89828070100PV1D20170722000060SPEAKER ASM                   M IMCTM S5MB11 FTTL  07070IMCT  S5 PTB  00004                    0230 SR        000000000000 FUJITSU TEN (THAILAN170KPFL0191191                                                                                                                              *          20170718WMF1707184.TXT
MDDDH7252461201707                D89828070100PV1D20170722000060SPEAKER ASM                   M IMCTM S5MB11 FTTL  07070IMCT  S5 PTB  00004                    0400 SR        000000000000 FUJITSU TEN (THAILAN170KNAL0069069                                                                                                                              *          20170718WMF1707184.TXT
MDDDH7252462201707                D89828070100PV1D20170722000120SPEAKER ASM                   M IMCTM S5MB11 FTTL  07070IMCT  S5 PTB  00004                    0900 SR        000000000000 FUJITSU TEN (THAILAN170KPFL0192192170KRSL0052052                                                                                                                *          20170718WMF1707184.TXT
MDDDH7252463201707                D89828070100PV1D20170722000060SPEAKER ASM                   M IMCTM S5MB11 FTTL  07070IMCT  S5 PTB  00004                    1300 SR        000000000000 FUJITSU TEN (THAILAN170KNEL0135135                                                                                                                              *          20170718WMF1707184.TXT
MDDDH7252464201707                D89828070100PV1D20170722000060SPEAKER ASM                   M IMCTM S5MB11 FTTL  07070IMCT  S5 PTB  00004                    1600 SR        000000000000 FUJITSU TEN (THAILAN170KNEL0136136                                                                                                                              *          20170718WMF1707184.TXT
MDDDH7252465201707                D89828070200PV1D20170722000060SPEAKER ASM                   M IMCTM S5MA14 FTTL  07070IMCT  S5 PTB  00005                    0900 SR        000000000000 FUJITSU TEN (THAILAN170KRSL0052052                                                                                                                              *          20170718WMF1707184.TXT
MDDDH7252466201707                D89828070300PT1D20170721000060SPEAKER ASM                   M IMCTM S5NB082FTTL  07070IMCT  S5 PTB  00015                    2230 SR        000000000000 FUJITSU TEN (THAILAN170KPFL0190190                                                                                                                              *          20170718WMF1707184.TXT
MDDDH7252467201707                D89828070300PT1D20170722000060SPEAKER ASM                   M IMCTM S5NB082FTTL  07070IMCT  S5 PTB  00015                    0230 SR        000000000000 FUJITSU TEN (THAILAN170KPFL0191191                                                                                                                              *          20170718WMF1707184.TXT
MDDDH7252468201707                D89828070300PT1D20170722000120SPEAKER ASM                   M IMCTM S5NB082FTTL  07070IMCT  S5 PTB  00015                    0900 SR        000000000000 FUJITSU TEN (THAILAN170KPFL0192192170KRSL0052052                                                                                                                *          20170718WMF1707184.TXT
MDDDH7252469201707                D89831228300PT1D20170721000030RADIO;AM/FM,CD                M IMCTM S5NC06 FTTL  07070IMCT  S5 CPB  00003                    2230 SR        000000000000 FUJITSU TEN (THAILAN170KPFL0190190                                                                                                                              *          20170718WMF1707184.TXT
MDDDH7252470201707                D89831228300PT1D20170722000030RADIO;AM/FM,CD                M IMCTM S5NC06 FTTL  07070IMCT  S5 CPB  00003                    0230 SR        000000000000 FUJITSU TEN (THAILAN170KPFL0191191                                                                                                                              *          20170718WMF1707184.TXT
MDDDH7252471201707                D89831228300PT1D20170722000030RADIO;AM/FM,CD                M IMCTM S5NC06 FTTL  07070IMCT  S5 CPB  00003                    0900 SR        000000000000 FUJITSU TEN (THAILAN170KPFL0192192                                                                                                                              *          20170718WMF1707184.TXT
MDDUH7231811201707                D89828070100PT4U20170722000030SPEAKER ASM                   M IMCTM S0FL05 FTTL  07070IMCT  S0 PTB  00004                    1300 SR        000000000000 FUJITSU TEN (THAILAN180LUEU0124124                                                                                                                              *          20170718WMF1707184.TXT
MDDUH7231812201707                D89828070100PT4U20170722000030SPEAKER ASM                   M IMCTM S0FL05 FTTL  07070IMCT  S0 PTB  00004                    2100 SR        000000000000 FUJITSU TEN (THAILAN180LUFU0038038                                                                                                                              *          20170718WMF1707184.TXT
MDDUH7231813201707                D89828070200PV4U20170722000030SPEAKER ASM                   M IMCTM S0FR05 FTTL  07070IMCT  S0 PTB  00005                    1300 SR        000000000000 FUJITSU TEN (THAILAN180LUEU0124124                                                                                                                              *          20170718WMF1707184.TXT
MDDUH7231814201707                D89828070200PV4U20170722000030SPEAKER ASM                   M IMCTM S0FR05 FTTL  07070IMCT  S0 PTB  00005                    2100 SR        000000000000 FUJITSU TEN (THAILAN180LUFU0038038                                                                                                                              *          20170718WMF1707184.TXT
MDDUH7231815201707                D89828070300PT4U20170722000030SPEAKER ASM                   M IMCTM S9TS02 FTTL  07070IMCT  S9 PTB  00015                    1300 SR        000000000000 FUJITSU TEN (THAILAN180LUEU0124124                                                                                                                              *          20170718WMF1707184.TXT
MDDUH7231816201707                D89828070300PT4U20170722000030SPEAKER ASM                   M IMCTM S9TS02 FTTL  07070IMCT  S9 PTB  00015                    2100 SR        000000000000 FUJITSU TEN (THAILAN180LUFU0038038                                                                                                                              *          20170718WMF1707184.TXT
MDEDH7267735201707                D89828070100PV1D20170721000030SPEAKER ASM                   M IMCTM S5MB11 FTTL  07070IMCT  S5 PTB  00004                    2230 SR        000000000000 FUJITSU TEN (THAILAN17080NL0076076                                                                                                                              *          20170718WMF1707184.TXT
MDEDH7267736201707                D89828070100PV1D20170722000030SPEAKER ASM                   M IMCTM S5MB11 FTTL  07070IMCT  S5 PTB  00004                    0230 SR        000000000000 FUJITSU TEN (THAILAN17080NL0077077                                                                                                                              *          20170718WMF1707184.TXT
MDEDH7267737201707                D89828070100PV1D20170722000030SPEAKER ASM                   M IMCTM S5MB11 FTTL  07070IMCT  S5 PTB  00004                    0400 SR        000000000000 FUJITSU TEN (THAILAN17052TL0016016                                                                                                                              *          20170718WMF1707184.TXT
MDEDH7267738201707                D89828070100PV1D20170722000030SPEAKER ASM                   M IMCTM S5MB11 FTTL  07070IMCT  S5 PTB  00004                    0900 SR        000000000000 FUJITSU TEN (THAILAN17052TL0017017                                                                                                                              *          20170718WMF1707184.TXT
MDEDH7267739201707                D89828070100PV1D20170722000030SPEAKER ASM                   M IMCTM S5MB11 FTTL  07070IMCT  S5 PTB  00004                    1300 SR        000000000000 FUJITSU TEN (THAILAN17031ML0020020                                                                                                                              *          20170718WMF1707184.TXT
MDEDH7267740201707                D89828070100PV1D20170722000030SPEAKER ASM                   M IMCTM S5MB11 FTTL  07070IMCT  S5 PTB  00004                    1600 SR        000000000000 FUJITSU TEN (THAILAN17062ML0010010                                                                                                                              *          20170718WMF1707184.TXT
MDEDH7267741201707                D89828070100PV1D20170722000030SPEAKER ASM                   M IMCTM S5MB11 FTTL  07070IMCT  S5 PTB  00004                    2100 SR        000000000000 FUJITSU TEN (THAILAN17050RL0014014                                                                                                                              *          20170718WMF1707184.TXT
MDEDH7267742201707                D89828070100PV1D20170722000030SPEAKER ASM                   M IMCTM S5MB11 FTTL  07070IMCT  S5 PTB  00004                    2230 SR        000000000000 FUJITSU TEN (THAILAN17050RL0015015                                                                                                                              *          20170718WMF1707184.TXT
MDEDH7267743201707                D89828070100PV4D20170722000030SPEAKER ASM                   M IMCTM S0FL05 FTTL  07070IMCT  S0 PTB  00004                    0400 SR        000000000000 FUJITSU TEN (THAILAN17080NU0042042                                                                                                                              *          20170718WMF1707184.TXT
MDEDH7267744201707                D89828070100PV4D20170722000030SPEAKER ASM                   M IMCTM S0FL05 FTTL  07070IMCT  S0 PTB  00004                    1600 SR        000000000000 FUJITSU TEN (THAILAN17052TU0015015                                                                                                                              *          20170718WMF1707184.TXT
MDEDH7267745201707                D89828070200PV1D20170721000030SPEAKER ASM                   M IMCTM S5MA14 FTTL  07070IMCT  S5 PTB  00005                    2230 SR        000000000000 FUJITSU TEN (THAILAN17080NL0076076                                                                                                                              *          20170718WMF1707184.TXT
MDEDH7267746201707                D89828070200PV1D20170722000030SPEAKER ASM                   M IMCTM S5MA14 FTTL  07070IMCT  S5 PTB  00005                    0230 SR        000000000000 FUJITSU TEN (THAILAN17080NL0077077                                                                                                                              *          20170718WMF1707184.TXT
MDEDH7267747201707                D89828070200PV1D20170722000030SPEAKER ASM                   M IMCTM S5MA14 FTTL  07070IMCT  S5 PTB  00005                    1300 SR        000000000000 FUJITSU TEN (THAILAN17031ML0020020                                                                                                                              *          20170718WMF1707184.TXT
MDEDH7267748201707                D89828070200PV1D20170722000030SPEAKER ASM                   M IMCTM S5MA14 FTTL  07070IMCT  S5 PTB  00005                    2100 SR        000000000000 FUJITSU TEN (THAILAN17050RL0014014                                                                                                                              *          20170718WMF1707184.TXT
MDEDH7267749201707                D89828070200PV1D20170722000030SPEAKER ASM                   M IMCTM S5MA14 FTTL  07070IMCT  S5 PTB  00005                    2230 SR        000000000000 FUJITSU TEN (THAILAN17050RL0015015                                                                                                                              *          20170718WMF1707184.TXT
MDEDH7267750201707                D89828070200PV4D20170722000030SPEAKER ASM                   M IMCTM S0FR05 FTTL  07070IMCT  S0 PTB  00005                    0400 SR        000000000000 FUJITSU TEN (THAILAN17080NU0042042                                                                                                                              *          20170718WMF1707184.TXT
MDEDH7267751201707                D89828070300PT1D20170721000030SPEAKER ASM                   M IMCTM S5NB082FTTL  07070IMCT  S5 PTB  00015                    2230 SR        000000000000 FUJITSU TEN (THAILAN17080NL0076076                                                                                                                              *          20170718WMF1707184.TXT
MDEDH7267752201707                D89828070300PT1D20170722000030SPEAKER ASM                   M IMCTM S5NB082FTTL  07070IMCT  S5 PTB  00015                    0230 SR        000000000000 FUJITSU TEN (THAILAN17080NL0077077                                                                                                                              *          20170718WMF1707184.TXT
MDEDH7267753201707                D89828070300PT1D20170722000030SPEAKER ASM                   M IMCTM S5NB082FTTL  07070IMCT  S5 PTB  00015                    1300 SR        000000000000 FUJITSU TEN (THAILAN17031ML0020020                                                                                                                              *          20170718WMF1707184.TXT
MDEDH7267754201707                D89828070300PT1D20170722000030SPEAKER ASM                   M IMCTM S5NB082FTTL  07070IMCT  S5 PTB  00015                    1600 SR        000000000000 FUJITSU TEN (THAILAN17062ML0010010                                                                                                                              *          20170718WMF1707184.TXT
MDEDH7267755201707                D89828070300PT1D20170722000030SPEAKER ASM                   M IMCTM S5NB082FTTL  07070IMCT  S5 PTB  00015                    2100 SR        000000000000 FUJITSU TEN (THAILAN17050RL0014014                                                                                                                              *          20170718WMF1707184.TXT
MDEDH7267756201707                D89828070300PT1D20170722000030SPEAKER ASM                   M IMCTM S5NB082FTTL  07070IMCT  S5 PTB  00015                    2230 SR        000000000000 FUJITSU TEN (THAILAN17050RL0015015                                                                                                                              *          20170718WMF1707184.TXT
MDEDH7267757201707                D89828070300PT4D20170722000030SPEAKER ASM                   M IMCTM S9TS02 FTTL  07070IMCT  S9 PTB  00015                    0400 SR        000000000000 FUJITSU TEN (THAILAN17080NU0042042                                                                                                                              *          20170718WMF1707184.TXT
MDEDH7267758201707                D89829622410PT1D20170722000015RADIO;ASM DVD                 M IMCTM S5NC06 FTTL  07070IMCT  S5 PTB  00003                    1600 SR        000000000000 FUJITSU TEN (THAILAN17062ML0010010                                                                                                                              *          20170718WMF1707184.TXT
MDEDH7267759201707                D89829645410PT1D20170722000015RADIO;ASM DVD                 M IMCTM S5NC06 FTTL  07070IMCT  S5 PTB  00003                    2100 SR        000000000000 FUJITSU TEN (THAILAN17050RL0014014                                                                                                                              *          20170718WMF1707184.TXT
MDEDH7267760201707                D89829645410PT1D20170722000015RADIO;ASM DVD                 M IMCTM S5NC06 FTTL  07070IMCT  S5 PTB  00003                    2230 SR        000000000000 FUJITSU TEN (THAILAN17050RL0015015                                                                                                                              *          20170718WMF1707184.TXT
MDEUH7250950201707                D89828070100PT4U20170721000030SPEAKER ASM                   M IMCTM S0FL05 FTTL  07070IMCT  S0 PTB  00004                    2230 SR        000000000000 FUJITSU TEN (THAILAN170C16U0303303                                                                                                                              *          20170718WMF1707184.TXT
MDEUH7250951201707                D89828070100PT4U20170722000030SPEAKER ASM                   M IMCTM S0FL05 FTTL  07070IMCT  S0 PTB  00004                    0230 SR        000000000000 FUJITSU TEN (THAILAN18017TU0026026                                                                                                                              *          20170718WMF1707184.TXT
MDEUH7250952201707                D89828070100PT4U20170722000030SPEAKER ASM                   M IMCTM S0FL05 FTTL  07070IMCT  S0 PTB  00004                    0400 SR        000000000000 FUJITSU TEN (THAILAN170C13U0119119                                                                                                                              *          20170718WMF1707184.TXT
MDEUH7250953201707                D89828070100PT4U20170722000030SPEAKER ASM                   M IMCTM S0FL05 FTTL  07070IMCT  S0 PTB  00004                    0900 SR        000000000000 FUJITSU TEN (THAILAN170C16U0304304                                                                                                                              *          20170718WMF1707184.TXT
MDEUH7250954201707                D89828070100PT4U20170722000060SPEAKER ASM                   M IMCTM S0FL05 FTTL  07070IMCT  S0 PTB  00004                    1300 SR        000000000000 FUJITSU TEN (THAILAN170C13U0120120170C16U0305305                                                                                                                *          20170718WMF1707184.TXT
MDEUH7250955201707                D89828070100PT4U20170722000030SPEAKER ASM                   M IMCTM S0FL05 FTTL  07070IMCT  S0 PTB  00004                    2230 SR        000000000000 FUJITSU TEN (THAILAN18016TU0020020                                                                                                                              *          20170718WMF1707184.TXT
MDEUH7250956201707                D89828070200PV4U20170721000030SPEAKER ASM                   M IMCTM S0FR05 FTTL  07070IMCT  S0 PTB  00005                    2230 SR        000000000000 FUJITSU TEN (THAILAN170C16U0303303                                                                                                                              *          20170718WMF1707184.TXT
MDEUH7250957201707                D89828070200PV4U20170722000030SPEAKER ASM                   M IMCTM S0FR05 FTTL  07070IMCT  S0 PTB  00005                    0230 SR        000000000000 FUJITSU TEN (THAILAN18017TU0026026                                                                                                                              *          20170718WMF1707184.TXT
MDEUH7250958201707                D89828070200PV4U20170722000030SPEAKER ASM                   M IMCTM S0FR05 FTTL  07070IMCT  S0 PTB  00005                    0400 SR        000000000000 FUJITSU TEN (THAILAN170C13U0119119                                                                                                                              *          20170718WMF1707184.TXT
MDEUH7250959201707                D89828070200PV4U20170722000030SPEAKER ASM                   M IMCTM S0FR05 FTTL  07070IMCT  S0 PTB  00005                    0900 SR        000000000000 FUJITSU TEN (THAILAN170C16U0304304                                                                                                                              *          20170718WMF1707184.TXT
MDEUH7250960201707                D89828070200PV4U20170722000060SPEAKER ASM                   M IMCTM S0FR05 FTTL  07070IMCT  S0 PTB  00005                    1300 SR        000000000000 FUJITSU TEN (THAILAN170C13U0120120170C16U0305305                                                                                                                *          20170718WMF1707184.TXT
MDEUH7250961201707                D89828070200PV4U20170722000030SPEAKER ASM                   M IMCTM S0FR05 FTTL  07070IMCT  S0 PTB  00005                    2230 SR        000000000000 FUJITSU TEN (THAILAN18016TU0020020                                                                                                                              *          20170718WMF1707184.TXT
MDEUH7250962201707                D89828070300PT4U20170721000030SPEAKER ASM                   M IMCTM S9TS02 FTTL  07070IMCT  S9 PTB  00015                    2230 SR        000000000000 FUJITSU TEN (THAILAN170C16U0303303                                                                                                                              *          20170718WMF1707184.TXT
MDEUH7250963201707                D89828070300PT4U20170722000030SPEAKER ASM                   M IMCTM S9TS02 FTTL  07070IMCT  S9 PTB  00015                    0230 SR        000000000000 FUJITSU TEN (THAILAN18017TU0026026                                                                                                                              *          20170718WMF1707184.TXT
MDEUH7250964201707                D89828070300PT4U20170722000030SPEAKER ASM                   M IMCTM S9TS02 FTTL  07070IMCT  S9 PTB  00015                    0400 SR        000000000000 FUJITSU TEN (THAILAN170C13U0119119                                                                                                                              *          20170718WMF1707184.TXT
MDEUH7250965201707                D89828070300PT4U20170722000030SPEAKER ASM                   M IMCTM S9TS02 FTTL  07070IMCT  S9 PTB  00015                    0900 SR        000000000000 FUJITSU TEN (THAILAN170C16U0304304                                                                                                                              *          20170718WMF1707184.TXT
MDEUH7250966201707                D89828070300PT4U20170722000060SPEAKER ASM                   M IMCTM S9TS02 FTTL  07070IMCT  S9 PTB  00015                    1300 SR        000000000000 FUJITSU TEN (THAILAN170C13U0120120170C16U0305305                                                                                                                *          20170718WMF1707184.TXT
MDEUH7250967201707                D89828070300PT4U20170722000030SPEAKER ASM                   M IMCTM S9TS02 FTTL  07070IMCT  S9 PTB  00015                    2230 SR        000000000000 FUJITSU TEN (THAILAN18016TU0020020                                                                                                                              *          20170718WMF1707184.TXT
MDEUH7250968201707                D89848584700PT4U20170722000015RADIO;AM/FM CD D              M IMCTM S9CO001FTTL  07070IMCT  S9 PTB  00003                    2230 SR        000000000000 FUJITSU TEN (THAILAN18016TU0020020                                                                                                                              *          20170718WMF1707184.TXT
