REC2017070620170706ISUZU                              7      
MECKH7800619000000          IMKDC  89828070100P3YK20170724000008SPEAKER ASM                   M IMCTM IMKDC  FTTL  07070IMKDC KN*PTB  00004    K293G9020   001 0000 ES        000000000000 FUJITSU TEN (THAILAN                                                                                                                                            *E         20170706WMF1707061.TXT
MECKH7800620000000          IMKDC  89828070200P3YK20170724000008SPEAKER ASM                   M IMCTM IMKDC  FTTL  07070IMKDC KN*PTB  00005    K293G9020   001 0000 ES        000000000000 FUJITSU TEN (THAILAN                                                                                                                                            *E         20170706WMF1707061.TXT
MECKH7800621000000          IMKDC  89828070300P3YK20170724000008SPEAKER ASM                   M IMCTM IMKDC  FTTL  07070IMKDC KN*PTB  00015    K293G9020   001 0000 ES        000000000000 FUJITSU TEN (THAILAN                                                                                                                                            *E         20170706WMF1707061.TXT
MGEDH5602110201708                 89828070100PV1D20170724000008SPEAKER ASM                   M       ST00000FTTL  07070IMCT  ST PTB  000041 DC                0000 SR        000000000000 FUJITSU TEN (THAILAN18071TL000100218075TL0001002                                                                                                                           20170706WMF1707061.TXT
MGEDH5602112201708                 89828070200PV1D20170724000008SPEAKER ASM                   M       ST00000FTTL  07070IMCT  ST PTB  000051 DC                0000 SR        000000000000 FUJITSU TEN (THAILAN18071TL000100218075TL0001002                                                                                                                           20170706WMF1707061.TXT
MGEDH5602114201708                 89828070300PT1D20170724000008SPEAKER ASM                   M       ST00000FTTL  07070IMCT  ST PTB  000151 DC                0000 SR        000000000000 FUJITSU TEN (THAILAN18071TL000100218075TL0001002                                                                                                                           20170706WMF1707061.TXT
MGEDH5602115201708                 89831229200PT1D20170724000004RADIO;AM/FM,CD                M       ST00000FTTL  07070IMCT  ST PTB  000031 DC                0000 SR        000000000000 FUJITSU TEN (THAILAN18071TL000100218075TL0001002                                                                                                                           20170706WMF1707061.TXT
