REC2017062920170629ISUZU                              35     
MAKK76108360201706D1               89805293700P3YK20170711000150SPEAKER ASM                   M IMCTM CM1    FTTL  07070IMKDC KA   PTB00003  K0                0900DES        000000000000 FUJITSU TEN (THAILAN                                                                                                                                            *G         20170629WMF1706291.TXT
MAKK76108361201706D1               89805293700P3YK20170712000150SPEAKER ASM                   M IMCTM CM1    FTTL  07070IMKDC KA   PTB00003  K0                0900DES        000000000000 FUJITSU TEN (THAILAN                                                                                                                                            *G         20170629WMF1706291.TXT
MAKK76108362201706D1               89805293700P3YK20170713000090SPEAKER ASM                   M IMCTM CM1    FTTL  07070IMKDC KA   PTB00003  K0                0900DES        000000000000 FUJITSU TEN (THAILAN                                                                                                                                            *G         20170629WMF1706291.TXT
MAKK76108363201706D1               89805293700P3YK20170714000180SPEAKER ASM                   M IMCTM CM1    FTTL  07070IMKDC KA   PTB00003  K0                0900DES        000000000000 FUJITSU TEN (THAILAN                                                                                                                                            *G         20170629WMF1706291.TXT
MAKK76108364201706D1               89805293700P3YK20170715000150SPEAKER ASM                   M IMCTM CM1    FTTL  07070IMKDC KA   PTB00003  K0                0900DES        000000000000 FUJITSU TEN (THAILAN                                                                                                                                            *G         20170629WMF1706291.TXT
MAKK76108365201706D1               89805294000P3YK20170711000060SPEAKER ASM                   M IMCTM CM1    FTTL  07070IMKDC KA   PTB00015  K0                0900DES        000000000000 FUJITSU TEN (THAILAN                                                                                                                                            *G         20170629WMF1706291.TXT
MAKK76108366201706D1               89805294000P3YK20170712000030SPEAKER ASM                   M IMCTM CM1    FTTL  07070IMKDC KA   PTB00015  K0                0900DES        000000000000 FUJITSU TEN (THAILAN                                                                                                                                            *G         20170629WMF1706291.TXT
MAKK76108367201706D1               89805294000P3YK20170713000030SPEAKER ASM                   M IMCTM CM1    FTTL  07070IMKDC KA   PTB00015  K0                0900DES        000000000000 FUJITSU TEN (THAILAN                                                                                                                                            *G         20170629WMF1706291.TXT
MAKK76108368201706D1               89805294000P3YK20170714000090SPEAKER ASM                   M IMCTM CM1    FTTL  07070IMKDC KA   PTB00015  K0                0900DES        000000000000 FUJITSU TEN (THAILAN                                                                                                                                            *G         20170629WMF1706291.TXT
MAKK76108369201706D1               89805294000P3YK20170715000060SPEAKER ASM                   M IMCTM CM1    FTTL  07070IMKDC KA   PTB00015  K0                0900DES        000000000000 FUJITSU TEN (THAILAN                                                                                                                                            *G         20170629WMF1706291.TXT
MAKK76108370201706D1               89805294100P3YK20170711000030SPEAKER ASM                   M IMCTM CM1    FTTL  07070IMKDC KA   PTB00005  K0                0900DES        000000000000 FUJITSU TEN (THAILAN                                                                                                                                            *G         20170629WMF1706291.TXT
MAKK76108371201706D1               89805294100P3YK20170712000030SPEAKER ASM                   M IMCTM CM1    FTTL  07070IMKDC KA   PTB00005  K0                0900DES        000000000000 FUJITSU TEN (THAILAN                                                                                                                                            *G         20170629WMF1706291.TXT
MAKK76108372201706D1               89805294100P3YK20170713000030SPEAKER ASM                   M IMCTM CM1    FTTL  07070IMKDC KA   PTB00005  K0                0900DES        000000000000 FUJITSU TEN (THAILAN                                                                                                                                            *G         20170629WMF1706291.TXT
MAKK76108373201706D1               89805294100P3YK20170714000090SPEAKER ASM                   M IMCTM CM1    FTTL  07070IMKDC KA   PTB00005  K0                0900DES        000000000000 FUJITSU TEN (THAILAN                                                                                                                                            *G         20170629WMF1706291.TXT
MAKK76108374201706D1               89805294100P3YK20170715000030SPEAKER ASM                   M IMCTM CM1    FTTL  07070IMKDC KA   PTB00005  K0                0900DES        000000000000 FUJITSU TEN (THAILAN                                                                                                                                            *G         20170629WMF1706291.TXT
MAKK76108375201706D1               89825451200P3YK20170712000030SPEAKER ASM;ROOF              M IMCTM CM1    FTTL  07070IMKDC KA   PTB00015  K0                0900DES        000000000000 FUJITSU TEN (THAILAN                                                                                                                                            *G         20170629WMF1706291.TXT
MAKK76108376201706D1               89825451200P3YK20170713000030SPEAKER ASM;ROOF              M IMCTM CM1    FTTL  07070IMKDC KA   PTB00015  K0                0900DES        000000000000 FUJITSU TEN (THAILAN                                                                                                                                            *G         20170629WMF1706291.TXT
MAKK76108377201706D1               89825451200P3YK20170715000060SPEAKER ASM;ROOF              M IMCTM CM1    FTTL  07070IMKDC KA   PTB00015  K0                0900DES        000000000000 FUJITSU TEN (THAILAN                                                                                                                                            *G         20170629WMF1706291.TXT
MAKK76108378201706D1               89828070100P3YK20170711000150SPEAKER ASM                   M IMCTM CM1    FTTL  07070IMKDC KA PTB  00003  K0                0900DES        000000000000 FUJITSU TEN (THAILAN                                                                                                                                            *G         20170629WMF1706291.TXT
MAKK76108379201706D1               89828070100P3YK20170712000150SPEAKER ASM                   M IMCTM CM1    FTTL  07070IMKDC KA PTB  00003  K0                0900DES        000000000000 FUJITSU TEN (THAILAN                                                                                                                                            *G         20170629WMF1706291.TXT
MAKK76108380201706D1               89828070100P3YK20170713000180SPEAKER ASM                   M IMCTM CM1    FTTL  07070IMKDC KA PTB  00003  K0                0900DES        000000000000 FUJITSU TEN (THAILAN                                                                                                                                            *G         20170629WMF1706291.TXT
MAKK76108381201706D1               89828070100P3YK20170714000120SPEAKER ASM                   M IMCTM CM1    FTTL  07070IMKDC KA PTB  00003  K0                0900DES        000000000000 FUJITSU TEN (THAILAN                                                                                                                                            *G         20170629WMF1706291.TXT
MAKK76108382201706D1               89828070100P3YK20170715000150SPEAKER ASM                   M IMCTM CM1    FTTL  07070IMKDC KA PTB  00004  K0                0900DES        000000000000 FUJITSU TEN (THAILAN                                                                                                                                            *G         20170629WMF1706291.TXT
MAKK76108383201706D1               89828070200P3YK20170711000060SPEAKER ASM                   M IMCTM CM1    FTTL  07070IMKDC KA PTB  00005  K0                0900DES        000000000000 FUJITSU TEN (THAILAN                                                                                                                                            *G         20170629WMF1706291.TXT
MAKK76108384201706D1               89828070200P3YK20170712000090SPEAKER ASM                   M IMCTM CM1    FTTL  07070IMKDC KA PTB  00005  K0                0900DES        000000000000 FUJITSU TEN (THAILAN                                                                                                                                            *G         20170629WMF1706291.TXT
MAKK76108385201706D1               89828070200P3YK20170713000090SPEAKER ASM                   M IMCTM CM1    FTTL  07070IMKDC KA PTB  00005  K0                0900DES        000000000000 FUJITSU TEN (THAILAN                                                                                                                                            *G         20170629WMF1706291.TXT
MAKK76108386201706D1               89828070200P3YK20170714000030SPEAKER ASM                   M IMCTM CM1    FTTL  07070IMKDC KA PTB  00005  K0                0900DES        000000000000 FUJITSU TEN (THAILAN                                                                                                                                            *G         20170629WMF1706291.TXT
MAKK76108387201706D1               89828070200P3YK20170715000120SPEAKER ASM                   M IMCTM CM1    FTTL  07070IMKDC KA PTB  00005  K0                0900DES        000000000000 FUJITSU TEN (THAILAN                                                                                                                                            *G         20170629WMF1706291.TXT
MAKK76108388201706D1               89828070300P3YK20170711000060SPEAKER ASM                   M IMCTM CM1    FTTL  07070IMKDC KA PTB  00015  K0                0900DES        000000000000 FUJITSU TEN (THAILAN                                                                                                                                            *G         20170629WMF1706291.TXT
MAKK76108389201706D1               89828070300P3YK20170712000120SPEAKER ASM                   M IMCTM CM1    FTTL  07070IMKDC KA PTB  00015  K0                0900DES        000000000000 FUJITSU TEN (THAILAN                                                                                                                                            *G         20170629WMF1706291.TXT
MAKK76108390201706D1               89828070300P3YK20170713000120SPEAKER ASM                   M IMCTM CM1    FTTL  07070IMKDC KA PTB  00015  K0                0900DES        000000000000 FUJITSU TEN (THAILAN                                                                                                                                            *G         20170629WMF1706291.TXT
MAKK76108391201706D1               89828070300P3YK20170714000030SPEAKER ASM                   M IMCTM CM1    FTTL  07070IMKDC KA PTB  00015  K0                0900DES        000000000000 FUJITSU TEN (THAILAN                                                                                                                                            *G         20170629WMF1706291.TXT
MAKK76108392201706D1               89828070300P3YK20170715000120SPEAKER ASM                   M IMCTM CM1    FTTL  07070IMKDC KA PTB  00015  K0                0900DES        000000000000 FUJITSU TEN (THAILAN                                                                                                                                            *G         20170629WMF1706291.TXT
MAKK76108393201706D1               89831228700P3YK20170713000015RADIO;AM/FM,CD                M IMCTM CM1    FTTL  07070IMKDC KA PTB  00003  K0                0900DES        000000000000 FUJITSU TEN (THAILAN                                                                                                                                            *G         20170629WMF1706291.TXT
MAKK76108394201706D1               89831228800P3YK20170712000015RADIO;AM/FM,CD                M IMCTM CM1    FTTL  07070IMKDC KA PTB  00003  K0                0900DES        000000000000 FUJITSU TEN (THAILAN                                                                                                                                            *G         20170629WMF1706291.TXT
