REC2017072120170721ISUZU                              65     
MDDDH7261051201707                D89821984430PT1D20170726000030RADIO;AM/FM,CD                M IMCTM S5NC06 FTTL  07070IMCT  S5 PTB  00005                    0230 SR        000000000000 FUJITSU TEN (THAILAN170KNEL0140140                                                                                                                              *          20170721WMF1707217.TXT
MDDDH7261052201707                D89821984430PT1D20170726000030RADIO;AM/FM,CD                M IMCTM S5NC06 FTTL  07070IMCT  S5 PTB  00005                    1300 SR        000000000000 FUJITSU TEN (THAILAN170KNDL0147147                                                                                                                              *          20170721WMF1707217.TXT
MDDDH7261053201707                D89828070100PV1D20170726000060SPEAKER ASM                   M IMCTM S5MB11 FTTL  07070IMCT  S5 PTB  00004                    0230 SR        000000000000 FUJITSU TEN (THAILAN170KNEL0140140                                                                                                                              *          20170721WMF1707217.TXT
MDDDH7261054201707                D89828070100PV1D20170726000060SPEAKER ASM                   M IMCTM S5MB11 FTTL  07070IMCT  S5 PTB  00004                    0900 SR        000000000000 FUJITSU TEN (THAILAN170KNAL0072072                                                                                                                              *          20170721WMF1707217.TXT
MDDDH7261055201707                D89828070100PV1D20170726000060SPEAKER ASM                   M IMCTM S5MB11 FTTL  07070IMCT  S5 PTB  00004                    1300 SR        000000000000 FUJITSU TEN (THAILAN170KNDL0147147                                                                                                                              *          20170721WMF1707217.TXT
MDDDH7261056201707                D89828070100PV1D20170726000060SPEAKER ASM                   M IMCTM S5MB11 FTTL  07070IMCT  S5 PTB  00004                    1600 SR        000000000000 FUJITSU TEN (THAILAN170KPSL0002002                                                                                                                              *          20170721WMF1707217.TXT
MDDDH7261057201707                D89828070300PT1D20170726000060SPEAKER ASM                   M IMCTM S5NB082FTTL  07070IMCT  S5 PTB  00015                    1600 SR        000000000000 FUJITSU TEN (THAILAN170KPSL0002002                                                                                                                              *          20170721WMF1707217.TXT
MDDDH7261058201707                D89831228300PT1D20170726000030RADIO;AM/FM,CD                M IMCTM S5NC06 FTTL  07070IMCT  S5 CPB  00003                    1600 SR        000000000000 FUJITSU TEN (THAILAN170KPSL0002002                                                                                                                              *          20170721WMF1707217.TXT
MDDUH7233973201707                D89828070100PT4U20170726000030SPEAKER ASM                   M IMCTM S0FL05 FTTL  07070IMCT  S0 PTB  00004                    1600 SR        000000000000 FUJITSU TEN (THAILAN180LUEU0126126                                                                                                                              *          20170721WMF1707217.TXT
MDDUH7233974201707                D89828070200PV4U20170726000030SPEAKER ASM                   M IMCTM S0FR05 FTTL  07070IMCT  S0 PTB  00005                    1600 SR        000000000000 FUJITSU TEN (THAILAN180LUEU0126126                                                                                                                              *          20170721WMF1707217.TXT
MDDUH7233975201707                D89828070300PT4U20170726000030SPEAKER ASM                   M IMCTM S9TS02 FTTL  07070IMCT  S9 PTB  00015                    1600 SR        000000000000 FUJITSU TEN (THAILAN180LUEU0126126                                                                                                                              *          20170721WMF1707217.TXT
MDEDH7290980201707                D89828070100PV1D20170725000060SPEAKER ASM                   M IMCTM S5MB11 FTTL  07070IMCT  S5 PTB  00004                    2230 SR        000000000000 FUJITSU TEN (THAILAN17079NL0076077                                                                                                                              *          20170721WMF1707217.TXT
MDEDH7290981201707                D89828070100PV1D20170726000030SPEAKER ASM                   M IMCTM S5MB11 FTTL  07070IMCT  S5 PTB  00004                    0230 SR        000000000000 FUJITSU TEN (THAILAN17022ML0026026                                                                                                                              *          20170721WMF1707217.TXT
MDEDH7290982201707                D89828070100PV1D20170726000120SPEAKER ASM                   M IMCTM S5MB11 FTTL  07070IMCT  S5 PTB  00004                    0400 SR        000000000000 FUJITSU TEN (THAILAN17022ML002702717026NL001901917056PL000100117080NL0083083                                                                                    *          20170721WMF1707217.TXT
MDEDH7290983201707                D89828070100PV1D20170726000060SPEAKER ASM                   M IMCTM S5MB11 FTTL  07070IMCT  S5 PTB  00004                    0900 SR        000000000000 FUJITSU TEN (THAILAN17026NL002002017044ML0014014                                                                                                                *          20170721WMF1707217.TXT
MDEDH7290984201707                D89828070100PV1D20170726000090SPEAKER ASM                   M IMCTM S5MB11 FTTL  07070IMCT  S5 PTB  00004                    1300 SR        000000000000 FUJITSU TEN (THAILAN17034PL003003117052TL0018018                                                                                                                *          20170721WMF1707217.TXT
MDEDH7290985201707                D89828070100PV1D20170726000090SPEAKER ASM                   M IMCTM S5MB11 FTTL  07070IMCT  S5 PTB  00004                    1600 SR        000000000000 FUJITSU TEN (THAILAN17029ML002302317032PL000500517052TL0019019                                                                                                  *          20170721WMF1707217.TXT
MDEDH7290986201707                D89828070100PV1D20170726000060SPEAKER ASM                   M IMCTM S5MB11 FTTL  07070IMCT  S5 PTB  00004                    2100 SR        000000000000 FUJITSU TEN (THAILAN17020ML001501517046QL0017017                                                                                                                *          20170721WMF1707217.TXT
MDEDH7290987201707                D89828070100PV1D20170726000030SPEAKER ASM                   M IMCTM S5MB11 FTTL  07070IMCT  S5 PTB  00004                    2230 SR        000000000000 FUJITSU TEN (THAILAN17032QL0001001                                                                                                                              *          20170721WMF1707217.TXT
MDEDH7290988201707                D89828070100PV4D20170726000030SPEAKER ASM                   M IMCTM S0FL05 FTTL  07070IMCT  S0 PTB  00004                    0400 SR        000000000000 FUJITSU TEN (THAILAN17018MU0011011                                                                                                                              *          20170721WMF1707217.TXT
MDEDH7290989201707                D89828070100PV4D20170726000030SPEAKER ASM                   M IMCTM S0FL05 FTTL  07070IMCT  S0 PTB  00004                    0900 SR        000000000000 FUJITSU TEN (THAILAN17052TU0017017                                                                                                                              *          20170721WMF1707217.TXT
MDEDH7290990201707                D89828070100PV4D20170726000030SPEAKER ASM                   M IMCTM S0FL05 FTTL  07070IMCT  S0 PTB  00004                    2230 SR        000000000000 FUJITSU TEN (THAILAN17018MU0012012                                                                                                                              *          20170721WMF1707217.TXT
MDEDH7290991201707                D89828070200PV1D20170725000060SPEAKER ASM                   M IMCTM S5MA14 FTTL  07070IMCT  S5 PTB  00005                    2230 SR        000000000000 FUJITSU TEN (THAILAN17079NL0076077                                                                                                                              *          20170721WMF1707217.TXT
MDEDH7290992201707                D89828070200PV1D20170726000030SPEAKER ASM                   M IMCTM S5MA14 FTTL  07070IMCT  S5 PTB  00005                    0230 SR        000000000000 FUJITSU TEN (THAILAN17022ML0026026                                                                                                                              *          20170721WMF1707217.TXT
MDEDH7290993201707                D89828070200PV1D20170726000090SPEAKER ASM                   M IMCTM S5MA14 FTTL  07070IMCT  S5 PTB  00005                    0400 SR        000000000000 FUJITSU TEN (THAILAN17022ML002702717026NL001901917080NL0083083                                                                                                  *          20170721WMF1707217.TXT
MDEDH7290994201707                D89828070200PV1D20170726000030SPEAKER ASM                   M IMCTM S5MA14 FTTL  07070IMCT  S5 PTB  00005                    0900 SR        000000000000 FUJITSU TEN (THAILAN17026NL0020020                                                                                                                              *          20170721WMF1707217.TXT
MDEDH7290995201707                D89828070200PV1D20170726000060SPEAKER ASM                   M IMCTM S5MA14 FTTL  07070IMCT  S5 PTB  00005                    1300 SR        000000000000 FUJITSU TEN (THAILAN17034PL0030031                                                                                                                              *          20170721WMF1707217.TXT
MDEDH7290996201707                D89828070200PV1D20170726000060SPEAKER ASM                   M IMCTM S5MA14 FTTL  07070IMCT  S5 PTB  00005                    1600 SR        000000000000 FUJITSU TEN (THAILAN17029ML002302317032PL0005005                                                                                                                *          20170721WMF1707217.TXT
MDEDH7290997201707                D89828070200PV1D20170726000060SPEAKER ASM                   M IMCTM S5MA14 FTTL  07070IMCT  S5 PTB  00005                    2100 SR        000000000000 FUJITSU TEN (THAILAN17020ML001501517046QL0017017                                                                                                                *          20170721WMF1707217.TXT
MDEDH7290998201707                D89828070200PV1D20170726000030SPEAKER ASM                   M IMCTM S5MA14 FTTL  07070IMCT  S5 PTB  00005                    2230 SR        000000000000 FUJITSU TEN (THAILAN17032QL0001001                                                                                                                              *          20170721WMF1707217.TXT
MDEDH7290999201707                D89828070200PV4D20170726000030SPEAKER ASM                   M IMCTM S0FR05 FTTL  07070IMCT  S0 PTB  00005                    0400 SR        000000000000 FUJITSU TEN (THAILAN17018MU0011011                                                                                                                              *          20170721WMF1707217.TXT
MDEDH7291000201707                D89828070200PV4D20170726000030SPEAKER ASM                   M IMCTM S0FR05 FTTL  07070IMCT  S0 PTB  00005                    2230 SR        000000000000 FUJITSU TEN (THAILAN17018MU0012012                                                                                                                              *          20170721WMF1707217.TXT
MDEDH7291001201707                D89828070300PT1D20170725000060SPEAKER ASM                   M IMCTM S5NB082FTTL  07070IMCT  S5 PTB  00015                    2230 SR        000000000000 FUJITSU TEN (THAILAN17079NL0076077                                                                                                                              *          20170721WMF1707217.TXT
MDEDH7291002201707                D89828070300PT1D20170726000030SPEAKER ASM                   M IMCTM S5NB082FTTL  07070IMCT  S5 PTB  00015                    0230 SR        000000000000 FUJITSU TEN (THAILAN17022ML0026026                                                                                                                              *          20170721WMF1707217.TXT
MDEDH7291003201707                D89828070300PT1D20170726000090SPEAKER ASM                   M IMCTM S5NB082FTTL  07070IMCT  S5 PTB  00015                    0400 SR        000000000000 FUJITSU TEN (THAILAN17022ML002702717026NL001901917080NL0083083                                                                                                  *          20170721WMF1707217.TXT
MDEDH7291004201707                D89828070300PT1D20170726000030SPEAKER ASM                   M IMCTM S5NB082FTTL  07070IMCT  S5 PTB  00015                    0900 SR        000000000000 FUJITSU TEN (THAILAN17026NL0020020                                                                                                                              *          20170721WMF1707217.TXT
MDEDH7291005201707                D89828070300PT1D20170726000060SPEAKER ASM                   M IMCTM S5NB082FTTL  07070IMCT  S5 PTB  00015                    1300 SR        000000000000 FUJITSU TEN (THAILAN17034PL0030031                                                                                                                              *          20170721WMF1707217.TXT
MDEDH7291006201707                D89828070300PT1D20170726000060SPEAKER ASM                   M IMCTM S5NB082FTTL  07070IMCT  S5 PTB  00015                    1600 SR        000000000000 FUJITSU TEN (THAILAN17029ML002302317032PL0005005                                                                                                                *          20170721WMF1707217.TXT
MDEDH7291007201707                D89828070300PT1D20170726000060SPEAKER ASM                   M IMCTM S5NB082FTTL  07070IMCT  S5 PTB  00015                    2100 SR        000000000000 FUJITSU TEN (THAILAN17020ML001501517046QL0017017                                                                                                                *          20170721WMF1707217.TXT
MDEDH7291008201707                D89828070300PT1D20170726000030SPEAKER ASM                   M IMCTM S5NB082FTTL  07070IMCT  S5 PTB  00015                    2230 SR        000000000000 FUJITSU TEN (THAILAN17032QL0001001                                                                                                                              *          20170721WMF1707217.TXT
MDEDH7291009201707                D89828070300PT4D20170726000030SPEAKER ASM                   M IMCTM S9TS02 FTTL  07070IMCT  S9 PTB  00015                    0400 SR        000000000000 FUJITSU TEN (THAILAN17018MU0011011                                                                                                                              *          20170721WMF1707217.TXT
MDEDH7291010201707                D89828070300PT4D20170726000030SPEAKER ASM                   M IMCTM S9TS02 FTTL  07070IMCT  S9 PTB  00015                    2230 SR        000000000000 FUJITSU TEN (THAILAN17018MU0012012                                                                                                                              *          20170721WMF1707217.TXT
MDEDH7291011201707                D89829645310PT1D20170726000015RADIO;ASM DVD                 M IMCTM S5NC06 FTTL  07070IMCT  S5 PTB  00003                    1600 SR        000000000000 FUJITSU TEN (THAILAN17032PL0005005                                                                                                                              *          20170721WMF1707217.TXT
MDEDH7291012201707                D89829645310PT4D20170726000015RADIO;ASM DVD                 M IMCTM S9CO001FTTL  07070IMCT  S9 PTB  00003                    0400 SR        000000000000 FUJITSU TEN (THAILAN17018MU0011011                                                                                                                              *          20170721WMF1707217.TXT
MDEDH7291013201707                D89829645310PT4D20170726000015RADIO;ASM DVD                 M IMCTM S9CO001FTTL  07070IMCT  S9 PTB  00003                    2230 SR        000000000000 FUJITSU TEN (THAILAN17018MU0012012                                                                                                                              *          20170721WMF1707217.TXT
MDEDH7291014201707                D89831229200PT1D20170726000015RADIO;AM/FM,CD                M IMCTM S5NC06 FTTL  07070IMCT  S5 PTB  00003                    2230 SR        000000000000 FUJITSU TEN (THAILAN17032QL0001001                                                                                                                              *          20170721WMF1707217.TXT
MDEDH7291015201707                D89848581800PT1D20170725000030RADIO;AM/FM CD D              M IMCTM S5NC06 FTTL  07070IMCT  S5 PTB  00003                    2230 SR        000000000000 FUJITSU TEN (THAILAN17079NL0076077                                                                                                                              *          20170721WMF1707217.TXT
MDEUH7267203201707                D89828070100PT4U20170725000030SPEAKER ASM                   M IMCTM S0FL05 FTTL  07070IMCT  S0 PTB  00004                    2230 SR        000000000000 FUJITSU TEN (THAILAN170C16U0315315                                                                                                                              *          20170721WMF1707217.TXT
MDEUH7267204201707                D89828070100PT4U20170726000030SPEAKER ASM                   M IMCTM S0FL05 FTTL  07070IMCT  S0 PTB  00004                    0230 SR        000000000000 FUJITSU TEN (THAILAN18017TU0028028                                                                                                                              *          20170721WMF1707217.TXT
MDEUH7267205201707                D89828070100PT4U20170726000060SPEAKER ASM                   M IMCTM S0FL05 FTTL  07070IMCT  S0 PTB  00004                    0900 SR        000000000000 FUJITSU TEN (THAILAN170C12U006606618023TU0123123                                                                                                                *          20170721WMF1707217.TXT
MDEUH7267206201707                D89828070100PT4U20170726000030SPEAKER ASM                   M IMCTM S0FL05 FTTL  07070IMCT  S0 PTB  00004                    1300 SR        000000000000 FUJITSU TEN (THAILAN170C13U0123123                                                                                                                              *          20170721WMF1707217.TXT
MDEUH7267207201707                D89828070100PT4U20170726000060SPEAKER ASM                   M IMCTM S0FL05 FTTL  07070IMCT  S0 PTB  00004                    1600 SR        000000000000 FUJITSU TEN (THAILAN170C16U031631618023TU0124124                                                                                                                *          20170721WMF1707217.TXT
MDEUH7267208201707                D89828070100PT4U20170726000030SPEAKER ASM                   M IMCTM S0FL05 FTTL  07070IMCT  S0 PTB  00004                    2100 SR        000000000000 FUJITSU TEN (THAILAN170C16U0317317                                                                                                                              *          20170721WMF1707217.TXT
MDEUH7267209201707                D89828070200PV4U20170725000030SPEAKER ASM                   M IMCTM S0FR05 FTTL  07070IMCT  S0 PTB  00005                    2230 SR        000000000000 FUJITSU TEN (THAILAN170C16U0315315                                                                                                                              *          20170721WMF1707217.TXT
MDEUH7267210201707                D89828070200PV4U20170726000030SPEAKER ASM                   M IMCTM S0FR05 FTTL  07070IMCT  S0 PTB  00005                    0230 SR        000000000000 FUJITSU TEN (THAILAN18017TU0028028                                                                                                                              *          20170721WMF1707217.TXT
MDEUH7267211201707                D89828070200PV4U20170726000060SPEAKER ASM                   M IMCTM S0FR05 FTTL  07070IMCT  S0 PTB  00005                    0900 SR        000000000000 FUJITSU TEN (THAILAN170C12U006606618023TU0123123                                                                                                                *          20170721WMF1707217.TXT
MDEUH7267212201707                D89828070200PV4U20170726000030SPEAKER ASM                   M IMCTM S0FR05 FTTL  07070IMCT  S0 PTB  00005                    1300 SR        000000000000 FUJITSU TEN (THAILAN170C13U0123123                                                                                                                              *          20170721WMF1707217.TXT
MDEUH7267213201707                D89828070200PV4U20170726000060SPEAKER ASM                   M IMCTM S0FR05 FTTL  07070IMCT  S0 PTB  00005                    1600 SR        000000000000 FUJITSU TEN (THAILAN170C16U031631618023TU0124124                                                                                                                *          20170721WMF1707217.TXT
MDEUH7267214201707                D89828070200PV4U20170726000030SPEAKER ASM                   M IMCTM S0FR05 FTTL  07070IMCT  S0 PTB  00005                    2100 SR        000000000000 FUJITSU TEN (THAILAN170C16U0317317                                                                                                                              *          20170721WMF1707217.TXT
MDEUH7267215201707                D89828070300PT4U20170725000030SPEAKER ASM                   M IMCTM S9TS02 FTTL  07070IMCT  S9 PTB  00015                    2230 SR        000000000000 FUJITSU TEN (THAILAN170C16U0315315                                                                                                                              *          20170721WMF1707217.TXT
MDEUH7267216201707                D89828070300PT4U20170726000030SPEAKER ASM                   M IMCTM S9TS02 FTTL  07070IMCT  S9 PTB  00015                    0230 SR        000000000000 FUJITSU TEN (THAILAN18017TU0028028                                                                                                                              *          20170721WMF1707217.TXT
MDEUH7267217201707                D89828070300PT4U20170726000060SPEAKER ASM                   M IMCTM S9TS02 FTTL  07070IMCT  S9 PTB  00015                    0900 SR        000000000000 FUJITSU TEN (THAILAN170C12U006606618023TU0123123                                                                                                                *          20170721WMF1707217.TXT
MDEUH7267218201707                D89828070300PT4U20170726000030SPEAKER ASM                   M IMCTM S9TS02 FTTL  07070IMCT  S9 PTB  00015                    1300 SR        000000000000 FUJITSU TEN (THAILAN170C13U0123123                                                                                                                              *          20170721WMF1707217.TXT
MDEUH7267219201707                D89828070300PT4U20170726000060SPEAKER ASM                   M IMCTM S9TS02 FTTL  07070IMCT  S9 PTB  00015                    1600 SR        000000000000 FUJITSU TEN (THAILAN170C16U031631618023TU0124124                                                                                                                *          20170721WMF1707217.TXT
MDEUH7267220201707                D89828070300PT4U20170726000030SPEAKER ASM                   M IMCTM S9TS02 FTTL  07070IMCT  S9 PTB  00015                    2100 SR        000000000000 FUJITSU TEN (THAILAN170C16U0317317                                                                                                                              *          20170721WMF1707217.TXT
