REC2017072720170727ISUZU                              60     
MDDDH7279044201708                D89821984430PT1D20170802000030RADIO;AM/FM,CD                M IMCTM S5NC06 FTTL  07070IMCT  S5 PTB  00005                    2230 SR        000000000000 FUJITSU TEN (THAILAN170KPAL0140140                                                                                                                              *          20170727WMF170727A.TXT
MDDDH7279045201708                D89821984430PT1D20170803000030RADIO;AM/FM,CD                M IMCTM S5NC06 FTTL  07070IMCT  S5 PTB  00005                    0400 SR        000000000000 FUJITSU TEN (THAILAN170KNDL0150150                                                                                                                              *          20170727WMF170727A.TXT
MDDDH7279046201708                D89821984430PT1D20170803000060RADIO;AM/FM,CD                M IMCTM S5NC06 FTTL  07070IMCT  S5 PTB  00005                    0900 SR        000000000000 FUJITSU TEN (THAILAN170KNEL0145145170KRAL0113113                                                                                                                *          20170727WMF170727A.TXT
MDDDH7279047201708                D89821984430PT1D20170803000030RADIO;AM/FM,CD                M IMCTM S5NC06 FTTL  07070IMCT  S5 PTB  00005                    1300 SR        000000000000 FUJITSU TEN (THAILAN170KPAL0141141                                                                                                                              *          20170727WMF170727A.TXT
MDDDH7279048201708                D89821984430PT1D20170803000060RADIO;AM/FM,CD                M IMCTM S5NC06 FTTL  07070IMCT  S5 PTB  00005                    1600 SR        000000000000 FUJITSU TEN (THAILAN170KNEL0146146170KRAL0114114                                                                                                                *          20170727WMF170727A.TXT
MDDDH7279049201708                D89828070100PV1D20170802000060SPEAKER ASM                   M IMCTM S5MB11 FTTL  07070IMCT  S5 PTB  00004                    2230 SR        000000000000 FUJITSU TEN (THAILAN170KPAL0140140                                                                                                                              *          20170727WMF170727A.TXT
MDDDH7279050201708                D89828070100PV1D20170803000060SPEAKER ASM                   M IMCTM S5MB11 FTTL  07070IMCT  S5 PTB  00004                    0400 SR        000000000000 FUJITSU TEN (THAILAN170KNDL0150150                                                                                                                              *          20170727WMF170727A.TXT
MDDDH7279051201708                D89828070100PV1D20170803000120SPEAKER ASM                   M IMCTM S5MB11 FTTL  07070IMCT  S5 PTB  00004                    0900 SR        000000000000 FUJITSU TEN (THAILAN170KNEL0145145170KRAL0113113                                                                                                                *          20170727WMF170727A.TXT
MDDDH7279052201708                D89828070100PV1D20170803000060SPEAKER ASM                   M IMCTM S5MB11 FTTL  07070IMCT  S5 PTB  00004                    1300 SR        000000000000 FUJITSU TEN (THAILAN170KPAL0141141                                                                                                                              *          20170727WMF170727A.TXT
MDDDH7279053201708                D89828070100PV1D20170803000180SPEAKER ASM                   M IMCTM S5MB11 FTTL  07070IMCT  S5 PTB  00004                    1600 SR        000000000000 FUJITSU TEN (THAILAN170KNEL0146146170KPFL0194194170KRAL0114114                                                                                                  *          20170727WMF170727A.TXT
MDDDH7279054201708                D89828070300PT1D20170803000060SPEAKER ASM                   M IMCTM S5NB082FTTL  07070IMCT  S5 PTB  00015                    1600 SR        000000000000 FUJITSU TEN (THAILAN170KPFL0194194                                                                                                                              *          20170727WMF170727A.TXT
MDDDH7279055201708                D89831228300PT1D20170803000030RADIO;AM/FM,CD                M IMCTM S5NC06 FTTL  07070IMCT  S5 CPB  00003                    1600 SR        000000000000 FUJITSU TEN (THAILAN170KPFL0194194                                                                                                                              *          20170727WMF170727A.TXT
MDDUH7243071201708                D89828070100PT4U20170803000030SPEAKER ASM                   M IMCTM S0FL05 FTTL  07070IMCT  S0 PTB  00004                    1300 SR        000000000000 FUJITSU TEN (THAILAN180LUDU0217217                                                                                                                              *          20170727WMF170727A.TXT
MDDUH7243072201708                D89828070100PT4U20170803000060SPEAKER ASM                   M IMCTM S0FL05 FTTL  07070IMCT  S0 PTB  00004                    1600 SR        000000000000 FUJITSU TEN (THAILAN180LUAU0017017180LUDU0218218                                                                                                                *          20170727WMF170727A.TXT
MDDUH7243073201708                D89828070100PT4U20170803000030SPEAKER ASM                   M IMCTM S0FL05 FTTL  07070IMCT  S0 PTB  00004                    2100 SR        000000000000 FUJITSU TEN (THAILAN180LUFU0040040                                                                                                                              *          20170727WMF170727A.TXT
MDDUH7243074201708                D89828070100PT4U20170803000030SPEAKER ASM                   M IMCTM S0FL05 FTTL  07070IMCT  S0 PTB  00004                    2230 SR        000000000000 FUJITSU TEN (THAILAN180LUCU0063063                                                                                                                              *          20170727WMF170727A.TXT
MDDUH7243075201708                D89828070200PV4U20170803000030SPEAKER ASM                   M IMCTM S0FR05 FTTL  07070IMCT  S0 PTB  00005                    1300 SR        000000000000 FUJITSU TEN (THAILAN180LUDU0217217                                                                                                                              *          20170727WMF170727A.TXT
MDDUH7243076201708                D89828070200PV4U20170803000060SPEAKER ASM                   M IMCTM S0FR05 FTTL  07070IMCT  S0 PTB  00005                    1600 SR        000000000000 FUJITSU TEN (THAILAN180LUAU0017017180LUDU0218218                                                                                                                *          20170727WMF170727A.TXT
MDDUH7243077201708                D89828070200PV4U20170803000030SPEAKER ASM                   M IMCTM S0FR05 FTTL  07070IMCT  S0 PTB  00005                    2100 SR        000000000000 FUJITSU TEN (THAILAN180LUFU0040040                                                                                                                              *          20170727WMF170727A.TXT
MDDUH7243078201708                D89828070200PV4U20170803000030SPEAKER ASM                   M IMCTM S0FR05 FTTL  07070IMCT  S0 PTB  00005                    2230 SR        000000000000 FUJITSU TEN (THAILAN180LUCU0063063                                                                                                                              *          20170727WMF170727A.TXT
MDDUH7243079201708                D89828070300PT4U20170803000030SPEAKER ASM                   M IMCTM S9TS02 FTTL  07070IMCT  S9 PTB  00015                    1300 SR        000000000000 FUJITSU TEN (THAILAN180LUDU0217217                                                                                                                              *          20170727WMF170727A.TXT
MDDUH7243080201708                D89828070300PT4U20170803000060SPEAKER ASM                   M IMCTM S9TS02 FTTL  07070IMCT  S9 PTB  00015                    1600 SR        000000000000 FUJITSU TEN (THAILAN180LUAU0017017180LUDU0218218                                                                                                                *          20170727WMF170727A.TXT
MDDUH7243081201708                D89828070300PT4U20170803000030SPEAKER ASM                   M IMCTM S9TS02 FTTL  07070IMCT  S9 PTB  00015                    2100 SR        000000000000 FUJITSU TEN (THAILAN180LUFU0040040                                                                                                                              *          20170727WMF170727A.TXT
MDDUH7243082201708                D89828070300PT4U20170803000030SPEAKER ASM                   M IMCTM S9TS02 FTTL  07070IMCT  S9 PTB  00015                    2230 SR        000000000000 FUJITSU TEN (THAILAN180LUCU0063063                                                                                                                              *          20170727WMF170727A.TXT
MDDUH7243083201708                D89831228400PT4U20170803000015RADIO;AM/FM,CD                M IMCTM S9CO001FTTL  07070IMCT  S9 CPB  00003                    1600 SR        000000000000 FUJITSU TEN (THAILAN180LUAU0017017                                                                                                                              *          20170727WMF170727A.TXT
MDDUH7243084201708                D89835097910PT4U20170803000015RADIO;ASM DVD                 M IMCTM S9TS01 FTTL  07070IMCT  S9 PTB  00003                    2230 SR        000000000000 FUJITSU TEN (THAILAN180LUCU0063063                                                                                                                              *          20170727WMF170727A.TXT
MDEDH7323048201708                D89828070100PV1D20170802000030SPEAKER ASM                   M IMCTM S5MB11 FTTL  07070IMCT  S5 PTB  00004                    2230 SR        000000000000 FUJITSU TEN (THAILAN17010ML0028028                                                                                                                              *          20170727WMF170727A.TXT
MDEDH7323049201708                D89828070100PV1D20170803000090SPEAKER ASM                   M IMCTM S5MB11 FTTL  07070IMCT  S5 PTB  00004                    0230 SR        000000000000 FUJITSU TEN (THAILAN17008RL000600617010ML002902917032NL0013013                                                                                                  *          20170727WMF170727A.TXT
MDEDH7323050201708                D89828070100PV1D20170803000060SPEAKER ASM                   M IMCTM S5MB11 FTTL  07070IMCT  S5 PTB  00004                    0400 SR        000000000000 FUJITSU TEN (THAILAN17046QL0018019                                                                                                                              *          20170727WMF170727A.TXT
MDEDH7323051201708                D89828070100PV1D20170803000030SPEAKER ASM                   M IMCTM S5MB11 FTTL  07070IMCT  S5 PTB  00004                    0900 SR        000000000000 FUJITSU TEN (THAILAN17053NL0040040                                                                                                                              *          20170727WMF170727A.TXT
MDEDH7323052201708                D89828070100PV1D20170803000060SPEAKER ASM                   M IMCTM S5MB11 FTTL  07070IMCT  S5 PTB  00004                    1300 SR        000000000000 FUJITSU TEN (THAILAN17052TL0026027                                                                                                                              *          20170727WMF170727A.TXT
MDEDH7323053201708                D89828070100PV1D20170803000030SPEAKER ASM                   M IMCTM S5MB11 FTTL  07070IMCT  S5 PTB  00004                    1600 SR        000000000000 FUJITSU TEN (THAILAN17074NL0063063                                                                                                                              *          20170727WMF170727A.TXT
MDEDH7323054201708                D89828070100PV1D20170803000030SPEAKER ASM                   M IMCTM S5MB11 FTTL  07070IMCT  S5 PTB  00004                    2100 SR        000000000000 FUJITSU TEN (THAILAN17052TL0028028                                                                                                                              *          20170727WMF170727A.TXT
MDEDH7323055201708                D89828070100PV4D20170803000030SPEAKER ASM                   M IMCTM S0FL05 FTTL  07070IMCT  S0 PTB  00004                    0900 SR        000000000000 FUJITSU TEN (THAILAN16047KU0010010                                                                                                                              *          20170727WMF170727A.TXT
MDEDH7323056201708                D89828070200PV1D20170803000030SPEAKER ASM                   M IMCTM S5MA14 FTTL  07070IMCT  S5 PTB  00005                    0230 SR        000000000000 FUJITSU TEN (THAILAN17032NL0013013                                                                                                                              *          20170727WMF170727A.TXT
MDEDH7323057201708                D89828070200PV1D20170803000060SPEAKER ASM                   M IMCTM S5MA14 FTTL  07070IMCT  S5 PTB  00005                    0400 SR        000000000000 FUJITSU TEN (THAILAN17046QL0018019                                                                                                                              *          20170727WMF170727A.TXT
MDEDH7323058201708                D89828070200PV1D20170803000030SPEAKER ASM                   M IMCTM S5MA14 FTTL  07070IMCT  S5 PTB  00005                    1600 SR        000000000000 FUJITSU TEN (THAILAN17074NL0063063                                                                                                                              *          20170727WMF170727A.TXT
MDEDH7323059201708                D89828070200PV4D20170803000030SPEAKER ASM                   M IMCTM S0FR05 FTTL  07070IMCT  S0 PTB  00005                    0900 SR        000000000000 FUJITSU TEN (THAILAN16047KU0010010                                                                                                                              *          20170727WMF170727A.TXT
MDEDH7323060201708                D89828070300PT1D20170803000030SPEAKER ASM                   M IMCTM S5NB082FTTL  07070IMCT  S5 PTB  00015                    0230 SR        000000000000 FUJITSU TEN (THAILAN17032NL0013013                                                                                                                              *          20170727WMF170727A.TXT
MDEDH7323061201708                D89828070300PT1D20170803000060SPEAKER ASM                   M IMCTM S5NB082FTTL  07070IMCT  S5 PTB  00015                    0400 SR        000000000000 FUJITSU TEN (THAILAN17046QL0018019                                                                                                                              *          20170727WMF170727A.TXT
MDEDH7323062201708                D89828070300PT1D20170803000030SPEAKER ASM                   M IMCTM S5NB082FTTL  07070IMCT  S5 PTB  00015                    0900 SR        000000000000 FUJITSU TEN (THAILAN17053NL0040040                                                                                                                              *          20170727WMF170727A.TXT
MDEDH7323063201708                D89828070300PT1D20170803000030SPEAKER ASM                   M IMCTM S5NB082FTTL  07070IMCT  S5 PTB  00015                    1600 SR        000000000000 FUJITSU TEN (THAILAN17074NL0063063                                                                                                                              *          20170727WMF170727A.TXT
MDEDH7323064201708                D89828070300PT4D20170803000030SPEAKER ASM                   M IMCTM S9TS02 FTTL  07070IMCT  S9 PTB  00015                    0900 SR        000000000000 FUJITSU TEN (THAILAN16047KU0010010                                                                                                                              *          20170727WMF170727A.TXT
MDEDH7323065201708                D89848581800PT1D20170803000015RADIO;AM/FM CD D              M IMCTM S5NC06 FTTL  07070IMCT  S5 PTB  00003                    0900 SR        000000000000 FUJITSU TEN (THAILAN17053NL0040040                                                                                                                              *          20170727WMF170727A.TXT
MDEDH7323066201708                D89848581800PT1D20170803000015RADIO;AM/FM CD D              M IMCTM S5NC06 FTTL  07070IMCT  S5 PTB  00003                    1600 SR        000000000000 FUJITSU TEN (THAILAN17074NL0063063                                                                                                                              *          20170727WMF170727A.TXT
MDEUH7289415201708                D89828070100PT4U20170802000030SPEAKER ASM                   M IMCTM S0FL05 FTTL  07070IMCT  S0 PTB  00004                    2230 SR        000000000000 FUJITSU TEN (THAILAN18022TU0061061                                                                                                                              *          20170727WMF170727A.TXT
MDEUH7289416201708                D89828070100PT4U20170803000030SPEAKER ASM                   M IMCTM S0FL05 FTTL  07070IMCT  S0 PTB  00004                    0230 SR        000000000000 FUJITSU TEN (THAILAN170C13U0127127                                                                                                                              *          20170727WMF170727A.TXT
MDEUH7289417201708                D89828070100PT4U20170803000030SPEAKER ASM                   M IMCTM S0FL05 FTTL  07070IMCT  S0 PTB  00004                    0400 SR        000000000000 FUJITSU TEN (THAILAN170C12U0073073                                                                                                                              *          20170727WMF170727A.TXT
MDEUH7289418201708                D89828070100PT4U20170803000060SPEAKER ASM                   M IMCTM S0FL05 FTTL  07070IMCT  S0 PTB  00004                    0900 SR        000000000000 FUJITSU TEN (THAILAN170C13U012812818024TU0017017                                                                                                                *          20170727WMF170727A.TXT
MDEUH7289419201708                D89828070100PT4U20170803000030SPEAKER ASM                   M IMCTM S0FL05 FTTL  07070IMCT  S0 PTB  00004                    1600 SR        000000000000 FUJITSU TEN (THAILAN18022TU0062062                                                                                                                              *          20170727WMF170727A.TXT
MDEUH7289420201708                D89828070200PV4U20170802000030SPEAKER ASM                   M IMCTM S0FR05 FTTL  07070IMCT  S0 PTB  00005                    2230 SR        000000000000 FUJITSU TEN (THAILAN18022TU0061061                                                                                                                              *          20170727WMF170727A.TXT
MDEUH7289421201708                D89828070200PV4U20170803000030SPEAKER ASM                   M IMCTM S0FR05 FTTL  07070IMCT  S0 PTB  00005                    0230 SR        000000000000 FUJITSU TEN (THAILAN170C13U0127127                                                                                                                              *          20170727WMF170727A.TXT
MDEUH7289422201708                D89828070200PV4U20170803000030SPEAKER ASM                   M IMCTM S0FR05 FTTL  07070IMCT  S0 PTB  00005                    0400 SR        000000000000 FUJITSU TEN (THAILAN170C12U0073073                                                                                                                              *          20170727WMF170727A.TXT
MDEUH7289423201708                D89828070200PV4U20170803000060SPEAKER ASM                   M IMCTM S0FR05 FTTL  07070IMCT  S0 PTB  00005                    0900 SR        000000000000 FUJITSU TEN (THAILAN170C13U012812818024TU0017017                                                                                                                *          20170727WMF170727A.TXT
MDEUH7289424201708                D89828070200PV4U20170803000030SPEAKER ASM                   M IMCTM S0FR05 FTTL  07070IMCT  S0 PTB  00005                    1600 SR        000000000000 FUJITSU TEN (THAILAN18022TU0062062                                                                                                                              *          20170727WMF170727A.TXT
MDEUH7289425201708                D89828070300PT4U20170802000030SPEAKER ASM                   M IMCTM S9TS02 FTTL  07070IMCT  S9 PTB  00015                    2230 SR        000000000000 FUJITSU TEN (THAILAN18022TU0061061                                                                                                                              *          20170727WMF170727A.TXT
MDEUH7289426201708                D89828070300PT4U20170803000030SPEAKER ASM                   M IMCTM S9TS02 FTTL  07070IMCT  S9 PTB  00015                    0230 SR        000000000000 FUJITSU TEN (THAILAN170C13U0127127                                                                                                                              *          20170727WMF170727A.TXT
MDEUH7289427201708                D89828070300PT4U20170803000030SPEAKER ASM                   M IMCTM S9TS02 FTTL  07070IMCT  S9 PTB  00015                    0400 SR        000000000000 FUJITSU TEN (THAILAN170C12U0073073                                                                                                                              *          20170727WMF170727A.TXT
MDEUH7289428201708                D89828070300PT4U20170803000060SPEAKER ASM                   M IMCTM S9TS02 FTTL  07070IMCT  S9 PTB  00015                    0900 SR        000000000000 FUJITSU TEN (THAILAN170C13U012812818024TU0017017                                                                                                                *          20170727WMF170727A.TXT
MDEUH7289429201708                D89828070300PT4U20170803000030SPEAKER ASM                   M IMCTM S9TS02 FTTL  07070IMCT  S9 PTB  00015                    1600 SR        000000000000 FUJITSU TEN (THAILAN18022TU0062062                                                                                                                              *          20170727WMF170727A.TXT
