REC2017071720170717ISUZU                              55     
MDDDH7248549201707                D89821984430PT1D20170720000030RADIO;AM/FM,CD                M IMCTM S5NC06 FTTL  07070IMCT  S5 PTB  00005                    2230 SR        000000000000 FUJITSU TEN (THAILAN170KNDL0146146                                                                                                                              *          20170717WMF1707174.TXT
MDDDH7248550201707                D89821984430PT1D20170721000030RADIO;AM/FM,CD                M IMCTM S5NC06 FTTL  07070IMCT  S5 PTB  00005                    0230 SR        000000000000 FUJITSU TEN (THAILAN170KNEL0134134                                                                                                                              *          20170717WMF1707174.TXT
MDDDH7248551201707                D89821984430PT1D20170721000030RADIO;AM/FM,CD                M IMCTM S5NC06 FTTL  07070IMCT  S5 PTB  00005                    1600 SR        000000000000 FUJITSU TEN (THAILAN170KNCL0096096                                                                                                                              *          20170717WMF1707174.TXT
MDDDH7248552201707                D89821984430PT1D20170721000030RADIO;AM/FM,CD                M IMCTM S5NC06 FTTL  07070IMCT  S5 PTB  00005                    2100 SR        000000000000 FUJITSU TEN (THAILAN170KPAL0136136                                                                                                                              *          20170717WMF1707174.TXT
MDDDH7248553201707                D89828070100PV1D20170720000060SPEAKER ASM                   M IMCTM S5MB11 FTTL  07070IMCT  S5 PTB  00004                    2230 SR        000000000000 FUJITSU TEN (THAILAN170KNDL0146146                                                                                                                              *          20170717WMF1707174.TXT
MDDDH7248554201707                D89828070100PV1D20170721000060SPEAKER ASM                   M IMCTM S5MB11 FTTL  07070IMCT  S5 PTB  00004                    0230 SR        000000000000 FUJITSU TEN (THAILAN170KNEL0134134                                                                                                                              *          20170717WMF1707174.TXT
MDDDH7248555201707                D89828070100PV1D20170721000060SPEAKER ASM                   M IMCTM S5MB11 FTTL  07070IMCT  S5 PTB  00004                    0400 SR        000000000000 FUJITSU TEN (THAILAN170KNAL0068068                                                                                                                              *          20170717WMF1707174.TXT
MDDDH7248556201707                D89828070100PV1D20170721000060SPEAKER ASM                   M IMCTM S5MB11 FTTL  07070IMCT  S5 PTB  00004                    0900 SR        000000000000 FUJITSU TEN (THAILAN170KREL0042042                                                                                                                              *          20170717WMF1707174.TXT
MDDDH7248557201707                D89828070100PV1D20170721000120SPEAKER ASM                   M IMCTM S5MB11 FTTL  07070IMCT  S5 PTB  00004                    1600 SR        000000000000 FUJITSU TEN (THAILAN170KNCL0096096170KRJL0042042                                                                                                                *          20170717WMF1707174.TXT
MDDDH7248558201707                D89828070100PV1D20170721000060SPEAKER ASM                   M IMCTM S5MB11 FTTL  07070IMCT  S5 PTB  00004                    2100 SR        000000000000 FUJITSU TEN (THAILAN170KPAL0136136                                                                                                                              *          20170717WMF1707174.TXT
MDDDH7248559201707                D89828070200PV1D20170721000060SPEAKER ASM                   M IMCTM S5MA14 FTTL  07070IMCT  S5 PTB  00005                    0900 SR        000000000000 FUJITSU TEN (THAILAN170KREL0042042                                                                                                                              *          20170717WMF1707174.TXT
MDDDH7248560201707                D89828070200PV1D20170721000060SPEAKER ASM                   M IMCTM S5MA14 FTTL  07070IMCT  S5 PTB  00005                    1600 SR        000000000000 FUJITSU TEN (THAILAN170KRJL0042042                                                                                                                              *          20170717WMF1707174.TXT
MDDDH7248561201707                D89828070300PT1D20170721000060SPEAKER ASM                   M IMCTM S5NB082FTTL  07070IMCT  S5 PTB  00015                    0900 SR        000000000000 FUJITSU TEN (THAILAN170KREL0042042                                                                                                                              *          20170717WMF1707174.TXT
MDDDH7248562201707                D89828070300PT1D20170721000060SPEAKER ASM                   M IMCTM S5NB082FTTL  07070IMCT  S5 PTB  00015                    1600 SR        000000000000 FUJITSU TEN (THAILAN170KRJL0042042                                                                                                                              *          20170717WMF1707174.TXT
MDDDH7248563201707                D89831228400PT1D20170721000030RADIO;AM/FM,CD                M IMCTM S5NC06 FTTL  07070IMCT  S5 CPB  00003                    0900 SR        000000000000 FUJITSU TEN (THAILAN170KREL0042042                                                                                                                              *          20170717WMF1707174.TXT
MDDUH7229817201707                D89828070100PT4U20170721000030SPEAKER ASM                   M IMCTM S0FL05 FTTL  07070IMCT  S0 PTB  00004                    0400 SR        000000000000 FUJITSU TEN (THAILAN180LUDU0216216                                                                                                                              *          20170717WMF1707174.TXT
MDDUH7229818201707                D89828070100PT4U20170721000030SPEAKER ASM                   M IMCTM S0FL05 FTTL  07070IMCT  S0 PTB  00004                    1600 SR        000000000000 FUJITSU TEN (THAILAN180LUEU0123123                                                                                                                              *          20170717WMF1707174.TXT
MDDUH7229819201707                D89828070100PT4U20170721000030SPEAKER ASM                   M IMCTM S0FL05 FTTL  07070IMCT  S0 PTB  00004                    2100 SR        000000000000 FUJITSU TEN (THAILAN180LUFU0037037                                                                                                                              *          20170717WMF1707174.TXT
MDDUH7229820201707                D89828070200PV4U20170721000030SPEAKER ASM                   M IMCTM S0FR05 FTTL  07070IMCT  S0 PTB  00005                    0400 SR        000000000000 FUJITSU TEN (THAILAN180LUDU0216216                                                                                                                              *          20170717WMF1707174.TXT
MDDUH7229821201707                D89828070200PV4U20170721000030SPEAKER ASM                   M IMCTM S0FR05 FTTL  07070IMCT  S0 PTB  00005                    1600 SR        000000000000 FUJITSU TEN (THAILAN180LUEU0123123                                                                                                                              *          20170717WMF1707174.TXT
MDDUH7229822201707                D89828070200PV4U20170721000030SPEAKER ASM                   M IMCTM S0FR05 FTTL  07070IMCT  S0 PTB  00005                    2100 SR        000000000000 FUJITSU TEN (THAILAN180LUFU0037037                                                                                                                              *          20170717WMF1707174.TXT
MDDUH7229823201707                D89828070300PT4U20170721000030SPEAKER ASM                   M IMCTM S9TS02 FTTL  07070IMCT  S9 PTB  00015                    0400 SR        000000000000 FUJITSU TEN (THAILAN180LUDU0216216                                                                                                                              *          20170717WMF1707174.TXT
MDDUH7229824201707                D89828070300PT4U20170721000030SPEAKER ASM                   M IMCTM S9TS02 FTTL  07070IMCT  S9 PTB  00015                    1600 SR        000000000000 FUJITSU TEN (THAILAN180LUEU0123123                                                                                                                              *          20170717WMF1707174.TXT
MDDUH7229825201707                D89828070300PT4U20170721000030SPEAKER ASM                   M IMCTM S9TS02 FTTL  07070IMCT  S9 PTB  00015                    2100 SR        000000000000 FUJITSU TEN (THAILAN180LUFU0037037                                                                                                                              *          20170717WMF1707174.TXT
MDEDH7261799201707                D89828070100PV1D20170720000030SPEAKER ASM                   M IMCTM S5MB11 FTTL  07070IMCT  S5 PTB  00004                    2230 SR        000000000000 FUJITSU TEN (THAILAN17076ML0022022                                                                                                                              *          20170717WMF1707174.TXT
MDEDH7261800201707                D89828070100PV1D20170721000030SPEAKER ASM                   M IMCTM S5MB11 FTTL  07070IMCT  S5 PTB  00004                    0230 SR        000000000000 FUJITSU TEN (THAILAN17076ML0023023                                                                                                                              *          20170717WMF1707174.TXT
MDEDH7261801201707                D89828070100PV1D20170721000060SPEAKER ASM                   M IMCTM S5MB11 FTTL  07070IMCT  S5 PTB  00004                    0400 SR        000000000000 FUJITSU TEN (THAILAN17076ML002402417079NL0073073                                                                                                                *          20170717WMF1707174.TXT
MDEDH7261802201707                D89828070100PV1D20170721000060SPEAKER ASM                   M IMCTM S5MB11 FTTL  07070IMCT  S5 PTB  00004                    0900 SR        000000000000 FUJITSU TEN (THAILAN17006ML000800817076ML0025025                                                                                                                *          20170717WMF1707174.TXT
MDEDH7261803201707                D89828070100PV1D20170721000120SPEAKER ASM                   M IMCTM S5MB11 FTTL  07070IMCT  S5 PTB  00004                    1300 SR        000000000000 FUJITSU TEN (THAILAN17012ML001902017051TL001301317055ML0001001                                                                                                  *          20170717WMF1707174.TXT
MDEDH7261804201707                D89828070100PV4D20170721000030SPEAKER ASM                   M IMCTM S0FL05 FTTL  07070IMCT  S0 PTB  00004                    0400 SR        000000000000 FUJITSU TEN (THAILAN17052TU0014014                                                                                                                              *          20170717WMF1707174.TXT
MDEDH7261805201707                D89828070100PV4D20170721000030SPEAKER ASM                   M IMCTM S0FL05 FTTL  07070IMCT  S0 PTB  00004                    1300 SR        000000000000 FUJITSU TEN (THAILAN17074NU0016016                                                                                                                              *          20170717WMF1707174.TXT
MDEDH7261806201707                D89828070200PV1D20170721000030SPEAKER ASM                   M IMCTM S5MA14 FTTL  07070IMCT  S5 PTB  00005                    0400 SR        000000000000 FUJITSU TEN (THAILAN17079NL0073073                                                                                                                              *          20170717WMF1707174.TXT
MDEDH7261807201707                D89828070200PV1D20170721000060SPEAKER ASM                   M IMCTM S5MA14 FTTL  07070IMCT  S5 PTB  00005                    1300 SR        000000000000 FUJITSU TEN (THAILAN17012ML0019020                                                                                                                              *          20170717WMF1707174.TXT
MDEDH7261808201707                D89828070200PV4D20170721000030SPEAKER ASM                   M IMCTM S0FR05 FTTL  07070IMCT  S0 PTB  00005                    1300 SR        000000000000 FUJITSU TEN (THAILAN17074NU0016016                                                                                                                              *          20170717WMF1707174.TXT
MDEDH7261809201707                D89828070300PT1D20170721000030SPEAKER ASM                   M IMCTM S5NB082FTTL  07070IMCT  S5 PTB  00015                    0400 SR        000000000000 FUJITSU TEN (THAILAN17079NL0073073                                                                                                                              *          20170717WMF1707174.TXT
MDEDH7261810201707                D89828070300PT1D20170721000060SPEAKER ASM                   M IMCTM S5NB082FTTL  07070IMCT  S5 PTB  00015                    1300 SR        000000000000 FUJITSU TEN (THAILAN17012ML0019020                                                                                                                              *          20170717WMF1707174.TXT
MDEDH7261811201707                D89828070300PT4D20170721000030SPEAKER ASM                   M IMCTM S9TS02 FTTL  07070IMCT  S9 PTB  00015                    1300 SR        000000000000 FUJITSU TEN (THAILAN17074NU0016016                                                                                                                              *          20170717WMF1707174.TXT
MDEDH7261812201707                D89831228800PT1D20170721000030RADIO;AM/FM,CD                M IMCTM S5NC06 FTTL  07070IMCT  S5 PTB  00003                    1300 SR        000000000000 FUJITSU TEN (THAILAN17012ML0019020                                                                                                                              *          20170717WMF1707174.TXT
MDEDH7261813201707                D89848581800PT1D20170721000015RADIO;AM/FM CD D              M IMCTM S5NC06 FTTL  07070IMCT  S5 PTB  00003                    0400 SR        000000000000 FUJITSU TEN (THAILAN17079NL0073073                                                                                                                              *          20170717WMF1707174.TXT
MDEDH7261814201707                D89848581800PT4D20170721000015RADIO;AM/FM CD D              M IMCTM S9CO001FTTL  07070IMCT  S9 PTB  00003                    1300 SR        000000000000 FUJITSU TEN (THAILAN17074NU0016016                                                                                                                              *          20170717WMF1707174.TXT
MDEUH7246764201707                D89828070100PT4U20170720000030SPEAKER ASM                   M IMCTM S0FL05 FTTL  07070IMCT  S0 PTB  00004                    2230 SR        000000000000 FUJITSU TEN (THAILAN170C13U0117117                                                                                                                              *          20170717WMF1707174.TXT
MDEUH7246765201707                D89828070100PT4U20170721000030SPEAKER ASM                   M IMCTM S0FL05 FTTL  07070IMCT  S0 PTB  00004                    0230 SR        000000000000 FUJITSU TEN (THAILAN170C16U0300300                                                                                                                              *          20170717WMF1707174.TXT
MDEUH7246766201707                D89828070100PT4U20170721000030SPEAKER ASM                   M IMCTM S0FL05 FTTL  07070IMCT  S0 PTB  00004                    0900 SR        000000000000 FUJITSU TEN (THAILAN170C16U0301301                                                                                                                              *          20170717WMF1707174.TXT
MDEUH7246767201707                D89828070100PT4U20170721000060SPEAKER ASM                   M IMCTM S0FL05 FTTL  07070IMCT  S0 PTB  00004                    1300 SR        000000000000 FUJITSU TEN (THAILAN170C16U030230218017TU0025025                                                                                                                *          20170717WMF1707174.TXT
MDEUH7246768201707                D89828070100PT4U20170721000030SPEAKER ASM                   M IMCTM S0FL05 FTTL  07070IMCT  S0 PTB  00004                    2230 SR        000000000000 FUJITSU TEN (THAILAN170C13U0118118                                                                                                                              *          20170717WMF1707174.TXT
MDEUH7246769201707                D89828070200PV4U20170720000030SPEAKER ASM                   M IMCTM S0FR05 FTTL  07070IMCT  S0 PTB  00005                    2230 SR        000000000000 FUJITSU TEN (THAILAN170C13U0117117                                                                                                                              *          20170717WMF1707174.TXT
MDEUH7246770201707                D89828070200PV4U20170721000030SPEAKER ASM                   M IMCTM S0FR05 FTTL  07070IMCT  S0 PTB  00005                    0230 SR        000000000000 FUJITSU TEN (THAILAN170C16U0300300                                                                                                                              *          20170717WMF1707174.TXT
MDEUH7246771201707                D89828070200PV4U20170721000030SPEAKER ASM                   M IMCTM S0FR05 FTTL  07070IMCT  S0 PTB  00005                    0900 SR        000000000000 FUJITSU TEN (THAILAN170C16U0301301                                                                                                                              *          20170717WMF1707174.TXT
MDEUH7246772201707                D89828070200PV4U20170721000060SPEAKER ASM                   M IMCTM S0FR05 FTTL  07070IMCT  S0 PTB  00005                    1300 SR        000000000000 FUJITSU TEN (THAILAN170C16U030230218017TU0025025                                                                                                                *          20170717WMF1707174.TXT
MDEUH7246773201707                D89828070200PV4U20170721000030SPEAKER ASM                   M IMCTM S0FR05 FTTL  07070IMCT  S0 PTB  00005                    2230 SR        000000000000 FUJITSU TEN (THAILAN170C13U0118118                                                                                                                              *          20170717WMF1707174.TXT
MDEUH7246774201707                D89828070300PT4U20170720000030SPEAKER ASM                   M IMCTM S9TS02 FTTL  07070IMCT  S9 PTB  00015                    2230 SR        000000000000 FUJITSU TEN (THAILAN170C13U0117117                                                                                                                              *          20170717WMF1707174.TXT
MDEUH7246775201707                D89828070300PT4U20170721000030SPEAKER ASM                   M IMCTM S9TS02 FTTL  07070IMCT  S9 PTB  00015                    0230 SR        000000000000 FUJITSU TEN (THAILAN170C16U0300300                                                                                                                              *          20170717WMF1707174.TXT
MDEUH7246776201707                D89828070300PT4U20170721000030SPEAKER ASM                   M IMCTM S9TS02 FTTL  07070IMCT  S9 PTB  00015                    0900 SR        000000000000 FUJITSU TEN (THAILAN170C16U0301301                                                                                                                              *          20170717WMF1707174.TXT
MDEUH7246777201707                D89828070300PT4U20170721000060SPEAKER ASM                   M IMCTM S9TS02 FTTL  07070IMCT  S9 PTB  00015                    1300 SR        000000000000 FUJITSU TEN (THAILAN170C16U030230218017TU0025025                                                                                                                *          20170717WMF1707174.TXT
MDEUH7246778201707                D89828070300PT4U20170721000030SPEAKER ASM                   M IMCTM S9TS02 FTTL  07070IMCT  S9 PTB  00015                    2230 SR        000000000000 FUJITSU TEN (THAILAN170C13U0118118                                                                                                                              *          20170717WMF1707174.TXT
