REC2017082920170829ISUZU                              48     
MDDDH8285542201709                D89821984430PT1D20170902000030RADIO;AM/FM,CD                M IMCTM S5NC06 FTTL  07070IMCT  S5 PTB  00005                    0400 SR        000000000000 FUJITSU TEN (THAILAN170KPAL0179179                                                                                                                              *          20170829WMF1708293.TXT
MDDDH8285543201709                D89821984430PT1D20170904000030RADIO;AM/FM,CD                M IMCTM S5NC06 FTTL  07070IMCT  S5 PTB  00005                    1030 SR        000000000000 FUJITSU TEN (THAILAN170KPAL0180180                                                                                                                              *          20170829WMF1708293.TXT
MDDDH8285544201709                D89821984430PT1D20170904000030RADIO;AM/FM,CD                M IMCTM S5NC06 FTTL  07070IMCT  S5 PTB  00005                    1300 SR        000000000000 FUJITSU TEN (THAILAN170KRAL0165165                                                                                                                              *          20170829WMF1708293.TXT
MDDDH8285545201709                D89821984430PT1D20170904000030RADIO;AM/FM,CD                M IMCTM S5NC06 FTTL  07070IMCT  S5 PTB  00005                    1600 SR        000000000000 FUJITSU TEN (THAILAN170KNDL0159159                                                                                                                              *          20170829WMF1708293.TXT
MDDDH8285546201709                D89828070100PV1D20170902000120SPEAKER ASM                   M IMCTM S5MB11 FTTL  07070IMCT  S5 PTB  00004                    0400 SR        000000000000 FUJITSU TEN (THAILAN170KPAL0179179170KPFL0204204                                                                                                                *          20170829WMF1708293.TXT
MDDDH8285547201709                D89828070100PV1D20170904000060SPEAKER ASM                   M IMCTM S5MB11 FTTL  07070IMCT  S5 PTB  00004                    1030 SR        000000000000 FUJITSU TEN (THAILAN170KPAL0180180                                                                                                                              *          20170829WMF1708293.TXT
MDDDH8285548201709                D89828070100PV1D20170904000120SPEAKER ASM                   M IMCTM S5MB11 FTTL  07070IMCT  S5 PTB  00004                    1300 SR        000000000000 FUJITSU TEN (THAILAN170KPFL0205205170KRAL0165165                                                                                                                *          20170829WMF1708293.TXT
MDDDH8285549201709                D89828070100PV1D20170904000060SPEAKER ASM                   M IMCTM S5MB11 FTTL  07070IMCT  S5 PTB  00004                    1600 SR        000000000000 FUJITSU TEN (THAILAN170KNDL0159159                                                                                                                              *          20170829WMF1708293.TXT
MDDDH8285550201709                D89828070100PV1D20170904000060SPEAKER ASM                   M IMCTM S5MB11 FTTL  07070IMCT  S5 PTB  00004                    2100 SR        000000000000 FUJITSU TEN (THAILAN170KPNL0006006                                                                                                                              *          20170829WMF1708293.TXT
MDDDH8285551201709                D89828070300PT1D20170902000060SPEAKER ASM                   M IMCTM S5NB082FTTL  07070IMCT  S5 PTB  00015                    0400 SR        000000000000 FUJITSU TEN (THAILAN170KPFL0204204                                                                                                                              *          20170829WMF1708293.TXT
MDDDH8285552201709                D89828070300PT1D20170904000060SPEAKER ASM                   M IMCTM S5NB082FTTL  07070IMCT  S5 PTB  00015                    1300 SR        000000000000 FUJITSU TEN (THAILAN170KPFL0205205                                                                                                                              *          20170829WMF1708293.TXT
MDDDH8285553201709                D89828070300PT1D20170904000060SPEAKER ASM                   M IMCTM S5NB082FTTL  07070IMCT  S5 PTB  00015                    2100 SR        000000000000 FUJITSU TEN (THAILAN170KPNL0006006                                                                                                                              *          20170829WMF1708293.TXT
MDDDH8285554201709                D89831228300PT1D20170902000030RADIO;AM/FM,CD                M IMCTM S5NC06 FTTL  07070IMCT  S5 CPB  00003                    0400 SR        000000000000 FUJITSU TEN (THAILAN170KPFL0204204                                                                                                                              *          20170829WMF1708293.TXT
MDDDH8285555201709                D89831228300PT1D20170904000030RADIO;AM/FM,CD                M IMCTM S5NC06 FTTL  07070IMCT  S5 CPB  00003                    1300 SR        000000000000 FUJITSU TEN (THAILAN170KPFL0205205                                                                                                                              *          20170829WMF1708293.TXT
MDDUH8258086201709                D89828070100PT4U20170904000030SPEAKER ASM                   M IMCTM S0FL05 FTTL  07070IMCT  S0 PTB  00004                    0830 SR        000000000000 FUJITSU TEN (THAILAN180LUDU0238238                                                                                                                              *          20170829WMF1708293.TXT
MDDUH8258087201709                D89828070100PT4U20170904000060SPEAKER ASM                   M IMCTM S0FL05 FTTL  07070IMCT  S0 PTB  00004                    1300 SR        000000000000 FUJITSU TEN (THAILAN180LUDU0239239180LUFU0046046                                                                                                                *          20170829WMF1708293.TXT
MDDUH8258088201709                D89828070200PV4U20170904000030SPEAKER ASM                   M IMCTM S0FR05 FTTL  07070IMCT  S0 PTB  00005                    0830 SR        000000000000 FUJITSU TEN (THAILAN180LUDU0238238                                                                                                                              *          20170829WMF1708293.TXT
MDDUH8258089201709                D89828070200PV4U20170904000060SPEAKER ASM                   M IMCTM S0FR05 FTTL  07070IMCT  S0 PTB  00005                    1300 SR        000000000000 FUJITSU TEN (THAILAN180LUDU0239239180LUFU0046046                                                                                                                *          20170829WMF1708293.TXT
MDDUH8258090201709                D89828070300PT4U20170904000030SPEAKER ASM                   M IMCTM S9TS02 FTTL  07070IMCT  S9 PTB  00015                    0830 SR        000000000000 FUJITSU TEN (THAILAN180LUDU0238238                                                                                                                              *          20170829WMF1708293.TXT
MDDUH8258091201709                D89828070300PT4U20170904000060SPEAKER ASM                   M IMCTM S9TS02 FTTL  07070IMCT  S9 PTB  00015                    1300 SR        000000000000 FUJITSU TEN (THAILAN180LUDU0239239180LUFU0046046                                                                                                                *          20170829WMF1708293.TXT
MDEDH8321449201709                D89828070100PV1D20170901000120SPEAKER ASM                   M IMCTM S5MB11 FTTL  07070IMCT  S5 PTB  00004                    2230 SR        000000000000 FUJITSU TEN (THAILAN16040KL000400416046KL003103217077PL0007007                                                                                                  *          20170829WMF1708293.TXT
MDEDH8321450201709                D89828070100PV1D20170902000060SPEAKER ASM                   M IMCTM S5MB11 FTTL  07070IMCT  S5 PTB  00004                    0230 SR        000000000000 FUJITSU TEN (THAILAN16040KL000500517058NL0034034                                                                                                                *          20170829WMF1708293.TXT
MDEDH8321451201709                D89828070100PV1D20170904000060SPEAKER ASM                   M IMCTM S5MB11 FTTL  07070IMCT  S5 PTB  00004                    0830 SR        000000000000 FUJITSU TEN (THAILAN17016VL0001002                                                                                                                              *          20170829WMF1708293.TXT
MDEDH8321452201709                D89828070100PV1D20170904000060SPEAKER ASM                   M IMCTM S5MB11 FTTL  07070IMCT  S5 PTB  00004                    1600 SR        000000000000 FUJITSU TEN (THAILAN17079NL0079080                                                                                                                              *          20170829WMF1708293.TXT
MDEDH8321453201709                D89828070200PV1D20170901000060SPEAKER ASM                   M IMCTM S5MA14 FTTL  07070IMCT  S5 PTB  00005                    2230 SR        000000000000 FUJITSU TEN (THAILAN16046KL0031032                                                                                                                              *          20170829WMF1708293.TXT
MDEDH8321454201709                D89828070200PV1D20170902000030SPEAKER ASM                   M IMCTM S5MA14 FTTL  07070IMCT  S5 PTB  00005                    0230 SR        000000000000 FUJITSU TEN (THAILAN17058NL0034034                                                                                                                              *          20170829WMF1708293.TXT
MDEDH8321455201709                D89828070200PV1D20170904000060SPEAKER ASM                   M IMCTM S5MA14 FTTL  07070IMCT  S5 PTB  00005                    1600 SR        000000000000 FUJITSU TEN (THAILAN17079NL0079080                                                                                                                              *          20170829WMF1708293.TXT
MDEDH8321456201709                D89828070300PT1D20170901000060SPEAKER ASM                   M IMCTM S5NB082FTTL  07070IMCT  S5 PTB  00015                    2230 SR        000000000000 FUJITSU TEN (THAILAN16046KL0031032                                                                                                                              *          20170829WMF1708293.TXT
MDEDH8321457201709                D89828070300PT1D20170902000030SPEAKER ASM                   M IMCTM S5NB082FTTL  07070IMCT  S5 PTB  00015                    0230 SR        000000000000 FUJITSU TEN (THAILAN17058NL0034034                                                                                                                              *          20170829WMF1708293.TXT
MDEDH8321458201709                D89828070300PT1D20170904000060SPEAKER ASM                   M IMCTM S5NB082FTTL  07070IMCT  S5 PTB  00015                    1600 SR        000000000000 FUJITSU TEN (THAILAN17079NL0079080                                                                                                                              *          20170829WMF1708293.TXT
MDEDH8321459201709                D89848581800PT1D20170902000015RADIO;AM/FM CD D              M IMCTM S5NC06 FTTL  07070IMCT  S5 PTB  00003                    0230 SR        000000000000 FUJITSU TEN (THAILAN17058NL0034034                                                                                                                              *          20170829WMF1708293.TXT
MDEDH8321460201709                D89848581800PT1D20170904000030RADIO;AM/FM CD D              M IMCTM S5NC06 FTTL  07070IMCT  S5 PTB  00003                    1600 SR        000000000000 FUJITSU TEN (THAILAN17079NL0079080                                                                                                                              *          20170829WMF1708293.TXT
MDEUH8274306201709                D89828070100PT4U20170901000060SPEAKER ASM                   M IMCTM S0FL05 FTTL  07070IMCT  S0 PTB  00004                    2230 SR        000000000000 FUJITSU TEN (THAILAN18018TU004704718024TU0020020                                                                                                                *          20170829WMF1708293.TXT
MDEUH8274307201709                D89828070100PT4U20170902000060SPEAKER ASM                   M IMCTM S0FL05 FTTL  07070IMCT  S0 PTB  00004                    0400 SR        000000000000 FUJITSU TEN (THAILAN18022TU007507518078SU0003003                                                                                                                *          20170829WMF1708293.TXT
MDEUH8274308201709                D89828070100PT4U20170904000030SPEAKER ASM                   M IMCTM S0FL05 FTTL  07070IMCT  S0 PTB  00004                    1030 SR        000000000000 FUJITSU TEN (THAILAN18021TU0025025                                                                                                                              *          20170829WMF1708293.TXT
MDEUH8274309201709                D89828070100PT4U20170904000030SPEAKER ASM                   M IMCTM S0FL05 FTTL  07070IMCT  S0 PTB  00004                    1600 SR        000000000000 FUJITSU TEN (THAILAN18022TU0076076                                                                                                                              *          20170829WMF1708293.TXT
MDEUH8274310201709                D89828070100PT4U20170904000030SPEAKER ASM                   M IMCTM S0FL05 FTTL  07070IMCT  S0 PTB  00004                    2100 SR        000000000000 FUJITSU TEN (THAILAN18020TU0007007                                                                                                                              *          20170829WMF1708293.TXT
MDEUH8274311201709                D89828070200PV4U20170901000060SPEAKER ASM                   M IMCTM S0FR05 FTTL  07070IMCT  S0 PTB  00005                    2230 SR        000000000000 FUJITSU TEN (THAILAN18018TU004704718024TU0020020                                                                                                                *          20170829WMF1708293.TXT
MDEUH8274312201709                D89828070200PV4U20170902000060SPEAKER ASM                   M IMCTM S0FR05 FTTL  07070IMCT  S0 PTB  00005                    0400 SR        000000000000 FUJITSU TEN (THAILAN18022TU007507518078SU0003003                                                                                                                *          20170829WMF1708293.TXT
MDEUH8274313201709                D89828070200PV4U20170904000030SPEAKER ASM                   M IMCTM S0FR05 FTTL  07070IMCT  S0 PTB  00005                    1030 SR        000000000000 FUJITSU TEN (THAILAN18021TU0025025                                                                                                                              *          20170829WMF1708293.TXT
MDEUH8274314201709                D89828070200PV4U20170904000030SPEAKER ASM                   M IMCTM S0FR05 FTTL  07070IMCT  S0 PTB  00005                    1600 SR        000000000000 FUJITSU TEN (THAILAN18022TU0076076                                                                                                                              *          20170829WMF1708293.TXT
MDEUH8274315201709                D89828070200PV4U20170904000030SPEAKER ASM                   M IMCTM S0FR05 FTTL  07070IMCT  S0 PTB  00005                    2100 SR        000000000000 FUJITSU TEN (THAILAN18020TU0007007                                                                                                                              *          20170829WMF1708293.TXT
MDEUH8274316201709                D89828070300PT4U20170901000060SPEAKER ASM                   M IMCTM S9TS02 FTTL  07070IMCT  S9 PTB  00015                    2230 SR        000000000000 FUJITSU TEN (THAILAN18018TU004704718024TU0020020                                                                                                                *          20170829WMF1708293.TXT
MDEUH8274317201709                D89828070300PT4U20170902000060SPEAKER ASM                   M IMCTM S9TS02 FTTL  07070IMCT  S9 PTB  00015                    0400 SR        000000000000 FUJITSU TEN (THAILAN18022TU007507518078SU0003003                                                                                                                *          20170829WMF1708293.TXT
MDEUH8274318201709                D89828070300PT4U20170904000030SPEAKER ASM                   M IMCTM S9TS02 FTTL  07070IMCT  S9 PTB  00015                    1030 SR        000000000000 FUJITSU TEN (THAILAN18021TU0025025                                                                                                                              *          20170829WMF1708293.TXT
MDEUH8274319201709                D89828070300PT4U20170904000030SPEAKER ASM                   M IMCTM S9TS02 FTTL  07070IMCT  S9 PTB  00015                    1600 SR        000000000000 FUJITSU TEN (THAILAN18022TU0076076                                                                                                                              *          20170829WMF1708293.TXT
MDEUH8274320201709                D89828070300PT4U20170904000030SPEAKER ASM                   M IMCTM S9TS02 FTTL  07070IMCT  S9 PTB  00015                    2100 SR        000000000000 FUJITSU TEN (THAILAN18020TU0007007                                                                                                                              *          20170829WMF1708293.TXT
MDEUH8274321201709                D89848584700PT4U20170904000015RADIO;AM/FM CD D              M IMCTM S9CO001FTTL  07070IMCT  S9 PTB  00003                    1030 SR        000000000000 FUJITSU TEN (THAILAN18021TU0025025                                                                                                                              *          20170829WMF1708293.TXT
