REC2017080220170802ISUZU                              54     
MDDDH8204660201708                D89821984430PT1D20170807000030RADIO;AM/FM,CD                M IMCTM S5NC06 FTTL  07070IMCT  S5 PTB  00005                    2230 SR        000000000000 FUJITSU TEN (THAILAN170KRAL0118118                                                                                                                              *          20170802WMF1708025.TXT
MDDDH8204661201708                D89821984430PT1D20170808000030RADIO;AM/FM,CD                M IMCTM S5NC06 FTTL  07070IMCT  S5 PTB  00005                    0230 SR        000000000000 FUJITSU TEN (THAILAN170KRAL0119119                                                                                                                              *          20170802WMF1708025.TXT
MDDDH8204662201708                D89821984430PT1D20170808000030RADIO;AM/FM,CD                M IMCTM S5NC06 FTTL  07070IMCT  S5 PTB  00005                    0400 SR        000000000000 FUJITSU TEN (THAILAN170KRAL0120120                                                                                                                              *          20170802WMF1708025.TXT
MDDDH8204663201708                D89821984430PT1D20170808000060RADIO;AM/FM,CD                M IMCTM S5NC06 FTTL  07070IMCT  S5 PTB  00005                    0900 SR        000000000000 FUJITSU TEN (THAILAN170KNDL0151151170KPAL0145145                                                                                                                *          20170802WMF1708025.TXT
MDDDH8204664201708                D89821984430PT1D20170808000030RADIO;AM/FM,CD                M IMCTM S5NC06 FTTL  07070IMCT  S5 PTB  00005                    1300 SR        000000000000 FUJITSU TEN (THAILAN170KNDL0152152                                                                                                                              *          20170802WMF1708025.TXT
MDDDH8204665201708                D89821984430PT1D20170808000090RADIO;AM/FM,CD                M IMCTM S5NC06 FTTL  07070IMCT  S5 PTB  00005                    1600 SR        000000000000 FUJITSU TEN (THAILAN170KNDL0153153170KPAL0146146170KRAL0121121                                                                                                  *          20170802WMF1708025.TXT
MDDDH8204666201708                D89821984430PT1D20170808000030RADIO;AM/FM,CD                M IMCTM S5NC06 FTTL  07070IMCT  S5 PTB  00005                    2100 SR        000000000000 FUJITSU TEN (THAILAN170KRAL0122122                                                                                                                              *          20170802WMF1708025.TXT
MDDDH8204667201708                D89828070100PV1D20170807000060SPEAKER ASM                   M IMCTM S5MB11 FTTL  07070IMCT  S5 PTB  00004                    2230 SR        000000000000 FUJITSU TEN (THAILAN170KRAL0118118                                                                                                                              *          20170802WMF1708025.TXT
MDDDH8204668201708                D89828070100PV1D20170808000060SPEAKER ASM                   M IMCTM S5MB11 FTTL  07070IMCT  S5 PTB  00004                    0230 SR        000000000000 FUJITSU TEN (THAILAN170KRAL0119119                                                                                                                              *          20170802WMF1708025.TXT
MDDDH8204669201708                D89828070100PV1D20170808000060SPEAKER ASM                   M IMCTM S5MB11 FTTL  07070IMCT  S5 PTB  00004                    0400 SR        000000000000 FUJITSU TEN (THAILAN170KRAL0120120                                                                                                                              *          20170802WMF1708025.TXT
MDDDH8204670201708                D89828070100PV1D20170808000120SPEAKER ASM                   M IMCTM S5MB11 FTTL  07070IMCT  S5 PTB  00004                    0900 SR        000000000000 FUJITSU TEN (THAILAN170KNDL0151151170KPAL0145145                                                                                                                *          20170802WMF1708025.TXT
MDDDH8204671201708                D89828070100PV1D20170808000060SPEAKER ASM                   M IMCTM S5MB11 FTTL  07070IMCT  S5 PTB  00004                    1300 SR        000000000000 FUJITSU TEN (THAILAN170KNDL0152152                                                                                                                              *          20170802WMF1708025.TXT
MDDDH8204672201708                D89828070100PV1D20170808000180SPEAKER ASM                   M IMCTM S5MB11 FTTL  07070IMCT  S5 PTB  00004                    1600 SR        000000000000 FUJITSU TEN (THAILAN170KNDL0153153170KPAL0146146170KRAL0121121                                                                                                  *          20170802WMF1708025.TXT
MDDDH8204673201708                D89828070100PV1D20170808000060SPEAKER ASM                   M IMCTM S5MB11 FTTL  07070IMCT  S5 PTB  00004                    2100 SR        000000000000 FUJITSU TEN (THAILAN170KRAL0122122                                                                                                                              *          20170802WMF1708025.TXT
MDDUH8203333201708                D89828070100PT4U20170808000030SPEAKER ASM                   M IMCTM S0FL05 FTTL  07070IMCT  S0 PTB  00004                    0400 SR        000000000000 FUJITSU TEN (THAILAN180LUAU0020020                                                                                                                              *          20170802WMF1708025.TXT
MDDUH8203334201708                D89828070100PT4U20170808000030SPEAKER ASM                   M IMCTM S0FL05 FTTL  07070IMCT  S0 PTB  00004                    0900 SR        000000000000 FUJITSU TEN (THAILAN180LUDU0222222                                                                                                                              *          20170802WMF1708025.TXT
MDDUH8203335201708                D89828070100PT4U20170808000030SPEAKER ASM                   M IMCTM S0FL05 FTTL  07070IMCT  S0 PTB  00004                    1300 SR        000000000000 FUJITSU TEN (THAILAN180LUEU0136136                                                                                                                              *          20170802WMF1708025.TXT
MDDUH8203336201708                D89828070100PT4U20170808000030SPEAKER ASM                   M IMCTM S0FL05 FTTL  07070IMCT  S0 PTB  00004                    2100 SR        000000000000 FUJITSU TEN (THAILAN180LUDU0223223                                                                                                                              *          20170802WMF1708025.TXT
MDDUH8203337201708                D89828070200PV4U20170808000030SPEAKER ASM                   M IMCTM S0FR05 FTTL  07070IMCT  S0 PTB  00005                    0400 SR        000000000000 FUJITSU TEN (THAILAN180LUAU0020020                                                                                                                              *          20170802WMF1708025.TXT
MDDUH8203338201708                D89828070200PV4U20170808000030SPEAKER ASM                   M IMCTM S0FR05 FTTL  07070IMCT  S0 PTB  00005                    0900 SR        000000000000 FUJITSU TEN (THAILAN180LUDU0222222                                                                                                                              *          20170802WMF1708025.TXT
MDDUH8203339201708                D89828070200PV4U20170808000030SPEAKER ASM                   M IMCTM S0FR05 FTTL  07070IMCT  S0 PTB  00005                    1300 SR        000000000000 FUJITSU TEN (THAILAN180LUEU0136136                                                                                                                              *          20170802WMF1708025.TXT
MDDUH8203340201708                D89828070200PV4U20170808000030SPEAKER ASM                   M IMCTM S0FR05 FTTL  07070IMCT  S0 PTB  00005                    2100 SR        000000000000 FUJITSU TEN (THAILAN180LUDU0223223                                                                                                                              *          20170802WMF1708025.TXT
MDDUH8203341201708                D89828070300PT4U20170808000030SPEAKER ASM                   M IMCTM S9TS02 FTTL  07070IMCT  S9 PTB  00015                    0400 SR        000000000000 FUJITSU TEN (THAILAN180LUAU0020020                                                                                                                              *          20170802WMF1708025.TXT
MDDUH8203342201708                D89828070300PT4U20170808000030SPEAKER ASM                   M IMCTM S9TS02 FTTL  07070IMCT  S9 PTB  00015                    0900 SR        000000000000 FUJITSU TEN (THAILAN180LUDU0222222                                                                                                                              *          20170802WMF1708025.TXT
MDDUH8203343201708                D89828070300PT4U20170808000030SPEAKER ASM                   M IMCTM S9TS02 FTTL  07070IMCT  S9 PTB  00015                    1300 SR        000000000000 FUJITSU TEN (THAILAN180LUEU0136136                                                                                                                              *          20170802WMF1708025.TXT
MDDUH8203344201708                D89828070300PT4U20170808000030SPEAKER ASM                   M IMCTM S9TS02 FTTL  07070IMCT  S9 PTB  00015                    2100 SR        000000000000 FUJITSU TEN (THAILAN180LUDU0223223                                                                                                                              *          20170802WMF1708025.TXT
MDDUH8203345201708                D89831228400PT4U20170808000015RADIO;AM/FM,CD                M IMCTM S9CO001FTTL  07070IMCT  S9 CPB  00003                    0400 SR        000000000000 FUJITSU TEN (THAILAN180LUAU0020020                                                                                                                              *          20170802WMF1708025.TXT
MDEDH8206202201708                D89828070100PV1D20170807000060SPEAKER ASM                   M IMCTM S5MB11 FTTL  07070IMCT  S5 PTB  00004                    2230 SR        000000000000 FUJITSU TEN (THAILAN17041PL0043044                                                                                                                              *          20170802WMF1708025.TXT
MDEDH8206203201708                D89828070100PV1D20170808000030SPEAKER ASM                   M IMCTM S5MB11 FTTL  07070IMCT  S5 PTB  00004                    0230 SR        000000000000 FUJITSU TEN (THAILAN17053NL0041041                                                                                                                              *          20170802WMF1708025.TXT
MDEDH8206204201708                D89828070100PV1D20170808000030SPEAKER ASM                   M IMCTM S5MB11 FTTL  07070IMCT  S5 PTB  00004                    0400 SR        000000000000 FUJITSU TEN (THAILAN17052TL0032032                                                                                                                              *          20170802WMF1708025.TXT
MDEDH8206205201708                D89828070100PV1D20170808000030SPEAKER ASM                   M IMCTM S5MB11 FTTL  07070IMCT  S5 PTB  00004                    0900 SR        000000000000 FUJITSU TEN (THAILAN17052TL0033033                                                                                                                              *          20170802WMF1708025.TXT
MDEDH8206206201708                D89828070100PV1D20170808000060SPEAKER ASM                   M IMCTM S5MB11 FTTL  07070IMCT  S5 PTB  00004                    1300 SR        000000000000 FUJITSU TEN (THAILAN17032NL0014015                                                                                                                              *          20170802WMF1708025.TXT
MDEDH8206207201708                D89828070100PV1D20170808000030SPEAKER ASM                   M IMCTM S5MB11 FTTL  07070IMCT  S5 PTB  00004                    1600 SR        000000000000 FUJITSU TEN (THAILAN17076NL0011011                                                                                                                              *          20170802WMF1708025.TXT
MDEDH8206208201708                D89828070100PV4D20170808000030SPEAKER ASM                   M IMCTM S0FL05 FTTL  07070IMCT  S0 PTB  00004                    1300 SR        000000000000 FUJITSU TEN (THAILAN17066NU0010010                                                                                                                              *          20170802WMF1708025.TXT
MDEDH8206209201708                D89828070200PV1D20170808000060SPEAKER ASM                   M IMCTM S5MA14 FTTL  07070IMCT  S5 PTB  00005                    1300 SR        000000000000 FUJITSU TEN (THAILAN17032NL0014015                                                                                                                              *          20170802WMF1708025.TXT
MDEDH8206210201708                D89828070200PV1D20170808000030SPEAKER ASM                   M IMCTM S5MA14 FTTL  07070IMCT  S5 PTB  00005                    1600 SR        000000000000 FUJITSU TEN (THAILAN17076NL0011011                                                                                                                              *          20170802WMF1708025.TXT
MDEDH8206211201708                D89828070300PT1D20170808000030SPEAKER ASM                   M IMCTM S5NB082FTTL  07070IMCT  S5 PTB  00015                    0230 SR        000000000000 FUJITSU TEN (THAILAN17053NL0041041                                                                                                                              *          20170802WMF1708025.TXT
MDEDH8206212201708                D89828070300PT1D20170808000060SPEAKER ASM                   M IMCTM S5NB082FTTL  07070IMCT  S5 PTB  00015                    1300 SR        000000000000 FUJITSU TEN (THAILAN17032NL0014015                                                                                                                              *          20170802WMF1708025.TXT
MDEDH8206213201708                D89828070300PT1D20170808000030SPEAKER ASM                   M IMCTM S5NB082FTTL  07070IMCT  S5 PTB  00015                    1600 SR        000000000000 FUJITSU TEN (THAILAN17076NL0011011                                                                                                                              *          20170802WMF1708025.TXT
MDEDH8206214201708                D89828070300PT4D20170808000030SPEAKER ASM                   M IMCTM S9TS02 FTTL  07070IMCT  S9 PTB  00015                    1300 SR        000000000000 FUJITSU TEN (THAILAN17066NU0010010                                                                                                                              *          20170802WMF1708025.TXT
MDEDH8206215201708                D89848581800PT1D20170808000015RADIO;AM/FM CD D              M IMCTM S5NC06 FTTL  07070IMCT  S5 PTB  00003                    0230 SR        000000000000 FUJITSU TEN (THAILAN17053NL0041041                                                                                                                              *          20170802WMF1708025.TXT
MDEDH8206216201708                D89848582500PT4D20170808000015RADIO;AM/FM CD D              M IMCTM S9CO001FTTL  07070IMCT  S9 PTB  00003                    1300 SR        000000000000 FUJITSU TEN (THAILAN17066NU0010010                                                                                                                              *          20170802WMF1708025.TXT
MDEUH8203946201708                D89828070100PT4U20170807000060SPEAKER ASM                   M IMCTM S0FL05 FTTL  07070IMCT  S0 PTB  00004                    2230 SR        000000000000 FUJITSU TEN (THAILAN18017TU002902918023TU0128128                                                                                                                *          20170802WMF1708025.TXT
MDEUH8203947201708                D89828070100PT4U20170808000030SPEAKER ASM                   M IMCTM S0FL05 FTTL  07070IMCT  S0 PTB  00004                    0400 SR        000000000000 FUJITSU TEN (THAILAN170C12U0075075                                                                                                                              *          20170802WMF1708025.TXT
MDEUH8203948201708                D89828070100PT4U20170808000030SPEAKER ASM                   M IMCTM S0FL05 FTTL  07070IMCT  S0 PTB  00004                    0900 SR        000000000000 FUJITSU TEN (THAILAN18091SU0003003                                                                                                                              *          20170802WMF1708025.TXT
MDEUH8203949201708                D89828070100PT4U20170808000060SPEAKER ASM                   M IMCTM S0FL05 FTTL  07070IMCT  S0 PTB  00004                    1600 SR        000000000000 FUJITSU TEN (THAILAN18022TU006506518083SU0004004                                                                                                                *          20170802WMF1708025.TXT
MDEUH8203950201708                D89828070200PV4U20170807000060SPEAKER ASM                   M IMCTM S0FR05 FTTL  07070IMCT  S0 PTB  00005                    2230 SR        000000000000 FUJITSU TEN (THAILAN18017TU002902918023TU0128128                                                                                                                *          20170802WMF1708025.TXT
MDEUH8203951201708                D89828070200PV4U20170808000030SPEAKER ASM                   M IMCTM S0FR05 FTTL  07070IMCT  S0 PTB  00005                    0400 SR        000000000000 FUJITSU TEN (THAILAN170C12U0075075                                                                                                                              *          20170802WMF1708025.TXT
MDEUH8203952201708                D89828070200PV4U20170808000030SPEAKER ASM                   M IMCTM S0FR05 FTTL  07070IMCT  S0 PTB  00005                    0900 SR        000000000000 FUJITSU TEN (THAILAN18091SU0003003                                                                                                                              *          20170802WMF1708025.TXT
MDEUH8203953201708                D89828070200PV4U20170808000060SPEAKER ASM                   M IMCTM S0FR05 FTTL  07070IMCT  S0 PTB  00005                    1600 SR        000000000000 FUJITSU TEN (THAILAN18022TU006506518083SU0004004                                                                                                                *          20170802WMF1708025.TXT
MDEUH8203954201708                D89828070300PT4U20170807000060SPEAKER ASM                   M IMCTM S9TS02 FTTL  07070IMCT  S9 PTB  00015                    2230 SR        000000000000 FUJITSU TEN (THAILAN18017TU002902918023TU0128128                                                                                                                *          20170802WMF1708025.TXT
MDEUH8203955201708                D89828070300PT4U20170808000030SPEAKER ASM                   M IMCTM S9TS02 FTTL  07070IMCT  S9 PTB  00015                    0400 SR        000000000000 FUJITSU TEN (THAILAN170C12U0075075                                                                                                                              *          20170802WMF1708025.TXT
MDEUH8203956201708                D89828070300PT4U20170808000030SPEAKER ASM                   M IMCTM S9TS02 FTTL  07070IMCT  S9 PTB  00015                    0900 SR        000000000000 FUJITSU TEN (THAILAN18091SU0003003                                                                                                                              *          20170802WMF1708025.TXT
MDEUH8203957201708                D89828070300PT4U20170808000060SPEAKER ASM                   M IMCTM S9TS02 FTTL  07070IMCT  S9 PTB  00015                    1600 SR        000000000000 FUJITSU TEN (THAILAN18022TU006506518083SU0004004                                                                                                                *          20170802WMF1708025.TXT
