REC2017082120170821ISUZU                              65     
MDDDH8265918201708                D89821984430PT1D20170825000060RADIO;AM/FM,CD                M IMCTM S5NC06 FTTL  07070IMCT  S5 PTB  00005                    0230 SR        000000000000 FUJITSU TEN (THAILAN170KPAL0175175170KRAL0154154                                                                                                                *          20170821WMF1708214.TXT
MDDDH8265919201708                D89821984430PT1D20170825000030RADIO;AM/FM,CD                M IMCTM S5NC06 FTTL  07070IMCT  S5 PTB  00005                    0400 SR        000000000000 FUJITSU TEN (THAILAN170KPAL0176176                                                                                                                              *          20170821WMF1708214.TXT
MDDDH8265920201708                D89821984430PT1D20170825000030RADIO;AM/FM,CD                M IMCTM S5NC06 FTTL  07070IMCT  S5 PTB  00005                    0900 SR        000000000000 FUJITSU TEN (THAILAN170KPAL0177177                                                                                                                              *          20170821WMF1708214.TXT
MDDDH8265921201708                D89821984430PT1D20170825000030RADIO;AM/FM,CD                M IMCTM S5NC06 FTTL  07070IMCT  S5 PTB  00005                    1300 SR        000000000000 FUJITSU TEN (THAILAN170KRAL0155155                                                                                                                              *          20170821WMF1708214.TXT
MDDDH8265922201708                D89828070100PV1D20170825000120SPEAKER ASM                   M IMCTM S5MB11 FTTL  07070IMCT  S5 PTB  00004                    0230 SR        000000000000 FUJITSU TEN (THAILAN170KPAL0175175170KRAL0154154                                                                                                                *          20170821WMF1708214.TXT
MDDDH8265923201708                D89828070100PV1D20170825000060SPEAKER ASM                   M IMCTM S5MB11 FTTL  07070IMCT  S5 PTB  00004                    0400 SR        000000000000 FUJITSU TEN (THAILAN170KPAL0176176                                                                                                                              *          20170821WMF1708214.TXT
MDDDH8265924201708                D89828070100PV1D20170825000060SPEAKER ASM                   M IMCTM S5MB11 FTTL  07070IMCT  S5 PTB  00004                    0900 SR        000000000000 FUJITSU TEN (THAILAN170KPAL0177177                                                                                                                              *          20170821WMF1708214.TXT
MDDDH8265925201708                D89828070100PV1D20170825000060SPEAKER ASM                   M IMCTM S5MB11 FTTL  07070IMCT  S5 PTB  00004                    1300 SR        000000000000 FUJITSU TEN (THAILAN170KRAL0155155                                                                                                                              *          20170821WMF1708214.TXT
MDDDH8265926201708                D89828070100PV1D20170825000060SPEAKER ASM                   M IMCTM S5MB11 FTTL  07070IMCT  S5 PTB  00004                    1600 SR        000000000000 FUJITSU TEN (THAILAN170KPFL0203203                                                                                                                              *          20170821WMF1708214.TXT
MDDDH8265927201708                D89828070300PT1D20170825000060SPEAKER ASM                   M IMCTM S5NB082FTTL  07070IMCT  S5 PTB  00015                    1600 SR        000000000000 FUJITSU TEN (THAILAN170KPFL0203203                                                                                                                              *          20170821WMF1708214.TXT
MDDDH8265928201708                D89831228300PT1D20170825000030RADIO;AM/FM,CD                M IMCTM S5NC06 FTTL  07070IMCT  S5 CPB  00003                    1600 SR        000000000000 FUJITSU TEN (THAILAN170KPFL0203203                                                                                                                              *          20170821WMF1708214.TXT
MDDUH8246188201708                D89828070100PT4U20170824000030SPEAKER ASM                   M IMCTM S0FL05 FTTL  07070IMCT  S0 PTB  00004                    2230 SR        000000000000 FUJITSU TEN (THAILAN180LUAU0038038                                                                                                                              *          20170821WMF1708214.TXT
MDDUH8246189201708                D89828070100PT4U20170825000030SPEAKER ASM                   M IMCTM S0FL05 FTTL  07070IMCT  S0 PTB  00004                    0400 SR        000000000000 FUJITSU TEN (THAILAN180LUEU0153153                                                                                                                              *          20170821WMF1708214.TXT
MDDUH8246190201708                D89828070100PT4U20170825000030SPEAKER ASM                   M IMCTM S0FL05 FTTL  07070IMCT  S0 PTB  00004                    0900 SR        000000000000 FUJITSU TEN (THAILAN180LUAU0039039                                                                                                                              *          20170821WMF1708214.TXT
MDDUH8246191201708                D89828070100PT4U20170825000030SPEAKER ASM                   M IMCTM S0FL05 FTTL  07070IMCT  S0 PTB  00004                    1300 SR        000000000000 FUJITSU TEN (THAILAN180LUCU0071071                                                                                                                              *          20170821WMF1708214.TXT
MDDUH8246192201708                D89828070100PT4U20170825000030SPEAKER ASM                   M IMCTM S0FL05 FTTL  07070IMCT  S0 PTB  00004                    1600 SR        000000000000 FUJITSU TEN (THAILAN180LUAU0040040                                                                                                                              *          20170821WMF1708214.TXT
MDDUH8246193201708                D89828070200PV4U20170824000030SPEAKER ASM                   M IMCTM S0FR05 FTTL  07070IMCT  S0 PTB  00005                    2230 SR        000000000000 FUJITSU TEN (THAILAN180LUAU0038038                                                                                                                              *          20170821WMF1708214.TXT
MDDUH8246194201708                D89828070200PV4U20170825000030SPEAKER ASM                   M IMCTM S0FR05 FTTL  07070IMCT  S0 PTB  00005                    0400 SR        000000000000 FUJITSU TEN (THAILAN180LUEU0153153                                                                                                                              *          20170821WMF1708214.TXT
MDDUH8246195201708                D89828070200PV4U20170825000030SPEAKER ASM                   M IMCTM S0FR05 FTTL  07070IMCT  S0 PTB  00005                    0900 SR        000000000000 FUJITSU TEN (THAILAN180LUAU0039039                                                                                                                              *          20170821WMF1708214.TXT
MDDUH8246196201708                D89828070200PV4U20170825000030SPEAKER ASM                   M IMCTM S0FR05 FTTL  07070IMCT  S0 PTB  00005                    1300 SR        000000000000 FUJITSU TEN (THAILAN180LUCU0071071                                                                                                                              *          20170821WMF1708214.TXT
MDDUH8246197201708                D89828070200PV4U20170825000030SPEAKER ASM                   M IMCTM S0FR05 FTTL  07070IMCT  S0 PTB  00005                    1600 SR        000000000000 FUJITSU TEN (THAILAN180LUAU0040040                                                                                                                              *          20170821WMF1708214.TXT
MDDUH8246198201708                D89828070300PT4U20170824000030SPEAKER ASM                   M IMCTM S9TS02 FTTL  07070IMCT  S9 PTB  00015                    2230 SR        000000000000 FUJITSU TEN (THAILAN180LUAU0038038                                                                                                                              *          20170821WMF1708214.TXT
MDDUH8246199201708                D89828070300PT4U20170825000030SPEAKER ASM                   M IMCTM S9TS02 FTTL  07070IMCT  S9 PTB  00015                    0400 SR        000000000000 FUJITSU TEN (THAILAN180LUEU0153153                                                                                                                              *          20170821WMF1708214.TXT
MDDUH8246200201708                D89828070300PT4U20170825000030SPEAKER ASM                   M IMCTM S9TS02 FTTL  07070IMCT  S9 PTB  00015                    0900 SR        000000000000 FUJITSU TEN (THAILAN180LUAU0039039                                                                                                                              *          20170821WMF1708214.TXT
MDDUH8246201201708                D89828070300PT4U20170825000030SPEAKER ASM                   M IMCTM S9TS02 FTTL  07070IMCT  S9 PTB  00015                    1300 SR        000000000000 FUJITSU TEN (THAILAN180LUCU0071071                                                                                                                              *          20170821WMF1708214.TXT
MDDUH8246202201708                D89828070300PT4U20170825000030SPEAKER ASM                   M IMCTM S9TS02 FTTL  07070IMCT  S9 PTB  00015                    1600 SR        000000000000 FUJITSU TEN (THAILAN180LUAU0040040                                                                                                                              *          20170821WMF1708214.TXT
MDDUH8246203201708                D89831228400PT4U20170824000015RADIO;AM/FM,CD                M IMCTM S9CO001FTTL  07070IMCT  S9 CPB  00003                    2230 SR        000000000000 FUJITSU TEN (THAILAN180LUAU0038038                                                                                                                              *          20170821WMF1708214.TXT
MDDUH8246204201708                D89831228400PT4U20170825000015RADIO;AM/FM,CD                M IMCTM S9CO001FTTL  07070IMCT  S9 CPB  00003                    0900 SR        000000000000 FUJITSU TEN (THAILAN180LUAU0039039                                                                                                                              *          20170821WMF1708214.TXT
MDDUH8246205201708                D89831228400PT4U20170825000015RADIO;AM/FM,CD                M IMCTM S9CO001FTTL  07070IMCT  S9 CPB  00003                    1600 SR        000000000000 FUJITSU TEN (THAILAN180LUAU0040040                                                                                                                              *          20170821WMF1708214.TXT
MDDUH8246206201708                D89835097910PT4U20170825000015RADIO;ASM DVD                 M IMCTM S9TS01 FTTL  07070IMCT  S9 PTB  00003                    1300 SR        000000000000 FUJITSU TEN (THAILAN180LUCU0071071                                                                                                                              *          20170821WMF1708214.TXT
MDEDH8294162201708                D89828070100PV1D20170824000060SPEAKER ASM                   M IMCTM S5MB11 FTTL  07070IMCT  S5 PTB  00004                    2230 SR        000000000000 FUJITSU TEN (THAILAN17031ML0023024                                                                                                                              *          20170821WMF1708214.TXT
MDEDH8294163201708                D89828070100PV1D20170825000060SPEAKER ASM                   M IMCTM S5MB11 FTTL  07070IMCT  S5 PTB  00004                    0400 SR        000000000000 FUJITSU TEN (THAILAN17022ML0030031                                                                                                                              *          20170821WMF1708214.TXT
MDEDH8294164201708                D89828070100PV1D20170825000060SPEAKER ASM                   M IMCTM S5MB11 FTTL  07070IMCT  S5 PTB  00004                    0900 SR        000000000000 FUJITSU TEN (THAILAN17081NL0028029                                                                                                                              *          20170821WMF1708214.TXT
MDEDH8294165201708                D89828070100PV1D20170825000030SPEAKER ASM                   M IMCTM S5MB11 FTTL  07070IMCT  S5 PTB  00004                    1300 SR        000000000000 FUJITSU TEN (THAILAN17058NL0032032                                                                                                                              *          20170821WMF1708214.TXT
MDEDH8294166201708                D89828070100PV1D20170825000030SPEAKER ASM                   M IMCTM S5MB11 FTTL  07070IMCT  S5 PTB  00004                    1600 SR        000000000000 FUJITSU TEN (THAILAN17026NL0025025                                                                                                                              *          20170821WMF1708214.TXT
MDEDH8294167201708                D89828070100PV1D20170825000030SPEAKER ASM                   M IMCTM S5MB11 FTTL  07070IMCT  S5 PTB  00004                    2100 SR        000000000000 FUJITSU TEN (THAILAN16059KL0002002                                                                                                                              *          20170821WMF1708214.TXT
MDEDH8294168201708                D89828070100PV4D20170825000030SPEAKER ASM                   M IMCTM S0FL05 FTTL  07070IMCT  S0 PTB  00004                    2100 SR        000000000000 FUJITSU TEN (THAILAN17080NU0051051                                                                                                                              *          20170821WMF1708214.TXT
MDEDH8294169201708                D89828070200PV1D20170824000060SPEAKER ASM                   M IMCTM S5MA14 FTTL  07070IMCT  S5 PTB  00005                    2230 SR        000000000000 FUJITSU TEN (THAILAN17031ML0023024                                                                                                                              *          20170821WMF1708214.TXT
MDEDH8294170201708                D89828070200PV1D20170825000060SPEAKER ASM                   M IMCTM S5MA14 FTTL  07070IMCT  S5 PTB  00005                    0400 SR        000000000000 FUJITSU TEN (THAILAN17022ML0030031                                                                                                                              *          20170821WMF1708214.TXT
MDEDH8294171201708                D89828070200PV1D20170825000060SPEAKER ASM                   M IMCTM S5MA14 FTTL  07070IMCT  S5 PTB  00005                    0900 SR        000000000000 FUJITSU TEN (THAILAN17081NL0028029                                                                                                                              *          20170821WMF1708214.TXT
MDEDH8294172201708                D89828070200PV1D20170825000030SPEAKER ASM                   M IMCTM S5MA14 FTTL  07070IMCT  S5 PTB  00005                    1300 SR        000000000000 FUJITSU TEN (THAILAN17058NL0032032                                                                                                                              *          20170821WMF1708214.TXT
MDEDH8294173201708                D89828070200PV1D20170825000030SPEAKER ASM                   M IMCTM S5MA14 FTTL  07070IMCT  S5 PTB  00005                    1600 SR        000000000000 FUJITSU TEN (THAILAN17026NL0025025                                                                                                                              *          20170821WMF1708214.TXT
MDEDH8294174201708                D89828070200PV1D20170825000030SPEAKER ASM                   M IMCTM S5MA14 FTTL  07070IMCT  S5 PTB  00005                    2100 SR        000000000000 FUJITSU TEN (THAILAN16059KL0002002                                                                                                                              *          20170821WMF1708214.TXT
MDEDH8294175201708                D89828070200PV4D20170825000030SPEAKER ASM                   M IMCTM S0FR05 FTTL  07070IMCT  S0 PTB  00005                    2100 SR        000000000000 FUJITSU TEN (THAILAN17080NU0051051                                                                                                                              *          20170821WMF1708214.TXT
MDEDH8294176201708                D89828070300PT1D20170824000060SPEAKER ASM                   M IMCTM S5NB082FTTL  07070IMCT  S5 PTB  00015                    2230 SR        000000000000 FUJITSU TEN (THAILAN17031ML0023024                                                                                                                              *          20170821WMF1708214.TXT
MDEDH8294177201708                D89828070300PT1D20170825000060SPEAKER ASM                   M IMCTM S5NB082FTTL  07070IMCT  S5 PTB  00015                    0400 SR        000000000000 FUJITSU TEN (THAILAN17022ML0030031                                                                                                                              *          20170821WMF1708214.TXT
MDEDH8294178201708                D89828070300PT1D20170825000060SPEAKER ASM                   M IMCTM S5NB082FTTL  07070IMCT  S5 PTB  00015                    0900 SR        000000000000 FUJITSU TEN (THAILAN17081NL0028029                                                                                                                              *          20170821WMF1708214.TXT
MDEDH8294179201708                D89828070300PT1D20170825000030SPEAKER ASM                   M IMCTM S5NB082FTTL  07070IMCT  S5 PTB  00015                    1300 SR        000000000000 FUJITSU TEN (THAILAN17058NL0032032                                                                                                                              *          20170821WMF1708214.TXT
MDEDH8294180201708                D89828070300PT1D20170825000030SPEAKER ASM                   M IMCTM S5NB082FTTL  07070IMCT  S5 PTB  00015                    1600 SR        000000000000 FUJITSU TEN (THAILAN17026NL0025025                                                                                                                              *          20170821WMF1708214.TXT
MDEDH8294181201708                D89828070300PT1D20170825000030SPEAKER ASM                   M IMCTM S5NB082FTTL  07070IMCT  S5 PTB  00015                    2100 SR        000000000000 FUJITSU TEN (THAILAN16059KL0002002                                                                                                                              *          20170821WMF1708214.TXT
MDEDH8294182201708                D89828070300PT4D20170825000030SPEAKER ASM                   M IMCTM S9TS02 FTTL  07070IMCT  S9 PTB  00015                    2100 SR        000000000000 FUJITSU TEN (THAILAN17080NU0051051                                                                                                                              *          20170821WMF1708214.TXT
MDEDH8294183201708                D89829645410PT1D20170825000015RADIO;ASM DVD                 M IMCTM S5NC06 FTTL  07070IMCT  S5 PTB  00003                    2100 SR        000000000000 FUJITSU TEN (THAILAN16059KL0002002                                                                                                                              *          20170821WMF1708214.TXT
MDEDH8294184201708                D89848581800PT1D20170825000015RADIO;AM/FM CD D              M IMCTM S5NC06 FTTL  07070IMCT  S5 PTB  00003                    1300 SR        000000000000 FUJITSU TEN (THAILAN17058NL0032032                                                                                                                              *          20170821WMF1708214.TXT
MDEUH8253575201708                D89828070100PT4U20170825000030SPEAKER ASM                   M IMCTM S0FL05 FTTL  07070IMCT  S0 PTB  00004                    0230 SR        000000000000 FUJITSU TEN (THAILAN170C12U0087087                                                                                                                              *          20170821WMF1708214.TXT
MDEUH8253576201708                D89828070100PT4U20170825000030SPEAKER ASM                   M IMCTM S0FL05 FTTL  07070IMCT  S0 PTB  00004                    0400 SR        000000000000 FUJITSU TEN (THAILAN18022TU0074074                                                                                                                              *          20170821WMF1708214.TXT
MDEUH8253577201708                D89828070100PT4U20170825000030SPEAKER ASM                   M IMCTM S0FL05 FTTL  07070IMCT  S0 PTB  00004                    0900 SR        000000000000 FUJITSU TEN (THAILAN18023TU0148148                                                                                                                              *          20170821WMF1708214.TXT
MDEUH8253578201708                D89828070100PT4U20170825000030SPEAKER ASM                   M IMCTM S0FL05 FTTL  07070IMCT  S0 PTB  00004                    1600 SR        000000000000 FUJITSU TEN (THAILAN18023TU0149149                                                                                                                              *          20170821WMF1708214.TXT
MDEUH8253579201708                D89828070200PV4U20170825000030SPEAKER ASM                   M IMCTM S0FR05 FTTL  07070IMCT  S0 PTB  00005                    0230 SR        000000000000 FUJITSU TEN (THAILAN170C12U0087087                                                                                                                              *          20170821WMF1708214.TXT
MDEUH8253580201708                D89828070200PV4U20170825000030SPEAKER ASM                   M IMCTM S0FR05 FTTL  07070IMCT  S0 PTB  00005                    0400 SR        000000000000 FUJITSU TEN (THAILAN18022TU0074074                                                                                                                              *          20170821WMF1708214.TXT
MDEUH8253581201708                D89828070200PV4U20170825000030SPEAKER ASM                   M IMCTM S0FR05 FTTL  07070IMCT  S0 PTB  00005                    0900 SR        000000000000 FUJITSU TEN (THAILAN18023TU0148148                                                                                                                              *          20170821WMF1708214.TXT
MDEUH8253582201708                D89828070200PV4U20170825000030SPEAKER ASM                   M IMCTM S0FR05 FTTL  07070IMCT  S0 PTB  00005                    1600 SR        000000000000 FUJITSU TEN (THAILAN18023TU0149149                                                                                                                              *          20170821WMF1708214.TXT
MDEUH8253583201708                D89828070300PT4U20170825000030SPEAKER ASM                   M IMCTM S9TS02 FTTL  07070IMCT  S9 PTB  00015                    0230 SR        000000000000 FUJITSU TEN (THAILAN170C12U0087087                                                                                                                              *          20170821WMF1708214.TXT
MDEUH8253584201708                D89828070300PT4U20170825000030SPEAKER ASM                   M IMCTM S9TS02 FTTL  07070IMCT  S9 PTB  00015                    0400 SR        000000000000 FUJITSU TEN (THAILAN18022TU0074074                                                                                                                              *          20170821WMF1708214.TXT
MDEUH8253585201708                D89828070300PT4U20170825000030SPEAKER ASM                   M IMCTM S9TS02 FTTL  07070IMCT  S9 PTB  00015                    0900 SR        000000000000 FUJITSU TEN (THAILAN18023TU0148148                                                                                                                              *          20170821WMF1708214.TXT
MDEUH8253586201708                D89828070300PT4U20170825000030SPEAKER ASM                   M IMCTM S9TS02 FTTL  07070IMCT  S9 PTB  00015                    1600 SR        000000000000 FUJITSU TEN (THAILAN18023TU0149149                                                                                                                              *          20170821WMF1708214.TXT
