REC2017081120170811ISUZU                              75     
MDDDH8235400201708                D89821984430PT1D20170816000030RADIO;AM/FM,CD                M IMCTM S5NC06 FTTL  07070IMCT  S5 PTB  00005                    2230 SR        000000000000 FUJITSU TEN (THAILAN170KPAL0160160                                                                                                                              *          20170811WMF1708117.TXT
MDDDH8235401201708                D89821984430PT1D20170817000030RADIO;AM/FM,CD                M IMCTM S5NC06 FTTL  07070IMCT  S5 PTB  00005                    0230 SR        000000000000 FUJITSU TEN (THAILAN170KRAL0135135                                                                                                                              *          20170811WMF1708117.TXT
MDDDH8235402201708                D89821984430PT1D20170817000030RADIO;AM/FM,CD                M IMCTM S5NC06 FTTL  07070IMCT  S5 PTB  00005                    0400 SR        000000000000 FUJITSU TEN (THAILAN170KRAL0136136                                                                                                                              *          20170811WMF1708117.TXT
MDDDH8235403201708                D89821984430PT1D20170817000030RADIO;AM/FM,CD                M IMCTM S5NC06 FTTL  07070IMCT  S5 PTB  00005                    0900 SR        000000000000 FUJITSU TEN (THAILAN170KNCL0103103                                                                                                                              *          20170811WMF1708117.TXT
MDDDH8235404201708                D89821984430PT1D20170817000090RADIO;AM/FM,CD                M IMCTM S5NC06 FTTL  07070IMCT  S5 PTB  00005                    1600 SR        000000000000 FUJITSU TEN (THAILAN170KNCL0104104170KRAL0137138                                                                                                                *          20170811WMF1708117.TXT
MDDDH8235405201708                D89828070100PV1D20170816000060SPEAKER ASM                   M IMCTM S5MB11 FTTL  07070IMCT  S5 PTB  00004                    2230 SR        000000000000 FUJITSU TEN (THAILAN170KPAL0160160                                                                                                                              *          20170811WMF1708117.TXT
MDDDH8235406201708                D89828070100PV1D20170817000060SPEAKER ASM                   M IMCTM S5MB11 FTTL  07070IMCT  S5 PTB  00004                    0230 SR        000000000000 FUJITSU TEN (THAILAN170KRAL0135135                                                                                                                              *          20170811WMF1708117.TXT
MDDDH8235407201708                D89828070100PV1D20170817000060SPEAKER ASM                   M IMCTM S5MB11 FTTL  07070IMCT  S5 PTB  00004                    0400 SR        000000000000 FUJITSU TEN (THAILAN170KRAL0136136                                                                                                                              *          20170811WMF1708117.TXT
MDDDH8235408201708                D89828070100PV1D20170817000060SPEAKER ASM                   M IMCTM S5MB11 FTTL  07070IMCT  S5 PTB  00004                    0900 SR        000000000000 FUJITSU TEN (THAILAN170KNCL0103103                                                                                                                              *          20170811WMF1708117.TXT
MDDDH8235409201708                D89828070100PV1D20170817000060SPEAKER ASM                   M IMCTM S5MB11 FTTL  07070IMCT  S5 PTB  00004                    1300 SR        000000000000 FUJITSU TEN (THAILAN170KPFL0200200                                                                                                                              *          20170811WMF1708117.TXT
MDDDH8235410201708                D89828070100PV1D20170817000180SPEAKER ASM                   M IMCTM S5MB11 FTTL  07070IMCT  S5 PTB  00004                    1600 SR        000000000000 FUJITSU TEN (THAILAN170KNCL0104104170KRAL0137138                                                                                                                *          20170811WMF1708117.TXT
MDDDH8235411201708                D89828070100PV1D20170817000060SPEAKER ASM                   M IMCTM S5MB11 FTTL  07070IMCT  S5 PTB  00004                    2100 SR        000000000000 FUJITSU TEN (THAILAN170KPCL0081081                                                                                                                              *          20170811WMF1708117.TXT
MDDDH8235412201708                D89828070300PT1D20170817000060SPEAKER ASM                   M IMCTM S5NB082FTTL  07070IMCT  S5 PTB  00015                    1300 SR        000000000000 FUJITSU TEN (THAILAN170KPFL0200200                                                                                                                              *          20170811WMF1708117.TXT
MDDDH8235413201708                D89828070300PT1D20170817000060SPEAKER ASM                   M IMCTM S5NB082FTTL  07070IMCT  S5 PTB  00015                    2100 SR        000000000000 FUJITSU TEN (THAILAN170KPCL0081081                                                                                                                              *          20170811WMF1708117.TXT
MDDDH8235414201708                D89831228300PT1D20170817000030RADIO;AM/FM,CD                M IMCTM S5NC06 FTTL  07070IMCT  S5 CPB  00003                    1300 SR        000000000000 FUJITSU TEN (THAILAN170KPFL0200200                                                                                                                              *          20170811WMF1708117.TXT
MDDDH8235415201708                D89831228300PT1D20170817000030RADIO;AM/FM,CD                M IMCTM S5NC06 FTTL  07070IMCT  S5 CPB  00003                    2100 SR        000000000000 FUJITSU TEN (THAILAN170KPCL0081081                                                                                                                              *          20170811WMF1708117.TXT
MDDUH8224419201708                D89828070100PT4U20170816000030SPEAKER ASM                   M IMCTM S0FL05 FTTL  07070IMCT  S0 PTB  00004                    2230 SR        000000000000 FUJITSU TEN (THAILAN180LUAU0029029                                                                                                                              *          20170811WMF1708117.TXT
MDDUH8224420201708                D89828070100PT4U20170817000060SPEAKER ASM                   M IMCTM S0FL05 FTTL  07070IMCT  S0 PTB  00004                    0900 SR        000000000000 FUJITSU TEN (THAILAN180LUDU0231231180LUEU0142142                                                                                                                *          20170811WMF1708117.TXT
MDDUH8224421201708                D89828070100PT4U20170817000030SPEAKER ASM                   M IMCTM S0FL05 FTTL  07070IMCT  S0 PTB  00004                    1600 SR        000000000000 FUJITSU TEN (THAILAN180LUAU0030030                                                                                                                              *          20170811WMF1708117.TXT
MDDUH8224422201708                D89828070100PT4U20170817000030SPEAKER ASM                   M IMCTM S0FL05 FTTL  07070IMCT  S0 PTB  00004                    2100 SR        000000000000 FUJITSU TEN (THAILAN180LUEU0143143                                                                                                                              *          20170811WMF1708117.TXT
MDDUH8224423201708                D89828070200PV4U20170816000030SPEAKER ASM                   M IMCTM S0FR05 FTTL  07070IMCT  S0 PTB  00005                    2230 SR        000000000000 FUJITSU TEN (THAILAN180LUAU0029029                                                                                                                              *          20170811WMF1708117.TXT
MDDUH8224424201708                D89828070200PV4U20170817000060SPEAKER ASM                   M IMCTM S0FR05 FTTL  07070IMCT  S0 PTB  00005                    0900 SR        000000000000 FUJITSU TEN (THAILAN180LUDU0231231180LUEU0142142                                                                                                                *          20170811WMF1708117.TXT
MDDUH8224425201708                D89828070200PV4U20170817000030SPEAKER ASM                   M IMCTM S0FR05 FTTL  07070IMCT  S0 PTB  00005                    1600 SR        000000000000 FUJITSU TEN (THAILAN180LUAU0030030                                                                                                                              *          20170811WMF1708117.TXT
MDDUH8224426201708                D89828070200PV4U20170817000030SPEAKER ASM                   M IMCTM S0FR05 FTTL  07070IMCT  S0 PTB  00005                    2100 SR        000000000000 FUJITSU TEN (THAILAN180LUEU0143143                                                                                                                              *          20170811WMF1708117.TXT
MDDUH8224427201708                D89828070300PT4U20170816000030SPEAKER ASM                   M IMCTM S9TS02 FTTL  07070IMCT  S9 PTB  00015                    2230 SR        000000000000 FUJITSU TEN (THAILAN180LUAU0029029                                                                                                                              *          20170811WMF1708117.TXT
MDDUH8224428201708                D89828070300PT4U20170817000060SPEAKER ASM                   M IMCTM S9TS02 FTTL  07070IMCT  S9 PTB  00015                    0900 SR        000000000000 FUJITSU TEN (THAILAN180LUDU0231231180LUEU0142142                                                                                                                *          20170811WMF1708117.TXT
MDDUH8224429201708                D89828070300PT4U20170817000030SPEAKER ASM                   M IMCTM S9TS02 FTTL  07070IMCT  S9 PTB  00015                    1600 SR        000000000000 FUJITSU TEN (THAILAN180LUAU0030030                                                                                                                              *          20170811WMF1708117.TXT
MDDUH8224430201708                D89828070300PT4U20170817000030SPEAKER ASM                   M IMCTM S9TS02 FTTL  07070IMCT  S9 PTB  00015                    2100 SR        000000000000 FUJITSU TEN (THAILAN180LUEU0143143                                                                                                                              *          20170811WMF1708117.TXT
MDDUH8224431201708                D89831228400PT4U20170816000015RADIO;AM/FM,CD                M IMCTM S9CO001FTTL  07070IMCT  S9 CPB  00003                    2230 SR        000000000000 FUJITSU TEN (THAILAN180LUAU0029029                                                                                                                              *          20170811WMF1708117.TXT
MDDUH8224432201708                D89831228400PT4U20170817000015RADIO;AM/FM,CD                M IMCTM S9CO001FTTL  07070IMCT  S9 CPB  00003                    1600 SR        000000000000 FUJITSU TEN (THAILAN180LUAU0030030                                                                                                                              *          20170811WMF1708117.TXT
MDEDH8250770201708                D89828070100PV1D20170816000060SPEAKER ASM                   M IMCTM S5MB11 FTTL  07070IMCT  S5 PTB  00004                    2230 SR        000000000000 FUJITSU TEN (THAILAN17010ML003203217055NL0044044                                                                                                                *          20170811WMF1708117.TXT
MDEDH8250771201708                D89828070100PV1D20170817000030SPEAKER ASM                   M IMCTM S5MB11 FTTL  07070IMCT  S5 PTB  00004                    0230 SR        000000000000 FUJITSU TEN (THAILAN17055NL0045045                                                                                                                              *          20170811WMF1708117.TXT
MDEDH8250772201708                D89828070100PV1D20170817000030SPEAKER ASM                   M IMCTM S5MB11 FTTL  07070IMCT  S5 PTB  00004                    0400 SR        000000000000 FUJITSU TEN (THAILAN17041TL0002002                                                                                                                              *          20170811WMF1708117.TXT
MDEDH8250773201708                D89828070100PV1D20170817000060SPEAKER ASM                   M IMCTM S5MB11 FTTL  07070IMCT  S5 PTB  00004                    0900 SR        000000000000 FUJITSU TEN (THAILAN17012ML0024025                                                                                                                              *          20170811WMF1708117.TXT
MDEDH8250774201708                D89828070100PV1D20170817000060SPEAKER ASM                   M IMCTM S5MB11 FTTL  07070IMCT  S5 PTB  00004                    1300 SR        000000000000 FUJITSU TEN (THAILAN17068NL0021022                                                                                                                              *          20170811WMF1708117.TXT
MDEDH8250775201708                D89828070100PV1D20170817000060SPEAKER ASM                   M IMCTM S5MB11 FTTL  07070IMCT  S5 PTB  00004                    1600 SR        000000000000 FUJITSU TEN (THAILAN17063NL0024025                                                                                                                              *          20170811WMF1708117.TXT
MDEDH8250776201708                D89828070100PV4D20170817000030SPEAKER ASM                   M IMCTM S0FL05 FTTL  07070IMCT  S0 PTB  00004                    0400 SR        000000000000 FUJITSU TEN (THAILAN17060NU0011011                                                                                                                              *          20170811WMF1708117.TXT
MDEDH8250777201708                D89828070100PV4D20170817000030SPEAKER ASM                   M IMCTM S0FL05 FTTL  07070IMCT  S0 PTB  00004                    0900 SR        000000000000 FUJITSU TEN (THAILAN17024NU0012012                                                                                                                              *          20170811WMF1708117.TXT
MDEDH8250778201708                D89828070100PV4D20170817000030SPEAKER ASM                   M IMCTM S0FL05 FTTL  07070IMCT  S0 PTB  00004                    1300 SR        000000000000 FUJITSU TEN (THAILAN17072NU0006006                                                                                                                              *          20170811WMF1708117.TXT
MDEDH8250779201708                D89828070100PV4D20170817000030SPEAKER ASM                   M IMCTM S0FL05 FTTL  07070IMCT  S0 PTB  00004                    1600 SR        000000000000 FUJITSU TEN (THAILAN17080NU0047047                                                                                                                              *          20170811WMF1708117.TXT
MDEDH8250780201708                D89828070100PV4D20170817000030SPEAKER ASM                   M IMCTM S0FL05 FTTL  07070IMCT  S0 PTB  00004                    2230 SR        000000000000 FUJITSU TEN (THAILAN17079NU0045045                                                                                                                              *          20170811WMF1708117.TXT
MDEDH8250781201708                D89828070200PV1D20170817000060SPEAKER ASM                   M IMCTM S5MA14 FTTL  07070IMCT  S5 PTB  00005                    0900 SR        000000000000 FUJITSU TEN (THAILAN17012ML0024025                                                                                                                              *          20170811WMF1708117.TXT
MDEDH8250782201708                D89828070200PV4D20170817000030SPEAKER ASM                   M IMCTM S0FR05 FTTL  07070IMCT  S0 PTB  00005                    0400 SR        000000000000 FUJITSU TEN (THAILAN17060NU0011011                                                                                                                              *          20170811WMF1708117.TXT
MDEDH8250783201708                D89828070200PV4D20170817000030SPEAKER ASM                   M IMCTM S0FR05 FTTL  07070IMCT  S0 PTB  00005                    0900 SR        000000000000 FUJITSU TEN (THAILAN17024NU0012012                                                                                                                              *          20170811WMF1708117.TXT
MDEDH8250784201708                D89828070200PV4D20170817000030SPEAKER ASM                   M IMCTM S0FR05 FTTL  07070IMCT  S0 PTB  00005                    1300 SR        000000000000 FUJITSU TEN (THAILAN17072NU0006006                                                                                                                              *          20170811WMF1708117.TXT
MDEDH8250785201708                D89828070200PV4D20170817000030SPEAKER ASM                   M IMCTM S0FR05 FTTL  07070IMCT  S0 PTB  00005                    1600 SR        000000000000 FUJITSU TEN (THAILAN17080NU0047047                                                                                                                              *          20170811WMF1708117.TXT
MDEDH8250786201708                D89828070200PV4D20170817000030SPEAKER ASM                   M IMCTM S0FR05 FTTL  07070IMCT  S0 PTB  00005                    2230 SR        000000000000 FUJITSU TEN (THAILAN17079NU0045045                                                                                                                              *          20170811WMF1708117.TXT
MDEDH8250787201708                D89828070300PT1D20170816000030SPEAKER ASM                   M IMCTM S5NB082FTTL  07070IMCT  S5 PTB  00015                    2230 SR        000000000000 FUJITSU TEN (THAILAN17055NL0044044                                                                                                                              *          20170811WMF1708117.TXT
MDEDH8250788201708                D89828070300PT1D20170817000030SPEAKER ASM                   M IMCTM S5NB082FTTL  07070IMCT  S5 PTB  00015                    0230 SR        000000000000 FUJITSU TEN (THAILAN17055NL0045045                                                                                                                              *          20170811WMF1708117.TXT
MDEDH8250789201708                D89828070300PT1D20170817000060SPEAKER ASM                   M IMCTM S5NB082FTTL  07070IMCT  S5 PTB  00015                    0900 SR        000000000000 FUJITSU TEN (THAILAN17012ML0024025                                                                                                                              *          20170811WMF1708117.TXT
MDEDH8250790201708                D89828070300PT1D20170817000060SPEAKER ASM                   M IMCTM S5NB082FTTL  07070IMCT  S5 PTB  00015                    1300 SR        000000000000 FUJITSU TEN (THAILAN17068NL0021022                                                                                                                              *          20170811WMF1708117.TXT
MDEDH8250791201708                D89828070300PT1D20170817000060SPEAKER ASM                   M IMCTM S5NB082FTTL  07070IMCT  S5 PTB  00015                    1600 SR        000000000000 FUJITSU TEN (THAILAN17063NL0024025                                                                                                                              *          20170811WMF1708117.TXT
MDEDH8250792201708                D89828070300PT4D20170817000030SPEAKER ASM                   M IMCTM S9TS02 FTTL  07070IMCT  S9 PTB  00015                    0400 SR        000000000000 FUJITSU TEN (THAILAN17060NU0011011                                                                                                                              *          20170811WMF1708117.TXT
MDEDH8250793201708                D89828070300PT4D20170817000030SPEAKER ASM                   M IMCTM S9TS02 FTTL  07070IMCT  S9 PTB  00015                    0900 SR        000000000000 FUJITSU TEN (THAILAN17024NU0012012                                                                                                                              *          20170811WMF1708117.TXT
MDEDH8250794201708                D89828070300PT4D20170817000030SPEAKER ASM                   M IMCTM S9TS02 FTTL  07070IMCT  S9 PTB  00015                    1300 SR        000000000000 FUJITSU TEN (THAILAN17072NU0006006                                                                                                                              *          20170811WMF1708117.TXT
MDEDH8250795201708                D89828070300PT4D20170817000030SPEAKER ASM                   M IMCTM S9TS02 FTTL  07070IMCT  S9 PTB  00015                    1600 SR        000000000000 FUJITSU TEN (THAILAN17080NU0047047                                                                                                                              *          20170811WMF1708117.TXT
MDEDH8250796201708                D89828070300PT4D20170817000030SPEAKER ASM                   M IMCTM S9TS02 FTTL  07070IMCT  S9 PTB  00015                    2230 SR        000000000000 FUJITSU TEN (THAILAN17079NU0045045                                                                                                                              *          20170811WMF1708117.TXT
MDEDH8250797201708                D89831228800PT1D20170817000030RADIO;AM/FM,CD                M IMCTM S5NC06 FTTL  07070IMCT  S5 PTB  00003                    0900 SR        000000000000 FUJITSU TEN (THAILAN17012ML0024025                                                                                                                              *          20170811WMF1708117.TXT
MDEDH8250798201708                D89848581800PT1D20170816000015RADIO;AM/FM CD D              M IMCTM S5NC06 FTTL  07070IMCT  S5 PTB  00003                    2230 SR        000000000000 FUJITSU TEN (THAILAN17055NL0044044                                                                                                                              *          20170811WMF1708117.TXT
MDEDH8250799201708                D89848581800PT1D20170817000015RADIO;AM/FM CD D              M IMCTM S5NC06 FTTL  07070IMCT  S5 PTB  00003                    0230 SR        000000000000 FUJITSU TEN (THAILAN17055NL0045045                                                                                                                              *          20170811WMF1708117.TXT
MDEDH8250800201708                D89848581800PT1D20170817000030RADIO;AM/FM CD D              M IMCTM S5NC06 FTTL  07070IMCT  S5 PTB  00003                    1600 SR        000000000000 FUJITSU TEN (THAILAN17063NL0024025                                                                                                                              *          20170811WMF1708117.TXT
MDEDH8250801201708                D89848581800PT4D20170817000015RADIO;AM/FM CD D              M IMCTM S9CO001FTTL  07070IMCT  S9 PTB  00003                    1300 SR        000000000000 FUJITSU TEN (THAILAN17072NU0006006                                                                                                                              *          20170811WMF1708117.TXT
MDEDH8250802201708                D89848581800PT4D20170817000015RADIO;AM/FM CD D              M IMCTM S9CO001FTTL  07070IMCT  S9 PTB  00003                    2230 SR        000000000000 FUJITSU TEN (THAILAN17079NU0045045                                                                                                                              *          20170811WMF1708117.TXT
MDEUH8227483201708                D89828070100PT4U20170816000030SPEAKER ASM                   M IMCTM S0FL05 FTTL  07070IMCT  S0 PTB  00004                    2230 SR        000000000000 FUJITSU TEN (THAILAN18023TU0137137                                                                                                                              *          20170811WMF1708117.TXT
MDEUH8227484201708                D89828070100PT4U20170817000030SPEAKER ASM                   M IMCTM S0FL05 FTTL  07070IMCT  S0 PTB  00004                    0400 SR        000000000000 FUJITSU TEN (THAILAN170C12U0079079                                                                                                                              *          20170811WMF1708117.TXT
MDEUH8227485201708                D89828070100PT4U20170817000030SPEAKER ASM                   M IMCTM S0FL05 FTTL  07070IMCT  S0 PTB  00004                    1300 SR        000000000000 FUJITSU TEN (THAILAN18023TU0138138                                                                                                                              *          20170811WMF1708117.TXT
MDEUH8227486201708                D89828070100PT4U20170817000060SPEAKER ASM                   M IMCTM S0FL05 FTTL  07070IMCT  S0 PTB  00004                    1600 SR        000000000000 FUJITSU TEN (THAILAN170C13U013313318022TU0069069                                                                                                                *          20170811WMF1708117.TXT
MDEUH8227487201708                D89828070200PV4U20170816000030SPEAKER ASM                   M IMCTM S0FR05 FTTL  07070IMCT  S0 PTB  00005                    2230 SR        000000000000 FUJITSU TEN (THAILAN18023TU0137137                                                                                                                              *          20170811WMF1708117.TXT
MDEUH8227488201708                D89828070200PV4U20170817000030SPEAKER ASM                   M IMCTM S0FR05 FTTL  07070IMCT  S0 PTB  00005                    0400 SR        000000000000 FUJITSU TEN (THAILAN170C12U0079079                                                                                                                              *          20170811WMF1708117.TXT
MDEUH8227489201708                D89828070200PV4U20170817000030SPEAKER ASM                   M IMCTM S0FR05 FTTL  07070IMCT  S0 PTB  00005                    1300 SR        000000000000 FUJITSU TEN (THAILAN18023TU0138138                                                                                                                              *          20170811WMF1708117.TXT
MDEUH8227490201708                D89828070200PV4U20170817000060SPEAKER ASM                   M IMCTM S0FR05 FTTL  07070IMCT  S0 PTB  00005                    1600 SR        000000000000 FUJITSU TEN (THAILAN170C13U013313318022TU0069069                                                                                                                *          20170811WMF1708117.TXT
MDEUH8227491201708                D89828070300PT4U20170816000030SPEAKER ASM                   M IMCTM S9TS02 FTTL  07070IMCT  S9 PTB  00015                    2230 SR        000000000000 FUJITSU TEN (THAILAN18023TU0137137                                                                                                                              *          20170811WMF1708117.TXT
MDEUH8227492201708                D89828070300PT4U20170817000030SPEAKER ASM                   M IMCTM S9TS02 FTTL  07070IMCT  S9 PTB  00015                    0400 SR        000000000000 FUJITSU TEN (THAILAN170C12U0079079                                                                                                                              *          20170811WMF1708117.TXT
MDEUH8227493201708                D89828070300PT4U20170817000030SPEAKER ASM                   M IMCTM S9TS02 FTTL  07070IMCT  S9 PTB  00015                    1300 SR        000000000000 FUJITSU TEN (THAILAN18023TU0138138                                                                                                                              *          20170811WMF1708117.TXT
MDEUH8227494201708                D89828070300PT4U20170817000060SPEAKER ASM                   M IMCTM S9TS02 FTTL  07070IMCT  S9 PTB  00015                    1600 SR        000000000000 FUJITSU TEN (THAILAN170C13U013313318022TU0069069                                                                                                                *          20170811WMF1708117.TXT
