REC2017080220170802ISUZU                              31     
MAKK77134035201708D1               89805293700P3YK20170814000120SPEAKER ASM                   M IMCTM CM1    FTTL  07070IMKDC KA   PTB00003  K0                0900DES        000000000000 FUJITSU TEN (THAILAN                                                                                                                                            *G         20170802WMF1708026.TXT
MAKK77134036201708D1               89805293700P3YK20170815000090SPEAKER ASM                   M IMCTM CM1    FTTL  07070IMKDC KA   PTB00003  K0                0900DES        000000000000 FUJITSU TEN (THAILAN                                                                                                                                            *G         20170802WMF1708026.TXT
MAKK77134037201708D1               89805293700P3YK20170816000120SPEAKER ASM                   M IMCTM CM1    FTTL  07070IMKDC KA   PTB00003  K0                0900DES        000000000000 FUJITSU TEN (THAILAN                                                                                                                                            *G         20170802WMF1708026.TXT
MAKK77134038201708D1               89805293700P3YK20170817000150SPEAKER ASM                   M IMCTM CM1    FTTL  07070IMKDC KA   PTB00003  K0                0900DES        000000000000 FUJITSU TEN (THAILAN                                                                                                                                            *G         20170802WMF1708026.TXT
MAKK77134039201708D1               89805293700P3YK20170818000180SPEAKER ASM                   M IMCTM CM1    FTTL  07070IMKDC KA   PTB00003  K0                0900DES        000000000000 FUJITSU TEN (THAILAN                                                                                                                                            *G         20170802WMF1708026.TXT
MAKK77134040201708D1               89805293700P3YK20170819000090SPEAKER ASM                   M IMCTM CM1    FTTL  07070IMKDC KA   PTB00003  K0                0900DES        000000000000 FUJITSU TEN (THAILAN                                                                                                                                            *G         20170802WMF1708026.TXT
MAKK77134041201708D1               89805294000P3YK20170816000060SPEAKER ASM                   M IMCTM CM1    FTTL  07070IMKDC KA   PTB00015  K0                0900DES        000000000000 FUJITSU TEN (THAILAN                                                                                                                                            *G         20170802WMF1708026.TXT
MAKK77134042201708D1               89805294000P3YK20170817000030SPEAKER ASM                   M IMCTM CM1    FTTL  07070IMKDC KA   PTB00015  K0                0900DES        000000000000 FUJITSU TEN (THAILAN                                                                                                                                            *G         20170802WMF1708026.TXT
MAKK77134043201708D1               89805294000P3YK20170818000060SPEAKER ASM                   M IMCTM CM1    FTTL  07070IMKDC KA   PTB00015  K0                0900DES        000000000000 FUJITSU TEN (THAILAN                                                                                                                                            *G         20170802WMF1708026.TXT
MAKK77134044201708D1               89805294000P3YK20170819000030SPEAKER ASM                   M IMCTM CM1    FTTL  07070IMKDC KA   PTB00015  K0                0900DES        000000000000 FUJITSU TEN (THAILAN                                                                                                                                            *G         20170802WMF1708026.TXT
MAKK77134045201708D1               89805294100P3YK20170816000030SPEAKER ASM                   M IMCTM CM1    FTTL  07070IMKDC KA   PTB00005  K0                0900DES        000000000000 FUJITSU TEN (THAILAN                                                                                                                                            *G         20170802WMF1708026.TXT
MAKK77134046201708D1               89805294100P3YK20170818000060SPEAKER ASM                   M IMCTM CM1    FTTL  07070IMKDC KA   PTB00005  K0                0900DES        000000000000 FUJITSU TEN (THAILAN                                                                                                                                            *G         20170802WMF1708026.TXT
MAKK77134047201708D1               89805294100P3YK20170819000030SPEAKER ASM                   M IMCTM CM1    FTTL  07070IMKDC KA   PTB00005  K0                0900DES        000000000000 FUJITSU TEN (THAILAN                                                                                                                                            *G         20170802WMF1708026.TXT
MAKK77134048201708D1               89805294200P3YK20170816000030SPEAKER ASM                   M IMCTM CM1    FTTL  07070IMKDC KA X    00030  K0                0900DES        000000000000 FUJITSU TEN (THAILAN                                                                                                                                            *G         20170802WMF1708026.TXT
MAKK77134049201708D1               89805294200P3YK20170817000030SPEAKER ASM                   M IMCTM CM1    FTTL  07070IMKDC KA X    00030  K0                0900DES        000000000000 FUJITSU TEN (THAILAN                                                                                                                                            *G         20170802WMF1708026.TXT
MAKK77134050201708D1               89806470400P3YK20170816000015SPEAKER ASM;RDO,              M IMCTM CM1    FTTL  07070IMKDC KA   PTB00015  K0                0900DES        000000000000 FUJITSU TEN (THAILAN                                                                                                                                            *G         20170802WMF1708026.TXT
MAKK77134051201708D1               89806470400P3YK20170817000015SPEAKER ASM;RDO,              M IMCTM CM1    FTTL  07070IMKDC KA   PTB00015  K0                0900DES        000000000000 FUJITSU TEN (THAILAN                                                                                                                                            *G         20170802WMF1708026.TXT
MAKK77134052201708D1               89825451200P3YK20170814000030SPEAKER ASM;ROOF              M IMCTM CM1    FTTL  07070IMKDC KA   PTB00015  K0                0900DES        000000000000 FUJITSU TEN (THAILAN                                                                                                                                            *G         20170802WMF1708026.TXT
MAKK77134053201708D1               89825451200P3YK20170815000030SPEAKER ASM;ROOF              M IMCTM CM1    FTTL  07070IMKDC KA   PTB00015  K0                0900DES        000000000000 FUJITSU TEN (THAILAN                                                                                                                                            *G         20170802WMF1708026.TXT
MAKK77134054201708D1               89825451200P3YK20170816000030SPEAKER ASM;ROOF              M IMCTM CM1    FTTL  07070IMKDC KA   PTB00015  K0                0900DES        000000000000 FUJITSU TEN (THAILAN                                                                                                                                            *G         20170802WMF1708026.TXT
MAKK77134055201708D1               89828070100P3YK20170814000090SPEAKER ASM                   M IMCTM CM1    FTTL  07070IMKDC KA PTB  00004  K0                0900DES        000000000000 FUJITSU TEN (THAILAN                                                                                                                                            *G         20170802WMF1708026.TXT
MAKK77134056201708D1               89828070100P3YK20170815000060SPEAKER ASM                   M IMCTM CM1    FTTL  07070IMKDC KA PTB  00004  K0                0900DES        000000000000 FUJITSU TEN (THAILAN                                                                                                                                            *G         20170802WMF1708026.TXT
MAKK77134057201708D1               89828070100P3YK20170816000060SPEAKER ASM                   M IMCTM CM1    FTTL  07070IMKDC KA PTB  00004  K0                0900DES        000000000000 FUJITSU TEN (THAILAN                                                                                                                                            *G         20170802WMF1708026.TXT
MAKK77134058201708D1               89828070100P3YK20170817000090SPEAKER ASM                   M IMCTM CM1    FTTL  07070IMKDC KA PTB  00004  K0                0900DES        000000000000 FUJITSU TEN (THAILAN                                                                                                                                            *G         20170802WMF1708026.TXT
MAKK77134059201708D1               89828070100P3YK20170818000090SPEAKER ASM                   M IMCTM CM1    FTTL  07070IMKDC KA PTB  00004  K0                0900DES        000000000000 FUJITSU TEN (THAILAN                                                                                                                                            *G         20170802WMF1708026.TXT
MAKK77134060201708D1               89828070100P3YK20170819000060SPEAKER ASM                   M IMCTM CM1    FTTL  07070IMKDC KA PTB  00004  K0                0900DES        000000000000 FUJITSU TEN (THAILAN                                                                                                                                            *G         20170802WMF1708026.TXT
MAKK77134061201708D1               89828070200P3YK20170814000030SPEAKER ASM                   M IMCTM CM1    FTTL  07070IMKDC KA PTB  00005  K0                0900DES        000000000000 FUJITSU TEN (THAILAN                                                                                                                                            *G         20170802WMF1708026.TXT
MAKK77134062201708D1               89828070200P3YK20170817000030SPEAKER ASM                   M IMCTM CM1    FTTL  07070IMKDC KA PTB  00005  K0                0900DES        000000000000 FUJITSU TEN (THAILAN                                                                                                                                            *G         20170802WMF1708026.TXT
MAKK77134063201708D1               89828070300P3YK20170814000030SPEAKER ASM                   M IMCTM CM1    FTTL  07070IMKDC KA PTB  00015  K0                0900DES        000000000000 FUJITSU TEN (THAILAN                                                                                                                                            *G         20170802WMF1708026.TXT
MAKK77134064201708D1               89828070300P3YK20170816000030SPEAKER ASM                   M IMCTM CM1    FTTL  07070IMKDC KA PTB  00015  K0                0900DES        000000000000 FUJITSU TEN (THAILAN                                                                                                                                            *G         20170802WMF1708026.TXT
MAKK77134065201708D1               89828070300P3YK20170817000030SPEAKER ASM                   M IMCTM CM1    FTTL  07070IMKDC KA PTB  00015  K0                0900DES        000000000000 FUJITSU TEN (THAILAN                                                                                                                                            *G         20170802WMF1708026.TXT
