REC2017081720170817ISUZU                              25     
MAKK78073049201708D1               89805293700P3YK20170828000090SPEAKER ASM                   M IMCTM CM1    FTTL  07070IMKDC KA   PTB00003  K0                0900DES        000000000000 FUJITSU TEN (THAILAN                                                                                                                                            *G         20170817WMF1708171.TXT
MAKK78073050201708D1               89805293700P3YK20170829000060SPEAKER ASM                   M IMCTM CM1    FTTL  07070IMKDC KA   PTB00003  K0                0900DES        000000000000 FUJITSU TEN (THAILAN                                                                                                                                            *G         20170817WMF1708171.TXT
MAKK78073051201708D1               89805293700P3YK20170830000150SPEAKER ASM                   M IMCTM CM1    FTTL  07070IMKDC KA   PTB00003  K0                0900DES        000000000000 FUJITSU TEN (THAILAN                                                                                                                                            *G         20170817WMF1708171.TXT
MAKK78073052201708D1               89805293700P3YK20170831000060SPEAKER ASM                   M IMCTM CM1    FTTL  07070IMKDC KA   PTB00003  K0                0900DES        000000000000 FUJITSU TEN (THAILAN                                                                                                                                            *G         20170817WMF1708171.TXT
MAKK78073053201708D1               89805293700P3YK20170901000150SPEAKER ASM                   M IMCTM CM1    FTTL  07070IMKDC KA   PTB00003  K0                0900DES        000000000000 FUJITSU TEN (THAILAN                                                                                                                                            *G         20170817WMF1708171.TXT
MAKK78073054201708D1               89805293700P3YK20170902000180SPEAKER ASM                   M IMCTM CM1    FTTL  07070IMKDC KA   PTB00003  K0                0900DES        000000000000 FUJITSU TEN (THAILAN                                                                                                                                            *G         20170817WMF1708171.TXT
MAKK78073055201708D1               89805294000P3YK20170901000030SPEAKER ASM                   M IMCTM CM1    FTTL  07070IMKDC KA   PTB00015  K0                0900DES        000000000000 FUJITSU TEN (THAILAN                                                                                                                                            *G         20170817WMF1708171.TXT
MAKK78073056201708D1               89805294100P3YK20170901000030SPEAKER ASM                   M IMCTM CM1    FTTL  07070IMKDC KA   PTB00005  K0                0900DES        000000000000 FUJITSU TEN (THAILAN                                                                                                                                            *G         20170817WMF1708171.TXT
MAKK78073057201708D1               89825451200P3YK20170829000030SPEAKER ASM;ROOF              M IMCTM CM1    FTTL  07070IMKDC KA   PTB00015  K0                0900DES        000000000000 FUJITSU TEN (THAILAN                                                                                                                                            *G         20170817WMF1708171.TXT
MAKK78073058201708D1               89825451200P3YK20170831000030SPEAKER ASM;ROOF              M IMCTM CM1    FTTL  07070IMKDC KA   PTB00015  K0                0900DES        000000000000 FUJITSU TEN (THAILAN                                                                                                                                            *G         20170817WMF1708171.TXT
MAKK78073059201708D1               89825451200P3YK20170901000030SPEAKER ASM;ROOF              M IMCTM CM1    FTTL  07070IMKDC KA   PTB00015  K0                0900DES        000000000000 FUJITSU TEN (THAILAN                                                                                                                                            *G         20170817WMF1708171.TXT
MAKK78073060201708D1               89825451200P3YK20170902000090SPEAKER ASM;ROOF              M IMCTM CM1    FTTL  07070IMKDC KA   PTB00015  K0                0900DES        000000000000 FUJITSU TEN (THAILAN                                                                                                                                            *G         20170817WMF1708171.TXT
MAKK78073061201708D1               89828070100P3YK20170828000060SPEAKER ASM                   M IMCTM CM1    FTTL  07070IMKDC KA PTB  00004  K0                0900DES        000000000000 FUJITSU TEN (THAILAN                                                                                                                                            *G         20170817WMF1708171.TXT
MAKK78073062201708D1               89828070100P3YK20170829000060SPEAKER ASM                   M IMCTM CM1    FTTL  07070IMKDC KA PTB  00004  K0                0900DES        000000000000 FUJITSU TEN (THAILAN                                                                                                                                            *G         20170817WMF1708171.TXT
MAKK78073063201708D1               89828070100P3YK20170830000060SPEAKER ASM                   M IMCTM CM1    FTTL  07070IMKDC KA PTB  00004  K0                0900DES        000000000000 FUJITSU TEN (THAILAN                                                                                                                                            *G         20170817WMF1708171.TXT
MAKK78073064201708D1               89828070100P3YK20170831000240SPEAKER ASM                   M IMCTM CM1    FTTL  07070IMKDC KA PTB  00004  K0                0900DES        000000000000 FUJITSU TEN (THAILAN                                                                                                                                            *G         20170817WMF1708171.TXT
MAKK78073065201708D1               89828070100P3YK20170901000150SPEAKER ASM                   M IMCTM CM1    FTTL  07070IMKDC KA PTB  00004  K0                0900DES        000000000000 FUJITSU TEN (THAILAN                                                                                                                                            *G         20170817WMF1708171.TXT
MAKK78073066201708D1               89828070100P3YK20170902000150SPEAKER ASM                   M IMCTM CM1    FTTL  07070IMKDC KA PTB  00004  K0                0900DES        000000000000 FUJITSU TEN (THAILAN                                                                                                                                            *G         20170817WMF1708171.TXT
MAKK78073067201708D1               89828070200P3YK20170828000030SPEAKER ASM                   M IMCTM CM1    FTTL  07070IMKDC KA PTB  00005  K0                0900DES        000000000000 FUJITSU TEN (THAILAN                                                                                                                                            *G         20170817WMF1708171.TXT
MAKK78073068201708D1               89828070200P3YK20170831000120SPEAKER ASM                   M IMCTM CM1    FTTL  07070IMKDC KA PTB  00005  K0                0900DES        000000000000 FUJITSU TEN (THAILAN                                                                                                                                            *G         20170817WMF1708171.TXT
MAKK78073069201708D1               89828070200P3YK20170902000120SPEAKER ASM                   M IMCTM CM1    FTTL  07070IMKDC KA PTB  00005  K0                0900DES        000000000000 FUJITSU TEN (THAILAN                                                                                                                                            *G         20170817WMF1708171.TXT
MAKK78073070201708D1               89828070300P3YK20170828000030SPEAKER ASM                   M IMCTM CM1    FTTL  07070IMKDC KA PTB  00015  K0                0900DES        000000000000 FUJITSU TEN (THAILAN                                                                                                                                            *G         20170817WMF1708171.TXT
MAKK78073071201708D1               89828070300P3YK20170831000120SPEAKER ASM                   M IMCTM CM1    FTTL  07070IMKDC KA PTB  00015  K0                0900DES        000000000000 FUJITSU TEN (THAILAN                                                                                                                                            *G         20170817WMF1708171.TXT
MAKK78073072201708D1               89828070300P3YK20170902000150SPEAKER ASM                   M IMCTM CM1    FTTL  07070IMKDC KA PTB  00015  K0                0900DES        000000000000 FUJITSU TEN (THAILAN                                                                                                                                            *G         20170817WMF1708171.TXT
MAKK78073073201708D1               89831228700P3YK20170902000015RADIO;AM/FM,CD                M IMCTM CM1    FTTL  07070IMKDC KA PTB  00003  K0                0900DES        000000000000 FUJITSU TEN (THAILAN                                                                                                                                            *G         20170817WMF1708171.TXT
