REC2017073120170731ISUZU                              52     
MDDDH7283360201708                D89821984430PT1D20170803000060RADIO;AM/FM,CD                M IMCTM S5NC06 FTTL  07070IMCT  S5 PTB  00005                    2230 SR        000000000000 FUJITSU TEN (THAILAN170KNEL0147147170KRAL0115115                                                                                                                *          20170731WMF1707313.TXT
MDDDH7283361201708                D89821984430PT1D20170804000060RADIO;AM/FM,CD                M IMCTM S5NC06 FTTL  07070IMCT  S5 PTB  00005                    0400 SR        000000000000 FUJITSU TEN (THAILAN170KNEL0148148170KPAL0142142                                                                                                                *          20170731WMF1707313.TXT
MDDDH7283362201708                D89821984430PT1D20170804000030RADIO;AM/FM,CD                M IMCTM S5NC06 FTTL  07070IMCT  S5 PTB  00005                    1300 SR        000000000000 FUJITSU TEN (THAILAN170KPAL0143143                                                                                                                              *          20170731WMF1707313.TXT
MDDDH7283363201708                D89821984430PT1D20170804000030RADIO;AM/FM,CD                M IMCTM S5NC06 FTTL  07070IMCT  S5 PTB  00005                    2100 SR        000000000000 FUJITSU TEN (THAILAN170KNEL0149149                                                                                                                              *          20170731WMF1707313.TXT
MDDDH7283364201708                D89828070100PV1D20170803000120SPEAKER ASM                   M IMCTM S5MB11 FTTL  07070IMCT  S5 PTB  00004                    2230 SR        000000000000 FUJITSU TEN (THAILAN170KNEL0147147170KRAL0115115                                                                                                                *          20170731WMF1707313.TXT
MDDDH7283365201708                D89828070100PV1D20170804000120SPEAKER ASM                   M IMCTM S5MB11 FTTL  07070IMCT  S5 PTB  00004                    0400 SR        000000000000 FUJITSU TEN (THAILAN170KNEL0148148170KPAL0142142                                                                                                                *          20170731WMF1707313.TXT
MDDDH7283366201708                D89828070100PV1D20170804000060SPEAKER ASM                   M IMCTM S5MB11 FTTL  07070IMCT  S5 PTB  00004                    0900 SR        000000000000 FUJITSU TEN (THAILAN170KPDL0010010                                                                                                                              *          20170731WMF1707313.TXT
MDDDH7283367201708                D89828070100PV1D20170804000060SPEAKER ASM                   M IMCTM S5MB11 FTTL  07070IMCT  S5 PTB  00004                    1300 SR        000000000000 FUJITSU TEN (THAILAN170KPAL0143143                                                                                                                              *          20170731WMF1707313.TXT
MDDDH7283368201708                D89828070100PV1D20170804000060SPEAKER ASM                   M IMCTM S5MB11 FTTL  07070IMCT  S5 PTB  00004                    1600 SR        000000000000 FUJITSU TEN (THAILAN170KRBL0006006                                                                                                                              *          20170731WMF1707313.TXT
MDDDH7283369201708                D89828070100PV1D20170804000060SPEAKER ASM                   M IMCTM S5MB11 FTTL  07070IMCT  S5 PTB  00004                    2100 SR        000000000000 FUJITSU TEN (THAILAN170KNEL0149149                                                                                                                              *          20170731WMF1707313.TXT
MDDDH7283370201708                D89828070200PV1D20170804000060SPEAKER ASM                   M IMCTM S5MA14 FTTL  07070IMCT  S5 PTB  00005                    1600 SR        000000000000 FUJITSU TEN (THAILAN170KRBL0006006                                                                                                                              *          20170731WMF1707313.TXT
MDDDH7283371201708                D89828070300PT1D20170804000060SPEAKER ASM                   M IMCTM S5NB082FTTL  07070IMCT  S5 PTB  00015                    0900 SR        000000000000 FUJITSU TEN (THAILAN170KPDL0010010                                                                                                                              *          20170731WMF1707313.TXT
MDDDH7283372201708                D89828070300PT1D20170804000060SPEAKER ASM                   M IMCTM S5NB082FTTL  07070IMCT  S5 PTB  00015                    1600 SR        000000000000 FUJITSU TEN (THAILAN170KRBL0006006                                                                                                                              *          20170731WMF1707313.TXT
MDDDH7283373201708                D89831228300PT1D20170804000030RADIO;AM/FM,CD                M IMCTM S5NC06 FTTL  07070IMCT  S5 CPB  00003                    0900 SR        000000000000 FUJITSU TEN (THAILAN170KPDL0010010                                                                                                                              *          20170731WMF1707313.TXT
MDDDH7283374201708                D89831228400PT1D20170804000030RADIO;AM/FM,CD                M IMCTM S5NC06 FTTL  07070IMCT  S5 CPB  00003                    1600 SR        000000000000 FUJITSU TEN (THAILAN170KRBL0006006                                                                                                                              *          20170731WMF1707313.TXT
MDDUH7246311201708                D89828070100PT4U20170803000030SPEAKER ASM                   M IMCTM S0FL05 FTTL  07070IMCT  S0 PTB  00004                    2230 SR        000000000000 FUJITSU TEN (THAILAN180LUDU0219219                                                                                                                              *          20170731WMF1707313.TXT
MDDUH7246312201708                D89828070100PT4U20170804000030SPEAKER ASM                   M IMCTM S0FL05 FTTL  07070IMCT  S0 PTB  00004                    0400 SR        000000000000 FUJITSU TEN (THAILAN180LUAU0018018                                                                                                                              *          20170731WMF1707313.TXT
MDDUH7246313201708                D89828070100PT4U20170804000060SPEAKER ASM                   M IMCTM S0FL05 FTTL  07070IMCT  S0 PTB  00004                    0900 SR        000000000000 FUJITSU TEN (THAILAN180LUBU0015015180LUDU0220220                                                                                                                *          20170731WMF1707313.TXT
MDDUH7246314201708                D89828070100PT4U20170804000030SPEAKER ASM                   M IMCTM S0FL05 FTTL  07070IMCT  S0 PTB  00004                    1300 SR        000000000000 FUJITSU TEN (THAILAN180LUCU0064064                                                                                                                              *          20170731WMF1707313.TXT
MDDUH7246315201708                D89828070200PV4U20170803000030SPEAKER ASM                   M IMCTM S0FR05 FTTL  07070IMCT  S0 PTB  00005                    2230 SR        000000000000 FUJITSU TEN (THAILAN180LUDU0219219                                                                                                                              *          20170731WMF1707313.TXT
MDDUH7246316201708                D89828070200PV4U20170804000030SPEAKER ASM                   M IMCTM S0FR05 FTTL  07070IMCT  S0 PTB  00005                    0400 SR        000000000000 FUJITSU TEN (THAILAN180LUAU0018018                                                                                                                              *          20170731WMF1707313.TXT
MDDUH7246317201708                D89828070200PV4U20170804000060SPEAKER ASM                   M IMCTM S0FR05 FTTL  07070IMCT  S0 PTB  00005                    0900 SR        000000000000 FUJITSU TEN (THAILAN180LUBU0015015180LUDU0220220                                                                                                                *          20170731WMF1707313.TXT
MDDUH7246318201708                D89828070200PV4U20170804000030SPEAKER ASM                   M IMCTM S0FR05 FTTL  07070IMCT  S0 PTB  00005                    1300 SR        000000000000 FUJITSU TEN (THAILAN180LUCU0064064                                                                                                                              *          20170731WMF1707313.TXT
MDDUH7246319201708                D89828070300PT4U20170803000030SPEAKER ASM                   M IMCTM S9TS02 FTTL  07070IMCT  S9 PTB  00015                    2230 SR        000000000000 FUJITSU TEN (THAILAN180LUDU0219219                                                                                                                              *          20170731WMF1707313.TXT
MDDUH7246320201708                D89828070300PT4U20170804000030SPEAKER ASM                   M IMCTM S9TS02 FTTL  07070IMCT  S9 PTB  00015                    0400 SR        000000000000 FUJITSU TEN (THAILAN180LUAU0018018                                                                                                                              *          20170731WMF1707313.TXT
MDDUH7246321201708                D89828070300PT4U20170804000060SPEAKER ASM                   M IMCTM S9TS02 FTTL  07070IMCT  S9 PTB  00015                    0900 SR        000000000000 FUJITSU TEN (THAILAN180LUBU0015015180LUDU0220220                                                                                                                *          20170731WMF1707313.TXT
MDDUH7246322201708                D89828070300PT4U20170804000030SPEAKER ASM                   M IMCTM S9TS02 FTTL  07070IMCT  S9 PTB  00015                    1300 SR        000000000000 FUJITSU TEN (THAILAN180LUCU0064064                                                                                                                              *          20170731WMF1707313.TXT
MDDUH7246323201708                D89831228400PT4U20170804000015RADIO;AM/FM,CD                M IMCTM S9CO001FTTL  07070IMCT  S9 CPB  00003                    0400 SR        000000000000 FUJITSU TEN (THAILAN180LUAU0018018                                                                                                                              *          20170731WMF1707313.TXT
MDDUH7246324201708                D89835097910PT4U20170804000015RADIO;ASM DVD                 M IMCTM S9TS01 FTTL  07070IMCT  S9 PTB  00003                    0900 SR        000000000000 FUJITSU TEN (THAILAN180LUBU0015015                                                                                                                              *          20170731WMF1707313.TXT
MDDUH7246325201708                D89835097910PT4U20170804000015RADIO;ASM DVD                 M IMCTM S9TS01 FTTL  07070IMCT  S9 PTB  00003                    1300 SR        000000000000 FUJITSU TEN (THAILAN180LUCU0064064                                                                                                                              *          20170731WMF1707313.TXT
MDEDH7328953201708                D89828070100PV1D20170803000030SPEAKER ASM                   M IMCTM S5MB11 FTTL  07070IMCT  S5 PTB  00004                    2230 SR        000000000000 FUJITSU TEN (THAILAN17052TL0029029                                                                                                                              *          20170731WMF1707313.TXT
MDEDH7328954201708                D89828070100PV1D20170804000030SPEAKER ASM                   M IMCTM S5MB11 FTTL  07070IMCT  S5 PTB  00004                    0230 SR        000000000000 FUJITSU TEN (THAILAN17080NL0086086                                                                                                                              *          20170731WMF1707313.TXT
MDEDH7328955201708                D89828070100PV1D20170804000030SPEAKER ASM                   M IMCTM S5MB11 FTTL  07070IMCT  S5 PTB  00004                    0400 SR        000000000000 FUJITSU TEN (THAILAN17080NL0087087                                                                                                                              *          20170731WMF1707313.TXT
MDEDH7328956201708                D89828070100PV1D20170804000060SPEAKER ASM                   M IMCTM S5MB11 FTTL  07070IMCT  S5 PTB  00004                    0900 SR        000000000000 FUJITSU TEN (THAILAN17010ML003003017028RL0011011                                                                                                                *          20170731WMF1707313.TXT
MDEDH7328957201708                D89828070100PV1D20170804000030SPEAKER ASM                   M IMCTM S5MB11 FTTL  07070IMCT  S5 PTB  00004                    1300 SR        000000000000 FUJITSU TEN (THAILAN17054PL0040040                                                                                                                              *          20170731WMF1707313.TXT
MDEDH7328958201708                D89828070100PV1D20170804000030SPEAKER ASM                   M IMCTM S5MB11 FTTL  07070IMCT  S5 PTB  00004                    1600 SR        000000000000 FUJITSU TEN (THAILAN17042NL0001001                                                                                                                              *          20170731WMF1707313.TXT
MDEDH7328959201708                D89828070100PV4D20170804000030SPEAKER ASM                   M IMCTM S0FL05 FTTL  07070IMCT  S0 PTB  00004                    1300 SR        000000000000 FUJITSU TEN (THAILAN17080NU0043043                                                                                                                              *          20170731WMF1707313.TXT
MDEDH7328960201708                D89828070100PV4D20170804000030SPEAKER ASM                   M IMCTM S0FL05 FTTL  07070IMCT  S0 PTB  00004                    1600 SR        000000000000 FUJITSU TEN (THAILAN17080NU0044044                                                                                                                              *          20170731WMF1707313.TXT
MDEDH7328961201708                D89828070200PV1D20170804000030SPEAKER ASM                   M IMCTM S5MA14 FTTL  07070IMCT  S5 PTB  00005                    0230 SR        000000000000 FUJITSU TEN (THAILAN17080NL0086086                                                                                                                              *          20170731WMF1707313.TXT
MDEDH7328962201708                D89828070200PV1D20170804000030SPEAKER ASM                   M IMCTM S5MA14 FTTL  07070IMCT  S5 PTB  00005                    0400 SR        000000000000 FUJITSU TEN (THAILAN17080NL0087087                                                                                                                              *          20170731WMF1707313.TXT
MDEDH7328963201708                D89828070200PV4D20170804000030SPEAKER ASM                   M IMCTM S0FR05 FTTL  07070IMCT  S0 PTB  00005                    1300 SR        000000000000 FUJITSU TEN (THAILAN17080NU0043043                                                                                                                              *          20170731WMF1707313.TXT
MDEDH7328964201708                D89828070200PV4D20170804000030SPEAKER ASM                   M IMCTM S0FR05 FTTL  07070IMCT  S0 PTB  00005                    1600 SR        000000000000 FUJITSU TEN (THAILAN17080NU0044044                                                                                                                              *          20170731WMF1707313.TXT
MDEDH7328965201708                D89828070300PT1D20170804000030SPEAKER ASM                   M IMCTM S5NB082FTTL  07070IMCT  S5 PTB  00015                    0230 SR        000000000000 FUJITSU TEN (THAILAN17080NL0086086                                                                                                                              *          20170731WMF1707313.TXT
MDEDH7328966201708                D89828070300PT1D20170804000030SPEAKER ASM                   M IMCTM S5NB082FTTL  07070IMCT  S5 PTB  00015                    0400 SR        000000000000 FUJITSU TEN (THAILAN17080NL0087087                                                                                                                              *          20170731WMF1707313.TXT
MDEDH7328967201708                D89828070300PT4D20170804000030SPEAKER ASM                   M IMCTM S9TS02 FTTL  07070IMCT  S9 PTB  00015                    1300 SR        000000000000 FUJITSU TEN (THAILAN17080NU0043043                                                                                                                              *          20170731WMF1707313.TXT
MDEDH7328968201708                D89828070300PT4D20170804000030SPEAKER ASM                   M IMCTM S9TS02 FTTL  07070IMCT  S9 PTB  00015                    1600 SR        000000000000 FUJITSU TEN (THAILAN17080NU0044044                                                                                                                              *          20170731WMF1707313.TXT
MDEUH7292788201708                D89828070100PT4U20170804000030SPEAKER ASM                   M IMCTM S0FL05 FTTL  07070IMCT  S0 PTB  00004                    0230 SR        000000000000 FUJITSU TEN (THAILAN18024TU0018018                                                                                                                              *          20170731WMF1707313.TXT
MDEUH7292789201708                D89828070100PT4U20170804000030SPEAKER ASM                   M IMCTM S0FL05 FTTL  07070IMCT  S0 PTB  00004                    2100 SR        000000000000 FUJITSU TEN (THAILAN18002TU0001001                                                                                                                              *          20170731WMF1707313.TXT
MDEUH7292790201708                D89828070200PV4U20170804000030SPEAKER ASM                   M IMCTM S0FR05 FTTL  07070IMCT  S0 PTB  00005                    0230 SR        000000000000 FUJITSU TEN (THAILAN18024TU0018018                                                                                                                              *          20170731WMF1707313.TXT
MDEUH7292791201708                D89828070200PV4U20170804000030SPEAKER ASM                   M IMCTM S0FR05 FTTL  07070IMCT  S0 PTB  00005                    2100 SR        000000000000 FUJITSU TEN (THAILAN18002TU0001001                                                                                                                              *          20170731WMF1707313.TXT
MDEUH7292792201708                D89828070300PT4U20170804000030SPEAKER ASM                   M IMCTM S9TS02 FTTL  07070IMCT  S9 PTB  00015                    0230 SR        000000000000 FUJITSU TEN (THAILAN18024TU0018018                                                                                                                              *          20170731WMF1707313.TXT
MDEUH7292793201708                D89828070300PT4U20170804000030SPEAKER ASM                   M IMCTM S9TS02 FTTL  07070IMCT  S9 PTB  00015                    2100 SR        000000000000 FUJITSU TEN (THAILAN18002TU0001001                                                                                                                              *          20170731WMF1707313.TXT
