REC2017080920170809ISUZU                              78     
MDDDH8226091201708                D89821984430PT1D20170815000030RADIO;AM/FM,CD                M IMCTM S5NC06 FTTL  07070IMCT  S5 PTB  00005                    0230 SR        000000000000 FUJITSU TEN (THAILAN170KPAL0155155                                                                                                                              *          20170809WMF1708093.TXT
MDDDH8226092201708                D89821984430PT1D20170815000030RADIO;AM/FM,CD                M IMCTM S5NC06 FTTL  07070IMCT  S5 PTB  00005                    0400 SR        000000000000 FUJITSU TEN (THAILAN170KPAL0156156                                                                                                                              *          20170809WMF1708093.TXT
MDDDH8226093201708                D89821984430PT1D20170815000030RADIO;AM/FM,CD                M IMCTM S5NC06 FTTL  07070IMCT  S5 PTB  00005                    0900 SR        000000000000 FUJITSU TEN (THAILAN170KPAL0157157                                                                                                                              *          20170809WMF1708093.TXT
MDDDH8226094201708                D89821984430PT1D20170815000030RADIO;AM/FM,CD                M IMCTM S5NC06 FTTL  07070IMCT  S5 PTB  00005                    1300 SR        000000000000 FUJITSU TEN (THAILAN170KPAL0158158                                                                                                                              *          20170809WMF1708093.TXT
MDDDH8226095201708                D89821984430PT1D20170815000030RADIO;AM/FM,CD                M IMCTM S5NC06 FTTL  07070IMCT  S5 PTB  00005                    1600 SR        000000000000 FUJITSU TEN (THAILAN170KRAL0131131                                                                                                                              *          20170809WMF1708093.TXT
MDDDH8226096201708                D89828070100PV1D20170815000060SPEAKER ASM                   M IMCTM S5MB11 FTTL  07070IMCT  S5 PTB  00004                    0230 SR        000000000000 FUJITSU TEN (THAILAN170KPAL0155155                                                                                                                              *          20170809WMF1708093.TXT
MDDDH8226097201708                D89828070100PV1D20170815000120SPEAKER ASM                   M IMCTM S5MB11 FTTL  07070IMCT  S5 PTB  00004                    0400 SR        000000000000 FUJITSU TEN (THAILAN170KPAL0156156170KPFL0197197                                                                                                                *          20170809WMF1708093.TXT
MDDDH8226098201708                D89828070100PV1D20170815000060SPEAKER ASM                   M IMCTM S5MB11 FTTL  07070IMCT  S5 PTB  00004                    0900 SR        000000000000 FUJITSU TEN (THAILAN170KPAL0157157                                                                                                                              *          20170809WMF1708093.TXT
MDDDH8226099201708                D89828070100PV1D20170815000060SPEAKER ASM                   M IMCTM S5MB11 FTTL  07070IMCT  S5 PTB  00004                    1300 SR        000000000000 FUJITSU TEN (THAILAN170KPAL0158158                                                                                                                              *          20170809WMF1708093.TXT
MDDDH8226100201708                D89828070100PV1D20170815000120SPEAKER ASM                   M IMCTM S5MB11 FTTL  07070IMCT  S5 PTB  00004                    1600 SR        000000000000 FUJITSU TEN (THAILAN170KPFL0198198170KRAL0131131                                                                                                                *          20170809WMF1708093.TXT
MDDDH8226101201708                D89828070100PV1D20170815000060SPEAKER ASM                   M IMCTM S5MB11 FTTL  07070IMCT  S5 PTB  00004                    2100 SR        000000000000 FUJITSU TEN (THAILAN170KPNL0005005                                                                                                                              *          20170809WMF1708093.TXT
MDDDH8226102201708                D89828070300PT1D20170815000060SPEAKER ASM                   M IMCTM S5NB082FTTL  07070IMCT  S5 PTB  00015                    0400 SR        000000000000 FUJITSU TEN (THAILAN170KPFL0197197                                                                                                                              *          20170809WMF1708093.TXT
MDDDH8226103201708                D89828070300PT1D20170815000060SPEAKER ASM                   M IMCTM S5NB082FTTL  07070IMCT  S5 PTB  00015                    1600 SR        000000000000 FUJITSU TEN (THAILAN170KPFL0198198                                                                                                                              *          20170809WMF1708093.TXT
MDDDH8226104201708                D89828070300PT1D20170815000060SPEAKER ASM                   M IMCTM S5NB082FTTL  07070IMCT  S5 PTB  00015                    2100 SR        000000000000 FUJITSU TEN (THAILAN170KPNL0005005                                                                                                                              *          20170809WMF1708093.TXT
MDDDH8226105201708                D89831228300PT1D20170815000030RADIO;AM/FM,CD                M IMCTM S5NC06 FTTL  07070IMCT  S5 CPB  00003                    0400 SR        000000000000 FUJITSU TEN (THAILAN170KPFL0197197                                                                                                                              *          20170809WMF1708093.TXT
MDDDH8226106201708                D89831228300PT1D20170815000030RADIO;AM/FM,CD                M IMCTM S5NC06 FTTL  07070IMCT  S5 CPB  00003                    1600 SR        000000000000 FUJITSU TEN (THAILAN170KPFL0198198                                                                                                                              *          20170809WMF1708093.TXT
MDDUH8218722201708                D89828070100PT4U20170815000060SPEAKER ASM                   M IMCTM S0FL05 FTTL  07070IMCT  S0 PTB  00004                    0900 SR        000000000000 FUJITSU TEN (THAILAN180LUAU0028028180LUDU0228228                                                                                                                *          20170809WMF1708093.TXT
MDDUH8218723201708                D89828070100PT4U20170815000030SPEAKER ASM                   M IMCTM S0FL05 FTTL  07070IMCT  S0 PTB  00004                    1300 SR        000000000000 FUJITSU TEN (THAILAN180LUEU0139139                                                                                                                              *          20170809WMF1708093.TXT
MDDUH8218724201708                D89828070100PT4U20170815000030SPEAKER ASM                   M IMCTM S0FL05 FTTL  07070IMCT  S0 PTB  00004                    1600 SR        000000000000 FUJITSU TEN (THAILAN180LUEU0140140                                                                                                                              *          20170809WMF1708093.TXT
MDDUH8218725201708                D89828070100PT4U20170815000030SPEAKER ASM                   M IMCTM S0FL05 FTTL  07070IMCT  S0 PTB  00004                    2230 SR        000000000000 FUJITSU TEN (THAILAN180LUDU0229229                                                                                                                              *          20170809WMF1708093.TXT
MDDUH8218726201708                D89828070200PV4U20170815000060SPEAKER ASM                   M IMCTM S0FR05 FTTL  07070IMCT  S0 PTB  00005                    0900 SR        000000000000 FUJITSU TEN (THAILAN180LUAU0028028180LUDU0228228                                                                                                                *          20170809WMF1708093.TXT
MDDUH8218727201708                D89828070200PV4U20170815000030SPEAKER ASM                   M IMCTM S0FR05 FTTL  07070IMCT  S0 PTB  00005                    1300 SR        000000000000 FUJITSU TEN (THAILAN180LUEU0139139                                                                                                                              *          20170809WMF1708093.TXT
MDDUH8218728201708                D89828070200PV4U20170815000030SPEAKER ASM                   M IMCTM S0FR05 FTTL  07070IMCT  S0 PTB  00005                    1600 SR        000000000000 FUJITSU TEN (THAILAN180LUEU0140140                                                                                                                              *          20170809WMF1708093.TXT
MDDUH8218729201708                D89828070200PV4U20170815000030SPEAKER ASM                   M IMCTM S0FR05 FTTL  07070IMCT  S0 PTB  00005                    2230 SR        000000000000 FUJITSU TEN (THAILAN180LUDU0229229                                                                                                                              *          20170809WMF1708093.TXT
MDDUH8218730201708                D89828070300PT4U20170815000060SPEAKER ASM                   M IMCTM S9TS02 FTTL  07070IMCT  S9 PTB  00015                    0900 SR        000000000000 FUJITSU TEN (THAILAN180LUAU0028028180LUDU0228228                                                                                                                *          20170809WMF1708093.TXT
MDDUH8218731201708                D89828070300PT4U20170815000030SPEAKER ASM                   M IMCTM S9TS02 FTTL  07070IMCT  S9 PTB  00015                    1300 SR        000000000000 FUJITSU TEN (THAILAN180LUEU0139139                                                                                                                              *          20170809WMF1708093.TXT
MDDUH8218732201708                D89828070300PT4U20170815000030SPEAKER ASM                   M IMCTM S9TS02 FTTL  07070IMCT  S9 PTB  00015                    1600 SR        000000000000 FUJITSU TEN (THAILAN180LUEU0140140                                                                                                                              *          20170809WMF1708093.TXT
MDDUH8218733201708                D89828070300PT4U20170815000030SPEAKER ASM                   M IMCTM S9TS02 FTTL  07070IMCT  S9 PTB  00015                    2230 SR        000000000000 FUJITSU TEN (THAILAN180LUDU0229229                                                                                                                              *          20170809WMF1708093.TXT
MDDUH8218734201708                D89831228400PT4U20170815000015RADIO;AM/FM,CD                M IMCTM S9CO001FTTL  07070IMCT  S9 CPB  00003                    0900 SR        000000000000 FUJITSU TEN (THAILAN180LUAU0028028                                                                                                                              *          20170809WMF1708093.TXT
MDEDH8235385201708                D89828070100PV1D20170814000090SPEAKER ASM                   M IMCTM S5MB11 FTTL  07070IMCT  S5 PTB  00004                    2230 SR        000000000000 FUJITSU TEN (THAILAN17006ML001201217054NL0008009                                                                                                                *          20170809WMF1708093.TXT
MDEDH8235386201708                D89828070100PV1D20170815000030SPEAKER ASM                   M IMCTM S5MB11 FTTL  07070IMCT  S5 PTB  00004                    0230 SR        000000000000 FUJITSU TEN (THAILAN17064NL0019019                                                                                                                              *          20170809WMF1708093.TXT
MDEDH8235387201708                D89828070100PV1D20170815000030SPEAKER ASM                   M IMCTM S5MB11 FTTL  07070IMCT  S5 PTB  00004                    0400 SR        000000000000 FUJITSU TEN (THAILAN17064NL0020020                                                                                                                              *          20170809WMF1708093.TXT
MDEDH8235388201708                D89828070100PV1D20170815000060SPEAKER ASM                   M IMCTM S5MB11 FTTL  07070IMCT  S5 PTB  00004                    0900 SR        000000000000 FUJITSU TEN (THAILAN17018ML0021022                                                                                                                              *          20170809WMF1708093.TXT
MDEDH8235389201708                D89828070100PV1D20170815000030SPEAKER ASM                   M IMCTM S5MB11 FTTL  07070IMCT  S5 PTB  00004                    1300 SR        000000000000 FUJITSU TEN (THAILAN17026NL0022022                                                                                                                              *          20170809WMF1708093.TXT
MDEDH8235390201708                D89828070100PV1D20170815000060SPEAKER ASM                   M IMCTM S5MB11 FTTL  07070IMCT  S5 PTB  00004                    1600 SR        000000000000 FUJITSU TEN (THAILAN17031SL000100117060NL0029029                                                                                                                *          20170809WMF1708093.TXT
MDEDH8235391201708                D89828070100PV1D20170815000030SPEAKER ASM                   M IMCTM S5MB11 FTTL  07070IMCT  S5 PTB  00004                    2230 SR        000000000000 FUJITSU TEN (THAILAN17034PL0032032                                                                                                                              *          20170809WMF1708093.TXT
MDEDH8235392201708                D89828070100PV4D20170815000030SPEAKER ASM                   M IMCTM S0FL05 FTTL  07070IMCT  S0 PTB  00004                    0230 SR        000000000000 FUJITSU TEN (THAILAN17074NU0019019                                                                                                                              *          20170809WMF1708093.TXT
MDEDH8235393201708                D89828070100PV4D20170815000030SPEAKER ASM                   M IMCTM S0FL05 FTTL  07070IMCT  S0 PTB  00004                    0900 SR        000000000000 FUJITSU TEN (THAILAN17024NU0010010                                                                                                                              *          20170809WMF1708093.TXT
MDEDH8235394201708                D89828070100PV4D20170815000030SPEAKER ASM                   M IMCTM S0FL05 FTTL  07070IMCT  S0 PTB  00004                    1300 SR        000000000000 FUJITSU TEN (THAILAN17066NU0012012                                                                                                                              *          20170809WMF1708093.TXT
MDEDH8235395201708                D89828070100PV4D20170815000030SPEAKER ASM                   M IMCTM S0FL05 FTTL  07070IMCT  S0 PTB  00004                    1600 SR        000000000000 FUJITSU TEN (THAILAN17080NU0045045                                                                                                                              *          20170809WMF1708093.TXT
MDEDH8235396201708                D89828070100PV4D20170815000030SPEAKER ASM                   M IMCTM S0FL05 FTTL  07070IMCT  S0 PTB  00004                    2100 SR        000000000000 FUJITSU TEN (THAILAN17074NU0020020                                                                                                                              *          20170809WMF1708093.TXT
MDEDH8235397201708                D89828070200PV1D20170814000060SPEAKER ASM                   M IMCTM S5MA14 FTTL  07070IMCT  S5 PTB  00005                    2230 SR        000000000000 FUJITSU TEN (THAILAN17054NL0008009                                                                                                                              *          20170809WMF1708093.TXT
MDEDH8235398201708                D89828070200PV1D20170815000060SPEAKER ASM                   M IMCTM S5MA14 FTTL  07070IMCT  S5 PTB  00005                    0900 SR        000000000000 FUJITSU TEN (THAILAN17018ML0021022                                                                                                                              *          20170809WMF1708093.TXT
MDEDH8235399201708                D89828070200PV1D20170815000030SPEAKER ASM                   M IMCTM S5MA14 FTTL  07070IMCT  S5 PTB  00005                    1300 SR        000000000000 FUJITSU TEN (THAILAN17026NL0022022                                                                                                                              *          20170809WMF1708093.TXT
MDEDH8235400201708                D89828070200PV1D20170815000060SPEAKER ASM                   M IMCTM S5MA14 FTTL  07070IMCT  S5 PTB  00005                    1600 SR        000000000000 FUJITSU TEN (THAILAN17031SL000100117060NL0029029                                                                                                                *          20170809WMF1708093.TXT
MDEDH8235401201708                D89828070200PV1D20170815000030SPEAKER ASM                   M IMCTM S5MA14 FTTL  07070IMCT  S5 PTB  00005                    2230 SR        000000000000 FUJITSU TEN (THAILAN17034PL0032032                                                                                                                              *          20170809WMF1708093.TXT
MDEDH8235402201708                D89828070200PV4D20170815000030SPEAKER ASM                   M IMCTM S0FR05 FTTL  07070IMCT  S0 PTB  00005                    0230 SR        000000000000 FUJITSU TEN (THAILAN17074NU0019019                                                                                                                              *          20170809WMF1708093.TXT
MDEDH8235403201708                D89828070200PV4D20170815000030SPEAKER ASM                   M IMCTM S0FR05 FTTL  07070IMCT  S0 PTB  00005                    0900 SR        000000000000 FUJITSU TEN (THAILAN17024NU0010010                                                                                                                              *          20170809WMF1708093.TXT
MDEDH8235404201708                D89828070200PV4D20170815000030SPEAKER ASM                   M IMCTM S0FR05 FTTL  07070IMCT  S0 PTB  00005                    1600 SR        000000000000 FUJITSU TEN (THAILAN17080NU0045045                                                                                                                              *          20170809WMF1708093.TXT
MDEDH8235405201708                D89828070200PV4D20170815000030SPEAKER ASM                   M IMCTM S0FR05 FTTL  07070IMCT  S0 PTB  00005                    2100 SR        000000000000 FUJITSU TEN (THAILAN17074NU0020020                                                                                                                              *          20170809WMF1708093.TXT
MDEDH8235406201708                D89828070300PT1D20170814000060SPEAKER ASM                   M IMCTM S5NB082FTTL  07070IMCT  S5 PTB  00015                    2230 SR        000000000000 FUJITSU TEN (THAILAN17054NL0008009                                                                                                                              *          20170809WMF1708093.TXT
MDEDH8235407201708                D89828070300PT1D20170815000030SPEAKER ASM                   M IMCTM S5NB082FTTL  07070IMCT  S5 PTB  00015                    0230 SR        000000000000 FUJITSU TEN (THAILAN17064NL0019019                                                                                                                              *          20170809WMF1708093.TXT
MDEDH8235408201708                D89828070300PT1D20170815000030SPEAKER ASM                   M IMCTM S5NB082FTTL  07070IMCT  S5 PTB  00015                    0400 SR        000000000000 FUJITSU TEN (THAILAN17064NL0020020                                                                                                                              *          20170809WMF1708093.TXT
MDEDH8235409201708                D89828070300PT1D20170815000060SPEAKER ASM                   M IMCTM S5NB082FTTL  07070IMCT  S5 PTB  00015                    0900 SR        000000000000 FUJITSU TEN (THAILAN17018ML0021022                                                                                                                              *          20170809WMF1708093.TXT
MDEDH8235410201708                D89828070300PT1D20170815000030SPEAKER ASM                   M IMCTM S5NB082FTTL  07070IMCT  S5 PTB  00015                    1300 SR        000000000000 FUJITSU TEN (THAILAN17026NL0022022                                                                                                                              *          20170809WMF1708093.TXT
MDEDH8235411201708                D89828070300PT1D20170815000060SPEAKER ASM                   M IMCTM S5NB082FTTL  07070IMCT  S5 PTB  00015                    1600 SR        000000000000 FUJITSU TEN (THAILAN17031SL000100117060NL0029029                                                                                                                *          20170809WMF1708093.TXT
MDEDH8235412201708                D89828070300PT1D20170815000030SPEAKER ASM                   M IMCTM S5NB082FTTL  07070IMCT  S5 PTB  00015                    2230 SR        000000000000 FUJITSU TEN (THAILAN17034PL0032032                                                                                                                              *          20170809WMF1708093.TXT
MDEDH8235413201708                D89828070300PT4D20170815000030SPEAKER ASM                   M IMCTM S9TS02 FTTL  07070IMCT  S9 PTB  00015                    0230 SR        000000000000 FUJITSU TEN (THAILAN17074NU0019019                                                                                                                              *          20170809WMF1708093.TXT
MDEDH8235414201708                D89828070300PT4D20170815000030SPEAKER ASM                   M IMCTM S9TS02 FTTL  07070IMCT  S9 PTB  00015                    0900 SR        000000000000 FUJITSU TEN (THAILAN17024NU0010010                                                                                                                              *          20170809WMF1708093.TXT
MDEDH8235415201708                D89828070300PT4D20170815000030SPEAKER ASM                   M IMCTM S9TS02 FTTL  07070IMCT  S9 PTB  00015                    1300 SR        000000000000 FUJITSU TEN (THAILAN17066NU0012012                                                                                                                              *          20170809WMF1708093.TXT
MDEDH8235416201708                D89828070300PT4D20170815000030SPEAKER ASM                   M IMCTM S9TS02 FTTL  07070IMCT  S9 PTB  00015                    1600 SR        000000000000 FUJITSU TEN (THAILAN17080NU0045045                                                                                                                              *          20170809WMF1708093.TXT
MDEDH8235417201708                D89828070300PT4D20170815000030SPEAKER ASM                   M IMCTM S9TS02 FTTL  07070IMCT  S9 PTB  00015                    2100 SR        000000000000 FUJITSU TEN (THAILAN17074NU0020020                                                                                                                              *          20170809WMF1708093.TXT
MDEDH8235418201708                D89829645310PT1D20170815000030RADIO;ASM DVD                 M IMCTM S5NC06 FTTL  07070IMCT  S5 PTB  00003                    0900 SR        000000000000 FUJITSU TEN (THAILAN17018ML0021022                                                                                                                              *          20170809WMF1708093.TXT
MDEDH8235419201708                D89848581800PT1D20170814000030RADIO;AM/FM CD D              M IMCTM S5NC06 FTTL  07070IMCT  S5 PTB  00003                    2230 SR        000000000000 FUJITSU TEN (THAILAN17054NL0008009                                                                                                                              *          20170809WMF1708093.TXT
MDEDH8235420201708                D89848581800PT1D20170815000015RADIO;AM/FM CD D              M IMCTM S5NC06 FTTL  07070IMCT  S5 PTB  00003                    0230 SR        000000000000 FUJITSU TEN (THAILAN17064NL0019019                                                                                                                              *          20170809WMF1708093.TXT
MDEDH8235421201708                D89848581800PT1D20170815000015RADIO;AM/FM CD D              M IMCTM S5NC06 FTTL  07070IMCT  S5 PTB  00003                    0400 SR        000000000000 FUJITSU TEN (THAILAN17064NL0020020                                                                                                                              *          20170809WMF1708093.TXT
MDEDH8235422201708                D89848581800PT4D20170815000015RADIO;AM/FM CD D              M IMCTM S9CO001FTTL  07070IMCT  S9 PTB  00003                    0230 SR        000000000000 FUJITSU TEN (THAILAN17074NU0019019                                                                                                                              *          20170809WMF1708093.TXT
MDEDH8235423201708                D89848581800PT4D20170815000015RADIO;AM/FM CD D              M IMCTM S9CO001FTTL  07070IMCT  S9 PTB  00003                    2100 SR        000000000000 FUJITSU TEN (THAILAN17074NU0020020                                                                                                                              *          20170809WMF1708093.TXT
MDEDH8235424201708                D89848582500PT4D20170815000015RADIO;AM/FM CD D              M IMCTM S9CO001FTTL  07070IMCT  S9 PTB  00003                    1300 SR        000000000000 FUJITSU TEN (THAILAN17066NU0012012                                                                                                                              *          20170809WMF1708093.TXT
MDEUH8220003201708                D89828070100PT4U20170814000060SPEAKER ASM                   M IMCTM S0FL05 FTTL  07070IMCT  S0 PTB  00004                    2230 SR        000000000000 FUJITSU TEN (THAILAN18018TU003603618022TU0067067                                                                                                                *          20170809WMF1708093.TXT
MDEUH8220004201708                D89828070100PT4U20170815000060SPEAKER ASM                   M IMCTM S0FL05 FTTL  07070IMCT  S0 PTB  00004                    0400 SR        000000000000 FUJITSU TEN (THAILAN170C12U007707718023TU0134134                                                                                                                *          20170809WMF1708093.TXT
MDEUH8220005201708                D89828070100PT4U20170815000060SPEAKER ASM                   M IMCTM S0FL05 FTTL  07070IMCT  S0 PTB  00004                    1600 SR        000000000000 FUJITSU TEN (THAILAN170C13U013113118023TU0135135                                                                                                                *          20170809WMF1708093.TXT
MDEUH8220006201708                D89828070200PV4U20170814000060SPEAKER ASM                   M IMCTM S0FR05 FTTL  07070IMCT  S0 PTB  00005                    2230 SR        000000000000 FUJITSU TEN (THAILAN18018TU003603618022TU0067067                                                                                                                *          20170809WMF1708093.TXT
MDEUH8220007201708                D89828070200PV4U20170815000060SPEAKER ASM                   M IMCTM S0FR05 FTTL  07070IMCT  S0 PTB  00005                    0400 SR        000000000000 FUJITSU TEN (THAILAN170C12U007707718023TU0134134                                                                                                                *          20170809WMF1708093.TXT
MDEUH8220008201708                D89828070200PV4U20170815000060SPEAKER ASM                   M IMCTM S0FR05 FTTL  07070IMCT  S0 PTB  00005                    1600 SR        000000000000 FUJITSU TEN (THAILAN170C13U013113118023TU0135135                                                                                                                *          20170809WMF1708093.TXT
MDEUH8220009201708                D89828070300PT4U20170814000060SPEAKER ASM                   M IMCTM S9TS02 FTTL  07070IMCT  S9 PTB  00015                    2230 SR        000000000000 FUJITSU TEN (THAILAN18018TU003603618022TU0067067                                                                                                                *          20170809WMF1708093.TXT
MDEUH8220010201708                D89828070300PT4U20170815000060SPEAKER ASM                   M IMCTM S9TS02 FTTL  07070IMCT  S9 PTB  00015                    0400 SR        000000000000 FUJITSU TEN (THAILAN170C12U007707718023TU0134134                                                                                                                *          20170809WMF1708093.TXT
MDEUH8220011201708                D89828070300PT4U20170815000060SPEAKER ASM                   M IMCTM S9TS02 FTTL  07070IMCT  S9 PTB  00015                    1600 SR        000000000000 FUJITSU TEN (THAILAN170C13U013113118023TU0135135                                                                                                                *          20170809WMF1708093.TXT
