REC2017081020170810ISUZU                              71     
MDDDH8230626201708                D89821984430PT1D20170815000030RADIO;AM/FM,CD                M IMCTM S5NC06 FTTL  07070IMCT  S5 PTB  00005                    2230 SR        000000000000 FUJITSU TEN (THAILAN170KRAL0132132                                                                                                                              *          20170810WMF1708104.TXT
MDDDH8230627201708                D89821984430PT1D20170816000030RADIO;AM/FM,CD                M IMCTM S5NC06 FTTL  07070IMCT  S5 PTB  00005                    0230 SR        000000000000 FUJITSU TEN (THAILAN170KRAL0133133                                                                                                                              *          20170810WMF1708104.TXT
MDDDH8230628201708                D89821984430PT1D20170816000060RADIO;AM/FM,CD                M IMCTM S5NC06 FTTL  07070IMCT  S5 PTB  00005                    1300 SR        000000000000 FUJITSU TEN (THAILAN170KNFL0057057170KPAL0159159                                                                                                                *          20170810WMF1708104.TXT
MDDDH8230629201708                D89821984430PT1D20170816000060RADIO;AM/FM,CD                M IMCTM S5NC06 FTTL  07070IMCT  S5 PTB  00005                    1600 SR        000000000000 FUJITSU TEN (THAILAN170KNDL0155155170KRAL0134134                                                                                                                *          20170810WMF1708104.TXT
MDDDH8230630201708                D89828070100PV1D20170815000060SPEAKER ASM                   M IMCTM S5MB11 FTTL  07070IMCT  S5 PTB  00004                    2230 SR        000000000000 FUJITSU TEN (THAILAN170KRAL0132132                                                                                                                              *          20170810WMF1708104.TXT
MDDDH8230631201708                D89828070100PV1D20170816000060SPEAKER ASM                   M IMCTM S5MB11 FTTL  07070IMCT  S5 PTB  00004                    0230 SR        000000000000 FUJITSU TEN (THAILAN170KRAL0133133                                                                                                                              *          20170810WMF1708104.TXT
MDDDH8230632201708                D89828070100PV1D20170816000120SPEAKER ASM                   M IMCTM S5MB11 FTTL  07070IMCT  S5 PTB  00004                    0900 SR        000000000000 FUJITSU TEN (THAILAN170KPCL0080080170KPFL0199199                                                                                                                *          20170810WMF1708104.TXT
MDDDH8230633201708                D89828070100PV1D20170816000120SPEAKER ASM                   M IMCTM S5MB11 FTTL  07070IMCT  S5 PTB  00004                    1300 SR        000000000000 FUJITSU TEN (THAILAN170KNFL0057057170KPAL0159159                                                                                                                *          20170810WMF1708104.TXT
MDDDH8230634201708                D89828070100PV1D20170816000180SPEAKER ASM                   M IMCTM S5MB11 FTTL  07070IMCT  S5 PTB  00004                    1600 SR        000000000000 FUJITSU TEN (THAILAN170KNDL0155155170KPML0013013170KRAL0134134                                                                                                  *          20170810WMF1708104.TXT
MDDDH8230635201708                D89828070300PT1D20170816000120SPEAKER ASM                   M IMCTM S5NB082FTTL  07070IMCT  S5 PTB  00015                    0900 SR        000000000000 FUJITSU TEN (THAILAN170KPCL0080080170KPFL0199199                                                                                                                *          20170810WMF1708104.TXT
MDDDH8230636201708                D89828070300PT1D20170816000060SPEAKER ASM                   M IMCTM S5NB082FTTL  07070IMCT  S5 PTB  00015                    1600 SR        000000000000 FUJITSU TEN (THAILAN170KPML0013013                                                                                                                              *          20170810WMF1708104.TXT
MDDDH8230637201708                D89831228300PT1D20170816000060RADIO;AM/FM,CD                M IMCTM S5NC06 FTTL  07070IMCT  S5 CPB  00003                    0900 SR        000000000000 FUJITSU TEN (THAILAN170KPCL0080080170KPFL0199199                                                                                                                *          20170810WMF1708104.TXT
MDDUH8221819201708                D89828070100PT4U20170816000030SPEAKER ASM                   M IMCTM S0FL05 FTTL  07070IMCT  S0 PTB  00004                    0900 SR        000000000000 FUJITSU TEN (THAILAN180LUEU0141141                                                                                                                              *          20170810WMF1708104.TXT
MDDUH8221820201708                D89828070100PT4U20170816000060SPEAKER ASM                   M IMCTM S0FL05 FTTL  07070IMCT  S0 PTB  00004                    1600 SR        000000000000 FUJITSU TEN (THAILAN180LUCU0068068180LUDU0230230                                                                                                                *          20170810WMF1708104.TXT
MDDUH8221821201708                D89828070200PV4U20170816000030SPEAKER ASM                   M IMCTM S0FR05 FTTL  07070IMCT  S0 PTB  00005                    0900 SR        000000000000 FUJITSU TEN (THAILAN180LUEU0141141                                                                                                                              *          20170810WMF1708104.TXT
MDDUH8221822201708                D89828070200PV4U20170816000060SPEAKER ASM                   M IMCTM S0FR05 FTTL  07070IMCT  S0 PTB  00005                    1600 SR        000000000000 FUJITSU TEN (THAILAN180LUCU0068068180LUDU0230230                                                                                                                *          20170810WMF1708104.TXT
MDDUH8221823201708                D89828070300PT4U20170816000030SPEAKER ASM                   M IMCTM S9TS02 FTTL  07070IMCT  S9 PTB  00015                    0900 SR        000000000000 FUJITSU TEN (THAILAN180LUEU0141141                                                                                                                              *          20170810WMF1708104.TXT
MDDUH8221824201708                D89828070300PT4U20170816000060SPEAKER ASM                   M IMCTM S9TS02 FTTL  07070IMCT  S9 PTB  00015                    1600 SR        000000000000 FUJITSU TEN (THAILAN180LUCU0068068180LUDU0230230                                                                                                                *          20170810WMF1708104.TXT
MDDUH8221825201708                D89835097910PT4U20170816000015RADIO;ASM DVD                 M IMCTM S9TS01 FTTL  07070IMCT  S9 PTB  00003                    1600 SR        000000000000 FUJITSU TEN (THAILAN180LUCU0068068                                                                                                                              *          20170810WMF1708104.TXT
MDEDH8243196201708                D89828070100PV1D20170815000030SPEAKER ASM                   M IMCTM S5MB11 FTTL  07070IMCT  S5 PTB  00004                    2230 SR        000000000000 FUJITSU TEN (THAILAN17034PL0033033                                                                                                                              *          20170810WMF1708104.TXT
MDEDH8243197201708                D89828070100PV1D20170816000030SPEAKER ASM                   M IMCTM S5MB11 FTTL  07070IMCT  S5 PTB  00004                    0230 SR        000000000000 FUJITSU TEN (THAILAN17062NL0013013                                                                                                                              *          20170810WMF1708104.TXT
MDEDH8243198201708                D89828070100PV1D20170816000120SPEAKER ASM                   M IMCTM S5MB11 FTTL  07070IMCT  S5 PTB  00004                    0400 SR        000000000000 FUJITSU TEN (THAILAN17032PL000600617053NL004204317063ML0008008                                                                                                  *          20170810WMF1708104.TXT
MDEDH8243199201708                D89828070100PV1D20170816000030SPEAKER ASM                   M IMCTM S5MB11 FTTL  07070IMCT  S5 PTB  00004                    1300 SR        000000000000 FUJITSU TEN (THAILAN17071NL0015015                                                                                                                              *          20170810WMF1708104.TXT
MDEDH8243200201708                D89828070100PV1D20170816000030SPEAKER ASM                   M IMCTM S5MB11 FTTL  07070IMCT  S5 PTB  00004                    2100 SR        000000000000 FUJITSU TEN (THAILAN17010ML0031031                                                                                                                              *          20170810WMF1708104.TXT
MDEDH8243201201708                D89828070100PV4D20170815000030SPEAKER ASM                   M IMCTM S0FL05 FTTL  07070IMCT  S0 PTB  00004                    2230 SR        000000000000 FUJITSU TEN (THAILAN17060NU0009009                                                                                                                              *          20170810WMF1708104.TXT
MDEDH8243202201708                D89828070100PV4D20170816000030SPEAKER ASM                   M IMCTM S0FL05 FTTL  07070IMCT  S0 PTB  00004                    0400 SR        000000000000 FUJITSU TEN (THAILAN17080NU0046046                                                                                                                              *          20170810WMF1708104.TXT
MDEDH8243203201708                D89828070100PV4D20170816000030SPEAKER ASM                   M IMCTM S0FL05 FTTL  07070IMCT  S0 PTB  00004                    0900 SR        000000000000 FUJITSU TEN (THAILAN17079NU0044044                                                                                                                              *          20170810WMF1708104.TXT
MDEDH8243204201708                D89828070100PV4D20170816000030SPEAKER ASM                   M IMCTM S0FL05 FTTL  07070IMCT  S0 PTB  00004                    1300 SR        000000000000 FUJITSU TEN (THAILAN17072NU0005005                                                                                                                              *          20170810WMF1708104.TXT
MDEDH8243205201708                D89828070100PV4D20170816000030SPEAKER ASM                   M IMCTM S0FL05 FTTL  07070IMCT  S0 PTB  00004                    1600 SR        000000000000 FUJITSU TEN (THAILAN17024NU0011011                                                                                                                              *          20170810WMF1708104.TXT
MDEDH8243206201708                D89828070100PV4D20170816000030SPEAKER ASM                   M IMCTM S0FL05 FTTL  07070IMCT  S0 PTB  00004                    2100 SR        000000000000 FUJITSU TEN (THAILAN17060NU0010010                                                                                                                              *          20170810WMF1708104.TXT
MDEDH8243207201708                D89828070200PV1D20170815000030SPEAKER ASM                   M IMCTM S5MA14 FTTL  07070IMCT  S5 PTB  00005                    2230 SR        000000000000 FUJITSU TEN (THAILAN17034PL0033033                                                                                                                              *          20170810WMF1708104.TXT
MDEDH8243208201708                D89828070200PV1D20170816000030SPEAKER ASM                   M IMCTM S5MA14 FTTL  07070IMCT  S5 PTB  00005                    0400 SR        000000000000 FUJITSU TEN (THAILAN17032PL0006006                                                                                                                              *          20170810WMF1708104.TXT
MDEDH8243209201708                D89828070200PV1D20170816000030SPEAKER ASM                   M IMCTM S5MA14 FTTL  07070IMCT  S5 PTB  00005                    1300 SR        000000000000 FUJITSU TEN (THAILAN17071NL0015015                                                                                                                              *          20170810WMF1708104.TXT
MDEDH8243210201708                D89828070200PV4D20170815000030SPEAKER ASM                   M IMCTM S0FR05 FTTL  07070IMCT  S0 PTB  00005                    2230 SR        000000000000 FUJITSU TEN (THAILAN17060NU0009009                                                                                                                              *          20170810WMF1708104.TXT
MDEDH8243211201708                D89828070200PV4D20170816000030SPEAKER ASM                   M IMCTM S0FR05 FTTL  07070IMCT  S0 PTB  00005                    0400 SR        000000000000 FUJITSU TEN (THAILAN17080NU0046046                                                                                                                              *          20170810WMF1708104.TXT
MDEDH8243212201708                D89828070200PV4D20170816000030SPEAKER ASM                   M IMCTM S0FR05 FTTL  07070IMCT  S0 PTB  00005                    0900 SR        000000000000 FUJITSU TEN (THAILAN17079NU0044044                                                                                                                              *          20170810WMF1708104.TXT
MDEDH8243213201708                D89828070200PV4D20170816000030SPEAKER ASM                   M IMCTM S0FR05 FTTL  07070IMCT  S0 PTB  00005                    1300 SR        000000000000 FUJITSU TEN (THAILAN17072NU0005005                                                                                                                              *          20170810WMF1708104.TXT
MDEDH8243214201708                D89828070200PV4D20170816000030SPEAKER ASM                   M IMCTM S0FR05 FTTL  07070IMCT  S0 PTB  00005                    1600 SR        000000000000 FUJITSU TEN (THAILAN17024NU0011011                                                                                                                              *          20170810WMF1708104.TXT
MDEDH8243215201708                D89828070200PV4D20170816000030SPEAKER ASM                   M IMCTM S0FR05 FTTL  07070IMCT  S0 PTB  00005                    2100 SR        000000000000 FUJITSU TEN (THAILAN17060NU0010010                                                                                                                              *          20170810WMF1708104.TXT
MDEDH8243216201708                D89828070300PT1D20170815000030SPEAKER ASM                   M IMCTM S5NB082FTTL  07070IMCT  S5 PTB  00015                    2230 SR        000000000000 FUJITSU TEN (THAILAN17034PL0033033                                                                                                                              *          20170810WMF1708104.TXT
MDEDH8243217201708                D89828070300PT1D20170816000030SPEAKER ASM                   M IMCTM S5NB082FTTL  07070IMCT  S5 PTB  00015                    0230 SR        000000000000 FUJITSU TEN (THAILAN17062NL0013013                                                                                                                              *          20170810WMF1708104.TXT
MDEDH8243218201708                D89828070300PT1D20170816000120SPEAKER ASM                   M IMCTM S5NB082FTTL  07070IMCT  S5 PTB  00015                    0400 SR        000000000000 FUJITSU TEN (THAILAN17032PL000600617053NL004204317063ML0008008                                                                                                  *          20170810WMF1708104.TXT
MDEDH8243219201708                D89828070300PT1D20170816000030SPEAKER ASM                   M IMCTM S5NB082FTTL  07070IMCT  S5 PTB  00015                    1300 SR        000000000000 FUJITSU TEN (THAILAN17071NL0015015                                                                                                                              *          20170810WMF1708104.TXT
MDEDH8243220201708                D89828070300PT4D20170815000030SPEAKER ASM                   M IMCTM S9TS02 FTTL  07070IMCT  S9 PTB  00015                    2230 SR        000000000000 FUJITSU TEN (THAILAN17060NU0009009                                                                                                                              *          20170810WMF1708104.TXT
MDEDH8243221201708                D89828070300PT4D20170816000030SPEAKER ASM                   M IMCTM S9TS02 FTTL  07070IMCT  S9 PTB  00015                    0400 SR        000000000000 FUJITSU TEN (THAILAN17080NU0046046                                                                                                                              *          20170810WMF1708104.TXT
MDEDH8243222201708                D89828070300PT4D20170816000030SPEAKER ASM                   M IMCTM S9TS02 FTTL  07070IMCT  S9 PTB  00015                    0900 SR        000000000000 FUJITSU TEN (THAILAN17079NU0044044                                                                                                                              *          20170810WMF1708104.TXT
MDEDH8243223201708                D89828070300PT4D20170816000030SPEAKER ASM                   M IMCTM S9TS02 FTTL  07070IMCT  S9 PTB  00015                    1300 SR        000000000000 FUJITSU TEN (THAILAN17072NU0005005                                                                                                                              *          20170810WMF1708104.TXT
MDEDH8243224201708                D89828070300PT4D20170816000030SPEAKER ASM                   M IMCTM S9TS02 FTTL  07070IMCT  S9 PTB  00015                    1600 SR        000000000000 FUJITSU TEN (THAILAN17024NU0011011                                                                                                                              *          20170810WMF1708104.TXT
MDEDH8243225201708                D89828070300PT4D20170816000030SPEAKER ASM                   M IMCTM S9TS02 FTTL  07070IMCT  S9 PTB  00015                    2100 SR        000000000000 FUJITSU TEN (THAILAN17060NU0010010                                                                                                                              *          20170810WMF1708104.TXT
MDEDH8243226201708                D89829645310PT1D20170816000015RADIO;ASM DVD                 M IMCTM S5NC06 FTTL  07070IMCT  S5 PTB  00003                    0400 SR        000000000000 FUJITSU TEN (THAILAN17032PL0006006                                                                                                                              *          20170810WMF1708104.TXT
MDEDH8243227201708                D89831228600PT1D20170816000015RADIO;AM/FM,CD                M IMCTM S5NC06 FTTL  07070IMCT  S5 PTB  00003                    0230 SR        000000000000 FUJITSU TEN (THAILAN17062NL0013013                                                                                                                              *          20170810WMF1708104.TXT
MDEDH8243228201708                D89831228700PT1D20170816000015RADIO;AM/FM,CD                M IMCTM S5NC06 FTTL  07070IMCT  S5 PTB  00003                    0400 SR        000000000000 FUJITSU TEN (THAILAN17063ML0008008                                                                                                                              *          20170810WMF1708104.TXT
MDEDH8243229201708                D89848581800PT1D20170816000030RADIO;AM/FM CD D              M IMCTM S5NC06 FTTL  07070IMCT  S5 PTB  00003                    0400 SR        000000000000 FUJITSU TEN (THAILAN17053NL0042043                                                                                                                              *          20170810WMF1708104.TXT
MDEDH8243230201708                D89848581800PT1D20170816000015RADIO;AM/FM CD D              M IMCTM S5NC06 FTTL  07070IMCT  S5 PTB  00003                    1300 SR        000000000000 FUJITSU TEN (THAILAN17071NL0015015                                                                                                                              *          20170810WMF1708104.TXT
MDEDH8243231201708                D89848581800PT4D20170816000015RADIO;AM/FM CD D              M IMCTM S9CO001FTTL  07070IMCT  S9 PTB  00003                    0900 SR        000000000000 FUJITSU TEN (THAILAN17079NU0044044                                                                                                                              *          20170810WMF1708104.TXT
MDEDH8243232201708                D89848581800PT4D20170816000015RADIO;AM/FM CD D              M IMCTM S9CO001FTTL  07070IMCT  S9 PTB  00003                    1300 SR        000000000000 FUJITSU TEN (THAILAN17072NU0005005                                                                                                                              *          20170810WMF1708104.TXT
MDEUH8223881201708                D89828070100PT4U20170815000030SPEAKER ASM                   M IMCTM S0FL05 FTTL  07070IMCT  S0 PTB  00004                    2230 SR        000000000000 FUJITSU TEN (THAILAN170C13U0132132                                                                                                                              *          20170810WMF1708104.TXT
MDEUH8223882201708                D89828070100PT4U20170816000030SPEAKER ASM                   M IMCTM S0FL05 FTTL  07070IMCT  S0 PTB  00004                    0400 SR        000000000000 FUJITSU TEN (THAILAN170C12U0078078                                                                                                                              *          20170810WMF1708104.TXT
MDEUH8223883201708                D89828070100PT4U20170816000030SPEAKER ASM                   M IMCTM S0FL05 FTTL  07070IMCT  S0 PTB  00004                    0900 SR        000000000000 FUJITSU TEN (THAILAN18023TU0136136                                                                                                                              *          20170810WMF1708104.TXT
MDEUH8223884201708                D89828070100PT4U20170816000030SPEAKER ASM                   M IMCTM S0FL05 FTTL  07070IMCT  S0 PTB  00004                    1300 SR        000000000000 FUJITSU TEN (THAILAN18017TU0031031                                                                                                                              *          20170810WMF1708104.TXT
MDEUH8223885201708                D89828070100PT4U20170816000030SPEAKER ASM                   M IMCTM S0FL05 FTTL  07070IMCT  S0 PTB  00004                    1600 SR        000000000000 FUJITSU TEN (THAILAN18022TU0068068                                                                                                                              *          20170810WMF1708104.TXT
MDEUH8223886201708                D89828070200PV4U20170815000030SPEAKER ASM                   M IMCTM S0FR05 FTTL  07070IMCT  S0 PTB  00005                    2230 SR        000000000000 FUJITSU TEN (THAILAN170C13U0132132                                                                                                                              *          20170810WMF1708104.TXT
MDEUH8223887201708                D89828070200PV4U20170816000030SPEAKER ASM                   M IMCTM S0FR05 FTTL  07070IMCT  S0 PTB  00005                    0400 SR        000000000000 FUJITSU TEN (THAILAN170C12U0078078                                                                                                                              *          20170810WMF1708104.TXT
MDEUH8223888201708                D89828070200PV4U20170816000030SPEAKER ASM                   M IMCTM S0FR05 FTTL  07070IMCT  S0 PTB  00005                    0900 SR        000000000000 FUJITSU TEN (THAILAN18023TU0136136                                                                                                                              *          20170810WMF1708104.TXT
MDEUH8223889201708                D89828070200PV4U20170816000030SPEAKER ASM                   M IMCTM S0FR05 FTTL  07070IMCT  S0 PTB  00005                    1300 SR        000000000000 FUJITSU TEN (THAILAN18017TU0031031                                                                                                                              *          20170810WMF1708104.TXT
MDEUH8223890201708                D89828070200PV4U20170816000030SPEAKER ASM                   M IMCTM S0FR05 FTTL  07070IMCT  S0 PTB  00005                    1600 SR        000000000000 FUJITSU TEN (THAILAN18022TU0068068                                                                                                                              *          20170810WMF1708104.TXT
MDEUH8223891201708                D89828070300PT4U20170815000030SPEAKER ASM                   M IMCTM S9TS02 FTTL  07070IMCT  S9 PTB  00015                    2230 SR        000000000000 FUJITSU TEN (THAILAN170C13U0132132                                                                                                                              *          20170810WMF1708104.TXT
MDEUH8223892201708                D89828070300PT4U20170816000030SPEAKER ASM                   M IMCTM S9TS02 FTTL  07070IMCT  S9 PTB  00015                    0400 SR        000000000000 FUJITSU TEN (THAILAN170C12U0078078                                                                                                                              *          20170810WMF1708104.TXT
MDEUH8223893201708                D89828070300PT4U20170816000030SPEAKER ASM                   M IMCTM S9TS02 FTTL  07070IMCT  S9 PTB  00015                    0900 SR        000000000000 FUJITSU TEN (THAILAN18023TU0136136                                                                                                                              *          20170810WMF1708104.TXT
MDEUH8223894201708                D89828070300PT4U20170816000030SPEAKER ASM                   M IMCTM S9TS02 FTTL  07070IMCT  S9 PTB  00015                    1300 SR        000000000000 FUJITSU TEN (THAILAN18017TU0031031                                                                                                                              *          20170810WMF1708104.TXT
MDEUH8223895201708                D89828070300PT4U20170816000030SPEAKER ASM                   M IMCTM S9TS02 FTTL  07070IMCT  S9 PTB  00015                    1600 SR        000000000000 FUJITSU TEN (THAILAN18022TU0068068                                                                                                                              *          20170810WMF1708104.TXT
