REC2017081820170818ISUZU                              76     
MDDDH8256459201708                D89821984430PT1D20170822000030RADIO;AM/FM,CD                M IMCTM S5NC06 FTTL  07070IMCT  S5 PTB  00005                    2230 SR        000000000000 FUJITSU TEN (THAILAN170KPAL0171171                                                                                                                              *          20170818WMF1708187.TXT
MDDDH8256460201708                D89821984430PT1D20170823000030RADIO;AM/FM,CD                M IMCTM S5NC06 FTTL  07070IMCT  S5 PTB  00005                    0230 SR        000000000000 FUJITSU TEN (THAILAN170KRAL0149149                                                                                                                              *          20170818WMF1708187.TXT
MDDDH8256461201708                D89821984430PT1D20170823000030RADIO;AM/FM,CD                M IMCTM S5NC06 FTTL  07070IMCT  S5 PTB  00005                    0400 SR        000000000000 FUJITSU TEN (THAILAN170KRAL0150150                                                                                                                              *          20170818WMF1708187.TXT
MDDDH8256462201708                D89821984430PT1D20170823000030RADIO;AM/FM,CD                M IMCTM S5NC06 FTTL  07070IMCT  S5 PTB  00005                    0900 SR        000000000000 FUJITSU TEN (THAILAN170KNEL0156156                                                                                                                              *          20170818WMF1708187.TXT
MDDDH8256463201708                D89821984430PT1D20170823000030RADIO;AM/FM,CD                M IMCTM S5NC06 FTTL  07070IMCT  S5 PTB  00005                    1300 SR        000000000000 FUJITSU TEN (THAILAN170KPAL0172172                                                                                                                              *          20170818WMF1708187.TXT
MDDDH8256464201708                D89821984430PT1D20170823000030RADIO;AM/FM,CD                M IMCTM S5NC06 FTTL  07070IMCT  S5 PTB  00005                    1600 SR        000000000000 FUJITSU TEN (THAILAN170KRAL0151151                                                                                                                              *          20170818WMF1708187.TXT
MDDDH8256465201708                D89828070100PV1D20170822000060SPEAKER ASM                   M IMCTM S5MB11 FTTL  07070IMCT  S5 PTB  00004                    2230 SR        000000000000 FUJITSU TEN (THAILAN170KPAL0171171                                                                                                                              *          20170818WMF1708187.TXT
MDDDH8256466201708                D89828070100PV1D20170823000060SPEAKER ASM                   M IMCTM S5MB11 FTTL  07070IMCT  S5 PTB  00004                    0230 SR        000000000000 FUJITSU TEN (THAILAN170KRAL0149149                                                                                                                              *          20170818WMF1708187.TXT
MDDDH8256467201708                D89828070100PV1D20170823000060SPEAKER ASM                   M IMCTM S5MB11 FTTL  07070IMCT  S5 PTB  00004                    0400 SR        000000000000 FUJITSU TEN (THAILAN170KRAL0150150                                                                                                                              *          20170818WMF1708187.TXT
MDDDH8256468201708                D89828070100PV1D20170823000060SPEAKER ASM                   M IMCTM S5MB11 FTTL  07070IMCT  S5 PTB  00004                    0900 SR        000000000000 FUJITSU TEN (THAILAN170KNEL0156156                                                                                                                              *          20170818WMF1708187.TXT
MDDDH8256469201708                D89828070100PV1D20170823000120SPEAKER ASM                   M IMCTM S5MB11 FTTL  07070IMCT  S5 PTB  00004                    1300 SR        000000000000 FUJITSU TEN (THAILAN170KPAL0172172170KPCL0082082                                                                                                                *          20170818WMF1708187.TXT
MDDDH8256470201708                D89828070100PV1D20170823000120SPEAKER ASM                   M IMCTM S5MB11 FTTL  07070IMCT  S5 PTB  00004                    1600 SR        000000000000 FUJITSU TEN (THAILAN170KPEL0057057170KRAL0151151                                                                                                                *          20170818WMF1708187.TXT
MDDDH8256471201708                D89828070100PV1D20170823000060SPEAKER ASM                   M IMCTM S5MB11 FTTL  07070IMCT  S5 PTB  00004                    2100 SR        000000000000 FUJITSU TEN (THAILAN170KRGL0011011                                                                                                                              *          20170818WMF1708187.TXT
MDDDH8256472201708                D89828070200PV1D20170823000060SPEAKER ASM                   M IMCTM S5MA14 FTTL  07070IMCT  S5 PTB  00005                    2100 SR        000000000000 FUJITSU TEN (THAILAN170KRGL0011011                                                                                                                              *          20170818WMF1708187.TXT
MDDDH8256473201708                D89828070300PT1D20170823000060SPEAKER ASM                   M IMCTM S5NB082FTTL  07070IMCT  S5 PTB  00015                    1300 SR        000000000000 FUJITSU TEN (THAILAN170KPCL0082082                                                                                                                              *          20170818WMF1708187.TXT
MDDDH8256474201708                D89828070300PT1D20170823000060SPEAKER ASM                   M IMCTM S5NB082FTTL  07070IMCT  S5 PTB  00015                    1600 SR        000000000000 FUJITSU TEN (THAILAN170KPEL0057057                                                                                                                              *          20170818WMF1708187.TXT
MDDDH8256475201708                D89828070300PT1D20170823000060SPEAKER ASM                   M IMCTM S5NB082FTTL  07070IMCT  S5 PTB  00015                    2100 SR        000000000000 FUJITSU TEN (THAILAN170KRGL0011011                                                                                                                              *          20170818WMF1708187.TXT
MDDDH8256476201708                D89829645910PT1D20170823000030RADIO;ASM DVD                 M IMCTM S5NC06 FTTL  07070IMCT  S5 PTB  00003                    2100 SR        000000000000 FUJITSU TEN (THAILAN170KRGL0011011                                                                                                                              *          20170818WMF1708187.TXT
MDDDH8256477201708                D89831228300PT1D20170823000030RADIO;AM/FM,CD                M IMCTM S5NC06 FTTL  07070IMCT  S5 CPB  00003                    1300 SR        000000000000 FUJITSU TEN (THAILAN170KPCL0082082                                                                                                                              *          20170818WMF1708187.TXT
MDDDH8256478201708                D89831228300PT1D20170823000030RADIO;AM/FM,CD                M IMCTM S5NC06 FTTL  07070IMCT  S5 CPB  00003                    1600 SR        000000000000 FUJITSU TEN (THAILAN170KPEL0057057                                                                                                                              *          20170818WMF1708187.TXT
MDDUH8240314201708                D89828070100PT4U20170823000030SPEAKER ASM                   M IMCTM S0FL05 FTTL  07070IMCT  S0 PTB  00004                    0900 SR        000000000000 FUJITSU TEN (THAILAN180LUEU0150150                                                                                                                              *          20170818WMF1708187.TXT
MDDUH8240315201708                D89828070100PT4U20170823000030SPEAKER ASM                   M IMCTM S0FL05 FTTL  07070IMCT  S0 PTB  00004                    1600 SR        000000000000 FUJITSU TEN (THAILAN180LUDU0236236                                                                                                                              *          20170818WMF1708187.TXT
MDDUH8240316201708                D89828070100PT4U20170823000030SPEAKER ASM                   M IMCTM S0FL05 FTTL  07070IMCT  S0 PTB  00004                    2100 SR        000000000000 FUJITSU TEN (THAILAN180LUAU0036036                                                                                                                              *          20170818WMF1708187.TXT
MDDUH8240317201708                D89828070200PV4U20170823000030SPEAKER ASM                   M IMCTM S0FR05 FTTL  07070IMCT  S0 PTB  00005                    0900 SR        000000000000 FUJITSU TEN (THAILAN180LUEU0150150                                                                                                                              *          20170818WMF1708187.TXT
MDDUH8240318201708                D89828070200PV4U20170823000030SPEAKER ASM                   M IMCTM S0FR05 FTTL  07070IMCT  S0 PTB  00005                    1600 SR        000000000000 FUJITSU TEN (THAILAN180LUDU0236236                                                                                                                              *          20170818WMF1708187.TXT
MDDUH8240319201708                D89828070200PV4U20170823000030SPEAKER ASM                   M IMCTM S0FR05 FTTL  07070IMCT  S0 PTB  00005                    2100 SR        000000000000 FUJITSU TEN (THAILAN180LUAU0036036                                                                                                                              *          20170818WMF1708187.TXT
MDDUH8240320201708                D89828070300PT4U20170823000030SPEAKER ASM                   M IMCTM S9TS02 FTTL  07070IMCT  S9 PTB  00015                    0900 SR        000000000000 FUJITSU TEN (THAILAN180LUEU0150150                                                                                                                              *          20170818WMF1708187.TXT
MDDUH8240321201708                D89828070300PT4U20170823000030SPEAKER ASM                   M IMCTM S9TS02 FTTL  07070IMCT  S9 PTB  00015                    1600 SR        000000000000 FUJITSU TEN (THAILAN180LUDU0236236                                                                                                                              *          20170818WMF1708187.TXT
MDDUH8240322201708                D89828070300PT4U20170823000030SPEAKER ASM                   M IMCTM S9TS02 FTTL  07070IMCT  S9 PTB  00015                    2100 SR        000000000000 FUJITSU TEN (THAILAN180LUAU0036036                                                                                                                              *          20170818WMF1708187.TXT
MDDUH8240323201708                D89831228400PT4U20170823000015RADIO;AM/FM,CD                M IMCTM S9CO001FTTL  07070IMCT  S9 CPB  00003                    2100 SR        000000000000 FUJITSU TEN (THAILAN180LUAU0036036                                                                                                                              *          20170818WMF1708187.TXT
MDEDH8282050201708                D89828070100PV1D20170822000030SPEAKER ASM                   M IMCTM S5MB11 FTTL  07070IMCT  S5 PTB  00004                    2230 SR        000000000000 FUJITSU TEN (THAILAN17051NL0006006                                                                                                                              *          20170818WMF1708187.TXT
MDEDH8282051201708                D89828070100PV1D20170823000030SPEAKER ASM                   M IMCTM S5MB11 FTTL  07070IMCT  S5 PTB  00004                    0230 SR        000000000000 FUJITSU TEN (THAILAN17060NL0030030                                                                                                                              *          20170818WMF1708187.TXT
MDEDH8282052201708                D89828070100PV1D20170823000060SPEAKER ASM                   M IMCTM S5MB11 FTTL  07070IMCT  S5 PTB  00004                    0400 SR        000000000000 FUJITSU TEN (THAILAN17063NL0026027                                                                                                                              *          20170818WMF1708187.TXT
MDEDH8282053201708                D89828070100PV1D20170823000060SPEAKER ASM                   M IMCTM S5MB11 FTTL  07070IMCT  S5 PTB  00004                    0900 SR        000000000000 FUJITSU TEN (THAILAN17051NL0007008                                                                                                                              *          20170818WMF1708187.TXT
MDEDH8282054201708                D89828070100PV1D20170823000030SPEAKER ASM                   M IMCTM S5MB11 FTTL  07070IMCT  S5 PTB  00004                    1300 SR        000000000000 FUJITSU TEN (THAILAN17060NL0031031                                                                                                                              *          20170818WMF1708187.TXT
MDEDH8282055201708                D89828070100PV1D20170823000060SPEAKER ASM                   M IMCTM S5MB11 FTTL  07070IMCT  S5 PTB  00004                    1600 SR        000000000000 FUJITSU TEN (THAILAN17068ML001101117077ML0012012                                                                                                                *          20170818WMF1708187.TXT
MDEDH8282056201708                D89828070100PV4D20170822000030SPEAKER ASM                   M IMCTM S0FL05 FTTL  07070IMCT  S0 PTB  00004                    2230 SR        000000000000 FUJITSU TEN (THAILAN17074NU0021021                                                                                                                              *          20170818WMF1708187.TXT
MDEDH8282057201708                D89828070100PV4D20170823000030SPEAKER ASM                   M IMCTM S0FL05 FTTL  07070IMCT  S0 PTB  00004                    0900 SR        000000000000 FUJITSU TEN (THAILAN17074NU0022022                                                                                                                              *          20170818WMF1708187.TXT
MDEDH8282058201708                D89828070100PV4D20170823000030SPEAKER ASM                   M IMCTM S0FL05 FTTL  07070IMCT  S0 PTB  00004                    2230 SR        000000000000 FUJITSU TEN (THAILAN17079NU0050050                                                                                                                              *          20170818WMF1708187.TXT
MDEDH8282059201708                D89828070200PV1D20170823000030SPEAKER ASM                   M IMCTM S5MA14 FTTL  07070IMCT  S5 PTB  00005                    0230 SR        000000000000 FUJITSU TEN (THAILAN17060NL0030030                                                                                                                              *          20170818WMF1708187.TXT
MDEDH8282060201708                D89828070200PV1D20170823000030SPEAKER ASM                   M IMCTM S5MA14 FTTL  07070IMCT  S5 PTB  00005                    1300 SR        000000000000 FUJITSU TEN (THAILAN17060NL0031031                                                                                                                              *          20170818WMF1708187.TXT
MDEDH8282061201708                D89828070200PV4D20170822000030SPEAKER ASM                   M IMCTM S0FR05 FTTL  07070IMCT  S0 PTB  00005                    2230 SR        000000000000 FUJITSU TEN (THAILAN17074NU0021021                                                                                                                              *          20170818WMF1708187.TXT
MDEDH8282062201708                D89828070200PV4D20170823000030SPEAKER ASM                   M IMCTM S0FR05 FTTL  07070IMCT  S0 PTB  00005                    0900 SR        000000000000 FUJITSU TEN (THAILAN17074NU0022022                                                                                                                              *          20170818WMF1708187.TXT
MDEDH8282063201708                D89828070200PV4D20170823000030SPEAKER ASM                   M IMCTM S0FR05 FTTL  07070IMCT  S0 PTB  00005                    2230 SR        000000000000 FUJITSU TEN (THAILAN17079NU0050050                                                                                                                              *          20170818WMF1708187.TXT
MDEDH8282064201708                D89828070300PT1D20170822000030SPEAKER ASM                   M IMCTM S5NB082FTTL  07070IMCT  S5 PTB  00015                    2230 SR        000000000000 FUJITSU TEN (THAILAN17051NL0006006                                                                                                                              *          20170818WMF1708187.TXT
MDEDH8282065201708                D89828070300PT1D20170823000030SPEAKER ASM                   M IMCTM S5NB082FTTL  07070IMCT  S5 PTB  00015                    0230 SR        000000000000 FUJITSU TEN (THAILAN17060NL0030030                                                                                                                              *          20170818WMF1708187.TXT
MDEDH8282066201708                D89828070300PT1D20170823000060SPEAKER ASM                   M IMCTM S5NB082FTTL  07070IMCT  S5 PTB  00015                    0400 SR        000000000000 FUJITSU TEN (THAILAN17063NL0026027                                                                                                                              *          20170818WMF1708187.TXT
MDEDH8282067201708                D89828070300PT1D20170823000060SPEAKER ASM                   M IMCTM S5NB082FTTL  07070IMCT  S5 PTB  00015                    0900 SR        000000000000 FUJITSU TEN (THAILAN17051NL0007008                                                                                                                              *          20170818WMF1708187.TXT
MDEDH8282068201708                D89828070300PT1D20170823000030SPEAKER ASM                   M IMCTM S5NB082FTTL  07070IMCT  S5 PTB  00015                    1300 SR        000000000000 FUJITSU TEN (THAILAN17060NL0031031                                                                                                                              *          20170818WMF1708187.TXT
MDEDH8282069201708                D89828070300PT1D20170823000030SPEAKER ASM                   M IMCTM S5NB082FTTL  07070IMCT  S5 PTB  00015                    1600 SR        000000000000 FUJITSU TEN (THAILAN17068ML0011011                                                                                                                              *          20170818WMF1708187.TXT
MDEDH8282070201708                D89828070300PT4D20170822000030SPEAKER ASM                   M IMCTM S9TS02 FTTL  07070IMCT  S9 PTB  00015                    2230 SR        000000000000 FUJITSU TEN (THAILAN17074NU0021021                                                                                                                              *          20170818WMF1708187.TXT
MDEDH8282071201708                D89828070300PT4D20170823000030SPEAKER ASM                   M IMCTM S9TS02 FTTL  07070IMCT  S9 PTB  00015                    0900 SR        000000000000 FUJITSU TEN (THAILAN17074NU0022022                                                                                                                              *          20170818WMF1708187.TXT
MDEDH8282072201708                D89828070300PT4D20170823000030SPEAKER ASM                   M IMCTM S9TS02 FTTL  07070IMCT  S9 PTB  00015                    2230 SR        000000000000 FUJITSU TEN (THAILAN17079NU0050050                                                                                                                              *          20170818WMF1708187.TXT
MDEDH8282073201708                D89829622410PT1D20170823000015RADIO;ASM DVD                 M IMCTM S5NC06 FTTL  07070IMCT  S5 PTB  00003                    1600 SR        000000000000 FUJITSU TEN (THAILAN17068ML0011011                                                                                                                              *          20170818WMF1708187.TXT
MDEDH8282074201708                D89848581800PT1D20170823000030RADIO;AM/FM CD D              M IMCTM S5NC06 FTTL  07070IMCT  S5 PTB  00003                    0400 SR        000000000000 FUJITSU TEN (THAILAN17063NL0026027                                                                                                                              *          20170818WMF1708187.TXT
MDEDH8282075201708                D89848581800PT4D20170822000015RADIO;AM/FM CD D              M IMCTM S9CO001FTTL  07070IMCT  S9 PTB  00003                    2230 SR        000000000000 FUJITSU TEN (THAILAN17074NU0021021                                                                                                                              *          20170818WMF1708187.TXT
MDEDH8282076201708                D89848581800PT4D20170823000015RADIO;AM/FM CD D              M IMCTM S9CO001FTTL  07070IMCT  S9 PTB  00003                    0900 SR        000000000000 FUJITSU TEN (THAILAN17074NU0022022                                                                                                                              *          20170818WMF1708187.TXT
MDEDH8282077201708                D89848581800PT4D20170823000015RADIO;AM/FM CD D              M IMCTM S9CO001FTTL  07070IMCT  S9 PTB  00003                    2230 SR        000000000000 FUJITSU TEN (THAILAN17079NU0050050                                                                                                                              *          20170818WMF1708187.TXT
MDEUH8245397201708                D89828070100PT4U20170822000030SPEAKER ASM                   M IMCTM S0FL05 FTTL  07070IMCT  S0 PTB  00004                    2230 SR        000000000000 FUJITSU TEN (THAILAN18023TU0144144                                                                                                                              *          20170818WMF1708187.TXT
MDEUH8245398201708                D89828070100PT4U20170823000030SPEAKER ASM                   M IMCTM S0FL05 FTTL  07070IMCT  S0 PTB  00004                    0230 SR        000000000000 FUJITSU TEN (THAILAN170C13U0139139                                                                                                                              *          20170818WMF1708187.TXT
MDEUH8245399201708                D89828070100PT4U20170823000030SPEAKER ASM                   M IMCTM S0FL05 FTTL  07070IMCT  S0 PTB  00004                    0400 SR        000000000000 FUJITSU TEN (THAILAN170C13U0140140                                                                                                                              *          20170818WMF1708187.TXT
MDEUH8245400201708                D89828070100PT4U20170823000030SPEAKER ASM                   M IMCTM S0FL05 FTTL  07070IMCT  S0 PTB  00004                    0900 SR        000000000000 FUJITSU TEN (THAILAN18023TU0145145                                                                                                                              *          20170818WMF1708187.TXT
MDEUH8245401201708                D89828070100PT4U20170823000030SPEAKER ASM                   M IMCTM S0FL05 FTTL  07070IMCT  S0 PTB  00004                    1300 SR        000000000000 FUJITSU TEN (THAILAN170C12U0085085                                                                                                                              *          20170818WMF1708187.TXT
MDEUH8245402201708                D89828070100PT4U20170823000060SPEAKER ASM                   M IMCTM S0FL05 FTTL  07070IMCT  S0 PTB  00004                    1600 SR        000000000000 FUJITSU TEN (THAILAN170C13U014114118022TU0072072                                                                                                                *          20170818WMF1708187.TXT
MDEUH8245403201708                D89828070200PV4U20170822000030SPEAKER ASM                   M IMCTM S0FR05 FTTL  07070IMCT  S0 PTB  00005                    2230 SR        000000000000 FUJITSU TEN (THAILAN18023TU0144144                                                                                                                              *          20170818WMF1708187.TXT
MDEUH8245404201708                D89828070200PV4U20170823000030SPEAKER ASM                   M IMCTM S0FR05 FTTL  07070IMCT  S0 PTB  00005                    0230 SR        000000000000 FUJITSU TEN (THAILAN170C13U0139139                                                                                                                              *          20170818WMF1708187.TXT
MDEUH8245405201708                D89828070200PV4U20170823000030SPEAKER ASM                   M IMCTM S0FR05 FTTL  07070IMCT  S0 PTB  00005                    0400 SR        000000000000 FUJITSU TEN (THAILAN170C13U0140140                                                                                                                              *          20170818WMF1708187.TXT
MDEUH8245406201708                D89828070200PV4U20170823000030SPEAKER ASM                   M IMCTM S0FR05 FTTL  07070IMCT  S0 PTB  00005                    0900 SR        000000000000 FUJITSU TEN (THAILAN18023TU0145145                                                                                                                              *          20170818WMF1708187.TXT
MDEUH8245407201708                D89828070200PV4U20170823000030SPEAKER ASM                   M IMCTM S0FR05 FTTL  07070IMCT  S0 PTB  00005                    1300 SR        000000000000 FUJITSU TEN (THAILAN170C12U0085085                                                                                                                              *          20170818WMF1708187.TXT
MDEUH8245408201708                D89828070200PV4U20170823000060SPEAKER ASM                   M IMCTM S0FR05 FTTL  07070IMCT  S0 PTB  00005                    1600 SR        000000000000 FUJITSU TEN (THAILAN170C13U014114118022TU0072072                                                                                                                *          20170818WMF1708187.TXT
MDEUH8245409201708                D89828070300PT4U20170822000030SPEAKER ASM                   M IMCTM S9TS02 FTTL  07070IMCT  S9 PTB  00015                    2230 SR        000000000000 FUJITSU TEN (THAILAN18023TU0144144                                                                                                                              *          20170818WMF1708187.TXT
MDEUH8245410201708                D89828070300PT4U20170823000030SPEAKER ASM                   M IMCTM S9TS02 FTTL  07070IMCT  S9 PTB  00015                    0230 SR        000000000000 FUJITSU TEN (THAILAN170C13U0139139                                                                                                                              *          20170818WMF1708187.TXT
MDEUH8245411201708                D89828070300PT4U20170823000030SPEAKER ASM                   M IMCTM S9TS02 FTTL  07070IMCT  S9 PTB  00015                    0400 SR        000000000000 FUJITSU TEN (THAILAN170C13U0140140                                                                                                                              *          20170818WMF1708187.TXT
MDEUH8245412201708                D89828070300PT4U20170823000030SPEAKER ASM                   M IMCTM S9TS02 FTTL  07070IMCT  S9 PTB  00015                    0900 SR        000000000000 FUJITSU TEN (THAILAN18023TU0145145                                                                                                                              *          20170818WMF1708187.TXT
MDEUH8245413201708                D89828070300PT4U20170823000030SPEAKER ASM                   M IMCTM S9TS02 FTTL  07070IMCT  S9 PTB  00015                    1300 SR        000000000000 FUJITSU TEN (THAILAN170C12U0085085                                                                                                                              *          20170818WMF1708187.TXT
MDEUH8245414201708                D89828070300PT4U20170823000060SPEAKER ASM                   M IMCTM S9TS02 FTTL  07070IMCT  S9 PTB  00015                    1600 SR        000000000000 FUJITSU TEN (THAILAN170C13U014114118022TU0072072                                                                                                                *          20170818WMF1708187.TXT
