REC2017083020170830ISUZU                              69     
MDDDH8289663201709                D89821984430PT1D20170904000030RADIO;AM/FM,CD                M IMCTM S5NC06 FTTL  07070IMCT  S5 PTB  00005                    2230 SR        000000000000 FUJITSU TEN (THAILAN170KPAL0181181                                                                                                                              *          20170830WMF1708304.TXT
MDDDH8289664201709                D89821984430PT1D20170905000030RADIO;AM/FM,CD                M IMCTM S5NC06 FTTL  07070IMCT  S5 PTB  00005                    0830 SR        000000000000 FUJITSU TEN (THAILAN170KNEL0164164                                                                                                                              *          20170830WMF1708304.TXT
MDDDH8289665201709                D89821984430PT1D20170905000030RADIO;AM/FM,CD                M IMCTM S5NC06 FTTL  07070IMCT  S5 PTB  00005                    1030 SR        000000000000 FUJITSU TEN (THAILAN170KPAL0182182                                                                                                                              *          20170830WMF1708304.TXT
MDDDH8289666201709                D89828070100PV1D20170904000060SPEAKER ASM                   M IMCTM S5MB11 FTTL  07070IMCT  S5 PTB  00004                    2230 SR        000000000000 FUJITSU TEN (THAILAN170KPAL0181181                                                                                                                              *          20170830WMF1708304.TXT
MDDDH8289667201709                D89828070100PV1D20170905000060SPEAKER ASM                   M IMCTM S5MB11 FTTL  07070IMCT  S5 PTB  00004                    0400 SR        000000000000 FUJITSU TEN (THAILAN170KPFL0206206                                                                                                                              *          20170830WMF1708304.TXT
MDDDH8289668201709                D89828070100PV1D20170905000060SPEAKER ASM                   M IMCTM S5MB11 FTTL  07070IMCT  S5 PTB  00004                    0830 SR        000000000000 FUJITSU TEN (THAILAN170KNEL0164164                                                                                                                              *          20170830WMF1708304.TXT
MDDDH8289669201709                D89828070100PV1D20170905000060SPEAKER ASM                   M IMCTM S5MB11 FTTL  07070IMCT  S5 PTB  00004                    1030 SR        000000000000 FUJITSU TEN (THAILAN170KPAL0182182                                                                                                                              *          20170830WMF1708304.TXT
MDDDH8289670201709                D89828070100PV1D20170905000060SPEAKER ASM                   M IMCTM S5MB11 FTTL  07070IMCT  S5 PTB  00004                    1300 SR        000000000000 FUJITSU TEN (THAILAN170KPFL0207207                                                                                                                              *          20170830WMF1708304.TXT
MDDDH8289671201709                D89828070100PV1D20170905000120SPEAKER ASM                   M IMCTM S5MB11 FTTL  07070IMCT  S5 PTB  00004                    1600 SR        000000000000 FUJITSU TEN (THAILAN170KNAL0082082170KPDL0012012                                                                                                                *          20170830WMF1708304.TXT
MDDDH8289672201709                D89828070100PV1D20170905000060SPEAKER ASM                   M IMCTM S5MB11 FTTL  07070IMCT  S5 PTB  00004                    2100 SR        000000000000 FUJITSU TEN (THAILAN170KRGL0012012                                                                                                                              *          20170830WMF1708304.TXT
MDDDH8289673201709                D89828070200PV1D20170905000060SPEAKER ASM                   M IMCTM S5MA14 FTTL  07070IMCT  S5 PTB  00005                    2100 SR        000000000000 FUJITSU TEN (THAILAN170KRGL0012012                                                                                                                              *          20170830WMF1708304.TXT
MDDDH8289674201709                D89828070300PT1D20170905000060SPEAKER ASM                   M IMCTM S5NB082FTTL  07070IMCT  S5 PTB  00015                    0400 SR        000000000000 FUJITSU TEN (THAILAN170KPFL0206206                                                                                                                              *          20170830WMF1708304.TXT
MDDDH8289675201709                D89828070300PT1D20170905000060SPEAKER ASM                   M IMCTM S5NB082FTTL  07070IMCT  S5 PTB  00015                    1300 SR        000000000000 FUJITSU TEN (THAILAN170KPFL0207207                                                                                                                              *          20170830WMF1708304.TXT
MDDDH8289676201709                D89828070300PT1D20170905000060SPEAKER ASM                   M IMCTM S5NB082FTTL  07070IMCT  S5 PTB  00015                    1600 SR        000000000000 FUJITSU TEN (THAILAN170KPDL0012012                                                                                                                              *          20170830WMF1708304.TXT
MDDDH8289677201709                D89828070300PT1D20170905000060SPEAKER ASM                   M IMCTM S5NB082FTTL  07070IMCT  S5 PTB  00015                    2100 SR        000000000000 FUJITSU TEN (THAILAN170KRGL0012012                                                                                                                              *          20170830WMF1708304.TXT
MDDDH8289678201709                D89829645910PT1D20170905000030RADIO;ASM DVD                 M IMCTM S5NC06 FTTL  07070IMCT  S5 PTB  00003                    2100 SR        000000000000 FUJITSU TEN (THAILAN170KRGL0012012                                                                                                                              *          20170830WMF1708304.TXT
MDDDH8289679201709                D89831228300PT1D20170905000030RADIO;AM/FM,CD                M IMCTM S5NC06 FTTL  07070IMCT  S5 CPB  00003                    0400 SR        000000000000 FUJITSU TEN (THAILAN170KPFL0206206                                                                                                                              *          20170830WMF1708304.TXT
MDDDH8289680201709                D89831228300PT1D20170905000030RADIO;AM/FM,CD                M IMCTM S5NC06 FTTL  07070IMCT  S5 CPB  00003                    1300 SR        000000000000 FUJITSU TEN (THAILAN170KPFL0207207                                                                                                                              *          20170830WMF1708304.TXT
MDDDH8289681201709                D89831228300PT1D20170905000030RADIO;AM/FM,CD                M IMCTM S5NC06 FTTL  07070IMCT  S5 CPB  00003                    1600 SR        000000000000 FUJITSU TEN (THAILAN170KPDL0012012                                                                                                                              *          20170830WMF1708304.TXT
MDDUH8260443201709                D89828070100PT4U20170904000030SPEAKER ASM                   M IMCTM S0FL05 FTTL  07070IMCT  S0 PTB  00004                    2230 SR        000000000000 FUJITSU TEN (THAILAN180LUCU0073073                                                                                                                              *          20170830WMF1708304.TXT
MDDUH8260444201709                D89828070100PT4U20170905000030SPEAKER ASM                   M IMCTM S0FL05 FTTL  07070IMCT  S0 PTB  00004                    1300 SR        000000000000 FUJITSU TEN (THAILAN180LUCU0074074                                                                                                                              *          20170830WMF1708304.TXT
MDDUH8260445201709                D89828070100PT4U20170905000060SPEAKER ASM                   M IMCTM S0FL05 FTTL  07070IMCT  S0 PTB  00004                    1600 SR        000000000000 FUJITSU TEN (THAILAN180LUDU0240240180LUEU0162162                                                                                                                *          20170830WMF1708304.TXT
MDDUH8260446201709                D89828070100PT4U20170905000030SPEAKER ASM                   M IMCTM S0FL05 FTTL  07070IMCT  S0 PTB  00004                    2230 SR        000000000000 FUJITSU TEN (THAILAN180LUDU0241241                                                                                                                              *          20170830WMF1708304.TXT
MDDUH8260447201709                D89828070200PV4U20170904000030SPEAKER ASM                   M IMCTM S0FR05 FTTL  07070IMCT  S0 PTB  00005                    2230 SR        000000000000 FUJITSU TEN (THAILAN180LUCU0073073                                                                                                                              *          20170830WMF1708304.TXT
MDDUH8260448201709                D89828070200PV4U20170905000030SPEAKER ASM                   M IMCTM S0FR05 FTTL  07070IMCT  S0 PTB  00005                    1300 SR        000000000000 FUJITSU TEN (THAILAN180LUCU0074074                                                                                                                              *          20170830WMF1708304.TXT
MDDUH8260449201709                D89828070200PV4U20170905000060SPEAKER ASM                   M IMCTM S0FR05 FTTL  07070IMCT  S0 PTB  00005                    1600 SR        000000000000 FUJITSU TEN (THAILAN180LUDU0240240180LUEU0162162                                                                                                                *          20170830WMF1708304.TXT
MDDUH8260450201709                D89828070200PV4U20170905000030SPEAKER ASM                   M IMCTM S0FR05 FTTL  07070IMCT  S0 PTB  00005                    2230 SR        000000000000 FUJITSU TEN (THAILAN180LUDU0241241                                                                                                                              *          20170830WMF1708304.TXT
MDDUH8260451201709                D89828070300PT4U20170904000030SPEAKER ASM                   M IMCTM S9TS02 FTTL  07070IMCT  S9 PTB  00015                    2230 SR        000000000000 FUJITSU TEN (THAILAN180LUCU0073073                                                                                                                              *          20170830WMF1708304.TXT
MDDUH8260452201709                D89828070300PT4U20170905000030SPEAKER ASM                   M IMCTM S9TS02 FTTL  07070IMCT  S9 PTB  00015                    1300 SR        000000000000 FUJITSU TEN (THAILAN180LUCU0074074                                                                                                                              *          20170830WMF1708304.TXT
MDDUH8260453201709                D89828070300PT4U20170905000060SPEAKER ASM                   M IMCTM S9TS02 FTTL  07070IMCT  S9 PTB  00015                    1600 SR        000000000000 FUJITSU TEN (THAILAN180LUDU0240240180LUEU0162162                                                                                                                *          20170830WMF1708304.TXT
MDDUH8260454201709                D89828070300PT4U20170905000030SPEAKER ASM                   M IMCTM S9TS02 FTTL  07070IMCT  S9 PTB  00015                    2230 SR        000000000000 FUJITSU TEN (THAILAN180LUDU0241241                                                                                                                              *          20170830WMF1708304.TXT
MDDUH8260455201709                D89835097910PT4U20170904000015RADIO;ASM DVD                 M IMCTM S9TS01 FTTL  07070IMCT  S9 PTB  00003                    2230 SR        000000000000 FUJITSU TEN (THAILAN180LUCU0073073                                                                                                                              *          20170830WMF1708304.TXT
MDDUH8260456201709                D89835097910PT4U20170905000015RADIO;ASM DVD                 M IMCTM S9TS01 FTTL  07070IMCT  S9 PTB  00003                    1300 SR        000000000000 FUJITSU TEN (THAILAN180LUCU0074074                                                                                                                              *          20170830WMF1708304.TXT
MDEDH8326252201709                D89828070100PV1D20170904000060SPEAKER ASM                   M IMCTM S5MB11 FTTL  07070IMCT  S5 PTB  00004                    2230 SR        000000000000 FUJITSU TEN (THAILAN16046KL0033034                                                                                                                              *          20170830WMF1708304.TXT
MDEDH8326253201709                D89828070100PV1D20170905000030SPEAKER ASM                   M IMCTM S5MB11 FTTL  07070IMCT  S5 PTB  00004                    0230 SR        000000000000 FUJITSU TEN (THAILAN16041KL0003003                                                                                                                              *          20170830WMF1708304.TXT
MDEDH8326254201709                D89828070100PV1D20170905000030SPEAKER ASM                   M IMCTM S5MB11 FTTL  07070IMCT  S5 PTB  00004                    0400 SR        000000000000 FUJITSU TEN (THAILAN16055KL0005005                                                                                                                              *          20170830WMF1708304.TXT
MDEDH8326255201709                D89828070100PV1D20170905000030SPEAKER ASM                   M IMCTM S5MB11 FTTL  07070IMCT  S5 PTB  00004                    0830 SR        000000000000 FUJITSU TEN (THAILAN17016VL0003003                                                                                                                              *          20170830WMF1708304.TXT
MDEDH8326256201709                D89828070100PV1D20170905000030SPEAKER ASM                   M IMCTM S5MB11 FTTL  07070IMCT  S5 PTB  00004                    1030 SR        000000000000 FUJITSU TEN (THAILAN17016VL0004004                                                                                                                              *          20170830WMF1708304.TXT
MDEDH8326257201709                D89828070100PV1D20170905000030SPEAKER ASM                   M IMCTM S5MB11 FTTL  07070IMCT  S5 PTB  00004                    1300 SR        000000000000 FUJITSU TEN (THAILAN17029NL0013013                                                                                                                              *          20170830WMF1708304.TXT
MDEDH8326258201709                D89828070100PV1D20170905000090SPEAKER ASM                   M IMCTM S5MB11 FTTL  07070IMCT  S5 PTB  00004                    1600 SR        000000000000 FUJITSU TEN (THAILAN17060NL003203317079QL0015015                                                                                                                *          20170830WMF1708304.TXT
MDEDH8326259201709                D89828070100PV4D20170905000030SPEAKER ASM                   M IMCTM S0FL05 FTTL  07070IMCT  S0 PTB  00004                    1300 SR        000000000000 FUJITSU TEN (THAILAN16046KU0003003                                                                                                                              *          20170830WMF1708304.TXT
MDEDH8326260201709                D89828070200PV1D20170904000060SPEAKER ASM                   M IMCTM S5MA14 FTTL  07070IMCT  S5 PTB  00005                    2230 SR        000000000000 FUJITSU TEN (THAILAN16046KL0033034                                                                                                                              *          20170830WMF1708304.TXT
MDEDH8326261201709                D89828070200PV1D20170905000030SPEAKER ASM                   M IMCTM S5MA14 FTTL  07070IMCT  S5 PTB  00005                    0400 SR        000000000000 FUJITSU TEN (THAILAN16055KL0005005                                                                                                                              *          20170830WMF1708304.TXT
MDEDH8326262201709                D89828070200PV1D20170905000060SPEAKER ASM                   M IMCTM S5MA14 FTTL  07070IMCT  S5 PTB  00005                    1600 SR        000000000000 FUJITSU TEN (THAILAN17060NL0032033                                                                                                                              *          20170830WMF1708304.TXT
MDEDH8326263201709                D89828070200PV4D20170905000030SPEAKER ASM                   M IMCTM S0FR05 FTTL  07070IMCT  S0 PTB  00005                    1300 SR        000000000000 FUJITSU TEN (THAILAN16046KU0003003                                                                                                                              *          20170830WMF1708304.TXT
MDEDH8326264201709                D89828070300PT1D20170904000060SPEAKER ASM                   M IMCTM S5NB082FTTL  07070IMCT  S5 PTB  00015                    2230 SR        000000000000 FUJITSU TEN (THAILAN16046KL0033034                                                                                                                              *          20170830WMF1708304.TXT
MDEDH8326265201709                D89828070300PT1D20170905000030SPEAKER ASM                   M IMCTM S5NB082FTTL  07070IMCT  S5 PTB  00015                    0400 SR        000000000000 FUJITSU TEN (THAILAN16055KL0005005                                                                                                                              *          20170830WMF1708304.TXT
MDEDH8326266201709                D89828070300PT1D20170905000030SPEAKER ASM                   M IMCTM S5NB082FTTL  07070IMCT  S5 PTB  00015                    1300 SR        000000000000 FUJITSU TEN (THAILAN17029NL0013013                                                                                                                              *          20170830WMF1708304.TXT
MDEDH8326267201709                D89828070300PT1D20170905000060SPEAKER ASM                   M IMCTM S5NB082FTTL  07070IMCT  S5 PTB  00015                    1600 SR        000000000000 FUJITSU TEN (THAILAN17060NL0032033                                                                                                                              *          20170830WMF1708304.TXT
MDEDH8326268201709                D89828070300PT4D20170905000030SPEAKER ASM                   M IMCTM S9TS02 FTTL  07070IMCT  S9 PTB  00015                    1300 SR        000000000000 FUJITSU TEN (THAILAN16046KU0003003                                                                                                                              *          20170830WMF1708304.TXT
MDEDH8326269201709                D89831229000PT1D20170905000015RADIO;AM/FM,CD                M IMCTM S5NC06 FTTL  07070IMCT  S5 PTB  00003                    0400 SR        000000000000 FUJITSU TEN (THAILAN16055KL0005005                                                                                                                              *          20170830WMF1708304.TXT
MDEUH8278954201709                D89828070100PT4U20170905000030SPEAKER ASM                   M IMCTM S0FL05 FTTL  07070IMCT  S0 PTB  00004                    0230 SR        000000000000 FUJITSU TEN (THAILAN18078SU0004004                                                                                                                              *          20170830WMF1708304.TXT
MDEUH8278955201709                D89828070100PT4U20170905000060SPEAKER ASM                   M IMCTM S0FL05 FTTL  07070IMCT  S0 PTB  00004                    0400 SR        000000000000 FUJITSU TEN (THAILAN18022TU007707718078SU0005005                                                                                                                *          20170830WMF1708304.TXT
MDEUH8278956201709                D89828070100PT4U20170905000030SPEAKER ASM                   M IMCTM S0FL05 FTTL  07070IMCT  S0 PTB  00004                    0830 SR        000000000000 FUJITSU TEN (THAILAN18078SU0006006                                                                                                                              *          20170830WMF1708304.TXT
MDEUH8278957201709                D89828070100PT4U20170905000030SPEAKER ASM                   M IMCTM S0FL05 FTTL  07070IMCT  S0 PTB  00004                    1030 SR        000000000000 FUJITSU TEN (THAILAN18023TU0159159                                                                                                                              *          20170830WMF1708304.TXT
MDEUH8278958201709                D89828070100PT4U20170905000030SPEAKER ASM                   M IMCTM S0FL05 FTTL  07070IMCT  S0 PTB  00004                    1600 SR        000000000000 FUJITSU TEN (THAILAN18022TU0078078                                                                                                                              *          20170830WMF1708304.TXT
MDEUH8278959201709                D89828070100PT4U20170905000030SPEAKER ASM                   M IMCTM S0FL05 FTTL  07070IMCT  S0 PTB  00004                    2100 SR        000000000000 FUJITSU TEN (THAILAN18023TU0160160                                                                                                                              *          20170830WMF1708304.TXT
MDEUH8278960201709                D89828070200PV4U20170905000030SPEAKER ASM                   M IMCTM S0FR05 FTTL  07070IMCT  S0 PTB  00005                    0230 SR        000000000000 FUJITSU TEN (THAILAN18078SU0004004                                                                                                                              *          20170830WMF1708304.TXT
MDEUH8278961201709                D89828070200PV4U20170905000060SPEAKER ASM                   M IMCTM S0FR05 FTTL  07070IMCT  S0 PTB  00005                    0400 SR        000000000000 FUJITSU TEN (THAILAN18022TU007707718078SU0005005                                                                                                                *          20170830WMF1708304.TXT
MDEUH8278962201709                D89828070200PV4U20170905000030SPEAKER ASM                   M IMCTM S0FR05 FTTL  07070IMCT  S0 PTB  00005                    0830 SR        000000000000 FUJITSU TEN (THAILAN18078SU0006006                                                                                                                              *          20170830WMF1708304.TXT
MDEUH8278963201709                D89828070200PV4U20170905000030SPEAKER ASM                   M IMCTM S0FR05 FTTL  07070IMCT  S0 PTB  00005                    1030 SR        000000000000 FUJITSU TEN (THAILAN18023TU0159159                                                                                                                              *          20170830WMF1708304.TXT
MDEUH8278964201709                D89828070200PV4U20170905000030SPEAKER ASM                   M IMCTM S0FR05 FTTL  07070IMCT  S0 PTB  00005                    1600 SR        000000000000 FUJITSU TEN (THAILAN18022TU0078078                                                                                                                              *          20170830WMF1708304.TXT
MDEUH8278965201709                D89828070200PV4U20170905000030SPEAKER ASM                   M IMCTM S0FR05 FTTL  07070IMCT  S0 PTB  00005                    2100 SR        000000000000 FUJITSU TEN (THAILAN18023TU0160160                                                                                                                              *          20170830WMF1708304.TXT
MDEUH8278966201709                D89828070300PT4U20170905000030SPEAKER ASM                   M IMCTM S9TS02 FTTL  07070IMCT  S9 PTB  00015                    0230 SR        000000000000 FUJITSU TEN (THAILAN18078SU0004004                                                                                                                              *          20170830WMF1708304.TXT
MDEUH8278967201709                D89828070300PT4U20170905000060SPEAKER ASM                   M IMCTM S9TS02 FTTL  07070IMCT  S9 PTB  00015                    0400 SR        000000000000 FUJITSU TEN (THAILAN18022TU007707718078SU0005005                                                                                                                *          20170830WMF1708304.TXT
MDEUH8278968201709                D89828070300PT4U20170905000030SPEAKER ASM                   M IMCTM S9TS02 FTTL  07070IMCT  S9 PTB  00015                    0830 SR        000000000000 FUJITSU TEN (THAILAN18078SU0006006                                                                                                                              *          20170830WMF1708304.TXT
MDEUH8278969201709                D89828070300PT4U20170905000030SPEAKER ASM                   M IMCTM S9TS02 FTTL  07070IMCT  S9 PTB  00015                    1030 SR        000000000000 FUJITSU TEN (THAILAN18023TU0159159                                                                                                                              *          20170830WMF1708304.TXT
MDEUH8278970201709                D89828070300PT4U20170905000030SPEAKER ASM                   M IMCTM S9TS02 FTTL  07070IMCT  S9 PTB  00015                    1600 SR        000000000000 FUJITSU TEN (THAILAN18022TU0078078                                                                                                                              *          20170830WMF1708304.TXT
MDEUH8278971201709                D89828070300PT4U20170905000030SPEAKER ASM                   M IMCTM S9TS02 FTTL  07070IMCT  S9 PTB  00015                    2100 SR        000000000000 FUJITSU TEN (THAILAN18023TU0160160                                                                                                                              *          20170830WMF1708304.TXT
