REC2017082420170824ISUZU                              53     
MDDDH8278155201708                D89821984430PT1D20170830000030RADIO;AM/FM,CD                M IMCTM S5NC06 FTTL  07070IMCT  S5 PTB  00005                    2230 SR        000000000000 FUJITSU TEN (THAILAN170KRAL0162162                                                                                                                              *          20170824WMF1708246.TXT
MDDDH8278156201708                D89821984430PT1D20170831000030RADIO;AM/FM,CD                M IMCTM S5NC06 FTTL  07070IMCT  S5 PTB  00005                    0230 SR        000000000000 FUJITSU TEN (THAILAN170KRAL0163163                                                                                                                              *          20170824WMF1708246.TXT
MDDDH8278157201708                D89821984430PT1D20170831000060RADIO;AM/FM,CD                M IMCTM S5NC06 FTTL  07070IMCT  S5 PTB  00005                    0900 SR        000000000000 FUJITSU TEN (THAILAN170KNEL0162162170KRAL0164164                                                                                                                *          20170824WMF1708246.TXT
MDDDH8278158201708                D89828070100PV1D20170830000060SPEAKER ASM                   M IMCTM S5MB11 FTTL  07070IMCT  S5 PTB  00004                    2230 SR        000000000000 FUJITSU TEN (THAILAN170KRAL0162162                                                                                                                              *          20170824WMF1708246.TXT
MDDDH8278159201708                D89828070100PV1D20170831000060SPEAKER ASM                   M IMCTM S5MB11 FTTL  07070IMCT  S5 PTB  00004                    0230 SR        000000000000 FUJITSU TEN (THAILAN170KRAL0163163                                                                                                                              *          20170824WMF1708246.TXT
MDDDH8278160201708                D89828070100PV1D20170831000060SPEAKER ASM                   M IMCTM S5MB11 FTTL  07070IMCT  S5 PTB  00004                    0400 SR        000000000000 FUJITSU TEN (THAILAN170KREL0043043                                                                                                                              *          20170824WMF1708246.TXT
MDDDH8278161201708                D89828070100PV1D20170831000120SPEAKER ASM                   M IMCTM S5MB11 FTTL  07070IMCT  S5 PTB  00004                    0900 SR        000000000000 FUJITSU TEN (THAILAN170KNEL0162162170KRAL0164164                                                                                                                *          20170824WMF1708246.TXT
MDDDH8278162201708                D89828070100PV1D20170831000060SPEAKER ASM                   M IMCTM S5MB11 FTTL  07070IMCT  S5 PTB  00004                    1600 SR        000000000000 FUJITSU TEN (THAILAN170KNBL0037037                                                                                                                              *          20170824WMF1708246.TXT
MDDDH8278163201708                D89828070200PV1D20170831000060SPEAKER ASM                   M IMCTM S5MA14 FTTL  07070IMCT  S5 PTB  00005                    0400 SR        000000000000 FUJITSU TEN (THAILAN170KREL0043043                                                                                                                              *          20170824WMF1708246.TXT
MDDDH8278164201708                D89828070300PT1D20170831000060SPEAKER ASM                   M IMCTM S5NB082FTTL  07070IMCT  S5 PTB  00015                    0400 SR        000000000000 FUJITSU TEN (THAILAN170KREL0043043                                                                                                                              *          20170824WMF1708246.TXT
MDDDH8278165201708                D89831228400PT1D20170831000030RADIO;AM/FM,CD                M IMCTM S5NC06 FTTL  07070IMCT  S5 CPB  00003                    0400 SR        000000000000 FUJITSU TEN (THAILAN170KREL0043043                                                                                                                              *          20170824WMF1708246.TXT
MDDUH8254282201708                D89828070100PT4U20170830000030SPEAKER ASM                   M IMCTM S0FL05 FTTL  07070IMCT  S0 PTB  00004                    2230 SR        000000000000 FUJITSU TEN (THAILAN180LUEU0160160                                                                                                                              *          20170824WMF1708246.TXT
MDDUH8254283201708                D89828070100PT4U20170831000030SPEAKER ASM                   M IMCTM S0FL05 FTTL  07070IMCT  S0 PTB  00004                    0900 SR        000000000000 FUJITSU TEN (THAILAN180LUEU0161161                                                                                                                              *          20170824WMF1708246.TXT
MDDUH8254284201708                D89828070100PT4U20170831000030SPEAKER ASM                   M IMCTM S0FL05 FTTL  07070IMCT  S0 PTB  00004                    1600 SR        000000000000 FUJITSU TEN (THAILAN180LUFU0045045                                                                                                                              *          20170824WMF1708246.TXT
MDDUH8254285201708                D89828070200PV4U20170830000030SPEAKER ASM                   M IMCTM S0FR05 FTTL  07070IMCT  S0 PTB  00005                    2230 SR        000000000000 FUJITSU TEN (THAILAN180LUEU0160160                                                                                                                              *          20170824WMF1708246.TXT
MDDUH8254286201708                D89828070200PV4U20170831000030SPEAKER ASM                   M IMCTM S0FR05 FTTL  07070IMCT  S0 PTB  00005                    0900 SR        000000000000 FUJITSU TEN (THAILAN180LUEU0161161                                                                                                                              *          20170824WMF1708246.TXT
MDDUH8254287201708                D89828070200PV4U20170831000030SPEAKER ASM                   M IMCTM S0FR05 FTTL  07070IMCT  S0 PTB  00005                    1600 SR        000000000000 FUJITSU TEN (THAILAN180LUFU0045045                                                                                                                              *          20170824WMF1708246.TXT
MDDUH8254288201708                D89828070300PT4U20170830000030SPEAKER ASM                   M IMCTM S9TS02 FTTL  07070IMCT  S9 PTB  00015                    2230 SR        000000000000 FUJITSU TEN (THAILAN180LUEU0160160                                                                                                                              *          20170824WMF1708246.TXT
MDDUH8254289201708                D89828070300PT4U20170831000030SPEAKER ASM                   M IMCTM S9TS02 FTTL  07070IMCT  S9 PTB  00015                    0900 SR        000000000000 FUJITSU TEN (THAILAN180LUEU0161161                                                                                                                              *          20170824WMF1708246.TXT
MDDUH8254290201708                D89828070300PT4U20170831000030SPEAKER ASM                   M IMCTM S9TS02 FTTL  07070IMCT  S9 PTB  00015                    1600 SR        000000000000 FUJITSU TEN (THAILAN180LUFU0045045                                                                                                                              *          20170824WMF1708246.TXT
MDEDH8311572201708                D89828070100PV1D20170831000060SPEAKER ASM                   M IMCTM S5MB11 FTTL  07070IMCT  S5 PTB  00004                    0230 SR        000000000000 FUJITSU TEN (THAILAN17066NL0038039                                                                                                                              *          20170824WMF1708246.TXT
MDEDH8311573201708                D89828070100PV1D20170831000030SPEAKER ASM                   M IMCTM S5MB11 FTTL  07070IMCT  S5 PTB  00004                    0400 SR        000000000000 FUJITSU TEN (THAILAN17018QL0001001                                                                                                                              *          20170824WMF1708246.TXT
MDEDH8311574201708                D89828070100PV1D20170831000030SPEAKER ASM                   M IMCTM S5MB11 FTTL  07070IMCT  S5 PTB  00004                    0900 SR        000000000000 FUJITSU TEN (THAILAN17055ML0002002                                                                                                                              *          20170824WMF1708246.TXT
MDEDH8311575201708                D89828070100PV1D20170831000090SPEAKER ASM                   M IMCTM S5MB11 FTTL  07070IMCT  S5 PTB  00004                    1300 SR        000000000000 FUJITSU TEN (THAILAN16046KL003003017058NL003303317077PL0004004                                                                                                  *          20170824WMF1708246.TXT
MDEDH8311576201708                D89828070100PV1D20170831000030SPEAKER ASM                   M IMCTM S5MB11 FTTL  07070IMCT  S5 PTB  00004                    1600 SR        000000000000 FUJITSU TEN (THAILAN17020ML0020020                                                                                                                              *          20170824WMF1708246.TXT
MDEDH8311577201708                D89828070100PV1D20170831000030SPEAKER ASM                   M IMCTM S5MB11 FTTL  07070IMCT  S5 PTB  00004                    2100 SR        000000000000 FUJITSU TEN (THAILAN17080NL0092092                                                                                                                              *          20170824WMF1708246.TXT
MDEDH8311578201708                D89828070100PV4D20170831000030SPEAKER ASM                   M IMCTM S0FL05 FTTL  07070IMCT  S0 PTB  00004                    0230 SR        000000000000 FUJITSU TEN (THAILAN17080NU0053053                                                                                                                              *          20170824WMF1708246.TXT
MDEDH8311579201708                D89828070100PV4D20170831000030SPEAKER ASM                   M IMCTM S0FL05 FTTL  07070IMCT  S0 PTB  00004                    1600 SR        000000000000 FUJITSU TEN (THAILAN16046KU0002002                                                                                                                              *          20170824WMF1708246.TXT
MDEDH8311580201708                D89828070200PV1D20170831000060SPEAKER ASM                   M IMCTM S5MA14 FTTL  07070IMCT  S5 PTB  00005                    1300 SR        000000000000 FUJITSU TEN (THAILAN16046KL003003017058NL0033033                                                                                                                *          20170824WMF1708246.TXT
MDEDH8311581201708                D89828070200PV1D20170831000030SPEAKER ASM                   M IMCTM S5MA14 FTTL  07070IMCT  S5 PTB  00005                    1600 SR        000000000000 FUJITSU TEN (THAILAN17020ML0020020                                                                                                                              *          20170824WMF1708246.TXT
MDEDH8311582201708                D89828070200PV1D20170831000030SPEAKER ASM                   M IMCTM S5MA14 FTTL  07070IMCT  S5 PTB  00005                    2100 SR        000000000000 FUJITSU TEN (THAILAN17080NL0092092                                                                                                                              *          20170824WMF1708246.TXT
MDEDH8311583201708                D89828070200PV4D20170831000030SPEAKER ASM                   M IMCTM S0FR05 FTTL  07070IMCT  S0 PTB  00005                    0230 SR        000000000000 FUJITSU TEN (THAILAN17080NU0053053                                                                                                                              *          20170824WMF1708246.TXT
MDEDH8311584201708                D89828070200PV4D20170831000030SPEAKER ASM                   M IMCTM S0FR05 FTTL  07070IMCT  S0 PTB  00005                    1600 SR        000000000000 FUJITSU TEN (THAILAN16046KU0002002                                                                                                                              *          20170824WMF1708246.TXT
MDEDH8311585201708                D89828070300PT1D20170831000060SPEAKER ASM                   M IMCTM S5NB082FTTL  07070IMCT  S5 PTB  00015                    0230 SR        000000000000 FUJITSU TEN (THAILAN17066NL0038039                                                                                                                              *          20170824WMF1708246.TXT
MDEDH8311586201708                D89828070300PT1D20170831000060SPEAKER ASM                   M IMCTM S5NB082FTTL  07070IMCT  S5 PTB  00015                    1300 SR        000000000000 FUJITSU TEN (THAILAN16046KL003003017058NL0033033                                                                                                                *          20170824WMF1708246.TXT
MDEDH8311587201708                D89828070300PT1D20170831000030SPEAKER ASM                   M IMCTM S5NB082FTTL  07070IMCT  S5 PTB  00015                    1600 SR        000000000000 FUJITSU TEN (THAILAN17020ML0020020                                                                                                                              *          20170824WMF1708246.TXT
MDEDH8311588201708                D89828070300PT1D20170831000030SPEAKER ASM                   M IMCTM S5NB082FTTL  07070IMCT  S5 PTB  00015                    2100 SR        000000000000 FUJITSU TEN (THAILAN17080NL0092092                                                                                                                              *          20170824WMF1708246.TXT
MDEDH8311589201708                D89828070300PT4D20170831000030SPEAKER ASM                   M IMCTM S9TS02 FTTL  07070IMCT  S9 PTB  00015                    0230 SR        000000000000 FUJITSU TEN (THAILAN17080NU0053053                                                                                                                              *          20170824WMF1708246.TXT
MDEDH8311590201708                D89828070300PT4D20170831000030SPEAKER ASM                   M IMCTM S9TS02 FTTL  07070IMCT  S9 PTB  00015                    1600 SR        000000000000 FUJITSU TEN (THAILAN16046KU0002002                                                                                                                              *          20170824WMF1708246.TXT
MDEDH8311591201708                D89848581800PT1D20170831000015RADIO;AM/FM CD D              M IMCTM S5NC06 FTTL  07070IMCT  S5 PTB  00003                    1300 SR        000000000000 FUJITSU TEN (THAILAN17058NL0033033                                                                                                                              *          20170824WMF1708246.TXT
MDEDH8311592201708                D89848582500PT1D20170831000030RADIO;AM/FM CD D              M IMCTM S5NC06 FTTL  07070IMCT  S5 PTB  00003                    0230 SR        000000000000 FUJITSU TEN (THAILAN17066NL0038039                                                                                                                              *          20170824WMF1708246.TXT
MDEUH8266274201708                D89828070100PT4U20170831000030SPEAKER ASM                   M IMCTM S0FL05 FTTL  07070IMCT  S0 PTB  00004                    0400 SR        000000000000 FUJITSU TEN (THAILAN18018TU0043043                                                                                                                              *          20170824WMF1708246.TXT
MDEUH8266275201708                D89828070100PT4U20170831000060SPEAKER ASM                   M IMCTM S0FL05 FTTL  07070IMCT  S0 PTB  00004                    0900 SR        000000000000 FUJITSU TEN (THAILAN18018TU004404418023TU0155155                                                                                                                *          20170824WMF1708246.TXT
MDEUH8266276201708                D89828070100PT4U20170831000030SPEAKER ASM                   M IMCTM S0FL05 FTTL  07070IMCT  S0 PTB  00004                    1300 SR        000000000000 FUJITSU TEN (THAILAN18083SU0011011                                                                                                                              *          20170824WMF1708246.TXT
MDEUH8266277201708                D89828070100PT4U20170831000030SPEAKER ASM                   M IMCTM S0FL05 FTTL  07070IMCT  S0 PTB  00004                    2100 SR        000000000000 FUJITSU TEN (THAILAN170C12U0088088                                                                                                                              *          20170824WMF1708246.TXT
MDEUH8266278201708                D89828070200PV4U20170831000030SPEAKER ASM                   M IMCTM S0FR05 FTTL  07070IMCT  S0 PTB  00005                    0400 SR        000000000000 FUJITSU TEN (THAILAN18018TU0043043                                                                                                                              *          20170824WMF1708246.TXT
MDEUH8266279201708                D89828070200PV4U20170831000060SPEAKER ASM                   M IMCTM S0FR05 FTTL  07070IMCT  S0 PTB  00005                    0900 SR        000000000000 FUJITSU TEN (THAILAN18018TU004404418023TU0155155                                                                                                                *          20170824WMF1708246.TXT
MDEUH8266280201708                D89828070200PV4U20170831000030SPEAKER ASM                   M IMCTM S0FR05 FTTL  07070IMCT  S0 PTB  00005                    1300 SR        000000000000 FUJITSU TEN (THAILAN18083SU0011011                                                                                                                              *          20170824WMF1708246.TXT
MDEUH8266281201708                D89828070200PV4U20170831000030SPEAKER ASM                   M IMCTM S0FR05 FTTL  07070IMCT  S0 PTB  00005                    2100 SR        000000000000 FUJITSU TEN (THAILAN170C12U0088088                                                                                                                              *          20170824WMF1708246.TXT
MDEUH8266282201708                D89828070300PT4U20170831000030SPEAKER ASM                   M IMCTM S9TS02 FTTL  07070IMCT  S9 PTB  00015                    0400 SR        000000000000 FUJITSU TEN (THAILAN18018TU0043043                                                                                                                              *          20170824WMF1708246.TXT
MDEUH8266283201708                D89828070300PT4U20170831000060SPEAKER ASM                   M IMCTM S9TS02 FTTL  07070IMCT  S9 PTB  00015                    0900 SR        000000000000 FUJITSU TEN (THAILAN18018TU004404418023TU0155155                                                                                                                *          20170824WMF1708246.TXT
MDEUH8266284201708                D89828070300PT4U20170831000030SPEAKER ASM                   M IMCTM S9TS02 FTTL  07070IMCT  S9 PTB  00015                    1300 SR        000000000000 FUJITSU TEN (THAILAN18083SU0011011                                                                                                                              *          20170824WMF1708246.TXT
MDEUH8266285201708                D89828070300PT4U20170831000030SPEAKER ASM                   M IMCTM S9TS02 FTTL  07070IMCT  S9 PTB  00015                    2100 SR        000000000000 FUJITSU TEN (THAILAN170C12U0088088                                                                                                                              *          20170824WMF1708246.TXT
