REC2017081720170817ISUZU                              72     
MDDDH8251949201708                D89821984430PT1D20170821000030RADIO;AM/FM,CD                M IMCTM S5NC06 FTTL  07070IMCT  S5 PTB  00005                    2230 SR        000000000000 FUJITSU TEN (THAILAN170KRAL0146146                                                                                                                              *          20170817WMF1708177.TXT
MDDDH8251950201708                D89821984430PT1D20170822000030RADIO;AM/FM,CD                M IMCTM S5NC06 FTTL  07070IMCT  S5 PTB  00005                    0230 SR        000000000000 FUJITSU TEN (THAILAN170KPAL0168168                                                                                                                              *          20170817WMF1708177.TXT
MDDDH8251951201708                D89821984430PT1D20170822000030RADIO;AM/FM,CD                M IMCTM S5NC06 FTTL  07070IMCT  S5 PTB  00005                    0400 SR        000000000000 FUJITSU TEN (THAILAN170KRAL0147147                                                                                                                              *          20170817WMF1708177.TXT
MDDDH8251952201708                D89821984430PT1D20170822000030RADIO;AM/FM,CD                M IMCTM S5NC06 FTTL  07070IMCT  S5 PTB  00005                    1300 SR        000000000000 FUJITSU TEN (THAILAN170KPAL0169169                                                                                                                              *          20170817WMF1708177.TXT
MDDDH8251953201708                D89821984430PT1D20170822000060RADIO;AM/FM,CD                M IMCTM S5NC06 FTTL  07070IMCT  S5 PTB  00005                    1600 SR        000000000000 FUJITSU TEN (THAILAN170KPAL0170170170KRAL0148148                                                                                                                *          20170817WMF1708177.TXT
MDDDH8251954201708                D89821984430PT1D20170822000030RADIO;AM/FM,CD                M IMCTM S5NC06 FTTL  07070IMCT  S5 PTB  00005                    2100 SR        000000000000 FUJITSU TEN (THAILAN170KNCL0106106                                                                                                                              *          20170817WMF1708177.TXT
MDDDH8251955201708                D89828070100PV1D20170821000060SPEAKER ASM                   M IMCTM S5MB11 FTTL  07070IMCT  S5 PTB  00004                    2230 SR        000000000000 FUJITSU TEN (THAILAN170KRAL0146146                                                                                                                              *          20170817WMF1708177.TXT
MDDDH8251956201708                D89828070100PV1D20170822000060SPEAKER ASM                   M IMCTM S5MB11 FTTL  07070IMCT  S5 PTB  00004                    0230 SR        000000000000 FUJITSU TEN (THAILAN170KPAL0168168                                                                                                                              *          20170817WMF1708177.TXT
MDDDH8251957201708                D89828070100PV1D20170822000060SPEAKER ASM                   M IMCTM S5MB11 FTTL  07070IMCT  S5 PTB  00004                    0400 SR        000000000000 FUJITSU TEN (THAILAN170KRAL0147147                                                                                                                              *          20170817WMF1708177.TXT
MDDDH8251958201708                D89828070100PV1D20170822000060SPEAKER ASM                   M IMCTM S5MB11 FTTL  07070IMCT  S5 PTB  00004                    0900 SR        000000000000 FUJITSU TEN (THAILAN170KPFL0202202                                                                                                                              *          20170817WMF1708177.TXT
MDDDH8251959201708                D89828070100PV1D20170822000060SPEAKER ASM                   M IMCTM S5MB11 FTTL  07070IMCT  S5 PTB  00004                    1300 SR        000000000000 FUJITSU TEN (THAILAN170KPAL0169169                                                                                                                              *          20170817WMF1708177.TXT
MDDDH8251960201708                D89828070100PV1D20170822000120SPEAKER ASM                   M IMCTM S5MB11 FTTL  07070IMCT  S5 PTB  00004                    1600 SR        000000000000 FUJITSU TEN (THAILAN170KPAL0170170170KRAL0148148                                                                                                                *          20170817WMF1708177.TXT
MDDDH8251961201708                D89828070100PV1D20170822000060SPEAKER ASM                   M IMCTM S5MB11 FTTL  07070IMCT  S5 PTB  00004                    2100 SR        000000000000 FUJITSU TEN (THAILAN170KNCL0106106                                                                                                                              *          20170817WMF1708177.TXT
MDDDH8251962201708                D89828070300PT1D20170822000060SPEAKER ASM                   M IMCTM S5NB082FTTL  07070IMCT  S5 PTB  00015                    0900 SR        000000000000 FUJITSU TEN (THAILAN170KPFL0202202                                                                                                                              *          20170817WMF1708177.TXT
MDDDH8251963201708                D89831228300PT1D20170822000030RADIO;AM/FM,CD                M IMCTM S5NC06 FTTL  07070IMCT  S5 CPB  00003                    0900 SR        000000000000 FUJITSU TEN (THAILAN170KPFL0202202                                                                                                                              *          20170817WMF1708177.TXT
MDDUH8236768201708                D89828070100PT4U20170821000030SPEAKER ASM                   M IMCTM S0FL05 FTTL  07070IMCT  S0 PTB  00004                    2230 SR        000000000000 FUJITSU TEN (THAILAN180LUEU0147147                                                                                                                              *          20170817WMF1708177.TXT
MDDUH8236769201708                D89828070100PT4U20170822000030SPEAKER ASM                   M IMCTM S0FL05 FTTL  07070IMCT  S0 PTB  00004                    0900 SR        000000000000 FUJITSU TEN (THAILAN180LUEU0148148                                                                                                                              *          20170817WMF1708177.TXT
MDDUH8236770201708                D89828070100PT4U20170822000030SPEAKER ASM                   M IMCTM S0FL05 FTTL  07070IMCT  S0 PTB  00004                    1300 SR        000000000000 FUJITSU TEN (THAILAN180LUAU0034034                                                                                                                              *          20170817WMF1708177.TXT
MDDUH8236771201708                D89828070100PT4U20170822000060SPEAKER ASM                   M IMCTM S0FL05 FTTL  07070IMCT  S0 PTB  00004                    1600 SR        000000000000 FUJITSU TEN (THAILAN180LUDU0235235180LUEU0149149                                                                                                                *          20170817WMF1708177.TXT
MDDUH8236772201708                D89828070100PT4U20170822000030SPEAKER ASM                   M IMCTM S0FL05 FTTL  07070IMCT  S0 PTB  00004                    2100 SR        000000000000 FUJITSU TEN (THAILAN180LUAU0035035                                                                                                                              *          20170817WMF1708177.TXT
MDDUH8236773201708                D89828070200PV4U20170821000030SPEAKER ASM                   M IMCTM S0FR05 FTTL  07070IMCT  S0 PTB  00005                    2230 SR        000000000000 FUJITSU TEN (THAILAN180LUEU0147147                                                                                                                              *          20170817WMF1708177.TXT
MDDUH8236774201708                D89828070200PV4U20170822000030SPEAKER ASM                   M IMCTM S0FR05 FTTL  07070IMCT  S0 PTB  00005                    0900 SR        000000000000 FUJITSU TEN (THAILAN180LUEU0148148                                                                                                                              *          20170817WMF1708177.TXT
MDDUH8236775201708                D89828070200PV4U20170822000030SPEAKER ASM                   M IMCTM S0FR05 FTTL  07070IMCT  S0 PTB  00005                    1300 SR        000000000000 FUJITSU TEN (THAILAN180LUAU0034034                                                                                                                              *          20170817WMF1708177.TXT
MDDUH8236776201708                D89828070200PV4U20170822000060SPEAKER ASM                   M IMCTM S0FR05 FTTL  07070IMCT  S0 PTB  00005                    1600 SR        000000000000 FUJITSU TEN (THAILAN180LUDU0235235180LUEU0149149                                                                                                                *          20170817WMF1708177.TXT
MDDUH8236777201708                D89828070200PV4U20170822000030SPEAKER ASM                   M IMCTM S0FR05 FTTL  07070IMCT  S0 PTB  00005                    2100 SR        000000000000 FUJITSU TEN (THAILAN180LUAU0035035                                                                                                                              *          20170817WMF1708177.TXT
MDDUH8236778201708                D89828070300PT4U20170821000030SPEAKER ASM                   M IMCTM S9TS02 FTTL  07070IMCT  S9 PTB  00015                    2230 SR        000000000000 FUJITSU TEN (THAILAN180LUEU0147147                                                                                                                              *          20170817WMF1708177.TXT
MDDUH8236779201708                D89828070300PT4U20170822000030SPEAKER ASM                   M IMCTM S9TS02 FTTL  07070IMCT  S9 PTB  00015                    0900 SR        000000000000 FUJITSU TEN (THAILAN180LUEU0148148                                                                                                                              *          20170817WMF1708177.TXT
MDDUH8236780201708                D89828070300PT4U20170822000030SPEAKER ASM                   M IMCTM S9TS02 FTTL  07070IMCT  S9 PTB  00015                    1300 SR        000000000000 FUJITSU TEN (THAILAN180LUAU0034034                                                                                                                              *          20170817WMF1708177.TXT
MDDUH8236781201708                D89828070300PT4U20170822000060SPEAKER ASM                   M IMCTM S9TS02 FTTL  07070IMCT  S9 PTB  00015                    1600 SR        000000000000 FUJITSU TEN (THAILAN180LUDU0235235180LUEU0149149                                                                                                                *          20170817WMF1708177.TXT
MDDUH8236782201708                D89828070300PT4U20170822000030SPEAKER ASM                   M IMCTM S9TS02 FTTL  07070IMCT  S9 PTB  00015                    2100 SR        000000000000 FUJITSU TEN (THAILAN180LUAU0035035                                                                                                                              *          20170817WMF1708177.TXT
MDDUH8236783201708                D89831228400PT4U20170822000015RADIO;AM/FM,CD                M IMCTM S9CO001FTTL  07070IMCT  S9 CPB  00003                    1300 SR        000000000000 FUJITSU TEN (THAILAN180LUAU0034034                                                                                                                              *          20170817WMF1708177.TXT
MDDUH8236784201708                D89831228400PT4U20170822000015RADIO;AM/FM,CD                M IMCTM S9CO001FTTL  07070IMCT  S9 CPB  00003                    2100 SR        000000000000 FUJITSU TEN (THAILAN180LUAU0035035                                                                                                                              *          20170817WMF1708177.TXT
MDEDH8276047201708                D89828070100PV1D20170821000060SPEAKER ASM                   M IMCTM S5MB11 FTTL  07070IMCT  S5 PTB  00004                    2230 SR        000000000000 FUJITSU TEN (THAILAN17072NL0042043                                                                                                                              *          20170817WMF1708177.TXT
MDEDH8276048201708                D89828070100PV1D20170822000030SPEAKER ASM                   M IMCTM S5MB11 FTTL  07070IMCT  S5 PTB  00004                    0230 SR        000000000000 FUJITSU TEN (THAILAN17026NL0024024                                                                                                                              *          20170817WMF1708177.TXT
MDEDH8276049201708                D89828070100PV1D20170822000030SPEAKER ASM                   M IMCTM S5MB11 FTTL  07070IMCT  S5 PTB  00004                    0400 SR        000000000000 FUJITSU TEN (THAILAN17029ML0026026                                                                                                                              *          20170817WMF1708177.TXT
MDEDH8276050201708                D89828070100PV1D20170822000060SPEAKER ASM                   M IMCTM S5MB11 FTTL  07070IMCT  S5 PTB  00004                    0900 SR        000000000000 FUJITSU TEN (THAILAN17029ML002702717053NL0044044                                                                                                                *          20170817WMF1708177.TXT
MDEDH8276051201708                D89828070100PV1D20170822000090SPEAKER ASM                   M IMCTM S5MB11 FTTL  07070IMCT  S5 PTB  00004                    1300 SR        000000000000 FUJITSU TEN (THAILAN17020ML001601717053NL0045045                                                                                                                *          20170817WMF1708177.TXT
MDEDH8276052201708                D89828070100PV1D20170822000030SPEAKER ASM                   M IMCTM S5MB11 FTTL  07070IMCT  S5 PTB  00004                    1600 SR        000000000000 FUJITSU TEN (THAILAN17021NL0008008                                                                                                                              *          20170817WMF1708177.TXT
MDEDH8276053201708                D89828070100PV1D20170822000030SPEAKER ASM                   M IMCTM S5MB11 FTTL  07070IMCT  S5 PTB  00004                    2230 SR        000000000000 FUJITSU TEN (THAILAN17051NL0005005                                                                                                                              *          20170817WMF1708177.TXT
MDEDH8276054201708                D89828070100PV4D20170822000030SPEAKER ASM                   M IMCTM S0FL05 FTTL  07070IMCT  S0 PTB  00004                    1300 SR        000000000000 FUJITSU TEN (THAILAN17079NU0049049                                                                                                                              *          20170817WMF1708177.TXT
MDEDH8276055201708                D89828070200PV1D20170821000060SPEAKER ASM                   M IMCTM S5MA14 FTTL  07070IMCT  S5 PTB  00005                    2230 SR        000000000000 FUJITSU TEN (THAILAN17072NL0042043                                                                                                                              *          20170817WMF1708177.TXT
MDEDH8276056201708                D89828070200PV1D20170822000030SPEAKER ASM                   M IMCTM S5MA14 FTTL  07070IMCT  S5 PTB  00005                    0230 SR        000000000000 FUJITSU TEN (THAILAN17026NL0024024                                                                                                                              *          20170817WMF1708177.TXT
MDEDH8276057201708                D89828070200PV1D20170822000030SPEAKER ASM                   M IMCTM S5MA14 FTTL  07070IMCT  S5 PTB  00005                    0400 SR        000000000000 FUJITSU TEN (THAILAN17029ML0026026                                                                                                                              *          20170817WMF1708177.TXT
MDEDH8276058201708                D89828070200PV1D20170822000030SPEAKER ASM                   M IMCTM S5MA14 FTTL  07070IMCT  S5 PTB  00005                    0900 SR        000000000000 FUJITSU TEN (THAILAN17029ML0027027                                                                                                                              *          20170817WMF1708177.TXT
MDEDH8276059201708                D89828070200PV1D20170822000060SPEAKER ASM                   M IMCTM S5MA14 FTTL  07070IMCT  S5 PTB  00005                    1300 SR        000000000000 FUJITSU TEN (THAILAN17020ML0016017                                                                                                                              *          20170817WMF1708177.TXT
MDEDH8276060201708                D89828070200PV1D20170822000030SPEAKER ASM                   M IMCTM S5MA14 FTTL  07070IMCT  S5 PTB  00005                    1600 SR        000000000000 FUJITSU TEN (THAILAN17021NL0008008                                                                                                                              *          20170817WMF1708177.TXT
MDEDH8276061201708                D89828070200PV4D20170822000030SPEAKER ASM                   M IMCTM S0FR05 FTTL  07070IMCT  S0 PTB  00005                    1300 SR        000000000000 FUJITSU TEN (THAILAN17079NU0049049                                                                                                                              *          20170817WMF1708177.TXT
MDEDH8276062201708                D89828070300PT1D20170821000060SPEAKER ASM                   M IMCTM S5NB082FTTL  07070IMCT  S5 PTB  00015                    2230 SR        000000000000 FUJITSU TEN (THAILAN17072NL0042043                                                                                                                              *          20170817WMF1708177.TXT
MDEDH8276063201708                D89828070300PT1D20170822000030SPEAKER ASM                   M IMCTM S5NB082FTTL  07070IMCT  S5 PTB  00015                    0230 SR        000000000000 FUJITSU TEN (THAILAN17026NL0024024                                                                                                                              *          20170817WMF1708177.TXT
MDEDH8276064201708                D89828070300PT1D20170822000030SPEAKER ASM                   M IMCTM S5NB082FTTL  07070IMCT  S5 PTB  00015                    0400 SR        000000000000 FUJITSU TEN (THAILAN17029ML0026026                                                                                                                              *          20170817WMF1708177.TXT
MDEDH8276065201708                D89828070300PT1D20170822000060SPEAKER ASM                   M IMCTM S5NB082FTTL  07070IMCT  S5 PTB  00015                    0900 SR        000000000000 FUJITSU TEN (THAILAN17029ML002702717053NL0044044                                                                                                                *          20170817WMF1708177.TXT
MDEDH8276066201708                D89828070300PT1D20170822000090SPEAKER ASM                   M IMCTM S5NB082FTTL  07070IMCT  S5 PTB  00015                    1300 SR        000000000000 FUJITSU TEN (THAILAN17020ML001601717053NL0045045                                                                                                                *          20170817WMF1708177.TXT
MDEDH8276067201708                D89828070300PT1D20170822000030SPEAKER ASM                   M IMCTM S5NB082FTTL  07070IMCT  S5 PTB  00015                    1600 SR        000000000000 FUJITSU TEN (THAILAN17021NL0008008                                                                                                                              *          20170817WMF1708177.TXT
MDEDH8276068201708                D89828070300PT1D20170822000030SPEAKER ASM                   M IMCTM S5NB082FTTL  07070IMCT  S5 PTB  00015                    2230 SR        000000000000 FUJITSU TEN (THAILAN17051NL0005005                                                                                                                              *          20170817WMF1708177.TXT
MDEDH8276069201708                D89828070300PT4D20170822000030SPEAKER ASM                   M IMCTM S9TS02 FTTL  07070IMCT  S9 PTB  00015                    1300 SR        000000000000 FUJITSU TEN (THAILAN17079NU0049049                                                                                                                              *          20170817WMF1708177.TXT
MDEDH8276070201708                D89829645310PT1D20170822000015RADIO;ASM DVD                 M IMCTM S5NC06 FTTL  07070IMCT  S5 PTB  00003                    1600 SR        000000000000 FUJITSU TEN (THAILAN17021NL0008008                                                                                                                              *          20170817WMF1708177.TXT
MDEDH8276071201708                D89848581800PT1D20170821000030RADIO;AM/FM CD D              M IMCTM S5NC06 FTTL  07070IMCT  S5 PTB  00003                    2230 SR        000000000000 FUJITSU TEN (THAILAN17072NL0042043                                                                                                                              *          20170817WMF1708177.TXT
MDEDH8276072201708                D89848581800PT1D20170822000015RADIO;AM/FM CD D              M IMCTM S5NC06 FTTL  07070IMCT  S5 PTB  00003                    0900 SR        000000000000 FUJITSU TEN (THAILAN17053NL0044044                                                                                                                              *          20170817WMF1708177.TXT
MDEDH8276073201708                D89848581800PT1D20170822000015RADIO;AM/FM CD D              M IMCTM S5NC06 FTTL  07070IMCT  S5 PTB  00003                    1300 SR        000000000000 FUJITSU TEN (THAILAN17053NL0045045                                                                                                                              *          20170817WMF1708177.TXT
MDEDH8276074201708                D89848581800PT4D20170822000015RADIO;AM/FM CD D              M IMCTM S9CO001FTTL  07070IMCT  S9 PTB  00003                    1300 SR        000000000000 FUJITSU TEN (THAILAN17079NU0049049                                                                                                                              *          20170817WMF1708177.TXT
MDEUH8241463201708                D89828070100PT4U20170821000030SPEAKER ASM                   M IMCTM S0FL05 FTTL  07070IMCT  S0 PTB  00004                    2230 SR        000000000000 FUJITSU TEN (THAILAN18022TU0070070                                                                                                                              *          20170817WMF1708177.TXT
MDEUH8241464201708                D89828070100PT4U20170822000060SPEAKER ASM                   M IMCTM S0FL05 FTTL  07070IMCT  S0 PTB  00004                    0400 SR        000000000000 FUJITSU TEN (THAILAN170C13U013713718022TU0071071                                                                                                                *          20170817WMF1708177.TXT
MDEUH8241465201708                D89828070100PT4U20170822000030SPEAKER ASM                   M IMCTM S0FL05 FTTL  07070IMCT  S0 PTB  00004                    0900 SR        000000000000 FUJITSU TEN (THAILAN170C12U0084084                                                                                                                              *          20170817WMF1708177.TXT
MDEUH8241466201708                D89828070100PT4U20170822000030SPEAKER ASM                   M IMCTM S0FL05 FTTL  07070IMCT  S0 PTB  00004                    1600 SR        000000000000 FUJITSU TEN (THAILAN170C13U0138138                                                                                                                              *          20170817WMF1708177.TXT
MDEUH8241467201708                D89828070200PV4U20170821000030SPEAKER ASM                   M IMCTM S0FR05 FTTL  07070IMCT  S0 PTB  00005                    2230 SR        000000000000 FUJITSU TEN (THAILAN18022TU0070070                                                                                                                              *          20170817WMF1708177.TXT
MDEUH8241468201708                D89828070200PV4U20170822000060SPEAKER ASM                   M IMCTM S0FR05 FTTL  07070IMCT  S0 PTB  00005                    0400 SR        000000000000 FUJITSU TEN (THAILAN170C13U013713718022TU0071071                                                                                                                *          20170817WMF1708177.TXT
MDEUH8241469201708                D89828070200PV4U20170822000030SPEAKER ASM                   M IMCTM S0FR05 FTTL  07070IMCT  S0 PTB  00005                    0900 SR        000000000000 FUJITSU TEN (THAILAN170C12U0084084                                                                                                                              *          20170817WMF1708177.TXT
MDEUH8241470201708                D89828070200PV4U20170822000030SPEAKER ASM                   M IMCTM S0FR05 FTTL  07070IMCT  S0 PTB  00005                    1600 SR        000000000000 FUJITSU TEN (THAILAN170C13U0138138                                                                                                                              *          20170817WMF1708177.TXT
MDEUH8241471201708                D89828070300PT4U20170821000030SPEAKER ASM                   M IMCTM S9TS02 FTTL  07070IMCT  S9 PTB  00015                    2230 SR        000000000000 FUJITSU TEN (THAILAN18022TU0070070                                                                                                                              *          20170817WMF1708177.TXT
MDEUH8241472201708                D89828070300PT4U20170822000060SPEAKER ASM                   M IMCTM S9TS02 FTTL  07070IMCT  S9 PTB  00015                    0400 SR        000000000000 FUJITSU TEN (THAILAN170C13U013713718022TU0071071                                                                                                                *          20170817WMF1708177.TXT
MDEUH8241473201708                D89828070300PT4U20170822000030SPEAKER ASM                   M IMCTM S9TS02 FTTL  07070IMCT  S9 PTB  00015                    0900 SR        000000000000 FUJITSU TEN (THAILAN170C12U0084084                                                                                                                              *          20170817WMF1708177.TXT
MDEUH8241474201708                D89828070300PT4U20170822000030SPEAKER ASM                   M IMCTM S9TS02 FTTL  07070IMCT  S9 PTB  00015                    1600 SR        000000000000 FUJITSU TEN (THAILAN170C13U0138138                                                                                                                              *          20170817WMF1708177.TXT
