REC2017080420170804ISUZU                              16     
MDEBH8T00220201708                D89828070100PT4B20170810000030SPEAKER ASM                   M IMCTM S7FL05 FTTL  07070IMCT  S7 PTB  00004                    1600 SR        000000000000 FUJITSU TEN (THAILAN170C12R0022   18004TR0036   Y170802901    Y170802915    000000                                                                              *R         20170804RDF1708045.TXT
MDEBH8T00221201708                D89828070200PV4B20170810000030SPEAKER ASM                   M IMCTM S7TS02 FTTL  07070IMCT  S7 PTB  00005                    1600 SR        000000000000 FUJITSU TEN (THAILAN170C12R0022   18004TR0036   Y170802901    Y170802915    000000                                                                              *R         20170804RDF1708045.TXT
MDEBH8T00222201708                D89828070300PT4B20170810000030SPEAKER ASM                   M IMCTM S7TS02 FTTL  07070IMCT  S7 PTB  00015                    1600 SR        000000000000 FUJITSU TEN (THAILAN170C12R0022   18004TR0036   Y170802901    Y170802915    000000                                                                              *R         20170804RDF1708045.TXT
MDEFH8T04223201708                D89828070100PV4F20170810000030SPEAKER ASM                   M IMCTM S7FL05 FTTL  07070IMCT  S7 PTB  00004                    1300 SR        000000000000 FUJITSU TEN (THAILAN17035SR0041   17041PR0027   D170802801    D170802815    000000                                                                              *R         20170804RDF1708045.TXT
MDEFH8T04224201708                D89828070200PV4F20170810000014SPEAKER ASM                   M IMCTM S7TS02 FTTL  07070IMCT  S7 PTB  00005                    1300 SR        000000000000 FUJITSU TEN (THAILAN17035SR0041   17038RR0021   D170802801    D170802807    000000                                                                              *R         20170804RDF1708045.TXT
MDEFH8T04225201708                D89828070300PT4F20170810000014SPEAKER ASM                   M IMCTM S7TS02 FTTL  07070IMCT  S7 PTB  00015                    1300 SR        000000000000 FUJITSU TEN (THAILAN17035SR0041   17038RR0021   D170802801    D170802807    000000                                                                              *R         20170804RDF1708045.TXT
MDEFH8T04226201708                D89829645410PT4F20170810000003RADIO;ASM DVD                 M IMCTM S7TS03 FTTL  07070IMCT  S7 PTB  00003                    0400 SR        000000000000 FUJITSU TEN (THAILAN16059KR0059   17005RR0044   D170802707    D170802709    000000                                                                              *R         20170804RDF1708045.TXT
MDEFH8T04227201708                D89831229000PT4F20170810000002RADIO;AM/FM,CD                M IMCTM S7TS03 FTTL  07070IMCT  S7 PTB  00003                    0400 SR        000000000000 FUJITSU TEN (THAILAN16056KR0077   17046RR0078   D170802706    D170802715    000000                                                                              *R         20170804RDF1708045.TXT
MDEFH8213922201708                D89828070100PV4F20170809000032SPEAKER ASM                   M IMCTM S7FL05 FTTL  07070IMCT  S7 PTB  00004                    2100 SR        000000000000 FUJITSU TEN (THAILAN16046KR0057   17037MR0045   D170802701    R170802615    000000                                                                              *R         20170804RDF1708045.TXT
MDEFH8213923201708                D89828070100PV4F20170810000008SPEAKER ASM                   M IMCTM S7FL05 FTTL  07070IMCT  S7 PTB  00004                    0230 SR        000000000000 FUJITSU TEN (THAILAN16046KR0058   16056KR0076   D170802702    D170802705    000000                                                                              *R         20170804RDF1708045.TXT
MDEFH8213924201708                D89828070100PV4F20170810000020SPEAKER ASM                   M IMCTM S7FL05 FTTL  07070IMCT  S7 PTB  00004                    0400 SR        000000000000 FUJITSU TEN (THAILAN16056KR0077   17046RR0078   D170802706    D170802715    000000                                                                              *R         20170804RDF1708045.TXT
MDEFH8213925201708                D89828070200PV4F20170810000010SPEAKER ASM                   M IMCTM S7TS02 FTTL  07070IMCT  S7 PTB  00005                    0230 SR        000000000000 FUJITSU TEN (THAILAN16046KR0057   16056KR0076   D170802701    D170802705    000000                                                                              *R         20170804RDF1708045.TXT
MDEFH8213926201708                D89828070200PV4F20170810000020SPEAKER ASM                   M IMCTM S7TS02 FTTL  07070IMCT  S7 PTB  00005                    0400 SR        000000000000 FUJITSU TEN (THAILAN16056KR0077   17046RR0078   D170802706    D170802715    000000                                                                              *R         20170804RDF1708045.TXT
MDEFH8213927201708                D89828070300PT4F20170810000015SPEAKER ASM                   M IMCTM S7TS02 FTTL  07070IMCT  S7 PTB  00015                    0230 SR        000000000000 FUJITSU TEN (THAILAN16046KR0057   16059KR0060   D170802701    D170802708    000000                                                                              *R         20170804RDF1708045.TXT
MDEFH8213928201708                D89828070300PT4F20170810000015SPEAKER ASM                   M IMCTM S7TS02 FTTL  07070IMCT  S7 PTB  00015                    0400 SR        000000000000 FUJITSU TEN (THAILAN16059KR0060   17046RR0078   D170802708    D170802715    000000                                                                              *R         20170804RDF1708045.TXT
MDEFH8213929201708                D89831229000PT4F20170810000003RADIO;AM/FM,CD                M IMCTM S7TS03 FTTL  07070IMCT  S7 PTB  00003                    0230 SR        000000000000 FUJITSU TEN (THAILAN16050KR0057   16056KR0076   D170802703    D170802705    000000                                                                              *R         20170804RDF1708045.TXT
