REC2017083120170831ISUZU                              63     
MDDDH8294126201709                D89821984430PT1D20170906000030RADIO;AM/FM,CD                M IMCTM S5NC06 FTTL  07070IMCT  S5 PTB  00005                    0400 SR        000000000000 FUJITSU TEN (THAILAN170KPAL0183183                                                                                                                              *          20170831WMF1708317.TXT
MDDDH8294127201709                D89821984430PT1D20170906000030RADIO;AM/FM,CD                M IMCTM S5NC06 FTTL  07070IMCT  S5 PTB  00005                    0830 SR        000000000000 FUJITSU TEN (THAILAN170KRAL0166166                                                                                                                              *          20170831WMF1708317.TXT
MDDDH8294128201709                D89821984430PT1D20170906000030RADIO;AM/FM,CD                M IMCTM S5NC06 FTTL  07070IMCT  S5 PTB  00005                    1300 SR        000000000000 FUJITSU TEN (THAILAN170KPAL0184184                                                                                                                              *          20170831WMF1708317.TXT
MDDDH8294129201709                D89828070100PV1D20170906000060SPEAKER ASM                   M IMCTM S5MB11 FTTL  07070IMCT  S5 PTB  00004                    0230 SR        000000000000 FUJITSU TEN (THAILAN170KRFL0121121                                                                                                                              *          20170831WMF1708317.TXT
MDDDH8294130201709                D89828070100PV1D20170906000060SPEAKER ASM                   M IMCTM S5MB11 FTTL  07070IMCT  S5 PTB  00004                    0400 SR        000000000000 FUJITSU TEN (THAILAN170KPAL0183183                                                                                                                              *          20170831WMF1708317.TXT
MDDDH8294131201709                D89828070100PV1D20170906000060SPEAKER ASM                   M IMCTM S5MB11 FTTL  07070IMCT  S5 PTB  00004                    0830 SR        000000000000 FUJITSU TEN (THAILAN170KRAL0166166                                                                                                                              *          20170831WMF1708317.TXT
MDDDH8294132201709                D89828070100PV1D20170906000060SPEAKER ASM                   M IMCTM S5MB11 FTTL  07070IMCT  S5 PTB  00004                    1030 SR        000000000000 FUJITSU TEN (THAILAN170KPFL0208208                                                                                                                              *          20170831WMF1708317.TXT
MDDDH8294133201709                D89828070100PV1D20170906000060SPEAKER ASM                   M IMCTM S5MB11 FTTL  07070IMCT  S5 PTB  00004                    1300 SR        000000000000 FUJITSU TEN (THAILAN170KPAL0184184                                                                                                                              *          20170831WMF1708317.TXT
MDDDH8294134201709                D89828070100PV1D20170906000180SPEAKER ASM                   M IMCTM S5MB11 FTTL  07070IMCT  S5 PTB  00004                    1600 SR        000000000000 FUJITSU TEN (THAILAN170KNBL0039039170KPCL0085085170KPFL0209209                                                                                                  *          20170831WMF1708317.TXT
MDDDH8294135201709                D89828070100PV1D20170906000060SPEAKER ASM                   M IMCTM S5MB11 FTTL  07070IMCT  S5 PTB  00004                    2100 SR        000000000000 FUJITSU TEN (THAILAN170KRLL0013013                                                                                                                              *          20170831WMF1708317.TXT
MDDDH8294136201709                D89828070200PV1D20170906000060SPEAKER ASM                   M IMCTM S5MA14 FTTL  07070IMCT  S5 PTB  00005                    0230 SR        000000000000 FUJITSU TEN (THAILAN170KRFL0121121                                                                                                                              *          20170831WMF1708317.TXT
MDDDH8294137201709                D89828070200PV1D20170906000060SPEAKER ASM                   M IMCTM S5MA14 FTTL  07070IMCT  S5 PTB  00005                    2100 SR        000000000000 FUJITSU TEN (THAILAN170KRLL0013013                                                                                                                              *          20170831WMF1708317.TXT
MDDDH8294138201709                D89828070300PT1D20170906000060SPEAKER ASM                   M IMCTM S5NB082FTTL  07070IMCT  S5 PTB  00015                    0230 SR        000000000000 FUJITSU TEN (THAILAN170KRFL0121121                                                                                                                              *          20170831WMF1708317.TXT
MDDDH8294139201709                D89828070300PT1D20170906000060SPEAKER ASM                   M IMCTM S5NB082FTTL  07070IMCT  S5 PTB  00015                    1030 SR        000000000000 FUJITSU TEN (THAILAN170KPFL0208208                                                                                                                              *          20170831WMF1708317.TXT
MDDDH8294140201709                D89828070300PT1D20170906000120SPEAKER ASM                   M IMCTM S5NB082FTTL  07070IMCT  S5 PTB  00015                    1600 SR        000000000000 FUJITSU TEN (THAILAN170KPCL0085085170KPFL0209209                                                                                                                *          20170831WMF1708317.TXT
MDDDH8294141201709                D89828070300PT1D20170906000060SPEAKER ASM                   M IMCTM S5NB082FTTL  07070IMCT  S5 PTB  00015                    2100 SR        000000000000 FUJITSU TEN (THAILAN170KRLL0013013                                                                                                                              *          20170831WMF1708317.TXT
MDDDH8294142201709                D89829645910PT1D20170906000030RADIO;ASM DVD                 M IMCTM S5NC06 FTTL  07070IMCT  S5 PTB  00003                    0230 SR        000000000000 FUJITSU TEN (THAILAN170KRFL0121121                                                                                                                              *          20170831WMF1708317.TXT
MDDDH8294143201709                D89831228300PT1D20170906000030RADIO;AM/FM,CD                M IMCTM S5NC06 FTTL  07070IMCT  S5 CPB  00003                    1030 SR        000000000000 FUJITSU TEN (THAILAN170KPFL0208208                                                                                                                              *          20170831WMF1708317.TXT
MDDDH8294144201709                D89831228300PT1D20170906000060RADIO;AM/FM,CD                M IMCTM S5NC06 FTTL  07070IMCT  S5 CPB  00003                    1600 SR        000000000000 FUJITSU TEN (THAILAN170KPCL0085085170KPFL0209209                                                                                                                *          20170831WMF1708317.TXT
MDDUH8263765201709                D89828070100PT4U20170905000030SPEAKER ASM                   M IMCTM S0FL05 FTTL  07070IMCT  S0 PTB  00004                    2230 SR        000000000000 FUJITSU TEN (THAILAN180LUDU0242242                                                                                                                              *          20170831WMF1708317.TXT
MDDUH8263766201709                D89828070100PT4U20170906000030SPEAKER ASM                   M IMCTM S0FL05 FTTL  07070IMCT  S0 PTB  00004                    1300 SR        000000000000 FUJITSU TEN (THAILAN180LUCU0075075                                                                                                                              *          20170831WMF1708317.TXT
MDDUH8263767201709                D89828070100PT4U20170906000060SPEAKER ASM                   M IMCTM S0FL05 FTTL  07070IMCT  S0 PTB  00004                    1600 SR        000000000000 FUJITSU TEN (THAILAN180LUDU0243243180LUEU0163163                                                                                                                *          20170831WMF1708317.TXT
MDDUH8263768201709                D89828070200PV4U20170905000030SPEAKER ASM                   M IMCTM S0FR05 FTTL  07070IMCT  S0 PTB  00005                    2230 SR        000000000000 FUJITSU TEN (THAILAN180LUDU0242242                                                                                                                              *          20170831WMF1708317.TXT
MDDUH8263769201709                D89828070200PV4U20170906000030SPEAKER ASM                   M IMCTM S0FR05 FTTL  07070IMCT  S0 PTB  00005                    1300 SR        000000000000 FUJITSU TEN (THAILAN180LUCU0075075                                                                                                                              *          20170831WMF1708317.TXT
MDDUH8263770201709                D89828070200PV4U20170906000060SPEAKER ASM                   M IMCTM S0FR05 FTTL  07070IMCT  S0 PTB  00005                    1600 SR        000000000000 FUJITSU TEN (THAILAN180LUDU0243243180LUEU0163163                                                                                                                *          20170831WMF1708317.TXT
MDDUH8263771201709                D89828070300PT4U20170905000030SPEAKER ASM                   M IMCTM S9TS02 FTTL  07070IMCT  S9 PTB  00015                    2230 SR        000000000000 FUJITSU TEN (THAILAN180LUDU0242242                                                                                                                              *          20170831WMF1708317.TXT
MDDUH8263772201709                D89828070300PT4U20170906000030SPEAKER ASM                   M IMCTM S9TS02 FTTL  07070IMCT  S9 PTB  00015                    1300 SR        000000000000 FUJITSU TEN (THAILAN180LUCU0075075                                                                                                                              *          20170831WMF1708317.TXT
MDDUH8263773201709                D89828070300PT4U20170906000060SPEAKER ASM                   M IMCTM S9TS02 FTTL  07070IMCT  S9 PTB  00015                    1600 SR        000000000000 FUJITSU TEN (THAILAN180LUDU0243243180LUEU0163163                                                                                                                *          20170831WMF1708317.TXT
MDDUH8263774201709                D89835097910PT4U20170906000015RADIO;ASM DVD                 M IMCTM S9TS01 FTTL  07070IMCT  S9 PTB  00003                    1300 SR        000000000000 FUJITSU TEN (THAILAN180LUCU0075075                                                                                                                              *          20170831WMF1708317.TXT
MDEDH8331851201709                D89828070100PV1D20170905000120SPEAKER ASM                   M IMCTM S5MB11 FTTL  07070IMCT  S5 PTB  00004                    2230 SR        000000000000 FUJITSU TEN (THAILAN17016VL000500617052RL0007008                                                                                                                *          20170831WMF1708317.TXT
MDEDH8331852201709                D89828070100PV1D20170906000060SPEAKER ASM                   M IMCTM S5MB11 FTTL  07070IMCT  S5 PTB  00004                    0400 SR        000000000000 FUJITSU TEN (THAILAN16060KL0001002                                                                                                                              *          20170831WMF1708317.TXT
MDEDH8331853201709                D89828070100PV1D20170906000060SPEAKER ASM                   M IMCTM S5MB11 FTTL  07070IMCT  S5 PTB  00004                    1300 SR        000000000000 FUJITSU TEN (THAILAN17037ML000300317067NL0007007                                                                                                                *          20170831WMF1708317.TXT
MDEDH8331854201709                D89828070100PV1D20170906000060SPEAKER ASM                   M IMCTM S5MB11 FTTL  07070IMCT  S5 PTB  00004                    1600 SR        000000000000 FUJITSU TEN (THAILAN17081NL0030031                                                                                                                              *          20170831WMF1708317.TXT
MDEDH8331855201709                D89828070100PV4D20170906000030SPEAKER ASM                   M IMCTM S0FL05 FTTL  07070IMCT  S0 PTB  00004                    0830 SR        000000000000 FUJITSU TEN (THAILAN16046KU0004004                                                                                                                              *          20170831WMF1708317.TXT
MDEDH8331856201709                D89828070100PV4D20170906000030SPEAKER ASM                   M IMCTM S0FL05 FTTL  07070IMCT  S0 PTB  00004                    1300 SR        000000000000 FUJITSU TEN (THAILAN16046KU0005005                                                                                                                              *          20170831WMF1708317.TXT
MDEDH8331857201709                D89828070100PV4D20170906000030SPEAKER ASM                   M IMCTM S0FL05 FTTL  07070IMCT  S0 PTB  00004                    1600 SR        000000000000 FUJITSU TEN (THAILAN16046KU0006006                                                                                                                              *          20170831WMF1708317.TXT
MDEDH8331858201709                D89828070200PV1D20170906000060SPEAKER ASM                   M IMCTM S5MA14 FTTL  07070IMCT  S5 PTB  00005                    0400 SR        000000000000 FUJITSU TEN (THAILAN16060KL0001002                                                                                                                              *          20170831WMF1708317.TXT
MDEDH8331859201709                D89828070200PV1D20170906000060SPEAKER ASM                   M IMCTM S5MA14 FTTL  07070IMCT  S5 PTB  00005                    1600 SR        000000000000 FUJITSU TEN (THAILAN17081NL0030031                                                                                                                              *          20170831WMF1708317.TXT
MDEDH8331860201709                D89828070200PV4D20170906000030SPEAKER ASM                   M IMCTM S0FR05 FTTL  07070IMCT  S0 PTB  00005                    0830 SR        000000000000 FUJITSU TEN (THAILAN16046KU0004004                                                                                                                              *          20170831WMF1708317.TXT
MDEDH8331861201709                D89828070200PV4D20170906000030SPEAKER ASM                   M IMCTM S0FR05 FTTL  07070IMCT  S0 PTB  00005                    1300 SR        000000000000 FUJITSU TEN (THAILAN16046KU0005005                                                                                                                              *          20170831WMF1708317.TXT
MDEDH8331862201709                D89828070200PV4D20170906000030SPEAKER ASM                   M IMCTM S0FR05 FTTL  07070IMCT  S0 PTB  00005                    1600 SR        000000000000 FUJITSU TEN (THAILAN16046KU0006006                                                                                                                              *          20170831WMF1708317.TXT
MDEDH8331863201709                D89828070300PT1D20170906000060SPEAKER ASM                   M IMCTM S5NB082FTTL  07070IMCT  S5 PTB  00015                    0400 SR        000000000000 FUJITSU TEN (THAILAN16060KL0001002                                                                                                                              *          20170831WMF1708317.TXT
MDEDH8331864201709                D89828070300PT1D20170906000030SPEAKER ASM                   M IMCTM S5NB082FTTL  07070IMCT  S5 PTB  00015                    1300 SR        000000000000 FUJITSU TEN (THAILAN17067NL0007007                                                                                                                              *          20170831WMF1708317.TXT
MDEDH8331865201709                D89828070300PT1D20170906000060SPEAKER ASM                   M IMCTM S5NB082FTTL  07070IMCT  S5 PTB  00015                    1600 SR        000000000000 FUJITSU TEN (THAILAN17081NL0030031                                                                                                                              *          20170831WMF1708317.TXT
MDEDH8331866201709                D89828070300PT4D20170906000030SPEAKER ASM                   M IMCTM S9TS02 FTTL  07070IMCT  S9 PTB  00015                    0830 SR        000000000000 FUJITSU TEN (THAILAN16046KU0004004                                                                                                                              *          20170831WMF1708317.TXT
MDEDH8331867201709                D89828070300PT4D20170906000030SPEAKER ASM                   M IMCTM S9TS02 FTTL  07070IMCT  S9 PTB  00015                    1300 SR        000000000000 FUJITSU TEN (THAILAN16046KU0005005                                                                                                                              *          20170831WMF1708317.TXT
MDEDH8331868201709                D89828070300PT4D20170906000030SPEAKER ASM                   M IMCTM S9TS02 FTTL  07070IMCT  S9 PTB  00015                    1600 SR        000000000000 FUJITSU TEN (THAILAN16046KU0006006                                                                                                                              *          20170831WMF1708317.TXT
MDEDH8331869201709                D89829645410PT1D20170906000030RADIO;ASM DVD                 M IMCTM S5NC06 FTTL  07070IMCT  S5 PTB  00003                    0400 SR        000000000000 FUJITSU TEN (THAILAN16060KL0001002                                                                                                                              *          20170831WMF1708317.TXT
MDEUH8283285201709                D89828070100PT4U20170906000030SPEAKER ASM                   M IMCTM S0FL05 FTTL  07070IMCT  S0 PTB  00004                    0230 SR        000000000000 FUJITSU TEN (THAILAN18078SU0007007                                                                                                                              *          20170831WMF1708317.TXT
MDEUH8283286201709                D89828070100PT4U20170906000060SPEAKER ASM                   M IMCTM S0FL05 FTTL  07070IMCT  S0 PTB  00004                    0400 SR        000000000000 FUJITSU TEN (THAILAN18022TU007907918078SU0008008                                                                                                                *          20170831WMF1708317.TXT
MDEUH8283287201709                D89828070100PT4U20170906000030SPEAKER ASM                   M IMCTM S0FL05 FTTL  07070IMCT  S0 PTB  00004                    0830 SR        000000000000 FUJITSU TEN (THAILAN18078SU0009009                                                                                                                              *          20170831WMF1708317.TXT
MDEUH8283288201709                D89828070100PT4U20170906000030SPEAKER ASM                   M IMCTM S0FL05 FTTL  07070IMCT  S0 PTB  00004                    1030 SR        000000000000 FUJITSU TEN (THAILAN18023TU0161161                                                                                                                              *          20170831WMF1708317.TXT
MDEUH8283289201709                D89828070100PT4U20170906000030SPEAKER ASM                   M IMCTM S0FL05 FTTL  07070IMCT  S0 PTB  00004                    2100 SR        000000000000 FUJITSU TEN (THAILAN18017TU0035035                                                                                                                              *          20170831WMF1708317.TXT
MDEUH8283290201709                D89828070200PV4U20170906000030SPEAKER ASM                   M IMCTM S0FR05 FTTL  07070IMCT  S0 PTB  00005                    0230 SR        000000000000 FUJITSU TEN (THAILAN18078SU0007007                                                                                                                              *          20170831WMF1708317.TXT
MDEUH8283291201709                D89828070200PV4U20170906000060SPEAKER ASM                   M IMCTM S0FR05 FTTL  07070IMCT  S0 PTB  00005                    0400 SR        000000000000 FUJITSU TEN (THAILAN18022TU007907918078SU0008008                                                                                                                *          20170831WMF1708317.TXT
MDEUH8283292201709                D89828070200PV4U20170906000030SPEAKER ASM                   M IMCTM S0FR05 FTTL  07070IMCT  S0 PTB  00005                    0830 SR        000000000000 FUJITSU TEN (THAILAN18078SU0009009                                                                                                                              *          20170831WMF1708317.TXT
MDEUH8283293201709                D89828070200PV4U20170906000030SPEAKER ASM                   M IMCTM S0FR05 FTTL  07070IMCT  S0 PTB  00005                    1030 SR        000000000000 FUJITSU TEN (THAILAN18023TU0161161                                                                                                                              *          20170831WMF1708317.TXT
MDEUH8283294201709                D89828070200PV4U20170906000030SPEAKER ASM                   M IMCTM S0FR05 FTTL  07070IMCT  S0 PTB  00005                    2100 SR        000000000000 FUJITSU TEN (THAILAN18017TU0035035                                                                                                                              *          20170831WMF1708317.TXT
MDEUH8283295201709                D89828070300PT4U20170906000030SPEAKER ASM                   M IMCTM S9TS02 FTTL  07070IMCT  S9 PTB  00015                    0230 SR        000000000000 FUJITSU TEN (THAILAN18078SU0007007                                                                                                                              *          20170831WMF1708317.TXT
MDEUH8283296201709                D89828070300PT4U20170906000060SPEAKER ASM                   M IMCTM S9TS02 FTTL  07070IMCT  S9 PTB  00015                    0400 SR        000000000000 FUJITSU TEN (THAILAN18022TU007907918078SU0008008                                                                                                                *          20170831WMF1708317.TXT
MDEUH8283297201709                D89828070300PT4U20170906000030SPEAKER ASM                   M IMCTM S9TS02 FTTL  07070IMCT  S9 PTB  00015                    0830 SR        000000000000 FUJITSU TEN (THAILAN18078SU0009009                                                                                                                              *          20170831WMF1708317.TXT
MDEUH8283298201709                D89828070300PT4U20170906000030SPEAKER ASM                   M IMCTM S9TS02 FTTL  07070IMCT  S9 PTB  00015                    1030 SR        000000000000 FUJITSU TEN (THAILAN18023TU0161161                                                                                                                              *          20170831WMF1708317.TXT
MDEUH8283299201709                D89828070300PT4U20170906000030SPEAKER ASM                   M IMCTM S9TS02 FTTL  07070IMCT  S9 PTB  00015                    2100 SR        000000000000 FUJITSU TEN (THAILAN18017TU0035035                                                                                                                              *          20170831WMF1708317.TXT
