REC2017080120170801ISUZU                              53     
MDDDH8200729201708                D89821984430PT1D20170805000030RADIO;AM/FM,CD                M IMCTM S5NC06 FTTL  07070IMCT  S5 PTB  00005                    0230 SR        000000000000 FUJITSU TEN (THAILAN170KRAL0116116                                                                                                                              *          20170801WMF1708015.TXT
MDDDH8200730201708                D89821984430PT1D20170805000030RADIO;AM/FM,CD                M IMCTM S5NC06 FTTL  07070IMCT  S5 PTB  00005                    0400 SR        000000000000 FUJITSU TEN (THAILAN170KRAL0117117                                                                                                                              *          20170801WMF1708015.TXT
MDDDH8200731201708                D89821984430PT1D20170807000030RADIO;AM/FM,CD                M IMCTM S5NC06 FTTL  07070IMCT  S5 PTB  00005                    0900 SR        000000000000 FUJITSU TEN (THAILAN170KPAL0144144                                                                                                                              *          20170801WMF1708015.TXT
MDDDH8200732201708                D89821984430PT1D20170807000030RADIO;AM/FM,CD                M IMCTM S5NC06 FTTL  07070IMCT  S5 PTB  00005                    1600 SR        000000000000 FUJITSU TEN (THAILAN170KNFL0056056                                                                                                                              *          20170801WMF1708015.TXT
MDDDH8200733201708                D89828070100PV1D20170805000060SPEAKER ASM                   M IMCTM S5MB11 FTTL  07070IMCT  S5 PTB  00004                    0230 SR        000000000000 FUJITSU TEN (THAILAN170KRAL0116116                                                                                                                              *          20170801WMF1708015.TXT
MDDDH8200734201708                D89828070100PV1D20170805000060SPEAKER ASM                   M IMCTM S5MB11 FTTL  07070IMCT  S5 PTB  00004                    0400 SR        000000000000 FUJITSU TEN (THAILAN170KRAL0117117                                                                                                                              *          20170801WMF1708015.TXT
MDDDH8200735201708                D89828070100PV1D20170807000060SPEAKER ASM                   M IMCTM S5MB11 FTTL  07070IMCT  S5 PTB  00004                    0900 SR        000000000000 FUJITSU TEN (THAILAN170KPAL0144144                                                                                                                              *          20170801WMF1708015.TXT
MDDDH8200736201708                D89828070100PV1D20170807000060SPEAKER ASM                   M IMCTM S5MB11 FTTL  07070IMCT  S5 PTB  00004                    1300 SR        000000000000 FUJITSU TEN (THAILAN170KNAL0078078                                                                                                                              *          20170801WMF1708015.TXT
MDDDH8200737201708                D89828070100PV1D20170807000060SPEAKER ASM                   M IMCTM S5MB11 FTTL  07070IMCT  S5 PTB  00004                    1600 SR        000000000000 FUJITSU TEN (THAILAN170KNFL0056056                                                                                                                              *          20170801WMF1708015.TXT
MDDDH8200738201708                D89828070100PV1D20170807000060SPEAKER ASM                   M IMCTM S5MB11 FTTL  07070IMCT  S5 PTB  00004                    2100 SR        000000000000 FUJITSU TEN (THAILAN170KPFL0195195                                                                                                                              *          20170801WMF1708015.TXT
MDDDH8200739201708                D89828070300PT1D20170807000060SPEAKER ASM                   M IMCTM S5NB082FTTL  07070IMCT  S5 PTB  00015                    2100 SR        000000000000 FUJITSU TEN (THAILAN170KPFL0195195                                                                                                                              *          20170801WMF1708015.TXT
MDDDH8200740201708                D89831228300PT1D20170807000030RADIO;AM/FM,CD                M IMCTM S5NC06 FTTL  07070IMCT  S5 CPB  00003                    2100 SR        000000000000 FUJITSU TEN (THAILAN170KPFL0195195                                                                                                                              *          20170801WMF1708015.TXT
MDDUH8200457201708                D89828070100PT4U20170807000030SPEAKER ASM                   M IMCTM S0FL05 FTTL  07070IMCT  S0 PTB  00004                    0900 SR        000000000000 FUJITSU TEN (THAILAN180LUAU0019019                                                                                                                              *          20170801WMF1708015.TXT
MDDUH8200458201708                D89828070100PT4U20170807000030SPEAKER ASM                   M IMCTM S0FL05 FTTL  07070IMCT  S0 PTB  00004                    1300 SR        000000000000 FUJITSU TEN (THAILAN180LUFU0041041                                                                                                                              *          20170801WMF1708015.TXT
MDDUH8200459201708                D89828070100PT4U20170807000030SPEAKER ASM                   M IMCTM S0FL05 FTTL  07070IMCT  S0 PTB  00004                    1600 SR        000000000000 FUJITSU TEN (THAILAN180LUDU0221221                                                                                                                              *          20170801WMF1708015.TXT
MDDUH8200460201708                D89828070100PT4U20170807000030SPEAKER ASM                   M IMCTM S0FL05 FTTL  07070IMCT  S0 PTB  00004                    2230 SR        000000000000 FUJITSU TEN (THAILAN180LUCU0065065                                                                                                                              *          20170801WMF1708015.TXT
MDDUH8200461201708                D89828070200PV4U20170807000030SPEAKER ASM                   M IMCTM S0FR05 FTTL  07070IMCT  S0 PTB  00005                    0900 SR        000000000000 FUJITSU TEN (THAILAN180LUAU0019019                                                                                                                              *          20170801WMF1708015.TXT
MDDUH8200462201708                D89828070200PV4U20170807000030SPEAKER ASM                   M IMCTM S0FR05 FTTL  07070IMCT  S0 PTB  00005                    1300 SR        000000000000 FUJITSU TEN (THAILAN180LUFU0041041                                                                                                                              *          20170801WMF1708015.TXT
MDDUH8200463201708                D89828070200PV4U20170807000030SPEAKER ASM                   M IMCTM S0FR05 FTTL  07070IMCT  S0 PTB  00005                    1600 SR        000000000000 FUJITSU TEN (THAILAN180LUDU0221221                                                                                                                              *          20170801WMF1708015.TXT
MDDUH8200464201708                D89828070200PV4U20170807000030SPEAKER ASM                   M IMCTM S0FR05 FTTL  07070IMCT  S0 PTB  00005                    2230 SR        000000000000 FUJITSU TEN (THAILAN180LUCU0065065                                                                                                                              *          20170801WMF1708015.TXT
MDDUH8200465201708                D89828070300PT4U20170807000030SPEAKER ASM                   M IMCTM S9TS02 FTTL  07070IMCT  S9 PTB  00015                    0900 SR        000000000000 FUJITSU TEN (THAILAN180LUAU0019019                                                                                                                              *          20170801WMF1708015.TXT
MDDUH8200466201708                D89828070300PT4U20170807000030SPEAKER ASM                   M IMCTM S9TS02 FTTL  07070IMCT  S9 PTB  00015                    1300 SR        000000000000 FUJITSU TEN (THAILAN180LUFU0041041                                                                                                                              *          20170801WMF1708015.TXT
MDDUH8200467201708                D89828070300PT4U20170807000030SPEAKER ASM                   M IMCTM S9TS02 FTTL  07070IMCT  S9 PTB  00015                    1600 SR        000000000000 FUJITSU TEN (THAILAN180LUDU0221221                                                                                                                              *          20170801WMF1708015.TXT
MDDUH8200468201708                D89828070300PT4U20170807000030SPEAKER ASM                   M IMCTM S9TS02 FTTL  07070IMCT  S9 PTB  00015                    2230 SR        000000000000 FUJITSU TEN (THAILAN180LUCU0065065                                                                                                                              *          20170801WMF1708015.TXT
MDDUH8200469201708                D89831228400PT4U20170807000015RADIO;AM/FM,CD                M IMCTM S9CO001FTTL  07070IMCT  S9 CPB  00003                    0900 SR        000000000000 FUJITSU TEN (THAILAN180LUAU0019019                                                                                                                              *          20170801WMF1708015.TXT
MDDUH8200470201708                D89835097910PT4U20170807000015RADIO;ASM DVD                 M IMCTM S9TS01 FTTL  07070IMCT  S9 PTB  00003                    2230 SR        000000000000 FUJITSU TEN (THAILAN180LUCU0065065                                                                                                                              *          20170801WMF1708015.TXT
MDEDH8201090201708                D89828070100PV1D20170804000090SPEAKER ASM                   M IMCTM S5MB11 FTTL  07070IMCT  S5 PTB  00004                    2230 SR        000000000000 FUJITSU TEN (THAILAN17010RL000100217085ML0012012                                                                                                                *          20170801WMF1708015.TXT
MDEDH8201091201708                D89828070100PV1D20170805000030SPEAKER ASM                   M IMCTM S5MB11 FTTL  07070IMCT  S5 PTB  00004                    0230 SR        000000000000 FUJITSU TEN (THAILAN17051NL0001001                                                                                                                              *          20170801WMF1708015.TXT
MDEDH8201092201708                D89828070100PV1D20170805000060SPEAKER ASM                   M IMCTM S5MB11 FTTL  07070IMCT  S5 PTB  00004                    0400 SR        000000000000 FUJITSU TEN (THAILAN17010RL000300317051NL0002002                                                                                                                *          20170801WMF1708015.TXT
MDEDH8201093201708                D89828070100PV1D20170807000060SPEAKER ASM                   M IMCTM S5MB11 FTTL  07070IMCT  S5 PTB  00004                    0900 SR        000000000000 FUJITSU TEN (THAILAN17052TL0030031                                                                                                                              *          20170801WMF1708015.TXT
MDEDH8201094201708                D89828070100PV1D20170807000060SPEAKER ASM                   M IMCTM S5MB11 FTTL  07070IMCT  S5 PTB  00004                    1300 SR        000000000000 FUJITSU TEN (THAILAN17050ML002802817061NL0004004                                                                                                                *          20170801WMF1708015.TXT
MDEDH8201095201708                D89828070100PV4D20170807000030SPEAKER ASM                   M IMCTM S0FL05 FTTL  07070IMCT  S0 PTB  00004                    0900 SR        000000000000 FUJITSU TEN (THAILAN17072NU0003003                                                                                                                              *          20170801WMF1708015.TXT
MDEDH8201096201708                D89828070200PV1D20170804000030SPEAKER ASM                   M IMCTM S5MA14 FTTL  07070IMCT  S5 PTB  00005                    2230 SR        000000000000 FUJITSU TEN (THAILAN17085ML0012012                                                                                                                              *          20170801WMF1708015.TXT
MDEDH8201097201708                D89828070200PV1D20170807000030SPEAKER ASM                   M IMCTM S5MA14 FTTL  07070IMCT  S5 PTB  00005                    1300 SR        000000000000 FUJITSU TEN (THAILAN17061NL0004004                                                                                                                              *          20170801WMF1708015.TXT
MDEDH8201098201708                D89828070200PV4D20170807000030SPEAKER ASM                   M IMCTM S0FR05 FTTL  07070IMCT  S0 PTB  00005                    0900 SR        000000000000 FUJITSU TEN (THAILAN17072NU0003003                                                                                                                              *          20170801WMF1708015.TXT
MDEDH8201099201708                D89828070300PT1D20170804000030SPEAKER ASM                   M IMCTM S5NB082FTTL  07070IMCT  S5 PTB  00015                    2230 SR        000000000000 FUJITSU TEN (THAILAN17085ML0012012                                                                                                                              *          20170801WMF1708015.TXT
MDEDH8201100201708                D89828070300PT1D20170805000030SPEAKER ASM                   M IMCTM S5NB082FTTL  07070IMCT  S5 PTB  00015                    0230 SR        000000000000 FUJITSU TEN (THAILAN17051NL0001001                                                                                                                              *          20170801WMF1708015.TXT
MDEDH8201101201708                D89828070300PT1D20170805000030SPEAKER ASM                   M IMCTM S5NB082FTTL  07070IMCT  S5 PTB  00015                    0400 SR        000000000000 FUJITSU TEN (THAILAN17051NL0002002                                                                                                                              *          20170801WMF1708015.TXT
MDEDH8201102201708                D89828070300PT1D20170807000030SPEAKER ASM                   M IMCTM S5NB082FTTL  07070IMCT  S5 PTB  00015                    1300 SR        000000000000 FUJITSU TEN (THAILAN17061NL0004004                                                                                                                              *          20170801WMF1708015.TXT
MDEDH8201103201708                D89828070300PT4D20170807000030SPEAKER ASM                   M IMCTM S9TS02 FTTL  07070IMCT  S9 PTB  00015                    0900 SR        000000000000 FUJITSU TEN (THAILAN17072NU0003003                                                                                                                              *          20170801WMF1708015.TXT
MDEDH8201104201708                D89848581800PT4D20170807000015RADIO;AM/FM CD D              M IMCTM S9CO001FTTL  07070IMCT  S9 PTB  00003                    0900 SR        000000000000 FUJITSU TEN (THAILAN17072NU0003003                                                                                                                              *          20170801WMF1708015.TXT
MDEUH8200559201708                D89828070100PT4U20170804000060SPEAKER ASM                   M IMCTM S0FL05 FTTL  07070IMCT  S0 PTB  00004                    2230 SR        000000000000 FUJITSU TEN (THAILAN170C12U007407418022TU0063063                                                                                                                *          20170801WMF1708015.TXT
MDEUH8200560201708                D89828070100PT4U20170805000030SPEAKER ASM                   M IMCTM S0FL05 FTTL  07070IMCT  S0 PTB  00004                    0230 SR        000000000000 FUJITSU TEN (THAILAN18023TU0127127                                                                                                                              *          20170801WMF1708015.TXT
MDEUH8200561201708                D89828070100PT4U20170805000030SPEAKER ASM                   M IMCTM S0FL05 FTTL  07070IMCT  S0 PTB  00004                    0400 SR        000000000000 FUJITSU TEN (THAILAN18022TU0064064                                                                                                                              *          20170801WMF1708015.TXT
MDEUH8200562201708                D89828070100PT4U20170807000030SPEAKER ASM                   M IMCTM S0FL05 FTTL  07070IMCT  S0 PTB  00004                    1300 SR        000000000000 FUJITSU TEN (THAILAN18083SU0003003                                                                                                                              *          20170801WMF1708015.TXT
MDEUH8200563201708                D89828070200PV4U20170804000060SPEAKER ASM                   M IMCTM S0FR05 FTTL  07070IMCT  S0 PTB  00005                    2230 SR        000000000000 FUJITSU TEN (THAILAN170C12U007407418022TU0063063                                                                                                                *          20170801WMF1708015.TXT
MDEUH8200564201708                D89828070200PV4U20170805000030SPEAKER ASM                   M IMCTM S0FR05 FTTL  07070IMCT  S0 PTB  00005                    0230 SR        000000000000 FUJITSU TEN (THAILAN18023TU0127127                                                                                                                              *          20170801WMF1708015.TXT
MDEUH8200565201708                D89828070200PV4U20170805000030SPEAKER ASM                   M IMCTM S0FR05 FTTL  07070IMCT  S0 PTB  00005                    0400 SR        000000000000 FUJITSU TEN (THAILAN18022TU0064064                                                                                                                              *          20170801WMF1708015.TXT
MDEUH8200566201708                D89828070200PV4U20170807000030SPEAKER ASM                   M IMCTM S0FR05 FTTL  07070IMCT  S0 PTB  00005                    1300 SR        000000000000 FUJITSU TEN (THAILAN18083SU0003003                                                                                                                              *          20170801WMF1708015.TXT
MDEUH8200567201708                D89828070300PT4U20170804000060SPEAKER ASM                   M IMCTM S9TS02 FTTL  07070IMCT  S9 PTB  00015                    2230 SR        000000000000 FUJITSU TEN (THAILAN170C12U007407418022TU0063063                                                                                                                *          20170801WMF1708015.TXT
MDEUH8200568201708                D89828070300PT4U20170805000030SPEAKER ASM                   M IMCTM S9TS02 FTTL  07070IMCT  S9 PTB  00015                    0230 SR        000000000000 FUJITSU TEN (THAILAN18023TU0127127                                                                                                                              *          20170801WMF1708015.TXT
MDEUH8200569201708                D89828070300PT4U20170805000030SPEAKER ASM                   M IMCTM S9TS02 FTTL  07070IMCT  S9 PTB  00015                    0400 SR        000000000000 FUJITSU TEN (THAILAN18022TU0064064                                                                                                                              *          20170801WMF1708015.TXT
MDEUH8200570201708                D89828070300PT4U20170807000030SPEAKER ASM                   M IMCTM S9TS02 FTTL  07070IMCT  S9 PTB  00015                    1300 SR        000000000000 FUJITSU TEN (THAILAN18083SU0003003                                                                                                                              *          20170801WMF1708015.TXT
