REC2017081520170815ISUZU                              71     
MDDDH8243929201708                D89821984430PT1D20170818000030RADIO;AM/FM,CD                M IMCTM S5NC06 FTTL  07070IMCT  S5 PTB  00005                    2230 SR        000000000000 FUJITSU TEN (THAILAN170KRAL0142142                                                                                                                              *          20170815WMF1708153.TXT
MDDDH8243930201708                D89821984430PT1D20170819000030RADIO;AM/FM,CD                M IMCTM S5NC06 FTTL  07070IMCT  S5 PTB  00005                    0400 SR        000000000000 FUJITSU TEN (THAILAN170KPAL0162162                                                                                                                              *          20170815WMF1708153.TXT
MDDDH8243931201708                D89821984430PT1D20170819000060RADIO;AM/FM,CD                M IMCTM S5NC06 FTTL  07070IMCT  S5 PTB  00005                    0900 SR        000000000000 FUJITSU TEN (THAILAN170KPAL0163164                                                                                                                              *          20170815WMF1708153.TXT
MDDDH8243932201708                D89821984430PT1D20170819000030RADIO;AM/FM,CD                M IMCTM S5NC06 FTTL  07070IMCT  S5 PTB  00005                    1300 SR        000000000000 FUJITSU TEN (THAILAN170KPAL0165165                                                                                                                              *          20170815WMF1708153.TXT
MDDDH8243933201708                D89821984430PT1D20170819000030RADIO;AM/FM,CD                M IMCTM S5NC06 FTTL  07070IMCT  S5 PTB  00005                    2100 SR        000000000000 FUJITSU TEN (THAILAN170KRAL0143143                                                                                                                              *          20170815WMF1708153.TXT
MDDDH8243934201708                D89825217910PT1D20170819000030RADIO;AM/FM,CD,D              M IMCTM S5NC06 FTTL  07070IMCT  S5 PTB  00003                    0400 SR        000000000000 FUJITSU TEN (THAILAN170KPJL0057057                                                                                                                              *          20170815WMF1708153.TXT
MDDDH8243935201708                D89828070100PV1D20170818000060SPEAKER ASM                   M IMCTM S5MB11 FTTL  07070IMCT  S5 PTB  00004                    2230 SR        000000000000 FUJITSU TEN (THAILAN170KRAL0142142                                                                                                                              *          20170815WMF1708153.TXT
MDDDH8243936201708                D89828070100PV1D20170819000120SPEAKER ASM                   M IMCTM S5MB11 FTTL  07070IMCT  S5 PTB  00004                    0400 SR        000000000000 FUJITSU TEN (THAILAN170KPAL0162162170KPJL0057057                                                                                                                *          20170815WMF1708153.TXT
MDDDH8243937201708                D89828070100PV1D20170819000120SPEAKER ASM                   M IMCTM S5MB11 FTTL  07070IMCT  S5 PTB  00004                    0900 SR        000000000000 FUJITSU TEN (THAILAN170KPAL0163164                                                                                                                              *          20170815WMF1708153.TXT
MDDDH8243938201708                D89828070100PV1D20170819000060SPEAKER ASM                   M IMCTM S5MB11 FTTL  07070IMCT  S5 PTB  00004                    1300 SR        000000000000 FUJITSU TEN (THAILAN170KPAL0165165                                                                                                                              *          20170815WMF1708153.TXT
MDDDH8243939201708                D89828070100PV1D20170819000060SPEAKER ASM                   M IMCTM S5MB11 FTTL  07070IMCT  S5 PTB  00004                    2100 SR        000000000000 FUJITSU TEN (THAILAN170KRAL0143143                                                                                                                              *          20170815WMF1708153.TXT
MDDDH8243940201708                D89828070300PT1D20170819000060SPEAKER ASM                   M IMCTM S5NB082FTTL  07070IMCT  S5 PTB  00015                    0400 SR        000000000000 FUJITSU TEN (THAILAN170KPJL0057057                                                                                                                              *          20170815WMF1708153.TXT
MDDUH8230657201708                D89828070100PT4U20170819000030SPEAKER ASM                   M IMCTM S0FL05 FTTL  07070IMCT  S0 PTB  00004                    0230 SR        000000000000 FUJITSU TEN (THAILAN180LUAU0031031                                                                                                                              *          20170815WMF1708153.TXT
MDDUH8230658201708                D89828070100PT4U20170819000030SPEAKER ASM                   M IMCTM S0FL05 FTTL  07070IMCT  S0 PTB  00004                    0900 SR        000000000000 FUJITSU TEN (THAILAN180LUEU0145145                                                                                                                              *          20170815WMF1708153.TXT
MDDUH8230659201708                D89828070100PT4U20170819000030SPEAKER ASM                   M IMCTM S0FL05 FTTL  07070IMCT  S0 PTB  00004                    2100 SR        000000000000 FUJITSU TEN (THAILAN180LUAU0032032                                                                                                                              *          20170815WMF1708153.TXT
MDDUH8230660201708                D89828070200PV4U20170819000030SPEAKER ASM                   M IMCTM S0FR05 FTTL  07070IMCT  S0 PTB  00005                    0230 SR        000000000000 FUJITSU TEN (THAILAN180LUAU0031031                                                                                                                              *          20170815WMF1708153.TXT
MDDUH8230661201708                D89828070200PV4U20170819000030SPEAKER ASM                   M IMCTM S0FR05 FTTL  07070IMCT  S0 PTB  00005                    0900 SR        000000000000 FUJITSU TEN (THAILAN180LUEU0145145                                                                                                                              *          20170815WMF1708153.TXT
MDDUH8230662201708                D89828070200PV4U20170819000030SPEAKER ASM                   M IMCTM S0FR05 FTTL  07070IMCT  S0 PTB  00005                    2100 SR        000000000000 FUJITSU TEN (THAILAN180LUAU0032032                                                                                                                              *          20170815WMF1708153.TXT
MDDUH8230663201708                D89828070300PT4U20170819000030SPEAKER ASM                   M IMCTM S9TS02 FTTL  07070IMCT  S9 PTB  00015                    0230 SR        000000000000 FUJITSU TEN (THAILAN180LUAU0031031                                                                                                                              *          20170815WMF1708153.TXT
MDDUH8230664201708                D89828070300PT4U20170819000030SPEAKER ASM                   M IMCTM S9TS02 FTTL  07070IMCT  S9 PTB  00015                    0900 SR        000000000000 FUJITSU TEN (THAILAN180LUEU0145145                                                                                                                              *          20170815WMF1708153.TXT
MDDUH8230665201708                D89828070300PT4U20170819000030SPEAKER ASM                   M IMCTM S9TS02 FTTL  07070IMCT  S9 PTB  00015                    2100 SR        000000000000 FUJITSU TEN (THAILAN180LUAU0032032                                                                                                                              *          20170815WMF1708153.TXT
MDDUH8230666201708                D89831228400PT4U20170819000015RADIO;AM/FM,CD                M IMCTM S9CO001FTTL  07070IMCT  S9 CPB  00003                    0230 SR        000000000000 FUJITSU TEN (THAILAN180LUAU0031031                                                                                                                              *          20170815WMF1708153.TXT
MDDUH8230667201708                D89831228400PT4U20170819000015RADIO;AM/FM,CD                M IMCTM S9CO001FTTL  07070IMCT  S9 CPB  00003                    2100 SR        000000000000 FUJITSU TEN (THAILAN180LUAU0032032                                                                                                                              *          20170815WMF1708153.TXT
MDEDH8263460201708                D89828070100PV1D20170818000030SPEAKER ASM                   M IMCTM S5MB11 FTTL  07070IMCT  S5 PTB  00004                    2230 SR        000000000000 FUJITSU TEN (THAILAN17058NL0029029                                                                                                                              *          20170815WMF1708153.TXT
MDEDH8263461201708                D89828070100PV1D20170819000090SPEAKER ASM                   M IMCTM S5MB11 FTTL  07070IMCT  S5 PTB  00004                    0230 SR        000000000000 FUJITSU TEN (THAILAN17008ML001301417058NL0030030                                                                                                                *          20170815WMF1708153.TXT
MDEDH8263462201708                D89828070100PV1D20170819000030SPEAKER ASM                   M IMCTM S5MB11 FTTL  07070IMCT  S5 PTB  00004                    0900 SR        000000000000 FUJITSU TEN (THAILAN17076ML0028028                                                                                                                              *          20170815WMF1708153.TXT
MDEDH8263463201708                D89828070100PV1D20170819000060SPEAKER ASM                   M IMCTM S5MB11 FTTL  07070IMCT  S5 PTB  00004                    1300 SR        000000000000 FUJITSU TEN (THAILAN17081NL0024025                                                                                                                              *          20170815WMF1708153.TXT
MDEDH8263464201708                D89828070100PV1D20170819000030SPEAKER ASM                   M IMCTM S5MB11 FTTL  07070IMCT  S5 PTB  00004                    1600 SR        000000000000 FUJITSU TEN (THAILAN17083ML0018018                                                                                                                              *          20170815WMF1708153.TXT
MDEDH8263465201708                D89828070100PV1D20170819000030SPEAKER ASM                   M IMCTM S5MB11 FTTL  07070IMCT  S5 PTB  00004                    2230 SR        000000000000 FUJITSU TEN (THAILAN17040ML0002002                                                                                                                              *          20170815WMF1708153.TXT
MDEDH8263466201708                D89828070100PV4D20170818000030SPEAKER ASM                   M IMCTM S0FL05 FTTL  07070IMCT  S0 PTB  00004                    2230 SR        000000000000 FUJITSU TEN (THAILAN17079NU0046046                                                                                                                              *          20170815WMF1708153.TXT
MDEDH8263467201708                D89828070100PV4D20170819000030SPEAKER ASM                   M IMCTM S0FL05 FTTL  07070IMCT  S0 PTB  00004                    0400 SR        000000000000 FUJITSU TEN (THAILAN17080NU0049049                                                                                                                              *          20170815WMF1708153.TXT
MDEDH8263468201708                D89828070100PV4D20170819000030SPEAKER ASM                   M IMCTM S0FL05 FTTL  07070IMCT  S0 PTB  00004                    0900 SR        000000000000 FUJITSU TEN (THAILAN17024NU0013013                                                                                                                              *          20170815WMF1708153.TXT
MDEDH8263469201708                D89828070100PV4D20170819000030SPEAKER ASM                   M IMCTM S0FL05 FTTL  07070IMCT  S0 PTB  00004                    1300 SR        000000000000 FUJITSU TEN (THAILAN17066NU0014014                                                                                                                              *          20170815WMF1708153.TXT
MDEDH8263470201708                D89828070100PV4D20170819000030SPEAKER ASM                   M IMCTM S0FL05 FTTL  07070IMCT  S0 PTB  00004                    2230 SR        000000000000 FUJITSU TEN (THAILAN17079NU0047047                                                                                                                              *          20170815WMF1708153.TXT
MDEDH8263471201708                D89828070200PV1D20170818000030SPEAKER ASM                   M IMCTM S5MA14 FTTL  07070IMCT  S5 PTB  00005                    2230 SR        000000000000 FUJITSU TEN (THAILAN17058NL0029029                                                                                                                              *          20170815WMF1708153.TXT
MDEDH8263472201708                D89828070200PV1D20170819000030SPEAKER ASM                   M IMCTM S5MA14 FTTL  07070IMCT  S5 PTB  00005                    0230 SR        000000000000 FUJITSU TEN (THAILAN17058NL0030030                                                                                                                              *          20170815WMF1708153.TXT
MDEDH8263473201708                D89828070200PV1D20170819000060SPEAKER ASM                   M IMCTM S5MA14 FTTL  07070IMCT  S5 PTB  00005                    1300 SR        000000000000 FUJITSU TEN (THAILAN17081NL0024025                                                                                                                              *          20170815WMF1708153.TXT
MDEDH8263474201708                D89828070200PV4D20170818000030SPEAKER ASM                   M IMCTM S0FR05 FTTL  07070IMCT  S0 PTB  00005                    2230 SR        000000000000 FUJITSU TEN (THAILAN17079NU0046046                                                                                                                              *          20170815WMF1708153.TXT
MDEDH8263475201708                D89828070200PV4D20170819000030SPEAKER ASM                   M IMCTM S0FR05 FTTL  07070IMCT  S0 PTB  00005                    0400 SR        000000000000 FUJITSU TEN (THAILAN17080NU0049049                                                                                                                              *          20170815WMF1708153.TXT
MDEDH8263476201708                D89828070200PV4D20170819000030SPEAKER ASM                   M IMCTM S0FR05 FTTL  07070IMCT  S0 PTB  00005                    0900 SR        000000000000 FUJITSU TEN (THAILAN17024NU0013013                                                                                                                              *          20170815WMF1708153.TXT
MDEDH8263477201708                D89828070200PV4D20170819000030SPEAKER ASM                   M IMCTM S0FR05 FTTL  07070IMCT  S0 PTB  00005                    2230 SR        000000000000 FUJITSU TEN (THAILAN17079NU0047047                                                                                                                              *          20170815WMF1708153.TXT
MDEDH8263478201708                D89828070300PT1D20170818000030SPEAKER ASM                   M IMCTM S5NB082FTTL  07070IMCT  S5 PTB  00015                    2230 SR        000000000000 FUJITSU TEN (THAILAN17058NL0029029                                                                                                                              *          20170815WMF1708153.TXT
MDEDH8263479201708                D89828070300PT1D20170819000090SPEAKER ASM                   M IMCTM S5NB082FTTL  07070IMCT  S5 PTB  00015                    0230 SR        000000000000 FUJITSU TEN (THAILAN17008ML001301417058NL0030030                                                                                                                *          20170815WMF1708153.TXT
MDEDH8263480201708                D89828070300PT1D20170819000060SPEAKER ASM                   M IMCTM S5NB082FTTL  07070IMCT  S5 PTB  00015                    1300 SR        000000000000 FUJITSU TEN (THAILAN17081NL0024025                                                                                                                              *          20170815WMF1708153.TXT
MDEDH8263481201708                D89828070300PT1D20170819000030SPEAKER ASM                   M IMCTM S5NB082FTTL  07070IMCT  S5 PTB  00015                    1600 SR        000000000000 FUJITSU TEN (THAILAN17083ML0018018                                                                                                                              *          20170815WMF1708153.TXT
MDEDH8263482201708                D89828070300PT4D20170818000030SPEAKER ASM                   M IMCTM S9TS02 FTTL  07070IMCT  S9 PTB  00015                    2230 SR        000000000000 FUJITSU TEN (THAILAN17079NU0046046                                                                                                                              *          20170815WMF1708153.TXT
MDEDH8263483201708                D89828070300PT4D20170819000030SPEAKER ASM                   M IMCTM S9TS02 FTTL  07070IMCT  S9 PTB  00015                    0400 SR        000000000000 FUJITSU TEN (THAILAN17080NU0049049                                                                                                                              *          20170815WMF1708153.TXT
MDEDH8263484201708                D89828070300PT4D20170819000030SPEAKER ASM                   M IMCTM S9TS02 FTTL  07070IMCT  S9 PTB  00015                    0900 SR        000000000000 FUJITSU TEN (THAILAN17024NU0013013                                                                                                                              *          20170815WMF1708153.TXT
MDEDH8263485201708                D89828070300PT4D20170819000030SPEAKER ASM                   M IMCTM S9TS02 FTTL  07070IMCT  S9 PTB  00015                    1300 SR        000000000000 FUJITSU TEN (THAILAN17066NU0014014                                                                                                                              *          20170815WMF1708153.TXT
MDEDH8263486201708                D89828070300PT4D20170819000030SPEAKER ASM                   M IMCTM S9TS02 FTTL  07070IMCT  S9 PTB  00015                    2230 SR        000000000000 FUJITSU TEN (THAILAN17079NU0047047                                                                                                                              *          20170815WMF1708153.TXT
MDEDH8263487201708                D89829622410PT1D20170819000030RADIO;ASM DVD                 M IMCTM S5NC06 FTTL  07070IMCT  S5 PTB  00003                    0230 SR        000000000000 FUJITSU TEN (THAILAN17008ML0013014                                                                                                                              *          20170815WMF1708153.TXT
MDEDH8263488201708                D89848581800PT1D20170818000015RADIO;AM/FM CD D              M IMCTM S5NC06 FTTL  07070IMCT  S5 PTB  00003                    2230 SR        000000000000 FUJITSU TEN (THAILAN17058NL0029029                                                                                                                              *          20170815WMF1708153.TXT
MDEDH8263489201708                D89848581800PT1D20170819000015RADIO;AM/FM CD D              M IMCTM S5NC06 FTTL  07070IMCT  S5 PTB  00003                    0230 SR        000000000000 FUJITSU TEN (THAILAN17058NL0030030                                                                                                                              *          20170815WMF1708153.TXT
MDEDH8263490201708                D89848581800PT4D20170818000015RADIO;AM/FM CD D              M IMCTM S9CO001FTTL  07070IMCT  S9 PTB  00003                    2230 SR        000000000000 FUJITSU TEN (THAILAN17079NU0046046                                                                                                                              *          20170815WMF1708153.TXT
MDEDH8263491201708                D89848581800PT4D20170819000015RADIO;AM/FM CD D              M IMCTM S9CO001FTTL  07070IMCT  S9 PTB  00003                    2230 SR        000000000000 FUJITSU TEN (THAILAN17079NU0047047                                                                                                                              *          20170815WMF1708153.TXT
MDEDH8263492201708                D89848582500PT4D20170819000015RADIO;AM/FM CD D              M IMCTM S9CO001FTTL  07070IMCT  S9 PTB  00003                    1300 SR        000000000000 FUJITSU TEN (THAILAN17066NU0014014                                                                                                                              *          20170815WMF1708153.TXT
MDEUH8234671201708                D89828070100PT4U20170818000030SPEAKER ASM                   M IMCTM S0FL05 FTTL  07070IMCT  S0 PTB  00004                    2230 SR        000000000000 FUJITSU TEN (THAILAN18023TU0141141                                                                                                                              *          20170815WMF1708153.TXT
MDEUH8234672201708                D89828070100PT4U20170819000030SPEAKER ASM                   M IMCTM S0FL05 FTTL  07070IMCT  S0 PTB  00004                    0400 SR        000000000000 FUJITSU TEN (THAILAN170C12U0081081                                                                                                                              *          20170815WMF1708153.TXT
MDEUH8234673201708                D89828070100PT4U20170819000030SPEAKER ASM                   M IMCTM S0FL05 FTTL  07070IMCT  S0 PTB  00004                    0900 SR        000000000000 FUJITSU TEN (THAILAN170C12U0082082                                                                                                                              *          20170815WMF1708153.TXT
MDEUH8234674201708                D89828070100PT4U20170819000030SPEAKER ASM                   M IMCTM S0FL05 FTTL  07070IMCT  S0 PTB  00004                    1300 SR        000000000000 FUJITSU TEN (THAILAN18023TU0142142                                                                                                                              *          20170815WMF1708153.TXT
MDEUH8234675201708                D89828070100PT4U20170819000060SPEAKER ASM                   M IMCTM S0FL05 FTTL  07070IMCT  S0 PTB  00004                    1600 SR        000000000000 FUJITSU TEN (THAILAN170C13U013413418023TU0143143                                                                                                                *          20170815WMF1708153.TXT
MDEUH8234676201708                D89828070200PV4U20170818000030SPEAKER ASM                   M IMCTM S0FR05 FTTL  07070IMCT  S0 PTB  00005                    2230 SR        000000000000 FUJITSU TEN (THAILAN18023TU0141141                                                                                                                              *          20170815WMF1708153.TXT
MDEUH8234677201708                D89828070200PV4U20170819000030SPEAKER ASM                   M IMCTM S0FR05 FTTL  07070IMCT  S0 PTB  00005                    0400 SR        000000000000 FUJITSU TEN (THAILAN170C12U0081081                                                                                                                              *          20170815WMF1708153.TXT
MDEUH8234678201708                D89828070200PV4U20170819000030SPEAKER ASM                   M IMCTM S0FR05 FTTL  07070IMCT  S0 PTB  00005                    0900 SR        000000000000 FUJITSU TEN (THAILAN170C12U0082082                                                                                                                              *          20170815WMF1708153.TXT
MDEUH8234679201708                D89828070200PV4U20170819000030SPEAKER ASM                   M IMCTM S0FR05 FTTL  07070IMCT  S0 PTB  00005                    1300 SR        000000000000 FUJITSU TEN (THAILAN18023TU0142142                                                                                                                              *          20170815WMF1708153.TXT
MDEUH8234680201708                D89828070200PV4U20170819000060SPEAKER ASM                   M IMCTM S0FR05 FTTL  07070IMCT  S0 PTB  00005                    1600 SR        000000000000 FUJITSU TEN (THAILAN170C13U013413418023TU0143143                                                                                                                *          20170815WMF1708153.TXT
MDEUH8234681201708                D89828070300PT4U20170818000030SPEAKER ASM                   M IMCTM S9TS02 FTTL  07070IMCT  S9 PTB  00015                    2230 SR        000000000000 FUJITSU TEN (THAILAN18023TU0141141                                                                                                                              *          20170815WMF1708153.TXT
MDEUH8234682201708                D89828070300PT4U20170819000030SPEAKER ASM                   M IMCTM S9TS02 FTTL  07070IMCT  S9 PTB  00015                    0400 SR        000000000000 FUJITSU TEN (THAILAN170C12U0081081                                                                                                                              *          20170815WMF1708153.TXT
MDEUH8234683201708                D89828070300PT4U20170819000030SPEAKER ASM                   M IMCTM S9TS02 FTTL  07070IMCT  S9 PTB  00015                    0900 SR        000000000000 FUJITSU TEN (THAILAN170C12U0082082                                                                                                                              *          20170815WMF1708153.TXT
MDEUH8234684201708                D89828070300PT4U20170819000030SPEAKER ASM                   M IMCTM S9TS02 FTTL  07070IMCT  S9 PTB  00015                    1300 SR        000000000000 FUJITSU TEN (THAILAN18023TU0142142                                                                                                                              *          20170815WMF1708153.TXT
MDEUH8234685201708                D89828070300PT4U20170819000060SPEAKER ASM                   M IMCTM S9TS02 FTTL  07070IMCT  S9 PTB  00015                    1600 SR        000000000000 FUJITSU TEN (THAILAN170C13U013413418023TU0143143                                                                                                                *          20170815WMF1708153.TXT
