REC2017082520170825ISUZU                              51     
MDDDH8281656201709                D89821984430PT1D20170831000030RADIO;AM/FM,CD                M IMCTM S5NC06 FTTL  07070IMCT  S5 PTB  00005                    2230 SR        000000000000 FUJITSU TEN (THAILAN170KNEL0163163                                                                                                                              *          20170825WMF1708254.TXT
MDDDH8281657201709                D89821984430PT1D20170901000030RADIO;AM/FM,CD                M IMCTM S5NC06 FTTL  07070IMCT  S5 PTB  00005                    1300 SR        000000000000 FUJITSU TEN (THAILAN170KNCL0107107                                                                                                                              *          20170825WMF1708254.TXT
MDDDH8281658201709                D89828070100PV1D20170831000060SPEAKER ASM                   M IMCTM S5MB11 FTTL  07070IMCT  S5 PTB  00004                    2230 SR        000000000000 FUJITSU TEN (THAILAN170KNEL0163163                                                                                                                              *          20170825WMF1708254.TXT
MDDDH8281659201709                D89828070100PV1D20170901000120SPEAKER ASM                   M IMCTM S5MB11 FTTL  07070IMCT  S5 PTB  00004                    0400 SR        000000000000 FUJITSU TEN (THAILAN170KNAL0081081170KRRL0029029                                                                                                                *          20170825WMF1708254.TXT
MDDDH8281660201709                D89828070100PV1D20170901000060SPEAKER ASM                   M IMCTM S5MB11 FTTL  07070IMCT  S5 PTB  00004                    0900 SR        000000000000 FUJITSU TEN (THAILAN170KNBL0038038                                                                                                                              *          20170825WMF1708254.TXT
MDDDH8281661201709                D89828070100PV1D20170901000180SPEAKER ASM                   M IMCTM S5MB11 FTTL  07070IMCT  S5 PTB  00004                    1300 SR        000000000000 FUJITSU TEN (THAILAN170KNCL0107107170KPCL0084084170KRSL0056056                                                                                                  *          20170825WMF1708254.TXT
MDDDH8281662201709                D89828070200PV1D20170901000060SPEAKER ASM                   M IMCTM S5MA14 FTTL  07070IMCT  S5 PTB  00005                    0400 SR        000000000000 FUJITSU TEN (THAILAN170KRRL0029029                                                                                                                              *          20170825WMF1708254.TXT
MDDDH8281663201709                D89828070200PV1D20170901000060SPEAKER ASM                   M IMCTM S5MA14 FTTL  07070IMCT  S5 PTB  00005                    1300 SR        000000000000 FUJITSU TEN (THAILAN170KRSL0056056                                                                                                                              *          20170825WMF1708254.TXT
MDDDH8281664201709                D89828070300PT1D20170901000060SPEAKER ASM                   M IMCTM S5NB082FTTL  07070IMCT  S5 PTB  00015                    0400 SR        000000000000 FUJITSU TEN (THAILAN170KRRL0029029                                                                                                                              *          20170825WMF1708254.TXT
MDDDH8281665201709                D89828070300PT1D20170901000120SPEAKER ASM                   M IMCTM S5NB082FTTL  07070IMCT  S5 PTB  00015                    1300 SR        000000000000 FUJITSU TEN (THAILAN170KPCL0084084170KRSL0056056                                                                                                                *          20170825WMF1708254.TXT
MDDDH8281666201709                D89831228300PT1D20170901000030RADIO;AM/FM,CD                M IMCTM S5NC06 FTTL  07070IMCT  S5 CPB  00003                    1300 SR        000000000000 FUJITSU TEN (THAILAN170KPCL0084084                                                                                                                              *          20170825WMF1708254.TXT
MDDUH8256306201709                D89828070100PT4U20170901000030SPEAKER ASM                   M IMCTM S0FL05 FTTL  07070IMCT  S0 PTB  00004                    0400 SR        000000000000 FUJITSU TEN (THAILAN180LUBU0017017                                                                                                                              *          20170825WMF1708254.TXT
MDDUH8256307201709                D89828070100PT4U20170901000030SPEAKER ASM                   M IMCTM S0FL05 FTTL  07070IMCT  S0 PTB  00004                    0900 SR        000000000000 FUJITSU TEN (THAILAN180LUCU0072072                                                                                                                              *          20170825WMF1708254.TXT
MDDUH8256308201709                D89828070200PV4U20170901000030SPEAKER ASM                   M IMCTM S0FR05 FTTL  07070IMCT  S0 PTB  00005                    0400 SR        000000000000 FUJITSU TEN (THAILAN180LUBU0017017                                                                                                                              *          20170825WMF1708254.TXT
MDDUH8256309201709                D89828070200PV4U20170901000030SPEAKER ASM                   M IMCTM S0FR05 FTTL  07070IMCT  S0 PTB  00005                    0900 SR        000000000000 FUJITSU TEN (THAILAN180LUCU0072072                                                                                                                              *          20170825WMF1708254.TXT
MDDUH8256310201709                D89828070300PT4U20170901000030SPEAKER ASM                   M IMCTM S9TS02 FTTL  07070IMCT  S9 PTB  00015                    0400 SR        000000000000 FUJITSU TEN (THAILAN180LUBU0017017                                                                                                                              *          20170825WMF1708254.TXT
MDDUH8256311201709                D89828070300PT4U20170901000030SPEAKER ASM                   M IMCTM S9TS02 FTTL  07070IMCT  S9 PTB  00015                    0900 SR        000000000000 FUJITSU TEN (THAILAN180LUCU0072072                                                                                                                              *          20170825WMF1708254.TXT
MDDUH8256312201709                D89835097910PT4U20170901000015RADIO;ASM DVD                 M IMCTM S9TS01 FTTL  07070IMCT  S9 PTB  00003                    0400 SR        000000000000 FUJITSU TEN (THAILAN180LUBU0017017                                                                                                                              *          20170825WMF1708254.TXT
MDDUH8256313201709                D89835097910PT4U20170901000015RADIO;ASM DVD                 M IMCTM S9TS01 FTTL  07070IMCT  S9 PTB  00003                    0900 SR        000000000000 FUJITSU TEN (THAILAN180LUCU0072072                                                                                                                              *          20170825WMF1708254.TXT
MDEDH8317288201709                D89828070100PV1D20170831000060SPEAKER ASM                   M IMCTM S5MB11 FTTL  07070IMCT  S5 PTB  00004                    2230 SR        000000000000 FUJITSU TEN (THAILAN17077PL000500517080NL0093093                                                                                                                *          20170825WMF1708254.TXT
MDEDH8317289201709                D89828070100PV1D20170901000060SPEAKER ASM                   M IMCTM S5MB11 FTTL  07070IMCT  S5 PTB  00004                    0230 SR        000000000000 FUJITSU TEN (THAILAN17031ML002702717077PL0006006                                                                                                                *          20170825WMF1708254.TXT
MDEDH8317290201709                D89828070100PV1D20170901000030SPEAKER ASM                   M IMCTM S5MB11 FTTL  07070IMCT  S5 PTB  00004                    0400 SR        000000000000 FUJITSU TEN (THAILAN17031ML0028028                                                                                                                              *          20170825WMF1708254.TXT
MDEDH8317291201709                D89828070100PV1D20170901000030SPEAKER ASM                   M IMCTM S5MB11 FTTL  07070IMCT  S5 PTB  00004                    1300 SR        000000000000 FUJITSU TEN (THAILAN17046QL0020020                                                                                                                              *          20170825WMF1708254.TXT
MDEDH8317292201709                D89828070100PV1D20170901000030SPEAKER ASM                   M IMCTM S5MB11 FTTL  07070IMCT  S5 PTB  00004                    2100 SR        000000000000 FUJITSU TEN (THAILAN17075PL0045045                                                                                                                              *          20170825WMF1708254.TXT
MDEDH8317293201709                D89828070100PV4D20170901000030SPEAKER ASM                   M IMCTM S0FL05 FTTL  07070IMCT  S0 PTB  00004                    1300 SR        000000000000 FUJITSU TEN (THAILAN17079NU0053053                                                                                                                              *          20170825WMF1708254.TXT
MDEDH8317294201709                D89828070200PV1D20170831000030SPEAKER ASM                   M IMCTM S5MA14 FTTL  07070IMCT  S5 PTB  00005                    2230 SR        000000000000 FUJITSU TEN (THAILAN17080NL0093093                                                                                                                              *          20170825WMF1708254.TXT
MDEDH8317295201709                D89828070200PV1D20170901000030SPEAKER ASM                   M IMCTM S5MA14 FTTL  07070IMCT  S5 PTB  00005                    0230 SR        000000000000 FUJITSU TEN (THAILAN17031ML0027027                                                                                                                              *          20170825WMF1708254.TXT
MDEDH8317296201709                D89828070200PV1D20170901000030SPEAKER ASM                   M IMCTM S5MA14 FTTL  07070IMCT  S5 PTB  00005                    0400 SR        000000000000 FUJITSU TEN (THAILAN17031ML0028028                                                                                                                              *          20170825WMF1708254.TXT
MDEDH8317297201709                D89828070200PV1D20170901000030SPEAKER ASM                   M IMCTM S5MA14 FTTL  07070IMCT  S5 PTB  00005                    1300 SR        000000000000 FUJITSU TEN (THAILAN17046QL0020020                                                                                                                              *          20170825WMF1708254.TXT
MDEDH8317298201709                D89828070200PV4D20170901000030SPEAKER ASM                   M IMCTM S0FR05 FTTL  07070IMCT  S0 PTB  00005                    1300 SR        000000000000 FUJITSU TEN (THAILAN17079NU0053053                                                                                                                              *          20170825WMF1708254.TXT
MDEDH8317299201709                D89828070300PT1D20170831000030SPEAKER ASM                   M IMCTM S5NB082FTTL  07070IMCT  S5 PTB  00015                    2230 SR        000000000000 FUJITSU TEN (THAILAN17080NL0093093                                                                                                                              *          20170825WMF1708254.TXT
MDEDH8317300201709                D89828070300PT1D20170901000030SPEAKER ASM                   M IMCTM S5NB082FTTL  07070IMCT  S5 PTB  00015                    0230 SR        000000000000 FUJITSU TEN (THAILAN17031ML0027027                                                                                                                              *          20170825WMF1708254.TXT
MDEDH8317301201709                D89828070300PT1D20170901000030SPEAKER ASM                   M IMCTM S5NB082FTTL  07070IMCT  S5 PTB  00015                    0400 SR        000000000000 FUJITSU TEN (THAILAN17031ML0028028                                                                                                                              *          20170825WMF1708254.TXT
MDEDH8317302201709                D89828070300PT1D20170901000030SPEAKER ASM                   M IMCTM S5NB082FTTL  07070IMCT  S5 PTB  00015                    1300 SR        000000000000 FUJITSU TEN (THAILAN17046QL0020020                                                                                                                              *          20170825WMF1708254.TXT
MDEDH8317303201709                D89828070300PT4D20170901000030SPEAKER ASM                   M IMCTM S9TS02 FTTL  07070IMCT  S9 PTB  00015                    1300 SR        000000000000 FUJITSU TEN (THAILAN17079NU0053053                                                                                                                              *          20170825WMF1708254.TXT
MDEDH8317304201709                D89848581800PT4D20170901000015RADIO;AM/FM CD D              M IMCTM S9CO001FTTL  07070IMCT  S9 PTB  00003                    1300 SR        000000000000 FUJITSU TEN (THAILAN17079NU0053053                                                                                                                              *          20170825WMF1708254.TXT
MDEUH8270148201709                D89828070100PT4U20170831000030SPEAKER ASM                   M IMCTM S0FL05 FTTL  07070IMCT  S0 PTB  00004                    2230 SR        000000000000 FUJITSU TEN (THAILAN18018TU0045045                                                                                                                              *          20170825WMF1708254.TXT
MDEUH8270149201709                D89828070100PT4U20170901000030SPEAKER ASM                   M IMCTM S0FL05 FTTL  07070IMCT  S0 PTB  00004                    0230 SR        000000000000 FUJITSU TEN (THAILAN18023TU0156156                                                                                                                              *          20170825WMF1708254.TXT
MDEUH8270150201709                D89828070100PT4U20170901000030SPEAKER ASM                   M IMCTM S0FL05 FTTL  07070IMCT  S0 PTB  00004                    0400 SR        000000000000 FUJITSU TEN (THAILAN18018TU0046046                                                                                                                              *          20170825WMF1708254.TXT
MDEUH8270151201709                D89828070100PT4U20170901000060SPEAKER ASM                   M IMCTM S0FL05 FTTL  07070IMCT  S0 PTB  00004                    1300 SR        000000000000 FUJITSU TEN (THAILAN18017TU003403418023TU0157157                                                                                                                *          20170825WMF1708254.TXT
MDEUH8270152201709                D89828070100PT4U20170901000030SPEAKER ASM                   M IMCTM S0FL05 FTTL  07070IMCT  S0 PTB  00004                    2100 SR        000000000000 FUJITSU TEN (THAILAN18023TU0158158                                                                                                                              *          20170825WMF1708254.TXT
MDEUH8270153201709                D89828070200PV4U20170831000030SPEAKER ASM                   M IMCTM S0FR05 FTTL  07070IMCT  S0 PTB  00005                    2230 SR        000000000000 FUJITSU TEN (THAILAN18018TU0045045                                                                                                                              *          20170825WMF1708254.TXT
MDEUH8270154201709                D89828070200PV4U20170901000030SPEAKER ASM                   M IMCTM S0FR05 FTTL  07070IMCT  S0 PTB  00005                    0230 SR        000000000000 FUJITSU TEN (THAILAN18023TU0156156                                                                                                                              *          20170825WMF1708254.TXT
MDEUH8270155201709                D89828070200PV4U20170901000030SPEAKER ASM                   M IMCTM S0FR05 FTTL  07070IMCT  S0 PTB  00005                    0400 SR        000000000000 FUJITSU TEN (THAILAN18018TU0046046                                                                                                                              *          20170825WMF1708254.TXT
MDEUH8270156201709                D89828070200PV4U20170901000060SPEAKER ASM                   M IMCTM S0FR05 FTTL  07070IMCT  S0 PTB  00005                    1300 SR        000000000000 FUJITSU TEN (THAILAN18017TU003403418023TU0157157                                                                                                                *          20170825WMF1708254.TXT
MDEUH8270157201709                D89828070200PV4U20170901000030SPEAKER ASM                   M IMCTM S0FR05 FTTL  07070IMCT  S0 PTB  00005                    2100 SR        000000000000 FUJITSU TEN (THAILAN18023TU0158158                                                                                                                              *          20170825WMF1708254.TXT
MDEUH8270158201709                D89828070300PT4U20170831000030SPEAKER ASM                   M IMCTM S9TS02 FTTL  07070IMCT  S9 PTB  00015                    2230 SR        000000000000 FUJITSU TEN (THAILAN18018TU0045045                                                                                                                              *          20170825WMF1708254.TXT
MDEUH8270159201709                D89828070300PT4U20170901000030SPEAKER ASM                   M IMCTM S9TS02 FTTL  07070IMCT  S9 PTB  00015                    0230 SR        000000000000 FUJITSU TEN (THAILAN18023TU0156156                                                                                                                              *          20170825WMF1708254.TXT
MDEUH8270160201709                D89828070300PT4U20170901000030SPEAKER ASM                   M IMCTM S9TS02 FTTL  07070IMCT  S9 PTB  00015                    0400 SR        000000000000 FUJITSU TEN (THAILAN18018TU0046046                                                                                                                              *          20170825WMF1708254.TXT
MDEUH8270161201709                D89828070300PT4U20170901000060SPEAKER ASM                   M IMCTM S9TS02 FTTL  07070IMCT  S9 PTB  00015                    1300 SR        000000000000 FUJITSU TEN (THAILAN18017TU003403418023TU0157157                                                                                                                *          20170825WMF1708254.TXT
MDEUH8270162201709                D89828070300PT4U20170901000030SPEAKER ASM                   M IMCTM S9TS02 FTTL  07070IMCT  S9 PTB  00015                    2100 SR        000000000000 FUJITSU TEN (THAILAN18023TU0158158                                                                                                                              *          20170825WMF1708254.TXT
