REC2017073120170731ISUZU                              14     
MDEBH7T03420201708                D89828070100PT4B20170804000030SPEAKER ASM                   M IMCTM S7FL05 FTTL  07070IMCT  S7 PTB  00004                    0900 SR        000000000000 FUJITSU TEN (THAILAN170C34R0021   170C38R0010   Y170801401    Y170801415    000000                                                                              *R         20170731RDF1707313.TXT
MDEBH7T03421201708                D89828070200PV4B20170804000030SPEAKER ASM                   M IMCTM S7TS02 FTTL  07070IMCT  S7 PTB  00005                    0900 SR        000000000000 FUJITSU TEN (THAILAN170C34R0021   170C38R0010   Y170801401    Y170801415    000000                                                                              *R         20170731RDF1707313.TXT
MDEBH7T03422201708                D89828070300PT4B20170804000030SPEAKER ASM                   M IMCTM S7TS02 FTTL  07070IMCT  S7 PTB  00015                    0900 SR        000000000000 FUJITSU TEN (THAILAN170C34R0021   170C38R0010   Y170801401    Y170801415    000000                                                                              *R         20170731RDF1707313.TXT
MDEBH7T03423201708                D89829100110PT4B20170804000001RADIO;ASM DVD                 M IMCTM S7TS03 FTTL  07070IMCT  S7 PTB  00003                    0900 SR        000000000000 FUJITSU TEN (THAILAN170C40R0020   170C40R0020   Y170801402    Y170801402    000000                                                                              *R         20170731RDF1707313.TXT
MDEFH7T27299201708                D89828070100PV4F20170804000022SPEAKER ASM                   M IMCTM S7FL05 FTTL  07070IMCT  S7 PTB  00004                    1600 SR        000000000000 FUJITSU TEN (THAILAN17040NR0019   17063QR0019   R170801505    R170801515    000000                                                                              *R         20170731RDF1707313.TXT
MDEFH7T27300201708                D89828070200PV4F20170804000013SPEAKER ASM                   M IMCTM S7TS02 FTTL  07070IMCT  S7 PTB  00005                    0230 SR        000000000000 FUJITSU TEN (THAILAN17015PR0058   17017RR0004   D170801303    D170801315    000000                                                                              *R         20170731RDF1707313.TXT
MDEFH7T27301201708                D89828070300PT4F20170804000013SPEAKER ASM                   M IMCTM S7TS02 FTTL  07070IMCT  S7 PTB  00015                    0230 SR        000000000000 FUJITSU TEN (THAILAN17083MR0047   17017RR0004   D170801309    D170801315    000000                                                                              *R         20170731RDF1707313.TXT
MDEFH7T27302201708                D89829645310PT4F20170804000003RADIO;ASM DVD                 M IMCTM S7TS03 FTTL  07070IMCT  S7 PTB  00003                    0230 SR        000000000000 FUJITSU TEN (THAILAN17015PR0057   17032PR0058   D170801302    D170801307    000000                                                                              *R         20170731RDF1707313.TXT
MDEFH7T27303201708                D89831229000PT4F20170804000004RADIO;AM/FM,CD                M IMCTM S7TS03 FTTL  07070IMCT  S7 PTB  00003                    0230 SR        000000000000 FUJITSU TEN (THAILAN17040RR0031   17017RR0004   D170801304    D170801315    000000                                                                              *R         20170731RDF1707313.TXT
MDEFH7273313201708                D89828070100PV4F20170803000032SPEAKER ASM                   M IMCTM S7FL05 FTTL  07070IMCT  S7 PTB  00004                    2100 SR        000000000000 FUJITSU TEN (THAILAN16046KR0053   17075PR0049   D170801301    H170801215    000000                                                                              *R         20170731RDF1707313.TXT
MDEFH7273314201708                D89828070100PV4F20170804000028SPEAKER ASM                   M IMCTM S7FL05 FTTL  07070IMCT  S7 PTB  00004                    0230 SR        000000000000 FUJITSU TEN (THAILAN17015PR0057   17017RR0004   D170801302    D170801315    000000                                                                              *R         20170731RDF1707313.TXT
MDEFH7273315201708                D89828070100PV4F20170804000008SPEAKER ASM                   M IMCTM S7FL05 FTTL  07070IMCT  S7 PTB  00004                    1300 SR        000000000000 FUJITSU TEN (THAILAN17034MR0039   17040NR0018   R170801501    R170801504    000000                                                                              *R         20170731RDF1707313.TXT
MDEFH7273316201708                D89828070200PV4F20170803000005SPEAKER ASM                   M IMCTM S7TS02 FTTL  07070IMCT  S7 PTB  00005                    2230 SR        000000000000 FUJITSU TEN (THAILAN16046KR0053   17015PR0058   D170801301    D170801303    000000                                                                              *R         20170731RDF1707313.TXT
MDEFH7273317201708                D89828070300PT4F20170803000015SPEAKER ASM                   M IMCTM S7TS02 FTTL  07070IMCT  S7 PTB  00015                    2230 SR        000000000000 FUJITSU TEN (THAILAN16046KR0053   17083MR0047   D170801301    D170801309    000000                                                                              *R         20170731RDF1707313.TXT
