REC2017081420170814ISUZU                              58     
MDDDH8240036201708                D89821984430PT1D20170817000030RADIO;AM/FM,CD                M IMCTM S5NC06 FTTL  07070IMCT  S5 PTB  00005                    2230 SR        000000000000 FUJITSU TEN (THAILAN170KRAL0139139                                                                                                                              *          20170814WMF1708145.TXT
MDDDH8240037201708                D89821984430PT1D20170818000030RADIO;AM/FM,CD                M IMCTM S5NC06 FTTL  07070IMCT  S5 PTB  00005                    0400 SR        000000000000 FUJITSU TEN (THAILAN170KPAL0161161                                                                                                                              *          20170814WMF1708145.TXT
MDDDH8240038201708                D89821984430PT1D20170818000060RADIO;AM/FM,CD                M IMCTM S5NC06 FTTL  07070IMCT  S5 PTB  00005                    0900 SR        000000000000 FUJITSU TEN (THAILAN170KRAL0140141                                                                                                                              *          20170814WMF1708145.TXT
MDDDH8240039201708                D89825217910PT1D20170818000030RADIO;AM/FM,CD,D              M IMCTM S5NC06 FTTL  07070IMCT  S5 PTB  00003                    2100 SR        000000000000 FUJITSU TEN (THAILAN170KPJL0056056                                                                                                                              *          20170814WMF1708145.TXT
MDDDH8240040201708                D89828070100PV1D20170817000060SPEAKER ASM                   M IMCTM S5MB11 FTTL  07070IMCT  S5 PTB  00004                    2230 SR        000000000000 FUJITSU TEN (THAILAN170KRAL0139139                                                                                                                              *          20170814WMF1708145.TXT
MDDDH8240041201708                D89828070100PV1D20170818000060SPEAKER ASM                   M IMCTM S5MB11 FTTL  07070IMCT  S5 PTB  00004                    0400 SR        000000000000 FUJITSU TEN (THAILAN170KPAL0161161                                                                                                                              *          20170814WMF1708145.TXT
MDDDH8240042201708                D89828070100PV1D20170818000120SPEAKER ASM                   M IMCTM S5MB11 FTTL  07070IMCT  S5 PTB  00004                    0900 SR        000000000000 FUJITSU TEN (THAILAN170KRAL0140141                                                                                                                              *          20170814WMF1708145.TXT
MDDDH8240043201708                D89828070100PV1D20170818000060SPEAKER ASM                   M IMCTM S5MB11 FTTL  07070IMCT  S5 PTB  00004                    1300 SR        000000000000 FUJITSU TEN (THAILAN170KPFL0201201                                                                                                                              *          20170814WMF1708145.TXT
MDDDH8240044201708                D89828070100PV1D20170818000060SPEAKER ASM                   M IMCTM S5MB11 FTTL  07070IMCT  S5 PTB  00004                    1600 SR        000000000000 FUJITSU TEN (THAILAN170KNAL0079079                                                                                                                              *          20170814WMF1708145.TXT
MDDDH8240045201708                D89828070100PV1D20170818000060SPEAKER ASM                   M IMCTM S5MB11 FTTL  07070IMCT  S5 PTB  00004                    2100 SR        000000000000 FUJITSU TEN (THAILAN170KPJL0056056                                                                                                                              *          20170814WMF1708145.TXT
MDDDH8240046201708                D89828070300PT1D20170818000060SPEAKER ASM                   M IMCTM S5NB082FTTL  07070IMCT  S5 PTB  00015                    1300 SR        000000000000 FUJITSU TEN (THAILAN170KPFL0201201                                                                                                                              *          20170814WMF1708145.TXT
MDDDH8240047201708                D89828070300PT1D20170818000060SPEAKER ASM                   M IMCTM S5NB082FTTL  07070IMCT  S5 PTB  00015                    2100 SR        000000000000 FUJITSU TEN (THAILAN170KPJL0056056                                                                                                                              *          20170814WMF1708145.TXT
MDDDH8240048201708                D89831228300PT1D20170818000030RADIO;AM/FM,CD                M IMCTM S5NC06 FTTL  07070IMCT  S5 CPB  00003                    1300 SR        000000000000 FUJITSU TEN (THAILAN170KPFL0201201                                                                                                                              *          20170814WMF1708145.TXT
MDDUH8227848201708                D89828070100PT4U20170817000030SPEAKER ASM                   M IMCTM S0FL05 FTTL  07070IMCT  S0 PTB  00004                    2230 SR        000000000000 FUJITSU TEN (THAILAN180LUDU0232232                                                                                                                              *          20170814WMF1708145.TXT
MDDUH8227849201708                D89828070100PT4U20170818000060SPEAKER ASM                   M IMCTM S0FL05 FTTL  07070IMCT  S0 PTB  00004                    1300 SR        000000000000 FUJITSU TEN (THAILAN180LUDU0233233180LUEU0144144                                                                                                                *          20170814WMF1708145.TXT
MDDUH8227850201708                D89828070100PT4U20170818000030SPEAKER ASM                   M IMCTM S0FL05 FTTL  07070IMCT  S0 PTB  00004                    2100 SR        000000000000 FUJITSU TEN (THAILAN180LUCU0069069                                                                                                                              *          20170814WMF1708145.TXT
MDDUH8227851201708                D89828070200PV4U20170817000030SPEAKER ASM                   M IMCTM S0FR05 FTTL  07070IMCT  S0 PTB  00005                    2230 SR        000000000000 FUJITSU TEN (THAILAN180LUDU0232232                                                                                                                              *          20170814WMF1708145.TXT
MDDUH8227852201708                D89828070200PV4U20170818000060SPEAKER ASM                   M IMCTM S0FR05 FTTL  07070IMCT  S0 PTB  00005                    1300 SR        000000000000 FUJITSU TEN (THAILAN180LUDU0233233180LUEU0144144                                                                                                                *          20170814WMF1708145.TXT
MDDUH8227853201708                D89828070200PV4U20170818000030SPEAKER ASM                   M IMCTM S0FR05 FTTL  07070IMCT  S0 PTB  00005                    2100 SR        000000000000 FUJITSU TEN (THAILAN180LUCU0069069                                                                                                                              *          20170814WMF1708145.TXT
MDDUH8227854201708                D89828070300PT4U20170817000030SPEAKER ASM                   M IMCTM S9TS02 FTTL  07070IMCT  S9 PTB  00015                    2230 SR        000000000000 FUJITSU TEN (THAILAN180LUDU0232232                                                                                                                              *          20170814WMF1708145.TXT
MDDUH8227855201708                D89828070300PT4U20170818000060SPEAKER ASM                   M IMCTM S9TS02 FTTL  07070IMCT  S9 PTB  00015                    1300 SR        000000000000 FUJITSU TEN (THAILAN180LUDU0233233180LUEU0144144                                                                                                                *          20170814WMF1708145.TXT
MDDUH8227856201708                D89828070300PT4U20170818000030SPEAKER ASM                   M IMCTM S9TS02 FTTL  07070IMCT  S9 PTB  00015                    2100 SR        000000000000 FUJITSU TEN (THAILAN180LUCU0069069                                                                                                                              *          20170814WMF1708145.TXT
MDDUH8227857201708                D89835097910PT4U20170818000015RADIO;ASM DVD                 M IMCTM S9TS01 FTTL  07070IMCT  S9 PTB  00003                    2100 SR        000000000000 FUJITSU TEN (THAILAN180LUCU0069069                                                                                                                              *          20170814WMF1708145.TXT
MDEDH8257576201708                D89828070100PV1D20170817000030SPEAKER ASM                   M IMCTM S5MB11 FTTL  07070IMCT  S5 PTB  00004                    2230 SR        000000000000 FUJITSU TEN (THAILAN17010ML0033033                                                                                                                              *          20170814WMF1708145.TXT
MDEDH8257577201708                D89828070100PV1D20170818000060SPEAKER ASM                   M IMCTM S5MB11 FTTL  07070IMCT  S5 PTB  00004                    0230 SR        000000000000 FUJITSU TEN (THAILAN17056NL0033034                                                                                                                              *          20170814WMF1708145.TXT
MDEDH8257578201708                D89828070100PV1D20170818000060SPEAKER ASM                   M IMCTM S5MB11 FTTL  07070IMCT  S5 PTB  00004                    0400 SR        000000000000 FUJITSU TEN (THAILAN17004ML001301317016PL0009009                                                                                                                *          20170814WMF1708145.TXT
MDEDH8257579201708                D89828070100PV1D20170818000030SPEAKER ASM                   M IMCTM S5MB11 FTTL  07070IMCT  S5 PTB  00004                    0900 SR        000000000000 FUJITSU TEN (THAILAN17065NL0018018                                                                                                                              *          20170814WMF1708145.TXT
MDEDH8257580201708                D89828070100PV1D20170818000060SPEAKER ASM                   M IMCTM S5MB11 FTTL  07070IMCT  S5 PTB  00004                    1300 SR        000000000000 FUJITSU TEN (THAILAN17073NL0009010                                                                                                                              *          20170814WMF1708145.TXT
MDEDH8257581201708                D89828070100PV4D20170818000030SPEAKER ASM                   M IMCTM S0FL05 FTTL  07070IMCT  S0 PTB  00004                    0900 SR        000000000000 FUJITSU TEN (THAILAN17080NU0048048                                                                                                                              *          20170814WMF1708145.TXT
MDEDH8257582201708                D89828070100PV4D20170818000030SPEAKER ASM                   M IMCTM S0FL05 FTTL  07070IMCT  S0 PTB  00004                    1300 SR        000000000000 FUJITSU TEN (THAILAN17066NU0013013                                                                                                                              *          20170814WMF1708145.TXT
MDEDH8257583201708                D89828070200PV1D20170818000030SPEAKER ASM                   M IMCTM S5MA14 FTTL  07070IMCT  S5 PTB  00005                    0400 SR        000000000000 FUJITSU TEN (THAILAN17016PL0009009                                                                                                                              *          20170814WMF1708145.TXT
MDEDH8257584201708                D89828070200PV1D20170818000060SPEAKER ASM                   M IMCTM S5MA14 FTTL  07070IMCT  S5 PTB  00005                    1300 SR        000000000000 FUJITSU TEN (THAILAN17073NL0009010                                                                                                                              *          20170814WMF1708145.TXT
MDEDH8257585201708                D89828070200PV4D20170818000030SPEAKER ASM                   M IMCTM S0FR05 FTTL  07070IMCT  S0 PTB  00005                    0900 SR        000000000000 FUJITSU TEN (THAILAN17080NU0048048                                                                                                                              *          20170814WMF1708145.TXT
MDEDH8257586201708                D89828070300PT1D20170818000060SPEAKER ASM                   M IMCTM S5NB082FTTL  07070IMCT  S5 PTB  00015                    0230 SR        000000000000 FUJITSU TEN (THAILAN17056NL0033034                                                                                                                              *          20170814WMF1708145.TXT
MDEDH8257587201708                D89828070300PT1D20170818000030SPEAKER ASM                   M IMCTM S5NB082FTTL  07070IMCT  S5 PTB  00015                    0400 SR        000000000000 FUJITSU TEN (THAILAN17016PL0009009                                                                                                                              *          20170814WMF1708145.TXT
MDEDH8257588201708                D89828070300PT1D20170818000030SPEAKER ASM                   M IMCTM S5NB082FTTL  07070IMCT  S5 PTB  00015                    0900 SR        000000000000 FUJITSU TEN (THAILAN17065NL0018018                                                                                                                              *          20170814WMF1708145.TXT
MDEDH8257589201708                D89828070300PT1D20170818000060SPEAKER ASM                   M IMCTM S5NB082FTTL  07070IMCT  S5 PTB  00015                    1300 SR        000000000000 FUJITSU TEN (THAILAN17073NL0009010                                                                                                                              *          20170814WMF1708145.TXT
MDEDH8257590201708                D89828070300PT4D20170818000030SPEAKER ASM                   M IMCTM S9TS02 FTTL  07070IMCT  S9 PTB  00015                    0900 SR        000000000000 FUJITSU TEN (THAILAN17080NU0048048                                                                                                                              *          20170814WMF1708145.TXT
MDEDH8257591201708                D89828070300PT4D20170818000030SPEAKER ASM                   M IMCTM S9TS02 FTTL  07070IMCT  S9 PTB  00015                    1300 SR        000000000000 FUJITSU TEN (THAILAN17066NU0013013                                                                                                                              *          20170814WMF1708145.TXT
MDEDH8257592201708                D89848581800PT1D20170818000030RADIO;AM/FM CD D              M IMCTM S5NC06 FTTL  07070IMCT  S5 PTB  00003                    1300 SR        000000000000 FUJITSU TEN (THAILAN17073NL0009010                                                                                                                              *          20170814WMF1708145.TXT
MDEDH8257593201708                D89848582500PT1D20170818000030RADIO;AM/FM CD D              M IMCTM S5NC06 FTTL  07070IMCT  S5 PTB  00003                    0230 SR        000000000000 FUJITSU TEN (THAILAN17056NL0033034                                                                                                                              *          20170814WMF1708145.TXT
MDEDH8257594201708                D89848582500PT1D20170818000015RADIO;AM/FM CD D              M IMCTM S5NC06 FTTL  07070IMCT  S5 PTB  00003                    0900 SR        000000000000 FUJITSU TEN (THAILAN17065NL0018018                                                                                                                              *          20170814WMF1708145.TXT
MDEDH8257595201708                D89848582500PT4D20170818000015RADIO;AM/FM CD D              M IMCTM S9CO001FTTL  07070IMCT  S9 PTB  00003                    1300 SR        000000000000 FUJITSU TEN (THAILAN17066NU0013013                                                                                                                              *          20170814WMF1708145.TXT
MDEUH8231142201708                D89828070100PT4U20170817000030SPEAKER ASM                   M IMCTM S0FL05 FTTL  07070IMCT  S0 PTB  00004                    2230 SR        000000000000 FUJITSU TEN (THAILAN18023TU0139139                                                                                                                              *          20170814WMF1708145.TXT
MDEUH8231143201708                D89828070100PT4U20170818000030SPEAKER ASM                   M IMCTM S0FL05 FTTL  07070IMCT  S0 PTB  00004                    0230 SR        000000000000 FUJITSU TEN (THAILAN18017TU0032032                                                                                                                              *          20170814WMF1708145.TXT
MDEUH8231144201708                D89828070100PT4U20170818000030SPEAKER ASM                   M IMCTM S0FL05 FTTL  07070IMCT  S0 PTB  00004                    0400 SR        000000000000 FUJITSU TEN (THAILAN170C12U0080080                                                                                                                              *          20170814WMF1708145.TXT
MDEUH8231145201708                D89828070100PT4U20170818000030SPEAKER ASM                   M IMCTM S0FL05 FTTL  07070IMCT  S0 PTB  00004                    0900 SR        000000000000 FUJITSU TEN (THAILAN18018TU0037037                                                                                                                              *          20170814WMF1708145.TXT
MDEUH8231146201708                D89828070100PT4U20170818000030SPEAKER ASM                   M IMCTM S0FL05 FTTL  07070IMCT  S0 PTB  00004                    1600 SR        000000000000 FUJITSU TEN (THAILAN18023TU0140140                                                                                                                              *          20170814WMF1708145.TXT
MDEUH8231147201708                D89828070200PV4U20170817000030SPEAKER ASM                   M IMCTM S0FR05 FTTL  07070IMCT  S0 PTB  00005                    2230 SR        000000000000 FUJITSU TEN (THAILAN18023TU0139139                                                                                                                              *          20170814WMF1708145.TXT
MDEUH8231148201708                D89828070200PV4U20170818000030SPEAKER ASM                   M IMCTM S0FR05 FTTL  07070IMCT  S0 PTB  00005                    0230 SR        000000000000 FUJITSU TEN (THAILAN18017TU0032032                                                                                                                              *          20170814WMF1708145.TXT
MDEUH8231149201708                D89828070200PV4U20170818000030SPEAKER ASM                   M IMCTM S0FR05 FTTL  07070IMCT  S0 PTB  00005                    0400 SR        000000000000 FUJITSU TEN (THAILAN170C12U0080080                                                                                                                              *          20170814WMF1708145.TXT
MDEUH8231150201708                D89828070200PV4U20170818000030SPEAKER ASM                   M IMCTM S0FR05 FTTL  07070IMCT  S0 PTB  00005                    0900 SR        000000000000 FUJITSU TEN (THAILAN18018TU0037037                                                                                                                              *          20170814WMF1708145.TXT
MDEUH8231151201708                D89828070200PV4U20170818000030SPEAKER ASM                   M IMCTM S0FR05 FTTL  07070IMCT  S0 PTB  00005                    1600 SR        000000000000 FUJITSU TEN (THAILAN18023TU0140140                                                                                                                              *          20170814WMF1708145.TXT
MDEUH8231152201708                D89828070300PT4U20170817000030SPEAKER ASM                   M IMCTM S9TS02 FTTL  07070IMCT  S9 PTB  00015                    2230 SR        000000000000 FUJITSU TEN (THAILAN18023TU0139139                                                                                                                              *          20170814WMF1708145.TXT
MDEUH8231153201708                D89828070300PT4U20170818000030SPEAKER ASM                   M IMCTM S9TS02 FTTL  07070IMCT  S9 PTB  00015                    0230 SR        000000000000 FUJITSU TEN (THAILAN18017TU0032032                                                                                                                              *          20170814WMF1708145.TXT
MDEUH8231154201708                D89828070300PT4U20170818000030SPEAKER ASM                   M IMCTM S9TS02 FTTL  07070IMCT  S9 PTB  00015                    0400 SR        000000000000 FUJITSU TEN (THAILAN170C12U0080080                                                                                                                              *          20170814WMF1708145.TXT
MDEUH8231155201708                D89828070300PT4U20170818000030SPEAKER ASM                   M IMCTM S9TS02 FTTL  07070IMCT  S9 PTB  00015                    0900 SR        000000000000 FUJITSU TEN (THAILAN18018TU0037037                                                                                                                              *          20170814WMF1708145.TXT
MDEUH8231156201708                D89828070300PT4U20170818000030SPEAKER ASM                   M IMCTM S9TS02 FTTL  07070IMCT  S9 PTB  00015                    1600 SR        000000000000 FUJITSU TEN (THAILAN18023TU0140140                                                                                                                              *          20170814WMF1708145.TXT
