REC2017091520170915ISUZU                              66     
MDDDH9247198201709                D89821984430PT1D20170921000030RADIO;AM/FM,CD                M IMCTM S5NC06 FTTL  07070IMCT  S5 PTB  00005                    0400 SR        000000000000 FUJITSU TEN (THAILAN170KRAL0173173                                                                                                                              *          20170915WMF1709159.TXT
MDDDH9247199201709                D89828070100PV1D20170920000060SPEAKER ASM                   M IMCTM S5MB11 FTTL  07070IMCT  S5 PTB  00004                    2230 SR        000000000000 FUJITSU TEN (THAILAN170KRRL0030030                                                                                                                              *          20170915WMF1709159.TXT
MDDDH9247200201709                D89828070100PV1D20170921000060SPEAKER ASM                   M IMCTM S5MB11 FTTL  07070IMCT  S5 PTB  00004                    0230 SR        000000000000 FUJITSU TEN (THAILAN170KPFL0224224                                                                                                                              *          20170915WMF1709159.TXT
MDDDH9247201201709                D89828070100PV1D20170921000060SPEAKER ASM                   M IMCTM S5MB11 FTTL  07070IMCT  S5 PTB  00004                    0400 SR        000000000000 FUJITSU TEN (THAILAN170KRAL0173173                                                                                                                              *          20170915WMF1709159.TXT
MDDDH9247202201709                D89828070100PV1D20170921000060SPEAKER ASM                   M IMCTM S5MB11 FTTL  07070IMCT  S5 PTB  00004                    0830 SR        000000000000 FUJITSU TEN (THAILAN170KNAL0084084                                                                                                                              *          20170915WMF1709159.TXT
MDDDH9247203201709                D89828070100PV1D20170921000060SPEAKER ASM                   M IMCTM S5MB11 FTTL  07070IMCT  S5 PTB  00004                    1030 SR        000000000000 FUJITSU TEN (THAILAN170KPGL0020020                                                                                                                              *          20170915WMF1709159.TXT
MDDDH9247204201709                D89828070100PV1D20170921000060SPEAKER ASM                   M IMCTM S5MB11 FTTL  07070IMCT  S5 PTB  00004                    1300 SR        000000000000 FUJITSU TEN (THAILAN170KPFL0225225                                                                                                                              *          20170915WMF1709159.TXT
MDDDH9247205201709                D89828070100PV1D20170921000060SPEAKER ASM                   M IMCTM S5MB11 FTTL  07070IMCT  S5 PTB  00004                    1600 SR        000000000000 FUJITSU TEN (THAILAN170KRGL0014014                                                                                                                              *          20170915WMF1709159.TXT
MDDDH9247206201709                D89828070100PV1D20170921000060SPEAKER ASM                   M IMCTM S5MB11 FTTL  07070IMCT  S5 PTB  00004                    2230 SR        000000000000 FUJITSU TEN (THAILAN170KPFL0226226                                                                                                                              *          20170915WMF1709159.TXT
MDDDH9247207201709                D89828070200PV1D20170920000060SPEAKER ASM                   M IMCTM S5MA14 FTTL  07070IMCT  S5 PTB  00005                    2230 SR        000000000000 FUJITSU TEN (THAILAN170KRRL0030030                                                                                                                              *          20170915WMF1709159.TXT
MDDDH9247208201709                D89828070200PV1D20170921000060SPEAKER ASM                   M IMCTM S5MA14 FTTL  07070IMCT  S5 PTB  00005                    1600 SR        000000000000 FUJITSU TEN (THAILAN170KRGL0014014                                                                                                                              *          20170915WMF1709159.TXT
MDDDH9247209201709                D89828070300PT1D20170920000060SPEAKER ASM                   M IMCTM S5NB082FTTL  07070IMCT  S5 PTB  00015                    2230 SR        000000000000 FUJITSU TEN (THAILAN170KRRL0030030                                                                                                                              *          20170915WMF1709159.TXT
MDDDH9247210201709                D89828070300PT1D20170921000060SPEAKER ASM                   M IMCTM S5NB082FTTL  07070IMCT  S5 PTB  00015                    0230 SR        000000000000 FUJITSU TEN (THAILAN170KPFL0224224                                                                                                                              *          20170915WMF1709159.TXT
MDDDH9247211201709                D89828070300PT1D20170921000060SPEAKER ASM                   M IMCTM S5NB082FTTL  07070IMCT  S5 PTB  00015                    1030 SR        000000000000 FUJITSU TEN (THAILAN170KPGL0020020                                                                                                                              *          20170915WMF1709159.TXT
MDDDH9247212201709                D89828070300PT1D20170921000060SPEAKER ASM                   M IMCTM S5NB082FTTL  07070IMCT  S5 PTB  00015                    1300 SR        000000000000 FUJITSU TEN (THAILAN170KPFL0225225                                                                                                                              *          20170915WMF1709159.TXT
MDDDH9247213201709                D89828070300PT1D20170921000060SPEAKER ASM                   M IMCTM S5NB082FTTL  07070IMCT  S5 PTB  00015                    1600 SR        000000000000 FUJITSU TEN (THAILAN170KRGL0014014                                                                                                                              *          20170915WMF1709159.TXT
MDDDH9247214201709                D89828070300PT1D20170921000060SPEAKER ASM                   M IMCTM S5NB082FTTL  07070IMCT  S5 PTB  00015                    2230 SR        000000000000 FUJITSU TEN (THAILAN170KPFL0226226                                                                                                                              *          20170915WMF1709159.TXT
MDDDH9247215201709                D89829645910PT1D20170921000030RADIO;ASM DVD                 M IMCTM S5NC06 FTTL  07070IMCT  S5 PTB  00003                    1600 SR        000000000000 FUJITSU TEN (THAILAN170KRGL0014014                                                                                                                              *          20170915WMF1709159.TXT
MDDDH9247216201709                D89831228300PT1D20170921000030RADIO;AM/FM,CD                M IMCTM S5NC06 FTTL  07070IMCT  S5 CPB  00003                    0230 SR        000000000000 FUJITSU TEN (THAILAN170KPFL0224224                                                                                                                              *          20170915WMF1709159.TXT
MDDDH9247217201709                D89831228300PT1D20170921000030RADIO;AM/FM,CD                M IMCTM S5NC06 FTTL  07070IMCT  S5 CPB  00003                    1030 SR        000000000000 FUJITSU TEN (THAILAN170KPGL0020020                                                                                                                              *          20170915WMF1709159.TXT
MDDDH9247218201709                D89831228300PT1D20170921000030RADIO;AM/FM,CD                M IMCTM S5NC06 FTTL  07070IMCT  S5 CPB  00003                    1300 SR        000000000000 FUJITSU TEN (THAILAN170KPFL0225225                                                                                                                              *          20170915WMF1709159.TXT
MDDDH9247219201709                D89831228300PT1D20170921000030RADIO;AM/FM,CD                M IMCTM S5NC06 FTTL  07070IMCT  S5 CPB  00003                    2230 SR        000000000000 FUJITSU TEN (THAILAN170KPFL0226226                                                                                                                              *          20170915WMF1709159.TXT
MDDUH9222585201709                D89828070100PT4U20170921000030SPEAKER ASM                   M IMCTM S0FL05 FTTL  07070IMCT  S0 PTB  00004                    1300 SR        000000000000 FUJITSU TEN (THAILAN180LUDU0256256                                                                                                                              *          20170915WMF1709159.TXT
MDDUH9222586201709                D89828070200PV4U20170921000030SPEAKER ASM                   M IMCTM S0FR05 FTTL  07070IMCT  S0 PTB  00005                    1300 SR        000000000000 FUJITSU TEN (THAILAN180LUDU0256256                                                                                                                              *          20170915WMF1709159.TXT
MDDUH9222587201709                D89828070300PT4U20170921000030SPEAKER ASM                   M IMCTM S9TS02 FTTL  07070IMCT  S9 PTB  00015                    1300 SR        000000000000 FUJITSU TEN (THAILAN180LUDU0256256                                                                                                                              *          20170915WMF1709159.TXT
MDEDH9254011201709                D89828070100PV1D20170920000060SPEAKER ASM                   M IMCTM S5MB11 FTTL  07070IMCT  S5 PTB  00004                    2230 SR        000000000000 FUJITSU TEN (THAILAN17008RL0007008                                                                                                                              *          20170915WMF1709159.TXT
MDEDH9254012201709                D89828070100PV1D20170921000030SPEAKER ASM                   M IMCTM S5MB11 FTTL  07070IMCT  S5 PTB  00004                    0400 SR        000000000000 FUJITSU TEN (THAILAN17072NL0046046                                                                                                                              *          20170915WMF1709159.TXT
MDEDH9254013201709                D89828070100PV1D20170921000030SPEAKER ASM                   M IMCTM S5MB11 FTTL  07070IMCT  S5 PTB  00004                    0830 SR        000000000000 FUJITSU TEN (THAILAN17072NL0047047                                                                                                                              *          20170915WMF1709159.TXT
MDEDH9254014201709                D89828070100PV1D20170921000030SPEAKER ASM                   M IMCTM S5MB11 FTTL  07070IMCT  S5 PTB  00004                    1030 SR        000000000000 FUJITSU TEN (THAILAN17018ML0025025                                                                                                                              *          20170915WMF1709159.TXT
MDEDH9254015201709                D89828070100PV1D20170921000030SPEAKER ASM                   M IMCTM S5MB11 FTTL  07070IMCT  S5 PTB  00004                    1300 SR        000000000000 FUJITSU TEN (THAILAN17071ML0012012                                                                                                                              *          20170915WMF1709159.TXT
MDEDH9254016201709                D89828070100PV1D20170921000030SPEAKER ASM                   M IMCTM S5MB11 FTTL  07070IMCT  S5 PTB  00004                    1600 SR        000000000000 FUJITSU TEN (THAILAN17071ML0013013                                                                                                                              *          20170915WMF1709159.TXT
MDEDH9254017201709                D89828070100PV1D20170921000030SPEAKER ASM                   M IMCTM S5MB11 FTTL  07070IMCT  S5 PTB  00004                    2100 SR        000000000000 FUJITSU TEN (THAILAN17023NL0016016                                                                                                                              *          20170915WMF1709159.TXT
MDEDH9254018201709                D89828070200PV1D20170921000030SPEAKER ASM                   M IMCTM S5MA14 FTTL  07070IMCT  S5 PTB  00005                    0400 SR        000000000000 FUJITSU TEN (THAILAN17072NL0046046                                                                                                                              *          20170915WMF1709159.TXT
MDEDH9254019201709                D89828070200PV1D20170921000030SPEAKER ASM                   M IMCTM S5MA14 FTTL  07070IMCT  S5 PTB  00005                    0830 SR        000000000000 FUJITSU TEN (THAILAN17072NL0047047                                                                                                                              *          20170915WMF1709159.TXT
MDEDH9254020201709                D89828070200PV1D20170921000030SPEAKER ASM                   M IMCTM S5MA14 FTTL  07070IMCT  S5 PTB  00005                    1030 SR        000000000000 FUJITSU TEN (THAILAN17018ML0025025                                                                                                                              *          20170915WMF1709159.TXT
MDEDH9254021201709                D89828070200PV1D20170921000030SPEAKER ASM                   M IMCTM S5MA14 FTTL  07070IMCT  S5 PTB  00005                    2100 SR        000000000000 FUJITSU TEN (THAILAN17023NL0016016                                                                                                                              *          20170915WMF1709159.TXT
MDEDH9254022201709                D89828070300PT1D20170921000030SPEAKER ASM                   M IMCTM S5NB082FTTL  07070IMCT  S5 PTB  00015                    0400 SR        000000000000 FUJITSU TEN (THAILAN17072NL0046046                                                                                                                              *          20170915WMF1709159.TXT
MDEDH9254023201709                D89828070300PT1D20170921000030SPEAKER ASM                   M IMCTM S5NB082FTTL  07070IMCT  S5 PTB  00015                    0830 SR        000000000000 FUJITSU TEN (THAILAN17072NL0047047                                                                                                                              *          20170915WMF1709159.TXT
MDEDH9254024201709                D89828070300PT1D20170921000030SPEAKER ASM                   M IMCTM S5NB082FTTL  07070IMCT  S5 PTB  00015                    1030 SR        000000000000 FUJITSU TEN (THAILAN17018ML0025025                                                                                                                              *          20170915WMF1709159.TXT
MDEDH9254025201709                D89828070300PT1D20170921000030SPEAKER ASM                   M IMCTM S5NB082FTTL  07070IMCT  S5 PTB  00015                    1300 SR        000000000000 FUJITSU TEN (THAILAN17071ML0012012                                                                                                                              *          20170915WMF1709159.TXT
MDEDH9254026201709                D89828070300PT1D20170921000030SPEAKER ASM                   M IMCTM S5NB082FTTL  07070IMCT  S5 PTB  00015                    1600 SR        000000000000 FUJITSU TEN (THAILAN17071ML0013013                                                                                                                              *          20170915WMF1709159.TXT
MDEDH9254027201709                D89828070300PT1D20170921000030SPEAKER ASM                   M IMCTM S5NB082FTTL  07070IMCT  S5 PTB  00015                    2100 SR        000000000000 FUJITSU TEN (THAILAN17023NL0016016                                                                                                                              *          20170915WMF1709159.TXT
MDEDH9254028201709                D89829645310PT1D20170921000015RADIO;ASM DVD                 M IMCTM S5NC06 FTTL  07070IMCT  S5 PTB  00003                    1030 SR        000000000000 FUJITSU TEN (THAILAN17018ML0025025                                                                                                                              *          20170915WMF1709159.TXT
MDEDH9254029201709                D89848581800PT1D20170921000015RADIO;AM/FM CD D              M IMCTM S5NC06 FTTL  07070IMCT  S5 PTB  00003                    0400 SR        000000000000 FUJITSU TEN (THAILAN17072NL0046046                                                                                                                              *          20170915WMF1709159.TXT
MDEDH9254030201709                D89848581800PT1D20170921000015RADIO;AM/FM CD D              M IMCTM S5NC06 FTTL  07070IMCT  S5 PTB  00003                    0830 SR        000000000000 FUJITSU TEN (THAILAN17072NL0047047                                                                                                                              *          20170915WMF1709159.TXT
MDEUH9252675201709                D89828070100PT4U20170920000060SPEAKER ASM                   M IMCTM S0FL05 FTTL  07070IMCT  S0 PTB  00004                    2230 SR        000000000000 FUJITSU TEN (THAILAN18078SU0059060                                                                                                                              *          20170915WMF1709159.TXT
MDEUH9252676201709                D89828070100PT4U20170921000060SPEAKER ASM                   M IMCTM S0FL05 FTTL  07070IMCT  S0 PTB  00004                    0400 SR        000000000000 FUJITSU TEN (THAILAN18078SU0061062                                                                                                                              *          20170915WMF1709159.TXT
MDEUH9252677201709                D89828070100PT4U20170921000030SPEAKER ASM                   M IMCTM S0FL05 FTTL  07070IMCT  S0 PTB  00004                    0830 SR        000000000000 FUJITSU TEN (THAILAN18078SU0063063                                                                                                                              *          20170915WMF1709159.TXT
MDEUH9252678201709                D89828070100PT4U20170921000030SPEAKER ASM                   M IMCTM S0FL05 FTTL  07070IMCT  S0 PTB  00004                    1030 SR        000000000000 FUJITSU TEN (THAILAN18078SU0064064                                                                                                                              *          20170915WMF1709159.TXT
MDEUH9252679201709                D89828070100PT4U20170921000030SPEAKER ASM                   M IMCTM S0FL05 FTTL  07070IMCT  S0 PTB  00004                    1300 SR        000000000000 FUJITSU TEN (THAILAN18078SU0065065                                                                                                                              *          20170915WMF1709159.TXT
MDEUH9252680201709                D89828070100PT4U20170921000030SPEAKER ASM                   M IMCTM S0FL05 FTTL  07070IMCT  S0 PTB  00004                    1600 SR        000000000000 FUJITSU TEN (THAILAN18078SU0066066                                                                                                                              *          20170915WMF1709159.TXT
MDEUH9252681201709                D89828070100PT4U20170921000030SPEAKER ASM                   M IMCTM S0FL05 FTTL  07070IMCT  S0 PTB  00004                    2100 SR        000000000000 FUJITSU TEN (THAILAN18078SU0067067                                                                                                                              *          20170915WMF1709159.TXT
MDEUH9252682201709                D89828070200PV4U20170920000060SPEAKER ASM                   M IMCTM S0FR05 FTTL  07070IMCT  S0 PTB  00005                    2230 SR        000000000000 FUJITSU TEN (THAILAN18078SU0059060                                                                                                                              *          20170915WMF1709159.TXT
MDEUH9252683201709                D89828070200PV4U20170921000060SPEAKER ASM                   M IMCTM S0FR05 FTTL  07070IMCT  S0 PTB  00005                    0400 SR        000000000000 FUJITSU TEN (THAILAN18078SU0061062                                                                                                                              *          20170915WMF1709159.TXT
MDEUH9252684201709                D89828070200PV4U20170921000030SPEAKER ASM                   M IMCTM S0FR05 FTTL  07070IMCT  S0 PTB  00005                    0830 SR        000000000000 FUJITSU TEN (THAILAN18078SU0063063                                                                                                                              *          20170915WMF1709159.TXT
MDEUH9252685201709                D89828070200PV4U20170921000030SPEAKER ASM                   M IMCTM S0FR05 FTTL  07070IMCT  S0 PTB  00005                    1030 SR        000000000000 FUJITSU TEN (THAILAN18078SU0064064                                                                                                                              *          20170915WMF1709159.TXT
MDEUH9252686201709                D89828070200PV4U20170921000030SPEAKER ASM                   M IMCTM S0FR05 FTTL  07070IMCT  S0 PTB  00005                    1300 SR        000000000000 FUJITSU TEN (THAILAN18078SU0065065                                                                                                                              *          20170915WMF1709159.TXT
MDEUH9252687201709                D89828070200PV4U20170921000030SPEAKER ASM                   M IMCTM S0FR05 FTTL  07070IMCT  S0 PTB  00005                    1600 SR        000000000000 FUJITSU TEN (THAILAN18078SU0066066                                                                                                                              *          20170915WMF1709159.TXT
MDEUH9252688201709                D89828070200PV4U20170921000030SPEAKER ASM                   M IMCTM S0FR05 FTTL  07070IMCT  S0 PTB  00005                    2100 SR        000000000000 FUJITSU TEN (THAILAN18078SU0067067                                                                                                                              *          20170915WMF1709159.TXT
MDEUH9252689201709                D89828070300PT4U20170920000060SPEAKER ASM                   M IMCTM S9TS02 FTTL  07070IMCT  S9 PTB  00015                    2230 SR        000000000000 FUJITSU TEN (THAILAN18078SU0059060                                                                                                                              *          20170915WMF1709159.TXT
MDEUH9252690201709                D89828070300PT4U20170921000060SPEAKER ASM                   M IMCTM S9TS02 FTTL  07070IMCT  S9 PTB  00015                    0400 SR        000000000000 FUJITSU TEN (THAILAN18078SU0061062                                                                                                                              *          20170915WMF1709159.TXT
MDEUH9252691201709                D89828070300PT4U20170921000030SPEAKER ASM                   M IMCTM S9TS02 FTTL  07070IMCT  S9 PTB  00015                    0830 SR        000000000000 FUJITSU TEN (THAILAN18078SU0063063                                                                                                                              *          20170915WMF1709159.TXT
MDEUH9252692201709                D89828070300PT4U20170921000030SPEAKER ASM                   M IMCTM S9TS02 FTTL  07070IMCT  S9 PTB  00015                    1030 SR        000000000000 FUJITSU TEN (THAILAN18078SU0064064                                                                                                                              *          20170915WMF1709159.TXT
MDEUH9252693201709                D89828070300PT4U20170921000030SPEAKER ASM                   M IMCTM S9TS02 FTTL  07070IMCT  S9 PTB  00015                    1300 SR        000000000000 FUJITSU TEN (THAILAN18078SU0065065                                                                                                                              *          20170915WMF1709159.TXT
MDEUH9252694201709                D89828070300PT4U20170921000030SPEAKER ASM                   M IMCTM S9TS02 FTTL  07070IMCT  S9 PTB  00015                    1600 SR        000000000000 FUJITSU TEN (THAILAN18078SU0066066                                                                                                                              *          20170915WMF1709159.TXT
MDEUH9252695201709                D89828070300PT4U20170921000030SPEAKER ASM                   M IMCTM S9TS02 FTTL  07070IMCT  S9 PTB  00015                    2100 SR        000000000000 FUJITSU TEN (THAILAN18078SU0067067                                                                                                                              *          20170915WMF1709159.TXT
