REC2017092220170922ISUZU                              67     
MDDDH9268360201709                D89821984430PT1D20170928000030RADIO;AM/FM,CD                M IMCTM S5NC06 FTTL  07070IMCT  S5 PTB  00005                    0830 SR        000000000000 FUJITSU TEN (THAILAN170KNEL0172172                                                                                                                              *          20170922WMF1709225.TXT
MDDDH9268361201709                D89821984430PT1D20170928000030RADIO;AM/FM,CD                M IMCTM S5NC06 FTTL  07070IMCT  S5 PTB  00005                    2100 SR        000000000000 FUJITSU TEN (THAILAN170KNDL0164164                                                                                                                              *          20170922WMF1709225.TXT
MDDDH9268362201709                D89825217910PT1D20170928000030RADIO;AM/FM,CD,D              M IMCTM S5NC06 FTTL  07070IMCT  S5 PTB  00003                    1600 SR        000000000000 FUJITSU TEN (THAILAN170KPJL0067067                                                                                                                              *          20170922WMF1709225.TXT
MDDDH9268363201709                D89828070100PV1D20170927000060SPEAKER ASM                   M IMCTM S5MB11 FTTL  07070IMCT  S5 PTB  00004                    2230 SR        000000000000 FUJITSU TEN (THAILAN170KPFL0234234                                                                                                                              *          20170922WMF1709225.TXT
MDDDH9268364201709                D89828070100PV1D20170928000060SPEAKER ASM                   M IMCTM S5MB11 FTTL  07070IMCT  S5 PTB  00004                    0230 SR        000000000000 FUJITSU TEN (THAILAN170KRJL0046046                                                                                                                              *          20170922WMF1709225.TXT
MDDDH9268365201709                D89828070100PV1D20170928000120SPEAKER ASM                   M IMCTM S5MB11 FTTL  07070IMCT  S5 PTB  00004                    0830 SR        000000000000 FUJITSU TEN (THAILAN170KNEL0172172170KPFL0235235                                                                                                                *          20170922WMF1709225.TXT
MDDDH9268366201709                D89828070100PV1D20170928000060SPEAKER ASM                   M IMCTM S5MB11 FTTL  07070IMCT  S5 PTB  00004                    1300 SR        000000000000 FUJITSU TEN (THAILAN170KRFL0134134                                                                                                                              *          20170922WMF1709225.TXT
MDDDH9268367201709                D89828070100PV1D20170928000060SPEAKER ASM                   M IMCTM S5MB11 FTTL  07070IMCT  S5 PTB  00004                    1600 SR        000000000000 FUJITSU TEN (THAILAN170KPJL0067067                                                                                                                              *          20170922WMF1709225.TXT
MDDDH9268368201709                D89828070100PV1D20170928000060SPEAKER ASM                   M IMCTM S5MB11 FTTL  07070IMCT  S5 PTB  00004                    2100 SR        000000000000 FUJITSU TEN (THAILAN170KNDL0164164                                                                                                                              *          20170922WMF1709225.TXT
MDDDH9268369201709                D89828070200PV1D20170928000060SPEAKER ASM                   M IMCTM S5MA14 FTTL  07070IMCT  S5 PTB  00005                    0230 SR        000000000000 FUJITSU TEN (THAILAN170KRJL0046046                                                                                                                              *          20170922WMF1709225.TXT
MDDDH9268370201709                D89828070200PV1D20170928000060SPEAKER ASM                   M IMCTM S5MA14 FTTL  07070IMCT  S5 PTB  00005                    1300 SR        000000000000 FUJITSU TEN (THAILAN170KRFL0134134                                                                                                                              *          20170922WMF1709225.TXT
MDDDH9268371201709                D89828070300PT1D20170927000060SPEAKER ASM                   M IMCTM S5NB082FTTL  07070IMCT  S5 PTB  00015                    2230 SR        000000000000 FUJITSU TEN (THAILAN170KPFL0234234                                                                                                                              *          20170922WMF1709225.TXT
MDDDH9268372201709                D89828070300PT1D20170928000060SPEAKER ASM                   M IMCTM S5NB082FTTL  07070IMCT  S5 PTB  00015                    0230 SR        000000000000 FUJITSU TEN (THAILAN170KRJL0046046                                                                                                                              *          20170922WMF1709225.TXT
MDDDH9268373201709                D89828070300PT1D20170928000060SPEAKER ASM                   M IMCTM S5NB082FTTL  07070IMCT  S5 PTB  00015                    0830 SR        000000000000 FUJITSU TEN (THAILAN170KPFL0235235                                                                                                                              *          20170922WMF1709225.TXT
MDDDH9268374201709                D89828070300PT1D20170928000060SPEAKER ASM                   M IMCTM S5NB082FTTL  07070IMCT  S5 PTB  00015                    1300 SR        000000000000 FUJITSU TEN (THAILAN170KRFL0134134                                                                                                                              *          20170922WMF1709225.TXT
MDDDH9268375201709                D89828070300PT1D20170928000060SPEAKER ASM                   M IMCTM S5NB082FTTL  07070IMCT  S5 PTB  00015                    1600 SR        000000000000 FUJITSU TEN (THAILAN170KPJL0067067                                                                                                                              *          20170922WMF1709225.TXT
MDDDH9268376201709                D89829645910PT1D20170928000030RADIO;ASM DVD                 M IMCTM S5NC06 FTTL  07070IMCT  S5 PTB  00003                    1300 SR        000000000000 FUJITSU TEN (THAILAN170KRFL0134134                                                                                                                              *          20170922WMF1709225.TXT
MDDDH9268377201709                D89831228300PT1D20170927000030RADIO;AM/FM,CD                M IMCTM S5NC06 FTTL  07070IMCT  S5 CPB  00003                    2230 SR        000000000000 FUJITSU TEN (THAILAN170KPFL0234234                                                                                                                              *          20170922WMF1709225.TXT
MDDDH9268378201709                D89831228300PT1D20170928000030RADIO;AM/FM,CD                M IMCTM S5NC06 FTTL  07070IMCT  S5 CPB  00003                    0830 SR        000000000000 FUJITSU TEN (THAILAN170KPFL0235235                                                                                                                              *          20170922WMF1709225.TXT
MDDUH9234043201709                D89828070100PT4U20170928000030SPEAKER ASM                   M IMCTM S0FL05 FTTL  07070IMCT  S0 PTB  00004                    0230 SR        000000000000 FUJITSU TEN (THAILAN180LUDU0261261                                                                                                                              *          20170922WMF1709225.TXT
MDDUH9234044201709                D89828070100PT4U20170928000030SPEAKER ASM                   M IMCTM S0FL05 FTTL  07070IMCT  S0 PTB  00004                    0830 SR        000000000000 FUJITSU TEN (THAILAN180LUCU0083083                                                                                                                              *          20170922WMF1709225.TXT
MDDUH9234045201709                D89828070100PT4U20170928000030SPEAKER ASM                   M IMCTM S0FL05 FTTL  07070IMCT  S0 PTB  00004                    1300 SR        000000000000 FUJITSU TEN (THAILAN180LUEU0177177                                                                                                                              *          20170922WMF1709225.TXT
MDDUH9234046201709                D89828070200PV4U20170928000030SPEAKER ASM                   M IMCTM S0FR05 FTTL  07070IMCT  S0 PTB  00005                    0230 SR        000000000000 FUJITSU TEN (THAILAN180LUDU0261261                                                                                                                              *          20170922WMF1709225.TXT
MDDUH9234047201709                D89828070200PV4U20170928000030SPEAKER ASM                   M IMCTM S0FR05 FTTL  07070IMCT  S0 PTB  00005                    0830 SR        000000000000 FUJITSU TEN (THAILAN180LUCU0083083                                                                                                                              *          20170922WMF1709225.TXT
MDDUH9234048201709                D89828070200PV4U20170928000030SPEAKER ASM                   M IMCTM S0FR05 FTTL  07070IMCT  S0 PTB  00005                    1300 SR        000000000000 FUJITSU TEN (THAILAN180LUEU0177177                                                                                                                              *          20170922WMF1709225.TXT
MDDUH9234049201709                D89828070300PT4U20170928000030SPEAKER ASM                   M IMCTM S9TS02 FTTL  07070IMCT  S9 PTB  00015                    0230 SR        000000000000 FUJITSU TEN (THAILAN180LUDU0261261                                                                                                                              *          20170922WMF1709225.TXT
MDDUH9234050201709                D89828070300PT4U20170928000030SPEAKER ASM                   M IMCTM S9TS02 FTTL  07070IMCT  S9 PTB  00015                    0830 SR        000000000000 FUJITSU TEN (THAILAN180LUCU0083083                                                                                                                              *          20170922WMF1709225.TXT
MDDUH9234051201709                D89828070300PT4U20170928000030SPEAKER ASM                   M IMCTM S9TS02 FTTL  07070IMCT  S9 PTB  00015                    1300 SR        000000000000 FUJITSU TEN (THAILAN180LUEU0177177                                                                                                                              *          20170922WMF1709225.TXT
MDDUH9234052201709                D89835097910PT4U20170928000015RADIO;ASM DVD                 M IMCTM S9TS01 FTTL  07070IMCT  S9 PTB  00003                    0830 SR        000000000000 FUJITSU TEN (THAILAN180LUCU0083083                                                                                                                              *          20170922WMF1709225.TXT
MDEDH9279049201709                D89828070100PV1D20170927000060SPEAKER ASM                   M IMCTM S5MB11 FTTL  07070IMCT  S5 PTB  00004                    2230 SR        000000000000 FUJITSU TEN (THAILAN17063NL0028029                                                                                                                              *          20170922WMF1709225.TXT
MDEDH9279050201709                D89828070100PV1D20170928000060SPEAKER ASM                   M IMCTM S5MB11 FTTL  07070IMCT  S5 PTB  00004                    0400 SR        000000000000 FUJITSU TEN (THAILAN17001NL001601617006ML0013013                                                                                                                *          20170922WMF1709225.TXT
MDEDH9279051201709                D89828070100PV1D20170928000030SPEAKER ASM                   M IMCTM S5MB11 FTTL  07070IMCT  S5 PTB  00004                    1030 SR        000000000000 FUJITSU TEN (THAILAN17064ML0005005                                                                                                                              *          20170922WMF1709225.TXT
MDEDH9279052201709                D89828070100PV1D20170928000060SPEAKER ASM                   M IMCTM S5MB11 FTTL  07070IMCT  S5 PTB  00004                    1300 SR        000000000000 FUJITSU TEN (THAILAN17081NL0034035                                                                                                                              *          20170922WMF1709225.TXT
MDEDH9279053201709                D89828070100PV1D20170928000030SPEAKER ASM                   M IMCTM S5MB11 FTTL  07070IMCT  S5 PTB  00004                    1600 SR        000000000000 FUJITSU TEN (THAILAN17079ML0004004                                                                                                                              *          20170922WMF1709225.TXT
MDEDH9279054201709                D89828070100PV4D20170928000030SPEAKER ASM                   M IMCTM S0FL05 FTTL  07070IMCT  S0 PTB  00004                    0400 SR        000000000000 FUJITSU TEN (THAILAN17080NU0062062                                                                                                                              *          20170922WMF1709225.TXT
MDEDH9279055201709                D89828070100PV4D20170928000030SPEAKER ASM                   M IMCTM S0FL05 FTTL  07070IMCT  S0 PTB  00004                    1600 SR        000000000000 FUJITSU TEN (THAILAN17074NU0027027                                                                                                                              *          20170922WMF1709225.TXT
MDEDH9279056201709                D89828070200PV1D20170928000030SPEAKER ASM                   M IMCTM S5MA14 FTTL  07070IMCT  S5 PTB  00005                    0400 SR        000000000000 FUJITSU TEN (THAILAN17001NL0016016                                                                                                                              *          20170922WMF1709225.TXT
MDEDH9279057201709                D89828070200PV1D20170928000060SPEAKER ASM                   M IMCTM S5MA14 FTTL  07070IMCT  S5 PTB  00005                    1300 SR        000000000000 FUJITSU TEN (THAILAN17081NL0034035                                                                                                                              *          20170922WMF1709225.TXT
MDEDH9279058201709                D89828070200PV4D20170928000030SPEAKER ASM                   M IMCTM S0FR05 FTTL  07070IMCT  S0 PTB  00005                    0400 SR        000000000000 FUJITSU TEN (THAILAN17080NU0062062                                                                                                                              *          20170922WMF1709225.TXT
MDEDH9279059201709                D89828070200PV4D20170928000030SPEAKER ASM                   M IMCTM S0FR05 FTTL  07070IMCT  S0 PTB  00005                    1600 SR        000000000000 FUJITSU TEN (THAILAN17074NU0027027                                                                                                                              *          20170922WMF1709225.TXT
MDEDH9279060201709                D89828070300PT1D20170927000060SPEAKER ASM                   M IMCTM S5NB082FTTL  07070IMCT  S5 PTB  00015                    2230 SR        000000000000 FUJITSU TEN (THAILAN17063NL0028029                                                                                                                              *          20170922WMF1709225.TXT
MDEDH9279061201709                D89828070300PT1D20170928000030SPEAKER ASM                   M IMCTM S5NB082FTTL  07070IMCT  S5 PTB  00015                    0400 SR        000000000000 FUJITSU TEN (THAILAN17001NL0016016                                                                                                                              *          20170922WMF1709225.TXT
MDEDH9279062201709                D89828070300PT1D20170928000030SPEAKER ASM                   M IMCTM S5NB082FTTL  07070IMCT  S5 PTB  00015                    1030 SR        000000000000 FUJITSU TEN (THAILAN17064ML0005005                                                                                                                              *          20170922WMF1709225.TXT
MDEDH9279063201709                D89828070300PT1D20170928000060SPEAKER ASM                   M IMCTM S5NB082FTTL  07070IMCT  S5 PTB  00015                    1300 SR        000000000000 FUJITSU TEN (THAILAN17081NL0034035                                                                                                                              *          20170922WMF1709225.TXT
MDEDH9279064201709                D89828070300PT4D20170928000030SPEAKER ASM                   M IMCTM S9TS02 FTTL  07070IMCT  S9 PTB  00015                    0400 SR        000000000000 FUJITSU TEN (THAILAN17080NU0062062                                                                                                                              *          20170922WMF1709225.TXT
MDEDH9279065201709                D89828070300PT4D20170928000030SPEAKER ASM                   M IMCTM S9TS02 FTTL  07070IMCT  S9 PTB  00015                    1600 SR        000000000000 FUJITSU TEN (THAILAN17074NU0027027                                                                                                                              *          20170922WMF1709225.TXT
MDEDH9279066201709                D89831228800PT1D20170928000015RADIO;AM/FM,CD                M IMCTM S5NC06 FTTL  07070IMCT  S5 PTB  00003                    0400 SR        000000000000 FUJITSU TEN (THAILAN17001NL0016016                                                                                                                              *          20170922WMF1709225.TXT
MDEDH9279067201709                D89848581800PT1D20170927000030RADIO;AM/FM CD D              M IMCTM S5NC06 FTTL  07070IMCT  S5 PTB  00003                    2230 SR        000000000000 FUJITSU TEN (THAILAN17063NL0028029                                                                                                                              *          20170922WMF1709225.TXT
MDEDH9279068201709                D89848581800PT4D20170928000015RADIO;AM/FM CD D              M IMCTM S9CO001FTTL  07070IMCT  S9 PTB  00003                    1600 SR        000000000000 FUJITSU TEN (THAILAN17074NU0027027                                                                                                                              *          20170922WMF1709225.TXT
MDEUH9271957201709                D89828070100PT4U20170927000030SPEAKER ASM                   M IMCTM S0FL05 FTTL  07070IMCT  S0 PTB  00004                    2230 SR        000000000000 FUJITSU TEN (THAILAN18078SU0090090                                                                                                                              *          20170922WMF1709225.TXT
MDEUH9271958201709                D89828070100PT4U20170928000030SPEAKER ASM                   M IMCTM S0FL05 FTTL  07070IMCT  S0 PTB  00004                    0400 SR        000000000000 FUJITSU TEN (THAILAN18078SU0091091                                                                                                                              *          20170922WMF1709225.TXT
MDEUH9271959201709                D89828070100PT4U20170928000030SPEAKER ASM                   M IMCTM S0FL05 FTTL  07070IMCT  S0 PTB  00004                    0830 SR        000000000000 FUJITSU TEN (THAILAN18078SU0092092                                                                                                                              *          20170922WMF1709225.TXT
MDEUH9271960201709                D89828070100PT4U20170928000030SPEAKER ASM                   M IMCTM S0FL05 FTTL  07070IMCT  S0 PTB  00004                    1030 SR        000000000000 FUJITSU TEN (THAILAN18078SU0093093                                                                                                                              *          20170922WMF1709225.TXT
MDEUH9271961201709                D89828070100PT4U20170928000030SPEAKER ASM                   M IMCTM S0FL05 FTTL  07070IMCT  S0 PTB  00004                    1600 SR        000000000000 FUJITSU TEN (THAILAN18078SU0094094                                                                                                                              *          20170922WMF1709225.TXT
MDEUH9271962201709                D89828070100PT4U20170928000030SPEAKER ASM                   M IMCTM S0FL05 FTTL  07070IMCT  S0 PTB  00004                    2100 SR        000000000000 FUJITSU TEN (THAILAN18078SU0095095                                                                                                                              *          20170922WMF1709225.TXT
MDEUH9271963201709                D89828070200PV4U20170927000030SPEAKER ASM                   M IMCTM S0FR05 FTTL  07070IMCT  S0 PTB  00005                    2230 SR        000000000000 FUJITSU TEN (THAILAN18078SU0090090                                                                                                                              *          20170922WMF1709225.TXT
MDEUH9271964201709                D89828070200PV4U20170928000030SPEAKER ASM                   M IMCTM S0FR05 FTTL  07070IMCT  S0 PTB  00005                    0400 SR        000000000000 FUJITSU TEN (THAILAN18078SU0091091                                                                                                                              *          20170922WMF1709225.TXT
MDEUH9271965201709                D89828070200PV4U20170928000030SPEAKER ASM                   M IMCTM S0FR05 FTTL  07070IMCT  S0 PTB  00005                    0830 SR        000000000000 FUJITSU TEN (THAILAN18078SU0092092                                                                                                                              *          20170922WMF1709225.TXT
MDEUH9271966201709                D89828070200PV4U20170928000030SPEAKER ASM                   M IMCTM S0FR05 FTTL  07070IMCT  S0 PTB  00005                    1030 SR        000000000000 FUJITSU TEN (THAILAN18078SU0093093                                                                                                                              *          20170922WMF1709225.TXT
MDEUH9271967201709                D89828070200PV4U20170928000030SPEAKER ASM                   M IMCTM S0FR05 FTTL  07070IMCT  S0 PTB  00005                    1600 SR        000000000000 FUJITSU TEN (THAILAN18078SU0094094                                                                                                                              *          20170922WMF1709225.TXT
MDEUH9271968201709                D89828070200PV4U20170928000030SPEAKER ASM                   M IMCTM S0FR05 FTTL  07070IMCT  S0 PTB  00005                    2100 SR        000000000000 FUJITSU TEN (THAILAN18078SU0095095                                                                                                                              *          20170922WMF1709225.TXT
MDEUH9271969201709                D89828070300PT4U20170927000030SPEAKER ASM                   M IMCTM S9TS02 FTTL  07070IMCT  S9 PTB  00015                    2230 SR        000000000000 FUJITSU TEN (THAILAN18078SU0090090                                                                                                                              *          20170922WMF1709225.TXT
MDEUH9271970201709                D89828070300PT4U20170928000030SPEAKER ASM                   M IMCTM S9TS02 FTTL  07070IMCT  S9 PTB  00015                    0400 SR        000000000000 FUJITSU TEN (THAILAN18078SU0091091                                                                                                                              *          20170922WMF1709225.TXT
MDEUH9271971201709                D89828070300PT4U20170928000030SPEAKER ASM                   M IMCTM S9TS02 FTTL  07070IMCT  S9 PTB  00015                    0830 SR        000000000000 FUJITSU TEN (THAILAN18078SU0092092                                                                                                                              *          20170922WMF1709225.TXT
MDEUH9271972201709                D89828070300PT4U20170928000030SPEAKER ASM                   M IMCTM S9TS02 FTTL  07070IMCT  S9 PTB  00015                    1030 SR        000000000000 FUJITSU TEN (THAILAN18078SU0093093                                                                                                                              *          20170922WMF1709225.TXT
MDEUH9271973201709                D89828070300PT4U20170928000030SPEAKER ASM                   M IMCTM S9TS02 FTTL  07070IMCT  S9 PTB  00015                    1600 SR        000000000000 FUJITSU TEN (THAILAN18078SU0094094                                                                                                                              *          20170922WMF1709225.TXT
MDEUH9271974201709                D89828070300PT4U20170928000030SPEAKER ASM                   M IMCTM S9TS02 FTTL  07070IMCT  S9 PTB  00015                    2100 SR        000000000000 FUJITSU TEN (THAILAN18078SU0095095                                                                                                                              *          20170922WMF1709225.TXT
