REC2017091220170912ISUZU                              61     
MDDDH9234064201709                D89821984430PT1D20170916000030RADIO;AM/FM,CD                M IMCTM S5NC06 FTTL  07070IMCT  S5 PTB  00005                    0230 SR        000000000000 FUJITSU TEN (THAILAN180LNCL0001001                                                                                                                              *          20170912WMF1709125.TXT
MDDDH9234065201709                D89821984430PT1D20170918000030RADIO;AM/FM,CD                M IMCTM S5NC06 FTTL  07070IMCT  S5 PTB  00005                    0830 SR        000000000000 FUJITSU TEN (THAILAN170KRAL0171171                                                                                                                              *          20170912WMF1709125.TXT
MDDDH9234066201709                D89821984430PT1D20170918000030RADIO;AM/FM,CD                M IMCTM S5NC06 FTTL  07070IMCT  S5 PTB  00005                    1300 SR        000000000000 FUJITSU TEN (THAILAN170KPAL0195195                                                                                                                              *          20170912WMF1709125.TXT
MDDDH9234067201709                D89828070100PV1D20170915000060SPEAKER ASM                   M IMCTM S5MB11 FTTL  07070IMCT  S5 PTB  00004                    2230 SR        000000000000 FUJITSU TEN (THAILAN170KPFL0219219                                                                                                                              *          20170912WMF1709125.TXT
MDDDH9234068201709                D89828070100PV1D20170916000060SPEAKER ASM                   M IMCTM S5MB11 FTTL  07070IMCT  S5 PTB  00004                    0230 SR        000000000000 FUJITSU TEN (THAILAN180LNCL0001001                                                                                                                              *          20170912WMF1709125.TXT
MDDDH9234069201709                D89828070100PV1D20170918000120SPEAKER ASM                   M IMCTM S5MB11 FTTL  07070IMCT  S5 PTB  00004                    0830 SR        000000000000 FUJITSU TEN (THAILAN170KPCL0093093170KRAL0171171                                                                                                                *          20170912WMF1709125.TXT
MDDDH9234070201709                D89828070100PV1D20170918000120SPEAKER ASM                   M IMCTM S5MB11 FTTL  07070IMCT  S5 PTB  00004                    1300 SR        000000000000 FUJITSU TEN (THAILAN170KPAL0195195170KPFL0220220                                                                                                                *          20170912WMF1709125.TXT
MDDDH9234071201709                D89828070100PV1D20170918000060SPEAKER ASM                   M IMCTM S5MB11 FTTL  07070IMCT  S5 PTB  00004                    2100 SR        000000000000 FUJITSU TEN (THAILAN170KPFL0221221                                                                                                                              *          20170912WMF1709125.TXT
MDDDH9234072201709                D89828070300PT1D20170915000060SPEAKER ASM                   M IMCTM S5NB082FTTL  07070IMCT  S5 PTB  00015                    2230 SR        000000000000 FUJITSU TEN (THAILAN170KPFL0219219                                                                                                                              *          20170912WMF1709125.TXT
MDDDH9234073201709                D89828070300PT1D20170918000060SPEAKER ASM                   M IMCTM S5NB082FTTL  07070IMCT  S5 PTB  00015                    0830 SR        000000000000 FUJITSU TEN (THAILAN170KPCL0093093                                                                                                                              *          20170912WMF1709125.TXT
MDDDH9234074201709                D89828070300PT1D20170918000060SPEAKER ASM                   M IMCTM S5NB082FTTL  07070IMCT  S5 PTB  00015                    1300 SR        000000000000 FUJITSU TEN (THAILAN170KPFL0220220                                                                                                                              *          20170912WMF1709125.TXT
MDDDH9234075201709                D89828070300PT1D20170918000060SPEAKER ASM                   M IMCTM S5NB082FTTL  07070IMCT  S5 PTB  00015                    2100 SR        000000000000 FUJITSU TEN (THAILAN170KPFL0221221                                                                                                                              *          20170912WMF1709125.TXT
MDDDH9234076201709                D89831228300PT1D20170915000030RADIO;AM/FM,CD                M IMCTM S5NC06 FTTL  07070IMCT  S5 CPB  00003                    2230 SR        000000000000 FUJITSU TEN (THAILAN170KPFL0219219                                                                                                                              *          20170912WMF1709125.TXT
MDDDH9234077201709                D89831228300PT1D20170918000030RADIO;AM/FM,CD                M IMCTM S5NC06 FTTL  07070IMCT  S5 CPB  00003                    0830 SR        000000000000 FUJITSU TEN (THAILAN170KPCL0093093                                                                                                                              *          20170912WMF1709125.TXT
MDDDH9234078201709                D89831228300PT1D20170918000030RADIO;AM/FM,CD                M IMCTM S5NC06 FTTL  07070IMCT  S5 CPB  00003                    1300 SR        000000000000 FUJITSU TEN (THAILAN170KPFL0220220                                                                                                                              *          20170912WMF1709125.TXT
MDDDH9234079201709                D89831228300PT1D20170918000030RADIO;AM/FM,CD                M IMCTM S5NC06 FTTL  07070IMCT  S5 CPB  00003                    2100 SR        000000000000 FUJITSU TEN (THAILAN170KPFL0221221                                                                                                                              *          20170912WMF1709125.TXT
MDDUH9218019201709                D89828070100PT4U20170918000030SPEAKER ASM                   M IMCTM S0FL05 FTTL  07070IMCT  S0 PTB  00004                    1030 SR        000000000000 FUJITSU TEN (THAILAN180LUCU0079079                                                                                                                              *          20170912WMF1709125.TXT
MDDUH9218020201709                D89828070100PT4U20170918000030SPEAKER ASM                   M IMCTM S0FL05 FTTL  07070IMCT  S0 PTB  00004                    1300 SR        000000000000 FUJITSU TEN (THAILAN180LUDU0254254                                                                                                                              *          20170912WMF1709125.TXT
MDDUH9218021201709                D89828070200PV4U20170918000030SPEAKER ASM                   M IMCTM S0FR05 FTTL  07070IMCT  S0 PTB  00005                    1030 SR        000000000000 FUJITSU TEN (THAILAN180LUCU0079079                                                                                                                              *          20170912WMF1709125.TXT
MDDUH9218022201709                D89828070200PV4U20170918000030SPEAKER ASM                   M IMCTM S0FR05 FTTL  07070IMCT  S0 PTB  00005                    1300 SR        000000000000 FUJITSU TEN (THAILAN180LUDU0254254                                                                                                                              *          20170912WMF1709125.TXT
MDDUH9218023201709                D89828070300PT4U20170918000030SPEAKER ASM                   M IMCTM S9TS02 FTTL  07070IMCT  S9 PTB  00015                    1030 SR        000000000000 FUJITSU TEN (THAILAN180LUCU0079079                                                                                                                              *          20170912WMF1709125.TXT
MDDUH9218024201709                D89828070300PT4U20170918000030SPEAKER ASM                   M IMCTM S9TS02 FTTL  07070IMCT  S9 PTB  00015                    1300 SR        000000000000 FUJITSU TEN (THAILAN180LUDU0254254                                                                                                                              *          20170912WMF1709125.TXT
MDDUH9218025201709                D89835097910PT4U20170918000015RADIO;ASM DVD                 M IMCTM S9TS01 FTTL  07070IMCT  S9 PTB  00003                    1030 SR        000000000000 FUJITSU TEN (THAILAN180LUCU0079079                                                                                                                              *          20170912WMF1709125.TXT
MDEDH9238528201709                D89828070100PV1D20170915000060SPEAKER ASM                   M IMCTM S5MB11 FTTL  07070IMCT  S5 PTB  00004                    2230 SR        000000000000 FUJITSU TEN (THAILAN17024NL0018019                                                                                                                              *          20170912WMF1709125.TXT
MDEDH9238529201709                D89828070100PV1D20170916000060SPEAKER ASM                   M IMCTM S5MB11 FTTL  07070IMCT  S5 PTB  00004                    0400 SR        000000000000 FUJITSU TEN (THAILAN17024NL002002017046QL0021021                                                                                                                *          20170912WMF1709125.TXT
MDEDH9238530201709                D89828070100PV1D20170918000030SPEAKER ASM                   M IMCTM S5MB11 FTTL  07070IMCT  S5 PTB  00004                    1030 SR        000000000000 FUJITSU TEN (THAILAN17003ML0001001                                                                                                                              *          20170912WMF1709125.TXT
MDEDH9238531201709                D89828070100PV1D20170918000030SPEAKER ASM                   M IMCTM S5MB11 FTTL  07070IMCT  S5 PTB  00004                    1300 SR        000000000000 FUJITSU TEN (THAILAN17013ML0001001                                                                                                                              *          20170912WMF1709125.TXT
MDEDH9238532201709                D89828070100PV1D20170918000060SPEAKER ASM                   M IMCTM S5MB11 FTTL  07070IMCT  S5 PTB  00004                    1600 SR        000000000000 FUJITSU TEN (THAILAN17067WL0001002                                                                                                                              *          20170912WMF1709125.TXT
MDEDH9238533201709                D89828070100PV4D20170916000030SPEAKER ASM                   M IMCTM S0FL05 FTTL  07070IMCT  S0 PTB  00004                    0400 SR        000000000000 FUJITSU TEN (THAILAN17074NU0024024                                                                                                                              *          20170912WMF1709125.TXT
MDEDH9238534201709                D89828070100PV4D20170918000030SPEAKER ASM                   M IMCTM S0FL05 FTTL  07070IMCT  S0 PTB  00004                    2100 SR        000000000000 FUJITSU TEN (THAILAN17083MU0003003                                                                                                                              *          20170912WMF1709125.TXT
MDEDH9238535201709                D89828070200PV1D20170915000060SPEAKER ASM                   M IMCTM S5MA14 FTTL  07070IMCT  S5 PTB  00005                    2230 SR        000000000000 FUJITSU TEN (THAILAN17024NL0018019                                                                                                                              *          20170912WMF1709125.TXT
MDEDH9238536201709                D89828070200PV1D20170916000060SPEAKER ASM                   M IMCTM S5MA14 FTTL  07070IMCT  S5 PTB  00005                    0400 SR        000000000000 FUJITSU TEN (THAILAN17024NL002002017046QL0021021                                                                                                                *          20170912WMF1709125.TXT
MDEDH9238537201709                D89828070200PV1D20170918000030SPEAKER ASM                   M IMCTM S5MA14 FTTL  07070IMCT  S5 PTB  00005                    1300 SR        000000000000 FUJITSU TEN (THAILAN17013ML0001001                                                                                                                              *          20170912WMF1709125.TXT
MDEDH9238538201709                D89828070200PV1D20170918000060SPEAKER ASM                   M IMCTM S5MA14 FTTL  07070IMCT  S5 PTB  00005                    1600 SR        000000000000 FUJITSU TEN (THAILAN17067WL0001002                                                                                                                              *          20170912WMF1709125.TXT
MDEDH9238539201709                D89828070200PV4D20170916000030SPEAKER ASM                   M IMCTM S0FR05 FTTL  07070IMCT  S0 PTB  00005                    0400 SR        000000000000 FUJITSU TEN (THAILAN17074NU0024024                                                                                                                              *          20170912WMF1709125.TXT
MDEDH9238540201709                D89828070300PT1D20170915000060SPEAKER ASM                   M IMCTM S5NB082FTTL  07070IMCT  S5 PTB  00015                    2230 SR        000000000000 FUJITSU TEN (THAILAN17024NL0018019                                                                                                                              *          20170912WMF1709125.TXT
MDEDH9238541201709                D89828070300PT1D20170916000060SPEAKER ASM                   M IMCTM S5NB082FTTL  07070IMCT  S5 PTB  00015                    0400 SR        000000000000 FUJITSU TEN (THAILAN17024NL002002017046QL0021021                                                                                                                *          20170912WMF1709125.TXT
MDEDH9238542201709                D89828070300PT1D20170918000030SPEAKER ASM                   M IMCTM S5NB082FTTL  07070IMCT  S5 PTB  00015                    1300 SR        000000000000 FUJITSU TEN (THAILAN17013ML0001001                                                                                                                              *          20170912WMF1709125.TXT
MDEDH9238543201709                D89828070300PT1D20170918000060SPEAKER ASM                   M IMCTM S5NB082FTTL  07070IMCT  S5 PTB  00015                    1600 SR        000000000000 FUJITSU TEN (THAILAN17067WL0001002                                                                                                                              *          20170912WMF1709125.TXT
MDEDH9238544201709                D89828070300PT4D20170916000030SPEAKER ASM                   M IMCTM S9TS02 FTTL  07070IMCT  S9 PTB  00015                    0400 SR        000000000000 FUJITSU TEN (THAILAN17074NU0024024                                                                                                                              *          20170912WMF1709125.TXT
MDEDH9238545201709                D89828070300PT4D20170918000030SPEAKER ASM                   M IMCTM S9TS02 FTTL  07070IMCT  S9 PTB  00015                    2100 SR        000000000000 FUJITSU TEN (THAILAN17083MU0003003                                                                                                                              *          20170912WMF1709125.TXT
MDEDH9238546201709                D89831228800PT1D20170918000015RADIO;AM/FM,CD                M IMCTM S5NC06 FTTL  07070IMCT  S5 PTB  00003                    1300 SR        000000000000 FUJITSU TEN (THAILAN17013ML0001001                                                                                                                              *          20170912WMF1709125.TXT
MDEDH9238547201709                D89848581800PT4D20170916000015RADIO;AM/FM CD D              M IMCTM S9CO001FTTL  07070IMCT  S9 PTB  00003                    0400 SR        000000000000 FUJITSU TEN (THAILAN17074NU0024024                                                                                                                              *          20170912WMF1709125.TXT
MDEUH9237963201709                D89828070100PT4U20170915000030SPEAKER ASM                   M IMCTM S0FL05 FTTL  07070IMCT  S0 PTB  00004                    2230 SR        000000000000 FUJITSU TEN (THAILAN18078SU0035035                                                                                                                              *          20170912WMF1709125.TXT
MDEUH9237964201709                D89828070100PT4U20170916000030SPEAKER ASM                   M IMCTM S0FL05 FTTL  07070IMCT  S0 PTB  00004                    0230 SR        000000000000 FUJITSU TEN (THAILAN18078SU0036036                                                                                                                              *          20170912WMF1709125.TXT
MDEUH9237965201709                D89828070100PT4U20170916000030SPEAKER ASM                   M IMCTM S0FL05 FTTL  07070IMCT  S0 PTB  00004                    0400 SR        000000000000 FUJITSU TEN (THAILAN18078SU0037037                                                                                                                              *          20170912WMF1709125.TXT
MDEUH9237966201709                D89828070100PT4U20170918000060SPEAKER ASM                   M IMCTM S0FL05 FTTL  07070IMCT  S0 PTB  00004                    0830 SR        000000000000 FUJITSU TEN (THAILAN18078SU0038039                                                                                                                              *          20170912WMF1709125.TXT
MDEUH9237967201709                D89828070100PT4U20170918000060SPEAKER ASM                   M IMCTM S0FL05 FTTL  07070IMCT  S0 PTB  00004                    1600 SR        000000000000 FUJITSU TEN (THAILAN18078SU0040041                                                                                                                              *          20170912WMF1709125.TXT
MDEUH9237968201709                D89828070100PT4U20170918000030SPEAKER ASM                   M IMCTM S0FL05 FTTL  07070IMCT  S0 PTB  00004                    2230 SR        000000000000 FUJITSU TEN (THAILAN18078SU0042042                                                                                                                              *          20170912WMF1709125.TXT
MDEUH9237969201709                D89828070200PV4U20170915000030SPEAKER ASM                   M IMCTM S0FR05 FTTL  07070IMCT  S0 PTB  00005                    2230 SR        000000000000 FUJITSU TEN (THAILAN18078SU0035035                                                                                                                              *          20170912WMF1709125.TXT
MDEUH9237970201709                D89828070200PV4U20170916000030SPEAKER ASM                   M IMCTM S0FR05 FTTL  07070IMCT  S0 PTB  00005                    0230 SR        000000000000 FUJITSU TEN (THAILAN18078SU0036036                                                                                                                              *          20170912WMF1709125.TXT
MDEUH9237971201709                D89828070200PV4U20170916000030SPEAKER ASM                   M IMCTM S0FR05 FTTL  07070IMCT  S0 PTB  00005                    0400 SR        000000000000 FUJITSU TEN (THAILAN18078SU0037037                                                                                                                              *          20170912WMF1709125.TXT
MDEUH9237972201709                D89828070200PV4U20170918000060SPEAKER ASM                   M IMCTM S0FR05 FTTL  07070IMCT  S0 PTB  00005                    0830 SR        000000000000 FUJITSU TEN (THAILAN18078SU0038039                                                                                                                              *          20170912WMF1709125.TXT
MDEUH9237973201709                D89828070200PV4U20170918000060SPEAKER ASM                   M IMCTM S0FR05 FTTL  07070IMCT  S0 PTB  00005                    1600 SR        000000000000 FUJITSU TEN (THAILAN18078SU0040041                                                                                                                              *          20170912WMF1709125.TXT
MDEUH9237974201709                D89828070200PV4U20170918000030SPEAKER ASM                   M IMCTM S0FR05 FTTL  07070IMCT  S0 PTB  00005                    2230 SR        000000000000 FUJITSU TEN (THAILAN18078SU0042042                                                                                                                              *          20170912WMF1709125.TXT
MDEUH9237975201709                D89828070300PT4U20170915000030SPEAKER ASM                   M IMCTM S9TS02 FTTL  07070IMCT  S9 PTB  00015                    2230 SR        000000000000 FUJITSU TEN (THAILAN18078SU0035035                                                                                                                              *          20170912WMF1709125.TXT
MDEUH9237976201709                D89828070300PT4U20170916000030SPEAKER ASM                   M IMCTM S9TS02 FTTL  07070IMCT  S9 PTB  00015                    0230 SR        000000000000 FUJITSU TEN (THAILAN18078SU0036036                                                                                                                              *          20170912WMF1709125.TXT
MDEUH9237977201709                D89828070300PT4U20170916000030SPEAKER ASM                   M IMCTM S9TS02 FTTL  07070IMCT  S9 PTB  00015                    0400 SR        000000000000 FUJITSU TEN (THAILAN18078SU0037037                                                                                                                              *          20170912WMF1709125.TXT
MDEUH9237978201709                D89828070300PT4U20170918000060SPEAKER ASM                   M IMCTM S9TS02 FTTL  07070IMCT  S9 PTB  00015                    0830 SR        000000000000 FUJITSU TEN (THAILAN18078SU0038039                                                                                                                              *          20170912WMF1709125.TXT
MDEUH9237979201709                D89828070300PT4U20170918000060SPEAKER ASM                   M IMCTM S9TS02 FTTL  07070IMCT  S9 PTB  00015                    1600 SR        000000000000 FUJITSU TEN (THAILAN18078SU0040041                                                                                                                              *          20170912WMF1709125.TXT
MDEUH9237980201709                D89828070300PT4U20170918000030SPEAKER ASM                   M IMCTM S9TS02 FTTL  07070IMCT  S9 PTB  00015                    2230 SR        000000000000 FUJITSU TEN (THAILAN18078SU0042042                                                                                                                              *          20170912WMF1709125.TXT
