REC2017090620170906ISUZU                              61     
MDDDH9212498201709                D89821984430PT1D20170909000030RADIO;AM/FM,CD                M IMCTM S5NC06 FTTL  07070IMCT  S5 PTB  00005                    2230 SR        000000000000 FUJITSU TEN (THAILAN170KPAL0189189                                                                                                                              *          20170906WMF1709063.TXT
MDDDH9212499201709                D89821984430PT1D20170911000030RADIO;AM/FM,CD                M IMCTM S5NC06 FTTL  07070IMCT  S5 PTB  00005                    1030 SR        000000000000 FUJITSU TEN (THAILAN170KPAL0190190                                                                                                                              *          20170906WMF1709063.TXT
MDDDH9212500201709                D89828070100PV1D20170909000060SPEAKER ASM                   M IMCTM S5MB11 FTTL  07070IMCT  S5 PTB  00004                    2230 SR        000000000000 FUJITSU TEN (THAILAN170KPAL0189189                                                                                                                              *          20170906WMF1709063.TXT
MDDDH9212501201709                D89828070100PV1D20170910000060SPEAKER ASM                   M IMCTM S5MB11 FTTL  07070IMCT  S5 PTB  00004                    0400 SR        000000000000 FUJITSU TEN (THAILAN170KNAL0083083                                                                                                                              *          20170906WMF1709063.TXT
MDDDH9212502201709                D89828070100PV1D20170911000060SPEAKER ASM                   M IMCTM S5MB11 FTTL  07070IMCT  S5 PTB  00004                    1030 SR        000000000000 FUJITSU TEN (THAILAN170KPAL0190190                                                                                                                              *          20170906WMF1709063.TXT
MDDDH9212503201709                D89828070100PV1D20170911000120SPEAKER ASM                   M IMCTM S5MB11 FTTL  07070IMCT  S5 PTB  00004                    1300 SR        000000000000 FUJITSU TEN (THAILAN170KPFL0213213170KRFL0125125                                                                                                                *          20170906WMF1709063.TXT
MDDDH9212504201709                D89828070100PV1D20170911000060SPEAKER ASM                   M IMCTM S5MB11 FTTL  07070IMCT  S5 PTB  00004                    2100 SR        000000000000 FUJITSU TEN (THAILAN170KPCL0087087                                                                                                                              *          20170906WMF1709063.TXT
MDDDH9212505201709                D89828070200PV1D20170911000060SPEAKER ASM                   M IMCTM S5MA14 FTTL  07070IMCT  S5 PTB  00005                    1300 SR        000000000000 FUJITSU TEN (THAILAN170KRFL0125125                                                                                                                              *          20170906WMF1709063.TXT
MDDDH9212506201709                D89828070300PT1D20170911000120SPEAKER ASM                   M IMCTM S5NB082FTTL  07070IMCT  S5 PTB  00015                    1300 SR        000000000000 FUJITSU TEN (THAILAN170KPFL0213213170KRFL0125125                                                                                                                *          20170906WMF1709063.TXT
MDDDH9212507201709                D89828070300PT1D20170911000060SPEAKER ASM                   M IMCTM S5NB082FTTL  07070IMCT  S5 PTB  00015                    2100 SR        000000000000 FUJITSU TEN (THAILAN170KPCL0087087                                                                                                                              *          20170906WMF1709063.TXT
MDDDH9212508201709                D89829645910PT1D20170911000030RADIO;ASM DVD                 M IMCTM S5NC06 FTTL  07070IMCT  S5 PTB  00003                    1300 SR        000000000000 FUJITSU TEN (THAILAN170KRFL0125125                                                                                                                              *          20170906WMF1709063.TXT
MDDDH9212509201709                D89831228300PT1D20170911000030RADIO;AM/FM,CD                M IMCTM S5NC06 FTTL  07070IMCT  S5 CPB  00003                    1300 SR        000000000000 FUJITSU TEN (THAILAN170KPFL0213213                                                                                                                              *          20170906WMF1709063.TXT
MDDDH9212510201709                D89831228300PT1D20170911000030RADIO;AM/FM,CD                M IMCTM S5NC06 FTTL  07070IMCT  S5 CPB  00003                    2100 SR        000000000000 FUJITSU TEN (THAILAN170KPCL0087087                                                                                                                              *          20170906WMF1709063.TXT
MDDUH9208448201709                D89828070100PT4U20170909000030SPEAKER ASM                   M IMCTM S0FL05 FTTL  07070IMCT  S0 PTB  00004                    2230 SR        000000000000 FUJITSU TEN (THAILAN180LUCU0078078                                                                                                                              *          20170906WMF1709063.TXT
MDDUH9208449201709                D89828070100PT4U20170911000030SPEAKER ASM                   M IMCTM S0FL05 FTTL  07070IMCT  S0 PTB  00004                    1600 SR        000000000000 FUJITSU TEN (THAILAN180LUFU0048048                                                                                                                              *          20170906WMF1709063.TXT
MDDUH9208450201709                D89828070200PV4U20170909000030SPEAKER ASM                   M IMCTM S0FR05 FTTL  07070IMCT  S0 PTB  00005                    2230 SR        000000000000 FUJITSU TEN (THAILAN180LUCU0078078                                                                                                                              *          20170906WMF1709063.TXT
MDDUH9208451201709                D89828070200PV4U20170911000030SPEAKER ASM                   M IMCTM S0FR05 FTTL  07070IMCT  S0 PTB  00005                    1600 SR        000000000000 FUJITSU TEN (THAILAN180LUFU0048048                                                                                                                              *          20170906WMF1709063.TXT
MDDUH9208452201709                D89828070300PT4U20170909000030SPEAKER ASM                   M IMCTM S9TS02 FTTL  07070IMCT  S9 PTB  00015                    2230 SR        000000000000 FUJITSU TEN (THAILAN180LUCU0078078                                                                                                                              *          20170906WMF1709063.TXT
MDDUH9208453201709                D89828070300PT4U20170911000030SPEAKER ASM                   M IMCTM S9TS02 FTTL  07070IMCT  S9 PTB  00015                    1600 SR        000000000000 FUJITSU TEN (THAILAN180LUFU0048048                                                                                                                              *          20170906WMF1709063.TXT
MDDUH9208454201709                D89835097910PT4U20170909000015RADIO;ASM DVD                 M IMCTM S9TS01 FTTL  07070IMCT  S9 PTB  00003                    2230 SR        000000000000 FUJITSU TEN (THAILAN180LUCU0078078                                                                                                                              *          20170906WMF1709063.TXT
MDEDH9214770201709                D89828070100PV1D20170909000030SPEAKER ASM                   M IMCTM S5MB11 FTTL  07070IMCT  S5 PTB  00004                    2230 SR        000000000000 FUJITSU TEN (THAILAN17016VL0008008                                                                                                                              *          20170906WMF1709063.TXT
MDEDH9214771201709                D89828070100PV1D20170910000060SPEAKER ASM                   M IMCTM S5MB11 FTTL  07070IMCT  S5 PTB  00004                    0230 SR        000000000000 FUJITSU TEN (THAILAN17016VL000900917056NL0039039                                                                                                                *          20170906WMF1709063.TXT
MDEDH9214772201709                D89828070100PV1D20170910000030SPEAKER ASM                   M IMCTM S5MB11 FTTL  07070IMCT  S5 PTB  00004                    0400 SR        000000000000 FUJITSU TEN (THAILAN17056NL0040040                                                                                                                              *          20170906WMF1709063.TXT
MDEDH9214773201709                D89828070100PV1D20170911000090SPEAKER ASM                   M IMCTM S5MB11 FTTL  07070IMCT  S5 PTB  00004                    0830 SR        000000000000 FUJITSU TEN (THAILAN17028RL001201217050ML003003017059NL0015015                                                                                                  *          20170906WMF1709063.TXT
MDEDH9214774201709                D89828070100PV1D20170911000030SPEAKER ASM                   M IMCTM S5MB11 FTTL  07070IMCT  S5 PTB  00004                    1300 SR        000000000000 FUJITSU TEN (THAILAN17067ML0003003                                                                                                                              *          20170906WMF1709063.TXT
MDEDH9214775201709                D89828070100PV1D20170911000060SPEAKER ASM                   M IMCTM S5MB11 FTTL  07070IMCT  S5 PTB  00004                    1600 SR        000000000000 FUJITSU TEN (THAILAN17033QL0011012                                                                                                                              *          20170906WMF1709063.TXT
MDEDH9214776201709                D89828070100PV4D20170909000030SPEAKER ASM                   M IMCTM S0FL05 FTTL  07070IMCT  S0 PTB  00004                    2230 SR        000000000000 FUJITSU TEN (THAILAN17080NU0055055                                                                                                                              *          20170906WMF1709063.TXT
MDEDH9214777201709                D89828070200PV1D20170911000030SPEAKER ASM                   M IMCTM S5MA14 FTTL  07070IMCT  S5 PTB  00005                    0830 SR        000000000000 FUJITSU TEN (THAILAN17059NL0015015                                                                                                                              *          20170906WMF1709063.TXT
MDEDH9214778201709                D89828070200PV1D20170911000060SPEAKER ASM                   M IMCTM S5MA14 FTTL  07070IMCT  S5 PTB  00005                    1600 SR        000000000000 FUJITSU TEN (THAILAN17033QL0011012                                                                                                                              *          20170906WMF1709063.TXT
MDEDH9214779201709                D89828070200PV4D20170909000030SPEAKER ASM                   M IMCTM S0FR05 FTTL  07070IMCT  S0 PTB  00005                    2230 SR        000000000000 FUJITSU TEN (THAILAN17080NU0055055                                                                                                                              *          20170906WMF1709063.TXT
MDEDH9214780201709                D89828070300PT1D20170910000030SPEAKER ASM                   M IMCTM S5NB082FTTL  07070IMCT  S5 PTB  00015                    0230 SR        000000000000 FUJITSU TEN (THAILAN17056NL0039039                                                                                                                              *          20170906WMF1709063.TXT
MDEDH9214781201709                D89828070300PT1D20170910000030SPEAKER ASM                   M IMCTM S5NB082FTTL  07070IMCT  S5 PTB  00015                    0400 SR        000000000000 FUJITSU TEN (THAILAN17056NL0040040                                                                                                                              *          20170906WMF1709063.TXT
MDEDH9214782201709                D89828070300PT1D20170911000030SPEAKER ASM                   M IMCTM S5NB082FTTL  07070IMCT  S5 PTB  00015                    0830 SR        000000000000 FUJITSU TEN (THAILAN17059NL0015015                                                                                                                              *          20170906WMF1709063.TXT
MDEDH9214783201709                D89828070300PT1D20170911000030SPEAKER ASM                   M IMCTM S5NB082FTTL  07070IMCT  S5 PTB  00015                    1300 SR        000000000000 FUJITSU TEN (THAILAN17067ML0003003                                                                                                                              *          20170906WMF1709063.TXT
MDEDH9214784201709                D89828070300PT1D20170911000060SPEAKER ASM                   M IMCTM S5NB082FTTL  07070IMCT  S5 PTB  00015                    1600 SR        000000000000 FUJITSU TEN (THAILAN17033QL0011012                                                                                                                              *          20170906WMF1709063.TXT
MDEDH9214785201709                D89828070300PT4D20170909000030SPEAKER ASM                   M IMCTM S9TS02 FTTL  07070IMCT  S9 PTB  00015                    2230 SR        000000000000 FUJITSU TEN (THAILAN17080NU0055055                                                                                                                              *          20170906WMF1709063.TXT
MDEDH9214786201709                D89829622410PT1D20170911000015RADIO;ASM DVD                 M IMCTM S5NC06 FTTL  07070IMCT  S5 PTB  00003                    1300 SR        000000000000 FUJITSU TEN (THAILAN17067ML0003003                                                                                                                              *          20170906WMF1709063.TXT
MDEDH9214787201709                D89831229200PT1D20170911000030RADIO;AM/FM,CD                M IMCTM S5NC06 FTTL  07070IMCT  S5 PTB  00003                    1600 SR        000000000000 FUJITSU TEN (THAILAN17033QL0011012                                                                                                                              *          20170906WMF1709063.TXT
MDEDH9214788201709                D89848582500PT1D20170910000015RADIO;AM/FM CD D              M IMCTM S5NC06 FTTL  07070IMCT  S5 PTB  00003                    0230 SR        000000000000 FUJITSU TEN (THAILAN17056NL0039039                                                                                                                              *          20170906WMF1709063.TXT
MDEDH9214789201709                D89848582500PT1D20170910000015RADIO;AM/FM CD D              M IMCTM S5NC06 FTTL  07070IMCT  S5 PTB  00003                    0400 SR        000000000000 FUJITSU TEN (THAILAN17056NL0040040                                                                                                                              *          20170906WMF1709063.TXT
MDEUH9212834201709                D89828070100PT4U20170909000030SPEAKER ASM                   M IMCTM S0FL05 FTTL  07070IMCT  S0 PTB  00004                    2230 SR        000000000000 FUJITSU TEN (THAILAN18078SU0017017                                                                                                                              *          20170906WMF1709063.TXT
MDEUH9212835201709                D89828070100PT4U20170910000030SPEAKER ASM                   M IMCTM S0FL05 FTTL  07070IMCT  S0 PTB  00004                    0230 SR        000000000000 FUJITSU TEN (THAILAN18023TU0167167                                                                                                                              *          20170906WMF1709063.TXT
MDEUH9212836201709                D89828070100PT4U20170910000030SPEAKER ASM                   M IMCTM S0FL05 FTTL  07070IMCT  S0 PTB  00004                    0400 SR        000000000000 FUJITSU TEN (THAILAN18078SU0018018                                                                                                                              *          20170906WMF1709063.TXT
MDEUH9212837201709                D89828070100PT4U20170911000030SPEAKER ASM                   M IMCTM S0FL05 FTTL  07070IMCT  S0 PTB  00004                    0830 SR        000000000000 FUJITSU TEN (THAILAN18023TU0168168                                                                                                                              *          20170906WMF1709063.TXT
MDEUH9212838201709                D89828070100PT4U20170911000030SPEAKER ASM                   M IMCTM S0FL05 FTTL  07070IMCT  S0 PTB  00004                    1030 SR        000000000000 FUJITSU TEN (THAILAN18078SU0019019                                                                                                                              *          20170906WMF1709063.TXT
MDEUH9212839201709                D89828070100PT4U20170911000060SPEAKER ASM                   M IMCTM S0FL05 FTTL  07070IMCT  S0 PTB  00004                    1300 SR        000000000000 FUJITSU TEN (THAILAN18078SU0020021                                                                                                                              *          20170906WMF1709063.TXT
MDEUH9212840201709                D89828070100PT4U20170911000030SPEAKER ASM                   M IMCTM S0FL05 FTTL  07070IMCT  S0 PTB  00004                    2100 SR        000000000000 FUJITSU TEN (THAILAN18078SU0022022                                                                                                                              *          20170906WMF1709063.TXT
MDEUH9212841201709                D89828070200PV4U20170909000030SPEAKER ASM                   M IMCTM S0FR05 FTTL  07070IMCT  S0 PTB  00005                    2230 SR        000000000000 FUJITSU TEN (THAILAN18078SU0017017                                                                                                                              *          20170906WMF1709063.TXT
MDEUH9212842201709                D89828070200PV4U20170910000030SPEAKER ASM                   M IMCTM S0FR05 FTTL  07070IMCT  S0 PTB  00005                    0230 SR        000000000000 FUJITSU TEN (THAILAN18023TU0167167                                                                                                                              *          20170906WMF1709063.TXT
MDEUH9212843201709                D89828070200PV4U20170910000030SPEAKER ASM                   M IMCTM S0FR05 FTTL  07070IMCT  S0 PTB  00005                    0400 SR        000000000000 FUJITSU TEN (THAILAN18078SU0018018                                                                                                                              *          20170906WMF1709063.TXT
MDEUH9212844201709                D89828070200PV4U20170911000030SPEAKER ASM                   M IMCTM S0FR05 FTTL  07070IMCT  S0 PTB  00005                    0830 SR        000000000000 FUJITSU TEN (THAILAN18023TU0168168                                                                                                                              *          20170906WMF1709063.TXT
MDEUH9212845201709                D89828070200PV4U20170911000030SPEAKER ASM                   M IMCTM S0FR05 FTTL  07070IMCT  S0 PTB  00005                    1030 SR        000000000000 FUJITSU TEN (THAILAN18078SU0019019                                                                                                                              *          20170906WMF1709063.TXT
MDEUH9212846201709                D89828070200PV4U20170911000060SPEAKER ASM                   M IMCTM S0FR05 FTTL  07070IMCT  S0 PTB  00005                    1300 SR        000000000000 FUJITSU TEN (THAILAN18078SU0020021                                                                                                                              *          20170906WMF1709063.TXT
MDEUH9212847201709                D89828070200PV4U20170911000030SPEAKER ASM                   M IMCTM S0FR05 FTTL  07070IMCT  S0 PTB  00005                    2100 SR        000000000000 FUJITSU TEN (THAILAN18078SU0022022                                                                                                                              *          20170906WMF1709063.TXT
MDEUH9212848201709                D89828070300PT4U20170909000030SPEAKER ASM                   M IMCTM S9TS02 FTTL  07070IMCT  S9 PTB  00015                    2230 SR        000000000000 FUJITSU TEN (THAILAN18078SU0017017                                                                                                                              *          20170906WMF1709063.TXT
MDEUH9212849201709                D89828070300PT4U20170910000030SPEAKER ASM                   M IMCTM S9TS02 FTTL  07070IMCT  S9 PTB  00015                    0230 SR        000000000000 FUJITSU TEN (THAILAN18023TU0167167                                                                                                                              *          20170906WMF1709063.TXT
MDEUH9212850201709                D89828070300PT4U20170910000030SPEAKER ASM                   M IMCTM S9TS02 FTTL  07070IMCT  S9 PTB  00015                    0400 SR        000000000000 FUJITSU TEN (THAILAN18078SU0018018                                                                                                                              *          20170906WMF1709063.TXT
MDEUH9212851201709                D89828070300PT4U20170911000030SPEAKER ASM                   M IMCTM S9TS02 FTTL  07070IMCT  S9 PTB  00015                    0830 SR        000000000000 FUJITSU TEN (THAILAN18023TU0168168                                                                                                                              *          20170906WMF1709063.TXT
MDEUH9212852201709                D89828070300PT4U20170911000030SPEAKER ASM                   M IMCTM S9TS02 FTTL  07070IMCT  S9 PTB  00015                    1030 SR        000000000000 FUJITSU TEN (THAILAN18078SU0019019                                                                                                                              *          20170906WMF1709063.TXT
MDEUH9212853201709                D89828070300PT4U20170911000060SPEAKER ASM                   M IMCTM S9TS02 FTTL  07070IMCT  S9 PTB  00015                    1300 SR        000000000000 FUJITSU TEN (THAILAN18078SU0020021                                                                                                                              *          20170906WMF1709063.TXT
MDEUH9212854201709                D89828070300PT4U20170911000030SPEAKER ASM                   M IMCTM S9TS02 FTTL  07070IMCT  S9 PTB  00015                    2100 SR        000000000000 FUJITSU TEN (THAILAN18078SU0022022                                                                                                                              *          20170906WMF1709063.TXT
