REC2017092720170927ISUZU                              60     
MDDUH9241414201710                D89828070100PT4U20171003000030SPEAKER ASM                   M IMCTM S0FL05 FTTL  07070IMCT  S0 PTB  00004                    0400 SR        000000000000 FUJITSU TEN (THAILAN180LUHU0001001                                                                                                                              *          20170927WMF1709274.TXT
MDDUH9241415201710                D89828070100PT4U20171003000030SPEAKER ASM                   M IMCTM S0FL05 FTTL  07070IMCT  S0 PTB  00004                    1300 SR        000000000000 FUJITSU TEN (THAILAN180LUFU0052052                                                                                                                              *          20170927WMF1709274.TXT
MDDUH9241416201710                D89828070200PV4U20171003000030SPEAKER ASM                   M IMCTM S0FR05 FTTL  07070IMCT  S0 PTB  00005                    0400 SR        000000000000 FUJITSU TEN (THAILAN180LUHU0001001                                                                                                                              *          20170927WMF1709274.TXT
MDDUH9241417201710                D89828070200PV4U20171003000030SPEAKER ASM                   M IMCTM S0FR05 FTTL  07070IMCT  S0 PTB  00005                    1300 SR        000000000000 FUJITSU TEN (THAILAN180LUFU0052052                                                                                                                              *          20170927WMF1709274.TXT
MDDUH9241418201710                D89828070300PT4U20171003000030SPEAKER ASM                   M IMCTM S9TS02 FTTL  07070IMCT  S9 PTB  00015                    0400 SR        000000000000 FUJITSU TEN (THAILAN180LUHU0001001                                                                                                                              *          20170927WMF1709274.TXT
MDDUH9241419201710                D89828070300PT4U20171003000030SPEAKER ASM                   M IMCTM S9TS02 FTTL  07070IMCT  S9 PTB  00015                    1300 SR        000000000000 FUJITSU TEN (THAILAN180LUFU0052052                                                                                                                              *          20170927WMF1709274.TXT
MDDUH9241420201710                D89848584200PT4U20171003000015RADIO;AM/FM CD D              M IMCTM S9CO001FTTL  07070IMCT  S9*X    00030                    0400 SR        000000000000 FUJITSU TEN (THAILAN180LUHU0001001                                                                                                                              *          20170927WMF1709274.TXT
MDEDH9303134201710                D89828070100PV1D20171002000120SPEAKER ASM                   M IMCTM S5MB11 FTTL  07070IMCT  S5 PTB  00004                    2230 SR        000000000000 FUJITSU TEN (THAILAN17016VL001501517050RL001901917053NL005405417067WL0004004                                                                                    *          20170927WMF1709274.TXT
MDEDH9303135201710                D89828070100PV1D20171003000060SPEAKER ASM                   M IMCTM S5MB11 FTTL  07070IMCT  S5 PTB  00004                    0230 SR        000000000000 FUJITSU TEN (THAILAN17007RL000500517016VL0016016                                                                                                                *          20170927WMF1709274.TXT
MDEDH9303136201710                D89828070100PV1D20171003000090SPEAKER ASM                   M IMCTM S5MB11 FTTL  07070IMCT  S5 PTB  00004                    0400 SR        000000000000 FUJITSU TEN (THAILAN17029NL001501517052RL0017018                                                                                                                *          20170927WMF1709274.TXT
MDEDH9303137201710                D89828070100PV1D20171003000090SPEAKER ASM                   M IMCTM S5MB11 FTTL  07070IMCT  S5 PTB  00004                    0830 SR        000000000000 FUJITSU TEN (THAILAN17074NL007007117077PL0013013                                                                                                                *          20170927WMF1709274.TXT
MDEDH9303138201710                D89828070100PV1D20171003000060SPEAKER ASM                   M IMCTM S5MB11 FTTL  07070IMCT  S5 PTB  00004                    1030 SR        000000000000 FUJITSU TEN (THAILAN17001NL001701717055NL0055055                                                                                                                *          20170927WMF1709274.TXT
MDEDH9303139201710                D89828070100PV1D20171003000120SPEAKER ASM                   M IMCTM S5MB11 FTTL  07070IMCT  S5 PTB  00004                    1300 SR        000000000000 FUJITSU TEN (THAILAN17001NL001801817028RL001301317055NL005605617060NL0036036                                                                                    *          20170927WMF1709274.TXT
MDEDH9303140201710                D89828070100PV1D20171003000180SPEAKER ASM                   M IMCTM S5MB11 FTTL  07070IMCT  S5 PTB  00004                    1600 SR        000000000000 FUJITSU TEN (THAILAN17027NL000200217040ML000300317061PL002102117067WL000500517080NL0098099                                                                      *          20170927WMF1709274.TXT
MDEDH9303141201710                D89828070100PV1D20171003000060SPEAKER ASM                   M IMCTM S5MB11 FTTL  07070IMCT  S5 PTB  00004                    2100 SR        000000000000 FUJITSU TEN (THAILAN17028NL001601617068ML0013013                                                                                                                *          20170927WMF1709274.TXT
MDEDH9303142201710                D89828070100PV1D20171003000030SPEAKER ASM                   M IMCTM S5MB11 FTTL  07070IMCT  S5 PTB  00004                    2230 SR        000000000000 FUJITSU TEN (THAILAN17054ML0004004                                                                                                                              *          20170927WMF1709274.TXT
MDEDH9303143201710                D89828070100PV4D20171003000030SPEAKER ASM                   M IMCTM S0FL05 FTTL  07070IMCT  S0 PTB  00004                    1300 SR        000000000000 FUJITSU TEN (THAILAN17064NU0009009                                                                                                                              *          20170927WMF1709274.TXT
MDEDH9303144201710                D89828070200PV1D20171002000060SPEAKER ASM                   M IMCTM S5MA14 FTTL  07070IMCT  S5 PTB  00005                    2230 SR        000000000000 FUJITSU TEN (THAILAN17050RL001901917067WL0004004                                                                                                                *          20170927WMF1709274.TXT
MDEDH9303145201710                D89828070200PV1D20171003000060SPEAKER ASM                   M IMCTM S5MA14 FTTL  07070IMCT  S5 PTB  00005                    0830 SR        000000000000 FUJITSU TEN (THAILAN17074NL0070071                                                                                                                              *          20170927WMF1709274.TXT
MDEDH9303146201710                D89828070200PV1D20171003000030SPEAKER ASM                   M IMCTM S5MA14 FTTL  07070IMCT  S5 PTB  00005                    1030 SR        000000000000 FUJITSU TEN (THAILAN17001NL0017017                                                                                                                              *          20170927WMF1709274.TXT
MDEDH9303147201710                D89828070200PV1D20171003000060SPEAKER ASM                   M IMCTM S5MA14 FTTL  07070IMCT  S5 PTB  00005                    1300 SR        000000000000 FUJITSU TEN (THAILAN17001NL001801817060NL0036036                                                                                                                *          20170927WMF1709274.TXT
MDEDH9303148201710                D89828070200PV1D20171003000090SPEAKER ASM                   M IMCTM S5MA14 FTTL  07070IMCT  S5 PTB  00005                    1600 SR        000000000000 FUJITSU TEN (THAILAN17067WL000500517080NL0098099                                                                                                                *          20170927WMF1709274.TXT
MDEDH9303149201710                D89828070300PT1D20171002000090SPEAKER ASM                   M IMCTM S5NB082FTTL  07070IMCT  S5 PTB  00015                    2230 SR        000000000000 FUJITSU TEN (THAILAN17050RL001901917053NL005405417067WL0004004                                                                                                  *          20170927WMF1709274.TXT
MDEDH9303150201710                D89828070300PT1D20171003000030SPEAKER ASM                   M IMCTM S5NB082FTTL  07070IMCT  S5 PTB  00015                    0400 SR        000000000000 FUJITSU TEN (THAILAN17029NL0015015                                                                                                                              *          20170927WMF1709274.TXT
MDEDH9303151201710                D89828070300PT1D20171003000060SPEAKER ASM                   M IMCTM S5NB082FTTL  07070IMCT  S5 PTB  00015                    0830 SR        000000000000 FUJITSU TEN (THAILAN17074NL0070071                                                                                                                              *          20170927WMF1709274.TXT
MDEDH9303152201710                D89828070300PT1D20171003000060SPEAKER ASM                   M IMCTM S5NB082FTTL  07070IMCT  S5 PTB  00015                    1030 SR        000000000000 FUJITSU TEN (THAILAN17001NL001701717055NL0055055                                                                                                                *          20170927WMF1709274.TXT
MDEDH9303153201710                D89828070300PT1D20171003000090SPEAKER ASM                   M IMCTM S5NB082FTTL  07070IMCT  S5 PTB  00015                    1300 SR        000000000000 FUJITSU TEN (THAILAN17001NL001801817055NL005605617060NL0036036                                                                                                  *          20170927WMF1709274.TXT
MDEDH9303154201710                D89828070300PT1D20171003000090SPEAKER ASM                   M IMCTM S5NB082FTTL  07070IMCT  S5 PTB  00015                    1600 SR        000000000000 FUJITSU TEN (THAILAN17067WL000500517080NL0098099                                                                                                                *          20170927WMF1709274.TXT
MDEDH9303155201710                D89828070300PT1D20171003000030SPEAKER ASM                   M IMCTM S5NB082FTTL  07070IMCT  S5 PTB  00015                    2100 SR        000000000000 FUJITSU TEN (THAILAN17068ML0013013                                                                                                                              *          20170927WMF1709274.TXT
MDEDH9303156201710                D89828070300PT4D20171003000030SPEAKER ASM                   M IMCTM S9TS02 FTTL  07070IMCT  S9 PTB  00015                    1300 SR        000000000000 FUJITSU TEN (THAILAN17064NU0009009                                                                                                                              *          20170927WMF1709274.TXT
MDEDH9303157201710                D89829622410PT1D20171003000015RADIO;ASM DVD                 M IMCTM S5NC06 FTTL  07070IMCT  S5 PTB  00003                    2100 SR        000000000000 FUJITSU TEN (THAILAN17068ML0013013                                                                                                                              *          20170927WMF1709274.TXT
MDEDH9303158201710                D89829645410PT1D20171002000015RADIO;ASM DVD                 M IMCTM S5NC06 FTTL  07070IMCT  S5 PTB  00003                    2230 SR        000000000000 FUJITSU TEN (THAILAN17050RL0019019                                                                                                                              *          20170927WMF1709274.TXT
MDEDH9303159201710                D89831228800PT1D20171003000015RADIO;AM/FM,CD                M IMCTM S5NC06 FTTL  07070IMCT  S5 PTB  00003                    1030 SR        000000000000 FUJITSU TEN (THAILAN17001NL0017017                                                                                                                              *          20170927WMF1709274.TXT
MDEDH9303160201710                D89831228800PT1D20171003000015RADIO;AM/FM,CD                M IMCTM S5NC06 FTTL  07070IMCT  S5 PTB  00003                    1300 SR        000000000000 FUJITSU TEN (THAILAN17001NL0018018                                                                                                                              *          20170927WMF1709274.TXT
MDEDH9303161201710                D89848581800PT1D20171002000015RADIO;AM/FM CD D              M IMCTM S5NC06 FTTL  07070IMCT  S5 PTB  00003                    2230 SR        000000000000 FUJITSU TEN (THAILAN17053NL0054054                                                                                                                              *          20170927WMF1709274.TXT
MDEDH9303162201710                D89848581800PT1D20171003000030RADIO;AM/FM CD D              M IMCTM S5NC06 FTTL  07070IMCT  S5 PTB  00003                    0830 SR        000000000000 FUJITSU TEN (THAILAN17074NL0070071                                                                                                                              *          20170927WMF1709274.TXT
MDEDH9303163201710                D89848581800PT1D20171003000015RADIO;AM/FM CD D              M IMCTM S5NC06 FTTL  07070IMCT  S5 PTB  00003                    1030 SR        000000000000 FUJITSU TEN (THAILAN17055NL0055055                                                                                                                              *          20170927WMF1709274.TXT
MDEDH9303164201710                D89848581800PT1D20171003000015RADIO;AM/FM CD D              M IMCTM S5NC06 FTTL  07070IMCT  S5 PTB  00003                    1300 SR        000000000000 FUJITSU TEN (THAILAN17055NL0056056                                                                                                                              *          20170927WMF1709274.TXT
MDEDH9303165201710                D89848581800PT4D20171003000015RADIO;AM/FM CD D              M IMCTM S9CO001FTTL  07070IMCT  S9 PTB  00003                    1300 SR        000000000000 FUJITSU TEN (THAILAN17064NU0009009                                                                                                                              *          20170927WMF1709274.TXT
MDEUH9282240201710                D89828070100PT4U20171002000060SPEAKER ASM                   M IMCTM S0FL05 FTTL  07070IMCT  S0 PTB  00004                    2230 SR        000000000000 FUJITSU TEN (THAILAN18078SU0103104                                                                                                                              *          20170927WMF1709274.TXT
MDEUH9282241201710                D89828070100PT4U20171003000030SPEAKER ASM                   M IMCTM S0FL05 FTTL  07070IMCT  S0 PTB  00004                    0400 SR        000000000000 FUJITSU TEN (THAILAN18078SU0105105                                                                                                                              *          20170927WMF1709274.TXT
MDEUH9282242201710                D89828070100PT4U20171003000030SPEAKER ASM                   M IMCTM S0FL05 FTTL  07070IMCT  S0 PTB  00004                    0830 SR        000000000000 FUJITSU TEN (THAILAN18078SU0106106                                                                                                                              *          20170927WMF1709274.TXT
MDEUH9282243201710                D89828070100PT4U20171003000030SPEAKER ASM                   M IMCTM S0FL05 FTTL  07070IMCT  S0 PTB  00004                    1030 SR        000000000000 FUJITSU TEN (THAILAN18078SU0107107                                                                                                                              *          20170927WMF1709274.TXT
MDEUH9282244201710                D89828070100PT4U20171003000090SPEAKER ASM                   M IMCTM S0FL05 FTTL  07070IMCT  S0 PTB  00004                    1600 SR        000000000000 FUJITSU TEN (THAILAN18023TU018318318078SU0108109                                                                                                                *          20170927WMF1709274.TXT
MDEUH9282245201710                D89828070100PT4U20171003000030SPEAKER ASM                   M IMCTM S0FL05 FTTL  07070IMCT  S0 PTB  00004                    2100 SR        000000000000 FUJITSU TEN (THAILAN18018TU0048048                                                                                                                              *          20170927WMF1709274.TXT
MDEUH9282246201710                D89828070100PT4U20171003000030SPEAKER ASM                   M IMCTM S0FL05 FTTL  07070IMCT  S0 PTB  00004                    2230 SR        000000000000 FUJITSU TEN (THAILAN18078SU0110110                                                                                                                              *          20170927WMF1709274.TXT
MDEUH9282247201710                D89828070200PV4U20171002000060SPEAKER ASM                   M IMCTM S0FR05 FTTL  07070IMCT  S0 PTB  00005                    2230 SR        000000000000 FUJITSU TEN (THAILAN18078SU0103104                                                                                                                              *          20170927WMF1709274.TXT
MDEUH9282248201710                D89828070200PV4U20171003000030SPEAKER ASM                   M IMCTM S0FR05 FTTL  07070IMCT  S0 PTB  00005                    0400 SR        000000000000 FUJITSU TEN (THAILAN18078SU0105105                                                                                                                              *          20170927WMF1709274.TXT
MDEUH9282249201710                D89828070200PV4U20171003000030SPEAKER ASM                   M IMCTM S0FR05 FTTL  07070IMCT  S0 PTB  00005                    0830 SR        000000000000 FUJITSU TEN (THAILAN18078SU0106106                                                                                                                              *          20170927WMF1709274.TXT
MDEUH9282250201710                D89828070200PV4U20171003000030SPEAKER ASM                   M IMCTM S0FR05 FTTL  07070IMCT  S0 PTB  00005                    1030 SR        000000000000 FUJITSU TEN (THAILAN18078SU0107107                                                                                                                              *          20170927WMF1709274.TXT
MDEUH9282251201710                D89828070200PV4U20171003000090SPEAKER ASM                   M IMCTM S0FR05 FTTL  07070IMCT  S0 PTB  00005                    1600 SR        000000000000 FUJITSU TEN (THAILAN18023TU018318318078SU0108109                                                                                                                *          20170927WMF1709274.TXT
MDEUH9282252201710                D89828070200PV4U20171003000030SPEAKER ASM                   M IMCTM S0FR05 FTTL  07070IMCT  S0 PTB  00005                    2100 SR        000000000000 FUJITSU TEN (THAILAN18018TU0048048                                                                                                                              *          20170927WMF1709274.TXT
MDEUH9282253201710                D89828070200PV4U20171003000030SPEAKER ASM                   M IMCTM S0FR05 FTTL  07070IMCT  S0 PTB  00005                    2230 SR        000000000000 FUJITSU TEN (THAILAN18078SU0110110                                                                                                                              *          20170927WMF1709274.TXT
MDEUH9282254201710                D89828070300PT4U20171002000060SPEAKER ASM                   M IMCTM S9TS02 FTTL  07070IMCT  S9 PTB  00015                    2230 SR        000000000000 FUJITSU TEN (THAILAN18078SU0103104                                                                                                                              *          20170927WMF1709274.TXT
MDEUH9282255201710                D89828070300PT4U20171003000030SPEAKER ASM                   M IMCTM S9TS02 FTTL  07070IMCT  S9 PTB  00015                    0400 SR        000000000000 FUJITSU TEN (THAILAN18078SU0105105                                                                                                                              *          20170927WMF1709274.TXT
MDEUH9282256201710                D89828070300PT4U20171003000030SPEAKER ASM                   M IMCTM S9TS02 FTTL  07070IMCT  S9 PTB  00015                    0830 SR        000000000000 FUJITSU TEN (THAILAN18078SU0106106                                                                                                                              *          20170927WMF1709274.TXT
MDEUH9282257201710                D89828070300PT4U20171003000030SPEAKER ASM                   M IMCTM S9TS02 FTTL  07070IMCT  S9 PTB  00015                    1030 SR        000000000000 FUJITSU TEN (THAILAN18078SU0107107                                                                                                                              *          20170927WMF1709274.TXT
MDEUH9282258201710                D89828070300PT4U20171003000090SPEAKER ASM                   M IMCTM S9TS02 FTTL  07070IMCT  S9 PTB  00015                    1600 SR        000000000000 FUJITSU TEN (THAILAN18023TU018318318078SU0108109                                                                                                                *          20170927WMF1709274.TXT
MDEUH9282259201710                D89828070300PT4U20171003000030SPEAKER ASM                   M IMCTM S9TS02 FTTL  07070IMCT  S9 PTB  00015                    2100 SR        000000000000 FUJITSU TEN (THAILAN18018TU0048048                                                                                                                              *          20170927WMF1709274.TXT
MDEUH9282260201710                D89828070300PT4U20171003000030SPEAKER ASM                   M IMCTM S9TS02 FTTL  07070IMCT  S9 PTB  00015                    2230 SR        000000000000 FUJITSU TEN (THAILAN18078SU0110110                                                                                                                              *          20170927WMF1709274.TXT
