REC2017090420170904ISUZU                              58     
MDDDH9204679201709                D89821984430PT1D20170908000030RADIO;AM/FM,CD                M IMCTM S5NC06 FTTL  07070IMCT  S5 PTB  00005                    0230 SR        000000000000 FUJITSU TEN (THAILAN170KPAL0187187                                                                                                                              *          20170904WMF1709043.TXT
MDDDH9204680201709                D89821984430PT1D20170908000030RADIO;AM/FM,CD                M IMCTM S5NC06 FTTL  07070IMCT  S5 PTB  00005                    1030 SR        000000000000 FUJITSU TEN (THAILAN170KRAL0168168                                                                                                                              *          20170904WMF1709043.TXT
MDDDH9204681201709                D89821984430PT1D20170908000030RADIO;AM/FM,CD                M IMCTM S5NC06 FTTL  07070IMCT  S5 PTB  00005                    1300 SR        000000000000 FUJITSU TEN (THAILAN170KNEL0165165                                                                                                                              *          20170904WMF1709043.TXT
MDDDH9204682201709                D89828070100PV1D20170908000060SPEAKER ASM                   M IMCTM S5MB11 FTTL  07070IMCT  S5 PTB  00004                    0230 SR        000000000000 FUJITSU TEN (THAILAN170KPAL0187187                                                                                                                              *          20170904WMF1709043.TXT
MDDDH9204683201709                D89828070100PV1D20170908000060SPEAKER ASM                   M IMCTM S5MB11 FTTL  07070IMCT  S5 PTB  00004                    0400 SR        000000000000 FUJITSU TEN (THAILAN170KPFL0211211                                                                                                                              *          20170904WMF1709043.TXT
MDDDH9204684201709                D89828070100PV1D20170908000060SPEAKER ASM                   M IMCTM S5MB11 FTTL  07070IMCT  S5 PTB  00004                    1030 SR        000000000000 FUJITSU TEN (THAILAN170KRAL0168168                                                                                                                              *          20170904WMF1709043.TXT
MDDDH9204685201709                D89828070100PV1D20170908000060SPEAKER ASM                   M IMCTM S5MB11 FTTL  07070IMCT  S5 PTB  00004                    1300 SR        000000000000 FUJITSU TEN (THAILAN170KNEL0165165                                                                                                                              *          20170904WMF1709043.TXT
MDDDH9204686201709                D89828070100PV1D20170908000060SPEAKER ASM                   M IMCTM S5MB11 FTTL  07070IMCT  S5 PTB  00004                    1600 SR        000000000000 FUJITSU TEN (THAILAN170KPML0015015                                                                                                                              *          20170904WMF1709043.TXT
MDDDH9204687201709                D89828070100PV1D20170908000060SPEAKER ASM                   M IMCTM S5MB11 FTTL  07070IMCT  S5 PTB  00004                    2100 SR        000000000000 FUJITSU TEN (THAILAN170KRFL0123123                                                                                                                              *          20170904WMF1709043.TXT
MDDDH9204688201709                D89828070200PV1D20170908000060SPEAKER ASM                   M IMCTM S5MA14 FTTL  07070IMCT  S5 PTB  00005                    2100 SR        000000000000 FUJITSU TEN (THAILAN170KRFL0123123                                                                                                                              *          20170904WMF1709043.TXT
MDDDH9204689201709                D89828070300PT1D20170908000060SPEAKER ASM                   M IMCTM S5NB082FTTL  07070IMCT  S5 PTB  00015                    0400 SR        000000000000 FUJITSU TEN (THAILAN170KPFL0211211                                                                                                                              *          20170904WMF1709043.TXT
MDDDH9204690201709                D89828070300PT1D20170908000060SPEAKER ASM                   M IMCTM S5NB082FTTL  07070IMCT  S5 PTB  00015                    1600 SR        000000000000 FUJITSU TEN (THAILAN170KPML0015015                                                                                                                              *          20170904WMF1709043.TXT
MDDDH9204691201709                D89828070300PT1D20170908000060SPEAKER ASM                   M IMCTM S5NB082FTTL  07070IMCT  S5 PTB  00015                    2100 SR        000000000000 FUJITSU TEN (THAILAN170KRFL0123123                                                                                                                              *          20170904WMF1709043.TXT
MDDDH9204692201709                D89829645910PT1D20170908000030RADIO;ASM DVD                 M IMCTM S5NC06 FTTL  07070IMCT  S5 PTB  00003                    2100 SR        000000000000 FUJITSU TEN (THAILAN170KRFL0123123                                                                                                                              *          20170904WMF1709043.TXT
MDDDH9204693201709                D89831228300PT1D20170908000030RADIO;AM/FM,CD                M IMCTM S5NC06 FTTL  07070IMCT  S5 CPB  00003                    0400 SR        000000000000 FUJITSU TEN (THAILAN170KPFL0211211                                                                                                                              *          20170904WMF1709043.TXT
MDDUH9202938201709                D89828070100PT4U20170907000030SPEAKER ASM                   M IMCTM S0FL05 FTTL  07070IMCT  S0 PTB  00004                    2230 SR        000000000000 FUJITSU TEN (THAILAN180LUCU0076076                                                                                                                              *          20170904WMF1709043.TXT
MDDUH9202939201709                D89828070100PT4U20170908000030SPEAKER ASM                   M IMCTM S0FL05 FTTL  07070IMCT  S0 PTB  00004                    0830 SR        000000000000 FUJITSU TEN (THAILAN180LUFU0047047                                                                                                                              *          20170904WMF1709043.TXT
MDDUH9202940201709                D89828070100PT4U20170908000030SPEAKER ASM                   M IMCTM S0FL05 FTTL  07070IMCT  S0 PTB  00004                    1300 SR        000000000000 FUJITSU TEN (THAILAN180LUDU0245245                                                                                                                              *          20170904WMF1709043.TXT
MDDUH9202941201709                D89828070100PT4U20170908000030SPEAKER ASM                   M IMCTM S0FL05 FTTL  07070IMCT  S0 PTB  00004                    1600 SR        000000000000 FUJITSU TEN (THAILAN180LUDU0246246                                                                                                                              *          20170904WMF1709043.TXT
MDDUH9202942201709                D89828070200PV4U20170907000030SPEAKER ASM                   M IMCTM S0FR05 FTTL  07070IMCT  S0 PTB  00005                    2230 SR        000000000000 FUJITSU TEN (THAILAN180LUCU0076076                                                                                                                              *          20170904WMF1709043.TXT
MDDUH9202943201709                D89828070200PV4U20170908000030SPEAKER ASM                   M IMCTM S0FR05 FTTL  07070IMCT  S0 PTB  00005                    0830 SR        000000000000 FUJITSU TEN (THAILAN180LUFU0047047                                                                                                                              *          20170904WMF1709043.TXT
MDDUH9202944201709                D89828070200PV4U20170908000030SPEAKER ASM                   M IMCTM S0FR05 FTTL  07070IMCT  S0 PTB  00005                    1300 SR        000000000000 FUJITSU TEN (THAILAN180LUDU0245245                                                                                                                              *          20170904WMF1709043.TXT
MDDUH9202945201709                D89828070200PV4U20170908000030SPEAKER ASM                   M IMCTM S0FR05 FTTL  07070IMCT  S0 PTB  00005                    1600 SR        000000000000 FUJITSU TEN (THAILAN180LUDU0246246                                                                                                                              *          20170904WMF1709043.TXT
MDDUH9202946201709                D89828070300PT4U20170907000030SPEAKER ASM                   M IMCTM S9TS02 FTTL  07070IMCT  S9 PTB  00015                    2230 SR        000000000000 FUJITSU TEN (THAILAN180LUCU0076076                                                                                                                              *          20170904WMF1709043.TXT
MDDUH9202947201709                D89828070300PT4U20170908000030SPEAKER ASM                   M IMCTM S9TS02 FTTL  07070IMCT  S9 PTB  00015                    0830 SR        000000000000 FUJITSU TEN (THAILAN180LUFU0047047                                                                                                                              *          20170904WMF1709043.TXT
MDDUH9202948201709                D89828070300PT4U20170908000030SPEAKER ASM                   M IMCTM S9TS02 FTTL  07070IMCT  S9 PTB  00015                    1300 SR        000000000000 FUJITSU TEN (THAILAN180LUDU0245245                                                                                                                              *          20170904WMF1709043.TXT
MDDUH9202949201709                D89828070300PT4U20170908000030SPEAKER ASM                   M IMCTM S9TS02 FTTL  07070IMCT  S9 PTB  00015                    1600 SR        000000000000 FUJITSU TEN (THAILAN180LUDU0246246                                                                                                                              *          20170904WMF1709043.TXT
MDDUH9202950201709                D89835097910PT4U20170907000015RADIO;ASM DVD                 M IMCTM S9TS01 FTTL  07070IMCT  S9 PTB  00003                    2230 SR        000000000000 FUJITSU TEN (THAILAN180LUCU0076076                                                                                                                              *          20170904WMF1709043.TXT
MDEDH9205344201709                D89828070100PV1D20170907000120SPEAKER ASM                   M IMCTM S5MB11 FTTL  07070IMCT  S5 PTB  00004                    2230 SR        000000000000 FUJITSU TEN (THAILAN17041PL005005117052RL0009010                                                                                                                *          20170904WMF1709043.TXT
MDEDH9205345201709                D89828070100PV1D20170908000060SPEAKER ASM                   M IMCTM S5MB11 FTTL  07070IMCT  S5 PTB  00004                    0400 SR        000000000000 FUJITSU TEN (THAILAN17077PL0008009                                                                                                                              *          20170904WMF1709043.TXT
MDEDH9205346201709                D89828070100PV1D20170908000030SPEAKER ASM                   M IMCTM S5MB11 FTTL  07070IMCT  S5 PTB  00004                    0830 SR        000000000000 FUJITSU TEN (THAILAN17024NL0015015                                                                                                                              *          20170904WMF1709043.TXT
MDEDH9205347201709                D89828070100PV1D20170908000030SPEAKER ASM                   M IMCTM S5MB11 FTTL  07070IMCT  S5 PTB  00004                    1030 SR        000000000000 FUJITSU TEN (THAILAN17024NL0016016                                                                                                                              *          20170904WMF1709043.TXT
MDEDH9205348201709                D89828070100PV1D20170908000060SPEAKER ASM                   M IMCTM S5MB11 FTTL  07070IMCT  S5 PTB  00004                    1300 SR        000000000000 FUJITSU TEN (THAILAN17050ML002902917062ML0011011                                                                                                                *          20170904WMF1709043.TXT
MDEDH9205349201709                D89828070100PV4D20170907000030SPEAKER ASM                   M IMCTM S0FL05 FTTL  07070IMCT  S0 PTB  00004                    2230 SR        000000000000 FUJITSU TEN (THAILAN17080NU0054054                                                                                                                              *          20170904WMF1709043.TXT
MDEDH9205350201709                D89828070200PV1D20170908000030SPEAKER ASM                   M IMCTM S5MA14 FTTL  07070IMCT  S5 PTB  00005                    0830 SR        000000000000 FUJITSU TEN (THAILAN17024NL0015015                                                                                                                              *          20170904WMF1709043.TXT
MDEDH9205351201709                D89828070200PV1D20170908000030SPEAKER ASM                   M IMCTM S5MA14 FTTL  07070IMCT  S5 PTB  00005                    1030 SR        000000000000 FUJITSU TEN (THAILAN17024NL0016016                                                                                                                              *          20170904WMF1709043.TXT
MDEDH9205352201709                D89828070200PV4D20170907000030SPEAKER ASM                   M IMCTM S0FR05 FTTL  07070IMCT  S0 PTB  00005                    2230 SR        000000000000 FUJITSU TEN (THAILAN17080NU0054054                                                                                                                              *          20170904WMF1709043.TXT
MDEDH9205353201709                D89828070300PT1D20170908000030SPEAKER ASM                   M IMCTM S5NB082FTTL  07070IMCT  S5 PTB  00015                    0830 SR        000000000000 FUJITSU TEN (THAILAN17024NL0015015                                                                                                                              *          20170904WMF1709043.TXT
MDEDH9205354201709                D89828070300PT1D20170908000030SPEAKER ASM                   M IMCTM S5NB082FTTL  07070IMCT  S5 PTB  00015                    1030 SR        000000000000 FUJITSU TEN (THAILAN17024NL0016016                                                                                                                              *          20170904WMF1709043.TXT
MDEDH9205355201709                D89828070300PT1D20170908000030SPEAKER ASM                   M IMCTM S5NB082FTTL  07070IMCT  S5 PTB  00015                    1300 SR        000000000000 FUJITSU TEN (THAILAN17062ML0011011                                                                                                                              *          20170904WMF1709043.TXT
MDEDH9205356201709                D89828070300PT4D20170907000030SPEAKER ASM                   M IMCTM S9TS02 FTTL  07070IMCT  S9 PTB  00015                    2230 SR        000000000000 FUJITSU TEN (THAILAN17080NU0054054                                                                                                                              *          20170904WMF1709043.TXT
MDEDH9205357201709                D89829622410PT1D20170908000015RADIO;ASM DVD                 M IMCTM S5NC06 FTTL  07070IMCT  S5 PTB  00003                    1300 SR        000000000000 FUJITSU TEN (THAILAN17062ML0011011                                                                                                                              *          20170904WMF1709043.TXT
MDEUH9204919201709                D89828070100PT4U20170908000030SPEAKER ASM                   M IMCTM S0FL05 FTTL  07070IMCT  S0 PTB  00004                    0230 SR        000000000000 FUJITSU TEN (THAILAN18021TU0026026                                                                                                                              *          20170904WMF1709043.TXT
MDEUH9204920201709                D89828070100PT4U20170908000030SPEAKER ASM                   M IMCTM S0FL05 FTTL  07070IMCT  S0 PTB  00004                    0400 SR        000000000000 FUJITSU TEN (THAILAN18078SU0012012                                                                                                                              *          20170904WMF1709043.TXT
MDEUH9204921201709                D89828070100PT4U20170908000030SPEAKER ASM                   M IMCTM S0FL05 FTTL  07070IMCT  S0 PTB  00004                    0830 SR        000000000000 FUJITSU TEN (THAILAN18078SU0013013                                                                                                                              *          20170904WMF1709043.TXT
MDEUH9204922201709                D89828070100PT4U20170908000030SPEAKER ASM                   M IMCTM S0FL05 FTTL  07070IMCT  S0 PTB  00004                    1030 SR        000000000000 FUJITSU TEN (THAILAN18022TU0081081                                                                                                                              *          20170904WMF1709043.TXT
MDEUH9204923201709                D89828070100PT4U20170908000030SPEAKER ASM                   M IMCTM S0FL05 FTTL  07070IMCT  S0 PTB  00004                    1600 SR        000000000000 FUJITSU TEN (THAILAN18023TU0164164                                                                                                                              *          20170904WMF1709043.TXT
MDEUH9204924201709                D89828070200PV4U20170908000030SPEAKER ASM                   M IMCTM S0FR05 FTTL  07070IMCT  S0 PTB  00005                    0230 SR        000000000000 FUJITSU TEN (THAILAN18021TU0026026                                                                                                                              *          20170904WMF1709043.TXT
MDEUH9204925201709                D89828070200PV4U20170908000030SPEAKER ASM                   M IMCTM S0FR05 FTTL  07070IMCT  S0 PTB  00005                    0400 SR        000000000000 FUJITSU TEN (THAILAN18078SU0012012                                                                                                                              *          20170904WMF1709043.TXT
MDEUH9204926201709                D89828070200PV4U20170908000030SPEAKER ASM                   M IMCTM S0FR05 FTTL  07070IMCT  S0 PTB  00005                    0830 SR        000000000000 FUJITSU TEN (THAILAN18078SU0013013                                                                                                                              *          20170904WMF1709043.TXT
MDEUH9204927201709                D89828070200PV4U20170908000030SPEAKER ASM                   M IMCTM S0FR05 FTTL  07070IMCT  S0 PTB  00005                    1030 SR        000000000000 FUJITSU TEN (THAILAN18022TU0081081                                                                                                                              *          20170904WMF1709043.TXT
MDEUH9204928201709                D89828070200PV4U20170908000030SPEAKER ASM                   M IMCTM S0FR05 FTTL  07070IMCT  S0 PTB  00005                    1600 SR        000000000000 FUJITSU TEN (THAILAN18023TU0164164                                                                                                                              *          20170904WMF1709043.TXT
MDEUH9204929201709                D89828070300PT4U20170908000030SPEAKER ASM                   M IMCTM S9TS02 FTTL  07070IMCT  S9 PTB  00015                    0230 SR        000000000000 FUJITSU TEN (THAILAN18021TU0026026                                                                                                                              *          20170904WMF1709043.TXT
MDEUH9204930201709                D89828070300PT4U20170908000030SPEAKER ASM                   M IMCTM S9TS02 FTTL  07070IMCT  S9 PTB  00015                    0400 SR        000000000000 FUJITSU TEN (THAILAN18078SU0012012                                                                                                                              *          20170904WMF1709043.TXT
MDEUH9204931201709                D89828070300PT4U20170908000030SPEAKER ASM                   M IMCTM S9TS02 FTTL  07070IMCT  S9 PTB  00015                    0830 SR        000000000000 FUJITSU TEN (THAILAN18078SU0013013                                                                                                                              *          20170904WMF1709043.TXT
MDEUH9204932201709                D89828070300PT4U20170908000030SPEAKER ASM                   M IMCTM S9TS02 FTTL  07070IMCT  S9 PTB  00015                    1030 SR        000000000000 FUJITSU TEN (THAILAN18022TU0081081                                                                                                                              *          20170904WMF1709043.TXT
MDEUH9204933201709                D89828070300PT4U20170908000030SPEAKER ASM                   M IMCTM S9TS02 FTTL  07070IMCT  S9 PTB  00015                    1600 SR        000000000000 FUJITSU TEN (THAILAN18023TU0164164                                                                                                                              *          20170904WMF1709043.TXT
MDEUH9204934201709                D89848584700PT4U20170908000015RADIO;AM/FM CD D              M IMCTM S9CO001FTTL  07070IMCT  S9 PTB  00003                    0230 SR        000000000000 FUJITSU TEN (THAILAN18021TU0026026                                                                                                                              *          20170904WMF1709043.TXT
