REC2017090120170901ISUZU                              55     
MDDDH9200789201709                D89821984430PT1D20170906000030RADIO;AM/FM,CD                M IMCTM S5NC06 FTTL  07070IMCT  S5 PTB  00005                    2230 SR        000000000000 FUJITSU TEN (THAILAN170KPAL0185185                                                                                                                              *          20170901WMF1709015.TXT
MDDDH9200790201709                D89821984430PT1D20170907000030RADIO;AM/FM,CD                M IMCTM S5NC06 FTTL  07070IMCT  S5 PTB  00005                    0830 SR        000000000000 FUJITSU TEN (THAILAN170KNDL0160160                                                                                                                              *          20170901WMF1709015.TXT
MDDDH9200791201709                D89821984430PT1D20170907000030RADIO;AM/FM,CD                M IMCTM S5NC06 FTTL  07070IMCT  S5 PTB  00005                    1030 SR        000000000000 FUJITSU TEN (THAILAN170KRAL0167167                                                                                                                              *          20170901WMF1709015.TXT
MDDDH9200792201709                D89821984430PT1D20170907000030RADIO;AM/FM,CD                M IMCTM S5NC06 FTTL  07070IMCT  S5 PTB  00005                    2100 SR        000000000000 FUJITSU TEN (THAILAN170KPAL0186186                                                                                                                              *          20170901WMF1709015.TXT
MDDDH9200793201709                D89828070100PV1D20170906000060SPEAKER ASM                   M IMCTM S5MB11 FTTL  07070IMCT  S5 PTB  00004                    2230 SR        000000000000 FUJITSU TEN (THAILAN170KPAL0185185                                                                                                                              *          20170901WMF1709015.TXT
MDDDH9200794201709                D89828070100PV1D20170907000060SPEAKER ASM                   M IMCTM S5MB11 FTTL  07070IMCT  S5 PTB  00004                    0230 SR        000000000000 FUJITSU TEN (THAILAN170KPFL0210210                                                                                                                              *          20170901WMF1709015.TXT
MDDDH9200795201709                D89828070100PV1D20170907000060SPEAKER ASM                   M IMCTM S5MB11 FTTL  07070IMCT  S5 PTB  00004                    0830 SR        000000000000 FUJITSU TEN (THAILAN170KNDL0160160                                                                                                                              *          20170901WMF1709015.TXT
MDDDH9200796201709                D89828070100PV1D20170907000060SPEAKER ASM                   M IMCTM S5MB11 FTTL  07070IMCT  S5 PTB  00004                    1030 SR        000000000000 FUJITSU TEN (THAILAN170KRAL0167167                                                                                                                              *          20170901WMF1709015.TXT
MDDDH9200797201709                D89828070100PV1D20170907000120SPEAKER ASM                   M IMCTM S5MB11 FTTL  07070IMCT  S5 PTB  00004                    1300 SR        000000000000 FUJITSU TEN (THAILAN170KPDL0013013170KRFL0122122                                                                                                                *          20170901WMF1709015.TXT
MDDDH9200798201709                D89828070100PV1D20170907000060SPEAKER ASM                   M IMCTM S5MB11 FTTL  07070IMCT  S5 PTB  00004                    2100 SR        000000000000 FUJITSU TEN (THAILAN170KPAL0186186                                                                                                                              *          20170901WMF1709015.TXT
MDDDH9200799201709                D89828070200PV1D20170907000060SPEAKER ASM                   M IMCTM S5MA14 FTTL  07070IMCT  S5 PTB  00005                    1300 SR        000000000000 FUJITSU TEN (THAILAN170KRFL0122122                                                                                                                              *          20170901WMF1709015.TXT
MDDDH9200800201709                D89828070300PT1D20170907000060SPEAKER ASM                   M IMCTM S5NB082FTTL  07070IMCT  S5 PTB  00015                    0230 SR        000000000000 FUJITSU TEN (THAILAN170KPFL0210210                                                                                                                              *          20170901WMF1709015.TXT
MDDDH9200801201709                D89828070300PT1D20170907000120SPEAKER ASM                   M IMCTM S5NB082FTTL  07070IMCT  S5 PTB  00015                    1300 SR        000000000000 FUJITSU TEN (THAILAN170KPDL0013013170KRFL0122122                                                                                                                *          20170901WMF1709015.TXT
MDDDH9200802201709                D89829645910PT1D20170907000030RADIO;ASM DVD                 M IMCTM S5NC06 FTTL  07070IMCT  S5 PTB  00003                    1300 SR        000000000000 FUJITSU TEN (THAILAN170KRFL0122122                                                                                                                              *          20170901WMF1709015.TXT
MDDDH9200803201709                D89831228300PT1D20170907000030RADIO;AM/FM,CD                M IMCTM S5NC06 FTTL  07070IMCT  S5 CPB  00003                    0230 SR        000000000000 FUJITSU TEN (THAILAN170KPFL0210210                                                                                                                              *          20170901WMF1709015.TXT
MDDDH9200804201709                D89831228300PT1D20170907000030RADIO;AM/FM,CD                M IMCTM S5NC06 FTTL  07070IMCT  S5 CPB  00003                    1300 SR        000000000000 FUJITSU TEN (THAILAN170KPDL0013013                                                                                                                              *          20170901WMF1709015.TXT
MDDUH9200441201709                D89828070100PT4U20170907000030SPEAKER ASM                   M IMCTM S0FL05 FTTL  07070IMCT  S0 PTB  00004                    0830 SR        000000000000 FUJITSU TEN (THAILAN180LUBU0018018                                                                                                                              *          20170901WMF1709015.TXT
MDDUH9200442201709                D89828070100PT4U20170907000030SPEAKER ASM                   M IMCTM S0FL05 FTTL  07070IMCT  S0 PTB  00004                    1600 SR        000000000000 FUJITSU TEN (THAILAN180LUDU0244244                                                                                                                              *          20170901WMF1709015.TXT
MDDUH9200443201709                D89828070100PT4U20170907000030SPEAKER ASM                   M IMCTM S0FL05 FTTL  07070IMCT  S0 PTB  00004                    2100 SR        000000000000 FUJITSU TEN (THAILAN180LUEU0164164                                                                                                                              *          20170901WMF1709015.TXT
MDDUH9200444201709                D89828070200PV4U20170907000030SPEAKER ASM                   M IMCTM S0FR05 FTTL  07070IMCT  S0 PTB  00005                    0830 SR        000000000000 FUJITSU TEN (THAILAN180LUBU0018018                                                                                                                              *          20170901WMF1709015.TXT
MDDUH9200445201709                D89828070200PV4U20170907000030SPEAKER ASM                   M IMCTM S0FR05 FTTL  07070IMCT  S0 PTB  00005                    1600 SR        000000000000 FUJITSU TEN (THAILAN180LUDU0244244                                                                                                                              *          20170901WMF1709015.TXT
MDDUH9200446201709                D89828070200PV4U20170907000030SPEAKER ASM                   M IMCTM S0FR05 FTTL  07070IMCT  S0 PTB  00005                    2100 SR        000000000000 FUJITSU TEN (THAILAN180LUEU0164164                                                                                                                              *          20170901WMF1709015.TXT
MDDUH9200447201709                D89828070300PT4U20170907000030SPEAKER ASM                   M IMCTM S9TS02 FTTL  07070IMCT  S9 PTB  00015                    0830 SR        000000000000 FUJITSU TEN (THAILAN180LUBU0018018                                                                                                                              *          20170901WMF1709015.TXT
MDDUH9200448201709                D89828070300PT4U20170907000030SPEAKER ASM                   M IMCTM S9TS02 FTTL  07070IMCT  S9 PTB  00015                    1600 SR        000000000000 FUJITSU TEN (THAILAN180LUDU0244244                                                                                                                              *          20170901WMF1709015.TXT
MDDUH9200449201709                D89828070300PT4U20170907000030SPEAKER ASM                   M IMCTM S9TS02 FTTL  07070IMCT  S9 PTB  00015                    2100 SR        000000000000 FUJITSU TEN (THAILAN180LUEU0164164                                                                                                                              *          20170901WMF1709015.TXT
MDDUH9200450201709                D89835097910PT4U20170907000015RADIO;ASM DVD                 M IMCTM S9TS01 FTTL  07070IMCT  S9 PTB  00003                    0830 SR        000000000000 FUJITSU TEN (THAILAN180LUBU0018018                                                                                                                              *          20170901WMF1709015.TXT
MDEDH9201051201709                D89828070100PV1D20170906000060SPEAKER ASM                   M IMCTM S5MB11 FTTL  07070IMCT  S5 PTB  00004                    2230 SR        000000000000 FUJITSU TEN (THAILAN17016VL000700717041PL0049049                                                                                                                *          20170901WMF1709015.TXT
MDEDH9201052201709                D89828070100PV1D20170907000060SPEAKER ASM                   M IMCTM S5MB11 FTTL  07070IMCT  S5 PTB  00004                    0400 SR        000000000000 FUJITSU TEN (THAILAN17057NL0041042                                                                                                                              *          20170901WMF1709015.TXT
MDEDH9201053201709                D89828070100PV1D20170907000030SPEAKER ASM                   M IMCTM S5MB11 FTTL  07070IMCT  S5 PTB  00004                    0830 SR        000000000000 FUJITSU TEN (THAILAN17054ML0002002                                                                                                                              *          20170901WMF1709015.TXT
MDEDH9201054201709                D89828070100PV1D20170907000030SPEAKER ASM                   M IMCTM S5MB11 FTTL  07070IMCT  S5 PTB  00004                    1030 SR        000000000000 FUJITSU TEN (THAILAN17054ML0003003                                                                                                                              *          20170901WMF1709015.TXT
MDEDH9201055201709                D89828070100PV1D20170907000060SPEAKER ASM                   M IMCTM S5MB11 FTTL  07070IMCT  S5 PTB  00004                    1600 SR        000000000000 FUJITSU TEN (THAILAN17002RL000500517034PL0034034                                                                                                                *          20170901WMF1709015.TXT
MDEDH9201056201709                D89828070200PV1D20170907000060SPEAKER ASM                   M IMCTM S5MA14 FTTL  07070IMCT  S5 PTB  00005                    0400 SR        000000000000 FUJITSU TEN (THAILAN17057NL0041042                                                                                                                              *          20170901WMF1709015.TXT
MDEDH9201057201709                D89828070200PV1D20170907000060SPEAKER ASM                   M IMCTM S5MA14 FTTL  07070IMCT  S5 PTB  00005                    1600 SR        000000000000 FUJITSU TEN (THAILAN17002RL000500517034PL0034034                                                                                                                *          20170901WMF1709015.TXT
MDEDH9201058201709                D89828070300PT1D20170907000060SPEAKER ASM                   M IMCTM S5NB082FTTL  07070IMCT  S5 PTB  00015                    0400 SR        000000000000 FUJITSU TEN (THAILAN17057NL0041042                                                                                                                              *          20170901WMF1709015.TXT
MDEDH9201059201709                D89828070300PT1D20170907000060SPEAKER ASM                   M IMCTM S5NB082FTTL  07070IMCT  S5 PTB  00015                    1600 SR        000000000000 FUJITSU TEN (THAILAN17002RL000500517034PL0034034                                                                                                                *          20170901WMF1709015.TXT
MDEDH9201060201709                D89831229000PT1D20170907000015RADIO;AM/FM,CD                M IMCTM S5NC06 FTTL  07070IMCT  S5 PTB  00003                    1600 SR        000000000000 FUJITSU TEN (THAILAN17002RL0005005                                                                                                                              *          20170901WMF1709015.TXT
MDEDH9201061201709                D89848581800PT1D20170907000030RADIO;AM/FM CD D              M IMCTM S5NC06 FTTL  07070IMCT  S5 PTB  00003                    0400 SR        000000000000 FUJITSU TEN (THAILAN17057NL0041042                                                                                                                              *          20170901WMF1709015.TXT
MDEUH9200744201709                D89828070100PT4U20170906000030SPEAKER ASM                   M IMCTM S0FL05 FTTL  07070IMCT  S0 PTB  00004                    2230 SR        000000000000 FUJITSU TEN (THAILAN18023TU0162162                                                                                                                              *          20170901WMF1709015.TXT
MDEUH9200745201709                D89828070100PT4U20170907000030SPEAKER ASM                   M IMCTM S0FL05 FTTL  07070IMCT  S0 PTB  00004                    0230 SR        000000000000 FUJITSU TEN (THAILAN18078SU0010010                                                                                                                              *          20170901WMF1709015.TXT
MDEUH9200746201709                D89828070100PT4U20170907000060SPEAKER ASM                   M IMCTM S0FL05 FTTL  07070IMCT  S0 PTB  00004                    0400 SR        000000000000 FUJITSU TEN (THAILAN18024TU002102118078SU0011011                                                                                                                *          20170901WMF1709015.TXT
MDEUH9200747201709                D89828070100PT4U20170907000030SPEAKER ASM                   M IMCTM S0FL05 FTTL  07070IMCT  S0 PTB  00004                    1030 SR        000000000000 FUJITSU TEN (THAILAN18023TU0163163                                                                                                                              *          20170901WMF1709015.TXT
MDEUH9200748201709                D89828070100PT4U20170907000030SPEAKER ASM                   M IMCTM S0FL05 FTTL  07070IMCT  S0 PTB  00004                    1300 SR        000000000000 FUJITSU TEN (THAILAN18017TU0036036                                                                                                                              *          20170901WMF1709015.TXT
MDEUH9200749201709                D89828070100PT4U20170907000030SPEAKER ASM                   M IMCTM S0FL05 FTTL  07070IMCT  S0 PTB  00004                    1600 SR        000000000000 FUJITSU TEN (THAILAN18022TU0080080                                                                                                                              *          20170901WMF1709015.TXT
MDEUH9200750201709                D89828070200PV4U20170906000030SPEAKER ASM                   M IMCTM S0FR05 FTTL  07070IMCT  S0 PTB  00005                    2230 SR        000000000000 FUJITSU TEN (THAILAN18023TU0162162                                                                                                                              *          20170901WMF1709015.TXT
MDEUH9200751201709                D89828070200PV4U20170907000030SPEAKER ASM                   M IMCTM S0FR05 FTTL  07070IMCT  S0 PTB  00005                    0230 SR        000000000000 FUJITSU TEN (THAILAN18078SU0010010                                                                                                                              *          20170901WMF1709015.TXT
MDEUH9200752201709                D89828070200PV4U20170907000060SPEAKER ASM                   M IMCTM S0FR05 FTTL  07070IMCT  S0 PTB  00005                    0400 SR        000000000000 FUJITSU TEN (THAILAN18024TU002102118078SU0011011                                                                                                                *          20170901WMF1709015.TXT
MDEUH9200753201709                D89828070200PV4U20170907000030SPEAKER ASM                   M IMCTM S0FR05 FTTL  07070IMCT  S0 PTB  00005                    1030 SR        000000000000 FUJITSU TEN (THAILAN18023TU0163163                                                                                                                              *          20170901WMF1709015.TXT
MDEUH9200754201709                D89828070200PV4U20170907000030SPEAKER ASM                   M IMCTM S0FR05 FTTL  07070IMCT  S0 PTB  00005                    1300 SR        000000000000 FUJITSU TEN (THAILAN18017TU0036036                                                                                                                              *          20170901WMF1709015.TXT
MDEUH9200755201709                D89828070200PV4U20170907000030SPEAKER ASM                   M IMCTM S0FR05 FTTL  07070IMCT  S0 PTB  00005                    1600 SR        000000000000 FUJITSU TEN (THAILAN18022TU0080080                                                                                                                              *          20170901WMF1709015.TXT
MDEUH9200756201709                D89828070300PT4U20170906000030SPEAKER ASM                   M IMCTM S9TS02 FTTL  07070IMCT  S9 PTB  00015                    2230 SR        000000000000 FUJITSU TEN (THAILAN18023TU0162162                                                                                                                              *          20170901WMF1709015.TXT
MDEUH9200757201709                D89828070300PT4U20170907000030SPEAKER ASM                   M IMCTM S9TS02 FTTL  07070IMCT  S9 PTB  00015                    0230 SR        000000000000 FUJITSU TEN (THAILAN18078SU0010010                                                                                                                              *          20170901WMF1709015.TXT
MDEUH9200758201709                D89828070300PT4U20170907000060SPEAKER ASM                   M IMCTM S9TS02 FTTL  07070IMCT  S9 PTB  00015                    0400 SR        000000000000 FUJITSU TEN (THAILAN18024TU002102118078SU0011011                                                                                                                *          20170901WMF1709015.TXT
MDEUH9200759201709                D89828070300PT4U20170907000030SPEAKER ASM                   M IMCTM S9TS02 FTTL  07070IMCT  S9 PTB  00015                    1030 SR        000000000000 FUJITSU TEN (THAILAN18023TU0163163                                                                                                                              *          20170901WMF1709015.TXT
MDEUH9200760201709                D89828070300PT4U20170907000030SPEAKER ASM                   M IMCTM S9TS02 FTTL  07070IMCT  S9 PTB  00015                    1300 SR        000000000000 FUJITSU TEN (THAILAN18017TU0036036                                                                                                                              *          20170901WMF1709015.TXT
MDEUH9200761201709                D89828070300PT4U20170907000030SPEAKER ASM                   M IMCTM S9TS02 FTTL  07070IMCT  S9 PTB  00015                    1600 SR        000000000000 FUJITSU TEN (THAILAN18022TU0080080                                                                                                                              *          20170901WMF1709015.TXT
