REC2017091920170919ISUZU                              10     
MDEFH9T16573201709                D89828070100PV4F20170925000012SPEAKER ASM                   M IMCTM S7FL05 FTTL  07070IMCT  S7 PTB  00004                    1300 SR        000000000000 FUJITSU TEN (THAILAN17077PR0041   17077PR0046   H170904910    H170904915    000000                                                                              *R         20170919RDF1709195.TXT
MDEFH9T16574201709                D89828070200PV4F20170923000020SPEAKER ASM                   M IMCTM S7TS02 FTTL  07070IMCT  S7 PTB  00005                    0400 SR        000000000000 FUJITSU TEN (THAILAN17031SR0036   17048QR0030   D170904806    D170904815    000000                                                                              *R         20170919RDF1709195.TXT
MDEFH9T16575201709                D89828070300PT4F20170923000015SPEAKER ASM                   M IMCTM S7TS02 FTTL  07070IMCT  S7 PTB  00015                    0400 SR        000000000000 FUJITSU TEN (THAILAN17031SR0038   17048QR0030   D170904808    D170904815    000000                                                                              *R         20170919RDF1709195.TXT
MDEFH9T16576201709                D89831229000PT4F20170923000002RADIO;AM/FM,CD                M IMCTM S7TS03 FTTL  07070IMCT  S7 PTB  00003                    0400 SR        000000000000 FUJITSU TEN (THAILAN17046RR0082   17047RR0061   D170904813    D170904814    000000                                                                              *R         20170919RDF1709195.TXT
MDEFH9T16577201709                D89831229200PT4F20170923000002RADIO;AM/FM,CD                M IMCTM S7TS03 FTTL  07070IMCT  S7 PTB  00003                    0400 SR        000000000000 FUJITSU TEN (THAILAN17032QR0067   17032QR0068   D170904809    D170904810    000000                                                                              *R         20170919RDF1709195.TXT
MDEFH9248057201709                D89828070100PV4F20170923000012SPEAKER ASM                   M IMCTM S7FL05 FTTL  07070IMCT  S7 PTB  00004                    0230 SR        000000000000 FUJITSU TEN (THAILAN17031SR0031   17031SR0036   D170904801    D170904806    000000                                                                              *R         20170919RDF1709195.TXT
MDEFH9248058201709                D89828070100PV4F20170923000020SPEAKER ASM                   M IMCTM S7FL05 FTTL  07070IMCT  S7 PTB  00004                    0400 SR        000000000000 FUJITSU TEN (THAILAN17031SR0037   17012RR0049   D170904807    H170904901    000000                                                                              *R         20170919RDF1709195.TXT
MDEFH9248059201709                D89828070100PV4F20170925000016SPEAKER ASM                   M IMCTM S7FL05 FTTL  07070IMCT  S7 PTB  00004                    1030 SR        000000000000 FUJITSU TEN (THAILAN17012RR0050   17077PR0040   H170904902    H170904909    000000                                                                              *R         20170919RDF1709195.TXT
MDEFH9248060201709                D89828070200PV4F20170923000010SPEAKER ASM                   M IMCTM S7TS02 FTTL  07070IMCT  S7 PTB  00005                    0230 SR        000000000000 FUJITSU TEN (THAILAN17031SR0031   17031SR0035   D170904801    D170904805    000000                                                                              *R         20170919RDF1709195.TXT
MDEFH9248061201709                D89828070300PT4F20170923000015SPEAKER ASM                   M IMCTM S7TS02 FTTL  07070IMCT  S7 PTB  00015                    0230 SR        000000000000 FUJITSU TEN (THAILAN17031SR0031   17031SR0038   D170904801    D170904808    000000                                                                              *R         20170919RDF1709195.TXT
