REC2017090820170908ISUZU                              64     
MDDDH9221284201709                D89821984430PT1D20170913000030RADIO;AM/FM,CD                M IMCTM S5NC06 FTTL  07070IMCT  S5 PTB  00005                    0230 SR        000000000000 FUJITSU TEN (THAILAN170KNEL0167167                                                                                                                              *          20170908WMF1709085.TXT
MDDDH9221285201709                D89821984430PT1D20170913000030RADIO;AM/FM,CD                M IMCTM S5NC06 FTTL  07070IMCT  S5 PTB  00005                    1300 SR        000000000000 FUJITSU TEN (THAILAN170KPAL0192192                                                                                                                              *          20170908WMF1709085.TXT
MDDDH9221286201709                D89825217910PT1D20170913000030RADIO;AM/FM,CD,D              M IMCTM S5NC06 FTTL  07070IMCT  S5 PTB  00003                    0830 SR        000000000000 FUJITSU TEN (THAILAN170KPJL0060060                                                                                                                              *          20170908WMF1709085.TXT
MDDDH9221287201709                D89828070100PV1D20170913000060SPEAKER ASM                   M IMCTM S5MB11 FTTL  07070IMCT  S5 PTB  00004                    0230 SR        000000000000 FUJITSU TEN (THAILAN170KNEL0167167                                                                                                                              *          20170908WMF1709085.TXT
MDDDH9221288201709                D89828070100PV1D20170913000060SPEAKER ASM                   M IMCTM S5MB11 FTTL  07070IMCT  S5 PTB  00004                    0400 SR        000000000000 FUJITSU TEN (THAILAN170KPCL0089089                                                                                                                              *          20170908WMF1709085.TXT
MDDDH9221289201709                D89828070100PV1D20170913000060SPEAKER ASM                   M IMCTM S5MB11 FTTL  07070IMCT  S5 PTB  00004                    0830 SR        000000000000 FUJITSU TEN (THAILAN170KPJL0060060                                                                                                                              *          20170908WMF1709085.TXT
MDDDH9221290201709                D89828070100PV1D20170913000060SPEAKER ASM                   M IMCTM S5MB11 FTTL  07070IMCT  S5 PTB  00004                    1030 SR        000000000000 FUJITSU TEN (THAILAN170KRFL0127127                                                                                                                              *          20170908WMF1709085.TXT
MDDDH9221291201709                D89828070100PV1D20170913000060SPEAKER ASM                   M IMCTM S5MB11 FTTL  07070IMCT  S5 PTB  00004                    1300 SR        000000000000 FUJITSU TEN (THAILAN170KPAL0192192                                                                                                                              *          20170908WMF1709085.TXT
MDDDH9221292201709                D89828070100PV1D20170913000120SPEAKER ASM                   M IMCTM S5MB11 FTTL  07070IMCT  S5 PTB  00004                    1600 SR        000000000000 FUJITSU TEN (THAILAN170KPCL0090090170KRFL0128128                                                                                                                *          20170908WMF1709085.TXT
MDDDH9221293201709                D89828070100PV1D20170913000060SPEAKER ASM                   M IMCTM S5MB11 FTTL  07070IMCT  S5 PTB  00004                    2100 SR        000000000000 FUJITSU TEN (THAILAN170KPFL0215215                                                                                                                              *          20170908WMF1709085.TXT
MDDDH9221294201709                D89828070200PV1D20170913000060SPEAKER ASM                   M IMCTM S5MA14 FTTL  07070IMCT  S5 PTB  00005                    1030 SR        000000000000 FUJITSU TEN (THAILAN170KRFL0127127                                                                                                                              *          20170908WMF1709085.TXT
MDDDH9221295201709                D89828070200PV1D20170913000060SPEAKER ASM                   M IMCTM S5MA14 FTTL  07070IMCT  S5 PTB  00005                    1600 SR        000000000000 FUJITSU TEN (THAILAN170KRFL0128128                                                                                                                              *          20170908WMF1709085.TXT
MDDDH9221296201709                D89828070300PT1D20170913000060SPEAKER ASM                   M IMCTM S5NB082FTTL  07070IMCT  S5 PTB  00015                    0400 SR        000000000000 FUJITSU TEN (THAILAN170KPCL0089089                                                                                                                              *          20170908WMF1709085.TXT
MDDDH9221297201709                D89828070300PT1D20170913000060SPEAKER ASM                   M IMCTM S5NB082FTTL  07070IMCT  S5 PTB  00015                    0830 SR        000000000000 FUJITSU TEN (THAILAN170KPJL0060060                                                                                                                              *          20170908WMF1709085.TXT
MDDDH9221298201709                D89828070300PT1D20170913000060SPEAKER ASM                   M IMCTM S5NB082FTTL  07070IMCT  S5 PTB  00015                    1030 SR        000000000000 FUJITSU TEN (THAILAN170KRFL0127127                                                                                                                              *          20170908WMF1709085.TXT
MDDDH9221299201709                D89828070300PT1D20170913000120SPEAKER ASM                   M IMCTM S5NB082FTTL  07070IMCT  S5 PTB  00015                    1600 SR        000000000000 FUJITSU TEN (THAILAN170KPCL0090090170KRFL0128128                                                                                                                *          20170908WMF1709085.TXT
MDDDH9221300201709                D89828070300PT1D20170913000060SPEAKER ASM                   M IMCTM S5NB082FTTL  07070IMCT  S5 PTB  00015                    2100 SR        000000000000 FUJITSU TEN (THAILAN170KPFL0215215                                                                                                                              *          20170908WMF1709085.TXT
MDDDH9221301201709                D89829645910PT1D20170913000030RADIO;ASM DVD                 M IMCTM S5NC06 FTTL  07070IMCT  S5 PTB  00003                    1030 SR        000000000000 FUJITSU TEN (THAILAN170KRFL0127127                                                                                                                              *          20170908WMF1709085.TXT
MDDDH9221302201709                D89829645910PT1D20170913000030RADIO;ASM DVD                 M IMCTM S5NC06 FTTL  07070IMCT  S5 PTB  00003                    1600 SR        000000000000 FUJITSU TEN (THAILAN170KRFL0128128                                                                                                                              *          20170908WMF1709085.TXT
MDDDH9221303201709                D89831228300PT1D20170913000030RADIO;AM/FM,CD                M IMCTM S5NC06 FTTL  07070IMCT  S5 CPB  00003                    0400 SR        000000000000 FUJITSU TEN (THAILAN170KPCL0089089                                                                                                                              *          20170908WMF1709085.TXT
MDDDH9221304201709                D89831228300PT1D20170913000030RADIO;AM/FM,CD                M IMCTM S5NC06 FTTL  07070IMCT  S5 CPB  00003                    1600 SR        000000000000 FUJITSU TEN (THAILAN170KPCL0090090                                                                                                                              *          20170908WMF1709085.TXT
MDDDH9221305201709                D89831228300PT1D20170913000030RADIO;AM/FM,CD                M IMCTM S5NC06 FTTL  07070IMCT  S5 CPB  00003                    2100 SR        000000000000 FUJITSU TEN (THAILAN170KPFL0215215                                                                                                                              *          20170908WMF1709085.TXT
MDDUH9212468201709                D89828070100PT4U20170913000030SPEAKER ASM                   M IMCTM S0FL05 FTTL  07070IMCT  S0 PTB  00004                    0400 SR        000000000000 FUJITSU TEN (THAILAN180LUDU0250250                                                                                                                              *          20170908WMF1709085.TXT
MDDUH9212469201709                D89828070100PT4U20170913000030SPEAKER ASM                   M IMCTM S0FL05 FTTL  07070IMCT  S0 PTB  00004                    1300 SR        000000000000 FUJITSU TEN (THAILAN180LUEU0167167                                                                                                                              *          20170908WMF1709085.TXT
MDDUH9212470201709                D89828070200PV4U20170913000030SPEAKER ASM                   M IMCTM S0FR05 FTTL  07070IMCT  S0 PTB  00005                    0400 SR        000000000000 FUJITSU TEN (THAILAN180LUDU0250250                                                                                                                              *          20170908WMF1709085.TXT
MDDUH9212471201709                D89828070200PV4U20170913000030SPEAKER ASM                   M IMCTM S0FR05 FTTL  07070IMCT  S0 PTB  00005                    1300 SR        000000000000 FUJITSU TEN (THAILAN180LUEU0167167                                                                                                                              *          20170908WMF1709085.TXT
MDDUH9212472201709                D89828070300PT4U20170913000030SPEAKER ASM                   M IMCTM S9TS02 FTTL  07070IMCT  S9 PTB  00015                    0400 SR        000000000000 FUJITSU TEN (THAILAN180LUDU0250250                                                                                                                              *          20170908WMF1709085.TXT
MDDUH9212473201709                D89828070300PT4U20170913000030SPEAKER ASM                   M IMCTM S9TS02 FTTL  07070IMCT  S9 PTB  00015                    1300 SR        000000000000 FUJITSU TEN (THAILAN180LUEU0167167                                                                                                                              *          20170908WMF1709085.TXT
MDEDH9224928201709                D89828070100PV1D20170912000060SPEAKER ASM                   M IMCTM S5MB11 FTTL  07070IMCT  S5 PTB  00004                    2230 SR        000000000000 FUJITSU TEN (THAILAN17053NL0048049                                                                                                                              *          20170908WMF1709085.TXT
MDEDH9224929201709                D89828070100PV1D20170913000060SPEAKER ASM                   M IMCTM S5MB11 FTTL  07070IMCT  S5 PTB  00004                    0230 SR        000000000000 FUJITSU TEN (THAILAN17081NL0032033                                                                                                                              *          20170908WMF1709085.TXT
MDEDH9224930201709                D89828070100PV1D20170913000060SPEAKER ASM                   M IMCTM S5MB11 FTTL  07070IMCT  S5 PTB  00004                    0830 SR        000000000000 FUJITSU TEN (THAILAN17066NL0040041                                                                                                                              *          20170908WMF1709085.TXT
MDEDH9224931201709                D89828070100PV1D20170913000060SPEAKER ASM                   M IMCTM S5MB11 FTTL  07070IMCT  S5 PTB  00004                    1300 SR        000000000000 FUJITSU TEN (THAILAN17065ML000100117076ML0029029                                                                                                                *          20170908WMF1709085.TXT
MDEDH9224932201709                D89828070100PV1D20170913000060SPEAKER ASM                   M IMCTM S5MB11 FTTL  07070IMCT  S5 PTB  00004                    1600 SR        000000000000 FUJITSU TEN (THAILAN17024NL001701717034PL0035035                                                                                                                *          20170908WMF1709085.TXT
MDEDH9224933201709                D89828070100PV4D20170912000030SPEAKER ASM                   M IMCTM S0FL05 FTTL  07070IMCT  S0 PTB  00004                    2230 SR        000000000000 FUJITSU TEN (THAILAN17080NU0056056                                                                                                                              *          20170908WMF1709085.TXT
MDEDH9224934201709                D89828070100PV4D20170913000030SPEAKER ASM                   M IMCTM S0FL05 FTTL  07070IMCT  S0 PTB  00004                    0230 SR        000000000000 FUJITSU TEN (THAILAN17080NU0057057                                                                                                                              *          20170908WMF1709085.TXT
MDEDH9224935201709                D89828070200PV1D20170913000060SPEAKER ASM                   M IMCTM S5MA14 FTTL  07070IMCT  S5 PTB  00005                    0230 SR        000000000000 FUJITSU TEN (THAILAN17081NL0032033                                                                                                                              *          20170908WMF1709085.TXT
MDEDH9224936201709                D89828070200PV1D20170913000060SPEAKER ASM                   M IMCTM S5MA14 FTTL  07070IMCT  S5 PTB  00005                    1600 SR        000000000000 FUJITSU TEN (THAILAN17024NL001701717034PL0035035                                                                                                                *          20170908WMF1709085.TXT
MDEDH9224937201709                D89828070200PV4D20170912000030SPEAKER ASM                   M IMCTM S0FR05 FTTL  07070IMCT  S0 PTB  00005                    2230 SR        000000000000 FUJITSU TEN (THAILAN17080NU0056056                                                                                                                              *          20170908WMF1709085.TXT
MDEDH9224938201709                D89828070200PV4D20170913000030SPEAKER ASM                   M IMCTM S0FR05 FTTL  07070IMCT  S0 PTB  00005                    0230 SR        000000000000 FUJITSU TEN (THAILAN17080NU0057057                                                                                                                              *          20170908WMF1709085.TXT
MDEDH9224939201709                D89828070300PT1D20170912000060SPEAKER ASM                   M IMCTM S5NB082FTTL  07070IMCT  S5 PTB  00015                    2230 SR        000000000000 FUJITSU TEN (THAILAN17053NL0048049                                                                                                                              *          20170908WMF1709085.TXT
MDEDH9224940201709                D89828070300PT1D20170913000060SPEAKER ASM                   M IMCTM S5NB082FTTL  07070IMCT  S5 PTB  00015                    0230 SR        000000000000 FUJITSU TEN (THAILAN17081NL0032033                                                                                                                              *          20170908WMF1709085.TXT
MDEDH9224941201709                D89828070300PT1D20170913000060SPEAKER ASM                   M IMCTM S5NB082FTTL  07070IMCT  S5 PTB  00015                    0830 SR        000000000000 FUJITSU TEN (THAILAN17066NL0040041                                                                                                                              *          20170908WMF1709085.TXT
MDEDH9224942201709                D89828070300PT1D20170913000030SPEAKER ASM                   M IMCTM S5NB082FTTL  07070IMCT  S5 PTB  00015                    1300 SR        000000000000 FUJITSU TEN (THAILAN17065ML0001001                                                                                                                              *          20170908WMF1709085.TXT
MDEDH9224943201709                D89828070300PT1D20170913000060SPEAKER ASM                   M IMCTM S5NB082FTTL  07070IMCT  S5 PTB  00015                    1600 SR        000000000000 FUJITSU TEN (THAILAN17024NL001701717034PL0035035                                                                                                                *          20170908WMF1709085.TXT
MDEDH9224944201709                D89828070300PT4D20170912000030SPEAKER ASM                   M IMCTM S9TS02 FTTL  07070IMCT  S9 PTB  00015                    2230 SR        000000000000 FUJITSU TEN (THAILAN17080NU0056056                                                                                                                              *          20170908WMF1709085.TXT
MDEDH9224945201709                D89828070300PT4D20170913000030SPEAKER ASM                   M IMCTM S9TS02 FTTL  07070IMCT  S9 PTB  00015                    0230 SR        000000000000 FUJITSU TEN (THAILAN17080NU0057057                                                                                                                              *          20170908WMF1709085.TXT
MDEDH9224946201709                D89848581800PT1D20170912000030RADIO;AM/FM CD D              M IMCTM S5NC06 FTTL  07070IMCT  S5 PTB  00003                    2230 SR        000000000000 FUJITSU TEN (THAILAN17053NL0048049                                                                                                                              *          20170908WMF1709085.TXT
MDEDH9224947201709                D89848582500PT1D20170913000030RADIO;AM/FM CD D              M IMCTM S5NC06 FTTL  07070IMCT  S5 PTB  00003                    0830 SR        000000000000 FUJITSU TEN (THAILAN17066NL0040041                                                                                                                              *          20170908WMF1709085.TXT
MDEUH9223501201709                D89828070100PT4U20170912000030SPEAKER ASM                   M IMCTM S0FL05 FTTL  07070IMCT  S0 PTB  00004                    2230 SR        000000000000 FUJITSU TEN (THAILAN18078SU0027027                                                                                                                              *          20170908WMF1709085.TXT
MDEUH9223502201709                D89828070100PT4U20170913000060SPEAKER ASM                   M IMCTM S0FL05 FTTL  07070IMCT  S0 PTB  00004                    0830 SR        000000000000 FUJITSU TEN (THAILAN18023TU017417418078SU0028028                                                                                                                *          20170908WMF1709085.TXT
MDEUH9223503201709                D89828070100PT4U20170913000030SPEAKER ASM                   M IMCTM S0FL05 FTTL  07070IMCT  S0 PTB  00004                    1300 SR        000000000000 FUJITSU TEN (THAILAN18023TU0175175                                                                                                                              *          20170908WMF1709085.TXT
MDEUH9223504201709                D89828070100PT4U20170913000090SPEAKER ASM                   M IMCTM S0FL05 FTTL  07070IMCT  S0 PTB  00004                    1600 SR        000000000000 FUJITSU TEN (THAILAN18016TU002102118078SU0029030                                                                                                                *          20170908WMF1709085.TXT
MDEUH9223505201709                D89828070100PT4U20170913000030SPEAKER ASM                   M IMCTM S0FL05 FTTL  07070IMCT  S0 PTB  00004                    2100 SR        000000000000 FUJITSU TEN (THAILAN18078SU0031031                                                                                                                              *          20170908WMF1709085.TXT
MDEUH9223506201709                D89828070200PV4U20170912000030SPEAKER ASM                   M IMCTM S0FR05 FTTL  07070IMCT  S0 PTB  00005                    2230 SR        000000000000 FUJITSU TEN (THAILAN18078SU0027027                                                                                                                              *          20170908WMF1709085.TXT
MDEUH9223507201709                D89828070200PV4U20170913000060SPEAKER ASM                   M IMCTM S0FR05 FTTL  07070IMCT  S0 PTB  00005                    0830 SR        000000000000 FUJITSU TEN (THAILAN18023TU017417418078SU0028028                                                                                                                *          20170908WMF1709085.TXT
MDEUH9223508201709                D89828070200PV4U20170913000030SPEAKER ASM                   M IMCTM S0FR05 FTTL  07070IMCT  S0 PTB  00005                    1300 SR        000000000000 FUJITSU TEN (THAILAN18023TU0175175                                                                                                                              *          20170908WMF1709085.TXT
MDEUH9223509201709                D89828070200PV4U20170913000090SPEAKER ASM                   M IMCTM S0FR05 FTTL  07070IMCT  S0 PTB  00005                    1600 SR        000000000000 FUJITSU TEN (THAILAN18016TU002102118078SU0029030                                                                                                                *          20170908WMF1709085.TXT
MDEUH9223510201709                D89828070200PV4U20170913000030SPEAKER ASM                   M IMCTM S0FR05 FTTL  07070IMCT  S0 PTB  00005                    2100 SR        000000000000 FUJITSU TEN (THAILAN18078SU0031031                                                                                                                              *          20170908WMF1709085.TXT
MDEUH9223511201709                D89828070300PT4U20170912000030SPEAKER ASM                   M IMCTM S9TS02 FTTL  07070IMCT  S9 PTB  00015                    2230 SR        000000000000 FUJITSU TEN (THAILAN18078SU0027027                                                                                                                              *          20170908WMF1709085.TXT
MDEUH9223512201709                D89828070300PT4U20170913000060SPEAKER ASM                   M IMCTM S9TS02 FTTL  07070IMCT  S9 PTB  00015                    0830 SR        000000000000 FUJITSU TEN (THAILAN18023TU017417418078SU0028028                                                                                                                *          20170908WMF1709085.TXT
MDEUH9223513201709                D89828070300PT4U20170913000030SPEAKER ASM                   M IMCTM S9TS02 FTTL  07070IMCT  S9 PTB  00015                    1300 SR        000000000000 FUJITSU TEN (THAILAN18023TU0175175                                                                                                                              *          20170908WMF1709085.TXT
MDEUH9223514201709                D89828070300PT4U20170913000090SPEAKER ASM                   M IMCTM S9TS02 FTTL  07070IMCT  S9 PTB  00015                    1600 SR        000000000000 FUJITSU TEN (THAILAN18016TU002102118078SU0029030                                                                                                                *          20170908WMF1709085.TXT
MDEUH9223515201709                D89828070300PT4U20170913000030SPEAKER ASM                   M IMCTM S9TS02 FTTL  07070IMCT  S9 PTB  00015                    2100 SR        000000000000 FUJITSU TEN (THAILAN18078SU0031031                                                                                                                              *          20170908WMF1709085.TXT
MDEUH9223516201709                D89848584700PT4U20170913000015RADIO;AM/FM CD D              M IMCTM S9CO001FTTL  07070IMCT  S9 PTB  00003                    1600 SR        000000000000 FUJITSU TEN (THAILAN18016TU0021021                                                                                                                              *          20170908WMF1709085.TXT
