REC2017092120170921ISUZU                              59     
MDDDH9264069201709                D89821984430PT1D20170927000030RADIO;AM/FM,CD                M IMCTM S5NC06 FTTL  07070IMCT  S5 PTB  00005                    1600 SR        000000000000 FUJITSU TEN (THAILAN170KNEL0171171                                                                                                                              *          20170921WMF1709216.TXT
MDDDH9264070201709                D89825217910PT1D20170927000030RADIO;AM/FM,CD,D              M IMCTM S5NC06 FTTL  07070IMCT  S5 PTB  00003                    0830 SR        000000000000 FUJITSU TEN (THAILAN170KPJL0066066                                                                                                                              *          20170921WMF1709216.TXT
MDDDH9264071201709                D89828070100PV1D20170926000060SPEAKER ASM                   M IMCTM S5MB11 FTTL  07070IMCT  S5 PTB  00004                    2230 SR        000000000000 FUJITSU TEN (THAILAN170KRFL0133133                                                                                                                              *          20170921WMF1709216.TXT
MDDDH9264072201709                D89828070100PV1D20170927000060SPEAKER ASM                   M IMCTM S5MB11 FTTL  07070IMCT  S5 PTB  00004                    0230 SR        000000000000 FUJITSU TEN (THAILAN170KPFL0232232                                                                                                                              *          20170921WMF1709216.TXT
MDDDH9264073201709                D89828070100PV1D20170927000060SPEAKER ASM                   M IMCTM S5MB11 FTTL  07070IMCT  S5 PTB  00004                    0830 SR        000000000000 FUJITSU TEN (THAILAN170KPJL0066066                                                                                                                              *          20170921WMF1709216.TXT
MDDDH9264074201709                D89828070100PV1D20170927000060SPEAKER ASM                   M IMCTM S5MB11 FTTL  07070IMCT  S5 PTB  00004                    1300 SR        000000000000 FUJITSU TEN (THAILAN170KPGL0023023                                                                                                                              *          20170921WMF1709216.TXT
MDDDH9264075201709                D89828070100PV1D20170927000060SPEAKER ASM                   M IMCTM S5MB11 FTTL  07070IMCT  S5 PTB  00004                    1600 SR        000000000000 FUJITSU TEN (THAILAN170KNEL0171171                                                                                                                              *          20170921WMF1709216.TXT
MDDDH9264076201709                D89828070100PV1D20170927000060SPEAKER ASM                   M IMCTM S5MB11 FTTL  07070IMCT  S5 PTB  00004                    2100 SR        000000000000 FUJITSU TEN (THAILAN170KPFL0233233                                                                                                                              *          20170921WMF1709216.TXT
MDDDH9264077201709                D89828070100PV4D20170927000060SPEAKER ASM                   M IMCTM S0FL05 FTTL  07070IMCT  S0 PTB  00004                    0230 SR        000000000000 FUJITSU TEN (THAILAN180LRSU0001001                                                                                                                              *          20170921WMF1709216.TXT
MDDDH9264078201709                D89828070200PV1D20170926000060SPEAKER ASM                   M IMCTM S5MA14 FTTL  07070IMCT  S5 PTB  00005                    2230 SR        000000000000 FUJITSU TEN (THAILAN170KRFL0133133                                                                                                                              *          20170921WMF1709216.TXT
MDDDH9264079201709                D89828070200PV4D20170927000060SPEAKER ASM                   M IMCTM S0FR05 FTTL  07070IMCT  S0 PTB  00005                    0230 SR        000000000000 FUJITSU TEN (THAILAN180LRSU0001001                                                                                                                              *          20170921WMF1709216.TXT
MDDDH9264080201709                D89828070300PT1D20170926000060SPEAKER ASM                   M IMCTM S5NB082FTTL  07070IMCT  S5 PTB  00015                    2230 SR        000000000000 FUJITSU TEN (THAILAN170KRFL0133133                                                                                                                              *          20170921WMF1709216.TXT
MDDDH9264081201709                D89828070300PT1D20170927000060SPEAKER ASM                   M IMCTM S5NB082FTTL  07070IMCT  S5 PTB  00015                    0230 SR        000000000000 FUJITSU TEN (THAILAN170KPFL0232232                                                                                                                              *          20170921WMF1709216.TXT
MDDDH9264082201709                D89828070300PT1D20170927000060SPEAKER ASM                   M IMCTM S5NB082FTTL  07070IMCT  S5 PTB  00015                    0830 SR        000000000000 FUJITSU TEN (THAILAN170KPJL0066066                                                                                                                              *          20170921WMF1709216.TXT
MDDDH9264083201709                D89828070300PT1D20170927000060SPEAKER ASM                   M IMCTM S5NB082FTTL  07070IMCT  S5 PTB  00015                    1300 SR        000000000000 FUJITSU TEN (THAILAN170KPGL0023023                                                                                                                              *          20170921WMF1709216.TXT
MDDDH9264084201709                D89828070300PT1D20170927000060SPEAKER ASM                   M IMCTM S5NB082FTTL  07070IMCT  S5 PTB  00015                    2100 SR        000000000000 FUJITSU TEN (THAILAN170KPFL0233233                                                                                                                              *          20170921WMF1709216.TXT
MDDDH9264085201709                D89828070300PT4D20170927000060SPEAKER ASM                   M IMCTM S9TS02 FTTL  07070IMCT  S9 PTB  00015                    0230 SR        000000000000 FUJITSU TEN (THAILAN180LRSU0001001                                                                                                                              *          20170921WMF1709216.TXT
MDDDH9264086201709                D89829645910PT1D20170926000030RADIO;ASM DVD                 M IMCTM S5NC06 FTTL  07070IMCT  S5 PTB  00003                    2230 SR        000000000000 FUJITSU TEN (THAILAN170KRFL0133133                                                                                                                              *          20170921WMF1709216.TXT
MDDDH9264087201709                D89831228300PT1D20170927000030RADIO;AM/FM,CD                M IMCTM S5NC06 FTTL  07070IMCT  S5 CPB  00003                    0230 SR        000000000000 FUJITSU TEN (THAILAN170KPFL0232232                                                                                                                              *          20170921WMF1709216.TXT
MDDDH9264088201709                D89831228300PT1D20170927000030RADIO;AM/FM,CD                M IMCTM S5NC06 FTTL  07070IMCT  S5 CPB  00003                    1300 SR        000000000000 FUJITSU TEN (THAILAN170KPGL0023023                                                                                                                              *          20170921WMF1709216.TXT
MDDDH9264089201709                D89831228300PT1D20170927000030RADIO;AM/FM,CD                M IMCTM S5NC06 FTTL  07070IMCT  S5 CPB  00003                    2100 SR        000000000000 FUJITSU TEN (THAILAN170KPFL0233233                                                                                                                              *          20170921WMF1709216.TXT
MDDUH9231352201709                D89828070100PT4U20170927000030SPEAKER ASM                   M IMCTM S0FL05 FTTL  07070IMCT  S0 PTB  00004                    0400 SR        000000000000 FUJITSU TEN (THAILAN180LUEU0175175                                                                                                                              *          20170921WMF1709216.TXT
MDDUH9231353201709                D89828070100PT4U20170927000060SPEAKER ASM                   M IMCTM S0FL05 FTTL  07070IMCT  S0 PTB  00004                    1300 SR        000000000000 FUJITSU TEN (THAILAN180LUCU0082082180LUDU0260260                                                                                                                *          20170921WMF1709216.TXT
MDDUH9231354201709                D89828070100PT4U20170927000030SPEAKER ASM                   M IMCTM S0FL05 FTTL  07070IMCT  S0 PTB  00004                    1600 SR        000000000000 FUJITSU TEN (THAILAN180LUEU0176176                                                                                                                              *          20170921WMF1709216.TXT
MDDUH9231355201709                D89828070200PV4U20170927000030SPEAKER ASM                   M IMCTM S0FR05 FTTL  07070IMCT  S0 PTB  00005                    0400 SR        000000000000 FUJITSU TEN (THAILAN180LUEU0175175                                                                                                                              *          20170921WMF1709216.TXT
MDDUH9231356201709                D89828070200PV4U20170927000060SPEAKER ASM                   M IMCTM S0FR05 FTTL  07070IMCT  S0 PTB  00005                    1300 SR        000000000000 FUJITSU TEN (THAILAN180LUCU0082082180LUDU0260260                                                                                                                *          20170921WMF1709216.TXT
MDDUH9231357201709                D89828070200PV4U20170927000030SPEAKER ASM                   M IMCTM S0FR05 FTTL  07070IMCT  S0 PTB  00005                    1600 SR        000000000000 FUJITSU TEN (THAILAN180LUEU0176176                                                                                                                              *          20170921WMF1709216.TXT
MDDUH9231358201709                D89828070300PT4U20170927000030SPEAKER ASM                   M IMCTM S9TS02 FTTL  07070IMCT  S9 PTB  00015                    0400 SR        000000000000 FUJITSU TEN (THAILAN180LUEU0175175                                                                                                                              *          20170921WMF1709216.TXT
MDDUH9231359201709                D89828070300PT4U20170927000060SPEAKER ASM                   M IMCTM S9TS02 FTTL  07070IMCT  S9 PTB  00015                    1300 SR        000000000000 FUJITSU TEN (THAILAN180LUCU0082082180LUDU0260260                                                                                                                *          20170921WMF1709216.TXT
MDDUH9231360201709                D89828070300PT4U20170927000030SPEAKER ASM                   M IMCTM S9TS02 FTTL  07070IMCT  S9 PTB  00015                    1600 SR        000000000000 FUJITSU TEN (THAILAN180LUEU0176176                                                                                                                              *          20170921WMF1709216.TXT
MDDUH9231361201709                D89835097910PT4U20170927000015RADIO;ASM DVD                 M IMCTM S9TS01 FTTL  07070IMCT  S9 PTB  00003                    1300 SR        000000000000 FUJITSU TEN (THAILAN180LUCU0082082                                                                                                                              *          20170921WMF1709216.TXT
MDEDH9274031201709                D89828070100PV1D20170926000030SPEAKER ASM                   M IMCTM S5MB11 FTTL  07070IMCT  S5 PTB  00004                    2230 SR        000000000000 FUJITSU TEN (THAILAN17057ML0010010                                                                                                                              *          20170921WMF1709216.TXT
MDEDH9274032201709                D89828070100PV1D20170927000030SPEAKER ASM                   M IMCTM S5MB11 FTTL  07070IMCT  S5 PTB  00004                    0230 SR        000000000000 FUJITSU TEN (THAILAN17021QL0004004                                                                                                                              *          20170921WMF1709216.TXT
MDEDH9274033201709                D89828070100PV1D20170927000090SPEAKER ASM                   M IMCTM S5MB11 FTTL  07070IMCT  S5 PTB  00004                    0400 SR        000000000000 FUJITSU TEN (THAILAN17021QL000500517053NL0050051                                                                                                                *          20170921WMF1709216.TXT
MDEDH9274034201709                D89828070100PV1D20170927000090SPEAKER ASM                   M IMCTM S5MB11 FTTL  07070IMCT  S5 PTB  00004                    1030 SR        000000000000 FUJITSU TEN (THAILAN17010RL000400417066NL004404417071NL0016016                                                                                                  *          20170921WMF1709216.TXT
MDEDH9274035201709                D89828070100PV1D20170927000060SPEAKER ASM                   M IMCTM S5MB11 FTTL  07070IMCT  S5 PTB  00004                    1300 SR        000000000000 FUJITSU TEN (THAILAN17051NL0011012                                                                                                                              *          20170921WMF1709216.TXT
MDEDH9274036201709                D89828070100PV1D20170927000030SPEAKER ASM                   M IMCTM S5MB11 FTTL  07070IMCT  S5 PTB  00004                    2100 SR        000000000000 FUJITSU TEN (THAILAN17085ML0013013                                                                                                                              *          20170921WMF1709216.TXT
MDEDH9274037201709                D89828070200PV1D20170927000030SPEAKER ASM                   M IMCTM S5MA14 FTTL  07070IMCT  S5 PTB  00005                    1030 SR        000000000000 FUJITSU TEN (THAILAN17071NL0016016                                                                                                                              *          20170921WMF1709216.TXT
MDEDH9274038201709                D89828070200PV1D20170927000030SPEAKER ASM                   M IMCTM S5MA14 FTTL  07070IMCT  S5 PTB  00005                    2100 SR        000000000000 FUJITSU TEN (THAILAN17085ML0013013                                                                                                                              *          20170921WMF1709216.TXT
MDEDH9274039201709                D89828070300PT1D20170926000030SPEAKER ASM                   M IMCTM S5NB082FTTL  07070IMCT  S5 PTB  00015                    2230 SR        000000000000 FUJITSU TEN (THAILAN17057ML0010010                                                                                                                              *          20170921WMF1709216.TXT
MDEDH9274040201709                D89828070300PT1D20170927000060SPEAKER ASM                   M IMCTM S5NB082FTTL  07070IMCT  S5 PTB  00015                    0400 SR        000000000000 FUJITSU TEN (THAILAN17053NL0050051                                                                                                                              *          20170921WMF1709216.TXT
MDEDH9274041201709                D89828070300PT1D20170927000060SPEAKER ASM                   M IMCTM S5NB082FTTL  07070IMCT  S5 PTB  00015                    1030 SR        000000000000 FUJITSU TEN (THAILAN17066NL004404417071NL0016016                                                                                                                *          20170921WMF1709216.TXT
MDEDH9274042201709                D89828070300PT1D20170927000060SPEAKER ASM                   M IMCTM S5NB082FTTL  07070IMCT  S5 PTB  00015                    1300 SR        000000000000 FUJITSU TEN (THAILAN17051NL0011012                                                                                                                              *          20170921WMF1709216.TXT
MDEDH9274043201709                D89828070300PT1D20170927000030SPEAKER ASM                   M IMCTM S5NB082FTTL  07070IMCT  S5 PTB  00015                    2100 SR        000000000000 FUJITSU TEN (THAILAN17085ML0013013                                                                                                                              *          20170921WMF1709216.TXT
MDEDH9274044201709                D89848581800PT1D20170927000030RADIO;AM/FM CD D              M IMCTM S5NC06 FTTL  07070IMCT  S5 PTB  00003                    0400 SR        000000000000 FUJITSU TEN (THAILAN17053NL0050051                                                                                                                              *          20170921WMF1709216.TXT
MDEDH9274045201709                D89848581800PT1D20170927000015RADIO;AM/FM CD D              M IMCTM S5NC06 FTTL  07070IMCT  S5 PTB  00003                    1030 SR        000000000000 FUJITSU TEN (THAILAN17071NL0016016                                                                                                                              *          20170921WMF1709216.TXT
MDEDH9274046201709                D89848582500PT1D20170927000015RADIO;AM/FM CD D              M IMCTM S5NC06 FTTL  07070IMCT  S5 PTB  00003                    1030 SR        000000000000 FUJITSU TEN (THAILAN17066NL0044044                                                                                                                              *          20170921WMF1709216.TXT
MDEUH9268458201709                D89828070100PT4U20170926000060SPEAKER ASM                   M IMCTM S0FL05 FTTL  07070IMCT  S0 PTB  00004                    2230 SR        000000000000 FUJITSU TEN (THAILAN18078SU0085086                                                                                                                              *          20170921WMF1709216.TXT
MDEUH9268459201709                D89828070100PT4U20170927000030SPEAKER ASM                   M IMCTM S0FL05 FTTL  07070IMCT  S0 PTB  00004                    0830 SR        000000000000 FUJITSU TEN (THAILAN18078SU0087087                                                                                                                              *          20170921WMF1709216.TXT
MDEUH9268460201709                D89828070100PT4U20170927000030SPEAKER ASM                   M IMCTM S0FL05 FTTL  07070IMCT  S0 PTB  00004                    1030 SR        000000000000 FUJITSU TEN (THAILAN18078SU0088088                                                                                                                              *          20170921WMF1709216.TXT
MDEUH9268461201709                D89828070100PT4U20170927000030SPEAKER ASM                   M IMCTM S0FL05 FTTL  07070IMCT  S0 PTB  00004                    2100 SR        000000000000 FUJITSU TEN (THAILAN18078SU0089089                                                                                                                              *          20170921WMF1709216.TXT
MDEUH9268462201709                D89828070200PV4U20170926000060SPEAKER ASM                   M IMCTM S0FR05 FTTL  07070IMCT  S0 PTB  00005                    2230 SR        000000000000 FUJITSU TEN (THAILAN18078SU0085086                                                                                                                              *          20170921WMF1709216.TXT
MDEUH9268463201709                D89828070200PV4U20170927000030SPEAKER ASM                   M IMCTM S0FR05 FTTL  07070IMCT  S0 PTB  00005                    0830 SR        000000000000 FUJITSU TEN (THAILAN18078SU0087087                                                                                                                              *          20170921WMF1709216.TXT
MDEUH9268464201709                D89828070200PV4U20170927000030SPEAKER ASM                   M IMCTM S0FR05 FTTL  07070IMCT  S0 PTB  00005                    1030 SR        000000000000 FUJITSU TEN (THAILAN18078SU0088088                                                                                                                              *          20170921WMF1709216.TXT
MDEUH9268465201709                D89828070200PV4U20170927000030SPEAKER ASM                   M IMCTM S0FR05 FTTL  07070IMCT  S0 PTB  00005                    2100 SR        000000000000 FUJITSU TEN (THAILAN18078SU0089089                                                                                                                              *          20170921WMF1709216.TXT
MDEUH9268466201709                D89828070300PT4U20170926000060SPEAKER ASM                   M IMCTM S9TS02 FTTL  07070IMCT  S9 PTB  00015                    2230 SR        000000000000 FUJITSU TEN (THAILAN18078SU0085086                                                                                                                              *          20170921WMF1709216.TXT
MDEUH9268467201709                D89828070300PT4U20170927000030SPEAKER ASM                   M IMCTM S9TS02 FTTL  07070IMCT  S9 PTB  00015                    0830 SR        000000000000 FUJITSU TEN (THAILAN18078SU0087087                                                                                                                              *          20170921WMF1709216.TXT
MDEUH9268468201709                D89828070300PT4U20170927000030SPEAKER ASM                   M IMCTM S9TS02 FTTL  07070IMCT  S9 PTB  00015                    1030 SR        000000000000 FUJITSU TEN (THAILAN18078SU0088088                                                                                                                              *          20170921WMF1709216.TXT
MDEUH9268469201709                D89828070300PT4U20170927000030SPEAKER ASM                   M IMCTM S9TS02 FTTL  07070IMCT  S9 PTB  00015                    2100 SR        000000000000 FUJITSU TEN (THAILAN18078SU0089089                                                                                                                              *          20170921WMF1709216.TXT
