REC2017092120170921ISUZU                              17     
MAKK79103205201709D1               89805293700P3YK20171002000330SPEAKER ASM                   M IMCTM CM1    FTTL  07070IMKDC KA   PTB00003  K0                0900DES        000000000000 FUJITSU TEN (THAILAN                                                                                                                                            *G         20170921WMF1709211.TXT
MAKK79103206201709D1               89805293700P3YK20171003000330SPEAKER ASM                   M IMCTM CM1    FTTL  07070IMKDC KA   PTB00003  K0                0900DES        000000000000 FUJITSU TEN (THAILAN                                                                                                                                            *G         20170921WMF1709211.TXT
MAKK79103207201709D1               89805293700P3YK20171004000030SPEAKER ASM                   M IMCTM CM1    FTTL  07070IMKDC KA   PTB00003  K0                0900DES        000000000000 FUJITSU TEN (THAILAN                                                                                                                                            *G         20170921WMF1709211.TXT
MAKK79103208201709D1               89805293700P3YK20171006000210SPEAKER ASM                   M IMCTM CM1    FTTL  07070IMKDC KA   PTB00003  K0                0900DES        000000000000 FUJITSU TEN (THAILAN                                                                                                                                            *G         20170921WMF1709211.TXT
MAKK79103209201709D1               89825451200P3YK20171004000060SPEAKER ASM;ROOF              M IMCTM CM1    FTTL  07070IMKDC KA   PTB00015  K0                0900DES        000000000000 FUJITSU TEN (THAILAN                                                                                                                                            *G         20170921WMF1709211.TXT
MAKK79103210201709D1               89825451200P3YK20171005000090SPEAKER ASM;ROOF              M IMCTM CM1    FTTL  07070IMKDC KA   PTB00015  K0                0900DES        000000000000 FUJITSU TEN (THAILAN                                                                                                                                            *G         20170921WMF1709211.TXT
MAKK79103211201709D1               89828070100P3YK20171002000030SPEAKER ASM                   M IMCTM CM1    FTTL  07070IMKDC KA PTB  00004  K0                0900DES        000000000000 FUJITSU TEN (THAILAN                                                                                                                                            *G         20170921WMF1709211.TXT
MAKK79103212201709D1               89828070100P3YK20171004000060SPEAKER ASM                   M IMCTM CM1    FTTL  07070IMKDC KA PTB  00004  K0                0900DES        000000000000 FUJITSU TEN (THAILAN                                                                                                                                            *G         20170921WMF1709211.TXT
MAKK79103213201709D1               89828070100P3YK20171005000030SPEAKER ASM                   M IMCTM CM1    FTTL  07070IMKDC KA PTB  00004  K0                0900DES        000000000000 FUJITSU TEN (THAILAN                                                                                                                                            *G         20170921WMF1709211.TXT
MAKK79103214201709D1               89828070100P3YK20171006000030SPEAKER ASM                   M IMCTM CM1    FTTL  07070IMKDC KA PTB  00004  K0                0900DES        000000000000 FUJITSU TEN (THAILAN                                                                                                                                            *G         20170921WMF1709211.TXT
MAKK79103215201709D1               89828070200P3YK20171002000030SPEAKER ASM                   M IMCTM CM1    FTTL  07070IMKDC KA PTB  00005  K0                0900DES        000000000000 FUJITSU TEN (THAILAN                                                                                                                                            *G         20170921WMF1709211.TXT
MAKK79103216201709D1               89828070200P3YK20171004000030SPEAKER ASM                   M IMCTM CM1    FTTL  07070IMKDC KA PTB  00005  K0                0900DES        000000000000 FUJITSU TEN (THAILAN                                                                                                                                            *G         20170921WMF1709211.TXT
MAKK79103217201709D1               89828070200P3YK20171006000030SPEAKER ASM                   M IMCTM CM1    FTTL  07070IMKDC KA PTB  00005  K0                0900DES        000000000000 FUJITSU TEN (THAILAN                                                                                                                                            *G         20170921WMF1709211.TXT
MAKK79103218201709D1               89828070300P3YK20171002000030SPEAKER ASM                   M IMCTM CM1    FTTL  07070IMKDC KA PTB  00015  K0                0900DES        000000000000 FUJITSU TEN (THAILAN                                                                                                                                            *G         20170921WMF1709211.TXT
MAKK79103219201709D1               89828070300P3YK20171004000030SPEAKER ASM                   M IMCTM CM1    FTTL  07070IMKDC KA PTB  00015  K0                0900DES        000000000000 FUJITSU TEN (THAILAN                                                                                                                                            *G         20170921WMF1709211.TXT
MAKK79103220201709D1               89828070300P3YK20171005000030SPEAKER ASM                   M IMCTM CM1    FTTL  07070IMKDC KA PTB  00015  K0                0900DES        000000000000 FUJITSU TEN (THAILAN                                                                                                                                            *G         20170921WMF1709211.TXT
MAKK79103221201709D1               89828070300P3YK20171006000030SPEAKER ASM                   M IMCTM CM1    FTTL  07070IMKDC KA PTB  00015  K0                0900DES        000000000000 FUJITSU TEN (THAILAN                                                                                                                                            *G         20170921WMF1709211.TXT
