REC2017092620170926ISUZU                              58     
MDDUH9239982201710                D89828070100PT4U20170929000030SPEAKER ASM                   M IMCTM S0FL05 FTTL  07070IMCT  S0 PTB  00004                    2230 SR        000000000000 FUJITSU TEN (THAILAN180LUEU0179179                                                                                                                              *          20170926WMF1709263.TXT
MDDUH9239983201710                D89828070100PT4U20170930000030SPEAKER ASM                   M IMCTM S0FL05 FTTL  07070IMCT  S0 PTB  00004                    0400 SR        000000000000 FUJITSU TEN (THAILAN180LUEU0180180                                                                                                                              *          20170926WMF1709263.TXT
MDDUH9239984201710                D89828070200PV4U20170929000030SPEAKER ASM                   M IMCTM S0FR05 FTTL  07070IMCT  S0 PTB  00005                    2230 SR        000000000000 FUJITSU TEN (THAILAN180LUEU0179179                                                                                                                              *          20170926WMF1709263.TXT
MDDUH9239985201710                D89828070200PV4U20170930000030SPEAKER ASM                   M IMCTM S0FR05 FTTL  07070IMCT  S0 PTB  00005                    0400 SR        000000000000 FUJITSU TEN (THAILAN180LUEU0180180                                                                                                                              *          20170926WMF1709263.TXT
MDDUH9239986201710                D89828070300PT4U20170929000030SPEAKER ASM                   M IMCTM S9TS02 FTTL  07070IMCT  S9 PTB  00015                    2230 SR        000000000000 FUJITSU TEN (THAILAN180LUEU0179179                                                                                                                              *          20170926WMF1709263.TXT
MDDUH9239987201710                D89828070300PT4U20170930000030SPEAKER ASM                   M IMCTM S9TS02 FTTL  07070IMCT  S9 PTB  00015                    0400 SR        000000000000 FUJITSU TEN (THAILAN180LUEU0180180                                                                                                                              *          20170926WMF1709263.TXT
MDEDH9292665201710                D89828070100PV1D20170929000150SPEAKER ASM                   M IMCTM S5MB11 FTTL  07070IMCT  S5 PTB  00004                    2230 SR        000000000000 FUJITSU TEN (THAILAN17050ML003303317052RL001301417056NL0043044                                                                                                  *          20170926WMF1709263.TXT
MDEDH9292666201710                D89828070100PV1D20170930000060SPEAKER ASM                   M IMCTM S5MB11 FTTL  07070IMCT  S5 PTB  00004                    0230 SR        000000000000 FUJITSU TEN (THAILAN17050ML003403417055NL0052052                                                                                                                *          20170926WMF1709263.TXT
MDEDH9292667201710                D89828070100PV1D20170930000060SPEAKER ASM                   M IMCTM S5MB11 FTTL  07070IMCT  S5 PTB  00004                    0400 SR        000000000000 FUJITSU TEN (THAILAN17041PL005205217055NL0053053                                                                                                                *          20170926WMF1709263.TXT
MDEDH9292668201710                D89828070100PV1D20171002000060SPEAKER ASM                   M IMCTM S5MB11 FTTL  07070IMCT  S5 PTB  00004                    0830 SR        000000000000 FUJITSU TEN (THAILAN17041PL005305317055NL0054054                                                                                                                *          20170926WMF1709263.TXT
MDEDH9292669201710                D89828070100PV1D20171002000090SPEAKER ASM                   M IMCTM S5MB11 FTTL  07070IMCT  S5 PTB  00004                    1030 SR        000000000000 FUJITSU TEN (THAILAN17008RL000900917016VL001401417029NL0014014                                                                                                  *          20170926WMF1709263.TXT
MDEDH9292670201710                D89828070100PV1D20171002000120SPEAKER ASM                   M IMCTM S5MB11 FTTL  07070IMCT  S5 PTB  00004                    1300 SR        000000000000 FUJITSU TEN (THAILAN17052RL001501617065NL002002017074NL0068068                                                                                                  *          20170926WMF1709263.TXT
MDEDH9292671201710                D89828070100PV1D20171002000060SPEAKER ASM                   M IMCTM S5MB11 FTTL  07070IMCT  S5 PTB  00004                    1600 SR        000000000000 FUJITSU TEN (THAILAN17074NL006906917077PL0012012                                                                                                                *          20170926WMF1709263.TXT
MDEDH9292672201710                D89828070100PV1D20171002000060SPEAKER ASM                   M IMCTM S5MB11 FTTL  07070IMCT  S5 PTB  00004                    2100 SR        000000000000 FUJITSU TEN (THAILAN17037ML000400417067WL0003003                                                                                                                *          20170926WMF1709263.TXT
MDEDH9292673201710                D89828070100PV4D20170929000030SPEAKER ASM                   M IMCTM S0FL05 FTTL  07070IMCT  S0 PTB  00004                    2230 SR        000000000000 FUJITSU TEN (THAILAN17079NU0054054                                                                                                                              *          20170926WMF1709263.TXT
MDEDH9292674201710                D89828070100PV4D20171002000030SPEAKER ASM                   M IMCTM S0FL05 FTTL  07070IMCT  S0 PTB  00004                    1300 SR        000000000000 FUJITSU TEN (THAILAN17064NU0008008                                                                                                                              *          20170926WMF1709263.TXT
MDEDH9292675201710                D89828070100PV4D20171002000030SPEAKER ASM                   M IMCTM S0FL05 FTTL  07070IMCT  S0 PTB  00004                    2100 SR        000000000000 FUJITSU TEN (THAILAN17079NU0055055                                                                                                                              *          20170926WMF1709263.TXT
MDEDH9292676201710                D89828070200PV1D20171002000030SPEAKER ASM                   M IMCTM S5MA14 FTTL  07070IMCT  S5 PTB  00005                    1300 SR        000000000000 FUJITSU TEN (THAILAN17074NL0068068                                                                                                                              *          20170926WMF1709263.TXT
MDEDH9292677201710                D89828070200PV1D20171002000030SPEAKER ASM                   M IMCTM S5MA14 FTTL  07070IMCT  S5 PTB  00005                    1600 SR        000000000000 FUJITSU TEN (THAILAN17074NL0069069                                                                                                                              *          20170926WMF1709263.TXT
MDEDH9292678201710                D89828070200PV1D20171002000030SPEAKER ASM                   M IMCTM S5MA14 FTTL  07070IMCT  S5 PTB  00005                    2100 SR        000000000000 FUJITSU TEN (THAILAN17067WL0003003                                                                                                                              *          20170926WMF1709263.TXT
MDEDH9292679201710                D89828070200PV4D20170929000030SPEAKER ASM                   M IMCTM S0FR05 FTTL  07070IMCT  S0 PTB  00005                    2230 SR        000000000000 FUJITSU TEN (THAILAN17079NU0054054                                                                                                                              *          20170926WMF1709263.TXT
MDEDH9292680201710                D89828070200PV4D20171002000030SPEAKER ASM                   M IMCTM S0FR05 FTTL  07070IMCT  S0 PTB  00005                    2100 SR        000000000000 FUJITSU TEN (THAILAN17079NU0055055                                                                                                                              *          20170926WMF1709263.TXT
MDEDH9292681201710                D89828070300PT1D20170929000060SPEAKER ASM                   M IMCTM S5NB082FTTL  07070IMCT  S5 PTB  00015                    2230 SR        000000000000 FUJITSU TEN (THAILAN17056NL0043044                                                                                                                              *          20170926WMF1709263.TXT
MDEDH9292682201710                D89828070300PT1D20170930000030SPEAKER ASM                   M IMCTM S5NB082FTTL  07070IMCT  S5 PTB  00015                    0230 SR        000000000000 FUJITSU TEN (THAILAN17055NL0052052                                                                                                                              *          20170926WMF1709263.TXT
MDEDH9292683201710                D89828070300PT1D20170930000030SPEAKER ASM                   M IMCTM S5NB082FTTL  07070IMCT  S5 PTB  00015                    0400 SR        000000000000 FUJITSU TEN (THAILAN17055NL0053053                                                                                                                              *          20170926WMF1709263.TXT
MDEDH9292684201710                D89828070300PT1D20171002000030SPEAKER ASM                   M IMCTM S5NB082FTTL  07070IMCT  S5 PTB  00015                    0830 SR        000000000000 FUJITSU TEN (THAILAN17055NL0054054                                                                                                                              *          20170926WMF1709263.TXT
MDEDH9292685201710                D89828070300PT1D20171002000030SPEAKER ASM                   M IMCTM S5NB082FTTL  07070IMCT  S5 PTB  00015                    1030 SR        000000000000 FUJITSU TEN (THAILAN17029NL0014014                                                                                                                              *          20170926WMF1709263.TXT
MDEDH9292686201710                D89828070300PT1D20171002000060SPEAKER ASM                   M IMCTM S5NB082FTTL  07070IMCT  S5 PTB  00015                    1300 SR        000000000000 FUJITSU TEN (THAILAN17065NL002002017074NL0068068                                                                                                                *          20170926WMF1709263.TXT
MDEDH9292687201710                D89828070300PT1D20171002000030SPEAKER ASM                   M IMCTM S5NB082FTTL  07070IMCT  S5 PTB  00015                    1600 SR        000000000000 FUJITSU TEN (THAILAN17074NL0069069                                                                                                                              *          20170926WMF1709263.TXT
MDEDH9292688201710                D89828070300PT1D20171002000030SPEAKER ASM                   M IMCTM S5NB082FTTL  07070IMCT  S5 PTB  00015                    2100 SR        000000000000 FUJITSU TEN (THAILAN17067WL0003003                                                                                                                              *          20170926WMF1709263.TXT
MDEDH9292689201710                D89828070300PT4D20170929000030SPEAKER ASM                   M IMCTM S9TS02 FTTL  07070IMCT  S9 PTB  00015                    2230 SR        000000000000 FUJITSU TEN (THAILAN17079NU0054054                                                                                                                              *          20170926WMF1709263.TXT
MDEDH9292690201710                D89828070300PT4D20171002000030SPEAKER ASM                   M IMCTM S9TS02 FTTL  07070IMCT  S9 PTB  00015                    1300 SR        000000000000 FUJITSU TEN (THAILAN17064NU0008008                                                                                                                              *          20170926WMF1709263.TXT
MDEDH9292691201710                D89828070300PT4D20171002000030SPEAKER ASM                   M IMCTM S9TS02 FTTL  07070IMCT  S9 PTB  00015                    2100 SR        000000000000 FUJITSU TEN (THAILAN17079NU0055055                                                                                                                              *          20170926WMF1709263.TXT
MDEDH9292692201710                D89848581800PT1D20170930000015RADIO;AM/FM CD D              M IMCTM S5NC06 FTTL  07070IMCT  S5 PTB  00003                    0230 SR        000000000000 FUJITSU TEN (THAILAN17055NL0052052                                                                                                                              *          20170926WMF1709263.TXT
MDEDH9292693201710                D89848581800PT1D20170930000015RADIO;AM/FM CD D              M IMCTM S5NC06 FTTL  07070IMCT  S5 PTB  00003                    0400 SR        000000000000 FUJITSU TEN (THAILAN17055NL0053053                                                                                                                              *          20170926WMF1709263.TXT
MDEDH9292694201710                D89848581800PT1D20171002000015RADIO;AM/FM CD D              M IMCTM S5NC06 FTTL  07070IMCT  S5 PTB  00003                    0830 SR        000000000000 FUJITSU TEN (THAILAN17055NL0054054                                                                                                                              *          20170926WMF1709263.TXT
MDEDH9292695201710                D89848581800PT1D20171002000015RADIO;AM/FM CD D              M IMCTM S5NC06 FTTL  07070IMCT  S5 PTB  00003                    1300 SR        000000000000 FUJITSU TEN (THAILAN17074NL0068068                                                                                                                              *          20170926WMF1709263.TXT
MDEDH9292696201710                D89848581800PT1D20171002000015RADIO;AM/FM CD D              M IMCTM S5NC06 FTTL  07070IMCT  S5 PTB  00003                    1600 SR        000000000000 FUJITSU TEN (THAILAN17074NL0069069                                                                                                                              *          20170926WMF1709263.TXT
MDEDH9292697201710                D89848581800PT4D20170929000015RADIO;AM/FM CD D              M IMCTM S9CO001FTTL  07070IMCT  S9 PTB  00003                    2230 SR        000000000000 FUJITSU TEN (THAILAN17079NU0054054                                                                                                                              *          20170926WMF1709263.TXT
MDEDH9292698201710                D89848581800PT4D20171002000015RADIO;AM/FM CD D              M IMCTM S9CO001FTTL  07070IMCT  S9 PTB  00003                    1300 SR        000000000000 FUJITSU TEN (THAILAN17064NU0008008                                                                                                                              *          20170926WMF1709263.TXT
MDEDH9292699201710                D89848581800PT4D20171002000015RADIO;AM/FM CD D              M IMCTM S9CO001FTTL  07070IMCT  S9 PTB  00003                    2100 SR        000000000000 FUJITSU TEN (THAILAN17079NU0055055                                                                                                                              *          20170926WMF1709263.TXT
MDEDH9292700201710                D89848582500PT1D20170929000030RADIO;AM/FM CD D              M IMCTM S5NC06 FTTL  07070IMCT  S5 PTB  00003                    2230 SR        000000000000 FUJITSU TEN (THAILAN17056NL0043044                                                                                                                              *          20170926WMF1709263.TXT
MDEDH9292701201710                D89848582500PT1D20171002000015RADIO;AM/FM CD D              M IMCTM S5NC06 FTTL  07070IMCT  S5 PTB  00003                    1300 SR        000000000000 FUJITSU TEN (THAILAN17065NL0020020                                                                                                                              *          20170926WMF1709263.TXT
MDEUH9278213201710                D89828070100PT4U20170930000030SPEAKER ASM                   M IMCTM S0FL05 FTTL  07070IMCT  S0 PTB  00004                    0230 SR        000000000000 FUJITSU TEN (THAILAN18078SU0098098                                                                                                                              *          20170926WMF1709263.TXT
MDEUH9278214201710                D89828070100PT4U20171002000030SPEAKER ASM                   M IMCTM S0FL05 FTTL  07070IMCT  S0 PTB  00004                    0830 SR        000000000000 FUJITSU TEN (THAILAN18078SU0099099                                                                                                                              *          20170926WMF1709263.TXT
MDEUH9278215201710                D89828070100PT4U20171002000030SPEAKER ASM                   M IMCTM S0FL05 FTTL  07070IMCT  S0 PTB  00004                    1030 SR        000000000000 FUJITSU TEN (THAILAN18078SU0100100                                                                                                                              *          20170926WMF1709263.TXT
MDEUH9278216201710                D89828070100PT4U20171002000030SPEAKER ASM                   M IMCTM S0FL05 FTTL  07070IMCT  S0 PTB  00004                    1300 SR        000000000000 FUJITSU TEN (THAILAN18078SU0101101                                                                                                                              *          20170926WMF1709263.TXT
MDEUH9278217201710                D89828070100PT4U20171002000030SPEAKER ASM                   M IMCTM S0FL05 FTTL  07070IMCT  S0 PTB  00004                    1600 SR        000000000000 FUJITSU TEN (THAILAN18078SU0102102                                                                                                                              *          20170926WMF1709263.TXT
MDEUH9278218201710                D89828070200PV4U20170930000030SPEAKER ASM                   M IMCTM S0FR05 FTTL  07070IMCT  S0 PTB  00005                    0230 SR        000000000000 FUJITSU TEN (THAILAN18078SU0098098                                                                                                                              *          20170926WMF1709263.TXT
MDEUH9278219201710                D89828070200PV4U20171002000030SPEAKER ASM                   M IMCTM S0FR05 FTTL  07070IMCT  S0 PTB  00005                    0830 SR        000000000000 FUJITSU TEN (THAILAN18078SU0099099                                                                                                                              *          20170926WMF1709263.TXT
MDEUH9278220201710                D89828070200PV4U20171002000030SPEAKER ASM                   M IMCTM S0FR05 FTTL  07070IMCT  S0 PTB  00005                    1030 SR        000000000000 FUJITSU TEN (THAILAN18078SU0100100                                                                                                                              *          20170926WMF1709263.TXT
MDEUH9278221201710                D89828070200PV4U20171002000030SPEAKER ASM                   M IMCTM S0FR05 FTTL  07070IMCT  S0 PTB  00005                    1300 SR        000000000000 FUJITSU TEN (THAILAN18078SU0101101                                                                                                                              *          20170926WMF1709263.TXT
MDEUH9278222201710                D89828070200PV4U20171002000030SPEAKER ASM                   M IMCTM S0FR05 FTTL  07070IMCT  S0 PTB  00005                    1600 SR        000000000000 FUJITSU TEN (THAILAN18078SU0102102                                                                                                                              *          20170926WMF1709263.TXT
MDEUH9278223201710                D89828070300PT4U20170930000030SPEAKER ASM                   M IMCTM S9TS02 FTTL  07070IMCT  S9 PTB  00015                    0230 SR        000000000000 FUJITSU TEN (THAILAN18078SU0098098                                                                                                                              *          20170926WMF1709263.TXT
MDEUH9278224201710                D89828070300PT4U20171002000030SPEAKER ASM                   M IMCTM S9TS02 FTTL  07070IMCT  S9 PTB  00015                    0830 SR        000000000000 FUJITSU TEN (THAILAN18078SU0099099                                                                                                                              *          20170926WMF1709263.TXT
MDEUH9278225201710                D89828070300PT4U20171002000030SPEAKER ASM                   M IMCTM S9TS02 FTTL  07070IMCT  S9 PTB  00015                    1030 SR        000000000000 FUJITSU TEN (THAILAN18078SU0100100                                                                                                                              *          20170926WMF1709263.TXT
MDEUH9278226201710                D89828070300PT4U20171002000030SPEAKER ASM                   M IMCTM S9TS02 FTTL  07070IMCT  S9 PTB  00015                    1300 SR        000000000000 FUJITSU TEN (THAILAN18078SU0101101                                                                                                                              *          20170926WMF1709263.TXT
MDEUH9278227201710                D89828070300PT4U20171002000030SPEAKER ASM                   M IMCTM S9TS02 FTTL  07070IMCT  S9 PTB  00015                    1600 SR        000000000000 FUJITSU TEN (THAILAN18078SU0102102                                                                                                                              *          20170926WMF1709263.TXT
