REC2017072620170726ISUZU                              3      
MADDH7603495201710                 89828070100PV4D20170925000004SPEAKER ASM                   M IMCTM ST00000FTTL  07070IMCT  ST PTB  00004  DC                0000 SR        000000000000 FUJITSU TEN (THAILAN180L2HU0001001180L2JU0001001                                                                                                                *P         20170726WMF1707267.TXT
MADDH7603496201710                 89828070200PV4D20170925000002SPEAKER ASM                   M IMCTM ST00000FTTL  07070IMCT  ST PTB  00005  DC                0000 SR        000000000000 FUJITSU TEN (THAILAN180L2JU0001001                                                                                                                              *P         20170726WMF1707267.TXT
MADDH7603497201710                 89828070300PT4D20170925000004SPEAKER ASM                   M IMCTM ST00000FTTL  07070IMCT  ST PTB  00015  DC                0000 SR        000000000000 FUJITSU TEN (THAILAN180L2HU0001001180L2JU0001001                                                                                                                *P         20170726WMF1707267.TXT
