REC2017092520170925ISUZU                              57     
MDDDH9271669201709                D89825217910PT1D20170929000030RADIO;AM/FM,CD,D              M IMCTM S5NC06 FTTL  07070IMCT  S5 PTB  00003                    0230 SR        000000000000 FUJITSU TEN (THAILAN170KPJL0068068                                                                                                                              *          20170925WMF1709254.TXT
MDDDH9271670201709                D89825217910PT1D20170929000030RADIO;AM/FM,CD,D              M IMCTM S5NC06 FTTL  07070IMCT  S5 PTB  00003                    1030 SR        000000000000 FUJITSU TEN (THAILAN170KPJL0069069                                                                                                                              *          20170925WMF1709254.TXT
MDDDH9271671201709                D89828070100PV1D20170928000060SPEAKER ASM                   M IMCTM S5MB11 FTTL  07070IMCT  S5 PTB  00004                    2230 SR        000000000000 FUJITSU TEN (THAILAN170KPFL0236236                                                                                                                              *          20170925WMF1709254.TXT
MDDDH9271672201709                D89828070100PV1D20170929000060SPEAKER ASM                   M IMCTM S5MB11 FTTL  07070IMCT  S5 PTB  00004                    0230 SR        000000000000 FUJITSU TEN (THAILAN170KPJL0068068                                                                                                                              *          20170925WMF1709254.TXT
MDDDH9271673201709                D89828070100PV1D20170929000060SPEAKER ASM                   M IMCTM S5MB11 FTTL  07070IMCT  S5 PTB  00004                    0400 SR        000000000000 FUJITSU TEN (THAILAN170KNAL0086086                                                                                                                              *          20170925WMF1709254.TXT
MDDDH9271674201709                D89828070100PV1D20170929000060SPEAKER ASM                   M IMCTM S5MB11 FTTL  07070IMCT  S5 PTB  00004                    1030 SR        000000000000 FUJITSU TEN (THAILAN170KPJL0069069                                                                                                                              *          20170925WMF1709254.TXT
MDDDH9271675201709                D89828070300PT1D20170928000060SPEAKER ASM                   M IMCTM S5NB082FTTL  07070IMCT  S5 PTB  00015                    2230 SR        000000000000 FUJITSU TEN (THAILAN170KPFL0236236                                                                                                                              *          20170925WMF1709254.TXT
MDDDH9271676201709                D89828070300PT1D20170929000060SPEAKER ASM                   M IMCTM S5NB082FTTL  07070IMCT  S5 PTB  00015                    0230 SR        000000000000 FUJITSU TEN (THAILAN170KPJL0068068                                                                                                                              *          20170925WMF1709254.TXT
MDDDH9271677201709                D89828070300PT1D20170929000060SPEAKER ASM                   M IMCTM S5NB082FTTL  07070IMCT  S5 PTB  00015                    1030 SR        000000000000 FUJITSU TEN (THAILAN170KPJL0069069                                                                                                                              *          20170925WMF1709254.TXT
MDDDH9271678201709                D89831228300PT1D20170928000030RADIO;AM/FM,CD                M IMCTM S5NC06 FTTL  07070IMCT  S5 CPB  00003                    2230 SR        000000000000 FUJITSU TEN (THAILAN170KPFL0236236                                                                                                                              *          20170925WMF1709254.TXT
MDDUH9237069201709                D89828070100PT4U20170928000030SPEAKER ASM                   M IMCTM S0FL05 FTTL  07070IMCT  S0 PTB  00004                    2230 SR        000000000000 FUJITSU TEN (THAILAN180LUDU0262262                                                                                                                              *          20170925WMF1709254.TXT
MDDUH9237070201709                D89828070100PT4U20170929000060SPEAKER ASM                   M IMCTM S0FL05 FTTL  07070IMCT  S0 PTB  00004                    0400 SR        000000000000 FUJITSU TEN (THAILAN180LUCU0084084180LUFU0051051                                                                                                                *          20170925WMF1709254.TXT
MDDUH9237071201709                D89828070100PT4U20170929000030SPEAKER ASM                   M IMCTM S0FL05 FTTL  07070IMCT  S0 PTB  00004                    0830 SR        000000000000 FUJITSU TEN (THAILAN180LUDU0263263                                                                                                                              *          20170925WMF1709254.TXT
MDDUH9237072201709                D89828070100PT4U20170929000060SPEAKER ASM                   M IMCTM S0FL05 FTTL  07070IMCT  S0 PTB  00004                    1300 SR        000000000000 FUJITSU TEN (THAILAN180LUDU0264264180LUEU0178178                                                                                                                *          20170925WMF1709254.TXT
MDDUH9237073201709                D89828070200PV4U20170928000030SPEAKER ASM                   M IMCTM S0FR05 FTTL  07070IMCT  S0 PTB  00005                    2230 SR        000000000000 FUJITSU TEN (THAILAN180LUDU0262262                                                                                                                              *          20170925WMF1709254.TXT
MDDUH9237074201709                D89828070200PV4U20170929000060SPEAKER ASM                   M IMCTM S0FR05 FTTL  07070IMCT  S0 PTB  00005                    0400 SR        000000000000 FUJITSU TEN (THAILAN180LUCU0084084180LUFU0051051                                                                                                                *          20170925WMF1709254.TXT
MDDUH9237075201709                D89828070200PV4U20170929000030SPEAKER ASM                   M IMCTM S0FR05 FTTL  07070IMCT  S0 PTB  00005                    0830 SR        000000000000 FUJITSU TEN (THAILAN180LUDU0263263                                                                                                                              *          20170925WMF1709254.TXT
MDDUH9237076201709                D89828070200PV4U20170929000060SPEAKER ASM                   M IMCTM S0FR05 FTTL  07070IMCT  S0 PTB  00005                    1300 SR        000000000000 FUJITSU TEN (THAILAN180LUDU0264264180LUEU0178178                                                                                                                *          20170925WMF1709254.TXT
MDDUH9237077201709                D89828070300PT4U20170928000030SPEAKER ASM                   M IMCTM S9TS02 FTTL  07070IMCT  S9 PTB  00015                    2230 SR        000000000000 FUJITSU TEN (THAILAN180LUDU0262262                                                                                                                              *          20170925WMF1709254.TXT
MDDUH9237078201709                D89828070300PT4U20170929000060SPEAKER ASM                   M IMCTM S9TS02 FTTL  07070IMCT  S9 PTB  00015                    0400 SR        000000000000 FUJITSU TEN (THAILAN180LUCU0084084180LUFU0051051                                                                                                                *          20170925WMF1709254.TXT
MDDUH9237079201709                D89828070300PT4U20170929000030SPEAKER ASM                   M IMCTM S9TS02 FTTL  07070IMCT  S9 PTB  00015                    0830 SR        000000000000 FUJITSU TEN (THAILAN180LUDU0263263                                                                                                                              *          20170925WMF1709254.TXT
MDDUH9237080201709                D89828070300PT4U20170929000060SPEAKER ASM                   M IMCTM S9TS02 FTTL  07070IMCT  S9 PTB  00015                    1300 SR        000000000000 FUJITSU TEN (THAILAN180LUDU0264264180LUEU0178178                                                                                                                *          20170925WMF1709254.TXT
MDDUH9237081201709                D89835097910PT4U20170929000015RADIO;ASM DVD                 M IMCTM S9TS01 FTTL  07070IMCT  S9 PTB  00003                    0400 SR        000000000000 FUJITSU TEN (THAILAN180LUCU0084084                                                                                                                              *          20170925WMF1709254.TXT
MDEDH9285119201709                D89828070100PV1D20170928000060SPEAKER ASM                   M IMCTM S5MB11 FTTL  07070IMCT  S5 PTB  00004                    2230 SR        000000000000 FUJITSU TEN (THAILAN17018ML0026027                                                                                                                              *          20170925WMF1709254.TXT
MDEDH9285120201709                D89828070100PV1D20170929000060SPEAKER ASM                   M IMCTM S5MB11 FTTL  07070IMCT  S5 PTB  00004                    0400 SR        000000000000 FUJITSU TEN (THAILAN17077PL0010011                                                                                                                              *          20170925WMF1709254.TXT
MDEDH9285121201709                D89828070100PV1D20170929000030SPEAKER ASM                   M IMCTM S5MB11 FTTL  07070IMCT  S5 PTB  00004                    0830 SR        000000000000 FUJITSU TEN (THAILAN17079NL0083083                                                                                                                              *          20170925WMF1709254.TXT
MDEDH9285122201709                D89828070100PV1D20170929000030SPEAKER ASM                   M IMCTM S5MB11 FTTL  07070IMCT  S5 PTB  00004                    1030 SR        000000000000 FUJITSU TEN (THAILAN17079NL0084084                                                                                                                              *          20170925WMF1709254.TXT
MDEDH9285123201709                D89828070100PV1D20170929000120SPEAKER ASM                   M IMCTM S5MB11 FTTL  07070IMCT  S5 PTB  00004                    1300 SR        000000000000 FUJITSU TEN (THAILAN17031ML002902917053NL005205217054PL004104117079NL0085085                                                                                    *          20170925WMF1709254.TXT
MDEDH9285124201709                D89828070100PV1D20170929000060SPEAKER ASM                   M IMCTM S5MB11 FTTL  07070IMCT  S5 PTB  00004                    1600 SR        000000000000 FUJITSU TEN (THAILAN17053NL005305317079NL0086086                                                                                                                *          20170925WMF1709254.TXT
MDEDH9285125201709                D89828070100PV1D20170929000030SPEAKER ASM                   M IMCTM S5MB11 FTTL  07070IMCT  S5 PTB  00004                    2100 SR        000000000000 FUJITSU TEN (THAILAN17079NL0087087                                                                                                                              *          20170925WMF1709254.TXT
MDEDH9285126201709                D89828070200PV1D20170928000060SPEAKER ASM                   M IMCTM S5MA14 FTTL  07070IMCT  S5 PTB  00005                    2230 SR        000000000000 FUJITSU TEN (THAILAN17018ML0026027                                                                                                                              *          20170925WMF1709254.TXT
MDEDH9285127201709                D89828070200PV1D20170929000030SPEAKER ASM                   M IMCTM S5MA14 FTTL  07070IMCT  S5 PTB  00005                    0830 SR        000000000000 FUJITSU TEN (THAILAN17079NL0083083                                                                                                                              *          20170925WMF1709254.TXT
MDEDH9285128201709                D89828070200PV1D20170929000030SPEAKER ASM                   M IMCTM S5MA14 FTTL  07070IMCT  S5 PTB  00005                    1030 SR        000000000000 FUJITSU TEN (THAILAN17079NL0084084                                                                                                                              *          20170925WMF1709254.TXT
MDEDH9285129201709                D89828070200PV1D20170929000060SPEAKER ASM                   M IMCTM S5MA14 FTTL  07070IMCT  S5 PTB  00005                    1300 SR        000000000000 FUJITSU TEN (THAILAN17031ML002902917079NL0085085                                                                                                                *          20170925WMF1709254.TXT
MDEDH9285130201709                D89828070200PV1D20170929000030SPEAKER ASM                   M IMCTM S5MA14 FTTL  07070IMCT  S5 PTB  00005                    1600 SR        000000000000 FUJITSU TEN (THAILAN17079NL0086086                                                                                                                              *          20170925WMF1709254.TXT
MDEDH9285131201709                D89828070200PV1D20170929000030SPEAKER ASM                   M IMCTM S5MA14 FTTL  07070IMCT  S5 PTB  00005                    2100 SR        000000000000 FUJITSU TEN (THAILAN17079NL0087087                                                                                                                              *          20170925WMF1709254.TXT
MDEDH9285132201709                D89828070300PT1D20170928000060SPEAKER ASM                   M IMCTM S5NB082FTTL  07070IMCT  S5 PTB  00015                    2230 SR        000000000000 FUJITSU TEN (THAILAN17018ML0026027                                                                                                                              *          20170925WMF1709254.TXT
MDEDH9285133201709                D89828070300PT1D20170929000030SPEAKER ASM                   M IMCTM S5NB082FTTL  07070IMCT  S5 PTB  00015                    0830 SR        000000000000 FUJITSU TEN (THAILAN17079NL0083083                                                                                                                              *          20170925WMF1709254.TXT
MDEDH9285134201709                D89828070300PT1D20170929000030SPEAKER ASM                   M IMCTM S5NB082FTTL  07070IMCT  S5 PTB  00015                    1030 SR        000000000000 FUJITSU TEN (THAILAN17079NL0084084                                                                                                                              *          20170925WMF1709254.TXT
MDEDH9285135201709                D89828070300PT1D20170929000090SPEAKER ASM                   M IMCTM S5NB082FTTL  07070IMCT  S5 PTB  00015                    1300 SR        000000000000 FUJITSU TEN (THAILAN17031ML002902917053NL005205217079NL0085085                                                                                                  *          20170925WMF1709254.TXT
MDEDH9285136201709                D89828070300PT1D20170929000060SPEAKER ASM                   M IMCTM S5NB082FTTL  07070IMCT  S5 PTB  00015                    1600 SR        000000000000 FUJITSU TEN (THAILAN17053NL005305317079NL0086086                                                                                                                *          20170925WMF1709254.TXT
MDEDH9285137201709                D89828070300PT1D20170929000030SPEAKER ASM                   M IMCTM S5NB082FTTL  07070IMCT  S5 PTB  00015                    2100 SR        000000000000 FUJITSU TEN (THAILAN17079NL0087087                                                                                                                              *          20170925WMF1709254.TXT
MDEDH9285138201709                D89829645310PT1D20170928000030RADIO;ASM DVD                 M IMCTM S5NC06 FTTL  07070IMCT  S5 PTB  00003                    2230 SR        000000000000 FUJITSU TEN (THAILAN17018ML0026027                                                                                                                              *          20170925WMF1709254.TXT
MDEDH9285139201709                D89848581800PT1D20170929000015RADIO;AM/FM CD D              M IMCTM S5NC06 FTTL  07070IMCT  S5 PTB  00003                    0830 SR        000000000000 FUJITSU TEN (THAILAN17079NL0083083                                                                                                                              *          20170925WMF1709254.TXT
MDEDH9285140201709                D89848581800PT1D20170929000015RADIO;AM/FM CD D              M IMCTM S5NC06 FTTL  07070IMCT  S5 PTB  00003                    1030 SR        000000000000 FUJITSU TEN (THAILAN17079NL0084084                                                                                                                              *          20170925WMF1709254.TXT
MDEDH9285141201709                D89848581800PT1D20170929000030RADIO;AM/FM CD D              M IMCTM S5NC06 FTTL  07070IMCT  S5 PTB  00003                    1300 SR        000000000000 FUJITSU TEN (THAILAN17053NL005205217079NL0085085                                                                                                                *          20170925WMF1709254.TXT
MDEDH9285142201709                D89848581800PT1D20170929000030RADIO;AM/FM CD D              M IMCTM S5NC06 FTTL  07070IMCT  S5 PTB  00003                    1600 SR        000000000000 FUJITSU TEN (THAILAN17053NL005305317079NL0086086                                                                                                                *          20170925WMF1709254.TXT
MDEDH9285143201709                D89848581800PT1D20170929000015RADIO;AM/FM CD D              M IMCTM S5NC06 FTTL  07070IMCT  S5 PTB  00003                    2100 SR        000000000000 FUJITSU TEN (THAILAN17079NL0087087                                                                                                                              *          20170925WMF1709254.TXT
MDEUH9275305201709                D89828070100PT4U20170928000030SPEAKER ASM                   M IMCTM S0FL05 FTTL  07070IMCT  S0 PTB  00004                    2230 SR        000000000000 FUJITSU TEN (THAILAN18078SU0096096                                                                                                                              *          20170925WMF1709254.TXT
MDEUH9275306201709                D89828070100PT4U20170929000030SPEAKER ASM                   M IMCTM S0FL05 FTTL  07070IMCT  S0 PTB  00004                    1300 SR        000000000000 FUJITSU TEN (THAILAN18078SU0097097                                                                                                                              *          20170925WMF1709254.TXT
MDEUH9275307201709                D89828070100PT4U20170929000030SPEAKER ASM                   M IMCTM S0FL05 FTTL  07070IMCT  S0 PTB  00004                    2100 SR        000000000000 FUJITSU TEN (THAILAN18020TU0008008                                                                                                                              *          20170925WMF1709254.TXT
MDEUH9275308201709                D89828070200PV4U20170928000030SPEAKER ASM                   M IMCTM S0FR05 FTTL  07070IMCT  S0 PTB  00005                    2230 SR        000000000000 FUJITSU TEN (THAILAN18078SU0096096                                                                                                                              *          20170925WMF1709254.TXT
MDEUH9275309201709                D89828070200PV4U20170929000030SPEAKER ASM                   M IMCTM S0FR05 FTTL  07070IMCT  S0 PTB  00005                    1300 SR        000000000000 FUJITSU TEN (THAILAN18078SU0097097                                                                                                                              *          20170925WMF1709254.TXT
MDEUH9275310201709                D89828070200PV4U20170929000030SPEAKER ASM                   M IMCTM S0FR05 FTTL  07070IMCT  S0 PTB  00005                    2100 SR        000000000000 FUJITSU TEN (THAILAN18020TU0008008                                                                                                                              *          20170925WMF1709254.TXT
MDEUH9275311201709                D89828070300PT4U20170928000030SPEAKER ASM                   M IMCTM S9TS02 FTTL  07070IMCT  S9 PTB  00015                    2230 SR        000000000000 FUJITSU TEN (THAILAN18078SU0096096                                                                                                                              *          20170925WMF1709254.TXT
MDEUH9275312201709                D89828070300PT4U20170929000030SPEAKER ASM                   M IMCTM S9TS02 FTTL  07070IMCT  S9 PTB  00015                    1300 SR        000000000000 FUJITSU TEN (THAILAN18078SU0097097                                                                                                                              *          20170925WMF1709254.TXT
MDEUH9275313201709                D89828070300PT4U20170929000030SPEAKER ASM                   M IMCTM S9TS02 FTTL  07070IMCT  S9 PTB  00015                    2100 SR        000000000000 FUJITSU TEN (THAILAN18020TU0008008                                                                                                                              *          20170925WMF1709254.TXT
