REC2017090920170909ISUZU                              16     
MDEFH9T07928201709                D89828070100PV4F20170914000030SPEAKER ASM                   M IMCTM S7FL05 FTTL  07070IMCT  S7 PTB  00004                    1300 SR        000000000000 FUJITSU TEN (THAILAN17099LR0015   17008RR0064   R170903201    R170903215    000000                                                                              *R         20170909RDF1709098.TXT
MDEFH9T07929201709                D89828070200PV4F20170914000010SPEAKER ASM                   M IMCTM S7TS02 FTTL  07070IMCT  S7 PTB  00005                    0230 SR        000000000000 FUJITSU TEN (THAILAN17026NR0035   17031MR0059   D170903109    D170903115    000000                                                                              *R         20170909RDF1709098.TXT
MDEFH9T07930201709                D89828070300PT4F20170914000009SPEAKER ASM                   M IMCTM S7TS02 FTTL  07070IMCT  S7 PTB  00015                    0230 SR        000000000000 FUJITSU TEN (THAILAN17027MR0051   17031MR0059   D170903111    D170903115    000000                                                                              *R         20170909RDF1709098.TXT
MDEFH9T07931201709                D89829645310PT4F20170914000002RADIO;ASM DVD                 M IMCTM S7TS03 FTTL  07070IMCT  S7 PTB  00003                    0230 SR        000000000000 FUJITSU TEN (THAILAN17027MR0050   17027MR0051   D170903110    D170903111    000000                                                                              *R         20170909RDF1709098.TXT
MDEFH9T07932201709                D89829645510PT4F20170913000001RADIO;ASM DVD                 M IMCTM S7TS03 FTTL  07070IMCT  S7 PTB  00003                    2230 SR        000000000000 FUJITSU TEN (THAILAN17001RR0021   17001RR0021   D170903102    D170903102    000000                                                                              *R         20170909RDF1709098.TXT
MDEFH9224940201709                D89828070100PV4F20170913000016SPEAKER ASM                   M IMCTM S7FL05 FTTL  07070IMCT  S7 PTB  00004                    1600 SR        000000000000 FUJITSU TEN (THAILAN17005NR0038   17017MR0060   D170903001    D170903008    000000                                                                              *R         20170909RDF1709098.TXT
MDEFH9224941201709                D89828070100PV4F20170913000016SPEAKER ASM                   M IMCTM S7FL05 FTTL  07070IMCT  S7 PTB  00004                    2100 SR        000000000000 FUJITSU TEN (THAILAN17022MR0082   17024MR0030   D170903009    D170903101    000000                                                                              *R         20170909RDF1709098.TXT
MDEFH9224942201709                D89828070100PV4F20170913000016SPEAKER ASM                   M IMCTM S7FL05 FTTL  07070IMCT  S7 PTB  00004                    2230 SR        000000000000 FUJITSU TEN (THAILAN17001RR0021   17026NR0035   D170903102    D170903109    000000                                                                              *R         20170909RDF1709098.TXT
MDEFH9224943201709                D89828070100PV4F20170914000012SPEAKER ASM                   M IMCTM S7FL05 FTTL  07070IMCT  S7 PTB  00004                    0230 SR        000000000000 FUJITSU TEN (THAILAN17027MR0050   17031MR0059   D170903110    D170903115    000000                                                                              *R         20170909RDF1709098.TXT
MDEFH9224944201709                D89828070200PV4F20170913000010SPEAKER ASM                   M IMCTM S7TS02 FTTL  07070IMCT  S7 PTB  00005                    1600 SR        000000000000 FUJITSU TEN (THAILAN17005NR0038   17017MR0060   D170903001    D170903008    000000                                                                              *R         20170909RDF1709098.TXT
MDEFH9224945201709                D89828070200PV4F20170913000015SPEAKER ASM                   M IMCTM S7TS02 FTTL  07070IMCT  S7 PTB  00005                    2100 SR        000000000000 FUJITSU TEN (THAILAN17022MR0082   17024MR0030   D170903009    D170903101    000000                                                                              *R         20170909RDF1709098.TXT
MDEFH9224946201709                D89828070200PV4F20170913000015SPEAKER ASM                   M IMCTM S7TS02 FTTL  07070IMCT  S7 PTB  00005                    2230 SR        000000000000 FUJITSU TEN (THAILAN17024MR0030   17026NR0034   D170903101    D170903108    000000                                                                              *R         20170909RDF1709098.TXT
MDEFH9224947201709                D89828070300PT4F20170913000015SPEAKER ASM                   M IMCTM S7TS02 FTTL  07070IMCT  S7 PTB  00015                    1600 SR        000000000000 FUJITSU TEN (THAILAN17005NR0038   17022MR0084   D170903001    D170903011    000000                                                                              *R         20170909RDF1709098.TXT
MDEFH9224948201709                D89828070300PT4F20170913000015SPEAKER ASM                   M IMCTM S7TS02 FTTL  07070IMCT  S7 PTB  00015                    2100 SR        000000000000 FUJITSU TEN (THAILAN17022MR0084   17009NR0022   D170903011    D170903103    000000                                                                              *R         20170909RDF1709098.TXT
MDEFH9224949201709                D89828070300PT4F20170913000015SPEAKER ASM                   M IMCTM S7TS02 FTTL  07070IMCT  S7 PTB  00015                    2230 SR        000000000000 FUJITSU TEN (THAILAN17025MR0011   17027MR0051   D170903104    D170903111    000000                                                                              *R         20170909RDF1709098.TXT
MDEFH9224950201709                D89829645310PT4F20170913000003RADIO;ASM DVD                 M IMCTM S7TS03 FTTL  07070IMCT  S7 PTB  00003                    2100 SR        000000000000 FUJITSU TEN (THAILAN17017MR0060   17025MR0011   D170903008    D170903104    000000                                                                              *R         20170909RDF1709098.TXT
