REC2017092020170920ISUZU                              65     
MDDDH9259901201709                D89821984430PT1D20170926000030RADIO;AM/FM,CD                M IMCTM S5NC06 FTTL  07070IMCT  S5 PTB  00005                    2100 SR        000000000000 FUJITSU TEN (THAILAN170KPAL0198198                                                                                                                              *          20170920WMF1709203.TXT
MDDDH9259902201709                D89825217910PT1D20170926000030RADIO;AM/FM,CD,D              M IMCTM S5NC06 FTTL  07070IMCT  S5 PTB  00003                    0830 SR        000000000000 FUJITSU TEN (THAILAN170KPJL0065065                                                                                                                              *          20170920WMF1709203.TXT
MDDDH9259903201709                D89828070100PV1D20170925000060SPEAKER ASM                   M IMCTM S5MB11 FTTL  07070IMCT  S5 PTB  00004                    2230 SR        000000000000 FUJITSU TEN (THAILAN170KPFL0230230                                                                                                                              *          20170920WMF1709203.TXT
MDDDH9259904201709                D89828070100PV1D20170926000060SPEAKER ASM                   M IMCTM S5MB11 FTTL  07070IMCT  S5 PTB  00004                    0230 SR        000000000000 FUJITSU TEN (THAILAN180LPKL0001001                                                                                                                              *          20170920WMF1709203.TXT
MDDDH9259905201709                D89828070100PV1D20170926000060SPEAKER ASM                   M IMCTM S5MB11 FTTL  07070IMCT  S5 PTB  00004                    0400 SR        000000000000 FUJITSU TEN (THAILAN170KNAL0085085                                                                                                                              *          20170920WMF1709203.TXT
MDDDH9259906201709                D89828070100PV1D20170926000060SPEAKER ASM                   M IMCTM S5MB11 FTTL  07070IMCT  S5 PTB  00004                    0830 SR        000000000000 FUJITSU TEN (THAILAN170KPJL0065065                                                                                                                              *          20170920WMF1709203.TXT
MDDDH9259907201709                D89828070100PV1D20170926000120SPEAKER ASM                   M IMCTM S5MB11 FTTL  07070IMCT  S5 PTB  00004                    1300 SR        000000000000 FUJITSU TEN (THAILAN170KPFL0231231170KRJL0045045                                                                                                                *          20170920WMF1709203.TXT
MDDDH9259908201709                D89828070100PV1D20170926000060SPEAKER ASM                   M IMCTM S5MB11 FTTL  07070IMCT  S5 PTB  00004                    2100 SR        000000000000 FUJITSU TEN (THAILAN170KPAL0198198                                                                                                                              *          20170920WMF1709203.TXT
MDDDH9259909201709                D89828070200PV1D20170926000060SPEAKER ASM                   M IMCTM S5MA14 FTTL  07070IMCT  S5 PTB  00005                    1300 SR        000000000000 FUJITSU TEN (THAILAN170KRJL0045045                                                                                                                              *          20170920WMF1709203.TXT
MDDDH9259910201709                D89828070300PT1D20170925000060SPEAKER ASM                   M IMCTM S5NB082FTTL  07070IMCT  S5 PTB  00015                    2230 SR        000000000000 FUJITSU TEN (THAILAN170KPFL0230230                                                                                                                              *          20170920WMF1709203.TXT
MDDDH9259911201709                D89828070300PT1D20170926000060SPEAKER ASM                   M IMCTM S5NB082FTTL  07070IMCT  S5 PTB  00015                    0230 SR        000000000000 FUJITSU TEN (THAILAN180LPKL0001001                                                                                                                              *          20170920WMF1709203.TXT
MDDDH9259912201709                D89828070300PT1D20170926000060SPEAKER ASM                   M IMCTM S5NB082FTTL  07070IMCT  S5 PTB  00015                    0830 SR        000000000000 FUJITSU TEN (THAILAN170KPJL0065065                                                                                                                              *          20170920WMF1709203.TXT
MDDDH9259913201709                D89828070300PT1D20170926000120SPEAKER ASM                   M IMCTM S5NB082FTTL  07070IMCT  S5 PTB  00015                    1300 SR        000000000000 FUJITSU TEN (THAILAN170KPFL0231231170KRJL0045045                                                                                                                *          20170920WMF1709203.TXT
MDDDH9259914201709                D89831228300PT1D20170925000030RADIO;AM/FM,CD                M IMCTM S5NC06 FTTL  07070IMCT  S5 CPB  00003                    2230 SR        000000000000 FUJITSU TEN (THAILAN170KPFL0230230                                                                                                                              *          20170920WMF1709203.TXT
MDDDH9259915201709                D89831228300PT1D20170926000030RADIO;AM/FM,CD                M IMCTM S5NC06 FTTL  07070IMCT  S5 CPB  00003                    1300 SR        000000000000 FUJITSU TEN (THAILAN170KPFL0231231                                                                                                                              *          20170920WMF1709203.TXT
MDDDH9259916201709                D89848581600PT1D20170926000030RADIO;AM/FM CD D              M IMCTM S5NC06 FTTL  07070IMCT  S5 X    00030                    0230 SR        000000000000 FUJITSU TEN (THAILAN180LPKL0001001                                                                                                                              *          20170920WMF1709203.TXT
MDDUH9228298201709                D89828070100PT4U20170926000030SPEAKER ASM                   M IMCTM S0FL05 FTTL  07070IMCT  S0 PTB  00004                    0230 SR        000000000000 FUJITSU TEN (THAILAN180LUEU0173173                                                                                                                              *          20170920WMF1709203.TXT
MDDUH9228299201709                D89828070100PT4U20170926000030SPEAKER ASM                   M IMCTM S0FL05 FTTL  07070IMCT  S0 PTB  00004                    0830 SR        000000000000 FUJITSU TEN (THAILAN180LUDU0259259                                                                                                                              *          20170920WMF1709203.TXT
MDDUH9228300201709                D89828070100PT4U20170926000030SPEAKER ASM                   M IMCTM S0FL05 FTTL  07070IMCT  S0 PTB  00004                    1300 SR        000000000000 FUJITSU TEN (THAILAN180LUEU0174174                                                                                                                              *          20170920WMF1709203.TXT
MDDUH9228301201709                D89828070100PT4U20170926000030SPEAKER ASM                   M IMCTM S0FL05 FTTL  07070IMCT  S0 PTB  00004                    2100 SR        000000000000 FUJITSU TEN (THAILAN180LUCU0081081                                                                                                                              *          20170920WMF1709203.TXT
MDDUH9228302201709                D89828070200PV4U20170926000030SPEAKER ASM                   M IMCTM S0FR05 FTTL  07070IMCT  S0 PTB  00005                    0230 SR        000000000000 FUJITSU TEN (THAILAN180LUEU0173173                                                                                                                              *          20170920WMF1709203.TXT
MDDUH9228303201709                D89828070200PV4U20170926000030SPEAKER ASM                   M IMCTM S0FR05 FTTL  07070IMCT  S0 PTB  00005                    0830 SR        000000000000 FUJITSU TEN (THAILAN180LUDU0259259                                                                                                                              *          20170920WMF1709203.TXT
MDDUH9228304201709                D89828070200PV4U20170926000030SPEAKER ASM                   M IMCTM S0FR05 FTTL  07070IMCT  S0 PTB  00005                    1300 SR        000000000000 FUJITSU TEN (THAILAN180LUEU0174174                                                                                                                              *          20170920WMF1709203.TXT
MDDUH9228305201709                D89828070200PV4U20170926000030SPEAKER ASM                   M IMCTM S0FR05 FTTL  07070IMCT  S0 PTB  00005                    2100 SR        000000000000 FUJITSU TEN (THAILAN180LUCU0081081                                                                                                                              *          20170920WMF1709203.TXT
MDDUH9228306201709                D89828070300PT4U20170926000030SPEAKER ASM                   M IMCTM S9TS02 FTTL  07070IMCT  S9 PTB  00015                    0230 SR        000000000000 FUJITSU TEN (THAILAN180LUEU0173173                                                                                                                              *          20170920WMF1709203.TXT
MDDUH9228307201709                D89828070300PT4U20170926000030SPEAKER ASM                   M IMCTM S9TS02 FTTL  07070IMCT  S9 PTB  00015                    0830 SR        000000000000 FUJITSU TEN (THAILAN180LUDU0259259                                                                                                                              *          20170920WMF1709203.TXT
MDDUH9228308201709                D89828070300PT4U20170926000030SPEAKER ASM                   M IMCTM S9TS02 FTTL  07070IMCT  S9 PTB  00015                    1300 SR        000000000000 FUJITSU TEN (THAILAN180LUEU0174174                                                                                                                              *          20170920WMF1709203.TXT
MDDUH9228309201709                D89828070300PT4U20170926000030SPEAKER ASM                   M IMCTM S9TS02 FTTL  07070IMCT  S9 PTB  00015                    2100 SR        000000000000 FUJITSU TEN (THAILAN180LUCU0081081                                                                                                                              *          20170920WMF1709203.TXT
MDDUH9228310201709                D89835097910PT4U20170926000015RADIO;ASM DVD                 M IMCTM S9TS01 FTTL  07070IMCT  S9 PTB  00003                    2100 SR        000000000000 FUJITSU TEN (THAILAN180LUCU0081081                                                                                                                              *          20170920WMF1709203.TXT
MDEDH9268507201709                D89828070100PV1D20170925000030SPEAKER ASM                   M IMCTM S5MB11 FTTL  07070IMCT  S5 PTB  00004                    2230 SR        000000000000 FUJITSU TEN (THAILAN17077ML0013013                                                                                                                              *          20170920WMF1709203.TXT
MDEDH9268508201709                D89828070100PV1D20170926000030SPEAKER ASM                   M IMCTM S5MB11 FTTL  07070IMCT  S5 PTB  00004                    0230 SR        000000000000 FUJITSU TEN (THAILAN17033QL0017017                                                                                                                              *          20170920WMF1709203.TXT
MDEDH9268509201709                D89828070100PV1D20170926000060SPEAKER ASM                   M IMCTM S5MB11 FTTL  07070IMCT  S5 PTB  00004                    0400 SR        000000000000 FUJITSU TEN (THAILAN17080NL0096097                                                                                                                              *          20170920WMF1709203.TXT
MDEDH9268510201709                D89828070100PV1D20170926000060SPEAKER ASM                   M IMCTM S5MB11 FTTL  07070IMCT  S5 PTB  00004                    1030 SR        000000000000 FUJITSU TEN (THAILAN17017QL0002003                                                                                                                              *          20170920WMF1709203.TXT
MDEDH9268511201709                D89828070100PV1D20170926000030SPEAKER ASM                   M IMCTM S5MB11 FTTL  07070IMCT  S5 PTB  00004                    1300 SR        000000000000 FUJITSU TEN (THAILAN17032RL0005005                                                                                                                              *          20170920WMF1709203.TXT
MDEDH9268512201709                D89828070100PV1D20170926000030SPEAKER ASM                   M IMCTM S5MB11 FTTL  07070IMCT  S5 PTB  00004                    1600 SR        000000000000 FUJITSU TEN (THAILAN17065NL0019019                                                                                                                              *          20170920WMF1709203.TXT
MDEDH9268513201709                D89828070100PV1D20170926000030SPEAKER ASM                   M IMCTM S5MB11 FTTL  07070IMCT  S5 PTB  00004                    2230 SR        000000000000 FUJITSU TEN (THAILAN17007RL0004004                                                                                                                              *          20170920WMF1709203.TXT
MDEDH9268514201709                D89828070100PV4D20170926000030SPEAKER ASM                   M IMCTM S0FL05 FTTL  07070IMCT  S0 PTB  00004                    0400 SR        000000000000 FUJITSU TEN (THAILAN17080NU0061061                                                                                                                              *          20170920WMF1709203.TXT
MDEDH9268515201709                D89828070100PV4D20170926000030SPEAKER ASM                   M IMCTM S0FL05 FTTL  07070IMCT  S0 PTB  00004                    1600 SR        000000000000 FUJITSU TEN (THAILAN17083MU0005005                                                                                                                              *          20170920WMF1709203.TXT
MDEDH9268516201709                D89828070200PV1D20170926000030SPEAKER ASM                   M IMCTM S5MA14 FTTL  07070IMCT  S5 PTB  00005                    0230 SR        000000000000 FUJITSU TEN (THAILAN17033QL0017017                                                                                                                              *          20170920WMF1709203.TXT
MDEDH9268517201709                D89828070200PV1D20170926000060SPEAKER ASM                   M IMCTM S5MA14 FTTL  07070IMCT  S5 PTB  00005                    0400 SR        000000000000 FUJITSU TEN (THAILAN17080NL0096097                                                                                                                              *          20170920WMF1709203.TXT
MDEDH9268518201709                D89828070200PV4D20170926000030SPEAKER ASM                   M IMCTM S0FR05 FTTL  07070IMCT  S0 PTB  00005                    0400 SR        000000000000 FUJITSU TEN (THAILAN17080NU0061061                                                                                                                              *          20170920WMF1709203.TXT
MDEDH9268519201709                D89828070300PT1D20170926000030SPEAKER ASM                   M IMCTM S5NB082FTTL  07070IMCT  S5 PTB  00015                    0230 SR        000000000000 FUJITSU TEN (THAILAN17033QL0017017                                                                                                                              *          20170920WMF1709203.TXT
MDEDH9268520201709                D89828070300PT1D20170926000060SPEAKER ASM                   M IMCTM S5NB082FTTL  07070IMCT  S5 PTB  00015                    0400 SR        000000000000 FUJITSU TEN (THAILAN17080NL0096097                                                                                                                              *          20170920WMF1709203.TXT
MDEDH9268521201709                D89828070300PT1D20170926000030SPEAKER ASM                   M IMCTM S5NB082FTTL  07070IMCT  S5 PTB  00015                    1300 SR        000000000000 FUJITSU TEN (THAILAN17032RL0005005                                                                                                                              *          20170920WMF1709203.TXT
MDEDH9268522201709                D89828070300PT1D20170926000030SPEAKER ASM                   M IMCTM S5NB082FTTL  07070IMCT  S5 PTB  00015                    1600 SR        000000000000 FUJITSU TEN (THAILAN17065NL0019019                                                                                                                              *          20170920WMF1709203.TXT
MDEDH9268523201709                D89828070300PT4D20170926000030SPEAKER ASM                   M IMCTM S9TS02 FTTL  07070IMCT  S9 PTB  00015                    0400 SR        000000000000 FUJITSU TEN (THAILAN17080NU0061061                                                                                                                              *          20170920WMF1709203.TXT
MDEDH9268524201709                D89828070300PT4D20170926000030SPEAKER ASM                   M IMCTM S9TS02 FTTL  07070IMCT  S9 PTB  00015                    1600 SR        000000000000 FUJITSU TEN (THAILAN17083MU0005005                                                                                                                              *          20170920WMF1709203.TXT
MDEDH9268525201709                D89831228900PT1D20170926000015RADIO;AM/FM,CD                M IMCTM S5NC06 FTTL  07070IMCT  S5 PTB  00003                    1300 SR        000000000000 FUJITSU TEN (THAILAN17032RL0005005                                                                                                                              *          20170920WMF1709203.TXT
MDEDH9268526201709                D89831229200PT1D20170926000015RADIO;AM/FM,CD                M IMCTM S5NC06 FTTL  07070IMCT  S5 PTB  00003                    0230 SR        000000000000 FUJITSU TEN (THAILAN17033QL0017017                                                                                                                              *          20170920WMF1709203.TXT
MDEDH9268527201709                D89848582500PT1D20170926000015RADIO;AM/FM CD D              M IMCTM S5NC06 FTTL  07070IMCT  S5 PTB  00003                    1600 SR        000000000000 FUJITSU TEN (THAILAN17065NL0019019                                                                                                                              *          20170920WMF1709203.TXT
MDEUH9265203201709                D89828070100PT4U20170925000030SPEAKER ASM                   M IMCTM S0FL05 FTTL  07070IMCT  S0 PTB  00004                    2230 SR        000000000000 FUJITSU TEN (THAILAN18078SU0080080                                                                                                                              *          20170920WMF1709203.TXT
MDEUH9265204201709                D89828070100PT4U20170926000030SPEAKER ASM                   M IMCTM S0FL05 FTTL  07070IMCT  S0 PTB  00004                    0400 SR        000000000000 FUJITSU TEN (THAILAN18078SU0081081                                                                                                                              *          20170920WMF1709203.TXT
MDEUH9265205201709                D89828070100PT4U20170926000030SPEAKER ASM                   M IMCTM S0FL05 FTTL  07070IMCT  S0 PTB  00004                    0830 SR        000000000000 FUJITSU TEN (THAILAN18078SU0082082                                                                                                                              *          20170920WMF1709203.TXT
MDEUH9265206201709                D89828070100PT4U20170926000030SPEAKER ASM                   M IMCTM S0FL05 FTTL  07070IMCT  S0 PTB  00004                    1300 SR        000000000000 FUJITSU TEN (THAILAN18078SU0083083                                                                                                                              *          20170920WMF1709203.TXT
MDEUH9265207201709                D89828070100PT4U20170926000030SPEAKER ASM                   M IMCTM S0FL05 FTTL  07070IMCT  S0 PTB  00004                    1600 SR        000000000000 FUJITSU TEN (THAILAN18078SU0084084                                                                                                                              *          20170920WMF1709203.TXT
MDEUH9265208201709                D89828070200PV4U20170925000030SPEAKER ASM                   M IMCTM S0FR05 FTTL  07070IMCT  S0 PTB  00005                    2230 SR        000000000000 FUJITSU TEN (THAILAN18078SU0080080                                                                                                                              *          20170920WMF1709203.TXT
MDEUH9265209201709                D89828070200PV4U20170926000030SPEAKER ASM                   M IMCTM S0FR05 FTTL  07070IMCT  S0 PTB  00005                    0400 SR        000000000000 FUJITSU TEN (THAILAN18078SU0081081                                                                                                                              *          20170920WMF1709203.TXT
MDEUH9265210201709                D89828070200PV4U20170926000030SPEAKER ASM                   M IMCTM S0FR05 FTTL  07070IMCT  S0 PTB  00005                    0830 SR        000000000000 FUJITSU TEN (THAILAN18078SU0082082                                                                                                                              *          20170920WMF1709203.TXT
MDEUH9265211201709                D89828070200PV4U20170926000030SPEAKER ASM                   M IMCTM S0FR05 FTTL  07070IMCT  S0 PTB  00005                    1300 SR        000000000000 FUJITSU TEN (THAILAN18078SU0083083                                                                                                                              *          20170920WMF1709203.TXT
MDEUH9265212201709                D89828070200PV4U20170926000030SPEAKER ASM                   M IMCTM S0FR05 FTTL  07070IMCT  S0 PTB  00005                    1600 SR        000000000000 FUJITSU TEN (THAILAN18078SU0084084                                                                                                                              *          20170920WMF1709203.TXT
MDEUH9265213201709                D89828070300PT4U20170925000030SPEAKER ASM                   M IMCTM S9TS02 FTTL  07070IMCT  S9 PTB  00015                    2230 SR        000000000000 FUJITSU TEN (THAILAN18078SU0080080                                                                                                                              *          20170920WMF1709203.TXT
MDEUH9265214201709                D89828070300PT4U20170926000030SPEAKER ASM                   M IMCTM S9TS02 FTTL  07070IMCT  S9 PTB  00015                    0400 SR        000000000000 FUJITSU TEN (THAILAN18078SU0081081                                                                                                                              *          20170920WMF1709203.TXT
MDEUH9265215201709                D89828070300PT4U20170926000030SPEAKER ASM                   M IMCTM S9TS02 FTTL  07070IMCT  S9 PTB  00015                    0830 SR        000000000000 FUJITSU TEN (THAILAN18078SU0082082                                                                                                                              *          20170920WMF1709203.TXT
MDEUH9265216201709                D89828070300PT4U20170926000030SPEAKER ASM                   M IMCTM S9TS02 FTTL  07070IMCT  S9 PTB  00015                    1300 SR        000000000000 FUJITSU TEN (THAILAN18078SU0083083                                                                                                                              *          20170920WMF1709203.TXT
MDEUH9265217201709                D89828070300PT4U20170926000030SPEAKER ASM                   M IMCTM S9TS02 FTTL  07070IMCT  S9 PTB  00015                    1600 SR        000000000000 FUJITSU TEN (THAILAN18078SU0084084                                                                                                                              *          20170920WMF1709203.TXT
