REC2017091920170919ISUZU                              62     
MDDDH9255459201709                D89821984430PT1D20170923000030RADIO;AM/FM,CD                M IMCTM S5NC06 FTTL  07070IMCT  S5 PTB  00005                    0230 SR        000000000000 FUJITSU TEN (THAILAN170KNEL0170170                                                                                                                              *          20170919WMF1709195.TXT
MDDDH9255460201709                D89825217910PT1D20170925000030RADIO;AM/FM,CD,D              M IMCTM S5NC06 FTTL  07070IMCT  S5 PTB  00003                    1300 SR        000000000000 FUJITSU TEN (THAILAN170KPJL0064064                                                                                                                              *          20170919WMF1709195.TXT
MDDDH9255461201709                D89828070100PV1D20170923000060SPEAKER ASM                   M IMCTM S5MB11 FTTL  07070IMCT  S5 PTB  00004                    0230 SR        000000000000 FUJITSU TEN (THAILAN170KNEL0170170                                                                                                                              *          20170919WMF1709195.TXT
MDDDH9255462201709                D89828070100PV1D20170923000060SPEAKER ASM                   M IMCTM S5MB11 FTTL  07070IMCT  S5 PTB  00004                    0400 SR        000000000000 FUJITSU TEN (THAILAN170KPPL0016016                                                                                                                              *          20170919WMF1709195.TXT
MDDDH9255463201709                D89828070100PV1D20170925000060SPEAKER ASM                   M IMCTM S5MB11 FTTL  07070IMCT  S5 PTB  00004                    0830 SR        000000000000 FUJITSU TEN (THAILAN170KPGL0022022                                                                                                                              *          20170919WMF1709195.TXT
MDDDH9255464201709                D89828070100PV1D20170925000060SPEAKER ASM                   M IMCTM S5MB11 FTTL  07070IMCT  S5 PTB  00004                    1030 SR        000000000000 FUJITSU TEN (THAILAN170KPFL0229229                                                                                                                              *          20170919WMF1709195.TXT
MDDDH9255465201709                D89828070100PV1D20170925000120SPEAKER ASM                   M IMCTM S5MB11 FTTL  07070IMCT  S5 PTB  00004                    1300 SR        000000000000 FUJITSU TEN (THAILAN170KPJL0064064170KRFL0132132                                                                                                                *          20170919WMF1709195.TXT
MDDDH9255466201709                D89828070100PV1D20170925000060SPEAKER ASM                   M IMCTM S5MB11 FTTL  07070IMCT  S5 PTB  00004                    2100 SR        000000000000 FUJITSU TEN (THAILAN170KPCL0097097                                                                                                                              *          20170919WMF1709195.TXT
MDDDH9255467201709                D89828070100PV4D20170923000060SPEAKER ASM                   M IMCTM S0FL05 FTTL  07070IMCT  S0 PTB  00004                    0230 SR        000000000000 FUJITSU TEN (THAILAN180LRLU0001001                                                                                                                              *          20170919WMF1709195.TXT
MDDDH9255468201709                D89828070200PV1D20170925000060SPEAKER ASM                   M IMCTM S5MA14 FTTL  07070IMCT  S5 PTB  00005                    1300 SR        000000000000 FUJITSU TEN (THAILAN170KRFL0132132                                                                                                                              *          20170919WMF1709195.TXT
MDDDH9255469201709                D89828070200PV4D20170923000060SPEAKER ASM                   M IMCTM S0FR05 FTTL  07070IMCT  S0 PTB  00005                    0230 SR        000000000000 FUJITSU TEN (THAILAN180LRLU0001001                                                                                                                              *          20170919WMF1709195.TXT
MDDDH9255470201709                D89828070300PT1D20170923000060SPEAKER ASM                   M IMCTM S5NB082FTTL  07070IMCT  S5 PTB  00015                    0400 SR        000000000000 FUJITSU TEN (THAILAN170KPPL0016016                                                                                                                              *          20170919WMF1709195.TXT
MDDDH9255471201709                D89828070300PT1D20170925000060SPEAKER ASM                   M IMCTM S5NB082FTTL  07070IMCT  S5 PTB  00015                    0830 SR        000000000000 FUJITSU TEN (THAILAN170KPGL0022022                                                                                                                              *          20170919WMF1709195.TXT
MDDDH9255472201709                D89828070300PT1D20170925000060SPEAKER ASM                   M IMCTM S5NB082FTTL  07070IMCT  S5 PTB  00015                    1030 SR        000000000000 FUJITSU TEN (THAILAN170KPFL0229229                                                                                                                              *          20170919WMF1709195.TXT
MDDDH9255473201709                D89828070300PT1D20170925000120SPEAKER ASM                   M IMCTM S5NB082FTTL  07070IMCT  S5 PTB  00015                    1300 SR        000000000000 FUJITSU TEN (THAILAN170KPJL0064064170KRFL0132132                                                                                                                *          20170919WMF1709195.TXT
MDDDH9255474201709                D89828070300PT1D20170925000060SPEAKER ASM                   M IMCTM S5NB082FTTL  07070IMCT  S5 PTB  00015                    2100 SR        000000000000 FUJITSU TEN (THAILAN170KPCL0097097                                                                                                                              *          20170919WMF1709195.TXT
MDDDH9255475201709                D89828070300PT4D20170923000060SPEAKER ASM                   M IMCTM S9TS02 FTTL  07070IMCT  S9 PTB  00015                    0230 SR        000000000000 FUJITSU TEN (THAILAN180LRLU0001001                                                                                                                              *          20170919WMF1709195.TXT
MDDDH9255476201709                D89829645910PT1D20170925000030RADIO;ASM DVD                 M IMCTM S5NC06 FTTL  07070IMCT  S5 PTB  00003                    1300 SR        000000000000 FUJITSU TEN (THAILAN170KRFL0132132                                                                                                                              *          20170919WMF1709195.TXT
MDDDH9255477201709                D89831228300PT1D20170923000030RADIO;AM/FM,CD                M IMCTM S5NC06 FTTL  07070IMCT  S5 CPB  00003                    0400 SR        000000000000 FUJITSU TEN (THAILAN170KPPL0016016                                                                                                                              *          20170919WMF1709195.TXT
MDDDH9255478201709                D89831228300PT1D20170925000030RADIO;AM/FM,CD                M IMCTM S5NC06 FTTL  07070IMCT  S5 CPB  00003                    0830 SR        000000000000 FUJITSU TEN (THAILAN170KPGL0022022                                                                                                                              *          20170919WMF1709195.TXT
MDDDH9255479201709                D89831228300PT1D20170925000030RADIO;AM/FM,CD                M IMCTM S5NC06 FTTL  07070IMCT  S5 CPB  00003                    1030 SR        000000000000 FUJITSU TEN (THAILAN170KPFL0229229                                                                                                                              *          20170919WMF1709195.TXT
MDDDH9255480201709                D89831228300PT1D20170925000030RADIO;AM/FM,CD                M IMCTM S5NC06 FTTL  07070IMCT  S5 CPB  00003                    2100 SR        000000000000 FUJITSU TEN (THAILAN170KPCL0097097                                                                                                                              *          20170919WMF1709195.TXT
MDDUH9225656201709                D89828070100PT4U20170922000030SPEAKER ASM                   M IMCTM S0FL05 FTTL  07070IMCT  S0 PTB  00004                    2230 SR        000000000000 FUJITSU TEN (THAILAN180LUEU0172172                                                                                                                              *          20170919WMF1709195.TXT
MDDUH9225657201709                D89828070100PT4U20170923000030SPEAKER ASM                   M IMCTM S0FL05 FTTL  07070IMCT  S0 PTB  00004                    0400 SR        000000000000 FUJITSU TEN (THAILAN180LUFU0050050                                                                                                                              *          20170919WMF1709195.TXT
MDDUH9225658201709                D89828070100PT4U20170925000030SPEAKER ASM                   M IMCTM S0FL05 FTTL  07070IMCT  S0 PTB  00004                    1600 SR        000000000000 FUJITSU TEN (THAILAN180LUDU0258258                                                                                                                              *          20170919WMF1709195.TXT
MDDUH9225659201709                D89828070200PV4U20170922000030SPEAKER ASM                   M IMCTM S0FR05 FTTL  07070IMCT  S0 PTB  00005                    2230 SR        000000000000 FUJITSU TEN (THAILAN180LUEU0172172                                                                                                                              *          20170919WMF1709195.TXT
MDDUH9225660201709                D89828070200PV4U20170923000030SPEAKER ASM                   M IMCTM S0FR05 FTTL  07070IMCT  S0 PTB  00005                    0400 SR        000000000000 FUJITSU TEN (THAILAN180LUFU0050050                                                                                                                              *          20170919WMF1709195.TXT
MDDUH9225661201709                D89828070200PV4U20170925000030SPEAKER ASM                   M IMCTM S0FR05 FTTL  07070IMCT  S0 PTB  00005                    1600 SR        000000000000 FUJITSU TEN (THAILAN180LUDU0258258                                                                                                                              *          20170919WMF1709195.TXT
MDDUH9225662201709                D89828070300PT4U20170922000030SPEAKER ASM                   M IMCTM S9TS02 FTTL  07070IMCT  S9 PTB  00015                    2230 SR        000000000000 FUJITSU TEN (THAILAN180LUEU0172172                                                                                                                              *          20170919WMF1709195.TXT
MDDUH9225663201709                D89828070300PT4U20170923000030SPEAKER ASM                   M IMCTM S9TS02 FTTL  07070IMCT  S9 PTB  00015                    0400 SR        000000000000 FUJITSU TEN (THAILAN180LUFU0050050                                                                                                                              *          20170919WMF1709195.TXT
MDDUH9225664201709                D89828070300PT4U20170925000030SPEAKER ASM                   M IMCTM S9TS02 FTTL  07070IMCT  S9 PTB  00015                    1600 SR        000000000000 FUJITSU TEN (THAILAN180LUDU0258258                                                                                                                              *          20170919WMF1709195.TXT
MDEDH9263872201709                D89828070100PV1D20170922000060SPEAKER ASM                   M IMCTM S5MB11 FTTL  07070IMCT  S5 PTB  00004                    2230 SR        000000000000 FUJITSU TEN (THAILAN17055NL0050051                                                                                                                              *          20170919WMF1709195.TXT
MDEDH9263873201709                D89828070100PV1D20170923000060SPEAKER ASM                   M IMCTM S5MB11 FTTL  07070IMCT  S5 PTB  00004                    0230 SR        000000000000 FUJITSU TEN (THAILAN17083ML0019020                                                                                                                              *          20170919WMF1709195.TXT
MDEDH9263874201709                D89828070100PV1D20170925000030SPEAKER ASM                   M IMCTM S5MB11 FTTL  07070IMCT  S5 PTB  00004                    1030 SR        000000000000 FUJITSU TEN (THAILAN17080NL0094094                                                                                                                              *          20170919WMF1709195.TXT
MDEDH9263875201709                D89828070100PV1D20170925000030SPEAKER ASM                   M IMCTM S5MB11 FTTL  07070IMCT  S5 PTB  00004                    1300 SR        000000000000 FUJITSU TEN (THAILAN17080NL0095095                                                                                                                              *          20170919WMF1709195.TXT
MDEDH9263876201709                D89828070100PV1D20170925000030SPEAKER ASM                   M IMCTM S5MB11 FTTL  07070IMCT  S5 PTB  00004                    1600 SR        000000000000 FUJITSU TEN (THAILAN17010ML0037037                                                                                                                              *          20170919WMF1709195.TXT
MDEDH9263877201709                D89828070100PV1D20170925000030SPEAKER ASM                   M IMCTM S5MB11 FTTL  07070IMCT  S5 PTB  00004                    2100 SR        000000000000 FUJITSU TEN (THAILAN17032QL0003003                                                                                                                              *          20170919WMF1709195.TXT
MDEDH9263878201709                D89828070200PV1D20170925000030SPEAKER ASM                   M IMCTM S5MA14 FTTL  07070IMCT  S5 PTB  00005                    1030 SR        000000000000 FUJITSU TEN (THAILAN17080NL0094094                                                                                                                              *          20170919WMF1709195.TXT
MDEDH9263879201709                D89828070200PV1D20170925000030SPEAKER ASM                   M IMCTM S5MA14 FTTL  07070IMCT  S5 PTB  00005                    1300 SR        000000000000 FUJITSU TEN (THAILAN17080NL0095095                                                                                                                              *          20170919WMF1709195.TXT
MDEDH9263880201709                D89828070200PV1D20170925000030SPEAKER ASM                   M IMCTM S5MA14 FTTL  07070IMCT  S5 PTB  00005                    2100 SR        000000000000 FUJITSU TEN (THAILAN17032QL0003003                                                                                                                              *          20170919WMF1709195.TXT
MDEDH9263881201709                D89828070300PT1D20170922000060SPEAKER ASM                   M IMCTM S5NB082FTTL  07070IMCT  S5 PTB  00015                    2230 SR        000000000000 FUJITSU TEN (THAILAN17055NL0050051                                                                                                                              *          20170919WMF1709195.TXT
MDEDH9263882201709                D89828070300PT1D20170923000060SPEAKER ASM                   M IMCTM S5NB082FTTL  07070IMCT  S5 PTB  00015                    0230 SR        000000000000 FUJITSU TEN (THAILAN17083ML0019020                                                                                                                              *          20170919WMF1709195.TXT
MDEDH9263883201709                D89828070300PT1D20170925000030SPEAKER ASM                   M IMCTM S5NB082FTTL  07070IMCT  S5 PTB  00015                    1030 SR        000000000000 FUJITSU TEN (THAILAN17080NL0094094                                                                                                                              *          20170919WMF1709195.TXT
MDEDH9263884201709                D89828070300PT1D20170925000030SPEAKER ASM                   M IMCTM S5NB082FTTL  07070IMCT  S5 PTB  00015                    1300 SR        000000000000 FUJITSU TEN (THAILAN17080NL0095095                                                                                                                              *          20170919WMF1709195.TXT
MDEDH9263885201709                D89828070300PT1D20170925000030SPEAKER ASM                   M IMCTM S5NB082FTTL  07070IMCT  S5 PTB  00015                    2100 SR        000000000000 FUJITSU TEN (THAILAN17032QL0003003                                                                                                                              *          20170919WMF1709195.TXT
MDEDH9263886201709                D89831229200PT1D20170925000015RADIO;AM/FM,CD                M IMCTM S5NC06 FTTL  07070IMCT  S5 PTB  00003                    2100 SR        000000000000 FUJITSU TEN (THAILAN17032QL0003003                                                                                                                              *          20170919WMF1709195.TXT
MDEDH9263887201709                D89848581800PT1D20170922000030RADIO;AM/FM CD D              M IMCTM S5NC06 FTTL  07070IMCT  S5 PTB  00003                    2230 SR        000000000000 FUJITSU TEN (THAILAN17055NL0050051                                                                                                                              *          20170919WMF1709195.TXT
MDEUH9261415201709                D89828070100PT4U20170922000030SPEAKER ASM                   M IMCTM S0FL05 FTTL  07070IMCT  S0 PTB  00004                    2230 SR        000000000000 FUJITSU TEN (THAILAN18078SU0075075                                                                                                                              *          20170919WMF1709195.TXT
MDEUH9261416201709                D89828070100PT4U20170925000030SPEAKER ASM                   M IMCTM S0FL05 FTTL  07070IMCT  S0 PTB  00004                    1030 SR        000000000000 FUJITSU TEN (THAILAN18078SU0076076                                                                                                                              *          20170919WMF1709195.TXT
MDEUH9261417201709                D89828070100PT4U20170925000060SPEAKER ASM                   M IMCTM S0FL05 FTTL  07070IMCT  S0 PTB  00004                    1300 SR        000000000000 FUJITSU TEN (THAILAN18078SU007707718080SU0001001                                                                                                                *          20170919WMF1709195.TXT
MDEUH9261418201709                D89828070100PT4U20170925000030SPEAKER ASM                   M IMCTM S0FL05 FTTL  07070IMCT  S0 PTB  00004                    2100 SR        000000000000 FUJITSU TEN (THAILAN18078SU0078078                                                                                                                              *          20170919WMF1709195.TXT
MDEUH9261419201709                D89828070100PT4U20170925000030SPEAKER ASM                   M IMCTM S0FL05 FTTL  07070IMCT  S0 PTB  00004                    2230 SR        000000000000 FUJITSU TEN (THAILAN18078SU0079079                                                                                                                              *          20170919WMF1709195.TXT
MDEUH9261420201709                D89828070200PV4U20170922000030SPEAKER ASM                   M IMCTM S0FR05 FTTL  07070IMCT  S0 PTB  00005                    2230 SR        000000000000 FUJITSU TEN (THAILAN18078SU0075075                                                                                                                              *          20170919WMF1709195.TXT
MDEUH9261421201709                D89828070200PV4U20170925000030SPEAKER ASM                   M IMCTM S0FR05 FTTL  07070IMCT  S0 PTB  00005                    1030 SR        000000000000 FUJITSU TEN (THAILAN18078SU0076076                                                                                                                              *          20170919WMF1709195.TXT
MDEUH9261422201709                D89828070200PV4U20170925000060SPEAKER ASM                   M IMCTM S0FR05 FTTL  07070IMCT  S0 PTB  00005                    1300 SR        000000000000 FUJITSU TEN (THAILAN18078SU007707718080SU0001001                                                                                                                *          20170919WMF1709195.TXT
MDEUH9261423201709                D89828070200PV4U20170925000030SPEAKER ASM                   M IMCTM S0FR05 FTTL  07070IMCT  S0 PTB  00005                    2100 SR        000000000000 FUJITSU TEN (THAILAN18078SU0078078                                                                                                                              *          20170919WMF1709195.TXT
MDEUH9261424201709                D89828070200PV4U20170925000030SPEAKER ASM                   M IMCTM S0FR05 FTTL  07070IMCT  S0 PTB  00005                    2230 SR        000000000000 FUJITSU TEN (THAILAN18078SU0079079                                                                                                                              *          20170919WMF1709195.TXT
MDEUH9261425201709                D89828070300PT4U20170922000030SPEAKER ASM                   M IMCTM S9TS02 FTTL  07070IMCT  S9 PTB  00015                    2230 SR        000000000000 FUJITSU TEN (THAILAN18078SU0075075                                                                                                                              *          20170919WMF1709195.TXT
MDEUH9261426201709                D89828070300PT4U20170925000030SPEAKER ASM                   M IMCTM S9TS02 FTTL  07070IMCT  S9 PTB  00015                    1030 SR        000000000000 FUJITSU TEN (THAILAN18078SU0076076                                                                                                                              *          20170919WMF1709195.TXT
MDEUH9261427201709                D89828070300PT4U20170925000060SPEAKER ASM                   M IMCTM S9TS02 FTTL  07070IMCT  S9 PTB  00015                    1300 SR        000000000000 FUJITSU TEN (THAILAN18078SU007707718080SU0001001                                                                                                                *          20170919WMF1709195.TXT
MDEUH9261428201709                D89828070300PT4U20170925000030SPEAKER ASM                   M IMCTM S9TS02 FTTL  07070IMCT  S9 PTB  00015                    2100 SR        000000000000 FUJITSU TEN (THAILAN18078SU0078078                                                                                                                              *          20170919WMF1709195.TXT
MDEUH9261429201709                D89828070300PT4U20170925000030SPEAKER ASM                   M IMCTM S9TS02 FTTL  07070IMCT  S9 PTB  00015                    2230 SR        000000000000 FUJITSU TEN (THAILAN18078SU0079079                                                                                                                              *          20170919WMF1709195.TXT
