REC2017102820171028ISUZU                              9      
MDEFHOT25687201711                D89828070100PV4F20171102000030SPEAKER ASM                   M IMCTM S7FL05 FTTL  07070IMCT  S7 PTB  00004                    1600 SR        000000000000 FUJITSU TEN (THAILAN17045MR0080   17048MR0050   S171100601    S171100615    000000                                                                              *R         20171028RDF1710285.TXT
MDEFHOT25688201711                D89828070200PV4F20171102000005SPEAKER ASM                   M IMCTM S7TS02 FTTL  07070IMCT  S7 PTB  00005                    0830 SR        000000000000 FUJITSU TEN (THAILAN17002QR0015   17002QR0017   H171100403    H171100405    000000                                                                              *R         20171028RDF1710285.TXT
MDEFHOT25689201711                D89828070300PT4F20171102000010SPEAKER ASM                   M IMCTM S7TS02 FTTL  07070IMCT  S7 PTB  00015                    0400 SR        000000000000 FUJITSU TEN (THAILAN17002QR0013   17002QR0017   H171100401    H171100405    000000                                                                              *R         20171028RDF1710285.TXT
MDEFHOT25690201711                D89831229200PT4F20171102000002RADIO;AM/FM,CD                M IMCTM S7TS03 FTTL  07070IMCT  S7 PTB  00003                    0830 SR        000000000000 FUJITSU TEN (THAILAN17002QR0016   17002QR0017   H171100404    H171100405    000000                                                                              *R         20171028RDF1710285.TXT
MDEFHO264362201711                D89828070100PV4F20171102000004SPEAKER ASM                   M IMCTM S7FL05 FTTL  07070IMCT  S7 PTB  00004                    0400 SR        000000000000 FUJITSU TEN (THAILAN17002QR0013   17002QR0014   H171100401    H171100402    000000                                                                              *R         20171028RDF1710285.TXT
MDEFHO264363201711                D89828070100PV4F20171102000028SPEAKER ASM                   M IMCTM S7FL05 FTTL  07070IMCT  S7 PTB  00004                    0830 SR        000000000000 FUJITSU TEN (THAILAN17002QR0015   17054PR0026   H171100403    R171100501    000000                                                                              *R         20171028RDF1710285.TXT
MDEFHO264364201711                D89828070100PV4F20171102000028SPEAKER ASM                   M IMCTM S7FL05 FTTL  07070IMCT  S7 PTB  00004                    1300 SR        000000000000 FUJITSU TEN (THAILAN17054PR0027   17062PR0003   R171100502    R171100515    000000                                                                              *R         20171028RDF1710285.TXT
MDEFHO264365201711                D89828070200PV4F20171102000005SPEAKER ASM                   M IMCTM S7TS02 FTTL  07070IMCT  S7 PTB  00005                    0400 SR        000000000000 FUJITSU TEN (THAILAN17002QR0013   17002QR0015   H171100401    H171100403    000000                                                                              *R         20171028RDF1710285.TXT
MDEFHO264366201711                D89831229200PT4F20171102000003RADIO;AM/FM,CD                M IMCTM S7TS03 FTTL  07070IMCT  S7 PTB  00003                    0400 SR        000000000000 FUJITSU TEN (THAILAN17002QR0013   17002QR0015   H171100401    H171100403    000000                                                                              *R         20171028RDF1710285.TXT
