REC2017103020171030ISUZU                              53     
MDDDHO304199201711                D89821984430PT1D20171102000060RADIO;AM/FM,CD                M IMCTM S5NC06 FTTL  07070IMCT  S5 PTB  00005                    2230 SR        000000000000 FUJITSU TEN (THAILAN180LNHL0007007180LRAL0004004                                                                                                                *          20171030WMF1710304.TXT
MDDDHO304200201711                D89821984430PT1D20171103000030RADIO;AM/FM,CD                M IMCTM S5NC06 FTTL  07070IMCT  S5 PTB  00005                    0230 SR        000000000000 FUJITSU TEN (THAILAN180LNCL0014014                                                                                                                              *          20171030WMF1710304.TXT
MDDDHO304201201711                D89821984430PT1D20171103000030RADIO;AM/FM,CD                M IMCTM S5NC06 FTTL  07070IMCT  S5 PTB  00005                    0400 SR        000000000000 FUJITSU TEN (THAILAN180LNEL0018018                                                                                                                              *          20171030WMF1710304.TXT
MDDDHO304202201711                D89821984430PT1D20171103000030RADIO;AM/FM,CD                M IMCTM S5NC06 FTTL  07070IMCT  S5 PTB  00005                    0830 SR        000000000000 FUJITSU TEN (THAILAN180LNGL0017017                                                                                                                              *          20171030WMF1710304.TXT
MDDDHO304203201711                D89821984430PT1D20171103000030RADIO;AM/FM,CD                M IMCTM S5NC06 FTTL  07070IMCT  S5 PTB  00005                    1300 SR        000000000000 FUJITSU TEN (THAILAN180LPAL0003003                                                                                                                              *          20171030WMF1710304.TXT
MDDDHO304204201711                D89821984430PT1D20171103000030RADIO;AM/FM,CD                M IMCTM S5NC06 FTTL  07070IMCT  S5 PTB  00005                    2100 SR        000000000000 FUJITSU TEN (THAILAN180LRBL0001001                                                                                                                              *          20171030WMF1710304.TXT
MDDDHO304205201711                D89828070100PV1D20171102000120SPEAKER ASM                   M IMCTM S5MB11 FTTL  07070IMCT  S5 PTB  00004                    2230 SR        000000000000 FUJITSU TEN (THAILAN180LNHL0007007180LRAL0004004                                                                                                                *          20171030WMF1710304.TXT
MDDDHO304206201711                D89828070100PV1D20171103000060SPEAKER ASM                   M IMCTM S5MB11 FTTL  07070IMCT  S5 PTB  00004                    0230 SR        000000000000 FUJITSU TEN (THAILAN180LNCL0014014                                                                                                                              *          20171030WMF1710304.TXT
MDDDHO304207201711                D89828070100PV1D20171103000060SPEAKER ASM                   M IMCTM S5MB11 FTTL  07070IMCT  S5 PTB  00004                    0400 SR        000000000000 FUJITSU TEN (THAILAN180LNEL0018018                                                                                                                              *          20171030WMF1710304.TXT
MDDDHO304208201711                D89828070100PV1D20171103000060SPEAKER ASM                   M IMCTM S5MB11 FTTL  07070IMCT  S5 PTB  00004                    0830 SR        000000000000 FUJITSU TEN (THAILAN180LNGL0017017                                                                                                                              *          20171030WMF1710304.TXT
MDDDHO304209201711                D89828070100PV1D20171103000060SPEAKER ASM                   M IMCTM S5MB11 FTTL  07070IMCT  S5 PTB  00004                    1030 SR        000000000000 FUJITSU TEN (THAILAN180LPGL0056056                                                                                                                              *          20171030WMF1710304.TXT
MDDDHO304210201711                D89828070100PV1D20171103000060SPEAKER ASM                   M IMCTM S5MB11 FTTL  07070IMCT  S5 PTB  00004                    1300 SR        000000000000 FUJITSU TEN (THAILAN180LPAL0003003                                                                                                                              *          20171030WMF1710304.TXT
MDDDHO304211201711                D89828070100PV1D20171103000060SPEAKER ASM                   M IMCTM S5MB11 FTTL  07070IMCT  S5 PTB  00004                    1600 SR        000000000000 FUJITSU TEN (THAILAN180LNAL0009009                                                                                                                              *          20171030WMF1710304.TXT
MDDDHO304212201711                D89828070100PV1D20171103000060SPEAKER ASM                   M IMCTM S5MB11 FTTL  07070IMCT  S5 PTB  00004                    2100 SR        000000000000 FUJITSU TEN (THAILAN180LRBL0001001                                                                                                                              *          20171030WMF1710304.TXT
MDDDHO304213201711                D89828070300PT1D20171103000060SPEAKER ASM                   M IMCTM S5NB082FTTL  07070IMCT  S5 PTB  00015                    1030 SR        000000000000 FUJITSU TEN (THAILAN180LPGL0056056                                                                                                                              *          20171030WMF1710304.TXT
MDDDHO304214201711                D89831228300PT1D20171103000030RADIO;AM/FM,CD                M IMCTM S5NC06 FTTL  07070IMCT  S5 CPB  00003                    1030 SR        000000000000 FUJITSU TEN (THAILAN180LPGL0056056                                                                                                                              *          20171030WMF1710304.TXT
MDDUHO244043201711                D89828070100PT4U20171102000030SPEAKER ASM                   M IMCTM S0FL05 FTTL  07070IMCT  S0 PTB  00004                    2230 SR        000000000000 FUJITSU TEN (THAILAN180LUKU0029029                                                                                                                              *          20171030WMF1710304.TXT
MDDUHO244044201711                D89828070100PT4U20171103000030SPEAKER ASM                   M IMCTM S0FL05 FTTL  07070IMCT  S0 PTB  00004                    0400 SR        000000000000 FUJITSU TEN (THAILAN180LUKU0030030                                                                                                                              *          20171030WMF1710304.TXT
MDDUHO244045201711                D89828070100PT4U20171103000030SPEAKER ASM                   M IMCTM S0FL05 FTTL  07070IMCT  S0 PTB  00004                    1600 SR        000000000000 FUJITSU TEN (THAILAN180LUKU0031031                                                                                                                              *          20171030WMF1710304.TXT
MDDUHO244046201711                D89828070100PT4U20171103000030SPEAKER ASM                   M IMCTM S0FL05 FTTL  07070IMCT  S0 PTB  00004                    2230 SR        000000000000 FUJITSU TEN (THAILAN180LUJU0013013                                                                                                                              *          20171030WMF1710304.TXT
MDDUHO244047201711                D89828070200PV4U20171102000030SPEAKER ASM                   M IMCTM S0FR05 FTTL  07070IMCT  S0 PTB  00005                    2230 SR        000000000000 FUJITSU TEN (THAILAN180LUKU0029029                                                                                                                              *          20171030WMF1710304.TXT
MDDUHO244048201711                D89828070200PV4U20171103000030SPEAKER ASM                   M IMCTM S0FR05 FTTL  07070IMCT  S0 PTB  00005                    0400 SR        000000000000 FUJITSU TEN (THAILAN180LUKU0030030                                                                                                                              *          20171030WMF1710304.TXT
MDDUHO244049201711                D89828070200PV4U20171103000030SPEAKER ASM                   M IMCTM S0FR05 FTTL  07070IMCT  S0 PTB  00005                    1600 SR        000000000000 FUJITSU TEN (THAILAN180LUKU0031031                                                                                                                              *          20171030WMF1710304.TXT
MDDUHO244050201711                D89828070200PV4U20171103000030SPEAKER ASM                   M IMCTM S0FR05 FTTL  07070IMCT  S0 PTB  00005                    2230 SR        000000000000 FUJITSU TEN (THAILAN180LUJU0013013                                                                                                                              *          20171030WMF1710304.TXT
MDDUHO244051201711                D89828070300PT4U20171102000030SPEAKER ASM                   M IMCTM S9TS02 FTTL  07070IMCT  S9 PTB  00015                    2230 SR        000000000000 FUJITSU TEN (THAILAN180LUKU0029029                                                                                                                              *          20171030WMF1710304.TXT
MDDUHO244052201711                D89828070300PT4U20171103000030SPEAKER ASM                   M IMCTM S9TS02 FTTL  07070IMCT  S9 PTB  00015                    0400 SR        000000000000 FUJITSU TEN (THAILAN180LUKU0030030                                                                                                                              *          20171030WMF1710304.TXT
MDDUHO244053201711                D89828070300PT4U20171103000030SPEAKER ASM                   M IMCTM S9TS02 FTTL  07070IMCT  S9 PTB  00015                    1600 SR        000000000000 FUJITSU TEN (THAILAN180LUKU0031031                                                                                                                              *          20171030WMF1710304.TXT
MDDUHO244054201711                D89828070300PT4U20171103000030SPEAKER ASM                   M IMCTM S9TS02 FTTL  07070IMCT  S9 PTB  00015                    2230 SR        000000000000 FUJITSU TEN (THAILAN180LUJU0013013                                                                                                                              *          20171030WMF1710304.TXT
MDDUHO244055201711                D89848584200PT4U20171103000015RADIO;AM/FM CD D              M IMCTM S9CO001FTTL  07070IMCT  S9 PTB  00003                    2230 SR        000000000000 FUJITSU TEN (THAILAN180LUJU0013013                                                                                                                              *          20171030WMF1710304.TXT
MDEDHO277869201711                D89828070100PV1D20171103000030SPEAKER ASM                   M IMCTM S5MB11 FTTL  07070IMCT  S5 PTB  00004                    0400 SR        000000000000 FUJITSU TEN (THAILAN17075NL0022022                                                                                                                              *          20171030WMF1710304.TXT
MDEDHO277870201711                D89828070100PV1D20171103000030SPEAKER ASM                   M IMCTM S5MB11 FTTL  07070IMCT  S5 PTB  00004                    0830 SR        000000000000 FUJITSU TEN (THAILAN17077PL0016016                                                                                                                              *          20171030WMF1710304.TXT
MDEDHO277871201711                D89828070100PV1D20171103000060SPEAKER ASM                   M IMCTM S5MB11 FTTL  07070IMCT  S5 PTB  00004                    1300 SR        000000000000 FUJITSU TEN (THAILAN17080NL0118119                                                                                                                              *          20171030WMF1710304.TXT
MDEDHO277872201711                D89828070100PV4D20171103000030SPEAKER ASM                   M IMCTM S0FL05 FTTL  07070IMCT  S0 PTB  00004                    0230 SR        000000000000 FUJITSU TEN (THAILAN17077PU0002002                                                                                                                              *          20171030WMF1710304.TXT
MDEDHO277873201711                D89828070200PV1D20171103000030SPEAKER ASM                   M IMCTM S5MA14 FTTL  07070IMCT  S5 PTB  00005                    0400 SR        000000000000 FUJITSU TEN (THAILAN17075NL0022022                                                                                                                              *          20171030WMF1710304.TXT
MDEDHO277874201711                D89828070200PV1D20171103000060SPEAKER ASM                   M IMCTM S5MA14 FTTL  07070IMCT  S5 PTB  00005                    1300 SR        000000000000 FUJITSU TEN (THAILAN17080NL0118119                                                                                                                              *          20171030WMF1710304.TXT
MDEDHO277875201711                D89828070300PT1D20171103000030SPEAKER ASM                   M IMCTM S5NB082FTTL  07070IMCT  S5 PTB  00015                    0400 SR        000000000000 FUJITSU TEN (THAILAN17075NL0022022                                                                                                                              *          20171030WMF1710304.TXT
MDEDHO277876201711                D89828070300PT1D20171103000060SPEAKER ASM                   M IMCTM S5NB082FTTL  07070IMCT  S5 PTB  00015                    1300 SR        000000000000 FUJITSU TEN (THAILAN17080NL0118119                                                                                                                              *          20171030WMF1710304.TXT
MDEDHO277877201711                D89848581800PT1D20171103000015RADIO;AM/FM CD D              M IMCTM S5NC06 FTTL  07070IMCT  S5 PTB  00003                    0400 SR        000000000000 FUJITSU TEN (THAILAN17075NL0022022                                                                                                                              *          20171030WMF1710304.TXT
MDEUHO300825201711                D89828070100PT4U20171102000030SPEAKER ASM                   M IMCTM S0FL05 FTTL  07070IMCT  S0 PTB  00004                    2230 SR        000000000000 FUJITSU TEN (THAILAN18078SU0192192                                                                                                                              *          20171030WMF1710304.TXT
MDEUHO300826201711                D89828070100PT4U20171103000030SPEAKER ASM                   M IMCTM S0FL05 FTTL  07070IMCT  S0 PTB  00004                    0400 SR        000000000000 FUJITSU TEN (THAILAN18023TU0207207                                                                                                                              *          20171030WMF1710304.TXT
MDEUHO300827201711                D89828070100PT4U20171103000030SPEAKER ASM                   M IMCTM S0FL05 FTTL  07070IMCT  S0 PTB  00004                    1030 SR        000000000000 FUJITSU TEN (THAILAN18023TU0208208                                                                                                                              *          20171030WMF1710304.TXT
MDEUHO300828201711                D89828070100PT4U20171103000060SPEAKER ASM                   M IMCTM S0FL05 FTTL  07070IMCT  S0 PTB  00004                    1300 SR        000000000000 FUJITSU TEN (THAILAN18078SU0193194                                                                                                                              *          20171030WMF1710304.TXT
MDEUHO300829201711                D89828070100PT4U20171103000030SPEAKER ASM                   M IMCTM S0FL05 FTTL  07070IMCT  S0 PTB  00004                    2100 SR        000000000000 FUJITSU TEN (THAILAN18022TU0090090                                                                                                                              *          20171030WMF1710304.TXT
MDEUHO300830201711                D89828070200PV4U20171102000030SPEAKER ASM                   M IMCTM S0FR05 FTTL  07070IMCT  S0 PTB  00005                    2230 SR        000000000000 FUJITSU TEN (THAILAN18078SU0192192                                                                                                                              *          20171030WMF1710304.TXT
MDEUHO300831201711                D89828070200PV4U20171103000030SPEAKER ASM                   M IMCTM S0FR05 FTTL  07070IMCT  S0 PTB  00005                    0400 SR        000000000000 FUJITSU TEN (THAILAN18023TU0207207                                                                                                                              *          20171030WMF1710304.TXT
MDEUHO300832201711                D89828070200PV4U20171103000030SPEAKER ASM                   M IMCTM S0FR05 FTTL  07070IMCT  S0 PTB  00005                    1030 SR        000000000000 FUJITSU TEN (THAILAN18023TU0208208                                                                                                                              *          20171030WMF1710304.TXT
MDEUHO300833201711                D89828070200PV4U20171103000060SPEAKER ASM                   M IMCTM S0FR05 FTTL  07070IMCT  S0 PTB  00005                    1300 SR        000000000000 FUJITSU TEN (THAILAN18078SU0193194                                                                                                                              *          20171030WMF1710304.TXT
MDEUHO300834201711                D89828070200PV4U20171103000030SPEAKER ASM                   M IMCTM S0FR05 FTTL  07070IMCT  S0 PTB  00005                    2100 SR        000000000000 FUJITSU TEN (THAILAN18022TU0090090                                                                                                                              *          20171030WMF1710304.TXT
MDEUHO300835201711                D89828070300PT4U20171102000030SPEAKER ASM                   M IMCTM S9TS02 FTTL  07070IMCT  S9 PTB  00015                    2230 SR        000000000000 FUJITSU TEN (THAILAN18078SU0192192                                                                                                                              *          20171030WMF1710304.TXT
MDEUHO300836201711                D89828070300PT4U20171103000030SPEAKER ASM                   M IMCTM S9TS02 FTTL  07070IMCT  S9 PTB  00015                    0400 SR        000000000000 FUJITSU TEN (THAILAN18023TU0207207                                                                                                                              *          20171030WMF1710304.TXT
MDEUHO300837201711                D89828070300PT4U20171103000030SPEAKER ASM                   M IMCTM S9TS02 FTTL  07070IMCT  S9 PTB  00015                    1030 SR        000000000000 FUJITSU TEN (THAILAN18023TU0208208                                                                                                                              *          20171030WMF1710304.TXT
MDEUHO300838201711                D89828070300PT4U20171103000060SPEAKER ASM                   M IMCTM S9TS02 FTTL  07070IMCT  S9 PTB  00015                    1300 SR        000000000000 FUJITSU TEN (THAILAN18078SU0193194                                                                                                                              *          20171030WMF1710304.TXT
MDEUHO300839201711                D89828070300PT4U20171103000030SPEAKER ASM                   M IMCTM S9TS02 FTTL  07070IMCT  S9 PTB  00015                    2100 SR        000000000000 FUJITSU TEN (THAILAN18022TU0090090                                                                                                                              *          20171030WMF1710304.TXT
