REC2017102520171025ISUZU                              50     
MDDDHO288229201710                D89821984430PT1D20171030000030RADIO;AM/FM,CD                M IMCTM S5NC06 FTTL  07070IMCT  S5 PTB  00005                    2230 SR        000000000000 FUJITSU TEN (THAILAN180LNCL0012012                                                                                                                              *          20171025WMF1710255.TXT
MDDDHO288230201710                D89828070100PV1D20171030000120SPEAKER ASM                   M IMCTM S5MB11 FTTL  07070IMCT  S5 PTB  00004                    2230 SR        000000000000 FUJITSU TEN (THAILAN180LNCL0012012180LPGL0043043                                                                                                                *          20171025WMF1710255.TXT
MDDDHO288231201710                D89828070100PV1D20171031000060SPEAKER ASM                   M IMCTM S5MB11 FTTL  07070IMCT  S5 PTB  00004                    0230 SR        000000000000 FUJITSU TEN (THAILAN180LPQL0005005                                                                                                                              *          20171025WMF1710255.TXT
MDDDHO288232201710                D89828070100PV1D20171031000060SPEAKER ASM                   M IMCTM S5MB11 FTTL  07070IMCT  S5 PTB  00004                    0400 SR        000000000000 FUJITSU TEN (THAILAN180LPGL0044044                                                                                                                              *          20171025WMF1710255.TXT
MDDDHO288233201710                D89828070100PV1D20171031000120SPEAKER ASM                   M IMCTM S5MB11 FTTL  07070IMCT  S5 PTB  00004                    0830 SR        000000000000 FUJITSU TEN (THAILAN180LNBL0005005180LPGL0045045                                                                                                                *          20171025WMF1710255.TXT
MDDDHO288234201710                D89828070100PV1D20171031000060SPEAKER ASM                   M IMCTM S5MB11 FTTL  07070IMCT  S5 PTB  00004                    1030 SR        000000000000 FUJITSU TEN (THAILAN180LPDL0001001                                                                                                                              *          20171025WMF1710255.TXT
MDDDHO288235201710                D89828070100PV1D20171031000120SPEAKER ASM                   M IMCTM S5MB11 FTTL  07070IMCT  S5 PTB  00004                    1300 SR        000000000000 FUJITSU TEN (THAILAN180LPCL0018018180LPGL0046046                                                                                                                *          20171025WMF1710255.TXT
MDDDHO288236201710                D89828070100PV1D20171031000060SPEAKER ASM                   M IMCTM S5MB11 FTTL  07070IMCT  S5 PTB  00004                    1600 SR        000000000000 FUJITSU TEN (THAILAN180LPGL0047047                                                                                                                              *          20171025WMF1710255.TXT
MDDDHO288237201710                D89828070100PV1D20171031000060SPEAKER ASM                   M IMCTM S5MB11 FTTL  07070IMCT  S5 PTB  00004                    2100 SR        000000000000 FUJITSU TEN (THAILAN180LPGL0048048                                                                                                                              *          20171025WMF1710255.TXT
MDDDHO288238201710                D89828070300PT1D20171030000060SPEAKER ASM                   M IMCTM S5NB082FTTL  07070IMCT  S5 PTB  00015                    2230 SR        000000000000 FUJITSU TEN (THAILAN180LPGL0043043                                                                                                                              *          20171025WMF1710255.TXT
MDDDHO288239201710                D89828070300PT1D20171031000060SPEAKER ASM                   M IMCTM S5NB082FTTL  07070IMCT  S5 PTB  00015                    0230 SR        000000000000 FUJITSU TEN (THAILAN180LPQL0005005                                                                                                                              *          20171025WMF1710255.TXT
MDDDHO288240201710                D89828070300PT1D20171031000060SPEAKER ASM                   M IMCTM S5NB082FTTL  07070IMCT  S5 PTB  00015                    0400 SR        000000000000 FUJITSU TEN (THAILAN180LPGL0044044                                                                                                                              *          20171025WMF1710255.TXT
MDDDHO288241201710                D89828070300PT1D20171031000060SPEAKER ASM                   M IMCTM S5NB082FTTL  07070IMCT  S5 PTB  00015                    0830 SR        000000000000 FUJITSU TEN (THAILAN180LPGL0045045                                                                                                                              *          20171025WMF1710255.TXT
MDDDHO288242201710                D89828070300PT1D20171031000060SPEAKER ASM                   M IMCTM S5NB082FTTL  07070IMCT  S5 PTB  00015                    1030 SR        000000000000 FUJITSU TEN (THAILAN180LPDL0001001                                                                                                                              *          20171025WMF1710255.TXT
MDDDHO288243201710                D89828070300PT1D20171031000120SPEAKER ASM                   M IMCTM S5NB082FTTL  07070IMCT  S5 PTB  00015                    1300 SR        000000000000 FUJITSU TEN (THAILAN180LPCL0018018180LPGL0046046                                                                                                                *          20171025WMF1710255.TXT
MDDDHO288244201710                D89828070300PT1D20171031000060SPEAKER ASM                   M IMCTM S5NB082FTTL  07070IMCT  S5 PTB  00015                    1600 SR        000000000000 FUJITSU TEN (THAILAN180LPGL0047047                                                                                                                              *          20171025WMF1710255.TXT
MDDDHO288245201710                D89828070300PT1D20171031000060SPEAKER ASM                   M IMCTM S5NB082FTTL  07070IMCT  S5 PTB  00015                    2100 SR        000000000000 FUJITSU TEN (THAILAN180LPGL0048048                                                                                                                              *          20171025WMF1710255.TXT
MDDDHO288246201710                D89831228300PT1D20171030000030RADIO;AM/FM,CD                M IMCTM S5NC06 FTTL  07070IMCT  S5 CPB  00003                    2230 SR        000000000000 FUJITSU TEN (THAILAN180LPGL0043043                                                                                                                              *          20171025WMF1710255.TXT
MDDDHO288247201710                D89831228300PT1D20171031000030RADIO;AM/FM,CD                M IMCTM S5NC06 FTTL  07070IMCT  S5 CPB  00003                    0400 SR        000000000000 FUJITSU TEN (THAILAN180LPGL0044044                                                                                                                              *          20171025WMF1710255.TXT
MDDDHO288248201710                D89831228300PT1D20171031000030RADIO;AM/FM,CD                M IMCTM S5NC06 FTTL  07070IMCT  S5 CPB  00003                    0830 SR        000000000000 FUJITSU TEN (THAILAN180LPGL0045045                                                                                                                              *          20171025WMF1710255.TXT
MDDDHO288249201710                D89831228300PT1D20171031000030RADIO;AM/FM,CD                M IMCTM S5NC06 FTTL  07070IMCT  S5 CPB  00003                    1030 SR        000000000000 FUJITSU TEN (THAILAN180LPDL0001001                                                                                                                              *          20171025WMF1710255.TXT
MDDDHO288250201710                D89831228300PT1D20171031000060RADIO;AM/FM,CD                M IMCTM S5NC06 FTTL  07070IMCT  S5 CPB  00003                    1300 SR        000000000000 FUJITSU TEN (THAILAN180LPCL0018018180LPGL0046046                                                                                                                *          20171025WMF1710255.TXT
MDDDHO288251201710                D89831228300PT1D20171031000030RADIO;AM/FM,CD                M IMCTM S5NC06 FTTL  07070IMCT  S5 CPB  00003                    1600 SR        000000000000 FUJITSU TEN (THAILAN180LPGL0047047                                                                                                                              *          20171025WMF1710255.TXT
MDDDHO288252201710                D89831228300PT1D20171031000030RADIO;AM/FM,CD                M IMCTM S5NC06 FTTL  07070IMCT  S5 CPB  00003                    2100 SR        000000000000 FUJITSU TEN (THAILAN180LPGL0048048                                                                                                                              *          20171025WMF1710255.TXT
MDDDHO288253201710                D89848581600PT1D20171031000030RADIO;AM/FM CD D              M IMCTM S5NC06 FTTL  07070IMCT  S5 PTB  00003                    0230 SR        000000000000 FUJITSU TEN (THAILAN180LPQL0005005                                                                                                                              *          20171025WMF1710255.TXT
MDDUHO237469201710                D89828070100PT4U20171031000030SPEAKER ASM                   M IMCTM S0FL05 FTTL  07070IMCT  S0 PTB  00004                    0400 SR        000000000000 FUJITSU TEN (THAILAN180LUKU0025025                                                                                                                              *          20171025WMF1710255.TXT
MDDUHO237470201710                D89828070100PT4U20171031000030SPEAKER ASM                   M IMCTM S0FL05 FTTL  07070IMCT  S0 PTB  00004                    1030 SR        000000000000 FUJITSU TEN (THAILAN180LUKU0026026                                                                                                                              *          20171025WMF1710255.TXT
MDDUHO237471201710                D89828070100PT4U20171031000030SPEAKER ASM                   M IMCTM S0FL05 FTTL  07070IMCT  S0 PTB  00004                    1600 SR        000000000000 FUJITSU TEN (THAILAN180LUGU0002002                                                                                                                              *          20171025WMF1710255.TXT
MDDUHO237472201710                D89828070200PV4U20171031000030SPEAKER ASM                   M IMCTM S0FR05 FTTL  07070IMCT  S0 PTB  00005                    0400 SR        000000000000 FUJITSU TEN (THAILAN180LUKU0025025                                                                                                                              *          20171025WMF1710255.TXT
MDDUHO237473201710                D89828070200PV4U20171031000030SPEAKER ASM                   M IMCTM S0FR05 FTTL  07070IMCT  S0 PTB  00005                    1030 SR        000000000000 FUJITSU TEN (THAILAN180LUKU0026026                                                                                                                              *          20171025WMF1710255.TXT
MDDUHO237474201710                D89828070200PV4U20171031000030SPEAKER ASM                   M IMCTM S0FR05 FTTL  07070IMCT  S0 PTB  00005                    1600 SR        000000000000 FUJITSU TEN (THAILAN180LUGU0002002                                                                                                                              *          20171025WMF1710255.TXT
MDDUHO237475201710                D89828070300PT4U20171031000030SPEAKER ASM                   M IMCTM S9TS02 FTTL  07070IMCT  S9 PTB  00015                    0400 SR        000000000000 FUJITSU TEN (THAILAN180LUKU0025025                                                                                                                              *          20171025WMF1710255.TXT
MDDUHO237476201710                D89828070300PT4U20171031000030SPEAKER ASM                   M IMCTM S9TS02 FTTL  07070IMCT  S9 PTB  00015                    1030 SR        000000000000 FUJITSU TEN (THAILAN180LUKU0026026                                                                                                                              *          20171025WMF1710255.TXT
MDDUHO237477201710                D89828070300PT4U20171031000030SPEAKER ASM                   M IMCTM S9TS02 FTTL  07070IMCT  S9 PTB  00015                    1600 SR        000000000000 FUJITSU TEN (THAILAN180LUGU0002002                                                                                                                              *          20171025WMF1710255.TXT
MDDUHO237478201710                D89831228400PT4U20171031000015RADIO;AM/FM,CD                M IMCTM S9CO001FTTL  07070IMCT  S9 CPB  00003                    1600 SR        000000000000 FUJITSU TEN (THAILAN180LUGU0002002                                                                                                                              *          20171025WMF1710255.TXT
MDEUHO287783201710                D89828070100PT4U20171030000030SPEAKER ASM                   M IMCTM S0FL05 FTTL  07070IMCT  S0 PTB  00004                    2230 SR        000000000000 FUJITSU TEN (THAILAN18023TU0204204                                                                                                                              *          20171025WMF1710255.TXT
MDEUHO287784201710                D89828070100PT4U20171031000030SPEAKER ASM                   M IMCTM S0FL05 FTTL  07070IMCT  S0 PTB  00004                    0230 SR        000000000000 FUJITSU TEN (THAILAN18078SU0176176                                                                                                                              *          20171025WMF1710255.TXT
MDEUHO287785201710                D89828070100PT4U20171031000030SPEAKER ASM                   M IMCTM S0FL05 FTTL  07070IMCT  S0 PTB  00004                    0400 SR        000000000000 FUJITSU TEN (THAILAN18022TU0089089                                                                                                                              *          20171025WMF1710255.TXT
MDEUHO287786201710                D89828070100PT4U20171031000060SPEAKER ASM                   M IMCTM S0FL05 FTTL  07070IMCT  S0 PTB  00004                    1300 SR        000000000000 FUJITSU TEN (THAILAN18078SU0177178                                                                                                                              *          20171025WMF1710255.TXT
MDEUHO287787201710                D89828070100PT4U20171031000030SPEAKER ASM                   M IMCTM S0FL05 FTTL  07070IMCT  S0 PTB  00004                    2100 SR        000000000000 FUJITSU TEN (THAILAN18078SU0179179                                                                                                                              *          20171025WMF1710255.TXT
MDEUHO287788201710                D89828070200PV4U20171030000030SPEAKER ASM                   M IMCTM S0FR05 FTTL  07070IMCT  S0 PTB  00005                    2230 SR        000000000000 FUJITSU TEN (THAILAN18023TU0204204                                                                                                                              *          20171025WMF1710255.TXT
MDEUHO287789201710                D89828070200PV4U20171031000030SPEAKER ASM                   M IMCTM S0FR05 FTTL  07070IMCT  S0 PTB  00005                    0230 SR        000000000000 FUJITSU TEN (THAILAN18078SU0176176                                                                                                                              *          20171025WMF1710255.TXT
MDEUHO287790201710                D89828070200PV4U20171031000030SPEAKER ASM                   M IMCTM S0FR05 FTTL  07070IMCT  S0 PTB  00005                    0400 SR        000000000000 FUJITSU TEN (THAILAN18022TU0089089                                                                                                                              *          20171025WMF1710255.TXT
MDEUHO287791201710                D89828070200PV4U20171031000060SPEAKER ASM                   M IMCTM S0FR05 FTTL  07070IMCT  S0 PTB  00005                    1300 SR        000000000000 FUJITSU TEN (THAILAN18078SU0177178                                                                                                                              *          20171025WMF1710255.TXT
MDEUHO287792201710                D89828070200PV4U20171031000030SPEAKER ASM                   M IMCTM S0FR05 FTTL  07070IMCT  S0 PTB  00005                    2100 SR        000000000000 FUJITSU TEN (THAILAN18078SU0179179                                                                                                                              *          20171025WMF1710255.TXT
MDEUHO287793201710                D89828070300PT4U20171030000030SPEAKER ASM                   M IMCTM S9TS02 FTTL  07070IMCT  S9 PTB  00015                    2230 SR        000000000000 FUJITSU TEN (THAILAN18023TU0204204                                                                                                                              *          20171025WMF1710255.TXT
MDEUHO287794201710                D89828070300PT4U20171031000030SPEAKER ASM                   M IMCTM S9TS02 FTTL  07070IMCT  S9 PTB  00015                    0230 SR        000000000000 FUJITSU TEN (THAILAN18078SU0176176                                                                                                                              *          20171025WMF1710255.TXT
MDEUHO287795201710                D89828070300PT4U20171031000030SPEAKER ASM                   M IMCTM S9TS02 FTTL  07070IMCT  S9 PTB  00015                    0400 SR        000000000000 FUJITSU TEN (THAILAN18022TU0089089                                                                                                                              *          20171025WMF1710255.TXT
MDEUHO287796201710                D89828070300PT4U20171031000060SPEAKER ASM                   M IMCTM S9TS02 FTTL  07070IMCT  S9 PTB  00015                    1300 SR        000000000000 FUJITSU TEN (THAILAN18078SU0177178                                                                                                                              *          20171025WMF1710255.TXT
MDEUHO287797201710                D89828070300PT4U20171031000030SPEAKER ASM                   M IMCTM S9TS02 FTTL  07070IMCT  S9 PTB  00015                    2100 SR        000000000000 FUJITSU TEN (THAILAN18078SU0179179                                                                                                                              *          20171025WMF1710255.TXT
