REC2017101920171019ISUZU                              30     
MDD6HO259433201710                D89828070100PV5620171023000120SPEAKER ASM                   M IMCTM G9B112 FTTL  07070G/WAY G9 PTB  00004                    1530 GW        0000000000005FUJITSU TEN (THAILAN180LRLG0015015180LRNG0004004                                                                                                                *          20171019WMF1710191.TXT
MDD6HO259434201710                D89828070100PV5620171023000060SPEAKER ASM                   M IMCTM G9B112 FTTL  07070G/WAY G9 PTB  00004                    2100 GW        0000000000005FUJITSU TEN (THAILAN180LPGG0005005                                                                                                                              *          20171019WMF1710191.TXT
MDD6HO259435201710                D89828070100PV5620171023000060SPEAKER ASM                   M IMCTM G9B112 FTTL  07070G/WAY G9 PTB  00004                    2300 GW        0000000000005FUJITSU TEN (THAILAN180LRQG0001001                                                                                                                              *          20171019WMF1710191.TXT
MDD6HO259436201710                D89828070100PV5620171024000060SPEAKER ASM                   M IMCTM G9B112 FTTL  07070G/WAY G9 PTB  00004                    0200 GW        0000000000005FUJITSU TEN (THAILAN180LRHG0024024                                                                                                                              *          20171019WMF1710191.TXT
MDD6HO259437201710                D89828070100PV5620171024000060SPEAKER ASM                   M IMCTM G9B112 FTTL  07070G/WAY G9 PTB  00004                    0330 GW        0000000000005FUJITSU TEN (THAILAN180LRMG0010010                                                                                                                              *          20171019WMF1710191.TXT
MDD6HO259438201710                D89828070100PV5620171024000060SPEAKER ASM                   M IMCTM G9B112 FTTL  07070G/WAY G9 PTB  00004                    0900 GW        0000000000005FUJITSU TEN (THAILAN180LRMG0011011                                                                                                                              *          20171019WMF1710191.TXT
MDD6HO259439201710                D89828070100PV5620171024000060SPEAKER ASM                   M IMCTM G9B112 FTTL  07070G/WAY G9 PTB  00004                    1100 GW        0000000000005FUJITSU TEN (THAILAN180LPHG0002002                                                                                                                              *          20171019WMF1710191.TXT
MDD6HO259440201710                D89828070100PV5620171024000060SPEAKER ASM                   M IMCTM G9B112 FTTL  07070G/WAY G9 PTB  00004                    1400 GW        0000000000005FUJITSU TEN (THAILAN180LRLG0016016                                                                                                                              *          20171019WMF1710191.TXT
MDD6HO259441201710                D89828070100PV5620171024000120SPEAKER ASM                   M IMCTM G9B112 FTTL  07070G/WAY G9 PTB  00004                    1530 GW        0000000000005FUJITSU TEN (THAILAN180LRHG0025026                                                                                                                              *          20171019WMF1710191.TXT
MDD6HO259442201710                D89828070200PV5620171023000120SPEAKER ASM                   M IMCTM G9F132 FTTL  07070G/WAY G9 PTB  00005                    1530 GW        0000000000005FUJITSU TEN (THAILAN180LRLG0015015180LRNG0004004                                                                                                                *          20171019WMF1710191.TXT
MDD6HO259443201710                D89828070200PV5620171023000060SPEAKER ASM                   M IMCTM G9F132 FTTL  07070G/WAY G9 PTB  00005                    2300 GW        0000000000005FUJITSU TEN (THAILAN180LRQG0001001                                                                                                                              *          20171019WMF1710191.TXT
MDD6HO259444201710                D89828070200PV5620171024000060SPEAKER ASM                   M IMCTM G9F132 FTTL  07070G/WAY G9 PTB  00005                    0200 GW        0000000000005FUJITSU TEN (THAILAN180LRHG0024024                                                                                                                              *          20171019WMF1710191.TXT
MDD6HO259445201710                D89828070200PV5620171024000060SPEAKER ASM                   M IMCTM G9F132 FTTL  07070G/WAY G9 PTB  00005                    0330 GW        0000000000005FUJITSU TEN (THAILAN180LRMG0010010                                                                                                                              *          20171019WMF1710191.TXT
MDD6HO259446201710                D89828070200PV5620171024000060SPEAKER ASM                   M IMCTM G9F132 FTTL  07070G/WAY G9 PTB  00005                    0900 GW        0000000000005FUJITSU TEN (THAILAN180LRMG0011011                                                                                                                              *          20171019WMF1710191.TXT
MDD6HO259447201710                D89828070200PV5620171024000060SPEAKER ASM                   M IMCTM G9F132 FTTL  07070G/WAY G9 PTB  00005                    1400 GW        0000000000005FUJITSU TEN (THAILAN180LRLG0016016                                                                                                                              *          20171019WMF1710191.TXT
MDD6HO259448201710                D89828070200PV5620171024000120SPEAKER ASM                   M IMCTM G9F132 FTTL  07070G/WAY G9 PTB  00005                    1530 GW        0000000000005FUJITSU TEN (THAILAN180LRHG0025026                                                                                                                              *          20171019WMF1710191.TXT
MDD6HO259449201710                D89828070300PT5620171023000120SPEAKER ASM                   M IMCTM G9JB34 FTTL  07070G/WAY G9 PTB  00015                    1530 GW        0000000000005FUJITSU TEN (THAILAN180LRLG0015015180LRNG0004004                                                                                                                *          20171019WMF1710191.TXT
MDD6HO259450201710                D89828070300PT5620171023000060SPEAKER ASM                   M IMCTM G9JB34 FTTL  07070G/WAY G9 PTB  00015                    2100 GW        0000000000005FUJITSU TEN (THAILAN180LPGG0005005                                                                                                                              *          20171019WMF1710191.TXT
MDD6HO259451201710                D89828070300PT5620171023000060SPEAKER ASM                   M IMCTM G9JB34 FTTL  07070G/WAY G9 PTB  00015                    2300 GW        0000000000005FUJITSU TEN (THAILAN180LRQG0001001                                                                                                                              *          20171019WMF1710191.TXT
MDD6HO259452201710                D89828070300PT5620171024000060SPEAKER ASM                   M IMCTM G9JB34 FTTL  07070G/WAY G9 PTB  00015                    0200 GW        0000000000005FUJITSU TEN (THAILAN180LRHG0024024                                                                                                                              *          20171019WMF1710191.TXT
MDD6HO259453201710                D89828070300PT5620171024000060SPEAKER ASM                   M IMCTM G9JB34 FTTL  07070G/WAY G9 PTB  00015                    0330 GW        0000000000005FUJITSU TEN (THAILAN180LRMG0010010                                                                                                                              *          20171019WMF1710191.TXT
MDD6HO259454201710                D89828070300PT5620171024000060SPEAKER ASM                   M IMCTM G9JB34 FTTL  07070G/WAY G9 PTB  00015                    0900 GW        0000000000005FUJITSU TEN (THAILAN180LRMG0011011                                                                                                                              *          20171019WMF1710191.TXT
MDD6HO259455201710                D89828070300PT5620171024000060SPEAKER ASM                   M IMCTM G9JB34 FTTL  07070G/WAY G9 PTB  00015                    1100 GW        0000000000005FUJITSU TEN (THAILAN180LPHG0002002                                                                                                                              *          20171019WMF1710191.TXT
MDD6HO259456201710                D89828070300PT5620171024000060SPEAKER ASM                   M IMCTM G9JB34 FTTL  07070G/WAY G9 PTB  00015                    1400 GW        0000000000005FUJITSU TEN (THAILAN180LRLG0016016                                                                                                                              *          20171019WMF1710191.TXT
MDD6HO259457201710                D89828070300PT5620171024000120SPEAKER ASM                   M IMCTM G9JB34 FTTL  07070G/WAY G9 PTB  00015                    1530 GW        0000000000005FUJITSU TEN (THAILAN180LRHG0025026                                                                                                                              *          20171019WMF1710191.TXT
MDD6HO259458201710                D89831228300PT5620171023000030RADIO;AM/FM,CD                M IMCTM G9J311 FTTL  07070G/WAY G9 CPB  00003                    2100 GW        0000000000005FUJITSU TEN (THAILAN180LPGG0005005                                                                                                                              *          20171019WMF1710191.TXT
MDD6HO259459201710                D89831228300PT5620171024000030RADIO;AM/FM,CD                M IMCTM G9J311 FTTL  07070G/WAY G9 CPB  00003                    1100 GW        0000000000005FUJITSU TEN (THAILAN180LPHG0002002                                                                                                                              *          20171019WMF1710191.TXT
MDD6HO259460201710                D89848581500PT5620171023000030RADIO;AM/FM CD D              M IMCTM G9J213 FTTL  07070G/WAY G9 PTB  00003                    2300 GW        0000000000005FUJITSU TEN (THAILAN180LRQG0001001                                                                                                                              *          20171019WMF1710191.TXT
MDD6HO259461201710                D89848581500PT5620171024000030RADIO;AM/FM CD D              M IMCTM G9J213 FTTL  07070G/WAY G9 PTB  00003                    0200 GW        0000000000005FUJITSU TEN (THAILAN180LRHG0024024                                                                                                                              *          20171019WMF1710191.TXT
MDD6HO259462201710                D89848581500PT5620171024000060RADIO;AM/FM CD D              M IMCTM G9J213 FTTL  07070G/WAY G9 PTB  00003                    1530 GW        0000000000005FUJITSU TEN (THAILAN180LRHG0025026                                                                                                                              *          20171019WMF1710191.TXT
