REC2017101020171010ISUZU                              66     
MDDDHO223129201710                D89821984430PT1D20171017000060RADIO;AM/FM,CD                M IMCTM S5NC06 FTTL  07070IMCT  S5 PTB  00005                    1600 SR        000000000000 FUJITSU TEN (THAILAN180LNEL0009009180LNGL0012012                                                                                                                *          20171010WMF1710105.TXT
MDDDHO223130201710                D89828070100PV1D20171016000060SPEAKER ASM                   M IMCTM S5MB11 FTTL  07070IMCT  S5 PTB  00004                    2230 SR        000000000000 FUJITSU TEN (THAILAN180LPGL0003003                                                                                                                              *          20171010WMF1710105.TXT
MDDDHO223131201710                D89828070100PV1D20171017000060SPEAKER ASM                   M IMCTM S5MB11 FTTL  07070IMCT  S5 PTB  00004                    0230 SR        000000000000 FUJITSU TEN (THAILAN180LPCL0001001                                                                                                                              *          20171010WMF1710105.TXT
MDDDHO223132201710                D89828070100PV1D20171017000120SPEAKER ASM                   M IMCTM S5MB11 FTTL  07070IMCT  S5 PTB  00004                    0400 SR        000000000000 FUJITSU TEN (THAILAN180LPGL0004005                                                                                                                              *          20171010WMF1710105.TXT
MDDDHO223133201710                D89828070100PV1D20171017000060SPEAKER ASM                   M IMCTM S5MB11 FTTL  07070IMCT  S5 PTB  00004                    0830 SR        000000000000 FUJITSU TEN (THAILAN180LPKL0002002                                                                                                                              *          20171010WMF1710105.TXT
MDDDHO223134201710                D89828070100PV1D20171017000060SPEAKER ASM                   M IMCTM S5MB11 FTTL  07070IMCT  S5 PTB  00004                    1030 SR        000000000000 FUJITSU TEN (THAILAN180LPGL0006006                                                                                                                              *          20171010WMF1710105.TXT
MDDDHO223135201710                D89828070100PV1D20171017000060SPEAKER ASM                   M IMCTM S5MB11 FTTL  07070IMCT  S5 PTB  00004                    1300 SR        000000000000 FUJITSU TEN (THAILAN180LPJL0002002                                                                                                                              *          20171010WMF1710105.TXT
MDDDHO223136201710                D89828070100PV1D20171017000180SPEAKER ASM                   M IMCTM S5MB11 FTTL  07070IMCT  S5 PTB  00004                    1600 SR        000000000000 FUJITSU TEN (THAILAN180LNEL0009009180LNGL0012012180LPML0002002                                                                                                  *          20171010WMF1710105.TXT
MDDDHO223137201710                D89828070100PV1D20171017000060SPEAKER ASM                   M IMCTM S5MB11 FTTL  07070IMCT  S5 PTB  00004                    2100 SR        000000000000 FUJITSU TEN (THAILAN180LPGL0007007                                                                                                                              *          20171010WMF1710105.TXT
MDDDHO223138201710                D89828070100PV4D20171017000060SPEAKER ASM                   M IMCTM S0FL05 FTTL  07070IMCT  S0 PTB  00004                    0400 SR        000000000000 FUJITSU TEN (THAILAN180LRSU0003003                                                                                                                              *          20171010WMF1710105.TXT
MDDDHO223139201710                D89828070200PV4D20171017000060SPEAKER ASM                   M IMCTM S0FR05 FTTL  07070IMCT  S0 PTB  00005                    0400 SR        000000000000 FUJITSU TEN (THAILAN180LRSU0003003                                                                                                                              *          20171010WMF1710105.TXT
MDDDHO223140201710                D89828070300PT1D20171016000060SPEAKER ASM                   M IMCTM S5NB082FTTL  07070IMCT  S5 PTB  00015                    2230 SR        000000000000 FUJITSU TEN (THAILAN180LPGL0003003                                                                                                                              *          20171010WMF1710105.TXT
MDDDHO223141201710                D89828070300PT1D20171017000060SPEAKER ASM                   M IMCTM S5NB082FTTL  07070IMCT  S5 PTB  00015                    0230 SR        000000000000 FUJITSU TEN (THAILAN180LPCL0001001                                                                                                                              *          20171010WMF1710105.TXT
MDDDHO223142201710                D89828070300PT1D20171017000120SPEAKER ASM                   M IMCTM S5NB082FTTL  07070IMCT  S5 PTB  00015                    0400 SR        000000000000 FUJITSU TEN (THAILAN180LPGL0004005                                                                                                                              *          20171010WMF1710105.TXT
MDDDHO223143201710                D89828070300PT1D20171017000060SPEAKER ASM                   M IMCTM S5NB082FTTL  07070IMCT  S5 PTB  00015                    0830 SR        000000000000 FUJITSU TEN (THAILAN180LPKL0002002                                                                                                                              *          20171010WMF1710105.TXT
MDDDHO223144201710                D89828070300PT1D20171017000060SPEAKER ASM                   M IMCTM S5NB082FTTL  07070IMCT  S5 PTB  00015                    1030 SR        000000000000 FUJITSU TEN (THAILAN180LPGL0006006                                                                                                                              *          20171010WMF1710105.TXT
MDDDHO223145201710                D89828070300PT1D20171017000060SPEAKER ASM                   M IMCTM S5NB082FTTL  07070IMCT  S5 PTB  00015                    1300 SR        000000000000 FUJITSU TEN (THAILAN180LPJL0002002                                                                                                                              *          20171010WMF1710105.TXT
MDDDHO223146201710                D89828070300PT1D20171017000060SPEAKER ASM                   M IMCTM S5NB082FTTL  07070IMCT  S5 PTB  00015                    1600 SR        000000000000 FUJITSU TEN (THAILAN180LPML0002002                                                                                                                              *          20171010WMF1710105.TXT
MDDDHO223147201710                D89828070300PT1D20171017000060SPEAKER ASM                   M IMCTM S5NB082FTTL  07070IMCT  S5 PTB  00015                    2100 SR        000000000000 FUJITSU TEN (THAILAN180LPGL0007007                                                                                                                              *          20171010WMF1710105.TXT
MDDDHO223148201710                D89828070300PT4D20171017000060SPEAKER ASM                   M IMCTM S9TS02 FTTL  07070IMCT  S9 PTB  00015                    0400 SR        000000000000 FUJITSU TEN (THAILAN180LRSU0003003                                                                                                                              *          20171010WMF1710105.TXT
MDDDHO223149201710                D89831228300PT1D20171016000030RADIO;AM/FM,CD                M IMCTM S5NC06 FTTL  07070IMCT  S5 CPB  00003                    2230 SR        000000000000 FUJITSU TEN (THAILAN180LPGL0003003                                                                                                                              *          20171010WMF1710105.TXT
MDDDHO223150201710                D89831228300PT1D20171017000030RADIO;AM/FM,CD                M IMCTM S5NC06 FTTL  07070IMCT  S5 CPB  00003                    0230 SR        000000000000 FUJITSU TEN (THAILAN180LPCL0001001                                                                                                                              *          20171010WMF1710105.TXT
MDDDHO223151201710                D89831228300PT1D20171017000060RADIO;AM/FM,CD                M IMCTM S5NC06 FTTL  07070IMCT  S5 CPB  00003                    0400 SR        000000000000 FUJITSU TEN (THAILAN180LPGL0004005                                                                                                                              *          20171010WMF1710105.TXT
MDDDHO223152201710                D89831228300PT1D20171017000030RADIO;AM/FM,CD                M IMCTM S5NC06 FTTL  07070IMCT  S5 CPB  00003                    1030 SR        000000000000 FUJITSU TEN (THAILAN180LPGL0006006                                                                                                                              *          20171010WMF1710105.TXT
MDDDHO223153201710                D89831228300PT1D20171017000030RADIO;AM/FM,CD                M IMCTM S5NC06 FTTL  07070IMCT  S5 CPB  00003                    1300 SR        000000000000 FUJITSU TEN (THAILAN180LPJL0002002                                                                                                                              *          20171010WMF1710105.TXT
MDDDHO223154201710                D89831228300PT1D20171017000030RADIO;AM/FM,CD                M IMCTM S5NC06 FTTL  07070IMCT  S5 CPB  00003                    2100 SR        000000000000 FUJITSU TEN (THAILAN180LPGL0007007                                                                                                                              *          20171010WMF1710105.TXT
MDDDHO223155201710                D89848581600PT1D20171017000030RADIO;AM/FM CD D              M IMCTM S5NC06 FTTL  07070IMCT  S5 X    00030                    0830 SR        000000000000 FUJITSU TEN (THAILAN180LPKL0002002                                                                                                                              *          20171010WMF1710105.TXT
MDDUHO209727201710                D89828070100PT4U20171016000030SPEAKER ASM                   M IMCTM S0FL05 FTTL  07070IMCT  S0 PTB  00004                    2230 SR        000000000000 FUJITSU TEN (THAILAN180LUKU0003003                                                                                                                              *          20171010WMF1710105.TXT
MDDUHO209728201710                D89828070100PT4U20171017000030SPEAKER ASM                   M IMCTM S0FL05 FTTL  07070IMCT  S0 PTB  00004                    0830 SR        000000000000 FUJITSU TEN (THAILAN180LUKU0004004                                                                                                                              *          20171010WMF1710105.TXT
MDDUHO209729201710                D89828070100PT4U20171017000060SPEAKER ASM                   M IMCTM S0FL05 FTTL  07070IMCT  S0 PTB  00004                    1600 SR        000000000000 FUJITSU TEN (THAILAN180LUGU0001001180LUKU0005005                                                                                                                *          20171010WMF1710105.TXT
MDDUHO209730201710                D89828070200PV4U20171016000030SPEAKER ASM                   M IMCTM S0FR05 FTTL  07070IMCT  S0 PTB  00005                    2230 SR        000000000000 FUJITSU TEN (THAILAN180LUKU0003003                                                                                                                              *          20171010WMF1710105.TXT
MDDUHO209731201710                D89828070200PV4U20171017000030SPEAKER ASM                   M IMCTM S0FR05 FTTL  07070IMCT  S0 PTB  00005                    0830 SR        000000000000 FUJITSU TEN (THAILAN180LUKU0004004                                                                                                                              *          20171010WMF1710105.TXT
MDDUHO209732201710                D89828070200PV4U20171017000060SPEAKER ASM                   M IMCTM S0FR05 FTTL  07070IMCT  S0 PTB  00005                    1600 SR        000000000000 FUJITSU TEN (THAILAN180LUGU0001001180LUKU0005005                                                                                                                *          20171010WMF1710105.TXT
MDDUHO209733201710                D89828070300PT4U20171016000030SPEAKER ASM                   M IMCTM S9TS02 FTTL  07070IMCT  S9 PTB  00015                    2230 SR        000000000000 FUJITSU TEN (THAILAN180LUKU0003003                                                                                                                              *          20171010WMF1710105.TXT
MDDUHO209734201710                D89828070300PT4U20171017000030SPEAKER ASM                   M IMCTM S9TS02 FTTL  07070IMCT  S9 PTB  00015                    0830 SR        000000000000 FUJITSU TEN (THAILAN180LUKU0004004                                                                                                                              *          20171010WMF1710105.TXT
MDDUHO209735201710                D89828070300PT4U20171017000060SPEAKER ASM                   M IMCTM S9TS02 FTTL  07070IMCT  S9 PTB  00015                    1600 SR        000000000000 FUJITSU TEN (THAILAN180LUGU0001001180LUKU0005005                                                                                                                *          20171010WMF1710105.TXT
MDDUHO209736201710                D89831228400PT4U20171017000015RADIO;AM/FM,CD                M IMCTM S9CO001FTTL  07070IMCT  S9 CPB  00003                    1600 SR        000000000000 FUJITSU TEN (THAILAN180LUGU0001001                                                                                                                              *          20171010WMF1710105.TXT
MDEDHO244109201710                D89828070100PV1D20171016000060SPEAKER ASM                   M IMCTM S5MB11 FTTL  07070IMCT  S5 PTB  00004                    2230 SR        000000000000 FUJITSU TEN (THAILAN17024NL0021022                                                                                                                              *          20171010WMF1710105.TXT
MDEDHO244110201710                D89828070100PV1D20171017000030SPEAKER ASM                   M IMCTM S5MB11 FTTL  07070IMCT  S5 PTB  00004                    0830 SR        000000000000 FUJITSU TEN (THAILAN17026NL0028028                                                                                                                              *          20171010WMF1710105.TXT
MDEDHO244111201710                D89828070100PV1D20171017000060SPEAKER ASM                   M IMCTM S5MB11 FTTL  07070IMCT  S5 PTB  00004                    1300 SR        000000000000 FUJITSU TEN (THAILAN17041PL0058059                                                                                                                              *          20171010WMF1710105.TXT
MDEDHO244112201710                D89828070100PV1D20171017000030SPEAKER ASM                   M IMCTM S5MB11 FTTL  07070IMCT  S5 PTB  00004                    1600 SR        000000000000 FUJITSU TEN (THAILAN17041PL0060060                                                                                                                              *          20171010WMF1710105.TXT
MDEDHO244113201710                D89828070200PV1D20171016000060SPEAKER ASM                   M IMCTM S5MA14 FTTL  07070IMCT  S5 PTB  00005                    2230 SR        000000000000 FUJITSU TEN (THAILAN17024NL0021022                                                                                                                              *          20171010WMF1710105.TXT
MDEDHO244114201710                D89828070200PV1D20171017000030SPEAKER ASM                   M IMCTM S5MA14 FTTL  07070IMCT  S5 PTB  00005                    0830 SR        000000000000 FUJITSU TEN (THAILAN17026NL0028028                                                                                                                              *          20171010WMF1710105.TXT
MDEDHO244115201710                D89828070300PT1D20171016000060SPEAKER ASM                   M IMCTM S5NB082FTTL  07070IMCT  S5 PTB  00015                    2230 SR        000000000000 FUJITSU TEN (THAILAN17024NL0021022                                                                                                                              *          20171010WMF1710105.TXT
MDEDHO244116201710                D89828070300PT1D20171017000030SPEAKER ASM                   M IMCTM S5NB082FTTL  07070IMCT  S5 PTB  00015                    0830 SR        000000000000 FUJITSU TEN (THAILAN17026NL0028028                                                                                                                              *          20171010WMF1710105.TXT
MDEUHO236578201710                D89828070100PT4U20171016000030SPEAKER ASM                   M IMCTM S0FL05 FTTL  07070IMCT  S0 PTB  00004                    2230 SR        000000000000 FUJITSU TEN (THAILAN170C13U0162162                                                                                                                              *          20171010WMF1710105.TXT
MDEUHO236579201710                D89828070100PT4U20171017000030SPEAKER ASM                   M IMCTM S0FL05 FTTL  07070IMCT  S0 PTB  00004                    0230 SR        000000000000 FUJITSU TEN (THAILAN170C13U0163163                                                                                                                              *          20171010WMF1710105.TXT
MDEUHO236580201710                D89828070100PT4U20171017000030SPEAKER ASM                   M IMCTM S0FL05 FTTL  07070IMCT  S0 PTB  00004                    0830 SR        000000000000 FUJITSU TEN (THAILAN170C13U0164164                                                                                                                              *          20171010WMF1710105.TXT
MDEUHO236581201710                D89828070100PT4U20171017000030SPEAKER ASM                   M IMCTM S0FL05 FTTL  07070IMCT  S0 PTB  00004                    1030 SR        000000000000 FUJITSU TEN (THAILAN18078SU0144144                                                                                                                              *          20171010WMF1710105.TXT
MDEUHO236582201710                D89828070100PT4U20171017000030SPEAKER ASM                   M IMCTM S0FL05 FTTL  07070IMCT  S0 PTB  00004                    1300 SR        000000000000 FUJITSU TEN (THAILAN170C12U0092092                                                                                                                              *          20171010WMF1710105.TXT
MDEUHO236583201710                D89828070100PT4U20171017000030SPEAKER ASM                   M IMCTM S0FL05 FTTL  07070IMCT  S0 PTB  00004                    1600 SR        000000000000 FUJITSU TEN (THAILAN18023TU0194194                                                                                                                              *          20171010WMF1710105.TXT
MDEUHO236584201710                D89828070100PT4U20171017000030SPEAKER ASM                   M IMCTM S0FL05 FTTL  07070IMCT  S0 PTB  00004                    2230 SR        000000000000 FUJITSU TEN (THAILAN170C13U0165165                                                                                                                              *          20171010WMF1710105.TXT
MDEUHO236585201710                D89828070200PV4U20171016000030SPEAKER ASM                   M IMCTM S0FR05 FTTL  07070IMCT  S0 PTB  00005                    2230 SR        000000000000 FUJITSU TEN (THAILAN170C13U0162162                                                                                                                              *          20171010WMF1710105.TXT
MDEUHO236586201710                D89828070200PV4U20171017000030SPEAKER ASM                   M IMCTM S0FR05 FTTL  07070IMCT  S0 PTB  00005                    0230 SR        000000000000 FUJITSU TEN (THAILAN170C13U0163163                                                                                                                              *          20171010WMF1710105.TXT
MDEUHO236587201710                D89828070200PV4U20171017000030SPEAKER ASM                   M IMCTM S0FR05 FTTL  07070IMCT  S0 PTB  00005                    0830 SR        000000000000 FUJITSU TEN (THAILAN170C13U0164164                                                                                                                              *          20171010WMF1710105.TXT
MDEUHO236588201710                D89828070200PV4U20171017000030SPEAKER ASM                   M IMCTM S0FR05 FTTL  07070IMCT  S0 PTB  00005                    1030 SR        000000000000 FUJITSU TEN (THAILAN18078SU0144144                                                                                                                              *          20171010WMF1710105.TXT
MDEUHO236589201710                D89828070200PV4U20171017000030SPEAKER ASM                   M IMCTM S0FR05 FTTL  07070IMCT  S0 PTB  00005                    1300 SR        000000000000 FUJITSU TEN (THAILAN170C12U0092092                                                                                                                              *          20171010WMF1710105.TXT
MDEUHO236590201710                D89828070200PV4U20171017000030SPEAKER ASM                   M IMCTM S0FR05 FTTL  07070IMCT  S0 PTB  00005                    1600 SR        000000000000 FUJITSU TEN (THAILAN18023TU0194194                                                                                                                              *          20171010WMF1710105.TXT
MDEUHO236591201710                D89828070200PV4U20171017000030SPEAKER ASM                   M IMCTM S0FR05 FTTL  07070IMCT  S0 PTB  00005                    2230 SR        000000000000 FUJITSU TEN (THAILAN170C13U0165165                                                                                                                              *          20171010WMF1710105.TXT
MDEUHO236592201710                D89828070300PT4U20171016000030SPEAKER ASM                   M IMCTM S9TS02 FTTL  07070IMCT  S9 PTB  00015                    2230 SR        000000000000 FUJITSU TEN (THAILAN170C13U0162162                                                                                                                              *          20171010WMF1710105.TXT
MDEUHO236593201710                D89828070300PT4U20171017000030SPEAKER ASM                   M IMCTM S9TS02 FTTL  07070IMCT  S9 PTB  00015                    0230 SR        000000000000 FUJITSU TEN (THAILAN170C13U0163163                                                                                                                              *          20171010WMF1710105.TXT
MDEUHO236594201710                D89828070300PT4U20171017000030SPEAKER ASM                   M IMCTM S9TS02 FTTL  07070IMCT  S9 PTB  00015                    0830 SR        000000000000 FUJITSU TEN (THAILAN170C13U0164164                                                                                                                              *          20171010WMF1710105.TXT
MDEUHO236595201710                D89828070300PT4U20171017000030SPEAKER ASM                   M IMCTM S9TS02 FTTL  07070IMCT  S9 PTB  00015                    1030 SR        000000000000 FUJITSU TEN (THAILAN18078SU0144144                                                                                                                              *          20171010WMF1710105.TXT
MDEUHO236596201710                D89828070300PT4U20171017000030SPEAKER ASM                   M IMCTM S9TS02 FTTL  07070IMCT  S9 PTB  00015                    1300 SR        000000000000 FUJITSU TEN (THAILAN170C12U0092092                                                                                                                              *          20171010WMF1710105.TXT
MDEUHO236597201710                D89828070300PT4U20171017000030SPEAKER ASM                   M IMCTM S9TS02 FTTL  07070IMCT  S9 PTB  00015                    1600 SR        000000000000 FUJITSU TEN (THAILAN18023TU0194194                                                                                                                              *          20171010WMF1710105.TXT
MDEUHO236598201710                D89828070300PT4U20171017000030SPEAKER ASM                   M IMCTM S9TS02 FTTL  07070IMCT  S9 PTB  00015                    2230 SR        000000000000 FUJITSU TEN (THAILAN170C13U0165165                                                                                                                              *          20171010WMF1710105.TXT
