REC2017102720171027ISUZU                              9      
MDEFHOT24532201711                D89828070100PV4F20171101000028SPEAKER ASM                   M IMCTM S7FL05 FTTL  07070IMCT  S7 PTB  00004                    1300 SR        000000000000 FUJITSU TEN (THAILAN17074PR0026   17077PR0056   H171100302    H171100315    000000                                                                              *R         20171027RDF1710275.TXT
MDEFHOT24533201711                D89828070200PV4F20171101000005SPEAKER ASM                   M IMCTM S7TS02 FTTL  07070IMCT  S7 PTB  00005                    0830 SR        000000000000 FUJITSU TEN (THAILAN17067QR0067   17067QR0069   C171100213    C171100215    000000                                                                              *R         20171027RDF1710275.TXT
MDEFHOT24534201711                D89828070300PT4F20171101000005SPEAKER ASM                   M IMCTM S7TS02 FTTL  07070IMCT  S7 PTB  00015                    0830 SR        000000000000 FUJITSU TEN (THAILAN17067QR0067   17067QR0069   C171100213    C171100215    000000                                                                              *R         20171027RDF1710275.TXT
MDEFHOT24535201711                D89831229000PT4F20171101000003RADIO;AM/FM,CD                M IMCTM S7TS03 FTTL  07070IMCT  S7 PTB  00003                    0830 SR        000000000000 FUJITSU TEN (THAILAN17067QR0067   17067QR0069   C171100213    C171100215    000000                                                                              *R         20171027RDF1710275.TXT
MDEFHO261948201711                D89828070100PV4F20171101000016SPEAKER ASM                   M IMCTM S7FL05 FTTL  07070IMCT  S7 PTB  00004                    0400 SR        000000000000 FUJITSU TEN (THAILAN17015RR0035   17040MR0048   C171100201    C171100208    000000                                                                              *R         20171027RDF1710275.TXT
MDEFHO261949201711                D89828070100PV4F20171101000016SPEAKER ASM                   M IMCTM S7FL05 FTTL  07070IMCT  S7 PTB  00004                    0830 SR        000000000000 FUJITSU TEN (THAILAN17066QR0094   17012RR0051   C171100209    H171100301    000000                                                                              *R         20171027RDF1710275.TXT
MDEFHO261950201711                D89828070200PV4F20171101000015SPEAKER ASM                   M IMCTM S7TS02 FTTL  07070IMCT  S7 PTB  00005                    0400 SR        000000000000 FUJITSU TEN (THAILAN17015RR0035   17067QR0067   C171100201    C171100213    000000                                                                              *R         20171027RDF1710275.TXT
MDEFHO261951201711                D89828070300PT4F20171101000015SPEAKER ASM                   M IMCTM S7TS02 FTTL  07070IMCT  S7 PTB  00015                    0400 SR        000000000000 FUJITSU TEN (THAILAN17015RR0035   17067QR0067   C171100201    C171100213    000000                                                                              *R         20171027RDF1710275.TXT
MDEFHO261952201711                D89831229000PT4F20171101000003RADIO;AM/FM,CD                M IMCTM S7TS03 FTTL  07070IMCT  S7 PTB  00003                    0400 SR        000000000000 FUJITSU TEN (THAILAN17016RR0008   17067QR0066   C171100202    C171100212    000000                                                                              *R         20171027RDF1710275.TXT
