REC2017101120171011ISUZU                              30     
MDD6HO235981201710                D89821984430PT5620171017000030RADIO;AM/FM,CD                M IMCTM G9J311 FTTL  07070G/WAY G9 PTB  00005                    2100 GW        0000000000005FUJITSU TEN (THAILAN180LPAG0042042                                                                                                                              *          20171011WMF1710113.TXT
MDD6HO235982201710                D89828070100PV5620171017000060SPEAKER ASM                   M IMCTM G9B112 FTTL  07070G/WAY G9 PTB  00004                    1530 GW        0000000000005FUJITSU TEN (THAILAN180LRFG0002002                                                                                                                              *          20171011WMF1710113.TXT
MDD6HO235983201710                D89828070100PV5620171017000060SPEAKER ASM                   M IMCTM G9B112 FTTL  07070G/WAY G9 PTB  00004                    2100 GW        0000000000005FUJITSU TEN (THAILAN180LPAG0042042                                                                                                                              *          20171011WMF1710113.TXT
MDD6HO235984201710                D89828070100PV5620171017000060SPEAKER ASM                   M IMCTM G9B112 FTTL  07070G/WAY G9 PTB  00004                    2300 GW        0000000000005FUJITSU TEN (THAILAN180LRHG0011011                                                                                                                              *          20171011WMF1710113.TXT
MDD6HO235985201710                D89828070100PV5620171018000060SPEAKER ASM                   M IMCTM G9B112 FTTL  07070G/WAY G9 PTB  00004                    0200 GW        0000000000005FUJITSU TEN (THAILAN180LRRG0004004                                                                                                                              *          20171011WMF1710113.TXT
MDD6HO235986201710                D89828070100PV5620171018000120SPEAKER ASM                   M IMCTM G9B112 FTTL  07070G/WAY G9 PTB  00004                    0330 GW        0000000000005FUJITSU TEN (THAILAN180LRHG0012012180LRMG0004004                                                                                                                *          20171011WMF1710113.TXT
MDD6HO235987201710                D89828070100PV5620171018000060SPEAKER ASM                   M IMCTM G9B112 FTTL  07070G/WAY G9 PTB  00004                    0900 GW        0000000000005FUJITSU TEN (THAILAN180LRMG0005005                                                                                                                              *          20171011WMF1710113.TXT
MDD6HO235988201710                D89828070100PV5620171018000060SPEAKER ASM                   M IMCTM G9B112 FTTL  07070G/WAY G9 PTB  00004                    1100 GW        0000000000005FUJITSU TEN (THAILAN180LPKG0005005                                                                                                                              *          20171011WMF1710113.TXT
MDD6HO235989201710                D89828070100PV5620171018000060SPEAKER ASM                   M IMCTM G9B112 FTTL  07070G/WAY G9 PTB  00004                    1400 GW        0000000000005FUJITSU TEN (THAILAN180LRLG0009009                                                                                                                              *          20171011WMF1710113.TXT
MDD6HO235990201710                D89828070100PV5620171018000120SPEAKER ASM                   M IMCTM G9B112 FTTL  07070G/WAY G9 PTB  00004                    1530 GW        0000000000005FUJITSU TEN (THAILAN180LREG0004005                                                                                                                              *          20171011WMF1710113.TXT
MDD6HO235991201710                D89828070200PV5620171017000060SPEAKER ASM                   M IMCTM G9F132 FTTL  07070G/WAY G9 PTB  00005                    1530 GW        0000000000005FUJITSU TEN (THAILAN180LRFG0002002                                                                                                                              *          20171011WMF1710113.TXT
MDD6HO235992201710                D89828070200PV5620171017000060SPEAKER ASM                   M IMCTM G9F132 FTTL  07070G/WAY G9 PTB  00005                    2300 GW        0000000000005FUJITSU TEN (THAILAN180LRHG0011011                                                                                                                              *          20171011WMF1710113.TXT
MDD6HO235993201710                D89828070200PV5620171018000060SPEAKER ASM                   M IMCTM G9F132 FTTL  07070G/WAY G9 PTB  00005                    0200 GW        0000000000005FUJITSU TEN (THAILAN180LRRG0004004                                                                                                                              *          20171011WMF1710113.TXT
MDD6HO235994201710                D89828070200PV5620171018000120SPEAKER ASM                   M IMCTM G9F132 FTTL  07070G/WAY G9 PTB  00005                    0330 GW        0000000000005FUJITSU TEN (THAILAN180LRHG0012012180LRMG0004004                                                                                                                *          20171011WMF1710113.TXT
MDD6HO235995201710                D89828070200PV5620171018000060SPEAKER ASM                   M IMCTM G9F132 FTTL  07070G/WAY G9 PTB  00005                    0900 GW        0000000000005FUJITSU TEN (THAILAN180LRMG0005005                                                                                                                              *          20171011WMF1710113.TXT
MDD6HO235996201710                D89828070200PV5620171018000060SPEAKER ASM                   M IMCTM G9F132 FTTL  07070G/WAY G9 PTB  00005                    1400 GW        0000000000005FUJITSU TEN (THAILAN180LRLG0009009                                                                                                                              *          20171011WMF1710113.TXT
MDD6HO235997201710                D89828070200PV5620171018000120SPEAKER ASM                   M IMCTM G9F132 FTTL  07070G/WAY G9 PTB  00005                    1530 GW        0000000000005FUJITSU TEN (THAILAN180LREG0004005                                                                                                                              *          20171011WMF1710113.TXT
MDD6HO235998201710                D89828070300PT5620171017000060SPEAKER ASM                   M IMCTM G9JB34 FTTL  07070G/WAY G9 PTB  00015                    1530 GW        0000000000005FUJITSU TEN (THAILAN180LRFG0002002                                                                                                                              *          20171011WMF1710113.TXT
MDD6HO235999201710                D89828070300PT5620171017000060SPEAKER ASM                   M IMCTM G9JB34 FTTL  07070G/WAY G9 PTB  00015                    2300 GW        0000000000005FUJITSU TEN (THAILAN180LRHG0011011                                                                                                                              *          20171011WMF1710113.TXT
MDD6HO236000201710                D89828070300PT5620171018000060SPEAKER ASM                   M IMCTM G9JB34 FTTL  07070G/WAY G9 PTB  00015                    0200 GW        0000000000005FUJITSU TEN (THAILAN180LRRG0004004                                                                                                                              *          20171011WMF1710113.TXT
MDD6HO236001201710                D89828070300PT5620171018000120SPEAKER ASM                   M IMCTM G9JB34 FTTL  07070G/WAY G9 PTB  00015                    0330 GW        0000000000005FUJITSU TEN (THAILAN180LRHG0012012180LRMG0004004                                                                                                                *          20171011WMF1710113.TXT
MDD6HO236002201710                D89828070300PT5620171018000060SPEAKER ASM                   M IMCTM G9JB34 FTTL  07070G/WAY G9 PTB  00015                    0900 GW        0000000000005FUJITSU TEN (THAILAN180LRMG0005005                                                                                                                              *          20171011WMF1710113.TXT
MDD6HO236003201710                D89828070300PT5620171018000060SPEAKER ASM                   M IMCTM G9JB34 FTTL  07070G/WAY G9 PTB  00015                    1100 GW        0000000000005FUJITSU TEN (THAILAN180LPKG0005005                                                                                                                              *          20171011WMF1710113.TXT
MDD6HO236004201710                D89828070300PT5620171018000060SPEAKER ASM                   M IMCTM G9JB34 FTTL  07070G/WAY G9 PTB  00015                    1400 GW        0000000000005FUJITSU TEN (THAILAN180LRLG0009009                                                                                                                              *          20171011WMF1710113.TXT
MDD6HO236005201710                D89828070300PT5620171018000120SPEAKER ASM                   M IMCTM G9JB34 FTTL  07070G/WAY G9 PTB  00015                    1530 GW        0000000000005FUJITSU TEN (THAILAN180LREG0004005                                                                                                                              *          20171011WMF1710113.TXT
MDD6HO236006201710                D89831228400PT5620171017000030RADIO;AM/FM,CD                M IMCTM G9J311 FTTL  07070G/WAY G9 CPB  00003                    1530 GW        0000000000005FUJITSU TEN (THAILAN180LRFG0002002                                                                                                                              *          20171011WMF1710113.TXT
MDD6HO236007201710                D89831228400PT5620171018000060RADIO;AM/FM,CD                M IMCTM G9J311 FTTL  07070G/WAY G9 CPB  00003                    1530 GW        0000000000005FUJITSU TEN (THAILAN180LREG0004005                                                                                                                              *          20171011WMF1710113.TXT
MDD6HO236008201710                D89848581500PT5620171017000030RADIO;AM/FM CD D              M IMCTM G9J213 FTTL  07070G/WAY G9 PTB  00003                    2300 GW        0000000000005FUJITSU TEN (THAILAN180LRHG0011011                                                                                                                              *          20171011WMF1710113.TXT
MDD6HO236009201710                D89848581500PT5620171018000030RADIO;AM/FM CD D              M IMCTM G9J213 FTTL  07070G/WAY G9 PTB  00003                    0330 GW        0000000000005FUJITSU TEN (THAILAN180LRHG0012012                                                                                                                              *          20171011WMF1710113.TXT
MDD6HO236010201710                D89848581600PT5620171018000030RADIO;AM/FM CD D              M IMCTM G9J213 FTTL  07070G/WAY G9 X    00030                    1100 GW        0000000000005FUJITSU TEN (THAILAN180LPKG0005005                                                                                                                              *          20171011WMF1710113.TXT
