REC2017102820171028ISUZU                              64     
MDDDHO298714201711                D89821984430PT1D20171101000030RADIO;AM/FM,CD                M IMCTM S5NC06 FTTL  07070IMCT  S5 PTB  00005                    2230 SR        000000000000 FUJITSU TEN (THAILAN180LRAL0002002                                                                                                                              *          20171028WMF1710285.TXT
MDDDHO298715201711                D89821984430PT1D20171102000030RADIO;AM/FM,CD                M IMCTM S5NC06 FTTL  07070IMCT  S5 PTB  00005                    0230 SR        000000000000 FUJITSU TEN (THAILAN180LNEL0016016                                                                                                                              *          20171028WMF1710285.TXT
MDDDHO298716201711                D89821984430PT1D20171102000030RADIO;AM/FM,CD                M IMCTM S5NC06 FTTL  07070IMCT  S5 PTB  00005                    0830 SR        000000000000 FUJITSU TEN (THAILAN180LPAL0002002                                                                                                                              *          20171028WMF1710285.TXT
MDDDHO298717201711                D89821984430PT1D20171102000030RADIO;AM/FM,CD                M IMCTM S5NC06 FTTL  07070IMCT  S5 PTB  00005                    1030 SR        000000000000 FUJITSU TEN (THAILAN180LNCL0013013                                                                                                                              *          20171028WMF1710285.TXT
MDDDHO298718201711                D89821984430PT1D20171102000060RADIO;AM/FM,CD                M IMCTM S5NC06 FTTL  07070IMCT  S5 PTB  00005                    1300 SR        000000000000 FUJITSU TEN (THAILAN180LNEL0017017180LNGL0016016                                                                                                                *          20171028WMF1710285.TXT
MDDDHO298719201711                D89821984430PT1D20171102000030RADIO;AM/FM,CD                M IMCTM S5NC06 FTTL  07070IMCT  S5 PTB  00005                    1600 SR        000000000000 FUJITSU TEN (THAILAN180LRAL0003003                                                                                                                              *          20171028WMF1710285.TXT
MDDDHO298720201711                D89828070100PV1D20171101000060SPEAKER ASM                   M IMCTM S5MB11 FTTL  07070IMCT  S5 PTB  00004                    2230 SR        000000000000 FUJITSU TEN (THAILAN180LRAL0002002                                                                                                                              *          20171028WMF1710285.TXT
MDDDHO298721201711                D89828070100PV1D20171102000060SPEAKER ASM                   M IMCTM S5MB11 FTTL  07070IMCT  S5 PTB  00004                    0230 SR        000000000000 FUJITSU TEN (THAILAN180LNEL0016016                                                                                                                              *          20171028WMF1710285.TXT
MDDDHO298722201711                D89828070100PV1D20171102000060SPEAKER ASM                   M IMCTM S5MB11 FTTL  07070IMCT  S5 PTB  00004                    0400 SR        000000000000 FUJITSU TEN (THAILAN180LPDL0002002                                                                                                                              *          20171028WMF1710285.TXT
MDDDHO298723201711                D89828070100PV1D20171102000060SPEAKER ASM                   M IMCTM S5MB11 FTTL  07070IMCT  S5 PTB  00004                    0830 SR        000000000000 FUJITSU TEN (THAILAN180LPAL0002002                                                                                                                              *          20171028WMF1710285.TXT
MDDDHO298724201711                D89828070100PV1D20171102000060SPEAKER ASM                   M IMCTM S5MB11 FTTL  07070IMCT  S5 PTB  00004                    1030 SR        000000000000 FUJITSU TEN (THAILAN180LNCL0013013                                                                                                                              *          20171028WMF1710285.TXT
MDDDHO298725201711                D89828070100PV1D20171102000120SPEAKER ASM                   M IMCTM S5MB11 FTTL  07070IMCT  S5 PTB  00004                    1300 SR        000000000000 FUJITSU TEN (THAILAN180LNEL0017017180LNGL0016016                                                                                                                *          20171028WMF1710285.TXT
MDDDHO298726201711                D89828070100PV1D20171102000120SPEAKER ASM                   M IMCTM S5MB11 FTTL  07070IMCT  S5 PTB  00004                    1600 SR        000000000000 FUJITSU TEN (THAILAN180LNBL0006006180LRAL0003003                                                                                                                *          20171028WMF1710285.TXT
MDDDHO298727201711                D89828070100PV1D20171102000060SPEAKER ASM                   M IMCTM S5MB11 FTTL  07070IMCT  S5 PTB  00004                    2100 SR        000000000000 FUJITSU TEN (THAILAN180LPPL0003003                                                                                                                              *          20171028WMF1710285.TXT
MDDDHO298728201711                D89828070100PV4D20171102000060SPEAKER ASM                   M IMCTM S0FL05 FTTL  07070IMCT  S0 PTB  00004                    0230 SR        000000000000 FUJITSU TEN (THAILAN180LRSU0010010                                                                                                                              *          20171028WMF1710285.TXT
MDDDHO298729201711                D89828070200PV4D20171102000060SPEAKER ASM                   M IMCTM S0FR05 FTTL  07070IMCT  S0 PTB  00005                    0230 SR        000000000000 FUJITSU TEN (THAILAN180LRSU0010010                                                                                                                              *          20171028WMF1710285.TXT
MDDDHO298730201711                D89828070300PT1D20171102000060SPEAKER ASM                   M IMCTM S5NB082FTTL  07070IMCT  S5 PTB  00015                    0400 SR        000000000000 FUJITSU TEN (THAILAN180LPDL0002002                                                                                                                              *          20171028WMF1710285.TXT
MDDDHO298731201711                D89828070300PT1D20171102000060SPEAKER ASM                   M IMCTM S5NB082FTTL  07070IMCT  S5 PTB  00015                    2100 SR        000000000000 FUJITSU TEN (THAILAN180LPPL0003003                                                                                                                              *          20171028WMF1710285.TXT
MDDDHO298732201711                D89828070300PT4D20171102000060SPEAKER ASM                   M IMCTM S9TS02 FTTL  07070IMCT  S9 PTB  00015                    0230 SR        000000000000 FUJITSU TEN (THAILAN180LRSU0010010                                                                                                                              *          20171028WMF1710285.TXT
MDDDHO298733201711                D89831228300PT1D20171102000030RADIO;AM/FM,CD                M IMCTM S5NC06 FTTL  07070IMCT  S5 CPB  00003                    0400 SR        000000000000 FUJITSU TEN (THAILAN180LPDL0002002                                                                                                                              *          20171028WMF1710285.TXT
MDDUHO241373201711                D89828070100PT4U20171101000030SPEAKER ASM                   M IMCTM S0FL05 FTTL  07070IMCT  S0 PTB  00004                    2230 SR        000000000000 FUJITSU TEN (THAILAN180LUJU0012012                                                                                                                              *          20171028WMF1710285.TXT
MDDUHO241374201711                D89828070100PT4U20171102000030SPEAKER ASM                   M IMCTM S0FL05 FTTL  07070IMCT  S0 PTB  00004                    0830 SR        000000000000 FUJITSU TEN (THAILAN180LUFU0058058                                                                                                                              *          20171028WMF1710285.TXT
MDDUHO241375201711                D89828070100PT4U20171102000030SPEAKER ASM                   M IMCTM S0FL05 FTTL  07070IMCT  S0 PTB  00004                    1600 SR        000000000000 FUJITSU TEN (THAILAN180LUKU0028028                                                                                                                              *          20171028WMF1710285.TXT
MDDUHO241376201711                D89828070200PV4U20171101000030SPEAKER ASM                   M IMCTM S0FR05 FTTL  07070IMCT  S0 PTB  00005                    2230 SR        000000000000 FUJITSU TEN (THAILAN180LUJU0012012                                                                                                                              *          20171028WMF1710285.TXT
MDDUHO241377201711                D89828070200PV4U20171102000030SPEAKER ASM                   M IMCTM S0FR05 FTTL  07070IMCT  S0 PTB  00005                    0830 SR        000000000000 FUJITSU TEN (THAILAN180LUFU0058058                                                                                                                              *          20171028WMF1710285.TXT
MDDUHO241378201711                D89828070200PV4U20171102000030SPEAKER ASM                   M IMCTM S0FR05 FTTL  07070IMCT  S0 PTB  00005                    1600 SR        000000000000 FUJITSU TEN (THAILAN180LUKU0028028                                                                                                                              *          20171028WMF1710285.TXT
MDDUHO241379201711                D89828070300PT4U20171101000030SPEAKER ASM                   M IMCTM S9TS02 FTTL  07070IMCT  S9 PTB  00015                    2230 SR        000000000000 FUJITSU TEN (THAILAN180LUJU0012012                                                                                                                              *          20171028WMF1710285.TXT
MDDUHO241380201711                D89828070300PT4U20171102000030SPEAKER ASM                   M IMCTM S9TS02 FTTL  07070IMCT  S9 PTB  00015                    0830 SR        000000000000 FUJITSU TEN (THAILAN180LUFU0058058                                                                                                                              *          20171028WMF1710285.TXT
MDDUHO241381201711                D89828070300PT4U20171102000030SPEAKER ASM                   M IMCTM S9TS02 FTTL  07070IMCT  S9 PTB  00015                    1600 SR        000000000000 FUJITSU TEN (THAILAN180LUKU0028028                                                                                                                              *          20171028WMF1710285.TXT
MDDUHO241382201711                D89848584200PT4U20171101000015RADIO;AM/FM CD D              M IMCTM S9CO001FTTL  07070IMCT  S9 PTB  00003                    2230 SR        000000000000 FUJITSU TEN (THAILAN180LUJU0012012                                                                                                                              *          20171028WMF1710285.TXT
MDEDHO274596201711                D89828070100PV1D20171101000030SPEAKER ASM                   M IMCTM S5MB11 FTTL  07070IMCT  S5 PTB  00004                    2230 SR        000000000000 FUJITSU TEN (THAILAN17034PL0039039                                                                                                                              *          20171028WMF1710285.TXT
MDEDHO274597201711                D89828070100PV1D20171102000030SPEAKER ASM                   M IMCTM S5MB11 FTTL  07070IMCT  S5 PTB  00004                    0230 SR        000000000000 FUJITSU TEN (THAILAN17034PL0040040                                                                                                                              *          20171028WMF1710285.TXT
MDEDHO274598201711                D89828070100PV1D20171102000030SPEAKER ASM                   M IMCTM S5MB11 FTTL  07070IMCT  S5 PTB  00004                    0830 SR        000000000000 FUJITSU TEN (THAILAN17076NL0014014                                                                                                                              *          20171028WMF1710285.TXT
MDEDHO274599201711                D89828070100PV1D20171102000030SPEAKER ASM                   M IMCTM S5MB11 FTTL  07070IMCT  S5 PTB  00004                    1030 SR        000000000000 FUJITSU TEN (THAILAN17076NL0015015                                                                                                                              *          20171028WMF1710285.TXT
MDEDHO274600201711                D89828070100PV1D20171102000060SPEAKER ASM                   M IMCTM S5MB11 FTTL  07070IMCT  S5 PTB  00004                    1600 SR        000000000000 FUJITSU TEN (THAILAN17079NL0097098                                                                                                                              *          20171028WMF1710285.TXT
MDEDHO274601201711                D89828070200PV1D20171101000030SPEAKER ASM                   M IMCTM S5MA14 FTTL  07070IMCT  S5 PTB  00005                    2230 SR        000000000000 FUJITSU TEN (THAILAN17034PL0039039                                                                                                                              *          20171028WMF1710285.TXT
MDEDHO274602201711                D89828070200PV1D20171102000030SPEAKER ASM                   M IMCTM S5MA14 FTTL  07070IMCT  S5 PTB  00005                    0230 SR        000000000000 FUJITSU TEN (THAILAN17034PL0040040                                                                                                                              *          20171028WMF1710285.TXT
MDEDHO274603201711                D89828070200PV1D20171102000030SPEAKER ASM                   M IMCTM S5MA14 FTTL  07070IMCT  S5 PTB  00005                    0830 SR        000000000000 FUJITSU TEN (THAILAN17076NL0014014                                                                                                                              *          20171028WMF1710285.TXT
MDEDHO274604201711                D89828070200PV1D20171102000030SPEAKER ASM                   M IMCTM S5MA14 FTTL  07070IMCT  S5 PTB  00005                    1030 SR        000000000000 FUJITSU TEN (THAILAN17076NL0015015                                                                                                                              *          20171028WMF1710285.TXT
MDEDHO274605201711                D89828070200PV1D20171102000060SPEAKER ASM                   M IMCTM S5MA14 FTTL  07070IMCT  S5 PTB  00005                    1600 SR        000000000000 FUJITSU TEN (THAILAN17079NL0097098                                                                                                                              *          20171028WMF1710285.TXT
MDEDHO274606201711                D89828070300PT1D20171101000030SPEAKER ASM                   M IMCTM S5NB082FTTL  07070IMCT  S5 PTB  00015                    2230 SR        000000000000 FUJITSU TEN (THAILAN17034PL0039039                                                                                                                              *          20171028WMF1710285.TXT
MDEDHO274607201711                D89828070300PT1D20171102000030SPEAKER ASM                   M IMCTM S5NB082FTTL  07070IMCT  S5 PTB  00015                    0230 SR        000000000000 FUJITSU TEN (THAILAN17034PL0040040                                                                                                                              *          20171028WMF1710285.TXT
MDEDHO274608201711                D89828070300PT1D20171102000030SPEAKER ASM                   M IMCTM S5NB082FTTL  07070IMCT  S5 PTB  00015                    0830 SR        000000000000 FUJITSU TEN (THAILAN17076NL0014014                                                                                                                              *          20171028WMF1710285.TXT
MDEDHO274609201711                D89828070300PT1D20171102000030SPEAKER ASM                   M IMCTM S5NB082FTTL  07070IMCT  S5 PTB  00015                    1030 SR        000000000000 FUJITSU TEN (THAILAN17076NL0015015                                                                                                                              *          20171028WMF1710285.TXT
MDEDHO274610201711                D89828070300PT1D20171102000060SPEAKER ASM                   M IMCTM S5NB082FTTL  07070IMCT  S5 PTB  00015                    1600 SR        000000000000 FUJITSU TEN (THAILAN17079NL0097098                                                                                                                              *          20171028WMF1710285.TXT
MDEDHO274611201711                D89848581800PT1D20171102000030RADIO;AM/FM CD D              M IMCTM S5NC06 FTTL  07070IMCT  S5 PTB  00003                    1600 SR        000000000000 FUJITSU TEN (THAILAN17079NL0097098                                                                                                                              *          20171028WMF1710285.TXT
MDEUHO296153201711                D89828070100PT4U20171101000030SPEAKER ASM                   M IMCTM S0FL05 FTTL  07070IMCT  S0 PTB  00004                    2230 SR        000000000000 FUJITSU TEN (THAILAN18078SU0185185                                                                                                                              *          20171028WMF1710285.TXT
MDEUHO296154201711                D89828070100PT4U20171102000030SPEAKER ASM                   M IMCTM S0FL05 FTTL  07070IMCT  S0 PTB  00004                    0400 SR        000000000000 FUJITSU TEN (THAILAN18078SU0186186                                                                                                                              *          20171028WMF1710285.TXT
MDEUHO296155201711                D89828070100PT4U20171102000030SPEAKER ASM                   M IMCTM S0FL05 FTTL  07070IMCT  S0 PTB  00004                    0830 SR        000000000000 FUJITSU TEN (THAILAN18078SU0187187                                                                                                                              *          20171028WMF1710285.TXT
MDEUHO296156201711                D89828070100PT4U20171102000060SPEAKER ASM                   M IMCTM S0FL05 FTTL  07070IMCT  S0 PTB  00004                    1300 SR        000000000000 FUJITSU TEN (THAILAN18023TU020620618078SU0188188                                                                                                                *          20171028WMF1710285.TXT
MDEUHO296157201711                D89828070100PT4U20171102000060SPEAKER ASM                   M IMCTM S0FL05 FTTL  07070IMCT  S0 PTB  00004                    1600 SR        000000000000 FUJITSU TEN (THAILAN18078SU0189190                                                                                                                              *          20171028WMF1710285.TXT
MDEUHO296158201711                D89828070100PT4U20171102000030SPEAKER ASM                   M IMCTM S0FL05 FTTL  07070IMCT  S0 PTB  00004                    2100 SR        000000000000 FUJITSU TEN (THAILAN18078SU0191191                                                                                                                              *          20171028WMF1710285.TXT
MDEUHO296159201711                D89828070200PV4U20171101000030SPEAKER ASM                   M IMCTM S0FR05 FTTL  07070IMCT  S0 PTB  00005                    2230 SR        000000000000 FUJITSU TEN (THAILAN18078SU0185185                                                                                                                              *          20171028WMF1710285.TXT
MDEUHO296160201711                D89828070200PV4U20171102000030SPEAKER ASM                   M IMCTM S0FR05 FTTL  07070IMCT  S0 PTB  00005                    0400 SR        000000000000 FUJITSU TEN (THAILAN18078SU0186186                                                                                                                              *          20171028WMF1710285.TXT
MDEUHO296161201711                D89828070200PV4U20171102000030SPEAKER ASM                   M IMCTM S0FR05 FTTL  07070IMCT  S0 PTB  00005                    0830 SR        000000000000 FUJITSU TEN (THAILAN18078SU0187187                                                                                                                              *          20171028WMF1710285.TXT
MDEUHO296162201711                D89828070200PV4U20171102000060SPEAKER ASM                   M IMCTM S0FR05 FTTL  07070IMCT  S0 PTB  00005                    1300 SR        000000000000 FUJITSU TEN (THAILAN18023TU020620618078SU0188188                                                                                                                *          20171028WMF1710285.TXT
MDEUHO296163201711                D89828070200PV4U20171102000060SPEAKER ASM                   M IMCTM S0FR05 FTTL  07070IMCT  S0 PTB  00005                    1600 SR        000000000000 FUJITSU TEN (THAILAN18078SU0189190                                                                                                                              *          20171028WMF1710285.TXT
MDEUHO296164201711                D89828070200PV4U20171102000030SPEAKER ASM                   M IMCTM S0FR05 FTTL  07070IMCT  S0 PTB  00005                    2100 SR        000000000000 FUJITSU TEN (THAILAN18078SU0191191                                                                                                                              *          20171028WMF1710285.TXT
MDEUHO296165201711                D89828070300PT4U20171101000030SPEAKER ASM                   M IMCTM S9TS02 FTTL  07070IMCT  S9 PTB  00015                    2230 SR        000000000000 FUJITSU TEN (THAILAN18078SU0185185                                                                                                                              *          20171028WMF1710285.TXT
MDEUHO296166201711                D89828070300PT4U20171102000030SPEAKER ASM                   M IMCTM S9TS02 FTTL  07070IMCT  S9 PTB  00015                    0400 SR        000000000000 FUJITSU TEN (THAILAN18078SU0186186                                                                                                                              *          20171028WMF1710285.TXT
MDEUHO296167201711                D89828070300PT4U20171102000030SPEAKER ASM                   M IMCTM S9TS02 FTTL  07070IMCT  S9 PTB  00015                    0830 SR        000000000000 FUJITSU TEN (THAILAN18078SU0187187                                                                                                                              *          20171028WMF1710285.TXT
MDEUHO296168201711                D89828070300PT4U20171102000060SPEAKER ASM                   M IMCTM S9TS02 FTTL  07070IMCT  S9 PTB  00015                    1300 SR        000000000000 FUJITSU TEN (THAILAN18023TU020620618078SU0188188                                                                                                                *          20171028WMF1710285.TXT
MDEUHO296169201711                D89828070300PT4U20171102000060SPEAKER ASM                   M IMCTM S9TS02 FTTL  07070IMCT  S9 PTB  00015                    1600 SR        000000000000 FUJITSU TEN (THAILAN18078SU0189190                                                                                                                              *          20171028WMF1710285.TXT
MDEUHO296170201711                D89828070300PT4U20171102000030SPEAKER ASM                   M IMCTM S9TS02 FTTL  07070IMCT  S9 PTB  00015                    2100 SR        000000000000 FUJITSU TEN (THAILAN18078SU0191191                                                                                                                              *          20171028WMF1710285.TXT
