REC2017101820171018ISUZU                              55     
MDDDHO251793201710                D89821984430PT1D20171021000030RADIO;AM/FM,CD                M IMCTM S5NC06 FTTL  07070IMCT  S5 PTB  00005                    2230 SR        000000000000 FUJITSU TEN (THAILAN180LNCL0010010                                                                                                                              *          20171018WMF1710183.TXT
MDDDHO251794201710                D89821984430PT1D20171023000030RADIO;AM/FM,CD                M IMCTM S5NC06 FTTL  07070IMCT  S5 PTB  00005                    1600 SR        000000000000 FUJITSU TEN (THAILAN180LNEL0012012                                                                                                                              *          20171018WMF1710183.TXT
MDDDHO251795201710                D89828070100PV1D20171021000120SPEAKER ASM                   M IMCTM S5MB11 FTTL  07070IMCT  S5 PTB  00004                    2230 SR        000000000000 FUJITSU TEN (THAILAN180LNCL0010010180LPGL0024024                                                                                                                *          20171018WMF1710183.TXT
MDDDHO251796201710                D89828070100PV1D20171022000060SPEAKER ASM                   M IMCTM S5MB11 FTTL  07070IMCT  S5 PTB  00004                    0230 SR        000000000000 FUJITSU TEN (THAILAN180LPKL0010010                                                                                                                              *          20171018WMF1710183.TXT
MDDDHO251797201710                D89828070100PV1D20171022000060SPEAKER ASM                   M IMCTM S5MB11 FTTL  07070IMCT  S5 PTB  00004                    0400 SR        000000000000 FUJITSU TEN (THAILAN180LPCL0008008                                                                                                                              *          20171018WMF1710183.TXT
MDDDHO251798201710                D89828070100PV1D20171023000060SPEAKER ASM                   M IMCTM S5MB11 FTTL  07070IMCT  S5 PTB  00004                    0830 SR        000000000000 FUJITSU TEN (THAILAN180LPGL0025025                                                                                                                              *          20171018WMF1710183.TXT
MDDDHO251799201710                D89828070100PV1D20171023000060SPEAKER ASM                   M IMCTM S5MB11 FTTL  07070IMCT  S5 PTB  00004                    1030 SR        000000000000 FUJITSU TEN (THAILAN180LPML0004004                                                                                                                              *          20171018WMF1710183.TXT
MDDDHO251800201710                D89828070100PV1D20171023000120SPEAKER ASM                   M IMCTM S5MB11 FTTL  07070IMCT  S5 PTB  00004                    1300 SR        000000000000 FUJITSU TEN (THAILAN180LPKL0011011180LPQL0003003                                                                                                                *          20171018WMF1710183.TXT
MDDDHO251801201710                D89828070100PV1D20171023000060SPEAKER ASM                   M IMCTM S5MB11 FTTL  07070IMCT  S5 PTB  00004                    1600 SR        000000000000 FUJITSU TEN (THAILAN180LNEL0012012                                                                                                                              *          20171018WMF1710183.TXT
MDDDHO251802201710                D89828070100PV1D20171023000060SPEAKER ASM                   M IMCTM S5MB11 FTTL  07070IMCT  S5 PTB  00004                    2100 SR        000000000000 FUJITSU TEN (THAILAN180LPCL0009009                                                                                                                              *          20171018WMF1710183.TXT
MDDDHO251803201710                D89828070300PT1D20171021000060SPEAKER ASM                   M IMCTM S5NB082FTTL  07070IMCT  S5 PTB  00015                    2230 SR        000000000000 FUJITSU TEN (THAILAN180LPGL0024024                                                                                                                              *          20171018WMF1710183.TXT
MDDDHO251804201710                D89828070300PT1D20171022000060SPEAKER ASM                   M IMCTM S5NB082FTTL  07070IMCT  S5 PTB  00015                    0230 SR        000000000000 FUJITSU TEN (THAILAN180LPKL0010010                                                                                                                              *          20171018WMF1710183.TXT
MDDDHO251805201710                D89828070300PT1D20171022000060SPEAKER ASM                   M IMCTM S5NB082FTTL  07070IMCT  S5 PTB  00015                    0400 SR        000000000000 FUJITSU TEN (THAILAN180LPCL0008008                                                                                                                              *          20171018WMF1710183.TXT
MDDDHO251806201710                D89828070300PT1D20171023000060SPEAKER ASM                   M IMCTM S5NB082FTTL  07070IMCT  S5 PTB  00015                    0830 SR        000000000000 FUJITSU TEN (THAILAN180LPGL0025025                                                                                                                              *          20171018WMF1710183.TXT
MDDDHO251807201710                D89828070300PT1D20171023000060SPEAKER ASM                   M IMCTM S5NB082FTTL  07070IMCT  S5 PTB  00015                    1030 SR        000000000000 FUJITSU TEN (THAILAN180LPML0004004                                                                                                                              *          20171018WMF1710183.TXT
MDDDHO251808201710                D89828070300PT1D20171023000120SPEAKER ASM                   M IMCTM S5NB082FTTL  07070IMCT  S5 PTB  00015                    1300 SR        000000000000 FUJITSU TEN (THAILAN180LPKL0011011180LPQL0003003                                                                                                                *          20171018WMF1710183.TXT
MDDDHO251809201710                D89828070300PT1D20171023000060SPEAKER ASM                   M IMCTM S5NB082FTTL  07070IMCT  S5 PTB  00015                    2100 SR        000000000000 FUJITSU TEN (THAILAN180LPCL0009009                                                                                                                              *          20171018WMF1710183.TXT
MDDDHO251810201710                D89831228300PT1D20171021000030RADIO;AM/FM,CD                M IMCTM S5NC06 FTTL  07070IMCT  S5 CPB  00003                    2230 SR        000000000000 FUJITSU TEN (THAILAN180LPGL0024024                                                                                                                              *          20171018WMF1710183.TXT
MDDDHO251811201710                D89831228300PT1D20171022000030RADIO;AM/FM,CD                M IMCTM S5NC06 FTTL  07070IMCT  S5 CPB  00003                    0400 SR        000000000000 FUJITSU TEN (THAILAN180LPCL0008008                                                                                                                              *          20171018WMF1710183.TXT
MDDDHO251812201710                D89831228300PT1D20171023000030RADIO;AM/FM,CD                M IMCTM S5NC06 FTTL  07070IMCT  S5 CPB  00003                    0830 SR        000000000000 FUJITSU TEN (THAILAN180LPGL0025025                                                                                                                              *          20171018WMF1710183.TXT
MDDDHO251813201710                D89831228300PT1D20171023000030RADIO;AM/FM,CD                M IMCTM S5NC06 FTTL  07070IMCT  S5 CPB  00003                    2100 SR        000000000000 FUJITSU TEN (THAILAN180LPCL0009009                                                                                                                              *          20171018WMF1710183.TXT
MDDDHO251814201710                D89848581600PT1D20171022000030RADIO;AM/FM CD D              M IMCTM S5NC06 FTTL  07070IMCT  S5 PTB  00003                    0230 SR        000000000000 FUJITSU TEN (THAILAN180LPKL0010010                                                                                                                              *          20171018WMF1710183.TXT
MDDDHO251815201710                D89848581600PT1D20171023000060RADIO;AM/FM CD D              M IMCTM S5NC06 FTTL  07070IMCT  S5 PTB  00003                    1300 SR        000000000000 FUJITSU TEN (THAILAN180LPKL0011011180LPQL0003003                                                                                                                *          20171018WMF1710183.TXT
MDDUHO223119201710                D89828070100PT4U20171023000030SPEAKER ASM                   M IMCTM S0FL05 FTTL  07070IMCT  S0 PTB  00004                    0830 SR        000000000000 FUJITSU TEN (THAILAN180LUKU0015015                                                                                                                              *          20171018WMF1710183.TXT
MDDUHO223120201710                D89828070100PT4U20171023000030SPEAKER ASM                   M IMCTM S0FL05 FTTL  07070IMCT  S0 PTB  00004                    1300 SR        000000000000 FUJITSU TEN (THAILAN180LUJU0007007                                                                                                                              *          20171018WMF1710183.TXT
MDDUHO223121201710                D89828070100PT4U20171023000030SPEAKER ASM                   M IMCTM S0FL05 FTTL  07070IMCT  S0 PTB  00004                    1600 SR        000000000000 FUJITSU TEN (THAILAN180LUFU0055055                                                                                                                              *          20171018WMF1710183.TXT
MDDUHO223122201710                D89828070200PV4U20171023000030SPEAKER ASM                   M IMCTM S0FR05 FTTL  07070IMCT  S0 PTB  00005                    0830 SR        000000000000 FUJITSU TEN (THAILAN180LUKU0015015                                                                                                                              *          20171018WMF1710183.TXT
MDDUHO223123201710                D89828070200PV4U20171023000030SPEAKER ASM                   M IMCTM S0FR05 FTTL  07070IMCT  S0 PTB  00005                    1300 SR        000000000000 FUJITSU TEN (THAILAN180LUJU0007007                                                                                                                              *          20171018WMF1710183.TXT
MDDUHO223124201710                D89828070200PV4U20171023000030SPEAKER ASM                   M IMCTM S0FR05 FTTL  07070IMCT  S0 PTB  00005                    1600 SR        000000000000 FUJITSU TEN (THAILAN180LUFU0055055                                                                                                                              *          20171018WMF1710183.TXT
MDDUHO223125201710                D89828070300PT4U20171023000030SPEAKER ASM                   M IMCTM S9TS02 FTTL  07070IMCT  S9 PTB  00015                    0830 SR        000000000000 FUJITSU TEN (THAILAN180LUKU0015015                                                                                                                              *          20171018WMF1710183.TXT
MDDUHO223126201710                D89828070300PT4U20171023000030SPEAKER ASM                   M IMCTM S9TS02 FTTL  07070IMCT  S9 PTB  00015                    1300 SR        000000000000 FUJITSU TEN (THAILAN180LUJU0007007                                                                                                                              *          20171018WMF1710183.TXT
MDDUHO223127201710                D89828070300PT4U20171023000030SPEAKER ASM                   M IMCTM S9TS02 FTTL  07070IMCT  S9 PTB  00015                    1600 SR        000000000000 FUJITSU TEN (THAILAN180LUFU0055055                                                                                                                              *          20171018WMF1710183.TXT
MDDUHO223128201710                D89848584200PT4U20171023000015RADIO;AM/FM CD D              M IMCTM S9CO001FTTL  07070IMCT  S9 PTB  00003                    1300 SR        000000000000 FUJITSU TEN (THAILAN180LUJU0007007                                                                                                                              *          20171018WMF1710183.TXT
MDEDHO258826201710                D89828070100PV1D20171022000030SPEAKER ASM                   M IMCTM S5MB11 FTTL  07070IMCT  S5 PTB  00004                    0400 SR        000000000000 FUJITSU TEN (THAILAN17023NL0020020                                                                                                                              *          20171018WMF1710183.TXT
MDEDHO258827201710                D89828070100PV1D20171023000030SPEAKER ASM                   M IMCTM S5MB11 FTTL  07070IMCT  S5 PTB  00004                    0830 SR        000000000000 FUJITSU TEN (THAILAN17023NL0021021                                                                                                                              *          20171018WMF1710183.TXT
MDEDHO258828201710                D89828070200PV1D20171022000030SPEAKER ASM                   M IMCTM S5MA14 FTTL  07070IMCT  S5 PTB  00005                    0400 SR        000000000000 FUJITSU TEN (THAILAN17023NL0020020                                                                                                                              *          20171018WMF1710183.TXT
MDEDHO258829201710                D89828070200PV1D20171023000030SPEAKER ASM                   M IMCTM S5MA14 FTTL  07070IMCT  S5 PTB  00005                    0830 SR        000000000000 FUJITSU TEN (THAILAN17023NL0021021                                                                                                                              *          20171018WMF1710183.TXT
MDEDHO258830201710                D89828070300PT1D20171022000030SPEAKER ASM                   M IMCTM S5NB082FTTL  07070IMCT  S5 PTB  00015                    0400 SR        000000000000 FUJITSU TEN (THAILAN17023NL0020020                                                                                                                              *          20171018WMF1710183.TXT
MDEDHO258831201710                D89828070300PT1D20171023000030SPEAKER ASM                   M IMCTM S5NB082FTTL  07070IMCT  S5 PTB  00015                    0830 SR        000000000000 FUJITSU TEN (THAILAN17023NL0021021                                                                                                                              *          20171018WMF1710183.TXT
MDEUHO259475201710                D89828070100PT4U20171021000060SPEAKER ASM                   M IMCTM S0FL05 FTTL  07070IMCT  S0 PTB  00004                    2230 SR        000000000000 FUJITSU TEN (THAILAN18016TU002602618078SU0151151                                                                                                                *          20171018WMF1710183.TXT
MDEUHO259476201710                D89828070100PT4U20171022000060SPEAKER ASM                   M IMCTM S0FL05 FTTL  07070IMCT  S0 PTB  00004                    0400 SR        000000000000 FUJITSU TEN (THAILAN18023TU019819818078SU0152152                                                                                                                *          20171018WMF1710183.TXT
MDEUHO259477201710                D89828070100PT4U20171023000030SPEAKER ASM                   M IMCTM S0FL05 FTTL  07070IMCT  S0 PTB  00004                    1030 SR        000000000000 FUJITSU TEN (THAILAN18078SU0153153                                                                                                                              *          20171018WMF1710183.TXT
MDEUHO259478201710                D89828070100PT4U20171023000030SPEAKER ASM                   M IMCTM S0FL05 FTTL  07070IMCT  S0 PTB  00004                    1300 SR        000000000000 FUJITSU TEN (THAILAN18017TU0037037                                                                                                                              *          20171018WMF1710183.TXT
MDEUHO259479201710                D89828070100PT4U20171023000030SPEAKER ASM                   M IMCTM S0FL05 FTTL  07070IMCT  S0 PTB  00004                    2100 SR        000000000000 FUJITSU TEN (THAILAN18078SU0154154                                                                                                                              *          20171018WMF1710183.TXT
MDEUHO259480201710                D89828070200PV4U20171021000060SPEAKER ASM                   M IMCTM S0FR05 FTTL  07070IMCT  S0 PTB  00005                    2230 SR        000000000000 FUJITSU TEN (THAILAN18016TU002602618078SU0151151                                                                                                                *          20171018WMF1710183.TXT
MDEUHO259481201710                D89828070200PV4U20171022000060SPEAKER ASM                   M IMCTM S0FR05 FTTL  07070IMCT  S0 PTB  00005                    0400 SR        000000000000 FUJITSU TEN (THAILAN18023TU019819818078SU0152152                                                                                                                *          20171018WMF1710183.TXT
MDEUHO259482201710                D89828070200PV4U20171023000030SPEAKER ASM                   M IMCTM S0FR05 FTTL  07070IMCT  S0 PTB  00005                    1030 SR        000000000000 FUJITSU TEN (THAILAN18078SU0153153                                                                                                                              *          20171018WMF1710183.TXT
MDEUHO259483201710                D89828070200PV4U20171023000030SPEAKER ASM                   M IMCTM S0FR05 FTTL  07070IMCT  S0 PTB  00005                    1300 SR        000000000000 FUJITSU TEN (THAILAN18017TU0037037                                                                                                                              *          20171018WMF1710183.TXT
MDEUHO259484201710                D89828070200PV4U20171023000030SPEAKER ASM                   M IMCTM S0FR05 FTTL  07070IMCT  S0 PTB  00005                    2100 SR        000000000000 FUJITSU TEN (THAILAN18078SU0154154                                                                                                                              *          20171018WMF1710183.TXT
MDEUHO259485201710                D89828070300PT4U20171021000060SPEAKER ASM                   M IMCTM S9TS02 FTTL  07070IMCT  S9 PTB  00015                    2230 SR        000000000000 FUJITSU TEN (THAILAN18016TU002602618078SU0151151                                                                                                                *          20171018WMF1710183.TXT
MDEUHO259486201710                D89828070300PT4U20171022000060SPEAKER ASM                   M IMCTM S9TS02 FTTL  07070IMCT  S9 PTB  00015                    0400 SR        000000000000 FUJITSU TEN (THAILAN18023TU019819818078SU0152152                                                                                                                *          20171018WMF1710183.TXT
MDEUHO259487201710                D89828070300PT4U20171023000030SPEAKER ASM                   M IMCTM S9TS02 FTTL  07070IMCT  S9 PTB  00015                    1030 SR        000000000000 FUJITSU TEN (THAILAN18078SU0153153                                                                                                                              *          20171018WMF1710183.TXT
MDEUHO259488201710                D89828070300PT4U20171023000030SPEAKER ASM                   M IMCTM S9TS02 FTTL  07070IMCT  S9 PTB  00015                    1300 SR        000000000000 FUJITSU TEN (THAILAN18017TU0037037                                                                                                                              *          20171018WMF1710183.TXT
MDEUHO259489201710                D89828070300PT4U20171023000030SPEAKER ASM                   M IMCTM S9TS02 FTTL  07070IMCT  S9 PTB  00015                    2100 SR        000000000000 FUJITSU TEN (THAILAN18078SU0154154                                                                                                                              *          20171018WMF1710183.TXT
MDEUHO259490201710                D89848584700PT4U20171021000015RADIO;AM/FM CD D              M IMCTM S9CO001FTTL  07070IMCT  S9 PTB  00003                    2230 SR        000000000000 FUJITSU TEN (THAILAN18016TU0026026                                                                                                                              *          20171018WMF1710183.TXT
