REC2017100320171003ISUZU                              55     
MDDDHO203511201710                D89821984430PT1D20171006000030RADIO;AM/FM,CD                M IMCTM S5NC06 FTTL  07070IMCT  S5 PTB  00005                    2230 SR        000000000000 FUJITSU TEN (THAILAN180LNHL0002002                                                                                                                              *          20171003WMF1710034.TXT
MDDDHO203512201710                D89821984430PT1D20171007000030RADIO;AM/FM,CD                M IMCTM S5NC06 FTTL  07070IMCT  S5 PTB  00005                    0400 SR        000000000000 FUJITSU TEN (THAILAN180LNGL0004004                                                                                                                              *          20171003WMF1710034.TXT
MDDDHO203513201710                D89821984430PT1D20171007000030RADIO;AM/FM,CD                M IMCTM S5NC06 FTTL  07070IMCT  S5 PTB  00005                    2100 SR        000000000000 FUJITSU TEN (THAILAN180LPAL0001001                                                                                                                              *          20171003WMF1710034.TXT
MDDDHO203514201710                D89828070100PV1D20171006000060SPEAKER ASM                   M IMCTM S5MB11 FTTL  07070IMCT  S5 PTB  00004                    2230 SR        000000000000 FUJITSU TEN (THAILAN180LNHL0002002                                                                                                                              *          20171003WMF1710034.TXT
MDDDHO203515201710                D89828070100PV1D20171007000060SPEAKER ASM                   M IMCTM S5MB11 FTTL  07070IMCT  S5 PTB  00004                    0400 SR        000000000000 FUJITSU TEN (THAILAN180LNGL0004004                                                                                                                              *          20171003WMF1710034.TXT
MDDDHO203516201710                D89828070100PV1D20171007000060SPEAKER ASM                   M IMCTM S5MB11 FTTL  07070IMCT  S5 PTB  00004                    1030 SR        000000000000 FUJITSU TEN (THAILAN180LNAL0003003                                                                                                                              *          20171003WMF1710034.TXT
MDDDHO203517201710                D89828070100PV1D20171007000060SPEAKER ASM                   M IMCTM S5MB11 FTTL  07070IMCT  S5 PTB  00004                    1300 SR        000000000000 FUJITSU TEN (THAILAN180LNBL0002002                                                                                                                              *          20171003WMF1710034.TXT
MDDDHO203518201710                D89828070100PV1D20171007000060SPEAKER ASM                   M IMCTM S5MB11 FTTL  07070IMCT  S5 PTB  00004                    2100 SR        000000000000 FUJITSU TEN (THAILAN180LPAL0001001                                                                                                                              *          20171003WMF1710034.TXT
MDDUHO201987201710                D89828070100PT4U20171007000030SPEAKER ASM                   M IMCTM S0FL05 FTTL  07070IMCT  S0 PTB  00004                    0230 SR        000000000000 FUJITSU TEN (THAILAN180LUEU0188188                                                                                                                              *          20171003WMF1710034.TXT
MDDUHO201988201710                D89828070100PT4U20171007000030SPEAKER ASM                   M IMCTM S0FL05 FTTL  07070IMCT  S0 PTB  00004                    1030 SR        000000000000 FUJITSU TEN (THAILAN180LUEU0189189                                                                                                                              *          20171003WMF1710034.TXT
MDDUHO201989201710                D89828070200PV4U20171007000030SPEAKER ASM                   M IMCTM S0FR05 FTTL  07070IMCT  S0 PTB  00005                    0230 SR        000000000000 FUJITSU TEN (THAILAN180LUEU0188188                                                                                                                              *          20171003WMF1710034.TXT
MDDUHO201990201710                D89828070200PV4U20171007000030SPEAKER ASM                   M IMCTM S0FR05 FTTL  07070IMCT  S0 PTB  00005                    1030 SR        000000000000 FUJITSU TEN (THAILAN180LUEU0189189                                                                                                                              *          20171003WMF1710034.TXT
MDDUHO201991201710                D89828070300PT4U20171007000030SPEAKER ASM                   M IMCTM S9TS02 FTTL  07070IMCT  S9 PTB  00015                    0230 SR        000000000000 FUJITSU TEN (THAILAN180LUEU0188188                                                                                                                              *          20171003WMF1710034.TXT
MDDUHO201992201710                D89828070300PT4U20171007000030SPEAKER ASM                   M IMCTM S9TS02 FTTL  07070IMCT  S9 PTB  00015                    1030 SR        000000000000 FUJITSU TEN (THAILAN180LUEU0189189                                                                                                                              *          20171003WMF1710034.TXT
MDEDHO207451201710                D89828070100PV1D20171006000060SPEAKER ASM                   M IMCTM S5MB11 FTTL  07070IMCT  S5 PTB  00004                    2230 SR        000000000000 FUJITSU TEN (THAILAN17060NL0037038                                                                                                                              *          20171003WMF1710034.TXT
MDEDHO207452201710                D89828070100PV1D20171007000060SPEAKER ASM                   M IMCTM S5MB11 FTTL  07070IMCT  S5 PTB  00004                    0230 SR        000000000000 FUJITSU TEN (THAILAN17055NL006206217057NL0045045                                                                                                                *          20171003WMF1710034.TXT
MDEDHO207453201710                D89828070100PV1D20171007000060SPEAKER ASM                   M IMCTM S5MB11 FTTL  07070IMCT  S5 PTB  00004                    0400 SR        000000000000 FUJITSU TEN (THAILAN17057ML001201217058NL0040040                                                                                                                *          20171003WMF1710034.TXT
MDEDHO207454201710                D89828070100PV1D20171007000060SPEAKER ASM                   M IMCTM S5MB11 FTTL  07070IMCT  S5 PTB  00004                    0830 SR        000000000000 FUJITSU TEN (THAILAN17068NL002702717074NL0074074                                                                                                                *          20171003WMF1710034.TXT
MDEDHO207455201710                D89828070100PV1D20171007000060SPEAKER ASM                   M IMCTM S5MB11 FTTL  07070IMCT  S5 PTB  00004                    1300 SR        000000000000 FUJITSU TEN (THAILAN17080NL0108109                                                                                                                              *          20171003WMF1710034.TXT
MDEDHO207456201710                D89828070100PV1D20171007000090SPEAKER ASM                   M IMCTM S5MB11 FTTL  07070IMCT  S5 PTB  00004                    1600 SR        000000000000 FUJITSU TEN (THAILAN17055NL006306317063NL003003017069WL0003003                                                                                                  *          20171003WMF1710034.TXT
MDEDHO207457201710                D89828070100PV4D20171007000030SPEAKER ASM                   M IMCTM S0FL05 FTTL  07070IMCT  S0 PTB  00004                    2100 SR        000000000000 FUJITSU TEN (THAILAN17079NU0059059                                                                                                                              *          20171003WMF1710034.TXT
MDEDHO207458201710                D89828070200PV1D20171006000060SPEAKER ASM                   M IMCTM S5MA14 FTTL  07070IMCT  S5 PTB  00005                    2230 SR        000000000000 FUJITSU TEN (THAILAN17060NL0037038                                                                                                                              *          20171003WMF1710034.TXT
MDEDHO207459201710                D89828070200PV1D20171007000030SPEAKER ASM                   M IMCTM S5MA14 FTTL  07070IMCT  S5 PTB  00005                    0230 SR        000000000000 FUJITSU TEN (THAILAN17057NL0045045                                                                                                                              *          20171003WMF1710034.TXT
MDEDHO207460201710                D89828070200PV1D20171007000030SPEAKER ASM                   M IMCTM S5MA14 FTTL  07070IMCT  S5 PTB  00005                    0400 SR        000000000000 FUJITSU TEN (THAILAN17058NL0040040                                                                                                                              *          20171003WMF1710034.TXT
MDEDHO207461201710                D89828070200PV1D20171007000030SPEAKER ASM                   M IMCTM S5MA14 FTTL  07070IMCT  S5 PTB  00005                    0830 SR        000000000000 FUJITSU TEN (THAILAN17074NL0074074                                                                                                                              *          20171003WMF1710034.TXT
MDEDHO207462201710                D89828070200PV1D20171007000060SPEAKER ASM                   M IMCTM S5MA14 FTTL  07070IMCT  S5 PTB  00005                    1300 SR        000000000000 FUJITSU TEN (THAILAN17080NL0108109                                                                                                                              *          20171003WMF1710034.TXT
MDEDHO207463201710                D89828070200PV1D20171007000030SPEAKER ASM                   M IMCTM S5MA14 FTTL  07070IMCT  S5 PTB  00005                    1600 SR        000000000000 FUJITSU TEN (THAILAN17069WL0003003                                                                                                                              *          20171003WMF1710034.TXT
MDEDHO207464201710                D89828070200PV4D20171007000030SPEAKER ASM                   M IMCTM S0FR05 FTTL  07070IMCT  S0 PTB  00005                    2100 SR        000000000000 FUJITSU TEN (THAILAN17079NU0059059                                                                                                                              *          20171003WMF1710034.TXT
MDEDHO207465201710                D89828070300PT1D20171006000060SPEAKER ASM                   M IMCTM S5NB082FTTL  07070IMCT  S5 PTB  00015                    2230 SR        000000000000 FUJITSU TEN (THAILAN17060NL0037038                                                                                                                              *          20171003WMF1710034.TXT
MDEDHO207466201710                D89828070300PT1D20171007000060SPEAKER ASM                   M IMCTM S5NB082FTTL  07070IMCT  S5 PTB  00015                    0230 SR        000000000000 FUJITSU TEN (THAILAN17055NL006206217057NL0045045                                                                                                                *          20171003WMF1710034.TXT
MDEDHO207467201710                D89828070300PT1D20171007000060SPEAKER ASM                   M IMCTM S5NB082FTTL  07070IMCT  S5 PTB  00015                    0400 SR        000000000000 FUJITSU TEN (THAILAN17057ML001201217058NL0040040                                                                                                                *          20171003WMF1710034.TXT
MDEDHO207468201710                D89828070300PT1D20171007000060SPEAKER ASM                   M IMCTM S5NB082FTTL  07070IMCT  S5 PTB  00015                    0830 SR        000000000000 FUJITSU TEN (THAILAN17068NL002702717074NL0074074                                                                                                                *          20171003WMF1710034.TXT
MDEDHO207469201710                D89828070300PT1D20171007000060SPEAKER ASM                   M IMCTM S5NB082FTTL  07070IMCT  S5 PTB  00015                    1300 SR        000000000000 FUJITSU TEN (THAILAN17080NL0108109                                                                                                                              *          20171003WMF1710034.TXT
MDEDHO207470201710                D89828070300PT1D20171007000090SPEAKER ASM                   M IMCTM S5NB082FTTL  07070IMCT  S5 PTB  00015                    1600 SR        000000000000 FUJITSU TEN (THAILAN17055NL006306317063NL003003017069WL0003003                                                                                                  *          20171003WMF1710034.TXT
MDEDHO207471201710                D89828070300PT4D20171007000030SPEAKER ASM                   M IMCTM S9TS02 FTTL  07070IMCT  S9 PTB  00015                    2100 SR        000000000000 FUJITSU TEN (THAILAN17079NU0059059                                                                                                                              *          20171003WMF1710034.TXT
MDEDHO207472201710                D89848581800PT1D20171007000030RADIO;AM/FM CD D              M IMCTM S5NC06 FTTL  07070IMCT  S5 PTB  00003                    0230 SR        000000000000 FUJITSU TEN (THAILAN17055NL006206217057NL0045045                                                                                                                *          20171003WMF1710034.TXT
MDEDHO207473201710                D89848581800PT1D20171007000015RADIO;AM/FM CD D              M IMCTM S5NC06 FTTL  07070IMCT  S5 PTB  00003                    0400 SR        000000000000 FUJITSU TEN (THAILAN17058NL0040040                                                                                                                              *          20171003WMF1710034.TXT
MDEDHO207474201710                D89848581800PT1D20171007000015RADIO;AM/FM CD D              M IMCTM S5NC06 FTTL  07070IMCT  S5 PTB  00003                    0830 SR        000000000000 FUJITSU TEN (THAILAN17074NL0074074                                                                                                                              *          20171003WMF1710034.TXT
MDEDHO207475201710                D89848581800PT1D20171007000030RADIO;AM/FM CD D              M IMCTM S5NC06 FTTL  07070IMCT  S5 PTB  00003                    1600 SR        000000000000 FUJITSU TEN (THAILAN17055NL006306317063NL0030030                                                                                                                *          20171003WMF1710034.TXT
MDEDHO207476201710                D89848581800PT4D20171007000015RADIO;AM/FM CD D              M IMCTM S9CO001FTTL  07070IMCT  S9 PTB  00003                    2100 SR        000000000000 FUJITSU TEN (THAILAN17079NU0059059                                                                                                                              *          20171003WMF1710034.TXT
MDEUHO205124201710                D89828070100PT4U20171006000030SPEAKER ASM                   M IMCTM S0FL05 FTTL  07070IMCT  S0 PTB  00004                    2230 SR        000000000000 FUJITSU TEN (THAILAN18078SU0130130                                                                                                                              *          20171003WMF1710034.TXT
MDEUHO205125201710                D89828070100PT4U20171007000060SPEAKER ASM                   M IMCTM S0FL05 FTTL  07070IMCT  S0 PTB  00004                    0400 SR        000000000000 FUJITSU TEN (THAILAN18078SU0131132                                                                                                                              *          20171003WMF1710034.TXT
MDEUHO205126201710                D89828070100PT4U20171007000030SPEAKER ASM                   M IMCTM S0FL05 FTTL  07070IMCT  S0 PTB  00004                    0830 SR        000000000000 FUJITSU TEN (THAILAN18078SU0133133                                                                                                                              *          20171003WMF1710034.TXT
MDEUHO205127201710                D89828070100PT4U20171007000030SPEAKER ASM                   M IMCTM S0FL05 FTTL  07070IMCT  S0 PTB  00004                    1300 SR        000000000000 FUJITSU TEN (THAILAN18023TU0185185                                                                                                                              *          20171003WMF1710034.TXT
MDEUHO205128201710                D89828070100PT4U20171007000060SPEAKER ASM                   M IMCTM S0FL05 FTTL  07070IMCT  S0 PTB  00004                    1600 SR        000000000000 FUJITSU TEN (THAILAN18023TU018618618078SU0134134                                                                                                                *          20171003WMF1710034.TXT
MDEUHO205129201710                D89828070200PV4U20171006000030SPEAKER ASM                   M IMCTM S0FR05 FTTL  07070IMCT  S0 PTB  00005                    2230 SR        000000000000 FUJITSU TEN (THAILAN18078SU0130130                                                                                                                              *          20171003WMF1710034.TXT
MDEUHO205130201710                D89828070200PV4U20171007000060SPEAKER ASM                   M IMCTM S0FR05 FTTL  07070IMCT  S0 PTB  00005                    0400 SR        000000000000 FUJITSU TEN (THAILAN18078SU0131132                                                                                                                              *          20171003WMF1710034.TXT
MDEUHO205131201710                D89828070200PV4U20171007000030SPEAKER ASM                   M IMCTM S0FR05 FTTL  07070IMCT  S0 PTB  00005                    0830 SR        000000000000 FUJITSU TEN (THAILAN18078SU0133133                                                                                                                              *          20171003WMF1710034.TXT
MDEUHO205132201710                D89828070200PV4U20171007000030SPEAKER ASM                   M IMCTM S0FR05 FTTL  07070IMCT  S0 PTB  00005                    1300 SR        000000000000 FUJITSU TEN (THAILAN18023TU0185185                                                                                                                              *          20171003WMF1710034.TXT
MDEUHO205133201710                D89828070200PV4U20171007000060SPEAKER ASM                   M IMCTM S0FR05 FTTL  07070IMCT  S0 PTB  00005                    1600 SR        000000000000 FUJITSU TEN (THAILAN18023TU018618618078SU0134134                                                                                                                *          20171003WMF1710034.TXT
MDEUHO205134201710                D89828070300PT4U20171006000030SPEAKER ASM                   M IMCTM S9TS02 FTTL  07070IMCT  S9 PTB  00015                    2230 SR        000000000000 FUJITSU TEN (THAILAN18078SU0130130                                                                                                                              *          20171003WMF1710034.TXT
MDEUHO205135201710                D89828070300PT4U20171007000060SPEAKER ASM                   M IMCTM S9TS02 FTTL  07070IMCT  S9 PTB  00015                    0400 SR        000000000000 FUJITSU TEN (THAILAN18078SU0131132                                                                                                                              *          20171003WMF1710034.TXT
MDEUHO205136201710                D89828070300PT4U20171007000030SPEAKER ASM                   M IMCTM S9TS02 FTTL  07070IMCT  S9 PTB  00015                    0830 SR        000000000000 FUJITSU TEN (THAILAN18078SU0133133                                                                                                                              *          20171003WMF1710034.TXT
MDEUHO205137201710                D89828070300PT4U20171007000030SPEAKER ASM                   M IMCTM S9TS02 FTTL  07070IMCT  S9 PTB  00015                    1300 SR        000000000000 FUJITSU TEN (THAILAN18023TU0185185                                                                                                                              *          20171003WMF1710034.TXT
MDEUHO205138201710                D89828070300PT4U20171007000060SPEAKER ASM                   M IMCTM S9TS02 FTTL  07070IMCT  S9 PTB  00015                    1600 SR        000000000000 FUJITSU TEN (THAILAN18023TU018618618078SU0134134                                                                                                                *          20171003WMF1710034.TXT
