REC2017101820171018ISUZU                              26     
MDD6HO255140201710                D89828070100PV5620171021000120SPEAKER ASM                   M IMCTM G9B112 FTTL  07070G/WAY G9 PTB  00004                    2100 GW        0000000000005FUJITSU TEN (THAILAN180LRHG0020021                                                                                                                              *          20171018WMF1710182.TXT
MDD6HO255141201710                D89828070100PV5620171021000060SPEAKER ASM                   M IMCTM G9B112 FTTL  07070G/WAY G9 PTB  00004                    2300 GW        0000000000005FUJITSU TEN (THAILAN180LRHG0022022                                                                                                                              *          20171018WMF1710182.TXT
MDD6HO255142201710                D89828070100PV5620171022000060SPEAKER ASM                   M IMCTM G9B112 FTTL  07070G/WAY G9 PTB  00004                    0200 GW        0000000000005FUJITSU TEN (THAILAN180LRGG0005005                                                                                                                              *          20171018WMF1710182.TXT
MDD6HO255143201710                D89828070100PV5620171022000120SPEAKER ASM                   M IMCTM G9B112 FTTL  07070G/WAY G9 PTB  00004                    0330 GW        0000000000005FUJITSU TEN (THAILAN180LPKG0008008180LRMG0009009                                                                                                                *          20171018WMF1710182.TXT
MDD6HO255144201710                D89828070100PV5620171023000060SPEAKER ASM                   M IMCTM G9B112 FTTL  07070G/WAY G9 PTB  00004                    0900 GW        0000000000005FUJITSU TEN (THAILAN180LRHG0023023                                                                                                                              *          20171018WMF1710182.TXT
MDD6HO255145201710                D89828070100PV5620171023000060SPEAKER ASM                   M IMCTM G9B112 FTTL  07070G/WAY G9 PTB  00004                    1100 GW        0000000000005FUJITSU TEN (THAILAN180LRLG0013013                                                                                                                              *          20171018WMF1710182.TXT
MDD6HO255146201710                D89828070100PV5620171023000060SPEAKER ASM                   M IMCTM G9B112 FTTL  07070G/WAY G9 PTB  00004                    1400 GW        0000000000005FUJITSU TEN (THAILAN180LRLG0014014                                                                                                                              *          20171018WMF1710182.TXT
MDD6HO255147201710                D89828070200PV5620171021000120SPEAKER ASM                   M IMCTM G9F132 FTTL  07070G/WAY G9 PTB  00005                    2100 GW        0000000000005FUJITSU TEN (THAILAN180LRHG0020021                                                                                                                              *          20171018WMF1710182.TXT
MDD6HO255148201710                D89828070200PV5620171021000060SPEAKER ASM                   M IMCTM G9F132 FTTL  07070G/WAY G9 PTB  00005                    2300 GW        0000000000005FUJITSU TEN (THAILAN180LRHG0022022                                                                                                                              *          20171018WMF1710182.TXT
MDD6HO255149201710                D89828070200PV5620171022000060SPEAKER ASM                   M IMCTM G9F132 FTTL  07070G/WAY G9 PTB  00005                    0200 GW        0000000000005FUJITSU TEN (THAILAN180LRGG0005005                                                                                                                              *          20171018WMF1710182.TXT
MDD6HO255150201710                D89828070200PV5620171022000060SPEAKER ASM                   M IMCTM G9F132 FTTL  07070G/WAY G9 PTB  00005                    0330 GW        0000000000005FUJITSU TEN (THAILAN180LRMG0009009                                                                                                                              *          20171018WMF1710182.TXT
MDD6HO255151201710                D89828070200PV5620171023000060SPEAKER ASM                   M IMCTM G9F132 FTTL  07070G/WAY G9 PTB  00005                    0900 GW        0000000000005FUJITSU TEN (THAILAN180LRHG0023023                                                                                                                              *          20171018WMF1710182.TXT
MDD6HO255152201710                D89828070200PV5620171023000060SPEAKER ASM                   M IMCTM G9F132 FTTL  07070G/WAY G9 PTB  00005                    1100 GW        0000000000005FUJITSU TEN (THAILAN180LRLG0013013                                                                                                                              *          20171018WMF1710182.TXT
MDD6HO255153201710                D89828070200PV5620171023000060SPEAKER ASM                   M IMCTM G9F132 FTTL  07070G/WAY G9 PTB  00005                    1400 GW        0000000000005FUJITSU TEN (THAILAN180LRLG0014014                                                                                                                              *          20171018WMF1710182.TXT
MDD6HO255154201710                D89828070300PT5620171021000120SPEAKER ASM                   M IMCTM G9JB34 FTTL  07070G/WAY G9 PTB  00015                    2100 GW        0000000000005FUJITSU TEN (THAILAN180LRHG0020021                                                                                                                              *          20171018WMF1710182.TXT
MDD6HO255155201710                D89828070300PT5620171021000060SPEAKER ASM                   M IMCTM G9JB34 FTTL  07070G/WAY G9 PTB  00015                    2300 GW        0000000000005FUJITSU TEN (THAILAN180LRHG0022022                                                                                                                              *          20171018WMF1710182.TXT
MDD6HO255156201710                D89828070300PT5620171022000060SPEAKER ASM                   M IMCTM G9JB34 FTTL  07070G/WAY G9 PTB  00015                    0200 GW        0000000000005FUJITSU TEN (THAILAN180LRGG0005005                                                                                                                              *          20171018WMF1710182.TXT
MDD6HO255157201710                D89828070300PT5620171022000120SPEAKER ASM                   M IMCTM G9JB34 FTTL  07070G/WAY G9 PTB  00015                    0330 GW        0000000000005FUJITSU TEN (THAILAN180LPKG0008008180LRMG0009009                                                                                                                *          20171018WMF1710182.TXT
MDD6HO255158201710                D89828070300PT5620171023000060SPEAKER ASM                   M IMCTM G9JB34 FTTL  07070G/WAY G9 PTB  00015                    0900 GW        0000000000005FUJITSU TEN (THAILAN180LRHG0023023                                                                                                                              *          20171018WMF1710182.TXT
MDD6HO255159201710                D89828070300PT5620171023000060SPEAKER ASM                   M IMCTM G9JB34 FTTL  07070G/WAY G9 PTB  00015                    1100 GW        0000000000005FUJITSU TEN (THAILAN180LRLG0013013                                                                                                                              *          20171018WMF1710182.TXT
MDD6HO255160201710                D89828070300PT5620171023000060SPEAKER ASM                   M IMCTM G9JB34 FTTL  07070G/WAY G9 PTB  00015                    1400 GW        0000000000005FUJITSU TEN (THAILAN180LRLG0014014                                                                                                                              *          20171018WMF1710182.TXT
MDD6HO255161201710                D89831228400PT5620171022000030RADIO;AM/FM,CD                M IMCTM G9J311 FTTL  07070G/WAY G9 CPB  00003                    0200 GW        0000000000005FUJITSU TEN (THAILAN180LRGG0005005                                                                                                                              *          20171018WMF1710182.TXT
MDD6HO255162201710                D89848581500PT5620171021000060RADIO;AM/FM CD D              M IMCTM G9J213 FTTL  07070G/WAY G9 PTB  00003                    2100 GW        0000000000005FUJITSU TEN (THAILAN180LRHG0020021                                                                                                                              *          20171018WMF1710182.TXT
MDD6HO255163201710                D89848581500PT5620171021000030RADIO;AM/FM CD D              M IMCTM G9J213 FTTL  07070G/WAY G9 PTB  00003                    2300 GW        0000000000005FUJITSU TEN (THAILAN180LRHG0022022                                                                                                                              *          20171018WMF1710182.TXT
MDD6HO255164201710                D89848581500PT5620171023000030RADIO;AM/FM CD D              M IMCTM G9J213 FTTL  07070G/WAY G9 PTB  00003                    0900 GW        0000000000005FUJITSU TEN (THAILAN180LRHG0023023                                                                                                                              *          20171018WMF1710182.TXT
MDD6HO255165201710                D89848581600PT5620171022000030RADIO;AM/FM CD D              M IMCTM G9J213 FTTL  07070G/WAY G9 PTB  00003                    0330 GW        0000000000005FUJITSU TEN (THAILAN180LPKG0008008                                                                                                                              *          20171018WMF1710182.TXT
