REC2017102720171027ISUZU                              47     
MDDDHO293557201711                D89828070100PV1D20171031000060SPEAKER ASM                   M IMCTM S5MB11 FTTL  07070IMCT  S5 PTB  00004                    2230 SR        000000000000 FUJITSU TEN (THAILAN180LPGL0049049                                                                                                                              *          20171027WMF1710275.TXT
MDDDHO293558201711                D89828070100PV1D20171101000060SPEAKER ASM                   M IMCTM S5MB11 FTTL  07070IMCT  S5 PTB  00004                    0230 SR        000000000000 FUJITSU TEN (THAILAN180LPGL0050050                                                                                                                              *          20171027WMF1710275.TXT
MDDDHO293559201711                D89828070100PV1D20171101000060SPEAKER ASM                   M IMCTM S5MB11 FTTL  07070IMCT  S5 PTB  00004                    0830 SR        000000000000 FUJITSU TEN (THAILAN180LPGL0051051                                                                                                                              *          20171027WMF1710275.TXT
MDDDHO293560201711                D89828070100PV1D20171101000120SPEAKER ASM                   M IMCTM S5MB11 FTTL  07070IMCT  S5 PTB  00004                    1030 SR        000000000000 FUJITSU TEN (THAILAN180LPCL0019019180LPGL0052052                                                                                                                *          20171027WMF1710275.TXT
MDDDHO293561201711                D89828070100PV1D20171101000060SPEAKER ASM                   M IMCTM S5MB11 FTTL  07070IMCT  S5 PTB  00004                    1300 SR        000000000000 FUJITSU TEN (THAILAN180LPGL0053053                                                                                                                              *          20171027WMF1710275.TXT
MDDDHO293562201711                D89828070100PV1D20171101000060SPEAKER ASM                   M IMCTM S5MB11 FTTL  07070IMCT  S5 PTB  00004                    1600 SR        000000000000 FUJITSU TEN (THAILAN180LPGL0054054                                                                                                                              *          20171027WMF1710275.TXT
MDDDHO293563201711                D89828070100PV1D20171101000060SPEAKER ASM                   M IMCTM S5MB11 FTTL  07070IMCT  S5 PTB  00004                    2100 SR        000000000000 FUJITSU TEN (THAILAN180LPGL0055055                                                                                                                              *          20171027WMF1710275.TXT
MDDDHO293564201711                D89828070100PV4D20171031000060SPEAKER ASM                   M IMCTM S0FL05 FTTL  07070IMCT  S0 PTB  00004                    2230 SR        000000000000 FUJITSU TEN (THAILAN180LRSU0009009                                                                                                                              *          20171027WMF1710275.TXT
MDDDHO293565201711                D89828070200PV4D20171031000060SPEAKER ASM                   M IMCTM S0FR05 FTTL  07070IMCT  S0 PTB  00005                    2230 SR        000000000000 FUJITSU TEN (THAILAN180LRSU0009009                                                                                                                              *          20171027WMF1710275.TXT
MDDDHO293566201711                D89828070300PT1D20171031000060SPEAKER ASM                   M IMCTM S5NB082FTTL  07070IMCT  S5 PTB  00015                    2230 SR        000000000000 FUJITSU TEN (THAILAN180LPGL0049049                                                                                                                              *          20171027WMF1710275.TXT
MDDDHO293567201711                D89828070300PT1D20171101000060SPEAKER ASM                   M IMCTM S5NB082FTTL  07070IMCT  S5 PTB  00015                    0230 SR        000000000000 FUJITSU TEN (THAILAN180LPGL0050050                                                                                                                              *          20171027WMF1710275.TXT
MDDDHO293568201711                D89828070300PT1D20171101000060SPEAKER ASM                   M IMCTM S5NB082FTTL  07070IMCT  S5 PTB  00015                    0830 SR        000000000000 FUJITSU TEN (THAILAN180LPGL0051051                                                                                                                              *          20171027WMF1710275.TXT
MDDDHO293569201711                D89828070300PT1D20171101000120SPEAKER ASM                   M IMCTM S5NB082FTTL  07070IMCT  S5 PTB  00015                    1030 SR        000000000000 FUJITSU TEN (THAILAN180LPCL0019019180LPGL0052052                                                                                                                *          20171027WMF1710275.TXT
MDDDHO293570201711                D89828070300PT1D20171101000060SPEAKER ASM                   M IMCTM S5NB082FTTL  07070IMCT  S5 PTB  00015                    1300 SR        000000000000 FUJITSU TEN (THAILAN180LPGL0053053                                                                                                                              *          20171027WMF1710275.TXT
MDDDHO293571201711                D89828070300PT1D20171101000060SPEAKER ASM                   M IMCTM S5NB082FTTL  07070IMCT  S5 PTB  00015                    1600 SR        000000000000 FUJITSU TEN (THAILAN180LPGL0054054                                                                                                                              *          20171027WMF1710275.TXT
MDDDHO293572201711                D89828070300PT1D20171101000060SPEAKER ASM                   M IMCTM S5NB082FTTL  07070IMCT  S5 PTB  00015                    2100 SR        000000000000 FUJITSU TEN (THAILAN180LPGL0055055                                                                                                                              *          20171027WMF1710275.TXT
MDDDHO293573201711                D89828070300PT4D20171031000060SPEAKER ASM                   M IMCTM S9TS02 FTTL  07070IMCT  S9 PTB  00015                    2230 SR        000000000000 FUJITSU TEN (THAILAN180LRSU0009009                                                                                                                              *          20171027WMF1710275.TXT
MDDDHO293574201711                D89831228300PT1D20171031000030RADIO;AM/FM,CD                M IMCTM S5NC06 FTTL  07070IMCT  S5 CPB  00003                    2230 SR        000000000000 FUJITSU TEN (THAILAN180LPGL0049049                                                                                                                              *          20171027WMF1710275.TXT
MDDDHO293575201711                D89831228300PT1D20171101000030RADIO;AM/FM,CD                M IMCTM S5NC06 FTTL  07070IMCT  S5 CPB  00003                    0230 SR        000000000000 FUJITSU TEN (THAILAN180LPGL0050050                                                                                                                              *          20171027WMF1710275.TXT
MDDDHO293576201711                D89831228300PT1D20171101000030RADIO;AM/FM,CD                M IMCTM S5NC06 FTTL  07070IMCT  S5 CPB  00003                    0830 SR        000000000000 FUJITSU TEN (THAILAN180LPGL0051051                                                                                                                              *          20171027WMF1710275.TXT
MDDDHO293577201711                D89831228300PT1D20171101000060RADIO;AM/FM,CD                M IMCTM S5NC06 FTTL  07070IMCT  S5 CPB  00003                    1030 SR        000000000000 FUJITSU TEN (THAILAN180LPCL0019019180LPGL0052052                                                                                                                *          20171027WMF1710275.TXT
MDDDHO293578201711                D89831228300PT1D20171101000030RADIO;AM/FM,CD                M IMCTM S5NC06 FTTL  07070IMCT  S5 CPB  00003                    1300 SR        000000000000 FUJITSU TEN (THAILAN180LPGL0053053                                                                                                                              *          20171027WMF1710275.TXT
MDDDHO293579201711                D89831228300PT1D20171101000030RADIO;AM/FM,CD                M IMCTM S5NC06 FTTL  07070IMCT  S5 CPB  00003                    1600 SR        000000000000 FUJITSU TEN (THAILAN180LPGL0054054                                                                                                                              *          20171027WMF1710275.TXT
MDDDHO293580201711                D89831228300PT1D20171101000030RADIO;AM/FM,CD                M IMCTM S5NC06 FTTL  07070IMCT  S5 CPB  00003                    2100 SR        000000000000 FUJITSU TEN (THAILAN180LPGL0055055                                                                                                                              *          20171027WMF1710275.TXT
MDDUHO239540201711                D89828070100PT4U20171031000030SPEAKER ASM                   M IMCTM S0FL05 FTTL  07070IMCT  S0 PTB  00004                    2230 SR        000000000000 FUJITSU TEN (THAILAN180LUKU0027027                                                                                                                              *          20171027WMF1710275.TXT
MDDUHO239541201711                D89828070100PT4U20171101000030SPEAKER ASM                   M IMCTM S0FL05 FTTL  07070IMCT  S0 PTB  00004                    0830 SR        000000000000 FUJITSU TEN (THAILAN180LUFU0057057                                                                                                                              *          20171027WMF1710275.TXT
MDDUHO239542201711                D89828070200PV4U20171031000030SPEAKER ASM                   M IMCTM S0FR05 FTTL  07070IMCT  S0 PTB  00005                    2230 SR        000000000000 FUJITSU TEN (THAILAN180LUKU0027027                                                                                                                              *          20171027WMF1710275.TXT
MDDUHO239543201711                D89828070200PV4U20171101000030SPEAKER ASM                   M IMCTM S0FR05 FTTL  07070IMCT  S0 PTB  00005                    0830 SR        000000000000 FUJITSU TEN (THAILAN180LUFU0057057                                                                                                                              *          20171027WMF1710275.TXT
MDDUHO239544201711                D89828070300PT4U20171031000030SPEAKER ASM                   M IMCTM S9TS02 FTTL  07070IMCT  S9 PTB  00015                    2230 SR        000000000000 FUJITSU TEN (THAILAN180LUKU0027027                                                                                                                              *          20171027WMF1710275.TXT
MDDUHO239545201711                D89828070300PT4U20171101000030SPEAKER ASM                   M IMCTM S9TS02 FTTL  07070IMCT  S9 PTB  00015                    0830 SR        000000000000 FUJITSU TEN (THAILAN180LUFU0057057                                                                                                                              *          20171027WMF1710275.TXT
MDEDHO271663201711                D89828070100PV1D20171031000090SPEAKER ASM                   M IMCTM S5MB11 FTTL  07070IMCT  S5 PTB  00004                    2230 SR        000000000000 FUJITSU TEN (THAILAN17075PL004604617080NL0116117                                                                                                                *          20171027WMF1710275.TXT
MDEDHO271664201711                D89828070100PV1D20171101000030SPEAKER ASM                   M IMCTM S5MB11 FTTL  07070IMCT  S5 PTB  00004                    0400 SR        000000000000 FUJITSU TEN (THAILAN17023NL0022022                                                                                                                              *          20171027WMF1710275.TXT
MDEDHO271665201711                D89828070100PV1D20171101000030SPEAKER ASM                   M IMCTM S5MB11 FTTL  07070IMCT  S5 PTB  00004                    1300 SR        000000000000 FUJITSU TEN (THAILAN17075QL0001001                                                                                                                              *          20171027WMF1710275.TXT
MDEDHO271666201711                D89828070100PV1D20171101000030SPEAKER ASM                   M IMCTM S5MB11 FTTL  07070IMCT  S5 PTB  00004                    1600 SR        000000000000 FUJITSU TEN (THAILAN17075QL0002002                                                                                                                              *          20171027WMF1710275.TXT
MDEDHO271667201711                D89828070200PV1D20171031000060SPEAKER ASM                   M IMCTM S5MA14 FTTL  07070IMCT  S5 PTB  00005                    2230 SR        000000000000 FUJITSU TEN (THAILAN17080NL0116117                                                                                                                              *          20171027WMF1710275.TXT
MDEDHO271668201711                D89828070200PV1D20171101000030SPEAKER ASM                   M IMCTM S5MA14 FTTL  07070IMCT  S5 PTB  00005                    0400 SR        000000000000 FUJITSU TEN (THAILAN17023NL0022022                                                                                                                              *          20171027WMF1710275.TXT
MDEDHO271669201711                D89828070300PT1D20171031000060SPEAKER ASM                   M IMCTM S5NB082FTTL  07070IMCT  S5 PTB  00015                    2230 SR        000000000000 FUJITSU TEN (THAILAN17080NL0116117                                                                                                                              *          20171027WMF1710275.TXT
MDEDHO271670201711                D89828070300PT1D20171101000030SPEAKER ASM                   M IMCTM S5NB082FTTL  07070IMCT  S5 PTB  00015                    0400 SR        000000000000 FUJITSU TEN (THAILAN17023NL0022022                                                                                                                              *          20171027WMF1710275.TXT
MDEUHO291971201711                D89828070100PT4U20171101000060SPEAKER ASM                   M IMCTM S0FL05 FTTL  07070IMCT  S0 PTB  00004                    0400 SR        000000000000 FUJITSU TEN (THAILAN18023TU020520518078SU0180180                                                                                                                *          20171027WMF1710275.TXT
MDEUHO291972201711                D89828070100PT4U20171101000090SPEAKER ASM                   M IMCTM S0FL05 FTTL  07070IMCT  S0 PTB  00004                    1300 SR        000000000000 FUJITSU TEN (THAILAN18078SU0181183                                                                                                                              *          20171027WMF1710275.TXT
MDEUHO291973201711                D89828070100PT4U20171101000030SPEAKER ASM                   M IMCTM S0FL05 FTTL  07070IMCT  S0 PTB  00004                    2100 SR        000000000000 FUJITSU TEN (THAILAN18078SU0184184                                                                                                                              *          20171027WMF1710275.TXT
MDEUHO291974201711                D89828070200PV4U20171101000060SPEAKER ASM                   M IMCTM S0FR05 FTTL  07070IMCT  S0 PTB  00005                    0400 SR        000000000000 FUJITSU TEN (THAILAN18023TU020520518078SU0180180                                                                                                                *          20171027WMF1710275.TXT
MDEUHO291975201711                D89828070200PV4U20171101000090SPEAKER ASM                   M IMCTM S0FR05 FTTL  07070IMCT  S0 PTB  00005                    1300 SR        000000000000 FUJITSU TEN (THAILAN18078SU0181183                                                                                                                              *          20171027WMF1710275.TXT
MDEUHO291976201711                D89828070200PV4U20171101000030SPEAKER ASM                   M IMCTM S0FR05 FTTL  07070IMCT  S0 PTB  00005                    2100 SR        000000000000 FUJITSU TEN (THAILAN18078SU0184184                                                                                                                              *          20171027WMF1710275.TXT
MDEUHO291977201711                D89828070300PT4U20171101000060SPEAKER ASM                   M IMCTM S9TS02 FTTL  07070IMCT  S9 PTB  00015                    0400 SR        000000000000 FUJITSU TEN (THAILAN18023TU020520518078SU0180180                                                                                                                *          20171027WMF1710275.TXT
MDEUHO291978201711                D89828070300PT4U20171101000090SPEAKER ASM                   M IMCTM S9TS02 FTTL  07070IMCT  S9 PTB  00015                    1300 SR        000000000000 FUJITSU TEN (THAILAN18078SU0181183                                                                                                                              *          20171027WMF1710275.TXT
MDEUHO291979201711                D89828070300PT4U20171101000030SPEAKER ASM                   M IMCTM S9TS02 FTTL  07070IMCT  S9 PTB  00015                    2100 SR        000000000000 FUJITSU TEN (THAILAN18078SU0184184                                                                                                                              *          20171027WMF1710275.TXT
