REC2017100220171002ISUZU                              52     
MDDDHO200627201710                D89821984430PT1D20171006000030RADIO;AM/FM,CD                M IMCTM S5NC06 FTTL  07070IMCT  S5 PTB  00005                    0230 SR        000000000000 FUJITSU TEN (THAILAN180LNHL0001001                                                                                                                              *          20171002WMF1710024.TXT
MDDDHO200628201710                D89821984430PT1D20171006000030RADIO;AM/FM,CD                M IMCTM S5NC06 FTTL  07070IMCT  S5 PTB  00005                    2100 SR        000000000000 FUJITSU TEN (THAILAN180LNEL0003003                                                                                                                              *          20171002WMF1710024.TXT
MDDDHO200629201710                D89828070100PV1D20171006000060SPEAKER ASM                   M IMCTM S5MB11 FTTL  07070IMCT  S5 PTB  00004                    0230 SR        000000000000 FUJITSU TEN (THAILAN180LNHL0001001                                                                                                                              *          20171002WMF1710024.TXT
MDDDHO200630201710                D89828070100PV1D20171006000060SPEAKER ASM                   M IMCTM S5MB11 FTTL  07070IMCT  S5 PTB  00004                    0400 SR        000000000000 FUJITSU TEN (THAILAN180LNBL0001001                                                                                                                              *          20171002WMF1710024.TXT
MDDDHO200631201710                D89828070100PV1D20171006000060SPEAKER ASM                   M IMCTM S5MB11 FTTL  07070IMCT  S5 PTB  00004                    1300 SR        000000000000 FUJITSU TEN (THAILAN180LNAL0002002                                                                                                                              *          20171002WMF1710024.TXT
MDDDHO200632201710                D89828070100PV1D20171006000060SPEAKER ASM                   M IMCTM S5MB11 FTTL  07070IMCT  S5 PTB  00004                    2100 SR        000000000000 FUJITSU TEN (THAILAN180LNEL0003003                                                                                                                              *          20171002WMF1710024.TXT
MDDDHO200633201710                D89828070100PV4D20171006000060SPEAKER ASM                   M IMCTM S0FL05 FTTL  07070IMCT  S0 PTB  00004                    0230 SR        000000000000 FUJITSU TEN (THAILAN180LRSU0002002                                                                                                                              *          20171002WMF1710024.TXT
MDDDHO200634201710                D89828070200PV4D20171006000060SPEAKER ASM                   M IMCTM S0FR05 FTTL  07070IMCT  S0 PTB  00005                    0230 SR        000000000000 FUJITSU TEN (THAILAN180LRSU0002002                                                                                                                              *          20171002WMF1710024.TXT
MDDDHO200635201710                D89828070300PT4D20171006000060SPEAKER ASM                   M IMCTM S9TS02 FTTL  07070IMCT  S9 PTB  00015                    0230 SR        000000000000 FUJITSU TEN (THAILAN180LRSU0002002                                                                                                                              *          20171002WMF1710024.TXT
MDDUHO200359201710                D89828070100PT4U20171006000030SPEAKER ASM                   M IMCTM S0FL05 FTTL  07070IMCT  S0 PTB  00004                    1300 SR        000000000000 FUJITSU TEN (THAILAN180LUEU0186186                                                                                                                              *          20171002WMF1710024.TXT
MDDUHO200360201710                D89828070100PT4U20171006000030SPEAKER ASM                   M IMCTM S0FL05 FTTL  07070IMCT  S0 PTB  00004                    2230 SR        000000000000 FUJITSU TEN (THAILAN180LUEU0187187                                                                                                                              *          20171002WMF1710024.TXT
MDDUHO200361201710                D89828070200PV4U20171006000030SPEAKER ASM                   M IMCTM S0FR05 FTTL  07070IMCT  S0 PTB  00005                    1300 SR        000000000000 FUJITSU TEN (THAILAN180LUEU0186186                                                                                                                              *          20171002WMF1710024.TXT
MDDUHO200362201710                D89828070200PV4U20171006000030SPEAKER ASM                   M IMCTM S0FR05 FTTL  07070IMCT  S0 PTB  00005                    2230 SR        000000000000 FUJITSU TEN (THAILAN180LUEU0187187                                                                                                                              *          20171002WMF1710024.TXT
MDDUHO200363201710                D89828070300PT4U20171006000030SPEAKER ASM                   M IMCTM S9TS02 FTTL  07070IMCT  S9 PTB  00015                    1300 SR        000000000000 FUJITSU TEN (THAILAN180LUEU0186186                                                                                                                              *          20171002WMF1710024.TXT
MDDUHO200364201710                D89828070300PT4U20171006000030SPEAKER ASM                   M IMCTM S9TS02 FTTL  07070IMCT  S9 PTB  00015                    2230 SR        000000000000 FUJITSU TEN (THAILAN180LUEU0187187                                                                                                                              *          20171002WMF1710024.TXT
MDEDHO201316201710                D89828070100PV1D20171005000120SPEAKER ASM                   M IMCTM S5MB11 FTTL  07070IMCT  S5 PTB  00004                    2230 SR        000000000000 FUJITSU TEN (THAILAN17050ML003803817058NL003803817066NL004804817077PL0014014                                                                                    *          20171002WMF1710024.TXT
MDEDHO201317201710                D89828070100PV1D20171006000060SPEAKER ASM                   M IMCTM S5MB11 FTTL  07070IMCT  S5 PTB  00004                    0400 SR        000000000000 FUJITSU TEN (THAILAN17047RL000500517058NL0039039                                                                                                                *          20171002WMF1710024.TXT
MDEDHO201318201710                D89828070100PV1D20171006000030SPEAKER ASM                   M IMCTM S5MB11 FTTL  07070IMCT  S5 PTB  00004                    0830 SR        000000000000 FUJITSU TEN (THAILAN17080NL0104104                                                                                                                              *          20171002WMF1710024.TXT
MDEDHO201319201710                D89828070100PV1D20171006000090SPEAKER ASM                   M IMCTM S5MB11 FTTL  07070IMCT  S5 PTB  00004                    1030 SR        000000000000 FUJITSU TEN (THAILAN17053NL005705817080NL0105105                                                                                                                *          20171002WMF1710024.TXT
MDEDHO201320201710                D89828070100PV1D20171006000060SPEAKER ASM                   M IMCTM S5MB11 FTTL  07070IMCT  S5 PTB  00004                    1300 SR        000000000000 FUJITSU TEN (THAILAN17068NL0025026                                                                                                                              *          20171002WMF1710024.TXT
MDEDHO201321201710                D89828070100PV1D20171006000060SPEAKER ASM                   M IMCTM S5MB11 FTTL  07070IMCT  S5 PTB  00004                    1600 SR        000000000000 FUJITSU TEN (THAILAN17080NL0106107                                                                                                                              *          20171002WMF1710024.TXT
MDEDHO201322201710                D89828070200PV1D20171005000030SPEAKER ASM                   M IMCTM S5MA14 FTTL  07070IMCT  S5 PTB  00005                    2230 SR        000000000000 FUJITSU TEN (THAILAN17058NL0038038                                                                                                                              *          20171002WMF1710024.TXT
MDEDHO201323201710                D89828070200PV1D20171006000060SPEAKER ASM                   M IMCTM S5MA14 FTTL  07070IMCT  S5 PTB  00005                    0400 SR        000000000000 FUJITSU TEN (THAILAN17047RL000500517058NL0039039                                                                                                                *          20171002WMF1710024.TXT
MDEDHO201324201710                D89828070200PV1D20171006000030SPEAKER ASM                   M IMCTM S5MA14 FTTL  07070IMCT  S5 PTB  00005                    0830 SR        000000000000 FUJITSU TEN (THAILAN17080NL0104104                                                                                                                              *          20171002WMF1710024.TXT
MDEDHO201325201710                D89828070200PV1D20171006000030SPEAKER ASM                   M IMCTM S5MA14 FTTL  07070IMCT  S5 PTB  00005                    1030 SR        000000000000 FUJITSU TEN (THAILAN17080NL0105105                                                                                                                              *          20171002WMF1710024.TXT
MDEDHO201326201710                D89828070200PV1D20171006000060SPEAKER ASM                   M IMCTM S5MA14 FTTL  07070IMCT  S5 PTB  00005                    1600 SR        000000000000 FUJITSU TEN (THAILAN17080NL0106107                                                                                                                              *          20171002WMF1710024.TXT
MDEDHO201327201710                D89828070300PT1D20171005000060SPEAKER ASM                   M IMCTM S5NB082FTTL  07070IMCT  S5 PTB  00015                    2230 SR        000000000000 FUJITSU TEN (THAILAN17058NL003803817066NL0048048                                                                                                                *          20171002WMF1710024.TXT
MDEDHO201328201710                D89828070300PT1D20171006000060SPEAKER ASM                   M IMCTM S5NB082FTTL  07070IMCT  S5 PTB  00015                    0400 SR        000000000000 FUJITSU TEN (THAILAN17047RL000500517058NL0039039                                                                                                                *          20171002WMF1710024.TXT
MDEDHO201329201710                D89828070300PT1D20171006000030SPEAKER ASM                   M IMCTM S5NB082FTTL  07070IMCT  S5 PTB  00015                    0830 SR        000000000000 FUJITSU TEN (THAILAN17080NL0104104                                                                                                                              *          20171002WMF1710024.TXT
MDEDHO201330201710                D89828070300PT1D20171006000090SPEAKER ASM                   M IMCTM S5NB082FTTL  07070IMCT  S5 PTB  00015                    1030 SR        000000000000 FUJITSU TEN (THAILAN17053NL005705817080NL0105105                                                                                                                *          20171002WMF1710024.TXT
MDEDHO201331201710                D89828070300PT1D20171006000060SPEAKER ASM                   M IMCTM S5NB082FTTL  07070IMCT  S5 PTB  00015                    1300 SR        000000000000 FUJITSU TEN (THAILAN17068NL0025026                                                                                                                              *          20171002WMF1710024.TXT
MDEDHO201332201710                D89828070300PT1D20171006000060SPEAKER ASM                   M IMCTM S5NB082FTTL  07070IMCT  S5 PTB  00015                    1600 SR        000000000000 FUJITSU TEN (THAILAN17080NL0106107                                                                                                                              *          20171002WMF1710024.TXT
MDEDHO201333201710                D89831229000PT1D20171006000015RADIO;AM/FM,CD                M IMCTM S5NC06 FTTL  07070IMCT  S5 PTB  00003                    0400 SR        000000000000 FUJITSU TEN (THAILAN17047RL0005005                                                                                                                              *          20171002WMF1710024.TXT
MDEDHO201334201710                D89848581800PT1D20171005000015RADIO;AM/FM CD D              M IMCTM S5NC06 FTTL  07070IMCT  S5 PTB  00003                    2230 SR        000000000000 FUJITSU TEN (THAILAN17058NL0038038                                                                                                                              *          20171002WMF1710024.TXT
MDEDHO201335201710                D89848581800PT1D20171006000015RADIO;AM/FM CD D              M IMCTM S5NC06 FTTL  07070IMCT  S5 PTB  00003                    0400 SR        000000000000 FUJITSU TEN (THAILAN17058NL0039039                                                                                                                              *          20171002WMF1710024.TXT
MDEDHO201336201710                D89848581800PT1D20171006000030RADIO;AM/FM CD D              M IMCTM S5NC06 FTTL  07070IMCT  S5 PTB  00003                    1030 SR        000000000000 FUJITSU TEN (THAILAN17053NL0057058                                                                                                                              *          20171002WMF1710024.TXT
MDEDHO201337201710                D89848582500PT1D20171005000015RADIO;AM/FM CD D              M IMCTM S5NC06 FTTL  07070IMCT  S5 PTB  00003                    2230 SR        000000000000 FUJITSU TEN (THAILAN17066NL0048048                                                                                                                              *          20171002WMF1710024.TXT
MDEUHO200687201710                D89828070100PT4U20171005000060SPEAKER ASM                   M IMCTM S0FL05 FTTL  07070IMCT  S0 PTB  00004                    2230 SR        000000000000 FUJITSU TEN (THAILAN18078SU0124125                                                                                                                              *          20171002WMF1710024.TXT
MDEUHO200688201710                D89828070100PT4U20171006000030SPEAKER ASM                   M IMCTM S0FL05 FTTL  07070IMCT  S0 PTB  00004                    0400 SR        000000000000 FUJITSU TEN (THAILAN18078SU0126126                                                                                                                              *          20171002WMF1710024.TXT
MDEUHO200689201710                D89828070100PT4U20171006000030SPEAKER ASM                   M IMCTM S0FL05 FTTL  07070IMCT  S0 PTB  00004                    0830 SR        000000000000 FUJITSU TEN (THAILAN18078SU0127127                                                                                                                              *          20171002WMF1710024.TXT
MDEUHO200690201710                D89828070100PT4U20171006000060SPEAKER ASM                   M IMCTM S0FL05 FTTL  07070IMCT  S0 PTB  00004                    1300 SR        000000000000 FUJITSU TEN (THAILAN18078SU0128129                                                                                                                              *          20171002WMF1710024.TXT
MDEUHO200691201710                D89828070100PT4U20171006000030SPEAKER ASM                   M IMCTM S0FL05 FTTL  07070IMCT  S0 PTB  00004                    2100 SR        000000000000 FUJITSU TEN (THAILAN18022TU0084084                                                                                                                              *          20171002WMF1710024.TXT
MDEUHO200692201710                D89828070200PV4U20171005000060SPEAKER ASM                   M IMCTM S0FR05 FTTL  07070IMCT  S0 PTB  00005                    2230 SR        000000000000 FUJITSU TEN (THAILAN18078SU0124125                                                                                                                              *          20171002WMF1710024.TXT
MDEUHO200693201710                D89828070200PV4U20171006000030SPEAKER ASM                   M IMCTM S0FR05 FTTL  07070IMCT  S0 PTB  00005                    0400 SR        000000000000 FUJITSU TEN (THAILAN18078SU0126126                                                                                                                              *          20171002WMF1710024.TXT
MDEUHO200694201710                D89828070200PV4U20171006000030SPEAKER ASM                   M IMCTM S0FR05 FTTL  07070IMCT  S0 PTB  00005                    0830 SR        000000000000 FUJITSU TEN (THAILAN18078SU0127127                                                                                                                              *          20171002WMF1710024.TXT
MDEUHO200695201710                D89828070200PV4U20171006000060SPEAKER ASM                   M IMCTM S0FR05 FTTL  07070IMCT  S0 PTB  00005                    1300 SR        000000000000 FUJITSU TEN (THAILAN18078SU0128129                                                                                                                              *          20171002WMF1710024.TXT
MDEUHO200696201710                D89828070200PV4U20171006000030SPEAKER ASM                   M IMCTM S0FR05 FTTL  07070IMCT  S0 PTB  00005                    2100 SR        000000000000 FUJITSU TEN (THAILAN18022TU0084084                                                                                                                              *          20171002WMF1710024.TXT
MDEUHO200697201710                D89828070300PT4U20171005000060SPEAKER ASM                   M IMCTM S9TS02 FTTL  07070IMCT  S9 PTB  00015                    2230 SR        000000000000 FUJITSU TEN (THAILAN18078SU0124125                                                                                                                              *          20171002WMF1710024.TXT
MDEUHO200698201710                D89828070300PT4U20171006000030SPEAKER ASM                   M IMCTM S9TS02 FTTL  07070IMCT  S9 PTB  00015                    0400 SR        000000000000 FUJITSU TEN (THAILAN18078SU0126126                                                                                                                              *          20171002WMF1710024.TXT
MDEUHO200699201710                D89828070300PT4U20171006000030SPEAKER ASM                   M IMCTM S9TS02 FTTL  07070IMCT  S9 PTB  00015                    0830 SR        000000000000 FUJITSU TEN (THAILAN18078SU0127127                                                                                                                              *          20171002WMF1710024.TXT
MDEUHO200700201710                D89828070300PT4U20171006000060SPEAKER ASM                   M IMCTM S9TS02 FTTL  07070IMCT  S9 PTB  00015                    1300 SR        000000000000 FUJITSU TEN (THAILAN18078SU0128129                                                                                                                              *          20171002WMF1710024.TXT
MDEUHO200701201710                D89828070300PT4U20171006000030SPEAKER ASM                   M IMCTM S9TS02 FTTL  07070IMCT  S9 PTB  00015                    2100 SR        000000000000 FUJITSU TEN (THAILAN18022TU0084084                                                                                                                              *          20171002WMF1710024.TXT
