REC2017102320171023ISUZU                              55     
MDDDHO276857201710                D89821984430PT1D20171027000030RADIO;AM/FM,CD                M IMCTM S5NC06 FTTL  07070IMCT  S5 PTB  00005                    2230 SR        000000000000 FUJITSU TEN (THAILAN180LNHL0005005                                                                                                                              *          20171023WMF1710234.TXT
MDDDHO276858201710                D89828070100PV1D20171027000060SPEAKER ASM                   M IMCTM S5MB11 FTTL  07070IMCT  S5 PTB  00004                    2230 SR        000000000000 FUJITSU TEN (THAILAN180LNHL0005005                                                                                                                              *          20171023WMF1710234.TXT
MDDDHO276859201710                D89828070100PV1D20171028000060SPEAKER ASM                   M IMCTM S5MB11 FTTL  07070IMCT  S5 PTB  00004                    0230 SR        000000000000 FUJITSU TEN (THAILAN180LPEL0003003                                                                                                                              *          20171023WMF1710234.TXT
MDDDHO276860201710                D89828070100PV1D20171028000060SPEAKER ASM                   M IMCTM S5MB11 FTTL  07070IMCT  S5 PTB  00004                    0400 SR        000000000000 FUJITSU TEN (THAILAN180LPKL0018018                                                                                                                              *          20171023WMF1710234.TXT
MDDDHO276861201710                D89828070100PV1D20171028000120SPEAKER ASM                   M IMCTM S5MB11 FTTL  07070IMCT  S5 PTB  00004                    0830 SR        000000000000 FUJITSU TEN (THAILAN180LPCL0016016180LPGL0035035                                                                                                                *          20171023WMF1710234.TXT
MDDDHO276862201710                D89828070100PV1D20171028000060SPEAKER ASM                   M IMCTM S5MB11 FTTL  07070IMCT  S5 PTB  00004                    1030 SR        000000000000 FUJITSU TEN (THAILAN180LPGL0036036                                                                                                                              *          20171023WMF1710234.TXT
MDDDHO276863201710                D89828070100PV1D20171028000060SPEAKER ASM                   M IMCTM S5MB11 FTTL  07070IMCT  S5 PTB  00004                    1300 SR        000000000000 FUJITSU TEN (THAILAN180LPJL0005005                                                                                                                              *          20171023WMF1710234.TXT
MDDDHO276864201710                D89828070100PV1D20171028000060SPEAKER ASM                   M IMCTM S5MB11 FTTL  07070IMCT  S5 PTB  00004                    1600 SR        000000000000 FUJITSU TEN (THAILAN180LPKL0019019                                                                                                                              *          20171023WMF1710234.TXT
MDDDHO276865201710                D89828070100PV1D20171028000060SPEAKER ASM                   M IMCTM S5MB11 FTTL  07070IMCT  S5 PTB  00004                    2100 SR        000000000000 FUJITSU TEN (THAILAN180LPHL0004004                                                                                                                              *          20171023WMF1710234.TXT
MDDDHO276866201710                D89828070300PT1D20171028000060SPEAKER ASM                   M IMCTM S5NB082FTTL  07070IMCT  S5 PTB  00015                    0230 SR        000000000000 FUJITSU TEN (THAILAN180LPEL0003003                                                                                                                              *          20171023WMF1710234.TXT
MDDDHO276867201710                D89828070300PT1D20171028000060SPEAKER ASM                   M IMCTM S5NB082FTTL  07070IMCT  S5 PTB  00015                    0400 SR        000000000000 FUJITSU TEN (THAILAN180LPKL0018018                                                                                                                              *          20171023WMF1710234.TXT
MDDDHO276868201710                D89828070300PT1D20171028000120SPEAKER ASM                   M IMCTM S5NB082FTTL  07070IMCT  S5 PTB  00015                    0830 SR        000000000000 FUJITSU TEN (THAILAN180LPCL0016016180LPGL0035035                                                                                                                *          20171023WMF1710234.TXT
MDDDHO276869201710                D89828070300PT1D20171028000060SPEAKER ASM                   M IMCTM S5NB082FTTL  07070IMCT  S5 PTB  00015                    1030 SR        000000000000 FUJITSU TEN (THAILAN180LPGL0036036                                                                                                                              *          20171023WMF1710234.TXT
MDDDHO276870201710                D89828070300PT1D20171028000060SPEAKER ASM                   M IMCTM S5NB082FTTL  07070IMCT  S5 PTB  00015                    1300 SR        000000000000 FUJITSU TEN (THAILAN180LPJL0005005                                                                                                                              *          20171023WMF1710234.TXT
MDDDHO276871201710                D89828070300PT1D20171028000060SPEAKER ASM                   M IMCTM S5NB082FTTL  07070IMCT  S5 PTB  00015                    1600 SR        000000000000 FUJITSU TEN (THAILAN180LPKL0019019                                                                                                                              *          20171023WMF1710234.TXT
MDDDHO276872201710                D89828070300PT1D20171028000060SPEAKER ASM                   M IMCTM S5NB082FTTL  07070IMCT  S5 PTB  00015                    2100 SR        000000000000 FUJITSU TEN (THAILAN180LPHL0004004                                                                                                                              *          20171023WMF1710234.TXT
MDDDHO276873201710                D89831228300PT1D20171028000030RADIO;AM/FM,CD                M IMCTM S5NC06 FTTL  07070IMCT  S5 CPB  00003                    0230 SR        000000000000 FUJITSU TEN (THAILAN180LPEL0003003                                                                                                                              *          20171023WMF1710234.TXT
MDDDHO276874201710                D89831228300PT1D20171028000060RADIO;AM/FM,CD                M IMCTM S5NC06 FTTL  07070IMCT  S5 CPB  00003                    0830 SR        000000000000 FUJITSU TEN (THAILAN180LPCL0016016180LPGL0035035                                                                                                                *          20171023WMF1710234.TXT
MDDDHO276875201710                D89831228300PT1D20171028000030RADIO;AM/FM,CD                M IMCTM S5NC06 FTTL  07070IMCT  S5 CPB  00003                    1030 SR        000000000000 FUJITSU TEN (THAILAN180LPGL0036036                                                                                                                              *          20171023WMF1710234.TXT
MDDDHO276876201710                D89831228300PT1D20171028000030RADIO;AM/FM,CD                M IMCTM S5NC06 FTTL  07070IMCT  S5 CPB  00003                    1300 SR        000000000000 FUJITSU TEN (THAILAN180LPJL0005005                                                                                                                              *          20171023WMF1710234.TXT
MDDDHO276877201710                D89831228300PT1D20171028000030RADIO;AM/FM,CD                M IMCTM S5NC06 FTTL  07070IMCT  S5 CPB  00003                    2100 SR        000000000000 FUJITSU TEN (THAILAN180LPHL0004004                                                                                                                              *          20171023WMF1710234.TXT
MDDDHO276878201710                D89848581600PT1D20171028000030RADIO;AM/FM CD D              M IMCTM S5NC06 FTTL  07070IMCT  S5 PTB  00003                    0400 SR        000000000000 FUJITSU TEN (THAILAN180LPKL0018018                                                                                                                              *          20171023WMF1710234.TXT
MDDDHO276879201710                D89848581600PT1D20171028000030RADIO;AM/FM CD D              M IMCTM S5NC06 FTTL  07070IMCT  S5 PTB  00003                    1600 SR        000000000000 FUJITSU TEN (THAILAN180LPKL0019019                                                                                                                              *          20171023WMF1710234.TXT
MDDUHO233268201710                D89828070100PT4U20171028000030SPEAKER ASM                   M IMCTM S0FL05 FTTL  07070IMCT  S0 PTB  00004                    0400 SR        000000000000 FUJITSU TEN (THAILAN180LUKU0021021                                                                                                                              *          20171023WMF1710234.TXT
MDDUHO233269201710                D89828070100PT4U20171028000030SPEAKER ASM                   M IMCTM S0FL05 FTTL  07070IMCT  S0 PTB  00004                    1300 SR        000000000000 FUJITSU TEN (THAILAN180LUJU0011011                                                                                                                              *          20171023WMF1710234.TXT
MDDUHO233270201710                D89828070100PT4U20171028000030SPEAKER ASM                   M IMCTM S0FL05 FTTL  07070IMCT  S0 PTB  00004                    2230 SR        000000000000 FUJITSU TEN (THAILAN180LUKU0022022                                                                                                                              *          20171023WMF1710234.TXT
MDDUHO233271201710                D89828070200PV4U20171028000030SPEAKER ASM                   M IMCTM S0FR05 FTTL  07070IMCT  S0 PTB  00005                    0400 SR        000000000000 FUJITSU TEN (THAILAN180LUKU0021021                                                                                                                              *          20171023WMF1710234.TXT
MDDUHO233272201710                D89828070200PV4U20171028000030SPEAKER ASM                   M IMCTM S0FR05 FTTL  07070IMCT  S0 PTB  00005                    1300 SR        000000000000 FUJITSU TEN (THAILAN180LUJU0011011                                                                                                                              *          20171023WMF1710234.TXT
MDDUHO233273201710                D89828070200PV4U20171028000030SPEAKER ASM                   M IMCTM S0FR05 FTTL  07070IMCT  S0 PTB  00005                    2230 SR        000000000000 FUJITSU TEN (THAILAN180LUKU0022022                                                                                                                              *          20171023WMF1710234.TXT
MDDUHO233274201710                D89828070300PT4U20171028000030SPEAKER ASM                   M IMCTM S9TS02 FTTL  07070IMCT  S9 PTB  00015                    0400 SR        000000000000 FUJITSU TEN (THAILAN180LUKU0021021                                                                                                                              *          20171023WMF1710234.TXT
MDDUHO233275201710                D89828070300PT4U20171028000030SPEAKER ASM                   M IMCTM S9TS02 FTTL  07070IMCT  S9 PTB  00015                    1300 SR        000000000000 FUJITSU TEN (THAILAN180LUJU0011011                                                                                                                              *          20171023WMF1710234.TXT
MDDUHO233276201710                D89828070300PT4U20171028000030SPEAKER ASM                   M IMCTM S9TS02 FTTL  07070IMCT  S9 PTB  00015                    2230 SR        000000000000 FUJITSU TEN (THAILAN180LUKU0022022                                                                                                                              *          20171023WMF1710234.TXT
MDDUHO233277201710                D89848584200PT4U20171028000015RADIO;AM/FM CD D              M IMCTM S9CO001FTTL  07070IMCT  S9 PTB  00003                    1300 SR        000000000000 FUJITSU TEN (THAILAN180LUJU0011011                                                                                                                              *          20171023WMF1710234.TXT
MDEDHO268100201710                D89828070100PV1D20171028000030SPEAKER ASM                   M IMCTM S5MB11 FTTL  07070IMCT  S5 PTB  00004                    0230 SR        000000000000 FUJITSU TEN (THAILAN17077PL0015015                                                                                                                              *          20171023WMF1710234.TXT
MDEDHO268101201710                D89828070100PV1D20171028000030SPEAKER ASM                   M IMCTM S5MB11 FTTL  07070IMCT  S5 PTB  00004                    0400 SR        000000000000 FUJITSU TEN (THAILAN17010RL0005005                                                                                                                              *          20171023WMF1710234.TXT
MDEDHO268102201710                D89828070100PV1D20171028000030SPEAKER ASM                   M IMCTM S5MB11 FTTL  07070IMCT  S5 PTB  00004                    1300 SR        000000000000 FUJITSU TEN (THAILAN17006ML0014014                                                                                                                              *          20171023WMF1710234.TXT
MDEDHO268103201710                D89828070100PV1D20171028000030SPEAKER ASM                   M IMCTM S5MB11 FTTL  07070IMCT  S5 PTB  00004                    1600 SR        000000000000 FUJITSU TEN (THAILAN17004ML0014014                                                                                                                              *          20171023WMF1710234.TXT
MDEUHO278558201710                D89828070100PT4U20171027000060SPEAKER ASM                   M IMCTM S0FL05 FTTL  07070IMCT  S0 PTB  00004                    2230 SR        000000000000 FUJITSU TEN (THAILAN18022TU008808818078SU0166166                                                                                                                *          20171023WMF1710234.TXT
MDEUHO278559201710                D89828070100PT4U20171028000030SPEAKER ASM                   M IMCTM S0FL05 FTTL  07070IMCT  S0 PTB  00004                    0230 SR        000000000000 FUJITSU TEN (THAILAN18078SU0167167                                                                                                                              *          20171023WMF1710234.TXT
MDEUHO278560201710                D89828070100PT4U20171028000060SPEAKER ASM                   M IMCTM S0FL05 FTTL  07070IMCT  S0 PTB  00004                    0830 SR        000000000000 FUJITSU TEN (THAILAN18017TU004104118078SU0168168                                                                                                                *          20171023WMF1710234.TXT
MDEUHO278561201710                D89828070100PT4U20171028000030SPEAKER ASM                   M IMCTM S0FL05 FTTL  07070IMCT  S0 PTB  00004                    1300 SR        000000000000 FUJITSU TEN (THAILAN18023TU0202202                                                                                                                              *          20171023WMF1710234.TXT
MDEUHO278562201710                D89828070100PT4U20171028000030SPEAKER ASM                   M IMCTM S0FL05 FTTL  07070IMCT  S0 PTB  00004                    1600 SR        000000000000 FUJITSU TEN (THAILAN18078SU0169169                                                                                                                              *          20171023WMF1710234.TXT
MDEUHO278563201710                D89828070100PT4U20171028000030SPEAKER ASM                   M IMCTM S0FL05 FTTL  07070IMCT  S0 PTB  00004                    2100 SR        000000000000 FUJITSU TEN (THAILAN18083SU0017017                                                                                                                              *          20171023WMF1710234.TXT
MDEUHO278564201710                D89828070200PV4U20171027000060SPEAKER ASM                   M IMCTM S0FR05 FTTL  07070IMCT  S0 PTB  00005                    2230 SR        000000000000 FUJITSU TEN (THAILAN18022TU008808818078SU0166166                                                                                                                *          20171023WMF1710234.TXT
MDEUHO278565201710                D89828070200PV4U20171028000030SPEAKER ASM                   M IMCTM S0FR05 FTTL  07070IMCT  S0 PTB  00005                    0230 SR        000000000000 FUJITSU TEN (THAILAN18078SU0167167                                                                                                                              *          20171023WMF1710234.TXT
MDEUHO278566201710                D89828070200PV4U20171028000060SPEAKER ASM                   M IMCTM S0FR05 FTTL  07070IMCT  S0 PTB  00005                    0830 SR        000000000000 FUJITSU TEN (THAILAN18017TU004104118078SU0168168                                                                                                                *          20171023WMF1710234.TXT
MDEUHO278567201710                D89828070200PV4U20171028000030SPEAKER ASM                   M IMCTM S0FR05 FTTL  07070IMCT  S0 PTB  00005                    1300 SR        000000000000 FUJITSU TEN (THAILAN18023TU0202202                                                                                                                              *          20171023WMF1710234.TXT
MDEUHO278568201710                D89828070200PV4U20171028000030SPEAKER ASM                   M IMCTM S0FR05 FTTL  07070IMCT  S0 PTB  00005                    1600 SR        000000000000 FUJITSU TEN (THAILAN18078SU0169169                                                                                                                              *          20171023WMF1710234.TXT
MDEUHO278569201710                D89828070200PV4U20171028000030SPEAKER ASM                   M IMCTM S0FR05 FTTL  07070IMCT  S0 PTB  00005                    2100 SR        000000000000 FUJITSU TEN (THAILAN18083SU0017017                                                                                                                              *          20171023WMF1710234.TXT
MDEUHO278570201710                D89828070300PT4U20171027000060SPEAKER ASM                   M IMCTM S9TS02 FTTL  07070IMCT  S9 PTB  00015                    2230 SR        000000000000 FUJITSU TEN (THAILAN18022TU008808818078SU0166166                                                                                                                *          20171023WMF1710234.TXT
MDEUHO278571201710                D89828070300PT4U20171028000030SPEAKER ASM                   M IMCTM S9TS02 FTTL  07070IMCT  S9 PTB  00015                    0230 SR        000000000000 FUJITSU TEN (THAILAN18078SU0167167                                                                                                                              *          20171023WMF1710234.TXT
MDEUHO278572201710                D89828070300PT4U20171028000060SPEAKER ASM                   M IMCTM S9TS02 FTTL  07070IMCT  S9 PTB  00015                    0830 SR        000000000000 FUJITSU TEN (THAILAN18017TU004104118078SU0168168                                                                                                                *          20171023WMF1710234.TXT
MDEUHO278573201710                D89828070300PT4U20171028000030SPEAKER ASM                   M IMCTM S9TS02 FTTL  07070IMCT  S9 PTB  00015                    1300 SR        000000000000 FUJITSU TEN (THAILAN18023TU0202202                                                                                                                              *          20171023WMF1710234.TXT
MDEUHO278574201710                D89828070300PT4U20171028000030SPEAKER ASM                   M IMCTM S9TS02 FTTL  07070IMCT  S9 PTB  00015                    1600 SR        000000000000 FUJITSU TEN (THAILAN18078SU0169169                                                                                                                              *          20171023WMF1710234.TXT
MDEUHO278575201710                D89828070300PT4U20171028000030SPEAKER ASM                   M IMCTM S9TS02 FTTL  07070IMCT  S9 PTB  00015                    2100 SR        000000000000 FUJITSU TEN (THAILAN18083SU0017017                                                                                                                              *          20171023WMF1710234.TXT
