REC2017092920170929ISUZU                              12     
MDEFH9T26085201710                D89828070100PV4F20171005000006SPEAKER ASM                   M IMCTM S7FL05 FTTL  07070IMCT  S7 PTB  00004                    1300 SR        000000000000 FUJITSU TEN (THAILAN17052RR0016   17085LR0062   R171001213    R171001215    000000                                                                              *R         20170929RDF1709297.TXT
MDEFH9T26086201710                D89828070200PV4F20171004000012SPEAKER ASM                   M IMCTM S7TS02 FTTL  07070IMCT  S7 PTB  00005                    2230 SR        000000000000 FUJITSU TEN (THAILAN17032QR0074   17035SR0050   D171001006    D171001015    000000                                                                              *R         20170929RDF1709297.TXT
MDEFH9T26087201710                D89828070300PT4F20171004000007SPEAKER ASM                   M IMCTM S7TS02 FTTL  07070IMCT  S7 PTB  00015                    2230 SR        000000000000 FUJITSU TEN (THAILAN17032QR0076   17035SR0050   D171001008    D171001015    000000                                                                              *R         20170929RDF1709297.TXT
MDEFH9T26088201710                D89831229200PT4F20171004000004RADIO;AM/FM,CD                M IMCTM S7TS03 FTTL  07070IMCT  S7 PTB  00003                    2230 SR        000000000000 FUJITSU TEN (THAILAN17032QR0075   17032QR0078   D171001007    D171001010    000000                                                                              *R         20170929RDF1709297.TXT
MDEFH9271400201710                D89828070100PV4F20171004000008SPEAKER ASM                   M IMCTM S7FL05 FTTL  07070IMCT  S7 PTB  00004                    2100 SR        000000000000 FUJITSU TEN (THAILAN17032QR0069   17032QR0072   D171001001    D171001004    000000                                                                              *R         20170929RDF1709297.TXT
MDEFH9271401201710                D89828070100PV4F20171004000024SPEAKER ASM                   M IMCTM S7FL05 FTTL  07070IMCT  S7 PTB  00004                    2230 SR        000000000000 FUJITSU TEN (THAILAN17032QR0073   17050MR0088   D171001005    F171001101    000000                                                                              *R         20170929RDF1709297.TXT
MDEFH9271402201710                D89828070100PV4F20171005000008SPEAKER ASM                   M IMCTM S7FL05 FTTL  07070IMCT  S7 PTB  00004                    0230 SR        000000000000 FUJITSU TEN (THAILAN17052MR0091   17054MR0051   F171001102    F171001105    000000                                                                              *R         20170929RDF1709297.TXT
MDEFH9271403201710                D89828070100PV4F20171005000020SPEAKER ASM                   M IMCTM S7FL05 FTTL  07070IMCT  S7 PTB  00004                    0400 SR        000000000000 FUJITSU TEN (THAILAN17054MR0052   17054MR0061   F171001106    F171001115    000000                                                                              *R         20170929RDF1709297.TXT
MDEFH9271404201710                D89828070100PV4F20171005000024SPEAKER ASM                   M IMCTM S7FL05 FTTL  07070IMCT  S7 PTB  00004                    1030 SR        000000000000 FUJITSU TEN (THAILAN17027NR0061   17052RR0015   R171001201    R171001212    000000                                                                              *R         20170929RDF1709297.TXT
MDEFH9271405201710                D89828070200PV4F20171004000010SPEAKER ASM                   M IMCTM S7TS02 FTTL  07070IMCT  S7 PTB  00005                    2100 SR        000000000000 FUJITSU TEN (THAILAN17032QR0069   17032QR0073   D171001001    D171001005    000000                                                                              *R         20170929RDF1709297.TXT
MDEFH9271406201710                D89828070300PT4F20171004000015SPEAKER ASM                   M IMCTM S7TS02 FTTL  07070IMCT  S7 PTB  00015                    2100 SR        000000000000 FUJITSU TEN (THAILAN17032QR0069   17032QR0076   D171001001    D171001008    000000                                                                              *R         20170929RDF1709297.TXT
MDEFH9271407201710                D89831229200PT4F20171004000006RADIO;AM/FM,CD                M IMCTM S7TS03 FTTL  07070IMCT  S7 PTB  00003                    2100 SR        000000000000 FUJITSU TEN (THAILAN17032QR0069   17032QR0074   D171001001    D171001006    000000                                                                              *R         20170929RDF1709297.TXT
