REC2017100420171004ISUZU                              58     
MDDDHO205982201710                D89821984430PT1D20171007000030RADIO;AM/FM,CD                M IMCTM S5NC06 FTTL  07070IMCT  S5 PTB  00005                    2230 SR        000000000000 FUJITSU TEN (THAILAN180LNFL0001001                                                                                                                              *          20171004WMF1710043.TXT
MDDDHO205983201710                D89821984430PT1D20171008000030RADIO;AM/FM,CD                M IMCTM S5NC06 FTTL  07070IMCT  S5 PTB  00005                    0400 SR        000000000000 FUJITSU TEN (THAILAN180LNGL0005005                                                                                                                              *          20171004WMF1710043.TXT
MDDDHO205984201710                D89821984430PT1D20171009000030RADIO;AM/FM,CD                M IMCTM S5NC06 FTTL  07070IMCT  S5 PTB  00005                    1300 SR        000000000000 FUJITSU TEN (THAILAN180LNHL0003003                                                                                                                              *          20171004WMF1710043.TXT
MDDDHO205985201710                D89828070100PV1D20171007000060SPEAKER ASM                   M IMCTM S5MB11 FTTL  07070IMCT  S5 PTB  00004                    2230 SR        000000000000 FUJITSU TEN (THAILAN180LNFL0001001                                                                                                                              *          20171004WMF1710043.TXT
MDDDHO205986201710                D89828070100PV1D20171008000060SPEAKER ASM                   M IMCTM S5MB11 FTTL  07070IMCT  S5 PTB  00004                    0400 SR        000000000000 FUJITSU TEN (THAILAN180LNGL0005005                                                                                                                              *          20171004WMF1710043.TXT
MDDDHO205987201710                D89828070100PV1D20171009000060SPEAKER ASM                   M IMCTM S5MB11 FTTL  07070IMCT  S5 PTB  00004                    1300 SR        000000000000 FUJITSU TEN (THAILAN180LNHL0003003                                                                                                                              *          20171004WMF1710043.TXT
MDDUHO203418201710                D89828070100PT4U20171007000030SPEAKER ASM                   M IMCTM S0FL05 FTTL  07070IMCT  S0 PTB  00004                    2230 SR        000000000000 FUJITSU TEN (THAILAN180LUEU0190190                                                                                                                              *          20171004WMF1710043.TXT
MDDUHO203419201710                D89828070100PT4U20171009000030SPEAKER ASM                   M IMCTM S0FL05 FTTL  07070IMCT  S0 PTB  00004                    1030 SR        000000000000 FUJITSU TEN (THAILAN180LUEU0191191                                                                                                                              *          20171004WMF1710043.TXT
MDDUHO203420201710                D89828070200PV4U20171007000030SPEAKER ASM                   M IMCTM S0FR05 FTTL  07070IMCT  S0 PTB  00005                    2230 SR        000000000000 FUJITSU TEN (THAILAN180LUEU0190190                                                                                                                              *          20171004WMF1710043.TXT
MDDUHO203421201710                D89828070200PV4U20171009000030SPEAKER ASM                   M IMCTM S0FR05 FTTL  07070IMCT  S0 PTB  00005                    1030 SR        000000000000 FUJITSU TEN (THAILAN180LUEU0191191                                                                                                                              *          20171004WMF1710043.TXT
MDDUHO203422201710                D89828070300PT4U20171007000030SPEAKER ASM                   M IMCTM S9TS02 FTTL  07070IMCT  S9 PTB  00015                    2230 SR        000000000000 FUJITSU TEN (THAILAN180LUEU0190190                                                                                                                              *          20171004WMF1710043.TXT
MDDUHO203423201710                D89828070300PT4U20171009000030SPEAKER ASM                   M IMCTM S9TS02 FTTL  07070IMCT  S9 PTB  00015                    1030 SR        000000000000 FUJITSU TEN (THAILAN180LUEU0191191                                                                                                                              *          20171004WMF1710043.TXT
MDEDHO214183201710                D89828070100PV1D20171007000060SPEAKER ASM                   M IMCTM S5MB11 FTTL  07070IMCT  S5 PTB  00004                    2230 SR        000000000000 FUJITSU TEN (THAILAN17031NL0006007                                                                                                                              *          20171004WMF1710043.TXT
MDEDHO214184201710                D89828070100PV1D20171008000060SPEAKER ASM                   M IMCTM S5MB11 FTTL  07070IMCT  S5 PTB  00004                    0230 SR        000000000000 FUJITSU TEN (THAILAN17066NL004904917073NL0011011                                                                                                                *          20171004WMF1710043.TXT
MDEDHO214185201710                D89828070100PV1D20171008000030SPEAKER ASM                   M IMCTM S5MB11 FTTL  07070IMCT  S5 PTB  00004                    0400 SR        000000000000 FUJITSU TEN (THAILAN17067ML0004004                                                                                                                              *          20171004WMF1710043.TXT
MDEDHO214186201710                D89828070100PV1D20171009000060SPEAKER ASM                   M IMCTM S5MB11 FTTL  07070IMCT  S5 PTB  00004                    0830 SR        000000000000 FUJITSU TEN (THAILAN17044ML001701717053NL0059059                                                                                                                *          20171004WMF1710043.TXT
MDEDHO214187201710                D89828070100PV1D20171009000090SPEAKER ASM                   M IMCTM S5MB11 FTTL  07070IMCT  S5 PTB  00004                    1030 SR        000000000000 FUJITSU TEN (THAILAN17046QL002202217060NL0039040                                                                                                                *          20171004WMF1710043.TXT
MDEDHO214188201710                D89828070100PV1D20171009000090SPEAKER ASM                   M IMCTM S5MB11 FTTL  07070IMCT  S5 PTB  00004                    1300 SR        000000000000 FUJITSU TEN (THAILAN17028NL001701817067ML0005005                                                                                                                *          20171004WMF1710043.TXT
MDEDHO214189201710                D89828070100PV1D20171009000030SPEAKER ASM                   M IMCTM S5MB11 FTTL  07070IMCT  S5 PTB  00004                    1600 SR        000000000000 FUJITSU TEN (THAILAN17055NL0064064                                                                                                                              *          20171004WMF1710043.TXT
MDEDHO214190201710                D89828070100PV1D20171009000060SPEAKER ASM                   M IMCTM S5MB11 FTTL  07070IMCT  S5 PTB  00004                    2100 SR        000000000000 FUJITSU TEN (THAILAN17041PL005405417055NL0065065                                                                                                                *          20171004WMF1710043.TXT
MDEDHO214191201710                D89828070100PV1D20171009000030SPEAKER ASM                   M IMCTM S5MB11 FTTL  07070IMCT  S5 PTB  00004                    2230 SR        000000000000 FUJITSU TEN (THAILAN17041PL0055055                                                                                                                              *          20171004WMF1710043.TXT
MDEDHO214192201710                D89828070100PV4D20171009000030SPEAKER ASM                   M IMCTM S0FL05 FTTL  07070IMCT  S0 PTB  00004                    1600 SR        000000000000 FUJITSU TEN (THAILAN17080NU0063063                                                                                                                              *          20171004WMF1710043.TXT
MDEDHO214193201710                D89828070200PV1D20171008000030SPEAKER ASM                   M IMCTM S5MA14 FTTL  07070IMCT  S5 PTB  00005                    0230 SR        000000000000 FUJITSU TEN (THAILAN17073NL0011011                                                                                                                              *          20171004WMF1710043.TXT
MDEDHO214194201710                D89828070200PV1D20171009000090SPEAKER ASM                   M IMCTM S5MA14 FTTL  07070IMCT  S5 PTB  00005                    1030 SR        000000000000 FUJITSU TEN (THAILAN17046QL002202217060NL0039040                                                                                                                *          20171004WMF1710043.TXT
MDEDHO214195201710                D89828070200PV4D20171009000030SPEAKER ASM                   M IMCTM S0FR05 FTTL  07070IMCT  S0 PTB  00005                    1600 SR        000000000000 FUJITSU TEN (THAILAN17080NU0063063                                                                                                                              *          20171004WMF1710043.TXT
MDEDHO214196201710                D89828070300PT1D20171008000060SPEAKER ASM                   M IMCTM S5NB082FTTL  07070IMCT  S5 PTB  00015                    0230 SR        000000000000 FUJITSU TEN (THAILAN17066NL004904917073NL0011011                                                                                                                *          20171004WMF1710043.TXT
MDEDHO214197201710                D89828070300PT1D20171008000030SPEAKER ASM                   M IMCTM S5NB082FTTL  07070IMCT  S5 PTB  00015                    0400 SR        000000000000 FUJITSU TEN (THAILAN17067ML0004004                                                                                                                              *          20171004WMF1710043.TXT
MDEDHO214198201710                D89828070300PT1D20171009000030SPEAKER ASM                   M IMCTM S5NB082FTTL  07070IMCT  S5 PTB  00015                    0830 SR        000000000000 FUJITSU TEN (THAILAN17053NL0059059                                                                                                                              *          20171004WMF1710043.TXT
MDEDHO214199201710                D89828070300PT1D20171009000090SPEAKER ASM                   M IMCTM S5NB082FTTL  07070IMCT  S5 PTB  00015                    1030 SR        000000000000 FUJITSU TEN (THAILAN17046QL002202217060NL0039040                                                                                                                *          20171004WMF1710043.TXT
MDEDHO214200201710                D89828070300PT1D20171009000030SPEAKER ASM                   M IMCTM S5NB082FTTL  07070IMCT  S5 PTB  00015                    1300 SR        000000000000 FUJITSU TEN (THAILAN17067ML0005005                                                                                                                              *          20171004WMF1710043.TXT
MDEDHO214201201710                D89828070300PT1D20171009000030SPEAKER ASM                   M IMCTM S5NB082FTTL  07070IMCT  S5 PTB  00015                    1600 SR        000000000000 FUJITSU TEN (THAILAN17055NL0064064                                                                                                                              *          20171004WMF1710043.TXT
MDEDHO214202201710                D89828070300PT1D20171009000030SPEAKER ASM                   M IMCTM S5NB082FTTL  07070IMCT  S5 PTB  00015                    2100 SR        000000000000 FUJITSU TEN (THAILAN17055NL0065065                                                                                                                              *          20171004WMF1710043.TXT
MDEDHO214203201710                D89828070300PT4D20171009000030SPEAKER ASM                   M IMCTM S9TS02 FTTL  07070IMCT  S9 PTB  00015                    1600 SR        000000000000 FUJITSU TEN (THAILAN17080NU0063063                                                                                                                              *          20171004WMF1710043.TXT
MDEDHO214204201710                D89829622410PT1D20171008000015RADIO;ASM DVD                 M IMCTM S5NC06 FTTL  07070IMCT  S5 PTB  00003                    0400 SR        000000000000 FUJITSU TEN (THAILAN17067ML0004004                                                                                                                              *          20171004WMF1710043.TXT
MDEDHO214205201710                D89829622410PT1D20171009000015RADIO;ASM DVD                 M IMCTM S5NC06 FTTL  07070IMCT  S5 PTB  00003                    1300 SR        000000000000 FUJITSU TEN (THAILAN17067ML0005005                                                                                                                              *          20171004WMF1710043.TXT
MDEDHO214206201710                D89848581800PT1D20171008000015RADIO;AM/FM CD D              M IMCTM S5NC06 FTTL  07070IMCT  S5 PTB  00003                    0230 SR        000000000000 FUJITSU TEN (THAILAN17073NL0011011                                                                                                                              *          20171004WMF1710043.TXT
MDEDHO214207201710                D89848581800PT1D20171009000015RADIO;AM/FM CD D              M IMCTM S5NC06 FTTL  07070IMCT  S5 PTB  00003                    0830 SR        000000000000 FUJITSU TEN (THAILAN17053NL0059059                                                                                                                              *          20171004WMF1710043.TXT
MDEDHO214208201710                D89848581800PT1D20171009000015RADIO;AM/FM CD D              M IMCTM S5NC06 FTTL  07070IMCT  S5 PTB  00003                    1600 SR        000000000000 FUJITSU TEN (THAILAN17055NL0064064                                                                                                                              *          20171004WMF1710043.TXT
MDEDHO214209201710                D89848581800PT1D20171009000015RADIO;AM/FM CD D              M IMCTM S5NC06 FTTL  07070IMCT  S5 PTB  00003                    2100 SR        000000000000 FUJITSU TEN (THAILAN17055NL0065065                                                                                                                              *          20171004WMF1710043.TXT
MDEDHO214210201710                D89848582500PT1D20171008000015RADIO;AM/FM CD D              M IMCTM S5NC06 FTTL  07070IMCT  S5 PTB  00003                    0230 SR        000000000000 FUJITSU TEN (THAILAN17066NL0049049                                                                                                                              *          20171004WMF1710043.TXT
MDEUHO209837201710                D89828070100PT4U20171007000030SPEAKER ASM                   M IMCTM S0FL05 FTTL  07070IMCT  S0 PTB  00004                    2230 SR        000000000000 FUJITSU TEN (THAILAN18078SU0135135                                                                                                                              *          20171004WMF1710043.TXT
MDEUHO209838201710                D89828070100PT4U20171008000060SPEAKER ASM                   M IMCTM S0FL05 FTTL  07070IMCT  S0 PTB  00004                    0400 SR        000000000000 FUJITSU TEN (THAILAN170C12U0089089170C13U0145145                                                                                                                *          20171004WMF1710043.TXT
MDEUHO209839201710                D89828070100PT4U20171009000030SPEAKER ASM                   M IMCTM S0FL05 FTTL  07070IMCT  S0 PTB  00004                    0830 SR        000000000000 FUJITSU TEN (THAILAN170C13U0146146                                                                                                                              *          20171004WMF1710043.TXT
MDEUHO209840201710                D89828070100PT4U20171009000060SPEAKER ASM                   M IMCTM S0FL05 FTTL  07070IMCT  S0 PTB  00004                    1300 SR        000000000000 FUJITSU TEN (THAILAN18018TU005005018023TU0187187                                                                                                                *          20171004WMF1710043.TXT
MDEUHO209841201710                D89828070100PT4U20171009000030SPEAKER ASM                   M IMCTM S0FL05 FTTL  07070IMCT  S0 PTB  00004                    1600 SR        000000000000 FUJITSU TEN (THAILAN18078SU0136136                                                                                                                              *          20171004WMF1710043.TXT
MDEUHO209842201710                D89828070100PT4U20171009000030SPEAKER ASM                   M IMCTM S0FL05 FTTL  07070IMCT  S0 PTB  00004                    2100 SR        000000000000 FUJITSU TEN (THAILAN18022TU0085085                                                                                                                              *          20171004WMF1710043.TXT
MDEUHO209843201710                D89828070200PV4U20171007000030SPEAKER ASM                   M IMCTM S0FR05 FTTL  07070IMCT  S0 PTB  00005                    2230 SR        000000000000 FUJITSU TEN (THAILAN18078SU0135135                                                                                                                              *          20171004WMF1710043.TXT
MDEUHO209844201710                D89828070200PV4U20171008000060SPEAKER ASM                   M IMCTM S0FR05 FTTL  07070IMCT  S0 PTB  00005                    0400 SR        000000000000 FUJITSU TEN (THAILAN170C12U0089089170C13U0145145                                                                                                                *          20171004WMF1710043.TXT
MDEUHO209845201710                D89828070200PV4U20171009000030SPEAKER ASM                   M IMCTM S0FR05 FTTL  07070IMCT  S0 PTB  00005                    0830 SR        000000000000 FUJITSU TEN (THAILAN170C13U0146146                                                                                                                              *          20171004WMF1710043.TXT
MDEUHO209846201710                D89828070200PV4U20171009000060SPEAKER ASM                   M IMCTM S0FR05 FTTL  07070IMCT  S0 PTB  00005                    1300 SR        000000000000 FUJITSU TEN (THAILAN18018TU005005018023TU0187187                                                                                                                *          20171004WMF1710043.TXT
MDEUHO209847201710                D89828070200PV4U20171009000030SPEAKER ASM                   M IMCTM S0FR05 FTTL  07070IMCT  S0 PTB  00005                    1600 SR        000000000000 FUJITSU TEN (THAILAN18078SU0136136                                                                                                                              *          20171004WMF1710043.TXT
MDEUHO209848201710                D89828070200PV4U20171009000030SPEAKER ASM                   M IMCTM S0FR05 FTTL  07070IMCT  S0 PTB  00005                    2100 SR        000000000000 FUJITSU TEN (THAILAN18022TU0085085                                                                                                                              *          20171004WMF1710043.TXT
MDEUHO209849201710                D89828070300PT4U20171007000030SPEAKER ASM                   M IMCTM S9TS02 FTTL  07070IMCT  S9 PTB  00015                    2230 SR        000000000000 FUJITSU TEN (THAILAN18078SU0135135                                                                                                                              *          20171004WMF1710043.TXT
MDEUHO209850201710                D89828070300PT4U20171008000060SPEAKER ASM                   M IMCTM S9TS02 FTTL  07070IMCT  S9 PTB  00015                    0400 SR        000000000000 FUJITSU TEN (THAILAN170C12U0089089170C13U0145145                                                                                                                *          20171004WMF1710043.TXT
MDEUHO209851201710                D89828070300PT4U20171009000030SPEAKER ASM                   M IMCTM S9TS02 FTTL  07070IMCT  S9 PTB  00015                    0830 SR        000000000000 FUJITSU TEN (THAILAN170C13U0146146                                                                                                                              *          20171004WMF1710043.TXT
MDEUHO209852201710                D89828070300PT4U20171009000060SPEAKER ASM                   M IMCTM S9TS02 FTTL  07070IMCT  S9 PTB  00015                    1300 SR        000000000000 FUJITSU TEN (THAILAN18018TU005005018023TU0187187                                                                                                                *          20171004WMF1710043.TXT
MDEUHO209853201710                D89828070300PT4U20171009000030SPEAKER ASM                   M IMCTM S9TS02 FTTL  07070IMCT  S9 PTB  00015                    1600 SR        000000000000 FUJITSU TEN (THAILAN18078SU0136136                                                                                                                              *          20171004WMF1710043.TXT
MDEUHO209854201710                D89828070300PT4U20171009000030SPEAKER ASM                   M IMCTM S9TS02 FTTL  07070IMCT  S9 PTB  00015                    2100 SR        000000000000 FUJITSU TEN (THAILAN18022TU0085085                                                                                                                              *          20171004WMF1710043.TXT
