REC2017101120171011ISUZU                              29     
MAKK7O104621201710D1               89805293700P3YK20171023000150SPEAKER ASM                   M IMCTM CM1    FTTL  07070IMKDC KA   PTB00003  K0                0900DES        000000000000 FUJITSU TEN (THAILAN                                                                                                                                            *G         20171011WMF1710117.TXT
MAKK7O104622201710D1               89805293700P3YK20171024000180SPEAKER ASM                   M IMCTM CM1    FTTL  07070IMKDC KA   PTB00003  K0                0900DES        000000000000 FUJITSU TEN (THAILAN                                                                                                                                            *G         20171011WMF1710117.TXT
MAKK7O104623201710D1               89805293700P3YK20171025000150SPEAKER ASM                   M IMCTM CM1    FTTL  07070IMKDC KA   PTB00003  K0                0900DES        000000000000 FUJITSU TEN (THAILAN                                                                                                                                            *G         20171011WMF1710117.TXT
MAKK7O104624201710D1               89805293700P3YK20171027000150SPEAKER ASM                   M IMCTM CM1    FTTL  07070IMKDC KA   PTB00003  K0                0900DES        000000000000 FUJITSU TEN (THAILAN                                                                                                                                            *G         20171011WMF1710117.TXT
MAKK7O104625201710D1               89805293700P3YK20171028000120SPEAKER ASM                   M IMCTM CM1    FTTL  07070IMKDC KA   PTB00003  K0                0900DES        000000000000 FUJITSU TEN (THAILAN                                                                                                                                            *G         20171011WMF1710117.TXT
MAKK7O104626201710D1               89805294000P3YK20171024000030SPEAKER ASM                   M IMCTM CM1    FTTL  07070IMKDC KA   PTB00015  K0                0900DES        000000000000 FUJITSU TEN (THAILAN                                                                                                                                            *G         20171011WMF1710117.TXT
MAKK7O104627201710D1               89805294000P3YK20171025000030SPEAKER ASM                   M IMCTM CM1    FTTL  07070IMKDC KA   PTB00015  K0                0900DES        000000000000 FUJITSU TEN (THAILAN                                                                                                                                            *G         20171011WMF1710117.TXT
MAKK7O104628201710D1               89805294100P3YK20171024000030SPEAKER ASM                   M IMCTM CM1    FTTL  07070IMKDC KA   PTB00005  K0                0900DES        000000000000 FUJITSU TEN (THAILAN                                                                                                                                            *G         20171011WMF1710117.TXT
MAKK7O104629201710D1               89805294100P3YK20171025000030SPEAKER ASM                   M IMCTM CM1    FTTL  07070IMKDC KA   PTB00005  K0                0900DES        000000000000 FUJITSU TEN (THAILAN                                                                                                                                            *G         20171011WMF1710117.TXT
MAKK7O104630201710D1               89825451200P3YK20171023000090SPEAKER ASM;ROOF              M IMCTM CM1    FTTL  07070IMKDC KA   PTB00015  K0                0900DES        000000000000 FUJITSU TEN (THAILAN                                                                                                                                            *G         20171011WMF1710117.TXT
MAKK7O104631201710D1               89825451200P3YK20171024000060SPEAKER ASM;ROOF              M IMCTM CM1    FTTL  07070IMKDC KA   PTB00015  K0                0900DES        000000000000 FUJITSU TEN (THAILAN                                                                                                                                            *G         20171011WMF1710117.TXT
MAKK7O104632201710D1               89825451200P3YK20171025000030SPEAKER ASM;ROOF              M IMCTM CM1    FTTL  07070IMKDC KA   PTB00015  K0                0900DES        000000000000 FUJITSU TEN (THAILAN                                                                                                                                            *G         20171011WMF1710117.TXT
MAKK7O104633201710D1               89825451200P3YK20171027000030SPEAKER ASM;ROOF              M IMCTM CM1    FTTL  07070IMKDC KA   PTB00015  K0                0900DES        000000000000 FUJITSU TEN (THAILAN                                                                                                                                            *G         20171011WMF1710117.TXT
MAKK7O104634201710D1               89825451200P3YK20171028000060SPEAKER ASM;ROOF              M IMCTM CM1    FTTL  07070IMKDC KA   PTB00015  K0                0900DES        000000000000 FUJITSU TEN (THAILAN                                                                                                                                            *G         20171011WMF1710117.TXT
MAKK7O104635201710D1               89828070100P3YK20171023000090SPEAKER ASM                   M IMCTM CM1    FTTL  07070IMKDC KA PTB  00004  K0                0900DES        000000000000 FUJITSU TEN (THAILAN                                                                                                                                            *G         20171011WMF1710117.TXT
MAKK7O104636201710D1               89828070100P3YK20171024000060SPEAKER ASM                   M IMCTM CM1    FTTL  07070IMKDC KA PTB  00004  K0                0900DES        000000000000 FUJITSU TEN (THAILAN                                                                                                                                            *G         20171011WMF1710117.TXT
MAKK7O104637201710D1               89828070100P3YK20171025000090SPEAKER ASM                   M IMCTM CM1    FTTL  07070IMKDC KA PTB  00004  K0                0900DES        000000000000 FUJITSU TEN (THAILAN                                                                                                                                            *G         20171011WMF1710117.TXT
MAKK7O104638201710D1               89828070100P3YK20171027000060SPEAKER ASM                   M IMCTM CM1    FTTL  07070IMKDC KA PTB  00004  K0                0900DES        000000000000 FUJITSU TEN (THAILAN                                                                                                                                            *G         20171011WMF1710117.TXT
MAKK7O104639201710D1               89828070100P3YK20171028000090SPEAKER ASM                   M IMCTM CM1    FTTL  07070IMKDC KA PTB  00004  K0                0900DES        000000000000 FUJITSU TEN (THAILAN                                                                                                                                            *G         20171011WMF1710117.TXT
MAKK7O104640201710D1               89828070200P3YK20171023000060SPEAKER ASM                   M IMCTM CM1    FTTL  07070IMKDC KA PTB  00005  K0                0900DES        000000000000 FUJITSU TEN (THAILAN                                                                                                                                            *G         20171011WMF1710117.TXT
MAKK7O104641201710D1               89828070200P3YK20171024000030SPEAKER ASM                   M IMCTM CM1    FTTL  07070IMKDC KA PTB  00005  K0                0900DES        000000000000 FUJITSU TEN (THAILAN                                                                                                                                            *G         20171011WMF1710117.TXT
MAKK7O104642201710D1               89828070200P3YK20171025000060SPEAKER ASM                   M IMCTM CM1    FTTL  07070IMKDC KA PTB  00005  K0                0900DES        000000000000 FUJITSU TEN (THAILAN                                                                                                                                            *G         20171011WMF1710117.TXT
MAKK7O104643201710D1               89828070200P3YK20171027000060SPEAKER ASM                   M IMCTM CM1    FTTL  07070IMKDC KA PTB  00005  K0                0900DES        000000000000 FUJITSU TEN (THAILAN                                                                                                                                            *G         20171011WMF1710117.TXT
MAKK7O104644201710D1               89828070200P3YK20171028000060SPEAKER ASM                   M IMCTM CM1    FTTL  07070IMKDC KA PTB  00005  K0                0900DES        000000000000 FUJITSU TEN (THAILAN                                                                                                                                            *G         20171011WMF1710117.TXT
MAKK7O104645201710D1               89828070300P3YK20171023000090SPEAKER ASM                   M IMCTM CM1    FTTL  07070IMKDC KA PTB  00015  K0                0900DES        000000000000 FUJITSU TEN (THAILAN                                                                                                                                            *G         20171011WMF1710117.TXT
MAKK7O104646201710D1               89828070300P3YK20171024000030SPEAKER ASM                   M IMCTM CM1    FTTL  07070IMKDC KA PTB  00015  K0                0900DES        000000000000 FUJITSU TEN (THAILAN                                                                                                                                            *G         20171011WMF1710117.TXT
MAKK7O104647201710D1               89828070300P3YK20171025000060SPEAKER ASM                   M IMCTM CM1    FTTL  07070IMKDC KA PTB  00015  K0                0900DES        000000000000 FUJITSU TEN (THAILAN                                                                                                                                            *G         20171011WMF1710117.TXT
MAKK7O104648201710D1               89828070300P3YK20171027000060SPEAKER ASM                   M IMCTM CM1    FTTL  07070IMKDC KA PTB  00015  K0                0900DES        000000000000 FUJITSU TEN (THAILAN                                                                                                                                            *G         20171011WMF1710117.TXT
MAKK7O104649201710D1               89828070300P3YK20171028000060SPEAKER ASM                   M IMCTM CM1    FTTL  07070IMKDC KA PTB  00015  K0                0900DES        000000000000 FUJITSU TEN (THAILAN                                                                                                                                            *G         20171011WMF1710117.TXT
