REC2017100920171009ISUZU                              57     
MDDDHO218179201710                D89821984430PT1D20171013000030RADIO;AM/FM,CD                M IMCTM S5NC06 FTTL  07070IMCT  S5 PTB  00005                    0400 SR        000000000000 FUJITSU TEN (THAILAN180LNGL0011011                                                                                                                              *          20171009WMF1710094.TXT
MDDDHO218180201710                D89821984430PT1D20171016000030RADIO;AM/FM,CD                M IMCTM S5NC06 FTTL  07070IMCT  S5 PTB  00005                    1600 SR        000000000000 FUJITSU TEN (THAILAN180LNCL0008008                                                                                                                              *          20171009WMF1710094.TXT
MDDDHO218181201710                D89828070100PV1D20171012000060SPEAKER ASM                   M IMCTM S5MB11 FTTL  07070IMCT  S5 PTB  00004                    2230 SR        000000000000 FUJITSU TEN (THAILAN180LPJL0001001                                                                                                                              *          20171009WMF1710094.TXT
MDDDHO218182201710                D89828070100PV1D20171013000120SPEAKER ASM                   M IMCTM S5MB11 FTTL  07070IMCT  S5 PTB  00004                    0400 SR        000000000000 FUJITSU TEN (THAILAN180LNGL0011011180LPML0001001                                                                                                                *          20171009WMF1710094.TXT
MDDDHO218183201710                D89828070100PV1D20171016000060SPEAKER ASM                   M IMCTM S5MB11 FTTL  07070IMCT  S5 PTB  00004                    0830 SR        000000000000 FUJITSU TEN (THAILAN180LPGL0001001                                                                                                                              *          20171009WMF1710094.TXT
MDDDHO218184201710                D89828070100PV1D20171016000060SPEAKER ASM                   M IMCTM S5MB11 FTTL  07070IMCT  S5 PTB  00004                    1030 SR        000000000000 FUJITSU TEN (THAILAN180LPGL0002002                                                                                                                              *          20171009WMF1710094.TXT
MDDDHO218185201710                D89828070100PV1D20171016000060SPEAKER ASM                   M IMCTM S5MB11 FTTL  07070IMCT  S5 PTB  00004                    1300 SR        000000000000 FUJITSU TEN (THAILAN180LPNL0001001                                                                                                                              *          20171009WMF1710094.TXT
MDDDHO218186201710                D89828070100PV1D20171016000060SPEAKER ASM                   M IMCTM S5MB11 FTTL  07070IMCT  S5 PTB  00004                    1600 SR        000000000000 FUJITSU TEN (THAILAN180LNCL0008008                                                                                                                              *          20171009WMF1710094.TXT
MDDDHO218187201710                D89828070100PV1D20171016000060SPEAKER ASM                   M IMCTM S5MB11 FTTL  07070IMCT  S5 PTB  00004                    2100 SR        000000000000 FUJITSU TEN (THAILAN180LPHL0001001                                                                                                                              *          20171009WMF1710094.TXT
MDDDHO218188201710                D89828070300PT1D20171012000060SPEAKER ASM                   M IMCTM S5NB082FTTL  07070IMCT  S5 PTB  00015                    2230 SR        000000000000 FUJITSU TEN (THAILAN180LPJL0001001                                                                                                                              *          20171009WMF1710094.TXT
MDDDHO218189201710                D89828070300PT1D20171013000060SPEAKER ASM                   M IMCTM S5NB082FTTL  07070IMCT  S5 PTB  00015                    0400 SR        000000000000 FUJITSU TEN (THAILAN180LPML0001001                                                                                                                              *          20171009WMF1710094.TXT
MDDDHO218190201710                D89828070300PT1D20171016000060SPEAKER ASM                   M IMCTM S5NB082FTTL  07070IMCT  S5 PTB  00015                    0830 SR        000000000000 FUJITSU TEN (THAILAN180LPGL0001001                                                                                                                              *          20171009WMF1710094.TXT
MDDDHO218191201710                D89828070300PT1D20171016000060SPEAKER ASM                   M IMCTM S5NB082FTTL  07070IMCT  S5 PTB  00015                    1030 SR        000000000000 FUJITSU TEN (THAILAN180LPGL0002002                                                                                                                              *          20171009WMF1710094.TXT
MDDDHO218192201710                D89828070300PT1D20171016000060SPEAKER ASM                   M IMCTM S5NB082FTTL  07070IMCT  S5 PTB  00015                    1300 SR        000000000000 FUJITSU TEN (THAILAN180LPNL0001001                                                                                                                              *          20171009WMF1710094.TXT
MDDDHO218193201710                D89828070300PT1D20171016000060SPEAKER ASM                   M IMCTM S5NB082FTTL  07070IMCT  S5 PTB  00015                    2100 SR        000000000000 FUJITSU TEN (THAILAN180LPHL0001001                                                                                                                              *          20171009WMF1710094.TXT
MDDDHO218194201710                D89831228300PT1D20171012000030RADIO;AM/FM,CD                M IMCTM S5NC06 FTTL  07070IMCT  S5 CPB  00003                    2230 SR        000000000000 FUJITSU TEN (THAILAN180LPJL0001001                                                                                                                              *          20171009WMF1710094.TXT
MDDDHO218195201710                D89831228300PT1D20171016000030RADIO;AM/FM,CD                M IMCTM S5NC06 FTTL  07070IMCT  S5 CPB  00003                    0830 SR        000000000000 FUJITSU TEN (THAILAN180LPGL0001001                                                                                                                              *          20171009WMF1710094.TXT
MDDDHO218196201710                D89831228300PT1D20171016000030RADIO;AM/FM,CD                M IMCTM S5NC06 FTTL  07070IMCT  S5 CPB  00003                    1030 SR        000000000000 FUJITSU TEN (THAILAN180LPGL0002002                                                                                                                              *          20171009WMF1710094.TXT
MDDDHO218197201710                D89831228300PT1D20171016000030RADIO;AM/FM,CD                M IMCTM S5NC06 FTTL  07070IMCT  S5 CPB  00003                    2100 SR        000000000000 FUJITSU TEN (THAILAN180LPHL0001001                                                                                                                              *          20171009WMF1710094.TXT
MDDUHO207114201710                D89828070100PT4U20171012000030SPEAKER ASM                   M IMCTM S0FL05 FTTL  07070IMCT  S0 PTB  00004                    2230 SR        000000000000 FUJITSU TEN (THAILAN180LUFU0054054                                                                                                                              *          20171009WMF1710094.TXT
MDDUHO207115201710                D89828070100PT4U20171016000030SPEAKER ASM                   M IMCTM S0FL05 FTTL  07070IMCT  S0 PTB  00004                    0830 SR        000000000000 FUJITSU TEN (THAILAN180LUJU0001001                                                                                                                              *          20171009WMF1710094.TXT
MDDUHO207116201710                D89828070100PT4U20171016000030SPEAKER ASM                   M IMCTM S0FL05 FTTL  07070IMCT  S0 PTB  00004                    1300 SR        000000000000 FUJITSU TEN (THAILAN180LUKU0002002                                                                                                                              *          20171009WMF1710094.TXT
MDDUHO207117201710                D89828070200PV4U20171012000030SPEAKER ASM                   M IMCTM S0FR05 FTTL  07070IMCT  S0 PTB  00005                    2230 SR        000000000000 FUJITSU TEN (THAILAN180LUFU0054054                                                                                                                              *          20171009WMF1710094.TXT
MDDUHO207118201710                D89828070200PV4U20171016000030SPEAKER ASM                   M IMCTM S0FR05 FTTL  07070IMCT  S0 PTB  00005                    0830 SR        000000000000 FUJITSU TEN (THAILAN180LUJU0001001                                                                                                                              *          20171009WMF1710094.TXT
MDDUHO207119201710                D89828070200PV4U20171016000030SPEAKER ASM                   M IMCTM S0FR05 FTTL  07070IMCT  S0 PTB  00005                    1300 SR        000000000000 FUJITSU TEN (THAILAN180LUKU0002002                                                                                                                              *          20171009WMF1710094.TXT
MDDUHO207120201710                D89828070300PT4U20171012000030SPEAKER ASM                   M IMCTM S9TS02 FTTL  07070IMCT  S9 PTB  00015                    2230 SR        000000000000 FUJITSU TEN (THAILAN180LUFU0054054                                                                                                                              *          20171009WMF1710094.TXT
MDDUHO207121201710                D89828070300PT4U20171016000030SPEAKER ASM                   M IMCTM S9TS02 FTTL  07070IMCT  S9 PTB  00015                    0830 SR        000000000000 FUJITSU TEN (THAILAN180LUJU0001001                                                                                                                              *          20171009WMF1710094.TXT
MDDUHO207122201710                D89828070300PT4U20171016000030SPEAKER ASM                   M IMCTM S9TS02 FTTL  07070IMCT  S9 PTB  00015                    1300 SR        000000000000 FUJITSU TEN (THAILAN180LUKU0002002                                                                                                                              *          20171009WMF1710094.TXT
MDDUHO207123201710                D89848584200PT4U20171016000015RADIO;AM/FM CD D              M IMCTM S9CO001FTTL  07070IMCT  S9 PTB  00003                    0830 SR        000000000000 FUJITSU TEN (THAILAN180LUJU0001001                                                                                                                              *          20171009WMF1710094.TXT
MDEDHO240769201710                D89828070100PV1D20171012000060SPEAKER ASM                   M IMCTM S5MB11 FTTL  07070IMCT  S5 PTB  00004                    2230 SR        000000000000 FUJITSU TEN (THAILAN17079QL0017018                                                                                                                              *          20171009WMF1710094.TXT
MDEDHO240770201710                D89828070100PV1D20171013000030SPEAKER ASM                   M IMCTM S5MB11 FTTL  07070IMCT  S5 PTB  00004                    0230 SR        000000000000 FUJITSU TEN (THAILAN17079QL0019019                                                                                                                              *          20171009WMF1710094.TXT
MDEDHO240771201710                D89828070100PV1D20171016000030SPEAKER ASM                   M IMCTM S5MB11 FTTL  07070IMCT  S5 PTB  00004                    1030 SR        000000000000 FUJITSU TEN (THAILAN17046QL0023023                                                                                                                              *          20171009WMF1710094.TXT
MDEDHO240772201710                D89828070100PV1D20171016000030SPEAKER ASM                   M IMCTM S5MB11 FTTL  07070IMCT  S5 PTB  00004                    1300 SR        000000000000 FUJITSU TEN (THAILAN17041PL0056056                                                                                                                              *          20171009WMF1710094.TXT
MDEDHO240773201710                D89828070100PV1D20171016000030SPEAKER ASM                   M IMCTM S5MB11 FTTL  07070IMCT  S5 PTB  00004                    1600 SR        000000000000 FUJITSU TEN (THAILAN17041PL0057057                                                                                                                              *          20171009WMF1710094.TXT
MDEDHO240774201710                D89828070100PV4D20171016000030SPEAKER ASM                   M IMCTM S0FL05 FTTL  07070IMCT  S0 PTB  00004                    1600 SR        000000000000 FUJITSU TEN (THAILAN17080NU0066066                                                                                                                              *          20171009WMF1710094.TXT
MDEDHO240775201710                D89828070200PV1D20171016000030SPEAKER ASM                   M IMCTM S5MA14 FTTL  07070IMCT  S5 PTB  00005                    1030 SR        000000000000 FUJITSU TEN (THAILAN17046QL0023023                                                                                                                              *          20171009WMF1710094.TXT
MDEDHO240776201710                D89828070200PV4D20171016000030SPEAKER ASM                   M IMCTM S0FR05 FTTL  07070IMCT  S0 PTB  00005                    1600 SR        000000000000 FUJITSU TEN (THAILAN17080NU0066066                                                                                                                              *          20171009WMF1710094.TXT
MDEDHO240777201710                D89828070300PT1D20171016000030SPEAKER ASM                   M IMCTM S5NB082FTTL  07070IMCT  S5 PTB  00015                    1030 SR        000000000000 FUJITSU TEN (THAILAN17046QL0023023                                                                                                                              *          20171009WMF1710094.TXT
MDEDHO240778201710                D89828070300PT4D20171016000030SPEAKER ASM                   M IMCTM S9TS02 FTTL  07070IMCT  S9 PTB  00015                    1600 SR        000000000000 FUJITSU TEN (THAILAN17080NU0066066                                                                                                                              *          20171009WMF1710094.TXT
MDEUHO232099201710                D89828070100PT4U20171012000030SPEAKER ASM                   M IMCTM S0FL05 FTTL  07070IMCT  S0 PTB  00004                    2230 SR        000000000000 FUJITSU TEN (THAILAN170C13U0158158                                                                                                                              *          20171009WMF1710094.TXT
MDEUHO232100201710                D89828070100PT4U20171013000060SPEAKER ASM                   M IMCTM S0FL05 FTTL  07070IMCT  S0 PTB  00004                    0400 SR        000000000000 FUJITSU TEN (THAILAN170C13U015915918078SU0143143                                                                                                                *          20171009WMF1710094.TXT
MDEUHO232101201710                D89828070100PT4U20171016000030SPEAKER ASM                   M IMCTM S0FL05 FTTL  07070IMCT  S0 PTB  00004                    1030 SR        000000000000 FUJITSU TEN (THAILAN170C13U0160160                                                                                                                              *          20171009WMF1710094.TXT
MDEUHO232102201710                D89828070100PT4U20171016000030SPEAKER ASM                   M IMCTM S0FL05 FTTL  07070IMCT  S0 PTB  00004                    1300 SR        000000000000 FUJITSU TEN (THAILAN170C13U0161161                                                                                                                              *          20171009WMF1710094.TXT
MDEUHO232103201710                D89828070100PT4U20171016000030SPEAKER ASM                   M IMCTM S0FL05 FTTL  07070IMCT  S0 PTB  00004                    1600 SR        000000000000 FUJITSU TEN (THAILAN18023TU0193193                                                                                                                              *          20171009WMF1710094.TXT
MDEUHO232104201710                D89828070100PT4U20171016000030SPEAKER ASM                   M IMCTM S0FL05 FTTL  07070IMCT  S0 PTB  00004                    2100 SR        000000000000 FUJITSU TEN (THAILAN170C12U0091091                                                                                                                              *          20171009WMF1710094.TXT
MDEUHO232105201710                D89828070200PV4U20171012000030SPEAKER ASM                   M IMCTM S0FR05 FTTL  07070IMCT  S0 PTB  00005                    2230 SR        000000000000 FUJITSU TEN (THAILAN170C13U0158158                                                                                                                              *          20171009WMF1710094.TXT
MDEUHO232106201710                D89828070200PV4U20171013000060SPEAKER ASM                   M IMCTM S0FR05 FTTL  07070IMCT  S0 PTB  00005                    0400 SR        000000000000 FUJITSU TEN (THAILAN170C13U015915918078SU0143143                                                                                                                *          20171009WMF1710094.TXT
MDEUHO232107201710                D89828070200PV4U20171016000030SPEAKER ASM                   M IMCTM S0FR05 FTTL  07070IMCT  S0 PTB  00005                    1030 SR        000000000000 FUJITSU TEN (THAILAN170C13U0160160                                                                                                                              *          20171009WMF1710094.TXT
MDEUHO232108201710                D89828070200PV4U20171016000030SPEAKER ASM                   M IMCTM S0FR05 FTTL  07070IMCT  S0 PTB  00005                    1300 SR        000000000000 FUJITSU TEN (THAILAN170C13U0161161                                                                                                                              *          20171009WMF1710094.TXT
MDEUHO232109201710                D89828070200PV4U20171016000030SPEAKER ASM                   M IMCTM S0FR05 FTTL  07070IMCT  S0 PTB  00005                    1600 SR        000000000000 FUJITSU TEN (THAILAN18023TU0193193                                                                                                                              *          20171009WMF1710094.TXT
MDEUHO232110201710                D89828070200PV4U20171016000030SPEAKER ASM                   M IMCTM S0FR05 FTTL  07070IMCT  S0 PTB  00005                    2100 SR        000000000000 FUJITSU TEN (THAILAN170C12U0091091                                                                                                                              *          20171009WMF1710094.TXT
MDEUHO232111201710                D89828070300PT4U20171012000030SPEAKER ASM                   M IMCTM S9TS02 FTTL  07070IMCT  S9 PTB  00015                    2230 SR        000000000000 FUJITSU TEN (THAILAN170C13U0158158                                                                                                                              *          20171009WMF1710094.TXT
MDEUHO232112201710                D89828070300PT4U20171013000060SPEAKER ASM                   M IMCTM S9TS02 FTTL  07070IMCT  S9 PTB  00015                    0400 SR        000000000000 FUJITSU TEN (THAILAN170C13U015915918078SU0143143                                                                                                                *          20171009WMF1710094.TXT
MDEUHO232113201710                D89828070300PT4U20171016000030SPEAKER ASM                   M IMCTM S9TS02 FTTL  07070IMCT  S9 PTB  00015                    1030 SR        000000000000 FUJITSU TEN (THAILAN170C13U0160160                                                                                                                              *          20171009WMF1710094.TXT
MDEUHO232114201710                D89828070300PT4U20171016000030SPEAKER ASM                   M IMCTM S9TS02 FTTL  07070IMCT  S9 PTB  00015                    1300 SR        000000000000 FUJITSU TEN (THAILAN170C13U0161161                                                                                                                              *          20171009WMF1710094.TXT
MDEUHO232115201710                D89828070300PT4U20171016000030SPEAKER ASM                   M IMCTM S9TS02 FTTL  07070IMCT  S9 PTB  00015                    1600 SR        000000000000 FUJITSU TEN (THAILAN18023TU0193193                                                                                                                              *          20171009WMF1710094.TXT
MDEUHO232116201710                D89828070300PT4U20171016000030SPEAKER ASM                   M IMCTM S9TS02 FTTL  07070IMCT  S9 PTB  00015                    2100 SR        000000000000 FUJITSU TEN (THAILAN170C12U0091091                                                                                                                              *          20171009WMF1710094.TXT
