REC2017092920170929ISUZU                              62     
MDDDH9276480201710                D89821984430PT1D20171005000030RADIO;AM/FM,CD                M IMCTM S5NC06 FTTL  07070IMCT  S5 PTB  00005                    0400 SR        000000000000 FUJITSU TEN (THAILAN180LNGL0003003                                                                                                                              *          20170929WMF1709297.TXT
MDDDH9276481201710                D89821984430PT1D20171005000030RADIO;AM/FM,CD                M IMCTM S5NC06 FTTL  07070IMCT  S5 PTB  00005                    1300 SR        000000000000 FUJITSU TEN (THAILAN180LNEL0002002                                                                                                                              *          20170929WMF1709297.TXT
MDDDH9276482201710                D89821984430PT1D20171005000060RADIO;AM/FM,CD                M IMCTM S5NC06 FTTL  07070IMCT  S5 PTB  00005                    1600 SR        000000000000 FUJITSU TEN (THAILAN180LNCL0003003180LNDL0001001                                                                                                                *          20170929WMF1709297.TXT
MDDDH9276483201710                D89828070100PV1D20171004000060SPEAKER ASM                   M IMCTM S5MB11 FTTL  07070IMCT  S5 PTB  00004                    2230 SR        000000000000 FUJITSU TEN (THAILAN180LNAL0001001                                                                                                                              *          20170929WMF1709297.TXT
MDDDH9276484201710                D89828070100PV1D20171005000060SPEAKER ASM                   M IMCTM S5MB11 FTTL  07070IMCT  S5 PTB  00004                    0400 SR        000000000000 FUJITSU TEN (THAILAN180LNGL0003003                                                                                                                              *          20170929WMF1709297.TXT
MDDDH9276485201710                D89828070100PV1D20171005000060SPEAKER ASM                   M IMCTM S5MB11 FTTL  07070IMCT  S5 PTB  00004                    1300 SR        000000000000 FUJITSU TEN (THAILAN180LNEL0002002                                                                                                                              *          20170929WMF1709297.TXT
MDDDH9276486201710                D89828070100PV1D20171005000120SPEAKER ASM                   M IMCTM S5MB11 FTTL  07070IMCT  S5 PTB  00004                    1600 SR        000000000000 FUJITSU TEN (THAILAN180LNCL0003003180LNDL0001001                                                                                                                *          20170929WMF1709297.TXT
MDDUH9245639201710                D89828070100PT4U20171004000030SPEAKER ASM                   M IMCTM S0FL05 FTTL  07070IMCT  S0 PTB  00004                    2230 SR        000000000000 FUJITSU TEN (THAILAN180LUEU0184184                                                                                                                              *          20170929WMF1709297.TXT
MDDUH9245640201710                D89828070100PT4U20171005000030SPEAKER ASM                   M IMCTM S0FL05 FTTL  07070IMCT  S0 PTB  00004                    1300 SR        000000000000 FUJITSU TEN (THAILAN180LUEU0185185                                                                                                                              *          20170929WMF1709297.TXT
MDDUH9245641201710                D89828070100PT4U20171005000030SPEAKER ASM                   M IMCTM S0FL05 FTTL  07070IMCT  S0 PTB  00004                    2100 SR        000000000000 FUJITSU TEN (THAILAN180LUFU0053053                                                                                                                              *          20170929WMF1709297.TXT
MDDUH9245642201710                D89828070200PV4U20171004000030SPEAKER ASM                   M IMCTM S0FR05 FTTL  07070IMCT  S0 PTB  00005                    2230 SR        000000000000 FUJITSU TEN (THAILAN180LUEU0184184                                                                                                                              *          20170929WMF1709297.TXT
MDDUH9245643201710                D89828070200PV4U20171005000030SPEAKER ASM                   M IMCTM S0FR05 FTTL  07070IMCT  S0 PTB  00005                    1300 SR        000000000000 FUJITSU TEN (THAILAN180LUEU0185185                                                                                                                              *          20170929WMF1709297.TXT
MDDUH9245644201710                D89828070200PV4U20171005000030SPEAKER ASM                   M IMCTM S0FR05 FTTL  07070IMCT  S0 PTB  00005                    2100 SR        000000000000 FUJITSU TEN (THAILAN180LUFU0053053                                                                                                                              *          20170929WMF1709297.TXT
MDDUH9245645201710                D89828070300PT4U20171004000030SPEAKER ASM                   M IMCTM S9TS02 FTTL  07070IMCT  S9 PTB  00015                    2230 SR        000000000000 FUJITSU TEN (THAILAN180LUEU0184184                                                                                                                              *          20170929WMF1709297.TXT
MDDUH9245646201710                D89828070300PT4U20171005000030SPEAKER ASM                   M IMCTM S9TS02 FTTL  07070IMCT  S9 PTB  00015                    1300 SR        000000000000 FUJITSU TEN (THAILAN180LUEU0185185                                                                                                                              *          20170929WMF1709297.TXT
MDDUH9245647201710                D89828070300PT4U20171005000030SPEAKER ASM                   M IMCTM S9TS02 FTTL  07070IMCT  S9 PTB  00015                    2100 SR        000000000000 FUJITSU TEN (THAILAN180LUFU0053053                                                                                                                              *          20170929WMF1709297.TXT
MDEDH9321484201710                D89828070100PV1D20171004000060SPEAKER ASM                   M IMCTM S5MB11 FTTL  07070IMCT  S5 PTB  00004                    2230 SR        000000000000 FUJITSU TEN (THAILAN17066NL004704717080NL0101101                                                                                                                *          20170929WMF1709297.TXT
MDEDH9321485201710                D89828070100PV1D20171005000060SPEAKER ASM                   M IMCTM S5MB11 FTTL  07070IMCT  S5 PTB  00004                    0230 SR        000000000000 FUJITSU TEN (THAILAN17080NL0102103                                                                                                                              *          20170929WMF1709297.TXT
MDEDH9321486201710                D89828070100PV1D20171005000030SPEAKER ASM                   M IMCTM S5MB11 FTTL  07070IMCT  S5 PTB  00004                    0400 SR        000000000000 FUJITSU TEN (THAILAN17029NL0016016                                                                                                                              *          20170929WMF1709297.TXT
MDEDH9321487201710                D89828070100PV1D20171005000090SPEAKER ASM                   M IMCTM S5MB11 FTTL  07070IMCT  S5 PTB  00004                    0830 SR        000000000000 FUJITSU TEN (THAILAN17050ML003703717055NL006006017058NL0037037                                                                                                  *          20170929WMF1709297.TXT
MDEDH9321488201710                D89828070100PV1D20171005000060SPEAKER ASM                   M IMCTM S5MB11 FTTL  07070IMCT  S5 PTB  00004                    1030 SR        000000000000 FUJITSU TEN (THAILAN17069WL000200217076NL0012012                                                                                                                *          20170929WMF1709297.TXT
MDEDH9321489201710                D89828070100PV1D20171005000060SPEAKER ASM                   M IMCTM S5MB11 FTTL  07070IMCT  S5 PTB  00004                    1300 SR        000000000000 FUJITSU TEN (THAILAN17055NL006106117057NL0044044                                                                                                                *          20170929WMF1709297.TXT
MDEDH9321490201710                D89828070100PV1D20171005000120SPEAKER ASM                   M IMCTM S5MB11 FTTL  07070IMCT  S5 PTB  00004                    1600 SR        000000000000 FUJITSU TEN (THAILAN17074NL007207317076NL001301317081NL0036036                                                                                                  *          20170929WMF1709297.TXT
MDEDH9321491201710                D89828070100PV1D20171005000030SPEAKER ASM                   M IMCTM S5MB11 FTTL  07070IMCT  S5 PTB  00004                    2100 SR        000000000000 FUJITSU TEN (THAILAN17064NL0023023                                                                                                                              *          20170929WMF1709297.TXT
MDEDH9321492201710                D89828070100PV4D20171005000030SPEAKER ASM                   M IMCTM S0FL05 FTTL  07070IMCT  S0 PTB  00004                    1600 SR        000000000000 FUJITSU TEN (THAILAN17079NU0058058                                                                                                                              *          20170929WMF1709297.TXT
MDEDH9321493201710                D89828070200PV1D20171004000030SPEAKER ASM                   M IMCTM S5MA14 FTTL  07070IMCT  S5 PTB  00005                    2230 SR        000000000000 FUJITSU TEN (THAILAN17080NL0101101                                                                                                                              *          20170929WMF1709297.TXT
MDEDH9321494201710                D89828070200PV1D20171005000060SPEAKER ASM                   M IMCTM S5MA14 FTTL  07070IMCT  S5 PTB  00005                    0230 SR        000000000000 FUJITSU TEN (THAILAN17080NL0102103                                                                                                                              *          20170929WMF1709297.TXT
MDEDH9321495201710                D89828070200PV1D20171005000030SPEAKER ASM                   M IMCTM S5MA14 FTTL  07070IMCT  S5 PTB  00005                    0830 SR        000000000000 FUJITSU TEN (THAILAN17058NL0037037                                                                                                                              *          20170929WMF1709297.TXT
MDEDH9321496201710                D89828070200PV1D20171005000060SPEAKER ASM                   M IMCTM S5MA14 FTTL  07070IMCT  S5 PTB  00005                    1030 SR        000000000000 FUJITSU TEN (THAILAN17069WL000200217076NL0012012                                                                                                                *          20170929WMF1709297.TXT
MDEDH9321497201710                D89828070200PV1D20171005000030SPEAKER ASM                   M IMCTM S5MA14 FTTL  07070IMCT  S5 PTB  00005                    1300 SR        000000000000 FUJITSU TEN (THAILAN17057NL0044044                                                                                                                              *          20170929WMF1709297.TXT
MDEDH9321498201710                D89828070200PV1D20171005000120SPEAKER ASM                   M IMCTM S5MA14 FTTL  07070IMCT  S5 PTB  00005                    1600 SR        000000000000 FUJITSU TEN (THAILAN17074NL007207317076NL001301317081NL0036036                                                                                                  *          20170929WMF1709297.TXT
MDEDH9321499201710                D89828070200PV4D20171005000030SPEAKER ASM                   M IMCTM S0FR05 FTTL  07070IMCT  S0 PTB  00005                    1600 SR        000000000000 FUJITSU TEN (THAILAN17079NU0058058                                                                                                                              *          20170929WMF1709297.TXT
MDEDH9321500201710                D89828070300PT1D20171004000060SPEAKER ASM                   M IMCTM S5NB082FTTL  07070IMCT  S5 PTB  00015                    2230 SR        000000000000 FUJITSU TEN (THAILAN17066NL004704717080NL0101101                                                                                                                *          20170929WMF1709297.TXT
MDEDH9321501201710                D89828070300PT1D20171005000060SPEAKER ASM                   M IMCTM S5NB082FTTL  07070IMCT  S5 PTB  00015                    0230 SR        000000000000 FUJITSU TEN (THAILAN17080NL0102103                                                                                                                              *          20170929WMF1709297.TXT
MDEDH9321502201710                D89828070300PT1D20171005000030SPEAKER ASM                   M IMCTM S5NB082FTTL  07070IMCT  S5 PTB  00015                    0400 SR        000000000000 FUJITSU TEN (THAILAN17029NL0016016                                                                                                                              *          20170929WMF1709297.TXT
MDEDH9321503201710                D89828070300PT1D20171005000060SPEAKER ASM                   M IMCTM S5NB082FTTL  07070IMCT  S5 PTB  00015                    0830 SR        000000000000 FUJITSU TEN (THAILAN17055NL006006017058NL0037037                                                                                                                *          20170929WMF1709297.TXT
MDEDH9321504201710                D89828070300PT1D20171005000060SPEAKER ASM                   M IMCTM S5NB082FTTL  07070IMCT  S5 PTB  00015                    1030 SR        000000000000 FUJITSU TEN (THAILAN17069WL000200217076NL0012012                                                                                                                *          20170929WMF1709297.TXT
MDEDH9321505201710                D89828070300PT1D20171005000060SPEAKER ASM                   M IMCTM S5NB082FTTL  07070IMCT  S5 PTB  00015                    1300 SR        000000000000 FUJITSU TEN (THAILAN17055NL006106117057NL0044044                                                                                                                *          20170929WMF1709297.TXT
MDEDH9321506201710                D89828070300PT1D20171005000120SPEAKER ASM                   M IMCTM S5NB082FTTL  07070IMCT  S5 PTB  00015                    1600 SR        000000000000 FUJITSU TEN (THAILAN17074NL007207317076NL001301317081NL0036036                                                                                                  *          20170929WMF1709297.TXT
MDEDH9321507201710                D89828070300PT1D20171005000030SPEAKER ASM                   M IMCTM S5NB082FTTL  07070IMCT  S5 PTB  00015                    2100 SR        000000000000 FUJITSU TEN (THAILAN17064NL0023023                                                                                                                              *          20170929WMF1709297.TXT
MDEDH9321508201710                D89828070300PT4D20171005000030SPEAKER ASM                   M IMCTM S9TS02 FTTL  07070IMCT  S9 PTB  00015                    1600 SR        000000000000 FUJITSU TEN (THAILAN17079NU0058058                                                                                                                              *          20170929WMF1709297.TXT
MDEDH9321509201710                D89848581800PT1D20171005000030RADIO;AM/FM CD D              M IMCTM S5NC06 FTTL  07070IMCT  S5 PTB  00003                    0830 SR        000000000000 FUJITSU TEN (THAILAN17055NL006006017058NL0037037                                                                                                                *          20170929WMF1709297.TXT
MDEDH9321510201710                D89848581800PT1D20171005000030RADIO;AM/FM CD D              M IMCTM S5NC06 FTTL  07070IMCT  S5 PTB  00003                    1300 SR        000000000000 FUJITSU TEN (THAILAN17055NL006106117057NL0044044                                                                                                                *          20170929WMF1709297.TXT
MDEDH9321511201710                D89848581800PT1D20171005000030RADIO;AM/FM CD D              M IMCTM S5NC06 FTTL  07070IMCT  S5 PTB  00003                    1600 SR        000000000000 FUJITSU TEN (THAILAN17074NL0072073                                                                                                                              *          20170929WMF1709297.TXT
MDEDH9321512201710                D89848581800PT1D20171005000015RADIO;AM/FM CD D              M IMCTM S5NC06 FTTL  07070IMCT  S5 PTB  00003                    2100 SR        000000000000 FUJITSU TEN (THAILAN17064NL0023023                                                                                                                              *          20170929WMF1709297.TXT
MDEDH9321513201710                D89848581800PT4D20171005000015RADIO;AM/FM CD D              M IMCTM S9CO001FTTL  07070IMCT  S9 PTB  00003                    1600 SR        000000000000 FUJITSU TEN (THAILAN17079NU0058058                                                                                                                              *          20170929WMF1709297.TXT
MDEDH9321514201710                D89848582500PT1D20171004000015RADIO;AM/FM CD D              M IMCTM S5NC06 FTTL  07070IMCT  S5 PTB  00003                    2230 SR        000000000000 FUJITSU TEN (THAILAN17066NL0047047                                                                                                                              *          20170929WMF1709297.TXT
MDEUH9292504201710                D89828070100PT4U20171005000030SPEAKER ASM                   M IMCTM S0FL05 FTTL  07070IMCT  S0 PTB  00004                    0230 SR        000000000000 FUJITSU TEN (THAILAN18020TU0009009                                                                                                                              *          20170929WMF1709297.TXT
MDEUH9292505201710                D89828070100PT4U20171005000060SPEAKER ASM                   M IMCTM S0FL05 FTTL  07070IMCT  S0 PTB  00004                    0400 SR        000000000000 FUJITSU TEN (THAILAN18078SU0118119                                                                                                                              *          20170929WMF1709297.TXT
MDEUH9292506201710                D89828070100PT4U20171005000030SPEAKER ASM                   M IMCTM S0FL05 FTTL  07070IMCT  S0 PTB  00004                    0830 SR        000000000000 FUJITSU TEN (THAILAN18078SU0120120                                                                                                                              *          20170929WMF1709297.TXT
MDEUH9292507201710                D89828070100PT4U20171005000030SPEAKER ASM                   M IMCTM S0FL05 FTTL  07070IMCT  S0 PTB  00004                    1030 SR        000000000000 FUJITSU TEN (THAILAN18023TU0184184                                                                                                                              *          20170929WMF1709297.TXT
MDEUH9292508201710                D89828070100PT4U20171005000090SPEAKER ASM                   M IMCTM S0FL05 FTTL  07070IMCT  S0 PTB  00004                    1600 SR        000000000000 FUJITSU TEN (THAILAN18078SU0121123                                                                                                                              *          20170929WMF1709297.TXT
MDEUH9292509201710                D89828070200PV4U20171005000030SPEAKER ASM                   M IMCTM S0FR05 FTTL  07070IMCT  S0 PTB  00005                    0230 SR        000000000000 FUJITSU TEN (THAILAN18020TU0009009                                                                                                                              *          20170929WMF1709297.TXT
MDEUH9292510201710                D89828070200PV4U20171005000060SPEAKER ASM                   M IMCTM S0FR05 FTTL  07070IMCT  S0 PTB  00005                    0400 SR        000000000000 FUJITSU TEN (THAILAN18078SU0118119                                                                                                                              *          20170929WMF1709297.TXT
MDEUH9292511201710                D89828070200PV4U20171005000030SPEAKER ASM                   M IMCTM S0FR05 FTTL  07070IMCT  S0 PTB  00005                    0830 SR        000000000000 FUJITSU TEN (THAILAN18078SU0120120                                                                                                                              *          20170929WMF1709297.TXT
MDEUH9292512201710                D89828070200PV4U20171005000030SPEAKER ASM                   M IMCTM S0FR05 FTTL  07070IMCT  S0 PTB  00005                    1030 SR        000000000000 FUJITSU TEN (THAILAN18023TU0184184                                                                                                                              *          20170929WMF1709297.TXT
MDEUH9292513201710                D89828070200PV4U20171005000090SPEAKER ASM                   M IMCTM S0FR05 FTTL  07070IMCT  S0 PTB  00005                    1600 SR        000000000000 FUJITSU TEN (THAILAN18078SU0121123                                                                                                                              *          20170929WMF1709297.TXT
MDEUH9292514201710                D89828070300PT4U20171005000030SPEAKER ASM                   M IMCTM S9TS02 FTTL  07070IMCT  S9 PTB  00015                    0230 SR        000000000000 FUJITSU TEN (THAILAN18020TU0009009                                                                                                                              *          20170929WMF1709297.TXT
MDEUH9292515201710                D89828070300PT4U20171005000060SPEAKER ASM                   M IMCTM S9TS02 FTTL  07070IMCT  S9 PTB  00015                    0400 SR        000000000000 FUJITSU TEN (THAILAN18078SU0118119                                                                                                                              *          20170929WMF1709297.TXT
MDEUH9292516201710                D89828070300PT4U20171005000030SPEAKER ASM                   M IMCTM S9TS02 FTTL  07070IMCT  S9 PTB  00015                    0830 SR        000000000000 FUJITSU TEN (THAILAN18078SU0120120                                                                                                                              *          20170929WMF1709297.TXT
MDEUH9292517201710                D89828070300PT4U20171005000030SPEAKER ASM                   M IMCTM S9TS02 FTTL  07070IMCT  S9 PTB  00015                    1030 SR        000000000000 FUJITSU TEN (THAILAN18023TU0184184                                                                                                                              *          20170929WMF1709297.TXT
MDEUH9292518201710                D89828070300PT4U20171005000090SPEAKER ASM                   M IMCTM S9TS02 FTTL  07070IMCT  S9 PTB  00015                    1600 SR        000000000000 FUJITSU TEN (THAILAN18078SU0121123                                                                                                                              *          20170929WMF1709297.TXT
