REC2017103020171030ISUZU                              9      
MDD6HO301141201711                D89828070100PV5620171103000120SPEAKER ASM                   M IMCTM G9B112 FTTL  07070G/WAY G9 PTB  00004                    2100 GW        0000000000005FUJITSU TEN (THAILAN180LPCG0006006180LPGG0014014                                                                                                                *          20171030WMF1710305.TXT
MDD6HO301142201711                D89828070100PV5620171103000060SPEAKER ASM                   M IMCTM G9B112 FTTL  07070G/WAY G9 PTB  00004                    2300 GW        0000000000005FUJITSU TEN (THAILAN180LRMG0018018                                                                                                                              *          20171030WMF1710305.TXT
MDD6HO301143201711                D89828070100PV5620171104000060SPEAKER ASM                   M IMCTM G9B112 FTTL  07070G/WAY G9 PTB  00004                    0200 GW        0000000000005FUJITSU TEN (THAILAN180LRMG0019019                                                                                                                              *          20171030WMF1710305.TXT
MDD6HO301144201711                D89828070200PV5620171103000060SPEAKER ASM                   M IMCTM G9F132 FTTL  07070G/WAY G9 PTB  00005                    2300 GW        0000000000005FUJITSU TEN (THAILAN180LRMG0018018                                                                                                                              *          20171030WMF1710305.TXT
MDD6HO301145201711                D89828070200PV5620171104000060SPEAKER ASM                   M IMCTM G9F132 FTTL  07070G/WAY G9 PTB  00005                    0200 GW        0000000000005FUJITSU TEN (THAILAN180LRMG0019019                                                                                                                              *          20171030WMF1710305.TXT
MDD6HO301146201711                D89828070300PT5620171103000120SPEAKER ASM                   M IMCTM G9JB34 FTTL  07070G/WAY G9 PTB  00015                    2100 GW        0000000000005FUJITSU TEN (THAILAN180LPCG0006006180LPGG0014014                                                                                                                *          20171030WMF1710305.TXT
MDD6HO301147201711                D89828070300PT5620171103000060SPEAKER ASM                   M IMCTM G9JB34 FTTL  07070G/WAY G9 PTB  00015                    2300 GW        0000000000005FUJITSU TEN (THAILAN180LRMG0018018                                                                                                                              *          20171030WMF1710305.TXT
MDD6HO301148201711                D89828070300PT5620171104000060SPEAKER ASM                   M IMCTM G9JB34 FTTL  07070G/WAY G9 PTB  00015                    0200 GW        0000000000005FUJITSU TEN (THAILAN180LRMG0019019                                                                                                                              *          20171030WMF1710305.TXT
MDD6HO301149201711                D89831228300PT5620171103000060RADIO;AM/FM,CD                M IMCTM G9J311 FTTL  07070G/WAY G9 CPB  00003                    2100 GW        0000000000005FUJITSU TEN (THAILAN180LPCG0006006180LPGG0014014                                                                                                                *          20171030WMF1710305.TXT
