REC2017101920171019ISUZU                              32     
MDD6HO264586201710                D89828070100PV5620171024000120SPEAKER ASM                   M IMCTM G9B112 FTTL  07070G/WAY G9 PTB  00004                    1530 GW        0000000000005FUJITSU TEN (THAILAN180LPGG0006006180LRLG0017017                                                                                                                *          20171019WMF1710198.TXT
MDD6HO264587201710                D89828070100PV5620171024000060SPEAKER ASM                   M IMCTM G9B112 FTTL  07070G/WAY G9 PTB  00004                    2100 GW        0000000000005FUJITSU TEN (THAILAN180LRHG0027027                                                                                                                              *          20171019WMF1710198.TXT
MDD6HO264588201710                D89828070100PV5620171024000060SPEAKER ASM                   M IMCTM G9B112 FTTL  07070G/WAY G9 PTB  00004                    2300 GW        0000000000005FUJITSU TEN (THAILAN180LRMG0012012                                                                                                                              *          20171019WMF1710198.TXT
MDD6HO264589201710                D89828070100PV5620171025000060SPEAKER ASM                   M IMCTM G9B112 FTTL  07070G/WAY G9 PTB  00004                    0200 GW        0000000000005FUJITSU TEN (THAILAN180LRMG0013013                                                                                                                              *          20171019WMF1710198.TXT
MDD6HO264590201710                D89828070100PV5620171025000060SPEAKER ASM                   M IMCTM G9B112 FTTL  07070G/WAY G9 PTB  00004                    0330 GW        0000000000005FUJITSU TEN (THAILAN180LRHG0028028                                                                                                                              *          20171019WMF1710198.TXT
MDD6HO264591201710                D89828070100PV5620171025000060SPEAKER ASM                   M IMCTM G9B112 FTTL  07070G/WAY G9 PTB  00004                    0900 GW        0000000000005FUJITSU TEN (THAILAN180LRMG0014014                                                                                                                              *          20171019WMF1710198.TXT
MDD6HO264592201710                D89828070100PV5620171025000060SPEAKER ASM                   M IMCTM G9B112 FTTL  07070G/WAY G9 PTB  00004                    1100 GW        0000000000005FUJITSU TEN (THAILAN180LPGG0007007                                                                                                                              *          20171019WMF1710198.TXT
MDD6HO264593201710                D89828070100PV5620171025000060SPEAKER ASM                   M IMCTM G9B112 FTTL  07070G/WAY G9 PTB  00004                    1400 GW        0000000000005FUJITSU TEN (THAILAN180LRFG0007007                                                                                                                              *          20171019WMF1710198.TXT
MDD6HO264594201710                D89828070100PV5620171025000120SPEAKER ASM                   M IMCTM G9B112 FTTL  07070G/WAY G9 PTB  00004                    1530 GW        0000000000005FUJITSU TEN (THAILAN180LRHG0029029180LRLG0018018                                                                                                                *          20171019WMF1710198.TXT
MDD6HO264595201710                D89828070200PV5620171024000060SPEAKER ASM                   M IMCTM G9F132 FTTL  07070G/WAY G9 PTB  00005                    1530 GW        0000000000005FUJITSU TEN (THAILAN180LRLG0017017                                                                                                                              *          20171019WMF1710198.TXT
MDD6HO264596201710                D89828070200PV5620171024000060SPEAKER ASM                   M IMCTM G9F132 FTTL  07070G/WAY G9 PTB  00005                    2100 GW        0000000000005FUJITSU TEN (THAILAN180LRHG0027027                                                                                                                              *          20171019WMF1710198.TXT
MDD6HO264597201710                D89828070200PV5620171024000060SPEAKER ASM                   M IMCTM G9F132 FTTL  07070G/WAY G9 PTB  00005                    2300 GW        0000000000005FUJITSU TEN (THAILAN180LRMG0012012                                                                                                                              *          20171019WMF1710198.TXT
MDD6HO264598201710                D89828070200PV5620171025000060SPEAKER ASM                   M IMCTM G9F132 FTTL  07070G/WAY G9 PTB  00005                    0200 GW        0000000000005FUJITSU TEN (THAILAN180LRMG0013013                                                                                                                              *          20171019WMF1710198.TXT
MDD6HO264599201710                D89828070200PV5620171025000060SPEAKER ASM                   M IMCTM G9F132 FTTL  07070G/WAY G9 PTB  00005                    0330 GW        0000000000005FUJITSU TEN (THAILAN180LRHG0028028                                                                                                                              *          20171019WMF1710198.TXT
MDD6HO264600201710                D89828070200PV5620171025000060SPEAKER ASM                   M IMCTM G9F132 FTTL  07070G/WAY G9 PTB  00005                    0900 GW        0000000000005FUJITSU TEN (THAILAN180LRMG0014014                                                                                                                              *          20171019WMF1710198.TXT
MDD6HO264601201710                D89828070200PV5620171025000060SPEAKER ASM                   M IMCTM G9F132 FTTL  07070G/WAY G9 PTB  00005                    1400 GW        0000000000005FUJITSU TEN (THAILAN180LRFG0007007                                                                                                                              *          20171019WMF1710198.TXT
MDD6HO264602201710                D89828070200PV5620171025000120SPEAKER ASM                   M IMCTM G9F132 FTTL  07070G/WAY G9 PTB  00005                    1530 GW        0000000000005FUJITSU TEN (THAILAN180LRHG0029029180LRLG0018018                                                                                                                *          20171019WMF1710198.TXT
MDD6HO264603201710                D89828070300PT5620171024000120SPEAKER ASM                   M IMCTM G9JB34 FTTL  07070G/WAY G9 PTB  00015                    1530 GW        0000000000005FUJITSU TEN (THAILAN180LPGG0006006180LRLG0017017                                                                                                                *          20171019WMF1710198.TXT
MDD6HO264604201710                D89828070300PT5620171024000060SPEAKER ASM                   M IMCTM G9JB34 FTTL  07070G/WAY G9 PTB  00015                    2100 GW        0000000000005FUJITSU TEN (THAILAN180LRHG0027027                                                                                                                              *          20171019WMF1710198.TXT
MDD6HO264605201710                D89828070300PT5620171024000060SPEAKER ASM                   M IMCTM G9JB34 FTTL  07070G/WAY G9 PTB  00015                    2300 GW        0000000000005FUJITSU TEN (THAILAN180LRMG0012012                                                                                                                              *          20171019WMF1710198.TXT
MDD6HO264606201710                D89828070300PT5620171025000060SPEAKER ASM                   M IMCTM G9JB34 FTTL  07070G/WAY G9 PTB  00015                    0200 GW        0000000000005FUJITSU TEN (THAILAN180LRMG0013013                                                                                                                              *          20171019WMF1710198.TXT
MDD6HO264607201710                D89828070300PT5620171025000060SPEAKER ASM                   M IMCTM G9JB34 FTTL  07070G/WAY G9 PTB  00015                    0330 GW        0000000000005FUJITSU TEN (THAILAN180LRHG0028028                                                                                                                              *          20171019WMF1710198.TXT
MDD6HO264608201710                D89828070300PT5620171025000060SPEAKER ASM                   M IMCTM G9JB34 FTTL  07070G/WAY G9 PTB  00015                    0900 GW        0000000000005FUJITSU TEN (THAILAN180LRMG0014014                                                                                                                              *          20171019WMF1710198.TXT
MDD6HO264609201710                D89828070300PT5620171025000060SPEAKER ASM                   M IMCTM G9JB34 FTTL  07070G/WAY G9 PTB  00015                    1100 GW        0000000000005FUJITSU TEN (THAILAN180LPGG0007007                                                                                                                              *          20171019WMF1710198.TXT
MDD6HO264610201710                D89828070300PT5620171025000060SPEAKER ASM                   M IMCTM G9JB34 FTTL  07070G/WAY G9 PTB  00015                    1400 GW        0000000000005FUJITSU TEN (THAILAN180LRFG0007007                                                                                                                              *          20171019WMF1710198.TXT
MDD6HO264611201710                D89828070300PT5620171025000120SPEAKER ASM                   M IMCTM G9JB34 FTTL  07070G/WAY G9 PTB  00015                    1530 GW        0000000000005FUJITSU TEN (THAILAN180LRHG0029029180LRLG0018018                                                                                                                *          20171019WMF1710198.TXT
MDD6HO264612201710                D89831228300PT5620171024000030RADIO;AM/FM,CD                M IMCTM G9J311 FTTL  07070G/WAY G9 CPB  00003                    1530 GW        0000000000005FUJITSU TEN (THAILAN180LPGG0006006                                                                                                                              *          20171019WMF1710198.TXT
MDD6HO264613201710                D89831228300PT5620171025000030RADIO;AM/FM,CD                M IMCTM G9J311 FTTL  07070G/WAY G9 CPB  00003                    1100 GW        0000000000005FUJITSU TEN (THAILAN180LPGG0007007                                                                                                                              *          20171019WMF1710198.TXT
MDD6HO264614201710                D89831228400PT5620171025000030RADIO;AM/FM,CD                M IMCTM G9J311 FTTL  07070G/WAY G9 CPB  00003                    1400 GW        0000000000005FUJITSU TEN (THAILAN180LRFG0007007                                                                                                                              *          20171019WMF1710198.TXT
MDD6HO264615201710                D89848581500PT5620171024000030RADIO;AM/FM CD D              M IMCTM G9J213 FTTL  07070G/WAY G9 PTB  00003                    2100 GW        0000000000005FUJITSU TEN (THAILAN180LRHG0027027                                                                                                                              *          20171019WMF1710198.TXT
MDD6HO264616201710                D89848581500PT5620171025000030RADIO;AM/FM CD D              M IMCTM G9J213 FTTL  07070G/WAY G9 PTB  00003                    0330 GW        0000000000005FUJITSU TEN (THAILAN180LRHG0028028                                                                                                                              *          20171019WMF1710198.TXT
MDD6HO264617201710                D89848581500PT5620171025000030RADIO;AM/FM CD D              M IMCTM G9J213 FTTL  07070G/WAY G9 PTB  00003                    1530 GW        0000000000005FUJITSU TEN (THAILAN180LRHG0029029                                                                                                                              *          20171019WMF1710198.TXT
