REC2017101220171012ISUZU                              69     
MDDDHO235098201710                D89821984430PT1D20171019000030RADIO;AM/FM,CD                M IMCTM S5NC06 FTTL  07070IMCT  S5 PTB  00005                    0400 SR        000000000000 FUJITSU TEN (THAILAN180LNEL0011011                                                                                                                              *          20171012WMF171012A.TXT
MDDDHO235099201710                D89828070100PV1D20171018000060SPEAKER ASM                   M IMCTM S5MB11 FTTL  07070IMCT  S5 PTB  00004                    2230 SR        000000000000 FUJITSU TEN (THAILAN180LPGL0012012                                                                                                                              *          20171012WMF171012A.TXT
MDDDHO235100201710                D89828070100PV1D20171019000060SPEAKER ASM                   M IMCTM S5MB11 FTTL  07070IMCT  S5 PTB  00004                    0230 SR        000000000000 FUJITSU TEN (THAILAN180LPKL0005005                                                                                                                              *          20171012WMF171012A.TXT
MDDDHO235101201710                D89828070100PV1D20171019000060SPEAKER ASM                   M IMCTM S5MB11 FTTL  07070IMCT  S5 PTB  00004                    0400 SR        000000000000 FUJITSU TEN (THAILAN180LNEL0011011                                                                                                                              *          20171012WMF171012A.TXT
MDDDHO235102201710                D89828070100PV1D20171019000060SPEAKER ASM                   M IMCTM S5MB11 FTTL  07070IMCT  S5 PTB  00004                    0830 SR        000000000000 FUJITSU TEN (THAILAN180LPGL0013013                                                                                                                              *          20171012WMF171012A.TXT
MDDDHO235103201710                D89828070100PV1D20171019000060SPEAKER ASM                   M IMCTM S5MB11 FTTL  07070IMCT  S5 PTB  00004                    1030 SR        000000000000 FUJITSU TEN (THAILAN180LPGL0014014                                                                                                                              *          20171012WMF171012A.TXT
MDDDHO235104201710                D89828070100PV1D20171019000120SPEAKER ASM                   M IMCTM S5MB11 FTTL  07070IMCT  S5 PTB  00004                    1300 SR        000000000000 FUJITSU TEN (THAILAN180LPKL0006006180LPNL0002002                                                                                                                *          20171012WMF171012A.TXT
MDDDHO235105201710                D89828070100PV1D20171019000120SPEAKER ASM                   M IMCTM S5MB11 FTTL  07070IMCT  S5 PTB  00004                    1600 SR        000000000000 FUJITSU TEN (THAILAN180LNBL0004004180LPCL0003003                                                                                                                *          20171012WMF171012A.TXT
MDDDHO235106201710                D89828070100PV1D20171019000060SPEAKER ASM                   M IMCTM S5MB11 FTTL  07070IMCT  S5 PTB  00004                    2100 SR        000000000000 FUJITSU TEN (THAILAN180LPPL0001001                                                                                                                              *          20171012WMF171012A.TXT
MDDDHO235107201710                D89828070100PV1D20171019000060SPEAKER ASM                   M IMCTM S5MB11 FTTL  07070IMCT  S5 PTB  00004                    2230 SR        000000000000 FUJITSU TEN (THAILAN180LPGL0015015                                                                                                                              *          20171012WMF171012A.TXT
MDDDHO235108201710                D89828070100PV4D20171019000060SPEAKER ASM                   M IMCTM S0FL05 FTTL  07070IMCT  S0 PTB  00004                    0400 SR        000000000000 FUJITSU TEN (THAILAN180LRSU0005005                                                                                                                              *          20171012WMF171012A.TXT
MDDDHO235109201710                D89828070200PV4D20171019000060SPEAKER ASM                   M IMCTM S0FR05 FTTL  07070IMCT  S0 PTB  00005                    0400 SR        000000000000 FUJITSU TEN (THAILAN180LRSU0005005                                                                                                                              *          20171012WMF171012A.TXT
MDDDHO235110201710                D89828070300PT1D20171018000060SPEAKER ASM                   M IMCTM S5NB082FTTL  07070IMCT  S5 PTB  00015                    2230 SR        000000000000 FUJITSU TEN (THAILAN180LPGL0012012                                                                                                                              *          20171012WMF171012A.TXT
MDDDHO235111201710                D89828070300PT1D20171019000060SPEAKER ASM                   M IMCTM S5NB082FTTL  07070IMCT  S5 PTB  00015                    0230 SR        000000000000 FUJITSU TEN (THAILAN180LPKL0005005                                                                                                                              *          20171012WMF171012A.TXT
MDDDHO235112201710                D89828070300PT1D20171019000060SPEAKER ASM                   M IMCTM S5NB082FTTL  07070IMCT  S5 PTB  00015                    0830 SR        000000000000 FUJITSU TEN (THAILAN180LPGL0013013                                                                                                                              *          20171012WMF171012A.TXT
MDDDHO235113201710                D89828070300PT1D20171019000060SPEAKER ASM                   M IMCTM S5NB082FTTL  07070IMCT  S5 PTB  00015                    1030 SR        000000000000 FUJITSU TEN (THAILAN180LPGL0014014                                                                                                                              *          20171012WMF171012A.TXT
MDDDHO235114201710                D89828070300PT1D20171019000120SPEAKER ASM                   M IMCTM S5NB082FTTL  07070IMCT  S5 PTB  00015                    1300 SR        000000000000 FUJITSU TEN (THAILAN180LPKL0006006180LPNL0002002                                                                                                                *          20171012WMF171012A.TXT
MDDDHO235115201710                D89828070300PT1D20171019000060SPEAKER ASM                   M IMCTM S5NB082FTTL  07070IMCT  S5 PTB  00015                    1600 SR        000000000000 FUJITSU TEN (THAILAN180LPCL0003003                                                                                                                              *          20171012WMF171012A.TXT
MDDDHO235116201710                D89828070300PT1D20171019000060SPEAKER ASM                   M IMCTM S5NB082FTTL  07070IMCT  S5 PTB  00015                    2100 SR        000000000000 FUJITSU TEN (THAILAN180LPPL0001001                                                                                                                              *          20171012WMF171012A.TXT
MDDDHO235117201710                D89828070300PT1D20171019000060SPEAKER ASM                   M IMCTM S5NB082FTTL  07070IMCT  S5 PTB  00015                    2230 SR        000000000000 FUJITSU TEN (THAILAN180LPGL0015015                                                                                                                              *          20171012WMF171012A.TXT
MDDDHO235118201710                D89828070300PT4D20171019000060SPEAKER ASM                   M IMCTM S9TS02 FTTL  07070IMCT  S9 PTB  00015                    0400 SR        000000000000 FUJITSU TEN (THAILAN180LRSU0005005                                                                                                                              *          20171012WMF171012A.TXT
MDDDHO235119201710                D89831228300PT1D20171018000030RADIO;AM/FM,CD                M IMCTM S5NC06 FTTL  07070IMCT  S5 CPB  00003                    2230 SR        000000000000 FUJITSU TEN (THAILAN180LPGL0012012                                                                                                                              *          20171012WMF171012A.TXT
MDDDHO235120201710                D89831228300PT1D20171019000030RADIO;AM/FM,CD                M IMCTM S5NC06 FTTL  07070IMCT  S5 CPB  00003                    0830 SR        000000000000 FUJITSU TEN (THAILAN180LPGL0013013                                                                                                                              *          20171012WMF171012A.TXT
MDDDHO235121201710                D89831228300PT1D20171019000030RADIO;AM/FM,CD                M IMCTM S5NC06 FTTL  07070IMCT  S5 CPB  00003                    1030 SR        000000000000 FUJITSU TEN (THAILAN180LPGL0014014                                                                                                                              *          20171012WMF171012A.TXT
MDDDHO235122201710                D89831228300PT1D20171019000030RADIO;AM/FM,CD                M IMCTM S5NC06 FTTL  07070IMCT  S5 CPB  00003                    1600 SR        000000000000 FUJITSU TEN (THAILAN180LPCL0003003                                                                                                                              *          20171012WMF171012A.TXT
MDDDHO235123201710                D89831228300PT1D20171019000030RADIO;AM/FM,CD                M IMCTM S5NC06 FTTL  07070IMCT  S5 CPB  00003                    2230 SR        000000000000 FUJITSU TEN (THAILAN180LPGL0015015                                                                                                                              *          20171012WMF171012A.TXT
MDDDHO235124201710                D89848581600PT1D20171019000030RADIO;AM/FM CD D              M IMCTM S5NC06 FTTL  07070IMCT  S5 X    00030                    0230 SR        000000000000 FUJITSU TEN (THAILAN180LPKL0005005                                                                                                                              *          20171012WMF171012A.TXT
MDDDHO235125201710                D89848581600PT1D20171019000030RADIO;AM/FM CD D              M IMCTM S5NC06 FTTL  07070IMCT  S5 X    00030                    1300 SR        000000000000 FUJITSU TEN (THAILAN180LPKL0006006                                                                                                                              *          20171012WMF171012A.TXT
MDDUHO215211201710                D89828070100PT4U20171018000030SPEAKER ASM                   M IMCTM S0FL05 FTTL  07070IMCT  S0 PTB  00004                    2230 SR        000000000000 FUJITSU TEN (THAILAN180LUJU0003003                                                                                                                              *          20171012WMF171012A.TXT
MDDUHO215212201710                D89828070100PT4U20171019000030SPEAKER ASM                   M IMCTM S0FL05 FTTL  07070IMCT  S0 PTB  00004                    0830 SR        000000000000 FUJITSU TEN (THAILAN180LUKU0008008                                                                                                                              *          20171012WMF171012A.TXT
MDDUHO215213201710                D89828070100PT4U20171019000030SPEAKER ASM                   M IMCTM S0FL05 FTTL  07070IMCT  S0 PTB  00004                    1300 SR        000000000000 FUJITSU TEN (THAILAN180LUKU0009009                                                                                                                              *          20171012WMF171012A.TXT
MDDUHO215214201710                D89828070100PT4U20171019000030SPEAKER ASM                   M IMCTM S0FL05 FTTL  07070IMCT  S0 PTB  00004                    1600 SR        000000000000 FUJITSU TEN (THAILAN180LUKU0010010                                                                                                                              *          20171012WMF171012A.TXT
MDDUHO215215201710                D89828070100PT4U20171019000030SPEAKER ASM                   M IMCTM S0FL05 FTTL  07070IMCT  S0 PTB  00004                    2100 SR        000000000000 FUJITSU TEN (THAILAN180LUJU0004004                                                                                                                              *          20171012WMF171012A.TXT
MDDUHO215216201710                D89828070200PV4U20171018000030SPEAKER ASM                   M IMCTM S0FR05 FTTL  07070IMCT  S0 PTB  00005                    2230 SR        000000000000 FUJITSU TEN (THAILAN180LUJU0003003                                                                                                                              *          20171012WMF171012A.TXT
MDDUHO215217201710                D89828070200PV4U20171019000030SPEAKER ASM                   M IMCTM S0FR05 FTTL  07070IMCT  S0 PTB  00005                    0830 SR        000000000000 FUJITSU TEN (THAILAN180LUKU0008008                                                                                                                              *          20171012WMF171012A.TXT
MDDUHO215218201710                D89828070200PV4U20171019000030SPEAKER ASM                   M IMCTM S0FR05 FTTL  07070IMCT  S0 PTB  00005                    1300 SR        000000000000 FUJITSU TEN (THAILAN180LUKU0009009                                                                                                                              *          20171012WMF171012A.TXT
MDDUHO215219201710                D89828070200PV4U20171019000030SPEAKER ASM                   M IMCTM S0FR05 FTTL  07070IMCT  S0 PTB  00005                    1600 SR        000000000000 FUJITSU TEN (THAILAN180LUKU0010010                                                                                                                              *          20171012WMF171012A.TXT
MDDUHO215220201710                D89828070200PV4U20171019000030SPEAKER ASM                   M IMCTM S0FR05 FTTL  07070IMCT  S0 PTB  00005                    2100 SR        000000000000 FUJITSU TEN (THAILAN180LUJU0004004                                                                                                                              *          20171012WMF171012A.TXT
MDDUHO215221201710                D89828070300PT4U20171018000030SPEAKER ASM                   M IMCTM S9TS02 FTTL  07070IMCT  S9 PTB  00015                    2230 SR        000000000000 FUJITSU TEN (THAILAN180LUJU0003003                                                                                                                              *          20171012WMF171012A.TXT
MDDUHO215222201710                D89828070300PT4U20171019000030SPEAKER ASM                   M IMCTM S9TS02 FTTL  07070IMCT  S9 PTB  00015                    0830 SR        000000000000 FUJITSU TEN (THAILAN180LUKU0008008                                                                                                                              *          20171012WMF171012A.TXT
MDDUHO215223201710                D89828070300PT4U20171019000030SPEAKER ASM                   M IMCTM S9TS02 FTTL  07070IMCT  S9 PTB  00015                    1300 SR        000000000000 FUJITSU TEN (THAILAN180LUKU0009009                                                                                                                              *          20171012WMF171012A.TXT
MDDUHO215224201710                D89828070300PT4U20171019000030SPEAKER ASM                   M IMCTM S9TS02 FTTL  07070IMCT  S9 PTB  00015                    1600 SR        000000000000 FUJITSU TEN (THAILAN180LUKU0010010                                                                                                                              *          20171012WMF171012A.TXT
MDDUHO215225201710                D89828070300PT4U20171019000030SPEAKER ASM                   M IMCTM S9TS02 FTTL  07070IMCT  S9 PTB  00015                    2100 SR        000000000000 FUJITSU TEN (THAILAN180LUJU0004004                                                                                                                              *          20171012WMF171012A.TXT
MDDUHO215226201710                D89848584200PT4U20171018000015RADIO;AM/FM CD D              M IMCTM S9CO001FTTL  07070IMCT  S9 PTB  00003                    2230 SR        000000000000 FUJITSU TEN (THAILAN180LUJU0003003                                                                                                                              *          20171012WMF171012A.TXT
MDDUHO215227201710                D89848584200PT4U20171019000015RADIO;AM/FM CD D              M IMCTM S9CO001FTTL  07070IMCT  S9 PTB  00003                    2100 SR        000000000000 FUJITSU TEN (THAILAN180LUJU0004004                                                                                                                              *          20171012WMF171012A.TXT
MDEDHO250351201710                D89828070100PV1D20171018000060SPEAKER ASM                   M IMCTM S5MB11 FTTL  07070IMCT  S5 PTB  00004                    2230 SR        000000000000 FUJITSU TEN (THAILAN17033QL0022023                                                                                                                              *          20171012WMF171012A.TXT
MDEDHO250352201710                D89828070100PV1D20171019000030SPEAKER ASM                   M IMCTM S5MB11 FTTL  07070IMCT  S5 PTB  00004                    0400 SR        000000000000 FUJITSU TEN (THAILAN17071ML0016016                                                                                                                              *          20171012WMF171012A.TXT
MDEDHO250353201710                D89828070100PV1D20171019000030SPEAKER ASM                   M IMCTM S5MB11 FTTL  07070IMCT  S5 PTB  00004                    0830 SR        000000000000 FUJITSU TEN (THAILAN17071ML0017017                                                                                                                              *          20171012WMF171012A.TXT
MDEDHO250354201710                D89828070100PV1D20171019000060SPEAKER ASM                   M IMCTM S5MB11 FTTL  07070IMCT  S5 PTB  00004                    1600 SR        000000000000 FUJITSU TEN (THAILAN17021QL0006007                                                                                                                              *          20171012WMF171012A.TXT
MDEDHO250355201710                D89828070200PV1D20171018000060SPEAKER ASM                   M IMCTM S5MA14 FTTL  07070IMCT  S5 PTB  00005                    2230 SR        000000000000 FUJITSU TEN (THAILAN17033QL0022023                                                                                                                              *          20171012WMF171012A.TXT
MDEDHO250356201710                D89828070300PT1D20171018000060SPEAKER ASM                   M IMCTM S5NB082FTTL  07070IMCT  S5 PTB  00015                    2230 SR        000000000000 FUJITSU TEN (THAILAN17033QL0022023                                                                                                                              *          20171012WMF171012A.TXT
MDEDHO250357201710                D89828070300PT1D20171019000030SPEAKER ASM                   M IMCTM S5NB082FTTL  07070IMCT  S5 PTB  00015                    0400 SR        000000000000 FUJITSU TEN (THAILAN17071ML0016016                                                                                                                              *          20171012WMF171012A.TXT
MDEDHO250358201710                D89828070300PT1D20171019000030SPEAKER ASM                   M IMCTM S5NB082FTTL  07070IMCT  S5 PTB  00015                    0830 SR        000000000000 FUJITSU TEN (THAILAN17071ML0017017                                                                                                                              *          20171012WMF171012A.TXT
MDEDHO250359201710                D89831229200PT1D20171018000030RADIO;AM/FM,CD                M IMCTM S5NC06 FTTL  07070IMCT  S5 PTB  00003                    2230 SR        000000000000 FUJITSU TEN (THAILAN17033QL0022023                                                                                                                              *          20171012WMF171012A.TXT
MDEUHO246004201710                D89828070100PT4U20171018000030SPEAKER ASM                   M IMCTM S0FL05 FTTL  07070IMCT  S0 PTB  00004                    2230 SR        000000000000 FUJITSU TEN (THAILAN170C13U0171171                                                                                                                              *          20171012WMF171012A.TXT
MDEUHO246005201710                D89828070100PT4U20171019000030SPEAKER ASM                   M IMCTM S0FL05 FTTL  07070IMCT  S0 PTB  00004                    0230 SR        000000000000 FUJITSU TEN (THAILAN170C13U0172172                                                                                                                              *          20171012WMF171012A.TXT
MDEUHO246006201710                D89828070100PT4U20171019000030SPEAKER ASM                   M IMCTM S0FL05 FTTL  07070IMCT  S0 PTB  00004                    0830 SR        000000000000 FUJITSU TEN (THAILAN170C12U0094094                                                                                                                              *          20171012WMF171012A.TXT
MDEUHO246007201710                D89828070100PT4U20171019000030SPEAKER ASM                   M IMCTM S0FL05 FTTL  07070IMCT  S0 PTB  00004                    1030 SR        000000000000 FUJITSU TEN (THAILAN170C13U0173173                                                                                                                              *          20171012WMF171012A.TXT
MDEUHO246008201710                D89828070100PT4U20171019000060SPEAKER ASM                   M IMCTM S0FL05 FTTL  07070IMCT  S0 PTB  00004                    1600 SR        000000000000 FUJITSU TEN (THAILAN18078SU0146147                                                                                                                              *          20171012WMF171012A.TXT
MDEUHO246009201710                D89828070200PV4U20171018000030SPEAKER ASM                   M IMCTM S0FR05 FTTL  07070IMCT  S0 PTB  00005                    2230 SR        000000000000 FUJITSU TEN (THAILAN170C13U0171171                                                                                                                              *          20171012WMF171012A.TXT
MDEUHO246010201710                D89828070200PV4U20171019000030SPEAKER ASM                   M IMCTM S0FR05 FTTL  07070IMCT  S0 PTB  00005                    0230 SR        000000000000 FUJITSU TEN (THAILAN170C13U0172172                                                                                                                              *          20171012WMF171012A.TXT
MDEUHO246011201710                D89828070200PV4U20171019000030SPEAKER ASM                   M IMCTM S0FR05 FTTL  07070IMCT  S0 PTB  00005                    0830 SR        000000000000 FUJITSU TEN (THAILAN170C12U0094094                                                                                                                              *          20171012WMF171012A.TXT
MDEUHO246012201710                D89828070200PV4U20171019000030SPEAKER ASM                   M IMCTM S0FR05 FTTL  07070IMCT  S0 PTB  00005                    1030 SR        000000000000 FUJITSU TEN (THAILAN170C13U0173173                                                                                                                              *          20171012WMF171012A.TXT
MDEUHO246013201710                D89828070200PV4U20171019000060SPEAKER ASM                   M IMCTM S0FR05 FTTL  07070IMCT  S0 PTB  00005                    1600 SR        000000000000 FUJITSU TEN (THAILAN18078SU0146147                                                                                                                              *          20171012WMF171012A.TXT
MDEUHO246014201710                D89828070300PT4U20171018000030SPEAKER ASM                   M IMCTM S9TS02 FTTL  07070IMCT  S9 PTB  00015                    2230 SR        000000000000 FUJITSU TEN (THAILAN170C13U0171171                                                                                                                              *          20171012WMF171012A.TXT
MDEUHO246015201710                D89828070300PT4U20171019000030SPEAKER ASM                   M IMCTM S9TS02 FTTL  07070IMCT  S9 PTB  00015                    0230 SR        000000000000 FUJITSU TEN (THAILAN170C13U0172172                                                                                                                              *          20171012WMF171012A.TXT
MDEUHO246016201710                D89828070300PT4U20171019000030SPEAKER ASM                   M IMCTM S9TS02 FTTL  07070IMCT  S9 PTB  00015                    0830 SR        000000000000 FUJITSU TEN (THAILAN170C12U0094094                                                                                                                              *          20171012WMF171012A.TXT
MDEUHO246017201710                D89828070300PT4U20171019000030SPEAKER ASM                   M IMCTM S9TS02 FTTL  07070IMCT  S9 PTB  00015                    1030 SR        000000000000 FUJITSU TEN (THAILAN170C13U0173173                                                                                                                              *          20171012WMF171012A.TXT
MDEUHO246018201710                D89828070300PT4U20171019000060SPEAKER ASM                   M IMCTM S9TS02 FTTL  07070IMCT  S9 PTB  00015                    1600 SR        000000000000 FUJITSU TEN (THAILAN18078SU0146147                                                                                                                              *          20171012WMF171012A.TXT
