REC2017101720171017ISUZU                              58     
MDDDHO246618201710                D89821984430PT1D20171021000030RADIO;AM/FM,CD                M IMCTM S5NC06 FTTL  07070IMCT  S5 PTB  00005                    1300 SR        000000000000 FUJITSU TEN (THAILAN180LNHL0004004                                                                                                                              *          20171017WMF1710173.TXT
MDDDHO246619201710                D89828070100PV1D20171021000120SPEAKER ASM                   M IMCTM S5MB11 FTTL  07070IMCT  S5 PTB  00004                    0230 SR        000000000000 FUJITSU TEN (THAILAN180LPKL0009009180LPML0003003                                                                                                                *          20171017WMF1710173.TXT
MDDDHO246620201710                D89828070100PV1D20171021000060SPEAKER ASM                   M IMCTM S5MB11 FTTL  07070IMCT  S5 PTB  00004                    0400 SR        000000000000 FUJITSU TEN (THAILAN180LPQL0002002                                                                                                                              *          20171017WMF1710173.TXT
MDDDHO246621201710                D89828070100PV1D20171021000060SPEAKER ASM                   M IMCTM S5MB11 FTTL  07070IMCT  S5 PTB  00004                    0830 SR        000000000000 FUJITSU TEN (THAILAN180LPGL0021021                                                                                                                              *          20171017WMF1710173.TXT
MDDDHO246622201710                D89828070100PV1D20171021000120SPEAKER ASM                   M IMCTM S5MB11 FTTL  07070IMCT  S5 PTB  00004                    1030 SR        000000000000 FUJITSU TEN (THAILAN180LPCL0006006180LPJL0003003                                                                                                                *          20171017WMF1710173.TXT
MDDDHO246623201710                D89828070100PV1D20171021000120SPEAKER ASM                   M IMCTM S5MB11 FTTL  07070IMCT  S5 PTB  00004                    1300 SR        000000000000 FUJITSU TEN (THAILAN180LNHL0004004180LPGL0022022                                                                                                                *          20171017WMF1710173.TXT
MDDDHO246624201710                D89828070100PV1D20171021000060SPEAKER ASM                   M IMCTM S5MB11 FTTL  07070IMCT  S5 PTB  00004                    1600 SR        000000000000 FUJITSU TEN (THAILAN180LPGL0023023                                                                                                                              *          20171017WMF1710173.TXT
MDDDHO246625201710                D89828070100PV1D20171021000060SPEAKER ASM                   M IMCTM S5MB11 FTTL  07070IMCT  S5 PTB  00004                    2100 SR        000000000000 FUJITSU TEN (THAILAN180LPCL0007007                                                                                                                              *          20171017WMF1710173.TXT
MDDDHO246626201710                D89828070300PT1D20171021000120SPEAKER ASM                   M IMCTM S5NB082FTTL  07070IMCT  S5 PTB  00015                    0230 SR        000000000000 FUJITSU TEN (THAILAN180LPKL0009009180LPML0003003                                                                                                                *          20171017WMF1710173.TXT
MDDDHO246627201710                D89828070300PT1D20171021000060SPEAKER ASM                   M IMCTM S5NB082FTTL  07070IMCT  S5 PTB  00015                    0400 SR        000000000000 FUJITSU TEN (THAILAN180LPQL0002002                                                                                                                              *          20171017WMF1710173.TXT
MDDDHO246628201710                D89828070300PT1D20171021000060SPEAKER ASM                   M IMCTM S5NB082FTTL  07070IMCT  S5 PTB  00015                    0830 SR        000000000000 FUJITSU TEN (THAILAN180LPGL0021021                                                                                                                              *          20171017WMF1710173.TXT
MDDDHO246629201710                D89828070300PT1D20171021000120SPEAKER ASM                   M IMCTM S5NB082FTTL  07070IMCT  S5 PTB  00015                    1030 SR        000000000000 FUJITSU TEN (THAILAN180LPCL0006006180LPJL0003003                                                                                                                *          20171017WMF1710173.TXT
MDDDHO246630201710                D89828070300PT1D20171021000060SPEAKER ASM                   M IMCTM S5NB082FTTL  07070IMCT  S5 PTB  00015                    1300 SR        000000000000 FUJITSU TEN (THAILAN180LPGL0022022                                                                                                                              *          20171017WMF1710173.TXT
MDDDHO246631201710                D89828070300PT1D20171021000060SPEAKER ASM                   M IMCTM S5NB082FTTL  07070IMCT  S5 PTB  00015                    1600 SR        000000000000 FUJITSU TEN (THAILAN180LPGL0023023                                                                                                                              *          20171017WMF1710173.TXT
MDDDHO246632201710                D89828070300PT1D20171021000060SPEAKER ASM                   M IMCTM S5NB082FTTL  07070IMCT  S5 PTB  00015                    2100 SR        000000000000 FUJITSU TEN (THAILAN180LPCL0007007                                                                                                                              *          20171017WMF1710173.TXT
MDDDHO246633201710                D89831228300PT1D20171021000030RADIO;AM/FM,CD                M IMCTM S5NC06 FTTL  07070IMCT  S5 CPB  00003                    0830 SR        000000000000 FUJITSU TEN (THAILAN180LPGL0021021                                                                                                                              *          20171017WMF1710173.TXT
MDDDHO246634201710                D89831228300PT1D20171021000060RADIO;AM/FM,CD                M IMCTM S5NC06 FTTL  07070IMCT  S5 CPB  00003                    1030 SR        000000000000 FUJITSU TEN (THAILAN180LPCL0006006180LPJL0003003                                                                                                                *          20171017WMF1710173.TXT
MDDDHO246635201710                D89831228300PT1D20171021000030RADIO;AM/FM,CD                M IMCTM S5NC06 FTTL  07070IMCT  S5 CPB  00003                    1300 SR        000000000000 FUJITSU TEN (THAILAN180LPGL0022022                                                                                                                              *          20171017WMF1710173.TXT
MDDDHO246636201710                D89831228300PT1D20171021000030RADIO;AM/FM,CD                M IMCTM S5NC06 FTTL  07070IMCT  S5 CPB  00003                    1600 SR        000000000000 FUJITSU TEN (THAILAN180LPGL0023023                                                                                                                              *          20171017WMF1710173.TXT
MDDDHO246637201710                D89831228300PT1D20171021000030RADIO;AM/FM,CD                M IMCTM S5NC06 FTTL  07070IMCT  S5 CPB  00003                    2100 SR        000000000000 FUJITSU TEN (THAILAN180LPCL0007007                                                                                                                              *          20171017WMF1710173.TXT
MDDDHO246638201710                D89848581600PT1D20171021000030RADIO;AM/FM CD D              M IMCTM S5NC06 FTTL  07070IMCT  S5 PTB  00003                    0230 SR        000000000000 FUJITSU TEN (THAILAN180LPKL0009009                                                                                                                              *          20171017WMF1710173.TXT
MDDDHO246639201710                D89848581600PT1D20171021000030RADIO;AM/FM CD D              M IMCTM S5NC06 FTTL  07070IMCT  S5 PTB  00003                    0400 SR        000000000000 FUJITSU TEN (THAILAN180LPQL0002002                                                                                                                              *          20171017WMF1710173.TXT
MDDUHO220792201710                D89828070100PT4U20171021000030SPEAKER ASM                   M IMCTM S0FL05 FTTL  07070IMCT  S0 PTB  00004                    0230 SR        000000000000 FUJITSU TEN (THAILAN180LUKU0013013                                                                                                                              *          20171017WMF1710173.TXT
MDDUHO220793201710                D89828070100PT4U20171021000030SPEAKER ASM                   M IMCTM S0FL05 FTTL  07070IMCT  S0 PTB  00004                    1300 SR        000000000000 FUJITSU TEN (THAILAN180LUKU0014014                                                                                                                              *          20171017WMF1710173.TXT
MDDUHO220794201710                D89828070100PT4U20171021000030SPEAKER ASM                   M IMCTM S0FL05 FTTL  07070IMCT  S0 PTB  00004                    2100 SR        000000000000 FUJITSU TEN (THAILAN180LUJU0006006                                                                                                                              *          20171017WMF1710173.TXT
MDDUHO220795201710                D89828070200PV4U20171021000030SPEAKER ASM                   M IMCTM S0FR05 FTTL  07070IMCT  S0 PTB  00005                    0230 SR        000000000000 FUJITSU TEN (THAILAN180LUKU0013013                                                                                                                              *          20171017WMF1710173.TXT
MDDUHO220796201710                D89828070200PV4U20171021000030SPEAKER ASM                   M IMCTM S0FR05 FTTL  07070IMCT  S0 PTB  00005                    1300 SR        000000000000 FUJITSU TEN (THAILAN180LUKU0014014                                                                                                                              *          20171017WMF1710173.TXT
MDDUHO220797201710                D89828070200PV4U20171021000030SPEAKER ASM                   M IMCTM S0FR05 FTTL  07070IMCT  S0 PTB  00005                    2100 SR        000000000000 FUJITSU TEN (THAILAN180LUJU0006006                                                                                                                              *          20171017WMF1710173.TXT
MDDUHO220798201710                D89828070300PT4U20171021000030SPEAKER ASM                   M IMCTM S9TS02 FTTL  07070IMCT  S9 PTB  00015                    0230 SR        000000000000 FUJITSU TEN (THAILAN180LUKU0013013                                                                                                                              *          20171017WMF1710173.TXT
MDDUHO220799201710                D89828070300PT4U20171021000030SPEAKER ASM                   M IMCTM S9TS02 FTTL  07070IMCT  S9 PTB  00015                    1300 SR        000000000000 FUJITSU TEN (THAILAN180LUKU0014014                                                                                                                              *          20171017WMF1710173.TXT
MDDUHO220800201710                D89828070300PT4U20171021000030SPEAKER ASM                   M IMCTM S9TS02 FTTL  07070IMCT  S9 PTB  00015                    2100 SR        000000000000 FUJITSU TEN (THAILAN180LUJU0006006                                                                                                                              *          20171017WMF1710173.TXT
MDDUHO220801201710                D89848584200PT4U20171021000015RADIO;AM/FM CD D              M IMCTM S9CO001FTTL  07070IMCT  S9 PTB  00003                    2100 SR        000000000000 FUJITSU TEN (THAILAN180LUJU0006006                                                                                                                              *          20171017WMF1710173.TXT
MDEDHO256692201710                D89828070100PV1D20171020000060SPEAKER ASM                   M IMCTM S5MB11 FTTL  07070IMCT  S5 PTB  00004                    2230 SR        000000000000 FUJITSU TEN (THAILAN17079NL009509517080NL0114114                                                                                                                *          20171017WMF1710173.TXT
MDEDHO256693201710                D89828070100PV4D20171021000030SPEAKER ASM                   M IMCTM S0FL05 FTTL  07070IMCT  S0 PTB  00004                    0830 SR        000000000000 FUJITSU TEN (THAILAN17080NU0069069                                                                                                                              *          20171017WMF1710173.TXT
MDEDHO256694201710                D89828070100PV4D20171021000030SPEAKER ASM                   M IMCTM S0FL05 FTTL  07070IMCT  S0 PTB  00004                    2230 SR        000000000000 FUJITSU TEN (THAILAN17080NU0070070                                                                                                                              *          20171017WMF1710173.TXT
MDEDHO256695201710                D89828070200PV1D20171020000060SPEAKER ASM                   M IMCTM S5MA14 FTTL  07070IMCT  S5 PTB  00005                    2230 SR        000000000000 FUJITSU TEN (THAILAN17079NL009509517080NL0114114                                                                                                                *          20171017WMF1710173.TXT
MDEDHO256696201710                D89828070200PV4D20171021000030SPEAKER ASM                   M IMCTM S0FR05 FTTL  07070IMCT  S0 PTB  00005                    0830 SR        000000000000 FUJITSU TEN (THAILAN17080NU0069069                                                                                                                              *          20171017WMF1710173.TXT
MDEDHO256697201710                D89828070200PV4D20171021000030SPEAKER ASM                   M IMCTM S0FR05 FTTL  07070IMCT  S0 PTB  00005                    2230 SR        000000000000 FUJITSU TEN (THAILAN17080NU0070070                                                                                                                              *          20171017WMF1710173.TXT
MDEDHO256698201710                D89828070300PT1D20171020000060SPEAKER ASM                   M IMCTM S5NB082FTTL  07070IMCT  S5 PTB  00015                    2230 SR        000000000000 FUJITSU TEN (THAILAN17079NL009509517080NL0114114                                                                                                                *          20171017WMF1710173.TXT
MDEDHO256699201710                D89828070300PT4D20171021000030SPEAKER ASM                   M IMCTM S9TS02 FTTL  07070IMCT  S9 PTB  00015                    0830 SR        000000000000 FUJITSU TEN (THAILAN17080NU0069069                                                                                                                              *          20171017WMF1710173.TXT
MDEDHO256700201710                D89828070300PT4D20171021000030SPEAKER ASM                   M IMCTM S9TS02 FTTL  07070IMCT  S9 PTB  00015                    2230 SR        000000000000 FUJITSU TEN (THAILAN17080NU0070070                                                                                                                              *          20171017WMF1710173.TXT
MDEDHO256701201710                D89848581800PT1D20171020000015RADIO;AM/FM CD D              M IMCTM S5NC06 FTTL  07070IMCT  S5 PTB  00003                    2230 SR        000000000000 FUJITSU TEN (THAILAN17079NL0095095                                                                                                                              *          20171017WMF1710173.TXT
MDEUHO255286201710                D89828070100PT4U20171020000030SPEAKER ASM                   M IMCTM S0FL05 FTTL  07070IMCT  S0 PTB  00004                    2230 SR        000000000000 FUJITSU TEN (THAILAN18078SU0149149                                                                                                                              *          20171017WMF1710173.TXT
MDEUHO255287201710                D89828070100PT4U20171021000060SPEAKER ASM                   M IMCTM S0FL05 FTTL  07070IMCT  S0 PTB  00004                    0400 SR        000000000000 FUJITSU TEN (THAILAN170C13U017717718021TU0027027                                                                                                                *          20171017WMF1710173.TXT
MDEUHO255288201710                D89828070100PT4U20171021000030SPEAKER ASM                   M IMCTM S0FL05 FTTL  07070IMCT  S0 PTB  00004                    1030 SR        000000000000 FUJITSU TEN (THAILAN170C13U0178178                                                                                                                              *          20171017WMF1710173.TXT
MDEUHO255289201710                D89828070100PT4U20171021000030SPEAKER ASM                   M IMCTM S0FL05 FTTL  07070IMCT  S0 PTB  00004                    1300 SR        000000000000 FUJITSU TEN (THAILAN18018TU0053053                                                                                                                              *          20171017WMF1710173.TXT
MDEUHO255290201710                D89828070100PT4U20171021000030SPEAKER ASM                   M IMCTM S0FL05 FTTL  07070IMCT  S0 PTB  00004                    1600 SR        000000000000 FUJITSU TEN (THAILAN18078SU0150150                                                                                                                              *          20171017WMF1710173.TXT
MDEUHO255291201710                D89828070200PV4U20171020000030SPEAKER ASM                   M IMCTM S0FR05 FTTL  07070IMCT  S0 PTB  00005                    2230 SR        000000000000 FUJITSU TEN (THAILAN18078SU0149149                                                                                                                              *          20171017WMF1710173.TXT
MDEUHO255292201710                D89828070200PV4U20171021000060SPEAKER ASM                   M IMCTM S0FR05 FTTL  07070IMCT  S0 PTB  00005                    0400 SR        000000000000 FUJITSU TEN (THAILAN170C13U017717718021TU0027027                                                                                                                *          20171017WMF1710173.TXT
MDEUHO255293201710                D89828070200PV4U20171021000030SPEAKER ASM                   M IMCTM S0FR05 FTTL  07070IMCT  S0 PTB  00005                    1030 SR        000000000000 FUJITSU TEN (THAILAN170C13U0178178                                                                                                                              *          20171017WMF1710173.TXT
MDEUHO255294201710                D89828070200PV4U20171021000030SPEAKER ASM                   M IMCTM S0FR05 FTTL  07070IMCT  S0 PTB  00005                    1300 SR        000000000000 FUJITSU TEN (THAILAN18018TU0053053                                                                                                                              *          20171017WMF1710173.TXT
MDEUHO255295201710                D89828070200PV4U20171021000030SPEAKER ASM                   M IMCTM S0FR05 FTTL  07070IMCT  S0 PTB  00005                    1600 SR        000000000000 FUJITSU TEN (THAILAN18078SU0150150                                                                                                                              *          20171017WMF1710173.TXT
MDEUHO255296201710                D89828070300PT4U20171020000030SPEAKER ASM                   M IMCTM S9TS02 FTTL  07070IMCT  S9 PTB  00015                    2230 SR        000000000000 FUJITSU TEN (THAILAN18078SU0149149                                                                                                                              *          20171017WMF1710173.TXT
MDEUHO255297201710                D89828070300PT4U20171021000060SPEAKER ASM                   M IMCTM S9TS02 FTTL  07070IMCT  S9 PTB  00015                    0400 SR        000000000000 FUJITSU TEN (THAILAN170C13U017717718021TU0027027                                                                                                                *          20171017WMF1710173.TXT
MDEUHO255298201710                D89828070300PT4U20171021000030SPEAKER ASM                   M IMCTM S9TS02 FTTL  07070IMCT  S9 PTB  00015                    1030 SR        000000000000 FUJITSU TEN (THAILAN170C13U0178178                                                                                                                              *          20171017WMF1710173.TXT
MDEUHO255299201710                D89828070300PT4U20171021000030SPEAKER ASM                   M IMCTM S9TS02 FTTL  07070IMCT  S9 PTB  00015                    1300 SR        000000000000 FUJITSU TEN (THAILAN18018TU0053053                                                                                                                              *          20171017WMF1710173.TXT
MDEUHO255300201710                D89828070300PT4U20171021000030SPEAKER ASM                   M IMCTM S9TS02 FTTL  07070IMCT  S9 PTB  00015                    1600 SR        000000000000 FUJITSU TEN (THAILAN18078SU0150150                                                                                                                              *          20171017WMF1710173.TXT
MDEUHO255301201710                D89848584700PT4U20171021000015RADIO;AM/FM CD D              M IMCTM S9CO001FTTL  07070IMCT  S9 PTB  00003                    0400 SR        000000000000 FUJITSU TEN (THAILAN18021TU0027027                                                                                                                              *          20171017WMF1710173.TXT
