REC2017101020171010ISUZU                              14     
MDEFHOT09255201710                D89805293700PV4F20171017000010SPEAKER ASM                   M IMCTM S7FR05 FTTL  07070IMCT  S7 PTB  00003                    1030 SR        000000000000 FUJITSU TEN (THAILAN15034DR0042   15045FR0041   D171003201    D171003205    000000                                                                              *R         20171010RDF1710105.TXT
MDEFHOT09256201710                D89805294000PT4F20171017000010SPEAKER ASM                   M IMCTM S7TS02 FTTL  07070IMCT  S7 PTB  00015                    1030 SR        000000000000 FUJITSU TEN (THAILAN15034DR0042   15045FR0041   D171003201    D171003205    000000                                                                              *R         20171010RDF1710105.TXT
MDEFHOT09257201710                D89805294200PT4F20171017000006SPEAKER ASM                   M IMCTM S7S137 FTTL  07070IMCT  S7 PTB  00030                    1030 SR        000000000000 FUJITSU TEN (THAILAN15034DR0042   15034DR0044   D171003201    D171003203    000000                                                                              *R         20171010RDF1710105.TXT
MDEFHOT09258201710                D89806470400PT4F20171017000003SPEAKER ASM;RDO,              M IMCTM S7TL03 FTTL  07070IMCT  S7 PTB  00015                    1030 SR        000000000000 FUJITSU TEN (THAILAN15034DR0042   15034DR0044   D171003201    D171003203    000000                                                                              *R         20171010RDF1710105.TXT
MDEFHOT09259201710                D89824135720PT4F20171017000002RADIO;AM/FM,CD,F              M IMCTM S7TS03 FTTL  07070IMCT  S7 PTB  00003                    1030 SR        000000000000 FUJITSU TEN (THAILAN15045FR0040   15045FR0041   D171003204    D171003205    000000                                                                              *R         20171010RDF1710105.TXT
MDEFHOT09260201710                D89824360220PT4F20171017000003RADIO;AM/FM,CD                M IMCTM S7TS03 FTTL  07070IMCT  S7 CPB  00003                    1030 SR        000000000000 FUJITSU TEN (THAILAN15034DR0042   15034DR0044   D171003201    D171003203    000000                                                                              *R         20171010RDF1710105.TXT
MDEFHOT09261201710                D89828070100PV4F20171017000030SPEAKER ASM                   M IMCTM S7FL05 FTTL  07070IMCT  S7 PTB  00004                    1600 SR        000000000000 FUJITSU TEN (THAILAN17035RR0058   17085MR0064   D171003301    D171003315    000000                                                                              *R         20171010RDF1710105.TXT
MDEFHOT09262201710                D89828070200PV4F20171017000008SPEAKER ASM                   M IMCTM S7TS02 FTTL  07070IMCT  S7 PTB  00005                    1600 SR        000000000000 FUJITSU TEN (THAILAN17085MR0061   17085MR0064   D171003312    D171003315    000000                                                                              *R         20171010RDF1710105.TXT
MDEFHOT09263201710                D89828070300PT4F20171017000013SPEAKER ASM                   M IMCTM S7TS02 FTTL  07070IMCT  S7 PTB  00015                    1300 SR        000000000000 FUJITSU TEN (THAILAN17034PR0063   17085MR0064   D171003213    D171003315    000000                                                                              *R         20171010RDF1710105.TXT
MDEFHO224282201710                D89828070100PV4F20171017000012SPEAKER ASM                   M IMCTM S7FL05 FTTL  07070IMCT  S7 PTB  00004                    1030 SR        000000000000 FUJITSU TEN (THAILAN17031MR0060   17034PR0061   D171003206    D171003211    000000                                                                              *R         20171010RDF1710105.TXT
MDEFHO224283201710                D89828070100PV4F20171017000008SPEAKER ASM                   M IMCTM S7FL05 FTTL  07070IMCT  S7 PTB  00004                    1300 SR        000000000000 FUJITSU TEN (THAILAN17034PR0062   17079MR0069   D171003212    D171003215    000000                                                                              *R         20171010RDF1710105.TXT
MDEFHO224284201710                D89828070200PV4F20171017000015SPEAKER ASM                   M IMCTM S7TS02 FTTL  07070IMCT  S7 PTB  00005                    1030 SR        000000000000 FUJITSU TEN (THAILAN17031MR0060   17034PR0063   D171003206    D171003213    000000                                                                              *R         20171010RDF1710105.TXT
MDEFHO224285201710                D89828070200PV4F20171017000005SPEAKER ASM                   M IMCTM S7TS02 FTTL  07070IMCT  S7 PTB  00005                    1300 SR        000000000000 FUJITSU TEN (THAILAN17034PR0063   17085MR0060   D171003213    D171003311    000000                                                                              *R         20171010RDF1710105.TXT
MDEFHO224286201710                D89828070300PT4F20171017000015SPEAKER ASM                   M IMCTM S7TS02 FTTL  07070IMCT  S7 PTB  00015                    1030 SR        000000000000 FUJITSU TEN (THAILAN17031MR0060   17034PR0063   D171003206    D171003213    000000                                                                              *R         20171010RDF1710105.TXT
