REC2017101620171016ISUZU                              31     
MDD6HO245885201710                D89828070100PV5620171019000060SPEAKER ASM                   M IMCTM G9B112 FTTL  07070G/WAY G9 PTB  00004                    1530 GW        0000000000005FUJITSU TEN (THAILAN180LRLG0010010                                                                                                                              *          20171016WMF1710162.TXT
MDD6HO245886201710                D89828070100PV5620171019000060SPEAKER ASM                   M IMCTM G9B112 FTTL  07070G/WAY G9 PTB  00004                    2100 GW        0000000000005FUJITSU TEN (THAILAN180LPKG0006006                                                                                                                              *          20171016WMF1710162.TXT
MDD6HO245887201710                D89828070100PV5620171019000120SPEAKER ASM                   M IMCTM G9B112 FTTL  07070G/WAY G9 PTB  00004                    2300 GW        0000000000005FUJITSU TEN (THAILAN180LRHG0014014180LRPG0001001                                                                                                                *          20171016WMF1710162.TXT
MDD6HO245888201710                D89828070100PV5620171020000060SPEAKER ASM                   M IMCTM G9B112 FTTL  07070G/WAY G9 PTB  00004                    0200 GW        0000000000005FUJITSU TEN (THAILAN180LRFG0005005                                                                                                                              *          20171016WMF1710162.TXT
MDD6HO245889201710                D89828070100PV5620171020000060SPEAKER ASM                   M IMCTM G9B112 FTTL  07070G/WAY G9 PTB  00004                    0330 GW        0000000000005FUJITSU TEN (THAILAN180LRMG0008008                                                                                                                              *          20171016WMF1710162.TXT
MDD6HO245890201710                D89828070100PV5620171020000060SPEAKER ASM                   M IMCTM G9B112 FTTL  07070G/WAY G9 PTB  00004                    0900 GW        0000000000005FUJITSU TEN (THAILAN180LRHG0015015                                                                                                                              *          20171016WMF1710162.TXT
MDD6HO245891201710                D89828070100PV5620171020000060SPEAKER ASM                   M IMCTM G9B112 FTTL  07070G/WAY G9 PTB  00004                    1100 GW        0000000000005FUJITSU TEN (THAILAN180LPKG0007007                                                                                                                              *          20171016WMF1710162.TXT
MDD6HO245892201710                D89828070100PV5620171020000060SPEAKER ASM                   M IMCTM G9B112 FTTL  07070G/WAY G9 PTB  00004                    1400 GW        0000000000005FUJITSU TEN (THAILAN180LRLG0011011                                                                                                                              *          20171016WMF1710162.TXT
MDD6HO245893201710                D89828070100PV5620171020000120SPEAKER ASM                   M IMCTM G9B112 FTTL  07070G/WAY G9 PTB  00004                    1530 GW        0000000000005FUJITSU TEN (THAILAN180LRHG0016017                                                                                                                              *          20171016WMF1710162.TXT
MDD6HO245894201710                D89828070200PV5620171019000060SPEAKER ASM                   M IMCTM G9F132 FTTL  07070G/WAY G9 PTB  00005                    1530 GW        0000000000005FUJITSU TEN (THAILAN180LRLG0010010                                                                                                                              *          20171016WMF1710162.TXT
MDD6HO245895201710                D89828070200PV5620171019000120SPEAKER ASM                   M IMCTM G9F132 FTTL  07070G/WAY G9 PTB  00005                    2300 GW        0000000000005FUJITSU TEN (THAILAN180LRHG0014014180LRPG0001001                                                                                                                *          20171016WMF1710162.TXT
MDD6HO245896201710                D89828070200PV5620171020000060SPEAKER ASM                   M IMCTM G9F132 FTTL  07070G/WAY G9 PTB  00005                    0200 GW        0000000000005FUJITSU TEN (THAILAN180LRFG0005005                                                                                                                              *          20171016WMF1710162.TXT
MDD6HO245897201710                D89828070200PV5620171020000060SPEAKER ASM                   M IMCTM G9F132 FTTL  07070G/WAY G9 PTB  00005                    0330 GW        0000000000005FUJITSU TEN (THAILAN180LRMG0008008                                                                                                                              *          20171016WMF1710162.TXT
MDD6HO245898201710                D89828070200PV5620171020000060SPEAKER ASM                   M IMCTM G9F132 FTTL  07070G/WAY G9 PTB  00005                    0900 GW        0000000000005FUJITSU TEN (THAILAN180LRHG0015015                                                                                                                              *          20171016WMF1710162.TXT
MDD6HO245899201710                D89828070200PV5620171020000060SPEAKER ASM                   M IMCTM G9F132 FTTL  07070G/WAY G9 PTB  00005                    1400 GW        0000000000005FUJITSU TEN (THAILAN180LRLG0011011                                                                                                                              *          20171016WMF1710162.TXT
MDD6HO245900201710                D89828070200PV5620171020000120SPEAKER ASM                   M IMCTM G9F132 FTTL  07070G/WAY G9 PTB  00005                    1530 GW        0000000000005FUJITSU TEN (THAILAN180LRHG0016017                                                                                                                              *          20171016WMF1710162.TXT
MDD6HO245901201710                D89828070300PT5620171019000060SPEAKER ASM                   M IMCTM G9JB34 FTTL  07070G/WAY G9 PTB  00015                    1530 GW        0000000000005FUJITSU TEN (THAILAN180LRLG0010010                                                                                                                              *          20171016WMF1710162.TXT
MDD6HO245902201710                D89828070300PT5620171019000060SPEAKER ASM                   M IMCTM G9JB34 FTTL  07070G/WAY G9 PTB  00015                    2100 GW        0000000000005FUJITSU TEN (THAILAN180LPKG0006006                                                                                                                              *          20171016WMF1710162.TXT
MDD6HO245903201710                D89828070300PT5620171019000120SPEAKER ASM                   M IMCTM G9JB34 FTTL  07070G/WAY G9 PTB  00015                    2300 GW        0000000000005FUJITSU TEN (THAILAN180LRHG0014014180LRPG0001001                                                                                                                *          20171016WMF1710162.TXT
MDD6HO245904201710                D89828070300PT5620171020000060SPEAKER ASM                   M IMCTM G9JB34 FTTL  07070G/WAY G9 PTB  00015                    0200 GW        0000000000005FUJITSU TEN (THAILAN180LRFG0005005                                                                                                                              *          20171016WMF1710162.TXT
MDD6HO245905201710                D89828070300PT5620171020000060SPEAKER ASM                   M IMCTM G9JB34 FTTL  07070G/WAY G9 PTB  00015                    0330 GW        0000000000005FUJITSU TEN (THAILAN180LRMG0008008                                                                                                                              *          20171016WMF1710162.TXT
MDD6HO245906201710                D89828070300PT5620171020000060SPEAKER ASM                   M IMCTM G9JB34 FTTL  07070G/WAY G9 PTB  00015                    0900 GW        0000000000005FUJITSU TEN (THAILAN180LRHG0015015                                                                                                                              *          20171016WMF1710162.TXT
MDD6HO245907201710                D89828070300PT5620171020000060SPEAKER ASM                   M IMCTM G9JB34 FTTL  07070G/WAY G9 PTB  00015                    1100 GW        0000000000005FUJITSU TEN (THAILAN180LPKG0007007                                                                                                                              *          20171016WMF1710162.TXT
MDD6HO245908201710                D89828070300PT5620171020000060SPEAKER ASM                   M IMCTM G9JB34 FTTL  07070G/WAY G9 PTB  00015                    1400 GW        0000000000005FUJITSU TEN (THAILAN180LRLG0011011                                                                                                                              *          20171016WMF1710162.TXT
MDD6HO245909201710                D89828070300PT5620171020000120SPEAKER ASM                   M IMCTM G9JB34 FTTL  07070G/WAY G9 PTB  00015                    1530 GW        0000000000005FUJITSU TEN (THAILAN180LRHG0016017                                                                                                                              *          20171016WMF1710162.TXT
MDD6HO245910201710                D89831228400PT5620171020000030RADIO;AM/FM,CD                M IMCTM G9J311 FTTL  07070G/WAY G9 CPB  00003                    0200 GW        0000000000005FUJITSU TEN (THAILAN180LRFG0005005                                                                                                                              *          20171016WMF1710162.TXT
MDD6HO245911201710                D89848581500PT5620171019000030RADIO;AM/FM CD D              M IMCTM G9J213 FTTL  07070G/WAY G9 PTB  00003                    2300 GW        0000000000005FUJITSU TEN (THAILAN180LRHG0014014                                                                                                                              *          20171016WMF1710162.TXT
MDD6HO245912201710                D89848581500PT5620171020000030RADIO;AM/FM CD D              M IMCTM G9J213 FTTL  07070G/WAY G9 PTB  00003                    0900 GW        0000000000005FUJITSU TEN (THAILAN180LRHG0015015                                                                                                                              *          20171016WMF1710162.TXT
MDD6HO245913201710                D89848581500PT5620171020000060RADIO;AM/FM CD D              M IMCTM G9J213 FTTL  07070G/WAY G9 PTB  00003                    1530 GW        0000000000005FUJITSU TEN (THAILAN180LRHG0016017                                                                                                                              *          20171016WMF1710162.TXT
MDD6HO245914201710                D89848581600PT5620171019000030RADIO;AM/FM CD D              M IMCTM G9J213 FTTL  07070G/WAY G9 PTB  00003                    2100 GW        0000000000005FUJITSU TEN (THAILAN180LPKG0006006                                                                                                                              *          20171016WMF1710162.TXT
MDD6HO245915201710                D89848581600PT5620171020000030RADIO;AM/FM CD D              M IMCTM G9J213 FTTL  07070G/WAY G9 PTB  00003                    1100 GW        0000000000005FUJITSU TEN (THAILAN180LPKG0007007                                                                                                                              *          20171016WMF1710162.TXT
