REC2017100220171002ISUZU                              9      
MDEFHOT00289201710                D89828070100PV4F20171006000028SPEAKER ASM                   M IMCTM S7FL05 FTTL  07070IMCT  S7 PTB  00004                    1300 SR        000000000000 FUJITSU TEN (THAILAN17074PR0022   17075PR0060   H171001402    H171001415    000000                                                                              *R         20171002RDF1710024.TXT
MDEFHOT00290201710                D89828070200PV4F20171006000015SPEAKER ASM                   M IMCTM S7TS02 FTTL  07070IMCT  S7 PTB  00005                    0830 SR        000000000000 FUJITSU TEN (THAILAN17035SR0058   17051RR0073   D171001308    D171001315    000000                                                                              *R         20171002RDF1710024.TXT
MDEFHOT00291201710                D89828070300PT4F20171006000015SPEAKER ASM                   M IMCTM S7TS02 FTTL  07070IMCT  S7 PTB  00015                    0830 SR        000000000000 FUJITSU TEN (THAILAN17035SR0058   17051RR0073   D171001308    D171001315    000000                                                                              *R         20171002RDF1710024.TXT
MDEFHOT00292201710                D89829645410PT4F20171006000002RADIO;ASM DVD                 M IMCTM S7TS03 FTTL  07070IMCT  S7 PTB  00003                    0830 SR        000000000000 FUJITSU TEN (THAILAN17050RR0093   17051RR0073   D171001314    D171001315    000000                                                                              *R         20171002RDF1710024.TXT
MDEFHOT00293201710                D89831229000PT4F20171006000001RADIO;AM/FM,CD                M IMCTM S7TS03 FTTL  07070IMCT  S7 PTB  00003                    0830 SR        000000000000 FUJITSU TEN (THAILAN17040RR0038   17040RR0038   D171001309    D171001309    000000                                                                              *R         20171002RDF1710024.TXT
MDEFHO200091201710                D89828070100PV4F20171006000016SPEAKER ASM                   M IMCTM S7FL05 FTTL  07070IMCT  S7 PTB  00004                    0400 SR        000000000000 FUJITSU TEN (THAILAN17035SR0051   17035SR0058   D171001301    D171001308    000000                                                                              *R         20171002RDF1710024.TXT
MDEFHO200092201710                D89828070100PV4F20171006000016SPEAKER ASM                   M IMCTM S7FL05 FTTL  07070IMCT  S7 PTB  00004                    0830 SR        000000000000 FUJITSU TEN (THAILAN17040RR0038   17074PR0021   D171001309    H171001401    000000                                                                              *R         20171002RDF1710024.TXT
MDEFHO200093201710                D89828070200PV4F20171006000015SPEAKER ASM                   M IMCTM S7TS02 FTTL  07070IMCT  S7 PTB  00005                    0400 SR        000000000000 FUJITSU TEN (THAILAN17035SR0051   17035SR0058   D171001301    D171001308    000000                                                                              *R         20171002RDF1710024.TXT
MDEFHO200094201710                D89828070300PT4F20171006000015SPEAKER ASM                   M IMCTM S7TS02 FTTL  07070IMCT  S7 PTB  00015                    0400 SR        000000000000 FUJITSU TEN (THAILAN17035SR0051   17035SR0058   D171001301    D171001308    000000                                                                              *R         20171002RDF1710024.TXT
