REC2017102520171025ISUZU                              30     
MAKK7O141271201710D1               89805293700P3YK20171106000060SPEAKER ASM                   M IMCTM CM1    FTTL  07070IMKDC KA   PTB00003  K0                0900DES        000000000000 FUJITSU TEN (THAILAN                                                                                                                                            *G         20171025WMF1710259.TXT
MAKK7O141272201710D1               89805293700P3YK20171107000090SPEAKER ASM                   M IMCTM CM1    FTTL  07070IMKDC KA   PTB00003  K0                0900DES        000000000000 FUJITSU TEN (THAILAN                                                                                                                                            *G         20171025WMF1710259.TXT
MAKK7O141273201710D1               89805293700P3YK20171108000060SPEAKER ASM                   M IMCTM CM1    FTTL  07070IMKDC KA   PTB00003  K0                0900DES        000000000000 FUJITSU TEN (THAILAN                                                                                                                                            *G         20171025WMF1710259.TXT
MAKK7O141274201710D1               89805293700P3YK20171109000090SPEAKER ASM                   M IMCTM CM1    FTTL  07070IMKDC KA   PTB00003  K0                0900DES        000000000000 FUJITSU TEN (THAILAN                                                                                                                                            *G         20171025WMF1710259.TXT
MAKK7O141275201710D1               89805293700P3YK20171110000060SPEAKER ASM                   M IMCTM CM1    FTTL  07070IMKDC KA   PTB00003  K0                0900DES        000000000000 FUJITSU TEN (THAILAN                                                                                                                                            *G         20171025WMF1710259.TXT
MAKK7O141276201710D1               89805294000P3YK20171106000030SPEAKER ASM                   M IMCTM CM1    FTTL  07070IMKDC KA   PTB00015  K0                0900DES        000000000000 FUJITSU TEN (THAILAN                                                                                                                                            *G         20171025WMF1710259.TXT
MAKK7O141277201710D1               89805294000P3YK20171108000030SPEAKER ASM                   M IMCTM CM1    FTTL  07070IMKDC KA   PTB00015  K0                0900DES        000000000000 FUJITSU TEN (THAILAN                                                                                                                                            *G         20171025WMF1710259.TXT
MAKK7O141278201710D1               89805294000P3YK20171109000030SPEAKER ASM                   M IMCTM CM1    FTTL  07070IMKDC KA   PTB00015  K0                0900DES        000000000000 FUJITSU TEN (THAILAN                                                                                                                                            *G         20171025WMF1710259.TXT
MAKK7O141279201710D1               89805294100P3YK20171106000030SPEAKER ASM                   M IMCTM CM1    FTTL  07070IMKDC KA   PTB00005  K0                0900DES        000000000000 FUJITSU TEN (THAILAN                                                                                                                                            *G         20171025WMF1710259.TXT
MAKK7O141280201710D1               89805294100P3YK20171108000030SPEAKER ASM                   M IMCTM CM1    FTTL  07070IMKDC KA   PTB00005  K0                0900DES        000000000000 FUJITSU TEN (THAILAN                                                                                                                                            *G         20171025WMF1710259.TXT
MAKK7O141281201710D1               89805294100P3YK20171109000030SPEAKER ASM                   M IMCTM CM1    FTTL  07070IMKDC KA   PTB00005  K0                0900DES        000000000000 FUJITSU TEN (THAILAN                                                                                                                                            *G         20171025WMF1710259.TXT
MAKK7O141282201710D1               89825451200P3YK20171106000210SPEAKER ASM;ROOF              M IMCTM CM1    FTTL  07070IMKDC KA   PTB00015  K0                0900DES        000000000000 FUJITSU TEN (THAILAN                                                                                                                                            *G         20171025WMF1710259.TXT
MAKK7O141283201710D1               89825451200P3YK20171107000150SPEAKER ASM;ROOF              M IMCTM CM1    FTTL  07070IMKDC KA   PTB00015  K0                0900DES        000000000000 FUJITSU TEN (THAILAN                                                                                                                                            *G         20171025WMF1710259.TXT
MAKK7O141284201710D1               89825451200P3YK20171108000150SPEAKER ASM;ROOF              M IMCTM CM1    FTTL  07070IMKDC KA   PTB00015  K0                0900DES        000000000000 FUJITSU TEN (THAILAN                                                                                                                                            *G         20171025WMF1710259.TXT
MAKK7O141285201710D1               89825451200P3YK20171109000030SPEAKER ASM;ROOF              M IMCTM CM1    FTTL  07070IMKDC KA   PTB00015  K0                0900DES        000000000000 FUJITSU TEN (THAILAN                                                                                                                                            *G         20171025WMF1710259.TXT
MAKK7O141286201710D1               89825451200P3YK20171110000120SPEAKER ASM;ROOF              M IMCTM CM1    FTTL  07070IMKDC KA   PTB00015  K0                0900DES        000000000000 FUJITSU TEN (THAILAN                                                                                                                                            *G         20171025WMF1710259.TXT
MAKK7O141287201710D1               89828070100P3YK20171106000120SPEAKER ASM                   M IMCTM CM1    FTTL  07070IMKDC KA PTB  00004  K0                0900DES        000000000000 FUJITSU TEN (THAILAN                                                                                                                                            *G         20171025WMF1710259.TXT
MAKK7O141288201710D1               89828070100P3YK20171107000090SPEAKER ASM                   M IMCTM CM1    FTTL  07070IMKDC KA PTB  00004  K0                0900DES        000000000000 FUJITSU TEN (THAILAN                                                                                                                                            *G         20171025WMF1710259.TXT
MAKK7O141289201710D1               89828070100P3YK20171108000150SPEAKER ASM                   M IMCTM CM1    FTTL  07070IMKDC KA PTB  00004  K0                0900DES        000000000000 FUJITSU TEN (THAILAN                                                                                                                                            *G         20171025WMF1710259.TXT
MAKK7O141290201710D1               89828070100P3YK20171109000120SPEAKER ASM                   M IMCTM CM1    FTTL  07070IMKDC KA PTB  00004  K0                0900DES        000000000000 FUJITSU TEN (THAILAN                                                                                                                                            *G         20171025WMF1710259.TXT
MAKK7O141291201710D1               89828070100P3YK20171110000120SPEAKER ASM                   M IMCTM CM1    FTTL  07070IMKDC KA PTB  00004  K0                0900DES        000000000000 FUJITSU TEN (THAILAN                                                                                                                                            *G         20171025WMF1710259.TXT
MAKK7O141292201710D1               89828070200P3YK20171106000090SPEAKER ASM                   M IMCTM CM1    FTTL  07070IMKDC KA PTB  00005  K0                0900DES        000000000000 FUJITSU TEN (THAILAN                                                                                                                                            *G         20171025WMF1710259.TXT
MAKK7O141293201710D1               89828070200P3YK20171107000090SPEAKER ASM                   M IMCTM CM1    FTTL  07070IMKDC KA PTB  00005  K0                0900DES        000000000000 FUJITSU TEN (THAILAN                                                                                                                                            *G         20171025WMF1710259.TXT
MAKK7O141294201710D1               89828070200P3YK20171108000030SPEAKER ASM                   M IMCTM CM1    FTTL  07070IMKDC KA PTB  00005  K0                0900DES        000000000000 FUJITSU TEN (THAILAN                                                                                                                                            *G         20171025WMF1710259.TXT
MAKK7O141295201710D1               89828070200P3YK20171109000060SPEAKER ASM                   M IMCTM CM1    FTTL  07070IMKDC KA PTB  00005  K0                0900DES        000000000000 FUJITSU TEN (THAILAN                                                                                                                                            *G         20171025WMF1710259.TXT
MAKK7O141296201710D1               89828070300P3YK20171106000120SPEAKER ASM                   M IMCTM CM1    FTTL  07070IMKDC KA PTB  00015  K0                0900DES        000000000000 FUJITSU TEN (THAILAN                                                                                                                                            *G         20171025WMF1710259.TXT
MAKK7O141297201710D1               89828070300P3YK20171107000090SPEAKER ASM                   M IMCTM CM1    FTTL  07070IMKDC KA PTB  00015  K0                0900DES        000000000000 FUJITSU TEN (THAILAN                                                                                                                                            *G         20171025WMF1710259.TXT
MAKK7O141298201710D1               89828070300P3YK20171108000090SPEAKER ASM                   M IMCTM CM1    FTTL  07070IMKDC KA PTB  00015  K0                0900DES        000000000000 FUJITSU TEN (THAILAN                                                                                                                                            *G         20171025WMF1710259.TXT
MAKK7O141299201710D1               89828070300P3YK20171109000060SPEAKER ASM                   M IMCTM CM1    FTTL  07070IMKDC KA PTB  00015  K0                0900DES        000000000000 FUJITSU TEN (THAILAN                                                                                                                                            *G         20171025WMF1710259.TXT
MAKK7O141300201710D1               89828070300P3YK20171110000060SPEAKER ASM                   M IMCTM CM1    FTTL  07070IMKDC KA PTB  00015  K0                0900DES        000000000000 FUJITSU TEN (THAILAN                                                                                                                                            *G         20171025WMF1710259.TXT
