REC2017100420171004ISUZU                              35     
MAKK7O083652201710D1               89805293700P3YK20171016000150SPEAKER ASM                   M IMCTM CM1    FTTL  07070IMKDC KA   PTB00003  K0                0900DES        000000000000 FUJITSU TEN (THAILAN                                                                                                                                            *G         20171004WMF1710046.TXT
MAKK7O083653201710D1               89805293700P3YK20171017000120SPEAKER ASM                   M IMCTM CM1    FTTL  07070IMKDC KA   PTB00003  K0                0900DES        000000000000 FUJITSU TEN (THAILAN                                                                                                                                            *G         20171004WMF1710046.TXT
MAKK7O083654201710D1               89805293700P3YK20171018000120SPEAKER ASM                   M IMCTM CM1    FTTL  07070IMKDC KA   PTB00003  K0                0900DES        000000000000 FUJITSU TEN (THAILAN                                                                                                                                            *G         20171004WMF1710046.TXT
MAKK7O083655201710D1               89805293700P3YK20171019000150SPEAKER ASM                   M IMCTM CM1    FTTL  07070IMKDC KA   PTB00003  K0                0900DES        000000000000 FUJITSU TEN (THAILAN                                                                                                                                            *G         20171004WMF1710046.TXT
MAKK7O083656201710D1               89805293700P3YK20171020000150SPEAKER ASM                   M IMCTM CM1    FTTL  07070IMKDC KA   PTB00003  K0                0900DES        000000000000 FUJITSU TEN (THAILAN                                                                                                                                            *G         20171004WMF1710046.TXT
MAKK7O083657201710D1               89805293700P3YK20171021000210SPEAKER ASM                   M IMCTM CM1    FTTL  07070IMKDC KA   PTB00003  K0                0900DES        000000000000 FUJITSU TEN (THAILAN                                                                                                                                            *G         20171004WMF1710046.TXT
MAKK7O083658201710D1               89805294000P3YK20171019000030SPEAKER ASM                   M IMCTM CM1    FTTL  07070IMKDC KA   PTB00015  K0                0900DES        000000000000 FUJITSU TEN (THAILAN                                                                                                                                            *G         20171004WMF1710046.TXT
MAKK7O083659201710D1               89805294000P3YK20171020000030SPEAKER ASM                   M IMCTM CM1    FTTL  07070IMKDC KA   PTB00015  K0                0900DES        000000000000 FUJITSU TEN (THAILAN                                                                                                                                            *G         20171004WMF1710046.TXT
MAKK7O083660201710D1               89805294000P3YK20171021000030SPEAKER ASM                   M IMCTM CM1    FTTL  07070IMKDC KA   PTB00015  K0                0900DES        000000000000 FUJITSU TEN (THAILAN                                                                                                                                            *G         20171004WMF1710046.TXT
MAKK7O083661201710D1               89805294100P3YK20171019000030SPEAKER ASM                   M IMCTM CM1    FTTL  07070IMKDC KA   PTB00005  K0                0900DES        000000000000 FUJITSU TEN (THAILAN                                                                                                                                            *G         20171004WMF1710046.TXT
MAKK7O083662201710D1               89805294100P3YK20171020000030SPEAKER ASM                   M IMCTM CM1    FTTL  07070IMKDC KA   PTB00005  K0                0900DES        000000000000 FUJITSU TEN (THAILAN                                                                                                                                            *G         20171004WMF1710046.TXT
MAKK7O083663201710D1               89805294100P3YK20171021000030SPEAKER ASM                   M IMCTM CM1    FTTL  07070IMKDC KA   PTB00005  K0                0900DES        000000000000 FUJITSU TEN (THAILAN                                                                                                                                            *G         20171004WMF1710046.TXT
MAKK7O083664201710D1               89825451200P3YK20171016000030SPEAKER ASM;ROOF              M IMCTM CM1    FTTL  07070IMKDC KA   PTB00015  K0                0900DES        000000000000 FUJITSU TEN (THAILAN                                                                                                                                            *G         20171004WMF1710046.TXT
MAKK7O083665201710D1               89825451200P3YK20171017000030SPEAKER ASM;ROOF              M IMCTM CM1    FTTL  07070IMKDC KA   PTB00015  K0                0900DES        000000000000 FUJITSU TEN (THAILAN                                                                                                                                            *G         20171004WMF1710046.TXT
MAKK7O083666201710D1               89825451200P3YK20171018000060SPEAKER ASM;ROOF              M IMCTM CM1    FTTL  07070IMKDC KA   PTB00015  K0                0900DES        000000000000 FUJITSU TEN (THAILAN                                                                                                                                            *G         20171004WMF1710046.TXT
MAKK7O083667201710D1               89825451200P3YK20171020000060SPEAKER ASM;ROOF              M IMCTM CM1    FTTL  07070IMKDC KA   PTB00015  K0                0900DES        000000000000 FUJITSU TEN (THAILAN                                                                                                                                            *G         20171004WMF1710046.TXT
MAKK7O083668201710D1               89825451200P3YK20171021000060SPEAKER ASM;ROOF              M IMCTM CM1    FTTL  07070IMKDC KA   PTB00015  K0                0900DES        000000000000 FUJITSU TEN (THAILAN                                                                                                                                            *G         20171004WMF1710046.TXT
MAKK7O083669201710D1               89828070100P3YK20171016000090SPEAKER ASM                   M IMCTM CM1    FTTL  07070IMKDC KA PTB  00004  K0                0900DES        000000000000 FUJITSU TEN (THAILAN                                                                                                                                            *G         20171004WMF1710046.TXT
MAKK7O083670201710D1               89828070100P3YK20171017000120SPEAKER ASM                   M IMCTM CM1    FTTL  07070IMKDC KA PTB  00004  K0                0900DES        000000000000 FUJITSU TEN (THAILAN                                                                                                                                            *G         20171004WMF1710046.TXT
MAKK7O083671201710D1               89828070100P3YK20171018000060SPEAKER ASM                   M IMCTM CM1    FTTL  07070IMKDC KA PTB  00004  K0                0900DES        000000000000 FUJITSU TEN (THAILAN                                                                                                                                            *G         20171004WMF1710046.TXT
MAKK7O083672201710D1               89828070100P3YK20171019000150SPEAKER ASM                   M IMCTM CM1    FTTL  07070IMKDC KA PTB  00004  K0                0900DES        000000000000 FUJITSU TEN (THAILAN                                                                                                                                            *G         20171004WMF1710046.TXT
MAKK7O083673201710D1               89828070100P3YK20171020000090SPEAKER ASM                   M IMCTM CM1    FTTL  07070IMKDC KA PTB  00004  K0                0900DES        000000000000 FUJITSU TEN (THAILAN                                                                                                                                            *G         20171004WMF1710046.TXT
MAKK7O083674201710D1               89828070100P3YK20171021000030SPEAKER ASM                   M IMCTM CM1    FTTL  07070IMKDC KA PTB  00004  K0                0900DES        000000000000 FUJITSU TEN (THAILAN                                                                                                                                            *G         20171004WMF1710046.TXT
MAKK7O083675201710D1               89828070200P3YK20171016000030SPEAKER ASM                   M IMCTM CM1    FTTL  07070IMKDC KA PTB  00005  K0                0900DES        000000000000 FUJITSU TEN (THAILAN                                                                                                                                            *G         20171004WMF1710046.TXT
MAKK7O083676201710D1               89828070200P3YK20171017000120SPEAKER ASM                   M IMCTM CM1    FTTL  07070IMKDC KA PTB  00005  K0                0900DES        000000000000 FUJITSU TEN (THAILAN                                                                                                                                            *G         20171004WMF1710046.TXT
MAKK7O083677201710D1               89828070200P3YK20171018000060SPEAKER ASM                   M IMCTM CM1    FTTL  07070IMKDC KA PTB  00005  K0                0900DES        000000000000 FUJITSU TEN (THAILAN                                                                                                                                            *G         20171004WMF1710046.TXT
MAKK7O083678201710D1               89828070200P3YK20171019000090SPEAKER ASM                   M IMCTM CM1    FTTL  07070IMKDC KA PTB  00005  K0                0900DES        000000000000 FUJITSU TEN (THAILAN                                                                                                                                            *G         20171004WMF1710046.TXT
MAKK7O083679201710D1               89828070200P3YK20171020000060SPEAKER ASM                   M IMCTM CM1    FTTL  07070IMKDC KA PTB  00005  K0                0900DES        000000000000 FUJITSU TEN (THAILAN                                                                                                                                            *G         20171004WMF1710046.TXT
MAKK7O083680201710D1               89828070200P3YK20171021000030SPEAKER ASM                   M IMCTM CM1    FTTL  07070IMKDC KA PTB  00005  K0                0900DES        000000000000 FUJITSU TEN (THAILAN                                                                                                                                            *G         20171004WMF1710046.TXT
MAKK7O083681201710D1               89828070300P3YK20171016000030SPEAKER ASM                   M IMCTM CM1    FTTL  07070IMKDC KA PTB  00015  K0                0900DES        000000000000 FUJITSU TEN (THAILAN                                                                                                                                            *G         20171004WMF1710046.TXT
MAKK7O083682201710D1               89828070300P3YK20171017000120SPEAKER ASM                   M IMCTM CM1    FTTL  07070IMKDC KA PTB  00015  K0                0900DES        000000000000 FUJITSU TEN (THAILAN                                                                                                                                            *G         20171004WMF1710046.TXT
MAKK7O083683201710D1               89828070300P3YK20171018000060SPEAKER ASM                   M IMCTM CM1    FTTL  07070IMKDC KA PTB  00015  K0                0900DES        000000000000 FUJITSU TEN (THAILAN                                                                                                                                            *G         20171004WMF1710046.TXT
MAKK7O083684201710D1               89828070300P3YK20171019000090SPEAKER ASM                   M IMCTM CM1    FTTL  07070IMKDC KA PTB  00015  K0                0900DES        000000000000 FUJITSU TEN (THAILAN                                                                                                                                            *G         20171004WMF1710046.TXT
MAKK7O083685201710D1               89828070300P3YK20171020000090SPEAKER ASM                   M IMCTM CM1    FTTL  07070IMKDC KA PTB  00015  K0                0900DES        000000000000 FUJITSU TEN (THAILAN                                                                                                                                            *G         20171004WMF1710046.TXT
MAKK7O083686201710D1               89828070300P3YK20171021000030SPEAKER ASM                   M IMCTM CM1    FTTL  07070IMKDC KA PTB  00015  K0                0900DES        000000000000 FUJITSU TEN (THAILAN                                                                                                                                            *G         20171004WMF1710046.TXT
