REC2017112720171127ISUZU                              45     
MDDDHN306336201712                D89821984430PT1D20171130000030RADIO;AM/FM,CD                M IMCTM S5NC06 FTTL  07070IMCT  S5 PTB  00005                    2230 SR        000000000000 FUJITSU TEN (THAILAN180LRAL0049049                                                                                                                              *          20171127 IMCT                IMCT                                                                                                                    WMF1711274.TXT
MDDDHN306337201712                D89821984430PT1D20171201000030RADIO;AM/FM,CD                M IMCTM S5NC06 FTTL  07070IMCT  S5 PTB  00005                    0400 SR        000000000000 FUJITSU TEN (THAILAN180LNEL0040040                                                                                                                              *          20171127 IMCT                IMCT                                                                                                                    WMF1711274.TXT
MDDDHN306338201712                D89821984430PT1D20171201000030RADIO;AM/FM,CD                M IMCTM S5NC06 FTTL  07070IMCT  S5 PTB  00005                    1300 SR        000000000000 FUJITSU TEN (THAILAN180LRAL0050050                                                                                                                              *          20171127 IMCT                IMCT                                                                                                                    WMF1711274.TXT
MDDDHN306339201712                D89828070100PV1D20171130000060SPEAKER ASM                   M IMCTM S55000 FTTL  07070IMCT  S5 PTB  00004                    2230 SR        000000000000 FUJITSU TEN (THAILAN180LRAL0049049                                                                                                                              *          20171127 IMCT                IMCT                                                                                                                    WMF1711274.TXT
MDDDHN306340201712                D89828070100PV1D20171201000060SPEAKER ASM                   M IMCTM S55000 FTTL  07070IMCT  S5 PTB  00004                    0230 SR        000000000000 FUJITSU TEN (THAILAN180LPGL0103103                                                                                                                              *          20171127 IMCT                IMCT                                                                                                                    WMF1711274.TXT
MDDDHN306341201712                D89828070100PV1D20171201000060SPEAKER ASM                   M IMCTM S55000 FTTL  07070IMCT  S5 PTB  00004                    0400 SR        000000000000 FUJITSU TEN (THAILAN180LNEL0040040                                                                                                                              *          20171127 IMCT                IMCT                                                                                                                    WMF1711274.TXT
MDDDHN306342201712                D89828070100PV1D20171201000060SPEAKER ASM                   M IMCTM S55000 FTTL  07070IMCT  S5 PTB  00004                    0830 SR        000000000000 FUJITSU TEN (THAILAN180LPKL0024024                                                                                                                              *          20171127 IMCT                IMCT                                                                                                                    WMF1711274.TXT
MDDDHN306343201712                D89828070100PV1D20171201000060SPEAKER ASM                   M IMCTM S55000 FTTL  07070IMCT  S5 PTB  00004                    1030 SR        000000000000 FUJITSU TEN (THAILAN180LPML0007007                                                                                                                              *          20171127 IMCT                IMCT                                                                                                                    WMF1711274.TXT
MDDDHN306344201712                D89828070100PV1D20171201000120SPEAKER ASM                   M IMCTM S55000 FTTL  07070IMCT  S5 PTB  00004                    1300 SR        000000000000 FUJITSU TEN (THAILAN180LNAL0016016180LRAL0050050                                                                                                                *          20171127 IMCT                IMCT                                                                                                                    WMF1711274.TXT
MDDDHN306345201712                D89828070100PV4D20171201000060SPEAKER ASM                   M IMCTM S22000 FTTL  07070IMCT  S2 PTB  00004                    1300 SR        000000000000 FUJITSU TEN (THAILAN180LRSU0017017                                                                                                                              *          20171127 IMCT                IMCT                                                                                                                    WMF1711274.TXT
MDDDHN306346201712                D89828070200PV4D20171201000060SPEAKER ASM                   M IMCTM S22000 FTTL  07070IMCT  S2 PTB  00005                    1300 SR        000000000000 FUJITSU TEN (THAILAN180LRSU0017017                                                                                                                              *          20171127 IMCT                IMCT                                                                                                                    WMF1711274.TXT
MDDDHN306347201712                D89828070300PT1D20171201000060SPEAKER ASM                   M IMCTM S55000 FTTL  07070IMCT  S5 PTB  00015                    0230 SR        000000000000 FUJITSU TEN (THAILAN180LPGL0103103                                                                                                                              *          20171127 IMCT                IMCT                                                                                                                    WMF1711274.TXT
MDDDHN306348201712                D89828070300PT1D20171201000060SPEAKER ASM                   M IMCTM S55000 FTTL  07070IMCT  S5 PTB  00015                    0830 SR        000000000000 FUJITSU TEN (THAILAN180LPKL0024024                                                                                                                              *          20171127 IMCT                IMCT                                                                                                                    WMF1711274.TXT
MDDDHN306349201712                D89828070300PT1D20171201000060SPEAKER ASM                   M IMCTM S55000 FTTL  07070IMCT  S5 PTB  00015                    1030 SR        000000000000 FUJITSU TEN (THAILAN180LPML0007007                                                                                                                              *          20171127 IMCT                IMCT                                                                                                                    WMF1711274.TXT
MDDDHN306350201712                D89828070300PT4D20171201000060SPEAKER ASM                   M IMCTM S22000 FTTL  07070IMCT  S2 PTB  00015                    1300 SR        000000000000 FUJITSU TEN (THAILAN180LRSU0017017                                                                                                                              *          20171127 IMCT                IMCT                                                                                                                    WMF1711274.TXT
MDDDHN306351201712                D89831228300PT1D20171201000030RADIO;AM/FM,CD                M IMCTM S5NC06 FTTL  07070IMCT  S5 CPB  00003                    0230 SR        000000000000 FUJITSU TEN (THAILAN180LPGL0103103                                                                                                                              *          20171127 IMCT                IMCT                                                                                                                    WMF1711274.TXT
MDDDHN306352201712                D89848581600PT1D20171201000030RADIO;AM/FM CD D              M IMCTM S5NC06 FTTL  07070IMCT  S5 PTB  00003                    0830 SR        000000000000 FUJITSU TEN (THAILAN180LPKL0024024                                                                                                                              *          20171127 IMCT                IMCT                                                                                                                    WMF1711274.TXT
MDDUHN248760201712                D89828070100PT4U20171201000030SPEAKER ASM                   M IMCTM S0FL05 FTTL  07070IMCT  S0 PTB  00004                    0230 SR        000000000000 FUJITSU TEN (THAILAN180LUKU0057057                                                                                                                              *          20171127 IMCT                IMCT                                                                                                                    WMF1711274.TXT
MDDUHN248761201712                D89828070100PT4U20171201000030SPEAKER ASM                   M IMCTM S0FL05 FTTL  07070IMCT  S0 PTB  00004                    1030 SR        000000000000 FUJITSU TEN (THAILAN180LUEU0206206                                                                                                                              *          20171127 IMCT                IMCT                                                                                                                    WMF1711274.TXT
MDDUHN248762201712                D89828070100PT4U20171201000030SPEAKER ASM                   M IMCTM S0FL05 FTTL  07070IMCT  S0 PTB  00004                    1300 SR        000000000000 FUJITSU TEN (THAILAN180LUJU0029029                                                                                                                              *          20171127 IMCT                IMCT                                                                                                                    WMF1711274.TXT
MDDUHN248763201712                D89828070200PV4U20171201000030SPEAKER ASM                   M IMCTM S0FR05 FTTL  07070IMCT  S0 PTB  00005                    0230 SR        000000000000 FUJITSU TEN (THAILAN180LUKU0057057                                                                                                                              *          20171127 IMCT                IMCT                                                                                                                    WMF1711274.TXT
MDDUHN248764201712                D89828070200PV4U20171201000030SPEAKER ASM                   M IMCTM S0FR05 FTTL  07070IMCT  S0 PTB  00005                    1030 SR        000000000000 FUJITSU TEN (THAILAN180LUEU0206206                                                                                                                              *          20171127 IMCT                IMCT                                                                                                                    WMF1711274.TXT
MDDUHN248765201712                D89828070200PV4U20171201000030SPEAKER ASM                   M IMCTM S0FR05 FTTL  07070IMCT  S0 PTB  00005                    1300 SR        000000000000 FUJITSU TEN (THAILAN180LUJU0029029                                                                                                                              *          20171127 IMCT                IMCT                                                                                                                    WMF1711274.TXT
MDDUHN248766201712                D89828070300PT4U20171201000030SPEAKER ASM                   M IMCTM S9TS02 FTTL  07070IMCT  S9 PTB  00015                    0230 SR        000000000000 FUJITSU TEN (THAILAN180LUKU0057057                                                                                                                              *          20171127 IMCT                IMCT                                                                                                                    WMF1711274.TXT
MDDUHN248767201712                D89828070300PT4U20171201000030SPEAKER ASM                   M IMCTM S9TS02 FTTL  07070IMCT  S9 PTB  00015                    1030 SR        000000000000 FUJITSU TEN (THAILAN180LUEU0206206                                                                                                                              *          20171127 IMCT                IMCT                                                                                                                    WMF1711274.TXT
MDDUHN248768201712                D89828070300PT4U20171201000030SPEAKER ASM                   M IMCTM S9TS02 FTTL  07070IMCT  S9 PTB  00015                    1300 SR        000000000000 FUJITSU TEN (THAILAN180LUJU0029029                                                                                                                              *          20171127 IMCT                IMCT                                                                                                                    WMF1711274.TXT
MDDUHN248769201712                D89848584200PT4U20171201000015RADIO;AM/FM CD D              M IMCTM S9CO001FTTL  07070IMCT  S9 PTB  00003                    1300 SR        000000000000 FUJITSU TEN (THAILAN180LUJU0029029                                                                                                                              *          20171127 IMCT                IMCT                                                                                                                    WMF1711274.TXT
MDEDHN277108201712                D89828070100PV1D20171130000060SPEAKER ASM                   M IMCTM S55000 FTTL  07070IMCT  S5 PTB  00004                    2230 SR        000000000000 FUJITSU TEN (THAILAN17059PL000100117080NL0120120                                                                                                                *          20171127 IMCT                IMCT                                                                                                                    WMF1711274.TXT
MDEDHN277109201712                D89828070100PV1D20171201000030SPEAKER ASM                   M IMCTM S55000 FTTL  07070IMCT  S5 PTB  00004                    1030 SR        000000000000 FUJITSU TEN (THAILAN18007ZL0007007                                                                                                                              *          20171127 IMCT                IMCT                                                                                                                    WMF1711274.TXT
MDEDHN277110201712                D89828070100PV1D20171201000030SPEAKER ASM                   M IMCTM S55000 FTTL  07070IMCT  S5 PTB  00004                    1300 SR        000000000000 FUJITSU TEN (THAILAN18007ZL0008008                                                                                                                              *          20171127 IMCT                IMCT                                                                                                                    WMF1711274.TXT
MDEDHN277111201712                D89828070100PV1D20171201000090SPEAKER ASM                   M IMCTM S55000 FTTL  07070IMCT  S5 PTB  00004                    2100 SR        000000000000 FUJITSU TEN (THAILAN17006ML001701718010ZL0008009                                                                                                                *          20171127 IMCT                IMCT                                                                                                                    WMF1711274.TXT
MDEDHN277112201712                D89828070200PV1D20171130000030SPEAKER ASM                   M IMCTM S55000 FTTL  07070IMCT  S5 PTB  00005                    2230 SR        000000000000 FUJITSU TEN (THAILAN17080NL0120120                                                                                                                              *          20171127 IMCT                IMCT                                                                                                                    WMF1711274.TXT
MDEDHN277113201712                D89828070300PT1D20171130000030SPEAKER ASM                   M IMCTM S55000 FTTL  07070IMCT  S5 PTB  00015                    2230 SR        000000000000 FUJITSU TEN (THAILAN17080NL0120120                                                                                                                              *          20171127 IMCT                IMCT                                                                                                                    WMF1711274.TXT
MDEUHN283471201712                D89828070100PT4U20171130000030SPEAKER ASM                   M IMCTM S0FL05 FTTL  07070IMCT  S0 PTB  00004                    2230 SR        000000000000 FUJITSU TEN (THAILAN18026UU0009009                                                                                                                              *          20171127 IMCT                IMCT                                                                                                                    WMF1711274.TXT
MDEUHN283472201712                D89828070100PT4U20171201000030SPEAKER ASM                   M IMCTM S0FL05 FTTL  07070IMCT  S0 PTB  00004                    0400 SR        000000000000 FUJITSU TEN (THAILAN18078SU0298298                                                                                                                              *          20171127 IMCT                IMCT                                                                                                                    WMF1711274.TXT
MDEUHN283473201712                D89828070100PT4U20171201000030SPEAKER ASM                   M IMCTM S0FL05 FTTL  07070IMCT  S0 PTB  00004                    0830 SR        000000000000 FUJITSU TEN (THAILAN18026UU0010010                                                                                                                              *          20171127 IMCT                IMCT                                                                                                                    WMF1711274.TXT
MDEUHN283474201712                D89828070100PT4U20171201000030SPEAKER ASM                   M IMCTM S0FL05 FTTL  07070IMCT  S0 PTB  00004                    1600 SR        000000000000 FUJITSU TEN (THAILAN18026UU0011011                                                                                                                              *          20171127 IMCT                IMCT                                                                                                                    WMF1711274.TXT
MDEUHN283475201712                D89828070200PV4U20171130000030SPEAKER ASM                   M IMCTM S0FR05 FTTL  07070IMCT  S0 PTB  00005                    2230 SR        000000000000 FUJITSU TEN (THAILAN18026UU0009009                                                                                                                              *          20171127 IMCT                IMCT                                                                                                                    WMF1711274.TXT
MDEUHN283476201712                D89828070200PV4U20171201000030SPEAKER ASM                   M IMCTM S0FR05 FTTL  07070IMCT  S0 PTB  00005                    0400 SR        000000000000 FUJITSU TEN (THAILAN18078SU0298298                                                                                                                              *          20171127 IMCT                IMCT                                                                                                                    WMF1711274.TXT
MDEUHN283477201712                D89828070200PV4U20171201000030SPEAKER ASM                   M IMCTM S0FR05 FTTL  07070IMCT  S0 PTB  00005                    0830 SR        000000000000 FUJITSU TEN (THAILAN18026UU0010010                                                                                                                              *          20171127 IMCT                IMCT                                                                                                                    WMF1711274.TXT
MDEUHN283478201712                D89828070200PV4U20171201000030SPEAKER ASM                   M IMCTM S0FR05 FTTL  07070IMCT  S0 PTB  00005                    1600 SR        000000000000 FUJITSU TEN (THAILAN18026UU0011011                                                                                                                              *          20171127 IMCT                IMCT                                                                                                                    WMF1711274.TXT
MDEUHN283479201712                D89828070300PT4U20171130000030SPEAKER ASM                   M IMCTM S9TS02 FTTL  07070IMCT  S9 PTB  00015                    2230 SR        000000000000 FUJITSU TEN (THAILAN18026UU0009009                                                                                                                              *          20171127 IMCT                IMCT                                                                                                                    WMF1711274.TXT
MDEUHN283480201712                D89828070300PT4U20171201000030SPEAKER ASM                   M IMCTM S9TS02 FTTL  07070IMCT  S9 PTB  00015                    0400 SR        000000000000 FUJITSU TEN (THAILAN18078SU0298298                                                                                                                              *          20171127 IMCT                IMCT                                                                                                                    WMF1711274.TXT
MDEUHN283481201712                D89828070300PT4U20171201000030SPEAKER ASM                   M IMCTM S9TS02 FTTL  07070IMCT  S9 PTB  00015                    0830 SR        000000000000 FUJITSU TEN (THAILAN18026UU0010010                                                                                                                              *          20171127 IMCT                IMCT                                                                                                                    WMF1711274.TXT
MDEUHN283482201712                D89828070300PT4U20171201000030SPEAKER ASM                   M IMCTM S9TS02 FTTL  07070IMCT  S9 PTB  00015                    1600 SR        000000000000 FUJITSU TEN (THAILAN18026UU0011011                                                                                                                              *          20171127 IMCT                IMCT                                                                                                                    WMF1711274.TXT
