REC2017111620171116ISUZU                              7      
MAKK7N089758201711D1               89805293700P3YK20171202000090SPEAKER ASM                   M IMCTM CM1    TNTH  07070IMKDC KA*PTB  00003  K0                0900DES        000000000000 DENSO TEN (THAILAND)                                                                                                                                             G         20171116WMF1711167.TXT
MAKK7N089759201711D1               89805294000P3YK20171202000030SPEAKER ASM                   M IMCTM CM1    TNTH  07070IMKDC KA*PTB  00015  K0                0900DES        000000000000 DENSO TEN (THAILAND)                                                                                                                                             G         20171116WMF1711167.TXT
MAKK7N089760201711D1               89805294100P3YK20171202000030SPEAKER ASM                   M IMCTM CM1    TNTH  07070IMKDC KA*PTB  00005  K0                0900DES        000000000000 DENSO TEN (THAILAND)                                                                                                                                             G         20171116WMF1711167.TXT
MAKK7N089761201711D1               89825451200P3YK20171202000060SPEAKER ASM;ROOF              M IMCTM CM1    TNTH  07070IMKDC KA*PTB  00036  K0                0900DES        000000000000 DENSO TEN (THAILAND)                                                                                                                                             G         20171116WMF1711167.TXT
MAKK7N089762201711D1               89828070100P3YK20171202000150SPEAKER ASM                   M IMCTM CM1    TNTH  07070IMKDC KA*PTB  00003  K0                0900DES        000000000000 DENSO TEN (THAILAND)                                                                                                                                             G         20171116WMF1711167.TXT
MAKK7N089763201711D1               89828070200P3YK20171202000120SPEAKER ASM                   M IMCTM CM1    TNTH  07070IMKDC KA*PTB  00005  K0                0900DES        000000000000 DENSO TEN (THAILAND)                                                                                                                                             G         20171116WMF1711167.TXT
MAKK7N089764201711D1               89828070300P3YK20171202000120SPEAKER ASM                   M IMCTM CM1    TNTH  07070IMKDC KA*PTB  00015  K0                0900DES        000000000000 DENSO TEN (THAILAND)                                                                                                                                             G         20171116WMF1711167.TXT
