REC2017110320171103ISUZU                              66     
MDDDHN212294201711                D89821984430PT1D20171109000030RADIO;AM/FM,CD                M IMCTM S5NC06 FTTL  07070IMCT  S5 PTB  00005                    0400 SR        000000000000 FUJITSU TEN (THAILAN180LNEL0022022                                                                                                                              *          20171103WMF1711034.TXT
MDDDHN212295201711                D89821984430PT1D20171109000060RADIO;AM/FM,CD                M IMCTM S5NC06 FTTL  07070IMCT  S5 PTB  00005                    1300 SR        000000000000 FUJITSU TEN (THAILAN180LNGL0021021180LRAL0011011                                                                                                                *          20171103WMF1711034.TXT
MDDDHN212296201711                D89821984430PT1D20171109000030RADIO;AM/FM,CD                M IMCTM S5NC06 FTTL  07070IMCT  S5 PTB  00005                    1600 SR        000000000000 FUJITSU TEN (THAILAN180LRAL0012012                                                                                                                              *          20171103WMF1711034.TXT
MDDDHN212297201711                D89828070100PV1D20171109000060SPEAKER ASM                   M IMCTM S5MB11 FTTL  07070IMCT  S5 PTB  00004                    0400 SR        000000000000 FUJITSU TEN (THAILAN180LNEL0022022                                                                                                                              *          20171103WMF1711034.TXT
MDDDHN212298201711                D89828070100PV1D20171109000060SPEAKER ASM                   M IMCTM S5MB11 FTTL  07070IMCT  S5 PTB  00004                    0830 SR        000000000000 FUJITSU TEN (THAILAN180LPGL0064064                                                                                                                              *          20171103WMF1711034.TXT
MDDDHN212299201711                D89828070100PV1D20171109000060SPEAKER ASM                   M IMCTM S5MB11 FTTL  07070IMCT  S5 PTB  00004                    1030 SR        000000000000 FUJITSU TEN (THAILAN180LNAL0011011                                                                                                                              *          20171103WMF1711034.TXT
MDDDHN212300201711                D89828070100PV1D20171109000120SPEAKER ASM                   M IMCTM S5MB11 FTTL  07070IMCT  S5 PTB  00004                    1300 SR        000000000000 FUJITSU TEN (THAILAN180LNGL0021021180LRAL0011011                                                                                                                *          20171103WMF1711034.TXT
MDDDHN212301201711                D89828070100PV1D20171109000180SPEAKER ASM                   M IMCTM S5MB11 FTTL  07070IMCT  S5 PTB  00004                    1600 SR        000000000000 FUJITSU TEN (THAILAN180LPNL0004004180LPQL0006006180LRAL0012012                                                                                                  *          20171103WMF1711034.TXT
MDDDHN212302201711                D89828070100PV1D20171109000060SPEAKER ASM                   M IMCTM S5MB11 FTTL  07070IMCT  S5 PTB  00004                    2100 SR        000000000000 FUJITSU TEN (THAILAN180LPKL0021021                                                                                                                              *          20171103WMF1711034.TXT
MDDDHN212303201711                D89828070100PV4D20171109000060SPEAKER ASM                   M IMCTM S0FL05 FTTL  07070IMCT  S0 PTB  00004                    1600 SR        000000000000 FUJITSU TEN (THAILAN180LRSU0012012                                                                                                                              *          20171103WMF1711034.TXT
MDDDHN212304201711                D89828070200PV4D20171109000060SPEAKER ASM                   M IMCTM S0FR05 FTTL  07070IMCT  S0 PTB  00005                    1600 SR        000000000000 FUJITSU TEN (THAILAN180LRSU0012012                                                                                                                              *          20171103WMF1711034.TXT
MDDDHN212305201711                D89828070300PT1D20171109000060SPEAKER ASM                   M IMCTM S5NB082FTTL  07070IMCT  S5 PTB  00015                    0830 SR        000000000000 FUJITSU TEN (THAILAN180LPGL0064064                                                                                                                              *          20171103WMF1711034.TXT
MDDDHN212306201711                D89828070300PT1D20171109000120SPEAKER ASM                   M IMCTM S5NB082FTTL  07070IMCT  S5 PTB  00015                    1600 SR        000000000000 FUJITSU TEN (THAILAN180LPNL0004004180LPQL0006006                                                                                                                *          20171103WMF1711034.TXT
MDDDHN212307201711                D89828070300PT1D20171109000060SPEAKER ASM                   M IMCTM S5NB082FTTL  07070IMCT  S5 PTB  00015                    2100 SR        000000000000 FUJITSU TEN (THAILAN180LPKL0021021                                                                                                                              *          20171103WMF1711034.TXT
MDDDHN212308201711                D89828070300PT4D20171109000060SPEAKER ASM                   M IMCTM S9TS02 FTTL  07070IMCT  S9 PTB  00015                    1600 SR        000000000000 FUJITSU TEN (THAILAN180LRSU0012012                                                                                                                              *          20171103WMF1711034.TXT
MDDDHN212309201711                D89831228300PT1D20171109000030RADIO;AM/FM,CD                M IMCTM S5NC06 FTTL  07070IMCT  S5 CPB  00003                    0830 SR        000000000000 FUJITSU TEN (THAILAN180LPGL0064064                                                                                                                              *          20171103WMF1711034.TXT
MDDDHN212310201711                D89848581600PT1D20171109000030RADIO;AM/FM CD D              M IMCTM S5NC06 FTTL  07070IMCT  S5 PTB  00003                    1600 SR        000000000000 FUJITSU TEN (THAILAN180LPQL0006006                                                                                                                              *          20171103WMF1711034.TXT
MDDDHN212311201711                D89848581600PT1D20171109000030RADIO;AM/FM CD D              M IMCTM S5NC06 FTTL  07070IMCT  S5 PTB  00003                    2100 SR        000000000000 FUJITSU TEN (THAILAN180LPKL0021021                                                                                                                              *          20171103WMF1711034.TXT
MDDUHN205445201711                D89828070100PT4U20171108000030SPEAKER ASM                   M IMCTM S0FL05 FTTL  07070IMCT  S0 PTB  00004                    2230 SR        000000000000 FUJITSU TEN (THAILAN180LUJU0017017                                                                                                                              *          20171103WMF1711034.TXT
MDDUHN205446201711                D89828070100PT4U20171109000030SPEAKER ASM                   M IMCTM S0FL05 FTTL  07070IMCT  S0 PTB  00004                    1300 SR        000000000000 FUJITSU TEN (THAILAN180LUKU0035035                                                                                                                              *          20171103WMF1711034.TXT
MDDUHN205447201711                D89828070100PT4U20171109000030SPEAKER ASM                   M IMCTM S0FL05 FTTL  07070IMCT  S0 PTB  00004                    1600 SR        000000000000 FUJITSU TEN (THAILAN180LUEU0195195                                                                                                                              *          20171103WMF1711034.TXT
MDDUHN205448201711                D89828070200PV4U20171108000030SPEAKER ASM                   M IMCTM S0FR05 FTTL  07070IMCT  S0 PTB  00005                    2230 SR        000000000000 FUJITSU TEN (THAILAN180LUJU0017017                                                                                                                              *          20171103WMF1711034.TXT
MDDUHN205449201711                D89828070200PV4U20171109000030SPEAKER ASM                   M IMCTM S0FR05 FTTL  07070IMCT  S0 PTB  00005                    1300 SR        000000000000 FUJITSU TEN (THAILAN180LUKU0035035                                                                                                                              *          20171103WMF1711034.TXT
MDDUHN205450201711                D89828070200PV4U20171109000030SPEAKER ASM                   M IMCTM S0FR05 FTTL  07070IMCT  S0 PTB  00005                    1600 SR        000000000000 FUJITSU TEN (THAILAN180LUEU0195195                                                                                                                              *          20171103WMF1711034.TXT
MDDUHN205451201711                D89828070300PT4U20171108000030SPEAKER ASM                   M IMCTM S9TS02 FTTL  07070IMCT  S9 PTB  00015                    2230 SR        000000000000 FUJITSU TEN (THAILAN180LUJU0017017                                                                                                                              *          20171103WMF1711034.TXT
MDDUHN205452201711                D89828070300PT4U20171109000030SPEAKER ASM                   M IMCTM S9TS02 FTTL  07070IMCT  S9 PTB  00015                    1300 SR        000000000000 FUJITSU TEN (THAILAN180LUKU0035035                                                                                                                              *          20171103WMF1711034.TXT
MDDUHN205453201711                D89828070300PT4U20171109000030SPEAKER ASM                   M IMCTM S9TS02 FTTL  07070IMCT  S9 PTB  00015                    1600 SR        000000000000 FUJITSU TEN (THAILAN180LUEU0195195                                                                                                                              *          20171103WMF1711034.TXT
MDDUHN205454201711                D89848584200PT4U20171108000015RADIO;AM/FM CD D              M IMCTM S9CO001FTTL  07070IMCT  S9 PTB  00003                    2230 SR        000000000000 FUJITSU TEN (THAILAN180LUJU0017017                                                                                                                              *          20171103WMF1711034.TXT
MDEDHN209544201711                D89828070100PV1D20171108000090SPEAKER ASM                   M IMCTM S5MB11 FTTL  07070IMCT  S5 PTB  00004                    2230 SR        000000000000 FUJITSU TEN (THAILAN17046QL002402517054PL0042042                                                                                                                *          20171103WMF1711034.TXT
MDEDHN209545201711                D89828070100PV1D20171109000090SPEAKER ASM                   M IMCTM S5MB11 FTTL  07070IMCT  S5 PTB  00004                    0230 SR        000000000000 FUJITSU TEN (THAILAN17033QL002502517054PL004304317075PL0047047                                                                                                  *          20171103WMF1711034.TXT
MDEDHN209546201711                D89828070100PV1D20171109000030SPEAKER ASM                   M IMCTM S5MB11 FTTL  07070IMCT  S5 PTB  00004                    0400 SR        000000000000 FUJITSU TEN (THAILAN17021QL0009009                                                                                                                              *          20171103WMF1711034.TXT
MDEDHN209547201711                D89828070100PV1D20171109000030SPEAKER ASM                   M IMCTM S5MB11 FTTL  07070IMCT  S5 PTB  00004                    0830 SR        000000000000 FUJITSU TEN (THAILAN17047RL0006006                                                                                                                              *          20171103WMF1711034.TXT
MDEDHN209548201711                D89828070100PV1D20171109000030SPEAKER ASM                   M IMCTM S5MB11 FTTL  07070IMCT  S5 PTB  00004                    2230 SR        000000000000 FUJITSU TEN (THAILAN17041PL0063063                                                                                                                              *          20171103WMF1711034.TXT
MDEDHN209549201711                D89828070100PV4D20171109000030SPEAKER ASM                   M IMCTM S0FL05 FTTL  07070IMCT  S0 PTB  00004                    0230 SR        000000000000 FUJITSU TEN (THAILAN17033QU0002002                                                                                                                              *          20171103WMF1711034.TXT
MDEDHN209550201711                D89828070200PV1D20171108000060SPEAKER ASM                   M IMCTM S5MA14 FTTL  07070IMCT  S5 PTB  00005                    2230 SR        000000000000 FUJITSU TEN (THAILAN17046QL0024025                                                                                                                              *          20171103WMF1711034.TXT
MDEDHN209551201711                D89828070200PV1D20171109000030SPEAKER ASM                   M IMCTM S5MA14 FTTL  07070IMCT  S5 PTB  00005                    0230 SR        000000000000 FUJITSU TEN (THAILAN17033QL0025025                                                                                                                              *          20171103WMF1711034.TXT
MDEDHN209552201711                D89828070200PV1D20171109000030SPEAKER ASM                   M IMCTM S5MA14 FTTL  07070IMCT  S5 PTB  00005                    0830 SR        000000000000 FUJITSU TEN (THAILAN17047RL0006006                                                                                                                              *          20171103WMF1711034.TXT
MDEDHN209553201711                D89828070200PV4D20171109000030SPEAKER ASM                   M IMCTM S0FR05 FTTL  07070IMCT  S0 PTB  00005                    0230 SR        000000000000 FUJITSU TEN (THAILAN17033QU0002002                                                                                                                              *          20171103WMF1711034.TXT
MDEDHN209554201711                D89828070300PT1D20171108000060SPEAKER ASM                   M IMCTM S5NB082FTTL  07070IMCT  S5 PTB  00015                    2230 SR        000000000000 FUJITSU TEN (THAILAN17046QL0024025                                                                                                                              *          20171103WMF1711034.TXT
MDEDHN209555201711                D89828070300PT1D20171109000030SPEAKER ASM                   M IMCTM S5NB082FTTL  07070IMCT  S5 PTB  00015                    0230 SR        000000000000 FUJITSU TEN (THAILAN17033QL0025025                                                                                                                              *          20171103WMF1711034.TXT
MDEDHN209556201711                D89828070300PT1D20171109000030SPEAKER ASM                   M IMCTM S5NB082FTTL  07070IMCT  S5 PTB  00015                    0830 SR        000000000000 FUJITSU TEN (THAILAN17047RL0006006                                                                                                                              *          20171103WMF1711034.TXT
MDEDHN209557201711                D89828070300PT4D20171109000030SPEAKER ASM                   M IMCTM S9TS02 FTTL  07070IMCT  S9 PTB  00015                    0230 SR        000000000000 FUJITSU TEN (THAILAN17033QU0002002                                                                                                                              *          20171103WMF1711034.TXT
MDEDHN209558201711                D89831229000PT1D20171109000015RADIO;AM/FM,CD                M IMCTM S5NC06 FTTL  07070IMCT  S5 PTB  00003                    0830 SR        000000000000 FUJITSU TEN (THAILAN17047RL0006006                                                                                                                              *          20171103WMF1711034.TXT
MDEDHN209559201711                D89831229200PT1D20171109000015RADIO;AM/FM,CD                M IMCTM S5NC06 FTTL  07070IMCT  S5 PTB  00003                    0230 SR        000000000000 FUJITSU TEN (THAILAN17033QL0025025                                                                                                                              *          20171103WMF1711034.TXT
MDEDHN209560201711                D89831229200PT4D20171109000015RADIO;AM/FM,CD                M IMCTM S9CO001FTTL  07070IMCT  S9 PTB  00003                    0230 SR        000000000000 FUJITSU TEN (THAILAN17033QU0002002                                                                                                                              *          20171103WMF1711034.TXT
MDEUHN209807201711                D89828070100PT4U20171108000030SPEAKER ASM                   M IMCTM S0FL05 FTTL  07070IMCT  S0 PTB  00004                    2230 SR        000000000000 FUJITSU TEN (THAILAN18078SU0212212                                                                                                                              *          20171103WMF1711034.TXT
MDEUHN209808201711                D89828070100PT4U20171109000030SPEAKER ASM                   M IMCTM S0FL05 FTTL  07070IMCT  S0 PTB  00004                    0400 SR        000000000000 FUJITSU TEN (THAILAN18078SU0213213                                                                                                                              *          20171103WMF1711034.TXT
MDEUHN209809201711                D89828070100PT4U20171109000030SPEAKER ASM                   M IMCTM S0FL05 FTTL  07070IMCT  S0 PTB  00004                    0830 SR        000000000000 FUJITSU TEN (THAILAN18078SU0214214                                                                                                                              *          20171103WMF1711034.TXT
MDEUHN209810201711                D89828070100PT4U20171109000030SPEAKER ASM                   M IMCTM S0FL05 FTTL  07070IMCT  S0 PTB  00004                    1030 SR        000000000000 FUJITSU TEN (THAILAN18078SU0215215                                                                                                                              *          20171103WMF1711034.TXT
MDEUHN209811201711                D89828070100PT4U20171109000030SPEAKER ASM                   M IMCTM S0FL05 FTTL  07070IMCT  S0 PTB  00004                    1300 SR        000000000000 FUJITSU TEN (THAILAN18078SU0216216                                                                                                                              *          20171103WMF1711034.TXT
MDEUHN209812201711                D89828070100PT4U20171109000030SPEAKER ASM                   M IMCTM S0FL05 FTTL  07070IMCT  S0 PTB  00004                    1600 SR        000000000000 FUJITSU TEN (THAILAN18083SU0019019                                                                                                                              *          20171103WMF1711034.TXT
MDEUHN209813201711                D89828070100PT4U20171109000030SPEAKER ASM                   M IMCTM S0FL05 FTTL  07070IMCT  S0 PTB  00004                    2100 SR        000000000000 FUJITSU TEN (THAILAN18078SU0217217                                                                                                                              *          20171103WMF1711034.TXT
MDEUHN209814201711                D89828070200PV4U20171108000030SPEAKER ASM                   M IMCTM S0FR05 FTTL  07070IMCT  S0 PTB  00005                    2230 SR        000000000000 FUJITSU TEN (THAILAN18078SU0212212                                                                                                                              *          20171103WMF1711034.TXT
MDEUHN209815201711                D89828070200PV4U20171109000030SPEAKER ASM                   M IMCTM S0FR05 FTTL  07070IMCT  S0 PTB  00005                    0400 SR        000000000000 FUJITSU TEN (THAILAN18078SU0213213                                                                                                                              *          20171103WMF1711034.TXT
MDEUHN209816201711                D89828070200PV4U20171109000030SPEAKER ASM                   M IMCTM S0FR05 FTTL  07070IMCT  S0 PTB  00005                    0830 SR        000000000000 FUJITSU TEN (THAILAN18078SU0214214                                                                                                                              *          20171103WMF1711034.TXT
MDEUHN209817201711                D89828070200PV4U20171109000030SPEAKER ASM                   M IMCTM S0FR05 FTTL  07070IMCT  S0 PTB  00005                    1030 SR        000000000000 FUJITSU TEN (THAILAN18078SU0215215                                                                                                                              *          20171103WMF1711034.TXT
MDEUHN209818201711                D89828070200PV4U20171109000030SPEAKER ASM                   M IMCTM S0FR05 FTTL  07070IMCT  S0 PTB  00005                    1300 SR        000000000000 FUJITSU TEN (THAILAN18078SU0216216                                                                                                                              *          20171103WMF1711034.TXT
MDEUHN209819201711                D89828070200PV4U20171109000030SPEAKER ASM                   M IMCTM S0FR05 FTTL  07070IMCT  S0 PTB  00005                    1600 SR        000000000000 FUJITSU TEN (THAILAN18083SU0019019                                                                                                                              *          20171103WMF1711034.TXT
MDEUHN209820201711                D89828070200PV4U20171109000030SPEAKER ASM                   M IMCTM S0FR05 FTTL  07070IMCT  S0 PTB  00005                    2100 SR        000000000000 FUJITSU TEN (THAILAN18078SU0217217                                                                                                                              *          20171103WMF1711034.TXT
MDEUHN209821201711                D89828070300PT4U20171108000030SPEAKER ASM                   M IMCTM S9TS02 FTTL  07070IMCT  S9 PTB  00015                    2230 SR        000000000000 FUJITSU TEN (THAILAN18078SU0212212                                                                                                                              *          20171103WMF1711034.TXT
MDEUHN209822201711                D89828070300PT4U20171109000030SPEAKER ASM                   M IMCTM S9TS02 FTTL  07070IMCT  S9 PTB  00015                    0400 SR        000000000000 FUJITSU TEN (THAILAN18078SU0213213                                                                                                                              *          20171103WMF1711034.TXT
MDEUHN209823201711                D89828070300PT4U20171109000030SPEAKER ASM                   M IMCTM S9TS02 FTTL  07070IMCT  S9 PTB  00015                    0830 SR        000000000000 FUJITSU TEN (THAILAN18078SU0214214                                                                                                                              *          20171103WMF1711034.TXT
MDEUHN209824201711                D89828070300PT4U20171109000030SPEAKER ASM                   M IMCTM S9TS02 FTTL  07070IMCT  S9 PTB  00015                    1030 SR        000000000000 FUJITSU TEN (THAILAN18078SU0215215                                                                                                                              *          20171103WMF1711034.TXT
MDEUHN209825201711                D89828070300PT4U20171109000030SPEAKER ASM                   M IMCTM S9TS02 FTTL  07070IMCT  S9 PTB  00015                    1300 SR        000000000000 FUJITSU TEN (THAILAN18078SU0216216                                                                                                                              *          20171103WMF1711034.TXT
MDEUHN209826201711                D89828070300PT4U20171109000030SPEAKER ASM                   M IMCTM S9TS02 FTTL  07070IMCT  S9 PTB  00015                    1600 SR        000000000000 FUJITSU TEN (THAILAN18083SU0019019                                                                                                                              *          20171103WMF1711034.TXT
MDEUHN209827201711                D89828070300PT4U20171109000030SPEAKER ASM                   M IMCTM S9TS02 FTTL  07070IMCT  S9 PTB  00015                    2100 SR        000000000000 FUJITSU TEN (THAILAN18078SU0217217                                                                                                                              *          20171103WMF1711034.TXT
