REC2017110820171108ISUZU                              26     
MAKK7N064045201711D1               89805293700P3YK20171120000030SPEAKER ASM                   M IMCTM CM1    FTTL  07070IMKDC KA   PTB00003  K0                0900DES        000000000000 FUJITSU TEN (THAILAN                                                                                                                                            *G         20171108WMF1711086.TXT
MAKK7N064046201711D1               89805293700P3YK20171121000030SPEAKER ASM                   M IMCTM CM1    FTTL  07070IMKDC KA   PTB00003  K0                0900DES        000000000000 FUJITSU TEN (THAILAN                                                                                                                                            *G         20171108WMF1711086.TXT
MAKK7N064047201711D1               89805293700P3YK20171122000090SPEAKER ASM                   M IMCTM CM1    FTTL  07070IMKDC KA   PTB00003  K0                0900DES        000000000000 FUJITSU TEN (THAILAN                                                                                                                                            *G         20171108WMF1711086.TXT
MAKK7N064048201711D1               89805293700P3YK20171123000120SPEAKER ASM                   M IMCTM CM1    FTTL  07070IMKDC KA   PTB00003  K0                0900DES        000000000000 FUJITSU TEN (THAILAN                                                                                                                                            *G         20171108WMF1711086.TXT
MAKK7N064049201711D1               89805293700P3YK20171124000090SPEAKER ASM                   M IMCTM CM1    FTTL  07070IMKDC KA   PTB00003  K0                0900DES        000000000000 FUJITSU TEN (THAILAN                                                                                                                                            *G         20171108WMF1711086.TXT
MAKK7N064050201711D1               89805294000P3YK20171122000060SPEAKER ASM                   M IMCTM CM1    FTTL  07070IMKDC KA   PTB00015  K0                0900DES        000000000000 FUJITSU TEN (THAILAN                                                                                                                                            *G         20171108WMF1711086.TXT
MAKK7N064051201711D1               89805294000P3YK20171123000060SPEAKER ASM                   M IMCTM CM1    FTTL  07070IMKDC KA   PTB00015  K0                0900DES        000000000000 FUJITSU TEN (THAILAN                                                                                                                                            *G         20171108WMF1711086.TXT
MAKK7N064052201711D1               89805294100P3YK20171122000060SPEAKER ASM                   M IMCTM CM1    FTTL  07070IMKDC KA   PTB00005  K0                0900DES        000000000000 FUJITSU TEN (THAILAN                                                                                                                                            *G         20171108WMF1711086.TXT
MAKK7N064053201711D1               89805294100P3YK20171123000060SPEAKER ASM                   M IMCTM CM1    FTTL  07070IMKDC KA   PTB00005  K0                0900DES        000000000000 FUJITSU TEN (THAILAN                                                                                                                                            *G         20171108WMF1711086.TXT
MAKK7N064054201711D1               89825451200P3YK20171120000120SPEAKER ASM;ROOF              M IMCTM CM1    FTTL  07070IMKDC KA   PTB00015  K0                0900DES        000000000000 FUJITSU TEN (THAILAN                                                                                                                                            *G         20171108WMF1711086.TXT
MAKK7N064055201711D1               89825451200P3YK20171121000090SPEAKER ASM;ROOF              M IMCTM CM1    FTTL  07070IMKDC KA   PTB00015  K0                0900DES        000000000000 FUJITSU TEN (THAILAN                                                                                                                                            *G         20171108WMF1711086.TXT
MAKK7N064056201711D1               89825451200P3YK20171123000060SPEAKER ASM;ROOF              M IMCTM CM1    FTTL  07070IMKDC KA   PTB00015  K0                0900DES        000000000000 FUJITSU TEN (THAILAN                                                                                                                                            *G         20171108WMF1711086.TXT
MAKK7N064057201711D1               89825451200P3YK20171124000060SPEAKER ASM;ROOF              M IMCTM CM1    FTTL  07070IMKDC KA   PTB00015  K0                0900DES        000000000000 FUJITSU TEN (THAILAN                                                                                                                                            *G         20171108WMF1711086.TXT
MAKK7N064058201711D1               89828070100P3YK20171120000150SPEAKER ASM                   M IMCTM CM1    FTTL  07070IMKDC KA PTB  00004  K0                0900DES        000000000000 FUJITSU TEN (THAILAN                                                                                                                                            *G         20171108WMF1711086.TXT
MAKK7N064059201711D1               89828070100P3YK20171121000030SPEAKER ASM                   M IMCTM CM1    FTTL  07070IMKDC KA PTB  00004  K0                0900DES        000000000000 FUJITSU TEN (THAILAN                                                                                                                                            *G         20171108WMF1711086.TXT
MAKK7N064060201711D1               89828070100P3YK20171122000120SPEAKER ASM                   M IMCTM CM1    FTTL  07070IMKDC KA PTB  00004  K0                0900DES        000000000000 FUJITSU TEN (THAILAN                                                                                                                                            *G         20171108WMF1711086.TXT
MAKK7N064061201711D1               89828070100P3YK20171123000180SPEAKER ASM                   M IMCTM CM1    FTTL  07070IMKDC KA PTB  00004  K0                0900DES        000000000000 FUJITSU TEN (THAILAN                                                                                                                                            *G         20171108WMF1711086.TXT
MAKK7N064062201711D1               89828070100P3YK20171124000060SPEAKER ASM                   M IMCTM CM1    FTTL  07070IMKDC KA PTB  00004  K0                0900DES        000000000000 FUJITSU TEN (THAILAN                                                                                                                                            *G         20171108WMF1711086.TXT
MAKK7N064063201711D1               89828070200P3YK20171120000090SPEAKER ASM                   M IMCTM CM1    FTTL  07070IMKDC KA PTB  00005  K0                0900DES        000000000000 FUJITSU TEN (THAILAN                                                                                                                                            *G         20171108WMF1711086.TXT
MAKK7N064064201711D1               89828070200P3YK20171121000030SPEAKER ASM                   M IMCTM CM1    FTTL  07070IMKDC KA PTB  00005  K0                0900DES        000000000000 FUJITSU TEN (THAILAN                                                                                                                                            *G         20171108WMF1711086.TXT
MAKK7N064065201711D1               89828070200P3YK20171122000030SPEAKER ASM                   M IMCTM CM1    FTTL  07070IMKDC KA PTB  00005  K0                0900DES        000000000000 FUJITSU TEN (THAILAN                                                                                                                                            *G         20171108WMF1711086.TXT
MAKK7N064066201711D1               89828070200P3YK20171123000030SPEAKER ASM                   M IMCTM CM1    FTTL  07070IMKDC KA PTB  00005  K0                0900DES        000000000000 FUJITSU TEN (THAILAN                                                                                                                                            *G         20171108WMF1711086.TXT
MAKK7N064067201711D1               89828070300P3YK20171120000120SPEAKER ASM                   M IMCTM CM1    FTTL  07070IMKDC KA PTB  00015  K0                0900DES        000000000000 FUJITSU TEN (THAILAN                                                                                                                                            *G         20171108WMF1711086.TXT
MAKK7N064068201711D1               89828070300P3YK20171121000030SPEAKER ASM                   M IMCTM CM1    FTTL  07070IMKDC KA PTB  00015  K0                0900DES        000000000000 FUJITSU TEN (THAILAN                                                                                                                                            *G         20171108WMF1711086.TXT
MAKK7N064069201711D1               89828070300P3YK20171122000030SPEAKER ASM                   M IMCTM CM1    FTTL  07070IMKDC KA PTB  00015  K0                0900DES        000000000000 FUJITSU TEN (THAILAN                                                                                                                                            *G         20171108WMF1711086.TXT
MAKK7N064070201711D1               89828070300P3YK20171123000030SPEAKER ASM                   M IMCTM CM1    FTTL  07070IMKDC KA PTB  00015  K0                0900DES        000000000000 FUJITSU TEN (THAILAN                                                                                                                                            *G         20171108WMF1711086.TXT
