REC2017111120171111ISUZU                              60     
MDDDHN244726201711                D89821984430PT1D20171116000030RADIO;AM/FM,CD                M IMCTM S5NC06 FTTL  07070IMCT  S5 PTB  00005                    0400 SR        000000000000 FUJITSU TEN (THAILAN180LPAL0014014                                                                                                                              *          20171111WMF1711114.TXT
MDDDHN244727201711                D89821984430PT1D20171116000060RADIO;AM/FM,CD                M IMCTM S5NC06 FTTL  07070IMCT  S5 PTB  00005                    0830 SR        000000000000 FUJITSU TEN (THAILAN180LNEL0027027180LRAL0023023                                                                                                                *          20171111WMF1711114.TXT
MDDDHN244728201711                D89821984430PT1D20171116000030RADIO;AM/FM,CD                M IMCTM S5NC06 FTTL  07070IMCT  S5 PTB  00005                    1300 SR        000000000000 FUJITSU TEN (THAILAN180LRAL0024024                                                                                                                              *          20171111WMF1711114.TXT
MDDDHN244729201711                D89821984430PT1D20171116000090RADIO;AM/FM,CD                M IMCTM S5NC06 FTTL  07070IMCT  S5 PTB  00005                    1600 SR        000000000000 FUJITSU TEN (THAILAN180LNCL0018018180LNHL0011011180LPAL0015015                                                                                                  *          20171111WMF1711114.TXT
MDDDHN244730201711                D89828070100PV1D20171115000060SPEAKER ASM                   M IMCTM S5MB11 FTTL  07070IMCT  S5 PTB  00004                    2230 SR        000000000000 FUJITSU TEN (THAILAN180LPGL0080080                                                                                                                              *          20171111WMF1711114.TXT
MDDDHN244731201711                D89828070100PV1D20171116000060SPEAKER ASM                   M IMCTM S5MB11 FTTL  07070IMCT  S5 PTB  00004                    0230 SR        000000000000 FUJITSU TEN (THAILAN180LPGL0081081                                                                                                                              *          20171111WMF1711114.TXT
MDDDHN244732201711                D89828070100PV1D20171116000060SPEAKER ASM                   M IMCTM S5MB11 FTTL  07070IMCT  S5 PTB  00004                    0400 SR        000000000000 FUJITSU TEN (THAILAN180LPAL0014014                                                                                                                              *          20171111WMF1711114.TXT
MDDDHN244733201711                D89828070100PV1D20171116000120SPEAKER ASM                   M IMCTM S5MB11 FTTL  07070IMCT  S5 PTB  00004                    0830 SR        000000000000 FUJITSU TEN (THAILAN180LNEL0027027180LRAL0023023                                                                                                                *          20171111WMF1711114.TXT
MDDDHN244734201711                D89828070100PV1D20171116000060SPEAKER ASM                   M IMCTM S5MB11 FTTL  07070IMCT  S5 PTB  00004                    1030 SR        000000000000 FUJITSU TEN (THAILAN180LNAL0013013                                                                                                                              *          20171111WMF1711114.TXT
MDDDHN244735201711                D89828070100PV1D20171116000120SPEAKER ASM                   M IMCTM S5MB11 FTTL  07070IMCT  S5 PTB  00004                    1300 SR        000000000000 FUJITSU TEN (THAILAN180LPGL0082082180LRAL0024024                                                                                                                *          20171111WMF1711114.TXT
MDDDHN244736201711                D89828070100PV1D20171116000180SPEAKER ASM                   M IMCTM S5MB11 FTTL  07070IMCT  S5 PTB  00004                    1600 SR        000000000000 FUJITSU TEN (THAILAN180LNCL0018018180LNHL0011011180LPAL0015015                                                                                                  *          20171111WMF1711114.TXT
MDDDHN244737201711                D89828070100PV1D20171116000060SPEAKER ASM                   M IMCTM S5MB11 FTTL  07070IMCT  S5 PTB  00004                    2100 SR        000000000000 FUJITSU TEN (THAILAN180LPGL0083083                                                                                                                              *          20171111WMF1711114.TXT
MDDDHN244738201711                D89828070100PV4D20171116000060SPEAKER ASM                   M IMCTM S0FL05 FTTL  07070IMCT  S0 PTB  00004                    1300 SR        000000000000 FUJITSU TEN (THAILAN180LRSU0014014                                                                                                                              *          20171111WMF1711114.TXT
MDDDHN244739201711                D89828070200PV4D20171116000060SPEAKER ASM                   M IMCTM S0FR05 FTTL  07070IMCT  S0 PTB  00005                    1300 SR        000000000000 FUJITSU TEN (THAILAN180LRSU0014014                                                                                                                              *          20171111WMF1711114.TXT
MDDDHN244740201711                D89828070300PT1D20171115000060SPEAKER ASM                   M IMCTM S5NB082FTTL  07070IMCT  S5 PTB  00015                    2230 SR        000000000000 FUJITSU TEN (THAILAN180LPGL0080080                                                                                                                              *          20171111WMF1711114.TXT
MDDDHN244741201711                D89828070300PT1D20171116000060SPEAKER ASM                   M IMCTM S5NB082FTTL  07070IMCT  S5 PTB  00015                    0230 SR        000000000000 FUJITSU TEN (THAILAN180LPGL0081081                                                                                                                              *          20171111WMF1711114.TXT
MDDDHN244742201711                D89828070300PT1D20171116000060SPEAKER ASM                   M IMCTM S5NB082FTTL  07070IMCT  S5 PTB  00015                    1300 SR        000000000000 FUJITSU TEN (THAILAN180LPGL0082082                                                                                                                              *          20171111WMF1711114.TXT
MDDDHN244743201711                D89828070300PT1D20171116000060SPEAKER ASM                   M IMCTM S5NB082FTTL  07070IMCT  S5 PTB  00015                    2100 SR        000000000000 FUJITSU TEN (THAILAN180LPGL0083083                                                                                                                              *          20171111WMF1711114.TXT
MDDDHN244744201711                D89828070300PT4D20171116000060SPEAKER ASM                   M IMCTM S9TS02 FTTL  07070IMCT  S9 PTB  00015                    1300 SR        000000000000 FUJITSU TEN (THAILAN180LRSU0014014                                                                                                                              *          20171111WMF1711114.TXT
MDDDHN244745201711                D89831228300PT1D20171115000030RADIO;AM/FM,CD                M IMCTM S5NC06 FTTL  07070IMCT  S5 CPB  00003                    2230 SR        000000000000 FUJITSU TEN (THAILAN180LPGL0080080                                                                                                                              *          20171111WMF1711114.TXT
MDDDHN244746201711                D89831228300PT1D20171116000030RADIO;AM/FM,CD                M IMCTM S5NC06 FTTL  07070IMCT  S5 CPB  00003                    0230 SR        000000000000 FUJITSU TEN (THAILAN180LPGL0081081                                                                                                                              *          20171111WMF1711114.TXT
MDDDHN244747201711                D89831228300PT1D20171116000030RADIO;AM/FM,CD                M IMCTM S5NC06 FTTL  07070IMCT  S5 CPB  00003                    1300 SR        000000000000 FUJITSU TEN (THAILAN180LPGL0082082                                                                                                                              *          20171111WMF1711114.TXT
MDDDHN244748201711                D89831228300PT1D20171116000030RADIO;AM/FM,CD                M IMCTM S5NC06 FTTL  07070IMCT  S5 CPB  00003                    2100 SR        000000000000 FUJITSU TEN (THAILAN180LPGL0083083                                                                                                                              *          20171111WMF1711114.TXT
MDDUHN219644201711                D89828070100PT4U20171116000030SPEAKER ASM                   M IMCTM S0FL05 FTTL  07070IMCT  S0 PTB  00004                    0230 SR        000000000000 FUJITSU TEN (THAILAN180LUHU0004004                                                                                                                              *          20171111WMF1711114.TXT
MDDUHN219645201711                D89828070100PT4U20171116000030SPEAKER ASM                   M IMCTM S0FL05 FTTL  07070IMCT  S0 PTB  00004                    0830 SR        000000000000 FUJITSU TEN (THAILAN180LUKU0043043                                                                                                                              *          20171111WMF1711114.TXT
MDDUHN219646201711                D89828070100PT4U20171116000030SPEAKER ASM                   M IMCTM S0FL05 FTTL  07070IMCT  S0 PTB  00004                    1600 SR        000000000000 FUJITSU TEN (THAILAN180LUKU0044044                                                                                                                              *          20171111WMF1711114.TXT
MDDUHN219647201711                D89828070200PV4U20171116000030SPEAKER ASM                   M IMCTM S0FR05 FTTL  07070IMCT  S0 PTB  00005                    0230 SR        000000000000 FUJITSU TEN (THAILAN180LUHU0004004                                                                                                                              *          20171111WMF1711114.TXT
MDDUHN219648201711                D89828070200PV4U20171116000030SPEAKER ASM                   M IMCTM S0FR05 FTTL  07070IMCT  S0 PTB  00005                    0830 SR        000000000000 FUJITSU TEN (THAILAN180LUKU0043043                                                                                                                              *          20171111WMF1711114.TXT
MDDUHN219649201711                D89828070200PV4U20171116000030SPEAKER ASM                   M IMCTM S0FR05 FTTL  07070IMCT  S0 PTB  00005                    1600 SR        000000000000 FUJITSU TEN (THAILAN180LUKU0044044                                                                                                                              *          20171111WMF1711114.TXT
MDDUHN219650201711                D89828070300PT4U20171116000030SPEAKER ASM                   M IMCTM S9TS02 FTTL  07070IMCT  S9 PTB  00015                    0230 SR        000000000000 FUJITSU TEN (THAILAN180LUHU0004004                                                                                                                              *          20171111WMF1711114.TXT
MDDUHN219651201711                D89828070300PT4U20171116000030SPEAKER ASM                   M IMCTM S9TS02 FTTL  07070IMCT  S9 PTB  00015                    0830 SR        000000000000 FUJITSU TEN (THAILAN180LUKU0043043                                                                                                                              *          20171111WMF1711114.TXT
MDDUHN219652201711                D89828070300PT4U20171116000030SPEAKER ASM                   M IMCTM S9TS02 FTTL  07070IMCT  S9 PTB  00015                    1600 SR        000000000000 FUJITSU TEN (THAILAN180LUKU0044044                                                                                                                              *          20171111WMF1711114.TXT
MDDUHN219653201711                D89848584200PT4U20171116000015RADIO;AM/FM CD D              M IMCTM S9CO001FTTL  07070IMCT  S9 PTB  00003                    0230 SR        000000000000 FUJITSU TEN (THAILAN180LUHU0004004                                                                                                                              *          20171111WMF1711114.TXT
MDEDHN231278201711                D89828070100PV1D20171115000030SPEAKER ASM                   M IMCTM S5MB11 FTTL  07070IMCT  S5 PTB  00004                    2230 SR        000000000000 FUJITSU TEN (THAILAN17015NL0022022                                                                                                                              *          20171111WMF1711114.TXT
MDEDHN231279201711                D89828070100PV1D20171116000030SPEAKER ASM                   M IMCTM S5MB11 FTTL  07070IMCT  S5 PTB  00004                    0230 SR        000000000000 FUJITSU TEN (THAILAN17027ML0003003                                                                                                                              *          20171111WMF1711114.TXT
MDEDHN231280201711                D89828070100PV4D20171115000030SPEAKER ASM                   M IMCTM S0FL05 FTTL  07070IMCT  S0 PTB  00004                    2230 SR        000000000000 FUJITSU TEN (THAILAN17006MU0001001                                                                                                                              *          20171111WMF1711114.TXT
MDEDHN231281201711                D89828070100PV4D20171116000030SPEAKER ASM                   M IMCTM S0FL05 FTTL  07070IMCT  S0 PTB  00004                    2100 SR        000000000000 FUJITSU TEN (THAILAN17022MU0002002                                                                                                                              *          20171111WMF1711114.TXT
MDEDHN231282201711                D89828070200PV1D20171115000030SPEAKER ASM                   M IMCTM S5MA14 FTTL  07070IMCT  S5 PTB  00005                    2230 SR        000000000000 FUJITSU TEN (THAILAN17015NL0022022                                                                                                                              *          20171111WMF1711114.TXT
MDEDHN231283201711                D89828070200PV1D20171116000030SPEAKER ASM                   M IMCTM S5MA14 FTTL  07070IMCT  S5 PTB  00005                    0230 SR        000000000000 FUJITSU TEN (THAILAN17027ML0003003                                                                                                                              *          20171111WMF1711114.TXT
MDEDHN231284201711                D89828070200PV4D20171116000030SPEAKER ASM                   M IMCTM S0FR05 FTTL  07070IMCT  S0 PTB  00005                    2100 SR        000000000000 FUJITSU TEN (THAILAN17022MU0002002                                                                                                                              *          20171111WMF1711114.TXT
MDEDHN231285201711                D89828070300PT1D20171115000030SPEAKER ASM                   M IMCTM S5NB082FTTL  07070IMCT  S5 PTB  00015                    2230 SR        000000000000 FUJITSU TEN (THAILAN17015NL0022022                                                                                                                              *          20171111WMF1711114.TXT
MDEDHN231286201711                D89828070300PT1D20171116000030SPEAKER ASM                   M IMCTM S5NB082FTTL  07070IMCT  S5 PTB  00015                    0230 SR        000000000000 FUJITSU TEN (THAILAN17027ML0003003                                                                                                                              *          20171111WMF1711114.TXT
MDEDHN231287201711                D89828070300PT4D20171116000030SPEAKER ASM                   M IMCTM S9TS02 FTTL  07070IMCT  S9 PTB  00015                    2100 SR        000000000000 FUJITSU TEN (THAILAN17022MU0002002                                                                                                                              *          20171111WMF1711114.TXT
MDEDHN231288201711                D89829645310PT1D20171116000015RADIO;ASM DVD                 M IMCTM S5NC06 FTTL  07070IMCT  S5 PTB  00003                    0230 SR        000000000000 FUJITSU TEN (THAILAN17027ML0003003                                                                                                                              *          20171111WMF1711114.TXT
MDEUHN236472201711                D89828070100PT4U20171115000030SPEAKER ASM                   M IMCTM S0FL05 FTTL  07070IMCT  S0 PTB  00004                    2230 SR        000000000000 FUJITSU TEN (THAILAN18022TU0091091                                                                                                                              *          20171111WMF1711114.TXT
MDEUHN236473201711                D89828070100PT4U20171116000060SPEAKER ASM                   M IMCTM S0FL05 FTTL  07070IMCT  S0 PTB  00004                    0400 SR        000000000000 FUJITSU TEN (THAILAN18021TU002902918078SU0243243                                                                                                                *          20171111WMF1711114.TXT
MDEUHN236474201711                D89828070100PT4U20171116000030SPEAKER ASM                   M IMCTM S0FL05 FTTL  07070IMCT  S0 PTB  00004                    1030 SR        000000000000 FUJITSU TEN (THAILAN18078SU0244244                                                                                                                              *          20171111WMF1711114.TXT
MDEUHN236475201711                D89828070100PT4U20171116000030SPEAKER ASM                   M IMCTM S0FL05 FTTL  07070IMCT  S0 PTB  00004                    1300 SR        000000000000 FUJITSU TEN (THAILAN18078SU0245245                                                                                                                              *          20171111WMF1711114.TXT
MDEUHN236476201711                D89828070100PT4U20171116000060SPEAKER ASM                   M IMCTM S0FL05 FTTL  07070IMCT  S0 PTB  00004                    1600 SR        000000000000 FUJITSU TEN (THAILAN18017TU004304318078SU0246246                                                                                                                *          20171111WMF1711114.TXT
MDEUHN236477201711                D89828070200PV4U20171115000030SPEAKER ASM                   M IMCTM S0FR05 FTTL  07070IMCT  S0 PTB  00005                    2230 SR        000000000000 FUJITSU TEN (THAILAN18022TU0091091                                                                                                                              *          20171111WMF1711114.TXT
MDEUHN236478201711                D89828070200PV4U20171116000060SPEAKER ASM                   M IMCTM S0FR05 FTTL  07070IMCT  S0 PTB  00005                    0400 SR        000000000000 FUJITSU TEN (THAILAN18021TU002902918078SU0243243                                                                                                                *          20171111WMF1711114.TXT
MDEUHN236479201711                D89828070200PV4U20171116000030SPEAKER ASM                   M IMCTM S0FR05 FTTL  07070IMCT  S0 PTB  00005                    1030 SR        000000000000 FUJITSU TEN (THAILAN18078SU0244244                                                                                                                              *          20171111WMF1711114.TXT
MDEUHN236480201711                D89828070200PV4U20171116000030SPEAKER ASM                   M IMCTM S0FR05 FTTL  07070IMCT  S0 PTB  00005                    1300 SR        000000000000 FUJITSU TEN (THAILAN18078SU0245245                                                                                                                              *          20171111WMF1711114.TXT
MDEUHN236481201711                D89828070200PV4U20171116000060SPEAKER ASM                   M IMCTM S0FR05 FTTL  07070IMCT  S0 PTB  00005                    1600 SR        000000000000 FUJITSU TEN (THAILAN18017TU004304318078SU0246246                                                                                                                *          20171111WMF1711114.TXT
MDEUHN236482201711                D89828070300PT4U20171115000030SPEAKER ASM                   M IMCTM S9TS02 FTTL  07070IMCT  S9 PTB  00015                    2230 SR        000000000000 FUJITSU TEN (THAILAN18022TU0091091                                                                                                                              *          20171111WMF1711114.TXT
MDEUHN236483201711                D89828070300PT4U20171116000060SPEAKER ASM                   M IMCTM S9TS02 FTTL  07070IMCT  S9 PTB  00015                    0400 SR        000000000000 FUJITSU TEN (THAILAN18021TU002902918078SU0243243                                                                                                                *          20171111WMF1711114.TXT
MDEUHN236484201711                D89828070300PT4U20171116000030SPEAKER ASM                   M IMCTM S9TS02 FTTL  07070IMCT  S9 PTB  00015                    1030 SR        000000000000 FUJITSU TEN (THAILAN18078SU0244244                                                                                                                              *          20171111WMF1711114.TXT
MDEUHN236485201711                D89828070300PT4U20171116000030SPEAKER ASM                   M IMCTM S9TS02 FTTL  07070IMCT  S9 PTB  00015                    1300 SR        000000000000 FUJITSU TEN (THAILAN18078SU0245245                                                                                                                              *          20171111WMF1711114.TXT
MDEUHN236486201711                D89828070300PT4U20171116000060SPEAKER ASM                   M IMCTM S9TS02 FTTL  07070IMCT  S9 PTB  00015                    1600 SR        000000000000 FUJITSU TEN (THAILAN18017TU004304318078SU0246246                                                                                                                *          20171111WMF1711114.TXT
MDEUHN236487201711                D89848584700PT4U20171116000015RADIO;AM/FM CD D              M IMCTM S9CO001FTTL  07070IMCT  S9 PTB  00003                    0400 SR        000000000000 FUJITSU TEN (THAILAN18021TU0029029                                                                                                                              *          20171111WMF1711114.TXT
