REC2017111320171113ISUZU                              18     
MDD6HN245011201711                D89821984430PT5620171116000060RADIO;AM/FM,CD                M IMCTM G9J311 FTTL  07070G/WAY G9 PTB  00005                    2100 GW        0000000000005FUJITSU TEN (THAILAN180LPAG0059060                                                                                                                              *          20171113WMF1711132.TXT
MDD6HN245012201711                D89828070100PV5620171116000120SPEAKER ASM                   M IMCTM G9B112 FTTL  07070G/WAY G9 PTB  00004                    2100 GW        0000000000005FUJITSU TEN (THAILAN180LPAG0059060                                                                                                                              *          20171113WMF1711132.TXT
MDD6HN245013201711                D89828070100PV5620171116000060SPEAKER ASM                   M IMCTM G9B112 FTTL  07070G/WAY G9 PTB  00004                    2300 GW        0000000000005FUJITSU TEN (THAILAN180LRMG0029029                                                                                                                              *          20171113WMF1711132.TXT
MDD6HN245014201711                D89828070100PV5620171117000060SPEAKER ASM                   M IMCTM G9B112 FTTL  07070G/WAY G9 PTB  00004                    0200 GW        0000000000005FUJITSU TEN (THAILAN180LRMG0030030                                                                                                                              *          20171113WMF1711132.TXT
MDD6HN245015201711                D89828070100PV5620171117000120SPEAKER ASM                   M IMCTM G9B112 FTTL  07070G/WAY G9 PTB  00004                    0330 GW        0000000000005FUJITSU TEN (THAILAN180LPKG0018018180LRNG0008008                                                                                                                *          20171113WMF1711132.TXT
MDD6HN245016201711                D89828070100PV5620171117000060SPEAKER ASM                   M IMCTM G9B112 FTTL  07070G/WAY G9 PTB  00004                    0900 GW        0000000000005FUJITSU TEN (THAILAN180LRLG0030030                                                                                                                              *          20171113WMF1711132.TXT
MDD6HN245017201711                D89828070100PV5620171117000060SPEAKER ASM                   M IMCTM G9B112 FTTL  07070G/WAY G9 PTB  00004                    1100 GW        0000000000005FUJITSU TEN (THAILAN180LPGG0016016                                                                                                                              *          20171113WMF1711132.TXT
MDD6HN245018201711                D89828070200PV5620171116000060SPEAKER ASM                   M IMCTM G9F132 FTTL  07070G/WAY G9 PTB  00005                    2300 GW        0000000000005FUJITSU TEN (THAILAN180LRMG0029029                                                                                                                              *          20171113WMF1711132.TXT
MDD6HN245019201711                D89828070200PV5620171117000060SPEAKER ASM                   M IMCTM G9F132 FTTL  07070G/WAY G9 PTB  00005                    0200 GW        0000000000005FUJITSU TEN (THAILAN180LRMG0030030                                                                                                                              *          20171113WMF1711132.TXT
MDD6HN245020201711                D89828070200PV5620171117000060SPEAKER ASM                   M IMCTM G9F132 FTTL  07070G/WAY G9 PTB  00005                    0330 GW        0000000000005FUJITSU TEN (THAILAN180LRNG0008008                                                                                                                              *          20171113WMF1711132.TXT
MDD6HN245021201711                D89828070200PV5620171117000060SPEAKER ASM                   M IMCTM G9F132 FTTL  07070G/WAY G9 PTB  00005                    0900 GW        0000000000005FUJITSU TEN (THAILAN180LRLG0030030                                                                                                                              *          20171113WMF1711132.TXT
MDD6HN245022201711                D89828070300PT5620171116000060SPEAKER ASM                   M IMCTM G9JB34 FTTL  07070G/WAY G9 PTB  00015                    2300 GW        0000000000005FUJITSU TEN (THAILAN180LRMG0029029                                                                                                                              *          20171113WMF1711132.TXT
MDD6HN245023201711                D89828070300PT5620171117000060SPEAKER ASM                   M IMCTM G9JB34 FTTL  07070G/WAY G9 PTB  00015                    0200 GW        0000000000005FUJITSU TEN (THAILAN180LRMG0030030                                                                                                                              *          20171113WMF1711132.TXT
MDD6HN245024201711                D89828070300PT5620171117000120SPEAKER ASM                   M IMCTM G9JB34 FTTL  07070G/WAY G9 PTB  00015                    0330 GW        0000000000005FUJITSU TEN (THAILAN180LPKG0018018180LRNG0008008                                                                                                                *          20171113WMF1711132.TXT
MDD6HN245025201711                D89828070300PT5620171117000060SPEAKER ASM                   M IMCTM G9JB34 FTTL  07070G/WAY G9 PTB  00015                    0900 GW        0000000000005FUJITSU TEN (THAILAN180LRLG0030030                                                                                                                              *          20171113WMF1711132.TXT
MDD6HN245026201711                D89828070300PT5620171117000060SPEAKER ASM                   M IMCTM G9JB34 FTTL  07070G/WAY G9 PTB  00015                    1100 GW        0000000000005FUJITSU TEN (THAILAN180LPGG0016016                                                                                                                              *          20171113WMF1711132.TXT
MDD6HN245027201711                D89831228300PT5620171117000030RADIO;AM/FM,CD                M IMCTM G9J311 FTTL  07070G/WAY G9 CPB  00003                    1100 GW        0000000000005FUJITSU TEN (THAILAN180LPGG0016016                                                                                                                              *          20171113WMF1711132.TXT
MDD6HN245028201711                D89848581600PT5620171117000030RADIO;AM/FM CD D              M IMCTM G9J213 FTTL  07070G/WAY G9 PTB  00003                    0330 GW        0000000000005FUJITSU TEN (THAILAN180LPKG0018018                                                                                                                              *          20171113WMF1711132.TXT
