REC2017112820171128ISUZU                              34     
MDDDHN313823201712                D89821984431PT1D20171202000030RADIO;AM/FM,CD                M IMCTM S5NC06 TNTH  07070IMCT  S5 PTB  00005                    1300 SR        000000000000 DENSO TEN (THAILAND)180LNEL0041041                                                                                                                                         20171128 IMCT                IMCT                                                                                                                    WMF1711285.TXT
MDDDHN313824201712                D89828070101PV1D20171201000060SPEAKER ASM                   M IMCTM S5MB11 TNTH  07070IMCT  S5 PTB  00004                    2230 SR        000000000000 DENSO TEN (THAILAND)180LPGL0104104                                                                                                                                         20171128 IMCT                IMCT                                                                                                                    WMF1711285.TXT
MDDDHN313825201712                D89828070101PV1D20171202000060SPEAKER ASM                   M IMCTM S5MB11 TNTH  07070IMCT  S5 PTB  00004                    1030 SR        000000000000 DENSO TEN (THAILAND)180LPGL0105105                                                                                                                                         20171128 IMCT                IMCT                                                                                                                    WMF1711285.TXT
MDDDHN313826201712                D89828070101PV1D20171202000060SPEAKER ASM                   M IMCTM S5MB11 TNTH  07070IMCT  S5 PTB  00004                    1300 SR        000000000000 DENSO TEN (THAILAND)180LNEL0041041                                                                                                                                         20171128 IMCT                IMCT                                                                                                                    WMF1711285.TXT
MDDDHN313827201712                D89828070301PT1D20171201000060SPEAKER ASM                   M IMCTM S5NB082TNTH  07070IMCT  S5 PTB  00015                    2230 SR        000000000000 DENSO TEN (THAILAND)180LPGL0104104                                                                                                                                         20171128 IMCT                IMCT                                                                                                                    WMF1711285.TXT
MDDDHN313828201712                D89828070301PT1D20171202000060SPEAKER ASM                   M IMCTM S5NB082TNTH  07070IMCT  S5 PTB  00015                    1030 SR        000000000000 DENSO TEN (THAILAND)180LPGL0105105                                                                                                                                         20171128 IMCT                IMCT                                                                                                                    WMF1711285.TXT
MDDDHN313829201712                D89831228301PT1D20171201000030RADIO;AM/FM,CD                M IMCTM S5NC06 TNTH  07070IMCT  S5 CPB  00003                    2230 SR        000000000000 DENSO TEN (THAILAND)180LPGL0104104                                                                                                                                         20171128 IMCT                IMCT                                                                                                                    WMF1711285.TXT
MDDDHN313830201712                D89831228301PT1D20171202000030RADIO;AM/FM,CD                M IMCTM S5NC06 TNTH  07070IMCT  S5 CPB  00003                    1030 SR        000000000000 DENSO TEN (THAILAND)180LPGL0105105                                                                                                                                         20171128 IMCT                IMCT                                                                                                                    WMF1711285.TXT
MDDUHN252615201712                D89828070101PT4U20171202000030SPEAKER ASM                   M IMCTM S0FL05 TNTH  07070IMCT  S0 PTB  00004                    0400 SR        000000000000 DENSO TEN (THAILAND)180LUJU0030030                                                                                                                                         20171128 IMCT                IMCT                                                                                                                    WMF1711285.TXT
MDDUHN252616201712                D89828070101PT4U20171202000030SPEAKER ASM                   M IMCTM S0FL05 TNTH  07070IMCT  S0 PTB  00004                    0830 SR        000000000000 DENSO TEN (THAILAND)180LUKU0058058                                                                                                                                         20171128 IMCT                IMCT                                                                                                                    WMF1711285.TXT
MDDUHN252617201712                D89828070201PV4U20171202000030SPEAKER ASM                   M IMCTM S0FR05 TNTH  07070IMCT  S0 PTB  00005                    0400 SR        000000000000 DENSO TEN (THAILAND)180LUJU0030030                                                                                                                                         20171128 IMCT                IMCT                                                                                                                    WMF1711285.TXT
MDDUHN252618201712                D89828070201PV4U20171202000030SPEAKER ASM                   M IMCTM S0FR05 TNTH  07070IMCT  S0 PTB  00005                    0830 SR        000000000000 DENSO TEN (THAILAND)180LUKU0058058                                                                                                                                         20171128 IMCT                IMCT                                                                                                                    WMF1711285.TXT
MDDUHN252619201712                D89828070301PT4U20171202000030SPEAKER ASM                   M IMCTM S9TS02 TNTH  07070IMCT  S9 PTB  00015                    0400 SR        000000000000 DENSO TEN (THAILAND)180LUJU0030030                                                                                                                                         20171128 IMCT                IMCT                                                                                                                    WMF1711285.TXT
MDDUHN252620201712                D89828070301PT4U20171202000030SPEAKER ASM                   M IMCTM S9TS02 TNTH  07070IMCT  S9 PTB  00015                    0830 SR        000000000000 DENSO TEN (THAILAND)180LUKU0058058                                                                                                                                         20171128 IMCT                IMCT                                                                                                                    WMF1711285.TXT
MDDUHN252621201712                D89848584201PT4U20171202000015RADIO;AM/FM CD D              M IMCTM S9CO001TNTH  07070IMCT  S9 PTB  00003                    0400 SR        000000000000 DENSO TEN (THAILAND)180LUJU0030030                                                                                                                                         20171128 IMCT                IMCT                                                                                                                    WMF1711285.TXT
MDEDHN282697201712                D89828070101PV1D20171202000060SPEAKER ASM                   M IMCTM S5MB11 TNTH  07070IMCT  S5 PTB  00004                    1600 SR        000000000000 DENSO TEN (THAILAND)18007ZL0009010                                                                                                                                         20171128 IMCT                IMCT                                                                                                                    WMF1711285.TXT
MDEUHN288859201712                D89828070101PT4U20171201000030SPEAKER ASM                   M IMCTM S0FL05 TNTH  07070IMCT  S0 PTB  00004                    2230 SR        000000000000 DENSO TEN (THAILAND)18026UU0012012                                                                                                                                         20171128 IMCT                IMCT                                                                                                                    WMF1711285.TXT
MDEUHN288860201712                D89828070101PT4U20171202000030SPEAKER ASM                   M IMCTM S0FL05 TNTH  07070IMCT  S0 PTB  00004                    0230 SR        000000000000 DENSO TEN (THAILAND)18078SU0299299                                                                                                                                         20171128 IMCT                IMCT                                                                                                                    WMF1711285.TXT
MDEUHN288861201712                D89828070101PT4U20171202000030SPEAKER ASM                   M IMCTM S0FL05 TNTH  07070IMCT  S0 PTB  00004                    0830 SR        000000000000 DENSO TEN (THAILAND)18078SU0300300                                                                                                                                         20171128 IMCT                IMCT                                                                                                                    WMF1711285.TXT
MDEUHN288862201712                D89828070101PT4U20171202000030SPEAKER ASM                   M IMCTM S0FL05 TNTH  07070IMCT  S0 PTB  00004                    1030 SR        000000000000 DENSO TEN (THAILAND)18078SU0301301                                                                                                                                         20171128 IMCT                IMCT                                                                                                                    WMF1711285.TXT
MDEUHN288863201712                D89828070101PT4U20171202000030SPEAKER ASM                   M IMCTM S0FL05 TNTH  07070IMCT  S0 PTB  00004                    1300 SR        000000000000 DENSO TEN (THAILAND)18026UU0013013                                                                                                                                         20171128 IMCT                IMCT                                                                                                                    WMF1711285.TXT
MDEUHN288864201712                D89828070101PT4U20171202000030SPEAKER ASM                   M IMCTM S0FL05 TNTH  07070IMCT  S0 PTB  00004                    1600 SR        000000000000 DENSO TEN (THAILAND)18026UU0014014                                                                                                                                         20171128 IMCT                IMCT                                                                                                                    WMF1711285.TXT
MDEUHN288865201712                D89828070201PV4U20171201000030SPEAKER ASM                   M IMCTM S0FR05 TNTH  07070IMCT  S0 PTB  00005                    2230 SR        000000000000 DENSO TEN (THAILAND)18026UU0012012                                                                                                                                         20171128 IMCT                IMCT                                                                                                                    WMF1711285.TXT
MDEUHN288866201712                D89828070201PV4U20171202000030SPEAKER ASM                   M IMCTM S0FR05 TNTH  07070IMCT  S0 PTB  00005                    0230 SR        000000000000 DENSO TEN (THAILAND)18078SU0299299                                                                                                                                         20171128 IMCT                IMCT                                                                                                                    WMF1711285.TXT
MDEUHN288867201712                D89828070201PV4U20171202000030SPEAKER ASM                   M IMCTM S0FR05 TNTH  07070IMCT  S0 PTB  00005                    0830 SR        000000000000 DENSO TEN (THAILAND)18078SU0300300                                                                                                                                         20171128 IMCT                IMCT                                                                                                                    WMF1711285.TXT
MDEUHN288868201712                D89828070201PV4U20171202000030SPEAKER ASM                   M IMCTM S0FR05 TNTH  07070IMCT  S0 PTB  00005                    1030 SR        000000000000 DENSO TEN (THAILAND)18078SU0301301                                                                                                                                         20171128 IMCT                IMCT                                                                                                                    WMF1711285.TXT
MDEUHN288869201712                D89828070201PV4U20171202000030SPEAKER ASM                   M IMCTM S0FR05 TNTH  07070IMCT  S0 PTB  00005                    1300 SR        000000000000 DENSO TEN (THAILAND)18026UU0013013                                                                                                                                         20171128 IMCT                IMCT                                                                                                                    WMF1711285.TXT
MDEUHN288870201712                D89828070201PV4U20171202000030SPEAKER ASM                   M IMCTM S0FR05 TNTH  07070IMCT  S0 PTB  00005                    1600 SR        000000000000 DENSO TEN (THAILAND)18026UU0014014                                                                                                                                         20171128 IMCT                IMCT                                                                                                                    WMF1711285.TXT
MDEUHN288871201712                D89828070301PT4U20171201000030SPEAKER ASM                   M IMCTM S9TS02 TNTH  07070IMCT  S9 PTB  00015                    2230 SR        000000000000 DENSO TEN (THAILAND)18026UU0012012                                                                                                                                         20171128 IMCT                IMCT                                                                                                                    WMF1711285.TXT
MDEUHN288872201712                D89828070301PT4U20171202000030SPEAKER ASM                   M IMCTM S9TS02 TNTH  07070IMCT  S9 PTB  00015                    0230 SR        000000000000 DENSO TEN (THAILAND)18078SU0299299                                                                                                                                         20171128 IMCT                IMCT                                                                                                                    WMF1711285.TXT
MDEUHN288873201712                D89828070301PT4U20171202000030SPEAKER ASM                   M IMCTM S9TS02 TNTH  07070IMCT  S9 PTB  00015                    0830 SR        000000000000 DENSO TEN (THAILAND)18078SU0300300                                                                                                                                         20171128 IMCT                IMCT                                                                                                                    WMF1711285.TXT
MDEUHN288874201712                D89828070301PT4U20171202000030SPEAKER ASM                   M IMCTM S9TS02 TNTH  07070IMCT  S9 PTB  00015                    1030 SR        000000000000 DENSO TEN (THAILAND)18078SU0301301                                                                                                                                         20171128 IMCT                IMCT                                                                                                                    WMF1711285.TXT
MDEUHN288875201712                D89828070301PT4U20171202000030SPEAKER ASM                   M IMCTM S9TS02 TNTH  07070IMCT  S9 PTB  00015                    1300 SR        000000000000 DENSO TEN (THAILAND)18026UU0013013                                                                                                                                         20171128 IMCT                IMCT                                                                                                                    WMF1711285.TXT
MDEUHN288876201712                D89828070301PT4U20171202000030SPEAKER ASM                   M IMCTM S9TS02 TNTH  07070IMCT  S9 PTB  00015                    1600 SR        000000000000 DENSO TEN (THAILAND)18026UU0014014                                                                                                                                         20171128 IMCT                IMCT                                                                                                                    WMF1711285.TXT
