REC2017111420171114ISUZU                              5      
MDEFHNT11077201711                D89828070100PV4F20171118000018SPEAKER ASM                   M IMCTM S7FL05 FTTL  07070IMCT  S7 PTB  00004                    0400 SR        000000000000 FUJITSU TEN (THAILAN17071MR0100   17057MR0087   F171103307    F171103315    000000                                                                              *R         20171114RDF1711144.TXT
MDEFHNT11078201711                D89828070300PT4F20171118000015SPEAKER ASM                   M IMCTM S7TS02 FTTL  07070IMCT  S7 PTB  00015                    0400 SR        000000000000 FUJITSU TEN (THAILAN17071MR0101   17057MR0087   F171103308    F171103315    000000                                                                              *R         20171114RDF1711144.TXT
MDEFHNT11079201711                D89829622410PT4F20171118000003RADIO;ASM DVD                 M IMCTM S7TS03 FTTL  07070IMCT  S7 PTB  00003                    0230 SR        000000000000 FUJITSU TEN (THAILAN17062MR0088   17062MR0090   F171103303    F171103305    000000                                                                              *R         20171114RDF1711144.TXT
MDEFHN223907201711                D89828070100PV4F20171118000012SPEAKER ASM                   M IMCTM S7FL05 FTTL  07070IMCT  S7 PTB  00004                    0230 SR        000000000000 FUJITSU TEN (THAILAN17057MR0084   17071MR0099   F171103301    F171103306    000000                                                                              *R         20171114RDF1711144.TXT
MDEFHN223908201711                D89828070300PT4F20171118000015SPEAKER ASM                   M IMCTM S7TS02 FTTL  07070IMCT  S7 PTB  00015                    0230 SR        000000000000 FUJITSU TEN (THAILAN17057MR0084   17071MR0101   F171103301    F171103308    000000                                                                              *R         20171114RDF1711144.TXT
