REC2017111620171116ISUZU                              73     
MDDDHN266260201711                D89821984430PT1D20171120000030RADIO;AM/FM,CD                M IMCTM S5NC06 FTTL  07070IMCT  S5 PTB  00005                    2230 SR        000000000000 FUJITSU TEN (THAILAN180LRAL0032032                                                                                                                              *          20171116WMF1711166.TXT
MDDDHN266261201711                D89821984430PT1D20171121000030RADIO;AM/FM,CD                M IMCTM S5NC06 FTTL  07070IMCT  S5 PTB  00005                    0230 SR        000000000000 FUJITSU TEN (THAILAN180LNGL0030030                                                                                                                              *          20171116WMF1711166.TXT
MDDDHN266262201711                D89821984430PT1D20171121000030RADIO;AM/FM,CD                M IMCTM S5NC06 FTTL  07070IMCT  S5 PTB  00005                    0400 SR        000000000000 FUJITSU TEN (THAILAN180LRAL0033033                                                                                                                              *          20171116WMF1711166.TXT
MDDDHN266263201711                D89821984430PT1D20171121000030RADIO;AM/FM,CD                M IMCTM S5NC06 FTTL  07070IMCT  S5 PTB  00005                    1030 SR        000000000000 FUJITSU TEN (THAILAN180LNEL0031031                                                                                                                              *          20171116WMF1711166.TXT
MDDDHN266264201711                D89821984430PT1D20171121000030RADIO;AM/FM,CD                M IMCTM S5NC06 FTTL  07070IMCT  S5 PTB  00005                    1300 SR        000000000000 FUJITSU TEN (THAILAN180LPAL0021021                                                                                                                              *          20171116WMF1711166.TXT
MDDDHN266265201711                D89821984430PT1D20171121000060RADIO;AM/FM,CD                M IMCTM S5NC06 FTTL  07070IMCT  S5 PTB  00005                    1600 SR        000000000000 FUJITSU TEN (THAILAN180LNGL0031031180LPBL0002002                                                                                                                *          20171116WMF1711166.TXT
MDDDHN266266201711                D89828070100PV1D20171120000060SPEAKER ASM                   M IMCTM S5MB11 FTTL  07070IMCT  S5 PTB  00004                    2230 SR        000000000000 FUJITSU TEN (THAILAN180LRAL0032032                                                                                                                              *          20171116WMF1711166.TXT
MDDDHN266267201711                D89828070100PV1D20171121000060SPEAKER ASM                   M IMCTM S5MB11 FTTL  07070IMCT  S5 PTB  00004                    0230 SR        000000000000 FUJITSU TEN (THAILAN180LNGL0030030                                                                                                                              *          20171116WMF1711166.TXT
MDDDHN266268201711                D89828070100PV1D20171121000120SPEAKER ASM                   M IMCTM S5MB11 FTTL  07070IMCT  S5 PTB  00004                    0400 SR        000000000000 FUJITSU TEN (THAILAN180LPGL0092092180LRAL0033033                                                                                                                *          20171116WMF1711166.TXT
MDDDHN266269201711                D89828070100PV1D20171121000120SPEAKER ASM                   M IMCTM S5MB11 FTTL  07070IMCT  S5 PTB  00004                    1030 SR        000000000000 FUJITSU TEN (THAILAN180LNEL0031031180LPGL0093093                                                                                                                *          20171116WMF1711166.TXT
MDDDHN266270201711                D89828070100PV1D20171121000060SPEAKER ASM                   M IMCTM S5MB11 FTTL  07070IMCT  S5 PTB  00004                    1300 SR        000000000000 FUJITSU TEN (THAILAN180LPAL0021021                                                                                                                              *          20171116WMF1711166.TXT
MDDDHN266271201711                D89828070100PV1D20171121000120SPEAKER ASM                   M IMCTM S5MB11 FTTL  07070IMCT  S5 PTB  00004                    1600 SR        000000000000 FUJITSU TEN (THAILAN180LNGL0031031180LPBL0002002                                                                                                                *          20171116WMF1711166.TXT
MDDDHN266272201711                D89828070100PV1D20171121000060SPEAKER ASM                   M IMCTM S5MB11 FTTL  07070IMCT  S5 PTB  00004                    2100 SR        000000000000 FUJITSU TEN (THAILAN180LNAL0014014                                                                                                                              *          20171116WMF1711166.TXT
MDDDHN266273201711                D89828070100PV4D20171121000060SPEAKER ASM                   M IMCTM S0FL05 FTTL  07070IMCT  S0 PTB  00004                    1600 SR        000000000000 FUJITSU TEN (THAILAN180LRSU0015015                                                                                                                              *          20171116WMF1711166.TXT
MDDDHN266274201711                D89828070200PV4D20171121000060SPEAKER ASM                   M IMCTM S0FR05 FTTL  07070IMCT  S0 PTB  00005                    1600 SR        000000000000 FUJITSU TEN (THAILAN180LRSU0015015                                                                                                                              *          20171116WMF1711166.TXT
MDDDHN266275201711                D89828070300PT1D20171121000060SPEAKER ASM                   M IMCTM S5NB082FTTL  07070IMCT  S5 PTB  00015                    0400 SR        000000000000 FUJITSU TEN (THAILAN180LPGL0092092                                                                                                                              *          20171116WMF1711166.TXT
MDDDHN266276201711                D89828070300PT1D20171121000060SPEAKER ASM                   M IMCTM S5NB082FTTL  07070IMCT  S5 PTB  00015                    1030 SR        000000000000 FUJITSU TEN (THAILAN180LPGL0093093                                                                                                                              *          20171116WMF1711166.TXT
MDDDHN266277201711                D89828070300PT4D20171121000060SPEAKER ASM                   M IMCTM S9TS02 FTTL  07070IMCT  S9 PTB  00015                    1600 SR        000000000000 FUJITSU TEN (THAILAN180LRSU0015015                                                                                                                              *          20171116WMF1711166.TXT
MDDDHN266278201711                D89831228300PT1D20171121000030RADIO;AM/FM,CD                M IMCTM S5NC06 FTTL  07070IMCT  S5 CPB  00003                    0400 SR        000000000000 FUJITSU TEN (THAILAN180LPGL0092092                                                                                                                              *          20171116WMF1711166.TXT
MDDDHN266279201711                D89831228300PT1D20171121000030RADIO;AM/FM,CD                M IMCTM S5NC06 FTTL  07070IMCT  S5 CPB  00003                    1030 SR        000000000000 FUJITSU TEN (THAILAN180LPGL0093093                                                                                                                              *          20171116WMF1711166.TXT
MDDUHN229354201711                D89828070100PT4U20171120000030SPEAKER ASM                   M IMCTM S22000 FTTL  07070IMCT  S2 PTB  00004                    2230 SR        000000000000 FUJITSU TEN (THAILAN180LUKU0050050                                                                                                                              *          20171116WMF1711166.TXT
MDDUHN229355201711                D89828070100PT4U20171121000030SPEAKER ASM                   M IMCTM S22000 FTTL  07070IMCT  S2 PTB  00004                    0830 SR        000000000000 FUJITSU TEN (THAILAN180LUFU0062062                                                                                                                              *          20171116WMF1711166.TXT
MDDUHN229356201711                D89828070100PT4U20171121000030SPEAKER ASM                   M IMCTM S22000 FTTL  07070IMCT  S2 PTB  00004                    1600 SR        000000000000 FUJITSU TEN (THAILAN180LUJU0024024                                                                                                                              *          20171116WMF1711166.TXT
MDDUHN229357201711                D89828070100PT4U20171121000030SPEAKER ASM                   M IMCTM S22000 FTTL  07070IMCT  S2 PTB  00004                    2230 SR        000000000000 FUJITSU TEN (THAILAN180LUKU0051051                                                                                                                              *          20171116WMF1711166.TXT
MDDUHN229358201711                D89828070200PV4U20171120000030SPEAKER ASM                   M IMCTM S22000 FTTL  07070IMCT  S2 PTB  00005                    2230 SR        000000000000 FUJITSU TEN (THAILAN180LUKU0050050                                                                                                                              *          20171116WMF1711166.TXT
MDDUHN229359201711                D89828070200PV4U20171121000030SPEAKER ASM                   M IMCTM S22000 FTTL  07070IMCT  S2 PTB  00005                    0830 SR        000000000000 FUJITSU TEN (THAILAN180LUFU0062062                                                                                                                              *          20171116WMF1711166.TXT
MDDUHN229360201711                D89828070200PV4U20171121000030SPEAKER ASM                   M IMCTM S22000 FTTL  07070IMCT  S2 PTB  00005                    1600 SR        000000000000 FUJITSU TEN (THAILAN180LUJU0024024                                                                                                                              *          20171116WMF1711166.TXT
MDDUHN229361201711                D89828070200PV4U20171121000030SPEAKER ASM                   M IMCTM S22000 FTTL  07070IMCT  S2 PTB  00005                    2230 SR        000000000000 FUJITSU TEN (THAILAN180LUKU0051051                                                                                                                              *          20171116WMF1711166.TXT
MDDUHN229362201711                D89828070300PT4U20171120000030SPEAKER ASM                   M IMCTM S22000 FTTL  07070IMCT  S2 PTB  00015                    2230 SR        000000000000 FUJITSU TEN (THAILAN180LUKU0050050                                                                                                                              *          20171116WMF1711166.TXT
MDDUHN229363201711                D89828070300PT4U20171121000030SPEAKER ASM                   M IMCTM S22000 FTTL  07070IMCT  S2 PTB  00015                    0830 SR        000000000000 FUJITSU TEN (THAILAN180LUFU0062062                                                                                                                              *          20171116WMF1711166.TXT
MDDUHN229364201711                D89828070300PT4U20171121000030SPEAKER ASM                   M IMCTM S22000 FTTL  07070IMCT  S2 PTB  00015                    1600 SR        000000000000 FUJITSU TEN (THAILAN180LUJU0024024                                                                                                                              *          20171116WMF1711166.TXT
MDDUHN229365201711                D89828070300PT4U20171121000030SPEAKER ASM                   M IMCTM S22000 FTTL  07070IMCT  S2 PTB  00015                    2230 SR        000000000000 FUJITSU TEN (THAILAN180LUKU0051051                                                                                                                              *          20171116WMF1711166.TXT
MDDUHN229366201711                D89848584200PT4U20171121000015RADIO;AM/FM CD D              M IMCTM S9CO001FTTL  07070IMCT  S9 PTB  00003                    1600 SR        000000000000 FUJITSU TEN (THAILAN180LUJU0024024                                                                                                                              *          20171116WMF1711166.TXT
MDEDHN245824201711                D89828070100PV1D20171120000060SPEAKER ASM                   M IMCTM S5MB11 FTTL  07070IMCT  S5 PTB  00004                    2230 SR        000000000000 FUJITSU TEN (THAILAN17079NL0101102                                                                                                                              *          20171116WMF1711166.TXT
MDEDHN245825201711                D89828070100PV1D20171121000060SPEAKER ASM                   M IMCTM S5MB11 FTTL  07070IMCT  S5 PTB  00004                    0830 SR        000000000000 FUJITSU TEN (THAILAN17018ML003003017046QL0026026                                                                                                                *          20171116WMF1711166.TXT
MDEDHN245826201711                D89828070100PV1D20171121000060SPEAKER ASM                   M IMCTM S5MB11 FTTL  07070IMCT  S5 PTB  00004                    1600 SR        000000000000 FUJITSU TEN (THAILAN17076ML003403417099ML0007007                                                                                                                *          20171116WMF1711166.TXT
MDEDHN245827201711                D89828070100PV1D20171121000030SPEAKER ASM                   M IMCTM S5MB11 FTTL  07070IMCT  S5 PTB  00004                    2230 SR        000000000000 FUJITSU TEN (THAILAN17022ML0033033                                                                                                                              *          20171116WMF1711166.TXT
MDEDHN245828201711                D89828070100PV4D20171121000030SPEAKER ASM                   M IMCTM S0FL05 FTTL  07070IMCT  S0 PTB  00004                    0400 SR        000000000000 FUJITSU TEN (THAILAN18029VU0001001                                                                                                                              *          20171116WMF1711166.TXT
MDEDHN245829201711                D89828070100PV4D20171121000030SPEAKER ASM                   M IMCTM S0FL05 FTTL  07070IMCT  S0 PTB  00004                    1030 SR        000000000000 FUJITSU TEN (THAILAN17074NU0030030                                                                                                                              *          20171116WMF1711166.TXT
MDEDHN245830201711                D89828070200PV1D20171120000060SPEAKER ASM                   M IMCTM S5MA14 FTTL  07070IMCT  S5 PTB  00005                    2230 SR        000000000000 FUJITSU TEN (THAILAN17079NL0101102                                                                                                                              *          20171116WMF1711166.TXT
MDEDHN245831201711                D89828070200PV1D20171121000060SPEAKER ASM                   M IMCTM S5MA14 FTTL  07070IMCT  S5 PTB  00005                    0830 SR        000000000000 FUJITSU TEN (THAILAN17018ML003003017046QL0026026                                                                                                                *          20171116WMF1711166.TXT
MDEDHN245832201711                D89828070200PV1D20171121000030SPEAKER ASM                   M IMCTM S5MA14 FTTL  07070IMCT  S5 PTB  00005                    1600 SR        000000000000 FUJITSU TEN (THAILAN17099ML0007007                                                                                                                              *          20171116WMF1711166.TXT
MDEDHN245833201711                D89828070200PV1D20171121000030SPEAKER ASM                   M IMCTM S5MA14 FTTL  07070IMCT  S5 PTB  00005                    2230 SR        000000000000 FUJITSU TEN (THAILAN17022ML0033033                                                                                                                              *          20171116WMF1711166.TXT
MDEDHN245834201711                D89828070200PV4D20171121000030SPEAKER ASM                   M IMCTM S0FR05 FTTL  07070IMCT  S0 PTB  00005                    0400 SR        000000000000 FUJITSU TEN (THAILAN18029VU0001001                                                                                                                              *          20171116WMF1711166.TXT
MDEDHN245835201711                D89828070200PV4D20171121000030SPEAKER ASM                   M IMCTM S0FR05 FTTL  07070IMCT  S0 PTB  00005                    1030 SR        000000000000 FUJITSU TEN (THAILAN17074NU0030030                                                                                                                              *          20171116WMF1711166.TXT
MDEDHN245836201711                D89828070300PT1D20171120000060SPEAKER ASM                   M IMCTM S5NB082FTTL  07070IMCT  S5 PTB  00015                    2230 SR        000000000000 FUJITSU TEN (THAILAN17079NL0101102                                                                                                                              *          20171116WMF1711166.TXT
MDEDHN245837201711                D89828070300PT1D20171121000060SPEAKER ASM                   M IMCTM S5NB082FTTL  07070IMCT  S5 PTB  00015                    0830 SR        000000000000 FUJITSU TEN (THAILAN17018ML003003017046QL0026026                                                                                                                *          20171116WMF1711166.TXT
MDEDHN245838201711                D89828070300PT1D20171121000030SPEAKER ASM                   M IMCTM S5NB082FTTL  07070IMCT  S5 PTB  00015                    1600 SR        000000000000 FUJITSU TEN (THAILAN17099ML0007007                                                                                                                              *          20171116WMF1711166.TXT
MDEDHN245839201711                D89828070300PT1D20171121000030SPEAKER ASM                   M IMCTM S5NB082FTTL  07070IMCT  S5 PTB  00015                    2230 SR        000000000000 FUJITSU TEN (THAILAN17022ML0033033                                                                                                                              *          20171116WMF1711166.TXT
MDEDHN245840201711                D89828070300PT4D20171121000030SPEAKER ASM                   M IMCTM S9TS02 FTTL  07070IMCT  S9 PTB  00015                    0400 SR        000000000000 FUJITSU TEN (THAILAN18029VU0001001                                                                                                                              *          20171116WMF1711166.TXT
MDEDHN245841201711                D89828070300PT4D20171121000030SPEAKER ASM                   M IMCTM S9TS02 FTTL  07070IMCT  S9 PTB  00015                    1030 SR        000000000000 FUJITSU TEN (THAILAN17074NU0030030                                                                                                                              *          20171116WMF1711166.TXT
MDEDHN245842201711                D89829645310PT1D20171121000015RADIO;ASM DVD                 M IMCTM S5NC06 FTTL  07070IMCT  S5 PTB  00003                    0830 SR        000000000000 FUJITSU TEN (THAILAN17018ML0030030                                                                                                                              *          20171116WMF1711166.TXT
MDEDHN245843201711                D89829645310PT1D20171121000015RADIO;ASM DVD                 M IMCTM S5NC06 FTTL  07070IMCT  S5 PTB  00003                    1600 SR        000000000000 FUJITSU TEN (THAILAN17099ML0007007                                                                                                                              *          20171116WMF1711166.TXT
MDEDHN245844201711                D89848581800PT1D20171120000030RADIO;AM/FM CD D              M IMCTM S5NC06 FTTL  07070IMCT  S5 PTB  00003                    2230 SR        000000000000 FUJITSU TEN (THAILAN17079NL0101102                                                                                                                              *          20171116WMF1711166.TXT
MDEDHN245845201711                D89848581800PT4D20171121000015RADIO;AM/FM CD D              M IMCTM S9CO001FTTL  07070IMCT  S9 PTB  00003                    1030 SR        000000000000 FUJITSU TEN (THAILAN17074NU0030030                                                                                                                              *          20171116WMF1711166.TXT
MDEUHN252263201711                D89828070100PT4U20171121000030SPEAKER ASM                   M IMCTM S22000 FTTL  07070IMCT  S2 PTB  00004                    0230 SR        000000000000 FUJITSU TEN (THAILAN18078SU0262262                                                                                                                              *          20171116WMF1711166.TXT
MDEUHN252264201711                D89828070100PT4U20171121000030SPEAKER ASM                   M IMCTM S22000 FTTL  07070IMCT  S2 PTB  00004                    0400 SR        000000000000 FUJITSU TEN (THAILAN18078SU0263263                                                                                                                              *          20171116WMF1711166.TXT
MDEUHN252265201711                D89828070100PT4U20171121000030SPEAKER ASM                   M IMCTM S22000 FTTL  07070IMCT  S2 PTB  00004                    0830 SR        000000000000 FUJITSU TEN (THAILAN18078SU0264264                                                                                                                              *          20171116WMF1711166.TXT
MDEUHN252266201711                D89828070100PT4U20171121000060SPEAKER ASM                   M IMCTM S22000 FTTL  07070IMCT  S2 PTB  00004                    1300 SR        000000000000 FUJITSU TEN (THAILAN18078SU0265266                                                                                                                              *          20171116WMF1711166.TXT
MDEUHN252267201711                D89828070100PT4U20171121000030SPEAKER ASM                   M IMCTM S22000 FTTL  07070IMCT  S2 PTB  00004                    1600 SR        000000000000 FUJITSU TEN (THAILAN18078SU0267267                                                                                                                              *          20171116WMF1711166.TXT
MDEUHN252268201711                D89828070100PT4U20171121000030SPEAKER ASM                   M IMCTM S22000 FTTL  07070IMCT  S2 PTB  00004                    2100 SR        000000000000 FUJITSU TEN (THAILAN18023TU0213213                                                                                                                              *          20171116WMF1711166.TXT
MDEUHN252269201711                D89828070200PV4U20171121000030SPEAKER ASM                   M IMCTM S22000 FTTL  07070IMCT  S2 PTB  00005                    0230 SR        000000000000 FUJITSU TEN (THAILAN18078SU0262262                                                                                                                              *          20171116WMF1711166.TXT
MDEUHN252270201711                D89828070200PV4U20171121000030SPEAKER ASM                   M IMCTM S22000 FTTL  07070IMCT  S2 PTB  00005                    0400 SR        000000000000 FUJITSU TEN (THAILAN18078SU0263263                                                                                                                              *          20171116WMF1711166.TXT
MDEUHN252271201711                D89828070200PV4U20171121000030SPEAKER ASM                   M IMCTM S22000 FTTL  07070IMCT  S2 PTB  00005                    0830 SR        000000000000 FUJITSU TEN (THAILAN18078SU0264264                                                                                                                              *          20171116WMF1711166.TXT
MDEUHN252272201711                D89828070200PV4U20171121000060SPEAKER ASM                   M IMCTM S22000 FTTL  07070IMCT  S2 PTB  00005                    1300 SR        000000000000 FUJITSU TEN (THAILAN18078SU0265266                                                                                                                              *          20171116WMF1711166.TXT
MDEUHN252273201711                D89828070200PV4U20171121000030SPEAKER ASM                   M IMCTM S22000 FTTL  07070IMCT  S2 PTB  00005                    1600 SR        000000000000 FUJITSU TEN (THAILAN18078SU0267267                                                                                                                              *          20171116WMF1711166.TXT
MDEUHN252274201711                D89828070200PV4U20171121000030SPEAKER ASM                   M IMCTM S22000 FTTL  07070IMCT  S2 PTB  00005                    2100 SR        000000000000 FUJITSU TEN (THAILAN18023TU0213213                                                                                                                              *          20171116WMF1711166.TXT
MDEUHN252275201711                D89828070300PT4U20171121000030SPEAKER ASM                   M IMCTM S22000 FTTL  07070IMCT  S2 PTB  00015                    0230 SR        000000000000 FUJITSU TEN (THAILAN18078SU0262262                                                                                                                              *          20171116WMF1711166.TXT
MDEUHN252276201711                D89828070300PT4U20171121000030SPEAKER ASM                   M IMCTM S22000 FTTL  07070IMCT  S2 PTB  00015                    0400 SR        000000000000 FUJITSU TEN (THAILAN18078SU0263263                                                                                                                              *          20171116WMF1711166.TXT
MDEUHN252277201711                D89828070300PT4U20171121000030SPEAKER ASM                   M IMCTM S22000 FTTL  07070IMCT  S2 PTB  00015                    0830 SR        000000000000 FUJITSU TEN (THAILAN18078SU0264264                                                                                                                              *          20171116WMF1711166.TXT
MDEUHN252278201711                D89828070300PT4U20171121000060SPEAKER ASM                   M IMCTM S22000 FTTL  07070IMCT  S2 PTB  00015                    1300 SR        000000000000 FUJITSU TEN (THAILAN18078SU0265266                                                                                                                              *          20171116WMF1711166.TXT
MDEUHN252279201711                D89828070300PT4U20171121000030SPEAKER ASM                   M IMCTM S22000 FTTL  07070IMCT  S2 PTB  00015                    1600 SR        000000000000 FUJITSU TEN (THAILAN18078SU0267267                                                                                                                              *          20171116WMF1711166.TXT
MDEUHN252280201711                D89828070300PT4U20171121000030SPEAKER ASM                   M IMCTM S22000 FTTL  07070IMCT  S2 PTB  00015                    2100 SR        000000000000 FUJITSU TEN (THAILAN18023TU0213213                                                                                                                              *          20171116WMF1711166.TXT
