REC2017110220171102ISUZU                              26     
MAKK7O160156201711D1               89805293700P3YK20171113000120SPEAKER ASM                   M IMCTM CM1    FTTL  07070IMKDC KA   PTB00003  K0                0900DES        000000000000 FUJITSU TEN (THAILAN                                                                                                                                            *G         20171102WMF1711022.TXT
MAKK7O160157201711D1               89805293700P3YK20171114000030SPEAKER ASM                   M IMCTM CM1    FTTL  07070IMKDC KA   PTB00003  K0                0900DES        000000000000 FUJITSU TEN (THAILAN                                                                                                                                            *G         20171102WMF1711022.TXT
MAKK7O160158201711D1               89805293700P3YK20171115000150SPEAKER ASM                   M IMCTM CM1    FTTL  07070IMKDC KA   PTB00003  K0                0900DES        000000000000 FUJITSU TEN (THAILAN                                                                                                                                            *G         20171102WMF1711022.TXT
MAKK7O160159201711D1               89805293700P3YK20171116000090SPEAKER ASM                   M IMCTM CM1    FTTL  07070IMKDC KA   PTB00003  K0                0900DES        000000000000 FUJITSU TEN (THAILAN                                                                                                                                            *G         20171102WMF1711022.TXT
MAKK7O160160201711D1               89805293700P3YK20171117000090SPEAKER ASM                   M IMCTM CM1    FTTL  07070IMKDC KA   PTB00003  K0                0900DES        000000000000 FUJITSU TEN (THAILAN                                                                                                                                            *G         20171102WMF1711022.TXT
MAKK7O160161201711D1               89805294000P3YK20171113000030SPEAKER ASM                   M IMCTM CM1    FTTL  07070IMKDC KA   PTB00015  K0                0900DES        000000000000 FUJITSU TEN (THAILAN                                                                                                                                            *G         20171102WMF1711022.TXT
MAKK7O160162201711D1               89805294000P3YK20171115000090SPEAKER ASM                   M IMCTM CM1    FTTL  07070IMKDC KA   PTB00015  K0                0900DES        000000000000 FUJITSU TEN (THAILAN                                                                                                                                            *G         20171102WMF1711022.TXT
MAKK7O160163201711D1               89805294100P3YK20171113000030SPEAKER ASM                   M IMCTM CM1    FTTL  07070IMKDC KA   PTB00005  K0                0900DES        000000000000 FUJITSU TEN (THAILAN                                                                                                                                            *G         20171102WMF1711022.TXT
MAKK7O160164201711D1               89805294100P3YK20171115000090SPEAKER ASM                   M IMCTM CM1    FTTL  07070IMKDC KA   PTB00005  K0                0900DES        000000000000 FUJITSU TEN (THAILAN                                                                                                                                            *G         20171102WMF1711022.TXT
MAKK7O160165201711D1               89825451200P3YK20171114000060SPEAKER ASM;ROOF              M IMCTM CM1    FTTL  07070IMKDC KA   PTB00015  K0                0900DES        000000000000 FUJITSU TEN (THAILAN                                                                                                                                            *G         20171102WMF1711022.TXT
MAKK7O160166201711D1               89825451200P3YK20171115000150SPEAKER ASM;ROOF              M IMCTM CM1    FTTL  07070IMKDC KA   PTB00015  K0                0900DES        000000000000 FUJITSU TEN (THAILAN                                                                                                                                            *G         20171102WMF1711022.TXT
MAKK7O160167201711D1               89825451200P3YK20171116000060SPEAKER ASM;ROOF              M IMCTM CM1    FTTL  07070IMKDC KA   PTB00015  K0                0900DES        000000000000 FUJITSU TEN (THAILAN                                                                                                                                            *G         20171102WMF1711022.TXT
MAKK7O160168201711D1               89825451200P3YK20171117000240SPEAKER ASM;ROOF              M IMCTM CM1    FTTL  07070IMKDC KA   PTB00015  K0                0900DES        000000000000 FUJITSU TEN (THAILAN                                                                                                                                            *G         20171102WMF1711022.TXT
MAKK7O160169201711D1               89828070100P3YK20171113000120SPEAKER ASM                   M IMCTM CM1    FTTL  07070IMKDC KA PTB  00004  K0                0900DES        000000000000 FUJITSU TEN (THAILAN                                                                                                                                            *G         20171102WMF1711022.TXT
MAKK7O160170201711D1               89828070100P3YK20171114000120SPEAKER ASM                   M IMCTM CM1    FTTL  07070IMKDC KA PTB  00004  K0                0900DES        000000000000 FUJITSU TEN (THAILAN                                                                                                                                            *G         20171102WMF1711022.TXT
MAKK7O160171201711D1               89828070100P3YK20171115000090SPEAKER ASM                   M IMCTM CM1    FTTL  07070IMKDC KA PTB  00004  K0                0900DES        000000000000 FUJITSU TEN (THAILAN                                                                                                                                            *G         20171102WMF1711022.TXT
MAKK7O160172201711D1               89828070100P3YK20171116000060SPEAKER ASM                   M IMCTM CM1    FTTL  07070IMKDC KA PTB  00004  K0                0900DES        000000000000 FUJITSU TEN (THAILAN                                                                                                                                            *G         20171102WMF1711022.TXT
MAKK7O160173201711D1               89828070100P3YK20171117000120SPEAKER ASM                   M IMCTM CM1    FTTL  07070IMKDC KA PTB  00004  K0                0900DES        000000000000 FUJITSU TEN (THAILAN                                                                                                                                            *G         20171102WMF1711022.TXT
MAKK7O160174201711D1               89828070200P3YK20171113000030SPEAKER ASM                   M IMCTM CM1    FTTL  07070IMKDC KA PTB  00005  K0                0900DES        000000000000 FUJITSU TEN (THAILAN                                                                                                                                            *G         20171102WMF1711022.TXT
MAKK7O160175201711D1               89828070200P3YK20171114000060SPEAKER ASM                   M IMCTM CM1    FTTL  07070IMKDC KA PTB  00005  K0                0900DES        000000000000 FUJITSU TEN (THAILAN                                                                                                                                            *G         20171102WMF1711022.TXT
MAKK7O160176201711D1               89828070200P3YK20171115000060SPEAKER ASM                   M IMCTM CM1    FTTL  07070IMKDC KA PTB  00005  K0                0900DES        000000000000 FUJITSU TEN (THAILAN                                                                                                                                            *G         20171102WMF1711022.TXT
MAKK7O160177201711D1               89828070200P3YK20171117000090SPEAKER ASM                   M IMCTM CM1    FTTL  07070IMKDC KA PTB  00005  K0                0900DES        000000000000 FUJITSU TEN (THAILAN                                                                                                                                            *G         20171102WMF1711022.TXT
MAKK7O160178201711D1               89828070300P3YK20171113000060SPEAKER ASM                   M IMCTM CM1    FTTL  07070IMKDC KA PTB  00015  K0                0900DES        000000000000 FUJITSU TEN (THAILAN                                                                                                                                            *G         20171102WMF1711022.TXT
MAKK7O160179201711D1               89828070300P3YK20171114000060SPEAKER ASM                   M IMCTM CM1    FTTL  07070IMKDC KA PTB  00015  K0                0900DES        000000000000 FUJITSU TEN (THAILAN                                                                                                                                            *G         20171102WMF1711022.TXT
MAKK7O160180201711D1               89828070300P3YK20171115000060SPEAKER ASM                   M IMCTM CM1    FTTL  07070IMKDC KA PTB  00015  K0                0900DES        000000000000 FUJITSU TEN (THAILAN                                                                                                                                            *G         20171102WMF1711022.TXT
MAKK7O160181201711D1               89828070300P3YK20171117000090SPEAKER ASM                   M IMCTM CM1    FTTL  07070IMKDC KA PTB  00015  K0                0900DES        000000000000 FUJITSU TEN (THAILAN                                                                                                                                            *G         20171102WMF1711022.TXT
