REC2017110720171107ISUZU                              25     
MDD6HN220468201711                D89821984430PT5620171110000030RADIO;AM/FM,CD                M IMCTM G9J311 FTTL  07070G/WAY G9 PTB  00005                    2300 GW        0000000000005FUJITSU TEN (THAILAN180LPAG0053053                                                                                                                              *          20171107WMF1711072.TXT
MDD6HN220469201711                D89828070100PV5620171110000060SPEAKER ASM                   M IMCTM G9B112 FTTL  07070G/WAY G9 PTB  00004                    1530 GW        0000000000005FUJITSU TEN (THAILAN180LPMG0003003                                                                                                                              *          20171107WMF1711072.TXT
MDD6HN220470201711                D89828070100PV5620171110000060SPEAKER ASM                   M IMCTM G9B112 FTTL  07070G/WAY G9 PTB  00004                    2100 GW        0000000000005FUJITSU TEN (THAILAN180LRNG0007007                                                                                                                              *          20171107WMF1711072.TXT
MDD6HN220471201711                D89828070100PV5620171110000120SPEAKER ASM                   M IMCTM G9B112 FTTL  07070G/WAY G9 PTB  00004                    2300 GW        0000000000005FUJITSU TEN (THAILAN180LPAG0053053180LRPG0005005                                                                                                                *          20171107WMF1711072.TXT
MDD6HN220472201711                D89828070100PV5620171111000060SPEAKER ASM                   M IMCTM G9B112 FTTL  07070G/WAY G9 PTB  00004                    0200 GW        0000000000005FUJITSU TEN (THAILAN180LRPG0006006                                                                                                                              *          20171107WMF1711072.TXT
MDD6HN220473201711                D89828070100PV5620171111000060SPEAKER ASM                   M IMCTM G9B112 FTTL  07070G/WAY G9 PTB  00004                    0330 GW        0000000000005FUJITSU TEN (THAILAN180LPCG0013013                                                                                                                              *          20171107WMF1711072.TXT
MDD6HN220474201711                D89828070100PV5620171111000060SPEAKER ASM                   M IMCTM G9B112 FTTL  07070G/WAY G9 PTB  00004                    0900 GW        0000000000005FUJITSU TEN (THAILAN180LRLG0027027                                                                                                                              *          20171107WMF1711072.TXT
MDD6HN220475201711                D89828070100PV5620171111000060SPEAKER ASM                   M IMCTM G9B112 FTTL  07070G/WAY G9 PTB  00004                    1100 GW        0000000000005FUJITSU TEN (THAILAN180LRHG0051051                                                                                                                              *          20171107WMF1711072.TXT
MDD6HN220476201711                D89828070100PV5620171111000060SPEAKER ASM                   M IMCTM G9B112 FTTL  07070G/WAY G9 PTB  00004                    1400 GW        0000000000005FUJITSU TEN (THAILAN180LPEG0005005                                                                                                                              *          20171107WMF1711072.TXT
MDD6HN220477201711                D89828070200PV5620171110000060SPEAKER ASM                   M IMCTM G9F132 FTTL  07070G/WAY G9 PTB  00005                    2100 GW        0000000000005FUJITSU TEN (THAILAN180LRNG0007007                                                                                                                              *          20171107WMF1711072.TXT
MDD6HN220478201711                D89828070200PV5620171110000060SPEAKER ASM                   M IMCTM G9F132 FTTL  07070G/WAY G9 PTB  00005                    2300 GW        0000000000005FUJITSU TEN (THAILAN180LRPG0005005                                                                                                                              *          20171107WMF1711072.TXT
MDD6HN220479201711                D89828070200PV5620171111000060SPEAKER ASM                   M IMCTM G9F132 FTTL  07070G/WAY G9 PTB  00005                    0200 GW        0000000000005FUJITSU TEN (THAILAN180LRPG0006006                                                                                                                              *          20171107WMF1711072.TXT
MDD6HN220480201711                D89828070200PV5620171111000060SPEAKER ASM                   M IMCTM G9F132 FTTL  07070G/WAY G9 PTB  00005                    0900 GW        0000000000005FUJITSU TEN (THAILAN180LRLG0027027                                                                                                                              *          20171107WMF1711072.TXT
MDD6HN220481201711                D89828070200PV5620171111000060SPEAKER ASM                   M IMCTM G9F132 FTTL  07070G/WAY G9 PTB  00005                    1100 GW        0000000000005FUJITSU TEN (THAILAN180LRHG0051051                                                                                                                              *          20171107WMF1711072.TXT
MDD6HN220482201711                D89828070300PT5620171110000060SPEAKER ASM                   M IMCTM G9JB34 FTTL  07070G/WAY G9 PTB  00015                    1530 GW        0000000000005FUJITSU TEN (THAILAN180LPMG0003003                                                                                                                              *          20171107WMF1711072.TXT
MDD6HN220483201711                D89828070300PT5620171110000060SPEAKER ASM                   M IMCTM G9JB34 FTTL  07070G/WAY G9 PTB  00015                    2100 GW        0000000000005FUJITSU TEN (THAILAN180LRNG0007007                                                                                                                              *          20171107WMF1711072.TXT
MDD6HN220484201711                D89828070300PT5620171110000060SPEAKER ASM                   M IMCTM G9JB34 FTTL  07070G/WAY G9 PTB  00015                    2300 GW        0000000000005FUJITSU TEN (THAILAN180LRPG0005005                                                                                                                              *          20171107WMF1711072.TXT
MDD6HN220485201711                D89828070300PT5620171111000060SPEAKER ASM                   M IMCTM G9JB34 FTTL  07070G/WAY G9 PTB  00015                    0200 GW        0000000000005FUJITSU TEN (THAILAN180LRPG0006006                                                                                                                              *          20171107WMF1711072.TXT
MDD6HN220486201711                D89828070300PT5620171111000060SPEAKER ASM                   M IMCTM G9JB34 FTTL  07070G/WAY G9 PTB  00015                    0330 GW        0000000000005FUJITSU TEN (THAILAN180LPCG0013013                                                                                                                              *          20171107WMF1711072.TXT
MDD6HN220487201711                D89828070300PT5620171111000060SPEAKER ASM                   M IMCTM G9JB34 FTTL  07070G/WAY G9 PTB  00015                    0900 GW        0000000000005FUJITSU TEN (THAILAN180LRLG0027027                                                                                                                              *          20171107WMF1711072.TXT
MDD6HN220488201711                D89828070300PT5620171111000060SPEAKER ASM                   M IMCTM G9JB34 FTTL  07070G/WAY G9 PTB  00015                    1100 GW        0000000000005FUJITSU TEN (THAILAN180LRHG0051051                                                                                                                              *          20171107WMF1711072.TXT
MDD6HN220489201711                D89828070300PT5620171111000060SPEAKER ASM                   M IMCTM G9JB34 FTTL  07070G/WAY G9 PTB  00015                    1400 GW        0000000000005FUJITSU TEN (THAILAN180LPEG0005005                                                                                                                              *          20171107WMF1711072.TXT
MDD6HN220490201711                D89831228300PT5620171111000030RADIO;AM/FM,CD                M IMCTM G9J311 FTTL  07070G/WAY G9 CPB  00003                    0330 GW        0000000000005FUJITSU TEN (THAILAN180LPCG0013013                                                                                                                              *          20171107WMF1711072.TXT
MDD6HN220491201711                D89831228300PT5620171111000030RADIO;AM/FM,CD                M IMCTM G9J311 FTTL  07070G/WAY G9 CPB  00003                    1400 GW        0000000000005FUJITSU TEN (THAILAN180LPEG0005005                                                                                                                              *          20171107WMF1711072.TXT
MDD6HN220492201711                D89848581500PT5620171111000030RADIO;AM/FM CD D              M IMCTM G9J213 FTTL  07070G/WAY G9 PTB  00003                    1100 GW        0000000000005FUJITSU TEN (THAILAN180LRHG0051051                                                                                                                              *          20171107WMF1711072.TXT
