REC2017112820171128ISUZU                              54     
MEDDHN800487000000                 89821984431PT1D20171201000030RADIO;AM/FM,CD                M IMCTM S5NC06 TNTH  07070IMCT  S5*PTB  00005  DC FROM FTTL   PC 0400 SR        000000000000 DENSO TEN (THAILAND)180LNEL0040040                                                                                                                               E         20171128 IMCT                IMCT                                                                                                                    WMF1711284.TXT
MEDDHN800488000000                 89821984431PT1D20171201000030RADIO;AM/FM,CD                M IMCTM S5NC06 TNTH  07070IMCT  S5*PTB  00005  DC FROM FTTL   PC 1300 SR        000000000000 DENSO TEN (THAILAND)180LRAL0050050                                                                                                                               E         20171128 IMCT                IMCT                                                                                                                    WMF1711284.TXT
MEDDHN800489000000                 89828070101PV4D20171201000060SPEAKER ASM                   M IMCTM S0FL05 TNTH  07070IMCT  S0 PTB  00004  DC FROM FTTL   PC 1300 SR        000000000000 DENSO TEN (THAILAND)180LRSU0017017                                                                                                                               E         20171128 IMCT                IMCT                                                                                                                    WMF1711284.TXT
MEDDHN800490000000                 89828070101PV1D20171201000060SPEAKER ASM                   M IMCTM S5MB11 TNTH  07070IMCT  S5 PTB  00004  DC FROM FTTL   PC 1300 SR        000000000000 DENSO TEN (THAILAND)180LNAL0016016                                                                                                                               E         20171128 IMCT                IMCT                                                                                                                    WMF1711284.TXT
MEDDHN800491000000                 89828070101PV1D20171201000060SPEAKER ASM                   M IMCTM S5MB11 TNTH  07070IMCT  S5 PTB  00004  DC FROM FTTL   PC 0400 SR        000000000000 DENSO TEN (THAILAND)180LNEL0040040                                                                                                                               E         20171128 IMCT                IMCT                                                                                                                    WMF1711284.TXT
MEDDHN800492000000                 89828070101PV1D20171201000060SPEAKER ASM                   M IMCTM S5MB11 TNTH  07070IMCT  S5 PTB  00004  DC FROM FTTL   PC 0230 SR        000000000000 DENSO TEN (THAILAND)180LPGL0103103                                                                                                                               E         20171128 IMCT                IMCT                                                                                                                    WMF1711284.TXT
MEDDHN800493000000                 89828070101PV1D20171201000060SPEAKER ASM                   M IMCTM S5MB11 TNTH  07070IMCT  S5 PTB  00004  DC FROM FTTL   PC 0830 SR        000000000000 DENSO TEN (THAILAND)180LPKL0024024                                                                                                                               E         20171128 IMCT                IMCT                                                                                                                    WMF1711284.TXT
MEDDHN800494000000                 89828070101PV1D20171201000060SPEAKER ASM                   M IMCTM S5MB11 TNTH  07070IMCT  S5 PTB  00004  DC FROM FTTL   PC 1030 SR        000000000000 DENSO TEN (THAILAND)180LPML0007007                                                                                                                               E         20171128 IMCT                IMCT                                                                                                                    WMF1711284.TXT
MEDDHN800495000000                 89828070101PV1D20171201000060SPEAKER ASM                   M IMCTM S5MB11 TNTH  07070IMCT  S5 PTB  00004  DC FROM FTTL   PC 1300 SR        000000000000 DENSO TEN (THAILAND)180LRAL0050050                                                                                                                               E         20171128 IMCT                IMCT                                                                                                                    WMF1711284.TXT
MEDDHN800496000000                 89828070201PV4D20171201000060SPEAKER ASM                   M IMCTM S0FR05 TNTH  07070IMCT  S0*PTB  00005  DC FROM FTTL   PC 1300 SR        000000000000 DENSO TEN (THAILAND)180LRSU0017017                                                                                                                               E         20171128 IMCT                IMCT                                                                                                                    WMF1711284.TXT
MEDDHN800497000000                 89828070301PT1D20171201000060SPEAKER ASM                   M IMCTM S5NB082TNTH  07070IMCT  S5 PTB  00015  DC FROM FTTL   PC 0230 SR        000000000000 DENSO TEN (THAILAND)180LPGL0103103                                                                                                                               E         20171128 IMCT                IMCT                                                                                                                    WMF1711284.TXT
MEDDHN800498000000                 89828070301PT1D20171201000060SPEAKER ASM                   M IMCTM S5NB082TNTH  07070IMCT  S5 PTB  00015  DC FROM FTTL   PC 0830 SR        000000000000 DENSO TEN (THAILAND)180LPKL0024024                                                                                                                               E         20171128 IMCT                IMCT                                                                                                                    WMF1711284.TXT
MEDDHN800499000000                 89828070301PT1D20171201000060SPEAKER ASM                   M IMCTM S5NB082TNTH  07070IMCT  S5 PTB  00015  DC FROM FTTL   PC 1030 SR        000000000000 DENSO TEN (THAILAND)180LPML0007007                                                                                                                               E         20171128 IMCT                IMCT                                                                                                                    WMF1711284.TXT
MEDDHN800500000000                 89828070301PT4D20171201000060SPEAKER ASM                   M IMCTM S9TS02 TNTH  07070IMCT  S9 PTB  00015  DC FROM FTTL   PC 1300 SR        000000000000 DENSO TEN (THAILAND)180LRSU0017017                                                                                                                               E         20171128 IMCT                IMCT                                                                                                                    WMF1711284.TXT
MEDDHN800501000000                 89831228301PT1D20171201000030RADIO;AM/FM,CD                M IMCTM S5NC06 TNTH  07070IMCT  S5 CPB  00003  DC FROM FTTL   PC 0230 SR        000000000000 DENSO TEN (THAILAND)180LPGL0103103                                                                                                                               E         20171128 IMCT                IMCT                                                                                                                    WMF1711284.TXT
MEDDHN800502000000                 89848581601PT1D20171201000030RADIO;AM/FM CD D              M IMCTM S5NC06 TNTH  07070IMCT  S5*PTB  00003  DC FROM FTTL   PC 0830 SR        000000000000 DENSO TEN (THAILAND)180LPKL0024024                                                                                                                               E         20171128 IMCT                IMCT                                                                                                                    WMF1711284.TXT
MEDUHN800077000000                 89828070101PT4U20171201000030SPEAKER ASM                   M IMCTM S0FL05 TNTH  07070IMCT  S0 PTB  00004  DC FROM FTTL   PC 1030 SR        000000000000 DENSO TEN (THAILAND)180LUEU0206206                                                                                                                               E         20171128 IMCT                IMCT                                                                                                                    WMF1711284.TXT
MEDUHN800078000000                 89828070101PT4U20171201000030SPEAKER ASM                   M IMCTM S0FL05 TNTH  07070IMCT  S0 PTB  00004  DC FROM FTTL   PC 1300 SR        000000000000 DENSO TEN (THAILAND)180LUJU0029029                                                                                                                               E         20171128 IMCT                IMCT                                                                                                                    WMF1711284.TXT
MEDUHN800079000000                 89828070101PT4U20171201000030SPEAKER ASM                   M IMCTM S0FL05 TNTH  07070IMCT  S0 PTB  00004  DC FROM FTTL   PC 0230 SR        000000000000 DENSO TEN (THAILAND)180LUKU0057057                                                                                                                               E         20171128 IMCT                IMCT                                                                                                                    WMF1711284.TXT
MEDUHN800080000000                 89828070201PV4U20171201000030SPEAKER ASM                   M IMCTM S0FR05 TNTH  07070IMCT  S0*PTB  00005  DC FROM FTTL   PC 1030 SR        000000000000 DENSO TEN (THAILAND)180LUEU0206206                                                                                                                               E         20171128 IMCT                IMCT                                                                                                                    WMF1711284.TXT
MEDUHN800081000000                 89828070201PV4U20171201000030SPEAKER ASM                   M IMCTM S0FR05 TNTH  07070IMCT  S0*PTB  00005  DC FROM FTTL   PC 1300 SR        000000000000 DENSO TEN (THAILAND)180LUJU0029029                                                                                                                               E         20171128 IMCT                IMCT                                                                                                                    WMF1711284.TXT
MEDUHN800082000000                 89828070201PV4U20171201000030SPEAKER ASM                   M IMCTM S0FR05 TNTH  07070IMCT  S0*PTB  00005  DC FROM FTTL   PC 0230 SR        000000000000 DENSO TEN (THAILAND)180LUKU0057057                                                                                                                               E         20171128 IMCT                IMCT                                                                                                                    WMF1711284.TXT
MEDUHN800083000000                 89828070301PT4U20171201000030SPEAKER ASM                   M IMCTM S9TS02 TNTH  07070IMCT  S9 PTB  00015  DC FROM FTTL   PC 1030 SR        000000000000 DENSO TEN (THAILAND)180LUEU0206206                                                                                                                               E         20171128 IMCT                IMCT                                                                                                                    WMF1711284.TXT
MEDUHN800084000000                 89828070301PT4U20171201000030SPEAKER ASM                   M IMCTM S9TS02 TNTH  07070IMCT  S9 PTB  00015  DC FROM FTTL   PC 1300 SR        000000000000 DENSO TEN (THAILAND)180LUJU0029029                                                                                                                               E         20171128 IMCT                IMCT                                                                                                                    WMF1711284.TXT
MEDUHN800085000000                 89828070301PT4U20171201000030SPEAKER ASM                   M IMCTM S9TS02 TNTH  07070IMCT  S9 PTB  00015  DC FROM FTTL   PC 0230 SR        000000000000 DENSO TEN (THAILAND)180LUKU0057057                                                                                                                               E         20171128 IMCT                IMCT                                                                                                                    WMF1711284.TXT
MEDUHN800086000000                 89848584201PT4U20171201000015RADIO;AM/FM CD D              M IMCTM S9CO001TNTH  07070IMCT  S9*PTB  00003  DC FROM FTTL   PC 1300 SR        000000000000 DENSO TEN (THAILAND)180LUJU0029029                                                                                                                               E         20171128 IMCT                IMCT                                                                                                                    WMF1711284.TXT
MED6HN800424000000                 89821984431PT5620171201000030RADIO;AM/FM,CD                M IMCTM G55000 TNTH  07070G/WAY G5*PTB  00005  DC FROM FTTL   PC 0330 GW        0000000000005DENSO TEN (THAILAND)180LPBG0005005                                                                                                                               E         20171128 IMCT                IMCT                                                                                                                    WMF1711284.TXT
MED6HN800425000000                 89828070101PV5620171201000060SPEAKER ASM                   M IMCTM G55000 TNTH  07070G/WAY G5 PTB  00004  DC FROM FTTL   PC 0330 GW        0000000000005DENSO TEN (THAILAND)180LPBG0005005                                                                                                                               E         20171128 IMCT                IMCT                                                                                                                    WMF1711284.TXT
MED6HN800426000000                 89828070101PV5620171201000060SPEAKER ASM                   M IMCTM G55000 TNTH  07070G/WAY G5 PTB  00004  DC FROM FTTL   PC 1100 GW        0000000000005DENSO TEN (THAILAND)180LPDG0001001                                                                                                                               E         20171128 IMCT                IMCT                                                                                                                    WMF1711284.TXT
MED6HN800427000000                 89828070101PV5620171201000060SPEAKER ASM                   M IMCTM G55000 TNTH  07070G/WAY G5 PTB  00004  DC FROM FTTL   PC 0200 GW        0000000000005DENSO TEN (THAILAND)180LPNG0005005                                                                                                                               E         20171128 IMCT                IMCT                                                                                                                    WMF1711284.TXT
MED6HN800428000000                 89828070101PV5620171201000060SPEAKER ASM                   M IMCTM G55000 TNTH  07070G/WAY G5 PTB  00004  DC FROM FTTL   PC 0900 GW        0000000000005DENSO TEN (THAILAND)180LREG0023023                                                                                                                               E         20171128 IMCT                IMCT                                                                                                                    WMF1711284.TXT
MED6HN800429000000                 89828070101PV5620171201000060SPEAKER ASM                   M IMCTM G55000 TNTH  07070G/WAY G5 PTB  00004  DC FROM FTTL   PC 0330 GW        0000000000005DENSO TEN (THAILAND)180LRLG0036036                                                                                                                               E         20171128 IMCT                IMCT                                                                                                                    WMF1711284.TXT
MED6HN800430000000                 89828070201PV5620171201000060SPEAKER ASM                   M IMCTM G55000 TNTH  07070G/WAY G5*PTB  00005  DC FROM FTTL   PC 0900 GW        0000000000005DENSO TEN (THAILAND)180LREG0023023                                                                                                                               E         20171128 IMCT                IMCT                                                                                                                    WMF1711284.TXT
MED6HN800431000000                 89828070201PV5620171201000060SPEAKER ASM                   M IMCTM G55000 TNTH  07070G/WAY G5*PTB  00005  DC FROM FTTL   PC 0330 GW        0000000000005DENSO TEN (THAILAND)180LRLG0036036                                                                                                                               E         20171128 IMCT                IMCT                                                                                                                    WMF1711284.TXT
MED6HN800432000000                 89828070301PT5620171201000060SPEAKER ASM                   M IMCTM G55000 TNTH  07070G/WAY G5 PTB  00015  DC FROM FTTL   PC 1100 GW        0000000000005DENSO TEN (THAILAND)180LPDG0001001                                                                                                                               E         20171128 IMCT                IMCT                                                                                                                    WMF1711284.TXT
MED6HN800433000000                 89828070301PT5620171201000060SPEAKER ASM                   M IMCTM G55000 TNTH  07070G/WAY G5 PTB  00015  DC FROM FTTL   PC 0200 GW        0000000000005DENSO TEN (THAILAND)180LPNG0005005                                                                                                                               E         20171128 IMCT                IMCT                                                                                                                    WMF1711284.TXT
MED6HN800434000000                 89828070301PT5620171201000060SPEAKER ASM                   M IMCTM G55000 TNTH  07070G/WAY G5 PTB  00015  DC FROM FTTL   PC 0900 GW        0000000000005DENSO TEN (THAILAND)180LREG0023023                                                                                                                               E         20171128 IMCT                IMCT                                                                                                                    WMF1711284.TXT
MED6HN800435000000                 89828070301PT5620171201000060SPEAKER ASM                   M IMCTM G55000 TNTH  07070G/WAY G5 PTB  00015  DC FROM FTTL   PC 0330 GW        0000000000005DENSO TEN (THAILAND)180LRLG0036036                                                                                                                               E         20171128 IMCT                IMCT                                                                                                                    WMF1711284.TXT
MED6HN800436000000                 89831228301PT5620171201000030RADIO;AM/FM,CD                M IMCTM G55000 TNTH  07070G/WAY G5 CPB  00003  DC FROM FTTL   PC 1100 GW        0000000000005DENSO TEN (THAILAND)180LPDG0001001                                                                                                                               E         20171128 IMCT                IMCT                                                                                                                    WMF1711284.TXT
MED6HN800437000000                 89831228401PT5620171201000030RADIO;AM/FM,CD                M IMCTM G55000 TNTH  07070G/WAY G5*CPB  00003  DC FROM FTTL   PC 0900 GW        0000000000005DENSO TEN (THAILAND)180LREG0023023                                                                                                                               E         20171128 IMCT                IMCT                                                                                                                    WMF1711284.TXT
MEEDHN800614000000                 89828070101PV1D20171201000030SPEAKER ASM                   M IMCTM S5MB11 TNTH  07070IMCT  S5 PTB  00004  DC FROM FTTL   PC 2100 SR        000000000000 DENSO TEN (THAILAND)17006ML0017017                                                                                                                               E         20171128 IMCT                IMCT                                                                                                                    WMF1711284.TXT
MEEDHN800615000000                 89828070101PV1D20171201000030SPEAKER ASM                   M IMCTM S5MB11 TNTH  07070IMCT  S5 PTB  00004  DC FROM FTTL   PC 1030 SR        000000000000 DENSO TEN (THAILAND)18007ZL0007007                                                                                                                               E         20171128 IMCT                IMCT                                                                                                                    WMF1711284.TXT
MEEDHN800616000000                 89828070101PV1D20171201000030SPEAKER ASM                   M IMCTM S5MB11 TNTH  07070IMCT  S5 PTB  00004  DC FROM FTTL   PC 1300 SR        000000000000 DENSO TEN (THAILAND)18007ZL0008008                                                                                                                               E         20171128 IMCT                IMCT                                                                                                                    WMF1711284.TXT
MEEDHN800617000000                 89828070101PV1D20171201000030SPEAKER ASM                   M IMCTM S5MB11 TNTH  07070IMCT  S5 PTB  00004  DC FROM FTTL   PC 2100 SR        000000000000 DENSO TEN (THAILAND)18010ZL0008008                                                                                                                               E         20171128 IMCT                IMCT                                                                                                                    WMF1711284.TXT
MEEDHN800618000000                 89828070101PV1D20171201000030SPEAKER ASM                   M IMCTM S5MB11 TNTH  07070IMCT  S5 PTB  00004  DC FROM FTTL   PC 2100 SR        000000000000 DENSO TEN (THAILAND)18010ZL0009009                                                                                                                               E         20171128 IMCT                IMCT                                                                                                                    WMF1711284.TXT
MEEUHN800236000000                 89828070101PT4U20171201000030SPEAKER ASM                   M IMCTM S0FL05 TNTH  07070IMCT  S0 PTB  00004  DC FROM FTTL   PC 0830 SR        000000000000 DENSO TEN (THAILAND)18026UU0010010                                                                                                                               E         20171128 IMCT                IMCT                                                                                                                    WMF1711284.TXT
MEEUHN800237000000                 89828070101PT4U20171201000030SPEAKER ASM                   M IMCTM S0FL05 TNTH  07070IMCT  S0 PTB  00004  DC FROM FTTL   PC 1600 SR        000000000000 DENSO TEN (THAILAND)18026UU0011011                                                                                                                               E         20171128 IMCT                IMCT                                                                                                                    WMF1711284.TXT
MEEUHN800238000000                 89828070101PT4U20171201000030SPEAKER ASM                   M IMCTM S0FL05 TNTH  07070IMCT  S0 PTB  00004  DC FROM FTTL   PC 0400 SR        000000000000 DENSO TEN (THAILAND)18078SU0298298                                                                                                                               E         20171128 IMCT                IMCT                                                                                                                    WMF1711284.TXT
MEEUHN800239000000                 89828070201PV4U20171201000030SPEAKER ASM                   M IMCTM S0FR05 TNTH  07070IMCT  S0*PTB  00005  DC FROM FTTL   PC 0830 SR        000000000000 DENSO TEN (THAILAND)18026UU0010010                                                                                                                               E         20171128 IMCT                IMCT                                                                                                                    WMF1711284.TXT
MEEUHN800240000000                 89828070201PV4U20171201000030SPEAKER ASM                   M IMCTM S0FR05 TNTH  07070IMCT  S0*PTB  00005  DC FROM FTTL   PC 1600 SR        000000000000 DENSO TEN (THAILAND)18026UU0011011                                                                                                                               E         20171128 IMCT                IMCT                                                                                                                    WMF1711284.TXT
MEEUHN800241000000                 89828070201PV4U20171201000030SPEAKER ASM                   M IMCTM S0FR05 TNTH  07070IMCT  S0*PTB  00005  DC FROM FTTL   PC 0400 SR        000000000000 DENSO TEN (THAILAND)18078SU0298298                                                                                                                               E         20171128 IMCT                IMCT                                                                                                                    WMF1711284.TXT
MEEUHN800242000000                 89828070301PT4U20171201000030SPEAKER ASM                   M IMCTM S9TS02 TNTH  07070IMCT  S9 PTB  00015  DC FROM FTTL   PC 0830 SR        000000000000 DENSO TEN (THAILAND)18026UU0010010                                                                                                                               E         20171128 IMCT                IMCT                                                                                                                    WMF1711284.TXT
MEEUHN800243000000                 89828070301PT4U20171201000030SPEAKER ASM                   M IMCTM S9TS02 TNTH  07070IMCT  S9 PTB  00015  DC FROM FTTL   PC 1600 SR        000000000000 DENSO TEN (THAILAND)18026UU0011011                                                                                                                               E         20171128 IMCT                IMCT                                                                                                                    WMF1711284.TXT
MEEUHN800244000000                 89828070301PT4U20171201000030SPEAKER ASM                   M IMCTM S9TS02 TNTH  07070IMCT  S9 PTB  00015  DC FROM FTTL   PC 0400 SR        000000000000 DENSO TEN (THAILAND)18078SU0298298                                                                                                                               E         20171128 IMCT                IMCT                                                                                                                    WMF1711284.TXT
