REC2017110320171103ISUZU                              30     
MDD6HN210821201711                D89821984430PT5620171109000030RADIO;AM/FM,CD                M IMCTM G9J311 FTTL  07070G/WAY G9 PTB  00005                    0200 GW        0000000000005FUJITSU TEN (THAILAN180LPAG0051051                                                                                                                              *          20171103WMF1711032.TXT
MDD6HN210822201711                D89828070100PV5620171108000060SPEAKER ASM                   M IMCTM G9B112 FTTL  07070G/WAY G9 PTB  00004                    1530 GW        0000000000005FUJITSU TEN (THAILAN180LRFG0012012                                                                                                                              *          20171103WMF1711032.TXT
MDD6HN210823201711                D89828070100PV5620171108000060SPEAKER ASM                   M IMCTM G9B112 FTTL  07070G/WAY G9 PTB  00004                    2100 GW        0000000000005FUJITSU TEN (THAILAN180LRHG0047047                                                                                                                              *          20171103WMF1711032.TXT
MDD6HN210824201711                D89828070100PV5620171108000120SPEAKER ASM                   M IMCTM G9B112 FTTL  07070G/WAY G9 PTB  00004                    2300 GW        0000000000005FUJITSU TEN (THAILAN180LPMG0002002180LRMG0021021                                                                                                                *          20171103WMF1711032.TXT
MDD6HN210825201711                D89828070100PV5620171109000060SPEAKER ASM                   M IMCTM G9B112 FTTL  07070G/WAY G9 PTB  00004                    0200 GW        0000000000005FUJITSU TEN (THAILAN180LPAG0051051                                                                                                                              *          20171103WMF1711032.TXT
MDD6HN210826201711                D89828070100PV5620171109000060SPEAKER ASM                   M IMCTM G9B112 FTTL  07070G/WAY G9 PTB  00004                    0330 GW        0000000000005FUJITSU TEN (THAILAN180LRMG0022022                                                                                                                              *          20171103WMF1711032.TXT
MDD6HN210827201711                D89828070100PV5620171109000060SPEAKER ASM                   M IMCTM G9B112 FTTL  07070G/WAY G9 PTB  00004                    0900 GW        0000000000005FUJITSU TEN (THAILAN180LRMG0023023                                                                                                                              *          20171103WMF1711032.TXT
MDD6HN210828201711                D89828070100PV5620171109000060SPEAKER ASM                   M IMCTM G9B112 FTTL  07070G/WAY G9 PTB  00004                    1100 GW        0000000000005FUJITSU TEN (THAILAN180LPCG0011011                                                                                                                              *          20171103WMF1711032.TXT
MDD6HN210829201711                D89828070100PV5620171109000060SPEAKER ASM                   M IMCTM G9B112 FTTL  07070G/WAY G9 PTB  00004                    1400 GW        0000000000005FUJITSU TEN (THAILAN180LRHG0048048                                                                                                                              *          20171103WMF1711032.TXT
MDD6HN210830201711                D89828070100PV5620171109000120SPEAKER ASM                   M IMCTM G9B112 FTTL  07070G/WAY G9 PTB  00004                    1530 GW        0000000000005FUJITSU TEN (THAILAN180LPGG0015015180LRLG0025025                                                                                                                *          20171103WMF1711032.TXT
MDD6HN210831201711                D89828070200PV5620171108000060SPEAKER ASM                   M IMCTM G9F132 FTTL  07070G/WAY G9 PTB  00005                    1530 GW        0000000000005FUJITSU TEN (THAILAN180LRFG0012012                                                                                                                              *          20171103WMF1711032.TXT
MDD6HN210832201711                D89828070200PV5620171108000060SPEAKER ASM                   M IMCTM G9F132 FTTL  07070G/WAY G9 PTB  00005                    2100 GW        0000000000005FUJITSU TEN (THAILAN180LRHG0047047                                                                                                                              *          20171103WMF1711032.TXT
MDD6HN210833201711                D89828070200PV5620171108000060SPEAKER ASM                   M IMCTM G9F132 FTTL  07070G/WAY G9 PTB  00005                    2300 GW        0000000000005FUJITSU TEN (THAILAN180LRMG0021021                                                                                                                              *          20171103WMF1711032.TXT
MDD6HN210834201711                D89828070200PV5620171109000060SPEAKER ASM                   M IMCTM G9F132 FTTL  07070G/WAY G9 PTB  00005                    0330 GW        0000000000005FUJITSU TEN (THAILAN180LRMG0022022                                                                                                                              *          20171103WMF1711032.TXT
MDD6HN210835201711                D89828070200PV5620171109000060SPEAKER ASM                   M IMCTM G9F132 FTTL  07070G/WAY G9 PTB  00005                    0900 GW        0000000000005FUJITSU TEN (THAILAN180LRMG0023023                                                                                                                              *          20171103WMF1711032.TXT
MDD6HN210836201711                D89828070200PV5620171109000060SPEAKER ASM                   M IMCTM G9F132 FTTL  07070G/WAY G9 PTB  00005                    1400 GW        0000000000005FUJITSU TEN (THAILAN180LRHG0048048                                                                                                                              *          20171103WMF1711032.TXT
MDD6HN210837201711                D89828070200PV5620171109000060SPEAKER ASM                   M IMCTM G9F132 FTTL  07070G/WAY G9 PTB  00005                    1530 GW        0000000000005FUJITSU TEN (THAILAN180LRLG0025025                                                                                                                              *          20171103WMF1711032.TXT
MDD6HN210838201711                D89828070300PT5620171108000060SPEAKER ASM                   M IMCTM G9JB34 FTTL  07070G/WAY G9 PTB  00015                    1530 GW        0000000000005FUJITSU TEN (THAILAN180LRFG0012012                                                                                                                              *          20171103WMF1711032.TXT
MDD6HN210839201711                D89828070300PT5620171108000060SPEAKER ASM                   M IMCTM G9JB34 FTTL  07070G/WAY G9 PTB  00015                    2100 GW        0000000000005FUJITSU TEN (THAILAN180LRHG0047047                                                                                                                              *          20171103WMF1711032.TXT
MDD6HN210840201711                D89828070300PT5620171108000120SPEAKER ASM                   M IMCTM G9JB34 FTTL  07070G/WAY G9 PTB  00015                    2300 GW        0000000000005FUJITSU TEN (THAILAN180LPMG0002002180LRMG0021021                                                                                                                *          20171103WMF1711032.TXT
MDD6HN210841201711                D89828070300PT5620171109000060SPEAKER ASM                   M IMCTM G9JB34 FTTL  07070G/WAY G9 PTB  00015                    0330 GW        0000000000005FUJITSU TEN (THAILAN180LRMG0022022                                                                                                                              *          20171103WMF1711032.TXT
MDD6HN210842201711                D89828070300PT5620171109000060SPEAKER ASM                   M IMCTM G9JB34 FTTL  07070G/WAY G9 PTB  00015                    0900 GW        0000000000005FUJITSU TEN (THAILAN180LRMG0023023                                                                                                                              *          20171103WMF1711032.TXT
MDD6HN210843201711                D89828070300PT5620171109000060SPEAKER ASM                   M IMCTM G9JB34 FTTL  07070G/WAY G9 PTB  00015                    1100 GW        0000000000005FUJITSU TEN (THAILAN180LPCG0011011                                                                                                                              *          20171103WMF1711032.TXT
MDD6HN210844201711                D89828070300PT5620171109000060SPEAKER ASM                   M IMCTM G9JB34 FTTL  07070G/WAY G9 PTB  00015                    1400 GW        0000000000005FUJITSU TEN (THAILAN180LRHG0048048                                                                                                                              *          20171103WMF1711032.TXT
MDD6HN210845201711                D89828070300PT5620171109000120SPEAKER ASM                   M IMCTM G9JB34 FTTL  07070G/WAY G9 PTB  00015                    1530 GW        0000000000005FUJITSU TEN (THAILAN180LPGG0015015180LRLG0025025                                                                                                                *          20171103WMF1711032.TXT
MDD6HN210846201711                D89831228300PT5620171109000030RADIO;AM/FM,CD                M IMCTM G9J311 FTTL  07070G/WAY G9 CPB  00003                    1100 GW        0000000000005FUJITSU TEN (THAILAN180LPCG0011011                                                                                                                              *          20171103WMF1711032.TXT
MDD6HN210847201711                D89831228300PT5620171109000030RADIO;AM/FM,CD                M IMCTM G9J311 FTTL  07070G/WAY G9 CPB  00003                    1530 GW        0000000000005FUJITSU TEN (THAILAN180LPGG0015015                                                                                                                              *          20171103WMF1711032.TXT
MDD6HN210848201711                D89831228400PT5620171108000030RADIO;AM/FM,CD                M IMCTM G9J311 FTTL  07070G/WAY G9 CPB  00003                    1530 GW        0000000000005FUJITSU TEN (THAILAN180LRFG0012012                                                                                                                              *          20171103WMF1711032.TXT
MDD6HN210849201711                D89848581500PT5620171108000030RADIO;AM/FM CD D              M IMCTM G9J213 FTTL  07070G/WAY G9 PTB  00003                    2100 GW        0000000000005FUJITSU TEN (THAILAN180LRHG0047047                                                                                                                              *          20171103WMF1711032.TXT
MDD6HN210850201711                D89848581500PT5620171109000030RADIO;AM/FM CD D              M IMCTM G9J213 FTTL  07070G/WAY G9 PTB  00003                    1400 GW        0000000000005FUJITSU TEN (THAILAN180LRHG0048048                                                                                                                              *          20171103WMF1711032.TXT
