REC2017112820171128ISUZU                              54     
MGDDHN306337201712                D89821984430PT1D20171201000030RADIO;AM/FM,CD                M       S5NC06 FTTL  07070IMCT  S5 PTB  000051                   0400 SR        000000000000 FUJITSU TEN (THAILAN180LNEL0040040                                                                                                                                         20171128 IMCT                IMCT                                                                                                                    WMF1711284.TXT
MGDDHN306338201712                D89821984430PT1D20171201000030RADIO;AM/FM,CD                M       S5NC06 FTTL  07070IMCT  S5 PTB  000051                   1300 SR        000000000000 FUJITSU TEN (THAILAN180LRAL0050050                                                                                                                                         20171128 IMCT                IMCT                                                                                                                    WMF1711284.TXT
MGDDHN306340201712                D89828070100PV1D20171201000060SPEAKER ASM                   M       S55000 FTTL  07070IMCT  S5 PTB  000041                   0230 SR        000000000000 FUJITSU TEN (THAILAN180LPGL0103103                                                                                                                                         20171128 IMCT                IMCT                                                                                                                    WMF1711284.TXT
MGDDHN306341201712                D89828070100PV1D20171201000060SPEAKER ASM                   M       S55000 FTTL  07070IMCT  S5 PTB  000041                   0400 SR        000000000000 FUJITSU TEN (THAILAN180LNEL0040040                                                                                                                                         20171128 IMCT                IMCT                                                                                                                    WMF1711284.TXT
MGDDHN306342201712                D89828070100PV1D20171201000060SPEAKER ASM                   M       S55000 FTTL  07070IMCT  S5 PTB  000041                   0830 SR        000000000000 FUJITSU TEN (THAILAN180LPKL0024024                                                                                                                                         20171128 IMCT                IMCT                                                                                                                    WMF1711284.TXT
MGDDHN306343201712                D89828070100PV1D20171201000060SPEAKER ASM                   M       S55000 FTTL  07070IMCT  S5 PTB  000041                   1030 SR        000000000000 FUJITSU TEN (THAILAN180LPML0007007                                                                                                                                         20171128 IMCT                IMCT                                                                                                                    WMF1711284.TXT
MGDDHN306344201712                D89828070100PV1D20171201000120SPEAKER ASM                   M       S55000 FTTL  07070IMCT  S5 PTB  000041                   1300 SR        000000000000 FUJITSU TEN (THAILAN180LNAL0016016180LRAL0050050                                                                                                                           20171128 IMCT                IMCT                                                                                                                    WMF1711284.TXT
MGDDHN306345201712                D89828070100PV4D20171201000060SPEAKER ASM                   M       S22000 FTTL  07070IMCT  S2 PTB  000041                   1300 SR        000000000000 FUJITSU TEN (THAILAN180LRSU0017017                                                                                                                                         20171128 IMCT                IMCT                                                                                                                    WMF1711284.TXT
MGDDHN306346201712                D89828070200PV4D20171201000060SPEAKER ASM                   M       S22000 FTTL  07070IMCT  S2 PTB  000051                   1300 SR        000000000000 FUJITSU TEN (THAILAN180LRSU0017017                                                                                                                                         20171128 IMCT                IMCT                                                                                                                    WMF1711284.TXT
MGDDHN306347201712                D89828070300PT1D20171201000060SPEAKER ASM                   M       S55000 FTTL  07070IMCT  S5 PTB  000151                   0230 SR        000000000000 FUJITSU TEN (THAILAN180LPGL0103103                                                                                                                                         20171128 IMCT                IMCT                                                                                                                    WMF1711284.TXT
MGDDHN306348201712                D89828070300PT1D20171201000060SPEAKER ASM                   M       S55000 FTTL  07070IMCT  S5 PTB  000151                   0830 SR        000000000000 FUJITSU TEN (THAILAN180LPKL0024024                                                                                                                                         20171128 IMCT                IMCT                                                                                                                    WMF1711284.TXT
MGDDHN306349201712                D89828070300PT1D20171201000060SPEAKER ASM                   M       S55000 FTTL  07070IMCT  S5 PTB  000151                   1030 SR        000000000000 FUJITSU TEN (THAILAN180LPML0007007                                                                                                                                         20171128 IMCT                IMCT                                                                                                                    WMF1711284.TXT
MGDDHN306350201712                D89828070300PT4D20171201000060SPEAKER ASM                   M       S22000 FTTL  07070IMCT  S2 PTB  000151                   1300 SR        000000000000 FUJITSU TEN (THAILAN180LRSU0017017                                                                                                                                         20171128 IMCT                IMCT                                                                                                                    WMF1711284.TXT
MGDDHN306351201712                D89831228300PT1D20171201000030RADIO;AM/FM,CD                M       S5NC06 FTTL  07070IMCT  S5 CPB  000031                   0230 SR        000000000000 FUJITSU TEN (THAILAN180LPGL0103103                                                                                                                                         20171128 IMCT                IMCT                                                                                                                    WMF1711284.TXT
MGDDHN306352201712                D89848581600PT1D20171201000030RADIO;AM/FM CD D              M       S5NC06 FTTL  07070IMCT  S5 PTB  000031                   0830 SR        000000000000 FUJITSU TEN (THAILAN180LPKL0024024                                                                                                                                         20171128 IMCT                IMCT                                                                                                                    WMF1711284.TXT
MEDDHN800484000000                 89828070100PV1D20171130000001SPEAKER ASM                   M IMCTM S55000 FTTL  07070IMCT  S5 PTB  00004  WM A-FTTL-01SP1AL20800 SR        000000000000 FUJITSU TEN (THAILAN180LPJL0006006                                                                                                                              *E         20171128 IMCT                IMCT                                                                                                                    WMF1711284.TXT
MGDUHN248760201712                D89828070100PT4U20171201000030SPEAKER ASM                   M       S0FL05 FTTL  07070IMCT  S0 PTB  000041                   0230 SR        000000000000 FUJITSU TEN (THAILAN180LUKU0057057                                                                                                                                         20171128 IMCT                IMCT                                                                                                                    WMF1711284.TXT
MGDUHN248761201712                D89828070100PT4U20171201000030SPEAKER ASM                   M       S0FL05 FTTL  07070IMCT  S0 PTB  000041                   1030 SR        000000000000 FUJITSU TEN (THAILAN180LUEU0206206                                                                                                                                         20171128 IMCT                IMCT                                                                                                                    WMF1711284.TXT
MGDUHN248762201712                D89828070100PT4U20171201000030SPEAKER ASM                   M       S0FL05 FTTL  07070IMCT  S0 PTB  000041                   1300 SR        000000000000 FUJITSU TEN (THAILAN180LUJU0029029                                                                                                                                         20171128 IMCT                IMCT                                                                                                                    WMF1711284.TXT
MGDUHN248763201712                D89828070200PV4U20171201000030SPEAKER ASM                   M       S0FR05 FTTL  07070IMCT  S0 PTB  000051                   0230 SR        000000000000 FUJITSU TEN (THAILAN180LUKU0057057                                                                                                                                         20171128 IMCT                IMCT                                                                                                                    WMF1711284.TXT
MGDUHN248764201712                D89828070200PV4U20171201000030SPEAKER ASM                   M       S0FR05 FTTL  07070IMCT  S0 PTB  000051                   1030 SR        000000000000 FUJITSU TEN (THAILAN180LUEU0206206                                                                                                                                         20171128 IMCT                IMCT                                                                                                                    WMF1711284.TXT
MGDUHN248765201712                D89828070200PV4U20171201000030SPEAKER ASM                   M       S0FR05 FTTL  07070IMCT  S0 PTB  000051                   1300 SR        000000000000 FUJITSU TEN (THAILAN180LUJU0029029                                                                                                                                         20171128 IMCT                IMCT                                                                                                                    WMF1711284.TXT
MGDUHN248766201712                D89828070300PT4U20171201000030SPEAKER ASM                   M       S9TS02 FTTL  07070IMCT  S9 PTB  000151                   0230 SR        000000000000 FUJITSU TEN (THAILAN180LUKU0057057                                                                                                                                         20171128 IMCT                IMCT                                                                                                                    WMF1711284.TXT
MGDUHN248767201712                D89828070300PT4U20171201000030SPEAKER ASM                   M       S9TS02 FTTL  07070IMCT  S9 PTB  000151                   1030 SR        000000000000 FUJITSU TEN (THAILAN180LUEU0206206                                                                                                                                         20171128 IMCT                IMCT                                                                                                                    WMF1711284.TXT
MGDUHN248768201712                D89828070300PT4U20171201000030SPEAKER ASM                   M       S9TS02 FTTL  07070IMCT  S9 PTB  000151                   1300 SR        000000000000 FUJITSU TEN (THAILAN180LUJU0029029                                                                                                                                         20171128 IMCT                IMCT                                                                                                                    WMF1711284.TXT
MGDUHN248769201712                D89848584200PT4U20171201000015RADIO;AM/FM CD D              M       S9CO001FTTL  07070IMCT  S9 PTB  000031                   1300 SR        000000000000 FUJITSU TEN (THAILAN180LUJU0029029                                                                                                                                         20171128 IMCT                IMCT                                                                                                                    WMF1711284.TXT
MGD6HN297607201712                D89821984430PT5620171201000030RADIO;AM/FM,CD                M       G9J311 FTTL  07070G/WAY G9 PTB  000051                   0330 GW        000000000000 FUJITSU TEN (THAILAN180LPBG0005005                                                                                                                                         20171128 IMCT                IMCT                                                                                                                    WMF1711284.TXT
MGD6HN297610201712                D89828070100PV5620171201000060SPEAKER ASM                   M       G9B112 FTTL  07070G/WAY G9 PTB  000041                   0200 GW        000000000000 FUJITSU TEN (THAILAN180LPNG0005005                                                                                                                                         20171128 IMCT                IMCT                                                                                                                    WMF1711284.TXT
MGD6HN297611201712                D89828070100PV5620171201000120SPEAKER ASM                   M       G9B112 FTTL  07070G/WAY G9 PTB  000041                   0330 GW        000000000000 FUJITSU TEN (THAILAN180LPBG0005005180LRLG0036036                                                                                                                           20171128 IMCT                IMCT                                                                                                                    WMF1711284.TXT
MGD6HN297612201712                D89828070100PV5620171201000060SPEAKER ASM                   M       G9B112 FTTL  07070G/WAY G9 PTB  000041                   0900 GW        000000000000 FUJITSU TEN (THAILAN180LREG0023023                                                                                                                                         20171128 IMCT                IMCT                                                                                                                    WMF1711284.TXT
MGD6HN297613201712                D89828070100PV5620171201000060SPEAKER ASM                   M       G9B112 FTTL  07070G/WAY G9 PTB  000041                   1100 GW        000000000000 FUJITSU TEN (THAILAN180LPDG0001001                                                                                                                                         20171128 IMCT                IMCT                                                                                                                    WMF1711284.TXT
MGD6HN297615201712                D89828070200PV5620171201000060SPEAKER ASM                   M       G9F132 FTTL  07070G/WAY G9 PTB  000051                   0330 GW        000000000000 FUJITSU TEN (THAILAN180LRLG0036036                                                                                                                                         20171128 IMCT                IMCT                                                                                                                    WMF1711284.TXT
MGD6HN297616201712                D89828070200PV5620171201000060SPEAKER ASM                   M       G9F132 FTTL  07070G/WAY G9 PTB  000051                   0900 GW        000000000000 FUJITSU TEN (THAILAN180LREG0023023                                                                                                                                         20171128 IMCT                IMCT                                                                                                                    WMF1711284.TXT
MGD6HN297619201712                D89828070300PT5620171201000060SPEAKER ASM                   M       G9JB34 FTTL  07070G/WAY G9 PTB  000151                   0200 GW        000000000000 FUJITSU TEN (THAILAN180LPNG0005005                                                                                                                                         20171128 IMCT                IMCT                                                                                                                    WMF1711284.TXT
MGD6HN297620201712                D89828070300PT5620171201000060SPEAKER ASM                   M       G9JB34 FTTL  07070G/WAY G9 PTB  000151                   0330 GW        000000000000 FUJITSU TEN (THAILAN180LRLG0036036                                                                                                                                         20171128 IMCT                IMCT                                                                                                                    WMF1711284.TXT
MGD6HN297621201712                D89828070300PT5620171201000060SPEAKER ASM                   M       G9JB34 FTTL  07070G/WAY G9 PTB  000151                   0900 GW        000000000000 FUJITSU TEN (THAILAN180LREG0023023                                                                                                                                         20171128 IMCT                IMCT                                                                                                                    WMF1711284.TXT
MGD6HN297622201712                D89828070300PT5620171201000060SPEAKER ASM                   M       G9JB34 FTTL  07070G/WAY G9 PTB  000151                   1100 GW        000000000000 FUJITSU TEN (THAILAN180LPDG0001001                                                                                                                                         20171128 IMCT                IMCT                                                                                                                    WMF1711284.TXT
MGD6HN297624201712                D89831228300PT5620171201000030RADIO;AM/FM,CD                M       G9J311 FTTL  07070G/WAY G9 CPB  000031                   1100 GW        000000000000 FUJITSU TEN (THAILAN180LPDG0001001                                                                                                                                         20171128 IMCT                IMCT                                                                                                                    WMF1711284.TXT
MGD6HN297626201712                D89831228400PT5620171201000030RADIO;AM/FM,CD                M       G9J311 FTTL  07070G/WAY G9 CPB  000031                   0900 GW        000000000000 FUJITSU TEN (THAILAN180LREG0023023                                                                                                                                         20171128 IMCT                IMCT                                                                                                                    WMF1711284.TXT
MGEDHN277109201712                D89828070100PV1D20171201000030SPEAKER ASM                   M       S55000 FTTL  07070IMCT  S5 PTB  000041                   1030 SR        000000000000 FUJITSU TEN (THAILAN18007ZL0007007                                                                                                                                         20171128 IMCT                IMCT                                                                                                                    WMF1711284.TXT
MGEDHN277110201712                D89828070100PV1D20171201000030SPEAKER ASM                   M       S55000 FTTL  07070IMCT  S5 PTB  000041                   1300 SR        000000000000 FUJITSU TEN (THAILAN18007ZL0008008                                                                                                                                         20171128 IMCT                IMCT                                                                                                                    WMF1711284.TXT
MGEDHN277111201712                D89828070100PV1D20171201000090SPEAKER ASM                   M       S55000 FTTL  07070IMCT  S5 PTB  000041                   2100 SR        000000000000 FUJITSU TEN (THAILAN17006ML001701718010ZL0008009                                                                                                                           20171128 IMCT                IMCT                                                                                                                    WMF1711284.TXT
MGEUHN283472201712                D89828070100PT4U20171201000030SPEAKER ASM                   M       S0FL05 FTTL  07070IMCT  S0 PTB  000041                   0400 SR        000000000000 FUJITSU TEN (THAILAN18078SU0298298                                                                                                                                         20171128 IMCT                IMCT                                                                                                                    WMF1711284.TXT
MGEUHN283473201712                D89828070100PT4U20171201000030SPEAKER ASM                   M       S0FL05 FTTL  07070IMCT  S0 PTB  000041                   0830 SR        000000000000 FUJITSU TEN (THAILAN18026UU0010010                                                                                                                                         20171128 IMCT                IMCT                                                                                                                    WMF1711284.TXT
MGEUHN283474201712                D89828070100PT4U20171201000030SPEAKER ASM                   M       S0FL05 FTTL  07070IMCT  S0 PTB  000041                   1600 SR        000000000000 FUJITSU TEN (THAILAN18026UU0011011                                                                                                                                         20171128 IMCT                IMCT                                                                                                                    WMF1711284.TXT
MGEUHN283476201712                D89828070200PV4U20171201000030SPEAKER ASM                   M       S0FR05 FTTL  07070IMCT  S0 PTB  000051                   0400 SR        000000000000 FUJITSU TEN (THAILAN18078SU0298298                                                                                                                                         20171128 IMCT                IMCT                                                                                                                    WMF1711284.TXT
MGEUHN283477201712                D89828070200PV4U20171201000030SPEAKER ASM                   M       S0FR05 FTTL  07070IMCT  S0 PTB  000051                   0830 SR        000000000000 FUJITSU TEN (THAILAN18026UU0010010                                                                                                                                         20171128 IMCT                IMCT                                                                                                                    WMF1711284.TXT
MGEUHN283478201712                D89828070200PV4U20171201000030SPEAKER ASM                   M       S0FR05 FTTL  07070IMCT  S0 PTB  000051                   1600 SR        000000000000 FUJITSU TEN (THAILAN18026UU0011011                                                                                                                                         20171128 IMCT                IMCT                                                                                                                    WMF1711284.TXT
MGEUHN283480201712                D89828070300PT4U20171201000030SPEAKER ASM                   M       S9TS02 FTTL  07070IMCT  S9 PTB  000151                   0400 SR        000000000000 FUJITSU TEN (THAILAN18078SU0298298                                                                                                                                         20171128 IMCT                IMCT                                                                                                                    WMF1711284.TXT
MGEUHN283481201712                D89828070300PT4U20171201000030SPEAKER ASM                   M       S9TS02 FTTL  07070IMCT  S9 PTB  000151                   0830 SR        000000000000 FUJITSU TEN (THAILAN18026UU0010010                                                                                                                                         20171128 IMCT                IMCT                                                                                                                    WMF1711284.TXT
MGEUHN283482201712                D89828070300PT4U20171201000030SPEAKER ASM                   M       S9TS02 FTTL  07070IMCT  S9 PTB  000151                   1600 SR        000000000000 FUJITSU TEN (THAILAN18026UU0011011                                                                                                                                         20171128 IMCT                IMCT                                                                                                                    WMF1711284.TXT
MHKK7N083186201711D1               89825451200P3YK20171130000060SPEAKER ASM;ROOF              M IMCTM CM1    FTTL  07070IMKDC KA   PTB00015 CK0                1400DES        000000000000 FUJITSU TEN (THAILAN                                                                                                                                            *G 2017120100000000 IMCT                IMCT                                                                                                                    WMF1711284.TXT
MHKK7N083191201711D1               89828070100P3YK20171130000180SPEAKER ASM                   M IMCTM CM1    FTTL  07070IMKDC KA PTB  00004 CK0                1400DES        000000000000 FUJITSU TEN (THAILAN                                                                                                                                            *G 2017120100000000 IMCT                IMCT                                                                                                                    WMF1711284.TXT
MHKK7N083199201711D1               89828070300P3YK20171130000030SPEAKER ASM                   M IMCTM CM1    FTTL  07070IMKDC KA PTB  00015 CK0                1400DES        000000000000 FUJITSU TEN (THAILAN                                                                                                                                            *G 2017120100000000 IMCT                IMCT                                                                                                                    WMF1711284.TXT
