REC2017110720171107ISUZU                              51     
MDDDHN222078201711                D89821984430PT1D20171110000030RADIO;AM/FM,CD                M IMCTM S5NC06 FTTL  07070IMCT  S5 PTB  00005                    2230 SR        000000000000 FUJITSU TEN (THAILAN180LNGL0023023                                                                                                                              *          20171107WMF1711074.TXT
MDDDHN222079201711                D89821984430PT1D20171111000030RADIO;AM/FM,CD                M IMCTM S5NC06 FTTL  07070IMCT  S5 PTB  00005                    0830 SR        000000000000 FUJITSU TEN (THAILAN180LRAL0015015                                                                                                                              *          20171107WMF1711074.TXT
MDDDHN222080201711                D89821984430PT1D20171111000030RADIO;AM/FM,CD                M IMCTM S5NC06 FTTL  07070IMCT  S5 PTB  00005                    1030 SR        000000000000 FUJITSU TEN (THAILAN180LNHL0009009                                                                                                                              *          20171107WMF1711074.TXT
MDDDHN222081201711                D89821984430PT1D20171111000030RADIO;AM/FM,CD                M IMCTM S5NC06 FTTL  07070IMCT  S5 PTB  00005                    1300 SR        000000000000 FUJITSU TEN (THAILAN180LRAL0016016                                                                                                                              *          20171107WMF1711074.TXT
MDDDHN222082201711                D89821984430PT1D20171111000030RADIO;AM/FM,CD                M IMCTM S5NC06 FTTL  07070IMCT  S5 PTB  00005                    2100 SR        000000000000 FUJITSU TEN (THAILAN180LPAL0008008                                                                                                                              *          20171107WMF1711074.TXT
MDDDHN222083201711                D89828070100PV1D20171110000060SPEAKER ASM                   M IMCTM S5MB11 FTTL  07070IMCT  S5 PTB  00004                    2230 SR        000000000000 FUJITSU TEN (THAILAN180LNGL0023023                                                                                                                              *          20171107WMF1711074.TXT
MDDDHN222084201711                D89828070100PV1D20171111000120SPEAKER ASM                   M IMCTM S5MB11 FTTL  07070IMCT  S5 PTB  00004                    0830 SR        000000000000 FUJITSU TEN (THAILAN180LPGL0067067180LRAL0015015                                                                                                                *          20171107WMF1711074.TXT
MDDDHN222085201711                D89828070100PV1D20171111000060SPEAKER ASM                   M IMCTM S5MB11 FTTL  07070IMCT  S5 PTB  00004                    1030 SR        000000000000 FUJITSU TEN (THAILAN180LNHL0009009                                                                                                                              *          20171107WMF1711074.TXT
MDDDHN222086201711                D89828070100PV1D20171111000120SPEAKER ASM                   M IMCTM S5MB11 FTTL  07070IMCT  S5 PTB  00004                    1300 SR        000000000000 FUJITSU TEN (THAILAN180LNBL0007007180LRAL0016016                                                                                                                *          20171107WMF1711074.TXT
MDDDHN222087201711                D89828070100PV1D20171111000060SPEAKER ASM                   M IMCTM S5MB11 FTTL  07070IMCT  S5 PTB  00004                    1600 SR        000000000000 FUJITSU TEN (THAILAN180LPGL0068068                                                                                                                              *          20171107WMF1711074.TXT
MDDDHN222088201711                D89828070100PV1D20171111000060SPEAKER ASM                   M IMCTM S5MB11 FTTL  07070IMCT  S5 PTB  00004                    2100 SR        000000000000 FUJITSU TEN (THAILAN180LPAL0008008                                                                                                                              *          20171107WMF1711074.TXT
MDDDHN222089201711                D89828070300PT1D20171111000060SPEAKER ASM                   M IMCTM S5NB082FTTL  07070IMCT  S5 PTB  00015                    0830 SR        000000000000 FUJITSU TEN (THAILAN180LPGL0067067                                                                                                                              *          20171107WMF1711074.TXT
MDDDHN222090201711                D89828070300PT1D20171111000060SPEAKER ASM                   M IMCTM S5NB082FTTL  07070IMCT  S5 PTB  00015                    1600 SR        000000000000 FUJITSU TEN (THAILAN180LPGL0068068                                                                                                                              *          20171107WMF1711074.TXT
MDDDHN222091201711                D89831228300PT1D20171111000030RADIO;AM/FM,CD                M IMCTM S5NC06 FTTL  07070IMCT  S5 CPB  00003                    0830 SR        000000000000 FUJITSU TEN (THAILAN180LPGL0067067                                                                                                                              *          20171107WMF1711074.TXT
MDDDHN222092201711                D89831228300PT1D20171111000030RADIO;AM/FM,CD                M IMCTM S5NC06 FTTL  07070IMCT  S5 CPB  00003                    1600 SR        000000000000 FUJITSU TEN (THAILAN180LPGL0068068                                                                                                                              *          20171107WMF1711074.TXT
MDDUHN210188201711                D89828070100PT4U20171111000030SPEAKER ASM                   M IMCTM S0FL05 FTTL  07070IMCT  S0 PTB  00004                    0230 SR        000000000000 FUJITSU TEN (THAILAN180LUJU0019019                                                                                                                              *          20171107WMF1711074.TXT
MDDUHN210189201711                D89828070100PT4U20171111000030SPEAKER ASM                   M IMCTM S0FL05 FTTL  07070IMCT  S0 PTB  00004                    1300 SR        000000000000 FUJITSU TEN (THAILAN180LUJU0020020                                                                                                                              *          20171107WMF1711074.TXT
MDDUHN210190201711                D89828070100PT4U20171111000030SPEAKER ASM                   M IMCTM S0FL05 FTTL  07070IMCT  S0 PTB  00004                    2100 SR        000000000000 FUJITSU TEN (THAILAN180LUKU0037037                                                                                                                              *          20171107WMF1711074.TXT
MDDUHN210191201711                D89828070200PV4U20171111000030SPEAKER ASM                   M IMCTM S0FR05 FTTL  07070IMCT  S0 PTB  00005                    0230 SR        000000000000 FUJITSU TEN (THAILAN180LUJU0019019                                                                                                                              *          20171107WMF1711074.TXT
MDDUHN210192201711                D89828070200PV4U20171111000030SPEAKER ASM                   M IMCTM S0FR05 FTTL  07070IMCT  S0 PTB  00005                    1300 SR        000000000000 FUJITSU TEN (THAILAN180LUJU0020020                                                                                                                              *          20171107WMF1711074.TXT
MDDUHN210193201711                D89828070200PV4U20171111000030SPEAKER ASM                   M IMCTM S0FR05 FTTL  07070IMCT  S0 PTB  00005                    2100 SR        000000000000 FUJITSU TEN (THAILAN180LUKU0037037                                                                                                                              *          20171107WMF1711074.TXT
MDDUHN210194201711                D89828070300PT4U20171111000030SPEAKER ASM                   M IMCTM S9TS02 FTTL  07070IMCT  S9 PTB  00015                    0230 SR        000000000000 FUJITSU TEN (THAILAN180LUJU0019019                                                                                                                              *          20171107WMF1711074.TXT
MDDUHN210195201711                D89828070300PT4U20171111000030SPEAKER ASM                   M IMCTM S9TS02 FTTL  07070IMCT  S9 PTB  00015                    1300 SR        000000000000 FUJITSU TEN (THAILAN180LUJU0020020                                                                                                                              *          20171107WMF1711074.TXT
MDDUHN210196201711                D89828070300PT4U20171111000030SPEAKER ASM                   M IMCTM S9TS02 FTTL  07070IMCT  S9 PTB  00015                    2100 SR        000000000000 FUJITSU TEN (THAILAN180LUKU0037037                                                                                                                              *          20171107WMF1711074.TXT
MDDUHN210197201711                D89848584200PT4U20171111000015RADIO;AM/FM CD D              M IMCTM S9CO001FTTL  07070IMCT  S9 PTB  00003                    0230 SR        000000000000 FUJITSU TEN (THAILAN180LUJU0019019                                                                                                                              *          20171107WMF1711074.TXT
MDDUHN210198201711                D89848584200PT4U20171111000015RADIO;AM/FM CD D              M IMCTM S9CO001FTTL  07070IMCT  S9 PTB  00003                    1300 SR        000000000000 FUJITSU TEN (THAILAN180LUJU0020020                                                                                                                              *          20171107WMF1711074.TXT
MDEDHN217382201711                D89828070100PV1D20171110000060SPEAKER ASM                   M IMCTM S5MB11 FTTL  07070IMCT  S5 PTB  00004                    2230 SR        000000000000 FUJITSU TEN (THAILAN17041PL0065066                                                                                                                              *          20171107WMF1711074.TXT
MDEDHN217383201711                D89828070100PV1D20171111000030SPEAKER ASM                   M IMCTM S5MB11 FTTL  07070IMCT  S5 PTB  00004                    0230 SR        000000000000 FUJITSU TEN (THAILAN17075PL0048048                                                                                                                              *          20171107WMF1711074.TXT
MDEDHN217384201711                D89828070100PV1D20171111000090SPEAKER ASM                   M IMCTM S5MB11 FTTL  07070IMCT  S5 PTB  00004                    0400 SR        000000000000 FUJITSU TEN (THAILAN17033QL002802917075PL0049049                                                                                                                *          20171107WMF1711074.TXT
MDEDHN217385201711                D89828070100PV4D20171111000030SPEAKER ASM                   M IMCTM S0FL05 FTTL  07070IMCT  S0 PTB  00004                    1030 SR        000000000000 FUJITSU TEN (THAILAN17077PU0006006                                                                                                                              *          20171107WMF1711074.TXT
MDEDHN217386201711                D89828070200PV1D20171111000060SPEAKER ASM                   M IMCTM S5MA14 FTTL  07070IMCT  S5 PTB  00005                    0400 SR        000000000000 FUJITSU TEN (THAILAN17033QL0028029                                                                                                                              *          20171107WMF1711074.TXT
MDEDHN217387201711                D89828070300PT1D20171111000060SPEAKER ASM                   M IMCTM S5NB082FTTL  07070IMCT  S5 PTB  00015                    0400 SR        000000000000 FUJITSU TEN (THAILAN17033QL0028029                                                                                                                              *          20171107WMF1711074.TXT
MDEDHN217388201711                D89831229200PT1D20171111000030RADIO;AM/FM,CD                M IMCTM S5NC06 FTTL  07070IMCT  S5 PTB  00003                    0400 SR        000000000000 FUJITSU TEN (THAILAN17033QL0028029                                                                                                                              *          20171107WMF1711074.TXT
MDEUHN218319201711                D89828070100PT4U20171110000060SPEAKER ASM                   M IMCTM S0FL05 FTTL  07070IMCT  S0 PTB  00004                    2230 SR        000000000000 FUJITSU TEN (THAILAN18078SU0223224                                                                                                                              *          20171107WMF1711074.TXT
MDEUHN218320201711                D89828070100PT4U20171111000030SPEAKER ASM                   M IMCTM S0FL05 FTTL  07070IMCT  S0 PTB  00004                    0400 SR        000000000000 FUJITSU TEN (THAILAN18078SU0225225                                                                                                                              *          20171107WMF1711074.TXT
MDEUHN218321201711                D89828070100PT4U20171111000030SPEAKER ASM                   M IMCTM S0FL05 FTTL  07070IMCT  S0 PTB  00004                    0830 SR        000000000000 FUJITSU TEN (THAILAN18023TU0210210                                                                                                                              *          20171107WMF1711074.TXT
MDEUHN218322201711                D89828070100PT4U20171111000030SPEAKER ASM                   M IMCTM S0FL05 FTTL  07070IMCT  S0 PTB  00004                    1300 SR        000000000000 FUJITSU TEN (THAILAN18078SU0226226                                                                                                                              *          20171107WMF1711074.TXT
MDEUHN218323201711                D89828070100PT4U20171111000030SPEAKER ASM                   M IMCTM S0FL05 FTTL  07070IMCT  S0 PTB  00004                    1600 SR        000000000000 FUJITSU TEN (THAILAN18078SU0227227                                                                                                                              *          20171107WMF1711074.TXT
MDEUHN218324201711                D89828070100PT4U20171111000030SPEAKER ASM                   M IMCTM S0FL05 FTTL  07070IMCT  S0 PTB  00004                    2230 SR        000000000000 FUJITSU TEN (THAILAN18018TU0056056                                                                                                                              *          20171107WMF1711074.TXT
MDEUHN218325201711                D89828070200PV4U20171110000060SPEAKER ASM                   M IMCTM S0FR05 FTTL  07070IMCT  S0 PTB  00005                    2230 SR        000000000000 FUJITSU TEN (THAILAN18078SU0223224                                                                                                                              *          20171107WMF1711074.TXT
MDEUHN218326201711                D89828070200PV4U20171111000030SPEAKER ASM                   M IMCTM S0FR05 FTTL  07070IMCT  S0 PTB  00005                    0400 SR        000000000000 FUJITSU TEN (THAILAN18078SU0225225                                                                                                                              *          20171107WMF1711074.TXT
MDEUHN218327201711                D89828070200PV4U20171111000030SPEAKER ASM                   M IMCTM S0FR05 FTTL  07070IMCT  S0 PTB  00005                    0830 SR        000000000000 FUJITSU TEN (THAILAN18023TU0210210                                                                                                                              *          20171107WMF1711074.TXT
MDEUHN218328201711                D89828070200PV4U20171111000030SPEAKER ASM                   M IMCTM S0FR05 FTTL  07070IMCT  S0 PTB  00005                    1300 SR        000000000000 FUJITSU TEN (THAILAN18078SU0226226                                                                                                                              *          20171107WMF1711074.TXT
MDEUHN218329201711                D89828070200PV4U20171111000030SPEAKER ASM                   M IMCTM S0FR05 FTTL  07070IMCT  S0 PTB  00005                    1600 SR        000000000000 FUJITSU TEN (THAILAN18078SU0227227                                                                                                                              *          20171107WMF1711074.TXT
MDEUHN218330201711                D89828070200PV4U20171111000030SPEAKER ASM                   M IMCTM S0FR05 FTTL  07070IMCT  S0 PTB  00005                    2230 SR        000000000000 FUJITSU TEN (THAILAN18018TU0056056                                                                                                                              *          20171107WMF1711074.TXT
MDEUHN218331201711                D89828070300PT4U20171110000060SPEAKER ASM                   M IMCTM S9TS02 FTTL  07070IMCT  S9 PTB  00015                    2230 SR        000000000000 FUJITSU TEN (THAILAN18078SU0223224                                                                                                                              *          20171107WMF1711074.TXT
MDEUHN218332201711                D89828070300PT4U20171111000030SPEAKER ASM                   M IMCTM S9TS02 FTTL  07070IMCT  S9 PTB  00015                    0400 SR        000000000000 FUJITSU TEN (THAILAN18078SU0225225                                                                                                                              *          20171107WMF1711074.TXT
MDEUHN218333201711                D89828070300PT4U20171111000030SPEAKER ASM                   M IMCTM S9TS02 FTTL  07070IMCT  S9 PTB  00015                    0830 SR        000000000000 FUJITSU TEN (THAILAN18023TU0210210                                                                                                                              *          20171107WMF1711074.TXT
MDEUHN218334201711                D89828070300PT4U20171111000030SPEAKER ASM                   M IMCTM S9TS02 FTTL  07070IMCT  S9 PTB  00015                    1300 SR        000000000000 FUJITSU TEN (THAILAN18078SU0226226                                                                                                                              *          20171107WMF1711074.TXT
MDEUHN218335201711                D89828070300PT4U20171111000030SPEAKER ASM                   M IMCTM S9TS02 FTTL  07070IMCT  S9 PTB  00015                    1600 SR        000000000000 FUJITSU TEN (THAILAN18078SU0227227                                                                                                                              *          20171107WMF1711074.TXT
MDEUHN218336201711                D89828070300PT4U20171111000030SPEAKER ASM                   M IMCTM S9TS02 FTTL  07070IMCT  S9 PTB  00015                    2230 SR        000000000000 FUJITSU TEN (THAILAN18018TU0056056                                                                                                                              *          20171107WMF1711074.TXT
