REC2017112720171127ISUZU                              9      
MDEBHNT03356201712                D89828070100PT4B20171201000030SPEAKER ASM                   M IMCTM S7FL05 FTTL  07070IMCT  S7 PTB  00004                    1300 SR        000000000000 FUJITSU TEN (THAILAN18004TR0051   18053YR0001   Y171200301    Y171200315    000000                                                                              *R         20171127 IMCT                IMCT                                                                                                                    RMF1711274.TXT
MDEBHNT03357201712                D89828070200PV4B20171201000030SPEAKER ASM                   M IMCTM S7FR05 FTTL  07070IMCT  S7 PTB  00005                    1300 SR        000000000000 FUJITSU TEN (THAILAN18004TR0051   18053YR0001   Y171200301    Y171200315    000000                                                                              *R         20171127 IMCT                IMCT                                                                                                                    RMF1711274.TXT
MDEBHNT03358201712                D89828070300PT4B20171201000030SPEAKER ASM                   M IMCTM S7TS02 FTTL  07070IMCT  S7 PTB  00015                    1300 SR        000000000000 FUJITSU TEN (THAILAN18004TR0051   18053YR0001   Y171200301    Y171200315    000000                                                                              *R         20171127 IMCT                IMCT                                                                                                                    RMF1711274.TXT
MDEBHNT03359201712                D89848584400PT4B20171201000010RADIO;AM/FM CD D              M IMCTM S7TS01 FTTL  07070IMCT  S7 PTB  00003                    1300 SR        000000000000 FUJITSU TEN (THAILAN18059UR0004   18060UR0010   Y171200305    Y171200314    000000                                                                              *R         20171127 IMCT                IMCT                                                                                                                    RMF1711274.TXT
MDEBHNT03360201712                D89848584500PT4B20171201000001RADIO;AM/FM CD D              M IMCTM S7TS01 FTTL  07070IMCT  S7 PTB  00003                    1300 SR        000000000000 FUJITSU TEN (THAILAN18053YR0001   18053YR0001   Y171200315    Y171200315    000000                                                                              *R         20171127 IMCT                IMCT                                                                                                                    RMF1711274.TXT
MDEFHNT22013201712                D89828070100PV4F20171201000012SPEAKER ASM                   M IMCTM S77000 FTTL  07070IMCT  S7 PTB  00004                    0230 SR        000000000000 FUJITSU TEN (THAILAN17028RR0090   17075QR0066   S171200210    S171200215    000000                                                                              *R         20171127 IMCT                IMCT                                                                                                                    RMF1711274.TXT
MDEFHN245627201712                D89828070100PV4F20171130000016SPEAKER ASM                   M IMCTM S77000 FTTL  07070IMCT  S7 PTB  00004                    1600 SR        000000000000 FUJITSU TEN (THAILAN17035NR0011   17064QR0040   R171200101    R171200108    000000                                                                              *R         20171127 IMCT                IMCT                                                                                                                    RMF1711274.TXT
MDEFHN245628201712                D89828070100PV4F20171130000016SPEAKER ASM                   M IMCTM S77000 FTTL  07070IMCT  S7 PTB  00004                    2100 SR        000000000000 FUJITSU TEN (THAILAN17064QR0041   17003MR0019   R171200109    S171200201    000000                                                                              *R         20171127 IMCT                IMCT                                                                                                                    RMF1711274.TXT
MDEFHN245629201712                D89828070100PV4F20171130000016SPEAKER ASM                   M IMCTM S77000 FTTL  07070IMCT  S7 PTB  00004                    2230 SR        000000000000 FUJITSU TEN (THAILAN17028RR0082   17028RR0089   S171200202    S171200209    000000                                                                              *R         20171127 IMCT                IMCT                                                                                                                    RMF1711274.TXT
