REC2017111820171118ISUZU                              11     
MDEFHNT15215201711                D89828070100PV4F20171123000028SPEAKER ASM                   M IMCTM S7FL05 FTTL  07070IMCT  S7 PTB  00004                    1600 SR        000000000000 FUJITSU TEN (THAILAN17046QR0081   17076MR0110   D171104002    D171104015    000000                                                                              *R         20171118RDF1711184.TXT
MDEFHNT15216201711                D89828070200PV4F20171123000024SPEAKER ASM                   M IMCTM S7TS02 FTTL  07070IMCT  S7 PTB  00005                    1600 SR        000000000000 FUJITSU TEN (THAILAN17046QR0080   17046QR0082   D171104001    D171104012    000000                                                                              *R         20171118RDF1711184.TXT
MDEFHNT15217201711                D89828070300PT4F20171123000024SPEAKER ASM                   M IMCTM S7TS02 FTTL  07070IMCT  S7 PTB  00015                    1600 SR        000000000000 FUJITSU TEN (THAILAN17046QR0080   17046QR0082   D171104001    D171104012    000000                                                                              *R         20171118RDF1711184.TXT
MDEFHNT15218201711                D89831228800PT4F20171122000001RADIO;AM/FM,CD                M IMCTM S7TS03 FTTL  07070IMCT  S7 PTB  00003                    2100 SR        000000000000 FUJITSU TEN (THAILAN17013NR0059   17013NR0059   D171103902    D171103902    000000                                                                              *R         20171118RDF1711184.TXT
MDEFHNT15219201711                D89831229000PT4F20171122000003RADIO;AM/FM,CD                M IMCTM S7TS03 FTTL  07070IMCT  S7 PTB  00003                    2100 SR        000000000000 FUJITSU TEN (THAILAN17002RR0058   17040RR0044   D171103901    D171104011    000000                                                                              *R         20171118RDF1711184.TXT
MDEFHN231112201711                D89828070100PV4F20171122000008SPEAKER ASM                   M IMCTM S7FL05 FTTL  07070IMCT  S7 PTB  00004                    2100 SR        000000000000 FUJITSU TEN (THAILAN17002RR0058   17003NR0006   D171103901    D171103904    000000                                                                              *R         20171118RDF1711184.TXT
MDEFHN231113201711                D89828070100PV4F20171122000024SPEAKER ASM                   M IMCTM S7FL05 FTTL  07070IMCT  S7 PTB  00004                    2230 SR        000000000000 FUJITSU TEN (THAILAN17018NR0008   17046QR0080   D171103905    D171104001    000000                                                                              *R         20171118RDF1711184.TXT
MDEFHN231114201711                D89828070200PV4F20171122000010SPEAKER ASM                   M IMCTM S7TS02 FTTL  07070IMCT  S7 PTB  00005                    2100 SR        000000000000 FUJITSU TEN (THAILAN17002RR0058   17018NR0008   D171103901    D171103905    000000                                                                              *R         20171118RDF1711184.TXT
MDEFHN231115201711                D89828070200PV4F20171122000020SPEAKER ASM                   M IMCTM S7TS02 FTTL  07070IMCT  S7 PTB  00005                    2230 SR        000000000000 FUJITSU TEN (THAILAN17020MR0050   17029MR0057   D171103906    D171103915    000000                                                                              *R         20171118RDF1711184.TXT
MDEFHN231116201711                D89828070300PT4F20171122000015SPEAKER ASM                   M IMCTM S7TS02 FTTL  07070IMCT  S7 PTB  00015                    2100 SR        000000000000 FUJITSU TEN (THAILAN17002RR0058   17020MR0052   D171103901    D171103908    000000                                                                              *R         20171118RDF1711184.TXT
MDEFHN231117201711                D89828070300PT4F20171122000015SPEAKER ASM                   M IMCTM S7TS02 FTTL  07070IMCT  S7 PTB  00015                    2230 SR        000000000000 FUJITSU TEN (THAILAN17020MR0052   17029MR0057   D171103908    D171103915    000000                                                                              *R         20171118RDF1711184.TXT
