REC2017112320171123ISUZU                              42     
MAKK7N113083201711D1               89805293700P3YK20171204000120SPEAKER ASM                   M IMCTM CM1    TNTH  07070IMKDC KA PTB  00003  K0                0900DES        000000000000 DENSO TEN (THAILAND)                                                                                                                                             G         20171123 IMCT                IMCT                                                                                                                    WMF1711231.TXT
MAKK7N113084201711D1               89805293700P3YK20171205000120SPEAKER ASM                   M IMCTM CM1    TNTH  07070IMKDC KA PTB  00003  K0                0900DES        000000000000 DENSO TEN (THAILAND)                                                                                                                                             G         20171123 IMCT                IMCT                                                                                                                    WMF1711231.TXT
MAKK7N113085201711D1               89805293700P3YK20171206000150SPEAKER ASM                   M IMCTM CM1    TNTH  07070IMKDC KA PTB  00003  K0                0900DES        000000000000 DENSO TEN (THAILAND)                                                                                                                                             G         20171123 IMCT                IMCT                                                                                                                    WMF1711231.TXT
MAKK7N113086201711D1               89805293700P3YK20171207000090SPEAKER ASM                   M IMCTM CM1    TNTH  07070IMKDC KA PTB  00003  K0                0900DES        000000000000 DENSO TEN (THAILAND)                                                                                                                                             G         20171123 IMCT                IMCT                                                                                                                    WMF1711231.TXT
MAKK7N113087201711D1               89805293700P3YK20171208000120SPEAKER ASM                   M IMCTM CM1    TNTH  07070IMKDC KA PTB  00003  K0                0900DES        000000000000 DENSO TEN (THAILAND)                                                                                                                                             G         20171123 IMCT                IMCT                                                                                                                    WMF1711231.TXT
MAKK7N113088201711D1               89805293700P3YK20171209000120SPEAKER ASM                   M IMCTM CM1    TNTH  07070IMKDC KA PTB  00003  K0                0900DES        000000000000 DENSO TEN (THAILAND)                                                                                                                                             G         20171123 IMCT                IMCT                                                                                                                    WMF1711231.TXT
MAKK7N113089201711D1               89805294000P3YK20171204000030SPEAKER ASM                   M IMCTM CM1    TNTH  07070IMKDC KA PTB  00015  K0                0900DES        000000000000 DENSO TEN (THAILAND)                                                                                                                                             G         20171123 IMCT                IMCT                                                                                                                    WMF1711231.TXT
MAKK7N113090201711D1               89805294000P3YK20171205000030SPEAKER ASM                   M IMCTM CM1    TNTH  07070IMKDC KA PTB  00015  K0                0900DES        000000000000 DENSO TEN (THAILAND)                                                                                                                                             G         20171123 IMCT                IMCT                                                                                                                    WMF1711231.TXT
MAKK7N113091201711D1               89805294000P3YK20171206000060SPEAKER ASM                   M IMCTM CM1    TNTH  07070IMKDC KA PTB  00015  K0                0900DES        000000000000 DENSO TEN (THAILAND)                                                                                                                                             G         20171123 IMCT                IMCT                                                                                                                    WMF1711231.TXT
MAKK7N113092201711D1               89805294000P3YK20171207000030SPEAKER ASM                   M IMCTM CM1    TNTH  07070IMKDC KA PTB  00015  K0                0900DES        000000000000 DENSO TEN (THAILAND)                                                                                                                                             G         20171123 IMCT                IMCT                                                                                                                    WMF1711231.TXT
MAKK7N113093201711D1               89805294000P3YK20171208000060SPEAKER ASM                   M IMCTM CM1    TNTH  07070IMKDC KA PTB  00015  K0                0900DES        000000000000 DENSO TEN (THAILAND)                                                                                                                                             G         20171123 IMCT                IMCT                                                                                                                    WMF1711231.TXT
MAKK7N113094201711D1               89805294000P3YK20171209000060SPEAKER ASM                   M IMCTM CM1    TNTH  07070IMKDC KA PTB  00015  K0                0900DES        000000000000 DENSO TEN (THAILAND)                                                                                                                                             G         20171123 IMCT                IMCT                                                                                                                    WMF1711231.TXT
MAKK7N113095201711D1               89805294100P3YK20171204000030SPEAKER ASM                   M IMCTM CM1    TNTH  07070IMKDC KA PTB  00005  K0                0900DES        000000000000 DENSO TEN (THAILAND)                                                                                                                                             G         20171123 IMCT                IMCT                                                                                                                    WMF1711231.TXT
MAKK7N113096201711D1               89805294100P3YK20171205000030SPEAKER ASM                   M IMCTM CM1    TNTH  07070IMKDC KA PTB  00005  K0                0900DES        000000000000 DENSO TEN (THAILAND)                                                                                                                                             G         20171123 IMCT                IMCT                                                                                                                    WMF1711231.TXT
MAKK7N113097201711D1               89805294100P3YK20171206000060SPEAKER ASM                   M IMCTM CM1    TNTH  07070IMKDC KA PTB  00005  K0                0900DES        000000000000 DENSO TEN (THAILAND)                                                                                                                                             G         20171123 IMCT                IMCT                                                                                                                    WMF1711231.TXT
MAKK7N113098201711D1               89805294100P3YK20171207000030SPEAKER ASM                   M IMCTM CM1    TNTH  07070IMKDC KA PTB  00005  K0                0900DES        000000000000 DENSO TEN (THAILAND)                                                                                                                                             G         20171123 IMCT                IMCT                                                                                                                    WMF1711231.TXT
MAKK7N113099201711D1               89805294100P3YK20171208000060SPEAKER ASM                   M IMCTM CM1    TNTH  07070IMKDC KA PTB  00005  K0                0900DES        000000000000 DENSO TEN (THAILAND)                                                                                                                                             G         20171123 IMCT                IMCT                                                                                                                    WMF1711231.TXT
MAKK7N113100201711D1               89805294100P3YK20171209000060SPEAKER ASM                   M IMCTM CM1    TNTH  07070IMKDC KA PTB  00005  K0                0900DES        000000000000 DENSO TEN (THAILAND)                                                                                                                                             G         20171123 IMCT                IMCT                                                                                                                    WMF1711231.TXT
MAKK7N113101201711D1               89825451200P3YK20171204000120SPEAKER ASM;ROOF              M IMCTM CM1    TNTH  07070IMKDC KA PTB  00036  K0                0900DES        000000000000 DENSO TEN (THAILAND)                                                                                                                                             G         20171123 IMCT                IMCT                                                                                                                    WMF1711231.TXT
MAKK7N113102201711D1               89825451200P3YK20171205000120SPEAKER ASM;ROOF              M IMCTM CM1    TNTH  07070IMKDC KA PTB  00036  K0                0900DES        000000000000 DENSO TEN (THAILAND)                                                                                                                                             G         20171123 IMCT                IMCT                                                                                                                    WMF1711231.TXT
MAKK7N113103201711D1               89825451200P3YK20171206000060SPEAKER ASM;ROOF              M IMCTM CM1    TNTH  07070IMKDC KA PTB  00036  K0                0900DES        000000000000 DENSO TEN (THAILAND)                                                                                                                                             G         20171123 IMCT                IMCT                                                                                                                    WMF1711231.TXT
MAKK7N113104201711D1               89825451200P3YK20171207000120SPEAKER ASM;ROOF              M IMCTM CM1    TNTH  07070IMKDC KA PTB  00036  K0                0900DES        000000000000 DENSO TEN (THAILAND)                                                                                                                                             G         20171123 IMCT                IMCT                                                                                                                    WMF1711231.TXT
MAKK7N113105201711D1               89825451200P3YK20171208000030SPEAKER ASM;ROOF              M IMCTM CM1    TNTH  07070IMKDC KA PTB  00036  K0                0900DES        000000000000 DENSO TEN (THAILAND)                                                                                                                                             G         20171123 IMCT                IMCT                                                                                                                    WMF1711231.TXT
MAKK7N113106201711D1               89825451200P3YK20171209000090SPEAKER ASM;ROOF              M IMCTM CM1    TNTH  07070IMKDC KA PTB  00036  K0                0900DES        000000000000 DENSO TEN (THAILAND)                                                                                                                                             G         20171123 IMCT                IMCT                                                                                                                    WMF1711231.TXT
MAKK7N113107201711D1               89828070100P3YK20171204000150SPEAKER ASM                   M IMCTM CM1    TNTH  07070IMKDC KA PTB  00003  K0                0900DES        000000000000 DENSO TEN (THAILAND)                                                                                                                                             G         20171123 IMCT                IMCT                                                                                                                    WMF1711231.TXT
MAKK7N113108201711D1               89828070100P3YK20171205000150SPEAKER ASM                   M IMCTM CM1    TNTH  07070IMKDC KA PTB  00003  K0                0900DES        000000000000 DENSO TEN (THAILAND)                                                                                                                                             G         20171123 IMCT                IMCT                                                                                                                    WMF1711231.TXT
MAKK7N113109201711D1               89828070100P3YK20171206000150SPEAKER ASM                   M IMCTM CM1    TNTH  07070IMKDC KA PTB  00003  K0                0900DES        000000000000 DENSO TEN (THAILAND)                                                                                                                                             G         20171123 IMCT                IMCT                                                                                                                    WMF1711231.TXT
MAKK7N113110201711D1               89828070100P3YK20171207000150SPEAKER ASM                   M IMCTM CM1    TNTH  07070IMKDC KA PTB  00003  K0                0900DES        000000000000 DENSO TEN (THAILAND)                                                                                                                                             G         20171123 IMCT                IMCT                                                                                                                    WMF1711231.TXT
MAKK7N113111201711D1               89828070100P3YK20171208000120SPEAKER ASM                   M IMCTM CM1    TNTH  07070IMKDC KA PTB  00003  K0                0900DES        000000000000 DENSO TEN (THAILAND)                                                                                                                                             G         20171123 IMCT                IMCT                                                                                                                    WMF1711231.TXT
MAKK7N113112201711D1               89828070100P3YK20171209000120SPEAKER ASM                   M IMCTM CM1    TNTH  07070IMKDC KA PTB  00003  K0                0900DES        000000000000 DENSO TEN (THAILAND)                                                                                                                                             G         20171123 IMCT                IMCT                                                                                                                    WMF1711231.TXT
MAKK7N113113201711D1               89828070200P3YK20171204000090SPEAKER ASM                   M IMCTM CM1    TNTH  07070IMKDC KA PTB  00005  K0                0900DES        000000000000 DENSO TEN (THAILAND)                                                                                                                                             G         20171123 IMCT                IMCT                                                                                                                    WMF1711231.TXT
MAKK7N113114201711D1               89828070200P3YK20171205000060SPEAKER ASM                   M IMCTM CM1    TNTH  07070IMKDC KA PTB  00005  K0                0900DES        000000000000 DENSO TEN (THAILAND)                                                                                                                                             G         20171123 IMCT                IMCT                                                                                                                    WMF1711231.TXT
MAKK7N113115201711D1               89828070200P3YK20171206000090SPEAKER ASM                   M IMCTM CM1    TNTH  07070IMKDC KA PTB  00005  K0                0900DES        000000000000 DENSO TEN (THAILAND)                                                                                                                                             G         20171123 IMCT                IMCT                                                                                                                    WMF1711231.TXT
MAKK7N113116201711D1               89828070200P3YK20171207000060SPEAKER ASM                   M IMCTM CM1    TNTH  07070IMKDC KA PTB  00005  K0                0900DES        000000000000 DENSO TEN (THAILAND)                                                                                                                                             G         20171123 IMCT                IMCT                                                                                                                    WMF1711231.TXT
MAKK7N113117201711D1               89828070200P3YK20171208000030SPEAKER ASM                   M IMCTM CM1    TNTH  07070IMKDC KA PTB  00005  K0                0900DES        000000000000 DENSO TEN (THAILAND)                                                                                                                                             G         20171123 IMCT                IMCT                                                                                                                    WMF1711231.TXT
MAKK7N113118201711D1               89828070200P3YK20171209000060SPEAKER ASM                   M IMCTM CM1    TNTH  07070IMKDC KA PTB  00005  K0                0900DES        000000000000 DENSO TEN (THAILAND)                                                                                                                                             G         20171123 IMCT                IMCT                                                                                                                    WMF1711231.TXT
MAKK7N113119201711D1               89828070300P3YK20171204000090SPEAKER ASM                   M IMCTM CM1    TNTH  07070IMKDC KA PTB  00015  K0                0900DES        000000000000 DENSO TEN (THAILAND)                                                                                                                                             G         20171123 IMCT                IMCT                                                                                                                    WMF1711231.TXT
MAKK7N113120201711D1               89828070300P3YK20171205000120SPEAKER ASM                   M IMCTM CM1    TNTH  07070IMKDC KA PTB  00015  K0                0900DES        000000000000 DENSO TEN (THAILAND)                                                                                                                                             G         20171123 IMCT                IMCT                                                                                                                    WMF1711231.TXT
MAKK7N113121201711D1               89828070300P3YK20171206000120SPEAKER ASM                   M IMCTM CM1    TNTH  07070IMKDC KA PTB  00015  K0                0900DES        000000000000 DENSO TEN (THAILAND)                                                                                                                                             G         20171123 IMCT                IMCT                                                                                                                    WMF1711231.TXT
MAKK7N113122201711D1               89828070300P3YK20171207000120SPEAKER ASM                   M IMCTM CM1    TNTH  07070IMKDC KA PTB  00015  K0                0900DES        000000000000 DENSO TEN (THAILAND)                                                                                                                                             G         20171123 IMCT                IMCT                                                                                                                    WMF1711231.TXT
MAKK7N113123201711D1               89828070300P3YK20171208000060SPEAKER ASM                   M IMCTM CM1    TNTH  07070IMKDC KA PTB  00015  K0                0900DES        000000000000 DENSO TEN (THAILAND)                                                                                                                                             G         20171123 IMCT                IMCT                                                                                                                    WMF1711231.TXT
MAKK7N113124201711D1               89828070300P3YK20171209000060SPEAKER ASM                   M IMCTM CM1    TNTH  07070IMKDC KA PTB  00015  K0                0900DES        000000000000 DENSO TEN (THAILAND)                                                                                                                                             G         20171123 IMCT                IMCT                                                                                                                    WMF1711231.TXT
