REC2017111420171114ISUZU                              54     
MDDDHN255637201711                D89821984430PT1D20171118000030RADIO;AM/FM,CD                M IMCTM S5NC06 FTTL  07070IMCT  S5 PTB  00005                    0400 SR        000000000000 FUJITSU TEN (THAILAN180LNEL0029029                                                                                                                              *          20171114WMF1711144.TXT
MDDDHN255638201711                D89821984430PT1D20171118000030RADIO;AM/FM,CD                M IMCTM S5NC06 FTTL  07070IMCT  S5 PTB  00005                    0830 SR        000000000000 FUJITSU TEN (THAILAN180LRAL0027027                                                                                                                              *          20171114WMF1711144.TXT
MDDDHN255639201711                D89821984430PT1D20171118000030RADIO;AM/FM,CD                M IMCTM S5NC06 FTTL  07070IMCT  S5 PTB  00005                    1030 SR        000000000000 FUJITSU TEN (THAILAN180LPAL0018018                                                                                                                              *          20171114WMF1711144.TXT
MDDDHN255640201711                D89821984430PT1D20171118000030RADIO;AM/FM,CD                M IMCTM S5NC06 FTTL  07070IMCT  S5 PTB  00005                    1300 SR        000000000000 FUJITSU TEN (THAILAN180LRAL0028028                                                                                                                              *          20171114WMF1711144.TXT
MDDDHN255641201711                D89821984430PT1D20171118000030RADIO;AM/FM,CD                M IMCTM S5NC06 FTTL  07070IMCT  S5 PTB  00005                    2100 SR        000000000000 FUJITSU TEN (THAILAN180LRBL0004004                                                                                                                              *          20171114WMF1711144.TXT
MDDDHN255642201711                D89828070100PV1D20171117000120SPEAKER ASM                   M IMCTM S5MB11 FTTL  07070IMCT  S5 PTB  00004                    2230 SR        000000000000 FUJITSU TEN (THAILAN180LPGL0087088                                                                                                                              *          20171114WMF1711144.TXT
MDDDHN255643201711                D89828070100PV1D20171118000060SPEAKER ASM                   M IMCTM S5MB11 FTTL  07070IMCT  S5 PTB  00004                    0230 SR        000000000000 FUJITSU TEN (THAILAN180LPGL0089089                                                                                                                              *          20171114WMF1711144.TXT
MDDDHN255644201711                D89828070100PV1D20171118000060SPEAKER ASM                   M IMCTM S5MB11 FTTL  07070IMCT  S5 PTB  00004                    0400 SR        000000000000 FUJITSU TEN (THAILAN180LNEL0029029                                                                                                                              *          20171114WMF1711144.TXT
MDDDHN255645201711                D89828070100PV1D20171118000060SPEAKER ASM                   M IMCTM S5MB11 FTTL  07070IMCT  S5 PTB  00004                    0830 SR        000000000000 FUJITSU TEN (THAILAN180LRAL0027027                                                                                                                              *          20171114WMF1711144.TXT
MDDDHN255646201711                D89828070100PV1D20171118000120SPEAKER ASM                   M IMCTM S5MB11 FTTL  07070IMCT  S5 PTB  00004                    1030 SR        000000000000 FUJITSU TEN (THAILAN180LNBL0008008180LPAL0018018                                                                                                                *          20171114WMF1711144.TXT
MDDDHN255647201711                D89828070100PV1D20171118000060SPEAKER ASM                   M IMCTM S5MB11 FTTL  07070IMCT  S5 PTB  00004                    1300 SR        000000000000 FUJITSU TEN (THAILAN180LRAL0028028                                                                                                                              *          20171114WMF1711144.TXT
MDDDHN255648201711                D89828070100PV1D20171118000060SPEAKER ASM                   M IMCTM S5MB11 FTTL  07070IMCT  S5 PTB  00004                    1600 SR        000000000000 FUJITSU TEN (THAILAN180LPDL0003003                                                                                                                              *          20171114WMF1711144.TXT
MDDDHN255649201711                D89828070100PV1D20171118000060SPEAKER ASM                   M IMCTM S5MB11 FTTL  07070IMCT  S5 PTB  00004                    2100 SR        000000000000 FUJITSU TEN (THAILAN180LRBL0004004                                                                                                                              *          20171114WMF1711144.TXT
MDDDHN255650201711                D89828070300PT1D20171117000120SPEAKER ASM                   M IMCTM S5NB082FTTL  07070IMCT  S5 PTB  00015                    2230 SR        000000000000 FUJITSU TEN (THAILAN180LPGL0087088                                                                                                                              *          20171114WMF1711144.TXT
MDDDHN255651201711                D89828070300PT1D20171118000060SPEAKER ASM                   M IMCTM S5NB082FTTL  07070IMCT  S5 PTB  00015                    0230 SR        000000000000 FUJITSU TEN (THAILAN180LPGL0089089                                                                                                                              *          20171114WMF1711144.TXT
MDDDHN255652201711                D89828070300PT1D20171118000060SPEAKER ASM                   M IMCTM S5NB082FTTL  07070IMCT  S5 PTB  00015                    1600 SR        000000000000 FUJITSU TEN (THAILAN180LPDL0003003                                                                                                                              *          20171114WMF1711144.TXT
MDDDHN255653201711                D89831228300PT1D20171117000060RADIO;AM/FM,CD                M IMCTM S5NC06 FTTL  07070IMCT  S5 CPB  00003                    2230 SR        000000000000 FUJITSU TEN (THAILAN180LPGL0087088                                                                                                                              *          20171114WMF1711144.TXT
MDDDHN255654201711                D89831228300PT1D20171118000030RADIO;AM/FM,CD                M IMCTM S5NC06 FTTL  07070IMCT  S5 CPB  00003                    0230 SR        000000000000 FUJITSU TEN (THAILAN180LPGL0089089                                                                                                                              *          20171114WMF1711144.TXT
MDDDHN255655201711                D89831228300PT1D20171118000030RADIO;AM/FM,CD                M IMCTM S5NC06 FTTL  07070IMCT  S5 CPB  00003                    1600 SR        000000000000 FUJITSU TEN (THAILAN180LPDL0003003                                                                                                                              *          20171114WMF1711144.TXT
MDDUHN224516201711                D89828070100PT4U20171118000030SPEAKER ASM                   M IMCTM S22000 FTTL  07070IMCT  S2 PTB  00004                    0400 SR        000000000000 FUJITSU TEN (THAILAN180LUKU0047047                                                                                                                              *          20171114WMF1711144.TXT
MDDUHN224517201711                D89828070100PT4U20171118000030SPEAKER ASM                   M IMCTM S22000 FTTL  07070IMCT  S2 PTB  00004                    0830 SR        000000000000 FUJITSU TEN (THAILAN180LUKU0048048                                                                                                                              *          20171114WMF1711144.TXT
MDDUHN224518201711                D89828070100PT4U20171118000030SPEAKER ASM                   M IMCTM S22000 FTTL  07070IMCT  S2 PTB  00004                    1300 SR        000000000000 FUJITSU TEN (THAILAN180LUJU0022022                                                                                                                              *          20171114WMF1711144.TXT
MDDUHN224519201711                D89828070200PV4U20171118000030SPEAKER ASM                   M IMCTM S22000 FTTL  07070IMCT  S2 PTB  00005                    0400 SR        000000000000 FUJITSU TEN (THAILAN180LUKU0047047                                                                                                                              *          20171114WMF1711144.TXT
MDDUHN224520201711                D89828070200PV4U20171118000030SPEAKER ASM                   M IMCTM S22000 FTTL  07070IMCT  S2 PTB  00005                    0830 SR        000000000000 FUJITSU TEN (THAILAN180LUKU0048048                                                                                                                              *          20171114WMF1711144.TXT
MDDUHN224521201711                D89828070200PV4U20171118000030SPEAKER ASM                   M IMCTM S22000 FTTL  07070IMCT  S2 PTB  00005                    1300 SR        000000000000 FUJITSU TEN (THAILAN180LUJU0022022                                                                                                                              *          20171114WMF1711144.TXT
MDDUHN224522201711                D89828070300PT4U20171118000030SPEAKER ASM                   M IMCTM S22000 FTTL  07070IMCT  S2 PTB  00015                    0400 SR        000000000000 FUJITSU TEN (THAILAN180LUKU0047047                                                                                                                              *          20171114WMF1711144.TXT
MDDUHN224523201711                D89828070300PT4U20171118000030SPEAKER ASM                   M IMCTM S22000 FTTL  07070IMCT  S2 PTB  00015                    0830 SR        000000000000 FUJITSU TEN (THAILAN180LUKU0048048                                                                                                                              *          20171114WMF1711144.TXT
MDDUHN224524201711                D89828070300PT4U20171118000030SPEAKER ASM                   M IMCTM S22000 FTTL  07070IMCT  S2 PTB  00015                    1300 SR        000000000000 FUJITSU TEN (THAILAN180LUJU0022022                                                                                                                              *          20171114WMF1711144.TXT
MDDUHN224525201711                D89848584200PT4U20171118000015RADIO;AM/FM CD D              M IMCTM S9CO001FTTL  07070IMCT  S9 PTB  00003                    1300 SR        000000000000 FUJITSU TEN (THAILAN180LUJU0022022                                                                                                                              *          20171114WMF1711144.TXT
MDEDHN238681201711                D89828070100PV1D20171118000030SPEAKER ASM                   M IMCTM S5MB11 FTTL  07070IMCT  S5 PTB  00004                    0230 SR        000000000000 FUJITSU TEN (THAILAN17004ML0015015                                                                                                                              *          20171114WMF1711144.TXT
MDEDHN238682201711                D89828070100PV1D20171118000030SPEAKER ASM                   M IMCTM S5MB11 FTTL  07070IMCT  S5 PTB  00004                    1300 SR        000000000000 FUJITSU TEN (THAILAN17044ML0018018                                                                                                                              *          20171114WMF1711144.TXT
MDEDHN238683201711                D89828070100PV1D20171118000030SPEAKER ASM                   M IMCTM S5MB11 FTTL  07070IMCT  S5 PTB  00004                    2230 SR        000000000000 FUJITSU TEN (THAILAN17077PL0017017                                                                                                                              *          20171114WMF1711144.TXT
MDEDHN238684201711                D89828070100PV4D20171118000030SPEAKER ASM                   M IMCTM S0FL05 FTTL  07070IMCT  S0 PTB  00004                    0230 SR        000000000000 FUJITSU TEN (THAILAN17006MU0003003                                                                                                                              *          20171114WMF1711144.TXT
MDEDHN238685201711                D89828070100PV4D20171118000030SPEAKER ASM                   M IMCTM S0FL05 FTTL  07070IMCT  S0 PTB  00004                    1300 SR        000000000000 FUJITSU TEN (THAILAN17031MU0016016                                                                                                                              *          20171114WMF1711144.TXT
MDEDHN238686201711                D89828070100PV4D20171118000030SPEAKER ASM                   M IMCTM S0FL05 FTTL  07070IMCT  S0 PTB  00004                    1600 SR        000000000000 FUJITSU TEN (THAILAN17034PU0037037                                                                                                                              *          20171114WMF1711144.TXT
MDEDHN238687201711                D89828070200PV4D20171118000030SPEAKER ASM                   M IMCTM S0FR05 FTTL  07070IMCT  S0 PTB  00005                    1300 SR        000000000000 FUJITSU TEN (THAILAN17031MU0016016                                                                                                                              *          20171114WMF1711144.TXT
MDEDHN238688201711                D89828070200PV4D20171118000030SPEAKER ASM                   M IMCTM S0FR05 FTTL  07070IMCT  S0 PTB  00005                    1600 SR        000000000000 FUJITSU TEN (THAILAN17034PU0037037                                                                                                                              *          20171114WMF1711144.TXT
MDEDHN238689201711                D89828070300PT4D20171118000030SPEAKER ASM                   M IMCTM S9TS02 FTTL  07070IMCT  S9 PTB  00015                    1300 SR        000000000000 FUJITSU TEN (THAILAN17031MU0016016                                                                                                                              *          20171114WMF1711144.TXT
MDEDHN238690201711                D89828070300PT4D20171118000030SPEAKER ASM                   M IMCTM S9TS02 FTTL  07070IMCT  S9 PTB  00015                    1600 SR        000000000000 FUJITSU TEN (THAILAN17034PU0037037                                                                                                                              *          20171114WMF1711144.TXT
MDEUHN244303201711                D89828070100PT4U20171117000060SPEAKER ASM                   M IMCTM S22000 FTTL  07070IMCT  S2 PTB  00004                    2230 SR        000000000000 FUJITSU TEN (THAILAN18078SU0251252                                                                                                                              *          20171114WMF1711144.TXT
MDEUHN244304201711                D89828070100PT4U20171118000030SPEAKER ASM                   M IMCTM S22000 FTTL  07070IMCT  S2 PTB  00004                    0400 SR        000000000000 FUJITSU TEN (THAILAN18078SU0253253                                                                                                                              *          20171114WMF1711144.TXT
MDEUHN244305201711                D89828070100PT4U20171118000030SPEAKER ASM                   M IMCTM S22000 FTTL  07070IMCT  S2 PTB  00004                    1030 SR        000000000000 FUJITSU TEN (THAILAN18078SU0254254                                                                                                                              *          20171114WMF1711144.TXT
MDEUHN244306201711                D89828070100PT4U20171118000030SPEAKER ASM                   M IMCTM S22000 FTTL  07070IMCT  S2 PTB  00004                    1600 SR        000000000000 FUJITSU TEN (THAILAN18022TU0092092                                                                                                                              *          20171114WMF1711144.TXT
MDEUHN244307201711                D89828070100PT4U20171118000030SPEAKER ASM                   M IMCTM S22000 FTTL  07070IMCT  S2 PTB  00004                    2100 SR        000000000000 FUJITSU TEN (THAILAN18078SU0255255                                                                                                                              *          20171114WMF1711144.TXT
MDEUHN244308201711                D89828070200PV4U20171117000060SPEAKER ASM                   M IMCTM S22000 FTTL  07070IMCT  S2 PTB  00005                    2230 SR        000000000000 FUJITSU TEN (THAILAN18078SU0251252                                                                                                                              *          20171114WMF1711144.TXT
MDEUHN244309201711                D89828070200PV4U20171118000030SPEAKER ASM                   M IMCTM S22000 FTTL  07070IMCT  S2 PTB  00005                    0400 SR        000000000000 FUJITSU TEN (THAILAN18078SU0253253                                                                                                                              *          20171114WMF1711144.TXT
MDEUHN244310201711                D89828070200PV4U20171118000030SPEAKER ASM                   M IMCTM S22000 FTTL  07070IMCT  S2 PTB  00005                    1030 SR        000000000000 FUJITSU TEN (THAILAN18078SU0254254                                                                                                                              *          20171114WMF1711144.TXT
MDEUHN244311201711                D89828070200PV4U20171118000030SPEAKER ASM                   M IMCTM S22000 FTTL  07070IMCT  S2 PTB  00005                    1600 SR        000000000000 FUJITSU TEN (THAILAN18022TU0092092                                                                                                                              *          20171114WMF1711144.TXT
MDEUHN244312201711                D89828070200PV4U20171118000030SPEAKER ASM                   M IMCTM S22000 FTTL  07070IMCT  S2 PTB  00005                    2100 SR        000000000000 FUJITSU TEN (THAILAN18078SU0255255                                                                                                                              *          20171114WMF1711144.TXT
MDEUHN244313201711                D89828070300PT4U20171117000060SPEAKER ASM                   M IMCTM S22000 FTTL  07070IMCT  S2 PTB  00015                    2230 SR        000000000000 FUJITSU TEN (THAILAN18078SU0251252                                                                                                                              *          20171114WMF1711144.TXT
MDEUHN244314201711                D89828070300PT4U20171118000030SPEAKER ASM                   M IMCTM S22000 FTTL  07070IMCT  S2 PTB  00015                    0400 SR        000000000000 FUJITSU TEN (THAILAN18078SU0253253                                                                                                                              *          20171114WMF1711144.TXT
MDEUHN244315201711                D89828070300PT4U20171118000030SPEAKER ASM                   M IMCTM S22000 FTTL  07070IMCT  S2 PTB  00015                    1030 SR        000000000000 FUJITSU TEN (THAILAN18078SU0254254                                                                                                                              *          20171114WMF1711144.TXT
MDEUHN244316201711                D89828070300PT4U20171118000030SPEAKER ASM                   M IMCTM S22000 FTTL  07070IMCT  S2 PTB  00015                    1600 SR        000000000000 FUJITSU TEN (THAILAN18022TU0092092                                                                                                                              *          20171114WMF1711144.TXT
MDEUHN244317201711                D89828070300PT4U20171118000030SPEAKER ASM                   M IMCTM S22000 FTTL  07070IMCT  S2 PTB  00015                    2100 SR        000000000000 FUJITSU TEN (THAILAN18078SU0255255                                                                                                                              *          20171114WMF1711144.TXT
