REC2017120420171204ISUZU                              48     
MDDDHD214609201712                D89821984430PT1D20171208000060RADIO;AM/FM,CD                M IMCTM S5NC06 TNTH  07070IMCT  S5 PTB  00005                    2230 SR        000000000000 DENSO TEN (THAILAND)180LPAL0038038180LRAL0063063                                                                                                                *          20171204 IMCT                IMCT                                                                                                                    WMF1712045.TXT
MDDDHD214610201712                D89821984430PT1D20171209000030RADIO;AM/FM,CD                M IMCTM S5NC06 TNTH  07070IMCT  S5 PTB  00005                    0830 SR        000000000000 DENSO TEN (THAILAND)180LRAL0064064                                                                                                                              *          20171204 IMCT                IMCT                                                                                                                    WMF1712045.TXT
MDDDHD214611201712                D89821984430PT1D20171209000060RADIO;AM/FM,CD                M IMCTM S5NC06 TNTH  07070IMCT  S5 PTB  00005                    1300 SR        000000000000 DENSO TEN (THAILAND)180LNGL0043043180LRAL0065065                                                                                                                *          20171204 IMCT                IMCT                                                                                                                    WMF1712045.TXT
MDDDHD214612201712                D89828070100PV1D20171208000120SPEAKER ASM                   M IMCTM S5MB11 TNTH  07070IMCT  S5 PTB  00004                    2230 SR        000000000000 DENSO TEN (THAILAND)180LPAL0038038180LRAL0063063                                                                                                                *          20171204 IMCT                IMCT                                                                                                                    WMF1712045.TXT
MDDDHD214613201712                D89828070100PV1D20171209000060SPEAKER ASM                   M IMCTM S5MB11 TNTH  07070IMCT  S5 PTB  00004                    0400 SR        000000000000 DENSO TEN (THAILAND)180LPGL0112112                                                                                                                              *          20171204 IMCT                IMCT                                                                                                                    WMF1712045.TXT
MDDDHD214614201712                D89828070100PV1D20171209000060SPEAKER ASM                   M IMCTM S5MB11 TNTH  07070IMCT  S5 PTB  00004                    0830 SR        000000000000 DENSO TEN (THAILAND)180LRAL0064064                                                                                                                              *          20171204 IMCT                IMCT                                                                                                                    WMF1712045.TXT
MDDDHD214615201712                D89828070100PV1D20171209000060SPEAKER ASM                   M IMCTM S5MB11 TNTH  07070IMCT  S5 PTB  00004                    1030 SR        000000000000 DENSO TEN (THAILAND)180LPGL0113113                                                                                                                              *          20171204 IMCT                IMCT                                                                                                                    WMF1712045.TXT
MDDDHD214616201712                D89828070100PV1D20171209000120SPEAKER ASM                   M IMCTM S5MB11 TNTH  07070IMCT  S5 PTB  00004                    1300 SR        000000000000 DENSO TEN (THAILAND)180LNGL0043043180LRAL0065065                                                                                                                *          20171204 IMCT                IMCT                                                                                                                    WMF1712045.TXT
MDDDHD214617201712                D89828070100PV1D20171209000060SPEAKER ASM                   M IMCTM S5MB11 TNTH  07070IMCT  S5 PTB  00004                    1600 SR        000000000000 DENSO TEN (THAILAND)180LPKL0026026                                                                                                                              *          20171204 IMCT                IMCT                                                                                                                    WMF1712045.TXT
MDDDHD214618201712                D89828070300PT1D20171209000060SPEAKER ASM                   M IMCTM S5NB082TNTH  07070IMCT  S5 PTB  00015                    0400 SR        000000000000 DENSO TEN (THAILAND)180LPGL0112112                                                                                                                              *          20171204 IMCT                IMCT                                                                                                                    WMF1712045.TXT
MDDDHD214619201712                D89828070300PT1D20171209000060SPEAKER ASM                   M IMCTM S5NB082TNTH  07070IMCT  S5 PTB  00015                    1030 SR        000000000000 DENSO TEN (THAILAND)180LPGL0113113                                                                                                                              *          20171204 IMCT                IMCT                                                                                                                    WMF1712045.TXT
MDDDHD214620201712                D89828070300PT1D20171209000060SPEAKER ASM                   M IMCTM S5NB082TNTH  07070IMCT  S5 PTB  00015                    1600 SR        000000000000 DENSO TEN (THAILAND)180LPKL0026026                                                                                                                              *          20171204 IMCT                IMCT                                                                                                                    WMF1712045.TXT
MDDDHD214621201712                D89831228300PT1D20171209000030RADIO;AM/FM,CD                M IMCTM S5NC06 TNTH  07070IMCT  S5 CPB  00003                    0400 SR        000000000000 DENSO TEN (THAILAND)180LPGL0112112                                                                                                                              *          20171204 IMCT                IMCT                                                                                                                    WMF1712045.TXT
MDDDHD214622201712                D89831228300PT1D20171209000030RADIO;AM/FM,CD                M IMCTM S5NC06 TNTH  07070IMCT  S5 CPB  00003                    1030 SR        000000000000 DENSO TEN (THAILAND)180LPGL0113113                                                                                                                              *          20171204 IMCT                IMCT                                                                                                                    WMF1712045.TXT
MDDDHD214623201712                D89848581600PT1D20171209000030RADIO;AM/FM CD D              M IMCTM S5NC06 TNTH  07070IMCT  S5 PTB  00003                    1600 SR        000000000000 DENSO TEN (THAILAND)180LPKL0026026                                                                                                                              *          20171204 IMCT                IMCT                                                                                                                    WMF1712045.TXT
MDDUHD207193201712                D89828070100PT4U20171208000030SPEAKER ASM                   M IMCTM S0FL05 TNTH  07070IMCT  S0 PTB  00004                    2230 SR        000000000000 DENSO TEN (THAILAND)180LUJU0032032                                                                                                                              *          20171204 IMCT                IMCT                                                                                                                    WMF1712045.TXT
MDDUHD207194201712                D89828070100PT4U20171209000030SPEAKER ASM                   M IMCTM S0FL05 TNTH  07070IMCT  S0 PTB  00004                    0830 SR        000000000000 DENSO TEN (THAILAND)180LUKU0067067                                                                                                                              *          20171204 IMCT                IMCT                                                                                                                    WMF1712045.TXT
MDDUHD207195201712                D89828070100PT4U20171209000030SPEAKER ASM                   M IMCTM S0FL05 TNTH  07070IMCT  S0 PTB  00004                    1300 SR        000000000000 DENSO TEN (THAILAND)180LUEU0210210                                                                                                                              *          20171204 IMCT                IMCT                                                                                                                    WMF1712045.TXT
MDDUHD207196201712                D89828070200PV4U20171208000030SPEAKER ASM                   M IMCTM S0FR05 TNTH  07070IMCT  S0 PTB  00005                    2230 SR        000000000000 DENSO TEN (THAILAND)180LUJU0032032                                                                                                                              *          20171204 IMCT                IMCT                                                                                                                    WMF1712045.TXT
MDDUHD207197201712                D89828070200PV4U20171209000030SPEAKER ASM                   M IMCTM S0FR05 TNTH  07070IMCT  S0 PTB  00005                    0830 SR        000000000000 DENSO TEN (THAILAND)180LUKU0067067                                                                                                                              *          20171204 IMCT                IMCT                                                                                                                    WMF1712045.TXT
MDDUHD207198201712                D89828070200PV4U20171209000030SPEAKER ASM                   M IMCTM S0FR05 TNTH  07070IMCT  S0 PTB  00005                    1300 SR        000000000000 DENSO TEN (THAILAND)180LUEU0210210                                                                                                                              *          20171204 IMCT                IMCT                                                                                                                    WMF1712045.TXT
MDDUHD207199201712                D89828070300PT4U20171208000030SPEAKER ASM                   M IMCTM S9TS02 TNTH  07070IMCT  S9 PTB  00015                    2230 SR        000000000000 DENSO TEN (THAILAND)180LUJU0032032                                                                                                                              *          20171204 IMCT                IMCT                                                                                                                    WMF1712045.TXT
MDDUHD207200201712                D89828070300PT4U20171209000030SPEAKER ASM                   M IMCTM S9TS02 TNTH  07070IMCT  S9 PTB  00015                    0830 SR        000000000000 DENSO TEN (THAILAND)180LUKU0067067                                                                                                                              *          20171204 IMCT                IMCT                                                                                                                    WMF1712045.TXT
MDDUHD207201201712                D89828070300PT4U20171209000030SPEAKER ASM                   M IMCTM S9TS02 TNTH  07070IMCT  S9 PTB  00015                    1300 SR        000000000000 DENSO TEN (THAILAND)180LUEU0210210                                                                                                                              *          20171204 IMCT                IMCT                                                                                                                    WMF1712045.TXT
MDDUHD207202201712                D89848584200PT4U20171208000015RADIO;AM/FM CD D              M IMCTM S9CO001TNTH  07070IMCT  S9 PTB  00003                    2230 SR        000000000000 DENSO TEN (THAILAND)180LUJU0032032                                                                                                                              *          20171204 IMCT                IMCT                                                                                                                    WMF1712045.TXT
MDEDHD210365201712                D89828070100PV1D20171209000030SPEAKER ASM                   M IMCTM S5MB11 TNTH  07070IMCT  S5 PTB  00004                    0230 SR        000000000000 DENSO TEN (THAILAND)17031NL0013013                                                                                                                              *          20171204 IMCT                IMCT                                                                                                                    WMF1712045.TXT
MDEDHD210366201712                D89828070100PV1D20171209000030SPEAKER ASM                   M IMCTM S5MB11 TNTH  07070IMCT  S5 PTB  00004                    0400 SR        000000000000 DENSO TEN (THAILAND)17031NL0014014                                                                                                                              *          20171204 IMCT                IMCT                                                                                                                    WMF1712045.TXT
MDEDHD210367201712                D89828070100PV1D20171209000030SPEAKER ASM                   M IMCTM S5MB11 TNTH  07070IMCT  S5 PTB  00004                    1300 SR        000000000000 DENSO TEN (THAILAND)17030NL0007007                                                                                                                              *          20171204 IMCT                IMCT                                                                                                                    WMF1712045.TXT
MDEDHD210368201712                D89828070100PV1D20171209000060SPEAKER ASM                   M IMCTM S5MB11 TNTH  07070IMCT  S5 PTB  00004                    2100 SR        000000000000 DENSO TEN (THAILAND)18007ZL0017018                                                                                                                              *          20171204 IMCT                IMCT                                                                                                                    WMF1712045.TXT
MDEDHD210369201712                D89828070100PV1D20171209000030SPEAKER ASM                   M IMCTM S5MB11 TNTH  07070IMCT  S5 PTB  00004                    2230 SR        000000000000 DENSO TEN (THAILAND)17029NL0017017                                                                                                                              *          20171204 IMCT                IMCT                                                                                                                    WMF1712045.TXT
MDEDHD210370201712                D89828070100PV4D20171209000030SPEAKER ASM                   M IMCTM S0FL05 TNTH  07070IMCT  S0 PTB  00004                    1300 SR        000000000000 DENSO TEN (THAILAND)18007ZU0003003                                                                                                                              *          20171204 IMCT                IMCT                                                                                                                    WMF1712045.TXT
MDEDHD210371201712                D89828070300PT1D20171209000030SPEAKER ASM                   M IMCTM S5NB082TNTH  07070IMCT  S5 PTB  00015                    2230 SR        000000000000 DENSO TEN (THAILAND)17029NL0017017                                                                                                                              *          20171204 IMCT                IMCT                                                                                                                    WMF1712045.TXT
MDEUHD211597201712                D89828070100PT4U20171208000030SPEAKER ASM                   M IMCTM S0FL05 TNTH  07070IMCT  S0 PTB  00004                    2230 SR        000000000000 DENSO TEN (THAILAND)18016TU0027027                                                                                                                              *          20171204 IMCT                IMCT                                                                                                                    WMF1712045.TXT
MDEUHD211598201712                D89828070100PT4U20171209000060SPEAKER ASM                   M IMCTM S0FL05 TNTH  07070IMCT  S0 PTB  00004                    0400 SR        000000000000 DENSO TEN (THAILAND)18026UU0032033                                                                                                                              *          20171204 IMCT                IMCT                                                                                                                    WMF1712045.TXT
MDEUHD211599201712                D89828070100PT4U20171209000030SPEAKER ASM                   M IMCTM S0FL05 TNTH  07070IMCT  S0 PTB  00004                    1300 SR        000000000000 DENSO TEN (THAILAND)18026UU0034034                                                                                                                              *          20171204 IMCT                IMCT                                                                                                                    WMF1712045.TXT
MDEUHD211600201712                D89828070100PT4U20171209000030SPEAKER ASM                   M IMCTM S0FL05 TNTH  07070IMCT  S0 PTB  00004                    1600 SR        000000000000 DENSO TEN (THAILAND)18023TU0215215                                                                                                                              *          20171204 IMCT                IMCT                                                                                                                    WMF1712045.TXT
MDEUHD211601201712                D89828070100PT4U20171209000030SPEAKER ASM                   M IMCTM S0FL05 TNTH  07070IMCT  S0 PTB  00004                    2230 SR        000000000000 DENSO TEN (THAILAND)18026UU0035035                                                                                                                              *          20171204 IMCT                IMCT                                                                                                                    WMF1712045.TXT
MDEUHD211602201712                D89828070200PV4U20171208000030SPEAKER ASM                   M IMCTM S0FR05 TNTH  07070IMCT  S0 PTB  00005                    2230 SR        000000000000 DENSO TEN (THAILAND)18016TU0027027                                                                                                                              *          20171204 IMCT                IMCT                                                                                                                    WMF1712045.TXT
MDEUHD211603201712                D89828070200PV4U20171209000060SPEAKER ASM                   M IMCTM S0FR05 TNTH  07070IMCT  S0 PTB  00005                    0400 SR        000000000000 DENSO TEN (THAILAND)18026UU0032033                                                                                                                              *          20171204 IMCT                IMCT                                                                                                                    WMF1712045.TXT
MDEUHD211604201712                D89828070200PV4U20171209000030SPEAKER ASM                   M IMCTM S0FR05 TNTH  07070IMCT  S0 PTB  00005                    1300 SR        000000000000 DENSO TEN (THAILAND)18026UU0034034                                                                                                                              *          20171204 IMCT                IMCT                                                                                                                    WMF1712045.TXT
MDEUHD211605201712                D89828070200PV4U20171209000030SPEAKER ASM                   M IMCTM S0FR05 TNTH  07070IMCT  S0 PTB  00005                    1600 SR        000000000000 DENSO TEN (THAILAND)18023TU0215215                                                                                                                              *          20171204 IMCT                IMCT                                                                                                                    WMF1712045.TXT
MDEUHD211606201712                D89828070200PV4U20171209000030SPEAKER ASM                   M IMCTM S0FR05 TNTH  07070IMCT  S0 PTB  00005                    2230 SR        000000000000 DENSO TEN (THAILAND)18026UU0035035                                                                                                                              *          20171204 IMCT                IMCT                                                                                                                    WMF1712045.TXT
MDEUHD211607201712                D89828070300PT4U20171208000030SPEAKER ASM                   M IMCTM S9TS02 TNTH  07070IMCT  S9 PTB  00015                    2230 SR        000000000000 DENSO TEN (THAILAND)18016TU0027027                                                                                                                              *          20171204 IMCT                IMCT                                                                                                                    WMF1712045.TXT
MDEUHD211608201712                D89828070300PT4U20171209000060SPEAKER ASM                   M IMCTM S9TS02 TNTH  07070IMCT  S9 PTB  00015                    0400 SR        000000000000 DENSO TEN (THAILAND)18026UU0032033                                                                                                                              *          20171204 IMCT                IMCT                                                                                                                    WMF1712045.TXT
MDEUHD211609201712                D89828070300PT4U20171209000030SPEAKER ASM                   M IMCTM S9TS02 TNTH  07070IMCT  S9 PTB  00015                    1300 SR        000000000000 DENSO TEN (THAILAND)18026UU0034034                                                                                                                              *          20171204 IMCT                IMCT                                                                                                                    WMF1712045.TXT
MDEUHD211610201712                D89828070300PT4U20171209000030SPEAKER ASM                   M IMCTM S9TS02 TNTH  07070IMCT  S9 PTB  00015                    1600 SR        000000000000 DENSO TEN (THAILAND)18023TU0215215                                                                                                                              *          20171204 IMCT                IMCT                                                                                                                    WMF1712045.TXT
MDEUHD211611201712                D89828070300PT4U20171209000030SPEAKER ASM                   M IMCTM S9TS02 TNTH  07070IMCT  S9 PTB  00015                    2230 SR        000000000000 DENSO TEN (THAILAND)18026UU0035035                                                                                                                              *          20171204 IMCT                IMCT                                                                                                                    WMF1712045.TXT
MDEUHD211612201712                D89848584700PT4U20171208000015RADIO;AM/FM CD D              M IMCTM S9CO001TNTH  07070IMCT  S9 PTB  00003                    2230 SR        000000000000 DENSO TEN (THAILAND)18016TU0027027                                                                                                                              *          20171204 IMCT                IMCT                                                                                                                    WMF1712045.TXT
