REC2017121120171211ISUZU                              56     
MDDDHD241723201712                D89821984430PT1D20171214000060RADIO;AM/FM,CD                M IMCTM S5NC06 TNTH  07070IMCT  S5 PTB  00005                    2230 SR        000000000000 DENSO TEN (THAILAND)180LPBL0003003180LRAL0076076                                                                                                                *          20171211 IMCT                IMCT                                                                                                                    WMF1712115.TXT
MDDDHD241724201712                D89821984430PT1D20171215000030RADIO;AM/FM,CD                M IMCTM S5NC06 TNTH  07070IMCT  S5 PTB  00005                    0400 SR        000000000000 DENSO TEN (THAILAND)180LRAL0077077                                                                                                                              *          20171211 IMCT                IMCT                                                                                                                    WMF1712115.TXT
MDDDHD241725201712                D89821984430PT1D20171215000060RADIO;AM/FM,CD                M IMCTM S5NC06 TNTH  07070IMCT  S5 PTB  00005                    1300 SR        000000000000 DENSO TEN (THAILAND)180LPAL0046046180LRAL0078078                                                                                                                *          20171211 IMCT                IMCT                                                                                                                    WMF1712115.TXT
MDDDHD241726201712                D89821984430PT1D20171215000030RADIO;AM/FM,CD                M IMCTM S5NC06 TNTH  07070IMCT  S5 PTB  00005                    2100 SR        000000000000 DENSO TEN (THAILAND)180LNHL0016016                                                                                                                              *          20171211 IMCT                IMCT                                                                                                                    WMF1712115.TXT
MDDDHD241727201712                D89828070100PV1D20171214000120SPEAKER ASM                   M IMCTM S5MB11 TNTH  07070IMCT  S5 PTB  00004                    2230 SR        000000000000 DENSO TEN (THAILAND)180LPBL0003003180LRAL0076076                                                                                                                *          20171211 IMCT                IMCT                                                                                                                    WMF1712115.TXT
MDDDHD241728201712                D89828070100PV1D20171215000060SPEAKER ASM                   M IMCTM S5MB11 TNTH  07070IMCT  S5 PTB  00004                    0230 SR        000000000000 DENSO TEN (THAILAND)180LPGL0123123                                                                                                                              *          20171211 IMCT                IMCT                                                                                                                    WMF1712115.TXT
MDDDHD241729201712                D89828070100PV1D20171215000060SPEAKER ASM                   M IMCTM S5MB11 TNTH  07070IMCT  S5 PTB  00004                    0400 SR        000000000000 DENSO TEN (THAILAND)180LRAL0077077                                                                                                                              *          20171211 IMCT                IMCT                                                                                                                    WMF1712115.TXT
MDDDHD241730201712                D89828070100PV1D20171215000060SPEAKER ASM                   M IMCTM S5MB11 TNTH  07070IMCT  S5 PTB  00004                    0830 SR        000000000000 DENSO TEN (THAILAND)180LPKL0028028                                                                                                                              *          20171211 IMCT                IMCT                                                                                                                    WMF1712115.TXT
MDDDHD241731201712                D89828070100PV1D20171215000120SPEAKER ASM                   M IMCTM S5MB11 TNTH  07070IMCT  S5 PTB  00004                    1300 SR        000000000000 DENSO TEN (THAILAND)180LPAL0046046180LRAL0078078                                                                                                                *          20171211 IMCT                IMCT                                                                                                                    WMF1712115.TXT
MDDDHD241732201712                D89828070100PV1D20171215000060SPEAKER ASM                   M IMCTM S5MB11 TNTH  07070IMCT  S5 PTB  00004                    2100 SR        000000000000 DENSO TEN (THAILAND)180LNHL0016016                                                                                                                              *          20171211 IMCT                IMCT                                                                                                                    WMF1712115.TXT
MDDDHD241733201712                D89828070300PT1D20171215000060SPEAKER ASM                   M IMCTM S5NB082TNTH  07070IMCT  S5 PTB  00015                    0230 SR        000000000000 DENSO TEN (THAILAND)180LPGL0123123                                                                                                                              *          20171211 IMCT                IMCT                                                                                                                    WMF1712115.TXT
MDDDHD241734201712                D89828070300PT1D20171215000060SPEAKER ASM                   M IMCTM S5NB082TNTH  07070IMCT  S5 PTB  00015                    0830 SR        000000000000 DENSO TEN (THAILAND)180LPKL0028028                                                                                                                              *          20171211 IMCT                IMCT                                                                                                                    WMF1712115.TXT
MDDDHD241735201712                D89831228300PT1D20171215000030RADIO;AM/FM,CD                M IMCTM S5NC06 TNTH  07070IMCT  S5 CPB  00003                    0230 SR        000000000000 DENSO TEN (THAILAND)180LPGL0123123                                                                                                                              *          20171211 IMCT                IMCT                                                                                                                    WMF1712115.TXT
MDDDHD241736201712                D89848581600PT1D20171215000030RADIO;AM/FM CD D              M IMCTM S5NC06 TNTH  07070IMCT  S5 PTB  00003                    0830 SR        000000000000 DENSO TEN (THAILAND)180LPKL0028028                                                                                                                              *          20171211 IMCT                IMCT                                                                                                                    WMF1712115.TXT
MDDUHD227401201712                D89828070100PT4U20171214000030SPEAKER ASM                   M IMCTM S0FL05 TNTH  07070IMCT  S0 PTB  00004                    2230 SR        000000000000 DENSO TEN (THAILAND)180LUEU0221221                                                                                                                              *          20171211 IMCT                IMCT                                                                                                                    WMF1712115.TXT
MDDUHD227402201712                D89828070100PT4U20171215000030SPEAKER ASM                   M IMCTM S0FL05 TNTH  07070IMCT  S0 PTB  00004                    0230 SR        000000000000 DENSO TEN (THAILAND)180LUKU0077077                                                                                                                              *          20171211 IMCT                IMCT                                                                                                                    WMF1712115.TXT
MDDUHD227403201712                D89828070100PT4U20171215000030SPEAKER ASM                   M IMCTM S0FL05 TNTH  07070IMCT  S0 PTB  00004                    0400 SR        000000000000 DENSO TEN (THAILAND)180LUEU0222222                                                                                                                              *          20171211 IMCT                IMCT                                                                                                                    WMF1712115.TXT
MDDUHD227404201712                D89828070100PT4U20171215000030SPEAKER ASM                   M IMCTM S0FL05 TNTH  07070IMCT  S0 PTB  00004                    1030 SR        000000000000 DENSO TEN (THAILAND)180LUJU0037037                                                                                                                              *          20171211 IMCT                IMCT                                                                                                                    WMF1712115.TXT
MDDUHD227405201712                D89828070100PT4U20171215000030SPEAKER ASM                   M IMCTM S0FL05 TNTH  07070IMCT  S0 PTB  00004                    1300 SR        000000000000 DENSO TEN (THAILAND)180LUKU0078078                                                                                                                              *          20171211 IMCT                IMCT                                                                                                                    WMF1712115.TXT
MDDUHD227406201712                D89828070100PT4U20171215000030SPEAKER ASM                   M IMCTM S0FL05 TNTH  07070IMCT  S0 PTB  00004                    1600 SR        000000000000 DENSO TEN (THAILAND)180LUKU0079079                                                                                                                              *          20171211 IMCT                IMCT                                                                                                                    WMF1712115.TXT
MDDUHD227407201712                D89828070100PT4U20171215000030SPEAKER ASM                   M IMCTM S0FL05 TNTH  07070IMCT  S0 PTB  00004                    2230 SR        000000000000 DENSO TEN (THAILAND)180LUEU0223223                                                                                                                              *          20171211 IMCT                IMCT                                                                                                                    WMF1712115.TXT
MDDUHD227408201712                D89828070200PV4U20171214000030SPEAKER ASM                   M IMCTM S0FR05 TNTH  07070IMCT  S0 PTB  00005                    2230 SR        000000000000 DENSO TEN (THAILAND)180LUEU0221221                                                                                                                              *          20171211 IMCT                IMCT                                                                                                                    WMF1712115.TXT
MDDUHD227409201712                D89828070200PV4U20171215000030SPEAKER ASM                   M IMCTM S0FR05 TNTH  07070IMCT  S0 PTB  00005                    0230 SR        000000000000 DENSO TEN (THAILAND)180LUKU0077077                                                                                                                              *          20171211 IMCT                IMCT                                                                                                                    WMF1712115.TXT
MDDUHD227410201712                D89828070200PV4U20171215000030SPEAKER ASM                   M IMCTM S0FR05 TNTH  07070IMCT  S0 PTB  00005                    0400 SR        000000000000 DENSO TEN (THAILAND)180LUEU0222222                                                                                                                              *          20171211 IMCT                IMCT                                                                                                                    WMF1712115.TXT
MDDUHD227411201712                D89828070200PV4U20171215000030SPEAKER ASM                   M IMCTM S0FR05 TNTH  07070IMCT  S0 PTB  00005                    1030 SR        000000000000 DENSO TEN (THAILAND)180LUJU0037037                                                                                                                              *          20171211 IMCT                IMCT                                                                                                                    WMF1712115.TXT
MDDUHD227412201712                D89828070200PV4U20171215000030SPEAKER ASM                   M IMCTM S0FR05 TNTH  07070IMCT  S0 PTB  00005                    1300 SR        000000000000 DENSO TEN (THAILAND)180LUKU0078078                                                                                                                              *          20171211 IMCT                IMCT                                                                                                                    WMF1712115.TXT
MDDUHD227413201712                D89828070200PV4U20171215000030SPEAKER ASM                   M IMCTM S0FR05 TNTH  07070IMCT  S0 PTB  00005                    1600 SR        000000000000 DENSO TEN (THAILAND)180LUKU0079079                                                                                                                              *          20171211 IMCT                IMCT                                                                                                                    WMF1712115.TXT
MDDUHD227414201712                D89828070200PV4U20171215000030SPEAKER ASM                   M IMCTM S0FR05 TNTH  07070IMCT  S0 PTB  00005                    2230 SR        000000000000 DENSO TEN (THAILAND)180LUEU0223223                                                                                                                              *          20171211 IMCT                IMCT                                                                                                                    WMF1712115.TXT
MDDUHD227415201712                D89828070300PT4U20171214000030SPEAKER ASM                   M IMCTM S9TS02 TNTH  07070IMCT  S9 PTB  00015                    2230 SR        000000000000 DENSO TEN (THAILAND)180LUEU0221221                                                                                                                              *          20171211 IMCT                IMCT                                                                                                                    WMF1712115.TXT
MDDUHD227416201712                D89828070300PT4U20171215000030SPEAKER ASM                   M IMCTM S9TS02 TNTH  07070IMCT  S9 PTB  00015                    0230 SR        000000000000 DENSO TEN (THAILAND)180LUKU0077077                                                                                                                              *          20171211 IMCT                IMCT                                                                                                                    WMF1712115.TXT
MDDUHD227417201712                D89828070300PT4U20171215000030SPEAKER ASM                   M IMCTM S9TS02 TNTH  07070IMCT  S9 PTB  00015                    0400 SR        000000000000 DENSO TEN (THAILAND)180LUEU0222222                                                                                                                              *          20171211 IMCT                IMCT                                                                                                                    WMF1712115.TXT
MDDUHD227418201712                D89828070300PT4U20171215000030SPEAKER ASM                   M IMCTM S9TS02 TNTH  07070IMCT  S9 PTB  00015                    1030 SR        000000000000 DENSO TEN (THAILAND)180LUJU0037037                                                                                                                              *          20171211 IMCT                IMCT                                                                                                                    WMF1712115.TXT
MDDUHD227419201712                D89828070300PT4U20171215000030SPEAKER ASM                   M IMCTM S9TS02 TNTH  07070IMCT  S9 PTB  00015                    1300 SR        000000000000 DENSO TEN (THAILAND)180LUKU0078078                                                                                                                              *          20171211 IMCT                IMCT                                                                                                                    WMF1712115.TXT
MDDUHD227420201712                D89828070300PT4U20171215000030SPEAKER ASM                   M IMCTM S9TS02 TNTH  07070IMCT  S9 PTB  00015                    1600 SR        000000000000 DENSO TEN (THAILAND)180LUKU0079079                                                                                                                              *          20171211 IMCT                IMCT                                                                                                                    WMF1712115.TXT
MDDUHD227421201712                D89828070300PT4U20171215000030SPEAKER ASM                   M IMCTM S9TS02 TNTH  07070IMCT  S9 PTB  00015                    2230 SR        000000000000 DENSO TEN (THAILAND)180LUEU0223223                                                                                                                              *          20171211 IMCT                IMCT                                                                                                                    WMF1712115.TXT
MDDUHD227422201712                D89848584200PT4U20171215000015RADIO;AM/FM CD D              M IMCTM S9CO001TNTH  07070IMCT  S9 PTB  00003                    1030 SR        000000000000 DENSO TEN (THAILAND)180LUJU0037037                                                                                                                              *          20171211 IMCT                IMCT                                                                                                                    WMF1712115.TXT
MDEDHD231966201712                D89828070100PV1D20171215000060SPEAKER ASM                   M IMCTM S5MB11 TNTH  07070IMCT  S5 PTB  00004                    0400 SR        000000000000 DENSO TEN (THAILAND)17018ML003603617080NL0122122                                                                                                                *          20171211 IMCT                IMCT                                                                                                                    WMF1712115.TXT
MDEDHD231967201712                D89828070100PV1D20171215000060SPEAKER ASM                   M IMCTM S5MB11 TNTH  07070IMCT  S5 PTB  00004                    1030 SR        000000000000 DENSO TEN (THAILAND)17022ML0037038                                                                                                                              *          20171211 IMCT                IMCT                                                                                                                    WMF1712115.TXT
MDEDHD231968201712                D89828070100PV1D20171215000060SPEAKER ASM                   M IMCTM S5MB11 TNTH  07070IMCT  S5 PTB  00004                    1600 SR        000000000000 DENSO TEN (THAILAND)17055NL007207218010ZL0013013                                                                                                                *          20171211 IMCT                IMCT                                                                                                                    WMF1712115.TXT
MDEDHD231969201712                D89828070100PV4D20171215000030SPEAKER ASM                   M IMCTM S0FL05 TNTH  07070IMCT  S0 PTB  00004                    0830 SR        000000000000 DENSO TEN (THAILAND)18010ZU0006006                                                                                                                              *          20171211 IMCT                IMCT                                                                                                                    WMF1712115.TXT
MDEDHD231970201712                D89828070200PV1D20171215000060SPEAKER ASM                   M IMCTM S5MA14 TNTH  07070IMCT  S5 PTB  00005                    0400 SR        000000000000 DENSO TEN (THAILAND)17018ML003603617080NL0122122                                                                                                                *          20171211 IMCT                IMCT                                                                                                                    WMF1712115.TXT
MDEDHD231971201712                D89828070200PV1D20171215000060SPEAKER ASM                   M IMCTM S5MA14 TNTH  07070IMCT  S5 PTB  00005                    1030 SR        000000000000 DENSO TEN (THAILAND)17022ML0037038                                                                                                                              *          20171211 IMCT                IMCT                                                                                                                    WMF1712115.TXT
MDEDHD231972201712                D89828070300PT1D20171215000060SPEAKER ASM                   M IMCTM S5NB082TNTH  07070IMCT  S5 PTB  00015                    0400 SR        000000000000 DENSO TEN (THAILAND)17018ML003603617080NL0122122                                                                                                                *          20171211 IMCT                IMCT                                                                                                                    WMF1712115.TXT
MDEDHD231973201712                D89828070300PT1D20171215000060SPEAKER ASM                   M IMCTM S5NB082TNTH  07070IMCT  S5 PTB  00015                    1030 SR        000000000000 DENSO TEN (THAILAND)17022ML0037038                                                                                                                              *          20171211 IMCT                IMCT                                                                                                                    WMF1712115.TXT
MDEDHD231974201712                D89828070300PT1D20171215000030SPEAKER ASM                   M IMCTM S5NB082TNTH  07070IMCT  S5 PTB  00015                    1600 SR        000000000000 DENSO TEN (THAILAND)17055NL0072072                                                                                                                              *          20171211 IMCT                IMCT                                                                                                                    WMF1712115.TXT
MDEDHD231975201712                D89829645310PT1D20171215000015RADIO;ASM DVD                 M IMCTM S5NC06 TNTH  07070IMCT  S5 PTB  00003                    0400 SR        000000000000 DENSO TEN (THAILAND)17018ML0036036                                                                                                                              *          20171211 IMCT                IMCT                                                                                                                    WMF1712115.TXT
MDEDHD231976201712                D89848581800PT1D20171215000015RADIO;AM/FM CD D              M IMCTM S5NC06 TNTH  07070IMCT  S5 PTB  00003                    1600 SR        000000000000 DENSO TEN (THAILAND)17055NL0072072                                                                                                                              *          20171211 IMCT                IMCT                                                                                                                    WMF1712115.TXT
MDEUHD227960201712                D89828070100PT4U20171215000030SPEAKER ASM                   M IMCTM S0FL05 TNTH  07070IMCT  S0 PTB  00004                    0400 SR        000000000000 DENSO TEN (THAILAND)18022TU0101101                                                                                                                              *          20171211 IMCT                IMCT                                                                                                                    WMF1712115.TXT
MDEUHD227961201712                D89828070100PT4U20171215000030SPEAKER ASM                   M IMCTM S0FL05 TNTH  07070IMCT  S0 PTB  00004                    1300 SR        000000000000 DENSO TEN (THAILAND)18026UU0049049                                                                                                                              *          20171211 IMCT                IMCT                                                                                                                    WMF1712115.TXT
MDEUHD227962201712                D89828070100PT4U20171215000030SPEAKER ASM                   M IMCTM S0FL05 TNTH  07070IMCT  S0 PTB  00004                    2100 SR        000000000000 DENSO TEN (THAILAND)18026UU0050050                                                                                                                              *          20171211 IMCT                IMCT                                                                                                                    WMF1712115.TXT
MDEUHD227963201712                D89828070200PV4U20171215000030SPEAKER ASM                   M IMCTM S0FR05 TNTH  07070IMCT  S0 PTB  00005                    0400 SR        000000000000 DENSO TEN (THAILAND)18022TU0101101                                                                                                                              *          20171211 IMCT                IMCT                                                                                                                    WMF1712115.TXT
MDEUHD227964201712                D89828070200PV4U20171215000030SPEAKER ASM                   M IMCTM S0FR05 TNTH  07070IMCT  S0 PTB  00005                    1300 SR        000000000000 DENSO TEN (THAILAND)18026UU0049049                                                                                                                              *          20171211 IMCT                IMCT                                                                                                                    WMF1712115.TXT
MDEUHD227965201712                D89828070200PV4U20171215000030SPEAKER ASM                   M IMCTM S0FR05 TNTH  07070IMCT  S0 PTB  00005                    2100 SR        000000000000 DENSO TEN (THAILAND)18026UU0050050                                                                                                                              *          20171211 IMCT                IMCT                                                                                                                    WMF1712115.TXT
MDEUHD227966201712                D89828070300PT4U20171215000030SPEAKER ASM                   M IMCTM S9TS02 TNTH  07070IMCT  S9 PTB  00015                    0400 SR        000000000000 DENSO TEN (THAILAND)18022TU0101101                                                                                                                              *          20171211 IMCT                IMCT                                                                                                                    WMF1712115.TXT
MDEUHD227967201712                D89828070300PT4U20171215000030SPEAKER ASM                   M IMCTM S9TS02 TNTH  07070IMCT  S9 PTB  00015                    1300 SR        000000000000 DENSO TEN (THAILAND)18026UU0049049                                                                                                                              *          20171211 IMCT                IMCT                                                                                                                    WMF1712115.TXT
MDEUHD227968201712                D89828070300PT4U20171215000030SPEAKER ASM                   M IMCTM S9TS02 TNTH  07070IMCT  S9 PTB  00015                    2100 SR        000000000000 DENSO TEN (THAILAND)18026UU0050050                                                                                                                              *          20171211 IMCT                IMCT                                                                                                                    WMF1712115.TXT
