REC2017121820171218ISUZU                              11     
MDD6HD268050201712                D89828070100PV5620171222000120SPEAKER ASM                   M IMCTM G9B112 TNTH  07070G/WAY G9 PTB  00004                    2100 GW        0000000000005DENSO TEN (THAILAND)180LPKG0027027180LRPG0013013                                                                                                                *          20171218 IMCT                IMCT                                                                                                                    WMF1712187.TXT
MDD6HD268051201712                D89828070100PV5620171222000060SPEAKER ASM                   M IMCTM G9B112 TNTH  07070G/WAY G9 PTB  00004                    2300 GW        0000000000005DENSO TEN (THAILAND)180LRPG0014014                                                                                                                              *          20171218 IMCT                IMCT                                                                                                                    WMF1712187.TXT
MDD6HD268052201712                D89828070100PV5620171223000060SPEAKER ASM                   M IMCTM G9B112 TNTH  07070G/WAY G9 PTB  00004                    0200 GW        0000000000005DENSO TEN (THAILAND)180LRHG0117117                                                                                                                              *          20171218 IMCT                IMCT                                                                                                                    WMF1712187.TXT
MDD6HD268053201712                D89828070200PV5620171222000060SPEAKER ASM                   M IMCTM G9F132 TNTH  07070G/WAY G9 PTB  00005                    2100 GW        0000000000005DENSO TEN (THAILAND)180LRPG0013013                                                                                                                              *          20171218 IMCT                IMCT                                                                                                                    WMF1712187.TXT
MDD6HD268054201712                D89828070200PV5620171222000060SPEAKER ASM                   M IMCTM G9F132 TNTH  07070G/WAY G9 PTB  00005                    2300 GW        0000000000005DENSO TEN (THAILAND)180LRPG0014014                                                                                                                              *          20171218 IMCT                IMCT                                                                                                                    WMF1712187.TXT
MDD6HD268055201712                D89828070200PV5620171223000060SPEAKER ASM                   M IMCTM G9F132 TNTH  07070G/WAY G9 PTB  00005                    0200 GW        0000000000005DENSO TEN (THAILAND)180LRHG0117117                                                                                                                              *          20171218 IMCT                IMCT                                                                                                                    WMF1712187.TXT
MDD6HD268056201712                D89828070300PT5620171222000120SPEAKER ASM                   M IMCTM G9JB34 TNTH  07070G/WAY G9 PTB  00015                    2100 GW        0000000000005DENSO TEN (THAILAND)180LPKG0027027180LRPG0013013                                                                                                                *          20171218 IMCT                IMCT                                                                                                                    WMF1712187.TXT
MDD6HD268057201712                D89828070300PT5620171222000060SPEAKER ASM                   M IMCTM G9JB34 TNTH  07070G/WAY G9 PTB  00015                    2300 GW        0000000000005DENSO TEN (THAILAND)180LRPG0014014                                                                                                                              *          20171218 IMCT                IMCT                                                                                                                    WMF1712187.TXT
MDD6HD268058201712                D89828070300PT5620171223000060SPEAKER ASM                   M IMCTM G9JB34 TNTH  07070G/WAY G9 PTB  00015                    0200 GW        0000000000005DENSO TEN (THAILAND)180LRHG0117117                                                                                                                              *          20171218 IMCT                IMCT                                                                                                                    WMF1712187.TXT
MDD6HD268059201712                D89848581500PT5620171223000030RADIO;AM/FM CD D              M IMCTM G9J213 TNTH  07070G/WAY G9 PTB  00003                    0200 GW        0000000000005DENSO TEN (THAILAND)180LRHG0117117                                                                                                                              *          20171218 IMCT                IMCT                                                                                                                    WMF1712187.TXT
MDD6HD268060201712                D89848581600PT5620171222000030RADIO;AM/FM CD D              M IMCTM G9J213 TNTH  07070G/WAY G9 PTB  00003                    2100 GW        0000000000005DENSO TEN (THAILAND)180LPKG0027027                                                                                                                              *          20171218 IMCT                IMCT                                                                                                                    WMF1712187.TXT
