REC2017113020171130ISUZU                              7      
MEDUHN800091000000                 89828070100PT4U20171202000030SPEAKER ASM                   M IMCTM S0FL05 TNTH  07070IMCT  S0 PTB  00004  DC FROM FTTL   PC 1600 SR        000000000000 DENSO TEN (THAILAND)180LUFU0064064                                                                                                                               E         20171130 IMCT                IMCT                                                                                                                    WMF1711301.TXT
MED6HN800465000000                 89828070100PV5620171202000060SPEAKER ASM                   M IMCTM G9B112 TNTH  07070G/WAY G9 PTB  00004  DC FROM FTTL   PC 2100 GW        0000000000005DENSO TEN (THAILAND)180LPPG0002002                                                                                                                               E         20171130 IMCT                IMCT                                                                                                                    WMF1711301.TXT
MED6HN800466000000                 89828070300PT5620171202000060SPEAKER ASM                   M IMCTM G9JB34 TNTH  07070G/WAY G9 PTB  00015  DC FROM FTTL   PC 2100 GW        0000000000005DENSO TEN (THAILAND)180LPPG0002002                                                                                                                               E         20171130 IMCT                IMCT                                                                                                                    WMF1711301.TXT
MED6HN800467000000                 89848581500PT5620171201000030RADIO;AM/FM CD D              M IMCTM G9J213 TNTH  07070G/WAY G9*PTB  00003  DC FROM FTTL   PC 1400 GW        0000000000005DENSO TEN (THAILAND)180LRHG0081081                                                                                                                               E         20171130 IMCT                IMCT                                                                                                                    WMF1711301.TXT
MGEDHN800621000000                 89828070100PV1D20171201000016SPEAKER ASM                   M       S5MB11 TNTH  07070IMCT  S5 PTB  000041 DC FROM FTTL   PC 2230 SR        000000000000 DENSO TEN (THAILAND)17028NR0076076                                                                                                                                         20171130 IMCT                IMCT                                                                                                                    WMF1711301.TXT
MGEDHN800623000000                 89828070100PV1D20171202000024SPEAKER ASM                   M       S5MB11 TNTH  07070IMCT  S5 PTB  000041 DC FROM FTTL   PC 1300 SR        000000000000 DENSO TEN (THAILAND)17027NR0066066                                                                                                                                         20171130 IMCT                IMCT                                                                                                                    WMF1711301.TXT
MGEDHN800624000000                 89828070100PV1D20171202000020SPEAKER ASM                   M       S5MB11 TNTH  07070IMCT  S5 PTB  000041 DC FROM FTTL   PC 0830 SR        000000000000 DENSO TEN (THAILAND)17032RR0062062                                                                                                                                         20171130 IMCT                IMCT                                                                                                                    WMF1711301.TXT
