REC2017121420171214ISUZU                              62     
MDDDHD256524201712                D89821984430PT1D20171218000030RADIO;AM/FM,CD                M IMCTM S5NC06 TNTH  07070IMCT  S5 PTB  00005                    2230 SR        000000000000 DENSO TEN (THAILAND)180LRAL0083083                                                                                                                              *          20171214 IMCT                IMCT                                                                                                                    WMF1712144.TXT
MDDDHD256525201712                D89821984430PT1D20171219000030RADIO;AM/FM,CD                M IMCTM S5NC06 TNTH  07070IMCT  S5 PTB  00005                    0230 SR        000000000000 DENSO TEN (THAILAND)180LXCL0001001                                                                                                                              *          20171214 IMCT                IMCT                                                                                                                    WMF1712144.TXT
MDDDHD256526201712                D89821984430PT1D20171219000060RADIO;AM/FM,CD                M IMCTM S5NC06 TNTH  07070IMCT  S5 PTB  00005                    0400 SR        000000000000 DENSO TEN (THAILAND)180LNGL0050050180LPAL0051051                                                                                                                *          20171214 IMCT                IMCT                                                                                                                    WMF1712144.TXT
MDDDHD256527201712                D89821984430PT1D20171219000030RADIO;AM/FM,CD                M IMCTM S5NC06 TNTH  07070IMCT  S5 PTB  00005                    0830 SR        000000000000 DENSO TEN (THAILAND)180LRAL0084084                                                                                                                              *          20171214 IMCT                IMCT                                                                                                                    WMF1712144.TXT
MDDDHD256528201712                D89821984430PT1D20171219000060RADIO;AM/FM,CD                M IMCTM S5NC06 TNTH  07070IMCT  S5 PTB  00005                    1300 SR        000000000000 DENSO TEN (THAILAND)180LNGL0051051180LPAL0052052                                                                                                                *          20171214 IMCT                IMCT                                                                                                                    WMF1712144.TXT
MDDDHD256529201712                D89821984430PT1D20171219000030RADIO;AM/FM,CD                M IMCTM S5NC06 TNTH  07070IMCT  S5 PTB  00005                    2100 SR        000000000000 DENSO TEN (THAILAND)180LRBL0009009                                                                                                                              *          20171214 IMCT                IMCT                                                                                                                    WMF1712144.TXT
MDDDHD256530201712                D89828070100PV1D20171218000060SPEAKER ASM                   M IMCTM S5MB11 TNTH  07070IMCT  S5 PTB  00004                    2230 SR        000000000000 DENSO TEN (THAILAND)180LRAL0083083                                                                                                                              *          20171214 IMCT                IMCT                                                                                                                    WMF1712144.TXT
MDDDHD256531201712                D89828070100PV1D20171219000060SPEAKER ASM                   M IMCTM S5MB11 TNTH  07070IMCT  S5 PTB  00004                    0230 SR        000000000000 DENSO TEN (THAILAND)180LXCL0001001                                                                                                                              *          20171214 IMCT                IMCT                                                                                                                    WMF1712144.TXT
MDDDHD256532201712                D89828070100PV1D20171219000120SPEAKER ASM                   M IMCTM S5MB11 TNTH  07070IMCT  S5 PTB  00004                    0400 SR        000000000000 DENSO TEN (THAILAND)180LNGL0050050180LPAL0051051                                                                                                                *          20171214 IMCT                IMCT                                                                                                                    WMF1712144.TXT
MDDDHD256533201712                D89828070100PV1D20171219000060SPEAKER ASM                   M IMCTM S5MB11 TNTH  07070IMCT  S5 PTB  00004                    0830 SR        000000000000 DENSO TEN (THAILAND)180LRAL0084084                                                                                                                              *          20171214 IMCT                IMCT                                                                                                                    WMF1712144.TXT
MDDDHD256534201712                D89828070100PV1D20171219000120SPEAKER ASM                   M IMCTM S5MB11 TNTH  07070IMCT  S5 PTB  00004                    1300 SR        000000000000 DENSO TEN (THAILAND)180LNGL0051051180LPAL0052052                                                                                                                *          20171214 IMCT                IMCT                                                                                                                    WMF1712144.TXT
MDDDHD256535201712                D89828070100PV1D20171219000120SPEAKER ASM                   M IMCTM S5MB11 TNTH  07070IMCT  S5 PTB  00004                    1600 SR        000000000000 DENSO TEN (THAILAND)180LNAL0018018180LPNL0007007                                                                                                                *          20171214 IMCT                IMCT                                                                                                                    WMF1712144.TXT
MDDDHD256536201712                D89828070100PV1D20171219000060SPEAKER ASM                   M IMCTM S5MB11 TNTH  07070IMCT  S5 PTB  00004                    2100 SR        000000000000 DENSO TEN (THAILAND)180LRBL0009009                                                                                                                              *          20171214 IMCT                IMCT                                                                                                                    WMF1712144.TXT
MDDDHD256537201712                D89828070100PV4D20171219000060SPEAKER ASM                   M IMCTM S0FL05 TNTH  07070IMCT  S0 PTB  00004                    1030 SR        000000000000 DENSO TEN (THAILAND)180LRSU0023023                                                                                                                              *          20171214 IMCT                IMCT                                                                                                                    WMF1712144.TXT
MDDDHD256538201712                D89828070200PV4D20171219000060SPEAKER ASM                   M IMCTM S0FR05 TNTH  07070IMCT  S0 PTB  00005                    1030 SR        000000000000 DENSO TEN (THAILAND)180LRSU0023023                                                                                                                              *          20171214 IMCT                IMCT                                                                                                                    WMF1712144.TXT
MDDDHD256539201712                D89828070300PT1D20171219000060SPEAKER ASM                   M IMCTM S5NB082TNTH  07070IMCT  S5 PTB  00015                    1600 SR        000000000000 DENSO TEN (THAILAND)180LPNL0007007                                                                                                                              *          20171214 IMCT                IMCT                                                                                                                    WMF1712144.TXT
MDDDHD256540201712                D89828070300PT4D20171219000060SPEAKER ASM                   M IMCTM S9TS02 TNTH  07070IMCT  S9 PTB  00015                    1030 SR        000000000000 DENSO TEN (THAILAND)180LRSU0023023                                                                                                                              *          20171214 IMCT                IMCT                                                                                                                    WMF1712144.TXT
MDDUHD234319201712                D89828070100PT4U20171219000030SPEAKER ASM                   M IMCTM S0FL05 TNTH  07070IMCT  S0 PTB  00004                    0830 SR        000000000000 DENSO TEN (THAILAND)180LUFU0068068                                                                                                                              *          20171214 IMCT                IMCT                                                                                                                    WMF1712144.TXT
MDDUHD234320201712                D89828070100PT4U20171219000030SPEAKER ASM                   M IMCTM S0FL05 TNTH  07070IMCT  S0 PTB  00004                    1600 SR        000000000000 DENSO TEN (THAILAND)180LUJU0039039                                                                                                                              *          20171214 IMCT                IMCT                                                                                                                    WMF1712144.TXT
MDDUHD234321201712                D89828070200PV4U20171219000030SPEAKER ASM                   M IMCTM S0FR05 TNTH  07070IMCT  S0 PTB  00005                    0830 SR        000000000000 DENSO TEN (THAILAND)180LUFU0068068                                                                                                                              *          20171214 IMCT                IMCT                                                                                                                    WMF1712144.TXT
MDDUHD234322201712                D89828070200PV4U20171219000030SPEAKER ASM                   M IMCTM S0FR05 TNTH  07070IMCT  S0 PTB  00005                    1600 SR        000000000000 DENSO TEN (THAILAND)180LUJU0039039                                                                                                                              *          20171214 IMCT                IMCT                                                                                                                    WMF1712144.TXT
MDDUHD234323201712                D89828070300PT4U20171219000030SPEAKER ASM                   M IMCTM S9TS02 TNTH  07070IMCT  S9 PTB  00015                    0830 SR        000000000000 DENSO TEN (THAILAND)180LUFU0068068                                                                                                                              *          20171214 IMCT                IMCT                                                                                                                    WMF1712144.TXT
MDDUHD234324201712                D89828070300PT4U20171219000030SPEAKER ASM                   M IMCTM S9TS02 TNTH  07070IMCT  S9 PTB  00015                    1600 SR        000000000000 DENSO TEN (THAILAND)180LUJU0039039                                                                                                                              *          20171214 IMCT                IMCT                                                                                                                    WMF1712144.TXT
MDDUHD234325201712                D89848584200PT4U20171219000015RADIO;AM/FM CD D              M IMCTM S9CO001TNTH  07070IMCT  S9 PTB  00003                    1600 SR        000000000000 DENSO TEN (THAILAND)180LUJU0039039                                                                                                                              *          20171214 IMCT                IMCT                                                                                                                    WMF1712144.TXT
MDEDHD246124201712                D89828070100PV1D20171218000030SPEAKER ASM                   M IMCTM S5MB11 TNTH  07070IMCT  S5 PTB  00004                    2230 SR        000000000000 DENSO TEN (THAILAND)17018ML0037037                                                                                                                              *          20171214 IMCT                IMCT                                                                                                                    WMF1712144.TXT
MDEDHD246125201712                D89828070100PV1D20171219000030SPEAKER ASM                   M IMCTM S5MB11 TNTH  07070IMCT  S5 PTB  00004                    0230 SR        000000000000 DENSO TEN (THAILAND)17073NL0012012                                                                                                                              *          20171214 IMCT                IMCT                                                                                                                    WMF1712144.TXT
MDEDHD246126201712                D89828070100PV1D20171219000060SPEAKER ASM                   M IMCTM S5MB11 TNTH  07070IMCT  S5 PTB  00004                    1030 SR        000000000000 DENSO TEN (THAILAND)17046QL0030031                                                                                                                              *          20171214 IMCT                IMCT                                                                                                                    WMF1712144.TXT
MDEDHD246127201712                D89828070100PV1D20171219000060SPEAKER ASM                   M IMCTM S5MB11 TNTH  07070IMCT  S5 PTB  00004                    1600 SR        000000000000 DENSO TEN (THAILAND)18007ZL0026027                                                                                                                              *          20171214 IMCT                IMCT                                                                                                                    WMF1712144.TXT
MDEDHD246128201712                D89828070100PV1D20171219000030SPEAKER ASM                   M IMCTM S5MB11 TNTH  07070IMCT  S5 PTB  00004                    2230 SR        000000000000 DENSO TEN (THAILAND)17008ML0015015                                                                                                                              *          20171214 IMCT                IMCT                                                                                                                    WMF1712144.TXT
MDEDHD246129201712                D89828070100PV4D20171218000030SPEAKER ASM                   M IMCTM S0FL05 TNTH  07070IMCT  S0 PTB  00004                    2230 SR        000000000000 DENSO TEN (THAILAND)18007ZU0010010                                                                                                                              *          20171214 IMCT                IMCT                                                                                                                    WMF1712144.TXT
MDEDHD246130201712                D89828070100PV4D20171219000030SPEAKER ASM                   M IMCTM S0FL05 TNTH  07070IMCT  S0 PTB  00004                    1600 SR        000000000000 DENSO TEN (THAILAND)18007ZU0011011                                                                                                                              *          20171214 IMCT                IMCT                                                                                                                    WMF1712144.TXT
MDEDHD246131201712                D89828070200PV1D20171218000030SPEAKER ASM                   M IMCTM S5MA14 TNTH  07070IMCT  S5 PTB  00005                    2230 SR        000000000000 DENSO TEN (THAILAND)17018ML0037037                                                                                                                              *          20171214 IMCT                IMCT                                                                                                                    WMF1712144.TXT
MDEDHD246132201712                D89828070200PV1D20171219000030SPEAKER ASM                   M IMCTM S5MA14 TNTH  07070IMCT  S5 PTB  00005                    0230 SR        000000000000 DENSO TEN (THAILAND)17073NL0012012                                                                                                                              *          20171214 IMCT                IMCT                                                                                                                    WMF1712144.TXT
MDEDHD246133201712                D89828070200PV1D20171219000060SPEAKER ASM                   M IMCTM S5MA14 TNTH  07070IMCT  S5 PTB  00005                    1030 SR        000000000000 DENSO TEN (THAILAND)17046QL0030031                                                                                                                              *          20171214 IMCT                IMCT                                                                                                                    WMF1712144.TXT
MDEDHD246134201712                D89828070300PT1D20171218000030SPEAKER ASM                   M IMCTM S5NB082TNTH  07070IMCT  S5 PTB  00015                    2230 SR        000000000000 DENSO TEN (THAILAND)17018ML0037037                                                                                                                              *          20171214 IMCT                IMCT                                                                                                                    WMF1712144.TXT
MDEDHD246135201712                D89828070300PT1D20171219000030SPEAKER ASM                   M IMCTM S5NB082TNTH  07070IMCT  S5 PTB  00015                    0230 SR        000000000000 DENSO TEN (THAILAND)17073NL0012012                                                                                                                              *          20171214 IMCT                IMCT                                                                                                                    WMF1712144.TXT
MDEDHD246136201712                D89828070300PT1D20171219000060SPEAKER ASM                   M IMCTM S5NB082TNTH  07070IMCT  S5 PTB  00015                    1030 SR        000000000000 DENSO TEN (THAILAND)17046QL0030031                                                                                                                              *          20171214 IMCT                IMCT                                                                                                                    WMF1712144.TXT
MDEDHD246137201712                D89828070300PT1D20171219000030SPEAKER ASM                   M IMCTM S5NB082TNTH  07070IMCT  S5 PTB  00015                    2230 SR        000000000000 DENSO TEN (THAILAND)17008ML0015015                                                                                                                              *          20171214 IMCT                IMCT                                                                                                                    WMF1712144.TXT
MDEDHD246138201712                D89829622410PT1D20171219000015RADIO;ASM DVD                 M IMCTM S5NC06 TNTH  07070IMCT  S5 PTB  00003                    2230 SR        000000000000 DENSO TEN (THAILAND)17008ML0015015                                                                                                                              *          20171214 IMCT                IMCT                                                                                                                    WMF1712144.TXT
MDEDHD246139201712                D89829645310PT1D20171218000015RADIO;ASM DVD                 M IMCTM S5NC06 TNTH  07070IMCT  S5 PTB  00003                    2230 SR        000000000000 DENSO TEN (THAILAND)17018ML0037037                                                                                                                              *          20171214 IMCT                IMCT                                                                                                                    WMF1712144.TXT
MDEDHD246140201712                D89848581800PT1D20171219000015RADIO;AM/FM CD D              M IMCTM S5NC06 TNTH  07070IMCT  S5 PTB  00003                    0230 SR        000000000000 DENSO TEN (THAILAND)17073NL0012012                                                                                                                              *          20171214 IMCT                IMCT                                                                                                                    WMF1712144.TXT
MDEUHD240137201712                D89828070100PT4U20171218000030SPEAKER ASM                   M IMCTM S0FL05 TNTH  07070IMCT  S0 PTB  00004                    2230 SR        000000000000 DENSO TEN (THAILAND)18024UU0003003                                                                                                                              *          20171214 IMCT                IMCT                                                                                                                    WMF1712144.TXT
MDEUHD240138201712                D89828070100PT4U20171219000030SPEAKER ASM                   M IMCTM S0FL05 TNTH  07070IMCT  S0 PTB  00004                    0230 SR        000000000000 DENSO TEN (THAILAND)18026UU0055055                                                                                                                              *          20171214 IMCT                IMCT                                                                                                                    WMF1712144.TXT
MDEUHD240139201712                D89828070100PT4U20171219000030SPEAKER ASM                   M IMCTM S0FL05 TNTH  07070IMCT  S0 PTB  00004                    0400 SR        000000000000 DENSO TEN (THAILAND)18025UU0003003                                                                                                                              *          20171214 IMCT                IMCT                                                                                                                    WMF1712144.TXT
MDEUHD240140201712                D89828070100PT4U20171219000030SPEAKER ASM                   M IMCTM S0FL05 TNTH  07070IMCT  S0 PTB  00004                    0830 SR        000000000000 DENSO TEN (THAILAND)18023UU0004004                                                                                                                              *          20171214 IMCT                IMCT                                                                                                                    WMF1712144.TXT
MDEUHD240141201712                D89828070100PT4U20171219000030SPEAKER ASM                   M IMCTM S0FL05 TNTH  07070IMCT  S0 PTB  00004                    1300 SR        000000000000 DENSO TEN (THAILAND)18026UU0056056                                                                                                                              *          20171214 IMCT                IMCT                                                                                                                    WMF1712144.TXT
MDEUHD240142201712                D89828070100PT4U20171219000060SPEAKER ASM                   M IMCTM S0FL05 TNTH  07070IMCT  S0 PTB  00004                    1600 SR        000000000000 DENSO TEN (THAILAND)18024UU000400418025UU0004004                                                                                                                *          20171214 IMCT                IMCT                                                                                                                    WMF1712144.TXT
MDEUHD240143201712                D89828070100PT4U20171219000030SPEAKER ASM                   M IMCTM S0FL05 TNTH  07070IMCT  S0 PTB  00004                    2230 SR        000000000000 DENSO TEN (THAILAND)18024UU0005005                                                                                                                              *          20171214 IMCT                IMCT                                                                                                                    WMF1712144.TXT
MDEUHD240144201712                D89828070200PV4U20171218000030SPEAKER ASM                   M IMCTM S0FR05 TNTH  07070IMCT  S0 PTB  00005                    2230 SR        000000000000 DENSO TEN (THAILAND)18024UU0003003                                                                                                                              *          20171214 IMCT                IMCT                                                                                                                    WMF1712144.TXT
MDEUHD240145201712                D89828070200PV4U20171219000030SPEAKER ASM                   M IMCTM S0FR05 TNTH  07070IMCT  S0 PTB  00005                    0230 SR        000000000000 DENSO TEN (THAILAND)18026UU0055055                                                                                                                              *          20171214 IMCT                IMCT                                                                                                                    WMF1712144.TXT
MDEUHD240146201712                D89828070200PV4U20171219000030SPEAKER ASM                   M IMCTM S0FR05 TNTH  07070IMCT  S0 PTB  00005                    0400 SR        000000000000 DENSO TEN (THAILAND)18025UU0003003                                                                                                                              *          20171214 IMCT                IMCT                                                                                                                    WMF1712144.TXT
MDEUHD240147201712                D89828070200PV4U20171219000030SPEAKER ASM                   M IMCTM S0FR05 TNTH  07070IMCT  S0 PTB  00005                    0830 SR        000000000000 DENSO TEN (THAILAND)18023UU0004004                                                                                                                              *          20171214 IMCT                IMCT                                                                                                                    WMF1712144.TXT
MDEUHD240148201712                D89828070200PV4U20171219000030SPEAKER ASM                   M IMCTM S0FR05 TNTH  07070IMCT  S0 PTB  00005                    1300 SR        000000000000 DENSO TEN (THAILAND)18026UU0056056                                                                                                                              *          20171214 IMCT                IMCT                                                                                                                    WMF1712144.TXT
MDEUHD240149201712                D89828070200PV4U20171219000060SPEAKER ASM                   M IMCTM S0FR05 TNTH  07070IMCT  S0 PTB  00005                    1600 SR        000000000000 DENSO TEN (THAILAND)18024UU000400418025UU0004004                                                                                                                *          20171214 IMCT                IMCT                                                                                                                    WMF1712144.TXT
MDEUHD240150201712                D89828070200PV4U20171219000030SPEAKER ASM                   M IMCTM S0FR05 TNTH  07070IMCT  S0 PTB  00005                    2230 SR        000000000000 DENSO TEN (THAILAND)18024UU0005005                                                                                                                              *          20171214 IMCT                IMCT                                                                                                                    WMF1712144.TXT
MDEUHD240151201712                D89828070300PT4U20171218000030SPEAKER ASM                   M IMCTM S9TS02 TNTH  07070IMCT  S9 PTB  00015                    2230 SR        000000000000 DENSO TEN (THAILAND)18024UU0003003                                                                                                                              *          20171214 IMCT                IMCT                                                                                                                    WMF1712144.TXT
MDEUHD240152201712                D89828070300PT4U20171219000030SPEAKER ASM                   M IMCTM S9TS02 TNTH  07070IMCT  S9 PTB  00015                    0230 SR        000000000000 DENSO TEN (THAILAND)18026UU0055055                                                                                                                              *          20171214 IMCT                IMCT                                                                                                                    WMF1712144.TXT
MDEUHD240153201712                D89828070300PT4U20171219000030SPEAKER ASM                   M IMCTM S9TS02 TNTH  07070IMCT  S9 PTB  00015                    0400 SR        000000000000 DENSO TEN (THAILAND)18025UU0003003                                                                                                                              *          20171214 IMCT                IMCT                                                                                                                    WMF1712144.TXT
MDEUHD240154201712                D89828070300PT4U20171219000030SPEAKER ASM                   M IMCTM S9TS02 TNTH  07070IMCT  S9 PTB  00015                    0830 SR        000000000000 DENSO TEN (THAILAND)18023UU0004004                                                                                                                              *          20171214 IMCT                IMCT                                                                                                                    WMF1712144.TXT
MDEUHD240155201712                D89828070300PT4U20171219000030SPEAKER ASM                   M IMCTM S9TS02 TNTH  07070IMCT  S9 PTB  00015                    1300 SR        000000000000 DENSO TEN (THAILAND)18026UU0056056                                                                                                                              *          20171214 IMCT                IMCT                                                                                                                    WMF1712144.TXT
MDEUHD240156201712                D89828070300PT4U20171219000060SPEAKER ASM                   M IMCTM S9TS02 TNTH  07070IMCT  S9 PTB  00015                    1600 SR        000000000000 DENSO TEN (THAILAND)18024UU000400418025UU0004004                                                                                                                *          20171214 IMCT                IMCT                                                                                                                    WMF1712144.TXT
MDEUHD240157201712                D89828070300PT4U20171219000030SPEAKER ASM                   M IMCTM S9TS02 TNTH  07070IMCT  S9 PTB  00015                    2230 SR        000000000000 DENSO TEN (THAILAND)18024UU0005005                                                                                                                              *          20171214 IMCT                IMCT                                                                                                                    WMF1712144.TXT
