REC2017120720171207ISUZU                              6      
MDEFHDT05539201712                D89828070100PV4F20171212000006SPEAKER ASM                   M IMCTM S7FL05 TNTH  07070IMCT  S7 PTB  00004                    0400 SR        000000000000 DENSO TEN (THAILAND)18041XR0001   18056XR0002   D171202213    D171202215    000000                                                                              *R         20171207 IMCT                IMCT                                                                                                                    RMF1712075.TXT
MDEFHDT05540201712                D89828070200PV4F20171212000004SPEAKER ASM                   M IMCTM S7TS02 TNTH  07070IMCT  S7 PTB  00005                    0400 SR        000000000000 DENSO TEN (THAILAND)18056XR0001   18056XR0002   D171202214    D171202215    000000                                                                              *R         20171207 IMCT                IMCT                                                                                                                    RMF1712075.TXT
MDEFHDT05541201712                D89828070300PT4F20171212000024SPEAKER ASM                   M IMCTM S7TS02 TNTH  07070IMCT  S7 PTB  00015                    0230 SR        000000000000 DENSO TEN (THAILAND)17015NR0081   18056XR0002   D171202202    D171202215    000000                                                                              *R         20171207 IMCT                IMCT                                                                                                                    RMF1712075.TXT
MDEFHDT05542201712                D89829645310PT4F20171212000002RADIO;ASM DVD                 M IMCTM S7TS03 TNTH  07070IMCT  S7 PTB  00003                    0230 SR        000000000000 DENSO TEN (THAILAND)17027MR0063   17027MR0064   D171202206    D171202207    000000                                                                              *R         20171207 IMCT                IMCT                                                                                                                    RMF1712075.TXT
MDEFHD211510201712                D89828070100PV4F20171212000024SPEAKER ASM                   M IMCTM S7FL05 TNTH  07070IMCT  S7 PTB  00004                    0230 SR        000000000000 DENSO TEN (THAILAND)17010MR0058   18036ZR0001   D171202201    D171202212    000000                                                                              *R         20171207 IMCT                IMCT                                                                                                                    RMF1712075.TXT
MDEFHD211511201712                D89828070200PV4F20171212000020SPEAKER ASM                   M IMCTM S7TS02 TNTH  07070IMCT  S7 PTB  00005                    0230 SR        000000000000 DENSO TEN (THAILAND)17015NR0081   18041XR0001   D171202202    D171202213    000000                                                                              *R         20171207 IMCT                IMCT                                                                                                                    RMF1712075.TXT
