REC2017120620171206ISUZU                              36     
MAKK7D069225201712D1               89805293700P3YK20171218000120SPEAKER ASM                   M IMCTM CM1    TNTH  07070IMKDC KA PTB  00003  K0                0900DES        000000000000 DENSO TEN (THAILAND)                                                                                                                                            *G         20171206 IMCT                IMCT                                                                                                                    WMF1712066.TXT
MAKK7D069226201712D1               89805293700P3YK20171219000090SPEAKER ASM                   M IMCTM CM1    TNTH  07070IMKDC KA PTB  00003  K0                0900DES        000000000000 DENSO TEN (THAILAND)                                                                                                                                            *G         20171206 IMCT                IMCT                                                                                                                    WMF1712066.TXT
MAKK7D069227201712D1               89805293700P3YK20171220000060SPEAKER ASM                   M IMCTM CM1    TNTH  07070IMKDC KA PTB  00003  K0                0900DES        000000000000 DENSO TEN (THAILAND)                                                                                                                                            *G         20171206 IMCT                IMCT                                                                                                                    WMF1712066.TXT
MAKK7D069228201712D1               89805293700P3YK20171221000090SPEAKER ASM                   M IMCTM CM1    TNTH  07070IMKDC KA PTB  00003  K0                0900DES        000000000000 DENSO TEN (THAILAND)                                                                                                                                            *G         20171206 IMCT                IMCT                                                                                                                    WMF1712066.TXT
MAKK7D069229201712D1               89805293700P3YK20171222000120SPEAKER ASM                   M IMCTM CM1    TNTH  07070IMKDC KA PTB  00003  K0                0900DES        000000000000 DENSO TEN (THAILAND)                                                                                                                                            *G         20171206 IMCT                IMCT                                                                                                                    WMF1712066.TXT
MAKK7D069230201712D1               89805293700P3YK20171223000090SPEAKER ASM                   M IMCTM CM1    TNTH  07070IMKDC KA PTB  00003  K0                0900DES        000000000000 DENSO TEN (THAILAND)                                                                                                                                            *G         20171206 IMCT                IMCT                                                                                                                    WMF1712066.TXT
MAKK7D069231201712D1               89805294000P3YK20171218000060SPEAKER ASM                   M IMCTM CM1    TNTH  07070IMKDC KA PTB  00015  K0                0900DES        000000000000 DENSO TEN (THAILAND)                                                                                                                                            *G         20171206 IMCT                IMCT                                                                                                                    WMF1712066.TXT
MAKK7D069232201712D1               89805294000P3YK20171219000030SPEAKER ASM                   M IMCTM CM1    TNTH  07070IMKDC KA PTB  00015  K0                0900DES        000000000000 DENSO TEN (THAILAND)                                                                                                                                            *G         20171206 IMCT                IMCT                                                                                                                    WMF1712066.TXT
MAKK7D069233201712D1               89805294000P3YK20171220000030SPEAKER ASM                   M IMCTM CM1    TNTH  07070IMKDC KA PTB  00015  K0                0900DES        000000000000 DENSO TEN (THAILAND)                                                                                                                                            *G         20171206 IMCT                IMCT                                                                                                                    WMF1712066.TXT
MAKK7D069234201712D1               89805294100P3YK20171218000060SPEAKER ASM                   M IMCTM CM1    TNTH  07070IMKDC KA PTB  00005  K0                0900DES        000000000000 DENSO TEN (THAILAND)                                                                                                                                            *G         20171206 IMCT                IMCT                                                                                                                    WMF1712066.TXT
MAKK7D069235201712D1               89805294100P3YK20171219000030SPEAKER ASM                   M IMCTM CM1    TNTH  07070IMKDC KA PTB  00005  K0                0900DES        000000000000 DENSO TEN (THAILAND)                                                                                                                                            *G         20171206 IMCT                IMCT                                                                                                                    WMF1712066.TXT
MAKK7D069236201712D1               89805294100P3YK20171220000030SPEAKER ASM                   M IMCTM CM1    TNTH  07070IMKDC KA PTB  00005  K0                0900DES        000000000000 DENSO TEN (THAILAND)                                                                                                                                            *G         20171206 IMCT                IMCT                                                                                                                    WMF1712066.TXT
MAKK7D069237201712D1               89825451200P3YK20171218000060SPEAKER ASM;ROOF              M IMCTM CM1    TNTH  07070IMKDC KA PTB  00036  K0                0900DES        000000000000 DENSO TEN (THAILAND)                                                                                                                                            *G         20171206 IMCT                IMCT                                                                                                                    WMF1712066.TXT
MAKK7D069238201712D1               89825451200P3YK20171219000090SPEAKER ASM;ROOF              M IMCTM CM1    TNTH  07070IMKDC KA PTB  00036  K0                0900DES        000000000000 DENSO TEN (THAILAND)                                                                                                                                            *G         20171206 IMCT                IMCT                                                                                                                    WMF1712066.TXT
MAKK7D069239201712D1               89825451200P3YK20171220000090SPEAKER ASM;ROOF              M IMCTM CM1    TNTH  07070IMKDC KA PTB  00036  K0                0900DES        000000000000 DENSO TEN (THAILAND)                                                                                                                                            *G         20171206 IMCT                IMCT                                                                                                                    WMF1712066.TXT
MAKK7D069240201712D1               89825451200P3YK20171221000150SPEAKER ASM;ROOF              M IMCTM CM1    TNTH  07070IMKDC KA PTB  00036  K0                0900DES        000000000000 DENSO TEN (THAILAND)                                                                                                                                            *G         20171206 IMCT                IMCT                                                                                                                    WMF1712066.TXT
MAKK7D069241201712D1               89825451200P3YK20171222000030SPEAKER ASM;ROOF              M IMCTM CM1    TNTH  07070IMKDC KA PTB  00036  K0                0900DES        000000000000 DENSO TEN (THAILAND)                                                                                                                                            *G         20171206 IMCT                IMCT                                                                                                                    WMF1712066.TXT
MAKK7D069242201712D1               89825451200P3YK20171223000030SPEAKER ASM;ROOF              M IMCTM CM1    TNTH  07070IMKDC KA PTB  00036  K0                0900DES        000000000000 DENSO TEN (THAILAND)                                                                                                                                            *G         20171206 IMCT                IMCT                                                                                                                    WMF1712066.TXT
MAKK7D069243201712D1               89828070100P3YK20171218000150SPEAKER ASM                   M IMCTM CM1    TNTH  07070IMKDC KA PTB  00003  K0                0900DES        000000000000 DENSO TEN (THAILAND)                                                                                                                                            *G         20171206 IMCT                IMCT                                                                                                                    WMF1712066.TXT
MAKK7D069244201712D1               89828070100P3YK20171219000150SPEAKER ASM                   M IMCTM CM1    TNTH  07070IMKDC KA PTB  00003  K0                0900DES        000000000000 DENSO TEN (THAILAND)                                                                                                                                            *G         20171206 IMCT                IMCT                                                                                                                    WMF1712066.TXT
MAKK7D069245201712D1               89828070100P3YK20171220000210SPEAKER ASM                   M IMCTM CM1    TNTH  07070IMKDC KA PTB  00003  K0                0900DES        000000000000 DENSO TEN (THAILAND)                                                                                                                                            *G         20171206 IMCT                IMCT                                                                                                                    WMF1712066.TXT
MAKK7D069246201712D1               89828070100P3YK20171221000210SPEAKER ASM                   M IMCTM CM1    TNTH  07070IMKDC KA PTB  00003  K0                0900DES        000000000000 DENSO TEN (THAILAND)                                                                                                                                            *G         20171206 IMCT                IMCT                                                                                                                    WMF1712066.TXT
MAKK7D069247201712D1               89828070100P3YK20171222000180SPEAKER ASM                   M IMCTM CM1    TNTH  07070IMKDC KA PTB  00003  K0                0900DES        000000000000 DENSO TEN (THAILAND)                                                                                                                                            *G         20171206 IMCT                IMCT                                                                                                                    WMF1712066.TXT
MAKK7D069248201712D1               89828070100P3YK20171223000180SPEAKER ASM                   M IMCTM CM1    TNTH  07070IMKDC KA PTB  00003  K0                0900DES        000000000000 DENSO TEN (THAILAND)                                                                                                                                            *G         20171206 IMCT                IMCT                                                                                                                    WMF1712066.TXT
MAKK7D069249201712D1               89828070200P3YK20171218000030SPEAKER ASM                   M IMCTM CM1    TNTH  07070IMKDC KA PTB  00005  K0                0900DES        000000000000 DENSO TEN (THAILAND)                                                                                                                                            *G         20171206 IMCT                IMCT                                                                                                                    WMF1712066.TXT
MAKK7D069250201712D1               89828070200P3YK20171219000120SPEAKER ASM                   M IMCTM CM1    TNTH  07070IMKDC KA PTB  00005  K0                0900DES        000000000000 DENSO TEN (THAILAND)                                                                                                                                            *G         20171206 IMCT                IMCT                                                                                                                    WMF1712066.TXT
MAKK7D069251201712D1               89828070200P3YK20171220000090SPEAKER ASM                   M IMCTM CM1    TNTH  07070IMKDC KA PTB  00005  K0                0900DES        000000000000 DENSO TEN (THAILAND)                                                                                                                                            *G         20171206 IMCT                IMCT                                                                                                                    WMF1712066.TXT
MAKK7D069252201712D1               89828070200P3YK20171221000090SPEAKER ASM                   M IMCTM CM1    TNTH  07070IMKDC KA PTB  00005  K0                0900DES        000000000000 DENSO TEN (THAILAND)                                                                                                                                            *G         20171206 IMCT                IMCT                                                                                                                    WMF1712066.TXT
MAKK7D069253201712D1               89828070200P3YK20171222000060SPEAKER ASM                   M IMCTM CM1    TNTH  07070IMKDC KA PTB  00005  K0                0900DES        000000000000 DENSO TEN (THAILAND)                                                                                                                                            *G         20171206 IMCT                IMCT                                                                                                                    WMF1712066.TXT
MAKK7D069254201712D1               89828070200P3YK20171223000120SPEAKER ASM                   M IMCTM CM1    TNTH  07070IMKDC KA PTB  00005  K0                0900DES        000000000000 DENSO TEN (THAILAND)                                                                                                                                            *G         20171206 IMCT                IMCT                                                                                                                    WMF1712066.TXT
MAKK7D069255201712D1               89828070300P3YK20171218000060SPEAKER ASM                   M IMCTM CM1    TNTH  07070IMKDC KA PTB  00015  K0                0900DES        000000000000 DENSO TEN (THAILAND)                                                                                                                                            *G         20171206 IMCT                IMCT                                                                                                                    WMF1712066.TXT
MAKK7D069256201712D1               89828070300P3YK20171219000150SPEAKER ASM                   M IMCTM CM1    TNTH  07070IMKDC KA PTB  00015  K0                0900DES        000000000000 DENSO TEN (THAILAND)                                                                                                                                            *G         20171206 IMCT                IMCT                                                                                                                    WMF1712066.TXT
MAKK7D069257201712D1               89828070300P3YK20171220000120SPEAKER ASM                   M IMCTM CM1    TNTH  07070IMKDC KA PTB  00015  K0                0900DES        000000000000 DENSO TEN (THAILAND)                                                                                                                                            *G         20171206 IMCT                IMCT                                                                                                                    WMF1712066.TXT
MAKK7D069258201712D1               89828070300P3YK20171221000120SPEAKER ASM                   M IMCTM CM1    TNTH  07070IMKDC KA PTB  00015  K0                0900DES        000000000000 DENSO TEN (THAILAND)                                                                                                                                            *G         20171206 IMCT                IMCT                                                                                                                    WMF1712066.TXT
MAKK7D069259201712D1               89828070300P3YK20171222000090SPEAKER ASM                   M IMCTM CM1    TNTH  07070IMKDC KA PTB  00015  K0                0900DES        000000000000 DENSO TEN (THAILAND)                                                                                                                                            *G         20171206 IMCT                IMCT                                                                                                                    WMF1712066.TXT
MAKK7D069260201712D1               89828070300P3YK20171223000120SPEAKER ASM                   M IMCTM CM1    TNTH  07070IMKDC KA PTB  00015  K0                0900DES        000000000000 DENSO TEN (THAILAND)                                                                                                                                            *G         20171206 IMCT                IMCT                                                                                                                    WMF1712066.TXT
