REC2017122720171227ISUZU                              3      
MAEDHD604487201803                 89828070100PV4D20180205000002SPEAKER ASM                   M IMCTM ST00000TNTH  07070IMCT  ST PTB  00004  DC                0000 SR        000000000000 DENSO TEN (THAILAND)18081ZU0001001                                                                                                                              *P         20171227 IMCT                IMCT                                                                                                                    WMF1712272.TXT
MAEDHD604488201803                 89828070200PV4D20180205000002SPEAKER ASM                   M IMCTM ST00000TNTH  07070IMCT  ST PTB  00005  DC                0000 SR        000000000000 DENSO TEN (THAILAND)18081ZU0001001                                                                                                                              *P         20171227 IMCT                IMCT                                                                                                                    WMF1712272.TXT
MAEDHD604489201803                 89828070300PT4D20180205000002SPEAKER ASM                   M IMCTM ST00000TNTH  07070IMCT  ST PTB  00015  DC                0000 SR        000000000000 DENSO TEN (THAILAND)18081ZU0001001                                                                                                                              *P         20171227 IMCT                IMCT                                                                                                                    WMF1712272.TXT
