REC2017122520171225ISUZU                              39     
MDDDHD293501201801                D89821984430PT1D20180105000030RADIO;AM/FM,CD                M IMCTM S5NC06 TNTH  07070IMCT  S5 PTB  00005                    0830 SR        000000000000 DENSO TEN (THAILAND)180LNHL0021021                                                                                                                              *          20171225 IMCT                IMCT                                                                                                                    WMF1712254.TXT
MDDDHD293502201801                D89821984430PT1D20180105000030RADIO;AM/FM,CD                M IMCTM S5NC06 TNTH  07070IMCT  S5 PTB  00005                    1030 SR        000000000000 DENSO TEN (THAILAND)180LNHL0022022                                                                                                                              *          20171225 IMCT                IMCT                                                                                                                    WMF1712254.TXT
MDDDHD293503201801                D89821984430PT1D20180105000030RADIO;AM/FM,CD                M IMCTM S5NC06 TNTH  07070IMCT  S5 PTB  00005                    1600 SR        000000000000 DENSO TEN (THAILAND)180LNEL0044044                                                                                                                              *          20171225 IMCT                IMCT                                                                                                                    WMF1712254.TXT
MDDDHD293504201801                D89821984430PT1D20180105000030RADIO;AM/FM,CD                M IMCTM S5NC06 TNTH  07070IMCT  S5 PTB  00005                    2100 SR        000000000000 DENSO TEN (THAILAND)180LNEL0045045                                                                                                                              *          20171225 IMCT                IMCT                                                                                                                    WMF1712254.TXT
MDDDHD293505201801                D89828070100PV1D20180105000060SPEAKER ASM                   M IMCTM S5MB11 TNTH  07070IMCT  S5 PTB  00004                    0830 SR        000000000000 DENSO TEN (THAILAND)180LNHL0021021                                                                                                                              *          20171225 IMCT                IMCT                                                                                                                    WMF1712254.TXT
MDDDHD293506201801                D89828070100PV1D20180105000060SPEAKER ASM                   M IMCTM S5MB11 TNTH  07070IMCT  S5 PTB  00004                    1030 SR        000000000000 DENSO TEN (THAILAND)180LNHL0022022                                                                                                                              *          20171225 IMCT                IMCT                                                                                                                    WMF1712254.TXT
MDDDHD293507201801                D89828070100PV1D20180105000060SPEAKER ASM                   M IMCTM S5MB11 TNTH  07070IMCT  S5 PTB  00004                    1600 SR        000000000000 DENSO TEN (THAILAND)180LNEL0044044                                                                                                                              *          20171225 IMCT                IMCT                                                                                                                    WMF1712254.TXT
MDDDHD293508201801                D89828070100PV1D20180105000060SPEAKER ASM                   M IMCTM S5MB11 TNTH  07070IMCT  S5 PTB  00004                    2100 SR        000000000000 DENSO TEN (THAILAND)180LNEL0045045                                                                                                                              *          20171225 IMCT                IMCT                                                                                                                    WMF1712254.TXT
MDDDHD293509201801                D89828070100PV4D20180105000060SPEAKER ASM                   M IMCTM S0FL05 TNTH  07070IMCT  S0 PTB  00004                    0830 SR        000000000000 DENSO TEN (THAILAND)180LRHU0001001                                                                                                                              *          20171225 IMCT                IMCT                                                                                                                    WMF1712254.TXT
MDDDHD293510201801                D89828070200PV4D20180105000060SPEAKER ASM                   M IMCTM S0FR05 TNTH  07070IMCT  S0 PTB  00005                    0830 SR        000000000000 DENSO TEN (THAILAND)180LRHU0001001                                                                                                                              *          20171225 IMCT                IMCT                                                                                                                    WMF1712254.TXT
MDDDHD293511201801                D89828070300PT4D20180105000060SPEAKER ASM                   M IMCTM S9TS02 TNTH  07070IMCT  S9 PTB  00015                    0830 SR        000000000000 DENSO TEN (THAILAND)180LRHU0001001                                                                                                                              *          20171225 IMCT                IMCT                                                                                                                    WMF1712254.TXT
MDDDHD293512201801                D89848581500PT4D20180105000030RADIO;AM/FM CD D              M IMCTM S9CO001TNTH  07070IMCT  S9 PTB  00003                    0830 SR        000000000000 DENSO TEN (THAILAND)180LRHU0001001                                                                                                                              *          20171225 IMCT                IMCT                                                                                                                    WMF1712254.TXT
MDEDHD274623201801                D89828070100PV1D20180104000060SPEAKER ASM                   M IMCTM S5MB11 TNTH  07070IMCT  S5 PTB  00004                    1600 SR        000000000000 DENSO TEN (THAILAND)18010ZL0017018                                                                                                                              *          20171225 IMCT                IMCT                                                                                                                    WMF1712254.TXT
MDEDHD274624201801                D89828070100PV1D20180105000030SPEAKER ASM                   M IMCTM S5MB11 TNTH  07070IMCT  S5 PTB  00004                    0830 SR        000000000000 DENSO TEN (THAILAND)18010ZL0019019                                                                                                                              *          20171225 IMCT                IMCT                                                                                                                    WMF1712254.TXT
MDEDHD274625201801                D89828070100PV1D20180105000030SPEAKER ASM                   M IMCTM S5MB11 TNTH  07070IMCT  S5 PTB  00004                    1030 SR        000000000000 DENSO TEN (THAILAND)18010ZL0020020                                                                                                                              *          20171225 IMCT                IMCT                                                                                                                    WMF1712254.TXT
MDEDHD274626201801                D89828070100PV1D20180105000090SPEAKER ASM                   M IMCTM S5MB11 TNTH  07070IMCT  S5 PTB  00004                    1300 SR        000000000000 DENSO TEN (THAILAND)17034RL000800817052RL0019020                                                                                                                *          20171225 IMCT                IMCT                                                                                                                    WMF1712254.TXT
MDEDHD274627201801                D89828070100PV1D20180105000030SPEAKER ASM                   M IMCTM S5MB11 TNTH  07070IMCT  S5 PTB  00004                    1600 SR        000000000000 DENSO TEN (THAILAND)17037RL0012012                                                                                                                              *          20171225 IMCT                IMCT                                                                                                                    WMF1712254.TXT
MDEDHD274628201801                D89828070100PV4D20180105000060SPEAKER ASM                   M IMCTM S0FL05 TNTH  07070IMCT  S0 PTB  00004                    1600 SR        000000000000 DENSO TEN (THAILAND)17067WU000100117074NU0036036                                                                                                                *          20171225 IMCT                IMCT                                                                                                                    WMF1712254.TXT
MDEDHD274629201801                D89828070200PV1D20180105000030SPEAKER ASM                   M IMCTM S5MA14 TNTH  07070IMCT  S5 PTB  00005                    1600 SR        000000000000 DENSO TEN (THAILAND)17037RL0012012                                                                                                                              *          20171225 IMCT                IMCT                                                                                                                    WMF1712254.TXT
MDEDHD274630201801                D89828070200PV4D20180105000060SPEAKER ASM                   M IMCTM S0FR05 TNTH  07070IMCT  S0 PTB  00005                    1600 SR        000000000000 DENSO TEN (THAILAND)17067WU000100117074NU0036036                                                                                                                *          20171225 IMCT                IMCT                                                                                                                    WMF1712254.TXT
MDEDHD274631201801                D89828070300PT1D20180105000030SPEAKER ASM                   M IMCTM S5NB082TNTH  07070IMCT  S5 PTB  00015                    1600 SR        000000000000 DENSO TEN (THAILAND)17037RL0012012                                                                                                                              *          20171225 IMCT                IMCT                                                                                                                    WMF1712254.TXT
MDEDHD274632201801                D89828070300PT4D20180105000060SPEAKER ASM                   M IMCTM S9TS02 TNTH  07070IMCT  S9 PTB  00015                    1600 SR        000000000000 DENSO TEN (THAILAND)17067WU000100117074NU0036036                                                                                                                *          20171225 IMCT                IMCT                                                                                                                    WMF1712254.TXT
MDEDHD274633201801                D89831229000PT1D20180105000015RADIO;AM/FM,CD                M IMCTM S5NC06 TNTH  07070IMCT  S5 PTB  00003                    1600 SR        000000000000 DENSO TEN (THAILAND)17037RL0012012                                                                                                                              *          20171225 IMCT                IMCT                                                                                                                    WMF1712254.TXT
MDEDHD274634201801                D89848581800PT4D20180105000015RADIO;AM/FM CD D              M IMCTM S9CO001TNTH  07070IMCT  S9 PTB  00003                    1600 SR        000000000000 DENSO TEN (THAILAND)17074NU0036036                                                                                                                              *          20171225 IMCT                IMCT                                                                                                                    WMF1712254.TXT
MDEUHD273591201801                D89828070100PT4U20180104000030SPEAKER ASM                   M IMCTM S0FL05 TNTH  07070IMCT  S0 PTB  00004                    1600 SR        000000000000 DENSO TEN (THAILAND)18026UU0081081                                                                                                                              *          20171225 IMCT                IMCT                                                                                                                    WMF1712254.TXT
MDEUHD273592201801                D89828070100PT4U20180105000030SPEAKER ASM                   M IMCTM S0FL05 TNTH  07070IMCT  S0 PTB  00004                    1030 SR        000000000000 DENSO TEN (THAILAND)18022TU0103103                                                                                                                              *          20171225 IMCT                IMCT                                                                                                                    WMF1712254.TXT
MDEUHD273593201801                D89828070100PT4U20180105000060SPEAKER ASM                   M IMCTM S0FL05 TNTH  07070IMCT  S0 PTB  00004                    1300 SR        000000000000 DENSO TEN (THAILAND)18022TU010410418026UU0082082                                                                                                                *          20171225 IMCT                IMCT                                                                                                                    WMF1712254.TXT
MDEUHD273594201801                D89828070100PT4U20180105000030SPEAKER ASM                   M IMCTM S0FL05 TNTH  07070IMCT  S0 PTB  00004                    2100 SR        000000000000 DENSO TEN (THAILAND)18023UU0011011                                                                                                                              *          20171225 IMCT                IMCT                                                                                                                    WMF1712254.TXT
MDEUHD273595201801                D89828070100PT4U20180105000030SPEAKER ASM                   M IMCTM S0FL05 TNTH  07070IMCT  S0 PTB  00004                    2230 SR        000000000000 DENSO TEN (THAILAND)18023UU0012012                                                                                                                              *          20171225 IMCT                IMCT                                                                                                                    WMF1712254.TXT
MDEUHD273596201801                D89828070200PV4U20180104000030SPEAKER ASM                   M IMCTM S0FR05 TNTH  07070IMCT  S0 PTB  00005                    1600 SR        000000000000 DENSO TEN (THAILAND)18026UU0081081                                                                                                                              *          20171225 IMCT                IMCT                                                                                                                    WMF1712254.TXT
MDEUHD273597201801                D89828070200PV4U20180105000030SPEAKER ASM                   M IMCTM S0FR05 TNTH  07070IMCT  S0 PTB  00005                    1030 SR        000000000000 DENSO TEN (THAILAND)18022TU0103103                                                                                                                              *          20171225 IMCT                IMCT                                                                                                                    WMF1712254.TXT
MDEUHD273598201801                D89828070200PV4U20180105000060SPEAKER ASM                   M IMCTM S0FR05 TNTH  07070IMCT  S0 PTB  00005                    1300 SR        000000000000 DENSO TEN (THAILAND)18022TU010410418026UU0082082                                                                                                                *          20171225 IMCT                IMCT                                                                                                                    WMF1712254.TXT
MDEUHD273599201801                D89828070200PV4U20180105000030SPEAKER ASM                   M IMCTM S0FR05 TNTH  07070IMCT  S0 PTB  00005                    2100 SR        000000000000 DENSO TEN (THAILAND)18023UU0011011                                                                                                                              *          20171225 IMCT                IMCT                                                                                                                    WMF1712254.TXT
MDEUHD273600201801                D89828070200PV4U20180105000030SPEAKER ASM                   M IMCTM S0FR05 TNTH  07070IMCT  S0 PTB  00005                    2230 SR        000000000000 DENSO TEN (THAILAND)18023UU0012012                                                                                                                              *          20171225 IMCT                IMCT                                                                                                                    WMF1712254.TXT
MDEUHD273601201801                D89828070300PT4U20180104000030SPEAKER ASM                   M IMCTM S9TS02 TNTH  07070IMCT  S9 PTB  00015                    1600 SR        000000000000 DENSO TEN (THAILAND)18026UU0081081                                                                                                                              *          20171225 IMCT                IMCT                                                                                                                    WMF1712254.TXT
MDEUHD273602201801                D89828070300PT4U20180105000030SPEAKER ASM                   M IMCTM S9TS02 TNTH  07070IMCT  S9 PTB  00015                    1030 SR        000000000000 DENSO TEN (THAILAND)18022TU0103103                                                                                                                              *          20171225 IMCT                IMCT                                                                                                                    WMF1712254.TXT
MDEUHD273603201801                D89828070300PT4U20180105000060SPEAKER ASM                   M IMCTM S9TS02 TNTH  07070IMCT  S9 PTB  00015                    1300 SR        000000000000 DENSO TEN (THAILAND)18022TU010410418026UU0082082                                                                                                                *          20171225 IMCT                IMCT                                                                                                                    WMF1712254.TXT
MDEUHD273604201801                D89828070300PT4U20180105000030SPEAKER ASM                   M IMCTM S9TS02 TNTH  07070IMCT  S9 PTB  00015                    2100 SR        000000000000 DENSO TEN (THAILAND)18023UU0011011                                                                                                                              *          20171225 IMCT                IMCT                                                                                                                    WMF1712254.TXT
MDEUHD273605201801                D89828070300PT4U20180105000030SPEAKER ASM                   M IMCTM S9TS02 TNTH  07070IMCT  S9 PTB  00015                    2230 SR        000000000000 DENSO TEN (THAILAND)18023UU0012012                                                                                                                              *          20171225 IMCT                IMCT                                                                                                                    WMF1712254.TXT
