REC2017122120171221ISUZU                              49     
MAKK7D106545201712D1               89805293700P3YK20180105000120SPEAKER ASM                   M IMCTM CM1    TNTH  07070IMKDC KA PTB  00003  K0                0900DES        000000000000 DENSO TEN (THAILAND)                                                                                                                                            *G         20171221 IMCT                IMCT                                                                                                                    WMF1712218.TXT
MAKK7D106546201712D1               89805293700P3YK20180106000150SPEAKER ASM                   M IMCTM CM1    TNTH  07070IMKDC KA PTB  00003  K0                0900DES        000000000000 DENSO TEN (THAILAND)                                                                                                                                            *G         20171221 IMCT                IMCT                                                                                                                    WMF1712218.TXT
MAKK7D106547201712D1               89805293700P3YK20180108000060SPEAKER ASM                   M IMCTM CM1    TNTH  07070IMKDC KA PTB  00003  K0                0900DES        000000000000 DENSO TEN (THAILAND)                                                                                                                                            *G         20171221 IMCT                IMCT                                                                                                                    WMF1712218.TXT
MAKK7D106548201712D1               89805293700P3YK20180109000090SPEAKER ASM                   M IMCTM CM1    TNTH  07070IMKDC KA PTB  00003  K0                0900DES        000000000000 DENSO TEN (THAILAND)                                                                                                                                            *G         20171221 IMCT                IMCT                                                                                                                    WMF1712218.TXT
MAKK7D106549201712D1               89805293700P3YK20180110000180SPEAKER ASM                   M IMCTM CM1    TNTH  07070IMKDC KA PTB  00003  K0                0900DES        000000000000 DENSO TEN (THAILAND)                                                                                                                                            *G         20171221 IMCT                IMCT                                                                                                                    WMF1712218.TXT
MAKK7D106550201712D1               89805293700P3YK20180111000120SPEAKER ASM                   M IMCTM CM1    TNTH  07070IMKDC KA PTB  00003  K0                0900DES        000000000000 DENSO TEN (THAILAND)                                                                                                                                            *G         20171221 IMCT                IMCT                                                                                                                    WMF1712218.TXT
MAKK7D106551201712D1               89805293700P3YK20180112000120SPEAKER ASM                   M IMCTM CM1    TNTH  07070IMKDC KA PTB  00003  K0                0900DES        000000000000 DENSO TEN (THAILAND)                                                                                                                                            *G         20171221 IMCT                IMCT                                                                                                                    WMF1712218.TXT
MAKK7D106552201712D1               89805293700P3YK20180113000090SPEAKER ASM                   M IMCTM CM1    TNTH  07070IMKDC KA PTB  00003  K0                0900DES        000000000000 DENSO TEN (THAILAND)                                                                                                                                            *G         20171221 IMCT                IMCT                                                                                                                    WMF1712218.TXT
MAKK7D106553201712D1               89805294000P3YK20180105000030SPEAKER ASM                   M IMCTM CM1    TNTH  07070IMKDC KA PTB  00015  K0                0900DES        000000000000 DENSO TEN (THAILAND)                                                                                                                                            *G         20171221 IMCT                IMCT                                                                                                                    WMF1712218.TXT
MAKK7D106554201712D1               89805294000P3YK20180106000030SPEAKER ASM                   M IMCTM CM1    TNTH  07070IMKDC KA PTB  00015  K0                0900DES        000000000000 DENSO TEN (THAILAND)                                                                                                                                            *G         20171221 IMCT                IMCT                                                                                                                    WMF1712218.TXT
MAKK7D106555201712D1               89805294000P3YK20180110000030SPEAKER ASM                   M IMCTM CM1    TNTH  07070IMKDC KA PTB  00015  K0                0900DES        000000000000 DENSO TEN (THAILAND)                                                                                                                                            *G         20171221 IMCT                IMCT                                                                                                                    WMF1712218.TXT
MAKK7D106556201712D1               89805294000P3YK20180111000030SPEAKER ASM                   M IMCTM CM1    TNTH  07070IMKDC KA PTB  00015  K0                0900DES        000000000000 DENSO TEN (THAILAND)                                                                                                                                            *G         20171221 IMCT                IMCT                                                                                                                    WMF1712218.TXT
MAKK7D106557201712D1               89805294100P3YK20180105000030SPEAKER ASM                   M IMCTM CM1    TNTH  07070IMKDC KA PTB  00005  K0                0900DES        000000000000 DENSO TEN (THAILAND)                                                                                                                                            *G         20171221 IMCT                IMCT                                                                                                                    WMF1712218.TXT
MAKK7D106558201712D1               89805294100P3YK20180106000030SPEAKER ASM                   M IMCTM CM1    TNTH  07070IMKDC KA PTB  00005  K0                0900DES        000000000000 DENSO TEN (THAILAND)                                                                                                                                            *G         20171221 IMCT                IMCT                                                                                                                    WMF1712218.TXT
MAKK7D106559201712D1               89805294100P3YK20180110000030SPEAKER ASM                   M IMCTM CM1    TNTH  07070IMKDC KA PTB  00005  K0                0900DES        000000000000 DENSO TEN (THAILAND)                                                                                                                                            *G         20171221 IMCT                IMCT                                                                                                                    WMF1712218.TXT
MAKK7D106560201712D1               89805294100P3YK20180111000030SPEAKER ASM                   M IMCTM CM1    TNTH  07070IMKDC KA PTB  00005  K0                0900DES        000000000000 DENSO TEN (THAILAND)                                                                                                                                            *G         20171221 IMCT                IMCT                                                                                                                    WMF1712218.TXT
MAKK7D106561201712D1               89825451200P3YK20180105000090SPEAKER ASM;ROOF              M IMCTM CM1    TNTH  07070IMKDC KA PTB  00036  K0                0900DES        000000000000 DENSO TEN (THAILAND)                                                                                                                                            *G         20171221 IMCT                IMCT                                                                                                                    WMF1712218.TXT
MAKK7D106562201712D1               89825451200P3YK20180106000060SPEAKER ASM;ROOF              M IMCTM CM1    TNTH  07070IMKDC KA PTB  00036  K0                0900DES        000000000000 DENSO TEN (THAILAND)                                                                                                                                            *G         20171221 IMCT                IMCT                                                                                                                    WMF1712218.TXT
MAKK7D106563201712D1               89825451200P3YK20180108000360SPEAKER ASM;ROOF              M IMCTM CM1    TNTH  07070IMKDC KA PTB  00036  K0                0900DES        000000000000 DENSO TEN (THAILAND)                                                                                                                                            *G         20171221 IMCT                IMCT                                                                                                                    WMF1712218.TXT
MAKK7D106564201712D1               89825451200P3YK20180109000060SPEAKER ASM;ROOF              M IMCTM CM1    TNTH  07070IMKDC KA PTB  00036  K0                0900DES        000000000000 DENSO TEN (THAILAND)                                                                                                                                            *G         20171221 IMCT                IMCT                                                                                                                    WMF1712218.TXT
MAKK7D106565201712D1               89825451200P3YK20180111000060SPEAKER ASM;ROOF              M IMCTM CM1    TNTH  07070IMKDC KA PTB  00036  K0                0900DES        000000000000 DENSO TEN (THAILAND)                                                                                                                                            *G         20171221 IMCT                IMCT                                                                                                                    WMF1712218.TXT
MAKK7D106566201712D1               89825451200P3YK20180112000060SPEAKER ASM;ROOF              M IMCTM CM1    TNTH  07070IMKDC KA PTB  00036  K0                0900DES        000000000000 DENSO TEN (THAILAND)                                                                                                                                            *G         20171221 IMCT                IMCT                                                                                                                    WMF1712218.TXT
MAKK7D106567201712D1               89825451200P3YK20180113000090SPEAKER ASM;ROOF              M IMCTM CM1    TNTH  07070IMKDC KA PTB  00036  K0                0900DES        000000000000 DENSO TEN (THAILAND)                                                                                                                                            *G         20171221 IMCT                IMCT                                                                                                                    WMF1712218.TXT
MAKK7D106568201712D1               89828070100P3YK20180105000150SPEAKER ASM                   M IMCTM CM1    TNTH  07070IMKDC KA PTB  00003  K0                0900DES        000000000000 DENSO TEN (THAILAND)                                                                                                                                            *G         20171221 IMCT                IMCT                                                                                                                    WMF1712218.TXT
MAKK7D106569201712D1               89828070100P3YK20180106000150SPEAKER ASM                   M IMCTM CM1    TNTH  07070IMKDC KA PTB  00003  K0                0900DES        000000000000 DENSO TEN (THAILAND)                                                                                                                                            *G         20171221 IMCT                IMCT                                                                                                                    WMF1712218.TXT
MAKK7D106570201712D1               89828070100P3YK20180108000270SPEAKER ASM                   M IMCTM CM1    TNTH  07070IMKDC KA PTB  00003  K0                0900DES        000000000000 DENSO TEN (THAILAND)                                                                                                                                            *G         20171221 IMCT                IMCT                                                                                                                    WMF1712218.TXT
MAKK7D106571201712D1               89828070100P3YK20180109000180SPEAKER ASM                   M IMCTM CM1    TNTH  07070IMKDC KA PTB  00003  K0                0900DES        000000000000 DENSO TEN (THAILAND)                                                                                                                                            *G         20171221 IMCT                IMCT                                                                                                                    WMF1712218.TXT
MAKK7D106572201712D1               89828070100P3YK20180110000120SPEAKER ASM                   M IMCTM CM1    TNTH  07070IMKDC KA PTB  00003  K0                0900DES        000000000000 DENSO TEN (THAILAND)                                                                                                                                            *G         20171221 IMCT                IMCT                                                                                                                    WMF1712218.TXT
MAKK7D106573201712D1               89828070100P3YK20180111000210SPEAKER ASM                   M IMCTM CM1    TNTH  07070IMKDC KA PTB  00003  K0                0900DES        000000000000 DENSO TEN (THAILAND)                                                                                                                                            *G         20171221 IMCT                IMCT                                                                                                                    WMF1712218.TXT
MAKK7D106574201712D1               89828070100P3YK20180112000150SPEAKER ASM                   M IMCTM CM1    TNTH  07070IMKDC KA PTB  00003  K0                0900DES        000000000000 DENSO TEN (THAILAND)                                                                                                                                            *G         20171221 IMCT                IMCT                                                                                                                    WMF1712218.TXT
MAKK7D106575201712D1               89828070100P3YK20180113000210SPEAKER ASM                   M IMCTM CM1    TNTH  07070IMKDC KA PTB  00004  K0                0900DES        000000000000 DENSO TEN (THAILAND)                                                                                                                                            *G         20171221 IMCT                IMCT                                                                                                                    WMF1712218.TXT
MAKK7D106576201712D1               89828070200P3YK20180105000090SPEAKER ASM                   M IMCTM CM1    TNTH  07070IMKDC KA PTB  00005  K0                0900DES        000000000000 DENSO TEN (THAILAND)                                                                                                                                            *G         20171221 IMCT                IMCT                                                                                                                    WMF1712218.TXT
MAKK7D106577201712D1               89828070200P3YK20180106000030SPEAKER ASM                   M IMCTM CM1    TNTH  07070IMKDC KA PTB  00005  K0                0900DES        000000000000 DENSO TEN (THAILAND)                                                                                                                                            *G         20171221 IMCT                IMCT                                                                                                                    WMF1712218.TXT
MAKK7D106578201712D1               89828070200P3YK20180108000090SPEAKER ASM                   M IMCTM CM1    TNTH  07070IMKDC KA PTB  00005  K0                0900DES        000000000000 DENSO TEN (THAILAND)                                                                                                                                            *G         20171221 IMCT                IMCT                                                                                                                    WMF1712218.TXT
MAKK7D106579201712D1               89828070200P3YK20180109000060SPEAKER ASM                   M IMCTM CM1    TNTH  07070IMKDC KA PTB  00005  K0                0900DES        000000000000 DENSO TEN (THAILAND)                                                                                                                                            *G         20171221 IMCT                IMCT                                                                                                                    WMF1712218.TXT
MAKK7D106580201712D1               89828070200P3YK20180110000030SPEAKER ASM                   M IMCTM CM1    TNTH  07070IMKDC KA PTB  00005  K0                0900DES        000000000000 DENSO TEN (THAILAND)                                                                                                                                            *G         20171221 IMCT                IMCT                                                                                                                    WMF1712218.TXT
MAKK7D106581201712D1               89828070200P3YK20180111000090SPEAKER ASM                   M IMCTM CM1    TNTH  07070IMKDC KA PTB  00005  K0                0900DES        000000000000 DENSO TEN (THAILAND)                                                                                                                                            *G         20171221 IMCT                IMCT                                                                                                                    WMF1712218.TXT
MAKK7D106582201712D1               89828070200P3YK20180112000060SPEAKER ASM                   M IMCTM CM1    TNTH  07070IMKDC KA PTB  00005  K0                0900DES        000000000000 DENSO TEN (THAILAND)                                                                                                                                            *G         20171221 IMCT                IMCT                                                                                                                    WMF1712218.TXT
MAKK7D106583201712D1               89828070200P3YK20180113000090SPEAKER ASM                   M IMCTM CM1    TNTH  07070IMKDC KA PTB  00005  K0                0900DES        000000000000 DENSO TEN (THAILAND)                                                                                                                                            *G         20171221 IMCT                IMCT                                                                                                                    WMF1712218.TXT
MAKK7D106584201712D1               89828070300P3YK20180105000120SPEAKER ASM                   M IMCTM CM1    TNTH  07070IMKDC KA PTB  00015  K0                0900DES        000000000000 DENSO TEN (THAILAND)                                                                                                                                            *G         20171221 IMCT                IMCT                                                                                                                    WMF1712218.TXT
MAKK7D106585201712D1               89828070300P3YK20180106000030SPEAKER ASM                   M IMCTM CM1    TNTH  07070IMKDC KA PTB  00015  K0                0900DES        000000000000 DENSO TEN (THAILAND)                                                                                                                                            *G         20171221 IMCT                IMCT                                                                                                                    WMF1712218.TXT
MAKK7D106586201712D1               89828070300P3YK20180108000180SPEAKER ASM                   M IMCTM CM1    TNTH  07070IMKDC KA PTB  00015  K0                0900DES        000000000000 DENSO TEN (THAILAND)                                                                                                                                            *G         20171221 IMCT                IMCT                                                                                                                    WMF1712218.TXT
MAKK7D106587201712D1               89828070300P3YK20180109000090SPEAKER ASM                   M IMCTM CM1    TNTH  07070IMKDC KA PTB  00015  K0                0900DES        000000000000 DENSO TEN (THAILAND)                                                                                                                                            *G         20171221 IMCT                IMCT                                                                                                                    WMF1712218.TXT
MAKK7D106588201712D1               89828070300P3YK20180110000030SPEAKER ASM                   M IMCTM CM1    TNTH  07070IMKDC KA PTB  00015  K0                0900DES        000000000000 DENSO TEN (THAILAND)                                                                                                                                            *G         20171221 IMCT                IMCT                                                                                                                    WMF1712218.TXT
MAKK7D106589201712D1               89828070300P3YK20180111000120SPEAKER ASM                   M IMCTM CM1    TNTH  07070IMKDC KA PTB  00015  K0                0900DES        000000000000 DENSO TEN (THAILAND)                                                                                                                                            *G         20171221 IMCT                IMCT                                                                                                                    WMF1712218.TXT
MAKK7D106590201712D1               89828070300P3YK20180112000060SPEAKER ASM                   M IMCTM CM1    TNTH  07070IMKDC KA PTB  00015  K0                0900DES        000000000000 DENSO TEN (THAILAND)                                                                                                                                            *G         20171221 IMCT                IMCT                                                                                                                    WMF1712218.TXT
MAKK7D106591201712D1               89828070300P3YK20180113000120SPEAKER ASM                   M IMCTM CM1    TNTH  07070IMKDC KA PTB  00015  K0                0900DES        000000000000 DENSO TEN (THAILAND)                                                                                                                                            *G         20171221 IMCT                IMCT                                                                                                                    WMF1712218.TXT
MAKK7D106592201712D1               89831228700P3YK20180108000030RADIO;AM/FM,CD                M IMCTM CM1    TNTH  07070IMKDC KA*PTB  00003  K0                0900DES        000000000000 DENSO TEN (THAILAND)                                                                                                                                            *G         20171221 IMCT                IMCT                                                                                                                    WMF1712218.TXT
MAKK7D106593201712D1               89831228700P3YK20180113000015RADIO;AM/FM,CD                M IMCTM CM1    TNTH  07070IMKDC KA PTB  00003  K0                0900DES        000000000000 DENSO TEN (THAILAND)                                                                                                                                            *G         20171221 IMCT                IMCT                                                                                                                    WMF1712218.TXT
