REC2017113020171130ISUZU                              40     
MAKK7N136505201711D1               89805293700P3YK20171211000090SPEAKER ASM                   M IMCTM CM1    TNTH  07070IMKDC KA PTB  00003  K0                0900DES        000000000000 DENSO TEN (THAILAND)                                                                                                                                             G         20171130 IMCT                IMCT                                                                                                                    WMF1711305.TXT
MAKK7N136506201711D1               89805293700P3YK20171212000120SPEAKER ASM                   M IMCTM CM1    TNTH  07070IMKDC KA PTB  00003  K0                0900DES        000000000000 DENSO TEN (THAILAND)                                                                                                                                             G         20171130 IMCT                IMCT                                                                                                                    WMF1711305.TXT
MAKK7N136507201711D1               89805293700P3YK20171213000090SPEAKER ASM                   M IMCTM CM1    TNTH  07070IMKDC KA PTB  00003  K0                0900DES        000000000000 DENSO TEN (THAILAND)                                                                                                                                             G         20171130 IMCT                IMCT                                                                                                                    WMF1711305.TXT
MAKK7N136508201711D1               89805293700P3YK20171214000120SPEAKER ASM                   M IMCTM CM1    TNTH  07070IMKDC KA PTB  00003  K0                0900DES        000000000000 DENSO TEN (THAILAND)                                                                                                                                             G         20171130 IMCT                IMCT                                                                                                                    WMF1711305.TXT
MAKK7N136509201711D1               89805293700P3YK20171215000120SPEAKER ASM                   M IMCTM CM1    TNTH  07070IMKDC KA PTB  00003  K0                0900DES        000000000000 DENSO TEN (THAILAND)                                                                                                                                             G         20171130 IMCT                IMCT                                                                                                                    WMF1711305.TXT
MAKK7N136510201711D1               89805293700P3YK20171216000120SPEAKER ASM                   M IMCTM CM1    TNTH  07070IMKDC KA PTB  00003  K0                0900DES        000000000000 DENSO TEN (THAILAND)                                                                                                                                             G         20171130 IMCT                IMCT                                                                                                                    WMF1711305.TXT
MAKK7N136511201711D1               89805294000P3YK20171211000060SPEAKER ASM                   M IMCTM CM1    TNTH  07070IMKDC KA PTB  00015  K0                0900DES        000000000000 DENSO TEN (THAILAND)                                                                                                                                             G         20171130 IMCT                IMCT                                                                                                                    WMF1711305.TXT
MAKK7N136512201711D1               89805294000P3YK20171212000060SPEAKER ASM                   M IMCTM CM1    TNTH  07070IMKDC KA PTB  00015  K0                0900DES        000000000000 DENSO TEN (THAILAND)                                                                                                                                             G         20171130 IMCT                IMCT                                                                                                                    WMF1711305.TXT
MAKK7N136513201711D1               89805294000P3YK20171215000060SPEAKER ASM                   M IMCTM CM1    TNTH  07070IMKDC KA PTB  00015  K0                0900DES        000000000000 DENSO TEN (THAILAND)                                                                                                                                             G         20171130 IMCT                IMCT                                                                                                                    WMF1711305.TXT
MAKK7N136514201711D1               89805294000P3YK20171216000030SPEAKER ASM                   M IMCTM CM1    TNTH  07070IMKDC KA PTB  00015  K0                0900DES        000000000000 DENSO TEN (THAILAND)                                                                                                                                             G         20171130 IMCT                IMCT                                                                                                                    WMF1711305.TXT
MAKK7N136515201711D1               89805294100P3YK20171211000060SPEAKER ASM                   M IMCTM CM1    TNTH  07070IMKDC KA PTB  00005  K0                0900DES        000000000000 DENSO TEN (THAILAND)                                                                                                                                             G         20171130 IMCT                IMCT                                                                                                                    WMF1711305.TXT
MAKK7N136516201711D1               89805294100P3YK20171212000060SPEAKER ASM                   M IMCTM CM1    TNTH  07070IMKDC KA PTB  00005  K0                0900DES        000000000000 DENSO TEN (THAILAND)                                                                                                                                             G         20171130 IMCT                IMCT                                                                                                                    WMF1711305.TXT
MAKK7N136517201711D1               89805294100P3YK20171215000060SPEAKER ASM                   M IMCTM CM1    TNTH  07070IMKDC KA PTB  00005  K0                0900DES        000000000000 DENSO TEN (THAILAND)                                                                                                                                             G         20171130 IMCT                IMCT                                                                                                                    WMF1711305.TXT
MAKK7N136518201711D1               89805294100P3YK20171216000030SPEAKER ASM                   M IMCTM CM1    TNTH  07070IMKDC KA PTB  00005  K0                0900DES        000000000000 DENSO TEN (THAILAND)                                                                                                                                             G         20171130 IMCT                IMCT                                                                                                                    WMF1711305.TXT
MAKK7N136519201711D1               89825451200P3YK20171211000090SPEAKER ASM;ROOF              M IMCTM CM1    TNTH  07070IMKDC KA PTB  00036  K0                0900DES        000000000000 DENSO TEN (THAILAND)                                                                                                                                             G         20171130 IMCT                IMCT                                                                                                                    WMF1711305.TXT
MAKK7N136520201711D1               89825451200P3YK20171212000060SPEAKER ASM;ROOF              M IMCTM CM1    TNTH  07070IMKDC KA PTB  00036  K0                0900DES        000000000000 DENSO TEN (THAILAND)                                                                                                                                             G         20171130 IMCT                IMCT                                                                                                                    WMF1711305.TXT
MAKK7N136521201711D1               89825451200P3YK20171213000090SPEAKER ASM;ROOF              M IMCTM CM1    TNTH  07070IMKDC KA PTB  00036  K0                0900DES        000000000000 DENSO TEN (THAILAND)                                                                                                                                             G         20171130 IMCT                IMCT                                                                                                                    WMF1711305.TXT
MAKK7N136522201711D1               89825451200P3YK20171214000120SPEAKER ASM;ROOF              M IMCTM CM1    TNTH  07070IMKDC KA PTB  00036  K0                0900DES        000000000000 DENSO TEN (THAILAND)                                                                                                                                             G         20171130 IMCT                IMCT                                                                                                                    WMF1711305.TXT
MAKK7N136523201711D1               89825451200P3YK20171215000030SPEAKER ASM;ROOF              M IMCTM CM1    TNTH  07070IMKDC KA PTB  00036  K0                0900DES        000000000000 DENSO TEN (THAILAND)                                                                                                                                             G         20171130 IMCT                IMCT                                                                                                                    WMF1711305.TXT
MAKK7N136524201711D1               89825451200P3YK20171216000060SPEAKER ASM;ROOF              M IMCTM CM1    TNTH  07070IMKDC KA PTB  00036  K0                0900DES        000000000000 DENSO TEN (THAILAND)                                                                                                                                             G         20171130 IMCT                IMCT                                                                                                                    WMF1711305.TXT
MAKK7N136525201711D1               89828070100P3YK20171211000150SPEAKER ASM                   M IMCTM CM1    TNTH  07070IMKDC KA PTB  00003  K0                0900DES        000000000000 DENSO TEN (THAILAND)                                                                                                                                             G         20171130 IMCT                IMCT                                                                                                                    WMF1711305.TXT
MAKK7N136526201711D1               89828070100P3YK20171212000180SPEAKER ASM                   M IMCTM CM1    TNTH  07070IMKDC KA PTB  00003  K0                0900DES        000000000000 DENSO TEN (THAILAND)                                                                                                                                             G         20171130 IMCT                IMCT                                                                                                                    WMF1711305.TXT
MAKK7N136527201711D1               89828070100P3YK20171213000180SPEAKER ASM                   M IMCTM CM1    TNTH  07070IMKDC KA PTB  00003  K0                0900DES        000000000000 DENSO TEN (THAILAND)                                                                                                                                             G         20171130 IMCT                IMCT                                                                                                                    WMF1711305.TXT
MAKK7N136528201711D1               89828070100P3YK20171214000150SPEAKER ASM                   M IMCTM CM1    TNTH  07070IMKDC KA PTB  00003  K0                0900DES        000000000000 DENSO TEN (THAILAND)                                                                                                                                             G         20171130 IMCT                IMCT                                                                                                                    WMF1711305.TXT
MAKK7N136529201711D1               89828070100P3YK20171215000180SPEAKER ASM                   M IMCTM CM1    TNTH  07070IMKDC KA PTB  00003  K0                0900DES        000000000000 DENSO TEN (THAILAND)                                                                                                                                             G         20171130 IMCT                IMCT                                                                                                                    WMF1711305.TXT
MAKK7N136530201711D1               89828070100P3YK20171216000120SPEAKER ASM                   M IMCTM CM1    TNTH  07070IMKDC KA PTB  00003  K0                0900DES        000000000000 DENSO TEN (THAILAND)                                                                                                                                             G         20171130 IMCT                IMCT                                                                                                                    WMF1711305.TXT
MAKK7N136531201711D1               89828070200P3YK20171211000090SPEAKER ASM                   M IMCTM CM1    TNTH  07070IMKDC KA PTB  00005  K0                0900DES        000000000000 DENSO TEN (THAILAND)                                                                                                                                             G         20171130 IMCT                IMCT                                                                                                                    WMF1711305.TXT
MAKK7N136532201711D1               89828070200P3YK20171212000090SPEAKER ASM                   M IMCTM CM1    TNTH  07070IMKDC KA PTB  00005  K0                0900DES        000000000000 DENSO TEN (THAILAND)                                                                                                                                             G         20171130 IMCT                IMCT                                                                                                                    WMF1711305.TXT
MAKK7N136533201711D1               89828070200P3YK20171213000090SPEAKER ASM                   M IMCTM CM1    TNTH  07070IMKDC KA PTB  00005  K0                0900DES        000000000000 DENSO TEN (THAILAND)                                                                                                                                             G         20171130 IMCT                IMCT                                                                                                                    WMF1711305.TXT
MAKK7N136534201711D1               89828070200P3YK20171214000090SPEAKER ASM                   M IMCTM CM1    TNTH  07070IMKDC KA PTB  00005  K0                0900DES        000000000000 DENSO TEN (THAILAND)                                                                                                                                             G         20171130 IMCT                IMCT                                                                                                                    WMF1711305.TXT
MAKK7N136535201711D1               89828070200P3YK20171215000090SPEAKER ASM                   M IMCTM CM1    TNTH  07070IMKDC KA PTB  00005  K0                0900DES        000000000000 DENSO TEN (THAILAND)                                                                                                                                             G         20171130 IMCT                IMCT                                                                                                                    WMF1711305.TXT
MAKK7N136536201711D1               89828070200P3YK20171216000090SPEAKER ASM                   M IMCTM CM1    TNTH  07070IMKDC KA PTB  00005  K0                0900DES        000000000000 DENSO TEN (THAILAND)                                                                                                                                             G         20171130 IMCT                IMCT                                                                                                                    WMF1711305.TXT
MAKK7N136537201711D1               89828070300P3YK20171211000090SPEAKER ASM                   M IMCTM CM1    TNTH  07070IMKDC KA PTB  00015  K0                0900DES        000000000000 DENSO TEN (THAILAND)                                                                                                                                             G         20171130 IMCT                IMCT                                                                                                                    WMF1711305.TXT
MAKK7N136538201711D1               89828070300P3YK20171212000120SPEAKER ASM                   M IMCTM CM1    TNTH  07070IMKDC KA PTB  00015  K0                0900DES        000000000000 DENSO TEN (THAILAND)                                                                                                                                             G         20171130 IMCT                IMCT                                                                                                                    WMF1711305.TXT
MAKK7N136539201711D1               89828070300P3YK20171213000150SPEAKER ASM                   M IMCTM CM1    TNTH  07070IMKDC KA PTB  00015  K0                0900DES        000000000000 DENSO TEN (THAILAND)                                                                                                                                             G         20171130 IMCT                IMCT                                                                                                                    WMF1711305.TXT
MAKK7N136540201711D1               89828070300P3YK20171214000150SPEAKER ASM                   M IMCTM CM1    TNTH  07070IMKDC KA PTB  00015  K0                0900DES        000000000000 DENSO TEN (THAILAND)                                                                                                                                             G         20171130 IMCT                IMCT                                                                                                                    WMF1711305.TXT
MAKK7N136541201711D1               89828070300P3YK20171215000090SPEAKER ASM                   M IMCTM CM1    TNTH  07070IMKDC KA PTB  00015  K0                0900DES        000000000000 DENSO TEN (THAILAND)                                                                                                                                             G         20171130 IMCT                IMCT                                                                                                                    WMF1711305.TXT
MAKK7N136542201711D1               89828070300P3YK20171216000090SPEAKER ASM                   M IMCTM CM1    TNTH  07070IMKDC KA PTB  00015  K0                0900DES        000000000000 DENSO TEN (THAILAND)                                                                                                                                             G         20171130 IMCT                IMCT                                                                                                                    WMF1711305.TXT
MAKK7N136543201711D1               89834050100P3YK20171214000015RADIO;ASM DVD                 M IMCTM CM1    TNTH  07070IMKDC KA*X    00012  K0                0900DES        000000000000 DENSO TEN (THAILAND)                                                                                                                                             G         20171130 IMCT                IMCT                                                                                                                    WMF1711305.TXT
MAKK7N136544201711D1               89834050100P3YK20171216000015RADIO;ASM DVD                 M IMCTM CM1    TNTH  07070IMKDC KA X    00012  K0                0900DES        000000000000 DENSO TEN (THAILAND)                                                                                                                                             G         20171130 IMCT                IMCT                                                                                                                    WMF1711305.TXT
