REC2017120720171207ISUZU                              63     
MDDDHD224768201712                D89821984430PT1D20171212000030RADIO;AM/FM,CD                M IMCTM S5NC06 TNTH  07070IMCT  S5 PTB  00005                    0230 SR        000000000000 DENSO TEN (THAILAND)180LPAL0040040                                                                                                                              *          20171207 IMCT                IMCT                                                                                                                    WMF1712075.TXT
MDDDHD224769201712                D89821984430PT1D20171212000030RADIO;AM/FM,CD                M IMCTM S5NC06 TNTH  07070IMCT  S5 PTB  00005                    0830 SR        000000000000 DENSO TEN (THAILAND)180LNGL0045045                                                                                                                              *          20171207 IMCT                IMCT                                                                                                                    WMF1712075.TXT
MDDDHD224770201712                D89821984430PT1D20171212000060RADIO;AM/FM,CD                M IMCTM S5NC06 TNTH  07070IMCT  S5 PTB  00005                    1300 SR        000000000000 DENSO TEN (THAILAND)180LRAL0068069                                                                                                                              *          20171207 IMCT                IMCT                                                                                                                    WMF1712075.TXT
MDDDHD224771201712                D89821984430PT1D20171212000060RADIO;AM/FM,CD                M IMCTM S5NC06 TNTH  07070IMCT  S5 PTB  00005                    1600 SR        000000000000 DENSO TEN (THAILAND)180LNGL0046046180LRAL0070070                                                                                                                *          20171207 IMCT                IMCT                                                                                                                    WMF1712075.TXT
MDDDHD224772201712                D89828070100PV1D20171211000060SPEAKER ASM                   M IMCTM S5MB11 TNTH  07070IMCT  S5 PTB  00004                    2230 SR        000000000000 DENSO TEN (THAILAND)180LPKL0027027                                                                                                                              *          20171207 IMCT                IMCT                                                                                                                    WMF1712075.TXT
MDDDHD224773201712                D89828070100PV1D20171212000060SPEAKER ASM                   M IMCTM S5MB11 TNTH  07070IMCT  S5 PTB  00004                    0230 SR        000000000000 DENSO TEN (THAILAND)180LPAL0040040                                                                                                                              *          20171207 IMCT                IMCT                                                                                                                    WMF1712075.TXT
MDDDHD224774201712                D89828070100PV1D20171212000060SPEAKER ASM                   M IMCTM S5MB11 TNTH  07070IMCT  S5 PTB  00004                    0830 SR        000000000000 DENSO TEN (THAILAND)180LNGL0045045                                                                                                                              *          20171207 IMCT                IMCT                                                                                                                    WMF1712075.TXT
MDDDHD224775201712                D89828070100PV1D20171212000060SPEAKER ASM                   M IMCTM S5MB11 TNTH  07070IMCT  S5 PTB  00004                    1030 SR        000000000000 DENSO TEN (THAILAND)180LPGL0117117                                                                                                                              *          20171207 IMCT                IMCT                                                                                                                    WMF1712075.TXT
MDDDHD224776201712                D89828070100PV1D20171212000120SPEAKER ASM                   M IMCTM S5MB11 TNTH  07070IMCT  S5 PTB  00004                    1300 SR        000000000000 DENSO TEN (THAILAND)180LRAL0068069                                                                                                                              *          20171207 IMCT                IMCT                                                                                                                    WMF1712075.TXT
MDDDHD224777201712                D89828070100PV1D20171212000180SPEAKER ASM                   M IMCTM S5MB11 TNTH  07070IMCT  S5 PTB  00004                    1600 SR        000000000000 DENSO TEN (THAILAND)180LNGL0046046180LPGL0118118180LRAL0070070                                                                                                  *          20171207 IMCT                IMCT                                                                                                                    WMF1712075.TXT
MDDDHD224778201712                D89828070100PV4D20171212000060SPEAKER ASM                   M IMCTM S0FL05 TNTH  07070IMCT  S0 PTB  00004                    1600 SR        000000000000 DENSO TEN (THAILAND)180LRSU0020020                                                                                                                              *          20171207 IMCT                IMCT                                                                                                                    WMF1712075.TXT
MDDDHD224779201712                D89828070200PV4D20171212000060SPEAKER ASM                   M IMCTM S0FR05 TNTH  07070IMCT  S0 PTB  00005                    1600 SR        000000000000 DENSO TEN (THAILAND)180LRSU0020020                                                                                                                              *          20171207 IMCT                IMCT                                                                                                                    WMF1712075.TXT
MDDDHD224780201712                D89828070300PT1D20171211000060SPEAKER ASM                   M IMCTM S5NB082TNTH  07070IMCT  S5 PTB  00015                    2230 SR        000000000000 DENSO TEN (THAILAND)180LPKL0027027                                                                                                                              *          20171207 IMCT                IMCT                                                                                                                    WMF1712075.TXT
MDDDHD224781201712                D89828070300PT1D20171212000060SPEAKER ASM                   M IMCTM S5NB082TNTH  07070IMCT  S5 PTB  00015                    1030 SR        000000000000 DENSO TEN (THAILAND)180LPGL0117117                                                                                                                              *          20171207 IMCT                IMCT                                                                                                                    WMF1712075.TXT
MDDDHD224782201712                D89828070300PT1D20171212000060SPEAKER ASM                   M IMCTM S5NB082TNTH  07070IMCT  S5 PTB  00015                    1600 SR        000000000000 DENSO TEN (THAILAND)180LPGL0118118                                                                                                                              *          20171207 IMCT                IMCT                                                                                                                    WMF1712075.TXT
MDDDHD224783201712                D89828070300PT4D20171212000060SPEAKER ASM                   M IMCTM S9TS02 TNTH  07070IMCT  S9 PTB  00015                    1600 SR        000000000000 DENSO TEN (THAILAND)180LRSU0020020                                                                                                                              *          20171207 IMCT                IMCT                                                                                                                    WMF1712075.TXT
MDDDHD224784201712                D89831228300PT1D20171212000030RADIO;AM/FM,CD                M IMCTM S5NC06 TNTH  07070IMCT  S5 CPB  00003                    1030 SR        000000000000 DENSO TEN (THAILAND)180LPGL0117117                                                                                                                              *          20171207 IMCT                IMCT                                                                                                                    WMF1712075.TXT
MDDDHD224785201712                D89831228300PT1D20171212000030RADIO;AM/FM,CD                M IMCTM S5NC06 TNTH  07070IMCT  S5 CPB  00003                    1600 SR        000000000000 DENSO TEN (THAILAND)180LPGL0118118                                                                                                                              *          20171207 IMCT                IMCT                                                                                                                    WMF1712075.TXT
MDDDHD224786201712                D89848581600PT1D20171211000030RADIO;AM/FM CD D              M IMCTM S5NC06 TNTH  07070IMCT  S5 PTB  00003                    2230 SR        000000000000 DENSO TEN (THAILAND)180LPKL0027027                                                                                                                              *          20171207 IMCT                IMCT                                                                                                                    WMF1712075.TXT
MDDUHD214965201712                D89828070100PT4U20171212000030SPEAKER ASM                   M IMCTM S0FL05 TNTH  07070IMCT  S0 PTB  00004                    0230 SR        000000000000 DENSO TEN (THAILAND)180LUKU0070070                                                                                                                              *          20171207 IMCT                IMCT                                                                                                                    WMF1712075.TXT
MDDUHD214966201712                D89828070100PT4U20171212000030SPEAKER ASM                   M IMCTM S0FL05 TNTH  07070IMCT  S0 PTB  00004                    0830 SR        000000000000 DENSO TEN (THAILAND)180LUEU0213213                                                                                                                              *          20171207 IMCT                IMCT                                                                                                                    WMF1712075.TXT
MDDUHD214967201712                D89828070100PT4U20171212000030SPEAKER ASM                   M IMCTM S0FL05 TNTH  07070IMCT  S0 PTB  00004                    1300 SR        000000000000 DENSO TEN (THAILAND)180LUKU0071071                                                                                                                              *          20171207 IMCT                IMCT                                                                                                                    WMF1712075.TXT
MDDUHD214968201712                D89828070100PT4U20171212000060SPEAKER ASM                   M IMCTM S0FL05 TNTH  07070IMCT  S0 PTB  00004                    1600 SR        000000000000 DENSO TEN (THAILAND)180LUEU0214214180LUKU0072072                                                                                                                *          20171207 IMCT                IMCT                                                                                                                    WMF1712075.TXT
MDDUHD214969201712                D89828070100PT4U20171212000030SPEAKER ASM                   M IMCTM S0FL05 TNTH  07070IMCT  S0 PTB  00004                    2230 SR        000000000000 DENSO TEN (THAILAND)180LUEU0215215                                                                                                                              *          20171207 IMCT                IMCT                                                                                                                    WMF1712075.TXT
MDDUHD214970201712                D89828070200PV4U20171212000030SPEAKER ASM                   M IMCTM S0FR05 TNTH  07070IMCT  S0 PTB  00005                    0230 SR        000000000000 DENSO TEN (THAILAND)180LUKU0070070                                                                                                                              *          20171207 IMCT                IMCT                                                                                                                    WMF1712075.TXT
MDDUHD214971201712                D89828070200PV4U20171212000030SPEAKER ASM                   M IMCTM S0FR05 TNTH  07070IMCT  S0 PTB  00005                    0830 SR        000000000000 DENSO TEN (THAILAND)180LUEU0213213                                                                                                                              *          20171207 IMCT                IMCT                                                                                                                    WMF1712075.TXT
MDDUHD214972201712                D89828070200PV4U20171212000030SPEAKER ASM                   M IMCTM S0FR05 TNTH  07070IMCT  S0 PTB  00005                    1300 SR        000000000000 DENSO TEN (THAILAND)180LUKU0071071                                                                                                                              *          20171207 IMCT                IMCT                                                                                                                    WMF1712075.TXT
MDDUHD214973201712                D89828070200PV4U20171212000060SPEAKER ASM                   M IMCTM S0FR05 TNTH  07070IMCT  S0 PTB  00005                    1600 SR        000000000000 DENSO TEN (THAILAND)180LUEU0214214180LUKU0072072                                                                                                                *          20171207 IMCT                IMCT                                                                                                                    WMF1712075.TXT
MDDUHD214974201712                D89828070200PV4U20171212000030SPEAKER ASM                   M IMCTM S0FR05 TNTH  07070IMCT  S0 PTB  00005                    2230 SR        000000000000 DENSO TEN (THAILAND)180LUEU0215215                                                                                                                              *          20171207 IMCT                IMCT                                                                                                                    WMF1712075.TXT
MDDUHD214975201712                D89828070300PT4U20171212000030SPEAKER ASM                   M IMCTM S9TS02 TNTH  07070IMCT  S9 PTB  00015                    0230 SR        000000000000 DENSO TEN (THAILAND)180LUKU0070070                                                                                                                              *          20171207 IMCT                IMCT                                                                                                                    WMF1712075.TXT
MDDUHD214976201712                D89828070300PT4U20171212000030SPEAKER ASM                   M IMCTM S9TS02 TNTH  07070IMCT  S9 PTB  00015                    0830 SR        000000000000 DENSO TEN (THAILAND)180LUEU0213213                                                                                                                              *          20171207 IMCT                IMCT                                                                                                                    WMF1712075.TXT
MDDUHD214977201712                D89828070300PT4U20171212000030SPEAKER ASM                   M IMCTM S9TS02 TNTH  07070IMCT  S9 PTB  00015                    1300 SR        000000000000 DENSO TEN (THAILAND)180LUKU0071071                                                                                                                              *          20171207 IMCT                IMCT                                                                                                                    WMF1712075.TXT
MDDUHD214978201712                D89828070300PT4U20171212000060SPEAKER ASM                   M IMCTM S9TS02 TNTH  07070IMCT  S9 PTB  00015                    1600 SR        000000000000 DENSO TEN (THAILAND)180LUEU0214214180LUKU0072072                                                                                                                *          20171207 IMCT                IMCT                                                                                                                    WMF1712075.TXT
MDDUHD214979201712                D89828070300PT4U20171212000030SPEAKER ASM                   M IMCTM S9TS02 TNTH  07070IMCT  S9 PTB  00015                    2230 SR        000000000000 DENSO TEN (THAILAND)180LUEU0215215                                                                                                                              *          20171207 IMCT                IMCT                                                                                                                    WMF1712075.TXT
MDEDHD219202201712                D89828070100PV1D20171212000030SPEAKER ASM                   M IMCTM S5MB11 TNTH  07070IMCT  S5 PTB  00004                    0230 SR        000000000000 DENSO TEN (THAILAND)17074NL0087087                                                                                                                              *          20171207 IMCT                IMCT                                                                                                                    WMF1712075.TXT
MDEDHD219203201712                D89828070100PV1D20171212000090SPEAKER ASM                   M IMCTM S5MB11 TNTH  07070IMCT  S5 PTB  00004                    0400 SR        000000000000 DENSO TEN (THAILAND)17053NL006406517075NL0023023                                                                                                                *          20171207 IMCT                IMCT                                                                                                                    WMF1712075.TXT
MDEDHD219204201712                D89828070100PV1D20171212000030SPEAKER ASM                   M IMCTM S5MB11 TNTH  07070IMCT  S5 PTB  00004                    0830 SR        000000000000 DENSO TEN (THAILAND)17075NL0024024                                                                                                                              *          20171207 IMCT                IMCT                                                                                                                    WMF1712075.TXT
MDEDHD219205201712                D89828070100PV1D20171212000030SPEAKER ASM                   M IMCTM S5MB11 TNTH  07070IMCT  S5 PTB  00004                    1600 SR        000000000000 DENSO TEN (THAILAND)17068NL0028028                                                                                                                              *          20171207 IMCT                IMCT                                                                                                                    WMF1712075.TXT
MDEDHD219206201712                D89828070100PV1D20171212000030SPEAKER ASM                   M IMCTM S5MB11 TNTH  07070IMCT  S5 PTB  00004                    2100 SR        000000000000 DENSO TEN (THAILAND)18007ZL0021021                                                                                                                              *          20171207 IMCT                IMCT                                                                                                                    WMF1712075.TXT
MDEDHD219207201712                D89828070100PV4D20171211000030SPEAKER ASM                   M IMCTM S0FL05 TNTH  07070IMCT  S0 PTB  00004                    2230 SR        000000000000 DENSO TEN (THAILAND)18010ZU0004004                                                                                                                              *          20171207 IMCT                IMCT                                                                                                                    WMF1712075.TXT
MDEDHD219208201712                D89828070100PV4D20171212000030SPEAKER ASM                   M IMCTM S0FL05 TNTH  07070IMCT  S0 PTB  00004                    1300 SR        000000000000 DENSO TEN (THAILAND)18007ZU0005005                                                                                                                              *          20171207 IMCT                IMCT                                                                                                                    WMF1712075.TXT
MDEDHD219209201712                D89828070200PV1D20171212000030SPEAKER ASM                   M IMCTM S5MA14 TNTH  07070IMCT  S5 PTB  00005                    0230 SR        000000000000 DENSO TEN (THAILAND)17074NL0087087                                                                                                                              *          20171207 IMCT                IMCT                                                                                                                    WMF1712075.TXT
MDEDHD219210201712                D89828070200PV1D20171212000030SPEAKER ASM                   M IMCTM S5MA14 TNTH  07070IMCT  S5 PTB  00005                    0400 SR        000000000000 DENSO TEN (THAILAND)17075NL0023023                                                                                                                              *          20171207 IMCT                IMCT                                                                                                                    WMF1712075.TXT
MDEDHD219211201712                D89828070200PV1D20171212000030SPEAKER ASM                   M IMCTM S5MA14 TNTH  07070IMCT  S5 PTB  00005                    0830 SR        000000000000 DENSO TEN (THAILAND)17075NL0024024                                                                                                                              *          20171207 IMCT                IMCT                                                                                                                    WMF1712075.TXT
MDEDHD219212201712                D89828070300PT1D20171212000030SPEAKER ASM                   M IMCTM S5NB082TNTH  07070IMCT  S5 PTB  00015                    0230 SR        000000000000 DENSO TEN (THAILAND)17074NL0087087                                                                                                                              *          20171207 IMCT                IMCT                                                                                                                    WMF1712075.TXT
MDEDHD219213201712                D89828070300PT1D20171212000090SPEAKER ASM                   M IMCTM S5NB082TNTH  07070IMCT  S5 PTB  00015                    0400 SR        000000000000 DENSO TEN (THAILAND)17053NL006406517075NL0023023                                                                                                                *          20171207 IMCT                IMCT                                                                                                                    WMF1712075.TXT
MDEDHD219214201712                D89828070300PT1D20171212000030SPEAKER ASM                   M IMCTM S5NB082TNTH  07070IMCT  S5 PTB  00015                    0830 SR        000000000000 DENSO TEN (THAILAND)17075NL0024024                                                                                                                              *          20171207 IMCT                IMCT                                                                                                                    WMF1712075.TXT
MDEDHD219215201712                D89828070300PT1D20171212000030SPEAKER ASM                   M IMCTM S5NB082TNTH  07070IMCT  S5 PTB  00015                    1600 SR        000000000000 DENSO TEN (THAILAND)17068NL0028028                                                                                                                              *          20171207 IMCT                IMCT                                                                                                                    WMF1712075.TXT
MDEDHD219216201712                D89848581800PT1D20171212000015RADIO;AM/FM CD D              M IMCTM S5NC06 TNTH  07070IMCT  S5 PTB  00003                    0230 SR        000000000000 DENSO TEN (THAILAND)17074NL0087087                                                                                                                              *          20171207 IMCT                IMCT                                                                                                                    WMF1712075.TXT
MDEDHD219217201712                D89848581800PT1D20171212000045RADIO;AM/FM CD D              M IMCTM S5NC06 TNTH  07070IMCT  S5 PTB  00003                    0400 SR        000000000000 DENSO TEN (THAILAND)17053NL006406517075NL0023023                                                                                                                *          20171207 IMCT                IMCT                                                                                                                    WMF1712075.TXT
MDEDHD219218201712                D89848581800PT1D20171212000015RADIO;AM/FM CD D              M IMCTM S5NC06 TNTH  07070IMCT  S5 PTB  00003                    0830 SR        000000000000 DENSO TEN (THAILAND)17075NL0024024                                                                                                                              *          20171207 IMCT                IMCT                                                                                                                    WMF1712075.TXT
MDEUHD218228201712                D89828070100PT4U20171211000030SPEAKER ASM                   M IMCTM S0FL05 TNTH  07070IMCT  S0 PTB  00004                    2230 SR        000000000000 DENSO TEN (THAILAND)18026UU0038038                                                                                                                              *          20171207 IMCT                IMCT                                                                                                                    WMF1712075.TXT
MDEUHD218229201712                D89828070100PT4U20171212000060SPEAKER ASM                   M IMCTM S0FL05 TNTH  07070IMCT  S0 PTB  00004                    0400 SR        000000000000 DENSO TEN (THAILAND)18023TU021621618026UU0039039                                                                                                                *          20171207 IMCT                IMCT                                                                                                                    WMF1712075.TXT
MDEUHD218230201712                D89828070100PT4U20171212000030SPEAKER ASM                   M IMCTM S0FL05 TNTH  07070IMCT  S0 PTB  00004                    1030 SR        000000000000 DENSO TEN (THAILAND)18026UU0040040                                                                                                                              *          20171207 IMCT                IMCT                                                                                                                    WMF1712075.TXT
MDEUHD218231201712                D89828070100PT4U20171212000030SPEAKER ASM                   M IMCTM S0FL05 TNTH  07070IMCT  S0 PTB  00004                    1600 SR        000000000000 DENSO TEN (THAILAND)18026UU0041041                                                                                                                              *          20171207 IMCT                IMCT                                                                                                                    WMF1712075.TXT
MDEUHD218232201712                D89828070200PV4U20171211000030SPEAKER ASM                   M IMCTM S0FR05 TNTH  07070IMCT  S0 PTB  00005                    2230 SR        000000000000 DENSO TEN (THAILAND)18026UU0038038                                                                                                                              *          20171207 IMCT                IMCT                                                                                                                    WMF1712075.TXT
MDEUHD218233201712                D89828070200PV4U20171212000060SPEAKER ASM                   M IMCTM S0FR05 TNTH  07070IMCT  S0 PTB  00005                    0400 SR        000000000000 DENSO TEN (THAILAND)18023TU021621618026UU0039039                                                                                                                *          20171207 IMCT                IMCT                                                                                                                    WMF1712075.TXT
MDEUHD218234201712                D89828070200PV4U20171212000030SPEAKER ASM                   M IMCTM S0FR05 TNTH  07070IMCT  S0 PTB  00005                    1030 SR        000000000000 DENSO TEN (THAILAND)18026UU0040040                                                                                                                              *          20171207 IMCT                IMCT                                                                                                                    WMF1712075.TXT
MDEUHD218235201712                D89828070200PV4U20171212000030SPEAKER ASM                   M IMCTM S0FR05 TNTH  07070IMCT  S0 PTB  00005                    1600 SR        000000000000 DENSO TEN (THAILAND)18026UU0041041                                                                                                                              *          20171207 IMCT                IMCT                                                                                                                    WMF1712075.TXT
MDEUHD218236201712                D89828070300PT4U20171211000030SPEAKER ASM                   M IMCTM S9TS02 TNTH  07070IMCT  S9 PTB  00015                    2230 SR        000000000000 DENSO TEN (THAILAND)18026UU0038038                                                                                                                              *          20171207 IMCT                IMCT                                                                                                                    WMF1712075.TXT
MDEUHD218237201712                D89828070300PT4U20171212000060SPEAKER ASM                   M IMCTM S9TS02 TNTH  07070IMCT  S9 PTB  00015                    0400 SR        000000000000 DENSO TEN (THAILAND)18023TU021621618026UU0039039                                                                                                                *          20171207 IMCT                IMCT                                                                                                                    WMF1712075.TXT
MDEUHD218238201712                D89828070300PT4U20171212000030SPEAKER ASM                   M IMCTM S9TS02 TNTH  07070IMCT  S9 PTB  00015                    1030 SR        000000000000 DENSO TEN (THAILAND)18026UU0040040                                                                                                                              *          20171207 IMCT                IMCT                                                                                                                    WMF1712075.TXT
MDEUHD218239201712                D89828070300PT4U20171212000030SPEAKER ASM                   M IMCTM S9TS02 TNTH  07070IMCT  S9 PTB  00015                    1600 SR        000000000000 DENSO TEN (THAILAND)18026UU0041041                                                                                                                              *          20171207 IMCT                IMCT                                                                                                                    WMF1712075.TXT
