REC2017122120171221ISUZU                              3      
MAEDHD602123201803                 89828070100PV4D20180205000002SPEAKER ASM                   M IMCTM ST00000TNTH  07070IMCT  ST PTB  00004  DC                0000 SR        000000000000 DENSO TEN (THAILAND)18077ZU0001001                                                                                                                              *P         20171221 IMCT                IMCT                                                                                                                    WMF1712213.TXT
MAEDHD602124201803                 89828070200PV4D20180205000002SPEAKER ASM                   M IMCTM ST00000TNTH  07070IMCT  ST PTB  00005  DC                0000 SR        000000000000 DENSO TEN (THAILAND)18077ZU0001001                                                                                                                              *P         20171221 IMCT                IMCT                                                                                                                    WMF1712213.TXT
MAEDHD602125201803                 89828070300PT4D20180205000002SPEAKER ASM                   M IMCTM ST00000TNTH  07070IMCT  ST PTB  00015  DC                0000 SR        000000000000 DENSO TEN (THAILAND)18077ZU0001001                                                                                                                              *P         20171221 IMCT                IMCT                                                                                                                    WMF1712213.TXT
