REC2017121420171214ISUZU                              16     
MAKK7D086986201712D1               89805293700P3YK20171225000090SPEAKER ASM                   M IMCTM CM1    TNTH  07070IMKDC KA PTB  00003  K0                0900DES        000000000000 DENSO TEN (THAILAND)                                                                                                                                            *G         20171214 IMCT                IMCT                                                                                                                    WMF1712141.TXT
MAKK7D086987201712D1               89805293700P3YK20171226000090SPEAKER ASM                   M IMCTM CM1    TNTH  07070IMKDC KA PTB  00003  K0                0900DES        000000000000 DENSO TEN (THAILAND)                                                                                                                                            *G         20171214 IMCT                IMCT                                                                                                                    WMF1712141.TXT
MAKK7D086988201712D1               89805293700P3YK20171227000090SPEAKER ASM                   M IMCTM CM1    TNTH  07070IMKDC KA PTB  00003  K0                0900DES        000000000000 DENSO TEN (THAILAND)                                                                                                                                            *G         20171214 IMCT                IMCT                                                                                                                    WMF1712141.TXT
MAKK7D086989201712D1               89805294000P3YK20171225000030SPEAKER ASM                   M IMCTM CM1    TNTH  07070IMKDC KA PTB  00015  K0                0900DES        000000000000 DENSO TEN (THAILAND)                                                                                                                                            *G         20171214 IMCT                IMCT                                                                                                                    WMF1712141.TXT
MAKK7D086990201712D1               89805294100P3YK20171225000030SPEAKER ASM                   M IMCTM CM1    TNTH  07070IMKDC KA PTB  00005  K0                0900DES        000000000000 DENSO TEN (THAILAND)                                                                                                                                            *G         20171214 IMCT                IMCT                                                                                                                    WMF1712141.TXT
MAKK7D086991201712D1               89825451200P3YK20171226000060SPEAKER ASM;ROOF              M IMCTM CM1    TNTH  07070IMKDC KA PTB  00036  K0                0900DES        000000000000 DENSO TEN (THAILAND)                                                                                                                                            *G         20171214 IMCT                IMCT                                                                                                                    WMF1712141.TXT
MAKK7D086992201712D1               89825451200P3YK20171227000210SPEAKER ASM;ROOF              M IMCTM CM1    TNTH  07070IMKDC KA PTB  00036  K0                0900DES        000000000000 DENSO TEN (THAILAND)                                                                                                                                            *G         20171214 IMCT                IMCT                                                                                                                    WMF1712141.TXT
MAKK7D086993201712D1               89828070100P3YK20171225000210SPEAKER ASM                   M IMCTM CM1    TNTH  07070IMKDC KA PTB  00003  K0                0900DES        000000000000 DENSO TEN (THAILAND)                                                                                                                                            *G         20171214 IMCT                IMCT                                                                                                                    WMF1712141.TXT
MAKK7D086994201712D1               89828070100P3YK20171226000150SPEAKER ASM                   M IMCTM CM1    TNTH  07070IMKDC KA PTB  00003  K0                0900DES        000000000000 DENSO TEN (THAILAND)                                                                                                                                            *G         20171214 IMCT                IMCT                                                                                                                    WMF1712141.TXT
MAKK7D086995201712D1               89828070100P3YK20171227000090SPEAKER ASM                   M IMCTM CM1    TNTH  07070IMKDC KA PTB  00003  K0                0900DES        000000000000 DENSO TEN (THAILAND)                                                                                                                                            *G         20171214 IMCT                IMCT                                                                                                                    WMF1712141.TXT
MAKK7D086996201712D1               89828070200P3YK20171225000090SPEAKER ASM                   M IMCTM CM1    TNTH  07070IMKDC KA PTB  00005  K0                0900DES        000000000000 DENSO TEN (THAILAND)                                                                                                                                            *G         20171214 IMCT                IMCT                                                                                                                    WMF1712141.TXT
MAKK7D086997201712D1               89828070200P3YK20171226000030SPEAKER ASM                   M IMCTM CM1    TNTH  07070IMKDC KA PTB  00005  K0                0900DES        000000000000 DENSO TEN (THAILAND)                                                                                                                                            *G         20171214 IMCT                IMCT                                                                                                                    WMF1712141.TXT
MAKK7D086998201712D1               89828070200P3YK20171227000060SPEAKER ASM                   M IMCTM CM1    TNTH  07070IMKDC KA PTB  00005  K0                0900DES        000000000000 DENSO TEN (THAILAND)                                                                                                                                            *G         20171214 IMCT                IMCT                                                                                                                    WMF1712141.TXT
MAKK7D086999201712D1               89828070300P3YK20171225000120SPEAKER ASM                   M IMCTM CM1    TNTH  07070IMKDC KA PTB  00015  K0                0900DES        000000000000 DENSO TEN (THAILAND)                                                                                                                                            *G         20171214 IMCT                IMCT                                                                                                                    WMF1712141.TXT
MAKK7D087000201712D1               89828070300P3YK20171226000030SPEAKER ASM                   M IMCTM CM1    TNTH  07070IMKDC KA PTB  00015  K0                0900DES        000000000000 DENSO TEN (THAILAND)                                                                                                                                            *G         20171214 IMCT                IMCT                                                                                                                    WMF1712141.TXT
MAKK7D087001201712D1               89828070300P3YK20171227000060SPEAKER ASM                   M IMCTM CM1    TNTH  07070IMKDC KA PTB  00015  K0                0900DES        000000000000 DENSO TEN (THAILAND)                                                                                                                                            *G         20171214 IMCT                IMCT                                                                                                                    WMF1712141.TXT
