REC2017120120171201ISUZU                              12     
MDEFHDT00816201712                D89828070100PV4F20171207000030SPEAKER ASM                   M IMCTM S7FL05 TNTH  07070IMCT  S7 PTB  00004                    1600 SR        000000000000 DENSO TEN (THAILAND)17034RR0067   18007ZR0003   D171201501    D171201515    000000                                                                              *R         20171201 IMCT                IMCT                                                                                                                    RMF1712016.TXT
MDEFHDT00817201712                D89828070200PV4F20171207000018SPEAKER ASM                   M IMCTM S7TS02 TNTH  07070IMCT  S7 PTB  00005                    1600 SR        000000000000 DENSO TEN (THAILAND)17036RR0009   17047RR0079   D171201504    D171201512    000000                                                                              *R         20171201 IMCT                IMCT                                                                                                                    RMF1712016.TXT
MDEFHDT00818201712                D89828070300PT4F20171207000008SPEAKER ASM                   M IMCTM S7TS02 TNTH  07070IMCT  S7 PTB  00015                    1600 SR        000000000000 DENSO TEN (THAILAND)17047RR0076   17047RR0079   D171201509    D171201512    000000                                                                              *R         20171201 IMCT                IMCT                                                                                                                    RMF1712016.TXT
MDEFHDT00819201712                D89829645410PT4F20171207000001RADIO;ASM DVD                 M IMCTM S7TS03 TNTH  07070IMCT  S7 PTB  00003                    1600 SR        000000000000 DENSO TEN (THAILAND)17043RR0090   17043RR0090   D171201507    D171201507    000000                                                                              *R         20171201 IMCT                IMCT                                                                                                                    RMF1712016.TXT
MDEFHDT00820201712                D89831229000PT4F20171207000004RADIO;AM/FM,CD                M IMCTM S7TS03 TNTH  07070IMCT  S7 PTB  00003                    1600 SR        000000000000 DENSO TEN (THAILAND)17047RR0076   17047RR0079   D171201509    D171201512    000000                                                                              *R         20171201 IMCT                IMCT                                                                                                                    RMF1712016.TXT
MDEFHD200787201712                D89828070100PV4F20171206000032SPEAKER ASM                   M IMCTM S7FL05 TNTH  07070IMCT  S7 PTB  00004                    2230 SR        000000000000 DENSO TEN (THAILAND)17022SR0058   17029SR0007   D171201301    D171201401    000000                                                                              *R         20171201 IMCT                IMCT                                                                                                                    RMF1712016.TXT
MDEFHD200788201712                D89828070100PV4F20171207000024SPEAKER ASM                   M IMCTM S7FL05 TNTH  07070IMCT  S7 PTB  00004                    0830 SR        000000000000 DENSO TEN (THAILAND)17029SR0008   17031NR0068   D171201402    D171201413    000000                                                                              *R         20171201 IMCT                IMCT                                                                                                                    RMF1712016.TXT
MDEFHD200789201712                D89828070100PV4F20171207000004SPEAKER ASM                   M IMCTM S7FL05 TNTH  07070IMCT  S7 PTB  00004                    1030 SR        000000000000 DENSO TEN (THAILAND)17034RR0066   17036RR0007   D171201414    D171201415    000000                                                                              *R         20171201 IMCT                IMCT                                                                                                                    RMF1712016.TXT
MDEFHD200790201712                D89828070200PV4F20171206000020SPEAKER ASM                   M IMCTM S7TS02 TNTH  07070IMCT  S7 PTB  00005                    2230 SR        000000000000 DENSO TEN (THAILAND)17022SR0058   17022SR0067   D171201301    D171201310    000000                                                                              *R         20171201 IMCT                IMCT                                                                                                                    RMF1712016.TXT
MDEFHD200791201712                D89828070200PV4F20171207000020SPEAKER ASM                   M IMCTM S7TS02 TNTH  07070IMCT  S7 PTB  00005                    0830 SR        000000000000 DENSO TEN (THAILAND)17029SR0007   17036RR0008   D171201401    D171201503    000000                                                                              *R         20171201 IMCT                IMCT                                                                                                                    RMF1712016.TXT
MDEFHD200792201712                D89828070300PT4F20171206000030SPEAKER ASM                   M IMCTM S7TS02 TNTH  07070IMCT  S7 PTB  00015                    2230 SR        000000000000 DENSO TEN (THAILAND)17022SR0058   17029NR0060   D171201301    D171201315    000000                                                                              *R         20171201 IMCT                IMCT                                                                                                                    RMF1712016.TXT
MDEFHD200793201712                D89828070300PT4F20171207000030SPEAKER ASM                   M IMCTM S7TS02 TNTH  07070IMCT  S7 PTB  00015                    0830 SR        000000000000 DENSO TEN (THAILAND)17029SR0007   17046QR0091   D171201401    D171201508    000000                                                                              *R         20171201 IMCT                IMCT                                                                                                                    RMF1712016.TXT
