REC2017122120171221ISUZU                              3      
MAEDHD600930201803                 89828070100PV1D20180205000002SPEAKER ASM                   M IMCTM ST00000TNTH  07070IMCT  ST PTB  00004  DC                0000 SR        000000000000 DENSO TEN (THAILAND)18076ZL0001001                                                                                                                              *P         20171221 IMCT                IMCT                                                                                                                    WMF1712212.TXT
MAEDHD600931201803                 89828070200PV1D20180205000002SPEAKER ASM                   M IMCTM ST00000TNTH  07070IMCT  ST PTB  00005  DC                0000 SR        000000000000 DENSO TEN (THAILAND)18076ZL0001001                                                                                                                              *P         20171221 IMCT                IMCT                                                                                                                    WMF1712212.TXT
MAEDHD600932201803                 89828070300PT1D20180205000002SPEAKER ASM                   M IMCTM ST00000TNTH  07070IMCT  ST PTB  00015  DC                0000 SR        000000000000 DENSO TEN (THAILAND)18076ZL0001001                                                                                                                              *P         20171221 IMCT                IMCT                                                                                                                    WMF1712212.TXT
