REC2017121220171212ISUZU                              7      
MDEFHDT09933201712                D89828070100PV4F20171216000026SPEAKER ASM                   M IMCTM S7FL05 TNTH  07070IMCT  S7 PTB  00004                    0230 SR        000000000000 DENSO TEN (THAILAND)17010MR0059   17031MR0077   D171202703    D171202715    000000                                                                              *R         20171212 IMCT                IMCT                                                                                                                    RMF1712125.TXT
MDEFHDT09934201712                D89828070200PV4F20171216000015SPEAKER ASM                   M IMCTM S7FL05 TNTH  07070IMCT  S7 PTB  00005                    0230 SR        000000000000 DENSO TEN (THAILAND)17016MR0037   17031MR0077   D171202708    D171202715    000000                                                                              *R         20171212 IMCT                IMCT                                                                                                                    RMF1712125.TXT
MDEFHDT09935201712                D89828070300PT4F20171216000005SPEAKER ASM                   M IMCTM S7TS02 TNTH  07070IMCT  S7 PTB  00015                    0230 SR        000000000000 DENSO TEN (THAILAND)17031MR0075   17031MR0077   D171202713    D171202715    000000                                                                              *R         20171212 IMCT                IMCT                                                                                                                    RMF1712125.TXT
MDEFHDT09936201712                D89829645310PT4F20171216000001RADIO;ASM DVD                 M IMCTM S7TS03 TNTH  07070IMCT  S7 PTB  00003                    0230 SR        000000000000 DENSO TEN (THAILAND)17016MR0037   17016MR0037   D171202708    D171202708    000000                                                                              *R         20171212 IMCT                IMCT                                                                                                                    RMF1712125.TXT
MDEFHD217545201712                D89828070100PV4F20171215000004SPEAKER ASM                   M IMCTM S7FL05 TNTH  07070IMCT  S7 PTB  00004                    2230 SR        000000000000 DENSO TEN (THAILAND)17005NR0053   17005NR0054   D171202701    D171202702    000000                                                                              *R         20171212 IMCT                IMCT                                                                                                                    RMF1712125.TXT
MDEFHD217546201712                D89828070200PV4F20171215000005SPEAKER ASM                   M IMCTM S7FL05 TNTH  07070IMCT  S7 PTB  00005                    2230 SR        000000000000 DENSO TEN (THAILAND)17005NR0053   17016MR0037   D171202701    D171202708    000000                                                                              *R         20171212 IMCT                IMCT                                                                                                                    RMF1712125.TXT
MDEFHD217547201712                D89828070300PT4F20171215000015SPEAKER ASM                   M IMCTM S7TS02 TNTH  07070IMCT  S7 PTB  00015                    2230 SR        000000000000 DENSO TEN (THAILAND)17005NR0053   17031MR0075   D171202701    D171202713    000000                                                                              *R         20171212 IMCT                IMCT                                                                                                                    RMF1712125.TXT
