REC2017121820171218ISUZU                              48     
MDDDHD272540201712                D89821984430PT1D20171221000030RADIO;AM/FM,CD                M IMCTM S5NC06 TNTH  07070IMCT  S5 PTB  00005                    2230 SR        000000000000 DENSO TEN (THAILAND)180LRAL0089089                                                                                                                              *          20171218 IMCT                IMCT                                                                                                                    WMF1712184.TXT
MDDDHD272541201712                D89821984430PT1D20171222000030RADIO;AM/FM,CD                M IMCTM S5NC06 TNTH  07070IMCT  S5 PTB  00005                    0230 SR        000000000000 DENSO TEN (THAILAND)180LNGL0054054                                                                                                                              *          20171218 IMCT                IMCT                                                                                                                    WMF1712184.TXT
MDDDHD272542201712                D89821984430PT1D20171222000030RADIO;AM/FM,CD                M IMCTM S5NC06 TNTH  07070IMCT  S5 PTB  00005                    0400 SR        000000000000 DENSO TEN (THAILAND)180LPAL0056056                                                                                                                              *          20171218 IMCT                IMCT                                                                                                                    WMF1712184.TXT
MDDDHD272543201712                D89821984430PT1D20171222000030RADIO;AM/FM,CD                M IMCTM S5NC06 TNTH  07070IMCT  S5 PTB  00005                    0830 SR        000000000000 DENSO TEN (THAILAND)180LRAL0090090                                                                                                                              *          20171218 IMCT                IMCT                                                                                                                    WMF1712184.TXT
MDDDHD272544201712                D89821984430PT1D20171222000030RADIO;AM/FM,CD                M IMCTM S5NC06 TNTH  07070IMCT  S5 PTB  00005                    1030 SR        000000000000 DENSO TEN (THAILAND)180LNHL0019019                                                                                                                              *          20171218 IMCT                IMCT                                                                                                                    WMF1712184.TXT
MDDDHD272545201712                D89821984430PT1D20171222000030RADIO;AM/FM,CD                M IMCTM S5NC06 TNTH  07070IMCT  S5 PTB  00005                    1300 SR        000000000000 DENSO TEN (THAILAND)180LNGL0055055                                                                                                                              *          20171218 IMCT                IMCT                                                                                                                    WMF1712184.TXT
MDDDHD272546201712                D89821984430PT1D20171222000030RADIO;AM/FM,CD                M IMCTM S5NC06 TNTH  07070IMCT  S5 PTB  00005                    1600 SR        000000000000 DENSO TEN (THAILAND)180LPAL0057057                                                                                                                              *          20171218 IMCT                IMCT                                                                                                                    WMF1712184.TXT
MDDDHD272547201712                D89828070100PV1D20171221000060SPEAKER ASM                   M IMCTM S5MB11 TNTH  07070IMCT  S5 PTB  00004                    2230 SR        000000000000 DENSO TEN (THAILAND)180LRAL0089089                                                                                                                              *          20171218 IMCT                IMCT                                                                                                                    WMF1712184.TXT
MDDDHD272548201712                D89828070100PV1D20171222000060SPEAKER ASM                   M IMCTM S5MB11 TNTH  07070IMCT  S5 PTB  00004                    0230 SR        000000000000 DENSO TEN (THAILAND)180LNGL0054054                                                                                                                              *          20171218 IMCT                IMCT                                                                                                                    WMF1712184.TXT
MDDDHD272549201712                D89828070100PV1D20171222000060SPEAKER ASM                   M IMCTM S5MB11 TNTH  07070IMCT  S5 PTB  00004                    0400 SR        000000000000 DENSO TEN (THAILAND)180LPAL0056056                                                                                                                              *          20171218 IMCT                IMCT                                                                                                                    WMF1712184.TXT
MDDDHD272550201712                D89828070100PV1D20171222000060SPEAKER ASM                   M IMCTM S5MB11 TNTH  07070IMCT  S5 PTB  00004                    0830 SR        000000000000 DENSO TEN (THAILAND)180LRAL0090090                                                                                                                              *          20171218 IMCT                IMCT                                                                                                                    WMF1712184.TXT
MDDDHD272551201712                D89828070100PV1D20171222000060SPEAKER ASM                   M IMCTM S5MB11 TNTH  07070IMCT  S5 PTB  00004                    1030 SR        000000000000 DENSO TEN (THAILAND)180LNHL0019019                                                                                                                              *          20171218 IMCT                IMCT                                                                                                                    WMF1712184.TXT
MDDDHD272552201712                D89828070100PV1D20171222000120SPEAKER ASM                   M IMCTM S5MB11 TNTH  07070IMCT  S5 PTB  00004                    1300 SR        000000000000 DENSO TEN (THAILAND)180LNGL0055055180LPML0008008                                                                                                                *          20171218 IMCT                IMCT                                                                                                                    WMF1712184.TXT
MDDDHD272553201712                D89828070100PV1D20171222000060SPEAKER ASM                   M IMCTM S5MB11 TNTH  07070IMCT  S5 PTB  00004                    1600 SR        000000000000 DENSO TEN (THAILAND)180LPAL0057057                                                                                                                              *          20171218 IMCT                IMCT                                                                                                                    WMF1712184.TXT
MDDDHD272554201712                D89828070100PV4D20171222000060SPEAKER ASM                   M IMCTM S0FL05 TNTH  07070IMCT  S0 PTB  00004                    0830 SR        000000000000 DENSO TEN (THAILAND)180LRSU0025025                                                                                                                              *          20171218 IMCT                IMCT                                                                                                                    WMF1712184.TXT
MDDDHD272555201712                D89828070200PV4D20171222000060SPEAKER ASM                   M IMCTM S0FR05 TNTH  07070IMCT  S0 PTB  00005                    0830 SR        000000000000 DENSO TEN (THAILAND)180LRSU0025025                                                                                                                              *          20171218 IMCT                IMCT                                                                                                                    WMF1712184.TXT
MDDDHD272556201712                D89828070300PT1D20171222000060SPEAKER ASM                   M IMCTM S5NB082TNTH  07070IMCT  S5 PTB  00015                    1300 SR        000000000000 DENSO TEN (THAILAND)180LPML0008008                                                                                                                              *          20171218 IMCT                IMCT                                                                                                                    WMF1712184.TXT
MDDDHD272557201712                D89828070300PT4D20171222000060SPEAKER ASM                   M IMCTM S9TS02 TNTH  07070IMCT  S9 PTB  00015                    0830 SR        000000000000 DENSO TEN (THAILAND)180LRSU0025025                                                                                                                              *          20171218 IMCT                IMCT                                                                                                                    WMF1712184.TXT
MDDUHD238806201712                D89828070100PT4U20171222000030SPEAKER ASM                   M IMCTM S0FL05 TNTH  07070IMCT  S0 PTB  00004                    0400 SR        000000000000 DENSO TEN (THAILAND)180LUTU0001001                                                                                                                              *          20171218 IMCT                IMCT                                                                                                                    WMF1712184.TXT
MDDUHD238807201712                D89828070200PV4U20171222000030SPEAKER ASM                   M IMCTM S0FR05 TNTH  07070IMCT  S0 PTB  00005                    0400 SR        000000000000 DENSO TEN (THAILAND)180LUTU0001001                                                                                                                              *          20171218 IMCT                IMCT                                                                                                                    WMF1712184.TXT
MDDUHD238808201712                D89828070300PT4U20171222000030SPEAKER ASM                   M IMCTM S9TS02 TNTH  07070IMCT  S9 PTB  00015                    0400 SR        000000000000 DENSO TEN (THAILAND)180LUTU0001001                                                                                                                              *          20171218 IMCT                IMCT                                                                                                                    WMF1712184.TXT
MDEDHD257541201712                D89828070100PV1D20171221000060SPEAKER ASM                   M IMCTM S5MB11 TNTH  07070IMCT  S5 PTB  00004                    2230 SR        000000000000 DENSO TEN (THAILAND)17022ML0039040                                                                                                                              *          20171218 IMCT                IMCT                                                                                                                    WMF1712184.TXT
MDEDHD257542201712                D89828070100PV1D20171222000060SPEAKER ASM                   M IMCTM S5MB11 TNTH  07070IMCT  S5 PTB  00004                    0400 SR        000000000000 DENSO TEN (THAILAND)17031ML0034035                                                                                                                              *          20171218 IMCT                IMCT                                                                                                                    WMF1712184.TXT
MDEDHD257543201712                D89828070100PV1D20171222000060SPEAKER ASM                   M IMCTM S5MB11 TNTH  07070IMCT  S5 PTB  00004                    2100 SR        000000000000 DENSO TEN (THAILAND)17028NL002002017029NL0018018                                                                                                                *          20171218 IMCT                IMCT                                                                                                                    WMF1712184.TXT
MDEDHD257544201712                D89828070100PV1D20171222000030SPEAKER ASM                   M IMCTM S5MB11 TNTH  07070IMCT  S5 PTB  00004                    2230 SR        000000000000 DENSO TEN (THAILAND)17028RL0020020                                                                                                                              *          20171218 IMCT                IMCT                                                                                                                    WMF1712184.TXT
MDEDHD257545201712                D89828070200PV1D20171221000060SPEAKER ASM                   M IMCTM S5MA14 TNTH  07070IMCT  S5 PTB  00005                    2230 SR        000000000000 DENSO TEN (THAILAND)17022ML0039040                                                                                                                              *          20171218 IMCT                IMCT                                                                                                                    WMF1712184.TXT
MDEDHD257546201712                D89828070200PV1D20171222000060SPEAKER ASM                   M IMCTM S5MA14 TNTH  07070IMCT  S5 PTB  00005                    0400 SR        000000000000 DENSO TEN (THAILAND)17031ML0034035                                                                                                                              *          20171218 IMCT                IMCT                                                                                                                    WMF1712184.TXT
MDEDHD257547201712                D89828070300PT1D20171221000060SPEAKER ASM                   M IMCTM S5NB082TNTH  07070IMCT  S5 PTB  00015                    2230 SR        000000000000 DENSO TEN (THAILAND)17022ML0039040                                                                                                                              *          20171218 IMCT                IMCT                                                                                                                    WMF1712184.TXT
MDEDHD257548201712                D89828070300PT1D20171222000060SPEAKER ASM                   M IMCTM S5NB082TNTH  07070IMCT  S5 PTB  00015                    0400 SR        000000000000 DENSO TEN (THAILAND)17031ML0034035                                                                                                                              *          20171218 IMCT                IMCT                                                                                                                    WMF1712184.TXT
MDEDHD257549201712                D89828070300PT1D20171222000030SPEAKER ASM                   M IMCTM S5NB082TNTH  07070IMCT  S5 PTB  00015                    2100 SR        000000000000 DENSO TEN (THAILAND)17029NL0018018                                                                                                                              *          20171218 IMCT                IMCT                                                                                                                    WMF1712184.TXT
MDEUHD254196201712                D89828070100PT4U20171221000060SPEAKER ASM                   M IMCTM S0FL05 TNTH  07070IMCT  S0 PTB  00004                    2230 SR        000000000000 DENSO TEN (THAILAND)18024UU001001018025UU0009009                                                                                                                *          20171218 IMCT                IMCT                                                                                                                    WMF1712184.TXT
MDEUHD254197201712                D89828070100PT4U20171222000030SPEAKER ASM                   M IMCTM S0FL05 TNTH  07070IMCT  S0 PTB  00004                    0400 SR        000000000000 DENSO TEN (THAILAND)18026UU0059059                                                                                                                              *          20171218 IMCT                IMCT                                                                                                                    WMF1712184.TXT
MDEUHD254198201712                D89828070100PT4U20171222000030SPEAKER ASM                   M IMCTM S0FL05 TNTH  07070IMCT  S0 PTB  00004                    0830 SR        000000000000 DENSO TEN (THAILAND)18024UU0011011                                                                                                                              *          20171218 IMCT                IMCT                                                                                                                    WMF1712184.TXT
MDEUHD254199201712                D89828070100PT4U20171222000060SPEAKER ASM                   M IMCTM S0FL05 TNTH  07070IMCT  S0 PTB  00004                    1300 SR        000000000000 DENSO TEN (THAILAND)18023UU001001018025UU0010010                                                                                                                *          20171218 IMCT                IMCT                                                                                                                    WMF1712184.TXT
MDEUHD254200201712                D89828070100PT4U20171222000030SPEAKER ASM                   M IMCTM S0FL05 TNTH  07070IMCT  S0 PTB  00004                    1600 SR        000000000000 DENSO TEN (THAILAND)18026UU0060060                                                                                                                              *          20171218 IMCT                IMCT                                                                                                                    WMF1712184.TXT
MDEUHD254201201712                D89828070100PT4U20171222000030SPEAKER ASM                   M IMCTM S0FL05 TNTH  07070IMCT  S0 PTB  00004                    2100 SR        000000000000 DENSO TEN (THAILAND)18026UU0061061                                                                                                                              *          20171218 IMCT                IMCT                                                                                                                    WMF1712184.TXT
MDEUHD254202201712                D89828070200PV4U20171221000060SPEAKER ASM                   M IMCTM S0FR05 TNTH  07070IMCT  S0 PTB  00005                    2230 SR        000000000000 DENSO TEN (THAILAND)18024UU001001018025UU0009009                                                                                                                *          20171218 IMCT                IMCT                                                                                                                    WMF1712184.TXT
MDEUHD254203201712                D89828070200PV4U20171222000030SPEAKER ASM                   M IMCTM S0FR05 TNTH  07070IMCT  S0 PTB  00005                    0400 SR        000000000000 DENSO TEN (THAILAND)18026UU0059059                                                                                                                              *          20171218 IMCT                IMCT                                                                                                                    WMF1712184.TXT
MDEUHD254204201712                D89828070200PV4U20171222000030SPEAKER ASM                   M IMCTM S0FR05 TNTH  07070IMCT  S0 PTB  00005                    0830 SR        000000000000 DENSO TEN (THAILAND)18024UU0011011                                                                                                                              *          20171218 IMCT                IMCT                                                                                                                    WMF1712184.TXT
MDEUHD254205201712                D89828070200PV4U20171222000060SPEAKER ASM                   M IMCTM S0FR05 TNTH  07070IMCT  S0 PTB  00005                    1300 SR        000000000000 DENSO TEN (THAILAND)18023UU001001018025UU0010010                                                                                                                *          20171218 IMCT                IMCT                                                                                                                    WMF1712184.TXT
MDEUHD254206201712                D89828070200PV4U20171222000030SPEAKER ASM                   M IMCTM S0FR05 TNTH  07070IMCT  S0 PTB  00005                    1600 SR        000000000000 DENSO TEN (THAILAND)18026UU0060060                                                                                                                              *          20171218 IMCT                IMCT                                                                                                                    WMF1712184.TXT
MDEUHD254207201712                D89828070200PV4U20171222000030SPEAKER ASM                   M IMCTM S0FR05 TNTH  07070IMCT  S0 PTB  00005                    2100 SR        000000000000 DENSO TEN (THAILAND)18026UU0061061                                                                                                                              *          20171218 IMCT                IMCT                                                                                                                    WMF1712184.TXT
MDEUHD254208201712                D89828070300PT4U20171221000060SPEAKER ASM                   M IMCTM S9TS02 TNTH  07070IMCT  S9 PTB  00015                    2230 SR        000000000000 DENSO TEN (THAILAND)18024UU001001018025UU0009009                                                                                                                *          20171218 IMCT                IMCT                                                                                                                    WMF1712184.TXT
MDEUHD254209201712                D89828070300PT4U20171222000030SPEAKER ASM                   M IMCTM S9TS02 TNTH  07070IMCT  S9 PTB  00015                    0400 SR        000000000000 DENSO TEN (THAILAND)18026UU0059059                                                                                                                              *          20171218 IMCT                IMCT                                                                                                                    WMF1712184.TXT
MDEUHD254210201712                D89828070300PT4U20171222000030SPEAKER ASM                   M IMCTM S9TS02 TNTH  07070IMCT  S9 PTB  00015                    0830 SR        000000000000 DENSO TEN (THAILAND)18024UU0011011                                                                                                                              *          20171218 IMCT                IMCT                                                                                                                    WMF1712184.TXT
MDEUHD254211201712                D89828070300PT4U20171222000060SPEAKER ASM                   M IMCTM S9TS02 TNTH  07070IMCT  S9 PTB  00015                    1300 SR        000000000000 DENSO TEN (THAILAND)18023UU001001018025UU0010010                                                                                                                *          20171218 IMCT                IMCT                                                                                                                    WMF1712184.TXT
MDEUHD254212201712                D89828070300PT4U20171222000030SPEAKER ASM                   M IMCTM S9TS02 TNTH  07070IMCT  S9 PTB  00015                    1600 SR        000000000000 DENSO TEN (THAILAND)18026UU0060060                                                                                                                              *          20171218 IMCT                IMCT                                                                                                                    WMF1712184.TXT
MDEUHD254213201712                D89828070300PT4U20171222000030SPEAKER ASM                   M IMCTM S9TS02 TNTH  07070IMCT  S9 PTB  00015                    2100 SR        000000000000 DENSO TEN (THAILAND)18026UU0061061                                                                                                                              *          20171218 IMCT                IMCT                                                                                                                    WMF1712184.TXT
