REC2017122720171227ISUZU                              3      
MAEDHD603322201803                 89828070100PV1D20180205000002SPEAKER ASM                   M IMCTM ST00000TNTH  07070IMCT  ST PTB  00004  DC                0000 SR        000000000000 DENSO TEN (THAILAND)18077ZL0001001                                                                                                                              *P         20171227 IMCT                IMCT                                                                                                                    WMF1712271.TXT
MAEDHD603323201803                 89828070200PV1D20180205000002SPEAKER ASM                   M IMCTM ST00000TNTH  07070IMCT  ST PTB  00005  DC                0000 SR        000000000000 DENSO TEN (THAILAND)18077ZL0001001                                                                                                                              *P         20171227 IMCT                IMCT                                                                                                                    WMF1712271.TXT
MAEDHD603324201803                 89828070300PT1D20180205000002SPEAKER ASM                   M IMCTM ST00000TNTH  07070IMCT  ST PTB  00015  DC                0000 SR        000000000000 DENSO TEN (THAILAND)18077ZL0001001                                                                                                                              *P         20171227 IMCT                IMCT                                                                                                                    WMF1712271.TXT
