REC2017122120171221ISUZU                              25     
MDD6HD281387201712                D89828070100PV5620171226000120SPEAKER ASM                   M IMCTM G9B112 TNTH  07070G/WAY G9 PTB  00004                    2100 GW        0000000000005DENSO TEN (THAILAND)180LPCG0044044180LRHG0123123                                                                                                                *          20171221 IMCT                IMCT                                                                                                                    WMF1712215.TXT
MDD6HD281388201712                D89828070100PV5620171226000060SPEAKER ASM                   M IMCTM G9B112 TNTH  07070G/WAY G9 PTB  00004                    2300 GW        0000000000005DENSO TEN (THAILAND)180LRMG0054054                                                                                                                              *          20171221 IMCT                IMCT                                                                                                                    WMF1712215.TXT
MDD6HD281389201712                D89828070100PV5620171227000060SPEAKER ASM                   M IMCTM G9B112 TNTH  07070G/WAY G9 PTB  00004                    0200 GW        0000000000005DENSO TEN (THAILAND)180LRPG0015015                                                                                                                              *          20171221 IMCT                IMCT                                                                                                                    WMF1712215.TXT
MDD6HD281390201712                D89828070100PV5620171227000120SPEAKER ASM                   M IMCTM G9B112 TNTH  07070G/WAY G9 PTB  00004                    0330 GW        0000000000005DENSO TEN (THAILAND)180LREG0041041180LRFG0028028                                                                                                                *          20171221 IMCT                IMCT                                                                                                                    WMF1712215.TXT
MDD6HD281391201712                D89828070100PV5620171227000060SPEAKER ASM                   M IMCTM G9B112 TNTH  07070G/WAY G9 PTB  00004                    0900 GW        0000000000005DENSO TEN (THAILAND)180LRLG0046046                                                                                                                              *          20171221 IMCT                IMCT                                                                                                                    WMF1712215.TXT
MDD6HD281392201712                D89828070100PV5620171227000060SPEAKER ASM                   M IMCTM G9B112 TNTH  07070G/WAY G9 PTB  00004                    1100 GW        0000000000005DENSO TEN (THAILAND)180LPGG0056056                                                                                                                              *          20171221 IMCT                IMCT                                                                                                                    WMF1712215.TXT
MDD6HD281393201712                D89828070100PV5620171227000060SPEAKER ASM                   M IMCTM G9B112 TNTH  07070G/WAY G9 PTB  00004                    1400 GW        0000000000005DENSO TEN (THAILAND)180LREG0042042                                                                                                                              *          20171221 IMCT                IMCT                                                                                                                    WMF1712215.TXT
MDD6HD281394201712                D89828070200PV5620171226000060SPEAKER ASM                   M IMCTM G9F132 TNTH  07070G/WAY G9 PTB  00005                    2100 GW        0000000000005DENSO TEN (THAILAND)180LRHG0123123                                                                                                                              *          20171221 IMCT                IMCT                                                                                                                    WMF1712215.TXT
MDD6HD281395201712                D89828070200PV5620171226000060SPEAKER ASM                   M IMCTM G9F132 TNTH  07070G/WAY G9 PTB  00005                    2300 GW        0000000000005DENSO TEN (THAILAND)180LRMG0054054                                                                                                                              *          20171221 IMCT                IMCT                                                                                                                    WMF1712215.TXT
MDD6HD281396201712                D89828070200PV5620171227000060SPEAKER ASM                   M IMCTM G9F132 TNTH  07070G/WAY G9 PTB  00005                    0200 GW        0000000000005DENSO TEN (THAILAND)180LRPG0015015                                                                                                                              *          20171221 IMCT                IMCT                                                                                                                    WMF1712215.TXT
MDD6HD281397201712                D89828070200PV5620171227000120SPEAKER ASM                   M IMCTM G9F132 TNTH  07070G/WAY G9 PTB  00005                    0330 GW        0000000000005DENSO TEN (THAILAND)180LREG0041041180LRFG0028028                                                                                                                *          20171221 IMCT                IMCT                                                                                                                    WMF1712215.TXT
MDD6HD281398201712                D89828070200PV5620171227000060SPEAKER ASM                   M IMCTM G9F132 TNTH  07070G/WAY G9 PTB  00005                    0900 GW        0000000000005DENSO TEN (THAILAND)180LRLG0046046                                                                                                                              *          20171221 IMCT                IMCT                                                                                                                    WMF1712215.TXT
MDD6HD281399201712                D89828070200PV5620171227000060SPEAKER ASM                   M IMCTM G9F132 TNTH  07070G/WAY G9 PTB  00005                    1400 GW        0000000000005DENSO TEN (THAILAND)180LREG0042042                                                                                                                              *          20171221 IMCT                IMCT                                                                                                                    WMF1712215.TXT
MDD6HD281400201712                D89828070300PT5620171226000120SPEAKER ASM                   M IMCTM G9JB34 TNTH  07070G/WAY G9 PTB  00015                    2100 GW        0000000000005DENSO TEN (THAILAND)180LPCG0044044180LRHG0123123                                                                                                                *          20171221 IMCT                IMCT                                                                                                                    WMF1712215.TXT
MDD6HD281401201712                D89828070300PT5620171226000060SPEAKER ASM                   M IMCTM G9JB34 TNTH  07070G/WAY G9 PTB  00015                    2300 GW        0000000000005DENSO TEN (THAILAND)180LRMG0054054                                                                                                                              *          20171221 IMCT                IMCT                                                                                                                    WMF1712215.TXT
MDD6HD281402201712                D89828070300PT5620171227000060SPEAKER ASM                   M IMCTM G9JB34 TNTH  07070G/WAY G9 PTB  00015                    0200 GW        0000000000005DENSO TEN (THAILAND)180LRPG0015015                                                                                                                              *          20171221 IMCT                IMCT                                                                                                                    WMF1712215.TXT
MDD6HD281403201712                D89828070300PT5620171227000120SPEAKER ASM                   M IMCTM G9JB34 TNTH  07070G/WAY G9 PTB  00015                    0330 GW        0000000000005DENSO TEN (THAILAND)180LREG0041041180LRFG0028028                                                                                                                *          20171221 IMCT                IMCT                                                                                                                    WMF1712215.TXT
MDD6HD281404201712                D89828070300PT5620171227000060SPEAKER ASM                   M IMCTM G9JB34 TNTH  07070G/WAY G9 PTB  00015                    0900 GW        0000000000005DENSO TEN (THAILAND)180LRLG0046046                                                                                                                              *          20171221 IMCT                IMCT                                                                                                                    WMF1712215.TXT
MDD6HD281405201712                D89828070300PT5620171227000060SPEAKER ASM                   M IMCTM G9JB34 TNTH  07070G/WAY G9 PTB  00015                    1100 GW        0000000000005DENSO TEN (THAILAND)180LPGG0056056                                                                                                                              *          20171221 IMCT                IMCT                                                                                                                    WMF1712215.TXT
MDD6HD281406201712                D89828070300PT5620171227000060SPEAKER ASM                   M IMCTM G9JB34 TNTH  07070G/WAY G9 PTB  00015                    1400 GW        0000000000005DENSO TEN (THAILAND)180LREG0042042                                                                                                                              *          20171221 IMCT                IMCT                                                                                                                    WMF1712215.TXT
MDD6HD281407201712                D89831228300PT5620171226000030RADIO;AM/FM,CD                M IMCTM G9J311 TNTH  07070G/WAY G9 CPB  00003                    2100 GW        0000000000005DENSO TEN (THAILAND)180LPCG0044044                                                                                                                              *          20171221 IMCT                IMCT                                                                                                                    WMF1712215.TXT
MDD6HD281408201712                D89831228300PT5620171227000030RADIO;AM/FM,CD                M IMCTM G9J311 TNTH  07070G/WAY G9 CPB  00003                    1100 GW        0000000000005DENSO TEN (THAILAND)180LPGG0056056                                                                                                                              *          20171221 IMCT                IMCT                                                                                                                    WMF1712215.TXT
MDD6HD281409201712                D89831228400PT5620171227000060RADIO;AM/FM,CD                M IMCTM G9J311 TNTH  07070G/WAY G9 CPB  00003                    0330 GW        0000000000005DENSO TEN (THAILAND)180LREG0041041180LRFG0028028                                                                                                                *          20171221 IMCT                IMCT                                                                                                                    WMF1712215.TXT
MDD6HD281410201712                D89831228400PT5620171227000030RADIO;AM/FM,CD                M IMCTM G9J311 TNTH  07070G/WAY G9 CPB  00003                    1400 GW        0000000000005DENSO TEN (THAILAND)180LREG0042042                                                                                                                              *          20171221 IMCT                IMCT                                                                                                                    WMF1712215.TXT
MDD6HD281411201712                D89848581500PT5620171226000030RADIO;AM/FM CD D              M IMCTM G9J213 TNTH  07070G/WAY G9 PTB  00003                    2100 GW        0000000000005DENSO TEN (THAILAND)180LRHG0123123                                                                                                                              *          20171221 IMCT                IMCT                                                                                                                    WMF1712215.TXT
