REC2017122220171222ISUZU                              28     
MDDDHD290815201712                D89821984430PT1D20171227000030RADIO;AM/FM,CD                M IMCTM S5NC06 TNTH  07070IMCT  S5 PTB  00005                    2230 SR        000000000000 DENSO TEN (THAILAND)180LPAL0063063                                                                                                                              *          20171222 IMCT                IMCT                                                                                                                    WMF1712226.TXT
MDDDHD290816201712                D89821984430PT1D20171228000030RADIO;AM/FM,CD                M IMCTM S5NC06 TNTH  07070IMCT  S5 PTB  00005                    0230 SR        000000000000 DENSO TEN (THAILAND)180LRAL0098098                                                                                                                              *          20171222 IMCT                IMCT                                                                                                                    WMF1712226.TXT
MDDDHD290817201712                D89821984430PT1D20171228000030RADIO;AM/FM,CD                M IMCTM S5NC06 TNTH  07070IMCT  S5 PTB  00005                    0400 SR        000000000000 DENSO TEN (THAILAND)180LNGL0061061                                                                                                                              *          20171222 IMCT                IMCT                                                                                                                    WMF1712226.TXT
MDDDHD290818201712                D89828070100PV1D20171227000120SPEAKER ASM                   M IMCTM S5MB11 TNTH  07070IMCT  S5 PTB  00004                    2230 SR        000000000000 DENSO TEN (THAILAND)180LPAL0063063180LPGL0129129                                                                                                                *          20171222 IMCT                IMCT                                                                                                                    WMF1712226.TXT
MDDDHD290819201712                D89828070100PV1D20171228000060SPEAKER ASM                   M IMCTM S5MB11 TNTH  07070IMCT  S5 PTB  00004                    0230 SR        000000000000 DENSO TEN (THAILAND)180LRAL0098098                                                                                                                              *          20171222 IMCT                IMCT                                                                                                                    WMF1712226.TXT
MDDDHD290820201712                D89828070100PV1D20171228000060SPEAKER ASM                   M IMCTM S5MB11 TNTH  07070IMCT  S5 PTB  00004                    0400 SR        000000000000 DENSO TEN (THAILAND)180LNGL0061061                                                                                                                              *          20171222 IMCT                IMCT                                                                                                                    WMF1712226.TXT
MDDDHD290821201712                D89828070100PV1D20171228000060SPEAKER ASM                   M IMCTM S5MB11 TNTH  07070IMCT  S5 PTB  00004                    1030 SR        000000000000 DENSO TEN (THAILAND)180LPKL0033033                                                                                                                              *          20171222 IMCT                IMCT                                                                                                                    WMF1712226.TXT
MDDDHD290822201712                D89828070300PT1D20171227000060SPEAKER ASM                   M IMCTM S5NB082TNTH  07070IMCT  S5 PTB  00015                    2230 SR        000000000000 DENSO TEN (THAILAND)180LPGL0129129                                                                                                                              *          20171222 IMCT                IMCT                                                                                                                    WMF1712226.TXT
MDDDHD290823201712                D89828070300PT1D20171228000060SPEAKER ASM                   M IMCTM S5NB082TNTH  07070IMCT  S5 PTB  00015                    1030 SR        000000000000 DENSO TEN (THAILAND)180LPKL0033033                                                                                                                              *          20171222 IMCT                IMCT                                                                                                                    WMF1712226.TXT
MDDDHD290824201712                D89831228300PT1D20171227000030RADIO;AM/FM,CD                M IMCTM S5NC06 TNTH  07070IMCT  S5 CPB  00003                    2230 SR        000000000000 DENSO TEN (THAILAND)180LPGL0129129                                                                                                                              *          20171222 IMCT                IMCT                                                                                                                    WMF1712226.TXT
MDDDHD290825201712                D89848581600PT1D20171228000030RADIO;AM/FM CD D              M IMCTM S5NC06 TNTH  07070IMCT  S5 PTB  00003                    1030 SR        000000000000 DENSO TEN (THAILAND)180LPKL0033033                                                                                                                              *          20171222 IMCT                IMCT                                                                                                                    WMF1712226.TXT
MDEDHD269683201712                D89828070100PV1D20171228000060SPEAKER ASM                   M IMCTM S5MB11 TNTH  07070IMCT  S5 PTB  00004                    0830 SR        000000000000 DENSO TEN (THAILAND)18007ZL0032033                                                                                                                              *          20171222 IMCT                IMCT                                                                                                                    WMF1712226.TXT
MDEDHD269684201712                D89828070100PV1D20171228000060SPEAKER ASM                   M IMCTM S5MB11 TNTH  07070IMCT  S5 PTB  00004                    1300 SR        000000000000 DENSO TEN (THAILAND)18010ZL0015016                                                                                                                              *          20171222 IMCT                IMCT                                                                                                                    WMF1712226.TXT
MDEDHD269685201712                D89828070100PV4D20171227000030SPEAKER ASM                   M IMCTM S0FL05 TNTH  07070IMCT  S0 PTB  00004                    2230 SR        000000000000 DENSO TEN (THAILAND)17041PU0004004                                                                                                                              *          20171222 IMCT                IMCT                                                                                                                    WMF1712226.TXT
MDEDHD269686201712                D89828070100PV4D20171228000030SPEAKER ASM                   M IMCTM S0FL05 TNTH  07070IMCT  S0 PTB  00004                    0400 SR        000000000000 DENSO TEN (THAILAND)18007ZU0017017                                                                                                                              *          20171222 IMCT                IMCT                                                                                                                    WMF1712226.TXT
MDEDHD269687201712                D89828070100PV4D20171228000030SPEAKER ASM                   M IMCTM S0FL05 TNTH  07070IMCT  S0 PTB  00004                    0830 SR        000000000000 DENSO TEN (THAILAND)18007ZU0018018                                                                                                                              *          20171222 IMCT                IMCT                                                                                                                    WMF1712226.TXT
MDEUHD269645201712                D89828070100PT4U20171227000030SPEAKER ASM                   M IMCTM S0FL05 TNTH  07070IMCT  S0 PTB  00004                    2230 SR        000000000000 DENSO TEN (THAILAND)18026UU0078078                                                                                                                              *          20171222 IMCT                IMCT                                                                                                                    WMF1712226.TXT
MDEUHD269646201712                D89828070100PT4U20171228000030SPEAKER ASM                   M IMCTM S0FL05 TNTH  07070IMCT  S0 PTB  00004                    0230 SR        000000000000 DENSO TEN (THAILAND)18025UU0014014                                                                                                                              *          20171222 IMCT                IMCT                                                                                                                    WMF1712226.TXT
MDEUHD269647201712                D89828070100PT4U20171228000030SPEAKER ASM                   M IMCTM S0FL05 TNTH  07070IMCT  S0 PTB  00004                    0400 SR        000000000000 DENSO TEN (THAILAND)18026UU0079079                                                                                                                              *          20171222 IMCT                IMCT                                                                                                                    WMF1712226.TXT
MDEUHD269648201712                D89828070100PT4U20171228000030SPEAKER ASM                   M IMCTM S0FL05 TNTH  07070IMCT  S0 PTB  00004                    1030 SR        000000000000 DENSO TEN (THAILAND)18026UU0080080                                                                                                                              *          20171222 IMCT                IMCT                                                                                                                    WMF1712226.TXT
MDEUHD269649201712                D89828070200PV4U20171227000030SPEAKER ASM                   M IMCTM S0FR05 TNTH  07070IMCT  S0 PTB  00005                    2230 SR        000000000000 DENSO TEN (THAILAND)18026UU0078078                                                                                                                              *          20171222 IMCT                IMCT                                                                                                                    WMF1712226.TXT
MDEUHD269650201712                D89828070200PV4U20171228000030SPEAKER ASM                   M IMCTM S0FR05 TNTH  07070IMCT  S0 PTB  00005                    0230 SR        000000000000 DENSO TEN (THAILAND)18025UU0014014                                                                                                                              *          20171222 IMCT                IMCT                                                                                                                    WMF1712226.TXT
MDEUHD269651201712                D89828070200PV4U20171228000030SPEAKER ASM                   M IMCTM S0FR05 TNTH  07070IMCT  S0 PTB  00005                    0400 SR        000000000000 DENSO TEN (THAILAND)18026UU0079079                                                                                                                              *          20171222 IMCT                IMCT                                                                                                                    WMF1712226.TXT
MDEUHD269652201712                D89828070200PV4U20171228000030SPEAKER ASM                   M IMCTM S0FR05 TNTH  07070IMCT  S0 PTB  00005                    1030 SR        000000000000 DENSO TEN (THAILAND)18026UU0080080                                                                                                                              *          20171222 IMCT                IMCT                                                                                                                    WMF1712226.TXT
MDEUHD269653201712                D89828070300PT4U20171227000030SPEAKER ASM                   M IMCTM S9TS02 TNTH  07070IMCT  S9 PTB  00015                    2230 SR        000000000000 DENSO TEN (THAILAND)18026UU0078078                                                                                                                              *          20171222 IMCT                IMCT                                                                                                                    WMF1712226.TXT
MDEUHD269654201712                D89828070300PT4U20171228000030SPEAKER ASM                   M IMCTM S9TS02 TNTH  07070IMCT  S9 PTB  00015                    0230 SR        000000000000 DENSO TEN (THAILAND)18025UU0014014                                                                                                                              *          20171222 IMCT                IMCT                                                                                                                    WMF1712226.TXT
MDEUHD269655201712                D89828070300PT4U20171228000030SPEAKER ASM                   M IMCTM S9TS02 TNTH  07070IMCT  S9 PTB  00015                    0400 SR        000000000000 DENSO TEN (THAILAND)18026UU0079079                                                                                                                              *          20171222 IMCT                IMCT                                                                                                                    WMF1712226.TXT
MDEUHD269656201712                D89828070300PT4U20171228000030SPEAKER ASM                   M IMCTM S9TS02 TNTH  07070IMCT  S9 PTB  00015                    1030 SR        000000000000 DENSO TEN (THAILAND)18026UU0080080                                                                                                                              *          20171222 IMCT                IMCT                                                                                                                    WMF1712226.TXT
