REC2017122220171222ISUZU                              7      
MDD6HD283465201712                D89828070100PV5620171227000120SPEAKER ASM                   M IMCTM G9B112 TNTH  07070G/WAY G9 PTB  00004                    2100 GW        0000000000005DENSO TEN (THAILAND)180LRHG0124125                                                                                                                              *          20171222 IMCT                IMCT                                                                                                                    WMF1712223.TXT
MDD6HD283466201712                D89828070100PV5620171227000060SPEAKER ASM                   M IMCTM G9B112 TNTH  07070G/WAY G9 PTB  00004                    2300 GW        0000000000005DENSO TEN (THAILAND)180LRRG0010010                                                                                                                              *          20171222 IMCT                IMCT                                                                                                                    WMF1712223.TXT
MDD6HD283467201712                D89828070200PV5620171227000120SPEAKER ASM                   M IMCTM G9F132 TNTH  07070G/WAY G9 PTB  00005                    2100 GW        0000000000005DENSO TEN (THAILAND)180LRHG0124125                                                                                                                              *          20171222 IMCT                IMCT                                                                                                                    WMF1712223.TXT
MDD6HD283468201712                D89828070200PV5620171227000060SPEAKER ASM                   M IMCTM G9F132 TNTH  07070G/WAY G9 PTB  00005                    2300 GW        0000000000005DENSO TEN (THAILAND)180LRRG0010010                                                                                                                              *          20171222 IMCT                IMCT                                                                                                                    WMF1712223.TXT
MDD6HD283469201712                D89828070300PT5620171227000120SPEAKER ASM                   M IMCTM G9JB34 TNTH  07070G/WAY G9 PTB  00015                    2100 GW        0000000000005DENSO TEN (THAILAND)180LRHG0124125                                                                                                                              *          20171222 IMCT                IMCT                                                                                                                    WMF1712223.TXT
MDD6HD283470201712                D89828070300PT5620171227000060SPEAKER ASM                   M IMCTM G9JB34 TNTH  07070G/WAY G9 PTB  00015                    2300 GW        0000000000005DENSO TEN (THAILAND)180LRRG0010010                                                                                                                              *          20171222 IMCT                IMCT                                                                                                                    WMF1712223.TXT
MDD6HD283471201712                D89848581500PT5620171227000060RADIO;AM/FM CD D              M IMCTM G9J213 TNTH  07070G/WAY G9 PTB  00003                    2100 GW        0000000000005DENSO TEN (THAILAND)180LRHG0124125                                                                                                                              *          20171222 IMCT                IMCT                                                                                                                    WMF1712223.TXT
