REC2018011120180111ISUZU                              29     
MAKK81068939201801D1               89805293700P3YK20180122000060SPEAKER ASM                   M IMCTM CM1    TNTH  07070IMKDC KA PTB  00003  K0                0900DES        000000000000 DENSO TEN (THAILAND)                                                                                                                                            *G         20180111 IMCT                IMCT                                                                                                                    WMF1801111.TXT
MAKK81068940201801D1               89805293700P3YK20180123000120SPEAKER ASM                   M IMCTM CM1    TNTH  07070IMKDC KA PTB  00003  K0                0900DES        000000000000 DENSO TEN (THAILAND)                                                                                                                                            *G         20180111 IMCT                IMCT                                                                                                                    WMF1801111.TXT
MAKK81068941201801D1               89805293700P3YK20180124000150SPEAKER ASM                   M IMCTM CM1    TNTH  07070IMKDC KA PTB  00003  K0                0900DES        000000000000 DENSO TEN (THAILAND)                                                                                                                                            *G         20180111 IMCT                IMCT                                                                                                                    WMF1801111.TXT
MAKK81068942201801D1               89805293700P3YK20180125000240SPEAKER ASM                   M IMCTM CM1    TNTH  07070IMKDC KA PTB  00003  K0                0900DES        000000000000 DENSO TEN (THAILAND)                                                                                                                                            *G         20180111 IMCT                IMCT                                                                                                                    WMF1801111.TXT
MAKK81068943201801D1               89805293700P3YK20180126000150SPEAKER ASM                   M IMCTM CM1    TNTH  07070IMKDC KA PTB  00003  K0                0900DES        000000000000 DENSO TEN (THAILAND)                                                                                                                                            *G         20180111 IMCT                IMCT                                                                                                                    WMF1801111.TXT
MAKK81068944201801D1               89805293700P3YK20180127000120SPEAKER ASM                   M IMCTM CM1    TNTH  07070IMKDC KA PTB  00003  K0                0900DES        000000000000 DENSO TEN (THAILAND)                                                                                                                                            *G         20180111 IMCT                IMCT                                                                                                                    WMF1801111.TXT
MAKK81068945201801D1               89825451200P3YK20180122000030SPEAKER ASM;ROOF              M IMCTM CM1    TNTH  07070IMKDC KA PTB  00036  K0                0900DES        000000000000 DENSO TEN (THAILAND)                                                                                                                                            *G         20180111 IMCT                IMCT                                                                                                                    WMF1801111.TXT
MAKK81068946201801D1               89825451200P3YK20180123000030SPEAKER ASM;ROOF              M IMCTM CM1    TNTH  07070IMKDC KA PTB  00036  K0                0900DES        000000000000 DENSO TEN (THAILAND)                                                                                                                                            *G         20180111 IMCT                IMCT                                                                                                                    WMF1801111.TXT
MAKK81068947201801D1               89825451200P3YK20180124000060SPEAKER ASM;ROOF              M IMCTM CM1    TNTH  07070IMKDC KA PTB  00036  K0                0900DES        000000000000 DENSO TEN (THAILAND)                                                                                                                                            *G         20180111 IMCT                IMCT                                                                                                                    WMF1801111.TXT
MAKK81068948201801D1               89825451200P3YK20180125000060SPEAKER ASM;ROOF              M IMCTM CM1    TNTH  07070IMKDC KA PTB  00036  K0                0900DES        000000000000 DENSO TEN (THAILAND)                                                                                                                                            *G         20180111 IMCT                IMCT                                                                                                                    WMF1801111.TXT
MAKK81068949201801D1               89825451200P3YK20180126000060SPEAKER ASM;ROOF              M IMCTM CM1    TNTH  07070IMKDC KA PTB  00036  K0                0900DES        000000000000 DENSO TEN (THAILAND)                                                                                                                                            *G         20180111 IMCT                IMCT                                                                                                                    WMF1801111.TXT
MAKK81068950201801D1               89825451200P3YK20180127000060SPEAKER ASM;ROOF              M IMCTM CM1    TNTH  07070IMKDC KA PTB  00036  K0                0900DES        000000000000 DENSO TEN (THAILAND)                                                                                                                                            *G         20180111 IMCT                IMCT                                                                                                                    WMF1801111.TXT
MAKK81068951201801D1               89828070100P3YK20180122000210SPEAKER ASM                   M IMCTM CM1    TNTH  07070IMKDC KA PTB  00004  K0                0900DES        000000000000 DENSO TEN (THAILAND)                                                                                                                                            *G         20180111 IMCT                IMCT                                                                                                                    WMF1801111.TXT
MAKK81068952201801D1               89828070100P3YK20180123000180SPEAKER ASM                   M IMCTM CM1    TNTH  07070IMKDC KA PTB  00004  K0                0900DES        000000000000 DENSO TEN (THAILAND)                                                                                                                                            *G         20180111 IMCT                IMCT                                                                                                                    WMF1801111.TXT
MAKK81068953201801D1               89828070100P3YK20180124000150SPEAKER ASM                   M IMCTM CM1    TNTH  07070IMKDC KA PTB  00004  K0                0900DES        000000000000 DENSO TEN (THAILAND)                                                                                                                                            *G         20180111 IMCT                IMCT                                                                                                                    WMF1801111.TXT
MAKK81068954201801D1               89828070100P3YK20180125000120SPEAKER ASM                   M IMCTM CM1    TNTH  07070IMKDC KA PTB  00004  K0                0900DES        000000000000 DENSO TEN (THAILAND)                                                                                                                                            *G         20180111 IMCT                IMCT                                                                                                                    WMF1801111.TXT
MAKK81068955201801D1               89828070100P3YK20180126000150SPEAKER ASM                   M IMCTM CM1    TNTH  07070IMKDC KA PTB  00004  K0                0900DES        000000000000 DENSO TEN (THAILAND)                                                                                                                                            *G         20180111 IMCT                IMCT                                                                                                                    WMF1801111.TXT
MAKK81068956201801D1               89828070100P3YK20180127000210SPEAKER ASM                   M IMCTM CM1    TNTH  07070IMKDC KA PTB  00004  K0                0900DES        000000000000 DENSO TEN (THAILAND)                                                                                                                                            *G         20180111 IMCT                IMCT                                                                                                                    WMF1801111.TXT
MAKK81068957201801D1               89828070200P3YK20180122000090SPEAKER ASM                   M IMCTM CM1    TNTH  07070IMKDC KA PTB  00005  K0                0900DES        000000000000 DENSO TEN (THAILAND)                                                                                                                                            *G         20180111 IMCT                IMCT                                                                                                                    WMF1801111.TXT
MAKK81068958201801D1               89828070200P3YK20180123000060SPEAKER ASM                   M IMCTM CM1    TNTH  07070IMKDC KA PTB  00005  K0                0900DES        000000000000 DENSO TEN (THAILAND)                                                                                                                                            *G         20180111 IMCT                IMCT                                                                                                                    WMF1801111.TXT
MAKK81068959201801D1               89828070200P3YK20180124000030SPEAKER ASM                   M IMCTM CM1    TNTH  07070IMKDC KA PTB  00005  K0                0900DES        000000000000 DENSO TEN (THAILAND)                                                                                                                                            *G         20180111 IMCT                IMCT                                                                                                                    WMF1801111.TXT
MAKK81068960201801D1               89828070200P3YK20180126000030SPEAKER ASM                   M IMCTM CM1    TNTH  07070IMKDC KA PTB  00005  K0                0900DES        000000000000 DENSO TEN (THAILAND)                                                                                                                                            *G         20180111 IMCT                IMCT                                                                                                                    WMF1801111.TXT
MAKK81068961201801D1               89828070200P3YK20180127000060SPEAKER ASM                   M IMCTM CM1    TNTH  07070IMKDC KA PTB  00005  K0                0900DES        000000000000 DENSO TEN (THAILAND)                                                                                                                                            *G         20180111 IMCT                IMCT                                                                                                                    WMF1801111.TXT
MAKK81068962201801D1               89828070300P3YK20180122000090SPEAKER ASM                   M IMCTM CM1    TNTH  07070IMKDC KA PTB  00015  K0                0900DES        000000000000 DENSO TEN (THAILAND)                                                                                                                                            *G         20180111 IMCT                IMCT                                                                                                                    WMF1801111.TXT
MAKK81068963201801D1               89828070300P3YK20180123000060SPEAKER ASM                   M IMCTM CM1    TNTH  07070IMKDC KA PTB  00015  K0                0900DES        000000000000 DENSO TEN (THAILAND)                                                                                                                                            *G         20180111 IMCT                IMCT                                                                                                                    WMF1801111.TXT
MAKK81068964201801D1               89828070300P3YK20180124000030SPEAKER ASM                   M IMCTM CM1    TNTH  07070IMKDC KA PTB  00015  K0                0900DES        000000000000 DENSO TEN (THAILAND)                                                                                                                                            *G         20180111 IMCT                IMCT                                                                                                                    WMF1801111.TXT
MAKK81068965201801D1               89828070300P3YK20180125000030SPEAKER ASM                   M IMCTM CM1    TNTH  07070IMKDC KA PTB  00015  K0                0900DES        000000000000 DENSO TEN (THAILAND)                                                                                                                                            *G         20180111 IMCT                IMCT                                                                                                                    WMF1801111.TXT
MAKK81068966201801D1               89828070300P3YK20180126000030SPEAKER ASM                   M IMCTM CM1    TNTH  07070IMKDC KA PTB  00015  K0                0900DES        000000000000 DENSO TEN (THAILAND)                                                                                                                                            *G         20180111 IMCT                IMCT                                                                                                                    WMF1801111.TXT
MAKK81068967201801D1               89828070300P3YK20180127000060SPEAKER ASM                   M IMCTM CM1    TNTH  07070IMKDC KA PTB  00015  K0                0900DES        000000000000 DENSO TEN (THAILAND)                                                                                                                                            *G         20180111 IMCT                IMCT                                                                                                                    WMF1801111.TXT
