REC2018010820180108ISUZU                              66     
MDDDJ1210911201801                D89821984430PT1D20180112000030RADIO;AM/FM,CD                M IMCTM S5NC06 TNTH  07070IMCT  S5 PTB  00005                    0830 SR        000000000000 DENSO TEN (THAILAND)180LNGL0068068                                                                                                                              *          20180108 IMCT                IMCT                                                                                                                    WMF1801083.TXT
MDDDJ1210912201801                D89821984430PT1D20180112000030RADIO;AM/FM,CD                M IMCTM S5NC06 TNTH  07070IMCT  S5 PTB  00005                    1030 SR        000000000000 DENSO TEN (THAILAND)180LPAL0067067                                                                                                                              *          20180108 IMCT                IMCT                                                                                                                    WMF1801083.TXT
MDDDJ1210913201801                D89821984430PT1D20180112000030RADIO;AM/FM,CD                M IMCTM S5NC06 TNTH  07070IMCT  S5 PTB  00005                    1300 SR        000000000000 DENSO TEN (THAILAND)180LNEL0048048                                                                                                                              *          20180108 IMCT                IMCT                                                                                                                    WMF1801083.TXT
MDDDJ1210914201801                D89828070100PV1D20180111000060SPEAKER ASM                   M IMCTM S5MB11 TNTH  07070IMCT  S5 PTB  00004                    2230 SR        000000000000 DENSO TEN (THAILAND)180LPKL0035035                                                                                                                              *          20180108 IMCT                IMCT                                                                                                                    WMF1801083.TXT
MDDDJ1210915201801                D89828070100PV1D20180112000060SPEAKER ASM                   M IMCTM S5MB11 TNTH  07070IMCT  S5 PTB  00004                    0400 SR        000000000000 DENSO TEN (THAILAND)180LPGL0134134                                                                                                                              *          20180108 IMCT                IMCT                                                                                                                    WMF1801083.TXT
MDDDJ1210916201801                D89828070100PV1D20180112000060SPEAKER ASM                   M IMCTM S5MB11 TNTH  07070IMCT  S5 PTB  00004                    0830 SR        000000000000 DENSO TEN (THAILAND)180LNGL0068068                                                                                                                              *          20180108 IMCT                IMCT                                                                                                                    WMF1801083.TXT
MDDDJ1210917201801                D89828070100PV1D20180112000060SPEAKER ASM                   M IMCTM S5MB11 TNTH  07070IMCT  S5 PTB  00004                    1030 SR        000000000000 DENSO TEN (THAILAND)180LPAL0067067                                                                                                                              *          20180108 IMCT                IMCT                                                                                                                    WMF1801083.TXT
MDDDJ1210918201801                D89828070100PV1D20180112000060SPEAKER ASM                   M IMCTM S5MB11 TNTH  07070IMCT  S5 PTB  00004                    1300 SR        000000000000 DENSO TEN (THAILAND)180LNEL0048048                                                                                                                              *          20180108 IMCT                IMCT                                                                                                                    WMF1801083.TXT
MDDDJ1210919201801                D89828070300PT1D20180111000060SPEAKER ASM                   M IMCTM S5NB082TNTH  07070IMCT  S5 PTB  00015                    2230 SR        000000000000 DENSO TEN (THAILAND)180LPKL0035035                                                                                                                              *          20180108 IMCT                IMCT                                                                                                                    WMF1801083.TXT
MDDDJ1210920201801                D89828070300PT1D20180112000060SPEAKER ASM                   M IMCTM S5NB082TNTH  07070IMCT  S5 PTB  00015                    0400 SR        000000000000 DENSO TEN (THAILAND)180LPGL0134134                                                                                                                              *          20180108 IMCT                IMCT                                                                                                                    WMF1801083.TXT
MDDDJ1210921201801                D89831228300PT1D20180112000030RADIO;AM/FM,CD                M IMCTM S5NC06 TNTH  07070IMCT  S5 CPB  00003                    0400 SR        000000000000 DENSO TEN (THAILAND)180LPGL0134134                                                                                                                              *          20180108 IMCT                IMCT                                                                                                                    WMF1801083.TXT
MDDDJ1210922201801                D89848581600PT1D20180111000030RADIO;AM/FM CD D              M IMCTM S5NC06 TNTH  07070IMCT  S5 PTB  00003                    2230 SR        000000000000 DENSO TEN (THAILAND)180LPKL0035035                                                                                                                              *          20180108 IMCT                IMCT                                                                                                                    WMF1801083.TXT
MDEDJ1218000201801                D89828070100PV1D20180111000060SPEAKER ASM                   M IMCTM S5MB11 TNTH  07070IMCT  S5 PTB  00004                    2230 SR        000000000000 DENSO TEN (THAILAND)17079NL011011018007ZL0046046                                                                                                                *          20180108 IMCT                IMCT                                                                                                                    WMF1801083.TXT
MDEDJ1218001201801                D89828070100PV1D20180112000060SPEAKER ASM                   M IMCTM S5MB11 TNTH  07070IMCT  S5 PTB  00004                    0230 SR        000000000000 DENSO TEN (THAILAND)17053NL006806817079NL0111111                                                                                                                *          20180108 IMCT                IMCT                                                                                                                    WMF1801083.TXT
MDEDJ1218002201801                D89828070100PV1D20180112000030SPEAKER ASM                   M IMCTM S5MB11 TNTH  07070IMCT  S5 PTB  00004                    0400 SR        000000000000 DENSO TEN (THAILAND)17016PL0012012                                                                                                                              *          20180108 IMCT                IMCT                                                                                                                    WMF1801083.TXT
MDEDJ1218003201801                D89828070100PV1D20180112000030SPEAKER ASM                   M IMCTM S5MB11 TNTH  07070IMCT  S5 PTB  00004                    0830 SR        000000000000 DENSO TEN (THAILAND)17081NL0037037                                                                                                                              *          20180108 IMCT                IMCT                                                                                                                    WMF1801083.TXT
MDEDJ1218004201801                D89828070100PV1D20180112000030SPEAKER ASM                   M IMCTM S5MB11 TNTH  07070IMCT  S5 PTB  00004                    1030 SR        000000000000 DENSO TEN (THAILAND)17081NL0038038                                                                                                                              *          20180108 IMCT                IMCT                                                                                                                    WMF1801083.TXT
MDEDJ1218005201801                D89828070100PV1D20180112000060SPEAKER ASM                   M IMCTM S5MB11 TNTH  07070IMCT  S5 PTB  00004                    1300 SR        000000000000 DENSO TEN (THAILAND)17018ML004204217085RL0017017                                                                                                                *          20180108 IMCT                IMCT                                                                                                                    WMF1801083.TXT
MDEDJ1218006201801                D89828070100PV1D20180112000120SPEAKER ASM                   M IMCTM S5MB11 TNTH  07070IMCT  S5 PTB  00004                    1600 SR        000000000000 DENSO TEN (THAILAND)17057NL004704818007ZL0047048                                                                                                                *          20180108 IMCT                IMCT                                                                                                                    WMF1801083.TXT
MDEDJ1218007201801                D89828070100PV1D20180112000060SPEAKER ASM                   M IMCTM S5MB11 TNTH  07070IMCT  S5 PTB  00004                    2100 SR        000000000000 DENSO TEN (THAILAND)18007ZL0049050                                                                                                                              *          20180108 IMCT                IMCT                                                                                                                    WMF1801083.TXT
MDEDJ1218008201801                D89828070100PV4D20180112000030SPEAKER ASM                   M IMCTM S0FL05 TNTH  07070IMCT  S0 PTB  00004                    1300 SR        000000000000 DENSO TEN (THAILAND)17074NU0038038                                                                                                                              *          20180108 IMCT                IMCT                                                                                                                    WMF1801083.TXT
MDEDJ1218009201801                D89828070200PV1D20180111000030SPEAKER ASM                   M IMCTM S5MA14 TNTH  07070IMCT  S5 PTB  00005                    2230 SR        000000000000 DENSO TEN (THAILAND)17079NL0110110                                                                                                                              *          20180108 IMCT                IMCT                                                                                                                    WMF1801083.TXT
MDEDJ1218010201801                D89828070200PV1D20180112000030SPEAKER ASM                   M IMCTM S5MA14 TNTH  07070IMCT  S5 PTB  00005                    0230 SR        000000000000 DENSO TEN (THAILAND)17079NL0111111                                                                                                                              *          20180108 IMCT                IMCT                                                                                                                    WMF1801083.TXT
MDEDJ1218011201801                D89828070200PV1D20180112000030SPEAKER ASM                   M IMCTM S5MA14 TNTH  07070IMCT  S5 PTB  00005                    0400 SR        000000000000 DENSO TEN (THAILAND)17016PL0012012                                                                                                                              *          20180108 IMCT                IMCT                                                                                                                    WMF1801083.TXT
MDEDJ1218012201801                D89828070200PV1D20180112000030SPEAKER ASM                   M IMCTM S5MA14 TNTH  07070IMCT  S5 PTB  00005                    0830 SR        000000000000 DENSO TEN (THAILAND)17081NL0037037                                                                                                                              *          20180108 IMCT                IMCT                                                                                                                    WMF1801083.TXT
MDEDJ1218013201801                D89828070200PV1D20180112000030SPEAKER ASM                   M IMCTM S5MA14 TNTH  07070IMCT  S5 PTB  00005                    1030 SR        000000000000 DENSO TEN (THAILAND)17081NL0038038                                                                                                                              *          20180108 IMCT                IMCT                                                                                                                    WMF1801083.TXT
MDEDJ1218014201801                D89828070200PV1D20180112000030SPEAKER ASM                   M IMCTM S5MA14 TNTH  07070IMCT  S5 PTB  00005                    1300 SR        000000000000 DENSO TEN (THAILAND)17018ML0042042                                                                                                                              *          20180108 IMCT                IMCT                                                                                                                    WMF1801083.TXT
MDEDJ1218015201801                D89828070200PV1D20180112000060SPEAKER ASM                   M IMCTM S5MA14 TNTH  07070IMCT  S5 PTB  00005                    1600 SR        000000000000 DENSO TEN (THAILAND)17057NL0047048                                                                                                                              *          20180108 IMCT                IMCT                                                                                                                    WMF1801083.TXT
MDEDJ1218016201801                D89828070200PV4D20180112000030SPEAKER ASM                   M IMCTM S0FR05 TNTH  07070IMCT  S0 PTB  00005                    1300 SR        000000000000 DENSO TEN (THAILAND)17074NU0038038                                                                                                                              *          20180108 IMCT                IMCT                                                                                                                    WMF1801083.TXT
MDEDJ1218017201801                D89828070300PT1D20180111000030SPEAKER ASM                   M IMCTM S5NB082TNTH  07070IMCT  S5 PTB  00015                    2230 SR        000000000000 DENSO TEN (THAILAND)17079NL0110110                                                                                                                              *          20180108 IMCT                IMCT                                                                                                                    WMF1801083.TXT
MDEDJ1218018201801                D89828070300PT1D20180112000060SPEAKER ASM                   M IMCTM S5NB082TNTH  07070IMCT  S5 PTB  00015                    0230 SR        000000000000 DENSO TEN (THAILAND)17053NL006806817079NL0111111                                                                                                                *          20180108 IMCT                IMCT                                                                                                                    WMF1801083.TXT
MDEDJ1218019201801                D89828070300PT1D20180112000030SPEAKER ASM                   M IMCTM S5NB082TNTH  07070IMCT  S5 PTB  00015                    0400 SR        000000000000 DENSO TEN (THAILAND)17016PL0012012                                                                                                                              *          20180108 IMCT                IMCT                                                                                                                    WMF1801083.TXT
MDEDJ1218020201801                D89828070300PT1D20180112000030SPEAKER ASM                   M IMCTM S5NB082TNTH  07070IMCT  S5 PTB  00015                    0830 SR        000000000000 DENSO TEN (THAILAND)17081NL0037037                                                                                                                              *          20180108 IMCT                IMCT                                                                                                                    WMF1801083.TXT
MDEDJ1218021201801                D89828070300PT1D20180112000030SPEAKER ASM                   M IMCTM S5NB082TNTH  07070IMCT  S5 PTB  00015                    1030 SR        000000000000 DENSO TEN (THAILAND)17081NL0038038                                                                                                                              *          20180108 IMCT                IMCT                                                                                                                    WMF1801083.TXT
MDEDJ1218022201801                D89828070300PT1D20180112000030SPEAKER ASM                   M IMCTM S5NB082TNTH  07070IMCT  S5 PTB  00015                    1300 SR        000000000000 DENSO TEN (THAILAND)17018ML0042042                                                                                                                              *          20180108 IMCT                IMCT                                                                                                                    WMF1801083.TXT
MDEDJ1218023201801                D89828070300PT1D20180112000060SPEAKER ASM                   M IMCTM S5NB082TNTH  07070IMCT  S5 PTB  00015                    1600 SR        000000000000 DENSO TEN (THAILAND)17057NL0047048                                                                                                                              *          20180108 IMCT                IMCT                                                                                                                    WMF1801083.TXT
MDEDJ1218024201801                D89828070300PT4D20180112000030SPEAKER ASM                   M IMCTM S9TS02 TNTH  07070IMCT  S9 PTB  00015                    1300 SR        000000000000 DENSO TEN (THAILAND)17074NU0038038                                                                                                                              *          20180108 IMCT                IMCT                                                                                                                    WMF1801083.TXT
MDEDJ1218025201801                D89829645310PT1D20180112000015RADIO;ASM DVD                 M IMCTM S5NC06 TNTH  07070IMCT  S5 PTB  00003                    1300 SR        000000000000 DENSO TEN (THAILAND)17018ML0042042                                                                                                                              *          20180108 IMCT                IMCT                                                                                                                    WMF1801083.TXT
MDEDJ1218026201801                D89848581800PT1D20180111000015RADIO;AM/FM CD D              M IMCTM S5NC06 TNTH  07070IMCT  S5 PTB  00003                    2230 SR        000000000000 DENSO TEN (THAILAND)17079NL0110110                                                                                                                              *          20180108 IMCT                IMCT                                                                                                                    WMF1801083.TXT
MDEDJ1218027201801                D89848581800PT1D20180112000030RADIO;AM/FM CD D              M IMCTM S5NC06 TNTH  07070IMCT  S5 PTB  00003                    0230 SR        000000000000 DENSO TEN (THAILAND)17053NL006806817079NL0111111                                                                                                                *          20180108 IMCT                IMCT                                                                                                                    WMF1801083.TXT
MDEDJ1218028201801                D89848581800PT1D20180112000030RADIO;AM/FM CD D              M IMCTM S5NC06 TNTH  07070IMCT  S5 PTB  00003                    1600 SR        000000000000 DENSO TEN (THAILAND)17057NL0047048                                                                                                                              *          20180108 IMCT                IMCT                                                                                                                    WMF1801083.TXT
MDEDJ1218029201801                D89848581800PT4D20180112000015RADIO;AM/FM CD D              M IMCTM S9CO001TNTH  07070IMCT  S9 PTB  00003                    1300 SR        000000000000 DENSO TEN (THAILAND)17074NU0038038                                                                                                                              *          20180108 IMCT                IMCT                                                                                                                    WMF1801083.TXT
MDEUJ1217534201801                D89828070100PT4U20180111000030SPEAKER ASM                   M IMCTM S0FL05 TNTH  07070IMCT  S0 PTB  00004                    2230 SR        000000000000 DENSO TEN (THAILAND)18026UU0098098                                                                                                                              *          20180108 IMCT                IMCT                                                                                                                    WMF1801083.TXT
MDEUJ1217535201801                D89828070100PT4U20180112000030SPEAKER ASM                   M IMCTM S0FL05 TNTH  07070IMCT  S0 PTB  00004                    0230 SR        000000000000 DENSO TEN (THAILAND)18022TU0112112                                                                                                                              *          20180108 IMCT                IMCT                                                                                                                    WMF1801083.TXT
MDEUJ1217536201801                D89828070100PT4U20180112000030SPEAKER ASM                   M IMCTM S0FL05 TNTH  07070IMCT  S0 PTB  00004                    0400 SR        000000000000 DENSO TEN (THAILAND)18017TU0044044                                                                                                                              *          20180108 IMCT                IMCT                                                                                                                    WMF1801083.TXT
MDEUJ1217537201801                D89828070100PT4U20180112000060SPEAKER ASM                   M IMCTM S0FL05 TNTH  07070IMCT  S0 PTB  00004                    0830 SR        000000000000 DENSO TEN (THAILAND)18022TU011311318026UU0099099                                                                                                                *          20180108 IMCT                IMCT                                                                                                                    WMF1801083.TXT
MDEUJ1217538201801                D89828070100PT4U20180112000060SPEAKER ASM                   M IMCTM S0FL05 TNTH  07070IMCT  S0 PTB  00004                    1300 SR        000000000000 DENSO TEN (THAILAND)18025UU0020021                                                                                                                              *          20180108 IMCT                IMCT                                                                                                                    WMF1801083.TXT
MDEUJ1217539201801                D89828070100PT4U20180112000030SPEAKER ASM                   M IMCTM S0FL05 TNTH  07070IMCT  S0 PTB  00004                    1600 SR        000000000000 DENSO TEN (THAILAND)18026UU0100100                                                                                                                              *          20180108 IMCT                IMCT                                                                                                                    WMF1801083.TXT
MDEUJ1217540201801                D89828070100PT4U20180112000030SPEAKER ASM                   M IMCTM S0FL05 TNTH  07070IMCT  S0 PTB  00004                    2100 SR        000000000000 DENSO TEN (THAILAND)18023UU0014014                                                                                                                              *          20180108 IMCT                IMCT                                                                                                                    WMF1801083.TXT
MDEUJ1217541201801                D89828070100PT4U20180112000030SPEAKER ASM                   M IMCTM S0FL05 TNTH  07070IMCT  S0 PTB  00004                    2230 SR        000000000000 DENSO TEN (THAILAND)18026UU0101101                                                                                                                              *          20180108 IMCT                IMCT                                                                                                                    WMF1801083.TXT
MDEUJ1217542201801                D89828070200PV4U20180111000030SPEAKER ASM                   M IMCTM S0FR05 TNTH  07070IMCT  S0 PTB  00005                    2230 SR        000000000000 DENSO TEN (THAILAND)18026UU0098098                                                                                                                              *          20180108 IMCT                IMCT                                                                                                                    WMF1801083.TXT
MDEUJ1217543201801                D89828070200PV4U20180112000030SPEAKER ASM                   M IMCTM S0FR05 TNTH  07070IMCT  S0 PTB  00005                    0230 SR        000000000000 DENSO TEN (THAILAND)18022TU0112112                                                                                                                              *          20180108 IMCT                IMCT                                                                                                                    WMF1801083.TXT
MDEUJ1217544201801                D89828070200PV4U20180112000030SPEAKER ASM                   M IMCTM S0FR05 TNTH  07070IMCT  S0 PTB  00005                    0400 SR        000000000000 DENSO TEN (THAILAND)18017TU0044044                                                                                                                              *          20180108 IMCT                IMCT                                                                                                                    WMF1801083.TXT
MDEUJ1217545201801                D89828070200PV4U20180112000060SPEAKER ASM                   M IMCTM S0FR05 TNTH  07070IMCT  S0 PTB  00005                    0830 SR        000000000000 DENSO TEN (THAILAND)18022TU011311318026UU0099099                                                                                                                *          20180108 IMCT                IMCT                                                                                                                    WMF1801083.TXT
MDEUJ1217546201801                D89828070200PV4U20180112000060SPEAKER ASM                   M IMCTM S0FR05 TNTH  07070IMCT  S0 PTB  00005                    1300 SR        000000000000 DENSO TEN (THAILAND)18025UU0020021                                                                                                                              *          20180108 IMCT                IMCT                                                                                                                    WMF1801083.TXT
MDEUJ1217547201801                D89828070200PV4U20180112000030SPEAKER ASM                   M IMCTM S0FR05 TNTH  07070IMCT  S0 PTB  00005                    1600 SR        000000000000 DENSO TEN (THAILAND)18026UU0100100                                                                                                                              *          20180108 IMCT                IMCT                                                                                                                    WMF1801083.TXT
MDEUJ1217548201801                D89828070200PV4U20180112000030SPEAKER ASM                   M IMCTM S0FR05 TNTH  07070IMCT  S0 PTB  00005                    2100 SR        000000000000 DENSO TEN (THAILAND)18023UU0014014                                                                                                                              *          20180108 IMCT                IMCT                                                                                                                    WMF1801083.TXT
MDEUJ1217549201801                D89828070200PV4U20180112000030SPEAKER ASM                   M IMCTM S0FR05 TNTH  07070IMCT  S0 PTB  00005                    2230 SR        000000000000 DENSO TEN (THAILAND)18026UU0101101                                                                                                                              *          20180108 IMCT                IMCT                                                                                                                    WMF1801083.TXT
MDEUJ1217550201801                D89828070300PT4U20180111000030SPEAKER ASM                   M IMCTM S9TS02 TNTH  07070IMCT  S9 PTB  00015                    2230 SR        000000000000 DENSO TEN (THAILAND)18026UU0098098                                                                                                                              *          20180108 IMCT                IMCT                                                                                                                    WMF1801083.TXT
MDEUJ1217551201801                D89828070300PT4U20180112000030SPEAKER ASM                   M IMCTM S9TS02 TNTH  07070IMCT  S9 PTB  00015                    0230 SR        000000000000 DENSO TEN (THAILAND)18022TU0112112                                                                                                                              *          20180108 IMCT                IMCT                                                                                                                    WMF1801083.TXT
MDEUJ1217552201801                D89828070300PT4U20180112000030SPEAKER ASM                   M IMCTM S9TS02 TNTH  07070IMCT  S9 PTB  00015                    0400 SR        000000000000 DENSO TEN (THAILAND)18017TU0044044                                                                                                                              *          20180108 IMCT                IMCT                                                                                                                    WMF1801083.TXT
MDEUJ1217553201801                D89828070300PT4U20180112000060SPEAKER ASM                   M IMCTM S9TS02 TNTH  07070IMCT  S9 PTB  00015                    0830 SR        000000000000 DENSO TEN (THAILAND)18022TU011311318026UU0099099                                                                                                                *          20180108 IMCT                IMCT                                                                                                                    WMF1801083.TXT
MDEUJ1217554201801                D89828070300PT4U20180112000060SPEAKER ASM                   M IMCTM S9TS02 TNTH  07070IMCT  S9 PTB  00015                    1300 SR        000000000000 DENSO TEN (THAILAND)18025UU0020021                                                                                                                              *          20180108 IMCT                IMCT                                                                                                                    WMF1801083.TXT
MDEUJ1217555201801                D89828070300PT4U20180112000030SPEAKER ASM                   M IMCTM S9TS02 TNTH  07070IMCT  S9 PTB  00015                    1600 SR        000000000000 DENSO TEN (THAILAND)18026UU0100100                                                                                                                              *          20180108 IMCT                IMCT                                                                                                                    WMF1801083.TXT
MDEUJ1217556201801                D89828070300PT4U20180112000030SPEAKER ASM                   M IMCTM S9TS02 TNTH  07070IMCT  S9 PTB  00015                    2100 SR        000000000000 DENSO TEN (THAILAND)18023UU0014014                                                                                                                              *          20180108 IMCT                IMCT                                                                                                                    WMF1801083.TXT
MDEUJ1217557201801                D89828070300PT4U20180112000030SPEAKER ASM                   M IMCTM S9TS02 TNTH  07070IMCT  S9 PTB  00015                    2230 SR        000000000000 DENSO TEN (THAILAND)18026UU0101101                                                                                                                              *          20180108 IMCT                IMCT                                                                                                                    WMF1801083.TXT
