REC2018011820180118ISUZU                              68     
MDDDJ1240564201801                D89821984430PT1D20180122000060RADIO;AM/FM,CD                M IMCTM S5NC06 TNTH  07070IMCT  S5 PTB  00005                    2230 SR        000000000000 DENSO TEN (THAILAND)180LNEL0052052180LXEL0004004                                                                                                                *          20180118 IMCT                IMCT                                                                                                                    WMF1801184.TXT
MDDDJ1240565201801                D89821984430PT1D20180123000030RADIO;AM/FM,CD                M IMCTM S5NC06 TNTH  07070IMCT  S5 PTB  00005                    0400 SR        000000000000 DENSO TEN (THAILAND)180LNHL0028028                                                                                                                              *          20180118 IMCT                IMCT                                                                                                                    WMF1801184.TXT
MDDDJ1240566201801                D89821984430PT1D20180123000060RADIO;AM/FM,CD                M IMCTM S5NC06 TNTH  07070IMCT  S5 PTB  00005                    1600 SR        000000000000 DENSO TEN (THAILAND)180LNGL0078078180LPAL0070070                                                                                                                *          20180118 IMCT                IMCT                                                                                                                    WMF1801184.TXT
MDDDJ1240567201801                D89828070100PV1D20180122000120SPEAKER ASM                   M IMCTM S5MB11 TNTH  07070IMCT  S5 PTB  00004                    2230 SR        000000000000 DENSO TEN (THAILAND)180LNEL0052052180LXEL0004004                                                                                                                *          20180118 IMCT                IMCT                                                                                                                    WMF1801184.TXT
MDDDJ1240568201801                D89828070100PV1D20180123000060SPEAKER ASM                   M IMCTM S5MB11 TNTH  07070IMCT  S5 PTB  00004                    0400 SR        000000000000 DENSO TEN (THAILAND)180LNHL0028028                                                                                                                              *          20180118 IMCT                IMCT                                                                                                                    WMF1801184.TXT
MDDDJ1240569201801                D89828070100PV1D20180123000060SPEAKER ASM                   M IMCTM S5MB11 TNTH  07070IMCT  S5 PTB  00004                    1030 SR        000000000000 DENSO TEN (THAILAND)180LPGL0139139                                                                                                                              *          20180118 IMCT                IMCT                                                                                                                    WMF1801184.TXT
MDDDJ1240570201801                D89828070100PV1D20180123000120SPEAKER ASM                   M IMCTM S5MB11 TNTH  07070IMCT  S5 PTB  00004                    1600 SR        000000000000 DENSO TEN (THAILAND)180LNGL0078078180LPAL0070070                                                                                                                *          20180118 IMCT                IMCT                                                                                                                    WMF1801184.TXT
MDDDJ1240571201801                D89828070100PV4D20180123000060SPEAKER ASM                   M IMCTM S0FL05 TNTH  07070IMCT  S0 PTB  00004                    2230 SR        000000000000 DENSO TEN (THAILAND)180LRSU0028028                                                                                                                              *          20180118 IMCT                IMCT                                                                                                                    WMF1801184.TXT
MDDDJ1240572201801                D89828070200PV4D20180123000060SPEAKER ASM                   M IMCTM S0FR05 TNTH  07070IMCT  S0 PTB  00005                    2230 SR        000000000000 DENSO TEN (THAILAND)180LRSU0028028                                                                                                                              *          20180118 IMCT                IMCT                                                                                                                    WMF1801184.TXT
MDDDJ1240573201801                D89828070300PT1D20180123000060SPEAKER ASM                   M IMCTM S5NB082TNTH  07070IMCT  S5 PTB  00015                    1030 SR        000000000000 DENSO TEN (THAILAND)180LPGL0139139                                                                                                                              *          20180118 IMCT                IMCT                                                                                                                    WMF1801184.TXT
MDDDJ1240574201801                D89828070300PT4D20180123000060SPEAKER ASM                   M IMCTM S9TS02 TNTH  07070IMCT  S9 PTB  00015                    2230 SR        000000000000 DENSO TEN (THAILAND)180LRSU0028028                                                                                                                              *          20180118 IMCT                IMCT                                                                                                                    WMF1801184.TXT
MDDDJ1240575201801                D89831228300PT1D20180123000030RADIO;AM/FM,CD                M IMCTM S5NC06 TNTH  07070IMCT  S5 CPB  00003                    1030 SR        000000000000 DENSO TEN (THAILAND)180LPGL0139139                                                                                                                              *          20180118 IMCT                IMCT                                                                                                                    WMF1801184.TXT
MDDUJ1227826201801                D89828070100PT4U20180123000030SPEAKER ASM                   M IMCTM S0FL05 TNTH  07070IMCT  S0 PTB  00004                    0230 SR        000000000000 DENSO TEN (THAILAND)180LURU0010010                                                                                                                              *          20180118 IMCT                IMCT                                                                                                                    WMF1801184.TXT
MDDUJ1227827201801                D89828070100PT4U20180123000030SPEAKER ASM                   M IMCTM S0FL05 TNTH  07070IMCT  S0 PTB  00004                    0400 SR        000000000000 DENSO TEN (THAILAND)180LUTU0006006                                                                                                                              *          20180118 IMCT                IMCT                                                                                                                    WMF1801184.TXT
MDDUJ1227828201801                D89828070100PT4U20180123000030SPEAKER ASM                   M IMCTM S0FL05 TNTH  07070IMCT  S0 PTB  00004                    1030 SR        000000000000 DENSO TEN (THAILAND)180LUSU0006006                                                                                                                              *          20180118 IMCT                IMCT                                                                                                                    WMF1801184.TXT
MDDUJ1227829201801                D89828070100PT4U20180123000030SPEAKER ASM                   M IMCTM S0FL05 TNTH  07070IMCT  S0 PTB  00004                    1600 SR        000000000000 DENSO TEN (THAILAND)180LUNU0002002                                                                                                                              *          20180118 IMCT                IMCT                                                                                                                    WMF1801184.TXT
MDDUJ1227830201801                D89828070100PT4U20180123000030SPEAKER ASM                   M IMCTM S0FL05 TNTH  07070IMCT  S0 PTB  00004                    2100 SR        000000000000 DENSO TEN (THAILAND)180LULU0009009                                                                                                                              *          20180118 IMCT                IMCT                                                                                                                    WMF1801184.TXT
MDDUJ1227831201801                D89828070200PV4U20180123000030SPEAKER ASM                   M IMCTM S0FR05 TNTH  07070IMCT  S0 PTB  00005                    0230 SR        000000000000 DENSO TEN (THAILAND)180LURU0010010                                                                                                                              *          20180118 IMCT                IMCT                                                                                                                    WMF1801184.TXT
MDDUJ1227832201801                D89828070200PV4U20180123000030SPEAKER ASM                   M IMCTM S0FR05 TNTH  07070IMCT  S0 PTB  00005                    0400 SR        000000000000 DENSO TEN (THAILAND)180LUTU0006006                                                                                                                              *          20180118 IMCT                IMCT                                                                                                                    WMF1801184.TXT
MDDUJ1227833201801                D89828070200PV4U20180123000030SPEAKER ASM                   M IMCTM S0FR05 TNTH  07070IMCT  S0 PTB  00005                    1030 SR        000000000000 DENSO TEN (THAILAND)180LUSU0006006                                                                                                                              *          20180118 IMCT                IMCT                                                                                                                    WMF1801184.TXT
MDDUJ1227834201801                D89828070200PV4U20180123000030SPEAKER ASM                   M IMCTM S0FR05 TNTH  07070IMCT  S0 PTB  00005                    1600 SR        000000000000 DENSO TEN (THAILAND)180LUNU0002002                                                                                                                              *          20180118 IMCT                IMCT                                                                                                                    WMF1801184.TXT
MDDUJ1227835201801                D89828070200PV4U20180123000030SPEAKER ASM                   M IMCTM S0FR05 TNTH  07070IMCT  S0 PTB  00005                    2100 SR        000000000000 DENSO TEN (THAILAND)180LULU0009009                                                                                                                              *          20180118 IMCT                IMCT                                                                                                                    WMF1801184.TXT
MDDUJ1227836201801                D89828070300PT4U20180123000030SPEAKER ASM                   M IMCTM S9TS02 TNTH  07070IMCT  S9 PTB  00015                    0230 SR        000000000000 DENSO TEN (THAILAND)180LURU0010010                                                                                                                              *          20180118 IMCT                IMCT                                                                                                                    WMF1801184.TXT
MDDUJ1227837201801                D89828070300PT4U20180123000030SPEAKER ASM                   M IMCTM S9TS02 TNTH  07070IMCT  S9 PTB  00015                    0400 SR        000000000000 DENSO TEN (THAILAND)180LUTU0006006                                                                                                                              *          20180118 IMCT                IMCT                                                                                                                    WMF1801184.TXT
MDDUJ1227838201801                D89828070300PT4U20180123000030SPEAKER ASM                   M IMCTM S9TS02 TNTH  07070IMCT  S9 PTB  00015                    1030 SR        000000000000 DENSO TEN (THAILAND)180LUSU0006006                                                                                                                              *          20180118 IMCT                IMCT                                                                                                                    WMF1801184.TXT
MDDUJ1227839201801                D89828070300PT4U20180123000030SPEAKER ASM                   M IMCTM S9TS02 TNTH  07070IMCT  S9 PTB  00015                    1600 SR        000000000000 DENSO TEN (THAILAND)180LUNU0002002                                                                                                                              *          20180118 IMCT                IMCT                                                                                                                    WMF1801184.TXT
MDDUJ1227840201801                D89828070300PT4U20180123000030SPEAKER ASM                   M IMCTM S9TS02 TNTH  07070IMCT  S9 PTB  00015                    2100 SR        000000000000 DENSO TEN (THAILAND)180LULU0009009                                                                                                                              *          20180118 IMCT                IMCT                                                                                                                    WMF1801184.TXT
MDDUJ1227841201801                D89848584200PT4U20180123000015RADIO;AM/FM CD D              M IMCTM S9CO001TNTH  07070IMCT  S9 PTB  00003                    1600 SR        000000000000 DENSO TEN (THAILAND)180LUNU0002002                                                                                                                              *          20180118 IMCT                IMCT                                                                                                                    WMF1801184.TXT
MDEDJ1275635201801                D89828070100PV1D20180122000030SPEAKER ASM                   M IMCTM S5MB11 TNTH  07070IMCT  S5 PTB  00004                    2230 SR        000000000000 DENSO TEN (THAILAND)18007ZL0066066                                                                                                                              *          20180118 IMCT                IMCT                                                                                                                    WMF1801184.TXT
MDEDJ1275636201801                D89828070100PV1D20180123000030SPEAKER ASM                   M IMCTM S5MB11 TNTH  07070IMCT  S5 PTB  00004                    0230 SR        000000000000 DENSO TEN (THAILAND)17075PL0075075                                                                                                                              *          20180118 IMCT                IMCT                                                                                                                    WMF1801184.TXT
MDEDJ1275637201801                D89828070100PV1D20180123000030SPEAKER ASM                   M IMCTM S5MB11 TNTH  07070IMCT  S5 PTB  00004                    0400 SR        000000000000 DENSO TEN (THAILAND)17075PL0076076                                                                                                                              *          20180118 IMCT                IMCT                                                                                                                    WMF1801184.TXT
MDEDJ1275638201801                D89828070100PV1D20180123000090SPEAKER ASM                   M IMCTM S5MB11 TNTH  07070IMCT  S5 PTB  00004                    0830 SR        000000000000 DENSO TEN (THAILAND)17028NL002302317029NL0021022                                                                                                                *          20180118 IMCT                IMCT                                                                                                                    WMF1801184.TXT
MDEDJ1275639201801                D89828070100PV1D20180123000030SPEAKER ASM                   M IMCTM S5MB11 TNTH  07070IMCT  S5 PTB  00004                    1030 SR        000000000000 DENSO TEN (THAILAND)17028NL0024024                                                                                                                              *          20180118 IMCT                IMCT                                                                                                                    WMF1801184.TXT
MDEDJ1275640201801                D89828070100PV1D20180123000090SPEAKER ASM                   M IMCTM S5MB11 TNTH  07070IMCT  S5 PTB  00004                    1300 SR        000000000000 DENSO TEN (THAILAND)17052RL002402417074NL0092093                                                                                                                *          20180118 IMCT                IMCT                                                                                                                    WMF1801184.TXT
MDEDJ1275641201801                D89828070100PV1D20180123000090SPEAKER ASM                   M IMCTM S5MB11 TNTH  07070IMCT  S5 PTB  00004                    1600 SR        000000000000 DENSO TEN (THAILAND)17075PL007707817080NL0131131                                                                                                                *          20180118 IMCT                IMCT                                                                                                                    WMF1801184.TXT
MDEDJ1275642201801                D89828070100PV1D20180123000060SPEAKER ASM                   M IMCTM S5MB11 TNTH  07070IMCT  S5 PTB  00004                    2100 SR        000000000000 DENSO TEN (THAILAND)18007ZL0067068                                                                                                                              *          20180118 IMCT                IMCT                                                                                                                    WMF1801184.TXT
MDEDJ1275643201801                D89828070100PV4D20180123000030SPEAKER ASM                   M IMCTM S0FL05 TNTH  07070IMCT  S0 PTB  00004                    1030 SR        000000000000 DENSO TEN (THAILAND)17074NU0042042                                                                                                                              *          20180118 IMCT                IMCT                                                                                                                    WMF1801184.TXT
MDEDJ1275644201801                D89828070100PV4D20180123000030SPEAKER ASM                   M IMCTM S0FL05 TNTH  07070IMCT  S0 PTB  00004                    1300 SR        000000000000 DENSO TEN (THAILAND)17074NU0043043                                                                                                                              *          20180118 IMCT                IMCT                                                                                                                    WMF1801184.TXT
MDEDJ1275645201801                D89828070200PV1D20180123000060SPEAKER ASM                   M IMCTM S5MA14 TNTH  07070IMCT  S5 PTB  00005                    1300 SR        000000000000 DENSO TEN (THAILAND)17074NL0092093                                                                                                                              *          20180118 IMCT                IMCT                                                                                                                    WMF1801184.TXT
MDEDJ1275646201801                D89828070200PV1D20180123000030SPEAKER ASM                   M IMCTM S5MA14 TNTH  07070IMCT  S5 PTB  00005                    1600 SR        000000000000 DENSO TEN (THAILAND)17080NL0131131                                                                                                                              *          20180118 IMCT                IMCT                                                                                                                    WMF1801184.TXT
MDEDJ1275647201801                D89828070200PV4D20180123000030SPEAKER ASM                   M IMCTM S0FR05 TNTH  07070IMCT  S0 PTB  00005                    1030 SR        000000000000 DENSO TEN (THAILAND)17074NU0042042                                                                                                                              *          20180118 IMCT                IMCT                                                                                                                    WMF1801184.TXT
MDEDJ1275648201801                D89828070200PV4D20180123000030SPEAKER ASM                   M IMCTM S0FR05 TNTH  07070IMCT  S0 PTB  00005                    1300 SR        000000000000 DENSO TEN (THAILAND)17074NU0043043                                                                                                                              *          20180118 IMCT                IMCT                                                                                                                    WMF1801184.TXT
MDEDJ1275649201801                D89828070300PT1D20180123000060SPEAKER ASM                   M IMCTM S5NB082TNTH  07070IMCT  S5 PTB  00015                    0830 SR        000000000000 DENSO TEN (THAILAND)17029NL0021022                                                                                                                              *          20180118 IMCT                IMCT                                                                                                                    WMF1801184.TXT
MDEDJ1275650201801                D89828070300PT1D20180123000060SPEAKER ASM                   M IMCTM S5NB082TNTH  07070IMCT  S5 PTB  00015                    1300 SR        000000000000 DENSO TEN (THAILAND)17074NL0092093                                                                                                                              *          20180118 IMCT                IMCT                                                                                                                    WMF1801184.TXT
MDEDJ1275651201801                D89828070300PT1D20180123000030SPEAKER ASM                   M IMCTM S5NB082TNTH  07070IMCT  S5 PTB  00015                    1600 SR        000000000000 DENSO TEN (THAILAND)17080NL0131131                                                                                                                              *          20180118 IMCT                IMCT                                                                                                                    WMF1801184.TXT
MDEDJ1275652201801                D89828070300PT4D20180123000030SPEAKER ASM                   M IMCTM S9TS02 TNTH  07070IMCT  S9 PTB  00015                    1030 SR        000000000000 DENSO TEN (THAILAND)17074NU0042042                                                                                                                              *          20180118 IMCT                IMCT                                                                                                                    WMF1801184.TXT
MDEDJ1275653201801                D89828070300PT4D20180123000030SPEAKER ASM                   M IMCTM S9TS02 TNTH  07070IMCT  S9 PTB  00015                    1300 SR        000000000000 DENSO TEN (THAILAND)17074NU0043043                                                                                                                              *          20180118 IMCT                IMCT                                                                                                                    WMF1801184.TXT
MDEDJ1275654201801                D89848581800PT1D20180123000030RADIO;AM/FM CD D              M IMCTM S5NC06 TNTH  07070IMCT  S5 PTB  00003                    1300 SR        000000000000 DENSO TEN (THAILAND)17074NL0092093                                                                                                                              *          20180118 IMCT                IMCT                                                                                                                    WMF1801184.TXT
MDEDJ1275655201801                D89848581800PT4D20180123000015RADIO;AM/FM CD D              M IMCTM S9CO001TNTH  07070IMCT  S9 PTB  00003                    1030 SR        000000000000 DENSO TEN (THAILAND)17074NU0042042                                                                                                                              *          20180118 IMCT                IMCT                                                                                                                    WMF1801184.TXT
MDEDJ1275656201801                D89848581800PT4D20180123000015RADIO;AM/FM CD D              M IMCTM S9CO001TNTH  07070IMCT  S9 PTB  00003                    1300 SR        000000000000 DENSO TEN (THAILAND)17074NU0043043                                                                                                                              *          20180118 IMCT                IMCT                                                                                                                    WMF1801184.TXT
MDEUJ1256439201801                D89828070100PT4U20180122000030SPEAKER ASM                   M IMCTM S0FL05 TNTH  07070IMCT  S0 PTB  00004                    2230 SR        000000000000 DENSO TEN (THAILAND)18026UU0118118                                                                                                                              *          20180118 IMCT                IMCT                                                                                                                    WMF1801184.TXT
MDEUJ1256440201801                D89828070100PT4U20180123000030SPEAKER ASM                   M IMCTM S0FL05 TNTH  07070IMCT  S0 PTB  00004                    0230 SR        000000000000 DENSO TEN (THAILAND)18026UU0119119                                                                                                                              *          20180118 IMCT                IMCT                                                                                                                    WMF1801184.TXT
MDEUJ1256441201801                D89828070100PT4U20180123000030SPEAKER ASM                   M IMCTM S0FL05 TNTH  07070IMCT  S0 PTB  00004                    0830 SR        000000000000 DENSO TEN (THAILAND)18026UU0120120                                                                                                                              *          20180118 IMCT                IMCT                                                                                                                    WMF1801184.TXT
MDEUJ1256442201801                D89828070100PT4U20180123000030SPEAKER ASM                   M IMCTM S0FL05 TNTH  07070IMCT  S0 PTB  00004                    1300 SR        000000000000 DENSO TEN (THAILAND)18023TU0239239                                                                                                                              *          20180118 IMCT                IMCT                                                                                                                    WMF1801184.TXT
MDEUJ1256443201801                D89828070100PT4U20180123000030SPEAKER ASM                   M IMCTM S0FL05 TNTH  07070IMCT  S0 PTB  00004                    1600 SR        000000000000 DENSO TEN (THAILAND)18026UU0121121                                                                                                                              *          20180118 IMCT                IMCT                                                                                                                    WMF1801184.TXT
MDEUJ1256444201801                D89828070100PT4U20180123000030SPEAKER ASM                   M IMCTM S0FL05 TNTH  07070IMCT  S0 PTB  00004                    2100 SR        000000000000 DENSO TEN (THAILAND)18026UU0122122                                                                                                                              *          20180118 IMCT                IMCT                                                                                                                    WMF1801184.TXT
MDEUJ1256445201801                D89828070200PV4U20180122000030SPEAKER ASM                   M IMCTM S0FR05 TNTH  07070IMCT  S0 PTB  00005                    2230 SR        000000000000 DENSO TEN (THAILAND)18026UU0118118                                                                                                                              *          20180118 IMCT                IMCT                                                                                                                    WMF1801184.TXT
MDEUJ1256446201801                D89828070200PV4U20180123000030SPEAKER ASM                   M IMCTM S0FR05 TNTH  07070IMCT  S0 PTB  00005                    0230 SR        000000000000 DENSO TEN (THAILAND)18026UU0119119                                                                                                                              *          20180118 IMCT                IMCT                                                                                                                    WMF1801184.TXT
MDEUJ1256447201801                D89828070200PV4U20180123000030SPEAKER ASM                   M IMCTM S0FR05 TNTH  07070IMCT  S0 PTB  00005                    0830 SR        000000000000 DENSO TEN (THAILAND)18026UU0120120                                                                                                                              *          20180118 IMCT                IMCT                                                                                                                    WMF1801184.TXT
MDEUJ1256448201801                D89828070200PV4U20180123000030SPEAKER ASM                   M IMCTM S0FR05 TNTH  07070IMCT  S0 PTB  00005                    1300 SR        000000000000 DENSO TEN (THAILAND)18023TU0239239                                                                                                                              *          20180118 IMCT                IMCT                                                                                                                    WMF1801184.TXT
MDEUJ1256449201801                D89828070200PV4U20180123000030SPEAKER ASM                   M IMCTM S0FR05 TNTH  07070IMCT  S0 PTB  00005                    1600 SR        000000000000 DENSO TEN (THAILAND)18026UU0121121                                                                                                                              *          20180118 IMCT                IMCT                                                                                                                    WMF1801184.TXT
MDEUJ1256450201801                D89828070200PV4U20180123000030SPEAKER ASM                   M IMCTM S0FR05 TNTH  07070IMCT  S0 PTB  00005                    2100 SR        000000000000 DENSO TEN (THAILAND)18026UU0122122                                                                                                                              *          20180118 IMCT                IMCT                                                                                                                    WMF1801184.TXT
MDEUJ1256451201801                D89828070300PT4U20180122000030SPEAKER ASM                   M IMCTM S9TS02 TNTH  07070IMCT  S9 PTB  00015                    2230 SR        000000000000 DENSO TEN (THAILAND)18026UU0118118                                                                                                                              *          20180118 IMCT                IMCT                                                                                                                    WMF1801184.TXT
MDEUJ1256452201801                D89828070300PT4U20180123000030SPEAKER ASM                   M IMCTM S9TS02 TNTH  07070IMCT  S9 PTB  00015                    0230 SR        000000000000 DENSO TEN (THAILAND)18026UU0119119                                                                                                                              *          20180118 IMCT                IMCT                                                                                                                    WMF1801184.TXT
MDEUJ1256453201801                D89828070300PT4U20180123000030SPEAKER ASM                   M IMCTM S9TS02 TNTH  07070IMCT  S9 PTB  00015                    0830 SR        000000000000 DENSO TEN (THAILAND)18026UU0120120                                                                                                                              *          20180118 IMCT                IMCT                                                                                                                    WMF1801184.TXT
MDEUJ1256454201801                D89828070300PT4U20180123000030SPEAKER ASM                   M IMCTM S9TS02 TNTH  07070IMCT  S9 PTB  00015                    1300 SR        000000000000 DENSO TEN (THAILAND)18023TU0239239                                                                                                                              *          20180118 IMCT                IMCT                                                                                                                    WMF1801184.TXT
MDEUJ1256455201801                D89828070300PT4U20180123000030SPEAKER ASM                   M IMCTM S9TS02 TNTH  07070IMCT  S9 PTB  00015                    1600 SR        000000000000 DENSO TEN (THAILAND)18026UU0121121                                                                                                                              *          20180118 IMCT                IMCT                                                                                                                    WMF1801184.TXT
MDEUJ1256456201801                D89828070300PT4U20180123000030SPEAKER ASM                   M IMCTM S9TS02 TNTH  07070IMCT  S9 PTB  00015                    2100 SR        000000000000 DENSO TEN (THAILAND)18026UU0122122                                                                                                                              *          20180118 IMCT                IMCT                                                                                                                    WMF1801184.TXT
