REC2018011520180115ISUZU                              58     
MDDDJ1231227201801                D89821984430PT1D20180118000030RADIO;AM/FM,CD                M IMCTM S5NC06 TNTH  07070IMCT  S5 PTB  00005                    2230 SR        000000000000 DENSO TEN (THAILAND)180LXCL0002002                                                                                                                              *          20180115 IMCT                IMCT                                                                                                                    WMF1801154.TXT
MDDDJ1231228201801                D89821984430PT1D20180119000030RADIO;AM/FM,CD                M IMCTM S5NC06 TNTH  07070IMCT  S5 PTB  00005                    0400 SR        000000000000 DENSO TEN (THAILAND)180LNEL0050050                                                                                                                              *          20180115 IMCT                IMCT                                                                                                                    WMF1801154.TXT
MDDDJ1231229201801                D89821984430PT1D20180119000090RADIO;AM/FM,CD                M IMCTM S5NC06 TNTH  07070IMCT  S5 PTB  00005                    1600 SR        000000000000 DENSO TEN (THAILAND)180LNHL0026026180LRAL0109109180LXEL0002002                                                                                                  *          20180115 IMCT                IMCT                                                                                                                    WMF1801154.TXT
MDDDJ1231230201801                D89828070100PV1D20180118000060SPEAKER ASM                   M IMCTM S5MB11 TNTH  07070IMCT  S5 PTB  00004                    2230 SR        000000000000 DENSO TEN (THAILAND)180LXCL0002002                                                                                                                              *          20180115 IMCT                IMCT                                                                                                                    WMF1801154.TXT
MDDDJ1231231201801                D89828070100PV1D20180119000060SPEAKER ASM                   M IMCTM S5MB11 TNTH  07070IMCT  S5 PTB  00004                    0400 SR        000000000000 DENSO TEN (THAILAND)180LNEL0050050                                                                                                                              *          20180115 IMCT                IMCT                                                                                                                    WMF1801154.TXT
MDDDJ1231232201801                D89828070100PV1D20180119000060SPEAKER ASM                   M IMCTM S5MB11 TNTH  07070IMCT  S5 PTB  00004                    1300 SR        000000000000 DENSO TEN (THAILAND)180LPNL0009009                                                                                                                              *          20180115 IMCT                IMCT                                                                                                                    WMF1801154.TXT
MDDDJ1231233201801                D89828070100PV1D20180119000180SPEAKER ASM                   M IMCTM S5MB11 TNTH  07070IMCT  S5 PTB  00004                    1600 SR        000000000000 DENSO TEN (THAILAND)180LNHL0026026180LRAL0109109180LXEL0002002                                                                                                  *          20180115 IMCT                IMCT                                                                                                                    WMF1801154.TXT
MDDDJ1231234201801                D89828070300PT1D20180119000060SPEAKER ASM                   M IMCTM S5NB082TNTH  07070IMCT  S5 PTB  00015                    1300 SR        000000000000 DENSO TEN (THAILAND)180LPNL0009009                                                                                                                              *          20180115 IMCT                IMCT                                                                                                                    WMF1801154.TXT
MDDUJ1217417201801                D89828070100PT4U20180118000030SPEAKER ASM                   M IMCTM S0FL05 TNTH  07070IMCT  S0 PTB  00004                    2230 SR        000000000000 DENSO TEN (THAILAND)180LUMU0003003                                                                                                                              *          20180115 IMCT                IMCT                                                                                                                    WMF1801154.TXT
MDDUJ1217418201801                D89828070100PT4U20180119000030SPEAKER ASM                   M IMCTM S0FL05 TNTH  07070IMCT  S0 PTB  00004                    0400 SR        000000000000 DENSO TEN (THAILAND)180LURU0005005                                                                                                                              *          20180115 IMCT                IMCT                                                                                                                    WMF1801154.TXT
MDDUJ1217419201801                D89828070100PT4U20180119000030SPEAKER ASM                   M IMCTM S0FL05 TNTH  07070IMCT  S0 PTB  00004                    0830 SR        000000000000 DENSO TEN (THAILAND)180LUSU0003003                                                                                                                              *          20180115 IMCT                IMCT                                                                                                                    WMF1801154.TXT
MDDUJ1217420201801                D89828070100PT4U20180119000030SPEAKER ASM                   M IMCTM S0FL05 TNTH  07070IMCT  S0 PTB  00004                    1300 SR        000000000000 DENSO TEN (THAILAND)180LULU0006006                                                                                                                              *          20180115 IMCT                IMCT                                                                                                                    WMF1801154.TXT
MDDUJ1217421201801                D89828070100PT4U20180119000030SPEAKER ASM                   M IMCTM S0FL05 TNTH  07070IMCT  S0 PTB  00004                    1600 SR        000000000000 DENSO TEN (THAILAND)180LURU0006006                                                                                                                              *          20180115 IMCT                IMCT                                                                                                                    WMF1801154.TXT
MDDUJ1217422201801                D89828070100PT4U20180119000030SPEAKER ASM                   M IMCTM S0FL05 TNTH  07070IMCT  S0 PTB  00004                    2100 SR        000000000000 DENSO TEN (THAILAND)180LULU0007007                                                                                                                              *          20180115 IMCT                IMCT                                                                                                                    WMF1801154.TXT
MDDUJ1217423201801                D89828070200PV4U20180118000030SPEAKER ASM                   M IMCTM S0FR05 TNTH  07070IMCT  S0 PTB  00005                    2230 SR        000000000000 DENSO TEN (THAILAND)180LUMU0003003                                                                                                                              *          20180115 IMCT                IMCT                                                                                                                    WMF1801154.TXT
MDDUJ1217424201801                D89828070200PV4U20180119000030SPEAKER ASM                   M IMCTM S0FR05 TNTH  07070IMCT  S0 PTB  00005                    0400 SR        000000000000 DENSO TEN (THAILAND)180LURU0005005                                                                                                                              *          20180115 IMCT                IMCT                                                                                                                    WMF1801154.TXT
MDDUJ1217425201801                D89828070200PV4U20180119000030SPEAKER ASM                   M IMCTM S0FR05 TNTH  07070IMCT  S0 PTB  00005                    0830 SR        000000000000 DENSO TEN (THAILAND)180LUSU0003003                                                                                                                              *          20180115 IMCT                IMCT                                                                                                                    WMF1801154.TXT
MDDUJ1217426201801                D89828070200PV4U20180119000030SPEAKER ASM                   M IMCTM S0FR05 TNTH  07070IMCT  S0 PTB  00005                    1300 SR        000000000000 DENSO TEN (THAILAND)180LULU0006006                                                                                                                              *          20180115 IMCT                IMCT                                                                                                                    WMF1801154.TXT
MDDUJ1217427201801                D89828070200PV4U20180119000030SPEAKER ASM                   M IMCTM S0FR05 TNTH  07070IMCT  S0 PTB  00005                    1600 SR        000000000000 DENSO TEN (THAILAND)180LURU0006006                                                                                                                              *          20180115 IMCT                IMCT                                                                                                                    WMF1801154.TXT
MDDUJ1217428201801                D89828070200PV4U20180119000030SPEAKER ASM                   M IMCTM S0FR05 TNTH  07070IMCT  S0 PTB  00005                    2100 SR        000000000000 DENSO TEN (THAILAND)180LULU0007007                                                                                                                              *          20180115 IMCT                IMCT                                                                                                                    WMF1801154.TXT
MDDUJ1217429201801                D89828070300PT4U20180118000030SPEAKER ASM                   M IMCTM S9TS02 TNTH  07070IMCT  S9 PTB  00015                    2230 SR        000000000000 DENSO TEN (THAILAND)180LUMU0003003                                                                                                                              *          20180115 IMCT                IMCT                                                                                                                    WMF1801154.TXT
MDDUJ1217430201801                D89828070300PT4U20180119000030SPEAKER ASM                   M IMCTM S9TS02 TNTH  07070IMCT  S9 PTB  00015                    0400 SR        000000000000 DENSO TEN (THAILAND)180LURU0005005                                                                                                                              *          20180115 IMCT                IMCT                                                                                                                    WMF1801154.TXT
MDDUJ1217431201801                D89828070300PT4U20180119000030SPEAKER ASM                   M IMCTM S9TS02 TNTH  07070IMCT  S9 PTB  00015                    0830 SR        000000000000 DENSO TEN (THAILAND)180LUSU0003003                                                                                                                              *          20180115 IMCT                IMCT                                                                                                                    WMF1801154.TXT
MDDUJ1217432201801                D89828070300PT4U20180119000030SPEAKER ASM                   M IMCTM S9TS02 TNTH  07070IMCT  S9 PTB  00015                    1300 SR        000000000000 DENSO TEN (THAILAND)180LULU0006006                                                                                                                              *          20180115 IMCT                IMCT                                                                                                                    WMF1801154.TXT
MDDUJ1217433201801                D89828070300PT4U20180119000030SPEAKER ASM                   M IMCTM S9TS02 TNTH  07070IMCT  S9 PTB  00015                    1600 SR        000000000000 DENSO TEN (THAILAND)180LURU0006006                                                                                                                              *          20180115 IMCT                IMCT                                                                                                                    WMF1801154.TXT
MDDUJ1217434201801                D89828070300PT4U20180119000030SPEAKER ASM                   M IMCTM S9TS02 TNTH  07070IMCT  S9 PTB  00015                    2100 SR        000000000000 DENSO TEN (THAILAND)180LULU0007007                                                                                                                              *          20180115 IMCT                IMCT                                                                                                                    WMF1801154.TXT
MDEDJ1256178201801                D89828070100PV1D20180118000030SPEAKER ASM                   M IMCTM S5MB11 TNTH  07070IMCT  S5 PTB  00004                    2230 SR        000000000000 DENSO TEN (THAILAND)17075PL0063063                                                                                                                              *          20180115 IMCT                IMCT                                                                                                                    WMF1801154.TXT
MDEDJ1256179201801                D89828070100PV1D20180119000090SPEAKER ASM                   M IMCTM S5MB11 TNTH  07070IMCT  S5 PTB  00004                    0230 SR        000000000000 DENSO TEN (THAILAND)17075PL006406418007ZL0061062                                                                                                                *          20180115 IMCT                IMCT                                                                                                                    WMF1801154.TXT
MDEDJ1256180201801                D89828070100PV1D20180119000030SPEAKER ASM                   M IMCTM S5MB11 TNTH  07070IMCT  S5 PTB  00004                    0400 SR        000000000000 DENSO TEN (THAILAND)17055NL0078078                                                                                                                              *          20180115 IMCT                IMCT                                                                                                                    WMF1801154.TXT
MDEDJ1256181201801                D89828070100PV1D20180119000090SPEAKER ASM                   M IMCTM S5MB11 TNTH  07070IMCT  S5 PTB  00004                    0830 SR        000000000000 DENSO TEN (THAILAND)17055NL007907917085RL0018019                                                                                                                *          20180115 IMCT                IMCT                                                                                                                    WMF1801154.TXT
MDEDJ1256182201801                D89828070100PV1D20180119000060SPEAKER ASM                   M IMCTM S5MB11 TNTH  07070IMCT  S5 PTB  00004                    1030 SR        000000000000 DENSO TEN (THAILAND)17077PL0019020                                                                                                                              *          20180115 IMCT                IMCT                                                                                                                    WMF1801154.TXT
MDEDJ1256183201801                D89828070100PV1D20180119000060SPEAKER ASM                   M IMCTM S5MB11 TNTH  07070IMCT  S5 PTB  00004                    1300 SR        000000000000 DENSO TEN (THAILAND)17075PL0065066                                                                                                                              *          20180115 IMCT                IMCT                                                                                                                    WMF1801154.TXT
MDEDJ1256184201801                D89828070100PV1D20180119000030SPEAKER ASM                   M IMCTM S5MB11 TNTH  07070IMCT  S5 PTB  00004                    2100 SR        000000000000 DENSO TEN (THAILAND)17074NL0090090                                                                                                                              *          20180115 IMCT                IMCT                                                                                                                    WMF1801154.TXT
MDEDJ1256185201801                D89828070200PV1D20180119000030SPEAKER ASM                   M IMCTM S5MA14 TNTH  07070IMCT  S5 PTB  00005                    2100 SR        000000000000 DENSO TEN (THAILAND)17074NL0090090                                                                                                                              *          20180115 IMCT                IMCT                                                                                                                    WMF1801154.TXT
MDEDJ1256186201801                D89828070300PT1D20180119000030SPEAKER ASM                   M IMCTM S5NB082TNTH  07070IMCT  S5 PTB  00015                    0400 SR        000000000000 DENSO TEN (THAILAND)17055NL0078078                                                                                                                              *          20180115 IMCT                IMCT                                                                                                                    WMF1801154.TXT
MDEDJ1256187201801                D89828070300PT1D20180119000030SPEAKER ASM                   M IMCTM S5NB082TNTH  07070IMCT  S5 PTB  00015                    0830 SR        000000000000 DENSO TEN (THAILAND)17055NL0079079                                                                                                                              *          20180115 IMCT                IMCT                                                                                                                    WMF1801154.TXT
MDEDJ1256188201801                D89828070300PT1D20180119000030SPEAKER ASM                   M IMCTM S5NB082TNTH  07070IMCT  S5 PTB  00015                    2100 SR        000000000000 DENSO TEN (THAILAND)17074NL0090090                                                                                                                              *          20180115 IMCT                IMCT                                                                                                                    WMF1801154.TXT
MDEDJ1256189201801                D89848581800PT1D20180119000015RADIO;AM/FM CD D              M IMCTM S5NC06 TNTH  07070IMCT  S5 PTB  00003                    0400 SR        000000000000 DENSO TEN (THAILAND)17055NL0078078                                                                                                                              *          20180115 IMCT                IMCT                                                                                                                    WMF1801154.TXT
MDEDJ1256190201801                D89848581800PT1D20180119000015RADIO;AM/FM CD D              M IMCTM S5NC06 TNTH  07070IMCT  S5 PTB  00003                    0830 SR        000000000000 DENSO TEN (THAILAND)17055NL0079079                                                                                                                              *          20180115 IMCT                IMCT                                                                                                                    WMF1801154.TXT
MDEDJ1256191201801                D89848581800PT1D20180119000015RADIO;AM/FM CD D              M IMCTM S5NC06 TNTH  07070IMCT  S5 PTB  00003                    2100 SR        000000000000 DENSO TEN (THAILAND)17074NL0090090                                                                                                                              *          20180115 IMCT                IMCT                                                                                                                    WMF1801154.TXT
MDEUJ1244292201801                D89828070100PT4U20180118000030SPEAKER ASM                   M IMCTM S0FL05 TNTH  07070IMCT  S0 PTB  00004                    2230 SR        000000000000 DENSO TEN (THAILAND)18018TU0062062                                                                                                                              *          20180115 IMCT                IMCT                                                                                                                    WMF1801154.TXT
MDEUJ1244293201801                D89828070100PT4U20180119000030SPEAKER ASM                   M IMCTM S0FL05 TNTH  07070IMCT  S0 PTB  00004                    0230 SR        000000000000 DENSO TEN (THAILAND)18026UU0111111                                                                                                                              *          20180115 IMCT                IMCT                                                                                                                    WMF1801154.TXT
MDEUJ1244294201801                D89828070100PT4U20180119000030SPEAKER ASM                   M IMCTM S0FL05 TNTH  07070IMCT  S0 PTB  00004                    0830 SR        000000000000 DENSO TEN (THAILAND)18022TU0118118                                                                                                                              *          20180115 IMCT                IMCT                                                                                                                    WMF1801154.TXT
MDEUJ1244295201801                D89828070100PT4U20180119000030SPEAKER ASM                   M IMCTM S0FL05 TNTH  07070IMCT  S0 PTB  00004                    1300 SR        000000000000 DENSO TEN (THAILAND)18023TU0236236                                                                                                                              *          20180115 IMCT                IMCT                                                                                                                    WMF1801154.TXT
MDEUJ1244296201801                D89828070100PT4U20180119000030SPEAKER ASM                   M IMCTM S0FL05 TNTH  07070IMCT  S0 PTB  00004                    1600 SR        000000000000 DENSO TEN (THAILAND)18026UU0112112                                                                                                                              *          20180115 IMCT                IMCT                                                                                                                    WMF1801154.TXT
MDEUJ1244297201801                D89828070100PT4U20180119000030SPEAKER ASM                   M IMCTM S0FL05 TNTH  07070IMCT  S0 PTB  00004                    2230 SR        000000000000 DENSO TEN (THAILAND)18026UU0113113                                                                                                                              *          20180115 IMCT                IMCT                                                                                                                    WMF1801154.TXT
MDEUJ1244298201801                D89828070200PV4U20180118000030SPEAKER ASM                   M IMCTM S0FR05 TNTH  07070IMCT  S0 PTB  00005                    2230 SR        000000000000 DENSO TEN (THAILAND)18018TU0062062                                                                                                                              *          20180115 IMCT                IMCT                                                                                                                    WMF1801154.TXT
MDEUJ1244299201801                D89828070200PV4U20180119000030SPEAKER ASM                   M IMCTM S0FR05 TNTH  07070IMCT  S0 PTB  00005                    0230 SR        000000000000 DENSO TEN (THAILAND)18026UU0111111                                                                                                                              *          20180115 IMCT                IMCT                                                                                                                    WMF1801154.TXT
MDEUJ1244300201801                D89828070200PV4U20180119000030SPEAKER ASM                   M IMCTM S0FR05 TNTH  07070IMCT  S0 PTB  00005                    0830 SR        000000000000 DENSO TEN (THAILAND)18022TU0118118                                                                                                                              *          20180115 IMCT                IMCT                                                                                                                    WMF1801154.TXT
MDEUJ1244301201801                D89828070200PV4U20180119000030SPEAKER ASM                   M IMCTM S0FR05 TNTH  07070IMCT  S0 PTB  00005                    1300 SR        000000000000 DENSO TEN (THAILAND)18023TU0236236                                                                                                                              *          20180115 IMCT                IMCT                                                                                                                    WMF1801154.TXT
MDEUJ1244302201801                D89828070200PV4U20180119000030SPEAKER ASM                   M IMCTM S0FR05 TNTH  07070IMCT  S0 PTB  00005                    1600 SR        000000000000 DENSO TEN (THAILAND)18026UU0112112                                                                                                                              *          20180115 IMCT                IMCT                                                                                                                    WMF1801154.TXT
MDEUJ1244303201801                D89828070200PV4U20180119000030SPEAKER ASM                   M IMCTM S0FR05 TNTH  07070IMCT  S0 PTB  00005                    2230 SR        000000000000 DENSO TEN (THAILAND)18026UU0113113                                                                                                                              *          20180115 IMCT                IMCT                                                                                                                    WMF1801154.TXT
MDEUJ1244304201801                D89828070300PT4U20180118000030SPEAKER ASM                   M IMCTM S9TS02 TNTH  07070IMCT  S9 PTB  00015                    2230 SR        000000000000 DENSO TEN (THAILAND)18018TU0062062                                                                                                                              *          20180115 IMCT                IMCT                                                                                                                    WMF1801154.TXT
MDEUJ1244305201801                D89828070300PT4U20180119000030SPEAKER ASM                   M IMCTM S9TS02 TNTH  07070IMCT  S9 PTB  00015                    0230 SR        000000000000 DENSO TEN (THAILAND)18026UU0111111                                                                                                                              *          20180115 IMCT                IMCT                                                                                                                    WMF1801154.TXT
MDEUJ1244306201801                D89828070300PT4U20180119000030SPEAKER ASM                   M IMCTM S9TS02 TNTH  07070IMCT  S9 PTB  00015                    0830 SR        000000000000 DENSO TEN (THAILAND)18022TU0118118                                                                                                                              *          20180115 IMCT                IMCT                                                                                                                    WMF1801154.TXT
MDEUJ1244307201801                D89828070300PT4U20180119000030SPEAKER ASM                   M IMCTM S9TS02 TNTH  07070IMCT  S9 PTB  00015                    1300 SR        000000000000 DENSO TEN (THAILAND)18023TU0236236                                                                                                                              *          20180115 IMCT                IMCT                                                                                                                    WMF1801154.TXT
MDEUJ1244308201801                D89828070300PT4U20180119000030SPEAKER ASM                   M IMCTM S9TS02 TNTH  07070IMCT  S9 PTB  00015                    1600 SR        000000000000 DENSO TEN (THAILAND)18026UU0112112                                                                                                                              *          20180115 IMCT                IMCT                                                                                                                    WMF1801154.TXT
MDEUJ1244309201801                D89828070300PT4U20180119000030SPEAKER ASM                   M IMCTM S9TS02 TNTH  07070IMCT  S9 PTB  00015                    2230 SR        000000000000 DENSO TEN (THAILAND)18026UU0113113                                                                                                                              *          20180115 IMCT                IMCT                                                                                                                    WMF1801154.TXT
