REC2018011220180112ISUZU                              11     
MDEFJ1T08479201801                D89828070100PV4F20180117000016SPEAKER ASM                   M IMCTM S7FL05 TNTH  07070IMCT  S7 PTB  00004                    1600 SR        000000000000 DENSO TEN (THAILAND)17035RR0081   17020QR0024   D180107208    D180107215    000000                                                                              *R         20180112 IMCT                IMCT                                                                                                                    RMF1801127.TXT
MDEFJ1T08480201801                D89828070200PV4F20180117000006SPEAKER ASM                   M IMCTM S7FL05 TNTH  07070IMCT  S7 PTB  00005                    1300 SR        000000000000 DENSO TEN (THAILAND)17022MR0096   17028QR0075   D180107202    D180107204    000000                                                                              *R         20180112 IMCT                IMCT                                                                                                                    RMF1801127.TXT
MDEFJ1T08481201801                D89828070300PT4F20180117000006SPEAKER ASM                   M IMCTM S7TS02 TNTH  07070IMCT  S7 PTB  00015                    1300 SR        000000000000 DENSO TEN (THAILAND)17022MR0096   17028QR0075   D180107202    D180107204    000000                                                                              *R         20180112 IMCT                IMCT                                                                                                                    RMF1801127.TXT
MDEFJ1T08482201801                D89829645310PT4F20180117000009RADIO;ASM DVD                 M IMCTM S7TS03 TNTH  07070IMCT  S7 PTB  00003                    0830 SR        000000000000 DENSO TEN (THAILAND)17016MR0041   17032PR0110   D180107102    D180107112    000000                                                                              *R         20180112 IMCT                IMCT                                                                                                                    RMF1801127.TXT
MDEFJ1T08483201801                D89831229200PT4F20180117000001RADIO;AM/FM,CD                M IMCTM S7TS03 TNTH  07070IMCT  S7 PTB  00003                    1300 SR        000000000000 DENSO TEN (THAILAND)17028QR0075   17028QR0075   D180107204    D180107204    000000                                                                              *R         20180112 IMCT                IMCT                                                                                                                    RMF1801127.TXT
MDEFJ1221566201801                D89828070100PV4F20180117000028SPEAKER ASM                   M IMCTM S7FL05 TNTH  07070IMCT  S7 PTB  00004                    0830 SR        000000000000 DENSO TEN (THAILAND)17015NR0089   18036YR0008   D180107101    D180107114    000000                                                                              *R         20180112 IMCT                IMCT                                                                                                                    RMF1801127.TXT
MDEFJ1221567201801                D89828070100PV4F20180117000004SPEAKER ASM                   M IMCTM S7FL05 TNTH  07070IMCT  S7 PTB  00004                    1030 SR        000000000000 DENSO TEN (THAILAND)18036YR0009   17022MR0095   D180107115    D180107201    000000                                                                              *R         20180112 IMCT                IMCT                                                                                                                    RMF1801127.TXT
MDEFJ1221568201801                D89828070100PV4F20180117000012SPEAKER ASM                   M IMCTM S7FL05 TNTH  07070IMCT  S7 PTB  00004                    1300 SR        000000000000 DENSO TEN (THAILAND)17022MR0096   17035RR0080   D180107202    D180107207    000000                                                                              *R         20180112 IMCT                IMCT                                                                                                                    RMF1801127.TXT
MDEFJ1221569201801                D89828070200PV4F20180117000025SPEAKER ASM                   M IMCTM S7FL05 TNTH  07070IMCT  S7 PTB  00005                    0830 SR        000000000000 DENSO TEN (THAILAND)17015NR0089   18036YR0008   D180107101    D180107114    000000                                                                              *R         20180112 IMCT                IMCT                                                                                                                    RMF1801127.TXT
MDEFJ1221570201801                D89828070200PV4F20180117000005SPEAKER ASM                   M IMCTM S7FL05 TNTH  07070IMCT  S7 PTB  00005                    1030 SR        000000000000 DENSO TEN (THAILAND)18036YR0008   17022MR0095   D180107114    D180107201    000000                                                                              *R         20180112 IMCT                IMCT                                                                                                                    RMF1801127.TXT
MDEFJ1221571201801                D89828070300PT4F20180117000030SPEAKER ASM                   M IMCTM S7TS02 TNTH  07070IMCT  S7 PTB  00015                    0830 SR        000000000000 DENSO TEN (THAILAND)17015NR0089   17022MR0095   D180107101    D180107201    000000                                                                              *R         20180112 IMCT                IMCT                                                                                                                    RMF1801127.TXT
