REC2018011320180113ISUZU                              67     
MDDDJ1227814201801                D89821984430PT1D20180117000030RADIO;AM/FM,CD                M IMCTM S5NC06 TNTH  07070IMCT  S5 PTB  00005                    2230 SR        000000000000 DENSO TEN (THAILAND)180LPAL0068068                                                                                                                              *          20180113 IMCT                IMCT                                                                                                                    WMF1801135.TXT
MDDDJ1227815201801                D89821984430PT1D20180118000030RADIO;AM/FM,CD                M IMCTM S5NC06 TNTH  07070IMCT  S5 PTB  00005                    0830 SR        000000000000 DENSO TEN (THAILAND)180LPAL0069069                                                                                                                              *          20180113 IMCT                IMCT                                                                                                                    WMF1801135.TXT
MDDDJ1227816201801                D89821984430PT1D20180118000030RADIO;AM/FM,CD                M IMCTM S5NC06 TNTH  07070IMCT  S5 PTB  00005                    1300 SR        000000000000 DENSO TEN (THAILAND)180LRAL0108108                                                                                                                              *          20180113 IMCT                IMCT                                                                                                                    WMF1801135.TXT
MDDDJ1227817201801                D89821984430PT1D20180118000030RADIO;AM/FM,CD                M IMCTM S5NC06 TNTH  07070IMCT  S5 PTB  00005                    1600 SR        000000000000 DENSO TEN (THAILAND)180LNGL0076076                                                                                                                              *          20180113 IMCT                IMCT                                                                                                                    WMF1801135.TXT
MDDDJ1227818201801                D89828070100PV1D20180117000060SPEAKER ASM                   M IMCTM S5MB11 TNTH  07070IMCT  S5 PTB  00004                    2230 SR        000000000000 DENSO TEN (THAILAND)180LPAL0068068                                                                                                                              *          20180113 IMCT                IMCT                                                                                                                    WMF1801135.TXT
MDDDJ1227819201801                D89828070100PV1D20180118000120SPEAKER ASM                   M IMCTM S5MB11 TNTH  07070IMCT  S5 PTB  00004                    0830 SR        000000000000 DENSO TEN (THAILAND)180LPAL0069069180LXAL0001001                                                                                                                *          20180113 IMCT                IMCT                                                                                                                    WMF1801135.TXT
MDDDJ1227820201801                D89828070100PV1D20180118000060SPEAKER ASM                   M IMCTM S5MB11 TNTH  07070IMCT  S5 PTB  00004                    1300 SR        000000000000 DENSO TEN (THAILAND)180LRAL0108108                                                                                                                              *          20180113 IMCT                IMCT                                                                                                                    WMF1801135.TXT
MDDDJ1227821201801                D89828070100PV1D20180118000120SPEAKER ASM                   M IMCTM S5MB11 TNTH  07070IMCT  S5 PTB  00004                    1600 SR        000000000000 DENSO TEN (THAILAND)180LNGL0076076180LPJL0012012                                                                                                                *          20180113 IMCT                IMCT                                                                                                                    WMF1801135.TXT
MDDDJ1227822201801                D89828070100PV4D20180118000060SPEAKER ASM                   M IMCTM S0FL05 TNTH  07070IMCT  S0 PTB  00004                    1600 SR        000000000000 DENSO TEN (THAILAND)180LRLU0003003                                                                                                                              *          20180113 IMCT                IMCT                                                                                                                    WMF1801135.TXT
MDDDJ1227823201801                D89828070200PV4D20180118000060SPEAKER ASM                   M IMCTM S0FR05 TNTH  07070IMCT  S0 PTB  00005                    1600 SR        000000000000 DENSO TEN (THAILAND)180LRLU0003003                                                                                                                              *          20180113 IMCT                IMCT                                                                                                                    WMF1801135.TXT
MDDDJ1227824201801                D89828070300PT1D20180118000060SPEAKER ASM                   M IMCTM S5NB082TNTH  07070IMCT  S5 PTB  00015                    1600 SR        000000000000 DENSO TEN (THAILAND)180LPJL0012012                                                                                                                              *          20180113 IMCT                IMCT                                                                                                                    WMF1801135.TXT
MDDDJ1227825201801                D89828070300PT4D20180118000060SPEAKER ASM                   M IMCTM S9TS02 TNTH  07070IMCT  S9 PTB  00015                    1600 SR        000000000000 DENSO TEN (THAILAND)180LRLU0003003                                                                                                                              *          20180113 IMCT                IMCT                                                                                                                    WMF1801135.TXT
MDDDJ1227826201801                D89831228300PT1D20180118000030RADIO;AM/FM,CD                M IMCTM S5NC06 TNTH  07070IMCT  S5 CPB  00003                    1600 SR        000000000000 DENSO TEN (THAILAND)180LPJL0012012                                                                                                                              *          20180113 IMCT                IMCT                                                                                                                    WMF1801135.TXT
MDDUJ1213440201801                D89828070100PT4U20180118000030SPEAKER ASM                   M IMCTM S0FL05 TNTH  07070IMCT  S0 PTB  00004                    0230 SR        000000000000 DENSO TEN (THAILAND)180LULU0005005                                                                                                                              *          20180113 IMCT                IMCT                                                                                                                    WMF1801135.TXT
MDDUJ1213441201801                D89828070100PT4U20180118000030SPEAKER ASM                   M IMCTM S0FL05 TNTH  07070IMCT  S0 PTB  00004                    0830 SR        000000000000 DENSO TEN (THAILAND)180LUSU0002002                                                                                                                              *          20180113 IMCT                IMCT                                                                                                                    WMF1801135.TXT
MDDUJ1213442201801                D89828070100PT4U20180118000030SPEAKER ASM                   M IMCTM S0FL05 TNTH  07070IMCT  S0 PTB  00004                    1030 SR        000000000000 DENSO TEN (THAILAND)180LUMU0002002                                                                                                                              *          20180113 IMCT                IMCT                                                                                                                    WMF1801135.TXT
MDDUJ1213443201801                D89828070100PT4U20180118000030SPEAKER ASM                   M IMCTM S0FL05 TNTH  07070IMCT  S0 PTB  00004                    1600 SR        000000000000 DENSO TEN (THAILAND)180LUTU0004004                                                                                                                              *          20180113 IMCT                IMCT                                                                                                                    WMF1801135.TXT
MDDUJ1213444201801                D89828070100PT4U20180118000030SPEAKER ASM                   M IMCTM S0FL05 TNTH  07070IMCT  S0 PTB  00004                    2100 SR        000000000000 DENSO TEN (THAILAND)180LURU0004004                                                                                                                              *          20180113 IMCT                IMCT                                                                                                                    WMF1801135.TXT
MDDUJ1213445201801                D89828070200PV4U20180118000030SPEAKER ASM                   M IMCTM S0FR05 TNTH  07070IMCT  S0 PTB  00005                    0230 SR        000000000000 DENSO TEN (THAILAND)180LULU0005005                                                                                                                              *          20180113 IMCT                IMCT                                                                                                                    WMF1801135.TXT
MDDUJ1213446201801                D89828070200PV4U20180118000030SPEAKER ASM                   M IMCTM S0FR05 TNTH  07070IMCT  S0 PTB  00005                    0830 SR        000000000000 DENSO TEN (THAILAND)180LUSU0002002                                                                                                                              *          20180113 IMCT                IMCT                                                                                                                    WMF1801135.TXT
MDDUJ1213447201801                D89828070200PV4U20180118000030SPEAKER ASM                   M IMCTM S0FR05 TNTH  07070IMCT  S0 PTB  00005                    1030 SR        000000000000 DENSO TEN (THAILAND)180LUMU0002002                                                                                                                              *          20180113 IMCT                IMCT                                                                                                                    WMF1801135.TXT
MDDUJ1213448201801                D89828070200PV4U20180118000030SPEAKER ASM                   M IMCTM S0FR05 TNTH  07070IMCT  S0 PTB  00005                    1600 SR        000000000000 DENSO TEN (THAILAND)180LUTU0004004                                                                                                                              *          20180113 IMCT                IMCT                                                                                                                    WMF1801135.TXT
MDDUJ1213449201801                D89828070200PV4U20180118000030SPEAKER ASM                   M IMCTM S0FR05 TNTH  07070IMCT  S0 PTB  00005                    2100 SR        000000000000 DENSO TEN (THAILAND)180LURU0004004                                                                                                                              *          20180113 IMCT                IMCT                                                                                                                    WMF1801135.TXT
MDDUJ1213450201801                D89828070300PT4U20180118000030SPEAKER ASM                   M IMCTM S9TS02 TNTH  07070IMCT  S9 PTB  00015                    0230 SR        000000000000 DENSO TEN (THAILAND)180LULU0005005                                                                                                                              *          20180113 IMCT                IMCT                                                                                                                    WMF1801135.TXT
MDDUJ1213451201801                D89828070300PT4U20180118000030SPEAKER ASM                   M IMCTM S9TS02 TNTH  07070IMCT  S9 PTB  00015                    0830 SR        000000000000 DENSO TEN (THAILAND)180LUSU0002002                                                                                                                              *          20180113 IMCT                IMCT                                                                                                                    WMF1801135.TXT
MDDUJ1213452201801                D89828070300PT4U20180118000030SPEAKER ASM                   M IMCTM S9TS02 TNTH  07070IMCT  S9 PTB  00015                    1030 SR        000000000000 DENSO TEN (THAILAND)180LUMU0002002                                                                                                                              *          20180113 IMCT                IMCT                                                                                                                    WMF1801135.TXT
MDDUJ1213453201801                D89828070300PT4U20180118000030SPEAKER ASM                   M IMCTM S9TS02 TNTH  07070IMCT  S9 PTB  00015                    1600 SR        000000000000 DENSO TEN (THAILAND)180LUTU0004004                                                                                                                              *          20180113 IMCT                IMCT                                                                                                                    WMF1801135.TXT
MDDUJ1213454201801                D89828070300PT4U20180118000030SPEAKER ASM                   M IMCTM S9TS02 TNTH  07070IMCT  S9 PTB  00015                    2100 SR        000000000000 DENSO TEN (THAILAND)180LURU0004004                                                                                                                              *          20180113 IMCT                IMCT                                                                                                                    WMF1801135.TXT
MDEDJ1250290201801                D89828070100PV1D20180117000060SPEAKER ASM                   M IMCTM S5MB11 TNTH  07070IMCT  S5 PTB  00004                    2230 SR        000000000000 DENSO TEN (THAILAND)17064NL002502517075PL0060060                                                                                                                *          20180113 IMCT                IMCT                                                                                                                    WMF1801135.TXT
MDEDJ1250291201801                D89828070100PV1D20180118000060SPEAKER ASM                   M IMCTM S5MB11 TNTH  07070IMCT  S5 PTB  00004                    0230 SR        000000000000 DENSO TEN (THAILAND)17033QL003003017075PL0061061                                                                                                                *          20180113 IMCT                IMCT                                                                                                                    WMF1801135.TXT
MDEDJ1250292201801                D89828070100PV1D20180118000090SPEAKER ASM                   M IMCTM S5MB11 TNTH  07070IMCT  S5 PTB  00004                    0400 SR        000000000000 DENSO TEN (THAILAND)17033QL003103117054PL0049050                                                                                                                *          20180113 IMCT                IMCT                                                                                                                    WMF1801135.TXT
MDEDJ1250293201801                D89828070100PV1D20180118000030SPEAKER ASM                   M IMCTM S5MB11 TNTH  07070IMCT  S5 PTB  00004                    1030 SR        000000000000 DENSO TEN (THAILAND)17072NL0048048                                                                                                                              *          20180113 IMCT                IMCT                                                                                                                    WMF1801135.TXT
MDEDJ1250294201801                D89828070100PV1D20180118000090SPEAKER ASM                   M IMCTM S5MB11 TNTH  07070IMCT  S5 PTB  00004                    1300 SR        000000000000 DENSO TEN (THAILAND)17072NL004904917075PL006206217077PL0018018                                                                                                  *          20180113 IMCT                IMCT                                                                                                                    WMF1801135.TXT
MDEDJ1250295201801                D89828070100PV1D20180118000060SPEAKER ASM                   M IMCTM S5MB11 TNTH  07070IMCT  S5 PTB  00004                    1600 SR        000000000000 DENSO TEN (THAILAND)17076NL0016017                                                                                                                              *          20180113 IMCT                IMCT                                                                                                                    WMF1801135.TXT
MDEDJ1250296201801                D89828070100PV1D20180118000060SPEAKER ASM                   M IMCTM S5MB11 TNTH  07070IMCT  S5 PTB  00004                    2100 SR        000000000000 DENSO TEN (THAILAND)18007ZL0059060                                                                                                                              *          20180113 IMCT                IMCT                                                                                                                    WMF1801135.TXT
MDEDJ1250297201801                D89828070200PV1D20180118000030SPEAKER ASM                   M IMCTM S5MA14 TNTH  07070IMCT  S5 PTB  00005                    0230 SR        000000000000 DENSO TEN (THAILAND)17033QL0030030                                                                                                                              *          20180113 IMCT                IMCT                                                                                                                    WMF1801135.TXT
MDEDJ1250298201801                D89828070200PV1D20180118000030SPEAKER ASM                   M IMCTM S5MA14 TNTH  07070IMCT  S5 PTB  00005                    0400 SR        000000000000 DENSO TEN (THAILAND)17033QL0031031                                                                                                                              *          20180113 IMCT                IMCT                                                                                                                    WMF1801135.TXT
MDEDJ1250299201801                D89828070200PV1D20180118000030SPEAKER ASM                   M IMCTM S5MA14 TNTH  07070IMCT  S5 PTB  00005                    1030 SR        000000000000 DENSO TEN (THAILAND)17072NL0048048                                                                                                                              *          20180113 IMCT                IMCT                                                                                                                    WMF1801135.TXT
MDEDJ1250300201801                D89828070200PV1D20180118000030SPEAKER ASM                   M IMCTM S5MA14 TNTH  07070IMCT  S5 PTB  00005                    1300 SR        000000000000 DENSO TEN (THAILAND)17072NL0049049                                                                                                                              *          20180113 IMCT                IMCT                                                                                                                    WMF1801135.TXT
MDEDJ1250301201801                D89828070200PV1D20180118000060SPEAKER ASM                   M IMCTM S5MA14 TNTH  07070IMCT  S5 PTB  00005                    1600 SR        000000000000 DENSO TEN (THAILAND)17076NL0016017                                                                                                                              *          20180113 IMCT                IMCT                                                                                                                    WMF1801135.TXT
MDEDJ1250302201801                D89828070300PT1D20180117000030SPEAKER ASM                   M IMCTM S5NB082TNTH  07070IMCT  S5 PTB  00015                    2230 SR        000000000000 DENSO TEN (THAILAND)17064NL0025025                                                                                                                              *          20180113 IMCT                IMCT                                                                                                                    WMF1801135.TXT
MDEDJ1250303201801                D89828070300PT1D20180118000030SPEAKER ASM                   M IMCTM S5NB082TNTH  07070IMCT  S5 PTB  00015                    0230 SR        000000000000 DENSO TEN (THAILAND)17033QL0030030                                                                                                                              *          20180113 IMCT                IMCT                                                                                                                    WMF1801135.TXT
MDEDJ1250304201801                D89828070300PT1D20180118000030SPEAKER ASM                   M IMCTM S5NB082TNTH  07070IMCT  S5 PTB  00015                    0400 SR        000000000000 DENSO TEN (THAILAND)17033QL0031031                                                                                                                              *          20180113 IMCT                IMCT                                                                                                                    WMF1801135.TXT
MDEDJ1250305201801                D89828070300PT1D20180118000030SPEAKER ASM                   M IMCTM S5NB082TNTH  07070IMCT  S5 PTB  00015                    1030 SR        000000000000 DENSO TEN (THAILAND)17072NL0048048                                                                                                                              *          20180113 IMCT                IMCT                                                                                                                    WMF1801135.TXT
MDEDJ1250306201801                D89828070300PT1D20180118000030SPEAKER ASM                   M IMCTM S5NB082TNTH  07070IMCT  S5 PTB  00015                    1300 SR        000000000000 DENSO TEN (THAILAND)17072NL0049049                                                                                                                              *          20180113 IMCT                IMCT                                                                                                                    WMF1801135.TXT
MDEDJ1250307201801                D89828070300PT1D20180118000060SPEAKER ASM                   M IMCTM S5NB082TNTH  07070IMCT  S5 PTB  00015                    1600 SR        000000000000 DENSO TEN (THAILAND)17076NL0016017                                                                                                                              *          20180113 IMCT                IMCT                                                                                                                    WMF1801135.TXT
MDEDJ1250308201801                D89831229200PT1D20180118000015RADIO;AM/FM,CD                M IMCTM S5NC06 TNTH  07070IMCT  S5 PTB  00003                    0230 SR        000000000000 DENSO TEN (THAILAND)17033QL0030030                                                                                                                              *          20180113 IMCT                IMCT                                                                                                                    WMF1801135.TXT
MDEDJ1250309201801                D89831229200PT1D20180118000015RADIO;AM/FM,CD                M IMCTM S5NC06 TNTH  07070IMCT  S5 PTB  00003                    0400 SR        000000000000 DENSO TEN (THAILAND)17033QL0031031                                                                                                                              *          20180113 IMCT                IMCT                                                                                                                    WMF1801135.TXT
MDEDJ1250310201801                D89848581800PT1D20180117000015RADIO;AM/FM CD D              M IMCTM S5NC06 TNTH  07070IMCT  S5 PTB  00003                    2230 SR        000000000000 DENSO TEN (THAILAND)17064NL0025025                                                                                                                              *          20180113 IMCT                IMCT                                                                                                                    WMF1801135.TXT
MDEDJ1250311201801                D89848581800PT1D20180118000015RADIO;AM/FM CD D              M IMCTM S5NC06 TNTH  07070IMCT  S5 PTB  00003                    1030 SR        000000000000 DENSO TEN (THAILAND)17072NL0048048                                                                                                                              *          20180113 IMCT                IMCT                                                                                                                    WMF1801135.TXT
MDEDJ1250312201801                D89848581800PT1D20180118000015RADIO;AM/FM CD D              M IMCTM S5NC06 TNTH  07070IMCT  S5 PTB  00003                    1300 SR        000000000000 DENSO TEN (THAILAND)17072NL0049049                                                                                                                              *          20180113 IMCT                IMCT                                                                                                                    WMF1801135.TXT
MDEUJ1240233201801                D89828070100PT4U20180117000030SPEAKER ASM                   M IMCTM S0FL05 TNTH  07070IMCT  S0 PTB  00004                    2230 SR        000000000000 DENSO TEN (THAILAND)18026UU0110110                                                                                                                              *          20180113 IMCT                IMCT                                                                                                                    WMF1801135.TXT
MDEUJ1240234201801                D89828070100PT4U20180118000030SPEAKER ASM                   M IMCTM S0FL05 TNTH  07070IMCT  S0 PTB  00004                    0400 SR        000000000000 DENSO TEN (THAILAND)18023TU0235235                                                                                                                              *          20180113 IMCT                IMCT                                                                                                                    WMF1801135.TXT
MDEUJ1240235201801                D89828070100PT4U20180118000030SPEAKER ASM                   M IMCTM S0FL05 TNTH  07070IMCT  S0 PTB  00004                    0830 SR        000000000000 DENSO TEN (THAILAND)18018TU0061061                                                                                                                              *          20180113 IMCT                IMCT                                                                                                                    WMF1801135.TXT
MDEUJ1240236201801                D89828070100PT4U20180118000030SPEAKER ASM                   M IMCTM S0FL05 TNTH  07070IMCT  S0 PTB  00004                    1300 SR        000000000000 DENSO TEN (THAILAND)18016TU0033033                                                                                                                              *          20180113 IMCT                IMCT                                                                                                                    WMF1801135.TXT
MDEUJ1240237201801                D89828070100PT4U20180118000030SPEAKER ASM                   M IMCTM S0FL05 TNTH  07070IMCT  S0 PTB  00004                    1600 SR        000000000000 DENSO TEN (THAILAND)18022TU0117117                                                                                                                              *          20180113 IMCT                IMCT                                                                                                                    WMF1801135.TXT
MDEUJ1240238201801                D89828070200PV4U20180117000030SPEAKER ASM                   M IMCTM S0FR05 TNTH  07070IMCT  S0 PTB  00005                    2230 SR        000000000000 DENSO TEN (THAILAND)18026UU0110110                                                                                                                              *          20180113 IMCT                IMCT                                                                                                                    WMF1801135.TXT
MDEUJ1240239201801                D89828070200PV4U20180118000030SPEAKER ASM                   M IMCTM S0FR05 TNTH  07070IMCT  S0 PTB  00005                    0400 SR        000000000000 DENSO TEN (THAILAND)18023TU0235235                                                                                                                              *          20180113 IMCT                IMCT                                                                                                                    WMF1801135.TXT
MDEUJ1240240201801                D89828070200PV4U20180118000030SPEAKER ASM                   M IMCTM S0FR05 TNTH  07070IMCT  S0 PTB  00005                    0830 SR        000000000000 DENSO TEN (THAILAND)18018TU0061061                                                                                                                              *          20180113 IMCT                IMCT                                                                                                                    WMF1801135.TXT
MDEUJ1240241201801                D89828070200PV4U20180118000030SPEAKER ASM                   M IMCTM S0FR05 TNTH  07070IMCT  S0 PTB  00005                    1300 SR        000000000000 DENSO TEN (THAILAND)18016TU0033033                                                                                                                              *          20180113 IMCT                IMCT                                                                                                                    WMF1801135.TXT
MDEUJ1240242201801                D89828070200PV4U20180118000030SPEAKER ASM                   M IMCTM S0FR05 TNTH  07070IMCT  S0 PTB  00005                    1600 SR        000000000000 DENSO TEN (THAILAND)18022TU0117117                                                                                                                              *          20180113 IMCT                IMCT                                                                                                                    WMF1801135.TXT
MDEUJ1240243201801                D89828070300PT4U20180117000030SPEAKER ASM                   M IMCTM S9TS02 TNTH  07070IMCT  S9 PTB  00015                    2230 SR        000000000000 DENSO TEN (THAILAND)18026UU0110110                                                                                                                              *          20180113 IMCT                IMCT                                                                                                                    WMF1801135.TXT
MDEUJ1240244201801                D89828070300PT4U20180118000030SPEAKER ASM                   M IMCTM S9TS02 TNTH  07070IMCT  S9 PTB  00015                    0400 SR        000000000000 DENSO TEN (THAILAND)18023TU0235235                                                                                                                              *          20180113 IMCT                IMCT                                                                                                                    WMF1801135.TXT
MDEUJ1240245201801                D89828070300PT4U20180118000030SPEAKER ASM                   M IMCTM S9TS02 TNTH  07070IMCT  S9 PTB  00015                    0830 SR        000000000000 DENSO TEN (THAILAND)18018TU0061061                                                                                                                              *          20180113 IMCT                IMCT                                                                                                                    WMF1801135.TXT
MDEUJ1240246201801                D89828070300PT4U20180118000030SPEAKER ASM                   M IMCTM S9TS02 TNTH  07070IMCT  S9 PTB  00015                    1300 SR        000000000000 DENSO TEN (THAILAND)18016TU0033033                                                                                                                              *          20180113 IMCT                IMCT                                                                                                                    WMF1801135.TXT
MDEUJ1240247201801                D89828070300PT4U20180118000030SPEAKER ASM                   M IMCTM S9TS02 TNTH  07070IMCT  S9 PTB  00015                    1600 SR        000000000000 DENSO TEN (THAILAND)18022TU0117117                                                                                                                              *          20180113 IMCT                IMCT                                                                                                                    WMF1801135.TXT
MDEUJ1240248201801                D89848584700PT4U20180118000015RADIO;AM/FM CD D              M IMCTM S9CO001TNTH  07070IMCT  S9 PTB  00003                    1300 SR        000000000000 DENSO TEN (THAILAND)18016TU0033033                                                                                                                              *          20180113 IMCT                IMCT                                                                                                                    WMF1801135.TXT
