REC2018011920180119ISUZU                              68     
MDDDJ1244203201801                D89821984430PT1D20180124000030RADIO;AM/FM,CD                M IMCTM S5NC06 TNTH  07070IMCT  S5 PTB  00005                    0400 SR        000000000000 DENSO TEN (THAILAND)180LPBL0005005                                                                                                                              *          20180119 IMCT                IMCT                                                                                                                    WMF1801195.TXT
MDDDJ1244204201801                D89821984430PT1D20180124000030RADIO;AM/FM,CD                M IMCTM S5NC06 TNTH  07070IMCT  S5 PTB  00005                    1030 SR        000000000000 DENSO TEN (THAILAND)180LNGL0079079                                                                                                                              *          20180119 IMCT                IMCT                                                                                                                    WMF1801195.TXT
MDDDJ1244205201801                D89821984430PT1D20180124000030RADIO;AM/FM,CD                M IMCTM S5NC06 TNTH  07070IMCT  S5 PTB  00005                    1600 SR        000000000000 DENSO TEN (THAILAND)180LNEL0053053                                                                                                                              *          20180119 IMCT                IMCT                                                                                                                    WMF1801195.TXT
MDDDJ1244206201801                D89828070100PV1D20180123000060SPEAKER ASM                   M IMCTM S5MB11 TNTH  07070IMCT  S5 PTB  00004                    2230 SR        000000000000 DENSO TEN (THAILAND)180LPPL0005005                                                                                                                              *          20180119 IMCT                IMCT                                                                                                                    WMF1801195.TXT
MDDDJ1244207201801                D89828070100PV1D20180124000060SPEAKER ASM                   M IMCTM S5MB11 TNTH  07070IMCT  S5 PTB  00004                    0400 SR        000000000000 DENSO TEN (THAILAND)180LPBL0005005                                                                                                                              *          20180119 IMCT                IMCT                                                                                                                    WMF1801195.TXT
MDDDJ1244208201801                D89828070100PV1D20180124000060SPEAKER ASM                   M IMCTM S5MB11 TNTH  07070IMCT  S5 PTB  00004                    1030 SR        000000000000 DENSO TEN (THAILAND)180LNGL0079079                                                                                                                              *          20180119 IMCT                IMCT                                                                                                                    WMF1801195.TXT
MDDDJ1244209201801                D89828070100PV1D20180124000060SPEAKER ASM                   M IMCTM S5MB11 TNTH  07070IMCT  S5 PTB  00004                    1300 SR        000000000000 DENSO TEN (THAILAND)180LPQL0014014                                                                                                                              *          20180119 IMCT                IMCT                                                                                                                    WMF1801195.TXT
MDDDJ1244210201801                D89828070100PV1D20180124000120SPEAKER ASM                   M IMCTM S5MB11 TNTH  07070IMCT  S5 PTB  00004                    1600 SR        000000000000 DENSO TEN (THAILAND)180LNEL0053053180LPHL0007007                                                                                                                *          20180119 IMCT                IMCT                                                                                                                    WMF1801195.TXT
MDDDJ1244211201801                D89828070300PT1D20180123000060SPEAKER ASM                   M IMCTM S5NB082TNTH  07070IMCT  S5 PTB  00015                    2230 SR        000000000000 DENSO TEN (THAILAND)180LPPL0005005                                                                                                                              *          20180119 IMCT                IMCT                                                                                                                    WMF1801195.TXT
MDDDJ1244212201801                D89828070300PT1D20180124000060SPEAKER ASM                   M IMCTM S5NB082TNTH  07070IMCT  S5 PTB  00015                    1300 SR        000000000000 DENSO TEN (THAILAND)180LPQL0014014                                                                                                                              *          20180119 IMCT                IMCT                                                                                                                    WMF1801195.TXT
MDDDJ1244213201801                D89828070300PT1D20180124000060SPEAKER ASM                   M IMCTM S5NB082TNTH  07070IMCT  S5 PTB  00015                    1600 SR        000000000000 DENSO TEN (THAILAND)180LPHL0007007                                                                                                                              *          20180119 IMCT                IMCT                                                                                                                    WMF1801195.TXT
MDDDJ1244214201801                D89831228300PT1D20180124000030RADIO;AM/FM,CD                M IMCTM S5NC06 TNTH  07070IMCT  S5 CPB  00003                    1600 SR        000000000000 DENSO TEN (THAILAND)180LPHL0007007                                                                                                                              *          20180119 IMCT                IMCT                                                                                                                    WMF1801195.TXT
MDDDJ1244215201801                D89848581600PT1D20180124000030RADIO;AM/FM CD D              M IMCTM S5NC06 TNTH  07070IMCT  S5 PTB  00003                    1300 SR        000000000000 DENSO TEN (THAILAND)180LPQL0014014                                                                                                                              *          20180119 IMCT                IMCT                                                                                                                    WMF1801195.TXT
MDDUJ1231007201801                D89828070100PT4U20180124000030SPEAKER ASM                   M IMCTM S0FL05 TNTH  07070IMCT  S0 PTB  00004                    0400 SR        000000000000 DENSO TEN (THAILAND)180LURU0011011                                                                                                                              *          20180119 IMCT                IMCT                                                                                                                    WMF1801195.TXT
MDDUJ1231008201801                D89828070100PT4U20180124000030SPEAKER ASM                   M IMCTM S0FL05 TNTH  07070IMCT  S0 PTB  00004                    0830 SR        000000000000 DENSO TEN (THAILAND)180LUSU0007007                                                                                                                              *          20180119 IMCT                IMCT                                                                                                                    WMF1801195.TXT
MDDUJ1231009201801                D89828070100PT4U20180124000030SPEAKER ASM                   M IMCTM S0FL05 TNTH  07070IMCT  S0 PTB  00004                    1600 SR        000000000000 DENSO TEN (THAILAND)180LUMU0005005                                                                                                                              *          20180119 IMCT                IMCT                                                                                                                    WMF1801195.TXT
MDDUJ1231010201801                D89828070100PT4U20180124000030SPEAKER ASM                   M IMCTM S0FL05 TNTH  07070IMCT  S0 PTB  00004                    2230 SR        000000000000 DENSO TEN (THAILAND)180LUQU0004004                                                                                                                              *          20180119 IMCT                IMCT                                                                                                                    WMF1801195.TXT
MDDUJ1231011201801                D89828070200PV4U20180124000030SPEAKER ASM                   M IMCTM S0FR05 TNTH  07070IMCT  S0 PTB  00005                    0400 SR        000000000000 DENSO TEN (THAILAND)180LURU0011011                                                                                                                              *          20180119 IMCT                IMCT                                                                                                                    WMF1801195.TXT
MDDUJ1231012201801                D89828070200PV4U20180124000030SPEAKER ASM                   M IMCTM S0FR05 TNTH  07070IMCT  S0 PTB  00005                    0830 SR        000000000000 DENSO TEN (THAILAND)180LUSU0007007                                                                                                                              *          20180119 IMCT                IMCT                                                                                                                    WMF1801195.TXT
MDDUJ1231013201801                D89828070200PV4U20180124000030SPEAKER ASM                   M IMCTM S0FR05 TNTH  07070IMCT  S0 PTB  00005                    1600 SR        000000000000 DENSO TEN (THAILAND)180LUMU0005005                                                                                                                              *          20180119 IMCT                IMCT                                                                                                                    WMF1801195.TXT
MDDUJ1231014201801                D89828070200PV4U20180124000030SPEAKER ASM                   M IMCTM S0FR05 TNTH  07070IMCT  S0 PTB  00005                    2230 SR        000000000000 DENSO TEN (THAILAND)180LUQU0004004                                                                                                                              *          20180119 IMCT                IMCT                                                                                                                    WMF1801195.TXT
MDDUJ1231015201801                D89828070300PT4U20180124000030SPEAKER ASM                   M IMCTM S9TS02 TNTH  07070IMCT  S9 PTB  00015                    0400 SR        000000000000 DENSO TEN (THAILAND)180LURU0011011                                                                                                                              *          20180119 IMCT                IMCT                                                                                                                    WMF1801195.TXT
MDDUJ1231016201801                D89828070300PT4U20180124000030SPEAKER ASM                   M IMCTM S9TS02 TNTH  07070IMCT  S9 PTB  00015                    0830 SR        000000000000 DENSO TEN (THAILAND)180LUSU0007007                                                                                                                              *          20180119 IMCT                IMCT                                                                                                                    WMF1801195.TXT
MDDUJ1231017201801                D89828070300PT4U20180124000030SPEAKER ASM                   M IMCTM S9TS02 TNTH  07070IMCT  S9 PTB  00015                    1600 SR        000000000000 DENSO TEN (THAILAND)180LUMU0005005                                                                                                                              *          20180119 IMCT                IMCT                                                                                                                    WMF1801195.TXT
MDDUJ1231018201801                D89828070300PT4U20180124000030SPEAKER ASM                   M IMCTM S9TS02 TNTH  07070IMCT  S9 PTB  00015                    2230 SR        000000000000 DENSO TEN (THAILAND)180LUQU0004004                                                                                                                              *          20180119 IMCT                IMCT                                                                                                                    WMF1801195.TXT
MDDUJ1231019201801                D89848584200PT4U20180124000015RADIO;AM/FM CD D              M IMCTM S9CO001TNTH  07070IMCT  S9 PTB  00003                    2230 SR        000000000000 DENSO TEN (THAILAND)180LUQU0004004                                                                                                                              *          20180119 IMCT                IMCT                                                                                                                    WMF1801195.TXT
MDEDJ1283424201801                D89828070100PV1D20180123000060SPEAKER ASM                   M IMCTM S5MB11 TNTH  07070IMCT  S5 PTB  00004                    2230 SR        000000000000 DENSO TEN (THAILAND)17075PL0079080                                                                                                                              *          20180119 IMCT                IMCT                                                                                                                    WMF1801195.TXT
MDEDJ1283425201801                D89828070100PV1D20180124000060SPEAKER ASM                   M IMCTM S5MB11 TNTH  07070IMCT  S5 PTB  00004                    0230 SR        000000000000 DENSO TEN (THAILAND)17007SL0005006                                                                                                                              *          20180119 IMCT                IMCT                                                                                                                    WMF1801195.TXT
MDEDJ1283426201801                D89828070100PV1D20180124000030SPEAKER ASM                   M IMCTM S5MB11 TNTH  07070IMCT  S5 PTB  00004                    0400 SR        000000000000 DENSO TEN (THAILAND)17054PL0053053                                                                                                                              *          20180119 IMCT                IMCT                                                                                                                    WMF1801195.TXT
MDEDJ1283427201801                D89828070100PV1D20180124000090SPEAKER ASM                   M IMCTM S5MB11 TNTH  07070IMCT  S5 PTB  00004                    0830 SR        000000000000 DENSO TEN (THAILAND)17021QL001001117054PL0054054                                                                                                                *          20180119 IMCT                IMCT                                                                                                                    WMF1801195.TXT
MDEDJ1283428201801                D89828070100PV1D20180124000060SPEAKER ASM                   M IMCTM S5MB11 TNTH  07070IMCT  S5 PTB  00004                    1300 SR        000000000000 DENSO TEN (THAILAND)17075PL0081082                                                                                                                              *          20180119 IMCT                IMCT                                                                                                                    WMF1801195.TXT
MDEDJ1283429201801                D89828070100PV1D20180124000090SPEAKER ASM                   M IMCTM S5MB11 TNTH  07070IMCT  S5 PTB  00004                    1600 SR        000000000000 DENSO TEN (THAILAND)17013QL002602617029NL002302317033RL0005005                                                                                                  *          20180119 IMCT                IMCT                                                                                                                    WMF1801195.TXT
MDEDJ1283430201801                D89828070100PV1D20180124000060SPEAKER ASM                   M IMCTM S5MB11 TNTH  07070IMCT  S5 PTB  00004                    2100 SR        000000000000 DENSO TEN (THAILAND)17029NL002402418007ZL0069069                                                                                                                *          20180119 IMCT                IMCT                                                                                                                    WMF1801195.TXT
MDEDJ1283431201801                D89828070100PV4D20180124000030SPEAKER ASM                   M IMCTM S0FL05 TNTH  07070IMCT  S0 PTB  00004                    1030 SR        000000000000 DENSO TEN (THAILAND)17067WU0003003                                                                                                                              *          20180119 IMCT                IMCT                                                                                                                    WMF1801195.TXT
MDEDJ1283432201801                D89828070100PV4D20180124000030SPEAKER ASM                   M IMCTM S0FL05 TNTH  07070IMCT  S0 PTB  00004                    2100 SR        000000000000 DENSO TEN (THAILAND)17074NU0044044                                                                                                                              *          20180119 IMCT                IMCT                                                                                                                    WMF1801195.TXT
MDEDJ1283433201801                D89828070200PV1D20180124000060SPEAKER ASM                   M IMCTM S5MA14 TNTH  07070IMCT  S5 PTB  00005                    0230 SR        000000000000 DENSO TEN (THAILAND)17007SL0005006                                                                                                                              *          20180119 IMCT                IMCT                                                                                                                    WMF1801195.TXT
MDEDJ1283434201801                D89828070200PV1D20180124000030SPEAKER ASM                   M IMCTM S5MA14 TNTH  07070IMCT  S5 PTB  00005                    1600 SR        000000000000 DENSO TEN (THAILAND)17013QL0026026                                                                                                                              *          20180119 IMCT                IMCT                                                                                                                    WMF1801195.TXT
MDEDJ1283435201801                D89828070200PV4D20180124000030SPEAKER ASM                   M IMCTM S0FR05 TNTH  07070IMCT  S0 PTB  00005                    1030 SR        000000000000 DENSO TEN (THAILAND)17067WU0003003                                                                                                                              *          20180119 IMCT                IMCT                                                                                                                    WMF1801195.TXT
MDEDJ1283436201801                D89828070200PV4D20180124000030SPEAKER ASM                   M IMCTM S0FR05 TNTH  07070IMCT  S0 PTB  00005                    2100 SR        000000000000 DENSO TEN (THAILAND)17074NU0044044                                                                                                                              *          20180119 IMCT                IMCT                                                                                                                    WMF1801195.TXT
MDEDJ1283437201801                D89828070300PT1D20180124000060SPEAKER ASM                   M IMCTM S5NB082TNTH  07070IMCT  S5 PTB  00015                    0230 SR        000000000000 DENSO TEN (THAILAND)17007SL0005006                                                                                                                              *          20180119 IMCT                IMCT                                                                                                                    WMF1801195.TXT
MDEDJ1283438201801                D89828070300PT1D20180124000060SPEAKER ASM                   M IMCTM S5NB082TNTH  07070IMCT  S5 PTB  00015                    1600 SR        000000000000 DENSO TEN (THAILAND)17013QL002602617029NL0023023                                                                                                                *          20180119 IMCT                IMCT                                                                                                                    WMF1801195.TXT
MDEDJ1283439201801                D89828070300PT1D20180124000030SPEAKER ASM                   M IMCTM S5NB082TNTH  07070IMCT  S5 PTB  00015                    2100 SR        000000000000 DENSO TEN (THAILAND)17029NL0024024                                                                                                                              *          20180119 IMCT                IMCT                                                                                                                    WMF1801195.TXT
MDEDJ1283440201801                D89828070300PT4D20180124000030SPEAKER ASM                   M IMCTM S9TS02 TNTH  07070IMCT  S9 PTB  00015                    1030 SR        000000000000 DENSO TEN (THAILAND)17067WU0003003                                                                                                                              *          20180119 IMCT                IMCT                                                                                                                    WMF1801195.TXT
MDEDJ1283441201801                D89828070300PT4D20180124000030SPEAKER ASM                   M IMCTM S9TS02 TNTH  07070IMCT  S9 PTB  00015                    2100 SR        000000000000 DENSO TEN (THAILAND)17074NU0044044                                                                                                                              *          20180119 IMCT                IMCT                                                                                                                    WMF1801195.TXT
MDEDJ1283442201801                D89831229200PT1D20180124000030RADIO;AM/FM,CD                M IMCTM S5NC06 TNTH  07070IMCT  S5 PTB  00003                    0230 SR        000000000000 DENSO TEN (THAILAND)17007SL0005006                                                                                                                              *          20180119 IMCT                IMCT                                                                                                                    WMF1801195.TXT
MDEDJ1283443201801                D89831229200PT1D20180124000015RADIO;AM/FM,CD                M IMCTM S5NC06 TNTH  07070IMCT  S5 PTB  00003                    1600 SR        000000000000 DENSO TEN (THAILAND)17013QL0026026                                                                                                                              *          20180119 IMCT                IMCT                                                                                                                    WMF1801195.TXT
MDEDJ1283444201801                D89848581800PT4D20180124000015RADIO;AM/FM CD D              M IMCTM S9CO001TNTH  07070IMCT  S9 PTB  00003                    2100 SR        000000000000 DENSO TEN (THAILAND)17074NU0044044                                                                                                                              *          20180119 IMCT                IMCT                                                                                                                    WMF1801195.TXT
MDEUJ1261157201801                D89828070100PT4U20180123000030SPEAKER ASM                   M IMCTM S0FL05 TNTH  07070IMCT  S0 PTB  00004                    2230 SR        000000000000 DENSO TEN (THAILAND)18026UU0123123                                                                                                                              *          20180119 IMCT                IMCT                                                                                                                    WMF1801195.TXT
MDEUJ1261158201801                D89828070100PT4U20180124000030SPEAKER ASM                   M IMCTM S0FL05 TNTH  07070IMCT  S0 PTB  00004                    0230 SR        000000000000 DENSO TEN (THAILAND)18026UU0124124                                                                                                                              *          20180119 IMCT                IMCT                                                                                                                    WMF1801195.TXT
MDEUJ1261159201801                D89828070100PT4U20180124000030SPEAKER ASM                   M IMCTM S0FL05 TNTH  07070IMCT  S0 PTB  00004                    0400 SR        000000000000 DENSO TEN (THAILAND)18026UU0125125                                                                                                                              *          20180119 IMCT                IMCT                                                                                                                    WMF1801195.TXT
MDEUJ1261160201801                D89828070100PT4U20180124000030SPEAKER ASM                   M IMCTM S0FL05 TNTH  07070IMCT  S0 PTB  00004                    1030 SR        000000000000 DENSO TEN (THAILAND)18022TU0122122                                                                                                                              *          20180119 IMCT                IMCT                                                                                                                    WMF1801195.TXT
MDEUJ1261161201801                D89828070100PT4U20180124000060SPEAKER ASM                   M IMCTM S0FL05 TNTH  07070IMCT  S0 PTB  00004                    1300 SR        000000000000 DENSO TEN (THAILAND)18026UU0126127                                                                                                                              *          20180119 IMCT                IMCT                                                                                                                    WMF1801195.TXT
MDEUJ1261162201801                D89828070100PT4U20180124000030SPEAKER ASM                   M IMCTM S0FL05 TNTH  07070IMCT  S0 PTB  00004                    1600 SR        000000000000 DENSO TEN (THAILAND)18026UU0128128                                                                                                                              *          20180119 IMCT                IMCT                                                                                                                    WMF1801195.TXT
MDEUJ1261163201801                D89828070100PT4U20180124000030SPEAKER ASM                   M IMCTM S0FL05 TNTH  07070IMCT  S0 PTB  00004                    2100 SR        000000000000 DENSO TEN (THAILAND)18026UU0129129                                                                                                                              *          20180119 IMCT                IMCT                                                                                                                    WMF1801195.TXT
MDEUJ1261164201801                D89828070200PV4U20180123000030SPEAKER ASM                   M IMCTM S0FR05 TNTH  07070IMCT  S0 PTB  00005                    2230 SR        000000000000 DENSO TEN (THAILAND)18026UU0123123                                                                                                                              *          20180119 IMCT                IMCT                                                                                                                    WMF1801195.TXT
MDEUJ1261165201801                D89828070200PV4U20180124000030SPEAKER ASM                   M IMCTM S0FR05 TNTH  07070IMCT  S0 PTB  00005                    0230 SR        000000000000 DENSO TEN (THAILAND)18026UU0124124                                                                                                                              *          20180119 IMCT                IMCT                                                                                                                    WMF1801195.TXT
MDEUJ1261166201801                D89828070200PV4U20180124000030SPEAKER ASM                   M IMCTM S0FR05 TNTH  07070IMCT  S0 PTB  00005                    0400 SR        000000000000 DENSO TEN (THAILAND)18026UU0125125                                                                                                                              *          20180119 IMCT                IMCT                                                                                                                    WMF1801195.TXT
MDEUJ1261167201801                D89828070200PV4U20180124000030SPEAKER ASM                   M IMCTM S0FR05 TNTH  07070IMCT  S0 PTB  00005                    1030 SR        000000000000 DENSO TEN (THAILAND)18022TU0122122                                                                                                                              *          20180119 IMCT                IMCT                                                                                                                    WMF1801195.TXT
MDEUJ1261168201801                D89828070200PV4U20180124000060SPEAKER ASM                   M IMCTM S0FR05 TNTH  07070IMCT  S0 PTB  00005                    1300 SR        000000000000 DENSO TEN (THAILAND)18026UU0126127                                                                                                                              *          20180119 IMCT                IMCT                                                                                                                    WMF1801195.TXT
MDEUJ1261169201801                D89828070200PV4U20180124000030SPEAKER ASM                   M IMCTM S0FR05 TNTH  07070IMCT  S0 PTB  00005                    1600 SR        000000000000 DENSO TEN (THAILAND)18026UU0128128                                                                                                                              *          20180119 IMCT                IMCT                                                                                                                    WMF1801195.TXT
MDEUJ1261170201801                D89828070200PV4U20180124000030SPEAKER ASM                   M IMCTM S0FR05 TNTH  07070IMCT  S0 PTB  00005                    2100 SR        000000000000 DENSO TEN (THAILAND)18026UU0129129                                                                                                                              *          20180119 IMCT                IMCT                                                                                                                    WMF1801195.TXT
MDEUJ1261171201801                D89828070300PT4U20180123000030SPEAKER ASM                   M IMCTM S9TS02 TNTH  07070IMCT  S9 PTB  00015                    2230 SR        000000000000 DENSO TEN (THAILAND)18026UU0123123                                                                                                                              *          20180119 IMCT                IMCT                                                                                                                    WMF1801195.TXT
MDEUJ1261172201801                D89828070300PT4U20180124000030SPEAKER ASM                   M IMCTM S9TS02 TNTH  07070IMCT  S9 PTB  00015                    0230 SR        000000000000 DENSO TEN (THAILAND)18026UU0124124                                                                                                                              *          20180119 IMCT                IMCT                                                                                                                    WMF1801195.TXT
MDEUJ1261173201801                D89828070300PT4U20180124000030SPEAKER ASM                   M IMCTM S9TS02 TNTH  07070IMCT  S9 PTB  00015                    0400 SR        000000000000 DENSO TEN (THAILAND)18026UU0125125                                                                                                                              *          20180119 IMCT                IMCT                                                                                                                    WMF1801195.TXT
MDEUJ1261174201801                D89828070300PT4U20180124000030SPEAKER ASM                   M IMCTM S9TS02 TNTH  07070IMCT  S9 PTB  00015                    1030 SR        000000000000 DENSO TEN (THAILAND)18022TU0122122                                                                                                                              *          20180119 IMCT                IMCT                                                                                                                    WMF1801195.TXT
MDEUJ1261175201801                D89828070300PT4U20180124000060SPEAKER ASM                   M IMCTM S9TS02 TNTH  07070IMCT  S9 PTB  00015                    1300 SR        000000000000 DENSO TEN (THAILAND)18026UU0126127                                                                                                                              *          20180119 IMCT                IMCT                                                                                                                    WMF1801195.TXT
MDEUJ1261176201801                D89828070300PT4U20180124000030SPEAKER ASM                   M IMCTM S9TS02 TNTH  07070IMCT  S9 PTB  00015                    1600 SR        000000000000 DENSO TEN (THAILAND)18026UU0128128                                                                                                                              *          20180119 IMCT                IMCT                                                                                                                    WMF1801195.TXT
MDEUJ1261177201801                D89828070300PT4U20180124000030SPEAKER ASM                   M IMCTM S9TS02 TNTH  07070IMCT  S9 PTB  00015                    2100 SR        000000000000 DENSO TEN (THAILAND)18026UU0129129                                                                                                                              *          20180119 IMCT                IMCT                                                                                                                    WMF1801195.TXT
