REC2018011620180116ISUZU                              60     
MDDDJ1233921201801                D89821984430PT1D20180120000030RADIO;AM/FM,CD                M IMCTM S5NC06 TNTH  07070IMCT  S5 PTB  00005                    0830 SR        000000000000 DENSO TEN (THAILAND)180LNHL0027027                                                                                                                              *          20180116 IMCT                IMCT                                                                                                                    WMF1801165.TXT
MDDDJ1233922201801                D89821984430PT1D20180120000030RADIO;AM/FM,CD                M IMCTM S5NC06 TNTH  07070IMCT  S5 PTB  00005                    1300 SR        000000000000 DENSO TEN (THAILAND)180LXEL0003003                                                                                                                              *          20180116 IMCT                IMCT                                                                                                                    WMF1801165.TXT
MDDDJ1233923201801                D89828070100PV1D20180119000060SPEAKER ASM                   M IMCTM S5MB11 TNTH  07070IMCT  S5 PTB  00004                    2230 SR        000000000000 DENSO TEN (THAILAND)180LPKL0037037                                                                                                                              *          20180116 IMCT                IMCT                                                                                                                    WMF1801165.TXT
MDDDJ1233924201801                D89828070100PV1D20180120000060SPEAKER ASM                   M IMCTM S5MB11 TNTH  07070IMCT  S5 PTB  00004                    0830 SR        000000000000 DENSO TEN (THAILAND)180LNHL0027027                                                                                                                              *          20180116 IMCT                IMCT                                                                                                                    WMF1801165.TXT
MDDDJ1233925201801                D89828070100PV1D20180120000060SPEAKER ASM                   M IMCTM S5MB11 TNTH  07070IMCT  S5 PTB  00004                    1030 SR        000000000000 DENSO TEN (THAILAND)180LPGL0137137                                                                                                                              *          20180116 IMCT                IMCT                                                                                                                    WMF1801165.TXT
MDDDJ1233926201801                D89828070100PV1D20180120000060SPEAKER ASM                   M IMCTM S5MB11 TNTH  07070IMCT  S5 PTB  00004                    1300 SR        000000000000 DENSO TEN (THAILAND)180LXEL0003003                                                                                                                              *          20180116 IMCT                IMCT                                                                                                                    WMF1801165.TXT
MDDDJ1233927201801                D89828070300PT1D20180119000060SPEAKER ASM                   M IMCTM S5NB082TNTH  07070IMCT  S5 PTB  00015                    2230 SR        000000000000 DENSO TEN (THAILAND)180LPKL0037037                                                                                                                              *          20180116 IMCT                IMCT                                                                                                                    WMF1801165.TXT
MDDDJ1233928201801                D89828070300PT1D20180120000060SPEAKER ASM                   M IMCTM S5NB082TNTH  07070IMCT  S5 PTB  00015                    1030 SR        000000000000 DENSO TEN (THAILAND)180LPGL0137137                                                                                                                              *          20180116 IMCT                IMCT                                                                                                                    WMF1801165.TXT
MDDDJ1233929201801                D89831228300PT1D20180120000030RADIO;AM/FM,CD                M IMCTM S5NC06 TNTH  07070IMCT  S5 CPB  00003                    1030 SR        000000000000 DENSO TEN (THAILAND)180LPGL0137137                                                                                                                              *          20180116 IMCT                IMCT                                                                                                                    WMF1801165.TXT
MDDDJ1233930201801                D89848581600PT1D20180119000030RADIO;AM/FM CD D              M IMCTM S5NC06 TNTH  07070IMCT  S5 PTB  00003                    2230 SR        000000000000 DENSO TEN (THAILAND)180LPKL0037037                                                                                                                              *          20180116 IMCT                IMCT                                                                                                                    WMF1801165.TXT
MDDUJ1221247201801                D89828070100PT4U20180120000030SPEAKER ASM                   M IMCTM S0FL05 TNTH  07070IMCT  S0 PTB  00004                    0230 SR        000000000000 DENSO TEN (THAILAND)180LUNU0001001                                                                                                                              *          20180116 IMCT                IMCT                                                                                                                    WMF1801165.TXT
MDDUJ1221248201801                D89828070100PT4U20180120000030SPEAKER ASM                   M IMCTM S0FL05 TNTH  07070IMCT  S0 PTB  00004                    0400 SR        000000000000 DENSO TEN (THAILAND)180LURU0007007                                                                                                                              *          20180116 IMCT                IMCT                                                                                                                    WMF1801165.TXT
MDDUJ1221249201801                D89828070100PT4U20180120000030SPEAKER ASM                   M IMCTM S0FL05 TNTH  07070IMCT  S0 PTB  00004                    0830 SR        000000000000 DENSO TEN (THAILAND)180LULU0008008                                                                                                                              *          20180116 IMCT                IMCT                                                                                                                    WMF1801165.TXT
MDDUJ1221250201801                D89828070100PT4U20180120000060SPEAKER ASM                   M IMCTM S0FL05 TNTH  07070IMCT  S0 PTB  00004                    1300 SR        000000000000 DENSO TEN (THAILAND)180LURU0008008180LUTU0005005                                                                                                                *          20180116 IMCT                IMCT                                                                                                                    WMF1801165.TXT
MDDUJ1221251201801                D89828070100PT4U20180120000030SPEAKER ASM                   M IMCTM S0FL05 TNTH  07070IMCT  S0 PTB  00004                    2100 SR        000000000000 DENSO TEN (THAILAND)180LUSU0004004                                                                                                                              *          20180116 IMCT                IMCT                                                                                                                    WMF1801165.TXT
MDDUJ1221252201801                D89828070200PV4U20180120000030SPEAKER ASM                   M IMCTM S0FR05 TNTH  07070IMCT  S0 PTB  00005                    0230 SR        000000000000 DENSO TEN (THAILAND)180LUNU0001001                                                                                                                              *          20180116 IMCT                IMCT                                                                                                                    WMF1801165.TXT
MDDUJ1221253201801                D89828070200PV4U20180120000030SPEAKER ASM                   M IMCTM S0FR05 TNTH  07070IMCT  S0 PTB  00005                    0400 SR        000000000000 DENSO TEN (THAILAND)180LURU0007007                                                                                                                              *          20180116 IMCT                IMCT                                                                                                                    WMF1801165.TXT
MDDUJ1221254201801                D89828070200PV4U20180120000030SPEAKER ASM                   M IMCTM S0FR05 TNTH  07070IMCT  S0 PTB  00005                    0830 SR        000000000000 DENSO TEN (THAILAND)180LULU0008008                                                                                                                              *          20180116 IMCT                IMCT                                                                                                                    WMF1801165.TXT
MDDUJ1221255201801                D89828070200PV4U20180120000060SPEAKER ASM                   M IMCTM S0FR05 TNTH  07070IMCT  S0 PTB  00005                    1300 SR        000000000000 DENSO TEN (THAILAND)180LURU0008008180LUTU0005005                                                                                                                *          20180116 IMCT                IMCT                                                                                                                    WMF1801165.TXT
MDDUJ1221256201801                D89828070200PV4U20180120000030SPEAKER ASM                   M IMCTM S0FR05 TNTH  07070IMCT  S0 PTB  00005                    2100 SR        000000000000 DENSO TEN (THAILAND)180LUSU0004004                                                                                                                              *          20180116 IMCT                IMCT                                                                                                                    WMF1801165.TXT
MDDUJ1221257201801                D89828070300PT4U20180120000030SPEAKER ASM                   M IMCTM S9TS02 TNTH  07070IMCT  S9 PTB  00015                    0230 SR        000000000000 DENSO TEN (THAILAND)180LUNU0001001                                                                                                                              *          20180116 IMCT                IMCT                                                                                                                    WMF1801165.TXT
MDDUJ1221258201801                D89828070300PT4U20180120000030SPEAKER ASM                   M IMCTM S9TS02 TNTH  07070IMCT  S9 PTB  00015                    0400 SR        000000000000 DENSO TEN (THAILAND)180LURU0007007                                                                                                                              *          20180116 IMCT                IMCT                                                                                                                    WMF1801165.TXT
MDDUJ1221259201801                D89828070300PT4U20180120000030SPEAKER ASM                   M IMCTM S9TS02 TNTH  07070IMCT  S9 PTB  00015                    0830 SR        000000000000 DENSO TEN (THAILAND)180LULU0008008                                                                                                                              *          20180116 IMCT                IMCT                                                                                                                    WMF1801165.TXT
MDDUJ1221260201801                D89828070300PT4U20180120000060SPEAKER ASM                   M IMCTM S9TS02 TNTH  07070IMCT  S9 PTB  00015                    1300 SR        000000000000 DENSO TEN (THAILAND)180LURU0008008180LUTU0005005                                                                                                                *          20180116 IMCT                IMCT                                                                                                                    WMF1801165.TXT
MDDUJ1221261201801                D89828070300PT4U20180120000030SPEAKER ASM                   M IMCTM S9TS02 TNTH  07070IMCT  S9 PTB  00015                    2100 SR        000000000000 DENSO TEN (THAILAND)180LUSU0004004                                                                                                                              *          20180116 IMCT                IMCT                                                                                                                    WMF1801165.TXT
MDDUJ1221262201801                D89848584200PT4U20180120000015RADIO;AM/FM CD D              M IMCTM S9CO001TNTH  07070IMCT  S9 PTB  00003                    0230 SR        000000000000 DENSO TEN (THAILAND)180LUNU0001001                                                                                                                              *          20180116 IMCT                IMCT                                                                                                                    WMF1801165.TXT
MDEDJ1262441201801                D89828070100PV1D20180119000060SPEAKER ASM                   M IMCTM S5MB11 TNTH  07070IMCT  S5 PTB  00004                    2230 SR        000000000000 DENSO TEN (THAILAND)17074NL009109117075PL0067067                                                                                                                *          20180116 IMCT                IMCT                                                                                                                    WMF1801165.TXT
MDEDJ1262442201801                D89828070100PV1D20180120000060SPEAKER ASM                   M IMCTM S5MB11 TNTH  07070IMCT  S5 PTB  00004                    0230 SR        000000000000 DENSO TEN (THAILAND)17075PL006806817079NL0117117                                                                                                                *          20180116 IMCT                IMCT                                                                                                                    WMF1801165.TXT
MDEDJ1262443201801                D89828070100PV1D20180120000090SPEAKER ASM                   M IMCTM S5MB11 TNTH  07070IMCT  S5 PTB  00004                    0400 SR        000000000000 DENSO TEN (THAILAND)17054PL005105217079NL0118118                                                                                                                *          20180116 IMCT                IMCT                                                                                                                    WMF1801165.TXT
MDEDJ1262444201801                D89828070100PV1D20180120000060SPEAKER ASM                   M IMCTM S5MB11 TNTH  07070IMCT  S5 PTB  00004                    0830 SR        000000000000 DENSO TEN (THAILAND)17075PL0069070                                                                                                                              *          20180116 IMCT                IMCT                                                                                                                    WMF1801165.TXT
MDEDJ1262445201801                D89828070100PV1D20180120000030SPEAKER ASM                   M IMCTM S5MB11 TNTH  07070IMCT  S5 PTB  00004                    1300 SR        000000000000 DENSO TEN (THAILAND)17085RL0020020                                                                                                                              *          20180116 IMCT                IMCT                                                                                                                    WMF1801165.TXT
MDEDJ1262446201801                D89828070100PV1D20180120000090SPEAKER ASM                   M IMCTM S5MB11 TNTH  07070IMCT  S5 PTB  00004                    1600 SR        000000000000 DENSO TEN (THAILAND)17055NL008008117085RL0021021                                                                                                                *          20180116 IMCT                IMCT                                                                                                                    WMF1801165.TXT
MDEDJ1262447201801                D89828070100PV1D20180120000060SPEAKER ASM                   M IMCTM S5MB11 TNTH  07070IMCT  S5 PTB  00004                    2100 SR        000000000000 DENSO TEN (THAILAND)18007ZL0063064                                                                                                                              *          20180116 IMCT                IMCT                                                                                                                    WMF1801165.TXT
MDEDJ1262448201801                D89828070100PV4D20180120000030SPEAKER ASM                   M IMCTM S0FL05 TNTH  07070IMCT  S0 PTB  00004                    1300 SR        000000000000 DENSO TEN (THAILAND)17074NU0041041                                                                                                                              *          20180116 IMCT                IMCT                                                                                                                    WMF1801165.TXT
MDEDJ1262449201801                D89828070200PV1D20180119000030SPEAKER ASM                   M IMCTM S5MA14 TNTH  07070IMCT  S5 PTB  00005                    2230 SR        000000000000 DENSO TEN (THAILAND)17074NL0091091                                                                                                                              *          20180116 IMCT                IMCT                                                                                                                    WMF1801165.TXT
MDEDJ1262450201801                D89828070200PV1D20180120000030SPEAKER ASM                   M IMCTM S5MA14 TNTH  07070IMCT  S5 PTB  00005                    0230 SR        000000000000 DENSO TEN (THAILAND)17079NL0117117                                                                                                                              *          20180116 IMCT                IMCT                                                                                                                    WMF1801165.TXT
MDEDJ1262451201801                D89828070200PV1D20180120000030SPEAKER ASM                   M IMCTM S5MA14 TNTH  07070IMCT  S5 PTB  00005                    0400 SR        000000000000 DENSO TEN (THAILAND)17079NL0118118                                                                                                                              *          20180116 IMCT                IMCT                                                                                                                    WMF1801165.TXT
MDEDJ1262452201801                D89828070200PV4D20180120000030SPEAKER ASM                   M IMCTM S0FR05 TNTH  07070IMCT  S0 PTB  00005                    1300 SR        000000000000 DENSO TEN (THAILAND)17074NU0041041                                                                                                                              *          20180116 IMCT                IMCT                                                                                                                    WMF1801165.TXT
MDEDJ1262453201801                D89828070300PT1D20180119000030SPEAKER ASM                   M IMCTM S5NB082TNTH  07070IMCT  S5 PTB  00015                    2230 SR        000000000000 DENSO TEN (THAILAND)17074NL0091091                                                                                                                              *          20180116 IMCT                IMCT                                                                                                                    WMF1801165.TXT
MDEDJ1262454201801                D89828070300PT1D20180120000030SPEAKER ASM                   M IMCTM S5NB082TNTH  07070IMCT  S5 PTB  00015                    0230 SR        000000000000 DENSO TEN (THAILAND)17079NL0117117                                                                                                                              *          20180116 IMCT                IMCT                                                                                                                    WMF1801165.TXT
MDEDJ1262455201801                D89828070300PT1D20180120000030SPEAKER ASM                   M IMCTM S5NB082TNTH  07070IMCT  S5 PTB  00015                    0400 SR        000000000000 DENSO TEN (THAILAND)17079NL0118118                                                                                                                              *          20180116 IMCT                IMCT                                                                                                                    WMF1801165.TXT
MDEDJ1262456201801                D89828070300PT1D20180120000060SPEAKER ASM                   M IMCTM S5NB082TNTH  07070IMCT  S5 PTB  00015                    1600 SR        000000000000 DENSO TEN (THAILAND)17055NL0080081                                                                                                                              *          20180116 IMCT                IMCT                                                                                                                    WMF1801165.TXT
MDEDJ1262457201801                D89828070300PT4D20180120000030SPEAKER ASM                   M IMCTM S9TS02 TNTH  07070IMCT  S9 PTB  00015                    1300 SR        000000000000 DENSO TEN (THAILAND)17074NU0041041                                                                                                                              *          20180116 IMCT                IMCT                                                                                                                    WMF1801165.TXT
MDEDJ1262458201801                D89848581800PT1D20180119000015RADIO;AM/FM CD D              M IMCTM S5NC06 TNTH  07070IMCT  S5 PTB  00003                    2230 SR        000000000000 DENSO TEN (THAILAND)17074NL0091091                                                                                                                              *          20180116 IMCT                IMCT                                                                                                                    WMF1801165.TXT
MDEDJ1262459201801                D89848581800PT1D20180120000015RADIO;AM/FM CD D              M IMCTM S5NC06 TNTH  07070IMCT  S5 PTB  00003                    0230 SR        000000000000 DENSO TEN (THAILAND)17079NL0117117                                                                                                                              *          20180116 IMCT                IMCT                                                                                                                    WMF1801165.TXT
MDEDJ1262460201801                D89848581800PT1D20180120000015RADIO;AM/FM CD D              M IMCTM S5NC06 TNTH  07070IMCT  S5 PTB  00003                    0400 SR        000000000000 DENSO TEN (THAILAND)17079NL0118118                                                                                                                              *          20180116 IMCT                IMCT                                                                                                                    WMF1801165.TXT
MDEDJ1262461201801                D89848581800PT1D20180120000030RADIO;AM/FM CD D              M IMCTM S5NC06 TNTH  07070IMCT  S5 PTB  00003                    1600 SR        000000000000 DENSO TEN (THAILAND)17055NL0080081                                                                                                                              *          20180116 IMCT                IMCT                                                                                                                    WMF1801165.TXT
MDEDJ1262462201801                D89848581800PT4D20180120000015RADIO;AM/FM CD D              M IMCTM S9CO001TNTH  07070IMCT  S9 PTB  00003                    1300 SR        000000000000 DENSO TEN (THAILAND)17074NU0041041                                                                                                                              *          20180116 IMCT                IMCT                                                                                                                    WMF1801165.TXT
MDEUJ1247815201801                D89828070100PT4U20180119000030SPEAKER ASM                   M IMCTM S0FL05 TNTH  07070IMCT  S0 PTB  00004                    2230 SR        000000000000 DENSO TEN (THAILAND)18018TU0063063                                                                                                                              *          20180116 IMCT                IMCT                                                                                                                    WMF1801165.TXT
MDEUJ1247816201801                D89828070100PT4U20180120000030SPEAKER ASM                   M IMCTM S0FL05 TNTH  07070IMCT  S0 PTB  00004                    0400 SR        000000000000 DENSO TEN (THAILAND)18029UU0002002                                                                                                                              *          20180116 IMCT                IMCT                                                                                                                    WMF1801165.TXT
MDEUJ1247817201801                D89828070100PT4U20180120000030SPEAKER ASM                   M IMCTM S0FL05 TNTH  07070IMCT  S0 PTB  00004                    1030 SR        000000000000 DENSO TEN (THAILAND)18026UU0114114                                                                                                                              *          20180116 IMCT                IMCT                                                                                                                    WMF1801165.TXT
MDEUJ1247818201801                D89828070100PT4U20180120000030SPEAKER ASM                   M IMCTM S0FL05 TNTH  07070IMCT  S0 PTB  00004                    1600 SR        000000000000 DENSO TEN (THAILAND)18023TU0237237                                                                                                                              *          20180116 IMCT                IMCT                                                                                                                    WMF1801165.TXT
MDEUJ1247819201801                D89828070200PV4U20180119000030SPEAKER ASM                   M IMCTM S0FR05 TNTH  07070IMCT  S0 PTB  00005                    2230 SR        000000000000 DENSO TEN (THAILAND)18018TU0063063                                                                                                                              *          20180116 IMCT                IMCT                                                                                                                    WMF1801165.TXT
MDEUJ1247820201801                D89828070200PV4U20180120000030SPEAKER ASM                   M IMCTM S0FR05 TNTH  07070IMCT  S0 PTB  00005                    0400 SR        000000000000 DENSO TEN (THAILAND)18029UU0002002                                                                                                                              *          20180116 IMCT                IMCT                                                                                                                    WMF1801165.TXT
MDEUJ1247821201801                D89828070200PV4U20180120000030SPEAKER ASM                   M IMCTM S0FR05 TNTH  07070IMCT  S0 PTB  00005                    1030 SR        000000000000 DENSO TEN (THAILAND)18026UU0114114                                                                                                                              *          20180116 IMCT                IMCT                                                                                                                    WMF1801165.TXT
MDEUJ1247822201801                D89828070200PV4U20180120000030SPEAKER ASM                   M IMCTM S0FR05 TNTH  07070IMCT  S0 PTB  00005                    1600 SR        000000000000 DENSO TEN (THAILAND)18023TU0237237                                                                                                                              *          20180116 IMCT                IMCT                                                                                                                    WMF1801165.TXT
MDEUJ1247823201801                D89828070300PT4U20180119000030SPEAKER ASM                   M IMCTM S9TS02 TNTH  07070IMCT  S9 PTB  00015                    2230 SR        000000000000 DENSO TEN (THAILAND)18018TU0063063                                                                                                                              *          20180116 IMCT                IMCT                                                                                                                    WMF1801165.TXT
MDEUJ1247824201801                D89828070300PT4U20180120000030SPEAKER ASM                   M IMCTM S9TS02 TNTH  07070IMCT  S9 PTB  00015                    0400 SR        000000000000 DENSO TEN (THAILAND)18029UU0002002                                                                                                                              *          20180116 IMCT                IMCT                                                                                                                    WMF1801165.TXT
MDEUJ1247825201801                D89828070300PT4U20180120000030SPEAKER ASM                   M IMCTM S9TS02 TNTH  07070IMCT  S9 PTB  00015                    1030 SR        000000000000 DENSO TEN (THAILAND)18026UU0114114                                                                                                                              *          20180116 IMCT                IMCT                                                                                                                    WMF1801165.TXT
MDEUJ1247826201801                D89828070300PT4U20180120000030SPEAKER ASM                   M IMCTM S9TS02 TNTH  07070IMCT  S9 PTB  00015                    1600 SR        000000000000 DENSO TEN (THAILAND)18023TU0237237                                                                                                                              *          20180116 IMCT                IMCT                                                                                                                    WMF1801165.TXT
