REC2018013020180130ISUZU                              25     
MDD6J1305640201802                D89821984430PT5620180202000030RADIO;AM/FM,CD                M IMCTM G9J311 TNTH  07070G/WAY G9 PTB  00005                    2100 GW        0000000000005DENSO TEN (THAILAND)180LPAG0125125                                                                                                                              *          20180130 IMCT                IMCT                                                                                                                    WMF1801302.TXT
MDD6J1305641201802                D89821984430PT5620180203000030RADIO;AM/FM,CD                M IMCTM G9J311 TNTH  07070G/WAY G9 PTB  00005                    0330 GW        0000000000005DENSO TEN (THAILAND)180LPAG0126126                                                                                                                              *          20180130 IMCT                IMCT                                                                                                                    WMF1801302.TXT
MDD6J1305642201802                D89828070100PV5620180202000120SPEAKER ASM                   M IMCTM G9B112 TNTH  07070G/WAY G9 PTB  00004                    2100 GW        0000000000005DENSO TEN (THAILAND)180LPAG0125125180LRHG0169169                                                                                                                *          20180130 IMCT                IMCT                                                                                                                    WMF1801302.TXT
MDD6J1305643201802                D89828070100PV5620180202000060SPEAKER ASM                   M IMCTM G9B112 TNTH  07070G/WAY G9 PTB  00004                    2300 GW        0000000000005DENSO TEN (THAILAND)180LRPG0021021                                                                                                                              *          20180130 IMCT                IMCT                                                                                                                    WMF1801302.TXT
MDD6J1305644201802                D89828070100PV5620180203000060SPEAKER ASM                   M IMCTM G9B112 TNTH  07070G/WAY G9 PTB  00004                    0200 GW        0000000000005DENSO TEN (THAILAND)180LRMG0076076                                                                                                                              *          20180130 IMCT                IMCT                                                                                                                    WMF1801302.TXT
MDD6J1305645201802                D89828070100PV5620180203000120SPEAKER ASM                   M IMCTM G9B112 TNTH  07070G/WAY G9 PTB  00004                    0330 GW        0000000000005DENSO TEN (THAILAND)180LPAG0126126180LRLG0068068                                                                                                                *          20180130 IMCT                IMCT                                                                                                                    WMF1801302.TXT
MDD6J1305646201802                D89828070100PV5620180203000060SPEAKER ASM                   M IMCTM G9B112 TNTH  07070G/WAY G9 PTB  00004                    0900 GW        0000000000005DENSO TEN (THAILAND)180LRFG0041041                                                                                                                              *          20180130 IMCT                IMCT                                                                                                                    WMF1801302.TXT
MDD6J1305647201802                D89828070100PV5620180203000060SPEAKER ASM                   M IMCTM G9B112 TNTH  07070G/WAY G9 PTB  00004                    1100 GW        0000000000005DENSO TEN (THAILAND)180LPKG0039039                                                                                                                              *          20180130 IMCT                IMCT                                                                                                                    WMF1801302.TXT
MDD6J1305648201802                D89828070100PV5620180203000060SPEAKER ASM                   M IMCTM G9B112 TNTH  07070G/WAY G9 PTB  00004                    1400 GW        0000000000005DENSO TEN (THAILAND)180LRLG0069069                                                                                                                              *          20180130 IMCT                IMCT                                                                                                                    WMF1801302.TXT
MDD6J1305649201802                D89828070200PV5620180202000060SPEAKER ASM                   M IMCTM G9F132 TNTH  07070G/WAY G9 PTB  00005                    2100 GW        0000000000005DENSO TEN (THAILAND)180LRHG0169169                                                                                                                              *          20180130 IMCT                IMCT                                                                                                                    WMF1801302.TXT
MDD6J1305650201802                D89828070200PV5620180202000060SPEAKER ASM                   M IMCTM G9F132 TNTH  07070G/WAY G9 PTB  00005                    2300 GW        0000000000005DENSO TEN (THAILAND)180LRPG0021021                                                                                                                              *          20180130 IMCT                IMCT                                                                                                                    WMF1801302.TXT
MDD6J1305651201802                D89828070200PV5620180203000060SPEAKER ASM                   M IMCTM G9F132 TNTH  07070G/WAY G9 PTB  00005                    0200 GW        0000000000005DENSO TEN (THAILAND)180LRMG0076076                                                                                                                              *          20180130 IMCT                IMCT                                                                                                                    WMF1801302.TXT
MDD6J1305652201802                D89828070200PV5620180203000060SPEAKER ASM                   M IMCTM G9F132 TNTH  07070G/WAY G9 PTB  00005                    0330 GW        0000000000005DENSO TEN (THAILAND)180LRLG0068068                                                                                                                              *          20180130 IMCT                IMCT                                                                                                                    WMF1801302.TXT
MDD6J1305653201802                D89828070200PV5620180203000060SPEAKER ASM                   M IMCTM G9F132 TNTH  07070G/WAY G9 PTB  00005                    0900 GW        0000000000005DENSO TEN (THAILAND)180LRFG0041041                                                                                                                              *          20180130 IMCT                IMCT                                                                                                                    WMF1801302.TXT
MDD6J1305654201802                D89828070200PV5620180203000060SPEAKER ASM                   M IMCTM G9F132 TNTH  07070G/WAY G9 PTB  00005                    1400 GW        0000000000005DENSO TEN (THAILAND)180LRLG0069069                                                                                                                              *          20180130 IMCT                IMCT                                                                                                                    WMF1801302.TXT
MDD6J1305655201802                D89828070300PT5620180202000060SPEAKER ASM                   M IMCTM G9JB34 TNTH  07070G/WAY G9 PTB  00015                    2100 GW        0000000000005DENSO TEN (THAILAND)180LRHG0169169                                                                                                                              *          20180130 IMCT                IMCT                                                                                                                    WMF1801302.TXT
MDD6J1305656201802                D89828070300PT5620180202000060SPEAKER ASM                   M IMCTM G9JB34 TNTH  07070G/WAY G9 PTB  00015                    2300 GW        0000000000005DENSO TEN (THAILAND)180LRPG0021021                                                                                                                              *          20180130 IMCT                IMCT                                                                                                                    WMF1801302.TXT
MDD6J1305657201802                D89828070300PT5620180203000060SPEAKER ASM                   M IMCTM G9JB34 TNTH  07070G/WAY G9 PTB  00015                    0200 GW        0000000000005DENSO TEN (THAILAND)180LRMG0076076                                                                                                                              *          20180130 IMCT                IMCT                                                                                                                    WMF1801302.TXT
MDD6J1305658201802                D89828070300PT5620180203000060SPEAKER ASM                   M IMCTM G9JB34 TNTH  07070G/WAY G9 PTB  00015                    0330 GW        0000000000005DENSO TEN (THAILAND)180LRLG0068068                                                                                                                              *          20180130 IMCT                IMCT                                                                                                                    WMF1801302.TXT
MDD6J1305659201802                D89828070300PT5620180203000060SPEAKER ASM                   M IMCTM G9JB34 TNTH  07070G/WAY G9 PTB  00015                    0900 GW        0000000000005DENSO TEN (THAILAND)180LRFG0041041                                                                                                                              *          20180130 IMCT                IMCT                                                                                                                    WMF1801302.TXT
MDD6J1305660201802                D89828070300PT5620180203000060SPEAKER ASM                   M IMCTM G9JB34 TNTH  07070G/WAY G9 PTB  00015                    1100 GW        0000000000005DENSO TEN (THAILAND)180LPKG0039039                                                                                                                              *          20180130 IMCT                IMCT                                                                                                                    WMF1801302.TXT
MDD6J1305661201802                D89828070300PT5620180203000060SPEAKER ASM                   M IMCTM G9JB34 TNTH  07070G/WAY G9 PTB  00015                    1400 GW        0000000000005DENSO TEN (THAILAND)180LRLG0069069                                                                                                                              *          20180130 IMCT                IMCT                                                                                                                    WMF1801302.TXT
MDD6J1305662201802                D89831228400PT5620180203000030RADIO;AM/FM,CD                M IMCTM G9J311 TNTH  07070G/WAY G9 CPB  00003                    0900 GW        0000000000005DENSO TEN (THAILAND)180LRFG0041041                                                                                                                              *          20180130 IMCT                IMCT                                                                                                                    WMF1801302.TXT
MDD6J1305663201802                D89848581500PT5620180202000030RADIO;AM/FM CD D              M IMCTM G9J213 TNTH  07070G/WAY G9 PTB  00003                    2100 GW        0000000000005DENSO TEN (THAILAND)180LRHG0169169                                                                                                                              *          20180130 IMCT                IMCT                                                                                                                    WMF1801302.TXT
MDD6J1305664201802                D89848581600PT5620180203000030RADIO;AM/FM CD D              M IMCTM G9J213 TNTH  07070G/WAY G9 PTB  00003                    1100 GW        0000000000005DENSO TEN (THAILAND)180LPKG0039039                                                                                                                              *          20180130 IMCT                IMCT                                                                                                                    WMF1801302.TXT
