REC2018012720180127ISUZU                              5      
MDEBJ1T02474201802                D89828070100PT4B20180131000030SPEAKER ASM                   M IMCTM S7FL05 TNTH  07070IMCT  S7 PTB  00004                    2230 SR        000000000000 DENSO TEN (THAILAND)18001TR0013   18002TR0065   Y180200201    Y180200215    000000                                                                              *R         20180127 IMCT                IMCT                                                                                                                    RMF1801275.TXT
MDEBJ1T02475201802                D89828070200PV4B20180131000030SPEAKER ASM                   M IMCTM S7FL05 TNTH  07070IMCT  S7 PTB  00005                    2230 SR        000000000000 DENSO TEN (THAILAND)18001TR0013   18002TR0065   Y180200201    Y180200215    000000                                                                              *R         20180127 IMCT                IMCT                                                                                                                    RMF1801275.TXT
MDEBJ1T02476201802                D89828070300PT4B20180131000030SPEAKER ASM                   M IMCTM S7TS02 TNTH  07070IMCT  S7 PTB  00015                    2230 SR        000000000000 DENSO TEN (THAILAND)18001TR0013   18002TR0065   Y180200201    Y180200215    000000                                                                              *R         20180127 IMCT                IMCT                                                                                                                    RMF1801275.TXT
MDEBJ1T02477201802                D89835098010PT4B20180131000010RADIO;ASM DVD                 M IMCTM S7TS01 TNTH  07070IMCT  S7 PTB  00003                    2230 SR        000000000000 DENSO TEN (THAILAND)18001TR0013   18001TR0022   Y180200201    Y180200214    000000                                                                              *R         20180127 IMCT                IMCT                                                                                                                    RMF1801275.TXT
MDEFJ1T25491201802                D89828070100PV4F20180201000030SPEAKER ASM                   M IMCTM S7FL05 TNTH  07070IMCT  S7 PTB  00004                    0400 SR        000000000000 DENSO TEN (THAILAND)17061PR0033   17008RR0094   R180200301    R180200315    000000                                                                              *R         20180127 IMCT                IMCT                                                                                                                    RMF1801275.TXT
