REC2018012220180122ISUZU                              67     
MDDDJ1250930201801                D89821984430PT1D20180126000030RADIO;AM/FM,CD                M IMCTM S5NC06 TNTH  07070IMCT  S5 PTB  00005                    0400 SR        000000000000 DENSO TEN (THAILAND)180LRAL0111111                                                                                                                              *          20180122 IMCT                IMCT                                                                                                                    WMF1801225.TXT
MDDDJ1250931201801                D89821984430PT1D20180126000060RADIO;AM/FM,CD                M IMCTM S5NC06 TNTH  07070IMCT  S5 PTB  00005                    1300 SR        000000000000 DENSO TEN (THAILAND)180LRAL0112112180LXEL0005005                                                                                                                *          20180122 IMCT                IMCT                                                                                                                    WMF1801225.TXT
MDDDJ1250932201801                D89821984430PT1D20180126000030RADIO;AM/FM,CD                M IMCTM S5NC06 TNTH  07070IMCT  S5 PTB  00005                    2100 SR        000000000000 DENSO TEN (THAILAND)180LNCL0027027                                                                                                                              *          20180122 IMCT                IMCT                                                                                                                    WMF1801225.TXT
MDDDJ1250933201801                D89828070100PV1D20180126000060SPEAKER ASM                   M IMCTM S5MB11 TNTH  07070IMCT  S5 PTB  00004                    0400 SR        000000000000 DENSO TEN (THAILAND)180LRAL0111111                                                                                                                              *          20180122 IMCT                IMCT                                                                                                                    WMF1801225.TXT
MDDDJ1250934201801                D89828070100PV1D20180126000120SPEAKER ASM                   M IMCTM S5MB11 TNTH  07070IMCT  S5 PTB  00004                    1300 SR        000000000000 DENSO TEN (THAILAND)180LRAL0112112180LXEL0005005                                                                                                                *          20180122 IMCT                IMCT                                                                                                                    WMF1801225.TXT
MDDDJ1250935201801                D89828070100PV1D20180126000060SPEAKER ASM                   M IMCTM S5MB11 TNTH  07070IMCT  S5 PTB  00004                    1600 SR        000000000000 DENSO TEN (THAILAND)180LPJL0013013                                                                                                                              *          20180122 IMCT                IMCT                                                                                                                    WMF1801225.TXT
MDDDJ1250936201801                D89828070100PV1D20180126000060SPEAKER ASM                   M IMCTM S5MB11 TNTH  07070IMCT  S5 PTB  00004                    2100 SR        000000000000 DENSO TEN (THAILAND)180LNCL0027027                                                                                                                              *          20180122 IMCT                IMCT                                                                                                                    WMF1801225.TXT
MDDDJ1250937201801                D89828070300PT1D20180126000060SPEAKER ASM                   M IMCTM S5NB082TNTH  07070IMCT  S5 PTB  00015                    1600 SR        000000000000 DENSO TEN (THAILAND)180LPJL0013013                                                                                                                              *          20180122 IMCT                IMCT                                                                                                                    WMF1801225.TXT
MDDDJ1250938201801                D89831228300PT1D20180126000030RADIO;AM/FM,CD                M IMCTM S5NC06 TNTH  07070IMCT  S5 CPB  00003                    1600 SR        000000000000 DENSO TEN (THAILAND)180LPJL0013013                                                                                                                              *          20180122 IMCT                IMCT                                                                                                                    WMF1801225.TXT
MDDUJ1237142201801                D89828070100PT4U20180126000030SPEAKER ASM                   M IMCTM S0FL05 TNTH  07070IMCT  S0 PTB  00004                    0230 SR        000000000000 DENSO TEN (THAILAND)180LUQU0005005                                                                                                                              *          20180122 IMCT                IMCT                                                                                                                    WMF1801225.TXT
MDDUJ1237143201801                D89828070100PT4U20180126000030SPEAKER ASM                   M IMCTM S0FL05 TNTH  07070IMCT  S0 PTB  00004                    0830 SR        000000000000 DENSO TEN (THAILAND)180LUTU0007007                                                                                                                              *          20180122 IMCT                IMCT                                                                                                                    WMF1801225.TXT
MDDUJ1237144201801                D89828070100PT4U20180126000030SPEAKER ASM                   M IMCTM S0FL05 TNTH  07070IMCT  S0 PTB  00004                    1600 SR        000000000000 DENSO TEN (THAILAND)180LULU0011011                                                                                                                              *          20180122 IMCT                IMCT                                                                                                                    WMF1801225.TXT
MDDUJ1237145201801                D89828070100PT4U20180126000030SPEAKER ASM                   M IMCTM S0FL05 TNTH  07070IMCT  S0 PTB  00004                    2100 SR        000000000000 DENSO TEN (THAILAND)180LURU0013013                                                                                                                              *          20180122 IMCT                IMCT                                                                                                                    WMF1801225.TXT
MDDUJ1237146201801                D89828070200PV4U20180126000030SPEAKER ASM                   M IMCTM S0FR05 TNTH  07070IMCT  S0 PTB  00005                    0230 SR        000000000000 DENSO TEN (THAILAND)180LUQU0005005                                                                                                                              *          20180122 IMCT                IMCT                                                                                                                    WMF1801225.TXT
MDDUJ1237147201801                D89828070200PV4U20180126000030SPEAKER ASM                   M IMCTM S0FR05 TNTH  07070IMCT  S0 PTB  00005                    0830 SR        000000000000 DENSO TEN (THAILAND)180LUTU0007007                                                                                                                              *          20180122 IMCT                IMCT                                                                                                                    WMF1801225.TXT
MDDUJ1237148201801                D89828070200PV4U20180126000030SPEAKER ASM                   M IMCTM S0FR05 TNTH  07070IMCT  S0 PTB  00005                    1600 SR        000000000000 DENSO TEN (THAILAND)180LULU0011011                                                                                                                              *          20180122 IMCT                IMCT                                                                                                                    WMF1801225.TXT
MDDUJ1237149201801                D89828070200PV4U20180126000030SPEAKER ASM                   M IMCTM S0FR05 TNTH  07070IMCT  S0 PTB  00005                    2100 SR        000000000000 DENSO TEN (THAILAND)180LURU0013013                                                                                                                              *          20180122 IMCT                IMCT                                                                                                                    WMF1801225.TXT
MDDUJ1237150201801                D89828070300PT4U20180126000030SPEAKER ASM                   M IMCTM S9TS02 TNTH  07070IMCT  S9 PTB  00015                    0230 SR        000000000000 DENSO TEN (THAILAND)180LUQU0005005                                                                                                                              *          20180122 IMCT                IMCT                                                                                                                    WMF1801225.TXT
MDDUJ1237151201801                D89828070300PT4U20180126000030SPEAKER ASM                   M IMCTM S9TS02 TNTH  07070IMCT  S9 PTB  00015                    0830 SR        000000000000 DENSO TEN (THAILAND)180LUTU0007007                                                                                                                              *          20180122 IMCT                IMCT                                                                                                                    WMF1801225.TXT
MDDUJ1237152201801                D89828070300PT4U20180126000030SPEAKER ASM                   M IMCTM S9TS02 TNTH  07070IMCT  S9 PTB  00015                    1600 SR        000000000000 DENSO TEN (THAILAND)180LULU0011011                                                                                                                              *          20180122 IMCT                IMCT                                                                                                                    WMF1801225.TXT
MDDUJ1237153201801                D89828070300PT4U20180126000030SPEAKER ASM                   M IMCTM S9TS02 TNTH  07070IMCT  S9 PTB  00015                    2100 SR        000000000000 DENSO TEN (THAILAND)180LURU0013013                                                                                                                              *          20180122 IMCT                IMCT                                                                                                                    WMF1801225.TXT
MDDUJ1237154201801                D89848584200PT4U20180126000015RADIO;AM/FM CD D              M IMCTM S9CO001TNTH  07070IMCT  S9 PTB  00003                    0230 SR        000000000000 DENSO TEN (THAILAND)180LUQU0005005                                                                                                                              *          20180122 IMCT                IMCT                                                                                                                    WMF1801225.TXT
MDEDJ1299740201801                D89828070100PV1D20180125000060SPEAKER ASM                   M IMCTM S5MB11 TNTH  07070IMCT  S5 PTB  00004                    2230 SR        000000000000 DENSO TEN (THAILAND)17075PL0085086                                                                                                                              *          20180122 IMCT                IMCT                                                                                                                    WMF1801225.TXT
MDEDJ1299741201801                D89828070100PV1D20180126000090SPEAKER ASM                   M IMCTM S5MB11 TNTH  07070IMCT  S5 PTB  00004                    0230 SR        000000000000 DENSO TEN (THAILAND)17033QL003303417054PL0055055                                                                                                                *          20180122 IMCT                IMCT                                                                                                                    WMF1801225.TXT
MDEDJ1299742201801                D89828070100PV1D20180126000030SPEAKER ASM                   M IMCTM S5MB11 TNTH  07070IMCT  S5 PTB  00004                    0400 SR        000000000000 DENSO TEN (THAILAND)17054PL0056056                                                                                                                              *          20180122 IMCT                IMCT                                                                                                                    WMF1801225.TXT
MDEDJ1299743201801                D89828070100PV1D20180126000090SPEAKER ASM                   M IMCTM S5MB11 TNTH  07070IMCT  S5 PTB  00004                    0830 SR        000000000000 DENSO TEN (THAILAND)17051NL001701717057PL0004005                                                                                                                *          20180122 IMCT                IMCT                                                                                                                    WMF1801225.TXT
MDEDJ1299744201801                D89828070100PV1D20180126000030SPEAKER ASM                   M IMCTM S5MB11 TNTH  07070IMCT  S5 PTB  00004                    1030 SR        000000000000 DENSO TEN (THAILAND)17051NL0018018                                                                                                                              *          20180122 IMCT                IMCT                                                                                                                    WMF1801225.TXT
MDEDJ1299745201801                D89828070100PV1D20180126000030SPEAKER ASM                   M IMCTM S5MB11 TNTH  07070IMCT  S5 PTB  00004                    1300 SR        000000000000 DENSO TEN (THAILAND)18010ZL0032032                                                                                                                              *          20180122 IMCT                IMCT                                                                                                                    WMF1801225.TXT
MDEDJ1299746201801                D89828070100PV1D20180126000060SPEAKER ASM                   M IMCTM S5MB11 TNTH  07070IMCT  S5 PTB  00004                    1600 SR        000000000000 DENSO TEN (THAILAND)18007ZL007107118010ZL0033033                                                                                                                *          20180122 IMCT                IMCT                                                                                                                    WMF1801225.TXT
MDEDJ1299747201801                D89828070100PV1D20180126000030SPEAKER ASM                   M IMCTM S5MB11 TNTH  07070IMCT  S5 PTB  00004                    2100 SR        000000000000 DENSO TEN (THAILAND)18007ZL0072072                                                                                                                              *          20180122 IMCT                IMCT                                                                                                                    WMF1801225.TXT
MDEDJ1299748201801                D89828070100PV4D20180126000030SPEAKER ASM                   M IMCTM S0FL05 TNTH  07070IMCT  S0 PTB  00004                    0400 SR        000000000000 DENSO TEN (THAILAND)17074NU0045045                                                                                                                              *          20180122 IMCT                IMCT                                                                                                                    WMF1801225.TXT
MDEDJ1299749201801                D89828070100PV4D20180126000030SPEAKER ASM                   M IMCTM S0FL05 TNTH  07070IMCT  S0 PTB  00004                    1030 SR        000000000000 DENSO TEN (THAILAND)17050RU0015015                                                                                                                              *          20180122 IMCT                IMCT                                                                                                                    WMF1801225.TXT
MDEDJ1299750201801                D89828070100PV4D20180126000030SPEAKER ASM                   M IMCTM S0FL05 TNTH  07070IMCT  S0 PTB  00004                    1600 SR        000000000000 DENSO TEN (THAILAND)17067WU0005005                                                                                                                              *          20180122 IMCT                IMCT                                                                                                                    WMF1801225.TXT
MDEDJ1299751201801                D89828070200PV1D20180126000060SPEAKER ASM                   M IMCTM S5MA14 TNTH  07070IMCT  S5 PTB  00005                    0230 SR        000000000000 DENSO TEN (THAILAND)17033QL0033034                                                                                                                              *          20180122 IMCT                IMCT                                                                                                                    WMF1801225.TXT
MDEDJ1299752201801                D89828070200PV4D20180126000030SPEAKER ASM                   M IMCTM S0FR05 TNTH  07070IMCT  S0 PTB  00005                    0400 SR        000000000000 DENSO TEN (THAILAND)17074NU0045045                                                                                                                              *          20180122 IMCT                IMCT                                                                                                                    WMF1801225.TXT
MDEDJ1299753201801                D89828070200PV4D20180126000030SPEAKER ASM                   M IMCTM S0FR05 TNTH  07070IMCT  S0 PTB  00005                    1030 SR        000000000000 DENSO TEN (THAILAND)17050RU0015015                                                                                                                              *          20180122 IMCT                IMCT                                                                                                                    WMF1801225.TXT
MDEDJ1299754201801                D89828070200PV4D20180126000030SPEAKER ASM                   M IMCTM S0FR05 TNTH  07070IMCT  S0 PTB  00005                    1600 SR        000000000000 DENSO TEN (THAILAND)17067WU0005005                                                                                                                              *          20180122 IMCT                IMCT                                                                                                                    WMF1801225.TXT
MDEDJ1299755201801                D89828070300PT1D20180126000060SPEAKER ASM                   M IMCTM S5NB082TNTH  07070IMCT  S5 PTB  00015                    0230 SR        000000000000 DENSO TEN (THAILAND)17033QL0033034                                                                                                                              *          20180122 IMCT                IMCT                                                                                                                    WMF1801225.TXT
MDEDJ1299756201801                D89828070300PT1D20180126000030SPEAKER ASM                   M IMCTM S5NB082TNTH  07070IMCT  S5 PTB  00015                    0830 SR        000000000000 DENSO TEN (THAILAND)17051NL0017017                                                                                                                              *          20180122 IMCT                IMCT                                                                                                                    WMF1801225.TXT
MDEDJ1299757201801                D89828070300PT1D20180126000030SPEAKER ASM                   M IMCTM S5NB082TNTH  07070IMCT  S5 PTB  00015                    1030 SR        000000000000 DENSO TEN (THAILAND)17051NL0018018                                                                                                                              *          20180122 IMCT                IMCT                                                                                                                    WMF1801225.TXT
MDEDJ1299758201801                D89828070300PT4D20180126000030SPEAKER ASM                   M IMCTM S9TS02 TNTH  07070IMCT  S9 PTB  00015                    0400 SR        000000000000 DENSO TEN (THAILAND)17074NU0045045                                                                                                                              *          20180122 IMCT                IMCT                                                                                                                    WMF1801225.TXT
MDEDJ1299759201801                D89828070300PT4D20180126000030SPEAKER ASM                   M IMCTM S9TS02 TNTH  07070IMCT  S9 PTB  00015                    1030 SR        000000000000 DENSO TEN (THAILAND)17050RU0015015                                                                                                                              *          20180122 IMCT                IMCT                                                                                                                    WMF1801225.TXT
MDEDJ1299760201801                D89828070300PT4D20180126000030SPEAKER ASM                   M IMCTM S9TS02 TNTH  07070IMCT  S9 PTB  00015                    1600 SR        000000000000 DENSO TEN (THAILAND)17067WU0005005                                                                                                                              *          20180122 IMCT                IMCT                                                                                                                    WMF1801225.TXT
MDEDJ1299761201801                D89829645410PT4D20180126000015RADIO;ASM DVD                 M IMCTM S9CO001TNTH  07070IMCT  S9 PTB  00003                    1030 SR        000000000000 DENSO TEN (THAILAND)17050RU0015015                                                                                                                              *          20180122 IMCT                IMCT                                                                                                                    WMF1801225.TXT
MDEDJ1299762201801                D89831229200PT1D20180126000030RADIO;AM/FM,CD                M IMCTM S5NC06 TNTH  07070IMCT  S5 PTB  00003                    0230 SR        000000000000 DENSO TEN (THAILAND)17033QL0033034                                                                                                                              *          20180122 IMCT                IMCT                                                                                                                    WMF1801225.TXT
MDEDJ1299763201801                D89848581800PT4D20180126000015RADIO;AM/FM CD D              M IMCTM S9CO001TNTH  07070IMCT  S9 PTB  00003                    0400 SR        000000000000 DENSO TEN (THAILAND)17074NU0045045                                                                                                                              *          20180122 IMCT                IMCT                                                                                                                    WMF1801225.TXT
MDEUJ1270328201801                D89828070100PT4U20180125000030SPEAKER ASM                   M IMCTM S0FL05 TNTH  07070IMCT  S0 PTB  00004                    2230 SR        000000000000 DENSO TEN (THAILAND)18026UU0135135                                                                                                                              *          20180122 IMCT                IMCT                                                                                                                    WMF1801225.TXT
MDEUJ1270329201801                D89828070100PT4U20180126000030SPEAKER ASM                   M IMCTM S0FL05 TNTH  07070IMCT  S0 PTB  00004                    0230 SR        000000000000 DENSO TEN (THAILAND)18026UU0136136                                                                                                                              *          20180122 IMCT                IMCT                                                                                                                    WMF1801225.TXT
MDEUJ1270330201801                D89828070100PT4U20180126000030SPEAKER ASM                   M IMCTM S0FL05 TNTH  07070IMCT  S0 PTB  00004                    0830 SR        000000000000 DENSO TEN (THAILAND)18026UU0137137                                                                                                                              *          20180122 IMCT                IMCT                                                                                                                    WMF1801225.TXT
MDEUJ1270331201801                D89828070100PT4U20180126000030SPEAKER ASM                   M IMCTM S0FL05 TNTH  07070IMCT  S0 PTB  00004                    1030 SR        000000000000 DENSO TEN (THAILAND)18026UU0138138                                                                                                                              *          20180122 IMCT                IMCT                                                                                                                    WMF1801225.TXT
MDEUJ1270332201801                D89828070100PT4U20180126000030SPEAKER ASM                   M IMCTM S0FL05 TNTH  07070IMCT  S0 PTB  00004                    1300 SR        000000000000 DENSO TEN (THAILAND)18026UU0139139                                                                                                                              *          20180122 IMCT                IMCT                                                                                                                    WMF1801225.TXT
MDEUJ1270333201801                D89828070100PT4U20180126000030SPEAKER ASM                   M IMCTM S0FL05 TNTH  07070IMCT  S0 PTB  00004                    1600 SR        000000000000 DENSO TEN (THAILAND)18026UU0140140                                                                                                                              *          20180122 IMCT                IMCT                                                                                                                    WMF1801225.TXT
MDEUJ1270334201801                D89828070100PT4U20180126000030SPEAKER ASM                   M IMCTM S0FL05 TNTH  07070IMCT  S0 PTB  00004                    2100 SR        000000000000 DENSO TEN (THAILAND)18022TU0124124                                                                                                                              *          20180122 IMCT                IMCT                                                                                                                    WMF1801225.TXT
MDEUJ1270335201801                D89828070200PV4U20180125000030SPEAKER ASM                   M IMCTM S0FR05 TNTH  07070IMCT  S0 PTB  00005                    2230 SR        000000000000 DENSO TEN (THAILAND)18026UU0135135                                                                                                                              *          20180122 IMCT                IMCT                                                                                                                    WMF1801225.TXT
MDEUJ1270336201801                D89828070200PV4U20180126000030SPEAKER ASM                   M IMCTM S0FR05 TNTH  07070IMCT  S0 PTB  00005                    0230 SR        000000000000 DENSO TEN (THAILAND)18026UU0136136                                                                                                                              *          20180122 IMCT                IMCT                                                                                                                    WMF1801225.TXT
MDEUJ1270337201801                D89828070200PV4U20180126000030SPEAKER ASM                   M IMCTM S0FR05 TNTH  07070IMCT  S0 PTB  00005                    0830 SR        000000000000 DENSO TEN (THAILAND)18026UU0137137                                                                                                                              *          20180122 IMCT                IMCT                                                                                                                    WMF1801225.TXT
MDEUJ1270338201801                D89828070200PV4U20180126000030SPEAKER ASM                   M IMCTM S0FR05 TNTH  07070IMCT  S0 PTB  00005                    1030 SR        000000000000 DENSO TEN (THAILAND)18026UU0138138                                                                                                                              *          20180122 IMCT                IMCT                                                                                                                    WMF1801225.TXT
MDEUJ1270339201801                D89828070200PV4U20180126000030SPEAKER ASM                   M IMCTM S0FR05 TNTH  07070IMCT  S0 PTB  00005                    1300 SR        000000000000 DENSO TEN (THAILAND)18026UU0139139                                                                                                                              *          20180122 IMCT                IMCT                                                                                                                    WMF1801225.TXT
MDEUJ1270340201801                D89828070200PV4U20180126000030SPEAKER ASM                   M IMCTM S0FR05 TNTH  07070IMCT  S0 PTB  00005                    1600 SR        000000000000 DENSO TEN (THAILAND)18026UU0140140                                                                                                                              *          20180122 IMCT                IMCT                                                                                                                    WMF1801225.TXT
MDEUJ1270341201801                D89828070200PV4U20180126000030SPEAKER ASM                   M IMCTM S0FR05 TNTH  07070IMCT  S0 PTB  00005                    2100 SR        000000000000 DENSO TEN (THAILAND)18022TU0124124                                                                                                                              *          20180122 IMCT                IMCT                                                                                                                    WMF1801225.TXT
MDEUJ1270342201801                D89828070300PT4U20180125000030SPEAKER ASM                   M IMCTM S9TS02 TNTH  07070IMCT  S9 PTB  00015                    2230 SR        000000000000 DENSO TEN (THAILAND)18026UU0135135                                                                                                                              *          20180122 IMCT                IMCT                                                                                                                    WMF1801225.TXT
MDEUJ1270343201801                D89828070300PT4U20180126000030SPEAKER ASM                   M IMCTM S9TS02 TNTH  07070IMCT  S9 PTB  00015                    0230 SR        000000000000 DENSO TEN (THAILAND)18026UU0136136                                                                                                                              *          20180122 IMCT                IMCT                                                                                                                    WMF1801225.TXT
MDEUJ1270344201801                D89828070300PT4U20180126000030SPEAKER ASM                   M IMCTM S9TS02 TNTH  07070IMCT  S9 PTB  00015                    0830 SR        000000000000 DENSO TEN (THAILAND)18026UU0137137                                                                                                                              *          20180122 IMCT                IMCT                                                                                                                    WMF1801225.TXT
MDEUJ1270345201801                D89828070300PT4U20180126000030SPEAKER ASM                   M IMCTM S9TS02 TNTH  07070IMCT  S9 PTB  00015                    1030 SR        000000000000 DENSO TEN (THAILAND)18026UU0138138                                                                                                                              *          20180122 IMCT                IMCT                                                                                                                    WMF1801225.TXT
MDEUJ1270346201801                D89828070300PT4U20180126000030SPEAKER ASM                   M IMCTM S9TS02 TNTH  07070IMCT  S9 PTB  00015                    1300 SR        000000000000 DENSO TEN (THAILAND)18026UU0139139                                                                                                                              *          20180122 IMCT                IMCT                                                                                                                    WMF1801225.TXT
MDEUJ1270347201801                D89828070300PT4U20180126000030SPEAKER ASM                   M IMCTM S9TS02 TNTH  07070IMCT  S9 PTB  00015                    1600 SR        000000000000 DENSO TEN (THAILAND)18026UU0140140                                                                                                                              *          20180122 IMCT                IMCT                                                                                                                    WMF1801225.TXT
MDEUJ1270348201801                D89828070300PT4U20180126000030SPEAKER ASM                   M IMCTM S9TS02 TNTH  07070IMCT  S9 PTB  00015                    2100 SR        000000000000 DENSO TEN (THAILAND)18022TU0124124                                                                                                                              *          20180122 IMCT                IMCT                                                                                                                    WMF1801225.TXT
