REC2018012020180120ISUZU                              67     
MDDDJ1247818201801                D89821984430PT1D20180124000030RADIO;AM/FM,CD                M IMCTM S5NC06 TNTH  07070IMCT  S5 PTB  00005                    2230 SR        000000000000 DENSO TEN (THAILAND)180LXDL0001001                                                                                                                              *          20180120 IMCT                IMCT                                                                                                                    WMF1801203.TXT
MDDDJ1247819201801                D89821984430PT1D20180125000030RADIO;AM/FM,CD                M IMCTM S5NC06 TNTH  07070IMCT  S5 PTB  00005                    1300 SR        000000000000 DENSO TEN (THAILAND)180LNGL0080080                                                                                                                              *          20180120 IMCT                IMCT                                                                                                                    WMF1801203.TXT
MDDDJ1247820201801                D89821984430PT1D20180125000090RADIO;AM/FM,CD                M IMCTM S5NC06 TNTH  07070IMCT  S5 PTB  00005                    1600 SR        000000000000 DENSO TEN (THAILAND)180LPAL0071071180LPBL0006006180LRAL0110110                                                                                                  *          20180120 IMCT                IMCT                                                                                                                    WMF1801203.TXT
MDDDJ1247821201801                D89821984430PT1D20180125000030RADIO;AM/FM,CD                M IMCTM S5NC06 TNTH  07070IMCT  S5 PTB  00005                    2230 SR        000000000000 DENSO TEN (THAILAND)180LXCL0003003                                                                                                                              *          20180120 IMCT                IMCT                                                                                                                    WMF1801203.TXT
MDDDJ1247822201801                D89828070100PV1D20180124000060SPEAKER ASM                   M IMCTM S5MB11 TNTH  07070IMCT  S5 PTB  00004                    2230 SR        000000000000 DENSO TEN (THAILAND)180LXDL0001001                                                                                                                              *          20180120 IMCT                IMCT                                                                                                                    WMF1801203.TXT
MDDDJ1247823201801                D89828070100PV1D20180125000060SPEAKER ASM                   M IMCTM S5MB11 TNTH  07070IMCT  S5 PTB  00004                    0400 SR        000000000000 DENSO TEN (THAILAND)180LPGL0140140                                                                                                                              *          20180120 IMCT                IMCT                                                                                                                    WMF1801203.TXT
MDDDJ1247824201801                D89828070100PV1D20180125000060SPEAKER ASM                   M IMCTM S5MB11 TNTH  07070IMCT  S5 PTB  00004                    1300 SR        000000000000 DENSO TEN (THAILAND)180LNGL0080080                                                                                                                              *          20180120 IMCT                IMCT                                                                                                                    WMF1801203.TXT
MDDDJ1247825201801                D89828070100PV1D20180125000180SPEAKER ASM                   M IMCTM S5MB11 TNTH  07070IMCT  S5 PTB  00004                    1600 SR        000000000000 DENSO TEN (THAILAND)180LPAL0071071180LPBL0006006180LRAL0110110                                                                                                  *          20180120 IMCT                IMCT                                                                                                                    WMF1801203.TXT
MDDDJ1247826201801                D89828070100PV1D20180125000060SPEAKER ASM                   M IMCTM S5MB11 TNTH  07070IMCT  S5 PTB  00004                    2230 SR        000000000000 DENSO TEN (THAILAND)180LXCL0003003                                                                                                                              *          20180120 IMCT                IMCT                                                                                                                    WMF1801203.TXT
MDDDJ1247827201801                D89828070300PT1D20180125000060SPEAKER ASM                   M IMCTM S5NB082TNTH  07070IMCT  S5 PTB  00015                    0400 SR        000000000000 DENSO TEN (THAILAND)180LPGL0140140                                                                                                                              *          20180120 IMCT                IMCT                                                                                                                    WMF1801203.TXT
MDDDJ1247828201801                D89831228300PT1D20180125000030RADIO;AM/FM,CD                M IMCTM S5NC06 TNTH  07070IMCT  S5 CPB  00003                    0400 SR        000000000000 DENSO TEN (THAILAND)180LPGL0140140                                                                                                                              *          20180120 IMCT                IMCT                                                                                                                    WMF1801203.TXT
MDDUJ1234089201801                D89828070100PT4U20180125000030SPEAKER ASM                   M IMCTM S0FL05 TNTH  07070IMCT  S0 PTB  00004                    0400 SR        000000000000 DENSO TEN (THAILAND)180LULU0010010                                                                                                                              *          20180120 IMCT                IMCT                                                                                                                    WMF1801203.TXT
MDDUJ1234090201801                D89828070100PT4U20180125000030SPEAKER ASM                   M IMCTM S0FL05 TNTH  07070IMCT  S0 PTB  00004                    1030 SR        000000000000 DENSO TEN (THAILAND)180LURU0012012                                                                                                                              *          20180120 IMCT                IMCT                                                                                                                    WMF1801203.TXT
MDDUJ1234091201801                D89828070100PT4U20180125000030SPEAKER ASM                   M IMCTM S0FL05 TNTH  07070IMCT  S0 PTB  00004                    1600 SR        000000000000 DENSO TEN (THAILAND)180LUMU0006006                                                                                                                              *          20180120 IMCT                IMCT                                                                                                                    WMF1801203.TXT
MDDUJ1234092201801                D89828070100PT4U20180125000030SPEAKER ASM                   M IMCTM S0FL05 TNTH  07070IMCT  S0 PTB  00004                    2100 SR        000000000000 DENSO TEN (THAILAND)180LUSU0008008                                                                                                                              *          20180120 IMCT                IMCT                                                                                                                    WMF1801203.TXT
MDDUJ1234093201801                D89828070200PV4U20180125000030SPEAKER ASM                   M IMCTM S0FR05 TNTH  07070IMCT  S0 PTB  00005                    0400 SR        000000000000 DENSO TEN (THAILAND)180LULU0010010                                                                                                                              *          20180120 IMCT                IMCT                                                                                                                    WMF1801203.TXT
MDDUJ1234094201801                D89828070200PV4U20180125000030SPEAKER ASM                   M IMCTM S0FR05 TNTH  07070IMCT  S0 PTB  00005                    1030 SR        000000000000 DENSO TEN (THAILAND)180LURU0012012                                                                                                                              *          20180120 IMCT                IMCT                                                                                                                    WMF1801203.TXT
MDDUJ1234095201801                D89828070200PV4U20180125000030SPEAKER ASM                   M IMCTM S0FR05 TNTH  07070IMCT  S0 PTB  00005                    1600 SR        000000000000 DENSO TEN (THAILAND)180LUMU0006006                                                                                                                              *          20180120 IMCT                IMCT                                                                                                                    WMF1801203.TXT
MDDUJ1234096201801                D89828070200PV4U20180125000030SPEAKER ASM                   M IMCTM S0FR05 TNTH  07070IMCT  S0 PTB  00005                    2100 SR        000000000000 DENSO TEN (THAILAND)180LUSU0008008                                                                                                                              *          20180120 IMCT                IMCT                                                                                                                    WMF1801203.TXT
MDDUJ1234097201801                D89828070300PT4U20180125000030SPEAKER ASM                   M IMCTM S9TS02 TNTH  07070IMCT  S9 PTB  00015                    0400 SR        000000000000 DENSO TEN (THAILAND)180LULU0010010                                                                                                                              *          20180120 IMCT                IMCT                                                                                                                    WMF1801203.TXT
MDDUJ1234098201801                D89828070300PT4U20180125000030SPEAKER ASM                   M IMCTM S9TS02 TNTH  07070IMCT  S9 PTB  00015                    1030 SR        000000000000 DENSO TEN (THAILAND)180LURU0012012                                                                                                                              *          20180120 IMCT                IMCT                                                                                                                    WMF1801203.TXT
MDDUJ1234099201801                D89828070300PT4U20180125000030SPEAKER ASM                   M IMCTM S9TS02 TNTH  07070IMCT  S9 PTB  00015                    1600 SR        000000000000 DENSO TEN (THAILAND)180LUMU0006006                                                                                                                              *          20180120 IMCT                IMCT                                                                                                                    WMF1801203.TXT
MDDUJ1234100201801                D89828070300PT4U20180125000030SPEAKER ASM                   M IMCTM S9TS02 TNTH  07070IMCT  S9 PTB  00015                    2100 SR        000000000000 DENSO TEN (THAILAND)180LUSU0008008                                                                                                                              *          20180120 IMCT                IMCT                                                                                                                    WMF1801203.TXT
MDEDJ1291904201801                D89828070100PV1D20180124000060SPEAKER ASM                   M IMCTM S5MB11 TNTH  07070IMCT  S5 PTB  00004                    2230 SR        000000000000 DENSO TEN (THAILAND)17061PL002302318007ZL0070070                                                                                                                *          20180120 IMCT                IMCT                                                                                                                    WMF1801203.TXT
MDEDJ1291905201801                D89828070100PV1D20180125000060SPEAKER ASM                   M IMCTM S5MB11 TNTH  07070IMCT  S5 PTB  00004                    0230 SR        000000000000 DENSO TEN (THAILAND)17033QL003203217075PL0083083                                                                                                                *          20180120 IMCT                IMCT                                                                                                                    WMF1801203.TXT
MDEDJ1291906201801                D89828070100PV1D20180125000030SPEAKER ASM                   M IMCTM S5MB11 TNTH  07070IMCT  S5 PTB  00004                    0400 SR        000000000000 DENSO TEN (THAILAND)17075PL0084084                                                                                                                              *          20180120 IMCT                IMCT                                                                                                                    WMF1801203.TXT
MDEDJ1291907201801                D89828070100PV1D20180125000090SPEAKER ASM                   M IMCTM S5MB11 TNTH  07070IMCT  S5 PTB  00004                    0830 SR        000000000000 DENSO TEN (THAILAND)17051NL001501617052RL0025025                                                                                                                *          20180120 IMCT                IMCT                                                                                                                    WMF1801203.TXT
MDEDJ1291908201801                D89828070100PV1D20180125000060SPEAKER ASM                   M IMCTM S5MB11 TNTH  07070IMCT  S5 PTB  00004                    1030 SR        000000000000 DENSO TEN (THAILAND)17028NL002502517052RL0026026                                                                                                                *          20180120 IMCT                IMCT                                                                                                                    WMF1801203.TXT
MDEDJ1291909201801                D89828070100PV1D20180125000060SPEAKER ASM                   M IMCTM S5MB11 TNTH  07070IMCT  S5 PTB  00004                    1300 SR        000000000000 DENSO TEN (THAILAND)17021QL001201217028NL0026026                                                                                                                *          20180120 IMCT                IMCT                                                                                                                    WMF1801203.TXT
MDEDJ1291910201801                D89828070100PV1D20180125000030SPEAKER ASM                   M IMCTM S5MB11 TNTH  07070IMCT  S5 PTB  00004                    1600 SR        000000000000 DENSO TEN (THAILAND)17021QL0013013                                                                                                                              *          20180120 IMCT                IMCT                                                                                                                    WMF1801203.TXT
MDEDJ1291911201801                D89828070100PV1D20180125000060SPEAKER ASM                   M IMCTM S5MB11 TNTH  07070IMCT  S5 PTB  00004                    2100 SR        000000000000 DENSO TEN (THAILAND)17006SL000300317007SL0007007                                                                                                                *          20180120 IMCT                IMCT                                                                                                                    WMF1801203.TXT
MDEDJ1291912201801                D89828070100PV4D20180125000030SPEAKER ASM                   M IMCTM S0FL05 TNTH  07070IMCT  S0 PTB  00004                    0400 SR        000000000000 DENSO TEN (THAILAND)17050RU0013013                                                                                                                              *          20180120 IMCT                IMCT                                                                                                                    WMF1801203.TXT
MDEDJ1291913201801                D89828070100PV4D20180125000030SPEAKER ASM                   M IMCTM S0FL05 TNTH  07070IMCT  S0 PTB  00004                    1300 SR        000000000000 DENSO TEN (THAILAND)17050RU0014014                                                                                                                              *          20180120 IMCT                IMCT                                                                                                                    WMF1801203.TXT
MDEDJ1291914201801                D89828070100PV4D20180125000030SPEAKER ASM                   M IMCTM S0FL05 TNTH  07070IMCT  S0 PTB  00004                    2100 SR        000000000000 DENSO TEN (THAILAND)17067WU0004004                                                                                                                              *          20180120 IMCT                IMCT                                                                                                                    WMF1801203.TXT
MDEDJ1291915201801                D89828070200PV1D20180125000030SPEAKER ASM                   M IMCTM S5MA14 TNTH  07070IMCT  S5 PTB  00005                    0230 SR        000000000000 DENSO TEN (THAILAND)17033QL0032032                                                                                                                              *          20180120 IMCT                IMCT                                                                                                                    WMF1801203.TXT
MDEDJ1291916201801                D89828070200PV1D20180125000060SPEAKER ASM                   M IMCTM S5MA14 TNTH  07070IMCT  S5 PTB  00005                    2100 SR        000000000000 DENSO TEN (THAILAND)17006SL000300317007SL0007007                                                                                                                *          20180120 IMCT                IMCT                                                                                                                    WMF1801203.TXT
MDEDJ1291917201801                D89828070200PV4D20180125000030SPEAKER ASM                   M IMCTM S0FR05 TNTH  07070IMCT  S0 PTB  00005                    0400 SR        000000000000 DENSO TEN (THAILAND)17050RU0013013                                                                                                                              *          20180120 IMCT                IMCT                                                                                                                    WMF1801203.TXT
MDEDJ1291918201801                D89828070200PV4D20180125000030SPEAKER ASM                   M IMCTM S0FR05 TNTH  07070IMCT  S0 PTB  00005                    1300 SR        000000000000 DENSO TEN (THAILAND)17050RU0014014                                                                                                                              *          20180120 IMCT                IMCT                                                                                                                    WMF1801203.TXT
MDEDJ1291919201801                D89828070200PV4D20180125000030SPEAKER ASM                   M IMCTM S0FR05 TNTH  07070IMCT  S0 PTB  00005                    2100 SR        000000000000 DENSO TEN (THAILAND)17067WU0004004                                                                                                                              *          20180120 IMCT                IMCT                                                                                                                    WMF1801203.TXT
MDEDJ1291920201801                D89828070300PT1D20180125000030SPEAKER ASM                   M IMCTM S5NB082TNTH  07070IMCT  S5 PTB  00015                    0230 SR        000000000000 DENSO TEN (THAILAND)17033QL0032032                                                                                                                              *          20180120 IMCT                IMCT                                                                                                                    WMF1801203.TXT
MDEDJ1291921201801                D89828070300PT1D20180125000060SPEAKER ASM                   M IMCTM S5NB082TNTH  07070IMCT  S5 PTB  00015                    0830 SR        000000000000 DENSO TEN (THAILAND)17051NL0015016                                                                                                                              *          20180120 IMCT                IMCT                                                                                                                    WMF1801203.TXT
MDEDJ1291922201801                D89828070300PT1D20180125000060SPEAKER ASM                   M IMCTM S5NB082TNTH  07070IMCT  S5 PTB  00015                    2100 SR        000000000000 DENSO TEN (THAILAND)17006SL000300317007SL0007007                                                                                                                *          20180120 IMCT                IMCT                                                                                                                    WMF1801203.TXT
MDEDJ1291923201801                D89828070300PT4D20180125000030SPEAKER ASM                   M IMCTM S9TS02 TNTH  07070IMCT  S9 PTB  00015                    0400 SR        000000000000 DENSO TEN (THAILAND)17050RU0013013                                                                                                                              *          20180120 IMCT                IMCT                                                                                                                    WMF1801203.TXT
MDEDJ1291924201801                D89828070300PT4D20180125000030SPEAKER ASM                   M IMCTM S9TS02 TNTH  07070IMCT  S9 PTB  00015                    1300 SR        000000000000 DENSO TEN (THAILAND)17050RU0014014                                                                                                                              *          20180120 IMCT                IMCT                                                                                                                    WMF1801203.TXT
MDEDJ1291925201801                D89828070300PT4D20180125000030SPEAKER ASM                   M IMCTM S9TS02 TNTH  07070IMCT  S9 PTB  00015                    2100 SR        000000000000 DENSO TEN (THAILAND)17067WU0004004                                                                                                                              *          20180120 IMCT                IMCT                                                                                                                    WMF1801203.TXT
MDEDJ1291926201801                D89829645410PT4D20180125000015RADIO;ASM DVD                 M IMCTM S9CO001TNTH  07070IMCT  S9 PTB  00003                    0400 SR        000000000000 DENSO TEN (THAILAND)17050RU0013013                                                                                                                              *          20180120 IMCT                IMCT                                                                                                                    WMF1801203.TXT
MDEDJ1291927201801                D89829645410PT4D20180125000015RADIO;ASM DVD                 M IMCTM S9CO001TNTH  07070IMCT  S9 PTB  00003                    1300 SR        000000000000 DENSO TEN (THAILAND)17050RU0014014                                                                                                                              *          20180120 IMCT                IMCT                                                                                                                    WMF1801203.TXT
MDEDJ1291928201801                D89831229200PT1D20180125000015RADIO;AM/FM,CD                M IMCTM S5NC06 TNTH  07070IMCT  S5 PTB  00003                    0230 SR        000000000000 DENSO TEN (THAILAND)17033QL0032032                                                                                                                              *          20180120 IMCT                IMCT                                                                                                                    WMF1801203.TXT
MDEDJ1291929201801                D89831229200PT1D20180125000030RADIO;AM/FM,CD                M IMCTM S5NC06 TNTH  07070IMCT  S5 PTB  00003                    2100 SR        000000000000 DENSO TEN (THAILAND)17006SL000300317007SL0007007                                                                                                                *          20180120 IMCT                IMCT                                                                                                                    WMF1801203.TXT
MDEUJ1265612201801                D89828070100PT4U20180124000030SPEAKER ASM                   M IMCTM S0FL05 TNTH  07070IMCT  S0 PTB  00004                    2230 SR        000000000000 DENSO TEN (THAILAND)18022TU0123123                                                                                                                              *          20180120 IMCT                IMCT                                                                                                                    WMF1801203.TXT
MDEUJ1265613201801                D89828070100PT4U20180125000030SPEAKER ASM                   M IMCTM S0FL05 TNTH  07070IMCT  S0 PTB  00004                    0230 SR        000000000000 DENSO TEN (THAILAND)18026UU0130130                                                                                                                              *          20180120 IMCT                IMCT                                                                                                                    WMF1801203.TXT
MDEUJ1265614201801                D89828070100PT4U20180125000030SPEAKER ASM                   M IMCTM S0FL05 TNTH  07070IMCT  S0 PTB  00004                    0830 SR        000000000000 DENSO TEN (THAILAND)18026UU0131131                                                                                                                              *          20180120 IMCT                IMCT                                                                                                                    WMF1801203.TXT
MDEUJ1265615201801                D89828070100PT4U20180125000030SPEAKER ASM                   M IMCTM S0FL05 TNTH  07070IMCT  S0 PTB  00004                    1030 SR        000000000000 DENSO TEN (THAILAND)18026UU0132132                                                                                                                              *          20180120 IMCT                IMCT                                                                                                                    WMF1801203.TXT
MDEUJ1265616201801                D89828070100PT4U20180125000030SPEAKER ASM                   M IMCTM S0FL05 TNTH  07070IMCT  S0 PTB  00004                    1300 SR        000000000000 DENSO TEN (THAILAND)18023TU0240240                                                                                                                              *          20180120 IMCT                IMCT                                                                                                                    WMF1801203.TXT
MDEUJ1265617201801                D89828070100PT4U20180125000060SPEAKER ASM                   M IMCTM S0FL05 TNTH  07070IMCT  S0 PTB  00004                    1600 SR        000000000000 DENSO TEN (THAILAND)18026UU0133134                                                                                                                              *          20180120 IMCT                IMCT                                                                                                                    WMF1801203.TXT
MDEUJ1265618201801                D89828070200PV4U20180124000030SPEAKER ASM                   M IMCTM S0FR05 TNTH  07070IMCT  S0 PTB  00005                    2230 SR        000000000000 DENSO TEN (THAILAND)18022TU0123123                                                                                                                              *          20180120 IMCT                IMCT                                                                                                                    WMF1801203.TXT
MDEUJ1265619201801                D89828070200PV4U20180125000030SPEAKER ASM                   M IMCTM S0FR05 TNTH  07070IMCT  S0 PTB  00005                    0230 SR        000000000000 DENSO TEN (THAILAND)18026UU0130130                                                                                                                              *          20180120 IMCT                IMCT                                                                                                                    WMF1801203.TXT
MDEUJ1265620201801                D89828070200PV4U20180125000030SPEAKER ASM                   M IMCTM S0FR05 TNTH  07070IMCT  S0 PTB  00005                    0830 SR        000000000000 DENSO TEN (THAILAND)18026UU0131131                                                                                                                              *          20180120 IMCT                IMCT                                                                                                                    WMF1801203.TXT
MDEUJ1265621201801                D89828070200PV4U20180125000030SPEAKER ASM                   M IMCTM S0FR05 TNTH  07070IMCT  S0 PTB  00005                    1030 SR        000000000000 DENSO TEN (THAILAND)18026UU0132132                                                                                                                              *          20180120 IMCT                IMCT                                                                                                                    WMF1801203.TXT
MDEUJ1265622201801                D89828070200PV4U20180125000030SPEAKER ASM                   M IMCTM S0FR05 TNTH  07070IMCT  S0 PTB  00005                    1300 SR        000000000000 DENSO TEN (THAILAND)18023TU0240240                                                                                                                              *          20180120 IMCT                IMCT                                                                                                                    WMF1801203.TXT
MDEUJ1265623201801                D89828070200PV4U20180125000060SPEAKER ASM                   M IMCTM S0FR05 TNTH  07070IMCT  S0 PTB  00005                    1600 SR        000000000000 DENSO TEN (THAILAND)18026UU0133134                                                                                                                              *          20180120 IMCT                IMCT                                                                                                                    WMF1801203.TXT
MDEUJ1265624201801                D89828070300PT4U20180124000030SPEAKER ASM                   M IMCTM S9TS02 TNTH  07070IMCT  S9 PTB  00015                    2230 SR        000000000000 DENSO TEN (THAILAND)18022TU0123123                                                                                                                              *          20180120 IMCT                IMCT                                                                                                                    WMF1801203.TXT
MDEUJ1265625201801                D89828070300PT4U20180125000030SPEAKER ASM                   M IMCTM S9TS02 TNTH  07070IMCT  S9 PTB  00015                    0230 SR        000000000000 DENSO TEN (THAILAND)18026UU0130130                                                                                                                              *          20180120 IMCT                IMCT                                                                                                                    WMF1801203.TXT
MDEUJ1265626201801                D89828070300PT4U20180125000030SPEAKER ASM                   M IMCTM S9TS02 TNTH  07070IMCT  S9 PTB  00015                    0830 SR        000000000000 DENSO TEN (THAILAND)18026UU0131131                                                                                                                              *          20180120 IMCT                IMCT                                                                                                                    WMF1801203.TXT
MDEUJ1265627201801                D89828070300PT4U20180125000030SPEAKER ASM                   M IMCTM S9TS02 TNTH  07070IMCT  S9 PTB  00015                    1030 SR        000000000000 DENSO TEN (THAILAND)18026UU0132132                                                                                                                              *          20180120 IMCT                IMCT                                                                                                                    WMF1801203.TXT
MDEUJ1265628201801                D89828070300PT4U20180125000030SPEAKER ASM                   M IMCTM S9TS02 TNTH  07070IMCT  S9 PTB  00015                    1300 SR        000000000000 DENSO TEN (THAILAND)18023TU0240240                                                                                                                              *          20180120 IMCT                IMCT                                                                                                                    WMF1801203.TXT
MDEUJ1265629201801                D89828070300PT4U20180125000060SPEAKER ASM                   M IMCTM S9TS02 TNTH  07070IMCT  S9 PTB  00015                    1600 SR        000000000000 DENSO TEN (THAILAND)18026UU0133134                                                                                                                              *          20180120 IMCT                IMCT                                                                                                                    WMF1801203.TXT
