REC2018011020180110ISUZU                              60     
MDDDJ1216480201801                D89821984430PT1D20180114000030RADIO;AM/FM,CD                M IMCTM S5NC06 TNTH  07070IMCT  S5 PTB  00005                    0400 SR        000000000000 DENSO TEN (THAILAND)180LNGL0071071                                                                                                                              *          20180110 IMCT                IMCT                                                                                                                    WMF1801105.TXT
MDDDJ1216481201801                D89821984430PT1D20180115000030RADIO;AM/FM,CD                M IMCTM S5NC06 TNTH  07070IMCT  S5 PTB  00005                    1030 SR        000000000000 DENSO TEN (THAILAND)180LRAL0105105                                                                                                                              *          20180110 IMCT                IMCT                                                                                                                    WMF1801105.TXT
MDDDJ1216482201801                D89821984430PT1D20180115000030RADIO;AM/FM,CD                M IMCTM S5NC06 TNTH  07070IMCT  S5 PTB  00005                    1300 SR        000000000000 DENSO TEN (THAILAND)180LNEL0049049                                                                                                                              *          20180110 IMCT                IMCT                                                                                                                    WMF1801105.TXT
MDDDJ1216483201801                D89828070100PV1D20180114000060SPEAKER ASM                   M IMCTM S5MB11 TNTH  07070IMCT  S5 PTB  00004                    0400 SR        000000000000 DENSO TEN (THAILAND)180LNGL0071071                                                                                                                              *          20180110 IMCT                IMCT                                                                                                                    WMF1801105.TXT
MDDDJ1216484201801                D89828070100PV1D20180115000060SPEAKER ASM                   M IMCTM S5MB11 TNTH  07070IMCT  S5 PTB  00004                    1030 SR        000000000000 DENSO TEN (THAILAND)180LRAL0105105                                                                                                                              *          20180110 IMCT                IMCT                                                                                                                    WMF1801105.TXT
MDDDJ1216485201801                D89828070100PV1D20180115000060SPEAKER ASM                   M IMCTM S5MB11 TNTH  07070IMCT  S5 PTB  00004                    1300 SR        000000000000 DENSO TEN (THAILAND)180LNEL0049049                                                                                                                              *          20180110 IMCT                IMCT                                                                                                                    WMF1801105.TXT
MDDDJ1216486201801                D89828070100PV1D20180115000060SPEAKER ASM                   M IMCTM S5MB11 TNTH  07070IMCT  S5 PTB  00004                    1600 SR        000000000000 DENSO TEN (THAILAND)180LPGL0135135                                                                                                                              *          20180110 IMCT                IMCT                                                                                                                    WMF1801105.TXT
MDDDJ1216487201801                D89828070300PT1D20180115000060SPEAKER ASM                   M IMCTM S5NB082TNTH  07070IMCT  S5 PTB  00015                    1600 SR        000000000000 DENSO TEN (THAILAND)180LPGL0135135                                                                                                                              *          20180110 IMCT                IMCT                                                                                                                    WMF1801105.TXT
MDDDJ1216488201801                D89831228300PT1D20180115000030RADIO;AM/FM,CD                M IMCTM S5NC06 TNTH  07070IMCT  S5 CPB  00003                    1600 SR        000000000000 DENSO TEN (THAILAND)180LPGL0135135                                                                                                                              *          20180110 IMCT                IMCT                                                                                                                    WMF1801105.TXT
MDDUJ1202970201801                D89828070100PT4U20180114000030SPEAKER ASM                   M IMCTM S0FL05 TNTH  07070IMCT  S0 PTB  00004                    0230 SR        000000000000 DENSO TEN (THAILAND)180LUTU0002002                                                                                                                              *          20180110 IMCT                IMCT                                                                                                                    WMF1801105.TXT
MDDUJ1202971201801                D89828070100PT4U20180114000030SPEAKER ASM                   M IMCTM S0FL05 TNTH  07070IMCT  S0 PTB  00004                    0400 SR        000000000000 DENSO TEN (THAILAND)180LURU0001001                                                                                                                              *          20180110 IMCT                IMCT                                                                                                                    WMF1801105.TXT
MDDUJ1202972201801                D89828070100PT4U20180115000030SPEAKER ASM                   M IMCTM S0FL05 TNTH  07070IMCT  S0 PTB  00004                    1300 SR        000000000000 DENSO TEN (THAILAND)180LULU0001001                                                                                                                              *          20180110 IMCT                IMCT                                                                                                                    WMF1801105.TXT
MDDUJ1202973201801                D89828070100PT4U20180115000030SPEAKER ASM                   M IMCTM S0FL05 TNTH  07070IMCT  S0 PTB  00004                    1600 SR        000000000000 DENSO TEN (THAILAND)180LUQU0001001                                                                                                                              *          20180110 IMCT                IMCT                                                                                                                    WMF1801105.TXT
MDDUJ1202974201801                D89828070200PV4U20180114000030SPEAKER ASM                   M IMCTM S0FR05 TNTH  07070IMCT  S0 PTB  00005                    0230 SR        000000000000 DENSO TEN (THAILAND)180LUTU0002002                                                                                                                              *          20180110 IMCT                IMCT                                                                                                                    WMF1801105.TXT
MDDUJ1202975201801                D89828070200PV4U20180114000030SPEAKER ASM                   M IMCTM S0FR05 TNTH  07070IMCT  S0 PTB  00005                    0400 SR        000000000000 DENSO TEN (THAILAND)180LURU0001001                                                                                                                              *          20180110 IMCT                IMCT                                                                                                                    WMF1801105.TXT
MDDUJ1202976201801                D89828070200PV4U20180115000030SPEAKER ASM                   M IMCTM S0FR05 TNTH  07070IMCT  S0 PTB  00005                    1300 SR        000000000000 DENSO TEN (THAILAND)180LULU0001001                                                                                                                              *          20180110 IMCT                IMCT                                                                                                                    WMF1801105.TXT
MDDUJ1202977201801                D89828070200PV4U20180115000030SPEAKER ASM                   M IMCTM S0FR05 TNTH  07070IMCT  S0 PTB  00005                    1600 SR        000000000000 DENSO TEN (THAILAND)180LUQU0001001                                                                                                                              *          20180110 IMCT                IMCT                                                                                                                    WMF1801105.TXT
MDDUJ1202978201801                D89828070300PT4U20180114000030SPEAKER ASM                   M IMCTM S9TS02 TNTH  07070IMCT  S9 PTB  00015                    0230 SR        000000000000 DENSO TEN (THAILAND)180LUTU0002002                                                                                                                              *          20180110 IMCT                IMCT                                                                                                                    WMF1801105.TXT
MDDUJ1202979201801                D89828070300PT4U20180114000030SPEAKER ASM                   M IMCTM S9TS02 TNTH  07070IMCT  S9 PTB  00015                    0400 SR        000000000000 DENSO TEN (THAILAND)180LURU0001001                                                                                                                              *          20180110 IMCT                IMCT                                                                                                                    WMF1801105.TXT
MDDUJ1202980201801                D89828070300PT4U20180115000030SPEAKER ASM                   M IMCTM S9TS02 TNTH  07070IMCT  S9 PTB  00015                    1300 SR        000000000000 DENSO TEN (THAILAND)180LULU0001001                                                                                                                              *          20180110 IMCT                IMCT                                                                                                                    WMF1801105.TXT
MDDUJ1202981201801                D89828070300PT4U20180115000030SPEAKER ASM                   M IMCTM S9TS02 TNTH  07070IMCT  S9 PTB  00015                    1600 SR        000000000000 DENSO TEN (THAILAND)180LUQU0001001                                                                                                                              *          20180110 IMCT                IMCT                                                                                                                    WMF1801105.TXT
MDDUJ1202982201801                D89848584200PT4U20180115000015RADIO;AM/FM CD D              M IMCTM S9CO001TNTH  07070IMCT  S9 PTB  00003                    1600 SR        000000000000 DENSO TEN (THAILAND)180LUQU0001001                                                                                                                              *          20180110 IMCT                IMCT                                                                                                                    WMF1801105.TXT
MDEDJ1230551201801                D89828070100PV1D20180113000060SPEAKER ASM                   M IMCTM S5MB11 TNTH  07070IMCT  S5 PTB  00004                    2230 SR        000000000000 DENSO TEN (THAILAND)17054PL0045046                                                                                                                              *          20180110 IMCT                IMCT                                                                                                                    WMF1801105.TXT
MDEDJ1230552201801                D89828070100PV1D20180114000090SPEAKER ASM                   M IMCTM S5MB11 TNTH  07070IMCT  S5 PTB  00004                    0230 SR        000000000000 DENSO TEN (THAILAND)17075PL005005017079NL0114115                                                                                                                *          20180110 IMCT                IMCT                                                                                                                    WMF1801105.TXT
MDEDJ1230553201801                D89828070100PV1D20180114000030SPEAKER ASM                   M IMCTM S5MB11 TNTH  07070IMCT  S5 PTB  00004                    0400 SR        000000000000 DENSO TEN (THAILAND)17075PL0051051                                                                                                                              *          20180110 IMCT                IMCT                                                                                                                    WMF1801105.TXT
MDEDJ1230554201801                D89828070100PV1D20180115000060SPEAKER ASM                   M IMCTM S5MB11 TNTH  07070IMCT  S5 PTB  00004                    0830 SR        000000000000 DENSO TEN (THAILAND)18007ZL0055056                                                                                                                              *          20180110 IMCT                IMCT                                                                                                                    WMF1801105.TXT
MDEDJ1230555201801                D89828070100PV1D20180115000060SPEAKER ASM                   M IMCTM S5MB11 TNTH  07070IMCT  S5 PTB  00004                    1030 SR        000000000000 DENSO TEN (THAILAND)17053NL0070071                                                                                                                              *          20180110 IMCT                IMCT                                                                                                                    WMF1801105.TXT
MDEDJ1230556201801                D89828070100PV1D20180115000060SPEAKER ASM                   M IMCTM S5MB11 TNTH  07070IMCT  S5 PTB  00004                    1300 SR        000000000000 DENSO TEN (THAILAND)17028QL000200217071NL0021021                                                                                                                *          20180110 IMCT                IMCT                                                                                                                    WMF1801105.TXT
MDEDJ1230557201801                D89828070100PV1D20180115000030SPEAKER ASM                   M IMCTM S5MB11 TNTH  07070IMCT  S5 PTB  00004                    2100 SR        000000000000 DENSO TEN (THAILAND)17032QL0007007                                                                                                                              *          20180110 IMCT                IMCT                                                                                                                    WMF1801105.TXT
MDEDJ1230558201801                D89828070200PV1D20180114000060SPEAKER ASM                   M IMCTM S5MA14 TNTH  07070IMCT  S5 PTB  00005                    0230 SR        000000000000 DENSO TEN (THAILAND)17079NL0114115                                                                                                                              *          20180110 IMCT                IMCT                                                                                                                    WMF1801105.TXT
MDEDJ1230559201801                D89828070200PV1D20180115000060SPEAKER ASM                   M IMCTM S5MA14 TNTH  07070IMCT  S5 PTB  00005                    1300 SR        000000000000 DENSO TEN (THAILAND)17028QL000200217071NL0021021                                                                                                                *          20180110 IMCT                IMCT                                                                                                                    WMF1801105.TXT
MDEDJ1230560201801                D89828070200PV1D20180115000030SPEAKER ASM                   M IMCTM S5MA14 TNTH  07070IMCT  S5 PTB  00005                    2100 SR        000000000000 DENSO TEN (THAILAND)17032QL0007007                                                                                                                              *          20180110 IMCT                IMCT                                                                                                                    WMF1801105.TXT
MDEDJ1230561201801                D89828070300PT1D20180114000060SPEAKER ASM                   M IMCTM S5NB082TNTH  07070IMCT  S5 PTB  00015                    0230 SR        000000000000 DENSO TEN (THAILAND)17079NL0114115                                                                                                                              *          20180110 IMCT                IMCT                                                                                                                    WMF1801105.TXT
MDEDJ1230562201801                D89828070300PT1D20180115000060SPEAKER ASM                   M IMCTM S5NB082TNTH  07070IMCT  S5 PTB  00015                    1030 SR        000000000000 DENSO TEN (THAILAND)17053NL0070071                                                                                                                              *          20180110 IMCT                IMCT                                                                                                                    WMF1801105.TXT
MDEDJ1230563201801                D89828070300PT1D20180115000060SPEAKER ASM                   M IMCTM S5NB082TNTH  07070IMCT  S5 PTB  00015                    1300 SR        000000000000 DENSO TEN (THAILAND)17028QL000200217071NL0021021                                                                                                                *          20180110 IMCT                IMCT                                                                                                                    WMF1801105.TXT
MDEDJ1230564201801                D89828070300PT1D20180115000030SPEAKER ASM                   M IMCTM S5NB082TNTH  07070IMCT  S5 PTB  00015                    2100 SR        000000000000 DENSO TEN (THAILAND)17032QL0007007                                                                                                                              *          20180110 IMCT                IMCT                                                                                                                    WMF1801105.TXT
MDEDJ1230565201801                D89831229200PT1D20180115000015RADIO;AM/FM,CD                M IMCTM S5NC06 TNTH  07070IMCT  S5 PTB  00003                    1300 SR        000000000000 DENSO TEN (THAILAND)17028QL0002002                                                                                                                              *          20180110 IMCT                IMCT                                                                                                                    WMF1801105.TXT
MDEDJ1230566201801                D89831229200PT1D20180115000015RADIO;AM/FM,CD                M IMCTM S5NC06 TNTH  07070IMCT  S5 PTB  00003                    2100 SR        000000000000 DENSO TEN (THAILAND)17032QL0007007                                                                                                                              *          20180110 IMCT                IMCT                                                                                                                    WMF1801105.TXT
MDEDJ1230567201801                D89848581800PT1D20180114000030RADIO;AM/FM CD D              M IMCTM S5NC06 TNTH  07070IMCT  S5 PTB  00003                    0230 SR        000000000000 DENSO TEN (THAILAND)17079NL0114115                                                                                                                              *          20180110 IMCT                IMCT                                                                                                                    WMF1801105.TXT
MDEDJ1230568201801                D89848581800PT1D20180115000030RADIO;AM/FM CD D              M IMCTM S5NC06 TNTH  07070IMCT  S5 PTB  00003                    1030 SR        000000000000 DENSO TEN (THAILAND)17053NL0070071                                                                                                                              *          20180110 IMCT                IMCT                                                                                                                    WMF1801105.TXT
MDEDJ1230569201801                D89848581800PT1D20180115000015RADIO;AM/FM CD D              M IMCTM S5NC06 TNTH  07070IMCT  S5 PTB  00003                    1300 SR        000000000000 DENSO TEN (THAILAND)17071NL0021021                                                                                                                              *          20180110 IMCT                IMCT                                                                                                                    WMF1801105.TXT
MDEUJ1227661201801                D89828070100PT4U20180113000030SPEAKER ASM                   M IMCTM S0FL05 TNTH  07070IMCT  S0 PTB  00004                    2230 SR        000000000000 DENSO TEN (THAILAND)18022TU0114114                                                                                                                              *          20180110 IMCT                IMCT                                                                                                                    WMF1801105.TXT
MDEUJ1227662201801                D89828070100PT4U20180114000030SPEAKER ASM                   M IMCTM S0FL05 TNTH  07070IMCT  S0 PTB  00004                    0400 SR        000000000000 DENSO TEN (THAILAND)18026UU0105105                                                                                                                              *          20180110 IMCT                IMCT                                                                                                                    WMF1801105.TXT
MDEUJ1227663201801                D89828070100PT4U20180115000030SPEAKER ASM                   M IMCTM S0FL05 TNTH  07070IMCT  S0 PTB  00004                    1030 SR        000000000000 DENSO TEN (THAILAND)18023TU0232232                                                                                                                              *          20180110 IMCT                IMCT                                                                                                                    WMF1801105.TXT
MDEUJ1227664201801                D89828070100PT4U20180115000030SPEAKER ASM                   M IMCTM S0FL05 TNTH  07070IMCT  S0 PTB  00004                    1300 SR        000000000000 DENSO TEN (THAILAND)18017TU0046046                                                                                                                              *          20180110 IMCT                IMCT                                                                                                                    WMF1801105.TXT
MDEUJ1227665201801                D89828070100PT4U20180115000030SPEAKER ASM                   M IMCTM S0FL05 TNTH  07070IMCT  S0 PTB  00004                    2100 SR        000000000000 DENSO TEN (THAILAND)18021TU0033033                                                                                                                              *          20180110 IMCT                IMCT                                                                                                                    WMF1801105.TXT
MDEUJ1227666201801                D89828070100PT4U20180115000030SPEAKER ASM                   M IMCTM S0FL05 TNTH  07070IMCT  S0 PTB  00004                    2230 SR        000000000000 DENSO TEN (THAILAND)18026UU0106106                                                                                                                              *          20180110 IMCT                IMCT                                                                                                                    WMF1801105.TXT
MDEUJ1227667201801                D89828070200PV4U20180113000030SPEAKER ASM                   M IMCTM S0FR05 TNTH  07070IMCT  S0 PTB  00005                    2230 SR        000000000000 DENSO TEN (THAILAND)18022TU0114114                                                                                                                              *          20180110 IMCT                IMCT                                                                                                                    WMF1801105.TXT
MDEUJ1227668201801                D89828070200PV4U20180114000030SPEAKER ASM                   M IMCTM S0FR05 TNTH  07070IMCT  S0 PTB  00005                    0400 SR        000000000000 DENSO TEN (THAILAND)18026UU0105105                                                                                                                              *          20180110 IMCT                IMCT                                                                                                                    WMF1801105.TXT
MDEUJ1227669201801                D89828070200PV4U20180115000030SPEAKER ASM                   M IMCTM S0FR05 TNTH  07070IMCT  S0 PTB  00005                    1030 SR        000000000000 DENSO TEN (THAILAND)18023TU0232232                                                                                                                              *          20180110 IMCT                IMCT                                                                                                                    WMF1801105.TXT
MDEUJ1227670201801                D89828070200PV4U20180115000030SPEAKER ASM                   M IMCTM S0FR05 TNTH  07070IMCT  S0 PTB  00005                    1300 SR        000000000000 DENSO TEN (THAILAND)18017TU0046046                                                                                                                              *          20180110 IMCT                IMCT                                                                                                                    WMF1801105.TXT
MDEUJ1227671201801                D89828070200PV4U20180115000030SPEAKER ASM                   M IMCTM S0FR05 TNTH  07070IMCT  S0 PTB  00005                    2100 SR        000000000000 DENSO TEN (THAILAND)18021TU0033033                                                                                                                              *          20180110 IMCT                IMCT                                                                                                                    WMF1801105.TXT
MDEUJ1227672201801                D89828070200PV4U20180115000030SPEAKER ASM                   M IMCTM S0FR05 TNTH  07070IMCT  S0 PTB  00005                    2230 SR        000000000000 DENSO TEN (THAILAND)18026UU0106106                                                                                                                              *          20180110 IMCT                IMCT                                                                                                                    WMF1801105.TXT
MDEUJ1227673201801                D89828070300PT4U20180113000030SPEAKER ASM                   M IMCTM S9TS02 TNTH  07070IMCT  S9 PTB  00015                    2230 SR        000000000000 DENSO TEN (THAILAND)18022TU0114114                                                                                                                              *          20180110 IMCT                IMCT                                                                                                                    WMF1801105.TXT
MDEUJ1227674201801                D89828070300PT4U20180114000030SPEAKER ASM                   M IMCTM S9TS02 TNTH  07070IMCT  S9 PTB  00015                    0400 SR        000000000000 DENSO TEN (THAILAND)18026UU0105105                                                                                                                              *          20180110 IMCT                IMCT                                                                                                                    WMF1801105.TXT
MDEUJ1227675201801                D89828070300PT4U20180115000030SPEAKER ASM                   M IMCTM S9TS02 TNTH  07070IMCT  S9 PTB  00015                    1030 SR        000000000000 DENSO TEN (THAILAND)18023TU0232232                                                                                                                              *          20180110 IMCT                IMCT                                                                                                                    WMF1801105.TXT
MDEUJ1227676201801                D89828070300PT4U20180115000030SPEAKER ASM                   M IMCTM S9TS02 TNTH  07070IMCT  S9 PTB  00015                    1300 SR        000000000000 DENSO TEN (THAILAND)18017TU0046046                                                                                                                              *          20180110 IMCT                IMCT                                                                                                                    WMF1801105.TXT
MDEUJ1227677201801                D89828070300PT4U20180115000030SPEAKER ASM                   M IMCTM S9TS02 TNTH  07070IMCT  S9 PTB  00015                    2100 SR        000000000000 DENSO TEN (THAILAND)18021TU0033033                                                                                                                              *          20180110 IMCT                IMCT                                                                                                                    WMF1801105.TXT
MDEUJ1227678201801                D89828070300PT4U20180115000030SPEAKER ASM                   M IMCTM S9TS02 TNTH  07070IMCT  S9 PTB  00015                    2230 SR        000000000000 DENSO TEN (THAILAND)18026UU0106106                                                                                                                              *          20180110 IMCT                IMCT                                                                                                                    WMF1801105.TXT
MDEUJ1227679201801                D89848584700PT4U20180115000015RADIO;AM/FM CD D              M IMCTM S9CO001TNTH  07070IMCT  S9 PTB  00003                    2100 SR        000000000000 DENSO TEN (THAILAND)18021TU0033033                                                                                                                              *          20180110 IMCT                IMCT                                                                                                                    WMF1801105.TXT
