REC2018010520180105ISUZU                              50     
MDDDJ1203487201801                D89821984430PT1D20180110000030RADIO;AM/FM,CD                M IMCTM S5NC06 TNTH  07070IMCT  S5 PTB  00005                    0230 SR        000000000000 DENSO TEN (THAILAND)180LNEL0046046                                                                                                                              *          20180105 IMCT                IMCT                                                                                                                    WMF1801055.TXT
MDDDJ1203488201801                D89821984430PT1D20180110000030RADIO;AM/FM,CD                M IMCTM S5NC06 TNTH  07070IMCT  S5 PTB  00005                    0400 SR        000000000000 DENSO TEN (THAILAND)180LPAL0064064                                                                                                                              *          20180105 IMCT                IMCT                                                                                                                    WMF1801055.TXT
MDDDJ1203489201801                D89821984430PT1D20180110000030RADIO;AM/FM,CD                M IMCTM S5NC06 TNTH  07070IMCT  S5 PTB  00005                    1600 SR        000000000000 DENSO TEN (THAILAND)180LNHL0025025                                                                                                                              *          20180105 IMCT                IMCT                                                                                                                    WMF1801055.TXT
MDDDJ1203490201801                D89821984430PT1D20180110000030RADIO;AM/FM,CD                M IMCTM S5NC06 TNTH  07070IMCT  S5 PTB  00005                    2100 SR        000000000000 DENSO TEN (THAILAND)180LRAL0101101                                                                                                                              *          20180105 IMCT                IMCT                                                                                                                    WMF1801055.TXT
MDDDJ1203491201801                D89828070100PV1D20180110000060SPEAKER ASM                   M IMCTM S5MB11 TNTH  07070IMCT  S5 PTB  00004                    0230 SR        000000000000 DENSO TEN (THAILAND)180LNEL0046046                                                                                                                              *          20180105 IMCT                IMCT                                                                                                                    WMF1801055.TXT
MDDDJ1203492201801                D89828070100PV1D20180110000060SPEAKER ASM                   M IMCTM S5MB11 TNTH  07070IMCT  S5 PTB  00004                    0400 SR        000000000000 DENSO TEN (THAILAND)180LPAL0064064                                                                                                                              *          20180105 IMCT                IMCT                                                                                                                    WMF1801055.TXT
MDDDJ1203493201801                D89828070100PV1D20180110000060SPEAKER ASM                   M IMCTM S5MB11 TNTH  07070IMCT  S5 PTB  00004                    1300 SR        000000000000 DENSO TEN (THAILAND)180LPKL0034034                                                                                                                              *          20180105 IMCT                IMCT                                                                                                                    WMF1801055.TXT
MDDDJ1203494201801                D89828070100PV1D20180110000120SPEAKER ASM                   M IMCTM S5MB11 TNTH  07070IMCT  S5 PTB  00004                    1600 SR        000000000000 DENSO TEN (THAILAND)180LNHL0025025180LPGL0133133                                                                                                                *          20180105 IMCT                IMCT                                                                                                                    WMF1801055.TXT
MDDDJ1203495201801                D89828070100PV1D20180110000060SPEAKER ASM                   M IMCTM S5MB11 TNTH  07070IMCT  S5 PTB  00004                    2100 SR        000000000000 DENSO TEN (THAILAND)180LRAL0101101                                                                                                                              *          20180105 IMCT                IMCT                                                                                                                    WMF1801055.TXT
MDDDJ1203496201801                D89828070100PV4D20180109000060SPEAKER ASM                   M IMCTM S0FL05 TNTH  07070IMCT  S0 PTB  00004                    2230 SR        000000000000 DENSO TEN (THAILAND)180LRSU0026026                                                                                                                              *          20180105 IMCT                IMCT                                                                                                                    WMF1801055.TXT
MDDDJ1203497201801                D89828070200PV4D20180109000060SPEAKER ASM                   M IMCTM S0FR05 TNTH  07070IMCT  S0 PTB  00005                    2230 SR        000000000000 DENSO TEN (THAILAND)180LRSU0026026                                                                                                                              *          20180105 IMCT                IMCT                                                                                                                    WMF1801055.TXT
MDDDJ1203498201801                D89828070300PT1D20180110000060SPEAKER ASM                   M IMCTM S5NB082TNTH  07070IMCT  S5 PTB  00015                    1300 SR        000000000000 DENSO TEN (THAILAND)180LPKL0034034                                                                                                                              *          20180105 IMCT                IMCT                                                                                                                    WMF1801055.TXT
MDDDJ1203499201801                D89828070300PT1D20180110000060SPEAKER ASM                   M IMCTM S5NB082TNTH  07070IMCT  S5 PTB  00015                    1600 SR        000000000000 DENSO TEN (THAILAND)180LPGL0133133                                                                                                                              *          20180105 IMCT                IMCT                                                                                                                    WMF1801055.TXT
MDDDJ1203500201801                D89828070300PT4D20180109000060SPEAKER ASM                   M IMCTM S9TS02 TNTH  07070IMCT  S9 PTB  00015                    2230 SR        000000000000 DENSO TEN (THAILAND)180LRSU0026026                                                                                                                              *          20180105 IMCT                IMCT                                                                                                                    WMF1801055.TXT
MDDDJ1203501201801                D89831228300PT1D20180110000030RADIO;AM/FM,CD                M IMCTM S5NC06 TNTH  07070IMCT  S5 CPB  00003                    1600 SR        000000000000 DENSO TEN (THAILAND)180LPGL0133133                                                                                                                              *          20180105 IMCT                IMCT                                                                                                                    WMF1801055.TXT
MDDDJ1203502201801                D89848581600PT1D20180110000030RADIO;AM/FM CD D              M IMCTM S5NC06 TNTH  07070IMCT  S5 PTB  00003                    1300 SR        000000000000 DENSO TEN (THAILAND)180LPKL0034034                                                                                                                              *          20180105 IMCT                IMCT                                                                                                                    WMF1801055.TXT
MDEDJ1204620201801                D89828070100PV1D20180109000120SPEAKER ASM                   M IMCTM S5MB11 TNTH  07070IMCT  S5 PTB  00004                    2230 SR        000000000000 DENSO TEN (THAILAND)17039NL000100117085RL001601618010ZL0028029                                                                                                  *          20180105 IMCT                IMCT                                                                                                                    WMF1801055.TXT
MDEDJ1204621201801                D89828070100PV1D20180110000060SPEAKER ASM                   M IMCTM S5MB11 TNTH  07070IMCT  S5 PTB  00004                    0400 SR        000000000000 DENSO TEN (THAILAND)17080NL0125126                                                                                                                              *          20180105 IMCT                IMCT                                                                                                                    WMF1801055.TXT
MDEDJ1204622201801                D89828070100PV1D20180110000060SPEAKER ASM                   M IMCTM S5MB11 TNTH  07070IMCT  S5 PTB  00004                    0830 SR        000000000000 DENSO TEN (THAILAND)17055NL0075076                                                                                                                              *          20180105 IMCT                IMCT                                                                                                                    WMF1801055.TXT
MDEDJ1204623201801                D89828070100PV1D20180110000060SPEAKER ASM                   M IMCTM S5MB11 TNTH  07070IMCT  S5 PTB  00004                    1030 SR        000000000000 DENSO TEN (THAILAND)18007ZL0039040                                                                                                                              *          20180105 IMCT                IMCT                                                                                                                    WMF1801055.TXT
MDEDJ1204624201801                D89828070100PV1D20180110000090SPEAKER ASM                   M IMCTM S5MB11 TNTH  07070IMCT  S5 PTB  00004                    1300 SR        000000000000 DENSO TEN (THAILAND)17046QL003203217060NL0044045                                                                                                                *          20180105 IMCT                IMCT                                                                                                                    WMF1801055.TXT
MDEDJ1204625201801                D89828070100PV1D20180110000060SPEAKER ASM                   M IMCTM S5MB11 TNTH  07070IMCT  S5 PTB  00004                    1600 SR        000000000000 DENSO TEN (THAILAND)17034PL0042043                                                                                                                              *          20180105 IMCT                IMCT                                                                                                                    WMF1801055.TXT
MDEDJ1204626201801                D89828070200PV1D20180109000030SPEAKER ASM                   M IMCTM S5MA14 TNTH  07070IMCT  S5 PTB  00005                    2230 SR        000000000000 DENSO TEN (THAILAND)17039NL0001001                                                                                                                              *          20180105 IMCT                IMCT                                                                                                                    WMF1801055.TXT
MDEDJ1204627201801                D89828070200PV1D20180110000060SPEAKER ASM                   M IMCTM S5MA14 TNTH  07070IMCT  S5 PTB  00005                    0400 SR        000000000000 DENSO TEN (THAILAND)17080NL0125126                                                                                                                              *          20180105 IMCT                IMCT                                                                                                                    WMF1801055.TXT
MDEDJ1204628201801                D89828070200PV1D20180110000090SPEAKER ASM                   M IMCTM S5MA14 TNTH  07070IMCT  S5 PTB  00005                    1300 SR        000000000000 DENSO TEN (THAILAND)17046QL003203217060NL0044045                                                                                                                *          20180105 IMCT                IMCT                                                                                                                    WMF1801055.TXT
MDEDJ1204629201801                D89828070200PV1D20180110000060SPEAKER ASM                   M IMCTM S5MA14 TNTH  07070IMCT  S5 PTB  00005                    1600 SR        000000000000 DENSO TEN (THAILAND)17034PL0042043                                                                                                                              *          20180105 IMCT                IMCT                                                                                                                    WMF1801055.TXT
MDEDJ1204630201801                D89828070300PT1D20180109000030SPEAKER ASM                   M IMCTM S5NB082TNTH  07070IMCT  S5 PTB  00015                    2230 SR        000000000000 DENSO TEN (THAILAND)17039NL0001001                                                                                                                              *          20180105 IMCT                IMCT                                                                                                                    WMF1801055.TXT
MDEDJ1204631201801                D89828070300PT1D20180110000060SPEAKER ASM                   M IMCTM S5NB082TNTH  07070IMCT  S5 PTB  00015                    0400 SR        000000000000 DENSO TEN (THAILAND)17080NL0125126                                                                                                                              *          20180105 IMCT                IMCT                                                                                                                    WMF1801055.TXT
MDEDJ1204632201801                D89828070300PT1D20180110000060SPEAKER ASM                   M IMCTM S5NB082TNTH  07070IMCT  S5 PTB  00015                    0830 SR        000000000000 DENSO TEN (THAILAND)17055NL0075076                                                                                                                              *          20180105 IMCT                IMCT                                                                                                                    WMF1801055.TXT
MDEDJ1204633201801                D89828070300PT1D20180110000090SPEAKER ASM                   M IMCTM S5NB082TNTH  07070IMCT  S5 PTB  00015                    1300 SR        000000000000 DENSO TEN (THAILAND)17046QL003203217060NL0044045                                                                                                                *          20180105 IMCT                IMCT                                                                                                                    WMF1801055.TXT
MDEDJ1204634201801                D89828070300PT1D20180110000060SPEAKER ASM                   M IMCTM S5NB082TNTH  07070IMCT  S5 PTB  00015                    1600 SR        000000000000 DENSO TEN (THAILAND)17034PL0042043                                                                                                                              *          20180105 IMCT                IMCT                                                                                                                    WMF1801055.TXT
MDEDJ1204635201801                D89848581800PT1D20180110000030RADIO;AM/FM CD D              M IMCTM S5NC06 TNTH  07070IMCT  S5 PTB  00003                    0830 SR        000000000000 DENSO TEN (THAILAND)17055NL0075076                                                                                                                              *          20180105 IMCT                IMCT                                                                                                                    WMF1801055.TXT
MDEUJ1204846201801                D89828070100PT4U20180109000030SPEAKER ASM                   M IMCTM S0FL05 TNTH  07070IMCT  S0 PTB  00004                    2230 SR        000000000000 DENSO TEN (THAILAND)18023UU0013013                                                                                                                              *          20180105 IMCT                IMCT                                                                                                                    WMF1801055.TXT
MDEUJ1204847201801                D89828070100PT4U20180110000060SPEAKER ASM                   M IMCTM S0FL05 TNTH  07070IMCT  S0 PTB  00004                    0400 SR        000000000000 DENSO TEN (THAILAND)18023TU022422418026UU0091091                                                                                                                *          20180105 IMCT                IMCT                                                                                                                    WMF1801055.TXT
MDEUJ1204848201801                D89828070100PT4U20180110000060SPEAKER ASM                   M IMCTM S0FL05 TNTH  07070IMCT  S0 PTB  00004                    0830 SR        000000000000 DENSO TEN (THAILAND)18023TU022522518026UU0092092                                                                                                                *          20180105 IMCT                IMCT                                                                                                                    WMF1801055.TXT
MDEUJ1204849201801                D89828070100PT4U20180110000060SPEAKER ASM                   M IMCTM S0FL05 TNTH  07070IMCT  S0 PTB  00004                    1300 SR        000000000000 DENSO TEN (THAILAND)18022TU011011018026UU0093093                                                                                                                *          20180105 IMCT                IMCT                                                                                                                    WMF1801055.TXT
MDEUJ1204850201801                D89828070100PT4U20180110000090SPEAKER ASM                   M IMCTM S0FL05 TNTH  07070IMCT  S0 PTB  00004                    1600 SR        000000000000 DENSO TEN (THAILAND)18018TU005905918022TU011111118025UU0017017                                                                                                  *          20180105 IMCT                IMCT                                                                                                                    WMF1801055.TXT
MDEUJ1204851201801                D89828070100PT4U20180110000030SPEAKER ASM                   M IMCTM S0FL05 TNTH  07070IMCT  S0 PTB  00004                    2100 SR        000000000000 DENSO TEN (THAILAND)18026UU0094094                                                                                                                              *          20180105 IMCT                IMCT                                                                                                                    WMF1801055.TXT
MDEUJ1204852201801                D89828070200PV4U20180109000030SPEAKER ASM                   M IMCTM S0FR05 TNTH  07070IMCT  S0 PTB  00005                    2230 SR        000000000000 DENSO TEN (THAILAND)18023UU0013013                                                                                                                              *          20180105 IMCT                IMCT                                                                                                                    WMF1801055.TXT
MDEUJ1204853201801                D89828070200PV4U20180110000060SPEAKER ASM                   M IMCTM S0FR05 TNTH  07070IMCT  S0 PTB  00005                    0400 SR        000000000000 DENSO TEN (THAILAND)18023TU022422418026UU0091091                                                                                                                *          20180105 IMCT                IMCT                                                                                                                    WMF1801055.TXT
MDEUJ1204854201801                D89828070200PV4U20180110000060SPEAKER ASM                   M IMCTM S0FR05 TNTH  07070IMCT  S0 PTB  00005                    0830 SR        000000000000 DENSO TEN (THAILAND)18023TU022522518026UU0092092                                                                                                                *          20180105 IMCT                IMCT                                                                                                                    WMF1801055.TXT
MDEUJ1204855201801                D89828070200PV4U20180110000060SPEAKER ASM                   M IMCTM S0FR05 TNTH  07070IMCT  S0 PTB  00005                    1300 SR        000000000000 DENSO TEN (THAILAND)18022TU011011018026UU0093093                                                                                                                *          20180105 IMCT                IMCT                                                                                                                    WMF1801055.TXT
MDEUJ1204856201801                D89828070200PV4U20180110000090SPEAKER ASM                   M IMCTM S0FR05 TNTH  07070IMCT  S0 PTB  00005                    1600 SR        000000000000 DENSO TEN (THAILAND)18018TU005905918022TU011111118025UU0017017                                                                                                  *          20180105 IMCT                IMCT                                                                                                                    WMF1801055.TXT
MDEUJ1204857201801                D89828070200PV4U20180110000030SPEAKER ASM                   M IMCTM S0FR05 TNTH  07070IMCT  S0 PTB  00005                    2100 SR        000000000000 DENSO TEN (THAILAND)18026UU0094094                                                                                                                              *          20180105 IMCT                IMCT                                                                                                                    WMF1801055.TXT
MDEUJ1204858201801                D89828070300PT4U20180109000030SPEAKER ASM                   M IMCTM S9TS02 TNTH  07070IMCT  S9 PTB  00015                    2230 SR        000000000000 DENSO TEN (THAILAND)18023UU0013013                                                                                                                              *          20180105 IMCT                IMCT                                                                                                                    WMF1801055.TXT
MDEUJ1204859201801                D89828070300PT4U20180110000060SPEAKER ASM                   M IMCTM S9TS02 TNTH  07070IMCT  S9 PTB  00015                    0400 SR        000000000000 DENSO TEN (THAILAND)18023TU022422418026UU0091091                                                                                                                *          20180105 IMCT                IMCT                                                                                                                    WMF1801055.TXT
MDEUJ1204860201801                D89828070300PT4U20180110000060SPEAKER ASM                   M IMCTM S9TS02 TNTH  07070IMCT  S9 PTB  00015                    0830 SR        000000000000 DENSO TEN (THAILAND)18023TU022522518026UU0092092                                                                                                                *          20180105 IMCT                IMCT                                                                                                                    WMF1801055.TXT
MDEUJ1204861201801                D89828070300PT4U20180110000060SPEAKER ASM                   M IMCTM S9TS02 TNTH  07070IMCT  S9 PTB  00015                    1300 SR        000000000000 DENSO TEN (THAILAND)18022TU011011018026UU0093093                                                                                                                *          20180105 IMCT                IMCT                                                                                                                    WMF1801055.TXT
MDEUJ1204862201801                D89828070300PT4U20180110000090SPEAKER ASM                   M IMCTM S9TS02 TNTH  07070IMCT  S9 PTB  00015                    1600 SR        000000000000 DENSO TEN (THAILAND)18018TU005905918022TU011111118025UU0017017                                                                                                  *          20180105 IMCT                IMCT                                                                                                                    WMF1801055.TXT
MDEUJ1204863201801                D89828070300PT4U20180110000030SPEAKER ASM                   M IMCTM S9TS02 TNTH  07070IMCT  S9 PTB  00015                    2100 SR        000000000000 DENSO TEN (THAILAND)18026UU0094094                                                                                                                              *          20180105 IMCT                IMCT                                                                                                                    WMF1801055.TXT
