REC2018011220180112ISUZU                              3      
MECKJ1800176000000          IMKDC  89828070100P3YK20180126000090SPEAKER ASM                   M IMCTM IMKDC  TNTH  07070IMKDC KI*PTB  00004    K293H9140   001 0000 ES        000000000000 DENSO TEN (THAILAND)                                                                                                                                            *E         20180112 IMCT                IMCT                                                                                                                    WMF1801122.TXT
MECKJ1800177000000          IMKDC  89828070200P3YK20180126000090SPEAKER ASM                   M IMCTM IMKDC  TNTH  07070IMKDC KI*PTB  00005    K293H9140   001 0000 ES        000000000000 DENSO TEN (THAILAND)                                                                                                                                            *E         20180112 IMCT                IMCT                                                                                                                    WMF1801122.TXT
MECKJ1800178000000          IMKDC  89828070300P3YK20180126000090SPEAKER ASM                   M IMCTM IMKDC  TNTH  07070IMKDC KI*PTB  00015    K293H9140   001 0000 ES        000000000000 DENSO TEN (THAILAND)                                                                                                                                            *E         20180112 IMCT                IMCT                                                                                                                    WMF1801122.TXT
