REC2018012420180124ISUZU                              63     
MDDDJ1256721201801                D89821984430PT1D20180129000030RADIO;AM/FM,CD                M IMCTM S5NC06 TNTH  07070IMCT  S5 PTB  00005                    0830 SR        000000000000 DENSO TEN (THAILAND)180LXEL0006006                                                                                                                              *          20180124 IMCT                IMCT                                                                                                                    WMF1801244.TXT
MDDDJ1256722201801                D89821984430PT1D20180129000030RADIO;AM/FM,CD                M IMCTM S5NC06 TNTH  07070IMCT  S5 PTB  00005                    2100 SR        000000000000 DENSO TEN (THAILAND)180LNGL0082082                                                                                                                              *          20180124 IMCT                IMCT                                                                                                                    WMF1801244.TXT
MDDDJ1256723201801                D89828070100PV1D20180128000060SPEAKER ASM                   M IMCTM S5MB11 TNTH  07070IMCT  S5 PTB  00004                    0400 SR        000000000000 DENSO TEN (THAILAND)180LPCL0026026                                                                                                                              *          20180124 IMCT                IMCT                                                                                                                    WMF1801244.TXT
MDDDJ1256724201801                D89828070100PV1D20180129000060SPEAKER ASM                   M IMCTM S5MB11 TNTH  07070IMCT  S5 PTB  00004                    0830 SR        000000000000 DENSO TEN (THAILAND)180LXEL0006006                                                                                                                              *          20180124 IMCT                IMCT                                                                                                                    WMF1801244.TXT
MDDDJ1256725201801                D89828070100PV1D20180129000120SPEAKER ASM                   M IMCTM S5MB11 TNTH  07070IMCT  S5 PTB  00004                    1300 SR        000000000000 DENSO TEN (THAILAND)180LPML0010010180LXBL0002002                                                                                                                *          20180124 IMCT                IMCT                                                                                                                    WMF1801244.TXT
MDDDJ1256726201801                D89828070100PV1D20180129000060SPEAKER ASM                   M IMCTM S5MB11 TNTH  07070IMCT  S5 PTB  00004                    2100 SR        000000000000 DENSO TEN (THAILAND)180LNGL0082082                                                                                                                              *          20180124 IMCT                IMCT                                                                                                                    WMF1801244.TXT
MDDDJ1256727201801                D89828070300PT1D20180128000060SPEAKER ASM                   M IMCTM S5NB082TNTH  07070IMCT  S5 PTB  00015                    0400 SR        000000000000 DENSO TEN (THAILAND)180LPCL0026026                                                                                                                              *          20180124 IMCT                IMCT                                                                                                                    WMF1801244.TXT
MDDDJ1256728201801                D89828070300PT1D20180129000060SPEAKER ASM                   M IMCTM S5NB082TNTH  07070IMCT  S5 PTB  00015                    1300 SR        000000000000 DENSO TEN (THAILAND)180LPML0010010                                                                                                                              *          20180124 IMCT                IMCT                                                                                                                    WMF1801244.TXT
MDDDJ1256729201801                D89831228300PT1D20180128000030RADIO;AM/FM,CD                M IMCTM S5NC06 TNTH  07070IMCT  S5 CPB  00003                    0400 SR        000000000000 DENSO TEN (THAILAND)180LPCL0026026                                                                                                                              *          20180124 IMCT                IMCT                                                                                                                    WMF1801244.TXT
MDDUJ1243351201801                D89828070100PT4U20180128000030SPEAKER ASM                   M IMCTM S0FL05 TNTH  07070IMCT  S0 PTB  00004                    0230 SR        000000000000 DENSO TEN (THAILAND)180LURU0015015                                                                                                                              *          20180124 IMCT                IMCT                                                                                                                    WMF1801244.TXT
MDDUJ1243352201801                D89828070100PT4U20180129000030SPEAKER ASM                   M IMCTM S0FL05 TNTH  07070IMCT  S0 PTB  00004                    0830 SR        000000000000 DENSO TEN (THAILAND)180LUQU0007007                                                                                                                              *          20180124 IMCT                IMCT                                                                                                                    WMF1801244.TXT
MDDUJ1243353201801                D89828070100PT4U20180129000030SPEAKER ASM                   M IMCTM S0FL05 TNTH  07070IMCT  S0 PTB  00004                    1300 SR        000000000000 DENSO TEN (THAILAND)180LURU0016016                                                                                                                              *          20180124 IMCT                IMCT                                                                                                                    WMF1801244.TXT
MDDUJ1243354201801                D89828070100PT4U20180129000030SPEAKER ASM                   M IMCTM S0FL05 TNTH  07070IMCT  S0 PTB  00004                    2230 SR        000000000000 DENSO TEN (THAILAND)180LUPU0003003                                                                                                                              *          20180124 IMCT                IMCT                                                                                                                    WMF1801244.TXT
MDDUJ1243355201801                D89828070200PV4U20180128000030SPEAKER ASM                   M IMCTM S0FR05 TNTH  07070IMCT  S0 PTB  00005                    0230 SR        000000000000 DENSO TEN (THAILAND)180LURU0015015                                                                                                                              *          20180124 IMCT                IMCT                                                                                                                    WMF1801244.TXT
MDDUJ1243356201801                D89828070200PV4U20180129000030SPEAKER ASM                   M IMCTM S0FR05 TNTH  07070IMCT  S0 PTB  00005                    0830 SR        000000000000 DENSO TEN (THAILAND)180LUQU0007007                                                                                                                              *          20180124 IMCT                IMCT                                                                                                                    WMF1801244.TXT
MDDUJ1243357201801                D89828070200PV4U20180129000030SPEAKER ASM                   M IMCTM S0FR05 TNTH  07070IMCT  S0 PTB  00005                    1300 SR        000000000000 DENSO TEN (THAILAND)180LURU0016016                                                                                                                              *          20180124 IMCT                IMCT                                                                                                                    WMF1801244.TXT
MDDUJ1243358201801                D89828070200PV4U20180129000030SPEAKER ASM                   M IMCTM S0FR05 TNTH  07070IMCT  S0 PTB  00005                    2230 SR        000000000000 DENSO TEN (THAILAND)180LUPU0003003                                                                                                                              *          20180124 IMCT                IMCT                                                                                                                    WMF1801244.TXT
MDDUJ1243359201801                D89828070300PT4U20180128000030SPEAKER ASM                   M IMCTM S9TS02 TNTH  07070IMCT  S9 PTB  00015                    0230 SR        000000000000 DENSO TEN (THAILAND)180LURU0015015                                                                                                                              *          20180124 IMCT                IMCT                                                                                                                    WMF1801244.TXT
MDDUJ1243360201801                D89828070300PT4U20180129000030SPEAKER ASM                   M IMCTM S9TS02 TNTH  07070IMCT  S9 PTB  00015                    0830 SR        000000000000 DENSO TEN (THAILAND)180LUQU0007007                                                                                                                              *          20180124 IMCT                IMCT                                                                                                                    WMF1801244.TXT
MDDUJ1243361201801                D89828070300PT4U20180129000030SPEAKER ASM                   M IMCTM S9TS02 TNTH  07070IMCT  S9 PTB  00015                    1300 SR        000000000000 DENSO TEN (THAILAND)180LURU0016016                                                                                                                              *          20180124 IMCT                IMCT                                                                                                                    WMF1801244.TXT
MDDUJ1243362201801                D89828070300PT4U20180129000030SPEAKER ASM                   M IMCTM S9TS02 TNTH  07070IMCT  S9 PTB  00015                    2230 SR        000000000000 DENSO TEN (THAILAND)180LUPU0003003                                                                                                                              *          20180124 IMCT                IMCT                                                                                                                    WMF1801244.TXT
MDDUJ1243363201801                D89831228400PT4U20180129000015RADIO;AM/FM,CD                M IMCTM S9CO001TNTH  07070IMCT  S9 CPB  00003                    2230 SR        000000000000 DENSO TEN (THAILAND)180LUPU0003003                                                                                                                              *          20180124 IMCT                IMCT                                                                                                                    WMF1801244.TXT
MDDUJ1243364201801                D89848584200PT4U20180129000015RADIO;AM/FM CD D              M IMCTM S9CO001TNTH  07070IMCT  S9 PTB  00003                    0830 SR        000000000000 DENSO TEN (THAILAND)180LUQU0007007                                                                                                                              *          20180124 IMCT                IMCT                                                                                                                    WMF1801244.TXT
MDEDJ1314111201801                D89828070100PV1D20180127000060SPEAKER ASM                   M IMCTM S5MB11 TNTH  07070IMCT  S5 PTB  00004                    2230 SR        000000000000 DENSO TEN (THAILAND)17075PL008808818007ZL0075075                                                                                                                *          20180124 IMCT                IMCT                                                                                                                    WMF1801244.TXT
MDEDJ1314112201801                D89828070100PV1D20180128000090SPEAKER ASM                   M IMCTM S5MB11 TNTH  07070IMCT  S5 PTB  00004                    0230 SR        000000000000 DENSO TEN (THAILAND)17075PL0089091                                                                                                                              *          20180124 IMCT                IMCT                                                                                                                    WMF1801244.TXT
MDEDJ1314113201801                D89828070100PV1D20180128000060SPEAKER ASM                   M IMCTM S5MB11 TNTH  07070IMCT  S5 PTB  00004                    0400 SR        000000000000 DENSO TEN (THAILAND)17004RL001101117055NL0082082                                                                                                                *          20180124 IMCT                IMCT                                                                                                                    WMF1801244.TXT
MDEDJ1314114201801                D89828070100PV1D20180129000060SPEAKER ASM                   M IMCTM S5MB11 TNTH  07070IMCT  S5 PTB  00004                    1030 SR        000000000000 DENSO TEN (THAILAND)18007ZL0076077                                                                                                                              *          20180124 IMCT                IMCT                                                                                                                    WMF1801244.TXT
MDEDJ1314115201801                D89828070100PV1D20180129000060SPEAKER ASM                   M IMCTM S5MB11 TNTH  07070IMCT  S5 PTB  00004                    1600 SR        000000000000 DENSO TEN (THAILAND)17074NL0094095                                                                                                                              *          20180124 IMCT                IMCT                                                                                                                    WMF1801244.TXT
MDEDJ1314116201801                D89828070100PV1D20180129000030SPEAKER ASM                   M IMCTM S5MB11 TNTH  07070IMCT  S5 PTB  00004                    2100 SR        000000000000 DENSO TEN (THAILAND)18010ZL0036036                                                                                                                              *          20180124 IMCT                IMCT                                                                                                                    WMF1801244.TXT
MDEDJ1314117201801                D89828070100PV4D20180127000030SPEAKER ASM                   M IMCTM S0FL05 TNTH  07070IMCT  S0 PTB  00004                    2230 SR        000000000000 DENSO TEN (THAILAND)17074NU0047047                                                                                                                              *          20180124 IMCT                IMCT                                                                                                                    WMF1801244.TXT
MDEDJ1314118201801                D89828070100PV4D20180128000030SPEAKER ASM                   M IMCTM S0FL05 TNTH  07070IMCT  S0 PTB  00004                    0400 SR        000000000000 DENSO TEN (THAILAND)17050RU0017017                                                                                                                              *          20180124 IMCT                IMCT                                                                                                                    WMF1801244.TXT
MDEDJ1314119201801                D89828070100PV4D20180129000030SPEAKER ASM                   M IMCTM S0FL05 TNTH  07070IMCT  S0 PTB  00004                    1300 SR        000000000000 DENSO TEN (THAILAND)17074NU0048048                                                                                                                              *          20180124 IMCT                IMCT                                                                                                                    WMF1801244.TXT
MDEDJ1314120201801                D89828070200PV1D20180128000030SPEAKER ASM                   M IMCTM S5MA14 TNTH  07070IMCT  S5 PTB  00005                    0400 SR        000000000000 DENSO TEN (THAILAND)17004RL0011011                                                                                                                              *          20180124 IMCT                IMCT                                                                                                                    WMF1801244.TXT
MDEDJ1314121201801                D89828070200PV1D20180129000060SPEAKER ASM                   M IMCTM S5MA14 TNTH  07070IMCT  S5 PTB  00005                    1600 SR        000000000000 DENSO TEN (THAILAND)17074NL0094095                                                                                                                              *          20180124 IMCT                IMCT                                                                                                                    WMF1801244.TXT
MDEDJ1314122201801                D89828070200PV4D20180127000030SPEAKER ASM                   M IMCTM S0FR05 TNTH  07070IMCT  S0 PTB  00005                    2230 SR        000000000000 DENSO TEN (THAILAND)17074NU0047047                                                                                                                              *          20180124 IMCT                IMCT                                                                                                                    WMF1801244.TXT
MDEDJ1314123201801                D89828070200PV4D20180128000030SPEAKER ASM                   M IMCTM S0FR05 TNTH  07070IMCT  S0 PTB  00005                    0400 SR        000000000000 DENSO TEN (THAILAND)17050RU0017017                                                                                                                              *          20180124 IMCT                IMCT                                                                                                                    WMF1801244.TXT
MDEDJ1314124201801                D89828070200PV4D20180129000030SPEAKER ASM                   M IMCTM S0FR05 TNTH  07070IMCT  S0 PTB  00005                    1300 SR        000000000000 DENSO TEN (THAILAND)17074NU0048048                                                                                                                              *          20180124 IMCT                IMCT                                                                                                                    WMF1801244.TXT
MDEDJ1314125201801                D89828070300PT1D20180128000060SPEAKER ASM                   M IMCTM S5NB082TNTH  07070IMCT  S5 PTB  00015                    0400 SR        000000000000 DENSO TEN (THAILAND)17004RL001101117055NL0082082                                                                                                                *          20180124 IMCT                IMCT                                                                                                                    WMF1801244.TXT
MDEDJ1314126201801                D89828070300PT1D20180129000060SPEAKER ASM                   M IMCTM S5NB082TNTH  07070IMCT  S5 PTB  00015                    1600 SR        000000000000 DENSO TEN (THAILAND)17074NL0094095                                                                                                                              *          20180124 IMCT                IMCT                                                                                                                    WMF1801244.TXT
MDEDJ1314127201801                D89828070300PT4D20180127000030SPEAKER ASM                   M IMCTM S9TS02 TNTH  07070IMCT  S9 PTB  00015                    2230 SR        000000000000 DENSO TEN (THAILAND)17074NU0047047                                                                                                                              *          20180124 IMCT                IMCT                                                                                                                    WMF1801244.TXT
MDEDJ1314128201801                D89828070300PT4D20180128000030SPEAKER ASM                   M IMCTM S9TS02 TNTH  07070IMCT  S9 PTB  00015                    0400 SR        000000000000 DENSO TEN (THAILAND)17050RU0017017                                                                                                                              *          20180124 IMCT                IMCT                                                                                                                    WMF1801244.TXT
MDEDJ1314129201801                D89828070300PT4D20180129000030SPEAKER ASM                   M IMCTM S9TS02 TNTH  07070IMCT  S9 PTB  00015                    1300 SR        000000000000 DENSO TEN (THAILAND)17074NU0048048                                                                                                                              *          20180124 IMCT                IMCT                                                                                                                    WMF1801244.TXT
MDEDJ1314130201801                D89829645410PT1D20180128000015RADIO;ASM DVD                 M IMCTM S5NC06 TNTH  07070IMCT  S5 PTB  00003                    0400 SR        000000000000 DENSO TEN (THAILAND)17004RL0011011                                                                                                                              *          20180124 IMCT                IMCT                                                                                                                    WMF1801244.TXT
MDEDJ1314131201801                D89829645410PT4D20180128000015RADIO;ASM DVD                 M IMCTM S9CO001TNTH  07070IMCT  S9 PTB  00003                    0400 SR        000000000000 DENSO TEN (THAILAND)17050RU0017017                                                                                                                              *          20180124 IMCT                IMCT                                                                                                                    WMF1801244.TXT
MDEDJ1314132201801                D89848581800PT1D20180128000015RADIO;AM/FM CD D              M IMCTM S5NC06 TNTH  07070IMCT  S5 PTB  00003                    0400 SR        000000000000 DENSO TEN (THAILAND)17055NL0082082                                                                                                                              *          20180124 IMCT                IMCT                                                                                                                    WMF1801244.TXT
MDEDJ1314133201801                D89848581800PT1D20180129000030RADIO;AM/FM CD D              M IMCTM S5NC06 TNTH  07070IMCT  S5 PTB  00003                    1600 SR        000000000000 DENSO TEN (THAILAND)17074NL0094095                                                                                                                              *          20180124 IMCT                IMCT                                                                                                                    WMF1801244.TXT
MDEDJ1314134201801                D89848581800PT4D20180127000015RADIO;AM/FM CD D              M IMCTM S9CO001TNTH  07070IMCT  S9 PTB  00003                    2230 SR        000000000000 DENSO TEN (THAILAND)17074NU0047047                                                                                                                              *          20180124 IMCT                IMCT                                                                                                                    WMF1801244.TXT
MDEDJ1314135201801                D89848581800PT4D20180129000015RADIO;AM/FM CD D              M IMCTM S9CO001TNTH  07070IMCT  S9 PTB  00003                    1300 SR        000000000000 DENSO TEN (THAILAND)17074NU0048048                                                                                                                              *          20180124 IMCT                IMCT                                                                                                                    WMF1801244.TXT
MDEUJ1278574201801                D89828070100PT4U20180128000030SPEAKER ASM                   M IMCTM S0FL05 TNTH  07070IMCT  S0 PTB  00004                    0400 SR        000000000000 DENSO TEN (THAILAND)18025UU0024024                                                                                                                              *          20180124 IMCT                IMCT                                                                                                                    WMF1801244.TXT
MDEUJ1278575201801                D89828070100PT4U20180129000030SPEAKER ASM                   M IMCTM S0FL05 TNTH  07070IMCT  S0 PTB  00004                    1030 SR        000000000000 DENSO TEN (THAILAND)18026UU0147147                                                                                                                              *          20180124 IMCT                IMCT                                                                                                                    WMF1801244.TXT
MDEUJ1278576201801                D89828070100PT4U20180129000030SPEAKER ASM                   M IMCTM S0FL05 TNTH  07070IMCT  S0 PTB  00004                    1300 SR        000000000000 DENSO TEN (THAILAND)18026UU0148148                                                                                                                              *          20180124 IMCT                IMCT                                                                                                                    WMF1801244.TXT
MDEUJ1278577201801                D89828070100PT4U20180129000030SPEAKER ASM                   M IMCTM S0FL05 TNTH  07070IMCT  S0 PTB  00004                    1600 SR        000000000000 DENSO TEN (THAILAND)18023UU0015015                                                                                                                              *          20180124 IMCT                IMCT                                                                                                                    WMF1801244.TXT
MDEUJ1278578201801                D89828070100PT4U20180129000030SPEAKER ASM                   M IMCTM S0FL05 TNTH  07070IMCT  S0 PTB  00004                    2100 SR        000000000000 DENSO TEN (THAILAND)18024UU0019019                                                                                                                              *          20180124 IMCT                IMCT                                                                                                                    WMF1801244.TXT
MDEUJ1278579201801                D89828070200PV4U20180128000030SPEAKER ASM                   M IMCTM S0FR05 TNTH  07070IMCT  S0 PTB  00005                    0400 SR        000000000000 DENSO TEN (THAILAND)18025UU0024024                                                                                                                              *          20180124 IMCT                IMCT                                                                                                                    WMF1801244.TXT
MDEUJ1278580201801                D89828070200PV4U20180129000030SPEAKER ASM                   M IMCTM S0FR05 TNTH  07070IMCT  S0 PTB  00005                    1030 SR        000000000000 DENSO TEN (THAILAND)18026UU0147147                                                                                                                              *          20180124 IMCT                IMCT                                                                                                                    WMF1801244.TXT
MDEUJ1278581201801                D89828070200PV4U20180129000030SPEAKER ASM                   M IMCTM S0FR05 TNTH  07070IMCT  S0 PTB  00005                    1300 SR        000000000000 DENSO TEN (THAILAND)18026UU0148148                                                                                                                              *          20180124 IMCT                IMCT                                                                                                                    WMF1801244.TXT
MDEUJ1278582201801                D89828070200PV4U20180129000030SPEAKER ASM                   M IMCTM S0FR05 TNTH  07070IMCT  S0 PTB  00005                    1600 SR        000000000000 DENSO TEN (THAILAND)18023UU0015015                                                                                                                              *          20180124 IMCT                IMCT                                                                                                                    WMF1801244.TXT
MDEUJ1278583201801                D89828070200PV4U20180129000030SPEAKER ASM                   M IMCTM S0FR05 TNTH  07070IMCT  S0 PTB  00005                    2100 SR        000000000000 DENSO TEN (THAILAND)18024UU0019019                                                                                                                              *          20180124 IMCT                IMCT                                                                                                                    WMF1801244.TXT
MDEUJ1278584201801                D89828070300PT4U20180128000030SPEAKER ASM                   M IMCTM S9TS02 TNTH  07070IMCT  S9 PTB  00015                    0400 SR        000000000000 DENSO TEN (THAILAND)18025UU0024024                                                                                                                              *          20180124 IMCT                IMCT                                                                                                                    WMF1801244.TXT
MDEUJ1278585201801                D89828070300PT4U20180129000030SPEAKER ASM                   M IMCTM S9TS02 TNTH  07070IMCT  S9 PTB  00015                    1030 SR        000000000000 DENSO TEN (THAILAND)18026UU0147147                                                                                                                              *          20180124 IMCT                IMCT                                                                                                                    WMF1801244.TXT
MDEUJ1278586201801                D89828070300PT4U20180129000030SPEAKER ASM                   M IMCTM S9TS02 TNTH  07070IMCT  S9 PTB  00015                    1300 SR        000000000000 DENSO TEN (THAILAND)18026UU0148148                                                                                                                              *          20180124 IMCT                IMCT                                                                                                                    WMF1801244.TXT
MDEUJ1278587201801                D89828070300PT4U20180129000030SPEAKER ASM                   M IMCTM S9TS02 TNTH  07070IMCT  S9 PTB  00015                    1600 SR        000000000000 DENSO TEN (THAILAND)18023UU0015015                                                                                                                              *          20180124 IMCT                IMCT                                                                                                                    WMF1801244.TXT
MDEUJ1278588201801                D89828070300PT4U20180129000030SPEAKER ASM                   M IMCTM S9TS02 TNTH  07070IMCT  S9 PTB  00015                    2100 SR        000000000000 DENSO TEN (THAILAND)18024UU0019019                                                                                                                              *          20180124 IMCT                IMCT                                                                                                                    WMF1801244.TXT
