REC2018011820180118ISUZU                              13     
MDEFJ1T15518201801                D89805293700PV4F20180123000025SPEAKER ASM                   M IMCTM S7FR05 TNTH  07070IMCT  S7 PTB  00003                    1300 SR        000000000000 DENSO TEN (THAILAND)15021DR0094   15045FR0052   D180108601    D180108613    000000                                                                              *R         20180118 IMCT                IMCT                                                                                                                    RMF1801184.TXT
MDEFJ1T15519201801                D89805294000PT4F20180123000006SPEAKER ASM                   M IMCTM S7TS02 TNTH  07070IMCT  S7 PTB  00015                    1300 SR        000000000000 DENSO TEN (THAILAND)15045FR0050   15045FR0052   D180108611    D180108613    000000                                                                              *R         20180118 IMCT                IMCT                                                                                                                    RMF1801184.TXT
MDEFJ1T15520201801                D89824135720PT4F20180123000003RADIO;AM/FM,CD,F              M IMCTM S7TS03 TNTH  07070IMCT  S7 PTB  00003                    1300 SR        000000000000 DENSO TEN (THAILAND)15045FR0050   15045FR0052   D180108611    D180108613    000000                                                                              *R         20180118 IMCT                IMCT                                                                                                                    RMF1801184.TXT
MDEFJ1T15521201801                D89828070100PV4F20180123000002SPEAKER ASM                   M IMCTM S7FL05 TNTH  07070IMCT  S7 PTB  00004                    1300 SR        000000000000 DENSO TEN (THAILAND)17017MR0094   17017MR0094   D180108615    D180108615    000000                                                                              *R         20180118 IMCT                IMCT                                                                                                                    RMF1801184.TXT
MDEFJ1T15522201801                D89828070200PV4F20180123000004SPEAKER ASM                   M IMCTM S7FL05 TNTH  07070IMCT  S7 PTB  00005                    1300 SR        000000000000 DENSO TEN (THAILAND)17017MR0093   17017MR0094   D180108614    D180108615    000000                                                                              *R         20180118 IMCT                IMCT                                                                                                                    RMF1801184.TXT
MDEFJ1T15523201801                D89828070300PT4F20180123000002SPEAKER ASM                   M IMCTM S7TS02 TNTH  07070IMCT  S7 PTB  00015                    1300 SR        000000000000 DENSO TEN (THAILAND)17017MR0094   17017MR0094   D180108615    D180108615    000000                                                                              *R         20180118 IMCT                IMCT                                                                                                                    RMF1801184.TXT
MDEFJ1T15524201801                D89829645310PT4F20180123000002RADIO;ASM DVD                 M IMCTM S7TS03 TNTH  07070IMCT  S7 PTB  00003                    1300 SR        000000000000 DENSO TEN (THAILAND)17017MR0093   17017MR0094   D180108614    D180108615    000000                                                                              *R         20180118 IMCT                IMCT                                                                                                                    RMF1801184.TXT
MDEFJ1238979201801                D89805293700PV4F20180123000003SPEAKER ASM                   M IMCTM S7FR05 TNTH  07070IMCT  S7 PTB  00003                    0230 SR        000000000000 DENSO TEN (THAILAND)15021DR0094   15006DR0077   D180108601    F180108515    000000                                                                              *R         20180118 IMCT                IMCT                                                                                                                    RMF1801184.TXT
MDEFJ1238980201801                D89828070100PV4F20180122000028SPEAKER ASM                   M IMCTM S7FL05 TNTH  07070IMCT  S7 PTB  00004                    2100 SR        000000000000 DENSO TEN (THAILAND)17007RR0126   17067PR0007   R180108401    R180108414    000000                                                                              *R         20180118 IMCT                IMCT                                                                                                                    RMF1801184.TXT
MDEFJ1238981201801                D89828070100PV4F20180122000008SPEAKER ASM                   M IMCTM S7FL05 TNTH  07070IMCT  S7 PTB  00004                    2230 SR        000000000000 DENSO TEN (THAILAND)17057MR0090   17067PR0008   F180108501    R180108415    000000                                                                              *R         20180118 IMCT                IMCT                                                                                                                    RMF1801184.TXT
MDEFJ1238982201801                D89828070100PV4F20180123000024SPEAKER ASM                   M IMCTM S7FL05 TNTH  07070IMCT  S7 PTB  00004                    0230 SR        000000000000 DENSO TEN (THAILAND)17017MR0093   17071MR0117   D180108614    F180108514    000000                                                                              *R         20180118 IMCT                IMCT                                                                                                                    RMF1801184.TXT
MDEFJ1238983201801                D89828070300PT4F20180122000015SPEAKER ASM                   M IMCTM S7TS02 TNTH  07070IMCT  S7 PTB  00015                    2230 SR        000000000000 DENSO TEN (THAILAND)17057MR0090   17071MR0111   F180108501    F180108508    000000                                                                              *R         20180118 IMCT                IMCT                                                                                                                    RMF1801184.TXT
MDEFJ1238984201801                D89828070300PT4F20180123000015SPEAKER ASM                   M IMCTM S7TS02 TNTH  07070IMCT  S7 PTB  00015                    0230 SR        000000000000 DENSO TEN (THAILAND)17017MR0093   17071MR0117   D180108614    F180108514    000000                                                                              *R         20180118 IMCT                IMCT                                                                                                                    RMF1801184.TXT
