REC2018011720180117ISUZU                              53     
MDDDJ1236727201801                D89821984430PT1D20180121000030RADIO;AM/FM,CD                M IMCTM S5NC06 TNTH  07070IMCT  S5 PTB  00005                    0400 SR        000000000000 DENSO TEN (THAILAND)180LNGL0077077                                                                                                                              *          20180117 IMCT                IMCT                                                                                                                    WMF1801173.TXT
MDDDJ1236728201801                D89821984430PT1D20180122000030RADIO;AM/FM,CD                M IMCTM S5NC06 TNTH  07070IMCT  S5 PTB  00005                    0830 SR        000000000000 DENSO TEN (THAILAND)180LNEL0051051                                                                                                                              *          20180117 IMCT                IMCT                                                                                                                    WMF1801173.TXT
MDDDJ1236729201801                D89828070100PV1D20180120000060SPEAKER ASM                   M IMCTM S5MB11 TNTH  07070IMCT  S5 PTB  00004                    2230 SR        000000000000 DENSO TEN (THAILAND)180LPML0009009                                                                                                                              *          20180117 IMCT                IMCT                                                                                                                    WMF1801173.TXT
MDDDJ1236730201801                D89828070100PV1D20180121000060SPEAKER ASM                   M IMCTM S5MB11 TNTH  07070IMCT  S5 PTB  00004                    0400 SR        000000000000 DENSO TEN (THAILAND)180LNGL0077077                                                                                                                              *          20180117 IMCT                IMCT                                                                                                                    WMF1801173.TXT
MDDDJ1236731201801                D89828070100PV1D20180122000060SPEAKER ASM                   M IMCTM S5MB11 TNTH  07070IMCT  S5 PTB  00004                    0830 SR        000000000000 DENSO TEN (THAILAND)180LNEL0051051                                                                                                                              *          20180117 IMCT                IMCT                                                                                                                    WMF1801173.TXT
MDDDJ1236732201801                D89828070100PV1D20180122000120SPEAKER ASM                   M IMCTM S5MB11 TNTH  07070IMCT  S5 PTB  00004                    1600 SR        000000000000 DENSO TEN (THAILAND)180LPCL0025025180LPGL0138138                                                                                                                *          20180117 IMCT                IMCT                                                                                                                    WMF1801173.TXT
MDDDJ1236733201801                D89828070300PT1D20180120000060SPEAKER ASM                   M IMCTM S5NB082TNTH  07070IMCT  S5 PTB  00015                    2230 SR        000000000000 DENSO TEN (THAILAND)180LPML0009009                                                                                                                              *          20180117 IMCT                IMCT                                                                                                                    WMF1801173.TXT
MDDDJ1236734201801                D89828070300PT1D20180122000120SPEAKER ASM                   M IMCTM S5NB082TNTH  07070IMCT  S5 PTB  00015                    1600 SR        000000000000 DENSO TEN (THAILAND)180LPCL0025025180LPGL0138138                                                                                                                *          20180117 IMCT                IMCT                                                                                                                    WMF1801173.TXT
MDDDJ1236735201801                D89831228300PT1D20180122000060RADIO;AM/FM,CD                M IMCTM S5NC06 TNTH  07070IMCT  S5 CPB  00003                    1600 SR        000000000000 DENSO TEN (THAILAND)180LPCL0025025180LPGL0138138                                                                                                                *          20180117 IMCT                IMCT                                                                                                                    WMF1801173.TXT
MDDUJ1224408201801                D89828070100PT4U20180120000030SPEAKER ASM                   M IMCTM S0FL05 TNTH  07070IMCT  S0 PTB  00004                    2230 SR        000000000000 DENSO TEN (THAILAND)180LURU0009009                                                                                                                              *          20180117 IMCT                IMCT                                                                                                                    WMF1801173.TXT
MDDUJ1224409201801                D89828070100PT4U20180121000030SPEAKER ASM                   M IMCTM S0FL05 TNTH  07070IMCT  S0 PTB  00004                    0400 SR        000000000000 DENSO TEN (THAILAND)180LUSU0005005                                                                                                                              *          20180117 IMCT                IMCT                                                                                                                    WMF1801173.TXT
MDDUJ1224410201801                D89828070100PT4U20180122000030SPEAKER ASM                   M IMCTM S0FL05 TNTH  07070IMCT  S0 PTB  00004                    1300 SR        000000000000 DENSO TEN (THAILAND)180LUMU0004004                                                                                                                              *          20180117 IMCT                IMCT                                                                                                                    WMF1801173.TXT
MDDUJ1224411201801                D89828070100PT4U20180122000030SPEAKER ASM                   M IMCTM S0FL05 TNTH  07070IMCT  S0 PTB  00004                    2100 SR        000000000000 DENSO TEN (THAILAND)180LUPU0002002                                                                                                                              *          20180117 IMCT                IMCT                                                                                                                    WMF1801173.TXT
MDDUJ1224412201801                D89828070200PV4U20180120000030SPEAKER ASM                   M IMCTM S0FR05 TNTH  07070IMCT  S0 PTB  00005                    2230 SR        000000000000 DENSO TEN (THAILAND)180LURU0009009                                                                                                                              *          20180117 IMCT                IMCT                                                                                                                    WMF1801173.TXT
MDDUJ1224413201801                D89828070200PV4U20180121000030SPEAKER ASM                   M IMCTM S0FR05 TNTH  07070IMCT  S0 PTB  00005                    0400 SR        000000000000 DENSO TEN (THAILAND)180LUSU0005005                                                                                                                              *          20180117 IMCT                IMCT                                                                                                                    WMF1801173.TXT
MDDUJ1224414201801                D89828070200PV4U20180122000030SPEAKER ASM                   M IMCTM S0FR05 TNTH  07070IMCT  S0 PTB  00005                    1300 SR        000000000000 DENSO TEN (THAILAND)180LUMU0004004                                                                                                                              *          20180117 IMCT                IMCT                                                                                                                    WMF1801173.TXT
MDDUJ1224415201801                D89828070200PV4U20180122000030SPEAKER ASM                   M IMCTM S0FR05 TNTH  07070IMCT  S0 PTB  00005                    2100 SR        000000000000 DENSO TEN (THAILAND)180LUPU0002002                                                                                                                              *          20180117 IMCT                IMCT                                                                                                                    WMF1801173.TXT
MDDUJ1224416201801                D89828070300PT4U20180120000030SPEAKER ASM                   M IMCTM S9TS02 TNTH  07070IMCT  S9 PTB  00015                    2230 SR        000000000000 DENSO TEN (THAILAND)180LURU0009009                                                                                                                              *          20180117 IMCT                IMCT                                                                                                                    WMF1801173.TXT
MDDUJ1224417201801                D89828070300PT4U20180121000030SPEAKER ASM                   M IMCTM S9TS02 TNTH  07070IMCT  S9 PTB  00015                    0400 SR        000000000000 DENSO TEN (THAILAND)180LUSU0005005                                                                                                                              *          20180117 IMCT                IMCT                                                                                                                    WMF1801173.TXT
MDDUJ1224418201801                D89828070300PT4U20180122000030SPEAKER ASM                   M IMCTM S9TS02 TNTH  07070IMCT  S9 PTB  00015                    1300 SR        000000000000 DENSO TEN (THAILAND)180LUMU0004004                                                                                                                              *          20180117 IMCT                IMCT                                                                                                                    WMF1801173.TXT
MDDUJ1224419201801                D89828070300PT4U20180122000030SPEAKER ASM                   M IMCTM S9TS02 TNTH  07070IMCT  S9 PTB  00015                    2100 SR        000000000000 DENSO TEN (THAILAND)180LUPU0002002                                                                                                                              *          20180117 IMCT                IMCT                                                                                                                    WMF1801173.TXT
MDDUJ1224420201801                D89831228400PT4U20180122000015RADIO;AM/FM,CD                M IMCTM S9CO001TNTH  07070IMCT  S9 CPB  00003                    2100 SR        000000000000 DENSO TEN (THAILAND)180LUPU0002002                                                                                                                              *          20180117 IMCT                IMCT                                                                                                                    WMF1801173.TXT
MDEDJ1268499201801                D89828070100PV1D20180120000060SPEAKER ASM                   M IMCTM S5MB11 TNTH  07070IMCT  S5 PTB  00004                    2230 SR        000000000000 DENSO TEN (THAILAND)17075PL0071072                                                                                                                              *          20180117 IMCT                IMCT                                                                                                                    WMF1801173.TXT
MDEDJ1268500201801                D89828070100PV1D20180121000060SPEAKER ASM                   M IMCTM S5MB11 TNTH  07070IMCT  S5 PTB  00004                    0230 SR        000000000000 DENSO TEN (THAILAND)17002RL000700717008RL0011011                                                                                                                *          20180117 IMCT                IMCT                                                                                                                    WMF1801173.TXT
MDEDJ1268501201801                D89828070100PV1D20180121000060SPEAKER ASM                   M IMCTM S5MB11 TNTH  07070IMCT  S5 PTB  00004                    0400 SR        000000000000 DENSO TEN (THAILAND)17075PL0073074                                                                                                                              *          20180117 IMCT                IMCT                                                                                                                    WMF1801173.TXT
MDEDJ1268502201801                D89828070100PV1D20180122000030SPEAKER ASM                   M IMCTM S5MB11 TNTH  07070IMCT  S5 PTB  00004                    0830 SR        000000000000 DENSO TEN (THAILAND)17037RL0013013                                                                                                                              *          20180117 IMCT                IMCT                                                                                                                    WMF1801173.TXT
MDEDJ1268503201801                D89828070100PV1D20180122000030SPEAKER ASM                   M IMCTM S5MB11 TNTH  07070IMCT  S5 PTB  00004                    1030 SR        000000000000 DENSO TEN (THAILAND)17029NL0020020                                                                                                                              *          20180117 IMCT                IMCT                                                                                                                    WMF1801173.TXT
MDEDJ1268504201801                D89828070100PV1D20180122000120SPEAKER ASM                   M IMCTM S5MB11 TNTH  07070IMCT  S5 PTB  00004                    1300 SR        000000000000 DENSO TEN (THAILAND)17039NL000200217046QL003303318010ZL0030031                                                                                                  *          20180117 IMCT                IMCT                                                                                                                    WMF1801173.TXT
MDEDJ1268505201801                D89828070100PV1D20180122000030SPEAKER ASM                   M IMCTM S5MB11 TNTH  07070IMCT  S5 PTB  00004                    2100 SR        000000000000 DENSO TEN (THAILAND)18007ZL0065065                                                                                                                              *          20180117 IMCT                IMCT                                                                                                                    WMF1801173.TXT
MDEDJ1268506201801                D89828070200PV1D20180121000030SPEAKER ASM                   M IMCTM S5MA14 TNTH  07070IMCT  S5 PTB  00005                    0230 SR        000000000000 DENSO TEN (THAILAND)17002RL0007007                                                                                                                              *          20180117 IMCT                IMCT                                                                                                                    WMF1801173.TXT
MDEDJ1268507201801                D89828070200PV1D20180122000030SPEAKER ASM                   M IMCTM S5MA14 TNTH  07070IMCT  S5 PTB  00005                    0830 SR        000000000000 DENSO TEN (THAILAND)17037RL0013013                                                                                                                              *          20180117 IMCT                IMCT                                                                                                                    WMF1801173.TXT
MDEDJ1268508201801                D89828070200PV1D20180122000060SPEAKER ASM                   M IMCTM S5MA14 TNTH  07070IMCT  S5 PTB  00005                    1300 SR        000000000000 DENSO TEN (THAILAND)17039NL000200217046QL0033033                                                                                                                *          20180117 IMCT                IMCT                                                                                                                    WMF1801173.TXT
MDEDJ1268509201801                D89828070300PT1D20180121000030SPEAKER ASM                   M IMCTM S5NB082TNTH  07070IMCT  S5 PTB  00015                    0230 SR        000000000000 DENSO TEN (THAILAND)17002RL0007007                                                                                                                              *          20180117 IMCT                IMCT                                                                                                                    WMF1801173.TXT
MDEDJ1268510201801                D89828070300PT1D20180122000030SPEAKER ASM                   M IMCTM S5NB082TNTH  07070IMCT  S5 PTB  00015                    0830 SR        000000000000 DENSO TEN (THAILAND)17037RL0013013                                                                                                                              *          20180117 IMCT                IMCT                                                                                                                    WMF1801173.TXT
MDEDJ1268511201801                D89828070300PT1D20180122000030SPEAKER ASM                   M IMCTM S5NB082TNTH  07070IMCT  S5 PTB  00015                    1030 SR        000000000000 DENSO TEN (THAILAND)17029NL0020020                                                                                                                              *          20180117 IMCT                IMCT                                                                                                                    WMF1801173.TXT
MDEDJ1268512201801                D89828070300PT1D20180122000060SPEAKER ASM                   M IMCTM S5NB082TNTH  07070IMCT  S5 PTB  00015                    1300 SR        000000000000 DENSO TEN (THAILAND)17039NL000200217046QL0033033                                                                                                                *          20180117 IMCT                IMCT                                                                                                                    WMF1801173.TXT
MDEDJ1268513201801                D89831229000PT1D20180121000015RADIO;AM/FM,CD                M IMCTM S5NC06 TNTH  07070IMCT  S5 PTB  00003                    0230 SR        000000000000 DENSO TEN (THAILAND)17002RL0007007                                                                                                                              *          20180117 IMCT                IMCT                                                                                                                    WMF1801173.TXT
MDEDJ1268514201801                D89831229000PT1D20180122000015RADIO;AM/FM,CD                M IMCTM S5NC06 TNTH  07070IMCT  S5 PTB  00003                    0830 SR        000000000000 DENSO TEN (THAILAND)17037RL0013013                                                                                                                              *          20180117 IMCT                IMCT                                                                                                                    WMF1801173.TXT
MDEUJ1252097201801                D89828070100PT4U20180120000030SPEAKER ASM                   M IMCTM S0FL05 TNTH  07070IMCT  S0 PTB  00004                    2230 SR        000000000000 DENSO TEN (THAILAND)18026UU0115115                                                                                                                              *          20180117 IMCT                IMCT                                                                                                                    WMF1801173.TXT
MDEUJ1252098201801                D89828070100PT4U20180121000030SPEAKER ASM                   M IMCTM S0FL05 TNTH  07070IMCT  S0 PTB  00004                    0230 SR        000000000000 DENSO TEN (THAILAND)18023TU0238238                                                                                                                              *          20180117 IMCT                IMCT                                                                                                                    WMF1801173.TXT
MDEUJ1252099201801                D89828070100PT4U20180122000060SPEAKER ASM                   M IMCTM S0FL05 TNTH  07070IMCT  S0 PTB  00004                    0830 SR        000000000000 DENSO TEN (THAILAND)18022TU011911918026UU0116116                                                                                                                *          20180117 IMCT                IMCT                                                                                                                    WMF1801173.TXT
MDEUJ1252100201801                D89828070100PT4U20180122000060SPEAKER ASM                   M IMCTM S0FL05 TNTH  07070IMCT  S0 PTB  00004                    1300 SR        000000000000 DENSO TEN (THAILAND)18022TU012012018026UU0117117                                                                                                                *          20180117 IMCT                IMCT                                                                                                                    WMF1801173.TXT
MDEUJ1252101201801                D89828070100PT4U20180122000030SPEAKER ASM                   M IMCTM S0FL05 TNTH  07070IMCT  S0 PTB  00004                    2100 SR        000000000000 DENSO TEN (THAILAND)18022TU0121121                                                                                                                              *          20180117 IMCT                IMCT                                                                                                                    WMF1801173.TXT
MDEUJ1252102201801                D89828070200PV4U20180120000030SPEAKER ASM                   M IMCTM S0FR05 TNTH  07070IMCT  S0 PTB  00005                    2230 SR        000000000000 DENSO TEN (THAILAND)18026UU0115115                                                                                                                              *          20180117 IMCT                IMCT                                                                                                                    WMF1801173.TXT
MDEUJ1252103201801                D89828070200PV4U20180121000030SPEAKER ASM                   M IMCTM S0FR05 TNTH  07070IMCT  S0 PTB  00005                    0230 SR        000000000000 DENSO TEN (THAILAND)18023TU0238238                                                                                                                              *          20180117 IMCT                IMCT                                                                                                                    WMF1801173.TXT
MDEUJ1252104201801                D89828070200PV4U20180122000060SPEAKER ASM                   M IMCTM S0FR05 TNTH  07070IMCT  S0 PTB  00005                    0830 SR        000000000000 DENSO TEN (THAILAND)18022TU011911918026UU0116116                                                                                                                *          20180117 IMCT                IMCT                                                                                                                    WMF1801173.TXT
MDEUJ1252105201801                D89828070200PV4U20180122000060SPEAKER ASM                   M IMCTM S0FR05 TNTH  07070IMCT  S0 PTB  00005                    1300 SR        000000000000 DENSO TEN (THAILAND)18022TU012012018026UU0117117                                                                                                                *          20180117 IMCT                IMCT                                                                                                                    WMF1801173.TXT
MDEUJ1252106201801                D89828070200PV4U20180122000030SPEAKER ASM                   M IMCTM S0FR05 TNTH  07070IMCT  S0 PTB  00005                    2100 SR        000000000000 DENSO TEN (THAILAND)18022TU0121121                                                                                                                              *          20180117 IMCT                IMCT                                                                                                                    WMF1801173.TXT
MDEUJ1252107201801                D89828070300PT4U20180120000030SPEAKER ASM                   M IMCTM S9TS02 TNTH  07070IMCT  S9 PTB  00015                    2230 SR        000000000000 DENSO TEN (THAILAND)18026UU0115115                                                                                                                              *          20180117 IMCT                IMCT                                                                                                                    WMF1801173.TXT
MDEUJ1252108201801                D89828070300PT4U20180121000030SPEAKER ASM                   M IMCTM S9TS02 TNTH  07070IMCT  S9 PTB  00015                    0230 SR        000000000000 DENSO TEN (THAILAND)18023TU0238238                                                                                                                              *          20180117 IMCT                IMCT                                                                                                                    WMF1801173.TXT
MDEUJ1252109201801                D89828070300PT4U20180122000060SPEAKER ASM                   M IMCTM S9TS02 TNTH  07070IMCT  S9 PTB  00015                    0830 SR        000000000000 DENSO TEN (THAILAND)18022TU011911918026UU0116116                                                                                                                *          20180117 IMCT                IMCT                                                                                                                    WMF1801173.TXT
MDEUJ1252110201801                D89828070300PT4U20180122000060SPEAKER ASM                   M IMCTM S9TS02 TNTH  07070IMCT  S9 PTB  00015                    1300 SR        000000000000 DENSO TEN (THAILAND)18022TU012012018026UU0117117                                                                                                                *          20180117 IMCT                IMCT                                                                                                                    WMF1801173.TXT
MDEUJ1252111201801                D89828070300PT4U20180122000030SPEAKER ASM                   M IMCTM S9TS02 TNTH  07070IMCT  S9 PTB  00015                    2100 SR        000000000000 DENSO TEN (THAILAND)18022TU0121121                                                                                                                              *          20180117 IMCT                IMCT                                                                                                                    WMF1801173.TXT
