REC2018011720180117ISUZU                              34     
MAKK81092613201801D1               89805293700P3YK20180129000150SPEAKER ASM                   M IMCTM CM1    TNTH  07070IMKDC KA PTB  00003  K0                0900DES        000000000000 DENSO TEN (THAILAND)                                                                                                                                            *G         20180117 IMCT                IMCT                                                                                                                    WMF1801176.TXT
MAKK81092614201801D1               89805293700P3YK20180130000150SPEAKER ASM                   M IMCTM CM1    TNTH  07070IMKDC KA PTB  00003  K0                0900DES        000000000000 DENSO TEN (THAILAND)                                                                                                                                            *G         20180117 IMCT                IMCT                                                                                                                    WMF1801176.TXT
MAKK81092615201801D1               89805293700P3YK20180131000150SPEAKER ASM                   M IMCTM CM1    TNTH  07070IMKDC KA PTB  00003  K0                0900DES        000000000000 DENSO TEN (THAILAND)                                                                                                                                            *G         20180117 IMCT                IMCT                                                                                                                    WMF1801176.TXT
MAKK81092616201801D1               89805293700P3YK20180201000150SPEAKER ASM                   M IMCTM CM1    TNTH  07070IMKDC KA PTB  00003  K0                0900DES        000000000000 DENSO TEN (THAILAND)                                                                                                                                            *G         20180117 IMCT                IMCT                                                                                                                    WMF1801176.TXT
MAKK81092617201801D1               89805293700P3YK20180202000180SPEAKER ASM                   M IMCTM CM1    TNTH  07070IMKDC KA PTB  00003  K0                0900DES        000000000000 DENSO TEN (THAILAND)                                                                                                                                            *G         20180117 IMCT                IMCT                                                                                                                    WMF1801176.TXT
MAKK81092618201801D1               89805293700P3YK20180203000090SPEAKER ASM                   M IMCTM CM1    TNTH  07070IMKDC KA PTB  00003  K0                0900DES        000000000000 DENSO TEN (THAILAND)                                                                                                                                            *G         20180117 IMCT                IMCT                                                                                                                    WMF1801176.TXT
MAKK81092619201801D1               89805294000P3YK20180130000030SPEAKER ASM                   M IMCTM CM1    TNTH  07070IMKDC KA PTB  00015  K0                0900DES        000000000000 DENSO TEN (THAILAND)                                                                                                                                            *G         20180117 IMCT                IMCT                                                                                                                    WMF1801176.TXT
MAKK81092620201801D1               89805294000P3YK20180202000030SPEAKER ASM                   M IMCTM CM1    TNTH  07070IMKDC KA PTB  00015  K0                0900DES        000000000000 DENSO TEN (THAILAND)                                                                                                                                            *G         20180117 IMCT                IMCT                                                                                                                    WMF1801176.TXT
MAKK81092621201801D1               89805294000P3YK20180203000060SPEAKER ASM                   M IMCTM CM1    TNTH  07070IMKDC KA PTB  00015  K0                0900DES        000000000000 DENSO TEN (THAILAND)                                                                                                                                            *G         20180117 IMCT                IMCT                                                                                                                    WMF1801176.TXT
MAKK81092622201801D1               89805294100P3YK20180130000030SPEAKER ASM                   M IMCTM CM1    TNTH  07070IMKDC KA PTB  00005  K0                0900DES        000000000000 DENSO TEN (THAILAND)                                                                                                                                            *G         20180117 IMCT                IMCT                                                                                                                    WMF1801176.TXT
MAKK81092623201801D1               89805294100P3YK20180202000030SPEAKER ASM                   M IMCTM CM1    TNTH  07070IMKDC KA PTB  00005  K0                0900DES        000000000000 DENSO TEN (THAILAND)                                                                                                                                            *G         20180117 IMCT                IMCT                                                                                                                    WMF1801176.TXT
MAKK81092624201801D1               89805294100P3YK20180203000060SPEAKER ASM                   M IMCTM CM1    TNTH  07070IMKDC KA PTB  00005  K0                0900DES        000000000000 DENSO TEN (THAILAND)                                                                                                                                            *G         20180117 IMCT                IMCT                                                                                                                    WMF1801176.TXT
MAKK81092625201801D1               89825451200P3YK20180129000060SPEAKER ASM;ROOF              M IMCTM CM1    TNTH  07070IMKDC KA PTB  00036  K0                0900DES        000000000000 DENSO TEN (THAILAND)                                                                                                                                            *G         20180117 IMCT                IMCT                                                                                                                    WMF1801176.TXT
MAKK81092626201801D1               89825451200P3YK20180130000060SPEAKER ASM;ROOF              M IMCTM CM1    TNTH  07070IMKDC KA PTB  00036  K0                0900DES        000000000000 DENSO TEN (THAILAND)                                                                                                                                            *G         20180117 IMCT                IMCT                                                                                                                    WMF1801176.TXT
MAKK81092627201801D1               89825451200P3YK20180131000060SPEAKER ASM;ROOF              M IMCTM CM1    TNTH  07070IMKDC KA PTB  00036  K0                0900DES        000000000000 DENSO TEN (THAILAND)                                                                                                                                            *G         20180117 IMCT                IMCT                                                                                                                    WMF1801176.TXT
MAKK81092628201801D1               89825451200P3YK20180202000060SPEAKER ASM;ROOF              M IMCTM CM1    TNTH  07070IMKDC KA PTB  00036  K0                0900DES        000000000000 DENSO TEN (THAILAND)                                                                                                                                            *G         20180117 IMCT                IMCT                                                                                                                    WMF1801176.TXT
MAKK81092629201801D1               89825451200P3YK20180203000090SPEAKER ASM;ROOF              M IMCTM CM1    TNTH  07070IMKDC KA PTB  00036  K0                0900DES        000000000000 DENSO TEN (THAILAND)                                                                                                                                            *G         20180117 IMCT                IMCT                                                                                                                    WMF1801176.TXT
MAKK81092630201801D1               89828070100P3YK20180129000180SPEAKER ASM                   M IMCTM CM1    TNTH  07070IMKDC KA PTB  00004  K0                0900DES        000000000000 DENSO TEN (THAILAND)                                                                                                                                            *G         20180117 IMCT                IMCT                                                                                                                    WMF1801176.TXT
MAKK81092631201801D1               89828070100P3YK20180130000150SPEAKER ASM                   M IMCTM CM1    TNTH  07070IMKDC KA PTB  00004  K0                0900DES        000000000000 DENSO TEN (THAILAND)                                                                                                                                            *G         20180117 IMCT                IMCT                                                                                                                    WMF1801176.TXT
MAKK81092632201801D1               89828070100P3YK20180131000210SPEAKER ASM                   M IMCTM CM1    TNTH  07070IMKDC KA PTB  00004  K0                0900DES        000000000000 DENSO TEN (THAILAND)                                                                                                                                            *G         20180117 IMCT                IMCT                                                                                                                    WMF1801176.TXT
MAKK81092633201801D1               89828070100P3YK20180201000150SPEAKER ASM                   M IMCTM CM1    TNTH  07070IMKDC KA PTB  00004  K0                0900DES        000000000000 DENSO TEN (THAILAND)                                                                                                                                            *G         20180117 IMCT                IMCT                                                                                                                    WMF1801176.TXT
MAKK81092634201801D1               89828070100P3YK20180202000150SPEAKER ASM                   M IMCTM CM1    TNTH  07070IMKDC KA PTB  00004  K0                0900DES        000000000000 DENSO TEN (THAILAND)                                                                                                                                            *G         20180117 IMCT                IMCT                                                                                                                    WMF1801176.TXT
MAKK81092635201801D1               89828070100P3YK20180203000240SPEAKER ASM                   M IMCTM CM1    TNTH  07070IMKDC KA PTB  00004  K0                0900DES        000000000000 DENSO TEN (THAILAND)                                                                                                                                            *G         20180117 IMCT                IMCT                                                                                                                    WMF1801176.TXT
MAKK81092636201801D1               89828070200P3YK20180130000090SPEAKER ASM                   M IMCTM CM1    TNTH  07070IMKDC KA PTB  00005  K0                0900DES        000000000000 DENSO TEN (THAILAND)                                                                                                                                            *G         20180117 IMCT                IMCT                                                                                                                    WMF1801176.TXT
MAKK81092637201801D1               89828070200P3YK20180131000030SPEAKER ASM                   M IMCTM CM1    TNTH  07070IMKDC KA PTB  00005  K0                0900DES        000000000000 DENSO TEN (THAILAND)                                                                                                                                            *G         20180117 IMCT                IMCT                                                                                                                    WMF1801176.TXT
MAKK81092638201801D1               89828070200P3YK20180203000090SPEAKER ASM                   M IMCTM CM1    TNTH  07070IMKDC KA PTB  00005  K0                0900DES        000000000000 DENSO TEN (THAILAND)                                                                                                                                            *G         20180117 IMCT                IMCT                                                                                                                    WMF1801176.TXT
MAKK81092639201801D1               89828070300P3YK20180129000030SPEAKER ASM                   M IMCTM CM1    TNTH  07070IMKDC KA PTB  00015  K0                0900DES        000000000000 DENSO TEN (THAILAND)                                                                                                                                            *G         20180117 IMCT                IMCT                                                                                                                    WMF1801176.TXT
MAKK81092640201801D1               89828070300P3YK20180130000120SPEAKER ASM                   M IMCTM CM1    TNTH  07070IMKDC KA PTB  00015  K0                0900DES        000000000000 DENSO TEN (THAILAND)                                                                                                                                            *G         20180117 IMCT                IMCT                                                                                                                    WMF1801176.TXT
MAKK81092641201801D1               89828070300P3YK20180131000090SPEAKER ASM                   M IMCTM CM1    TNTH  07070IMKDC KA PTB  00015  K0                0900DES        000000000000 DENSO TEN (THAILAND)                                                                                                                                            *G         20180117 IMCT                IMCT                                                                                                                    WMF1801176.TXT
MAKK81092642201801D1               89828070300P3YK20180201000030SPEAKER ASM                   M IMCTM CM1    TNTH  07070IMKDC KA PTB  00015  K0                0900DES        000000000000 DENSO TEN (THAILAND)                                                                                                                                            *G         20180117 IMCT                IMCT                                                                                                                    WMF1801176.TXT
MAKK81092643201801D1               89828070300P3YK20180202000060SPEAKER ASM                   M IMCTM CM1    TNTH  07070IMKDC KA PTB  00015  K0                0900DES        000000000000 DENSO TEN (THAILAND)                                                                                                                                            *G         20180117 IMCT                IMCT                                                                                                                    WMF1801176.TXT
MAKK81092644201801D1               89828070300P3YK20180203000090SPEAKER ASM                   M IMCTM CM1    TNTH  07070IMKDC KA PTB  00015  K0                0900DES        000000000000 DENSO TEN (THAILAND)                                                                                                                                            *G         20180117 IMCT                IMCT                                                                                                                    WMF1801176.TXT
MAKK81092645201801D1               89834050100P3YK20180131000015RADIO;ASM DVD                 M IMCTM CM1    TNTH  07070IMKDC KA PTB  00003  K0                0900DES        000000000000 DENSO TEN (THAILAND)                                                                                                                                            *G         20180117 IMCT                IMCT                                                                                                                    WMF1801176.TXT
MAKK81092646201801D1               89834050100P3YK20180203000015RADIO;ASM DVD                 M IMCTM CM1    TNTH  07070IMKDC KA PTB  00003  K0                0900DES        000000000000 DENSO TEN (THAILAND)                                                                                                                                            *G         20180117 IMCT                IMCT                                                                                                                    WMF1801176.TXT
