REC2018012320180123ISUZU                              69     
MDDDJ1253741201801                D89821984430PT1D20180127000030RADIO;AM/FM,CD                M IMCTM S5NC06 TNTH  07070IMCT  S5 PTB  00005                    0230 SR        000000000000 DENSO TEN (THAILAND)180LRAL0113113                                                                                                                              *          20180123 IMCT                IMCT                                                                                                                    WMF1801233.TXT
MDDDJ1253742201801                D89821984430PT1D20180127000030RADIO;AM/FM,CD                M IMCTM S5NC06 TNTH  07070IMCT  S5 PTB  00005                    0400 SR        000000000000 DENSO TEN (THAILAND)180LNGL0081081                                                                                                                              *          20180123 IMCT                IMCT                                                                                                                    WMF1801233.TXT
MDDDJ1253743201801                D89821984430PT1D20180127000030RADIO;AM/FM,CD                M IMCTM S5NC06 TNTH  07070IMCT  S5 PTB  00005                    2230 SR        000000000000 DENSO TEN (THAILAND)180LXFL0001001                                                                                                                              *          20180123 IMCT                IMCT                                                                                                                    WMF1801233.TXT
MDDDJ1253744201801                D89828070100PV1D20180127000060SPEAKER ASM                   M IMCTM S5MB11 TNTH  07070IMCT  S5 PTB  00004                    0230 SR        000000000000 DENSO TEN (THAILAND)180LRAL0113113                                                                                                                              *          20180123 IMCT                IMCT                                                                                                                    WMF1801233.TXT
MDDDJ1253745201801                D89828070100PV1D20180127000060SPEAKER ASM                   M IMCTM S5MB11 TNTH  07070IMCT  S5 PTB  00004                    0400 SR        000000000000 DENSO TEN (THAILAND)180LNGL0081081                                                                                                                              *          20180123 IMCT                IMCT                                                                                                                    WMF1801233.TXT
MDDDJ1253746201801                D89828070100PV1D20180127000060SPEAKER ASM                   M IMCTM S5MB11 TNTH  07070IMCT  S5 PTB  00004                    1030 SR        000000000000 DENSO TEN (THAILAND)180LPEL0006006                                                                                                                              *          20180123 IMCT                IMCT                                                                                                                    WMF1801233.TXT
MDDDJ1253747201801                D89828070100PV1D20180127000060SPEAKER ASM                   M IMCTM S5MB11 TNTH  07070IMCT  S5 PTB  00004                    1300 SR        000000000000 DENSO TEN (THAILAND)180LXAL0002002                                                                                                                              *          20180123 IMCT                IMCT                                                                                                                    WMF1801233.TXT
MDDDJ1253748201801                D89828070100PV1D20180127000060SPEAKER ASM                   M IMCTM S5MB11 TNTH  07070IMCT  S5 PTB  00004                    2230 SR        000000000000 DENSO TEN (THAILAND)180LXFL0001001                                                                                                                              *          20180123 IMCT                IMCT                                                                                                                    WMF1801233.TXT
MDDDJ1253749201801                D89828070300PT1D20180127000060SPEAKER ASM                   M IMCTM S5NB082TNTH  07070IMCT  S5 PTB  00015                    1030 SR        000000000000 DENSO TEN (THAILAND)180LPEL0006006                                                                                                                              *          20180123 IMCT                IMCT                                                                                                                    WMF1801233.TXT
MDDDJ1253750201801                D89831228300PT1D20180127000030RADIO;AM/FM,CD                M IMCTM S5NC06 TNTH  07070IMCT  S5 CPB  00003                    1030 SR        000000000000 DENSO TEN (THAILAND)180LPEL0006006                                                                                                                              *          20180123 IMCT                IMCT                                                                                                                    WMF1801233.TXT
MDDUJ1240293201801                D89828070100PT4U20180127000030SPEAKER ASM                   M IMCTM S0FL05 TNTH  07070IMCT  S0 PTB  00004                    0230 SR        000000000000 DENSO TEN (THAILAND)180LURU0014014                                                                                                                              *          20180123 IMCT                IMCT                                                                                                                    WMF1801233.TXT
MDDUJ1240294201801                D89828070100PT4U20180127000030SPEAKER ASM                   M IMCTM S0FL05 TNTH  07070IMCT  S0 PTB  00004                    1030 SR        000000000000 DENSO TEN (THAILAND)180LUQU0006006                                                                                                                              *          20180123 IMCT                IMCT                                                                                                                    WMF1801233.TXT
MDDUJ1240295201801                D89828070100PT4U20180127000030SPEAKER ASM                   M IMCTM S0FL05 TNTH  07070IMCT  S0 PTB  00004                    1300 SR        000000000000 DENSO TEN (THAILAND)180LUTU0008008                                                                                                                              *          20180123 IMCT                IMCT                                                                                                                    WMF1801233.TXT
MDDUJ1240296201801                D89828070100PT4U20180127000030SPEAKER ASM                   M IMCTM S0FL05 TNTH  07070IMCT  S0 PTB  00004                    2230 SR        000000000000 DENSO TEN (THAILAND)180LULU0012012                                                                                                                              *          20180123 IMCT                IMCT                                                                                                                    WMF1801233.TXT
MDDUJ1240297201801                D89828070200PV4U20180127000030SPEAKER ASM                   M IMCTM S0FR05 TNTH  07070IMCT  S0 PTB  00005                    0230 SR        000000000000 DENSO TEN (THAILAND)180LURU0014014                                                                                                                              *          20180123 IMCT                IMCT                                                                                                                    WMF1801233.TXT
MDDUJ1240298201801                D89828070200PV4U20180127000030SPEAKER ASM                   M IMCTM S0FR05 TNTH  07070IMCT  S0 PTB  00005                    1030 SR        000000000000 DENSO TEN (THAILAND)180LUQU0006006                                                                                                                              *          20180123 IMCT                IMCT                                                                                                                    WMF1801233.TXT
MDDUJ1240299201801                D89828070200PV4U20180127000030SPEAKER ASM                   M IMCTM S0FR05 TNTH  07070IMCT  S0 PTB  00005                    1300 SR        000000000000 DENSO TEN (THAILAND)180LUTU0008008                                                                                                                              *          20180123 IMCT                IMCT                                                                                                                    WMF1801233.TXT
MDDUJ1240300201801                D89828070200PV4U20180127000030SPEAKER ASM                   M IMCTM S0FR05 TNTH  07070IMCT  S0 PTB  00005                    2230 SR        000000000000 DENSO TEN (THAILAND)180LULU0012012                                                                                                                              *          20180123 IMCT                IMCT                                                                                                                    WMF1801233.TXT
MDDUJ1240301201801                D89828070300PT4U20180127000030SPEAKER ASM                   M IMCTM S9TS02 TNTH  07070IMCT  S9 PTB  00015                    0230 SR        000000000000 DENSO TEN (THAILAND)180LURU0014014                                                                                                                              *          20180123 IMCT                IMCT                                                                                                                    WMF1801233.TXT
MDDUJ1240302201801                D89828070300PT4U20180127000030SPEAKER ASM                   M IMCTM S9TS02 TNTH  07070IMCT  S9 PTB  00015                    1030 SR        000000000000 DENSO TEN (THAILAND)180LUQU0006006                                                                                                                              *          20180123 IMCT                IMCT                                                                                                                    WMF1801233.TXT
MDDUJ1240303201801                D89828070300PT4U20180127000030SPEAKER ASM                   M IMCTM S9TS02 TNTH  07070IMCT  S9 PTB  00015                    1300 SR        000000000000 DENSO TEN (THAILAND)180LUTU0008008                                                                                                                              *          20180123 IMCT                IMCT                                                                                                                    WMF1801233.TXT
MDDUJ1240304201801                D89828070300PT4U20180127000030SPEAKER ASM                   M IMCTM S9TS02 TNTH  07070IMCT  S9 PTB  00015                    2230 SR        000000000000 DENSO TEN (THAILAND)180LULU0012012                                                                                                                              *          20180123 IMCT                IMCT                                                                                                                    WMF1801233.TXT
MDDUJ1240305201801                D89848584200PT4U20180127000015RADIO;AM/FM CD D              M IMCTM S9CO001TNTH  07070IMCT  S9 PTB  00003                    1030 SR        000000000000 DENSO TEN (THAILAND)180LUQU0006006                                                                                                                              *          20180123 IMCT                IMCT                                                                                                                    WMF1801233.TXT
MDEDJ1307168201801                D89805293700PV1D20180126000030SPEAKER ASM                   M IMCTM S5MB14 TNTH  07070IMCT  S5 PTB  00003                    2230 SR        000000000000 DENSO TEN (THAILAND)15021DL0008008                                                                                                                              *          20180123 IMCT                IMCT                                                                                                                    WMF1801233.TXT
MDEDJ1307169201801                D89805293700PV1D20180127000030SPEAKER ASM                   M IMCTM S5MB14 TNTH  07070IMCT  S5 PTB  00003                    0230 SR        000000000000 DENSO TEN (THAILAND)15021DL0009009                                                                                                                              *          20180123 IMCT                IMCT                                                                                                                    WMF1801233.TXT
MDEDJ1307170201801                D89828070100PV1D20180126000060SPEAKER ASM                   M IMCTM S5MB11 TNTH  07070IMCT  S5 PTB  00004                    2230 SR        000000000000 DENSO TEN (THAILAND)17028NL002702717075PL0087087                                                                                                                *          20180123 IMCT                IMCT                                                                                                                    WMF1801233.TXT
MDEDJ1307171201801                D89828070100PV1D20180127000030SPEAKER ASM                   M IMCTM S5MB11 TNTH  07070IMCT  S5 PTB  00004                    0400 SR        000000000000 DENSO TEN (THAILAND)17067WL0007007                                                                                                                              *          20180123 IMCT                IMCT                                                                                                                    WMF1801233.TXT
MDEDJ1307172201801                D89828070100PV1D20180127000060SPEAKER ASM                   M IMCTM S5MB11 TNTH  07070IMCT  S5 PTB  00004                    0830 SR        000000000000 DENSO TEN (THAILAND)17054PL005705717067WL0008008                                                                                                                *          20180123 IMCT                IMCT                                                                                                                    WMF1801233.TXT
MDEDJ1307173201801                D89828070100PV1D20180127000030SPEAKER ASM                   M IMCTM S5MB11 TNTH  07070IMCT  S5 PTB  00004                    1030 SR        000000000000 DENSO TEN (THAILAND)17054PL0058058                                                                                                                              *          20180123 IMCT                IMCT                                                                                                                    WMF1801233.TXT
MDEDJ1307174201801                D89828070100PV1D20180127000060SPEAKER ASM                   M IMCTM S5MB11 TNTH  07070IMCT  S5 PTB  00004                    1300 SR        000000000000 DENSO TEN (THAILAND)18007ZL0073074                                                                                                                              *          20180123 IMCT                IMCT                                                                                                                    WMF1801233.TXT
MDEDJ1307175201801                D89828070100PV1D20180127000060SPEAKER ASM                   M IMCTM S5MB11 TNTH  07070IMCT  S5 PTB  00004                    1600 SR        000000000000 DENSO TEN (THAILAND)17056NL005005017057NL0051051                                                                                                                *          20180123 IMCT                IMCT                                                                                                                    WMF1801233.TXT
MDEDJ1307176201801                D89828070100PV1D20180127000060SPEAKER ASM                   M IMCTM S5MB11 TNTH  07070IMCT  S5 PTB  00004                    2100 SR        000000000000 DENSO TEN (THAILAND)18010ZL0034035                                                                                                                              *          20180123 IMCT                IMCT                                                                                                                    WMF1801233.TXT
MDEDJ1307177201801                D89828070100PV4D20180127000030SPEAKER ASM                   M IMCTM S0FL05 TNTH  07070IMCT  S0 PTB  00004                    0400 SR        000000000000 DENSO TEN (THAILAND)17074NU0046046                                                                                                                              *          20180123 IMCT                IMCT                                                                                                                    WMF1801233.TXT
MDEDJ1307178201801                D89828070100PV4D20180127000030SPEAKER ASM                   M IMCTM S0FL05 TNTH  07070IMCT  S0 PTB  00004                    1300 SR        000000000000 DENSO TEN (THAILAND)17050RU0016016                                                                                                                              *          20180123 IMCT                IMCT                                                                                                                    WMF1801233.TXT
MDEDJ1307179201801                D89828070200PV1D20180127000030SPEAKER ASM                   M IMCTM S5MA14 TNTH  07070IMCT  S5 PTB  00005                    0400 SR        000000000000 DENSO TEN (THAILAND)17067WL0007007                                                                                                                              *          20180123 IMCT                IMCT                                                                                                                    WMF1801233.TXT
MDEDJ1307180201801                D89828070200PV1D20180127000030SPEAKER ASM                   M IMCTM S5MA14 TNTH  07070IMCT  S5 PTB  00005                    0830 SR        000000000000 DENSO TEN (THAILAND)17067WL0008008                                                                                                                              *          20180123 IMCT                IMCT                                                                                                                    WMF1801233.TXT
MDEDJ1307181201801                D89828070200PV1D20180127000030SPEAKER ASM                   M IMCTM S5MA14 TNTH  07070IMCT  S5 PTB  00005                    1600 SR        000000000000 DENSO TEN (THAILAND)17057NL0051051                                                                                                                              *          20180123 IMCT                IMCT                                                                                                                    WMF1801233.TXT
MDEDJ1307182201801                D89828070200PV4D20180127000030SPEAKER ASM                   M IMCTM S0FR05 TNTH  07070IMCT  S0 PTB  00005                    0400 SR        000000000000 DENSO TEN (THAILAND)17074NU0046046                                                                                                                              *          20180123 IMCT                IMCT                                                                                                                    WMF1801233.TXT
MDEDJ1307183201801                D89828070200PV4D20180127000030SPEAKER ASM                   M IMCTM S0FR05 TNTH  07070IMCT  S0 PTB  00005                    1300 SR        000000000000 DENSO TEN (THAILAND)17050RU0016016                                                                                                                              *          20180123 IMCT                IMCT                                                                                                                    WMF1801233.TXT
MDEDJ1307184201801                D89828070300PT1D20180127000030SPEAKER ASM                   M IMCTM S5NB082TNTH  07070IMCT  S5 PTB  00015                    0400 SR        000000000000 DENSO TEN (THAILAND)17067WL0007007                                                                                                                              *          20180123 IMCT                IMCT                                                                                                                    WMF1801233.TXT
MDEDJ1307185201801                D89828070300PT1D20180127000030SPEAKER ASM                   M IMCTM S5NB082TNTH  07070IMCT  S5 PTB  00015                    0830 SR        000000000000 DENSO TEN (THAILAND)17067WL0008008                                                                                                                              *          20180123 IMCT                IMCT                                                                                                                    WMF1801233.TXT
MDEDJ1307186201801                D89828070300PT1D20180127000060SPEAKER ASM                   M IMCTM S5NB082TNTH  07070IMCT  S5 PTB  00015                    1600 SR        000000000000 DENSO TEN (THAILAND)17056NL005005017057NL0051051                                                                                                                *          20180123 IMCT                IMCT                                                                                                                    WMF1801233.TXT
MDEDJ1307187201801                D89828070300PT4D20180127000030SPEAKER ASM                   M IMCTM S9TS02 TNTH  07070IMCT  S9 PTB  00015                    0400 SR        000000000000 DENSO TEN (THAILAND)17074NU0046046                                                                                                                              *          20180123 IMCT                IMCT                                                                                                                    WMF1801233.TXT
MDEDJ1307188201801                D89828070300PT4D20180127000030SPEAKER ASM                   M IMCTM S9TS02 TNTH  07070IMCT  S9 PTB  00015                    1300 SR        000000000000 DENSO TEN (THAILAND)17050RU0016016                                                                                                                              *          20180123 IMCT                IMCT                                                                                                                    WMF1801233.TXT
MDEDJ1307189201801                D89829645410PT4D20180127000015RADIO;ASM DVD                 M IMCTM S9CO001TNTH  07070IMCT  S9 PTB  00003                    1300 SR        000000000000 DENSO TEN (THAILAND)17050RU0016016                                                                                                                              *          20180123 IMCT                IMCT                                                                                                                    WMF1801233.TXT
MDEDJ1307190201801                D89848581800PT1D20180127000015RADIO;AM/FM CD D              M IMCTM S5NC06 TNTH  07070IMCT  S5 PTB  00003                    1600 SR        000000000000 DENSO TEN (THAILAND)17057NL0051051                                                                                                                              *          20180123 IMCT                IMCT                                                                                                                    WMF1801233.TXT
MDEDJ1307191201801                D89848581800PT4D20180127000015RADIO;AM/FM CD D              M IMCTM S9CO001TNTH  07070IMCT  S9 PTB  00003                    0400 SR        000000000000 DENSO TEN (THAILAND)17074NU0046046                                                                                                                              *          20180123 IMCT                IMCT                                                                                                                    WMF1801233.TXT
MDEDJ1307192201801                D89848582500PT1D20180127000015RADIO;AM/FM CD D              M IMCTM S5NC06 TNTH  07070IMCT  S5 PTB  00003                    1600 SR        000000000000 DENSO TEN (THAILAND)17056NL0050050                                                                                                                              *          20180123 IMCT                IMCT                                                                                                                    WMF1801233.TXT
MDEUJ1275016201801                D89828070100PT4U20180126000060SPEAKER ASM                   M IMCTM S0FL05 TNTH  07070IMCT  S0 PTB  00004                    2230 SR        000000000000 DENSO TEN (THAILAND)18022TU012512518026UU0141141                                                                                                                *          20180123 IMCT                IMCT                                                                                                                    WMF1801233.TXT
MDEUJ1275017201801                D89828070100PT4U20180127000030SPEAKER ASM                   M IMCTM S0FL05 TNTH  07070IMCT  S0 PTB  00004                    0400 SR        000000000000 DENSO TEN (THAILAND)18023TU0241241                                                                                                                              *          20180123 IMCT                IMCT                                                                                                                    WMF1801233.TXT
MDEUJ1275018201801                D89828070100PT4U20180127000030SPEAKER ASM                   M IMCTM S0FL05 TNTH  07070IMCT  S0 PTB  00004                    0830 SR        000000000000 DENSO TEN (THAILAND)18026UU0142142                                                                                                                              *          20180123 IMCT                IMCT                                                                                                                    WMF1801233.TXT
MDEUJ1275019201801                D89828070100PT4U20180127000030SPEAKER ASM                   M IMCTM S0FL05 TNTH  07070IMCT  S0 PTB  00004                    1030 SR        000000000000 DENSO TEN (THAILAND)18026UU0143143                                                                                                                              *          20180123 IMCT                IMCT                                                                                                                    WMF1801233.TXT
MDEUJ1275020201801                D89828070100PT4U20180127000030SPEAKER ASM                   M IMCTM S0FL05 TNTH  07070IMCT  S0 PTB  00004                    1300 SR        000000000000 DENSO TEN (THAILAND)18026UU0144144                                                                                                                              *          20180123 IMCT                IMCT                                                                                                                    WMF1801233.TXT
MDEUJ1275021201801                D89828070100PT4U20180127000030SPEAKER ASM                   M IMCTM S0FL05 TNTH  07070IMCT  S0 PTB  00004                    1600 SR        000000000000 DENSO TEN (THAILAND)18026UU0145145                                                                                                                              *          20180123 IMCT                IMCT                                                                                                                    WMF1801233.TXT
MDEUJ1275022201801                D89828070100PT4U20180127000030SPEAKER ASM                   M IMCTM S0FL05 TNTH  07070IMCT  S0 PTB  00004                    2100 SR        000000000000 DENSO TEN (THAILAND)18026UU0146146                                                                                                                              *          20180123 IMCT                IMCT                                                                                                                    WMF1801233.TXT
MDEUJ1275023201801                D89828070200PV4U20180126000060SPEAKER ASM                   M IMCTM S0FR05 TNTH  07070IMCT  S0 PTB  00005                    2230 SR        000000000000 DENSO TEN (THAILAND)18022TU012512518026UU0141141                                                                                                                *          20180123 IMCT                IMCT                                                                                                                    WMF1801233.TXT
MDEUJ1275024201801                D89828070200PV4U20180127000030SPEAKER ASM                   M IMCTM S0FR05 TNTH  07070IMCT  S0 PTB  00005                    0400 SR        000000000000 DENSO TEN (THAILAND)18023TU0241241                                                                                                                              *          20180123 IMCT                IMCT                                                                                                                    WMF1801233.TXT
MDEUJ1275025201801                D89828070200PV4U20180127000030SPEAKER ASM                   M IMCTM S0FR05 TNTH  07070IMCT  S0 PTB  00005                    0830 SR        000000000000 DENSO TEN (THAILAND)18026UU0142142                                                                                                                              *          20180123 IMCT                IMCT                                                                                                                    WMF1801233.TXT
MDEUJ1275026201801                D89828070200PV4U20180127000030SPEAKER ASM                   M IMCTM S0FR05 TNTH  07070IMCT  S0 PTB  00005                    1030 SR        000000000000 DENSO TEN (THAILAND)18026UU0143143                                                                                                                              *          20180123 IMCT                IMCT                                                                                                                    WMF1801233.TXT
MDEUJ1275027201801                D89828070200PV4U20180127000030SPEAKER ASM                   M IMCTM S0FR05 TNTH  07070IMCT  S0 PTB  00005                    1300 SR        000000000000 DENSO TEN (THAILAND)18026UU0144144                                                                                                                              *          20180123 IMCT                IMCT                                                                                                                    WMF1801233.TXT
MDEUJ1275028201801                D89828070200PV4U20180127000030SPEAKER ASM                   M IMCTM S0FR05 TNTH  07070IMCT  S0 PTB  00005                    1600 SR        000000000000 DENSO TEN (THAILAND)18026UU0145145                                                                                                                              *          20180123 IMCT                IMCT                                                                                                                    WMF1801233.TXT
MDEUJ1275029201801                D89828070200PV4U20180127000030SPEAKER ASM                   M IMCTM S0FR05 TNTH  07070IMCT  S0 PTB  00005                    2100 SR        000000000000 DENSO TEN (THAILAND)18026UU0146146                                                                                                                              *          20180123 IMCT                IMCT                                                                                                                    WMF1801233.TXT
MDEUJ1275030201801                D89828070300PT4U20180126000060SPEAKER ASM                   M IMCTM S9TS02 TNTH  07070IMCT  S9 PTB  00015                    2230 SR        000000000000 DENSO TEN (THAILAND)18022TU012512518026UU0141141                                                                                                                *          20180123 IMCT                IMCT                                                                                                                    WMF1801233.TXT
MDEUJ1275031201801                D89828070300PT4U20180127000030SPEAKER ASM                   M IMCTM S9TS02 TNTH  07070IMCT  S9 PTB  00015                    0400 SR        000000000000 DENSO TEN (THAILAND)18023TU0241241                                                                                                                              *          20180123 IMCT                IMCT                                                                                                                    WMF1801233.TXT
MDEUJ1275032201801                D89828070300PT4U20180127000030SPEAKER ASM                   M IMCTM S9TS02 TNTH  07070IMCT  S9 PTB  00015                    0830 SR        000000000000 DENSO TEN (THAILAND)18026UU0142142                                                                                                                              *          20180123 IMCT                IMCT                                                                                                                    WMF1801233.TXT
MDEUJ1275033201801                D89828070300PT4U20180127000030SPEAKER ASM                   M IMCTM S9TS02 TNTH  07070IMCT  S9 PTB  00015                    1030 SR        000000000000 DENSO TEN (THAILAND)18026UU0143143                                                                                                                              *          20180123 IMCT                IMCT                                                                                                                    WMF1801233.TXT
MDEUJ1275034201801                D89828070300PT4U20180127000030SPEAKER ASM                   M IMCTM S9TS02 TNTH  07070IMCT  S9 PTB  00015                    1300 SR        000000000000 DENSO TEN (THAILAND)18026UU0144144                                                                                                                              *          20180123 IMCT                IMCT                                                                                                                    WMF1801233.TXT
MDEUJ1275035201801                D89828070300PT4U20180127000030SPEAKER ASM                   M IMCTM S9TS02 TNTH  07070IMCT  S9 PTB  00015                    1600 SR        000000000000 DENSO TEN (THAILAND)18026UU0145145                                                                                                                              *          20180123 IMCT                IMCT                                                                                                                    WMF1801233.TXT
MDEUJ1275036201801                D89828070300PT4U20180127000030SPEAKER ASM                   M IMCTM S9TS02 TNTH  07070IMCT  S9 PTB  00015                    2100 SR        000000000000 DENSO TEN (THAILAND)18026UU0146146                                                                                                                              *          20180123 IMCT                IMCT                                                                                                                    WMF1801233.TXT
