REC2018012620180126ISUZU                              62     
MDDDJ1264981201801                D89821984430PT1D20180131000030RADIO;AM/FM,CD                M IMCTM S5NC06 TNTH  07070IMCT  S5 PTB  00005                    1300 SR        000000000000 DENSO TEN (THAILAND)180LRBL0013013                                                                                                                              *          20180126 IMCT                IMCT                                                                                                                    WMF1801265.TXT
MDDDJ1264982201801                D89828070100PV1D20180131000060SPEAKER ASM                   M IMCTM S5MB11 TNTH  07070IMCT  S5 PTB  00004                    0230 SR        000000000000 DENSO TEN (THAILAND)180LPKL0039039                                                                                                                              *          20180126 IMCT                IMCT                                                                                                                    WMF1801265.TXT
MDDDJ1264983201801                D89828070100PV1D20180131000060SPEAKER ASM                   M IMCTM S5MB11 TNTH  07070IMCT  S5 PTB  00004                    1030 SR        000000000000 DENSO TEN (THAILAND)180LXAL0003003                                                                                                                              *          20180126 IMCT                IMCT                                                                                                                    WMF1801265.TXT
MDDDJ1264984201801                D89828070100PV1D20180131000120SPEAKER ASM                   M IMCTM S5MB11 TNTH  07070IMCT  S5 PTB  00004                    1300 SR        000000000000 DENSO TEN (THAILAND)180LPFL0001001180LRBL0013013                                                                                                                *          20180126 IMCT                IMCT                                                                                                                    WMF1801265.TXT
MDDDJ1264985201801                D89828070100PV1D20180131000060SPEAKER ASM                   M IMCTM S5MB11 TNTH  07070IMCT  S5 PTB  00004                    1600 SR        000000000000 DENSO TEN (THAILAND)180LPFL0002002                                                                                                                              *          20180126 IMCT                IMCT                                                                                                                    WMF1801265.TXT
MDDDJ1264986201801                D89828070100PV1D20180131000060SPEAKER ASM                   M IMCTM S5MB11 TNTH  07070IMCT  S5 PTB  00004                    2100 SR        000000000000 DENSO TEN (THAILAND)180LPGL0142142                                                                                                                              *          20180126 IMCT                IMCT                                                                                                                    WMF1801265.TXT
MDDDJ1264987201801                D89828070300PT1D20180131000060SPEAKER ASM                   M IMCTM S5NB082TNTH  07070IMCT  S5 PTB  00015                    0230 SR        000000000000 DENSO TEN (THAILAND)180LPKL0039039                                                                                                                              *          20180126 IMCT                IMCT                                                                                                                    WMF1801265.TXT
MDDDJ1264988201801                D89828070300PT1D20180131000060SPEAKER ASM                   M IMCTM S5NB082TNTH  07070IMCT  S5 PTB  00015                    1300 SR        000000000000 DENSO TEN (THAILAND)180LPFL0001001                                                                                                                              *          20180126 IMCT                IMCT                                                                                                                    WMF1801265.TXT
MDDDJ1264989201801                D89828070300PT1D20180131000060SPEAKER ASM                   M IMCTM S5NB082TNTH  07070IMCT  S5 PTB  00015                    1600 SR        000000000000 DENSO TEN (THAILAND)180LPFL0002002                                                                                                                              *          20180126 IMCT                IMCT                                                                                                                    WMF1801265.TXT
MDDDJ1264990201801                D89828070300PT1D20180131000060SPEAKER ASM                   M IMCTM S5NB082TNTH  07070IMCT  S5 PTB  00015                    2100 SR        000000000000 DENSO TEN (THAILAND)180LPGL0142142                                                                                                                              *          20180126 IMCT                IMCT                                                                                                                    WMF1801265.TXT
MDDDJ1264991201801                D89831228300PT1D20180131000030RADIO;AM/FM,CD                M IMCTM S5NC06 TNTH  07070IMCT  S5 CPB  00003                    1300 SR        000000000000 DENSO TEN (THAILAND)180LPFL0001001                                                                                                                              *          20180126 IMCT                IMCT                                                                                                                    WMF1801265.TXT
MDDDJ1264992201801                D89831228300PT1D20180131000030RADIO;AM/FM,CD                M IMCTM S5NC06 TNTH  07070IMCT  S5 CPB  00003                    1600 SR        000000000000 DENSO TEN (THAILAND)180LPFL0002002                                                                                                                              *          20180126 IMCT                IMCT                                                                                                                    WMF1801265.TXT
MDDDJ1264993201801                D89831228300PT1D20180131000030RADIO;AM/FM,CD                M IMCTM S5NC06 TNTH  07070IMCT  S5 CPB  00003                    2100 SR        000000000000 DENSO TEN (THAILAND)180LPGL0142142                                                                                                                              *          20180126 IMCT                IMCT                                                                                                                    WMF1801265.TXT
MDDDJ1264994201801                D89848581600PT1D20180131000030RADIO;AM/FM CD D              M IMCTM S5NC06 TNTH  07070IMCT  S5 PTB  00003                    0230 SR        000000000000 DENSO TEN (THAILAND)180LPKL0039039                                                                                                                              *          20180126 IMCT                IMCT                                                                                                                    WMF1801265.TXT
MDDUJ1250116201801                D89828070100PT4U20180130000030SPEAKER ASM                   M IMCTM S0FL05 TNTH  07070IMCT  S0 PTB  00004                    2230 SR        000000000000 DENSO TEN (THAILAND)180LUNU0003003                                                                                                                              *          20180126 IMCT                IMCT                                                                                                                    WMF1801265.TXT
MDDUJ1250117201801                D89828070100PT4U20180131000030SPEAKER ASM                   M IMCTM S0FL05 TNTH  07070IMCT  S0 PTB  00004                    0230 SR        000000000000 DENSO TEN (THAILAND)180LUSU0010010                                                                                                                              *          20180126 IMCT                IMCT                                                                                                                    WMF1801265.TXT
MDDUJ1250118201801                D89828070100PT4U20180131000030SPEAKER ASM                   M IMCTM S0FL05 TNTH  07070IMCT  S0 PTB  00004                    0400 SR        000000000000 DENSO TEN (THAILAND)180LURU0019019                                                                                                                              *          20180126 IMCT                IMCT                                                                                                                    WMF1801265.TXT
MDDUJ1250119201801                D89828070100PT4U20180131000030SPEAKER ASM                   M IMCTM S0FL05 TNTH  07070IMCT  S0 PTB  00004                    1030 SR        000000000000 DENSO TEN (THAILAND)180LURU0020020                                                                                                                              *          20180126 IMCT                IMCT                                                                                                                    WMF1801265.TXT
MDDUJ1250120201801                D89828070100PT4U20180131000030SPEAKER ASM                   M IMCTM S0FL05 TNTH  07070IMCT  S0 PTB  00004                    1300 SR        000000000000 DENSO TEN (THAILAND)180LUQU0009009                                                                                                                              *          20180126 IMCT                IMCT                                                                                                                    WMF1801265.TXT
MDDUJ1250121201801                D89828070200PV4U20180130000030SPEAKER ASM                   M IMCTM S0FR05 TNTH  07070IMCT  S0 PTB  00005                    2230 SR        000000000000 DENSO TEN (THAILAND)180LUNU0003003                                                                                                                              *          20180126 IMCT                IMCT                                                                                                                    WMF1801265.TXT
MDDUJ1250122201801                D89828070200PV4U20180131000030SPEAKER ASM                   M IMCTM S0FR05 TNTH  07070IMCT  S0 PTB  00005                    0230 SR        000000000000 DENSO TEN (THAILAND)180LUSU0010010                                                                                                                              *          20180126 IMCT                IMCT                                                                                                                    WMF1801265.TXT
MDDUJ1250123201801                D89828070200PV4U20180131000030SPEAKER ASM                   M IMCTM S0FR05 TNTH  07070IMCT  S0 PTB  00005                    0400 SR        000000000000 DENSO TEN (THAILAND)180LURU0019019                                                                                                                              *          20180126 IMCT                IMCT                                                                                                                    WMF1801265.TXT
MDDUJ1250124201801                D89828070200PV4U20180131000030SPEAKER ASM                   M IMCTM S0FR05 TNTH  07070IMCT  S0 PTB  00005                    1030 SR        000000000000 DENSO TEN (THAILAND)180LURU0020020                                                                                                                              *          20180126 IMCT                IMCT                                                                                                                    WMF1801265.TXT
MDDUJ1250125201801                D89828070200PV4U20180131000030SPEAKER ASM                   M IMCTM S0FR05 TNTH  07070IMCT  S0 PTB  00005                    1300 SR        000000000000 DENSO TEN (THAILAND)180LUQU0009009                                                                                                                              *          20180126 IMCT                IMCT                                                                                                                    WMF1801265.TXT
MDDUJ1250126201801                D89828070300PT4U20180130000030SPEAKER ASM                   M IMCTM S9TS02 TNTH  07070IMCT  S9 PTB  00015                    2230 SR        000000000000 DENSO TEN (THAILAND)180LUNU0003003                                                                                                                              *          20180126 IMCT                IMCT                                                                                                                    WMF1801265.TXT
MDDUJ1250127201801                D89828070300PT4U20180131000030SPEAKER ASM                   M IMCTM S9TS02 TNTH  07070IMCT  S9 PTB  00015                    0230 SR        000000000000 DENSO TEN (THAILAND)180LUSU0010010                                                                                                                              *          20180126 IMCT                IMCT                                                                                                                    WMF1801265.TXT
MDDUJ1250128201801                D89828070300PT4U20180131000030SPEAKER ASM                   M IMCTM S9TS02 TNTH  07070IMCT  S9 PTB  00015                    0400 SR        000000000000 DENSO TEN (THAILAND)180LURU0019019                                                                                                                              *          20180126 IMCT                IMCT                                                                                                                    WMF1801265.TXT
MDDUJ1250129201801                D89828070300PT4U20180131000030SPEAKER ASM                   M IMCTM S9TS02 TNTH  07070IMCT  S9 PTB  00015                    1030 SR        000000000000 DENSO TEN (THAILAND)180LURU0020020                                                                                                                              *          20180126 IMCT                IMCT                                                                                                                    WMF1801265.TXT
MDDUJ1250130201801                D89828070300PT4U20180131000030SPEAKER ASM                   M IMCTM S9TS02 TNTH  07070IMCT  S9 PTB  00015                    1300 SR        000000000000 DENSO TEN (THAILAND)180LUQU0009009                                                                                                                              *          20180126 IMCT                IMCT                                                                                                                    WMF1801265.TXT
MDDUJ1250131201801                D89848584200PT4U20180130000015RADIO;AM/FM CD D              M IMCTM S9CO001TNTH  07070IMCT  S9 PTB  00003                    2230 SR        000000000000 DENSO TEN (THAILAND)180LUNU0003003                                                                                                                              *          20180126 IMCT                IMCT                                                                                                                    WMF1801265.TXT
MDDUJ1250132201801                D89848584200PT4U20180131000015RADIO;AM/FM CD D              M IMCTM S9CO001TNTH  07070IMCT  S9 PTB  00003                    1300 SR        000000000000 DENSO TEN (THAILAND)180LUQU0009009                                                                                                                              *          20180126 IMCT                IMCT                                                                                                                    WMF1801265.TXT
MDEDJ1327122201801                D89828070100PV1D20180130000060SPEAKER ASM                   M IMCTM S5MB11 TNTH  07070IMCT  S5 PTB  00004                    2230 SR        000000000000 DENSO TEN (THAILAND)17075PL0095096                                                                                                                              *          20180126 IMCT                IMCT                                                                                                                    WMF1801265.TXT
MDEDJ1327123201801                D89828070100PV1D20180131000060SPEAKER ASM                   M IMCTM S5MB11 TNTH  07070IMCT  S5 PTB  00004                    0230 SR        000000000000 DENSO TEN (THAILAND)17027NL000300317074NL0098098                                                                                                                *          20180126 IMCT                IMCT                                                                                                                    WMF1801265.TXT
MDEDJ1327124201801                D89828070100PV1D20180131000060SPEAKER ASM                   M IMCTM S5MB11 TNTH  07070IMCT  S5 PTB  00004                    0400 SR        000000000000 DENSO TEN (THAILAND)17028RL0022023                                                                                                                              *          20180126 IMCT                IMCT                                                                                                                    WMF1801265.TXT
MDEDJ1327125201801                D89828070100PV1D20180131000060SPEAKER ASM                   M IMCTM S5MB11 TNTH  07070IMCT  S5 PTB  00004                    0830 SR        000000000000 DENSO TEN (THAILAND)18010ZL0038039                                                                                                                              *          20180126 IMCT                IMCT                                                                                                                    WMF1801265.TXT
MDEDJ1327126201801                D89828070100PV1D20180131000030SPEAKER ASM                   M IMCTM S5MB11 TNTH  07070IMCT  S5 PTB  00004                    1030 SR        000000000000 DENSO TEN (THAILAND)17031NL0016016                                                                                                                              *          20180126 IMCT                IMCT                                                                                                                    WMF1801265.TXT
MDEDJ1327127201801                D89828070100PV1D20180131000030SPEAKER ASM                   M IMCTM S5MB11 TNTH  07070IMCT  S5 PTB  00004                    1300 SR        000000000000 DENSO TEN (THAILAND)17047RL0007007                                                                                                                              *          20180126 IMCT                IMCT                                                                                                                    WMF1801265.TXT
MDEDJ1327128201801                D89828070100PV4D20180131000030SPEAKER ASM                   M IMCTM S0FL05 TNTH  07070IMCT  S0 PTB  00004                    0400 SR        000000000000 DENSO TEN (THAILAND)17026NU0006006                                                                                                                              *          20180126 IMCT                IMCT                                                                                                                    WMF1801265.TXT
MDEDJ1327129201801                D89828070100PV4D20180131000030SPEAKER ASM                   M IMCTM S0FL05 TNTH  07070IMCT  S0 PTB  00004                    1300 SR        000000000000 DENSO TEN (THAILAND)17074NU0051051                                                                                                                              *          20180126 IMCT                IMCT                                                                                                                    WMF1801265.TXT
MDEDJ1327130201801                D89828070200PV1D20180131000030SPEAKER ASM                   M IMCTM S5MA14 TNTH  07070IMCT  S5 PTB  00005                    0230 SR        000000000000 DENSO TEN (THAILAND)17074NL0098098                                                                                                                              *          20180126 IMCT                IMCT                                                                                                                    WMF1801265.TXT
MDEDJ1327131201801                D89828070200PV1D20180131000030SPEAKER ASM                   M IMCTM S5MA14 TNTH  07070IMCT  S5 PTB  00005                    1300 SR        000000000000 DENSO TEN (THAILAND)17047RL0007007                                                                                                                              *          20180126 IMCT                IMCT                                                                                                                    WMF1801265.TXT
MDEDJ1327132201801                D89828070200PV4D20180131000030SPEAKER ASM                   M IMCTM S0FR05 TNTH  07070IMCT  S0 PTB  00005                    0400 SR        000000000000 DENSO TEN (THAILAND)17026NU0006006                                                                                                                              *          20180126 IMCT                IMCT                                                                                                                    WMF1801265.TXT
MDEDJ1327133201801                D89828070200PV4D20180131000030SPEAKER ASM                   M IMCTM S0FR05 TNTH  07070IMCT  S0 PTB  00005                    1300 SR        000000000000 DENSO TEN (THAILAND)17074NU0051051                                                                                                                              *          20180126 IMCT                IMCT                                                                                                                    WMF1801265.TXT
MDEDJ1327134201801                D89828070300PT1D20180131000030SPEAKER ASM                   M IMCTM S5NB082TNTH  07070IMCT  S5 PTB  00015                    0230 SR        000000000000 DENSO TEN (THAILAND)17074NL0098098                                                                                                                              *          20180126 IMCT                IMCT                                                                                                                    WMF1801265.TXT
MDEDJ1327135201801                D89828070300PT1D20180131000030SPEAKER ASM                   M IMCTM S5NB082TNTH  07070IMCT  S5 PTB  00015                    1300 SR        000000000000 DENSO TEN (THAILAND)17047RL0007007                                                                                                                              *          20180126 IMCT                IMCT                                                                                                                    WMF1801265.TXT
MDEDJ1327136201801                D89828070300PT4D20180131000030SPEAKER ASM                   M IMCTM S9TS02 TNTH  07070IMCT  S9 PTB  00015                    0400 SR        000000000000 DENSO TEN (THAILAND)17026NU0006006                                                                                                                              *          20180126 IMCT                IMCT                                                                                                                    WMF1801265.TXT
MDEDJ1327137201801                D89828070300PT4D20180131000030SPEAKER ASM                   M IMCTM S9TS02 TNTH  07070IMCT  S9 PTB  00015                    1300 SR        000000000000 DENSO TEN (THAILAND)17074NU0051051                                                                                                                              *          20180126 IMCT                IMCT                                                                                                                    WMF1801265.TXT
MDEDJ1327138201801                D89831229000PT1D20180131000015RADIO;AM/FM,CD                M IMCTM S5NC06 TNTH  07070IMCT  S5 PTB  00003                    1300 SR        000000000000 DENSO TEN (THAILAND)17047RL0007007                                                                                                                              *          20180126 IMCT                IMCT                                                                                                                    WMF1801265.TXT
MDEDJ1327139201801                D89848581800PT1D20180131000015RADIO;AM/FM CD D              M IMCTM S5NC06 TNTH  07070IMCT  S5 PTB  00003                    0230 SR        000000000000 DENSO TEN (THAILAND)17074NL0098098                                                                                                                              *          20180126 IMCT                IMCT                                                                                                                    WMF1801265.TXT
MDEDJ1327140201801                D89848581800PT4D20180131000015RADIO;AM/FM CD D              M IMCTM S9CO001TNTH  07070IMCT  S9 PTB  00003                    1300 SR        000000000000 DENSO TEN (THAILAND)17074NU0051051                                                                                                                              *          20180126 IMCT                IMCT                                                                                                                    WMF1801265.TXT
MDEUJ1285622201801                D89828070100PT4U20180131000030SPEAKER ASM                   M IMCTM S0FL05 TNTH  07070IMCT  S0 PTB  00004                    0830 SR        000000000000 DENSO TEN (THAILAND)18023UU0017017                                                                                                                              *          20180126 IMCT                IMCT                                                                                                                    WMF1801265.TXT
MDEUJ1285623201801                D89828070100PT4U20180131000030SPEAKER ASM                   M IMCTM S0FL05 TNTH  07070IMCT  S0 PTB  00004                    1300 SR        000000000000 DENSO TEN (THAILAND)18024UU0021021                                                                                                                              *          20180126 IMCT                IMCT                                                                                                                    WMF1801265.TXT
MDEUJ1285624201801                D89828070100PT4U20180131000030SPEAKER ASM                   M IMCTM S0FL05 TNTH  07070IMCT  S0 PTB  00004                    1600 SR        000000000000 DENSO TEN (THAILAND)18026UU0152152                                                                                                                              *          20180126 IMCT                IMCT                                                                                                                    WMF1801265.TXT
MDEUJ1285625201801                D89828070100PT4U20180131000030SPEAKER ASM                   M IMCTM S0FL05 TNTH  07070IMCT  S0 PTB  00004                    2100 SR        000000000000 DENSO TEN (THAILAND)18024UU0022022                                                                                                                              *          20180126 IMCT                IMCT                                                                                                                    WMF1801265.TXT
MDEUJ1285626201801                D89828070200PV4U20180131000030SPEAKER ASM                   M IMCTM S0FR05 TNTH  07070IMCT  S0 PTB  00005                    0830 SR        000000000000 DENSO TEN (THAILAND)18023UU0017017                                                                                                                              *          20180126 IMCT                IMCT                                                                                                                    WMF1801265.TXT
MDEUJ1285627201801                D89828070200PV4U20180131000030SPEAKER ASM                   M IMCTM S0FR05 TNTH  07070IMCT  S0 PTB  00005                    1300 SR        000000000000 DENSO TEN (THAILAND)18024UU0021021                                                                                                                              *          20180126 IMCT                IMCT                                                                                                                    WMF1801265.TXT
MDEUJ1285628201801                D89828070200PV4U20180131000030SPEAKER ASM                   M IMCTM S0FR05 TNTH  07070IMCT  S0 PTB  00005                    1600 SR        000000000000 DENSO TEN (THAILAND)18026UU0152152                                                                                                                              *          20180126 IMCT                IMCT                                                                                                                    WMF1801265.TXT
MDEUJ1285629201801                D89828070200PV4U20180131000030SPEAKER ASM                   M IMCTM S0FR05 TNTH  07070IMCT  S0 PTB  00005                    2100 SR        000000000000 DENSO TEN (THAILAND)18024UU0022022                                                                                                                              *          20180126 IMCT                IMCT                                                                                                                    WMF1801265.TXT
MDEUJ1285630201801                D89828070300PT4U20180131000030SPEAKER ASM                   M IMCTM S9TS02 TNTH  07070IMCT  S9 PTB  00015                    0830 SR        000000000000 DENSO TEN (THAILAND)18023UU0017017                                                                                                                              *          20180126 IMCT                IMCT                                                                                                                    WMF1801265.TXT
MDEUJ1285631201801                D89828070300PT4U20180131000030SPEAKER ASM                   M IMCTM S9TS02 TNTH  07070IMCT  S9 PTB  00015                    1300 SR        000000000000 DENSO TEN (THAILAND)18024UU0021021                                                                                                                              *          20180126 IMCT                IMCT                                                                                                                    WMF1801265.TXT
MDEUJ1285632201801                D89828070300PT4U20180131000030SPEAKER ASM                   M IMCTM S9TS02 TNTH  07070IMCT  S9 PTB  00015                    1600 SR        000000000000 DENSO TEN (THAILAND)18026UU0152152                                                                                                                              *          20180126 IMCT                IMCT                                                                                                                    WMF1801265.TXT
MDEUJ1285633201801                D89828070300PT4U20180131000030SPEAKER ASM                   M IMCTM S9TS02 TNTH  07070IMCT  S9 PTB  00015                    2100 SR        000000000000 DENSO TEN (THAILAND)18024UU0022022                                                                                                                              *          20180126 IMCT                IMCT                                                                                                                    WMF1801265.TXT
