REC2018022620180226ISUZU                              71     
MDDDJ2277639201803                D89821984430PT1D20180302000030RADIO;AM/FM,CD                M IMCTM S5NC06 TNTH  07070IMCT  S5 PTB  00005                    0400 SR        000000000000 DENSO TEN (THAILAND)180LPAL0087087                                                                                                                              *          20180226 IMCT                IMCT                                                                                                                    WMF1802265.TXT
MDDDJ2277640201803                D89821984430PT1D20180302000030RADIO;AM/FM,CD                M IMCTM S5NC06 TNTH  07070IMCT  S5 PTB  00005                    0830 SR        000000000000 DENSO TEN (THAILAND)180LPAL0088088                                                                                                                              *          20180226 IMCT                IMCT                                                                                                                    WMF1802265.TXT
MDDDJ2277641201803                D89821984430PT1D20180302000030RADIO;AM/FM,CD                M IMCTM S5NC06 TNTH  07070IMCT  S5 PTB  00005                    1300 SR        000000000000 DENSO TEN (THAILAND)180LNGL0092092                                                                                                                              *          20180226 IMCT                IMCT                                                                                                                    WMF1802265.TXT
MDDDJ2277642201803                D89821984430PT1D20180302000030RADIO;AM/FM,CD                M IMCTM S5NC06 TNTH  07070IMCT  S5 PTB  00005                    1600 SR        000000000000 DENSO TEN (THAILAND)180LPAL0089089                                                                                                                              *          20180226 IMCT                IMCT                                                                                                                    WMF1802265.TXT
MDDDJ2277643201803                D89828070100PV1D20180302000060SPEAKER ASM                   M IMCTM S5MB11 TNTH  07070IMCT  S5 PTB  00004                    0400 SR        000000000000 DENSO TEN (THAILAND)180LPAL0087087                                                                                                                              *          20180226 IMCT                IMCT                                                                                                                    WMF1802265.TXT
MDDDJ2277644201803                D89828070100PV1D20180302000060SPEAKER ASM                   M IMCTM S5MB11 TNTH  07070IMCT  S5 PTB  00004                    0830 SR        000000000000 DENSO TEN (THAILAND)180LPAL0088088                                                                                                                              *          20180226 IMCT                IMCT                                                                                                                    WMF1802265.TXT
MDDDJ2277645201803                D89828070100PV1D20180302000060SPEAKER ASM                   M IMCTM S5MB11 TNTH  07070IMCT  S5 PTB  00004                    1300 SR        000000000000 DENSO TEN (THAILAND)180LNGL0092092                                                                                                                              *          20180226 IMCT                IMCT                                                                                                                    WMF1802265.TXT
MDDDJ2277646201803                D89828070100PV1D20180302000060SPEAKER ASM                   M IMCTM S5MB11 TNTH  07070IMCT  S5 PTB  00004                    1600 SR        000000000000 DENSO TEN (THAILAND)180LPAL0089089                                                                                                                              *          20180226 IMCT                IMCT                                                                                                                    WMF1802265.TXT
MDDDJ2277647201803                D89828070100PV1D20180302000060SPEAKER ASM                   M IMCTM S5MB11 TNTH  07070IMCT  S5 PTB  00004                    2100 SR        000000000000 DENSO TEN (THAILAND)180LXBL0004004                                                                                                                              *          20180226 IMCT                IMCT                                                                                                                    WMF1802265.TXT
MDDDJ2277648201803                D89828070100PV4D20180302000060SPEAKER ASM                   M IMCTM S0FL05 TNTH  07070IMCT  S0 PTB  00004                    1600 SR        000000000000 DENSO TEN (THAILAND)180LRHU0003003                                                                                                                              *          20180226 IMCT                IMCT                                                                                                                    WMF1802265.TXT
MDDDJ2277649201803                D89828070200PV4D20180302000060SPEAKER ASM                   M IMCTM S0FR05 TNTH  07070IMCT  S0 PTB  00005                    1600 SR        000000000000 DENSO TEN (THAILAND)180LRHU0003003                                                                                                                              *          20180226 IMCT                IMCT                                                                                                                    WMF1802265.TXT
MDDDJ2277650201803                D89828070300PT4D20180302000060SPEAKER ASM                   M IMCTM S9TS02 TNTH  07070IMCT  S9 PTB  00015                    1600 SR        000000000000 DENSO TEN (THAILAND)180LRHU0003003                                                                                                                              *          20180226 IMCT                IMCT                                                                                                                    WMF1802265.TXT
MDDDJ2277651201803                D89848581500PT4D20180302000030RADIO;AM/FM CD D              M IMCTM S9CO001TNTH  07070IMCT  S9 PTB  00003                    1600 SR        000000000000 DENSO TEN (THAILAND)180LRHU0003003                                                                                                                              *          20180226 IMCT                IMCT                                                                                                                    WMF1802265.TXT
MDDUJ2226728201803                D89828070100PT4U20180302000030SPEAKER ASM                   M IMCTM S0FL05 TNTH  07070IMCT  S0 PTB  00004                    0230 SR        000000000000 DENSO TEN (THAILAND)180LURU0021021                                                                                                                              *          20180226 IMCT                IMCT                                                                                                                    WMF1802265.TXT
MDDUJ2226729201803                D89828070100PT4U20180302000030SPEAKER ASM                   M IMCTM S0FL05 TNTH  07070IMCT  S0 PTB  00004                    1600 SR        000000000000 DENSO TEN (THAILAND)180LUQU0022022                                                                                                                              *          20180226 IMCT                IMCT                                                                                                                    WMF1802265.TXT
MDDUJ2226730201803                D89828070200PV4U20180302000030SPEAKER ASM                   M IMCTM S0FR05 TNTH  07070IMCT  S0 PTB  00005                    0230 SR        000000000000 DENSO TEN (THAILAND)180LURU0021021                                                                                                                              *          20180226 IMCT                IMCT                                                                                                                    WMF1802265.TXT
MDDUJ2226731201803                D89828070200PV4U20180302000030SPEAKER ASM                   M IMCTM S0FR05 TNTH  07070IMCT  S0 PTB  00005                    1600 SR        000000000000 DENSO TEN (THAILAND)180LUQU0022022                                                                                                                              *          20180226 IMCT                IMCT                                                                                                                    WMF1802265.TXT
MDDUJ2226732201803                D89828070300PT4U20180302000030SPEAKER ASM                   M IMCTM S9TS02 TNTH  07070IMCT  S9 PTB  00015                    0230 SR        000000000000 DENSO TEN (THAILAND)180LURU0021021                                                                                                                              *          20180226 IMCT                IMCT                                                                                                                    WMF1802265.TXT
MDDUJ2226733201803                D89828070300PT4U20180302000030SPEAKER ASM                   M IMCTM S9TS02 TNTH  07070IMCT  S9 PTB  00015                    1600 SR        000000000000 DENSO TEN (THAILAND)180LUQU0022022                                                                                                                              *          20180226 IMCT                IMCT                                                                                                                    WMF1802265.TXT
MDDUJ2226734201803                D89848584200PT4U20180302000015RADIO;AM/FM CD D              M IMCTM S9CO001TNTH  07070IMCT  S9 PTB  00003                    1600 SR        000000000000 DENSO TEN (THAILAND)180LUQU0022022                                                                                                                              *          20180226 IMCT                IMCT                                                                                                                    WMF1802265.TXT
MDEDJ2360450201803                D89828070100PV1D20180301000090SPEAKER ASM                   M IMCTM S5MB11 TNTH  07070IMCT  S5 PTB  00004                    2230 SR        000000000000 DENSO TEN (THAILAND)17075PL011711718082UL003403418099XL0001001                                                                                                  *          20180226 IMCT                IMCT                                                                                                                    WMF1802265.TXT
MDEDJ2360451201803                D89828070100PV1D20180302000060SPEAKER ASM                   M IMCTM S5MB11 TNTH  07070IMCT  S5 PTB  00004                    0230 SR        000000000000 DENSO TEN (THAILAND)17075PL011811818001YL0002002                                                                                                                *          20180226 IMCT                IMCT                                                                                                                    WMF1802265.TXT
MDEDJ2360452201803                D89828070100PV1D20180302000030SPEAKER ASM                   M IMCTM S5MB11 TNTH  07070IMCT  S5 PTB  00004                    0400 SR        000000000000 DENSO TEN (THAILAND)18001YL0003003                                                                                                                              *          20180226 IMCT                IMCT                                                                                                                    WMF1802265.TXT
MDEDJ2360453201803                D89828070100PV1D20180302000060SPEAKER ASM                   M IMCTM S5MB11 TNTH  07070IMCT  S5 PTB  00004                    0830 SR        000000000000 DENSO TEN (THAILAND)18001YL000400418098XL0001001                                                                                                                *          20180226 IMCT                IMCT                                                                                                                    WMF1802265.TXT
MDEDJ2360454201803                D89828070100PV1D20180302000030SPEAKER ASM                   M IMCTM S5MB11 TNTH  07070IMCT  S5 PTB  00004                    1030 SR        000000000000 DENSO TEN (THAILAND)18082XL0002002                                                                                                                              *          20180226 IMCT                IMCT                                                                                                                    WMF1802265.TXT
MDEDJ2360455201803                D89828070100PV1D20180302000090SPEAKER ASM                   M IMCTM S5MB11 TNTH  07070IMCT  S5 PTB  00004                    1300 SR        000000000000 DENSO TEN (THAILAND)17075PL011911918006YL000100118082XL0003003                                                                                                  *          20180226 IMCT                IMCT                                                                                                                    WMF1802265.TXT
MDEDJ2360456201803                D89828070100PV1D20180302000090SPEAKER ASM                   M IMCTM S5MB11 TNTH  07070IMCT  S5 PTB  00004                    1600 SR        000000000000 DENSO TEN (THAILAND)18008YL000200218031XL000100118056WL0001001                                                                                                  *          20180226 IMCT                IMCT                                                                                                                    WMF1802265.TXT
MDEDJ2360457201803                D89828070100PV4D20180301000030SPEAKER ASM                   M IMCTM S0FL05 TNTH  07070IMCT  S0 PTB  00004                    2230 SR        000000000000 DENSO TEN (THAILAND)18001VU0004004                                                                                                                              *          20180226 IMCT                IMCT                                                                                                                    WMF1802265.TXT
MDEDJ2360458201803                D89828070100PV4D20180302000030SPEAKER ASM                   M IMCTM S0FL05 TNTH  07070IMCT  S0 PTB  00004                    0830 SR        000000000000 DENSO TEN (THAILAND)18098UU0007007                                                                                                                              *          20180226 IMCT                IMCT                                                                                                                    WMF1802265.TXT
MDEDJ2360459201803                D89828070100PV4D20180302000030SPEAKER ASM                   M IMCTM S0FL05 TNTH  07070IMCT  S0 PTB  00004                    2100 SR        000000000000 DENSO TEN (THAILAND)18052XU0002002                                                                                                                              *          20180226 IMCT                IMCT                                                                                                                    WMF1802265.TXT
MDEDJ2360460201803                D89828070200PV1D20180301000060SPEAKER ASM                   M IMCTM S5MA14 TNTH  07070IMCT  S5 PTB  00005                    2230 SR        000000000000 DENSO TEN (THAILAND)18082UL003403418099XL0001001                                                                                                                *          20180226 IMCT                IMCT                                                                                                                    WMF1802265.TXT
MDEDJ2360461201803                D89828070200PV1D20180302000030SPEAKER ASM                   M IMCTM S5MA14 TNTH  07070IMCT  S5 PTB  00005                    0230 SR        000000000000 DENSO TEN (THAILAND)18001YL0002002                                                                                                                              *          20180226 IMCT                IMCT                                                                                                                    WMF1802265.TXT
MDEDJ2360462201803                D89828070200PV1D20180302000030SPEAKER ASM                   M IMCTM S5MA14 TNTH  07070IMCT  S5 PTB  00005                    0400 SR        000000000000 DENSO TEN (THAILAND)18001YL0003003                                                                                                                              *          20180226 IMCT                IMCT                                                                                                                    WMF1802265.TXT
MDEDJ2360463201803                D89828070200PV1D20180302000060SPEAKER ASM                   M IMCTM S5MA14 TNTH  07070IMCT  S5 PTB  00005                    0830 SR        000000000000 DENSO TEN (THAILAND)18001YL000400418098XL0001001                                                                                                                *          20180226 IMCT                IMCT                                                                                                                    WMF1802265.TXT
MDEDJ2360464201803                D89828070200PV1D20180302000030SPEAKER ASM                   M IMCTM S5MA14 TNTH  07070IMCT  S5 PTB  00005                    1300 SR        000000000000 DENSO TEN (THAILAND)18006YL0001001                                                                                                                              *          20180226 IMCT                IMCT                                                                                                                    WMF1802265.TXT
MDEDJ2360465201803                D89828070200PV1D20180302000060SPEAKER ASM                   M IMCTM S5MA14 TNTH  07070IMCT  S5 PTB  00005                    1600 SR        000000000000 DENSO TEN (THAILAND)18008YL000200218031XL0001001                                                                                                                *          20180226 IMCT                IMCT                                                                                                                    WMF1802265.TXT
MDEDJ2360466201803                D89828070200PV4D20180301000030SPEAKER ASM                   M IMCTM S0FR05 TNTH  07070IMCT  S0 PTB  00005                    2230 SR        000000000000 DENSO TEN (THAILAND)18001VU0004004                                                                                                                              *          20180226 IMCT                IMCT                                                                                                                    WMF1802265.TXT
MDEDJ2360467201803                D89828070200PV4D20180302000030SPEAKER ASM                   M IMCTM S0FR05 TNTH  07070IMCT  S0 PTB  00005                    0830 SR        000000000000 DENSO TEN (THAILAND)18098UU0007007                                                                                                                              *          20180226 IMCT                IMCT                                                                                                                    WMF1802265.TXT
MDEDJ2360468201803                D89828070200PV4D20180302000030SPEAKER ASM                   M IMCTM S0FR05 TNTH  07070IMCT  S0 PTB  00005                    2100 SR        000000000000 DENSO TEN (THAILAND)18052XU0002002                                                                                                                              *          20180226 IMCT                IMCT                                                                                                                    WMF1802265.TXT
MDEDJ2360469201803                D89828070300PT1D20180301000060SPEAKER ASM                   M IMCTM S5NB082TNTH  07070IMCT  S5 PTB  00015                    2230 SR        000000000000 DENSO TEN (THAILAND)18082UL003403418099XL0001001                                                                                                                *          20180226 IMCT                IMCT                                                                                                                    WMF1802265.TXT
MDEDJ2360470201803                D89828070300PT1D20180302000030SPEAKER ASM                   M IMCTM S5NB082TNTH  07070IMCT  S5 PTB  00015                    0230 SR        000000000000 DENSO TEN (THAILAND)18001YL0002002                                                                                                                              *          20180226 IMCT                IMCT                                                                                                                    WMF1802265.TXT
MDEDJ2360471201803                D89828070300PT1D20180302000030SPEAKER ASM                   M IMCTM S5NB082TNTH  07070IMCT  S5 PTB  00015                    0400 SR        000000000000 DENSO TEN (THAILAND)18001YL0003003                                                                                                                              *          20180226 IMCT                IMCT                                                                                                                    WMF1802265.TXT
MDEDJ2360472201803                D89828070300PT1D20180302000060SPEAKER ASM                   M IMCTM S5NB082TNTH  07070IMCT  S5 PTB  00015                    0830 SR        000000000000 DENSO TEN (THAILAND)18001YL000400418098XL0001001                                                                                                                *          20180226 IMCT                IMCT                                                                                                                    WMF1802265.TXT
MDEDJ2360473201803                D89828070300PT1D20180302000030SPEAKER ASM                   M IMCTM S5NB082TNTH  07070IMCT  S5 PTB  00015                    1300 SR        000000000000 DENSO TEN (THAILAND)18006YL0001001                                                                                                                              *          20180226 IMCT                IMCT                                                                                                                    WMF1802265.TXT
MDEDJ2360474201803                D89828070300PT1D20180302000090SPEAKER ASM                   M IMCTM S5NB082TNTH  07070IMCT  S5 PTB  00015                    1600 SR        000000000000 DENSO TEN (THAILAND)18008YL000200218031XL000100118056WL0001001                                                                                                  *          20180226 IMCT                IMCT                                                                                                                    WMF1802265.TXT
MDEDJ2360475201803                D89828070300PT4D20180301000030SPEAKER ASM                   M IMCTM S9TS02 TNTH  07070IMCT  S9 PTB  00015                    2230 SR        000000000000 DENSO TEN (THAILAND)18001VU0004004                                                                                                                              *          20180226 IMCT                IMCT                                                                                                                    WMF1802265.TXT
MDEDJ2360476201803                D89828070300PT4D20180302000030SPEAKER ASM                   M IMCTM S9TS02 TNTH  07070IMCT  S9 PTB  00015                    0830 SR        000000000000 DENSO TEN (THAILAND)18098UU0007007                                                                                                                              *          20180226 IMCT                IMCT                                                                                                                    WMF1802265.TXT
MDEDJ2360477201803                D89828070300PT4D20180302000030SPEAKER ASM                   M IMCTM S9TS02 TNTH  07070IMCT  S9 PTB  00015                    2100 SR        000000000000 DENSO TEN (THAILAND)18052XU0002002                                                                                                                              *          20180226 IMCT                IMCT                                                                                                                    WMF1802265.TXT
MDEDJ2360478201803                D89831228900PT1D20180302000015RADIO;AM/FM,CD                M IMCTM S5NC06 TNTH  07070IMCT  S5 PTB  00003                    1600 SR        000000000000 DENSO TEN (THAILAND)18056WL0001001                                                                                                                              *          20180226 IMCT                IMCT                                                                                                                    WMF1802265.TXT
MDEDJ2360479201803                D89848581800PT1D20180301000015RADIO;AM/FM CD D              M IMCTM S5NC06 TNTH  07070IMCT  S5 PTB  00003                    2230 SR        000000000000 DENSO TEN (THAILAND)18082UL0034034                                                                                                                              *          20180226 IMCT                IMCT                                                                                                                    WMF1802265.TXT
MDEDJ2360480201803                D89848581800PT4D20180302000015RADIO;AM/FM CD D              M IMCTM S9CO001TNTH  07070IMCT  S9 PTB  00003                    0830 SR        000000000000 DENSO TEN (THAILAND)18098UU0007007                                                                                                                              *          20180226 IMCT                IMCT                                                                                                                    WMF1802265.TXT
MDEDJ2360481201803                D89848582100PT1D20180302000015RADIO;AM/FM CD D              M IMCTM S5NC06 TNTH  07070IMCT  S5 X    00030                    0830 SR        000000000000 DENSO TEN (THAILAND)18098XL0001001                                                                                                                              *          20180226 IMCT                IMCT                                                                                                                    WMF1802265.TXT
MDEDJ2360482201803                D89848582100PT1D20180302000015RADIO;AM/FM CD D              M IMCTM S5NC06 TNTH  07070IMCT  S5 X    00030                    1300 SR        000000000000 DENSO TEN (THAILAND)18006YL0001001                                                                                                                              *          20180226 IMCT                IMCT                                                                                                                    WMF1802265.TXT
MDEUJ2311144201803                D89828070100PT4U20180301000030SPEAKER ASM                   M IMCTM S0FL05 TNTH  07070IMCT  S0 PTB  00004                    2230 SR        000000000000 DENSO TEN (THAILAND)18026UU0195195                                                                                                                              *          20180226 IMCT                IMCT                                                                                                                    WMF1802265.TXT
MDEUJ2311145201803                D89828070100PT4U20180302000060SPEAKER ASM                   M IMCTM S0FL05 TNTH  07070IMCT  S0 PTB  00004                    0400 SR        000000000000 DENSO TEN (THAILAND)18026UU0196197                                                                                                                              *          20180226 IMCT                IMCT                                                                                                                    WMF1802265.TXT
MDEUJ2311146201803                D89828070100PT4U20180302000030SPEAKER ASM                   M IMCTM S0FL05 TNTH  07070IMCT  S0 PTB  00004                    0830 SR        000000000000 DENSO TEN (THAILAND)18021UU0034034                                                                                                                              *          20180226 IMCT                IMCT                                                                                                                    WMF1802265.TXT
MDEUJ2311147201803                D89828070100PT4U20180302000030SPEAKER ASM                   M IMCTM S0FL05 TNTH  07070IMCT  S0 PTB  00004                    1030 SR        000000000000 DENSO TEN (THAILAND)18026UU0198198                                                                                                                              *          20180226 IMCT                IMCT                                                                                                                    WMF1802265.TXT
MDEUJ2311148201803                D89828070100PT4U20180302000030SPEAKER ASM                   M IMCTM S0FL05 TNTH  07070IMCT  S0 PTB  00004                    1300 SR        000000000000 DENSO TEN (THAILAND)18049ZU0036036                                                                                                                              *          20180226 IMCT                IMCT                                                                                                                    WMF1802265.TXT
MDEUJ2311149201803                D89828070100PT4U20180302000060SPEAKER ASM                   M IMCTM S0FL05 TNTH  07070IMCT  S0 PTB  00004                    1600 SR        000000000000 DENSO TEN (THAILAND)18021UU003503518026UU0199199                                                                                                                *          20180226 IMCT                IMCT                                                                                                                    WMF1802265.TXT
MDEUJ2311150201803                D89828070200PV4U20180301000030SPEAKER ASM                   M IMCTM S0FR05 TNTH  07070IMCT  S0 PTB  00005                    2230 SR        000000000000 DENSO TEN (THAILAND)18026UU0195195                                                                                                                              *          20180226 IMCT                IMCT                                                                                                                    WMF1802265.TXT
MDEUJ2311151201803                D89828070200PV4U20180302000060SPEAKER ASM                   M IMCTM S0FR05 TNTH  07070IMCT  S0 PTB  00005                    0400 SR        000000000000 DENSO TEN (THAILAND)18026UU0196197                                                                                                                              *          20180226 IMCT                IMCT                                                                                                                    WMF1802265.TXT
MDEUJ2311152201803                D89828070200PV4U20180302000030SPEAKER ASM                   M IMCTM S0FR05 TNTH  07070IMCT  S0 PTB  00005                    0830 SR        000000000000 DENSO TEN (THAILAND)18021UU0034034                                                                                                                              *          20180226 IMCT                IMCT                                                                                                                    WMF1802265.TXT
MDEUJ2311153201803                D89828070200PV4U20180302000030SPEAKER ASM                   M IMCTM S0FR05 TNTH  07070IMCT  S0 PTB  00005                    1030 SR        000000000000 DENSO TEN (THAILAND)18026UU0198198                                                                                                                              *          20180226 IMCT                IMCT                                                                                                                    WMF1802265.TXT
MDEUJ2311154201803                D89828070200PV4U20180302000030SPEAKER ASM                   M IMCTM S0FR05 TNTH  07070IMCT  S0 PTB  00005                    1300 SR        000000000000 DENSO TEN (THAILAND)18049ZU0036036                                                                                                                              *          20180226 IMCT                IMCT                                                                                                                    WMF1802265.TXT
MDEUJ2311155201803                D89828070200PV4U20180302000060SPEAKER ASM                   M IMCTM S0FR05 TNTH  07070IMCT  S0 PTB  00005                    1600 SR        000000000000 DENSO TEN (THAILAND)18021UU003503518026UU0199199                                                                                                                *          20180226 IMCT                IMCT                                                                                                                    WMF1802265.TXT
MDEUJ2311156201803                D89828070300PT4U20180301000030SPEAKER ASM                   M IMCTM S9TS02 TNTH  07070IMCT  S9 PTB  00015                    2230 SR        000000000000 DENSO TEN (THAILAND)18026UU0195195                                                                                                                              *          20180226 IMCT                IMCT                                                                                                                    WMF1802265.TXT
MDEUJ2311157201803                D89828070300PT4U20180302000060SPEAKER ASM                   M IMCTM S9TS02 TNTH  07070IMCT  S9 PTB  00015                    0400 SR        000000000000 DENSO TEN (THAILAND)18026UU0196197                                                                                                                              *          20180226 IMCT                IMCT                                                                                                                    WMF1802265.TXT
MDEUJ2311158201803                D89828070300PT4U20180302000030SPEAKER ASM                   M IMCTM S9TS02 TNTH  07070IMCT  S9 PTB  00015                    0830 SR        000000000000 DENSO TEN (THAILAND)18021UU0034034                                                                                                                              *          20180226 IMCT                IMCT                                                                                                                    WMF1802265.TXT
MDEUJ2311159201803                D89828070300PT4U20180302000030SPEAKER ASM                   M IMCTM S9TS02 TNTH  07070IMCT  S9 PTB  00015                    1030 SR        000000000000 DENSO TEN (THAILAND)18026UU0198198                                                                                                                              *          20180226 IMCT                IMCT                                                                                                                    WMF1802265.TXT
MDEUJ2311160201803                D89828070300PT4U20180302000030SPEAKER ASM                   M IMCTM S9TS02 TNTH  07070IMCT  S9 PTB  00015                    1300 SR        000000000000 DENSO TEN (THAILAND)18049ZU0036036                                                                                                                              *          20180226 IMCT                IMCT                                                                                                                    WMF1802265.TXT
MDEUJ2311161201803                D89828070300PT4U20180302000060SPEAKER ASM                   M IMCTM S9TS02 TNTH  07070IMCT  S9 PTB  00015                    1600 SR        000000000000 DENSO TEN (THAILAND)18021UU003503518026UU0199199                                                                                                                *          20180226 IMCT                IMCT                                                                                                                    WMF1802265.TXT
