REC2018022020180220ISUZU                              25     
MDD6J2274311201802                D89828070100PV5620180223000120SPEAKER ASM                   M IMCTM G9B112 TNTH  07070G/WAY G9 PTB  00004                    2100 GW        0000000000005DENSO TEN (THAILAND)180LPGG0087087180LRLG0085085                                                                                                                *          20180220 IMCT                IMCT                                                                                                                    WMF1802202.TXT
MDD6J2274312201802                D89828070100PV5620180224000060SPEAKER ASM                   M IMCTM G9B112 TNTH  07070G/WAY G9 PTB  00004                    0200 GW        0000000000005DENSO TEN (THAILAND)180LREG0062062                                                                                                                              *          20180220 IMCT                IMCT                                                                                                                    WMF1802202.TXT
MDD6J2274313201802                D89828070100PV5620180224000120SPEAKER ASM                   M IMCTM G9B112 TNTH  07070G/WAY G9 PTB  00004                    0330 GW        0000000000005DENSO TEN (THAILAND)180LRKG0005005180LRNG0033033                                                                                                                *          20180220 IMCT                IMCT                                                                                                                    WMF1802202.TXT
MDD6J2274314201802                D89828070100PV5620180224000060SPEAKER ASM                   M IMCTM G9B112 TNTH  07070G/WAY G9 PTB  00004                    0900 GW        0000000000005DENSO TEN (THAILAND)180LPLG0005005                                                                                                                              *          20180220 IMCT                IMCT                                                                                                                    WMF1802202.TXT
MDD6J2274315201802                D89828070100PV5620180224000060SPEAKER ASM                   M IMCTM G9B112 TNTH  07070G/WAY G9 PTB  00004                    1100 GW        0000000000005DENSO TEN (THAILAND)180LRHG0192192                                                                                                                              *          20180220 IMCT                IMCT                                                                                                                    WMF1802202.TXT
MDD6J2274316201802                D89828070100PV5620180224000060SPEAKER ASM                   M IMCTM G9B112 TNTH  07070G/WAY G9 PTB  00004                    1400 GW        0000000000005DENSO TEN (THAILAND)180LRLG0086086                                                                                                                              *          20180220 IMCT                IMCT                                                                                                                    WMF1802202.TXT
MDD6J2274317201802                D89828070200PV5620180223000060SPEAKER ASM                   M IMCTM G9F132 TNTH  07070G/WAY G9 PTB  00005                    2100 GW        0000000000005DENSO TEN (THAILAND)180LRLG0085085                                                                                                                              *          20180220 IMCT                IMCT                                                                                                                    WMF1802202.TXT
MDD6J2274318201802                D89828070200PV5620180224000060SPEAKER ASM                   M IMCTM G9F132 TNTH  07070G/WAY G9 PTB  00005                    0200 GW        0000000000005DENSO TEN (THAILAND)180LREG0062062                                                                                                                              *          20180220 IMCT                IMCT                                                                                                                    WMF1802202.TXT
MDD6J2274319201802                D89828070200PV5620180224000120SPEAKER ASM                   M IMCTM G9F132 TNTH  07070G/WAY G9 PTB  00005                    0330 GW        0000000000005DENSO TEN (THAILAND)180LRKG0005005180LRNG0033033                                                                                                                *          20180220 IMCT                IMCT                                                                                                                    WMF1802202.TXT
MDD6J2274320201802                D89828070200PV5620180224000060SPEAKER ASM                   M IMCTM G9F132 TNTH  07070G/WAY G9 PTB  00005                    1100 GW        0000000000005DENSO TEN (THAILAND)180LRHG0192192                                                                                                                              *          20180220 IMCT                IMCT                                                                                                                    WMF1802202.TXT
MDD6J2274321201802                D89828070200PV5620180224000060SPEAKER ASM                   M IMCTM G9F132 TNTH  07070G/WAY G9 PTB  00005                    1400 GW        0000000000005DENSO TEN (THAILAND)180LRLG0086086                                                                                                                              *          20180220 IMCT                IMCT                                                                                                                    WMF1802202.TXT
MDD6J2274322201802                D89828070300PT5620180223000120SPEAKER ASM                   M IMCTM G9JB34 TNTH  07070G/WAY G9 PTB  00015                    2100 GW        0000000000005DENSO TEN (THAILAND)180LPGG0087087180LRLG0085085                                                                                                                *          20180220 IMCT                IMCT                                                                                                                    WMF1802202.TXT
MDD6J2274323201802                D89828070300PT5620180224000060SPEAKER ASM                   M IMCTM G9JB34 TNTH  07070G/WAY G9 PTB  00015                    0200 GW        0000000000005DENSO TEN (THAILAND)180LREG0062062                                                                                                                              *          20180220 IMCT                IMCT                                                                                                                    WMF1802202.TXT
MDD6J2274324201802                D89828070300PT5620180224000120SPEAKER ASM                   M IMCTM G9JB34 TNTH  07070G/WAY G9 PTB  00015                    0330 GW        0000000000005DENSO TEN (THAILAND)180LRKG0005005180LRNG0033033                                                                                                                *          20180220 IMCT                IMCT                                                                                                                    WMF1802202.TXT
MDD6J2274325201802                D89828070300PT5620180224000060SPEAKER ASM                   M IMCTM G9JB34 TNTH  07070G/WAY G9 PTB  00015                    0900 GW        0000000000005DENSO TEN (THAILAND)180LPLG0005005                                                                                                                              *          20180220 IMCT                IMCT                                                                                                                    WMF1802202.TXT
MDD6J2274326201802                D89828070300PT5620180224000060SPEAKER ASM                   M IMCTM G9JB34 TNTH  07070G/WAY G9 PTB  00015                    1100 GW        0000000000005DENSO TEN (THAILAND)180LRHG0192192                                                                                                                              *          20180220 IMCT                IMCT                                                                                                                    WMF1802202.TXT
MDD6J2274327201802                D89828070300PT5620180224000060SPEAKER ASM                   M IMCTM G9JB34 TNTH  07070G/WAY G9 PTB  00015                    1400 GW        0000000000005DENSO TEN (THAILAND)180LRLG0086086                                                                                                                              *          20180220 IMCT                IMCT                                                                                                                    WMF1802202.TXT
MDD6J2274328201802                D89831228300PT5620180223000030RADIO;AM/FM,CD                M IMCTM G9J311 TNTH  07070G/WAY G9 CPB  00003                    2100 GW        0000000000005DENSO TEN (THAILAND)180LPGG0087087                                                                                                                              *          20180220 IMCT                IMCT                                                                                                                    WMF1802202.TXT
MDD6J2274329201802                D89831228400PT5620180224000030RADIO;AM/FM,CD                M IMCTM G9J311 TNTH  07070G/WAY G9 CPB  00003                    0200 GW        0000000000005DENSO TEN (THAILAND)180LREG0062062                                                                                                                              *          20180220 IMCT                IMCT                                                                                                                    WMF1802202.TXT
MDD6J2274330201802                D89848581500PT5620180224000030RADIO;AM/FM CD D              M IMCTM G9J213 TNTH  07070G/WAY G9 PTB  00003                    0330 GW        0000000000005DENSO TEN (THAILAND)180LRKG0005005                                                                                                                              *          20180220 IMCT                IMCT                                                                                                                    WMF1802202.TXT
MDD6J2274331201802                D89848581500PT5620180224000030RADIO;AM/FM CD D              M IMCTM G9J213 TNTH  07070G/WAY G9 PTB  00003                    1100 GW        0000000000005DENSO TEN (THAILAND)180LRHG0192192                                                                                                                              *          20180220 IMCT                IMCT                                                                                                                    WMF1802202.TXT
MDD6J2274332201802                D89848581600PT5620180224000030RADIO;AM/FM CD D              M IMCTM G9J213 TNTH  07070G/WAY G9 PTB  00003                    0900 GW        0000000000005DENSO TEN (THAILAND)180LPLG0005005                                                                                                                              *          20180220 IMCT                IMCT                                                                                                                    WMF1802202.TXT
MDE6J2207670201802                D89828070100PV5620180223000060SPEAKER ASM                   M IMCTM G9B112 TNTH  07070G/WAY G9 PTB  00004                    2300 GW        0000000000005DENSO TEN (THAILAND)18084UG0001001                                                                                                                              *          20180220 IMCT                IMCT                                                                                                                    WMF1802202.TXT
MDE6J2207671201802                D89828070200PV5620180223000060SPEAKER ASM                   M IMCTM G9F132 TNTH  07070G/WAY G9 PTB  00005                    2300 GW        0000000000005DENSO TEN (THAILAND)18084UG0001001                                                                                                                              *          20180220 IMCT                IMCT                                                                                                                    WMF1802202.TXT
MDE6J2207672201802                D89828070300PT5620180223000060SPEAKER ASM                   M IMCTM G9JB34 TNTH  07070G/WAY G9 PTB  00015                    2300 GW        0000000000005DENSO TEN (THAILAND)18084UG0001001                                                                                                                              *          20180220 IMCT                IMCT                                                                                                                    WMF1802202.TXT
