REC2018022120180221ISUZU                              75     
MDDDJ2263623201802                D89821984430PT1D20180226000030RADIO;AM/FM,CD                M IMCTM S5NC06 TNTH  07070IMCT  S5 PTB  00005                    1300 SR        000000000000 DENSO TEN (THAILAND)180LRAL0133133                                                                                                                              *          20180221 IMCT                IMCT                                                                                                                    WMF1802214.TXT
MDDDJ2263624201802                D89828070100PV1D20180226000060SPEAKER ASM                   M IMCTM S5MB11 TNTH  07070IMCT  S5 PTB  00004                    1030 SR        000000000000 DENSO TEN (THAILAND)180LPJL0016016                                                                                                                              *          20180221 IMCT                IMCT                                                                                                                    WMF1802214.TXT
MDDDJ2263625201802                D89828070100PV1D20180226000060SPEAKER ASM                   M IMCTM S5MB11 TNTH  07070IMCT  S5 PTB  00004                    1300 SR        000000000000 DENSO TEN (THAILAND)180LRAL0133133                                                                                                                              *          20180221 IMCT                IMCT                                                                                                                    WMF1802214.TXT
MDDDJ2263626201802                D89828070100PV1D20180226000060SPEAKER ASM                   M IMCTM S5MB11 TNTH  07070IMCT  S5 PTB  00004                    1600 SR        000000000000 DENSO TEN (THAILAND)180LPEL0012012                                                                                                                              *          20180221 IMCT                IMCT                                                                                                                    WMF1802214.TXT
MDDDJ2263627201802                D89828070300PT1D20180226000060SPEAKER ASM                   M IMCTM S5NB082TNTH  07070IMCT  S5 PTB  00015                    1030 SR        000000000000 DENSO TEN (THAILAND)180LPJL0016016                                                                                                                              *          20180221 IMCT                IMCT                                                                                                                    WMF1802214.TXT
MDDDJ2263628201802                D89828070300PT1D20180226000060SPEAKER ASM                   M IMCTM S5NB082TNTH  07070IMCT  S5 PTB  00015                    1600 SR        000000000000 DENSO TEN (THAILAND)180LPEL0012012                                                                                                                              *          20180221 IMCT                IMCT                                                                                                                    WMF1802214.TXT
MDDDJ2263629201802                D89831228300PT1D20180226000030RADIO;AM/FM,CD                M IMCTM S5NC06 TNTH  07070IMCT  S5 CPB  00003                    1030 SR        000000000000 DENSO TEN (THAILAND)180LPJL0016016                                                                                                                              *          20180221 IMCT                IMCT                                                                                                                    WMF1802214.TXT
MDDDJ2263630201802                D89831228300PT1D20180226000030RADIO;AM/FM,CD                M IMCTM S5NC06 TNTH  07070IMCT  S5 CPB  00003                    1600 SR        000000000000 DENSO TEN (THAILAND)180LPEL0012012                                                                                                                              *          20180221 IMCT                IMCT                                                                                                                    WMF1802214.TXT
MDEDJ2327340201802                D89805293700PV1D20180224000030SPEAKER ASM                   M IMCTM S5MB14 TNTH  07070IMCT  S5 PTB  00003                    2230 SR        000000000000 DENSO TEN (THAILAND)15034DL0005005                                                                                                                              *          20180221 IMCT                IMCT                                                                                                                    WMF1802214.TXT
MDEDJ2327341201802                D89805293700PV1D20180226000030SPEAKER ASM                   M IMCTM S5MB14 TNTH  07070IMCT  S5 PTB  00003                    1030 SR        000000000000 DENSO TEN (THAILAND)15021DL0010010                                                                                                                              *          20180221 IMCT                IMCT                                                                                                                    WMF1802214.TXT
MDEDJ2327342201802                D89805293700PV1D20180226000030SPEAKER ASM                   M IMCTM S5MB14 TNTH  07070IMCT  S5 PTB  00003                    1600 SR        000000000000 DENSO TEN (THAILAND)15021DL0011011                                                                                                                              *          20180221 IMCT                IMCT                                                                                                                    WMF1802214.TXT
MDEDJ2327343201802                D89805294000PT1D20180224000030SPEAKER ASM                   M IMCTM S5NB082TNTH  07070IMCT  S5 PTB  00015                    2230 SR        000000000000 DENSO TEN (THAILAND)15034DL0005005                                                                                                                              *          20180221 IMCT                IMCT                                                                                                                    WMF1802214.TXT
MDEDJ2327344201802                D89805294200PT1D20180224000030SPEAKER ASM                   M IMCTM S5AS011TNTH  07070IMCT  S6 PTB  00030                    2230 SR        000000000000 DENSO TEN (THAILAND)15034DL0005005                                                                                                                              *          20180221 IMCT                IMCT                                                                                                                    WMF1802214.TXT
MDEDJ2327345201802                D89806470400PT1D20180224000015SPEAKER ASM;RDO,              M IMCTM S5EA18 TNTH  07070IMCT  S6 PTB  00015                    2230 SR        000000000000 DENSO TEN (THAILAND)15034DL0005005                                                                                                                              *          20180221 IMCT                IMCT                                                                                                                    WMF1802214.TXT
MDEDJ2327346201802                D89824360220PT1D20180224000015RADIO;AM/FM,CD                M IMCTM S5NC06 TNTH  07070IMCT  S5 CPB  00003                    2230 SR        000000000000 DENSO TEN (THAILAND)15034DL0005005                                                                                                                              *          20180221 IMCT                IMCT                                                                                                                    WMF1802214.TXT
MDEDJ2327347201802                D89828070100PV1D20180224000060SPEAKER ASM                   M IMCTM S5MB11 TNTH  07070IMCT  S5 PTB  00004                    2230 SR        000000000000 DENSO TEN (THAILAND)18069UL000400418082WL0001001                                                                                                                *          20180221 IMCT                IMCT                                                                                                                    WMF1802214.TXT
MDEDJ2327348201802                D89828070100PV1D20180225000090SPEAKER ASM                   M IMCTM S5MB11 TNTH  07070IMCT  S5 PTB  00004                    0230 SR        000000000000 DENSO TEN (THAILAND)17052RL002702718055WL000200218066UL0004004                                                                                                  *          20180221 IMCT                IMCT                                                                                                                    WMF1802214.TXT
MDEDJ2327349201802                D89828070100PV1D20180225000090SPEAKER ASM                   M IMCTM S5MB11 TNTH  07070IMCT  S5 PTB  00004                    0400 SR        000000000000 DENSO TEN (THAILAND)17028RL002402417052RL002802818065XL0001001                                                                                                  *          20180221 IMCT                IMCT                                                                                                                    WMF1802214.TXT
MDEDJ2327350201802                D89828070100PV1D20180226000060SPEAKER ASM                   M IMCTM S5MB11 TNTH  07070IMCT  S5 PTB  00004                    0830 SR        000000000000 DENSO TEN (THAILAND)17041TL0005006                                                                                                                              *          20180221 IMCT                IMCT                                                                                                                    WMF1802214.TXT
MDEDJ2327351201802                D89828070100PV1D20180226000030SPEAKER ASM                   M IMCTM S5MB11 TNTH  07070IMCT  S5 PTB  00004                    1030 SR        000000000000 DENSO TEN (THAILAND)18078XL0001001                                                                                                                              *          20180221 IMCT                IMCT                                                                                                                    WMF1802214.TXT
MDEDJ2327352201802                D89828070100PV1D20180226000030SPEAKER ASM                   M IMCTM S5MB11 TNTH  07070IMCT  S5 PTB  00004                    1300 SR        000000000000 DENSO TEN (THAILAND)18011XL0001001                                                                                                                              *          20180221 IMCT                IMCT                                                                                                                    WMF1802214.TXT
MDEDJ2327353201802                D89828070100PV1D20180226000030SPEAKER ASM                   M IMCTM S5MB11 TNTH  07070IMCT  S5 PTB  00004                    2100 SR        000000000000 DENSO TEN (THAILAND)17050RL0023023                                                                                                                              *          20180221 IMCT                IMCT                                                                                                                    WMF1802214.TXT
MDEDJ2327354201802                D89828070100PV1D20180226000030SPEAKER ASM                   M IMCTM S5MB11 TNTH  07070IMCT  S5 PTB  00004                    2230 SR        000000000000 DENSO TEN (THAILAND)17050RL0024024                                                                                                                              *          20180221 IMCT                IMCT                                                                                                                    WMF1802214.TXT
MDEDJ2327355201802                D89828070100PV4D20180224000030SPEAKER ASM                   M IMCTM S0FL05 TNTH  07070IMCT  S0 PTB  00004                    2230 SR        000000000000 DENSO TEN (THAILAND)18066UU0001001                                                                                                                              *          20180221 IMCT                IMCT                                                                                                                    WMF1802214.TXT
MDEDJ2327356201802                D89828070100PV4D20180226000030SPEAKER ASM                   M IMCTM S0FL05 TNTH  07070IMCT  S0 PTB  00004                    0830 SR        000000000000 DENSO TEN (THAILAND)18001VU0001001                                                                                                                              *          20180221 IMCT                IMCT                                                                                                                    WMF1802214.TXT
MDEDJ2327357201802                D89828070100PV4D20180226000030SPEAKER ASM                   M IMCTM S0FL05 TNTH  07070IMCT  S0 PTB  00004                    1600 SR        000000000000 DENSO TEN (THAILAND)18099UU0005005                                                                                                                              *          20180221 IMCT                IMCT                                                                                                                    WMF1802214.TXT
MDEDJ2327358201802                D89828070100PV4D20180226000030SPEAKER ASM                   M IMCTM S0FL05 TNTH  07070IMCT  S0 PTB  00004                    2230 SR        000000000000 DENSO TEN (THAILAND)18042ZU0001001                                                                                                                              *          20180221 IMCT                IMCT                                                                                                                    WMF1802214.TXT
MDEDJ2327359201802                D89828070200PV1D20180224000030SPEAKER ASM                   M IMCTM S5MA14 TNTH  07070IMCT  S5 PTB  00005                    2230 SR        000000000000 DENSO TEN (THAILAND)18069UL0004004                                                                                                                              *          20180221 IMCT                IMCT                                                                                                                    WMF1802214.TXT
MDEDJ2327360201802                D89828070200PV1D20180225000030SPEAKER ASM                   M IMCTM S5MA14 TNTH  07070IMCT  S5 PTB  00005                    0230 SR        000000000000 DENSO TEN (THAILAND)18066UL0004004                                                                                                                              *          20180221 IMCT                IMCT                                                                                                                    WMF1802214.TXT
MDEDJ2327361201802                D89828070200PV1D20180225000030SPEAKER ASM                   M IMCTM S5MA14 TNTH  07070IMCT  S5 PTB  00005                    0400 SR        000000000000 DENSO TEN (THAILAND)18065XL0001001                                                                                                                              *          20180221 IMCT                IMCT                                                                                                                    WMF1802214.TXT
MDEDJ2327362201802                D89828070200PV1D20180226000030SPEAKER ASM                   M IMCTM S5MA14 TNTH  07070IMCT  S5 PTB  00005                    2100 SR        000000000000 DENSO TEN (THAILAND)17050RL0023023                                                                                                                              *          20180221 IMCT                IMCT                                                                                                                    WMF1802214.TXT
MDEDJ2327363201802                D89828070200PV1D20180226000030SPEAKER ASM                   M IMCTM S5MA14 TNTH  07070IMCT  S5 PTB  00005                    2230 SR        000000000000 DENSO TEN (THAILAND)17050RL0024024                                                                                                                              *          20180221 IMCT                IMCT                                                                                                                    WMF1802214.TXT
MDEDJ2327364201802                D89828070200PV4D20180224000030SPEAKER ASM                   M IMCTM S0FR05 TNTH  07070IMCT  S0 PTB  00005                    2230 SR        000000000000 DENSO TEN (THAILAND)18066UU0001001                                                                                                                              *          20180221 IMCT                IMCT                                                                                                                    WMF1802214.TXT
MDEDJ2327365201802                D89828070200PV4D20180226000030SPEAKER ASM                   M IMCTM S0FR05 TNTH  07070IMCT  S0 PTB  00005                    0830 SR        000000000000 DENSO TEN (THAILAND)18001VU0001001                                                                                                                              *          20180221 IMCT                IMCT                                                                                                                    WMF1802214.TXT
MDEDJ2327366201802                D89828070200PV4D20180226000030SPEAKER ASM                   M IMCTM S0FR05 TNTH  07070IMCT  S0 PTB  00005                    1600 SR        000000000000 DENSO TEN (THAILAND)18099UU0005005                                                                                                                              *          20180221 IMCT                IMCT                                                                                                                    WMF1802214.TXT
MDEDJ2327367201802                D89828070300PT1D20180224000030SPEAKER ASM                   M IMCTM S5NB082TNTH  07070IMCT  S5 PTB  00015                    2230 SR        000000000000 DENSO TEN (THAILAND)18069UL0004004                                                                                                                              *          20180221 IMCT                IMCT                                                                                                                    WMF1802214.TXT
MDEDJ2327368201802                D89828070300PT1D20180225000060SPEAKER ASM                   M IMCTM S5NB082TNTH  07070IMCT  S5 PTB  00015                    0230 SR        000000000000 DENSO TEN (THAILAND)18055WL000200218066UL0004004                                                                                                                *          20180221 IMCT                IMCT                                                                                                                    WMF1802214.TXT
MDEDJ2327369201802                D89828070300PT1D20180225000030SPEAKER ASM                   M IMCTM S5NB082TNTH  07070IMCT  S5 PTB  00015                    0400 SR        000000000000 DENSO TEN (THAILAND)18065XL0001001                                                                                                                              *          20180221 IMCT                IMCT                                                                                                                    WMF1802214.TXT
MDEDJ2327370201802                D89828070300PT1D20180226000030SPEAKER ASM                   M IMCTM S5NB082TNTH  07070IMCT  S5 PTB  00015                    1030 SR        000000000000 DENSO TEN (THAILAND)18078XL0001001                                                                                                                              *          20180221 IMCT                IMCT                                                                                                                    WMF1802214.TXT
MDEDJ2327371201802                D89828070300PT1D20180226000030SPEAKER ASM                   M IMCTM S5NB082TNTH  07070IMCT  S5 PTB  00015                    1300 SR        000000000000 DENSO TEN (THAILAND)18011XL0001001                                                                                                                              *          20180221 IMCT                IMCT                                                                                                                    WMF1802214.TXT
MDEDJ2327372201802                D89828070300PT1D20180226000030SPEAKER ASM                   M IMCTM S5NB082TNTH  07070IMCT  S5 PTB  00015                    2100 SR        000000000000 DENSO TEN (THAILAND)17050RL0023023                                                                                                                              *          20180221 IMCT                IMCT                                                                                                                    WMF1802214.TXT
MDEDJ2327373201802                D89828070300PT1D20180226000030SPEAKER ASM                   M IMCTM S5NB082TNTH  07070IMCT  S5 PTB  00015                    2230 SR        000000000000 DENSO TEN (THAILAND)17050RL0024024                                                                                                                              *          20180221 IMCT                IMCT                                                                                                                    WMF1802214.TXT
MDEDJ2327374201802                D89828070300PT4D20180224000030SPEAKER ASM                   M IMCTM S9TS02 TNTH  07070IMCT  S9 PTB  00015                    2230 SR        000000000000 DENSO TEN (THAILAND)18066UU0001001                                                                                                                              *          20180221 IMCT                IMCT                                                                                                                    WMF1802214.TXT
MDEDJ2327375201802                D89828070300PT4D20180226000030SPEAKER ASM                   M IMCTM S9TS02 TNTH  07070IMCT  S9 PTB  00015                    0830 SR        000000000000 DENSO TEN (THAILAND)18001VU0001001                                                                                                                              *          20180221 IMCT                IMCT                                                                                                                    WMF1802214.TXT
MDEDJ2327376201802                D89828070300PT4D20180226000030SPEAKER ASM                   M IMCTM S9TS02 TNTH  07070IMCT  S9 PTB  00015                    1600 SR        000000000000 DENSO TEN (THAILAND)18099UU0005005                                                                                                                              *          20180221 IMCT                IMCT                                                                                                                    WMF1802214.TXT
MDEDJ2327377201802                D89828070300PT4D20180226000030SPEAKER ASM                   M IMCTM S9TS02 TNTH  07070IMCT  S9 PTB  00015                    2230 SR        000000000000 DENSO TEN (THAILAND)18042ZU0001001                                                                                                                              *          20180221 IMCT                IMCT                                                                                                                    WMF1802214.TXT
MDEDJ2327378201802                D89829645410PT1D20180226000015RADIO;ASM DVD                 M IMCTM S5NC06 TNTH  07070IMCT  S5 PTB  00003                    2100 SR        000000000000 DENSO TEN (THAILAND)17050RL0023023                                                                                                                              *          20180221 IMCT                IMCT                                                                                                                    WMF1802214.TXT
MDEDJ2327379201802                D89829645410PT1D20180226000015RADIO;ASM DVD                 M IMCTM S5NC06 TNTH  07070IMCT  S5 PTB  00003                    2230 SR        000000000000 DENSO TEN (THAILAND)17050RL0024024                                                                                                                              *          20180221 IMCT                IMCT                                                                                                                    WMF1802214.TXT
MDEDJ2327380201802                D89848581800PT1D20180225000015RADIO;AM/FM CD D              M IMCTM S5NC06 TNTH  07070IMCT  S5 PTB  00003                    0230 SR        000000000000 DENSO TEN (THAILAND)18066UL0004004                                                                                                                              *          20180221 IMCT                IMCT                                                                                                                    WMF1802214.TXT
MDEDJ2327381201802                D89848581800PT4D20180224000015RADIO;AM/FM CD D              M IMCTM S9CO001TNTH  07070IMCT  S9 PTB  00003                    2230 SR        000000000000 DENSO TEN (THAILAND)18066UU0001001                                                                                                                              *          20180221 IMCT                IMCT                                                                                                                    WMF1802214.TXT
MDEDJ2327382201802                D89848582800PT1D20180226000015RADIO;AM/FM CD D              M IMCTM S5NC06 TNTH  07070IMCT  S5*X    00030                    1030 SR        000000000000 DENSO TEN (THAILAND)18078XL0001001                                                                                                                              *          20180221 IMCT                IMCT                                                                                                                    WMF1802214.TXT
MDEUJ2289523201802                D89828070100PT4U20180224000030SPEAKER ASM                   M IMCTM S0FL05 TNTH  07070IMCT  S0 PTB  00004                    2230 SR        000000000000 DENSO TEN (THAILAND)18049ZU0030030                                                                                                                              *          20180221 IMCT                IMCT                                                                                                                    WMF1802214.TXT
MDEUJ2289524201802                D89828070100PT4U20180225000030SPEAKER ASM                   M IMCTM S0FL05 TNTH  07070IMCT  S0 PTB  00004                    0230 SR        000000000000 DENSO TEN (THAILAND)18026UU0179179                                                                                                                              *          20180221 IMCT                IMCT                                                                                                                    WMF1802214.TXT
MDEUJ2289525201802                D89828070100PT4U20180225000060SPEAKER ASM                   M IMCTM S0FL05 TNTH  07070IMCT  S0 PTB  00004                    0400 SR        000000000000 DENSO TEN (THAILAND)18021UU002502518026UU0180180                                                                                                                *          20180221 IMCT                IMCT                                                                                                                    WMF1802214.TXT
MDEUJ2289526201802                D89828070100PT4U20180226000030SPEAKER ASM                   M IMCTM S0FL05 TNTH  07070IMCT  S0 PTB  00004                    0830 SR        000000000000 DENSO TEN (THAILAND)18025UU0041041                                                                                                                              *          20180221 IMCT                IMCT                                                                                                                    WMF1802214.TXT
MDEUJ2289527201802                D89828070100PT4U20180226000030SPEAKER ASM                   M IMCTM S0FL05 TNTH  07070IMCT  S0 PTB  00004                    1030 SR        000000000000 DENSO TEN (THAILAND)18020UU0014014                                                                                                                              *          20180221 IMCT                IMCT                                                                                                                    WMF1802214.TXT
MDEUJ2289528201802                D89828070100PT4U20180226000060SPEAKER ASM                   M IMCTM S0FL05 TNTH  07070IMCT  S0 PTB  00004                    1300 SR        000000000000 DENSO TEN (THAILAND)18021UU002602618026UU0181181                                                                                                                *          20180221 IMCT                IMCT                                                                                                                    WMF1802214.TXT
MDEUJ2289529201802                D89828070100PT4U20180226000030SPEAKER ASM                   M IMCTM S0FL05 TNTH  07070IMCT  S0 PTB  00004                    1600 SR        000000000000 DENSO TEN (THAILAND)18026UU0182182                                                                                                                              *          20180221 IMCT                IMCT                                                                                                                    WMF1802214.TXT
MDEUJ2289530201802                D89828070100PT4U20180226000030SPEAKER ASM                   M IMCTM S0FL05 TNTH  07070IMCT  S0 PTB  00004                    2100 SR        000000000000 DENSO TEN (THAILAND)18021UU0027027                                                                                                                              *          20180221 IMCT                IMCT                                                                                                                    WMF1802214.TXT
MDEUJ2289531201802                D89828070200PV4U20180224000030SPEAKER ASM                   M IMCTM S0FR05 TNTH  07070IMCT  S0 PTB  00005                    2230 SR        000000000000 DENSO TEN (THAILAND)18049ZU0030030                                                                                                                              *          20180221 IMCT                IMCT                                                                                                                    WMF1802214.TXT
MDEUJ2289532201802                D89828070200PV4U20180225000030SPEAKER ASM                   M IMCTM S0FR05 TNTH  07070IMCT  S0 PTB  00005                    0230 SR        000000000000 DENSO TEN (THAILAND)18026UU0179179                                                                                                                              *          20180221 IMCT                IMCT                                                                                                                    WMF1802214.TXT
MDEUJ2289533201802                D89828070200PV4U20180225000060SPEAKER ASM                   M IMCTM S0FR05 TNTH  07070IMCT  S0 PTB  00005                    0400 SR        000000000000 DENSO TEN (THAILAND)18021UU002502518026UU0180180                                                                                                                *          20180221 IMCT                IMCT                                                                                                                    WMF1802214.TXT
MDEUJ2289534201802                D89828070200PV4U20180226000030SPEAKER ASM                   M IMCTM S0FR05 TNTH  07070IMCT  S0 PTB  00005                    0830 SR        000000000000 DENSO TEN (THAILAND)18025UU0041041                                                                                                                              *          20180221 IMCT                IMCT                                                                                                                    WMF1802214.TXT
MDEUJ2289535201802                D89828070200PV4U20180226000030SPEAKER ASM                   M IMCTM S0FR05 TNTH  07070IMCT  S0 PTB  00005                    1030 SR        000000000000 DENSO TEN (THAILAND)18020UU0014014                                                                                                                              *          20180221 IMCT                IMCT                                                                                                                    WMF1802214.TXT
MDEUJ2289536201802                D89828070200PV4U20180226000060SPEAKER ASM                   M IMCTM S0FR05 TNTH  07070IMCT  S0 PTB  00005                    1300 SR        000000000000 DENSO TEN (THAILAND)18021UU002602618026UU0181181                                                                                                                *          20180221 IMCT                IMCT                                                                                                                    WMF1802214.TXT
MDEUJ2289537201802                D89828070200PV4U20180226000030SPEAKER ASM                   M IMCTM S0FR05 TNTH  07070IMCT  S0 PTB  00005                    1600 SR        000000000000 DENSO TEN (THAILAND)18026UU0182182                                                                                                                              *          20180221 IMCT                IMCT                                                                                                                    WMF1802214.TXT
MDEUJ2289538201802                D89828070200PV4U20180226000030SPEAKER ASM                   M IMCTM S0FR05 TNTH  07070IMCT  S0 PTB  00005                    2100 SR        000000000000 DENSO TEN (THAILAND)18021UU0027027                                                                                                                              *          20180221 IMCT                IMCT                                                                                                                    WMF1802214.TXT
MDEUJ2289539201802                D89828070300PT4U20180224000030SPEAKER ASM                   M IMCTM S9TS02 TNTH  07070IMCT  S9 PTB  00015                    2230 SR        000000000000 DENSO TEN (THAILAND)18049ZU0030030                                                                                                                              *          20180221 IMCT                IMCT                                                                                                                    WMF1802214.TXT
MDEUJ2289540201802                D89828070300PT4U20180225000030SPEAKER ASM                   M IMCTM S9TS02 TNTH  07070IMCT  S9 PTB  00015                    0230 SR        000000000000 DENSO TEN (THAILAND)18026UU0179179                                                                                                                              *          20180221 IMCT                IMCT                                                                                                                    WMF1802214.TXT
MDEUJ2289541201802                D89828070300PT4U20180225000060SPEAKER ASM                   M IMCTM S9TS02 TNTH  07070IMCT  S9 PTB  00015                    0400 SR        000000000000 DENSO TEN (THAILAND)18021UU002502518026UU0180180                                                                                                                *          20180221 IMCT                IMCT                                                                                                                    WMF1802214.TXT
MDEUJ2289542201802                D89828070300PT4U20180226000030SPEAKER ASM                   M IMCTM S9TS02 TNTH  07070IMCT  S9 PTB  00015                    0830 SR        000000000000 DENSO TEN (THAILAND)18025UU0041041                                                                                                                              *          20180221 IMCT                IMCT                                                                                                                    WMF1802214.TXT
MDEUJ2289543201802                D89828070300PT4U20180226000030SPEAKER ASM                   M IMCTM S9TS02 TNTH  07070IMCT  S9 PTB  00015                    1030 SR        000000000000 DENSO TEN (THAILAND)18020UU0014014                                                                                                                              *          20180221 IMCT                IMCT                                                                                                                    WMF1802214.TXT
MDEUJ2289544201802                D89828070300PT4U20180226000060SPEAKER ASM                   M IMCTM S9TS02 TNTH  07070IMCT  S9 PTB  00015                    1300 SR        000000000000 DENSO TEN (THAILAND)18021UU002602618026UU0181181                                                                                                                *          20180221 IMCT                IMCT                                                                                                                    WMF1802214.TXT
MDEUJ2289545201802                D89828070300PT4U20180226000030SPEAKER ASM                   M IMCTM S9TS02 TNTH  07070IMCT  S9 PTB  00015                    1600 SR        000000000000 DENSO TEN (THAILAND)18026UU0182182                                                                                                                              *          20180221 IMCT                IMCT                                                                                                                    WMF1802214.TXT
MDEUJ2289546201802                D89828070300PT4U20180226000030SPEAKER ASM                   M IMCTM S9TS02 TNTH  07070IMCT  S9 PTB  00015                    2100 SR        000000000000 DENSO TEN (THAILAND)18021UU0027027                                                                                                                              *          20180221 IMCT                IMCT                                                                                                                    WMF1802214.TXT
