REC2018022020180220ISUZU                              71     
MDDDJ2261414201802                D89821984430PT1D20180223000030RADIO;AM/FM,CD                M IMCTM S5NC06 TNTH  07070IMCT  S5 PTB  00005                    2230 SR        000000000000 DENSO TEN (THAILAND)180LNGL0090090                                                                                                                              *          20180220 IMCT                IMCT                                                                                                                    WMF1802204.TXT
MDDDJ2261415201802                D89821984430PT1D20180224000030RADIO;AM/FM,CD                M IMCTM S5NC06 TNTH  07070IMCT  S5 PTB  00005                    0830 SR        000000000000 DENSO TEN (THAILAND)180LNFL0005005                                                                                                                              *          20180220 IMCT                IMCT                                                                                                                    WMF1802204.TXT
MDDDJ2261416201802                D89821984430PT1D20180224000030RADIO;AM/FM,CD                M IMCTM S5NC06 TNTH  07070IMCT  S5 PTB  00005                    1300 SR        000000000000 DENSO TEN (THAILAND)180LXDL0002002                                                                                                                              *          20180220 IMCT                IMCT                                                                                                                    WMF1802204.TXT
MDDDJ2261417201802                D89821984430PT1D20180224000030RADIO;AM/FM,CD                M IMCTM S5NC06 TNTH  07070IMCT  S5 PTB  00005                    2100 SR        000000000000 DENSO TEN (THAILAND)180LNHL0034034                                                                                                                              *          20180220 IMCT                IMCT                                                                                                                    WMF1802204.TXT
MDDDJ2261418201802                D89828070100PV1D20180223000060SPEAKER ASM                   M IMCTM S5MB11 TNTH  07070IMCT  S5 PTB  00004                    2230 SR        000000000000 DENSO TEN (THAILAND)180LNGL0090090                                                                                                                              *          20180220 IMCT                IMCT                                                                                                                    WMF1802204.TXT
MDDDJ2261419201802                D89828070100PV1D20180224000060SPEAKER ASM                   M IMCTM S5MB11 TNTH  07070IMCT  S5 PTB  00004                    0830 SR        000000000000 DENSO TEN (THAILAND)180LNFL0005005                                                                                                                              *          20180220 IMCT                IMCT                                                                                                                    WMF1802204.TXT
MDDDJ2261420201802                D89828070100PV1D20180224000060SPEAKER ASM                   M IMCTM S5MB11 TNTH  07070IMCT  S5 PTB  00004                    1300 SR        000000000000 DENSO TEN (THAILAND)180LXDL0002002                                                                                                                              *          20180220 IMCT                IMCT                                                                                                                    WMF1802204.TXT
MDDDJ2261421201802                D89828070100PV1D20180224000060SPEAKER ASM                   M IMCTM S5MB11 TNTH  07070IMCT  S5 PTB  00004                    2100 SR        000000000000 DENSO TEN (THAILAND)180LNHL0034034                                                                                                                              *          20180220 IMCT                IMCT                                                                                                                    WMF1802204.TXT
MDEDJ2318237201802                D89828070100PV1D20180223000030SPEAKER ASM                   M IMCTM S5MB11 TNTH  07070IMCT  S5 PTB  00004                    2230 SR        000000000000 DENSO TEN (THAILAND)18072UL0006006                                                                                                                              *          20180220 IMCT                IMCT                                                                                                                    WMF1802204.TXT
MDEDJ2318238201802                D89828070100PV1D20180224000090SPEAKER ASM                   M IMCTM S5MB11 TNTH  07070IMCT  S5 PTB  00004                    0230 SR        000000000000 DENSO TEN (THAILAND)18066UL000200318083UL0003003                                                                                                                *          20180220 IMCT                IMCT                                                                                                                    WMF1802204.TXT
MDEDJ2318239201802                D89828070100PV1D20180224000090SPEAKER ASM                   M IMCTM S5MB11 TNTH  07070IMCT  S5 PTB  00004                    0400 SR        000000000000 DENSO TEN (THAILAND)18065UL000800918083UL0004004                                                                                                                *          20180220 IMCT                IMCT                                                                                                                    WMF1802204.TXT
MDEDJ2318240201802                D89828070100PV1D20180224000030SPEAKER ASM                   M IMCTM S5MB11 TNTH  07070IMCT  S5 PTB  00004                    0830 SR        000000000000 DENSO TEN (THAILAND)18075UL0001001                                                                                                                              *          20180220 IMCT                IMCT                                                                                                                    WMF1802204.TXT
MDEDJ2318241201802                D89828070100PV1D20180224000060SPEAKER ASM                   M IMCTM S5MB11 TNTH  07070IMCT  S5 PTB  00004                    1030 SR        000000000000 DENSO TEN (THAILAND)18082UL0026027                                                                                                                              *          20180220 IMCT                IMCT                                                                                                                    WMF1802204.TXT
MDEDJ2318242201802                D89828070100PV1D20180224000060SPEAKER ASM                   M IMCTM S5MB11 TNTH  07070IMCT  S5 PTB  00004                    1300 SR        000000000000 DENSO TEN (THAILAND)18079UL0001002                                                                                                                              *          20180220 IMCT                IMCT                                                                                                                    WMF1802204.TXT
MDEDJ2318243201802                D89828070100PV1D20180224000060SPEAKER ASM                   M IMCTM S5MB11 TNTH  07070IMCT  S5 PTB  00004                    1600 SR        000000000000 DENSO TEN (THAILAND)18064UL0007008                                                                                                                              *          20180220 IMCT                IMCT                                                                                                                    WMF1802204.TXT
MDEDJ2318244201802                D89828070100PV1D20180224000030SPEAKER ASM                   M IMCTM S5MB11 TNTH  07070IMCT  S5 PTB  00004                    2230 SR        000000000000 DENSO TEN (THAILAND)18065UL0010010                                                                                                                              *          20180220 IMCT                IMCT                                                                                                                    WMF1802204.TXT
MDEDJ2318245201802                D89828070100PV4D20180224000060SPEAKER ASM                   M IMCTM S0FL05 TNTH  07070IMCT  S0 PTB  00004                    0400 SR        000000000000 DENSO TEN (THAILAND)18067UU000500518068UU0004004                                                                                                                *          20180220 IMCT                IMCT                                                                                                                    WMF1802204.TXT
MDEDJ2318246201802                D89828070100PV4D20180224000030SPEAKER ASM                   M IMCTM S0FL05 TNTH  07070IMCT  S0 PTB  00004                    1300 SR        000000000000 DENSO TEN (THAILAND)18068UU0005005                                                                                                                              *          20180220 IMCT                IMCT                                                                                                                    WMF1802204.TXT
MDEDJ2318247201802                D89828070100PV4D20180224000030SPEAKER ASM                   M IMCTM S0FL05 TNTH  07070IMCT  S0 PTB  00004                    2100 SR        000000000000 DENSO TEN (THAILAND)18098UU0006006                                                                                                                              *          20180220 IMCT                IMCT                                                                                                                    WMF1802204.TXT
MDEDJ2318248201802                D89828070200PV1D20180224000090SPEAKER ASM                   M IMCTM S5MA14 TNTH  07070IMCT  S5 PTB  00005                    0230 SR        000000000000 DENSO TEN (THAILAND)18066UL000200318083UL0003003                                                                                                                *          20180220 IMCT                IMCT                                                                                                                    WMF1802204.TXT
MDEDJ2318249201802                D89828070200PV1D20180224000090SPEAKER ASM                   M IMCTM S5MA14 TNTH  07070IMCT  S5 PTB  00005                    0400 SR        000000000000 DENSO TEN (THAILAND)18065UL000800918083UL0004004                                                                                                                *          20180220 IMCT                IMCT                                                                                                                    WMF1802204.TXT
MDEDJ2318250201802                D89828070200PV1D20180224000060SPEAKER ASM                   M IMCTM S5MA14 TNTH  07070IMCT  S5 PTB  00005                    1030 SR        000000000000 DENSO TEN (THAILAND)18082UL0026027                                                                                                                              *          20180220 IMCT                IMCT                                                                                                                    WMF1802204.TXT
MDEDJ2318251201802                D89828070200PV1D20180224000060SPEAKER ASM                   M IMCTM S5MA14 TNTH  07070IMCT  S5 PTB  00005                    1300 SR        000000000000 DENSO TEN (THAILAND)18079UL0001002                                                                                                                              *          20180220 IMCT                IMCT                                                                                                                    WMF1802204.TXT
MDEDJ2318252201802                D89828070200PV1D20180224000030SPEAKER ASM                   M IMCTM S5MA14 TNTH  07070IMCT  S5 PTB  00005                    2230 SR        000000000000 DENSO TEN (THAILAND)18065UL0010010                                                                                                                              *          20180220 IMCT                IMCT                                                                                                                    WMF1802204.TXT
MDEDJ2318253201802                D89828070200PV4D20180224000060SPEAKER ASM                   M IMCTM S0FR05 TNTH  07070IMCT  S0 PTB  00005                    0400 SR        000000000000 DENSO TEN (THAILAND)18067UU000500518068UU0004004                                                                                                                *          20180220 IMCT                IMCT                                                                                                                    WMF1802204.TXT
MDEDJ2318254201802                D89828070200PV4D20180224000030SPEAKER ASM                   M IMCTM S0FR05 TNTH  07070IMCT  S0 PTB  00005                    1300 SR        000000000000 DENSO TEN (THAILAND)18068UU0005005                                                                                                                              *          20180220 IMCT                IMCT                                                                                                                    WMF1802204.TXT
MDEDJ2318255201802                D89828070200PV4D20180224000030SPEAKER ASM                   M IMCTM S0FR05 TNTH  07070IMCT  S0 PTB  00005                    2100 SR        000000000000 DENSO TEN (THAILAND)18098UU0006006                                                                                                                              *          20180220 IMCT                IMCT                                                                                                                    WMF1802204.TXT
MDEDJ2318256201802                D89828070300PT1D20180223000030SPEAKER ASM                   M IMCTM S5NB082TNTH  07070IMCT  S5 PTB  00015                    2230 SR        000000000000 DENSO TEN (THAILAND)18072UL0006006                                                                                                                              *          20180220 IMCT                IMCT                                                                                                                    WMF1802204.TXT
MDEDJ2318257201802                D89828070300PT1D20180224000090SPEAKER ASM                   M IMCTM S5NB082TNTH  07070IMCT  S5 PTB  00015                    0230 SR        000000000000 DENSO TEN (THAILAND)18066UL000200318083UL0003003                                                                                                                *          20180220 IMCT                IMCT                                                                                                                    WMF1802204.TXT
MDEDJ2318258201802                D89828070300PT1D20180224000090SPEAKER ASM                   M IMCTM S5NB082TNTH  07070IMCT  S5 PTB  00015                    0400 SR        000000000000 DENSO TEN (THAILAND)18065UL000800918083UL0004004                                                                                                                *          20180220 IMCT                IMCT                                                                                                                    WMF1802204.TXT
MDEDJ2318259201802                D89828070300PT1D20180224000030SPEAKER ASM                   M IMCTM S5NB082TNTH  07070IMCT  S5 PTB  00015                    0830 SR        000000000000 DENSO TEN (THAILAND)18075UL0001001                                                                                                                              *          20180220 IMCT                IMCT                                                                                                                    WMF1802204.TXT
MDEDJ2318260201802                D89828070300PT1D20180224000060SPEAKER ASM                   M IMCTM S5NB082TNTH  07070IMCT  S5 PTB  00015                    1030 SR        000000000000 DENSO TEN (THAILAND)18082UL0026027                                                                                                                              *          20180220 IMCT                IMCT                                                                                                                    WMF1802204.TXT
MDEDJ2318261201802                D89828070300PT1D20180224000060SPEAKER ASM                   M IMCTM S5NB082TNTH  07070IMCT  S5 PTB  00015                    1300 SR        000000000000 DENSO TEN (THAILAND)18079UL0001002                                                                                                                              *          20180220 IMCT                IMCT                                                                                                                    WMF1802204.TXT
MDEDJ2318262201802                D89828070300PT1D20180224000060SPEAKER ASM                   M IMCTM S5NB082TNTH  07070IMCT  S5 PTB  00015                    1600 SR        000000000000 DENSO TEN (THAILAND)18064UL0007008                                                                                                                              *          20180220 IMCT                IMCT                                                                                                                    WMF1802204.TXT
MDEDJ2318263201802                D89828070300PT1D20180224000030SPEAKER ASM                   M IMCTM S5NB082TNTH  07070IMCT  S5 PTB  00015                    2230 SR        000000000000 DENSO TEN (THAILAND)18065UL0010010                                                                                                                              *          20180220 IMCT                IMCT                                                                                                                    WMF1802204.TXT
MDEDJ2318264201802                D89828070300PT4D20180224000060SPEAKER ASM                   M IMCTM S9TS02 TNTH  07070IMCT  S9 PTB  00015                    0400 SR        000000000000 DENSO TEN (THAILAND)18067UU000500518068UU0004004                                                                                                                *          20180220 IMCT                IMCT                                                                                                                    WMF1802204.TXT
MDEDJ2318265201802                D89828070300PT4D20180224000030SPEAKER ASM                   M IMCTM S9TS02 TNTH  07070IMCT  S9 PTB  00015                    1300 SR        000000000000 DENSO TEN (THAILAND)18068UU0005005                                                                                                                              *          20180220 IMCT                IMCT                                                                                                                    WMF1802204.TXT
MDEDJ2318266201802                D89828070300PT4D20180224000030SPEAKER ASM                   M IMCTM S9TS02 TNTH  07070IMCT  S9 PTB  00015                    2100 SR        000000000000 DENSO TEN (THAILAND)18098UU0006006                                                                                                                              *          20180220 IMCT                IMCT                                                                                                                    WMF1802204.TXT
MDEDJ2318267201802                D89848581800PT1D20180223000015RADIO;AM/FM CD D              M IMCTM S5NC06 TNTH  07070IMCT  S5 PTB  00003                    2230 SR        000000000000 DENSO TEN (THAILAND)18072UL0006006                                                                                                                              *          20180220 IMCT                IMCT                                                                                                                    WMF1802204.TXT
MDEDJ2318268201802                D89848581800PT1D20180224000045RADIO;AM/FM CD D              M IMCTM S5NC06 TNTH  07070IMCT  S5 PTB  00003                    0230 SR        000000000000 DENSO TEN (THAILAND)18066UL000200318083UL0003003                                                                                                                *          20180220 IMCT                IMCT                                                                                                                    WMF1802204.TXT
MDEDJ2318269201802                D89848581800PT1D20180224000045RADIO;AM/FM CD D              M IMCTM S5NC06 TNTH  07070IMCT  S5 PTB  00003                    0400 SR        000000000000 DENSO TEN (THAILAND)18065UL000800918083UL0004004                                                                                                                *          20180220 IMCT                IMCT                                                                                                                    WMF1802204.TXT
MDEDJ2318270201802                D89848581800PT1D20180224000030RADIO;AM/FM CD D              M IMCTM S5NC06 TNTH  07070IMCT  S5 PTB  00003                    1030 SR        000000000000 DENSO TEN (THAILAND)18082UL0026027                                                                                                                              *          20180220 IMCT                IMCT                                                                                                                    WMF1802204.TXT
MDEDJ2318271201802                D89848581800PT1D20180224000030RADIO;AM/FM CD D              M IMCTM S5NC06 TNTH  07070IMCT  S5 PTB  00003                    1300 SR        000000000000 DENSO TEN (THAILAND)18079UL0001002                                                                                                                              *          20180220 IMCT                IMCT                                                                                                                    WMF1802204.TXT
MDEDJ2318272201802                D89848581800PT1D20180224000015RADIO;AM/FM CD D              M IMCTM S5NC06 TNTH  07070IMCT  S5 PTB  00003                    2230 SR        000000000000 DENSO TEN (THAILAND)18065UL0010010                                                                                                                              *          20180220 IMCT                IMCT                                                                                                                    WMF1802204.TXT
MDEDJ2318273201802                D89848581800PT4D20180224000015RADIO;AM/FM CD D              M IMCTM S9CO001TNTH  07070IMCT  S9 PTB  00003                    2100 SR        000000000000 DENSO TEN (THAILAND)18098UU0006006                                                                                                                              *          20180220 IMCT                IMCT                                                                                                                    WMF1802204.TXT
MDEDJ2318274201802                D89848582500PT1D20180224000030RADIO;AM/FM CD D              M IMCTM S5NC06 TNTH  07070IMCT  S5 PTB  00003                    1600 SR        000000000000 DENSO TEN (THAILAND)18064UL0007008                                                                                                                              *          20180220 IMCT                IMCT                                                                                                                    WMF1802204.TXT
MDEUJ2283512201802                D89828070100PT4U20180223000030SPEAKER ASM                   M IMCTM S0FL05 TNTH  07070IMCT  S0 PTB  00004                    2230 SR        000000000000 DENSO TEN (THAILAND)18049ZU0026026                                                                                                                              *          20180220 IMCT                IMCT                                                                                                                    WMF1802204.TXT
MDEUJ2283513201802                D89828070100PT4U20180224000030SPEAKER ASM                   M IMCTM S0FL05 TNTH  07070IMCT  S0 PTB  00004                    0230 SR        000000000000 DENSO TEN (THAILAND)18050ZU0014014                                                                                                                              *          20180220 IMCT                IMCT                                                                                                                    WMF1802204.TXT
MDEUJ2283514201802                D89828070100PT4U20180224000030SPEAKER ASM                   M IMCTM S0FL05 TNTH  07070IMCT  S0 PTB  00004                    0400 SR        000000000000 DENSO TEN (THAILAND)18021UU0024024                                                                                                                              *          20180220 IMCT                IMCT                                                                                                                    WMF1802204.TXT
MDEUJ2283515201802                D89828070100PT4U20180224000030SPEAKER ASM                   M IMCTM S0FL05 TNTH  07070IMCT  S0 PTB  00004                    0830 SR        000000000000 DENSO TEN (THAILAND)18049ZU0027027                                                                                                                              *          20180220 IMCT                IMCT                                                                                                                    WMF1802204.TXT
MDEUJ2283516201802                D89828070100PT4U20180224000030SPEAKER ASM                   M IMCTM S0FL05 TNTH  07070IMCT  S0 PTB  00004                    1030 SR        000000000000 DENSO TEN (THAILAND)18069ZU0002002                                                                                                                              *          20180220 IMCT                IMCT                                                                                                                    WMF1802204.TXT
MDEUJ2283517201802                D89828070100PT4U20180224000060SPEAKER ASM                   M IMCTM S0FL05 TNTH  07070IMCT  S0 PTB  00004                    1300 SR        000000000000 DENSO TEN (THAILAND)18049ZU002802818050ZU0015015                                                                                                                *          20180220 IMCT                IMCT                                                                                                                    WMF1802204.TXT
MDEUJ2283518201802                D89828070100PT4U20180224000030SPEAKER ASM                   M IMCTM S0FL05 TNTH  07070IMCT  S0 PTB  00004                    1600 SR        000000000000 DENSO TEN (THAILAND)18049ZU0029029                                                                                                                              *          20180220 IMCT                IMCT                                                                                                                    WMF1802204.TXT
MDEUJ2283519201802                D89828070100PT4U20180224000030SPEAKER ASM                   M IMCTM S0FL05 TNTH  07070IMCT  S0 PTB  00004                    2230 SR        000000000000 DENSO TEN (THAILAND)18025UU0040040                                                                                                                              *          20180220 IMCT                IMCT                                                                                                                    WMF1802204.TXT
MDEUJ2283520201802                D89828070200PV4U20180223000030SPEAKER ASM                   M IMCTM S0FR05 TNTH  07070IMCT  S0 PTB  00005                    2230 SR        000000000000 DENSO TEN (THAILAND)18049ZU0026026                                                                                                                              *          20180220 IMCT                IMCT                                                                                                                    WMF1802204.TXT
MDEUJ2283521201802                D89828070200PV4U20180224000030SPEAKER ASM                   M IMCTM S0FR05 TNTH  07070IMCT  S0 PTB  00005                    0230 SR        000000000000 DENSO TEN (THAILAND)18050ZU0014014                                                                                                                              *          20180220 IMCT                IMCT                                                                                                                    WMF1802204.TXT
MDEUJ2283522201802                D89828070200PV4U20180224000030SPEAKER ASM                   M IMCTM S0FR05 TNTH  07070IMCT  S0 PTB  00005                    0400 SR        000000000000 DENSO TEN (THAILAND)18021UU0024024                                                                                                                              *          20180220 IMCT                IMCT                                                                                                                    WMF1802204.TXT
MDEUJ2283523201802                D89828070200PV4U20180224000030SPEAKER ASM                   M IMCTM S0FR05 TNTH  07070IMCT  S0 PTB  00005                    0830 SR        000000000000 DENSO TEN (THAILAND)18049ZU0027027                                                                                                                              *          20180220 IMCT                IMCT                                                                                                                    WMF1802204.TXT
MDEUJ2283524201802                D89828070200PV4U20180224000030SPEAKER ASM                   M IMCTM S0FR05 TNTH  07070IMCT  S0 PTB  00005                    1030 SR        000000000000 DENSO TEN (THAILAND)18069ZU0002002                                                                                                                              *          20180220 IMCT                IMCT                                                                                                                    WMF1802204.TXT
MDEUJ2283525201802                D89828070200PV4U20180224000060SPEAKER ASM                   M IMCTM S0FR05 TNTH  07070IMCT  S0 PTB  00005                    1300 SR        000000000000 DENSO TEN (THAILAND)18049ZU002802818050ZU0015015                                                                                                                *          20180220 IMCT                IMCT                                                                                                                    WMF1802204.TXT
MDEUJ2283526201802                D89828070200PV4U20180224000030SPEAKER ASM                   M IMCTM S0FR05 TNTH  07070IMCT  S0 PTB  00005                    1600 SR        000000000000 DENSO TEN (THAILAND)18049ZU0029029                                                                                                                              *          20180220 IMCT                IMCT                                                                                                                    WMF1802204.TXT
MDEUJ2283527201802                D89828070200PV4U20180224000030SPEAKER ASM                   M IMCTM S0FR05 TNTH  07070IMCT  S0 PTB  00005                    2230 SR        000000000000 DENSO TEN (THAILAND)18025UU0040040                                                                                                                              *          20180220 IMCT                IMCT                                                                                                                    WMF1802204.TXT
MDEUJ2283528201802                D89828070300PT4U20180223000030SPEAKER ASM                   M IMCTM S9TS02 TNTH  07070IMCT  S9 PTB  00015                    2230 SR        000000000000 DENSO TEN (THAILAND)18049ZU0026026                                                                                                                              *          20180220 IMCT                IMCT                                                                                                                    WMF1802204.TXT
MDEUJ2283529201802                D89828070300PT4U20180224000030SPEAKER ASM                   M IMCTM S9TS02 TNTH  07070IMCT  S9 PTB  00015                    0230 SR        000000000000 DENSO TEN (THAILAND)18050ZU0014014                                                                                                                              *          20180220 IMCT                IMCT                                                                                                                    WMF1802204.TXT
MDEUJ2283530201802                D89828070300PT4U20180224000030SPEAKER ASM                   M IMCTM S9TS02 TNTH  07070IMCT  S9 PTB  00015                    0400 SR        000000000000 DENSO TEN (THAILAND)18021UU0024024                                                                                                                              *          20180220 IMCT                IMCT                                                                                                                    WMF1802204.TXT
MDEUJ2283531201802                D89828070300PT4U20180224000030SPEAKER ASM                   M IMCTM S9TS02 TNTH  07070IMCT  S9 PTB  00015                    0830 SR        000000000000 DENSO TEN (THAILAND)18049ZU0027027                                                                                                                              *          20180220 IMCT                IMCT                                                                                                                    WMF1802204.TXT
MDEUJ2283532201802                D89828070300PT4U20180224000030SPEAKER ASM                   M IMCTM S9TS02 TNTH  07070IMCT  S9 PTB  00015                    1030 SR        000000000000 DENSO TEN (THAILAND)18069ZU0002002                                                                                                                              *          20180220 IMCT                IMCT                                                                                                                    WMF1802204.TXT
MDEUJ2283533201802                D89828070300PT4U20180224000060SPEAKER ASM                   M IMCTM S9TS02 TNTH  07070IMCT  S9 PTB  00015                    1300 SR        000000000000 DENSO TEN (THAILAND)18049ZU002802818050ZU0015015                                                                                                                *          20180220 IMCT                IMCT                                                                                                                    WMF1802204.TXT
MDEUJ2283534201802                D89828070300PT4U20180224000030SPEAKER ASM                   M IMCTM S9TS02 TNTH  07070IMCT  S9 PTB  00015                    1600 SR        000000000000 DENSO TEN (THAILAND)18049ZU0029029                                                                                                                              *          20180220 IMCT                IMCT                                                                                                                    WMF1802204.TXT
MDEUJ2283535201802                D89828070300PT4U20180224000030SPEAKER ASM                   M IMCTM S9TS02 TNTH  07070IMCT  S9 PTB  00015                    2230 SR        000000000000 DENSO TEN (THAILAND)18025UU0040040                                                                                                                              *          20180220 IMCT                IMCT                                                                                                                    WMF1802204.TXT
MDEUJ2283536201802                D89848584500PT4U20180224000015RADIO;AM/FM CD D              M IMCTM S9CO001TNTH  07070IMCT  S9 PTB  00003                    1030 SR        000000000000 DENSO TEN (THAILAND)18069ZU0002002                                                                                                                              *          20180220 IMCT                IMCT                                                                                                                    WMF1802204.TXT
