REC2018022820180228ISUZU                              66     
MDDDJ2283755201803                D89821984430PT1D20180304000030RADIO;AM/FM,CD                M IMCTM S5NC06 TNTH  07070IMCT  S5 PTB  00005                    0230 SR        000000000000 DENSO TEN (THAILAND)180LPAL0093093                                                                                                                              *          20180228 IMCT                IMCT                                                                                                                    WMF1802284.TXT
MDDDJ2283756201803                D89821984430PT1D20180304000030RADIO;AM/FM,CD                M IMCTM S5NC06 TNTH  07070IMCT  S5 PTB  00005                    0400 SR        000000000000 DENSO TEN (THAILAND)180LPBL0008008                                                                                                                              *          20180228 IMCT                IMCT                                                                                                                    WMF1802284.TXT
MDDDJ2283757201803                D89821984430PT1D20180305000030RADIO;AM/FM,CD                M IMCTM S5NC06 TNTH  07070IMCT  S5 PTB  00005                    1030 SR        000000000000 DENSO TEN (THAILAND)180LPAL0094094                                                                                                                              *          20180228 IMCT                IMCT                                                                                                                    WMF1802284.TXT
MDDDJ2283758201803                D89821984430PT1D20180305000030RADIO;AM/FM,CD                M IMCTM S5NC06 TNTH  07070IMCT  S5 PTB  00005                    1600 SR        000000000000 DENSO TEN (THAILAND)180LRAL0136136                                                                                                                              *          20180228 IMCT                IMCT                                                                                                                    WMF1802284.TXT
MDDDJ2283759201803                D89828070100PV1D20180304000060SPEAKER ASM                   M IMCTM S5MB11 TNTH  07070IMCT  S5 PTB  00004                    0230 SR        000000000000 DENSO TEN (THAILAND)180LPAL0093093                                                                                                                              *          20180228 IMCT                IMCT                                                                                                                    WMF1802284.TXT
MDDDJ2283760201803                D89828070100PV1D20180304000060SPEAKER ASM                   M IMCTM S5MB11 TNTH  07070IMCT  S5 PTB  00004                    0400 SR        000000000000 DENSO TEN (THAILAND)180LPBL0008008                                                                                                                              *          20180228 IMCT                IMCT                                                                                                                    WMF1802284.TXT
MDDDJ2283761201803                D89828070100PV1D20180305000060SPEAKER ASM                   M IMCTM S5MB11 TNTH  07070IMCT  S5 PTB  00004                    1030 SR        000000000000 DENSO TEN (THAILAND)180LPAL0094094                                                                                                                              *          20180228 IMCT                IMCT                                                                                                                    WMF1802284.TXT
MDDDJ2283762201803                D89828070100PV1D20180305000060SPEAKER ASM                   M IMCTM S5MB11 TNTH  07070IMCT  S5 PTB  00004                    1600 SR        000000000000 DENSO TEN (THAILAND)180LRAL0136136                                                                                                                              *          20180228 IMCT                IMCT                                                                                                                    WMF1802284.TXT
MDDDJ2283763201803                D89828070100PV4D20180305000060SPEAKER ASM                   M IMCTM S0FL05 TNTH  07070IMCT  S0 PTB  00004                    1300 SR        000000000000 DENSO TEN (THAILAND)180LREU0005005                                                                                                                              *          20180228 IMCT                IMCT                                                                                                                    WMF1802284.TXT
MDDDJ2283764201803                D89828070200PV4D20180305000060SPEAKER ASM                   M IMCTM S0FR05 TNTH  07070IMCT  S0 PTB  00005                    1300 SR        000000000000 DENSO TEN (THAILAND)180LREU0005005                                                                                                                              *          20180228 IMCT                IMCT                                                                                                                    WMF1802284.TXT
MDDDJ2283765201803                D89828070300PT4D20180305000060SPEAKER ASM                   M IMCTM S9TS02 TNTH  07070IMCT  S9 PTB  00015                    1300 SR        000000000000 DENSO TEN (THAILAND)180LREU0005005                                                                                                                              *          20180228 IMCT                IMCT                                                                                                                    WMF1802284.TXT
MDDDJ2283766201803                D89831228400PT4D20180305000030RADIO;AM/FM,CD                M IMCTM S9CO001TNTH  07070IMCT  S9 CPB  00003                    1300 SR        000000000000 DENSO TEN (THAILAND)180LREU0005005                                                                                                                              *          20180228 IMCT                IMCT                                                                                                                    WMF1802284.TXT
MDDUJ2230031201803                D89828070100PT4U20180304000030SPEAKER ASM                   M IMCTM S0FL05 TNTH  07070IMCT  S0 PTB  00004                    0230 SR        000000000000 DENSO TEN (THAILAND)180LURU0023023                                                                                                                              *          20180228 IMCT                IMCT                                                                                                                    WMF1802284.TXT
MDDUJ2230032201803                D89828070100PT4U20180305000030SPEAKER ASM                   M IMCTM S0FL05 TNTH  07070IMCT  S0 PTB  00004                    0830 SR        000000000000 DENSO TEN (THAILAND)180LULU0014014                                                                                                                              *          20180228 IMCT                IMCT                                                                                                                    WMF1802284.TXT
MDDUJ2230033201803                D89828070200PV4U20180304000030SPEAKER ASM                   M IMCTM S0FR05 TNTH  07070IMCT  S0 PTB  00005                    0230 SR        000000000000 DENSO TEN (THAILAND)180LURU0023023                                                                                                                              *          20180228 IMCT                IMCT                                                                                                                    WMF1802284.TXT
MDDUJ2230034201803                D89828070200PV4U20180305000030SPEAKER ASM                   M IMCTM S0FR05 TNTH  07070IMCT  S0 PTB  00005                    0830 SR        000000000000 DENSO TEN (THAILAND)180LULU0014014                                                                                                                              *          20180228 IMCT                IMCT                                                                                                                    WMF1802284.TXT
MDDUJ2230035201803                D89828070300PT4U20180304000030SPEAKER ASM                   M IMCTM S9TS02 TNTH  07070IMCT  S9 PTB  00015                    0230 SR        000000000000 DENSO TEN (THAILAND)180LURU0023023                                                                                                                              *          20180228 IMCT                IMCT                                                                                                                    WMF1802284.TXT
MDDUJ2230036201803                D89828070300PT4U20180305000030SPEAKER ASM                   M IMCTM S9TS02 TNTH  07070IMCT  S9 PTB  00015                    0830 SR        000000000000 DENSO TEN (THAILAND)180LULU0014014                                                                                                                              *          20180228 IMCT                IMCT                                                                                                                    WMF1802284.TXT
MDEDJ2375188201803                D89828070100PV1D20180303000120SPEAKER ASM                   M IMCTM S5MB11 TNTH  07070IMCT  S5 PTB  00004                    2230 SR        000000000000 DENSO TEN (THAILAND)17045RL000100217054PL0071072                                                                                                                *          20180228 IMCT                IMCT                                                                                                                    WMF1802284.TXT
MDEDJ2375189201803                D89828070100PV1D20180304000030SPEAKER ASM                   M IMCTM S5MB11 TNTH  07070IMCT  S5 PTB  00004                    0230 SR        000000000000 DENSO TEN (THAILAND)18056XL0001001                                                                                                                              *          20180228 IMCT                IMCT                                                                                                                    WMF1802284.TXT
MDEDJ2375190201803                D89828070100PV1D20180304000030SPEAKER ASM                   M IMCTM S5MB11 TNTH  07070IMCT  S5 PTB  00004                    0400 SR        000000000000 DENSO TEN (THAILAND)18072UL0007007                                                                                                                              *          20180228 IMCT                IMCT                                                                                                                    WMF1802284.TXT
MDEDJ2375191201803                D89828070100PV1D20180305000060SPEAKER ASM                   M IMCTM S5MB11 TNTH  07070IMCT  S5 PTB  00004                    0830 SR        000000000000 DENSO TEN (THAILAND)18055XL000100118070UL0004004                                                                                                                *          20180228 IMCT                IMCT                                                                                                                    WMF1802284.TXT
MDEDJ2375192201803                D89828070100PV1D20180305000120SPEAKER ASM                   M IMCTM S5MB11 TNTH  07070IMCT  S5 PTB  00004                    1300 SR        000000000000 DENSO TEN (THAILAND)17040RL000700818061UL0003004                                                                                                                *          20180228 IMCT                IMCT                                                                                                                    WMF1802284.TXT
MDEDJ2375193201803                D89828070100PV1D20180305000060SPEAKER ASM                   M IMCTM S5MB11 TNTH  07070IMCT  S5 PTB  00004                    1600 SR        000000000000 DENSO TEN (THAILAND)18099UL0022023                                                                                                                              *          20180228 IMCT                IMCT                                                                                                                    WMF1802284.TXT
MDEDJ2375194201803                D89828070100PV1D20180305000030SPEAKER ASM                   M IMCTM S5MB11 TNTH  07070IMCT  S5 PTB  00004                    2100 SR        000000000000 DENSO TEN (THAILAND)18071UL0004004                                                                                                                              *          20180228 IMCT                IMCT                                                                                                                    WMF1802284.TXT
MDEDJ2375195201803                D89828070100PV4D20180305000030SPEAKER ASM                   M IMCTM S0FL05 TNTH  07070IMCT  S0 PTB  00004                    0830 SR        000000000000 DENSO TEN (THAILAND)18036ZU0001001                                                                                                                              *          20180228 IMCT                IMCT                                                                                                                    WMF1802284.TXT
MDEDJ2375196201803                D89828070200PV1D20180303000060SPEAKER ASM                   M IMCTM S5MA14 TNTH  07070IMCT  S5 PTB  00005                    2230 SR        000000000000 DENSO TEN (THAILAND)17045RL0001002                                                                                                                              *          20180228 IMCT                IMCT                                                                                                                    WMF1802284.TXT
MDEDJ2375197201803                D89828070200PV1D20180304000030SPEAKER ASM                   M IMCTM S5MA14 TNTH  07070IMCT  S5 PTB  00005                    0230 SR        000000000000 DENSO TEN (THAILAND)18056XL0001001                                                                                                                              *          20180228 IMCT                IMCT                                                                                                                    WMF1802284.TXT
MDEDJ2375198201803                D89828070200PV1D20180305000030SPEAKER ASM                   M IMCTM S5MA14 TNTH  07070IMCT  S5 PTB  00005                    0830 SR        000000000000 DENSO TEN (THAILAND)18055XL0001001                                                                                                                              *          20180228 IMCT                IMCT                                                                                                                    WMF1802284.TXT
MDEDJ2375199201803                D89828070200PV1D20180305000060SPEAKER ASM                   M IMCTM S5MA14 TNTH  07070IMCT  S5 PTB  00005                    1300 SR        000000000000 DENSO TEN (THAILAND)17040RL0007008                                                                                                                              *          20180228 IMCT                IMCT                                                                                                                    WMF1802284.TXT
MDEDJ2375200201803                D89828070200PV1D20180305000060SPEAKER ASM                   M IMCTM S5MA14 TNTH  07070IMCT  S5 PTB  00005                    1600 SR        000000000000 DENSO TEN (THAILAND)18099UL0022023                                                                                                                              *          20180228 IMCT                IMCT                                                                                                                    WMF1802284.TXT
MDEDJ2375201201803                D89828070200PV4D20180305000030SPEAKER ASM                   M IMCTM S0FR05 TNTH  07070IMCT  S0 PTB  00005                    0830 SR        000000000000 DENSO TEN (THAILAND)18036ZU0001001                                                                                                                              *          20180228 IMCT                IMCT                                                                                                                    WMF1802284.TXT
MDEDJ2375202201803                D89828070300PT1D20180303000060SPEAKER ASM                   M IMCTM S5NB082TNTH  07070IMCT  S5 PTB  00015                    2230 SR        000000000000 DENSO TEN (THAILAND)17045RL0001002                                                                                                                              *          20180228 IMCT                IMCT                                                                                                                    WMF1802284.TXT
MDEDJ2375203201803                D89828070300PT1D20180304000030SPEAKER ASM                   M IMCTM S5NB082TNTH  07070IMCT  S5 PTB  00015                    0230 SR        000000000000 DENSO TEN (THAILAND)18056XL0001001                                                                                                                              *          20180228 IMCT                IMCT                                                                                                                    WMF1802284.TXT
MDEDJ2375204201803                D89828070300PT1D20180304000030SPEAKER ASM                   M IMCTM S5NB082TNTH  07070IMCT  S5 PTB  00015                    0400 SR        000000000000 DENSO TEN (THAILAND)18072UL0007007                                                                                                                              *          20180228 IMCT                IMCT                                                                                                                    WMF1802284.TXT
MDEDJ2375205201803                D89828070300PT1D20180305000060SPEAKER ASM                   M IMCTM S5NB082TNTH  07070IMCT  S5 PTB  00015                    0830 SR        000000000000 DENSO TEN (THAILAND)18055XL000100118070UL0004004                                                                                                                *          20180228 IMCT                IMCT                                                                                                                    WMF1802284.TXT
MDEDJ2375206201803                D89828070300PT1D20180305000120SPEAKER ASM                   M IMCTM S5NB082TNTH  07070IMCT  S5 PTB  00015                    1300 SR        000000000000 DENSO TEN (THAILAND)17040RL000700818061UL0003004                                                                                                                *          20180228 IMCT                IMCT                                                                                                                    WMF1802284.TXT
MDEDJ2375207201803                D89828070300PT1D20180305000060SPEAKER ASM                   M IMCTM S5NB082TNTH  07070IMCT  S5 PTB  00015                    1600 SR        000000000000 DENSO TEN (THAILAND)18099UL0022023                                                                                                                              *          20180228 IMCT                IMCT                                                                                                                    WMF1802284.TXT
MDEDJ2375208201803                D89828070300PT1D20180305000030SPEAKER ASM                   M IMCTM S5NB082TNTH  07070IMCT  S5 PTB  00015                    2100 SR        000000000000 DENSO TEN (THAILAND)18071UL0004004                                                                                                                              *          20180228 IMCT                IMCT                                                                                                                    WMF1802284.TXT
MDEDJ2375209201803                D89828070300PT4D20180305000030SPEAKER ASM                   M IMCTM S9TS02 TNTH  07070IMCT  S9 PTB  00015                    0830 SR        000000000000 DENSO TEN (THAILAND)18036ZU0001001                                                                                                                              *          20180228 IMCT                IMCT                                                                                                                    WMF1802284.TXT
MDEDJ2375210201803                D89831228400PT1D20180303000030RADIO;AM/FM,CD                M IMCTM S5NC06 TNTH  07070IMCT  S5 CPB  00003                    2230 SR        000000000000 DENSO TEN (THAILAND)17045RL0001002                                                                                                                              *          20180228 IMCT                IMCT                                                                                                                    WMF1802284.TXT
MDEDJ2375211201803                D89831228600PT1D20180305000015RADIO;AM/FM,CD                M IMCTM S5NC06 TNTH  07070IMCT  S5 PTB  00003                    0830 SR        000000000000 DENSO TEN (THAILAND)18070UL0004004                                                                                                                              *          20180228 IMCT                IMCT                                                                                                                    WMF1802284.TXT
MDEDJ2375212201803                D89831229000PT1D20180305000030RADIO;AM/FM,CD                M IMCTM S5NC06 TNTH  07070IMCT  S5 PTB  00003                    1300 SR        000000000000 DENSO TEN (THAILAND)17040RL0007008                                                                                                                              *          20180228 IMCT                IMCT                                                                                                                    WMF1802284.TXT
MDEDJ2375213201803                D89848581800PT1D20180304000015RADIO;AM/FM CD D              M IMCTM S5NC06 TNTH  07070IMCT  S5 PTB  00003                    0400 SR        000000000000 DENSO TEN (THAILAND)18072UL0007007                                                                                                                              *          20180228 IMCT                IMCT                                                                                                                    WMF1802284.TXT
MDEDJ2375214201803                D89848581800PT1D20180305000030RADIO;AM/FM CD D              M IMCTM S5NC06 TNTH  07070IMCT  S5 PTB  00003                    1300 SR        000000000000 DENSO TEN (THAILAND)18061UL0003004                                                                                                                              *          20180228 IMCT                IMCT                                                                                                                    WMF1802284.TXT
MDEDJ2375215201803                D89848581800PT1D20180305000015RADIO;AM/FM CD D              M IMCTM S5NC06 TNTH  07070IMCT  S5 PTB  00003                    2100 SR        000000000000 DENSO TEN (THAILAND)18071UL0004004                                                                                                                              *          20180228 IMCT                IMCT                                                                                                                    WMF1802284.TXT
MDEDJ2375216201803                D89848582100PT1D20180305000015RADIO;AM/FM CD D              M IMCTM S5NC06 TNTH  07070IMCT  S5 PTB  00003                    0830 SR        000000000000 DENSO TEN (THAILAND)18055XL0001001                                                                                                                              *          20180228 IMCT                IMCT                                                                                                                    WMF1802284.TXT
MDEUJ2321291201803                D89828070100PT4U20180303000060SPEAKER ASM                   M IMCTM S0FL05 TNTH  07070IMCT  S0 PTB  00004                    2230 SR        000000000000 DENSO TEN (THAILAND)18020UU001601618026UU0205205                                                                                                                *          20180228 IMCT                IMCT                                                                                                                    WMF1802284.TXT
MDEUJ2321292201803                D89828070100PT4U20180304000060SPEAKER ASM                   M IMCTM S0FL05 TNTH  07070IMCT  S0 PTB  00004                    0400 SR        000000000000 DENSO TEN (THAILAND)18025UU004604618053YU0001001                                                                                                                *          20180228 IMCT                IMCT                                                                                                                    WMF1802284.TXT
MDEUJ2321293201803                D89828070100PT4U20180305000030SPEAKER ASM                   M IMCTM S0FL05 TNTH  07070IMCT  S0 PTB  00004                    1300 SR        000000000000 DENSO TEN (THAILAND)18021UU0037037                                                                                                                              *          20180228 IMCT                IMCT                                                                                                                    WMF1802284.TXT
MDEUJ2321294201803                D89828070100PT4U20180305000030SPEAKER ASM                   M IMCTM S0FL05 TNTH  07070IMCT  S0 PTB  00004                    1600 SR        000000000000 DENSO TEN (THAILAND)18015UU0006006                                                                                                                              *          20180228 IMCT                IMCT                                                                                                                    WMF1802284.TXT
MDEUJ2321295201803                D89828070100PT4U20180305000030SPEAKER ASM                   M IMCTM S0FL05 TNTH  07070IMCT  S0 PTB  00004                    2100 SR        000000000000 DENSO TEN (THAILAND)18004TU0001001                                                                                                                              *          20180228 IMCT                IMCT                                                                                                                    WMF1802284.TXT
MDEUJ2321296201803                D89828070100PT4U20180305000030SPEAKER ASM                   M IMCTM S0FL05 TNTH  07070IMCT  S0 PTB  00004                    2230 SR        000000000000 DENSO TEN (THAILAND)18021UU0038038                                                                                                                              *          20180228 IMCT                IMCT                                                                                                                    WMF1802284.TXT
MDEUJ2321297201803                D89828070200PV4U20180303000060SPEAKER ASM                   M IMCTM S0FR05 TNTH  07070IMCT  S0 PTB  00005                    2230 SR        000000000000 DENSO TEN (THAILAND)18020UU001601618026UU0205205                                                                                                                *          20180228 IMCT                IMCT                                                                                                                    WMF1802284.TXT
MDEUJ2321298201803                D89828070200PV4U20180304000060SPEAKER ASM                   M IMCTM S0FR05 TNTH  07070IMCT  S0 PTB  00005                    0400 SR        000000000000 DENSO TEN (THAILAND)18025UU004604618053YU0001001                                                                                                                *          20180228 IMCT                IMCT                                                                                                                    WMF1802284.TXT
MDEUJ2321299201803                D89828070200PV4U20180305000030SPEAKER ASM                   M IMCTM S0FR05 TNTH  07070IMCT  S0 PTB  00005                    1300 SR        000000000000 DENSO TEN (THAILAND)18021UU0037037                                                                                                                              *          20180228 IMCT                IMCT                                                                                                                    WMF1802284.TXT
MDEUJ2321300201803                D89828070200PV4U20180305000030SPEAKER ASM                   M IMCTM S0FR05 TNTH  07070IMCT  S0 PTB  00005                    1600 SR        000000000000 DENSO TEN (THAILAND)18015UU0006006                                                                                                                              *          20180228 IMCT                IMCT                                                                                                                    WMF1802284.TXT
MDEUJ2321301201803                D89828070200PV4U20180305000030SPEAKER ASM                   M IMCTM S0FR05 TNTH  07070IMCT  S0 PTB  00005                    2100 SR        000000000000 DENSO TEN (THAILAND)18004TU0001001                                                                                                                              *          20180228 IMCT                IMCT                                                                                                                    WMF1802284.TXT
MDEUJ2321302201803                D89828070200PV4U20180305000030SPEAKER ASM                   M IMCTM S0FR05 TNTH  07070IMCT  S0 PTB  00005                    2230 SR        000000000000 DENSO TEN (THAILAND)18021UU0038038                                                                                                                              *          20180228 IMCT                IMCT                                                                                                                    WMF1802284.TXT
MDEUJ2321303201803                D89828070300PT4U20180303000060SPEAKER ASM                   M IMCTM S9TS02 TNTH  07070IMCT  S9 PTB  00015                    2230 SR        000000000000 DENSO TEN (THAILAND)18020UU001601618026UU0205205                                                                                                                *          20180228 IMCT                IMCT                                                                                                                    WMF1802284.TXT
MDEUJ2321304201803                D89828070300PT4U20180304000060SPEAKER ASM                   M IMCTM S9TS02 TNTH  07070IMCT  S9 PTB  00015                    0400 SR        000000000000 DENSO TEN (THAILAND)18025UU004604618053YU0001001                                                                                                                *          20180228 IMCT                IMCT                                                                                                                    WMF1802284.TXT
MDEUJ2321305201803                D89828070300PT4U20180305000030SPEAKER ASM                   M IMCTM S9TS02 TNTH  07070IMCT  S9 PTB  00015                    1300 SR        000000000000 DENSO TEN (THAILAND)18021UU0037037                                                                                                                              *          20180228 IMCT                IMCT                                                                                                                    WMF1802284.TXT
MDEUJ2321306201803                D89828070300PT4U20180305000030SPEAKER ASM                   M IMCTM S9TS02 TNTH  07070IMCT  S9 PTB  00015                    1600 SR        000000000000 DENSO TEN (THAILAND)18015UU0006006                                                                                                                              *          20180228 IMCT                IMCT                                                                                                                    WMF1802284.TXT
MDEUJ2321307201803                D89828070300PT4U20180305000030SPEAKER ASM                   M IMCTM S9TS02 TNTH  07070IMCT  S9 PTB  00015                    2100 SR        000000000000 DENSO TEN (THAILAND)18004TU0001001                                                                                                                              *          20180228 IMCT                IMCT                                                                                                                    WMF1802284.TXT
MDEUJ2321308201803                D89828070300PT4U20180305000030SPEAKER ASM                   M IMCTM S9TS02 TNTH  07070IMCT  S9 PTB  00015                    2230 SR        000000000000 DENSO TEN (THAILAND)18021UU0038038                                                                                                                              *          20180228 IMCT                IMCT                                                                                                                    WMF1802284.TXT
MDEUJ2321309201803                D89848584500PT4U20180304000015RADIO;AM/FM CD D              M IMCTM S9CO001TNTH  07070IMCT  S9 PTB  00003                    0400 SR        000000000000 DENSO TEN (THAILAND)18053YU0001001                                                                                                                              *          20180228 IMCT                IMCT                                                                                                                    WMF1802284.TXT
