REC2018022220180222ISUZU                              64     
MDDDJ2267448201802                D89821984430PT1D20180226000030RADIO;AM/FM,CD                M IMCTM S5NC06 TNTH  07070IMCT  S5 PTB  00005                    2230 SR        000000000000 DENSO TEN (THAILAND)180LPAL0083083                                                                                                                              *          20180222 IMCT                IMCT                                                                                                                    WMF1802228.TXT
MDDDJ2267449201802                D89821984430PT1D20180227000030RADIO;AM/FM,CD                M IMCTM S5NC06 TNTH  07070IMCT  S5 PTB  00005                    0230 SR        000000000000 DENSO TEN (THAILAND)180LRAL0134134                                                                                                                              *          20180222 IMCT                IMCT                                                                                                                    WMF1802228.TXT
MDDDJ2267450201802                D89821984430PT1D20180227000030RADIO;AM/FM,CD                M IMCTM S5NC06 TNTH  07070IMCT  S5 PTB  00005                    1300 SR        000000000000 DENSO TEN (THAILAND)180LNHL0035035                                                                                                                              *          20180222 IMCT                IMCT                                                                                                                    WMF1802228.TXT
MDDDJ2267451201802                D89821984430PT1D20180227000030RADIO;AM/FM,CD                M IMCTM S5NC06 TNTH  07070IMCT  S5 PTB  00005                    2100 SR        000000000000 DENSO TEN (THAILAND)180LRAL0135135                                                                                                                              *          20180222 IMCT                IMCT                                                                                                                    WMF1802228.TXT
MDDDJ2267452201802                D89821984430PT1D20180227000030RADIO;AM/FM,CD                M IMCTM S5NC06 TNTH  07070IMCT  S5 PTB  00005                    2230 SR        000000000000 DENSO TEN (THAILAND)180LNCL0032032                                                                                                                              *          20180222 IMCT                IMCT                                                                                                                    WMF1802228.TXT
MDDDJ2267453201802                D89828070100PV1D20180226000060SPEAKER ASM                   M IMCTM S5MB11 TNTH  07070IMCT  S5 PTB  00004                    2230 SR        000000000000 DENSO TEN (THAILAND)180LPAL0083083                                                                                                                              *          20180222 IMCT                IMCT                                                                                                                    WMF1802228.TXT
MDDDJ2267454201802                D89828070100PV1D20180227000060SPEAKER ASM                   M IMCTM S5MB11 TNTH  07070IMCT  S5 PTB  00004                    0230 SR        000000000000 DENSO TEN (THAILAND)180LRAL0134134                                                                                                                              *          20180222 IMCT                IMCT                                                                                                                    WMF1802228.TXT
MDDDJ2267455201802                D89828070100PV1D20180227000120SPEAKER ASM                   M IMCTM S5MB11 TNTH  07070IMCT  S5 PTB  00004                    1300 SR        000000000000 DENSO TEN (THAILAND)180LNHL0035035180LPJL0017017                                                                                                                *          20180222 IMCT                IMCT                                                                                                                    WMF1802228.TXT
MDDDJ2267456201802                D89828070100PV1D20180227000060SPEAKER ASM                   M IMCTM S5MB11 TNTH  07070IMCT  S5 PTB  00004                    2100 SR        000000000000 DENSO TEN (THAILAND)180LRAL0135135                                                                                                                              *          20180222 IMCT                IMCT                                                                                                                    WMF1802228.TXT
MDDDJ2267457201802                D89828070100PV1D20180227000060SPEAKER ASM                   M IMCTM S5MB11 TNTH  07070IMCT  S5 PTB  00004                    2230 SR        000000000000 DENSO TEN (THAILAND)180LNCL0032032                                                                                                                              *          20180222 IMCT                IMCT                                                                                                                    WMF1802228.TXT
MDDDJ2267458201802                D89828070100PV4D20180227000060SPEAKER ASM                   M IMCTM S0FL05 TNTH  07070IMCT  S0 PTB  00004                    0400 SR        000000000000 DENSO TEN (THAILAND)180LRSU0038038                                                                                                                              *          20180222 IMCT                IMCT                                                                                                                    WMF1802228.TXT
MDDDJ2267459201802                D89828070200PV4D20180227000060SPEAKER ASM                   M IMCTM S0FR05 TNTH  07070IMCT  S0 PTB  00005                    0400 SR        000000000000 DENSO TEN (THAILAND)180LRSU0038038                                                                                                                              *          20180222 IMCT                IMCT                                                                                                                    WMF1802228.TXT
MDDDJ2267460201802                D89828070300PT1D20180227000060SPEAKER ASM                   M IMCTM S5NB082TNTH  07070IMCT  S5 PTB  00015                    1300 SR        000000000000 DENSO TEN (THAILAND)180LPJL0017017                                                                                                                              *          20180222 IMCT                IMCT                                                                                                                    WMF1802228.TXT
MDDDJ2267461201802                D89828070300PT4D20180227000060SPEAKER ASM                   M IMCTM S9TS02 TNTH  07070IMCT  S9 PTB  00015                    0400 SR        000000000000 DENSO TEN (THAILAND)180LRSU0038038                                                                                                                              *          20180222 IMCT                IMCT                                                                                                                    WMF1802228.TXT
MDDDJ2267462201802                D89831228300PT1D20180227000030RADIO;AM/FM,CD                M IMCTM S5NC06 TNTH  07070IMCT  S5 CPB  00003                    1300 SR        000000000000 DENSO TEN (THAILAND)180LPJL0017017                                                                                                                              *          20180222 IMCT                IMCT                                                                                                                    WMF1802228.TXT
MDDUJ2223336201802                D89828070100PT4U20180227000030SPEAKER ASM                   M IMCTM S0FL05 TNTH  07070IMCT  S0 PTB  00004                    1030 SR        000000000000 DENSO TEN (THAILAND)180LUMU0012012                                                                                                                              *          20180222 IMCT                IMCT                                                                                                                    WMF1802228.TXT
MDDUJ2223337201802                D89828070200PV4U20180227000030SPEAKER ASM                   M IMCTM S0FR05 TNTH  07070IMCT  S0 PTB  00005                    1030 SR        000000000000 DENSO TEN (THAILAND)180LUMU0012012                                                                                                                              *          20180222 IMCT                IMCT                                                                                                                    WMF1802228.TXT
MDDUJ2223338201802                D89828070300PT4U20180227000030SPEAKER ASM                   M IMCTM S9TS02 TNTH  07070IMCT  S9 PTB  00015                    1030 SR        000000000000 DENSO TEN (THAILAND)180LUMU0012012                                                                                                                              *          20180222 IMCT                IMCT                                                                                                                    WMF1802228.TXT
MDEDJ2336935201802                D89828070100PV1D20180226000030SPEAKER ASM                   M IMCTM S5MB11 TNTH  07070IMCT  S5 PTB  00004                    2230 SR        000000000000 DENSO TEN (THAILAND)18015XL0001001                                                                                                                              *          20180222 IMCT                IMCT                                                                                                                    WMF1802228.TXT
MDEDJ2336936201802                D89828070100PV1D20180227000030SPEAKER ASM                   M IMCTM S5MB11 TNTH  07070IMCT  S5 PTB  00004                    0230 SR        000000000000 DENSO TEN (THAILAND)17028RL0025025                                                                                                                              *          20180222 IMCT                IMCT                                                                                                                    WMF1802228.TXT
MDEDJ2336937201802                D89828070100PV1D20180227000090SPEAKER ASM                   M IMCTM S5MB11 TNTH  07070IMCT  S5 PTB  00004                    0400 SR        000000000000 DENSO TEN (THAILAND)17050RL002502617052RL0029029                                                                                                                *          20180222 IMCT                IMCT                                                                                                                    WMF1802228.TXT
MDEDJ2336938201802                D89828070100PV1D20180227000090SPEAKER ASM                   M IMCTM S5MB11 TNTH  07070IMCT  S5 PTB  00004                    0830 SR        000000000000 DENSO TEN (THAILAND)17075PL010911018074XL0001001                                                                                                                *          20180222 IMCT                IMCT                                                                                                                    WMF1802228.TXT
MDEDJ2336939201802                D89828070100PV1D20180227000060SPEAKER ASM                   M IMCTM S5MB11 TNTH  07070IMCT  S5 PTB  00004                    1030 SR        000000000000 DENSO TEN (THAILAND)17079QL0033034                                                                                                                              *          20180222 IMCT                IMCT                                                                                                                    WMF1802228.TXT
MDEDJ2336940201802                D89828070100PV1D20180227000180SPEAKER ASM                   M IMCTM S5MB11 TNTH  07070IMCT  S5 PTB  00004                    1600 SR        000000000000 DENSO TEN (THAILAND)17075PL011111318078XL000200218082UL0028029                                                                                                  *          20180222 IMCT                IMCT                                                                                                                    WMF1802228.TXT
MDEDJ2336941201802                D89828070100PV1D20180227000060SPEAKER ASM                   M IMCTM S5MB11 TNTH  07070IMCT  S5 PTB  00004                    2230 SR        000000000000 DENSO TEN (THAILAND)18070UL000300318082WL0002002                                                                                                                *          20180222 IMCT                IMCT                                                                                                                    WMF1802228.TXT
MDEDJ2336942201802                D89828070100PV4D20180227000090SPEAKER ASM                   M IMCTM S0FL05 TNTH  07070IMCT  S0 PTB  00004                    1600 SR        000000000000 DENSO TEN (THAILAND)18001VU000200218042ZU000200218099UU0006006                                                                                                  *          20180222 IMCT                IMCT                                                                                                                    WMF1802228.TXT
MDEDJ2336943201802                D89828070100PV4D20180227000030SPEAKER ASM                   M IMCTM S0FL05 TNTH  07070IMCT  S0 PTB  00004                    2230 SR        000000000000 DENSO TEN (THAILAND)18066UU0002002                                                                                                                              *          20180222 IMCT                IMCT                                                                                                                    WMF1802228.TXT
MDEDJ2336944201802                D89828070200PV1D20180227000060SPEAKER ASM                   M IMCTM S5MA14 TNTH  07070IMCT  S5 PTB  00005                    0400 SR        000000000000 DENSO TEN (THAILAND)17050RL0025026                                                                                                                              *          20180222 IMCT                IMCT                                                                                                                    WMF1802228.TXT
MDEDJ2336945201802                D89828070200PV1D20180227000060SPEAKER ASM                   M IMCTM S5MA14 TNTH  07070IMCT  S5 PTB  00005                    1600 SR        000000000000 DENSO TEN (THAILAND)18082UL0028029                                                                                                                              *          20180222 IMCT                IMCT                                                                                                                    WMF1802228.TXT
MDEDJ2336946201802                D89828070200PV4D20180227000060SPEAKER ASM                   M IMCTM S0FR05 TNTH  07070IMCT  S0 PTB  00005                    1600 SR        000000000000 DENSO TEN (THAILAND)18001VU000200218099UU0006006                                                                                                                *          20180222 IMCT                IMCT                                                                                                                    WMF1802228.TXT
MDEDJ2336947201802                D89828070200PV4D20180227000030SPEAKER ASM                   M IMCTM S0FR05 TNTH  07070IMCT  S0 PTB  00005                    2230 SR        000000000000 DENSO TEN (THAILAND)18066UU0002002                                                                                                                              *          20180222 IMCT                IMCT                                                                                                                    WMF1802228.TXT
MDEDJ2336948201802                D89828070300PT1D20180226000030SPEAKER ASM                   M IMCTM S5NB082TNTH  07070IMCT  S5 PTB  00015                    2230 SR        000000000000 DENSO TEN (THAILAND)18015XL0001001                                                                                                                              *          20180222 IMCT                IMCT                                                                                                                    WMF1802228.TXT
MDEDJ2336949201802                D89828070300PT1D20180227000060SPEAKER ASM                   M IMCTM S5NB082TNTH  07070IMCT  S5 PTB  00015                    0400 SR        000000000000 DENSO TEN (THAILAND)17050RL0025026                                                                                                                              *          20180222 IMCT                IMCT                                                                                                                    WMF1802228.TXT
MDEDJ2336950201802                D89828070300PT1D20180227000090SPEAKER ASM                   M IMCTM S5NB082TNTH  07070IMCT  S5 PTB  00015                    1600 SR        000000000000 DENSO TEN (THAILAND)18078XL000200218082UL0028029                                                                                                                *          20180222 IMCT                IMCT                                                                                                                    WMF1802228.TXT
MDEDJ2336951201802                D89828070300PT1D20180227000030SPEAKER ASM                   M IMCTM S5NB082TNTH  07070IMCT  S5 PTB  00015                    2230 SR        000000000000 DENSO TEN (THAILAND)18070UL0003003                                                                                                                              *          20180222 IMCT                IMCT                                                                                                                    WMF1802228.TXT
MDEDJ2336952201802                D89828070300PT4D20180227000090SPEAKER ASM                   M IMCTM S9TS02 TNTH  07070IMCT  S9 PTB  00015                    1600 SR        000000000000 DENSO TEN (THAILAND)18001VU000200218042ZU000200218099UU0006006                                                                                                  *          20180222 IMCT                IMCT                                                                                                                    WMF1802228.TXT
MDEDJ2336953201802                D89828070300PT4D20180227000030SPEAKER ASM                   M IMCTM S9TS02 TNTH  07070IMCT  S9 PTB  00015                    2230 SR        000000000000 DENSO TEN (THAILAND)18066UU0002002                                                                                                                              *          20180222 IMCT                IMCT                                                                                                                    WMF1802228.TXT
MDEDJ2336954201802                D89829645410PT1D20180227000030RADIO;ASM DVD                 M IMCTM S5NC06 TNTH  07070IMCT  S5 PTB  00003                    0400 SR        000000000000 DENSO TEN (THAILAND)17050RL0025026                                                                                                                              *          20180222 IMCT                IMCT                                                                                                                    WMF1802228.TXT
MDEDJ2336955201802                D89831228600PT1D20180227000015RADIO;AM/FM,CD                M IMCTM S5NC06 TNTH  07070IMCT  S5 PTB  00003                    2230 SR        000000000000 DENSO TEN (THAILAND)18070UL0003003                                                                                                                              *          20180222 IMCT                IMCT                                                                                                                    WMF1802228.TXT
MDEDJ2336956201802                D89848581800PT1D20180227000030RADIO;AM/FM CD D              M IMCTM S5NC06 TNTH  07070IMCT  S5 PTB  00003                    1600 SR        000000000000 DENSO TEN (THAILAND)18082UL0028029                                                                                                                              *          20180222 IMCT                IMCT                                                                                                                    WMF1802228.TXT
MDEDJ2336957201802                D89848581800PT4D20180227000015RADIO;AM/FM CD D              M IMCTM S9CO001TNTH  07070IMCT  S9 PTB  00003                    2230 SR        000000000000 DENSO TEN (THAILAND)18066UU0002002                                                                                                                              *          20180222 IMCT                IMCT                                                                                                                    WMF1802228.TXT
MDEDJ2336958201802                D89848582800PT1D20180226000015RADIO;AM/FM CD D              M IMCTM S5NC06 TNTH  07070IMCT  S5 X    00030                    2230 SR        000000000000 DENSO TEN (THAILAND)18015XL0001001                                                                                                                              *          20180222 IMCT                IMCT                                                                                                                    WMF1802228.TXT
MDEDJ2336959201802                D89848582800PT1D20180227000015RADIO;AM/FM CD D              M IMCTM S5NC06 TNTH  07070IMCT  S5 X    00030                    1600 SR        000000000000 DENSO TEN (THAILAND)18078XL0002002                                                                                                                              *          20180222 IMCT                IMCT                                                                                                                    WMF1802228.TXT
MDEUJ2295889201802                D89828070100PT4U20180226000060SPEAKER ASM                   M IMCTM S0FL05 TNTH  07070IMCT  S0 PTB  00004                    2230 SR        000000000000 DENSO TEN (THAILAND)18026UU0183184                                                                                                                              *          20180222 IMCT                IMCT                                                                                                                    WMF1802228.TXT
MDEUJ2295890201802                D89828070100PT4U20180227000060SPEAKER ASM                   M IMCTM S0FL05 TNTH  07070IMCT  S0 PTB  00004                    0400 SR        000000000000 DENSO TEN (THAILAND)18021UU002802818026UU0185185                                                                                                                *          20180222 IMCT                IMCT                                                                                                                    WMF1802228.TXT
MDEUJ2295891201802                D89828070100PT4U20180227000030SPEAKER ASM                   M IMCTM S0FL05 TNTH  07070IMCT  S0 PTB  00004                    0830 SR        000000000000 DENSO TEN (THAILAND)18049ZU0031031                                                                                                                              *          20180222 IMCT                IMCT                                                                                                                    WMF1802228.TXT
MDEUJ2295892201802                D89828070100PT4U20180227000060SPEAKER ASM                   M IMCTM S0FL05 TNTH  07070IMCT  S0 PTB  00004                    1300 SR        000000000000 DENSO TEN (THAILAND)18026UU018618618049ZU0032032                                                                                                                *          20180222 IMCT                IMCT                                                                                                                    WMF1802228.TXT
MDEUJ2295893201802                D89828070100PT4U20180227000060SPEAKER ASM                   M IMCTM S0FL05 TNTH  07070IMCT  S0 PTB  00004                    1600 SR        000000000000 DENSO TEN (THAILAND)18021UU002902918049ZU0033033                                                                                                                *          20180222 IMCT                IMCT                                                                                                                    WMF1802228.TXT
MDEUJ2295894201802                D89828070100PT4U20180227000030SPEAKER ASM                   M IMCTM S0FL05 TNTH  07070IMCT  S0 PTB  00004                    2100 SR        000000000000 DENSO TEN (THAILAND)18021UU0030030                                                                                                                              *          20180222 IMCT                IMCT                                                                                                                    WMF1802228.TXT
MDEUJ2295895201802                D89828070100PT4U20180227000030SPEAKER ASM                   M IMCTM S0FL05 TNTH  07070IMCT  S0 PTB  00004                    2230 SR        000000000000 DENSO TEN (THAILAND)18026UU0187187                                                                                                                              *          20180222 IMCT                IMCT                                                                                                                    WMF1802228.TXT
MDEUJ2295896201802                D89828070200PV4U20180226000060SPEAKER ASM                   M IMCTM S0FR05 TNTH  07070IMCT  S0 PTB  00005                    2230 SR        000000000000 DENSO TEN (THAILAND)18026UU0183184                                                                                                                              *          20180222 IMCT                IMCT                                                                                                                    WMF1802228.TXT
MDEUJ2295897201802                D89828070200PV4U20180227000060SPEAKER ASM                   M IMCTM S0FR05 TNTH  07070IMCT  S0 PTB  00005                    0400 SR        000000000000 DENSO TEN (THAILAND)18021UU002802818026UU0185185                                                                                                                *          20180222 IMCT                IMCT                                                                                                                    WMF1802228.TXT
MDEUJ2295898201802                D89828070200PV4U20180227000030SPEAKER ASM                   M IMCTM S0FR05 TNTH  07070IMCT  S0 PTB  00005                    0830 SR        000000000000 DENSO TEN (THAILAND)18049ZU0031031                                                                                                                              *          20180222 IMCT                IMCT                                                                                                                    WMF1802228.TXT
MDEUJ2295899201802                D89828070200PV4U20180227000060SPEAKER ASM                   M IMCTM S0FR05 TNTH  07070IMCT  S0 PTB  00005                    1300 SR        000000000000 DENSO TEN (THAILAND)18026UU018618618049ZU0032032                                                                                                                *          20180222 IMCT                IMCT                                                                                                                    WMF1802228.TXT
MDEUJ2295900201802                D89828070200PV4U20180227000060SPEAKER ASM                   M IMCTM S0FR05 TNTH  07070IMCT  S0 PTB  00005                    1600 SR        000000000000 DENSO TEN (THAILAND)18021UU002902918049ZU0033033                                                                                                                *          20180222 IMCT                IMCT                                                                                                                    WMF1802228.TXT
MDEUJ2295901201802                D89828070200PV4U20180227000030SPEAKER ASM                   M IMCTM S0FR05 TNTH  07070IMCT  S0 PTB  00005                    2100 SR        000000000000 DENSO TEN (THAILAND)18021UU0030030                                                                                                                              *          20180222 IMCT                IMCT                                                                                                                    WMF1802228.TXT
MDEUJ2295902201802                D89828070200PV4U20180227000030SPEAKER ASM                   M IMCTM S0FR05 TNTH  07070IMCT  S0 PTB  00005                    2230 SR        000000000000 DENSO TEN (THAILAND)18026UU0187187                                                                                                                              *          20180222 IMCT                IMCT                                                                                                                    WMF1802228.TXT
MDEUJ2295903201802                D89828070300PT4U20180226000060SPEAKER ASM                   M IMCTM S9TS02 TNTH  07070IMCT  S9 PTB  00015                    2230 SR        000000000000 DENSO TEN (THAILAND)18026UU0183184                                                                                                                              *          20180222 IMCT                IMCT                                                                                                                    WMF1802228.TXT
MDEUJ2295904201802                D89828070300PT4U20180227000060SPEAKER ASM                   M IMCTM S9TS02 TNTH  07070IMCT  S9 PTB  00015                    0400 SR        000000000000 DENSO TEN (THAILAND)18021UU002802818026UU0185185                                                                                                                *          20180222 IMCT                IMCT                                                                                                                    WMF1802228.TXT
MDEUJ2295905201802                D89828070300PT4U20180227000030SPEAKER ASM                   M IMCTM S9TS02 TNTH  07070IMCT  S9 PTB  00015                    0830 SR        000000000000 DENSO TEN (THAILAND)18049ZU0031031                                                                                                                              *          20180222 IMCT                IMCT                                                                                                                    WMF1802228.TXT
MDEUJ2295906201802                D89828070300PT4U20180227000060SPEAKER ASM                   M IMCTM S9TS02 TNTH  07070IMCT  S9 PTB  00015                    1300 SR        000000000000 DENSO TEN (THAILAND)18026UU018618618049ZU0032032                                                                                                                *          20180222 IMCT                IMCT                                                                                                                    WMF1802228.TXT
MDEUJ2295907201802                D89828070300PT4U20180227000060SPEAKER ASM                   M IMCTM S9TS02 TNTH  07070IMCT  S9 PTB  00015                    1600 SR        000000000000 DENSO TEN (THAILAND)18021UU002902918049ZU0033033                                                                                                                *          20180222 IMCT                IMCT                                                                                                                    WMF1802228.TXT
MDEUJ2295908201802                D89828070300PT4U20180227000030SPEAKER ASM                   M IMCTM S9TS02 TNTH  07070IMCT  S9 PTB  00015                    2100 SR        000000000000 DENSO TEN (THAILAND)18021UU0030030                                                                                                                              *          20180222 IMCT                IMCT                                                                                                                    WMF1802228.TXT
MDEUJ2295909201802                D89828070300PT4U20180227000030SPEAKER ASM                   M IMCTM S9TS02 TNTH  07070IMCT  S9 PTB  00015                    2230 SR        000000000000 DENSO TEN (THAILAND)18026UU0187187                                                                                                                              *          20180222 IMCT                IMCT                                                                                                                    WMF1802228.TXT
