REC2018021920180219ISUZU                              71     
MDDDJ2259166201802                D89821984430PT1D20180223000030RADIO;AM/FM,CD                M IMCTM S5NC06 TNTH  07070IMCT  S5 PTB  00005                    0400 SR        000000000000 DENSO TEN (THAILAND)180LNEL0063063                                                                                                                              *          20180219 IMCT                IMCT                                                                                                                    WMF1802192.TXT
MDDDJ2259167201802                D89821984430PT1D20180223000030RADIO;AM/FM,CD                M IMCTM S5NC06 TNTH  07070IMCT  S5 PTB  00005                    1600 SR        000000000000 DENSO TEN (THAILAND)180LRBL0020020                                                                                                                              *          20180219 IMCT                IMCT                                                                                                                    WMF1802192.TXT
MDDDJ2259168201802                D89828070100PV1D20180223000060SPEAKER ASM                   M IMCTM S5MB11 TNTH  07070IMCT  S5 PTB  00004                    0400 SR        000000000000 DENSO TEN (THAILAND)180LNEL0063063                                                                                                                              *          20180219 IMCT                IMCT                                                                                                                    WMF1802192.TXT
MDDDJ2259169201802                D89828070100PV1D20180223000060SPEAKER ASM                   M IMCTM S5MB11 TNTH  07070IMCT  S5 PTB  00004                    0830 SR        000000000000 DENSO TEN (THAILAND)180LPGL0156156                                                                                                                              *          20180219 IMCT                IMCT                                                                                                                    WMF1802192.TXT
MDDDJ2259170201802                D89828070100PV1D20180223000060SPEAKER ASM                   M IMCTM S5MB11 TNTH  07070IMCT  S5 PTB  00004                    1300 SR        000000000000 DENSO TEN (THAILAND)180LPGL0157157                                                                                                                              *          20180219 IMCT                IMCT                                                                                                                    WMF1802192.TXT
MDDDJ2259171201802                D89828070100PV1D20180223000060SPEAKER ASM                   M IMCTM S5MB11 TNTH  07070IMCT  S5 PTB  00004                    1600 SR        000000000000 DENSO TEN (THAILAND)180LRBL0020020                                                                                                                              *          20180219 IMCT                IMCT                                                                                                                    WMF1802192.TXT
MDDDJ2259172201802                D89828070300PT1D20180223000060SPEAKER ASM                   M IMCTM S5NB082TNTH  07070IMCT  S5 PTB  00015                    0830 SR        000000000000 DENSO TEN (THAILAND)180LPGL0156156                                                                                                                              *          20180219 IMCT                IMCT                                                                                                                    WMF1802192.TXT
MDDDJ2259173201802                D89828070300PT1D20180223000060SPEAKER ASM                   M IMCTM S5NB082TNTH  07070IMCT  S5 PTB  00015                    1300 SR        000000000000 DENSO TEN (THAILAND)180LPGL0157157                                                                                                                              *          20180219 IMCT                IMCT                                                                                                                    WMF1802192.TXT
MDDDJ2259174201802                D89831228300PT1D20180223000030RADIO;AM/FM,CD                M IMCTM S5NC06 TNTH  07070IMCT  S5 CPB  00003                    0830 SR        000000000000 DENSO TEN (THAILAND)180LPGL0156156                                                                                                                              *          20180219 IMCT                IMCT                                                                                                                    WMF1802192.TXT
MDDDJ2259175201802                D89831228300PT1D20180223000030RADIO;AM/FM,CD                M IMCTM S5NC06 TNTH  07070IMCT  S5 CPB  00003                    1300 SR        000000000000 DENSO TEN (THAILAND)180LPGL0157157                                                                                                                              *          20180219 IMCT                IMCT                                                                                                                    WMF1802192.TXT
MDEDJ2309418201802                D89828070100PV1D20180222000030SPEAKER ASM                   M IMCTM S5MB11 TNTH  07070IMCT  S5 PTB  00004                    2230 SR        000000000000 DENSO TEN (THAILAND)18082UL0023023                                                                                                                              *          20180219 IMCT                IMCT                                                                                                                    WMF1802192.TXT
MDEDJ2309419201802                D89828070100PV1D20180223000060SPEAKER ASM                   M IMCTM S5MB11 TNTH  07070IMCT  S5 PTB  00004                    0230 SR        000000000000 DENSO TEN (THAILAND)17054PL0069070                                                                                                                              *          20180219 IMCT                IMCT                                                                                                                    WMF1802192.TXT
MDEDJ2309420201802                D89828070100PV1D20180223000120SPEAKER ASM                   M IMCTM S5MB11 TNTH  07070IMCT  S5 PTB  00004                    0400 SR        000000000000 DENSO TEN (THAILAND)18001VL000500618082UL0024025                                                                                                                *          20180219 IMCT                IMCT                                                                                                                    WMF1802192.TXT
MDEDJ2309421201802                D89828070100PV1D20180223000030SPEAKER ASM                   M IMCTM S5MB11 TNTH  07070IMCT  S5 PTB  00004                    0830 SR        000000000000 DENSO TEN (THAILAND)18074UL0009009                                                                                                                              *          20180219 IMCT                IMCT                                                                                                                    WMF1802192.TXT
MDEDJ2309422201802                D89828070100PV1D20180223000060SPEAKER ASM                   M IMCTM S5MB11 TNTH  07070IMCT  S5 PTB  00004                    1030 SR        000000000000 DENSO TEN (THAILAND)17075PL010810818074UL0010010                                                                                                                *          20180219 IMCT                IMCT                                                                                                                    WMF1802192.TXT
MDEDJ2309423201802                D89828070100PV1D20180223000060SPEAKER ASM                   M IMCTM S5MB11 TNTH  07070IMCT  S5 PTB  00004                    1300 SR        000000000000 DENSO TEN (THAILAND)18065UL000700718071UL0003003                                                                                                                *          20180219 IMCT                IMCT                                                                                                                    WMF1802192.TXT
MDEDJ2309424201802                D89828070100PV1D20180223000060SPEAKER ASM                   M IMCTM S5MB11 TNTH  07070IMCT  S5 PTB  00004                    1600 SR        000000000000 DENSO TEN (THAILAND)18099UL0020021                                                                                                                              *          20180219 IMCT                IMCT                                                                                                                    WMF1802192.TXT
MDEDJ2309425201802                D89828070100PV1D20180223000060SPEAKER ASM                   M IMCTM S5MB11 TNTH  07070IMCT  S5 PTB  00004                    2100 SR        000000000000 DENSO TEN (THAILAND)18076UL0003004                                                                                                                              *          20180219 IMCT                IMCT                                                                                                                    WMF1802192.TXT
MDEDJ2309426201802                D89828070100PV1D20180223000030SPEAKER ASM                   M IMCTM S5MB11 TNTH  07070IMCT  S5 PTB  00004                    2230 SR        000000000000 DENSO TEN (THAILAND)18061UL0002002                                                                                                                              *          20180219 IMCT                IMCT                                                                                                                    WMF1802192.TXT
MDEDJ2309427201802                D89828070100PV4D20180223000030SPEAKER ASM                   M IMCTM S0FL05 TNTH  07070IMCT  S0 PTB  00004                    0400 SR        000000000000 DENSO TEN (THAILAND)18098UU0005005                                                                                                                              *          20180219 IMCT                IMCT                                                                                                                    WMF1802192.TXT
MDEDJ2309428201802                D89828070100PV4D20180223000030SPEAKER ASM                   M IMCTM S0FL05 TNTH  07070IMCT  S0 PTB  00004                    1300 SR        000000000000 DENSO TEN (THAILAND)18067UU0004004                                                                                                                              *          20180219 IMCT                IMCT                                                                                                                    WMF1802192.TXT
MDEDJ2309429201802                D89828070100PV4D20180223000030SPEAKER ASM                   M IMCTM S0FL05 TNTH  07070IMCT  S0 PTB  00004                    1600 SR        000000000000 DENSO TEN (THAILAND)18061UU0010010                                                                                                                              *          20180219 IMCT                IMCT                                                                                                                    WMF1802192.TXT
MDEDJ2309430201802                D89828070100PV4D20180223000030SPEAKER ASM                   M IMCTM S0FL05 TNTH  07070IMCT  S0 PTB  00004                    2100 SR        000000000000 DENSO TEN (THAILAND)18068UU0003003                                                                                                                              *          20180219 IMCT                IMCT                                                                                                                    WMF1802192.TXT
MDEDJ2309431201802                D89828070200PV1D20180222000030SPEAKER ASM                   M IMCTM S5MA14 TNTH  07070IMCT  S5 PTB  00005                    2230 SR        000000000000 DENSO TEN (THAILAND)18082UL0023023                                                                                                                              *          20180219 IMCT                IMCT                                                                                                                    WMF1802192.TXT
MDEDJ2309432201802                D89828070200PV1D20180223000120SPEAKER ASM                   M IMCTM S5MA14 TNTH  07070IMCT  S5 PTB  00005                    0400 SR        000000000000 DENSO TEN (THAILAND)18001VL000500618082UL0024025                                                                                                                *          20180219 IMCT                IMCT                                                                                                                    WMF1802192.TXT
MDEDJ2309433201802                D89828070200PV1D20180223000030SPEAKER ASM                   M IMCTM S5MA14 TNTH  07070IMCT  S5 PTB  00005                    1300 SR        000000000000 DENSO TEN (THAILAND)18065UL0007007                                                                                                                              *          20180219 IMCT                IMCT                                                                                                                    WMF1802192.TXT
MDEDJ2309434201802                D89828070200PV1D20180223000060SPEAKER ASM                   M IMCTM S5MA14 TNTH  07070IMCT  S5 PTB  00005                    1600 SR        000000000000 DENSO TEN (THAILAND)18099UL0020021                                                                                                                              *          20180219 IMCT                IMCT                                                                                                                    WMF1802192.TXT
MDEDJ2309435201802                D89828070200PV4D20180223000030SPEAKER ASM                   M IMCTM S0FR05 TNTH  07070IMCT  S0 PTB  00005                    0400 SR        000000000000 DENSO TEN (THAILAND)18098UU0005005                                                                                                                              *          20180219 IMCT                IMCT                                                                                                                    WMF1802192.TXT
MDEDJ2309436201802                D89828070200PV4D20180223000030SPEAKER ASM                   M IMCTM S0FR05 TNTH  07070IMCT  S0 PTB  00005                    1300 SR        000000000000 DENSO TEN (THAILAND)18067UU0004004                                                                                                                              *          20180219 IMCT                IMCT                                                                                                                    WMF1802192.TXT
MDEDJ2309437201802                D89828070200PV4D20180223000030SPEAKER ASM                   M IMCTM S0FR05 TNTH  07070IMCT  S0 PTB  00005                    2100 SR        000000000000 DENSO TEN (THAILAND)18068UU0003003                                                                                                                              *          20180219 IMCT                IMCT                                                                                                                    WMF1802192.TXT
MDEDJ2309438201802                D89828070300PT1D20180222000030SPEAKER ASM                   M IMCTM S5NB082TNTH  07070IMCT  S5 PTB  00015                    2230 SR        000000000000 DENSO TEN (THAILAND)18082UL0023023                                                                                                                              *          20180219 IMCT                IMCT                                                                                                                    WMF1802192.TXT
MDEDJ2309439201802                D89828070300PT1D20180223000120SPEAKER ASM                   M IMCTM S5NB082TNTH  07070IMCT  S5 PTB  00015                    0400 SR        000000000000 DENSO TEN (THAILAND)18001VL000500618082UL0024025                                                                                                                *          20180219 IMCT                IMCT                                                                                                                    WMF1802192.TXT
MDEDJ2309440201802                D89828070300PT1D20180223000030SPEAKER ASM                   M IMCTM S5NB082TNTH  07070IMCT  S5 PTB  00015                    0830 SR        000000000000 DENSO TEN (THAILAND)18074UL0009009                                                                                                                              *          20180219 IMCT                IMCT                                                                                                                    WMF1802192.TXT
MDEDJ2309441201802                D89828070300PT1D20180223000030SPEAKER ASM                   M IMCTM S5NB082TNTH  07070IMCT  S5 PTB  00015                    1030 SR        000000000000 DENSO TEN (THAILAND)18074UL0010010                                                                                                                              *          20180219 IMCT                IMCT                                                                                                                    WMF1802192.TXT
MDEDJ2309442201802                D89828070300PT1D20180223000060SPEAKER ASM                   M IMCTM S5NB082TNTH  07070IMCT  S5 PTB  00015                    1300 SR        000000000000 DENSO TEN (THAILAND)18065UL000700718071UL0003003                                                                                                                *          20180219 IMCT                IMCT                                                                                                                    WMF1802192.TXT
MDEDJ2309443201802                D89828070300PT1D20180223000060SPEAKER ASM                   M IMCTM S5NB082TNTH  07070IMCT  S5 PTB  00015                    1600 SR        000000000000 DENSO TEN (THAILAND)18099UL0020021                                                                                                                              *          20180219 IMCT                IMCT                                                                                                                    WMF1802192.TXT
MDEDJ2309444201802                D89828070300PT1D20180223000060SPEAKER ASM                   M IMCTM S5NB082TNTH  07070IMCT  S5 PTB  00015                    2100 SR        000000000000 DENSO TEN (THAILAND)18076UL0003004                                                                                                                              *          20180219 IMCT                IMCT                                                                                                                    WMF1802192.TXT
MDEDJ2309445201802                D89828070300PT1D20180223000030SPEAKER ASM                   M IMCTM S5NB082TNTH  07070IMCT  S5 PTB  00015                    2230 SR        000000000000 DENSO TEN (THAILAND)18061UL0002002                                                                                                                              *          20180219 IMCT                IMCT                                                                                                                    WMF1802192.TXT
MDEDJ2309446201802                D89828070300PT4D20180223000030SPEAKER ASM                   M IMCTM S9TS02 TNTH  07070IMCT  S9 PTB  00015                    0400 SR        000000000000 DENSO TEN (THAILAND)18098UU0005005                                                                                                                              *          20180219 IMCT                IMCT                                                                                                                    WMF1802192.TXT
MDEDJ2309447201802                D89828070300PT4D20180223000030SPEAKER ASM                   M IMCTM S9TS02 TNTH  07070IMCT  S9 PTB  00015                    1300 SR        000000000000 DENSO TEN (THAILAND)18067UU0004004                                                                                                                              *          20180219 IMCT                IMCT                                                                                                                    WMF1802192.TXT
MDEDJ2309448201802                D89828070300PT4D20180223000030SPEAKER ASM                   M IMCTM S9TS02 TNTH  07070IMCT  S9 PTB  00015                    1600 SR        000000000000 DENSO TEN (THAILAND)18061UU0010010                                                                                                                              *          20180219 IMCT                IMCT                                                                                                                    WMF1802192.TXT
MDEDJ2309449201802                D89828070300PT4D20180223000030SPEAKER ASM                   M IMCTM S9TS02 TNTH  07070IMCT  S9 PTB  00015                    2100 SR        000000000000 DENSO TEN (THAILAND)18068UU0003003                                                                                                                              *          20180219 IMCT                IMCT                                                                                                                    WMF1802192.TXT
MDEDJ2309450201802                D89848581800PT1D20180222000015RADIO;AM/FM CD D              M IMCTM S5NC06 TNTH  07070IMCT  S5 PTB  00003                    2230 SR        000000000000 DENSO TEN (THAILAND)18082UL0023023                                                                                                                              *          20180219 IMCT                IMCT                                                                                                                    WMF1802192.TXT
MDEDJ2309451201802                D89848581800PT1D20180223000030RADIO;AM/FM CD D              M IMCTM S5NC06 TNTH  07070IMCT  S5 PTB  00003                    0400 SR        000000000000 DENSO TEN (THAILAND)18082UL0024025                                                                                                                              *          20180219 IMCT                IMCT                                                                                                                    WMF1802192.TXT
MDEDJ2309452201802                D89848581800PT1D20180223000030RADIO;AM/FM CD D              M IMCTM S5NC06 TNTH  07070IMCT  S5 PTB  00003                    1300 SR        000000000000 DENSO TEN (THAILAND)18065UL000700718071UL0003003                                                                                                                *          20180219 IMCT                IMCT                                                                                                                    WMF1802192.TXT
MDEDJ2309453201802                D89848581800PT1D20180223000015RADIO;AM/FM CD D              M IMCTM S5NC06 TNTH  07070IMCT  S5 PTB  00003                    2230 SR        000000000000 DENSO TEN (THAILAND)18061UL0002002                                                                                                                              *          20180219 IMCT                IMCT                                                                                                                    WMF1802192.TXT
MDEDJ2309454201802                D89848581800PT4D20180223000015RADIO;AM/FM CD D              M IMCTM S9CO001TNTH  07070IMCT  S9 PTB  00003                    0400 SR        000000000000 DENSO TEN (THAILAND)18098UU0005005                                                                                                                              *          20180219 IMCT                IMCT                                                                                                                    WMF1802192.TXT
MDEDJ2309455201802                D89848581800PT4D20180223000015RADIO;AM/FM CD D              M IMCTM S9CO001TNTH  07070IMCT  S9 PTB  00003                    1600 SR        000000000000 DENSO TEN (THAILAND)18061UU0010010                                                                                                                              *          20180219 IMCT                IMCT                                                                                                                    WMF1802192.TXT
MDEDJ2309456201802                D89848582500PT1D20180223000015RADIO;AM/FM CD D              M IMCTM S5NC06 TNTH  07070IMCT  S5 PTB  00003                    0830 SR        000000000000 DENSO TEN (THAILAND)18074UL0009009                                                                                                                              *          20180219 IMCT                IMCT                                                                                                                    WMF1802192.TXT
MDEDJ2309457201802                D89848582500PT1D20180223000015RADIO;AM/FM CD D              M IMCTM S5NC06 TNTH  07070IMCT  S5 PTB  00003                    1030 SR        000000000000 DENSO TEN (THAILAND)18074UL0010010                                                                                                                              *          20180219 IMCT                IMCT                                                                                                                    WMF1802192.TXT
MDEUJ2277832201802                D89828070100PT4U20180222000030SPEAKER ASM                   M IMCTM S0FL05 TNTH  07070IMCT  S0 PTB  00004                    2230 SR        000000000000 DENSO TEN (THAILAND)18021UU0021021                                                                                                                              *          20180219 IMCT                IMCT                                                                                                                    WMF1802192.TXT
MDEUJ2277833201802                D89828070100PT4U20180223000090SPEAKER ASM                   M IMCTM S0FL05 TNTH  07070IMCT  S0 PTB  00004                    0400 SR        000000000000 DENSO TEN (THAILAND)18020UU001301318025UU003903918049ZU0023023                                                                                                  *          20180219 IMCT                IMCT                                                                                                                    WMF1802192.TXT
MDEUJ2277834201802                D89828070100PT4U20180223000030SPEAKER ASM                   M IMCTM S0FL05 TNTH  07070IMCT  S0 PTB  00004                    0830 SR        000000000000 DENSO TEN (THAILAND)18049ZU0024024                                                                                                                              *          20180219 IMCT                IMCT                                                                                                                    WMF1802192.TXT
MDEUJ2277835201802                D89828070100PT4U20180223000030SPEAKER ASM                   M IMCTM S0FL05 TNTH  07070IMCT  S0 PTB  00004                    1030 SR        000000000000 DENSO TEN (THAILAND)18021UU0022022                                                                                                                              *          20180219 IMCT                IMCT                                                                                                                    WMF1802192.TXT
MDEUJ2277836201802                D89828070100PT4U20180223000030SPEAKER ASM                   M IMCTM S0FL05 TNTH  07070IMCT  S0 PTB  00004                    1300 SR        000000000000 DENSO TEN (THAILAND)18050ZU0012012                                                                                                                              *          20180219 IMCT                IMCT                                                                                                                    WMF1802192.TXT
MDEUJ2277837201802                D89828070100PT4U20180223000060SPEAKER ASM                   M IMCTM S0FL05 TNTH  07070IMCT  S0 PTB  00004                    1600 SR        000000000000 DENSO TEN (THAILAND)18049ZU002502518050ZU0013013                                                                                                                *          20180219 IMCT                IMCT                                                                                                                    WMF1802192.TXT
MDEUJ2277838201802                D89828070100PT4U20180223000030SPEAKER ASM                   M IMCTM S0FL05 TNTH  07070IMCT  S0 PTB  00004                    2230 SR        000000000000 DENSO TEN (THAILAND)18021UU0023023                                                                                                                              *          20180219 IMCT                IMCT                                                                                                                    WMF1802192.TXT
MDEUJ2277839201802                D89828070200PV4U20180222000030SPEAKER ASM                   M IMCTM S0FR05 TNTH  07070IMCT  S0 PTB  00005                    2230 SR        000000000000 DENSO TEN (THAILAND)18021UU0021021                                                                                                                              *          20180219 IMCT                IMCT                                                                                                                    WMF1802192.TXT
MDEUJ2277840201802                D89828070200PV4U20180223000090SPEAKER ASM                   M IMCTM S0FR05 TNTH  07070IMCT  S0 PTB  00005                    0400 SR        000000000000 DENSO TEN (THAILAND)18020UU001301318025UU003903918049ZU0023023                                                                                                  *          20180219 IMCT                IMCT                                                                                                                    WMF1802192.TXT
MDEUJ2277841201802                D89828070200PV4U20180223000030SPEAKER ASM                   M IMCTM S0FR05 TNTH  07070IMCT  S0 PTB  00005                    0830 SR        000000000000 DENSO TEN (THAILAND)18049ZU0024024                                                                                                                              *          20180219 IMCT                IMCT                                                                                                                    WMF1802192.TXT
MDEUJ2277842201802                D89828070200PV4U20180223000030SPEAKER ASM                   M IMCTM S0FR05 TNTH  07070IMCT  S0 PTB  00005                    1030 SR        000000000000 DENSO TEN (THAILAND)18021UU0022022                                                                                                                              *          20180219 IMCT                IMCT                                                                                                                    WMF1802192.TXT
MDEUJ2277843201802                D89828070200PV4U20180223000030SPEAKER ASM                   M IMCTM S0FR05 TNTH  07070IMCT  S0 PTB  00005                    1300 SR        000000000000 DENSO TEN (THAILAND)18050ZU0012012                                                                                                                              *          20180219 IMCT                IMCT                                                                                                                    WMF1802192.TXT
MDEUJ2277844201802                D89828070200PV4U20180223000060SPEAKER ASM                   M IMCTM S0FR05 TNTH  07070IMCT  S0 PTB  00005                    1600 SR        000000000000 DENSO TEN (THAILAND)18049ZU002502518050ZU0013013                                                                                                                *          20180219 IMCT                IMCT                                                                                                                    WMF1802192.TXT
MDEUJ2277845201802                D89828070200PV4U20180223000030SPEAKER ASM                   M IMCTM S0FR05 TNTH  07070IMCT  S0 PTB  00005                    2230 SR        000000000000 DENSO TEN (THAILAND)18021UU0023023                                                                                                                              *          20180219 IMCT                IMCT                                                                                                                    WMF1802192.TXT
MDEUJ2277846201802                D89828070300PT4U20180222000030SPEAKER ASM                   M IMCTM S9TS02 TNTH  07070IMCT  S9 PTB  00015                    2230 SR        000000000000 DENSO TEN (THAILAND)18021UU0021021                                                                                                                              *          20180219 IMCT                IMCT                                                                                                                    WMF1802192.TXT
MDEUJ2277847201802                D89828070300PT4U20180223000090SPEAKER ASM                   M IMCTM S9TS02 TNTH  07070IMCT  S9 PTB  00015                    0400 SR        000000000000 DENSO TEN (THAILAND)18020UU001301318025UU003903918049ZU0023023                                                                                                  *          20180219 IMCT                IMCT                                                                                                                    WMF1802192.TXT
MDEUJ2277848201802                D89828070300PT4U20180223000030SPEAKER ASM                   M IMCTM S9TS02 TNTH  07070IMCT  S9 PTB  00015                    0830 SR        000000000000 DENSO TEN (THAILAND)18049ZU0024024                                                                                                                              *          20180219 IMCT                IMCT                                                                                                                    WMF1802192.TXT
MDEUJ2277849201802                D89828070300PT4U20180223000030SPEAKER ASM                   M IMCTM S9TS02 TNTH  07070IMCT  S9 PTB  00015                    1030 SR        000000000000 DENSO TEN (THAILAND)18021UU0022022                                                                                                                              *          20180219 IMCT                IMCT                                                                                                                    WMF1802192.TXT
MDEUJ2277850201802                D89828070300PT4U20180223000030SPEAKER ASM                   M IMCTM S9TS02 TNTH  07070IMCT  S9 PTB  00015                    1300 SR        000000000000 DENSO TEN (THAILAND)18050ZU0012012                                                                                                                              *          20180219 IMCT                IMCT                                                                                                                    WMF1802192.TXT
MDEUJ2277851201802                D89828070300PT4U20180223000060SPEAKER ASM                   M IMCTM S9TS02 TNTH  07070IMCT  S9 PTB  00015                    1600 SR        000000000000 DENSO TEN (THAILAND)18049ZU002502518050ZU0013013                                                                                                                *          20180219 IMCT                IMCT                                                                                                                    WMF1802192.TXT
MDEUJ2277852201802                D89828070300PT4U20180223000030SPEAKER ASM                   M IMCTM S9TS02 TNTH  07070IMCT  S9 PTB  00015                    2230 SR        000000000000 DENSO TEN (THAILAND)18021UU0023023                                                                                                                              *          20180219 IMCT                IMCT                                                                                                                    WMF1802192.TXT
