REC2018021620180216ISUZU                              73     
MDDDJ2256458201802                D89821984430PT1D20180222000030RADIO;AM/FM,CD                M IMCTM S5NC06 TNTH  07070IMCT  S5 PTB  00005                    0400 SR        000000000000 DENSO TEN (THAILAND)180LNEL0061061                                                                                                                              *          20180216 IMCT                IMCT                                                                                                                    WMF1802164.TXT
MDDDJ2256459201802                D89821984430PT1D20180222000030RADIO;AM/FM,CD                M IMCTM S5NC06 TNTH  07070IMCT  S5 PTB  00005                    0830 SR        000000000000 DENSO TEN (THAILAND)180LNCL0031031                                                                                                                              *          20180216 IMCT                IMCT                                                                                                                    WMF1802164.TXT
MDDDJ2256460201802                D89821984430PT1D20180222000030RADIO;AM/FM,CD                M IMCTM S5NC06 TNTH  07070IMCT  S5 PTB  00005                    1600 SR        000000000000 DENSO TEN (THAILAND)180LNEL0062062                                                                                                                              *          20180216 IMCT                IMCT                                                                                                                    WMF1802164.TXT
MDDDJ2256461201802                D89821984430PT1D20180222000030RADIO;AM/FM,CD                M IMCTM S5NC06 TNTH  07070IMCT  S5 PTB  00005                    2230 SR        000000000000 DENSO TEN (THAILAND)180LRAL0132132                                                                                                                              *          20180216 IMCT                IMCT                                                                                                                    WMF1802164.TXT
MDDDJ2256462201802                D89828070100PV1D20180222000060SPEAKER ASM                   M IMCTM S5MB11 TNTH  07070IMCT  S5 PTB  00004                    0400 SR        000000000000 DENSO TEN (THAILAND)180LNEL0061061                                                                                                                              *          20180216 IMCT                IMCT                                                                                                                    WMF1802164.TXT
MDDDJ2256463201802                D89828070100PV1D20180222000060SPEAKER ASM                   M IMCTM S5MB11 TNTH  07070IMCT  S5 PTB  00004                    0830 SR        000000000000 DENSO TEN (THAILAND)180LNCL0031031                                                                                                                              *          20180216 IMCT                IMCT                                                                                                                    WMF1802164.TXT
MDDDJ2256464201802                D89828070100PV1D20180222000120SPEAKER ASM                   M IMCTM S5MB11 TNTH  07070IMCT  S5 PTB  00004                    1600 SR        000000000000 DENSO TEN (THAILAND)180LNEL0062062180LPQL0016016                                                                                                                *          20180216 IMCT                IMCT                                                                                                                    WMF1802164.TXT
MDDDJ2256465201802                D89828070100PV1D20180222000060SPEAKER ASM                   M IMCTM S5MB11 TNTH  07070IMCT  S5 PTB  00004                    2230 SR        000000000000 DENSO TEN (THAILAND)180LRAL0132132                                                                                                                              *          20180216 IMCT                IMCT                                                                                                                    WMF1802164.TXT
MDDDJ2256466201802                D89828070100PV4D20180222000060SPEAKER ASM                   M IMCTM S0FL05 TNTH  07070IMCT  S0 PTB  00004                    1600 SR        000000000000 DENSO TEN (THAILAND)180LRSU0037037                                                                                                                              *          20180216 IMCT                IMCT                                                                                                                    WMF1802164.TXT
MDDDJ2256467201802                D89828070200PV4D20180222000060SPEAKER ASM                   M IMCTM S0FR05 TNTH  07070IMCT  S0 PTB  00005                    1600 SR        000000000000 DENSO TEN (THAILAND)180LRSU0037037                                                                                                                              *          20180216 IMCT                IMCT                                                                                                                    WMF1802164.TXT
MDDDJ2256468201802                D89828070300PT1D20180222000060SPEAKER ASM                   M IMCTM S5NB082TNTH  07070IMCT  S5 PTB  00015                    1600 SR        000000000000 DENSO TEN (THAILAND)180LPQL0016016                                                                                                                              *          20180216 IMCT                IMCT                                                                                                                    WMF1802164.TXT
MDDDJ2256469201802                D89828070300PT4D20180222000060SPEAKER ASM                   M IMCTM S9TS02 TNTH  07070IMCT  S9 PTB  00015                    1600 SR        000000000000 DENSO TEN (THAILAND)180LRSU0037037                                                                                                                              *          20180216 IMCT                IMCT                                                                                                                    WMF1802164.TXT
MDDDJ2256470201802                D89848581600PT1D20180222000030RADIO;AM/FM CD D              M IMCTM S5NC06 TNTH  07070IMCT  S5 PTB  00003                    1600 SR        000000000000 DENSO TEN (THAILAND)180LPQL0016016                                                                                                                              *          20180216 IMCT                IMCT                                                                                                                    WMF1802164.TXT
MDEDJ2300169201802                D89828070100PV1D20180221000030SPEAKER ASM                   M IMCTM S5MB11 TNTH  07070IMCT  S5 PTB  00004                    2230 SR        000000000000 DENSO TEN (THAILAND)17054PL0067067                                                                                                                              *          20180216 IMCT                IMCT                                                                                                                    WMF1802164.TXT
MDEDJ2300170201802                D89828070100PV1D20180222000060SPEAKER ASM                   M IMCTM S5MB11 TNTH  07070IMCT  S5 PTB  00004                    0230 SR        000000000000 DENSO TEN (THAILAND)17047RL000800817054PL0068068                                                                                                                *          20180216 IMCT                IMCT                                                                                                                    WMF1802164.TXT
MDEDJ2300171201802                D89828070100PV1D20180222000120SPEAKER ASM                   M IMCTM S5MB11 TNTH  07070IMCT  S5 PTB  00004                    0400 SR        000000000000 DENSO TEN (THAILAND)17040RL000600618063UL000700718074UL0005006                                                                                                  *          20180216 IMCT                IMCT                                                                                                                    WMF1802164.TXT
MDEDJ2300172201802                D89828070100PV1D20180222000030SPEAKER ASM                   M IMCTM S5MB11 TNTH  07070IMCT  S5 PTB  00004                    0830 SR        000000000000 DENSO TEN (THAILAND)18074UL0007007                                                                                                                              *          20180216 IMCT                IMCT                                                                                                                    WMF1802164.TXT
MDEDJ2300173201802                D89828070100PV1D20180222000060SPEAKER ASM                   M IMCTM S5MB11 TNTH  07070IMCT  S5 PTB  00004                    1030 SR        000000000000 DENSO TEN (THAILAND)18063UL000800818068UL0002002                                                                                                                *          20180216 IMCT                IMCT                                                                                                                    WMF1802164.TXT
MDEDJ2300174201802                D89828070100PV1D20180222000120SPEAKER ASM                   M IMCTM S5MB11 TNTH  07070IMCT  S5 PTB  00004                    1300 SR        000000000000 DENSO TEN (THAILAND)18065UL000500618084UL0003004                                                                                                                *          20180216 IMCT                IMCT                                                                                                                    WMF1802164.TXT
MDEDJ2300175201802                D89828070100PV1D20180222000060SPEAKER ASM                   M IMCTM S5MB11 TNTH  07070IMCT  S5 PTB  00004                    1600 SR        000000000000 DENSO TEN (THAILAND)18068UL000300318074UL0008008                                                                                                                *          20180216 IMCT                IMCT                                                                                                                    WMF1802164.TXT
MDEDJ2300176201802                D89828070100PV1D20180222000060SPEAKER ASM                   M IMCTM S5MB11 TNTH  07070IMCT  S5 PTB  00004                    2100 SR        000000000000 DENSO TEN (THAILAND)18076UL0001002                                                                                                                              *          20180216 IMCT                IMCT                                                                                                                    WMF1802164.TXT
MDEDJ2300177201802                D89828070100PV1D20180222000030SPEAKER ASM                   M IMCTM S5MB11 TNTH  07070IMCT  S5 PTB  00004                    2230 SR        000000000000 DENSO TEN (THAILAND)18082UL0022022                                                                                                                              *          20180216 IMCT                IMCT                                                                                                                    WMF1802164.TXT
MDEDJ2300178201802                D89828070100PV4D20180222000030SPEAKER ASM                   M IMCTM S0FL05 TNTH  07070IMCT  S0 PTB  00004                    0400 SR        000000000000 DENSO TEN (THAILAND)18099UU0004004                                                                                                                              *          20180216 IMCT                IMCT                                                                                                                    WMF1802164.TXT
MDEDJ2300179201802                D89828070100PV4D20180222000030SPEAKER ASM                   M IMCTM S0FL05 TNTH  07070IMCT  S0 PTB  00004                    1030 SR        000000000000 DENSO TEN (THAILAND)18063UU0010010                                                                                                                              *          20180216 IMCT                IMCT                                                                                                                    WMF1802164.TXT
MDEDJ2300180201802                D89828070100PV4D20180222000030SPEAKER ASM                   M IMCTM S0FL05 TNTH  07070IMCT  S0 PTB  00004                    1600 SR        000000000000 DENSO TEN (THAILAND)18098UU0004004                                                                                                                              *          20180216 IMCT                IMCT                                                                                                                    WMF1802164.TXT
MDEDJ2300181201802                D89828070200PV1D20180222000030SPEAKER ASM                   M IMCTM S5MA14 TNTH  07070IMCT  S5 PTB  00005                    0230 SR        000000000000 DENSO TEN (THAILAND)17047RL0008008                                                                                                                              *          20180216 IMCT                IMCT                                                                                                                    WMF1802164.TXT
MDEDJ2300182201802                D89828070200PV1D20180222000030SPEAKER ASM                   M IMCTM S5MA14 TNTH  07070IMCT  S5 PTB  00005                    0400 SR        000000000000 DENSO TEN (THAILAND)17040RL0006006                                                                                                                              *          20180216 IMCT                IMCT                                                                                                                    WMF1802164.TXT
MDEDJ2300183201802                D89828070200PV1D20180222000030SPEAKER ASM                   M IMCTM S5MA14 TNTH  07070IMCT  S5 PTB  00005                    1030 SR        000000000000 DENSO TEN (THAILAND)18068UL0002002                                                                                                                              *          20180216 IMCT                IMCT                                                                                                                    WMF1802164.TXT
MDEDJ2300184201802                D89828070200PV1D20180222000120SPEAKER ASM                   M IMCTM S5MA14 TNTH  07070IMCT  S5 PTB  00005                    1300 SR        000000000000 DENSO TEN (THAILAND)18065UL000500618084UL0003004                                                                                                                *          20180216 IMCT                IMCT                                                                                                                    WMF1802164.TXT
MDEDJ2300185201802                D89828070200PV1D20180222000030SPEAKER ASM                   M IMCTM S5MA14 TNTH  07070IMCT  S5 PTB  00005                    1600 SR        000000000000 DENSO TEN (THAILAND)18068UL0003003                                                                                                                              *          20180216 IMCT                IMCT                                                                                                                    WMF1802164.TXT
MDEDJ2300186201802                D89828070200PV1D20180222000030SPEAKER ASM                   M IMCTM S5MA14 TNTH  07070IMCT  S5 PTB  00005                    2230 SR        000000000000 DENSO TEN (THAILAND)18082UL0022022                                                                                                                              *          20180216 IMCT                IMCT                                                                                                                    WMF1802164.TXT
MDEDJ2300187201802                D89828070200PV4D20180222000030SPEAKER ASM                   M IMCTM S0FR05 TNTH  07070IMCT  S0 PTB  00005                    0400 SR        000000000000 DENSO TEN (THAILAND)18099UU0004004                                                                                                                              *          20180216 IMCT                IMCT                                                                                                                    WMF1802164.TXT
MDEDJ2300188201802                D89828070200PV4D20180222000030SPEAKER ASM                   M IMCTM S0FR05 TNTH  07070IMCT  S0 PTB  00005                    1600 SR        000000000000 DENSO TEN (THAILAND)18098UU0004004                                                                                                                              *          20180216 IMCT                IMCT                                                                                                                    WMF1802164.TXT
MDEDJ2300189201802                D89828070300PT1D20180222000030SPEAKER ASM                   M IMCTM S5NB082TNTH  07070IMCT  S5 PTB  00015                    0230 SR        000000000000 DENSO TEN (THAILAND)17047RL0008008                                                                                                                              *          20180216 IMCT                IMCT                                                                                                                    WMF1802164.TXT
MDEDJ2300190201802                D89828070300PT1D20180222000120SPEAKER ASM                   M IMCTM S5NB082TNTH  07070IMCT  S5 PTB  00015                    0400 SR        000000000000 DENSO TEN (THAILAND)17040RL000600618063UL000700718074UL0005006                                                                                                  *          20180216 IMCT                IMCT                                                                                                                    WMF1802164.TXT
MDEDJ2300191201802                D89828070300PT1D20180222000030SPEAKER ASM                   M IMCTM S5NB082TNTH  07070IMCT  S5 PTB  00015                    0830 SR        000000000000 DENSO TEN (THAILAND)18074UL0007007                                                                                                                              *          20180216 IMCT                IMCT                                                                                                                    WMF1802164.TXT
MDEDJ2300192201802                D89828070300PT1D20180222000060SPEAKER ASM                   M IMCTM S5NB082TNTH  07070IMCT  S5 PTB  00015                    1030 SR        000000000000 DENSO TEN (THAILAND)18063UL000800818068UL0002002                                                                                                                *          20180216 IMCT                IMCT                                                                                                                    WMF1802164.TXT
MDEDJ2300193201802                D89828070300PT1D20180222000120SPEAKER ASM                   M IMCTM S5NB082TNTH  07070IMCT  S5 PTB  00015                    1300 SR        000000000000 DENSO TEN (THAILAND)18065UL000500618084UL0003004                                                                                                                *          20180216 IMCT                IMCT                                                                                                                    WMF1802164.TXT
MDEDJ2300194201802                D89828070300PT1D20180222000060SPEAKER ASM                   M IMCTM S5NB082TNTH  07070IMCT  S5 PTB  00015                    1600 SR        000000000000 DENSO TEN (THAILAND)18068UL000300318074UL0008008                                                                                                                *          20180216 IMCT                IMCT                                                                                                                    WMF1802164.TXT
MDEDJ2300195201802                D89828070300PT1D20180222000060SPEAKER ASM                   M IMCTM S5NB082TNTH  07070IMCT  S5 PTB  00015                    2100 SR        000000000000 DENSO TEN (THAILAND)18076UL0001002                                                                                                                              *          20180216 IMCT                IMCT                                                                                                                    WMF1802164.TXT
MDEDJ2300196201802                D89828070300PT1D20180222000030SPEAKER ASM                   M IMCTM S5NB082TNTH  07070IMCT  S5 PTB  00015                    2230 SR        000000000000 DENSO TEN (THAILAND)18082UL0022022                                                                                                                              *          20180216 IMCT                IMCT                                                                                                                    WMF1802164.TXT
MDEDJ2300197201802                D89828070300PT4D20180222000030SPEAKER ASM                   M IMCTM S9TS02 TNTH  07070IMCT  S9 PTB  00015                    0400 SR        000000000000 DENSO TEN (THAILAND)18099UU0004004                                                                                                                              *          20180216 IMCT                IMCT                                                                                                                    WMF1802164.TXT
MDEDJ2300198201802                D89828070300PT4D20180222000030SPEAKER ASM                   M IMCTM S9TS02 TNTH  07070IMCT  S9 PTB  00015                    1030 SR        000000000000 DENSO TEN (THAILAND)18063UU0010010                                                                                                                              *          20180216 IMCT                IMCT                                                                                                                    WMF1802164.TXT
MDEDJ2300199201802                D89828070300PT4D20180222000030SPEAKER ASM                   M IMCTM S9TS02 TNTH  07070IMCT  S9 PTB  00015                    1600 SR        000000000000 DENSO TEN (THAILAND)18098UU0004004                                                                                                                              *          20180216 IMCT                IMCT                                                                                                                    WMF1802164.TXT
MDEDJ2300200201802                D89831229000PT1D20180222000015RADIO;AM/FM,CD                M IMCTM S5NC06 TNTH  07070IMCT  S5 PTB  00003                    0230 SR        000000000000 DENSO TEN (THAILAND)17047RL0008008                                                                                                                              *          20180216 IMCT                IMCT                                                                                                                    WMF1802164.TXT
MDEDJ2300201201802                D89831229000PT1D20180222000015RADIO;AM/FM,CD                M IMCTM S5NC06 TNTH  07070IMCT  S5 PTB  00003                    0400 SR        000000000000 DENSO TEN (THAILAND)17040RL0006006                                                                                                                              *          20180216 IMCT                IMCT                                                                                                                    WMF1802164.TXT
MDEDJ2300202201802                D89848581800PT1D20180222000015RADIO;AM/FM CD D              M IMCTM S5NC06 TNTH  07070IMCT  S5 PTB  00003                    0400 SR        000000000000 DENSO TEN (THAILAND)18063UL0007007                                                                                                                              *          20180216 IMCT                IMCT                                                                                                                    WMF1802164.TXT
MDEDJ2300203201802                D89848581800PT1D20180222000015RADIO;AM/FM CD D              M IMCTM S5NC06 TNTH  07070IMCT  S5 PTB  00003                    1030 SR        000000000000 DENSO TEN (THAILAND)18063UL0008008                                                                                                                              *          20180216 IMCT                IMCT                                                                                                                    WMF1802164.TXT
MDEDJ2300204201802                D89848581800PT1D20180222000030RADIO;AM/FM CD D              M IMCTM S5NC06 TNTH  07070IMCT  S5 PTB  00003                    1300 SR        000000000000 DENSO TEN (THAILAND)18065UL0005006                                                                                                                              *          20180216 IMCT                IMCT                                                                                                                    WMF1802164.TXT
MDEDJ2300205201802                D89848581800PT1D20180222000015RADIO;AM/FM CD D              M IMCTM S5NC06 TNTH  07070IMCT  S5 PTB  00003                    2230 SR        000000000000 DENSO TEN (THAILAND)18082UL0022022                                                                                                                              *          20180216 IMCT                IMCT                                                                                                                    WMF1802164.TXT
MDEDJ2300206201802                D89848581800PT4D20180222000015RADIO;AM/FM CD D              M IMCTM S9CO001TNTH  07070IMCT  S9 PTB  00003                    1030 SR        000000000000 DENSO TEN (THAILAND)18063UU0010010                                                                                                                              *          20180216 IMCT                IMCT                                                                                                                    WMF1802164.TXT
MDEDJ2300207201802                D89848581800PT4D20180222000015RADIO;AM/FM CD D              M IMCTM S9CO001TNTH  07070IMCT  S9 PTB  00003                    1600 SR        000000000000 DENSO TEN (THAILAND)18098UU0004004                                                                                                                              *          20180216 IMCT                IMCT                                                                                                                    WMF1802164.TXT
MDEDJ2300208201802                D89848582500PT1D20180222000030RADIO;AM/FM CD D              M IMCTM S5NC06 TNTH  07070IMCT  S5 PTB  00003                    0400 SR        000000000000 DENSO TEN (THAILAND)18074UL0005006                                                                                                                              *          20180216 IMCT                IMCT                                                                                                                    WMF1802164.TXT
MDEDJ2300209201802                D89848582500PT1D20180222000015RADIO;AM/FM CD D              M IMCTM S5NC06 TNTH  07070IMCT  S5 PTB  00003                    0830 SR        000000000000 DENSO TEN (THAILAND)18074UL0007007                                                                                                                              *          20180216 IMCT                IMCT                                                                                                                    WMF1802164.TXT
MDEDJ2300210201802                D89848582500PT1D20180222000015RADIO;AM/FM CD D              M IMCTM S5NC06 TNTH  07070IMCT  S5 PTB  00003                    1600 SR        000000000000 DENSO TEN (THAILAND)18074UL0008008                                                                                                                              *          20180216 IMCT                IMCT                                                                                                                    WMF1802164.TXT
MDEUJ2271623201802                D89828070100PT4U20180222000030SPEAKER ASM                   M IMCTM S0FL05 TNTH  07070IMCT  S0 PTB  00004                    0230 SR        000000000000 DENSO TEN (THAILAND)18049ZU0017017                                                                                                                              *          20180216 IMCT                IMCT                                                                                                                    WMF1802164.TXT
MDEUJ2271624201802                D89828070100PT4U20180222000090SPEAKER ASM                   M IMCTM S0FL05 TNTH  07070IMCT  S0 PTB  00004                    0400 SR        000000000000 DENSO TEN (THAILAND)18025UU003703718026UU017817818050ZU0009009                                                                                                  *          20180216 IMCT                IMCT                                                                                                                    WMF1802164.TXT
MDEUJ2271625201802                D89828070100PT4U20180222000030SPEAKER ASM                   M IMCTM S0FL05 TNTH  07070IMCT  S0 PTB  00004                    0830 SR        000000000000 DENSO TEN (THAILAND)18049ZU0018018                                                                                                                              *          20180216 IMCT                IMCT                                                                                                                    WMF1802164.TXT
MDEUJ2271626201802                D89828070100PT4U20180222000060SPEAKER ASM                   M IMCTM S0FL05 TNTH  07070IMCT  S0 PTB  00004                    1300 SR        000000000000 DENSO TEN (THAILAND)18049ZU001901918050ZU0010010                                                                                                                *          20180216 IMCT                IMCT                                                                                                                    WMF1802164.TXT
MDEUJ2271627201802                D89828070100PT4U20180222000090SPEAKER ASM                   M IMCTM S0FL05 TNTH  07070IMCT  S0 PTB  00004                    1600 SR        000000000000 DENSO TEN (THAILAND)18049ZU002002118050ZU0011011                                                                                                                *          20180216 IMCT                IMCT                                                                                                                    WMF1802164.TXT
MDEUJ2271628201802                D89828070100PT4U20180222000060SPEAKER ASM                   M IMCTM S0FL05 TNTH  07070IMCT  S0 PTB  00004                    2230 SR        000000000000 DENSO TEN (THAILAND)18025UU003803818049ZU0022022                                                                                                                *          20180216 IMCT                IMCT                                                                                                                    WMF1802164.TXT
MDEUJ2271629201802                D89828070200PV4U20180222000030SPEAKER ASM                   M IMCTM S0FR05 TNTH  07070IMCT  S0 PTB  00005                    0230 SR        000000000000 DENSO TEN (THAILAND)18049ZU0017017                                                                                                                              *          20180216 IMCT                IMCT                                                                                                                    WMF1802164.TXT
MDEUJ2271630201802                D89828070200PV4U20180222000090SPEAKER ASM                   M IMCTM S0FR05 TNTH  07070IMCT  S0 PTB  00005                    0400 SR        000000000000 DENSO TEN (THAILAND)18025UU003703718026UU017817818050ZU0009009                                                                                                  *          20180216 IMCT                IMCT                                                                                                                    WMF1802164.TXT
MDEUJ2271631201802                D89828070200PV4U20180222000030SPEAKER ASM                   M IMCTM S0FR05 TNTH  07070IMCT  S0 PTB  00005                    0830 SR        000000000000 DENSO TEN (THAILAND)18049ZU0018018                                                                                                                              *          20180216 IMCT                IMCT                                                                                                                    WMF1802164.TXT
MDEUJ2271632201802                D89828070200PV4U20180222000060SPEAKER ASM                   M IMCTM S0FR05 TNTH  07070IMCT  S0 PTB  00005                    1300 SR        000000000000 DENSO TEN (THAILAND)18049ZU001901918050ZU0010010                                                                                                                *          20180216 IMCT                IMCT                                                                                                                    WMF1802164.TXT
MDEUJ2271633201802                D89828070200PV4U20180222000090SPEAKER ASM                   M IMCTM S0FR05 TNTH  07070IMCT  S0 PTB  00005                    1600 SR        000000000000 DENSO TEN (THAILAND)18049ZU002002118050ZU0011011                                                                                                                *          20180216 IMCT                IMCT                                                                                                                    WMF1802164.TXT
MDEUJ2271634201802                D89828070200PV4U20180222000060SPEAKER ASM                   M IMCTM S0FR05 TNTH  07070IMCT  S0 PTB  00005                    2230 SR        000000000000 DENSO TEN (THAILAND)18025UU003803818049ZU0022022                                                                                                                *          20180216 IMCT                IMCT                                                                                                                    WMF1802164.TXT
MDEUJ2271635201802                D89828070300PT4U20180222000030SPEAKER ASM                   M IMCTM S9TS02 TNTH  07070IMCT  S9 PTB  00015                    0230 SR        000000000000 DENSO TEN (THAILAND)18049ZU0017017                                                                                                                              *          20180216 IMCT                IMCT                                                                                                                    WMF1802164.TXT
MDEUJ2271636201802                D89828070300PT4U20180222000090SPEAKER ASM                   M IMCTM S9TS02 TNTH  07070IMCT  S9 PTB  00015                    0400 SR        000000000000 DENSO TEN (THAILAND)18025UU003703718026UU017817818050ZU0009009                                                                                                  *          20180216 IMCT                IMCT                                                                                                                    WMF1802164.TXT
MDEUJ2271637201802                D89828070300PT4U20180222000030SPEAKER ASM                   M IMCTM S9TS02 TNTH  07070IMCT  S9 PTB  00015                    0830 SR        000000000000 DENSO TEN (THAILAND)18049ZU0018018                                                                                                                              *          20180216 IMCT                IMCT                                                                                                                    WMF1802164.TXT
MDEUJ2271638201802                D89828070300PT4U20180222000060SPEAKER ASM                   M IMCTM S9TS02 TNTH  07070IMCT  S9 PTB  00015                    1300 SR        000000000000 DENSO TEN (THAILAND)18049ZU001901918050ZU0010010                                                                                                                *          20180216 IMCT                IMCT                                                                                                                    WMF1802164.TXT
MDEUJ2271639201802                D89828070300PT4U20180222000090SPEAKER ASM                   M IMCTM S9TS02 TNTH  07070IMCT  S9 PTB  00015                    1600 SR        000000000000 DENSO TEN (THAILAND)18049ZU002002118050ZU0011011                                                                                                                *          20180216 IMCT                IMCT                                                                                                                    WMF1802164.TXT
MDEUJ2271640201802                D89828070300PT4U20180222000060SPEAKER ASM                   M IMCTM S9TS02 TNTH  07070IMCT  S9 PTB  00015                    2230 SR        000000000000 DENSO TEN (THAILAND)18025UU003803818049ZU0022022                                                                                                                *          20180216 IMCT                IMCT                                                                                                                    WMF1802164.TXT
