REC2018021420180214ISUZU                              73     
MDDDJ2249956201802                D89821984430PT1D20180220000030RADIO;AM/FM,CD                M IMCTM S5NC06 TNTH  07070IMCT  S5 PTB  00005                    0400 SR        000000000000 DENSO TEN (THAILAND)180LNEL0057057                                                                                                                              *          20180214 IMCT                IMCT                                                                                                                    WMF1802147.TXT
MDDDJ2249957201802                D89821984430PT1D20180220000030RADIO;AM/FM,CD                M IMCTM S5NC06 TNTH  07070IMCT  S5 PTB  00005                    1600 SR        000000000000 DENSO TEN (THAILAND)180LNEL0058058                                                                                                                              *          20180214 IMCT                IMCT                                                                                                                    WMF1802147.TXT
MDDDJ2249958201802                D89828070100PV1D20180219000060SPEAKER ASM                   M IMCTM S5MB11 TNTH  07070IMCT  S5 PTB  00004                    2230 SR        000000000000 DENSO TEN (THAILAND)180LNAL0025025                                                                                                                              *          20180214 IMCT                IMCT                                                                                                                    WMF1802147.TXT
MDDDJ2249959201802                D89828070100PV1D20180220000060SPEAKER ASM                   M IMCTM S5MB11 TNTH  07070IMCT  S5 PTB  00004                    0400 SR        000000000000 DENSO TEN (THAILAND)180LNEL0057057                                                                                                                              *          20180214 IMCT                IMCT                                                                                                                    WMF1802147.TXT
MDDDJ2249960201802                D89828070100PV1D20180220000060SPEAKER ASM                   M IMCTM S5MB11 TNTH  07070IMCT  S5 PTB  00004                    1300 SR        000000000000 DENSO TEN (THAILAND)180LPPL0006006                                                                                                                              *          20180214 IMCT                IMCT                                                                                                                    WMF1802147.TXT
MDDDJ2249961201802                D89828070100PV1D20180220000120SPEAKER ASM                   M IMCTM S5MB11 TNTH  07070IMCT  S5 PTB  00004                    1600 SR        000000000000 DENSO TEN (THAILAND)180LNEL0058058180LPQL0015015                                                                                                                *          20180214 IMCT                IMCT                                                                                                                    WMF1802147.TXT
MDDDJ2249962201802                D89828070100PV4D20180220000060SPEAKER ASM                   M IMCTM S0FL05 TNTH  07070IMCT  S0 PTB  00004                    0830 SR        000000000000 DENSO TEN (THAILAND)180LRSU0036036                                                                                                                              *          20180214 IMCT                IMCT                                                                                                                    WMF1802147.TXT
MDDDJ2249963201802                D89828070200PV4D20180220000060SPEAKER ASM                   M IMCTM S0FR05 TNTH  07070IMCT  S0 PTB  00005                    0830 SR        000000000000 DENSO TEN (THAILAND)180LRSU0036036                                                                                                                              *          20180214 IMCT                IMCT                                                                                                                    WMF1802147.TXT
MDDDJ2249964201802                D89828070300PT1D20180220000060SPEAKER ASM                   M IMCTM S5NB082TNTH  07070IMCT  S5 PTB  00015                    1300 SR        000000000000 DENSO TEN (THAILAND)180LPPL0006006                                                                                                                              *          20180214 IMCT                IMCT                                                                                                                    WMF1802147.TXT
MDDDJ2249965201802                D89828070300PT1D20180220000060SPEAKER ASM                   M IMCTM S5NB082TNTH  07070IMCT  S5 PTB  00015                    1600 SR        000000000000 DENSO TEN (THAILAND)180LPQL0015015                                                                                                                              *          20180214 IMCT                IMCT                                                                                                                    WMF1802147.TXT
MDDDJ2249966201802                D89828070300PT4D20180220000060SPEAKER ASM                   M IMCTM S9TS02 TNTH  07070IMCT  S9 PTB  00015                    0830 SR        000000000000 DENSO TEN (THAILAND)180LRSU0036036                                                                                                                              *          20180214 IMCT                IMCT                                                                                                                    WMF1802147.TXT
MDDDJ2249967201802                D89848581600PT1D20180220000030RADIO;AM/FM CD D              M IMCTM S5NC06 TNTH  07070IMCT  S5 PTB  00003                    1600 SR        000000000000 DENSO TEN (THAILAND)180LPQL0015015                                                                                                                              *          20180214 IMCT                IMCT                                                                                                                    WMF1802147.TXT
MDEDJ2280560201802                D89828070100PV1D20180219000060SPEAKER ASM                   M IMCTM S5MB11 TNTH  07070IMCT  S5 PTB  00004                    2230 SR        000000000000 DENSO TEN (THAILAND)18072UL000100118098UL0009009                                                                                                                *          20180214 IMCT                IMCT                                                                                                                    WMF1802147.TXT
MDEDJ2280561201802                D89828070100PV1D20180220000060SPEAKER ASM                   M IMCTM S5MB11 TNTH  07070IMCT  S5 PTB  00004                    0230 SR        000000000000 DENSO TEN (THAILAND)18099UL0016017                                                                                                                              *          20180214 IMCT                IMCT                                                                                                                    WMF1802147.TXT
MDEDJ2280562201802                D89828070100PV1D20180220000060SPEAKER ASM                   M IMCTM S5MB11 TNTH  07070IMCT  S5 PTB  00004                    0400 SR        000000000000 DENSO TEN (THAILAND)17075PL010410418098UL0010010                                                                                                                *          20180214 IMCT                IMCT                                                                                                                    WMF1802147.TXT
MDEDJ2280563201802                D89828070100PV1D20180220000060SPEAKER ASM                   M IMCTM S5MB11 TNTH  07070IMCT  S5 PTB  00004                    0830 SR        000000000000 DENSO TEN (THAILAND)18080UL0007008                                                                                                                              *          20180214 IMCT                IMCT                                                                                                                    WMF1802147.TXT
MDEDJ2280564201802                D89828070100PV1D20180220000060SPEAKER ASM                   M IMCTM S5MB11 TNTH  07070IMCT  S5 PTB  00004                    1030 SR        000000000000 DENSO TEN (THAILAND)17054PL0064065                                                                                                                              *          20180214 IMCT                IMCT                                                                                                                    WMF1802147.TXT
MDEDJ2280565201802                D89828070100PV1D20180220000060SPEAKER ASM                   M IMCTM S5MB11 TNTH  07070IMCT  S5 PTB  00004                    1300 SR        000000000000 DENSO TEN (THAILAND)18074UL0001002                                                                                                                              *          20180214 IMCT                IMCT                                                                                                                    WMF1802147.TXT
MDEDJ2280566201802                D89828070100PV1D20180220000120SPEAKER ASM                   M IMCTM S5MB11 TNTH  07070IMCT  S5 PTB  00004                    1600 SR        000000000000 DENSO TEN (THAILAND)18063UL000500618082UL0020021                                                                                                                *          20180214 IMCT                IMCT                                                                                                                    WMF1802147.TXT
MDEDJ2280567201802                D89828070100PV1D20180220000030SPEAKER ASM                   M IMCTM S5MB11 TNTH  07070IMCT  S5 PTB  00004                    2100 SR        000000000000 DENSO TEN (THAILAND)18069UL0001001                                                                                                                              *          20180214 IMCT                IMCT                                                                                                                    WMF1802147.TXT
MDEDJ2280568201802                D89828070100PV1D20180220000060SPEAKER ASM                   M IMCTM S5MB11 TNTH  07070IMCT  S5 PTB  00004                    2230 SR        000000000000 DENSO TEN (THAILAND)17075PL0105106                                                                                                                              *          20180214 IMCT                IMCT                                                                                                                    WMF1802147.TXT
MDEDJ2280569201802                D89828070100PV4D20180219000030SPEAKER ASM                   M IMCTM S0FL05 TNTH  07070IMCT  S0 PTB  00004                    2230 SR        000000000000 DENSO TEN (THAILAND)18098UU0002002                                                                                                                              *          20180214 IMCT                IMCT                                                                                                                    WMF1802147.TXT
MDEDJ2280570201802                D89828070100PV4D20180220000060SPEAKER ASM                   M IMCTM S0FL05 TNTH  07070IMCT  S0 PTB  00004                    1600 SR        000000000000 DENSO TEN (THAILAND)18061UU0007008                                                                                                                              *          20180214 IMCT                IMCT                                                                                                                    WMF1802147.TXT
MDEDJ2280571201802                D89828070100PV4D20180220000030SPEAKER ASM                   M IMCTM S0FL05 TNTH  07070IMCT  S0 PTB  00004                    2230 SR        000000000000 DENSO TEN (THAILAND)18067UU0003003                                                                                                                              *          20180214 IMCT                IMCT                                                                                                                    WMF1802147.TXT
MDEDJ2280572201802                D89828070200PV1D20180219000030SPEAKER ASM                   M IMCTM S5MA14 TNTH  07070IMCT  S5 PTB  00005                    2230 SR        000000000000 DENSO TEN (THAILAND)18098UL0009009                                                                                                                              *          20180214 IMCT                IMCT                                                                                                                    WMF1802147.TXT
MDEDJ2280573201802                D89828070200PV1D20180220000060SPEAKER ASM                   M IMCTM S5MA14 TNTH  07070IMCT  S5 PTB  00005                    0230 SR        000000000000 DENSO TEN (THAILAND)18099UL0016017                                                                                                                              *          20180214 IMCT                IMCT                                                                                                                    WMF1802147.TXT
MDEDJ2280574201802                D89828070200PV1D20180220000030SPEAKER ASM                   M IMCTM S5MA14 TNTH  07070IMCT  S5 PTB  00005                    0400 SR        000000000000 DENSO TEN (THAILAND)18098UL0010010                                                                                                                              *          20180214 IMCT                IMCT                                                                                                                    WMF1802147.TXT
MDEDJ2280575201802                D89828070200PV1D20180220000060SPEAKER ASM                   M IMCTM S5MA14 TNTH  07070IMCT  S5 PTB  00005                    0830 SR        000000000000 DENSO TEN (THAILAND)18080UL0007008                                                                                                                              *          20180214 IMCT                IMCT                                                                                                                    WMF1802147.TXT
MDEDJ2280576201802                D89828070200PV1D20180220000060SPEAKER ASM                   M IMCTM S5MA14 TNTH  07070IMCT  S5 PTB  00005                    1600 SR        000000000000 DENSO TEN (THAILAND)18082UL0020021                                                                                                                              *          20180214 IMCT                IMCT                                                                                                                    WMF1802147.TXT
MDEDJ2280577201802                D89828070200PV1D20180220000030SPEAKER ASM                   M IMCTM S5MA14 TNTH  07070IMCT  S5 PTB  00005                    2100 SR        000000000000 DENSO TEN (THAILAND)18069UL0001001                                                                                                                              *          20180214 IMCT                IMCT                                                                                                                    WMF1802147.TXT
MDEDJ2280578201802                D89828070200PV4D20180219000030SPEAKER ASM                   M IMCTM S0FR05 TNTH  07070IMCT  S0 PTB  00005                    2230 SR        000000000000 DENSO TEN (THAILAND)18098UU0002002                                                                                                                              *          20180214 IMCT                IMCT                                                                                                                    WMF1802147.TXT
MDEDJ2280579201802                D89828070200PV4D20180220000030SPEAKER ASM                   M IMCTM S0FR05 TNTH  07070IMCT  S0 PTB  00005                    2230 SR        000000000000 DENSO TEN (THAILAND)18067UU0003003                                                                                                                              *          20180214 IMCT                IMCT                                                                                                                    WMF1802147.TXT
MDEDJ2280580201802                D89828070300PT1D20180219000060SPEAKER ASM                   M IMCTM S5NB082TNTH  07070IMCT  S5 PTB  00015                    2230 SR        000000000000 DENSO TEN (THAILAND)18072UL000100118098UL0009009                                                                                                                *          20180214 IMCT                IMCT                                                                                                                    WMF1802147.TXT
MDEDJ2280581201802                D89828070300PT1D20180220000060SPEAKER ASM                   M IMCTM S5NB082TNTH  07070IMCT  S5 PTB  00015                    0230 SR        000000000000 DENSO TEN (THAILAND)18099UL0016017                                                                                                                              *          20180214 IMCT                IMCT                                                                                                                    WMF1802147.TXT
MDEDJ2280582201802                D89828070300PT1D20180220000030SPEAKER ASM                   M IMCTM S5NB082TNTH  07070IMCT  S5 PTB  00015                    0400 SR        000000000000 DENSO TEN (THAILAND)18098UL0010010                                                                                                                              *          20180214 IMCT                IMCT                                                                                                                    WMF1802147.TXT
MDEDJ2280583201802                D89828070300PT1D20180220000060SPEAKER ASM                   M IMCTM S5NB082TNTH  07070IMCT  S5 PTB  00015                    0830 SR        000000000000 DENSO TEN (THAILAND)18080UL0007008                                                                                                                              *          20180214 IMCT                IMCT                                                                                                                    WMF1802147.TXT
MDEDJ2280584201802                D89828070300PT1D20180220000060SPEAKER ASM                   M IMCTM S5NB082TNTH  07070IMCT  S5 PTB  00015                    1300 SR        000000000000 DENSO TEN (THAILAND)18074UL0001002                                                                                                                              *          20180214 IMCT                IMCT                                                                                                                    WMF1802147.TXT
MDEDJ2280585201802                D89828070300PT1D20180220000120SPEAKER ASM                   M IMCTM S5NB082TNTH  07070IMCT  S5 PTB  00015                    1600 SR        000000000000 DENSO TEN (THAILAND)18063UL000500618082UL0020021                                                                                                                *          20180214 IMCT                IMCT                                                                                                                    WMF1802147.TXT
MDEDJ2280586201802                D89828070300PT1D20180220000030SPEAKER ASM                   M IMCTM S5NB082TNTH  07070IMCT  S5 PTB  00015                    2100 SR        000000000000 DENSO TEN (THAILAND)18069UL0001001                                                                                                                              *          20180214 IMCT                IMCT                                                                                                                    WMF1802147.TXT
MDEDJ2280587201802                D89828070300PT4D20180219000030SPEAKER ASM                   M IMCTM S9TS02 TNTH  07070IMCT  S9 PTB  00015                    2230 SR        000000000000 DENSO TEN (THAILAND)18098UU0002002                                                                                                                              *          20180214 IMCT                IMCT                                                                                                                    WMF1802147.TXT
MDEDJ2280588201802                D89828070300PT4D20180220000060SPEAKER ASM                   M IMCTM S9TS02 TNTH  07070IMCT  S9 PTB  00015                    1600 SR        000000000000 DENSO TEN (THAILAND)18061UU0007008                                                                                                                              *          20180214 IMCT                IMCT                                                                                                                    WMF1802147.TXT
MDEDJ2280589201802                D89828070300PT4D20180220000030SPEAKER ASM                   M IMCTM S9TS02 TNTH  07070IMCT  S9 PTB  00015                    2230 SR        000000000000 DENSO TEN (THAILAND)18067UU0003003                                                                                                                              *          20180214 IMCT                IMCT                                                                                                                    WMF1802147.TXT
MDEDJ2280590201802                D89848581800PT1D20180219000030RADIO;AM/FM CD D              M IMCTM S5NC06 TNTH  07070IMCT  S5 PTB  00003                    2230 SR        000000000000 DENSO TEN (THAILAND)18072UL000100118098UL0009009                                                                                                                *          20180214 IMCT                IMCT                                                                                                                    WMF1802147.TXT
MDEDJ2280591201802                D89848581800PT1D20180220000015RADIO;AM/FM CD D              M IMCTM S5NC06 TNTH  07070IMCT  S5 PTB  00003                    0400 SR        000000000000 DENSO TEN (THAILAND)18098UL0010010                                                                                                                              *          20180214 IMCT                IMCT                                                                                                                    WMF1802147.TXT
MDEDJ2280592201802                D89848581800PT1D20180220000030RADIO;AM/FM CD D              M IMCTM S5NC06 TNTH  07070IMCT  S5 PTB  00003                    0830 SR        000000000000 DENSO TEN (THAILAND)18080UL0007008                                                                                                                              *          20180214 IMCT                IMCT                                                                                                                    WMF1802147.TXT
MDEDJ2280593201802                D89848581800PT1D20180220000060RADIO;AM/FM CD D              M IMCTM S5NC06 TNTH  07070IMCT  S5 PTB  00003                    1600 SR        000000000000 DENSO TEN (THAILAND)18063UL000500618082UL0020021                                                                                                                *          20180214 IMCT                IMCT                                                                                                                    WMF1802147.TXT
MDEDJ2280594201802                D89848581800PT4D20180219000015RADIO;AM/FM CD D              M IMCTM S9CO001TNTH  07070IMCT  S9 PTB  00003                    2230 SR        000000000000 DENSO TEN (THAILAND)18098UU0002002                                                                                                                              *          20180214 IMCT                IMCT                                                                                                                    WMF1802147.TXT
MDEDJ2280595201802                D89848581800PT4D20180220000030RADIO;AM/FM CD D              M IMCTM S9CO001TNTH  07070IMCT  S9 PTB  00003                    1600 SR        000000000000 DENSO TEN (THAILAND)18061UU0007008                                                                                                                              *          20180214 IMCT                IMCT                                                                                                                    WMF1802147.TXT
MDEDJ2280596201802                D89848582500PT1D20180220000030RADIO;AM/FM CD D              M IMCTM S5NC06 TNTH  07070IMCT  S5 PTB  00003                    1300 SR        000000000000 DENSO TEN (THAILAND)18074UL0001002                                                                                                                              *          20180214 IMCT                IMCT                                                                                                                    WMF1802147.TXT
MDEUJ2257625201802                D89828070100PT4U20180219000030SPEAKER ASM                   M IMCTM S0FL05 TNTH  07070IMCT  S0 PTB  00004                    2230 SR        000000000000 DENSO TEN (THAILAND)18049ZU0005005                                                                                                                              *          20180214 IMCT                IMCT                                                                                                                    WMF1802147.TXT
MDEUJ2257626201802                D89828070100PT4U20180220000030SPEAKER ASM                   M IMCTM S0FL05 TNTH  07070IMCT  S0 PTB  00004                    0230 SR        000000000000 DENSO TEN (THAILAND)18050ZU0004004                                                                                                                              *          20180214 IMCT                IMCT                                                                                                                    WMF1802147.TXT
MDEUJ2257627201802                D89828070100PT4U20180220000060SPEAKER ASM                   M IMCTM S0FL05 TNTH  07070IMCT  S0 PTB  00004                    0400 SR        000000000000 DENSO TEN (THAILAND)18049ZU0006007                                                                                                                              *          20180214 IMCT                IMCT                                                                                                                    WMF1802147.TXT
MDEUJ2257628201802                D89828070100PT4U20180220000030SPEAKER ASM                   M IMCTM S0FL05 TNTH  07070IMCT  S0 PTB  00004                    0830 SR        000000000000 DENSO TEN (THAILAND)18025UU0034034                                                                                                                              *          20180214 IMCT                IMCT                                                                                                                    WMF1802147.TXT
MDEUJ2257629201802                D89828070100PT4U20180220000060SPEAKER ASM                   M IMCTM S0FL05 TNTH  07070IMCT  S0 PTB  00004                    1300 SR        000000000000 DENSO TEN (THAILAND)18025UU003503518049ZU0008008                                                                                                                *          20180214 IMCT                IMCT                                                                                                                    WMF1802147.TXT
MDEUJ2257630201802                D89828070100PT4U20180220000060SPEAKER ASM                   M IMCTM S0FL05 TNTH  07070IMCT  S0 PTB  00004                    1600 SR        000000000000 DENSO TEN (THAILAND)18021UU001801818050ZU0005005                                                                                                                *          20180214 IMCT                IMCT                                                                                                                    WMF1802147.TXT
MDEUJ2257631201802                D89828070100PT4U20180220000030SPEAKER ASM                   M IMCTM S0FL05 TNTH  07070IMCT  S0 PTB  00004                    2100 SR        000000000000 DENSO TEN (THAILAND)18049ZU0009009                                                                                                                              *          20180214 IMCT                IMCT                                                                                                                    WMF1802147.TXT
MDEUJ2257632201802                D89828070100PT4U20180220000030SPEAKER ASM                   M IMCTM S0FL05 TNTH  07070IMCT  S0 PTB  00004                    2230 SR        000000000000 DENSO TEN (THAILAND)18049ZU0010010                                                                                                                              *          20180214 IMCT                IMCT                                                                                                                    WMF1802147.TXT
MDEUJ2257633201802                D89828070200PV4U20180219000030SPEAKER ASM                   M IMCTM S0FR05 TNTH  07070IMCT  S0 PTB  00005                    2230 SR        000000000000 DENSO TEN (THAILAND)18049ZU0005005                                                                                                                              *          20180214 IMCT                IMCT                                                                                                                    WMF1802147.TXT
MDEUJ2257634201802                D89828070200PV4U20180220000030SPEAKER ASM                   M IMCTM S0FR05 TNTH  07070IMCT  S0 PTB  00005                    0230 SR        000000000000 DENSO TEN (THAILAND)18050ZU0004004                                                                                                                              *          20180214 IMCT                IMCT                                                                                                                    WMF1802147.TXT
MDEUJ2257635201802                D89828070200PV4U20180220000060SPEAKER ASM                   M IMCTM S0FR05 TNTH  07070IMCT  S0 PTB  00005                    0400 SR        000000000000 DENSO TEN (THAILAND)18049ZU0006007                                                                                                                              *          20180214 IMCT                IMCT                                                                                                                    WMF1802147.TXT
MDEUJ2257636201802                D89828070200PV4U20180220000030SPEAKER ASM                   M IMCTM S0FR05 TNTH  07070IMCT  S0 PTB  00005                    0830 SR        000000000000 DENSO TEN (THAILAND)18025UU0034034                                                                                                                              *          20180214 IMCT                IMCT                                                                                                                    WMF1802147.TXT
MDEUJ2257637201802                D89828070200PV4U20180220000060SPEAKER ASM                   M IMCTM S0FR05 TNTH  07070IMCT  S0 PTB  00005                    1300 SR        000000000000 DENSO TEN (THAILAND)18025UU003503518049ZU0008008                                                                                                                *          20180214 IMCT                IMCT                                                                                                                    WMF1802147.TXT
MDEUJ2257638201802                D89828070200PV4U20180220000060SPEAKER ASM                   M IMCTM S0FR05 TNTH  07070IMCT  S0 PTB  00005                    1600 SR        000000000000 DENSO TEN (THAILAND)18021UU001801818050ZU0005005                                                                                                                *          20180214 IMCT                IMCT                                                                                                                    WMF1802147.TXT
MDEUJ2257639201802                D89828070200PV4U20180220000030SPEAKER ASM                   M IMCTM S0FR05 TNTH  07070IMCT  S0 PTB  00005                    2100 SR        000000000000 DENSO TEN (THAILAND)18049ZU0009009                                                                                                                              *          20180214 IMCT                IMCT                                                                                                                    WMF1802147.TXT
MDEUJ2257640201802                D89828070200PV4U20180220000030SPEAKER ASM                   M IMCTM S0FR05 TNTH  07070IMCT  S0 PTB  00005                    2230 SR        000000000000 DENSO TEN (THAILAND)18049ZU0010010                                                                                                                              *          20180214 IMCT                IMCT                                                                                                                    WMF1802147.TXT
MDEUJ2257641201802                D89828070300PT4U20180219000030SPEAKER ASM                   M IMCTM S9TS02 TNTH  07070IMCT  S9 PTB  00015                    2230 SR        000000000000 DENSO TEN (THAILAND)18049ZU0005005                                                                                                                              *          20180214 IMCT                IMCT                                                                                                                    WMF1802147.TXT
MDEUJ2257642201802                D89828070300PT4U20180220000030SPEAKER ASM                   M IMCTM S9TS02 TNTH  07070IMCT  S9 PTB  00015                    0230 SR        000000000000 DENSO TEN (THAILAND)18050ZU0004004                                                                                                                              *          20180214 IMCT                IMCT                                                                                                                    WMF1802147.TXT
MDEUJ2257643201802                D89828070300PT4U20180220000060SPEAKER ASM                   M IMCTM S9TS02 TNTH  07070IMCT  S9 PTB  00015                    0400 SR        000000000000 DENSO TEN (THAILAND)18049ZU0006007                                                                                                                              *          20180214 IMCT                IMCT                                                                                                                    WMF1802147.TXT
MDEUJ2257644201802                D89828070300PT4U20180220000030SPEAKER ASM                   M IMCTM S9TS02 TNTH  07070IMCT  S9 PTB  00015                    0830 SR        000000000000 DENSO TEN (THAILAND)18025UU0034034                                                                                                                              *          20180214 IMCT                IMCT                                                                                                                    WMF1802147.TXT
MDEUJ2257645201802                D89828070300PT4U20180220000060SPEAKER ASM                   M IMCTM S9TS02 TNTH  07070IMCT  S9 PTB  00015                    1300 SR        000000000000 DENSO TEN (THAILAND)18025UU003503518049ZU0008008                                                                                                                *          20180214 IMCT                IMCT                                                                                                                    WMF1802147.TXT
MDEUJ2257646201802                D89828070300PT4U20180220000060SPEAKER ASM                   M IMCTM S9TS02 TNTH  07070IMCT  S9 PTB  00015                    1600 SR        000000000000 DENSO TEN (THAILAND)18021UU001801818050ZU0005005                                                                                                                *          20180214 IMCT                IMCT                                                                                                                    WMF1802147.TXT
MDEUJ2257647201802                D89828070300PT4U20180220000030SPEAKER ASM                   M IMCTM S9TS02 TNTH  07070IMCT  S9 PTB  00015                    2100 SR        000000000000 DENSO TEN (THAILAND)18049ZU0009009                                                                                                                              *          20180214 IMCT                IMCT                                                                                                                    WMF1802147.TXT
MDEUJ2257648201802                D89828070300PT4U20180220000030SPEAKER ASM                   M IMCTM S9TS02 TNTH  07070IMCT  S9 PTB  00015                    2230 SR        000000000000 DENSO TEN (THAILAND)18049ZU0010010                                                                                                                              *          20180214 IMCT                IMCT                                                                                                                    WMF1802147.TXT
