REC2018021020180210ISUZU                              73     
MDDDJ2241385201802                D89821984430PT1D20180215000030RADIO;AM/FM,CD                M IMCTM S5NC06 TNTH  07070IMCT  S5 PTB  00005                    0230 SR        000000000000 DENSO TEN (THAILAND)180LXEL0015015                                                                                                                              *          20180210 IMCT                IMCT                                                                                                                    WMF1802104.TXT
MDDDJ2241386201802                D89821984430PT1D20180215000030RADIO;AM/FM,CD                M IMCTM S5NC06 TNTH  07070IMCT  S5 PTB  00005                    0400 SR        000000000000 DENSO TEN (THAILAND)180LXCL0009009                                                                                                                              *          20180210 IMCT                IMCT                                                                                                                    WMF1802104.TXT
MDDDJ2241387201802                D89821984430PT1D20180215000030RADIO;AM/FM,CD                M IMCTM S5NC06 TNTH  07070IMCT  S5 PTB  00005                    1300 SR        000000000000 DENSO TEN (THAILAND)180LNEL0055055                                                                                                                              *          20180210 IMCT                IMCT                                                                                                                    WMF1802104.TXT
MDDDJ2241388201802                D89828070100PV1D20180215000060SPEAKER ASM                   M IMCTM S5MB11 TNTH  07070IMCT  S5 PTB  00004                    0230 SR        000000000000 DENSO TEN (THAILAND)180LXEL0015015                                                                                                                              *          20180210 IMCT                IMCT                                                                                                                    WMF1802104.TXT
MDDDJ2241389201802                D89828070100PV1D20180215000060SPEAKER ASM                   M IMCTM S5MB11 TNTH  07070IMCT  S5 PTB  00004                    0400 SR        000000000000 DENSO TEN (THAILAND)180LXCL0009009                                                                                                                              *          20180210 IMCT                IMCT                                                                                                                    WMF1802104.TXT
MDDDJ2241390201802                D89828070100PV1D20180215000060SPEAKER ASM                   M IMCTM S5MB11 TNTH  07070IMCT  S5 PTB  00004                    1030 SR        000000000000 DENSO TEN (THAILAND)180LPCL0037037                                                                                                                              *          20180210 IMCT                IMCT                                                                                                                    WMF1802104.TXT
MDDDJ2241391201802                D89828070100PV1D20180215000060SPEAKER ASM                   M IMCTM S5MB11 TNTH  07070IMCT  S5 PTB  00004                    1300 SR        000000000000 DENSO TEN (THAILAND)180LNEL0055055                                                                                                                              *          20180210 IMCT                IMCT                                                                                                                    WMF1802104.TXT
MDDDJ2241392201802                D89828070100PV1D20180215000060SPEAKER ASM                   M IMCTM S5MB11 TNTH  07070IMCT  S5 PTB  00004                    1600 SR        000000000000 DENSO TEN (THAILAND)180LPKL0045045                                                                                                                              *          20180210 IMCT                IMCT                                                                                                                    WMF1802104.TXT
MDDDJ2241393201802                D89828070100PV1D20180215000060SPEAKER ASM                   M IMCTM S5MB11 TNTH  07070IMCT  S5 PTB  00004                    2100 SR        000000000000 DENSO TEN (THAILAND)180LPDL0007007                                                                                                                              *          20180210 IMCT                IMCT                                                                                                                    WMF1802104.TXT
MDDDJ2241394201802                D89828070100PV4D20180215000060SPEAKER ASM                   M IMCTM S0FL05 TNTH  07070IMCT  S0 PTB  00004                    0400 SR        000000000000 DENSO TEN (THAILAND)180LRSU0035035                                                                                                                              *          20180210 IMCT                IMCT                                                                                                                    WMF1802104.TXT
MDDDJ2241395201802                D89828070200PV4D20180215000060SPEAKER ASM                   M IMCTM S0FR05 TNTH  07070IMCT  S0 PTB  00005                    0400 SR        000000000000 DENSO TEN (THAILAND)180LRSU0035035                                                                                                                              *          20180210 IMCT                IMCT                                                                                                                    WMF1802104.TXT
MDDDJ2241396201802                D89828070300PT1D20180215000060SPEAKER ASM                   M IMCTM S5NB082TNTH  07070IMCT  S5 PTB  00015                    1030 SR        000000000000 DENSO TEN (THAILAND)180LPCL0037037                                                                                                                              *          20180210 IMCT                IMCT                                                                                                                    WMF1802104.TXT
MDDDJ2241397201802                D89828070300PT1D20180215000060SPEAKER ASM                   M IMCTM S5NB082TNTH  07070IMCT  S5 PTB  00015                    1600 SR        000000000000 DENSO TEN (THAILAND)180LPKL0045045                                                                                                                              *          20180210 IMCT                IMCT                                                                                                                    WMF1802104.TXT
MDDDJ2241398201802                D89828070300PT1D20180215000060SPEAKER ASM                   M IMCTM S5NB082TNTH  07070IMCT  S5 PTB  00015                    2100 SR        000000000000 DENSO TEN (THAILAND)180LPDL0007007                                                                                                                              *          20180210 IMCT                IMCT                                                                                                                    WMF1802104.TXT
MDDDJ2241399201802                D89828070300PT4D20180215000060SPEAKER ASM                   M IMCTM S9TS02 TNTH  07070IMCT  S9 PTB  00015                    0400 SR        000000000000 DENSO TEN (THAILAND)180LRSU0035035                                                                                                                              *          20180210 IMCT                IMCT                                                                                                                    WMF1802104.TXT
MDDDJ2241400201802                D89831228300PT1D20180215000030RADIO;AM/FM,CD                M IMCTM S5NC06 TNTH  07070IMCT  S5 CPB  00003                    1030 SR        000000000000 DENSO TEN (THAILAND)180LPCL0037037                                                                                                                              *          20180210 IMCT                IMCT                                                                                                                    WMF1802104.TXT
MDDDJ2241401201802                D89831228300PT1D20180215000030RADIO;AM/FM,CD                M IMCTM S5NC06 TNTH  07070IMCT  S5 CPB  00003                    2100 SR        000000000000 DENSO TEN (THAILAND)180LPDL0007007                                                                                                                              *          20180210 IMCT                IMCT                                                                                                                    WMF1802104.TXT
MDDDJ2241402201802                D89848581600PT1D20180215000030RADIO;AM/FM CD D              M IMCTM S5NC06 TNTH  07070IMCT  S5 PTB  00003                    1600 SR        000000000000 DENSO TEN (THAILAND)180LPKL0045045                                                                                                                              *          20180210 IMCT                IMCT                                                                                                                    WMF1802104.TXT
MDEDJ2255083201802                D89828070100PV1D20180214000030SPEAKER ASM                   M IMCTM S5MB11 TNTH  07070IMCT  S5 PTB  00004                    2230 SR        000000000000 DENSO TEN (THAILAND)18099UL0005005                                                                                                                              *          20180210 IMCT                IMCT                                                                                                                    WMF1802104.TXT
MDEDJ2255084201802                D89828070100PV1D20180215000120SPEAKER ASM                   M IMCTM S5MB11 TNTH  07070IMCT  S5 PTB  00004                    0400 SR        000000000000 DENSO TEN (THAILAND)18082UL0009012                                                                                                                              *          20180210 IMCT                IMCT                                                                                                                    WMF1802104.TXT
MDEDJ2255085201802                D89828070100PV1D20180215000090SPEAKER ASM                   M IMCTM S5MB11 TNTH  07070IMCT  S5 PTB  00004                    0830 SR        000000000000 DENSO TEN (THAILAND)17075PL010010118065UL0002002                                                                                                                *          20180210 IMCT                IMCT                                                                                                                    WMF1802104.TXT
MDEDJ2255086201802                D89828070100PV1D20180215000030SPEAKER ASM                   M IMCTM S5MB11 TNTH  07070IMCT  S5 PTB  00004                    1030 SR        000000000000 DENSO TEN (THAILAND)17021QL0016016                                                                                                                              *          20180210 IMCT                IMCT                                                                                                                    WMF1802104.TXT
MDEDJ2255087201802                D89828070100PV1D20180215000060SPEAKER ASM                   M IMCTM S5MB11 TNTH  07070IMCT  S5 PTB  00004                    1300 SR        000000000000 DENSO TEN (THAILAND)18099UL0006007                                                                                                                              *          20180210 IMCT                IMCT                                                                                                                    WMF1802104.TXT
MDEDJ2255088201802                D89828070100PV1D20180215000090SPEAKER ASM                   M IMCTM S5MB11 TNTH  07070IMCT  S5 PTB  00004                    1600 SR        000000000000 DENSO TEN (THAILAND)18082UL001301418098UL0005005                                                                                                                *          20180210 IMCT                IMCT                                                                                                                    WMF1802104.TXT
MDEDJ2255089201802                D89828070100PV1D20180215000030SPEAKER ASM                   M IMCTM S5MB11 TNTH  07070IMCT  S5 PTB  00004                    2100 SR        000000000000 DENSO TEN (THAILAND)18082UL0015015                                                                                                                              *          20180210 IMCT                IMCT                                                                                                                    WMF1802104.TXT
MDEDJ2255090201802                D89828070100PV1D20180215000060SPEAKER ASM                   M IMCTM S5MB11 TNTH  07070IMCT  S5 PTB  00004                    2230 SR        000000000000 DENSO TEN (THAILAND)18099UL0008009                                                                                                                              *          20180210 IMCT                IMCT                                                                                                                    WMF1802104.TXT
MDEDJ2255091201802                D89828070100PV4D20180215000030SPEAKER ASM                   M IMCTM S0FL05 TNTH  07070IMCT  S0 PTB  00004                    1030 SR        000000000000 DENSO TEN (THAILAND)18061UU0004004                                                                                                                              *          20180210 IMCT                IMCT                                                                                                                    WMF1802104.TXT
MDEDJ2255092201802                D89828070100PV4D20180215000060SPEAKER ASM                   M IMCTM S0FL05 TNTH  07070IMCT  S0 PTB  00004                    1600 SR        000000000000 DENSO TEN (THAILAND)18061UU000500518063UU0006006                                                                                                                *          20180210 IMCT                IMCT                                                                                                                    WMF1802104.TXT
MDEDJ2255093201802                D89828070200PV1D20180214000030SPEAKER ASM                   M IMCTM S5MA14 TNTH  07070IMCT  S5 PTB  00005                    2230 SR        000000000000 DENSO TEN (THAILAND)18099UL0005005                                                                                                                              *          20180210 IMCT                IMCT                                                                                                                    WMF1802104.TXT
MDEDJ2255094201802                D89828070200PV1D20180215000120SPEAKER ASM                   M IMCTM S5MA14 TNTH  07070IMCT  S5 PTB  00005                    0400 SR        000000000000 DENSO TEN (THAILAND)18082UL0009012                                                                                                                              *          20180210 IMCT                IMCT                                                                                                                    WMF1802104.TXT
MDEDJ2255095201802                D89828070200PV1D20180215000030SPEAKER ASM                   M IMCTM S5MA14 TNTH  07070IMCT  S5 PTB  00005                    0830 SR        000000000000 DENSO TEN (THAILAND)18065UL0002002                                                                                                                              *          20180210 IMCT                IMCT                                                                                                                    WMF1802104.TXT
MDEDJ2255096201802                D89828070200PV1D20180215000060SPEAKER ASM                   M IMCTM S5MA14 TNTH  07070IMCT  S5 PTB  00005                    1300 SR        000000000000 DENSO TEN (THAILAND)18099UL0006007                                                                                                                              *          20180210 IMCT                IMCT                                                                                                                    WMF1802104.TXT
MDEDJ2255097201802                D89828070200PV1D20180215000090SPEAKER ASM                   M IMCTM S5MA14 TNTH  07070IMCT  S5 PTB  00005                    1600 SR        000000000000 DENSO TEN (THAILAND)18082UL001301418098UL0005005                                                                                                                *          20180210 IMCT                IMCT                                                                                                                    WMF1802104.TXT
MDEDJ2255098201802                D89828070200PV1D20180215000030SPEAKER ASM                   M IMCTM S5MA14 TNTH  07070IMCT  S5 PTB  00005                    2100 SR        000000000000 DENSO TEN (THAILAND)18082UL0015015                                                                                                                              *          20180210 IMCT                IMCT                                                                                                                    WMF1802104.TXT
MDEDJ2255099201802                D89828070200PV1D20180215000060SPEAKER ASM                   M IMCTM S5MA14 TNTH  07070IMCT  S5 PTB  00005                    2230 SR        000000000000 DENSO TEN (THAILAND)18099UL0008009                                                                                                                              *          20180210 IMCT                IMCT                                                                                                                    WMF1802104.TXT
MDEDJ2255100201802                D89828070300PT1D20180214000030SPEAKER ASM                   M IMCTM S5NB082TNTH  07070IMCT  S5 PTB  00015                    2230 SR        000000000000 DENSO TEN (THAILAND)18099UL0005005                                                                                                                              *          20180210 IMCT                IMCT                                                                                                                    WMF1802104.TXT
MDEDJ2255101201802                D89828070300PT1D20180215000120SPEAKER ASM                   M IMCTM S5NB082TNTH  07070IMCT  S5 PTB  00015                    0400 SR        000000000000 DENSO TEN (THAILAND)18082UL0009012                                                                                                                              *          20180210 IMCT                IMCT                                                                                                                    WMF1802104.TXT
MDEDJ2255102201802                D89828070300PT1D20180215000030SPEAKER ASM                   M IMCTM S5NB082TNTH  07070IMCT  S5 PTB  00015                    0830 SR        000000000000 DENSO TEN (THAILAND)18065UL0002002                                                                                                                              *          20180210 IMCT                IMCT                                                                                                                    WMF1802104.TXT
MDEDJ2255103201802                D89828070300PT1D20180215000060SPEAKER ASM                   M IMCTM S5NB082TNTH  07070IMCT  S5 PTB  00015                    1300 SR        000000000000 DENSO TEN (THAILAND)18099UL0006007                                                                                                                              *          20180210 IMCT                IMCT                                                                                                                    WMF1802104.TXT
MDEDJ2255104201802                D89828070300PT1D20180215000090SPEAKER ASM                   M IMCTM S5NB082TNTH  07070IMCT  S5 PTB  00015                    1600 SR        000000000000 DENSO TEN (THAILAND)18082UL001301418098UL0005005                                                                                                                *          20180210 IMCT                IMCT                                                                                                                    WMF1802104.TXT
MDEDJ2255105201802                D89828070300PT1D20180215000030SPEAKER ASM                   M IMCTM S5NB082TNTH  07070IMCT  S5 PTB  00015                    2100 SR        000000000000 DENSO TEN (THAILAND)18082UL0015015                                                                                                                              *          20180210 IMCT                IMCT                                                                                                                    WMF1802104.TXT
MDEDJ2255106201802                D89828070300PT1D20180215000060SPEAKER ASM                   M IMCTM S5NB082TNTH  07070IMCT  S5 PTB  00015                    2230 SR        000000000000 DENSO TEN (THAILAND)18099UL0008009                                                                                                                              *          20180210 IMCT                IMCT                                                                                                                    WMF1802104.TXT
MDEDJ2255107201802                D89828070300PT4D20180215000030SPEAKER ASM                   M IMCTM S9TS02 TNTH  07070IMCT  S9 PTB  00015                    1030 SR        000000000000 DENSO TEN (THAILAND)18061UU0004004                                                                                                                              *          20180210 IMCT                IMCT                                                                                                                    WMF1802104.TXT
MDEDJ2255108201802                D89828070300PT4D20180215000060SPEAKER ASM                   M IMCTM S9TS02 TNTH  07070IMCT  S9 PTB  00015                    1600 SR        000000000000 DENSO TEN (THAILAND)18061UU000500518063UU0006006                                                                                                                *          20180210 IMCT                IMCT                                                                                                                    WMF1802104.TXT
MDEDJ2255109201802                D89848581800PT1D20180215000060RADIO;AM/FM CD D              M IMCTM S5NC06 TNTH  07070IMCT  S5 PTB  00003                    0400 SR        000000000000 DENSO TEN (THAILAND)18082UL0009012                                                                                                                              *          20180210 IMCT                IMCT                                                                                                                    WMF1802104.TXT
MDEDJ2255110201802                D89848581800PT1D20180215000015RADIO;AM/FM CD D              M IMCTM S5NC06 TNTH  07070IMCT  S5 PTB  00003                    0830 SR        000000000000 DENSO TEN (THAILAND)18065UL0002002                                                                                                                              *          20180210 IMCT                IMCT                                                                                                                    WMF1802104.TXT
MDEDJ2255111201802                D89848581800PT1D20180215000045RADIO;AM/FM CD D              M IMCTM S5NC06 TNTH  07070IMCT  S5 PTB  00003                    1600 SR        000000000000 DENSO TEN (THAILAND)18082UL001301418098UL0005005                                                                                                                *          20180210 IMCT                IMCT                                                                                                                    WMF1802104.TXT
MDEDJ2255112201802                D89848581800PT1D20180215000015RADIO;AM/FM CD D              M IMCTM S5NC06 TNTH  07070IMCT  S5 PTB  00003                    2100 SR        000000000000 DENSO TEN (THAILAND)18082UL0015015                                                                                                                              *          20180210 IMCT                IMCT                                                                                                                    WMF1802104.TXT
MDEDJ2255113201802                D89848581800PT4D20180215000015RADIO;AM/FM CD D              M IMCTM S9CO001TNTH  07070IMCT  S9 PTB  00003                    1030 SR        000000000000 DENSO TEN (THAILAND)18061UU0004004                                                                                                                              *          20180210 IMCT                IMCT                                                                                                                    WMF1802104.TXT
MDEDJ2255114201802                D89848581800PT4D20180215000030RADIO;AM/FM CD D              M IMCTM S9CO001TNTH  07070IMCT  S9 PTB  00003                    1600 SR        000000000000 DENSO TEN (THAILAND)18061UU000500518063UU0006006                                                                                                                *          20180210 IMCT                IMCT                                                                                                                    WMF1802104.TXT
MDEUJ2239664201802                D89828070100PT4U20180215000030SPEAKER ASM                   M IMCTM S0FL05 TNTH  07070IMCT  S0 PTB  00004                    0230 SR        000000000000 DENSO TEN (THAILAND)18016UU0005005                                                                                                                              *          20180210 IMCT                IMCT                                                                                                                    WMF1802104.TXT
MDEUJ2239665201802                D89828070100PT4U20180215000060SPEAKER ASM                   M IMCTM S0FL05 TNTH  07070IMCT  S0 PTB  00004                    0400 SR        000000000000 DENSO TEN (THAILAND)18021UU001001018043YU0002002                                                                                                                *          20180210 IMCT                IMCT                                                                                                                    WMF1802104.TXT
MDEUJ2239666201802                D89828070100PT4U20180215000060SPEAKER ASM                   M IMCTM S0FL05 TNTH  07070IMCT  S0 PTB  00004                    0830 SR        000000000000 DENSO TEN (THAILAND)18015UU000400418021UU0011011                                                                                                                *          20180210 IMCT                IMCT                                                                                                                    WMF1802104.TXT
MDEUJ2239667201802                D89828070100PT4U20180215000060SPEAKER ASM                   M IMCTM S0FL05 TNTH  07070IMCT  S0 PTB  00004                    1300 SR        000000000000 DENSO TEN (THAILAND)18014UU000300318025UU0033033                                                                                                                *          20180210 IMCT                IMCT                                                                                                                    WMF1802104.TXT
MDEUJ2239668201802                D89828070100PT4U20180215000090SPEAKER ASM                   M IMCTM S0FL05 TNTH  07070IMCT  S0 PTB  00004                    1600 SR        000000000000 DENSO TEN (THAILAND)18020UU000700818021UU0012012                                                                                                                *          20180210 IMCT                IMCT                                                                                                                    WMF1802104.TXT
MDEUJ2239669201802                D89828070100PT4U20180215000030SPEAKER ASM                   M IMCTM S0FL05 TNTH  07070IMCT  S0 PTB  00004                    2100 SR        000000000000 DENSO TEN (THAILAND)18020UU0009009                                                                                                                              *          20180210 IMCT                IMCT                                                                                                                    WMF1802104.TXT
MDEUJ2239670201802                D89828070100PT4U20180215000060SPEAKER ASM                   M IMCTM S0FL05 TNTH  07070IMCT  S0 PTB  00004                    2230 SR        000000000000 DENSO TEN (THAILAND)18016UU000600618019UU0003003                                                                                                                *          20180210 IMCT                IMCT                                                                                                                    WMF1802104.TXT
MDEUJ2239671201802                D89828070200PV4U20180215000030SPEAKER ASM                   M IMCTM S0FR05 TNTH  07070IMCT  S0 PTB  00005                    0230 SR        000000000000 DENSO TEN (THAILAND)18016UU0005005                                                                                                                              *          20180210 IMCT                IMCT                                                                                                                    WMF1802104.TXT
MDEUJ2239672201802                D89828070200PV4U20180215000060SPEAKER ASM                   M IMCTM S0FR05 TNTH  07070IMCT  S0 PTB  00005                    0400 SR        000000000000 DENSO TEN (THAILAND)18021UU001001018043YU0002002                                                                                                                *          20180210 IMCT                IMCT                                                                                                                    WMF1802104.TXT
MDEUJ2239673201802                D89828070200PV4U20180215000060SPEAKER ASM                   M IMCTM S0FR05 TNTH  07070IMCT  S0 PTB  00005                    0830 SR        000000000000 DENSO TEN (THAILAND)18015UU000400418021UU0011011                                                                                                                *          20180210 IMCT                IMCT                                                                                                                    WMF1802104.TXT
MDEUJ2239674201802                D89828070200PV4U20180215000060SPEAKER ASM                   M IMCTM S0FR05 TNTH  07070IMCT  S0 PTB  00005                    1300 SR        000000000000 DENSO TEN (THAILAND)18014UU000300318025UU0033033                                                                                                                *          20180210 IMCT                IMCT                                                                                                                    WMF1802104.TXT
MDEUJ2239675201802                D89828070200PV4U20180215000090SPEAKER ASM                   M IMCTM S0FR05 TNTH  07070IMCT  S0 PTB  00005                    1600 SR        000000000000 DENSO TEN (THAILAND)18020UU000700818021UU0012012                                                                                                                *          20180210 IMCT                IMCT                                                                                                                    WMF1802104.TXT
MDEUJ2239676201802                D89828070200PV4U20180215000030SPEAKER ASM                   M IMCTM S0FR05 TNTH  07070IMCT  S0 PTB  00005                    2100 SR        000000000000 DENSO TEN (THAILAND)18020UU0009009                                                                                                                              *          20180210 IMCT                IMCT                                                                                                                    WMF1802104.TXT
MDEUJ2239677201802                D89828070200PV4U20180215000060SPEAKER ASM                   M IMCTM S0FR05 TNTH  07070IMCT  S0 PTB  00005                    2230 SR        000000000000 DENSO TEN (THAILAND)18016UU000600618019UU0003003                                                                                                                *          20180210 IMCT                IMCT                                                                                                                    WMF1802104.TXT
MDEUJ2239678201802                D89828070300PT4U20180215000030SPEAKER ASM                   M IMCTM S9TS02 TNTH  07070IMCT  S9 PTB  00015                    0230 SR        000000000000 DENSO TEN (THAILAND)18016UU0005005                                                                                                                              *          20180210 IMCT                IMCT                                                                                                                    WMF1802104.TXT
MDEUJ2239679201802                D89828070300PT4U20180215000060SPEAKER ASM                   M IMCTM S9TS02 TNTH  07070IMCT  S9 PTB  00015                    0400 SR        000000000000 DENSO TEN (THAILAND)18021UU001001018043YU0002002                                                                                                                *          20180210 IMCT                IMCT                                                                                                                    WMF1802104.TXT
MDEUJ2239680201802                D89828070300PT4U20180215000060SPEAKER ASM                   M IMCTM S9TS02 TNTH  07070IMCT  S9 PTB  00015                    0830 SR        000000000000 DENSO TEN (THAILAND)18015UU000400418021UU0011011                                                                                                                *          20180210 IMCT                IMCT                                                                                                                    WMF1802104.TXT
MDEUJ2239681201802                D89828070300PT4U20180215000060SPEAKER ASM                   M IMCTM S9TS02 TNTH  07070IMCT  S9 PTB  00015                    1300 SR        000000000000 DENSO TEN (THAILAND)18014UU000300318025UU0033033                                                                                                                *          20180210 IMCT                IMCT                                                                                                                    WMF1802104.TXT
MDEUJ2239682201802                D89828070300PT4U20180215000090SPEAKER ASM                   M IMCTM S9TS02 TNTH  07070IMCT  S9 PTB  00015                    1600 SR        000000000000 DENSO TEN (THAILAND)18020UU000700818021UU0012012                                                                                                                *          20180210 IMCT                IMCT                                                                                                                    WMF1802104.TXT
MDEUJ2239683201802                D89828070300PT4U20180215000030SPEAKER ASM                   M IMCTM S9TS02 TNTH  07070IMCT  S9 PTB  00015                    2100 SR        000000000000 DENSO TEN (THAILAND)18020UU0009009                                                                                                                              *          20180210 IMCT                IMCT                                                                                                                    WMF1802104.TXT
MDEUJ2239684201802                D89828070300PT4U20180215000060SPEAKER ASM                   M IMCTM S9TS02 TNTH  07070IMCT  S9 PTB  00015                    2230 SR        000000000000 DENSO TEN (THAILAND)18016UU000600618019UU0003003                                                                                                                *          20180210 IMCT                IMCT                                                                                                                    WMF1802104.TXT
MDEUJ2239685201802                D89848584700PT4U20180215000015RADIO;AM/FM CD D              M IMCTM S9CO001TNTH  07070IMCT  S9 PTB  00003                    1300 SR        000000000000 DENSO TEN (THAILAND)18014UU0003003                                                                                                                              *          20180210 IMCT                IMCT                                                                                                                    WMF1802104.TXT
MDEUJ2239686201802                D89848584700PT4U20180215000015RADIO;AM/FM CD D              M IMCTM S9CO001TNTH  07070IMCT  S9 PTB  00003                    2230 SR        000000000000 DENSO TEN (THAILAND)18019UU0003003                                                                                                                              *          20180210 IMCT                IMCT                                                                                                                    WMF1802104.TXT
