REC2018021420180214ISUZU                              8      
MDEBJ2T02785201802                D89828070100PT4B20180220000026SPEAKER ASM                   M IMCTM S7FL05 TNTH  07070IMCT  S7 PTB  00004                    1030 SR        000000000000 DENSO TEN (THAILAND)18050ZR0003   18050ZR0015   Y180204003    Y180204015    000000                                                                              *R         20180214 IMCT                IMCT                                                                                                                    RMF1802147.TXT
MDEBJ2T02786201802                D89828070200PV4B20180220000025SPEAKER ASM                   M IMCTM S7FL05 TNTH  07070IMCT  S7 PTB  00005                    1030 SR        000000000000 DENSO TEN (THAILAND)18050ZR0003   18050ZR0015   Y180204003    Y180204015    000000                                                                              *R         20180214 IMCT                IMCT                                                                                                                    RMF1802147.TXT
MDEBJ2T02787201802                D89828070300PT4B20180220000015SPEAKER ASM                   M IMCTM S7TS02 TNTH  07070IMCT  S7 PTB  00015                    1030 SR        000000000000 DENSO TEN (THAILAND)18050ZR0008   18050ZR0015   Y180204008    Y180204015    000000                                                                              *R         20180214 IMCT                IMCT                                                                                                                    RMF1802147.TXT
MDEBJ2203093201802                D89828070100PT4B20180220000004SPEAKER ASM                   M IMCTM S7FL05 TNTH  07070IMCT  S7 PTB  00004                    0830 SR        000000000000 DENSO TEN (THAILAND)18049ZR0005   18050ZR0002   Y180204001    Y180204002    000000                                                                              *R         20180214 IMCT                IMCT                                                                                                                    RMF1802147.TXT
MDEBJ2203094201802                D89828070200PV4B20180220000005SPEAKER ASM                   M IMCTM S7FL05 TNTH  07070IMCT  S7 PTB  00005                    0830 SR        000000000000 DENSO TEN (THAILAND)18049ZR0005   18050ZR0003   Y180204001    Y180204003    000000                                                                              *R         20180214 IMCT                IMCT                                                                                                                    RMF1802147.TXT
MDEBJ2203095201802                D89828070300PT4B20180220000015SPEAKER ASM                   M IMCTM S7TS02 TNTH  07070IMCT  S7 PTB  00015                    0830 SR        000000000000 DENSO TEN (THAILAND)18049ZR0005   18050ZR0008   Y180204001    Y180204008    000000                                                                              *R         20180214 IMCT                IMCT                                                                                                                    RMF1802147.TXT
MDEFJ2T14355201802                D89828070100PV4F20180220000006SPEAKER ASM                   M IMCTM S7FL05 TNTH  07070IMCT  S7 PTB  00004                    0230 SR        000000000000 DENSO TEN (THAILAND)18034ZR0004   18034ZR0006   S180203913    S180203915    000000                                                                              *R         20180214 IMCT                IMCT                                                                                                                    RMF1802147.TXT
MDEFJ2236110201802                D89828070100PV4F20180219000024SPEAKER ASM                   M IMCTM S7FL05 TNTH  07070IMCT  S7 PTB  00004                    2230 SR        000000000000 DENSO TEN (THAILAND)17005MR0011   18034ZR0003   S180203901    S180203912    000000                                                                              *R         20180214 IMCT                IMCT                                                                                                                    RMF1802147.TXT
