REC2018021520180215ISUZU                              75     
MDDDJ2252965201802                D89821984430PT1D20180221000030RADIO;AM/FM,CD                M IMCTM S5NC06 TNTH  07070IMCT  S5 PTB  00005                    0400 SR        000000000000 DENSO TEN (THAILAND)180LNEL0059059                                                                                                                              *          20180215 IMCT                IMCT                                                                                                                    WMF1802157.TXT
MDDDJ2252966201802                D89821984430PT1D20180221000030RADIO;AM/FM,CD                M IMCTM S5NC06 TNTH  07070IMCT  S5 PTB  00005                    1300 SR        000000000000 DENSO TEN (THAILAND)180LRAL0131131                                                                                                                              *          20180215 IMCT                IMCT                                                                                                                    WMF1802157.TXT
MDDDJ2252967201802                D89821984430PT1D20180221000030RADIO;AM/FM,CD                M IMCTM S5NC06 TNTH  07070IMCT  S5 PTB  00005                    1600 SR        000000000000 DENSO TEN (THAILAND)180LNEL0060060                                                                                                                              *          20180215 IMCT                IMCT                                                                                                                    WMF1802157.TXT
MDDDJ2252968201802                D89828070100PV1D20180221000060SPEAKER ASM                   M IMCTM S5MB11 TNTH  07070IMCT  S5 PTB  00004                    0230 SR        000000000000 DENSO TEN (THAILAND)180LPCL0038038                                                                                                                              *          20180215 IMCT                IMCT                                                                                                                    WMF1802157.TXT
MDDDJ2252969201802                D89828070100PV1D20180221000060SPEAKER ASM                   M IMCTM S5MB11 TNTH  07070IMCT  S5 PTB  00004                    0400 SR        000000000000 DENSO TEN (THAILAND)180LNEL0059059                                                                                                                              *          20180215 IMCT                IMCT                                                                                                                    WMF1802157.TXT
MDDDJ2252970201802                D89828070100PV1D20180221000060SPEAKER ASM                   M IMCTM S5MB11 TNTH  07070IMCT  S5 PTB  00004                    1030 SR        000000000000 DENSO TEN (THAILAND)180LPGL0155155                                                                                                                              *          20180215 IMCT                IMCT                                                                                                                    WMF1802157.TXT
MDDDJ2252971201802                D89828070100PV1D20180221000060SPEAKER ASM                   M IMCTM S5MB11 TNTH  07070IMCT  S5 PTB  00004                    1300 SR        000000000000 DENSO TEN (THAILAND)180LRAL0131131                                                                                                                              *          20180215 IMCT                IMCT                                                                                                                    WMF1802157.TXT
MDDDJ2252972201802                D89828070100PV1D20180221000060SPEAKER ASM                   M IMCTM S5MB11 TNTH  07070IMCT  S5 PTB  00004                    1600 SR        000000000000 DENSO TEN (THAILAND)180LNEL0060060                                                                                                                              *          20180215 IMCT                IMCT                                                                                                                    WMF1802157.TXT
MDDDJ2252973201802                D89828070300PT1D20180221000060SPEAKER ASM                   M IMCTM S5NB082TNTH  07070IMCT  S5 PTB  00015                    0230 SR        000000000000 DENSO TEN (THAILAND)180LPCL0038038                                                                                                                              *          20180215 IMCT                IMCT                                                                                                                    WMF1802157.TXT
MDDDJ2252974201802                D89828070300PT1D20180221000060SPEAKER ASM                   M IMCTM S5NB082TNTH  07070IMCT  S5 PTB  00015                    1030 SR        000000000000 DENSO TEN (THAILAND)180LPGL0155155                                                                                                                              *          20180215 IMCT                IMCT                                                                                                                    WMF1802157.TXT
MDDDJ2252975201802                D89831228300PT1D20180221000030RADIO;AM/FM,CD                M IMCTM S5NC06 TNTH  07070IMCT  S5 CPB  00003                    0230 SR        000000000000 DENSO TEN (THAILAND)180LPCL0038038                                                                                                                              *          20180215 IMCT                IMCT                                                                                                                    WMF1802157.TXT
MDDDJ2252976201802                D89831228300PT1D20180221000030RADIO;AM/FM,CD                M IMCTM S5NC06 TNTH  07070IMCT  S5 CPB  00003                    1030 SR        000000000000 DENSO TEN (THAILAND)180LPGL0155155                                                                                                                              *          20180215 IMCT                IMCT                                                                                                                    WMF1802157.TXT
MDEDJ2290489201802                D89805293700PV1D20180221000030SPEAKER ASM                   M IMCTM S5MB14 TNTH  07070IMCT  S5 PTB  00003                    0400 SR        000000000000 DENSO TEN (THAILAND)15043DL0021021                                                                                                                              *          20180215 IMCT                IMCT                                                                                                                    WMF1802157.TXT
MDEDJ2290490201802                D89805294000PT1D20180221000030SPEAKER ASM                   M IMCTM S5NB082TNTH  07070IMCT  S5 PTB  00015                    0400 SR        000000000000 DENSO TEN (THAILAND)15043DL0021021                                                                                                                              *          20180215 IMCT                IMCT                                                                                                                    WMF1802157.TXT
MDEDJ2290491201802                D89805294200PT1D20180221000030SPEAKER ASM                   M IMCTM S5AS011TNTH  07070IMCT  S6 PTB  00030                    0400 SR        000000000000 DENSO TEN (THAILAND)15043DL0021021                                                                                                                              *          20180215 IMCT                IMCT                                                                                                                    WMF1802157.TXT
MDEDJ2290492201802                D89806470400PT1D20180221000015SPEAKER ASM;RDO,              M IMCTM S5EA18 TNTH  07070IMCT  S6 PTB  00015                    0400 SR        000000000000 DENSO TEN (THAILAND)15043DL0021021                                                                                                                              *          20180215 IMCT                IMCT                                                                                                                    WMF1802157.TXT
MDEDJ2290493201802                D89824360220PT1D20180221000015RADIO;AM/FM,CD                M IMCTM S5NC06 TNTH  07070IMCT  S5 CPB  00003                    0400 SR        000000000000 DENSO TEN (THAILAND)15043DL0021021                                                                                                                              *          20180215 IMCT                IMCT                                                                                                                    WMF1802157.TXT
MDEDJ2290494201802                D89828070100PV1D20180220000060SPEAKER ASM                   M IMCTM S5MB11 TNTH  07070IMCT  S5 PTB  00004                    2230 SR        000000000000 DENSO TEN (THAILAND)18072UL0002003                                                                                                                              *          20180215 IMCT                IMCT                                                                                                                    WMF1802157.TXT
MDEDJ2290495201802                D89828070100PV1D20180221000090SPEAKER ASM                   M IMCTM S5MB11 TNTH  07070IMCT  S5 PTB  00004                    0400 SR        000000000000 DENSO TEN (THAILAND)17054PL006606618001VL000400418098UL0011011                                                                                                  *          20180215 IMCT                IMCT                                                                                                                    WMF1802157.TXT
MDEDJ2290496201802                D89828070100PV1D20180221000060SPEAKER ASM                   M IMCTM S5MB11 TNTH  07070IMCT  S5 PTB  00004                    0830 SR        000000000000 DENSO TEN (THAILAND)18072UL0004005                                                                                                                              *          20180215 IMCT                IMCT                                                                                                                    WMF1802157.TXT
MDEDJ2290497201802                D89828070100PV1D20180221000060SPEAKER ASM                   M IMCTM S5MB11 TNTH  07070IMCT  S5 PTB  00004                    1300 SR        000000000000 DENSO TEN (THAILAND)18074UL0003004                                                                                                                              *          20180215 IMCT                IMCT                                                                                                                    WMF1802157.TXT
MDEDJ2290498201802                D89828070100PV1D20180221000150SPEAKER ASM                   M IMCTM S5MB11 TNTH  07070IMCT  S5 PTB  00004                    1600 SR        000000000000 DENSO TEN (THAILAND)18069UL000200318071UL000100118099UL0018019                                                                                                  *          20180215 IMCT                IMCT                                                                                                                    WMF1802157.TXT
MDEDJ2290499201802                D89828070100PV1D20180221000060SPEAKER ASM                   M IMCTM S5MB11 TNTH  07070IMCT  S5 PTB  00004                    2100 SR        000000000000 DENSO TEN (THAILAND)18061UL000100118071UL0002002                                                                                                                *          20180215 IMCT                IMCT                                                                                                                    WMF1802157.TXT
MDEDJ2290500201802                D89828070100PV1D20180221000090SPEAKER ASM                   M IMCTM S5MB11 TNTH  07070IMCT  S5 PTB  00004                    2230 SR        000000000000 DENSO TEN (THAILAND)17075PL010710718080UL0009010                                                                                                                *          20180215 IMCT                IMCT                                                                                                                    WMF1802157.TXT
MDEDJ2290501201802                D89828070100PV4D20180221000030SPEAKER ASM                   M IMCTM S0FL05 TNTH  07070IMCT  S0 PTB  00004                    0230 SR        000000000000 DENSO TEN (THAILAND)18098UU0003003                                                                                                                              *          20180215 IMCT                IMCT                                                                                                                    WMF1802157.TXT
MDEDJ2290502201802                D89828070100PV4D20180221000030SPEAKER ASM                   M IMCTM S0FL05 TNTH  07070IMCT  S0 PTB  00004                    0830 SR        000000000000 DENSO TEN (THAILAND)18068UU0002002                                                                                                                              *          20180215 IMCT                IMCT                                                                                                                    WMF1802157.TXT
MDEDJ2290503201802                D89828070100PV4D20180221000030SPEAKER ASM                   M IMCTM S0FL05 TNTH  07070IMCT  S0 PTB  00004                    1600 SR        000000000000 DENSO TEN (THAILAND)18061UU0009009                                                                                                                              *          20180215 IMCT                IMCT                                                                                                                    WMF1802157.TXT
MDEDJ2290504201802                D89828070100PV4D20180221000030SPEAKER ASM                   M IMCTM S0FL05 TNTH  07070IMCT  S0 PTB  00004                    2100 SR        000000000000 DENSO TEN (THAILAND)18063UU0009009                                                                                                                              *          20180215 IMCT                IMCT                                                                                                                    WMF1802157.TXT
MDEDJ2290505201802                D89828070200PV1D20180221000060SPEAKER ASM                   M IMCTM S5MA14 TNTH  07070IMCT  S5 PTB  00005                    0400 SR        000000000000 DENSO TEN (THAILAND)18001VL000400418098UL0011011                                                                                                                *          20180215 IMCT                IMCT                                                                                                                    WMF1802157.TXT
MDEDJ2290506201802                D89828070200PV1D20180221000120SPEAKER ASM                   M IMCTM S5MA14 TNTH  07070IMCT  S5 PTB  00005                    1600 SR        000000000000 DENSO TEN (THAILAND)18069UL000200318099UL0018019                                                                                                                *          20180215 IMCT                IMCT                                                                                                                    WMF1802157.TXT
MDEDJ2290507201802                D89828070200PV1D20180221000060SPEAKER ASM                   M IMCTM S5MA14 TNTH  07070IMCT  S5 PTB  00005                    2230 SR        000000000000 DENSO TEN (THAILAND)18080UL0009010                                                                                                                              *          20180215 IMCT                IMCT                                                                                                                    WMF1802157.TXT
MDEDJ2290508201802                D89828070200PV4D20180221000030SPEAKER ASM                   M IMCTM S0FR05 TNTH  07070IMCT  S0 PTB  00005                    0230 SR        000000000000 DENSO TEN (THAILAND)18098UU0003003                                                                                                                              *          20180215 IMCT                IMCT                                                                                                                    WMF1802157.TXT
MDEDJ2290509201802                D89828070200PV4D20180221000030SPEAKER ASM                   M IMCTM S0FR05 TNTH  07070IMCT  S0 PTB  00005                    0830 SR        000000000000 DENSO TEN (THAILAND)18068UU0002002                                                                                                                              *          20180215 IMCT                IMCT                                                                                                                    WMF1802157.TXT
MDEDJ2290510201802                D89828070300PT1D20180220000060SPEAKER ASM                   M IMCTM S5NB082TNTH  07070IMCT  S5 PTB  00015                    2230 SR        000000000000 DENSO TEN (THAILAND)18072UL0002003                                                                                                                              *          20180215 IMCT                IMCT                                                                                                                    WMF1802157.TXT
MDEDJ2290511201802                D89828070300PT1D20180221000060SPEAKER ASM                   M IMCTM S5NB082TNTH  07070IMCT  S5 PTB  00015                    0400 SR        000000000000 DENSO TEN (THAILAND)18001VL000400418098UL0011011                                                                                                                *          20180215 IMCT                IMCT                                                                                                                    WMF1802157.TXT
MDEDJ2290512201802                D89828070300PT1D20180221000060SPEAKER ASM                   M IMCTM S5NB082TNTH  07070IMCT  S5 PTB  00015                    0830 SR        000000000000 DENSO TEN (THAILAND)18072UL0004005                                                                                                                              *          20180215 IMCT                IMCT                                                                                                                    WMF1802157.TXT
MDEDJ2290513201802                D89828070300PT1D20180221000060SPEAKER ASM                   M IMCTM S5NB082TNTH  07070IMCT  S5 PTB  00015                    1300 SR        000000000000 DENSO TEN (THAILAND)18074UL0003004                                                                                                                              *          20180215 IMCT                IMCT                                                                                                                    WMF1802157.TXT
MDEDJ2290514201802                D89828070300PT1D20180221000150SPEAKER ASM                   M IMCTM S5NB082TNTH  07070IMCT  S5 PTB  00015                    1600 SR        000000000000 DENSO TEN (THAILAND)18069UL000200318071UL000100118099UL0018019                                                                                                  *          20180215 IMCT                IMCT                                                                                                                    WMF1802157.TXT
MDEDJ2290515201802                D89828070300PT1D20180221000060SPEAKER ASM                   M IMCTM S5NB082TNTH  07070IMCT  S5 PTB  00015                    2100 SR        000000000000 DENSO TEN (THAILAND)18061UL000100118071UL0002002                                                                                                                *          20180215 IMCT                IMCT                                                                                                                    WMF1802157.TXT
MDEDJ2290516201802                D89828070300PT1D20180221000060SPEAKER ASM                   M IMCTM S5NB082TNTH  07070IMCT  S5 PTB  00015                    2230 SR        000000000000 DENSO TEN (THAILAND)18080UL0009010                                                                                                                              *          20180215 IMCT                IMCT                                                                                                                    WMF1802157.TXT
MDEDJ2290517201802                D89828070300PT4D20180221000030SPEAKER ASM                   M IMCTM S9TS02 TNTH  07070IMCT  S9 PTB  00015                    0230 SR        000000000000 DENSO TEN (THAILAND)18098UU0003003                                                                                                                              *          20180215 IMCT                IMCT                                                                                                                    WMF1802157.TXT
MDEDJ2290518201802                D89828070300PT4D20180221000030SPEAKER ASM                   M IMCTM S9TS02 TNTH  07070IMCT  S9 PTB  00015                    0830 SR        000000000000 DENSO TEN (THAILAND)18068UU0002002                                                                                                                              *          20180215 IMCT                IMCT                                                                                                                    WMF1802157.TXT
MDEDJ2290519201802                D89828070300PT4D20180221000030SPEAKER ASM                   M IMCTM S9TS02 TNTH  07070IMCT  S9 PTB  00015                    1600 SR        000000000000 DENSO TEN (THAILAND)18061UU0009009                                                                                                                              *          20180215 IMCT                IMCT                                                                                                                    WMF1802157.TXT
MDEDJ2290520201802                D89828070300PT4D20180221000030SPEAKER ASM                   M IMCTM S9TS02 TNTH  07070IMCT  S9 PTB  00015                    2100 SR        000000000000 DENSO TEN (THAILAND)18063UU0009009                                                                                                                              *          20180215 IMCT                IMCT                                                                                                                    WMF1802157.TXT
MDEDJ2290521201802                D89848581800PT1D20180220000030RADIO;AM/FM CD D              M IMCTM S5NC06 TNTH  07070IMCT  S5 PTB  00003                    2230 SR        000000000000 DENSO TEN (THAILAND)18072UL0002003                                                                                                                              *          20180215 IMCT                IMCT                                                                                                                    WMF1802157.TXT
MDEDJ2290522201802                D89848581800PT1D20180221000015RADIO;AM/FM CD D              M IMCTM S5NC06 TNTH  07070IMCT  S5 PTB  00003                    0400 SR        000000000000 DENSO TEN (THAILAND)18098UL0011011                                                                                                                              *          20180215 IMCT                IMCT                                                                                                                    WMF1802157.TXT
MDEDJ2290523201802                D89848581800PT1D20180221000030RADIO;AM/FM CD D              M IMCTM S5NC06 TNTH  07070IMCT  S5 PTB  00003                    0830 SR        000000000000 DENSO TEN (THAILAND)18072UL0004005                                                                                                                              *          20180215 IMCT                IMCT                                                                                                                    WMF1802157.TXT
MDEDJ2290524201802                D89848581800PT1D20180221000015RADIO;AM/FM CD D              M IMCTM S5NC06 TNTH  07070IMCT  S5 PTB  00003                    1600 SR        000000000000 DENSO TEN (THAILAND)18071UL0001001                                                                                                                              *          20180215 IMCT                IMCT                                                                                                                    WMF1802157.TXT
MDEDJ2290525201802                D89848581800PT1D20180221000030RADIO;AM/FM CD D              M IMCTM S5NC06 TNTH  07070IMCT  S5 PTB  00003                    2100 SR        000000000000 DENSO TEN (THAILAND)18061UL000100118071UL0002002                                                                                                                *          20180215 IMCT                IMCT                                                                                                                    WMF1802157.TXT
MDEDJ2290526201802                D89848581800PT1D20180221000030RADIO;AM/FM CD D              M IMCTM S5NC06 TNTH  07070IMCT  S5 PTB  00003                    2230 SR        000000000000 DENSO TEN (THAILAND)18080UL0009010                                                                                                                              *          20180215 IMCT                IMCT                                                                                                                    WMF1802157.TXT
MDEDJ2290527201802                D89848581800PT4D20180221000015RADIO;AM/FM CD D              M IMCTM S9CO001TNTH  07070IMCT  S9 PTB  00003                    0230 SR        000000000000 DENSO TEN (THAILAND)18098UU0003003                                                                                                                              *          20180215 IMCT                IMCT                                                                                                                    WMF1802157.TXT
MDEDJ2290528201802                D89848581800PT4D20180221000015RADIO;AM/FM CD D              M IMCTM S9CO001TNTH  07070IMCT  S9 PTB  00003                    1600 SR        000000000000 DENSO TEN (THAILAND)18061UU0009009                                                                                                                              *          20180215 IMCT                IMCT                                                                                                                    WMF1802157.TXT
MDEDJ2290529201802                D89848581800PT4D20180221000015RADIO;AM/FM CD D              M IMCTM S9CO001TNTH  07070IMCT  S9 PTB  00003                    2100 SR        000000000000 DENSO TEN (THAILAND)18063UU0009009                                                                                                                              *          20180215 IMCT                IMCT                                                                                                                    WMF1802157.TXT
MDEDJ2290530201802                D89848582500PT1D20180221000030RADIO;AM/FM CD D              M IMCTM S5NC06 TNTH  07070IMCT  S5 PTB  00003                    1300 SR        000000000000 DENSO TEN (THAILAND)18074UL0003004                                                                                                                              *          20180215 IMCT                IMCT                                                                                                                    WMF1802157.TXT
MDEUJ2264690201802                D89828070100PT4U20180220000030SPEAKER ASM                   M IMCTM S0FL05 TNTH  07070IMCT  S0 PTB  00004                    2230 SR        000000000000 DENSO TEN (THAILAND)18050ZU0006006                                                                                                                              *          20180215 IMCT                IMCT                                                                                                                    WMF1802157.TXT
MDEUJ2264691201802                D89828070100PT4U20180221000090SPEAKER ASM                   M IMCTM S0FL05 TNTH  07070IMCT  S0 PTB  00004                    0400 SR        000000000000 DENSO TEN (THAILAND)18021UU001901918025UU003603618049ZU0011011                                                                                                  *          20180215 IMCT                IMCT                                                                                                                    WMF1802157.TXT
MDEUJ2264692201802                D89828070100PT4U20180221000030SPEAKER ASM                   M IMCTM S0FL05 TNTH  07070IMCT  S0 PTB  00004                    0830 SR        000000000000 DENSO TEN (THAILAND)18021UU0020020                                                                                                                              *          20180215 IMCT                IMCT                                                                                                                    WMF1802157.TXT
MDEUJ2264693201802                D89828070100PT4U20180221000030SPEAKER ASM                   M IMCTM S0FL05 TNTH  07070IMCT  S0 PTB  00004                    1030 SR        000000000000 DENSO TEN (THAILAND)18049ZU0012012                                                                                                                              *          20180215 IMCT                IMCT                                                                                                                    WMF1802157.TXT
MDEUJ2264694201802                D89828070100PT4U20180221000060SPEAKER ASM                   M IMCTM S0FL05 TNTH  07070IMCT  S0 PTB  00004                    1300 SR        000000000000 DENSO TEN (THAILAND)18049ZU001301318050ZU0007007                                                                                                                *          20180215 IMCT                IMCT                                                                                                                    WMF1802157.TXT
MDEUJ2264695201802                D89828070100PT4U20180221000090SPEAKER ASM                   M IMCTM S0FL05 TNTH  07070IMCT  S0 PTB  00004                    1600 SR        000000000000 DENSO TEN (THAILAND)18020UU001201218049ZU0014015                                                                                                                *          20180215 IMCT                IMCT                                                                                                                    WMF1802157.TXT
MDEUJ2264696201802                D89828070100PT4U20180221000060SPEAKER ASM                   M IMCTM S0FL05 TNTH  07070IMCT  S0 PTB  00004                    2230 SR        000000000000 DENSO TEN (THAILAND)18049ZU001601618050ZU0008008                                                                                                                *          20180215 IMCT                IMCT                                                                                                                    WMF1802157.TXT
MDEUJ2264697201802                D89828070200PV4U20180220000030SPEAKER ASM                   M IMCTM S0FR05 TNTH  07070IMCT  S0 PTB  00005                    2230 SR        000000000000 DENSO TEN (THAILAND)18050ZU0006006                                                                                                                              *          20180215 IMCT                IMCT                                                                                                                    WMF1802157.TXT
MDEUJ2264698201802                D89828070200PV4U20180221000090SPEAKER ASM                   M IMCTM S0FR05 TNTH  07070IMCT  S0 PTB  00005                    0400 SR        000000000000 DENSO TEN (THAILAND)18021UU001901918025UU003603618049ZU0011011                                                                                                  *          20180215 IMCT                IMCT                                                                                                                    WMF1802157.TXT
MDEUJ2264699201802                D89828070200PV4U20180221000030SPEAKER ASM                   M IMCTM S0FR05 TNTH  07070IMCT  S0 PTB  00005                    0830 SR        000000000000 DENSO TEN (THAILAND)18021UU0020020                                                                                                                              *          20180215 IMCT                IMCT                                                                                                                    WMF1802157.TXT
MDEUJ2264700201802                D89828070200PV4U20180221000030SPEAKER ASM                   M IMCTM S0FR05 TNTH  07070IMCT  S0 PTB  00005                    1030 SR        000000000000 DENSO TEN (THAILAND)18049ZU0012012                                                                                                                              *          20180215 IMCT                IMCT                                                                                                                    WMF1802157.TXT
MDEUJ2264701201802                D89828070200PV4U20180221000060SPEAKER ASM                   M IMCTM S0FR05 TNTH  07070IMCT  S0 PTB  00005                    1300 SR        000000000000 DENSO TEN (THAILAND)18049ZU001301318050ZU0007007                                                                                                                *          20180215 IMCT                IMCT                                                                                                                    WMF1802157.TXT
MDEUJ2264702201802                D89828070200PV4U20180221000090SPEAKER ASM                   M IMCTM S0FR05 TNTH  07070IMCT  S0 PTB  00005                    1600 SR        000000000000 DENSO TEN (THAILAND)18020UU001201218049ZU0014015                                                                                                                *          20180215 IMCT                IMCT                                                                                                                    WMF1802157.TXT
MDEUJ2264703201802                D89828070200PV4U20180221000060SPEAKER ASM                   M IMCTM S0FR05 TNTH  07070IMCT  S0 PTB  00005                    2230 SR        000000000000 DENSO TEN (THAILAND)18049ZU001601618050ZU0008008                                                                                                                *          20180215 IMCT                IMCT                                                                                                                    WMF1802157.TXT
MDEUJ2264704201802                D89828070300PT4U20180220000030SPEAKER ASM                   M IMCTM S9TS02 TNTH  07070IMCT  S9 PTB  00015                    2230 SR        000000000000 DENSO TEN (THAILAND)18050ZU0006006                                                                                                                              *          20180215 IMCT                IMCT                                                                                                                    WMF1802157.TXT
MDEUJ2264705201802                D89828070300PT4U20180221000090SPEAKER ASM                   M IMCTM S9TS02 TNTH  07070IMCT  S9 PTB  00015                    0400 SR        000000000000 DENSO TEN (THAILAND)18021UU001901918025UU003603618049ZU0011011                                                                                                  *          20180215 IMCT                IMCT                                                                                                                    WMF1802157.TXT
MDEUJ2264706201802                D89828070300PT4U20180221000030SPEAKER ASM                   M IMCTM S9TS02 TNTH  07070IMCT  S9 PTB  00015                    0830 SR        000000000000 DENSO TEN (THAILAND)18021UU0020020                                                                                                                              *          20180215 IMCT                IMCT                                                                                                                    WMF1802157.TXT
MDEUJ2264707201802                D89828070300PT4U20180221000030SPEAKER ASM                   M IMCTM S9TS02 TNTH  07070IMCT  S9 PTB  00015                    1030 SR        000000000000 DENSO TEN (THAILAND)18049ZU0012012                                                                                                                              *          20180215 IMCT                IMCT                                                                                                                    WMF1802157.TXT
MDEUJ2264708201802                D89828070300PT4U20180221000060SPEAKER ASM                   M IMCTM S9TS02 TNTH  07070IMCT  S9 PTB  00015                    1300 SR        000000000000 DENSO TEN (THAILAND)18049ZU001301318050ZU0007007                                                                                                                *          20180215 IMCT                IMCT                                                                                                                    WMF1802157.TXT
MDEUJ2264709201802                D89828070300PT4U20180221000090SPEAKER ASM                   M IMCTM S9TS02 TNTH  07070IMCT  S9 PTB  00015                    1600 SR        000000000000 DENSO TEN (THAILAND)18020UU001201218049ZU0014015                                                                                                                *          20180215 IMCT                IMCT                                                                                                                    WMF1802157.TXT
MDEUJ2264710201802                D89828070300PT4U20180221000060SPEAKER ASM                   M IMCTM S9TS02 TNTH  07070IMCT  S9 PTB  00015                    2230 SR        000000000000 DENSO TEN (THAILAND)18049ZU001601618050ZU0008008                                                                                                                *          20180215 IMCT                IMCT                                                                                                                    WMF1802157.TXT
