REC2018021020180210ISUZU                              26     
MDD6J2242846201802                D89821984430PT5620180215000030RADIO;AM/FM,CD                M IMCTM G9J311 TNTH  07070G/WAY G9 PTB  00005                    1530 GW        0000000000005DENSO TEN (THAILAND)180LRBG0008008                                                                                                                              *          20180210 IMCT                IMCT                                                                                                                    WMF1802102.TXT
MDD6J2242847201802                D89828070100PV5620180214000120SPEAKER ASM                   M IMCTM G9B112 TNTH  07070G/WAY G9 PTB  00004                    2100 GW        0000000000005DENSO TEN (THAILAND)180LRLG0077077180LRNG0029029                                                                                                                *          20180210 IMCT                IMCT                                                                                                                    WMF1802102.TXT
MDD6J2242848201802                D89828070100PV5620180215000060SPEAKER ASM                   M IMCTM G9B112 TNTH  07070G/WAY G9 PTB  00004                    0200 GW        0000000000005DENSO TEN (THAILAND)180LPMG0009009                                                                                                                              *          20180210 IMCT                IMCT                                                                                                                    WMF1802102.TXT
MDD6J2242849201802                D89828070100PV5620180215000120SPEAKER ASM                   M IMCTM G9B112 TNTH  07070G/WAY G9 PTB  00004                    0330 GW        0000000000005DENSO TEN (THAILAND)180LRPG0022023                                                                                                                              *          20180210 IMCT                IMCT                                                                                                                    WMF1802102.TXT
MDD6J2242850201802                D89828070100PV5620180215000060SPEAKER ASM                   M IMCTM G9B112 TNTH  07070G/WAY G9 PTB  00004                    0900 GW        0000000000005DENSO TEN (THAILAND)180LRMG0085085                                                                                                                              *          20180210 IMCT                IMCT                                                                                                                    WMF1802102.TXT
MDD6J2242851201802                D89828070100PV5620180215000060SPEAKER ASM                   M IMCTM G9B112 TNTH  07070G/WAY G9 PTB  00004                    1100 GW        0000000000005DENSO TEN (THAILAND)180LREG0056056                                                                                                                              *          20180210 IMCT                IMCT                                                                                                                    WMF1802102.TXT
MDD6J2242852201802                D89828070100PV5620180215000060SPEAKER ASM                   M IMCTM G9B112 TNTH  07070G/WAY G9 PTB  00004                    1400 GW        0000000000005DENSO TEN (THAILAND)180LPPG0006006                                                                                                                              *          20180210 IMCT                IMCT                                                                                                                    WMF1802102.TXT
MDD6J2242853201802                D89828070100PV5620180215000180SPEAKER ASM                   M IMCTM G9B112 TNTH  07070G/WAY G9 PTB  00004                    1530 GW        0000000000005DENSO TEN (THAILAND)180LRBG0008008180LREG0057057180LRFG0045045                                                                                                  *          20180210 IMCT                IMCT                                                                                                                    WMF1802102.TXT
MDD6J2242854201802                D89828070200PV5620180214000120SPEAKER ASM                   M IMCTM G9F132 TNTH  07070G/WAY G9 PTB  00005                    2100 GW        0000000000005DENSO TEN (THAILAND)180LRLG0077077180LRNG0029029                                                                                                                *          20180210 IMCT                IMCT                                                                                                                    WMF1802102.TXT
MDD6J2242855201802                D89828070200PV5620180215000120SPEAKER ASM                   M IMCTM G9F132 TNTH  07070G/WAY G9 PTB  00005                    0330 GW        0000000000005DENSO TEN (THAILAND)180LRPG0022023                                                                                                                              *          20180210 IMCT                IMCT                                                                                                                    WMF1802102.TXT
MDD6J2242856201802                D89828070200PV5620180215000060SPEAKER ASM                   M IMCTM G9F132 TNTH  07070G/WAY G9 PTB  00005                    0900 GW        0000000000005DENSO TEN (THAILAND)180LRMG0085085                                                                                                                              *          20180210 IMCT                IMCT                                                                                                                    WMF1802102.TXT
MDD6J2242857201802                D89828070200PV5620180215000060SPEAKER ASM                   M IMCTM G9F132 TNTH  07070G/WAY G9 PTB  00005                    1100 GW        0000000000005DENSO TEN (THAILAND)180LREG0056056                                                                                                                              *          20180210 IMCT                IMCT                                                                                                                    WMF1802102.TXT
MDD6J2242858201802                D89828070200PV5620180215000120SPEAKER ASM                   M IMCTM G9F132 TNTH  07070G/WAY G9 PTB  00005                    1530 GW        0000000000005DENSO TEN (THAILAND)180LREG0057057180LRFG0045045                                                                                                                *          20180210 IMCT                IMCT                                                                                                                    WMF1802102.TXT
MDD6J2242859201802                D89828070300PT5620180214000120SPEAKER ASM                   M IMCTM G9JB34 TNTH  07070G/WAY G9 PTB  00015                    2100 GW        0000000000005DENSO TEN (THAILAND)180LRLG0077077180LRNG0029029                                                                                                                *          20180210 IMCT                IMCT                                                                                                                    WMF1802102.TXT
MDD6J2242860201802                D89828070300PT5620180215000060SPEAKER ASM                   M IMCTM G9JB34 TNTH  07070G/WAY G9 PTB  00015                    0200 GW        0000000000005DENSO TEN (THAILAND)180LPMG0009009                                                                                                                              *          20180210 IMCT                IMCT                                                                                                                    WMF1802102.TXT
MDD6J2242861201802                D89828070300PT5620180215000120SPEAKER ASM                   M IMCTM G9JB34 TNTH  07070G/WAY G9 PTB  00015                    0330 GW        0000000000005DENSO TEN (THAILAND)180LRPG0022023                                                                                                                              *          20180210 IMCT                IMCT                                                                                                                    WMF1802102.TXT
MDD6J2242862201802                D89828070300PT5620180215000060SPEAKER ASM                   M IMCTM G9JB34 TNTH  07070G/WAY G9 PTB  00015                    0900 GW        0000000000005DENSO TEN (THAILAND)180LRMG0085085                                                                                                                              *          20180210 IMCT                IMCT                                                                                                                    WMF1802102.TXT
MDD6J2242863201802                D89828070300PT5620180215000060SPEAKER ASM                   M IMCTM G9JB34 TNTH  07070G/WAY G9 PTB  00015                    1100 GW        0000000000005DENSO TEN (THAILAND)180LREG0056056                                                                                                                              *          20180210 IMCT                IMCT                                                                                                                    WMF1802102.TXT
MDD6J2242864201802                D89828070300PT5620180215000060SPEAKER ASM                   M IMCTM G9JB34 TNTH  07070G/WAY G9 PTB  00015                    1400 GW        0000000000005DENSO TEN (THAILAND)180LPPG0006006                                                                                                                              *          20180210 IMCT                IMCT                                                                                                                    WMF1802102.TXT
MDD6J2242865201802                D89828070300PT5620180215000120SPEAKER ASM                   M IMCTM G9JB34 TNTH  07070G/WAY G9 PTB  00015                    1530 GW        0000000000005DENSO TEN (THAILAND)180LREG0057057180LRFG0045045                                                                                                                *          20180210 IMCT                IMCT                                                                                                                    WMF1802102.TXT
MDD6J2242866201802                D89831228400PT5620180215000030RADIO;AM/FM,CD                M IMCTM G9J311 TNTH  07070G/WAY G9 CPB  00003                    1100 GW        0000000000005DENSO TEN (THAILAND)180LREG0056056                                                                                                                              *          20180210 IMCT                IMCT                                                                                                                    WMF1802102.TXT
MDD6J2242867201802                D89831228400PT5620180215000060RADIO;AM/FM,CD                M IMCTM G9J311 TNTH  07070G/WAY G9 CPB  00003                    1530 GW        0000000000005DENSO TEN (THAILAND)180LREG0057057180LRFG0045045                                                                                                                *          20180210 IMCT                IMCT                                                                                                                    WMF1802102.TXT
MDE6J2203011201802                D89828070100PV5620180214000060SPEAKER ASM                   M IMCTM G9B112 TNTH  07070G/WAY G9 PTB  00004                    2300 GW        0000000000005DENSO TEN (THAILAND)18079UG0001001                                                                                                                              *          20180210 IMCT                IMCT                                                                                                                    WMF1802102.TXT
MDE6J2203012201802                D89828070200PV5620180214000060SPEAKER ASM                   M IMCTM G9F132 TNTH  07070G/WAY G9 PTB  00005                    2300 GW        0000000000005DENSO TEN (THAILAND)18079UG0001001                                                                                                                              *          20180210 IMCT                IMCT                                                                                                                    WMF1802102.TXT
MDE6J2203013201802                D89828070300PT5620180214000060SPEAKER ASM                   M IMCTM G9JB34 TNTH  07070G/WAY G9 PTB  00015                    2300 GW        0000000000005DENSO TEN (THAILAND)18079UG0001001                                                                                                                              *          20180210 IMCT                IMCT                                                                                                                    WMF1802102.TXT
MDE6J2203014201802                D89848581800PT5620180214000030RADIO;AM/FM CD D              M IMCTM G9J213 TNTH  07070G/WAY G9 PTB  00003                    2300 GW        0000000000005DENSO TEN (THAILAND)18079UG0001001                                                                                                                              *          20180210 IMCT                IMCT                                                                                                                    WMF1802102.TXT
