REC2018020920180209ISUZU                              77     
MDDDJ2237753201802                D89821984430PT1D20180214000030RADIO;AM/FM,CD                M IMCTM S5NC06 TNTH  07070IMCT  S5 PTB  00005                    0400 SR        000000000000 DENSO TEN (THAILAND)180LXEL0013013                                                                                                                              *          20180209 IMCT                IMCT                                                                                                                    WMF1802096.TXT
MDDDJ2237754201802                D89821984430PT1D20180214000030RADIO;AM/FM,CD                M IMCTM S5NC06 TNTH  07070IMCT  S5 PTB  00005                    1600 SR        000000000000 DENSO TEN (THAILAND)180LPAL0080080                                                                                                                              *          20180209 IMCT                IMCT                                                                                                                    WMF1802096.TXT
MDDDJ2237755201802                D89821984430PT1D20180214000030RADIO;AM/FM,CD                M IMCTM S5NC06 TNTH  07070IMCT  S5 PTB  00005                    2230 SR        000000000000 DENSO TEN (THAILAND)180LXEL0014014                                                                                                                              *          20180209 IMCT                IMCT                                                                                                                    WMF1802096.TXT
MDDDJ2237756201802                D89828070100PV1D20180214000060SPEAKER ASM                   M IMCTM S5MB11 TNTH  07070IMCT  S5 PTB  00004                    0400 SR        000000000000 DENSO TEN (THAILAND)180LXEL0013013                                                                                                                              *          20180209 IMCT                IMCT                                                                                                                    WMF1802096.TXT
MDDDJ2237757201802                D89828070100PV1D20180214000060SPEAKER ASM                   M IMCTM S5MB11 TNTH  07070IMCT  S5 PTB  00004                    0830 SR        000000000000 DENSO TEN (THAILAND)180LPEL0010010                                                                                                                              *          20180209 IMCT                IMCT                                                                                                                    WMF1802096.TXT
MDDDJ2237758201802                D89828070100PV1D20180214000120SPEAKER ASM                   M IMCTM S5MB11 TNTH  07070IMCT  S5 PTB  00004                    1600 SR        000000000000 DENSO TEN (THAILAND)180LNAL0024024180LPAL0080080                                                                                                                *          20180209 IMCT                IMCT                                                                                                                    WMF1802096.TXT
MDDDJ2237759201802                D89828070100PV1D20180214000060SPEAKER ASM                   M IMCTM S5MB11 TNTH  07070IMCT  S5 PTB  00004                    2230 SR        000000000000 DENSO TEN (THAILAND)180LXEL0014014                                                                                                                              *          20180209 IMCT                IMCT                                                                                                                    WMF1802096.TXT
MDDDJ2237760201802                D89828070300PT1D20180214000060SPEAKER ASM                   M IMCTM S5NB082TNTH  07070IMCT  S5 PTB  00015                    0830 SR        000000000000 DENSO TEN (THAILAND)180LPEL0010010                                                                                                                              *          20180209 IMCT                IMCT                                                                                                                    WMF1802096.TXT
MDDDJ2237761201802                D89831228300PT1D20180214000030RADIO;AM/FM,CD                M IMCTM S5NC06 TNTH  07070IMCT  S5 CPB  00003                    0830 SR        000000000000 DENSO TEN (THAILAND)180LPEL0010010                                                                                                                              *          20180209 IMCT                IMCT                                                                                                                    WMF1802096.TXT
MDEDJ2246081201802                D89828070100PV1D20180213000030SPEAKER ASM                   M IMCTM S5MB11 TNTH  07070IMCT  S5 PTB  00004                    2230 SR        000000000000 DENSO TEN (THAILAND)18082UL0005005                                                                                                                              *          20180209 IMCT                IMCT                                                                                                                    WMF1802096.TXT
MDEDJ2246082201802                D89828070100PV1D20180214000060SPEAKER ASM                   M IMCTM S5MB11 TNTH  07070IMCT  S5 PTB  00004                    0230 SR        000000000000 DENSO TEN (THAILAND)17075PL0098099                                                                                                                              *          20180209 IMCT                IMCT                                                                                                                    WMF1802096.TXT
MDEDJ2246083201802                D89828070100PV1D20180214000120SPEAKER ASM                   M IMCTM S5MB11 TNTH  07070IMCT  S5 PTB  00004                    0400 SR        000000000000 DENSO TEN (THAILAND)17021QL001501518080UL0004006                                                                                                                *          20180209 IMCT                IMCT                                                                                                                    WMF1802096.TXT
MDEDJ2246084201802                D89828070100PV1D20180214000030SPEAKER ASM                   M IMCTM S5MB11 TNTH  07070IMCT  S5 PTB  00004                    0830 SR        000000000000 DENSO TEN (THAILAND)18066UL0001001                                                                                                                              *          20180209 IMCT                IMCT                                                                                                                    WMF1802096.TXT
MDEDJ2246085201802                D89828070100PV1D20180214000060SPEAKER ASM                   M IMCTM S5MB11 TNTH  07070IMCT  S5 PTB  00004                    1030 SR        000000000000 DENSO TEN (THAILAND)18065UL000100118082UL0006006                                                                                                                *          20180209 IMCT                IMCT                                                                                                                    WMF1802096.TXT
MDEDJ2246086201802                D89828070100PV1D20180214000120SPEAKER ASM                   M IMCTM S5MB11 TNTH  07070IMCT  S5 PTB  00004                    1300 SR        000000000000 DENSO TEN (THAILAND)18064UL000500618070UL000100118084UL0001001                                                                                                  *          20180209 IMCT                IMCT                                                                                                                    WMF1802096.TXT
MDEDJ2246087201802                D89828070100PV1D20180214000090SPEAKER ASM                   M IMCTM S5MB11 TNTH  07070IMCT  S5 PTB  00004                    1600 SR        000000000000 DENSO TEN (THAILAND)18001VL000200318084UL0002002                                                                                                                *          20180209 IMCT                IMCT                                                                                                                    WMF1802096.TXT
MDEDJ2246088201802                D89828070100PV1D20180214000060SPEAKER ASM                   M IMCTM S5MB11 TNTH  07070IMCT  S5 PTB  00004                    2100 SR        000000000000 DENSO TEN (THAILAND)18082UL0007008                                                                                                                              *          20180209 IMCT                IMCT                                                                                                                    WMF1802096.TXT
MDEDJ2246089201802                D89828070100PV1D20180214000030SPEAKER ASM                   M IMCTM S5MB11 TNTH  07070IMCT  S5 PTB  00004                    2230 SR        000000000000 DENSO TEN (THAILAND)18099UL0004004                                                                                                                              *          20180209 IMCT                IMCT                                                                                                                    WMF1802096.TXT
MDEDJ2246090201802                D89828070100PV4D20180214000030SPEAKER ASM                   M IMCTM S0FL05 TNTH  07070IMCT  S0 PTB  00004                    0400 SR        000000000000 DENSO TEN (THAILAND)18061UU0003003                                                                                                                              *          20180209 IMCT                IMCT                                                                                                                    WMF1802096.TXT
MDEDJ2246091201802                D89828070100PV4D20180214000030SPEAKER ASM                   M IMCTM S0FL05 TNTH  07070IMCT  S0 PTB  00004                    0830 SR        000000000000 DENSO TEN (THAILAND)18067UU0001001                                                                                                                              *          20180209 IMCT                IMCT                                                                                                                    WMF1802096.TXT
MDEDJ2246092201802                D89828070100PV4D20180214000060SPEAKER ASM                   M IMCTM S0FL05 TNTH  07070IMCT  S0 PTB  00004                    1600 SR        000000000000 DENSO TEN (THAILAND)18063UU000400418099UU0002002                                                                                                                *          20180209 IMCT                IMCT                                                                                                                    WMF1802096.TXT
MDEDJ2246093201802                D89828070100PV4D20180214000030SPEAKER ASM                   M IMCTM S0FL05 TNTH  07070IMCT  S0 PTB  00004                    2100 SR        000000000000 DENSO TEN (THAILAND)18063UU0005005                                                                                                                              *          20180209 IMCT                IMCT                                                                                                                    WMF1802096.TXT
MDEDJ2246094201802                D89828070200PV1D20180213000030SPEAKER ASM                   M IMCTM S5MA14 TNTH  07070IMCT  S5 PTB  00005                    2230 SR        000000000000 DENSO TEN (THAILAND)18082UL0005005                                                                                                                              *          20180209 IMCT                IMCT                                                                                                                    WMF1802096.TXT
MDEDJ2246095201802                D89828070200PV1D20180214000090SPEAKER ASM                   M IMCTM S5MA14 TNTH  07070IMCT  S5 PTB  00005                    0400 SR        000000000000 DENSO TEN (THAILAND)18080UL0004006                                                                                                                              *          20180209 IMCT                IMCT                                                                                                                    WMF1802096.TXT
MDEDJ2246096201802                D89828070200PV1D20180214000030SPEAKER ASM                   M IMCTM S5MA14 TNTH  07070IMCT  S5 PTB  00005                    0830 SR        000000000000 DENSO TEN (THAILAND)18066UL0001001                                                                                                                              *          20180209 IMCT                IMCT                                                                                                                    WMF1802096.TXT
MDEDJ2246097201802                D89828070200PV1D20180214000060SPEAKER ASM                   M IMCTM S5MA14 TNTH  07070IMCT  S5 PTB  00005                    1030 SR        000000000000 DENSO TEN (THAILAND)18065UL000100118082UL0006006                                                                                                                *          20180209 IMCT                IMCT                                                                                                                    WMF1802096.TXT
MDEDJ2246098201802                D89828070200PV1D20180214000030SPEAKER ASM                   M IMCTM S5MA14 TNTH  07070IMCT  S5 PTB  00005                    1300 SR        000000000000 DENSO TEN (THAILAND)18084UL0001001                                                                                                                              *          20180209 IMCT                IMCT                                                                                                                    WMF1802096.TXT
MDEDJ2246099201802                D89828070200PV1D20180214000090SPEAKER ASM                   M IMCTM S5MA14 TNTH  07070IMCT  S5 PTB  00005                    1600 SR        000000000000 DENSO TEN (THAILAND)18001VL000200318084UL0002002                                                                                                                *          20180209 IMCT                IMCT                                                                                                                    WMF1802096.TXT
MDEDJ2246100201802                D89828070200PV1D20180214000060SPEAKER ASM                   M IMCTM S5MA14 TNTH  07070IMCT  S5 PTB  00005                    2100 SR        000000000000 DENSO TEN (THAILAND)18082UL0007008                                                                                                                              *          20180209 IMCT                IMCT                                                                                                                    WMF1802096.TXT
MDEDJ2246101201802                D89828070200PV1D20180214000030SPEAKER ASM                   M IMCTM S5MA14 TNTH  07070IMCT  S5 PTB  00005                    2230 SR        000000000000 DENSO TEN (THAILAND)18099UL0004004                                                                                                                              *          20180209 IMCT                IMCT                                                                                                                    WMF1802096.TXT
MDEDJ2246102201802                D89828070200PV4D20180214000030SPEAKER ASM                   M IMCTM S0FR05 TNTH  07070IMCT  S0 PTB  00005                    0830 SR        000000000000 DENSO TEN (THAILAND)18067UU0001001                                                                                                                              *          20180209 IMCT                IMCT                                                                                                                    WMF1802096.TXT
MDEDJ2246103201802                D89828070200PV4D20180214000030SPEAKER ASM                   M IMCTM S0FR05 TNTH  07070IMCT  S0 PTB  00005                    1600 SR        000000000000 DENSO TEN (THAILAND)18099UU0002002                                                                                                                              *          20180209 IMCT                IMCT                                                                                                                    WMF1802096.TXT
MDEDJ2246104201802                D89828070300PT1D20180213000030SPEAKER ASM                   M IMCTM S5NB082TNTH  07070IMCT  S5 PTB  00015                    2230 SR        000000000000 DENSO TEN (THAILAND)18082UL0005005                                                                                                                              *          20180209 IMCT                IMCT                                                                                                                    WMF1802096.TXT
MDEDJ2246105201802                D89828070300PT1D20180214000090SPEAKER ASM                   M IMCTM S5NB082TNTH  07070IMCT  S5 PTB  00015                    0400 SR        000000000000 DENSO TEN (THAILAND)18080UL0004006                                                                                                                              *          20180209 IMCT                IMCT                                                                                                                    WMF1802096.TXT
MDEDJ2246106201802                D89828070300PT1D20180214000030SPEAKER ASM                   M IMCTM S5NB082TNTH  07070IMCT  S5 PTB  00015                    0830 SR        000000000000 DENSO TEN (THAILAND)18066UL0001001                                                                                                                              *          20180209 IMCT                IMCT                                                                                                                    WMF1802096.TXT
MDEDJ2246107201802                D89828070300PT1D20180214000060SPEAKER ASM                   M IMCTM S5NB082TNTH  07070IMCT  S5 PTB  00015                    1030 SR        000000000000 DENSO TEN (THAILAND)18065UL000100118082UL0006006                                                                                                                *          20180209 IMCT                IMCT                                                                                                                    WMF1802096.TXT
MDEDJ2246108201802                D89828070300PT1D20180214000120SPEAKER ASM                   M IMCTM S5NB082TNTH  07070IMCT  S5 PTB  00015                    1300 SR        000000000000 DENSO TEN (THAILAND)18064UL000500618070UL000100118084UL0001001                                                                                                  *          20180209 IMCT                IMCT                                                                                                                    WMF1802096.TXT
MDEDJ2246109201802                D89828070300PT1D20180214000090SPEAKER ASM                   M IMCTM S5NB082TNTH  07070IMCT  S5 PTB  00015                    1600 SR        000000000000 DENSO TEN (THAILAND)18001VL000200318084UL0002002                                                                                                                *          20180209 IMCT                IMCT                                                                                                                    WMF1802096.TXT
MDEDJ2246110201802                D89828070300PT1D20180214000060SPEAKER ASM                   M IMCTM S5NB082TNTH  07070IMCT  S5 PTB  00015                    2100 SR        000000000000 DENSO TEN (THAILAND)18082UL0007008                                                                                                                              *          20180209 IMCT                IMCT                                                                                                                    WMF1802096.TXT
MDEDJ2246111201802                D89828070300PT1D20180214000030SPEAKER ASM                   M IMCTM S5NB082TNTH  07070IMCT  S5 PTB  00015                    2230 SR        000000000000 DENSO TEN (THAILAND)18099UL0004004                                                                                                                              *          20180209 IMCT                IMCT                                                                                                                    WMF1802096.TXT
MDEDJ2246112201802                D89828070300PT4D20180214000030SPEAKER ASM                   M IMCTM S9TS02 TNTH  07070IMCT  S9 PTB  00015                    0400 SR        000000000000 DENSO TEN (THAILAND)18061UU0003003                                                                                                                              *          20180209 IMCT                IMCT                                                                                                                    WMF1802096.TXT
MDEDJ2246113201802                D89828070300PT4D20180214000030SPEAKER ASM                   M IMCTM S9TS02 TNTH  07070IMCT  S9 PTB  00015                    0830 SR        000000000000 DENSO TEN (THAILAND)18067UU0001001                                                                                                                              *          20180209 IMCT                IMCT                                                                                                                    WMF1802096.TXT
MDEDJ2246114201802                D89828070300PT4D20180214000060SPEAKER ASM                   M IMCTM S9TS02 TNTH  07070IMCT  S9 PTB  00015                    1600 SR        000000000000 DENSO TEN (THAILAND)18063UU000400418099UU0002002                                                                                                                *          20180209 IMCT                IMCT                                                                                                                    WMF1802096.TXT
MDEDJ2246115201802                D89828070300PT4D20180214000030SPEAKER ASM                   M IMCTM S9TS02 TNTH  07070IMCT  S9 PTB  00015                    2100 SR        000000000000 DENSO TEN (THAILAND)18063UU0005005                                                                                                                              *          20180209 IMCT                IMCT                                                                                                                    WMF1802096.TXT
MDEDJ2246116201802                D89831228600PT1D20180214000015RADIO;AM/FM,CD                M IMCTM S5NC06 TNTH  07070IMCT  S5 PTB  00003                    1300 SR        000000000000 DENSO TEN (THAILAND)18070UL0001001                                                                                                                              *          20180209 IMCT                IMCT                                                                                                                    WMF1802096.TXT
MDEDJ2246117201802                D89848581800PT1D20180213000015RADIO;AM/FM CD D              M IMCTM S5NC06 TNTH  07070IMCT  S5 PTB  00003                    2230 SR        000000000000 DENSO TEN (THAILAND)18082UL0005005                                                                                                                              *          20180209 IMCT                IMCT                                                                                                                    WMF1802096.TXT
MDEDJ2246118201802                D89848581800PT1D20180214000045RADIO;AM/FM CD D              M IMCTM S5NC06 TNTH  07070IMCT  S5 PTB  00003                    0400 SR        000000000000 DENSO TEN (THAILAND)18080UL0004006                                                                                                                              *          20180209 IMCT                IMCT                                                                                                                    WMF1802096.TXT
MDEDJ2246119201802                D89848581800PT1D20180214000015RADIO;AM/FM CD D              M IMCTM S5NC06 TNTH  07070IMCT  S5 PTB  00003                    0830 SR        000000000000 DENSO TEN (THAILAND)18066UL0001001                                                                                                                              *          20180209 IMCT                IMCT                                                                                                                    WMF1802096.TXT
MDEDJ2246120201802                D89848581800PT1D20180214000030RADIO;AM/FM CD D              M IMCTM S5NC06 TNTH  07070IMCT  S5 PTB  00003                    1030 SR        000000000000 DENSO TEN (THAILAND)18065UL000100118082UL0006006                                                                                                                *          20180209 IMCT                IMCT                                                                                                                    WMF1802096.TXT
MDEDJ2246121201802                D89848581800PT1D20180214000030RADIO;AM/FM CD D              M IMCTM S5NC06 TNTH  07070IMCT  S5 PTB  00003                    2100 SR        000000000000 DENSO TEN (THAILAND)18082UL0007008                                                                                                                              *          20180209 IMCT                IMCT                                                                                                                    WMF1802096.TXT
MDEDJ2246122201802                D89848581800PT4D20180214000015RADIO;AM/FM CD D              M IMCTM S9CO001TNTH  07070IMCT  S9 PTB  00003                    0400 SR        000000000000 DENSO TEN (THAILAND)18061UU0003003                                                                                                                              *          20180209 IMCT                IMCT                                                                                                                    WMF1802096.TXT
MDEDJ2246123201802                D89848581800PT4D20180214000015RADIO;AM/FM CD D              M IMCTM S9CO001TNTH  07070IMCT  S9 PTB  00003                    1600 SR        000000000000 DENSO TEN (THAILAND)18063UU0004004                                                                                                                              *          20180209 IMCT                IMCT                                                                                                                    WMF1802096.TXT
MDEDJ2246124201802                D89848581800PT4D20180214000015RADIO;AM/FM CD D              M IMCTM S9CO001TNTH  07070IMCT  S9 PTB  00003                    2100 SR        000000000000 DENSO TEN (THAILAND)18063UU0005005                                                                                                                              *          20180209 IMCT                IMCT                                                                                                                    WMF1802096.TXT
MDEDJ2246125201802                D89848582500PT1D20180214000030RADIO;AM/FM CD D              M IMCTM S5NC06 TNTH  07070IMCT  S5 PTB  00003                    1300 SR        000000000000 DENSO TEN (THAILAND)18064UL0005006                                                                                                                              *          20180209 IMCT                IMCT                                                                                                                    WMF1802096.TXT
MDEUJ2232486201802                D89828070100PT4U20180214000030SPEAKER ASM                   M IMCTM S0FL05 TNTH  07070IMCT  S0 PTB  00004                    0230 SR        000000000000 DENSO TEN (THAILAND)18019UU0001001                                                                                                                              *          20180209 IMCT                IMCT                                                                                                                    WMF1802096.TXT
MDEUJ2232487201802                D89828070100PT4U20180214000090SPEAKER ASM                   M IMCTM S0FL05 TNTH  07070IMCT  S0 PTB  00004                    0400 SR        000000000000 DENSO TEN (THAILAND)18015UU000300318019UU000200218049ZU0001001                                                                                                  *          20180209 IMCT                IMCT                                                                                                                    WMF1802096.TXT
MDEUJ2232488201802                D89828070100PT4U20180214000030SPEAKER ASM                   M IMCTM S0FL05 TNTH  07070IMCT  S0 PTB  00004                    0830 SR        000000000000 DENSO TEN (THAILAND)18018UU0001001                                                                                                                              *          20180209 IMCT                IMCT                                                                                                                    WMF1802096.TXT
MDEUJ2232489201802                D89828070100PT4U20180214000030SPEAKER ASM                   M IMCTM S0FL05 TNTH  07070IMCT  S0 PTB  00004                    1030 SR        000000000000 DENSO TEN (THAILAND)18016UU0004004                                                                                                                              *          20180209 IMCT                IMCT                                                                                                                    WMF1802096.TXT
MDEUJ2232490201802                D89828070100PT4U20180214000060SPEAKER ASM                   M IMCTM S0FL05 TNTH  07070IMCT  S0 PTB  00004                    1300 SR        000000000000 DENSO TEN (THAILAND)18021UU000700718043YU0001001                                                                                                                *          20180209 IMCT                IMCT                                                                                                                    WMF1802096.TXT
MDEUJ2232491201802                D89828070100PT4U20180214000090SPEAKER ASM                   M IMCTM S0FL05 TNTH  07070IMCT  S0 PTB  00004                    1600 SR        000000000000 DENSO TEN (THAILAND)18020UU000500618021UU0008008                                                                                                                *          20180209 IMCT                IMCT                                                                                                                    WMF1802096.TXT
MDEUJ2232492201802                D89828070100PT4U20180214000060SPEAKER ASM                   M IMCTM S0FL05 TNTH  07070IMCT  S0 PTB  00004                    2230 SR        000000000000 DENSO TEN (THAILAND)18021UU000900918025UU0032032                                                                                                                *          20180209 IMCT                IMCT                                                                                                                    WMF1802096.TXT
MDEUJ2232493201802                D89828070200PV4U20180214000030SPEAKER ASM                   M IMCTM S0FR05 TNTH  07070IMCT  S0 PTB  00005                    0230 SR        000000000000 DENSO TEN (THAILAND)18019UU0001001                                                                                                                              *          20180209 IMCT                IMCT                                                                                                                    WMF1802096.TXT
MDEUJ2232494201802                D89828070200PV4U20180214000090SPEAKER ASM                   M IMCTM S0FR05 TNTH  07070IMCT  S0 PTB  00005                    0400 SR        000000000000 DENSO TEN (THAILAND)18015UU000300318019UU000200218049ZU0001001                                                                                                  *          20180209 IMCT                IMCT                                                                                                                    WMF1802096.TXT
MDEUJ2232495201802                D89828070200PV4U20180214000030SPEAKER ASM                   M IMCTM S0FR05 TNTH  07070IMCT  S0 PTB  00005                    0830 SR        000000000000 DENSO TEN (THAILAND)18018UU0001001                                                                                                                              *          20180209 IMCT                IMCT                                                                                                                    WMF1802096.TXT
MDEUJ2232496201802                D89828070200PV4U20180214000030SPEAKER ASM                   M IMCTM S0FR05 TNTH  07070IMCT  S0 PTB  00005                    1030 SR        000000000000 DENSO TEN (THAILAND)18016UU0004004                                                                                                                              *          20180209 IMCT                IMCT                                                                                                                    WMF1802096.TXT
MDEUJ2232497201802                D89828070200PV4U20180214000060SPEAKER ASM                   M IMCTM S0FR05 TNTH  07070IMCT  S0 PTB  00005                    1300 SR        000000000000 DENSO TEN (THAILAND)18021UU000700718043YU0001001                                                                                                                *          20180209 IMCT                IMCT                                                                                                                    WMF1802096.TXT
MDEUJ2232498201802                D89828070200PV4U20180214000090SPEAKER ASM                   M IMCTM S0FR05 TNTH  07070IMCT  S0 PTB  00005                    1600 SR        000000000000 DENSO TEN (THAILAND)18020UU000500618021UU0008008                                                                                                                *          20180209 IMCT                IMCT                                                                                                                    WMF1802096.TXT
MDEUJ2232499201802                D89828070200PV4U20180214000060SPEAKER ASM                   M IMCTM S0FR05 TNTH  07070IMCT  S0 PTB  00005                    2230 SR        000000000000 DENSO TEN (THAILAND)18021UU000900918025UU0032032                                                                                                                *          20180209 IMCT                IMCT                                                                                                                    WMF1802096.TXT
MDEUJ2232500201802                D89828070300PT4U20180214000030SPEAKER ASM                   M IMCTM S9TS02 TNTH  07070IMCT  S9 PTB  00015                    0230 SR        000000000000 DENSO TEN (THAILAND)18019UU0001001                                                                                                                              *          20180209 IMCT                IMCT                                                                                                                    WMF1802096.TXT
MDEUJ2232501201802                D89828070300PT4U20180214000090SPEAKER ASM                   M IMCTM S9TS02 TNTH  07070IMCT  S9 PTB  00015                    0400 SR        000000000000 DENSO TEN (THAILAND)18015UU000300318019UU000200218049ZU0001001                                                                                                  *          20180209 IMCT                IMCT                                                                                                                    WMF1802096.TXT
MDEUJ2232502201802                D89828070300PT4U20180214000030SPEAKER ASM                   M IMCTM S9TS02 TNTH  07070IMCT  S9 PTB  00015                    0830 SR        000000000000 DENSO TEN (THAILAND)18018UU0001001                                                                                                                              *          20180209 IMCT                IMCT                                                                                                                    WMF1802096.TXT
MDEUJ2232503201802                D89828070300PT4U20180214000030SPEAKER ASM                   M IMCTM S9TS02 TNTH  07070IMCT  S9 PTB  00015                    1030 SR        000000000000 DENSO TEN (THAILAND)18016UU0004004                                                                                                                              *          20180209 IMCT                IMCT                                                                                                                    WMF1802096.TXT
MDEUJ2232504201802                D89828070300PT4U20180214000060SPEAKER ASM                   M IMCTM S9TS02 TNTH  07070IMCT  S9 PTB  00015                    1300 SR        000000000000 DENSO TEN (THAILAND)18021UU000700718043YU0001001                                                                                                                *          20180209 IMCT                IMCT                                                                                                                    WMF1802096.TXT
MDEUJ2232505201802                D89828070300PT4U20180214000090SPEAKER ASM                   M IMCTM S9TS02 TNTH  07070IMCT  S9 PTB  00015                    1600 SR        000000000000 DENSO TEN (THAILAND)18020UU000500618021UU0008008                                                                                                                *          20180209 IMCT                IMCT                                                                                                                    WMF1802096.TXT
MDEUJ2232506201802                D89828070300PT4U20180214000060SPEAKER ASM                   M IMCTM S9TS02 TNTH  07070IMCT  S9 PTB  00015                    2230 SR        000000000000 DENSO TEN (THAILAND)18021UU000900918025UU0032032                                                                                                                *          20180209 IMCT                IMCT                                                                                                                    WMF1802096.TXT
MDEUJ2232507201802                D89848584700PT4U20180214000015RADIO;AM/FM CD D              M IMCTM S9CO001TNTH  07070IMCT  S9 PTB  00003                    0230 SR        000000000000 DENSO TEN (THAILAND)18019UU0001001                                                                                                                              *          20180209 IMCT                IMCT                                                                                                                    WMF1802096.TXT
MDEUJ2232508201802                D89848584700PT4U20180214000015RADIO;AM/FM CD D              M IMCTM S9CO001TNTH  07070IMCT  S9 PTB  00003                    0400 SR        000000000000 DENSO TEN (THAILAND)18019UU0002002                                                                                                                              *          20180209 IMCT                IMCT                                                                                                                    WMF1802096.TXT
