REC2018021420180214ISUZU                              4      
MAEUJ2601194201806                 89828070100PT4U20180402000012SPEAKER ASM                   M IMCTM ST00000TNTH  07070IMCT  ST PTB  00004  DC                0000 SR        000000000000 DENSO TEN (THAILAND)190C74U0001001190C75U0001002190C76U0001001190C86U0001001190C87U0001001                                                                      *P         20180214 IMCT                IMCT                                                                                                                    WMF180214C.TXT
MAEUJ2601195201806                 89828070200PV4U20180402000012SPEAKER ASM                   M IMCTM ST00000TNTH  07070IMCT  ST PTB  00005  DC                0000 SR        000000000000 DENSO TEN (THAILAND)190C74U0001001190C75U0001002190C76U0001001190C86U0001001190C87U0001001                                                                      *P         20180214 IMCT                IMCT                                                                                                                    WMF180214C.TXT
MAEUJ2601196201806                 89828070300PT4U20180402000012SPEAKER ASM                   M IMCTM ST00000TNTH  07070IMCT  ST PTB  00015  DC                0000 SR        000000000000 DENSO TEN (THAILAND)190C74U0001001190C75U0001002190C76U0001001190C86U0001001190C87U0001001                                                                      *P         20180214 IMCT                IMCT                                                                                                                    WMF180214C.TXT
MAEUJ2601197201806                 89848584300PT4U20180402000001RADIO;AM/FM CD D              M IMCTM ST00000TNTH  07070IMCT  ST*X    00030  DC                0000 SR        000000000000 DENSO TEN (THAILAND)190C86U0001001                                                                                                                              *P         20180214 IMCT                IMCT                                                                                                                    WMF180214C.TXT
