REC2018013120180131ISUZU                              65     
MDDDJ1289918201802                D89821984430PT1D20180205000030RADIO;AM/FM,CD                M IMCTM S5NC06 TNTH  07070IMCT  S5 PTB  00005                    0830 SR        000000000000 DENSO TEN (THAILAND)180LXEL0008008                                                                                                                              *          20180131 IMCT                IMCT                                                                                                                    WMF1801315.TXT
MDDDJ1289919201802                D89821984430PT1D20180205000060RADIO;AM/FM,CD                M IMCTM S5NC06 TNTH  07070IMCT  S5 PTB  00005                    1300 SR        000000000000 DENSO TEN (THAILAND)180LNGL0085085180LRAL0120120                                                                                                                *          20180131 IMCT                IMCT                                                                                                                    WMF1801315.TXT
MDDDJ1289920201802                D89821984430PT1D20180205000030RADIO;AM/FM,CD                M IMCTM S5NC06 TNTH  07070IMCT  S5 PTB  00005                    1600 SR        000000000000 DENSO TEN (THAILAND)180LPAL0073073                                                                                                                              *          20180131 IMCT                IMCT                                                                                                                    WMF1801315.TXT
MDDDJ1289921201802                D89828070100PV1D20180203000120SPEAKER ASM                   M IMCTM S5MB11 TNTH  07070IMCT  S5 PTB  00004                    2230 SR        000000000000 DENSO TEN (THAILAND)180LPGL0146147                                                                                                                              *          20180131 IMCT                IMCT                                                                                                                    WMF1801315.TXT
MDDDJ1289922201802                D89828070100PV1D20180204000120SPEAKER ASM                   M IMCTM S5MB11 TNTH  07070IMCT  S5 PTB  00004                    0400 SR        000000000000 DENSO TEN (THAILAND)180LPKL0041042                                                                                                                              *          20180131 IMCT                IMCT                                                                                                                    WMF1801315.TXT
MDDDJ1289923201802                D89828070100PV1D20180205000060SPEAKER ASM                   M IMCTM S5MB11 TNTH  07070IMCT  S5 PTB  00004                    0830 SR        000000000000 DENSO TEN (THAILAND)180LXEL0008008                                                                                                                              *          20180131 IMCT                IMCT                                                                                                                    WMF1801315.TXT
MDDDJ1289924201802                D89828070100PV1D20180205000060SPEAKER ASM                   M IMCTM S5MB11 TNTH  07070IMCT  S5 PTB  00004                    1030 SR        000000000000 DENSO TEN (THAILAND)180LPCL0029029                                                                                                                              *          20180131 IMCT                IMCT                                                                                                                    WMF1801315.TXT
MDDDJ1289925201802                D89828070100PV1D20180205000120SPEAKER ASM                   M IMCTM S5MB11 TNTH  07070IMCT  S5 PTB  00004                    1300 SR        000000000000 DENSO TEN (THAILAND)180LNGL0085085180LRAL0120120                                                                                                                *          20180131 IMCT                IMCT                                                                                                                    WMF1801315.TXT
MDDDJ1289926201802                D89828070100PV1D20180205000060SPEAKER ASM                   M IMCTM S5MB11 TNTH  07070IMCT  S5 PTB  00004                    1600 SR        000000000000 DENSO TEN (THAILAND)180LPAL0073073                                                                                                                              *          20180131 IMCT                IMCT                                                                                                                    WMF1801315.TXT
MDDDJ1289927201802                D89828070100PV1D20180205000060SPEAKER ASM                   M IMCTM S5MB11 TNTH  07070IMCT  S5 PTB  00004                    2100 SR        000000000000 DENSO TEN (THAILAND)180LNAL0023023                                                                                                                              *          20180131 IMCT                IMCT                                                                                                                    WMF1801315.TXT
MDDDJ1289928201802                D89828070300PT1D20180203000120SPEAKER ASM                   M IMCTM S5NB082TNTH  07070IMCT  S5 PTB  00015                    2230 SR        000000000000 DENSO TEN (THAILAND)180LPGL0146147                                                                                                                              *          20180131 IMCT                IMCT                                                                                                                    WMF1801315.TXT
MDDDJ1289929201802                D89828070300PT1D20180204000120SPEAKER ASM                   M IMCTM S5NB082TNTH  07070IMCT  S5 PTB  00015                    0400 SR        000000000000 DENSO TEN (THAILAND)180LPKL0041042                                                                                                                              *          20180131 IMCT                IMCT                                                                                                                    WMF1801315.TXT
MDDDJ1289930201802                D89828070300PT1D20180205000060SPEAKER ASM                   M IMCTM S5NB082TNTH  07070IMCT  S5 PTB  00015                    1030 SR        000000000000 DENSO TEN (THAILAND)180LPCL0029029                                                                                                                              *          20180131 IMCT                IMCT                                                                                                                    WMF1801315.TXT
MDDDJ1289931201802                D89831228300PT1D20180203000060RADIO;AM/FM,CD                M IMCTM S5NC06 TNTH  07070IMCT  S5 CPB  00003                    2230 SR        000000000000 DENSO TEN (THAILAND)180LPGL0146147                                                                                                                              *          20180131 IMCT                IMCT                                                                                                                    WMF1801315.TXT
MDDDJ1289932201802                D89831228300PT1D20180205000030RADIO;AM/FM,CD                M IMCTM S5NC06 TNTH  07070IMCT  S5 CPB  00003                    1030 SR        000000000000 DENSO TEN (THAILAND)180LPCL0029029                                                                                                                              *          20180131 IMCT                IMCT                                                                                                                    WMF1801315.TXT
MDDDJ1289933201802                D89848581600PT1D20180204000060RADIO;AM/FM CD D              M IMCTM S5NC06 TNTH  07070IMCT  S5 PTB  00003                    0400 SR        000000000000 DENSO TEN (THAILAND)180LPKL0041042                                                                                                                              *          20180131 IMCT                IMCT                                                                                                                    WMF1801315.TXT
MDDUJ1268921201802                D89828070100PT4U20180204000030SPEAKER ASM                   M IMCTM S0FL05 TNTH  07070IMCT  S0 PTB  00004                    0230 SR        000000000000 DENSO TEN (THAILAND)180LUPU0005005                                                                                                                              *          20180131 IMCT                IMCT                                                                                                                    WMF1801315.TXT
MDDUJ1268922201802                D89828070100PT4U20180204000030SPEAKER ASM                   M IMCTM S0FL05 TNTH  07070IMCT  S0 PTB  00004                    0400 SR        000000000000 DENSO TEN (THAILAND)180LUSU0023023                                                                                                                              *          20180131 IMCT                IMCT                                                                                                                    WMF1801315.TXT
MDDUJ1268923201802                D89828070100PT4U20180205000030SPEAKER ASM                   M IMCTM S0FL05 TNTH  07070IMCT  S0 PTB  00004                    0830 SR        000000000000 DENSO TEN (THAILAND)180LUNU0004004                                                                                                                              *          20180131 IMCT                IMCT                                                                                                                    WMF1801315.TXT
MDDUJ1268924201802                D89828070100PT4U20180205000030SPEAKER ASM                   M IMCTM S0FL05 TNTH  07070IMCT  S0 PTB  00004                    1030 SR        000000000000 DENSO TEN (THAILAND)180LUQU0014014                                                                                                                              *          20180131 IMCT                IMCT                                                                                                                    WMF1801315.TXT
MDDUJ1268925201802                D89828070100PT4U20180205000030SPEAKER ASM                   M IMCTM S0FL05 TNTH  07070IMCT  S0 PTB  00004                    1300 SR        000000000000 DENSO TEN (THAILAND)180LUQU0015015                                                                                                                              *          20180131 IMCT                IMCT                                                                                                                    WMF1801315.TXT
MDDUJ1268926201802                D89828070100PT4U20180205000030SPEAKER ASM                   M IMCTM S0FL05 TNTH  07070IMCT  S0 PTB  00004                    1600 SR        000000000000 DENSO TEN (THAILAND)180LUSU0024024                                                                                                                              *          20180131 IMCT                IMCT                                                                                                                    WMF1801315.TXT
MDDUJ1268927201802                D89828070100PT4U20180205000030SPEAKER ASM                   M IMCTM S0FL05 TNTH  07070IMCT  S0 PTB  00004                    2230 SR        000000000000 DENSO TEN (THAILAND)180LUQU0016016                                                                                                                              *          20180131 IMCT                IMCT                                                                                                                    WMF1801315.TXT
MDDUJ1268928201802                D89828070200PV4U20180204000030SPEAKER ASM                   M IMCTM S0FR05 TNTH  07070IMCT  S0 PTB  00005                    0230 SR        000000000000 DENSO TEN (THAILAND)180LUPU0005005                                                                                                                              *          20180131 IMCT                IMCT                                                                                                                    WMF1801315.TXT
MDDUJ1268929201802                D89828070200PV4U20180204000030SPEAKER ASM                   M IMCTM S0FR05 TNTH  07070IMCT  S0 PTB  00005                    0400 SR        000000000000 DENSO TEN (THAILAND)180LUSU0023023                                                                                                                              *          20180131 IMCT                IMCT                                                                                                                    WMF1801315.TXT
MDDUJ1268930201802                D89828070200PV4U20180205000030SPEAKER ASM                   M IMCTM S0FR05 TNTH  07070IMCT  S0 PTB  00005                    0830 SR        000000000000 DENSO TEN (THAILAND)180LUNU0004004                                                                                                                              *          20180131 IMCT                IMCT                                                                                                                    WMF1801315.TXT
MDDUJ1268931201802                D89828070200PV4U20180205000030SPEAKER ASM                   M IMCTM S0FR05 TNTH  07070IMCT  S0 PTB  00005                    1030 SR        000000000000 DENSO TEN (THAILAND)180LUQU0014014                                                                                                                              *          20180131 IMCT                IMCT                                                                                                                    WMF1801315.TXT
MDDUJ1268932201802                D89828070200PV4U20180205000030SPEAKER ASM                   M IMCTM S0FR05 TNTH  07070IMCT  S0 PTB  00005                    1300 SR        000000000000 DENSO TEN (THAILAND)180LUQU0015015                                                                                                                              *          20180131 IMCT                IMCT                                                                                                                    WMF1801315.TXT
MDDUJ1268933201802                D89828070200PV4U20180205000030SPEAKER ASM                   M IMCTM S0FR05 TNTH  07070IMCT  S0 PTB  00005                    1600 SR        000000000000 DENSO TEN (THAILAND)180LUSU0024024                                                                                                                              *          20180131 IMCT                IMCT                                                                                                                    WMF1801315.TXT
MDDUJ1268934201802                D89828070200PV4U20180205000030SPEAKER ASM                   M IMCTM S0FR05 TNTH  07070IMCT  S0 PTB  00005                    2230 SR        000000000000 DENSO TEN (THAILAND)180LUQU0016016                                                                                                                              *          20180131 IMCT                IMCT                                                                                                                    WMF1801315.TXT
MDDUJ1268935201802                D89828070300PT4U20180204000030SPEAKER ASM                   M IMCTM S9TS02 TNTH  07070IMCT  S9 PTB  00015                    0230 SR        000000000000 DENSO TEN (THAILAND)180LUPU0005005                                                                                                                              *          20180131 IMCT                IMCT                                                                                                                    WMF1801315.TXT
MDDUJ1268936201802                D89828070300PT4U20180204000030SPEAKER ASM                   M IMCTM S9TS02 TNTH  07070IMCT  S9 PTB  00015                    0400 SR        000000000000 DENSO TEN (THAILAND)180LUSU0023023                                                                                                                              *          20180131 IMCT                IMCT                                                                                                                    WMF1801315.TXT
MDDUJ1268937201802                D89828070300PT4U20180205000030SPEAKER ASM                   M IMCTM S9TS02 TNTH  07070IMCT  S9 PTB  00015                    0830 SR        000000000000 DENSO TEN (THAILAND)180LUNU0004004                                                                                                                              *          20180131 IMCT                IMCT                                                                                                                    WMF1801315.TXT
MDDUJ1268938201802                D89828070300PT4U20180205000030SPEAKER ASM                   M IMCTM S9TS02 TNTH  07070IMCT  S9 PTB  00015                    1030 SR        000000000000 DENSO TEN (THAILAND)180LUQU0014014                                                                                                                              *          20180131 IMCT                IMCT                                                                                                                    WMF1801315.TXT
MDDUJ1268939201802                D89828070300PT4U20180205000030SPEAKER ASM                   M IMCTM S9TS02 TNTH  07070IMCT  S9 PTB  00015                    1300 SR        000000000000 DENSO TEN (THAILAND)180LUQU0015015                                                                                                                              *          20180131 IMCT                IMCT                                                                                                                    WMF1801315.TXT
MDDUJ1268940201802                D89828070300PT4U20180205000030SPEAKER ASM                   M IMCTM S9TS02 TNTH  07070IMCT  S9 PTB  00015                    1600 SR        000000000000 DENSO TEN (THAILAND)180LUSU0024024                                                                                                                              *          20180131 IMCT                IMCT                                                                                                                    WMF1801315.TXT
MDDUJ1268941201802                D89828070300PT4U20180205000030SPEAKER ASM                   M IMCTM S9TS02 TNTH  07070IMCT  S9 PTB  00015                    2230 SR        000000000000 DENSO TEN (THAILAND)180LUQU0016016                                                                                                                              *          20180131 IMCT                IMCT                                                                                                                    WMF1801315.TXT
MDDUJ1268942201802                D89831228400PT4U20180204000015RADIO;AM/FM,CD                M IMCTM S9CO001TNTH  07070IMCT  S9 CPB  00003                    0230 SR        000000000000 DENSO TEN (THAILAND)180LUPU0005005                                                                                                                              *          20180131 IMCT                IMCT                                                                                                                    WMF1801315.TXT
MDDUJ1268943201802                D89848584200PT4U20180205000015RADIO;AM/FM CD D              M IMCTM S9CO001TNTH  07070IMCT  S9 PTB  00003                    0830 SR        000000000000 DENSO TEN (THAILAND)180LUNU0004004                                                                                                                              *          20180131 IMCT                IMCT                                                                                                                    WMF1801315.TXT
MDDUJ1268944201802                D89848584200PT4U20180205000015RADIO;AM/FM CD D              M IMCTM S9CO001TNTH  07070IMCT  S9 PTB  00003                    1030 SR        000000000000 DENSO TEN (THAILAND)180LUQU0014014                                                                                                                              *          20180131 IMCT                IMCT                                                                                                                    WMF1801315.TXT
MDDUJ1268945201802                D89848584200PT4U20180205000015RADIO;AM/FM CD D              M IMCTM S9CO001TNTH  07070IMCT  S9 PTB  00003                    1300 SR        000000000000 DENSO TEN (THAILAND)180LUQU0015015                                                                                                                              *          20180131 IMCT                IMCT                                                                                                                    WMF1801315.TXT
MDDUJ1268946201802                D89848584200PT4U20180205000015RADIO;AM/FM CD D              M IMCTM S9CO001TNTH  07070IMCT  S9 PTB  00003                    2230 SR        000000000000 DENSO TEN (THAILAND)180LUQU0016016                                                                                                                              *          20180131 IMCT                IMCT                                                                                                                    WMF1801315.TXT
MDEDJ1339299201802                D89828070100PV1D20180204000060SPEAKER ASM                   M IMCTM S5MB11 TNTH  07070IMCT  S5 PTB  00004                    0230 SR        000000000000 DENSO TEN (THAILAND)17032QL0009010                                                                                                                              *          20180131 IMCT                IMCT                                                                                                                    WMF1801315.TXT
MDEDJ1339300201802                D89828070100PV1D20180205000060SPEAKER ASM                   M IMCTM S5MB11 TNTH  07070IMCT  S5 PTB  00004                    1600 SR        000000000000 DENSO TEN (THAILAND)17028QL000300318055WL0001001                                                                                                                *          20180131 IMCT                IMCT                                                                                                                    WMF1801315.TXT
MDEDJ1339301201802                D89828070100PV4D20180204000030SPEAKER ASM                   M IMCTM S0FL05 TNTH  07070IMCT  S0 PTB  00004                    0230 SR        000000000000 DENSO TEN (THAILAND)18007ZU0021021                                                                                                                              *          20180131 IMCT                IMCT                                                                                                                    WMF1801315.TXT
MDEDJ1339302201802                D89828070100PV4D20180205000030SPEAKER ASM                   M IMCTM S0FL05 TNTH  07070IMCT  S0 PTB  00004                    1300 SR        000000000000 DENSO TEN (THAILAND)17033QU0003003                                                                                                                              *          20180131 IMCT                IMCT                                                                                                                    WMF1801315.TXT
MDEDJ1339303201802                D89828070100PV4D20180205000030SPEAKER ASM                   M IMCTM S0FL05 TNTH  07070IMCT  S0 PTB  00004                    2100 SR        000000000000 DENSO TEN (THAILAND)18007ZU0022022                                                                                                                              *          20180131 IMCT                IMCT                                                                                                                    WMF1801315.TXT
MDEDJ1339304201802                D89828070200PV1D20180204000060SPEAKER ASM                   M IMCTM S5MA14 TNTH  07070IMCT  S5 PTB  00005                    0230 SR        000000000000 DENSO TEN (THAILAND)17032QL0009010                                                                                                                              *          20180131 IMCT                IMCT                                                                                                                    WMF1801315.TXT
MDEDJ1339305201802                D89828070200PV1D20180205000030SPEAKER ASM                   M IMCTM S5MA14 TNTH  07070IMCT  S5 PTB  00005                    1600 SR        000000000000 DENSO TEN (THAILAND)17028QL0003003                                                                                                                              *          20180131 IMCT                IMCT                                                                                                                    WMF1801315.TXT
MDEDJ1339306201802                D89828070200PV4D20180205000030SPEAKER ASM                   M IMCTM S0FR05 TNTH  07070IMCT  S0 PTB  00005                    1300 SR        000000000000 DENSO TEN (THAILAND)17033QU0003003                                                                                                                              *          20180131 IMCT                IMCT                                                                                                                    WMF1801315.TXT
MDEDJ1339307201802                D89828070300PT1D20180204000060SPEAKER ASM                   M IMCTM S5NB082TNTH  07070IMCT  S5 PTB  00015                    0230 SR        000000000000 DENSO TEN (THAILAND)17032QL0009010                                                                                                                              *          20180131 IMCT                IMCT                                                                                                                    WMF1801315.TXT
MDEDJ1339308201802                D89828070300PT1D20180205000060SPEAKER ASM                   M IMCTM S5NB082TNTH  07070IMCT  S5 PTB  00015                    1600 SR        000000000000 DENSO TEN (THAILAND)17028QL000300318055WL0001001                                                                                                                *          20180131 IMCT                IMCT                                                                                                                    WMF1801315.TXT
MDEDJ1339309201802                D89828070300PT4D20180205000030SPEAKER ASM                   M IMCTM S9TS02 TNTH  07070IMCT  S9 PTB  00015                    1300 SR        000000000000 DENSO TEN (THAILAND)17033QU0003003                                                                                                                              *          20180131 IMCT                IMCT                                                                                                                    WMF1801315.TXT
MDEDJ1339310201802                D89831229200PT1D20180204000030RADIO;AM/FM,CD                M IMCTM S5NC06 TNTH  07070IMCT  S5 PTB  00003                    0230 SR        000000000000 DENSO TEN (THAILAND)17032QL0009010                                                                                                                              *          20180131 IMCT                IMCT                                                                                                                    WMF1801315.TXT
MDEDJ1339311201802                D89831229200PT1D20180205000015RADIO;AM/FM,CD                M IMCTM S5NC06 TNTH  07070IMCT  S5 PTB  00003                    1600 SR        000000000000 DENSO TEN (THAILAND)17028QL0003003                                                                                                                              *          20180131 IMCT                IMCT                                                                                                                    WMF1801315.TXT
MDEDJ1339312201802                D89831229200PT4D20180205000015RADIO;AM/FM,CD                M IMCTM S9CO001TNTH  07070IMCT  S9 PTB  00003                    1300 SR        000000000000 DENSO TEN (THAILAND)17033QU0003003                                                                                                                              *          20180131 IMCT                IMCT                                                                                                                    WMF1801315.TXT
MDEUJ1294806201802                D89828070100PT4U20180203000030SPEAKER ASM                   M IMCTM S0FL05 TNTH  07070IMCT  S0 PTB  00004                    2230 SR        000000000000 DENSO TEN (THAILAND)18026UU0159159                                                                                                                              *          20180131 IMCT                IMCT                                                                                                                    WMF1801315.TXT
MDEUJ1294807201802                D89828070100PT4U20180205000030SPEAKER ASM                   M IMCTM S0FL05 TNTH  07070IMCT  S0 PTB  00004                    1030 SR        000000000000 DENSO TEN (THAILAND)18026UU0160160                                                                                                                              *          20180131 IMCT                IMCT                                                                                                                    WMF1801315.TXT
MDEUJ1294808201802                D89828070100PT4U20180205000030SPEAKER ASM                   M IMCTM S0FL05 TNTH  07070IMCT  S0 PTB  00004                    2100 SR        000000000000 DENSO TEN (THAILAND)18026UU0161161                                                                                                                              *          20180131 IMCT                IMCT                                                                                                                    WMF1801315.TXT
MDEUJ1294809201802                D89828070200PV4U20180203000030SPEAKER ASM                   M IMCTM S0FR05 TNTH  07070IMCT  S0 PTB  00005                    2230 SR        000000000000 DENSO TEN (THAILAND)18026UU0159159                                                                                                                              *          20180131 IMCT                IMCT                                                                                                                    WMF1801315.TXT
MDEUJ1294810201802                D89828070200PV4U20180205000030SPEAKER ASM                   M IMCTM S0FR05 TNTH  07070IMCT  S0 PTB  00005                    1030 SR        000000000000 DENSO TEN (THAILAND)18026UU0160160                                                                                                                              *          20180131 IMCT                IMCT                                                                                                                    WMF1801315.TXT
MDEUJ1294811201802                D89828070200PV4U20180205000030SPEAKER ASM                   M IMCTM S0FR05 TNTH  07070IMCT  S0 PTB  00005                    2100 SR        000000000000 DENSO TEN (THAILAND)18026UU0161161                                                                                                                              *          20180131 IMCT                IMCT                                                                                                                    WMF1801315.TXT
MDEUJ1294812201802                D89828070300PT4U20180203000030SPEAKER ASM                   M IMCTM S9TS02 TNTH  07070IMCT  S9 PTB  00015                    2230 SR        000000000000 DENSO TEN (THAILAND)18026UU0159159                                                                                                                              *          20180131 IMCT                IMCT                                                                                                                    WMF1801315.TXT
MDEUJ1294813201802                D89828070300PT4U20180205000030SPEAKER ASM                   M IMCTM S9TS02 TNTH  07070IMCT  S9 PTB  00015                    1030 SR        000000000000 DENSO TEN (THAILAND)18026UU0160160                                                                                                                              *          20180131 IMCT                IMCT                                                                                                                    WMF1801315.TXT
MDEUJ1294814201802                D89828070300PT4U20180205000030SPEAKER ASM                   M IMCTM S9TS02 TNTH  07070IMCT  S9 PTB  00015                    2100 SR        000000000000 DENSO TEN (THAILAND)18026UU0161161                                                                                                                              *          20180131 IMCT                IMCT                                                                                                                    WMF1801315.TXT
