REC2018021320180213ISUZU                              65     
MDDDJ2246518201802                D89821984430PT1D20180216000030RADIO;AM/FM,CD                M IMCTM S5NC06 TNTH  07070IMCT  S5 PTB  00005                    2230 SR        000000000000 DENSO TEN (THAILAND)180LNGL0089089                                                                                                                              *          20180213 IMCT                IMCT                                                                                                                    WMF1802133.TXT
MDDDJ2246519201802                D89821984430PT1D20180217000030RADIO;AM/FM,CD                M IMCTM S5NC06 TNTH  07070IMCT  S5 PTB  00005                    0230 SR        000000000000 DENSO TEN (THAILAND)180LPAL0082082                                                                                                                              *          20180213 IMCT                IMCT                                                                                                                    WMF1802133.TXT
MDDDJ2246520201802                D89821984430PT1D20180219000030RADIO;AM/FM,CD                M IMCTM S5NC06 TNTH  07070IMCT  S5 PTB  00005                    0830 SR        000000000000 DENSO TEN (THAILAND)180LPBL0007007                                                                                                                              *          20180213 IMCT                IMCT                                                                                                                    WMF1802133.TXT
MDDDJ2246521201802                D89821984430PT1D20180219000030RADIO;AM/FM,CD                M IMCTM S5NC06 TNTH  07070IMCT  S5 PTB  00005                    2100 SR        000000000000 DENSO TEN (THAILAND)180LNEL0056056                                                                                                                              *          20180213 IMCT                IMCT                                                                                                                    WMF1802133.TXT
MDDDJ2246522201802                D89828070100PV1D20180216000060SPEAKER ASM                   M IMCTM S5MB11 TNTH  07070IMCT  S5 PTB  00004                    2230 SR        000000000000 DENSO TEN (THAILAND)180LNGL0089089                                                                                                                              *          20180213 IMCT                IMCT                                                                                                                    WMF1802133.TXT
MDDDJ2246523201802                D89828070100PV1D20180217000060SPEAKER ASM                   M IMCTM S5MB11 TNTH  07070IMCT  S5 PTB  00004                    0230 SR        000000000000 DENSO TEN (THAILAND)180LPAL0082082                                                                                                                              *          20180213 IMCT                IMCT                                                                                                                    WMF1802133.TXT
MDDDJ2246524201802                D89828070100PV1D20180219000060SPEAKER ASM                   M IMCTM S5MB11 TNTH  07070IMCT  S5 PTB  00004                    0830 SR        000000000000 DENSO TEN (THAILAND)180LPBL0007007                                                                                                                              *          20180213 IMCT                IMCT                                                                                                                    WMF1802133.TXT
MDDDJ2246525201802                D89828070100PV1D20180219000060SPEAKER ASM                   M IMCTM S5MB11 TNTH  07070IMCT  S5 PTB  00004                    2100 SR        000000000000 DENSO TEN (THAILAND)180LNEL0056056                                                                                                                              *          20180213 IMCT                IMCT                                                                                                                    WMF1802133.TXT
MDEDJ2271148201802                D89828070100PV1D20180216000030SPEAKER ASM                   M IMCTM S5MB11 TNTH  07070IMCT  S5 PTB  00004                    2230 SR        000000000000 DENSO TEN (THAILAND)18098UL0008008                                                                                                                              *          20180213 IMCT                IMCT                                                                                                                    WMF1802133.TXT
MDEDJ2271149201802                D89828070100PV1D20180217000060SPEAKER ASM                   M IMCTM S5MB11 TNTH  07070IMCT  S5 PTB  00004                    0230 SR        000000000000 DENSO TEN (THAILAND)18099UL0014015                                                                                                                              *          20180213 IMCT                IMCT                                                                                                                    WMF1802133.TXT
MDEDJ2271150201802                D89828070100PV1D20180217000060SPEAKER ASM                   M IMCTM S5MB11 TNTH  07070IMCT  S5 PTB  00004                    0400 SR        000000000000 DENSO TEN (THAILAND)18082UL0018019                                                                                                                              *          20180213 IMCT                IMCT                                                                                                                    WMF1802133.TXT
MDEDJ2271151201802                D89828070100PV1D20180219000090SPEAKER ASM                   M IMCTM S5MB11 TNTH  07070IMCT  S5 PTB  00004                    1030 SR        000000000000 DENSO TEN (THAILAND)17029QL000100118065UL000300318070UL0002002                                                                                                  *          20180213 IMCT                IMCT                                                                                                                    WMF1802133.TXT
MDEDJ2271152201802                D89828070100PV1D20180219000120SPEAKER ASM                   M IMCTM S5MB11 TNTH  07070IMCT  S5 PTB  00004                    1300 SR        000000000000 DENSO TEN (THAILAND)18065UL000400418068UL000100118077UL0001002                                                                                                  *          20180213 IMCT                IMCT                                                                                                                    WMF1802133.TXT
MDEDJ2271153201802                D89828070100PV1D20180219000060SPEAKER ASM                   M IMCTM S5MB11 TNTH  07070IMCT  S5 PTB  00004                    1600 SR        000000000000 DENSO TEN (THAILAND)18063UL0003004                                                                                                                              *          20180213 IMCT                IMCT                                                                                                                    WMF1802133.TXT
MDEDJ2271154201802                D89828070100PV4D20180217000030SPEAKER ASM                   M IMCTM S0FL05 TNTH  07070IMCT  S0 PTB  00004                    0400 SR        000000000000 DENSO TEN (THAILAND)17077PU0007007                                                                                                                              *          20180213 IMCT                IMCT                                                                                                                    WMF1802133.TXT
MDEDJ2271155201802                D89828070100PV4D20180219000030SPEAKER ASM                   M IMCTM S0FL05 TNTH  07070IMCT  S0 PTB  00004                    1300 SR        000000000000 DENSO TEN (THAILAND)18099UU0003003                                                                                                                              *          20180213 IMCT                IMCT                                                                                                                    WMF1802133.TXT
MDEDJ2271156201802                D89828070100PV4D20180219000030SPEAKER ASM                   M IMCTM S0FL05 TNTH  07070IMCT  S0 PTB  00004                    1600 SR        000000000000 DENSO TEN (THAILAND)18068UU0001001                                                                                                                              *          20180213 IMCT                IMCT                                                                                                                    WMF1802133.TXT
MDEDJ2271157201802                D89828070100PV4D20180219000030SPEAKER ASM                   M IMCTM S0FL05 TNTH  07070IMCT  S0 PTB  00004                    2230 SR        000000000000 DENSO TEN (THAILAND)18098UU0001001                                                                                                                              *          20180213 IMCT                IMCT                                                                                                                    WMF1802133.TXT
MDEDJ2271158201802                D89828070200PV1D20180216000030SPEAKER ASM                   M IMCTM S5MA14 TNTH  07070IMCT  S5 PTB  00005                    2230 SR        000000000000 DENSO TEN (THAILAND)18098UL0008008                                                                                                                              *          20180213 IMCT                IMCT                                                                                                                    WMF1802133.TXT
MDEDJ2271159201802                D89828070200PV1D20180217000060SPEAKER ASM                   M IMCTM S5MA14 TNTH  07070IMCT  S5 PTB  00005                    0230 SR        000000000000 DENSO TEN (THAILAND)18099UL0014015                                                                                                                              *          20180213 IMCT                IMCT                                                                                                                    WMF1802133.TXT
MDEDJ2271160201802                D89828070200PV1D20180217000060SPEAKER ASM                   M IMCTM S5MA14 TNTH  07070IMCT  S5 PTB  00005                    0400 SR        000000000000 DENSO TEN (THAILAND)18082UL0018019                                                                                                                              *          20180213 IMCT                IMCT                                                                                                                    WMF1802133.TXT
MDEDJ2271161201802                D89828070200PV1D20180219000060SPEAKER ASM                   M IMCTM S5MA14 TNTH  07070IMCT  S5 PTB  00005                    1030 SR        000000000000 DENSO TEN (THAILAND)17029QL000100118065UL0003003                                                                                                                *          20180213 IMCT                IMCT                                                                                                                    WMF1802133.TXT
MDEDJ2271162201802                D89828070200PV1D20180219000120SPEAKER ASM                   M IMCTM S5MA14 TNTH  07070IMCT  S5 PTB  00005                    1300 SR        000000000000 DENSO TEN (THAILAND)18065UL000400418068UL000100118077UL0001002                                                                                                  *          20180213 IMCT                IMCT                                                                                                                    WMF1802133.TXT
MDEDJ2271163201802                D89828070200PV4D20180219000030SPEAKER ASM                   M IMCTM S0FR05 TNTH  07070IMCT  S0 PTB  00005                    1300 SR        000000000000 DENSO TEN (THAILAND)18099UU0003003                                                                                                                              *          20180213 IMCT                IMCT                                                                                                                    WMF1802133.TXT
MDEDJ2271164201802                D89828070200PV4D20180219000030SPEAKER ASM                   M IMCTM S0FR05 TNTH  07070IMCT  S0 PTB  00005                    1600 SR        000000000000 DENSO TEN (THAILAND)18068UU0001001                                                                                                                              *          20180213 IMCT                IMCT                                                                                                                    WMF1802133.TXT
MDEDJ2271165201802                D89828070200PV4D20180219000030SPEAKER ASM                   M IMCTM S0FR05 TNTH  07070IMCT  S0 PTB  00005                    2230 SR        000000000000 DENSO TEN (THAILAND)18098UU0001001                                                                                                                              *          20180213 IMCT                IMCT                                                                                                                    WMF1802133.TXT
MDEDJ2271166201802                D89828070300PT1D20180216000030SPEAKER ASM                   M IMCTM S5NB082TNTH  07070IMCT  S5 PTB  00015                    2230 SR        000000000000 DENSO TEN (THAILAND)18098UL0008008                                                                                                                              *          20180213 IMCT                IMCT                                                                                                                    WMF1802133.TXT
MDEDJ2271167201802                D89828070300PT1D20180217000060SPEAKER ASM                   M IMCTM S5NB082TNTH  07070IMCT  S5 PTB  00015                    0230 SR        000000000000 DENSO TEN (THAILAND)18099UL0014015                                                                                                                              *          20180213 IMCT                IMCT                                                                                                                    WMF1802133.TXT
MDEDJ2271168201802                D89828070300PT1D20180217000060SPEAKER ASM                   M IMCTM S5NB082TNTH  07070IMCT  S5 PTB  00015                    0400 SR        000000000000 DENSO TEN (THAILAND)18082UL0018019                                                                                                                              *          20180213 IMCT                IMCT                                                                                                                    WMF1802133.TXT
MDEDJ2271169201802                D89828070300PT1D20180219000090SPEAKER ASM                   M IMCTM S5NB082TNTH  07070IMCT  S5 PTB  00015                    1030 SR        000000000000 DENSO TEN (THAILAND)17029QL000100118065UL000300318070UL0002002                                                                                                  *          20180213 IMCT                IMCT                                                                                                                    WMF1802133.TXT
MDEDJ2271170201802                D89828070300PT1D20180219000120SPEAKER ASM                   M IMCTM S5NB082TNTH  07070IMCT  S5 PTB  00015                    1300 SR        000000000000 DENSO TEN (THAILAND)18065UL000400418068UL000100118077UL0001002                                                                                                  *          20180213 IMCT                IMCT                                                                                                                    WMF1802133.TXT
MDEDJ2271171201802                D89828070300PT1D20180219000060SPEAKER ASM                   M IMCTM S5NB082TNTH  07070IMCT  S5 PTB  00015                    1600 SR        000000000000 DENSO TEN (THAILAND)18063UL0003004                                                                                                                              *          20180213 IMCT                IMCT                                                                                                                    WMF1802133.TXT
MDEDJ2271172201802                D89828070300PT4D20180219000030SPEAKER ASM                   M IMCTM S9TS02 TNTH  07070IMCT  S9 PTB  00015                    1300 SR        000000000000 DENSO TEN (THAILAND)18099UU0003003                                                                                                                              *          20180213 IMCT                IMCT                                                                                                                    WMF1802133.TXT
MDEDJ2271173201802                D89828070300PT4D20180219000030SPEAKER ASM                   M IMCTM S9TS02 TNTH  07070IMCT  S9 PTB  00015                    1600 SR        000000000000 DENSO TEN (THAILAND)18068UU0001001                                                                                                                              *          20180213 IMCT                IMCT                                                                                                                    WMF1802133.TXT
MDEDJ2271174201802                D89828070300PT4D20180219000030SPEAKER ASM                   M IMCTM S9TS02 TNTH  07070IMCT  S9 PTB  00015                    2230 SR        000000000000 DENSO TEN (THAILAND)18098UU0001001                                                                                                                              *          20180213 IMCT                IMCT                                                                                                                    WMF1802133.TXT
MDEDJ2271175201802                D89831228600PT1D20180219000015RADIO;AM/FM,CD                M IMCTM S5NC06 TNTH  07070IMCT  S5 PTB  00003                    1030 SR        000000000000 DENSO TEN (THAILAND)18070UL0002002                                                                                                                              *          20180213 IMCT                IMCT                                                                                                                    WMF1802133.TXT
MDEDJ2271176201802                D89831229200PT1D20180219000015RADIO;AM/FM,CD                M IMCTM S5NC06 TNTH  07070IMCT  S5 PTB  00003                    1030 SR        000000000000 DENSO TEN (THAILAND)17029QL0001001                                                                                                                              *          20180213 IMCT                IMCT                                                                                                                    WMF1802133.TXT
MDEDJ2271177201802                D89848581800PT1D20180216000015RADIO;AM/FM CD D              M IMCTM S5NC06 TNTH  07070IMCT  S5 PTB  00003                    2230 SR        000000000000 DENSO TEN (THAILAND)18098UL0008008                                                                                                                              *          20180213 IMCT                IMCT                                                                                                                    WMF1802133.TXT
MDEDJ2271178201802                D89848581800PT1D20180217000030RADIO;AM/FM CD D              M IMCTM S5NC06 TNTH  07070IMCT  S5 PTB  00003                    0400 SR        000000000000 DENSO TEN (THAILAND)18082UL0018019                                                                                                                              *          20180213 IMCT                IMCT                                                                                                                    WMF1802133.TXT
MDEDJ2271179201802                D89848581800PT1D20180219000015RADIO;AM/FM CD D              M IMCTM S5NC06 TNTH  07070IMCT  S5 PTB  00003                    1030 SR        000000000000 DENSO TEN (THAILAND)18065UL0003003                                                                                                                              *          20180213 IMCT                IMCT                                                                                                                    WMF1802133.TXT
MDEDJ2271180201802                D89848581800PT1D20180219000045RADIO;AM/FM CD D              M IMCTM S5NC06 TNTH  07070IMCT  S5 PTB  00003                    1300 SR        000000000000 DENSO TEN (THAILAND)18065UL000400418077UL0001002                                                                                                                *          20180213 IMCT                IMCT                                                                                                                    WMF1802133.TXT
MDEDJ2271181201802                D89848581800PT1D20180219000030RADIO;AM/FM CD D              M IMCTM S5NC06 TNTH  07070IMCT  S5 PTB  00003                    1600 SR        000000000000 DENSO TEN (THAILAND)18063UL0003004                                                                                                                              *          20180213 IMCT                IMCT                                                                                                                    WMF1802133.TXT
MDEDJ2271182201802                D89848581800PT4D20180219000015RADIO;AM/FM CD D              M IMCTM S9CO001TNTH  07070IMCT  S9 PTB  00003                    2230 SR        000000000000 DENSO TEN (THAILAND)18098UU0001001                                                                                                                              *          20180213 IMCT                IMCT                                                                                                                    WMF1802133.TXT
MDEUJ2251135201802                D89828070100PT4U20180216000030SPEAKER ASM                   M IMCTM S0FL05 TNTH  07070IMCT  S0 PTB  00004                    2230 SR        000000000000 DENSO TEN (THAILAND)18021UU0016016                                                                                                                              *          20180213 IMCT                IMCT                                                                                                                    WMF1802133.TXT
MDEUJ2251136201802                D89828070100PT4U20180217000030SPEAKER ASM                   M IMCTM S0FL05 TNTH  07070IMCT  S0 PTB  00004                    0230 SR        000000000000 DENSO TEN (THAILAND)18049ZU0002002                                                                                                                              *          20180213 IMCT                IMCT                                                                                                                    WMF1802133.TXT
MDEUJ2251137201802                D89828070100PT4U20180217000060SPEAKER ASM                   M IMCTM S0FL05 TNTH  07070IMCT  S0 PTB  00004                    0400 SR        000000000000 DENSO TEN (THAILAND)18021UU001701718050ZU0001001                                                                                                                *          20180213 IMCT                IMCT                                                                                                                    WMF1802133.TXT
MDEUJ2251138201802                D89828070100PT4U20180219000030SPEAKER ASM                   M IMCTM S0FL05 TNTH  07070IMCT  S0 PTB  00004                    0830 SR        000000000000 DENSO TEN (THAILAND)18050ZU0002002                                                                                                                              *          20180213 IMCT                IMCT                                                                                                                    WMF1802133.TXT
MDEUJ2251139201802                D89828070100PT4U20180219000030SPEAKER ASM                   M IMCTM S0FL05 TNTH  07070IMCT  S0 PTB  00004                    1030 SR        000000000000 DENSO TEN (THAILAND)18049ZU0003003                                                                                                                              *          20180213 IMCT                IMCT                                                                                                                    WMF1802133.TXT
MDEUJ2251140201802                D89828070100PT4U20180219000060SPEAKER ASM                   M IMCTM S0FL05 TNTH  07070IMCT  S0 PTB  00004                    1300 SR        000000000000 DENSO TEN (THAILAND)18049ZU000400418050ZU0003003                                                                                                                *          20180213 IMCT                IMCT                                                                                                                    WMF1802133.TXT
MDEUJ2251141201802                D89828070100PT4U20180219000030SPEAKER ASM                   M IMCTM S0FL05 TNTH  07070IMCT  S0 PTB  00004                    2100 SR        000000000000 DENSO TEN (THAILAND)18069ZU0001001                                                                                                                              *          20180213 IMCT                IMCT                                                                                                                    WMF1802133.TXT
MDEUJ2251142201802                D89828070200PV4U20180216000030SPEAKER ASM                   M IMCTM S0FR05 TNTH  07070IMCT  S0 PTB  00005                    2230 SR        000000000000 DENSO TEN (THAILAND)18021UU0016016                                                                                                                              *          20180213 IMCT                IMCT                                                                                                                    WMF1802133.TXT
MDEUJ2251143201802                D89828070200PV4U20180217000030SPEAKER ASM                   M IMCTM S0FR05 TNTH  07070IMCT  S0 PTB  00005                    0230 SR        000000000000 DENSO TEN (THAILAND)18049ZU0002002                                                                                                                              *          20180213 IMCT                IMCT                                                                                                                    WMF1802133.TXT
MDEUJ2251144201802                D89828070200PV4U20180217000060SPEAKER ASM                   M IMCTM S0FR05 TNTH  07070IMCT  S0 PTB  00005                    0400 SR        000000000000 DENSO TEN (THAILAND)18021UU001701718050ZU0001001                                                                                                                *          20180213 IMCT                IMCT                                                                                                                    WMF1802133.TXT
MDEUJ2251145201802                D89828070200PV4U20180219000030SPEAKER ASM                   M IMCTM S0FR05 TNTH  07070IMCT  S0 PTB  00005                    0830 SR        000000000000 DENSO TEN (THAILAND)18050ZU0002002                                                                                                                              *          20180213 IMCT                IMCT                                                                                                                    WMF1802133.TXT
MDEUJ2251146201802                D89828070200PV4U20180219000030SPEAKER ASM                   M IMCTM S0FR05 TNTH  07070IMCT  S0 PTB  00005                    1030 SR        000000000000 DENSO TEN (THAILAND)18049ZU0003003                                                                                                                              *          20180213 IMCT                IMCT                                                                                                                    WMF1802133.TXT
MDEUJ2251147201802                D89828070200PV4U20180219000060SPEAKER ASM                   M IMCTM S0FR05 TNTH  07070IMCT  S0 PTB  00005                    1300 SR        000000000000 DENSO TEN (THAILAND)18049ZU000400418050ZU0003003                                                                                                                *          20180213 IMCT                IMCT                                                                                                                    WMF1802133.TXT
MDEUJ2251148201802                D89828070200PV4U20180219000030SPEAKER ASM                   M IMCTM S0FR05 TNTH  07070IMCT  S0 PTB  00005                    2100 SR        000000000000 DENSO TEN (THAILAND)18069ZU0001001                                                                                                                              *          20180213 IMCT                IMCT                                                                                                                    WMF1802133.TXT
MDEUJ2251149201802                D89828070300PT4U20180216000030SPEAKER ASM                   M IMCTM S9TS02 TNTH  07070IMCT  S9 PTB  00015                    2230 SR        000000000000 DENSO TEN (THAILAND)18021UU0016016                                                                                                                              *          20180213 IMCT                IMCT                                                                                                                    WMF1802133.TXT
MDEUJ2251150201802                D89828070300PT4U20180217000030SPEAKER ASM                   M IMCTM S9TS02 TNTH  07070IMCT  S9 PTB  00015                    0230 SR        000000000000 DENSO TEN (THAILAND)18049ZU0002002                                                                                                                              *          20180213 IMCT                IMCT                                                                                                                    WMF1802133.TXT
MDEUJ2251151201802                D89828070300PT4U20180217000060SPEAKER ASM                   M IMCTM S9TS02 TNTH  07070IMCT  S9 PTB  00015                    0400 SR        000000000000 DENSO TEN (THAILAND)18021UU001701718050ZU0001001                                                                                                                *          20180213 IMCT                IMCT                                                                                                                    WMF1802133.TXT
MDEUJ2251152201802                D89828070300PT4U20180219000030SPEAKER ASM                   M IMCTM S9TS02 TNTH  07070IMCT  S9 PTB  00015                    0830 SR        000000000000 DENSO TEN (THAILAND)18050ZU0002002                                                                                                                              *          20180213 IMCT                IMCT                                                                                                                    WMF1802133.TXT
MDEUJ2251153201802                D89828070300PT4U20180219000030SPEAKER ASM                   M IMCTM S9TS02 TNTH  07070IMCT  S9 PTB  00015                    1030 SR        000000000000 DENSO TEN (THAILAND)18049ZU0003003                                                                                                                              *          20180213 IMCT                IMCT                                                                                                                    WMF1802133.TXT
MDEUJ2251154201802                D89828070300PT4U20180219000060SPEAKER ASM                   M IMCTM S9TS02 TNTH  07070IMCT  S9 PTB  00015                    1300 SR        000000000000 DENSO TEN (THAILAND)18049ZU000400418050ZU0003003                                                                                                                *          20180213 IMCT                IMCT                                                                                                                    WMF1802133.TXT
MDEUJ2251155201802                D89828070300PT4U20180219000030SPEAKER ASM                   M IMCTM S9TS02 TNTH  07070IMCT  S9 PTB  00015                    2100 SR        000000000000 DENSO TEN (THAILAND)18069ZU0001001                                                                                                                              *          20180213 IMCT                IMCT                                                                                                                    WMF1802133.TXT
MDEUJ2251156201802                D89848584500PT4U20180219000015RADIO;AM/FM CD D              M IMCTM S9CO001TNTH  07070IMCT  S9 PTB  00003                    2100 SR        000000000000 DENSO TEN (THAILAND)18069ZU0001001                                                                                                                              *          20180213 IMCT                IMCT                                                                                                                    WMF1802133.TXT
