REC2018020820180208ISUZU                              3      
MACK82000726201802          IMKDC  89828070100P3YK20180220000022SPEAKER ASM                   M IMCTM IMKDC  TNTH  07070IMKDC KI*PTB  00004    K295B3610   001 0000 ES        000000000000 DENSO TEN (THAILAND)                                                                                                                                            *G         20180208 IMCT                IMCT                                                                                                                    WMF1802087.TXT
MACK82000727201802          IMKDC  89828070200P3YK20180220000022SPEAKER ASM                   M IMCTM IMKDC  TNTH  07070IMKDC KI*PTB  00005    K295B3610   001 0000 ES        000000000000 DENSO TEN (THAILAND)                                                                                                                                            *G         20180208 IMCT                IMCT                                                                                                                    WMF1802087.TXT
MACK82000728201802          IMKDC  89828070300P3YK20180220000022SPEAKER ASM                   M IMCTM IMKDC  TNTH  07070IMKDC KI*PTB  00015    K295B3610   001 0000 ES        000000000000 DENSO TEN (THAILAND)                                                                                                                                            *G         20180208 IMCT                IMCT                                                                                                                    WMF1802087.TXT
