REC2018020820180208ISUZU                              86     
MDDDJ2234624201802                D89821984430PT1D20180212000030RADIO;AM/FM,CD                M IMCTM S5NC06 TNTH  07070IMCT  S5 PTB  00005                    2230 SR        000000000000 DENSO TEN (THAILAND)180LXCL0008008                                                                                                                              *          20180208 IMCT                IMCT                                                                                                                    WMF1802085.TXT
MDDDJ2234625201802                D89821984430PT1D20180213000030RADIO;AM/FM,CD                M IMCTM S5NC06 TNTH  07070IMCT  S5 PTB  00005                    0400 SR        000000000000 DENSO TEN (THAILAND)180LNCL0029029                                                                                                                              *          20180208 IMCT                IMCT                                                                                                                    WMF1802085.TXT
MDDDJ2234626201802                D89821984430PT1D20180213000030RADIO;AM/FM,CD                M IMCTM S5NC06 TNTH  07070IMCT  S5 PTB  00005                    1300 SR        000000000000 DENSO TEN (THAILAND)180LXEL0012012                                                                                                                              *          20180208 IMCT                IMCT                                                                                                                    WMF1802085.TXT
MDDDJ2234627201802                D89821984430PT1D20180213000030RADIO;AM/FM,CD                M IMCTM S5NC06 TNTH  07070IMCT  S5 PTB  00005                    2100 SR        000000000000 DENSO TEN (THAILAND)180LNCL0030030                                                                                                                              *          20180208 IMCT                IMCT                                                                                                                    WMF1802085.TXT
MDDDJ2234628201802                D89828070100PV1D20180212000060SPEAKER ASM                   M IMCTM S5MB11 TNTH  07070IMCT  S5 PTB  00004                    2230 SR        000000000000 DENSO TEN (THAILAND)180LXCL0008008                                                                                                                              *          20180208 IMCT                IMCT                                                                                                                    WMF1802085.TXT
MDDDJ2234629201802                D89828070100PV1D20180213000060SPEAKER ASM                   M IMCTM S5MB11 TNTH  07070IMCT  S5 PTB  00004                    0400 SR        000000000000 DENSO TEN (THAILAND)180LNCL0029029                                                                                                                              *          20180208 IMCT                IMCT                                                                                                                    WMF1802085.TXT
MDDDJ2234630201802                D89828070100PV1D20180213000060SPEAKER ASM                   M IMCTM S5MB11 TNTH  07070IMCT  S5 PTB  00004                    0830 SR        000000000000 DENSO TEN (THAILAND)180LPCL0036036                                                                                                                              *          20180208 IMCT                IMCT                                                                                                                    WMF1802085.TXT
MDDDJ2234631201802                D89828070100PV1D20180213000060SPEAKER ASM                   M IMCTM S5MB11 TNTH  07070IMCT  S5 PTB  00004                    1300 SR        000000000000 DENSO TEN (THAILAND)180LXEL0012012                                                                                                                              *          20180208 IMCT                IMCT                                                                                                                    WMF1802085.TXT
MDDDJ2234632201802                D89828070100PV1D20180213000060SPEAKER ASM                   M IMCTM S5MB11 TNTH  07070IMCT  S5 PTB  00004                    2100 SR        000000000000 DENSO TEN (THAILAND)180LNCL0030030                                                                                                                              *          20180208 IMCT                IMCT                                                                                                                    WMF1802085.TXT
MDDDJ2234633201802                D89828070100PV4D20180213000060SPEAKER ASM                   M IMCTM S0FL05 TNTH  07070IMCT  S0 PTB  00004                    0830 SR        000000000000 DENSO TEN (THAILAND)180LRSU0034034                                                                                                                              *          20180208 IMCT                IMCT                                                                                                                    WMF1802085.TXT
MDDDJ2234634201802                D89828070200PV4D20180213000060SPEAKER ASM                   M IMCTM S0FR05 TNTH  07070IMCT  S0 PTB  00005                    0830 SR        000000000000 DENSO TEN (THAILAND)180LRSU0034034                                                                                                                              *          20180208 IMCT                IMCT                                                                                                                    WMF1802085.TXT
MDDDJ2234635201802                D89828070300PT1D20180213000060SPEAKER ASM                   M IMCTM S5NB082TNTH  07070IMCT  S5 PTB  00015                    0830 SR        000000000000 DENSO TEN (THAILAND)180LPCL0036036                                                                                                                              *          20180208 IMCT                IMCT                                                                                                                    WMF1802085.TXT
MDDDJ2234636201802                D89828070300PT4D20180213000060SPEAKER ASM                   M IMCTM S9TS02 TNTH  07070IMCT  S9 PTB  00015                    0830 SR        000000000000 DENSO TEN (THAILAND)180LRSU0034034                                                                                                                              *          20180208 IMCT                IMCT                                                                                                                    WMF1802085.TXT
MDDDJ2234637201802                D89831228300PT1D20180213000030RADIO;AM/FM,CD                M IMCTM S5NC06 TNTH  07070IMCT  S5 CPB  00003                    0830 SR        000000000000 DENSO TEN (THAILAND)180LPCL0036036                                                                                                                              *          20180208 IMCT                IMCT                                                                                                                    WMF1802085.TXT
MDEDJ2236477201802                D89828070100PV1D20180212000030SPEAKER ASM                   M IMCTM S5MB11 TNTH  07070IMCT  S5 PTB  00004                    2230 SR        000000000000 DENSO TEN (THAILAND)18080UL0003003                                                                                                                              *          20180208 IMCT                IMCT                                                                                                                    WMF1802085.TXT
MDEDJ2236478201802                D89828070100PV1D20180213000060SPEAKER ASM                   M IMCTM S5MB11 TNTH  07070IMCT  S5 PTB  00004                    0230 SR        000000000000 DENSO TEN (THAILAND)18082UL0001002                                                                                                                              *          20180208 IMCT                IMCT                                                                                                                    WMF1802085.TXT
MDEDJ2236479201802                D89828070100PV1D20180213000030SPEAKER ASM                   M IMCTM S5MB11 TNTH  07070IMCT  S5 PTB  00004                    0400 SR        000000000000 DENSO TEN (THAILAND)18001VL0001001                                                                                                                              *          20180208 IMCT                IMCT                                                                                                                    WMF1802085.TXT
MDEDJ2236480201802                D89828070100PV1D20180213000060SPEAKER ASM                   M IMCTM S5MB11 TNTH  07070IMCT  S5 PTB  00004                    0830 SR        000000000000 DENSO TEN (THAILAND)18064UL000200218073UL0001001                                                                                                                *          20180208 IMCT                IMCT                                                                                                                    WMF1802085.TXT
MDEDJ2236481201802                D89828070100PV1D20180213000060SPEAKER ASM                   M IMCTM S5MB11 TNTH  07070IMCT  S5 PTB  00004                    1030 SR        000000000000 DENSO TEN (THAILAND)18099UL0001002                                                                                                                              *          20180208 IMCT                IMCT                                                                                                                    WMF1802085.TXT
MDEDJ2236482201802                D89828070100PV1D20180213000030SPEAKER ASM                   M IMCTM S5MB11 TNTH  07070IMCT  S5 PTB  00004                    1300 SR        000000000000 DENSO TEN (THAILAND)18083UL0001001                                                                                                                              *          20180208 IMCT                IMCT                                                                                                                    WMF1802085.TXT
MDEDJ2236483201802                D89828070100PV1D20180213000150SPEAKER ASM                   M IMCTM S5MB11 TNTH  07070IMCT  S5 PTB  00004                    1600 SR        000000000000 DENSO TEN (THAILAND)18064UL000300418073UL000200218082UL000300318083UL0002002                                                                                    *          20180208 IMCT                IMCT                                                                                                                    WMF1802085.TXT
MDEDJ2236484201802                D89828070100PV1D20180213000060SPEAKER ASM                   M IMCTM S5MB11 TNTH  07070IMCT  S5 PTB  00004                    2100 SR        000000000000 DENSO TEN (THAILAND)17075PL009709718099UL0003003                                                                                                                *          20180208 IMCT                IMCT                                                                                                                    WMF1802085.TXT
MDEDJ2236485201802                D89828070100PV1D20180213000030SPEAKER ASM                   M IMCTM S5MB11 TNTH  07070IMCT  S5 PTB  00004                    2230 SR        000000000000 DENSO TEN (THAILAND)18082UL0004004                                                                                                                              *          20180208 IMCT                IMCT                                                                                                                    WMF1802085.TXT
MDEDJ2236486201802                D89828070100PV4D20180213000030SPEAKER ASM                   M IMCTM S0FL05 TNTH  07070IMCT  S0 PTB  00004                    1300 SR        000000000000 DENSO TEN (THAILAND)18061UU0001001                                                                                                                              *          20180208 IMCT                IMCT                                                                                                                    WMF1802085.TXT
MDEDJ2236487201802                D89828070100PV4D20180213000030SPEAKER ASM                   M IMCTM S0FL05 TNTH  07070IMCT  S0 PTB  00004                    2100 SR        000000000000 DENSO TEN (THAILAND)18061UU0002002                                                                                                                              *          20180208 IMCT                IMCT                                                                                                                    WMF1802085.TXT
MDEDJ2236488201802                D89828070100PV4D20180213000030SPEAKER ASM                   M IMCTM S0FL05 TNTH  07070IMCT  S0 PTB  00004                    2230 SR        000000000000 DENSO TEN (THAILAND)18063UU0003003                                                                                                                              *          20180208 IMCT                IMCT                                                                                                                    WMF1802085.TXT
MDEDJ2236489201802                D89828070200PV1D20180212000030SPEAKER ASM                   M IMCTM S5MA14 TNTH  07070IMCT  S5 PTB  00005                    2230 SR        000000000000 DENSO TEN (THAILAND)18080UL0003003                                                                                                                              *          20180208 IMCT                IMCT                                                                                                                    WMF1802085.TXT
MDEDJ2236490201802                D89828070200PV1D20180213000060SPEAKER ASM                   M IMCTM S5MA14 TNTH  07070IMCT  S5 PTB  00005                    0230 SR        000000000000 DENSO TEN (THAILAND)18082UL0001002                                                                                                                              *          20180208 IMCT                IMCT                                                                                                                    WMF1802085.TXT
MDEDJ2236491201802                D89828070200PV1D20180213000030SPEAKER ASM                   M IMCTM S5MA14 TNTH  07070IMCT  S5 PTB  00005                    0400 SR        000000000000 DENSO TEN (THAILAND)18001VL0001001                                                                                                                              *          20180208 IMCT                IMCT                                                                                                                    WMF1802085.TXT
MDEDJ2236492201802                D89828070200PV1D20180213000060SPEAKER ASM                   M IMCTM S5MA14 TNTH  07070IMCT  S5 PTB  00005                    1030 SR        000000000000 DENSO TEN (THAILAND)18099UL0001002                                                                                                                              *          20180208 IMCT                IMCT                                                                                                                    WMF1802085.TXT
MDEDJ2236493201802                D89828070200PV1D20180213000030SPEAKER ASM                   M IMCTM S5MA14 TNTH  07070IMCT  S5 PTB  00005                    1300 SR        000000000000 DENSO TEN (THAILAND)18083UL0001001                                                                                                                              *          20180208 IMCT                IMCT                                                                                                                    WMF1802085.TXT
MDEDJ2236494201802                D89828070200PV1D20180213000060SPEAKER ASM                   M IMCTM S5MA14 TNTH  07070IMCT  S5 PTB  00005                    1600 SR        000000000000 DENSO TEN (THAILAND)18082UL000300318083UL0002002                                                                                                                *          20180208 IMCT                IMCT                                                                                                                    WMF1802085.TXT
MDEDJ2236495201802                D89828070200PV1D20180213000030SPEAKER ASM                   M IMCTM S5MA14 TNTH  07070IMCT  S5 PTB  00005                    2100 SR        000000000000 DENSO TEN (THAILAND)18099UL0003003                                                                                                                              *          20180208 IMCT                IMCT                                                                                                                    WMF1802085.TXT
MDEDJ2236496201802                D89828070200PV1D20180213000030SPEAKER ASM                   M IMCTM S5MA14 TNTH  07070IMCT  S5 PTB  00005                    2230 SR        000000000000 DENSO TEN (THAILAND)18082UL0004004                                                                                                                              *          20180208 IMCT                IMCT                                                                                                                    WMF1802085.TXT
MDEDJ2236497201802                D89828070300PT1D20180212000030SPEAKER ASM                   M IMCTM S5NB082TNTH  07070IMCT  S5 PTB  00015                    2230 SR        000000000000 DENSO TEN (THAILAND)18080UL0003003                                                                                                                              *          20180208 IMCT                IMCT                                                                                                                    WMF1802085.TXT
MDEDJ2236498201802                D89828070300PT1D20180213000060SPEAKER ASM                   M IMCTM S5NB082TNTH  07070IMCT  S5 PTB  00015                    0230 SR        000000000000 DENSO TEN (THAILAND)18082UL0001002                                                                                                                              *          20180208 IMCT                IMCT                                                                                                                    WMF1802085.TXT
MDEDJ2236499201802                D89828070300PT1D20180213000030SPEAKER ASM                   M IMCTM S5NB082TNTH  07070IMCT  S5 PTB  00015                    0400 SR        000000000000 DENSO TEN (THAILAND)18001VL0001001                                                                                                                              *          20180208 IMCT                IMCT                                                                                                                    WMF1802085.TXT
MDEDJ2236500201802                D89828070300PT1D20180213000060SPEAKER ASM                   M IMCTM S5NB082TNTH  07070IMCT  S5 PTB  00015                    0830 SR        000000000000 DENSO TEN (THAILAND)18064UL000200218073UL0001001                                                                                                                *          20180208 IMCT                IMCT                                                                                                                    WMF1802085.TXT
MDEDJ2236501201802                D89828070300PT1D20180213000060SPEAKER ASM                   M IMCTM S5NB082TNTH  07070IMCT  S5 PTB  00015                    1030 SR        000000000000 DENSO TEN (THAILAND)18099UL0001002                                                                                                                              *          20180208 IMCT                IMCT                                                                                                                    WMF1802085.TXT
MDEDJ2236502201802                D89828070300PT1D20180213000030SPEAKER ASM                   M IMCTM S5NB082TNTH  07070IMCT  S5 PTB  00015                    1300 SR        000000000000 DENSO TEN (THAILAND)18083UL0001001                                                                                                                              *          20180208 IMCT                IMCT                                                                                                                    WMF1802085.TXT
MDEDJ2236503201802                D89828070300PT1D20180213000150SPEAKER ASM                   M IMCTM S5NB082TNTH  07070IMCT  S5 PTB  00015                    1600 SR        000000000000 DENSO TEN (THAILAND)18064UL000300418073UL000200218082UL000300318083UL0002002                                                                                    *          20180208 IMCT                IMCT                                                                                                                    WMF1802085.TXT
MDEDJ2236504201802                D89828070300PT1D20180213000030SPEAKER ASM                   M IMCTM S5NB082TNTH  07070IMCT  S5 PTB  00015                    2100 SR        000000000000 DENSO TEN (THAILAND)18099UL0003003                                                                                                                              *          20180208 IMCT                IMCT                                                                                                                    WMF1802085.TXT
MDEDJ2236505201802                D89828070300PT1D20180213000030SPEAKER ASM                   M IMCTM S5NB082TNTH  07070IMCT  S5 PTB  00015                    2230 SR        000000000000 DENSO TEN (THAILAND)18082UL0004004                                                                                                                              *          20180208 IMCT                IMCT                                                                                                                    WMF1802085.TXT
MDEDJ2236506201802                D89828070300PT4D20180213000030SPEAKER ASM                   M IMCTM S9TS02 TNTH  07070IMCT  S9 PTB  00015                    1300 SR        000000000000 DENSO TEN (THAILAND)18061UU0001001                                                                                                                              *          20180208 IMCT                IMCT                                                                                                                    WMF1802085.TXT
MDEDJ2236507201802                D89828070300PT4D20180213000030SPEAKER ASM                   M IMCTM S9TS02 TNTH  07070IMCT  S9 PTB  00015                    2100 SR        000000000000 DENSO TEN (THAILAND)18061UU0002002                                                                                                                              *          20180208 IMCT                IMCT                                                                                                                    WMF1802085.TXT
MDEDJ2236508201802                D89828070300PT4D20180213000030SPEAKER ASM                   M IMCTM S9TS02 TNTH  07070IMCT  S9 PTB  00015                    2230 SR        000000000000 DENSO TEN (THAILAND)18063UU0003003                                                                                                                              *          20180208 IMCT                IMCT                                                                                                                    WMF1802085.TXT
MDEDJ2236509201802                D89848581800PT1D20180212000015RADIO;AM/FM CD D              M IMCTM S5NC06 TNTH  07070IMCT  S5 PTB  00003                    2230 SR        000000000000 DENSO TEN (THAILAND)18080UL0003003                                                                                                                              *          20180208 IMCT                IMCT                                                                                                                    WMF1802085.TXT
MDEDJ2236510201802                D89848581800PT1D20180213000030RADIO;AM/FM CD D              M IMCTM S5NC06 TNTH  07070IMCT  S5 PTB  00003                    0230 SR        000000000000 DENSO TEN (THAILAND)18082UL0001002                                                                                                                              *          20180208 IMCT                IMCT                                                                                                                    WMF1802085.TXT
MDEDJ2236511201802                D89848581800PT1D20180213000015RADIO;AM/FM CD D              M IMCTM S5NC06 TNTH  07070IMCT  S5 PTB  00003                    1300 SR        000000000000 DENSO TEN (THAILAND)18083UL0001001                                                                                                                              *          20180208 IMCT                IMCT                                                                                                                    WMF1802085.TXT
MDEDJ2236512201802                D89848581800PT1D20180213000030RADIO;AM/FM CD D              M IMCTM S5NC06 TNTH  07070IMCT  S5 PTB  00003                    1600 SR        000000000000 DENSO TEN (THAILAND)18082UL000300318083UL0002002                                                                                                                *          20180208 IMCT                IMCT                                                                                                                    WMF1802085.TXT
MDEDJ2236513201802                D89848581800PT1D20180213000015RADIO;AM/FM CD D              M IMCTM S5NC06 TNTH  07070IMCT  S5 PTB  00003                    2230 SR        000000000000 DENSO TEN (THAILAND)18082UL0004004                                                                                                                              *          20180208 IMCT                IMCT                                                                                                                    WMF1802085.TXT
MDEDJ2236514201802                D89848581800PT4D20180213000015RADIO;AM/FM CD D              M IMCTM S9CO001TNTH  07070IMCT  S9 PTB  00003                    1300 SR        000000000000 DENSO TEN (THAILAND)18061UU0001001                                                                                                                              *          20180208 IMCT                IMCT                                                                                                                    WMF1802085.TXT
MDEDJ2236515201802                D89848581800PT4D20180213000015RADIO;AM/FM CD D              M IMCTM S9CO001TNTH  07070IMCT  S9 PTB  00003                    2100 SR        000000000000 DENSO TEN (THAILAND)18061UU0002002                                                                                                                              *          20180208 IMCT                IMCT                                                                                                                    WMF1802085.TXT
MDEDJ2236516201802                D89848581800PT4D20180213000015RADIO;AM/FM CD D              M IMCTM S9CO001TNTH  07070IMCT  S9 PTB  00003                    2230 SR        000000000000 DENSO TEN (THAILAND)18063UU0003003                                                                                                                              *          20180208 IMCT                IMCT                                                                                                                    WMF1802085.TXT
MDEDJ2236517201802                D89848582500PT1D20180213000030RADIO;AM/FM CD D              M IMCTM S5NC06 TNTH  07070IMCT  S5 PTB  00003                    0830 SR        000000000000 DENSO TEN (THAILAND)18064UL000200218073UL0001001                                                                                                                *          20180208 IMCT                IMCT                                                                                                                    WMF1802085.TXT
MDEDJ2236518201802                D89848582500PT1D20180213000045RADIO;AM/FM CD D              M IMCTM S5NC06 TNTH  07070IMCT  S5 PTB  00003                    1600 SR        000000000000 DENSO TEN (THAILAND)18064UL000300418073UL0002002                                                                                                                *          20180208 IMCT                IMCT                                                                                                                    WMF1802085.TXT
MDEUJ2225284201802                D89828070100PT4U20180212000060SPEAKER ASM                   M IMCTM S0FL05 TNTH  07070IMCT  S0 PTB  00004                    2230 SR        000000000000 DENSO TEN (THAILAND)18020UU000200218021UU0004004                                                                                                                *          20180208 IMCT                IMCT                                                                                                                    WMF1802085.TXT
MDEUJ2225285201802                D89828070100PT4U20180213000030SPEAKER ASM                   M IMCTM S0FL05 TNTH  07070IMCT  S0 PTB  00004                    0230 SR        000000000000 DENSO TEN (THAILAND)18015UU0002002                                                                                                                              *          20180208 IMCT                IMCT                                                                                                                    WMF1802085.TXT
MDEUJ2225286201802                D89828070100PT4U20180213000030SPEAKER ASM                   M IMCTM S0FL05 TNTH  07070IMCT  S0 PTB  00004                    0400 SR        000000000000 DENSO TEN (THAILAND)18060UU0004004                                                                                                                              *          20180208 IMCT                IMCT                                                                                                                    WMF1802085.TXT
MDEUJ2225287201802                D89828070100PT4U20180213000030SPEAKER ASM                   M IMCTM S0FL05 TNTH  07070IMCT  S0 PTB  00004                    0830 SR        000000000000 DENSO TEN (THAILAND)18014UU0001001                                                                                                                              *          20180208 IMCT                IMCT                                                                                                                    WMF1802085.TXT
MDEUJ2225288201802                D89828070100PT4U20180213000030SPEAKER ASM                   M IMCTM S0FL05 TNTH  07070IMCT  S0 PTB  00004                    1030 SR        000000000000 DENSO TEN (THAILAND)18025UU0031031                                                                                                                              *          20180208 IMCT                IMCT                                                                                                                    WMF1802085.TXT
MDEUJ2225289201802                D89828070100PT4U20180213000030SPEAKER ASM                   M IMCTM S0FL05 TNTH  07070IMCT  S0 PTB  00004                    1300 SR        000000000000 DENSO TEN (THAILAND)18021UU0005005                                                                                                                              *          20180208 IMCT                IMCT                                                                                                                    WMF1802085.TXT
MDEUJ2225290201802                D89828070100PT4U20180213000090SPEAKER ASM                   M IMCTM S0FL05 TNTH  07070IMCT  S0 PTB  00004                    1600 SR        000000000000 DENSO TEN (THAILAND)18014UU000200218020UU0003004                                                                                                                *          20180208 IMCT                IMCT                                                                                                                    WMF1802085.TXT
MDEUJ2225291201802                D89828070100PT4U20180213000030SPEAKER ASM                   M IMCTM S0FL05 TNTH  07070IMCT  S0 PTB  00004                    2100 SR        000000000000 DENSO TEN (THAILAND)18021UU0006006                                                                                                                              *          20180208 IMCT                IMCT                                                                                                                    WMF1802085.TXT
MDEUJ2225292201802                D89828070100PT4U20180213000030SPEAKER ASM                   M IMCTM S0FL05 TNTH  07070IMCT  S0 PTB  00004                    2230 SR        000000000000 DENSO TEN (THAILAND)18016UU0003003                                                                                                                              *          20180208 IMCT                IMCT                                                                                                                    WMF1802085.TXT
MDEUJ2225293201802                D89828070200PV4U20180212000060SPEAKER ASM                   M IMCTM S0FR05 TNTH  07070IMCT  S0 PTB  00005                    2230 SR        000000000000 DENSO TEN (THAILAND)18020UU000200218021UU0004004                                                                                                                *          20180208 IMCT                IMCT                                                                                                                    WMF1802085.TXT
MDEUJ2225294201802                D89828070200PV4U20180213000030SPEAKER ASM                   M IMCTM S0FR05 TNTH  07070IMCT  S0 PTB  00005                    0230 SR        000000000000 DENSO TEN (THAILAND)18015UU0002002                                                                                                                              *          20180208 IMCT                IMCT                                                                                                                    WMF1802085.TXT
MDEUJ2225295201802                D89828070200PV4U20180213000030SPEAKER ASM                   M IMCTM S0FR05 TNTH  07070IMCT  S0 PTB  00005                    0400 SR        000000000000 DENSO TEN (THAILAND)18060UU0004004                                                                                                                              *          20180208 IMCT                IMCT                                                                                                                    WMF1802085.TXT
MDEUJ2225296201802                D89828070200PV4U20180213000030SPEAKER ASM                   M IMCTM S0FR05 TNTH  07070IMCT  S0 PTB  00005                    0830 SR        000000000000 DENSO TEN (THAILAND)18014UU0001001                                                                                                                              *          20180208 IMCT                IMCT                                                                                                                    WMF1802085.TXT
MDEUJ2225297201802                D89828070200PV4U20180213000030SPEAKER ASM                   M IMCTM S0FR05 TNTH  07070IMCT  S0 PTB  00005                    1030 SR        000000000000 DENSO TEN (THAILAND)18025UU0031031                                                                                                                              *          20180208 IMCT                IMCT                                                                                                                    WMF1802085.TXT
MDEUJ2225298201802                D89828070200PV4U20180213000030SPEAKER ASM                   M IMCTM S0FR05 TNTH  07070IMCT  S0 PTB  00005                    1300 SR        000000000000 DENSO TEN (THAILAND)18021UU0005005                                                                                                                              *          20180208 IMCT                IMCT                                                                                                                    WMF1802085.TXT
MDEUJ2225299201802                D89828070200PV4U20180213000090SPEAKER ASM                   M IMCTM S0FR05 TNTH  07070IMCT  S0 PTB  00005                    1600 SR        000000000000 DENSO TEN (THAILAND)18014UU000200218020UU0003004                                                                                                                *          20180208 IMCT                IMCT                                                                                                                    WMF1802085.TXT
MDEUJ2225300201802                D89828070200PV4U20180213000030SPEAKER ASM                   M IMCTM S0FR05 TNTH  07070IMCT  S0 PTB  00005                    2100 SR        000000000000 DENSO TEN (THAILAND)18021UU0006006                                                                                                                              *          20180208 IMCT                IMCT                                                                                                                    WMF1802085.TXT
MDEUJ2225301201802                D89828070200PV4U20180213000030SPEAKER ASM                   M IMCTM S0FR05 TNTH  07070IMCT  S0 PTB  00005                    2230 SR        000000000000 DENSO TEN (THAILAND)18016UU0003003                                                                                                                              *          20180208 IMCT                IMCT                                                                                                                    WMF1802085.TXT
MDEUJ2225302201802                D89828070300PT4U20180212000060SPEAKER ASM                   M IMCTM S9TS02 TNTH  07070IMCT  S9 PTB  00015                    2230 SR        000000000000 DENSO TEN (THAILAND)18020UU000200218021UU0004004                                                                                                                *          20180208 IMCT                IMCT                                                                                                                    WMF1802085.TXT
MDEUJ2225303201802                D89828070300PT4U20180213000030SPEAKER ASM                   M IMCTM S9TS02 TNTH  07070IMCT  S9 PTB  00015                    0230 SR        000000000000 DENSO TEN (THAILAND)18015UU0002002                                                                                                                              *          20180208 IMCT                IMCT                                                                                                                    WMF1802085.TXT
MDEUJ2225304201802                D89828070300PT4U20180213000030SPEAKER ASM                   M IMCTM S9TS02 TNTH  07070IMCT  S9 PTB  00015                    0400 SR        000000000000 DENSO TEN (THAILAND)18060UU0004004                                                                                                                              *          20180208 IMCT                IMCT                                                                                                                    WMF1802085.TXT
MDEUJ2225305201802                D89828070300PT4U20180213000030SPEAKER ASM                   M IMCTM S9TS02 TNTH  07070IMCT  S9 PTB  00015                    0830 SR        000000000000 DENSO TEN (THAILAND)18014UU0001001                                                                                                                              *          20180208 IMCT                IMCT                                                                                                                    WMF1802085.TXT
MDEUJ2225306201802                D89828070300PT4U20180213000030SPEAKER ASM                   M IMCTM S9TS02 TNTH  07070IMCT  S9 PTB  00015                    1030 SR        000000000000 DENSO TEN (THAILAND)18025UU0031031                                                                                                                              *          20180208 IMCT                IMCT                                                                                                                    WMF1802085.TXT
MDEUJ2225307201802                D89828070300PT4U20180213000030SPEAKER ASM                   M IMCTM S9TS02 TNTH  07070IMCT  S9 PTB  00015                    1300 SR        000000000000 DENSO TEN (THAILAND)18021UU0005005                                                                                                                              *          20180208 IMCT                IMCT                                                                                                                    WMF1802085.TXT
MDEUJ2225308201802                D89828070300PT4U20180213000090SPEAKER ASM                   M IMCTM S9TS02 TNTH  07070IMCT  S9 PTB  00015                    1600 SR        000000000000 DENSO TEN (THAILAND)18014UU000200218020UU0003004                                                                                                                *          20180208 IMCT                IMCT                                                                                                                    WMF1802085.TXT
MDEUJ2225309201802                D89828070300PT4U20180213000030SPEAKER ASM                   M IMCTM S9TS02 TNTH  07070IMCT  S9 PTB  00015                    2100 SR        000000000000 DENSO TEN (THAILAND)18021UU0006006                                                                                                                              *          20180208 IMCT                IMCT                                                                                                                    WMF1802085.TXT
MDEUJ2225310201802                D89828070300PT4U20180213000030SPEAKER ASM                   M IMCTM S9TS02 TNTH  07070IMCT  S9 PTB  00015                    2230 SR        000000000000 DENSO TEN (THAILAND)18016UU0003003                                                                                                                              *          20180208 IMCT                IMCT                                                                                                                    WMF1802085.TXT
MDEUJ2225311201802                D89848584400PT4U20180213000015RADIO;AM/FM CD D              M IMCTM S9CO001TNTH  07070IMCT  S9 PTB  00003                    0400 SR        000000000000 DENSO TEN (THAILAND)18060UU0004004                                                                                                                              *          20180208 IMCT                IMCT                                                                                                                    WMF1802085.TXT
MDEUJ2225312201802                D89848584700PT4U20180213000015RADIO;AM/FM CD D              M IMCTM S9CO001TNTH  07070IMCT  S9 PTB  00003                    0830 SR        000000000000 DENSO TEN (THAILAND)18014UU0001001                                                                                                                              *          20180208 IMCT                IMCT                                                                                                                    WMF1802085.TXT
MDEUJ2225313201802                D89848584700PT4U20180213000015RADIO;AM/FM CD D              M IMCTM S9CO001TNTH  07070IMCT  S9 PTB  00003                    1600 SR        000000000000 DENSO TEN (THAILAND)18014UU0002002                                                                                                                              *          20180208 IMCT                IMCT                                                                                                                    WMF1802085.TXT
