REC2018020620180206ISUZU                              59     
MDDDJ2228960201802                D89821984430PT1D20180209000030RADIO;AM/FM,CD                M IMCTM S5NC06 TNTH  07070IMCT  S5 PTB  00005                    2230 SR        000000000000 DENSO TEN (THAILAND)180LRAL0128128                                                                                                                              *          20180206 IMCT                IMCT                                                                                                                    WMF1802064.TXT
MDDDJ2228961201802                D89821984430PT1D20180210000030RADIO;AM/FM,CD                M IMCTM S5NC06 TNTH  07070IMCT  S5 PTB  00005                    0400 SR        000000000000 DENSO TEN (THAILAND)180LRAL0129129                                                                                                                              *          20180206 IMCT                IMCT                                                                                                                    WMF1802064.TXT
MDDDJ2228962201802                D89821984430PT1D20180210000030RADIO;AM/FM,CD                M IMCTM S5NC06 TNTH  07070IMCT  S5 PTB  00005                    0830 SR        000000000000 DENSO TEN (THAILAND)180LPAL0079079                                                                                                                              *          20180206 IMCT                IMCT                                                                                                                    WMF1802064.TXT
MDDDJ2228963201802                D89821984430PT1D20180210000060RADIO;AM/FM,CD                M IMCTM S5NC06 TNTH  07070IMCT  S5 PTB  00005                    1300 SR        000000000000 DENSO TEN (THAILAND)180LNHL0032032180LRAL0130130                                                                                                                *          20180206 IMCT                IMCT                                                                                                                    WMF1802064.TXT
MDDDJ2228964201802                D89828070100PV1D20180209000120SPEAKER ASM                   M IMCTM S5MB11 TNTH  07070IMCT  S5 PTB  00004                    2230 SR        000000000000 DENSO TEN (THAILAND)180LPCL0035035180LRAL0128128                                                                                                                *          20180206 IMCT                IMCT                                                                                                                    WMF1802064.TXT
MDDDJ2228965201802                D89828070100PV1D20180210000060SPEAKER ASM                   M IMCTM S5MB11 TNTH  07070IMCT  S5 PTB  00004                    0400 SR        000000000000 DENSO TEN (THAILAND)180LRAL0129129                                                                                                                              *          20180206 IMCT                IMCT                                                                                                                    WMF1802064.TXT
MDDDJ2228966201802                D89828070100PV1D20180210000060SPEAKER ASM                   M IMCTM S5MB11 TNTH  07070IMCT  S5 PTB  00004                    0830 SR        000000000000 DENSO TEN (THAILAND)180LPAL0079079                                                                                                                              *          20180206 IMCT                IMCT                                                                                                                    WMF1802064.TXT
MDDDJ2228967201802                D89828070100PV1D20180210000060SPEAKER ASM                   M IMCTM S5MB11 TNTH  07070IMCT  S5 PTB  00004                    1030 SR        000000000000 DENSO TEN (THAILAND)180LPGL0154154                                                                                                                              *          20180206 IMCT                IMCT                                                                                                                    WMF1802064.TXT
MDDDJ2228968201802                D89828070100PV1D20180210000120SPEAKER ASM                   M IMCTM S5MB11 TNTH  07070IMCT  S5 PTB  00004                    1300 SR        000000000000 DENSO TEN (THAILAND)180LNHL0032032180LRAL0130130                                                                                                                *          20180206 IMCT                IMCT                                                                                                                    WMF1802064.TXT
MDDDJ2228969201802                D89828070100PV1D20180210000120SPEAKER ASM                   M IMCTM S5MB11 TNTH  07070IMCT  S5 PTB  00004                    1600 SR        000000000000 DENSO TEN (THAILAND)180LPEL0009009180LPML0012012                                                                                                                *          20180206 IMCT                IMCT                                                                                                                    WMF1802064.TXT
MDDDJ2228970201802                D89828070300PT1D20180209000060SPEAKER ASM                   M IMCTM S5NB082TNTH  07070IMCT  S5 PTB  00015                    2230 SR        000000000000 DENSO TEN (THAILAND)180LPCL0035035                                                                                                                              *          20180206 IMCT                IMCT                                                                                                                    WMF1802064.TXT
MDDDJ2228971201802                D89828070300PT1D20180210000060SPEAKER ASM                   M IMCTM S5NB082TNTH  07070IMCT  S5 PTB  00015                    1030 SR        000000000000 DENSO TEN (THAILAND)180LPGL0154154                                                                                                                              *          20180206 IMCT                IMCT                                                                                                                    WMF1802064.TXT
MDDDJ2228972201802                D89828070300PT1D20180210000120SPEAKER ASM                   M IMCTM S5NB082TNTH  07070IMCT  S5 PTB  00015                    1600 SR        000000000000 DENSO TEN (THAILAND)180LPEL0009009180LPML0012012                                                                                                                *          20180206 IMCT                IMCT                                                                                                                    WMF1802064.TXT
MDDDJ2228973201802                D89831228300PT1D20180209000030RADIO;AM/FM,CD                M IMCTM S5NC06 TNTH  07070IMCT  S5 CPB  00003                    2230 SR        000000000000 DENSO TEN (THAILAND)180LPCL0035035                                                                                                                              *          20180206 IMCT                IMCT                                                                                                                    WMF1802064.TXT
MDDDJ2228974201802                D89831228300PT1D20180210000030RADIO;AM/FM,CD                M IMCTM S5NC06 TNTH  07070IMCT  S5 CPB  00003                    1030 SR        000000000000 DENSO TEN (THAILAND)180LPGL0154154                                                                                                                              *          20180206 IMCT                IMCT                                                                                                                    WMF1802064.TXT
MDDDJ2228975201802                D89831228300PT1D20180210000030RADIO;AM/FM,CD                M IMCTM S5NC06 TNTH  07070IMCT  S5 CPB  00003                    1600 SR        000000000000 DENSO TEN (THAILAND)180LPEL0009009                                                                                                                              *          20180206 IMCT                IMCT                                                                                                                    WMF1802064.TXT
MDDUJ2221661201802                D89828070100PT4U20180209000030SPEAKER ASM                   M IMCTM S0FL05 TNTH  07070IMCT  S0 PTB  00004                    2230 SR        000000000000 DENSO TEN (THAILAND)180LUTU0021021                                                                                                                              *          20180206 IMCT                IMCT                                                                                                                    WMF1802064.TXT
MDDUJ2221662201802                D89828070100PT4U20180210000030SPEAKER ASM                   M IMCTM S0FL05 TNTH  07070IMCT  S0 PTB  00004                    0230 SR        000000000000 DENSO TEN (THAILAND)180LUSU0037037                                                                                                                              *          20180206 IMCT                IMCT                                                                                                                    WMF1802064.TXT
MDDUJ2221663201802                D89828070100PT4U20180210000030SPEAKER ASM                   M IMCTM S0FL05 TNTH  07070IMCT  S0 PTB  00004                    0400 SR        000000000000 DENSO TEN (THAILAND)180LUMU0011011                                                                                                                              *          20180206 IMCT                IMCT                                                                                                                    WMF1802064.TXT
MDDUJ2221664201802                D89828070100PT4U20180210000030SPEAKER ASM                   M IMCTM S0FL05 TNTH  07070IMCT  S0 PTB  00004                    0830 SR        000000000000 DENSO TEN (THAILAND)180LUSU0038038                                                                                                                              *          20180206 IMCT                IMCT                                                                                                                    WMF1802064.TXT
MDDUJ2221665201802                D89828070100PT4U20180210000030SPEAKER ASM                   M IMCTM S0FL05 TNTH  07070IMCT  S0 PTB  00004                    1030 SR        000000000000 DENSO TEN (THAILAND)180LUTU0022022                                                                                                                              *          20180206 IMCT                IMCT                                                                                                                    WMF1802064.TXT
MDDUJ2221666201802                D89828070100PT4U20180210000030SPEAKER ASM                   M IMCTM S0FL05 TNTH  07070IMCT  S0 PTB  00004                    1600 SR        000000000000 DENSO TEN (THAILAND)180LUTU0023023                                                                                                                              *          20180206 IMCT                IMCT                                                                                                                    WMF1802064.TXT
MDDUJ2221667201802                D89828070100PT4U20180210000030SPEAKER ASM                   M IMCTM S0FL05 TNTH  07070IMCT  S0 PTB  00004                    2230 SR        000000000000 DENSO TEN (THAILAND)180LUTU0024024                                                                                                                              *          20180206 IMCT                IMCT                                                                                                                    WMF1802064.TXT
MDDUJ2221668201802                D89828070200PV4U20180209000030SPEAKER ASM                   M IMCTM S0FR05 TNTH  07070IMCT  S0 PTB  00005                    2230 SR        000000000000 DENSO TEN (THAILAND)180LUTU0021021                                                                                                                              *          20180206 IMCT                IMCT                                                                                                                    WMF1802064.TXT
MDDUJ2221669201802                D89828070200PV4U20180210000030SPEAKER ASM                   M IMCTM S0FR05 TNTH  07070IMCT  S0 PTB  00005                    0230 SR        000000000000 DENSO TEN (THAILAND)180LUSU0037037                                                                                                                              *          20180206 IMCT                IMCT                                                                                                                    WMF1802064.TXT
MDDUJ2221670201802                D89828070200PV4U20180210000030SPEAKER ASM                   M IMCTM S0FR05 TNTH  07070IMCT  S0 PTB  00005                    0400 SR        000000000000 DENSO TEN (THAILAND)180LUMU0011011                                                                                                                              *          20180206 IMCT                IMCT                                                                                                                    WMF1802064.TXT
MDDUJ2221671201802                D89828070200PV4U20180210000030SPEAKER ASM                   M IMCTM S0FR05 TNTH  07070IMCT  S0 PTB  00005                    0830 SR        000000000000 DENSO TEN (THAILAND)180LUSU0038038                                                                                                                              *          20180206 IMCT                IMCT                                                                                                                    WMF1802064.TXT
MDDUJ2221672201802                D89828070200PV4U20180210000030SPEAKER ASM                   M IMCTM S0FR05 TNTH  07070IMCT  S0 PTB  00005                    1030 SR        000000000000 DENSO TEN (THAILAND)180LUTU0022022                                                                                                                              *          20180206 IMCT                IMCT                                                                                                                    WMF1802064.TXT
MDDUJ2221673201802                D89828070200PV4U20180210000030SPEAKER ASM                   M IMCTM S0FR05 TNTH  07070IMCT  S0 PTB  00005                    1600 SR        000000000000 DENSO TEN (THAILAND)180LUTU0023023                                                                                                                              *          20180206 IMCT                IMCT                                                                                                                    WMF1802064.TXT
MDDUJ2221674201802                D89828070200PV4U20180210000030SPEAKER ASM                   M IMCTM S0FR05 TNTH  07070IMCT  S0 PTB  00005                    2230 SR        000000000000 DENSO TEN (THAILAND)180LUTU0024024                                                                                                                              *          20180206 IMCT                IMCT                                                                                                                    WMF1802064.TXT
MDDUJ2221675201802                D89828070300PT4U20180209000030SPEAKER ASM                   M IMCTM S9TS02 TNTH  07070IMCT  S9 PTB  00015                    2230 SR        000000000000 DENSO TEN (THAILAND)180LUTU0021021                                                                                                                              *          20180206 IMCT                IMCT                                                                                                                    WMF1802064.TXT
MDDUJ2221676201802                D89828070300PT4U20180210000030SPEAKER ASM                   M IMCTM S9TS02 TNTH  07070IMCT  S9 PTB  00015                    0230 SR        000000000000 DENSO TEN (THAILAND)180LUSU0037037                                                                                                                              *          20180206 IMCT                IMCT                                                                                                                    WMF1802064.TXT
MDDUJ2221677201802                D89828070300PT4U20180210000030SPEAKER ASM                   M IMCTM S9TS02 TNTH  07070IMCT  S9 PTB  00015                    0400 SR        000000000000 DENSO TEN (THAILAND)180LUMU0011011                                                                                                                              *          20180206 IMCT                IMCT                                                                                                                    WMF1802064.TXT
MDDUJ2221678201802                D89828070300PT4U20180210000030SPEAKER ASM                   M IMCTM S9TS02 TNTH  07070IMCT  S9 PTB  00015                    0830 SR        000000000000 DENSO TEN (THAILAND)180LUSU0038038                                                                                                                              *          20180206 IMCT                IMCT                                                                                                                    WMF1802064.TXT
MDDUJ2221679201802                D89828070300PT4U20180210000030SPEAKER ASM                   M IMCTM S9TS02 TNTH  07070IMCT  S9 PTB  00015                    1030 SR        000000000000 DENSO TEN (THAILAND)180LUTU0022022                                                                                                                              *          20180206 IMCT                IMCT                                                                                                                    WMF1802064.TXT
MDDUJ2221680201802                D89828070300PT4U20180210000030SPEAKER ASM                   M IMCTM S9TS02 TNTH  07070IMCT  S9 PTB  00015                    1600 SR        000000000000 DENSO TEN (THAILAND)180LUTU0023023                                                                                                                              *          20180206 IMCT                IMCT                                                                                                                    WMF1802064.TXT
MDDUJ2221681201802                D89828070300PT4U20180210000030SPEAKER ASM                   M IMCTM S9TS02 TNTH  07070IMCT  S9 PTB  00015                    2230 SR        000000000000 DENSO TEN (THAILAND)180LUTU0024024                                                                                                                              *          20180206 IMCT                IMCT                                                                                                                    WMF1802064.TXT
MDEDJ2220198201802                D89828070100PV1D20180210000060SPEAKER ASM                   M IMCTM S5MB11 TNTH  07070IMCT  S5 PTB  00004                    0230 SR        000000000000 DENSO TEN (THAILAND)17085RL0023024                                                                                                                              *          20180206 IMCT                IMCT                                                                                                                    WMF1802064.TXT
MDEDJ2220199201802                D89828070100PV1D20180210000030SPEAKER ASM                   M IMCTM S5MB11 TNTH  07070IMCT  S5 PTB  00004                    0400 SR        000000000000 DENSO TEN (THAILAND)17054PL0061061                                                                                                                              *          20180206 IMCT                IMCT                                                                                                                    WMF1802064.TXT
MDEDJ2220200201802                D89828070100PV1D20180210000030SPEAKER ASM                   M IMCTM S5MB11 TNTH  07070IMCT  S5 PTB  00004                    0830 SR        000000000000 DENSO TEN (THAILAND)17061PL0024024                                                                                                                              *          20180206 IMCT                IMCT                                                                                                                    WMF1802064.TXT
MDEDJ2220201201802                D89828070100PV1D20180210000030SPEAKER ASM                   M IMCTM S5MB11 TNTH  07070IMCT  S5 PTB  00004                    2100 SR        000000000000 DENSO TEN (THAILAND)18098UL0001001                                                                                                                              *          20180206 IMCT                IMCT                                                                                                                    WMF1802064.TXT
MDEDJ2220202201802                D89828070100PV4D20180210000030SPEAKER ASM                   M IMCTM S0FL05 TNTH  07070IMCT  S0 PTB  00004                    0400 SR        000000000000 DENSO TEN (THAILAND)17075PU0020020                                                                                                                              *          20180206 IMCT                IMCT                                                                                                                    WMF1802064.TXT
MDEDJ2220203201802                D89828070100PV4D20180210000030SPEAKER ASM                   M IMCTM S0FL05 TNTH  07070IMCT  S0 PTB  00004                    1300 SR        000000000000 DENSO TEN (THAILAND)18007ZU0025025                                                                                                                              *          20180206 IMCT                IMCT                                                                                                                    WMF1802064.TXT
MDEDJ2220204201802                D89828070100PV4D20180210000030SPEAKER ASM                   M IMCTM S0FL05 TNTH  07070IMCT  S0 PTB  00004                    2100 SR        000000000000 DENSO TEN (THAILAND)17033QU0007007                                                                                                                              *          20180206 IMCT                IMCT                                                                                                                    WMF1802064.TXT
MDEDJ2220205201802                D89828070200PV1D20180210000030SPEAKER ASM                   M IMCTM S5MA14 TNTH  07070IMCT  S5 PTB  00005                    2100 SR        000000000000 DENSO TEN (THAILAND)18098UL0001001                                                                                                                              *          20180206 IMCT                IMCT                                                                                                                    WMF1802064.TXT
MDEDJ2220206201802                D89828070200PV4D20180210000030SPEAKER ASM                   M IMCTM S0FR05 TNTH  07070IMCT  S0 PTB  00005                    2100 SR        000000000000 DENSO TEN (THAILAND)17033QU0007007                                                                                                                              *          20180206 IMCT                IMCT                                                                                                                    WMF1802064.TXT
MDEDJ2220207201802                D89828070300PT1D20180210000030SPEAKER ASM                   M IMCTM S5NB082TNTH  07070IMCT  S5 PTB  00015                    2100 SR        000000000000 DENSO TEN (THAILAND)18098UL0001001                                                                                                                              *          20180206 IMCT                IMCT                                                                                                                    WMF1802064.TXT
MDEDJ2220208201802                D89828070300PT4D20180210000030SPEAKER ASM                   M IMCTM S9TS02 TNTH  07070IMCT  S9 PTB  00015                    2100 SR        000000000000 DENSO TEN (THAILAND)17033QU0007007                                                                                                                              *          20180206 IMCT                IMCT                                                                                                                    WMF1802064.TXT
MDEDJ2220209201802                D89831229200PT4D20180210000015RADIO;AM/FM,CD                M IMCTM S9CO001TNTH  07070IMCT  S9 PTB  00003                    2100 SR        000000000000 DENSO TEN (THAILAND)17033QU0007007                                                                                                                              *          20180206 IMCT                IMCT                                                                                                                    WMF1802064.TXT
MDEDJ2220210201802                D89848581800PT1D20180210000015RADIO;AM/FM CD D              M IMCTM S5NC06 TNTH  07070IMCT  S5 PTB  00003                    2100 SR        000000000000 DENSO TEN (THAILAND)18098UL0001001                                                                                                                              *          20180206 IMCT                IMCT                                                                                                                    WMF1802064.TXT
MDEUJ2213902201802                D89828070100PT4U20180210000030SPEAKER ASM                   M IMCTM S0FL05 TNTH  07070IMCT  S0 PTB  00004                    1030 SR        000000000000 DENSO TEN (THAILAND)18026UU0174174                                                                                                                              *          20180206 IMCT                IMCT                                                                                                                    WMF1802064.TXT
MDEUJ2213903201802                D89828070100PT4U20180210000030SPEAKER ASM                   M IMCTM S0FL05 TNTH  07070IMCT  S0 PTB  00004                    1300 SR        000000000000 DENSO TEN (THAILAND)18026UU0175175                                                                                                                              *          20180206 IMCT                IMCT                                                                                                                    WMF1802064.TXT
MDEUJ2213904201802                D89828070100PT4U20180210000030SPEAKER ASM                   M IMCTM S0FL05 TNTH  07070IMCT  S0 PTB  00004                    2100 SR        000000000000 DENSO TEN (THAILAND)18026UU0176176                                                                                                                              *          20180206 IMCT                IMCT                                                                                                                    WMF1802064.TXT
MDEUJ2213905201802                D89828070200PV4U20180210000030SPEAKER ASM                   M IMCTM S0FR05 TNTH  07070IMCT  S0 PTB  00005                    1030 SR        000000000000 DENSO TEN (THAILAND)18026UU0174174                                                                                                                              *          20180206 IMCT                IMCT                                                                                                                    WMF1802064.TXT
MDEUJ2213906201802                D89828070200PV4U20180210000030SPEAKER ASM                   M IMCTM S0FR05 TNTH  07070IMCT  S0 PTB  00005                    1300 SR        000000000000 DENSO TEN (THAILAND)18026UU0175175                                                                                                                              *          20180206 IMCT                IMCT                                                                                                                    WMF1802064.TXT
MDEUJ2213907201802                D89828070200PV4U20180210000030SPEAKER ASM                   M IMCTM S0FR05 TNTH  07070IMCT  S0 PTB  00005                    2100 SR        000000000000 DENSO TEN (THAILAND)18026UU0176176                                                                                                                              *          20180206 IMCT                IMCT                                                                                                                    WMF1802064.TXT
MDEUJ2213908201802                D89828070300PT4U20180210000030SPEAKER ASM                   M IMCTM S9TS02 TNTH  07070IMCT  S9 PTB  00015                    1030 SR        000000000000 DENSO TEN (THAILAND)18026UU0174174                                                                                                                              *          20180206 IMCT                IMCT                                                                                                                    WMF1802064.TXT
MDEUJ2213909201802                D89828070300PT4U20180210000030SPEAKER ASM                   M IMCTM S9TS02 TNTH  07070IMCT  S9 PTB  00015                    1300 SR        000000000000 DENSO TEN (THAILAND)18026UU0175175                                                                                                                              *          20180206 IMCT                IMCT                                                                                                                    WMF1802064.TXT
MDEUJ2213910201802                D89828070300PT4U20180210000030SPEAKER ASM                   M IMCTM S9TS02 TNTH  07070IMCT  S9 PTB  00015                    2100 SR        000000000000 DENSO TEN (THAILAND)18026UU0176176                                                                                                                              *          20180206 IMCT                IMCT                                                                                                                    WMF1802064.TXT
