REC2018021220180212ISUZU                              60     
MDDDJ2244097201802                D89821984430PT1D20180215000030RADIO;AM/FM,CD                M IMCTM S5NC06 TNTH  07070IMCT  S5 PTB  00005                    2230 SR        000000000000 DENSO TEN (THAILAND)180LXCL0010010                                                                                                                              *          20180212 IMCT                IMCT                                                                                                                    WMF1802123.TXT
MDDDJ2244098201802                D89821984430PT1D20180216000030RADIO;AM/FM,CD                M IMCTM S5NC06 TNTH  07070IMCT  S5 PTB  00005                    0830 SR        000000000000 DENSO TEN (THAILAND)180LPAL0081081                                                                                                                              *          20180212 IMCT                IMCT                                                                                                                    WMF1802123.TXT
MDDDJ2244099201802                D89821984430PT1D20180216000030RADIO;AM/FM,CD                M IMCTM S5NC06 TNTH  07070IMCT  S5 PTB  00005                    1600 SR        000000000000 DENSO TEN (THAILAND)180LNGL0088088                                                                                                                              *          20180212 IMCT                IMCT                                                                                                                    WMF1802123.TXT
MDDDJ2244100201802                D89828070100PV1D20180215000060SPEAKER ASM                   M IMCTM S5MB11 TNTH  07070IMCT  S5 PTB  00004                    2230 SR        000000000000 DENSO TEN (THAILAND)180LXCL0010010                                                                                                                              *          20180212 IMCT                IMCT                                                                                                                    WMF1802123.TXT
MDDDJ2244101201802                D89828070100PV1D20180216000060SPEAKER ASM                   M IMCTM S5MB11 TNTH  07070IMCT  S5 PTB  00004                    0830 SR        000000000000 DENSO TEN (THAILAND)180LPAL0081081                                                                                                                              *          20180212 IMCT                IMCT                                                                                                                    WMF1802123.TXT
MDDDJ2244102201802                D89828070100PV1D20180216000060SPEAKER ASM                   M IMCTM S5MB11 TNTH  07070IMCT  S5 PTB  00004                    1300 SR        000000000000 DENSO TEN (THAILAND)180LPEL0011011                                                                                                                              *          20180212 IMCT                IMCT                                                                                                                    WMF1802123.TXT
MDDDJ2244103201802                D89828070100PV1D20180216000060SPEAKER ASM                   M IMCTM S5MB11 TNTH  07070IMCT  S5 PTB  00004                    1600 SR        000000000000 DENSO TEN (THAILAND)180LNGL0088088                                                                                                                              *          20180212 IMCT                IMCT                                                                                                                    WMF1802123.TXT
MDDDJ2244104201802                D89828070300PT1D20180216000060SPEAKER ASM                   M IMCTM S5NB082TNTH  07070IMCT  S5 PTB  00015                    1300 SR        000000000000 DENSO TEN (THAILAND)180LPEL0011011                                                                                                                              *          20180212 IMCT                IMCT                                                                                                                    WMF1802123.TXT
MDDDJ2244105201802                D89831228300PT1D20180216000030RADIO;AM/FM,CD                M IMCTM S5NC06 TNTH  07070IMCT  S5 CPB  00003                    1300 SR        000000000000 DENSO TEN (THAILAND)180LPEL0011011                                                                                                                              *          20180212 IMCT                IMCT                                                                                                                    WMF1802123.TXT
MDEDJ2263157201802                D89828070100PV1D20180216000030SPEAKER ASM                   M IMCTM S5MB11 TNTH  07070IMCT  S5 PTB  00004                    0230 SR        000000000000 DENSO TEN (THAILAND)18099UL0010010                                                                                                                              *          20180212 IMCT                IMCT                                                                                                                    WMF1802123.TXT
MDEDJ2263158201802                D89828070100PV1D20180216000180SPEAKER ASM                   M IMCTM S5MB11 TNTH  07070IMCT  S5 PTB  00004                    0400 SR        000000000000 DENSO TEN (THAILAND)17021QL001701717075PL010210318063UL000100218099UL0011011                                                                                    *          20180212 IMCT                IMCT                                                                                                                    WMF1802123.TXT
MDEDJ2263159201802                D89828070100PV1D20180216000030SPEAKER ASM                   M IMCTM S5MB11 TNTH  07070IMCT  S5 PTB  00004                    0830 SR        000000000000 DENSO TEN (THAILAND)17021QL0018018                                                                                                                              *          20180212 IMCT                IMCT                                                                                                                    WMF1802123.TXT
MDEDJ2263160201802                D89828070100PV1D20180216000060SPEAKER ASM                   M IMCTM S5MB11 TNTH  07070IMCT  S5 PTB  00004                    1030 SR        000000000000 DENSO TEN (THAILAND)18099UL0012013                                                                                                                              *          20180212 IMCT                IMCT                                                                                                                    WMF1802123.TXT
MDEDJ2263161201802                D89828070100PV1D20180216000060SPEAKER ASM                   M IMCTM S5MB11 TNTH  07070IMCT  S5 PTB  00004                    1300 SR        000000000000 DENSO TEN (THAILAND)18098UL0006007                                                                                                                              *          20180212 IMCT                IMCT                                                                                                                    WMF1802123.TXT
MDEDJ2263162201802                D89828070100PV1D20180216000060SPEAKER ASM                   M IMCTM S5MB11 TNTH  07070IMCT  S5 PTB  00004                    2100 SR        000000000000 DENSO TEN (THAILAND)18082UL0016017                                                                                                                              *          20180212 IMCT                IMCT                                                                                                                    WMF1802123.TXT
MDEDJ2263163201802                D89828070100PV1D20180216000030SPEAKER ASM                   M IMCTM S5MB11 TNTH  07070IMCT  S5 PTB  00004                    2230 SR        000000000000 DENSO TEN (THAILAND)17054PL0063063                                                                                                                              *          20180212 IMCT                IMCT                                                                                                                    WMF1802123.TXT
MDEDJ2263164201802                D89828070100PV4D20180216000030SPEAKER ASM                   M IMCTM S0FL05 TNTH  07070IMCT  S0 PTB  00004                    0400 SR        000000000000 DENSO TEN (THAILAND)18067UU0002002                                                                                                                              *          20180212 IMCT                IMCT                                                                                                                    WMF1802123.TXT
MDEDJ2263165201802                D89828070100PV4D20180216000030SPEAKER ASM                   M IMCTM S0FL05 TNTH  07070IMCT  S0 PTB  00004                    0830 SR        000000000000 DENSO TEN (THAILAND)18063UU0007007                                                                                                                              *          20180212 IMCT                IMCT                                                                                                                    WMF1802123.TXT
MDEDJ2263166201802                D89828070100PV4D20180216000030SPEAKER ASM                   M IMCTM S0FL05 TNTH  07070IMCT  S0 PTB  00004                    1300 SR        000000000000 DENSO TEN (THAILAND)18061UU0006006                                                                                                                              *          20180212 IMCT                IMCT                                                                                                                    WMF1802123.TXT
MDEDJ2263167201802                D89828070100PV4D20180216000030SPEAKER ASM                   M IMCTM S0FL05 TNTH  07070IMCT  S0 PTB  00004                    2230 SR        000000000000 DENSO TEN (THAILAND)18063UU0008008                                                                                                                              *          20180212 IMCT                IMCT                                                                                                                    WMF1802123.TXT
MDEDJ2263168201802                D89828070200PV1D20180216000030SPEAKER ASM                   M IMCTM S5MA14 TNTH  07070IMCT  S5 PTB  00005                    0230 SR        000000000000 DENSO TEN (THAILAND)18099UL0010010                                                                                                                              *          20180212 IMCT                IMCT                                                                                                                    WMF1802123.TXT
MDEDJ2263169201802                D89828070200PV1D20180216000030SPEAKER ASM                   M IMCTM S5MA14 TNTH  07070IMCT  S5 PTB  00005                    0400 SR        000000000000 DENSO TEN (THAILAND)18099UL0011011                                                                                                                              *          20180212 IMCT                IMCT                                                                                                                    WMF1802123.TXT
MDEDJ2263170201802                D89828070200PV1D20180216000060SPEAKER ASM                   M IMCTM S5MA14 TNTH  07070IMCT  S5 PTB  00005                    1030 SR        000000000000 DENSO TEN (THAILAND)18099UL0012013                                                                                                                              *          20180212 IMCT                IMCT                                                                                                                    WMF1802123.TXT
MDEDJ2263171201802                D89828070200PV1D20180216000060SPEAKER ASM                   M IMCTM S5MA14 TNTH  07070IMCT  S5 PTB  00005                    1300 SR        000000000000 DENSO TEN (THAILAND)18098UL0006007                                                                                                                              *          20180212 IMCT                IMCT                                                                                                                    WMF1802123.TXT
MDEDJ2263172201802                D89828070200PV1D20180216000060SPEAKER ASM                   M IMCTM S5MA14 TNTH  07070IMCT  S5 PTB  00005                    2100 SR        000000000000 DENSO TEN (THAILAND)18082UL0016017                                                                                                                              *          20180212 IMCT                IMCT                                                                                                                    WMF1802123.TXT
MDEDJ2263173201802                D89828070200PV4D20180216000030SPEAKER ASM                   M IMCTM S0FR05 TNTH  07070IMCT  S0 PTB  00005                    0400 SR        000000000000 DENSO TEN (THAILAND)18067UU0002002                                                                                                                              *          20180212 IMCT                IMCT                                                                                                                    WMF1802123.TXT
MDEDJ2263174201802                D89828070300PT1D20180216000030SPEAKER ASM                   M IMCTM S5NB082TNTH  07070IMCT  S5 PTB  00015                    0230 SR        000000000000 DENSO TEN (THAILAND)18099UL0010010                                                                                                                              *          20180212 IMCT                IMCT                                                                                                                    WMF1802123.TXT
MDEDJ2263175201802                D89828070300PT1D20180216000090SPEAKER ASM                   M IMCTM S5NB082TNTH  07070IMCT  S5 PTB  00015                    0400 SR        000000000000 DENSO TEN (THAILAND)18063UL000100218099UL0011011                                                                                                                *          20180212 IMCT                IMCT                                                                                                                    WMF1802123.TXT
MDEDJ2263176201802                D89828070300PT1D20180216000060SPEAKER ASM                   M IMCTM S5NB082TNTH  07070IMCT  S5 PTB  00015                    1030 SR        000000000000 DENSO TEN (THAILAND)18099UL0012013                                                                                                                              *          20180212 IMCT                IMCT                                                                                                                    WMF1802123.TXT
MDEDJ2263177201802                D89828070300PT1D20180216000060SPEAKER ASM                   M IMCTM S5NB082TNTH  07070IMCT  S5 PTB  00015                    1300 SR        000000000000 DENSO TEN (THAILAND)18098UL0006007                                                                                                                              *          20180212 IMCT                IMCT                                                                                                                    WMF1802123.TXT
MDEDJ2263178201802                D89828070300PT1D20180216000060SPEAKER ASM                   M IMCTM S5NB082TNTH  07070IMCT  S5 PTB  00015                    2100 SR        000000000000 DENSO TEN (THAILAND)18082UL0016017                                                                                                                              *          20180212 IMCT                IMCT                                                                                                                    WMF1802123.TXT
MDEDJ2263179201802                D89828070300PT4D20180216000030SPEAKER ASM                   M IMCTM S9TS02 TNTH  07070IMCT  S9 PTB  00015                    0400 SR        000000000000 DENSO TEN (THAILAND)18067UU0002002                                                                                                                              *          20180212 IMCT                IMCT                                                                                                                    WMF1802123.TXT
MDEDJ2263180201802                D89828070300PT4D20180216000030SPEAKER ASM                   M IMCTM S9TS02 TNTH  07070IMCT  S9 PTB  00015                    0830 SR        000000000000 DENSO TEN (THAILAND)18063UU0007007                                                                                                                              *          20180212 IMCT                IMCT                                                                                                                    WMF1802123.TXT
MDEDJ2263181201802                D89828070300PT4D20180216000030SPEAKER ASM                   M IMCTM S9TS02 TNTH  07070IMCT  S9 PTB  00015                    1300 SR        000000000000 DENSO TEN (THAILAND)18061UU0006006                                                                                                                              *          20180212 IMCT                IMCT                                                                                                                    WMF1802123.TXT
MDEDJ2263182201802                D89828070300PT4D20180216000030SPEAKER ASM                   M IMCTM S9TS02 TNTH  07070IMCT  S9 PTB  00015                    2230 SR        000000000000 DENSO TEN (THAILAND)18063UU0008008                                                                                                                              *          20180212 IMCT                IMCT                                                                                                                    WMF1802123.TXT
MDEDJ2263183201802                D89848581800PT1D20180216000030RADIO;AM/FM CD D              M IMCTM S5NC06 TNTH  07070IMCT  S5 PTB  00003                    0400 SR        000000000000 DENSO TEN (THAILAND)18063UL0001002                                                                                                                              *          20180212 IMCT                IMCT                                                                                                                    WMF1802123.TXT
MDEDJ2263184201802                D89848581800PT1D20180216000030RADIO;AM/FM CD D              M IMCTM S5NC06 TNTH  07070IMCT  S5 PTB  00003                    1300 SR        000000000000 DENSO TEN (THAILAND)18098UL0006007                                                                                                                              *          20180212 IMCT                IMCT                                                                                                                    WMF1802123.TXT
MDEDJ2263185201802                D89848581800PT1D20180216000030RADIO;AM/FM CD D              M IMCTM S5NC06 TNTH  07070IMCT  S5 PTB  00003                    2100 SR        000000000000 DENSO TEN (THAILAND)18082UL0016017                                                                                                                              *          20180212 IMCT                IMCT                                                                                                                    WMF1802123.TXT
MDEDJ2263186201802                D89848581800PT4D20180216000015RADIO;AM/FM CD D              M IMCTM S9CO001TNTH  07070IMCT  S9 PTB  00003                    0830 SR        000000000000 DENSO TEN (THAILAND)18063UU0007007                                                                                                                              *          20180212 IMCT                IMCT                                                                                                                    WMF1802123.TXT
MDEDJ2263187201802                D89848581800PT4D20180216000015RADIO;AM/FM CD D              M IMCTM S9CO001TNTH  07070IMCT  S9 PTB  00003                    1300 SR        000000000000 DENSO TEN (THAILAND)18061UU0006006                                                                                                                              *          20180212 IMCT                IMCT                                                                                                                    WMF1802123.TXT
MDEDJ2263188201802                D89848581800PT4D20180216000015RADIO;AM/FM CD D              M IMCTM S9CO001TNTH  07070IMCT  S9 PTB  00003                    2230 SR        000000000000 DENSO TEN (THAILAND)18063UU0008008                                                                                                                              *          20180212 IMCT                IMCT                                                                                                                    WMF1802123.TXT
MDEUJ2245501201802                D89828070100PT4U20180216000030SPEAKER ASM                   M IMCTM S0FL05 TNTH  07070IMCT  S0 PTB  00004                    0230 SR        000000000000 DENSO TEN (THAILAND)18026UU0177177                                                                                                                              *          20180212 IMCT                IMCT                                                                                                                    WMF1802123.TXT
MDEUJ2245502201802                D89828070100PT4U20180216000090SPEAKER ASM                   M IMCTM S0FL05 TNTH  07070IMCT  S0 PTB  00004                    0400 SR        000000000000 DENSO TEN (THAILAND)18020UU001001018021UU001301318034TU0001001                                                                                                  *          20180212 IMCT                IMCT                                                                                                                    WMF1802123.TXT
MDEUJ2245503201802                D89828070100PT4U20180216000030SPEAKER ASM                   M IMCTM S0FL05 TNTH  07070IMCT  S0 PTB  00004                    1030 SR        000000000000 DENSO TEN (THAILAND)18016UU0007007                                                                                                                              *          20180212 IMCT                IMCT                                                                                                                    WMF1802123.TXT
MDEUJ2245504201802                D89828070100PT4U20180216000060SPEAKER ASM                   M IMCTM S0FL05 TNTH  07070IMCT  S0 PTB  00004                    1300 SR        000000000000 DENSO TEN (THAILAND)18015UU000500518021UU0014014                                                                                                                *          20180212 IMCT                IMCT                                                                                                                    WMF1802123.TXT
MDEUJ2245505201802                D89828070100PT4U20180216000030SPEAKER ASM                   M IMCTM S0FL05 TNTH  07070IMCT  S0 PTB  00004                    1600 SR        000000000000 DENSO TEN (THAILAND)18021UU0015015                                                                                                                              *          20180212 IMCT                IMCT                                                                                                                    WMF1802123.TXT
MDEUJ2245506201802                D89828070100PT4U20180216000030SPEAKER ASM                   M IMCTM S0FL05 TNTH  07070IMCT  S0 PTB  00004                    2100 SR        000000000000 DENSO TEN (THAILAND)18020UU0011011                                                                                                                              *          20180212 IMCT                IMCT                                                                                                                    WMF1802123.TXT
MDEUJ2245507201802                D89828070200PV4U20180216000030SPEAKER ASM                   M IMCTM S0FR05 TNTH  07070IMCT  S0 PTB  00005                    0230 SR        000000000000 DENSO TEN (THAILAND)18026UU0177177                                                                                                                              *          20180212 IMCT                IMCT                                                                                                                    WMF1802123.TXT
MDEUJ2245508201802                D89828070200PV4U20180216000090SPEAKER ASM                   M IMCTM S0FR05 TNTH  07070IMCT  S0 PTB  00005                    0400 SR        000000000000 DENSO TEN (THAILAND)18020UU001001018021UU001301318034TU0001001                                                                                                  *          20180212 IMCT                IMCT                                                                                                                    WMF1802123.TXT
MDEUJ2245509201802                D89828070200PV4U20180216000030SPEAKER ASM                   M IMCTM S0FR05 TNTH  07070IMCT  S0 PTB  00005                    1030 SR        000000000000 DENSO TEN (THAILAND)18016UU0007007                                                                                                                              *          20180212 IMCT                IMCT                                                                                                                    WMF1802123.TXT
MDEUJ2245510201802                D89828070200PV4U20180216000060SPEAKER ASM                   M IMCTM S0FR05 TNTH  07070IMCT  S0 PTB  00005                    1300 SR        000000000000 DENSO TEN (THAILAND)18015UU000500518021UU0014014                                                                                                                *          20180212 IMCT                IMCT                                                                                                                    WMF1802123.TXT
MDEUJ2245511201802                D89828070200PV4U20180216000030SPEAKER ASM                   M IMCTM S0FR05 TNTH  07070IMCT  S0 PTB  00005                    1600 SR        000000000000 DENSO TEN (THAILAND)18021UU0015015                                                                                                                              *          20180212 IMCT                IMCT                                                                                                                    WMF1802123.TXT
MDEUJ2245512201802                D89828070200PV4U20180216000030SPEAKER ASM                   M IMCTM S0FR05 TNTH  07070IMCT  S0 PTB  00005                    2100 SR        000000000000 DENSO TEN (THAILAND)18020UU0011011                                                                                                                              *          20180212 IMCT                IMCT                                                                                                                    WMF1802123.TXT
MDEUJ2245513201802                D89828070300PT4U20180216000030SPEAKER ASM                   M IMCTM S9TS02 TNTH  07070IMCT  S9 PTB  00015                    0230 SR        000000000000 DENSO TEN (THAILAND)18026UU0177177                                                                                                                              *          20180212 IMCT                IMCT                                                                                                                    WMF1802123.TXT
MDEUJ2245514201802                D89828070300PT4U20180216000090SPEAKER ASM                   M IMCTM S9TS02 TNTH  07070IMCT  S9 PTB  00015                    0400 SR        000000000000 DENSO TEN (THAILAND)18020UU001001018021UU001301318034TU0001001                                                                                                  *          20180212 IMCT                IMCT                                                                                                                    WMF1802123.TXT
MDEUJ2245515201802                D89828070300PT4U20180216000030SPEAKER ASM                   M IMCTM S9TS02 TNTH  07070IMCT  S9 PTB  00015                    1030 SR        000000000000 DENSO TEN (THAILAND)18016UU0007007                                                                                                                              *          20180212 IMCT                IMCT                                                                                                                    WMF1802123.TXT
MDEUJ2245516201802                D89828070300PT4U20180216000060SPEAKER ASM                   M IMCTM S9TS02 TNTH  07070IMCT  S9 PTB  00015                    1300 SR        000000000000 DENSO TEN (THAILAND)18015UU000500518021UU0014014                                                                                                                *          20180212 IMCT                IMCT                                                                                                                    WMF1802123.TXT
MDEUJ2245517201802                D89828070300PT4U20180216000030SPEAKER ASM                   M IMCTM S9TS02 TNTH  07070IMCT  S9 PTB  00015                    1600 SR        000000000000 DENSO TEN (THAILAND)18021UU0015015                                                                                                                              *          20180212 IMCT                IMCT                                                                                                                    WMF1802123.TXT
MDEUJ2245518201802                D89828070300PT4U20180216000030SPEAKER ASM                   M IMCTM S9TS02 TNTH  07070IMCT  S9 PTB  00015                    2100 SR        000000000000 DENSO TEN (THAILAND)18020UU0011011                                                                                                                              *          20180212 IMCT                IMCT                                                                                                                    WMF1802123.TXT
MDEUJ2245519201802                D89831229200PT4U20180216000015RADIO;AM/FM,CD                M IMCTM S9CO001TNTH  07070IMCT  S9 PTB  00003                    0400 SR        000000000000 DENSO TEN (THAILAND)18034TU0001001                                                                                                                              *          20180212 IMCT                IMCT                                                                                                                    WMF1802123.TXT
