REC2018020820180208ISUZU                              17     
MAKK82059012201802D1               89805293700P3YK20180219000090SPEAKER ASM                   M IMCTM CM1    TNTH  07070IMKDC KA PTB  00003  K0                0900DES        000000000000 DENSO TEN (THAILAND)                                                                                                                                            *G         20180208 IMCT                IMCT                                                                                                                    WMF1802081.TXT
MAKK82059013201802D1               89805293700P3YK20180220000090SPEAKER ASM                   M IMCTM CM1    TNTH  07070IMKDC KA PTB  00003  K0                0900DES        000000000000 DENSO TEN (THAILAND)                                                                                                                                            *G         20180208 IMCT                IMCT                                                                                                                    WMF1802081.TXT
MAKK82059014201802D1               89805293700P3YK20180221000120SPEAKER ASM                   M IMCTM CM1    TNTH  07070IMKDC KA PTB  00003  K0                0900DES        000000000000 DENSO TEN (THAILAND)                                                                                                                                            *G         20180208 IMCT                IMCT                                                                                                                    WMF1802081.TXT
MAKK82059015201802D1               89805293700P3YK20180222000120SPEAKER ASM                   M IMCTM CM1    TNTH  07070IMKDC KA PTB  00003  K0                0900DES        000000000000 DENSO TEN (THAILAND)                                                                                                                                            *G         20180208 IMCT                IMCT                                                                                                                    WMF1802081.TXT
MAKK82059016201802D1               89825451200P3YK20180219000060SPEAKER ASM;ROOF              M IMCTM CM1    TNTH  07070IMKDC KA PTB  00036  K0                0900DES        000000000000 DENSO TEN (THAILAND)                                                                                                                                            *G         20180208 IMCT                IMCT                                                                                                                    WMF1802081.TXT
MAKK82059017201802D1               89825451200P3YK20180220000030SPEAKER ASM;ROOF              M IMCTM CM1    TNTH  07070IMKDC KA PTB  00036  K0                0900DES        000000000000 DENSO TEN (THAILAND)                                                                                                                                            *G         20180208 IMCT                IMCT                                                                                                                    WMF1802081.TXT
MAKK82059018201802D1               89825451200P3YK20180221000030SPEAKER ASM;ROOF              M IMCTM CM1    TNTH  07070IMKDC KA PTB  00036  K0                0900DES        000000000000 DENSO TEN (THAILAND)                                                                                                                                            *G         20180208 IMCT                IMCT                                                                                                                    WMF1802081.TXT
MAKK82059019201802D1               89828070100P3YK20180219000240SPEAKER ASM                   M IMCTM CM1    TNTH  07070IMKDC KA PTB  00004  K0                0900DES        000000000000 DENSO TEN (THAILAND)                                                                                                                                            *G         20180208 IMCT                IMCT                                                                                                                    WMF1802081.TXT
MAKK82059020201802D1               89828070100P3YK20180220000120SPEAKER ASM                   M IMCTM CM1    TNTH  07070IMKDC KA PTB  00004  K0                0900DES        000000000000 DENSO TEN (THAILAND)                                                                                                                                            *G         20180208 IMCT                IMCT                                                                                                                    WMF1802081.TXT
MAKK82059021201802D1               89828070100P3YK20180221000120SPEAKER ASM                   M IMCTM CM1    TNTH  07070IMKDC KA PTB  00004  K0                0900DES        000000000000 DENSO TEN (THAILAND)                                                                                                                                            *G         20180208 IMCT                IMCT                                                                                                                    WMF1802081.TXT
MAKK82059022201802D1               89828070100P3YK20180222000150SPEAKER ASM                   M IMCTM CM1    TNTH  07070IMKDC KA PTB  00004  K0                0900DES        000000000000 DENSO TEN (THAILAND)                                                                                                                                            *G         20180208 IMCT                IMCT                                                                                                                    WMF1802081.TXT
MAKK82059023201802D1               89828070200P3YK20180219000090SPEAKER ASM                   M IMCTM CM1    TNTH  07070IMKDC KA PTB  00005  K0                0900DES        000000000000 DENSO TEN (THAILAND)                                                                                                                                            *G         20180208 IMCT                IMCT                                                                                                                    WMF1802081.TXT
MAKK82059024201802D1               89828070200P3YK20180220000030SPEAKER ASM                   M IMCTM CM1    TNTH  07070IMKDC KA PTB  00005  K0                0900DES        000000000000 DENSO TEN (THAILAND)                                                                                                                                            *G         20180208 IMCT                IMCT                                                                                                                    WMF1802081.TXT
MAKK82059025201802D1               89828070200P3YK20180222000030SPEAKER ASM                   M IMCTM CM1    TNTH  07070IMKDC KA PTB  00005  K0                0900DES        000000000000 DENSO TEN (THAILAND)                                                                                                                                            *G         20180208 IMCT                IMCT                                                                                                                    WMF1802081.TXT
MAKK82059026201802D1               89828070300P3YK20180219000120SPEAKER ASM                   M IMCTM CM1    TNTH  07070IMKDC KA PTB  00015  K0                0900DES        000000000000 DENSO TEN (THAILAND)                                                                                                                                            *G         20180208 IMCT                IMCT                                                                                                                    WMF1802081.TXT
MAKK82059027201802D1               89828070300P3YK20180220000030SPEAKER ASM                   M IMCTM CM1    TNTH  07070IMKDC KA PTB  00015  K0                0900DES        000000000000 DENSO TEN (THAILAND)                                                                                                                                            *G         20180208 IMCT                IMCT                                                                                                                    WMF1802081.TXT
MAKK82059028201802D1               89828070300P3YK20180222000030SPEAKER ASM                   M IMCTM CM1    TNTH  07070IMKDC KA PTB  00015  K0                0900DES        000000000000 DENSO TEN (THAILAND)                                                                                                                                            *G         20180208 IMCT                IMCT                                                                                                                    WMF1802081.TXT
