REC2018022720180227ISUZU                              64     
MDDDJ2280593201803                D89821984430PT1D20180302000030RADIO;AM/FM,CD                M IMCTM S5NC06 TNTH  07070IMCT  S5 PTB  00005                    2230 SR        000000000000 DENSO TEN (THAILAND)180LPAL0090090                                                                                                                              *          20180227 IMCT                IMCT                                                                                                                    WMF1802275.TXT
MDDDJ2280594201803                D89821984430PT1D20180303000030RADIO;AM/FM,CD                M IMCTM S5NC06 TNTH  07070IMCT  S5 PTB  00005                    0830 SR        000000000000 DENSO TEN (THAILAND)180LPAL0091091                                                                                                                              *          20180227 IMCT                IMCT                                                                                                                    WMF1802275.TXT
MDDDJ2280595201803                D89821984430PT1D20180303000030RADIO;AM/FM,CD                M IMCTM S5NC06 TNTH  07070IMCT  S5 PTB  00005                    1030 SR        000000000000 DENSO TEN (THAILAND)180LPAL0092092                                                                                                                              *          20180227 IMCT                IMCT                                                                                                                    WMF1802275.TXT
MDDDJ2280596201803                D89821984430PT1D20180303000030RADIO;AM/FM,CD                M IMCTM S5NC06 TNTH  07070IMCT  S5 PTB  00005                    1300 SR        000000000000 DENSO TEN (THAILAND)180LNCL0033033                                                                                                                              *          20180227 IMCT                IMCT                                                                                                                    WMF1802275.TXT
MDDDJ2280597201803                D89828070100PV1D20180302000060SPEAKER ASM                   M IMCTM S5MB11 TNTH  07070IMCT  S5 PTB  00004                    2230 SR        000000000000 DENSO TEN (THAILAND)180LPAL0090090                                                                                                                              *          20180227 IMCT                IMCT                                                                                                                    WMF1802275.TXT
MDDDJ2280598201803                D89828070100PV1D20180303000060SPEAKER ASM                   M IMCTM S5MB11 TNTH  07070IMCT  S5 PTB  00004                    0830 SR        000000000000 DENSO TEN (THAILAND)180LPAL0091091                                                                                                                              *          20180227 IMCT                IMCT                                                                                                                    WMF1802275.TXT
MDDDJ2280599201803                D89828070100PV1D20180303000060SPEAKER ASM                   M IMCTM S5MB11 TNTH  07070IMCT  S5 PTB  00004                    1030 SR        000000000000 DENSO TEN (THAILAND)180LPAL0092092                                                                                                                              *          20180227 IMCT                IMCT                                                                                                                    WMF1802275.TXT
MDDDJ2280600201803                D89828070100PV1D20180303000060SPEAKER ASM                   M IMCTM S5MB11 TNTH  07070IMCT  S5 PTB  00004                    1300 SR        000000000000 DENSO TEN (THAILAND)180LNCL0033033                                                                                                                              *          20180227 IMCT                IMCT                                                                                                                    WMF1802275.TXT
MDDDJ2280601201803                D89828070100PV1D20180303000060SPEAKER ASM                   M IMCTM S5MB11 TNTH  07070IMCT  S5 PTB  00004                    2100 SR        000000000000 DENSO TEN (THAILAND)180LNAL0026026                                                                                                                              *          20180227 IMCT                IMCT                                                                                                                    WMF1802275.TXT
MDDUJ2228421201803                D89828070100PT4U20180303000030SPEAKER ASM                   M IMCTM S0FL05 TNTH  07070IMCT  S0 PTB  00004                    0230 SR        000000000000 DENSO TEN (THAILAND)180LURU0022022                                                                                                                              *          20180227 IMCT                IMCT                                                                                                                    WMF1802275.TXT
MDDUJ2228422201803                D89828070100PT4U20180303000030SPEAKER ASM                   M IMCTM S0FL05 TNTH  07070IMCT  S0 PTB  00004                    1030 SR        000000000000 DENSO TEN (THAILAND)180LULU0013013                                                                                                                              *          20180227 IMCT                IMCT                                                                                                                    WMF1802275.TXT
MDDUJ2228423201803                D89828070200PV4U20180303000030SPEAKER ASM                   M IMCTM S0FR05 TNTH  07070IMCT  S0 PTB  00005                    0230 SR        000000000000 DENSO TEN (THAILAND)180LURU0022022                                                                                                                              *          20180227 IMCT                IMCT                                                                                                                    WMF1802275.TXT
MDDUJ2228424201803                D89828070200PV4U20180303000030SPEAKER ASM                   M IMCTM S0FR05 TNTH  07070IMCT  S0 PTB  00005                    1030 SR        000000000000 DENSO TEN (THAILAND)180LULU0013013                                                                                                                              *          20180227 IMCT                IMCT                                                                                                                    WMF1802275.TXT
MDDUJ2228425201803                D89828070300PT4U20180303000030SPEAKER ASM                   M IMCTM S9TS02 TNTH  07070IMCT  S9 PTB  00015                    0230 SR        000000000000 DENSO TEN (THAILAND)180LURU0022022                                                                                                                              *          20180227 IMCT                IMCT                                                                                                                    WMF1802275.TXT
MDDUJ2228426201803                D89828070300PT4U20180303000030SPEAKER ASM                   M IMCTM S9TS02 TNTH  07070IMCT  S9 PTB  00015                    1030 SR        000000000000 DENSO TEN (THAILAND)180LULU0013013                                                                                                                              *          20180227 IMCT                IMCT                                                                                                                    WMF1802275.TXT
MDEDJ2368229201803                D89828070100PV1D20180302000090SPEAKER ASM                   M IMCTM S5MB11 TNTH  07070IMCT  S5 PTB  00004                    2230 SR        000000000000 DENSO TEN (THAILAND)17075PL012012018082XL000400418098XL0002002                                                                                                  *          20180227 IMCT                IMCT                                                                                                                    WMF1802275.TXT
MDEDJ2368230201803                D89828070100PV1D20180303000030SPEAKER ASM                   M IMCTM S5MB11 TNTH  07070IMCT  S5 PTB  00004                    0230 SR        000000000000 DENSO TEN (THAILAND)18018XL0001001                                                                                                                              *          20180227 IMCT                IMCT                                                                                                                    WMF1802275.TXT
MDEDJ2368231201803                D89828070100PV1D20180303000090SPEAKER ASM                   M IMCTM S5MB11 TNTH  07070IMCT  S5 PTB  00004                    0400 SR        000000000000 DENSO TEN (THAILAND)17072QL000300318098XL000300318099XL0002002                                                                                                  *          20180227 IMCT                IMCT                                                                                                                    WMF1802275.TXT
MDEDJ2368232201803                D89828070100PV1D20180303000030SPEAKER ASM                   M IMCTM S5MB11 TNTH  07070IMCT  S5 PTB  00004                    0830 SR        000000000000 DENSO TEN (THAILAND)18007YL0001001                                                                                                                              *          20180227 IMCT                IMCT                                                                                                                    WMF1802275.TXT
MDEDJ2368233201803                D89828070100PV1D20180303000030SPEAKER ASM                   M IMCTM S5MB11 TNTH  07070IMCT  S5 PTB  00004                    1030 SR        000000000000 DENSO TEN (THAILAND)18099XL0003003                                                                                                                              *          20180227 IMCT                IMCT                                                                                                                    WMF1802275.TXT
MDEDJ2368234201803                D89828070100PV1D20180303000060SPEAKER ASM                   M IMCTM S5MB11 TNTH  07070IMCT  S5 PTB  00004                    1300 SR        000000000000 DENSO TEN (THAILAND)18006YL000200218099XL0004004                                                                                                                *          20180227 IMCT                IMCT                                                                                                                    WMF1802275.TXT
MDEDJ2368235201803                D89828070100PV1D20180303000060SPEAKER ASM                   M IMCTM S5MB11 TNTH  07070IMCT  S5 PTB  00004                    1600 SR        000000000000 DENSO TEN (THAILAND)17028RL002602618029XL0001001                                                                                                                *          20180227 IMCT                IMCT                                                                                                                    WMF1802275.TXT
MDEDJ2368236201803                D89828070100PV4D20180303000030SPEAKER ASM                   M IMCTM S0FL05 TNTH  07070IMCT  S0 PTB  00004                    0230 SR        000000000000 DENSO TEN (THAILAND)18076XU0002002                                                                                                                              *          20180227 IMCT                IMCT                                                                                                                    WMF1802275.TXT
MDEDJ2368237201803                D89828070100PV4D20180303000030SPEAKER ASM                   M IMCTM S0FL05 TNTH  07070IMCT  S0 PTB  00004                    0830 SR        000000000000 DENSO TEN (THAILAND)18001VU0005005                                                                                                                              *          20180227 IMCT                IMCT                                                                                                                    WMF1802275.TXT
MDEDJ2368238201803                D89828070100PV4D20180303000030SPEAKER ASM                   M IMCTM S0FL05 TNTH  07070IMCT  S0 PTB  00004                    2230 SR        000000000000 DENSO TEN (THAILAND)18098UU0008008                                                                                                                              *          20180227 IMCT                IMCT                                                                                                                    WMF1802275.TXT
MDEDJ2368239201803                D89828070200PV1D20180302000030SPEAKER ASM                   M IMCTM S5MA14 TNTH  07070IMCT  S5 PTB  00005                    2230 SR        000000000000 DENSO TEN (THAILAND)18098XL0002002                                                                                                                              *          20180227 IMCT                IMCT                                                                                                                    WMF1802275.TXT
MDEDJ2368240201803                D89828070200PV1D20180303000090SPEAKER ASM                   M IMCTM S5MA14 TNTH  07070IMCT  S5 PTB  00005                    0400 SR        000000000000 DENSO TEN (THAILAND)17072QL000300318098XL000300318099XL0002002                                                                                                  *          20180227 IMCT                IMCT                                                                                                                    WMF1802275.TXT
MDEDJ2368241201803                D89828070200PV1D20180303000030SPEAKER ASM                   M IMCTM S5MA14 TNTH  07070IMCT  S5 PTB  00005                    0830 SR        000000000000 DENSO TEN (THAILAND)18007YL0001001                                                                                                                              *          20180227 IMCT                IMCT                                                                                                                    WMF1802275.TXT
MDEDJ2368242201803                D89828070200PV1D20180303000030SPEAKER ASM                   M IMCTM S5MA14 TNTH  07070IMCT  S5 PTB  00005                    1030 SR        000000000000 DENSO TEN (THAILAND)18099XL0003003                                                                                                                              *          20180227 IMCT                IMCT                                                                                                                    WMF1802275.TXT
MDEDJ2368243201803                D89828070200PV1D20180303000060SPEAKER ASM                   M IMCTM S5MA14 TNTH  07070IMCT  S5 PTB  00005                    1300 SR        000000000000 DENSO TEN (THAILAND)18006YL000200218099XL0004004                                                                                                                *          20180227 IMCT                IMCT                                                                                                                    WMF1802275.TXT
MDEDJ2368244201803                D89828070200PV4D20180303000030SPEAKER ASM                   M IMCTM S0FR05 TNTH  07070IMCT  S0 PTB  00005                    0830 SR        000000000000 DENSO TEN (THAILAND)18001VU0005005                                                                                                                              *          20180227 IMCT                IMCT                                                                                                                    WMF1802275.TXT
MDEDJ2368245201803                D89828070200PV4D20180303000030SPEAKER ASM                   M IMCTM S0FR05 TNTH  07070IMCT  S0 PTB  00005                    2230 SR        000000000000 DENSO TEN (THAILAND)18098UU0008008                                                                                                                              *          20180227 IMCT                IMCT                                                                                                                    WMF1802275.TXT
MDEDJ2368246201803                D89828070300PT1D20180302000030SPEAKER ASM                   M IMCTM S5NB082TNTH  07070IMCT  S5 PTB  00015                    2230 SR        000000000000 DENSO TEN (THAILAND)18098XL0002002                                                                                                                              *          20180227 IMCT                IMCT                                                                                                                    WMF1802275.TXT
MDEDJ2368247201803                D89828070300PT1D20180303000030SPEAKER ASM                   M IMCTM S5NB082TNTH  07070IMCT  S5 PTB  00015                    0230 SR        000000000000 DENSO TEN (THAILAND)18018XL0001001                                                                                                                              *          20180227 IMCT                IMCT                                                                                                                    WMF1802275.TXT
MDEDJ2368248201803                D89828070300PT1D20180303000090SPEAKER ASM                   M IMCTM S5NB082TNTH  07070IMCT  S5 PTB  00015                    0400 SR        000000000000 DENSO TEN (THAILAND)17072QL000300318098XL000300318099XL0002002                                                                                                  *          20180227 IMCT                IMCT                                                                                                                    WMF1802275.TXT
MDEDJ2368249201803                D89828070300PT1D20180303000030SPEAKER ASM                   M IMCTM S5NB082TNTH  07070IMCT  S5 PTB  00015                    0830 SR        000000000000 DENSO TEN (THAILAND)18007YL0001001                                                                                                                              *          20180227 IMCT                IMCT                                                                                                                    WMF1802275.TXT
MDEDJ2368250201803                D89828070300PT1D20180303000030SPEAKER ASM                   M IMCTM S5NB082TNTH  07070IMCT  S5 PTB  00015                    1030 SR        000000000000 DENSO TEN (THAILAND)18099XL0003003                                                                                                                              *          20180227 IMCT                IMCT                                                                                                                    WMF1802275.TXT
MDEDJ2368251201803                D89828070300PT1D20180303000060SPEAKER ASM                   M IMCTM S5NB082TNTH  07070IMCT  S5 PTB  00015                    1300 SR        000000000000 DENSO TEN (THAILAND)18006YL000200218099XL0004004                                                                                                                *          20180227 IMCT                IMCT                                                                                                                    WMF1802275.TXT
MDEDJ2368252201803                D89828070300PT1D20180303000030SPEAKER ASM                   M IMCTM S5NB082TNTH  07070IMCT  S5 PTB  00015                    1600 SR        000000000000 DENSO TEN (THAILAND)18029XL0001001                                                                                                                              *          20180227 IMCT                IMCT                                                                                                                    WMF1802275.TXT
MDEDJ2368253201803                D89828070300PT4D20180303000030SPEAKER ASM                   M IMCTM S9TS02 TNTH  07070IMCT  S9 PTB  00015                    0830 SR        000000000000 DENSO TEN (THAILAND)18001VU0005005                                                                                                                              *          20180227 IMCT                IMCT                                                                                                                    WMF1802275.TXT
MDEDJ2368254201803                D89828070300PT4D20180303000030SPEAKER ASM                   M IMCTM S9TS02 TNTH  07070IMCT  S9 PTB  00015                    2230 SR        000000000000 DENSO TEN (THAILAND)18098UU0008008                                                                                                                              *          20180227 IMCT                IMCT                                                                                                                    WMF1802275.TXT
MDEDJ2368255201803                D89829645410PT1D20180303000015RADIO;ASM DVD                 M IMCTM S5NC06 TNTH  07070IMCT  S5 PTB  00003                    0400 SR        000000000000 DENSO TEN (THAILAND)17072QL0003003                                                                                                                              *          20180227 IMCT                IMCT                                                                                                                    WMF1802275.TXT
MDEDJ2368256201803                D89848581800PT4D20180303000015RADIO;AM/FM CD D              M IMCTM S9CO001TNTH  07070IMCT  S9 PTB  00003                    2230 SR        000000000000 DENSO TEN (THAILAND)18098UU0008008                                                                                                                              *          20180227 IMCT                IMCT                                                                                                                    WMF1802275.TXT
MDEDJ2368257201803                D89848582100PT1D20180302000015RADIO;AM/FM CD D              M IMCTM S5NC06 TNTH  07070IMCT  S5 X    00030                    2230 SR        000000000000 DENSO TEN (THAILAND)18098XL0002002                                                                                                                              *          20180227 IMCT                IMCT                                                                                                                    WMF1802275.TXT
MDEDJ2368258201803                D89848582100PT1D20180303000015RADIO;AM/FM CD D              M IMCTM S5NC06 TNTH  07070IMCT  S5 X    00030                    0400 SR        000000000000 DENSO TEN (THAILAND)18098XL0003003                                                                                                                              *          20180227 IMCT                IMCT                                                                                                                    WMF1802275.TXT
MDEDJ2368259201803                D89848582100PT1D20180303000015RADIO;AM/FM CD D              M IMCTM S5NC06 TNTH  07070IMCT  S5 X    00030                    1300 SR        000000000000 DENSO TEN (THAILAND)18006YL0002002                                                                                                                              *          20180227 IMCT                IMCT                                                                                                                    WMF1802275.TXT
MDEUJ2316152201803                D89828070100PT4U20180302000060SPEAKER ASM                   M IMCTM S0FL05 TNTH  07070IMCT  S0 PTB  00004                    2230 SR        000000000000 DENSO TEN (THAILAND)18026UU0200201                                                                                                                              *          20180227 IMCT                IMCT                                                                                                                    WMF1802275.TXT
MDEUJ2316153201803                D89828070100PT4U20180303000030SPEAKER ASM                   M IMCTM S0FL05 TNTH  07070IMCT  S0 PTB  00004                    0400 SR        000000000000 DENSO TEN (THAILAND)18026UU0202202                                                                                                                              *          20180227 IMCT                IMCT                                                                                                                    WMF1802275.TXT
MDEUJ2316154201803                D89828070100PT4U20180303000030SPEAKER ASM                   M IMCTM S0FL05 TNTH  07070IMCT  S0 PTB  00004                    0830 SR        000000000000 DENSO TEN (THAILAND)18026UU0203203                                                                                                                              *          20180227 IMCT                IMCT                                                                                                                    WMF1802275.TXT
MDEUJ2316155201803                D89828070100PT4U20180303000060SPEAKER ASM                   M IMCTM S0FL05 TNTH  07070IMCT  S0 PTB  00004                    1300 SR        000000000000 DENSO TEN (THAILAND)18021UU003603618049ZU0037037                                                                                                                *          20180227 IMCT                IMCT                                                                                                                    WMF1802275.TXT
MDEUJ2316156201803                D89828070100PT4U20180303000030SPEAKER ASM                   M IMCTM S0FL05 TNTH  07070IMCT  S0 PTB  00004                    1600 SR        000000000000 DENSO TEN (THAILAND)18026UU0204204                                                                                                                              *          20180227 IMCT                IMCT                                                                                                                    WMF1802275.TXT
MDEUJ2316157201803                D89828070100PT4U20180303000030SPEAKER ASM                   M IMCTM S0FL05 TNTH  07070IMCT  S0 PTB  00004                    2100 SR        000000000000 DENSO TEN (THAILAND)18025UU0045045                                                                                                                              *          20180227 IMCT                IMCT                                                                                                                    WMF1802275.TXT
MDEUJ2316158201803                D89828070200PV4U20180302000060SPEAKER ASM                   M IMCTM S0FR05 TNTH  07070IMCT  S0 PTB  00005                    2230 SR        000000000000 DENSO TEN (THAILAND)18026UU0200201                                                                                                                              *          20180227 IMCT                IMCT                                                                                                                    WMF1802275.TXT
MDEUJ2316159201803                D89828070200PV4U20180303000030SPEAKER ASM                   M IMCTM S0FR05 TNTH  07070IMCT  S0 PTB  00005                    0400 SR        000000000000 DENSO TEN (THAILAND)18026UU0202202                                                                                                                              *          20180227 IMCT                IMCT                                                                                                                    WMF1802275.TXT
MDEUJ2316160201803                D89828070200PV4U20180303000030SPEAKER ASM                   M IMCTM S0FR05 TNTH  07070IMCT  S0 PTB  00005                    0830 SR        000000000000 DENSO TEN (THAILAND)18026UU0203203                                                                                                                              *          20180227 IMCT                IMCT                                                                                                                    WMF1802275.TXT
MDEUJ2316161201803                D89828070200PV4U20180303000060SPEAKER ASM                   M IMCTM S0FR05 TNTH  07070IMCT  S0 PTB  00005                    1300 SR        000000000000 DENSO TEN (THAILAND)18021UU003603618049ZU0037037                                                                                                                *          20180227 IMCT                IMCT                                                                                                                    WMF1802275.TXT
MDEUJ2316162201803                D89828070200PV4U20180303000030SPEAKER ASM                   M IMCTM S0FR05 TNTH  07070IMCT  S0 PTB  00005                    1600 SR        000000000000 DENSO TEN (THAILAND)18026UU0204204                                                                                                                              *          20180227 IMCT                IMCT                                                                                                                    WMF1802275.TXT
MDEUJ2316163201803                D89828070200PV4U20180303000030SPEAKER ASM                   M IMCTM S0FR05 TNTH  07070IMCT  S0 PTB  00005                    2100 SR        000000000000 DENSO TEN (THAILAND)18025UU0045045                                                                                                                              *          20180227 IMCT                IMCT                                                                                                                    WMF1802275.TXT
MDEUJ2316164201803                D89828070300PT4U20180302000060SPEAKER ASM                   M IMCTM S9TS02 TNTH  07070IMCT  S9 PTB  00015                    2230 SR        000000000000 DENSO TEN (THAILAND)18026UU0200201                                                                                                                              *          20180227 IMCT                IMCT                                                                                                                    WMF1802275.TXT
MDEUJ2316165201803                D89828070300PT4U20180303000030SPEAKER ASM                   M IMCTM S9TS02 TNTH  07070IMCT  S9 PTB  00015                    0400 SR        000000000000 DENSO TEN (THAILAND)18026UU0202202                                                                                                                              *          20180227 IMCT                IMCT                                                                                                                    WMF1802275.TXT
MDEUJ2316166201803                D89828070300PT4U20180303000030SPEAKER ASM                   M IMCTM S9TS02 TNTH  07070IMCT  S9 PTB  00015                    0830 SR        000000000000 DENSO TEN (THAILAND)18026UU0203203                                                                                                                              *          20180227 IMCT                IMCT                                                                                                                    WMF1802275.TXT
MDEUJ2316167201803                D89828070300PT4U20180303000060SPEAKER ASM                   M IMCTM S9TS02 TNTH  07070IMCT  S9 PTB  00015                    1300 SR        000000000000 DENSO TEN (THAILAND)18021UU003603618049ZU0037037                                                                                                                *          20180227 IMCT                IMCT                                                                                                                    WMF1802275.TXT
MDEUJ2316168201803                D89828070300PT4U20180303000030SPEAKER ASM                   M IMCTM S9TS02 TNTH  07070IMCT  S9 PTB  00015                    1600 SR        000000000000 DENSO TEN (THAILAND)18026UU0204204                                                                                                                              *          20180227 IMCT                IMCT                                                                                                                    WMF1802275.TXT
MDEUJ2316169201803                D89828070300PT4U20180303000030SPEAKER ASM                   M IMCTM S9TS02 TNTH  07070IMCT  S9 PTB  00015                    2100 SR        000000000000 DENSO TEN (THAILAND)18025UU0045045                                                                                                                              *          20180227 IMCT                IMCT                                                                                                                    WMF1802275.TXT
