REC2018021520180219ISUZU                              7      
MACK82001021201802          IMKDC  89821984430P3YK20180227000001RADIO;AM/FM,CD                M IMCTM IMKDC  TNTH  07070IMKDC KI*PTB  00003    K295B3800   001 0000 ES        000000000000 DENSO TEN (THAILAND)                                                                                                                                            *G         20180215 IMCT                IMCT                                                                                                                    WMF1802159.TXT
MACK82001022201802          IMKDC  89828070100P3YK20180227000090SPEAKER ASM                   M IMCTM IMKDC  TNTH  07070IMKDC KI PTB  00004    K293I0460   001 0000 ES        000000000000 DENSO TEN (THAILAND)                                                                                                                                            *G         20180215 IMCT                IMCT                                                                                                                    WMF1802159.TXT
MACK82001023201802          IMKDC  89828070100P3YK20180228000001SPEAKER ASM                   M IMCTM IMKDC  TNTH  07070IMKDC KI PTB  00004    K295B3790   001 0000 ES        000000000000 DENSO TEN (THAILAND)                                                                                                                                            *G         20180215 IMCT                IMCT                                                                                                                    WMF1802159.TXT
MACK82001024201802          IMKDC  89828070200P3YK20180227000090SPEAKER ASM                   M IMCTM IMKDC  TNTH  07070IMKDC KI PTB  00005    K293I0460   001 0000 ES        000000000000 DENSO TEN (THAILAND)                                                                                                                                            *G         20180215 IMCT                IMCT                                                                                                                    WMF1802159.TXT
MACK82001025201802          IMKDC  89828070200P3YK20180228000001SPEAKER ASM                   M IMCTM IMKDC  TNTH  07070IMKDC KI PTB  00005    K295B3790   001 0000 ES        000000000000 DENSO TEN (THAILAND)                                                                                                                                            *G         20180215 IMCT                IMCT                                                                                                                    WMF1802159.TXT
MACK82001026201802          IMKDC  89828070300P3YK20180227000090SPEAKER ASM                   M IMCTM IMKDC  TNTH  07070IMKDC KI PTB  00015    K293I0460   001 0000 ES        000000000000 DENSO TEN (THAILAND)                                                                                                                                            *G         20180215 IMCT                IMCT                                                                                                                    WMF1802159.TXT
MACK82001027201802          IMKDC  89828070300P3YK20180228000001SPEAKER ASM                   M IMCTM IMKDC  TNTH  07070IMKDC KI PTB  00015    K295B3790   001 0000 ES        000000000000 DENSO TEN (THAILAND)                                                                                                                                            *G         20180215 IMCT                IMCT                                                                                                                    WMF1802159.TXT
