REC2018031920180319ISUZU                              73     
MDDDJ3264433201803                D89821984430PT1D20180323000030RADIO;AM/FM,CD                M IMCTM S5NC06 TNTH  07070IMCT  S5 PTB  00005                    0830 SR        000000000000 DENSO TEN (THAILAND)180LXEL0021021                                                                                                                              *          20180319 IMCT                IMCT                                                                                                                    WMF1803194.TXT
MDDDJ3264434201803                D89821984430PT1D20180323000030RADIO;AM/FM,CD                M IMCTM S5NC06 TNTH  07070IMCT  S5 PTB  00005                    1300 SR        000000000000 DENSO TEN (THAILAND)180LRBL0026026                                                                                                                              *          20180319 IMCT                IMCT                                                                                                                    WMF1803194.TXT
MDDDJ3264435201803                D89828070100PV1D20180322000060SPEAKER ASM                   M IMCTM S5MB11 TNTH  07070IMCT  S5 PTB  00004                    2230 SR        000000000000 DENSO TEN (THAILAND)180LPKL0053053                                                                                                                              *          20180319 IMCT                IMCT                                                                                                                    WMF1803194.TXT
MDDDJ3264436201803                D89828070100PV1D20180323000060SPEAKER ASM                   M IMCTM S5MB11 TNTH  07070IMCT  S5 PTB  00004                    0230 SR        000000000000 DENSO TEN (THAILAND)180LPKL0054054                                                                                                                              *          20180319 IMCT                IMCT                                                                                                                    WMF1803194.TXT
MDDDJ3264437201803                D89828070100PV1D20180323000060SPEAKER ASM                   M IMCTM S5MB11 TNTH  07070IMCT  S5 PTB  00004                    0830 SR        000000000000 DENSO TEN (THAILAND)180LXEL0021021                                                                                                                              *          20180319 IMCT                IMCT                                                                                                                    WMF1803194.TXT
MDDDJ3264438201803                D89828070100PV1D20180323000060SPEAKER ASM                   M IMCTM S5MB11 TNTH  07070IMCT  S5 PTB  00004                    1030 SR        000000000000 DENSO TEN (THAILAND)180LPFL0019019                                                                                                                              *          20180319 IMCT                IMCT                                                                                                                    WMF1803194.TXT
MDDDJ3264439201803                D89828070100PV1D20180323000060SPEAKER ASM                   M IMCTM S5MB11 TNTH  07070IMCT  S5 PTB  00004                    1300 SR        000000000000 DENSO TEN (THAILAND)180LRBL0026026                                                                                                                              *          20180319 IMCT                IMCT                                                                                                                    WMF1803194.TXT
MDDDJ3264440201803                D89828070100PV1D20180323000060SPEAKER ASM                   M IMCTM S5MB11 TNTH  07070IMCT  S5 PTB  00004                    2100 SR        000000000000 DENSO TEN (THAILAND)180LPGL0167167                                                                                                                              *          20180319 IMCT                IMCT                                                                                                                    WMF1803194.TXT
MDDDJ3264441201803                D89828070300PT1D20180322000060SPEAKER ASM                   M IMCTM S5NB082TNTH  07070IMCT  S5 PTB  00015                    2230 SR        000000000000 DENSO TEN (THAILAND)180LPKL0053053                                                                                                                              *          20180319 IMCT                IMCT                                                                                                                    WMF1803194.TXT
MDDDJ3264442201803                D89828070300PT1D20180323000060SPEAKER ASM                   M IMCTM S5NB082TNTH  07070IMCT  S5 PTB  00015                    0230 SR        000000000000 DENSO TEN (THAILAND)180LPKL0054054                                                                                                                              *          20180319 IMCT                IMCT                                                                                                                    WMF1803194.TXT
MDDDJ3264443201803                D89828070300PT1D20180323000060SPEAKER ASM                   M IMCTM S5NB082TNTH  07070IMCT  S5 PTB  00015                    1030 SR        000000000000 DENSO TEN (THAILAND)180LPFL0019019                                                                                                                              *          20180319 IMCT                IMCT                                                                                                                    WMF1803194.TXT
MDDDJ3264444201803                D89828070300PT1D20180323000060SPEAKER ASM                   M IMCTM S5NB082TNTH  07070IMCT  S5 PTB  00015                    2100 SR        000000000000 DENSO TEN (THAILAND)180LPGL0167167                                                                                                                              *          20180319 IMCT                IMCT                                                                                                                    WMF1803194.TXT
MDDDJ3264445201803                D89831228300PT1D20180323000030RADIO;AM/FM,CD                M IMCTM S5NC06 TNTH  07070IMCT  S5 CPB  00003                    1030 SR        000000000000 DENSO TEN (THAILAND)180LPFL0019019                                                                                                                              *          20180319 IMCT                IMCT                                                                                                                    WMF1803194.TXT
MDDDJ3264446201803                D89831228300PT1D20180323000030RADIO;AM/FM,CD                M IMCTM S5NC06 TNTH  07070IMCT  S5 CPB  00003                    2100 SR        000000000000 DENSO TEN (THAILAND)180LPGL0167167                                                                                                                              *          20180319 IMCT                IMCT                                                                                                                    WMF1803194.TXT
MDDDJ3264447201803                D89848581600PT1D20180322000030RADIO;AM/FM CD D              M IMCTM S5NC06 TNTH  07070IMCT  S5 PTB  00003                    2230 SR        000000000000 DENSO TEN (THAILAND)180LPKL0053053                                                                                                                              *          20180319 IMCT                IMCT                                                                                                                    WMF1803194.TXT
MDDDJ3264448201803                D89848581600PT1D20180323000030RADIO;AM/FM CD D              M IMCTM S5NC06 TNTH  07070IMCT  S5 PTB  00003                    0230 SR        000000000000 DENSO TEN (THAILAND)180LPKL0054054                                                                                                                              *          20180319 IMCT                IMCT                                                                                                                    WMF1803194.TXT
MDDUJ3226949201803                D89828070100PT4U20180323000030SPEAKER ASM                   M IMCTM S0FL05 TNTH  07070IMCT  S0 PTB  00004                    0230 SR        000000000000 DENSO TEN (THAILAND)180LURU0037037                                                                                                                              *          20180319 IMCT                IMCT                                                                                                                    WMF1803194.TXT
MDDUJ3226950201803                D89828070100PT4U20180323000030SPEAKER ASM                   M IMCTM S0FL05 TNTH  07070IMCT  S0 PTB  00004                    1030 SR        000000000000 DENSO TEN (THAILAND)180LUSU0039039                                                                                                                              *          20180319 IMCT                IMCT                                                                                                                    WMF1803194.TXT
MDDUJ3226951201803                D89828070200PV4U20180323000030SPEAKER ASM                   M IMCTM S0FR05 TNTH  07070IMCT  S0 PTB  00005                    0230 SR        000000000000 DENSO TEN (THAILAND)180LURU0037037                                                                                                                              *          20180319 IMCT                IMCT                                                                                                                    WMF1803194.TXT
MDDUJ3226952201803                D89828070200PV4U20180323000030SPEAKER ASM                   M IMCTM S0FR05 TNTH  07070IMCT  S0 PTB  00005                    1030 SR        000000000000 DENSO TEN (THAILAND)180LUSU0039039                                                                                                                              *          20180319 IMCT                IMCT                                                                                                                    WMF1803194.TXT
MDDUJ3226953201803                D89828070300PT4U20180323000030SPEAKER ASM                   M IMCTM S9TS02 TNTH  07070IMCT  S9 PTB  00015                    0230 SR        000000000000 DENSO TEN (THAILAND)180LURU0037037                                                                                                                              *          20180319 IMCT                IMCT                                                                                                                    WMF1803194.TXT
MDDUJ3226954201803                D89828070300PT4U20180323000030SPEAKER ASM                   M IMCTM S9TS02 TNTH  07070IMCT  S9 PTB  00015                    1030 SR        000000000000 DENSO TEN (THAILAND)180LUSU0039039                                                                                                                              *          20180319 IMCT                IMCT                                                                                                                    WMF1803194.TXT
MDEDJ3319880201803                D89828070100PV1D20180322000030SPEAKER ASM                   M IMCTM S5MB11 TNTH  07070IMCT  S5 PTB  00004                    2230 SR        000000000000 DENSO TEN (THAILAND)18008YL0007007                                                                                                                              *          20180319 IMCT                IMCT                                                                                                                    WMF1803194.TXT
MDEDJ3319881201803                D89828070100PV1D20180323000060SPEAKER ASM                   M IMCTM S5MB11 TNTH  07070IMCT  S5 PTB  00004                    0230 SR        000000000000 DENSO TEN (THAILAND)18051XL000100118074XL0004004                                                                                                                *          20180319 IMCT                IMCT                                                                                                                    WMF1803194.TXT
MDEDJ3319882201803                D89828070100PV1D20180323000060SPEAKER ASM                   M IMCTM S5MB11 TNTH  07070IMCT  S5 PTB  00004                    0400 SR        000000000000 DENSO TEN (THAILAND)18001YL0009010                                                                                                                              *          20180319 IMCT                IMCT                                                                                                                    WMF1803194.TXT
MDEDJ3319883201803                D89828070100PV1D20180323000030SPEAKER ASM                   M IMCTM S5MB11 TNTH  07070IMCT  S5 PTB  00004                    0830 SR        000000000000 DENSO TEN (THAILAND)18007YL0007007                                                                                                                              *          20180319 IMCT                IMCT                                                                                                                    WMF1803194.TXT
MDEDJ3319884201803                D89828070100PV1D20180323000030SPEAKER ASM                   M IMCTM S5MB11 TNTH  07070IMCT  S5 PTB  00004                    1030 SR        000000000000 DENSO TEN (THAILAND)18007YL0008008                                                                                                                              *          20180319 IMCT                IMCT                                                                                                                    WMF1803194.TXT
MDEDJ3319885201803                D89828070100PV1D20180323000060SPEAKER ASM                   M IMCTM S5MB11 TNTH  07070IMCT  S5 PTB  00004                    1300 SR        000000000000 DENSO TEN (THAILAND)18098XL0010011                                                                                                                              *          20180319 IMCT                IMCT                                                                                                                    WMF1803194.TXT
MDEDJ3319886201803                D89828070100PV1D20180323000120SPEAKER ASM                   M IMCTM S5MB11 TNTH  07070IMCT  S5 PTB  00004                    1600 SR        000000000000 DENSO TEN (THAILAND)18001YL001101118008YL000800818059XL000300318072WL0001001                                                                                    *          20180319 IMCT                IMCT                                                                                                                    WMF1803194.TXT
MDEDJ3319887201803                D89828070100PV4D20180323000030SPEAKER ASM                   M IMCTM S0FL05 TNTH  07070IMCT  S0 PTB  00004                    0400 SR        000000000000 DENSO TEN (THAILAND)18005YU0001001                                                                                                                              *          20180319 IMCT                IMCT                                                                                                                    WMF1803194.TXT
MDEDJ3319888201803                D89828070100PV4D20180323000030SPEAKER ASM                   M IMCTM S0FL05 TNTH  07070IMCT  S0 PTB  00004                    1030 SR        000000000000 DENSO TEN (THAILAND)18067XU0005005                                                                                                                              *          20180319 IMCT                IMCT                                                                                                                    WMF1803194.TXT
MDEDJ3319889201803                D89828070100PV4D20180323000030SPEAKER ASM                   M IMCTM S0FL05 TNTH  07070IMCT  S0 PTB  00004                    2100 SR        000000000000 DENSO TEN (THAILAND)18067XU0006006                                                                                                                              *          20180319 IMCT                IMCT                                                                                                                    WMF1803194.TXT
MDEDJ3319890201803                D89828070200PV1D20180322000030SPEAKER ASM                   M IMCTM S5MA14 TNTH  07070IMCT  S5 PTB  00005                    2230 SR        000000000000 DENSO TEN (THAILAND)18008YL0007007                                                                                                                              *          20180319 IMCT                IMCT                                                                                                                    WMF1803194.TXT
MDEDJ3319891201803                D89828070200PV1D20180323000030SPEAKER ASM                   M IMCTM S5MA14 TNTH  07070IMCT  S5 PTB  00005                    0230 SR        000000000000 DENSO TEN (THAILAND)18051XL0001001                                                                                                                              *          20180319 IMCT                IMCT                                                                                                                    WMF1803194.TXT
MDEDJ3319892201803                D89828070200PV1D20180323000060SPEAKER ASM                   M IMCTM S5MA14 TNTH  07070IMCT  S5 PTB  00005                    0400 SR        000000000000 DENSO TEN (THAILAND)18001YL0009010                                                                                                                              *          20180319 IMCT                IMCT                                                                                                                    WMF1803194.TXT
MDEDJ3319893201803                D89828070200PV1D20180323000030SPEAKER ASM                   M IMCTM S5MA14 TNTH  07070IMCT  S5 PTB  00005                    0830 SR        000000000000 DENSO TEN (THAILAND)18007YL0007007                                                                                                                              *          20180319 IMCT                IMCT                                                                                                                    WMF1803194.TXT
MDEDJ3319894201803                D89828070200PV1D20180323000030SPEAKER ASM                   M IMCTM S5MA14 TNTH  07070IMCT  S5 PTB  00005                    1030 SR        000000000000 DENSO TEN (THAILAND)18007YL0008008                                                                                                                              *          20180319 IMCT                IMCT                                                                                                                    WMF1803194.TXT
MDEDJ3319895201803                D89828070200PV1D20180323000060SPEAKER ASM                   M IMCTM S5MA14 TNTH  07070IMCT  S5 PTB  00005                    1300 SR        000000000000 DENSO TEN (THAILAND)18098XL0010011                                                                                                                              *          20180319 IMCT                IMCT                                                                                                                    WMF1803194.TXT
MDEDJ3319896201803                D89828070200PV1D20180323000090SPEAKER ASM                   M IMCTM S5MA14 TNTH  07070IMCT  S5 PTB  00005                    1600 SR        000000000000 DENSO TEN (THAILAND)18001YL001101118008YL000800818059XL0003003                                                                                                  *          20180319 IMCT                IMCT                                                                                                                    WMF1803194.TXT
MDEDJ3319897201803                D89828070200PV4D20180323000030SPEAKER ASM                   M IMCTM S0FR05 TNTH  07070IMCT  S0 PTB  00005                    0400 SR        000000000000 DENSO TEN (THAILAND)18005YU0001001                                                                                                                              *          20180319 IMCT                IMCT                                                                                                                    WMF1803194.TXT
MDEDJ3319898201803                D89828070200PV4D20180323000030SPEAKER ASM                   M IMCTM S0FR05 TNTH  07070IMCT  S0 PTB  00005                    1030 SR        000000000000 DENSO TEN (THAILAND)18067XU0005005                                                                                                                              *          20180319 IMCT                IMCT                                                                                                                    WMF1803194.TXT
MDEDJ3319899201803                D89828070200PV4D20180323000030SPEAKER ASM                   M IMCTM S0FR05 TNTH  07070IMCT  S0 PTB  00005                    2100 SR        000000000000 DENSO TEN (THAILAND)18067XU0006006                                                                                                                              *          20180319 IMCT                IMCT                                                                                                                    WMF1803194.TXT
MDEDJ3319900201803                D89828070300PT1D20180322000030SPEAKER ASM                   M IMCTM S5NB082TNTH  07070IMCT  S5 PTB  00015                    2230 SR        000000000000 DENSO TEN (THAILAND)18008YL0007007                                                                                                                              *          20180319 IMCT                IMCT                                                                                                                    WMF1803194.TXT
MDEDJ3319901201803                D89828070300PT1D20180323000030SPEAKER ASM                   M IMCTM S5NB082TNTH  07070IMCT  S5 PTB  00015                    0230 SR        000000000000 DENSO TEN (THAILAND)18051XL0001001                                                                                                                              *          20180319 IMCT                IMCT                                                                                                                    WMF1803194.TXT
MDEDJ3319902201803                D89828070300PT1D20180323000060SPEAKER ASM                   M IMCTM S5NB082TNTH  07070IMCT  S5 PTB  00015                    0400 SR        000000000000 DENSO TEN (THAILAND)18001YL0009010                                                                                                                              *          20180319 IMCT                IMCT                                                                                                                    WMF1803194.TXT
MDEDJ3319903201803                D89828070300PT1D20180323000030SPEAKER ASM                   M IMCTM S5NB082TNTH  07070IMCT  S5 PTB  00015                    0830 SR        000000000000 DENSO TEN (THAILAND)18007YL0007007                                                                                                                              *          20180319 IMCT                IMCT                                                                                                                    WMF1803194.TXT
MDEDJ3319904201803                D89828070300PT1D20180323000030SPEAKER ASM                   M IMCTM S5NB082TNTH  07070IMCT  S5 PTB  00015                    1030 SR        000000000000 DENSO TEN (THAILAND)18007YL0008008                                                                                                                              *          20180319 IMCT                IMCT                                                                                                                    WMF1803194.TXT
MDEDJ3319905201803                D89828070300PT1D20180323000060SPEAKER ASM                   M IMCTM S5NB082TNTH  07070IMCT  S5 PTB  00015                    1300 SR        000000000000 DENSO TEN (THAILAND)18098XL0010011                                                                                                                              *          20180319 IMCT                IMCT                                                                                                                    WMF1803194.TXT
MDEDJ3319906201803                D89828070300PT1D20180323000090SPEAKER ASM                   M IMCTM S5NB082TNTH  07070IMCT  S5 PTB  00015                    1600 SR        000000000000 DENSO TEN (THAILAND)18001YL001101118008YL000800818059XL0003003                                                                                                  *          20180319 IMCT                IMCT                                                                                                                    WMF1803194.TXT
MDEDJ3319907201803                D89828070300PT4D20180323000030SPEAKER ASM                   M IMCTM S9TS02 TNTH  07070IMCT  S9 PTB  00015                    0400 SR        000000000000 DENSO TEN (THAILAND)18005YU0001001                                                                                                                              *          20180319 IMCT                IMCT                                                                                                                    WMF1803194.TXT
MDEDJ3319908201803                D89828070300PT4D20180323000030SPEAKER ASM                   M IMCTM S9TS02 TNTH  07070IMCT  S9 PTB  00015                    1030 SR        000000000000 DENSO TEN (THAILAND)18067XU0005005                                                                                                                              *          20180319 IMCT                IMCT                                                                                                                    WMF1803194.TXT
MDEDJ3319909201803                D89828070300PT4D20180323000030SPEAKER ASM                   M IMCTM S9TS02 TNTH  07070IMCT  S9 PTB  00015                    2100 SR        000000000000 DENSO TEN (THAILAND)18067XU0006006                                                                                                                              *          20180319 IMCT                IMCT                                                                                                                    WMF1803194.TXT
MDEDJ3319910201803                D89848582100PT1D20180323000015RADIO;AM/FM CD D              M IMCTM S5NC06 TNTH  07070IMCT  S5 PTB  00003                    0230 SR        000000000000 DENSO TEN (THAILAND)18051XL0001001                                                                                                                              *          20180319 IMCT                IMCT                                                                                                                    WMF1803194.TXT
MDEDJ3319911201803                D89848582100PT1D20180323000030RADIO;AM/FM CD D              M IMCTM S5NC06 TNTH  07070IMCT  S5 PTB  00003                    1300 SR        000000000000 DENSO TEN (THAILAND)18098XL0010011                                                                                                                              *          20180319 IMCT                IMCT                                                                                                                    WMF1803194.TXT
MDEDJ3319912201803                D89848582100PT4D20180323000015RADIO;AM/FM CD D              M IMCTM S9CO001TNTH  07070IMCT  S9 PTB  00003                    0400 SR        000000000000 DENSO TEN (THAILAND)18005YU0001001                                                                                                                              *          20180319 IMCT                IMCT                                                                                                                    WMF1803194.TXT
MDEUJ3285254201803                D89828070100PT4U20180322000030SPEAKER ASM                   M IMCTM S0FL05 TNTH  07070IMCT  S0 PTB  00004                    2230 SR        000000000000 DENSO TEN (THAILAND)18024UU0037037                                                                                                                              *          20180319 IMCT                IMCT                                                                                                                    WMF1803194.TXT
MDEUJ3285255201803                D89828070100PT4U20180323000030SPEAKER ASM                   M IMCTM S0FL05 TNTH  07070IMCT  S0 PTB  00004                    0400 SR        000000000000 DENSO TEN (THAILAND)18024UU0038038                                                                                                                              *          20180319 IMCT                IMCT                                                                                                                    WMF1803194.TXT
MDEUJ3285256201803                D89828070100PT4U20180323000030SPEAKER ASM                   M IMCTM S0FL05 TNTH  07070IMCT  S0 PTB  00004                    0830 SR        000000000000 DENSO TEN (THAILAND)18026UU0214214                                                                                                                              *          20180319 IMCT                IMCT                                                                                                                    WMF1803194.TXT
MDEUJ3285257201803                D89828070100PT4U20180323000060SPEAKER ASM                   M IMCTM S0FL05 TNTH  07070IMCT  S0 PTB  00004                    1300 SR        000000000000 DENSO TEN (THAILAND)18026UU0215216                                                                                                                              *          20180319 IMCT                IMCT                                                                                                                    WMF1803194.TXT
MDEUJ3285258201803                D89828070100PT4U20180323000060SPEAKER ASM                   M IMCTM S0FL05 TNTH  07070IMCT  S0 PTB  00004                    1600 SR        000000000000 DENSO TEN (THAILAND)18025UU005405418026UU0217217                                                                                                                *          20180319 IMCT                IMCT                                                                                                                    WMF1803194.TXT
MDEUJ3285259201803                D89828070100PT4U20180323000030SPEAKER ASM                   M IMCTM S0FL05 TNTH  07070IMCT  S0 PTB  00004                    2100 SR        000000000000 DENSO TEN (THAILAND)18023UU0024024                                                                                                                              *          20180319 IMCT                IMCT                                                                                                                    WMF1803194.TXT
MDEUJ3285260201803                D89828070200PV4U20180322000030SPEAKER ASM                   M IMCTM S0FR05 TNTH  07070IMCT  S0 PTB  00005                    2230 SR        000000000000 DENSO TEN (THAILAND)18024UU0037037                                                                                                                              *          20180319 IMCT                IMCT                                                                                                                    WMF1803194.TXT
MDEUJ3285261201803                D89828070200PV4U20180323000030SPEAKER ASM                   M IMCTM S0FR05 TNTH  07070IMCT  S0 PTB  00005                    0400 SR        000000000000 DENSO TEN (THAILAND)18024UU0038038                                                                                                                              *          20180319 IMCT                IMCT                                                                                                                    WMF1803194.TXT
MDEUJ3285262201803                D89828070200PV4U20180323000030SPEAKER ASM                   M IMCTM S0FR05 TNTH  07070IMCT  S0 PTB  00005                    0830 SR        000000000000 DENSO TEN (THAILAND)18026UU0214214                                                                                                                              *          20180319 IMCT                IMCT                                                                                                                    WMF1803194.TXT
MDEUJ3285263201803                D89828070200PV4U20180323000060SPEAKER ASM                   M IMCTM S0FR05 TNTH  07070IMCT  S0 PTB  00005                    1300 SR        000000000000 DENSO TEN (THAILAND)18026UU0215216                                                                                                                              *          20180319 IMCT                IMCT                                                                                                                    WMF1803194.TXT
MDEUJ3285264201803                D89828070200PV4U20180323000060SPEAKER ASM                   M IMCTM S0FR05 TNTH  07070IMCT  S0 PTB  00005                    1600 SR        000000000000 DENSO TEN (THAILAND)18025UU005405418026UU0217217                                                                                                                *          20180319 IMCT                IMCT                                                                                                                    WMF1803194.TXT
MDEUJ3285265201803                D89828070200PV4U20180323000030SPEAKER ASM                   M IMCTM S0FR05 TNTH  07070IMCT  S0 PTB  00005                    2100 SR        000000000000 DENSO TEN (THAILAND)18023UU0024024                                                                                                                              *          20180319 IMCT                IMCT                                                                                                                    WMF1803194.TXT
MDEUJ3285266201803                D89828070300PT4U20180322000030SPEAKER ASM                   M IMCTM S9TS02 TNTH  07070IMCT  S9 PTB  00015                    2230 SR        000000000000 DENSO TEN (THAILAND)18024UU0037037                                                                                                                              *          20180319 IMCT                IMCT                                                                                                                    WMF1803194.TXT
MDEUJ3285267201803                D89828070300PT4U20180323000030SPEAKER ASM                   M IMCTM S9TS02 TNTH  07070IMCT  S9 PTB  00015                    0400 SR        000000000000 DENSO TEN (THAILAND)18024UU0038038                                                                                                                              *          20180319 IMCT                IMCT                                                                                                                    WMF1803194.TXT
MDEUJ3285268201803                D89828070300PT4U20180323000030SPEAKER ASM                   M IMCTM S9TS02 TNTH  07070IMCT  S9 PTB  00015                    0830 SR        000000000000 DENSO TEN (THAILAND)18026UU0214214                                                                                                                              *          20180319 IMCT                IMCT                                                                                                                    WMF1803194.TXT
MDEUJ3285269201803                D89828070300PT4U20180323000060SPEAKER ASM                   M IMCTM S9TS02 TNTH  07070IMCT  S9 PTB  00015                    1300 SR        000000000000 DENSO TEN (THAILAND)18026UU0215216                                                                                                                              *          20180319 IMCT                IMCT                                                                                                                    WMF1803194.TXT
MDEUJ3285270201803                D89828070300PT4U20180323000060SPEAKER ASM                   M IMCTM S9TS02 TNTH  07070IMCT  S9 PTB  00015                    1600 SR        000000000000 DENSO TEN (THAILAND)18025UU005405418026UU0217217                                                                                                                *          20180319 IMCT                IMCT                                                                                                                    WMF1803194.TXT
MDEUJ3285271201803                D89828070300PT4U20180323000030SPEAKER ASM                   M IMCTM S9TS02 TNTH  07070IMCT  S9 PTB  00015                    2100 SR        000000000000 DENSO TEN (THAILAND)18023UU0024024                                                                                                                              *          20180319 IMCT                IMCT                                                                                                                    WMF1803194.TXT
