REC2018030220180302ISUZU                              66     
MDDDJ3207732201803                D89821984430PT1D20180307000030RADIO;AM/FM,CD                M IMCTM S5NC06 TNTH  07070IMCT  S5 PTB  00005                    0400 SR        000000000000 DENSO TEN (THAILAND)180LPAL0098098                                                                                                                              *          20180302 IMCT                IMCT                                                                                                                    WMF1803027.TXT
MDDDJ3207733201803                D89821984430PT1D20180307000030RADIO;AM/FM,CD                M IMCTM S5NC06 TNTH  07070IMCT  S5 PTB  00005                    1030 SR        000000000000 DENSO TEN (THAILAND)180LPAL0099099                                                                                                                              *          20180302 IMCT                IMCT                                                                                                                    WMF1803027.TXT
MDDDJ3207734201803                D89821984430PT1D20180307000030RADIO;AM/FM,CD                M IMCTM S5NC06 TNTH  07070IMCT  S5 PTB  00005                    2100 SR        000000000000 DENSO TEN (THAILAND)180LPBL0009009                                                                                                                              *          20180302 IMCT                IMCT                                                                                                                    WMF1803027.TXT
MDDDJ3207735201803                D89828070100PV1D20180307000060SPEAKER ASM                   M IMCTM S5MB11 TNTH  07070IMCT  S5 PTB  00004                    0400 SR        000000000000 DENSO TEN (THAILAND)180LPAL0098098                                                                                                                              *          20180302 IMCT                IMCT                                                                                                                    WMF1803027.TXT
MDDDJ3207736201803                D89828070100PV1D20180307000060SPEAKER ASM                   M IMCTM S5MB11 TNTH  07070IMCT  S5 PTB  00004                    1030 SR        000000000000 DENSO TEN (THAILAND)180LPAL0099099                                                                                                                              *          20180302 IMCT                IMCT                                                                                                                    WMF1803027.TXT
MDDDJ3207737201803                D89828070100PV1D20180307000060SPEAKER ASM                   M IMCTM S5MB11 TNTH  07070IMCT  S5 PTB  00004                    1300 SR        000000000000 DENSO TEN (THAILAND)180LXAL0007007                                                                                                                              *          20180302 IMCT                IMCT                                                                                                                    WMF1803027.TXT
MDDDJ3207738201803                D89828070100PV1D20180307000060SPEAKER ASM                   M IMCTM S5MB11 TNTH  07070IMCT  S5 PTB  00004                    1600 SR        000000000000 DENSO TEN (THAILAND)180LPGL0160160                                                                                                                              *          20180302 IMCT                IMCT                                                                                                                    WMF1803027.TXT
MDDDJ3207739201803                D89828070100PV1D20180307000060SPEAKER ASM                   M IMCTM S5MB11 TNTH  07070IMCT  S5 PTB  00004                    2100 SR        000000000000 DENSO TEN (THAILAND)180LPBL0009009                                                                                                                              *          20180302 IMCT                IMCT                                                                                                                    WMF1803027.TXT
MDDDJ3207740201803                D89828070100PV4D20180307000060SPEAKER ASM                   M IMCTM S0FL05 TNTH  07070IMCT  S0 PTB  00004                    1600 SR        000000000000 DENSO TEN (THAILAND)180LRHU0004004                                                                                                                              *          20180302 IMCT                IMCT                                                                                                                    WMF1803027.TXT
MDDDJ3207741201803                D89828070200PV4D20180307000060SPEAKER ASM                   M IMCTM S0FR05 TNTH  07070IMCT  S0 PTB  00005                    1600 SR        000000000000 DENSO TEN (THAILAND)180LRHU0004004                                                                                                                              *          20180302 IMCT                IMCT                                                                                                                    WMF1803027.TXT
MDDDJ3207742201803                D89828070300PT1D20180307000060SPEAKER ASM                   M IMCTM S5NB082TNTH  07070IMCT  S5 PTB  00015                    1600 SR        000000000000 DENSO TEN (THAILAND)180LPGL0160160                                                                                                                              *          20180302 IMCT                IMCT                                                                                                                    WMF1803027.TXT
MDDDJ3207743201803                D89828070300PT4D20180307000060SPEAKER ASM                   M IMCTM S9TS02 TNTH  07070IMCT  S9 PTB  00015                    1600 SR        000000000000 DENSO TEN (THAILAND)180LRHU0004004                                                                                                                              *          20180302 IMCT                IMCT                                                                                                                    WMF1803027.TXT
MDDDJ3207744201803                D89831228300PT1D20180307000030RADIO;AM/FM,CD                M IMCTM S5NC06 TNTH  07070IMCT  S5 CPB  00003                    1600 SR        000000000000 DENSO TEN (THAILAND)180LPGL0160160                                                                                                                              *          20180302 IMCT                IMCT                                                                                                                    WMF1803027.TXT
MDDDJ3207745201803                D89848581500PT4D20180307000030RADIO;AM/FM CD D              M IMCTM S9CO001TNTH  07070IMCT  S9 PTB  00003                    1600 SR        000000000000 DENSO TEN (THAILAND)180LRHU0004004                                                                                                                              *          20180302 IMCT                IMCT                                                                                                                    WMF1803027.TXT
MDDUJ3202398201803                D89828070100PT4U20180307000030SPEAKER ASM                   M IMCTM S0FL05 TNTH  07070IMCT  S0 PTB  00004                    0400 SR        000000000000 DENSO TEN (THAILAND)180LURU0025025                                                                                                                              *          20180302 IMCT                IMCT                                                                                                                    WMF1803027.TXT
MDDUJ3202399201803                D89828070200PV4U20180307000030SPEAKER ASM                   M IMCTM S0FR05 TNTH  07070IMCT  S0 PTB  00005                    0400 SR        000000000000 DENSO TEN (THAILAND)180LURU0025025                                                                                                                              *          20180302 IMCT                IMCT                                                                                                                    WMF1803027.TXT
MDDUJ3202400201803                D89828070300PT4U20180307000030SPEAKER ASM                   M IMCTM S9TS02 TNTH  07070IMCT  S9 PTB  00015                    0400 SR        000000000000 DENSO TEN (THAILAND)180LURU0025025                                                                                                                              *          20180302 IMCT                IMCT                                                                                                                    WMF1803027.TXT
MDEDJ3214772201803                D89828070100PV1D20180306000060SPEAKER ASM                   M IMCTM S5MB11 TNTH  07070IMCT  S5 PTB  00004                    2230 SR        000000000000 DENSO TEN (THAILAND)18056XL000400418098WL0001001                                                                                                                *          20180302 IMCT                IMCT                                                                                                                    WMF1803027.TXT
MDEDJ3214773201803                D89828070100PV1D20180307000060SPEAKER ASM                   M IMCTM S5MB11 TNTH  07070IMCT  S5 PTB  00004                    0230 SR        000000000000 DENSO TEN (THAILAND)17054PL0073074                                                                                                                              *          20180302 IMCT                IMCT                                                                                                                    WMF1803027.TXT
MDEDJ3214774201803                D89828070100PV1D20180307000120SPEAKER ASM                   M IMCTM S5MB11 TNTH  07070IMCT  S5 PTB  00004                    0400 SR        000000000000 DENSO TEN (THAILAND)17075PL012112118007YL000200318059XL0001001                                                                                                  *          20180302 IMCT                IMCT                                                                                                                    WMF1803027.TXT
MDEDJ3214775201803                D89828070100PV1D20180307000060SPEAKER ASM                   M IMCTM S5MB11 TNTH  07070IMCT  S5 PTB  00004                    0830 SR        000000000000 DENSO TEN (THAILAND)17041PL0074075                                                                                                                              *          20180302 IMCT                IMCT                                                                                                                    WMF1803027.TXT
MDEDJ3214776201803                D89828070100PV1D20180307000060SPEAKER ASM                   M IMCTM S5MB11 TNTH  07070IMCT  S5 PTB  00004                    1300 SR        000000000000 DENSO TEN (THAILAND)18067XL0002003                                                                                                                              *          20180302 IMCT                IMCT                                                                                                                    WMF1803027.TXT
MDEDJ3214777201803                D89828070100PV1D20180307000150SPEAKER ASM                   M IMCTM S5MB11 TNTH  07070IMCT  S5 PTB  00004                    1600 SR        000000000000 DENSO TEN (THAILAND)17075PL012212217085RL002502618080UL0011012                                                                                                  *          20180302 IMCT                IMCT                                                                                                                    WMF1803027.TXT
MDEDJ3214778201803                D89828070100PV1D20180307000090SPEAKER ASM                   M IMCTM S5MB11 TNTH  07070IMCT  S5 PTB  00004                    2230 SR        000000000000 DENSO TEN (THAILAND)17085RL002702818065UL0011011                                                                                                                *          20180302 IMCT                IMCT                                                                                                                    WMF1803027.TXT
MDEDJ3214779201803                D89828070100PV4D20180307000030SPEAKER ASM                   M IMCTM S0FL05 TNTH  07070IMCT  S0 PTB  00004                    0400 SR        000000000000 DENSO TEN (THAILAND)17054PU0006006                                                                                                                              *          20180302 IMCT                IMCT                                                                                                                    WMF1803027.TXT
MDEDJ3214780201803                D89828070100PV4D20180307000030SPEAKER ASM                   M IMCTM S0FL05 TNTH  07070IMCT  S0 PTB  00004                    2230 SR        000000000000 DENSO TEN (THAILAND)18036ZU0003003                                                                                                                              *          20180302 IMCT                IMCT                                                                                                                    WMF1803027.TXT
MDEDJ3214781201803                D89828070200PV1D20180306000030SPEAKER ASM                   M IMCTM S5MA14 TNTH  07070IMCT  S5 PTB  00005                    2230 SR        000000000000 DENSO TEN (THAILAND)18056XL0004004                                                                                                                              *          20180302 IMCT                IMCT                                                                                                                    WMF1803027.TXT
MDEDJ3214782201803                D89828070200PV1D20180307000090SPEAKER ASM                   M IMCTM S5MA14 TNTH  07070IMCT  S5 PTB  00005                    0400 SR        000000000000 DENSO TEN (THAILAND)18007YL000200318059XL0001001                                                                                                                *          20180302 IMCT                IMCT                                                                                                                    WMF1803027.TXT
MDEDJ3214783201803                D89828070200PV1D20180307000060SPEAKER ASM                   M IMCTM S5MA14 TNTH  07070IMCT  S5 PTB  00005                    1300 SR        000000000000 DENSO TEN (THAILAND)18067XL0002003                                                                                                                              *          20180302 IMCT                IMCT                                                                                                                    WMF1803027.TXT
MDEDJ3214784201803                D89828070200PV1D20180307000060SPEAKER ASM                   M IMCTM S5MA14 TNTH  07070IMCT  S5 PTB  00005                    1600 SR        000000000000 DENSO TEN (THAILAND)18080UL0011012                                                                                                                              *          20180302 IMCT                IMCT                                                                                                                    WMF1803027.TXT
MDEDJ3214785201803                D89828070200PV1D20180307000030SPEAKER ASM                   M IMCTM S5MA14 TNTH  07070IMCT  S5 PTB  00005                    2230 SR        000000000000 DENSO TEN (THAILAND)18065UL0011011                                                                                                                              *          20180302 IMCT                IMCT                                                                                                                    WMF1803027.TXT
MDEDJ3214786201803                D89828070200PV4D20180307000030SPEAKER ASM                   M IMCTM S0FR05 TNTH  07070IMCT  S0 PTB  00005                    2230 SR        000000000000 DENSO TEN (THAILAND)18036ZU0003003                                                                                                                              *          20180302 IMCT                IMCT                                                                                                                    WMF1803027.TXT
MDEDJ3214787201803                D89828070300PT1D20180306000030SPEAKER ASM                   M IMCTM S5NB082TNTH  07070IMCT  S5 PTB  00015                    2230 SR        000000000000 DENSO TEN (THAILAND)18056XL0004004                                                                                                                              *          20180302 IMCT                IMCT                                                                                                                    WMF1803027.TXT
MDEDJ3214788201803                D89828070300PT1D20180307000090SPEAKER ASM                   M IMCTM S5NB082TNTH  07070IMCT  S5 PTB  00015                    0400 SR        000000000000 DENSO TEN (THAILAND)18007YL000200318059XL0001001                                                                                                                *          20180302 IMCT                IMCT                                                                                                                    WMF1803027.TXT
MDEDJ3214789201803                D89828070300PT1D20180307000060SPEAKER ASM                   M IMCTM S5NB082TNTH  07070IMCT  S5 PTB  00015                    1300 SR        000000000000 DENSO TEN (THAILAND)18067XL0002003                                                                                                                              *          20180302 IMCT                IMCT                                                                                                                    WMF1803027.TXT
MDEDJ3214790201803                D89828070300PT1D20180307000060SPEAKER ASM                   M IMCTM S5NB082TNTH  07070IMCT  S5 PTB  00015                    1600 SR        000000000000 DENSO TEN (THAILAND)18080UL0011012                                                                                                                              *          20180302 IMCT                IMCT                                                                                                                    WMF1803027.TXT
MDEDJ3214791201803                D89828070300PT1D20180307000030SPEAKER ASM                   M IMCTM S5NB082TNTH  07070IMCT  S5 PTB  00015                    2230 SR        000000000000 DENSO TEN (THAILAND)18065UL0011011                                                                                                                              *          20180302 IMCT                IMCT                                                                                                                    WMF1803027.TXT
MDEDJ3214792201803                D89828070300PT4D20180307000030SPEAKER ASM                   M IMCTM S9TS02 TNTH  07070IMCT  S9 PTB  00015                    2230 SR        000000000000 DENSO TEN (THAILAND)18036ZU0003003                                                                                                                              *          20180302 IMCT                IMCT                                                                                                                    WMF1803027.TXT
MDEDJ3214793201803                D89848581800PT1D20180307000030RADIO;AM/FM CD D              M IMCTM S5NC06 TNTH  07070IMCT  S5 PTB  00003                    1600 SR        000000000000 DENSO TEN (THAILAND)18080UL0011012                                                                                                                              *          20180302 IMCT                IMCT                                                                                                                    WMF1803027.TXT
MDEDJ3214794201803                D89848581800PT1D20180307000015RADIO;AM/FM CD D              M IMCTM S5NC06 TNTH  07070IMCT  S5 PTB  00003                    2230 SR        000000000000 DENSO TEN (THAILAND)18065UL0011011                                                                                                                              *          20180302 IMCT                IMCT                                                                                                                    WMF1803027.TXT
MDEUJ3210339201803                D89828070100PT4U20180306000030SPEAKER ASM                   M IMCTM S0FL05 TNTH  07070IMCT  S0 PTB  00004                    2230 SR        000000000000 DENSO TEN (THAILAND)18016UU0009009                                                                                                                              *          20180302 IMCT                IMCT                                                                                                                    WMF1803027.TXT
MDEUJ3210340201803                D89828070100PT4U20180307000030SPEAKER ASM                   M IMCTM S0FL05 TNTH  07070IMCT  S0 PTB  00004                    0230 SR        000000000000 DENSO TEN (THAILAND)18025UU0047047                                                                                                                              *          20180302 IMCT                IMCT                                                                                                                    WMF1803027.TXT
MDEUJ3210341201803                D89828070100PT4U20180307000030SPEAKER ASM                   M IMCTM S0FL05 TNTH  07070IMCT  S0 PTB  00004                    0400 SR        000000000000 DENSO TEN (THAILAND)18021UU0041041                                                                                                                              *          20180302 IMCT                IMCT                                                                                                                    WMF1803027.TXT
MDEUJ3210342201803                D89828070100PT4U20180307000030SPEAKER ASM                   M IMCTM S0FL05 TNTH  07070IMCT  S0 PTB  00004                    0830 SR        000000000000 DENSO TEN (THAILAND)18021UU0042042                                                                                                                              *          20180302 IMCT                IMCT                                                                                                                    WMF1803027.TXT
MDEUJ3210343201803                D89828070100PT4U20180307000030SPEAKER ASM                   M IMCTM S0FL05 TNTH  07070IMCT  S0 PTB  00004                    1030 SR        000000000000 DENSO TEN (THAILAND)18024UU0026026                                                                                                                              *          20180302 IMCT                IMCT                                                                                                                    WMF1803027.TXT
MDEUJ3210344201803                D89828070100PT4U20180307000060SPEAKER ASM                   M IMCTM S0FL05 TNTH  07070IMCT  S0 PTB  00004                    1300 SR        000000000000 DENSO TEN (THAILAND)18015UU000800818019UU0005005                                                                                                                *          20180302 IMCT                IMCT                                                                                                                    WMF1803027.TXT
MDEUJ3210345201803                D89828070100PT4U20180307000090SPEAKER ASM                   M IMCTM S0FL05 TNTH  07070IMCT  S0 PTB  00004                    1600 SR        000000000000 DENSO TEN (THAILAND)18014UU000500518020UU001901918025UU0048048                                                                                                  *          20180302 IMCT                IMCT                                                                                                                    WMF1803027.TXT
MDEUJ3210346201803                D89828070100PT4U20180307000030SPEAKER ASM                   M IMCTM S0FL05 TNTH  07070IMCT  S0 PTB  00004                    2230 SR        000000000000 DENSO TEN (THAILAND)18021UU0043043                                                                                                                              *          20180302 IMCT                IMCT                                                                                                                    WMF1803027.TXT
MDEUJ3210347201803                D89828070200PV4U20180306000030SPEAKER ASM                   M IMCTM S0FR05 TNTH  07070IMCT  S0 PTB  00005                    2230 SR        000000000000 DENSO TEN (THAILAND)18016UU0009009                                                                                                                              *          20180302 IMCT                IMCT                                                                                                                    WMF1803027.TXT
MDEUJ3210348201803                D89828070200PV4U20180307000030SPEAKER ASM                   M IMCTM S0FR05 TNTH  07070IMCT  S0 PTB  00005                    0230 SR        000000000000 DENSO TEN (THAILAND)18025UU0047047                                                                                                                              *          20180302 IMCT                IMCT                                                                                                                    WMF1803027.TXT
MDEUJ3210349201803                D89828070200PV4U20180307000030SPEAKER ASM                   M IMCTM S0FR05 TNTH  07070IMCT  S0 PTB  00005                    0400 SR        000000000000 DENSO TEN (THAILAND)18021UU0041041                                                                                                                              *          20180302 IMCT                IMCT                                                                                                                    WMF1803027.TXT
MDEUJ3210350201803                D89828070200PV4U20180307000030SPEAKER ASM                   M IMCTM S0FR05 TNTH  07070IMCT  S0 PTB  00005                    0830 SR        000000000000 DENSO TEN (THAILAND)18021UU0042042                                                                                                                              *          20180302 IMCT                IMCT                                                                                                                    WMF1803027.TXT
MDEUJ3210351201803                D89828070200PV4U20180307000030SPEAKER ASM                   M IMCTM S0FR05 TNTH  07070IMCT  S0 PTB  00005                    1030 SR        000000000000 DENSO TEN (THAILAND)18024UU0026026                                                                                                                              *          20180302 IMCT                IMCT                                                                                                                    WMF1803027.TXT
MDEUJ3210352201803                D89828070200PV4U20180307000060SPEAKER ASM                   M IMCTM S0FR05 TNTH  07070IMCT  S0 PTB  00005                    1300 SR        000000000000 DENSO TEN (THAILAND)18015UU000800818019UU0005005                                                                                                                *          20180302 IMCT                IMCT                                                                                                                    WMF1803027.TXT
MDEUJ3210353201803                D89828070200PV4U20180307000090SPEAKER ASM                   M IMCTM S0FR05 TNTH  07070IMCT  S0 PTB  00005                    1600 SR        000000000000 DENSO TEN (THAILAND)18014UU000500518020UU001901918025UU0048048                                                                                                  *          20180302 IMCT                IMCT                                                                                                                    WMF1803027.TXT
MDEUJ3210354201803                D89828070200PV4U20180307000030SPEAKER ASM                   M IMCTM S0FR05 TNTH  07070IMCT  S0 PTB  00005                    2230 SR        000000000000 DENSO TEN (THAILAND)18021UU0043043                                                                                                                              *          20180302 IMCT                IMCT                                                                                                                    WMF1803027.TXT
MDEUJ3210355201803                D89828070300PT4U20180306000030SPEAKER ASM                   M IMCTM S9TS02 TNTH  07070IMCT  S9 PTB  00015                    2230 SR        000000000000 DENSO TEN (THAILAND)18016UU0009009                                                                                                                              *          20180302 IMCT                IMCT                                                                                                                    WMF1803027.TXT
MDEUJ3210356201803                D89828070300PT4U20180307000030SPEAKER ASM                   M IMCTM S9TS02 TNTH  07070IMCT  S9 PTB  00015                    0230 SR        000000000000 DENSO TEN (THAILAND)18025UU0047047                                                                                                                              *          20180302 IMCT                IMCT                                                                                                                    WMF1803027.TXT
MDEUJ3210357201803                D89828070300PT4U20180307000030SPEAKER ASM                   M IMCTM S9TS02 TNTH  07070IMCT  S9 PTB  00015                    0400 SR        000000000000 DENSO TEN (THAILAND)18021UU0041041                                                                                                                              *          20180302 IMCT                IMCT                                                                                                                    WMF1803027.TXT
MDEUJ3210358201803                D89828070300PT4U20180307000030SPEAKER ASM                   M IMCTM S9TS02 TNTH  07070IMCT  S9 PTB  00015                    0830 SR        000000000000 DENSO TEN (THAILAND)18021UU0042042                                                                                                                              *          20180302 IMCT                IMCT                                                                                                                    WMF1803027.TXT
MDEUJ3210359201803                D89828070300PT4U20180307000030SPEAKER ASM                   M IMCTM S9TS02 TNTH  07070IMCT  S9 PTB  00015                    1030 SR        000000000000 DENSO TEN (THAILAND)18024UU0026026                                                                                                                              *          20180302 IMCT                IMCT                                                                                                                    WMF1803027.TXT
MDEUJ3210360201803                D89828070300PT4U20180307000060SPEAKER ASM                   M IMCTM S9TS02 TNTH  07070IMCT  S9 PTB  00015                    1300 SR        000000000000 DENSO TEN (THAILAND)18015UU000800818019UU0005005                                                                                                                *          20180302 IMCT                IMCT                                                                                                                    WMF1803027.TXT
MDEUJ3210361201803                D89828070300PT4U20180307000090SPEAKER ASM                   M IMCTM S9TS02 TNTH  07070IMCT  S9 PTB  00015                    1600 SR        000000000000 DENSO TEN (THAILAND)18014UU000500518020UU001901918025UU0048048                                                                                                  *          20180302 IMCT                IMCT                                                                                                                    WMF1803027.TXT
MDEUJ3210362201803                D89828070300PT4U20180307000030SPEAKER ASM                   M IMCTM S9TS02 TNTH  07070IMCT  S9 PTB  00015                    2230 SR        000000000000 DENSO TEN (THAILAND)18021UU0043043                                                                                                                              *          20180302 IMCT                IMCT                                                                                                                    WMF1803027.TXT
MDEUJ3210363201803                D89848584700PT4U20180307000015RADIO;AM/FM CD D              M IMCTM S9CO001TNTH  07070IMCT  S9 PTB  00003                    1300 SR        000000000000 DENSO TEN (THAILAND)18019UU0005005                                                                                                                              *          20180302 IMCT                IMCT                                                                                                                    WMF1803027.TXT
MDEUJ3210364201803                D89848584700PT4U20180307000015RADIO;AM/FM CD D              M IMCTM S9CO001TNTH  07070IMCT  S9 PTB  00003                    1600 SR        000000000000 DENSO TEN (THAILAND)18014UU0005005                                                                                                                              *          20180302 IMCT                IMCT                                                                                                                    WMF1803027.TXT
