REC2018030320180303ISUZU                              3      
MAEDJ3600960201805                 89828070100PV1D20180402000008SPEAKER ASM                   M IMCTM ST00000TNTH  07070IMCT  ST PTB  00004  DC                0000 SR        000000000000 DENSO TEN (THAILAND)18076ZL000200218077ZL0002004                                                                                                                *P         20180303 IMCT                IMCT                                                                                                                    WMF1803031.TXT
MAEDJ3600961201805                 89828070200PV1D20180402000008SPEAKER ASM                   M IMCTM ST00000TNTH  07070IMCT  ST PTB  00005  DC                0000 SR        000000000000 DENSO TEN (THAILAND)18076ZL000200218077ZL0002004                                                                                                                *P         20180303 IMCT                IMCT                                                                                                                    WMF1803031.TXT
MAEDJ3600962201805                 89828070300PT1D20180402000008SPEAKER ASM                   M IMCTM ST00000TNTH  07070IMCT  ST PTB  00015  DC                0000 SR        000000000000 DENSO TEN (THAILAND)18076ZL000200218077ZL0002004                                                                                                                *P         20180303 IMCT                IMCT                                                                                                                    WMF1803031.TXT
