REC2018030820180308ISUZU                              80     
MDDDJ3228089201803                D89821984430PT1D20180313000030RADIO;AM/FM,CD                M IMCTM S5NC06 TNTH  07070IMCT  S5 PTB  00005                    0230 SR        000000000000 DENSO TEN (THAILAND)180LPAL0103103                                                                                                                              *          20180308 IMCT                IMCT                                                                                                                    WMF1803084.TXT
MDDDJ3228090201803                D89821984430PT1D20180313000030RADIO;AM/FM,CD                M IMCTM S5NC06 TNTH  07070IMCT  S5 PTB  00005                    1030 SR        000000000000 DENSO TEN (THAILAND)180LRBL0021021                                                                                                                              *          20180308 IMCT                IMCT                                                                                                                    WMF1803084.TXT
MDDDJ3228091201803                D89821984430PT1D20180313000060RADIO;AM/FM,CD                M IMCTM S5NC06 TNTH  07070IMCT  S5 PTB  00005                    1600 SR        000000000000 DENSO TEN (THAILAND)180LNHL0037037180LRAL0140140                                                                                                                *          20180308 IMCT                IMCT                                                                                                                    WMF1803084.TXT
MDDDJ3228092201803                D89828070100PV1D20180313000060SPEAKER ASM                   M IMCTM S5MB11 TNTH  07070IMCT  S5 PTB  00004                    0230 SR        000000000000 DENSO TEN (THAILAND)180LPAL0103103                                                                                                                              *          20180308 IMCT                IMCT                                                                                                                    WMF1803084.TXT
MDDDJ3228093201803                D89828070100PV1D20180313000060SPEAKER ASM                   M IMCTM S5MB11 TNTH  07070IMCT  S5 PTB  00004                    0830 SR        000000000000 DENSO TEN (THAILAND)180LPKL0047047                                                                                                                              *          20180308 IMCT                IMCT                                                                                                                    WMF1803084.TXT
MDDDJ3228094201803                D89828070100PV1D20180313000060SPEAKER ASM                   M IMCTM S5MB11 TNTH  07070IMCT  S5 PTB  00004                    1030 SR        000000000000 DENSO TEN (THAILAND)180LRBL0021021                                                                                                                              *          20180308 IMCT                IMCT                                                                                                                    WMF1803084.TXT
MDDDJ3228095201803                D89828070100PV1D20180313000060SPEAKER ASM                   M IMCTM S5MB11 TNTH  07070IMCT  S5 PTB  00004                    1300 SR        000000000000 DENSO TEN (THAILAND)180LPFL0012012                                                                                                                              *          20180308 IMCT                IMCT                                                                                                                    WMF1803084.TXT
MDDDJ3228096201803                D89828070100PV1D20180313000120SPEAKER ASM                   M IMCTM S5MB11 TNTH  07070IMCT  S5 PTB  00004                    1600 SR        000000000000 DENSO TEN (THAILAND)180LNHL0037037180LRAL0140140                                                                                                                *          20180308 IMCT                IMCT                                                                                                                    WMF1803084.TXT
MDDDJ3228097201803                D89828070100PV1D20180313000060SPEAKER ASM                   M IMCTM S5MB11 TNTH  07070IMCT  S5 PTB  00004                    2100 SR        000000000000 DENSO TEN (THAILAND)180LPGL0165165                                                                                                                              *          20180308 IMCT                IMCT                                                                                                                    WMF1803084.TXT
MDDDJ3228098201803                D89828070100PV1D20180313000060SPEAKER ASM                   M IMCTM S5MB11 TNTH  07070IMCT  S5 PTB  00004                    2230 SR        000000000000 DENSO TEN (THAILAND)180LXBL0005005                                                                                                                              *          20180308 IMCT                IMCT                                                                                                                    WMF1803084.TXT
MDDDJ3228099201803                D89828070100PV4D20180313000060SPEAKER ASM                   M IMCTM S0FL05 TNTH  07070IMCT  S0 PTB  00004                    0400 SR        000000000000 DENSO TEN (THAILAND)180LRRU0001001                                                                                                                              *          20180308 IMCT                IMCT                                                                                                                    WMF1803084.TXT
MDDDJ3228100201803                D89828070200PV4D20180313000060SPEAKER ASM                   M IMCTM S0FR05 TNTH  07070IMCT  S0 PTB  00005                    0400 SR        000000000000 DENSO TEN (THAILAND)180LRRU0001001                                                                                                                              *          20180308 IMCT                IMCT                                                                                                                    WMF1803084.TXT
MDDDJ3228101201803                D89828070300PT1D20180313000060SPEAKER ASM                   M IMCTM S5NB082TNTH  07070IMCT  S5 PTB  00015                    0830 SR        000000000000 DENSO TEN (THAILAND)180LPKL0047047                                                                                                                              *          20180308 IMCT                IMCT                                                                                                                    WMF1803084.TXT
MDDDJ3228102201803                D89828070300PT1D20180313000060SPEAKER ASM                   M IMCTM S5NB082TNTH  07070IMCT  S5 PTB  00015                    1300 SR        000000000000 DENSO TEN (THAILAND)180LPFL0012012                                                                                                                              *          20180308 IMCT                IMCT                                                                                                                    WMF1803084.TXT
MDDDJ3228103201803                D89828070300PT1D20180313000060SPEAKER ASM                   M IMCTM S5NB082TNTH  07070IMCT  S5 PTB  00015                    2100 SR        000000000000 DENSO TEN (THAILAND)180LPGL0165165                                                                                                                              *          20180308 IMCT                IMCT                                                                                                                    WMF1803084.TXT
MDDDJ3228104201803                D89828070300PT4D20180313000060SPEAKER ASM                   M IMCTM S9TS02 TNTH  07070IMCT  S9 PTB  00015                    0400 SR        000000000000 DENSO TEN (THAILAND)180LRRU0001001                                                                                                                              *          20180308 IMCT                IMCT                                                                                                                    WMF1803084.TXT
MDDDJ3228105201803                D89831228300PT1D20180313000030RADIO;AM/FM,CD                M IMCTM S5NC06 TNTH  07070IMCT  S5 CPB  00003                    1300 SR        000000000000 DENSO TEN (THAILAND)180LPFL0012012                                                                                                                              *          20180308 IMCT                IMCT                                                                                                                    WMF1803084.TXT
MDDDJ3228106201803                D89831228300PT1D20180313000030RADIO;AM/FM,CD                M IMCTM S5NC06 TNTH  07070IMCT  S5 CPB  00003                    2100 SR        000000000000 DENSO TEN (THAILAND)180LPGL0165165                                                                                                                              *          20180308 IMCT                IMCT                                                                                                                    WMF1803084.TXT
MDDDJ3228107201803                D89848581600PT1D20180313000030RADIO;AM/FM CD D              M IMCTM S5NC06 TNTH  07070IMCT  S5 PTB  00003                    0830 SR        000000000000 DENSO TEN (THAILAND)180LPKL0047047                                                                                                                              *          20180308 IMCT                IMCT                                                                                                                    WMF1803084.TXT
MDDUJ3211029201803                D89828070100PT4U20180313000030SPEAKER ASM                   M IMCTM S0FL05 TNTH  07070IMCT  S0 PTB  00004                    0400 SR        000000000000 DENSO TEN (THAILAND)180LURU0029029                                                                                                                              *          20180308 IMCT                IMCT                                                                                                                    WMF1803084.TXT
MDDUJ3211030201803                D89828070100PT4U20180313000030SPEAKER ASM                   M IMCTM S0FL05 TNTH  07070IMCT  S0 PTB  00004                    2230 SR        000000000000 DENSO TEN (THAILAND)180LULU0017017                                                                                                                              *          20180308 IMCT                IMCT                                                                                                                    WMF1803084.TXT
MDDUJ3211031201803                D89828070200PV4U20180313000030SPEAKER ASM                   M IMCTM S0FR05 TNTH  07070IMCT  S0 PTB  00005                    0400 SR        000000000000 DENSO TEN (THAILAND)180LURU0029029                                                                                                                              *          20180308 IMCT                IMCT                                                                                                                    WMF1803084.TXT
MDDUJ3211032201803                D89828070200PV4U20180313000030SPEAKER ASM                   M IMCTM S0FR05 TNTH  07070IMCT  S0 PTB  00005                    2230 SR        000000000000 DENSO TEN (THAILAND)180LULU0017017                                                                                                                              *          20180308 IMCT                IMCT                                                                                                                    WMF1803084.TXT
MDDUJ3211033201803                D89828070300PT4U20180313000030SPEAKER ASM                   M IMCTM S9TS02 TNTH  07070IMCT  S9 PTB  00015                    0400 SR        000000000000 DENSO TEN (THAILAND)180LURU0029029                                                                                                                              *          20180308 IMCT                IMCT                                                                                                                    WMF1803084.TXT
MDDUJ3211034201803                D89828070300PT4U20180313000030SPEAKER ASM                   M IMCTM S9TS02 TNTH  07070IMCT  S9 PTB  00015                    2230 SR        000000000000 DENSO TEN (THAILAND)180LULU0017017                                                                                                                              *          20180308 IMCT                IMCT                                                                                                                    WMF1803084.TXT
MDEDJ3250623201803                D89828070100PV1D20180312000060SPEAKER ASM                   M IMCTM S5MB11 TNTH  07070IMCT  S5 PTB  00004                    2230 SR        000000000000 DENSO TEN (THAILAND)17075QL000900918099UL0032032                                                                                                                *          20180308 IMCT                IMCT                                                                                                                    WMF1803084.TXT
MDEDJ3250624201803                D89828070100PV1D20180313000060SPEAKER ASM                   M IMCTM S5MB11 TNTH  07070IMCT  S5 PTB  00004                    0230 SR        000000000000 DENSO TEN (THAILAND)17006RL000100118083UL0005005                                                                                                                *          20180308 IMCT                IMCT                                                                                                                    WMF1803084.TXT
MDEDJ3250625201803                D89828070100PV1D20180313000060SPEAKER ASM                   M IMCTM S5MB11 TNTH  07070IMCT  S5 PTB  00004                    0400 SR        000000000000 DENSO TEN (THAILAND)18001VL0009010                                                                                                                              *          20180308 IMCT                IMCT                                                                                                                    WMF1803084.TXT
MDEDJ3250626201803                D89828070100PV1D20180313000030SPEAKER ASM                   M IMCTM S5MB11 TNTH  07070IMCT  S5 PTB  00004                    0830 SR        000000000000 DENSO TEN (THAILAND)18082WL0004004                                                                                                                              *          20180308 IMCT                IMCT                                                                                                                    WMF1803084.TXT
MDEDJ3250627201803                D89828070100PV1D20180313000030SPEAKER ASM                   M IMCTM S5MB11 TNTH  07070IMCT  S5 PTB  00004                    1030 SR        000000000000 DENSO TEN (THAILAND)18082WL0005005                                                                                                                              *          20180308 IMCT                IMCT                                                                                                                    WMF1803084.TXT
MDEDJ3250628201803                D89828070100PV1D20180313000060SPEAKER ASM                   M IMCTM S5MB11 TNTH  07070IMCT  S5 PTB  00004                    1300 SR        000000000000 DENSO TEN (THAILAND)18076UL0007008                                                                                                                              *          20180308 IMCT                IMCT                                                                                                                    WMF1803084.TXT
MDEDJ3250629201803                D89828070100PV1D20180313000030SPEAKER ASM                   M IMCTM S5MB11 TNTH  07070IMCT  S5 PTB  00004                    1600 SR        000000000000 DENSO TEN (THAILAND)18080UL0014014                                                                                                                              *          20180308 IMCT                IMCT                                                                                                                    WMF1803084.TXT
MDEDJ3250630201803                D89828070100PV1D20180313000030SPEAKER ASM                   M IMCTM S5MB11 TNTH  07070IMCT  S5 PTB  00004                    2100 SR        000000000000 DENSO TEN (THAILAND)18080UL0015015                                                                                                                              *          20180308 IMCT                IMCT                                                                                                                    WMF1803084.TXT
MDEDJ3250631201803                D89828070100PV4D20180313000030SPEAKER ASM                   M IMCTM S0FL05 TNTH  07070IMCT  S0 PTB  00004                    1030 SR        000000000000 DENSO TEN (THAILAND)18069UU0001001                                                                                                                              *          20180308 IMCT                IMCT                                                                                                                    WMF1803084.TXT
MDEDJ3250632201803                D89828070100PV4D20180313000030SPEAKER ASM                   M IMCTM S0FL05 TNTH  07070IMCT  S0 PTB  00004                    1300 SR        000000000000 DENSO TEN (THAILAND)18061UU0011011                                                                                                                              *          20180308 IMCT                IMCT                                                                                                                    WMF1803084.TXT
MDEDJ3250633201803                D89828070100PV4D20180313000030SPEAKER ASM                   M IMCTM S0FL05 TNTH  07070IMCT  S0 PTB  00004                    2100 SR        000000000000 DENSO TEN (THAILAND)18063UU0011011                                                                                                                              *          20180308 IMCT                IMCT                                                                                                                    WMF1803084.TXT
MDEDJ3250634201803                D89828070200PV1D20180312000030SPEAKER ASM                   M IMCTM S5MA14 TNTH  07070IMCT  S5 PTB  00005                    2230 SR        000000000000 DENSO TEN (THAILAND)18099UL0032032                                                                                                                              *          20180308 IMCT                IMCT                                                                                                                    WMF1803084.TXT
MDEDJ3250635201803                D89828070200PV1D20180313000030SPEAKER ASM                   M IMCTM S5MA14 TNTH  07070IMCT  S5 PTB  00005                    0230 SR        000000000000 DENSO TEN (THAILAND)18083UL0005005                                                                                                                              *          20180308 IMCT                IMCT                                                                                                                    WMF1803084.TXT
MDEDJ3250636201803                D89828070200PV1D20180313000060SPEAKER ASM                   M IMCTM S5MA14 TNTH  07070IMCT  S5 PTB  00005                    0400 SR        000000000000 DENSO TEN (THAILAND)18001VL0009010                                                                                                                              *          20180308 IMCT                IMCT                                                                                                                    WMF1803084.TXT
MDEDJ3250637201803                D89828070200PV1D20180313000030SPEAKER ASM                   M IMCTM S5MA14 TNTH  07070IMCT  S5 PTB  00005                    1600 SR        000000000000 DENSO TEN (THAILAND)18080UL0014014                                                                                                                              *          20180308 IMCT                IMCT                                                                                                                    WMF1803084.TXT
MDEDJ3250638201803                D89828070200PV1D20180313000030SPEAKER ASM                   M IMCTM S5MA14 TNTH  07070IMCT  S5 PTB  00005                    2100 SR        000000000000 DENSO TEN (THAILAND)18080UL0015015                                                                                                                              *          20180308 IMCT                IMCT                                                                                                                    WMF1803084.TXT
MDEDJ3250639201803                D89828070200PV4D20180313000030SPEAKER ASM                   M IMCTM S0FR05 TNTH  07070IMCT  S0 PTB  00005                    1030 SR        000000000000 DENSO TEN (THAILAND)18069UU0001001                                                                                                                              *          20180308 IMCT                IMCT                                                                                                                    WMF1803084.TXT
MDEDJ3250640201803                D89828070300PT1D20180312000030SPEAKER ASM                   M IMCTM S5NB082TNTH  07070IMCT  S5 PTB  00015                    2230 SR        000000000000 DENSO TEN (THAILAND)18099UL0032032                                                                                                                              *          20180308 IMCT                IMCT                                                                                                                    WMF1803084.TXT
MDEDJ3250641201803                D89828070300PT1D20180313000030SPEAKER ASM                   M IMCTM S5NB082TNTH  07070IMCT  S5 PTB  00015                    0230 SR        000000000000 DENSO TEN (THAILAND)18083UL0005005                                                                                                                              *          20180308 IMCT                IMCT                                                                                                                    WMF1803084.TXT
MDEDJ3250642201803                D89828070300PT1D20180313000060SPEAKER ASM                   M IMCTM S5NB082TNTH  07070IMCT  S5 PTB  00015                    0400 SR        000000000000 DENSO TEN (THAILAND)18001VL0009010                                                                                                                              *          20180308 IMCT                IMCT                                                                                                                    WMF1803084.TXT
MDEDJ3250643201803                D89828070300PT1D20180313000060SPEAKER ASM                   M IMCTM S5NB082TNTH  07070IMCT  S5 PTB  00015                    1300 SR        000000000000 DENSO TEN (THAILAND)18076UL0007008                                                                                                                              *          20180308 IMCT                IMCT                                                                                                                    WMF1803084.TXT
MDEDJ3250644201803                D89828070300PT1D20180313000030SPEAKER ASM                   M IMCTM S5NB082TNTH  07070IMCT  S5 PTB  00015                    1600 SR        000000000000 DENSO TEN (THAILAND)18080UL0014014                                                                                                                              *          20180308 IMCT                IMCT                                                                                                                    WMF1803084.TXT
MDEDJ3250645201803                D89828070300PT1D20180313000030SPEAKER ASM                   M IMCTM S5NB082TNTH  07070IMCT  S5 PTB  00015                    2100 SR        000000000000 DENSO TEN (THAILAND)18080UL0015015                                                                                                                              *          20180308 IMCT                IMCT                                                                                                                    WMF1803084.TXT
MDEDJ3250646201803                D89828070300PT4D20180313000030SPEAKER ASM                   M IMCTM S9TS02 TNTH  07070IMCT  S9 PTB  00015                    1030 SR        000000000000 DENSO TEN (THAILAND)18069UU0001001                                                                                                                              *          20180308 IMCT                IMCT                                                                                                                    WMF1803084.TXT
MDEDJ3250647201803                D89828070300PT4D20180313000030SPEAKER ASM                   M IMCTM S9TS02 TNTH  07070IMCT  S9 PTB  00015                    1300 SR        000000000000 DENSO TEN (THAILAND)18061UU0011011                                                                                                                              *          20180308 IMCT                IMCT                                                                                                                    WMF1803084.TXT
MDEDJ3250648201803                D89828070300PT4D20180313000030SPEAKER ASM                   M IMCTM S9TS02 TNTH  07070IMCT  S9 PTB  00015                    2100 SR        000000000000 DENSO TEN (THAILAND)18063UU0011011                                                                                                                              *          20180308 IMCT                IMCT                                                                                                                    WMF1803084.TXT
MDEDJ3250649201803                D89848581800PT1D20180313000015RADIO;AM/FM CD D              M IMCTM S5NC06 TNTH  07070IMCT  S5 PTB  00003                    0230 SR        000000000000 DENSO TEN (THAILAND)18083UL0005005                                                                                                                              *          20180308 IMCT                IMCT                                                                                                                    WMF1803084.TXT
MDEDJ3250650201803                D89848581800PT1D20180313000015RADIO;AM/FM CD D              M IMCTM S5NC06 TNTH  07070IMCT  S5 PTB  00003                    1600 SR        000000000000 DENSO TEN (THAILAND)18080UL0014014                                                                                                                              *          20180308 IMCT                IMCT                                                                                                                    WMF1803084.TXT
MDEDJ3250651201803                D89848581800PT1D20180313000015RADIO;AM/FM CD D              M IMCTM S5NC06 TNTH  07070IMCT  S5 PTB  00003                    2100 SR        000000000000 DENSO TEN (THAILAND)18080UL0015015                                                                                                                              *          20180308 IMCT                IMCT                                                                                                                    WMF1803084.TXT
MDEDJ3250652201803                D89848581800PT4D20180313000015RADIO;AM/FM CD D              M IMCTM S9CO001TNTH  07070IMCT  S9 PTB  00003                    1300 SR        000000000000 DENSO TEN (THAILAND)18061UU0011011                                                                                                                              *          20180308 IMCT                IMCT                                                                                                                    WMF1803084.TXT
MDEDJ3250653201803                D89848581800PT4D20180313000015RADIO;AM/FM CD D              M IMCTM S9CO001TNTH  07070IMCT  S9 PTB  00003                    2100 SR        000000000000 DENSO TEN (THAILAND)18063UU0011011                                                                                                                              *          20180308 IMCT                IMCT                                                                                                                    WMF1803084.TXT
MDEUJ3237175201803                D89828070100PT4U20180312000030SPEAKER ASM                   M IMCTM S0FL05 TNTH  07070IMCT  S0 PTB  00004                    2230 SR        000000000000 DENSO TEN (THAILAND)18021UU0051051                                                                                                                              *          20180308 IMCT                IMCT                                                                                                                    WMF1803084.TXT
MDEUJ3237176201803                D89828070100PT4U20180313000030SPEAKER ASM                   M IMCTM S0FL05 TNTH  07070IMCT  S0 PTB  00004                    0230 SR        000000000000 DENSO TEN (THAILAND)18021UU0052052                                                                                                                              *          20180308 IMCT                IMCT                                                                                                                    WMF1803084.TXT
MDEUJ3237177201803                D89828070100PT4U20180313000030SPEAKER ASM                   M IMCTM S0FL05 TNTH  07070IMCT  S0 PTB  00004                    0830 SR        000000000000 DENSO TEN (THAILAND)18043YU0003003                                                                                                                              *          20180308 IMCT                IMCT                                                                                                                    WMF1803084.TXT
MDEUJ3237178201803                D89828070100PT4U20180313000030SPEAKER ASM                   M IMCTM S0FL05 TNTH  07070IMCT  S0 PTB  00004                    1030 SR        000000000000 DENSO TEN (THAILAND)18020UU0026026                                                                                                                              *          20180308 IMCT                IMCT                                                                                                                    WMF1803084.TXT
MDEUJ3237179201803                D89828070100PT4U20180313000060SPEAKER ASM                   M IMCTM S0FL05 TNTH  07070IMCT  S0 PTB  00004                    1300 SR        000000000000 DENSO TEN (THAILAND)18015UU001101118021UU0053053                                                                                                                *          20180308 IMCT                IMCT                                                                                                                    WMF1803084.TXT
MDEUJ3237180201803                D89828070100PT4U20180313000060SPEAKER ASM                   M IMCTM S0FL05 TNTH  07070IMCT  S0 PTB  00004                    1600 SR        000000000000 DENSO TEN (THAILAND)18020UU002702718024UU0030030                                                                                                                *          20180308 IMCT                IMCT                                                                                                                    WMF1803084.TXT
MDEUJ3237181201803                D89828070100PT4U20180313000030SPEAKER ASM                   M IMCTM S0FL05 TNTH  07070IMCT  S0 PTB  00004                    2100 SR        000000000000 DENSO TEN (THAILAND)18016UU0013013                                                                                                                              *          20180308 IMCT                IMCT                                                                                                                    WMF1803084.TXT
MDEUJ3237182201803                D89828070100PT4U20180313000030SPEAKER ASM                   M IMCTM S0FL05 TNTH  07070IMCT  S0 PTB  00004                    2230 SR        000000000000 DENSO TEN (THAILAND)18021UU0054054                                                                                                                              *          20180308 IMCT                IMCT                                                                                                                    WMF1803084.TXT
MDEUJ3237183201803                D89828070200PV4U20180312000030SPEAKER ASM                   M IMCTM S0FR05 TNTH  07070IMCT  S0 PTB  00005                    2230 SR        000000000000 DENSO TEN (THAILAND)18021UU0051051                                                                                                                              *          20180308 IMCT                IMCT                                                                                                                    WMF1803084.TXT
MDEUJ3237184201803                D89828070200PV4U20180313000030SPEAKER ASM                   M IMCTM S0FR05 TNTH  07070IMCT  S0 PTB  00005                    0230 SR        000000000000 DENSO TEN (THAILAND)18021UU0052052                                                                                                                              *          20180308 IMCT                IMCT                                                                                                                    WMF1803084.TXT
MDEUJ3237185201803                D89828070200PV4U20180313000030SPEAKER ASM                   M IMCTM S0FR05 TNTH  07070IMCT  S0 PTB  00005                    0830 SR        000000000000 DENSO TEN (THAILAND)18043YU0003003                                                                                                                              *          20180308 IMCT                IMCT                                                                                                                    WMF1803084.TXT
MDEUJ3237186201803                D89828070200PV4U20180313000030SPEAKER ASM                   M IMCTM S0FR05 TNTH  07070IMCT  S0 PTB  00005                    1030 SR        000000000000 DENSO TEN (THAILAND)18020UU0026026                                                                                                                              *          20180308 IMCT                IMCT                                                                                                                    WMF1803084.TXT
MDEUJ3237187201803                D89828070200PV4U20180313000060SPEAKER ASM                   M IMCTM S0FR05 TNTH  07070IMCT  S0 PTB  00005                    1300 SR        000000000000 DENSO TEN (THAILAND)18015UU001101118021UU0053053                                                                                                                *          20180308 IMCT                IMCT                                                                                                                    WMF1803084.TXT
MDEUJ3237188201803                D89828070200PV4U20180313000060SPEAKER ASM                   M IMCTM S0FR05 TNTH  07070IMCT  S0 PTB  00005                    1600 SR        000000000000 DENSO TEN (THAILAND)18020UU002702718024UU0030030                                                                                                                *          20180308 IMCT                IMCT                                                                                                                    WMF1803084.TXT
MDEUJ3237189201803                D89828070200PV4U20180313000030SPEAKER ASM                   M IMCTM S0FR05 TNTH  07070IMCT  S0 PTB  00005                    2100 SR        000000000000 DENSO TEN (THAILAND)18016UU0013013                                                                                                                              *          20180308 IMCT                IMCT                                                                                                                    WMF1803084.TXT
MDEUJ3237190201803                D89828070200PV4U20180313000030SPEAKER ASM                   M IMCTM S0FR05 TNTH  07070IMCT  S0 PTB  00005                    2230 SR        000000000000 DENSO TEN (THAILAND)18021UU0054054                                                                                                                              *          20180308 IMCT                IMCT                                                                                                                    WMF1803084.TXT
MDEUJ3237191201803                D89828070300PT4U20180312000030SPEAKER ASM                   M IMCTM S9TS02 TNTH  07070IMCT  S9 PTB  00015                    2230 SR        000000000000 DENSO TEN (THAILAND)18021UU0051051                                                                                                                              *          20180308 IMCT                IMCT                                                                                                                    WMF1803084.TXT
MDEUJ3237192201803                D89828070300PT4U20180313000030SPEAKER ASM                   M IMCTM S9TS02 TNTH  07070IMCT  S9 PTB  00015                    0230 SR        000000000000 DENSO TEN (THAILAND)18021UU0052052                                                                                                                              *          20180308 IMCT                IMCT                                                                                                                    WMF1803084.TXT
MDEUJ3237193201803                D89828070300PT4U20180313000030SPEAKER ASM                   M IMCTM S9TS02 TNTH  07070IMCT  S9 PTB  00015                    0830 SR        000000000000 DENSO TEN (THAILAND)18043YU0003003                                                                                                                              *          20180308 IMCT                IMCT                                                                                                                    WMF1803084.TXT
MDEUJ3237194201803                D89828070300PT4U20180313000030SPEAKER ASM                   M IMCTM S9TS02 TNTH  07070IMCT  S9 PTB  00015                    1030 SR        000000000000 DENSO TEN (THAILAND)18020UU0026026                                                                                                                              *          20180308 IMCT                IMCT                                                                                                                    WMF1803084.TXT
MDEUJ3237195201803                D89828070300PT4U20180313000060SPEAKER ASM                   M IMCTM S9TS02 TNTH  07070IMCT  S9 PTB  00015                    1300 SR        000000000000 DENSO TEN (THAILAND)18015UU001101118021UU0053053                                                                                                                *          20180308 IMCT                IMCT                                                                                                                    WMF1803084.TXT
MDEUJ3237196201803                D89828070300PT4U20180313000060SPEAKER ASM                   M IMCTM S9TS02 TNTH  07070IMCT  S9 PTB  00015                    1600 SR        000000000000 DENSO TEN (THAILAND)18020UU002702718024UU0030030                                                                                                                *          20180308 IMCT                IMCT                                                                                                                    WMF1803084.TXT
MDEUJ3237197201803                D89828070300PT4U20180313000030SPEAKER ASM                   M IMCTM S9TS02 TNTH  07070IMCT  S9 PTB  00015                    2100 SR        000000000000 DENSO TEN (THAILAND)18016UU0013013                                                                                                                              *          20180308 IMCT                IMCT                                                                                                                    WMF1803084.TXT
MDEUJ3237198201803                D89828070300PT4U20180313000030SPEAKER ASM                   M IMCTM S9TS02 TNTH  07070IMCT  S9 PTB  00015                    2230 SR        000000000000 DENSO TEN (THAILAND)18021UU0054054                                                                                                                              *          20180308 IMCT                IMCT                                                                                                                    WMF1803084.TXT
