REC2018031620180316ISUZU                              82     
MDDDJ3255887201803                D89821984430PT1D20180320000030RADIO;AM/FM,CD                M IMCTM S5NC06 TNTH  07070IMCT  S5 PTB  00005                    2230 SR        000000000000 DENSO TEN (THAILAND)180LRBL0023023                                                                                                                              *          20180316 IMCT                IMCT                                                                                                                    WMF1803164.TXT
MDDDJ3255888201803                D89821984430PT1D20180321000030RADIO;AM/FM,CD                M IMCTM S5NC06 TNTH  07070IMCT  S5 PTB  00005                    1030 SR        000000000000 DENSO TEN (THAILAND)180LNEL0065065                                                                                                                              *          20180316 IMCT                IMCT                                                                                                                    WMF1803164.TXT
MDDDJ3255889201803                D89821984430PT1D20180321000030RADIO;AM/FM,CD                M IMCTM S5NC06 TNTH  07070IMCT  S5 PTB  00005                    1300 SR        000000000000 DENSO TEN (THAILAND)180LRBL0024024                                                                                                                              *          20180316 IMCT                IMCT                                                                                                                    WMF1803164.TXT
MDDDJ3255890201803                D89821984430PT1D20180321000030RADIO;AM/FM,CD                M IMCTM S5NC06 TNTH  07070IMCT  S5 PTB  00005                    1600 SR        000000000000 DENSO TEN (THAILAND)180LPBL0011011                                                                                                                              *          20180316 IMCT                IMCT                                                                                                                    WMF1803164.TXT
MDDDJ3255891201803                D89828070100PV1D20180320000060SPEAKER ASM                   M IMCTM S5MB11 TNTH  07070IMCT  S5 PTB  00004                    2230 SR        000000000000 DENSO TEN (THAILAND)180LRBL0023023                                                                                                                              *          20180316 IMCT                IMCT                                                                                                                    WMF1803164.TXT
MDDDJ3255892201803                D89828070100PV1D20180321000060SPEAKER ASM                   M IMCTM S5MB11 TNTH  07070IMCT  S5 PTB  00004                    1030 SR        000000000000 DENSO TEN (THAILAND)180LNEL0065065                                                                                                                              *          20180316 IMCT                IMCT                                                                                                                    WMF1803164.TXT
MDDDJ3255893201803                D89828070100PV1D20180321000060SPEAKER ASM                   M IMCTM S5MB11 TNTH  07070IMCT  S5 PTB  00004                    1300 SR        000000000000 DENSO TEN (THAILAND)180LRBL0024024                                                                                                                              *          20180316 IMCT                IMCT                                                                                                                    WMF1803164.TXT
MDDDJ3255894201803                D89828070100PV1D20180321000120SPEAKER ASM                   M IMCTM S5MB11 TNTH  07070IMCT  S5 PTB  00004                    1600 SR        000000000000 DENSO TEN (THAILAND)180LPBL0011011180LPLL0007007                                                                                                                *          20180316 IMCT                IMCT                                                                                                                    WMF1803164.TXT
MDDDJ3255895201803                D89828070100PV4D20180321000060SPEAKER ASM                   M IMCTM S0FL05 TNTH  07070IMCT  S0 PTB  00004                    0830 SR        000000000000 DENSO TEN (THAILAND)180LRQU0001001                                                                                                                              *          20180316 IMCT                IMCT                                                                                                                    WMF1803164.TXT
MDDDJ3255896201803                D89828070200PV4D20180321000060SPEAKER ASM                   M IMCTM S0FR05 TNTH  07070IMCT  S0 PTB  00005                    0830 SR        000000000000 DENSO TEN (THAILAND)180LRQU0001001                                                                                                                              *          20180316 IMCT                IMCT                                                                                                                    WMF1803164.TXT
MDDDJ3255897201803                D89828070300PT1D20180321000060SPEAKER ASM                   M IMCTM S5NB082TNTH  07070IMCT  S5 PTB  00015                    1600 SR        000000000000 DENSO TEN (THAILAND)180LPLL0007007                                                                                                                              *          20180316 IMCT                IMCT                                                                                                                    WMF1803164.TXT
MDDDJ3255898201803                D89828070300PT4D20180321000060SPEAKER ASM                   M IMCTM S9TS02 TNTH  07070IMCT  S9 PTB  00015                    0830 SR        000000000000 DENSO TEN (THAILAND)180LRQU0001001                                                                                                                              *          20180316 IMCT                IMCT                                                                                                                    WMF1803164.TXT
MDDDJ3255899201803                D89848581500PT4D20180321000030RADIO;AM/FM CD D              M IMCTM S9CO001TNTH  07070IMCT  S9 PTB  00003                    0830 SR        000000000000 DENSO TEN (THAILAND)180LRQU0001001                                                                                                                              *          20180316 IMCT                IMCT                                                                                                                    WMF1803164.TXT
MDDDJ3255900201803                D89848581600PT1D20180321000030RADIO;AM/FM CD D              M IMCTM S5NC06 TNTH  07070IMCT  S5 PTB  00003                    1600 SR        000000000000 DENSO TEN (THAILAND)180LPLL0007007                                                                                                                              *          20180316 IMCT                IMCT                                                                                                                    WMF1803164.TXT
MDDUJ3223412201803                D89828070100PT4U20180321000030SPEAKER ASM                   M IMCTM S0FL05 TNTH  07070IMCT  S0 PTB  00004                    0400 SR        000000000000 DENSO TEN (THAILAND)180LURU0035035                                                                                                                              *          20180316 IMCT                IMCT                                                                                                                    WMF1803164.TXT
MDDUJ3223413201803                D89828070100PT4U20180321000030SPEAKER ASM                   M IMCTM S0FL05 TNTH  07070IMCT  S0 PTB  00004                    1600 SR        000000000000 DENSO TEN (THAILAND)180LULU0021021                                                                                                                              *          20180316 IMCT                IMCT                                                                                                                    WMF1803164.TXT
MDDUJ3223414201803                D89828070200PV4U20180321000030SPEAKER ASM                   M IMCTM S0FR05 TNTH  07070IMCT  S0 PTB  00005                    0400 SR        000000000000 DENSO TEN (THAILAND)180LURU0035035                                                                                                                              *          20180316 IMCT                IMCT                                                                                                                    WMF1803164.TXT
MDDUJ3223415201803                D89828070200PV4U20180321000030SPEAKER ASM                   M IMCTM S0FR05 TNTH  07070IMCT  S0 PTB  00005                    1600 SR        000000000000 DENSO TEN (THAILAND)180LULU0021021                                                                                                                              *          20180316 IMCT                IMCT                                                                                                                    WMF1803164.TXT
MDDUJ3223416201803                D89828070300PT4U20180321000030SPEAKER ASM                   M IMCTM S9TS02 TNTH  07070IMCT  S9 PTB  00015                    0400 SR        000000000000 DENSO TEN (THAILAND)180LURU0035035                                                                                                                              *          20180316 IMCT                IMCT                                                                                                                    WMF1803164.TXT
MDDUJ3223417201803                D89828070300PT4U20180321000030SPEAKER ASM                   M IMCTM S9TS02 TNTH  07070IMCT  S9 PTB  00015                    1600 SR        000000000000 DENSO TEN (THAILAND)180LULU0021021                                                                                                                              *          20180316 IMCT                IMCT                                                                                                                    WMF1803164.TXT
MDEDJ3304880201803                D89828070100PV1D20180320000060SPEAKER ASM                   M IMCTM S5MB11 TNTH  07070IMCT  S5 PTB  00004                    2230 SR        000000000000 DENSO TEN (THAILAND)18076UL001101118080UL0017017                                                                                                                *          20180316 IMCT                IMCT                                                                                                                    WMF1803164.TXT
MDEDJ3304881201803                D89828070100PV1D20180321000060SPEAKER ASM                   M IMCTM S5MB11 TNTH  07070IMCT  S5 PTB  00004                    0230 SR        000000000000 DENSO TEN (THAILAND)18001YL000600618098UL0027027                                                                                                                *          20180316 IMCT                IMCT                                                                                                                    WMF1803164.TXT
MDEDJ3304882201803                D89828070100PV1D20180321000090SPEAKER ASM                   M IMCTM S5MB11 TNTH  07070IMCT  S5 PTB  00004                    0400 SR        000000000000 DENSO TEN (THAILAND)18063UL001101118068UL000600618098XL0006006                                                                                                  *          20180316 IMCT                IMCT                                                                                                                    WMF1803164.TXT
MDEDJ3304883201803                D89828070100PV1D20180321000090SPEAKER ASM                   M IMCTM S5MB11 TNTH  07070IMCT  S5 PTB  00004                    0830 SR        000000000000 DENSO TEN (THAILAND)18064UL001101118076XL000100118098XL0007007                                                                                                  *          20180316 IMCT                IMCT                                                                                                                    WMF1803164.TXT
MDEDJ3304884201803                D89828070100PV1D20180321000060SPEAKER ASM                   M IMCTM S5MB11 TNTH  07070IMCT  S5 PTB  00004                    1300 SR        000000000000 DENSO TEN (THAILAND)18080UL0018019                                                                                                                              *          20180316 IMCT                IMCT                                                                                                                    WMF1803164.TXT
MDEDJ3304885201803                D89828070100PV1D20180321000120SPEAKER ASM                   M IMCTM S5MB11 TNTH  07070IMCT  S5 PTB  00004                    1600 SR        000000000000 DENSO TEN (THAILAND)18098UL002802918099UL0047048                                                                                                                *          20180316 IMCT                IMCT                                                                                                                    WMF1803164.TXT
MDEDJ3304886201803                D89828070100PV1D20180321000030SPEAKER ASM                   M IMCTM S5MB11 TNTH  07070IMCT  S5 PTB  00004                    2100 SR        000000000000 DENSO TEN (THAILAND)18074UL0017017                                                                                                                              *          20180316 IMCT                IMCT                                                                                                                    WMF1803164.TXT
MDEDJ3304887201803                D89828070100PV4D20180321000030SPEAKER ASM                   M IMCTM S0FL05 TNTH  07070IMCT  S0 PTB  00004                    1300 SR        000000000000 DENSO TEN (THAILAND)18067UU0010010                                                                                                                              *          20180316 IMCT                IMCT                                                                                                                    WMF1803164.TXT
MDEDJ3304888201803                D89828070100PV4D20180321000030SPEAKER ASM                   M IMCTM S0FL05 TNTH  07070IMCT  S0 PTB  00004                    1600 SR        000000000000 DENSO TEN (THAILAND)18067XU0002002                                                                                                                              *          20180316 IMCT                IMCT                                                                                                                    WMF1803164.TXT
MDEDJ3304889201803                D89828070100PV4D20180321000030SPEAKER ASM                   M IMCTM S0FL05 TNTH  07070IMCT  S0 PTB  00004                    2100 SR        000000000000 DENSO TEN (THAILAND)18067UU0011011                                                                                                                              *          20180316 IMCT                IMCT                                                                                                                    WMF1803164.TXT
MDEDJ3304890201803                D89828070200PV1D20180320000030SPEAKER ASM                   M IMCTM S5MA14 TNTH  07070IMCT  S5 PTB  00005                    2230 SR        000000000000 DENSO TEN (THAILAND)18080UL0017017                                                                                                                              *          20180316 IMCT                IMCT                                                                                                                    WMF1803164.TXT
MDEDJ3304891201803                D89828070200PV1D20180321000060SPEAKER ASM                   M IMCTM S5MA14 TNTH  07070IMCT  S5 PTB  00005                    0230 SR        000000000000 DENSO TEN (THAILAND)18001YL000600618098UL0027027                                                                                                                *          20180316 IMCT                IMCT                                                                                                                    WMF1803164.TXT
MDEDJ3304892201803                D89828070200PV1D20180321000060SPEAKER ASM                   M IMCTM S5MA14 TNTH  07070IMCT  S5 PTB  00005                    0400 SR        000000000000 DENSO TEN (THAILAND)18068UL000600618098XL0006006                                                                                                                *          20180316 IMCT                IMCT                                                                                                                    WMF1803164.TXT
MDEDJ3304893201803                D89828070200PV1D20180321000030SPEAKER ASM                   M IMCTM S5MA14 TNTH  07070IMCT  S5 PTB  00005                    0830 SR        000000000000 DENSO TEN (THAILAND)18098XL0007007                                                                                                                              *          20180316 IMCT                IMCT                                                                                                                    WMF1803164.TXT
MDEDJ3304894201803                D89828070200PV1D20180321000060SPEAKER ASM                   M IMCTM S5MA14 TNTH  07070IMCT  S5 PTB  00005                    1300 SR        000000000000 DENSO TEN (THAILAND)18080UL0018019                                                                                                                              *          20180316 IMCT                IMCT                                                                                                                    WMF1803164.TXT
MDEDJ3304895201803                D89828070200PV1D20180321000120SPEAKER ASM                   M IMCTM S5MA14 TNTH  07070IMCT  S5 PTB  00005                    1600 SR        000000000000 DENSO TEN (THAILAND)18098UL002802918099UL0047048                                                                                                                *          20180316 IMCT                IMCT                                                                                                                    WMF1803164.TXT
MDEDJ3304896201803                D89828070200PV4D20180321000030SPEAKER ASM                   M IMCTM S0FR05 TNTH  07070IMCT  S0 PTB  00005                    1300 SR        000000000000 DENSO TEN (THAILAND)18067UU0010010                                                                                                                              *          20180316 IMCT                IMCT                                                                                                                    WMF1803164.TXT
MDEDJ3304897201803                D89828070200PV4D20180321000030SPEAKER ASM                   M IMCTM S0FR05 TNTH  07070IMCT  S0 PTB  00005                    1600 SR        000000000000 DENSO TEN (THAILAND)18067XU0002002                                                                                                                              *          20180316 IMCT                IMCT                                                                                                                    WMF1803164.TXT
MDEDJ3304898201803                D89828070200PV4D20180321000030SPEAKER ASM                   M IMCTM S0FR05 TNTH  07070IMCT  S0 PTB  00005                    2100 SR        000000000000 DENSO TEN (THAILAND)18067UU0011011                                                                                                                              *          20180316 IMCT                IMCT                                                                                                                    WMF1803164.TXT
MDEDJ3304899201803                D89828070300PT1D20180320000060SPEAKER ASM                   M IMCTM S5NB082TNTH  07070IMCT  S5 PTB  00015                    2230 SR        000000000000 DENSO TEN (THAILAND)18076UL001101118080UL0017017                                                                                                                *          20180316 IMCT                IMCT                                                                                                                    WMF1803164.TXT
MDEDJ3304900201803                D89828070300PT1D20180321000060SPEAKER ASM                   M IMCTM S5NB082TNTH  07070IMCT  S5 PTB  00015                    0230 SR        000000000000 DENSO TEN (THAILAND)18001YL000600618098UL0027027                                                                                                                *          20180316 IMCT                IMCT                                                                                                                    WMF1803164.TXT
MDEDJ3304901201803                D89828070300PT1D20180321000090SPEAKER ASM                   M IMCTM S5NB082TNTH  07070IMCT  S5 PTB  00015                    0400 SR        000000000000 DENSO TEN (THAILAND)18063UL001101118068UL000600618098XL0006006                                                                                                  *          20180316 IMCT                IMCT                                                                                                                    WMF1803164.TXT
MDEDJ3304902201803                D89828070300PT1D20180321000060SPEAKER ASM                   M IMCTM S5NB082TNTH  07070IMCT  S5 PTB  00015                    0830 SR        000000000000 DENSO TEN (THAILAND)18064UL001101118098XL0007007                                                                                                                *          20180316 IMCT                IMCT                                                                                                                    WMF1803164.TXT
MDEDJ3304903201803                D89828070300PT1D20180321000060SPEAKER ASM                   M IMCTM S5NB082TNTH  07070IMCT  S5 PTB  00015                    1300 SR        000000000000 DENSO TEN (THAILAND)18080UL0018019                                                                                                                              *          20180316 IMCT                IMCT                                                                                                                    WMF1803164.TXT
MDEDJ3304904201803                D89828070300PT1D20180321000120SPEAKER ASM                   M IMCTM S5NB082TNTH  07070IMCT  S5 PTB  00015                    1600 SR        000000000000 DENSO TEN (THAILAND)18098UL002802918099UL0047048                                                                                                                *          20180316 IMCT                IMCT                                                                                                                    WMF1803164.TXT
MDEDJ3304905201803                D89828070300PT1D20180321000030SPEAKER ASM                   M IMCTM S5NB082TNTH  07070IMCT  S5 PTB  00015                    2100 SR        000000000000 DENSO TEN (THAILAND)18074UL0017017                                                                                                                              *          20180316 IMCT                IMCT                                                                                                                    WMF1803164.TXT
MDEDJ3304906201803                D89828070300PT4D20180321000030SPEAKER ASM                   M IMCTM S9TS02 TNTH  07070IMCT  S9 PTB  00015                    1300 SR        000000000000 DENSO TEN (THAILAND)18067UU0010010                                                                                                                              *          20180316 IMCT                IMCT                                                                                                                    WMF1803164.TXT
MDEDJ3304907201803                D89828070300PT4D20180321000030SPEAKER ASM                   M IMCTM S9TS02 TNTH  07070IMCT  S9 PTB  00015                    1600 SR        000000000000 DENSO TEN (THAILAND)18067XU0002002                                                                                                                              *          20180316 IMCT                IMCT                                                                                                                    WMF1803164.TXT
MDEDJ3304908201803                D89828070300PT4D20180321000030SPEAKER ASM                   M IMCTM S9TS02 TNTH  07070IMCT  S9 PTB  00015                    2100 SR        000000000000 DENSO TEN (THAILAND)18067UU0011011                                                                                                                              *          20180316 IMCT                IMCT                                                                                                                    WMF1803164.TXT
MDEDJ3304909201803                D89848581800PT1D20180320000015RADIO;AM/FM CD D              M IMCTM S5NC06 TNTH  07070IMCT  S5 PTB  00003                    2230 SR        000000000000 DENSO TEN (THAILAND)18080UL0017017                                                                                                                              *          20180316 IMCT                IMCT                                                                                                                    WMF1803164.TXT
MDEDJ3304910201803                D89848581800PT1D20180321000015RADIO;AM/FM CD D              M IMCTM S5NC06 TNTH  07070IMCT  S5 PTB  00003                    0230 SR        000000000000 DENSO TEN (THAILAND)18098UL0027027                                                                                                                              *          20180316 IMCT                IMCT                                                                                                                    WMF1803164.TXT
MDEDJ3304911201803                D89848581800PT1D20180321000015RADIO;AM/FM CD D              M IMCTM S5NC06 TNTH  07070IMCT  S5 PTB  00003                    0400 SR        000000000000 DENSO TEN (THAILAND)18063UL0011011                                                                                                                              *          20180316 IMCT                IMCT                                                                                                                    WMF1803164.TXT
MDEDJ3304912201803                D89848581800PT1D20180321000030RADIO;AM/FM CD D              M IMCTM S5NC06 TNTH  07070IMCT  S5 PTB  00003                    1300 SR        000000000000 DENSO TEN (THAILAND)18080UL0018019                                                                                                                              *          20180316 IMCT                IMCT                                                                                                                    WMF1803164.TXT
MDEDJ3304913201803                D89848581800PT1D20180321000030RADIO;AM/FM CD D              M IMCTM S5NC06 TNTH  07070IMCT  S5 PTB  00003                    1600 SR        000000000000 DENSO TEN (THAILAND)18098UL0028029                                                                                                                              *          20180316 IMCT                IMCT                                                                                                                    WMF1803164.TXT
MDEDJ3304914201803                D89848582100PT1D20180321000015RADIO;AM/FM CD D              M IMCTM S5NC06 TNTH  07070IMCT  S5 PTB  00003                    0400 SR        000000000000 DENSO TEN (THAILAND)18098XL0006006                                                                                                                              *          20180316 IMCT                IMCT                                                                                                                    WMF1803164.TXT
MDEDJ3304915201803                D89848582100PT1D20180321000015RADIO;AM/FM CD D              M IMCTM S5NC06 TNTH  07070IMCT  S5 PTB  00003                    0830 SR        000000000000 DENSO TEN (THAILAND)18098XL0007007                                                                                                                              *          20180316 IMCT                IMCT                                                                                                                    WMF1803164.TXT
MDEDJ3304916201803                D89848582500PT1D20180321000015RADIO;AM/FM CD D              M IMCTM S5NC06 TNTH  07070IMCT  S5 PTB  00003                    0830 SR        000000000000 DENSO TEN (THAILAND)18064UL0011011                                                                                                                              *          20180316 IMCT                IMCT                                                                                                                    WMF1803164.TXT
MDEDJ3304917201803                D89848582500PT1D20180321000015RADIO;AM/FM CD D              M IMCTM S5NC06 TNTH  07070IMCT  S5 PTB  00003                    2100 SR        000000000000 DENSO TEN (THAILAND)18074UL0017017                                                                                                                              *          20180316 IMCT                IMCT                                                                                                                    WMF1803164.TXT
MDEUJ3274858201803                D89828070100PT4U20180320000030SPEAKER ASM                   M IMCTM S0FL05 TNTH  07070IMCT  S0 PTB  00004                    2230 SR        000000000000 DENSO TEN (THAILAND)18020UU0034034                                                                                                                              *          20180316 IMCT                IMCT                                                                                                                    WMF1803164.TXT
MDEUJ3274859201803                D89828070100PT4U20180321000030SPEAKER ASM                   M IMCTM S0FL05 TNTH  07070IMCT  S0 PTB  00004                    0230 SR        000000000000 DENSO TEN (THAILAND)18026UU0207207                                                                                                                              *          20180316 IMCT                IMCT                                                                                                                    WMF1803164.TXT
MDEUJ3274860201803                D89828070100PT4U20180321000030SPEAKER ASM                   M IMCTM S0FL05 TNTH  07070IMCT  S0 PTB  00004                    0400 SR        000000000000 DENSO TEN (THAILAND)18020UU0035035                                                                                                                              *          20180316 IMCT                IMCT                                                                                                                    WMF1803164.TXT
MDEUJ3274861201803                D89828070100PT4U20180321000030SPEAKER ASM                   M IMCTM S0FL05 TNTH  07070IMCT  S0 PTB  00004                    1030 SR        000000000000 DENSO TEN (THAILAND)18026UU0208208                                                                                                                              *          20180316 IMCT                IMCT                                                                                                                    WMF1803164.TXT
MDEUJ3274862201803                D89828070100PT4U20180321000030SPEAKER ASM                   M IMCTM S0FL05 TNTH  07070IMCT  S0 PTB  00004                    1300 SR        000000000000 DENSO TEN (THAILAND)18043YU0007007                                                                                                                              *          20180316 IMCT                IMCT                                                                                                                    WMF1803164.TXT
MDEUJ3274863201803                D89828070100PT4U20180321000030SPEAKER ASM                   M IMCTM S0FL05 TNTH  07070IMCT  S0 PTB  00004                    1600 SR        000000000000 DENSO TEN (THAILAND)18020UU0036036                                                                                                                              *          20180316 IMCT                IMCT                                                                                                                    WMF1803164.TXT
MDEUJ3274864201803                D89828070100PT4U20180321000030SPEAKER ASM                   M IMCTM S0FL05 TNTH  07070IMCT  S0 PTB  00004                    2100 SR        000000000000 DENSO TEN (THAILAND)18020UU0037037                                                                                                                              *          20180316 IMCT                IMCT                                                                                                                    WMF1803164.TXT
MDEUJ3274865201803                D89828070100PT4U20180321000030SPEAKER ASM                   M IMCTM S0FL05 TNTH  07070IMCT  S0 PTB  00004                    2230 SR        000000000000 DENSO TEN (THAILAND)18025UU0052052                                                                                                                              *          20180316 IMCT                IMCT                                                                                                                    WMF1803164.TXT
MDEUJ3274866201803                D89828070200PV4U20180320000030SPEAKER ASM                   M IMCTM S0FR05 TNTH  07070IMCT  S0 PTB  00005                    2230 SR        000000000000 DENSO TEN (THAILAND)18020UU0034034                                                                                                                              *          20180316 IMCT                IMCT                                                                                                                    WMF1803164.TXT
MDEUJ3274867201803                D89828070200PV4U20180321000030SPEAKER ASM                   M IMCTM S0FR05 TNTH  07070IMCT  S0 PTB  00005                    0230 SR        000000000000 DENSO TEN (THAILAND)18026UU0207207                                                                                                                              *          20180316 IMCT                IMCT                                                                                                                    WMF1803164.TXT
MDEUJ3274868201803                D89828070200PV4U20180321000030SPEAKER ASM                   M IMCTM S0FR05 TNTH  07070IMCT  S0 PTB  00005                    0400 SR        000000000000 DENSO TEN (THAILAND)18020UU0035035                                                                                                                              *          20180316 IMCT                IMCT                                                                                                                    WMF1803164.TXT
MDEUJ3274869201803                D89828070200PV4U20180321000030SPEAKER ASM                   M IMCTM S0FR05 TNTH  07070IMCT  S0 PTB  00005                    1030 SR        000000000000 DENSO TEN (THAILAND)18026UU0208208                                                                                                                              *          20180316 IMCT                IMCT                                                                                                                    WMF1803164.TXT
MDEUJ3274870201803                D89828070200PV4U20180321000030SPEAKER ASM                   M IMCTM S0FR05 TNTH  07070IMCT  S0 PTB  00005                    1300 SR        000000000000 DENSO TEN (THAILAND)18043YU0007007                                                                                                                              *          20180316 IMCT                IMCT                                                                                                                    WMF1803164.TXT
MDEUJ3274871201803                D89828070200PV4U20180321000030SPEAKER ASM                   M IMCTM S0FR05 TNTH  07070IMCT  S0 PTB  00005                    1600 SR        000000000000 DENSO TEN (THAILAND)18020UU0036036                                                                                                                              *          20180316 IMCT                IMCT                                                                                                                    WMF1803164.TXT
MDEUJ3274872201803                D89828070200PV4U20180321000030SPEAKER ASM                   M IMCTM S0FR05 TNTH  07070IMCT  S0 PTB  00005                    2100 SR        000000000000 DENSO TEN (THAILAND)18020UU0037037                                                                                                                              *          20180316 IMCT                IMCT                                                                                                                    WMF1803164.TXT
MDEUJ3274873201803                D89828070200PV4U20180321000030SPEAKER ASM                   M IMCTM S0FR05 TNTH  07070IMCT  S0 PTB  00005                    2230 SR        000000000000 DENSO TEN (THAILAND)18025UU0052052                                                                                                                              *          20180316 IMCT                IMCT                                                                                                                    WMF1803164.TXT
MDEUJ3274874201803                D89828070300PT4U20180320000030SPEAKER ASM                   M IMCTM S9TS02 TNTH  07070IMCT  S9 PTB  00015                    2230 SR        000000000000 DENSO TEN (THAILAND)18020UU0034034                                                                                                                              *          20180316 IMCT                IMCT                                                                                                                    WMF1803164.TXT
MDEUJ3274875201803                D89828070300PT4U20180321000030SPEAKER ASM                   M IMCTM S9TS02 TNTH  07070IMCT  S9 PTB  00015                    0230 SR        000000000000 DENSO TEN (THAILAND)18026UU0207207                                                                                                                              *          20180316 IMCT                IMCT                                                                                                                    WMF1803164.TXT
MDEUJ3274876201803                D89828070300PT4U20180321000030SPEAKER ASM                   M IMCTM S9TS02 TNTH  07070IMCT  S9 PTB  00015                    0400 SR        000000000000 DENSO TEN (THAILAND)18020UU0035035                                                                                                                              *          20180316 IMCT                IMCT                                                                                                                    WMF1803164.TXT
MDEUJ3274877201803                D89828070300PT4U20180321000030SPEAKER ASM                   M IMCTM S9TS02 TNTH  07070IMCT  S9 PTB  00015                    1030 SR        000000000000 DENSO TEN (THAILAND)18026UU0208208                                                                                                                              *          20180316 IMCT                IMCT                                                                                                                    WMF1803164.TXT
MDEUJ3274878201803                D89828070300PT4U20180321000030SPEAKER ASM                   M IMCTM S9TS02 TNTH  07070IMCT  S9 PTB  00015                    1300 SR        000000000000 DENSO TEN (THAILAND)18043YU0007007                                                                                                                              *          20180316 IMCT                IMCT                                                                                                                    WMF1803164.TXT
MDEUJ3274879201803                D89828070300PT4U20180321000030SPEAKER ASM                   M IMCTM S9TS02 TNTH  07070IMCT  S9 PTB  00015                    1600 SR        000000000000 DENSO TEN (THAILAND)18020UU0036036                                                                                                                              *          20180316 IMCT                IMCT                                                                                                                    WMF1803164.TXT
MDEUJ3274880201803                D89828070300PT4U20180321000030SPEAKER ASM                   M IMCTM S9TS02 TNTH  07070IMCT  S9 PTB  00015                    2100 SR        000000000000 DENSO TEN (THAILAND)18020UU0037037                                                                                                                              *          20180316 IMCT                IMCT                                                                                                                    WMF1803164.TXT
MDEUJ3274881201803                D89828070300PT4U20180321000030SPEAKER ASM                   M IMCTM S9TS02 TNTH  07070IMCT  S9 PTB  00015                    2230 SR        000000000000 DENSO TEN (THAILAND)18025UU0052052                                                                                                                              *          20180316 IMCT                IMCT                                                                                                                    WMF1803164.TXT
