REC2018031920180319ISUZU                              12     
MDEFJ3T20486201803                D89828070100PV4F20180323000018SPEAKER ASM                   M IMCTM S7FL05 TNTH  07070IMCT  S7 PTB  00004                    1300 SR        000000000000 DENSO TEN (THAILAND)18064XR0008   18065XR0005   D180305707    D180305715    000000                                                                              *R         20180319 IMCT                IMCT                                                                                                                    RMF1803194.TXT
MDEFJ3T20487201803                D89828070200PV4F20180323000012SPEAKER ASM                   M IMCTM S7FL05 TNTH  07070IMCT  S7 PTB  00005                    1300 SR        000000000000 DENSO TEN (THAILAND)18031XR0012   18065XR0005   D180305710    D180305715    000000                                                                              *R         20180319 IMCT                IMCT                                                                                                                    RMF1803194.TXT
MDEFJ3T20488201803                D89828070300PT4F20180323000009SPEAKER ASM                   M IMCTM S7TS02 TNTH  07070IMCT  S7 PTB  00015                    1300 SR        000000000000 DENSO TEN (THAILAND)18031XR0013   18065XR0005   D180305711    D180305715    000000                                                                              *R         20180319 IMCT                IMCT                                                                                                                    RMF1803194.TXT
MDEFJ3253983201803                D89828070100PV4F20180322000032SPEAKER ASM                   M IMCTM S7FL05 TNTH  07070IMCT  S7 PTB  00004                    2100 SR        000000000000 DENSO TEN (THAILAND)18065XR0001   18041XR0002   D180305501    D180305601    000000                                                                              *R         20180319 IMCT                IMCT                                                                                                                    RMF1803194.TXT
MDEFJ3253984201803                D89828070100PV4F20180323000028SPEAKER ASM                   M IMCTM S7FL05 TNTH  07070IMCT  S7 PTB  00004                    0230 SR        000000000000 DENSO TEN (THAILAND)18023YR0005   18042ZR0010   D180305602    D180305615    000000                                                                              *R         20180319 IMCT                IMCT                                                                                                                    RMF1803194.TXT
MDEFJ3253985201803                D89828070100PV4F20180323000012SPEAKER ASM                   M IMCTM S7FL05 TNTH  07070IMCT  S7 PTB  00004                    1030 SR        000000000000 DENSO TEN (THAILAND)18064XR0002   18064XR0007   D180305701    D180305706    000000                                                                              *R         20180319 IMCT                IMCT                                                                                                                    RMF1803194.TXT
MDEFJ3253986201803                D89828070200PV4F20180322000025SPEAKER ASM                   M IMCTM S7FL05 TNTH  07070IMCT  S7 PTB  00005                    2100 SR        000000000000 DENSO TEN (THAILAND)18065XR0001   18041XR0002   D180305501    D180305601    000000                                                                              *R         20180319 IMCT                IMCT                                                                                                                    RMF1803194.TXT
MDEFJ3253987201803                D89828070200PV4F20180323000005SPEAKER ASM                   M IMCTM S7FL05 TNTH  07070IMCT  S7 PTB  00005                    0230 SR        000000000000 DENSO TEN (THAILAND)18041XR0002   18064XR0003   D180305601    D180305702    000000                                                                              *R         20180319 IMCT                IMCT                                                                                                                    RMF1803194.TXT
MDEFJ3253988201803                D89828070200PV4F20180323000010SPEAKER ASM                   M IMCTM S7FL05 TNTH  07070IMCT  S7 PTB  00005                    1030 SR        000000000000 DENSO TEN (THAILAND)18064XR0004   18064XR0008   D180305703    D180305707    000000                                                                              *R         20180319 IMCT                IMCT                                                                                                                    RMF1803194.TXT
MDEFJ3253989201803                D89828070300PT4F20180322000030SPEAKER ASM                   M IMCTM S7TS02 TNTH  07070IMCT  S7 PTB  00015                    2100 SR        000000000000 DENSO TEN (THAILAND)18065XR0001   18023YR0006   D180305501    D180305603    000000                                                                              *R         20180319 IMCT                IMCT                                                                                                                    RMF1803194.TXT
MDEFJ3253990201803                D89828070300PT4F20180323000030SPEAKER ASM                   M IMCTM S7TS02 TNTH  07070IMCT  S7 PTB  00015                    0230 SR        000000000000 DENSO TEN (THAILAND)18023YR0007   18064XR0004   D180305604    D180305703    000000                                                                              *R         20180319 IMCT                IMCT                                                                                                                    RMF1803194.TXT
MDEFJ3253991201803                D89828070300PT4F20180323000015SPEAKER ASM                   M IMCTM S7TS02 TNTH  07070IMCT  S7 PTB  00015                    1030 SR        000000000000 DENSO TEN (THAILAND)18064XR0005   18031XR0013   D180305704    D180305711    000000                                                                              *R         20180319 IMCT                IMCT                                                                                                                    RMF1803194.TXT
