REC2018031320180313ISUZU                              72     
MDDDJ3244815201803                D89821984430PT1D20180317000030RADIO;AM/FM,CD                M IMCTM S5NC06 TNTH  07070IMCT  S5 PTB  00005                    0400 SR        000000000000 DENSO TEN (THAILAND)180LNGL0101101                                                                                                                              *          20180313 IMCT                IMCT                                                                                                                    WMF1803132.TXT
MDDDJ3244816201803                D89821984430PT1D20180317000030RADIO;AM/FM,CD                M IMCTM S5NC06 TNTH  07070IMCT  S5 PTB  00005                    0830 SR        000000000000 DENSO TEN (THAILAND)180LPAL0105105                                                                                                                              *          20180313 IMCT                IMCT                                                                                                                    WMF1803132.TXT
MDDDJ3244817201803                D89821984430PT1D20180317000030RADIO;AM/FM,CD                M IMCTM S5NC06 TNTH  07070IMCT  S5 PTB  00005                    1300 SR        000000000000 DENSO TEN (THAILAND)180LPBL0010010                                                                                                                              *          20180313 IMCT                IMCT                                                                                                                    WMF1803132.TXT
MDDDJ3244818201803                D89821984430PT1D20180317000030RADIO;AM/FM,CD                M IMCTM S5NC06 TNTH  07070IMCT  S5 PTB  00005                    1600 SR        000000000000 DENSO TEN (THAILAND)180LRAL0142142                                                                                                                              *          20180313 IMCT                IMCT                                                                                                                    WMF1803132.TXT
MDDDJ3244819201803                D89821984430PT1D20180317000030RADIO;AM/FM,CD                M IMCTM S5NC06 TNTH  07070IMCT  S5 PTB  00005                    2230 SR        000000000000 DENSO TEN (THAILAND)180LXFL0003003                                                                                                                              *          20180313 IMCT                IMCT                                                                                                                    WMF1803132.TXT
MDDDJ3244820201803                D89828070100PV1D20180316000060SPEAKER ASM                   M IMCTM S5MB11 TNTH  07070IMCT  S5 PTB  00004                    2230 SR        000000000000 DENSO TEN (THAILAND)180LPGL0166166                                                                                                                              *          20180313 IMCT                IMCT                                                                                                                    WMF1803132.TXT
MDDDJ3244821201803                D89828070100PV1D20180317000060SPEAKER ASM                   M IMCTM S5MB11 TNTH  07070IMCT  S5 PTB  00004                    0400 SR        000000000000 DENSO TEN (THAILAND)180LNGL0101101                                                                                                                              *          20180313 IMCT                IMCT                                                                                                                    WMF1803132.TXT
MDDDJ3244822201803                D89828070100PV1D20180317000060SPEAKER ASM                   M IMCTM S5MB11 TNTH  07070IMCT  S5 PTB  00004                    0830 SR        000000000000 DENSO TEN (THAILAND)180LPAL0105105                                                                                                                              *          20180313 IMCT                IMCT                                                                                                                    WMF1803132.TXT
MDDDJ3244823201803                D89828070100PV1D20180317000060SPEAKER ASM                   M IMCTM S5MB11 TNTH  07070IMCT  S5 PTB  00004                    1300 SR        000000000000 DENSO TEN (THAILAND)180LPBL0010010                                                                                                                              *          20180313 IMCT                IMCT                                                                                                                    WMF1803132.TXT
MDDDJ3244824201803                D89828070100PV1D20180317000060SPEAKER ASM                   M IMCTM S5MB11 TNTH  07070IMCT  S5 PTB  00004                    1600 SR        000000000000 DENSO TEN (THAILAND)180LRAL0142142                                                                                                                              *          20180313 IMCT                IMCT                                                                                                                    WMF1803132.TXT
MDDDJ3244825201803                D89828070100PV1D20180317000060SPEAKER ASM                   M IMCTM S5MB11 TNTH  07070IMCT  S5 PTB  00004                    2230 SR        000000000000 DENSO TEN (THAILAND)180LXFL0003003                                                                                                                              *          20180313 IMCT                IMCT                                                                                                                    WMF1803132.TXT
MDDDJ3244826201803                D89828070300PT1D20180316000060SPEAKER ASM                   M IMCTM S5NB082TNTH  07070IMCT  S5 PTB  00015                    2230 SR        000000000000 DENSO TEN (THAILAND)180LPGL0166166                                                                                                                              *          20180313 IMCT                IMCT                                                                                                                    WMF1803132.TXT
MDDDJ3244827201803                D89831228300PT1D20180316000030RADIO;AM/FM,CD                M IMCTM S5NC06 TNTH  07070IMCT  S5 CPB  00003                    2230 SR        000000000000 DENSO TEN (THAILAND)180LPGL0166166                                                                                                                              *          20180313 IMCT                IMCT                                                                                                                    WMF1803132.TXT
MDDUJ3217646201803                D89828070100PT4U20180317000030SPEAKER ASM                   M IMCTM S0FL05 TNTH  07070IMCT  S0 PTB  00004                    0400 SR        000000000000 DENSO TEN (THAILAND)180LURU0032032                                                                                                                              *          20180313 IMCT                IMCT                                                                                                                    WMF1803132.TXT
MDDUJ3217647201803                D89828070100PT4U20180317000030SPEAKER ASM                   M IMCTM S0FL05 TNTH  07070IMCT  S0 PTB  00004                    1030 SR        000000000000 DENSO TEN (THAILAND)180LUPU0012012                                                                                                                              *          20180313 IMCT                IMCT                                                                                                                    WMF1803132.TXT
MDDUJ3217648201803                D89828070200PV4U20180317000030SPEAKER ASM                   M IMCTM S0FR05 TNTH  07070IMCT  S0 PTB  00005                    0400 SR        000000000000 DENSO TEN (THAILAND)180LURU0032032                                                                                                                              *          20180313 IMCT                IMCT                                                                                                                    WMF1803132.TXT
MDDUJ3217649201803                D89828070200PV4U20180317000030SPEAKER ASM                   M IMCTM S0FR05 TNTH  07070IMCT  S0 PTB  00005                    1030 SR        000000000000 DENSO TEN (THAILAND)180LUPU0012012                                                                                                                              *          20180313 IMCT                IMCT                                                                                                                    WMF1803132.TXT
MDDUJ3217650201803                D89828070300PT4U20180317000030SPEAKER ASM                   M IMCTM S9TS02 TNTH  07070IMCT  S9 PTB  00015                    0400 SR        000000000000 DENSO TEN (THAILAND)180LURU0032032                                                                                                                              *          20180313 IMCT                IMCT                                                                                                                    WMF1803132.TXT
MDDUJ3217651201803                D89828070300PT4U20180317000030SPEAKER ASM                   M IMCTM S9TS02 TNTH  07070IMCT  S9 PTB  00015                    1030 SR        000000000000 DENSO TEN (THAILAND)180LUPU0012012                                                                                                                              *          20180313 IMCT                IMCT                                                                                                                    WMF1803132.TXT
MDDUJ3217652201803                D89831228400PT4U20180317000015RADIO;AM/FM,CD                M IMCTM S9CO001TNTH  07070IMCT  S9 CPB  00003                    1030 SR        000000000000 DENSO TEN (THAILAND)180LUPU0012012                                                                                                                              *          20180313 IMCT                IMCT                                                                                                                    WMF1803132.TXT
MDEDJ3282222201803                D89828070100PV1D20180316000060SPEAKER ASM                   M IMCTM S5MB11 TNTH  07070IMCT  S5 PTB  00004                    2230 SR        000000000000 DENSO TEN (THAILAND)18076UL0009010                                                                                                                              *          20180313 IMCT                IMCT                                                                                                                    WMF1803132.TXT
MDEDJ3282223201803                D89828070100PV1D20180317000060SPEAKER ASM                   M IMCTM S5MB11 TNTH  07070IMCT  S5 PTB  00004                    0230 SR        000000000000 DENSO TEN (THAILAND)17041PL008608618001VL0017017                                                                                                                *          20180313 IMCT                IMCT                                                                                                                    WMF1803132.TXT
MDEDJ3282224201803                D89828070100PV1D20180317000030SPEAKER ASM                   M IMCTM S5MB11 TNTH  07070IMCT  S5 PTB  00004                    0400 SR        000000000000 DENSO TEN (THAILAND)18098UL0021021                                                                                                                              *          20180313 IMCT                IMCT                                                                                                                    WMF1803132.TXT
MDEDJ3282225201803                D89828070100PV1D20180317000030SPEAKER ASM                   M IMCTM S5MB11 TNTH  07070IMCT  S5 PTB  00004                    0830 SR        000000000000 DENSO TEN (THAILAND)18098UL0022022                                                                                                                              *          20180313 IMCT                IMCT                                                                                                                    WMF1803132.TXT
MDEDJ3282226201803                D89828070100PV1D20180317000060SPEAKER ASM                   M IMCTM S5MB11 TNTH  07070IMCT  S5 PTB  00004                    1030 SR        000000000000 DENSO TEN (THAILAND)18040XL000100118077UL0005005                                                                                                                *          20180313 IMCT                IMCT                                                                                                                    WMF1803132.TXT
MDEDJ3282227201803                D89828070100PV1D20180317000060SPEAKER ASM                   M IMCTM S5MB11 TNTH  07070IMCT  S5 PTB  00004                    1300 SR        000000000000 DENSO TEN (THAILAND)18099UL0038039                                                                                                                              *          20180313 IMCT                IMCT                                                                                                                    WMF1803132.TXT
MDEDJ3282228201803                D89828070100PV1D20180317000060SPEAKER ASM                   M IMCTM S5MB11 TNTH  07070IMCT  S5 PTB  00004                    2100 SR        000000000000 DENSO TEN (THAILAND)18071UL0005006                                                                                                                              *          20180313 IMCT                IMCT                                                                                                                    WMF1803132.TXT
MDEDJ3282229201803                D89828070100PV4D20180317000030SPEAKER ASM                   M IMCTM S0FL05 TNTH  07070IMCT  S0 PTB  00004                    0230 SR        000000000000 DENSO TEN (THAILAND)18069UU0002002                                                                                                                              *          20180313 IMCT                IMCT                                                                                                                    WMF1803132.TXT
MDEDJ3282230201803                D89828070100PV4D20180317000030SPEAKER ASM                   M IMCTM S0FL05 TNTH  07070IMCT  S0 PTB  00004                    0830 SR        000000000000 DENSO TEN (THAILAND)18061UU0016016                                                                                                                              *          20180313 IMCT                IMCT                                                                                                                    WMF1803132.TXT
MDEDJ3282231201803                D89828070100PV4D20180317000030SPEAKER ASM                   M IMCTM S0FL05 TNTH  07070IMCT  S0 PTB  00004                    1300 SR        000000000000 DENSO TEN (THAILAND)18063UU0014014                                                                                                                              *          20180313 IMCT                IMCT                                                                                                                    WMF1803132.TXT
MDEDJ3282232201803                D89828070100PV4D20180317000030SPEAKER ASM                   M IMCTM S0FL05 TNTH  07070IMCT  S0 PTB  00004                    2100 SR        000000000000 DENSO TEN (THAILAND)18067UU0009009                                                                                                                              *          20180313 IMCT                IMCT                                                                                                                    WMF1803132.TXT
MDEDJ3282233201803                D89828070200PV1D20180317000030SPEAKER ASM                   M IMCTM S5MA14 TNTH  07070IMCT  S5 PTB  00005                    0230 SR        000000000000 DENSO TEN (THAILAND)18001VL0017017                                                                                                                              *          20180313 IMCT                IMCT                                                                                                                    WMF1803132.TXT
MDEDJ3282234201803                D89828070200PV1D20180317000030SPEAKER ASM                   M IMCTM S5MA14 TNTH  07070IMCT  S5 PTB  00005                    0400 SR        000000000000 DENSO TEN (THAILAND)18098UL0021021                                                                                                                              *          20180313 IMCT                IMCT                                                                                                                    WMF1803132.TXT
MDEDJ3282235201803                D89828070200PV1D20180317000030SPEAKER ASM                   M IMCTM S5MA14 TNTH  07070IMCT  S5 PTB  00005                    0830 SR        000000000000 DENSO TEN (THAILAND)18098UL0022022                                                                                                                              *          20180313 IMCT                IMCT                                                                                                                    WMF1803132.TXT
MDEDJ3282236201803                D89828070200PV1D20180317000060SPEAKER ASM                   M IMCTM S5MA14 TNTH  07070IMCT  S5 PTB  00005                    1030 SR        000000000000 DENSO TEN (THAILAND)18040XL000100118077UL0005005                                                                                                                *          20180313 IMCT                IMCT                                                                                                                    WMF1803132.TXT
MDEDJ3282237201803                D89828070200PV1D20180317000060SPEAKER ASM                   M IMCTM S5MA14 TNTH  07070IMCT  S5 PTB  00005                    1300 SR        000000000000 DENSO TEN (THAILAND)18099UL0038039                                                                                                                              *          20180313 IMCT                IMCT                                                                                                                    WMF1803132.TXT
MDEDJ3282238201803                D89828070200PV4D20180317000030SPEAKER ASM                   M IMCTM S0FR05 TNTH  07070IMCT  S0 PTB  00005                    0230 SR        000000000000 DENSO TEN (THAILAND)18069UU0002002                                                                                                                              *          20180313 IMCT                IMCT                                                                                                                    WMF1803132.TXT
MDEDJ3282239201803                D89828070200PV4D20180317000030SPEAKER ASM                   M IMCTM S0FR05 TNTH  07070IMCT  S0 PTB  00005                    2100 SR        000000000000 DENSO TEN (THAILAND)18067UU0009009                                                                                                                              *          20180313 IMCT                IMCT                                                                                                                    WMF1803132.TXT
MDEDJ3282240201803                D89828070300PT1D20180316000060SPEAKER ASM                   M IMCTM S5NB082TNTH  07070IMCT  S5 PTB  00015                    2230 SR        000000000000 DENSO TEN (THAILAND)18076UL0009010                                                                                                                              *          20180313 IMCT                IMCT                                                                                                                    WMF1803132.TXT
MDEDJ3282241201803                D89828070300PT1D20180317000030SPEAKER ASM                   M IMCTM S5NB082TNTH  07070IMCT  S5 PTB  00015                    0230 SR        000000000000 DENSO TEN (THAILAND)18001VL0017017                                                                                                                              *          20180313 IMCT                IMCT                                                                                                                    WMF1803132.TXT
MDEDJ3282242201803                D89828070300PT1D20180317000030SPEAKER ASM                   M IMCTM S5NB082TNTH  07070IMCT  S5 PTB  00015                    0400 SR        000000000000 DENSO TEN (THAILAND)18098UL0021021                                                                                                                              *          20180313 IMCT                IMCT                                                                                                                    WMF1803132.TXT
MDEDJ3282243201803                D89828070300PT1D20180317000030SPEAKER ASM                   M IMCTM S5NB082TNTH  07070IMCT  S5 PTB  00015                    0830 SR        000000000000 DENSO TEN (THAILAND)18098UL0022022                                                                                                                              *          20180313 IMCT                IMCT                                                                                                                    WMF1803132.TXT
MDEDJ3282244201803                D89828070300PT1D20180317000060SPEAKER ASM                   M IMCTM S5NB082TNTH  07070IMCT  S5 PTB  00015                    1030 SR        000000000000 DENSO TEN (THAILAND)18040XL000100118077UL0005005                                                                                                                *          20180313 IMCT                IMCT                                                                                                                    WMF1803132.TXT
MDEDJ3282245201803                D89828070300PT1D20180317000060SPEAKER ASM                   M IMCTM S5NB082TNTH  07070IMCT  S5 PTB  00015                    1300 SR        000000000000 DENSO TEN (THAILAND)18099UL0038039                                                                                                                              *          20180313 IMCT                IMCT                                                                                                                    WMF1803132.TXT
MDEDJ3282246201803                D89828070300PT1D20180317000060SPEAKER ASM                   M IMCTM S5NB082TNTH  07070IMCT  S5 PTB  00015                    2100 SR        000000000000 DENSO TEN (THAILAND)18071UL0005006                                                                                                                              *          20180313 IMCT                IMCT                                                                                                                    WMF1803132.TXT
MDEDJ3282247201803                D89828070300PT4D20180317000030SPEAKER ASM                   M IMCTM S9TS02 TNTH  07070IMCT  S9 PTB  00015                    0230 SR        000000000000 DENSO TEN (THAILAND)18069UU0002002                                                                                                                              *          20180313 IMCT                IMCT                                                                                                                    WMF1803132.TXT
MDEDJ3282248201803                D89828070300PT4D20180317000030SPEAKER ASM                   M IMCTM S9TS02 TNTH  07070IMCT  S9 PTB  00015                    0830 SR        000000000000 DENSO TEN (THAILAND)18061UU0016016                                                                                                                              *          20180313 IMCT                IMCT                                                                                                                    WMF1803132.TXT
MDEDJ3282249201803                D89828070300PT4D20180317000030SPEAKER ASM                   M IMCTM S9TS02 TNTH  07070IMCT  S9 PTB  00015                    1300 SR        000000000000 DENSO TEN (THAILAND)18063UU0014014                                                                                                                              *          20180313 IMCT                IMCT                                                                                                                    WMF1803132.TXT
MDEDJ3282250201803                D89828070300PT4D20180317000030SPEAKER ASM                   M IMCTM S9TS02 TNTH  07070IMCT  S9 PTB  00015                    2100 SR        000000000000 DENSO TEN (THAILAND)18067UU0009009                                                                                                                              *          20180313 IMCT                IMCT                                                                                                                    WMF1803132.TXT
MDEDJ3282251201803                D89848581800PT1D20180317000015RADIO;AM/FM CD D              M IMCTM S5NC06 TNTH  07070IMCT  S5 PTB  00003                    0400 SR        000000000000 DENSO TEN (THAILAND)18098UL0021021                                                                                                                              *          20180313 IMCT                IMCT                                                                                                                    WMF1803132.TXT
MDEDJ3282252201803                D89848581800PT1D20180317000015RADIO;AM/FM CD D              M IMCTM S5NC06 TNTH  07070IMCT  S5 PTB  00003                    0830 SR        000000000000 DENSO TEN (THAILAND)18098UL0022022                                                                                                                              *          20180313 IMCT                IMCT                                                                                                                    WMF1803132.TXT
MDEDJ3282253201803                D89848581800PT1D20180317000015RADIO;AM/FM CD D              M IMCTM S5NC06 TNTH  07070IMCT  S5 PTB  00003                    1030 SR        000000000000 DENSO TEN (THAILAND)18077UL0005005                                                                                                                              *          20180313 IMCT                IMCT                                                                                                                    WMF1803132.TXT
MDEDJ3282254201803                D89848581800PT1D20180317000030RADIO;AM/FM CD D              M IMCTM S5NC06 TNTH  07070IMCT  S5 PTB  00003                    2100 SR        000000000000 DENSO TEN (THAILAND)18071UL0005006                                                                                                                              *          20180313 IMCT                IMCT                                                                                                                    WMF1803132.TXT
MDEDJ3282255201803                D89848581800PT4D20180317000015RADIO;AM/FM CD D              M IMCTM S9CO001TNTH  07070IMCT  S9 PTB  00003                    0830 SR        000000000000 DENSO TEN (THAILAND)18061UU0016016                                                                                                                              *          20180313 IMCT                IMCT                                                                                                                    WMF1803132.TXT
MDEDJ3282256201803                D89848581800PT4D20180317000015RADIO;AM/FM CD D              M IMCTM S9CO001TNTH  07070IMCT  S9 PTB  00003                    1300 SR        000000000000 DENSO TEN (THAILAND)18063UU0014014                                                                                                                              *          20180313 IMCT                IMCT                                                                                                                    WMF1803132.TXT
MDEDJ3282257201803                D89848582100PT1D20180317000015RADIO;AM/FM CD D              M IMCTM S5NC06 TNTH  07070IMCT  S5 PTB  00003                    1030 SR        000000000000 DENSO TEN (THAILAND)18040XL0001001                                                                                                                              *          20180313 IMCT                IMCT                                                                                                                    WMF1803132.TXT
MDEUJ3259698201803                D89828070100PT4U20180316000060SPEAKER ASM                   M IMCTM S0FL05 TNTH  07070IMCT  S0 PTB  00004                    2230 SR        000000000000 DENSO TEN (THAILAND)18016UU001701718021UU0064064                                                                                                                *          20180313 IMCT                IMCT                                                                                                                    WMF1803132.TXT
MDEUJ3259699201803                D89828070100PT4U20180317000030SPEAKER ASM                   M IMCTM S0FL05 TNTH  07070IMCT  S0 PTB  00004                    0400 SR        000000000000 DENSO TEN (THAILAND)18021UU0065065                                                                                                                              *          20180313 IMCT                IMCT                                                                                                                    WMF1803132.TXT
MDEUJ3259700201803                D89828070100PT4U20180317000030SPEAKER ASM                   M IMCTM S0FL05 TNTH  07070IMCT  S0 PTB  00004                    0830 SR        000000000000 DENSO TEN (THAILAND)18021UU0066066                                                                                                                              *          20180313 IMCT                IMCT                                                                                                                    WMF1803132.TXT
MDEUJ3259701201803                D89828070100PT4U20180317000060SPEAKER ASM                   M IMCTM S0FL05 TNTH  07070IMCT  S0 PTB  00004                    1300 SR        000000000000 DENSO TEN (THAILAND)18021UU006706718025UU0051051                                                                                                                *          20180313 IMCT                IMCT                                                                                                                    WMF1803132.TXT
MDEUJ3259702201803                D89828070100PT4U20180317000030SPEAKER ASM                   M IMCTM S0FL05 TNTH  07070IMCT  S0 PTB  00004                    2100 SR        000000000000 DENSO TEN (THAILAND)18019UU0007007                                                                                                                              *          20180313 IMCT                IMCT                                                                                                                    WMF1803132.TXT
MDEUJ3259703201803                D89828070200PV4U20180316000060SPEAKER ASM                   M IMCTM S0FR05 TNTH  07070IMCT  S0 PTB  00005                    2230 SR        000000000000 DENSO TEN (THAILAND)18016UU001701718021UU0064064                                                                                                                *          20180313 IMCT                IMCT                                                                                                                    WMF1803132.TXT
MDEUJ3259704201803                D89828070200PV4U20180317000030SPEAKER ASM                   M IMCTM S0FR05 TNTH  07070IMCT  S0 PTB  00005                    0400 SR        000000000000 DENSO TEN (THAILAND)18021UU0065065                                                                                                                              *          20180313 IMCT                IMCT                                                                                                                    WMF1803132.TXT
MDEUJ3259705201803                D89828070200PV4U20180317000030SPEAKER ASM                   M IMCTM S0FR05 TNTH  07070IMCT  S0 PTB  00005                    0830 SR        000000000000 DENSO TEN (THAILAND)18021UU0066066                                                                                                                              *          20180313 IMCT                IMCT                                                                                                                    WMF1803132.TXT
MDEUJ3259706201803                D89828070200PV4U20180317000060SPEAKER ASM                   M IMCTM S0FR05 TNTH  07070IMCT  S0 PTB  00005                    1300 SR        000000000000 DENSO TEN (THAILAND)18021UU006706718025UU0051051                                                                                                                *          20180313 IMCT                IMCT                                                                                                                    WMF1803132.TXT
MDEUJ3259707201803                D89828070200PV4U20180317000030SPEAKER ASM                   M IMCTM S0FR05 TNTH  07070IMCT  S0 PTB  00005                    2100 SR        000000000000 DENSO TEN (THAILAND)18019UU0007007                                                                                                                              *          20180313 IMCT                IMCT                                                                                                                    WMF1803132.TXT
MDEUJ3259708201803                D89828070300PT4U20180316000060SPEAKER ASM                   M IMCTM S9TS02 TNTH  07070IMCT  S9 PTB  00015                    2230 SR        000000000000 DENSO TEN (THAILAND)18016UU001701718021UU0064064                                                                                                                *          20180313 IMCT                IMCT                                                                                                                    WMF1803132.TXT
MDEUJ3259709201803                D89828070300PT4U20180317000030SPEAKER ASM                   M IMCTM S9TS02 TNTH  07070IMCT  S9 PTB  00015                    0400 SR        000000000000 DENSO TEN (THAILAND)18021UU0065065                                                                                                                              *          20180313 IMCT                IMCT                                                                                                                    WMF1803132.TXT
MDEUJ3259710201803                D89828070300PT4U20180317000030SPEAKER ASM                   M IMCTM S9TS02 TNTH  07070IMCT  S9 PTB  00015                    0830 SR        000000000000 DENSO TEN (THAILAND)18021UU0066066                                                                                                                              *          20180313 IMCT                IMCT                                                                                                                    WMF1803132.TXT
MDEUJ3259711201803                D89828070300PT4U20180317000060SPEAKER ASM                   M IMCTM S9TS02 TNTH  07070IMCT  S9 PTB  00015                    1300 SR        000000000000 DENSO TEN (THAILAND)18021UU006706718025UU0051051                                                                                                                *          20180313 IMCT                IMCT                                                                                                                    WMF1803132.TXT
MDEUJ3259712201803                D89828070300PT4U20180317000030SPEAKER ASM                   M IMCTM S9TS02 TNTH  07070IMCT  S9 PTB  00015                    2100 SR        000000000000 DENSO TEN (THAILAND)18019UU0007007                                                                                                                              *          20180313 IMCT                IMCT                                                                                                                    WMF1803132.TXT
MDEUJ3259713201803                D89848584700PT4U20180317000015RADIO;AM/FM CD D              M IMCTM S9CO001TNTH  07070IMCT  S9 PTB  00003                    2100 SR        000000000000 DENSO TEN (THAILAND)18019UU0007007                                                                                                                              *          20180313 IMCT                IMCT                                                                                                                    WMF1803132.TXT
