REC2018031620180316ISUZU                              16     
MDEBJ3T03557201803                D89828070100PT4B20180321000022SPEAKER ASM                   M IMCTM S7FL05 TNTH  07070IMCT  S7 PTB  00004                    0830 SR        000000000000 DENSO TEN (THAILAND)18004TR0071   18060UR0033   Y180305005    Y180305015    000000                                                                              *R         20180316 IMCT                IMCT                                                                                                                    RMF1803164.TXT
MDEBJ3T03558201803                D89828070200PV4B20180321000020SPEAKER ASM                   M IMCTM S7FL05 TNTH  07070IMCT  S7 PTB  00005                    0830 SR        000000000000 DENSO TEN (THAILAND)18060UR0026   18060UR0033   Y180305006    Y180305015    000000                                                                              *R         20180316 IMCT                IMCT                                                                                                                    RMF1803164.TXT
MDEBJ3T03559201803                D89828070300PT4B20180321000015SPEAKER ASM                   M IMCTM S7TS02 TNTH  07070IMCT  S7 PTB  00015                    0830 SR        000000000000 DENSO TEN (THAILAND)18004TR0072   18060UR0033   Y180305008    Y180305015    000000                                                                              *R         20180316 IMCT                IMCT                                                                                                                    RMF1803164.TXT
MDEBJ3T03560201803                D89848584400PT4B20180321000008RADIO;AM/FM CD D              M IMCTM S7TS01 TNTH  07070IMCT  S7 PTB  00003                    0830 SR        000000000000 DENSO TEN (THAILAND)18060UR0026   18060UR0033   Y180305006    Y180305015    000000                                                                              *R         20180316 IMCT                IMCT                                                                                                                    RMF1803164.TXT
MDEBJ3204247201803                D89828070100PT4B20180321000008SPEAKER ASM                   M IMCTM S7FL05 TNTH  07070IMCT  S7 PTB  00004                    0400 SR        000000000000 DENSO TEN (THAILAND)18004TR0067   18004TR0070   Y180305001    Y180305004    000000                                                                              *R         20180316 IMCT                IMCT                                                                                                                    RMF1803164.TXT
MDEBJ3204248201803                D89828070200PV4B20180321000010SPEAKER ASM                   M IMCTM S7FL05 TNTH  07070IMCT  S7 PTB  00005                    0400 SR        000000000000 DENSO TEN (THAILAND)18004TR0067   18004TR0071   Y180305001    Y180305005    000000                                                                              *R         20180316 IMCT                IMCT                                                                                                                    RMF1803164.TXT
MDEBJ3204249201803                D89828070300PT4B20180321000015SPEAKER ASM                   M IMCTM S7TS02 TNTH  07070IMCT  S7 PTB  00015                    0400 SR        000000000000 DENSO TEN (THAILAND)18004TR0067   18004TR0072   Y180305001    Y180305008    000000                                                                              *R         20180316 IMCT                IMCT                                                                                                                    RMF1803164.TXT
MDEFJ3T18068201803                D89828070100PV4F20180321000016SPEAKER ASM                   M IMCTM S7FL05 TNTH  07070IMCT  S7 PTB  00004                    1600 SR        000000000000 DENSO TEN (THAILAND)17006RR0046   17008RR0099   R180305108    R180305115    000000                                                                              *R         20180316 IMCT                IMCT                                                                                                                    RMF1803164.TXT
MDEFJ3T18069201803                D89828070200PV4F20180320000005SPEAKER ASM                   M IMCTM S7FL05 TNTH  07070IMCT  S7 PTB  00005                    2230 SR        000000000000 DENSO TEN (THAILAND)18059XR0005   18034XR0003   D180304906    D180304915    000000                                                                              *R         20180316 IMCT                IMCT                                                                                                                    RMF1803164.TXT
MDEFJ3T18070201803                D89828070300PT4F20180320000005SPEAKER ASM                   M IMCTM S7TS02 TNTH  07070IMCT  S7 PTB  00015                    2230 SR        000000000000 DENSO TEN (THAILAND)18023YR0003   18034XR0003   D180304909    D180304915    000000                                                                              *R         20180316 IMCT                IMCT                                                                                                                    RMF1803164.TXT
MDEFJ3T18071201803                D89831228800PT4F20180320000001RADIO;AM/FM,CD                M IMCTM S7TS03 TNTH  07070IMCT  S7 PTB  00003                    2230 SR        000000000000 DENSO TEN (THAILAND)18034XR0003   18034XR0003   D180304915    D180304915    000000                                                                              *R         20180316 IMCT                IMCT                                                                                                                    RMF1803164.TXT
MDEFJ3245804201803                D89828070100PV4F20180320000012SPEAKER ASM                   M IMCTM S7FL05 TNTH  07070IMCT  S7 PTB  00004                    2100 SR        000000000000 DENSO TEN (THAILAND)18029XR0002   18059XR0005   D180304901    D180304906    000000                                                                              *R         20180316 IMCT                IMCT                                                                                                                    RMF1803164.TXT
MDEFJ3245805201803                D89828070100PV4F20180320000020SPEAKER ASM                   M IMCTM S7FL05 TNTH  07070IMCT  S7 PTB  00004                    2230 SR        000000000000 DENSO TEN (THAILAND)18059XR0006   18072WR0004   D180304907    R180305101    000000                                                                              *R         20180316 IMCT                IMCT                                                                                                                    RMF1803164.TXT
MDEFJ3245806201803                D89828070100PV4F20180321000012SPEAKER ASM                   M IMCTM S7FL05 TNTH  07070IMCT  S7 PTB  00004                    1300 SR        000000000000 DENSO TEN (THAILAND)18072WR0005   17006RR0045   R180305102    R180305107    000000                                                                              *R         20180316 IMCT                IMCT                                                                                                                    RMF1803164.TXT
MDEFJ3245807201803                D89828070200PV4F20180320000005SPEAKER ASM                   M IMCTM S7FL05 TNTH  07070IMCT  S7 PTB  00005                    2100 SR        000000000000 DENSO TEN (THAILAND)18059XR0003   18059XR0005   D180304904    D180304906    000000                                                                              *R         20180316 IMCT                IMCT                                                                                                                    RMF1803164.TXT
MDEFJ3245808201803                D89828070300PT4F20180320000015SPEAKER ASM                   M IMCTM S7TS02 TNTH  07070IMCT  S7 PTB  00015                    2100 SR        000000000000 DENSO TEN (THAILAND)18029XR0002   18023YR0003   D180304901    D180304909    000000                                                                              *R         20180316 IMCT                IMCT                                                                                                                    RMF1803164.TXT
