REC2018031520180315ISUZU                              3      
MADDJ3601288201806                 89828070100PV1D20180510000002SPEAKER ASM                   M IMCTM ST00000TNTH  07070IMCT  ST PTB  00004  DC                0000 SR        000000000000 DENSO TEN (THAILAND)190M2BL0001001                                                                                                                              *P         20180315 IMCT                IMCT                                                                                                                    WMF1803151.TXT
MADDJ3601289201806                 89828070200PV1D20180510000002SPEAKER ASM                   M IMCTM ST00000TNTH  07070IMCT  ST PTB  00005  DC                0000 SR        000000000000 DENSO TEN (THAILAND)190M2BL0001001                                                                                                                              *P         20180315 IMCT                IMCT                                                                                                                    WMF1803151.TXT
MADDJ3601290201806                 89828070300PT1D20180510000002SPEAKER ASM                   M IMCTM ST00000TNTH  07070IMCT  ST PTB  00015  DC                0000 SR        000000000000 DENSO TEN (THAILAND)190M2BL0001001                                                                                                                              *P         20180315 IMCT                IMCT                                                                                                                    WMF1803151.TXT
