REC2018030720180307ISUZU                              15     
MDEFJ3T07811201803                D89805293700PV4F20180312000002SPEAKER ASM                   M IMCTM S7FR05 TNTH  07070IMCT  S7 PTB  00003                    1030 SR        000000000000 DENSO TEN (THAILAND)15034DR0061   15034DR0061   D180303202    D180303202    000000                                                                              *R         20180307 IMCT                IMCT                                                                                                                    RMF1803075.TXT
MDEFJ3T07812201803                D89805294000PT4F20180312000002SPEAKER ASM                   M IMCTM S7TS02 TNTH  07070IMCT  S7 PTB  00015                    1030 SR        000000000000 DENSO TEN (THAILAND)15034DR0061   15034DR0061   D180303202    D180303202    000000                                                                              *R         20180307 IMCT                IMCT                                                                                                                    RMF1803075.TXT
MDEFJ3T07813201803                D89805294200PT4F20180312000002SPEAKER ASM                   M IMCTM S7S137 TNTH  07070IMCT  S7 PTB  00030                    1030 SR        000000000000 DENSO TEN (THAILAND)15034DR0061   15034DR0061   D180303202    D180303202    000000                                                                              *R         20180307 IMCT                IMCT                                                                                                                    RMF1803075.TXT
MDEFJ3T07814201803                D89806470400PT4F20180312000001SPEAKER ASM;RDO,              M IMCTM S7TL03 TNTH  07070IMCT  S7 PTB  00015                    1030 SR        000000000000 DENSO TEN (THAILAND)15034DR0061   15034DR0061   D180303202    D180303202    000000                                                                              *R         20180307 IMCT                IMCT                                                                                                                    RMF1803075.TXT
MDEFJ3T07815201803                D89824360220PT4F20180312000001RADIO;AM/FM,CD                M IMCTM S7TS03 TNTH  07070IMCT  S7 CPB  00003                    1030 SR        000000000000 DENSO TEN (THAILAND)15034DR0061   15034DR0061   D180303202    D180303202    000000                                                                              *R         20180307 IMCT                IMCT                                                                                                                    RMF1803075.TXT
MDEFJ3T07816201803                D89828070100PV4F20180312000028SPEAKER ASM                   M IMCTM S7FL05 TNTH  07070IMCT  S7 PTB  00004                    1030 SR        000000000000 DENSO TEN (THAILAND)17062ZR0011   18082XR0003   D180303201    D180303215    000000                                                                              *R         20180307 IMCT                IMCT                                                                                                                    RMF1803075.TXT
MDEFJ3T07817201803                D89828070200PV4F20180312000006SPEAKER ASM                   M IMCTM S7FL05 TNTH  07070IMCT  S7 PTB  00005                    1030 SR        000000000000 DENSO TEN (THAILAND)18031XR0001   17054RR0032   D180303210    D180303212    000000                                                                              *R         20180307 IMCT                IMCT                                                                                                                    RMF1803075.TXT
MDEFJ3T07818201803                D89828070300PT4F20180310000011SPEAKER ASM                   M IMCTM S7TS02 TNTH  07070IMCT  S7 PTB  00015                    2230 SR        000000000000 DENSO TEN (THAILAND)18068XR0004   17054RR0032   D180303104    D180303212    000000                                                                              *R         20180307 IMCT                IMCT                                                                                                                    RMF1803075.TXT
MDEFJ3T07819201803                D89848582000PT4F20180310000001RADIO;AM/FM CD D              M IMCTM S7TS01 TNTH  07070IMCT  S7 PTB  00003                    2100 SR        000000000000 DENSO TEN (THAILAND)18065WR0009   18065WR0009   D180303015    D180303015    000000                                                                              *R         20180307 IMCT                IMCT                                                                                                                    RMF1803075.TXT
MDEFJ3221964201803                D89828070100PV4F20180310000032SPEAKER ASM                   M IMCTM S7FL05 TNTH  07070IMCT  S7 PTB  00004                    2100 SR        000000000000 DENSO TEN (THAILAND)17033RR0081   18068XR0001   D180303001    D180303101    000000                                                                              *R         20180307 IMCT                IMCT                                                                                                                    RMF1803075.TXT
MDEFJ3221965201803                D89828070100PV4F20180310000016SPEAKER ASM                   M IMCTM S7FL05 TNTH  07070IMCT  S7 PTB  00004                    2230 SR        000000000000 DENSO TEN (THAILAND)18068XR0002   17062ZR0005   D180303102    D180303109    000000                                                                              *R         20180307 IMCT                IMCT                                                                                                                    RMF1803075.TXT
MDEFJ3221966201803                D89828070100PV4F20180311000012SPEAKER ASM                   M IMCTM S7FL05 TNTH  07070IMCT  S7 PTB  00004                    0230 SR        000000000000 DENSO TEN (THAILAND)17062ZR0006   17062ZR0010   D180303110    D180303115    000000                                                                              *R         20180307 IMCT                IMCT                                                                                                                    RMF1803075.TXT
MDEFJ3221967201803                D89828070200PV4F20180310000010SPEAKER ASM                   M IMCTM S7FL05 TNTH  07070IMCT  S7 PTB  00005                    2100 SR        000000000000 DENSO TEN (THAILAND)17036RR0031   18068XR0001   D180303004    D180303101    000000                                                                              *R         20180307 IMCT                IMCT                                                                                                                    RMF1803075.TXT
MDEFJ3221968201803                D89828070200PV4F20180310000010SPEAKER ASM                   M IMCTM S7FL05 TNTH  07070IMCT  S7 PTB  00005                    2230 SR        000000000000 DENSO TEN (THAILAND)18068XR0002   17054RR0031   D180303102    D180303113    000000                                                                              *R         20180307 IMCT                IMCT                                                                                                                    RMF1803075.TXT
MDEFJ3221969201803                D89828070300PT4F20180310000015SPEAKER ASM                   M IMCTM S7TS02 TNTH  07070IMCT  S7 PTB  00015                    2100 SR        000000000000 DENSO TEN (THAILAND)17036RR0031   18068XR0004   D180303004    D180303104    000000                                                                              *R         20180307 IMCT                IMCT                                                                                                                    RMF1803075.TXT
