REC2018030720180307ISUZU                              64     
MDDDJ3223198201803                D89821984430PT1D20180311000030RADIO;AM/FM,CD                M IMCTM S5NC06 TNTH  07070IMCT  S5 PTB  00005                    0400 SR        000000000000 DENSO TEN (THAILAND)180LRAL0138138                                                                                                                              *          20180307 IMCT                IMCT                                                                                                                    WMF1803075.TXT
MDDDJ3223199201803                D89821984430PT1D20180312000030RADIO;AM/FM,CD                M IMCTM S5NC06 TNTH  07070IMCT  S5 PTB  00005                    0830 SR        000000000000 DENSO TEN (THAILAND)180LRAL0139139                                                                                                                              *          20180307 IMCT                IMCT                                                                                                                    WMF1803075.TXT
MDDDJ3223200201803                D89821984430PT1D20180312000030RADIO;AM/FM,CD                M IMCTM S5NC06 TNTH  07070IMCT  S5 PTB  00005                    1300 SR        000000000000 DENSO TEN (THAILAND)180LPAL0102102                                                                                                                              *          20180307 IMCT                IMCT                                                                                                                    WMF1803075.TXT
MDDDJ3223201201803                D89828070100PV1D20180311000060SPEAKER ASM                   M IMCTM S5MB11 TNTH  07070IMCT  S5 PTB  00004                    0400 SR        000000000000 DENSO TEN (THAILAND)180LRAL0138138                                                                                                                              *          20180307 IMCT                IMCT                                                                                                                    WMF1803075.TXT
MDDDJ3223202201803                D89828070100PV1D20180312000060SPEAKER ASM                   M IMCTM S5MB11 TNTH  07070IMCT  S5 PTB  00004                    0830 SR        000000000000 DENSO TEN (THAILAND)180LRAL0139139                                                                                                                              *          20180307 IMCT                IMCT                                                                                                                    WMF1803075.TXT
MDDDJ3223203201803                D89828070100PV1D20180312000060SPEAKER ASM                   M IMCTM S5MB11 TNTH  07070IMCT  S5 PTB  00004                    1300 SR        000000000000 DENSO TEN (THAILAND)180LPAL0102102                                                                                                                              *          20180307 IMCT                IMCT                                                                                                                    WMF1803075.TXT
MDDDJ3223204201803                D89828070100PV1D20180312000060SPEAKER ASM                   M IMCTM S5MB11 TNTH  07070IMCT  S5 PTB  00004                    1600 SR        000000000000 DENSO TEN (THAILAND)180LXAL0009009                                                                                                                              *          20180307 IMCT                IMCT                                                                                                                    WMF1803075.TXT
MDDDJ3223205201803                D89828070100PV1D20180312000060SPEAKER ASM                   M IMCTM S5MB11 TNTH  07070IMCT  S5 PTB  00004                    2230 SR        000000000000 DENSO TEN (THAILAND)180LPGL0164164                                                                                                                              *          20180307 IMCT                IMCT                                                                                                                    WMF1803075.TXT
MDDDJ3223206201803                D89828070100PV4D20180312000060SPEAKER ASM                   M IMCTM S0FL05 TNTH  07070IMCT  S0 PTB  00004                    2100 SR        000000000000 DENSO TEN (THAILAND)180LRHU0006006                                                                                                                              *          20180307 IMCT                IMCT                                                                                                                    WMF1803075.TXT
MDDDJ3223207201803                D89828070200PV4D20180312000060SPEAKER ASM                   M IMCTM S0FR05 TNTH  07070IMCT  S0 PTB  00005                    2100 SR        000000000000 DENSO TEN (THAILAND)180LRHU0006006                                                                                                                              *          20180307 IMCT                IMCT                                                                                                                    WMF1803075.TXT
MDDDJ3223208201803                D89828070300PT1D20180312000060SPEAKER ASM                   M IMCTM S5NB082TNTH  07070IMCT  S5 PTB  00015                    2230 SR        000000000000 DENSO TEN (THAILAND)180LPGL0164164                                                                                                                              *          20180307 IMCT                IMCT                                                                                                                    WMF1803075.TXT
MDDDJ3223209201803                D89828070300PT4D20180312000060SPEAKER ASM                   M IMCTM S9TS02 TNTH  07070IMCT  S9 PTB  00015                    2100 SR        000000000000 DENSO TEN (THAILAND)180LRHU0006006                                                                                                                              *          20180307 IMCT                IMCT                                                                                                                    WMF1803075.TXT
MDDDJ3223210201803                D89831228300PT1D20180312000030RADIO;AM/FM,CD                M IMCTM S5NC06 TNTH  07070IMCT  S5 CPB  00003                    2230 SR        000000000000 DENSO TEN (THAILAND)180LPGL0164164                                                                                                                              *          20180307 IMCT                IMCT                                                                                                                    WMF1803075.TXT
MDDDJ3223211201803                D89848581500PT4D20180312000030RADIO;AM/FM CD D              M IMCTM S9CO001TNTH  07070IMCT  S9 PTB  00003                    2100 SR        000000000000 DENSO TEN (THAILAND)180LRHU0006006                                                                                                                              *          20180307 IMCT                IMCT                                                                                                                    WMF1803075.TXT
MDDUJ3209378201803                D89828070100PT4U20180311000030SPEAKER ASM                   M IMCTM S0FL05 TNTH  07070IMCT  S0 PTB  00004                    0400 SR        000000000000 DENSO TEN (THAILAND)180LURU0028028                                                                                                                              *          20180307 IMCT                IMCT                                                                                                                    WMF1803075.TXT
MDDUJ3209379201803                D89828070100PT4U20180312000030SPEAKER ASM                   M IMCTM S0FL05 TNTH  07070IMCT  S0 PTB  00004                    1030 SR        000000000000 DENSO TEN (THAILAND)180LULU0016016                                                                                                                              *          20180307 IMCT                IMCT                                                                                                                    WMF1803075.TXT
MDDUJ3209380201803                D89828070200PV4U20180311000030SPEAKER ASM                   M IMCTM S0FR05 TNTH  07070IMCT  S0 PTB  00005                    0400 SR        000000000000 DENSO TEN (THAILAND)180LURU0028028                                                                                                                              *          20180307 IMCT                IMCT                                                                                                                    WMF1803075.TXT
MDDUJ3209381201803                D89828070200PV4U20180312000030SPEAKER ASM                   M IMCTM S0FR05 TNTH  07070IMCT  S0 PTB  00005                    1030 SR        000000000000 DENSO TEN (THAILAND)180LULU0016016                                                                                                                              *          20180307 IMCT                IMCT                                                                                                                    WMF1803075.TXT
MDDUJ3209382201803                D89828070300PT4U20180311000030SPEAKER ASM                   M IMCTM S9TS02 TNTH  07070IMCT  S9 PTB  00015                    0400 SR        000000000000 DENSO TEN (THAILAND)180LURU0028028                                                                                                                              *          20180307 IMCT                IMCT                                                                                                                    WMF1803075.TXT
MDDUJ3209383201803                D89828070300PT4U20180312000030SPEAKER ASM                   M IMCTM S9TS02 TNTH  07070IMCT  S9 PTB  00015                    1030 SR        000000000000 DENSO TEN (THAILAND)180LULU0016016                                                                                                                              *          20180307 IMCT                IMCT                                                                                                                    WMF1803075.TXT
MDEDJ3243442201803                D89828070100PV1D20180310000090SPEAKER ASM                   M IMCTM S5MB11 TNTH  07070IMCT  S5 PTB  00004                    2230 SR        000000000000 DENSO TEN (THAILAND)17075QL000300418069UL0005005                                                                                                                *          20180307 IMCT                IMCT                                                                                                                    WMF1803075.TXT
MDEDJ3243443201803                D89828070100PV1D20180311000090SPEAKER ASM                   M IMCTM S5MB11 TNTH  07070IMCT  S5 PTB  00004                    0230 SR        000000000000 DENSO TEN (THAILAND)17075QL000500618069UL0006006                                                                                                                *          20180307 IMCT                IMCT                                                                                                                    WMF1803075.TXT
MDEDJ3243444201803                D89828070100PV1D20180311000030SPEAKER ASM                   M IMCTM S5MB11 TNTH  07070IMCT  S5 PTB  00004                    0400 SR        000000000000 DENSO TEN (THAILAND)18020XL0001001                                                                                                                              *          20180307 IMCT                IMCT                                                                                                                    WMF1803075.TXT
MDEDJ3243445201803                D89828070100PV1D20180312000030SPEAKER ASM                   M IMCTM S5MB11 TNTH  07070IMCT  S5 PTB  00004                    0830 SR        000000000000 DENSO TEN (THAILAND)18020XL0002002                                                                                                                              *          20180307 IMCT                IMCT                                                                                                                    WMF1803075.TXT
MDEDJ3243446201803                D89828070100PV1D20180312000030SPEAKER ASM                   M IMCTM S5MB11 TNTH  07070IMCT  S5 PTB  00004                    1030 SR        000000000000 DENSO TEN (THAILAND)18080UL0013013                                                                                                                              *          20180307 IMCT                IMCT                                                                                                                    WMF1803075.TXT
MDEDJ3243447201803                D89828070100PV1D20180312000060SPEAKER ASM                   M IMCTM S5MB11 TNTH  07070IMCT  S5 PTB  00004                    1300 SR        000000000000 DENSO TEN (THAILAND)17075QL000700718068XL0001001                                                                                                                *          20180307 IMCT                IMCT                                                                                                                    WMF1803075.TXT
MDEDJ3243448201803                D89828070100PV1D20180312000030SPEAKER ASM                   M IMCTM S5MB11 TNTH  07070IMCT  S5 PTB  00004                    1600 SR        000000000000 DENSO TEN (THAILAND)17075QL0008008                                                                                                                              *          20180307 IMCT                IMCT                                                                                                                    WMF1803075.TXT
MDEDJ3243449201803                D89828070100PV1D20180312000060SPEAKER ASM                   M IMCTM S5MB11 TNTH  07070IMCT  S5 PTB  00004                    2100 SR        000000000000 DENSO TEN (THAILAND)18082WL000300318099UL0031031                                                                                                                *          20180307 IMCT                IMCT                                                                                                                    WMF1803075.TXT
MDEDJ3243450201803                D89828070100PV4D20180312000030SPEAKER ASM                   M IMCTM S0FL05 TNTH  07070IMCT  S0 PTB  00004                    1300 SR        000000000000 DENSO TEN (THAILAND)18058WU0001001                                                                                                                              *          20180307 IMCT                IMCT                                                                                                                    WMF1803075.TXT
MDEDJ3243451201803                D89828070200PV1D20180310000030SPEAKER ASM                   M IMCTM S5MA14 TNTH  07070IMCT  S5 PTB  00005                    2230 SR        000000000000 DENSO TEN (THAILAND)18069UL0005005                                                                                                                              *          20180307 IMCT                IMCT                                                                                                                    WMF1803075.TXT
MDEDJ3243452201803                D89828070200PV1D20180311000030SPEAKER ASM                   M IMCTM S5MA14 TNTH  07070IMCT  S5 PTB  00005                    0230 SR        000000000000 DENSO TEN (THAILAND)18069UL0006006                                                                                                                              *          20180307 IMCT                IMCT                                                                                                                    WMF1803075.TXT
MDEDJ3243453201803                D89828070200PV1D20180312000030SPEAKER ASM                   M IMCTM S5MA14 TNTH  07070IMCT  S5 PTB  00005                    1030 SR        000000000000 DENSO TEN (THAILAND)18080UL0013013                                                                                                                              *          20180307 IMCT                IMCT                                                                                                                    WMF1803075.TXT
MDEDJ3243454201803                D89828070200PV1D20180312000030SPEAKER ASM                   M IMCTM S5MA14 TNTH  07070IMCT  S5 PTB  00005                    1300 SR        000000000000 DENSO TEN (THAILAND)18068XL0001001                                                                                                                              *          20180307 IMCT                IMCT                                                                                                                    WMF1803075.TXT
MDEDJ3243455201803                D89828070200PV1D20180312000030SPEAKER ASM                   M IMCTM S5MA14 TNTH  07070IMCT  S5 PTB  00005                    2100 SR        000000000000 DENSO TEN (THAILAND)18099UL0031031                                                                                                                              *          20180307 IMCT                IMCT                                                                                                                    WMF1803075.TXT
MDEDJ3243456201803                D89828070200PV4D20180312000030SPEAKER ASM                   M IMCTM S0FR05 TNTH  07070IMCT  S0 PTB  00005                    1300 SR        000000000000 DENSO TEN (THAILAND)18058WU0001001                                                                                                                              *          20180307 IMCT                IMCT                                                                                                                    WMF1803075.TXT
MDEDJ3243457201803                D89828070300PT1D20180310000030SPEAKER ASM                   M IMCTM S5NB082TNTH  07070IMCT  S5 PTB  00015                    2230 SR        000000000000 DENSO TEN (THAILAND)18069UL0005005                                                                                                                              *          20180307 IMCT                IMCT                                                                                                                    WMF1803075.TXT
MDEDJ3243458201803                D89828070300PT1D20180311000030SPEAKER ASM                   M IMCTM S5NB082TNTH  07070IMCT  S5 PTB  00015                    0230 SR        000000000000 DENSO TEN (THAILAND)18069UL0006006                                                                                                                              *          20180307 IMCT                IMCT                                                                                                                    WMF1803075.TXT
MDEDJ3243459201803                D89828070300PT1D20180311000030SPEAKER ASM                   M IMCTM S5NB082TNTH  07070IMCT  S5 PTB  00015                    0400 SR        000000000000 DENSO TEN (THAILAND)18020XL0001001                                                                                                                              *          20180307 IMCT                IMCT                                                                                                                    WMF1803075.TXT
MDEDJ3243460201803                D89828070300PT1D20180312000030SPEAKER ASM                   M IMCTM S5NB082TNTH  07070IMCT  S5 PTB  00015                    0830 SR        000000000000 DENSO TEN (THAILAND)18020XL0002002                                                                                                                              *          20180307 IMCT                IMCT                                                                                                                    WMF1803075.TXT
MDEDJ3243461201803                D89828070300PT1D20180312000030SPEAKER ASM                   M IMCTM S5NB082TNTH  07070IMCT  S5 PTB  00015                    1030 SR        000000000000 DENSO TEN (THAILAND)18080UL0013013                                                                                                                              *          20180307 IMCT                IMCT                                                                                                                    WMF1803075.TXT
MDEDJ3243462201803                D89828070300PT1D20180312000030SPEAKER ASM                   M IMCTM S5NB082TNTH  07070IMCT  S5 PTB  00015                    1300 SR        000000000000 DENSO TEN (THAILAND)18068XL0001001                                                                                                                              *          20180307 IMCT                IMCT                                                                                                                    WMF1803075.TXT
MDEDJ3243463201803                D89828070300PT1D20180312000030SPEAKER ASM                   M IMCTM S5NB082TNTH  07070IMCT  S5 PTB  00015                    2100 SR        000000000000 DENSO TEN (THAILAND)18099UL0031031                                                                                                                              *          20180307 IMCT                IMCT                                                                                                                    WMF1803075.TXT
MDEDJ3243464201803                D89828070300PT4D20180312000030SPEAKER ASM                   M IMCTM S9TS02 TNTH  07070IMCT  S9 PTB  00015                    1300 SR        000000000000 DENSO TEN (THAILAND)18058WU0001001                                                                                                                              *          20180307 IMCT                IMCT                                                                                                                    WMF1803075.TXT
MDEDJ3243465201803                D89848581800PT1D20180312000015RADIO;AM/FM CD D              M IMCTM S5NC06 TNTH  07070IMCT  S5 PTB  00003                    1030 SR        000000000000 DENSO TEN (THAILAND)18080UL0013013                                                                                                                              *          20180307 IMCT                IMCT                                                                                                                    WMF1803075.TXT
MDEUJ3231137201803                D89828070100PT4U20180310000030SPEAKER ASM                   M IMCTM S0FL05 TNTH  07070IMCT  S0 PTB  00004                    2230 SR        000000000000 DENSO TEN (THAILAND)18016UU0012012                                                                                                                              *          20180307 IMCT                IMCT                                                                                                                    WMF1803075.TXT
MDEUJ3231138201803                D89828070100PT4U20180311000030SPEAKER ASM                   M IMCTM S0FL05 TNTH  07070IMCT  S0 PTB  00004                    0230 SR        000000000000 DENSO TEN (THAILAND)18060UU0005005                                                                                                                              *          20180307 IMCT                IMCT                                                                                                                    WMF1803075.TXT
MDEUJ3231139201803                D89828070100PT4U20180312000060SPEAKER ASM                   M IMCTM S0FL05 TNTH  07070IMCT  S0 PTB  00004                    0830 SR        000000000000 DENSO TEN (THAILAND)18024UU002902918069ZU0003003                                                                                                                *          20180307 IMCT                IMCT                                                                                                                    WMF1803075.TXT
MDEUJ3231140201803                D89828070100PT4U20180312000060SPEAKER ASM                   M IMCTM S0FL05 TNTH  07070IMCT  S0 PTB  00004                    1300 SR        000000000000 DENSO TEN (THAILAND)18015UU001001018020UU0024024                                                                                                                *          20180307 IMCT                IMCT                                                                                                                    WMF1803075.TXT
MDEUJ3231141201803                D89828070100PT4U20180312000030SPEAKER ASM                   M IMCTM S0FL05 TNTH  07070IMCT  S0 PTB  00004                    1600 SR        000000000000 DENSO TEN (THAILAND)18023UU0021021                                                                                                                              *          20180307 IMCT                IMCT                                                                                                                    WMF1803075.TXT
MDEUJ3231142201803                D89828070100PT4U20180312000030SPEAKER ASM                   M IMCTM S0FL05 TNTH  07070IMCT  S0 PTB  00004                    2230 SR        000000000000 DENSO TEN (THAILAND)18020UU0025025                                                                                                                              *          20180307 IMCT                IMCT                                                                                                                    WMF1803075.TXT
MDEUJ3231143201803                D89828070200PV4U20180310000030SPEAKER ASM                   M IMCTM S0FR05 TNTH  07070IMCT  S0 PTB  00005                    2230 SR        000000000000 DENSO TEN (THAILAND)18016UU0012012                                                                                                                              *          20180307 IMCT                IMCT                                                                                                                    WMF1803075.TXT
MDEUJ3231144201803                D89828070200PV4U20180311000030SPEAKER ASM                   M IMCTM S0FR05 TNTH  07070IMCT  S0 PTB  00005                    0230 SR        000000000000 DENSO TEN (THAILAND)18060UU0005005                                                                                                                              *          20180307 IMCT                IMCT                                                                                                                    WMF1803075.TXT
MDEUJ3231145201803                D89828070200PV4U20180312000060SPEAKER ASM                   M IMCTM S0FR05 TNTH  07070IMCT  S0 PTB  00005                    0830 SR        000000000000 DENSO TEN (THAILAND)18024UU002902918069ZU0003003                                                                                                                *          20180307 IMCT                IMCT                                                                                                                    WMF1803075.TXT
MDEUJ3231146201803                D89828070200PV4U20180312000060SPEAKER ASM                   M IMCTM S0FR05 TNTH  07070IMCT  S0 PTB  00005                    1300 SR        000000000000 DENSO TEN (THAILAND)18015UU001001018020UU0024024                                                                                                                *          20180307 IMCT                IMCT                                                                                                                    WMF1803075.TXT
MDEUJ3231147201803                D89828070200PV4U20180312000030SPEAKER ASM                   M IMCTM S0FR05 TNTH  07070IMCT  S0 PTB  00005                    1600 SR        000000000000 DENSO TEN (THAILAND)18023UU0021021                                                                                                                              *          20180307 IMCT                IMCT                                                                                                                    WMF1803075.TXT
MDEUJ3231148201803                D89828070200PV4U20180312000030SPEAKER ASM                   M IMCTM S0FR05 TNTH  07070IMCT  S0 PTB  00005                    2230 SR        000000000000 DENSO TEN (THAILAND)18020UU0025025                                                                                                                              *          20180307 IMCT                IMCT                                                                                                                    WMF1803075.TXT
MDEUJ3231149201803                D89828070300PT4U20180310000030SPEAKER ASM                   M IMCTM S9TS02 TNTH  07070IMCT  S9 PTB  00015                    2230 SR        000000000000 DENSO TEN (THAILAND)18016UU0012012                                                                                                                              *          20180307 IMCT                IMCT                                                                                                                    WMF1803075.TXT
MDEUJ3231150201803                D89828070300PT4U20180311000030SPEAKER ASM                   M IMCTM S9TS02 TNTH  07070IMCT  S9 PTB  00015                    0230 SR        000000000000 DENSO TEN (THAILAND)18060UU0005005                                                                                                                              *          20180307 IMCT                IMCT                                                                                                                    WMF1803075.TXT
MDEUJ3231151201803                D89828070300PT4U20180312000060SPEAKER ASM                   M IMCTM S9TS02 TNTH  07070IMCT  S9 PTB  00015                    0830 SR        000000000000 DENSO TEN (THAILAND)18024UU002902918069ZU0003003                                                                                                                *          20180307 IMCT                IMCT                                                                                                                    WMF1803075.TXT
MDEUJ3231152201803                D89828070300PT4U20180312000060SPEAKER ASM                   M IMCTM S9TS02 TNTH  07070IMCT  S9 PTB  00015                    1300 SR        000000000000 DENSO TEN (THAILAND)18015UU001001018020UU0024024                                                                                                                *          20180307 IMCT                IMCT                                                                                                                    WMF1803075.TXT
MDEUJ3231153201803                D89828070300PT4U20180312000030SPEAKER ASM                   M IMCTM S9TS02 TNTH  07070IMCT  S9 PTB  00015                    1600 SR        000000000000 DENSO TEN (THAILAND)18023UU0021021                                                                                                                              *          20180307 IMCT                IMCT                                                                                                                    WMF1803075.TXT
MDEUJ3231154201803                D89828070300PT4U20180312000030SPEAKER ASM                   M IMCTM S9TS02 TNTH  07070IMCT  S9 PTB  00015                    2230 SR        000000000000 DENSO TEN (THAILAND)18020UU0025025                                                                                                                              *          20180307 IMCT                IMCT                                                                                                                    WMF1803075.TXT
MDEUJ3231155201803                D89848584400PT4U20180311000015RADIO;AM/FM CD D              M IMCTM S9CO001TNTH  07070IMCT  S9 PTB  00003                    0230 SR        000000000000 DENSO TEN (THAILAND)18060UU0005005                                                                                                                              *          20180307 IMCT                IMCT                                                                                                                    WMF1803075.TXT
MDEUJ3231156201803                D89848584500PT4U20180312000015RADIO;AM/FM CD D              M IMCTM S9CO001TNTH  07070IMCT  S9 PTB  00003                    0830 SR        000000000000 DENSO TEN (THAILAND)18069ZU0003003                                                                                                                              *          20180307 IMCT                IMCT                                                                                                                    WMF1803075.TXT
