REC2018031020180310ISUZU                              83     
MDDDJ3237352201803                D89821984430PT1D20180314000030RADIO;AM/FM,CD                M IMCTM S5NC06 TNTH  07070IMCT  S5 PTB  00005                    2230 SR        000000000000 DENSO TEN (THAILAND)180LNGL0097097                                                                                                                              *          20180310 IMCT                IMCT                                                                                                                    WMF1803104.TXT
MDDDJ3237353201803                D89821984430PT1D20180315000030RADIO;AM/FM,CD                M IMCTM S5NC06 TNTH  07070IMCT  S5 PTB  00005                    1030 SR        000000000000 DENSO TEN (THAILAND)180LRAL0141141                                                                                                                              *          20180310 IMCT                IMCT                                                                                                                    WMF1803104.TXT
MDDDJ3237354201803                D89821984430PT1D20180315000030RADIO;AM/FM,CD                M IMCTM S5NC06 TNTH  07070IMCT  S5 PTB  00005                    1300 SR        000000000000 DENSO TEN (THAILAND)180LNGL0098098                                                                                                                              *          20180310 IMCT                IMCT                                                                                                                    WMF1803104.TXT
MDDDJ3237355201803                D89821984430PT1D20180315000030RADIO;AM/FM,CD                M IMCTM S5NC06 TNTH  07070IMCT  S5 PTB  00005                    2230 SR        000000000000 DENSO TEN (THAILAND)180LXCL0013013                                                                                                                              *          20180310 IMCT                IMCT                                                                                                                    WMF1803104.TXT
MDDDJ3237356201803                D89828070100PV1D20180314000060SPEAKER ASM                   M IMCTM S5MB11 TNTH  07070IMCT  S5 PTB  00004                    2230 SR        000000000000 DENSO TEN (THAILAND)180LNGL0097097                                                                                                                              *          20180310 IMCT                IMCT                                                                                                                    WMF1803104.TXT
MDDDJ3237357201803                D89828070100PV1D20180315000060SPEAKER ASM                   M IMCTM S5MB11 TNTH  07070IMCT  S5 PTB  00004                    0400 SR        000000000000 DENSO TEN (THAILAND)180LPFL0014014                                                                                                                              *          20180310 IMCT                IMCT                                                                                                                    WMF1803104.TXT
MDDDJ3237358201803                D89828070100PV1D20180315000060SPEAKER ASM                   M IMCTM S5MB11 TNTH  07070IMCT  S5 PTB  00004                    0830 SR        000000000000 DENSO TEN (THAILAND)180LPKL0049049                                                                                                                              *          20180310 IMCT                IMCT                                                                                                                    WMF1803104.TXT
MDDDJ3237359201803                D89828070100PV1D20180315000060SPEAKER ASM                   M IMCTM S5MB11 TNTH  07070IMCT  S5 PTB  00004                    1030 SR        000000000000 DENSO TEN (THAILAND)180LRAL0141141                                                                                                                              *          20180310 IMCT                IMCT                                                                                                                    WMF1803104.TXT
MDDDJ3237360201803                D89828070100PV1D20180315000060SPEAKER ASM                   M IMCTM S5MB11 TNTH  07070IMCT  S5 PTB  00004                    1300 SR        000000000000 DENSO TEN (THAILAND)180LNGL0098098                                                                                                                              *          20180310 IMCT                IMCT                                                                                                                    WMF1803104.TXT
MDDDJ3237361201803                D89828070100PV1D20180315000060SPEAKER ASM                   M IMCTM S5MB11 TNTH  07070IMCT  S5 PTB  00004                    1600 SR        000000000000 DENSO TEN (THAILAND)180LPML0014014                                                                                                                              *          20180310 IMCT                IMCT                                                                                                                    WMF1803104.TXT
MDDDJ3237362201803                D89828070100PV1D20180315000060SPEAKER ASM                   M IMCTM S5MB11 TNTH  07070IMCT  S5 PTB  00004                    2230 SR        000000000000 DENSO TEN (THAILAND)180LXCL0013013                                                                                                                              *          20180310 IMCT                IMCT                                                                                                                    WMF1803104.TXT
MDDDJ3237363201803                D89828070100PV4D20180315000060SPEAKER ASM                   M IMCTM S0FL05 TNTH  07070IMCT  S0 PTB  00004                    1300 SR        000000000000 DENSO TEN (THAILAND)180LRMU0001001                                                                                                                              *          20180310 IMCT                IMCT                                                                                                                    WMF1803104.TXT
MDDDJ3237364201803                D89828070200PV4D20180315000060SPEAKER ASM                   M IMCTM S0FR05 TNTH  07070IMCT  S0 PTB  00005                    1300 SR        000000000000 DENSO TEN (THAILAND)180LRMU0001001                                                                                                                              *          20180310 IMCT                IMCT                                                                                                                    WMF1803104.TXT
MDDDJ3237365201803                D89828070300PT1D20180315000060SPEAKER ASM                   M IMCTM S5NB082TNTH  07070IMCT  S5 PTB  00015                    0400 SR        000000000000 DENSO TEN (THAILAND)180LPFL0014014                                                                                                                              *          20180310 IMCT                IMCT                                                                                                                    WMF1803104.TXT
MDDDJ3237366201803                D89828070300PT1D20180315000060SPEAKER ASM                   M IMCTM S5NB082TNTH  07070IMCT  S5 PTB  00015                    0830 SR        000000000000 DENSO TEN (THAILAND)180LPKL0049049                                                                                                                              *          20180310 IMCT                IMCT                                                                                                                    WMF1803104.TXT
MDDDJ3237367201803                D89828070300PT1D20180315000060SPEAKER ASM                   M IMCTM S5NB082TNTH  07070IMCT  S5 PTB  00015                    1600 SR        000000000000 DENSO TEN (THAILAND)180LPML0014014                                                                                                                              *          20180310 IMCT                IMCT                                                                                                                    WMF1803104.TXT
MDDDJ3237368201803                D89828070300PT4D20180315000060SPEAKER ASM                   M IMCTM S9TS02 TNTH  07070IMCT  S9 PTB  00015                    1300 SR        000000000000 DENSO TEN (THAILAND)180LRMU0001001                                                                                                                              *          20180310 IMCT                IMCT                                                                                                                    WMF1803104.TXT
MDDDJ3237369201803                D89831228300PT1D20180315000030RADIO;AM/FM,CD                M IMCTM S5NC06 TNTH  07070IMCT  S5 CPB  00003                    0400 SR        000000000000 DENSO TEN (THAILAND)180LPFL0014014                                                                                                                              *          20180310 IMCT                IMCT                                                                                                                    WMF1803104.TXT
MDDDJ3237370201803                D89848581600PT1D20180315000030RADIO;AM/FM CD D              M IMCTM S5NC06 TNTH  07070IMCT  S5 PTB  00003                    0830 SR        000000000000 DENSO TEN (THAILAND)180LPKL0049049                                                                                                                              *          20180310 IMCT                IMCT                                                                                                                    WMF1803104.TXT
MDDUJ3214378201803                D89828070100PT4U20180315000030SPEAKER ASM                   M IMCTM S0FL05 TNTH  07070IMCT  S0 PTB  00004                    1030 SR        000000000000 DENSO TEN (THAILAND)180LURU0031031                                                                                                                              *          20180310 IMCT                IMCT                                                                                                                    WMF1803104.TXT
MDDUJ3214379201803                D89828070100PT4U20180315000030SPEAKER ASM                   M IMCTM S0FL05 TNTH  07070IMCT  S0 PTB  00004                    1600 SR        000000000000 DENSO TEN (THAILAND)180LULU0019019                                                                                                                              *          20180310 IMCT                IMCT                                                                                                                    WMF1803104.TXT
MDDUJ3214380201803                D89828070200PV4U20180315000030SPEAKER ASM                   M IMCTM S0FR05 TNTH  07070IMCT  S0 PTB  00005                    1030 SR        000000000000 DENSO TEN (THAILAND)180LURU0031031                                                                                                                              *          20180310 IMCT                IMCT                                                                                                                    WMF1803104.TXT
MDDUJ3214381201803                D89828070200PV4U20180315000030SPEAKER ASM                   M IMCTM S0FR05 TNTH  07070IMCT  S0 PTB  00005                    1600 SR        000000000000 DENSO TEN (THAILAND)180LULU0019019                                                                                                                              *          20180310 IMCT                IMCT                                                                                                                    WMF1803104.TXT
MDDUJ3214382201803                D89828070300PT4U20180315000030SPEAKER ASM                   M IMCTM S9TS02 TNTH  07070IMCT  S9 PTB  00015                    1030 SR        000000000000 DENSO TEN (THAILAND)180LURU0031031                                                                                                                              *          20180310 IMCT                IMCT                                                                                                                    WMF1803104.TXT
MDDUJ3214383201803                D89828070300PT4U20180315000030SPEAKER ASM                   M IMCTM S9TS02 TNTH  07070IMCT  S9 PTB  00015                    1600 SR        000000000000 DENSO TEN (THAILAND)180LULU0019019                                                                                                                              *          20180310 IMCT                IMCT                                                                                                                    WMF1803104.TXT
MDEDJ3266975201803                D89828070100PV1D20180314000030SPEAKER ASM                   M IMCTM S5MB11 TNTH  07070IMCT  S5 PTB  00004                    2230 SR        000000000000 DENSO TEN (THAILAND)18064XL0001001                                                                                                                              *          20180310 IMCT                IMCT                                                                                                                    WMF1803104.TXT
MDEDJ3266976201803                D89828070100PV1D20180315000030SPEAKER ASM                   M IMCTM S5MB11 TNTH  07070IMCT  S5 PTB  00004                    0230 SR        000000000000 DENSO TEN (THAILAND)18098UL0019019                                                                                                                              *          20180310 IMCT                IMCT                                                                                                                    WMF1803104.TXT
MDEDJ3266977201803                D89828070100PV1D20180315000090SPEAKER ASM                   M IMCTM S5MB11 TNTH  07070IMCT  S5 PTB  00004                    0400 SR        000000000000 DENSO TEN (THAILAND)17040PL000700718073UL000300318080UL0016016                                                                                                  *          20180310 IMCT                IMCT                                                                                                                    WMF1803104.TXT
MDEDJ3266978201803                D89828070100PV1D20180315000030SPEAKER ASM                   M IMCTM S5MB11 TNTH  07070IMCT  S5 PTB  00004                    0830 SR        000000000000 DENSO TEN (THAILAND)18074UL0013013                                                                                                                              *          20180310 IMCT                IMCT                                                                                                                    WMF1803104.TXT
MDEDJ3266979201803                D89828070100PV1D20180315000030SPEAKER ASM                   M IMCTM S5MB11 TNTH  07070IMCT  S5 PTB  00004                    1030 SR        000000000000 DENSO TEN (THAILAND)18074UL0014014                                                                                                                              *          20180310 IMCT                IMCT                                                                                                                    WMF1803104.TXT
MDEDJ3266980201803                D89828070100PV1D20180315000060SPEAKER ASM                   M IMCTM S5MB11 TNTH  07070IMCT  S5 PTB  00004                    1300 SR        000000000000 DENSO TEN (THAILAND)17040PL000800818099UL0034034                                                                                                                *          20180310 IMCT                IMCT                                                                                                                    WMF1803104.TXT
MDEDJ3266981201803                D89828070100PV1D20180315000060SPEAKER ASM                   M IMCTM S5MB11 TNTH  07070IMCT  S5 PTB  00004                    1600 SR        000000000000 DENSO TEN (THAILAND)17041PL0082083                                                                                                                              *          20180310 IMCT                IMCT                                                                                                                    WMF1803104.TXT
MDEDJ3266982201803                D89828070100PV1D20180315000030SPEAKER ASM                   M IMCTM S5MB11 TNTH  07070IMCT  S5 PTB  00004                    2100 SR        000000000000 DENSO TEN (THAILAND)18001VL0013013                                                                                                                              *          20180310 IMCT                IMCT                                                                                                                    WMF1803104.TXT
MDEDJ3266983201803                D89828070100PV1D20180315000030SPEAKER ASM                   M IMCTM S5MB11 TNTH  07070IMCT  S5 PTB  00004                    2230 SR        000000000000 DENSO TEN (THAILAND)18001VL0014014                                                                                                                              *          20180310 IMCT                IMCT                                                                                                                    WMF1803104.TXT
MDEDJ3266984201803                D89828070100PV4D20180315000030SPEAKER ASM                   M IMCTM S0FL05 TNTH  07070IMCT  S0 PTB  00004                    0400 SR        000000000000 DENSO TEN (THAILAND)18061UU0013013                                                                                                                              *          20180310 IMCT                IMCT                                                                                                                    WMF1803104.TXT
MDEDJ3266985201803                D89828070100PV4D20180315000030SPEAKER ASM                   M IMCTM S0FL05 TNTH  07070IMCT  S0 PTB  00004                    0830 SR        000000000000 DENSO TEN (THAILAND)18068UU0006006                                                                                                                              *          20180310 IMCT                IMCT                                                                                                                    WMF1803104.TXT
MDEDJ3266986201803                D89828070100PV4D20180315000030SPEAKER ASM                   M IMCTM S0FL05 TNTH  07070IMCT  S0 PTB  00004                    1600 SR        000000000000 DENSO TEN (THAILAND)18064UU0002002                                                                                                                              *          20180310 IMCT                IMCT                                                                                                                    WMF1803104.TXT
MDEDJ3266987201803                D89828070200PV1D20180314000030SPEAKER ASM                   M IMCTM S5MA14 TNTH  07070IMCT  S5 PTB  00005                    2230 SR        000000000000 DENSO TEN (THAILAND)18064XL0001001                                                                                                                              *          20180310 IMCT                IMCT                                                                                                                    WMF1803104.TXT
MDEDJ3266988201803                D89828070200PV1D20180315000030SPEAKER ASM                   M IMCTM S5MA14 TNTH  07070IMCT  S5 PTB  00005                    0230 SR        000000000000 DENSO TEN (THAILAND)18098UL0019019                                                                                                                              *          20180310 IMCT                IMCT                                                                                                                    WMF1803104.TXT
MDEDJ3266989201803                D89828070200PV1D20180315000030SPEAKER ASM                   M IMCTM S5MA14 TNTH  07070IMCT  S5 PTB  00005                    0400 SR        000000000000 DENSO TEN (THAILAND)18080UL0016016                                                                                                                              *          20180310 IMCT                IMCT                                                                                                                    WMF1803104.TXT
MDEDJ3266990201803                D89828070200PV1D20180315000030SPEAKER ASM                   M IMCTM S5MA14 TNTH  07070IMCT  S5 PTB  00005                    1300 SR        000000000000 DENSO TEN (THAILAND)18099UL0034034                                                                                                                              *          20180310 IMCT                IMCT                                                                                                                    WMF1803104.TXT
MDEDJ3266991201803                D89828070200PV1D20180315000030SPEAKER ASM                   M IMCTM S5MA14 TNTH  07070IMCT  S5 PTB  00005                    2100 SR        000000000000 DENSO TEN (THAILAND)18001VL0013013                                                                                                                              *          20180310 IMCT                IMCT                                                                                                                    WMF1803104.TXT
MDEDJ3266992201803                D89828070200PV1D20180315000030SPEAKER ASM                   M IMCTM S5MA14 TNTH  07070IMCT  S5 PTB  00005                    2230 SR        000000000000 DENSO TEN (THAILAND)18001VL0014014                                                                                                                              *          20180310 IMCT                IMCT                                                                                                                    WMF1803104.TXT
MDEDJ3266993201803                D89828070200PV4D20180315000030SPEAKER ASM                   M IMCTM S0FR05 TNTH  07070IMCT  S0 PTB  00005                    0830 SR        000000000000 DENSO TEN (THAILAND)18068UU0006006                                                                                                                              *          20180310 IMCT                IMCT                                                                                                                    WMF1803104.TXT
MDEDJ3266994201803                D89828070300PT1D20180314000030SPEAKER ASM                   M IMCTM S5NB082TNTH  07070IMCT  S5 PTB  00015                    2230 SR        000000000000 DENSO TEN (THAILAND)18064XL0001001                                                                                                                              *          20180310 IMCT                IMCT                                                                                                                    WMF1803104.TXT
MDEDJ3266995201803                D89828070300PT1D20180315000030SPEAKER ASM                   M IMCTM S5NB082TNTH  07070IMCT  S5 PTB  00015                    0230 SR        000000000000 DENSO TEN (THAILAND)18098UL0019019                                                                                                                              *          20180310 IMCT                IMCT                                                                                                                    WMF1803104.TXT
MDEDJ3266996201803                D89828070300PT1D20180315000060SPEAKER ASM                   M IMCTM S5NB082TNTH  07070IMCT  S5 PTB  00015                    0400 SR        000000000000 DENSO TEN (THAILAND)18073UL000300318080UL0016016                                                                                                                *          20180310 IMCT                IMCT                                                                                                                    WMF1803104.TXT
MDEDJ3266997201803                D89828070300PT1D20180315000030SPEAKER ASM                   M IMCTM S5NB082TNTH  07070IMCT  S5 PTB  00015                    0830 SR        000000000000 DENSO TEN (THAILAND)18074UL0013013                                                                                                                              *          20180310 IMCT                IMCT                                                                                                                    WMF1803104.TXT
MDEDJ3266998201803                D89828070300PT1D20180315000030SPEAKER ASM                   M IMCTM S5NB082TNTH  07070IMCT  S5 PTB  00015                    1030 SR        000000000000 DENSO TEN (THAILAND)18074UL0014014                                                                                                                              *          20180310 IMCT                IMCT                                                                                                                    WMF1803104.TXT
MDEDJ3266999201803                D89828070300PT1D20180315000030SPEAKER ASM                   M IMCTM S5NB082TNTH  07070IMCT  S5 PTB  00015                    1300 SR        000000000000 DENSO TEN (THAILAND)18099UL0034034                                                                                                                              *          20180310 IMCT                IMCT                                                                                                                    WMF1803104.TXT
MDEDJ3267000201803                D89828070300PT1D20180315000030SPEAKER ASM                   M IMCTM S5NB082TNTH  07070IMCT  S5 PTB  00015                    2100 SR        000000000000 DENSO TEN (THAILAND)18001VL0013013                                                                                                                              *          20180310 IMCT                IMCT                                                                                                                    WMF1803104.TXT
MDEDJ3267001201803                D89828070300PT1D20180315000030SPEAKER ASM                   M IMCTM S5NB082TNTH  07070IMCT  S5 PTB  00015                    2230 SR        000000000000 DENSO TEN (THAILAND)18001VL0014014                                                                                                                              *          20180310 IMCT                IMCT                                                                                                                    WMF1803104.TXT
MDEDJ3267002201803                D89828070300PT4D20180315000030SPEAKER ASM                   M IMCTM S9TS02 TNTH  07070IMCT  S9 PTB  00015                    0400 SR        000000000000 DENSO TEN (THAILAND)18061UU0013013                                                                                                                              *          20180310 IMCT                IMCT                                                                                                                    WMF1803104.TXT
MDEDJ3267003201803                D89828070300PT4D20180315000030SPEAKER ASM                   M IMCTM S9TS02 TNTH  07070IMCT  S9 PTB  00015                    0830 SR        000000000000 DENSO TEN (THAILAND)18068UU0006006                                                                                                                              *          20180310 IMCT                IMCT                                                                                                                    WMF1803104.TXT
MDEDJ3267004201803                D89828070300PT4D20180315000030SPEAKER ASM                   M IMCTM S9TS02 TNTH  07070IMCT  S9 PTB  00015                    1600 SR        000000000000 DENSO TEN (THAILAND)18064UU0002002                                                                                                                              *          20180310 IMCT                IMCT                                                                                                                    WMF1803104.TXT
MDEDJ3267005201803                D89848581800PT1D20180315000015RADIO;AM/FM CD D              M IMCTM S5NC06 TNTH  07070IMCT  S5 PTB  00003                    0230 SR        000000000000 DENSO TEN (THAILAND)18098UL0019019                                                                                                                              *          20180310 IMCT                IMCT                                                                                                                    WMF1803104.TXT
MDEDJ3267006201803                D89848581800PT1D20180315000015RADIO;AM/FM CD D              M IMCTM S5NC06 TNTH  07070IMCT  S5 PTB  00003                    0400 SR        000000000000 DENSO TEN (THAILAND)18080UL0016016                                                                                                                              *          20180310 IMCT                IMCT                                                                                                                    WMF1803104.TXT
MDEDJ3267007201803                D89848581800PT4D20180315000015RADIO;AM/FM CD D              M IMCTM S9CO001TNTH  07070IMCT  S9 PTB  00003                    0400 SR        000000000000 DENSO TEN (THAILAND)18061UU0013013                                                                                                                              *          20180310 IMCT                IMCT                                                                                                                    WMF1803104.TXT
MDEDJ3267008201803                D89848582500PT1D20180315000015RADIO;AM/FM CD D              M IMCTM S5NC06 TNTH  07070IMCT  S5 PTB  00003                    0400 SR        000000000000 DENSO TEN (THAILAND)18073UL0003003                                                                                                                              *          20180310 IMCT                IMCT                                                                                                                    WMF1803104.TXT
MDEDJ3267009201803                D89848582500PT1D20180315000015RADIO;AM/FM CD D              M IMCTM S5NC06 TNTH  07070IMCT  S5 PTB  00003                    0830 SR        000000000000 DENSO TEN (THAILAND)18074UL0013013                                                                                                                              *          20180310 IMCT                IMCT                                                                                                                    WMF1803104.TXT
MDEDJ3267010201803                D89848582500PT1D20180315000015RADIO;AM/FM CD D              M IMCTM S5NC06 TNTH  07070IMCT  S5 PTB  00003                    1030 SR        000000000000 DENSO TEN (THAILAND)18074UL0014014                                                                                                                              *          20180310 IMCT                IMCT                                                                                                                    WMF1803104.TXT
MDEDJ3267011201803                D89848582500PT4D20180315000015RADIO;AM/FM CD D              M IMCTM S9CO001TNTH  07070IMCT  S9 PTB  00003                    1600 SR        000000000000 DENSO TEN (THAILAND)18064UU0002002                                                                                                                              *          20180310 IMCT                IMCT                                                                                                                    WMF1803104.TXT
MDEUJ3249290201803                D89828070100PT4U20180315000030SPEAKER ASM                   M IMCTM S0FL05 TNTH  07070IMCT  S0 PTB  00004                    0230 SR        000000000000 DENSO TEN (THAILAND)18021UU0057057                                                                                                                              *          20180310 IMCT                IMCT                                                                                                                    WMF1803104.TXT
MDEUJ3249291201803                D89828070100PT4U20180315000060SPEAKER ASM                   M IMCTM S0FL05 TNTH  07070IMCT  S0 PTB  00004                    0400 SR        000000000000 DENSO TEN (THAILAND)18015UU001301318020UU0030030                                                                                                                *          20180310 IMCT                IMCT                                                                                                                    WMF1803104.TXT
MDEUJ3249292201803                D89828070100PT4U20180315000030SPEAKER ASM                   M IMCTM S0FL05 TNTH  07070IMCT  S0 PTB  00004                    0830 SR        000000000000 DENSO TEN (THAILAND)18018UU0003003                                                                                                                              *          20180310 IMCT                IMCT                                                                                                                    WMF1803104.TXT
MDEUJ3249293201803                D89828070100PT4U20180315000060SPEAKER ASM                   M IMCTM S0FL05 TNTH  07070IMCT  S0 PTB  00004                    1300 SR        000000000000 DENSO TEN (THAILAND)18016UU001501518021UU0058058                                                                                                                *          20180310 IMCT                IMCT                                                                                                                    WMF1803104.TXT
MDEUJ3249294201803                D89828070100PT4U20180315000030SPEAKER ASM                   M IMCTM S0FL05 TNTH  07070IMCT  S0 PTB  00004                    1600 SR        000000000000 DENSO TEN (THAILAND)18021UU0059059                                                                                                                              *          20180310 IMCT                IMCT                                                                                                                    WMF1803104.TXT
MDEUJ3249295201803                D89828070100PT4U20180315000060SPEAKER ASM                   M IMCTM S0FL05 TNTH  07070IMCT  S0 PTB  00004                    2100 SR        000000000000 DENSO TEN (THAILAND)18020UU003103118021UU0060060                                                                                                                *          20180310 IMCT                IMCT                                                                                                                    WMF1803104.TXT
MDEUJ3249296201803                D89828070100PT4U20180315000030SPEAKER ASM                   M IMCTM S0FL05 TNTH  07070IMCT  S0 PTB  00004                    2230 SR        000000000000 DENSO TEN (THAILAND)18024UU0032032                                                                                                                              *          20180310 IMCT                IMCT                                                                                                                    WMF1803104.TXT
MDEUJ3249297201803                D89828070200PV4U20180315000030SPEAKER ASM                   M IMCTM S0FR05 TNTH  07070IMCT  S0 PTB  00005                    0230 SR        000000000000 DENSO TEN (THAILAND)18021UU0057057                                                                                                                              *          20180310 IMCT                IMCT                                                                                                                    WMF1803104.TXT
MDEUJ3249298201803                D89828070200PV4U20180315000060SPEAKER ASM                   M IMCTM S0FR05 TNTH  07070IMCT  S0 PTB  00005                    0400 SR        000000000000 DENSO TEN (THAILAND)18015UU001301318020UU0030030                                                                                                                *          20180310 IMCT                IMCT                                                                                                                    WMF1803104.TXT
MDEUJ3249299201803                D89828070200PV4U20180315000030SPEAKER ASM                   M IMCTM S0FR05 TNTH  07070IMCT  S0 PTB  00005                    0830 SR        000000000000 DENSO TEN (THAILAND)18018UU0003003                                                                                                                              *          20180310 IMCT                IMCT                                                                                                                    WMF1803104.TXT
MDEUJ3249300201803                D89828070200PV4U20180315000060SPEAKER ASM                   M IMCTM S0FR05 TNTH  07070IMCT  S0 PTB  00005                    1300 SR        000000000000 DENSO TEN (THAILAND)18016UU001501518021UU0058058                                                                                                                *          20180310 IMCT                IMCT                                                                                                                    WMF1803104.TXT
MDEUJ3249301201803                D89828070200PV4U20180315000030SPEAKER ASM                   M IMCTM S0FR05 TNTH  07070IMCT  S0 PTB  00005                    1600 SR        000000000000 DENSO TEN (THAILAND)18021UU0059059                                                                                                                              *          20180310 IMCT                IMCT                                                                                                                    WMF1803104.TXT
MDEUJ3249302201803                D89828070200PV4U20180315000060SPEAKER ASM                   M IMCTM S0FR05 TNTH  07070IMCT  S0 PTB  00005                    2100 SR        000000000000 DENSO TEN (THAILAND)18020UU003103118021UU0060060                                                                                                                *          20180310 IMCT                IMCT                                                                                                                    WMF1803104.TXT
MDEUJ3249303201803                D89828070200PV4U20180315000030SPEAKER ASM                   M IMCTM S0FR05 TNTH  07070IMCT  S0 PTB  00005                    2230 SR        000000000000 DENSO TEN (THAILAND)18024UU0032032                                                                                                                              *          20180310 IMCT                IMCT                                                                                                                    WMF1803104.TXT
MDEUJ3249304201803                D89828070300PT4U20180315000030SPEAKER ASM                   M IMCTM S9TS02 TNTH  07070IMCT  S9 PTB  00015                    0230 SR        000000000000 DENSO TEN (THAILAND)18021UU0057057                                                                                                                              *          20180310 IMCT                IMCT                                                                                                                    WMF1803104.TXT
MDEUJ3249305201803                D89828070300PT4U20180315000060SPEAKER ASM                   M IMCTM S9TS02 TNTH  07070IMCT  S9 PTB  00015                    0400 SR        000000000000 DENSO TEN (THAILAND)18015UU001301318020UU0030030                                                                                                                *          20180310 IMCT                IMCT                                                                                                                    WMF1803104.TXT
MDEUJ3249306201803                D89828070300PT4U20180315000030SPEAKER ASM                   M IMCTM S9TS02 TNTH  07070IMCT  S9 PTB  00015                    0830 SR        000000000000 DENSO TEN (THAILAND)18018UU0003003                                                                                                                              *          20180310 IMCT                IMCT                                                                                                                    WMF1803104.TXT
MDEUJ3249307201803                D89828070300PT4U20180315000060SPEAKER ASM                   M IMCTM S9TS02 TNTH  07070IMCT  S9 PTB  00015                    1300 SR        000000000000 DENSO TEN (THAILAND)18016UU001501518021UU0058058                                                                                                                *          20180310 IMCT                IMCT                                                                                                                    WMF1803104.TXT
MDEUJ3249308201803                D89828070300PT4U20180315000030SPEAKER ASM                   M IMCTM S9TS02 TNTH  07070IMCT  S9 PTB  00015                    1600 SR        000000000000 DENSO TEN (THAILAND)18021UU0059059                                                                                                                              *          20180310 IMCT                IMCT                                                                                                                    WMF1803104.TXT
MDEUJ3249309201803                D89828070300PT4U20180315000060SPEAKER ASM                   M IMCTM S9TS02 TNTH  07070IMCT  S9 PTB  00015                    2100 SR        000000000000 DENSO TEN (THAILAND)18020UU003103118021UU0060060                                                                                                                *          20180310 IMCT                IMCT                                                                                                                    WMF1803104.TXT
MDEUJ3249310201803                D89828070300PT4U20180315000030SPEAKER ASM                   M IMCTM S9TS02 TNTH  07070IMCT  S9 PTB  00015                    2230 SR        000000000000 DENSO TEN (THAILAND)18024UU0032032                                                                                                                              *          20180310 IMCT                IMCT                                                                                                                    WMF1803104.TXT
