REC2018031720180317ISUZU                              86     
MDDDJ3260079201803                D89821984430PT1D20180322000030RADIO;AM/FM,CD                M IMCTM S5NC06 TNTH  07070IMCT  S5 PTB  00005                    0230 SR        000000000000 DENSO TEN (THAILAND)180LRBL0025025                                                                                                                              *          20180317 IMCT                IMCT                                                                                                                    WMF1803174.TXT
MDDDJ3260080201803                D89821984430PT1D20180322000030RADIO;AM/FM,CD                M IMCTM S5NC06 TNTH  07070IMCT  S5 PTB  00005                    1300 SR        000000000000 DENSO TEN (THAILAND)180LNEL0066066                                                                                                                              *          20180317 IMCT                IMCT                                                                                                                    WMF1803174.TXT
MDDDJ3260081201803                D89821984430PT1D20180322000030RADIO;AM/FM,CD                M IMCTM S5NC06 TNTH  07070IMCT  S5 PTB  00005                    1600 SR        000000000000 DENSO TEN (THAILAND)180LNGL0103103                                                                                                                              *          20180317 IMCT                IMCT                                                                                                                    WMF1803174.TXT
MDDDJ3260082201803                D89828070100PV1D20180321000060SPEAKER ASM                   M IMCTM S5MB11 TNTH  07070IMCT  S5 PTB  00004                    2230 SR        000000000000 DENSO TEN (THAILAND)180LPFL0018018                                                                                                                              *          20180317 IMCT                IMCT                                                                                                                    WMF1803174.TXT
MDDDJ3260083201803                D89828070100PV1D20180322000060SPEAKER ASM                   M IMCTM S5MB11 TNTH  07070IMCT  S5 PTB  00004                    0230 SR        000000000000 DENSO TEN (THAILAND)180LRBL0025025                                                                                                                              *          20180317 IMCT                IMCT                                                                                                                    WMF1803174.TXT
MDDDJ3260084201803                D89828070100PV1D20180322000060SPEAKER ASM                   M IMCTM S5MB11 TNTH  07070IMCT  S5 PTB  00004                    0830 SR        000000000000 DENSO TEN (THAILAND)180LPKL0052052                                                                                                                              *          20180317 IMCT                IMCT                                                                                                                    WMF1803174.TXT
MDDDJ3260085201803                D89828070100PV1D20180322000060SPEAKER ASM                   M IMCTM S5MB11 TNTH  07070IMCT  S5 PTB  00004                    1300 SR        000000000000 DENSO TEN (THAILAND)180LNEL0066066                                                                                                                              *          20180317 IMCT                IMCT                                                                                                                    WMF1803174.TXT
MDDDJ3260086201803                D89828070100PV1D20180322000060SPEAKER ASM                   M IMCTM S5MB11 TNTH  07070IMCT  S5 PTB  00004                    1600 SR        000000000000 DENSO TEN (THAILAND)180LNGL0103103                                                                                                                              *          20180317 IMCT                IMCT                                                                                                                    WMF1803174.TXT
MDDDJ3260087201803                D89828070100PV1D20180322000060SPEAKER ASM                   M IMCTM S5MB11 TNTH  07070IMCT  S5 PTB  00004                    2100 SR        000000000000 DENSO TEN (THAILAND)180LPLL0008008                                                                                                                              *          20180317 IMCT                IMCT                                                                                                                    WMF1803174.TXT
MDDDJ3260088201803                D89828070100PV4D20180322000060SPEAKER ASM                   M IMCTM S0FL05 TNTH  07070IMCT  S0 PTB  00004                    1600 SR        000000000000 DENSO TEN (THAILAND)180LRSU0041041                                                                                                                              *          20180317 IMCT                IMCT                                                                                                                    WMF1803174.TXT
MDDDJ3260089201803                D89828070200PV4D20180322000060SPEAKER ASM                   M IMCTM S0FR05 TNTH  07070IMCT  S0 PTB  00005                    1600 SR        000000000000 DENSO TEN (THAILAND)180LRSU0041041                                                                                                                              *          20180317 IMCT                IMCT                                                                                                                    WMF1803174.TXT
MDDDJ3260090201803                D89828070300PT1D20180321000060SPEAKER ASM                   M IMCTM S5NB082TNTH  07070IMCT  S5 PTB  00015                    2230 SR        000000000000 DENSO TEN (THAILAND)180LPFL0018018                                                                                                                              *          20180317 IMCT                IMCT                                                                                                                    WMF1803174.TXT
MDDDJ3260091201803                D89828070300PT1D20180322000060SPEAKER ASM                   M IMCTM S5NB082TNTH  07070IMCT  S5 PTB  00015                    0830 SR        000000000000 DENSO TEN (THAILAND)180LPKL0052052                                                                                                                              *          20180317 IMCT                IMCT                                                                                                                    WMF1803174.TXT
MDDDJ3260092201803                D89828070300PT1D20180322000060SPEAKER ASM                   M IMCTM S5NB082TNTH  07070IMCT  S5 PTB  00015                    2100 SR        000000000000 DENSO TEN (THAILAND)180LPLL0008008                                                                                                                              *          20180317 IMCT                IMCT                                                                                                                    WMF1803174.TXT
MDDDJ3260093201803                D89828070300PT4D20180322000060SPEAKER ASM                   M IMCTM S9TS02 TNTH  07070IMCT  S9 PTB  00015                    1600 SR        000000000000 DENSO TEN (THAILAND)180LRSU0041041                                                                                                                              *          20180317 IMCT                IMCT                                                                                                                    WMF1803174.TXT
MDDDJ3260094201803                D89831228300PT1D20180321000030RADIO;AM/FM,CD                M IMCTM S5NC06 TNTH  07070IMCT  S5 CPB  00003                    2230 SR        000000000000 DENSO TEN (THAILAND)180LPFL0018018                                                                                                                              *          20180317 IMCT                IMCT                                                                                                                    WMF1803174.TXT
MDDDJ3260095201803                D89848581600PT1D20180322000030RADIO;AM/FM CD D              M IMCTM S5NC06 TNTH  07070IMCT  S5 PTB  00003                    0830 SR        000000000000 DENSO TEN (THAILAND)180LPKL0052052                                                                                                                              *          20180317 IMCT                IMCT                                                                                                                    WMF1803174.TXT
MDDDJ3260096201803                D89848581600PT1D20180322000030RADIO;AM/FM CD D              M IMCTM S5NC06 TNTH  07070IMCT  S5 PTB  00003                    2100 SR        000000000000 DENSO TEN (THAILAND)180LPLL0008008                                                                                                                              *          20180317 IMCT                IMCT                                                                                                                    WMF1803174.TXT
MDDUJ3225500201803                D89828070100PT4U20180322000030SPEAKER ASM                   M IMCTM S0FL05 TNTH  07070IMCT  S0 PTB  00004                    0400 SR        000000000000 DENSO TEN (THAILAND)180LURU0036036                                                                                                                              *          20180317 IMCT                IMCT                                                                                                                    WMF1803174.TXT
MDDUJ3225501201803                D89828070100PT4U20180322000030SPEAKER ASM                   M IMCTM S0FL05 TNTH  07070IMCT  S0 PTB  00004                    1030 SR        000000000000 DENSO TEN (THAILAND)180LULU0022022                                                                                                                              *          20180317 IMCT                IMCT                                                                                                                    WMF1803174.TXT
MDDUJ3225502201803                D89828070100PT4U20180322000030SPEAKER ASM                   M IMCTM S0FL05 TNTH  07070IMCT  S0 PTB  00004                    1600 SR        000000000000 DENSO TEN (THAILAND)180LUNU0008008                                                                                                                              *          20180317 IMCT                IMCT                                                                                                                    WMF1803174.TXT
MDDUJ3225503201803                D89828070200PV4U20180322000030SPEAKER ASM                   M IMCTM S0FR05 TNTH  07070IMCT  S0 PTB  00005                    0400 SR        000000000000 DENSO TEN (THAILAND)180LURU0036036                                                                                                                              *          20180317 IMCT                IMCT                                                                                                                    WMF1803174.TXT
MDDUJ3225504201803                D89828070200PV4U20180322000030SPEAKER ASM                   M IMCTM S0FR05 TNTH  07070IMCT  S0 PTB  00005                    1030 SR        000000000000 DENSO TEN (THAILAND)180LULU0022022                                                                                                                              *          20180317 IMCT                IMCT                                                                                                                    WMF1803174.TXT
MDDUJ3225505201803                D89828070200PV4U20180322000030SPEAKER ASM                   M IMCTM S0FR05 TNTH  07070IMCT  S0 PTB  00005                    1600 SR        000000000000 DENSO TEN (THAILAND)180LUNU0008008                                                                                                                              *          20180317 IMCT                IMCT                                                                                                                    WMF1803174.TXT
MDDUJ3225506201803                D89828070300PT4U20180322000030SPEAKER ASM                   M IMCTM S9TS02 TNTH  07070IMCT  S9 PTB  00015                    0400 SR        000000000000 DENSO TEN (THAILAND)180LURU0036036                                                                                                                              *          20180317 IMCT                IMCT                                                                                                                    WMF1803174.TXT
MDDUJ3225507201803                D89828070300PT4U20180322000030SPEAKER ASM                   M IMCTM S9TS02 TNTH  07070IMCT  S9 PTB  00015                    1030 SR        000000000000 DENSO TEN (THAILAND)180LULU0022022                                                                                                                              *          20180317 IMCT                IMCT                                                                                                                    WMF1803174.TXT
MDDUJ3225508201803                D89828070300PT4U20180322000030SPEAKER ASM                   M IMCTM S9TS02 TNTH  07070IMCT  S9 PTB  00015                    1600 SR        000000000000 DENSO TEN (THAILAND)180LUNU0008008                                                                                                                              *          20180317 IMCT                IMCT                                                                                                                    WMF1803174.TXT
MDDUJ3225509201803                D89848584200PT4U20180322000015RADIO;AM/FM CD D              M IMCTM S9CO001TNTH  07070IMCT  S9 PTB  00003                    1600 SR        000000000000 DENSO TEN (THAILAND)180LUNU0008008                                                                                                                              *          20180317 IMCT                IMCT                                                                                                                    WMF1803174.TXT
MDEDJ3313050201803                D89828070100PV1D20180321000060SPEAKER ASM                   M IMCTM S5MB11 TNTH  07070IMCT  S5 PTB  00004                    2230 SR        000000000000 DENSO TEN (THAILAND)18074UL001801818080UL0020020                                                                                                                *          20180317 IMCT                IMCT                                                                                                                    WMF1803174.TXT
MDEDJ3313051201803                D89828070100PV1D20180322000030SPEAKER ASM                   M IMCTM S5MB11 TNTH  07070IMCT  S5 PTB  00004                    0230 SR        000000000000 DENSO TEN (THAILAND)18072UL0008008                                                                                                                              *          20180317 IMCT                IMCT                                                                                                                    WMF1803174.TXT
MDEDJ3313052201803                D89828070100PV1D20180322000060SPEAKER ASM                   M IMCTM S5MB11 TNTH  07070IMCT  S5 PTB  00004                    0400 SR        000000000000 DENSO TEN (THAILAND)18074XL000300318098UL0030030                                                                                                                *          20180317 IMCT                IMCT                                                                                                                    WMF1803174.TXT
MDEDJ3313053201803                D89828070100PV1D20180322000060SPEAKER ASM                   M IMCTM S5MB11 TNTH  07070IMCT  S5 PTB  00004                    0830 SR        000000000000 DENSO TEN (THAILAND)18063UL001201218098XL0008008                                                                                                                *          20180317 IMCT                IMCT                                                                                                                    WMF1803174.TXT
MDEDJ3313054201803                D89828070100PV1D20180322000030SPEAKER ASM                   M IMCTM S5MB11 TNTH  07070IMCT  S5 PTB  00004                    1030 SR        000000000000 DENSO TEN (THAILAND)18007YL0005005                                                                                                                              *          20180317 IMCT                IMCT                                                                                                                    WMF1803174.TXT
MDEDJ3313055201803                D89828070100PV1D20180322000060SPEAKER ASM                   M IMCTM S5MB11 TNTH  07070IMCT  S5 PTB  00004                    1300 SR        000000000000 DENSO TEN (THAILAND)18001YL000700718007YL0006006                                                                                                                *          20180317 IMCT                IMCT                                                                                                                    WMF1803174.TXT
MDEDJ3313056201803                D89828070100PV1D20180322000150SPEAKER ASM                   M IMCTM S5MB11 TNTH  07070IMCT  S5 PTB  00004                    1600 SR        000000000000 DENSO TEN (THAILAND)17022SL000200218001YL000800818074UL001902018098XL0009009                                                                                    *          20180317 IMCT                IMCT                                                                                                                    WMF1803174.TXT
MDEDJ3313057201803                D89828070100PV1D20180322000030SPEAKER ASM                   M IMCTM S5MB11 TNTH  07070IMCT  S5 PTB  00004                    2230 SR        000000000000 DENSO TEN (THAILAND)18008YL0006006                                                                                                                              *          20180317 IMCT                IMCT                                                                                                                    WMF1803174.TXT
MDEDJ3313058201803                D89828070100PV4D20180322000030SPEAKER ASM                   M IMCTM S0FL05 TNTH  07070IMCT  S0 PTB  00004                    0400 SR        000000000000 DENSO TEN (THAILAND)18067XU0003003                                                                                                                              *          20180317 IMCT                IMCT                                                                                                                    WMF1803174.TXT
MDEDJ3313059201803                D89828070100PV4D20180322000030SPEAKER ASM                   M IMCTM S0FL05 TNTH  07070IMCT  S0 PTB  00004                    1300 SR        000000000000 DENSO TEN (THAILAND)18067XU0004004                                                                                                                              *          20180317 IMCT                IMCT                                                                                                                    WMF1803174.TXT
MDEDJ3313060201803                D89828070200PV1D20180321000030SPEAKER ASM                   M IMCTM S5MA14 TNTH  07070IMCT  S5 PTB  00005                    2230 SR        000000000000 DENSO TEN (THAILAND)18080UL0020020                                                                                                                              *          20180317 IMCT                IMCT                                                                                                                    WMF1803174.TXT
MDEDJ3313061201803                D89828070200PV1D20180322000030SPEAKER ASM                   M IMCTM S5MA14 TNTH  07070IMCT  S5 PTB  00005                    0400 SR        000000000000 DENSO TEN (THAILAND)18098UL0030030                                                                                                                              *          20180317 IMCT                IMCT                                                                                                                    WMF1803174.TXT
MDEDJ3313062201803                D89828070200PV1D20180322000030SPEAKER ASM                   M IMCTM S5MA14 TNTH  07070IMCT  S5 PTB  00005                    0830 SR        000000000000 DENSO TEN (THAILAND)18098XL0008008                                                                                                                              *          20180317 IMCT                IMCT                                                                                                                    WMF1803174.TXT
MDEDJ3313063201803                D89828070200PV1D20180322000030SPEAKER ASM                   M IMCTM S5MA14 TNTH  07070IMCT  S5 PTB  00005                    1030 SR        000000000000 DENSO TEN (THAILAND)18007YL0005005                                                                                                                              *          20180317 IMCT                IMCT                                                                                                                    WMF1803174.TXT
MDEDJ3313064201803                D89828070200PV1D20180322000060SPEAKER ASM                   M IMCTM S5MA14 TNTH  07070IMCT  S5 PTB  00005                    1300 SR        000000000000 DENSO TEN (THAILAND)18001YL000700718007YL0006006                                                                                                                *          20180317 IMCT                IMCT                                                                                                                    WMF1803174.TXT
MDEDJ3313065201803                D89828070200PV1D20180322000090SPEAKER ASM                   M IMCTM S5MA14 TNTH  07070IMCT  S5 PTB  00005                    1600 SR        000000000000 DENSO TEN (THAILAND)17022SL000200218001YL000800818098XL0009009                                                                                                  *          20180317 IMCT                IMCT                                                                                                                    WMF1803174.TXT
MDEDJ3313066201803                D89828070200PV1D20180322000030SPEAKER ASM                   M IMCTM S5MA14 TNTH  07070IMCT  S5 PTB  00005                    2230 SR        000000000000 DENSO TEN (THAILAND)18008YL0006006                                                                                                                              *          20180317 IMCT                IMCT                                                                                                                    WMF1803174.TXT
MDEDJ3313067201803                D89828070200PV4D20180322000030SPEAKER ASM                   M IMCTM S0FR05 TNTH  07070IMCT  S0 PTB  00005                    0400 SR        000000000000 DENSO TEN (THAILAND)18067XU0003003                                                                                                                              *          20180317 IMCT                IMCT                                                                                                                    WMF1803174.TXT
MDEDJ3313068201803                D89828070200PV4D20180322000030SPEAKER ASM                   M IMCTM S0FR05 TNTH  07070IMCT  S0 PTB  00005                    1300 SR        000000000000 DENSO TEN (THAILAND)18067XU0004004                                                                                                                              *          20180317 IMCT                IMCT                                                                                                                    WMF1803174.TXT
MDEDJ3313069201803                D89828070300PT1D20180321000060SPEAKER ASM                   M IMCTM S5NB082TNTH  07070IMCT  S5 PTB  00015                    2230 SR        000000000000 DENSO TEN (THAILAND)18074UL001801818080UL0020020                                                                                                                *          20180317 IMCT                IMCT                                                                                                                    WMF1803174.TXT
MDEDJ3313070201803                D89828070300PT1D20180322000030SPEAKER ASM                   M IMCTM S5NB082TNTH  07070IMCT  S5 PTB  00015                    0230 SR        000000000000 DENSO TEN (THAILAND)18072UL0008008                                                                                                                              *          20180317 IMCT                IMCT                                                                                                                    WMF1803174.TXT
MDEDJ3313071201803                D89828070300PT1D20180322000030SPEAKER ASM                   M IMCTM S5NB082TNTH  07070IMCT  S5 PTB  00015                    0400 SR        000000000000 DENSO TEN (THAILAND)18098UL0030030                                                                                                                              *          20180317 IMCT                IMCT                                                                                                                    WMF1803174.TXT
MDEDJ3313072201803                D89828070300PT1D20180322000060SPEAKER ASM                   M IMCTM S5NB082TNTH  07070IMCT  S5 PTB  00015                    0830 SR        000000000000 DENSO TEN (THAILAND)18063UL001201218098XL0008008                                                                                                                *          20180317 IMCT                IMCT                                                                                                                    WMF1803174.TXT
MDEDJ3313073201803                D89828070300PT1D20180322000030SPEAKER ASM                   M IMCTM S5NB082TNTH  07070IMCT  S5 PTB  00015                    1030 SR        000000000000 DENSO TEN (THAILAND)18007YL0005005                                                                                                                              *          20180317 IMCT                IMCT                                                                                                                    WMF1803174.TXT
MDEDJ3313074201803                D89828070300PT1D20180322000060SPEAKER ASM                   M IMCTM S5NB082TNTH  07070IMCT  S5 PTB  00015                    1300 SR        000000000000 DENSO TEN (THAILAND)18001YL000700718007YL0006006                                                                                                                *          20180317 IMCT                IMCT                                                                                                                    WMF1803174.TXT
MDEDJ3313075201803                D89828070300PT1D20180322000150SPEAKER ASM                   M IMCTM S5NB082TNTH  07070IMCT  S5 PTB  00015                    1600 SR        000000000000 DENSO TEN (THAILAND)17022SL000200218001YL000800818074UL001902018098XL0009009                                                                                    *          20180317 IMCT                IMCT                                                                                                                    WMF1803174.TXT
MDEDJ3313076201803                D89828070300PT1D20180322000030SPEAKER ASM                   M IMCTM S5NB082TNTH  07070IMCT  S5 PTB  00015                    2230 SR        000000000000 DENSO TEN (THAILAND)18008YL0006006                                                                                                                              *          20180317 IMCT                IMCT                                                                                                                    WMF1803174.TXT
MDEDJ3313077201803                D89828070300PT4D20180322000030SPEAKER ASM                   M IMCTM S9TS02 TNTH  07070IMCT  S9 PTB  00015                    0400 SR        000000000000 DENSO TEN (THAILAND)18067XU0003003                                                                                                                              *          20180317 IMCT                IMCT                                                                                                                    WMF1803174.TXT
MDEDJ3313078201803                D89828070300PT4D20180322000030SPEAKER ASM                   M IMCTM S9TS02 TNTH  07070IMCT  S9 PTB  00015                    1300 SR        000000000000 DENSO TEN (THAILAND)18067XU0004004                                                                                                                              *          20180317 IMCT                IMCT                                                                                                                    WMF1803174.TXT
MDEDJ3313079201803                D89848581800PT1D20180321000015RADIO;AM/FM CD D              M IMCTM S5NC06 TNTH  07070IMCT  S5 PTB  00003                    2230 SR        000000000000 DENSO TEN (THAILAND)18080UL0020020                                                                                                                              *          20180317 IMCT                IMCT                                                                                                                    WMF1803174.TXT
MDEDJ3313080201803                D89848581800PT1D20180322000015RADIO;AM/FM CD D              M IMCTM S5NC06 TNTH  07070IMCT  S5 PTB  00003                    0230 SR        000000000000 DENSO TEN (THAILAND)18072UL0008008                                                                                                                              *          20180317 IMCT                IMCT                                                                                                                    WMF1803174.TXT
MDEDJ3313081201803                D89848581800PT1D20180322000015RADIO;AM/FM CD D              M IMCTM S5NC06 TNTH  07070IMCT  S5 PTB  00003                    0400 SR        000000000000 DENSO TEN (THAILAND)18098UL0030030                                                                                                                              *          20180317 IMCT                IMCT                                                                                                                    WMF1803174.TXT
MDEDJ3313082201803                D89848581800PT1D20180322000015RADIO;AM/FM CD D              M IMCTM S5NC06 TNTH  07070IMCT  S5 PTB  00003                    0830 SR        000000000000 DENSO TEN (THAILAND)18063UL0012012                                                                                                                              *          20180317 IMCT                IMCT                                                                                                                    WMF1803174.TXT
MDEDJ3313083201803                D89848582100PT1D20180322000015RADIO;AM/FM CD D              M IMCTM S5NC06 TNTH  07070IMCT  S5 PTB  00003                    0830 SR        000000000000 DENSO TEN (THAILAND)18098XL0008008                                                                                                                              *          20180317 IMCT                IMCT                                                                                                                    WMF1803174.TXT
MDEDJ3313084201803                D89848582100PT1D20180322000015RADIO;AM/FM CD D              M IMCTM S5NC06 TNTH  07070IMCT  S5 PTB  00003                    1600 SR        000000000000 DENSO TEN (THAILAND)18098XL0009009                                                                                                                              *          20180317 IMCT                IMCT                                                                                                                    WMF1803174.TXT
MDEDJ3313085201803                D89848582500PT1D20180321000015RADIO;AM/FM CD D              M IMCTM S5NC06 TNTH  07070IMCT  S5 PTB  00003                    2230 SR        000000000000 DENSO TEN (THAILAND)18074UL0018018                                                                                                                              *          20180317 IMCT                IMCT                                                                                                                    WMF1803174.TXT
MDEDJ3313086201803                D89848582500PT1D20180322000030RADIO;AM/FM CD D              M IMCTM S5NC06 TNTH  07070IMCT  S5 PTB  00003                    1600 SR        000000000000 DENSO TEN (THAILAND)18074UL0019020                                                                                                                              *          20180317 IMCT                IMCT                                                                                                                    WMF1803174.TXT
MDEUJ3280214201803                D89828070100PT4U20180321000030SPEAKER ASM                   M IMCTM S0FL05 TNTH  07070IMCT  S0 PTB  00004                    2230 SR        000000000000 DENSO TEN (THAILAND)18029UU0005005                                                                                                                              *          20180317 IMCT                IMCT                                                                                                                    WMF1803174.TXT
MDEUJ3280215201803                D89828070100PT4U20180322000030SPEAKER ASM                   M IMCTM S0FL05 TNTH  07070IMCT  S0 PTB  00004                    0230 SR        000000000000 DENSO TEN (THAILAND)18026UU0209209                                                                                                                              *          20180317 IMCT                IMCT                                                                                                                    WMF1803174.TXT
MDEUJ3280216201803                D89828070100PT4U20180322000060SPEAKER ASM                   M IMCTM S0FL05 TNTH  07070IMCT  S0 PTB  00004                    0830 SR        000000000000 DENSO TEN (THAILAND)18024UU003603618026UU0210210                                                                                                                *          20180317 IMCT                IMCT                                                                                                                    WMF1803174.TXT
MDEUJ3280217201803                D89828070100PT4U20180322000030SPEAKER ASM                   M IMCTM S0FL05 TNTH  07070IMCT  S0 PTB  00004                    1300 SR        000000000000 DENSO TEN (THAILAND)18029UU0006006                                                                                                                              *          20180317 IMCT                IMCT                                                                                                                    WMF1803174.TXT
MDEUJ3280218201803                D89828070100PT4U20180322000060SPEAKER ASM                   M IMCTM S0FL05 TNTH  07070IMCT  S0 PTB  00004                    1600 SR        000000000000 DENSO TEN (THAILAND)18026UU0211212                                                                                                                              *          20180317 IMCT                IMCT                                                                                                                    WMF1803174.TXT
MDEUJ3280219201803                D89828070100PT4U20180322000030SPEAKER ASM                   M IMCTM S0FL05 TNTH  07070IMCT  S0 PTB  00004                    2100 SR        000000000000 DENSO TEN (THAILAND)18025UU0053053                                                                                                                              *          20180317 IMCT                IMCT                                                                                                                    WMF1803174.TXT
MDEUJ3280220201803                D89828070100PT4U20180322000030SPEAKER ASM                   M IMCTM S0FL05 TNTH  07070IMCT  S0 PTB  00004                    2230 SR        000000000000 DENSO TEN (THAILAND)18026UU0213213                                                                                                                              *          20180317 IMCT                IMCT                                                                                                                    WMF1803174.TXT
MDEUJ3280221201803                D89828070200PV4U20180321000030SPEAKER ASM                   M IMCTM S0FR05 TNTH  07070IMCT  S0 PTB  00005                    2230 SR        000000000000 DENSO TEN (THAILAND)18029UU0005005                                                                                                                              *          20180317 IMCT                IMCT                                                                                                                    WMF1803174.TXT
MDEUJ3280222201803                D89828070200PV4U20180322000030SPEAKER ASM                   M IMCTM S0FR05 TNTH  07070IMCT  S0 PTB  00005                    0230 SR        000000000000 DENSO TEN (THAILAND)18026UU0209209                                                                                                                              *          20180317 IMCT                IMCT                                                                                                                    WMF1803174.TXT
MDEUJ3280223201803                D89828070200PV4U20180322000060SPEAKER ASM                   M IMCTM S0FR05 TNTH  07070IMCT  S0 PTB  00005                    0830 SR        000000000000 DENSO TEN (THAILAND)18024UU003603618026UU0210210                                                                                                                *          20180317 IMCT                IMCT                                                                                                                    WMF1803174.TXT
MDEUJ3280224201803                D89828070200PV4U20180322000030SPEAKER ASM                   M IMCTM S0FR05 TNTH  07070IMCT  S0 PTB  00005                    1300 SR        000000000000 DENSO TEN (THAILAND)18029UU0006006                                                                                                                              *          20180317 IMCT                IMCT                                                                                                                    WMF1803174.TXT
MDEUJ3280225201803                D89828070200PV4U20180322000060SPEAKER ASM                   M IMCTM S0FR05 TNTH  07070IMCT  S0 PTB  00005                    1600 SR        000000000000 DENSO TEN (THAILAND)18026UU0211212                                                                                                                              *          20180317 IMCT                IMCT                                                                                                                    WMF1803174.TXT
MDEUJ3280226201803                D89828070200PV4U20180322000030SPEAKER ASM                   M IMCTM S0FR05 TNTH  07070IMCT  S0 PTB  00005                    2100 SR        000000000000 DENSO TEN (THAILAND)18025UU0053053                                                                                                                              *          20180317 IMCT                IMCT                                                                                                                    WMF1803174.TXT
MDEUJ3280227201803                D89828070200PV4U20180322000030SPEAKER ASM                   M IMCTM S0FR05 TNTH  07070IMCT  S0 PTB  00005                    2230 SR        000000000000 DENSO TEN (THAILAND)18026UU0213213                                                                                                                              *          20180317 IMCT                IMCT                                                                                                                    WMF1803174.TXT
MDEUJ3280228201803                D89828070300PT4U20180321000030SPEAKER ASM                   M IMCTM S9TS02 TNTH  07070IMCT  S9 PTB  00015                    2230 SR        000000000000 DENSO TEN (THAILAND)18029UU0005005                                                                                                                              *          20180317 IMCT                IMCT                                                                                                                    WMF1803174.TXT
MDEUJ3280229201803                D89828070300PT4U20180322000030SPEAKER ASM                   M IMCTM S9TS02 TNTH  07070IMCT  S9 PTB  00015                    0230 SR        000000000000 DENSO TEN (THAILAND)18026UU0209209                                                                                                                              *          20180317 IMCT                IMCT                                                                                                                    WMF1803174.TXT
MDEUJ3280230201803                D89828070300PT4U20180322000060SPEAKER ASM                   M IMCTM S9TS02 TNTH  07070IMCT  S9 PTB  00015                    0830 SR        000000000000 DENSO TEN (THAILAND)18024UU003603618026UU0210210                                                                                                                *          20180317 IMCT                IMCT                                                                                                                    WMF1803174.TXT
MDEUJ3280231201803                D89828070300PT4U20180322000030SPEAKER ASM                   M IMCTM S9TS02 TNTH  07070IMCT  S9 PTB  00015                    1300 SR        000000000000 DENSO TEN (THAILAND)18029UU0006006                                                                                                                              *          20180317 IMCT                IMCT                                                                                                                    WMF1803174.TXT
MDEUJ3280232201803                D89828070300PT4U20180322000060SPEAKER ASM                   M IMCTM S9TS02 TNTH  07070IMCT  S9 PTB  00015                    1600 SR        000000000000 DENSO TEN (THAILAND)18026UU0211212                                                                                                                              *          20180317 IMCT                IMCT                                                                                                                    WMF1803174.TXT
MDEUJ3280233201803                D89828070300PT4U20180322000030SPEAKER ASM                   M IMCTM S9TS02 TNTH  07070IMCT  S9 PTB  00015                    2100 SR        000000000000 DENSO TEN (THAILAND)18025UU0053053                                                                                                                              *          20180317 IMCT                IMCT                                                                                                                    WMF1803174.TXT
MDEUJ3280234201803                D89828070300PT4U20180322000030SPEAKER ASM                   M IMCTM S9TS02 TNTH  07070IMCT  S9 PTB  00015                    2230 SR        000000000000 DENSO TEN (THAILAND)18026UU0213213                                                                                                                              *          20180317 IMCT                IMCT                                                                                                                    WMF1803174.TXT
