REC2018031020180310ISUZU                              17     
MDEFJ3T11529201803                D89828070100PV4F20180315000022SPEAKER ASM                   M IMCTM S7FL05 TNTH  07070IMCT  S7 PTB  00004                    2100 SR        000000000000 DENSO TEN (THAILAND)18007XR0008   18098WR0003   F180303805    F180303815    000000                                                                              *R         20180310 IMCT                IMCT                                                                                                                    RMF1803104.TXT
MDEFJ3T11530201803                D89828070200PV4F20180315000020SPEAKER ASM                   M IMCTM S7FL05 TNTH  07070IMCT  S7 PTB  00005                    0830 SR        000000000000 DENSO TEN (THAILAND)17028QR0107   17035SR0063   D180303706    D180303715    000000                                                                              *R         20180310 IMCT                IMCT                                                                                                                    RMF1803104.TXT
MDEFJ3T11531201803                D89828070300PT4F20180315000014SPEAKER ASM                   M IMCTM S7TS02 TNTH  07070IMCT  S7 PTB  00015                    2100 SR        000000000000 DENSO TEN (THAILAND)18007XR0009   18014XR0005   F180303806    F180303812    000000                                                                              *R         20180310 IMCT                IMCT                                                                                                                    RMF1803104.TXT
MDEFJ3T11532201803                D89831229200PT4F20180315000001RADIO;AM/FM,CD                M IMCTM S7TS03 TNTH  07070IMCT  S7 PTB  00003                    0830 SR        000000000000 DENSO TEN (THAILAND)17028QR0107   17028QR0107   D180303706    D180303706    000000                                                                              *R         20180310 IMCT                IMCT                                                                                                                    RMF1803104.TXT
MDEFJ3T11533201803                D89848582100PT4F20180315000005RADIO;AM/FM CD D              M IMCTM S7TS01 TNTH  07070IMCT  S7 PTB  00003                    0400 SR        000000000000 DENSO TEN (THAILAND)18006YR0001   18006YR0005   D180303701    D180303705    000000                                                                              *R         20180310 IMCT                IMCT                                                                                                                    RMF1803104.TXT
MDEFJ3T11534201803                D89848582800PT4F20180315000008RADIO;AM/FM CD D              M IMCTM S7TS01 TNTH  07070IMCT  S7 PTB  00003                    2100 SR        000000000000 DENSO TEN (THAILAND)18007XR0008   18014XR0005   F180303805    F180303812    000000                                                                              *R         20180310 IMCT                IMCT                                                                                                                    RMF1803104.TXT
MDEFJ3229225201803                D89828070100PV4F20180314000012SPEAKER ASM                   M IMCTM S7FL05 TNTH  07070IMCT  S7 PTB  00004                    2100 SR        000000000000 DENSO TEN (THAILAND)18008YR0001   18008YR0006   D180303601    D180303606    000000                                                                              *R         20180310 IMCT                IMCT                                                                                                                    RMF1803104.TXT
MDEFJ3229226201803                D89828070100PV4F20180314000020SPEAKER ASM                   M IMCTM S7FL05 TNTH  07070IMCT  S7 PTB  00004                    2230 SR        000000000000 DENSO TEN (THAILAND)18008YR0007   18006YR0001   D180303607    D180303701    000000                                                                              *R         20180310 IMCT                IMCT                                                                                                                    RMF1803104.TXT
MDEFJ3229227201803                D89828070100PV4F20180315000008SPEAKER ASM                   M IMCTM S7FL05 TNTH  07070IMCT  S7 PTB  00004                    0400 SR        000000000000 DENSO TEN (THAILAND)18006YR0002   18006YR0005   D180303702    D180303705    000000                                                                              *R         20180310 IMCT                IMCT                                                                                                                    RMF1803104.TXT
MDEFJ3229228201803                D89828070100PV4F20180315000020SPEAKER ASM                   M IMCTM S7FL05 TNTH  07070IMCT  S7 PTB  00004                    0830 SR        000000000000 DENSO TEN (THAILAND)17028QR0107   17035SR0063   D180303706    D180303715    000000                                                                              *R         20180310 IMCT                IMCT                                                                                                                    RMF1803104.TXT
MDEFJ3229229201803                D89828070100PV4F20180315000008SPEAKER ASM                   M IMCTM S7FL05 TNTH  07070IMCT  S7 PTB  00004                    1600 SR        000000000000 DENSO TEN (THAILAND)18011XR0001   18018XR0001   F180303801    F180303804    000000                                                                              *R         20180310 IMCT                IMCT                                                                                                                    RMF1803104.TXT
MDEFJ3229230201803                D89828070200PV4F20180314000015SPEAKER ASM                   M IMCTM S7FL05 TNTH  07070IMCT  S7 PTB  00005                    2100 SR        000000000000 DENSO TEN (THAILAND)18008YR0001   18008YR0008   D180303601    D180303608    000000                                                                              *R         20180310 IMCT                IMCT                                                                                                                    RMF1803104.TXT
MDEFJ3229231201803                D89828070200PV4F20180314000005SPEAKER ASM                   M IMCTM S7FL05 TNTH  07070IMCT  S7 PTB  00005                    2230 SR        000000000000 DENSO TEN (THAILAND)18008YR0008   18008YR0010   D180303608    D180303610    000000                                                                              *R         20180310 IMCT                IMCT                                                                                                                    RMF1803104.TXT
MDEFJ3229232201803                D89828070200PV4F20180315000010SPEAKER ASM                   M IMCTM S7FL05 TNTH  07070IMCT  S7 PTB  00005                    0400 SR        000000000000 DENSO TEN (THAILAND)18006YR0001   18006YR0005   D180303701    D180303705    000000                                                                              *R         20180310 IMCT                IMCT                                                                                                                    RMF1803104.TXT
MDEFJ3229233201803                D89828070300PT4F20180314000015SPEAKER ASM                   M IMCTM S7TS02 TNTH  07070IMCT  S7 PTB  00015                    2100 SR        000000000000 DENSO TEN (THAILAND)18008YR0001   18008YR0008   D180303601    D180303608    000000                                                                              *R         20180310 IMCT                IMCT                                                                                                                    RMF1803104.TXT
MDEFJ3229234201803                D89828070300PT4F20180314000015SPEAKER ASM                   M IMCTM S7TS02 TNTH  07070IMCT  S7 PTB  00015                    2230 SR        000000000000 DENSO TEN (THAILAND)18008YR0008   18006YR0005   D180303608    D180303705    000000                                                                              *R         20180310 IMCT                IMCT                                                                                                                    RMF1803104.TXT
MDEFJ3229235201803                D89828070300PT4F20180315000030SPEAKER ASM                   M IMCTM S7TS02 TNTH  07070IMCT  S7 PTB  00015                    0830 SR        000000000000 DENSO TEN (THAILAND)17028QR0107   18007XR0008   D180303706    F180303805    000000                                                                              *R         20180310 IMCT                IMCT                                                                                                                    RMF1803104.TXT
