REC2018031520180315ISUZU                              73     
MDDDJ3252034201803                D89821984430PT1D20180320000030RADIO;AM/FM,CD                M IMCTM S5NC06 TNTH  07070IMCT  S5 PTB  00005                    1300 SR        000000000000 DENSO TEN (THAILAND)180LXCL0015015                                                                                                                              *          20180315 IMCT                IMCT                                                                                                                    WMF1803158.TXT
MDDDJ3252035201803                D89821984430PT1D20180320000030RADIO;AM/FM,CD                M IMCTM S5NC06 TNTH  07070IMCT  S5 PTB  00005                    1600 SR        000000000000 DENSO TEN (THAILAND)180LXEL0020020                                                                                                                              *          20180315 IMCT                IMCT                                                                                                                    WMF1803158.TXT
MDDDJ3252036201803                D89828070100PV1D20180319000060SPEAKER ASM                   M IMCTM S5MB11 TNTH  07070IMCT  S5 PTB  00004                    2230 SR        000000000000 DENSO TEN (THAILAND)180LPFL0017017                                                                                                                              *          20180315 IMCT                IMCT                                                                                                                    WMF1803158.TXT
MDDDJ3252037201803                D89828070100PV1D20180320000060SPEAKER ASM                   M IMCTM S5MB11 TNTH  07070IMCT  S5 PTB  00004                    0830 SR        000000000000 DENSO TEN (THAILAND)180LPKL0051051                                                                                                                              *          20180315 IMCT                IMCT                                                                                                                    WMF1803158.TXT
MDDDJ3252038201803                D89828070100PV1D20180320000060SPEAKER ASM                   M IMCTM S5MB11 TNTH  07070IMCT  S5 PTB  00004                    1030 SR        000000000000 DENSO TEN (THAILAND)180LPML0016016                                                                                                                              *          20180315 IMCT                IMCT                                                                                                                    WMF1803158.TXT
MDDDJ3252039201803                D89828070100PV1D20180320000060SPEAKER ASM                   M IMCTM S5MB11 TNTH  07070IMCT  S5 PTB  00004                    1300 SR        000000000000 DENSO TEN (THAILAND)180LXCL0015015                                                                                                                              *          20180315 IMCT                IMCT                                                                                                                    WMF1803158.TXT
MDDDJ3252040201803                D89828070100PV1D20180320000060SPEAKER ASM                   M IMCTM S5MB11 TNTH  07070IMCT  S5 PTB  00004                    1600 SR        000000000000 DENSO TEN (THAILAND)180LXEL0020020                                                                                                                              *          20180315 IMCT                IMCT                                                                                                                    WMF1803158.TXT
MDDDJ3252041201803                D89828070100PV1D20180320000060SPEAKER ASM                   M IMCTM S5MB11 TNTH  07070IMCT  S5 PTB  00004                    2100 SR        000000000000 DENSO TEN (THAILAND)180LPDL0008008                                                                                                                              *          20180315 IMCT                IMCT                                                                                                                    WMF1803158.TXT
MDDDJ3252042201803                D89828070100PV4D20180320000060SPEAKER ASM                   M IMCTM S0FL05 TNTH  07070IMCT  S0 PTB  00004                    2100 SR        000000000000 DENSO TEN (THAILAND)180LRNU0001001                                                                                                                              *          20180315 IMCT                IMCT                                                                                                                    WMF1803158.TXT
MDDDJ3252043201803                D89828070200PV4D20180320000060SPEAKER ASM                   M IMCTM S0FR05 TNTH  07070IMCT  S0 PTB  00005                    2100 SR        000000000000 DENSO TEN (THAILAND)180LRNU0001001                                                                                                                              *          20180315 IMCT                IMCT                                                                                                                    WMF1803158.TXT
MDDDJ3252044201803                D89828070300PT1D20180319000060SPEAKER ASM                   M IMCTM S5NB082TNTH  07070IMCT  S5 PTB  00015                    2230 SR        000000000000 DENSO TEN (THAILAND)180LPFL0017017                                                                                                                              *          20180315 IMCT                IMCT                                                                                                                    WMF1803158.TXT
MDDDJ3252045201803                D89828070300PT1D20180320000060SPEAKER ASM                   M IMCTM S5NB082TNTH  07070IMCT  S5 PTB  00015                    0830 SR        000000000000 DENSO TEN (THAILAND)180LPKL0051051                                                                                                                              *          20180315 IMCT                IMCT                                                                                                                    WMF1803158.TXT
MDDDJ3252046201803                D89828070300PT1D20180320000060SPEAKER ASM                   M IMCTM S5NB082TNTH  07070IMCT  S5 PTB  00015                    1030 SR        000000000000 DENSO TEN (THAILAND)180LPML0016016                                                                                                                              *          20180315 IMCT                IMCT                                                                                                                    WMF1803158.TXT
MDDDJ3252047201803                D89828070300PT1D20180320000060SPEAKER ASM                   M IMCTM S5NB082TNTH  07070IMCT  S5 PTB  00015                    2100 SR        000000000000 DENSO TEN (THAILAND)180LPDL0008008                                                                                                                              *          20180315 IMCT                IMCT                                                                                                                    WMF1803158.TXT
MDDDJ3252048201803                D89828070300PT4D20180320000060SPEAKER ASM                   M IMCTM S9TS02 TNTH  07070IMCT  S9 PTB  00015                    2100 SR        000000000000 DENSO TEN (THAILAND)180LRNU0001001                                                                                                                              *          20180315 IMCT                IMCT                                                                                                                    WMF1803158.TXT
MDDDJ3252049201803                D89831228300PT1D20180319000030RADIO;AM/FM,CD                M IMCTM S5NC06 TNTH  07070IMCT  S5 CPB  00003                    2230 SR        000000000000 DENSO TEN (THAILAND)180LPFL0017017                                                                                                                              *          20180315 IMCT                IMCT                                                                                                                    WMF1803158.TXT
MDDDJ3252050201803                D89831228300PT1D20180320000030RADIO;AM/FM,CD                M IMCTM S5NC06 TNTH  07070IMCT  S5 CPB  00003                    2100 SR        000000000000 DENSO TEN (THAILAND)180LPDL0008008                                                                                                                              *          20180315 IMCT                IMCT                                                                                                                    WMF1803158.TXT
MDDDJ3252051201803                D89848581600PT1D20180320000030RADIO;AM/FM CD D              M IMCTM S5NC06 TNTH  07070IMCT  S5 PTB  00003                    0830 SR        000000000000 DENSO TEN (THAILAND)180LPKL0051051                                                                                                                              *          20180315 IMCT                IMCT                                                                                                                    WMF1803158.TXT
MDDUJ3221485201803                D89828070100PT4U20180320000030SPEAKER ASM                   M IMCTM S0FL05 TNTH  07070IMCT  S0 PTB  00004                    0400 SR        000000000000 DENSO TEN (THAILAND)180LULU0020020                                                                                                                              *          20180315 IMCT                IMCT                                                                                                                    WMF1803158.TXT
MDDUJ3221486201803                D89828070100PT4U20180320000030SPEAKER ASM                   M IMCTM S0FL05 TNTH  07070IMCT  S0 PTB  00004                    1600 SR        000000000000 DENSO TEN (THAILAND)180LUPU0013013                                                                                                                              *          20180315 IMCT                IMCT                                                                                                                    WMF1803158.TXT
MDDUJ3221487201803                D89828070100PT4U20180320000030SPEAKER ASM                   M IMCTM S0FL05 TNTH  07070IMCT  S0 PTB  00004                    2230 SR        000000000000 DENSO TEN (THAILAND)180LURU0034034                                                                                                                              *          20180315 IMCT                IMCT                                                                                                                    WMF1803158.TXT
MDDUJ3221488201803                D89828070200PV4U20180320000030SPEAKER ASM                   M IMCTM S0FR05 TNTH  07070IMCT  S0 PTB  00005                    0400 SR        000000000000 DENSO TEN (THAILAND)180LULU0020020                                                                                                                              *          20180315 IMCT                IMCT                                                                                                                    WMF1803158.TXT
MDDUJ3221489201803                D89828070200PV4U20180320000030SPEAKER ASM                   M IMCTM S0FR05 TNTH  07070IMCT  S0 PTB  00005                    1600 SR        000000000000 DENSO TEN (THAILAND)180LUPU0013013                                                                                                                              *          20180315 IMCT                IMCT                                                                                                                    WMF1803158.TXT
MDDUJ3221490201803                D89828070200PV4U20180320000030SPEAKER ASM                   M IMCTM S0FR05 TNTH  07070IMCT  S0 PTB  00005                    2230 SR        000000000000 DENSO TEN (THAILAND)180LURU0034034                                                                                                                              *          20180315 IMCT                IMCT                                                                                                                    WMF1803158.TXT
MDDUJ3221491201803                D89828070300PT4U20180320000030SPEAKER ASM                   M IMCTM S9TS02 TNTH  07070IMCT  S9 PTB  00015                    0400 SR        000000000000 DENSO TEN (THAILAND)180LULU0020020                                                                                                                              *          20180315 IMCT                IMCT                                                                                                                    WMF1803158.TXT
MDDUJ3221492201803                D89828070300PT4U20180320000030SPEAKER ASM                   M IMCTM S9TS02 TNTH  07070IMCT  S9 PTB  00015                    1600 SR        000000000000 DENSO TEN (THAILAND)180LUPU0013013                                                                                                                              *          20180315 IMCT                IMCT                                                                                                                    WMF1803158.TXT
MDDUJ3221493201803                D89828070300PT4U20180320000030SPEAKER ASM                   M IMCTM S9TS02 TNTH  07070IMCT  S9 PTB  00015                    2230 SR        000000000000 DENSO TEN (THAILAND)180LURU0034034                                                                                                                              *          20180315 IMCT                IMCT                                                                                                                    WMF1803158.TXT
MDDUJ3221494201803                D89831228400PT4U20180320000015RADIO;AM/FM,CD                M IMCTM S9CO001TNTH  07070IMCT  S9 CPB  00003                    1600 SR        000000000000 DENSO TEN (THAILAND)180LUPU0013013                                                                                                                              *          20180315 IMCT                IMCT                                                                                                                    WMF1803158.TXT
MDEDJ3296453201803                D89828070100PV1D20180319000060SPEAKER ASM                   M IMCTM S5MB11 TNTH  07070IMCT  S5 PTB  00004                    2230 SR        000000000000 DENSO TEN (THAILAND)18001VL001901918065XL0003003                                                                                                                *          20180315 IMCT                IMCT                                                                                                                    WMF1803158.TXT
MDEDJ3296454201803                D89828070100PV1D20180320000060SPEAKER ASM                   M IMCTM S5MB11 TNTH  07070IMCT  S5 PTB  00004                    0230 SR        000000000000 DENSO TEN (THAILAND)18001YL000500518068UL0004004                                                                                                                *          20180315 IMCT                IMCT                                                                                                                    WMF1803158.TXT
MDEDJ3296455201803                D89828070100PV1D20180320000090SPEAKER ASM                   M IMCTM S5MB11 TNTH  07070IMCT  S5 PTB  00004                    0400 SR        000000000000 DENSO TEN (THAILAND)18068UL000500518079UL000300318098XL0005005                                                                                                  *          20180315 IMCT                IMCT                                                                                                                    WMF1803158.TXT
MDEDJ3296456201803                D89828070100PV1D20180320000030SPEAKER ASM                   M IMCTM S5MB11 TNTH  07070IMCT  S5 PTB  00004                    0830 SR        000000000000 DENSO TEN (THAILAND)18099UL0043043                                                                                                                              *          20180315 IMCT                IMCT                                                                                                                    WMF1803158.TXT
MDEDJ3296457201803                D89828070100PV1D20180320000030SPEAKER ASM                   M IMCTM S5MB11 TNTH  07070IMCT  S5 PTB  00004                    1030 SR        000000000000 DENSO TEN (THAILAND)18099UL0044044                                                                                                                              *          20180315 IMCT                IMCT                                                                                                                    WMF1803158.TXT
MDEDJ3296458201803                D89828070100PV1D20180320000060SPEAKER ASM                   M IMCTM S5MB11 TNTH  07070IMCT  S5 PTB  00004                    1300 SR        000000000000 DENSO TEN (THAILAND)18099UL0045046                                                                                                                              *          20180315 IMCT                IMCT                                                                                                                    WMF1803158.TXT
MDEDJ3296459201803                D89828070100PV1D20180320000120SPEAKER ASM                   M IMCTM S5MB11 TNTH  07070IMCT  S5 PTB  00004                    1600 SR        000000000000 DENSO TEN (THAILAND)18001VL002002118098UL0025026                                                                                                                *          20180315 IMCT                IMCT                                                                                                                    WMF1803158.TXT
MDEDJ3296460201803                D89828070100PV4D20180320000030SPEAKER ASM                   M IMCTM S0FL05 TNTH  07070IMCT  S0 PTB  00004                    0830 SR        000000000000 DENSO TEN (THAILAND)18063UU0016016                                                                                                                              *          20180315 IMCT                IMCT                                                                                                                    WMF1803158.TXT
MDEDJ3296461201803                D89828070100PV4D20180320000030SPEAKER ASM                   M IMCTM S0FL05 TNTH  07070IMCT  S0 PTB  00004                    1600 SR        000000000000 DENSO TEN (THAILAND)18067XU0001001                                                                                                                              *          20180315 IMCT                IMCT                                                                                                                    WMF1803158.TXT
MDEDJ3296462201803                D89828070200PV1D20180319000060SPEAKER ASM                   M IMCTM S5MA14 TNTH  07070IMCT  S5 PTB  00005                    2230 SR        000000000000 DENSO TEN (THAILAND)18001VL001901918065XL0003003                                                                                                                *          20180315 IMCT                IMCT                                                                                                                    WMF1803158.TXT
MDEDJ3296463201803                D89828070200PV1D20180320000060SPEAKER ASM                   M IMCTM S5MA14 TNTH  07070IMCT  S5 PTB  00005                    0230 SR        000000000000 DENSO TEN (THAILAND)18001YL000500518068UL0004004                                                                                                                *          20180315 IMCT                IMCT                                                                                                                    WMF1803158.TXT
MDEDJ3296464201803                D89828070200PV1D20180320000090SPEAKER ASM                   M IMCTM S5MA14 TNTH  07070IMCT  S5 PTB  00005                    0400 SR        000000000000 DENSO TEN (THAILAND)18068UL000500518079UL000300318098XL0005005                                                                                                  *          20180315 IMCT                IMCT                                                                                                                    WMF1803158.TXT
MDEDJ3296465201803                D89828070200PV1D20180320000030SPEAKER ASM                   M IMCTM S5MA14 TNTH  07070IMCT  S5 PTB  00005                    0830 SR        000000000000 DENSO TEN (THAILAND)18099UL0043043                                                                                                                              *          20180315 IMCT                IMCT                                                                                                                    WMF1803158.TXT
MDEDJ3296466201803                D89828070200PV1D20180320000030SPEAKER ASM                   M IMCTM S5MA14 TNTH  07070IMCT  S5 PTB  00005                    1030 SR        000000000000 DENSO TEN (THAILAND)18099UL0044044                                                                                                                              *          20180315 IMCT                IMCT                                                                                                                    WMF1803158.TXT
MDEDJ3296467201803                D89828070200PV1D20180320000060SPEAKER ASM                   M IMCTM S5MA14 TNTH  07070IMCT  S5 PTB  00005                    1300 SR        000000000000 DENSO TEN (THAILAND)18099UL0045046                                                                                                                              *          20180315 IMCT                IMCT                                                                                                                    WMF1803158.TXT
MDEDJ3296468201803                D89828070200PV1D20180320000120SPEAKER ASM                   M IMCTM S5MA14 TNTH  07070IMCT  S5 PTB  00005                    1600 SR        000000000000 DENSO TEN (THAILAND)18001VL002002118098UL0025026                                                                                                                *          20180315 IMCT                IMCT                                                                                                                    WMF1803158.TXT
MDEDJ3296469201803                D89828070200PV4D20180320000030SPEAKER ASM                   M IMCTM S0FR05 TNTH  07070IMCT  S0 PTB  00005                    1600 SR        000000000000 DENSO TEN (THAILAND)18067XU0001001                                                                                                                              *          20180315 IMCT                IMCT                                                                                                                    WMF1803158.TXT
MDEDJ3296470201803                D89828070300PT1D20180319000060SPEAKER ASM                   M IMCTM S5NB082TNTH  07070IMCT  S5 PTB  00015                    2230 SR        000000000000 DENSO TEN (THAILAND)18001VL001901918065XL0003003                                                                                                                *          20180315 IMCT                IMCT                                                                                                                    WMF1803158.TXT
MDEDJ3296471201803                D89828070300PT1D20180320000060SPEAKER ASM                   M IMCTM S5NB082TNTH  07070IMCT  S5 PTB  00015                    0230 SR        000000000000 DENSO TEN (THAILAND)18001YL000500518068UL0004004                                                                                                                *          20180315 IMCT                IMCT                                                                                                                    WMF1803158.TXT
MDEDJ3296472201803                D89828070300PT1D20180320000090SPEAKER ASM                   M IMCTM S5NB082TNTH  07070IMCT  S5 PTB  00015                    0400 SR        000000000000 DENSO TEN (THAILAND)18068UL000500518079UL000300318098XL0005005                                                                                                  *          20180315 IMCT                IMCT                                                                                                                    WMF1803158.TXT
MDEDJ3296473201803                D89828070300PT1D20180320000030SPEAKER ASM                   M IMCTM S5NB082TNTH  07070IMCT  S5 PTB  00015                    0830 SR        000000000000 DENSO TEN (THAILAND)18099UL0043043                                                                                                                              *          20180315 IMCT                IMCT                                                                                                                    WMF1803158.TXT
MDEDJ3296474201803                D89828070300PT1D20180320000030SPEAKER ASM                   M IMCTM S5NB082TNTH  07070IMCT  S5 PTB  00015                    1030 SR        000000000000 DENSO TEN (THAILAND)18099UL0044044                                                                                                                              *          20180315 IMCT                IMCT                                                                                                                    WMF1803158.TXT
MDEDJ3296475201803                D89828070300PT1D20180320000060SPEAKER ASM                   M IMCTM S5NB082TNTH  07070IMCT  S5 PTB  00015                    1300 SR        000000000000 DENSO TEN (THAILAND)18099UL0045046                                                                                                                              *          20180315 IMCT                IMCT                                                                                                                    WMF1803158.TXT
MDEDJ3296476201803                D89828070300PT1D20180320000120SPEAKER ASM                   M IMCTM S5NB082TNTH  07070IMCT  S5 PTB  00015                    1600 SR        000000000000 DENSO TEN (THAILAND)18001VL002002118098UL0025026                                                                                                                *          20180315 IMCT                IMCT                                                                                                                    WMF1803158.TXT
MDEDJ3296477201803                D89828070300PT4D20180320000030SPEAKER ASM                   M IMCTM S9TS02 TNTH  07070IMCT  S9 PTB  00015                    0830 SR        000000000000 DENSO TEN (THAILAND)18063UU0016016                                                                                                                              *          20180315 IMCT                IMCT                                                                                                                    WMF1803158.TXT
MDEDJ3296478201803                D89828070300PT4D20180320000030SPEAKER ASM                   M IMCTM S9TS02 TNTH  07070IMCT  S9 PTB  00015                    1600 SR        000000000000 DENSO TEN (THAILAND)18067XU0001001                                                                                                                              *          20180315 IMCT                IMCT                                                                                                                    WMF1803158.TXT
MDEDJ3296479201803                D89848581800PT1D20180320000015RADIO;AM/FM CD D              M IMCTM S5NC06 TNTH  07070IMCT  S5 PTB  00003                    0400 SR        000000000000 DENSO TEN (THAILAND)18079UL0003003                                                                                                                              *          20180315 IMCT                IMCT                                                                                                                    WMF1803158.TXT
MDEDJ3296480201803                D89848581800PT1D20180320000030RADIO;AM/FM CD D              M IMCTM S5NC06 TNTH  07070IMCT  S5 PTB  00003                    1600 SR        000000000000 DENSO TEN (THAILAND)18098UL0025026                                                                                                                              *          20180315 IMCT                IMCT                                                                                                                    WMF1803158.TXT
MDEDJ3296481201803                D89848581800PT4D20180320000015RADIO;AM/FM CD D              M IMCTM S9CO001TNTH  07070IMCT  S9 PTB  00003                    0830 SR        000000000000 DENSO TEN (THAILAND)18063UU0016016                                                                                                                              *          20180315 IMCT                IMCT                                                                                                                    WMF1803158.TXT
MDEDJ3296482201803                D89848582100PT1D20180320000015RADIO;AM/FM CD D              M IMCTM S5NC06 TNTH  07070IMCT  S5 PTB  00003                    0400 SR        000000000000 DENSO TEN (THAILAND)18098XL0005005                                                                                                                              *          20180315 IMCT                IMCT                                                                                                                    WMF1803158.TXT
MDEUJ3269563201803                D89828070100PT4U20180319000090SPEAKER ASM                   M IMCTM S0FL05 TNTH  07070IMCT  S0 PTB  00004                    2230 SR        000000000000 DENSO TEN (THAILAND)18021UU007307318024UU003403418043YU0005005                                                                                                  *          20180315 IMCT                IMCT                                                                                                                    WMF1803158.TXT
MDEUJ3269564201803                D89828070100PT4U20180320000030SPEAKER ASM                   M IMCTM S0FL05 TNTH  07070IMCT  S0 PTB  00004                    0830 SR        000000000000 DENSO TEN (THAILAND)18021UU0074074                                                                                                                              *          20180315 IMCT                IMCT                                                                                                                    WMF1803158.TXT
MDEUJ3269565201803                D89828070100PT4U20180320000030SPEAKER ASM                   M IMCTM S0FL05 TNTH  07070IMCT  S0 PTB  00004                    1030 SR        000000000000 DENSO TEN (THAILAND)18021UU0075075                                                                                                                              *          20180315 IMCT                IMCT                                                                                                                    WMF1803158.TXT
MDEUJ3269566201803                D89828070100PT4U20180320000060SPEAKER ASM                   M IMCTM S0FL05 TNTH  07070IMCT  S0 PTB  00004                    1300 SR        000000000000 DENSO TEN (THAILAND)18021UU007607618043YU0006006                                                                                                                *          20180315 IMCT                IMCT                                                                                                                    WMF1803158.TXT
MDEUJ3269567201803                D89828070100PT4U20180320000060SPEAKER ASM                   M IMCTM S0FL05 TNTH  07070IMCT  S0 PTB  00004                    1600 SR        000000000000 DENSO TEN (THAILAND)18021UU007707718024UU0035035                                                                                                                *          20180315 IMCT                IMCT                                                                                                                    WMF1803158.TXT
MDEUJ3269568201803                D89828070200PV4U20180319000090SPEAKER ASM                   M IMCTM S0FR05 TNTH  07070IMCT  S0 PTB  00005                    2230 SR        000000000000 DENSO TEN (THAILAND)18021UU007307318024UU003403418043YU0005005                                                                                                  *          20180315 IMCT                IMCT                                                                                                                    WMF1803158.TXT
MDEUJ3269569201803                D89828070200PV4U20180320000030SPEAKER ASM                   M IMCTM S0FR05 TNTH  07070IMCT  S0 PTB  00005                    0830 SR        000000000000 DENSO TEN (THAILAND)18021UU0074074                                                                                                                              *          20180315 IMCT                IMCT                                                                                                                    WMF1803158.TXT
MDEUJ3269570201803                D89828070200PV4U20180320000030SPEAKER ASM                   M IMCTM S0FR05 TNTH  07070IMCT  S0 PTB  00005                    1030 SR        000000000000 DENSO TEN (THAILAND)18021UU0075075                                                                                                                              *          20180315 IMCT                IMCT                                                                                                                    WMF1803158.TXT
MDEUJ3269571201803                D89828070200PV4U20180320000060SPEAKER ASM                   M IMCTM S0FR05 TNTH  07070IMCT  S0 PTB  00005                    1300 SR        000000000000 DENSO TEN (THAILAND)18021UU007607618043YU0006006                                                                                                                *          20180315 IMCT                IMCT                                                                                                                    WMF1803158.TXT
MDEUJ3269572201803                D89828070200PV4U20180320000060SPEAKER ASM                   M IMCTM S0FR05 TNTH  07070IMCT  S0 PTB  00005                    1600 SR        000000000000 DENSO TEN (THAILAND)18021UU007707718024UU0035035                                                                                                                *          20180315 IMCT                IMCT                                                                                                                    WMF1803158.TXT
MDEUJ3269573201803                D89828070300PT4U20180319000090SPEAKER ASM                   M IMCTM S9TS02 TNTH  07070IMCT  S9 PTB  00015                    2230 SR        000000000000 DENSO TEN (THAILAND)18021UU007307318024UU003403418043YU0005005                                                                                                  *          20180315 IMCT                IMCT                                                                                                                    WMF1803158.TXT
MDEUJ3269574201803                D89828070300PT4U20180320000030SPEAKER ASM                   M IMCTM S9TS02 TNTH  07070IMCT  S9 PTB  00015                    0830 SR        000000000000 DENSO TEN (THAILAND)18021UU0074074                                                                                                                              *          20180315 IMCT                IMCT                                                                                                                    WMF1803158.TXT
MDEUJ3269575201803                D89828070300PT4U20180320000030SPEAKER ASM                   M IMCTM S9TS02 TNTH  07070IMCT  S9 PTB  00015                    1030 SR        000000000000 DENSO TEN (THAILAND)18021UU0075075                                                                                                                              *          20180315 IMCT                IMCT                                                                                                                    WMF1803158.TXT
MDEUJ3269576201803                D89828070300PT4U20180320000060SPEAKER ASM                   M IMCTM S9TS02 TNTH  07070IMCT  S9 PTB  00015                    1300 SR        000000000000 DENSO TEN (THAILAND)18021UU007607618043YU0006006                                                                                                                *          20180315 IMCT                IMCT                                                                                                                    WMF1803158.TXT
MDEUJ3269577201803                D89828070300PT4U20180320000060SPEAKER ASM                   M IMCTM S9TS02 TNTH  07070IMCT  S9 PTB  00015                    1600 SR        000000000000 DENSO TEN (THAILAND)18021UU007707718024UU0035035                                                                                                                *          20180315 IMCT                IMCT                                                                                                                    WMF1803158.TXT
