REC2018031420180314ISUZU                              71     
MDDDJ3247983201803                D89821984430PT1D20180318000030RADIO;AM/FM,CD                M IMCTM S5NC06 TNTH  07070IMCT  S5 PTB  00005                    0230 SR        000000000000 DENSO TEN (THAILAND)180LNGL0102102                                                                                                                              *          20180314 IMCT                IMCT                                                                                                                    WMF1803142.TXT
MDDDJ3247984201803                D89821984430PT1D20180319000030RADIO;AM/FM,CD                M IMCTM S5NC06 TNTH  07070IMCT  S5 PTB  00005                    1600 SR        000000000000 DENSO TEN (THAILAND)180LXCL0014014                                                                                                                              *          20180314 IMCT                IMCT                                                                                                                    WMF1803142.TXT
MDDDJ3247985201803                D89828070100PV1D20180318000060SPEAKER ASM                   M IMCTM S5MB11 TNTH  07070IMCT  S5 PTB  00004                    0230 SR        000000000000 DENSO TEN (THAILAND)180LNGL0102102                                                                                                                              *          20180314 IMCT                IMCT                                                                                                                    WMF1803142.TXT
MDDDJ3247986201803                D89828070100PV1D20180318000060SPEAKER ASM                   M IMCTM S5MB11 TNTH  07070IMCT  S5 PTB  00004                    0400 SR        000000000000 DENSO TEN (THAILAND)180LPML0015015                                                                                                                              *          20180314 IMCT                IMCT                                                                                                                    WMF1803142.TXT
MDDDJ3247987201803                D89828070100PV1D20180319000060SPEAKER ASM                   M IMCTM S5MB11 TNTH  07070IMCT  S5 PTB  00004                    1300 SR        000000000000 DENSO TEN (THAILAND)180LPFL0016016                                                                                                                              *          20180314 IMCT                IMCT                                                                                                                    WMF1803142.TXT
MDDDJ3247988201803                D89828070100PV1D20180319000060SPEAKER ASM                   M IMCTM S5MB11 TNTH  07070IMCT  S5 PTB  00004                    1600 SR        000000000000 DENSO TEN (THAILAND)180LXCL0014014                                                                                                                              *          20180314 IMCT                IMCT                                                                                                                    WMF1803142.TXT
MDDDJ3247989201803                D89828070100PV4D20180319000060SPEAKER ASM                   M IMCTM S0FL05 TNTH  07070IMCT  S0 PTB  00004                    1300 SR        000000000000 DENSO TEN (THAILAND)180LRGU0002002                                                                                                                              *          20180314 IMCT                IMCT                                                                                                                    WMF1803142.TXT
MDDDJ3247990201803                D89828070200PV4D20180319000060SPEAKER ASM                   M IMCTM S0FR05 TNTH  07070IMCT  S0 PTB  00005                    1300 SR        000000000000 DENSO TEN (THAILAND)180LRGU0002002                                                                                                                              *          20180314 IMCT                IMCT                                                                                                                    WMF1803142.TXT
MDDDJ3247991201803                D89828070300PT1D20180318000060SPEAKER ASM                   M IMCTM S5NB082TNTH  07070IMCT  S5 PTB  00015                    0400 SR        000000000000 DENSO TEN (THAILAND)180LPML0015015                                                                                                                              *          20180314 IMCT                IMCT                                                                                                                    WMF1803142.TXT
MDDDJ3247992201803                D89828070300PT1D20180319000060SPEAKER ASM                   M IMCTM S5NB082TNTH  07070IMCT  S5 PTB  00015                    1300 SR        000000000000 DENSO TEN (THAILAND)180LPFL0016016                                                                                                                              *          20180314 IMCT                IMCT                                                                                                                    WMF1803142.TXT
MDDDJ3247993201803                D89828070300PT4D20180319000060SPEAKER ASM                   M IMCTM S9TS02 TNTH  07070IMCT  S9 PTB  00015                    1300 SR        000000000000 DENSO TEN (THAILAND)180LRGU0002002                                                                                                                              *          20180314 IMCT                IMCT                                                                                                                    WMF1803142.TXT
MDDDJ3247994201803                D89831228300PT1D20180319000030RADIO;AM/FM,CD                M IMCTM S5NC06 TNTH  07070IMCT  S5 CPB  00003                    1300 SR        000000000000 DENSO TEN (THAILAND)180LPFL0016016                                                                                                                              *          20180314 IMCT                IMCT                                                                                                                    WMF1803142.TXT
MDDDJ3247995201803                D89831228400PT4D20180319000030RADIO;AM/FM,CD                M IMCTM S9CO001TNTH  07070IMCT  S9 CPB  00003                    1300 SR        000000000000 DENSO TEN (THAILAND)180LRGU0002002                                                                                                                              *          20180314 IMCT                IMCT                                                                                                                    WMF1803142.TXT
MDDUJ3219369201803                D89828070100PT4U20180319000030SPEAKER ASM                   M IMCTM S0FL05 TNTH  07070IMCT  S0 PTB  00004                    0830 SR        000000000000 DENSO TEN (THAILAND)180LURU0033033                                                                                                                              *          20180314 IMCT                IMCT                                                                                                                    WMF1803142.TXT
MDDUJ3219370201803                D89828070100PT4U20180319000030SPEAKER ASM                   M IMCTM S0FL05 TNTH  07070IMCT  S0 PTB  00004                    1300 SR        000000000000 DENSO TEN (THAILAND)180LUQU0026026                                                                                                                              *          20180314 IMCT                IMCT                                                                                                                    WMF1803142.TXT
MDDUJ3219371201803                D89828070200PV4U20180319000030SPEAKER ASM                   M IMCTM S0FR05 TNTH  07070IMCT  S0 PTB  00005                    0830 SR        000000000000 DENSO TEN (THAILAND)180LURU0033033                                                                                                                              *          20180314 IMCT                IMCT                                                                                                                    WMF1803142.TXT
MDDUJ3219372201803                D89828070200PV4U20180319000030SPEAKER ASM                   M IMCTM S0FR05 TNTH  07070IMCT  S0 PTB  00005                    1300 SR        000000000000 DENSO TEN (THAILAND)180LUQU0026026                                                                                                                              *          20180314 IMCT                IMCT                                                                                                                    WMF1803142.TXT
MDDUJ3219373201803                D89828070300PT4U20180319000030SPEAKER ASM                   M IMCTM S9TS02 TNTH  07070IMCT  S9 PTB  00015                    0830 SR        000000000000 DENSO TEN (THAILAND)180LURU0033033                                                                                                                              *          20180314 IMCT                IMCT                                                                                                                    WMF1803142.TXT
MDDUJ3219374201803                D89828070300PT4U20180319000030SPEAKER ASM                   M IMCTM S9TS02 TNTH  07070IMCT  S9 PTB  00015                    1300 SR        000000000000 DENSO TEN (THAILAND)180LUQU0026026                                                                                                                              *          20180314 IMCT                IMCT                                                                                                                    WMF1803142.TXT
MDDUJ3219375201803                D89848584200PT4U20180319000015RADIO;AM/FM CD D              M IMCTM S9CO001TNTH  07070IMCT  S9 PTB  00003                    1300 SR        000000000000 DENSO TEN (THAILAND)180LUQU0026026                                                                                                                              *          20180314 IMCT                IMCT                                                                                                                    WMF1803142.TXT
MDEDJ3289056201803                D89805293700PV1D20180319000030SPEAKER ASM                   M IMCTM S5MB14 TNTH  07070IMCT  S5 PTB  00003                    0830 SR        000000000000 DENSO TEN (THAILAND)15021DL0012012                                                                                                                              *          20180314 IMCT                IMCT                                                                                                                    WMF1803142.TXT
MDEDJ3289057201803                D89828070100PV1D20180317000060SPEAKER ASM                   M IMCTM S5MB11 TNTH  07070IMCT  S5 PTB  00004                    2230 SR        000000000000 DENSO TEN (THAILAND)18074UL0015016                                                                                                                              *          20180314 IMCT                IMCT                                                                                                                    WMF1803142.TXT
MDEDJ3289058201803                D89828070100PV1D20180318000030SPEAKER ASM                   M IMCTM S5MB11 TNTH  07070IMCT  S5 PTB  00004                    0230 SR        000000000000 DENSO TEN (THAILAND)18099UL0040040                                                                                                                              *          20180314 IMCT                IMCT                                                                                                                    WMF1803142.TXT
MDEDJ3289059201803                D89828070100PV1D20180318000030SPEAKER ASM                   M IMCTM S5MB11 TNTH  07070IMCT  S5 PTB  00004                    0400 SR        000000000000 DENSO TEN (THAILAND)18099UL0041041                                                                                                                              *          20180314 IMCT                IMCT                                                                                                                    WMF1803142.TXT
MDEDJ3289060201803                D89828070100PV1D20180319000060SPEAKER ASM                   M IMCTM S5MB11 TNTH  07070IMCT  S5 PTB  00004                    0830 SR        000000000000 DENSO TEN (THAILAND)18063UL000900918099UL0042042                                                                                                                *          20180314 IMCT                IMCT                                                                                                                    WMF1803142.TXT
MDEDJ3289061201803                D89828070100PV1D20180319000060SPEAKER ASM                   M IMCTM S5MB11 TNTH  07070IMCT  S5 PTB  00004                    1030 SR        000000000000 DENSO TEN (THAILAND)18063UL001001018073UL0004004                                                                                                                *          20180314 IMCT                IMCT                                                                                                                    WMF1803142.TXT
MDEDJ3289062201803                D89828070100PV1D20180319000060SPEAKER ASM                   M IMCTM S5MB11 TNTH  07070IMCT  S5 PTB  00004                    1300 SR        000000000000 DENSO TEN (THAILAND)18069UL000700718098XL0004004                                                                                                                *          20180314 IMCT                IMCT                                                                                                                    WMF1803142.TXT
MDEDJ3289063201803                D89828070100PV1D20180319000060SPEAKER ASM                   M IMCTM S5MB11 TNTH  07070IMCT  S5 PTB  00004                    1600 SR        000000000000 DENSO TEN (THAILAND)18098UL0023024                                                                                                                              *          20180314 IMCT                IMCT                                                                                                                    WMF1803142.TXT
MDEDJ3289064201803                D89828070100PV1D20180319000030SPEAKER ASM                   M IMCTM S5MB11 TNTH  07070IMCT  S5 PTB  00004                    2100 SR        000000000000 DENSO TEN (THAILAND)18001VL0018018                                                                                                                              *          20180314 IMCT                IMCT                                                                                                                    WMF1803142.TXT
MDEDJ3289065201803                D89828070100PV4D20180319000030SPEAKER ASM                   M IMCTM S0FL05 TNTH  07070IMCT  S0 PTB  00004                    1030 SR        000000000000 DENSO TEN (THAILAND)18063UU0015015                                                                                                                              *          20180314 IMCT                IMCT                                                                                                                    WMF1803142.TXT
MDEDJ3289066201803                D89828070200PV1D20180318000030SPEAKER ASM                   M IMCTM S5MA14 TNTH  07070IMCT  S5 PTB  00005                    0230 SR        000000000000 DENSO TEN (THAILAND)18099UL0040040                                                                                                                              *          20180314 IMCT                IMCT                                                                                                                    WMF1803142.TXT
MDEDJ3289067201803                D89828070200PV1D20180318000030SPEAKER ASM                   M IMCTM S5MA14 TNTH  07070IMCT  S5 PTB  00005                    0400 SR        000000000000 DENSO TEN (THAILAND)18099UL0041041                                                                                                                              *          20180314 IMCT                IMCT                                                                                                                    WMF1803142.TXT
MDEDJ3289068201803                D89828070200PV1D20180319000030SPEAKER ASM                   M IMCTM S5MA14 TNTH  07070IMCT  S5 PTB  00005                    0830 SR        000000000000 DENSO TEN (THAILAND)18099UL0042042                                                                                                                              *          20180314 IMCT                IMCT                                                                                                                    WMF1803142.TXT
MDEDJ3289069201803                D89828070200PV1D20180319000060SPEAKER ASM                   M IMCTM S5MA14 TNTH  07070IMCT  S5 PTB  00005                    1300 SR        000000000000 DENSO TEN (THAILAND)18069UL000700718098XL0004004                                                                                                                *          20180314 IMCT                IMCT                                                                                                                    WMF1803142.TXT
MDEDJ3289070201803                D89828070200PV1D20180319000060SPEAKER ASM                   M IMCTM S5MA14 TNTH  07070IMCT  S5 PTB  00005                    1600 SR        000000000000 DENSO TEN (THAILAND)18098UL0023024                                                                                                                              *          20180314 IMCT                IMCT                                                                                                                    WMF1803142.TXT
MDEDJ3289071201803                D89828070200PV1D20180319000030SPEAKER ASM                   M IMCTM S5MA14 TNTH  07070IMCT  S5 PTB  00005                    2100 SR        000000000000 DENSO TEN (THAILAND)18001VL0018018                                                                                                                              *          20180314 IMCT                IMCT                                                                                                                    WMF1803142.TXT
MDEDJ3289072201803                D89828070300PT1D20180317000060SPEAKER ASM                   M IMCTM S5NB082TNTH  07070IMCT  S5 PTB  00015                    2230 SR        000000000000 DENSO TEN (THAILAND)18074UL0015016                                                                                                                              *          20180314 IMCT                IMCT                                                                                                                    WMF1803142.TXT
MDEDJ3289073201803                D89828070300PT1D20180318000030SPEAKER ASM                   M IMCTM S5NB082TNTH  07070IMCT  S5 PTB  00015                    0230 SR        000000000000 DENSO TEN (THAILAND)18099UL0040040                                                                                                                              *          20180314 IMCT                IMCT                                                                                                                    WMF1803142.TXT
MDEDJ3289074201803                D89828070300PT1D20180318000030SPEAKER ASM                   M IMCTM S5NB082TNTH  07070IMCT  S5 PTB  00015                    0400 SR        000000000000 DENSO TEN (THAILAND)18099UL0041041                                                                                                                              *          20180314 IMCT                IMCT                                                                                                                    WMF1803142.TXT
MDEDJ3289075201803                D89828070300PT1D20180319000060SPEAKER ASM                   M IMCTM S5NB082TNTH  07070IMCT  S5 PTB  00015                    0830 SR        000000000000 DENSO TEN (THAILAND)18063UL000900918099UL0042042                                                                                                                *          20180314 IMCT                IMCT                                                                                                                    WMF1803142.TXT
MDEDJ3289076201803                D89828070300PT1D20180319000060SPEAKER ASM                   M IMCTM S5NB082TNTH  07070IMCT  S5 PTB  00015                    1030 SR        000000000000 DENSO TEN (THAILAND)18063UL001001018073UL0004004                                                                                                                *          20180314 IMCT                IMCT                                                                                                                    WMF1803142.TXT
MDEDJ3289077201803                D89828070300PT1D20180319000060SPEAKER ASM                   M IMCTM S5NB082TNTH  07070IMCT  S5 PTB  00015                    1300 SR        000000000000 DENSO TEN (THAILAND)18069UL000700718098XL0004004                                                                                                                *          20180314 IMCT                IMCT                                                                                                                    WMF1803142.TXT
MDEDJ3289078201803                D89828070300PT1D20180319000060SPEAKER ASM                   M IMCTM S5NB082TNTH  07070IMCT  S5 PTB  00015                    1600 SR        000000000000 DENSO TEN (THAILAND)18098UL0023024                                                                                                                              *          20180314 IMCT                IMCT                                                                                                                    WMF1803142.TXT
MDEDJ3289079201803                D89828070300PT1D20180319000030SPEAKER ASM                   M IMCTM S5NB082TNTH  07070IMCT  S5 PTB  00015                    2100 SR        000000000000 DENSO TEN (THAILAND)18001VL0018018                                                                                                                              *          20180314 IMCT                IMCT                                                                                                                    WMF1803142.TXT
MDEDJ3289080201803                D89828070300PT4D20180319000030SPEAKER ASM                   M IMCTM S9TS02 TNTH  07070IMCT  S9 PTB  00015                    1030 SR        000000000000 DENSO TEN (THAILAND)18063UU0015015                                                                                                                              *          20180314 IMCT                IMCT                                                                                                                    WMF1803142.TXT
MDEDJ3289081201803                D89848581800PT1D20180319000015RADIO;AM/FM CD D              M IMCTM S5NC06 TNTH  07070IMCT  S5 PTB  00003                    0830 SR        000000000000 DENSO TEN (THAILAND)18063UL0009009                                                                                                                              *          20180314 IMCT                IMCT                                                                                                                    WMF1803142.TXT
MDEDJ3289082201803                D89848581800PT1D20180319000015RADIO;AM/FM CD D              M IMCTM S5NC06 TNTH  07070IMCT  S5 PTB  00003                    1030 SR        000000000000 DENSO TEN (THAILAND)18063UL0010010                                                                                                                              *          20180314 IMCT                IMCT                                                                                                                    WMF1803142.TXT
MDEDJ3289083201803                D89848581800PT1D20180319000030RADIO;AM/FM CD D              M IMCTM S5NC06 TNTH  07070IMCT  S5 PTB  00003                    1600 SR        000000000000 DENSO TEN (THAILAND)18098UL0023024                                                                                                                              *          20180314 IMCT                IMCT                                                                                                                    WMF1803142.TXT
MDEDJ3289084201803                D89848581800PT4D20180319000015RADIO;AM/FM CD D              M IMCTM S9CO001TNTH  07070IMCT  S9 PTB  00003                    1030 SR        000000000000 DENSO TEN (THAILAND)18063UU0015015                                                                                                                              *          20180314 IMCT                IMCT                                                                                                                    WMF1803142.TXT
MDEDJ3289085201803                D89848582100PT1D20180319000015RADIO;AM/FM CD D              M IMCTM S5NC06 TNTH  07070IMCT  S5 PTB  00003                    1300 SR        000000000000 DENSO TEN (THAILAND)18098XL0004004                                                                                                                              *          20180314 IMCT                IMCT                                                                                                                    WMF1803142.TXT
MDEDJ3289086201803                D89848582500PT1D20180317000030RADIO;AM/FM CD D              M IMCTM S5NC06 TNTH  07070IMCT  S5 PTB  00003                    2230 SR        000000000000 DENSO TEN (THAILAND)18074UL0015016                                                                                                                              *          20180314 IMCT                IMCT                                                                                                                    WMF1803142.TXT
MDEDJ3289087201803                D89848582500PT1D20180319000015RADIO;AM/FM CD D              M IMCTM S5NC06 TNTH  07070IMCT  S5 PTB  00003                    1030 SR        000000000000 DENSO TEN (THAILAND)18073UL0004004                                                                                                                              *          20180314 IMCT                IMCT                                                                                                                    WMF1803142.TXT
MDEUJ3264295201803                D89828070100PT4U20180317000060SPEAKER ASM                   M IMCTM S0FL05 TNTH  07070IMCT  S0 PTB  00004                    2230 SR        000000000000 DENSO TEN (THAILAND)18021UU006806818023UU0023023                                                                                                                *          20180314 IMCT                IMCT                                                                                                                    WMF1803142.TXT
MDEUJ3264296201803                D89828070100PT4U20180318000030SPEAKER ASM                   M IMCTM S0FL05 TNTH  07070IMCT  S0 PTB  00004                    0230 SR        000000000000 DENSO TEN (THAILAND)18019UU0008008                                                                                                                              *          20180314 IMCT                IMCT                                                                                                                    WMF1803142.TXT
MDEUJ3264297201803                D89828070100PT4U20180318000030SPEAKER ASM                   M IMCTM S0FL05 TNTH  07070IMCT  S0 PTB  00004                    0400 SR        000000000000 DENSO TEN (THAILAND)18021UU0069069                                                                                                                              *          20180314 IMCT                IMCT                                                                                                                    WMF1803142.TXT
MDEUJ3264298201803                D89828070100PT4U20180319000030SPEAKER ASM                   M IMCTM S0FL05 TNTH  07070IMCT  S0 PTB  00004                    0830 SR        000000000000 DENSO TEN (THAILAND)18021UU0070070                                                                                                                              *          20180314 IMCT                IMCT                                                                                                                    WMF1803142.TXT
MDEUJ3264299201803                D89828070100PT4U20180319000030SPEAKER ASM                   M IMCTM S0FL05 TNTH  07070IMCT  S0 PTB  00004                    1300 SR        000000000000 DENSO TEN (THAILAND)18021UU0071071                                                                                                                              *          20180314 IMCT                IMCT                                                                                                                    WMF1803142.TXT
MDEUJ3264300201803                D89828070100PT4U20180319000030SPEAKER ASM                   M IMCTM S0FL05 TNTH  07070IMCT  S0 PTB  00004                    2100 SR        000000000000 DENSO TEN (THAILAND)18021UU0072072                                                                                                                              *          20180314 IMCT                IMCT                                                                                                                    WMF1803142.TXT
MDEUJ3264301201803                D89828070200PV4U20180317000060SPEAKER ASM                   M IMCTM S0FR05 TNTH  07070IMCT  S0 PTB  00005                    2230 SR        000000000000 DENSO TEN (THAILAND)18021UU006806818023UU0023023                                                                                                                *          20180314 IMCT                IMCT                                                                                                                    WMF1803142.TXT
MDEUJ3264302201803                D89828070200PV4U20180318000030SPEAKER ASM                   M IMCTM S0FR05 TNTH  07070IMCT  S0 PTB  00005                    0230 SR        000000000000 DENSO TEN (THAILAND)18019UU0008008                                                                                                                              *          20180314 IMCT                IMCT                                                                                                                    WMF1803142.TXT
MDEUJ3264303201803                D89828070200PV4U20180318000030SPEAKER ASM                   M IMCTM S0FR05 TNTH  07070IMCT  S0 PTB  00005                    0400 SR        000000000000 DENSO TEN (THAILAND)18021UU0069069                                                                                                                              *          20180314 IMCT                IMCT                                                                                                                    WMF1803142.TXT
MDEUJ3264304201803                D89828070200PV4U20180319000030SPEAKER ASM                   M IMCTM S0FR05 TNTH  07070IMCT  S0 PTB  00005                    0830 SR        000000000000 DENSO TEN (THAILAND)18021UU0070070                                                                                                                              *          20180314 IMCT                IMCT                                                                                                                    WMF1803142.TXT
MDEUJ3264305201803                D89828070200PV4U20180319000030SPEAKER ASM                   M IMCTM S0FR05 TNTH  07070IMCT  S0 PTB  00005                    1300 SR        000000000000 DENSO TEN (THAILAND)18021UU0071071                                                                                                                              *          20180314 IMCT                IMCT                                                                                                                    WMF1803142.TXT
MDEUJ3264306201803                D89828070200PV4U20180319000030SPEAKER ASM                   M IMCTM S0FR05 TNTH  07070IMCT  S0 PTB  00005                    2100 SR        000000000000 DENSO TEN (THAILAND)18021UU0072072                                                                                                                              *          20180314 IMCT                IMCT                                                                                                                    WMF1803142.TXT
MDEUJ3264307201803                D89828070300PT4U20180317000060SPEAKER ASM                   M IMCTM S9TS02 TNTH  07070IMCT  S9 PTB  00015                    2230 SR        000000000000 DENSO TEN (THAILAND)18021UU006806818023UU0023023                                                                                                                *          20180314 IMCT                IMCT                                                                                                                    WMF1803142.TXT
MDEUJ3264308201803                D89828070300PT4U20180318000030SPEAKER ASM                   M IMCTM S9TS02 TNTH  07070IMCT  S9 PTB  00015                    0230 SR        000000000000 DENSO TEN (THAILAND)18019UU0008008                                                                                                                              *          20180314 IMCT                IMCT                                                                                                                    WMF1803142.TXT
MDEUJ3264309201803                D89828070300PT4U20180318000030SPEAKER ASM                   M IMCTM S9TS02 TNTH  07070IMCT  S9 PTB  00015                    0400 SR        000000000000 DENSO TEN (THAILAND)18021UU0069069                                                                                                                              *          20180314 IMCT                IMCT                                                                                                                    WMF1803142.TXT
MDEUJ3264310201803                D89828070300PT4U20180319000030SPEAKER ASM                   M IMCTM S9TS02 TNTH  07070IMCT  S9 PTB  00015                    0830 SR        000000000000 DENSO TEN (THAILAND)18021UU0070070                                                                                                                              *          20180314 IMCT                IMCT                                                                                                                    WMF1803142.TXT
MDEUJ3264311201803                D89828070300PT4U20180319000030SPEAKER ASM                   M IMCTM S9TS02 TNTH  07070IMCT  S9 PTB  00015                    1300 SR        000000000000 DENSO TEN (THAILAND)18021UU0071071                                                                                                                              *          20180314 IMCT                IMCT                                                                                                                    WMF1803142.TXT
MDEUJ3264312201803                D89828070300PT4U20180319000030SPEAKER ASM                   M IMCTM S9TS02 TNTH  07070IMCT  S9 PTB  00015                    2100 SR        000000000000 DENSO TEN (THAILAND)18021UU0072072                                                                                                                              *          20180314 IMCT                IMCT                                                                                                                    WMF1803142.TXT
MDEUJ3264313201803                D89848584700PT4U20180318000015RADIO;AM/FM CD D              M IMCTM S9CO001TNTH  07070IMCT  S9 PTB  00003                    0230 SR        000000000000 DENSO TEN (THAILAND)18019UU0008008                                                                                                                              *          20180314 IMCT                IMCT                                                                                                                    WMF1803142.TXT
