REC2018030320180303ISUZU                              17     
MDEBJ3T01775201803                D89828070100PT4B20180308000030SPEAKER ASM                   M IMCTM S7FL05 TNTH  07070IMCT  S7 PTB  00004                    0400 SR        000000000000 DENSO TEN (THAILAND)18002TR0073   18043YR0005   Y180302001    Y180302015    000000                                                                              *R         20180303 IMCT                IMCT                                                                                                                    RMF1803034.TXT
MDEBJ3T01776201803                D89828070200PV4B20180308000030SPEAKER ASM                   M IMCTM S7FL05 TNTH  07070IMCT  S7 PTB  00005                    0400 SR        000000000000 DENSO TEN (THAILAND)18002TR0073   18043YR0005   Y180302001    Y180302015    000000                                                                              *R         20180303 IMCT                IMCT                                                                                                                    RMF1803034.TXT
MDEBJ3T01777201803                D89828070300PT4B20180308000030SPEAKER ASM                   M IMCTM S7TS02 TNTH  07070IMCT  S7 PTB  00015                    0400 SR        000000000000 DENSO TEN (THAILAND)18002TR0073   18043YR0005   Y180302001    Y180302015    000000                                                                              *R         20180303 IMCT                IMCT                                                                                                                    RMF1803034.TXT
MDEFJ3T03816201803                D89805293700PV4F20180308000002SPEAKER ASM                   M IMCTM S7FR05 TNTH  07070IMCT  S7 PTB  00003                    1600 SR        000000000000 DENSO TEN (THAILAND)15034DR0059   15034DR0059   D180302212    D180302212    000000                                                                              *R         20180303 IMCT                IMCT                                                                                                                    RMF1803034.TXT
MDEFJ3T03817201803                D89805294000PT4F20180308000002SPEAKER ASM                   M IMCTM S7TS02 TNTH  07070IMCT  S7 PTB  00015                    1600 SR        000000000000 DENSO TEN (THAILAND)15034DR0059   15034DR0059   D180302212    D180302212    000000                                                                              *R         20180303 IMCT                IMCT                                                                                                                    RMF1803034.TXT
MDEFJ3T03818201803                D89805294200PT4F20180308000002SPEAKER ASM                   M IMCTM S7S137 TNTH  07070IMCT  S7 PTB  00030                    1600 SR        000000000000 DENSO TEN (THAILAND)15034DR0059   15034DR0059   D180302212    D180302212    000000                                                                              *R         20180303 IMCT                IMCT                                                                                                                    RMF1803034.TXT
MDEFJ3T03819201803                D89806470400PT4F20180308000001SPEAKER ASM;RDO,              M IMCTM S7TL03 TNTH  07070IMCT  S7 PTB  00015                    1600 SR        000000000000 DENSO TEN (THAILAND)15034DR0059   15034DR0059   D180302212    D180302212    000000                                                                              *R         20180303 IMCT                IMCT                                                                                                                    RMF1803034.TXT
MDEFJ3T03820201803                D89824360220PT4F20180308000001RADIO;AM/FM,CD                M IMCTM S7TS03 TNTH  07070IMCT  S7 CPB  00003                    1600 SR        000000000000 DENSO TEN (THAILAND)15034DR0059   15034DR0059   D180302212    D180302212    000000                                                                              *R         20180303 IMCT                IMCT                                                                                                                    RMF1803034.TXT
MDEFJ3T03821201803                D89828070100PV4F20180308000028SPEAKER ASM                   M IMCTM S7FL05 TNTH  07070IMCT  S7 PTB  00004                    1600 SR        000000000000 DENSO TEN (THAILAND)18036ZR0002   17016VR0026   D180302201    D180302215    000000                                                                              *R         20180303 IMCT                IMCT                                                                                                                    RMF1803034.TXT
MDEFJ3T03822201803                D89828070200PV4F20180308000019SPEAKER ASM                   M IMCTM S7FL05 TNTH  07070IMCT  S7 PTB  00005                    1600 SR        000000000000 DENSO TEN (THAILAND)18007YR0007   18036ZR0011   D180302202    D180302211    000000                                                                              *R         20180303 IMCT                IMCT                                                                                                                    RMF1803034.TXT
MDEFJ3T03823201803                D89828070300PT4F20180308000014SPEAKER ASM                   M IMCTM S7TS02 TNTH  07070IMCT  S7 PTB  00015                    1600 SR        000000000000 DENSO TEN (THAILAND)18036ZR0005   18036ZR0011   D180302205    D180302211    000000                                                                              *R         20180303 IMCT                IMCT                                                                                                                    RMF1803034.TXT
MDEFJ3T03824201803                D89848582100PT4F20180307000004RADIO;AM/FM CD D              M IMCTM S7TS01 TNTH  07070IMCT  S7 PTB  00003                    2230 SR        000000000000 DENSO TEN (THAILAND)18045XR0002   18045XR0005   D180301901    D180301904    000000                                                                              *R         20180303 IMCT                IMCT                                                                                                                    RMF1803034.TXT
MDEFJ3209447201803                D89828070100PV4F20180307000032SPEAKER ASM                   M IMCTM S7FL05 TNTH  07070IMCT  S7 PTB  00004                    2230 SR        000000000000 DENSO TEN (THAILAND)18045XR0002   18074XR0001   D180301901    S180302101    000000                                                                              *R         20180303 IMCT                IMCT                                                                                                                    RMF1803034.TXT
MDEFJ3209448201803                D89828070100PV4F20180308000020SPEAKER ASM                   M IMCTM S7FL05 TNTH  07070IMCT  S7 PTB  00004                    1030 SR        000000000000 DENSO TEN (THAILAND)18032YR0001   18034ZR0010   S180302102    S180302111    000000                                                                              *R         20180303 IMCT                IMCT                                                                                                                    RMF1803034.TXT
MDEFJ3209449201803                D89828070100PV4F20180308000008SPEAKER ASM                   M IMCTM S7FL05 TNTH  07070IMCT  S7 PTB  00004                    1300 SR        000000000000 DENSO TEN (THAILAND)18034ZR0011   18034ZR0014   S180302112    S180302115    000000                                                                              *R         20180303 IMCT                IMCT                                                                                                                    RMF1803034.TXT
MDEFJ3209450201803                D89828070200PV4F20180307000025SPEAKER ASM                   M IMCTM S7FL05 TNTH  07070IMCT  S7 PTB  00005                    2230 SR        000000000000 DENSO TEN (THAILAND)18045XR0002   18007YR0007   D180301901    D180302202    000000                                                                              *R         20180303 IMCT                IMCT                                                                                                                    RMF1803034.TXT
MDEFJ3209451201803                D89828070300PT4F20180307000030SPEAKER ASM                   M IMCTM S7TS02 TNTH  07070IMCT  S7 PTB  00015                    2230 SR        000000000000 DENSO TEN (THAILAND)18045XR0002   18036ZR0004   D180301901    D180302204    000000                                                                              *R         20180303 IMCT                IMCT                                                                                                                    RMF1803034.TXT
