REC2018031520180315ISUZU                              14     
MDEFJ3T16714201803                D89828070100PV4F20180320000018SPEAKER ASM                   M IMCTM S7FL05 TNTH  07070IMCT  S7 PTB  00004                    1600 SR        000000000000 DENSO TEN (THAILAND)18074XR0009   17040PR0015   S180304807    S180304815    000000                                                                              *R         20180315 IMCT                IMCT                                                                                                                    RMF1803158.TXT
MDEFJ3T16715201803                D89828070200PV4F20180320000017SPEAKER ASM                   M IMCTM S7FL05 TNTH  07070IMCT  S7 PTB  00005                    0830 SR        000000000000 DENSO TEN (THAILAND)18036YR0022   18046XR0001   D180304705    D180304715    000000                                                                              *R         20180315 IMCT                IMCT                                                                                                                    RMF1803158.TXT
MDEFJ3T16716201803                D89828070300PT4F20180320000011SPEAKER ASM                   M IMCTM S7TS02 TNTH  07070IMCT  S7 PTB  00015                    0830 SR        000000000000 DENSO TEN (THAILAND)18023YR0002   18046XR0001   D180304710    D180304715    000000                                                                              *R         20180315 IMCT                IMCT                                                                                                                    RMF1803158.TXT
MDEFJ3T16717201803                D89831228800PT4F20180320000002RADIO;AM/FM,CD                M IMCTM S7TS03 TNTH  07070IMCT  S7 PTB  00003                    0400 SR        000000000000 DENSO TEN (THAILAND)18034XR0001   18034XR0002   D180304703    D180304708    000000                                                                              *R         20180315 IMCT                IMCT                                                                                                                    RMF1803158.TXT
MDEFJ3T16718201803                D89848582100PT4F20180320000005RADIO;AM/FM CD D              M IMCTM S7TS01 TNTH  07070IMCT  S7 PTB  00003                    0830 SR        000000000000 DENSO TEN (THAILAND)18091XR0006   18055XR0015   D180304706    D180304714    000000                                                                              *R         20180315 IMCT                IMCT                                                                                                                    RMF1803158.TXT
MDEFJ3242763201803                D89828070100PV4F20180319000032SPEAKER ASM                   M IMCTM S7FL05 TNTH  07070IMCT  S7 PTB  00004                    2230 SR        000000000000 DENSO TEN (THAILAND)18064XR0001   18052XR0001   D180304601    D180304701    000000                                                                              *R         20180315 IMCT                IMCT                                                                                                                    RMF1803158.TXT
MDEFJ3242764201803                D89828070100PV4F20180320000008SPEAKER ASM                   M IMCTM S7FL05 TNTH  07070IMCT  S7 PTB  00004                    0400 SR        000000000000 DENSO TEN (THAILAND)18031XR0007   18036YR0022   D180304702    D180304705    000000                                                                              *R         20180315 IMCT                IMCT                                                                                                                    RMF1803158.TXT
MDEFJ3242765201803                D89828070100PV4F20180320000020SPEAKER ASM                   M IMCTM S7FL05 TNTH  07070IMCT  S7 PTB  00004                    0830 SR        000000000000 DENSO TEN (THAILAND)18091XR0006   18046XR0001   D180304706    D180304715    000000                                                                              *R         20180315 IMCT                IMCT                                                                                                                    RMF1803158.TXT
MDEFJ3242766201803                D89828070100PV4F20180320000012SPEAKER ASM                   M IMCTM S7FL05 TNTH  07070IMCT  S7 PTB  00004                    1300 SR        000000000000 DENSO TEN (THAILAND)18074XR0003   18074XR0008   S180304801    S180304806    000000                                                                              *R         20180315 IMCT                IMCT                                                                                                                    RMF1803158.TXT
MDEFJ3242767201803                D89828070200PV4F20180319000030SPEAKER ASM                   M IMCTM S7FL05 TNTH  07070IMCT  S7 PTB  00005                    2230 SR        000000000000 DENSO TEN (THAILAND)18064XR0001   18031XR0007   D180304601    D180304702    000000                                                                              *R         20180315 IMCT                IMCT                                                                                                                    RMF1803158.TXT
MDEFJ3242768201803                D89828070200PV4F20180320000005SPEAKER ASM                   M IMCTM S7FL05 TNTH  07070IMCT  S7 PTB  00005                    0400 SR        000000000000 DENSO TEN (THAILAND)18034XR0001   18036YR0022   D180304703    D180304705    000000                                                                              *R         20180315 IMCT                IMCT                                                                                                                    RMF1803158.TXT
MDEFJ3242769201803                D89828070300PT4F20180319000030SPEAKER ASM                   M IMCTM S7TS02 TNTH  07070IMCT  S7 PTB  00015                    2230 SR        000000000000 DENSO TEN (THAILAND)18064XR0001   18031XR0007   D180304601    D180304702    000000                                                                              *R         20180315 IMCT                IMCT                                                                                                                    RMF1803158.TXT
MDEFJ3242770201803                D89828070300PT4F20180320000015SPEAKER ASM                   M IMCTM S7TS02 TNTH  07070IMCT  S7 PTB  00015                    0400 SR        000000000000 DENSO TEN (THAILAND)18034XR0001   18023YR0002   D180304703    D180304710    000000                                                                              *R         20180315 IMCT                IMCT                                                                                                                    RMF1803158.TXT
MDEFJ3242771201803                D89848582100PT4F20180319000003RADIO;AM/FM CD D              M IMCTM S7TS01 TNTH  07070IMCT  S7 PTB  00003                    2230 SR        000000000000 DENSO TEN (THAILAND)18091XR0003   18091XR0005   D180304612    D180304614    000000                                                                              *R         20180315 IMCT                IMCT                                                                                                                    RMF1803158.TXT
