REC2018030920180309ISUZU                              87     
MDDDJ3232664201803                D89821984430PT1D20180314000030RADIO;AM/FM,CD                M IMCTM S5NC06 TNTH  07070IMCT  S5 PTB  00005                    0830 SR        000000000000 DENSO TEN (THAILAND)180LXEL0018018                                                                                                                              *          20180309 IMCT                IMCT                                                                                                                    WMF1803097.TXT
MDDDJ3232665201803                D89821984430PT1D20180314000030RADIO;AM/FM,CD                M IMCTM S5NC06 TNTH  07070IMCT  S5 PTB  00005                    1300 SR        000000000000 DENSO TEN (THAILAND)180LPAL0104104                                                                                                                              *          20180309 IMCT                IMCT                                                                                                                    WMF1803097.TXT
MDDDJ3232666201803                D89821984430PT1D20180314000030RADIO;AM/FM,CD                M IMCTM S5NC06 TNTH  07070IMCT  S5 PTB  00005                    1600 SR        000000000000 DENSO TEN (THAILAND)180LNCL0034034                                                                                                                              *          20180309 IMCT                IMCT                                                                                                                    WMF1803097.TXT
MDDDJ3232667201803                D89828070100PV1D20180314000060SPEAKER ASM                   M IMCTM S5MB11 TNTH  07070IMCT  S5 PTB  00004                    0230 SR        000000000000 DENSO TEN (THAILAND)180LPFL0013013                                                                                                                              *          20180309 IMCT                IMCT                                                                                                                    WMF1803097.TXT
MDDDJ3232668201803                D89828070100PV1D20180314000060SPEAKER ASM                   M IMCTM S5MB11 TNTH  07070IMCT  S5 PTB  00004                    0400 SR        000000000000 DENSO TEN (THAILAND)180LPML0013013                                                                                                                              *          20180309 IMCT                IMCT                                                                                                                    WMF1803097.TXT
MDDDJ3232669201803                D89828070100PV1D20180314000060SPEAKER ASM                   M IMCTM S5MB11 TNTH  07070IMCT  S5 PTB  00004                    0830 SR        000000000000 DENSO TEN (THAILAND)180LXEL0018018                                                                                                                              *          20180309 IMCT                IMCT                                                                                                                    WMF1803097.TXT
MDDDJ3232670201803                D89828070100PV1D20180314000060SPEAKER ASM                   M IMCTM S5MB11 TNTH  07070IMCT  S5 PTB  00004                    1300 SR        000000000000 DENSO TEN (THAILAND)180LPAL0104104                                                                                                                              *          20180309 IMCT                IMCT                                                                                                                    WMF1803097.TXT
MDDDJ3232671201803                D89828070100PV1D20180314000120SPEAKER ASM                   M IMCTM S5MB11 TNTH  07070IMCT  S5 PTB  00004                    1600 SR        000000000000 DENSO TEN (THAILAND)180LNCL0034034180LXAL0010010                                                                                                                *          20180309 IMCT                IMCT                                                                                                                    WMF1803097.TXT
MDDDJ3232672201803                D89828070100PV1D20180314000060SPEAKER ASM                   M IMCTM S5MB11 TNTH  07070IMCT  S5 PTB  00004                    2100 SR        000000000000 DENSO TEN (THAILAND)180LPKL0048048                                                                                                                              *          20180309 IMCT                IMCT                                                                                                                    WMF1803097.TXT
MDDDJ3232673201803                D89828070100PV4D20180314000060SPEAKER ASM                   M IMCTM S0FL05 TNTH  07070IMCT  S0 PTB  00004                    0400 SR        000000000000 DENSO TEN (THAILAND)180LRSU0040040                                                                                                                              *          20180309 IMCT                IMCT                                                                                                                    WMF1803097.TXT
MDDDJ3232674201803                D89828070200PV4D20180314000060SPEAKER ASM                   M IMCTM S0FR05 TNTH  07070IMCT  S0 PTB  00005                    0400 SR        000000000000 DENSO TEN (THAILAND)180LRSU0040040                                                                                                                              *          20180309 IMCT                IMCT                                                                                                                    WMF1803097.TXT
MDDDJ3232675201803                D89828070300PT1D20180314000060SPEAKER ASM                   M IMCTM S5NB082TNTH  07070IMCT  S5 PTB  00015                    0230 SR        000000000000 DENSO TEN (THAILAND)180LPFL0013013                                                                                                                              *          20180309 IMCT                IMCT                                                                                                                    WMF1803097.TXT
MDDDJ3232676201803                D89828070300PT1D20180314000060SPEAKER ASM                   M IMCTM S5NB082TNTH  07070IMCT  S5 PTB  00015                    0400 SR        000000000000 DENSO TEN (THAILAND)180LPML0013013                                                                                                                              *          20180309 IMCT                IMCT                                                                                                                    WMF1803097.TXT
MDDDJ3232677201803                D89828070300PT1D20180314000060SPEAKER ASM                   M IMCTM S5NB082TNTH  07070IMCT  S5 PTB  00015                    2100 SR        000000000000 DENSO TEN (THAILAND)180LPKL0048048                                                                                                                              *          20180309 IMCT                IMCT                                                                                                                    WMF1803097.TXT
MDDDJ3232678201803                D89828070300PT4D20180314000060SPEAKER ASM                   M IMCTM S9TS02 TNTH  07070IMCT  S9 PTB  00015                    0400 SR        000000000000 DENSO TEN (THAILAND)180LRSU0040040                                                                                                                              *          20180309 IMCT                IMCT                                                                                                                    WMF1803097.TXT
MDDDJ3232679201803                D89831228300PT1D20180314000030RADIO;AM/FM,CD                M IMCTM S5NC06 TNTH  07070IMCT  S5 CPB  00003                    0230 SR        000000000000 DENSO TEN (THAILAND)180LPFL0013013                                                                                                                              *          20180309 IMCT                IMCT                                                                                                                    WMF1803097.TXT
MDDDJ3232680201803                D89848581600PT1D20180314000030RADIO;AM/FM CD D              M IMCTM S5NC06 TNTH  07070IMCT  S5 PTB  00003                    2100 SR        000000000000 DENSO TEN (THAILAND)180LPKL0048048                                                                                                                              *          20180309 IMCT                IMCT                                                                                                                    WMF1803097.TXT
MDDUJ3212694201803                D89828070100PT4U20180314000030SPEAKER ASM                   M IMCTM S0FL05 TNTH  07070IMCT  S0 PTB  00004                    0830 SR        000000000000 DENSO TEN (THAILAND)180LURU0030030                                                                                                                              *          20180309 IMCT                IMCT                                                                                                                    WMF1803097.TXT
MDDUJ3212695201803                D89828070100PT4U20180314000030SPEAKER ASM                   M IMCTM S0FL05 TNTH  07070IMCT  S0 PTB  00004                    1600 SR        000000000000 DENSO TEN (THAILAND)180LULU0018018                                                                                                                              *          20180309 IMCT                IMCT                                                                                                                    WMF1803097.TXT
MDDUJ3212696201803                D89828070200PV4U20180314000030SPEAKER ASM                   M IMCTM S0FR05 TNTH  07070IMCT  S0 PTB  00005                    0830 SR        000000000000 DENSO TEN (THAILAND)180LURU0030030                                                                                                                              *          20180309 IMCT                IMCT                                                                                                                    WMF1803097.TXT
MDDUJ3212697201803                D89828070200PV4U20180314000030SPEAKER ASM                   M IMCTM S0FR05 TNTH  07070IMCT  S0 PTB  00005                    1600 SR        000000000000 DENSO TEN (THAILAND)180LULU0018018                                                                                                                              *          20180309 IMCT                IMCT                                                                                                                    WMF1803097.TXT
MDDUJ3212698201803                D89828070300PT4U20180314000030SPEAKER ASM                   M IMCTM S9TS02 TNTH  07070IMCT  S9 PTB  00015                    0830 SR        000000000000 DENSO TEN (THAILAND)180LURU0030030                                                                                                                              *          20180309 IMCT                IMCT                                                                                                                    WMF1803097.TXT
MDDUJ3212699201803                D89828070300PT4U20180314000030SPEAKER ASM                   M IMCTM S9TS02 TNTH  07070IMCT  S9 PTB  00015                    1600 SR        000000000000 DENSO TEN (THAILAND)180LULU0018018                                                                                                                              *          20180309 IMCT                IMCT                                                                                                                    WMF1803097.TXT
MDEDJ3259098201803                D89828070100PV1D20180313000030SPEAKER ASM                   M IMCTM S5MB11 TNTH  07070IMCT  S5 PTB  00004                    2230 SR        000000000000 DENSO TEN (THAILAND)18098UL0017017                                                                                                                              *          20180309 IMCT                IMCT                                                                                                                    WMF1803097.TXT
MDEDJ3259099201803                D89828070100PV1D20180314000030SPEAKER ASM                   M IMCTM S5MB11 TNTH  07070IMCT  S5 PTB  00004                    0230 SR        000000000000 DENSO TEN (THAILAND)18098UL0018018                                                                                                                              *          20180309 IMCT                IMCT                                                                                                                    WMF1803097.TXT
MDEDJ3259100201803                D89828070100PV1D20180314000090SPEAKER ASM                   M IMCTM S5MB11 TNTH  07070IMCT  S5 PTB  00004                    0400 SR        000000000000 DENSO TEN (THAILAND)17041PL007807918008YL0004004                                                                                                                *          20180309 IMCT                IMCT                                                                                                                    WMF1803097.TXT
MDEDJ3259101201803                D89828070100PV1D20180314000030SPEAKER ASM                   M IMCTM S5MB11 TNTH  07070IMCT  S5 PTB  00004                    0830 SR        000000000000 DENSO TEN (THAILAND)18008YL0005005                                                                                                                              *          20180309 IMCT                IMCT                                                                                                                    WMF1803097.TXT
MDEDJ3259102201803                D89828070100PV1D20180314000060SPEAKER ASM                   M IMCTM S5MB11 TNTH  07070IMCT  S5 PTB  00004                    1030 SR        000000000000 DENSO TEN (THAILAND)17041PL0080081                                                                                                                              *          20180309 IMCT                IMCT                                                                                                                    WMF1803097.TXT
MDEDJ3259103201803                D89828070100PV1D20180314000060SPEAKER ASM                   M IMCTM S5MB11 TNTH  07070IMCT  S5 PTB  00004                    1300 SR        000000000000 DENSO TEN (THAILAND)18001VL0011012                                                                                                                              *          20180309 IMCT                IMCT                                                                                                                    WMF1803097.TXT
MDEDJ3259104201803                D89828070100PV1D20180314000090SPEAKER ASM                   M IMCTM S5MB11 TNTH  07070IMCT  S5 PTB  00004                    1600 SR        000000000000 DENSO TEN (THAILAND)17040PL000600618077UL000300318099UL0033033                                                                                                  *          20180309 IMCT                IMCT                                                                                                                    WMF1803097.TXT
MDEDJ3259105201803                D89828070100PV1D20180314000030SPEAKER ASM                   M IMCTM S5MB11 TNTH  07070IMCT  S5 PTB  00004                    2100 SR        000000000000 DENSO TEN (THAILAND)18077UL0004004                                                                                                                              *          20180309 IMCT                IMCT                                                                                                                    WMF1803097.TXT
MDEDJ3259106201803                D89828070100PV1D20180314000030SPEAKER ASM                   M IMCTM S5MB11 TNTH  07070IMCT  S5 PTB  00004                    2230 SR        000000000000 DENSO TEN (THAILAND)18059XL0002002                                                                                                                              *          20180309 IMCT                IMCT                                                                                                                    WMF1803097.TXT
MDEDJ3259107201803                D89828070100PV4D20180313000030SPEAKER ASM                   M IMCTM S0FL05 TNTH  07070IMCT  S0 PTB  00004                    2230 SR        000000000000 DENSO TEN (THAILAND)18067UU0006006                                                                                                                              *          20180309 IMCT                IMCT                                                                                                                    WMF1803097.TXT
MDEDJ3259108201803                D89828070100PV4D20180314000030SPEAKER ASM                   M IMCTM S0FL05 TNTH  07070IMCT  S0 PTB  00004                    1300 SR        000000000000 DENSO TEN (THAILAND)18061UU0012012                                                                                                                              *          20180309 IMCT                IMCT                                                                                                                    WMF1803097.TXT
MDEDJ3259109201803                D89828070100PV4D20180314000060SPEAKER ASM                   M IMCTM S0FL05 TNTH  07070IMCT  S0 PTB  00004                    1600 SR        000000000000 DENSO TEN (THAILAND)18063UU001201218067UU0007007                                                                                                                *          20180309 IMCT                IMCT                                                                                                                    WMF1803097.TXT
MDEDJ3259110201803                D89828070100PV4D20180314000030SPEAKER ASM                   M IMCTM S0FL05 TNTH  07070IMCT  S0 PTB  00004                    2100 SR        000000000000 DENSO TEN (THAILAND)18064UU0001001                                                                                                                              *          20180309 IMCT                IMCT                                                                                                                    WMF1803097.TXT
MDEDJ3259111201803                D89828070200PV1D20180313000030SPEAKER ASM                   M IMCTM S5MA14 TNTH  07070IMCT  S5 PTB  00005                    2230 SR        000000000000 DENSO TEN (THAILAND)18098UL0017017                                                                                                                              *          20180309 IMCT                IMCT                                                                                                                    WMF1803097.TXT
MDEDJ3259112201803                D89828070200PV1D20180314000030SPEAKER ASM                   M IMCTM S5MA14 TNTH  07070IMCT  S5 PTB  00005                    0230 SR        000000000000 DENSO TEN (THAILAND)18098UL0018018                                                                                                                              *          20180309 IMCT                IMCT                                                                                                                    WMF1803097.TXT
MDEDJ3259113201803                D89828070200PV1D20180314000030SPEAKER ASM                   M IMCTM S5MA14 TNTH  07070IMCT  S5 PTB  00005                    0400 SR        000000000000 DENSO TEN (THAILAND)18008YL0004004                                                                                                                              *          20180309 IMCT                IMCT                                                                                                                    WMF1803097.TXT
MDEDJ3259114201803                D89828070200PV1D20180314000030SPEAKER ASM                   M IMCTM S5MA14 TNTH  07070IMCT  S5 PTB  00005                    0830 SR        000000000000 DENSO TEN (THAILAND)18008YL0005005                                                                                                                              *          20180309 IMCT                IMCT                                                                                                                    WMF1803097.TXT
MDEDJ3259115201803                D89828070200PV1D20180314000060SPEAKER ASM                   M IMCTM S5MA14 TNTH  07070IMCT  S5 PTB  00005                    1300 SR        000000000000 DENSO TEN (THAILAND)18001VL0011012                                                                                                                              *          20180309 IMCT                IMCT                                                                                                                    WMF1803097.TXT
MDEDJ3259116201803                D89828070200PV1D20180314000060SPEAKER ASM                   M IMCTM S5MA14 TNTH  07070IMCT  S5 PTB  00005                    1600 SR        000000000000 DENSO TEN (THAILAND)18077UL000300318099UL0033033                                                                                                                *          20180309 IMCT                IMCT                                                                                                                    WMF1803097.TXT
MDEDJ3259117201803                D89828070200PV1D20180314000030SPEAKER ASM                   M IMCTM S5MA14 TNTH  07070IMCT  S5 PTB  00005                    2100 SR        000000000000 DENSO TEN (THAILAND)18077UL0004004                                                                                                                              *          20180309 IMCT                IMCT                                                                                                                    WMF1803097.TXT
MDEDJ3259118201803                D89828070200PV1D20180314000030SPEAKER ASM                   M IMCTM S5MA14 TNTH  07070IMCT  S5 PTB  00005                    2230 SR        000000000000 DENSO TEN (THAILAND)18059XL0002002                                                                                                                              *          20180309 IMCT                IMCT                                                                                                                    WMF1803097.TXT
MDEDJ3259119201803                D89828070200PV4D20180313000030SPEAKER ASM                   M IMCTM S0FR05 TNTH  07070IMCT  S0 PTB  00005                    2230 SR        000000000000 DENSO TEN (THAILAND)18067UU0006006                                                                                                                              *          20180309 IMCT                IMCT                                                                                                                    WMF1803097.TXT
MDEDJ3259120201803                D89828070200PV4D20180314000030SPEAKER ASM                   M IMCTM S0FR05 TNTH  07070IMCT  S0 PTB  00005                    1600 SR        000000000000 DENSO TEN (THAILAND)18067UU0007007                                                                                                                              *          20180309 IMCT                IMCT                                                                                                                    WMF1803097.TXT
MDEDJ3259121201803                D89828070300PT1D20180313000030SPEAKER ASM                   M IMCTM S5NB082TNTH  07070IMCT  S5 PTB  00015                    2230 SR        000000000000 DENSO TEN (THAILAND)18098UL0017017                                                                                                                              *          20180309 IMCT                IMCT                                                                                                                    WMF1803097.TXT
MDEDJ3259122201803                D89828070300PT1D20180314000030SPEAKER ASM                   M IMCTM S5NB082TNTH  07070IMCT  S5 PTB  00015                    0230 SR        000000000000 DENSO TEN (THAILAND)18098UL0018018                                                                                                                              *          20180309 IMCT                IMCT                                                                                                                    WMF1803097.TXT
MDEDJ3259123201803                D89828070300PT1D20180314000030SPEAKER ASM                   M IMCTM S5NB082TNTH  07070IMCT  S5 PTB  00015                    0400 SR        000000000000 DENSO TEN (THAILAND)18008YL0004004                                                                                                                              *          20180309 IMCT                IMCT                                                                                                                    WMF1803097.TXT
MDEDJ3259124201803                D89828070300PT1D20180314000030SPEAKER ASM                   M IMCTM S5NB082TNTH  07070IMCT  S5 PTB  00015                    0830 SR        000000000000 DENSO TEN (THAILAND)18008YL0005005                                                                                                                              *          20180309 IMCT                IMCT                                                                                                                    WMF1803097.TXT
MDEDJ3259125201803                D89828070300PT1D20180314000060SPEAKER ASM                   M IMCTM S5NB082TNTH  07070IMCT  S5 PTB  00015                    1300 SR        000000000000 DENSO TEN (THAILAND)18001VL0011012                                                                                                                              *          20180309 IMCT                IMCT                                                                                                                    WMF1803097.TXT
MDEDJ3259126201803                D89828070300PT1D20180314000060SPEAKER ASM                   M IMCTM S5NB082TNTH  07070IMCT  S5 PTB  00015                    1600 SR        000000000000 DENSO TEN (THAILAND)18077UL000300318099UL0033033                                                                                                                *          20180309 IMCT                IMCT                                                                                                                    WMF1803097.TXT
MDEDJ3259127201803                D89828070300PT1D20180314000030SPEAKER ASM                   M IMCTM S5NB082TNTH  07070IMCT  S5 PTB  00015                    2100 SR        000000000000 DENSO TEN (THAILAND)18077UL0004004                                                                                                                              *          20180309 IMCT                IMCT                                                                                                                    WMF1803097.TXT
MDEDJ3259128201803                D89828070300PT1D20180314000030SPEAKER ASM                   M IMCTM S5NB082TNTH  07070IMCT  S5 PTB  00015                    2230 SR        000000000000 DENSO TEN (THAILAND)18059XL0002002                                                                                                                              *          20180309 IMCT                IMCT                                                                                                                    WMF1803097.TXT
MDEDJ3259129201803                D89828070300PT4D20180313000030SPEAKER ASM                   M IMCTM S9TS02 TNTH  07070IMCT  S9 PTB  00015                    2230 SR        000000000000 DENSO TEN (THAILAND)18067UU0006006                                                                                                                              *          20180309 IMCT                IMCT                                                                                                                    WMF1803097.TXT
MDEDJ3259130201803                D89828070300PT4D20180314000030SPEAKER ASM                   M IMCTM S9TS02 TNTH  07070IMCT  S9 PTB  00015                    1300 SR        000000000000 DENSO TEN (THAILAND)18061UU0012012                                                                                                                              *          20180309 IMCT                IMCT                                                                                                                    WMF1803097.TXT
MDEDJ3259131201803                D89828070300PT4D20180314000060SPEAKER ASM                   M IMCTM S9TS02 TNTH  07070IMCT  S9 PTB  00015                    1600 SR        000000000000 DENSO TEN (THAILAND)18063UU001201218067UU0007007                                                                                                                *          20180309 IMCT                IMCT                                                                                                                    WMF1803097.TXT
MDEDJ3259132201803                D89828070300PT4D20180314000030SPEAKER ASM                   M IMCTM S9TS02 TNTH  07070IMCT  S9 PTB  00015                    2100 SR        000000000000 DENSO TEN (THAILAND)18064UU0001001                                                                                                                              *          20180309 IMCT                IMCT                                                                                                                    WMF1803097.TXT
MDEDJ3259133201803                D89848581800PT1D20180313000015RADIO;AM/FM CD D              M IMCTM S5NC06 TNTH  07070IMCT  S5 PTB  00003                    2230 SR        000000000000 DENSO TEN (THAILAND)18098UL0017017                                                                                                                              *          20180309 IMCT                IMCT                                                                                                                    WMF1803097.TXT
MDEDJ3259134201803                D89848581800PT1D20180314000015RADIO;AM/FM CD D              M IMCTM S5NC06 TNTH  07070IMCT  S5 PTB  00003                    0230 SR        000000000000 DENSO TEN (THAILAND)18098UL0018018                                                                                                                              *          20180309 IMCT                IMCT                                                                                                                    WMF1803097.TXT
MDEDJ3259135201803                D89848581800PT1D20180314000015RADIO;AM/FM CD D              M IMCTM S5NC06 TNTH  07070IMCT  S5 PTB  00003                    1600 SR        000000000000 DENSO TEN (THAILAND)18077UL0003003                                                                                                                              *          20180309 IMCT                IMCT                                                                                                                    WMF1803097.TXT
MDEDJ3259136201803                D89848581800PT1D20180314000015RADIO;AM/FM CD D              M IMCTM S5NC06 TNTH  07070IMCT  S5 PTB  00003                    2100 SR        000000000000 DENSO TEN (THAILAND)18077UL0004004                                                                                                                              *          20180309 IMCT                IMCT                                                                                                                    WMF1803097.TXT
MDEDJ3259137201803                D89848581800PT4D20180314000015RADIO;AM/FM CD D              M IMCTM S9CO001TNTH  07070IMCT  S9 PTB  00003                    1300 SR        000000000000 DENSO TEN (THAILAND)18061UU0012012                                                                                                                              *          20180309 IMCT                IMCT                                                                                                                    WMF1803097.TXT
MDEDJ3259138201803                D89848581800PT4D20180314000015RADIO;AM/FM CD D              M IMCTM S9CO001TNTH  07070IMCT  S9 PTB  00003                    1600 SR        000000000000 DENSO TEN (THAILAND)18063UU0012012                                                                                                                              *          20180309 IMCT                IMCT                                                                                                                    WMF1803097.TXT
MDEDJ3259139201803                D89848582500PT4D20180314000015RADIO;AM/FM CD D              M IMCTM S9CO001TNTH  07070IMCT  S9 PTB  00003                    2100 SR        000000000000 DENSO TEN (THAILAND)18064UU0001001                                                                                                                              *          20180309 IMCT                IMCT                                                                                                                    WMF1803097.TXT
MDEUJ3243351201803                D89828070100PT4U20180314000030SPEAKER ASM                   M IMCTM S0FL05 TNTH  07070IMCT  S0 PTB  00004                    0230 SR        000000000000 DENSO TEN (THAILAND)18021UU0055055                                                                                                                              *          20180309 IMCT                IMCT                                                                                                                    WMF1803097.TXT
MDEUJ3243352201803                D89828070100PT4U20180314000060SPEAKER ASM                   M IMCTM S0FL05 TNTH  07070IMCT  S0 PTB  00004                    0400 SR        000000000000 DENSO TEN (THAILAND)18020UU002802818025UU0050050                                                                                                                *          20180309 IMCT                IMCT                                                                                                                    WMF1803097.TXT
MDEUJ3243353201803                D89828070100PT4U20180314000030SPEAKER ASM                   M IMCTM S0FL05 TNTH  07070IMCT  S0 PTB  00004                    1030 SR        000000000000 DENSO TEN (THAILAND)18016UU0014014                                                                                                                              *          20180309 IMCT                IMCT                                                                                                                    WMF1803097.TXT
MDEUJ3243354201803                D89828070100PT4U20180314000060SPEAKER ASM                   M IMCTM S0FL05 TNTH  07070IMCT  S0 PTB  00004                    1300 SR        000000000000 DENSO TEN (THAILAND)18020UU002902918024UU0031031                                                                                                                *          20180309 IMCT                IMCT                                                                                                                    WMF1803097.TXT
MDEUJ3243355201803                D89828070100PT4U20180314000030SPEAKER ASM                   M IMCTM S0FL05 TNTH  07070IMCT  S0 PTB  00004                    1600 SR        000000000000 DENSO TEN (THAILAND)18021UU0056056                                                                                                                              *          20180309 IMCT                IMCT                                                                                                                    WMF1803097.TXT
MDEUJ3243356201803                D89828070100PT4U20180314000030SPEAKER ASM                   M IMCTM S0FL05 TNTH  07070IMCT  S0 PTB  00004                    2100 SR        000000000000 DENSO TEN (THAILAND)18015UU0012012                                                                                                                              *          20180309 IMCT                IMCT                                                                                                                    WMF1803097.TXT
MDEUJ3243357201803                D89828070100PT4U20180314000060SPEAKER ASM                   M IMCTM S0FL05 TNTH  07070IMCT  S0 PTB  00004                    2230 SR        000000000000 DENSO TEN (THAILAND)18019UU000600618043YU0004004                                                                                                                *          20180309 IMCT                IMCT                                                                                                                    WMF1803097.TXT
MDEUJ3243358201803                D89828070200PV4U20180314000030SPEAKER ASM                   M IMCTM S0FR05 TNTH  07070IMCT  S0 PTB  00005                    0230 SR        000000000000 DENSO TEN (THAILAND)18021UU0055055                                                                                                                              *          20180309 IMCT                IMCT                                                                                                                    WMF1803097.TXT
MDEUJ3243359201803                D89828070200PV4U20180314000060SPEAKER ASM                   M IMCTM S0FR05 TNTH  07070IMCT  S0 PTB  00005                    0400 SR        000000000000 DENSO TEN (THAILAND)18020UU002802818025UU0050050                                                                                                                *          20180309 IMCT                IMCT                                                                                                                    WMF1803097.TXT
MDEUJ3243360201803                D89828070200PV4U20180314000030SPEAKER ASM                   M IMCTM S0FR05 TNTH  07070IMCT  S0 PTB  00005                    1030 SR        000000000000 DENSO TEN (THAILAND)18016UU0014014                                                                                                                              *          20180309 IMCT                IMCT                                                                                                                    WMF1803097.TXT
MDEUJ3243361201803                D89828070200PV4U20180314000060SPEAKER ASM                   M IMCTM S0FR05 TNTH  07070IMCT  S0 PTB  00005                    1300 SR        000000000000 DENSO TEN (THAILAND)18020UU002902918024UU0031031                                                                                                                *          20180309 IMCT                IMCT                                                                                                                    WMF1803097.TXT
MDEUJ3243362201803                D89828070200PV4U20180314000030SPEAKER ASM                   M IMCTM S0FR05 TNTH  07070IMCT  S0 PTB  00005                    1600 SR        000000000000 DENSO TEN (THAILAND)18021UU0056056                                                                                                                              *          20180309 IMCT                IMCT                                                                                                                    WMF1803097.TXT
MDEUJ3243363201803                D89828070200PV4U20180314000030SPEAKER ASM                   M IMCTM S0FR05 TNTH  07070IMCT  S0 PTB  00005                    2100 SR        000000000000 DENSO TEN (THAILAND)18015UU0012012                                                                                                                              *          20180309 IMCT                IMCT                                                                                                                    WMF1803097.TXT
MDEUJ3243364201803                D89828070200PV4U20180314000060SPEAKER ASM                   M IMCTM S0FR05 TNTH  07070IMCT  S0 PTB  00005                    2230 SR        000000000000 DENSO TEN (THAILAND)18019UU000600618043YU0004004                                                                                                                *          20180309 IMCT                IMCT                                                                                                                    WMF1803097.TXT
MDEUJ3243365201803                D89828070300PT4U20180314000030SPEAKER ASM                   M IMCTM S9TS02 TNTH  07070IMCT  S9 PTB  00015                    0230 SR        000000000000 DENSO TEN (THAILAND)18021UU0055055                                                                                                                              *          20180309 IMCT                IMCT                                                                                                                    WMF1803097.TXT
MDEUJ3243366201803                D89828070300PT4U20180314000060SPEAKER ASM                   M IMCTM S9TS02 TNTH  07070IMCT  S9 PTB  00015                    0400 SR        000000000000 DENSO TEN (THAILAND)18020UU002802818025UU0050050                                                                                                                *          20180309 IMCT                IMCT                                                                                                                    WMF1803097.TXT
MDEUJ3243367201803                D89828070300PT4U20180314000030SPEAKER ASM                   M IMCTM S9TS02 TNTH  07070IMCT  S9 PTB  00015                    1030 SR        000000000000 DENSO TEN (THAILAND)18016UU0014014                                                                                                                              *          20180309 IMCT                IMCT                                                                                                                    WMF1803097.TXT
MDEUJ3243368201803                D89828070300PT4U20180314000060SPEAKER ASM                   M IMCTM S9TS02 TNTH  07070IMCT  S9 PTB  00015                    1300 SR        000000000000 DENSO TEN (THAILAND)18020UU002902918024UU0031031                                                                                                                *          20180309 IMCT                IMCT                                                                                                                    WMF1803097.TXT
MDEUJ3243369201803                D89828070300PT4U20180314000030SPEAKER ASM                   M IMCTM S9TS02 TNTH  07070IMCT  S9 PTB  00015                    1600 SR        000000000000 DENSO TEN (THAILAND)18021UU0056056                                                                                                                              *          20180309 IMCT                IMCT                                                                                                                    WMF1803097.TXT
MDEUJ3243370201803                D89828070300PT4U20180314000030SPEAKER ASM                   M IMCTM S9TS02 TNTH  07070IMCT  S9 PTB  00015                    2100 SR        000000000000 DENSO TEN (THAILAND)18015UU0012012                                                                                                                              *          20180309 IMCT                IMCT                                                                                                                    WMF1803097.TXT
MDEUJ3243371201803                D89828070300PT4U20180314000060SPEAKER ASM                   M IMCTM S9TS02 TNTH  07070IMCT  S9 PTB  00015                    2230 SR        000000000000 DENSO TEN (THAILAND)18019UU000600618043YU0004004                                                                                                                *          20180309 IMCT                IMCT                                                                                                                    WMF1803097.TXT
MDEUJ3243372201803                D89848584700PT4U20180314000015RADIO;AM/FM CD D              M IMCTM S9CO001TNTH  07070IMCT  S9 PTB  00003                    2230 SR        000000000000 DENSO TEN (THAILAND)18019UU0006006                                                                                                                              *          20180309 IMCT                IMCT                                                                                                                    WMF1803097.TXT
