REC2018043020180430ISUZU                              65     
MDDDJ4299029201805                D89821984430PT1D20180505000060RADIO;AM/FM,CD                M IMCTM S5NC06 TNTH  07070IMCT  S5 PTB  00005                    0400 SR        000000000000 DENSO TEN (THAILAND)180LRBL0035035180LXEL0028028                                                                                                                *          20180430 IMCT                IMCT                                                                                                                    WMF1804304.TXT
MDDDJ4299030201805                D89821984430PT1D20180505000030RADIO;AM/FM,CD                M IMCTM S5NC06 TNTH  07070IMCT  S5 PTB  00005                    1030 SR        000000000000 DENSO TEN (THAILAND)180LPAL0129129                                                                                                                              *          20180430 IMCT                IMCT                                                                                                                    WMF1804304.TXT
MDDDJ4299031201805                D89821984430PT1D20180505000030RADIO;AM/FM,CD                M IMCTM S5NC06 TNTH  07070IMCT  S5 PTB  00005                    1300 SR        000000000000 DENSO TEN (THAILAND)180LXEL0029029                                                                                                                              *          20180430 IMCT                IMCT                                                                                                                    WMF1804304.TXT
MDDDJ4299032201805                D89821984430PT1D20180505000030RADIO;AM/FM,CD                M IMCTM S5NC06 TNTH  07070IMCT  S5 PTB  00005                    2100 SR        000000000000 DENSO TEN (THAILAND)180LXCL0033033                                                                                                                              *          20180430 IMCT                IMCT                                                                                                                    WMF1804304.TXT
MDDDJ4299033201805                D89828070100PV1D20180505000060SPEAKER ASM                   M IMCTM S5MB11 TNTH  07070IMCT  S5 PTB  00004                    0230 SR        000000000000 DENSO TEN (THAILAND)180LPLL0016016                                                                                                                              *          20180430 IMCT                IMCT                                                                                                                    WMF1804304.TXT
MDDDJ4299034201805                D89828070100PV1D20180505000120SPEAKER ASM                   M IMCTM S5MB11 TNTH  07070IMCT  S5 PTB  00004                    0400 SR        000000000000 DENSO TEN (THAILAND)180LRBL0035035180LXEL0028028                                                                                                                *          20180430 IMCT                IMCT                                                                                                                    WMF1804304.TXT
MDDDJ4299035201805                D89828070100PV1D20180505000060SPEAKER ASM                   M IMCTM S5MB11 TNTH  07070IMCT  S5 PTB  00004                    0830 SR        000000000000 DENSO TEN (THAILAND)180LPFL0040040                                                                                                                              *          20180430 IMCT                IMCT                                                                                                                    WMF1804304.TXT
MDDDJ4299036201805                D89828070100PV1D20180505000060SPEAKER ASM                   M IMCTM S5MB11 TNTH  07070IMCT  S5 PTB  00004                    1030 SR        000000000000 DENSO TEN (THAILAND)180LPAL0129129                                                                                                                              *          20180430 IMCT                IMCT                                                                                                                    WMF1804304.TXT
MDDDJ4299037201805                D89828070100PV1D20180505000060SPEAKER ASM                   M IMCTM S5MB11 TNTH  07070IMCT  S5 PTB  00004                    1300 SR        000000000000 DENSO TEN (THAILAND)180LXEL0029029                                                                                                                              *          20180430 IMCT                IMCT                                                                                                                    WMF1804304.TXT
MDDDJ4299038201805                D89828070100PV1D20180505000060SPEAKER ASM                   M IMCTM S5MB11 TNTH  07070IMCT  S5 PTB  00004                    1600 SR        000000000000 DENSO TEN (THAILAND)180LPGL0207207                                                                                                                              *          20180430 IMCT                IMCT                                                                                                                    WMF1804304.TXT
MDDDJ4299039201805                D89828070100PV1D20180505000060SPEAKER ASM                   M IMCTM S5MB11 TNTH  07070IMCT  S5 PTB  00004                    2100 SR        000000000000 DENSO TEN (THAILAND)180LXCL0033033                                                                                                                              *          20180430 IMCT                IMCT                                                                                                                    WMF1804304.TXT
MDDDJ4299040201805                D89828070300PT1D20180505000060SPEAKER ASM                   M IMCTM S5NB082TNTH  07070IMCT  S5 PTB  00015                    0230 SR        000000000000 DENSO TEN (THAILAND)180LPLL0016016                                                                                                                              *          20180430 IMCT                IMCT                                                                                                                    WMF1804304.TXT
MDDDJ4299041201805                D89828070300PT1D20180505000060SPEAKER ASM                   M IMCTM S5NB082TNTH  07070IMCT  S5 PTB  00015                    0830 SR        000000000000 DENSO TEN (THAILAND)180LPFL0040040                                                                                                                              *          20180430 IMCT                IMCT                                                                                                                    WMF1804304.TXT
MDDDJ4299042201805                D89828070300PT1D20180505000060SPEAKER ASM                   M IMCTM S5NB082TNTH  07070IMCT  S5 PTB  00015                    1600 SR        000000000000 DENSO TEN (THAILAND)180LPGL0207207                                                                                                                              *          20180430 IMCT                IMCT                                                                                                                    WMF1804304.TXT
MDDDJ4299043201805                D89831228300PT1D20180505000030RADIO;AM/FM,CD                M IMCTM S5NC06 TNTH  07070IMCT  S5 CPB  00003                    0830 SR        000000000000 DENSO TEN (THAILAND)180LPFL0040040                                                                                                                              *          20180430 IMCT                IMCT                                                                                                                    WMF1804304.TXT
MDDDJ4299044201805                D89831228300PT1D20180505000030RADIO;AM/FM,CD                M IMCTM S5NC06 TNTH  07070IMCT  S5 CPB  00003                    1600 SR        000000000000 DENSO TEN (THAILAND)180LPGL0207207                                                                                                                              *          20180430 IMCT                IMCT                                                                                                                    WMF1804304.TXT
MDDDJ4299045201805                D89848581600PT1D20180505000030RADIO;AM/FM CD D              M IMCTM S5NC06 TNTH  07070IMCT  S5 PTB  00003                    0230 SR        000000000000 DENSO TEN (THAILAND)180LPLL0016016                                                                                                                              *          20180430 IMCT                IMCT                                                                                                                    WMF1804304.TXT
MDDUJ4243848201805                D89828070100PT4U20180505000030SPEAKER ASM                   M IMCTM S0FL05 TNTH  07070IMCT  S0 PTB  00004                    1030 SR        000000000000 DENSO TEN (THAILAND)180LUSU0060060                                                                                                                              *          20180430 IMCT                IMCT                                                                                                                    WMF1804304.TXT
MDDUJ4243849201805                D89828070100PT4U20180505000030SPEAKER ASM                   M IMCTM S0FL05 TNTH  07070IMCT  S0 PTB  00004                    2100 SR        000000000000 DENSO TEN (THAILAND)180LUTU0037037                                                                                                                              *          20180430 IMCT                IMCT                                                                                                                    WMF1804304.TXT
MDDUJ4243850201805                D89828070200PV4U20180505000030SPEAKER ASM                   M IMCTM S0FR05 TNTH  07070IMCT  S0 PTB  00005                    1030 SR        000000000000 DENSO TEN (THAILAND)180LUSU0060060                                                                                                                              *          20180430 IMCT                IMCT                                                                                                                    WMF1804304.TXT
MDDUJ4243851201805                D89828070200PV4U20180505000030SPEAKER ASM                   M IMCTM S0FR05 TNTH  07070IMCT  S0 PTB  00005                    2100 SR        000000000000 DENSO TEN (THAILAND)180LUTU0037037                                                                                                                              *          20180430 IMCT                IMCT                                                                                                                    WMF1804304.TXT
MDDUJ4243852201805                D89828070300PT4U20180505000030SPEAKER ASM                   M IMCTM S9TS02 TNTH  07070IMCT  S9 PTB  00015                    1030 SR        000000000000 DENSO TEN (THAILAND)180LUSU0060060                                                                                                                              *          20180430 IMCT                IMCT                                                                                                                    WMF1804304.TXT
MDDUJ4243853201805                D89828070300PT4U20180505000030SPEAKER ASM                   M IMCTM S9TS02 TNTH  07070IMCT  S9 PTB  00015                    2100 SR        000000000000 DENSO TEN (THAILAND)180LUTU0037037                                                                                                                              *          20180430 IMCT                IMCT                                                                                                                    WMF1804304.TXT
MDEDJ4293483201805                D89828070100PV1D20180504000060SPEAKER ASM                   M IMCTM S5MB11 TNTH  07070IMCT  S5 PTB  00004                    2230 SR        000000000000 DENSO TEN (THAILAND)170C77L000200217047RL0010010                                                                                                                *          20180430 IMCT                IMCT                                                                                                                    WMF1804304.TXT
MDEDJ4293484201805                D89828070100PV1D20180505000030SPEAKER ASM                   M IMCTM S5MB11 TNTH  07070IMCT  S5 PTB  00004                    0230 SR        000000000000 DENSO TEN (THAILAND)17047RL0011011                                                                                                                              *          20180430 IMCT                IMCT                                                                                                                    WMF1804304.TXT
MDEDJ4293485201805                D89828070100PV1D20180505000060SPEAKER ASM                   M IMCTM S5MB11 TNTH  07070IMCT  S5 PTB  00004                    1300 SR        000000000000 DENSO TEN (THAILAND)18098UL0044045                                                                                                                              *          20180430 IMCT                IMCT                                                                                                                    WMF1804304.TXT
MDEDJ4293486201805                D89828070100PV1D20180505000030SPEAKER ASM                   M IMCTM S5MB11 TNTH  07070IMCT  S5 PTB  00004                    2230 SR        000000000000 DENSO TEN (THAILAND)17046QL0042042                                                                                                                              *          20180430 IMCT                IMCT                                                                                                                    WMF1804304.TXT
MDEDJ4293487201805                D89828070100PV4D20180505000030SPEAKER ASM                   M IMCTM S0FL05 TNTH  07070IMCT  S0 PTB  00004                    0230 SR        000000000000 DENSO TEN (THAILAND)18063UU0026026                                                                                                                              *          20180430 IMCT                IMCT                                                                                                                    WMF1804304.TXT
MDEDJ4293488201805                D89828070100PV4D20180505000030SPEAKER ASM                   M IMCTM S0FL05 TNTH  07070IMCT  S0 PTB  00004                    0830 SR        000000000000 DENSO TEN (THAILAND)18063UU0027027                                                                                                                              *          20180430 IMCT                IMCT                                                                                                                    WMF1804304.TXT
MDEDJ4293489201805                D89828070100PV4D20180505000060SPEAKER ASM                   M IMCTM S0FL05 TNTH  07070IMCT  S0 PTB  00004                    1300 SR        000000000000 DENSO TEN (THAILAND)18061UU002002018082UU0004004                                                                                                                *          20180430 IMCT                IMCT                                                                                                                    WMF1804304.TXT
MDEDJ4293490201805                D89828070100PV4D20180505000030SPEAKER ASM                   M IMCTM S0FL05 TNTH  07070IMCT  S0 PTB  00004                    2100 SR        000000000000 DENSO TEN (THAILAND)18068UU0010010                                                                                                                              *          20180430 IMCT                IMCT                                                                                                                    WMF1804304.TXT
MDEDJ4293491201805                D89828070100PV4D20180505000030SPEAKER ASM                   M IMCTM S0FL05 TNTH  07070IMCT  S0 PTB  00004                    2230 SR        000000000000 DENSO TEN (THAILAND)18082UU0005005                                                                                                                              *          20180430 IMCT                IMCT                                                                                                                    WMF1804304.TXT
MDEDJ4293492201805                D89828070200PV1D20180504000060SPEAKER ASM                   M IMCTM S5MA14 TNTH  07070IMCT  S5 PTB  00005                    2230 SR        000000000000 DENSO TEN (THAILAND)170C77L000200217047RL0010010                                                                                                                *          20180430 IMCT                IMCT                                                                                                                    WMF1804304.TXT
MDEDJ4293493201805                D89828070200PV1D20180505000030SPEAKER ASM                   M IMCTM S5MA14 TNTH  07070IMCT  S5 PTB  00005                    0230 SR        000000000000 DENSO TEN (THAILAND)17047RL0011011                                                                                                                              *          20180430 IMCT                IMCT                                                                                                                    WMF1804304.TXT
MDEDJ4293494201805                D89828070200PV1D20180505000060SPEAKER ASM                   M IMCTM S5MA14 TNTH  07070IMCT  S5 PTB  00005                    1300 SR        000000000000 DENSO TEN (THAILAND)18098UL0044045                                                                                                                              *          20180430 IMCT                IMCT                                                                                                                    WMF1804304.TXT
MDEDJ4293495201805                D89828070200PV1D20180505000030SPEAKER ASM                   M IMCTM S5MA14 TNTH  07070IMCT  S5 PTB  00005                    2230 SR        000000000000 DENSO TEN (THAILAND)17046QL0042042                                                                                                                              *          20180430 IMCT                IMCT                                                                                                                    WMF1804304.TXT
MDEDJ4293496201805                D89828070200PV4D20180505000030SPEAKER ASM                   M IMCTM S0FR05 TNTH  07070IMCT  S0 PTB  00005                    1300 SR        000000000000 DENSO TEN (THAILAND)18082UU0004004                                                                                                                              *          20180430 IMCT                IMCT                                                                                                                    WMF1804304.TXT
MDEDJ4293497201805                D89828070200PV4D20180505000030SPEAKER ASM                   M IMCTM S0FR05 TNTH  07070IMCT  S0 PTB  00005                    2100 SR        000000000000 DENSO TEN (THAILAND)18068UU0010010                                                                                                                              *          20180430 IMCT                IMCT                                                                                                                    WMF1804304.TXT
MDEDJ4293498201805                D89828070200PV4D20180505000030SPEAKER ASM                   M IMCTM S0FR05 TNTH  07070IMCT  S0 PTB  00005                    2230 SR        000000000000 DENSO TEN (THAILAND)18082UU0005005                                                                                                                              *          20180430 IMCT                IMCT                                                                                                                    WMF1804304.TXT
MDEDJ4293499201805                D89828070300PT1D20180504000060SPEAKER ASM                   M IMCTM S5NB082TNTH  07070IMCT  S5 PTB  00015                    2230 SR        000000000000 DENSO TEN (THAILAND)170C77L000200217047RL0010010                                                                                                                *          20180430 IMCT                IMCT                                                                                                                    WMF1804304.TXT
MDEDJ4293500201805                D89828070300PT1D20180505000030SPEAKER ASM                   M IMCTM S5NB082TNTH  07070IMCT  S5 PTB  00015                    0230 SR        000000000000 DENSO TEN (THAILAND)17047RL0011011                                                                                                                              *          20180430 IMCT                IMCT                                                                                                                    WMF1804304.TXT
MDEDJ4293501201805                D89828070300PT1D20180505000060SPEAKER ASM                   M IMCTM S5NB082TNTH  07070IMCT  S5 PTB  00015                    1300 SR        000000000000 DENSO TEN (THAILAND)18098UL0044045                                                                                                                              *          20180430 IMCT                IMCT                                                                                                                    WMF1804304.TXT
MDEDJ4293502201805                D89828070300PT1D20180505000030SPEAKER ASM                   M IMCTM S5NB082TNTH  07070IMCT  S5 PTB  00015                    2230 SR        000000000000 DENSO TEN (THAILAND)17046QL0042042                                                                                                                              *          20180430 IMCT                IMCT                                                                                                                    WMF1804304.TXT
MDEDJ4293503201805                D89828070300PT4D20180505000030SPEAKER ASM                   M IMCTM S9TS02 TNTH  07070IMCT  S9 PTB  00015                    0230 SR        000000000000 DENSO TEN (THAILAND)18063UU0026026                                                                                                                              *          20180430 IMCT                IMCT                                                                                                                    WMF1804304.TXT
MDEDJ4293504201805                D89828070300PT4D20180505000030SPEAKER ASM                   M IMCTM S9TS02 TNTH  07070IMCT  S9 PTB  00015                    0830 SR        000000000000 DENSO TEN (THAILAND)18063UU0027027                                                                                                                              *          20180430 IMCT                IMCT                                                                                                                    WMF1804304.TXT
MDEDJ4293505201805                D89828070300PT4D20180505000060SPEAKER ASM                   M IMCTM S9TS02 TNTH  07070IMCT  S9 PTB  00015                    1300 SR        000000000000 DENSO TEN (THAILAND)18061UU002002018082UU0004004                                                                                                                *          20180430 IMCT                IMCT                                                                                                                    WMF1804304.TXT
MDEDJ4293506201805                D89828070300PT4D20180505000030SPEAKER ASM                   M IMCTM S9TS02 TNTH  07070IMCT  S9 PTB  00015                    2100 SR        000000000000 DENSO TEN (THAILAND)18068UU0010010                                                                                                                              *          20180430 IMCT                IMCT                                                                                                                    WMF1804304.TXT
MDEDJ4293507201805                D89828070300PT4D20180505000030SPEAKER ASM                   M IMCTM S9TS02 TNTH  07070IMCT  S9 PTB  00015                    2230 SR        000000000000 DENSO TEN (THAILAND)18082UU0005005                                                                                                                              *          20180430 IMCT                IMCT                                                                                                                    WMF1804304.TXT
MDEDJ4293508201805                D89831229000PT1D20180504000030RADIO;AM/FM,CD                M IMCTM S5NC06 TNTH  07070IMCT  S5 PTB  00003                    2230 SR        000000000000 DENSO TEN (THAILAND)170C77L000200217047RL0010010                                                                                                                *          20180430 IMCT                IMCT                                                                                                                    WMF1804304.TXT
MDEDJ4293509201805                D89831229000PT1D20180505000015RADIO;AM/FM,CD                M IMCTM S5NC06 TNTH  07070IMCT  S5 PTB  00003                    0230 SR        000000000000 DENSO TEN (THAILAND)17047RL0011011                                                                                                                              *          20180430 IMCT                IMCT                                                                                                                    WMF1804304.TXT
MDEDJ4293510201805                D89848581800PT1D20180505000030RADIO;AM/FM CD D              M IMCTM S5NC06 TNTH  07070IMCT  S5 PTB  00003                    1300 SR        000000000000 DENSO TEN (THAILAND)18098UL0044045                                                                                                                              *          20180430 IMCT                IMCT                                                                                                                    WMF1804304.TXT
MDEDJ4293511201805                D89848581800PT4D20180505000015RADIO;AM/FM CD D              M IMCTM S9CO001TNTH  07070IMCT  S9 PTB  00003                    0230 SR        000000000000 DENSO TEN (THAILAND)18063UU0026026                                                                                                                              *          20180430 IMCT                IMCT                                                                                                                    WMF1804304.TXT
MDEDJ4293512201805                D89848581800PT4D20180505000015RADIO;AM/FM CD D              M IMCTM S9CO001TNTH  07070IMCT  S9 PTB  00003                    0830 SR        000000000000 DENSO TEN (THAILAND)18063UU0027027                                                                                                                              *          20180430 IMCT                IMCT                                                                                                                    WMF1804304.TXT
MDEDJ4293513201805                D89848581800PT4D20180505000030RADIO;AM/FM CD D              M IMCTM S9CO001TNTH  07070IMCT  S9 PTB  00003                    1300 SR        000000000000 DENSO TEN (THAILAND)18061UU002002018082UU0004004                                                                                                                *          20180430 IMCT                IMCT                                                                                                                    WMF1804304.TXT
MDEDJ4293514201805                D89848581800PT4D20180505000015RADIO;AM/FM CD D              M IMCTM S9CO001TNTH  07070IMCT  S9 PTB  00003                    2230 SR        000000000000 DENSO TEN (THAILAND)18082UU0005005                                                                                                                              *          20180430 IMCT                IMCT                                                                                                                    WMF1804304.TXT
MDEUJ4256659201805                D89828070100PT4U20180505000030SPEAKER ASM                   M IMCTM S0FL05 TNTH  07070IMCT  S0 PTB  00004                    0230 SR        000000000000 DENSO TEN (THAILAND)18060UU0008008                                                                                                                              *          20180430 IMCT                IMCT                                                                                                                    WMF1804304.TXT
MDEUJ4256660201805                D89828070100PT4U20180505000030SPEAKER ASM                   M IMCTM S0FL05 TNTH  07070IMCT  S0 PTB  00004                    0400 SR        000000000000 DENSO TEN (THAILAND)18020UU0056056                                                                                                                              *          20180430 IMCT                IMCT                                                                                                                    WMF1804304.TXT
MDEUJ4256661201805                D89828070100PT4U20180505000030SPEAKER ASM                   M IMCTM S0FL05 TNTH  07070IMCT  S0 PTB  00004                    1300 SR        000000000000 DENSO TEN (THAILAND)18015UU0024024                                                                                                                              *          20180430 IMCT                IMCT                                                                                                                    WMF1804304.TXT
MDEUJ4256662201805                D89828070200PV4U20180505000030SPEAKER ASM                   M IMCTM S0FR05 TNTH  07070IMCT  S0 PTB  00005                    0230 SR        000000000000 DENSO TEN (THAILAND)18060UU0008008                                                                                                                              *          20180430 IMCT                IMCT                                                                                                                    WMF1804304.TXT
MDEUJ4256663201805                D89828070200PV4U20180505000030SPEAKER ASM                   M IMCTM S0FR05 TNTH  07070IMCT  S0 PTB  00005                    0400 SR        000000000000 DENSO TEN (THAILAND)18020UU0056056                                                                                                                              *          20180430 IMCT                IMCT                                                                                                                    WMF1804304.TXT
MDEUJ4256664201805                D89828070200PV4U20180505000030SPEAKER ASM                   M IMCTM S0FR05 TNTH  07070IMCT  S0 PTB  00005                    1300 SR        000000000000 DENSO TEN (THAILAND)18015UU0024024                                                                                                                              *          20180430 IMCT                IMCT                                                                                                                    WMF1804304.TXT
MDEUJ4256665201805                D89828070300PT4U20180505000030SPEAKER ASM                   M IMCTM S9TS02 TNTH  07070IMCT  S9 PTB  00015                    0230 SR        000000000000 DENSO TEN (THAILAND)18060UU0008008                                                                                                                              *          20180430 IMCT                IMCT                                                                                                                    WMF1804304.TXT
MDEUJ4256666201805                D89828070300PT4U20180505000030SPEAKER ASM                   M IMCTM S9TS02 TNTH  07070IMCT  S9 PTB  00015                    0400 SR        000000000000 DENSO TEN (THAILAND)18020UU0056056                                                                                                                              *          20180430 IMCT                IMCT                                                                                                                    WMF1804304.TXT
MDEUJ4256667201805                D89828070300PT4U20180505000030SPEAKER ASM                   M IMCTM S9TS02 TNTH  07070IMCT  S9 PTB  00015                    1300 SR        000000000000 DENSO TEN (THAILAND)18015UU0024024                                                                                                                              *          20180430 IMCT                IMCT                                                                                                                    WMF1804304.TXT
MDEUJ4256668201805                D89848584400PT4U20180505000015RADIO;AM/FM CD D              M IMCTM S9CO001TNTH  07070IMCT  S9 PTB  00003                    0230 SR        000000000000 DENSO TEN (THAILAND)18060UU0008008                                                                                                                              *          20180430 IMCT                IMCT                                                                                                                    WMF1804304.TXT
