REC2018042620180426ISUZU                              65     
MDDDJ4280648201805                D89821984430PT1D20180501000030RADIO;AM/FM,CD                M IMCTM S5NC06 TNTH  07070IMCT  S5 PTB  00005                    0230 SR        000000000000 DENSO TEN (THAILAND)180LPAL0128128                                                                                                                              *          20180426 IMCT                IMCT                                                                                                                    WMF1804265.TXT
MDDDJ4280649201805                D89821984430PT1D20180502000030RADIO;AM/FM,CD                M IMCTM S5NC06 TNTH  07070IMCT  S5 PTB  00005                    1600 SR        000000000000 DENSO TEN (THAILAND)180LRAL0154154                                                                                                                              *          20180426 IMCT                IMCT                                                                                                                    WMF1804265.TXT
MDDDJ4280650201805                D89821984430PT1D20180502000030RADIO;AM/FM,CD                M IMCTM S5NC06 TNTH  07070IMCT  S5 PTB  00005                    2100 SR        000000000000 DENSO TEN (THAILAND)180LPBL0018018                                                                                                                              *          20180426 IMCT                IMCT                                                                                                                    WMF1804265.TXT
MDDDJ4280651201805                D89828070100PV1D20180430000060SPEAKER ASM                   M IMCTM S5MB11 TNTH  07070IMCT  S5 PTB  00004                    2230 SR        000000000000 DENSO TEN (THAILAND)180LPFL0037037                                                                                                                              *          20180426 IMCT                IMCT                                                                                                                    WMF1804265.TXT
MDDDJ4280652201805                D89828070100PV1D20180501000060SPEAKER ASM                   M IMCTM S5MB11 TNTH  07070IMCT  S5 PTB  00004                    0230 SR        000000000000 DENSO TEN (THAILAND)180LPAL0128128                                                                                                                              *          20180426 IMCT                IMCT                                                                                                                    WMF1804265.TXT
MDDDJ4280653201805                D89828070100PV1D20180502000060SPEAKER ASM                   M IMCTM S5MB11 TNTH  07070IMCT  S5 PTB  00004                    0830 SR        000000000000 DENSO TEN (THAILAND)180LPLL0015015                                                                                                                              *          20180426 IMCT                IMCT                                                                                                                    WMF1804265.TXT
MDDDJ4280654201805                D89828070100PV1D20180502000120SPEAKER ASM                   M IMCTM S5MB11 TNTH  07070IMCT  S5 PTB  00004                    1300 SR        000000000000 DENSO TEN (THAILAND)180LPCL0046046180LPDL0012012                                                                                                                *          20180426 IMCT                IMCT                                                                                                                    WMF1804265.TXT
MDDDJ4280655201805                D89828070100PV1D20180502000060SPEAKER ASM                   M IMCTM S5MB11 TNTH  07070IMCT  S5 PTB  00004                    1600 SR        000000000000 DENSO TEN (THAILAND)180LRAL0154154                                                                                                                              *          20180426 IMCT                IMCT                                                                                                                    WMF1804265.TXT
MDDDJ4280656201805                D89828070100PV1D20180502000060SPEAKER ASM                   M IMCTM S5MB11 TNTH  07070IMCT  S5 PTB  00004                    2100 SR        000000000000 DENSO TEN (THAILAND)180LPBL0018018                                                                                                                              *          20180426 IMCT                IMCT                                                                                                                    WMF1804265.TXT
MDDDJ4280657201805                D89828070300PT1D20180430000060SPEAKER ASM                   M IMCTM S5NB082TNTH  07070IMCT  S5 PTB  00015                    2230 SR        000000000000 DENSO TEN (THAILAND)180LPFL0037037                                                                                                                              *          20180426 IMCT                IMCT                                                                                                                    WMF1804265.TXT
MDDDJ4280658201805                D89828070300PT1D20180502000060SPEAKER ASM                   M IMCTM S5NB082TNTH  07070IMCT  S5 PTB  00015                    0830 SR        000000000000 DENSO TEN (THAILAND)180LPLL0015015                                                                                                                              *          20180426 IMCT                IMCT                                                                                                                    WMF1804265.TXT
MDDDJ4280659201805                D89828070300PT1D20180502000120SPEAKER ASM                   M IMCTM S5NB082TNTH  07070IMCT  S5 PTB  00015                    1300 SR        000000000000 DENSO TEN (THAILAND)180LPCL0046046180LPDL0012012                                                                                                                *          20180426 IMCT                IMCT                                                                                                                    WMF1804265.TXT
MDDDJ4280660201805                D89831228300PT1D20180430000030RADIO;AM/FM,CD                M IMCTM S5NC06 TNTH  07070IMCT  S5 CPB  00003                    2230 SR        000000000000 DENSO TEN (THAILAND)180LPFL0037037                                                                                                                              *          20180426 IMCT                IMCT                                                                                                                    WMF1804265.TXT
MDDDJ4280661201805                D89831228300PT1D20180502000060RADIO;AM/FM,CD                M IMCTM S5NC06 TNTH  07070IMCT  S5 CPB  00003                    1300 SR        000000000000 DENSO TEN (THAILAND)180LPCL0046046180LPDL0012012                                                                                                                *          20180426 IMCT                IMCT                                                                                                                    WMF1804265.TXT
MDDDJ4280662201805                D89848581600PT1D20180502000030RADIO;AM/FM CD D              M IMCTM S5NC06 TNTH  07070IMCT  S5 PTB  00003                    0830 SR        000000000000 DENSO TEN (THAILAND)180LPLL0015015                                                                                                                              *          20180426 IMCT                IMCT                                                                                                                    WMF1804265.TXT
MDDUJ4237138201805                D89828070100PT4U20180430000030SPEAKER ASM                   M IMCTM S0FL05 TNTH  07070IMCT  S0 PTB  00004                    2230 SR        000000000000 DENSO TEN (THAILAND)180LULU0032032                                                                                                                              *          20180426 IMCT                IMCT                                                                                                                    WMF1804265.TXT
MDDUJ4237139201805                D89828070100PT4U20180502000030SPEAKER ASM                   M IMCTM S0FL05 TNTH  07070IMCT  S0 PTB  00004                    0830 SR        000000000000 DENSO TEN (THAILAND)180LUSU0056056                                                                                                                              *          20180426 IMCT                IMCT                                                                                                                    WMF1804265.TXT
MDDUJ4237140201805                D89828070100PT4U20180502000030SPEAKER ASM                   M IMCTM S0FL05 TNTH  07070IMCT  S0 PTB  00004                    2100 SR        000000000000 DENSO TEN (THAILAND)180LUTU0035035                                                                                                                              *          20180426 IMCT                IMCT                                                                                                                    WMF1804265.TXT
MDDUJ4237141201805                D89828070200PV4U20180430000030SPEAKER ASM                   M IMCTM S0FR05 TNTH  07070IMCT  S0 PTB  00005                    2230 SR        000000000000 DENSO TEN (THAILAND)180LULU0032032                                                                                                                              *          20180426 IMCT                IMCT                                                                                                                    WMF1804265.TXT
MDDUJ4237142201805                D89828070200PV4U20180502000030SPEAKER ASM                   M IMCTM S0FR05 TNTH  07070IMCT  S0 PTB  00005                    0830 SR        000000000000 DENSO TEN (THAILAND)180LUSU0056056                                                                                                                              *          20180426 IMCT                IMCT                                                                                                                    WMF1804265.TXT
MDDUJ4237143201805                D89828070200PV4U20180502000030SPEAKER ASM                   M IMCTM S0FR05 TNTH  07070IMCT  S0 PTB  00005                    2100 SR        000000000000 DENSO TEN (THAILAND)180LUTU0035035                                                                                                                              *          20180426 IMCT                IMCT                                                                                                                    WMF1804265.TXT
MDDUJ4237144201805                D89828070300PT4U20180430000030SPEAKER ASM                   M IMCTM S9TS02 TNTH  07070IMCT  S9 PTB  00015                    2230 SR        000000000000 DENSO TEN (THAILAND)180LULU0032032                                                                                                                              *          20180426 IMCT                IMCT                                                                                                                    WMF1804265.TXT
MDDUJ4237145201805                D89828070300PT4U20180502000030SPEAKER ASM                   M IMCTM S9TS02 TNTH  07070IMCT  S9 PTB  00015                    0830 SR        000000000000 DENSO TEN (THAILAND)180LUSU0056056                                                                                                                              *          20180426 IMCT                IMCT                                                                                                                    WMF1804265.TXT
MDDUJ4237146201805                D89828070300PT4U20180502000030SPEAKER ASM                   M IMCTM S9TS02 TNTH  07070IMCT  S9 PTB  00015                    2100 SR        000000000000 DENSO TEN (THAILAND)180LUTU0035035                                                                                                                              *          20180426 IMCT                IMCT                                                                                                                    WMF1804265.TXT
MDEDJ4275701201805                D89828070100PV1D20180430000030SPEAKER ASM                   M IMCTM S5MB11 TNTH  07070IMCT  S5 PTB  00004                    2230 SR        000000000000 DENSO TEN (THAILAND)18059XL0005005                                                                                                                              *          20180426 IMCT                IMCT                                                                                                                    WMF1804265.TXT
MDEDJ4275702201805                D89828070100PV1D20180501000030SPEAKER ASM                   M IMCTM S5MB11 TNTH  07070IMCT  S5 PTB  00004                    0230 SR        000000000000 DENSO TEN (THAILAND)18059XL0006006                                                                                                                              *          20180426 IMCT                IMCT                                                                                                                    WMF1804265.TXT
MDEDJ4275703201805                D89828070100PV1D20180501000060SPEAKER ASM                   M IMCTM S5MB11 TNTH  07070IMCT  S5 PTB  00004                    0400 SR        000000000000 DENSO TEN (THAILAND)18072WL0002003                                                                                                                              *          20180426 IMCT                IMCT                                                                                                                    WMF1804265.TXT
MDEDJ4275704201805                D89828070100PV1D20180502000030SPEAKER ASM                   M IMCTM S5MB11 TNTH  07070IMCT  S5 PTB  00004                    0830 SR        000000000000 DENSO TEN (THAILAND)18065UL0014014                                                                                                                              *          20180426 IMCT                IMCT                                                                                                                    WMF1804265.TXT
MDEDJ4275705201805                D89828070100PV1D20180502000060SPEAKER ASM                   M IMCTM S5MB11 TNTH  07070IMCT  S5 PTB  00004                    1030 SR        000000000000 DENSO TEN (THAILAND)18079UL0004005                                                                                                                              *          20180426 IMCT                IMCT                                                                                                                    WMF1804265.TXT
MDEDJ4275706201805                D89828070100PV1D20180502000060SPEAKER ASM                   M IMCTM S5MB11 TNTH  07070IMCT  S5 PTB  00004                    2100 SR        000000000000 DENSO TEN (THAILAND)18080UL0026027                                                                                                                              *          20180426 IMCT                IMCT                                                                                                                    WMF1804265.TXT
MDEDJ4275707201805                D89828070100PV4D20180501000030SPEAKER ASM                   M IMCTM S0FL05 TNTH  07070IMCT  S0 PTB  00004                    0230 SR        000000000000 DENSO TEN (THAILAND)18001VU0006006                                                                                                                              *          20180426 IMCT                IMCT                                                                                                                    WMF1804265.TXT
MDEDJ4275708201805                D89828070100PV4D20180502000030SPEAKER ASM                   M IMCTM S0FL05 TNTH  07070IMCT  S0 PTB  00004                    0830 SR        000000000000 DENSO TEN (THAILAND)18061UU0019019                                                                                                                              *          20180426 IMCT                IMCT                                                                                                                    WMF1804265.TXT
MDEDJ4275709201805                D89828070100PV4D20180502000030SPEAKER ASM                   M IMCTM S0FL05 TNTH  07070IMCT  S0 PTB  00004                    1030 SR        000000000000 DENSO TEN (THAILAND)18068UU0008008                                                                                                                              *          20180426 IMCT                IMCT                                                                                                                    WMF1804265.TXT
MDEDJ4275710201805                D89828070100PV4D20180502000030SPEAKER ASM                   M IMCTM S0FL05 TNTH  07070IMCT  S0 PTB  00004                    1300 SR        000000000000 DENSO TEN (THAILAND)18064UU0005005                                                                                                                              *          20180426 IMCT                IMCT                                                                                                                    WMF1804265.TXT
MDEDJ4275711201805                D89828070200PV1D20180430000030SPEAKER ASM                   M IMCTM S5MA14 TNTH  07070IMCT  S5 PTB  00005                    2230 SR        000000000000 DENSO TEN (THAILAND)18059XL0005005                                                                                                                              *          20180426 IMCT                IMCT                                                                                                                    WMF1804265.TXT
MDEDJ4275712201805                D89828070200PV1D20180501000030SPEAKER ASM                   M IMCTM S5MA14 TNTH  07070IMCT  S5 PTB  00005                    0230 SR        000000000000 DENSO TEN (THAILAND)18059XL0006006                                                                                                                              *          20180426 IMCT                IMCT                                                                                                                    WMF1804265.TXT
MDEDJ4275713201805                D89828070200PV1D20180502000030SPEAKER ASM                   M IMCTM S5MA14 TNTH  07070IMCT  S5 PTB  00005                    0830 SR        000000000000 DENSO TEN (THAILAND)18065UL0014014                                                                                                                              *          20180426 IMCT                IMCT                                                                                                                    WMF1804265.TXT
MDEDJ4275714201805                D89828070200PV1D20180502000060SPEAKER ASM                   M IMCTM S5MA14 TNTH  07070IMCT  S5 PTB  00005                    1030 SR        000000000000 DENSO TEN (THAILAND)18079UL0004005                                                                                                                              *          20180426 IMCT                IMCT                                                                                                                    WMF1804265.TXT
MDEDJ4275715201805                D89828070200PV1D20180502000060SPEAKER ASM                   M IMCTM S5MA14 TNTH  07070IMCT  S5 PTB  00005                    2100 SR        000000000000 DENSO TEN (THAILAND)18080UL0026027                                                                                                                              *          20180426 IMCT                IMCT                                                                                                                    WMF1804265.TXT
MDEDJ4275716201805                D89828070200PV4D20180501000030SPEAKER ASM                   M IMCTM S0FR05 TNTH  07070IMCT  S0 PTB  00005                    0230 SR        000000000000 DENSO TEN (THAILAND)18001VU0006006                                                                                                                              *          20180426 IMCT                IMCT                                                                                                                    WMF1804265.TXT
MDEDJ4275717201805                D89828070200PV4D20180502000030SPEAKER ASM                   M IMCTM S0FR05 TNTH  07070IMCT  S0 PTB  00005                    1030 SR        000000000000 DENSO TEN (THAILAND)18068UU0008008                                                                                                                              *          20180426 IMCT                IMCT                                                                                                                    WMF1804265.TXT
MDEDJ4275718201805                D89828070300PT1D20180430000030SPEAKER ASM                   M IMCTM S5NB082TNTH  07070IMCT  S5 PTB  00015                    2230 SR        000000000000 DENSO TEN (THAILAND)18059XL0005005                                                                                                                              *          20180426 IMCT                IMCT                                                                                                                    WMF1804265.TXT
MDEDJ4275719201805                D89828070300PT1D20180501000030SPEAKER ASM                   M IMCTM S5NB082TNTH  07070IMCT  S5 PTB  00015                    0230 SR        000000000000 DENSO TEN (THAILAND)18059XL0006006                                                                                                                              *          20180426 IMCT                IMCT                                                                                                                    WMF1804265.TXT
MDEDJ4275720201805                D89828070300PT1D20180502000030SPEAKER ASM                   M IMCTM S5NB082TNTH  07070IMCT  S5 PTB  00015                    0830 SR        000000000000 DENSO TEN (THAILAND)18065UL0014014                                                                                                                              *          20180426 IMCT                IMCT                                                                                                                    WMF1804265.TXT
MDEDJ4275721201805                D89828070300PT1D20180502000060SPEAKER ASM                   M IMCTM S5NB082TNTH  07070IMCT  S5 PTB  00015                    1030 SR        000000000000 DENSO TEN (THAILAND)18079UL0004005                                                                                                                              *          20180426 IMCT                IMCT                                                                                                                    WMF1804265.TXT
MDEDJ4275722201805                D89828070300PT1D20180502000060SPEAKER ASM                   M IMCTM S5NB082TNTH  07070IMCT  S5 PTB  00015                    2100 SR        000000000000 DENSO TEN (THAILAND)18080UL0026027                                                                                                                              *          20180426 IMCT                IMCT                                                                                                                    WMF1804265.TXT
MDEDJ4275723201805                D89828070300PT4D20180501000030SPEAKER ASM                   M IMCTM S9TS02 TNTH  07070IMCT  S9 PTB  00015                    0230 SR        000000000000 DENSO TEN (THAILAND)18001VU0006006                                                                                                                              *          20180426 IMCT                IMCT                                                                                                                    WMF1804265.TXT
MDEDJ4275724201805                D89828070300PT4D20180502000030SPEAKER ASM                   M IMCTM S9TS02 TNTH  07070IMCT  S9 PTB  00015                    0830 SR        000000000000 DENSO TEN (THAILAND)18061UU0019019                                                                                                                              *          20180426 IMCT                IMCT                                                                                                                    WMF1804265.TXT
MDEDJ4275725201805                D89828070300PT4D20180502000030SPEAKER ASM                   M IMCTM S9TS02 TNTH  07070IMCT  S9 PTB  00015                    1030 SR        000000000000 DENSO TEN (THAILAND)18068UU0008008                                                                                                                              *          20180426 IMCT                IMCT                                                                                                                    WMF1804265.TXT
MDEDJ4275726201805                D89828070300PT4D20180502000030SPEAKER ASM                   M IMCTM S9TS02 TNTH  07070IMCT  S9 PTB  00015                    1300 SR        000000000000 DENSO TEN (THAILAND)18064UU0005005                                                                                                                              *          20180426 IMCT                IMCT                                                                                                                    WMF1804265.TXT
MDEDJ4275727201805                D89848581800PT1D20180502000015RADIO;AM/FM CD D              M IMCTM S5NC06 TNTH  07070IMCT  S5 PTB  00003                    0830 SR        000000000000 DENSO TEN (THAILAND)18065UL0014014                                                                                                                              *          20180426 IMCT                IMCT                                                                                                                    WMF1804265.TXT
MDEDJ4275728201805                D89848581800PT1D20180502000030RADIO;AM/FM CD D              M IMCTM S5NC06 TNTH  07070IMCT  S5 PTB  00003                    1030 SR        000000000000 DENSO TEN (THAILAND)18079UL0004005                                                                                                                              *          20180426 IMCT                IMCT                                                                                                                    WMF1804265.TXT
MDEDJ4275729201805                D89848581800PT1D20180502000030RADIO;AM/FM CD D              M IMCTM S5NC06 TNTH  07070IMCT  S5 PTB  00003                    2100 SR        000000000000 DENSO TEN (THAILAND)18080UL0026027                                                                                                                              *          20180426 IMCT                IMCT                                                                                                                    WMF1804265.TXT
MDEDJ4275730201805                D89848581800PT4D20180502000015RADIO;AM/FM CD D              M IMCTM S9CO001TNTH  07070IMCT  S9 PTB  00003                    0830 SR        000000000000 DENSO TEN (THAILAND)18061UU0019019                                                                                                                              *          20180426 IMCT                IMCT                                                                                                                    WMF1804265.TXT
MDEDJ4275731201805                D89848582500PT4D20180502000015RADIO;AM/FM CD D              M IMCTM S9CO001TNTH  07070IMCT  S9 PTB  00003                    1300 SR        000000000000 DENSO TEN (THAILAND)18064UU0005005                                                                                                                              *          20180426 IMCT                IMCT                                                                                                                    WMF1804265.TXT
MDEUJ4248488201805                D89828070100PT4U20180501000030SPEAKER ASM                   M IMCTM S0FL05 TNTH  07070IMCT  S0 PTB  00004                    0230 SR        000000000000 DENSO TEN (THAILAND)18015UU0021021                                                                                                                              *          20180426 IMCT                IMCT                                                                                                                    WMF1804265.TXT
MDEUJ4248489201805                D89828070100PT4U20180502000060SPEAKER ASM                   M IMCTM S0FL05 TNTH  07070IMCT  S0 PTB  00004                    1300 SR        000000000000 DENSO TEN (THAILAND)18025UU005905918060UU0007007                                                                                                                *          20180426 IMCT                IMCT                                                                                                                    WMF1804265.TXT
MDEUJ4248490201805                D89828070100PT4U20180502000030SPEAKER ASM                   M IMCTM S0FL05 TNTH  07070IMCT  S0 PTB  00004                    2230 SR        000000000000 DENSO TEN (THAILAND)18020UU0053053                                                                                                                              *          20180426 IMCT                IMCT                                                                                                                    WMF1804265.TXT
MDEUJ4248491201805                D89828070200PV4U20180501000030SPEAKER ASM                   M IMCTM S0FR05 TNTH  07070IMCT  S0 PTB  00005                    0230 SR        000000000000 DENSO TEN (THAILAND)18015UU0021021                                                                                                                              *          20180426 IMCT                IMCT                                                                                                                    WMF1804265.TXT
MDEUJ4248492201805                D89828070200PV4U20180502000060SPEAKER ASM                   M IMCTM S0FR05 TNTH  07070IMCT  S0 PTB  00005                    1300 SR        000000000000 DENSO TEN (THAILAND)18025UU005905918060UU0007007                                                                                                                *          20180426 IMCT                IMCT                                                                                                                    WMF1804265.TXT
MDEUJ4248493201805                D89828070200PV4U20180502000030SPEAKER ASM                   M IMCTM S0FR05 TNTH  07070IMCT  S0 PTB  00005                    2230 SR        000000000000 DENSO TEN (THAILAND)18020UU0053053                                                                                                                              *          20180426 IMCT                IMCT                                                                                                                    WMF1804265.TXT
MDEUJ4248494201805                D89828070300PT4U20180501000030SPEAKER ASM                   M IMCTM S9TS02 TNTH  07070IMCT  S9 PTB  00015                    0230 SR        000000000000 DENSO TEN (THAILAND)18015UU0021021                                                                                                                              *          20180426 IMCT                IMCT                                                                                                                    WMF1804265.TXT
MDEUJ4248495201805                D89828070300PT4U20180502000060SPEAKER ASM                   M IMCTM S9TS02 TNTH  07070IMCT  S9 PTB  00015                    1300 SR        000000000000 DENSO TEN (THAILAND)18025UU005905918060UU0007007                                                                                                                *          20180426 IMCT                IMCT                                                                                                                    WMF1804265.TXT
MDEUJ4248496201805                D89828070300PT4U20180502000030SPEAKER ASM                   M IMCTM S9TS02 TNTH  07070IMCT  S9 PTB  00015                    2230 SR        000000000000 DENSO TEN (THAILAND)18020UU0053053                                                                                                                              *          20180426 IMCT                IMCT                                                                                                                    WMF1804265.TXT
MDEUJ4248497201805                D89848584400PT4U20180502000015RADIO;AM/FM CD D              M IMCTM S9CO001TNTH  07070IMCT  S9 PTB  00003                    1300 SR        000000000000 DENSO TEN (THAILAND)18060UU0007007                                                                                                                              *          20180426 IMCT                IMCT                                                                                                                    WMF1804265.TXT
