REC2018052820180528ISUZU                              62     
MDDDJ5343559201806                D89821984430PT1D20180602000030RADIO;AM/FM,CD                M IMCTM S5NC06 TNTH  07070IMCT  S5 PTB  00005                    0230 SR        000000000000 DENSO TEN (THAILAND)180LNGL0133133                                                                                                                              *          20180528 IMCT                IMCT                                                                                                                    WMF1805284.TXT
MDDDJ5343560201806                D89821984430PT1D20180602000030RADIO;AM/FM,CD                M IMCTM S5NC06 TNTH  07070IMCT  S5 PTB  00005                    1030 SR        000000000000 DENSO TEN (THAILAND)180LRAL0176176                                                                                                                              *          20180528 IMCT                IMCT                                                                                                                    WMF1805284.TXT
MDDDJ5343561201806                D89821984430PT1D20180602000030RADIO;AM/FM,CD                M IMCTM S5NC06 TNTH  07070IMCT  S5 PTB  00005                    1300 SR        000000000000 DENSO TEN (THAILAND)180LNGL0134134                                                                                                                              *          20180528 IMCT                IMCT                                                                                                                    WMF1805284.TXT
MDDDJ5343562201806                D89821984430PT1D20180602000030RADIO;AM/FM,CD                M IMCTM S5NC06 TNTH  07070IMCT  S5 PTB  00005                    1600 SR        000000000000 DENSO TEN (THAILAND)180LRBL0040040                                                                                                                              *          20180528 IMCT                IMCT                                                                                                                    WMF1805284.TXT
MDDDJ5343563201806                D89828070100PV1D20180602000060SPEAKER ASM                   M IMCTM S5MB11 TNTH  07070IMCT  S5 PTB  00004                    0230 SR        000000000000 DENSO TEN (THAILAND)180LNGL0133133                                                                                                                              *          20180528 IMCT                IMCT                                                                                                                    WMF1805284.TXT
MDDDJ5343564201806                D89828070100PV1D20180602000060SPEAKER ASM                   M IMCTM S5MB11 TNTH  07070IMCT  S5 PTB  00004                    0400 SR        000000000000 DENSO TEN (THAILAND)180LPFL0048048                                                                                                                              *          20180528 IMCT                IMCT                                                                                                                    WMF1805284.TXT
MDDDJ5343565201806                D89828070100PV1D20180602000060SPEAKER ASM                   M IMCTM S5MB11 TNTH  07070IMCT  S5 PTB  00004                    1030 SR        000000000000 DENSO TEN (THAILAND)180LRAL0176176                                                                                                                              *          20180528 IMCT                IMCT                                                                                                                    WMF1805284.TXT
MDDDJ5343566201806                D89828070100PV1D20180602000060SPEAKER ASM                   M IMCTM S5MB11 TNTH  07070IMCT  S5 PTB  00004                    1300 SR        000000000000 DENSO TEN (THAILAND)180LNGL0134134                                                                                                                              *          20180528 IMCT                IMCT                                                                                                                    WMF1805284.TXT
MDDDJ5343567201806                D89828070100PV1D20180602000060SPEAKER ASM                   M IMCTM S5MB11 TNTH  07070IMCT  S5 PTB  00004                    1600 SR        000000000000 DENSO TEN (THAILAND)180LRBL0040040                                                                                                                              *          20180528 IMCT                IMCT                                                                                                                    WMF1805284.TXT
MDDDJ5343568201806                D89828070100PV1D20180602000060SPEAKER ASM                   M IMCTM S5MB11 TNTH  07070IMCT  S5 PTB  00004                    2100 SR        000000000000 DENSO TEN (THAILAND)180LPQL0027027                                                                                                                              *          20180528 IMCT                IMCT                                                                                                                    WMF1805284.TXT
MDDDJ5343569201806                D89828070100PV1D20180602000060SPEAKER ASM                   M IMCTM S5MB11 TNTH  07070IMCT  S5 PTB  00004                    2230 SR        000000000000 DENSO TEN (THAILAND)180LXBL0010010                                                                                                                              *          20180528 IMCT                IMCT                                                                                                                    WMF1805284.TXT
MDDDJ5343570201806                D89828070300PT1D20180602000060SPEAKER ASM                   M IMCTM S5NB082TNTH  07070IMCT  S5 PTB  00015                    0400 SR        000000000000 DENSO TEN (THAILAND)180LPFL0048048                                                                                                                              *          20180528 IMCT                IMCT                                                                                                                    WMF1805284.TXT
MDDDJ5343571201806                D89828070300PT1D20180602000060SPEAKER ASM                   M IMCTM S5NB082TNTH  07070IMCT  S5 PTB  00015                    2100 SR        000000000000 DENSO TEN (THAILAND)180LPQL0027027                                                                                                                              *          20180528 IMCT                IMCT                                                                                                                    WMF1805284.TXT
MDDDJ5343572201806                D89831228300PT1D20180602000030RADIO;AM/FM,CD                M IMCTM S5NC06 TNTH  07070IMCT  S5 CPB  00003                    0400 SR        000000000000 DENSO TEN (THAILAND)180LPFL0048048                                                                                                                              *          20180528 IMCT                IMCT                                                                                                                    WMF1805284.TXT
MDDDJ5343573201806                D89848581600PT1D20180602000030RADIO;AM/FM CD D              M IMCTM S5NC06 TNTH  07070IMCT  S5 PTB  00003                    2100 SR        000000000000 DENSO TEN (THAILAND)180LPQL0027027                                                                                                                              *          20180528 IMCT                IMCT                                                                                                                    WMF1805284.TXT
MDDUJ5245158201806                D89828070100PT4U20180602000030SPEAKER ASM                   M IMCTM S0FL05 TNTH  07070IMCT  S0 PTB  00004                    0230 SR        000000000000 DENSO TEN (THAILAND)180LULU0039039                                                                                                                              *          20180528 IMCT                IMCT                                                                                                                    WMF1805284.TXT
MDDUJ5245159201806                D89828070100PT4U20180602000030SPEAKER ASM                   M IMCTM S0FL05 TNTH  07070IMCT  S0 PTB  00004                    1030 SR        000000000000 DENSO TEN (THAILAND)180LUQU0043043                                                                                                                              *          20180528 IMCT                IMCT                                                                                                                    WMF1805284.TXT
MDDUJ5245160201806                D89828070100PT4U20180602000030SPEAKER ASM                   M IMCTM S0FL05 TNTH  07070IMCT  S0 PTB  00004                    1600 SR        000000000000 DENSO TEN (THAILAND)180LUSU0081081                                                                                                                              *          20180528 IMCT                IMCT                                                                                                                    WMF1805284.TXT
MDDUJ5245161201806                D89828070200PV4U20180602000030SPEAKER ASM                   M IMCTM S0FR05 TNTH  07070IMCT  S0 PTB  00005                    0230 SR        000000000000 DENSO TEN (THAILAND)180LULU0039039                                                                                                                              *          20180528 IMCT                IMCT                                                                                                                    WMF1805284.TXT
MDDUJ5245162201806                D89828070200PV4U20180602000030SPEAKER ASM                   M IMCTM S0FR05 TNTH  07070IMCT  S0 PTB  00005                    1030 SR        000000000000 DENSO TEN (THAILAND)180LUQU0043043                                                                                                                              *          20180528 IMCT                IMCT                                                                                                                    WMF1805284.TXT
MDDUJ5245163201806                D89828070200PV4U20180602000030SPEAKER ASM                   M IMCTM S0FR05 TNTH  07070IMCT  S0 PTB  00005                    1600 SR        000000000000 DENSO TEN (THAILAND)180LUSU0081081                                                                                                                              *          20180528 IMCT                IMCT                                                                                                                    WMF1805284.TXT
MDDUJ5245164201806                D89828070300PT4U20180602000030SPEAKER ASM                   M IMCTM S9TS02 TNTH  07070IMCT  S9 PTB  00015                    0230 SR        000000000000 DENSO TEN (THAILAND)180LULU0039039                                                                                                                              *          20180528 IMCT                IMCT                                                                                                                    WMF1805284.TXT
MDDUJ5245165201806                D89828070300PT4U20180602000030SPEAKER ASM                   M IMCTM S9TS02 TNTH  07070IMCT  S9 PTB  00015                    1030 SR        000000000000 DENSO TEN (THAILAND)180LUQU0043043                                                                                                                              *          20180528 IMCT                IMCT                                                                                                                    WMF1805284.TXT
MDDUJ5245166201806                D89828070300PT4U20180602000030SPEAKER ASM                   M IMCTM S9TS02 TNTH  07070IMCT  S9 PTB  00015                    1600 SR        000000000000 DENSO TEN (THAILAND)180LUSU0081081                                                                                                                              *          20180528 IMCT                IMCT                                                                                                                    WMF1805284.TXT
MDDUJ5245167201806                D89848584200PT4U20180602000015RADIO;AM/FM CD D              M IMCTM S9CO001TNTH  07070IMCT  S9 PTB  00003                    1030 SR        000000000000 DENSO TEN (THAILAND)180LUQU0043043                                                                                                                              *          20180528 IMCT                IMCT                                                                                                                    WMF1805284.TXT
MDEDJ5300050201806                D89828070100PV1D20180601000090SPEAKER ASM                   M IMCTM S5MB11 TNTH  07070IMCT  S5 PTB  00004                    2230 SR        000000000000 DENSO TEN (THAILAND)17013QL002802818098WL0005006                                                                                                                *          20180528 IMCT                IMCT                                                                                                                    WMF1805284.TXT
MDEDJ5300051201806                D89828070100PV1D20180602000030SPEAKER ASM                   M IMCTM S5MB11 TNTH  07070IMCT  S5 PTB  00004                    0230 SR        000000000000 DENSO TEN (THAILAND)17013QL0029029                                                                                                                              *          20180528 IMCT                IMCT                                                                                                                    WMF1805284.TXT
MDEDJ5300052201806                D89828070100PV1D20180602000060SPEAKER ASM                   M IMCTM S5MB11 TNTH  07070IMCT  S5 PTB  00004                    0400 SR        000000000000 DENSO TEN (THAILAND)18007ZL008708718098WL0007007                                                                                                                *          20180528 IMCT                IMCT                                                                                                                    WMF1805284.TXT
MDEDJ5300053201806                D89828070100PV1D20180602000030SPEAKER ASM                   M IMCTM S5MB11 TNTH  07070IMCT  S5 PTB  00004                    0830 SR        000000000000 DENSO TEN (THAILAND)18082WL0016016                                                                                                                              *          20180528 IMCT                IMCT                                                                                                                    WMF1805284.TXT
MDEDJ5300054201806                D89828070100PV1D20180602000030SPEAKER ASM                   M IMCTM S5MB11 TNTH  07070IMCT  S5 PTB  00004                    1030 SR        000000000000 DENSO TEN (THAILAND)18082WL0017017                                                                                                                              *          20180528 IMCT                IMCT                                                                                                                    WMF1805284.TXT
MDEDJ5300055201806                D89828070100PV1D20180602000030SPEAKER ASM                   M IMCTM S5MB11 TNTH  07070IMCT  S5 PTB  00004                    1300 SR        000000000000 DENSO TEN (THAILAND)18018XL0004004                                                                                                                              *          20180528 IMCT                IMCT                                                                                                                    WMF1805284.TXT
MDEDJ5300056201806                D89828070100PV1D20180602000030SPEAKER ASM                   M IMCTM S5MB11 TNTH  07070IMCT  S5 PTB  00004                    1600 SR        000000000000 DENSO TEN (THAILAND)18099UL0073073                                                                                                                              *          20180528 IMCT                IMCT                                                                                                                    WMF1805284.TXT
MDEDJ5300057201806                D89828070100PV4D20180602000030SPEAKER ASM                   M IMCTM S0FL05 TNTH  07070IMCT  S0 PTB  00004                    0400 SR        000000000000 DENSO TEN (THAILAND)18082UU0007007                                                                                                                              *          20180528 IMCT                IMCT                                                                                                                    WMF1805284.TXT
MDEDJ5300058201806                D89828070100PV4D20180602000030SPEAKER ASM                   M IMCTM S0FL05 TNTH  07070IMCT  S0 PTB  00004                    1300 SR        000000000000 DENSO TEN (THAILAND)18010ZU0025025                                                                                                                              *          20180528 IMCT                IMCT                                                                                                                    WMF1805284.TXT
MDEDJ5300059201806                D89828070200PV1D20180601000030SPEAKER ASM                   M IMCTM S5MA14 TNTH  07070IMCT  S5 PTB  00005                    2230 SR        000000000000 DENSO TEN (THAILAND)17013QL0028028                                                                                                                              *          20180528 IMCT                IMCT                                                                                                                    WMF1805284.TXT
MDEDJ5300060201806                D89828070200PV1D20180602000030SPEAKER ASM                   M IMCTM S5MA14 TNTH  07070IMCT  S5 PTB  00005                    0230 SR        000000000000 DENSO TEN (THAILAND)17013QL0029029                                                                                                                              *          20180528 IMCT                IMCT                                                                                                                    WMF1805284.TXT
MDEDJ5300061201806                D89828070200PV1D20180602000030SPEAKER ASM                   M IMCTM S5MA14 TNTH  07070IMCT  S5 PTB  00005                    1600 SR        000000000000 DENSO TEN (THAILAND)18099UL0073073                                                                                                                              *          20180528 IMCT                IMCT                                                                                                                    WMF1805284.TXT
MDEDJ5300062201806                D89828070200PV4D20180602000030SPEAKER ASM                   M IMCTM S0FR05 TNTH  07070IMCT  S0 PTB  00005                    0400 SR        000000000000 DENSO TEN (THAILAND)18082UU0007007                                                                                                                              *          20180528 IMCT                IMCT                                                                                                                    WMF1805284.TXT
MDEDJ5300063201806                D89828070300PT1D20180601000030SPEAKER ASM                   M IMCTM S5NB082TNTH  07070IMCT  S5 PTB  00015                    2230 SR        000000000000 DENSO TEN (THAILAND)17013QL0028028                                                                                                                              *          20180528 IMCT                IMCT                                                                                                                    WMF1805284.TXT
MDEDJ5300064201806                D89828070300PT1D20180602000030SPEAKER ASM                   M IMCTM S5NB082TNTH  07070IMCT  S5 PTB  00015                    0230 SR        000000000000 DENSO TEN (THAILAND)17013QL0029029                                                                                                                              *          20180528 IMCT                IMCT                                                                                                                    WMF1805284.TXT
MDEDJ5300065201806                D89828070300PT1D20180602000030SPEAKER ASM                   M IMCTM S5NB082TNTH  07070IMCT  S5 PTB  00015                    1300 SR        000000000000 DENSO TEN (THAILAND)18018XL0004004                                                                                                                              *          20180528 IMCT                IMCT                                                                                                                    WMF1805284.TXT
MDEDJ5300066201806                D89828070300PT1D20180602000030SPEAKER ASM                   M IMCTM S5NB082TNTH  07070IMCT  S5 PTB  00015                    1600 SR        000000000000 DENSO TEN (THAILAND)18099UL0073073                                                                                                                              *          20180528 IMCT                IMCT                                                                                                                    WMF1805284.TXT
MDEDJ5300067201806                D89828070300PT4D20180602000030SPEAKER ASM                   M IMCTM S9TS02 TNTH  07070IMCT  S9 PTB  00015                    0400 SR        000000000000 DENSO TEN (THAILAND)18082UU0007007                                                                                                                              *          20180528 IMCT                IMCT                                                                                                                    WMF1805284.TXT
MDEDJ5300068201806                D89831229200PT1D20180601000015RADIO;AM/FM,CD                M IMCTM S5NC06 TNTH  07070IMCT  S5 PTB  00003                    2230 SR        000000000000 DENSO TEN (THAILAND)17013QL0028028                                                                                                                              *          20180528 IMCT                IMCT                                                                                                                    WMF1805284.TXT
MDEDJ5300069201806                D89831229200PT1D20180602000015RADIO;AM/FM,CD                M IMCTM S5NC06 TNTH  07070IMCT  S5 PTB  00003                    0230 SR        000000000000 DENSO TEN (THAILAND)17013QL0029029                                                                                                                              *          20180528 IMCT                IMCT                                                                                                                    WMF1805284.TXT
MDEDJ5300070201806                D89848581800PT4D20180602000015RADIO;AM/FM CD D              M IMCTM S9CO001TNTH  07070IMCT  S9 PTB  00003                    0400 SR        000000000000 DENSO TEN (THAILAND)18082UU0007007                                                                                                                              *          20180528 IMCT                IMCT                                                                                                                    WMF1805284.TXT
MDEUJ5256896201806                D89828070100PT4U20180601000030SPEAKER ASM                   M IMCTM S0FL05 TNTH  07070IMCT  S0 PTB  00004                    2230 SR        000000000000 DENSO TEN (THAILAND)18024UU0044044                                                                                                                              *          20180528 IMCT                IMCT                                                                                                                    WMF1805284.TXT
MDEUJ5256897201806                D89828070100PT4U20180602000030SPEAKER ASM                   M IMCTM S0FL05 TNTH  07070IMCT  S0 PTB  00004                    0400 SR        000000000000 DENSO TEN (THAILAND)18049ZU0052052                                                                                                                              *          20180528 IMCT                IMCT                                                                                                                    WMF1805284.TXT
MDEUJ5256898201806                D89828070100PT4U20180602000060SPEAKER ASM                   M IMCTM S0FL05 TNTH  07070IMCT  S0 PTB  00004                    1300 SR        000000000000 DENSO TEN (THAILAND)18014UU001401418049ZU0053053                                                                                                                *          20180528 IMCT                IMCT                                                                                                                    WMF1805284.TXT
MDEUJ5256899201806                D89828070100PT4U20180602000030SPEAKER ASM                   M IMCTM S0FL05 TNTH  07070IMCT  S0 PTB  00004                    2100 SR        000000000000 DENSO TEN (THAILAND)18015UU0026026                                                                                                                              *          20180528 IMCT                IMCT                                                                                                                    WMF1805284.TXT
MDEUJ5256900201806                D89828070100PT4U20180602000030SPEAKER ASM                   M IMCTM S0FL05 TNTH  07070IMCT  S0 PTB  00004                    2230 SR        000000000000 DENSO TEN (THAILAND)18025UU0068068                                                                                                                              *          20180528 IMCT                IMCT                                                                                                                    WMF1805284.TXT
MDEUJ5256901201806                D89828070200PV4U20180601000030SPEAKER ASM                   M IMCTM S0FR05 TNTH  07070IMCT  S0 PTB  00005                    2230 SR        000000000000 DENSO TEN (THAILAND)18024UU0044044                                                                                                                              *          20180528 IMCT                IMCT                                                                                                                    WMF1805284.TXT
MDEUJ5256902201806                D89828070200PV4U20180602000030SPEAKER ASM                   M IMCTM S0FR05 TNTH  07070IMCT  S0 PTB  00005                    0400 SR        000000000000 DENSO TEN (THAILAND)18049ZU0052052                                                                                                                              *          20180528 IMCT                IMCT                                                                                                                    WMF1805284.TXT
MDEUJ5256903201806                D89828070200PV4U20180602000060SPEAKER ASM                   M IMCTM S0FR05 TNTH  07070IMCT  S0 PTB  00005                    1300 SR        000000000000 DENSO TEN (THAILAND)18014UU001401418049ZU0053053                                                                                                                *          20180528 IMCT                IMCT                                                                                                                    WMF1805284.TXT
MDEUJ5256904201806                D89828070200PV4U20180602000030SPEAKER ASM                   M IMCTM S0FR05 TNTH  07070IMCT  S0 PTB  00005                    2100 SR        000000000000 DENSO TEN (THAILAND)18015UU0026026                                                                                                                              *          20180528 IMCT                IMCT                                                                                                                    WMF1805284.TXT
MDEUJ5256905201806                D89828070200PV4U20180602000030SPEAKER ASM                   M IMCTM S0FR05 TNTH  07070IMCT  S0 PTB  00005                    2230 SR        000000000000 DENSO TEN (THAILAND)18025UU0068068                                                                                                                              *          20180528 IMCT                IMCT                                                                                                                    WMF1805284.TXT
MDEUJ5256906201806                D89828070300PT4U20180601000030SPEAKER ASM                   M IMCTM S9TS02 TNTH  07070IMCT  S9 PTB  00015                    2230 SR        000000000000 DENSO TEN (THAILAND)18024UU0044044                                                                                                                              *          20180528 IMCT                IMCT                                                                                                                    WMF1805284.TXT
MDEUJ5256907201806                D89828070300PT4U20180602000030SPEAKER ASM                   M IMCTM S9TS02 TNTH  07070IMCT  S9 PTB  00015                    0400 SR        000000000000 DENSO TEN (THAILAND)18049ZU0052052                                                                                                                              *          20180528 IMCT                IMCT                                                                                                                    WMF1805284.TXT
MDEUJ5256908201806                D89828070300PT4U20180602000060SPEAKER ASM                   M IMCTM S9TS02 TNTH  07070IMCT  S9 PTB  00015                    1300 SR        000000000000 DENSO TEN (THAILAND)18014UU001401418049ZU0053053                                                                                                                *          20180528 IMCT                IMCT                                                                                                                    WMF1805284.TXT
MDEUJ5256909201806                D89828070300PT4U20180602000030SPEAKER ASM                   M IMCTM S9TS02 TNTH  07070IMCT  S9 PTB  00015                    2100 SR        000000000000 DENSO TEN (THAILAND)18015UU0026026                                                                                                                              *          20180528 IMCT                IMCT                                                                                                                    WMF1805284.TXT
MDEUJ5256910201806                D89828070300PT4U20180602000030SPEAKER ASM                   M IMCTM S9TS02 TNTH  07070IMCT  S9 PTB  00015                    2230 SR        000000000000 DENSO TEN (THAILAND)18025UU0068068                                                                                                                              *          20180528 IMCT                IMCT                                                                                                                    WMF1805284.TXT
MDEUJ5256911201806                D89848584700PT4U20180602000015RADIO;AM/FM CD D              M IMCTM S9CO001TNTH  07070IMCT  S9 PTB  00003                    1300 SR        000000000000 DENSO TEN (THAILAND)18014UU0014014                                                                                                                              *          20180528 IMCT                IMCT                                                                                                                    WMF1805284.TXT
