REC2018052620180526ISUZU                              46     
MDDDJ5338496201806                D89821984430PT1D20180601000030RADIO;AM/FM,CD                M IMCTM S5NC06 TNTH  07070IMCT  S5 PTB  00005                    0230 SR        000000000000 DENSO TEN (THAILAND)180LXCL0044044                                                                                                                              *          20180526 IMCT                IMCT                                                                                                                    WMF1805263.TXT
MDDDJ5338497201806                D89821984430PT1D20180601000030RADIO;AM/FM,CD                M IMCTM S5NC06 TNTH  07070IMCT  S5 PTB  00005                    0400 SR        000000000000 DENSO TEN (THAILAND)180LXCL0045045                                                                                                                              *          20180526 IMCT                IMCT                                                                                                                    WMF1805263.TXT
MDDDJ5338498201806                D89821984430PT1D20180601000060RADIO;AM/FM,CD                M IMCTM S5NC06 TNTH  07070IMCT  S5 PTB  00005                    1300 SR        000000000000 DENSO TEN (THAILAND)180LRAL0175175180LXEL0044044                                                                                                                *          20180526 IMCT                IMCT                                                                                                                    WMF1805263.TXT
MDDDJ5338499201806                D89828070100PV1D20180531000060SPEAKER ASM                   M IMCTM S5MB11 TNTH  07070IMCT  S5 PTB  00004                    2230 SR        000000000000 DENSO TEN (THAILAND)180LPFL0047047                                                                                                                              *          20180526 IMCT                IMCT                                                                                                                    WMF1805263.TXT
MDDDJ5338500201806                D89828070100PV1D20180601000060SPEAKER ASM                   M IMCTM S5MB11 TNTH  07070IMCT  S5 PTB  00004                    0230 SR        000000000000 DENSO TEN (THAILAND)180LXCL0044044                                                                                                                              *          20180526 IMCT                IMCT                                                                                                                    WMF1805263.TXT
MDDDJ5338501201806                D89828070100PV1D20180601000060SPEAKER ASM                   M IMCTM S5MB11 TNTH  07070IMCT  S5 PTB  00004                    0400 SR        000000000000 DENSO TEN (THAILAND)180LXCL0045045                                                                                                                              *          20180526 IMCT                IMCT                                                                                                                    WMF1805263.TXT
MDDDJ5338502201806                D89828070100PV1D20180601000060SPEAKER ASM                   M IMCTM S5MB11 TNTH  07070IMCT  S5 PTB  00004                    0830 SR        000000000000 DENSO TEN (THAILAND)180LPDL0016016                                                                                                                              *          20180526 IMCT                IMCT                                                                                                                    WMF1805263.TXT
MDDDJ5338503201806                D89828070100PV1D20180601000120SPEAKER ASM                   M IMCTM S5MB11 TNTH  07070IMCT  S5 PTB  00004                    1300 SR        000000000000 DENSO TEN (THAILAND)180LRAL0175175180LXEL0044044                                                                                                                *          20180526 IMCT                IMCT                                                                                                                    WMF1805263.TXT
MDDDJ5338504201806                D89828070100PV1D20180601000060SPEAKER ASM                   M IMCTM S5MB11 TNTH  07070IMCT  S5 PTB  00004                    2100 SR        000000000000 DENSO TEN (THAILAND)180LPHL0014014                                                                                                                              *          20180526 IMCT                IMCT                                                                                                                    WMF1805263.TXT
MDDDJ5338505201806                D89828070300PT1D20180531000060SPEAKER ASM                   M IMCTM S5NB082TNTH  07070IMCT  S5 PTB  00015                    2230 SR        000000000000 DENSO TEN (THAILAND)180LPFL0047047                                                                                                                              *          20180526 IMCT                IMCT                                                                                                                    WMF1805263.TXT
MDDDJ5338506201806                D89828070300PT1D20180601000060SPEAKER ASM                   M IMCTM S5NB082TNTH  07070IMCT  S5 PTB  00015                    0830 SR        000000000000 DENSO TEN (THAILAND)180LPDL0016016                                                                                                                              *          20180526 IMCT                IMCT                                                                                                                    WMF1805263.TXT
MDDDJ5338507201806                D89828070300PT1D20180601000060SPEAKER ASM                   M IMCTM S5NB082TNTH  07070IMCT  S5 PTB  00015                    2100 SR        000000000000 DENSO TEN (THAILAND)180LPHL0014014                                                                                                                              *          20180526 IMCT                IMCT                                                                                                                    WMF1805263.TXT
MDDDJ5338508201806                D89831228300PT1D20180531000030RADIO;AM/FM,CD                M IMCTM S5NC06 TNTH  07070IMCT  S5 CPB  00003                    2230 SR        000000000000 DENSO TEN (THAILAND)180LPFL0047047                                                                                                                              *          20180526 IMCT                IMCT                                                                                                                    WMF1805263.TXT
MDDDJ5338509201806                D89831228300PT1D20180601000030RADIO;AM/FM,CD                M IMCTM S5NC06 TNTH  07070IMCT  S5 CPB  00003                    0830 SR        000000000000 DENSO TEN (THAILAND)180LPDL0016016                                                                                                                              *          20180526 IMCT                IMCT                                                                                                                    WMF1805263.TXT
MDDDJ5338510201806                D89831228300PT1D20180601000030RADIO;AM/FM,CD                M IMCTM S5NC06 TNTH  07070IMCT  S5 CPB  00003                    2100 SR        000000000000 DENSO TEN (THAILAND)180LPHL0014014                                                                                                                              *          20180526 IMCT                IMCT                                                                                                                    WMF1805263.TXT
MDDUJ5242775201806                D89828070100PT4U20180601000030SPEAKER ASM                   M IMCTM S0FL05 TNTH  07070IMCT  S0 PTB  00004                    0400 SR        000000000000 DENSO TEN (THAILAND)180LULU0038038                                                                                                                              *          20180526 IMCT                IMCT                                                                                                                    WMF1805263.TXT
MDDUJ5242776201806                D89828070100PT4U20180601000030SPEAKER ASM                   M IMCTM S0FL05 TNTH  07070IMCT  S0 PTB  00004                    1300 SR        000000000000 DENSO TEN (THAILAND)180LUQU0042042                                                                                                                              *          20180526 IMCT                IMCT                                                                                                                    WMF1805263.TXT
MDDUJ5242777201806                D89828070100PT4U20180601000030SPEAKER ASM                   M IMCTM S0FL05 TNTH  07070IMCT  S0 PTB  00004                    2100 SR        000000000000 DENSO TEN (THAILAND)180LURU0059059                                                                                                                              *          20180526 IMCT                IMCT                                                                                                                    WMF1805263.TXT
MDDUJ5242778201806                D89828070200PV4U20180601000030SPEAKER ASM                   M IMCTM S0FR05 TNTH  07070IMCT  S0 PTB  00005                    0400 SR        000000000000 DENSO TEN (THAILAND)180LULU0038038                                                                                                                              *          20180526 IMCT                IMCT                                                                                                                    WMF1805263.TXT
MDDUJ5242779201806                D89828070200PV4U20180601000030SPEAKER ASM                   M IMCTM S0FR05 TNTH  07070IMCT  S0 PTB  00005                    1300 SR        000000000000 DENSO TEN (THAILAND)180LUQU0042042                                                                                                                              *          20180526 IMCT                IMCT                                                                                                                    WMF1805263.TXT
MDDUJ5242780201806                D89828070200PV4U20180601000030SPEAKER ASM                   M IMCTM S0FR05 TNTH  07070IMCT  S0 PTB  00005                    2100 SR        000000000000 DENSO TEN (THAILAND)180LURU0059059                                                                                                                              *          20180526 IMCT                IMCT                                                                                                                    WMF1805263.TXT
MDDUJ5242781201806                D89828070300PT4U20180601000030SPEAKER ASM                   M IMCTM S9TS02 TNTH  07070IMCT  S9 PTB  00015                    0400 SR        000000000000 DENSO TEN (THAILAND)180LULU0038038                                                                                                                              *          20180526 IMCT                IMCT                                                                                                                    WMF1805263.TXT
MDDUJ5242782201806                D89828070300PT4U20180601000030SPEAKER ASM                   M IMCTM S9TS02 TNTH  07070IMCT  S9 PTB  00015                    1300 SR        000000000000 DENSO TEN (THAILAND)180LUQU0042042                                                                                                                              *          20180526 IMCT                IMCT                                                                                                                    WMF1805263.TXT
MDDUJ5242783201806                D89828070300PT4U20180601000030SPEAKER ASM                   M IMCTM S9TS02 TNTH  07070IMCT  S9 PTB  00015                    2100 SR        000000000000 DENSO TEN (THAILAND)180LURU0059059                                                                                                                              *          20180526 IMCT                IMCT                                                                                                                    WMF1805263.TXT
MDDUJ5242784201806                D89848584200PT4U20180601000015RADIO;AM/FM CD D              M IMCTM S9CO001TNTH  07070IMCT  S9 PTB  00003                    1300 SR        000000000000 DENSO TEN (THAILAND)180LUQU0042042                                                                                                                              *          20180526 IMCT                IMCT                                                                                                                    WMF1805263.TXT
MDEDJ5294154201806                D89828070100PV1D20180531000030SPEAKER ASM                   M IMCTM S5MB11 TNTH  07070IMCT  S5 PTB  00004                    2230 SR        000000000000 DENSO TEN (THAILAND)17046QL0046046                                                                                                                              *          20180526 IMCT                IMCT                                                                                                                    WMF1805263.TXT
MDEDJ5294155201806                D89828070100PV1D20180601000060SPEAKER ASM                   M IMCTM S5MB11 TNTH  07070IMCT  S5 PTB  00004                    0400 SR        000000000000 DENSO TEN (THAILAND)18007ZL0084085                                                                                                                              *          20180526 IMCT                IMCT                                                                                                                    WMF1805263.TXT
MDEDJ5294156201806                D89828070100PV1D20180601000060SPEAKER ASM                   M IMCTM S5MB11 TNTH  07070IMCT  S5 PTB  00004                    1030 SR        000000000000 DENSO TEN (THAILAND)18007ZL008608618039ZL0003003                                                                                                                *          20180526 IMCT                IMCT                                                                                                                    WMF1805263.TXT
MDEDJ5294157201806                D89828070100PV1D20180601000060SPEAKER ASM                   M IMCTM S5MB11 TNTH  07070IMCT  S5 PTB  00004                    1600 SR        000000000000 DENSO TEN (THAILAND)18024XL0003004                                                                                                                              *          20180526 IMCT                IMCT                                                                                                                    WMF1805263.TXT
MDEDJ5294158201806                D89828070100PV4D20180531000030SPEAKER ASM                   M IMCTM S0FL05 TNTH  07070IMCT  S0 PTB  00004                    2230 SR        000000000000 DENSO TEN (THAILAND)18010ZU0022022                                                                                                                              *          20180526 IMCT                IMCT                                                                                                                    WMF1805263.TXT
MDEDJ5294159201806                D89828070100PV4D20180601000030SPEAKER ASM                   M IMCTM S0FL05 TNTH  07070IMCT  S0 PTB  00004                    0400 SR        000000000000 DENSO TEN (THAILAND)18010ZU0023023                                                                                                                              *          20180526 IMCT                IMCT                                                                                                                    WMF1805263.TXT
MDEDJ5294160201806                D89828070100PV4D20180601000030SPEAKER ASM                   M IMCTM S0FL05 TNTH  07070IMCT  S0 PTB  00004                    1300 SR        000000000000 DENSO TEN (THAILAND)18010ZU0024024                                                                                                                              *          20180526 IMCT                IMCT                                                                                                                    WMF1805263.TXT
MDEDJ5294161201806                D89828070100PV4D20180601000030SPEAKER ASM                   M IMCTM S0FL05 TNTH  07070IMCT  S0 PTB  00004                    2230 SR        000000000000 DENSO TEN (THAILAND)18003XU0001001                                                                                                                              *          20180526 IMCT                IMCT                                                                                                                    WMF1805263.TXT
MDEDJ5294162201806                D89828070200PV1D20180531000030SPEAKER ASM                   M IMCTM S5MA14 TNTH  07070IMCT  S5 PTB  00005                    2230 SR        000000000000 DENSO TEN (THAILAND)17046QL0046046                                                                                                                              *          20180526 IMCT                IMCT                                                                                                                    WMF1805263.TXT
MDEDJ5294163201806                D89828070200PV1D20180601000030SPEAKER ASM                   M IMCTM S5MA14 TNTH  07070IMCT  S5 PTB  00005                    1030 SR        000000000000 DENSO TEN (THAILAND)18039ZL0003003                                                                                                                              *          20180526 IMCT                IMCT                                                                                                                    WMF1805263.TXT
MDEDJ5294164201806                D89828070300PT1D20180531000030SPEAKER ASM                   M IMCTM S5NB082TNTH  07070IMCT  S5 PTB  00015                    2230 SR        000000000000 DENSO TEN (THAILAND)17046QL0046046                                                                                                                              *          20180526 IMCT                IMCT                                                                                                                    WMF1805263.TXT
MDEDJ5294165201806                D89828070300PT1D20180601000030SPEAKER ASM                   M IMCTM S5NB082TNTH  07070IMCT  S5 PTB  00015                    1030 SR        000000000000 DENSO TEN (THAILAND)18039ZL0003003                                                                                                                              *          20180526 IMCT                IMCT                                                                                                                    WMF1805263.TXT
MDEUJ5253149201806                D89828070100PT4U20180601000030SPEAKER ASM                   M IMCTM S0FL05 TNTH  07070IMCT  S0 PTB  00004                    0230 SR        000000000000 DENSO TEN (THAILAND)18050ZU0020020                                                                                                                              *          20180526 IMCT                IMCT                                                                                                                    WMF1805263.TXT
MDEUJ5253150201806                D89828070100PT4U20180601000030SPEAKER ASM                   M IMCTM S0FL05 TNTH  07070IMCT  S0 PTB  00004                    0830 SR        000000000000 DENSO TEN (THAILAND)18049ZU0051051                                                                                                                              *          20180526 IMCT                IMCT                                                                                                                    WMF1805263.TXT
MDEUJ5253151201806                D89828070100PT4U20180601000030SPEAKER ASM                   M IMCTM S0FL05 TNTH  07070IMCT  S0 PTB  00004                    1300 SR        000000000000 DENSO TEN (THAILAND)18020UU0063063                                                                                                                              *          20180526 IMCT                IMCT                                                                                                                    WMF1805263.TXT
MDEUJ5253152201806                D89828070200PV4U20180601000030SPEAKER ASM                   M IMCTM S0FR05 TNTH  07070IMCT  S0 PTB  00005                    0230 SR        000000000000 DENSO TEN (THAILAND)18050ZU0020020                                                                                                                              *          20180526 IMCT                IMCT                                                                                                                    WMF1805263.TXT
MDEUJ5253153201806                D89828070200PV4U20180601000030SPEAKER ASM                   M IMCTM S0FR05 TNTH  07070IMCT  S0 PTB  00005                    0830 SR        000000000000 DENSO TEN (THAILAND)18049ZU0051051                                                                                                                              *          20180526 IMCT                IMCT                                                                                                                    WMF1805263.TXT
MDEUJ5253154201806                D89828070200PV4U20180601000030SPEAKER ASM                   M IMCTM S0FR05 TNTH  07070IMCT  S0 PTB  00005                    1300 SR        000000000000 DENSO TEN (THAILAND)18020UU0063063                                                                                                                              *          20180526 IMCT                IMCT                                                                                                                    WMF1805263.TXT
MDEUJ5253155201806                D89828070300PT4U20180601000030SPEAKER ASM                   M IMCTM S9TS02 TNTH  07070IMCT  S9 PTB  00015                    0230 SR        000000000000 DENSO TEN (THAILAND)18050ZU0020020                                                                                                                              *          20180526 IMCT                IMCT                                                                                                                    WMF1805263.TXT
MDEUJ5253156201806                D89828070300PT4U20180601000030SPEAKER ASM                   M IMCTM S9TS02 TNTH  07070IMCT  S9 PTB  00015                    0830 SR        000000000000 DENSO TEN (THAILAND)18049ZU0051051                                                                                                                              *          20180526 IMCT                IMCT                                                                                                                    WMF1805263.TXT
MDEUJ5253157201806                D89828070300PT4U20180601000030SPEAKER ASM                   M IMCTM S9TS02 TNTH  07070IMCT  S9 PTB  00015                    1300 SR        000000000000 DENSO TEN (THAILAND)18020UU0063063                                                                                                                              *          20180526 IMCT                IMCT                                                                                                                    WMF1805263.TXT
