REC2018052220180522ISUZU                              3      
MECKJ5804669000000          IMKDC  89828070100P3YK20180605000004SPEAKER ASM                   M IMCTM IMKDC  TNTH  07070IMKDC KI*PTB  00004    K295B5300   001 0000 ES        000000000000 DENSO TEN (THAILAND)                                                                                                                                            *G         20180522 IMCT                IMCT                                                                                                                    WMF1805221.TXT
MECKJ5804670000000          IMKDC  89828070200P3YK20180605000002SPEAKER ASM                   M IMCTM IMKDC  TNTH  07070IMKDC KI*PTB  00005    K295B5300   001 0000 ES        000000000000 DENSO TEN (THAILAND)                                                                                                                                            *G         20180522 IMCT                IMCT                                                                                                                    WMF1805221.TXT
MECKJ5804671000000          IMKDC  89828070300P3YK20180605000002SPEAKER ASM                   M IMCTM IMKDC  TNTH  07070IMKDC KI*PTB  00015    K295B5300   001 0000 ES        000000000000 DENSO TEN (THAILAND)                                                                                                                                            *G         20180522 IMCT                IMCT                                                                                                                    WMF1805221.TXT
