REC2018050320180503ISUZU                              3      
MHDDJ3601288201806                 89828070100PV1D20180517000002SPEAKER ASM                   M IMCTM ST00000TNTH  07070IMCT  ST PTB  00004 CDC                0000 SR        000000000000 DENSO TEN (THAILAND)190M2BL0001001                                                                                                                              *  2018051000000000 IMCT                IMCT                                                                                                                    WMF1805032.TXT
MHDDJ3601289201806                 89828070200PV1D20180517000002SPEAKER ASM                   M IMCTM ST00000TNTH  07070IMCT  ST PTB  00005 CDC                0000 SR        000000000000 DENSO TEN (THAILAND)190M2BL0001001                                                                                                                              *  2018051000000000 IMCT                IMCT                                                                                                                    WMF1805032.TXT
MHDDJ3601290201806                 89828070300PT1D20180517000002SPEAKER ASM                   M IMCTM ST00000TNTH  07070IMCT  ST PTB  00015 CDC                0000 SR        000000000000 DENSO TEN (THAILAND)190M2BL0001001                                                                                                                              *  2018051000000000 IMCT                IMCT                                                                                                                    WMF1805032.TXT
