REC2018052120180521ISUZU                              4      
MECKJ5803552000000          IMKDC  89828070100P3YK20180605000004SPEAKER ASM                   M IMCTM IMKDC  TNTH  07070IMKDC KI*PTB  00004    K295B5280   001 0000 ES        000000000000 DENSO TEN (THAILAND)                                                                                                                                            *G         20180521 IMCT                IMCT                                                                                                                    WMF1805211.TXT
MECKJ5803553000000          IMKDC  89828070200P3YK20180605000002SPEAKER ASM                   M IMCTM IMKDC  TNTH  07070IMKDC KI*PTB  00005    K295B5280   001 0000 ES        000000000000 DENSO TEN (THAILAND)                                                                                                                                            *G         20180521 IMCT                IMCT                                                                                                                    WMF1805211.TXT
MECKJ5803554000000          IMKDC  89828070300P3YK20180530000002SPEAKER ASM                   M IMCTM IMKDC  TNTH  07070IMKDC KI*PTB  00015    K293I5950   001 0000 ES        000000000000 DENSO TEN (THAILAND)                                                                                                                                            *G         20180521 IMCT                IMCT                                                                                                                    WMF1805211.TXT
MECKJ5803555000000          IMKDC  89828070300P3YK20180605000002SPEAKER ASM                   M IMCTM IMKDC  TNTH  07070IMKDC KI*PTB  00015    K295B5280   001 0000 ES        000000000000 DENSO TEN (THAILAND)                                                                                                                                            *G         20180521 IMCT                IMCT                                                                                                                    WMF1805211.TXT
