REC2018051020180510ISUZU                              3      
MACK85001219201805          IMKDC  89828070100P3YK20180522000012SPEAKER ASM                   M IMCTM IMKDC  TNTH  07070IMKDC KI PTB  00004    K295B4750   001 0000 ES        000000000000 DENSO TEN (THAILAND)                                                                                                                                            *G         20180510 IMCT                IMCT                                                                                                                    WMF1805107.TXT
MACK85001220201805          IMKDC  89828070200P3YK20180522000012SPEAKER ASM                   M IMCTM IMKDC  TNTH  07070IMKDC KI PTB  00005    K295B4750   001 0000 ES        000000000000 DENSO TEN (THAILAND)                                                                                                                                            *G         20180510 IMCT                IMCT                                                                                                                    WMF1805107.TXT
MACK85001221201805          IMKDC  89828070300P3YK20180522000012SPEAKER ASM                   M IMCTM IMKDC  TNTH  07070IMKDC KI PTB  00015    K295B4750   001 0000 ES        000000000000 DENSO TEN (THAILAND)                                                                                                                                            *G         20180510 IMCT                IMCT                                                                                                                    WMF1805107.TXT
