REC2018051720180517ISUZU                              29     
MDD6J5260666201805                D89821984430PT5620180523000030RADIO;AM/FM,CD                M IMCTM G9J213 TNTH  07070G/WAY G9 PTB  00005                    1400 GW        0000000000005DENSO TEN (THAILAND)180LPAG0183183                                                                                                                              *          20180517 IMCT                IMCT                                                                                                                    WMF1805172.TXT
MDD6J5260667201805                D89828070100PV5620180522000120SPEAKER ASM                   M IMCTM G9B114 TNTH  07070G/WAY G9 PTB  00004                    1530 GW        0000000000005DENSO TEN (THAILAND)180LRDG0031031180LREG0115115                                                                                                                *          20180517 IMCT                IMCT                                                                                                                    WMF1805172.TXT
MDD6J5260668201805                D89828070100PV5620180522000060SPEAKER ASM                   M IMCTM G9B114 TNTH  07070G/WAY G9 PTB  00004                    2100 GW        0000000000005DENSO TEN (THAILAND)180LPCG0083083                                                                                                                              *          20180517 IMCT                IMCT                                                                                                                    WMF1805172.TXT
MDD6J5260669201805                D89828070100PV5620180522000060SPEAKER ASM                   M IMCTM G9B114 TNTH  07070G/WAY G9 PTB  00004                    2300 GW        0000000000005DENSO TEN (THAILAND)180LRRG0023023                                                                                                                              *          20180517 IMCT                IMCT                                                                                                                    WMF1805172.TXT
MDD6J5260670201805                D89828070100PV5620180523000060SPEAKER ASM                   M IMCTM G9B114 TNTH  07070G/WAY G9 PTB  00004                    0200 GW        0000000000005DENSO TEN (THAILAND)180LPGG0154154                                                                                                                              *          20180517 IMCT                IMCT                                                                                                                    WMF1805172.TXT
MDD6J5260671201805                D89828070100PV5620180523000060SPEAKER ASM                   M IMCTM G9B114 TNTH  07070G/WAY G9 PTB  00004                    0330 GW        0000000000005DENSO TEN (THAILAND)180LRKG0035035                                                                                                                              *          20180517 IMCT                IMCT                                                                                                                    WMF1805172.TXT
MDD6J5260672201805                D89828070100PV5620180523000060SPEAKER ASM                   M IMCTM G9B114 TNTH  07070G/WAY G9 PTB  00004                    0900 GW        0000000000005DENSO TEN (THAILAND)180LRMG0112112                                                                                                                              *          20180517 IMCT                IMCT                                                                                                                    WMF1805172.TXT
MDD6J5260673201805                D89828070100PV5620180523000060SPEAKER ASM                   M IMCTM G9B114 TNTH  07070G/WAY G9 PTB  00004                    1100 GW        0000000000005DENSO TEN (THAILAND)180LRLG0108108                                                                                                                              *          20180517 IMCT                IMCT                                                                                                                    WMF1805172.TXT
MDD6J5260674201805                D89828070100PV5620180523000060SPEAKER ASM                   M IMCTM G9B114 TNTH  07070G/WAY G9 PTB  00004                    1400 GW        0000000000005DENSO TEN (THAILAND)180LPAG0183183                                                                                                                              *          20180517 IMCT                IMCT                                                                                                                    WMF1805172.TXT
MDD6J5260675201805                D89828070100PV5620180523000060SPEAKER ASM                   M IMCTM G9B114 TNTH  07070G/WAY G9 PTB  00004                    1530 GW        0000000000005DENSO TEN (THAILAND)180LRJG0042042                                                                                                                              *          20180517 IMCT                IMCT                                                                                                                    WMF1805172.TXT
MDD6J5260676201805                D89828070200PV5620180522000120SPEAKER ASM                   M IMCTM G9F132 TNTH  07070G/WAY G9 PTB  00005                    1530 GW        0000000000005DENSO TEN (THAILAND)180LRDG0031031180LREG0115115                                                                                                                *          20180517 IMCT                IMCT                                                                                                                    WMF1805172.TXT
MDD6J5260677201805                D89828070200PV5620180522000060SPEAKER ASM                   M IMCTM G9F132 TNTH  07070G/WAY G9 PTB  00005                    2300 GW        0000000000005DENSO TEN (THAILAND)180LRRG0023023                                                                                                                              *          20180517 IMCT                IMCT                                                                                                                    WMF1805172.TXT
MDD6J5260678201805                D89828070200PV5620180523000060SPEAKER ASM                   M IMCTM G9F132 TNTH  07070G/WAY G9 PTB  00005                    0330 GW        0000000000005DENSO TEN (THAILAND)180LRKG0035035                                                                                                                              *          20180517 IMCT                IMCT                                                                                                                    WMF1805172.TXT
MDD6J5260679201805                D89828070200PV5620180523000060SPEAKER ASM                   M IMCTM G9F132 TNTH  07070G/WAY G9 PTB  00005                    0900 GW        0000000000005DENSO TEN (THAILAND)180LRMG0112112                                                                                                                              *          20180517 IMCT                IMCT                                                                                                                    WMF1805172.TXT
MDD6J5260680201805                D89828070200PV5620180523000060SPEAKER ASM                   M IMCTM G9F132 TNTH  07070G/WAY G9 PTB  00005                    1100 GW        0000000000005DENSO TEN (THAILAND)180LRLG0108108                                                                                                                              *          20180517 IMCT                IMCT                                                                                                                    WMF1805172.TXT
MDD6J5260681201805                D89828070200PV5620180523000060SPEAKER ASM                   M IMCTM G9F132 TNTH  07070G/WAY G9 PTB  00005                    1530 GW        0000000000005DENSO TEN (THAILAND)180LRJG0042042                                                                                                                              *          20180517 IMCT                IMCT                                                                                                                    WMF1805172.TXT
MDD6J5260682201805                D89828070300PT5620180522000120SPEAKER ASM                   M IMCTM G9JA33 TNTH  07070G/WAY G9 PTB  00015                    1530 GW        0000000000005DENSO TEN (THAILAND)180LRDG0031031180LREG0115115                                                                                                                *          20180517 IMCT                IMCT                                                                                                                    WMF1805172.TXT
MDD6J5260683201805                D89828070300PT5620180522000060SPEAKER ASM                   M IMCTM G9JA33 TNTH  07070G/WAY G9 PTB  00015                    2100 GW        0000000000005DENSO TEN (THAILAND)180LPCG0083083                                                                                                                              *          20180517 IMCT                IMCT                                                                                                                    WMF1805172.TXT
MDD6J5260684201805                D89828070300PT5620180522000060SPEAKER ASM                   M IMCTM G9JA33 TNTH  07070G/WAY G9 PTB  00015                    2300 GW        0000000000005DENSO TEN (THAILAND)180LRRG0023023                                                                                                                              *          20180517 IMCT                IMCT                                                                                                                    WMF1805172.TXT
MDD6J5260685201805                D89828070300PT5620180523000060SPEAKER ASM                   M IMCTM G9JA33 TNTH  07070G/WAY G9 PTB  00015                    0200 GW        0000000000005DENSO TEN (THAILAND)180LPGG0154154                                                                                                                              *          20180517 IMCT                IMCT                                                                                                                    WMF1805172.TXT
MDD6J5260686201805                D89828070300PT5620180523000060SPEAKER ASM                   M IMCTM G9JA33 TNTH  07070G/WAY G9 PTB  00015                    0330 GW        0000000000005DENSO TEN (THAILAND)180LRKG0035035                                                                                                                              *          20180517 IMCT                IMCT                                                                                                                    WMF1805172.TXT
MDD6J5260687201805                D89828070300PT5620180523000060SPEAKER ASM                   M IMCTM G9JA33 TNTH  07070G/WAY G9 PTB  00015                    0900 GW        0000000000005DENSO TEN (THAILAND)180LRMG0112112                                                                                                                              *          20180517 IMCT                IMCT                                                                                                                    WMF1805172.TXT
MDD6J5260688201805                D89828070300PT5620180523000060SPEAKER ASM                   M IMCTM G9JA33 TNTH  07070G/WAY G9 PTB  00015                    1100 GW        0000000000005DENSO TEN (THAILAND)180LRLG0108108                                                                                                                              *          20180517 IMCT                IMCT                                                                                                                    WMF1805172.TXT
MDD6J5260689201805                D89828070300PT5620180523000060SPEAKER ASM                   M IMCTM G9JA33 TNTH  07070G/WAY G9 PTB  00015                    1530 GW        0000000000005DENSO TEN (THAILAND)180LRJG0042042                                                                                                                              *          20180517 IMCT                IMCT                                                                                                                    WMF1805172.TXT
MDD6J5260690201805                D89831228300PT5620180522000030RADIO;AM/FM,CD                M IMCTM G9J213 TNTH  07070G/WAY G9 CPB  00003                    2100 GW        0000000000005DENSO TEN (THAILAND)180LPCG0083083                                                                                                                              *          20180517 IMCT                IMCT                                                                                                                    WMF1805172.TXT
MDD6J5260691201805                D89831228300PT5620180523000030RADIO;AM/FM,CD                M IMCTM G9J213 TNTH  07070G/WAY G9 CPB  00003                    0200 GW        0000000000005DENSO TEN (THAILAND)180LPGG0154154                                                                                                                              *          20180517 IMCT                IMCT                                                                                                                    WMF1805172.TXT
MDD6J5260692201805                D89831228400PT5620180522000060RADIO;AM/FM,CD                M IMCTM G9J213 TNTH  07070G/WAY G9 CPB  00003                    1530 GW        0000000000005DENSO TEN (THAILAND)180LRDG0031031180LREG0115115                                                                                                                *          20180517 IMCT                IMCT                                                                                                                    WMF1805172.TXT
MDD6J5260693201805                D89848581500PT5620180523000030RADIO;AM/FM CD D              M IMCTM G9J213 TNTH  07070G/WAY G9 PTB  00003                    0330 GW        0000000000005DENSO TEN (THAILAND)180LRKG0035035                                                                                                                              *          20180517 IMCT                IMCT                                                                                                                    WMF1805172.TXT
MDD6J5260694201805                D89848581500PT5620180523000030RADIO;AM/FM CD D              M IMCTM G9J213 TNTH  07070G/WAY G9 PTB  00003                    1530 GW        0000000000005DENSO TEN (THAILAND)180LRJG0042042                                                                                                                              *          20180517 IMCT                IMCT                                                                                                                    WMF1805172.TXT
