REC2018052220180522ISUZU                              6      
MGCKJ5803552000000          IMKDC  89828070100P3YK20180611000004SPEAKER ASM                   M       IMKDC  TNTH  07070IMKDC KI*PTB  000041   K295B5280   001 0000 ES        000000000000 DENSO TEN (THAILAND)                                                                                                                                                       20180522 IMCT                IMCT                                                                                                                    WMF1805222.TXT
MGCKJ5803553000000          IMKDC  89828070200P3YK20180611000002SPEAKER ASM                   M       IMKDC  TNTH  07070IMKDC KI*PTB  000051   K295B5280   001 0000 ES        000000000000 DENSO TEN (THAILAND)                                                                                                                                                       20180522 IMCT                IMCT                                                                                                                    WMF1805222.TXT
MGCKJ5803555000000          IMKDC  89828070300P3YK20180611000002SPEAKER ASM                   M       IMKDC  TNTH  07070IMKDC KI*PTB  000151   K295B5280   001 0000 ES        000000000000 DENSO TEN (THAILAND)                                                                                                                                                       20180522 IMCT                IMCT                                                                                                                    WMF1805222.TXT
MHCKJ5804669000000          IMKDC  89828070100P3YK20180611000004SPEAKER ASM                   M IMCTM IMKDC  TNTH  07070IMKDC KI*PTB  00004 C  K295B5300   001 0000 ES        000000000000 DENSO TEN (THAILAND)                                                                                                                                            *G 2018060500000000 IMCT                IMCT                                                                                                                    WMF1805222.TXT
MHCKJ5804670000000          IMKDC  89828070200P3YK20180611000002SPEAKER ASM                   M IMCTM IMKDC  TNTH  07070IMKDC KI*PTB  00005 C  K295B5300   001 0000 ES        000000000000 DENSO TEN (THAILAND)                                                                                                                                            *G 2018060500000000 IMCT                IMCT                                                                                                                    WMF1805222.TXT
MHCKJ5804671000000          IMKDC  89828070300P3YK20180611000002SPEAKER ASM                   M IMCTM IMKDC  TNTH  07070IMKDC KI*PTB  00015 C  K295B5300   001 0000 ES        000000000000 DENSO TEN (THAILAND)                                                                                                                                            *G 2018060500000000 IMCT                IMCT                                                                                                                    WMF1805222.TXT
