REC2018050920180509ISUZU                              16     
MDEBJ5T01836201805                D89828070100PT4B20180515000028SPEAKER ASM                   M IMCTM S7FL05 TNTH  07070IMCT  S7 PTB  00004                    1600 SR        000000000000 DENSO TEN (THAILAND)18045YR0001   18045YR0014   Y180503202    Y180503215    000000                                                                              *R         20180509 IMCT                IMCT                                                                                                                    RMF1805094.TXT
MDEBJ5T01837201805                D89828070200PV4B20180515000030SPEAKER ASM                   M IMCTM S7FL05 TNTH  07070IMCT  S7 PTB  00005                    1600 SR        000000000000 DENSO TEN (THAILAND)18026UR0016   18045YR0014   Y180503201    Y180503215    000000                                                                              *R         20180509 IMCT                IMCT                                                                                                                    RMF1805094.TXT
MDEBJ5T01838201805                D89828070300PT4B20180515000030SPEAKER ASM                   M IMCTM S7TS02 TNTH  07070IMCT  S7 PTB  00015                    1600 SR        000000000000 DENSO TEN (THAILAND)18026UR0016   18045YR0014   Y180503201    Y180503215    000000                                                                              *R         20180509 IMCT                IMCT                                                                                                                    RMF1805094.TXT
MDEBJ5202787201805                D89828070100PT4B20180514000032SPEAKER ASM                   M IMCTM S7FL05 TNTH  07070IMCT  S7 PTB  00004                    2100 SR        000000000000 DENSO TEN (THAILAND)18026UR0011   18026UR0016   Y180502801    Y180503201    000000                                                                              *R         20180509 IMCT                IMCT                                                                                                                    RMF1805094.TXT
MDEBJ5202788201805                D89828070200PV4B20180514000030SPEAKER ASM                   M IMCTM S7FL05 TNTH  07070IMCT  S7 PTB  00005                    2100 SR        000000000000 DENSO TEN (THAILAND)18026UR0011   18044ZR0005   Y180502801    Y180502815    000000                                                                              *R         20180509 IMCT                IMCT                                                                                                                    RMF1805094.TXT
MDEBJ5202789201805                D89828070300PT4B20180514000030SPEAKER ASM                   M IMCTM S7TS02 TNTH  07070IMCT  S7 PTB  00015                    2100 SR        000000000000 DENSO TEN (THAILAND)18026UR0011   18044ZR0005   Y180502801    Y180502815    000000                                                                              *R         20180509 IMCT                IMCT                                                                                                                    RMF1805094.TXT
MDEFJ5T08812201805                D89828070100PV4F20180515000030SPEAKER ASM                   M IMCTM S7FL05 TNTH  07070IMCT  S7 PTB  00004                    1300 SR        000000000000 DENSO TEN (THAILAND)18028VR0002   17046QR0135   D180503101    D180503115    000000                                                                              *R         20180509 IMCT                IMCT                                                                                                                    RMF1805094.TXT
MDEFJ5T08813201805                D89828070200PV4F20180515000030SPEAKER ASM                   M IMCTM S7FL05 TNTH  07070IMCT  S7 PTB  00005                    1300 SR        000000000000 DENSO TEN (THAILAND)18028VR0002   17046QR0135   D180503101    D180503115    000000                                                                              *R         20180509 IMCT                IMCT                                                                                                                    RMF1805094.TXT
MDEFJ5T08814201805                D89828070300PT4F20180515000020SPEAKER ASM                   M IMCTM S7TS02 TNTH  07070IMCT  S7 PTB  00015                    1300 SR        000000000000 DENSO TEN (THAILAND)18028VR0007   17046QR0135   D180503106    D180503115    000000                                                                              *R         20180509 IMCT                IMCT                                                                                                                    RMF1805094.TXT
MDEFJ5T08815201805                D89829645410PT4F20180515000001RADIO;ASM DVD                 M IMCTM S7TS03 TNTH  07070IMCT  S7 PTB  00003                    1300 SR        000000000000 DENSO TEN (THAILAND)17026RR0093   17026RR0093   D180503110    D180503110    000000                                                                              *R         20180509 IMCT                IMCT                                                                                                                    RMF1805094.TXT
MDEFJ5T08816201805                D89831229000PT4F20180515000004RADIO;AM/FM,CD                M IMCTM S7TS03 TNTH  07070IMCT  S7 PTB  00003                    0230 SR        000000000000 DENSO TEN (THAILAND)17040RR0088   17040RR0091   D180502907    D180502910    000000                                                                              *R         20180509 IMCT                IMCT                                                                                                                    RMF1805094.TXT
MDEFJ5222822201805                D89828070100PV4F20180514000008SPEAKER ASM                   M IMCTM S7FL05 TNTH  07070IMCT  S7 PTB  00004                    2230 SR        000000000000 DENSO TEN (THAILAND)17021QR0066   17021QR0069   D180502901    D180502904    000000                                                                              *R         20180509 IMCT                IMCT                                                                                                                    RMF1805094.TXT
MDEFJ5222823201805                D89828070100PV4F20180515000024SPEAKER ASM                   M IMCTM S7FL05 TNTH  07070IMCT  S7 PTB  00004                    0230 SR        000000000000 DENSO TEN (THAILAND)17021QR0070   17018QR0048   D180502905    S180503001    000000                                                                              *R         20180509 IMCT                IMCT                                                                                                                    RMF1805094.TXT
MDEFJ5222824201805                D89828070100PV4F20180515000028SPEAKER ASM                   M IMCTM S7FL05 TNTH  07070IMCT  S7 PTB  00004                    0830 SR        000000000000 DENSO TEN (THAILAND)17018QR0049   18088WR0018   S180503002    S180503015    000000                                                                              *R         20180509 IMCT                IMCT                                                                                                                    RMF1805094.TXT
MDEFJ5222825201805                D89828070200PV4F20180515000020SPEAKER ASM                   M IMCTM S7FL05 TNTH  07070IMCT  S7 PTB  00005                    0230 SR        000000000000 DENSO TEN (THAILAND)17046QR0125   17046QR0130   D180502906    D180502915    000000                                                                              *R         20180509 IMCT                IMCT                                                                                                                    RMF1805094.TXT
MDEFJ5222826201805                D89828070300PT4F20180515000030SPEAKER ASM                   M IMCTM S7TS02 TNTH  07070IMCT  S7 PTB  00015                    0230 SR        000000000000 DENSO TEN (THAILAND)17046QR0125   18028VR0006   D180502906    D180503105    000000                                                                              *R         20180509 IMCT                IMCT                                                                                                                    RMF1805094.TXT
