REC2018052520180525ISUZU                              53     
MDDDJ5333159201805                D89821984430PT1D20180531000030RADIO;AM/FM,CD                M IMCTM S5NC06 TNTH  07070IMCT  S5 PTB  00005                    0400 SR        000000000000 DENSO TEN (THAILAND)180LNGL0132132                                                                                                                              *          20180525 IMCT                IMCT                                                                                                                    WMF1805254.TXT
MDDDJ5333160201805                D89821984430PT1D20180531000030RADIO;AM/FM,CD                M IMCTM S5NC06 TNTH  07070IMCT  S5 PTB  00005                    0830 SR        000000000000 DENSO TEN (THAILAND)180LPAL0152152                                                                                                                              *          20180525 IMCT                IMCT                                                                                                                    WMF1805254.TXT
MDDDJ5333161201805                D89821984430PT1D20180531000030RADIO;AM/FM,CD                M IMCTM S5NC06 TNTH  07070IMCT  S5 PTB  00005                    1300 SR        000000000000 DENSO TEN (THAILAND)180LPBL0021021                                                                                                                              *          20180525 IMCT                IMCT                                                                                                                    WMF1805254.TXT
MDDDJ5333162201805                D89821984430PT4D20180531000030RADIO;AM/FM,CD                M IMCTM S9CO001TNTH  07070IMCT  S9 PTB  00005                    0230 SR        000000000000 DENSO TEN (THAILAND)180LNGU0013013                                                                                                                              *          20180525 IMCT                IMCT                                                                                                                    WMF1805254.TXT
MDDDJ5333163201805                D89828070100PV1D20180530000060SPEAKER ASM                   M IMCTM S5MB11 TNTH  07070IMCT  S5 PTB  00004                    2230 SR        000000000000 DENSO TEN (THAILAND)180LPGL0237237                                                                                                                              *          20180525 IMCT                IMCT                                                                                                                    WMF1805254.TXT
MDDDJ5333164201805                D89828070100PV1D20180531000060SPEAKER ASM                   M IMCTM S5MB11 TNTH  07070IMCT  S5 PTB  00004                    0230 SR        000000000000 DENSO TEN (THAILAND)180LPGL0238238                                                                                                                              *          20180525 IMCT                IMCT                                                                                                                    WMF1805254.TXT
MDDDJ5333165201805                D89828070100PV1D20180531000060SPEAKER ASM                   M IMCTM S5MB11 TNTH  07070IMCT  S5 PTB  00004                    0400 SR        000000000000 DENSO TEN (THAILAND)180LNGL0132132                                                                                                                              *          20180525 IMCT                IMCT                                                                                                                    WMF1805254.TXT
MDDDJ5333166201805                D89828070100PV1D20180531000060SPEAKER ASM                   M IMCTM S5MB11 TNTH  07070IMCT  S5 PTB  00004                    0830 SR        000000000000 DENSO TEN (THAILAND)180LPAL0152152                                                                                                                              *          20180525 IMCT                IMCT                                                                                                                    WMF1805254.TXT
MDDDJ5333167201805                D89828070100PV1D20180531000120SPEAKER ASM                   M IMCTM S5MB11 TNTH  07070IMCT  S5 PTB  00004                    1300 SR        000000000000 DENSO TEN (THAILAND)180LPBL0021021180LPGL0239239                                                                                                                *          20180525 IMCT                IMCT                                                                                                                    WMF1805254.TXT
MDDDJ5333168201805                D89828070100PV1D20180531000060SPEAKER ASM                   M IMCTM S5MB11 TNTH  07070IMCT  S5 PTB  00004                    2100 SR        000000000000 DENSO TEN (THAILAND)180LXAL0024024                                                                                                                              *          20180525 IMCT                IMCT                                                                                                                    WMF1805254.TXT
MDDDJ5333169201805                D89828070100PV4D20180531000060SPEAKER ASM                   M IMCTM S0FL05 TNTH  07070IMCT  S0 PTB  00004                    0230 SR        000000000000 DENSO TEN (THAILAND)180LNGU0013013                                                                                                                              *          20180525 IMCT                IMCT                                                                                                                    WMF1805254.TXT
MDDDJ5333170201805                D89828070300PT1D20180530000060SPEAKER ASM                   M IMCTM S5NB082TNTH  07070IMCT  S5 PTB  00015                    2230 SR        000000000000 DENSO TEN (THAILAND)180LPGL0237237                                                                                                                              *          20180525 IMCT                IMCT                                                                                                                    WMF1805254.TXT
MDDDJ5333171201805                D89828070300PT1D20180531000060SPEAKER ASM                   M IMCTM S5NB082TNTH  07070IMCT  S5 PTB  00015                    0230 SR        000000000000 DENSO TEN (THAILAND)180LPGL0238238                                                                                                                              *          20180525 IMCT                IMCT                                                                                                                    WMF1805254.TXT
MDDDJ5333172201805                D89828070300PT1D20180531000060SPEAKER ASM                   M IMCTM S5NB082TNTH  07070IMCT  S5 PTB  00015                    1300 SR        000000000000 DENSO TEN (THAILAND)180LPGL0239239                                                                                                                              *          20180525 IMCT                IMCT                                                                                                                    WMF1805254.TXT
MDDDJ5333173201805                D89831228300PT1D20180530000030RADIO;AM/FM,CD                M IMCTM S5NC06 TNTH  07070IMCT  S5 CPB  00003                    2230 SR        000000000000 DENSO TEN (THAILAND)180LPGL0237237                                                                                                                              *          20180525 IMCT                IMCT                                                                                                                    WMF1805254.TXT
MDDDJ5333174201805                D89831228300PT1D20180531000030RADIO;AM/FM,CD                M IMCTM S5NC06 TNTH  07070IMCT  S5 CPB  00003                    0230 SR        000000000000 DENSO TEN (THAILAND)180LPGL0238238                                                                                                                              *          20180525 IMCT                IMCT                                                                                                                    WMF1805254.TXT
MDDDJ5333175201805                D89831228300PT1D20180531000030RADIO;AM/FM,CD                M IMCTM S5NC06 TNTH  07070IMCT  S5 CPB  00003                    1300 SR        000000000000 DENSO TEN (THAILAND)180LPGL0239239                                                                                                                              *          20180525 IMCT                IMCT                                                                                                                    WMF1805254.TXT
MDDUJ5240359201805                D89828070100PT4U20180531000030SPEAKER ASM                   M IMCTM S0FL05 TNTH  07070IMCT  S0 PTB  00004                    0830 SR        000000000000 DENSO TEN (THAILAND)180LUSU0080080                                                                                                                              *          20180525 IMCT                IMCT                                                                                                                    WMF1805254.TXT
MDDUJ5240360201805                D89828070100PT4U20180531000030SPEAKER ASM                   M IMCTM S0FL05 TNTH  07070IMCT  S0 PTB  00004                    1300 SR        000000000000 DENSO TEN (THAILAND)180LUTU0052052                                                                                                                              *          20180525 IMCT                IMCT                                                                                                                    WMF1805254.TXT
MDDUJ5240361201805                D89828070100PT4U20180531000030SPEAKER ASM                   M IMCTM S0FL05 TNTH  07070IMCT  S0 PTB  00004                    2230 SR        000000000000 DENSO TEN (THAILAND)180LULU0037037                                                                                                                              *          20180525 IMCT                IMCT                                                                                                                    WMF1805254.TXT
MDDUJ5240362201805                D89828070200PV4U20180531000030SPEAKER ASM                   M IMCTM S0FR05 TNTH  07070IMCT  S0 PTB  00005                    0830 SR        000000000000 DENSO TEN (THAILAND)180LUSU0080080                                                                                                                              *          20180525 IMCT                IMCT                                                                                                                    WMF1805254.TXT
MDDUJ5240363201805                D89828070200PV4U20180531000030SPEAKER ASM                   M IMCTM S0FR05 TNTH  07070IMCT  S0 PTB  00005                    1300 SR        000000000000 DENSO TEN (THAILAND)180LUTU0052052                                                                                                                              *          20180525 IMCT                IMCT                                                                                                                    WMF1805254.TXT
MDDUJ5240364201805                D89828070200PV4U20180531000030SPEAKER ASM                   M IMCTM S0FR05 TNTH  07070IMCT  S0 PTB  00005                    2230 SR        000000000000 DENSO TEN (THAILAND)180LULU0037037                                                                                                                              *          20180525 IMCT                IMCT                                                                                                                    WMF1805254.TXT
MDDUJ5240365201805                D89828070300PT4U20180531000030SPEAKER ASM                   M IMCTM S9TS02 TNTH  07070IMCT  S9 PTB  00015                    0830 SR        000000000000 DENSO TEN (THAILAND)180LUSU0080080                                                                                                                              *          20180525 IMCT                IMCT                                                                                                                    WMF1805254.TXT
MDDUJ5240366201805                D89828070300PT4U20180531000030SPEAKER ASM                   M IMCTM S9TS02 TNTH  07070IMCT  S9 PTB  00015                    1300 SR        000000000000 DENSO TEN (THAILAND)180LUTU0052052                                                                                                                              *          20180525 IMCT                IMCT                                                                                                                    WMF1805254.TXT
MDDUJ5240367201805                D89828070300PT4U20180531000030SPEAKER ASM                   M IMCTM S9TS02 TNTH  07070IMCT  S9 PTB  00015                    2230 SR        000000000000 DENSO TEN (THAILAND)180LULU0037037                                                                                                                              *          20180525 IMCT                IMCT                                                                                                                    WMF1805254.TXT
MDEDJ5287957201805                D89828070100PV1D20180530000030SPEAKER ASM                   M IMCTM S5MB11 TNTH  07070IMCT  S5 PTB  00004                    2230 SR        000000000000 DENSO TEN (THAILAND)17037RL0016016                                                                                                                              *          20180525 IMCT                IMCT                                                                                                                    WMF1805254.TXT
MDEDJ5287958201805                D89828070100PV1D20180531000060SPEAKER ASM                   M IMCTM S5MB11 TNTH  07070IMCT  S5 PTB  00004                    0400 SR        000000000000 DENSO TEN (THAILAND)18001VL002902918039ZL0002002                                                                                                                *          20180525 IMCT                IMCT                                                                                                                    WMF1805254.TXT
MDEDJ5287959201805                D89828070100PV1D20180531000060SPEAKER ASM                   M IMCTM S5MB11 TNTH  07070IMCT  S5 PTB  00004                    1030 SR        000000000000 DENSO TEN (THAILAND)18082WL0014015                                                                                                                              *          20180525 IMCT                IMCT                                                                                                                    WMF1805254.TXT
MDEDJ5287960201805                D89828070100PV1D20180531000060SPEAKER ASM                   M IMCTM S5MB11 TNTH  07070IMCT  S5 PTB  00004                    1600 SR        000000000000 DENSO TEN (THAILAND)17033QL0051052                                                                                                                              *          20180525 IMCT                IMCT                                                                                                                    WMF1805254.TXT
MDEDJ5287961201805                D89828070100PV1D20180531000030SPEAKER ASM                   M IMCTM S5MB11 TNTH  07070IMCT  S5 PTB  00004                    2100 SR        000000000000 DENSO TEN (THAILAND)17037RL0017017                                                                                                                              *          20180525 IMCT                IMCT                                                                                                                    WMF1805254.TXT
MDEDJ5287962201805                D89828070100PV4D20180531000030SPEAKER ASM                   M IMCTM S0FL05 TNTH  07070IMCT  S0 PTB  00004                    1300 SR        000000000000 DENSO TEN (THAILAND)18010ZU0020020                                                                                                                              *          20180525 IMCT                IMCT                                                                                                                    WMF1805254.TXT
MDEDJ5287963201805                D89828070100PV4D20180531000030SPEAKER ASM                   M IMCTM S0FL05 TNTH  07070IMCT  S0 PTB  00004                    2100 SR        000000000000 DENSO TEN (THAILAND)18010ZU0021021                                                                                                                              *          20180525 IMCT                IMCT                                                                                                                    WMF1805254.TXT
MDEDJ5287964201805                D89828070200PV1D20180530000030SPEAKER ASM                   M IMCTM S5MA14 TNTH  07070IMCT  S5 PTB  00005                    2230 SR        000000000000 DENSO TEN (THAILAND)17037RL0016016                                                                                                                              *          20180525 IMCT                IMCT                                                                                                                    WMF1805254.TXT
MDEDJ5287965201805                D89828070200PV1D20180531000060SPEAKER ASM                   M IMCTM S5MA14 TNTH  07070IMCT  S5 PTB  00005                    0400 SR        000000000000 DENSO TEN (THAILAND)18001VL002902918039ZL0002002                                                                                                                *          20180525 IMCT                IMCT                                                                                                                    WMF1805254.TXT
MDEDJ5287966201805                D89828070200PV1D20180531000060SPEAKER ASM                   M IMCTM S5MA14 TNTH  07070IMCT  S5 PTB  00005                    1600 SR        000000000000 DENSO TEN (THAILAND)17033QL0051052                                                                                                                              *          20180525 IMCT                IMCT                                                                                                                    WMF1805254.TXT
MDEDJ5287967201805                D89828070200PV1D20180531000030SPEAKER ASM                   M IMCTM S5MA14 TNTH  07070IMCT  S5 PTB  00005                    2100 SR        000000000000 DENSO TEN (THAILAND)17037RL0017017                                                                                                                              *          20180525 IMCT                IMCT                                                                                                                    WMF1805254.TXT
MDEDJ5287968201805                D89828070300PT1D20180530000030SPEAKER ASM                   M IMCTM S5NB082TNTH  07070IMCT  S5 PTB  00015                    2230 SR        000000000000 DENSO TEN (THAILAND)17037RL0016016                                                                                                                              *          20180525 IMCT                IMCT                                                                                                                    WMF1805254.TXT
MDEDJ5287969201805                D89828070300PT1D20180531000060SPEAKER ASM                   M IMCTM S5NB082TNTH  07070IMCT  S5 PTB  00015                    0400 SR        000000000000 DENSO TEN (THAILAND)18001VL002902918039ZL0002002                                                                                                                *          20180525 IMCT                IMCT                                                                                                                    WMF1805254.TXT
MDEDJ5287970201805                D89828070300PT1D20180531000060SPEAKER ASM                   M IMCTM S5NB082TNTH  07070IMCT  S5 PTB  00015                    1600 SR        000000000000 DENSO TEN (THAILAND)17033QL0051052                                                                                                                              *          20180525 IMCT                IMCT                                                                                                                    WMF1805254.TXT
MDEDJ5287971201805                D89828070300PT1D20180531000030SPEAKER ASM                   M IMCTM S5NB082TNTH  07070IMCT  S5 PTB  00015                    2100 SR        000000000000 DENSO TEN (THAILAND)17037RL0017017                                                                                                                              *          20180525 IMCT                IMCT                                                                                                                    WMF1805254.TXT
MDEDJ5287972201805                D89831229000PT1D20180530000015RADIO;AM/FM,CD                M IMCTM S5NC06 TNTH  07070IMCT  S5 PTB  00003                    2230 SR        000000000000 DENSO TEN (THAILAND)17037RL0016016                                                                                                                              *          20180525 IMCT                IMCT                                                                                                                    WMF1805254.TXT
MDEDJ5287973201805                D89831229000PT1D20180531000015RADIO;AM/FM,CD                M IMCTM S5NC06 TNTH  07070IMCT  S5 PTB  00003                    2100 SR        000000000000 DENSO TEN (THAILAND)17037RL0017017                                                                                                                              *          20180525 IMCT                IMCT                                                                                                                    WMF1805254.TXT
MDEDJ5287974201805                D89831229200PT1D20180531000030RADIO;AM/FM,CD                M IMCTM S5NC06 TNTH  07070IMCT  S5 PTB  00003                    1600 SR        000000000000 DENSO TEN (THAILAND)17033QL0051052                                                                                                                              *          20180525 IMCT                IMCT                                                                                                                    WMF1805254.TXT
MDEUJ5250456201805                D89828070100PT4U20180531000030SPEAKER ASM                   M IMCTM S0FL05 TNTH  07070IMCT  S0 PTB  00004                    0230 SR        000000000000 DENSO TEN (THAILAND)18049ZU0048048                                                                                                                              *          20180525 IMCT                IMCT                                                                                                                    WMF1805254.TXT
MDEUJ5250457201805                D89828070100PT4U20180531000030SPEAKER ASM                   M IMCTM S0FL05 TNTH  07070IMCT  S0 PTB  00004                    1030 SR        000000000000 DENSO TEN (THAILAND)18049ZU0049049                                                                                                                              *          20180525 IMCT                IMCT                                                                                                                    WMF1805254.TXT
MDEUJ5250458201805                D89828070100PT4U20180531000030SPEAKER ASM                   M IMCTM S0FL05 TNTH  07070IMCT  S0 PTB  00004                    2100 SR        000000000000 DENSO TEN (THAILAND)18049ZU0050050                                                                                                                              *          20180525 IMCT                IMCT                                                                                                                    WMF1805254.TXT
MDEUJ5250459201805                D89828070200PV4U20180531000030SPEAKER ASM                   M IMCTM S0FR05 TNTH  07070IMCT  S0 PTB  00005                    0230 SR        000000000000 DENSO TEN (THAILAND)18049ZU0048048                                                                                                                              *          20180525 IMCT                IMCT                                                                                                                    WMF1805254.TXT
MDEUJ5250460201805                D89828070200PV4U20180531000030SPEAKER ASM                   M IMCTM S0FR05 TNTH  07070IMCT  S0 PTB  00005                    1030 SR        000000000000 DENSO TEN (THAILAND)18049ZU0049049                                                                                                                              *          20180525 IMCT                IMCT                                                                                                                    WMF1805254.TXT
MDEUJ5250461201805                D89828070200PV4U20180531000030SPEAKER ASM                   M IMCTM S0FR05 TNTH  07070IMCT  S0 PTB  00005                    2100 SR        000000000000 DENSO TEN (THAILAND)18049ZU0050050                                                                                                                              *          20180525 IMCT                IMCT                                                                                                                    WMF1805254.TXT
MDEUJ5250462201805                D89828070300PT4U20180531000030SPEAKER ASM                   M IMCTM S9TS02 TNTH  07070IMCT  S9 PTB  00015                    0230 SR        000000000000 DENSO TEN (THAILAND)18049ZU0048048                                                                                                                              *          20180525 IMCT                IMCT                                                                                                                    WMF1805254.TXT
MDEUJ5250463201805                D89828070300PT4U20180531000030SPEAKER ASM                   M IMCTM S9TS02 TNTH  07070IMCT  S9 PTB  00015                    1030 SR        000000000000 DENSO TEN (THAILAND)18049ZU0049049                                                                                                                              *          20180525 IMCT                IMCT                                                                                                                    WMF1805254.TXT
MDEUJ5250464201805                D89828070300PT4U20180531000030SPEAKER ASM                   M IMCTM S9TS02 TNTH  07070IMCT  S9 PTB  00015                    2100 SR        000000000000 DENSO TEN (THAILAND)18049ZU0050050                                                                                                                              *          20180525 IMCT                IMCT                                                                                                                    WMF1805254.TXT
