REC2018061120180611ISUZU                              3      
MECKJ6801432000000          IMKDC  89828070100P3YK20180629000006SPEAKER ASM                   M IMCTM IMKDC  TNTH  09020IMKDC KI*PTB  00004    K295B5780   001 0000 ES        000000000000 DENSO TEN (THAILAND)                                                                                                                                            *G         20180611 IMCT                IMCT                                                                                                                    WMF1806117.TXT
MECKJ6801433000000          IMKDC  89828070200P3YK20180629000006SPEAKER ASM                   M IMCTM IMKDC  TNTH  09020IMKDC KI*PTB  00005    K295B5780   001 0000 ES        000000000000 DENSO TEN (THAILAND)                                                                                                                                            *G         20180611 IMCT                IMCT                                                                                                                    WMF1806117.TXT
MECKJ6801434000000          IMKDC  89828070300P3YK20180629000006SPEAKER ASM                   M IMCTM IMKDC  TNTH  09020IMKDC KI*PTB  00015    K295B5780   001 0000 ES        000000000000 DENSO TEN (THAILAND)                                                                                                                                            *G         20180611 IMCT                IMCT                                                                                                                    WMF1806117.TXT
