REC2018061420180614ISUZU                              3      
MECKJ6802982000000          IMKDC  89828070100P3YK20180702000150SPEAKER ASM                   M IMCTM IMKDC  TNTH  09020IMKDC KI*PTB  00004    K293I7520   001 0000 ES        000000000000 DENSO TEN (THAILAND)                                                                                                                                            *G         20180614 IMCT                IMCT                                                                                                                    WMF1806146.TXT
MECKJ6802983000000          IMKDC  89828070200P3YK20180702000300SPEAKER ASM                   M IMCTM IMKDC  TNTH  09020IMKDC KI*PTB  00005    K293I7520   001 0000 ES        000000000000 DENSO TEN (THAILAND)                                                                                                                                            *G         20180614 IMCT                IMCT                                                                                                                    WMF1806146.TXT
MECKJ6802984000000          IMKDC  89828070300P3YK20180702000450SPEAKER ASM                   M IMCTM IMKDC  TNTH  09020IMKDC KI*PTB  00015    K293I7520   001 0000 ES        000000000000 DENSO TEN (THAILAND)                                                                                                                                            *G         20180614 IMCT                IMCT                                                                                                                    WMF1806146.TXT
