REC2018060620180606ISUZU                              65     
MDDDJ6226107201806                D89821984430PT1D20180610000030RADIO;AM/FM,CD                M IMCTM S5NC06 TNTH  09020IMCT  S5 PTB  00005                    0230 SR        000000000000 DENSO TEN (THAILAND)180LRBL0041041                                                                                                                              *          20180606 IMCT                IMCT                                                                                                                    WMF1806063.TXT
MDDDJ6226108201806                D89821984430PT1D20180610000030RADIO;AM/FM,CD                M IMCTM S5NC06 TNTH  09020IMCT  S5 PTB  00005                    0400 SR        000000000000 DENSO TEN (THAILAND)180LNHL0048048                                                                                                                              *          20180606 IMCT                IMCT                                                                                                                    WMF1806063.TXT
MDDDJ6226109201806                D89821984430PT1D20180611000030RADIO;AM/FM,CD                M IMCTM S5NC06 TNTH  09020IMCT  S5 PTB  00005                    1600 SR        000000000000 DENSO TEN (THAILAND)180LXEL0053053                                                                                                                              *          20180606 IMCT                IMCT                                                                                                                    WMF1806063.TXT
MDDDJ6226110201806                D89828070100PV1D20180609000060SPEAKER ASM                   M IMCTM S5MB11 TNTH  09020IMCT  S5 PTB  00004                    2230 SR        000000000000 DENSO TEN (THAILAND)180LPFL0051051                                                                                                                              *          20180606 IMCT                IMCT                                                                                                                    WMF1806063.TXT
MDDDJ6226111201806                D89828070100PV1D20180610000060SPEAKER ASM                   M IMCTM S5MB11 TNTH  09020IMCT  S5 PTB  00004                    0230 SR        000000000000 DENSO TEN (THAILAND)180LRBL0041041                                                                                                                              *          20180606 IMCT                IMCT                                                                                                                    WMF1806063.TXT
MDDDJ6226112201806                D89828070100PV1D20180610000120SPEAKER ASM                   M IMCTM S5MB11 TNTH  09020IMCT  S5 PTB  00004                    0400 SR        000000000000 DENSO TEN (THAILAND)180LNHL0048048180LPFL0052052                                                                                                                *          20180606 IMCT                IMCT                                                                                                                    WMF1806063.TXT
MDDDJ6226113201806                D89828070100PV1D20180611000060SPEAKER ASM                   M IMCTM S5MB11 TNTH  09020IMCT  S5 PTB  00004                    0830 SR        000000000000 DENSO TEN (THAILAND)180LPHL0016016                                                                                                                              *          20180606 IMCT                IMCT                                                                                                                    WMF1806063.TXT
MDDDJ6226114201806                D89828070100PV1D20180611000060SPEAKER ASM                   M IMCTM S5MB11 TNTH  09020IMCT  S5 PTB  00004                    1300 SR        000000000000 DENSO TEN (THAILAND)180LPFL0053053                                                                                                                              *          20180606 IMCT                IMCT                                                                                                                    WMF1806063.TXT
MDDDJ6226115201806                D89828070100PV1D20180611000060SPEAKER ASM                   M IMCTM S5MB11 TNTH  09020IMCT  S5 PTB  00004                    1600 SR        000000000000 DENSO TEN (THAILAND)180LXEL0053053                                                                                                                              *          20180606 IMCT                IMCT                                                                                                                    WMF1806063.TXT
MDDDJ6226116201806                D89828070100PV1D20180611000060SPEAKER ASM                   M IMCTM S5MB11 TNTH  09020IMCT  S5 PTB  00004                    2100 SR        000000000000 DENSO TEN (THAILAND)180LPML0021021                                                                                                                              *          20180606 IMCT                IMCT                                                                                                                    WMF1806063.TXT
MDDDJ6226117201806                D89828070300PT1D20180609000060SPEAKER ASM                   M IMCTM S5NB082TNTH  09020IMCT  S5 PTB  00015                    2230 SR        000000000000 DENSO TEN (THAILAND)180LPFL0051051                                                                                                                              *          20180606 IMCT                IMCT                                                                                                                    WMF1806063.TXT
MDDDJ6226118201806                D89828070300PT1D20180610000060SPEAKER ASM                   M IMCTM S5NB082TNTH  09020IMCT  S5 PTB  00015                    0400 SR        000000000000 DENSO TEN (THAILAND)180LPFL0052052                                                                                                                              *          20180606 IMCT                IMCT                                                                                                                    WMF1806063.TXT
MDDDJ6226119201806                D89828070300PT1D20180611000060SPEAKER ASM                   M IMCTM S5NB082TNTH  09020IMCT  S5 PTB  00015                    0830 SR        000000000000 DENSO TEN (THAILAND)180LPHL0016016                                                                                                                              *          20180606 IMCT                IMCT                                                                                                                    WMF1806063.TXT
MDDDJ6226120201806                D89828070300PT1D20180611000060SPEAKER ASM                   M IMCTM S5NB082TNTH  09020IMCT  S5 PTB  00015                    1300 SR        000000000000 DENSO TEN (THAILAND)180LPFL0053053                                                                                                                              *          20180606 IMCT                IMCT                                                                                                                    WMF1806063.TXT
MDDDJ6226121201806                D89828070300PT1D20180611000060SPEAKER ASM                   M IMCTM S5NB082TNTH  09020IMCT  S5 PTB  00015                    2100 SR        000000000000 DENSO TEN (THAILAND)180LPML0021021                                                                                                                              *          20180606 IMCT                IMCT                                                                                                                    WMF1806063.TXT
MDDDJ6226122201806                D89831228300PT1D20180609000030RADIO;AM/FM,CD                M IMCTM S5NC06 TNTH  09020IMCT  S5 CPB  00003                    2230 SR        000000000000 DENSO TEN (THAILAND)180LPFL0051051                                                                                                                              *          20180606 IMCT                IMCT                                                                                                                    WMF1806063.TXT
MDDDJ6226123201806                D89831228300PT1D20180610000030RADIO;AM/FM,CD                M IMCTM S5NC06 TNTH  09020IMCT  S5 CPB  00003                    0400 SR        000000000000 DENSO TEN (THAILAND)180LPFL0052052                                                                                                                              *          20180606 IMCT                IMCT                                                                                                                    WMF1806063.TXT
MDDDJ6226124201806                D89831228300PT1D20180611000030RADIO;AM/FM,CD                M IMCTM S5NC06 TNTH  09020IMCT  S5 CPB  00003                    0830 SR        000000000000 DENSO TEN (THAILAND)180LPHL0016016                                                                                                                              *          20180606 IMCT                IMCT                                                                                                                    WMF1806063.TXT
MDDDJ6226125201806                D89831228300PT1D20180611000030RADIO;AM/FM,CD                M IMCTM S5NC06 TNTH  09020IMCT  S5 CPB  00003                    1300 SR        000000000000 DENSO TEN (THAILAND)180LPFL0053053                                                                                                                              *          20180606 IMCT                IMCT                                                                                                                    WMF1806063.TXT
MDDUJ6212818201806                D89828070100PT4U20180610000030SPEAKER ASM                   M IMCTM S0FL05 TNTH  09020IMCT  S0 PTB  00004                    0400 SR        000000000000 DENSO TEN (THAILAND)180LUSU0091091                                                                                                                              *          20180606 IMCT                IMCT                                                                                                                    WMF1806063.TXT
MDDUJ6212819201806                D89828070100PT4U20180611000030SPEAKER ASM                   M IMCTM S0FL05 TNTH  09020IMCT  S0 PTB  00004                    1300 SR        000000000000 DENSO TEN (THAILAND)180LUTU0054054                                                                                                                              *          20180606 IMCT                IMCT                                                                                                                    WMF1806063.TXT
MDDUJ6212820201806                D89828070100PT4U20180611000030SPEAKER ASM                   M IMCTM S0FL05 TNTH  09020IMCT  S0 PTB  00004                    2100 SR        000000000000 DENSO TEN (THAILAND)180LURU0064064                                                                                                                              *          20180606 IMCT                IMCT                                                                                                                    WMF1806063.TXT
MDDUJ6212821201806                D89828070200PV4U20180610000030SPEAKER ASM                   M IMCTM S0FR05 TNTH  09020IMCT  S0 PTB  00005                    0400 SR        000000000000 DENSO TEN (THAILAND)180LUSU0091091                                                                                                                              *          20180606 IMCT                IMCT                                                                                                                    WMF1806063.TXT
MDDUJ6212822201806                D89828070200PV4U20180611000030SPEAKER ASM                   M IMCTM S0FR05 TNTH  09020IMCT  S0 PTB  00005                    1300 SR        000000000000 DENSO TEN (THAILAND)180LUTU0054054                                                                                                                              *          20180606 IMCT                IMCT                                                                                                                    WMF1806063.TXT
MDDUJ6212823201806                D89828070200PV4U20180611000030SPEAKER ASM                   M IMCTM S0FR05 TNTH  09020IMCT  S0 PTB  00005                    2100 SR        000000000000 DENSO TEN (THAILAND)180LURU0064064                                                                                                                              *          20180606 IMCT                IMCT                                                                                                                    WMF1806063.TXT
MDDUJ6212824201806                D89828070300PT4U20180610000030SPEAKER ASM                   M IMCTM S9TS02 TNTH  09020IMCT  S9 PTB  00015                    0400 SR        000000000000 DENSO TEN (THAILAND)180LUSU0091091                                                                                                                              *          20180606 IMCT                IMCT                                                                                                                    WMF1806063.TXT
MDDUJ6212825201806                D89828070300PT4U20180611000030SPEAKER ASM                   M IMCTM S9TS02 TNTH  09020IMCT  S9 PTB  00015                    1300 SR        000000000000 DENSO TEN (THAILAND)180LUTU0054054                                                                                                                              *          20180606 IMCT                IMCT                                                                                                                    WMF1806063.TXT
MDDUJ6212826201806                D89828070300PT4U20180611000030SPEAKER ASM                   M IMCTM S9TS02 TNTH  09020IMCT  S9 PTB  00015                    2100 SR        000000000000 DENSO TEN (THAILAND)180LURU0064064                                                                                                                              *          20180606 IMCT                IMCT                                                                                                                    WMF1806063.TXT
MDEDJ6231534201806                D89828070100PV1D20180609000030SPEAKER ASM                   M IMCTM S5MB11 TNTH  09020IMCT  S5 PTB  00004                    2230 SR        000000000000 DENSO TEN (THAILAND)17050RL0035035                                                                                                                              *          20180606 IMCT                IMCT                                                                                                                    WMF1806063.TXT
MDEDJ6231535201806                D89828070100PV1D20180610000030SPEAKER ASM                   M IMCTM S5MB11 TNTH  09020IMCT  S5 PTB  00004                    0400 SR        000000000000 DENSO TEN (THAILAND)18068UL0011011                                                                                                                              *          20180606 IMCT                IMCT                                                                                                                    WMF1806063.TXT
MDEDJ6231536201806                D89828070100PV1D20180611000030SPEAKER ASM                   M IMCTM S5MB11 TNTH  09020IMCT  S5 PTB  00004                    1030 SR        000000000000 DENSO TEN (THAILAND)17018QL0003003                                                                                                                              *          20180606 IMCT                IMCT                                                                                                                    WMF1806063.TXT
MDEDJ6231537201806                D89828070100PV1D20180611000090SPEAKER ASM                   M IMCTM S5MB11 TNTH  09020IMCT  S5 PTB  00004                    1300 SR        000000000000 DENSO TEN (THAILAND)18007ZL009909918063UL0018019                                                                                                                *          20180606 IMCT                IMCT                                                                                                                    WMF1806063.TXT
MDEDJ6231538201806                D89828070100PV1D20180611000030SPEAKER ASM                   M IMCTM S5MB11 TNTH  09020IMCT  S5 PTB  00004                    1600 SR        000000000000 DENSO TEN (THAILAND)18041ZL0001001                                                                                                                              *          20180606 IMCT                IMCT                                                                                                                    WMF1806063.TXT
MDEDJ6231539201806                D89828070100PV4D20180610000030SPEAKER ASM                   M IMCTM S0FL05 TNTH  09020IMCT  S0 PTB  00004                    0400 SR        000000000000 DENSO TEN (THAILAND)18076UU0001001                                                                                                                              *          20180606 IMCT                IMCT                                                                                                                    WMF1806063.TXT
MDEDJ6231540201806                D89828070100PV4D20180611000030SPEAKER ASM                   M IMCTM S0FL05 TNTH  09020IMCT  S0 PTB  00004                    1300 SR        000000000000 DENSO TEN (THAILAND)18099UU0008008                                                                                                                              *          20180606 IMCT                IMCT                                                                                                                    WMF1806063.TXT
MDEDJ6231541201806                D89828070200PV1D20180609000030SPEAKER ASM                   M IMCTM S5MA14 TNTH  09020IMCT  S5 PTB  00005                    2230 SR        000000000000 DENSO TEN (THAILAND)17050RL0035035                                                                                                                              *          20180606 IMCT                IMCT                                                                                                                    WMF1806063.TXT
MDEDJ6231542201806                D89828070200PV1D20180610000030SPEAKER ASM                   M IMCTM S5MA14 TNTH  09020IMCT  S5 PTB  00005                    0400 SR        000000000000 DENSO TEN (THAILAND)18068UL0011011                                                                                                                              *          20180606 IMCT                IMCT                                                                                                                    WMF1806063.TXT
MDEDJ6231543201806                D89828070200PV1D20180611000030SPEAKER ASM                   M IMCTM S5MA14 TNTH  09020IMCT  S5 PTB  00005                    1600 SR        000000000000 DENSO TEN (THAILAND)18041ZL0001001                                                                                                                              *          20180606 IMCT                IMCT                                                                                                                    WMF1806063.TXT
MDEDJ6231544201806                D89828070200PV4D20180611000030SPEAKER ASM                   M IMCTM S0FR05 TNTH  09020IMCT  S0 PTB  00005                    1300 SR        000000000000 DENSO TEN (THAILAND)18099UU0008008                                                                                                                              *          20180606 IMCT                IMCT                                                                                                                    WMF1806063.TXT
MDEDJ6231545201806                D89828070300PT1D20180609000030SPEAKER ASM                   M IMCTM S5NB082TNTH  09020IMCT  S5 PTB  00015                    2230 SR        000000000000 DENSO TEN (THAILAND)17050RL0035035                                                                                                                              *          20180606 IMCT                IMCT                                                                                                                    WMF1806063.TXT
MDEDJ6231546201806                D89828070300PT1D20180610000030SPEAKER ASM                   M IMCTM S5NB082TNTH  09020IMCT  S5 PTB  00015                    0400 SR        000000000000 DENSO TEN (THAILAND)18068UL0011011                                                                                                                              *          20180606 IMCT                IMCT                                                                                                                    WMF1806063.TXT
MDEDJ6231547201806                D89828070300PT1D20180611000060SPEAKER ASM                   M IMCTM S5NB082TNTH  09020IMCT  S5 PTB  00015                    1300 SR        000000000000 DENSO TEN (THAILAND)18063UL0018019                                                                                                                              *          20180606 IMCT                IMCT                                                                                                                    WMF1806063.TXT
MDEDJ6231548201806                D89828070300PT1D20180611000030SPEAKER ASM                   M IMCTM S5NB082TNTH  09020IMCT  S5 PTB  00015                    1600 SR        000000000000 DENSO TEN (THAILAND)18041ZL0001001                                                                                                                              *          20180606 IMCT                IMCT                                                                                                                    WMF1806063.TXT
MDEDJ6231549201806                D89828070300PT4D20180610000030SPEAKER ASM                   M IMCTM S9TS02 TNTH  09020IMCT  S9 PTB  00015                    0400 SR        000000000000 DENSO TEN (THAILAND)18076UU0001001                                                                                                                              *          20180606 IMCT                IMCT                                                                                                                    WMF1806063.TXT
MDEDJ6231550201806                D89828070300PT4D20180611000030SPEAKER ASM                   M IMCTM S9TS02 TNTH  09020IMCT  S9 PTB  00015                    1300 SR        000000000000 DENSO TEN (THAILAND)18099UU0008008                                                                                                                              *          20180606 IMCT                IMCT                                                                                                                    WMF1806063.TXT
MDEDJ6231551201806                D89829645410PT1D20180609000015RADIO;ASM DVD                 M IMCTM S5NC06 TNTH  09020IMCT  S5 PTB  00003                    2230 SR        000000000000 DENSO TEN (THAILAND)17050RL0035035                                                                                                                              *          20180606 IMCT                IMCT                                                                                                                    WMF1806063.TXT
MDEDJ6231552201806                D89848581800PT1D20180611000030RADIO;AM/FM CD D              M IMCTM S5NC06 TNTH  09020IMCT  S5 PTB  00003                    1300 SR        000000000000 DENSO TEN (THAILAND)18063UL0018019                                                                                                                              *          20180606 IMCT                IMCT                                                                                                                    WMF1806063.TXT
MDEUJ6219886201806                D89828070100PT4U20180609000030SPEAKER ASM                   M IMCTM S0FL05 TNTH  09020IMCT  S0 PTB  00004                    2230 SR        000000000000 DENSO TEN (THAILAND)18025UU0076076                                                                                                                              *          20180606 IMCT                IMCT                                                                                                                    WMF1806063.TXT
MDEUJ6219887201806                D89828070100PT4U20180610000030SPEAKER ASM                   M IMCTM S0FL05 TNTH  09020IMCT  S0 PTB  00004                    0230 SR        000000000000 DENSO TEN (THAILAND)18025UU0077077                                                                                                                              *          20180606 IMCT                IMCT                                                                                                                    WMF1806063.TXT
MDEUJ6219888201806                D89828070100PT4U20180611000030SPEAKER ASM                   M IMCTM S0FL05 TNTH  09020IMCT  S0 PTB  00004                    1030 SR        000000000000 DENSO TEN (THAILAND)18030TU0002002                                                                                                                              *          20180606 IMCT                IMCT                                                                                                                    WMF1806063.TXT
MDEUJ6219889201806                D89828070100PT4U20180611000030SPEAKER ASM                   M IMCTM S0FL05 TNTH  09020IMCT  S0 PTB  00004                    1300 SR        000000000000 DENSO TEN (THAILAND)18020UU0068068                                                                                                                              *          20180606 IMCT                IMCT                                                                                                                    WMF1806063.TXT
MDEUJ6219890201806                D89828070100PT4U20180611000030SPEAKER ASM                   M IMCTM S0FL05 TNTH  09020IMCT  S0 PTB  00004                    1600 SR        000000000000 DENSO TEN (THAILAND)18021UU0103103                                                                                                                              *          20180606 IMCT                IMCT                                                                                                                    WMF1806063.TXT
MDEUJ6219891201806                D89828070100PT4U20180611000030SPEAKER ASM                   M IMCTM S0FL05 TNTH  09020IMCT  S0 PTB  00004                    2230 SR        000000000000 DENSO TEN (THAILAND)18016UU0027027                                                                                                                              *          20180606 IMCT                IMCT                                                                                                                    WMF1806063.TXT
MDEUJ6219892201806                D89828070200PV4U20180609000030SPEAKER ASM                   M IMCTM S0FR05 TNTH  09020IMCT  S0 PTB  00005                    2230 SR        000000000000 DENSO TEN (THAILAND)18025UU0076076                                                                                                                              *          20180606 IMCT                IMCT                                                                                                                    WMF1806063.TXT
MDEUJ6219893201806                D89828070200PV4U20180610000030SPEAKER ASM                   M IMCTM S0FR05 TNTH  09020IMCT  S0 PTB  00005                    0230 SR        000000000000 DENSO TEN (THAILAND)18025UU0077077                                                                                                                              *          20180606 IMCT                IMCT                                                                                                                    WMF1806063.TXT
MDEUJ6219894201806                D89828070200PV4U20180611000030SPEAKER ASM                   M IMCTM S0FR05 TNTH  09020IMCT  S0 PTB  00005                    1030 SR        000000000000 DENSO TEN (THAILAND)18030TU0002002                                                                                                                              *          20180606 IMCT                IMCT                                                                                                                    WMF1806063.TXT
MDEUJ6219895201806                D89828070200PV4U20180611000030SPEAKER ASM                   M IMCTM S0FR05 TNTH  09020IMCT  S0 PTB  00005                    1300 SR        000000000000 DENSO TEN (THAILAND)18020UU0068068                                                                                                                              *          20180606 IMCT                IMCT                                                                                                                    WMF1806063.TXT
MDEUJ6219896201806                D89828070200PV4U20180611000030SPEAKER ASM                   M IMCTM S0FR05 TNTH  09020IMCT  S0 PTB  00005                    1600 SR        000000000000 DENSO TEN (THAILAND)18021UU0103103                                                                                                                              *          20180606 IMCT                IMCT                                                                                                                    WMF1806063.TXT
MDEUJ6219897201806                D89828070200PV4U20180611000030SPEAKER ASM                   M IMCTM S0FR05 TNTH  09020IMCT  S0 PTB  00005                    2230 SR        000000000000 DENSO TEN (THAILAND)18016UU0027027                                                                                                                              *          20180606 IMCT                IMCT                                                                                                                    WMF1806063.TXT
MDEUJ6219898201806                D89828070300PT4U20180609000030SPEAKER ASM                   M IMCTM S9TS02 TNTH  09020IMCT  S9 PTB  00015                    2230 SR        000000000000 DENSO TEN (THAILAND)18025UU0076076                                                                                                                              *          20180606 IMCT                IMCT                                                                                                                    WMF1806063.TXT
MDEUJ6219899201806                D89828070300PT4U20180610000030SPEAKER ASM                   M IMCTM S9TS02 TNTH  09020IMCT  S9 PTB  00015                    0230 SR        000000000000 DENSO TEN (THAILAND)18025UU0077077                                                                                                                              *          20180606 IMCT                IMCT                                                                                                                    WMF1806063.TXT
MDEUJ6219900201806                D89828070300PT4U20180611000030SPEAKER ASM                   M IMCTM S9TS02 TNTH  09020IMCT  S9 PTB  00015                    1030 SR        000000000000 DENSO TEN (THAILAND)18030TU0002002                                                                                                                              *          20180606 IMCT                IMCT                                                                                                                    WMF1806063.TXT
MDEUJ6219901201806                D89828070300PT4U20180611000030SPEAKER ASM                   M IMCTM S9TS02 TNTH  09020IMCT  S9 PTB  00015                    1300 SR        000000000000 DENSO TEN (THAILAND)18020UU0068068                                                                                                                              *          20180606 IMCT                IMCT                                                                                                                    WMF1806063.TXT
MDEUJ6219902201806                D89828070300PT4U20180611000030SPEAKER ASM                   M IMCTM S9TS02 TNTH  09020IMCT  S9 PTB  00015                    1600 SR        000000000000 DENSO TEN (THAILAND)18021UU0103103                                                                                                                              *          20180606 IMCT                IMCT                                                                                                                    WMF1806063.TXT
MDEUJ6219903201806                D89828070300PT4U20180611000030SPEAKER ASM                   M IMCTM S9TS02 TNTH  09020IMCT  S9 PTB  00015                    2230 SR        000000000000 DENSO TEN (THAILAND)18016UU0027027                                                                                                                              *          20180606 IMCT                IMCT                                                                                                                    WMF1806063.TXT
