REC2018062220180622ISUZU                              76     
MDDDJ6300252201806                D89821984430PT1D20180626000030RADIO;AM/FM,CD                M IMCTM S5NC06 TNTH  09020IMCT  S5 PTB  00005                    2230 SR        000000000000 DENSO TEN (THAILAND)180LXCL0056056                                                                                                                              *          20180622 IMCT                IMCT                                                                                                                    WMF180622A.TXT
MDDDJ6300253201806                D89821984430PT1D20180627000030RADIO;AM/FM,CD                M IMCTM S5NC06 TNTH  09020IMCT  S5 PTB  00005                    0830 SR        000000000000 DENSO TEN (THAILAND)180LRAL0185185                                                                                                                              *          20180622 IMCT                IMCT                                                                                                                    WMF180622A.TXT
MDDDJ6300254201806                D89821984430PT1D20180627000060RADIO;AM/FM,CD                M IMCTM S5NC06 TNTH  09020IMCT  S5 PTB  00005                    1600 SR        000000000000 DENSO TEN (THAILAND)180LNGL0146146180LRBL0048048                                                                                                                *          20180622 IMCT                IMCT                                                                                                                    WMF180622A.TXT
MDDDJ6300255201806                D89828070100PV1D20180626000060SPEAKER ASM                   M IMCTM S5MB11 TNTH  09020IMCT  S5 PTB  00004                    2230 SR        000000000000 DENSO TEN (THAILAND)180LXCL0056056                                                                                                                              *          20180622 IMCT                IMCT                                                                                                                    WMF180622A.TXT
MDDDJ6300256201806                D89828070100PV1D20180627000060SPEAKER ASM                   M IMCTM S5MB11 TNTH  09020IMCT  S5 PTB  00004                    0230 SR        000000000000 DENSO TEN (THAILAND)180LPCL0067067                                                                                                                              *          20180622 IMCT                IMCT                                                                                                                    WMF180622A.TXT
MDDDJ6300257201806                D89828070100PV1D20180627000060SPEAKER ASM                   M IMCTM S5MB11 TNTH  09020IMCT  S5 PTB  00004                    0400 SR        000000000000 DENSO TEN (THAILAND)180LPGL0260260                                                                                                                              *          20180622 IMCT                IMCT                                                                                                                    WMF180622A.TXT
MDDDJ6300258201806                D89828070100PV1D20180627000060SPEAKER ASM                   M IMCTM S5MB11 TNTH  09020IMCT  S5 PTB  00004                    0830 SR        000000000000 DENSO TEN (THAILAND)180LRAL0185185                                                                                                                              *          20180622 IMCT                IMCT                                                                                                                    WMF180622A.TXT
MDDDJ6300259201806                D89828070100PV1D20180627000060SPEAKER ASM                   M IMCTM S5MB11 TNTH  09020IMCT  S5 PTB  00004                    1300 SR        000000000000 DENSO TEN (THAILAND)180LPGL0261261                                                                                                                              *          20180622 IMCT                IMCT                                                                                                                    WMF180622A.TXT
MDDDJ6300260201806                D89828070100PV1D20180627000180SPEAKER ASM                   M IMCTM S5MB11 TNTH  09020IMCT  S5 PTB  00004                    1600 SR        000000000000 DENSO TEN (THAILAND)180LNGL0146146180LPKL0071071180LRBL0048048                                                                                                  *          20180622 IMCT                IMCT                                                                                                                    WMF180622A.TXT
MDDDJ6300261201806                D89828070100PV1D20180627000060SPEAKER ASM                   M IMCTM S5MB11 TNTH  09020IMCT  S5 PTB  00004                    2100 SR        000000000000 DENSO TEN (THAILAND)180LPML0023023                                                                                                                              *          20180622 IMCT                IMCT                                                                                                                    WMF180622A.TXT
MDDDJ6300262201806                D89828070300PT1D20180627000060SPEAKER ASM                   M IMCTM S5NB082TNTH  09020IMCT  S5 PTB  00015                    0230 SR        000000000000 DENSO TEN (THAILAND)180LPCL0067067                                                                                                                              *          20180622 IMCT                IMCT                                                                                                                    WMF180622A.TXT
MDDDJ6300263201806                D89828070300PT1D20180627000060SPEAKER ASM                   M IMCTM S5NB082TNTH  09020IMCT  S5 PTB  00015                    0400 SR        000000000000 DENSO TEN (THAILAND)180LPGL0260260                                                                                                                              *          20180622 IMCT                IMCT                                                                                                                    WMF180622A.TXT
MDDDJ6300264201806                D89828070300PT1D20180627000060SPEAKER ASM                   M IMCTM S5NB082TNTH  09020IMCT  S5 PTB  00015                    1300 SR        000000000000 DENSO TEN (THAILAND)180LPGL0261261                                                                                                                              *          20180622 IMCT                IMCT                                                                                                                    WMF180622A.TXT
MDDDJ6300265201806                D89828070300PT1D20180627000060SPEAKER ASM                   M IMCTM S5NB082TNTH  09020IMCT  S5 PTB  00015                    1600 SR        000000000000 DENSO TEN (THAILAND)180LPKL0071071                                                                                                                              *          20180622 IMCT                IMCT                                                                                                                    WMF180622A.TXT
MDDDJ6300266201806                D89828070300PT1D20180627000060SPEAKER ASM                   M IMCTM S5NB082TNTH  09020IMCT  S5 PTB  00015                    2100 SR        000000000000 DENSO TEN (THAILAND)180LPML0023023                                                                                                                              *          20180622 IMCT                IMCT                                                                                                                    WMF180622A.TXT
MDDDJ6300267201806                D89831228300PT1D20180627000030RADIO;AM/FM,CD                M IMCTM S5NC06 TNTH  09020IMCT  S5 CPB  00003                    0230 SR        000000000000 DENSO TEN (THAILAND)180LPCL0067067                                                                                                                              *          20180622 IMCT                IMCT                                                                                                                    WMF180622A.TXT
MDDDJ6300268201806                D89831228300PT1D20180627000030RADIO;AM/FM,CD                M IMCTM S5NC06 TNTH  09020IMCT  S5 CPB  00003                    0400 SR        000000000000 DENSO TEN (THAILAND)180LPGL0260260                                                                                                                              *          20180622 IMCT                IMCT                                                                                                                    WMF180622A.TXT
MDDDJ6300269201806                D89831228300PT1D20180627000030RADIO;AM/FM,CD                M IMCTM S5NC06 TNTH  09020IMCT  S5 CPB  00003                    1300 SR        000000000000 DENSO TEN (THAILAND)180LPGL0261261                                                                                                                              *          20180622 IMCT                IMCT                                                                                                                    WMF180622A.TXT
MDDDJ6300270201806                D89848581600PT1D20180627000030RADIO;AM/FM CD D              M IMCTM S5NC06 TNTH  09020IMCT  S5 PTB  00003                    1600 SR        000000000000 DENSO TEN (THAILAND)180LPKL0071071                                                                                                                              *          20180622 IMCT                IMCT                                                                                                                    WMF180622A.TXT
MDDUJ6248983201806                D89828070100PT4U20180626000030SPEAKER ASM                   M IMCTM S0FL05 TNTH  09020IMCT  S0 PTB  00004                    2230 SR        000000000000 DENSO TEN (THAILAND)180LUTU0070070                                                                                                                              *          20180622 IMCT                IMCT                                                                                                                    WMF180622A.TXT
MDDUJ6248984201806                D89828070100PT4U20180627000030SPEAKER ASM                   M IMCTM S0FL05 TNTH  09020IMCT  S0 PTB  00004                    0830 SR        000000000000 DENSO TEN (THAILAND)180LUTU0071071                                                                                                                              *          20180622 IMCT                IMCT                                                                                                                    WMF180622A.TXT
MDDUJ6248985201806                D89828070100PT4U20180627000030SPEAKER ASM                   M IMCTM S0FL05 TNTH  09020IMCT  S0 PTB  00004                    1300 SR        000000000000 DENSO TEN (THAILAND)180LUSU0106106                                                                                                                              *          20180622 IMCT                IMCT                                                                                                                    WMF180622A.TXT
MDDUJ6248986201806                D89828070100PT4U20180627000030SPEAKER ASM                   M IMCTM S0FL05 TNTH  09020IMCT  S0 PTB  00004                    2100 SR        000000000000 DENSO TEN (THAILAND)180LUTU0072072                                                                                                                              *          20180622 IMCT                IMCT                                                                                                                    WMF180622A.TXT
MDDUJ6248987201806                D89828070200PV4U20180626000030SPEAKER ASM                   M IMCTM S0FR05 TNTH  09020IMCT  S0 PTB  00005                    2230 SR        000000000000 DENSO TEN (THAILAND)180LUTU0070070                                                                                                                              *          20180622 IMCT                IMCT                                                                                                                    WMF180622A.TXT
MDDUJ6248988201806                D89828070200PV4U20180627000030SPEAKER ASM                   M IMCTM S0FR05 TNTH  09020IMCT  S0 PTB  00005                    0830 SR        000000000000 DENSO TEN (THAILAND)180LUTU0071071                                                                                                                              *          20180622 IMCT                IMCT                                                                                                                    WMF180622A.TXT
MDDUJ6248989201806                D89828070200PV4U20180627000030SPEAKER ASM                   M IMCTM S0FR05 TNTH  09020IMCT  S0 PTB  00005                    1300 SR        000000000000 DENSO TEN (THAILAND)180LUSU0106106                                                                                                                              *          20180622 IMCT                IMCT                                                                                                                    WMF180622A.TXT
MDDUJ6248990201806                D89828070200PV4U20180627000030SPEAKER ASM                   M IMCTM S0FR05 TNTH  09020IMCT  S0 PTB  00005                    2100 SR        000000000000 DENSO TEN (THAILAND)180LUTU0072072                                                                                                                              *          20180622 IMCT                IMCT                                                                                                                    WMF180622A.TXT
MDDUJ6248991201806                D89828070300PT4U20180626000030SPEAKER ASM                   M IMCTM S9TS02 TNTH  09020IMCT  S9 PTB  00015                    2230 SR        000000000000 DENSO TEN (THAILAND)180LUTU0070070                                                                                                                              *          20180622 IMCT                IMCT                                                                                                                    WMF180622A.TXT
MDDUJ6248992201806                D89828070300PT4U20180627000030SPEAKER ASM                   M IMCTM S9TS02 TNTH  09020IMCT  S9 PTB  00015                    0830 SR        000000000000 DENSO TEN (THAILAND)180LUTU0071071                                                                                                                              *          20180622 IMCT                IMCT                                                                                                                    WMF180622A.TXT
MDDUJ6248993201806                D89828070300PT4U20180627000030SPEAKER ASM                   M IMCTM S9TS02 TNTH  09020IMCT  S9 PTB  00015                    1300 SR        000000000000 DENSO TEN (THAILAND)180LUSU0106106                                                                                                                              *          20180622 IMCT                IMCT                                                                                                                    WMF180622A.TXT
MDDUJ6248994201806                D89828070300PT4U20180627000030SPEAKER ASM                   M IMCTM S9TS02 TNTH  09020IMCT  S9 PTB  00015                    2100 SR        000000000000 DENSO TEN (THAILAND)180LUTU0072072                                                                                                                              *          20180622 IMCT                IMCT                                                                                                                    WMF180622A.TXT
MDEDJ6315924201806                D89828070100PV1D20180626000060SPEAKER ASM                   M IMCTM S5MB11 TNTH  09020IMCT  S5 PTB  00004                    2230 SR        000000000000 DENSO TEN (THAILAND)18074UL0036037                                                                                                                              *          20180622 IMCT                IMCT                                                                                                                    WMF180622A.TXT
MDEDJ6315925201806                D89828070100PV1D20180627000060SPEAKER ASM                   M IMCTM S5MB11 TNTH  09020IMCT  S5 PTB  00004                    0400 SR        000000000000 DENSO TEN (THAILAND)18007YL0015016                                                                                                                              *          20180622 IMCT                IMCT                                                                                                                    WMF180622A.TXT
MDEDJ6315926201806                D89828070100PV1D20180627000060SPEAKER ASM                   M IMCTM S5MB11 TNTH  09020IMCT  S5 PTB  00004                    1030 SR        000000000000 DENSO TEN (THAILAND)18074UL0038039                                                                                                                              *          20180622 IMCT                IMCT                                                                                                                    WMF180622A.TXT
MDEDJ6315927201806                D89828070100PV1D20180627000060SPEAKER ASM                   M IMCTM S5MB11 TNTH  09020IMCT  S5 PTB  00004                    1300 SR        000000000000 DENSO TEN (THAILAND)18098XL0016017                                                                                                                              *          20180622 IMCT                IMCT                                                                                                                    WMF180622A.TXT
MDEDJ6315928201806                D89828070100PV1D20180627000060SPEAKER ASM                   M IMCTM S5MB11 TNTH  09020IMCT  S5 PTB  00004                    1600 SR        000000000000 DENSO TEN (THAILAND)18080UL0033034                                                                                                                              *          20180622 IMCT                IMCT                                                                                                                    WMF180622A.TXT
MDEDJ6315929201806                D89828070100PV4D20180627000030SPEAKER ASM                   M IMCTM S0FL05 TNTH  09020IMCT  S0 PTB  00004                    0400 SR        000000000000 DENSO TEN (THAILAND)18068XU0003003                                                                                                                              *          20180622 IMCT                IMCT                                                                                                                    WMF180622A.TXT
MDEDJ6315930201806                D89828070100PV4D20180627000030SPEAKER ASM                   M IMCTM S0FL05 TNTH  09020IMCT  S0 PTB  00004                    1030 SR        000000000000 DENSO TEN (THAILAND)18064UU0014014                                                                                                                              *          20180622 IMCT                IMCT                                                                                                                    WMF180622A.TXT
MDEDJ6315931201806                D89828070100PV4D20180627000060SPEAKER ASM                   M IMCTM S0FL05 TNTH  09020IMCT  S0 PTB  00004                    1600 SR        000000000000 DENSO TEN (THAILAND)18065UU000900918098UU0020020                                                                                                                *          20180622 IMCT                IMCT                                                                                                                    WMF180622A.TXT
MDEDJ6315932201806                D89828070200PV1D20180627000060SPEAKER ASM                   M IMCTM S5MA14 TNTH  09020IMCT  S5 PTB  00005                    0400 SR        000000000000 DENSO TEN (THAILAND)18007YL0015016                                                                                                                              *          20180622 IMCT                IMCT                                                                                                                    WMF180622A.TXT
MDEDJ6315933201806                D89828070200PV1D20180627000060SPEAKER ASM                   M IMCTM S5MA14 TNTH  09020IMCT  S5 PTB  00005                    1300 SR        000000000000 DENSO TEN (THAILAND)18098XL0016017                                                                                                                              *          20180622 IMCT                IMCT                                                                                                                    WMF180622A.TXT
MDEDJ6315934201806                D89828070200PV1D20180627000060SPEAKER ASM                   M IMCTM S5MA14 TNTH  09020IMCT  S5 PTB  00005                    1600 SR        000000000000 DENSO TEN (THAILAND)18080UL0033034                                                                                                                              *          20180622 IMCT                IMCT                                                                                                                    WMF180622A.TXT
MDEDJ6315935201806                D89828070200PV4D20180627000030SPEAKER ASM                   M IMCTM S0FR05 TNTH  09020IMCT  S0 PTB  00005                    0400 SR        000000000000 DENSO TEN (THAILAND)18068XU0003003                                                                                                                              *          20180622 IMCT                IMCT                                                                                                                    WMF180622A.TXT
MDEDJ6315936201806                D89828070200PV4D20180627000060SPEAKER ASM                   M IMCTM S0FR05 TNTH  09020IMCT  S0 PTB  00005                    1600 SR        000000000000 DENSO TEN (THAILAND)18065UU000900918098UU0020020                                                                                                                *          20180622 IMCT                IMCT                                                                                                                    WMF180622A.TXT
MDEDJ6315937201806                D89828070300PT1D20180626000060SPEAKER ASM                   M IMCTM S5NB082TNTH  09020IMCT  S5 PTB  00015                    2230 SR        000000000000 DENSO TEN (THAILAND)18074UL0036037                                                                                                                              *          20180622 IMCT                IMCT                                                                                                                    WMF180622A.TXT
MDEDJ6315938201806                D89828070300PT1D20180627000060SPEAKER ASM                   M IMCTM S5NB082TNTH  09020IMCT  S5 PTB  00015                    0400 SR        000000000000 DENSO TEN (THAILAND)18007YL0015016                                                                                                                              *          20180622 IMCT                IMCT                                                                                                                    WMF180622A.TXT
MDEDJ6315939201806                D89828070300PT1D20180627000060SPEAKER ASM                   M IMCTM S5NB082TNTH  09020IMCT  S5 PTB  00015                    1030 SR        000000000000 DENSO TEN (THAILAND)18074UL0038039                                                                                                                              *          20180622 IMCT                IMCT                                                                                                                    WMF180622A.TXT
MDEDJ6315940201806                D89828070300PT1D20180627000060SPEAKER ASM                   M IMCTM S5NB082TNTH  09020IMCT  S5 PTB  00015                    1300 SR        000000000000 DENSO TEN (THAILAND)18098XL0016017                                                                                                                              *          20180622 IMCT                IMCT                                                                                                                    WMF180622A.TXT
MDEDJ6315941201806                D89828070300PT1D20180627000060SPEAKER ASM                   M IMCTM S5NB082TNTH  09020IMCT  S5 PTB  00015                    1600 SR        000000000000 DENSO TEN (THAILAND)18080UL0033034                                                                                                                              *          20180622 IMCT                IMCT                                                                                                                    WMF180622A.TXT
MDEDJ6315942201806                D89828070300PT4D20180627000030SPEAKER ASM                   M IMCTM S9TS02 TNTH  09020IMCT  S9 PTB  00015                    0400 SR        000000000000 DENSO TEN (THAILAND)18068XU0003003                                                                                                                              *          20180622 IMCT                IMCT                                                                                                                    WMF180622A.TXT
MDEDJ6315943201806                D89828070300PT4D20180627000030SPEAKER ASM                   M IMCTM S9TS02 TNTH  09020IMCT  S9 PTB  00015                    1030 SR        000000000000 DENSO TEN (THAILAND)18064UU0014014                                                                                                                              *          20180622 IMCT                IMCT                                                                                                                    WMF180622A.TXT
MDEDJ6315944201806                D89828070300PT4D20180627000060SPEAKER ASM                   M IMCTM S9TS02 TNTH  09020IMCT  S9 PTB  00015                    1600 SR        000000000000 DENSO TEN (THAILAND)18065UU000900918098UU0020020                                                                                                                *          20180622 IMCT                IMCT                                                                                                                    WMF180622A.TXT
MDEDJ6315945201806                D89848581800PT1D20180627000030RADIO;AM/FM CD D              M IMCTM S5NC06 TNTH  09020IMCT  S5 PTB  00003                    1600 SR        000000000000 DENSO TEN (THAILAND)18080UL0033034                                                                                                                              *          20180622 IMCT                IMCT                                                                                                                    WMF180622A.TXT
MDEDJ6315946201806                D89848581800PT4D20180627000030RADIO;AM/FM CD D              M IMCTM S9CO001TNTH  09020IMCT  S9 PTB  00003                    1600 SR        000000000000 DENSO TEN (THAILAND)18065UU000900918098UU0020020                                                                                                                *          20180622 IMCT                IMCT                                                                                                                    WMF180622A.TXT
MDEDJ6315947201806                D89848582100PT1D20180627000030RADIO;AM/FM CD D              M IMCTM S5NC06 TNTH  09020IMCT  S5 PTB  00003                    1300 SR        000000000000 DENSO TEN (THAILAND)18098XL0016017                                                                                                                              *          20180622 IMCT                IMCT                                                                                                                    WMF180622A.TXT
MDEDJ6315948201806                D89848582500PT1D20180626000030RADIO;AM/FM CD D              M IMCTM S5NC06 TNTH  09020IMCT  S5 PTB  00003                    2230 SR        000000000000 DENSO TEN (THAILAND)18074UL0036037                                                                                                                              *          20180622 IMCT                IMCT                                                                                                                    WMF180622A.TXT
MDEDJ6315949201806                D89848582500PT1D20180627000030RADIO;AM/FM CD D              M IMCTM S5NC06 TNTH  09020IMCT  S5 PTB  00003                    1030 SR        000000000000 DENSO TEN (THAILAND)18074UL0038039                                                                                                                              *          20180622 IMCT                IMCT                                                                                                                    WMF180622A.TXT
MDEDJ6315950201806                D89848582500PT4D20180627000015RADIO;AM/FM CD D              M IMCTM S9CO001TNTH  09020IMCT  S9 PTB  00003                    1030 SR        000000000000 DENSO TEN (THAILAND)18064UU0014014                                                                                                                              *          20180622 IMCT                IMCT                                                                                                                    WMF180622A.TXT
MDEUJ6271885201806                D89828070100PT4U20180627000030SPEAKER ASM                   M IMCTM S0FL05 TNTH  09020IMCT  S0 PTB  00004                    0230 SR        000000000000 DENSO TEN (THAILAND)18025UU0101101                                                                                                                              *          20180622 IMCT                IMCT                                                                                                                    WMF180622A.TXT
MDEUJ6271886201806                D89828070100PT4U20180627000030SPEAKER ASM                   M IMCTM S0FL05 TNTH  09020IMCT  S0 PTB  00004                    0400 SR        000000000000 DENSO TEN (THAILAND)18025UU0102102                                                                                                                              *          20180622 IMCT                IMCT                                                                                                                    WMF180622A.TXT
MDEUJ6271887201806                D89828070100PT4U20180627000030SPEAKER ASM                   M IMCTM S0FL05 TNTH  09020IMCT  S0 PTB  00004                    0830 SR        000000000000 DENSO TEN (THAILAND)18049ZU0059059                                                                                                                              *          20180622 IMCT                IMCT                                                                                                                    WMF180622A.TXT
MDEUJ6271888201806                D89828070100PT4U20180627000030SPEAKER ASM                   M IMCTM S0FL05 TNTH  09020IMCT  S0 PTB  00004                    1300 SR        000000000000 DENSO TEN (THAILAND)18021UU0119119                                                                                                                              *          20180622 IMCT                IMCT                                                                                                                    WMF180622A.TXT
MDEUJ6271889201806                D89828070100PT4U20180627000060SPEAKER ASM                   M IMCTM S0FL05 TNTH  09020IMCT  S0 PTB  00004                    1600 SR        000000000000 DENSO TEN (THAILAND)18021UU012012018025UU0103103                                                                                                                *          20180622 IMCT                IMCT                                                                                                                    WMF180622A.TXT
MDEUJ6271890201806                D89828070100PT4U20180627000030SPEAKER ASM                   M IMCTM S0FL05 TNTH  09020IMCT  S0 PTB  00004                    2230 SR        000000000000 DENSO TEN (THAILAND)18020UU0081081                                                                                                                              *          20180622 IMCT                IMCT                                                                                                                    WMF180622A.TXT
MDEUJ6271891201806                D89828070200PV4U20180627000030SPEAKER ASM                   M IMCTM S0FR05 TNTH  09020IMCT  S0 PTB  00005                    0230 SR        000000000000 DENSO TEN (THAILAND)18025UU0101101                                                                                                                              *          20180622 IMCT                IMCT                                                                                                                    WMF180622A.TXT
MDEUJ6271892201806                D89828070200PV4U20180627000030SPEAKER ASM                   M IMCTM S0FR05 TNTH  09020IMCT  S0 PTB  00005                    0400 SR        000000000000 DENSO TEN (THAILAND)18025UU0102102                                                                                                                              *          20180622 IMCT                IMCT                                                                                                                    WMF180622A.TXT
MDEUJ6271893201806                D89828070200PV4U20180627000030SPEAKER ASM                   M IMCTM S0FR05 TNTH  09020IMCT  S0 PTB  00005                    0830 SR        000000000000 DENSO TEN (THAILAND)18049ZU0059059                                                                                                                              *          20180622 IMCT                IMCT                                                                                                                    WMF180622A.TXT
MDEUJ6271894201806                D89828070200PV4U20180627000030SPEAKER ASM                   M IMCTM S0FR05 TNTH  09020IMCT  S0 PTB  00005                    1300 SR        000000000000 DENSO TEN (THAILAND)18021UU0119119                                                                                                                              *          20180622 IMCT                IMCT                                                                                                                    WMF180622A.TXT
MDEUJ6271895201806                D89828070200PV4U20180627000060SPEAKER ASM                   M IMCTM S0FR05 TNTH  09020IMCT  S0 PTB  00005                    1600 SR        000000000000 DENSO TEN (THAILAND)18021UU012012018025UU0103103                                                                                                                *          20180622 IMCT                IMCT                                                                                                                    WMF180622A.TXT
MDEUJ6271896201806                D89828070200PV4U20180627000030SPEAKER ASM                   M IMCTM S0FR05 TNTH  09020IMCT  S0 PTB  00005                    2230 SR        000000000000 DENSO TEN (THAILAND)18020UU0081081                                                                                                                              *          20180622 IMCT                IMCT                                                                                                                    WMF180622A.TXT
MDEUJ6271897201806                D89828070300PT4U20180627000030SPEAKER ASM                   M IMCTM S9TS02 TNTH  09020IMCT  S9 PTB  00015                    0230 SR        000000000000 DENSO TEN (THAILAND)18025UU0101101                                                                                                                              *          20180622 IMCT                IMCT                                                                                                                    WMF180622A.TXT
MDEUJ6271898201806                D89828070300PT4U20180627000030SPEAKER ASM                   M IMCTM S9TS02 TNTH  09020IMCT  S9 PTB  00015                    0400 SR        000000000000 DENSO TEN (THAILAND)18025UU0102102                                                                                                                              *          20180622 IMCT                IMCT                                                                                                                    WMF180622A.TXT
MDEUJ6271899201806                D89828070300PT4U20180627000030SPEAKER ASM                   M IMCTM S9TS02 TNTH  09020IMCT  S9 PTB  00015                    0830 SR        000000000000 DENSO TEN (THAILAND)18049ZU0059059                                                                                                                              *          20180622 IMCT                IMCT                                                                                                                    WMF180622A.TXT
MDEUJ6271900201806                D89828070300PT4U20180627000030SPEAKER ASM                   M IMCTM S9TS02 TNTH  09020IMCT  S9 PTB  00015                    1300 SR        000000000000 DENSO TEN (THAILAND)18021UU0119119                                                                                                                              *          20180622 IMCT                IMCT                                                                                                                    WMF180622A.TXT
MDEUJ6271901201806                D89828070300PT4U20180627000060SPEAKER ASM                   M IMCTM S9TS02 TNTH  09020IMCT  S9 PTB  00015                    1600 SR        000000000000 DENSO TEN (THAILAND)18021UU012012018025UU0103103                                                                                                                *          20180622 IMCT                IMCT                                                                                                                    WMF180622A.TXT
MDEUJ6271902201806                D89828070300PT4U20180627000030SPEAKER ASM                   M IMCTM S9TS02 TNTH  09020IMCT  S9 PTB  00015                    2230 SR        000000000000 DENSO TEN (THAILAND)18020UU0081081                                                                                                                              *          20180622 IMCT                IMCT                                                                                                                    WMF180622A.TXT
