REC2018062020180620ISUZU                              70     
MDDDJ6288059201806                D89821984430PT1D20180624000030RADIO;AM/FM,CD                M IMCTM S5NC06 TNTH  09020IMCT  S5 PTB  00005                    0400 SR        000000000000 DENSO TEN (THAILAND)180LRBL0045045                                                                                                                              *          20180620 IMCT                IMCT                                                                                                                    WMF1806204.TXT
MDDDJ6288060201806                D89821984430PT1D20180625000030RADIO;AM/FM,CD                M IMCTM S5NC06 TNTH  09020IMCT  S5 PTB  00005                    2230 SR        000000000000 DENSO TEN (THAILAND)180LXEL0057057                                                                                                                              *          20180620 IMCT                IMCT                                                                                                                    WMF1806204.TXT
MDDDJ6288061201806                D89828070100PV1D20180623000060SPEAKER ASM                   M IMCTM S5MB11 TNTH  09020IMCT  S5 PTB  00004                    2230 SR        000000000000 DENSO TEN (THAILAND)180LPNL0018018                                                                                                                              *          20180620 IMCT                IMCT                                                                                                                    WMF1806204.TXT
MDDDJ6288062201806                D89828070100PV1D20180624000060SPEAKER ASM                   M IMCTM S5MB11 TNTH  09020IMCT  S5 PTB  00004                    0230 SR        000000000000 DENSO TEN (THAILAND)180LPFL0062062                                                                                                                              *          20180620 IMCT                IMCT                                                                                                                    WMF1806204.TXT
MDDDJ6288063201806                D89828070100PV1D20180624000060SPEAKER ASM                   M IMCTM S5MB11 TNTH  09020IMCT  S5 PTB  00004                    0400 SR        000000000000 DENSO TEN (THAILAND)180LRBL0045045                                                                                                                              *          20180620 IMCT                IMCT                                                                                                                    WMF1806204.TXT
MDDDJ6288064201806                D89828070100PV1D20180625000060SPEAKER ASM                   M IMCTM S5MB11 TNTH  09020IMCT  S5 PTB  00004                    0830 SR        000000000000 DENSO TEN (THAILAND)180LPCL0066066                                                                                                                              *          20180620 IMCT                IMCT                                                                                                                    WMF1806204.TXT
MDDDJ6288065201806                D89828070100PV1D20180625000060SPEAKER ASM                   M IMCTM S5MB11 TNTH  09020IMCT  S5 PTB  00004                    1300 SR        000000000000 DENSO TEN (THAILAND)180LPJL0026026                                                                                                                              *          20180620 IMCT                IMCT                                                                                                                    WMF1806204.TXT
MDDDJ6288066201806                D89828070100PV1D20180625000060SPEAKER ASM                   M IMCTM S5MB11 TNTH  09020IMCT  S5 PTB  00004                    2100 SR        000000000000 DENSO TEN (THAILAND)180LPFL0063063                                                                                                                              *          20180620 IMCT                IMCT                                                                                                                    WMF1806204.TXT
MDDDJ6288067201806                D89828070100PV1D20180625000060SPEAKER ASM                   M IMCTM S5MB11 TNTH  09020IMCT  S5 PTB  00004                    2230 SR        000000000000 DENSO TEN (THAILAND)180LXEL0057057                                                                                                                              *          20180620 IMCT                IMCT                                                                                                                    WMF1806204.TXT
MDDDJ6288068201806                D89828070300PT1D20180623000060SPEAKER ASM                   M IMCTM S5NB082TNTH  09020IMCT  S5 PTB  00015                    2230 SR        000000000000 DENSO TEN (THAILAND)180LPNL0018018                                                                                                                              *          20180620 IMCT                IMCT                                                                                                                    WMF1806204.TXT
MDDDJ6288069201806                D89828070300PT1D20180624000060SPEAKER ASM                   M IMCTM S5NB082TNTH  09020IMCT  S5 PTB  00015                    0230 SR        000000000000 DENSO TEN (THAILAND)180LPFL0062062                                                                                                                              *          20180620 IMCT                IMCT                                                                                                                    WMF1806204.TXT
MDDDJ6288070201806                D89828070300PT1D20180625000060SPEAKER ASM                   M IMCTM S5NB082TNTH  09020IMCT  S5 PTB  00015                    0830 SR        000000000000 DENSO TEN (THAILAND)180LPCL0066066                                                                                                                              *          20180620 IMCT                IMCT                                                                                                                    WMF1806204.TXT
MDDDJ6288071201806                D89828070300PT1D20180625000060SPEAKER ASM                   M IMCTM S5NB082TNTH  09020IMCT  S5 PTB  00015                    1300 SR        000000000000 DENSO TEN (THAILAND)180LPJL0026026                                                                                                                              *          20180620 IMCT                IMCT                                                                                                                    WMF1806204.TXT
MDDDJ6288072201806                D89828070300PT1D20180625000060SPEAKER ASM                   M IMCTM S5NB082TNTH  09020IMCT  S5 PTB  00015                    2100 SR        000000000000 DENSO TEN (THAILAND)180LPFL0063063                                                                                                                              *          20180620 IMCT                IMCT                                                                                                                    WMF1806204.TXT
MDDDJ6288073201806                D89831228300PT1D20180624000030RADIO;AM/FM,CD                M IMCTM S5NC06 TNTH  09020IMCT  S5 CPB  00003                    0230 SR        000000000000 DENSO TEN (THAILAND)180LPFL0062062                                                                                                                              *          20180620 IMCT                IMCT                                                                                                                    WMF1806204.TXT
MDDDJ6288074201806                D89831228300PT1D20180625000030RADIO;AM/FM,CD                M IMCTM S5NC06 TNTH  09020IMCT  S5 CPB  00003                    0830 SR        000000000000 DENSO TEN (THAILAND)180LPCL0066066                                                                                                                              *          20180620 IMCT                IMCT                                                                                                                    WMF1806204.TXT
MDDDJ6288075201806                D89831228300PT1D20180625000030RADIO;AM/FM,CD                M IMCTM S5NC06 TNTH  09020IMCT  S5 CPB  00003                    1300 SR        000000000000 DENSO TEN (THAILAND)180LPJL0026026                                                                                                                              *          20180620 IMCT                IMCT                                                                                                                    WMF1806204.TXT
MDDDJ6288076201806                D89831228300PT1D20180625000030RADIO;AM/FM,CD                M IMCTM S5NC06 TNTH  09020IMCT  S5 CPB  00003                    2100 SR        000000000000 DENSO TEN (THAILAND)180LPFL0063063                                                                                                                              *          20180620 IMCT                IMCT                                                                                                                    WMF1806204.TXT
MDDUJ6243127201806                D89828070100PT4U20180624000030SPEAKER ASM                   M IMCTM S0FL05 TNTH  09020IMCT  S0 PTB  00004                    0230 SR        000000000000 DENSO TEN (THAILAND)180LURU0068068                                                                                                                              *          20180620 IMCT                IMCT                                                                                                                    WMF1806204.TXT
MDDUJ6243128201806                D89828070100PT4U20180625000030SPEAKER ASM                   M IMCTM S0FL05 TNTH  09020IMCT  S0 PTB  00004                    1030 SR        000000000000 DENSO TEN (THAILAND)180LURU0069069                                                                                                                              *          20180620 IMCT                IMCT                                                                                                                    WMF1806204.TXT
MDDUJ6243129201806                D89828070100PT4U20180625000030SPEAKER ASM                   M IMCTM S0FL05 TNTH  09020IMCT  S0 PTB  00004                    1600 SR        000000000000 DENSO TEN (THAILAND)180LURU0070070                                                                                                                              *          20180620 IMCT                IMCT                                                                                                                    WMF1806204.TXT
MDDUJ6243130201806                D89828070200PV4U20180624000030SPEAKER ASM                   M IMCTM S0FR05 TNTH  09020IMCT  S0 PTB  00005                    0230 SR        000000000000 DENSO TEN (THAILAND)180LURU0068068                                                                                                                              *          20180620 IMCT                IMCT                                                                                                                    WMF1806204.TXT
MDDUJ6243131201806                D89828070200PV4U20180625000030SPEAKER ASM                   M IMCTM S0FR05 TNTH  09020IMCT  S0 PTB  00005                    1030 SR        000000000000 DENSO TEN (THAILAND)180LURU0069069                                                                                                                              *          20180620 IMCT                IMCT                                                                                                                    WMF1806204.TXT
MDDUJ6243132201806                D89828070200PV4U20180625000030SPEAKER ASM                   M IMCTM S0FR05 TNTH  09020IMCT  S0 PTB  00005                    1600 SR        000000000000 DENSO TEN (THAILAND)180LURU0070070                                                                                                                              *          20180620 IMCT                IMCT                                                                                                                    WMF1806204.TXT
MDDUJ6243133201806                D89828070300PT4U20180624000030SPEAKER ASM                   M IMCTM S9TS02 TNTH  09020IMCT  S9 PTB  00015                    0230 SR        000000000000 DENSO TEN (THAILAND)180LURU0068068                                                                                                                              *          20180620 IMCT                IMCT                                                                                                                    WMF1806204.TXT
MDDUJ6243134201806                D89828070300PT4U20180625000030SPEAKER ASM                   M IMCTM S9TS02 TNTH  09020IMCT  S9 PTB  00015                    1030 SR        000000000000 DENSO TEN (THAILAND)180LURU0069069                                                                                                                              *          20180620 IMCT                IMCT                                                                                                                    WMF1806204.TXT
MDDUJ6243135201806                D89828070300PT4U20180625000030SPEAKER ASM                   M IMCTM S9TS02 TNTH  09020IMCT  S9 PTB  00015                    1600 SR        000000000000 DENSO TEN (THAILAND)180LURU0070070                                                                                                                              *          20180620 IMCT                IMCT                                                                                                                    WMF1806204.TXT
MDEDJ6301763201806                D89828070100PV1D20180623000030SPEAKER ASM                   M IMCTM S5MB11 TNTH  09020IMCT  S5 PTB  00004                    2230 SR        000000000000 DENSO TEN (THAILAND)17028RL0029029                                                                                                                              *          20180620 IMCT                IMCT                                                                                                                    WMF1806204.TXT
MDEDJ6301764201806                D89828070100PV1D20180624000030SPEAKER ASM                   M IMCTM S5MB11 TNTH  09020IMCT  S5 PTB  00004                    0230 SR        000000000000 DENSO TEN (THAILAND)17028RL0030030                                                                                                                              *          20180620 IMCT                IMCT                                                                                                                    WMF1806204.TXT
MDEDJ6301765201806                D89828070100PV1D20180624000030SPEAKER ASM                   M IMCTM S5MB11 TNTH  09020IMCT  S5 PTB  00004                    0400 SR        000000000000 DENSO TEN (THAILAND)18082UL0049049                                                                                                                              *          20180620 IMCT                IMCT                                                                                                                    WMF1806204.TXT
MDEDJ6301766201806                D89828070100PV1D20180625000030SPEAKER ASM                   M IMCTM S5MB11 TNTH  09020IMCT  S5 PTB  00004                    0830 SR        000000000000 DENSO TEN (THAILAND)18082UL0050050                                                                                                                              *          20180620 IMCT                IMCT                                                                                                                    WMF1806204.TXT
MDEDJ6301767201806                D89828070100PV1D20180625000030SPEAKER ASM                   M IMCTM S5MB11 TNTH  09020IMCT  S5 PTB  00004                    1030 SR        000000000000 DENSO TEN (THAILAND)18007ZL0107107                                                                                                                              *          20180620 IMCT                IMCT                                                                                                                    WMF1806204.TXT
MDEDJ6301768201806                D89828070100PV1D20180625000060SPEAKER ASM                   M IMCTM S5MB11 TNTH  09020IMCT  S5 PTB  00004                    1300 SR        000000000000 DENSO TEN (THAILAND)18007ZL010810818067UL0001001                                                                                                                *          20180620 IMCT                IMCT                                                                                                                    WMF1806204.TXT
MDEDJ6301769201806                D89828070100PV1D20180625000090SPEAKER ASM                   M IMCTM S5MB11 TNTH  09020IMCT  S5 PTB  00004                    1600 SR        000000000000 DENSO TEN (THAILAND)18007ZL010911018068UL0014014                                                                                                                *          20180620 IMCT                IMCT                                                                                                                    WMF1806204.TXT
MDEDJ6301770201806                D89828070100PV4D20180624000030SPEAKER ASM                   M IMCTM S0FL05 TNTH  09020IMCT  S0 PTB  00004                    0400 SR        000000000000 DENSO TEN (THAILAND)18098UU0018018                                                                                                                              *          20180620 IMCT                IMCT                                                                                                                    WMF1806204.TXT
MDEDJ6301771201806                D89828070100PV4D20180625000030SPEAKER ASM                   M IMCTM S0FL05 TNTH  09020IMCT  S0 PTB  00004                    0830 SR        000000000000 DENSO TEN (THAILAND)18068XU0001001                                                                                                                              *          20180620 IMCT                IMCT                                                                                                                    WMF1806204.TXT
MDEDJ6301772201806                D89828070100PV4D20180625000030SPEAKER ASM                   M IMCTM S0FL05 TNTH  09020IMCT  S0 PTB  00004                    1600 SR        000000000000 DENSO TEN (THAILAND)18042ZU0006006                                                                                                                              *          20180620 IMCT                IMCT                                                                                                                    WMF1806204.TXT
MDEDJ6301773201806                D89828070100PV4D20180625000030SPEAKER ASM                   M IMCTM S0FL05 TNTH  09020IMCT  S0 PTB  00004                    2230 SR        000000000000 DENSO TEN (THAILAND)18082UU0010010                                                                                                                              *          20180620 IMCT                IMCT                                                                                                                    WMF1806204.TXT
MDEDJ6301774201806                D89828070200PV1D20180624000030SPEAKER ASM                   M IMCTM S5MA14 TNTH  09020IMCT  S5 PTB  00005                    0400 SR        000000000000 DENSO TEN (THAILAND)18082UL0049049                                                                                                                              *          20180620 IMCT                IMCT                                                                                                                    WMF1806204.TXT
MDEDJ6301775201806                D89828070200PV1D20180625000030SPEAKER ASM                   M IMCTM S5MA14 TNTH  09020IMCT  S5 PTB  00005                    0830 SR        000000000000 DENSO TEN (THAILAND)18082UL0050050                                                                                                                              *          20180620 IMCT                IMCT                                                                                                                    WMF1806204.TXT
MDEDJ6301776201806                D89828070200PV1D20180625000030SPEAKER ASM                   M IMCTM S5MA14 TNTH  09020IMCT  S5 PTB  00005                    1300 SR        000000000000 DENSO TEN (THAILAND)18067UL0001001                                                                                                                              *          20180620 IMCT                IMCT                                                                                                                    WMF1806204.TXT
MDEDJ6301777201806                D89828070200PV1D20180625000030SPEAKER ASM                   M IMCTM S5MA14 TNTH  09020IMCT  S5 PTB  00005                    1600 SR        000000000000 DENSO TEN (THAILAND)18068UL0014014                                                                                                                              *          20180620 IMCT                IMCT                                                                                                                    WMF1806204.TXT
MDEDJ6301778201806                D89828070200PV4D20180624000030SPEAKER ASM                   M IMCTM S0FR05 TNTH  09020IMCT  S0 PTB  00005                    0400 SR        000000000000 DENSO TEN (THAILAND)18098UU0018018                                                                                                                              *          20180620 IMCT                IMCT                                                                                                                    WMF1806204.TXT
MDEDJ6301779201806                D89828070200PV4D20180625000030SPEAKER ASM                   M IMCTM S0FR05 TNTH  09020IMCT  S0 PTB  00005                    0830 SR        000000000000 DENSO TEN (THAILAND)18068XU0001001                                                                                                                              *          20180620 IMCT                IMCT                                                                                                                    WMF1806204.TXT
MDEDJ6301780201806                D89828070200PV4D20180625000030SPEAKER ASM                   M IMCTM S0FR05 TNTH  09020IMCT  S0 PTB  00005                    2230 SR        000000000000 DENSO TEN (THAILAND)18082UU0010010                                                                                                                              *          20180620 IMCT                IMCT                                                                                                                    WMF1806204.TXT
MDEDJ6301781201806                D89828070300PT1D20180624000030SPEAKER ASM                   M IMCTM S5NB082TNTH  09020IMCT  S5 PTB  00015                    0400 SR        000000000000 DENSO TEN (THAILAND)18082UL0049049                                                                                                                              *          20180620 IMCT                IMCT                                                                                                                    WMF1806204.TXT
MDEDJ6301782201806                D89828070300PT1D20180625000030SPEAKER ASM                   M IMCTM S5NB082TNTH  09020IMCT  S5 PTB  00015                    0830 SR        000000000000 DENSO TEN (THAILAND)18082UL0050050                                                                                                                              *          20180620 IMCT                IMCT                                                                                                                    WMF1806204.TXT
MDEDJ6301783201806                D89828070300PT1D20180625000030SPEAKER ASM                   M IMCTM S5NB082TNTH  09020IMCT  S5 PTB  00015                    1300 SR        000000000000 DENSO TEN (THAILAND)18067UL0001001                                                                                                                              *          20180620 IMCT                IMCT                                                                                                                    WMF1806204.TXT
MDEDJ6301784201806                D89828070300PT1D20180625000030SPEAKER ASM                   M IMCTM S5NB082TNTH  09020IMCT  S5 PTB  00015                    1600 SR        000000000000 DENSO TEN (THAILAND)18068UL0014014                                                                                                                              *          20180620 IMCT                IMCT                                                                                                                    WMF1806204.TXT
MDEDJ6301785201806                D89828070300PT4D20180624000030SPEAKER ASM                   M IMCTM S9TS02 TNTH  09020IMCT  S9 PTB  00015                    0400 SR        000000000000 DENSO TEN (THAILAND)18098UU0018018                                                                                                                              *          20180620 IMCT                IMCT                                                                                                                    WMF1806204.TXT
MDEDJ6301786201806                D89828070300PT4D20180625000030SPEAKER ASM                   M IMCTM S9TS02 TNTH  09020IMCT  S9 PTB  00015                    0830 SR        000000000000 DENSO TEN (THAILAND)18068XU0001001                                                                                                                              *          20180620 IMCT                IMCT                                                                                                                    WMF1806204.TXT
MDEDJ6301787201806                D89828070300PT4D20180625000030SPEAKER ASM                   M IMCTM S9TS02 TNTH  09020IMCT  S9 PTB  00015                    1600 SR        000000000000 DENSO TEN (THAILAND)18042ZU0006006                                                                                                                              *          20180620 IMCT                IMCT                                                                                                                    WMF1806204.TXT
MDEDJ6301788201806                D89828070300PT4D20180625000030SPEAKER ASM                   M IMCTM S9TS02 TNTH  09020IMCT  S9 PTB  00015                    2230 SR        000000000000 DENSO TEN (THAILAND)18082UU0010010                                                                                                                              *          20180620 IMCT                IMCT                                                                                                                    WMF1806204.TXT
MDEDJ6301789201806                D89848581800PT1D20180624000015RADIO;AM/FM CD D              M IMCTM S5NC06 TNTH  09020IMCT  S5 PTB  00003                    0400 SR        000000000000 DENSO TEN (THAILAND)18082UL0049049                                                                                                                              *          20180620 IMCT                IMCT                                                                                                                    WMF1806204.TXT
MDEDJ6301790201806                D89848581800PT1D20180625000015RADIO;AM/FM CD D              M IMCTM S5NC06 TNTH  09020IMCT  S5 PTB  00003                    0830 SR        000000000000 DENSO TEN (THAILAND)18082UL0050050                                                                                                                              *          20180620 IMCT                IMCT                                                                                                                    WMF1806204.TXT
MDEDJ6301791201806                D89848581800PT4D20180624000015RADIO;AM/FM CD D              M IMCTM S9CO001TNTH  09020IMCT  S9 PTB  00003                    0400 SR        000000000000 DENSO TEN (THAILAND)18098UU0018018                                                                                                                              *          20180620 IMCT                IMCT                                                                                                                    WMF1806204.TXT
MDEDJ6301792201806                D89848581800PT4D20180625000015RADIO;AM/FM CD D              M IMCTM S9CO001TNTH  09020IMCT  S9 PTB  00003                    2230 SR        000000000000 DENSO TEN (THAILAND)18082UU0010010                                                                                                                              *          20180620 IMCT                IMCT                                                                                                                    WMF1806204.TXT
MDEUJ6263797201806                D89828070100PT4U20180623000030SPEAKER ASM                   M IMCTM S0FL05 TNTH  09020IMCT  S0 PTB  00004                    2230 SR        000000000000 DENSO TEN (THAILAND)18025UU0098098                                                                                                                              *          20180620 IMCT                IMCT                                                                                                                    WMF1806204.TXT
MDEUJ6263798201806                D89828070100PT4U20180624000030SPEAKER ASM                   M IMCTM S0FL05 TNTH  09020IMCT  S0 PTB  00004                    0400 SR        000000000000 DENSO TEN (THAILAND)18014UU0017017                                                                                                                              *          20180620 IMCT                IMCT                                                                                                                    WMF1806204.TXT
MDEUJ6263799201806                D89828070100PT4U20180625000060SPEAKER ASM                   M IMCTM S0FL05 TNTH  09020IMCT  S0 PTB  00004                    1300 SR        000000000000 DENSO TEN (THAILAND)18020UU008008018021UU0116116                                                                                                                *          20180620 IMCT                IMCT                                                                                                                    WMF1806204.TXT
MDEUJ6263800201806                D89828070100PT4U20180625000030SPEAKER ASM                   M IMCTM S0FL05 TNTH  09020IMCT  S0 PTB  00004                    2100 SR        000000000000 DENSO TEN (THAILAND)18025UU0099099                                                                                                                              *          20180620 IMCT                IMCT                                                                                                                    WMF1806204.TXT
MDEUJ6263801201806                D89828070200PV4U20180623000030SPEAKER ASM                   M IMCTM S0FR05 TNTH  09020IMCT  S0 PTB  00005                    2230 SR        000000000000 DENSO TEN (THAILAND)18025UU0098098                                                                                                                              *          20180620 IMCT                IMCT                                                                                                                    WMF1806204.TXT
MDEUJ6263802201806                D89828070200PV4U20180624000030SPEAKER ASM                   M IMCTM S0FR05 TNTH  09020IMCT  S0 PTB  00005                    0400 SR        000000000000 DENSO TEN (THAILAND)18014UU0017017                                                                                                                              *          20180620 IMCT                IMCT                                                                                                                    WMF1806204.TXT
MDEUJ6263803201806                D89828070200PV4U20180625000060SPEAKER ASM                   M IMCTM S0FR05 TNTH  09020IMCT  S0 PTB  00005                    1300 SR        000000000000 DENSO TEN (THAILAND)18020UU008008018021UU0116116                                                                                                                *          20180620 IMCT                IMCT                                                                                                                    WMF1806204.TXT
MDEUJ6263804201806                D89828070200PV4U20180625000030SPEAKER ASM                   M IMCTM S0FR05 TNTH  09020IMCT  S0 PTB  00005                    2100 SR        000000000000 DENSO TEN (THAILAND)18025UU0099099                                                                                                                              *          20180620 IMCT                IMCT                                                                                                                    WMF1806204.TXT
MDEUJ6263805201806                D89828070300PT4U20180623000030SPEAKER ASM                   M IMCTM S9TS02 TNTH  09020IMCT  S9 PTB  00015                    2230 SR        000000000000 DENSO TEN (THAILAND)18025UU0098098                                                                                                                              *          20180620 IMCT                IMCT                                                                                                                    WMF1806204.TXT
MDEUJ6263806201806                D89828070300PT4U20180624000030SPEAKER ASM                   M IMCTM S9TS02 TNTH  09020IMCT  S9 PTB  00015                    0400 SR        000000000000 DENSO TEN (THAILAND)18014UU0017017                                                                                                                              *          20180620 IMCT                IMCT                                                                                                                    WMF1806204.TXT
MDEUJ6263807201806                D89828070300PT4U20180625000060SPEAKER ASM                   M IMCTM S9TS02 TNTH  09020IMCT  S9 PTB  00015                    1300 SR        000000000000 DENSO TEN (THAILAND)18020UU008008018021UU0116116                                                                                                                *          20180620 IMCT                IMCT                                                                                                                    WMF1806204.TXT
MDEUJ6263808201806                D89828070300PT4U20180625000030SPEAKER ASM                   M IMCTM S9TS02 TNTH  09020IMCT  S9 PTB  00015                    2100 SR        000000000000 DENSO TEN (THAILAND)18025UU0099099                                                                                                                              *          20180620 IMCT                IMCT                                                                                                                    WMF1806204.TXT
MDEUJ6263809201806                D89848584700PT4U20180624000015RADIO;AM/FM CD D              M IMCTM S9CO001TNTH  09020IMCT  S9 PTB  00003                    0400 SR        000000000000 DENSO TEN (THAILAND)18014UU0017017                                                                                                                              *          20180620 IMCT                IMCT                                                                                                                    WMF1806204.TXT
