REC2018060920180609ISUZU                              30     
MDD6J6233694201806                D89828070100PV5620180613000060SPEAKER ASM                   M IMCTM G9B114 TNTH  09020G/WAY G9 PTB  00004                    1530 GW        0000000000005DENSO TEN (THAILAND)180LRLG0117117                                                                                                                              *          20180609 IMCT                IMCT                                                                                                                    WMF1806092.TXT
MDD6J6233695201806                D89828070100PV5620180613000060SPEAKER ASM                   M IMCTM G9B114 TNTH  09020G/WAY G9 PTB  00004                    2100 GW        0000000000005DENSO TEN (THAILAND)180LPCG0088088                                                                                                                              *          20180609 IMCT                IMCT                                                                                                                    WMF1806092.TXT
MDD6J6233696201806                D89828070100PV5620180614000060SPEAKER ASM                   M IMCTM G9B114 TNTH  09020G/WAY G9 PTB  00004                    0200 GW        0000000000005DENSO TEN (THAILAND)180LRFG0079079                                                                                                                              *          20180609 IMCT                IMCT                                                                                                                    WMF1806092.TXT
MDD6J6233697201806                D89828070100PV5620180614000060SPEAKER ASM                   M IMCTM G9B114 TNTH  09020G/WAY G9 PTB  00004                    0330 GW        0000000000005DENSO TEN (THAILAND)180LRRG0026026                                                                                                                              *          20180609 IMCT                IMCT                                                                                                                    WMF1806092.TXT
MDD6J6233698201806                D89828070100PV5620180614000060SPEAKER ASM                   M IMCTM G9B114 TNTH  09020G/WAY G9 PTB  00004                    0900 GW        0000000000005DENSO TEN (THAILAND)180LPGG0171171                                                                                                                              *          20180609 IMCT                IMCT                                                                                                                    WMF1806092.TXT
MDD6J6233699201806                D89828070100PV5620180614000060SPEAKER ASM                   M IMCTM G9B114 TNTH  09020G/WAY G9 PTB  00004                    1100 GW        0000000000005DENSO TEN (THAILAND)180LRTG0020020                                                                                                                              *          20180609 IMCT                IMCT                                                                                                                    WMF1806092.TXT
MDD6J6233700201806                D89828070100PV5620180614000060SPEAKER ASM                   M IMCTM G9B114 TNTH  09020G/WAY G9 PTB  00004                    1400 GW        0000000000005DENSO TEN (THAILAND)180LRDG0038038                                                                                                                              *          20180609 IMCT                IMCT                                                                                                                    WMF1806092.TXT
MDD6J6233701201806                D89828070100PV5620180614000060SPEAKER ASM                   M IMCTM G9B114 TNTH  09020G/WAY G9 PTB  00004                    1530 GW        0000000000005DENSO TEN (THAILAND)180LPCG0089089                                                                                                                              *          20180609 IMCT                IMCT                                                                                                                    WMF1806092.TXT
MDD6J6233702201806                D89828070200PV5620180613000060SPEAKER ASM                   M IMCTM G9F132 TNTH  09020G/WAY G9 PTB  00005                    1530 GW        0000000000005DENSO TEN (THAILAND)180LRLG0117117                                                                                                                              *          20180609 IMCT                IMCT                                                                                                                    WMF1806092.TXT
MDD6J6233703201806                D89828070200PV5620180614000060SPEAKER ASM                   M IMCTM G9F132 TNTH  09020G/WAY G9 PTB  00005                    0200 GW        0000000000005DENSO TEN (THAILAND)180LRFG0079079                                                                                                                              *          20180609 IMCT                IMCT                                                                                                                    WMF1806092.TXT
MDD6J6233704201806                D89828070200PV5620180614000060SPEAKER ASM                   M IMCTM G9F132 TNTH  09020G/WAY G9 PTB  00005                    0330 GW        0000000000005DENSO TEN (THAILAND)180LRRG0026026                                                                                                                              *          20180609 IMCT                IMCT                                                                                                                    WMF1806092.TXT
MDD6J6233705201806                D89828070200PV5620180614000060SPEAKER ASM                   M IMCTM G9F132 TNTH  09020G/WAY G9 PTB  00005                    1100 GW        0000000000005DENSO TEN (THAILAND)180LRTG0020020                                                                                                                              *          20180609 IMCT                IMCT                                                                                                                    WMF1806092.TXT
MDD6J6233706201806                D89828070200PV5620180614000060SPEAKER ASM                   M IMCTM G9F132 TNTH  09020G/WAY G9 PTB  00005                    1400 GW        0000000000005DENSO TEN (THAILAND)180LRDG0038038                                                                                                                              *          20180609 IMCT                IMCT                                                                                                                    WMF1806092.TXT
MDD6J6233707201806                D89828070300PT5620180613000060SPEAKER ASM                   M IMCTM G9JA33 TNTH  09020G/WAY G9 PTB  00015                    1530 GW        0000000000005DENSO TEN (THAILAND)180LRLG0117117                                                                                                                              *          20180609 IMCT                IMCT                                                                                                                    WMF1806092.TXT
MDD6J6233708201806                D89828070300PT5620180613000060SPEAKER ASM                   M IMCTM G9JA33 TNTH  09020G/WAY G9 PTB  00015                    2100 GW        0000000000005DENSO TEN (THAILAND)180LPCG0088088                                                                                                                              *          20180609 IMCT                IMCT                                                                                                                    WMF1806092.TXT
MDD6J6233709201806                D89828070300PT5620180614000060SPEAKER ASM                   M IMCTM G9JA33 TNTH  09020G/WAY G9 PTB  00015                    0200 GW        0000000000005DENSO TEN (THAILAND)180LRFG0079079                                                                                                                              *          20180609 IMCT                IMCT                                                                                                                    WMF1806092.TXT
MDD6J6233710201806                D89828070300PT5620180614000060SPEAKER ASM                   M IMCTM G9JA33 TNTH  09020G/WAY G9 PTB  00015                    0330 GW        0000000000005DENSO TEN (THAILAND)180LRRG0026026                                                                                                                              *          20180609 IMCT                IMCT                                                                                                                    WMF1806092.TXT
MDD6J6233711201806                D89828070300PT5620180614000060SPEAKER ASM                   M IMCTM G9JA33 TNTH  09020G/WAY G9 PTB  00015                    0900 GW        0000000000005DENSO TEN (THAILAND)180LPGG0171171                                                                                                                              *          20180609 IMCT                IMCT                                                                                                                    WMF1806092.TXT
MDD6J6233712201806                D89828070300PT5620180614000060SPEAKER ASM                   M IMCTM G9JA33 TNTH  09020G/WAY G9 PTB  00015                    1100 GW        0000000000005DENSO TEN (THAILAND)180LRTG0020020                                                                                                                              *          20180609 IMCT                IMCT                                                                                                                    WMF1806092.TXT
MDD6J6233713201806                D89828070300PT5620180614000060SPEAKER ASM                   M IMCTM G9JA33 TNTH  09020G/WAY G9 PTB  00015                    1400 GW        0000000000005DENSO TEN (THAILAND)180LRDG0038038                                                                                                                              *          20180609 IMCT                IMCT                                                                                                                    WMF1806092.TXT
MDD6J6233714201806                D89828070300PT5620180614000060SPEAKER ASM                   M IMCTM G9JA33 TNTH  09020G/WAY G9 PTB  00015                    1530 GW        0000000000005DENSO TEN (THAILAND)180LPCG0089089                                                                                                                              *          20180609 IMCT                IMCT                                                                                                                    WMF1806092.TXT
MDD6J6233715201806                D89831228300PT5620180613000030RADIO;AM/FM,CD                M IMCTM G9J213 TNTH  09020G/WAY G9 CPB  00003                    2100 GW        0000000000005DENSO TEN (THAILAND)180LPCG0088088                                                                                                                              *          20180609 IMCT                IMCT                                                                                                                    WMF1806092.TXT
MDD6J6233716201806                D89831228300PT5620180614000030RADIO;AM/FM,CD                M IMCTM G9J213 TNTH  09020G/WAY G9 CPB  00003                    0900 GW        0000000000005DENSO TEN (THAILAND)180LPGG0171171                                                                                                                              *          20180609 IMCT                IMCT                                                                                                                    WMF1806092.TXT
MDD6J6233717201806                D89831228300PT5620180614000030RADIO;AM/FM,CD                M IMCTM G9J213 TNTH  09020G/WAY G9 CPB  00003                    1530 GW        0000000000005DENSO TEN (THAILAND)180LPCG0089089                                                                                                                              *          20180609 IMCT                IMCT                                                                                                                    WMF1806092.TXT
MDD6J6233718201806                D89831228400PT5620180614000030RADIO;AM/FM,CD                M IMCTM G9J213 TNTH  09020G/WAY G9 CPB  00003                    0200 GW        0000000000005DENSO TEN (THAILAND)180LRFG0079079                                                                                                                              *          20180609 IMCT                IMCT                                                                                                                    WMF1806092.TXT
MDD6J6233719201806                D89831228400PT5620180614000030RADIO;AM/FM,CD                M IMCTM G9J213 TNTH  09020G/WAY G9 CPB  00003                    1100 GW        0000000000005DENSO TEN (THAILAND)180LRTG0020020                                                                                                                              *          20180609 IMCT                IMCT                                                                                                                    WMF1806092.TXT
MDD6J6233720201806                D89831228400PT5620180614000030RADIO;AM/FM,CD                M IMCTM G9J213 TNTH  09020G/WAY G9 CPB  00003                    1400 GW        0000000000005DENSO TEN (THAILAND)180LRDG0038038                                                                                                                              *          20180609 IMCT                IMCT                                                                                                                    WMF1806092.TXT
MDE6J6202577201806                D89828070100PV5620180613000060SPEAKER ASM                   M IMCTM G9B114 TNTH  09020G/WAY G9 PTB  00004                    2300 GW        0000000000005DENSO TEN (THAILAND)18084UG0009009                                                                                                                              *          20180609 IMCT                IMCT                                                                                                                    WMF1806092.TXT
MDE6J6202578201806                D89828070200PV5620180613000060SPEAKER ASM                   M IMCTM G9F132 TNTH  09020G/WAY G9 PTB  00005                    2300 GW        0000000000005DENSO TEN (THAILAND)18084UG0009009                                                                                                                              *          20180609 IMCT                IMCT                                                                                                                    WMF1806092.TXT
MDE6J6202579201806                D89828070300PT5620180613000060SPEAKER ASM                   M IMCTM G9JA33 TNTH  09020G/WAY G9 PTB  00015                    2300 GW        0000000000005DENSO TEN (THAILAND)18084UG0009009                                                                                                                              *          20180609 IMCT                IMCT                                                                                                                    WMF1806092.TXT
