REC2018060520180605ISUZU                              73     
MDDDJ6220837201806                D89821984430PT1D20180609000030RADIO;AM/FM,CD                M IMCTM S5NC06 TNTH  09020IMCT  S5 PTB  00005                    0400 SR        000000000000 DENSO TEN (THAILAND)180LXCL0051051                                                                                                                              *          20180605 IMCT                IMCT                                                                                                                    WMF1806054.TXT
MDDDJ6220838201806                D89821984430PT1D20180609000030RADIO;AM/FM,CD                M IMCTM S5NC06 TNTH  09020IMCT  S5 PTB  00005                    1030 SR        000000000000 DENSO TEN (THAILAND)180LXEL0052052                                                                                                                              *          20180605 IMCT                IMCT                                                                                                                    WMF1806054.TXT
MDDDJ6220839201806                D89821984430PT1D20180609000030RADIO;AM/FM,CD                M IMCTM S5NC06 TNTH  09020IMCT  S5 PTB  00005                    1600 SR        000000000000 DENSO TEN (THAILAND)180LNGL0139139                                                                                                                              *          20180605 IMCT                IMCT                                                                                                                    WMF1806054.TXT
MDDDJ6220840201806                D89821984430PT1D20180609000030RADIO;AM/FM,CD                M IMCTM S5NC06 TNTH  09020IMCT  S5 PTB  00005                    2100 SR        000000000000 DENSO TEN (THAILAND)180LPAL0159159                                                                                                                              *          20180605 IMCT                IMCT                                                                                                                    WMF1806054.TXT
MDDDJ6220841201806                D89828070100PV1D20180609000120SPEAKER ASM                   M IMCTM S5MB11 TNTH  09020IMCT  S5 PTB  00004                    0400 SR        000000000000 DENSO TEN (THAILAND)180LPGL0244244180LXCL0051051                                                                                                                *          20180605 IMCT                IMCT                                                                                                                    WMF1806054.TXT
MDDDJ6220842201806                D89828070100PV1D20180609000060SPEAKER ASM                   M IMCTM S5MB11 TNTH  09020IMCT  S5 PTB  00004                    1030 SR        000000000000 DENSO TEN (THAILAND)180LXEL0052052                                                                                                                              *          20180605 IMCT                IMCT                                                                                                                    WMF1806054.TXT
MDDDJ6220843201806                D89828070100PV1D20180609000060SPEAKER ASM                   M IMCTM S5MB11 TNTH  09020IMCT  S5 PTB  00004                    1300 SR        000000000000 DENSO TEN (THAILAND)180LXBL0012012                                                                                                                              *          20180605 IMCT                IMCT                                                                                                                    WMF1806054.TXT
MDDDJ6220844201806                D89828070100PV1D20180609000060SPEAKER ASM                   M IMCTM S5MB11 TNTH  09020IMCT  S5 PTB  00004                    1600 SR        000000000000 DENSO TEN (THAILAND)180LNGL0139139                                                                                                                              *          20180605 IMCT                IMCT                                                                                                                    WMF1806054.TXT
MDDDJ6220845201806                D89828070100PV1D20180609000060SPEAKER ASM                   M IMCTM S5MB11 TNTH  09020IMCT  S5 PTB  00004                    2100 SR        000000000000 DENSO TEN (THAILAND)180LPAL0159159                                                                                                                              *          20180605 IMCT                IMCT                                                                                                                    WMF1806054.TXT
MDDDJ6220846201806                D89828070300PT1D20180609000060SPEAKER ASM                   M IMCTM S5NB082TNTH  09020IMCT  S5 PTB  00015                    0400 SR        000000000000 DENSO TEN (THAILAND)180LPGL0244244                                                                                                                              *          20180605 IMCT                IMCT                                                                                                                    WMF1806054.TXT
MDDDJ6220847201806                D89831228300PT1D20180609000030RADIO;AM/FM,CD                M IMCTM S5NC06 TNTH  09020IMCT  S5 CPB  00003                    0400 SR        000000000000 DENSO TEN (THAILAND)180LPGL0244244                                                                                                                              *          20180605 IMCT                IMCT                                                                                                                    WMF1806054.TXT
MDDUJ6210243201806                D89828070100PT4U20180609000030SPEAKER ASM                   M IMCTM S0FL05 TNTH  09020IMCT  S0 PTB  00004                    0400 SR        000000000000 DENSO TEN (THAILAND)180LUSU0089089                                                                                                                              *          20180605 IMCT                IMCT                                                                                                                    WMF1806054.TXT
MDDUJ6210244201806                D89828070100PT4U20180609000030SPEAKER ASM                   M IMCTM S0FL05 TNTH  09020IMCT  S0 PTB  00004                    1300 SR        000000000000 DENSO TEN (THAILAND)180LUSU0090090                                                                                                                              *          20180605 IMCT                IMCT                                                                                                                    WMF1806054.TXT
MDDUJ6210245201806                D89828070100PT4U20180609000030SPEAKER ASM                   M IMCTM S0FL05 TNTH  09020IMCT  S0 PTB  00004                    2230 SR        000000000000 DENSO TEN (THAILAND)180LURU0063063                                                                                                                              *          20180605 IMCT                IMCT                                                                                                                    WMF1806054.TXT
MDDUJ6210246201806                D89828070200PV4U20180609000030SPEAKER ASM                   M IMCTM S0FR05 TNTH  09020IMCT  S0 PTB  00005                    0400 SR        000000000000 DENSO TEN (THAILAND)180LUSU0089089                                                                                                                              *          20180605 IMCT                IMCT                                                                                                                    WMF1806054.TXT
MDDUJ6210247201806                D89828070200PV4U20180609000030SPEAKER ASM                   M IMCTM S0FR05 TNTH  09020IMCT  S0 PTB  00005                    1300 SR        000000000000 DENSO TEN (THAILAND)180LUSU0090090                                                                                                                              *          20180605 IMCT                IMCT                                                                                                                    WMF1806054.TXT
MDDUJ6210248201806                D89828070200PV4U20180609000030SPEAKER ASM                   M IMCTM S0FR05 TNTH  09020IMCT  S0 PTB  00005                    2230 SR        000000000000 DENSO TEN (THAILAND)180LURU0063063                                                                                                                              *          20180605 IMCT                IMCT                                                                                                                    WMF1806054.TXT
MDDUJ6210249201806                D89828070300PT4U20180609000030SPEAKER ASM                   M IMCTM S9TS02 TNTH  09020IMCT  S9 PTB  00015                    0400 SR        000000000000 DENSO TEN (THAILAND)180LUSU0089089                                                                                                                              *          20180605 IMCT                IMCT                                                                                                                    WMF1806054.TXT
MDDUJ6210250201806                D89828070300PT4U20180609000030SPEAKER ASM                   M IMCTM S9TS02 TNTH  09020IMCT  S9 PTB  00015                    1300 SR        000000000000 DENSO TEN (THAILAND)180LUSU0090090                                                                                                                              *          20180605 IMCT                IMCT                                                                                                                    WMF1806054.TXT
MDDUJ6210251201806                D89828070300PT4U20180609000030SPEAKER ASM                   M IMCTM S9TS02 TNTH  09020IMCT  S9 PTB  00015                    2230 SR        000000000000 DENSO TEN (THAILAND)180LURU0063063                                                                                                                              *          20180605 IMCT                IMCT                                                                                                                    WMF1806054.TXT
MDEDJ6225967201806                D89828070100PV1D20180608000060SPEAKER ASM                   M IMCTM S5MB11 TNTH  09020IMCT  S5 PTB  00004                    2230 SR        000000000000 DENSO TEN (THAILAND)18068XL0002003                                                                                                                              *          20180605 IMCT                IMCT                                                                                                                    WMF1806054.TXT
MDEDJ6225968201806                D89828070100PV1D20180609000060SPEAKER ASM                   M IMCTM S5MB11 TNTH  09020IMCT  S5 PTB  00004                    0230 SR        000000000000 DENSO TEN (THAILAND)17046RL000700718061UL0008008                                                                                                                *          20180605 IMCT                IMCT                                                                                                                    WMF1806054.TXT
MDEDJ6225969201806                D89828070100PV1D20180609000060SPEAKER ASM                   M IMCTM S5MB11 TNTH  09020IMCT  S5 PTB  00004                    0830 SR        000000000000 DENSO TEN (THAILAND)18007ZL0097098                                                                                                                              *          20180605 IMCT                IMCT                                                                                                                    WMF1806054.TXT
MDEDJ6225970201806                D89828070100PV1D20180609000060SPEAKER ASM                   M IMCTM S5MB11 TNTH  09020IMCT  S5 PTB  00004                    1030 SR        000000000000 DENSO TEN (THAILAND)18069UL0010011                                                                                                                              *          20180605 IMCT                IMCT                                                                                                                    WMF1806054.TXT
MDEDJ6225971201806                D89828070100PV1D20180609000030SPEAKER ASM                   M IMCTM S5MB11 TNTH  09020IMCT  S5 PTB  00004                    1300 SR        000000000000 DENSO TEN (THAILAND)18034XL0003003                                                                                                                              *          20180605 IMCT                IMCT                                                                                                                    WMF1806054.TXT
MDEDJ6225972201806                D89828070100PV1D20180609000030SPEAKER ASM                   M IMCTM S5MB11 TNTH  09020IMCT  S5 PTB  00004                    1600 SR        000000000000 DENSO TEN (THAILAND)18059XL0007007                                                                                                                              *          20180605 IMCT                IMCT                                                                                                                    WMF1806054.TXT
MDEDJ6225973201806                D89828070100PV1D20180609000030SPEAKER ASM                   M IMCTM S5MB11 TNTH  09020IMCT  S5 PTB  00004                    2230 SR        000000000000 DENSO TEN (THAILAND)17050RL0034034                                                                                                                              *          20180605 IMCT                IMCT                                                                                                                    WMF1806054.TXT
MDEDJ6225974201806                D89828070100PV4D20180609000030SPEAKER ASM                   M IMCTM S0FL05 TNTH  09020IMCT  S0 PTB  00004                    0230 SR        000000000000 DENSO TEN (THAILAND)18098UU0012012                                                                                                                              *          20180605 IMCT                IMCT                                                                                                                    WMF1806054.TXT
MDEDJ6225975201806                D89828070100PV4D20180609000030SPEAKER ASM                   M IMCTM S0FL05 TNTH  09020IMCT  S0 PTB  00004                    0400 SR        000000000000 DENSO TEN (THAILAND)18080UU0007007                                                                                                                              *          20180605 IMCT                IMCT                                                                                                                    WMF1806054.TXT
MDEDJ6225976201806                D89828070100PV4D20180609000030SPEAKER ASM                   M IMCTM S0FL05 TNTH  09020IMCT  S0 PTB  00004                    1600 SR        000000000000 DENSO TEN (THAILAND)18067UU0013013                                                                                                                              *          20180605 IMCT                IMCT                                                                                                                    WMF1806054.TXT
MDEDJ6225977201806                D89828070100PV4D20180609000030SPEAKER ASM                   M IMCTM S0FL05 TNTH  09020IMCT  S0 PTB  00004                    2100 SR        000000000000 DENSO TEN (THAILAND)18082UU0008008                                                                                                                              *          20180605 IMCT                IMCT                                                                                                                    WMF1806054.TXT
MDEDJ6225978201806                D89828070200PV1D20180608000060SPEAKER ASM                   M IMCTM S5MA14 TNTH  09020IMCT  S5 PTB  00005                    2230 SR        000000000000 DENSO TEN (THAILAND)18068XL0002003                                                                                                                              *          20180605 IMCT                IMCT                                                                                                                    WMF1806054.TXT
MDEDJ6225979201806                D89828070200PV1D20180609000030SPEAKER ASM                   M IMCTM S5MA14 TNTH  09020IMCT  S5 PTB  00005                    0230 SR        000000000000 DENSO TEN (THAILAND)17046RL0007007                                                                                                                              *          20180605 IMCT                IMCT                                                                                                                    WMF1806054.TXT
MDEDJ6225980201806                D89828070200PV1D20180609000060SPEAKER ASM                   M IMCTM S5MA14 TNTH  09020IMCT  S5 PTB  00005                    1030 SR        000000000000 DENSO TEN (THAILAND)18069UL0010011                                                                                                                              *          20180605 IMCT                IMCT                                                                                                                    WMF1806054.TXT
MDEDJ6225981201806                D89828070200PV1D20180609000030SPEAKER ASM                   M IMCTM S5MA14 TNTH  09020IMCT  S5 PTB  00005                    1300 SR        000000000000 DENSO TEN (THAILAND)18034XL0003003                                                                                                                              *          20180605 IMCT                IMCT                                                                                                                    WMF1806054.TXT
MDEDJ6225982201806                D89828070200PV1D20180609000030SPEAKER ASM                   M IMCTM S5MA14 TNTH  09020IMCT  S5 PTB  00005                    1600 SR        000000000000 DENSO TEN (THAILAND)18059XL0007007                                                                                                                              *          20180605 IMCT                IMCT                                                                                                                    WMF1806054.TXT
MDEDJ6225983201806                D89828070200PV1D20180609000030SPEAKER ASM                   M IMCTM S5MA14 TNTH  09020IMCT  S5 PTB  00005                    2230 SR        000000000000 DENSO TEN (THAILAND)17050RL0034034                                                                                                                              *          20180605 IMCT                IMCT                                                                                                                    WMF1806054.TXT
MDEDJ6225984201806                D89828070200PV4D20180609000030SPEAKER ASM                   M IMCTM S0FR05 TNTH  09020IMCT  S0 PTB  00005                    0230 SR        000000000000 DENSO TEN (THAILAND)18098UU0012012                                                                                                                              *          20180605 IMCT                IMCT                                                                                                                    WMF1806054.TXT
MDEDJ6225985201806                D89828070200PV4D20180609000030SPEAKER ASM                   M IMCTM S0FR05 TNTH  09020IMCT  S0 PTB  00005                    0400 SR        000000000000 DENSO TEN (THAILAND)18080UU0007007                                                                                                                              *          20180605 IMCT                IMCT                                                                                                                    WMF1806054.TXT
MDEDJ6225986201806                D89828070200PV4D20180609000030SPEAKER ASM                   M IMCTM S0FR05 TNTH  09020IMCT  S0 PTB  00005                    1600 SR        000000000000 DENSO TEN (THAILAND)18067UU0013013                                                                                                                              *          20180605 IMCT                IMCT                                                                                                                    WMF1806054.TXT
MDEDJ6225987201806                D89828070200PV4D20180609000030SPEAKER ASM                   M IMCTM S0FR05 TNTH  09020IMCT  S0 PTB  00005                    2100 SR        000000000000 DENSO TEN (THAILAND)18082UU0008008                                                                                                                              *          20180605 IMCT                IMCT                                                                                                                    WMF1806054.TXT
MDEDJ6225988201806                D89828070300PT1D20180608000060SPEAKER ASM                   M IMCTM S5NB082TNTH  09020IMCT  S5 PTB  00015                    2230 SR        000000000000 DENSO TEN (THAILAND)18068XL0002003                                                                                                                              *          20180605 IMCT                IMCT                                                                                                                    WMF1806054.TXT
MDEDJ6225989201806                D89828070300PT1D20180609000060SPEAKER ASM                   M IMCTM S5NB082TNTH  09020IMCT  S5 PTB  00015                    0230 SR        000000000000 DENSO TEN (THAILAND)17046RL000700718061UL0008008                                                                                                                *          20180605 IMCT                IMCT                                                                                                                    WMF1806054.TXT
MDEDJ6225990201806                D89828070300PT1D20180609000060SPEAKER ASM                   M IMCTM S5NB082TNTH  09020IMCT  S5 PTB  00015                    1030 SR        000000000000 DENSO TEN (THAILAND)18069UL0010011                                                                                                                              *          20180605 IMCT                IMCT                                                                                                                    WMF1806054.TXT
MDEDJ6225991201806                D89828070300PT1D20180609000030SPEAKER ASM                   M IMCTM S5NB082TNTH  09020IMCT  S5 PTB  00015                    1300 SR        000000000000 DENSO TEN (THAILAND)18034XL0003003                                                                                                                              *          20180605 IMCT                IMCT                                                                                                                    WMF1806054.TXT
MDEDJ6225992201806                D89828070300PT1D20180609000030SPEAKER ASM                   M IMCTM S5NB082TNTH  09020IMCT  S5 PTB  00015                    1600 SR        000000000000 DENSO TEN (THAILAND)18059XL0007007                                                                                                                              *          20180605 IMCT                IMCT                                                                                                                    WMF1806054.TXT
MDEDJ6225993201806                D89828070300PT1D20180609000030SPEAKER ASM                   M IMCTM S5NB082TNTH  09020IMCT  S5 PTB  00015                    2230 SR        000000000000 DENSO TEN (THAILAND)17050RL0034034                                                                                                                              *          20180605 IMCT                IMCT                                                                                                                    WMF1806054.TXT
MDEDJ6225994201806                D89828070300PT4D20180609000030SPEAKER ASM                   M IMCTM S9TS02 TNTH  09020IMCT  S9 PTB  00015                    0230 SR        000000000000 DENSO TEN (THAILAND)18098UU0012012                                                                                                                              *          20180605 IMCT                IMCT                                                                                                                    WMF1806054.TXT
MDEDJ6225995201806                D89828070300PT4D20180609000030SPEAKER ASM                   M IMCTM S9TS02 TNTH  09020IMCT  S9 PTB  00015                    0400 SR        000000000000 DENSO TEN (THAILAND)18080UU0007007                                                                                                                              *          20180605 IMCT                IMCT                                                                                                                    WMF1806054.TXT
MDEDJ6225996201806                D89828070300PT4D20180609000030SPEAKER ASM                   M IMCTM S9TS02 TNTH  09020IMCT  S9 PTB  00015                    1600 SR        000000000000 DENSO TEN (THAILAND)18067UU0013013                                                                                                                              *          20180605 IMCT                IMCT                                                                                                                    WMF1806054.TXT
MDEDJ6225997201806                D89828070300PT4D20180609000030SPEAKER ASM                   M IMCTM S9TS02 TNTH  09020IMCT  S9 PTB  00015                    2100 SR        000000000000 DENSO TEN (THAILAND)18082UU0008008                                                                                                                              *          20180605 IMCT                IMCT                                                                                                                    WMF1806054.TXT
MDEDJ6225998201806                D89829645410PT1D20180609000015RADIO;ASM DVD                 M IMCTM S5NC06 TNTH  09020IMCT  S5 PTB  00003                    2230 SR        000000000000 DENSO TEN (THAILAND)17050RL0034034                                                                                                                              *          20180605 IMCT                IMCT                                                                                                                    WMF1806054.TXT
MDEDJ6225999201806                D89831228800PT1D20180609000015RADIO;AM/FM,CD                M IMCTM S5NC06 TNTH  09020IMCT  S5 PTB  00003                    1300 SR        000000000000 DENSO TEN (THAILAND)18034XL0003003                                                                                                                              *          20180605 IMCT                IMCT                                                                                                                    WMF1806054.TXT
MDEDJ6226000201806                D89831229000PT1D20180609000015RADIO;AM/FM,CD                M IMCTM S5NC06 TNTH  09020IMCT  S5 PTB  00003                    0230 SR        000000000000 DENSO TEN (THAILAND)17046RL0007007                                                                                                                              *          20180605 IMCT                IMCT                                                                                                                    WMF1806054.TXT
MDEDJ6226001201806                D89848581800PT1D20180609000015RADIO;AM/FM CD D              M IMCTM S5NC06 TNTH  09020IMCT  S5 PTB  00003                    0230 SR        000000000000 DENSO TEN (THAILAND)18061UL0008008                                                                                                                              *          20180605 IMCT                IMCT                                                                                                                    WMF1806054.TXT
MDEDJ6226002201806                D89848581800PT4D20180609000015RADIO;AM/FM CD D              M IMCTM S9CO001TNTH  09020IMCT  S9 PTB  00003                    0230 SR        000000000000 DENSO TEN (THAILAND)18098UU0012012                                                                                                                              *          20180605 IMCT                IMCT                                                                                                                    WMF1806054.TXT
MDEDJ6226003201806                D89848581800PT4D20180609000015RADIO;AM/FM CD D              M IMCTM S9CO001TNTH  09020IMCT  S9 PTB  00003                    0400 SR        000000000000 DENSO TEN (THAILAND)18080UU0007007                                                                                                                              *          20180605 IMCT                IMCT                                                                                                                    WMF1806054.TXT
MDEDJ6226004201806                D89848581800PT4D20180609000015RADIO;AM/FM CD D              M IMCTM S9CO001TNTH  09020IMCT  S9 PTB  00003                    2100 SR        000000000000 DENSO TEN (THAILAND)18082UU0008008                                                                                                                              *          20180605 IMCT                IMCT                                                                                                                    WMF1806054.TXT
MDEUJ6215663201806                D89828070100PT4U20180609000030SPEAKER ASM                   M IMCTM S0FL05 TNTH  09020IMCT  S0 PTB  00004                    0230 SR        000000000000 DENSO TEN (THAILAND)18021UU0102102                                                                                                                              *          20180605 IMCT                IMCT                                                                                                                    WMF1806054.TXT
MDEUJ6215664201806                D89828070100PT4U20180609000030SPEAKER ASM                   M IMCTM S0FL05 TNTH  09020IMCT  S0 PTB  00004                    0830 SR        000000000000 DENSO TEN (THAILAND)18025UU0075075                                                                                                                              *          20180605 IMCT                IMCT                                                                                                                    WMF1806054.TXT
MDEUJ6215665201806                D89828070100PT4U20180609000030SPEAKER ASM                   M IMCTM S0FL05 TNTH  09020IMCT  S0 PTB  00004                    1030 SR        000000000000 DENSO TEN (THAILAND)18016UU0026026                                                                                                                              *          20180605 IMCT                IMCT                                                                                                                    WMF1806054.TXT
MDEUJ6215666201806                D89828070100PT4U20180609000030SPEAKER ASM                   M IMCTM S0FL05 TNTH  09020IMCT  S0 PTB  00004                    1300 SR        000000000000 DENSO TEN (THAILAND)18020UU0067067                                                                                                                              *          20180605 IMCT                IMCT                                                                                                                    WMF1806054.TXT
MDEUJ6215667201806                D89828070100PT4U20180609000030SPEAKER ASM                   M IMCTM S0FL05 TNTH  09020IMCT  S0 PTB  00004                    1600 SR        000000000000 DENSO TEN (THAILAND)18018UU0007007                                                                                                                              *          20180605 IMCT                IMCT                                                                                                                    WMF1806054.TXT
MDEUJ6215668201806                D89828070200PV4U20180609000030SPEAKER ASM                   M IMCTM S0FR05 TNTH  09020IMCT  S0 PTB  00005                    0230 SR        000000000000 DENSO TEN (THAILAND)18021UU0102102                                                                                                                              *          20180605 IMCT                IMCT                                                                                                                    WMF1806054.TXT
MDEUJ6215669201806                D89828070200PV4U20180609000030SPEAKER ASM                   M IMCTM S0FR05 TNTH  09020IMCT  S0 PTB  00005                    0830 SR        000000000000 DENSO TEN (THAILAND)18025UU0075075                                                                                                                              *          20180605 IMCT                IMCT                                                                                                                    WMF1806054.TXT
MDEUJ6215670201806                D89828070200PV4U20180609000030SPEAKER ASM                   M IMCTM S0FR05 TNTH  09020IMCT  S0 PTB  00005                    1030 SR        000000000000 DENSO TEN (THAILAND)18016UU0026026                                                                                                                              *          20180605 IMCT                IMCT                                                                                                                    WMF1806054.TXT
MDEUJ6215671201806                D89828070200PV4U20180609000030SPEAKER ASM                   M IMCTM S0FR05 TNTH  09020IMCT  S0 PTB  00005                    1300 SR        000000000000 DENSO TEN (THAILAND)18020UU0067067                                                                                                                              *          20180605 IMCT                IMCT                                                                                                                    WMF1806054.TXT
MDEUJ6215672201806                D89828070200PV4U20180609000030SPEAKER ASM                   M IMCTM S0FR05 TNTH  09020IMCT  S0 PTB  00005                    1600 SR        000000000000 DENSO TEN (THAILAND)18018UU0007007                                                                                                                              *          20180605 IMCT                IMCT                                                                                                                    WMF1806054.TXT
MDEUJ6215673201806                D89828070300PT4U20180609000030SPEAKER ASM                   M IMCTM S9TS02 TNTH  09020IMCT  S9 PTB  00015                    0230 SR        000000000000 DENSO TEN (THAILAND)18021UU0102102                                                                                                                              *          20180605 IMCT                IMCT                                                                                                                    WMF1806054.TXT
MDEUJ6215674201806                D89828070300PT4U20180609000030SPEAKER ASM                   M IMCTM S9TS02 TNTH  09020IMCT  S9 PTB  00015                    0830 SR        000000000000 DENSO TEN (THAILAND)18025UU0075075                                                                                                                              *          20180605 IMCT                IMCT                                                                                                                    WMF1806054.TXT
MDEUJ6215675201806                D89828070300PT4U20180609000030SPEAKER ASM                   M IMCTM S9TS02 TNTH  09020IMCT  S9 PTB  00015                    1030 SR        000000000000 DENSO TEN (THAILAND)18016UU0026026                                                                                                                              *          20180605 IMCT                IMCT                                                                                                                    WMF1806054.TXT
MDEUJ6215676201806                D89828070300PT4U20180609000030SPEAKER ASM                   M IMCTM S9TS02 TNTH  09020IMCT  S9 PTB  00015                    1300 SR        000000000000 DENSO TEN (THAILAND)18020UU0067067                                                                                                                              *          20180605 IMCT                IMCT                                                                                                                    WMF1806054.TXT
MDEUJ6215677201806                D89828070300PT4U20180609000030SPEAKER ASM                   M IMCTM S9TS02 TNTH  09020IMCT  S9 PTB  00015                    1600 SR        000000000000 DENSO TEN (THAILAND)18018UU0007007                                                                                                                              *          20180605 IMCT                IMCT                                                                                                                    WMF1806054.TXT
