REC2018061320180613ISUZU                              76     
MDDDJ6260318201806                D89821984430PT1D20180619000060RADIO;AM/FM,CD                M IMCTM S5NC06 TNTH  09020IMCT  S5 PTB  00005                    1600 SR        000000000000 DENSO TEN (THAILAND)180LPAL0166166180LXEL0055055                                                                                                                *          20180613 IMCT                IMCT                                                                                                                    WMF1806135.TXT
MDDDJ6260319201806                D89828070100PV1D20180619000060SPEAKER ASM                   M IMCTM S5MB11 TNTH  09020IMCT  S5 PTB  00004                    0230 SR        000000000000 DENSO TEN (THAILAND)180LPGL0252252                                                                                                                              *          20180613 IMCT                IMCT                                                                                                                    WMF1806135.TXT
MDDDJ6260320201806                D89828070100PV1D20180619000060SPEAKER ASM                   M IMCTM S5MB11 TNTH  09020IMCT  S5 PTB  00004                    0400 SR        000000000000 DENSO TEN (THAILAND)180LXAL0028028                                                                                                                              *          20180613 IMCT                IMCT                                                                                                                    WMF1806135.TXT
MDDDJ6260321201806                D89828070100PV1D20180619000060SPEAKER ASM                   M IMCTM S5MB11 TNTH  09020IMCT  S5 PTB  00004                    0830 SR        000000000000 DENSO TEN (THAILAND)180LPGL0253253                                                                                                                              *          20180613 IMCT                IMCT                                                                                                                    WMF1806135.TXT
MDDDJ6260322201806                D89828070100PV1D20180619000060SPEAKER ASM                   M IMCTM S5MB11 TNTH  09020IMCT  S5 PTB  00004                    1300 SR        000000000000 DENSO TEN (THAILAND)180LPFL0056056                                                                                                                              *          20180613 IMCT                IMCT                                                                                                                    WMF1806135.TXT
MDDDJ6260323201806                D89828070100PV1D20180619000240SPEAKER ASM                   M IMCTM S5MB11 TNTH  09020IMCT  S5 PTB  00004                    1600 SR        000000000000 DENSO TEN (THAILAND)180LPAL0166166180LPKL0068068180LPQL0029029180LXEL0055055                                                                                    *          20180613 IMCT                IMCT                                                                                                                    WMF1806135.TXT
MDDDJ6260324201806                D89828070100PV1D20180619000060SPEAKER ASM                   M IMCTM S5MB11 TNTH  09020IMCT  S5 PTB  00004                    2100 SR        000000000000 DENSO TEN (THAILAND)180LPEL0015015                                                                                                                              *          20180613 IMCT                IMCT                                                                                                                    WMF1806135.TXT
MDDDJ6260325201806                D89828070100PV4D20180619000060SPEAKER ASM                   M IMCTM S0FL05 TNTH  09020IMCT  S0 PTB  00004                    0400 SR        000000000000 DENSO TEN (THAILAND)180LRSU0051051                                                                                                                              *          20180613 IMCT                IMCT                                                                                                                    WMF1806135.TXT
MDDDJ6260326201806                D89828070200PV4D20180619000060SPEAKER ASM                   M IMCTM S0FR05 TNTH  09020IMCT  S0 PTB  00005                    0400 SR        000000000000 DENSO TEN (THAILAND)180LRSU0051051                                                                                                                              *          20180613 IMCT                IMCT                                                                                                                    WMF1806135.TXT
MDDDJ6260327201806                D89828070300PT1D20180619000060SPEAKER ASM                   M IMCTM S5NB082TNTH  09020IMCT  S5 PTB  00015                    0230 SR        000000000000 DENSO TEN (THAILAND)180LPGL0252252                                                                                                                              *          20180613 IMCT                IMCT                                                                                                                    WMF1806135.TXT
MDDDJ6260328201806                D89828070300PT1D20180619000060SPEAKER ASM                   M IMCTM S5NB082TNTH  09020IMCT  S5 PTB  00015                    0830 SR        000000000000 DENSO TEN (THAILAND)180LPGL0253253                                                                                                                              *          20180613 IMCT                IMCT                                                                                                                    WMF1806135.TXT
MDDDJ6260329201806                D89828070300PT1D20180619000060SPEAKER ASM                   M IMCTM S5NB082TNTH  09020IMCT  S5 PTB  00015                    1300 SR        000000000000 DENSO TEN (THAILAND)180LPFL0056056                                                                                                                              *          20180613 IMCT                IMCT                                                                                                                    WMF1806135.TXT
MDDDJ6260330201806                D89828070300PT1D20180619000120SPEAKER ASM                   M IMCTM S5NB082TNTH  09020IMCT  S5 PTB  00015                    1600 SR        000000000000 DENSO TEN (THAILAND)180LPKL0068068180LPQL0029029                                                                                                                *          20180613 IMCT                IMCT                                                                                                                    WMF1806135.TXT
MDDDJ6260331201806                D89828070300PT1D20180619000060SPEAKER ASM                   M IMCTM S5NB082TNTH  09020IMCT  S5 PTB  00015                    2100 SR        000000000000 DENSO TEN (THAILAND)180LPEL0015015                                                                                                                              *          20180613 IMCT                IMCT                                                                                                                    WMF1806135.TXT
MDDDJ6260332201806                D89828070300PT4D20180619000060SPEAKER ASM                   M IMCTM S9TS02 TNTH  09020IMCT  S9 PTB  00015                    0400 SR        000000000000 DENSO TEN (THAILAND)180LRSU0051051                                                                                                                              *          20180613 IMCT                IMCT                                                                                                                    WMF1806135.TXT
MDDDJ6260333201806                D89831228300PT1D20180619000030RADIO;AM/FM,CD                M IMCTM S5NC06 TNTH  09020IMCT  S5 CPB  00003                    0230 SR        000000000000 DENSO TEN (THAILAND)180LPGL0252252                                                                                                                              *          20180613 IMCT                IMCT                                                                                                                    WMF1806135.TXT
MDDDJ6260334201806                D89831228300PT1D20180619000030RADIO;AM/FM,CD                M IMCTM S5NC06 TNTH  09020IMCT  S5 CPB  00003                    0830 SR        000000000000 DENSO TEN (THAILAND)180LPGL0253253                                                                                                                              *          20180613 IMCT                IMCT                                                                                                                    WMF1806135.TXT
MDDDJ6260335201806                D89831228300PT1D20180619000030RADIO;AM/FM,CD                M IMCTM S5NC06 TNTH  09020IMCT  S5 CPB  00003                    1300 SR        000000000000 DENSO TEN (THAILAND)180LPFL0056056                                                                                                                              *          20180613 IMCT                IMCT                                                                                                                    WMF1806135.TXT
MDDDJ6260336201806                D89831228300PT1D20180619000030RADIO;AM/FM,CD                M IMCTM S5NC06 TNTH  09020IMCT  S5 CPB  00003                    2100 SR        000000000000 DENSO TEN (THAILAND)180LPEL0015015                                                                                                                              *          20180613 IMCT                IMCT                                                                                                                    WMF1806135.TXT
MDDDJ6260337201806                D89848581600PT1D20180619000060RADIO;AM/FM CD D              M IMCTM S5NC06 TNTH  09020IMCT  S5 PTB  00003                    1600 SR        000000000000 DENSO TEN (THAILAND)180LPKL0068068180LPQL0029029                                                                                                                *          20180613 IMCT                IMCT                                                                                                                    WMF1806135.TXT
MDDUJ6228856201806                D89828070100PT4U20180619000030SPEAKER ASM                   M IMCTM S0FL05 TNTH  09020IMCT  S0 PTB  00004                    0400 SR        000000000000 DENSO TEN (THAILAND)180LUPU0026026                                                                                                                              *          20180613 IMCT                IMCT                                                                                                                    WMF1806135.TXT
MDDUJ6228857201806                D89828070100PT4U20180619000030SPEAKER ASM                   M IMCTM S0FL05 TNTH  09020IMCT  S0 PTB  00004                    1300 SR        000000000000 DENSO TEN (THAILAND)180LUTU0060060                                                                                                                              *          20180613 IMCT                IMCT                                                                                                                    WMF1806135.TXT
MDDUJ6228858201806                D89828070100PT4U20180619000030SPEAKER ASM                   M IMCTM S0FL05 TNTH  09020IMCT  S0 PTB  00004                    1600 SR        000000000000 DENSO TEN (THAILAND)180LUSU0099099                                                                                                                              *          20180613 IMCT                IMCT                                                                                                                    WMF1806135.TXT
MDDUJ6228859201806                D89828070200PV4U20180619000030SPEAKER ASM                   M IMCTM S0FR05 TNTH  09020IMCT  S0 PTB  00005                    0400 SR        000000000000 DENSO TEN (THAILAND)180LUPU0026026                                                                                                                              *          20180613 IMCT                IMCT                                                                                                                    WMF1806135.TXT
MDDUJ6228860201806                D89828070200PV4U20180619000030SPEAKER ASM                   M IMCTM S0FR05 TNTH  09020IMCT  S0 PTB  00005                    1300 SR        000000000000 DENSO TEN (THAILAND)180LUTU0060060                                                                                                                              *          20180613 IMCT                IMCT                                                                                                                    WMF1806135.TXT
MDDUJ6228861201806                D89828070200PV4U20180619000030SPEAKER ASM                   M IMCTM S0FR05 TNTH  09020IMCT  S0 PTB  00005                    1600 SR        000000000000 DENSO TEN (THAILAND)180LUSU0099099                                                                                                                              *          20180613 IMCT                IMCT                                                                                                                    WMF1806135.TXT
MDDUJ6228862201806                D89828070300PT4U20180619000030SPEAKER ASM                   M IMCTM S9TS02 TNTH  09020IMCT  S9 PTB  00015                    0400 SR        000000000000 DENSO TEN (THAILAND)180LUPU0026026                                                                                                                              *          20180613 IMCT                IMCT                                                                                                                    WMF1806135.TXT
MDDUJ6228863201806                D89828070300PT4U20180619000030SPEAKER ASM                   M IMCTM S9TS02 TNTH  09020IMCT  S9 PTB  00015                    1300 SR        000000000000 DENSO TEN (THAILAND)180LUTU0060060                                                                                                                              *          20180613 IMCT                IMCT                                                                                                                    WMF1806135.TXT
MDDUJ6228864201806                D89828070300PT4U20180619000030SPEAKER ASM                   M IMCTM S9TS02 TNTH  09020IMCT  S9 PTB  00015                    1600 SR        000000000000 DENSO TEN (THAILAND)180LUSU0099099                                                                                                                              *          20180613 IMCT                IMCT                                                                                                                    WMF1806135.TXT
MDDUJ6228865201806                D89831228400PT4U20180619000015RADIO;AM/FM,CD                M IMCTM S9CO001TNTH  09020IMCT  S9 CPB  00003                    0400 SR        000000000000 DENSO TEN (THAILAND)180LUPU0026026                                                                                                                              *          20180613 IMCT                IMCT                                                                                                                    WMF1806135.TXT
MDEDJ6269297201806                D89828070100PV1D20180618000090SPEAKER ASM                   M IMCTM S5MB11 TNTH  09020IMCT  S5 PTB  00004                    2230 SR        000000000000 DENSO TEN (THAILAND)18063UL002102218083XL0001001                                                                                                                *          20180613 IMCT                IMCT                                                                                                                    WMF1806135.TXT
MDEDJ6269298201806                D89828070100PV1D20180619000030SPEAKER ASM                   M IMCTM S5MB11 TNTH  09020IMCT  S5 PTB  00004                    0230 SR        000000000000 DENSO TEN (THAILAND)18083XL0002002                                                                                                                              *          20180613 IMCT                IMCT                                                                                                                    WMF1806135.TXT
MDEDJ6269299201806                D89828070100PV1D20180619000030SPEAKER ASM                   M IMCTM S5MB11 TNTH  09020IMCT  S5 PTB  00004                    0400 SR        000000000000 DENSO TEN (THAILAND)18099UL0076076                                                                                                                              *          20180613 IMCT                IMCT                                                                                                                    WMF1806135.TXT
MDEDJ6269300201806                D89828070100PV1D20180619000030SPEAKER ASM                   M IMCTM S5MB11 TNTH  09020IMCT  S5 PTB  00004                    0830 SR        000000000000 DENSO TEN (THAILAND)18099UL0077077                                                                                                                              *          20180613 IMCT                IMCT                                                                                                                    WMF1806135.TXT
MDEDJ6269301201806                D89828070100PV1D20180619000060SPEAKER ASM                   M IMCTM S5MB11 TNTH  09020IMCT  S5 PTB  00004                    1030 SR        000000000000 DENSO TEN (THAILAND)18099XL0005006                                                                                                                              *          20180613 IMCT                IMCT                                                                                                                    WMF1806135.TXT
MDEDJ6269302201806                D89828070100PV1D20180619000060SPEAKER ASM                   M IMCTM S5MB11 TNTH  09020IMCT  S5 PTB  00004                    1300 SR        000000000000 DENSO TEN (THAILAND)18008YL0013014                                                                                                                              *          20180613 IMCT                IMCT                                                                                                                    WMF1806135.TXT
MDEDJ6269303201806                D89828070100PV4D20180619000030SPEAKER ASM                   M IMCTM S0FL05 TNTH  09020IMCT  S0 PTB  00004                    1300 SR        000000000000 DENSO TEN (THAILAND)18098UU0014014                                                                                                                              *          20180613 IMCT                IMCT                                                                                                                    WMF1806135.TXT
MDEDJ6269304201806                D89828070100PV4D20180619000030SPEAKER ASM                   M IMCTM S0FL05 TNTH  09020IMCT  S0 PTB  00004                    2230 SR        000000000000 DENSO TEN (THAILAND)18099UU0011011                                                                                                                              *          20180613 IMCT                IMCT                                                                                                                    WMF1806135.TXT
MDEDJ6269305201806                D89828070200PV1D20180618000030SPEAKER ASM                   M IMCTM S5MA14 TNTH  09020IMCT  S5 PTB  00005                    2230 SR        000000000000 DENSO TEN (THAILAND)18083XL0001001                                                                                                                              *          20180613 IMCT                IMCT                                                                                                                    WMF1806135.TXT
MDEDJ6269306201806                D89828070200PV1D20180619000030SPEAKER ASM                   M IMCTM S5MA14 TNTH  09020IMCT  S5 PTB  00005                    0230 SR        000000000000 DENSO TEN (THAILAND)18083XL0002002                                                                                                                              *          20180613 IMCT                IMCT                                                                                                                    WMF1806135.TXT
MDEDJ6269307201806                D89828070200PV1D20180619000030SPEAKER ASM                   M IMCTM S5MA14 TNTH  09020IMCT  S5 PTB  00005                    0400 SR        000000000000 DENSO TEN (THAILAND)18099UL0076076                                                                                                                              *          20180613 IMCT                IMCT                                                                                                                    WMF1806135.TXT
MDEDJ6269308201806                D89828070200PV1D20180619000030SPEAKER ASM                   M IMCTM S5MA14 TNTH  09020IMCT  S5 PTB  00005                    0830 SR        000000000000 DENSO TEN (THAILAND)18099UL0077077                                                                                                                              *          20180613 IMCT                IMCT                                                                                                                    WMF1806135.TXT
MDEDJ6269309201806                D89828070200PV1D20180619000060SPEAKER ASM                   M IMCTM S5MA14 TNTH  09020IMCT  S5 PTB  00005                    1030 SR        000000000000 DENSO TEN (THAILAND)18099XL0005006                                                                                                                              *          20180613 IMCT                IMCT                                                                                                                    WMF1806135.TXT
MDEDJ6269310201806                D89828070200PV1D20180619000060SPEAKER ASM                   M IMCTM S5MA14 TNTH  09020IMCT  S5 PTB  00005                    1300 SR        000000000000 DENSO TEN (THAILAND)18008YL0013014                                                                                                                              *          20180613 IMCT                IMCT                                                                                                                    WMF1806135.TXT
MDEDJ6269311201806                D89828070200PV4D20180619000030SPEAKER ASM                   M IMCTM S0FR05 TNTH  09020IMCT  S0 PTB  00005                    1300 SR        000000000000 DENSO TEN (THAILAND)18098UU0014014                                                                                                                              *          20180613 IMCT                IMCT                                                                                                                    WMF1806135.TXT
MDEDJ6269312201806                D89828070200PV4D20180619000030SPEAKER ASM                   M IMCTM S0FR05 TNTH  09020IMCT  S0 PTB  00005                    2230 SR        000000000000 DENSO TEN (THAILAND)18099UU0011011                                                                                                                              *          20180613 IMCT                IMCT                                                                                                                    WMF1806135.TXT
MDEDJ6269313201806                D89828070300PT1D20180618000090SPEAKER ASM                   M IMCTM S5NB082TNTH  09020IMCT  S5 PTB  00015                    2230 SR        000000000000 DENSO TEN (THAILAND)18063UL002102218083XL0001001                                                                                                                *          20180613 IMCT                IMCT                                                                                                                    WMF1806135.TXT
MDEDJ6269314201806                D89828070300PT1D20180619000030SPEAKER ASM                   M IMCTM S5NB082TNTH  09020IMCT  S5 PTB  00015                    0230 SR        000000000000 DENSO TEN (THAILAND)18083XL0002002                                                                                                                              *          20180613 IMCT                IMCT                                                                                                                    WMF1806135.TXT
MDEDJ6269315201806                D89828070300PT1D20180619000030SPEAKER ASM                   M IMCTM S5NB082TNTH  09020IMCT  S5 PTB  00015                    0400 SR        000000000000 DENSO TEN (THAILAND)18099UL0076076                                                                                                                              *          20180613 IMCT                IMCT                                                                                                                    WMF1806135.TXT
MDEDJ6269316201806                D89828070300PT1D20180619000030SPEAKER ASM                   M IMCTM S5NB082TNTH  09020IMCT  S5 PTB  00015                    0830 SR        000000000000 DENSO TEN (THAILAND)18099UL0077077                                                                                                                              *          20180613 IMCT                IMCT                                                                                                                    WMF1806135.TXT
MDEDJ6269317201806                D89828070300PT1D20180619000060SPEAKER ASM                   M IMCTM S5NB082TNTH  09020IMCT  S5 PTB  00015                    1030 SR        000000000000 DENSO TEN (THAILAND)18099XL0005006                                                                                                                              *          20180613 IMCT                IMCT                                                                                                                    WMF1806135.TXT
MDEDJ6269318201806                D89828070300PT1D20180619000060SPEAKER ASM                   M IMCTM S5NB082TNTH  09020IMCT  S5 PTB  00015                    1300 SR        000000000000 DENSO TEN (THAILAND)18008YL0013014                                                                                                                              *          20180613 IMCT                IMCT                                                                                                                    WMF1806135.TXT
MDEDJ6269319201806                D89828070300PT4D20180619000030SPEAKER ASM                   M IMCTM S9TS02 TNTH  09020IMCT  S9 PTB  00015                    1300 SR        000000000000 DENSO TEN (THAILAND)18098UU0014014                                                                                                                              *          20180613 IMCT                IMCT                                                                                                                    WMF1806135.TXT
MDEDJ6269320201806                D89828070300PT4D20180619000030SPEAKER ASM                   M IMCTM S9TS02 TNTH  09020IMCT  S9 PTB  00015                    2230 SR        000000000000 DENSO TEN (THAILAND)18099UU0011011                                                                                                                              *          20180613 IMCT                IMCT                                                                                                                    WMF1806135.TXT
MDEDJ6269321201806                D89831228800PT1D20180618000015RADIO;AM/FM,CD                M IMCTM S5NC06 TNTH  09020IMCT  S5 PTB  00003                    2230 SR        000000000000 DENSO TEN (THAILAND)18083XL0001001                                                                                                                              *          20180613 IMCT                IMCT                                                                                                                    WMF1806135.TXT
MDEDJ6269322201806                D89831228800PT1D20180619000015RADIO;AM/FM,CD                M IMCTM S5NC06 TNTH  09020IMCT  S5 PTB  00003                    0230 SR        000000000000 DENSO TEN (THAILAND)18083XL0002002                                                                                                                              *          20180613 IMCT                IMCT                                                                                                                    WMF1806135.TXT
MDEDJ6269323201806                D89848581800PT1D20180618000030RADIO;AM/FM CD D              M IMCTM S5NC06 TNTH  09020IMCT  S5 PTB  00003                    2230 SR        000000000000 DENSO TEN (THAILAND)18063UL0021022                                                                                                                              *          20180613 IMCT                IMCT                                                                                                                    WMF1806135.TXT
MDEDJ6269324201806                D89848581800PT4D20180619000015RADIO;AM/FM CD D              M IMCTM S9CO001TNTH  09020IMCT  S9 PTB  00003                    1300 SR        000000000000 DENSO TEN (THAILAND)18098UU0014014                                                                                                                              *          20180613 IMCT                IMCT                                                                                                                    WMF1806135.TXT
MDEUJ6244381201806                D89828070100PT4U20180618000030SPEAKER ASM                   M IMCTM S0FL05 TNTH  09020IMCT  S0 PTB  00004                    2230 SR        000000000000 DENSO TEN (THAILAND)18020UU0074074                                                                                                                              *          20180613 IMCT                IMCT                                                                                                                    WMF1806135.TXT
MDEUJ6244382201806                D89828070100PT4U20180619000030SPEAKER ASM                   M IMCTM S0FL05 TNTH  09020IMCT  S0 PTB  00004                    0230 SR        000000000000 DENSO TEN (THAILAND)18025UU0085085                                                                                                                              *          20180613 IMCT                IMCT                                                                                                                    WMF1806135.TXT
MDEUJ6244383201806                D89828070100PT4U20180619000030SPEAKER ASM                   M IMCTM S0FL05 TNTH  09020IMCT  S0 PTB  00004                    0830 SR        000000000000 DENSO TEN (THAILAND)18025UU0086086                                                                                                                              *          20180613 IMCT                IMCT                                                                                                                    WMF1806135.TXT
MDEUJ6244384201806                D89828070100PT4U20180619000030SPEAKER ASM                   M IMCTM S0FL05 TNTH  09020IMCT  S0 PTB  00004                    1300 SR        000000000000 DENSO TEN (THAILAND)18021UU0110110                                                                                                                              *          20180613 IMCT                IMCT                                                                                                                    WMF1806135.TXT
MDEUJ6244385201806                D89828070100PT4U20180619000060SPEAKER ASM                   M IMCTM S0FL05 TNTH  09020IMCT  S0 PTB  00004                    1600 SR        000000000000 DENSO TEN (THAILAND)18020UU007507518025UU0087087                                                                                                                *          20180613 IMCT                IMCT                                                                                                                    WMF1806135.TXT
MDEUJ6244386201806                D89828070100PT4U20180619000030SPEAKER ASM                   M IMCTM S0FL05 TNTH  09020IMCT  S0 PTB  00004                    2100 SR        000000000000 DENSO TEN (THAILAND)18031UU0001001                                                                                                                              *          20180613 IMCT                IMCT                                                                                                                    WMF1806135.TXT
MDEUJ6244387201806                D89828070200PV4U20180618000030SPEAKER ASM                   M IMCTM S0FR05 TNTH  09020IMCT  S0 PTB  00005                    2230 SR        000000000000 DENSO TEN (THAILAND)18020UU0074074                                                                                                                              *          20180613 IMCT                IMCT                                                                                                                    WMF1806135.TXT
MDEUJ6244388201806                D89828070200PV4U20180619000030SPEAKER ASM                   M IMCTM S0FR05 TNTH  09020IMCT  S0 PTB  00005                    0230 SR        000000000000 DENSO TEN (THAILAND)18025UU0085085                                                                                                                              *          20180613 IMCT                IMCT                                                                                                                    WMF1806135.TXT
MDEUJ6244389201806                D89828070200PV4U20180619000030SPEAKER ASM                   M IMCTM S0FR05 TNTH  09020IMCT  S0 PTB  00005                    0830 SR        000000000000 DENSO TEN (THAILAND)18025UU0086086                                                                                                                              *          20180613 IMCT                IMCT                                                                                                                    WMF1806135.TXT
MDEUJ6244390201806                D89828070200PV4U20180619000030SPEAKER ASM                   M IMCTM S0FR05 TNTH  09020IMCT  S0 PTB  00005                    1300 SR        000000000000 DENSO TEN (THAILAND)18021UU0110110                                                                                                                              *          20180613 IMCT                IMCT                                                                                                                    WMF1806135.TXT
MDEUJ6244391201806                D89828070200PV4U20180619000060SPEAKER ASM                   M IMCTM S0FR05 TNTH  09020IMCT  S0 PTB  00005                    1600 SR        000000000000 DENSO TEN (THAILAND)18020UU007507518025UU0087087                                                                                                                *          20180613 IMCT                IMCT                                                                                                                    WMF1806135.TXT
MDEUJ6244392201806                D89828070200PV4U20180619000030SPEAKER ASM                   M IMCTM S0FR05 TNTH  09020IMCT  S0 PTB  00005                    2100 SR        000000000000 DENSO TEN (THAILAND)18031UU0001001                                                                                                                              *          20180613 IMCT                IMCT                                                                                                                    WMF1806135.TXT
MDEUJ6244393201806                D89828070300PT4U20180618000030SPEAKER ASM                   M IMCTM S9TS02 TNTH  09020IMCT  S9 PTB  00015                    2230 SR        000000000000 DENSO TEN (THAILAND)18020UU0074074                                                                                                                              *          20180613 IMCT                IMCT                                                                                                                    WMF1806135.TXT
MDEUJ6244394201806                D89828070300PT4U20180619000030SPEAKER ASM                   M IMCTM S9TS02 TNTH  09020IMCT  S9 PTB  00015                    0230 SR        000000000000 DENSO TEN (THAILAND)18025UU0085085                                                                                                                              *          20180613 IMCT                IMCT                                                                                                                    WMF1806135.TXT
MDEUJ6244395201806                D89828070300PT4U20180619000030SPEAKER ASM                   M IMCTM S9TS02 TNTH  09020IMCT  S9 PTB  00015                    0830 SR        000000000000 DENSO TEN (THAILAND)18025UU0086086                                                                                                                              *          20180613 IMCT                IMCT                                                                                                                    WMF1806135.TXT
MDEUJ6244396201806                D89828070300PT4U20180619000030SPEAKER ASM                   M IMCTM S9TS02 TNTH  09020IMCT  S9 PTB  00015                    1300 SR        000000000000 DENSO TEN (THAILAND)18021UU0110110                                                                                                                              *          20180613 IMCT                IMCT                                                                                                                    WMF1806135.TXT
MDEUJ6244397201806                D89828070300PT4U20180619000060SPEAKER ASM                   M IMCTM S9TS02 TNTH  09020IMCT  S9 PTB  00015                    1600 SR        000000000000 DENSO TEN (THAILAND)18020UU007507518025UU0087087                                                                                                                *          20180613 IMCT                IMCT                                                                                                                    WMF1806135.TXT
MDEUJ6244398201806                D89828070300PT4U20180619000030SPEAKER ASM                   M IMCTM S9TS02 TNTH  09020IMCT  S9 PTB  00015                    2100 SR        000000000000 DENSO TEN (THAILAND)18031UU0001001                                                                                                                              *          20180613 IMCT                IMCT                                                                                                                    WMF1806135.TXT
