REC2018060820180608ISUZU                              70     
MDDDJ6238381201806                D89821984430PT1D20180613000030RADIO;AM/FM,CD                M IMCTM S5NC06 TNTH  09020IMCT  S5 PTB  00005                    0230 SR        000000000000 DENSO TEN (THAILAND)180LPAL0160160                                                                                                                              *          20180608 IMCT                IMCT                                                                                                                    WMF1806085.TXT
MDDDJ6238382201806                D89821984430PT1D20180613000030RADIO;AM/FM,CD                M IMCTM S5NC06 TNTH  09020IMCT  S5 PTB  00005                    0400 SR        000000000000 DENSO TEN (THAILAND)180LRAL0182182                                                                                                                              *          20180608 IMCT                IMCT                                                                                                                    WMF1806085.TXT
MDDDJ6238383201806                D89821984430PT1D20180613000030RADIO;AM/FM,CD                M IMCTM S5NC06 TNTH  09020IMCT  S5 PTB  00005                    1030 SR        000000000000 DENSO TEN (THAILAND)180LRBL0044044                                                                                                                              *          20180608 IMCT                IMCT                                                                                                                    WMF1806085.TXT
MDDDJ6238384201806                D89821984430PT1D20180613000030RADIO;AM/FM,CD                M IMCTM S5NC06 TNTH  09020IMCT  S5 PTB  00005                    2100 SR        000000000000 DENSO TEN (THAILAND)180LRAL0183183                                                                                                                              *          20180608 IMCT                IMCT                                                                                                                    WMF1806085.TXT
MDDDJ6238385201806                D89828070100PV1D20180613000060SPEAKER ASM                   M IMCTM S5MB11 TNTH  09020IMCT  S5 PTB  00004                    0230 SR        000000000000 DENSO TEN (THAILAND)180LPAL0160160                                                                                                                              *          20180608 IMCT                IMCT                                                                                                                    WMF1806085.TXT
MDDDJ6238386201806                D89828070100PV1D20180613000060SPEAKER ASM                   M IMCTM S5MB11 TNTH  09020IMCT  S5 PTB  00004                    0400 SR        000000000000 DENSO TEN (THAILAND)180LRAL0182182                                                                                                                              *          20180608 IMCT                IMCT                                                                                                                    WMF1806085.TXT
MDDDJ6238387201806                D89828070100PV1D20180613000060SPEAKER ASM                   M IMCTM S5MB11 TNTH  09020IMCT  S5 PTB  00004                    0830 SR        000000000000 DENSO TEN (THAILAND)180LPCL0062062                                                                                                                              *          20180608 IMCT                IMCT                                                                                                                    WMF1806085.TXT
MDDDJ6238388201806                D89828070100PV1D20180613000060SPEAKER ASM                   M IMCTM S5MB11 TNTH  09020IMCT  S5 PTB  00004                    1030 SR        000000000000 DENSO TEN (THAILAND)180LRBL0044044                                                                                                                              *          20180608 IMCT                IMCT                                                                                                                    WMF1806085.TXT
MDDDJ6238389201806                D89828070100PV1D20180613000060SPEAKER ASM                   M IMCTM S5MB11 TNTH  09020IMCT  S5 PTB  00004                    1300 SR        000000000000 DENSO TEN (THAILAND)180LPJL0024024                                                                                                                              *          20180608 IMCT                IMCT                                                                                                                    WMF1806085.TXT
MDDDJ6238390201806                D89828070100PV1D20180613000120SPEAKER ASM                   M IMCTM S5MB11 TNTH  09020IMCT  S5 PTB  00004                    1600 SR        000000000000 DENSO TEN (THAILAND)180LPFL0054054180LPGL0245245                                                                                                                *          20180608 IMCT                IMCT                                                                                                                    WMF1806085.TXT
MDDDJ6238391201806                D89828070100PV1D20180613000060SPEAKER ASM                   M IMCTM S5MB11 TNTH  09020IMCT  S5 PTB  00004                    2100 SR        000000000000 DENSO TEN (THAILAND)180LRAL0183183                                                                                                                              *          20180608 IMCT                IMCT                                                                                                                    WMF1806085.TXT
MDDDJ6238392201806                D89828070300PT1D20180613000060SPEAKER ASM                   M IMCTM S5NB082TNTH  09020IMCT  S5 PTB  00015                    0830 SR        000000000000 DENSO TEN (THAILAND)180LPCL0062062                                                                                                                              *          20180608 IMCT                IMCT                                                                                                                    WMF1806085.TXT
MDDDJ6238393201806                D89828070300PT1D20180613000060SPEAKER ASM                   M IMCTM S5NB082TNTH  09020IMCT  S5 PTB  00015                    1300 SR        000000000000 DENSO TEN (THAILAND)180LPJL0024024                                                                                                                              *          20180608 IMCT                IMCT                                                                                                                    WMF1806085.TXT
MDDDJ6238394201806                D89828070300PT1D20180613000120SPEAKER ASM                   M IMCTM S5NB082TNTH  09020IMCT  S5 PTB  00015                    1600 SR        000000000000 DENSO TEN (THAILAND)180LPFL0054054180LPGL0245245                                                                                                                *          20180608 IMCT                IMCT                                                                                                                    WMF1806085.TXT
MDDDJ6238395201806                D89831228300PT1D20180613000030RADIO;AM/FM,CD                M IMCTM S5NC06 TNTH  09020IMCT  S5 CPB  00003                    0830 SR        000000000000 DENSO TEN (THAILAND)180LPCL0062062                                                                                                                              *          20180608 IMCT                IMCT                                                                                                                    WMF1806085.TXT
MDDDJ6238396201806                D89831228300PT1D20180613000030RADIO;AM/FM,CD                M IMCTM S5NC06 TNTH  09020IMCT  S5 CPB  00003                    1300 SR        000000000000 DENSO TEN (THAILAND)180LPJL0024024                                                                                                                              *          20180608 IMCT                IMCT                                                                                                                    WMF1806085.TXT
MDDDJ6238397201806                D89831228300PT1D20180613000060RADIO;AM/FM,CD                M IMCTM S5NC06 TNTH  09020IMCT  S5 CPB  00003                    1600 SR        000000000000 DENSO TEN (THAILAND)180LPFL0054054180LPGL0245245                                                                                                                *          20180608 IMCT                IMCT                                                                                                                    WMF1806085.TXT
MDDUJ6218231201806                D89828070100PT4U20180612000030SPEAKER ASM                   M IMCTM S0FL05 TNTH  09020IMCT  S0 PTB  00004                    2230 SR        000000000000 DENSO TEN (THAILAND)180LURU0065065                                                                                                                              *          20180608 IMCT                IMCT                                                                                                                    WMF1806085.TXT
MDDUJ6218232201806                D89828070100PT4U20180613000030SPEAKER ASM                   M IMCTM S0FL05 TNTH  09020IMCT  S0 PTB  00004                    0830 SR        000000000000 DENSO TEN (THAILAND)180LUSU0094094                                                                                                                              *          20180608 IMCT                IMCT                                                                                                                    WMF1806085.TXT
MDDUJ6218233201806                D89828070100PT4U20180613000030SPEAKER ASM                   M IMCTM S0FL05 TNTH  09020IMCT  S0 PTB  00004                    1300 SR        000000000000 DENSO TEN (THAILAND)180LUTU0056056                                                                                                                              *          20180608 IMCT                IMCT                                                                                                                    WMF1806085.TXT
MDDUJ6218234201806                D89828070100PT4U20180613000030SPEAKER ASM                   M IMCTM S0FL05 TNTH  09020IMCT  S0 PTB  00004                    1600 SR        000000000000 DENSO TEN (THAILAND)180LURU0066066                                                                                                                              *          20180608 IMCT                IMCT                                                                                                                    WMF1806085.TXT
MDDUJ6218235201806                D89828070200PV4U20180612000030SPEAKER ASM                   M IMCTM S0FR05 TNTH  09020IMCT  S0 PTB  00005                    2230 SR        000000000000 DENSO TEN (THAILAND)180LURU0065065                                                                                                                              *          20180608 IMCT                IMCT                                                                                                                    WMF1806085.TXT
MDDUJ6218236201806                D89828070200PV4U20180613000030SPEAKER ASM                   M IMCTM S0FR05 TNTH  09020IMCT  S0 PTB  00005                    0830 SR        000000000000 DENSO TEN (THAILAND)180LUSU0094094                                                                                                                              *          20180608 IMCT                IMCT                                                                                                                    WMF1806085.TXT
MDDUJ6218237201806                D89828070200PV4U20180613000030SPEAKER ASM                   M IMCTM S0FR05 TNTH  09020IMCT  S0 PTB  00005                    1300 SR        000000000000 DENSO TEN (THAILAND)180LUTU0056056                                                                                                                              *          20180608 IMCT                IMCT                                                                                                                    WMF1806085.TXT
MDDUJ6218238201806                D89828070200PV4U20180613000030SPEAKER ASM                   M IMCTM S0FR05 TNTH  09020IMCT  S0 PTB  00005                    1600 SR        000000000000 DENSO TEN (THAILAND)180LURU0066066                                                                                                                              *          20180608 IMCT                IMCT                                                                                                                    WMF1806085.TXT
MDDUJ6218239201806                D89828070300PT4U20180612000030SPEAKER ASM                   M IMCTM S9TS02 TNTH  09020IMCT  S9 PTB  00015                    2230 SR        000000000000 DENSO TEN (THAILAND)180LURU0065065                                                                                                                              *          20180608 IMCT                IMCT                                                                                                                    WMF1806085.TXT
MDDUJ6218240201806                D89828070300PT4U20180613000030SPEAKER ASM                   M IMCTM S9TS02 TNTH  09020IMCT  S9 PTB  00015                    0830 SR        000000000000 DENSO TEN (THAILAND)180LUSU0094094                                                                                                                              *          20180608 IMCT                IMCT                                                                                                                    WMF1806085.TXT
MDDUJ6218241201806                D89828070300PT4U20180613000030SPEAKER ASM                   M IMCTM S9TS02 TNTH  09020IMCT  S9 PTB  00015                    1300 SR        000000000000 DENSO TEN (THAILAND)180LUTU0056056                                                                                                                              *          20180608 IMCT                IMCT                                                                                                                    WMF1806085.TXT
MDDUJ6218242201806                D89828070300PT4U20180613000030SPEAKER ASM                   M IMCTM S9TS02 TNTH  09020IMCT  S9 PTB  00015                    1600 SR        000000000000 DENSO TEN (THAILAND)180LURU0066066                                                                                                                              *          20180608 IMCT                IMCT                                                                                                                    WMF1806085.TXT
MDEDJ6243165201806                D89828070100PV1D20180612000060SPEAKER ASM                   M IMCTM S5MB11 TNTH  09020IMCT  S5 PTB  00004                    2230 SR        000000000000 DENSO TEN (THAILAND)18007ZL0102103                                                                                                                              *          20180608 IMCT                IMCT                                                                                                                    WMF1806085.TXT
MDEDJ6243166201806                D89828070100PV1D20180613000030SPEAKER ASM                   M IMCTM S5MB11 TNTH  09020IMCT  S5 PTB  00004                    0230 SR        000000000000 DENSO TEN (THAILAND)18063UL0020020                                                                                                                              *          20180608 IMCT                IMCT                                                                                                                    WMF1806085.TXT
MDEDJ6243167201806                D89828070100PV1D20180613000030SPEAKER ASM                   M IMCTM S5MB11 TNTH  09020IMCT  S5 PTB  00004                    0400 SR        000000000000 DENSO TEN (THAILAND)18064UL0015015                                                                                                                              *          20180608 IMCT                IMCT                                                                                                                    WMF1806085.TXT
MDEDJ6243168201806                D89828070100PV1D20180613000060SPEAKER ASM                   M IMCTM S5MB11 TNTH  09020IMCT  S5 PTB  00004                    0830 SR        000000000000 DENSO TEN (THAILAND)18071UL0012013                                                                                                                              *          20180608 IMCT                IMCT                                                                                                                    WMF1806085.TXT
MDEDJ6243169201806                D89828070100PV1D20180613000030SPEAKER ASM                   M IMCTM S5MB11 TNTH  09020IMCT  S5 PTB  00004                    1300 SR        000000000000 DENSO TEN (THAILAND)18070UL0006006                                                                                                                              *          20180608 IMCT                IMCT                                                                                                                    WMF1806085.TXT
MDEDJ6243170201806                D89828070100PV1D20180613000060SPEAKER ASM                   M IMCTM S5MB11 TNTH  09020IMCT  S5 PTB  00004                    1600 SR        000000000000 DENSO TEN (THAILAND)18070UL000700718072UL0013013                                                                                                                *          20180608 IMCT                IMCT                                                                                                                    WMF1806085.TXT
MDEDJ6243171201806                D89828070100PV1D20180613000030SPEAKER ASM                   M IMCTM S5MB11 TNTH  09020IMCT  S5 PTB  00004                    2100 SR        000000000000 DENSO TEN (THAILAND)18072UL0014014                                                                                                                              *          20180608 IMCT                IMCT                                                                                                                    WMF1806085.TXT
MDEDJ6243172201806                D89828070100PV4D20180613000030SPEAKER ASM                   M IMCTM S0FL05 TNTH  09020IMCT  S0 PTB  00004                    0400 SR        000000000000 DENSO TEN (THAILAND)18099UU0010010                                                                                                                              *          20180608 IMCT                IMCT                                                                                                                    WMF1806085.TXT
MDEDJ6243173201806                D89828070100PV4D20180613000030SPEAKER ASM                   M IMCTM S0FL05 TNTH  09020IMCT  S0 PTB  00004                    1300 SR        000000000000 DENSO TEN (THAILAND)18010ZU0029029                                                                                                                              *          20180608 IMCT                IMCT                                                                                                                    WMF1806085.TXT
MDEDJ6243174201806                D89828070100PV4D20180613000030SPEAKER ASM                   M IMCTM S0FL05 TNTH  09020IMCT  S0 PTB  00004                    2230 SR        000000000000 DENSO TEN (THAILAND)18010ZU0030030                                                                                                                              *          20180608 IMCT                IMCT                                                                                                                    WMF1806085.TXT
MDEDJ6243175201806                D89828070200PV4D20180613000030SPEAKER ASM                   M IMCTM S0FR05 TNTH  09020IMCT  S0 PTB  00005                    0400 SR        000000000000 DENSO TEN (THAILAND)18099UU0010010                                                                                                                              *          20180608 IMCT                IMCT                                                                                                                    WMF1806085.TXT
MDEDJ6243176201806                D89828070300PT1D20180613000030SPEAKER ASM                   M IMCTM S5NB082TNTH  09020IMCT  S5 PTB  00015                    0230 SR        000000000000 DENSO TEN (THAILAND)18063UL0020020                                                                                                                              *          20180608 IMCT                IMCT                                                                                                                    WMF1806085.TXT
MDEDJ6243177201806                D89828070300PT1D20180613000030SPEAKER ASM                   M IMCTM S5NB082TNTH  09020IMCT  S5 PTB  00015                    0400 SR        000000000000 DENSO TEN (THAILAND)18064UL0015015                                                                                                                              *          20180608 IMCT                IMCT                                                                                                                    WMF1806085.TXT
MDEDJ6243178201806                D89828070300PT1D20180613000060SPEAKER ASM                   M IMCTM S5NB082TNTH  09020IMCT  S5 PTB  00015                    0830 SR        000000000000 DENSO TEN (THAILAND)18071UL0012013                                                                                                                              *          20180608 IMCT                IMCT                                                                                                                    WMF1806085.TXT
MDEDJ6243179201806                D89828070300PT1D20180613000030SPEAKER ASM                   M IMCTM S5NB082TNTH  09020IMCT  S5 PTB  00015                    1300 SR        000000000000 DENSO TEN (THAILAND)18070UL0006006                                                                                                                              *          20180608 IMCT                IMCT                                                                                                                    WMF1806085.TXT
MDEDJ6243180201806                D89828070300PT1D20180613000060SPEAKER ASM                   M IMCTM S5NB082TNTH  09020IMCT  S5 PTB  00015                    1600 SR        000000000000 DENSO TEN (THAILAND)18070UL000700718072UL0013013                                                                                                                *          20180608 IMCT                IMCT                                                                                                                    WMF1806085.TXT
MDEDJ6243181201806                D89828070300PT1D20180613000030SPEAKER ASM                   M IMCTM S5NB082TNTH  09020IMCT  S5 PTB  00015                    2100 SR        000000000000 DENSO TEN (THAILAND)18072UL0014014                                                                                                                              *          20180608 IMCT                IMCT                                                                                                                    WMF1806085.TXT
MDEDJ6243182201806                D89828070300PT4D20180613000030SPEAKER ASM                   M IMCTM S9TS02 TNTH  09020IMCT  S9 PTB  00015                    0400 SR        000000000000 DENSO TEN (THAILAND)18099UU0010010                                                                                                                              *          20180608 IMCT                IMCT                                                                                                                    WMF1806085.TXT
MDEDJ6243183201806                D89831228600PT1D20180613000015RADIO;AM/FM,CD                M IMCTM S5NC06 TNTH  09020IMCT  S5 PTB  00003                    1300 SR        000000000000 DENSO TEN (THAILAND)18070UL0006006                                                                                                                              *          20180608 IMCT                IMCT                                                                                                                    WMF1806085.TXT
MDEDJ6243184201806                D89831228600PT1D20180613000015RADIO;AM/FM,CD                M IMCTM S5NC06 TNTH  09020IMCT  S5 PTB  00003                    1600 SR        000000000000 DENSO TEN (THAILAND)18070UL0007007                                                                                                                              *          20180608 IMCT                IMCT                                                                                                                    WMF1806085.TXT
MDEDJ6243185201806                D89848581800PT1D20180613000015RADIO;AM/FM CD D              M IMCTM S5NC06 TNTH  09020IMCT  S5 PTB  00003                    0230 SR        000000000000 DENSO TEN (THAILAND)18063UL0020020                                                                                                                              *          20180608 IMCT                IMCT                                                                                                                    WMF1806085.TXT
MDEDJ6243186201806                D89848581800PT1D20180613000030RADIO;AM/FM CD D              M IMCTM S5NC06 TNTH  09020IMCT  S5 PTB  00003                    0830 SR        000000000000 DENSO TEN (THAILAND)18071UL0012013                                                                                                                              *          20180608 IMCT                IMCT                                                                                                                    WMF1806085.TXT
MDEDJ6243187201806                D89848581800PT1D20180613000015RADIO;AM/FM CD D              M IMCTM S5NC06 TNTH  09020IMCT  S5 PTB  00003                    1600 SR        000000000000 DENSO TEN (THAILAND)18072UL0013013                                                                                                                              *          20180608 IMCT                IMCT                                                                                                                    WMF1806085.TXT
MDEDJ6243188201806                D89848581800PT1D20180613000015RADIO;AM/FM CD D              M IMCTM S5NC06 TNTH  09020IMCT  S5 PTB  00003                    2100 SR        000000000000 DENSO TEN (THAILAND)18072UL0014014                                                                                                                              *          20180608 IMCT                IMCT                                                                                                                    WMF1806085.TXT
MDEDJ6243189201806                D89848582500PT1D20180613000015RADIO;AM/FM CD D              M IMCTM S5NC06 TNTH  09020IMCT  S5 PTB  00003                    0400 SR        000000000000 DENSO TEN (THAILAND)18064UL0015015                                                                                                                              *          20180608 IMCT                IMCT                                                                                                                    WMF1806085.TXT
MDEUJ6228477201806                D89828070100PT4U20180613000030SPEAKER ASM                   M IMCTM S0FL05 TNTH  09020IMCT  S0 PTB  00004                    0230 SR        000000000000 DENSO TEN (THAILAND)18019UU0018018                                                                                                                              *          20180608 IMCT                IMCT                                                                                                                    WMF1806085.TXT
MDEUJ6228478201806                D89828070100PT4U20180613000030SPEAKER ASM                   M IMCTM S0FL05 TNTH  09020IMCT  S0 PTB  00004                    0400 SR        000000000000 DENSO TEN (THAILAND)18015UU0030030                                                                                                                              *          20180608 IMCT                IMCT                                                                                                                    WMF1806085.TXT
MDEUJ6228479201806                D89828070100PT4U20180613000030SPEAKER ASM                   M IMCTM S0FL05 TNTH  09020IMCT  S0 PTB  00004                    1030 SR        000000000000 DENSO TEN (THAILAND)18016UU0028028                                                                                                                              *          20180608 IMCT                IMCT                                                                                                                    WMF1806085.TXT
MDEUJ6228480201806                D89828070100PT4U20180613000060SPEAKER ASM                   M IMCTM S0FL05 TNTH  09020IMCT  S0 PTB  00004                    1600 SR        000000000000 DENSO TEN (THAILAND)18021UU010510518025UU0080080                                                                                                                *          20180608 IMCT                IMCT                                                                                                                    WMF1806085.TXT
MDEUJ6228481201806                D89828070100PT4U20180613000030SPEAKER ASM                   M IMCTM S0FL05 TNTH  09020IMCT  S0 PTB  00004                    2100 SR        000000000000 DENSO TEN (THAILAND)18020UU0071071                                                                                                                              *          20180608 IMCT                IMCT                                                                                                                    WMF1806085.TXT
MDEUJ6228482201806                D89828070200PV4U20180613000030SPEAKER ASM                   M IMCTM S0FR05 TNTH  09020IMCT  S0 PTB  00005                    0230 SR        000000000000 DENSO TEN (THAILAND)18019UU0018018                                                                                                                              *          20180608 IMCT                IMCT                                                                                                                    WMF1806085.TXT
MDEUJ6228483201806                D89828070200PV4U20180613000030SPEAKER ASM                   M IMCTM S0FR05 TNTH  09020IMCT  S0 PTB  00005                    0400 SR        000000000000 DENSO TEN (THAILAND)18015UU0030030                                                                                                                              *          20180608 IMCT                IMCT                                                                                                                    WMF1806085.TXT
MDEUJ6228484201806                D89828070200PV4U20180613000030SPEAKER ASM                   M IMCTM S0FR05 TNTH  09020IMCT  S0 PTB  00005                    1030 SR        000000000000 DENSO TEN (THAILAND)18016UU0028028                                                                                                                              *          20180608 IMCT                IMCT                                                                                                                    WMF1806085.TXT
MDEUJ6228485201806                D89828070200PV4U20180613000060SPEAKER ASM                   M IMCTM S0FR05 TNTH  09020IMCT  S0 PTB  00005                    1600 SR        000000000000 DENSO TEN (THAILAND)18021UU010510518025UU0080080                                                                                                                *          20180608 IMCT                IMCT                                                                                                                    WMF1806085.TXT
MDEUJ6228486201806                D89828070200PV4U20180613000030SPEAKER ASM                   M IMCTM S0FR05 TNTH  09020IMCT  S0 PTB  00005                    2100 SR        000000000000 DENSO TEN (THAILAND)18020UU0071071                                                                                                                              *          20180608 IMCT                IMCT                                                                                                                    WMF1806085.TXT
MDEUJ6228487201806                D89828070300PT4U20180613000030SPEAKER ASM                   M IMCTM S9TS02 TNTH  09020IMCT  S9 PTB  00015                    0230 SR        000000000000 DENSO TEN (THAILAND)18019UU0018018                                                                                                                              *          20180608 IMCT                IMCT                                                                                                                    WMF1806085.TXT
MDEUJ6228488201806                D89828070300PT4U20180613000030SPEAKER ASM                   M IMCTM S9TS02 TNTH  09020IMCT  S9 PTB  00015                    0400 SR        000000000000 DENSO TEN (THAILAND)18015UU0030030                                                                                                                              *          20180608 IMCT                IMCT                                                                                                                    WMF1806085.TXT
MDEUJ6228489201806                D89828070300PT4U20180613000030SPEAKER ASM                   M IMCTM S9TS02 TNTH  09020IMCT  S9 PTB  00015                    1030 SR        000000000000 DENSO TEN (THAILAND)18016UU0028028                                                                                                                              *          20180608 IMCT                IMCT                                                                                                                    WMF1806085.TXT
MDEUJ6228490201806                D89828070300PT4U20180613000060SPEAKER ASM                   M IMCTM S9TS02 TNTH  09020IMCT  S9 PTB  00015                    1600 SR        000000000000 DENSO TEN (THAILAND)18021UU010510518025UU0080080                                                                                                                *          20180608 IMCT                IMCT                                                                                                                    WMF1806085.TXT
MDEUJ6228491201806                D89828070300PT4U20180613000030SPEAKER ASM                   M IMCTM S9TS02 TNTH  09020IMCT  S9 PTB  00015                    2100 SR        000000000000 DENSO TEN (THAILAND)18020UU0071071                                                                                                                              *          20180608 IMCT                IMCT                                                                                                                    WMF1806085.TXT
MDEUJ6228492201806                D89848584700PT4U20180613000015RADIO;AM/FM CD D              M IMCTM S9CO001TNTH  09020IMCT  S9 PTB  00003                    0230 SR        000000000000 DENSO TEN (THAILAND)18019UU0018018                                                                                                                              *          20180608 IMCT                IMCT                                                                                                                    WMF1806085.TXT
