REC2018060120180601ISUZU                              69     
MDDDJ6204875201806                D89821984430PT1D20180606000030RADIO;AM/FM,CD                M IMCTM S5NC06 TNTH  07070IMCT  S5 PTB  00005                    0230 SR        000000000000 DENSO TEN (THAILAND)180LPAL0155155                                                                                                                              *          20180601 IMCT                IMCT                                                                                                                    WMF180601A.TXT
MDDDJ6204876201806                D89821984430PT1D20180606000060RADIO;AM/FM,CD                M IMCTM S5NC06 TNTH  07070IMCT  S5 PTB  00005                    1300 SR        000000000000 DENSO TEN (THAILAND)180LPAL0156156180LXEL0047047                                                                                                                *          20180601 IMCT                IMCT                                                                                                                    WMF180601A.TXT
MDDDJ6204877201806                D89821984430PT1D20180606000030RADIO;AM/FM,CD                M IMCTM S5NC06 TNTH  07070IMCT  S5 PTB  00005                    1600 SR        000000000000 DENSO TEN (THAILAND)180LXEL0048048                                                                                                                              *          20180601 IMCT                IMCT                                                                                                                    WMF180601A.TXT
MDDDJ6204878201806                D89821984430PT1D20180606000030RADIO;AM/FM,CD                M IMCTM S5NC06 TNTH  07070IMCT  S5 PTB  00005                    2230 SR        000000000000 DENSO TEN (THAILAND)180LXCL0046046                                                                                                                              *          20180601 IMCT                IMCT                                                                                                                    WMF180601A.TXT
MDDDJ6204879201806                D89828070100PV1D20180606000060SPEAKER ASM                   M IMCTM S5MB11 TNTH  07070IMCT  S5 PTB  00004                    0230 SR        000000000000 DENSO TEN (THAILAND)180LPAL0155155                                                                                                                              *          20180601 IMCT                IMCT                                                                                                                    WMF180601A.TXT
MDDDJ6204880201806                D89828070100PV1D20180606000120SPEAKER ASM                   M IMCTM S5MB11 TNTH  07070IMCT  S5 PTB  00004                    0830 SR        000000000000 DENSO TEN (THAILAND)180LPGL0241241180LXBL0011011                                                                                                                *          20180601 IMCT                IMCT                                                                                                                    WMF180601A.TXT
MDDDJ6204881201806                D89828070100PV1D20180606000120SPEAKER ASM                   M IMCTM S5MB11 TNTH  07070IMCT  S5 PTB  00004                    1300 SR        000000000000 DENSO TEN (THAILAND)180LPAL0156156180LXEL0047047                                                                                                                *          20180601 IMCT                IMCT                                                                                                                    WMF180601A.TXT
MDDDJ6204882201806                D89828070100PV1D20180606000120SPEAKER ASM                   M IMCTM S5MB11 TNTH  07070IMCT  S5 PTB  00004                    1600 SR        000000000000 DENSO TEN (THAILAND)180LPNL0016016180LXEL0048048                                                                                                                *          20180601 IMCT                IMCT                                                                                                                    WMF180601A.TXT
MDDDJ6204883201806                D89828070100PV1D20180606000060SPEAKER ASM                   M IMCTM S5MB11 TNTH  07070IMCT  S5 PTB  00004                    2100 SR        000000000000 DENSO TEN (THAILAND)180LPCL0061061                                                                                                                              *          20180601 IMCT                IMCT                                                                                                                    WMF180601A.TXT
MDDDJ6204884201806                D89828070100PV1D20180606000060SPEAKER ASM                   M IMCTM S5MB11 TNTH  07070IMCT  S5 PTB  00004                    2230 SR        000000000000 DENSO TEN (THAILAND)180LXCL0046046                                                                                                                              *          20180601 IMCT                IMCT                                                                                                                    WMF180601A.TXT
MDDDJ6204885201806                D89828070300PT1D20180606000060SPEAKER ASM                   M IMCTM S5NB082TNTH  07070IMCT  S5 PTB  00015                    0830 SR        000000000000 DENSO TEN (THAILAND)180LPGL0241241                                                                                                                              *          20180601 IMCT                IMCT                                                                                                                    WMF180601A.TXT
MDDDJ6204886201806                D89828070300PT1D20180606000060SPEAKER ASM                   M IMCTM S5NB082TNTH  07070IMCT  S5 PTB  00015                    1600 SR        000000000000 DENSO TEN (THAILAND)180LPNL0016016                                                                                                                              *          20180601 IMCT                IMCT                                                                                                                    WMF180601A.TXT
MDDDJ6204887201806                D89828070300PT1D20180606000060SPEAKER ASM                   M IMCTM S5NB082TNTH  07070IMCT  S5 PTB  00015                    2100 SR        000000000000 DENSO TEN (THAILAND)180LPCL0061061                                                                                                                              *          20180601 IMCT                IMCT                                                                                                                    WMF180601A.TXT
MDDDJ6204888201806                D89831228300PT1D20180606000030RADIO;AM/FM,CD                M IMCTM S5NC06 TNTH  07070IMCT  S5 CPB  00003                    0830 SR        000000000000 DENSO TEN (THAILAND)180LPGL0241241                                                                                                                              *          20180601 IMCT                IMCT                                                                                                                    WMF180601A.TXT
MDDDJ6204889201806                D89831228300PT1D20180606000030RADIO;AM/FM,CD                M IMCTM S5NC06 TNTH  07070IMCT  S5 CPB  00003                    2100 SR        000000000000 DENSO TEN (THAILAND)180LPCL0061061                                                                                                                              *          20180601 IMCT                IMCT                                                                                                                    WMF180601A.TXT
MDDUJ6202274201806                D89828070100PT4U20180606000030SPEAKER ASM                   M IMCTM S0FL05 TNTH  07070IMCT  S0 PTB  00004                    0400 SR        000000000000 DENSO TEN (THAILAND)180LUTU0053053                                                                                                                              *          20180601 IMCT                IMCT                                                                                                                    WMF180601A.TXT
MDDUJ6202275201806                D89828070100PT4U20180606000030SPEAKER ASM                   M IMCTM S0FL05 TNTH  07070IMCT  S0 PTB  00004                    1300 SR        000000000000 DENSO TEN (THAILAND)180LUSU0085085                                                                                                                              *          20180601 IMCT                IMCT                                                                                                                    WMF180601A.TXT
MDDUJ6202276201806                D89828070100PT4U20180606000030SPEAKER ASM                   M IMCTM S0FL05 TNTH  07070IMCT  S0 PTB  00004                    1600 SR        000000000000 DENSO TEN (THAILAND)180LURU0061061                                                                                                                              *          20180601 IMCT                IMCT                                                                                                                    WMF180601A.TXT
MDDUJ6202277201806                D89828070100PT4U20180606000030SPEAKER ASM                   M IMCTM S0FL05 TNTH  07070IMCT  S0 PTB  00004                    2230 SR        000000000000 DENSO TEN (THAILAND)180LUPU0023023                                                                                                                              *          20180601 IMCT                IMCT                                                                                                                    WMF180601A.TXT
MDDUJ6202278201806                D89828070200PV4U20180606000030SPEAKER ASM                   M IMCTM S0FR05 TNTH  07070IMCT  S0 PTB  00005                    0400 SR        000000000000 DENSO TEN (THAILAND)180LUTU0053053                                                                                                                              *          20180601 IMCT                IMCT                                                                                                                    WMF180601A.TXT
MDDUJ6202279201806                D89828070200PV4U20180606000030SPEAKER ASM                   M IMCTM S0FR05 TNTH  07070IMCT  S0 PTB  00005                    1300 SR        000000000000 DENSO TEN (THAILAND)180LUSU0085085                                                                                                                              *          20180601 IMCT                IMCT                                                                                                                    WMF180601A.TXT
MDDUJ6202280201806                D89828070200PV4U20180606000030SPEAKER ASM                   M IMCTM S0FR05 TNTH  07070IMCT  S0 PTB  00005                    1600 SR        000000000000 DENSO TEN (THAILAND)180LURU0061061                                                                                                                              *          20180601 IMCT                IMCT                                                                                                                    WMF180601A.TXT
MDDUJ6202281201806                D89828070200PV4U20180606000030SPEAKER ASM                   M IMCTM S0FR05 TNTH  07070IMCT  S0 PTB  00005                    2230 SR        000000000000 DENSO TEN (THAILAND)180LUPU0023023                                                                                                                              *          20180601 IMCT                IMCT                                                                                                                    WMF180601A.TXT
MDDUJ6202282201806                D89828070300PT4U20180606000030SPEAKER ASM                   M IMCTM S9TS02 TNTH  07070IMCT  S9 PTB  00015                    0400 SR        000000000000 DENSO TEN (THAILAND)180LUTU0053053                                                                                                                              *          20180601 IMCT                IMCT                                                                                                                    WMF180601A.TXT
MDDUJ6202283201806                D89828070300PT4U20180606000030SPEAKER ASM                   M IMCTM S9TS02 TNTH  07070IMCT  S9 PTB  00015                    1300 SR        000000000000 DENSO TEN (THAILAND)180LUSU0085085                                                                                                                              *          20180601 IMCT                IMCT                                                                                                                    WMF180601A.TXT
MDDUJ6202284201806                D89828070300PT4U20180606000030SPEAKER ASM                   M IMCTM S9TS02 TNTH  07070IMCT  S9 PTB  00015                    1600 SR        000000000000 DENSO TEN (THAILAND)180LURU0061061                                                                                                                              *          20180601 IMCT                IMCT                                                                                                                    WMF180601A.TXT
MDDUJ6202285201806                D89828070300PT4U20180606000030SPEAKER ASM                   M IMCTM S9TS02 TNTH  07070IMCT  S9 PTB  00015                    2230 SR        000000000000 DENSO TEN (THAILAND)180LUPU0023023                                                                                                                              *          20180601 IMCT                IMCT                                                                                                                    WMF180601A.TXT
MDDUJ6202286201806                D89831228400PT4U20180606000015RADIO;AM/FM,CD                M IMCTM S9CO001TNTH  07070IMCT  S9 CPB  00003                    2230 SR        000000000000 DENSO TEN (THAILAND)180LUPU0023023                                                                                                                              *          20180601 IMCT                IMCT                                                                                                                    WMF180601A.TXT
MDEDJ6205337201806                D89828070100PV1D20180605000060SPEAKER ASM                   M IMCTM S5MB11 TNTH  07070IMCT  S5 PTB  00004                    2230 SR        000000000000 DENSO TEN (THAILAND)17033QL005305317050RL0033033                                                                                                                *          20180601 IMCT                IMCT                                                                                                                    WMF180601A.TXT
MDEDJ6205338201806                D89828070100PV1D20180606000030SPEAKER ASM                   M IMCTM S5MB11 TNTH  07070IMCT  S5 PTB  00004                    0230 SR        000000000000 DENSO TEN (THAILAND)17061PL0025025                                                                                                                              *          20180601 IMCT                IMCT                                                                                                                    WMF180601A.TXT
MDEDJ6205339201806                D89828070100PV1D20180606000090SPEAKER ASM                   M IMCTM S5MB11 TNTH  07070IMCT  S5 PTB  00004                    0400 SR        000000000000 DENSO TEN (THAILAND)18007ZL009109218063UL0017017                                                                                                                *          20180601 IMCT                IMCT                                                                                                                    WMF180601A.TXT
MDEDJ6205340201806                D89828070100PV1D20180606000030SPEAKER ASM                   M IMCTM S5MB11 TNTH  07070IMCT  S5 PTB  00004                    1030 SR        000000000000 DENSO TEN (THAILAND)18007ZL0093093                                                                                                                              *          20180601 IMCT                IMCT                                                                                                                    WMF180601A.TXT
MDEDJ6205341201806                D89828070100PV1D20180606000030SPEAKER ASM                   M IMCTM S5MB11 TNTH  07070IMCT  S5 PTB  00004                    1300 SR        000000000000 DENSO TEN (THAILAND)18007ZL0094094                                                                                                                              *          20180601 IMCT                IMCT                                                                                                                    WMF180601A.TXT
MDEDJ6205342201806                D89828070100PV1D20180606000060SPEAKER ASM                   M IMCTM S5MB11 TNTH  07070IMCT  S5 PTB  00004                    1600 SR        000000000000 DENSO TEN (THAILAND)18079UL0006007                                                                                                                              *          20180601 IMCT                IMCT                                                                                                                    WMF180601A.TXT
MDEDJ6205343201806                D89828070100PV4D20180605000030SPEAKER ASM                   M IMCTM S0FL05 TNTH  07070IMCT  S0 PTB  00004                    2230 SR        000000000000 DENSO TEN (THAILAND)17021QU0015015                                                                                                                              *          20180601 IMCT                IMCT                                                                                                                    WMF180601A.TXT
MDEDJ6205344201806                D89828070100PV4D20180606000030SPEAKER ASM                   M IMCTM S0FL05 TNTH  07070IMCT  S0 PTB  00004                    0830 SR        000000000000 DENSO TEN (THAILAND)18067UU0012012                                                                                                                              *          20180601 IMCT                IMCT                                                                                                                    WMF180601A.TXT
MDEDJ6205345201806                D89828070100PV4D20180606000030SPEAKER ASM                   M IMCTM S0FL05 TNTH  07070IMCT  S0 PTB  00004                    1300 SR        000000000000 DENSO TEN (THAILAND)18098UU0009009                                                                                                                              *          20180601 IMCT                IMCT                                                                                                                    WMF180601A.TXT
MDEDJ6205346201806                D89828070100PV4D20180606000030SPEAKER ASM                   M IMCTM S0FL05 TNTH  07070IMCT  S0 PTB  00004                    2100 SR        000000000000 DENSO TEN (THAILAND)18010ZU0027027                                                                                                                              *          20180601 IMCT                IMCT                                                                                                                    WMF180601A.TXT
MDEDJ6205347201806                D89828070200PV1D20180605000060SPEAKER ASM                   M IMCTM S5MA14 TNTH  07070IMCT  S5 PTB  00005                    2230 SR        000000000000 DENSO TEN (THAILAND)17033QL005305317050RL0033033                                                                                                                *          20180601 IMCT                IMCT                                                                                                                    WMF180601A.TXT
MDEDJ6205348201806                D89828070200PV1D20180606000060SPEAKER ASM                   M IMCTM S5MA14 TNTH  07070IMCT  S5 PTB  00005                    1600 SR        000000000000 DENSO TEN (THAILAND)18079UL0006007                                                                                                                              *          20180601 IMCT                IMCT                                                                                                                    WMF180601A.TXT
MDEDJ6205349201806                D89828070200PV4D20180606000030SPEAKER ASM                   M IMCTM S0FR05 TNTH  07070IMCT  S0 PTB  00005                    0830 SR        000000000000 DENSO TEN (THAILAND)18067UU0012012                                                                                                                              *          20180601 IMCT                IMCT                                                                                                                    WMF180601A.TXT
MDEDJ6205350201806                D89828070200PV4D20180606000030SPEAKER ASM                   M IMCTM S0FR05 TNTH  07070IMCT  S0 PTB  00005                    1300 SR        000000000000 DENSO TEN (THAILAND)18098UU0009009                                                                                                                              *          20180601 IMCT                IMCT                                                                                                                    WMF180601A.TXT
MDEDJ6205351201806                D89828070300PT1D20180605000060SPEAKER ASM                   M IMCTM S5NB082TNTH  07070IMCT  S5 PTB  00015                    2230 SR        000000000000 DENSO TEN (THAILAND)17033QL005305317050RL0033033                                                                                                                *          20180601 IMCT                IMCT                                                                                                                    WMF180601A.TXT
MDEDJ6205352201806                D89828070300PT1D20180606000030SPEAKER ASM                   M IMCTM S5NB082TNTH  07070IMCT  S5 PTB  00015                    0400 SR        000000000000 DENSO TEN (THAILAND)18063UL0017017                                                                                                                              *          20180601 IMCT                IMCT                                                                                                                    WMF180601A.TXT
MDEDJ6205353201806                D89828070300PT1D20180606000060SPEAKER ASM                   M IMCTM S5NB082TNTH  07070IMCT  S5 PTB  00015                    1600 SR        000000000000 DENSO TEN (THAILAND)18079UL0006007                                                                                                                              *          20180601 IMCT                IMCT                                                                                                                    WMF180601A.TXT
MDEDJ6205354201806                D89828070300PT4D20180606000030SPEAKER ASM                   M IMCTM S9TS02 TNTH  07070IMCT  S9 PTB  00015                    0830 SR        000000000000 DENSO TEN (THAILAND)18067UU0012012                                                                                                                              *          20180601 IMCT                IMCT                                                                                                                    WMF180601A.TXT
MDEDJ6205355201806                D89828070300PT4D20180606000030SPEAKER ASM                   M IMCTM S9TS02 TNTH  07070IMCT  S9 PTB  00015                    1300 SR        000000000000 DENSO TEN (THAILAND)18098UU0009009                                                                                                                              *          20180601 IMCT                IMCT                                                                                                                    WMF180601A.TXT
MDEDJ6205356201806                D89829645410PT1D20180605000015RADIO;ASM DVD                 M IMCTM S5NC06 TNTH  07070IMCT  S5 PTB  00003                    2230 SR        000000000000 DENSO TEN (THAILAND)17050RL0033033                                                                                                                              *          20180601 IMCT                IMCT                                                                                                                    WMF180601A.TXT
MDEDJ6205357201806                D89831229200PT1D20180605000015RADIO;AM/FM,CD                M IMCTM S5NC06 TNTH  07070IMCT  S5 PTB  00003                    2230 SR        000000000000 DENSO TEN (THAILAND)17033QL0053053                                                                                                                              *          20180601 IMCT                IMCT                                                                                                                    WMF180601A.TXT
MDEDJ6205358201806                D89848581800PT1D20180606000015RADIO;AM/FM CD D              M IMCTM S5NC06 TNTH  07070IMCT  S5 PTB  00003                    0400 SR        000000000000 DENSO TEN (THAILAND)18063UL0017017                                                                                                                              *          20180601 IMCT                IMCT                                                                                                                    WMF180601A.TXT
MDEDJ6205359201806                D89848581800PT1D20180606000030RADIO;AM/FM CD D              M IMCTM S5NC06 TNTH  07070IMCT  S5 PTB  00003                    1600 SR        000000000000 DENSO TEN (THAILAND)18079UL0006007                                                                                                                              *          20180601 IMCT                IMCT                                                                                                                    WMF180601A.TXT
MDEDJ6205360201806                D89848581800PT4D20180606000015RADIO;AM/FM CD D              M IMCTM S9CO001TNTH  07070IMCT  S9 PTB  00003                    1300 SR        000000000000 DENSO TEN (THAILAND)18098UU0009009                                                                                                                              *          20180601 IMCT                IMCT                                                                                                                    WMF180601A.TXT
MDEUJ6203129201806                D89828070100PT4U20180606000030SPEAKER ASM                   M IMCTM S0FL05 TNTH  07070IMCT  S0 PTB  00004                    0230 SR        000000000000 DENSO TEN (THAILAND)18049ZU0057057                                                                                                                              *          20180601 IMCT                IMCT                                                                                                                    WMF180601A.TXT
MDEUJ6203130201806                D89828070100PT4U20180606000030SPEAKER ASM                   M IMCTM S0FL05 TNTH  07070IMCT  S0 PTB  00004                    0400 SR        000000000000 DENSO TEN (THAILAND)18060UU0009009                                                                                                                              *          20180601 IMCT                IMCT                                                                                                                    WMF180601A.TXT
MDEUJ6203131201806                D89828070100PT4U20180606000030SPEAKER ASM                   M IMCTM S0FL05 TNTH  07070IMCT  S0 PTB  00004                    0830 SR        000000000000 DENSO TEN (THAILAND)18021UU0099099                                                                                                                              *          20180601 IMCT                IMCT                                                                                                                    WMF180601A.TXT
MDEUJ6203132201806                D89828070100PT4U20180606000030SPEAKER ASM                   M IMCTM S0FL05 TNTH  07070IMCT  S0 PTB  00004                    1300 SR        000000000000 DENSO TEN (THAILAND)18020UU0064064                                                                                                                              *          20180601 IMCT                IMCT                                                                                                                    WMF180601A.TXT
MDEUJ6203133201806                D89828070100PT4U20180606000060SPEAKER ASM                   M IMCTM S0FL05 TNTH  07070IMCT  S0 PTB  00004                    1600 SR        000000000000 DENSO TEN (THAILAND)18019UU001601618025UU0071071                                                                                                                *          20180601 IMCT                IMCT                                                                                                                    WMF180601A.TXT
MDEUJ6203134201806                D89828070200PV4U20180606000030SPEAKER ASM                   M IMCTM S0FR05 TNTH  07070IMCT  S0 PTB  00005                    0230 SR        000000000000 DENSO TEN (THAILAND)18049ZU0057057                                                                                                                              *          20180601 IMCT                IMCT                                                                                                                    WMF180601A.TXT
MDEUJ6203135201806                D89828070200PV4U20180606000030SPEAKER ASM                   M IMCTM S0FR05 TNTH  07070IMCT  S0 PTB  00005                    0400 SR        000000000000 DENSO TEN (THAILAND)18060UU0009009                                                                                                                              *          20180601 IMCT                IMCT                                                                                                                    WMF180601A.TXT
MDEUJ6203136201806                D89828070200PV4U20180606000030SPEAKER ASM                   M IMCTM S0FR05 TNTH  07070IMCT  S0 PTB  00005                    0830 SR        000000000000 DENSO TEN (THAILAND)18021UU0099099                                                                                                                              *          20180601 IMCT                IMCT                                                                                                                    WMF180601A.TXT
MDEUJ6203137201806                D89828070200PV4U20180606000030SPEAKER ASM                   M IMCTM S0FR05 TNTH  07070IMCT  S0 PTB  00005                    1300 SR        000000000000 DENSO TEN (THAILAND)18020UU0064064                                                                                                                              *          20180601 IMCT                IMCT                                                                                                                    WMF180601A.TXT
MDEUJ6203138201806                D89828070200PV4U20180606000060SPEAKER ASM                   M IMCTM S0FR05 TNTH  07070IMCT  S0 PTB  00005                    1600 SR        000000000000 DENSO TEN (THAILAND)18019UU001601618025UU0071071                                                                                                                *          20180601 IMCT                IMCT                                                                                                                    WMF180601A.TXT
MDEUJ6203139201806                D89828070300PT4U20180606000030SPEAKER ASM                   M IMCTM S9TS02 TNTH  07070IMCT  S9 PTB  00015                    0230 SR        000000000000 DENSO TEN (THAILAND)18049ZU0057057                                                                                                                              *          20180601 IMCT                IMCT                                                                                                                    WMF180601A.TXT
MDEUJ6203140201806                D89828070300PT4U20180606000030SPEAKER ASM                   M IMCTM S9TS02 TNTH  07070IMCT  S9 PTB  00015                    0400 SR        000000000000 DENSO TEN (THAILAND)18060UU0009009                                                                                                                              *          20180601 IMCT                IMCT                                                                                                                    WMF180601A.TXT
MDEUJ6203141201806                D89828070300PT4U20180606000030SPEAKER ASM                   M IMCTM S9TS02 TNTH  07070IMCT  S9 PTB  00015                    0830 SR        000000000000 DENSO TEN (THAILAND)18021UU0099099                                                                                                                              *          20180601 IMCT                IMCT                                                                                                                    WMF180601A.TXT
MDEUJ6203142201806                D89828070300PT4U20180606000030SPEAKER ASM                   M IMCTM S9TS02 TNTH  07070IMCT  S9 PTB  00015                    1300 SR        000000000000 DENSO TEN (THAILAND)18020UU0064064                                                                                                                              *          20180601 IMCT                IMCT                                                                                                                    WMF180601A.TXT
MDEUJ6203143201806                D89828070300PT4U20180606000060SPEAKER ASM                   M IMCTM S9TS02 TNTH  07070IMCT  S9 PTB  00015                    1600 SR        000000000000 DENSO TEN (THAILAND)18019UU001601618025UU0071071                                                                                                                *          20180601 IMCT                IMCT                                                                                                                    WMF180601A.TXT
MDEUJ6203144201806                D89848584400PT4U20180606000015RADIO;AM/FM CD D              M IMCTM S9CO001TNTH  07070IMCT  S9 PTB  00003                    0400 SR        000000000000 DENSO TEN (THAILAND)18060UU0009009                                                                                                                              *          20180601 IMCT                IMCT                                                                                                                    WMF180601A.TXT
MDEUJ6203145201806                D89848584700PT4U20180606000015RADIO;AM/FM CD D              M IMCTM S9CO001TNTH  07070IMCT  S9 PTB  00003                    1600 SR        000000000000 DENSO TEN (THAILAND)18019UU0016016                                                                                                                              *          20180601 IMCT                IMCT                                                                                                                    WMF180601A.TXT
