REC2018062820180628ISUZU                              58     
MDDDJ6328325201807                D89821984430PT1D20180703000030RADIO;AM/FM,CD                M IMCTM S5NC06 TNTH  09020IMCT  S5 PTB  00005                    2230 SR        000000000000 DENSO TEN (THAILAND)180LXCL0058058                                                                                                                              *          20180628 IMCT                IMCT                                                                                                                    WMF1806283.TXT
MDDDJ6328326201807                D89821984430PT1D20180704000030RADIO;AM/FM,CD                M IMCTM S5NC06 TNTH  09020IMCT  S5 PTB  00005                    0230 SR        000000000000 DENSO TEN (THAILAND)180LPAL0174174                                                                                                                              *          20180628 IMCT                IMCT                                                                                                                    WMF1806283.TXT
MDDDJ6328327201807                D89821984430PT1D20180704000030RADIO;AM/FM,CD                M IMCTM S5NC06 TNTH  09020IMCT  S5 PTB  00005                    0830 SR        000000000000 DENSO TEN (THAILAND)180LNGL0150150                                                                                                                              *          20180628 IMCT                IMCT                                                                                                                    WMF1806283.TXT
MDDDJ6328328201807                D89821984430PT1D20180704000090RADIO;AM/FM,CD                M IMCTM S5NC06 TNTH  09020IMCT  S5 PTB  00005                    1600 SR        000000000000 DENSO TEN (THAILAND)180LPAL0175175180LXCL0059059180LXEL0060060                                                                                                  *          20180628 IMCT                IMCT                                                                                                                    WMF1806283.TXT
MDDDJ6328329201807                D89821984430PT1D20180704000030RADIO;AM/FM,CD                M IMCTM S5NC06 TNTH  09020IMCT  S5 PTB  00005                    2100 SR        000000000000 DENSO TEN (THAILAND)180LRAL0187187                                                                                                                              *          20180628 IMCT                IMCT                                                                                                                    WMF1806283.TXT
MDDDJ6328330201807                D89828070100PV1D20180703000120SPEAKER ASM                   M IMCTM S5MB11 TNTH  09020IMCT  S5 PTB  00004                    2230 SR        000000000000 DENSO TEN (THAILAND)180LPDL0021021180LXCL0058058                                                                                                                *          20180628 IMCT                IMCT                                                                                                                    WMF1806283.TXT
MDDDJ6328331201807                D89828070100PV1D20180704000060SPEAKER ASM                   M IMCTM S5MB11 TNTH  09020IMCT  S5 PTB  00004                    0230 SR        000000000000 DENSO TEN (THAILAND)180LPAL0174174                                                                                                                              *          20180628 IMCT                IMCT                                                                                                                    WMF1806283.TXT
MDDDJ6328332201807                D89828070100PV1D20180704000060SPEAKER ASM                   M IMCTM S5MB11 TNTH  09020IMCT  S5 PTB  00004                    0830 SR        000000000000 DENSO TEN (THAILAND)180LNGL0150150                                                                                                                              *          20180628 IMCT                IMCT                                                                                                                    WMF1806283.TXT
MDDDJ6328333201807                D89828070100PV1D20180704000060SPEAKER ASM                   M IMCTM S5MB11 TNTH  09020IMCT  S5 PTB  00004                    1030 SR        000000000000 DENSO TEN (THAILAND)180LXBL0013013                                                                                                                              *          20180628 IMCT                IMCT                                                                                                                    WMF1806283.TXT
MDDDJ6328334201807                D89828070100PV1D20180704000060SPEAKER ASM                   M IMCTM S5MB11 TNTH  09020IMCT  S5 PTB  00004                    1300 SR        000000000000 DENSO TEN (THAILAND)180LPKL0072072                                                                                                                              *          20180628 IMCT                IMCT                                                                                                                    WMF1806283.TXT
MDDDJ6328335201807                D89828070100PV1D20180704000180SPEAKER ASM                   M IMCTM S5MB11 TNTH  09020IMCT  S5 PTB  00004                    1600 SR        000000000000 DENSO TEN (THAILAND)180LPAL0175175180LXCL0059059180LXEL0060060                                                                                                  *          20180628 IMCT                IMCT                                                                                                                    WMF1806283.TXT
MDDDJ6328336201807                D89828070100PV1D20180704000060SPEAKER ASM                   M IMCTM S5MB11 TNTH  09020IMCT  S5 PTB  00004                    2100 SR        000000000000 DENSO TEN (THAILAND)180LRAL0187187                                                                                                                              *          20180628 IMCT                IMCT                                                                                                                    WMF1806283.TXT
MDDDJ6328337201807                D89828070300PT1D20180703000060SPEAKER ASM                   M IMCTM S5NB082TNTH  09020IMCT  S5 PTB  00015                    2230 SR        000000000000 DENSO TEN (THAILAND)180LPDL0021021                                                                                                                              *          20180628 IMCT                IMCT                                                                                                                    WMF1806283.TXT
MDDDJ6328338201807                D89828070300PT1D20180704000060SPEAKER ASM                   M IMCTM S5NB082TNTH  09020IMCT  S5 PTB  00015                    1300 SR        000000000000 DENSO TEN (THAILAND)180LPKL0072072                                                                                                                              *          20180628 IMCT                IMCT                                                                                                                    WMF1806283.TXT
MDDDJ6328339201807                D89831228300PT1D20180703000030RADIO;AM/FM,CD                M IMCTM S5NC06 TNTH  09020IMCT  S5 CPB  00003                    2230 SR        000000000000 DENSO TEN (THAILAND)180LPDL0021021                                                                                                                              *          20180628 IMCT                IMCT                                                                                                                    WMF1806283.TXT
MDDDJ6328340201807                D89848581600PT1D20180704000030RADIO;AM/FM CD D              M IMCTM S5NC06 TNTH  09020IMCT  S5 PTB  00003                    1300 SR        000000000000 DENSO TEN (THAILAND)180LPKL0072072                                                                                                                              *          20180628 IMCT                IMCT                                                                                                                    WMF1806283.TXT
MDDUJ6262700201807                D89828070100PT4U20180704000030SPEAKER ASM                   M IMCTM S0FL05 TNTH  09020IMCT  S0 PTB  00004                    0230 SR        000000000000 DENSO TEN (THAILAND)180LURU0078078                                                                                                                              *          20180628 IMCT                IMCT                                                                                                                    WMF1806283.TXT
MDDUJ6262701201807                D89828070100PT4U20180704000030SPEAKER ASM                   M IMCTM S0FL05 TNTH  09020IMCT  S0 PTB  00004                    1030 SR        000000000000 DENSO TEN (THAILAND)180LUSU0111111                                                                                                                              *          20180628 IMCT                IMCT                                                                                                                    WMF1806283.TXT
MDDUJ6262702201807                D89828070100PT4U20180704000030SPEAKER ASM                   M IMCTM S0FL05 TNTH  09020IMCT  S0 PTB  00004                    1600 SR        000000000000 DENSO TEN (THAILAND)180LUTU0078078                                                                                                                              *          20180628 IMCT                IMCT                                                                                                                    WMF1806283.TXT
MDDUJ6262703201807                D89828070100PT4U20180704000030SPEAKER ASM                   M IMCTM S0FL05 TNTH  09020IMCT  S0 PTB  00004                    2230 SR        000000000000 DENSO TEN (THAILAND)180LURU0079079                                                                                                                              *          20180628 IMCT                IMCT                                                                                                                    WMF1806283.TXT
MDDUJ6262704201807                D89828070200PV4U20180704000030SPEAKER ASM                   M IMCTM S0FR05 TNTH  09020IMCT  S0 PTB  00005                    0230 SR        000000000000 DENSO TEN (THAILAND)180LURU0078078                                                                                                                              *          20180628 IMCT                IMCT                                                                                                                    WMF1806283.TXT
MDDUJ6262705201807                D89828070200PV4U20180704000030SPEAKER ASM                   M IMCTM S0FR05 TNTH  09020IMCT  S0 PTB  00005                    1030 SR        000000000000 DENSO TEN (THAILAND)180LUSU0111111                                                                                                                              *          20180628 IMCT                IMCT                                                                                                                    WMF1806283.TXT
MDDUJ6262706201807                D89828070200PV4U20180704000030SPEAKER ASM                   M IMCTM S0FR05 TNTH  09020IMCT  S0 PTB  00005                    1600 SR        000000000000 DENSO TEN (THAILAND)180LUTU0078078                                                                                                                              *          20180628 IMCT                IMCT                                                                                                                    WMF1806283.TXT
MDDUJ6262707201807                D89828070200PV4U20180704000030SPEAKER ASM                   M IMCTM S0FR05 TNTH  09020IMCT  S0 PTB  00005                    2230 SR        000000000000 DENSO TEN (THAILAND)180LURU0079079                                                                                                                              *          20180628 IMCT                IMCT                                                                                                                    WMF1806283.TXT
MDDUJ6262708201807                D89828070300PT4U20180704000030SPEAKER ASM                   M IMCTM S9TS02 TNTH  09020IMCT  S9 PTB  00015                    0230 SR        000000000000 DENSO TEN (THAILAND)180LURU0078078                                                                                                                              *          20180628 IMCT                IMCT                                                                                                                    WMF1806283.TXT
MDDUJ6262709201807                D89828070300PT4U20180704000030SPEAKER ASM                   M IMCTM S9TS02 TNTH  09020IMCT  S9 PTB  00015                    1030 SR        000000000000 DENSO TEN (THAILAND)180LUSU0111111                                                                                                                              *          20180628 IMCT                IMCT                                                                                                                    WMF1806283.TXT
MDDUJ6262710201807                D89828070300PT4U20180704000030SPEAKER ASM                   M IMCTM S9TS02 TNTH  09020IMCT  S9 PTB  00015                    1600 SR        000000000000 DENSO TEN (THAILAND)180LUTU0078078                                                                                                                              *          20180628 IMCT                IMCT                                                                                                                    WMF1806283.TXT
MDDUJ6262711201807                D89828070300PT4U20180704000030SPEAKER ASM                   M IMCTM S9TS02 TNTH  09020IMCT  S9 PTB  00015                    2230 SR        000000000000 DENSO TEN (THAILAND)180LURU0079079                                                                                                                              *          20180628 IMCT                IMCT                                                                                                                    WMF1806283.TXT
MDEDJ6349620201807                D89828070100PV1D20180703000030SPEAKER ASM                   M IMCTM S5MB11 TNTH  09020IMCT  S5 PTB  00004                    2230 SR        000000000000 DENSO TEN (THAILAND)17046QL0049049                                                                                                                              *          20180628 IMCT                IMCT                                                                                                                    WMF1806283.TXT
MDEDJ6349621201807                D89828070100PV1D20180704000060SPEAKER ASM                   M IMCTM S5MB11 TNTH  09020IMCT  S5 PTB  00004                    0400 SR        000000000000 DENSO TEN (THAILAND)18056XL0011012                                                                                                                              *          20180628 IMCT                IMCT                                                                                                                    WMF1806283.TXT
MDEDJ6349622201807                D89828070100PV1D20180704000030SPEAKER ASM                   M IMCTM S5MB11 TNTH  09020IMCT  S5 PTB  00004                    0830 SR        000000000000 DENSO TEN (THAILAND)18024XL0006006                                                                                                                              *          20180628 IMCT                IMCT                                                                                                                    WMF1806283.TXT
MDEDJ6349623201807                D89828070100PV1D20180704000060SPEAKER ASM                   M IMCTM S5MB11 TNTH  09020IMCT  S5 PTB  00004                    1300 SR        000000000000 DENSO TEN (THAILAND)18007ZL0113114                                                                                                                              *          20180628 IMCT                IMCT                                                                                                                    WMF1806283.TXT
MDEDJ6349624201807                D89828070100PV1D20180704000060SPEAKER ASM                   M IMCTM S5MB11 TNTH  09020IMCT  S5 PTB  00004                    1600 SR        000000000000 DENSO TEN (THAILAND)18059XL000800818098UL0055055                                                                                                                *          20180628 IMCT                IMCT                                                                                                                    WMF1806283.TXT
MDEDJ6349625201807                D89828070100PV4D20180704000030SPEAKER ASM                   M IMCTM S0FL05 TNTH  09020IMCT  S0 PTB  00004                    0400 SR        000000000000 DENSO TEN (THAILAND)18007ZU0026026                                                                                                                              *          20180628 IMCT                IMCT                                                                                                                    WMF1806283.TXT
MDEDJ6349626201807                D89828070100PV4D20180704000030SPEAKER ASM                   M IMCTM S0FL05 TNTH  09020IMCT  S0 PTB  00004                    1030 SR        000000000000 DENSO TEN (THAILAND)17052RU0002002                                                                                                                              *          20180628 IMCT                IMCT                                                                                                                    WMF1806283.TXT
MDEDJ6349627201807                D89828070100PV4D20180704000060SPEAKER ASM                   M IMCTM S0FL05 TNTH  09020IMCT  S0 PTB  00004                    1600 SR        000000000000 DENSO TEN (THAILAND)18031XU000100118052XU0003003                                                                                                                *          20180628 IMCT                IMCT                                                                                                                    WMF1806283.TXT
MDEDJ6349628201807                D89828070200PV1D20180703000030SPEAKER ASM                   M IMCTM S5MA14 TNTH  09020IMCT  S5 PTB  00005                    2230 SR        000000000000 DENSO TEN (THAILAND)17046QL0049049                                                                                                                              *          20180628 IMCT                IMCT                                                                                                                    WMF1806283.TXT
MDEDJ6349629201807                D89828070200PV1D20180704000060SPEAKER ASM                   M IMCTM S5MA14 TNTH  09020IMCT  S5 PTB  00005                    0400 SR        000000000000 DENSO TEN (THAILAND)18056XL0011012                                                                                                                              *          20180628 IMCT                IMCT                                                                                                                    WMF1806283.TXT
MDEDJ6349630201807                D89828070200PV1D20180704000060SPEAKER ASM                   M IMCTM S5MA14 TNTH  09020IMCT  S5 PTB  00005                    1600 SR        000000000000 DENSO TEN (THAILAND)18059XL000800818098UL0055055                                                                                                                *          20180628 IMCT                IMCT                                                                                                                    WMF1806283.TXT
MDEDJ6349631201807                D89828070200PV4D20180704000060SPEAKER ASM                   M IMCTM S0FR05 TNTH  09020IMCT  S0 PTB  00005                    1600 SR        000000000000 DENSO TEN (THAILAND)18031XU000100118052XU0003003                                                                                                                *          20180628 IMCT                IMCT                                                                                                                    WMF1806283.TXT
MDEDJ6349632201807                D89828070300PT1D20180703000030SPEAKER ASM                   M IMCTM S5NB082TNTH  09020IMCT  S5 PTB  00015                    2230 SR        000000000000 DENSO TEN (THAILAND)17046QL0049049                                                                                                                              *          20180628 IMCT                IMCT                                                                                                                    WMF1806283.TXT
MDEDJ6349633201807                D89828070300PT1D20180704000060SPEAKER ASM                   M IMCTM S5NB082TNTH  09020IMCT  S5 PTB  00015                    0400 SR        000000000000 DENSO TEN (THAILAND)18056XL0011012                                                                                                                              *          20180628 IMCT                IMCT                                                                                                                    WMF1806283.TXT
MDEDJ6349634201807                D89828070300PT1D20180704000060SPEAKER ASM                   M IMCTM S5NB082TNTH  09020IMCT  S5 PTB  00015                    1600 SR        000000000000 DENSO TEN (THAILAND)18059XL000800818098UL0055055                                                                                                                *          20180628 IMCT                IMCT                                                                                                                    WMF1806283.TXT
MDEDJ6349635201807                D89828070300PT4D20180704000060SPEAKER ASM                   M IMCTM S9TS02 TNTH  09020IMCT  S9 PTB  00015                    1600 SR        000000000000 DENSO TEN (THAILAND)18031XU000100118052XU0003003                                                                                                                *          20180628 IMCT                IMCT                                                                                                                    WMF1806283.TXT
MDEDJ6349636201807                D89848581800PT1D20180704000015RADIO;AM/FM CD D              M IMCTM S5NC06 TNTH  09020IMCT  S5 PTB  00003                    1600 SR        000000000000 DENSO TEN (THAILAND)18098UL0055055                                                                                                                              *          20180628 IMCT                IMCT                                                                                                                    WMF1806283.TXT
MDEUJ6288297201807                D89828070100PT4U20180703000030SPEAKER ASM                   M IMCTM S0FL05 TNTH  09020IMCT  S0 PTB  00004                    2230 SR        000000000000 DENSO TEN (THAILAND)18030TU0003003                                                                                                                              *          20180628 IMCT                IMCT                                                                                                                    WMF1806283.TXT
MDEUJ6288298201807                D89828070100PT4U20180704000030SPEAKER ASM                   M IMCTM S0FL05 TNTH  09020IMCT  S0 PTB  00004                    0400 SR        000000000000 DENSO TEN (THAILAND)18031UU0002002                                                                                                                              *          20180628 IMCT                IMCT                                                                                                                    WMF1806283.TXT
MDEUJ6288299201807                D89828070100PT4U20180704000030SPEAKER ASM                   M IMCTM S0FL05 TNTH  09020IMCT  S0 PTB  00004                    1300 SR        000000000000 DENSO TEN (THAILAND)18049ZU0062062                                                                                                                              *          20180628 IMCT                IMCT                                                                                                                    WMF1806283.TXT
MDEUJ6288300201807                D89828070100PT4U20180704000030SPEAKER ASM                   M IMCTM S0FL05 TNTH  09020IMCT  S0 PTB  00004                    1600 SR        000000000000 DENSO TEN (THAILAND)18032TU0001001                                                                                                                              *          20180628 IMCT                IMCT                                                                                                                    WMF1806283.TXT
MDEUJ6288301201807                D89828070200PV4U20180703000030SPEAKER ASM                   M IMCTM S0FR05 TNTH  09020IMCT  S0 PTB  00005                    2230 SR        000000000000 DENSO TEN (THAILAND)18030TU0003003                                                                                                                              *          20180628 IMCT                IMCT                                                                                                                    WMF1806283.TXT
MDEUJ6288302201807                D89828070200PV4U20180704000030SPEAKER ASM                   M IMCTM S0FR05 TNTH  09020IMCT  S0 PTB  00005                    0400 SR        000000000000 DENSO TEN (THAILAND)18031UU0002002                                                                                                                              *          20180628 IMCT                IMCT                                                                                                                    WMF1806283.TXT
MDEUJ6288303201807                D89828070200PV4U20180704000030SPEAKER ASM                   M IMCTM S0FR05 TNTH  09020IMCT  S0 PTB  00005                    1300 SR        000000000000 DENSO TEN (THAILAND)18049ZU0062062                                                                                                                              *          20180628 IMCT                IMCT                                                                                                                    WMF1806283.TXT
MDEUJ6288304201807                D89828070200PV4U20180704000030SPEAKER ASM                   M IMCTM S0FR05 TNTH  09020IMCT  S0 PTB  00005                    1600 SR        000000000000 DENSO TEN (THAILAND)18032TU0001001                                                                                                                              *          20180628 IMCT                IMCT                                                                                                                    WMF1806283.TXT
MDEUJ6288305201807                D89828070300PT4U20180703000030SPEAKER ASM                   M IMCTM S9TS02 TNTH  09020IMCT  S9 PTB  00015                    2230 SR        000000000000 DENSO TEN (THAILAND)18030TU0003003                                                                                                                              *          20180628 IMCT                IMCT                                                                                                                    WMF1806283.TXT
MDEUJ6288306201807                D89828070300PT4U20180704000030SPEAKER ASM                   M IMCTM S9TS02 TNTH  09020IMCT  S9 PTB  00015                    0400 SR        000000000000 DENSO TEN (THAILAND)18031UU0002002                                                                                                                              *          20180628 IMCT                IMCT                                                                                                                    WMF1806283.TXT
MDEUJ6288307201807                D89828070300PT4U20180704000030SPEAKER ASM                   M IMCTM S9TS02 TNTH  09020IMCT  S9 PTB  00015                    1300 SR        000000000000 DENSO TEN (THAILAND)18049ZU0062062                                                                                                                              *          20180628 IMCT                IMCT                                                                                                                    WMF1806283.TXT
MDEUJ6288308201807                D89828070300PT4U20180704000030SPEAKER ASM                   M IMCTM S9TS02 TNTH  09020IMCT  S9 PTB  00015                    1600 SR        000000000000 DENSO TEN (THAILAND)18032TU0001001                                                                                                                              *          20180628 IMCT                IMCT                                                                                                                    WMF1806283.TXT
MDEUJ6288309201807                D89831229200PT4U20180704000015RADIO;AM/FM,CD                M IMCTM S9CO001TNTH  09020IMCT  S9 PTB  00003                    1600 SR        000000000000 DENSO TEN (THAILAND)18032TU0001001                                                                                                                              *          20180628 IMCT                IMCT                                                                                                                    WMF1806283.TXT
