REC2018062520180625ISUZU                              57     
MDDDJ6311270201806                D89821984430PT1D20180629000030RADIO;AM/FM,CD                M IMCTM S5NC06 TNTH  09020IMCT  S5 PTB  00005                    1300 SR        000000000000 DENSO TEN (THAILAND)180LPAL0169169                                                                                                                              *          20180625 IMCT                IMCT                                                                                                                    WMF1806254.TXT
MDDDJ6311271201806                D89821984430PT1D20180629000030RADIO;AM/FM,CD                M IMCTM S5NC06 TNTH  09020IMCT  S5 PTB  00005                    2230 SR        000000000000 DENSO TEN (THAILAND)180LNGL0147147                                                                                                                              *          20180625 IMCT                IMCT                                                                                                                    WMF1806254.TXT
MDDDJ6311272201806                D89828070100PV1D20180629000120SPEAKER ASM                   M IMCTM S5MB11 TNTH  09020IMCT  S5 PTB  00004                    0230 SR        000000000000 DENSO TEN (THAILAND)180LPFL0066066180LPGL0263263                                                                                                                *          20180625 IMCT                IMCT                                                                                                                    WMF1806254.TXT
MDDDJ6311273201806                D89828070100PV1D20180629000060SPEAKER ASM                   M IMCTM S5MB11 TNTH  09020IMCT  S5 PTB  00004                    0830 SR        000000000000 DENSO TEN (THAILAND)180LPEL0017017                                                                                                                              *          20180625 IMCT                IMCT                                                                                                                    WMF1806254.TXT
MDDDJ6311274201806                D89828070100PV1D20180629000060SPEAKER ASM                   M IMCTM S5MB11 TNTH  09020IMCT  S5 PTB  00004                    1030 SR        000000000000 DENSO TEN (THAILAND)180LXAL0031031                                                                                                                              *          20180625 IMCT                IMCT                                                                                                                    WMF1806254.TXT
MDDDJ6311275201806                D89828070100PV1D20180629000120SPEAKER ASM                   M IMCTM S5MB11 TNTH  09020IMCT  S5 PTB  00004                    1300 SR        000000000000 DENSO TEN (THAILAND)180LPAL0169169180LPDL0020020                                                                                                                *          20180625 IMCT                IMCT                                                                                                                    WMF1806254.TXT
MDDDJ6311276201806                D89828070100PV1D20180629000060SPEAKER ASM                   M IMCTM S5MB11 TNTH  09020IMCT  S5 PTB  00004                    2230 SR        000000000000 DENSO TEN (THAILAND)180LNGL0147147                                                                                                                              *          20180625 IMCT                IMCT                                                                                                                    WMF1806254.TXT
MDDDJ6311277201806                D89828070300PT1D20180629000120SPEAKER ASM                   M IMCTM S5NB082TNTH  09020IMCT  S5 PTB  00015                    0230 SR        000000000000 DENSO TEN (THAILAND)180LPFL0066066180LPGL0263263                                                                                                                *          20180625 IMCT                IMCT                                                                                                                    WMF1806254.TXT
MDDDJ6311278201806                D89828070300PT1D20180629000060SPEAKER ASM                   M IMCTM S5NB082TNTH  09020IMCT  S5 PTB  00015                    0830 SR        000000000000 DENSO TEN (THAILAND)180LPEL0017017                                                                                                                              *          20180625 IMCT                IMCT                                                                                                                    WMF1806254.TXT
MDDDJ6311279201806                D89828070300PT1D20180629000060SPEAKER ASM                   M IMCTM S5NB082TNTH  09020IMCT  S5 PTB  00015                    1300 SR        000000000000 DENSO TEN (THAILAND)180LPDL0020020                                                                                                                              *          20180625 IMCT                IMCT                                                                                                                    WMF1806254.TXT
MDDDJ6311280201806                D89831228300PT1D20180629000060RADIO;AM/FM,CD                M IMCTM S5NC06 TNTH  09020IMCT  S5 CPB  00003                    0230 SR        000000000000 DENSO TEN (THAILAND)180LPFL0066066180LPGL0263263                                                                                                                *          20180625 IMCT                IMCT                                                                                                                    WMF1806254.TXT
MDDDJ6311281201806                D89831228300PT1D20180629000030RADIO;AM/FM,CD                M IMCTM S5NC06 TNTH  09020IMCT  S5 CPB  00003                    0830 SR        000000000000 DENSO TEN (THAILAND)180LPEL0017017                                                                                                                              *          20180625 IMCT                IMCT                                                                                                                    WMF1806254.TXT
MDDDJ6311282201806                D89831228300PT1D20180629000030RADIO;AM/FM,CD                M IMCTM S5NC06 TNTH  09020IMCT  S5 CPB  00003                    1300 SR        000000000000 DENSO TEN (THAILAND)180LPDL0020020                                                                                                                              *          20180625 IMCT                IMCT                                                                                                                    WMF1806254.TXT
MDDUJ6254162201806                D89828070100PT4U20180628000030SPEAKER ASM                   M IMCTM S0FL05 TNTH  09020IMCT  S0 PTB  00004                    2230 SR        000000000000 DENSO TEN (THAILAND)180LURU0075075                                                                                                                              *          20180625 IMCT                IMCT                                                                                                                    WMF1806254.TXT
MDDUJ6254163201806                D89828070100PT4U20180629000030SPEAKER ASM                   M IMCTM S0FL05 TNTH  09020IMCT  S0 PTB  00004                    0400 SR        000000000000 DENSO TEN (THAILAND)180LUTU0074074                                                                                                                              *          20180625 IMCT                IMCT                                                                                                                    WMF1806254.TXT
MDDUJ6254164201806                D89828070100PT4U20180629000030SPEAKER ASM                   M IMCTM S0FL05 TNTH  09020IMCT  S0 PTB  00004                    1300 SR        000000000000 DENSO TEN (THAILAND)180LUTU0075075                                                                                                                              *          20180625 IMCT                IMCT                                                                                                                    WMF1806254.TXT
MDDUJ6254165201806                D89828070200PV4U20180628000030SPEAKER ASM                   M IMCTM S0FR05 TNTH  09020IMCT  S0 PTB  00005                    2230 SR        000000000000 DENSO TEN (THAILAND)180LURU0075075                                                                                                                              *          20180625 IMCT                IMCT                                                                                                                    WMF1806254.TXT
MDDUJ6254166201806                D89828070200PV4U20180629000030SPEAKER ASM                   M IMCTM S0FR05 TNTH  09020IMCT  S0 PTB  00005                    0400 SR        000000000000 DENSO TEN (THAILAND)180LUTU0074074                                                                                                                              *          20180625 IMCT                IMCT                                                                                                                    WMF1806254.TXT
MDDUJ6254167201806                D89828070200PV4U20180629000030SPEAKER ASM                   M IMCTM S0FR05 TNTH  09020IMCT  S0 PTB  00005                    1300 SR        000000000000 DENSO TEN (THAILAND)180LUTU0075075                                                                                                                              *          20180625 IMCT                IMCT                                                                                                                    WMF1806254.TXT
MDDUJ6254168201806                D89828070300PT4U20180628000030SPEAKER ASM                   M IMCTM S9TS02 TNTH  09020IMCT  S9 PTB  00015                    2230 SR        000000000000 DENSO TEN (THAILAND)180LURU0075075                                                                                                                              *          20180625 IMCT                IMCT                                                                                                                    WMF1806254.TXT
MDDUJ6254169201806                D89828070300PT4U20180629000030SPEAKER ASM                   M IMCTM S9TS02 TNTH  09020IMCT  S9 PTB  00015                    0400 SR        000000000000 DENSO TEN (THAILAND)180LUTU0074074                                                                                                                              *          20180625 IMCT                IMCT                                                                                                                    WMF1806254.TXT
MDDUJ6254170201806                D89828070300PT4U20180629000030SPEAKER ASM                   M IMCTM S9TS02 TNTH  09020IMCT  S9 PTB  00015                    1300 SR        000000000000 DENSO TEN (THAILAND)180LUTU0075075                                                                                                                              *          20180625 IMCT                IMCT                                                                                                                    WMF1806254.TXT
MDEDJ6330145201806                D89828070100PV1D20180628000060SPEAKER ASM                   M IMCTM S5MB11 TNTH  09020IMCT  S5 PTB  00004                    2230 SR        000000000000 DENSO TEN (THAILAND)17028RL003103117050RL0036036                                                                                                                *          20180625 IMCT                IMCT                                                                                                                    WMF1806254.TXT
MDEDJ6330146201806                D89828070100PV1D20180629000060SPEAKER ASM                   M IMCTM S5MB11 TNTH  09020IMCT  S5 PTB  00004                    0400 SR        000000000000 DENSO TEN (THAILAND)18001VL0032033                                                                                                                              *          20180625 IMCT                IMCT                                                                                                                    WMF1806254.TXT
MDEDJ6330147201806                D89828070100PV1D20180629000060SPEAKER ASM                   M IMCTM S5MB11 TNTH  09020IMCT  S5 PTB  00004                    1300 SR        000000000000 DENSO TEN (THAILAND)18008YL001701718083UL0008008                                                                                                                *          20180625 IMCT                IMCT                                                                                                                    WMF1806254.TXT
MDEDJ6330148201806                D89828070100PV1D20180629000060SPEAKER ASM                   M IMCTM S5MB11 TNTH  09020IMCT  S5 PTB  00004                    2100 SR        000000000000 DENSO TEN (THAILAND)17033QL0061062                                                                                                                              *          20180625 IMCT                IMCT                                                                                                                    WMF1806254.TXT
MDEDJ6330149201806                D89828070100PV4D20180629000030SPEAKER ASM                   M IMCTM S0FL05 TNTH  09020IMCT  S0 PTB  00004                    0400 SR        000000000000 DENSO TEN (THAILAND)18063UU0031031                                                                                                                              *          20180625 IMCT                IMCT                                                                                                                    WMF1806254.TXT
MDEDJ6330150201806                D89828070100PV4D20180629000030SPEAKER ASM                   M IMCTM S0FL05 TNTH  09020IMCT  S0 PTB  00004                    0830 SR        000000000000 DENSO TEN (THAILAND)18074XU0005005                                                                                                                              *          20180625 IMCT                IMCT                                                                                                                    WMF1806254.TXT
MDEDJ6330151201806                D89828070100PV4D20180629000030SPEAKER ASM                   M IMCTM S0FL05 TNTH  09020IMCT  S0 PTB  00004                    1300 SR        000000000000 DENSO TEN (THAILAND)18063UU0032032                                                                                                                              *          20180625 IMCT                IMCT                                                                                                                    WMF1806254.TXT
MDEDJ6330152201806                D89828070100PV4D20180629000030SPEAKER ASM                   M IMCTM S0FL05 TNTH  09020IMCT  S0 PTB  00004                    2230 SR        000000000000 DENSO TEN (THAILAND)18082WU0001001                                                                                                                              *          20180625 IMCT                IMCT                                                                                                                    WMF1806254.TXT
MDEDJ6330153201806                D89828070200PV1D20180628000030SPEAKER ASM                   M IMCTM S5MA14 TNTH  09020IMCT  S5 PTB  00005                    2230 SR        000000000000 DENSO TEN (THAILAND)17050RL0036036                                                                                                                              *          20180625 IMCT                IMCT                                                                                                                    WMF1806254.TXT
MDEDJ6330154201806                D89828070200PV1D20180629000060SPEAKER ASM                   M IMCTM S5MA14 TNTH  09020IMCT  S5 PTB  00005                    0400 SR        000000000000 DENSO TEN (THAILAND)18001VL0032033                                                                                                                              *          20180625 IMCT                IMCT                                                                                                                    WMF1806254.TXT
MDEDJ6330155201806                D89828070200PV1D20180629000060SPEAKER ASM                   M IMCTM S5MA14 TNTH  09020IMCT  S5 PTB  00005                    1300 SR        000000000000 DENSO TEN (THAILAND)18008YL001701718083UL0008008                                                                                                                *          20180625 IMCT                IMCT                                                                                                                    WMF1806254.TXT
MDEDJ6330156201806                D89828070200PV1D20180629000060SPEAKER ASM                   M IMCTM S5MA14 TNTH  09020IMCT  S5 PTB  00005                    2100 SR        000000000000 DENSO TEN (THAILAND)17033QL0061062                                                                                                                              *          20180625 IMCT                IMCT                                                                                                                    WMF1806254.TXT
MDEDJ6330157201806                D89828070300PT1D20180628000030SPEAKER ASM                   M IMCTM S5NB082TNTH  09020IMCT  S5 PTB  00015                    2230 SR        000000000000 DENSO TEN (THAILAND)17050RL0036036                                                                                                                              *          20180625 IMCT                IMCT                                                                                                                    WMF1806254.TXT
MDEDJ6330158201806                D89828070300PT1D20180629000060SPEAKER ASM                   M IMCTM S5NB082TNTH  09020IMCT  S5 PTB  00015                    0400 SR        000000000000 DENSO TEN (THAILAND)18001VL0032033                                                                                                                              *          20180625 IMCT                IMCT                                                                                                                    WMF1806254.TXT
MDEDJ6330159201806                D89828070300PT1D20180629000060SPEAKER ASM                   M IMCTM S5NB082TNTH  09020IMCT  S5 PTB  00015                    1300 SR        000000000000 DENSO TEN (THAILAND)18008YL001701718083UL0008008                                                                                                                *          20180625 IMCT                IMCT                                                                                                                    WMF1806254.TXT
MDEDJ6330160201806                D89828070300PT1D20180629000060SPEAKER ASM                   M IMCTM S5NB082TNTH  09020IMCT  S5 PTB  00015                    2100 SR        000000000000 DENSO TEN (THAILAND)17033QL0061062                                                                                                                              *          20180625 IMCT                IMCT                                                                                                                    WMF1806254.TXT
MDEDJ6330161201806                D89828070300PT4D20180629000030SPEAKER ASM                   M IMCTM S9TS02 TNTH  09020IMCT  S9 PTB  00015                    0400 SR        000000000000 DENSO TEN (THAILAND)18063UU0031031                                                                                                                              *          20180625 IMCT                IMCT                                                                                                                    WMF1806254.TXT
MDEDJ6330162201806                D89828070300PT4D20180629000030SPEAKER ASM                   M IMCTM S9TS02 TNTH  09020IMCT  S9 PTB  00015                    1300 SR        000000000000 DENSO TEN (THAILAND)18063UU0032032                                                                                                                              *          20180625 IMCT                IMCT                                                                                                                    WMF1806254.TXT
MDEDJ6330163201806                D89829645410PT1D20180628000015RADIO;ASM DVD                 M IMCTM S5NC06 TNTH  09020IMCT  S5 PTB  00003                    2230 SR        000000000000 DENSO TEN (THAILAND)17050RL0036036                                                                                                                              *          20180625 IMCT                IMCT                                                                                                                    WMF1806254.TXT
MDEDJ6330164201806                D89831229200PT1D20180629000030RADIO;AM/FM,CD                M IMCTM S5NC06 TNTH  09020IMCT  S5 PTB  00003                    2100 SR        000000000000 DENSO TEN (THAILAND)17033QL0061062                                                                                                                              *          20180625 IMCT                IMCT                                                                                                                    WMF1806254.TXT
MDEDJ6330165201806                D89848581800PT1D20180629000015RADIO;AM/FM CD D              M IMCTM S5NC06 TNTH  09020IMCT  S5 PTB  00003                    1300 SR        000000000000 DENSO TEN (THAILAND)18083UL0008008                                                                                                                              *          20180625 IMCT                IMCT                                                                                                                    WMF1806254.TXT
MDEDJ6330166201806                D89848581800PT4D20180629000015RADIO;AM/FM CD D              M IMCTM S9CO001TNTH  09020IMCT  S9 PTB  00003                    0400 SR        000000000000 DENSO TEN (THAILAND)18063UU0031031                                                                                                                              *          20180625 IMCT                IMCT                                                                                                                    WMF1806254.TXT
MDEDJ6330167201806                D89848581800PT4D20180629000015RADIO;AM/FM CD D              M IMCTM S9CO001TNTH  09020IMCT  S9 PTB  00003                    1300 SR        000000000000 DENSO TEN (THAILAND)18063UU0032032                                                                                                                              *          20180625 IMCT                IMCT                                                                                                                    WMF1806254.TXT
MDEUJ6279487201806                D89828070100PT4U20180629000030SPEAKER ASM                   M IMCTM S0FL05 TNTH  09020IMCT  S0 PTB  00004                    0230 SR        000000000000 DENSO TEN (THAILAND)18021UU0123123                                                                                                                              *          20180625 IMCT                IMCT                                                                                                                    WMF1806254.TXT
MDEUJ6279488201806                D89828070100PT4U20180629000030SPEAKER ASM                   M IMCTM S0FL05 TNTH  09020IMCT  S0 PTB  00004                    1030 SR        000000000000 DENSO TEN (THAILAND)18025UU0106106                                                                                                                              *          20180625 IMCT                IMCT                                                                                                                    WMF1806254.TXT
MDEUJ6279489201806                D89828070100PT4U20180629000030SPEAKER ASM                   M IMCTM S0FL05 TNTH  09020IMCT  S0 PTB  00004                    1300 SR        000000000000 DENSO TEN (THAILAND)18020UU0083083                                                                                                                              *          20180625 IMCT                IMCT                                                                                                                    WMF1806254.TXT
MDEUJ6279490201806                D89828070100PT4U20180629000030SPEAKER ASM                   M IMCTM S0FL05 TNTH  09020IMCT  S0 PTB  00004                    2100 SR        000000000000 DENSO TEN (THAILAND)18049ZU0060060                                                                                                                              *          20180625 IMCT                IMCT                                                                                                                    WMF1806254.TXT
MDEUJ6279491201806                D89828070200PV4U20180629000030SPEAKER ASM                   M IMCTM S0FR05 TNTH  09020IMCT  S0 PTB  00005                    0230 SR        000000000000 DENSO TEN (THAILAND)18021UU0123123                                                                                                                              *          20180625 IMCT                IMCT                                                                                                                    WMF1806254.TXT
MDEUJ6279492201806                D89828070200PV4U20180629000030SPEAKER ASM                   M IMCTM S0FR05 TNTH  09020IMCT  S0 PTB  00005                    1030 SR        000000000000 DENSO TEN (THAILAND)18025UU0106106                                                                                                                              *          20180625 IMCT                IMCT                                                                                                                    WMF1806254.TXT
MDEUJ6279493201806                D89828070200PV4U20180629000030SPEAKER ASM                   M IMCTM S0FR05 TNTH  09020IMCT  S0 PTB  00005                    1300 SR        000000000000 DENSO TEN (THAILAND)18020UU0083083                                                                                                                              *          20180625 IMCT                IMCT                                                                                                                    WMF1806254.TXT
MDEUJ6279494201806                D89828070200PV4U20180629000030SPEAKER ASM                   M IMCTM S0FR05 TNTH  09020IMCT  S0 PTB  00005                    2100 SR        000000000000 DENSO TEN (THAILAND)18049ZU0060060                                                                                                                              *          20180625 IMCT                IMCT                                                                                                                    WMF1806254.TXT
MDEUJ6279495201806                D89828070300PT4U20180629000030SPEAKER ASM                   M IMCTM S9TS02 TNTH  09020IMCT  S9 PTB  00015                    0230 SR        000000000000 DENSO TEN (THAILAND)18021UU0123123                                                                                                                              *          20180625 IMCT                IMCT                                                                                                                    WMF1806254.TXT
MDEUJ6279496201806                D89828070300PT4U20180629000030SPEAKER ASM                   M IMCTM S9TS02 TNTH  09020IMCT  S9 PTB  00015                    1030 SR        000000000000 DENSO TEN (THAILAND)18025UU0106106                                                                                                                              *          20180625 IMCT                IMCT                                                                                                                    WMF1806254.TXT
MDEUJ6279497201806                D89828070300PT4U20180629000030SPEAKER ASM                   M IMCTM S9TS02 TNTH  09020IMCT  S9 PTB  00015                    1300 SR        000000000000 DENSO TEN (THAILAND)18020UU0083083                                                                                                                              *          20180625 IMCT                IMCT                                                                                                                    WMF1806254.TXT
MDEUJ6279498201806                D89828070300PT4U20180629000030SPEAKER ASM                   M IMCTM S9TS02 TNTH  09020IMCT  S9 PTB  00015                    2100 SR        000000000000 DENSO TEN (THAILAND)18049ZU0060060                                                                                                                              *          20180625 IMCT                IMCT                                                                                                                    WMF1806254.TXT
