REC2018062520180625ISUZU                              14     
MDD6J6291417201806                D89828070100PV5620180629000060SPEAKER ASM                   M IMCTM G9B114 TNTH  09020G/WAY G9 PTB  00004                    1530 GW        0000000000005DENSO TEN (THAILAND)180LREG0138138                                                                                                                              *          20180625 IMCT                IMCT                                                                                                                    WMF1806255.TXT
MDD6J6291418201806                D89828070100PV5620180629000060SPEAKER ASM                   M IMCTM G9B114 TNTH  09020G/WAY G9 PTB  00004                    2100 GW        0000000000005DENSO TEN (THAILAND)180LPCG0091091                                                                                                                              *          20180625 IMCT                IMCT                                                                                                                    WMF1806255.TXT
MDD6J6291419201806                D89828070100PV5620180629000060SPEAKER ASM                   M IMCTM G9B114 TNTH  09020G/WAY G9 PTB  00004                    2300 GW        0000000000005DENSO TEN (THAILAND)180LRLG0121121                                                                                                                              *          20180625 IMCT                IMCT                                                                                                                    WMF1806255.TXT
MDD6J6291420201806                D89828070100PV5620180630000060SPEAKER ASM                   M IMCTM G9B114 TNTH  09020G/WAY G9 PTB  00004                    0200 GW        0000000000005DENSO TEN (THAILAND)180LRHG0293293                                                                                                                              *          20180625 IMCT                IMCT                                                                                                                    WMF1806255.TXT
MDD6J6291421201806                D89828070200PV5620180629000060SPEAKER ASM                   M IMCTM G9F132 TNTH  09020G/WAY G9 PTB  00005                    1530 GW        0000000000005DENSO TEN (THAILAND)180LREG0138138                                                                                                                              *          20180625 IMCT                IMCT                                                                                                                    WMF1806255.TXT
MDD6J6291422201806                D89828070200PV5620180629000060SPEAKER ASM                   M IMCTM G9F132 TNTH  09020G/WAY G9 PTB  00005                    2300 GW        0000000000005DENSO TEN (THAILAND)180LRLG0121121                                                                                                                              *          20180625 IMCT                IMCT                                                                                                                    WMF1806255.TXT
MDD6J6291423201806                D89828070200PV5620180630000060SPEAKER ASM                   M IMCTM G9F132 TNTH  09020G/WAY G9 PTB  00005                    0200 GW        0000000000005DENSO TEN (THAILAND)180LRHG0293293                                                                                                                              *          20180625 IMCT                IMCT                                                                                                                    WMF1806255.TXT
MDD6J6291424201806                D89828070300PT5620180629000060SPEAKER ASM                   M IMCTM G9JA33 TNTH  09020G/WAY G9 PTB  00015                    1530 GW        0000000000005DENSO TEN (THAILAND)180LREG0138138                                                                                                                              *          20180625 IMCT                IMCT                                                                                                                    WMF1806255.TXT
MDD6J6291425201806                D89828070300PT5620180629000060SPEAKER ASM                   M IMCTM G9JA33 TNTH  09020G/WAY G9 PTB  00015                    2100 GW        0000000000005DENSO TEN (THAILAND)180LPCG0091091                                                                                                                              *          20180625 IMCT                IMCT                                                                                                                    WMF1806255.TXT
MDD6J6291426201806                D89828070300PT5620180629000060SPEAKER ASM                   M IMCTM G9JA33 TNTH  09020G/WAY G9 PTB  00015                    2300 GW        0000000000005DENSO TEN (THAILAND)180LRLG0121121                                                                                                                              *          20180625 IMCT                IMCT                                                                                                                    WMF1806255.TXT
MDD6J6291427201806                D89828070300PT5620180630000060SPEAKER ASM                   M IMCTM G9JA33 TNTH  09020G/WAY G9 PTB  00015                    0200 GW        0000000000005DENSO TEN (THAILAND)180LRHG0293293                                                                                                                              *          20180625 IMCT                IMCT                                                                                                                    WMF1806255.TXT
MDD6J6291428201806                D89831228300PT5620180629000030RADIO;AM/FM,CD                M IMCTM G9J213 TNTH  09020G/WAY G9 CPB  00003                    2100 GW        0000000000005DENSO TEN (THAILAND)180LPCG0091091                                                                                                                              *          20180625 IMCT                IMCT                                                                                                                    WMF1806255.TXT
MDD6J6291429201806                D89831228400PT5620180629000030RADIO;AM/FM,CD                M IMCTM G9J213 TNTH  09020G/WAY G9 CPB  00003                    1530 GW        0000000000005DENSO TEN (THAILAND)180LREG0138138                                                                                                                              *          20180625 IMCT                IMCT                                                                                                                    WMF1806255.TXT
MDD6J6291430201806                D89848581500PT5620180630000030RADIO;AM/FM CD D              M IMCTM G9J213 TNTH  09020G/WAY G9 PTB  00003                    0200 GW        0000000000005DENSO TEN (THAILAND)180LRHG0293293                                                                                                                              *          20180625 IMCT                IMCT                                                                                                                    WMF1806255.TXT
