REC2018061220180612ISUZU                              65     
MDDDJ6254287201806                D89821984430PT1D20180616000030RADIO;AM/FM,CD                M IMCTM S5NC06 TNTH  09020IMCT  S5 PTB  00005                    0230 SR        000000000000 DENSO TEN (THAILAND)180LNGL0142142                                                                                                                              *          20180612 IMCT                IMCT                                                                                                                    WMF1806123.TXT
MDDDJ6254288201806                D89828070100PV1D20180616000120SPEAKER ASM                   M IMCTM S5MB11 TNTH  09020IMCT  S5 PTB  00004                    0230 SR        000000000000 DENSO TEN (THAILAND)180LNGL0142142180LPGL0250250                                                                                                                *          20180612 IMCT                IMCT                                                                                                                    WMF1806123.TXT
MDDDJ6254289201806                D89828070100PV1D20180618000120SPEAKER ASM                   M IMCTM S5MB11 TNTH  09020IMCT  S5 PTB  00004                    0830 SR        000000000000 DENSO TEN (THAILAND)180LPFL0055055180LPGL0251251                                                                                                                *          20180612 IMCT                IMCT                                                                                                                    WMF1806123.TXT
MDDDJ6254290201806                D89828070100PV1D20180618000060SPEAKER ASM                   M IMCTM S5MB11 TNTH  09020IMCT  S5 PTB  00004                    1300 SR        000000000000 DENSO TEN (THAILAND)180LPLL0024024                                                                                                                              *          20180612 IMCT                IMCT                                                                                                                    WMF1806123.TXT
MDDDJ6254291201806                D89828070100PV1D20180618000060SPEAKER ASM                   M IMCTM S5MB11 TNTH  09020IMCT  S5 PTB  00004                    2100 SR        000000000000 DENSO TEN (THAILAND)180LPDL0019019                                                                                                                              *          20180612 IMCT                IMCT                                                                                                                    WMF1806123.TXT
MDDDJ6254292201806                D89828070300PT1D20180616000060SPEAKER ASM                   M IMCTM S5NB082TNTH  09020IMCT  S5 PTB  00015                    0230 SR        000000000000 DENSO TEN (THAILAND)180LPGL0250250                                                                                                                              *          20180612 IMCT                IMCT                                                                                                                    WMF1806123.TXT
MDDDJ6254293201806                D89828070300PT1D20180618000120SPEAKER ASM                   M IMCTM S5NB082TNTH  09020IMCT  S5 PTB  00015                    0830 SR        000000000000 DENSO TEN (THAILAND)180LPFL0055055180LPGL0251251                                                                                                                *          20180612 IMCT                IMCT                                                                                                                    WMF1806123.TXT
MDDDJ6254294201806                D89828070300PT1D20180618000060SPEAKER ASM                   M IMCTM S5NB082TNTH  09020IMCT  S5 PTB  00015                    1300 SR        000000000000 DENSO TEN (THAILAND)180LPLL0024024                                                                                                                              *          20180612 IMCT                IMCT                                                                                                                    WMF1806123.TXT
MDDDJ6254295201806                D89828070300PT1D20180618000060SPEAKER ASM                   M IMCTM S5NB082TNTH  09020IMCT  S5 PTB  00015                    2100 SR        000000000000 DENSO TEN (THAILAND)180LPDL0019019                                                                                                                              *          20180612 IMCT                IMCT                                                                                                                    WMF1806123.TXT
MDDDJ6254296201806                D89831228300PT1D20180616000030RADIO;AM/FM,CD                M IMCTM S5NC06 TNTH  09020IMCT  S5 CPB  00003                    0230 SR        000000000000 DENSO TEN (THAILAND)180LPGL0250250                                                                                                                              *          20180612 IMCT                IMCT                                                                                                                    WMF1806123.TXT
MDDDJ6254297201806                D89831228300PT1D20180618000060RADIO;AM/FM,CD                M IMCTM S5NC06 TNTH  09020IMCT  S5 CPB  00003                    0830 SR        000000000000 DENSO TEN (THAILAND)180LPFL0055055180LPGL0251251                                                                                                                *          20180612 IMCT                IMCT                                                                                                                    WMF1806123.TXT
MDDDJ6254298201806                D89831228300PT1D20180618000030RADIO;AM/FM,CD                M IMCTM S5NC06 TNTH  09020IMCT  S5 CPB  00003                    2100 SR        000000000000 DENSO TEN (THAILAND)180LPDL0019019                                                                                                                              *          20180612 IMCT                IMCT                                                                                                                    WMF1806123.TXT
MDDDJ6254299201806                D89848581600PT1D20180618000030RADIO;AM/FM CD D              M IMCTM S5NC06 TNTH  09020IMCT  S5 PTB  00003                    1300 SR        000000000000 DENSO TEN (THAILAND)180LPLL0024024                                                                                                                              *          20180612 IMCT                IMCT                                                                                                                    WMF1806123.TXT
MDDUJ6226233201806                D89828070100PT4U20180616000030SPEAKER ASM                   M IMCTM S0FL05 TNTH  09020IMCT  S0 PTB  00004                    0400 SR        000000000000 DENSO TEN (THAILAND)180LUTU0058058                                                                                                                              *          20180612 IMCT                IMCT                                                                                                                    WMF1806123.TXT
MDDUJ6226234201806                D89828070100PT4U20180618000030SPEAKER ASM                   M IMCTM S0FL05 TNTH  09020IMCT  S0 PTB  00004                    1300 SR        000000000000 DENSO TEN (THAILAND)180LUSU0098098                                                                                                                              *          20180612 IMCT                IMCT                                                                                                                    WMF1806123.TXT
MDDUJ6226235201806                D89828070100PT4U20180618000030SPEAKER ASM                   M IMCTM S0FL05 TNTH  09020IMCT  S0 PTB  00004                    2230 SR        000000000000 DENSO TEN (THAILAND)180LUTU0059059                                                                                                                              *          20180612 IMCT                IMCT                                                                                                                    WMF1806123.TXT
MDDUJ6226236201806                D89828070200PV4U20180616000030SPEAKER ASM                   M IMCTM S0FR05 TNTH  09020IMCT  S0 PTB  00005                    0400 SR        000000000000 DENSO TEN (THAILAND)180LUTU0058058                                                                                                                              *          20180612 IMCT                IMCT                                                                                                                    WMF1806123.TXT
MDDUJ6226237201806                D89828070200PV4U20180618000030SPEAKER ASM                   M IMCTM S0FR05 TNTH  09020IMCT  S0 PTB  00005                    1300 SR        000000000000 DENSO TEN (THAILAND)180LUSU0098098                                                                                                                              *          20180612 IMCT                IMCT                                                                                                                    WMF1806123.TXT
MDDUJ6226238201806                D89828070200PV4U20180618000030SPEAKER ASM                   M IMCTM S0FR05 TNTH  09020IMCT  S0 PTB  00005                    2230 SR        000000000000 DENSO TEN (THAILAND)180LUTU0059059                                                                                                                              *          20180612 IMCT                IMCT                                                                                                                    WMF1806123.TXT
MDDUJ6226239201806                D89828070300PT4U20180616000030SPEAKER ASM                   M IMCTM S9TS02 TNTH  09020IMCT  S9 PTB  00015                    0400 SR        000000000000 DENSO TEN (THAILAND)180LUTU0058058                                                                                                                              *          20180612 IMCT                IMCT                                                                                                                    WMF1806123.TXT
MDDUJ6226240201806                D89828070300PT4U20180618000030SPEAKER ASM                   M IMCTM S9TS02 TNTH  09020IMCT  S9 PTB  00015                    1300 SR        000000000000 DENSO TEN (THAILAND)180LUSU0098098                                                                                                                              *          20180612 IMCT                IMCT                                                                                                                    WMF1806123.TXT
MDDUJ6226241201806                D89828070300PT4U20180618000030SPEAKER ASM                   M IMCTM S9TS02 TNTH  09020IMCT  S9 PTB  00015                    2230 SR        000000000000 DENSO TEN (THAILAND)180LUTU0059059                                                                                                                              *          20180612 IMCT                IMCT                                                                                                                    WMF1806123.TXT
MDEDJ6262890201806                D89828070100PV1D20180615000060SPEAKER ASM                   M IMCTM S5MB11 TNTH  09020IMCT  S5 PTB  00004                    2230 SR        000000000000 DENSO TEN (THAILAND)17083QL000200218018XL0005005                                                                                                                *          20180612 IMCT                IMCT                                                                                                                    WMF1806123.TXT
MDEDJ6262891201806                D89828070100PV1D20180616000060SPEAKER ASM                   M IMCTM S5MB11 TNTH  09020IMCT  S5 PTB  00004                    0400 SR        000000000000 DENSO TEN (THAILAND)18065XL0004005                                                                                                                              *          20180612 IMCT                IMCT                                                                                                                    WMF1806123.TXT
MDEDJ6262892201806                D89828070100PV1D20180618000030SPEAKER ASM                   M IMCTM S5MB11 TNTH  09020IMCT  S5 PTB  00004                    1030 SR        000000000000 DENSO TEN (THAILAND)18082UL0046046                                                                                                                              *          20180612 IMCT                IMCT                                                                                                                    WMF1806123.TXT
MDEDJ6262893201806                D89828070100PV1D20180618000060SPEAKER ASM                   M IMCTM S5MB11 TNTH  09020IMCT  S5 PTB  00004                    1300 SR        000000000000 DENSO TEN (THAILAND)18007ZL010610618061UL0012012                                                                                                                *          20180612 IMCT                IMCT                                                                                                                    WMF1806123.TXT
MDEDJ6262894201806                D89828070100PV1D20180618000090SPEAKER ASM                   M IMCTM S5MB11 TNTH  09020IMCT  S5 PTB  00004                    1600 SR        000000000000 DENSO TEN (THAILAND)18008YL001101218061UL0013013                                                                                                                *          20180612 IMCT                IMCT                                                                                                                    WMF1806123.TXT
MDEDJ6262895201806                D89828070100PV4D20180616000030SPEAKER ASM                   M IMCTM S0FL05 TNTH  09020IMCT  S0 PTB  00004                    0230 SR        000000000000 DENSO TEN (THAILAND)18098UU0013013                                                                                                                              *          20180612 IMCT                IMCT                                                                                                                    WMF1806123.TXT
MDEDJ6262896201806                D89828070100PV4D20180616000030SPEAKER ASM                   M IMCTM S0FL05 TNTH  09020IMCT  S0 PTB  00004                    0400 SR        000000000000 DENSO TEN (THAILAND)18074XU0001001                                                                                                                              *          20180612 IMCT                IMCT                                                                                                                    WMF1806123.TXT
MDEDJ6262897201806                D89828070100PV4D20180618000030SPEAKER ASM                   M IMCTM S0FL05 TNTH  09020IMCT  S0 PTB  00004                    1030 SR        000000000000 DENSO TEN (THAILAND)18042ZU0005005                                                                                                                              *          20180612 IMCT                IMCT                                                                                                                    WMF1806123.TXT
MDEDJ6262898201806                D89828070100PV4D20180618000030SPEAKER ASM                   M IMCTM S0FL05 TNTH  09020IMCT  S0 PTB  00004                    1300 SR        000000000000 DENSO TEN (THAILAND)18064UU0011011                                                                                                                              *          20180612 IMCT                IMCT                                                                                                                    WMF1806123.TXT
MDEDJ6262899201806                D89828070100PV4D20180618000030SPEAKER ASM                   M IMCTM S0FL05 TNTH  09020IMCT  S0 PTB  00004                    2100 SR        000000000000 DENSO TEN (THAILAND)18065UU0007007                                                                                                                              *          20180612 IMCT                IMCT                                                                                                                    WMF1806123.TXT
MDEDJ6262900201806                D89828070200PV1D20180615000030SPEAKER ASM                   M IMCTM S5MA14 TNTH  09020IMCT  S5 PTB  00005                    2230 SR        000000000000 DENSO TEN (THAILAND)17083QL0002002                                                                                                                              *          20180612 IMCT                IMCT                                                                                                                    WMF1806123.TXT
MDEDJ6262901201806                D89828070200PV1D20180616000060SPEAKER ASM                   M IMCTM S5MA14 TNTH  09020IMCT  S5 PTB  00005                    0400 SR        000000000000 DENSO TEN (THAILAND)18065XL0004005                                                                                                                              *          20180612 IMCT                IMCT                                                                                                                    WMF1806123.TXT
MDEDJ6262902201806                D89828070200PV1D20180618000030SPEAKER ASM                   M IMCTM S5MA14 TNTH  09020IMCT  S5 PTB  00005                    1030 SR        000000000000 DENSO TEN (THAILAND)18082UL0046046                                                                                                                              *          20180612 IMCT                IMCT                                                                                                                    WMF1806123.TXT
MDEDJ6262903201806                D89828070200PV1D20180618000060SPEAKER ASM                   M IMCTM S5MA14 TNTH  09020IMCT  S5 PTB  00005                    1600 SR        000000000000 DENSO TEN (THAILAND)18008YL0011012                                                                                                                              *          20180612 IMCT                IMCT                                                                                                                    WMF1806123.TXT
MDEDJ6262904201806                D89828070200PV4D20180616000030SPEAKER ASM                   M IMCTM S0FR05 TNTH  09020IMCT  S0 PTB  00005                    0230 SR        000000000000 DENSO TEN (THAILAND)18098UU0013013                                                                                                                              *          20180612 IMCT                IMCT                                                                                                                    WMF1806123.TXT
MDEDJ6262905201806                D89828070200PV4D20180618000030SPEAKER ASM                   M IMCTM S0FR05 TNTH  09020IMCT  S0 PTB  00005                    2100 SR        000000000000 DENSO TEN (THAILAND)18065UU0007007                                                                                                                              *          20180612 IMCT                IMCT                                                                                                                    WMF1806123.TXT
MDEDJ6262906201806                D89828070300PT1D20180615000060SPEAKER ASM                   M IMCTM S5NB082TNTH  09020IMCT  S5 PTB  00015                    2230 SR        000000000000 DENSO TEN (THAILAND)17083QL000200218018XL0005005                                                                                                                *          20180612 IMCT                IMCT                                                                                                                    WMF1806123.TXT
MDEDJ6262907201806                D89828070300PT1D20180616000060SPEAKER ASM                   M IMCTM S5NB082TNTH  09020IMCT  S5 PTB  00015                    0400 SR        000000000000 DENSO TEN (THAILAND)18065XL0004005                                                                                                                              *          20180612 IMCT                IMCT                                                                                                                    WMF1806123.TXT
MDEDJ6262908201806                D89828070300PT1D20180618000030SPEAKER ASM                   M IMCTM S5NB082TNTH  09020IMCT  S5 PTB  00015                    1030 SR        000000000000 DENSO TEN (THAILAND)18082UL0046046                                                                                                                              *          20180612 IMCT                IMCT                                                                                                                    WMF1806123.TXT
MDEDJ6262909201806                D89828070300PT1D20180618000030SPEAKER ASM                   M IMCTM S5NB082TNTH  09020IMCT  S5 PTB  00015                    1300 SR        000000000000 DENSO TEN (THAILAND)18061UL0012012                                                                                                                              *          20180612 IMCT                IMCT                                                                                                                    WMF1806123.TXT
MDEDJ6262910201806                D89828070300PT1D20180618000090SPEAKER ASM                   M IMCTM S5NB082TNTH  09020IMCT  S5 PTB  00015                    1600 SR        000000000000 DENSO TEN (THAILAND)18008YL001101218061UL0013013                                                                                                                *          20180612 IMCT                IMCT                                                                                                                    WMF1806123.TXT
MDEDJ6262911201806                D89828070300PT4D20180616000030SPEAKER ASM                   M IMCTM S9TS02 TNTH  09020IMCT  S9 PTB  00015                    0230 SR        000000000000 DENSO TEN (THAILAND)18098UU0013013                                                                                                                              *          20180612 IMCT                IMCT                                                                                                                    WMF1806123.TXT
MDEDJ6262912201806                D89828070300PT4D20180618000030SPEAKER ASM                   M IMCTM S9TS02 TNTH  09020IMCT  S9 PTB  00015                    1030 SR        000000000000 DENSO TEN (THAILAND)18042ZU0005005                                                                                                                              *          20180612 IMCT                IMCT                                                                                                                    WMF1806123.TXT
MDEDJ6262913201806                D89828070300PT4D20180618000030SPEAKER ASM                   M IMCTM S9TS02 TNTH  09020IMCT  S9 PTB  00015                    1300 SR        000000000000 DENSO TEN (THAILAND)18064UU0011011                                                                                                                              *          20180612 IMCT                IMCT                                                                                                                    WMF1806123.TXT
MDEDJ6262914201806                D89828070300PT4D20180618000030SPEAKER ASM                   M IMCTM S9TS02 TNTH  09020IMCT  S9 PTB  00015                    2100 SR        000000000000 DENSO TEN (THAILAND)18065UU0007007                                                                                                                              *          20180612 IMCT                IMCT                                                                                                                    WMF1806123.TXT
MDEDJ6262915201806                D89829645510PT1D20180615000015RADIO;ASM DVD                 M IMCTM S5NC06 TNTH  09020IMCT  S5 PTB  00003                    2230 SR        000000000000 DENSO TEN (THAILAND)17083QL0002002                                                                                                                              *          20180612 IMCT                IMCT                                                                                                                    WMF1806123.TXT
MDEDJ6262916201806                D89848581800PT1D20180618000015RADIO;AM/FM CD D              M IMCTM S5NC06 TNTH  09020IMCT  S5 PTB  00003                    1030 SR        000000000000 DENSO TEN (THAILAND)18082UL0046046                                                                                                                              *          20180612 IMCT                IMCT                                                                                                                    WMF1806123.TXT
MDEDJ6262917201806                D89848581800PT1D20180618000015RADIO;AM/FM CD D              M IMCTM S5NC06 TNTH  09020IMCT  S5 PTB  00003                    1300 SR        000000000000 DENSO TEN (THAILAND)18061UL0012012                                                                                                                              *          20180612 IMCT                IMCT                                                                                                                    WMF1806123.TXT
MDEDJ6262918201806                D89848581800PT1D20180618000015RADIO;AM/FM CD D              M IMCTM S5NC06 TNTH  09020IMCT  S5 PTB  00003                    1600 SR        000000000000 DENSO TEN (THAILAND)18061UL0013013                                                                                                                              *          20180612 IMCT                IMCT                                                                                                                    WMF1806123.TXT
MDEDJ6262919201806                D89848581800PT4D20180616000015RADIO;AM/FM CD D              M IMCTM S9CO001TNTH  09020IMCT  S9 PTB  00003                    0230 SR        000000000000 DENSO TEN (THAILAND)18098UU0013013                                                                                                                              *          20180612 IMCT                IMCT                                                                                                                    WMF1806123.TXT
MDEDJ6262920201806                D89848581800PT4D20180618000015RADIO;AM/FM CD D              M IMCTM S9CO001TNTH  09020IMCT  S9 PTB  00003                    2100 SR        000000000000 DENSO TEN (THAILAND)18065UU0007007                                                                                                                              *          20180612 IMCT                IMCT                                                                                                                    WMF1806123.TXT
MDEDJ6262921201806                D89848582500PT4D20180618000015RADIO;AM/FM CD D              M IMCTM S9CO001TNTH  09020IMCT  S9 PTB  00003                    1300 SR        000000000000 DENSO TEN (THAILAND)18064UU0011011                                                                                                                              *          20180612 IMCT                IMCT                                                                                                                    WMF1806123.TXT
MDEUJ6239999201806                D89828070100PT4U20180616000030SPEAKER ASM                   M IMCTM S0FL05 TNTH  09020IMCT  S0 PTB  00004                    0230 SR        000000000000 DENSO TEN (THAILAND)18025UU0084084                                                                                                                              *          20180612 IMCT                IMCT                                                                                                                    WMF1806123.TXT
MDEUJ6240000201806                D89828070100PT4U20180618000030SPEAKER ASM                   M IMCTM S0FL05 TNTH  09020IMCT  S0 PTB  00004                    0830 SR        000000000000 DENSO TEN (THAILAND)18021UU0109109                                                                                                                              *          20180612 IMCT                IMCT                                                                                                                    WMF1806123.TXT
MDEUJ6240001201806                D89828070100PT4U20180618000060SPEAKER ASM                   M IMCTM S0FL05 TNTH  09020IMCT  S0 PTB  00004                    1600 SR        000000000000 DENSO TEN (THAILAND)180C98U000100118019UU0020020                                                                                                                *          20180612 IMCT                IMCT                                                                                                                    WMF1806123.TXT
MDEUJ6240002201806                D89828070200PV4U20180616000030SPEAKER ASM                   M IMCTM S0FR05 TNTH  09020IMCT  S0 PTB  00005                    0230 SR        000000000000 DENSO TEN (THAILAND)18025UU0084084                                                                                                                              *          20180612 IMCT                IMCT                                                                                                                    WMF1806123.TXT
MDEUJ6240003201806                D89828070200PV4U20180618000030SPEAKER ASM                   M IMCTM S0FR05 TNTH  09020IMCT  S0 PTB  00005                    0830 SR        000000000000 DENSO TEN (THAILAND)18021UU0109109                                                                                                                              *          20180612 IMCT                IMCT                                                                                                                    WMF1806123.TXT
MDEUJ6240004201806                D89828070200PV4U20180618000060SPEAKER ASM                   M IMCTM S0FR05 TNTH  09020IMCT  S0 PTB  00005                    1600 SR        000000000000 DENSO TEN (THAILAND)180C98U000100118019UU0020020                                                                                                                *          20180612 IMCT                IMCT                                                                                                                    WMF1806123.TXT
MDEUJ6240005201806                D89828070300PT4U20180616000030SPEAKER ASM                   M IMCTM S9TS02 TNTH  09020IMCT  S9 PTB  00015                    0230 SR        000000000000 DENSO TEN (THAILAND)18025UU0084084                                                                                                                              *          20180612 IMCT                IMCT                                                                                                                    WMF1806123.TXT
MDEUJ6240006201806                D89828070300PT4U20180618000030SPEAKER ASM                   M IMCTM S9TS02 TNTH  09020IMCT  S9 PTB  00015                    0830 SR        000000000000 DENSO TEN (THAILAND)18021UU0109109                                                                                                                              *          20180612 IMCT                IMCT                                                                                                                    WMF1806123.TXT
MDEUJ6240007201806                D89828070300PT4U20180618000060SPEAKER ASM                   M IMCTM S9TS02 TNTH  09020IMCT  S9 PTB  00015                    1600 SR        000000000000 DENSO TEN (THAILAND)180C98U000100118019UU0020020                                                                                                                *          20180612 IMCT                IMCT                                                                                                                    WMF1806123.TXT
MDEUJ6240008201806                D89848584410PT4U20180618000015RADIO;AM/FM CD D              M IMCTM S22000 TNTH  09020IMCT  S2*    X00030                    1600 SR        000000000000 DENSO TEN (THAILAND)180C98U0001001                                                                                                                              *          20180612 IMCT                IMCT                                                                                                                    WMF1806123.TXT
MDEUJ6240009201806                D89848584700PT4U20180618000015RADIO;AM/FM CD D              M IMCTM S9CO001TNTH  09020IMCT  S9 PTB  00003                    1600 SR        000000000000 DENSO TEN (THAILAND)18019UU0020020                                                                                                                              *          20180612 IMCT                IMCT                                                                                                                    WMF1806123.TXT
