REC2018062120180621ISUZU                              6      
MDEBJ6T02513201806                D89828070100PT4B20180626000002SPEAKER ASM                   M IMCTM S7FL05 TNTH  09020IMCT  S7 PTB  00004                    1300 SR        000000000000 DENSO TEN (THAILAND)18031UR0001   18031UR0001   Y180605815    Y180605815    000000                                                                              *R         20180621 IMCT                IMCT                                                                                                                    RMF1806214.TXT
MDEBJ6T02514201806                D89828070200PV4B20180626000030SPEAKER ASM                   M IMCTM S7FL05 TNTH  09020IMCT  S7 PTB  00005                    1030 SR        000000000000 DENSO TEN (THAILAND)18025UR0022   18031UR0001   Y180605801    Y180605815    000000                                                                              *R         20180621 IMCT                IMCT                                                                                                                    RMF1806214.TXT
MDEBJ6T02515201806                D89828070300PT4B20180626000030SPEAKER ASM                   M IMCTM S7TS02 TNTH  09020IMCT  S7 PTB  00015                    1030 SR        000000000000 DENSO TEN (THAILAND)18025UR0022   18031UR0001   Y180605801    Y180605815    000000                                                                              *R         20180621 IMCT                IMCT                                                                                                                    RMF1806214.TXT
MDEBJ6203072201806                D89828070100PT4B20180626000028SPEAKER ASM                   M IMCTM S7FL05 TNTH  09020IMCT  S7 PTB  00004                    1030 SR        000000000000 DENSO TEN (THAILAND)18025UR0022   18025UR0035   Y180605801    Y180605814    000000                                                                              *R         20180621 IMCT                IMCT                                                                                                                    RMF1806214.TXT
MDEFJ6T20104201806                D89828070100PV4F20180625000026SPEAKER ASM                   M IMCTM S7FL05 TNTH  09020IMCT  S7 PTB  00004                    2230 SR        000000000000 DENSO TEN (THAILAND)17017QR0074   18074XR0022   S180605703    S180605715    000000                                                                              *R         20180621 IMCT                IMCT                                                                                                                    RMF1806214.TXT
MDEFJ6254888201806                D89828070100PV4F20180625000004SPEAKER ASM                   M IMCTM S7FL05 TNTH  09020IMCT  S7 PTB  00004                    2100 SR        000000000000 DENSO TEN (THAILAND)17017QR0072   17017QR0073   S180605701    S180605702    000000                                                                              *R         20180621 IMCT                IMCT                                                                                                                    RMF1806214.TXT
