REC2018061320180613ISUZU                              4      
MAEDJ6600932201808                 89750126100PT1D20180716000001RADIO;AM/FM CD D              M IMCTM ST00000TNTH  09020IMCT  ST*PTB  00003  DC                0000 SR        000000000000 DENSO TEN (THAILAND)190G95L0001001                                                                                                                              *P         20180613 IMCT                IMCT                                                                                                                    WMF1806131.TXT
MAEDJ6600933201808                 89828070100PV1D20180716000002SPEAKER ASM                   M IMCTM ST00000TNTH  09020IMCT  ST PTB  00004  DC                0000 SR        000000000000 DENSO TEN (THAILAND)190G95L0001001                                                                                                                              *P         20180613 IMCT                IMCT                                                                                                                    WMF1806131.TXT
MAEDJ6600934201808                 89828070200PV1D20180716000002SPEAKER ASM                   M IMCTM ST00000TNTH  09020IMCT  ST PTB  00005  DC                0000 SR        000000000000 DENSO TEN (THAILAND)190G95L0001001                                                                                                                              *P         20180613 IMCT                IMCT                                                                                                                    WMF1806131.TXT
MAEDJ6600935201808                 89828070300PT1D20180716000002SPEAKER ASM                   M IMCTM ST00000TNTH  09020IMCT  ST PTB  00015  DC                0000 SR        000000000000 DENSO TEN (THAILAND)190G95L0001001                                                                                                                              *P         20180613 IMCT                IMCT                                                                                                                    WMF1806131.TXT
