REC2018061920180619ISUZU                              65     
MDDDJ6282972201806                D89821984430PT1D20180623000030RADIO;AM/FM,CD                M IMCTM S5NC06 TNTH  09020IMCT  S5 PTB  00005                    1030 SR        000000000000 DENSO TEN (THAILAND)180LNGL0145145                                                                                                                              *          20180619 IMCT                IMCT                                                                                                                    WMF1806194.TXT
MDDDJ6282973201806                D89821984430PT1D20180623000030RADIO;AM/FM,CD                M IMCTM S5NC06 TNTH  09020IMCT  S5 PTB  00005                    2100 SR        000000000000 DENSO TEN (THAILAND)180LXFL0008008                                                                                                                              *          20180619 IMCT                IMCT                                                                                                                    WMF1806194.TXT
MDDDJ6282974201806                D89828070100PV1D20180623000120SPEAKER ASM                   M IMCTM S5MB11 TNTH  09020IMCT  S5 PTB  00004                    0230 SR        000000000000 DENSO TEN (THAILAND)180LPFL0060061                                                                                                                              *          20180619 IMCT                IMCT                                                                                                                    WMF1806194.TXT
MDDDJ6282975201806                D89828070100PV1D20180623000060SPEAKER ASM                   M IMCTM S5MB11 TNTH  09020IMCT  S5 PTB  00004                    0830 SR        000000000000 DENSO TEN (THAILAND)180LPGL0259259                                                                                                                              *          20180619 IMCT                IMCT                                                                                                                    WMF1806194.TXT
MDDDJ6282976201806                D89828070100PV1D20180623000060SPEAKER ASM                   M IMCTM S5MB11 TNTH  09020IMCT  S5 PTB  00004                    1030 SR        000000000000 DENSO TEN (THAILAND)180LNGL0145145                                                                                                                              *          20180619 IMCT                IMCT                                                                                                                    WMF1806194.TXT
MDDDJ6282977201806                D89828070100PV1D20180623000060SPEAKER ASM                   M IMCTM S5MB11 TNTH  09020IMCT  S5 PTB  00004                    1300 SR        000000000000 DENSO TEN (THAILAND)180LXAL0029029                                                                                                                              *          20180619 IMCT                IMCT                                                                                                                    WMF1806194.TXT
MDDDJ6282978201806                D89828070100PV1D20180623000060SPEAKER ASM                   M IMCTM S5MB11 TNTH  09020IMCT  S5 PTB  00004                    1600 SR        000000000000 DENSO TEN (THAILAND)180LPHL0018018                                                                                                                              *          20180619 IMCT                IMCT                                                                                                                    WMF1806194.TXT
MDDDJ6282979201806                D89828070100PV1D20180623000060SPEAKER ASM                   M IMCTM S5MB11 TNTH  09020IMCT  S5 PTB  00004                    2100 SR        000000000000 DENSO TEN (THAILAND)180LXFL0008008                                                                                                                              *          20180619 IMCT                IMCT                                                                                                                    WMF1806194.TXT
MDDDJ6282980201806                D89828070300PT1D20180623000120SPEAKER ASM                   M IMCTM S5NB082TNTH  09020IMCT  S5 PTB  00015                    0230 SR        000000000000 DENSO TEN (THAILAND)180LPFL0060061                                                                                                                              *          20180619 IMCT                IMCT                                                                                                                    WMF1806194.TXT
MDDDJ6282981201806                D89828070300PT1D20180623000060SPEAKER ASM                   M IMCTM S5NB082TNTH  09020IMCT  S5 PTB  00015                    0830 SR        000000000000 DENSO TEN (THAILAND)180LPGL0259259                                                                                                                              *          20180619 IMCT                IMCT                                                                                                                    WMF1806194.TXT
MDDDJ6282982201806                D89828070300PT1D20180623000060SPEAKER ASM                   M IMCTM S5NB082TNTH  09020IMCT  S5 PTB  00015                    1600 SR        000000000000 DENSO TEN (THAILAND)180LPHL0018018                                                                                                                              *          20180619 IMCT                IMCT                                                                                                                    WMF1806194.TXT
MDDDJ6282983201806                D89831228300PT1D20180623000060RADIO;AM/FM,CD                M IMCTM S5NC06 TNTH  09020IMCT  S5 CPB  00003                    0230 SR        000000000000 DENSO TEN (THAILAND)180LPFL0060061                                                                                                                              *          20180619 IMCT                IMCT                                                                                                                    WMF1806194.TXT
MDDDJ6282984201806                D89831228300PT1D20180623000030RADIO;AM/FM,CD                M IMCTM S5NC06 TNTH  09020IMCT  S5 CPB  00003                    0830 SR        000000000000 DENSO TEN (THAILAND)180LPGL0259259                                                                                                                              *          20180619 IMCT                IMCT                                                                                                                    WMF1806194.TXT
MDDDJ6282985201806                D89831228300PT1D20180623000030RADIO;AM/FM,CD                M IMCTM S5NC06 TNTH  09020IMCT  S5 CPB  00003                    1600 SR        000000000000 DENSO TEN (THAILAND)180LPHL0018018                                                                                                                              *          20180619 IMCT                IMCT                                                                                                                    WMF1806194.TXT
MDDUJ6240586201806                D89828070100PT4U20180623000030SPEAKER ASM                   M IMCTM S0FL05 TNTH  09020IMCT  S0 PTB  00004                    0400 SR        000000000000 DENSO TEN (THAILAND)180LUSU0104104                                                                                                                              *          20180619 IMCT                IMCT                                                                                                                    WMF1806194.TXT
MDDUJ6240587201806                D89828070100PT4U20180623000030SPEAKER ASM                   M IMCTM S0FL05 TNTH  09020IMCT  S0 PTB  00004                    1300 SR        000000000000 DENSO TEN (THAILAND)180LUTU0068068                                                                                                                              *          20180619 IMCT                IMCT                                                                                                                    WMF1806194.TXT
MDDUJ6240588201806                D89828070100PT4U20180623000030SPEAKER ASM                   M IMCTM S0FL05 TNTH  09020IMCT  S0 PTB  00004                    1600 SR        000000000000 DENSO TEN (THAILAND)180LUTU0069069                                                                                                                              *          20180619 IMCT                IMCT                                                                                                                    WMF1806194.TXT
MDDUJ6240589201806                D89828070200PV4U20180623000030SPEAKER ASM                   M IMCTM S0FR05 TNTH  09020IMCT  S0 PTB  00005                    0400 SR        000000000000 DENSO TEN (THAILAND)180LUSU0104104                                                                                                                              *          20180619 IMCT                IMCT                                                                                                                    WMF1806194.TXT
MDDUJ6240590201806                D89828070200PV4U20180623000030SPEAKER ASM                   M IMCTM S0FR05 TNTH  09020IMCT  S0 PTB  00005                    1300 SR        000000000000 DENSO TEN (THAILAND)180LUTU0068068                                                                                                                              *          20180619 IMCT                IMCT                                                                                                                    WMF1806194.TXT
MDDUJ6240591201806                D89828070200PV4U20180623000030SPEAKER ASM                   M IMCTM S0FR05 TNTH  09020IMCT  S0 PTB  00005                    1600 SR        000000000000 DENSO TEN (THAILAND)180LUTU0069069                                                                                                                              *          20180619 IMCT                IMCT                                                                                                                    WMF1806194.TXT
MDDUJ6240592201806                D89828070300PT4U20180623000030SPEAKER ASM                   M IMCTM S9TS02 TNTH  09020IMCT  S9 PTB  00015                    0400 SR        000000000000 DENSO TEN (THAILAND)180LUSU0104104                                                                                                                              *          20180619 IMCT                IMCT                                                                                                                    WMF1806194.TXT
MDDUJ6240593201806                D89828070300PT4U20180623000030SPEAKER ASM                   M IMCTM S9TS02 TNTH  09020IMCT  S9 PTB  00015                    1300 SR        000000000000 DENSO TEN (THAILAND)180LUTU0068068                                                                                                                              *          20180619 IMCT                IMCT                                                                                                                    WMF1806194.TXT
MDDUJ6240594201806                D89828070300PT4U20180623000030SPEAKER ASM                   M IMCTM S9TS02 TNTH  09020IMCT  S9 PTB  00015                    1600 SR        000000000000 DENSO TEN (THAILAND)180LUTU0069069                                                                                                                              *          20180619 IMCT                IMCT                                                                                                                    WMF1806194.TXT
MDEDJ6295085201806                D89828070100PV1D20180622000060SPEAKER ASM                   M IMCTM S5MB11 TNTH  09020IMCT  S5 PTB  00004                    2230 SR        000000000000 DENSO TEN (THAILAND)18080UL0031032                                                                                                                              *          20180619 IMCT                IMCT                                                                                                                    WMF1806194.TXT
MDEDJ6295086201806                D89828070100PV1D20180623000060SPEAKER ASM                   M IMCTM S5MB11 TNTH  09020IMCT  S5 PTB  00004                    0400 SR        000000000000 DENSO TEN (THAILAND)18098XL0014015                                                                                                                              *          20180619 IMCT                IMCT                                                                                                                    WMF1806194.TXT
MDEDJ6295087201806                D89828070100PV1D20180623000060SPEAKER ASM                   M IMCTM S5MB11 TNTH  09020IMCT  S5 PTB  00004                    1300 SR        000000000000 DENSO TEN (THAILAND)18001VL0030031                                                                                                                              *          20180619 IMCT                IMCT                                                                                                                    WMF1806194.TXT
MDEDJ6295088201806                D89828070100PV1D20180623000030SPEAKER ASM                   M IMCTM S5MB11 TNTH  09020IMCT  S5 PTB  00004                    1600 SR        000000000000 DENSO TEN (THAILAND)18068UL0013013                                                                                                                              *          20180619 IMCT                IMCT                                                                                                                    WMF1806194.TXT
MDEDJ6295089201806                D89828070100PV1D20180623000030SPEAKER ASM                   M IMCTM S5MB11 TNTH  09020IMCT  S5 PTB  00004                    2100 SR        000000000000 DENSO TEN (THAILAND)18098WL0010010                                                                                                                              *          20180619 IMCT                IMCT                                                                                                                    WMF1806194.TXT
MDEDJ6295090201806                D89828070100PV4D20180623000030SPEAKER ASM                   M IMCTM S0FL05 TNTH  09020IMCT  S0 PTB  00004                    0230 SR        000000000000 DENSO TEN (THAILAND)18080UU0008008                                                                                                                              *          20180619 IMCT                IMCT                                                                                                                    WMF1806194.TXT
MDEDJ6295091201806                D89828070100PV4D20180623000030SPEAKER ASM                   M IMCTM S0FL05 TNTH  09020IMCT  S0 PTB  00004                    1300 SR        000000000000 DENSO TEN (THAILAND)18098UU0017017                                                                                                                              *          20180619 IMCT                IMCT                                                                                                                    WMF1806194.TXT
MDEDJ6295092201806                D89828070100PV4D20180623000030SPEAKER ASM                   M IMCTM S0FL05 TNTH  09020IMCT  S0 PTB  00004                    2100 SR        000000000000 DENSO TEN (THAILAND)18065UU0008008                                                                                                                              *          20180619 IMCT                IMCT                                                                                                                    WMF1806194.TXT
MDEDJ6295093201806                D89828070200PV1D20180622000060SPEAKER ASM                   M IMCTM S5MA14 TNTH  09020IMCT  S5 PTB  00005                    2230 SR        000000000000 DENSO TEN (THAILAND)18080UL0031032                                                                                                                              *          20180619 IMCT                IMCT                                                                                                                    WMF1806194.TXT
MDEDJ6295094201806                D89828070200PV1D20180623000060SPEAKER ASM                   M IMCTM S5MA14 TNTH  09020IMCT  S5 PTB  00005                    0400 SR        000000000000 DENSO TEN (THAILAND)18098XL0014015                                                                                                                              *          20180619 IMCT                IMCT                                                                                                                    WMF1806194.TXT
MDEDJ6295095201806                D89828070200PV1D20180623000060SPEAKER ASM                   M IMCTM S5MA14 TNTH  09020IMCT  S5 PTB  00005                    1300 SR        000000000000 DENSO TEN (THAILAND)18001VL0030031                                                                                                                              *          20180619 IMCT                IMCT                                                                                                                    WMF1806194.TXT
MDEDJ6295096201806                D89828070200PV1D20180623000030SPEAKER ASM                   M IMCTM S5MA14 TNTH  09020IMCT  S5 PTB  00005                    1600 SR        000000000000 DENSO TEN (THAILAND)18068UL0013013                                                                                                                              *          20180619 IMCT                IMCT                                                                                                                    WMF1806194.TXT
MDEDJ6295097201806                D89828070200PV4D20180623000030SPEAKER ASM                   M IMCTM S0FR05 TNTH  09020IMCT  S0 PTB  00005                    0230 SR        000000000000 DENSO TEN (THAILAND)18080UU0008008                                                                                                                              *          20180619 IMCT                IMCT                                                                                                                    WMF1806194.TXT
MDEDJ6295098201806                D89828070200PV4D20180623000030SPEAKER ASM                   M IMCTM S0FR05 TNTH  09020IMCT  S0 PTB  00005                    1300 SR        000000000000 DENSO TEN (THAILAND)18098UU0017017                                                                                                                              *          20180619 IMCT                IMCT                                                                                                                    WMF1806194.TXT
MDEDJ6295099201806                D89828070200PV4D20180623000030SPEAKER ASM                   M IMCTM S0FR05 TNTH  09020IMCT  S0 PTB  00005                    2100 SR        000000000000 DENSO TEN (THAILAND)18065UU0008008                                                                                                                              *          20180619 IMCT                IMCT                                                                                                                    WMF1806194.TXT
MDEDJ6295100201806                D89828070300PT1D20180622000060SPEAKER ASM                   M IMCTM S5NB082TNTH  09020IMCT  S5 PTB  00015                    2230 SR        000000000000 DENSO TEN (THAILAND)18080UL0031032                                                                                                                              *          20180619 IMCT                IMCT                                                                                                                    WMF1806194.TXT
MDEDJ6295101201806                D89828070300PT1D20180623000060SPEAKER ASM                   M IMCTM S5NB082TNTH  09020IMCT  S5 PTB  00015                    0400 SR        000000000000 DENSO TEN (THAILAND)18098XL0014015                                                                                                                              *          20180619 IMCT                IMCT                                                                                                                    WMF1806194.TXT
MDEDJ6295102201806                D89828070300PT1D20180623000060SPEAKER ASM                   M IMCTM S5NB082TNTH  09020IMCT  S5 PTB  00015                    1300 SR        000000000000 DENSO TEN (THAILAND)18001VL0030031                                                                                                                              *          20180619 IMCT                IMCT                                                                                                                    WMF1806194.TXT
MDEDJ6295103201806                D89828070300PT1D20180623000030SPEAKER ASM                   M IMCTM S5NB082TNTH  09020IMCT  S5 PTB  00015                    1600 SR        000000000000 DENSO TEN (THAILAND)18068UL0013013                                                                                                                              *          20180619 IMCT                IMCT                                                                                                                    WMF1806194.TXT
MDEDJ6295104201806                D89828070300PT4D20180623000030SPEAKER ASM                   M IMCTM S9TS02 TNTH  09020IMCT  S9 PTB  00015                    0230 SR        000000000000 DENSO TEN (THAILAND)18080UU0008008                                                                                                                              *          20180619 IMCT                IMCT                                                                                                                    WMF1806194.TXT
MDEDJ6295105201806                D89828070300PT4D20180623000030SPEAKER ASM                   M IMCTM S9TS02 TNTH  09020IMCT  S9 PTB  00015                    1300 SR        000000000000 DENSO TEN (THAILAND)18098UU0017017                                                                                                                              *          20180619 IMCT                IMCT                                                                                                                    WMF1806194.TXT
MDEDJ6295106201806                D89828070300PT4D20180623000030SPEAKER ASM                   M IMCTM S9TS02 TNTH  09020IMCT  S9 PTB  00015                    2100 SR        000000000000 DENSO TEN (THAILAND)18065UU0008008                                                                                                                              *          20180619 IMCT                IMCT                                                                                                                    WMF1806194.TXT
MDEDJ6295107201806                D89848581800PT1D20180622000030RADIO;AM/FM CD D              M IMCTM S5NC06 TNTH  09020IMCT  S5 PTB  00003                    2230 SR        000000000000 DENSO TEN (THAILAND)18080UL0031032                                                                                                                              *          20180619 IMCT                IMCT                                                                                                                    WMF1806194.TXT
MDEDJ6295108201806                D89848581800PT4D20180623000015RADIO;AM/FM CD D              M IMCTM S9CO001TNTH  09020IMCT  S9 PTB  00003                    0230 SR        000000000000 DENSO TEN (THAILAND)18080UU0008008                                                                                                                              *          20180619 IMCT                IMCT                                                                                                                    WMF1806194.TXT
MDEDJ6295109201806                D89848581800PT4D20180623000015RADIO;AM/FM CD D              M IMCTM S9CO001TNTH  09020IMCT  S9 PTB  00003                    1300 SR        000000000000 DENSO TEN (THAILAND)18098UU0017017                                                                                                                              *          20180619 IMCT                IMCT                                                                                                                    WMF1806194.TXT
MDEDJ6295110201806                D89848581800PT4D20180623000015RADIO;AM/FM CD D              M IMCTM S9CO001TNTH  09020IMCT  S9 PTB  00003                    2100 SR        000000000000 DENSO TEN (THAILAND)18065UU0008008                                                                                                                              *          20180619 IMCT                IMCT                                                                                                                    WMF1806194.TXT
MDEDJ6295111201806                D89848582100PT1D20180623000030RADIO;AM/FM CD D              M IMCTM S5NC06 TNTH  09020IMCT  S5 PTB  00003                    0400 SR        000000000000 DENSO TEN (THAILAND)18098XL0014015                                                                                                                              *          20180619 IMCT                IMCT                                                                                                                    WMF1806194.TXT
MDEUJ6260234201806                D89828070100PT4U20180623000030SPEAKER ASM                   M IMCTM S0FL05 TNTH  09020IMCT  S0 PTB  00004                    0230 SR        000000000000 DENSO TEN (THAILAND)18025UU0095095                                                                                                                              *          20180619 IMCT                IMCT                                                                                                                    WMF1806194.TXT
MDEUJ6260235201806                D89828070100PT4U20180623000030SPEAKER ASM                   M IMCTM S0FL05 TNTH  09020IMCT  S0 PTB  00004                    0400 SR        000000000000 DENSO TEN (THAILAND)18025UU0096096                                                                                                                              *          20180619 IMCT                IMCT                                                                                                                    WMF1806194.TXT
MDEUJ6260236201806                D89828070100PT4U20180623000030SPEAKER ASM                   M IMCTM S0FL05 TNTH  09020IMCT  S0 PTB  00004                    1030 SR        000000000000 DENSO TEN (THAILAND)18021UU0115115                                                                                                                              *          20180619 IMCT                IMCT                                                                                                                    WMF1806194.TXT
MDEUJ6260237201806                D89828070100PT4U20180623000030SPEAKER ASM                   M IMCTM S0FL05 TNTH  09020IMCT  S0 PTB  00004                    1300 SR        000000000000 DENSO TEN (THAILAND)18025UU0097097                                                                                                                              *          20180619 IMCT                IMCT                                                                                                                    WMF1806194.TXT
MDEUJ6260238201806                D89828070100PT4U20180623000030SPEAKER ASM                   M IMCTM S0FL05 TNTH  09020IMCT  S0 PTB  00004                    2230 SR        000000000000 DENSO TEN (THAILAND)18020UU0079079                                                                                                                              *          20180619 IMCT                IMCT                                                                                                                    WMF1806194.TXT
MDEUJ6260239201806                D89828070200PV4U20180623000030SPEAKER ASM                   M IMCTM S0FR05 TNTH  09020IMCT  S0 PTB  00005                    0230 SR        000000000000 DENSO TEN (THAILAND)18025UU0095095                                                                                                                              *          20180619 IMCT                IMCT                                                                                                                    WMF1806194.TXT
MDEUJ6260240201806                D89828070200PV4U20180623000030SPEAKER ASM                   M IMCTM S0FR05 TNTH  09020IMCT  S0 PTB  00005                    0400 SR        000000000000 DENSO TEN (THAILAND)18025UU0096096                                                                                                                              *          20180619 IMCT                IMCT                                                                                                                    WMF1806194.TXT
MDEUJ6260241201806                D89828070200PV4U20180623000030SPEAKER ASM                   M IMCTM S0FR05 TNTH  09020IMCT  S0 PTB  00005                    1030 SR        000000000000 DENSO TEN (THAILAND)18021UU0115115                                                                                                                              *          20180619 IMCT                IMCT                                                                                                                    WMF1806194.TXT
MDEUJ6260242201806                D89828070200PV4U20180623000030SPEAKER ASM                   M IMCTM S0FR05 TNTH  09020IMCT  S0 PTB  00005                    1300 SR        000000000000 DENSO TEN (THAILAND)18025UU0097097                                                                                                                              *          20180619 IMCT                IMCT                                                                                                                    WMF1806194.TXT
MDEUJ6260243201806                D89828070200PV4U20180623000030SPEAKER ASM                   M IMCTM S0FR05 TNTH  09020IMCT  S0 PTB  00005                    2230 SR        000000000000 DENSO TEN (THAILAND)18020UU0079079                                                                                                                              *          20180619 IMCT                IMCT                                                                                                                    WMF1806194.TXT
MDEUJ6260244201806                D89828070300PT4U20180623000030SPEAKER ASM                   M IMCTM S9TS02 TNTH  09020IMCT  S9 PTB  00015                    0230 SR        000000000000 DENSO TEN (THAILAND)18025UU0095095                                                                                                                              *          20180619 IMCT                IMCT                                                                                                                    WMF1806194.TXT
MDEUJ6260245201806                D89828070300PT4U20180623000030SPEAKER ASM                   M IMCTM S9TS02 TNTH  09020IMCT  S9 PTB  00015                    0400 SR        000000000000 DENSO TEN (THAILAND)18025UU0096096                                                                                                                              *          20180619 IMCT                IMCT                                                                                                                    WMF1806194.TXT
MDEUJ6260246201806                D89828070300PT4U20180623000030SPEAKER ASM                   M IMCTM S9TS02 TNTH  09020IMCT  S9 PTB  00015                    1030 SR        000000000000 DENSO TEN (THAILAND)18021UU0115115                                                                                                                              *          20180619 IMCT                IMCT                                                                                                                    WMF1806194.TXT
MDEUJ6260247201806                D89828070300PT4U20180623000030SPEAKER ASM                   M IMCTM S9TS02 TNTH  09020IMCT  S9 PTB  00015                    1300 SR        000000000000 DENSO TEN (THAILAND)18025UU0097097                                                                                                                              *          20180619 IMCT                IMCT                                                                                                                    WMF1806194.TXT
MDEUJ6260248201806                D89828070300PT4U20180623000030SPEAKER ASM                   M IMCTM S9TS02 TNTH  09020IMCT  S9 PTB  00015                    2230 SR        000000000000 DENSO TEN (THAILAND)18020UU0079079                                                                                                                              *          20180619 IMCT                IMCT                                                                                                                    WMF1806194.TXT
