REC2018062720180627ISUZU                              64     
MDDDJ6323020201807                D89821984430PT1D20180703000030RADIO;AM/FM,CD                M IMCTM S5NC06 TNTH  09020IMCT  S5 PTB  00005                    0230 SR        000000000000 DENSO TEN (THAILAND)180LXEL0059059                                                                                                                              *          20180627 IMCT                IMCT                                                                                                                    WMF1806275.TXT
MDDDJ6323021201807                D89821984430PT1D20180703000060RADIO;AM/FM,CD                M IMCTM S5NC06 TNTH  09020IMCT  S5 PTB  00005                    0830 SR        000000000000 DENSO TEN (THAILAND)180LPAL0172173                                                                                                                              *          20180627 IMCT                IMCT                                                                                                                    WMF1806275.TXT
MDDDJ6323022201807                D89821984430PT1D20180703000030RADIO;AM/FM,CD                M IMCTM S5NC06 TNTH  09020IMCT  S5 PTB  00005                    1300 SR        000000000000 DENSO TEN (THAILAND)180LNGL0149149                                                                                                                              *          20180627 IMCT                IMCT                                                                                                                    WMF1806275.TXT
MDDDJ6323023201807                D89828070100PV1D20180702000060SPEAKER ASM                   M IMCTM S5MB11 TNTH  09020IMCT  S5 PTB  00004                    2230 SR        000000000000 DENSO TEN (THAILAND)180LPGL0265265                                                                                                                              *          20180627 IMCT                IMCT                                                                                                                    WMF1806275.TXT
MDDDJ6323024201807                D89828070100PV1D20180703000060SPEAKER ASM                   M IMCTM S5MB11 TNTH  09020IMCT  S5 PTB  00004                    0230 SR        000000000000 DENSO TEN (THAILAND)180LXEL0059059                                                                                                                              *          20180627 IMCT                IMCT                                                                                                                    WMF1806275.TXT
MDDDJ6323025201807                D89828070100PV1D20180703000120SPEAKER ASM                   M IMCTM S5MB11 TNTH  09020IMCT  S5 PTB  00004                    0830 SR        000000000000 DENSO TEN (THAILAND)180LPAL0172173                                                                                                                              *          20180627 IMCT                IMCT                                                                                                                    WMF1806275.TXT
MDDDJ6323026201807                D89828070100PV1D20180703000120SPEAKER ASM                   M IMCTM S5MB11 TNTH  09020IMCT  S5 PTB  00004                    1300 SR        000000000000 DENSO TEN (THAILAND)180LNGL0149149180LPGL0266266                                                                                                                *          20180627 IMCT                IMCT                                                                                                                    WMF1806275.TXT
MDDDJ6323027201807                D89828070100PV1D20180703000120SPEAKER ASM                   M IMCTM S5MB11 TNTH  09020IMCT  S5 PTB  00004                    1600 SR        000000000000 DENSO TEN (THAILAND)180LPCL0069069180LXAL0033033                                                                                                                *          20180627 IMCT                IMCT                                                                                                                    WMF1806275.TXT
MDDDJ6323028201807                D89828070100PV4D20180703000060SPEAKER ASM                   M IMCTM S0FL05 TNTH  09020IMCT  S0 PTB  00004                    1030 SR        000000000000 DENSO TEN (THAILAND)180LRSU0052052                                                                                                                              *          20180627 IMCT                IMCT                                                                                                                    WMF1806275.TXT
MDDDJ6323029201807                D89828070200PV4D20180703000060SPEAKER ASM                   M IMCTM S0FR05 TNTH  09020IMCT  S0 PTB  00005                    1030 SR        000000000000 DENSO TEN (THAILAND)180LRSU0052052                                                                                                                              *          20180627 IMCT                IMCT                                                                                                                    WMF1806275.TXT
MDDDJ6323030201807                D89828070300PT1D20180702000060SPEAKER ASM                   M IMCTM S5NB082TNTH  09020IMCT  S5 PTB  00015                    2230 SR        000000000000 DENSO TEN (THAILAND)180LPGL0265265                                                                                                                              *          20180627 IMCT                IMCT                                                                                                                    WMF1806275.TXT
MDDDJ6323031201807                D89828070300PT1D20180703000060SPEAKER ASM                   M IMCTM S5NB082TNTH  09020IMCT  S5 PTB  00015                    1300 SR        000000000000 DENSO TEN (THAILAND)180LPGL0266266                                                                                                                              *          20180627 IMCT                IMCT                                                                                                                    WMF1806275.TXT
MDDDJ6323032201807                D89828070300PT1D20180703000060SPEAKER ASM                   M IMCTM S5NB082TNTH  09020IMCT  S5 PTB  00015                    1600 SR        000000000000 DENSO TEN (THAILAND)180LPCL0069069                                                                                                                              *          20180627 IMCT                IMCT                                                                                                                    WMF1806275.TXT
MDDDJ6323033201807                D89828070300PT4D20180703000060SPEAKER ASM                   M IMCTM S9TS02 TNTH  09020IMCT  S9 PTB  00015                    1030 SR        000000000000 DENSO TEN (THAILAND)180LRSU0052052                                                                                                                              *          20180627 IMCT                IMCT                                                                                                                    WMF1806275.TXT
MDDDJ6323034201807                D89831228300PT1D20180702000030RADIO;AM/FM,CD                M IMCTM S5NC06 TNTH  09020IMCT  S5 CPB  00003                    2230 SR        000000000000 DENSO TEN (THAILAND)180LPGL0265265                                                                                                                              *          20180627 IMCT                IMCT                                                                                                                    WMF1806275.TXT
MDDDJ6323035201807                D89831228300PT1D20180703000030RADIO;AM/FM,CD                M IMCTM S5NC06 TNTH  09020IMCT  S5 CPB  00003                    1300 SR        000000000000 DENSO TEN (THAILAND)180LPGL0266266                                                                                                                              *          20180627 IMCT                IMCT                                                                                                                    WMF1806275.TXT
MDDDJ6323036201807                D89831228300PT1D20180703000030RADIO;AM/FM,CD                M IMCTM S5NC06 TNTH  09020IMCT  S5 CPB  00003                    1600 SR        000000000000 DENSO TEN (THAILAND)180LPCL0069069                                                                                                                              *          20180627 IMCT                IMCT                                                                                                                    WMF1806275.TXT
MDDUJ6259550201807                D89828070100PT4U20180703000030SPEAKER ASM                   M IMCTM S0FL05 TNTH  09020IMCT  S0 PTB  00004                    0230 SR        000000000000 DENSO TEN (THAILAND)180LUSU0109109                                                                                                                              *          20180627 IMCT                IMCT                                                                                                                    WMF1806275.TXT
MDDUJ6259551201807                D89828070100PT4U20180703000030SPEAKER ASM                   M IMCTM S0FL05 TNTH  09020IMCT  S0 PTB  00004                    0830 SR        000000000000 DENSO TEN (THAILAND)180LURU0077077                                                                                                                              *          20180627 IMCT                IMCT                                                                                                                    WMF1806275.TXT
MDDUJ6259552201807                D89828070100PT4U20180703000030SPEAKER ASM                   M IMCTM S0FL05 TNTH  09020IMCT  S0 PTB  00004                    1600 SR        000000000000 DENSO TEN (THAILAND)180LUTU0077077                                                                                                                              *          20180627 IMCT                IMCT                                                                                                                    WMF1806275.TXT
MDDUJ6259553201807                D89828070100PT4U20180703000030SPEAKER ASM                   M IMCTM S0FL05 TNTH  09020IMCT  S0 PTB  00004                    2100 SR        000000000000 DENSO TEN (THAILAND)180LUSU0110110                                                                                                                              *          20180627 IMCT                IMCT                                                                                                                    WMF1806275.TXT
MDDUJ6259554201807                D89828070200PV4U20180703000030SPEAKER ASM                   M IMCTM S0FR05 TNTH  09020IMCT  S0 PTB  00005                    0230 SR        000000000000 DENSO TEN (THAILAND)180LUSU0109109                                                                                                                              *          20180627 IMCT                IMCT                                                                                                                    WMF1806275.TXT
MDDUJ6259555201807                D89828070200PV4U20180703000030SPEAKER ASM                   M IMCTM S0FR05 TNTH  09020IMCT  S0 PTB  00005                    0830 SR        000000000000 DENSO TEN (THAILAND)180LURU0077077                                                                                                                              *          20180627 IMCT                IMCT                                                                                                                    WMF1806275.TXT
MDDUJ6259556201807                D89828070200PV4U20180703000030SPEAKER ASM                   M IMCTM S0FR05 TNTH  09020IMCT  S0 PTB  00005                    1600 SR        000000000000 DENSO TEN (THAILAND)180LUTU0077077                                                                                                                              *          20180627 IMCT                IMCT                                                                                                                    WMF1806275.TXT
MDDUJ6259557201807                D89828070200PV4U20180703000030SPEAKER ASM                   M IMCTM S0FR05 TNTH  09020IMCT  S0 PTB  00005                    2100 SR        000000000000 DENSO TEN (THAILAND)180LUSU0110110                                                                                                                              *          20180627 IMCT                IMCT                                                                                                                    WMF1806275.TXT
MDDUJ6259558201807                D89828070300PT4U20180703000030SPEAKER ASM                   M IMCTM S9TS02 TNTH  09020IMCT  S9 PTB  00015                    0230 SR        000000000000 DENSO TEN (THAILAND)180LUSU0109109                                                                                                                              *          20180627 IMCT                IMCT                                                                                                                    WMF1806275.TXT
MDDUJ6259559201807                D89828070300PT4U20180703000030SPEAKER ASM                   M IMCTM S9TS02 TNTH  09020IMCT  S9 PTB  00015                    0830 SR        000000000000 DENSO TEN (THAILAND)180LURU0077077                                                                                                                              *          20180627 IMCT                IMCT                                                                                                                    WMF1806275.TXT
MDDUJ6259560201807                D89828070300PT4U20180703000030SPEAKER ASM                   M IMCTM S9TS02 TNTH  09020IMCT  S9 PTB  00015                    1600 SR        000000000000 DENSO TEN (THAILAND)180LUTU0077077                                                                                                                              *          20180627 IMCT                IMCT                                                                                                                    WMF1806275.TXT
MDDUJ6259561201807                D89828070300PT4U20180703000030SPEAKER ASM                   M IMCTM S9TS02 TNTH  09020IMCT  S9 PTB  00015                    2100 SR        000000000000 DENSO TEN (THAILAND)180LUSU0110110                                                                                                                              *          20180627 IMCT                IMCT                                                                                                                    WMF1806275.TXT
MDEDJ6342900201807                D89828070100PV1D20180703000060SPEAKER ASM                   M IMCTM S5MB11 TNTH  09020IMCT  S5 PTB  00004                    0230 SR        000000000000 DENSO TEN (THAILAND)17033QL0063064                                                                                                                              *          20180627 IMCT                IMCT                                                                                                                    WMF1806275.TXT
MDEDJ6342901201807                D89828070100PV1D20180703000060SPEAKER ASM                   M IMCTM S5MB11 TNTH  09020IMCT  S5 PTB  00004                    0400 SR        000000000000 DENSO TEN (THAILAND)18007ZL0111112                                                                                                                              *          20180627 IMCT                IMCT                                                                                                                    WMF1806275.TXT
MDEDJ6342902201807                D89828070100PV1D20180703000030SPEAKER ASM                   M IMCTM S5MB11 TNTH  09020IMCT  S5 PTB  00004                    1030 SR        000000000000 DENSO TEN (THAILAND)17033QL0065065                                                                                                                              *          20180627 IMCT                IMCT                                                                                                                    WMF1806275.TXT
MDEDJ6342903201807                D89828070100PV1D20180703000030SPEAKER ASM                   M IMCTM S5MB11 TNTH  09020IMCT  S5 PTB  00004                    1300 SR        000000000000 DENSO TEN (THAILAND)17033QL0066066                                                                                                                              *          20180627 IMCT                IMCT                                                                                                                    WMF1806275.TXT
MDEDJ6342904201807                D89828070100PV1D20180703000060SPEAKER ASM                   M IMCTM S5MB11 TNTH  09020IMCT  S5 PTB  00004                    1600 SR        000000000000 DENSO TEN (THAILAND)18029XL0002003                                                                                                                              *          20180627 IMCT                IMCT                                                                                                                    WMF1806275.TXT
MDEDJ6342905201807                D89828070100PV1D20180703000060SPEAKER ASM                   M IMCTM S5MB11 TNTH  09020IMCT  S5 PTB  00004                    2100 SR        000000000000 DENSO TEN (THAILAND)17033QL0067068                                                                                                                              *          20180627 IMCT                IMCT                                                                                                                    WMF1806275.TXT
MDEDJ6342906201807                D89828070100PV4D20180703000030SPEAKER ASM                   M IMCTM S0FL05 TNTH  09020IMCT  S0 PTB  00004                    0400 SR        000000000000 DENSO TEN (THAILAND)18082WU0002002                                                                                                                              *          20180627 IMCT                IMCT                                                                                                                    WMF1806275.TXT
MDEDJ6342907201807                D89828070100PV4D20180703000030SPEAKER ASM                   M IMCTM S0FL05 TNTH  09020IMCT  S0 PTB  00004                    1600 SR        000000000000 DENSO TEN (THAILAND)17052RU0001001                                                                                                                              *          20180627 IMCT                IMCT                                                                                                                    WMF1806275.TXT
MDEDJ6342908201807                D89828070100PV4D20180703000030SPEAKER ASM                   M IMCTM S0FL05 TNTH  09020IMCT  S0 PTB  00004                    2230 SR        000000000000 DENSO TEN (THAILAND)18010ZU0036036                                                                                                                              *          20180627 IMCT                IMCT                                                                                                                    WMF1806275.TXT
MDEDJ6342909201807                D89828070200PV1D20180703000060SPEAKER ASM                   M IMCTM S5MA14 TNTH  09020IMCT  S5 PTB  00005                    0230 SR        000000000000 DENSO TEN (THAILAND)17033QL0063064                                                                                                                              *          20180627 IMCT                IMCT                                                                                                                    WMF1806275.TXT
MDEDJ6342910201807                D89828070200PV1D20180703000030SPEAKER ASM                   M IMCTM S5MA14 TNTH  09020IMCT  S5 PTB  00005                    1030 SR        000000000000 DENSO TEN (THAILAND)17033QL0065065                                                                                                                              *          20180627 IMCT                IMCT                                                                                                                    WMF1806275.TXT
MDEDJ6342911201807                D89828070200PV1D20180703000030SPEAKER ASM                   M IMCTM S5MA14 TNTH  09020IMCT  S5 PTB  00005                    1300 SR        000000000000 DENSO TEN (THAILAND)17033QL0066066                                                                                                                              *          20180627 IMCT                IMCT                                                                                                                    WMF1806275.TXT
MDEDJ6342912201807                D89828070200PV1D20180703000060SPEAKER ASM                   M IMCTM S5MA14 TNTH  09020IMCT  S5 PTB  00005                    2100 SR        000000000000 DENSO TEN (THAILAND)17033QL0067068                                                                                                                              *          20180627 IMCT                IMCT                                                                                                                    WMF1806275.TXT
MDEDJ6342913201807                D89828070300PT1D20180703000060SPEAKER ASM                   M IMCTM S5NB082TNTH  09020IMCT  S5 PTB  00015                    0230 SR        000000000000 DENSO TEN (THAILAND)17033QL0063064                                                                                                                              *          20180627 IMCT                IMCT                                                                                                                    WMF1806275.TXT
MDEDJ6342914201807                D89828070300PT1D20180703000030SPEAKER ASM                   M IMCTM S5NB082TNTH  09020IMCT  S5 PTB  00015                    1030 SR        000000000000 DENSO TEN (THAILAND)17033QL0065065                                                                                                                              *          20180627 IMCT                IMCT                                                                                                                    WMF1806275.TXT
MDEDJ6342915201807                D89828070300PT1D20180703000030SPEAKER ASM                   M IMCTM S5NB082TNTH  09020IMCT  S5 PTB  00015                    1300 SR        000000000000 DENSO TEN (THAILAND)17033QL0066066                                                                                                                              *          20180627 IMCT                IMCT                                                                                                                    WMF1806275.TXT
MDEDJ6342916201807                D89828070300PT1D20180703000060SPEAKER ASM                   M IMCTM S5NB082TNTH  09020IMCT  S5 PTB  00015                    1600 SR        000000000000 DENSO TEN (THAILAND)18029XL0002003                                                                                                                              *          20180627 IMCT                IMCT                                                                                                                    WMF1806275.TXT
MDEDJ6342917201807                D89828070300PT1D20180703000060SPEAKER ASM                   M IMCTM S5NB082TNTH  09020IMCT  S5 PTB  00015                    2100 SR        000000000000 DENSO TEN (THAILAND)17033QL0067068                                                                                                                              *          20180627 IMCT                IMCT                                                                                                                    WMF1806275.TXT
MDEDJ6342918201807                D89831229200PT1D20180703000030RADIO;AM/FM,CD                M IMCTM S5NC06 TNTH  09020IMCT  S5 PTB  00003                    0230 SR        000000000000 DENSO TEN (THAILAND)17033QL0063064                                                                                                                              *          20180627 IMCT                IMCT                                                                                                                    WMF1806275.TXT
MDEDJ6342919201807                D89831229200PT1D20180703000015RADIO;AM/FM,CD                M IMCTM S5NC06 TNTH  09020IMCT  S5 PTB  00003                    1030 SR        000000000000 DENSO TEN (THAILAND)17033QL0065065                                                                                                                              *          20180627 IMCT                IMCT                                                                                                                    WMF1806275.TXT
MDEDJ6342920201807                D89831229200PT1D20180703000015RADIO;AM/FM,CD                M IMCTM S5NC06 TNTH  09020IMCT  S5 PTB  00003                    1300 SR        000000000000 DENSO TEN (THAILAND)17033QL0066066                                                                                                                              *          20180627 IMCT                IMCT                                                                                                                    WMF1806275.TXT
MDEDJ6342921201807                D89831229200PT1D20180703000030RADIO;AM/FM,CD                M IMCTM S5NC06 TNTH  09020IMCT  S5 PTB  00003                    2100 SR        000000000000 DENSO TEN (THAILAND)17033QL0067068                                                                                                                              *          20180627 IMCT                IMCT                                                                                                                    WMF1806275.TXT
MDEUJ6285147201807                D89828070100PT4U20180702000030SPEAKER ASM                   M IMCTM S0FL05 TNTH  09020IMCT  S0 PTB  00004                    2230 SR        000000000000 DENSO TEN (THAILAND)18021UU0124124                                                                                                                              *          20180627 IMCT                IMCT                                                                                                                    WMF1806275.TXT
MDEUJ6285148201807                D89828070100PT4U20180703000030SPEAKER ASM                   M IMCTM S0FL05 TNTH  09020IMCT  S0 PTB  00004                    0400 SR        000000000000 DENSO TEN (THAILAND)18049ZU0061061                                                                                                                              *          20180627 IMCT                IMCT                                                                                                                    WMF1806275.TXT
MDEUJ6285149201807                D89828070100PT4U20180703000030SPEAKER ASM                   M IMCTM S0FL05 TNTH  09020IMCT  S0 PTB  00004                    1300 SR        000000000000 DENSO TEN (THAILAND)18016UU0032032                                                                                                                              *          20180627 IMCT                IMCT                                                                                                                    WMF1806275.TXT
MDEUJ6285150201807                D89828070100PT4U20180703000030SPEAKER ASM                   M IMCTM S0FL05 TNTH  09020IMCT  S0 PTB  00004                    1600 SR        000000000000 DENSO TEN (THAILAND)18060UU0010010                                                                                                                              *          20180627 IMCT                IMCT                                                                                                                    WMF1806275.TXT
MDEUJ6285151201807                D89828070200PV4U20180702000030SPEAKER ASM                   M IMCTM S0FR05 TNTH  09020IMCT  S0 PTB  00005                    2230 SR        000000000000 DENSO TEN (THAILAND)18021UU0124124                                                                                                                              *          20180627 IMCT                IMCT                                                                                                                    WMF1806275.TXT
MDEUJ6285152201807                D89828070200PV4U20180703000030SPEAKER ASM                   M IMCTM S0FR05 TNTH  09020IMCT  S0 PTB  00005                    0400 SR        000000000000 DENSO TEN (THAILAND)18049ZU0061061                                                                                                                              *          20180627 IMCT                IMCT                                                                                                                    WMF1806275.TXT
MDEUJ6285153201807                D89828070200PV4U20180703000030SPEAKER ASM                   M IMCTM S0FR05 TNTH  09020IMCT  S0 PTB  00005                    1300 SR        000000000000 DENSO TEN (THAILAND)18016UU0032032                                                                                                                              *          20180627 IMCT                IMCT                                                                                                                    WMF1806275.TXT
MDEUJ6285154201807                D89828070200PV4U20180703000030SPEAKER ASM                   M IMCTM S0FR05 TNTH  09020IMCT  S0 PTB  00005                    1600 SR        000000000000 DENSO TEN (THAILAND)18060UU0010010                                                                                                                              *          20180627 IMCT                IMCT                                                                                                                    WMF1806275.TXT
MDEUJ6285155201807                D89828070300PT4U20180702000030SPEAKER ASM                   M IMCTM S9TS02 TNTH  09020IMCT  S9 PTB  00015                    2230 SR        000000000000 DENSO TEN (THAILAND)18021UU0124124                                                                                                                              *          20180627 IMCT                IMCT                                                                                                                    WMF1806275.TXT
MDEUJ6285156201807                D89828070300PT4U20180703000030SPEAKER ASM                   M IMCTM S9TS02 TNTH  09020IMCT  S9 PTB  00015                    0400 SR        000000000000 DENSO TEN (THAILAND)18049ZU0061061                                                                                                                              *          20180627 IMCT                IMCT                                                                                                                    WMF1806275.TXT
MDEUJ6285157201807                D89828070300PT4U20180703000030SPEAKER ASM                   M IMCTM S9TS02 TNTH  09020IMCT  S9 PTB  00015                    1300 SR        000000000000 DENSO TEN (THAILAND)18016UU0032032                                                                                                                              *          20180627 IMCT                IMCT                                                                                                                    WMF1806275.TXT
MDEUJ6285158201807                D89828070300PT4U20180703000030SPEAKER ASM                   M IMCTM S9TS02 TNTH  09020IMCT  S9 PTB  00015                    1600 SR        000000000000 DENSO TEN (THAILAND)18060UU0010010                                                                                                                              *          20180627 IMCT                IMCT                                                                                                                    WMF1806275.TXT
MDEUJ6285159201807                D89848584410PT4U20180703000015RADIO;AM/FM CD D              M IMCTM S9CO001TNTH  09020IMCT  S9 PTB  00003                    1600 SR        000000000000 DENSO TEN (THAILAND)18060UU0010010                                                                                                                              *          20180627 IMCT                IMCT                                                                                                                    WMF1806275.TXT
