REC2018061820180618ISUZU                              67     
MDDDJ6278039201806                D89821984430PT1D20180622000030RADIO;AM/FM,CD                M IMCTM S5NC06 TNTH  09020IMCT  S5 PTB  00005                    0830 SR        000000000000 DENSO TEN (THAILAND)180LNGL0144144                                                                                                                              *          20180618 IMCT                IMCT                                                                                                                    WMF1806184.TXT
MDDDJ6278040201806                D89821984430PT1D20180622000030RADIO;AM/FM,CD                M IMCTM S5NC06 TNTH  09020IMCT  S5 PTB  00005                    1300 SR        000000000000 DENSO TEN (THAILAND)180LNHL0050050                                                                                                                              *          20180618 IMCT                IMCT                                                                                                                    WMF1806184.TXT
MDDDJ6278041201806                D89821984430PT1D20180622000030RADIO;AM/FM,CD                M IMCTM S5NC06 TNTH  09020IMCT  S5 PTB  00005                    2100 SR        000000000000 DENSO TEN (THAILAND)180LXCL0055055                                                                                                                              *          20180618 IMCT                IMCT                                                                                                                    WMF1806184.TXT
MDDDJ6278042201806                D89821984430PT1D20180622000030RADIO;AM/FM,CD                M IMCTM S5NC06 TNTH  09020IMCT  S5 PTB  00005                    2230 SR        000000000000 DENSO TEN (THAILAND)180LPBL0025025                                                                                                                              *          20180618 IMCT                IMCT                                                                                                                    WMF1806184.TXT
MDDDJ6278043201806                D89828070100PV1D20180622000060SPEAKER ASM                   M IMCTM S5MB11 TNTH  09020IMCT  S5 PTB  00004                    0400 SR        000000000000 DENSO TEN (THAILAND)180LPFL0059059                                                                                                                              *          20180618 IMCT                IMCT                                                                                                                    WMF1806184.TXT
MDDDJ6278044201806                D89828070100PV1D20180622000120SPEAKER ASM                   M IMCTM S5MB11 TNTH  09020IMCT  S5 PTB  00004                    0830 SR        000000000000 DENSO TEN (THAILAND)180LNGL0144144180LPNL0017017                                                                                                                *          20180618 IMCT                IMCT                                                                                                                    WMF1806184.TXT
MDDDJ6278045201806                D89828070100PV1D20180622000120SPEAKER ASM                   M IMCTM S5MB11 TNTH  09020IMCT  S5 PTB  00004                    1300 SR        000000000000 DENSO TEN (THAILAND)180LNHL0050050180LPGL0258258                                                                                                                *          20180618 IMCT                IMCT                                                                                                                    WMF1806184.TXT
MDDDJ6278046201806                D89828070100PV1D20180622000060SPEAKER ASM                   M IMCTM S5MB11 TNTH  09020IMCT  S5 PTB  00004                    1600 SR        000000000000 DENSO TEN (THAILAND)180LPCL0065065                                                                                                                              *          20180618 IMCT                IMCT                                                                                                                    WMF1806184.TXT
MDDDJ6278047201806                D89828070100PV1D20180622000060SPEAKER ASM                   M IMCTM S5MB11 TNTH  09020IMCT  S5 PTB  00004                    2100 SR        000000000000 DENSO TEN (THAILAND)180LXCL0055055                                                                                                                              *          20180618 IMCT                IMCT                                                                                                                    WMF1806184.TXT
MDDDJ6278048201806                D89828070100PV1D20180622000060SPEAKER ASM                   M IMCTM S5MB11 TNTH  09020IMCT  S5 PTB  00004                    2230 SR        000000000000 DENSO TEN (THAILAND)180LPBL0025025                                                                                                                              *          20180618 IMCT                IMCT                                                                                                                    WMF1806184.TXT
MDDDJ6278049201806                D89828070300PT1D20180622000060SPEAKER ASM                   M IMCTM S5NB082TNTH  09020IMCT  S5 PTB  00015                    0400 SR        000000000000 DENSO TEN (THAILAND)180LPFL0059059                                                                                                                              *          20180618 IMCT                IMCT                                                                                                                    WMF1806184.TXT
MDDDJ6278050201806                D89828070300PT1D20180622000060SPEAKER ASM                   M IMCTM S5NB082TNTH  09020IMCT  S5 PTB  00015                    0830 SR        000000000000 DENSO TEN (THAILAND)180LPNL0017017                                                                                                                              *          20180618 IMCT                IMCT                                                                                                                    WMF1806184.TXT
MDDDJ6278051201806                D89828070300PT1D20180622000060SPEAKER ASM                   M IMCTM S5NB082TNTH  09020IMCT  S5 PTB  00015                    1300 SR        000000000000 DENSO TEN (THAILAND)180LPGL0258258                                                                                                                              *          20180618 IMCT                IMCT                                                                                                                    WMF1806184.TXT
MDDDJ6278052201806                D89828070300PT1D20180622000060SPEAKER ASM                   M IMCTM S5NB082TNTH  09020IMCT  S5 PTB  00015                    1600 SR        000000000000 DENSO TEN (THAILAND)180LPCL0065065                                                                                                                              *          20180618 IMCT                IMCT                                                                                                                    WMF1806184.TXT
MDDDJ6278053201806                D89831228300PT1D20180622000030RADIO;AM/FM,CD                M IMCTM S5NC06 TNTH  09020IMCT  S5 CPB  00003                    0400 SR        000000000000 DENSO TEN (THAILAND)180LPFL0059059                                                                                                                              *          20180618 IMCT                IMCT                                                                                                                    WMF1806184.TXT
MDDDJ6278054201806                D89831228300PT1D20180622000030RADIO;AM/FM,CD                M IMCTM S5NC06 TNTH  09020IMCT  S5 CPB  00003                    1300 SR        000000000000 DENSO TEN (THAILAND)180LPGL0258258                                                                                                                              *          20180618 IMCT                IMCT                                                                                                                    WMF1806184.TXT
MDDDJ6278055201806                D89831228300PT1D20180622000030RADIO;AM/FM,CD                M IMCTM S5NC06 TNTH  09020IMCT  S5 CPB  00003                    1600 SR        000000000000 DENSO TEN (THAILAND)180LPCL0065065                                                                                                                              *          20180618 IMCT                IMCT                                                                                                                    WMF1806184.TXT
MDDUJ6238112201806                D89828070100PT4U20180622000030SPEAKER ASM                   M IMCTM S0FL05 TNTH  09020IMCT  S0 PTB  00004                    0400 SR        000000000000 DENSO TEN (THAILAND)180LUTU0066066                                                                                                                              *          20180618 IMCT                IMCT                                                                                                                    WMF1806184.TXT
MDDUJ6238113201806                D89828070100PT4U20180622000030SPEAKER ASM                   M IMCTM S0FL05 TNTH  09020IMCT  S0 PTB  00004                    1300 SR        000000000000 DENSO TEN (THAILAND)180LUTU0067067                                                                                                                              *          20180618 IMCT                IMCT                                                                                                                    WMF1806184.TXT
MDDUJ6238114201806                D89828070100PT4U20180622000030SPEAKER ASM                   M IMCTM S0FL05 TNTH  09020IMCT  S0 PTB  00004                    2230 SR        000000000000 DENSO TEN (THAILAND)180LUSU0103103                                                                                                                              *          20180618 IMCT                IMCT                                                                                                                    WMF1806184.TXT
MDDUJ6238115201806                D89828070200PV4U20180622000030SPEAKER ASM                   M IMCTM S0FR05 TNTH  09020IMCT  S0 PTB  00005                    0400 SR        000000000000 DENSO TEN (THAILAND)180LUTU0066066                                                                                                                              *          20180618 IMCT                IMCT                                                                                                                    WMF1806184.TXT
MDDUJ6238116201806                D89828070200PV4U20180622000030SPEAKER ASM                   M IMCTM S0FR05 TNTH  09020IMCT  S0 PTB  00005                    1300 SR        000000000000 DENSO TEN (THAILAND)180LUTU0067067                                                                                                                              *          20180618 IMCT                IMCT                                                                                                                    WMF1806184.TXT
MDDUJ6238117201806                D89828070200PV4U20180622000030SPEAKER ASM                   M IMCTM S0FR05 TNTH  09020IMCT  S0 PTB  00005                    2230 SR        000000000000 DENSO TEN (THAILAND)180LUSU0103103                                                                                                                              *          20180618 IMCT                IMCT                                                                                                                    WMF1806184.TXT
MDDUJ6238118201806                D89828070300PT4U20180622000030SPEAKER ASM                   M IMCTM S9TS02 TNTH  09020IMCT  S9 PTB  00015                    0400 SR        000000000000 DENSO TEN (THAILAND)180LUTU0066066                                                                                                                              *          20180618 IMCT                IMCT                                                                                                                    WMF1806184.TXT
MDDUJ6238119201806                D89828070300PT4U20180622000030SPEAKER ASM                   M IMCTM S9TS02 TNTH  09020IMCT  S9 PTB  00015                    1300 SR        000000000000 DENSO TEN (THAILAND)180LUTU0067067                                                                                                                              *          20180618 IMCT                IMCT                                                                                                                    WMF1806184.TXT
MDDUJ6238120201806                D89828070300PT4U20180622000030SPEAKER ASM                   M IMCTM S9TS02 TNTH  09020IMCT  S9 PTB  00015                    2230 SR        000000000000 DENSO TEN (THAILAND)180LUSU0103103                                                                                                                              *          20180618 IMCT                IMCT                                                                                                                    WMF1806184.TXT
MDEDJ6288503201806                D89828070100PV1D20180621000120SPEAKER ASM                   M IMCTM S5MB11 TNTH  09020IMCT  S5 PTB  00004                    2230 SR        000000000000 DENSO TEN (THAILAND)17032QL002102118061UL001401518076XL0006006                                                                                                  *          20180618 IMCT                IMCT                                                                                                                    WMF1806184.TXT
MDEDJ6288504201806                D89828070100PV1D20180622000060SPEAKER ASM                   M IMCTM S5MB11 TNTH  09020IMCT  S5 PTB  00004                    0230 SR        000000000000 DENSO TEN (THAILAND)18066UL000900918076XL0007007                                                                                                                *          20180618 IMCT                IMCT                                                                                                                    WMF1806184.TXT
MDEDJ6288505201806                D89828070100PV1D20180622000030SPEAKER ASM                   M IMCTM S5MB11 TNTH  09020IMCT  S5 PTB  00004                    0400 SR        000000000000 DENSO TEN (THAILAND)18066UL0010010                                                                                                                              *          20180618 IMCT                IMCT                                                                                                                    WMF1806184.TXT
MDEDJ6288506201806                D89828070100PV1D20180622000030SPEAKER ASM                   M IMCTM S5MB11 TNTH  09020IMCT  S5 PTB  00004                    1300 SR        000000000000 DENSO TEN (THAILAND)18074UL0034034                                                                                                                              *          20180618 IMCT                IMCT                                                                                                                    WMF1806184.TXT
MDEDJ6288507201806                D89828070100PV1D20180622000060SPEAKER ASM                   M IMCTM S5MB11 TNTH  09020IMCT  S5 PTB  00004                    1600 SR        000000000000 DENSO TEN (THAILAND)18056XL001001018074UL0035035                                                                                                                *          20180618 IMCT                IMCT                                                                                                                    WMF1806184.TXT
MDEDJ6288508201806                D89828070100PV4D20180622000030SPEAKER ASM                   M IMCTM S0FL05 TNTH  09020IMCT  S0 PTB  00004                    0400 SR        000000000000 DENSO TEN (THAILAND)18074XU0003003                                                                                                                              *          20180618 IMCT                IMCT                                                                                                                    WMF1806184.TXT
MDEDJ6288509201806                D89828070100PV4D20180622000030SPEAKER ASM                   M IMCTM S0FL05 TNTH  09020IMCT  S0 PTB  00004                    0830 SR        000000000000 DENSO TEN (THAILAND)18099UU0013013                                                                                                                              *          20180618 IMCT                IMCT                                                                                                                    WMF1806184.TXT
MDEDJ6288510201806                D89828070100PV4D20180622000060SPEAKER ASM                   M IMCTM S0FL05 TNTH  09020IMCT  S0 PTB  00004                    1600 SR        000000000000 DENSO TEN (THAILAND)18066UU000900918098UU0016016                                                                                                                *          20180618 IMCT                IMCT                                                                                                                    WMF1806184.TXT
MDEDJ6288511201806                D89828070200PV1D20180621000030SPEAKER ASM                   M IMCTM S5MA14 TNTH  09020IMCT  S5 PTB  00005                    2230 SR        000000000000 DENSO TEN (THAILAND)17032QL0021021                                                                                                                              *          20180618 IMCT                IMCT                                                                                                                    WMF1806184.TXT
MDEDJ6288512201806                D89828070200PV1D20180622000030SPEAKER ASM                   M IMCTM S5MA14 TNTH  09020IMCT  S5 PTB  00005                    0230 SR        000000000000 DENSO TEN (THAILAND)18066UL0009009                                                                                                                              *          20180618 IMCT                IMCT                                                                                                                    WMF1806184.TXT
MDEDJ6288513201806                D89828070200PV1D20180622000030SPEAKER ASM                   M IMCTM S5MA14 TNTH  09020IMCT  S5 PTB  00005                    0400 SR        000000000000 DENSO TEN (THAILAND)18066UL0010010                                                                                                                              *          20180618 IMCT                IMCT                                                                                                                    WMF1806184.TXT
MDEDJ6288514201806                D89828070200PV1D20180622000030SPEAKER ASM                   M IMCTM S5MA14 TNTH  09020IMCT  S5 PTB  00005                    1600 SR        000000000000 DENSO TEN (THAILAND)18056XL0010010                                                                                                                              *          20180618 IMCT                IMCT                                                                                                                    WMF1806184.TXT
MDEDJ6288515201806                D89828070200PV4D20180622000030SPEAKER ASM                   M IMCTM S0FR05 TNTH  09020IMCT  S0 PTB  00005                    0830 SR        000000000000 DENSO TEN (THAILAND)18099UU0013013                                                                                                                              *          20180618 IMCT                IMCT                                                                                                                    WMF1806184.TXT
MDEDJ6288516201806                D89828070200PV4D20180622000060SPEAKER ASM                   M IMCTM S0FR05 TNTH  09020IMCT  S0 PTB  00005                    1600 SR        000000000000 DENSO TEN (THAILAND)18066UU000900918098UU0016016                                                                                                                *          20180618 IMCT                IMCT                                                                                                                    WMF1806184.TXT
MDEDJ6288517201806                D89828070300PT1D20180621000090SPEAKER ASM                   M IMCTM S5NB082TNTH  09020IMCT  S5 PTB  00015                    2230 SR        000000000000 DENSO TEN (THAILAND)17032QL002102118061UL0014015                                                                                                                *          20180618 IMCT                IMCT                                                                                                                    WMF1806184.TXT
MDEDJ6288518201806                D89828070300PT1D20180622000030SPEAKER ASM                   M IMCTM S5NB082TNTH  09020IMCT  S5 PTB  00015                    0230 SR        000000000000 DENSO TEN (THAILAND)18066UL0009009                                                                                                                              *          20180618 IMCT                IMCT                                                                                                                    WMF1806184.TXT
MDEDJ6288519201806                D89828070300PT1D20180622000030SPEAKER ASM                   M IMCTM S5NB082TNTH  09020IMCT  S5 PTB  00015                    0400 SR        000000000000 DENSO TEN (THAILAND)18066UL0010010                                                                                                                              *          20180618 IMCT                IMCT                                                                                                                    WMF1806184.TXT
MDEDJ6288520201806                D89828070300PT1D20180622000030SPEAKER ASM                   M IMCTM S5NB082TNTH  09020IMCT  S5 PTB  00015                    1300 SR        000000000000 DENSO TEN (THAILAND)18074UL0034034                                                                                                                              *          20180618 IMCT                IMCT                                                                                                                    WMF1806184.TXT
MDEDJ6288521201806                D89828070300PT1D20180622000060SPEAKER ASM                   M IMCTM S5NB082TNTH  09020IMCT  S5 PTB  00015                    1600 SR        000000000000 DENSO TEN (THAILAND)18056XL001001018074UL0035035                                                                                                                *          20180618 IMCT                IMCT                                                                                                                    WMF1806184.TXT
MDEDJ6288522201806                D89828070300PT4D20180622000030SPEAKER ASM                   M IMCTM S9TS02 TNTH  09020IMCT  S9 PTB  00015                    0830 SR        000000000000 DENSO TEN (THAILAND)18099UU0013013                                                                                                                              *          20180618 IMCT                IMCT                                                                                                                    WMF1806184.TXT
MDEDJ6288523201806                D89828070300PT4D20180622000060SPEAKER ASM                   M IMCTM S9TS02 TNTH  09020IMCT  S9 PTB  00015                    1600 SR        000000000000 DENSO TEN (THAILAND)18066UU000900918098UU0016016                                                                                                                *          20180618 IMCT                IMCT                                                                                                                    WMF1806184.TXT
MDEDJ6288524201806                D89831229200PT1D20180621000015RADIO;AM/FM,CD                M IMCTM S5NC06 TNTH  09020IMCT  S5 PTB  00003                    2230 SR        000000000000 DENSO TEN (THAILAND)17032QL0021021                                                                                                                              *          20180618 IMCT                IMCT                                                                                                                    WMF1806184.TXT
MDEDJ6288525201806                D89848581800PT1D20180621000030RADIO;AM/FM CD D              M IMCTM S5NC06 TNTH  09020IMCT  S5 PTB  00003                    2230 SR        000000000000 DENSO TEN (THAILAND)18061UL0014015                                                                                                                              *          20180618 IMCT                IMCT                                                                                                                    WMF1806184.TXT
MDEDJ6288526201806                D89848581800PT1D20180622000015RADIO;AM/FM CD D              M IMCTM S5NC06 TNTH  09020IMCT  S5 PTB  00003                    0230 SR        000000000000 DENSO TEN (THAILAND)18066UL0009009                                                                                                                              *          20180618 IMCT                IMCT                                                                                                                    WMF1806184.TXT
MDEDJ6288527201806                D89848581800PT1D20180622000015RADIO;AM/FM CD D              M IMCTM S5NC06 TNTH  09020IMCT  S5 PTB  00003                    0400 SR        000000000000 DENSO TEN (THAILAND)18066UL0010010                                                                                                                              *          20180618 IMCT                IMCT                                                                                                                    WMF1806184.TXT
MDEDJ6288528201806                D89848581800PT4D20180622000030RADIO;AM/FM CD D              M IMCTM S9CO001TNTH  09020IMCT  S9 PTB  00003                    1600 SR        000000000000 DENSO TEN (THAILAND)18066UU000900918098UU0016016                                                                                                                *          20180618 IMCT                IMCT                                                                                                                    WMF1806184.TXT
MDEDJ6288529201806                D89848582500PT1D20180622000015RADIO;AM/FM CD D              M IMCTM S5NC06 TNTH  09020IMCT  S5 PTB  00003                    1300 SR        000000000000 DENSO TEN (THAILAND)18074UL0034034                                                                                                                              *          20180618 IMCT                IMCT                                                                                                                    WMF1806184.TXT
MDEDJ6288530201806                D89848582500PT1D20180622000015RADIO;AM/FM CD D              M IMCTM S5NC06 TNTH  09020IMCT  S5 PTB  00003                    1600 SR        000000000000 DENSO TEN (THAILAND)18074UL0035035                                                                                                                              *          20180618 IMCT                IMCT                                                                                                                    WMF1806184.TXT
MDEUJ6256356201806                D89828070100PT4U20180622000060SPEAKER ASM                   M IMCTM S0FL05 TNTH  09020IMCT  S0 PTB  00004                    0230 SR        000000000000 DENSO TEN (THAILAND)18020UU007807818025UU0092092                                                                                                                *          20180618 IMCT                IMCT                                                                                                                    WMF1806184.TXT
MDEUJ6256357201806                D89828070100PT4U20180622000060SPEAKER ASM                   M IMCTM S0FL05 TNTH  09020IMCT  S0 PTB  00004                    1030 SR        000000000000 DENSO TEN (THAILAND)18014UU001601618025UU0093093                                                                                                                *          20180618 IMCT                IMCT                                                                                                                    WMF1806184.TXT
MDEUJ6256358201806                D89828070100PT4U20180622000030SPEAKER ASM                   M IMCTM S0FL05 TNTH  09020IMCT  S0 PTB  00004                    1600 SR        000000000000 DENSO TEN (THAILAND)18025UU0094094                                                                                                                              *          20180618 IMCT                IMCT                                                                                                                    WMF1806184.TXT
MDEUJ6256359201806                D89828070100PT4U20180622000030SPEAKER ASM                   M IMCTM S0FL05 TNTH  09020IMCT  S0 PTB  00004                    2100 SR        000000000000 DENSO TEN (THAILAND)18021UU0114114                                                                                                                              *          20180618 IMCT                IMCT                                                                                                                    WMF1806184.TXT
MDEUJ6256360201806                D89828070200PV4U20180622000060SPEAKER ASM                   M IMCTM S0FR05 TNTH  09020IMCT  S0 PTB  00005                    0230 SR        000000000000 DENSO TEN (THAILAND)18020UU007807818025UU0092092                                                                                                                *          20180618 IMCT                IMCT                                                                                                                    WMF1806184.TXT
MDEUJ6256361201806                D89828070200PV4U20180622000060SPEAKER ASM                   M IMCTM S0FR05 TNTH  09020IMCT  S0 PTB  00005                    1030 SR        000000000000 DENSO TEN (THAILAND)18014UU001601618025UU0093093                                                                                                                *          20180618 IMCT                IMCT                                                                                                                    WMF1806184.TXT
MDEUJ6256362201806                D89828070200PV4U20180622000030SPEAKER ASM                   M IMCTM S0FR05 TNTH  09020IMCT  S0 PTB  00005                    1600 SR        000000000000 DENSO TEN (THAILAND)18025UU0094094                                                                                                                              *          20180618 IMCT                IMCT                                                                                                                    WMF1806184.TXT
MDEUJ6256363201806                D89828070200PV4U20180622000030SPEAKER ASM                   M IMCTM S0FR05 TNTH  09020IMCT  S0 PTB  00005                    2100 SR        000000000000 DENSO TEN (THAILAND)18021UU0114114                                                                                                                              *          20180618 IMCT                IMCT                                                                                                                    WMF1806184.TXT
MDEUJ6256364201806                D89828070300PT4U20180622000060SPEAKER ASM                   M IMCTM S9TS02 TNTH  09020IMCT  S9 PTB  00015                    0230 SR        000000000000 DENSO TEN (THAILAND)18020UU007807818025UU0092092                                                                                                                *          20180618 IMCT                IMCT                                                                                                                    WMF1806184.TXT
MDEUJ6256365201806                D89828070300PT4U20180622000060SPEAKER ASM                   M IMCTM S9TS02 TNTH  09020IMCT  S9 PTB  00015                    1030 SR        000000000000 DENSO TEN (THAILAND)18014UU001601618025UU0093093                                                                                                                *          20180618 IMCT                IMCT                                                                                                                    WMF1806184.TXT
MDEUJ6256366201806                D89828070300PT4U20180622000030SPEAKER ASM                   M IMCTM S9TS02 TNTH  09020IMCT  S9 PTB  00015                    1600 SR        000000000000 DENSO TEN (THAILAND)18025UU0094094                                                                                                                              *          20180618 IMCT                IMCT                                                                                                                    WMF1806184.TXT
MDEUJ6256367201806                D89828070300PT4U20180622000030SPEAKER ASM                   M IMCTM S9TS02 TNTH  09020IMCT  S9 PTB  00015                    2100 SR        000000000000 DENSO TEN (THAILAND)18021UU0114114                                                                                                                              *          20180618 IMCT                IMCT                                                                                                                    WMF1806184.TXT
MDEUJ6256368201806                D89848584700PT4U20180622000015RADIO;AM/FM CD D              M IMCTM S9CO001TNTH  09020IMCT  S9 PTB  00003                    1030 SR        000000000000 DENSO TEN (THAILAND)18014UU0016016                                                                                                                              *          20180618 IMCT                IMCT                                                                                                                    WMF1806184.TXT
