REC2018070420180704ISUZU                              21     
MAKK87055916201807D1               89825451200P3YK20180717000060SPEAKER ASM;ROOF              M IMCTM CM1    TNTH  09020IMKDC KA PTB  00036  K0                0911DES        000000000000 DENSO TEN (THAILAND)                                                                                                                                            *G         20180704 IMCT                IMCT                                                                                                                    WMF1807047.TXT
MAKK87055917201807D1               89825451200P3YK20180719000090SPEAKER ASM;ROOF              M IMCTM CM1    TNTH  09020IMKDC KA PTB  00036  K0                0911DES        000000000000 DENSO TEN (THAILAND)                                                                                                                                            *G         20180704 IMCT                IMCT                                                                                                                    WMF1807047.TXT
MAKK87055918201807D1               89825451200P3YK20180721000090SPEAKER ASM;ROOF              M IMCTM CM1    TNTH  09020IMKDC KA PTB  00036  K0                0911DES        000000000000 DENSO TEN (THAILAND)                                                                                                                                            *G         20180704 IMCT                IMCT                                                                                                                    WMF1807047.TXT
MAKK87055919201807D1               89828070100P3YK20180716000270SPEAKER ASM                   M IMCTM CM1    TNTH  09020IMKDC KA PTB  00004  K0                0911DES        000000000000 DENSO TEN (THAILAND)                                                                                                                                            *G         20180704 IMCT                IMCT                                                                                                                    WMF1807047.TXT
MAKK87055920201807D1               89828070100P3YK20180717000270SPEAKER ASM                   M IMCTM CM1    TNTH  09020IMKDC KA PTB  00004  K0                0911DES        000000000000 DENSO TEN (THAILAND)                                                                                                                                            *G         20180704 IMCT                IMCT                                                                                                                    WMF1807047.TXT
MAKK87055921201807D1               89828070100P3YK20180718000330SPEAKER ASM                   M IMCTM CM1    TNTH  09020IMKDC KA PTB  00004  K0                0911DES        000000000000 DENSO TEN (THAILAND)                                                                                                                                            *G         20180704 IMCT                IMCT                                                                                                                    WMF1807047.TXT
MAKK87055922201807D1               89828070100P3YK20180719000240SPEAKER ASM                   M IMCTM CM1    TNTH  09020IMKDC KA PTB  00004  K0                0911DES        000000000000 DENSO TEN (THAILAND)                                                                                                                                            *G         20180704 IMCT                IMCT                                                                                                                    WMF1807047.TXT
MAKK87055923201807D1               89828070100P3YK20180720000300SPEAKER ASM                   M IMCTM CM1    TNTH  09020IMKDC KA PTB  00004  K0                0911DES        000000000000 DENSO TEN (THAILAND)                                                                                                                                            *G         20180704 IMCT                IMCT                                                                                                                    WMF1807047.TXT
MAKK87055924201807D1               89828070100P3YK20180721000300SPEAKER ASM                   M IMCTM CM1    TNTH  09020IMKDC KA PTB  00004  K0                0911DES        000000000000 DENSO TEN (THAILAND)                                                                                                                                            *G         20180704 IMCT                IMCT                                                                                                                    WMF1807047.TXT
MAKK87055925201807D1               89828070200P3YK20180716000060SPEAKER ASM                   M IMCTM CM1    TNTH  09020IMKDC KA PTB  00005  K0                0911DES        000000000000 DENSO TEN (THAILAND)                                                                                                                                            *G         20180704 IMCT                IMCT                                                                                                                    WMF1807047.TXT
MAKK87055926201807D1               89828070200P3YK20180717000060SPEAKER ASM                   M IMCTM CM1    TNTH  09020IMKDC KA PTB  00005  K0                0911DES        000000000000 DENSO TEN (THAILAND)                                                                                                                                            *G         20180704 IMCT                IMCT                                                                                                                    WMF1807047.TXT
MAKK87055927201807D1               89828070200P3YK20180718000030SPEAKER ASM                   M IMCTM CM1    TNTH  09020IMKDC KA PTB  00005  K0                0911DES        000000000000 DENSO TEN (THAILAND)                                                                                                                                            *G         20180704 IMCT                IMCT                                                                                                                    WMF1807047.TXT
MAKK87055928201807D1               89828070200P3YK20180719000090SPEAKER ASM                   M IMCTM CM1    TNTH  09020IMKDC KA PTB  00005  K0                0911DES        000000000000 DENSO TEN (THAILAND)                                                                                                                                            *G         20180704 IMCT                IMCT                                                                                                                    WMF1807047.TXT
MAKK87055929201807D1               89828070200P3YK20180720000060SPEAKER ASM                   M IMCTM CM1    TNTH  09020IMKDC KA PTB  00005  K0                0911DES        000000000000 DENSO TEN (THAILAND)                                                                                                                                            *G         20180704 IMCT                IMCT                                                                                                                    WMF1807047.TXT
MAKK87055930201807D1               89828070200P3YK20180721000180SPEAKER ASM                   M IMCTM CM1    TNTH  09020IMKDC KA PTB  00005  K0                0911DES        000000000000 DENSO TEN (THAILAND)                                                                                                                                            *G         20180704 IMCT                IMCT                                                                                                                    WMF1807047.TXT
MAKK87055931201807D1               89828070300P3YK20180716000090SPEAKER ASM                   M IMCTM CM1    TNTH  09020IMKDC KA PTB  00015  K0                0911DES        000000000000 DENSO TEN (THAILAND)                                                                                                                                            *G         20180704 IMCT                IMCT                                                                                                                    WMF1807047.TXT
MAKK87055932201807D1               89828070300P3YK20180717000060SPEAKER ASM                   M IMCTM CM1    TNTH  09020IMKDC KA PTB  00015  K0                0911DES        000000000000 DENSO TEN (THAILAND)                                                                                                                                            *G         20180704 IMCT                IMCT                                                                                                                    WMF1807047.TXT
MAKK87055933201807D1               89828070300P3YK20180718000030SPEAKER ASM                   M IMCTM CM1    TNTH  09020IMKDC KA PTB  00015  K0                0911DES        000000000000 DENSO TEN (THAILAND)                                                                                                                                            *G         20180704 IMCT                IMCT                                                                                                                    WMF1807047.TXT
MAKK87055934201807D1               89828070300P3YK20180719000090SPEAKER ASM                   M IMCTM CM1    TNTH  09020IMKDC KA PTB  00015  K0                0911DES        000000000000 DENSO TEN (THAILAND)                                                                                                                                            *G         20180704 IMCT                IMCT                                                                                                                    WMF1807047.TXT
MAKK87055935201807D1               89828070300P3YK20180720000090SPEAKER ASM                   M IMCTM CM1    TNTH  09020IMKDC KA PTB  00015  K0                0911DES        000000000000 DENSO TEN (THAILAND)                                                                                                                                            *G         20180704 IMCT                IMCT                                                                                                                    WMF1807047.TXT
MAKK87055936201807D1               89828070300P3YK20180721000180SPEAKER ASM                   M IMCTM CM1    TNTH  09020IMKDC KA PTB  00015  K0                0911DES        000000000000 DENSO TEN (THAILAND)                                                                                                                                            *G         20180704 IMCT                IMCT                                                                                                                    WMF1807047.TXT
