REC2018072320180723ISUZU                              64     
MDDDJ7300591201807                D89821984430PT1D20180726000030RADIO;AM/FM,CD                M IMCTM S5NC06 TNTH  09020IMCT  S5 PTB  00005                    2230 SR        000000000000 DENSO TEN (THAILAND)180LNGL0167167                                                                                                                              *          20180723 IMCT                IMCT                                                                                                                    WMF1807234.TXT
MDDDJ7300592201807                D89821984430PT1D20180727000030RADIO;AM/FM,CD                M IMCTM S5NC06 TNTH  09020IMCT  S5 PTB  00005                    0400 SR        000000000000 DENSO TEN (THAILAND)180LXCL0070070                                                                                                                              *          20180723 IMCT                IMCT                                                                                                                    WMF1807234.TXT
MDDDJ7300593201807                D89821984430PT1D20180727000030RADIO;AM/FM,CD                M IMCTM S5NC06 TNTH  09020IMCT  S5 PTB  00005                    0830 SR        000000000000 DENSO TEN (THAILAND)180LRAL0205205                                                                                                                              *          20180723 IMCT                IMCT                                                                                                                    WMF1807234.TXT
MDDDJ7300594201807                D89821984430PT1D20180727000030RADIO;AM/FM,CD                M IMCTM S5NC06 TNTH  09020IMCT  S5 PTB  00005                    1300 SR        000000000000 DENSO TEN (THAILAND)180LRAL0206206                                                                                                                              *          20180723 IMCT                IMCT                                                                                                                    WMF1807234.TXT
MDDDJ7300595201807                D89828070100PV1D20180726000060SPEAKER ASM                   M IMCTM S5MB11 TNTH  09020IMCT  S5 PTB  00004                    2230 SR        000000000000 DENSO TEN (THAILAND)180LNGL0167167                                                                                                                              *          20180723 IMCT                IMCT                                                                                                                    WMF1807234.TXT
MDDDJ7300596201807                D89828070100PV1D20180727000060SPEAKER ASM                   M IMCTM S5MB11 TNTH  09020IMCT  S5 PTB  00004                    0230 SR        000000000000 DENSO TEN (THAILAND)180LPGL0292292                                                                                                                              *          20180723 IMCT                IMCT                                                                                                                    WMF1807234.TXT
MDDDJ7300597201807                D89828070100PV1D20180727000060SPEAKER ASM                   M IMCTM S5MB11 TNTH  09020IMCT  S5 PTB  00004                    0400 SR        000000000000 DENSO TEN (THAILAND)180LXCL0070070                                                                                                                              *          20180723 IMCT                IMCT                                                                                                                    WMF1807234.TXT
MDDDJ7300598201807                D89828070100PV1D20180727000060SPEAKER ASM                   M IMCTM S5MB11 TNTH  09020IMCT  S5 PTB  00004                    0830 SR        000000000000 DENSO TEN (THAILAND)180LRAL0205205                                                                                                                              *          20180723 IMCT                IMCT                                                                                                                    WMF1807234.TXT
MDDDJ7300599201807                D89828070100PV1D20180727000120SPEAKER ASM                   M IMCTM S5MB11 TNTH  09020IMCT  S5 PTB  00004                    1300 SR        000000000000 DENSO TEN (THAILAND)180LPCL0078078180LRAL0206206                                                                                                                *          20180723 IMCT                IMCT                                                                                                                    WMF1807234.TXT
MDDDJ7300600201807                D89828070100PV1D20180727000060SPEAKER ASM                   M IMCTM S5MB11 TNTH  09020IMCT  S5 PTB  00004                    1600 SR        000000000000 DENSO TEN (THAILAND)180LXBL0017017                                                                                                                              *          20180723 IMCT                IMCT                                                                                                                    WMF1807234.TXT
MDDDJ7300601201807                D89828070100PV1D20180727000060SPEAKER ASM                   M IMCTM S5MB11 TNTH  09020IMCT  S5 PTB  00004                    2100 SR        000000000000 DENSO TEN (THAILAND)180LPHL0021021                                                                                                                              *          20180723 IMCT                IMCT                                                                                                                    WMF1807234.TXT
MDDDJ7300602201807                D89828070300PT1D20180727000060SPEAKER ASM                   M IMCTM S5NB082TNTH  09020IMCT  S5 PTB  00015                    0230 SR        000000000000 DENSO TEN (THAILAND)180LPGL0292292                                                                                                                              *          20180723 IMCT                IMCT                                                                                                                    WMF1807234.TXT
MDDDJ7300603201807                D89828070300PT1D20180727000060SPEAKER ASM                   M IMCTM S5NB082TNTH  09020IMCT  S5 PTB  00015                    1300 SR        000000000000 DENSO TEN (THAILAND)180LPCL0078078                                                                                                                              *          20180723 IMCT                IMCT                                                                                                                    WMF1807234.TXT
MDDDJ7300604201807                D89828070300PT1D20180727000060SPEAKER ASM                   M IMCTM S5NB082TNTH  09020IMCT  S5 PTB  00015                    2100 SR        000000000000 DENSO TEN (THAILAND)180LPHL0021021                                                                                                                              *          20180723 IMCT                IMCT                                                                                                                    WMF1807234.TXT
MDDDJ7300605201807                D89831228300PT1D20180727000030RADIO;AM/FM,CD                M IMCTM S5NC06 TNTH  09020IMCT  S5 CPB  00003                    0230 SR        000000000000 DENSO TEN (THAILAND)180LPGL0292292                                                                                                                              *          20180723 IMCT                IMCT                                                                                                                    WMF1807234.TXT
MDDDJ7300606201807                D89831228300PT1D20180727000030RADIO;AM/FM,CD                M IMCTM S5NC06 TNTH  09020IMCT  S5 CPB  00003                    1300 SR        000000000000 DENSO TEN (THAILAND)180LPCL0078078                                                                                                                              *          20180723 IMCT                IMCT                                                                                                                    WMF1807234.TXT
MDDDJ7300607201807                D89831228300PT1D20180727000030RADIO;AM/FM,CD                M IMCTM S5NC06 TNTH  09020IMCT  S5 CPB  00003                    2100 SR        000000000000 DENSO TEN (THAILAND)180LPHL0021021                                                                                                                              *          20180723 IMCT                IMCT                                                                                                                    WMF1807234.TXT
MDDUJ7246017201807                D89828070100PT4U20180727000030SPEAKER ASM                   M IMCTM S0FL05 TNTH  09020IMCT  S0 PTB  00004                    0400 SR        000000000000 DENSO TEN (THAILAND)180LUSU0137137                                                                                                                              *          20180723 IMCT                IMCT                                                                                                                    WMF1807234.TXT
MDDUJ7246018201807                D89828070100PT4U20180727000030SPEAKER ASM                   M IMCTM S0FL05 TNTH  09020IMCT  S0 PTB  00004                    1300 SR        000000000000 DENSO TEN (THAILAND)180LUSU0138138                                                                                                                              *          20180723 IMCT                IMCT                                                                                                                    WMF1807234.TXT
MDDUJ7246019201807                D89828070100PT4U20180727000030SPEAKER ASM                   M IMCTM S0FL05 TNTH  09020IMCT  S0 PTB  00004                    2100 SR        000000000000 DENSO TEN (THAILAND)180LUTU0099099                                                                                                                              *          20180723 IMCT                IMCT                                                                                                                    WMF1807234.TXT
MDDUJ7246020201807                D89828070200PV4U20180727000030SPEAKER ASM                   M IMCTM S0FR05 TNTH  09020IMCT  S0 PTB  00005                    0400 SR        000000000000 DENSO TEN (THAILAND)180LUSU0137137                                                                                                                              *          20180723 IMCT                IMCT                                                                                                                    WMF1807234.TXT
MDDUJ7246021201807                D89828070200PV4U20180727000030SPEAKER ASM                   M IMCTM S0FR05 TNTH  09020IMCT  S0 PTB  00005                    1300 SR        000000000000 DENSO TEN (THAILAND)180LUSU0138138                                                                                                                              *          20180723 IMCT                IMCT                                                                                                                    WMF1807234.TXT
MDDUJ7246022201807                D89828070200PV4U20180727000030SPEAKER ASM                   M IMCTM S0FR05 TNTH  09020IMCT  S0 PTB  00005                    2100 SR        000000000000 DENSO TEN (THAILAND)180LUTU0099099                                                                                                                              *          20180723 IMCT                IMCT                                                                                                                    WMF1807234.TXT
MDDUJ7246023201807                D89828070300PT4U20180727000030SPEAKER ASM                   M IMCTM S9TS02 TNTH  09020IMCT  S9 PTB  00015                    0400 SR        000000000000 DENSO TEN (THAILAND)180LUSU0137137                                                                                                                              *          20180723 IMCT                IMCT                                                                                                                    WMF1807234.TXT
MDDUJ7246024201807                D89828070300PT4U20180727000030SPEAKER ASM                   M IMCTM S9TS02 TNTH  09020IMCT  S9 PTB  00015                    1300 SR        000000000000 DENSO TEN (THAILAND)180LUSU0138138                                                                                                                              *          20180723 IMCT                IMCT                                                                                                                    WMF1807234.TXT
MDDUJ7246025201807                D89828070300PT4U20180727000030SPEAKER ASM                   M IMCTM S9TS02 TNTH  09020IMCT  S9 PTB  00015                    2100 SR        000000000000 DENSO TEN (THAILAND)180LUTU0099099                                                                                                                              *          20180723 IMCT                IMCT                                                                                                                    WMF1807234.TXT
MDEDJ7312288201807                D89828070100PV1D20180726000030SPEAKER ASM                   M IMCTM S5MB11 TNTH  09020IMCT  S5 PTB  00004                    2230 SR        000000000000 DENSO TEN (THAILAND)17085RL0033033                                                                                                                              *          20180723 IMCT                IMCT                                                                                                                    WMF1807234.TXT
MDEDJ7312289201807                D89828070100PV1D20180727000060SPEAKER ASM                   M IMCTM S5MB11 TNTH  09020IMCT  S5 PTB  00004                    0400 SR        000000000000 DENSO TEN (THAILAND)18080UL0039040                                                                                                                              *          20180723 IMCT                IMCT                                                                                                                    WMF1807234.TXT
MDEDJ7312290201807                D89828070100PV1D20180727000030SPEAKER ASM                   M IMCTM S5MB11 TNTH  09020IMCT  S5 PTB  00004                    1030 SR        000000000000 DENSO TEN (THAILAND)18076UL0015015                                                                                                                              *          20180723 IMCT                IMCT                                                                                                                    WMF1807234.TXT
MDEDJ7312291201807                D89828070100PV1D20180727000030SPEAKER ASM                   M IMCTM S5MB11 TNTH  09020IMCT  S5 PTB  00004                    1300 SR        000000000000 DENSO TEN (THAILAND)18076UL0016016                                                                                                                              *          20180723 IMCT                IMCT                                                                                                                    WMF1807234.TXT
MDEDJ7312292201807                D89828070100PV1D20180727000030SPEAKER ASM                   M IMCTM S5MB11 TNTH  09020IMCT  S5 PTB  00004                    1600 SR        000000000000 DENSO TEN (THAILAND)18099UL0088088                                                                                                                              *          20180723 IMCT                IMCT                                                                                                                    WMF1807234.TXT
MDEDJ7312293201807                D89828070100PV4D20180726000030SPEAKER ASM                   M IMCTM S0FL05 TNTH  09020IMCT  S0 PTB  00004                    2230 SR        000000000000 DENSO TEN (THAILAND)18099XU0003003                                                                                                                              *          20180723 IMCT                IMCT                                                                                                                    WMF1807234.TXT
MDEDJ7312294201807                D89828070100PV4D20180727000030SPEAKER ASM                   M IMCTM S0FL05 TNTH  09020IMCT  S0 PTB  00004                    0400 SR        000000000000 DENSO TEN (THAILAND)18066UU0013013                                                                                                                              *          20180723 IMCT                IMCT                                                                                                                    WMF1807234.TXT
MDEDJ7312295201807                D89828070100PV4D20180727000030SPEAKER ASM                   M IMCTM S0FL05 TNTH  09020IMCT  S0 PTB  00004                    1030 SR        000000000000 DENSO TEN (THAILAND)18007YU0003003                                                                                                                              *          20180723 IMCT                IMCT                                                                                                                    WMF1807234.TXT
MDEDJ7312296201807                D89828070100PV4D20180727000060SPEAKER ASM                   M IMCTM S0FL05 TNTH  09020IMCT  S0 PTB  00004                    1300 SR        000000000000 DENSO TEN (THAILAND)18063UU004404418064UU0018018                                                                                                                *          20180723 IMCT                IMCT                                                                                                                    WMF1807234.TXT
MDEDJ7312297201807                D89828070100PV4D20180727000030SPEAKER ASM                   M IMCTM S0FL05 TNTH  09020IMCT  S0 PTB  00004                    2230 SR        000000000000 DENSO TEN (THAILAND)18001YU0003003                                                                                                                              *          20180723 IMCT                IMCT                                                                                                                    WMF1807234.TXT
MDEDJ7312298201807                D89828070200PV1D20180727000060SPEAKER ASM                   M IMCTM S5MA14 TNTH  09020IMCT  S5 PTB  00005                    0400 SR        000000000000 DENSO TEN (THAILAND)18080UL0039040                                                                                                                              *          20180723 IMCT                IMCT                                                                                                                    WMF1807234.TXT
MDEDJ7312299201807                D89828070200PV1D20180727000030SPEAKER ASM                   M IMCTM S5MA14 TNTH  09020IMCT  S5 PTB  00005                    1600 SR        000000000000 DENSO TEN (THAILAND)18099UL0088088                                                                                                                              *          20180723 IMCT                IMCT                                                                                                                    WMF1807234.TXT
MDEDJ7312300201807                D89828070200PV4D20180726000030SPEAKER ASM                   M IMCTM S0FR05 TNTH  09020IMCT  S0 PTB  00005                    2230 SR        000000000000 DENSO TEN (THAILAND)18099XU0003003                                                                                                                              *          20180723 IMCT                IMCT                                                                                                                    WMF1807234.TXT
MDEDJ7312301201807                D89828070200PV4D20180727000030SPEAKER ASM                   M IMCTM S0FR05 TNTH  09020IMCT  S0 PTB  00005                    0400 SR        000000000000 DENSO TEN (THAILAND)18066UU0013013                                                                                                                              *          20180723 IMCT                IMCT                                                                                                                    WMF1807234.TXT
MDEDJ7312302201807                D89828070200PV4D20180727000030SPEAKER ASM                   M IMCTM S0FR05 TNTH  09020IMCT  S0 PTB  00005                    1030 SR        000000000000 DENSO TEN (THAILAND)18007YU0003003                                                                                                                              *          20180723 IMCT                IMCT                                                                                                                    WMF1807234.TXT
MDEDJ7312303201807                D89828070200PV4D20180727000030SPEAKER ASM                   M IMCTM S0FR05 TNTH  09020IMCT  S0 PTB  00005                    2230 SR        000000000000 DENSO TEN (THAILAND)18001YU0003003                                                                                                                              *          20180723 IMCT                IMCT                                                                                                                    WMF1807234.TXT
MDEDJ7312304201807                D89828070300PT1D20180727000060SPEAKER ASM                   M IMCTM S5NB082TNTH  09020IMCT  S5 PTB  00015                    0400 SR        000000000000 DENSO TEN (THAILAND)18080UL0039040                                                                                                                              *          20180723 IMCT                IMCT                                                                                                                    WMF1807234.TXT
MDEDJ7312305201807                D89828070300PT1D20180727000030SPEAKER ASM                   M IMCTM S5NB082TNTH  09020IMCT  S5 PTB  00015                    1030 SR        000000000000 DENSO TEN (THAILAND)18076UL0015015                                                                                                                              *          20180723 IMCT                IMCT                                                                                                                    WMF1807234.TXT
MDEDJ7312306201807                D89828070300PT1D20180727000030SPEAKER ASM                   M IMCTM S5NB082TNTH  09020IMCT  S5 PTB  00015                    1300 SR        000000000000 DENSO TEN (THAILAND)18076UL0016016                                                                                                                              *          20180723 IMCT                IMCT                                                                                                                    WMF1807234.TXT
MDEDJ7312307201807                D89828070300PT1D20180727000030SPEAKER ASM                   M IMCTM S5NB082TNTH  09020IMCT  S5 PTB  00015                    1600 SR        000000000000 DENSO TEN (THAILAND)18099UL0088088                                                                                                                              *          20180723 IMCT                IMCT                                                                                                                    WMF1807234.TXT
MDEDJ7312308201807                D89828070300PT4D20180726000030SPEAKER ASM                   M IMCTM S9TS02 TNTH  09020IMCT  S9 PTB  00015                    2230 SR        000000000000 DENSO TEN (THAILAND)18099XU0003003                                                                                                                              *          20180723 IMCT                IMCT                                                                                                                    WMF1807234.TXT
MDEDJ7312309201807                D89828070300PT4D20180727000030SPEAKER ASM                   M IMCTM S9TS02 TNTH  09020IMCT  S9 PTB  00015                    0400 SR        000000000000 DENSO TEN (THAILAND)18066UU0013013                                                                                                                              *          20180723 IMCT                IMCT                                                                                                                    WMF1807234.TXT
MDEDJ7312310201807                D89828070300PT4D20180727000030SPEAKER ASM                   M IMCTM S9TS02 TNTH  09020IMCT  S9 PTB  00015                    1030 SR        000000000000 DENSO TEN (THAILAND)18007YU0003003                                                                                                                              *          20180723 IMCT                IMCT                                                                                                                    WMF1807234.TXT
MDEDJ7312311201807                D89828070300PT4D20180727000060SPEAKER ASM                   M IMCTM S9TS02 TNTH  09020IMCT  S9 PTB  00015                    1300 SR        000000000000 DENSO TEN (THAILAND)18063UU004404418064UU0018018                                                                                                                *          20180723 IMCT                IMCT                                                                                                                    WMF1807234.TXT
MDEDJ7312312201807                D89828070300PT4D20180727000030SPEAKER ASM                   M IMCTM S9TS02 TNTH  09020IMCT  S9 PTB  00015                    2230 SR        000000000000 DENSO TEN (THAILAND)18001YU0003003                                                                                                                              *          20180723 IMCT                IMCT                                                                                                                    WMF1807234.TXT
MDEDJ7312313201807                D89848581800PT1D20180727000030RADIO;AM/FM CD D              M IMCTM S5NC06 TNTH  09020IMCT  S5 PTB  00003                    0400 SR        000000000000 DENSO TEN (THAILAND)18080UL0039040                                                                                                                              *          20180723 IMCT                IMCT                                                                                                                    WMF1807234.TXT
MDEDJ7312314201807                D89848581800PT4D20180727000015RADIO;AM/FM CD D              M IMCTM S9CO001TNTH  09020IMCT  S9 PTB  00003                    0400 SR        000000000000 DENSO TEN (THAILAND)18066UU0013013                                                                                                                              *          20180723 IMCT                IMCT                                                                                                                    WMF1807234.TXT
MDEDJ7312315201807                D89848581800PT4D20180727000015RADIO;AM/FM CD D              M IMCTM S9CO001TNTH  09020IMCT  S9 PTB  00003                    1300 SR        000000000000 DENSO TEN (THAILAND)18063UU0044044                                                                                                                              *          20180723 IMCT                IMCT                                                                                                                    WMF1807234.TXT
MDEDJ7312316201807                D89848582500PT4D20180727000015RADIO;AM/FM CD D              M IMCTM S9CO001TNTH  09020IMCT  S9 PTB  00003                    1300 SR        000000000000 DENSO TEN (THAILAND)18064UU0018018                                                                                                                              *          20180723 IMCT                IMCT                                                                                                                    WMF1807234.TXT
MDEUJ7253020201807                D89828070100PT4U20180727000030SPEAKER ASM                   M IMCTM S0FL05 TNTH  09020IMCT  S0 PTB  00004                    0230 SR        000000000000 DENSO TEN (THAILAND)18016UU0034034                                                                                                                              *          20180723 IMCT                IMCT                                                                                                                    WMF1807234.TXT
MDEUJ7253021201807                D89828070100PT4U20180727000030SPEAKER ASM                   M IMCTM S0FL05 TNTH  09020IMCT  S0 PTB  00004                    0830 SR        000000000000 DENSO TEN (THAILAND)18021UU0138138                                                                                                                              *          20180723 IMCT                IMCT                                                                                                                    WMF1807234.TXT
MDEUJ7253022201807                D89828070100PT4U20180727000030SPEAKER ASM                   M IMCTM S0FL05 TNTH  09020IMCT  S0 PTB  00004                    1300 SR        000000000000 DENSO TEN (THAILAND)18020UU0097097                                                                                                                              *          20180723 IMCT                IMCT                                                                                                                    WMF1807234.TXT
MDEUJ7253023201807                D89828070200PV4U20180727000030SPEAKER ASM                   M IMCTM S0FR05 TNTH  09020IMCT  S0 PTB  00005                    0230 SR        000000000000 DENSO TEN (THAILAND)18016UU0034034                                                                                                                              *          20180723 IMCT                IMCT                                                                                                                    WMF1807234.TXT
MDEUJ7253024201807                D89828070200PV4U20180727000030SPEAKER ASM                   M IMCTM S0FR05 TNTH  09020IMCT  S0 PTB  00005                    0830 SR        000000000000 DENSO TEN (THAILAND)18021UU0138138                                                                                                                              *          20180723 IMCT                IMCT                                                                                                                    WMF1807234.TXT
MDEUJ7253025201807                D89828070200PV4U20180727000030SPEAKER ASM                   M IMCTM S0FR05 TNTH  09020IMCT  S0 PTB  00005                    1300 SR        000000000000 DENSO TEN (THAILAND)18020UU0097097                                                                                                                              *          20180723 IMCT                IMCT                                                                                                                    WMF1807234.TXT
MDEUJ7253026201807                D89828070300PT4U20180727000030SPEAKER ASM                   M IMCTM S9TS02 TNTH  09020IMCT  S9 PTB  00015                    0230 SR        000000000000 DENSO TEN (THAILAND)18016UU0034034                                                                                                                              *          20180723 IMCT                IMCT                                                                                                                    WMF1807234.TXT
MDEUJ7253027201807                D89828070300PT4U20180727000030SPEAKER ASM                   M IMCTM S9TS02 TNTH  09020IMCT  S9 PTB  00015                    0830 SR        000000000000 DENSO TEN (THAILAND)18021UU0138138                                                                                                                              *          20180723 IMCT                IMCT                                                                                                                    WMF1807234.TXT
MDEUJ7253028201807                D89828070300PT4U20180727000030SPEAKER ASM                   M IMCTM S9TS02 TNTH  09020IMCT  S9 PTB  00015                    1300 SR        000000000000 DENSO TEN (THAILAND)18020UU0097097                                                                                                                              *          20180723 IMCT                IMCT                                                                                                                    WMF1807234.TXT
