REC2018070220180702ISUZU                              49     
MDDDJ7204446201807                D89821984430PT1D20180706000030RADIO;AM/FM,CD                M IMCTM S5NC06 TNTH  09020IMCT  S5 PTB  00005                    0230 SR        000000000000 DENSO TEN (THAILAND)180LNGL0151151                                                                                                                              *          20180702 IMCT                IMCT                                                                                                                    WMF1807024.TXT
MDDDJ7204447201807                D89821984430PT1D20180706000030RADIO;AM/FM,CD                M IMCTM S5NC06 TNTH  09020IMCT  S5 PTB  00005                    0400 SR        000000000000 DENSO TEN (THAILAND)180LRAL0190190                                                                                                                              *          20180702 IMCT                IMCT                                                                                                                    WMF1807024.TXT
MDDDJ7204448201807                D89821984430PT1D20180706000030RADIO;AM/FM,CD                M IMCTM S5NC06 TNTH  09020IMCT  S5 PTB  00005                    0830 SR        000000000000 DENSO TEN (THAILAND)180LPAL0178178                                                                                                                              *          20180702 IMCT                IMCT                                                                                                                    WMF1807024.TXT
MDDDJ7204449201807                D89821984430PT1D20180706000060RADIO;AM/FM,CD                M IMCTM S5NC06 TNTH  09020IMCT  S5 PTB  00005                    1300 SR        000000000000 DENSO TEN (THAILAND)180LNHL0052052180LRAL0191191                                                                                                                *          20180702 IMCT                IMCT                                                                                                                    WMF1807024.TXT
MDDDJ7204450201807                D89821984430PT1D20180706000030RADIO;AM/FM,CD                M IMCTM S5NC06 TNTH  09020IMCT  S5 PTB  00005                    2230 SR        000000000000 DENSO TEN (THAILAND)180LXEL0062062                                                                                                                              *          20180702 IMCT                IMCT                                                                                                                    WMF1807024.TXT
MDDDJ7204451201807                D89828070100PV1D20180706000060SPEAKER ASM                   M IMCTM S5MB11 TNTH  09020IMCT  S5 PTB  00004                    0230 SR        000000000000 DENSO TEN (THAILAND)180LNGL0151151                                                                                                                              *          20180702 IMCT                IMCT                                                                                                                    WMF1807024.TXT
MDDDJ7204452201807                D89828070100PV1D20180706000060SPEAKER ASM                   M IMCTM S5MB11 TNTH  09020IMCT  S5 PTB  00004                    0400 SR        000000000000 DENSO TEN (THAILAND)180LRAL0190190                                                                                                                              *          20180702 IMCT                IMCT                                                                                                                    WMF1807024.TXT
MDDDJ7204453201807                D89828070100PV1D20180706000060SPEAKER ASM                   M IMCTM S5MB11 TNTH  09020IMCT  S5 PTB  00004                    0830 SR        000000000000 DENSO TEN (THAILAND)180LPAL0178178                                                                                                                              *          20180702 IMCT                IMCT                                                                                                                    WMF1807024.TXT
MDDDJ7204454201807                D89828070100PV1D20180706000180SPEAKER ASM                   M IMCTM S5MB11 TNTH  09020IMCT  S5 PTB  00004                    1300 SR        000000000000 DENSO TEN (THAILAND)180LNHL0052052180LPGL0268268180LRAL0191191                                                                                                  *          20180702 IMCT                IMCT                                                                                                                    WMF1807024.TXT
MDDDJ7204455201807                D89828070100PV1D20180706000060SPEAKER ASM                   M IMCTM S5MB11 TNTH  09020IMCT  S5 PTB  00004                    2100 SR        000000000000 DENSO TEN (THAILAND)180LPKL0073073                                                                                                                              *          20180702 IMCT                IMCT                                                                                                                    WMF1807024.TXT
MDDDJ7204456201807                D89828070100PV1D20180706000060SPEAKER ASM                   M IMCTM S5MB11 TNTH  09020IMCT  S5 PTB  00004                    2230 SR        000000000000 DENSO TEN (THAILAND)180LXEL0062062                                                                                                                              *          20180702 IMCT                IMCT                                                                                                                    WMF1807024.TXT
MDDDJ7204457201807                D89828070300PT1D20180706000060SPEAKER ASM                   M IMCTM S5NB082TNTH  09020IMCT  S5 PTB  00015                    1300 SR        000000000000 DENSO TEN (THAILAND)180LPGL0268268                                                                                                                              *          20180702 IMCT                IMCT                                                                                                                    WMF1807024.TXT
MDDDJ7204458201807                D89828070300PT1D20180706000060SPEAKER ASM                   M IMCTM S5NB082TNTH  09020IMCT  S5 PTB  00015                    2100 SR        000000000000 DENSO TEN (THAILAND)180LPKL0073073                                                                                                                              *          20180702 IMCT                IMCT                                                                                                                    WMF1807024.TXT
MDDDJ7204459201807                D89831228300PT1D20180706000030RADIO;AM/FM,CD                M IMCTM S5NC06 TNTH  09020IMCT  S5 CPB  00003                    1300 SR        000000000000 DENSO TEN (THAILAND)180LPGL0268268                                                                                                                              *          20180702 IMCT                IMCT                                                                                                                    WMF1807024.TXT
MDDDJ7204460201807                D89848581600PT1D20180706000030RADIO;AM/FM CD D              M IMCTM S5NC06 TNTH  09020IMCT  S5 PTB  00003                    2100 SR        000000000000 DENSO TEN (THAILAND)180LPKL0073073                                                                                                                              *          20180702 IMCT                IMCT                                                                                                                    WMF1807024.TXT
MDDUJ7201867201807                D89828070100PT4U20180706000030SPEAKER ASM                   M IMCTM S0FL05 TNTH  09020IMCT  S0 PTB  00004                    0830 SR        000000000000 DENSO TEN (THAILAND)180LUSU0114114                                                                                                                              *          20180702 IMCT                IMCT                                                                                                                    WMF1807024.TXT
MDDUJ7201868201807                D89828070100PT4U20180706000030SPEAKER ASM                   M IMCTM S0FL05 TNTH  09020IMCT  S0 PTB  00004                    1300 SR        000000000000 DENSO TEN (THAILAND)180LURU0081081                                                                                                                              *          20180702 IMCT                IMCT                                                                                                                    WMF1807024.TXT
MDDUJ7201869201807                D89828070100PT4U20180706000030SPEAKER ASM                   M IMCTM S0FL05 TNTH  09020IMCT  S0 PTB  00004                    2230 SR        000000000000 DENSO TEN (THAILAND)180LUTU0080080                                                                                                                              *          20180702 IMCT                IMCT                                                                                                                    WMF1807024.TXT
MDDUJ7201870201807                D89828070200PV4U20180706000030SPEAKER ASM                   M IMCTM S0FR05 TNTH  09020IMCT  S0 PTB  00005                    0830 SR        000000000000 DENSO TEN (THAILAND)180LUSU0114114                                                                                                                              *          20180702 IMCT                IMCT                                                                                                                    WMF1807024.TXT
MDDUJ7201871201807                D89828070200PV4U20180706000030SPEAKER ASM                   M IMCTM S0FR05 TNTH  09020IMCT  S0 PTB  00005                    1300 SR        000000000000 DENSO TEN (THAILAND)180LURU0081081                                                                                                                              *          20180702 IMCT                IMCT                                                                                                                    WMF1807024.TXT
MDDUJ7201872201807                D89828070200PV4U20180706000030SPEAKER ASM                   M IMCTM S0FR05 TNTH  09020IMCT  S0 PTB  00005                    2230 SR        000000000000 DENSO TEN (THAILAND)180LUTU0080080                                                                                                                              *          20180702 IMCT                IMCT                                                                                                                    WMF1807024.TXT
MDDUJ7201873201807                D89828070300PT4U20180706000030SPEAKER ASM                   M IMCTM S9TS02 TNTH  09020IMCT  S9 PTB  00015                    0830 SR        000000000000 DENSO TEN (THAILAND)180LUSU0114114                                                                                                                              *          20180702 IMCT                IMCT                                                                                                                    WMF1807024.TXT
MDDUJ7201874201807                D89828070300PT4U20180706000030SPEAKER ASM                   M IMCTM S9TS02 TNTH  09020IMCT  S9 PTB  00015                    1300 SR        000000000000 DENSO TEN (THAILAND)180LURU0081081                                                                                                                              *          20180702 IMCT                IMCT                                                                                                                    WMF1807024.TXT
MDDUJ7201875201807                D89828070300PT4U20180706000030SPEAKER ASM                   M IMCTM S9TS02 TNTH  09020IMCT  S9 PTB  00015                    2230 SR        000000000000 DENSO TEN (THAILAND)180LUTU0080080                                                                                                                              *          20180702 IMCT                IMCT                                                                                                                    WMF1807024.TXT
MDEDJ7203763201807                D89828070100PV1D20180705000060SPEAKER ASM                   M IMCTM S5MB11 TNTH  09020IMCT  S5 PTB  00004                    2230 SR        000000000000 DENSO TEN (THAILAND)18024XL0007008                                                                                                                              *          20180702 IMCT                IMCT                                                                                                                    WMF1807024.TXT
MDEDJ7203764201807                D89828070100PV1D20180706000030SPEAKER ASM                   M IMCTM S5MB11 TNTH  09020IMCT  S5 PTB  00004                    0230 SR        000000000000 DENSO TEN (THAILAND)18041ZL0002002                                                                                                                              *          20180702 IMCT                IMCT                                                                                                                    WMF1807024.TXT
MDEDJ7203765201807                D89828070100PV1D20180706000030SPEAKER ASM                   M IMCTM S5MB11 TNTH  09020IMCT  S5 PTB  00004                    0400 SR        000000000000 DENSO TEN (THAILAND)18018XL0006006                                                                                                                              *          20180702 IMCT                IMCT                                                                                                                    WMF1807024.TXT
MDEDJ7203766201807                D89828070100PV1D20180706000060SPEAKER ASM                   M IMCTM S5MB11 TNTH  09020IMCT  S5 PTB  00004                    1030 SR        000000000000 DENSO TEN (THAILAND)170C94L000100118076UL0014014                                                                                                                *          20180702 IMCT                IMCT                                                                                                                    WMF1807024.TXT
MDEDJ7203767201807                D89828070100PV4D20180706000030SPEAKER ASM                   M IMCTM S0FL05 TNTH  09020IMCT  S0 PTB  00004                    0230 SR        000000000000 DENSO TEN (THAILAND)17061PU0001001                                                                                                                              *          20180702 IMCT                IMCT                                                                                                                    WMF1807024.TXT
MDEDJ7203768201807                D89828070100PV4D20180706000030SPEAKER ASM                   M IMCTM S0FL05 TNTH  09020IMCT  S0 PTB  00004                    0830 SR        000000000000 DENSO TEN (THAILAND)18031XU0002002                                                                                                                              *          20180702 IMCT                IMCT                                                                                                                    WMF1807024.TXT
MDEDJ7203769201807                D89828070100PV4D20180706000030SPEAKER ASM                   M IMCTM S0FL05 TNTH  09020IMCT  S0 PTB  00004                    1300 SR        000000000000 DENSO TEN (THAILAND)18007ZU0027027                                                                                                                              *          20180702 IMCT                IMCT                                                                                                                    WMF1807024.TXT
MDEDJ7203770201807                D89828070200PV1D20180706000030SPEAKER ASM                   M IMCTM S5MA14 TNTH  09020IMCT  S5 PTB  00005                    0230 SR        000000000000 DENSO TEN (THAILAND)18041ZL0002002                                                                                                                              *          20180702 IMCT                IMCT                                                                                                                    WMF1807024.TXT
MDEDJ7203771201807                D89828070200PV4D20180706000030SPEAKER ASM                   M IMCTM S0FR05 TNTH  09020IMCT  S0 PTB  00005                    0830 SR        000000000000 DENSO TEN (THAILAND)18031XU0002002                                                                                                                              *          20180702 IMCT                IMCT                                                                                                                    WMF1807024.TXT
MDEDJ7203772201807                D89828070300PT1D20180706000030SPEAKER ASM                   M IMCTM S5NB082TNTH  09020IMCT  S5 PTB  00015                    0230 SR        000000000000 DENSO TEN (THAILAND)18041ZL0002002                                                                                                                              *          20180702 IMCT                IMCT                                                                                                                    WMF1807024.TXT
MDEDJ7203773201807                D89828070300PT1D20180706000030SPEAKER ASM                   M IMCTM S5NB082TNTH  09020IMCT  S5 PTB  00015                    0400 SR        000000000000 DENSO TEN (THAILAND)18018XL0006006                                                                                                                              *          20180702 IMCT                IMCT                                                                                                                    WMF1807024.TXT
MDEDJ7203774201807                D89828070300PT1D20180706000030SPEAKER ASM                   M IMCTM S5NB082TNTH  09020IMCT  S5 PTB  00015                    1030 SR        000000000000 DENSO TEN (THAILAND)18076UL0014014                                                                                                                              *          20180702 IMCT                IMCT                                                                                                                    WMF1807024.TXT
MDEDJ7203775201807                D89828070300PT4D20180706000030SPEAKER ASM                   M IMCTM S9TS02 TNTH  09020IMCT  S9 PTB  00015                    0830 SR        000000000000 DENSO TEN (THAILAND)18031XU0002002                                                                                                                              *          20180702 IMCT                IMCT                                                                                                                    WMF1807024.TXT
MDEUJ7202277201807                D89828070100PT4U20180705000030SPEAKER ASM                   M IMCTM S0FL05 TNTH  09020IMCT  S0 PTB  00004                    2230 SR        000000000000 DENSO TEN (THAILAND)18050ZU0026026                                                                                                                              *          20180702 IMCT                IMCT                                                                                                                    WMF1807024.TXT
MDEUJ7202278201807                D89828070100PT4U20180706000030SPEAKER ASM                   M IMCTM S0FL05 TNTH  09020IMCT  S0 PTB  00004                    0230 SR        000000000000 DENSO TEN (THAILAND)18020UU0084084                                                                                                                              *          20180702 IMCT                IMCT                                                                                                                    WMF1807024.TXT
MDEUJ7202279201807                D89828070100PT4U20180706000030SPEAKER ASM                   M IMCTM S0FL05 TNTH  09020IMCT  S0 PTB  00004                    1030 SR        000000000000 DENSO TEN (THAILAND)18015UU0033033                                                                                                                              *          20180702 IMCT                IMCT                                                                                                                    WMF1807024.TXT
MDEUJ7202280201807                D89828070100PT4U20180706000030SPEAKER ASM                   M IMCTM S0FL05 TNTH  09020IMCT  S0 PTB  00004                    2100 SR        000000000000 DENSO TEN (THAILAND)18031UU0003003                                                                                                                              *          20180702 IMCT                IMCT                                                                                                                    WMF1807024.TXT
MDEUJ7202281201807                D89828070200PV4U20180705000030SPEAKER ASM                   M IMCTM S0FR05 TNTH  09020IMCT  S0 PTB  00005                    2230 SR        000000000000 DENSO TEN (THAILAND)18050ZU0026026                                                                                                                              *          20180702 IMCT                IMCT                                                                                                                    WMF1807024.TXT
MDEUJ7202282201807                D89828070200PV4U20180706000030SPEAKER ASM                   M IMCTM S0FR05 TNTH  09020IMCT  S0 PTB  00005                    0230 SR        000000000000 DENSO TEN (THAILAND)18020UU0084084                                                                                                                              *          20180702 IMCT                IMCT                                                                                                                    WMF1807024.TXT
MDEUJ7202283201807                D89828070200PV4U20180706000030SPEAKER ASM                   M IMCTM S0FR05 TNTH  09020IMCT  S0 PTB  00005                    1030 SR        000000000000 DENSO TEN (THAILAND)18015UU0033033                                                                                                                              *          20180702 IMCT                IMCT                                                                                                                    WMF1807024.TXT
MDEUJ7202284201807                D89828070200PV4U20180706000030SPEAKER ASM                   M IMCTM S0FR05 TNTH  09020IMCT  S0 PTB  00005                    2100 SR        000000000000 DENSO TEN (THAILAND)18031UU0003003                                                                                                                              *          20180702 IMCT                IMCT                                                                                                                    WMF1807024.TXT
MDEUJ7202285201807                D89828070300PT4U20180705000030SPEAKER ASM                   M IMCTM S9TS02 TNTH  09020IMCT  S9 PTB  00015                    2230 SR        000000000000 DENSO TEN (THAILAND)18050ZU0026026                                                                                                                              *          20180702 IMCT                IMCT                                                                                                                    WMF1807024.TXT
MDEUJ7202286201807                D89828070300PT4U20180706000030SPEAKER ASM                   M IMCTM S9TS02 TNTH  09020IMCT  S9 PTB  00015                    0230 SR        000000000000 DENSO TEN (THAILAND)18020UU0084084                                                                                                                              *          20180702 IMCT                IMCT                                                                                                                    WMF1807024.TXT
MDEUJ7202287201807                D89828070300PT4U20180706000030SPEAKER ASM                   M IMCTM S9TS02 TNTH  09020IMCT  S9 PTB  00015                    1030 SR        000000000000 DENSO TEN (THAILAND)18015UU0033033                                                                                                                              *          20180702 IMCT                IMCT                                                                                                                    WMF1807024.TXT
MDEUJ7202288201807                D89828070300PT4U20180706000030SPEAKER ASM                   M IMCTM S9TS02 TNTH  09020IMCT  S9 PTB  00015                    2100 SR        000000000000 DENSO TEN (THAILAND)18031UU0003003                                                                                                                              *          20180702 IMCT                IMCT                                                                                                                    WMF1807024.TXT
