REC2018072720180727ISUZU                              53     
MDDDJ7322542201808                D89821984430PT1D20180802000060RADIO;AM/FM,CD                M IMCTM S5NC06 TNTH  09020IMCT  S5 PTB  00005                    0230 SR        000000000000 DENSO TEN (THAILAND)180LPAL0198198180LRBL0050050                                                                                                                *          20180727 IMCT                IMCT                                                                                                                    WMF1807274.TXT
MDDDJ7322543201808                D89821984430PT1D20180802000030RADIO;AM/FM,CD                M IMCTM S5NC06 TNTH  09020IMCT  S5 PTB  00005                    0830 SR        000000000000 DENSO TEN (THAILAND)180LRAL0209209                                                                                                                              *          20180727 IMCT                IMCT                                                                                                                    WMF1807274.TXT
MDDDJ7322544201808                D89821984430PT1D20180802000030RADIO;AM/FM,CD                M IMCTM S5NC06 TNTH  09020IMCT  S5 PTB  00005                    1030 SR        000000000000 DENSO TEN (THAILAND)180LXEL0075075                                                                                                                              *          20180727 IMCT                IMCT                                                                                                                    WMF1807274.TXT
MDDDJ7322545201808                D89821984430PT1D20180802000030RADIO;AM/FM,CD                M IMCTM S5NC06 TNTH  09020IMCT  S5 PTB  00005                    1600 SR        000000000000 DENSO TEN (THAILAND)180LXCL0072072                                                                                                                              *          20180727 IMCT                IMCT                                                                                                                    WMF1807274.TXT
MDDDJ7322546201808                D89821984430PT1D20180802000030RADIO;AM/FM,CD                M IMCTM S5NC06 TNTH  09020IMCT  S5 PTB  00005                    2100 SR        000000000000 DENSO TEN (THAILAND)180LXEL0076076                                                                                                                              *          20180727 IMCT                IMCT                                                                                                                    WMF1807274.TXT
MDDDJ7322547201808                D89828070100PV1D20180802000120SPEAKER ASM                   M IMCTM S5MB11 TNTH  09020IMCT  S5 PTB  00004                    0230 SR        000000000000 DENSO TEN (THAILAND)180LPAL0198198180LRBL0050050                                                                                                                *          20180727 IMCT                IMCT                                                                                                                    WMF1807274.TXT
MDDDJ7322548201808                D89828070100PV1D20180802000060SPEAKER ASM                   M IMCTM S5MB11 TNTH  09020IMCT  S5 PTB  00004                    0830 SR        000000000000 DENSO TEN (THAILAND)180LRAL0209209                                                                                                                              *          20180727 IMCT                IMCT                                                                                                                    WMF1807274.TXT
MDDDJ7322549201808                D89828070100PV1D20180802000060SPEAKER ASM                   M IMCTM S5MB11 TNTH  09020IMCT  S5 PTB  00004                    1030 SR        000000000000 DENSO TEN (THAILAND)180LXEL0075075                                                                                                                              *          20180727 IMCT                IMCT                                                                                                                    WMF1807274.TXT
MDDDJ7322550201808                D89828070100PV1D20180802000060SPEAKER ASM                   M IMCTM S5MB11 TNTH  09020IMCT  S5 PTB  00004                    1300 SR        000000000000 DENSO TEN (THAILAND)180LPGL0294294                                                                                                                              *          20180727 IMCT                IMCT                                                                                                                    WMF1807274.TXT
MDDDJ7322551201808                D89828070100PV1D20180802000060SPEAKER ASM                   M IMCTM S5MB11 TNTH  09020IMCT  S5 PTB  00004                    1600 SR        000000000000 DENSO TEN (THAILAND)180LXCL0072072                                                                                                                              *          20180727 IMCT                IMCT                                                                                                                    WMF1807274.TXT
MDDDJ7322552201808                D89828070100PV1D20180802000060SPEAKER ASM                   M IMCTM S5MB11 TNTH  09020IMCT  S5 PTB  00004                    2100 SR        000000000000 DENSO TEN (THAILAND)180LXEL0076076                                                                                                                              *          20180727 IMCT                IMCT                                                                                                                    WMF1807274.TXT
MDDDJ7322553201808                D89828070300PT1D20180802000060SPEAKER ASM                   M IMCTM S5NB082TNTH  09020IMCT  S5 PTB  00015                    1300 SR        000000000000 DENSO TEN (THAILAND)180LPGL0294294                                                                                                                              *          20180727 IMCT                IMCT                                                                                                                    WMF1807274.TXT
MDDDJ7322554201808                D89831228300PT1D20180802000030RADIO;AM/FM,CD                M IMCTM S5NC06 TNTH  09020IMCT  S5 CPB  00003                    1300 SR        000000000000 DENSO TEN (THAILAND)180LPGL0294294                                                                                                                              *          20180727 IMCT                IMCT                                                                                                                    WMF1807274.TXT
MDDUJ7255673201808                D89828070100PT4U20180802000030SPEAKER ASM                   M IMCTM S0FL05 TNTH  09020IMCT  S0 PTB  00004                    0400 SR        000000000000 DENSO TEN (THAILAND)180LUTU0101101                                                                                                                              *          20180727 IMCT                IMCT                                                                                                                    WMF1807274.TXT
MDDUJ7255674201808                D89828070100PT4U20180802000030SPEAKER ASM                   M IMCTM S0FL05 TNTH  09020IMCT  S0 PTB  00004                    1300 SR        000000000000 DENSO TEN (THAILAND)180LUSU0141141                                                                                                                              *          20180727 IMCT                IMCT                                                                                                                    WMF1807274.TXT
MDDUJ7255675201808                D89828070100PT4U20180802000030SPEAKER ASM                   M IMCTM S0FL05 TNTH  09020IMCT  S0 PTB  00004                    2100 SR        000000000000 DENSO TEN (THAILAND)180LUQU0060060                                                                                                                              *          20180727 IMCT                IMCT                                                                                                                    WMF1807274.TXT
MDDUJ7255676201808                D89828070200PV4U20180802000030SPEAKER ASM                   M IMCTM S0FR05 TNTH  09020IMCT  S0 PTB  00005                    0400 SR        000000000000 DENSO TEN (THAILAND)180LUTU0101101                                                                                                                              *          20180727 IMCT                IMCT                                                                                                                    WMF1807274.TXT
MDDUJ7255677201808                D89828070200PV4U20180802000030SPEAKER ASM                   M IMCTM S0FR05 TNTH  09020IMCT  S0 PTB  00005                    1300 SR        000000000000 DENSO TEN (THAILAND)180LUSU0141141                                                                                                                              *          20180727 IMCT                IMCT                                                                                                                    WMF1807274.TXT
MDDUJ7255678201808                D89828070200PV4U20180802000030SPEAKER ASM                   M IMCTM S0FR05 TNTH  09020IMCT  S0 PTB  00005                    2100 SR        000000000000 DENSO TEN (THAILAND)180LUQU0060060                                                                                                                              *          20180727 IMCT                IMCT                                                                                                                    WMF1807274.TXT
MDDUJ7255679201808                D89828070300PT4U20180802000030SPEAKER ASM                   M IMCTM S9TS02 TNTH  09020IMCT  S9 PTB  00015                    0400 SR        000000000000 DENSO TEN (THAILAND)180LUTU0101101                                                                                                                              *          20180727 IMCT                IMCT                                                                                                                    WMF1807274.TXT
MDDUJ7255680201808                D89828070300PT4U20180802000030SPEAKER ASM                   M IMCTM S9TS02 TNTH  09020IMCT  S9 PTB  00015                    1300 SR        000000000000 DENSO TEN (THAILAND)180LUSU0141141                                                                                                                              *          20180727 IMCT                IMCT                                                                                                                    WMF1807274.TXT
MDDUJ7255681201808                D89828070300PT4U20180802000030SPEAKER ASM                   M IMCTM S9TS02 TNTH  09020IMCT  S9 PTB  00015                    2100 SR        000000000000 DENSO TEN (THAILAND)180LUQU0060060                                                                                                                              *          20180727 IMCT                IMCT                                                                                                                    WMF1807274.TXT
MDDUJ7255682201808                D89848584200PT4U20180802000015RADIO;AM/FM CD D              M IMCTM S9CO001TNTH  09020IMCT  S9 PTB  00003                    2100 SR        000000000000 DENSO TEN (THAILAND)180LUQU0060060                                                                                                                              *          20180727 IMCT                IMCT                                                                                                                    WMF1807274.TXT
MDEDJ7339170201808                D89828070100PV1D20180801000060SPEAKER ASM                   M IMCTM S5MB11 TNTH  09020IMCT  S5 PTB  00004                    2230 SR        000000000000 DENSO TEN (THAILAND)17021QL0049050                                                                                                                              *          20180727 IMCT                IMCT                                                                                                                    WMF1807274.TXT
MDEDJ7339171201808                D89828070100PV1D20180802000060SPEAKER ASM                   M IMCTM S5MB11 TNTH  09020IMCT  S5 PTB  00004                    0400 SR        000000000000 DENSO TEN (THAILAND)18072UL001701718074XL0006006                                                                                                                *          20180727 IMCT                IMCT                                                                                                                    WMF1807274.TXT
MDEDJ7339172201808                D89828070100PV1D20180802000030SPEAKER ASM                   M IMCTM S5MB11 TNTH  09020IMCT  S5 PTB  00004                    0830 SR        000000000000 DENSO TEN (THAILAND)17075PL0134134                                                                                                                              *          20180727 IMCT                IMCT                                                                                                                    WMF1807274.TXT
MDEDJ7339173201808                D89828070100PV1D20180802000060SPEAKER ASM                   M IMCTM S5MB11 TNTH  09020IMCT  S5 PTB  00004                    1300 SR        000000000000 DENSO TEN (THAILAND)18099UL0091092                                                                                                                              *          20180727 IMCT                IMCT                                                                                                                    WMF1807274.TXT
MDEDJ7339174201808                D89828070100PV1D20180802000030SPEAKER ASM                   M IMCTM S5MB11 TNTH  09020IMCT  S5 PTB  00004                    2100 SR        000000000000 DENSO TEN (THAILAND)18041ZL0003003                                                                                                                              *          20180727 IMCT                IMCT                                                                                                                    WMF1807274.TXT
MDEDJ7339175201808                D89828070100PV4D20180802000030SPEAKER ASM                   M IMCTM S0FL05 TNTH  09020IMCT  S0 PTB  00004                    0230 SR        000000000000 DENSO TEN (THAILAND)17061PU0004004                                                                                                                              *          20180727 IMCT                IMCT                                                                                                                    WMF1807274.TXT
MDEDJ7339176201808                D89828070100PV4D20180802000030SPEAKER ASM                   M IMCTM S0FL05 TNTH  09020IMCT  S0 PTB  00004                    0830 SR        000000000000 DENSO TEN (THAILAND)17061PU0005005                                                                                                                              *          20180727 IMCT                IMCT                                                                                                                    WMF1807274.TXT
MDEDJ7339177201808                D89828070100PV4D20180802000060SPEAKER ASM                   M IMCTM S0FL05 TNTH  09020IMCT  S0 PTB  00004                    1300 SR        000000000000 DENSO TEN (THAILAND)17065RU000300318098UU0031031                                                                                                                *          20180727 IMCT                IMCT                                                                                                                    WMF1807274.TXT
MDEDJ7339178201808                D89828070100PV4D20180802000030SPEAKER ASM                   M IMCTM S0FL05 TNTH  09020IMCT  S0 PTB  00004                    2230 SR        000000000000 DENSO TEN (THAILAND)18099UU0018018                                                                                                                              *          20180727 IMCT                IMCT                                                                                                                    WMF1807274.TXT
MDEDJ7339179201808                D89828070200PV1D20180802000060SPEAKER ASM                   M IMCTM S5MA14 TNTH  09020IMCT  S5 PTB  00005                    1300 SR        000000000000 DENSO TEN (THAILAND)18099UL0091092                                                                                                                              *          20180727 IMCT                IMCT                                                                                                                    WMF1807274.TXT
MDEDJ7339180201808                D89828070200PV1D20180802000030SPEAKER ASM                   M IMCTM S5MA14 TNTH  09020IMCT  S5 PTB  00005                    2100 SR        000000000000 DENSO TEN (THAILAND)18041ZL0003003                                                                                                                              *          20180727 IMCT                IMCT                                                                                                                    WMF1807274.TXT
MDEDJ7339181201808                D89828070200PV4D20180802000030SPEAKER ASM                   M IMCTM S0FR05 TNTH  09020IMCT  S0 PTB  00005                    1300 SR        000000000000 DENSO TEN (THAILAND)18098UU0031031                                                                                                                              *          20180727 IMCT                IMCT                                                                                                                    WMF1807274.TXT
MDEDJ7339182201808                D89828070200PV4D20180802000030SPEAKER ASM                   M IMCTM S0FR05 TNTH  09020IMCT  S0 PTB  00005                    2230 SR        000000000000 DENSO TEN (THAILAND)18099UU0018018                                                                                                                              *          20180727 IMCT                IMCT                                                                                                                    WMF1807274.TXT
MDEDJ7339183201808                D89828070300PT1D20180802000030SPEAKER ASM                   M IMCTM S5NB082TNTH  09020IMCT  S5 PTB  00015                    0400 SR        000000000000 DENSO TEN (THAILAND)18072UL0017017                                                                                                                              *          20180727 IMCT                IMCT                                                                                                                    WMF1807274.TXT
MDEDJ7339184201808                D89828070300PT1D20180802000060SPEAKER ASM                   M IMCTM S5NB082TNTH  09020IMCT  S5 PTB  00015                    1300 SR        000000000000 DENSO TEN (THAILAND)18099UL0091092                                                                                                                              *          20180727 IMCT                IMCT                                                                                                                    WMF1807274.TXT
MDEDJ7339185201808                D89828070300PT1D20180802000030SPEAKER ASM                   M IMCTM S5NB082TNTH  09020IMCT  S5 PTB  00015                    2100 SR        000000000000 DENSO TEN (THAILAND)18041ZL0003003                                                                                                                              *          20180727 IMCT                IMCT                                                                                                                    WMF1807274.TXT
MDEDJ7339186201808                D89828070300PT4D20180802000060SPEAKER ASM                   M IMCTM S9TS02 TNTH  09020IMCT  S9 PTB  00015                    1300 SR        000000000000 DENSO TEN (THAILAND)17065RU000300318098UU0031031                                                                                                                *          20180727 IMCT                IMCT                                                                                                                    WMF1807274.TXT
MDEDJ7339187201808                D89828070300PT4D20180802000030SPEAKER ASM                   M IMCTM S9TS02 TNTH  09020IMCT  S9 PTB  00015                    2230 SR        000000000000 DENSO TEN (THAILAND)18099UU0018018                                                                                                                              *          20180727 IMCT                IMCT                                                                                                                    WMF1807274.TXT
MDEDJ7339188201808                D89831229200PT4D20180802000015RADIO;AM/FM,CD                M IMCTM S9CO001TNTH  09020IMCT  S9 PTB  00003                    1300 SR        000000000000 DENSO TEN (THAILAND)17065RU0003003                                                                                                                              *          20180727 IMCT                IMCT                                                                                                                    WMF1807274.TXT
MDEDJ7339189201808                D89848581800PT1D20180802000015RADIO;AM/FM CD D              M IMCTM S5NC06 TNTH  09020IMCT  S5 PTB  00003                    0400 SR        000000000000 DENSO TEN (THAILAND)18072UL0017017                                                                                                                              *          20180727 IMCT                IMCT                                                                                                                    WMF1807274.TXT
MDEDJ7339190201808                D89848581800PT4D20180802000015RADIO;AM/FM CD D              M IMCTM S9CO001TNTH  09020IMCT  S9 PTB  00003                    1300 SR        000000000000 DENSO TEN (THAILAND)18098UU0031031                                                                                                                              *          20180727 IMCT                IMCT                                                                                                                    WMF1807274.TXT
MDEUJ7263459201808                D89828070100PT4U20180801000030SPEAKER ASM                   M IMCTM S0FL05 TNTH  09020IMCT  S0 PTB  00004                    2230 SR        000000000000 DENSO TEN (THAILAND)18021UU0141141                                                                                                                              *          20180727 IMCT                IMCT                                                                                                                    WMF1807274.TXT
MDEUJ7263460201808                D89828070100PT4U20180802000030SPEAKER ASM                   M IMCTM S0FL05 TNTH  09020IMCT  S0 PTB  00004                    0400 SR        000000000000 DENSO TEN (THAILAND)18020UU0099099                                                                                                                              *          20180727 IMCT                IMCT                                                                                                                    WMF1807274.TXT
MDEUJ7263461201808                D89828070100PT4U20180802000030SPEAKER ASM                   M IMCTM S0FL05 TNTH  09020IMCT  S0 PTB  00004                    1600 SR        000000000000 DENSO TEN (THAILAND)18021UU0142142                                                                                                                              *          20180727 IMCT                IMCT                                                                                                                    WMF1807274.TXT
MDEUJ7263462201808                D89828070200PV4U20180801000030SPEAKER ASM                   M IMCTM S0FR05 TNTH  09020IMCT  S0 PTB  00005                    2230 SR        000000000000 DENSO TEN (THAILAND)18021UU0141141                                                                                                                              *          20180727 IMCT                IMCT                                                                                                                    WMF1807274.TXT
MDEUJ7263463201808                D89828070200PV4U20180802000030SPEAKER ASM                   M IMCTM S0FR05 TNTH  09020IMCT  S0 PTB  00005                    0400 SR        000000000000 DENSO TEN (THAILAND)18020UU0099099                                                                                                                              *          20180727 IMCT                IMCT                                                                                                                    WMF1807274.TXT
MDEUJ7263464201808                D89828070200PV4U20180802000030SPEAKER ASM                   M IMCTM S0FR05 TNTH  09020IMCT  S0 PTB  00005                    1600 SR        000000000000 DENSO TEN (THAILAND)18021UU0142142                                                                                                                              *          20180727 IMCT                IMCT                                                                                                                    WMF1807274.TXT
MDEUJ7263465201808                D89828070300PT4U20180801000030SPEAKER ASM                   M IMCTM S9TS02 TNTH  09020IMCT  S9 PTB  00015                    2230 SR        000000000000 DENSO TEN (THAILAND)18021UU0141141                                                                                                                              *          20180727 IMCT                IMCT                                                                                                                    WMF1807274.TXT
MDEUJ7263466201808                D89828070300PT4U20180802000030SPEAKER ASM                   M IMCTM S9TS02 TNTH  09020IMCT  S9 PTB  00015                    0400 SR        000000000000 DENSO TEN (THAILAND)18020UU0099099                                                                                                                              *          20180727 IMCT                IMCT                                                                                                                    WMF1807274.TXT
MDEUJ7263467201808                D89828070300PT4U20180802000030SPEAKER ASM                   M IMCTM S9TS02 TNTH  09020IMCT  S9 PTB  00015                    1600 SR        000000000000 DENSO TEN (THAILAND)18021UU0142142                                                                                                                              *          20180727 IMCT                IMCT                                                                                                                    WMF1807274.TXT
