REC2018070920180709ISUZU                              69     
MDDDJ7235078201807                D89821984430PT1D20180713000060RADIO;AM/FM,CD                M IMCTM S5NC06 TNTH  09020IMCT  S5 PTB  00005                    0230 SR        000000000000 DENSO TEN (THAILAND)180LPAL0184184180LRAL0194194                                                                                                                *          20180709 IMCT                IMCT                                                                                                                    WMF1807095.TXT
MDDDJ7235079201807                D89821984430PT1D20180713000030RADIO;AM/FM,CD                M IMCTM S5NC06 TNTH  09020IMCT  S5 PTB  00005                    0830 SR        000000000000 DENSO TEN (THAILAND)180LRAL0195195                                                                                                                              *          20180709 IMCT                IMCT                                                                                                                    WMF1807095.TXT
MDDDJ7235080201807                D89821984430PT1D20180713000030RADIO;AM/FM,CD                M IMCTM S5NC06 TNTH  09020IMCT  S5 PTB  00005                    1300 SR        000000000000 DENSO TEN (THAILAND)180LXCL0063063                                                                                                                              *          20180709 IMCT                IMCT                                                                                                                    WMF1807095.TXT
MDDDJ7235081201807                D89821984430PT1D20180713000060RADIO;AM/FM,CD                M IMCTM S5NC06 TNTH  09020IMCT  S5 PTB  00005                    1600 SR        000000000000 DENSO TEN (THAILAND)180LNGL0154154180LPBL0027027                                                                                                                *          20180709 IMCT                IMCT                                                                                                                    WMF1807095.TXT
MDDDJ7235082201807                D89821984430PT1D20180713000030RADIO;AM/FM,CD                M IMCTM S5NC06 TNTH  09020IMCT  S5 PTB  00005                    2100 SR        000000000000 DENSO TEN (THAILAND)180LPAL0185185                                                                                                                              *          20180709 IMCT                IMCT                                                                                                                    WMF1807095.TXT
MDDDJ7235083201807                D89828070100PV1D20180713000120SPEAKER ASM                   M IMCTM S5MB11 TNTH  09020IMCT  S5 PTB  00004                    0230 SR        000000000000 DENSO TEN (THAILAND)180LPAL0184184180LRAL0194194                                                                                                                *          20180709 IMCT                IMCT                                                                                                                    WMF1807095.TXT
MDDDJ7235084201807                D89828070100PV1D20180713000120SPEAKER ASM                   M IMCTM S5MB11 TNTH  09020IMCT  S5 PTB  00004                    0830 SR        000000000000 DENSO TEN (THAILAND)180LPGL0277277180LRAL0195195                                                                                                                *          20180709 IMCT                IMCT                                                                                                                    WMF1807095.TXT
MDDDJ7235085201807                D89828070100PV1D20180713000120SPEAKER ASM                   M IMCTM S5MB11 TNTH  09020IMCT  S5 PTB  00004                    1300 SR        000000000000 DENSO TEN (THAILAND)180LPCL0074074180LXCL0063063                                                                                                                *          20180709 IMCT                IMCT                                                                                                                    WMF1807095.TXT
MDDDJ7235086201807                D89828070100PV1D20180713000120SPEAKER ASM                   M IMCTM S5MB11 TNTH  09020IMCT  S5 PTB  00004                    1600 SR        000000000000 DENSO TEN (THAILAND)180LNGL0154154180LPBL0027027                                                                                                                *          20180709 IMCT                IMCT                                                                                                                    WMF1807095.TXT
MDDDJ7235087201807                D89828070100PV1D20180713000060SPEAKER ASM                   M IMCTM S5MB11 TNTH  09020IMCT  S5 PTB  00004                    2100 SR        000000000000 DENSO TEN (THAILAND)180LPAL0185185                                                                                                                              *          20180709 IMCT                IMCT                                                                                                                    WMF1807095.TXT
MDDDJ7235088201807                D89828070300PT1D20180713000060SPEAKER ASM                   M IMCTM S5NB082TNTH  09020IMCT  S5 PTB  00015                    0830 SR        000000000000 DENSO TEN (THAILAND)180LPGL0277277                                                                                                                              *          20180709 IMCT                IMCT                                                                                                                    WMF1807095.TXT
MDDDJ7235089201807                D89828070300PT1D20180713000060SPEAKER ASM                   M IMCTM S5NB082TNTH  09020IMCT  S5 PTB  00015                    1300 SR        000000000000 DENSO TEN (THAILAND)180LPCL0074074                                                                                                                              *          20180709 IMCT                IMCT                                                                                                                    WMF1807095.TXT
MDDDJ7235090201807                D89831228300PT1D20180713000030RADIO;AM/FM,CD                M IMCTM S5NC06 TNTH  09020IMCT  S5 CPB  00003                    0830 SR        000000000000 DENSO TEN (THAILAND)180LPGL0277277                                                                                                                              *          20180709 IMCT                IMCT                                                                                                                    WMF1807095.TXT
MDDDJ7235091201807                D89831228300PT1D20180713000030RADIO;AM/FM,CD                M IMCTM S5NC06 TNTH  09020IMCT  S5 CPB  00003                    1300 SR        000000000000 DENSO TEN (THAILAND)180LPCL0074074                                                                                                                              *          20180709 IMCT                IMCT                                                                                                                    WMF1807095.TXT
MDDUJ7216606201807                D89828070100PT4U20180713000030SPEAKER ASM                   M IMCTM S0FL05 TNTH  09020IMCT  S0 PTB  00004                    0230 SR        000000000000 DENSO TEN (THAILAND)180LUTU0089089                                                                                                                              *          20180709 IMCT                IMCT                                                                                                                    WMF1807095.TXT
MDDUJ7216607201807                D89828070100PT4U20180713000030SPEAKER ASM                   M IMCTM S0FL05 TNTH  09020IMCT  S0 PTB  00004                    0830 SR        000000000000 DENSO TEN (THAILAND)180LUTU0090090                                                                                                                              *          20180709 IMCT                IMCT                                                                                                                    WMF1807095.TXT
MDDUJ7216608201807                D89828070100PT4U20180713000030SPEAKER ASM                   M IMCTM S0FL05 TNTH  09020IMCT  S0 PTB  00004                    1600 SR        000000000000 DENSO TEN (THAILAND)180LUSU0122122                                                                                                                              *          20180709 IMCT                IMCT                                                                                                                    WMF1807095.TXT
MDDUJ7216609201807                D89828070100PT4U20180713000030SPEAKER ASM                   M IMCTM S0FL05 TNTH  09020IMCT  S0 PTB  00004                    2230 SR        000000000000 DENSO TEN (THAILAND)180LULU0042042                                                                                                                              *          20180709 IMCT                IMCT                                                                                                                    WMF1807095.TXT
MDDUJ7216610201807                D89828070200PV4U20180713000030SPEAKER ASM                   M IMCTM S0FR05 TNTH  09020IMCT  S0 PTB  00005                    0230 SR        000000000000 DENSO TEN (THAILAND)180LUTU0089089                                                                                                                              *          20180709 IMCT                IMCT                                                                                                                    WMF1807095.TXT
MDDUJ7216611201807                D89828070200PV4U20180713000030SPEAKER ASM                   M IMCTM S0FR05 TNTH  09020IMCT  S0 PTB  00005                    0830 SR        000000000000 DENSO TEN (THAILAND)180LUTU0090090                                                                                                                              *          20180709 IMCT                IMCT                                                                                                                    WMF1807095.TXT
MDDUJ7216612201807                D89828070200PV4U20180713000030SPEAKER ASM                   M IMCTM S0FR05 TNTH  09020IMCT  S0 PTB  00005                    1600 SR        000000000000 DENSO TEN (THAILAND)180LUSU0122122                                                                                                                              *          20180709 IMCT                IMCT                                                                                                                    WMF1807095.TXT
MDDUJ7216613201807                D89828070200PV4U20180713000030SPEAKER ASM                   M IMCTM S0FR05 TNTH  09020IMCT  S0 PTB  00005                    2230 SR        000000000000 DENSO TEN (THAILAND)180LULU0042042                                                                                                                              *          20180709 IMCT                IMCT                                                                                                                    WMF1807095.TXT
MDDUJ7216614201807                D89828070300PT4U20180713000030SPEAKER ASM                   M IMCTM S9TS02 TNTH  09020IMCT  S9 PTB  00015                    0230 SR        000000000000 DENSO TEN (THAILAND)180LUTU0089089                                                                                                                              *          20180709 IMCT                IMCT                                                                                                                    WMF1807095.TXT
MDDUJ7216615201807                D89828070300PT4U20180713000030SPEAKER ASM                   M IMCTM S9TS02 TNTH  09020IMCT  S9 PTB  00015                    0830 SR        000000000000 DENSO TEN (THAILAND)180LUTU0090090                                                                                                                              *          20180709 IMCT                IMCT                                                                                                                    WMF1807095.TXT
MDDUJ7216616201807                D89828070300PT4U20180713000030SPEAKER ASM                   M IMCTM S9TS02 TNTH  09020IMCT  S9 PTB  00015                    1600 SR        000000000000 DENSO TEN (THAILAND)180LUSU0122122                                                                                                                              *          20180709 IMCT                IMCT                                                                                                                    WMF1807095.TXT
MDDUJ7216617201807                D89828070300PT4U20180713000030SPEAKER ASM                   M IMCTM S9TS02 TNTH  09020IMCT  S9 PTB  00015                    2230 SR        000000000000 DENSO TEN (THAILAND)180LULU0042042                                                                                                                              *          20180709 IMCT                IMCT                                                                                                                    WMF1807095.TXT
MDEDJ7238644201807                D89828070100PV1D20180712000060SPEAKER ASM                   M IMCTM S5MB11 TNTH  09020IMCT  S5 PTB  00004                    2230 SR        000000000000 DENSO TEN (THAILAND)17002RL000800817050RL0039039                                                                                                                *          20180709 IMCT                IMCT                                                                                                                    WMF1807095.TXT
MDEDJ7238645201807                D89828070100PV1D20180713000060SPEAKER ASM                   M IMCTM S5MB11 TNTH  09020IMCT  S5 PTB  00004                    0400 SR        000000000000 DENSO TEN (THAILAND)18082WL0019020                                                                                                                              *          20180709 IMCT                IMCT                                                                                                                    WMF1807095.TXT
MDEDJ7238646201807                D89828070100PV1D20180713000030SPEAKER ASM                   M IMCTM S5MB11 TNTH  09020IMCT  S5 PTB  00004                    1030 SR        000000000000 DENSO TEN (THAILAND)18031XL0004004                                                                                                                              *          20180709 IMCT                IMCT                                                                                                                    WMF1807095.TXT
MDEDJ7238647201807                D89828070100PV1D20180713000060SPEAKER ASM                   M IMCTM S5MB11 TNTH  09020IMCT  S5 PTB  00004                    1600 SR        000000000000 DENSO TEN (THAILAND)18005XL000700718082UL0054054                                                                                                                *          20180709 IMCT                IMCT                                                                                                                    WMF1807095.TXT
MDEDJ7238648201807                D89828070100PV1D20180713000030SPEAKER ASM                   M IMCTM S5MB11 TNTH  09020IMCT  S5 PTB  00004                    2100 SR        000000000000 DENSO TEN (THAILAND)18098UL0056056                                                                                                                              *          20180709 IMCT                IMCT                                                                                                                    WMF1807095.TXT
MDEDJ7238649201807                D89828070100PV4D20180713000030SPEAKER ASM                   M IMCTM S0FL05 TNTH  09020IMCT  S0 PTB  00004                    0400 SR        000000000000 DENSO TEN (THAILAND)18052XU0009009                                                                                                                              *          20180709 IMCT                IMCT                                                                                                                    WMF1807095.TXT
MDEDJ7238650201807                D89828070100PV4D20180713000030SPEAKER ASM                   M IMCTM S0FL05 TNTH  09020IMCT  S0 PTB  00004                    1030 SR        000000000000 DENSO TEN (THAILAND)18098UU0024024                                                                                                                              *          20180709 IMCT                IMCT                                                                                                                    WMF1807095.TXT
MDEDJ7238651201807                D89828070100PV4D20180713000030SPEAKER ASM                   M IMCTM S0FL05 TNTH  09020IMCT  S0 PTB  00004                    1300 SR        000000000000 DENSO TEN (THAILAND)18028VU0004004                                                                                                                              *          20180709 IMCT                IMCT                                                                                                                    WMF1807095.TXT
MDEDJ7238652201807                D89828070100PV4D20180713000030SPEAKER ASM                   M IMCTM S0FL05 TNTH  09020IMCT  S0 PTB  00004                    2100 SR        000000000000 DENSO TEN (THAILAND)18010ZU0040040                                                                                                                              *          20180709 IMCT                IMCT                                                                                                                    WMF1807095.TXT
MDEDJ7238653201807                D89828070200PV1D20180712000060SPEAKER ASM                   M IMCTM S5MA14 TNTH  09020IMCT  S5 PTB  00005                    2230 SR        000000000000 DENSO TEN (THAILAND)17002RL000800817050RL0039039                                                                                                                *          20180709 IMCT                IMCT                                                                                                                    WMF1807095.TXT
MDEDJ7238654201807                D89828070200PV1D20180713000030SPEAKER ASM                   M IMCTM S5MA14 TNTH  09020IMCT  S5 PTB  00005                    1030 SR        000000000000 DENSO TEN (THAILAND)18031XL0004004                                                                                                                              *          20180709 IMCT                IMCT                                                                                                                    WMF1807095.TXT
MDEDJ7238655201807                D89828070200PV1D20180713000030SPEAKER ASM                   M IMCTM S5MA14 TNTH  09020IMCT  S5 PTB  00005                    1600 SR        000000000000 DENSO TEN (THAILAND)18082UL0054054                                                                                                                              *          20180709 IMCT                IMCT                                                                                                                    WMF1807095.TXT
MDEDJ7238656201807                D89828070200PV1D20180713000030SPEAKER ASM                   M IMCTM S5MA14 TNTH  09020IMCT  S5 PTB  00005                    2100 SR        000000000000 DENSO TEN (THAILAND)18098UL0056056                                                                                                                              *          20180709 IMCT                IMCT                                                                                                                    WMF1807095.TXT
MDEDJ7238657201807                D89828070200PV4D20180713000030SPEAKER ASM                   M IMCTM S0FR05 TNTH  09020IMCT  S0 PTB  00005                    0400 SR        000000000000 DENSO TEN (THAILAND)18052XU0009009                                                                                                                              *          20180709 IMCT                IMCT                                                                                                                    WMF1807095.TXT
MDEDJ7238658201807                D89828070200PV4D20180713000030SPEAKER ASM                   M IMCTM S0FR05 TNTH  09020IMCT  S0 PTB  00005                    1030 SR        000000000000 DENSO TEN (THAILAND)18098UU0024024                                                                                                                              *          20180709 IMCT                IMCT                                                                                                                    WMF1807095.TXT
MDEDJ7238659201807                D89828070200PV4D20180713000030SPEAKER ASM                   M IMCTM S0FR05 TNTH  09020IMCT  S0 PTB  00005                    1300 SR        000000000000 DENSO TEN (THAILAND)18028VU0004004                                                                                                                              *          20180709 IMCT                IMCT                                                                                                                    WMF1807095.TXT
MDEDJ7238660201807                D89828070300PT1D20180712000060SPEAKER ASM                   M IMCTM S5NB082TNTH  09020IMCT  S5 PTB  00015                    2230 SR        000000000000 DENSO TEN (THAILAND)17002RL000800817050RL0039039                                                                                                                *          20180709 IMCT                IMCT                                                                                                                    WMF1807095.TXT
MDEDJ7238661201807                D89828070300PT1D20180713000030SPEAKER ASM                   M IMCTM S5NB082TNTH  09020IMCT  S5 PTB  00015                    1030 SR        000000000000 DENSO TEN (THAILAND)18031XL0004004                                                                                                                              *          20180709 IMCT                IMCT                                                                                                                    WMF1807095.TXT
MDEDJ7238662201807                D89828070300PT1D20180713000060SPEAKER ASM                   M IMCTM S5NB082TNTH  09020IMCT  S5 PTB  00015                    1600 SR        000000000000 DENSO TEN (THAILAND)18005XL000700718082UL0054054                                                                                                                *          20180709 IMCT                IMCT                                                                                                                    WMF1807095.TXT
MDEDJ7238663201807                D89828070300PT1D20180713000030SPEAKER ASM                   M IMCTM S5NB082TNTH  09020IMCT  S5 PTB  00015                    2100 SR        000000000000 DENSO TEN (THAILAND)18098UL0056056                                                                                                                              *          20180709 IMCT                IMCT                                                                                                                    WMF1807095.TXT
MDEDJ7238664201807                D89828070300PT4D20180713000030SPEAKER ASM                   M IMCTM S9TS02 TNTH  09020IMCT  S9 PTB  00015                    0400 SR        000000000000 DENSO TEN (THAILAND)18052XU0009009                                                                                                                              *          20180709 IMCT                IMCT                                                                                                                    WMF1807095.TXT
MDEDJ7238665201807                D89828070300PT4D20180713000030SPEAKER ASM                   M IMCTM S9TS02 TNTH  09020IMCT  S9 PTB  00015                    1030 SR        000000000000 DENSO TEN (THAILAND)18098UU0024024                                                                                                                              *          20180709 IMCT                IMCT                                                                                                                    WMF1807095.TXT
MDEDJ7238666201807                D89828070300PT4D20180713000030SPEAKER ASM                   M IMCTM S9TS02 TNTH  09020IMCT  S9 PTB  00015                    1300 SR        000000000000 DENSO TEN (THAILAND)18028VU0004004                                                                                                                              *          20180709 IMCT                IMCT                                                                                                                    WMF1807095.TXT
MDEDJ7238667201807                D89829645410PT1D20180712000015RADIO;ASM DVD                 M IMCTM S5NC06 TNTH  09020IMCT  S5 PTB  00003                    2230 SR        000000000000 DENSO TEN (THAILAND)17050RL0039039                                                                                                                              *          20180709 IMCT                IMCT                                                                                                                    WMF1807095.TXT
MDEDJ7238668201807                D89831229010PT1D20180712000015RADIO;AM/FM,CD                M IMCTM S55000 TNTH  09020IMCT  S5     X00030                    2230 SR        000000000000 DENSO TEN (THAILAND)17002RL0008008                                                                                                                              *          20180709 IMCT                IMCT                                                                                                                    WMF1807095.TXT
MDEDJ7238669201807                D89848581800PT1D20180713000015RADIO;AM/FM CD D              M IMCTM S5NC06 TNTH  09020IMCT  S5 PTB  00003                    1600 SR        000000000000 DENSO TEN (THAILAND)18082UL0054054                                                                                                                              *          20180709 IMCT                IMCT                                                                                                                    WMF1807095.TXT
MDEDJ7238670201807                D89848581800PT1D20180713000015RADIO;AM/FM CD D              M IMCTM S5NC06 TNTH  09020IMCT  S5 PTB  00003                    2100 SR        000000000000 DENSO TEN (THAILAND)18098UL0056056                                                                                                                              *          20180709 IMCT                IMCT                                                                                                                    WMF1807095.TXT
MDEDJ7238671201807                D89848581800PT4D20180713000015RADIO;AM/FM CD D              M IMCTM S9CO001TNTH  09020IMCT  S9 PTB  00003                    1030 SR        000000000000 DENSO TEN (THAILAND)18098UU0024024                                                                                                                              *          20180709 IMCT                IMCT                                                                                                                    WMF1807095.TXT
MDEUJ7217694201807                D89828070100PT4U20180712000030SPEAKER ASM                   M IMCTM S0FL05 TNTH  09020IMCT  S0 PTB  00004                    2230 SR        000000000000 DENSO TEN (THAILAND)18019UU0023023                                                                                                                              *          20180709 IMCT                IMCT                                                                                                                    WMF1807095.TXT
MDEUJ7217695201807                D89828070100PT4U20180713000030SPEAKER ASM                   M IMCTM S0FL05 TNTH  09020IMCT  S0 PTB  00004                    0400 SR        000000000000 DENSO TEN (THAILAND)18032UU0008008                                                                                                                              *          20180709 IMCT                IMCT                                                                                                                    WMF1807095.TXT
MDEUJ7217696201807                D89828070100PT4U20180713000060SPEAKER ASM                   M IMCTM S0FL05 TNTH  09020IMCT  S0 PTB  00004                    1300 SR        000000000000 DENSO TEN (THAILAND)18035TU000600618049ZU0066066                                                                                                                *          20180709 IMCT                IMCT                                                                                                                    WMF1807095.TXT
MDEUJ7217697201807                D89828070100PT4U20180713000030SPEAKER ASM                   M IMCTM S0FL05 TNTH  09020IMCT  S0 PTB  00004                    1600 SR        000000000000 DENSO TEN (THAILAND)18035TU0007007                                                                                                                              *          20180709 IMCT                IMCT                                                                                                                    WMF1807095.TXT
MDEUJ7217698201807                D89828070200PV4U20180712000030SPEAKER ASM                   M IMCTM S0FR05 TNTH  09020IMCT  S0 PTB  00005                    2230 SR        000000000000 DENSO TEN (THAILAND)18019UU0023023                                                                                                                              *          20180709 IMCT                IMCT                                                                                                                    WMF1807095.TXT
MDEUJ7217699201807                D89828070200PV4U20180713000030SPEAKER ASM                   M IMCTM S0FR05 TNTH  09020IMCT  S0 PTB  00005                    0400 SR        000000000000 DENSO TEN (THAILAND)18032UU0008008                                                                                                                              *          20180709 IMCT                IMCT                                                                                                                    WMF1807095.TXT
MDEUJ7217700201807                D89828070200PV4U20180713000060SPEAKER ASM                   M IMCTM S0FR05 TNTH  09020IMCT  S0 PTB  00005                    1300 SR        000000000000 DENSO TEN (THAILAND)18035TU000600618049ZU0066066                                                                                                                *          20180709 IMCT                IMCT                                                                                                                    WMF1807095.TXT
MDEUJ7217701201807                D89828070200PV4U20180713000030SPEAKER ASM                   M IMCTM S0FR05 TNTH  09020IMCT  S0 PTB  00005                    1600 SR        000000000000 DENSO TEN (THAILAND)18035TU0007007                                                                                                                              *          20180709 IMCT                IMCT                                                                                                                    WMF1807095.TXT
MDEUJ7217702201807                D89828070300PT4U20180712000030SPEAKER ASM                   M IMCTM S9TS02 TNTH  09020IMCT  S9 PTB  00015                    2230 SR        000000000000 DENSO TEN (THAILAND)18019UU0023023                                                                                                                              *          20180709 IMCT                IMCT                                                                                                                    WMF1807095.TXT
MDEUJ7217703201807                D89828070300PT4U20180713000030SPEAKER ASM                   M IMCTM S9TS02 TNTH  09020IMCT  S9 PTB  00015                    0400 SR        000000000000 DENSO TEN (THAILAND)18032UU0008008                                                                                                                              *          20180709 IMCT                IMCT                                                                                                                    WMF1807095.TXT
MDEUJ7217704201807                D89828070300PT4U20180713000060SPEAKER ASM                   M IMCTM S9TS02 TNTH  09020IMCT  S9 PTB  00015                    1300 SR        000000000000 DENSO TEN (THAILAND)18035TU000600618049ZU0066066                                                                                                                *          20180709 IMCT                IMCT                                                                                                                    WMF1807095.TXT
MDEUJ7217705201807                D89828070300PT4U20180713000030SPEAKER ASM                   M IMCTM S9TS02 TNTH  09020IMCT  S9 PTB  00015                    1600 SR        000000000000 DENSO TEN (THAILAND)18035TU0007007                                                                                                                              *          20180709 IMCT                IMCT                                                                                                                    WMF1807095.TXT
MDEUJ7217706201807                D89831229200PT4U20180713000015RADIO;AM/FM,CD                M IMCTM S9CO001TNTH  09020IMCT  S9 PTB  00003                    1300 SR        000000000000 DENSO TEN (THAILAND)18035TU0006006                                                                                                                              *          20180709 IMCT                IMCT                                                                                                                    WMF1807095.TXT
MDEUJ7217707201807                D89831229200PT4U20180713000015RADIO;AM/FM,CD                M IMCTM S9CO001TNTH  09020IMCT  S9 PTB  00003                    1600 SR        000000000000 DENSO TEN (THAILAND)18035TU0007007                                                                                                                              *          20180709 IMCT                IMCT                                                                                                                    WMF1807095.TXT
MDEUJ7217708201807                D89848584700PT4U20180712000015RADIO;AM/FM CD D              M IMCTM S9CO001TNTH  09020IMCT  S9 PTB  00003                    2230 SR        000000000000 DENSO TEN (THAILAND)18019UU0023023                                                                                                                              *          20180709 IMCT                IMCT                                                                                                                    WMF1807095.TXT
