REC2018071820180718ISUZU                              9      
MDEFJ7T17266201807                D89805293700PV4F20180724000022SPEAKER ASM                   M IMCTM S7FR05 TNTH  09020IMCT  S7 PTB  00003                    1300 SR        000000000000 DENSO TEN (THAILAND)15021DR0138   15038ZR0034   D180705501    D180705511    000000                                                                              *R         20180718 IMCT                IMCT                                                                                                                    RMF1807183.TXT
MDEFJ7T17267201807                D89805294000PT4F20180724000012SPEAKER ASM                   M IMCTM S7TS02 TNTH  09020IMCT  S7 PTB  00015                    1300 SR        000000000000 DENSO TEN (THAILAND)15038ZR0029   15038ZR0034   D180705506    D180705511    000000                                                                              *R         20180718 IMCT                IMCT                                                                                                                    RMF1807183.TXT
MDEFJ7T17268201807                D89824135720PT4F20180724000006RADIO;AM/FM,CD,F              M IMCTM S7TS03 TNTH  09020IMCT  S7 PTB  00003                    1300 SR        000000000000 DENSO TEN (THAILAND)15038ZR0029   15038ZR0034   D180705506    D180705511    000000                                                                              *R         20180718 IMCT                IMCT                                                                                                                    RMF1807183.TXT
MDEFJ7T17269201807                D89828070100PV4F20180724000006SPEAKER ASM                   M IMCTM S7FL05 TNTH  09020IMCT  S7 PTB  00004                    1300 SR        000000000000 DENSO TEN (THAILAND)17032QR0136   17032QR0138   D180705513    D180705515    000000                                                                              *R         20180718 IMCT                IMCT                                                                                                                    RMF1807183.TXT
MDEFJ7T17270201807                D89828070200PV4F20180724000008SPEAKER ASM                   M IMCTM S7FL05 TNTH  09020IMCT  S7 PTB  00005                    1300 SR        000000000000 DENSO TEN (THAILAND)17032QR0135   17032QR0138   D180705512    D180705515    000000                                                                              *R         20180718 IMCT                IMCT                                                                                                                    RMF1807183.TXT
MDEFJ7T17271201807                D89828070300PT4F20180724000008SPEAKER ASM                   M IMCTM S7TS02 TNTH  09020IMCT  S7 PTB  00015                    1300 SR        000000000000 DENSO TEN (THAILAND)17032QR0135   17032QR0138   D180705512    D180705515    000000                                                                              *R         20180718 IMCT                IMCT                                                                                                                    RMF1807183.TXT
MDEFJ7T17272201807                D89831229200PT4F20180724000004RADIO;AM/FM,CD                M IMCTM S7TS03 TNTH  09020IMCT  S7 PTB  00003                    1300 SR        000000000000 DENSO TEN (THAILAND)17032QR0135   17032QR0138   D180705512    D180705515    000000                                                                              *R         20180718 IMCT                IMCT                                                                                                                    RMF1807183.TXT
MDEFJ7245222201807                D89828070100PV4F20180723000004SPEAKER ASM                   M IMCTM S7FL05 TNTH  09020IMCT  S7 PTB  00004                    2100 SR        000000000000 DENSO TEN (THAILAND)18083WR0010   17075QR0133   S180705401    S180705402    000000                                                                              *R         20180718 IMCT                IMCT                                                                                                                    RMF1807183.TXT
MDEFJ7245223201807                D89828070100PV4F20180723000028SPEAKER ASM                   M IMCTM S7FL05 TNTH  09020IMCT  S7 PTB  00004                    2230 SR        000000000000 DENSO TEN (THAILAND)17032QR0135   18088WR0027   D180705512    S180705415    000000                                                                              *R         20180718 IMCT                IMCT                                                                                                                    RMF1807183.TXT
