REC2018070320180703ISUZU                              61     
MDDDJ7210638201807                D89821984430PT1D20180707000030RADIO;AM/FM,CD                M IMCTM S5NC06 TNTH  09020IMCT  S5 PTB  00005                    0230 SR        000000000000 DENSO TEN (THAILAND)180LPAL0179179                                                                                                                              *          20180703 IMCT                IMCT                                                                                                                    WMF1807034.TXT
MDDDJ7210639201807                D89821984430PT1D20180707000030RADIO;AM/FM,CD                M IMCTM S5NC06 TNTH  09020IMCT  S5 PTB  00005                    0400 SR        000000000000 DENSO TEN (THAILAND)180LNHL0053053                                                                                                                              *          20180703 IMCT                IMCT                                                                                                                    WMF1807034.TXT
MDDDJ7210640201807                D89821984430PT1D20180709000030RADIO;AM/FM,CD                M IMCTM S5NC06 TNTH  09020IMCT  S5 PTB  00005                    1300 SR        000000000000 DENSO TEN (THAILAND)180LXEL0063063                                                                                                                              *          20180703 IMCT                IMCT                                                                                                                    WMF1807034.TXT
MDDDJ7210641201807                D89828070100PV1D20180707000120SPEAKER ASM                   M IMCTM S5MB11 TNTH  09020IMCT  S5 PTB  00004                    0230 SR        000000000000 DENSO TEN (THAILAND)180LPAL0179179180LPGL0269269                                                                                                                *          20180703 IMCT                IMCT                                                                                                                    WMF1807034.TXT
MDDDJ7210642201807                D89828070100PV1D20180707000060SPEAKER ASM                   M IMCTM S5MB11 TNTH  09020IMCT  S5 PTB  00004                    0400 SR        000000000000 DENSO TEN (THAILAND)180LNHL0053053                                                                                                                              *          20180703 IMCT                IMCT                                                                                                                    WMF1807034.TXT
MDDDJ7210643201807                D89828070100PV1D20180709000060SPEAKER ASM                   M IMCTM S5MB11 TNTH  09020IMCT  S5 PTB  00004                    0830 SR        000000000000 DENSO TEN (THAILAND)180LPGL0270270                                                                                                                              *          20180703 IMCT                IMCT                                                                                                                    WMF1807034.TXT
MDDDJ7210644201807                D89828070100PV1D20180709000120SPEAKER ASM                   M IMCTM S5MB11 TNTH  09020IMCT  S5 PTB  00004                    1300 SR        000000000000 DENSO TEN (THAILAND)180LPCL0071071180LXEL0063063                                                                                                                *          20180703 IMCT                IMCT                                                                                                                    WMF1807034.TXT
MDDDJ7210645201807                D89828070100PV1D20180709000060SPEAKER ASM                   M IMCTM S5MB11 TNTH  09020IMCT  S5 PTB  00004                    1600 SR        000000000000 DENSO TEN (THAILAND)180LPLL0028028                                                                                                                              *          20180703 IMCT                IMCT                                                                                                                    WMF1807034.TXT
MDDDJ7210646201807                D89828070100PV1D20180709000060SPEAKER ASM                   M IMCTM S5MB11 TNTH  09020IMCT  S5 PTB  00004                    2100 SR        000000000000 DENSO TEN (THAILAND)180LXAL0034034                                                                                                                              *          20180703 IMCT                IMCT                                                                                                                    WMF1807034.TXT
MDDDJ7210647201807                D89828070300PT1D20180707000060SPEAKER ASM                   M IMCTM S5NB082TNTH  09020IMCT  S5 PTB  00015                    0230 SR        000000000000 DENSO TEN (THAILAND)180LPGL0269269                                                                                                                              *          20180703 IMCT                IMCT                                                                                                                    WMF1807034.TXT
MDDDJ7210648201807                D89828070300PT1D20180709000060SPEAKER ASM                   M IMCTM S5NB082TNTH  09020IMCT  S5 PTB  00015                    0830 SR        000000000000 DENSO TEN (THAILAND)180LPGL0270270                                                                                                                              *          20180703 IMCT                IMCT                                                                                                                    WMF1807034.TXT
MDDDJ7210649201807                D89828070300PT1D20180709000060SPEAKER ASM                   M IMCTM S5NB082TNTH  09020IMCT  S5 PTB  00015                    1300 SR        000000000000 DENSO TEN (THAILAND)180LPCL0071071                                                                                                                              *          20180703 IMCT                IMCT                                                                                                                    WMF1807034.TXT
MDDDJ7210650201807                D89828070300PT1D20180709000060SPEAKER ASM                   M IMCTM S5NB082TNTH  09020IMCT  S5 PTB  00015                    1600 SR        000000000000 DENSO TEN (THAILAND)180LPLL0028028                                                                                                                              *          20180703 IMCT                IMCT                                                                                                                    WMF1807034.TXT
MDDDJ7210651201807                D89831228300PT1D20180707000030RADIO;AM/FM,CD                M IMCTM S5NC06 TNTH  09020IMCT  S5 CPB  00003                    0230 SR        000000000000 DENSO TEN (THAILAND)180LPGL0269269                                                                                                                              *          20180703 IMCT                IMCT                                                                                                                    WMF1807034.TXT
MDDDJ7210652201807                D89831228300PT1D20180709000030RADIO;AM/FM,CD                M IMCTM S5NC06 TNTH  09020IMCT  S5 CPB  00003                    0830 SR        000000000000 DENSO TEN (THAILAND)180LPGL0270270                                                                                                                              *          20180703 IMCT                IMCT                                                                                                                    WMF1807034.TXT
MDDDJ7210653201807                D89831228300PT1D20180709000030RADIO;AM/FM,CD                M IMCTM S5NC06 TNTH  09020IMCT  S5 CPB  00003                    1300 SR        000000000000 DENSO TEN (THAILAND)180LPCL0071071                                                                                                                              *          20180703 IMCT                IMCT                                                                                                                    WMF1807034.TXT
MDDDJ7210654201807                D89848581600PT1D20180709000030RADIO;AM/FM CD D              M IMCTM S5NC06 TNTH  09020IMCT  S5 PTB  00003                    1600 SR        000000000000 DENSO TEN (THAILAND)180LPLL0028028                                                                                                                              *          20180703 IMCT                IMCT                                                                                                                    WMF1807034.TXT
MDDUJ7204309201807                D89828070100PT4U20180707000030SPEAKER ASM                   M IMCTM S0FL05 TNTH  09020IMCT  S0 PTB  00004                    0400 SR        000000000000 DENSO TEN (THAILAND)180LUTU0081081                                                                                                                              *          20180703 IMCT                IMCT                                                                                                                    WMF1807034.TXT
MDDUJ7204310201807                D89828070100PT4U20180709000030SPEAKER ASM                   M IMCTM S0FL05 TNTH  09020IMCT  S0 PTB  00004                    1300 SR        000000000000 DENSO TEN (THAILAND)180LUSU0115115                                                                                                                              *          20180703 IMCT                IMCT                                                                                                                    WMF1807034.TXT
MDDUJ7204311201807                D89828070100PT4U20180709000030SPEAKER ASM                   M IMCTM S0FL05 TNTH  09020IMCT  S0 PTB  00004                    2100 SR        000000000000 DENSO TEN (THAILAND)180LUTU0082082                                                                                                                              *          20180703 IMCT                IMCT                                                                                                                    WMF1807034.TXT
MDDUJ7204312201807                D89828070200PV4U20180707000030SPEAKER ASM                   M IMCTM S0FR05 TNTH  09020IMCT  S0 PTB  00005                    0400 SR        000000000000 DENSO TEN (THAILAND)180LUTU0081081                                                                                                                              *          20180703 IMCT                IMCT                                                                                                                    WMF1807034.TXT
MDDUJ7204313201807                D89828070200PV4U20180709000030SPEAKER ASM                   M IMCTM S0FR05 TNTH  09020IMCT  S0 PTB  00005                    1300 SR        000000000000 DENSO TEN (THAILAND)180LUSU0115115                                                                                                                              *          20180703 IMCT                IMCT                                                                                                                    WMF1807034.TXT
MDDUJ7204314201807                D89828070200PV4U20180709000030SPEAKER ASM                   M IMCTM S0FR05 TNTH  09020IMCT  S0 PTB  00005                    2100 SR        000000000000 DENSO TEN (THAILAND)180LUTU0082082                                                                                                                              *          20180703 IMCT                IMCT                                                                                                                    WMF1807034.TXT
MDDUJ7204315201807                D89828070300PT4U20180707000030SPEAKER ASM                   M IMCTM S9TS02 TNTH  09020IMCT  S9 PTB  00015                    0400 SR        000000000000 DENSO TEN (THAILAND)180LUTU0081081                                                                                                                              *          20180703 IMCT                IMCT                                                                                                                    WMF1807034.TXT
MDDUJ7204316201807                D89828070300PT4U20180709000030SPEAKER ASM                   M IMCTM S9TS02 TNTH  09020IMCT  S9 PTB  00015                    1300 SR        000000000000 DENSO TEN (THAILAND)180LUSU0115115                                                                                                                              *          20180703 IMCT                IMCT                                                                                                                    WMF1807034.TXT
MDDUJ7204317201807                D89828070300PT4U20180709000030SPEAKER ASM                   M IMCTM S9TS02 TNTH  09020IMCT  S9 PTB  00015                    2100 SR        000000000000 DENSO TEN (THAILAND)180LUTU0082082                                                                                                                              *          20180703 IMCT                IMCT                                                                                                                    WMF1807034.TXT
MDEDJ7209686201807                D89828070100PV1D20180706000060SPEAKER ASM                   M IMCTM S5MB11 TNTH  09020IMCT  S5 PTB  00004                    2230 SR        000000000000 DENSO TEN (THAILAND)17033QL006906917046RL0008008                                                                                                                *          20180703 IMCT                IMCT                                                                                                                    WMF1807034.TXT
MDEDJ7209687201807                D89828070100PV1D20180709000060SPEAKER ASM                   M IMCTM S5MB11 TNTH  09020IMCT  S5 PTB  00004                    1030 SR        000000000000 DENSO TEN (THAILAND)18001VL003403418007ZL0115115                                                                                                                *          20180703 IMCT                IMCT                                                                                                                    WMF1807034.TXT
MDEDJ7209688201807                D89828070100PV1D20180709000060SPEAKER ASM                   M IMCTM S5MB11 TNTH  09020IMCT  S5 PTB  00004                    1600 SR        000000000000 DENSO TEN (THAILAND)18029XL0004005                                                                                                                              *          20180703 IMCT                IMCT                                                                                                                    WMF1807034.TXT
MDEDJ7209689201807                D89828070100PV4D20180706000030SPEAKER ASM                   M IMCTM S0FL05 TNTH  09020IMCT  S0 PTB  00004                    2230 SR        000000000000 DENSO TEN (THAILAND)18029VU0005005                                                                                                                              *          20180703 IMCT                IMCT                                                                                                                    WMF1807034.TXT
MDEDJ7209690201807                D89828070100PV4D20180707000030SPEAKER ASM                   M IMCTM S0FL05 TNTH  09020IMCT  S0 PTB  00004                    0400 SR        000000000000 DENSO TEN (THAILAND)18052XU0005005                                                                                                                              *          20180703 IMCT                IMCT                                                                                                                    WMF1807034.TXT
MDEDJ7209691201807                D89828070100PV4D20180709000030SPEAKER ASM                   M IMCTM S0FL05 TNTH  09020IMCT  S0 PTB  00004                    1300 SR        000000000000 DENSO TEN (THAILAND)17072PU0001001                                                                                                                              *          20180703 IMCT                IMCT                                                                                                                    WMF1807034.TXT
MDEDJ7209692201807                D89828070100PV4D20180709000030SPEAKER ASM                   M IMCTM S0FL05 TNTH  09020IMCT  S0 PTB  00004                    1600 SR        000000000000 DENSO TEN (THAILAND)18028VU0002002                                                                                                                              *          20180703 IMCT                IMCT                                                                                                                    WMF1807034.TXT
MDEDJ7209693201807                D89828070200PV1D20180706000060SPEAKER ASM                   M IMCTM S5MA14 TNTH  09020IMCT  S5 PTB  00005                    2230 SR        000000000000 DENSO TEN (THAILAND)17033QL006906917046RL0008008                                                                                                                *          20180703 IMCT                IMCT                                                                                                                    WMF1807034.TXT
MDEDJ7209694201807                D89828070200PV1D20180709000030SPEAKER ASM                   M IMCTM S5MA14 TNTH  09020IMCT  S5 PTB  00005                    1030 SR        000000000000 DENSO TEN (THAILAND)18001VL0034034                                                                                                                              *          20180703 IMCT                IMCT                                                                                                                    WMF1807034.TXT
MDEDJ7209695201807                D89828070200PV4D20180706000030SPEAKER ASM                   M IMCTM S0FR05 TNTH  09020IMCT  S0 PTB  00005                    2230 SR        000000000000 DENSO TEN (THAILAND)18029VU0005005                                                                                                                              *          20180703 IMCT                IMCT                                                                                                                    WMF1807034.TXT
MDEDJ7209696201807                D89828070200PV4D20180707000030SPEAKER ASM                   M IMCTM S0FR05 TNTH  09020IMCT  S0 PTB  00005                    0400 SR        000000000000 DENSO TEN (THAILAND)18052XU0005005                                                                                                                              *          20180703 IMCT                IMCT                                                                                                                    WMF1807034.TXT
MDEDJ7209697201807                D89828070200PV4D20180709000030SPEAKER ASM                   M IMCTM S0FR05 TNTH  09020IMCT  S0 PTB  00005                    1600 SR        000000000000 DENSO TEN (THAILAND)18028VU0002002                                                                                                                              *          20180703 IMCT                IMCT                                                                                                                    WMF1807034.TXT
MDEDJ7209698201807                D89828070300PT1D20180706000060SPEAKER ASM                   M IMCTM S5NB082TNTH  09020IMCT  S5 PTB  00015                    2230 SR        000000000000 DENSO TEN (THAILAND)17033QL006906917046RL0008008                                                                                                                *          20180703 IMCT                IMCT                                                                                                                    WMF1807034.TXT
MDEDJ7209699201807                D89828070300PT1D20180709000030SPEAKER ASM                   M IMCTM S5NB082TNTH  09020IMCT  S5 PTB  00015                    1030 SR        000000000000 DENSO TEN (THAILAND)18001VL0034034                                                                                                                              *          20180703 IMCT                IMCT                                                                                                                    WMF1807034.TXT
MDEDJ7209700201807                D89828070300PT1D20180709000060SPEAKER ASM                   M IMCTM S5NB082TNTH  09020IMCT  S5 PTB  00015                    1600 SR        000000000000 DENSO TEN (THAILAND)18029XL0004005                                                                                                                              *          20180703 IMCT                IMCT                                                                                                                    WMF1807034.TXT
MDEDJ7209701201807                D89828070300PT4D20180706000030SPEAKER ASM                   M IMCTM S9TS02 TNTH  09020IMCT  S9 PTB  00015                    2230 SR        000000000000 DENSO TEN (THAILAND)18029VU0005005                                                                                                                              *          20180703 IMCT                IMCT                                                                                                                    WMF1807034.TXT
MDEDJ7209702201807                D89828070300PT4D20180707000030SPEAKER ASM                   M IMCTM S9TS02 TNTH  09020IMCT  S9 PTB  00015                    0400 SR        000000000000 DENSO TEN (THAILAND)18052XU0005005                                                                                                                              *          20180703 IMCT                IMCT                                                                                                                    WMF1807034.TXT
MDEDJ7209703201807                D89828070300PT4D20180709000030SPEAKER ASM                   M IMCTM S9TS02 TNTH  09020IMCT  S9 PTB  00015                    1300 SR        000000000000 DENSO TEN (THAILAND)17072PU0001001                                                                                                                              *          20180703 IMCT                IMCT                                                                                                                    WMF1807034.TXT
MDEDJ7209704201807                D89828070300PT4D20180709000030SPEAKER ASM                   M IMCTM S9TS02 TNTH  09020IMCT  S9 PTB  00015                    1600 SR        000000000000 DENSO TEN (THAILAND)18028VU0002002                                                                                                                              *          20180703 IMCT                IMCT                                                                                                                    WMF1807034.TXT
MDEDJ7209705201807                D89831229000PT1D20180706000015RADIO;AM/FM,CD                M IMCTM S5NC06 TNTH  09020IMCT  S5 PTB  00003                    2230 SR        000000000000 DENSO TEN (THAILAND)17046RL0008008                                                                                                                              *          20180703 IMCT                IMCT                                                                                                                    WMF1807034.TXT
MDEDJ7209706201807                D89831229200PT1D20180706000015RADIO;AM/FM,CD                M IMCTM S5NC06 TNTH  09020IMCT  S5 PTB  00003                    2230 SR        000000000000 DENSO TEN (THAILAND)17033QL0069069                                                                                                                              *          20180703 IMCT                IMCT                                                                                                                    WMF1807034.TXT
MDEDJ7209707201807                D89831229200PT4D20180709000015RADIO;AM/FM,CD                M IMCTM S9CO001TNTH  09020IMCT  S9 PTB  00003                    1300 SR        000000000000 DENSO TEN (THAILAND)17072PU0001001                                                                                                                              *          20180703 IMCT                IMCT                                                                                                                    WMF1807034.TXT
MDEUJ7205363201807                D89828070100PT4U20180707000030SPEAKER ASM                   M IMCTM S0FL05 TNTH  09020IMCT  S0 PTB  00004                    0230 SR        000000000000 DENSO TEN (THAILAND)18032UU0007007                                                                                                                              *          20180703 IMCT                IMCT                                                                                                                    WMF1807034.TXT
MDEUJ7205364201807                D89828070100PT4U20180709000030SPEAKER ASM                   M IMCTM S0FL05 TNTH  09020IMCT  S0 PTB  00004                    0830 SR        000000000000 DENSO TEN (THAILAND)18031UU0004004                                                                                                                              *          20180703 IMCT                IMCT                                                                                                                    WMF1807034.TXT
MDEUJ7205365201807                D89828070100PT4U20180709000030SPEAKER ASM                   M IMCTM S0FL05 TNTH  09020IMCT  S0 PTB  00004                    1300 SR        000000000000 DENSO TEN (THAILAND)18020UU0085085                                                                                                                              *          20180703 IMCT                IMCT                                                                                                                    WMF1807034.TXT
MDEUJ7205366201807                D89828070100PT4U20180709000030SPEAKER ASM                   M IMCTM S0FL05 TNTH  09020IMCT  S0 PTB  00004                    2230 SR        000000000000 DENSO TEN (THAILAND)18069ZU0007007                                                                                                                              *          20180703 IMCT                IMCT                                                                                                                    WMF1807034.TXT
MDEUJ7205367201807                D89828070200PV4U20180707000030SPEAKER ASM                   M IMCTM S0FR05 TNTH  09020IMCT  S0 PTB  00005                    0230 SR        000000000000 DENSO TEN (THAILAND)18032UU0007007                                                                                                                              *          20180703 IMCT                IMCT                                                                                                                    WMF1807034.TXT
MDEUJ7205368201807                D89828070200PV4U20180709000030SPEAKER ASM                   M IMCTM S0FR05 TNTH  09020IMCT  S0 PTB  00005                    0830 SR        000000000000 DENSO TEN (THAILAND)18031UU0004004                                                                                                                              *          20180703 IMCT                IMCT                                                                                                                    WMF1807034.TXT
MDEUJ7205369201807                D89828070200PV4U20180709000030SPEAKER ASM                   M IMCTM S0FR05 TNTH  09020IMCT  S0 PTB  00005                    1300 SR        000000000000 DENSO TEN (THAILAND)18020UU0085085                                                                                                                              *          20180703 IMCT                IMCT                                                                                                                    WMF1807034.TXT
MDEUJ7205370201807                D89828070200PV4U20180709000030SPEAKER ASM                   M IMCTM S0FR05 TNTH  09020IMCT  S0 PTB  00005                    2230 SR        000000000000 DENSO TEN (THAILAND)18069ZU0007007                                                                                                                              *          20180703 IMCT                IMCT                                                                                                                    WMF1807034.TXT
MDEUJ7205371201807                D89828070300PT4U20180707000030SPEAKER ASM                   M IMCTM S9TS02 TNTH  09020IMCT  S9 PTB  00015                    0230 SR        000000000000 DENSO TEN (THAILAND)18032UU0007007                                                                                                                              *          20180703 IMCT                IMCT                                                                                                                    WMF1807034.TXT
MDEUJ7205372201807                D89828070300PT4U20180709000030SPEAKER ASM                   M IMCTM S9TS02 TNTH  09020IMCT  S9 PTB  00015                    0830 SR        000000000000 DENSO TEN (THAILAND)18031UU0004004                                                                                                                              *          20180703 IMCT                IMCT                                                                                                                    WMF1807034.TXT
MDEUJ7205373201807                D89828070300PT4U20180709000030SPEAKER ASM                   M IMCTM S9TS02 TNTH  09020IMCT  S9 PTB  00015                    1300 SR        000000000000 DENSO TEN (THAILAND)18020UU0085085                                                                                                                              *          20180703 IMCT                IMCT                                                                                                                    WMF1807034.TXT
MDEUJ7205374201807                D89828070300PT4U20180709000030SPEAKER ASM                   M IMCTM S9TS02 TNTH  09020IMCT  S9 PTB  00015                    2230 SR        000000000000 DENSO TEN (THAILAND)18069ZU0007007                                                                                                                              *          20180703 IMCT                IMCT                                                                                                                    WMF1807034.TXT
MDEUJ7205375201807                D89848584500PT4U20180709000015RADIO;AM/FM CD D              M IMCTM S9CO001TNTH  09020IMCT  S9 PTB  00003                    2230 SR        000000000000 DENSO TEN (THAILAND)18069ZU0007007                                                                                                                              *          20180703 IMCT                IMCT                                                                                                                    WMF1807034.TXT
