REC2018070920180709ISUZU                              17     
MDEFJ7T07432201807                D89828070100PV4F20180713000030SPEAKER ASM                   M IMCTM S7FL05 TNTH  09020IMCT  S7 PTB  00004                    1300 SR        000000000000 DENSO TEN (THAILAND)18002XR0027   18011XR0030   F180703301    F180703315    000000                                                                              *R         20180709 IMCT                IMCT                                                                                                                    RMF1807095.TXT
MDEFJ7T07433201807                D89828070200PV4F20180713000012SPEAKER ASM                   M IMCTM S7FL05 TNTH  09020IMCT  S7 PTB  00005                    0400 SR        000000000000 DENSO TEN (THAILAND)17046RR0153   18031VR0007   D180703210    D180703215    000000                                                                              *R         20180709 IMCT                IMCT                                                                                                                    RMF1807095.TXT
MDEFJ7T07434201807                D89828070300PT4F20180713000006SPEAKER ASM                   M IMCTM S7TS02 TNTH  09020IMCT  S7 PTB  00015                    1300 SR        000000000000 DENSO TEN (THAILAND)17061ZR0056   18011XR0030   F180703313    F180703315    000000                                                                              *R         20180709 IMCT                IMCT                                                                                                                    RMF1807095.TXT
MDEFJ7T07435201807                D89831228910PT4F20180713000006RADIO;AM/FM,CD                M IMCTM S77000 TNTH  09020IMCT  S7*    X00030                    1300 SR        000000000000 DENSO TEN (THAILAND)18056WR0019   17061ZR0056   F180703302    F180703313    000000                                                                              *R         20180709 IMCT                IMCT                                                                                                                    RMF1807095.TXT
MDEFJ7T07436201807                D89831229010PT4F20180712000012RADIO;AM/FM,CD                M IMCTM S77000 TNTH  09020IMCT  S7     X00030                    2100 SR        000000000000 DENSO TEN (THAILAND)17016RR0010   18064WR0008   C180703102    D180703212    000000                                                                              *R         20180709 IMCT                IMCT                                                                                                                    RMF1807095.TXT
MDEFJ7T07437201807                D89848582000PT4F20180713000001RADIO;AM/FM CD D              M IMCTM S7TS01 TNTH  09020IMCT  S7 PTB  00003                    0400 SR        000000000000 DENSO TEN (THAILAND)18065WR0013   18065WR0013   D180703213    D180703213    000000                                                                              *R         20180709 IMCT                IMCT                                                                                                                    RMF1807095.TXT
MDEFJ7216376201807                D89828070100PV4F20180712000008SPEAKER ASM                   M IMCTM S7FL05 TNTH  09020IMCT  S7 PTB  00004                    2100 SR        000000000000 DENSO TEN (THAILAND)17014RR0052   17067QR0117   C180703101    C180703104    000000                                                                              *R         20180709 IMCT                IMCT                                                                                                                    RMF1807095.TXT
MDEFJ7216377201807                D89828070100PV4F20180712000024SPEAKER ASM                   M IMCTM S7FL05 TNTH  09020IMCT  S7 PTB  00004                    2230 SR        000000000000 DENSO TEN (THAILAND)17016RR0011   18029XR0022   C180703105    D180703201    000000                                                                              *R         20180709 IMCT                IMCT                                                                                                                    RMF1807095.TXT
MDEFJ7216378201807                D89828070100PV4F20180713000016SPEAKER ASM                   M IMCTM S7FL05 TNTH  09020IMCT  S7 PTB  00004                    0230 SR        000000000000 DENSO TEN (THAILAND)18029XR0023   18031VR0005   D180703202    D180703209    000000                                                                              *R         20180709 IMCT                IMCT                                                                                                                    RMF1807095.TXT
MDEFJ7216379201807                D89828070100PV4F20180713000012SPEAKER ASM                   M IMCTM S7FL05 TNTH  09020IMCT  S7 PTB  00004                    0400 SR        000000000000 DENSO TEN (THAILAND)17046RR0153   18031VR0007   D180703210    D180703215    000000                                                                              *R         20180709 IMCT                IMCT                                                                                                                    RMF1807095.TXT
MDEFJ7216380201807                D89828070200PV4F20180712000005SPEAKER ASM                   M IMCTM S7FL05 TNTH  09020IMCT  S7 PTB  00005                    2100 SR        000000000000 DENSO TEN (THAILAND)17016RR0010   17067QR0117   C180703102    C180703104    000000                                                                              *R         20180709 IMCT                IMCT                                                                                                                    RMF1807095.TXT
MDEFJ7216381201807                D89828070200PV4F20180712000015SPEAKER ASM                   M IMCTM S7FL05 TNTH  09020IMCT  S7 PTB  00005                    2230 SR        000000000000 DENSO TEN (THAILAND)17067QR0117   17067QR0123   C180703104    C180703115    000000                                                                              *R         20180709 IMCT                IMCT                                                                                                                    RMF1807095.TXT
MDEFJ7216382201807                D89828070200PV4F20180713000010SPEAKER ASM                   M IMCTM S7FL05 TNTH  09020IMCT  S7 PTB  00005                    0230 SR        000000000000 DENSO TEN (THAILAND)18031VR0001   18031VR0005   D180703205    D180703209    000000                                                                              *R         20180709 IMCT                IMCT                                                                                                                    RMF1807095.TXT
MDEFJ7216383201807                D89828070300PT4F20180712000015SPEAKER ASM                   M IMCTM S7TS02 TNTH  09020IMCT  S7 PTB  00015                    2100 SR        000000000000 DENSO TEN (THAILAND)17016RR0010   17067QR0121   C180703102    C180703113    000000                                                                              *R         20180709 IMCT                IMCT                                                                                                                    RMF1807095.TXT
MDEFJ7216384201807                D89828070300PT4F20180712000015SPEAKER ASM                   M IMCTM S7TS02 TNTH  09020IMCT  S7 PTB  00015                    2230 SR        000000000000 DENSO TEN (THAILAND)17067QR0121   18031VR0001   C180703113    D180703205    000000                                                                              *R         20180709 IMCT                IMCT                                                                                                                    RMF1807095.TXT
MDEFJ7216385201807                D89828070300PT4F20180713000015SPEAKER ASM                   M IMCTM S7TS02 TNTH  09020IMCT  S7 PTB  00015                    0230 SR        000000000000 DENSO TEN (THAILAND)18031VR0002   18065WR0013   D180703206    D180703213    000000                                                                              *R         20180709 IMCT                IMCT                                                                                                                    RMF1807095.TXT
MDEFJ7216386201807                D89828070300PT4F20180713000015SPEAKER ASM                   M IMCTM S7TS02 TNTH  09020IMCT  S7 PTB  00015                    0400 SR        000000000000 DENSO TEN (THAILAND)18065WR0013   17061ZR0055   D180703213    F180703312    000000                                                                              *R         20180709 IMCT                IMCT                                                                                                                    RMF1807095.TXT
