REC2018072420180724ISUZU                              15     
MDEBJ7T03828201807                D89828070100PT4B20180730000026SPEAKER ASM                   M IMCTM S7FL05 TNTH  09020IMCT  S7 PTB  00004                    1300 SR        000000000000 DENSO TEN (THAILAND)18024UR0015   18060UR0061   Y180706203    Y180706215    000000                                                                              *R         20180724 IMCT                IMCT                                                                                                                    RMF1807244.TXT
MDEBJ7T03829201807                D89828070200PV4B20180730000025SPEAKER ASM                   M IMCTM S7FL05 TNTH  09020IMCT  S7 PTB  00005                    1300 SR        000000000000 DENSO TEN (THAILAND)18024UR0015   18060UR0061   Y180706203    Y180706215    000000                                                                              *R         20180724 IMCT                IMCT                                                                                                                    RMF1807244.TXT
MDEBJ7T03830201807                D89828070300PT4B20180730000015SPEAKER ASM                   M IMCTM S7TS02 TNTH  09020IMCT  S7 PTB  00015                    1300 SR        000000000000 DENSO TEN (THAILAND)18023UR0010   18060UR0061   Y180706208    Y180706215    000000                                                                              *R         20180724 IMCT                IMCT                                                                                                                    RMF1807244.TXT
MDEBJ7T03831201807                D89848584410PT4B20180730000002RADIO;AM/FM CD D              M IMCTM S7TS01 TNTH  09020IMCT  S7 PTB  00003                    1300 SR        000000000000 DENSO TEN (THAILAND)18060UR0060   18060UR0061   Y180706214    Y180706215    000000                                                                              *R         20180724 IMCT                IMCT                                                                                                                    RMF1807244.TXT
MDEBJ7204346201807                D89828070100PT4B20180730000004SPEAKER ASM                   M IMCTM S7FL05 TNTH  09020IMCT  S7 PTB  00004                    1030 SR        000000000000 DENSO TEN (THAILAND)18023UR0004   18023UR0005   Y180706201    Y180706202    000000                                                                              *R         20180724 IMCT                IMCT                                                                                                                    RMF1807244.TXT
MDEBJ7204347201807                D89828070200PV4B20180730000005SPEAKER ASM                   M IMCTM S7FL05 TNTH  09020IMCT  S7 PTB  00005                    1030 SR        000000000000 DENSO TEN (THAILAND)18023UR0004   18024UR0015   Y180706201    Y180706203    000000                                                                              *R         20180724 IMCT                IMCT                                                                                                                    RMF1807244.TXT
MDEBJ7204348201807                D89828070300PT4B20180730000015SPEAKER ASM                   M IMCTM S7TS02 TNTH  09020IMCT  S7 PTB  00015                    1030 SR        000000000000 DENSO TEN (THAILAND)18023UR0004   18023UR0010   Y180706201    Y180706208    000000                                                                              *R         20180724 IMCT                IMCT                                                                                                                    RMF1807244.TXT
MDEFJ7T21745201807                D89805293700PV4F20180727000004SPEAKER ASM                   M IMCTM S7FR05 TNTH  09020IMCT  S7 PTB  00003                    2230 SR        000000000000 DENSO TEN (THAILAND)15021DR0146   15021DR0147   D180706004    D180706005    000000                                                                              *R         20180724 IMCT                IMCT                                                                                                                    RMF1807244.TXT
MDEFJ7T21746201807                D89828070100PV4F20180728000030SPEAKER ASM                   M IMCTM S7FL05 TNTH  09020IMCT  S7 PTB  00004                    0400 SR        000000000000 DENSO TEN (THAILAND)17007RR0158   17060RR0010   R180706101    R180706115    000000                                                                              *R         20180724 IMCT                IMCT                                                                                                                    RMF1807244.TXT
MDEFJ7T21747201807                D89828070200PV4F20180727000006SPEAKER ASM                   M IMCTM S7FL05 TNTH  09020IMCT  S7 PTB  00005                    2230 SR        000000000000 DENSO TEN (THAILAND)17002RR0083   17005RR0112   D180706006    D180706008    000000                                                                              *R         20180724 IMCT                IMCT                                                                                                                    RMF1807244.TXT
MDEFJ7T21748201807                D89828070300PT4F20180727000006SPEAKER ASM                   M IMCTM S7TS02 TNTH  09020IMCT  S7 PTB  00015                    2230 SR        000000000000 DENSO TEN (THAILAND)17002RR0083   17005RR0112   D180706006    D180706008    000000                                                                              *R         20180724 IMCT                IMCT                                                                                                                    RMF1807244.TXT
MDEFJ7T21749201807                D89829645410PT4F20180727000001RADIO;ASM DVD                 M IMCTM S7TS03 TNTH  09020IMCT  S7 PTB  00003                    2230 SR        000000000000 DENSO TEN (THAILAND)17005RR0112   17005RR0112   D180706008    D180706008    000000                                                                              *R         20180724 IMCT                IMCT                                                                                                                    RMF1807244.TXT
MDEFJ7T21750201807                D89831229010PT4F20180727000002RADIO;AM/FM,CD                M IMCTM S7TS01 TNTH  09020IMCT  S7 PTB  00003                    2230 SR        000000000000 DENSO TEN (THAILAND)17002RR0083   17002RR0084   D180706006    D180706007    000000                                                                              *R         20180724 IMCT                IMCT                                                                                                                    RMF1807244.TXT
MDEFJ7252763201807                D89805293700PV4F20180727000006SPEAKER ASM                   M IMCTM S7FR05 TNTH  09020IMCT  S7 PTB  00003                    2100 SR        000000000000 DENSO TEN (THAILAND)15021DR0143   15021DR0145   D180706001    D180706003    000000                                                                              *R         20180724 IMCT                IMCT                                                                                                                    RMF1807244.TXT
MDEFJ7252764201807                D89828070100PV4F20180727000020SPEAKER ASM                   M IMCTM S7FL05 TNTH  09020IMCT  S7 PTB  00004                    2230 SR        000000000000 DENSO TEN (THAILAND)17002RR0083   17023QR0027   D180706006    D180706015    000000                                                                              *R         20180724 IMCT                IMCT                                                                                                                    RMF1807244.TXT
