REC2018070420180704ISUZU                              6      
MADUJ7600959201810                 89828070100PT4U20180903000002SPEAKER ASM                   M IMCTM ST00000TNTH  09020IMCT  ST PTB  00004  DC                0000 SR        000000000000 DENSO TEN (THAILAND)190M5AU0001001                                                                                                                              *P         20180704 IMCT                IMCT                                                                                                                    WMF1807041.TXT
MADUJ7600960201810                 89828070200PV4U20180903000002SPEAKER ASM                   M IMCTM ST00000TNTH  09020IMCT  ST PTB  00005  DC                0000 SR        000000000000 DENSO TEN (THAILAND)190M5AU0001001                                                                                                                              *P         20180704 IMCT                IMCT                                                                                                                    WMF1807041.TXT
MADUJ7600961201810                 89828070300PT4U20180903000002SPEAKER ASM                   M IMCTM ST00000TNTH  09020IMCT  ST PTB  00015  DC                0000 SR        000000000000 DENSO TEN (THAILAND)190M5AU0001001                                                                                                                              *P         20180704 IMCT                IMCT                                                                                                                    WMF1807041.TXT
MAEUJ7600969201810                 89828070100PT4U20180903000002SPEAKER ASM                   M IMCTM ST00000TNTH  09020IMCT  ST PTB  00004  DC                0000 SR        000000000000 DENSO TEN (THAILAND)190J59U0001001                                                                                                                              *P         20180704 IMCT                IMCT                                                                                                                    WMF1807041.TXT
MAEUJ7600970201810                 89828070200PV4U20180903000002SPEAKER ASM                   M IMCTM ST00000TNTH  09020IMCT  ST PTB  00005  DC                0000 SR        000000000000 DENSO TEN (THAILAND)190J59U0001001                                                                                                                              *P         20180704 IMCT                IMCT                                                                                                                    WMF1807041.TXT
MAEUJ7600971201810                 89828070300PT4U20180903000002SPEAKER ASM                   M IMCTM ST00000TNTH  09020IMCT  ST PTB  00015  DC                0000 SR        000000000000 DENSO TEN (THAILAND)190J59U0001001                                                                                                                              *P         20180704 IMCT                IMCT                                                                                                                    WMF1807041.TXT
