REC2018073120180731ISUZU                              54     
MDDDJ7334044201808                D89821984430PT1D20180803000030RADIO;AM/FM,CD                M IMCTM S5NC06 TNTH  09020IMCT  S5 PTB  00005                    2230 SR        000000000000 DENSO TEN (THAILAND)180LRAL0211211                                                                                                                              *          20180731 IMCT                IMCT                                                                                                                    WMF1807315.TXT
MDDDJ7334045201808                D89821984430PT1D20180804000030RADIO;AM/FM,CD                M IMCTM S5NC06 TNTH  09020IMCT  S5 PTB  00005                    0230 SR        000000000000 DENSO TEN (THAILAND)180LXEL0079079                                                                                                                              *          20180731 IMCT                IMCT                                                                                                                    WMF1807315.TXT
MDDDJ7334046201808                D89821984430PT1D20180804000030RADIO;AM/FM,CD                M IMCTM S5NC06 TNTH  09020IMCT  S5 PTB  00005                    0830 SR        000000000000 DENSO TEN (THAILAND)180LRBL0051051                                                                                                                              *          20180731 IMCT                IMCT                                                                                                                    WMF1807315.TXT
MDDDJ7334047201808                D89821984430PT1D20180804000060RADIO;AM/FM,CD                M IMCTM S5NC06 TNTH  09020IMCT  S5 PTB  00005                    1300 SR        000000000000 DENSO TEN (THAILAND)180LPAL0201201180LRAL0212212                                                                                                                *          20180731 IMCT                IMCT                                                                                                                    WMF1807315.TXT
MDDDJ7334048201808                D89821984430PT1D20180804000030RADIO;AM/FM,CD                M IMCTM S5NC06 TNTH  09020IMCT  S5 PTB  00005                    1600 SR        000000000000 DENSO TEN (THAILAND)180LPAL0202202                                                                                                                              *          20180731 IMCT                IMCT                                                                                                                    WMF1807315.TXT
MDDDJ7334049201808                D89828070100PV1D20180803000060SPEAKER ASM                   M IMCTM S5MB11 TNTH  09020IMCT  S5 PTB  00004                    2230 SR        000000000000 DENSO TEN (THAILAND)180LRAL0211211                                                                                                                              *          20180731 IMCT                IMCT                                                                                                                    WMF1807315.TXT
MDDDJ7334050201808                D89828070100PV1D20180804000060SPEAKER ASM                   M IMCTM S5MB11 TNTH  09020IMCT  S5 PTB  00004                    0230 SR        000000000000 DENSO TEN (THAILAND)180LXEL0079079                                                                                                                              *          20180731 IMCT                IMCT                                                                                                                    WMF1807315.TXT
MDDDJ7334051201808                D89828070100PV1D20180804000060SPEAKER ASM                   M IMCTM S5MB11 TNTH  09020IMCT  S5 PTB  00004                    0830 SR        000000000000 DENSO TEN (THAILAND)180LRBL0051051                                                                                                                              *          20180731 IMCT                IMCT                                                                                                                    WMF1807315.TXT
MDDDJ7334052201808                D89828070100PV1D20180804000060SPEAKER ASM                   M IMCTM S5MB11 TNTH  09020IMCT  S5 PTB  00004                    1030 SR        000000000000 DENSO TEN (THAILAND)180LPQL0035035                                                                                                                              *          20180731 IMCT                IMCT                                                                                                                    WMF1807315.TXT
MDDDJ7334053201808                D89828070100PV1D20180804000120SPEAKER ASM                   M IMCTM S5MB11 TNTH  09020IMCT  S5 PTB  00004                    1300 SR        000000000000 DENSO TEN (THAILAND)180LPAL0201201180LRAL0212212                                                                                                                *          20180731 IMCT                IMCT                                                                                                                    WMF1807315.TXT
MDDDJ7334054201808                D89828070100PV1D20180804000060SPEAKER ASM                   M IMCTM S5MB11 TNTH  09020IMCT  S5 PTB  00004                    1600 SR        000000000000 DENSO TEN (THAILAND)180LPAL0202202                                                                                                                              *          20180731 IMCT                IMCT                                                                                                                    WMF1807315.TXT
MDDDJ7334055201808                D89828070100PV1D20180804000060SPEAKER ASM                   M IMCTM S5MB11 TNTH  09020IMCT  S5 PTB  00004                    2100 SR        000000000000 DENSO TEN (THAILAND)180LPGL0296296                                                                                                                              *          20180731 IMCT                IMCT                                                                                                                    WMF1807315.TXT
MDDDJ7334056201808                D89828070300PT1D20180804000060SPEAKER ASM                   M IMCTM S5NB082TNTH  09020IMCT  S5 PTB  00015                    1030 SR        000000000000 DENSO TEN (THAILAND)180LPQL0035035                                                                                                                              *          20180731 IMCT                IMCT                                                                                                                    WMF1807315.TXT
MDDDJ7334057201808                D89828070300PT1D20180804000060SPEAKER ASM                   M IMCTM S5NB082TNTH  09020IMCT  S5 PTB  00015                    2100 SR        000000000000 DENSO TEN (THAILAND)180LPGL0296296                                                                                                                              *          20180731 IMCT                IMCT                                                                                                                    WMF1807315.TXT
MDDDJ7334058201808                D89831228300PT1D20180804000030RADIO;AM/FM,CD                M IMCTM S5NC06 TNTH  09020IMCT  S5 CPB  00003                    2100 SR        000000000000 DENSO TEN (THAILAND)180LPGL0296296                                                                                                                              *          20180731 IMCT                IMCT                                                                                                                    WMF1807315.TXT
MDDDJ7334059201808                D89848581600PT1D20180804000030RADIO;AM/FM CD D              M IMCTM S5NC06 TNTH  09020IMCT  S5 PTB  00003                    1030 SR        000000000000 DENSO TEN (THAILAND)180LPQL0035035                                                                                                                              *          20180731 IMCT                IMCT                                                                                                                    WMF1807315.TXT
MDDUJ7259892201808                D89828070100PT4U20180804000030SPEAKER ASM                   M IMCTM S0FL05 TNTH  09020IMCT  S0 PTB  00004                    0400 SR        000000000000 DENSO TEN (THAILAND)180LUSU0143143                                                                                                                              *          20180731 IMCT                IMCT                                                                                                                    WMF1807315.TXT
MDDUJ7259893201808                D89828070100PT4U20180804000030SPEAKER ASM                   M IMCTM S0FL05 TNTH  09020IMCT  S0 PTB  00004                    1600 SR        000000000000 DENSO TEN (THAILAND)180LUTU0103103                                                                                                                              *          20180731 IMCT                IMCT                                                                                                                    WMF1807315.TXT
MDDUJ7259894201808                D89828070200PV4U20180804000030SPEAKER ASM                   M IMCTM S0FR05 TNTH  09020IMCT  S0 PTB  00005                    0400 SR        000000000000 DENSO TEN (THAILAND)180LUSU0143143                                                                                                                              *          20180731 IMCT                IMCT                                                                                                                    WMF1807315.TXT
MDDUJ7259895201808                D89828070200PV4U20180804000030SPEAKER ASM                   M IMCTM S0FR05 TNTH  09020IMCT  S0 PTB  00005                    1600 SR        000000000000 DENSO TEN (THAILAND)180LUTU0103103                                                                                                                              *          20180731 IMCT                IMCT                                                                                                                    WMF1807315.TXT
MDDUJ7259896201808                D89828070300PT4U20180804000030SPEAKER ASM                   M IMCTM S9TS02 TNTH  09020IMCT  S9 PTB  00015                    0400 SR        000000000000 DENSO TEN (THAILAND)180LUSU0143143                                                                                                                              *          20180731 IMCT                IMCT                                                                                                                    WMF1807315.TXT
MDDUJ7259897201808                D89828070300PT4U20180804000030SPEAKER ASM                   M IMCTM S9TS02 TNTH  09020IMCT  S9 PTB  00015                    1600 SR        000000000000 DENSO TEN (THAILAND)180LUTU0103103                                                                                                                              *          20180731 IMCT                IMCT                                                                                                                    WMF1807315.TXT
MDEDJ7352692201808                D89805293700PV1D20180804000030SPEAKER ASM                   M IMCTM S5MB14 TNTH  09020IMCT  S5 PTB  00003                    0400 SR        000000000000 DENSO TEN (THAILAND)15021DL0017017                                                                                                                              *          20180731 IMCT                IMCT                                                                                                                    WMF1807315.TXT
MDEDJ7352693201808                D89828070100PV1D20180803000060SPEAKER ASM                   M IMCTM S5MB11 TNTH  09020IMCT  S5 PTB  00004                    2230 SR        000000000000 DENSO TEN (THAILAND)18076UL0017018                                                                                                                              *          20180731 IMCT                IMCT                                                                                                                    WMF1807315.TXT
MDEDJ7352694201808                D89828070100PV1D20180804000060SPEAKER ASM                   M IMCTM S5MB11 TNTH  09020IMCT  S5 PTB  00004                    0400 SR        000000000000 DENSO TEN (THAILAND)18007ZL012912918011YL0001001                                                                                                                *          20180731 IMCT                IMCT                                                                                                                    WMF1807315.TXT
MDEDJ7352695201808                D89828070100PV1D20180804000030SPEAKER ASM                   M IMCTM S5MB11 TNTH  09020IMCT  S5 PTB  00004                    0830 SR        000000000000 DENSO TEN (THAILAND)18011YL0002002                                                                                                                              *          20180731 IMCT                IMCT                                                                                                                    WMF1807315.TXT
MDEDJ7352696201808                D89828070100PV1D20180804000060SPEAKER ASM                   M IMCTM S5MB11 TNTH  09020IMCT  S5 PTB  00004                    1600 SR        000000000000 DENSO TEN (THAILAND)18084UL000800818098UL0058058                                                                                                                *          20180731 IMCT                IMCT                                                                                                                    WMF1807315.TXT
MDEDJ7352697201808                D89828070100PV4D20180803000030SPEAKER ASM                   M IMCTM S0FL05 TNTH  09020IMCT  S0 PTB  00004                    2230 SR        000000000000 DENSO TEN (THAILAND)18099UU0020020                                                                                                                              *          20180731 IMCT                IMCT                                                                                                                    WMF1807315.TXT
MDEDJ7352698201808                D89828070100PV4D20180804000030SPEAKER ASM                   M IMCTM S0FL05 TNTH  09020IMCT  S0 PTB  00004                    0400 SR        000000000000 DENSO TEN (THAILAND)18098UU0033033                                                                                                                              *          20180731 IMCT                IMCT                                                                                                                    WMF1807315.TXT
MDEDJ7352699201808                D89828070100PV4D20180804000030SPEAKER ASM                   M IMCTM S0FL05 TNTH  09020IMCT  S0 PTB  00004                    1030 SR        000000000000 DENSO TEN (THAILAND)18099UU0021021                                                                                                                              *          20180731 IMCT                IMCT                                                                                                                    WMF1807315.TXT
MDEDJ7352700201808                D89828070100PV4D20180804000030SPEAKER ASM                   M IMCTM S0FL05 TNTH  09020IMCT  S0 PTB  00004                    1300 SR        000000000000 DENSO TEN (THAILAND)17061PU0007007                                                                                                                              *          20180731 IMCT                IMCT                                                                                                                    WMF1807315.TXT
MDEDJ7352701201808                D89828070100PV4D20180804000030SPEAKER ASM                   M IMCTM S0FL05 TNTH  09020IMCT  S0 PTB  00004                    1600 SR        000000000000 DENSO TEN (THAILAND)18010ZU0048048                                                                                                                              *          20180731 IMCT                IMCT                                                                                                                    WMF1807315.TXT
MDEDJ7352702201808                D89828070200PV1D20180804000060SPEAKER ASM                   M IMCTM S5MA14 TNTH  09020IMCT  S5 PTB  00005                    1600 SR        000000000000 DENSO TEN (THAILAND)18084UL000800818098UL0058058                                                                                                                *          20180731 IMCT                IMCT                                                                                                                    WMF1807315.TXT
MDEDJ7352703201808                D89828070200PV4D20180803000030SPEAKER ASM                   M IMCTM S0FR05 TNTH  09020IMCT  S0 PTB  00005                    2230 SR        000000000000 DENSO TEN (THAILAND)18099UU0020020                                                                                                                              *          20180731 IMCT                IMCT                                                                                                                    WMF1807315.TXT
MDEDJ7352704201808                D89828070200PV4D20180804000030SPEAKER ASM                   M IMCTM S0FR05 TNTH  09020IMCT  S0 PTB  00005                    0400 SR        000000000000 DENSO TEN (THAILAND)18098UU0033033                                                                                                                              *          20180731 IMCT                IMCT                                                                                                                    WMF1807315.TXT
MDEDJ7352705201808                D89828070200PV4D20180804000030SPEAKER ASM                   M IMCTM S0FR05 TNTH  09020IMCT  S0 PTB  00005                    1030 SR        000000000000 DENSO TEN (THAILAND)18099UU0021021                                                                                                                              *          20180731 IMCT                IMCT                                                                                                                    WMF1807315.TXT
MDEDJ7352706201808                D89828070300PT1D20180803000060SPEAKER ASM                   M IMCTM S5NB082TNTH  09020IMCT  S5 PTB  00015                    2230 SR        000000000000 DENSO TEN (THAILAND)18076UL0017018                                                                                                                              *          20180731 IMCT                IMCT                                                                                                                    WMF1807315.TXT
MDEDJ7352707201808                D89828070300PT1D20180804000030SPEAKER ASM                   M IMCTM S5NB082TNTH  09020IMCT  S5 PTB  00015                    0400 SR        000000000000 DENSO TEN (THAILAND)18011YL0001001                                                                                                                              *          20180731 IMCT                IMCT                                                                                                                    WMF1807315.TXT
MDEDJ7352708201808                D89828070300PT1D20180804000030SPEAKER ASM                   M IMCTM S5NB082TNTH  09020IMCT  S5 PTB  00015                    0830 SR        000000000000 DENSO TEN (THAILAND)18011YL0002002                                                                                                                              *          20180731 IMCT                IMCT                                                                                                                    WMF1807315.TXT
MDEDJ7352709201808                D89828070300PT1D20180804000060SPEAKER ASM                   M IMCTM S5NB082TNTH  09020IMCT  S5 PTB  00015                    1600 SR        000000000000 DENSO TEN (THAILAND)18084UL000800818098UL0058058                                                                                                                *          20180731 IMCT                IMCT                                                                                                                    WMF1807315.TXT
MDEDJ7352710201808                D89828070300PT4D20180803000030SPEAKER ASM                   M IMCTM S9TS02 TNTH  09020IMCT  S9 PTB  00015                    2230 SR        000000000000 DENSO TEN (THAILAND)18099UU0020020                                                                                                                              *          20180731 IMCT                IMCT                                                                                                                    WMF1807315.TXT
MDEDJ7352711201808                D89828070300PT4D20180804000030SPEAKER ASM                   M IMCTM S9TS02 TNTH  09020IMCT  S9 PTB  00015                    0400 SR        000000000000 DENSO TEN (THAILAND)18098UU0033033                                                                                                                              *          20180731 IMCT                IMCT                                                                                                                    WMF1807315.TXT
MDEDJ7352712201808                D89828070300PT4D20180804000030SPEAKER ASM                   M IMCTM S9TS02 TNTH  09020IMCT  S9 PTB  00015                    1030 SR        000000000000 DENSO TEN (THAILAND)18099UU0021021                                                                                                                              *          20180731 IMCT                IMCT                                                                                                                    WMF1807315.TXT
MDEDJ7352713201808                D89848581800PT1D20180804000015RADIO;AM/FM CD D              M IMCTM S5NC06 TNTH  09020IMCT  S5 PTB  00003                    1600 SR        000000000000 DENSO TEN (THAILAND)18098UL0058058                                                                                                                              *          20180731 IMCT                IMCT                                                                                                                    WMF1807315.TXT
MDEDJ7352714201808                D89848581800PT4D20180804000015RADIO;AM/FM CD D              M IMCTM S9CO001TNTH  09020IMCT  S9 PTB  00003                    0400 SR        000000000000 DENSO TEN (THAILAND)18098UU0033033                                                                                                                              *          20180731 IMCT                IMCT                                                                                                                    WMF1807315.TXT
MDEUJ7268364201808                D89828070100PT4U20180804000030SPEAKER ASM                   M IMCTM S0FL05 TNTH  09020IMCT  S0 PTB  00004                    0230 SR        000000000000 DENSO TEN (THAILAND)18049ZU0070070                                                                                                                              *          20180731 IMCT                IMCT                                                                                                                    WMF1807315.TXT
MDEUJ7268365201808                D89828070100PT4U20180804000030SPEAKER ASM                   M IMCTM S0FL05 TNTH  09020IMCT  S0 PTB  00004                    1300 SR        000000000000 DENSO TEN (THAILAND)18030TU0004004                                                                                                                              *          20180731 IMCT                IMCT                                                                                                                    WMF1807315.TXT
MDEUJ7268366201808                D89828070100PT4U20180804000030SPEAKER ASM                   M IMCTM S0FL05 TNTH  09020IMCT  S0 PTB  00004                    2100 SR        000000000000 DENSO TEN (THAILAND)18020UU0101101                                                                                                                              *          20180731 IMCT                IMCT                                                                                                                    WMF1807315.TXT
MDEUJ7268367201808                D89828070200PV4U20180804000030SPEAKER ASM                   M IMCTM S0FR05 TNTH  09020IMCT  S0 PTB  00005                    0230 SR        000000000000 DENSO TEN (THAILAND)18049ZU0070070                                                                                                                              *          20180731 IMCT                IMCT                                                                                                                    WMF1807315.TXT
MDEUJ7268368201808                D89828070200PV4U20180804000030SPEAKER ASM                   M IMCTM S0FR05 TNTH  09020IMCT  S0 PTB  00005                    1300 SR        000000000000 DENSO TEN (THAILAND)18030TU0004004                                                                                                                              *          20180731 IMCT                IMCT                                                                                                                    WMF1807315.TXT
MDEUJ7268369201808                D89828070200PV4U20180804000030SPEAKER ASM                   M IMCTM S0FR05 TNTH  09020IMCT  S0 PTB  00005                    2100 SR        000000000000 DENSO TEN (THAILAND)18020UU0101101                                                                                                                              *          20180731 IMCT                IMCT                                                                                                                    WMF1807315.TXT
MDEUJ7268370201808                D89828070300PT4U20180804000030SPEAKER ASM                   M IMCTM S9TS02 TNTH  09020IMCT  S9 PTB  00015                    0230 SR        000000000000 DENSO TEN (THAILAND)18049ZU0070070                                                                                                                              *          20180731 IMCT                IMCT                                                                                                                    WMF1807315.TXT
MDEUJ7268371201808                D89828070300PT4U20180804000030SPEAKER ASM                   M IMCTM S9TS02 TNTH  09020IMCT  S9 PTB  00015                    1300 SR        000000000000 DENSO TEN (THAILAND)18030TU0004004                                                                                                                              *          20180731 IMCT                IMCT                                                                                                                    WMF1807315.TXT
MDEUJ7268372201808                D89828070300PT4U20180804000030SPEAKER ASM                   M IMCTM S9TS02 TNTH  09020IMCT  S9 PTB  00015                    2100 SR        000000000000 DENSO TEN (THAILAND)18020UU0101101                                                                                                                              *          20180731 IMCT                IMCT                                                                                                                    WMF1807315.TXT
