REC2018070520180705ISUZU                              74     
MDDDJ7222458201807                D89821984430PT1D20180711000030RADIO;AM/FM,CD                M IMCTM S5NC06 TNTH  09020IMCT  S5 PTB  00005                    0230 SR        000000000000 DENSO TEN (THAILAND)180LXCL0061061                                                                                                                              *          20180705 IMCT                IMCT                                                                                                                    WMF1807054.TXT
MDDDJ7222459201807                D89821984430PT1D20180711000030RADIO;AM/FM,CD                M IMCTM S5NC06 TNTH  09020IMCT  S5 PTB  00005                    0830 SR        000000000000 DENSO TEN (THAILAND)180LXEL0065065                                                                                                                              *          20180705 IMCT                IMCT                                                                                                                    WMF1807054.TXT
MDDDJ7222460201807                D89821984430PT1D20180711000060RADIO;AM/FM,CD                M IMCTM S5NC06 TNTH  09020IMCT  S5 PTB  00005                    1300 SR        000000000000 DENSO TEN (THAILAND)180LNGL0152152180LRAL0192192                                                                                                                *          20180705 IMCT                IMCT                                                                                                                    WMF1807054.TXT
MDDDJ7222461201807                D89828070100PV1D20180711000120SPEAKER ASM                   M IMCTM S5MB11 TNTH  09020IMCT  S5 PTB  00004                    0230 SR        000000000000 DENSO TEN (THAILAND)180LPGL0273273180LXCL0061061                                                                                                                *          20180705 IMCT                IMCT                                                                                                                    WMF1807054.TXT
MDDDJ7222462201807                D89828070100PV1D20180711000120SPEAKER ASM                   M IMCTM S5MB11 TNTH  09020IMCT  S5 PTB  00004                    0830 SR        000000000000 DENSO TEN (THAILAND)180LPFL0067067180LXEL0065065                                                                                                                *          20180705 IMCT                IMCT                                                                                                                    WMF1807054.TXT
MDDDJ7222463201807                D89828070100PV1D20180711000120SPEAKER ASM                   M IMCTM S5MB11 TNTH  09020IMCT  S5 PTB  00004                    1300 SR        000000000000 DENSO TEN (THAILAND)180LNGL0152152180LRAL0192192                                                                                                                *          20180705 IMCT                IMCT                                                                                                                    WMF1807054.TXT
MDDDJ7222464201807                D89828070100PV1D20180711000120SPEAKER ASM                   M IMCTM S5MB11 TNTH  09020IMCT  S5 PTB  00004                    1600 SR        000000000000 DENSO TEN (THAILAND)180LPGL0274275                                                                                                                              *          20180705 IMCT                IMCT                                                                                                                    WMF1807054.TXT
MDDDJ7222465201807                D89828070300PT1D20180711000060SPEAKER ASM                   M IMCTM S5NB082TNTH  09020IMCT  S5 PTB  00015                    0230 SR        000000000000 DENSO TEN (THAILAND)180LPGL0273273                                                                                                                              *          20180705 IMCT                IMCT                                                                                                                    WMF1807054.TXT
MDDDJ7222466201807                D89828070300PT1D20180711000060SPEAKER ASM                   M IMCTM S5NB082TNTH  09020IMCT  S5 PTB  00015                    0830 SR        000000000000 DENSO TEN (THAILAND)180LPFL0067067                                                                                                                              *          20180705 IMCT                IMCT                                                                                                                    WMF1807054.TXT
MDDDJ7222467201807                D89828070300PT1D20180711000120SPEAKER ASM                   M IMCTM S5NB082TNTH  09020IMCT  S5 PTB  00015                    1600 SR        000000000000 DENSO TEN (THAILAND)180LPGL0274275                                                                                                                              *          20180705 IMCT                IMCT                                                                                                                    WMF1807054.TXT
MDDDJ7222468201807                D89831228300PT1D20180711000030RADIO;AM/FM,CD                M IMCTM S5NC06 TNTH  09020IMCT  S5 CPB  00003                    0230 SR        000000000000 DENSO TEN (THAILAND)180LPGL0273273                                                                                                                              *          20180705 IMCT                IMCT                                                                                                                    WMF1807054.TXT
MDDDJ7222469201807                D89831228300PT1D20180711000030RADIO;AM/FM,CD                M IMCTM S5NC06 TNTH  09020IMCT  S5 CPB  00003                    0830 SR        000000000000 DENSO TEN (THAILAND)180LPFL0067067                                                                                                                              *          20180705 IMCT                IMCT                                                                                                                    WMF1807054.TXT
MDDDJ7222470201807                D89831228300PT1D20180711000060RADIO;AM/FM,CD                M IMCTM S5NC06 TNTH  09020IMCT  S5 CPB  00003                    1600 SR        000000000000 DENSO TEN (THAILAND)180LPGL0274275                                                                                                                              *          20180705 IMCT                IMCT                                                                                                                    WMF1807054.TXT
MDDUJ7209822201807                D89828070100PT4U20180710000030SPEAKER ASM                   M IMCTM S0FL05 TNTH  09020IMCT  S0 PTB  00004                    2230 SR        000000000000 DENSO TEN (THAILAND)180LUSU0117117                                                                                                                              *          20180705 IMCT                IMCT                                                                                                                    WMF1807054.TXT
MDDUJ7209823201807                D89828070100PT4U20180711000030SPEAKER ASM                   M IMCTM S0FL05 TNTH  09020IMCT  S0 PTB  00004                    0400 SR        000000000000 DENSO TEN (THAILAND)180LUTU0085085                                                                                                                              *          20180705 IMCT                IMCT                                                                                                                    WMF1807054.TXT
MDDUJ7209824201807                D89828070100PT4U20180711000030SPEAKER ASM                   M IMCTM S0FL05 TNTH  09020IMCT  S0 PTB  00004                    1300 SR        000000000000 DENSO TEN (THAILAND)180LUTU0086086                                                                                                                              *          20180705 IMCT                IMCT                                                                                                                    WMF1807054.TXT
MDDUJ7209825201807                D89828070100PT4U20180711000030SPEAKER ASM                   M IMCTM S0FL05 TNTH  09020IMCT  S0 PTB  00004                    1600 SR        000000000000 DENSO TEN (THAILAND)180LUSU0118118                                                                                                                              *          20180705 IMCT                IMCT                                                                                                                    WMF1807054.TXT
MDDUJ7209826201807                D89828070200PV4U20180710000030SPEAKER ASM                   M IMCTM S0FR05 TNTH  09020IMCT  S0 PTB  00005                    2230 SR        000000000000 DENSO TEN (THAILAND)180LUSU0117117                                                                                                                              *          20180705 IMCT                IMCT                                                                                                                    WMF1807054.TXT
MDDUJ7209827201807                D89828070200PV4U20180711000030SPEAKER ASM                   M IMCTM S0FR05 TNTH  09020IMCT  S0 PTB  00005                    0400 SR        000000000000 DENSO TEN (THAILAND)180LUTU0085085                                                                                                                              *          20180705 IMCT                IMCT                                                                                                                    WMF1807054.TXT
MDDUJ7209828201807                D89828070200PV4U20180711000030SPEAKER ASM                   M IMCTM S0FR05 TNTH  09020IMCT  S0 PTB  00005                    1300 SR        000000000000 DENSO TEN (THAILAND)180LUTU0086086                                                                                                                              *          20180705 IMCT                IMCT                                                                                                                    WMF1807054.TXT
MDDUJ7209829201807                D89828070200PV4U20180711000030SPEAKER ASM                   M IMCTM S0FR05 TNTH  09020IMCT  S0 PTB  00005                    1600 SR        000000000000 DENSO TEN (THAILAND)180LUSU0118118                                                                                                                              *          20180705 IMCT                IMCT                                                                                                                    WMF1807054.TXT
MDDUJ7209830201807                D89828070300PT4U20180710000030SPEAKER ASM                   M IMCTM S9TS02 TNTH  09020IMCT  S9 PTB  00015                    2230 SR        000000000000 DENSO TEN (THAILAND)180LUSU0117117                                                                                                                              *          20180705 IMCT                IMCT                                                                                                                    WMF1807054.TXT
MDDUJ7209831201807                D89828070300PT4U20180711000030SPEAKER ASM                   M IMCTM S9TS02 TNTH  09020IMCT  S9 PTB  00015                    0400 SR        000000000000 DENSO TEN (THAILAND)180LUTU0085085                                                                                                                              *          20180705 IMCT                IMCT                                                                                                                    WMF1807054.TXT
MDDUJ7209832201807                D89828070300PT4U20180711000030SPEAKER ASM                   M IMCTM S9TS02 TNTH  09020IMCT  S9 PTB  00015                    1300 SR        000000000000 DENSO TEN (THAILAND)180LUTU0086086                                                                                                                              *          20180705 IMCT                IMCT                                                                                                                    WMF1807054.TXT
MDDUJ7209833201807                D89828070300PT4U20180711000030SPEAKER ASM                   M IMCTM S9TS02 TNTH  09020IMCT  S9 PTB  00015                    1600 SR        000000000000 DENSO TEN (THAILAND)180LUSU0118118                                                                                                                              *          20180705 IMCT                IMCT                                                                                                                    WMF1807054.TXT
MDEDJ7224903201807                D89828070100PV1D20180710000060SPEAKER ASM                   M IMCTM S5MB11 TNTH  09020IMCT  S5 PTB  00004                    2230 SR        000000000000 DENSO TEN (THAILAND)17047RL0012013                                                                                                                              *          20180705 IMCT                IMCT                                                                                                                    WMF1807054.TXT
MDEDJ7224904201807                D89828070100PV1D20180711000060SPEAKER ASM                   M IMCTM S5MB11 TNTH  09020IMCT  S5 PTB  00004                    0400 SR        000000000000 DENSO TEN (THAILAND)17046QL0050051                                                                                                                              *          20180705 IMCT                IMCT                                                                                                                    WMF1807054.TXT
MDEDJ7224905201807                D89828070100PV1D20180711000030SPEAKER ASM                   M IMCTM S5MB11 TNTH  09020IMCT  S5 PTB  00004                    1030 SR        000000000000 DENSO TEN (THAILAND)17033QL0072072                                                                                                                              *          20180705 IMCT                IMCT                                                                                                                    WMF1807054.TXT
MDEDJ7224906201807                D89828070100PV1D20180711000030SPEAKER ASM                   M IMCTM S5MB11 TNTH  09020IMCT  S5 PTB  00004                    1300 SR        000000000000 DENSO TEN (THAILAND)17033QL0073073                                                                                                                              *          20180705 IMCT                IMCT                                                                                                                    WMF1807054.TXT
MDEDJ7224907201807                D89828070100PV1D20180711000060SPEAKER ASM                   M IMCTM S5MB11 TNTH  09020IMCT  S5 PTB  00004                    1600 SR        000000000000 DENSO TEN (THAILAND)18005XL0005006                                                                                                                              *          20180705 IMCT                IMCT                                                                                                                    WMF1807054.TXT
MDEDJ7224908201807                D89828070100PV1D20180711000060SPEAKER ASM                   M IMCTM S5MB11 TNTH  09020IMCT  S5 PTB  00004                    2100 SR        000000000000 DENSO TEN (THAILAND)18079UL000800818084UL0007007                                                                                                                *          20180705 IMCT                IMCT                                                                                                                    WMF1807054.TXT
MDEDJ7224909201807                D89828070100PV4D20180711000030SPEAKER ASM                   M IMCTM S0FL05 TNTH  09020IMCT  S0 PTB  00004                    0400 SR        000000000000 DENSO TEN (THAILAND)18098UU0022022                                                                                                                              *          20180705 IMCT                IMCT                                                                                                                    WMF1807054.TXT
MDEDJ7224910201807                D89828070100PV4D20180711000030SPEAKER ASM                   M IMCTM S0FL05 TNTH  09020IMCT  S0 PTB  00004                    0830 SR        000000000000 DENSO TEN (THAILAND)18063UU0034034                                                                                                                              *          20180705 IMCT                IMCT                                                                                                                    WMF1807054.TXT
MDEDJ7224911201807                D89828070100PV4D20180711000030SPEAKER ASM                   M IMCTM S0FL05 TNTH  09020IMCT  S0 PTB  00004                    1600 SR        000000000000 DENSO TEN (THAILAND)18028VU0003003                                                                                                                              *          20180705 IMCT                IMCT                                                                                                                    WMF1807054.TXT
MDEDJ7224912201807                D89828070100PV4D20180711000030SPEAKER ASM                   M IMCTM S0FL05 TNTH  09020IMCT  S0 PTB  00004                    2100 SR        000000000000 DENSO TEN (THAILAND)18052XU0007007                                                                                                                              *          20180705 IMCT                IMCT                                                                                                                    WMF1807054.TXT
MDEDJ7224913201807                D89828070200PV1D20180710000060SPEAKER ASM                   M IMCTM S5MA14 TNTH  09020IMCT  S5 PTB  00005                    2230 SR        000000000000 DENSO TEN (THAILAND)17047RL0012013                                                                                                                              *          20180705 IMCT                IMCT                                                                                                                    WMF1807054.TXT
MDEDJ7224914201807                D89828070200PV1D20180711000060SPEAKER ASM                   M IMCTM S5MA14 TNTH  09020IMCT  S5 PTB  00005                    0400 SR        000000000000 DENSO TEN (THAILAND)17046QL0050051                                                                                                                              *          20180705 IMCT                IMCT                                                                                                                    WMF1807054.TXT
MDEDJ7224915201807                D89828070200PV1D20180711000030SPEAKER ASM                   M IMCTM S5MA14 TNTH  09020IMCT  S5 PTB  00005                    1030 SR        000000000000 DENSO TEN (THAILAND)17033QL0072072                                                                                                                              *          20180705 IMCT                IMCT                                                                                                                    WMF1807054.TXT
MDEDJ7224916201807                D89828070200PV1D20180711000030SPEAKER ASM                   M IMCTM S5MA14 TNTH  09020IMCT  S5 PTB  00005                    1300 SR        000000000000 DENSO TEN (THAILAND)17033QL0073073                                                                                                                              *          20180705 IMCT                IMCT                                                                                                                    WMF1807054.TXT
MDEDJ7224917201807                D89828070200PV1D20180711000060SPEAKER ASM                   M IMCTM S5MA14 TNTH  09020IMCT  S5 PTB  00005                    2100 SR        000000000000 DENSO TEN (THAILAND)18079UL000800818084UL0007007                                                                                                                *          20180705 IMCT                IMCT                                                                                                                    WMF1807054.TXT
MDEDJ7224918201807                D89828070200PV4D20180711000030SPEAKER ASM                   M IMCTM S0FR05 TNTH  09020IMCT  S0 PTB  00005                    0400 SR        000000000000 DENSO TEN (THAILAND)18098UU0022022                                                                                                                              *          20180705 IMCT                IMCT                                                                                                                    WMF1807054.TXT
MDEDJ7224919201807                D89828070200PV4D20180711000030SPEAKER ASM                   M IMCTM S0FR05 TNTH  09020IMCT  S0 PTB  00005                    1600 SR        000000000000 DENSO TEN (THAILAND)18028VU0003003                                                                                                                              *          20180705 IMCT                IMCT                                                                                                                    WMF1807054.TXT
MDEDJ7224920201807                D89828070200PV4D20180711000030SPEAKER ASM                   M IMCTM S0FR05 TNTH  09020IMCT  S0 PTB  00005                    2100 SR        000000000000 DENSO TEN (THAILAND)18052XU0007007                                                                                                                              *          20180705 IMCT                IMCT                                                                                                                    WMF1807054.TXT
MDEDJ7224921201807                D89828070300PT1D20180710000060SPEAKER ASM                   M IMCTM S5NB082TNTH  09020IMCT  S5 PTB  00015                    2230 SR        000000000000 DENSO TEN (THAILAND)17047RL0012013                                                                                                                              *          20180705 IMCT                IMCT                                                                                                                    WMF1807054.TXT
MDEDJ7224922201807                D89828070300PT1D20180711000060SPEAKER ASM                   M IMCTM S5NB082TNTH  09020IMCT  S5 PTB  00015                    0400 SR        000000000000 DENSO TEN (THAILAND)17046QL0050051                                                                                                                              *          20180705 IMCT                IMCT                                                                                                                    WMF1807054.TXT
MDEDJ7224923201807                D89828070300PT1D20180711000030SPEAKER ASM                   M IMCTM S5NB082TNTH  09020IMCT  S5 PTB  00015                    1030 SR        000000000000 DENSO TEN (THAILAND)17033QL0072072                                                                                                                              *          20180705 IMCT                IMCT                                                                                                                    WMF1807054.TXT
MDEDJ7224924201807                D89828070300PT1D20180711000030SPEAKER ASM                   M IMCTM S5NB082TNTH  09020IMCT  S5 PTB  00015                    1300 SR        000000000000 DENSO TEN (THAILAND)17033QL0073073                                                                                                                              *          20180705 IMCT                IMCT                                                                                                                    WMF1807054.TXT
MDEDJ7224925201807                D89828070300PT1D20180711000060SPEAKER ASM                   M IMCTM S5NB082TNTH  09020IMCT  S5 PTB  00015                    1600 SR        000000000000 DENSO TEN (THAILAND)18005XL0005006                                                                                                                              *          20180705 IMCT                IMCT                                                                                                                    WMF1807054.TXT
MDEDJ7224926201807                D89828070300PT1D20180711000060SPEAKER ASM                   M IMCTM S5NB082TNTH  09020IMCT  S5 PTB  00015                    2100 SR        000000000000 DENSO TEN (THAILAND)18079UL000800818084UL0007007                                                                                                                *          20180705 IMCT                IMCT                                                                                                                    WMF1807054.TXT
MDEDJ7224927201807                D89828070300PT4D20180711000030SPEAKER ASM                   M IMCTM S9TS02 TNTH  09020IMCT  S9 PTB  00015                    0400 SR        000000000000 DENSO TEN (THAILAND)18098UU0022022                                                                                                                              *          20180705 IMCT                IMCT                                                                                                                    WMF1807054.TXT
MDEDJ7224928201807                D89828070300PT4D20180711000030SPEAKER ASM                   M IMCTM S9TS02 TNTH  09020IMCT  S9 PTB  00015                    0830 SR        000000000000 DENSO TEN (THAILAND)18063UU0034034                                                                                                                              *          20180705 IMCT                IMCT                                                                                                                    WMF1807054.TXT
MDEDJ7224929201807                D89828070300PT4D20180711000030SPEAKER ASM                   M IMCTM S9TS02 TNTH  09020IMCT  S9 PTB  00015                    1600 SR        000000000000 DENSO TEN (THAILAND)18028VU0003003                                                                                                                              *          20180705 IMCT                IMCT                                                                                                                    WMF1807054.TXT
MDEDJ7224930201807                D89828070300PT4D20180711000030SPEAKER ASM                   M IMCTM S9TS02 TNTH  09020IMCT  S9 PTB  00015                    2100 SR        000000000000 DENSO TEN (THAILAND)18052XU0007007                                                                                                                              *          20180705 IMCT                IMCT                                                                                                                    WMF1807054.TXT
MDEDJ7224931201807                D89831229000PT1D20180710000030RADIO;AM/FM,CD                M IMCTM S5NC06 TNTH  09020IMCT  S5 PTB  00003                    2230 SR        000000000000 DENSO TEN (THAILAND)17047RL0012013                                                                                                                              *          20180705 IMCT                IMCT                                                                                                                    WMF1807054.TXT
MDEDJ7224932201807                D89831229200PT1D20180711000015RADIO;AM/FM,CD                M IMCTM S5NC06 TNTH  09020IMCT  S5 PTB  00003                    1030 SR        000000000000 DENSO TEN (THAILAND)17033QL0072072                                                                                                                              *          20180705 IMCT                IMCT                                                                                                                    WMF1807054.TXT
MDEDJ7224933201807                D89831229200PT1D20180711000015RADIO;AM/FM,CD                M IMCTM S5NC06 TNTH  09020IMCT  S5 PTB  00003                    1300 SR        000000000000 DENSO TEN (THAILAND)17033QL0073073                                                                                                                              *          20180705 IMCT                IMCT                                                                                                                    WMF1807054.TXT
MDEDJ7224934201807                D89848581800PT1D20180711000015RADIO;AM/FM CD D              M IMCTM S5NC06 TNTH  09020IMCT  S5 PTB  00003                    2100 SR        000000000000 DENSO TEN (THAILAND)18079UL0008008                                                                                                                              *          20180705 IMCT                IMCT                                                                                                                    WMF1807054.TXT
MDEDJ7224935201807                D89848581800PT4D20180711000015RADIO;AM/FM CD D              M IMCTM S9CO001TNTH  09020IMCT  S9 PTB  00003                    0400 SR        000000000000 DENSO TEN (THAILAND)18098UU0022022                                                                                                                              *          20180705 IMCT                IMCT                                                                                                                    WMF1807054.TXT
MDEDJ7224936201807                D89848581800PT4D20180711000015RADIO;AM/FM CD D              M IMCTM S9CO001TNTH  09020IMCT  S9 PTB  00003                    0830 SR        000000000000 DENSO TEN (THAILAND)18063UU0034034                                                                                                                              *          20180705 IMCT                IMCT                                                                                                                    WMF1807054.TXT
MDEUJ7211964201807                D89828070100PT4U20180711000030SPEAKER ASM                   M IMCTM S0FL05 TNTH  09020IMCT  S0 PTB  00004                    0230 SR        000000000000 DENSO TEN (THAILAND)18049ZU0064064                                                                                                                              *          20180705 IMCT                IMCT                                                                                                                    WMF1807054.TXT
MDEUJ7211965201807                D89828070100PT4U20180711000030SPEAKER ASM                   M IMCTM S0FL05 TNTH  09020IMCT  S0 PTB  00004                    1030 SR        000000000000 DENSO TEN (THAILAND)18050ZU0028028                                                                                                                              *          20180705 IMCT                IMCT                                                                                                                    WMF1807054.TXT
MDEUJ7211966201807                D89828070100PT4U20180711000030SPEAKER ASM                   M IMCTM S0FL05 TNTH  09020IMCT  S0 PTB  00004                    1300 SR        000000000000 DENSO TEN (THAILAND)18020UU0086086                                                                                                                              *          20180705 IMCT                IMCT                                                                                                                    WMF1807054.TXT
MDEUJ7211967201807                D89828070100PT4U20180711000030SPEAKER ASM                   M IMCTM S0FL05 TNTH  09020IMCT  S0 PTB  00004                    1600 SR        000000000000 DENSO TEN (THAILAND)18021UU0126126                                                                                                                              *          20180705 IMCT                IMCT                                                                                                                    WMF1807054.TXT
MDEUJ7211968201807                D89828070100PT4U20180711000030SPEAKER ASM                   M IMCTM S0FL05 TNTH  09020IMCT  S0 PTB  00004                    2230 SR        000000000000 DENSO TEN (THAILAND)18031UU0005005                                                                                                                              *          20180705 IMCT                IMCT                                                                                                                    WMF1807054.TXT
MDEUJ7211969201807                D89828070200PV4U20180711000030SPEAKER ASM                   M IMCTM S0FR05 TNTH  09020IMCT  S0 PTB  00005                    0230 SR        000000000000 DENSO TEN (THAILAND)18049ZU0064064                                                                                                                              *          20180705 IMCT                IMCT                                                                                                                    WMF1807054.TXT
MDEUJ7211970201807                D89828070200PV4U20180711000030SPEAKER ASM                   M IMCTM S0FR05 TNTH  09020IMCT  S0 PTB  00005                    1030 SR        000000000000 DENSO TEN (THAILAND)18050ZU0028028                                                                                                                              *          20180705 IMCT                IMCT                                                                                                                    WMF1807054.TXT
MDEUJ7211971201807                D89828070200PV4U20180711000030SPEAKER ASM                   M IMCTM S0FR05 TNTH  09020IMCT  S0 PTB  00005                    1300 SR        000000000000 DENSO TEN (THAILAND)18020UU0086086                                                                                                                              *          20180705 IMCT                IMCT                                                                                                                    WMF1807054.TXT
MDEUJ7211972201807                D89828070200PV4U20180711000030SPEAKER ASM                   M IMCTM S0FR05 TNTH  09020IMCT  S0 PTB  00005                    1600 SR        000000000000 DENSO TEN (THAILAND)18021UU0126126                                                                                                                              *          20180705 IMCT                IMCT                                                                                                                    WMF1807054.TXT
MDEUJ7211973201807                D89828070200PV4U20180711000030SPEAKER ASM                   M IMCTM S0FR05 TNTH  09020IMCT  S0 PTB  00005                    2230 SR        000000000000 DENSO TEN (THAILAND)18031UU0005005                                                                                                                              *          20180705 IMCT                IMCT                                                                                                                    WMF1807054.TXT
MDEUJ7211974201807                D89828070300PT4U20180711000030SPEAKER ASM                   M IMCTM S9TS02 TNTH  09020IMCT  S9 PTB  00015                    0230 SR        000000000000 DENSO TEN (THAILAND)18049ZU0064064                                                                                                                              *          20180705 IMCT                IMCT                                                                                                                    WMF1807054.TXT
MDEUJ7211975201807                D89828070300PT4U20180711000030SPEAKER ASM                   M IMCTM S9TS02 TNTH  09020IMCT  S9 PTB  00015                    1030 SR        000000000000 DENSO TEN (THAILAND)18050ZU0028028                                                                                                                              *          20180705 IMCT                IMCT                                                                                                                    WMF1807054.TXT
MDEUJ7211976201807                D89828070300PT4U20180711000030SPEAKER ASM                   M IMCTM S9TS02 TNTH  09020IMCT  S9 PTB  00015                    1300 SR        000000000000 DENSO TEN (THAILAND)18020UU0086086                                                                                                                              *          20180705 IMCT                IMCT                                                                                                                    WMF1807054.TXT
MDEUJ7211977201807                D89828070300PT4U20180711000030SPEAKER ASM                   M IMCTM S9TS02 TNTH  09020IMCT  S9 PTB  00015                    1600 SR        000000000000 DENSO TEN (THAILAND)18021UU0126126                                                                                                                              *          20180705 IMCT                IMCT                                                                                                                    WMF1807054.TXT
MDEUJ7211978201807                D89828070300PT4U20180711000030SPEAKER ASM                   M IMCTM S9TS02 TNTH  09020IMCT  S9 PTB  00015                    2230 SR        000000000000 DENSO TEN (THAILAND)18031UU0005005                                                                                                                              *          20180705 IMCT                IMCT                                                                                                                    WMF1807054.TXT
