REC2018080620180806ISUZU                              51     
MDDDJ8227028201808                D89821984430PT1D20180809000030RADIO;AM/FM,CD                M IMCTM S5NC06 TNTH  09020IMCT  S5 PTB  00005                    2230 SR        000000000000 DENSO TEN (THAILAND)180LRBL0052052                                                                                                                              *          20180806 IMCT                IMCT                                                                                                                    WMF1808064.TXT
MDDDJ8227029201808                D89821984430PT1D20180810000030RADIO;AM/FM,CD                M IMCTM S5NC06 TNTH  09020IMCT  S5 PTB  00005                    0230 SR        000000000000 DENSO TEN (THAILAND)180LNGL0179179                                                                                                                              *          20180806 IMCT                IMCT                                                                                                                    WMF1808064.TXT
MDDDJ8227030201808                D89821984430PT1D20180810000030RADIO;AM/FM,CD                M IMCTM S5NC06 TNTH  09020IMCT  S5 PTB  00005                    0400 SR        000000000000 DENSO TEN (THAILAND)180LRAL0217217                                                                                                                              *          20180806 IMCT                IMCT                                                                                                                    WMF1808064.TXT
MDDDJ8227031201808                D89821984430PT1D20180810000030RADIO;AM/FM,CD                M IMCTM S5NC06 TNTH  09020IMCT  S5 PTB  00005                    0830 SR        000000000000 DENSO TEN (THAILAND)180LXCL0076076                                                                                                                              *          20180806 IMCT                IMCT                                                                                                                    WMF1808064.TXT
MDDDJ8227032201808                D89828070100PV1D20180809000060SPEAKER ASM                   M IMCTM S5MB11 TNTH  09020IMCT  S5 PTB  00004                    2230 SR        000000000000 DENSO TEN (THAILAND)180LRBL0052052                                                                                                                              *          20180806 IMCT                IMCT                                                                                                                    WMF1808064.TXT
MDDDJ8227033201808                D89828070100PV1D20180810000060SPEAKER ASM                   M IMCTM S5MB11 TNTH  09020IMCT  S5 PTB  00004                    0230 SR        000000000000 DENSO TEN (THAILAND)180LNGL0179179                                                                                                                              *          20180806 IMCT                IMCT                                                                                                                    WMF1808064.TXT
MDDDJ8227034201808                D89828070100PV1D20180810000060SPEAKER ASM                   M IMCTM S5MB11 TNTH  09020IMCT  S5 PTB  00004                    0400 SR        000000000000 DENSO TEN (THAILAND)180LRAL0217217                                                                                                                              *          20180806 IMCT                IMCT                                                                                                                    WMF1808064.TXT
MDDDJ8227035201808                D89828070100PV1D20180810000060SPEAKER ASM                   M IMCTM S5MB11 TNTH  09020IMCT  S5 PTB  00004                    0830 SR        000000000000 DENSO TEN (THAILAND)180LXCL0076076                                                                                                                              *          20180806 IMCT                IMCT                                                                                                                    WMF1808064.TXT
MDDDJ8227036201808                D89828070100PV1D20180810000060SPEAKER ASM                   M IMCTM S5MB11 TNTH  09020IMCT  S5 PTB  00004                    1030 SR        000000000000 DENSO TEN (THAILAND)180LPCL0079079                                                                                                                              *          20180806 IMCT                IMCT                                                                                                                    WMF1808064.TXT
MDDDJ8227037201808                D89828070100PV1D20180810000060SPEAKER ASM                   M IMCTM S5MB11 TNTH  09020IMCT  S5 PTB  00004                    1300 SR        000000000000 DENSO TEN (THAILAND)180LPGL0302302                                                                                                                              *          20180806 IMCT                IMCT                                                                                                                    WMF1808064.TXT
MDDDJ8227038201808                D89828070100PV1D20180810000060SPEAKER ASM                   M IMCTM S5MB11 TNTH  09020IMCT  S5 PTB  00004                    1600 SR        000000000000 DENSO TEN (THAILAND)180LXAL0041041                                                                                                                              *          20180806 IMCT                IMCT                                                                                                                    WMF1808064.TXT
MDDDJ8227039201808                D89828070100PV1D20180810000060SPEAKER ASM                   M IMCTM S5MB11 TNTH  09020IMCT  S5 PTB  00004                    2100 SR        000000000000 DENSO TEN (THAILAND)180LPPL0011011                                                                                                                              *          20180806 IMCT                IMCT                                                                                                                    WMF1808064.TXT
MDDDJ8227040201808                D89828070300PT1D20180810000060SPEAKER ASM                   M IMCTM S5NB082TNTH  09020IMCT  S5 PTB  00015                    1030 SR        000000000000 DENSO TEN (THAILAND)180LPCL0079079                                                                                                                              *          20180806 IMCT                IMCT                                                                                                                    WMF1808064.TXT
MDDDJ8227041201808                D89828070300PT1D20180810000060SPEAKER ASM                   M IMCTM S5NB082TNTH  09020IMCT  S5 PTB  00015                    1300 SR        000000000000 DENSO TEN (THAILAND)180LPGL0302302                                                                                                                              *          20180806 IMCT                IMCT                                                                                                                    WMF1808064.TXT
MDDDJ8227042201808                D89828070300PT1D20180810000060SPEAKER ASM                   M IMCTM S5NB082TNTH  09020IMCT  S5 PTB  00015                    2100 SR        000000000000 DENSO TEN (THAILAND)180LPPL0011011                                                                                                                              *          20180806 IMCT                IMCT                                                                                                                    WMF1808064.TXT
MDDDJ8227043201808                D89831228300PT1D20180810000030RADIO;AM/FM,CD                M IMCTM S5NC06 TNTH  09020IMCT  S5 CPB  00003                    1030 SR        000000000000 DENSO TEN (THAILAND)180LPCL0079079                                                                                                                              *          20180806 IMCT                IMCT                                                                                                                    WMF1808064.TXT
MDDDJ8227044201808                D89831228300PT1D20180810000030RADIO;AM/FM,CD                M IMCTM S5NC06 TNTH  09020IMCT  S5 CPB  00003                    1300 SR        000000000000 DENSO TEN (THAILAND)180LPGL0302302                                                                                                                              *          20180806 IMCT                IMCT                                                                                                                    WMF1808064.TXT
MDDUJ8210765201808                D89828070100PT4U20180809000030SPEAKER ASM                   M IMCTM S0FL05 TNTH  09020IMCT  S0 PTB  00004                    2230 SR        000000000000 DENSO TEN (THAILAND)180LUTU0108108                                                                                                                              *          20180806 IMCT                IMCT                                                                                                                    WMF1808064.TXT
MDDUJ8210766201808                D89828070100PT4U20180810000030SPEAKER ASM                   M IMCTM S0FL05 TNTH  09020IMCT  S0 PTB  00004                    1300 SR        000000000000 DENSO TEN (THAILAND)180LUSU0149149                                                                                                                              *          20180806 IMCT                IMCT                                                                                                                    WMF1808064.TXT
MDDUJ8210767201808                D89828070200PV4U20180809000030SPEAKER ASM                   M IMCTM S0FR05 TNTH  09020IMCT  S0 PTB  00005                    2230 SR        000000000000 DENSO TEN (THAILAND)180LUTU0108108                                                                                                                              *          20180806 IMCT                IMCT                                                                                                                    WMF1808064.TXT
MDDUJ8210768201808                D89828070200PV4U20180810000030SPEAKER ASM                   M IMCTM S0FR05 TNTH  09020IMCT  S0 PTB  00005                    1300 SR        000000000000 DENSO TEN (THAILAND)180LUSU0149149                                                                                                                              *          20180806 IMCT                IMCT                                                                                                                    WMF1808064.TXT
MDDUJ8210769201808                D89828070300PT4U20180809000030SPEAKER ASM                   M IMCTM S9TS02 TNTH  09020IMCT  S9 PTB  00015                    2230 SR        000000000000 DENSO TEN (THAILAND)180LUTU0108108                                                                                                                              *          20180806 IMCT                IMCT                                                                                                                    WMF1808064.TXT
MDDUJ8210770201808                D89828070300PT4U20180810000030SPEAKER ASM                   M IMCTM S9TS02 TNTH  09020IMCT  S9 PTB  00015                    1300 SR        000000000000 DENSO TEN (THAILAND)180LUSU0149149                                                                                                                              *          20180806 IMCT                IMCT                                                                                                                    WMF1808064.TXT
MDEDJ8233491201808                D89828070100PV1D20180809000030SPEAKER ASM                   M IMCTM S5MB11 TNTH  09020IMCT  S5 PTB  00004                    2230 SR        000000000000 DENSO TEN (THAILAND)17050RL0044044                                                                                                                              *          20180806 IMCT                IMCT                                                                                                                    WMF1808064.TXT
MDEDJ8233492201808                D89828070100PV1D20180810000030SPEAKER ASM                   M IMCTM S5MB11 TNTH  09020IMCT  S5 PTB  00004                    0230 SR        000000000000 DENSO TEN (THAILAND)17050RL0045045                                                                                                                              *          20180806 IMCT                IMCT                                                                                                                    WMF1808064.TXT
MDEDJ8233493201808                D89828070100PV1D20180810000030SPEAKER ASM                   M IMCTM S5MB11 TNTH  09020IMCT  S5 PTB  00004                    0400 SR        000000000000 DENSO TEN (THAILAND)17041PL0089089                                                                                                                              *          20180806 IMCT                IMCT                                                                                                                    WMF1808064.TXT
MDEDJ8233494201808                D89828070100PV1D20180810000030SPEAKER ASM                   M IMCTM S5MB11 TNTH  09020IMCT  S5 PTB  00004                    0830 SR        000000000000 DENSO TEN (THAILAND)17046QL0052052                                                                                                                              *          20180806 IMCT                IMCT                                                                                                                    WMF1808064.TXT
MDEDJ8233495201808                D89828070100PV1D20180810000060SPEAKER ASM                   M IMCTM S5MB11 TNTH  09020IMCT  S5 PTB  00004                    1300 SR        000000000000 DENSO TEN (THAILAND)18007ZL0133134                                                                                                                              *          20180806 IMCT                IMCT                                                                                                                    WMF1808064.TXT
MDEDJ8233496201808                D89828070100PV4D20180810000030SPEAKER ASM                   M IMCTM S0FL05 TNTH  09020IMCT  S0 PTB  00004                    0400 SR        000000000000 DENSO TEN (THAILAND)18010ZU0052052                                                                                                                              *          20180806 IMCT                IMCT                                                                                                                    WMF1808064.TXT
MDEDJ8233497201808                D89828070100PV4D20180810000030SPEAKER ASM                   M IMCTM S0FL05 TNTH  09020IMCT  S0 PTB  00004                    1030 SR        000000000000 DENSO TEN (THAILAND)18010ZU0053053                                                                                                                              *          20180806 IMCT                IMCT                                                                                                                    WMF1808064.TXT
MDEDJ8233498201808                D89828070100PV4D20180810000060SPEAKER ASM                   M IMCTM S0FL05 TNTH  09020IMCT  S0 PTB  00004                    1300 SR        000000000000 DENSO TEN (THAILAND)18010ZU005405418065UU0017017                                                                                                                *          20180806 IMCT                IMCT                                                                                                                    WMF1808064.TXT
MDEDJ8233499201808                D89828070200PV1D20180809000030SPEAKER ASM                   M IMCTM S5MA14 TNTH  09020IMCT  S5 PTB  00005                    2230 SR        000000000000 DENSO TEN (THAILAND)17050RL0044044                                                                                                                              *          20180806 IMCT                IMCT                                                                                                                    WMF1808064.TXT
MDEDJ8233500201808                D89828070200PV1D20180810000030SPEAKER ASM                   M IMCTM S5MA14 TNTH  09020IMCT  S5 PTB  00005                    0230 SR        000000000000 DENSO TEN (THAILAND)17050RL0045045                                                                                                                              *          20180806 IMCT                IMCT                                                                                                                    WMF1808064.TXT
MDEDJ8233501201808                D89828070200PV1D20180810000030SPEAKER ASM                   M IMCTM S5MA14 TNTH  09020IMCT  S5 PTB  00005                    0830 SR        000000000000 DENSO TEN (THAILAND)17046QL0052052                                                                                                                              *          20180806 IMCT                IMCT                                                                                                                    WMF1808064.TXT
MDEDJ8233502201808                D89828070200PV4D20180810000030SPEAKER ASM                   M IMCTM S0FR05 TNTH  09020IMCT  S0 PTB  00005                    1300 SR        000000000000 DENSO TEN (THAILAND)18065UU0017017                                                                                                                              *          20180806 IMCT                IMCT                                                                                                                    WMF1808064.TXT
MDEDJ8233503201808                D89828070300PT1D20180809000030SPEAKER ASM                   M IMCTM S5NB082TNTH  09020IMCT  S5 PTB  00015                    2230 SR        000000000000 DENSO TEN (THAILAND)17050RL0044044                                                                                                                              *          20180806 IMCT                IMCT                                                                                                                    WMF1808064.TXT
MDEDJ8233504201808                D89828070300PT1D20180810000030SPEAKER ASM                   M IMCTM S5NB082TNTH  09020IMCT  S5 PTB  00015                    0230 SR        000000000000 DENSO TEN (THAILAND)17050RL0045045                                                                                                                              *          20180806 IMCT                IMCT                                                                                                                    WMF1808064.TXT
MDEDJ8233505201808                D89828070300PT1D20180810000030SPEAKER ASM                   M IMCTM S5NB082TNTH  09020IMCT  S5 PTB  00015                    0830 SR        000000000000 DENSO TEN (THAILAND)17046QL0052052                                                                                                                              *          20180806 IMCT                IMCT                                                                                                                    WMF1808064.TXT
MDEDJ8233506201808                D89828070300PT4D20180810000030SPEAKER ASM                   M IMCTM S9TS02 TNTH  09020IMCT  S9 PTB  00015                    1300 SR        000000000000 DENSO TEN (THAILAND)18065UU0017017                                                                                                                              *          20180806 IMCT                IMCT                                                                                                                    WMF1808064.TXT
MDEDJ8233507201808                D89829645410PT1D20180809000015RADIO;ASM DVD                 M IMCTM S5NC06 TNTH  09020IMCT  S5 PTB  00003                    2230 SR        000000000000 DENSO TEN (THAILAND)17050RL0044044                                                                                                                              *          20180806 IMCT                IMCT                                                                                                                    WMF1808064.TXT
MDEDJ8233508201808                D89829645410PT1D20180810000015RADIO;ASM DVD                 M IMCTM S5NC06 TNTH  09020IMCT  S5 PTB  00003                    0230 SR        000000000000 DENSO TEN (THAILAND)17050RL0045045                                                                                                                              *          20180806 IMCT                IMCT                                                                                                                    WMF1808064.TXT
MDEDJ8233509201808                D89848581800PT4D20180810000015RADIO;AM/FM CD D              M IMCTM S9CO001TNTH  09020IMCT  S9 PTB  00003                    1300 SR        000000000000 DENSO TEN (THAILAND)18065UU0017017                                                                                                                              *          20180806 IMCT                IMCT                                                                                                                    WMF1808064.TXT
MDEUJ8209915201808                D89828070100PT4U20180810000030SPEAKER ASM                   M IMCTM S0FL05 TNTH  09020IMCT  S0 PTB  00004                    0230 SR        000000000000 DENSO TEN (THAILAND)18021UU0148148                                                                                                                              *          20180806 IMCT                IMCT                                                                                                                    WMF1808064.TXT
MDEUJ8209916201808                D89828070100PT4U20180810000030SPEAKER ASM                   M IMCTM S0FL05 TNTH  09020IMCT  S0 PTB  00004                    0400 SR        000000000000 DENSO TEN (THAILAND)18020UU0103103                                                                                                                              *          20180806 IMCT                IMCT                                                                                                                    WMF1808064.TXT
MDEUJ8209917201808                D89828070100PT4U20180810000030SPEAKER ASM                   M IMCTM S0FL05 TNTH  09020IMCT  S0 PTB  00004                    2100 SR        000000000000 DENSO TEN (THAILAND)18050ZU0031031                                                                                                                              *          20180806 IMCT                IMCT                                                                                                                    WMF1808064.TXT
MDEUJ8209918201808                D89828070200PV4U20180810000030SPEAKER ASM                   M IMCTM S0FR05 TNTH  09020IMCT  S0 PTB  00005                    0230 SR        000000000000 DENSO TEN (THAILAND)18021UU0148148                                                                                                                              *          20180806 IMCT                IMCT                                                                                                                    WMF1808064.TXT
MDEUJ8209919201808                D89828070200PV4U20180810000030SPEAKER ASM                   M IMCTM S0FR05 TNTH  09020IMCT  S0 PTB  00005                    0400 SR        000000000000 DENSO TEN (THAILAND)18020UU0103103                                                                                                                              *          20180806 IMCT                IMCT                                                                                                                    WMF1808064.TXT
MDEUJ8209920201808                D89828070200PV4U20180810000030SPEAKER ASM                   M IMCTM S0FR05 TNTH  09020IMCT  S0 PTB  00005                    2100 SR        000000000000 DENSO TEN (THAILAND)18050ZU0031031                                                                                                                              *          20180806 IMCT                IMCT                                                                                                                    WMF1808064.TXT
MDEUJ8209921201808                D89828070300PT4U20180810000030SPEAKER ASM                   M IMCTM S9TS02 TNTH  09020IMCT  S9 PTB  00015                    0230 SR        000000000000 DENSO TEN (THAILAND)18021UU0148148                                                                                                                              *          20180806 IMCT                IMCT                                                                                                                    WMF1808064.TXT
MDEUJ8209922201808                D89828070300PT4U20180810000030SPEAKER ASM                   M IMCTM S9TS02 TNTH  09020IMCT  S9 PTB  00015                    0400 SR        000000000000 DENSO TEN (THAILAND)18020UU0103103                                                                                                                              *          20180806 IMCT                IMCT                                                                                                                    WMF1808064.TXT
MDEUJ8209923201808                D89828070300PT4U20180810000030SPEAKER ASM                   M IMCTM S9TS02 TNTH  09020IMCT  S9 PTB  00015                    2100 SR        000000000000 DENSO TEN (THAILAND)18050ZU0031031                                                                                                                              *          20180806 IMCT                IMCT                                                                                                                    WMF1808064.TXT
