REC2018082720180827ISUZU                              56     
MDDDJ8296666201808                D89821984430PT1D20180831000030RADIO;AM/FM,CD                M IMCTM S5NC06 TNTH  09020IMCT  S5 PTB  00005                    0230 SR        000000000000 DENSO TEN (THAILAND)180LRAL0240240                                                                                                                              *          20180827 IMCT                IMCT                                                                                                                    WMF1808275.TXT
MDDDJ8296667201808                D89821984430PT1D20180831000030RADIO;AM/FM,CD                M IMCTM S5NC06 TNTH  09020IMCT  S5 PTB  00005                    0400 SR        000000000000 DENSO TEN (THAILAND)180LXCL0081081                                                                                                                              *          20180827 IMCT                IMCT                                                                                                                    WMF1808275.TXT
MDDDJ8296668201808                D89821984430PT1D20180831000030RADIO;AM/FM,CD                M IMCTM S5NC06 TNTH  09020IMCT  S5 PTB  00005                    0830 SR        000000000000 DENSO TEN (THAILAND)180LPAL0213213                                                                                                                              *          20180827 IMCT                IMCT                                                                                                                    WMF1808275.TXT
MDDDJ8296669201808                D89821984430PT1D20180831000030RADIO;AM/FM,CD                M IMCTM S5NC06 TNTH  09020IMCT  S5 PTB  00005                    1030 SR        000000000000 DENSO TEN (THAILAND)180LRAL0241241                                                                                                                              *          20180827 IMCT                IMCT                                                                                                                    WMF1808275.TXT
MDDDJ8296670201808                D89821984430PT1D20180831000060RADIO;AM/FM,CD                M IMCTM S5NC06 TNTH  09020IMCT  S5 PTB  00005                    1300 SR        000000000000 DENSO TEN (THAILAND)180LRAL0242242180LXDL0008008                                                                                                                *          20180827 IMCT                IMCT                                                                                                                    WMF1808275.TXT
MDDDJ8296671201808                D89821984430PT1D20180831000030RADIO;AM/FM,CD                M IMCTM S5NC06 TNTH  09020IMCT  S5 PTB  00005                    2100 SR        000000000000 DENSO TEN (THAILAND)180LRAL0243243                                                                                                                              *          20180827 IMCT                IMCT                                                                                                                    WMF1808275.TXT
MDDDJ8296672201808                D89828070100PV1D20180831000060SPEAKER ASM                   M IMCTM S5MB11 TNTH  09020IMCT  S5 PTB  00004                    0230 SR        000000000000 DENSO TEN (THAILAND)180LRAL0240240                                                                                                                              *          20180827 IMCT                IMCT                                                                                                                    WMF1808275.TXT
MDDDJ8296673201808                D89828070100PV1D20180831000060SPEAKER ASM                   M IMCTM S5MB11 TNTH  09020IMCT  S5 PTB  00004                    0400 SR        000000000000 DENSO TEN (THAILAND)180LXCL0081081                                                                                                                              *          20180827 IMCT                IMCT                                                                                                                    WMF1808275.TXT
MDDDJ8296674201808                D89828070100PV1D20180831000060SPEAKER ASM                   M IMCTM S5MB11 TNTH  09020IMCT  S5 PTB  00004                    0830 SR        000000000000 DENSO TEN (THAILAND)180LPAL0213213                                                                                                                              *          20180827 IMCT                IMCT                                                                                                                    WMF1808275.TXT
MDDDJ8296675201808                D89828070100PV1D20180831000060SPEAKER ASM                   M IMCTM S5MB11 TNTH  09020IMCT  S5 PTB  00004                    1030 SR        000000000000 DENSO TEN (THAILAND)180LRAL0241241                                                                                                                              *          20180827 IMCT                IMCT                                                                                                                    WMF1808275.TXT
MDDDJ8296676201808                D89828070100PV1D20180831000120SPEAKER ASM                   M IMCTM S5MB11 TNTH  09020IMCT  S5 PTB  00004                    1300 SR        000000000000 DENSO TEN (THAILAND)180LRAL0242242180LXDL0008008                                                                                                                *          20180827 IMCT                IMCT                                                                                                                    WMF1808275.TXT
MDDDJ8296677201808                D89828070100PV1D20180831000060SPEAKER ASM                   M IMCTM S5MB11 TNTH  09020IMCT  S5 PTB  00004                    2100 SR        000000000000 DENSO TEN (THAILAND)180LRAL0243243                                                                                                                              *          20180827 IMCT                IMCT                                                                                                                    WMF1808275.TXT
MDDUJ8239297201808                D89828070100PT4U20180831000030SPEAKER ASM                   M IMCTM S0FL05 TNTH  09020IMCT  S0 PTB  00004                    0230 SR        000000000000 DENSO TEN (THAILAND)180LUSU0162162                                                                                                                              *          20180827 IMCT                IMCT                                                                                                                    WMF1808275.TXT
MDDUJ8239298201808                D89828070100PT4U20180831000030SPEAKER ASM                   M IMCTM S0FL05 TNTH  09020IMCT  S0 PTB  00004                    1030 SR        000000000000 DENSO TEN (THAILAND)180LUTU0116116                                                                                                                              *          20180827 IMCT                IMCT                                                                                                                    WMF1808275.TXT
MDDUJ8239299201808                D89828070100PT4U20180831000030SPEAKER ASM                   M IMCTM S0FL05 TNTH  09020IMCT  S0 PTB  00004                    1300 SR        000000000000 DENSO TEN (THAILAND)180LUQU0065065                                                                                                                              *          20180827 IMCT                IMCT                                                                                                                    WMF1808275.TXT
MDDUJ8239300201808                D89828070200PV4U20180831000030SPEAKER ASM                   M IMCTM S0FR05 TNTH  09020IMCT  S0 PTB  00005                    0230 SR        000000000000 DENSO TEN (THAILAND)180LUSU0162162                                                                                                                              *          20180827 IMCT                IMCT                                                                                                                    WMF1808275.TXT
MDDUJ8239301201808                D89828070200PV4U20180831000030SPEAKER ASM                   M IMCTM S0FR05 TNTH  09020IMCT  S0 PTB  00005                    1030 SR        000000000000 DENSO TEN (THAILAND)180LUTU0116116                                                                                                                              *          20180827 IMCT                IMCT                                                                                                                    WMF1808275.TXT
MDDUJ8239302201808                D89828070200PV4U20180831000030SPEAKER ASM                   M IMCTM S0FR05 TNTH  09020IMCT  S0 PTB  00005                    1300 SR        000000000000 DENSO TEN (THAILAND)180LUQU0065065                                                                                                                              *          20180827 IMCT                IMCT                                                                                                                    WMF1808275.TXT
MDDUJ8239303201808                D89828070300PT4U20180831000030SPEAKER ASM                   M IMCTM S9TS02 TNTH  09020IMCT  S9 PTB  00015                    0230 SR        000000000000 DENSO TEN (THAILAND)180LUSU0162162                                                                                                                              *          20180827 IMCT                IMCT                                                                                                                    WMF1808275.TXT
MDDUJ8239304201808                D89828070300PT4U20180831000030SPEAKER ASM                   M IMCTM S9TS02 TNTH  09020IMCT  S9 PTB  00015                    1030 SR        000000000000 DENSO TEN (THAILAND)180LUTU0116116                                                                                                                              *          20180827 IMCT                IMCT                                                                                                                    WMF1808275.TXT
MDDUJ8239305201808                D89828070300PT4U20180831000030SPEAKER ASM                   M IMCTM S9TS02 TNTH  09020IMCT  S9 PTB  00015                    1300 SR        000000000000 DENSO TEN (THAILAND)180LUQU0065065                                                                                                                              *          20180827 IMCT                IMCT                                                                                                                    WMF1808275.TXT
MDDUJ8239306201808                D89848584200PT4U20180831000015RADIO;AM/FM CD D              M IMCTM S9CO001TNTH  09020IMCT  S9 PTB  00003                    1300 SR        000000000000 DENSO TEN (THAILAND)180LUQU0065065                                                                                                                              *          20180827 IMCT                IMCT                                                                                                                    WMF1808275.TXT
MDEDJ8323924201808                D89828070100PV1D20180830000060SPEAKER ASM                   M IMCTM S5MB11 TNTH  09020IMCT  S5 PTB  00004                    2230 SR        000000000000 DENSO TEN (THAILAND)18029XL000800818064UL0016016                                                                                                                *          20180827 IMCT                IMCT                                                                                                                    WMF1808275.TXT
MDEDJ8323925201808                D89828070100PV1D20180831000030SPEAKER ASM                   M IMCTM S5MB11 TNTH  09020IMCT  S5 PTB  00004                    0230 SR        000000000000 DENSO TEN (THAILAND)18064UL0017017                                                                                                                              *          20180827 IMCT                IMCT                                                                                                                    WMF1808275.TXT
MDEDJ8323926201808                D89828070100PV1D20180831000030SPEAKER ASM                   M IMCTM S5MB11 TNTH  09020IMCT  S5 PTB  00004                    0400 SR        000000000000 DENSO TEN (THAILAND)18005XL0011011                                                                                                                              *          20180827 IMCT                IMCT                                                                                                                    WMF1808275.TXT
MDEDJ8323927201808                D89828070100PV1D20180831000030SPEAKER ASM                   M IMCTM S5MB11 TNTH  09020IMCT  S5 PTB  00004                    1030 SR        000000000000 DENSO TEN (THAILAND)18076XL0011011                                                                                                                              *          20180827 IMCT                IMCT                                                                                                                    WMF1808275.TXT
MDEDJ8323928201808                D89828070100PV1D20180831000060SPEAKER ASM                   M IMCTM S5MB11 TNTH  09020IMCT  S5 PTB  00004                    1600 SR        000000000000 DENSO TEN (THAILAND)17046RL000900918082WL0023023                                                                                                                *          20180827 IMCT                IMCT                                                                                                                    WMF1808275.TXT
MDEDJ8323929201808                D89828070100PV1D20180831000030SPEAKER ASM                   M IMCTM S5MB11 TNTH  09020IMCT  S5 PTB  00004                    2230 SR        000000000000 DENSO TEN (THAILAND)18098XL0022022                                                                                                                              *          20180827 IMCT                IMCT                                                                                                                    WMF1808275.TXT
MDEDJ8323930201808                D89828070100PV4D20180831000030SPEAKER ASM                   M IMCTM S0FL05 TNTH  09020IMCT  S0 PTB  00004                    0230 SR        000000000000 DENSO TEN (THAILAND)18061UU0028028                                                                                                                              *          20180827 IMCT                IMCT                                                                                                                    WMF1808275.TXT
MDEDJ8323931201808                D89828070100PV4D20180831000030SPEAKER ASM                   M IMCTM S0FL05 TNTH  09020IMCT  S0 PTB  00004                    0400 SR        000000000000 DENSO TEN (THAILAND)18063UU0054054                                                                                                                              *          20180827 IMCT                IMCT                                                                                                                    WMF1808275.TXT
MDEDJ8323932201808                D89828070100PV4D20180831000090SPEAKER ASM                   M IMCTM S0FL05 TNTH  09020IMCT  S0 PTB  00004                    1300 SR        000000000000 DENSO TEN (THAILAND)18001VU001101118068UU001901918071UU0002002                                                                                                  *          20180827 IMCT                IMCT                                                                                                                    WMF1808275.TXT
MDEDJ8323933201808                D89828070200PV1D20180831000030SPEAKER ASM                   M IMCTM S5MA14 TNTH  09020IMCT  S5 PTB  00005                    1600 SR        000000000000 DENSO TEN (THAILAND)17046RL0009009                                                                                                                              *          20180827 IMCT                IMCT                                                                                                                    WMF1808275.TXT
MDEDJ8323934201808                D89828070200PV1D20180831000030SPEAKER ASM                   M IMCTM S5MA14 TNTH  09020IMCT  S5 PTB  00005                    2230 SR        000000000000 DENSO TEN (THAILAND)18098XL0022022                                                                                                                              *          20180827 IMCT                IMCT                                                                                                                    WMF1808275.TXT
MDEDJ8323935201808                D89828070200PV4D20180831000060SPEAKER ASM                   M IMCTM S0FR05 TNTH  09020IMCT  S0 PTB  00005                    1300 SR        000000000000 DENSO TEN (THAILAND)18001VU001101118068UU0019019                                                                                                                *          20180827 IMCT                IMCT                                                                                                                    WMF1808275.TXT
MDEDJ8323936201808                D89828070300PT1D20180830000060SPEAKER ASM                   M IMCTM S5NB082TNTH  09020IMCT  S5 PTB  00015                    2230 SR        000000000000 DENSO TEN (THAILAND)18029XL000800818064UL0016016                                                                                                                *          20180827 IMCT                IMCT                                                                                                                    WMF1808275.TXT
MDEDJ8323937201808                D89828070300PT1D20180831000030SPEAKER ASM                   M IMCTM S5NB082TNTH  09020IMCT  S5 PTB  00015                    0230 SR        000000000000 DENSO TEN (THAILAND)18064UL0017017                                                                                                                              *          20180827 IMCT                IMCT                                                                                                                    WMF1808275.TXT
MDEDJ8323938201808                D89828070300PT1D20180831000030SPEAKER ASM                   M IMCTM S5NB082TNTH  09020IMCT  S5 PTB  00015                    0400 SR        000000000000 DENSO TEN (THAILAND)18005XL0011011                                                                                                                              *          20180827 IMCT                IMCT                                                                                                                    WMF1808275.TXT
MDEDJ8323939201808                D89828070300PT1D20180831000030SPEAKER ASM                   M IMCTM S5NB082TNTH  09020IMCT  S5 PTB  00015                    1600 SR        000000000000 DENSO TEN (THAILAND)17046RL0009009                                                                                                                              *          20180827 IMCT                IMCT                                                                                                                    WMF1808275.TXT
MDEDJ8323940201808                D89828070300PT1D20180831000030SPEAKER ASM                   M IMCTM S5NB082TNTH  09020IMCT  S5 PTB  00015                    2230 SR        000000000000 DENSO TEN (THAILAND)18098XL0022022                                                                                                                              *          20180827 IMCT                IMCT                                                                                                                    WMF1808275.TXT
MDEDJ8323941201808                D89828070300PT4D20180831000030SPEAKER ASM                   M IMCTM S9TS02 TNTH  09020IMCT  S9 PTB  00015                    0230 SR        000000000000 DENSO TEN (THAILAND)18061UU0028028                                                                                                                              *          20180827 IMCT                IMCT                                                                                                                    WMF1808275.TXT
MDEDJ8323942201808                D89828070300PT4D20180831000030SPEAKER ASM                   M IMCTM S9TS02 TNTH  09020IMCT  S9 PTB  00015                    0400 SR        000000000000 DENSO TEN (THAILAND)18063UU0054054                                                                                                                              *          20180827 IMCT                IMCT                                                                                                                    WMF1808275.TXT
MDEDJ8323943201808                D89828070300PT4D20180831000090SPEAKER ASM                   M IMCTM S9TS02 TNTH  09020IMCT  S9 PTB  00015                    1300 SR        000000000000 DENSO TEN (THAILAND)18001VU001101118068UU001901918071UU0002002                                                                                                  *          20180827 IMCT                IMCT                                                                                                                    WMF1808275.TXT
MDEDJ8323944201808                D89831229010PT1D20180831000015RADIO;AM/FM,CD                M IMCTM S5NC06 TNTH  09020IMCT  S5 PTB  00003                    1600 SR        000000000000 DENSO TEN (THAILAND)17046RL0009009                                                                                                                              *          20180827 IMCT                IMCT                                                                                                                    WMF1808275.TXT
MDEDJ8323945201808                D89848581800PT4D20180831000015RADIO;AM/FM CD D              M IMCTM S9CO001TNTH  09020IMCT  S9 PTB  00003                    0230 SR        000000000000 DENSO TEN (THAILAND)18061UU0028028                                                                                                                              *          20180827 IMCT                IMCT                                                                                                                    WMF1808275.TXT
MDEDJ8323946201808                D89848581800PT4D20180831000015RADIO;AM/FM CD D              M IMCTM S9CO001TNTH  09020IMCT  S9 PTB  00003                    0400 SR        000000000000 DENSO TEN (THAILAND)18063UU0054054                                                                                                                              *          20180827 IMCT                IMCT                                                                                                                    WMF1808275.TXT
MDEDJ8323947201808                D89848581800PT4D20180831000015RADIO;AM/FM CD D              M IMCTM S9CO001TNTH  09020IMCT  S9 PTB  00003                    1300 SR        000000000000 DENSO TEN (THAILAND)18071UU0002002                                                                                                                              *          20180827 IMCT                IMCT                                                                                                                    WMF1808275.TXT
MDEDJ8323948201808                D89848582100PT1D20180831000015RADIO;AM/FM CD D              M IMCTM S5NC06 TNTH  09020IMCT  S5 PTB  00003                    2230 SR        000000000000 DENSO TEN (THAILAND)18098XL0022022                                                                                                                              *          20180827 IMCT                IMCT                                                                                                                    WMF1808275.TXT
MDEDJ8323949201808                D89848582500PT1D20180830000015RADIO;AM/FM CD D              M IMCTM S5NC06 TNTH  09020IMCT  S5 PTB  00003                    2230 SR        000000000000 DENSO TEN (THAILAND)18064UL0016016                                                                                                                              *          20180827 IMCT                IMCT                                                                                                                    WMF1808275.TXT
MDEDJ8323950201808                D89848582500PT1D20180831000015RADIO;AM/FM CD D              M IMCTM S5NC06 TNTH  09020IMCT  S5 PTB  00003                    0230 SR        000000000000 DENSO TEN (THAILAND)18064UL0017017                                                                                                                              *          20180827 IMCT                IMCT                                                                                                                    WMF1808275.TXT
MDEUJ8236288201808                D89828070100PT4U20180831000030SPEAKER ASM                   M IMCTM S0FL05 TNTH  09020IMCT  S0 PTB  00004                    0400 SR        000000000000 DENSO TEN (THAILAND)180D06U0008008                                                                                                                              *          20180827 IMCT                IMCT                                                                                                                    WMF1808275.TXT
MDEUJ8236289201808                D89828070100PT4U20180831000030SPEAKER ASM                   M IMCTM S0FL05 TNTH  09020IMCT  S0 PTB  00004                    2230 SR        000000000000 DENSO TEN (THAILAND)18035TU0011011                                                                                                                              *          20180827 IMCT                IMCT                                                                                                                    WMF1808275.TXT
MDEUJ8236290201808                D89828070200PV4U20180831000030SPEAKER ASM                   M IMCTM S0FR05 TNTH  09020IMCT  S0 PTB  00005                    0400 SR        000000000000 DENSO TEN (THAILAND)180D06U0008008                                                                                                                              *          20180827 IMCT                IMCT                                                                                                                    WMF1808275.TXT
MDEUJ8236291201808                D89828070200PV4U20180831000030SPEAKER ASM                   M IMCTM S0FR05 TNTH  09020IMCT  S0 PTB  00005                    2230 SR        000000000000 DENSO TEN (THAILAND)18035TU0011011                                                                                                                              *          20180827 IMCT                IMCT                                                                                                                    WMF1808275.TXT
MDEUJ8236292201808                D89828070300PT4U20180831000030SPEAKER ASM                   M IMCTM S9TS02 TNTH  09020IMCT  S9 PTB  00015                    0400 SR        000000000000 DENSO TEN (THAILAND)180D06U0008008                                                                                                                              *          20180827 IMCT                IMCT                                                                                                                    WMF1808275.TXT
MDEUJ8236293201808                D89828070300PT4U20180831000030SPEAKER ASM                   M IMCTM S9TS02 TNTH  09020IMCT  S9 PTB  00015                    2230 SR        000000000000 DENSO TEN (THAILAND)18035TU0011011                                                                                                                              *          20180827 IMCT                IMCT                                                                                                                    WMF1808275.TXT
MDEUJ8236294201808                D89831229200PT4U20180831000015RADIO;AM/FM,CD                M IMCTM S9CO001TNTH  09020IMCT  S9 PTB  00003                    2230 SR        000000000000 DENSO TEN (THAILAND)18035TU0011011                                                                                                                              *          20180827 IMCT                IMCT                                                                                                                    WMF1808275.TXT
