REC2018083120180831ISUZU                              29     
MDD6J8290229201809                D89821984430PT5620180906000030RADIO;AM/FM,CD                M IMCTM G9J213 TNTH  09020G/WAY G9 PTB  00005                    1100 GW        0000000000005DENSO TEN (THAILAND)180LRAG0177177                                                                                                                              *          20180831 IMCT                IMCT                                                                                                                    WMF1808315.TXT
MDD6J8290230201809                D89828070100PV5620180905000060SPEAKER ASM                   M IMCTM G9B114 TNTH  09020G/WAY G9 PTB  00004                    1530 GW        0000000000005DENSO TEN (THAILAND)180LPGG0212212                                                                                                                              *          20180831 IMCT                IMCT                                                                                                                    WMF1808315.TXT
MDD6J8290231201809                D89828070100PV5620180905000060SPEAKER ASM                   M IMCTM G9B114 TNTH  09020G/WAY G9 PTB  00004                    2100 GW        0000000000005DENSO TEN (THAILAND)180LREG0169169                                                                                                                              *          20180831 IMCT                IMCT                                                                                                                    WMF1808315.TXT
MDD6J8290232201809                D89828070100PV5620180906000060SPEAKER ASM                   M IMCTM G9B114 TNTH  09020G/WAY G9 PTB  00004                    0200 GW        0000000000005DENSO TEN (THAILAND)180LRLG0140140                                                                                                                              *          20180831 IMCT                IMCT                                                                                                                    WMF1808315.TXT
MDD6J8290233201809                D89828070100PV5620180906000060SPEAKER ASM                   M IMCTM G9B114 TNTH  09020G/WAY G9 PTB  00004                    0330 GW        0000000000005DENSO TEN (THAILAND)180LRPG0042042                                                                                                                              *          20180831 IMCT                IMCT                                                                                                                    WMF1808315.TXT
MDD6J8290234201809                D89828070100PV5620180906000060SPEAKER ASM                   M IMCTM G9B114 TNTH  09020G/WAY G9 PTB  00004                    0900 GW        0000000000005DENSO TEN (THAILAND)180LPDG0011011                                                                                                                              *          20180831 IMCT                IMCT                                                                                                                    WMF1808315.TXT
MDD6J8290235201809                D89828070100PV5620180906000060SPEAKER ASM                   M IMCTM G9B114 TNTH  09020G/WAY G9 PTB  00004                    1100 GW        0000000000005DENSO TEN (THAILAND)180LRAG0177177                                                                                                                              *          20180831 IMCT                IMCT                                                                                                                    WMF1808315.TXT
MDD6J8290236201809                D89828070100PV5620180906000060SPEAKER ASM                   M IMCTM G9B114 TNTH  09020G/WAY G9 PTB  00004                    1400 GW        0000000000005DENSO TEN (THAILAND)180LRTG0030030                                                                                                                              *          20180831 IMCT                IMCT                                                                                                                    WMF1808315.TXT
MDD6J8290237201809                D89828070100PV5620180906000060SPEAKER ASM                   M IMCTM G9B114 TNTH  09020G/WAY G9 PTB  00004                    1530 GW        0000000000005DENSO TEN (THAILAND)180LRNG0056056                                                                                                                              *          20180831 IMCT                IMCT                                                                                                                    WMF1808315.TXT
MDD6J8290238201809                D89828070200PV5620180905000060SPEAKER ASM                   M IMCTM G9F132 TNTH  09020G/WAY G9 PTB  00005                    2100 GW        0000000000005DENSO TEN (THAILAND)180LREG0169169                                                                                                                              *          20180831 IMCT                IMCT                                                                                                                    WMF1808315.TXT
MDD6J8290239201809                D89828070200PV5620180906000060SPEAKER ASM                   M IMCTM G9F132 TNTH  09020G/WAY G9 PTB  00005                    0200 GW        0000000000005DENSO TEN (THAILAND)180LRLG0140140                                                                                                                              *          20180831 IMCT                IMCT                                                                                                                    WMF1808315.TXT
MDD6J8290240201809                D89828070200PV5620180906000060SPEAKER ASM                   M IMCTM G9F132 TNTH  09020G/WAY G9 PTB  00005                    0330 GW        0000000000005DENSO TEN (THAILAND)180LRPG0042042                                                                                                                              *          20180831 IMCT                IMCT                                                                                                                    WMF1808315.TXT
MDD6J8290241201809                D89828070200PV5620180906000060SPEAKER ASM                   M IMCTM G9F132 TNTH  09020G/WAY G9 PTB  00005                    1400 GW        0000000000005DENSO TEN (THAILAND)180LRTG0030030                                                                                                                              *          20180831 IMCT                IMCT                                                                                                                    WMF1808315.TXT
MDD6J8290242201809                D89828070200PV5620180906000060SPEAKER ASM                   M IMCTM G9F132 TNTH  09020G/WAY G9 PTB  00005                    1530 GW        0000000000005DENSO TEN (THAILAND)180LRNG0056056                                                                                                                              *          20180831 IMCT                IMCT                                                                                                                    WMF1808315.TXT
MDD6J8290243201809                D89828070300PT5620180905000060SPEAKER ASM                   M IMCTM G9JA33 TNTH  09020G/WAY G9 PTB  00015                    1530 GW        0000000000005DENSO TEN (THAILAND)180LPGG0212212                                                                                                                              *          20180831 IMCT                IMCT                                                                                                                    WMF1808315.TXT
MDD6J8290244201809                D89828070300PT5620180905000060SPEAKER ASM                   M IMCTM G9JA33 TNTH  09020G/WAY G9 PTB  00015                    2100 GW        0000000000005DENSO TEN (THAILAND)180LREG0169169                                                                                                                              *          20180831 IMCT                IMCT                                                                                                                    WMF1808315.TXT
MDD6J8290245201809                D89828070300PT5620180906000060SPEAKER ASM                   M IMCTM G9JA33 TNTH  09020G/WAY G9 PTB  00015                    0200 GW        0000000000005DENSO TEN (THAILAND)180LRLG0140140                                                                                                                              *          20180831 IMCT                IMCT                                                                                                                    WMF1808315.TXT
MDD6J8290246201809                D89828070300PT5620180906000060SPEAKER ASM                   M IMCTM G9JA33 TNTH  09020G/WAY G9 PTB  00015                    0330 GW        0000000000005DENSO TEN (THAILAND)180LRPG0042042                                                                                                                              *          20180831 IMCT                IMCT                                                                                                                    WMF1808315.TXT
MDD6J8290247201809                D89828070300PT5620180906000060SPEAKER ASM                   M IMCTM G9JA33 TNTH  09020G/WAY G9 PTB  00015                    0900 GW        0000000000005DENSO TEN (THAILAND)180LPDG0011011                                                                                                                              *          20180831 IMCT                IMCT                                                                                                                    WMF1808315.TXT
MDD6J8290248201809                D89828070300PT5620180906000060SPEAKER ASM                   M IMCTM G9JA33 TNTH  09020G/WAY G9 PTB  00015                    1400 GW        0000000000005DENSO TEN (THAILAND)180LRTG0030030                                                                                                                              *          20180831 IMCT                IMCT                                                                                                                    WMF1808315.TXT
MDD6J8290249201809                D89828070300PT5620180906000060SPEAKER ASM                   M IMCTM G9JA33 TNTH  09020G/WAY G9 PTB  00015                    1530 GW        0000000000005DENSO TEN (THAILAND)180LRNG0056056                                                                                                                              *          20180831 IMCT                IMCT                                                                                                                    WMF1808315.TXT
MDD6J8290250201809                D89831228300PT5620180905000030RADIO;AM/FM,CD                M IMCTM G9J213 TNTH  09020G/WAY G9 CPB  00003                    1530 GW        0000000000005DENSO TEN (THAILAND)180LPGG0212212                                                                                                                              *          20180831 IMCT                IMCT                                                                                                                    WMF1808315.TXT
MDD6J8290251201809                D89831228300PT5620180906000030RADIO;AM/FM,CD                M IMCTM G9J213 TNTH  09020G/WAY G9 CPB  00003                    0900 GW        0000000000005DENSO TEN (THAILAND)180LPDG0011011                                                                                                                              *          20180831 IMCT                IMCT                                                                                                                    WMF1808315.TXT
MDD6J8290252201809                D89831228400PT5620180905000030RADIO;AM/FM,CD                M IMCTM G9J213 TNTH  09020G/WAY G9 CPB  00003                    2100 GW        0000000000005DENSO TEN (THAILAND)180LREG0169169                                                                                                                              *          20180831 IMCT                IMCT                                                                                                                    WMF1808315.TXT
MDD6J8290253201809                D89831228400PT5620180906000030RADIO;AM/FM,CD                M IMCTM G9J213 TNTH  09020G/WAY G9 CPB  00003                    1400 GW        0000000000005DENSO TEN (THAILAND)180LRTG0030030                                                                                                                              *          20180831 IMCT                IMCT                                                                                                                    WMF1808315.TXT
MDE6J8206688201809                D89828070100PV5620180905000060SPEAKER ASM                   M IMCTM G9B114 TNTH  09020G/WAY G9 PTB  00004                    2300 GW        0000000000005DENSO TEN (THAILAND)18083UG0019019                                                                                                                              *          20180831 IMCT                IMCT                                                                                                                    WMF1808315.TXT
MDE6J8206689201809                D89828070200PV5620180905000060SPEAKER ASM                   M IMCTM G9F132 TNTH  09020G/WAY G9 PTB  00005                    2300 GW        0000000000005DENSO TEN (THAILAND)18083UG0019019                                                                                                                              *          20180831 IMCT                IMCT                                                                                                                    WMF1808315.TXT
MDE6J8206690201809                D89828070300PT5620180905000060SPEAKER ASM                   M IMCTM G9JA33 TNTH  09020G/WAY G9 PTB  00015                    2300 GW        0000000000005DENSO TEN (THAILAND)18083UG0019019                                                                                                                              *          20180831 IMCT                IMCT                                                                                                                    WMF1808315.TXT
MDE6J8206691201809                D89848581800PT5620180905000030RADIO;AM/FM CD D              M IMCTM G9J213 TNTH  09020G/WAY G9 PTB  00003                    2300 GW        0000000000005DENSO TEN (THAILAND)18083UG0019019                                                                                                                              *          20180831 IMCT                IMCT                                                                                                                    WMF1808315.TXT
