REC2018081820180818ISUZU                              12     
MDEFJ8T14085201808                D89828070100PV4F20180823000026SPEAKER ASM                   M IMCTM S7FL05 TNTH  09020IMCT  S7 PTB  00004                    1300 SR        000000000000 DENSO TEN (THAILAND)18012XR0008   18076XR0030   F180805003    F180805015    000000                                                                              *R         20180818 IMCT                IMCT                                                                                                                    RMF1808184.TXT
MDEFJ8T14086201808                D89828070200PV4F20180823000016SPEAKER ASM                   M IMCTM S7FL05 TNTH  09020IMCT  S7 PTB  00005                    0400 SR        000000000000 DENSO TEN (THAILAND)18008YR0026   18068XR0020   D180804906    D180804915    000000                                                                              *R         20180818 IMCT                IMCT                                                                                                                    RMF1808184.TXT
MDEFJ8T14087201808                D89828070300PT4F20180823000012SPEAKER ASM                   M IMCTM S7TS02 TNTH  09020IMCT  S7 PTB  00015                    1300 SR        000000000000 DENSO TEN (THAILAND)18012XR0008   18015XR0032   F180805003    F180805008    000000                                                                              *R         20180818 IMCT                IMCT                                                                                                                    RMF1808184.TXT
MDEFJ8T14088201808                D89848582800PT4F20180823000005RADIO;AM/FM CD D              M IMCTM S7TS01 TNTH  09020IMCT  S7 PTB  00003                    1300 SR        000000000000 DENSO TEN (THAILAND)18013XR0025   18015XR0032   F180805004    F180805008    000000                                                                              *R         20180818 IMCT                IMCT                                                                                                                    RMF1808184.TXT
MDEFJ8237651201808                D89828070100PV4F20180822000004SPEAKER ASM                   M IMCTM S7FL05 TNTH  09020IMCT  S7 PTB  00004                    2100 SR        000000000000 DENSO TEN (THAILAND)17033RR0125   17033RR0126   D180804801    D180804802    000000                                                                              *R         20180818 IMCT                IMCT                                                                                                                    RMF1808184.TXT
MDEFJ8237652201808                D89828070100PV4F20180822000028SPEAKER ASM                   M IMCTM S7FL05 TNTH  09020IMCT  S7 PTB  00004                    2230 SR        000000000000 DENSO TEN (THAILAND)17033RR0127   18001YR0018   D180804803    D180804901    000000                                                                              *R         20180818 IMCT                IMCT                                                                                                                    RMF1808184.TXT
MDEFJ8237653201808                D89828070100PV4F20180823000008SPEAKER ASM                   M IMCTM S7FL05 TNTH  09020IMCT  S7 PTB  00004                    0230 SR        000000000000 DENSO TEN (THAILAND)18001YR0019   18008YR0025   D180804902    D180804905    000000                                                                              *R         20180818 IMCT                IMCT                                                                                                                    RMF1808184.TXT
MDEFJ8237654201808                D89828070100PV4F20180823000020SPEAKER ASM                   M IMCTM S7FL05 TNTH  09020IMCT  S7 PTB  00004                    0400 SR        000000000000 DENSO TEN (THAILAND)18008YR0026   18068XR0020   D180804906    D180804915    000000                                                                              *R         20180818 IMCT                IMCT                                                                                                                    RMF1808184.TXT
MDEFJ8237655201808                D89828070100PV4F20180823000004SPEAKER ASM                   M IMCTM S7FL05 TNTH  09020IMCT  S7 PTB  00004                    1030 SR        000000000000 DENSO TEN (THAILAND)18011XR0040   18011XR0041   F180805001    F180805002    000000                                                                              *R         20180818 IMCT                IMCT                                                                                                                    RMF1808184.TXT
MDEFJ8237656201808                D89828070200PV4F20180823000010SPEAKER ASM                   M IMCTM S7FL05 TNTH  09020IMCT  S7 PTB  00005                    0230 SR        000000000000 DENSO TEN (THAILAND)18001YR0018   18008YR0025   D180804901    D180804905    000000                                                                              *R         20180818 IMCT                IMCT                                                                                                                    RMF1808184.TXT
MDEFJ8237657201808                D89828070300PT4F20180823000015SPEAKER ASM                   M IMCTM S7TS02 TNTH  09020IMCT  S7 PTB  00015                    0230 SR        000000000000 DENSO TEN (THAILAND)18001YR0018   18008YR0028   D180804901    D180804908    000000                                                                              *R         20180818 IMCT                IMCT                                                                                                                    RMF1808184.TXT
MDEFJ8237658201808                D89828070300PT4F20180823000015SPEAKER ASM                   M IMCTM S7TS02 TNTH  09020IMCT  S7 PTB  00015                    0400 SR        000000000000 DENSO TEN (THAILAND)18008YR0028   18011XR0041   D180804908    F180805002    000000                                                                              *R         20180818 IMCT                IMCT                                                                                                                    RMF1808184.TXT
