REC2018082320180823ISUZU                              10     
MDEFJ8T18842201808                D89828070100PV4F20180829000030SPEAKER ASM                   M IMCTM S7FL05 TNTH  09020IMCT  S7 PTB  00004                    1300 SR        000000000000 DENSO TEN (THAILAND)18009YR0006   17008RR0127   R180806101    R180806115    000000                                                                              *R         20180823 IMCT                IMCT                                                                                                                    RMF1808233.TXT
MDEFJ8T18843201808                D89828070200PV4F20180828000007SPEAKER ASM                   M IMCTM S7FL05 TNTH  09020IMCT  S7 PTB  00005                    2230 SR        000000000000 DENSO TEN (THAILAND)17050RR0181   17051RR0136   D180805908    D180805911    000000                                                                              *R         20180823 IMCT                IMCT                                                                                                                    RMF1808233.TXT
MDEFJ8T18844201808                D89828070300PT4F20180829000011SPEAKER ASM                   M IMCTM S7TS02 TNTH  09020IMCT  S7 PTB  00015                    0400 SR        000000000000 DENSO TEN (THAILAND)18029XR0036   18029XR0041   D180806010    D180806015    000000                                                                              *R         20180823 IMCT                IMCT                                                                                                                    RMF1808233.TXT
MDEFJ8T18845201808                D89829645410PT4F20180828000005RADIO;ASM DVD                 M IMCTM S7TS03 TNTH  09020IMCT  S7 PTB  00003                    2230 SR        000000000000 DENSO TEN (THAILAND)17050RR0180   17051RR0136   D180805907    D180805911    000000                                                                              *R         20180823 IMCT                IMCT                                                                                                                    RMF1808233.TXT
MDEFJ8T18846201808                D89831229010PT4F20180828000001RADIO;AM/FM,CD                M IMCTM S7TS01 TNTH  09020IMCT  S7 PTB  00003                    2100 SR        000000000000 DENSO TEN (THAILAND)17024RR0104   17024RR0104   D180805901    D180805901    000000                                                                              *R         20180823 IMCT                IMCT                                                                                                                    RMF1808233.TXT
MDEFJ8251561201808                D89828070100PV4F20180828000004SPEAKER ASM                   M IMCTM S7FL05 TNTH  09020IMCT  S7 PTB  00004                    2100 SR        000000000000 DENSO TEN (THAILAND)17024RR0104   17033RR0138   D180805901    D180805902    000000                                                                              *R         20180823 IMCT                IMCT                                                                                                                    RMF1808233.TXT
MDEFJ8251562201808                D89828070100PV4F20180828000028SPEAKER ASM                   M IMCTM S7FL05 TNTH  09020IMCT  S7 PTB  00004                    2230 SR        000000000000 DENSO TEN (THAILAND)17033RR0139   18024XR0042   D180805903    D180806001    000000                                                                              *R         20180823 IMCT                IMCT                                                                                                                    RMF1808233.TXT
MDEFJ8251563201808                D89828070100PV4F20180829000028SPEAKER ASM                   M IMCTM S7FL05 TNTH  09020IMCT  S7 PTB  00004                    0400 SR        000000000000 DENSO TEN (THAILAND)18024XR0043   18029XR0041   D180806002    D180806015    000000                                                                              *R         20180823 IMCT                IMCT                                                                                                                    RMF1808233.TXT
MDEFJ8251564201808                D89828070200PV4F20180828000005SPEAKER ASM                   M IMCTM S7FL05 TNTH  09020IMCT  S7 PTB  00005                    2100 SR        000000000000 DENSO TEN (THAILAND)17024RR0104   17050RR0181   D180805901    D180805908    000000                                                                              *R         20180823 IMCT                IMCT                                                                                                                    RMF1808233.TXT
MDEFJ8251565201808                D89828070300PT4F20180828000015SPEAKER ASM                   M IMCTM S7TS02 TNTH  09020IMCT  S7 PTB  00015                    2100 SR        000000000000 DENSO TEN (THAILAND)17024RR0104   18029XR0036   D180805901    D180806010    000000                                                                              *R         20180823 IMCT                IMCT                                                                                                                    RMF1808233.TXT
