REC2018080720180807ISUZU                              53     
MDDDJ8231724201808                D89821984430PT1D20180810000030RADIO;AM/FM,CD                M IMCTM S5NC06 TNTH  09020IMCT  S5 PTB  00005                    2230 SR        000000000000 DENSO TEN (THAILAND)180LRAL0218218                                                                                                                              *          20180807 IMCT                IMCT                                                                                                                    WMF1808075.TXT
MDDDJ8231725201808                D89821984430PT1D20180811000030RADIO;AM/FM,CD                M IMCTM S5NC06 TNTH  09020IMCT  S5 PTB  00005                    0230 SR        000000000000 DENSO TEN (THAILAND)180LXCL0077077                                                                                                                              *          20180807 IMCT                IMCT                                                                                                                    WMF1808075.TXT
MDDDJ8231726201808                D89821984430PT1D20180816000030RADIO;AM/FM,CD                M IMCTM S5NC06 TNTH  09020IMCT  S5 PTB  00005                    1030 SR        000000000000 DENSO TEN (THAILAND)180LRAL0219219                                                                                                                              *          20180807 IMCT                IMCT                                                                                                                    WMF1808075.TXT
MDDDJ8231727201808                D89821984430PT1D20180816000030RADIO;AM/FM,CD                M IMCTM S5NC06 TNTH  09020IMCT  S5 PTB  00005                    1300 SR        000000000000 DENSO TEN (THAILAND)180LXEL0080080                                                                                                                              *          20180807 IMCT                IMCT                                                                                                                    WMF1808075.TXT
MDDDJ8231728201808                D89821984430PT1D20180816000030RADIO;AM/FM,CD                M IMCTM S5NC06 TNTH  09020IMCT  S5 PTB  00005                    2230 SR        000000000000 DENSO TEN (THAILAND)180LXFL0012012                                                                                                                              *          20180807 IMCT                IMCT                                                                                                                    WMF1808075.TXT
MDDDJ8231729201808                D89828070100PV1D20180810000060SPEAKER ASM                   M IMCTM S5MB11 TNTH  09020IMCT  S5 PTB  00004                    2230 SR        000000000000 DENSO TEN (THAILAND)180LRAL0218218                                                                                                                              *          20180807 IMCT                IMCT                                                                                                                    WMF1808075.TXT
MDDDJ8231730201808                D89828070100PV1D20180811000060SPEAKER ASM                   M IMCTM S5MB11 TNTH  09020IMCT  S5 PTB  00004                    0230 SR        000000000000 DENSO TEN (THAILAND)180LXCL0077077                                                                                                                              *          20180807 IMCT                IMCT                                                                                                                    WMF1808075.TXT
MDDDJ8231731201808                D89828070100PV1D20180816000060SPEAKER ASM                   M IMCTM S5MB11 TNTH  09020IMCT  S5 PTB  00004                    1030 SR        000000000000 DENSO TEN (THAILAND)180LRAL0219219                                                                                                                              *          20180807 IMCT                IMCT                                                                                                                    WMF1808075.TXT
MDDDJ8231732201808                D89828070100PV1D20180816000120SPEAKER ASM                   M IMCTM S5MB11 TNTH  09020IMCT  S5 PTB  00004                    1300 SR        000000000000 DENSO TEN (THAILAND)180LPEL0018018180LXEL0080080                                                                                                                *          20180807 IMCT                IMCT                                                                                                                    WMF1808075.TXT
MDDDJ8231733201808                D89828070100PV1D20180816000060SPEAKER ASM                   M IMCTM S5MB11 TNTH  09020IMCT  S5 PTB  00004                    2230 SR        000000000000 DENSO TEN (THAILAND)180LXFL0012012                                                                                                                              *          20180807 IMCT                IMCT                                                                                                                    WMF1808075.TXT
MDDDJ8231734201808                D89828070300PT1D20180816000060SPEAKER ASM                   M IMCTM S5NB082TNTH  09020IMCT  S5 PTB  00015                    1300 SR        000000000000 DENSO TEN (THAILAND)180LPEL0018018                                                                                                                              *          20180807 IMCT                IMCT                                                                                                                    WMF1808075.TXT
MDDDJ8231735201808                D89831228300PT1D20180816000030RADIO;AM/FM,CD                M IMCTM S5NC06 TNTH  09020IMCT  S5 CPB  00003                    1300 SR        000000000000 DENSO TEN (THAILAND)180LPEL0018018                                                                                                                              *          20180807 IMCT                IMCT                                                                                                                    WMF1808075.TXT
MDDUJ8212377201808                D89828070100PT4U20180811000030SPEAKER ASM                   M IMCTM S0FL05 TNTH  09020IMCT  S0 PTB  00004                    0230 SR        000000000000 DENSO TEN (THAILAND)180LUSU0150150                                                                                                                              *          20180807 IMCT                IMCT                                                                                                                    WMF1808075.TXT
MDDUJ8212378201808                D89828070100PT4U20180816000030SPEAKER ASM                   M IMCTM S0FL05 TNTH  09020IMCT  S0 PTB  00004                    1600 SR        000000000000 DENSO TEN (THAILAND)180LUTU0109109                                                                                                                              *          20180807 IMCT                IMCT                                                                                                                    WMF1808075.TXT
MDDUJ8212379201808                D89828070200PV4U20180811000030SPEAKER ASM                   M IMCTM S0FR05 TNTH  09020IMCT  S0 PTB  00005                    0230 SR        000000000000 DENSO TEN (THAILAND)180LUSU0150150                                                                                                                              *          20180807 IMCT                IMCT                                                                                                                    WMF1808075.TXT
MDDUJ8212380201808                D89828070200PV4U20180816000030SPEAKER ASM                   M IMCTM S0FR05 TNTH  09020IMCT  S0 PTB  00005                    1600 SR        000000000000 DENSO TEN (THAILAND)180LUTU0109109                                                                                                                              *          20180807 IMCT                IMCT                                                                                                                    WMF1808075.TXT
MDDUJ8212381201808                D89828070300PT4U20180811000030SPEAKER ASM                   M IMCTM S9TS02 TNTH  09020IMCT  S9 PTB  00015                    0230 SR        000000000000 DENSO TEN (THAILAND)180LUSU0150150                                                                                                                              *          20180807 IMCT                IMCT                                                                                                                    WMF1808075.TXT
MDDUJ8212382201808                D89828070300PT4U20180816000030SPEAKER ASM                   M IMCTM S9TS02 TNTH  09020IMCT  S9 PTB  00015                    1600 SR        000000000000 DENSO TEN (THAILAND)180LUTU0109109                                                                                                                              *          20180807 IMCT                IMCT                                                                                                                    WMF1808075.TXT
MDEDJ8239532201808                D89828070100PV1D20180810000060SPEAKER ASM                   M IMCTM S5MB11 TNTH  09020IMCT  S5 PTB  00004                    2230 SR        000000000000 DENSO TEN (THAILAND)18001VL0045046                                                                                                                              *          20180807 IMCT                IMCT                                                                                                                    WMF1808075.TXT
MDEDJ8239533201808                D89828070100PV1D20180811000030SPEAKER ASM                   M IMCTM S5MB11 TNTH  09020IMCT  S5 PTB  00004                    0400 SR        000000000000 DENSO TEN (THAILAND)18080UL0041041                                                                                                                              *          20180807 IMCT                IMCT                                                                                                                    WMF1808075.TXT
MDEDJ8239534201808                D89828070100PV1D20180816000030SPEAKER ASM                   M IMCTM S5MB11 TNTH  09020IMCT  S5 PTB  00004                    1030 SR        000000000000 DENSO TEN (THAILAND)18080UL0042042                                                                                                                              *          20180807 IMCT                IMCT                                                                                                                    WMF1808075.TXT
MDEDJ8239535201808                D89828070100PV1D20180816000030SPEAKER ASM                   M IMCTM S5MB11 TNTH  09020IMCT  S5 PTB  00004                    1300 SR        000000000000 DENSO TEN (THAILAND)18076UL0019019                                                                                                                              *          20180807 IMCT                IMCT                                                                                                                    WMF1808075.TXT
MDEDJ8239536201808                D89828070100PV1D20180816000030SPEAKER ASM                   M IMCTM S5MB11 TNTH  09020IMCT  S5 PTB  00004                    2100 SR        000000000000 DENSO TEN (THAILAND)18075UL0004004                                                                                                                              *          20180807 IMCT                IMCT                                                                                                                    WMF1808075.TXT
MDEDJ8239537201808                D89828070100PV4D20180810000030SPEAKER ASM                   M IMCTM S0FL05 TNTH  09020IMCT  S0 PTB  00004                    2230 SR        000000000000 DENSO TEN (THAILAND)18069UU0006006                                                                                                                              *          20180807 IMCT                IMCT                                                                                                                    WMF1808075.TXT
MDEDJ8239538201808                D89828070100PV4D20180811000030SPEAKER ASM                   M IMCTM S0FL05 TNTH  09020IMCT  S0 PTB  00004                    0400 SR        000000000000 DENSO TEN (THAILAND)18067UU0014014                                                                                                                              *          20180807 IMCT                IMCT                                                                                                                    WMF1808075.TXT
MDEDJ8239539201808                D89828070100PV4D20180816000060SPEAKER ASM                   M IMCTM S0FL05 TNTH  09020IMCT  S0 PTB  00004                    1300 SR        000000000000 DENSO TEN (THAILAND)18064UU002102118099UU0023023                                                                                                                *          20180807 IMCT                IMCT                                                                                                                    WMF1808075.TXT
MDEDJ8239540201808                D89828070100PV4D20180816000030SPEAKER ASM                   M IMCTM S0FL05 TNTH  09020IMCT  S0 PTB  00004                    2230 SR        000000000000 DENSO TEN (THAILAND)18010ZU0055055                                                                                                                              *          20180807 IMCT                IMCT                                                                                                                    WMF1808075.TXT
MDEDJ8239541201808                D89828070200PV1D20180810000060SPEAKER ASM                   M IMCTM S5MA14 TNTH  09020IMCT  S5 PTB  00005                    2230 SR        000000000000 DENSO TEN (THAILAND)18001VL0045046                                                                                                                              *          20180807 IMCT                IMCT                                                                                                                    WMF1808075.TXT
MDEDJ8239542201808                D89828070200PV1D20180811000030SPEAKER ASM                   M IMCTM S5MA14 TNTH  09020IMCT  S5 PTB  00005                    0400 SR        000000000000 DENSO TEN (THAILAND)18080UL0041041                                                                                                                              *          20180807 IMCT                IMCT                                                                                                                    WMF1808075.TXT
MDEDJ8239543201808                D89828070200PV1D20180816000030SPEAKER ASM                   M IMCTM S5MA14 TNTH  09020IMCT  S5 PTB  00005                    1030 SR        000000000000 DENSO TEN (THAILAND)18080UL0042042                                                                                                                              *          20180807 IMCT                IMCT                                                                                                                    WMF1808075.TXT
MDEDJ8239544201808                D89828070200PV4D20180810000030SPEAKER ASM                   M IMCTM S0FR05 TNTH  09020IMCT  S0 PTB  00005                    2230 SR        000000000000 DENSO TEN (THAILAND)18069UU0006006                                                                                                                              *          20180807 IMCT                IMCT                                                                                                                    WMF1808075.TXT
MDEDJ8239545201808                D89828070200PV4D20180811000030SPEAKER ASM                   M IMCTM S0FR05 TNTH  09020IMCT  S0 PTB  00005                    0400 SR        000000000000 DENSO TEN (THAILAND)18067UU0014014                                                                                                                              *          20180807 IMCT                IMCT                                                                                                                    WMF1808075.TXT
MDEDJ8239546201808                D89828070200PV4D20180816000030SPEAKER ASM                   M IMCTM S0FR05 TNTH  09020IMCT  S0 PTB  00005                    1300 SR        000000000000 DENSO TEN (THAILAND)18099UU0023023                                                                                                                              *          20180807 IMCT                IMCT                                                                                                                    WMF1808075.TXT
MDEDJ8239547201808                D89828070300PT1D20180810000060SPEAKER ASM                   M IMCTM S5NB082TNTH  09020IMCT  S5 PTB  00015                    2230 SR        000000000000 DENSO TEN (THAILAND)18001VL0045046                                                                                                                              *          20180807 IMCT                IMCT                                                                                                                    WMF1808075.TXT
MDEDJ8239548201808                D89828070300PT1D20180811000030SPEAKER ASM                   M IMCTM S5NB082TNTH  09020IMCT  S5 PTB  00015                    0400 SR        000000000000 DENSO TEN (THAILAND)18080UL0041041                                                                                                                              *          20180807 IMCT                IMCT                                                                                                                    WMF1808075.TXT
MDEDJ8239549201808                D89828070300PT1D20180816000030SPEAKER ASM                   M IMCTM S5NB082TNTH  09020IMCT  S5 PTB  00015                    1030 SR        000000000000 DENSO TEN (THAILAND)18080UL0042042                                                                                                                              *          20180807 IMCT                IMCT                                                                                                                    WMF1808075.TXT
MDEDJ8239550201808                D89828070300PT1D20180816000030SPEAKER ASM                   M IMCTM S5NB082TNTH  09020IMCT  S5 PTB  00015                    1300 SR        000000000000 DENSO TEN (THAILAND)18076UL0019019                                                                                                                              *          20180807 IMCT                IMCT                                                                                                                    WMF1808075.TXT
MDEDJ8239551201808                D89828070300PT1D20180816000030SPEAKER ASM                   M IMCTM S5NB082TNTH  09020IMCT  S5 PTB  00015                    2100 SR        000000000000 DENSO TEN (THAILAND)18075UL0004004                                                                                                                              *          20180807 IMCT                IMCT                                                                                                                    WMF1808075.TXT
MDEDJ8239552201808                D89828070300PT4D20180810000030SPEAKER ASM                   M IMCTM S9TS02 TNTH  09020IMCT  S9 PTB  00015                    2230 SR        000000000000 DENSO TEN (THAILAND)18069UU0006006                                                                                                                              *          20180807 IMCT                IMCT                                                                                                                    WMF1808075.TXT
MDEDJ8239553201808                D89828070300PT4D20180811000030SPEAKER ASM                   M IMCTM S9TS02 TNTH  09020IMCT  S9 PTB  00015                    0400 SR        000000000000 DENSO TEN (THAILAND)18067UU0014014                                                                                                                              *          20180807 IMCT                IMCT                                                                                                                    WMF1808075.TXT
MDEDJ8239554201808                D89828070300PT4D20180816000060SPEAKER ASM                   M IMCTM S9TS02 TNTH  09020IMCT  S9 PTB  00015                    1300 SR        000000000000 DENSO TEN (THAILAND)18064UU002102118099UU0023023                                                                                                                *          20180807 IMCT                IMCT                                                                                                                    WMF1808075.TXT
MDEDJ8239555201808                D89848581800PT1D20180811000015RADIO;AM/FM CD D              M IMCTM S5NC06 TNTH  09020IMCT  S5 PTB  00003                    0400 SR        000000000000 DENSO TEN (THAILAND)18080UL0041041                                                                                                                              *          20180807 IMCT                IMCT                                                                                                                    WMF1808075.TXT
MDEDJ8239556201808                D89848581800PT1D20180816000015RADIO;AM/FM CD D              M IMCTM S5NC06 TNTH  09020IMCT  S5 PTB  00003                    1030 SR        000000000000 DENSO TEN (THAILAND)18080UL0042042                                                                                                                              *          20180807 IMCT                IMCT                                                                                                                    WMF1808075.TXT
MDEDJ8239557201808                D89848582500PT4D20180816000015RADIO;AM/FM CD D              M IMCTM S9CO001TNTH  09020IMCT  S9 PTB  00003                    1300 SR        000000000000 DENSO TEN (THAILAND)18064UU0021021                                                                                                                              *          20180807 IMCT                IMCT                                                                                                                    WMF1808075.TXT
MDEUJ8212319201808                D89828070100PT4U20180816000030SPEAKER ASM                   M IMCTM S0FL05 TNTH  09020IMCT  S0 PTB  00004                    1030 SR        000000000000 DENSO TEN (THAILAND)18021UU0149149                                                                                                                              *          20180807 IMCT                IMCT                                                                                                                    WMF1808075.TXT
MDEUJ8212320201808                D89828070100PT4U20180816000030SPEAKER ASM                   M IMCTM S0FL05 TNTH  09020IMCT  S0 PTB  00004                    1300 SR        000000000000 DENSO TEN (THAILAND)18049ZU0071071                                                                                                                              *          20180807 IMCT                IMCT                                                                                                                    WMF1808075.TXT
MDEUJ8212321201808                D89828070100PT4U20180816000030SPEAKER ASM                   M IMCTM S0FL05 TNTH  09020IMCT  S0 PTB  00004                    2100 SR        000000000000 DENSO TEN (THAILAND)18020UU0104104                                                                                                                              *          20180807 IMCT                IMCT                                                                                                                    WMF1808075.TXT
MDEUJ8212322201808                D89828070200PV4U20180816000030SPEAKER ASM                   M IMCTM S0FR05 TNTH  09020IMCT  S0 PTB  00005                    1030 SR        000000000000 DENSO TEN (THAILAND)18021UU0149149                                                                                                                              *          20180807 IMCT                IMCT                                                                                                                    WMF1808075.TXT
MDEUJ8212323201808                D89828070200PV4U20180816000030SPEAKER ASM                   M IMCTM S0FR05 TNTH  09020IMCT  S0 PTB  00005                    1300 SR        000000000000 DENSO TEN (THAILAND)18049ZU0071071                                                                                                                              *          20180807 IMCT                IMCT                                                                                                                    WMF1808075.TXT
MDEUJ8212324201808                D89828070200PV4U20180816000030SPEAKER ASM                   M IMCTM S0FR05 TNTH  09020IMCT  S0 PTB  00005                    2100 SR        000000000000 DENSO TEN (THAILAND)18020UU0104104                                                                                                                              *          20180807 IMCT                IMCT                                                                                                                    WMF1808075.TXT
MDEUJ8212325201808                D89828070300PT4U20180816000030SPEAKER ASM                   M IMCTM S9TS02 TNTH  09020IMCT  S9 PTB  00015                    1030 SR        000000000000 DENSO TEN (THAILAND)18021UU0149149                                                                                                                              *          20180807 IMCT                IMCT                                                                                                                    WMF1808075.TXT
MDEUJ8212326201808                D89828070300PT4U20180816000030SPEAKER ASM                   M IMCTM S9TS02 TNTH  09020IMCT  S9 PTB  00015                    1300 SR        000000000000 DENSO TEN (THAILAND)18049ZU0071071                                                                                                                              *          20180807 IMCT                IMCT                                                                                                                    WMF1808075.TXT
MDEUJ8212327201808                D89828070300PT4U20180816000030SPEAKER ASM                   M IMCTM S9TS02 TNTH  09020IMCT  S9 PTB  00015                    2100 SR        000000000000 DENSO TEN (THAILAND)18020UU0104104                                                                                                                              *          20180807 IMCT                IMCT                                                                                                                    WMF1808075.TXT
