REC2018082220180822ISUZU                              57     
MDDDJ8280676201808                D89821984430PT1D20180828000060RADIO;AM/FM,CD                M IMCTM S5NC06 TNTH  09020IMCT  S5 PTB  00005                    0400 SR        000000000000 DENSO TEN (THAILAND)180LPAL0209209180LRAL0235235                                                                                                                *          20180822 IMCT                IMCT                                                                                                                    WMF1808224.TXT
MDDDJ8280677201808                D89821984430PT1D20180828000030RADIO;AM/FM,CD                M IMCTM S5NC06 TNTH  09020IMCT  S5 PTB  00005                    0830 SR        000000000000 DENSO TEN (THAILAND)180LXCL0079079                                                                                                                              *          20180822 IMCT                IMCT                                                                                                                    WMF1808224.TXT
MDDDJ8280678201808                D89821984430PT1D20180828000060RADIO;AM/FM,CD                M IMCTM S5NC06 TNTH  09020IMCT  S5 PTB  00005                    1300 SR        000000000000 DENSO TEN (THAILAND)180LPAL0210210180LRAL0236236                                                                                                                *          20180822 IMCT                IMCT                                                                                                                    WMF1808224.TXT
MDDDJ8280679201808                D89821984430PT1D20180828000030RADIO;AM/FM,CD                M IMCTM S5NC06 TNTH  09020IMCT  S5 PTB  00005                    2100 SR        000000000000 DENSO TEN (THAILAND)180LNGL0193193                                                                                                                              *          20180822 IMCT                IMCT                                                                                                                    WMF1808224.TXT
MDDDJ8280680201808                D89828070100PV1D20180827000060SPEAKER ASM                   M IMCTM S5MB11 TNTH  09020IMCT  S5 PTB  00004                    2230 SR        000000000000 DENSO TEN (THAILAND)180LPGL0304304                                                                                                                              *          20180822 IMCT                IMCT                                                                                                                    WMF1808224.TXT
MDDDJ8280681201808                D89828070100PV1D20180828000060SPEAKER ASM                   M IMCTM S5MB11 TNTH  09020IMCT  S5 PTB  00004                    0230 SR        000000000000 DENSO TEN (THAILAND)180LPGL0305305                                                                                                                              *          20180822 IMCT                IMCT                                                                                                                    WMF1808224.TXT
MDDDJ8280682201808                D89828070100PV1D20180828000120SPEAKER ASM                   M IMCTM S5MB11 TNTH  09020IMCT  S5 PTB  00004                    0400 SR        000000000000 DENSO TEN (THAILAND)180LPAL0209209180LRAL0235235                                                                                                                *          20180822 IMCT                IMCT                                                                                                                    WMF1808224.TXT
MDDDJ8280683201808                D89828070100PV1D20180828000060SPEAKER ASM                   M IMCTM S5MB11 TNTH  09020IMCT  S5 PTB  00004                    0830 SR        000000000000 DENSO TEN (THAILAND)180LXCL0079079                                                                                                                              *          20180822 IMCT                IMCT                                                                                                                    WMF1808224.TXT
MDDDJ8280684201808                D89828070100PV1D20180828000120SPEAKER ASM                   M IMCTM S5MB11 TNTH  09020IMCT  S5 PTB  00004                    1300 SR        000000000000 DENSO TEN (THAILAND)180LPAL0210210180LRAL0236236                                                                                                                *          20180822 IMCT                IMCT                                                                                                                    WMF1808224.TXT
MDDDJ8280685201808                D89828070100PV1D20180828000060SPEAKER ASM                   M IMCTM S5MB11 TNTH  09020IMCT  S5 PTB  00004                    2100 SR        000000000000 DENSO TEN (THAILAND)180LNGL0193193                                                                                                                              *          20180822 IMCT                IMCT                                                                                                                    WMF1808224.TXT
MDDDJ8280686201808                D89828070100PV1D20180828000060SPEAKER ASM                   M IMCTM S5MB11 TNTH  09020IMCT  S5 PTB  00004                    2230 SR        000000000000 DENSO TEN (THAILAND)180LPGL0306306                                                                                                                              *          20180822 IMCT                IMCT                                                                                                                    WMF1808224.TXT
MDDDJ8280687201808                D89828070100PV4D20180828000060SPEAKER ASM                   M IMCTM S0FL05 TNTH  09020IMCT  S0 PTB  00004                    2100 SR        000000000000 DENSO TEN (THAILAND)180LRSU0060060                                                                                                                              *          20180822 IMCT                IMCT                                                                                                                    WMF1808224.TXT
MDDDJ8280688201808                D89828070200PV4D20180828000060SPEAKER ASM                   M IMCTM S0FR05 TNTH  09020IMCT  S0 PTB  00005                    2100 SR        000000000000 DENSO TEN (THAILAND)180LRSU0060060                                                                                                                              *          20180822 IMCT                IMCT                                                                                                                    WMF1808224.TXT
MDDDJ8280689201808                D89828070300PT1D20180827000060SPEAKER ASM                   M IMCTM S5NB082TNTH  09020IMCT  S5 PTB  00015                    2230 SR        000000000000 DENSO TEN (THAILAND)180LPGL0304304                                                                                                                              *          20180822 IMCT                IMCT                                                                                                                    WMF1808224.TXT
MDDDJ8280690201808                D89828070300PT1D20180828000060SPEAKER ASM                   M IMCTM S5NB082TNTH  09020IMCT  S5 PTB  00015                    0230 SR        000000000000 DENSO TEN (THAILAND)180LPGL0305305                                                                                                                              *          20180822 IMCT                IMCT                                                                                                                    WMF1808224.TXT
MDDDJ8280691201808                D89828070300PT1D20180828000060SPEAKER ASM                   M IMCTM S5NB082TNTH  09020IMCT  S5 PTB  00015                    2230 SR        000000000000 DENSO TEN (THAILAND)180LPGL0306306                                                                                                                              *          20180822 IMCT                IMCT                                                                                                                    WMF1808224.TXT
MDDDJ8280692201808                D89828070300PT4D20180828000060SPEAKER ASM                   M IMCTM S9TS02 TNTH  09020IMCT  S9 PTB  00015                    2100 SR        000000000000 DENSO TEN (THAILAND)180LRSU0060060                                                                                                                              *          20180822 IMCT                IMCT                                                                                                                    WMF1808224.TXT
MDDDJ8280693201808                D89831228300PT1D20180827000030RADIO;AM/FM,CD                M IMCTM S5NC06 TNTH  09020IMCT  S5 CPB  00003                    2230 SR        000000000000 DENSO TEN (THAILAND)180LPGL0304304                                                                                                                              *          20180822 IMCT                IMCT                                                                                                                    WMF1808224.TXT
MDDDJ8280694201808                D89831228300PT1D20180828000030RADIO;AM/FM,CD                M IMCTM S5NC06 TNTH  09020IMCT  S5 CPB  00003                    0230 SR        000000000000 DENSO TEN (THAILAND)180LPGL0305305                                                                                                                              *          20180822 IMCT                IMCT                                                                                                                    WMF1808224.TXT
MDDDJ8280695201808                D89831228300PT1D20180828000030RADIO;AM/FM,CD                M IMCTM S5NC06 TNTH  09020IMCT  S5 CPB  00003                    2230 SR        000000000000 DENSO TEN (THAILAND)180LPGL0306306                                                                                                                              *          20180822 IMCT                IMCT                                                                                                                    WMF1808224.TXT
MDDUJ8231176201808                D89828070100PT4U20180828000030SPEAKER ASM                   M IMCTM S0FL05 TNTH  09020IMCT  S0 PTB  00004                    0400 SR        000000000000 DENSO TEN (THAILAND)180LULU0046046                                                                                                                              *          20180822 IMCT                IMCT                                                                                                                    WMF1808224.TXT
MDDUJ8231177201808                D89828070100PT4U20180828000030SPEAKER ASM                   M IMCTM S0FL05 TNTH  09020IMCT  S0 PTB  00004                    1300 SR        000000000000 DENSO TEN (THAILAND)180LUSU0158158                                                                                                                              *          20180822 IMCT                IMCT                                                                                                                    WMF1808224.TXT
MDDUJ8231178201808                D89828070200PV4U20180828000030SPEAKER ASM                   M IMCTM S0FR05 TNTH  09020IMCT  S0 PTB  00005                    0400 SR        000000000000 DENSO TEN (THAILAND)180LULU0046046                                                                                                                              *          20180822 IMCT                IMCT                                                                                                                    WMF1808224.TXT
MDDUJ8231179201808                D89828070200PV4U20180828000030SPEAKER ASM                   M IMCTM S0FR05 TNTH  09020IMCT  S0 PTB  00005                    1300 SR        000000000000 DENSO TEN (THAILAND)180LUSU0158158                                                                                                                              *          20180822 IMCT                IMCT                                                                                                                    WMF1808224.TXT
MDDUJ8231180201808                D89828070300PT4U20180828000030SPEAKER ASM                   M IMCTM S9TS02 TNTH  09020IMCT  S9 PTB  00015                    0400 SR        000000000000 DENSO TEN (THAILAND)180LULU0046046                                                                                                                              *          20180822 IMCT                IMCT                                                                                                                    WMF1808224.TXT
MDDUJ8231181201808                D89828070300PT4U20180828000030SPEAKER ASM                   M IMCTM S9TS02 TNTH  09020IMCT  S9 PTB  00015                    1300 SR        000000000000 DENSO TEN (THAILAND)180LUSU0158158                                                                                                                              *          20180822 IMCT                IMCT                                                                                                                    WMF1808224.TXT
MDEDJ8303220201808                D89828070100PV1D20180827000030SPEAKER ASM                   M IMCTM S5MB11 TNTH  09020IMCT  S5 PTB  00004                    2230 SR        000000000000 DENSO TEN (THAILAND)17033QL0090090                                                                                                                              *          20180822 IMCT                IMCT                                                                                                                    WMF1808224.TXT
MDEDJ8303221201808                D89828070100PV1D20180828000030SPEAKER ASM                   M IMCTM S5MB11 TNTH  09020IMCT  S5 PTB  00004                    0230 SR        000000000000 DENSO TEN (THAILAND)17033QL0091091                                                                                                                              *          20180822 IMCT                IMCT                                                                                                                    WMF1808224.TXT
MDEDJ8303222201808                D89828070100PV1D20180828000030SPEAKER ASM                   M IMCTM S5MB11 TNTH  09020IMCT  S5 PTB  00004                    1030 SR        000000000000 DENSO TEN (THAILAND)18024XL0012012                                                                                                                              *          20180822 IMCT                IMCT                                                                                                                    WMF1808224.TXT
MDEDJ8303223201808                D89828070100PV1D20180828000030SPEAKER ASM                   M IMCTM S5MB11 TNTH  09020IMCT  S5 PTB  00004                    1300 SR        000000000000 DENSO TEN (THAILAND)18024XL0013013                                                                                                                              *          20180822 IMCT                IMCT                                                                                                                    WMF1808224.TXT
MDEDJ8303224201808                D89828070100PV1D20180828000060SPEAKER ASM                   M IMCTM S5MB11 TNTH  09020IMCT  S5 PTB  00004                    1600 SR        000000000000 DENSO TEN (THAILAND)18010XL000100118056XL0016016                                                                                                                *          20180822 IMCT                IMCT                                                                                                                    WMF1808224.TXT
MDEDJ8303225201808                D89828070100PV4D20180828000030SPEAKER ASM                   M IMCTM S0FL05 TNTH  09020IMCT  S0 PTB  00004                    0230 SR        000000000000 DENSO TEN (THAILAND)18029XU0001001                                                                                                                              *          20180822 IMCT                IMCT                                                                                                                    WMF1808224.TXT
MDEDJ8303226201808                D89828070100PV4D20180828000030SPEAKER ASM                   M IMCTM S0FL05 TNTH  09020IMCT  S0 PTB  00004                    0400 SR        000000000000 DENSO TEN (THAILAND)18001VU0009009                                                                                                                              *          20180822 IMCT                IMCT                                                                                                                    WMF1808224.TXT
MDEDJ8303227201808                D89828070100PV4D20180828000060SPEAKER ASM                   M IMCTM S0FL05 TNTH  09020IMCT  S0 PTB  00004                    1300 SR        000000000000 DENSO TEN (THAILAND)18061UU002502518063UU0049049                                                                                                                *          20180822 IMCT                IMCT                                                                                                                    WMF1808224.TXT
MDEDJ8303228201808                D89828070100PV4D20180828000030SPEAKER ASM                   M IMCTM S0FL05 TNTH  09020IMCT  S0 PTB  00004                    1600 SR        000000000000 DENSO TEN (THAILAND)18063UU0050050                                                                                                                              *          20180822 IMCT                IMCT                                                                                                                    WMF1808224.TXT
MDEDJ8303229201808                D89828070200PV1D20180827000030SPEAKER ASM                   M IMCTM S5MA14 TNTH  09020IMCT  S5 PTB  00005                    2230 SR        000000000000 DENSO TEN (THAILAND)17033QL0090090                                                                                                                              *          20180822 IMCT                IMCT                                                                                                                    WMF1808224.TXT
MDEDJ8303230201808                D89828070200PV1D20180828000030SPEAKER ASM                   M IMCTM S5MA14 TNTH  09020IMCT  S5 PTB  00005                    0230 SR        000000000000 DENSO TEN (THAILAND)17033QL0091091                                                                                                                              *          20180822 IMCT                IMCT                                                                                                                    WMF1808224.TXT
MDEDJ8303231201808                D89828070200PV1D20180828000030SPEAKER ASM                   M IMCTM S5MA14 TNTH  09020IMCT  S5 PTB  00005                    1600 SR        000000000000 DENSO TEN (THAILAND)18056XL0016016                                                                                                                              *          20180822 IMCT                IMCT                                                                                                                    WMF1808224.TXT
MDEDJ8303232201808                D89828070200PV4D20180828000030SPEAKER ASM                   M IMCTM S0FR05 TNTH  09020IMCT  S0 PTB  00005                    0400 SR        000000000000 DENSO TEN (THAILAND)18001VU0009009                                                                                                                              *          20180822 IMCT                IMCT                                                                                                                    WMF1808224.TXT
MDEDJ8303233201808                D89828070300PT1D20180827000030SPEAKER ASM                   M IMCTM S5NB082TNTH  09020IMCT  S5 PTB  00015                    2230 SR        000000000000 DENSO TEN (THAILAND)17033QL0090090                                                                                                                              *          20180822 IMCT                IMCT                                                                                                                    WMF1808224.TXT
MDEDJ8303234201808                D89828070300PT1D20180828000030SPEAKER ASM                   M IMCTM S5NB082TNTH  09020IMCT  S5 PTB  00015                    0230 SR        000000000000 DENSO TEN (THAILAND)17033QL0091091                                                                                                                              *          20180822 IMCT                IMCT                                                                                                                    WMF1808224.TXT
MDEDJ8303235201808                D89828070300PT1D20180828000060SPEAKER ASM                   M IMCTM S5NB082TNTH  09020IMCT  S5 PTB  00015                    1600 SR        000000000000 DENSO TEN (THAILAND)18010XL000100118056XL0016016                                                                                                                *          20180822 IMCT                IMCT                                                                                                                    WMF1808224.TXT
MDEDJ8303236201808                D89828070300PT4D20180828000030SPEAKER ASM                   M IMCTM S9TS02 TNTH  09020IMCT  S9 PTB  00015                    0230 SR        000000000000 DENSO TEN (THAILAND)18029XU0001001                                                                                                                              *          20180822 IMCT                IMCT                                                                                                                    WMF1808224.TXT
MDEDJ8303237201808                D89828070300PT4D20180828000030SPEAKER ASM                   M IMCTM S9TS02 TNTH  09020IMCT  S9 PTB  00015                    0400 SR        000000000000 DENSO TEN (THAILAND)18001VU0009009                                                                                                                              *          20180822 IMCT                IMCT                                                                                                                    WMF1808224.TXT
MDEDJ8303238201808                D89828070300PT4D20180828000060SPEAKER ASM                   M IMCTM S9TS02 TNTH  09020IMCT  S9 PTB  00015                    1300 SR        000000000000 DENSO TEN (THAILAND)18061UU002502518063UU0049049                                                                                                                *          20180822 IMCT                IMCT                                                                                                                    WMF1808224.TXT
MDEDJ8303239201808                D89828070300PT4D20180828000030SPEAKER ASM                   M IMCTM S9TS02 TNTH  09020IMCT  S9 PTB  00015                    1600 SR        000000000000 DENSO TEN (THAILAND)18063UU0050050                                                                                                                              *          20180822 IMCT                IMCT                                                                                                                    WMF1808224.TXT
MDEDJ8303240201808                D89831228700PT1D20180828000015RADIO;AM/FM,CD                M IMCTM S5NC06 TNTH  09020IMCT  S5 PTB  00003                    1600 SR        000000000000 DENSO TEN (THAILAND)18010XL0001001                                                                                                                              *          20180822 IMCT                IMCT                                                                                                                    WMF1808224.TXT
MDEDJ8303241201808                D89831229200PT1D20180827000015RADIO;AM/FM,CD                M IMCTM S5NC06 TNTH  09020IMCT  S5 PTB  00003                    2230 SR        000000000000 DENSO TEN (THAILAND)17033QL0090090                                                                                                                              *          20180822 IMCT                IMCT                                                                                                                    WMF1808224.TXT
MDEDJ8303242201808                D89831229200PT1D20180828000015RADIO;AM/FM,CD                M IMCTM S5NC06 TNTH  09020IMCT  S5 PTB  00003                    0230 SR        000000000000 DENSO TEN (THAILAND)17033QL0091091                                                                                                                              *          20180822 IMCT                IMCT                                                                                                                    WMF1808224.TXT
MDEDJ8303243201808                D89848581800PT4D20180828000030RADIO;AM/FM CD D              M IMCTM S9CO001TNTH  09020IMCT  S9 PTB  00003                    1300 SR        000000000000 DENSO TEN (THAILAND)18061UU002502518063UU0049049                                                                                                                *          20180822 IMCT                IMCT                                                                                                                    WMF1808224.TXT
MDEDJ8303244201808                D89848581800PT4D20180828000015RADIO;AM/FM CD D              M IMCTM S9CO001TNTH  09020IMCT  S9 PTB  00003                    1600 SR        000000000000 DENSO TEN (THAILAND)18063UU0050050                                                                                                                              *          20180822 IMCT                IMCT                                                                                                                    WMF1808224.TXT
MDEUJ8231676201808                D89828070100PT4U20180827000030SPEAKER ASM                   M IMCTM S0FL05 TNTH  09020IMCT  S0 PTB  00004                    2230 SR        000000000000 DENSO TEN (THAILAND)180D06U0004004                                                                                                                              *          20180822 IMCT                IMCT                                                                                                                    WMF1808224.TXT
MDEUJ8231677201808                D89828070100PT4U20180828000030SPEAKER ASM                   M IMCTM S0FL05 TNTH  09020IMCT  S0 PTB  00004                    0830 SR        000000000000 DENSO TEN (THAILAND)180D06U0005005                                                                                                                              *          20180822 IMCT                IMCT                                                                                                                    WMF1808224.TXT
MDEUJ8231678201808                D89828070200PV4U20180827000030SPEAKER ASM                   M IMCTM S0FR05 TNTH  09020IMCT  S0 PTB  00005                    2230 SR        000000000000 DENSO TEN (THAILAND)180D06U0004004                                                                                                                              *          20180822 IMCT                IMCT                                                                                                                    WMF1808224.TXT
MDEUJ8231679201808                D89828070200PV4U20180828000030SPEAKER ASM                   M IMCTM S0FR05 TNTH  09020IMCT  S0 PTB  00005                    0830 SR        000000000000 DENSO TEN (THAILAND)180D06U0005005                                                                                                                              *          20180822 IMCT                IMCT                                                                                                                    WMF1808224.TXT
MDEUJ8231680201808                D89828070300PT4U20180827000030SPEAKER ASM                   M IMCTM S9TS02 TNTH  09020IMCT  S9 PTB  00015                    2230 SR        000000000000 DENSO TEN (THAILAND)180D06U0004004                                                                                                                              *          20180822 IMCT                IMCT                                                                                                                    WMF1808224.TXT
MDEUJ8231681201808                D89828070300PT4U20180828000030SPEAKER ASM                   M IMCTM S9TS02 TNTH  09020IMCT  S9 PTB  00015                    0830 SR        000000000000 DENSO TEN (THAILAND)180D06U0005005                                                                                                                              *          20180822 IMCT                IMCT                                                                                                                    WMF1808224.TXT
