REC2018082920180829ISUZU                              57     
MDDDJ8307024201809                D89821984430PT1D20180904000030RADIO;AM/FM,CD                M IMCTM S5NC06 TNTH  09020IMCT  S5 PTB  00005                    0230 SR        000000000000 DENSO TEN (THAILAND)180LPAL0215215                                                                                                                              *          20180829 IMCT                IMCT                                                                                                                    WMF1808294.TXT
MDDDJ8307025201809                D89821984430PT1D20180904000030RADIO;AM/FM,CD                M IMCTM S5NC06 TNTH  09020IMCT  S5 PTB  00005                    0400 SR        000000000000 DENSO TEN (THAILAND)180LRAL0245245                                                                                                                              *          20180829 IMCT                IMCT                                                                                                                    WMF1808294.TXT
MDDDJ8307026201809                D89821984430PT1D20180904000030RADIO;AM/FM,CD                M IMCTM S5NC06 TNTH  09020IMCT  S5 PTB  00005                    0830 SR        000000000000 DENSO TEN (THAILAND)180LRBL0055055                                                                                                                              *          20180829 IMCT                IMCT                                                                                                                    WMF1808294.TXT
MDDDJ8307027201809                D89821984430PT1D20180904000030RADIO;AM/FM,CD                M IMCTM S5NC06 TNTH  09020IMCT  S5 PTB  00005                    1600 SR        000000000000 DENSO TEN (THAILAND)180LXCL0082082                                                                                                                              *          20180829 IMCT                IMCT                                                                                                                    WMF1808294.TXT
MDDDJ8307028201809                D89821984430PT1D20180904000030RADIO;AM/FM,CD                M IMCTM S5NC06 TNTH  09020IMCT  S5 PTB  00005                    2100 SR        000000000000 DENSO TEN (THAILAND)180LXEL0083083                                                                                                                              *          20180829 IMCT                IMCT                                                                                                                    WMF1808294.TXT
MDDDJ8307029201809                D89821984430PT4D20180904000030RADIO;AM/FM,CD                M IMCTM S9CO001TNTH  09020IMCT  S9 PTB  00005                    1600 SR        000000000000 DENSO TEN (THAILAND)180LRAU0010010                                                                                                                              *          20180829 IMCT                IMCT                                                                                                                    WMF1808294.TXT
MDDDJ8307030201809                D89828070100PV1D20180904000060SPEAKER ASM                   M IMCTM S5MB11 TNTH  09020IMCT  S5 PTB  00004                    0230 SR        000000000000 DENSO TEN (THAILAND)180LPAL0215215                                                                                                                              *          20180829 IMCT                IMCT                                                                                                                    WMF1808294.TXT
MDDDJ8307031201809                D89828070100PV1D20180904000060SPEAKER ASM                   M IMCTM S5MB11 TNTH  09020IMCT  S5 PTB  00004                    0400 SR        000000000000 DENSO TEN (THAILAND)180LRAL0245245                                                                                                                              *          20180829 IMCT                IMCT                                                                                                                    WMF1808294.TXT
MDDDJ8307032201809                D89828070100PV1D20180904000060SPEAKER ASM                   M IMCTM S5MB11 TNTH  09020IMCT  S5 PTB  00004                    0830 SR        000000000000 DENSO TEN (THAILAND)180LRBL0055055                                                                                                                              *          20180829 IMCT                IMCT                                                                                                                    WMF1808294.TXT
MDDDJ8307033201809                D89828070100PV1D20180904000120SPEAKER ASM                   M IMCTM S5MB11 TNTH  09020IMCT  S5 PTB  00004                    1300 SR        000000000000 DENSO TEN (THAILAND)180LPCL0083083180LPFL0082082                                                                                                                *          20180829 IMCT                IMCT                                                                                                                    WMF1808294.TXT
MDDDJ8307034201809                D89828070100PV1D20180904000060SPEAKER ASM                   M IMCTM S5MB11 TNTH  09020IMCT  S5 PTB  00004                    1600 SR        000000000000 DENSO TEN (THAILAND)180LXCL0082082                                                                                                                              *          20180829 IMCT                IMCT                                                                                                                    WMF1808294.TXT
MDDDJ8307035201809                D89828070100PV1D20180904000060SPEAKER ASM                   M IMCTM S5MB11 TNTH  09020IMCT  S5 PTB  00004                    2100 SR        000000000000 DENSO TEN (THAILAND)180LXEL0083083                                                                                                                              *          20180829 IMCT                IMCT                                                                                                                    WMF1808294.TXT
MDDDJ8307036201809                D89828070100PV4D20180904000060SPEAKER ASM                   M IMCTM S0FL05 TNTH  09020IMCT  S0 PTB  00004                    1600 SR        000000000000 DENSO TEN (THAILAND)180LRAU0010010                                                                                                                              *          20180829 IMCT                IMCT                                                                                                                    WMF1808294.TXT
MDDDJ8307037201809                D89828070300PT1D20180904000120SPEAKER ASM                   M IMCTM S5NB082TNTH  09020IMCT  S5 PTB  00015                    1300 SR        000000000000 DENSO TEN (THAILAND)180LPCL0083083180LPFL0082082                                                                                                                *          20180829 IMCT                IMCT                                                                                                                    WMF1808294.TXT
MDDDJ8307038201809                D89831228300PT1D20180904000060RADIO;AM/FM,CD                M IMCTM S5NC06 TNTH  09020IMCT  S5 CPB  00003                    1300 SR        000000000000 DENSO TEN (THAILAND)180LPCL0083083180LPFL0082082                                                                                                                *          20180829 IMCT                IMCT                                                                                                                    WMF1808294.TXT
MDDUJ8243486201809                D89828070100PT4U20180904000030SPEAKER ASM                   M IMCTM S0FL05 TNTH  09020IMCT  S0 PTB  00004                    0230 SR        000000000000 DENSO TEN (THAILAND)180LUSU0164164                                                                                                                              *          20180829 IMCT                IMCT                                                                                                                    WMF1808294.TXT
MDDUJ8243487201809                D89828070100PT4U20180904000030SPEAKER ASM                   M IMCTM S0FL05 TNTH  09020IMCT  S0 PTB  00004                    1300 SR        000000000000 DENSO TEN (THAILAND)180LULU0048048                                                                                                                              *          20180829 IMCT                IMCT                                                                                                                    WMF1808294.TXT
MDDUJ8243488201809                D89828070200PV4U20180904000030SPEAKER ASM                   M IMCTM S0FR05 TNTH  09020IMCT  S0 PTB  00005                    0230 SR        000000000000 DENSO TEN (THAILAND)180LUSU0164164                                                                                                                              *          20180829 IMCT                IMCT                                                                                                                    WMF1808294.TXT
MDDUJ8243489201809                D89828070200PV4U20180904000030SPEAKER ASM                   M IMCTM S0FR05 TNTH  09020IMCT  S0 PTB  00005                    1300 SR        000000000000 DENSO TEN (THAILAND)180LULU0048048                                                                                                                              *          20180829 IMCT                IMCT                                                                                                                    WMF1808294.TXT
MDDUJ8243490201809                D89828070300PT4U20180904000030SPEAKER ASM                   M IMCTM S9TS02 TNTH  09020IMCT  S9 PTB  00015                    0230 SR        000000000000 DENSO TEN (THAILAND)180LUSU0164164                                                                                                                              *          20180829 IMCT                IMCT                                                                                                                    WMF1808294.TXT
MDDUJ8243491201809                D89828070300PT4U20180904000030SPEAKER ASM                   M IMCTM S9TS02 TNTH  09020IMCT  S9 PTB  00015                    1300 SR        000000000000 DENSO TEN (THAILAND)180LULU0048048                                                                                                                              *          20180829 IMCT                IMCT                                                                                                                    WMF1808294.TXT
MDEDJ8337758201809                D89828070100PV1D20180903000060SPEAKER ASM                   M IMCTM S5MB11 TNTH  09020IMCT  S5 PTB  00004                    2230 SR        000000000000 DENSO TEN (THAILAND)17016VL0017018                                                                                                                              *          20180829 IMCT                IMCT                                                                                                                    WMF1808294.TXT
MDEDJ8337759201809                D89828070100PV1D20180904000030SPEAKER ASM                   M IMCTM S5MB11 TNTH  09020IMCT  S5 PTB  00004                    0230 SR        000000000000 DENSO TEN (THAILAND)17075QL0011011                                                                                                                              *          20180829 IMCT                IMCT                                                                                                                    WMF1808294.TXT
MDEDJ8337760201809                D89828070100PV1D20180904000030SPEAKER ASM                   M IMCTM S5MB11 TNTH  09020IMCT  S5 PTB  00004                    0400 SR        000000000000 DENSO TEN (THAILAND)17075QL0012012                                                                                                                              *          20180829 IMCT                IMCT                                                                                                                    WMF1808294.TXT
MDEDJ8337761201809                D89828070100PV1D20180904000060SPEAKER ASM                   M IMCTM S5MB11 TNTH  09020IMCT  S5 PTB  00004                    0830 SR        000000000000 DENSO TEN (THAILAND)17033QL0094095                                                                                                                              *          20180829 IMCT                IMCT                                                                                                                    WMF1808294.TXT
MDEDJ8337762201809                D89828070100PV1D20180904000030SPEAKER ASM                   M IMCTM S5MB11 TNTH  09020IMCT  S5 PTB  00004                    1030 SR        000000000000 DENSO TEN (THAILAND)170C94L0003003                                                                                                                              *          20180829 IMCT                IMCT                                                                                                                    WMF1808294.TXT
MDEDJ8337763201809                D89828070100PV1D20180904000030SPEAKER ASM                   M IMCTM S5MB11 TNTH  09020IMCT  S5 PTB  00004                    1300 SR        000000000000 DENSO TEN (THAILAND)18002XL0002002                                                                                                                              *          20180829 IMCT                IMCT                                                                                                                    WMF1808294.TXT
MDEDJ8337764201809                D89828070100PV1D20180904000120SPEAKER ASM                   M IMCTM S5MB11 TNTH  09020IMCT  S5 PTB  00004                    1600 SR        000000000000 DENSO TEN (THAILAND)180G86L000100218050XL0001002                                                                                                                *          20180829 IMCT                IMCT                                                                                                                    WMF1808294.TXT
MDEDJ8337765201809                D89828070100PV4D20180904000030SPEAKER ASM                   M IMCTM S0FL05 TNTH  09020IMCT  S0 PTB  00004                    0400 SR        000000000000 DENSO TEN (THAILAND)18082UU0017017                                                                                                                              *          20180829 IMCT                IMCT                                                                                                                    WMF1808294.TXT
MDEDJ8337766201809                D89828070100PV4D20180904000030SPEAKER ASM                   M IMCTM S0FL05 TNTH  09020IMCT  S0 PTB  00004                    1030 SR        000000000000 DENSO TEN (THAILAND)18099UU0028028                                                                                                                              *          20180829 IMCT                IMCT                                                                                                                    WMF1808294.TXT
MDEDJ8337767201809                D89828070200PV1D20180904000060SPEAKER ASM                   M IMCTM S5MA14 TNTH  09020IMCT  S5 PTB  00005                    0830 SR        000000000000 DENSO TEN (THAILAND)17033QL0094095                                                                                                                              *          20180829 IMCT                IMCT                                                                                                                    WMF1808294.TXT
MDEDJ8337768201809                D89828070200PV1D20180904000120SPEAKER ASM                   M IMCTM S5MA14 TNTH  09020IMCT  S5 PTB  00005                    1600 SR        000000000000 DENSO TEN (THAILAND)180G86L000100218050XL0001002                                                                                                                *          20180829 IMCT                IMCT                                                                                                                    WMF1808294.TXT
MDEDJ8337769201809                D89828070200PV4D20180904000030SPEAKER ASM                   M IMCTM S0FR05 TNTH  09020IMCT  S0 PTB  00005                    0400 SR        000000000000 DENSO TEN (THAILAND)18082UU0017017                                                                                                                              *          20180829 IMCT                IMCT                                                                                                                    WMF1808294.TXT
MDEDJ8337770201809                D89828070200PV4D20180904000030SPEAKER ASM                   M IMCTM S0FR05 TNTH  09020IMCT  S0 PTB  00005                    1030 SR        000000000000 DENSO TEN (THAILAND)18099UU0028028                                                                                                                              *          20180829 IMCT                IMCT                                                                                                                    WMF1808294.TXT
MDEDJ8337771201809                D89828070300PT1D20180904000060SPEAKER ASM                   M IMCTM S5NB082TNTH  09020IMCT  S5 PTB  00015                    0830 SR        000000000000 DENSO TEN (THAILAND)17033QL0094095                                                                                                                              *          20180829 IMCT                IMCT                                                                                                                    WMF1808294.TXT
MDEDJ8337772201809                D89828070300PT1D20180904000120SPEAKER ASM                   M IMCTM S5NB082TNTH  09020IMCT  S5 PTB  00015                    1600 SR        000000000000 DENSO TEN (THAILAND)180G86L000100218050XL0001002                                                                                                                *          20180829 IMCT                IMCT                                                                                                                    WMF1808294.TXT
MDEDJ8337773201809                D89828070300PT4D20180904000030SPEAKER ASM                   M IMCTM S9TS02 TNTH  09020IMCT  S9 PTB  00015                    0400 SR        000000000000 DENSO TEN (THAILAND)18082UU0017017                                                                                                                              *          20180829 IMCT                IMCT                                                                                                                    WMF1808294.TXT
MDEDJ8337774201809                D89828070300PT4D20180904000030SPEAKER ASM                   M IMCTM S9TS02 TNTH  09020IMCT  S9 PTB  00015                    1030 SR        000000000000 DENSO TEN (THAILAND)18099UU0028028                                                                                                                              *          20180829 IMCT                IMCT                                                                                                                    WMF1808294.TXT
MDEDJ8337775201809                D89831228800PT1D20180904000030RADIO;AM/FM,CD                M IMCTM S5NC06 TNTH  09020IMCT  S5 PTB  00003                    1600 SR        000000000000 DENSO TEN (THAILAND)180G86L0001002                                                                                                                              *          20180829 IMCT                IMCT                                                                                                                    WMF1808294.TXT
MDEDJ8337776201809                D89831229200PT1D20180904000030RADIO;AM/FM,CD                M IMCTM S5NC06 TNTH  09020IMCT  S5 PTB  00003                    0830 SR        000000000000 DENSO TEN (THAILAND)17033QL0094095                                                                                                                              *          20180829 IMCT                IMCT                                                                                                                    WMF1808294.TXT
MDEDJ8337777201809                D89848581800PT4D20180904000015RADIO;AM/FM CD D              M IMCTM S9CO001TNTH  09020IMCT  S9 PTB  00003                    0400 SR        000000000000 DENSO TEN (THAILAND)18082UU0017017                                                                                                                              *          20180829 IMCT                IMCT                                                                                                                    WMF1808294.TXT
MDEUJ8243201201809                D89828070100PT4U20180903000030SPEAKER ASM                   M IMCTM S0FL05 TNTH  09020IMCT  S0 PTB  00004                    2230 SR        000000000000 DENSO TEN (THAILAND)18019UU0026026                                                                                                                              *          20180829 IMCT                IMCT                                                                                                                    WMF1808294.TXT
MDEUJ8243202201809                D89828070100PT4U20180904000030SPEAKER ASM                   M IMCTM S0FL05 TNTH  09020IMCT  S0 PTB  00004                    0400 SR        000000000000 DENSO TEN (THAILAND)18015UU0040040                                                                                                                              *          20180829 IMCT                IMCT                                                                                                                    WMF1808294.TXT
MDEUJ8243203201809                D89828070100PT4U20180904000030SPEAKER ASM                   M IMCTM S0FL05 TNTH  09020IMCT  S0 PTB  00004                    1030 SR        000000000000 DENSO TEN (THAILAND)180D06U0009009                                                                                                                              *          20180829 IMCT                IMCT                                                                                                                    WMF1808294.TXT
MDEUJ8243204201809                D89828070100PT4U20180904000060SPEAKER ASM                   M IMCTM S0FL05 TNTH  09020IMCT  S0 PTB  00004                    1600 SR        000000000000 DENSO TEN (THAILAND)18020UU010610618021UU0160160                                                                                                                *          20180829 IMCT                IMCT                                                                                                                    WMF1808294.TXT
MDEUJ8243205201809                D89828070100PT4U20180904000030SPEAKER ASM                   M IMCTM S0FL05 TNTH  09020IMCT  S0 PTB  00004                    2230 SR        000000000000 DENSO TEN (THAILAND)18018UU0009009                                                                                                                              *          20180829 IMCT                IMCT                                                                                                                    WMF1808294.TXT
MDEUJ8243206201809                D89828070200PV4U20180903000030SPEAKER ASM                   M IMCTM S0FR05 TNTH  09020IMCT  S0 PTB  00005                    2230 SR        000000000000 DENSO TEN (THAILAND)18019UU0026026                                                                                                                              *          20180829 IMCT                IMCT                                                                                                                    WMF1808294.TXT
MDEUJ8243207201809                D89828070200PV4U20180904000030SPEAKER ASM                   M IMCTM S0FR05 TNTH  09020IMCT  S0 PTB  00005                    0400 SR        000000000000 DENSO TEN (THAILAND)18015UU0040040                                                                                                                              *          20180829 IMCT                IMCT                                                                                                                    WMF1808294.TXT
MDEUJ8243208201809                D89828070200PV4U20180904000030SPEAKER ASM                   M IMCTM S0FR05 TNTH  09020IMCT  S0 PTB  00005                    1030 SR        000000000000 DENSO TEN (THAILAND)180D06U0009009                                                                                                                              *          20180829 IMCT                IMCT                                                                                                                    WMF1808294.TXT
MDEUJ8243209201809                D89828070200PV4U20180904000060SPEAKER ASM                   M IMCTM S0FR05 TNTH  09020IMCT  S0 PTB  00005                    1600 SR        000000000000 DENSO TEN (THAILAND)18020UU010610618021UU0160160                                                                                                                *          20180829 IMCT                IMCT                                                                                                                    WMF1808294.TXT
MDEUJ8243210201809                D89828070200PV4U20180904000030SPEAKER ASM                   M IMCTM S0FR05 TNTH  09020IMCT  S0 PTB  00005                    2230 SR        000000000000 DENSO TEN (THAILAND)18018UU0009009                                                                                                                              *          20180829 IMCT                IMCT                                                                                                                    WMF1808294.TXT
MDEUJ8243211201809                D89828070300PT4U20180903000030SPEAKER ASM                   M IMCTM S9TS02 TNTH  09020IMCT  S9 PTB  00015                    2230 SR        000000000000 DENSO TEN (THAILAND)18019UU0026026                                                                                                                              *          20180829 IMCT                IMCT                                                                                                                    WMF1808294.TXT
MDEUJ8243212201809                D89828070300PT4U20180904000030SPEAKER ASM                   M IMCTM S9TS02 TNTH  09020IMCT  S9 PTB  00015                    0400 SR        000000000000 DENSO TEN (THAILAND)18015UU0040040                                                                                                                              *          20180829 IMCT                IMCT                                                                                                                    WMF1808294.TXT
MDEUJ8243213201809                D89828070300PT4U20180904000030SPEAKER ASM                   M IMCTM S9TS02 TNTH  09020IMCT  S9 PTB  00015                    1030 SR        000000000000 DENSO TEN (THAILAND)180D06U0009009                                                                                                                              *          20180829 IMCT                IMCT                                                                                                                    WMF1808294.TXT
MDEUJ8243214201809                D89828070300PT4U20180904000060SPEAKER ASM                   M IMCTM S9TS02 TNTH  09020IMCT  S9 PTB  00015                    1600 SR        000000000000 DENSO TEN (THAILAND)18020UU010610618021UU0160160                                                                                                                *          20180829 IMCT                IMCT                                                                                                                    WMF1808294.TXT
MDEUJ8243215201809                D89828070300PT4U20180904000030SPEAKER ASM                   M IMCTM S9TS02 TNTH  09020IMCT  S9 PTB  00015                    2230 SR        000000000000 DENSO TEN (THAILAND)18018UU0009009                                                                                                                              *          20180829 IMCT                IMCT                                                                                                                    WMF1808294.TXT
MDEUJ8243216201809                D89848584700PT4U20180903000015RADIO;AM/FM CD D              M IMCTM S9CO001TNTH  09020IMCT  S9 PTB  00003                    2230 SR        000000000000 DENSO TEN (THAILAND)18019UU0026026                                                                                                                              *          20180829 IMCT                IMCT                                                                                                                    WMF1808294.TXT
