REC2018081620180816ISUZU                              50     
MDDDJ8253301201808                D89821984430PT1D20180821000030RADIO;AM/FM,CD                M IMCTM S5NC06 TNTH  09020IMCT  S5 PTB  00005                    0230 SR        000000000000 DENSO TEN (THAILAND)180LNGL0183183                                                                                                                              *          20180816 IMCT                IMCT                                                                                                                    WMF1808163.TXT
MDDDJ8253302201808                D89821984430PT1D20180821000030RADIO;AM/FM,CD                M IMCTM S5NC06 TNTH  09020IMCT  S5 PTB  00005                    0400 SR        000000000000 DENSO TEN (THAILAND)180LRAL0230230                                                                                                                              *          20180816 IMCT                IMCT                                                                                                                    WMF1808163.TXT
MDDDJ8253303201808                D89821984430PT1D20180821000060RADIO;AM/FM,CD                M IMCTM S5NC06 TNTH  09020IMCT  S5 PTB  00005                    1300 SR        000000000000 DENSO TEN (THAILAND)180LNGL0184184180LRAL0231231                                                                                                                *          20180816 IMCT                IMCT                                                                                                                    WMF1808163.TXT
MDDDJ8253304201808                D89821984430PT1D20180821000030RADIO;AM/FM,CD                M IMCTM S5NC06 TNTH  09020IMCT  S5 PTB  00005                    1600 SR        000000000000 DENSO TEN (THAILAND)180LNHL0062062                                                                                                                              *          20180816 IMCT                IMCT                                                                                                                    WMF1808163.TXT
MDDDJ8253305201808                D89821984430PT4D20180821000030RADIO;AM/FM,CD                M IMCTM S9CO001TNTH  09020IMCT  S9 PTB  00005                    1300 SR        000000000000 DENSO TEN (THAILAND)180LPAU0004004                                                                                                                              *          20180816 IMCT                IMCT                                                                                                                    WMF1808163.TXT
MDDDJ8253306201808                D89828070100PV1D20180820000060SPEAKER ASM                   M IMCTM S5MB11 TNTH  09020IMCT  S5 PTB  00004                    2230 SR        000000000000 DENSO TEN (THAILAND)180LXAL0043043                                                                                                                              *          20180816 IMCT                IMCT                                                                                                                    WMF1808163.TXT
MDDDJ8253307201808                D89828070100PV1D20180821000060SPEAKER ASM                   M IMCTM S5MB11 TNTH  09020IMCT  S5 PTB  00004                    0230 SR        000000000000 DENSO TEN (THAILAND)180LNGL0183183                                                                                                                              *          20180816 IMCT                IMCT                                                                                                                    WMF1808163.TXT
MDDDJ8253308201808                D89828070100PV1D20180821000060SPEAKER ASM                   M IMCTM S5MB11 TNTH  09020IMCT  S5 PTB  00004                    0400 SR        000000000000 DENSO TEN (THAILAND)180LRAL0230230                                                                                                                              *          20180816 IMCT                IMCT                                                                                                                    WMF1808163.TXT
MDDDJ8253309201808                D89828070100PV1D20180821000060SPEAKER ASM                   M IMCTM S5MB11 TNTH  09020IMCT  S5 PTB  00004                    0830 SR        000000000000 DENSO TEN (THAILAND)180LXAL0044044                                                                                                                              *          20180816 IMCT                IMCT                                                                                                                    WMF1808163.TXT
MDDDJ8253310201808                D89828070100PV1D20180821000120SPEAKER ASM                   M IMCTM S5MB11 TNTH  09020IMCT  S5 PTB  00004                    1300 SR        000000000000 DENSO TEN (THAILAND)180LNGL0184184180LRAL0231231                                                                                                                *          20180816 IMCT                IMCT                                                                                                                    WMF1808163.TXT
MDDDJ8253311201808                D89828070100PV1D20180821000060SPEAKER ASM                   M IMCTM S5MB11 TNTH  09020IMCT  S5 PTB  00004                    1600 SR        000000000000 DENSO TEN (THAILAND)180LNHL0062062                                                                                                                              *          20180816 IMCT                IMCT                                                                                                                    WMF1808163.TXT
MDDDJ8253312201808                D89828070100PV1D20180821000060SPEAKER ASM                   M IMCTM S5MB11 TNTH  09020IMCT  S5 PTB  00004                    2100 SR        000000000000 DENSO TEN (THAILAND)180LPML0026026                                                                                                                              *          20180816 IMCT                IMCT                                                                                                                    WMF1808163.TXT
MDDDJ8253313201808                D89828070100PV4D20180821000060SPEAKER ASM                   M IMCTM S0FL05 TNTH  09020IMCT  S0 PTB  00004                    1300 SR        000000000000 DENSO TEN (THAILAND)180LPAU0004004                                                                                                                              *          20180816 IMCT                IMCT                                                                                                                    WMF1808163.TXT
MDDDJ8253314201808                D89828070300PT1D20180821000060SPEAKER ASM                   M IMCTM S5NB082TNTH  09020IMCT  S5 PTB  00015                    2100 SR        000000000000 DENSO TEN (THAILAND)180LPML0026026                                                                                                                              *          20180816 IMCT                IMCT                                                                                                                    WMF1808163.TXT
MDDUJ8220628201808                D89828070100PT4U20180821000030SPEAKER ASM                   M IMCTM S0FL05 TNTH  09020IMCT  S0 PTB  00004                    0400 SR        000000000000 DENSO TEN (THAILAND)180LUTU0110110                                                                                                                              *          20180816 IMCT                IMCT                                                                                                                    WMF1808163.TXT
MDDUJ8220629201808                D89828070100PT4U20180821000030SPEAKER ASM                   M IMCTM S0FL05 TNTH  09020IMCT  S0 PTB  00004                    1300 SR        000000000000 DENSO TEN (THAILAND)180LUSU0154154                                                                                                                              *          20180816 IMCT                IMCT                                                                                                                    WMF1808163.TXT
MDDUJ8220630201808                D89828070100PT4U20180821000030SPEAKER ASM                   M IMCTM S0FL05 TNTH  09020IMCT  S0 PTB  00004                    2230 SR        000000000000 DENSO TEN (THAILAND)180LUPU0033033                                                                                                                              *          20180816 IMCT                IMCT                                                                                                                    WMF1808163.TXT
MDDUJ8220631201808                D89828070200PV4U20180821000030SPEAKER ASM                   M IMCTM S0FR05 TNTH  09020IMCT  S0 PTB  00005                    0400 SR        000000000000 DENSO TEN (THAILAND)180LUTU0110110                                                                                                                              *          20180816 IMCT                IMCT                                                                                                                    WMF1808163.TXT
MDDUJ8220632201808                D89828070200PV4U20180821000030SPEAKER ASM                   M IMCTM S0FR05 TNTH  09020IMCT  S0 PTB  00005                    1300 SR        000000000000 DENSO TEN (THAILAND)180LUSU0154154                                                                                                                              *          20180816 IMCT                IMCT                                                                                                                    WMF1808163.TXT
MDDUJ8220633201808                D89828070200PV4U20180821000030SPEAKER ASM                   M IMCTM S0FR05 TNTH  09020IMCT  S0 PTB  00005                    2230 SR        000000000000 DENSO TEN (THAILAND)180LUPU0033033                                                                                                                              *          20180816 IMCT                IMCT                                                                                                                    WMF1808163.TXT
MDDUJ8220634201808                D89828070300PT4U20180821000030SPEAKER ASM                   M IMCTM S9TS02 TNTH  09020IMCT  S9 PTB  00015                    0400 SR        000000000000 DENSO TEN (THAILAND)180LUTU0110110                                                                                                                              *          20180816 IMCT                IMCT                                                                                                                    WMF1808163.TXT
MDDUJ8220635201808                D89828070300PT4U20180821000030SPEAKER ASM                   M IMCTM S9TS02 TNTH  09020IMCT  S9 PTB  00015                    1300 SR        000000000000 DENSO TEN (THAILAND)180LUSU0154154                                                                                                                              *          20180816 IMCT                IMCT                                                                                                                    WMF1808163.TXT
MDDUJ8220636201808                D89828070300PT4U20180821000030SPEAKER ASM                   M IMCTM S9TS02 TNTH  09020IMCT  S9 PTB  00015                    2230 SR        000000000000 DENSO TEN (THAILAND)180LUPU0033033                                                                                                                              *          20180816 IMCT                IMCT                                                                                                                    WMF1808163.TXT
MDDUJ8220637201808                D89831228400PT4U20180821000015RADIO;AM/FM,CD                M IMCTM S9CO001TNTH  09020IMCT  S9 CPB  00003                    2230 SR        000000000000 DENSO TEN (THAILAND)180LUPU0033033                                                                                                                              *          20180816 IMCT                IMCT                                                                                                                    WMF1808163.TXT
MDEDJ8267680201808                D89828070100PV1D20180820000030SPEAKER ASM                   M IMCTM S5MB11 TNTH  09020IMCT  S5 PTB  00004                    2230 SR        000000000000 DENSO TEN (THAILAND)18005XL0009009                                                                                                                              *          20180816 IMCT                IMCT                                                                                                                    WMF1808163.TXT
MDEDJ8267681201808                D89828070100PV1D20180821000060SPEAKER ASM                   M IMCTM S5MB11 TNTH  09020IMCT  S5 PTB  00004                    0230 SR        000000000000 DENSO TEN (THAILAND)17033QL0086087                                                                                                                              *          20180816 IMCT                IMCT                                                                                                                    WMF1808163.TXT
MDEDJ8267682201808                D89828070100PV1D20180821000060SPEAKER ASM                   M IMCTM S5MB11 TNTH  09020IMCT  S5 PTB  00004                    0830 SR        000000000000 DENSO TEN (THAILAND)18099UL0095096                                                                                                                              *          20180816 IMCT                IMCT                                                                                                                    WMF1808163.TXT
MDEDJ8267683201808                D89828070100PV1D20180821000030SPEAKER ASM                   M IMCTM S5MB11 TNTH  09020IMCT  S5 PTB  00004                    1030 SR        000000000000 DENSO TEN (THAILAND)18076XL0009009                                                                                                                              *          20180816 IMCT                IMCT                                                                                                                    WMF1808163.TXT
MDEDJ8267684201808                D89828070100PV1D20180821000030SPEAKER ASM                   M IMCTM S5MB11 TNTH  09020IMCT  S5 PTB  00004                    1300 SR        000000000000 DENSO TEN (THAILAND)18076XL0010010                                                                                                                              *          20180816 IMCT                IMCT                                                                                                                    WMF1808163.TXT
MDEDJ8267685201808                D89828070100PV4D20180821000030SPEAKER ASM                   M IMCTM S0FL05 TNTH  09020IMCT  S0 PTB  00004                    0230 SR        000000000000 DENSO TEN (THAILAND)17060RU0002002                                                                                                                              *          20180816 IMCT                IMCT                                                                                                                    WMF1808163.TXT
MDEDJ8267686201808                D89828070100PV4D20180821000030SPEAKER ASM                   M IMCTM S0FL05 TNTH  09020IMCT  S0 PTB  00004                    0400 SR        000000000000 DENSO TEN (THAILAND)17001QU0001001                                                                                                                              *          20180816 IMCT                IMCT                                                                                                                    WMF1808163.TXT
MDEDJ8267687201808                D89828070100PV4D20180821000030SPEAKER ASM                   M IMCTM S0FL05 TNTH  09020IMCT  S0 PTB  00004                    1600 SR        000000000000 DENSO TEN (THAILAND)18082UU0012012                                                                                                                              *          20180816 IMCT                IMCT                                                                                                                    WMF1808163.TXT
MDEDJ8267688201808                D89828070100PV4D20180821000030SPEAKER ASM                   M IMCTM S0FL05 TNTH  09020IMCT  S0 PTB  00004                    2100 SR        000000000000 DENSO TEN (THAILAND)18063UU0047047                                                                                                                              *          20180816 IMCT                IMCT                                                                                                                    WMF1808163.TXT
MDEDJ8267689201808                D89828070200PV1D20180821000060SPEAKER ASM                   M IMCTM S5MA14 TNTH  09020IMCT  S5 PTB  00005                    0230 SR        000000000000 DENSO TEN (THAILAND)17033QL0086087                                                                                                                              *          20180816 IMCT                IMCT                                                                                                                    WMF1808163.TXT
MDEDJ8267690201808                D89828070200PV1D20180821000060SPEAKER ASM                   M IMCTM S5MA14 TNTH  09020IMCT  S5 PTB  00005                    0830 SR        000000000000 DENSO TEN (THAILAND)18099UL0095096                                                                                                                              *          20180816 IMCT                IMCT                                                                                                                    WMF1808163.TXT
MDEDJ8267691201808                D89828070200PV4D20180821000030SPEAKER ASM                   M IMCTM S0FR05 TNTH  09020IMCT  S0 PTB  00005                    1600 SR        000000000000 DENSO TEN (THAILAND)18082UU0012012                                                                                                                              *          20180816 IMCT                IMCT                                                                                                                    WMF1808163.TXT
MDEDJ8267692201808                D89828070300PT1D20180820000030SPEAKER ASM                   M IMCTM S5NB082TNTH  09020IMCT  S5 PTB  00015                    2230 SR        000000000000 DENSO TEN (THAILAND)18005XL0009009                                                                                                                              *          20180816 IMCT                IMCT                                                                                                                    WMF1808163.TXT
MDEDJ8267693201808                D89828070300PT1D20180821000060SPEAKER ASM                   M IMCTM S5NB082TNTH  09020IMCT  S5 PTB  00015                    0230 SR        000000000000 DENSO TEN (THAILAND)17033QL0086087                                                                                                                              *          20180816 IMCT                IMCT                                                                                                                    WMF1808163.TXT
MDEDJ8267694201808                D89828070300PT1D20180821000060SPEAKER ASM                   M IMCTM S5NB082TNTH  09020IMCT  S5 PTB  00015                    0830 SR        000000000000 DENSO TEN (THAILAND)18099UL0095096                                                                                                                              *          20180816 IMCT                IMCT                                                                                                                    WMF1808163.TXT
MDEDJ8267695201808                D89828070300PT4D20180821000030SPEAKER ASM                   M IMCTM S9TS02 TNTH  09020IMCT  S9 PTB  00015                    1600 SR        000000000000 DENSO TEN (THAILAND)18082UU0012012                                                                                                                              *          20180816 IMCT                IMCT                                                                                                                    WMF1808163.TXT
MDEDJ8267696201808                D89828070300PT4D20180821000030SPEAKER ASM                   M IMCTM S9TS02 TNTH  09020IMCT  S9 PTB  00015                    2100 SR        000000000000 DENSO TEN (THAILAND)18063UU0047047                                                                                                                              *          20180816 IMCT                IMCT                                                                                                                    WMF1808163.TXT
MDEDJ8267697201808                D89831229200PT1D20180821000030RADIO;AM/FM,CD                M IMCTM S5NC06 TNTH  09020IMCT  S5 PTB  00003                    0230 SR        000000000000 DENSO TEN (THAILAND)17033QL0086087                                                                                                                              *          20180816 IMCT                IMCT                                                                                                                    WMF1808163.TXT
MDEDJ8267698201808                D89848581800PT4D20180821000015RADIO;AM/FM CD D              M IMCTM S9CO001TNTH  09020IMCT  S9 PTB  00003                    1600 SR        000000000000 DENSO TEN (THAILAND)18082UU0012012                                                                                                                              *          20180816 IMCT                IMCT                                                                                                                    WMF1808163.TXT
MDEDJ8267699201808                D89848581800PT4D20180821000015RADIO;AM/FM CD D              M IMCTM S9CO001TNTH  09020IMCT  S9 PTB  00003                    2100 SR        000000000000 DENSO TEN (THAILAND)18063UU0047047                                                                                                                              *          20180816 IMCT                IMCT                                                                                                                    WMF1808163.TXT
MDEUJ8221516201808                D89828070100PT4U20180821000030SPEAKER ASM                   M IMCTM S0FL05 TNTH  09020IMCT  S0 PTB  00004                    0230 SR        000000000000 DENSO TEN (THAILAND)18021UU0154154                                                                                                                              *          20180816 IMCT                IMCT                                                                                                                    WMF1808163.TXT
MDEUJ8221517201808                D89828070100PT4U20180821000030SPEAKER ASM                   M IMCTM S0FL05 TNTH  09020IMCT  S0 PTB  00004                    1030 SR        000000000000 DENSO TEN (THAILAND)18021UU0155155                                                                                                                              *          20180816 IMCT                IMCT                                                                                                                    WMF1808163.TXT
MDEUJ8221518201808                D89828070200PV4U20180821000030SPEAKER ASM                   M IMCTM S0FR05 TNTH  09020IMCT  S0 PTB  00005                    0230 SR        000000000000 DENSO TEN (THAILAND)18021UU0154154                                                                                                                              *          20180816 IMCT                IMCT                                                                                                                    WMF1808163.TXT
MDEUJ8221519201808                D89828070200PV4U20180821000030SPEAKER ASM                   M IMCTM S0FR05 TNTH  09020IMCT  S0 PTB  00005                    1030 SR        000000000000 DENSO TEN (THAILAND)18021UU0155155                                                                                                                              *          20180816 IMCT                IMCT                                                                                                                    WMF1808163.TXT
MDEUJ8221520201808                D89828070300PT4U20180821000030SPEAKER ASM                   M IMCTM S9TS02 TNTH  09020IMCT  S9 PTB  00015                    0230 SR        000000000000 DENSO TEN (THAILAND)18021UU0154154                                                                                                                              *          20180816 IMCT                IMCT                                                                                                                    WMF1808163.TXT
MDEUJ8221521201808                D89828070300PT4U20180821000030SPEAKER ASM                   M IMCTM S9TS02 TNTH  09020IMCT  S9 PTB  00015                    1030 SR        000000000000 DENSO TEN (THAILAND)18021UU0155155                                                                                                                              *          20180816 IMCT                IMCT                                                                                                                    WMF1808163.TXT
