REC2018081720180817ISUZU                              9      
MDEFJ8T12814201808                D89828070100PV4F20180822000030SPEAKER ASM                   M IMCTM S7FL05 TNTH  09020IMCT  S7 PTB  00004                    1300 SR        000000000000 DENSO TEN (THAILAND)180G89R0006   18099WR0030   F180804701    F180804715    000000                                                                              *R         20180817 IMCT                IMCT                                                                                                                    RMF1808175.TXT
MDEFJ8T12815201808                D89828070200PV4F20180822000030SPEAKER ASM                   M IMCTM S7FL05 TNTH  09020IMCT  S7 PTB  00005                    0400 SR        000000000000 DENSO TEN (THAILAND)18006YR0017   18099XR0020   D180804601    D180804615    000000                                                                              *R         20180817 IMCT                IMCT                                                                                                                    RMF1808175.TXT
MDEFJ8T12816201808                D89828070300PT4F20180822000016SPEAKER ASM                   M IMCTM S7TS02 TNTH  09020IMCT  S7 PTB  00015                    1300 SR        000000000000 DENSO TEN (THAILAND)180G89R0006   18004XR0049   F180804701    F180804708    000000                                                                              *R         20180817 IMCT                IMCT                                                                                                                    RMF1808175.TXT
MDEFJ8T12817201808                D89848582100PT4F20180822000006RADIO;AM/FM CD D              M IMCTM S7TS01 TNTH  09020IMCT  S7 PTB  00003                    0400 SR        000000000000 DENSO TEN (THAILAND)18006YR0017   18098XR0030   D180804601    D180804612    000000                                                                              *R         20180817 IMCT                IMCT                                                                                                                    RMF1808175.TXT
MDEFJ8T12818201808                D89848582800PT4F20180822000006RADIO;AM/FM CD D              M IMCTM S7TS01 TNTH  09020IMCT  S7 PTB  00003                    1300 SR        000000000000 DENSO TEN (THAILAND)18004XR0046   18004XR0049   F180804703    F180804708    000000                                                                              *R         20180817 IMCT                IMCT                                                                                                                    RMF1808175.TXT
MDEFJ8233492201808                D89828070100PV4F20180821000004SPEAKER ASM                   M IMCTM S7FL05 TNTH  09020IMCT  S7 PTB  00004                    2100 SR        000000000000 DENSO TEN (THAILAND)17060RR0011   17060RR0012   R180804501    R180804502    000000                                                                              *R         20180817 IMCT                IMCT                                                                                                                    RMF1808175.TXT
MDEFJ8233493201808                D89828070100PV4F20180821000028SPEAKER ASM                   M IMCTM S7FL05 TNTH  09020IMCT  S7 PTB  00004                    2230 SR        000000000000 DENSO TEN (THAILAND)18006YR0017   17062PR0033   D180804601    R180804515    000000                                                                              *R         20180817 IMCT                IMCT                                                                                                                    RMF1808175.TXT
MDEFJ8233494201808                D89828070100PV4F20180822000028SPEAKER ASM                   M IMCTM S7FL05 TNTH  09020IMCT  S7 PTB  00004                    0400 SR        000000000000 DENSO TEN (THAILAND)18006YR0018   18099XR0020   D180804602    D180804615    000000                                                                              *R         20180817 IMCT                IMCT                                                                                                                    RMF1808175.TXT
MDEFJ8233495201808                D89828070300PT4F20180822000030SPEAKER ASM                   M IMCTM S7TS02 TNTH  09020IMCT  S7 PTB  00015                    0400 SR        000000000000 DENSO TEN (THAILAND)18006YR0017   18099XR0020   D180804601    D180804615    000000                                                                              *R         20180817 IMCT                IMCT                                                                                                                    RMF1808175.TXT
