REC2018080120180801ISUZU                              64     
MDDDJ8204199201808                D89821984430PT1D20180805000030RADIO;AM/FM,CD                M IMCTM S5NC06 TNTH  09020IMCT  S5 PTB  00005                    0230 SR        000000000000 DENSO TEN (THAILAND)180LNGL0172172                                                                                                                              *          20180801 IMCT                IMCT                                                                                                                    WMF1808015.TXT
MDDDJ8204200201808                D89821984430PT1D20180805000030RADIO;AM/FM,CD                M IMCTM S5NC06 TNTH  09020IMCT  S5 PTB  00005                    0400 SR        000000000000 DENSO TEN (THAILAND)180LRAL0213213                                                                                                                              *          20180801 IMCT                IMCT                                                                                                                    WMF1808015.TXT
MDDDJ8204201201808                D89821984430PT1D20180806000030RADIO;AM/FM,CD                M IMCTM S5NC06 TNTH  09020IMCT  S5 PTB  00005                    1600 SR        000000000000 DENSO TEN (THAILAND)180LNGL0173173                                                                                                                              *          20180801 IMCT                IMCT                                                                                                                    WMF1808015.TXT
MDDDJ8204202201808                D89828070100PV1D20180805000060SPEAKER ASM                   M IMCTM S5MB11 TNTH  09020IMCT  S5 PTB  00004                    0230 SR        000000000000 DENSO TEN (THAILAND)180LNGL0172172                                                                                                                              *          20180801 IMCT                IMCT                                                                                                                    WMF1808015.TXT
MDDDJ8204203201808                D89828070100PV1D20180805000060SPEAKER ASM                   M IMCTM S5MB11 TNTH  09020IMCT  S5 PTB  00004                    0400 SR        000000000000 DENSO TEN (THAILAND)180LRAL0213213                                                                                                                              *          20180801 IMCT                IMCT                                                                                                                    WMF1808015.TXT
MDDDJ8204204201808                D89828070100PV1D20180806000060SPEAKER ASM                   M IMCTM S5MB11 TNTH  09020IMCT  S5 PTB  00004                    0830 SR        000000000000 DENSO TEN (THAILAND)180LPGL0297297                                                                                                                              *          20180801 IMCT                IMCT                                                                                                                    WMF1808015.TXT
MDDDJ8204205201808                D89828070100PV1D20180806000120SPEAKER ASM                   M IMCTM S5MB11 TNTH  09020IMCT  S5 PTB  00004                    1300 SR        000000000000 DENSO TEN (THAILAND)180LPGL0298298180LXAL0037037                                                                                                                *          20180801 IMCT                IMCT                                                                                                                    WMF1808015.TXT
MDDDJ8204206201808                D89828070100PV1D20180806000060SPEAKER ASM                   M IMCTM S5MB11 TNTH  09020IMCT  S5 PTB  00004                    1600 SR        000000000000 DENSO TEN (THAILAND)180LNGL0173173                                                                                                                              *          20180801 IMCT                IMCT                                                                                                                    WMF1808015.TXT
MDDDJ8204207201808                D89828070100PV1D20180806000060SPEAKER ASM                   M IMCTM S5MB11 TNTH  09020IMCT  S5 PTB  00004                    2100 SR        000000000000 DENSO TEN (THAILAND)180LPFL0077077                                                                                                                              *          20180801 IMCT                IMCT                                                                                                                    WMF1808015.TXT
MDDDJ8204208201808                D89828070300PT1D20180806000060SPEAKER ASM                   M IMCTM S5NB082TNTH  09020IMCT  S5 PTB  00015                    0830 SR        000000000000 DENSO TEN (THAILAND)180LPGL0297297                                                                                                                              *          20180801 IMCT                IMCT                                                                                                                    WMF1808015.TXT
MDDDJ8204209201808                D89828070300PT1D20180806000060SPEAKER ASM                   M IMCTM S5NB082TNTH  09020IMCT  S5 PTB  00015                    1300 SR        000000000000 DENSO TEN (THAILAND)180LPGL0298298                                                                                                                              *          20180801 IMCT                IMCT                                                                                                                    WMF1808015.TXT
MDDDJ8204210201808                D89828070300PT1D20180806000060SPEAKER ASM                   M IMCTM S5NB082TNTH  09020IMCT  S5 PTB  00015                    2100 SR        000000000000 DENSO TEN (THAILAND)180LPFL0077077                                                                                                                              *          20180801 IMCT                IMCT                                                                                                                    WMF1808015.TXT
MDDDJ8204211201808                D89831228300PT1D20180806000030RADIO;AM/FM,CD                M IMCTM S5NC06 TNTH  09020IMCT  S5 CPB  00003                    0830 SR        000000000000 DENSO TEN (THAILAND)180LPGL0297297                                                                                                                              *          20180801 IMCT                IMCT                                                                                                                    WMF1808015.TXT
MDDDJ8204212201808                D89831228300PT1D20180806000030RADIO;AM/FM,CD                M IMCTM S5NC06 TNTH  09020IMCT  S5 CPB  00003                    1300 SR        000000000000 DENSO TEN (THAILAND)180LPGL0298298                                                                                                                              *          20180801 IMCT                IMCT                                                                                                                    WMF1808015.TXT
MDDDJ8204213201808                D89831228300PT1D20180806000030RADIO;AM/FM,CD                M IMCTM S5NC06 TNTH  09020IMCT  S5 CPB  00003                    2100 SR        000000000000 DENSO TEN (THAILAND)180LPFL0077077                                                                                                                              *          20180801 IMCT                IMCT                                                                                                                    WMF1808015.TXT
MDDUJ8201820201808                D89828070100PT4U20180805000030SPEAKER ASM                   M IMCTM S0FL05 TNTH  09020IMCT  S0 PTB  00004                    0230 SR        000000000000 DENSO TEN (THAILAND)180LUTU0104104                                                                                                                              *          20180801 IMCT                IMCT                                                                                                                    WMF1808015.TXT
MDDUJ8201821201808                D89828070100PT4U20180806000030SPEAKER ASM                   M IMCTM S0FL05 TNTH  09020IMCT  S0 PTB  00004                    1300 SR        000000000000 DENSO TEN (THAILAND)180LUSU0144144                                                                                                                              *          20180801 IMCT                IMCT                                                                                                                    WMF1808015.TXT
MDDUJ8201822201808                D89828070100PT4U20180806000030SPEAKER ASM                   M IMCTM S0FL05 TNTH  09020IMCT  S0 PTB  00004                    2230 SR        000000000000 DENSO TEN (THAILAND)180LUPU0031031                                                                                                                              *          20180801 IMCT                IMCT                                                                                                                    WMF1808015.TXT
MDDUJ8201823201808                D89828070200PV4U20180805000030SPEAKER ASM                   M IMCTM S0FR05 TNTH  09020IMCT  S0 PTB  00005                    0230 SR        000000000000 DENSO TEN (THAILAND)180LUTU0104104                                                                                                                              *          20180801 IMCT                IMCT                                                                                                                    WMF1808015.TXT
MDDUJ8201824201808                D89828070200PV4U20180806000030SPEAKER ASM                   M IMCTM S0FR05 TNTH  09020IMCT  S0 PTB  00005                    1300 SR        000000000000 DENSO TEN (THAILAND)180LUSU0144144                                                                                                                              *          20180801 IMCT                IMCT                                                                                                                    WMF1808015.TXT
MDDUJ8201825201808                D89828070200PV4U20180806000030SPEAKER ASM                   M IMCTM S0FR05 TNTH  09020IMCT  S0 PTB  00005                    2230 SR        000000000000 DENSO TEN (THAILAND)180LUPU0031031                                                                                                                              *          20180801 IMCT                IMCT                                                                                                                    WMF1808015.TXT
MDDUJ8201826201808                D89828070300PT4U20180805000030SPEAKER ASM                   M IMCTM S9TS02 TNTH  09020IMCT  S9 PTB  00015                    0230 SR        000000000000 DENSO TEN (THAILAND)180LUTU0104104                                                                                                                              *          20180801 IMCT                IMCT                                                                                                                    WMF1808015.TXT
MDDUJ8201827201808                D89828070300PT4U20180806000030SPEAKER ASM                   M IMCTM S9TS02 TNTH  09020IMCT  S9 PTB  00015                    1300 SR        000000000000 DENSO TEN (THAILAND)180LUSU0144144                                                                                                                              *          20180801 IMCT                IMCT                                                                                                                    WMF1808015.TXT
MDDUJ8201828201808                D89828070300PT4U20180806000030SPEAKER ASM                   M IMCTM S9TS02 TNTH  09020IMCT  S9 PTB  00015                    2230 SR        000000000000 DENSO TEN (THAILAND)180LUPU0031031                                                                                                                              *          20180801 IMCT                IMCT                                                                                                                    WMF1808015.TXT
MDDUJ8201829201808                D89831228400PT4U20180806000015RADIO;AM/FM,CD                M IMCTM S9CO001TNTH  09020IMCT  S9 CPB  00003                    2230 SR        000000000000 DENSO TEN (THAILAND)180LUPU0031031                                                                                                                              *          20180801 IMCT                IMCT                                                                                                                    WMF1808015.TXT
MDEDJ8205447201808                D89828070100PV1D20180804000060SPEAKER ASM                   M IMCTM S5MB11 TNTH  09020IMCT  S5 PTB  00004                    2230 SR        000000000000 DENSO TEN (THAILAND)17033QL0077078                                                                                                                              *          20180801 IMCT                IMCT                                                                                                                    WMF1808015.TXT
MDEDJ8205448201808                D89828070100PV1D20180805000060SPEAKER ASM                   M IMCTM S5MB11 TNTH  09020IMCT  S5 PTB  00004                    0400 SR        000000000000 DENSO TEN (THAILAND)17033QL0079080                                                                                                                              *          20180801 IMCT                IMCT                                                                                                                    WMF1808015.TXT
MDEDJ8205449201808                D89828070100PV1D20180806000060SPEAKER ASM                   M IMCTM S5MB11 TNTH  09020IMCT  S5 PTB  00004                    1030 SR        000000000000 DENSO TEN (THAILAND)17021QL005305317033QL0081081                                                                                                                *          20180801 IMCT                IMCT                                                                                                                    WMF1808015.TXT
MDEDJ8205450201808                D89828070100PV1D20180806000060SPEAKER ASM                   M IMCTM S5MB11 TNTH  09020IMCT  S5 PTB  00004                    1600 SR        000000000000 DENSO TEN (THAILAND)17034QL0003004                                                                                                                              *          20180801 IMCT                IMCT                                                                                                                    WMF1808015.TXT
MDEDJ8205451201808                D89828070100PV4D20180805000030SPEAKER ASM                   M IMCTM S0FL05 TNTH  09020IMCT  S0 PTB  00004                    0230 SR        000000000000 DENSO TEN (THAILAND)18080UU0009009                                                                                                                              *          20180801 IMCT                IMCT                                                                                                                    WMF1808015.TXT
MDEDJ8205452201808                D89828070100PV4D20180805000030SPEAKER ASM                   M IMCTM S0FL05 TNTH  09020IMCT  S0 PTB  00004                    0400 SR        000000000000 DENSO TEN (THAILAND)18099UU0022022                                                                                                                              *          20180801 IMCT                IMCT                                                                                                                    WMF1808015.TXT
MDEDJ8205453201808                D89828070100PV4D20180806000030SPEAKER ASM                   M IMCTM S0FL05 TNTH  09020IMCT  S0 PTB  00004                    1030 SR        000000000000 DENSO TEN (THAILAND)17061PU0008008                                                                                                                              *          20180801 IMCT                IMCT                                                                                                                    WMF1808015.TXT
MDEDJ8205454201808                D89828070100PV4D20180806000030SPEAKER ASM                   M IMCTM S0FL05 TNTH  09020IMCT  S0 PTB  00004                    1300 SR        000000000000 DENSO TEN (THAILAND)18063UU0045045                                                                                                                              *          20180801 IMCT                IMCT                                                                                                                    WMF1808015.TXT
MDEDJ8205455201808                D89828070100PV4D20180806000030SPEAKER ASM                   M IMCTM S0FL05 TNTH  09020IMCT  S0 PTB  00004                    2100 SR        000000000000 DENSO TEN (THAILAND)18036ZU0006006                                                                                                                              *          20180801 IMCT                IMCT                                                                                                                    WMF1808015.TXT
MDEDJ8205456201808                D89828070200PV1D20180804000060SPEAKER ASM                   M IMCTM S5MA14 TNTH  09020IMCT  S5 PTB  00005                    2230 SR        000000000000 DENSO TEN (THAILAND)17033QL0077078                                                                                                                              *          20180801 IMCT                IMCT                                                                                                                    WMF1808015.TXT
MDEDJ8205457201808                D89828070200PV1D20180805000060SPEAKER ASM                   M IMCTM S5MA14 TNTH  09020IMCT  S5 PTB  00005                    0400 SR        000000000000 DENSO TEN (THAILAND)17033QL0079080                                                                                                                              *          20180801 IMCT                IMCT                                                                                                                    WMF1808015.TXT
MDEDJ8205458201808                D89828070200PV1D20180806000030SPEAKER ASM                   M IMCTM S5MA14 TNTH  09020IMCT  S5 PTB  00005                    1030 SR        000000000000 DENSO TEN (THAILAND)17033QL0081081                                                                                                                              *          20180801 IMCT                IMCT                                                                                                                    WMF1808015.TXT
MDEDJ8205459201808                D89828070200PV1D20180806000060SPEAKER ASM                   M IMCTM S5MA14 TNTH  09020IMCT  S5 PTB  00005                    1600 SR        000000000000 DENSO TEN (THAILAND)17034QL0003004                                                                                                                              *          20180801 IMCT                IMCT                                                                                                                    WMF1808015.TXT
MDEDJ8205460201808                D89828070200PV4D20180805000030SPEAKER ASM                   M IMCTM S0FR05 TNTH  09020IMCT  S0 PTB  00005                    0230 SR        000000000000 DENSO TEN (THAILAND)18080UU0009009                                                                                                                              *          20180801 IMCT                IMCT                                                                                                                    WMF1808015.TXT
MDEDJ8205461201808                D89828070200PV4D20180805000030SPEAKER ASM                   M IMCTM S0FR05 TNTH  09020IMCT  S0 PTB  00005                    0400 SR        000000000000 DENSO TEN (THAILAND)18099UU0022022                                                                                                                              *          20180801 IMCT                IMCT                                                                                                                    WMF1808015.TXT
MDEDJ8205462201808                D89828070200PV4D20180806000030SPEAKER ASM                   M IMCTM S0FR05 TNTH  09020IMCT  S0 PTB  00005                    2100 SR        000000000000 DENSO TEN (THAILAND)18036ZU0006006                                                                                                                              *          20180801 IMCT                IMCT                                                                                                                    WMF1808015.TXT
MDEDJ8205463201808                D89828070300PT1D20180804000060SPEAKER ASM                   M IMCTM S5NB082TNTH  09020IMCT  S5 PTB  00015                    2230 SR        000000000000 DENSO TEN (THAILAND)17033QL0077078                                                                                                                              *          20180801 IMCT                IMCT                                                                                                                    WMF1808015.TXT
MDEDJ8205464201808                D89828070300PT1D20180805000060SPEAKER ASM                   M IMCTM S5NB082TNTH  09020IMCT  S5 PTB  00015                    0400 SR        000000000000 DENSO TEN (THAILAND)17033QL0079080                                                                                                                              *          20180801 IMCT                IMCT                                                                                                                    WMF1808015.TXT
MDEDJ8205465201808                D89828070300PT1D20180806000030SPEAKER ASM                   M IMCTM S5NB082TNTH  09020IMCT  S5 PTB  00015                    1030 SR        000000000000 DENSO TEN (THAILAND)17033QL0081081                                                                                                                              *          20180801 IMCT                IMCT                                                                                                                    WMF1808015.TXT
MDEDJ8205466201808                D89828070300PT1D20180806000060SPEAKER ASM                   M IMCTM S5NB082TNTH  09020IMCT  S5 PTB  00015                    1600 SR        000000000000 DENSO TEN (THAILAND)17034QL0003004                                                                                                                              *          20180801 IMCT                IMCT                                                                                                                    WMF1808015.TXT
MDEDJ8205467201808                D89828070300PT4D20180805000030SPEAKER ASM                   M IMCTM S9TS02 TNTH  09020IMCT  S9 PTB  00015                    0230 SR        000000000000 DENSO TEN (THAILAND)18080UU0009009                                                                                                                              *          20180801 IMCT                IMCT                                                                                                                    WMF1808015.TXT
MDEDJ8205468201808                D89828070300PT4D20180805000030SPEAKER ASM                   M IMCTM S9TS02 TNTH  09020IMCT  S9 PTB  00015                    0400 SR        000000000000 DENSO TEN (THAILAND)18099UU0022022                                                                                                                              *          20180801 IMCT                IMCT                                                                                                                    WMF1808015.TXT
MDEDJ8205469201808                D89828070300PT4D20180806000030SPEAKER ASM                   M IMCTM S9TS02 TNTH  09020IMCT  S9 PTB  00015                    1300 SR        000000000000 DENSO TEN (THAILAND)18063UU0045045                                                                                                                              *          20180801 IMCT                IMCT                                                                                                                    WMF1808015.TXT
MDEDJ8205470201808                D89828070300PT4D20180806000030SPEAKER ASM                   M IMCTM S9TS02 TNTH  09020IMCT  S9 PTB  00015                    2100 SR        000000000000 DENSO TEN (THAILAND)18036ZU0006006                                                                                                                              *          20180801 IMCT                IMCT                                                                                                                    WMF1808015.TXT
MDEDJ8205471201808                D89831229200PT1D20180804000030RADIO;AM/FM,CD                M IMCTM S5NC06 TNTH  09020IMCT  S5 PTB  00003                    2230 SR        000000000000 DENSO TEN (THAILAND)17033QL0077078                                                                                                                              *          20180801 IMCT                IMCT                                                                                                                    WMF1808015.TXT
MDEDJ8205472201808                D89831229200PT1D20180805000030RADIO;AM/FM,CD                M IMCTM S5NC06 TNTH  09020IMCT  S5 PTB  00003                    0400 SR        000000000000 DENSO TEN (THAILAND)17033QL0079080                                                                                                                              *          20180801 IMCT                IMCT                                                                                                                    WMF1808015.TXT
MDEDJ8205473201808                D89831229200PT1D20180806000015RADIO;AM/FM,CD                M IMCTM S5NC06 TNTH  09020IMCT  S5 PTB  00003                    1030 SR        000000000000 DENSO TEN (THAILAND)17033QL0081081                                                                                                                              *          20180801 IMCT                IMCT                                                                                                                    WMF1808015.TXT
MDEDJ8205474201808                D89831229200PT1D20180806000030RADIO;AM/FM,CD                M IMCTM S5NC06 TNTH  09020IMCT  S5 PTB  00003                    1600 SR        000000000000 DENSO TEN (THAILAND)17034QL0003004                                                                                                                              *          20180801 IMCT                IMCT                                                                                                                    WMF1808015.TXT
MDEDJ8205475201808                D89848581800PT4D20180805000015RADIO;AM/FM CD D              M IMCTM S9CO001TNTH  09020IMCT  S9 PTB  00003                    0230 SR        000000000000 DENSO TEN (THAILAND)18080UU0009009                                                                                                                              *          20180801 IMCT                IMCT                                                                                                                    WMF1808015.TXT
MDEDJ8205476201808                D89848581800PT4D20180806000015RADIO;AM/FM CD D              M IMCTM S9CO001TNTH  09020IMCT  S9 PTB  00003                    1300 SR        000000000000 DENSO TEN (THAILAND)18063UU0045045                                                                                                                              *          20180801 IMCT                IMCT                                                                                                                    WMF1808015.TXT
MDEUJ8201737201808                D89828070100PT4U20180804000030SPEAKER ASM                   M IMCTM S0FL05 TNTH  09020IMCT  S0 PTB  00004                    2230 SR        000000000000 DENSO TEN (THAILAND)18030TU0005005                                                                                                                              *          20180801 IMCT                IMCT                                                                                                                    WMF1808015.TXT
MDEUJ8201738201808                D89828070100PT4U20180806000030SPEAKER ASM                   M IMCTM S0FL05 TNTH  09020IMCT  S0 PTB  00004                    0830 SR        000000000000 DENSO TEN (THAILAND)18045YU0011011                                                                                                                              *          20180801 IMCT                IMCT                                                                                                                    WMF1808015.TXT
MDEUJ8201739201808                D89828070100PT4U20180806000030SPEAKER ASM                   M IMCTM S0FL05 TNTH  09020IMCT  S0 PTB  00004                    1600 SR        000000000000 DENSO TEN (THAILAND)18045YU0012012                                                                                                                              *          20180801 IMCT                IMCT                                                                                                                    WMF1808015.TXT
MDEUJ8201740201808                D89828070200PV4U20180804000030SPEAKER ASM                   M IMCTM S0FR05 TNTH  09020IMCT  S0 PTB  00005                    2230 SR        000000000000 DENSO TEN (THAILAND)18030TU0005005                                                                                                                              *          20180801 IMCT                IMCT                                                                                                                    WMF1808015.TXT
MDEUJ8201741201808                D89828070200PV4U20180806000030SPEAKER ASM                   M IMCTM S0FR05 TNTH  09020IMCT  S0 PTB  00005                    0830 SR        000000000000 DENSO TEN (THAILAND)18045YU0011011                                                                                                                              *          20180801 IMCT                IMCT                                                                                                                    WMF1808015.TXT
MDEUJ8201742201808                D89828070200PV4U20180806000030SPEAKER ASM                   M IMCTM S0FR05 TNTH  09020IMCT  S0 PTB  00005                    1600 SR        000000000000 DENSO TEN (THAILAND)18045YU0012012                                                                                                                              *          20180801 IMCT                IMCT                                                                                                                    WMF1808015.TXT
MDEUJ8201743201808                D89828070300PT4U20180804000030SPEAKER ASM                   M IMCTM S9TS02 TNTH  09020IMCT  S9 PTB  00015                    2230 SR        000000000000 DENSO TEN (THAILAND)18030TU0005005                                                                                                                              *          20180801 IMCT                IMCT                                                                                                                    WMF1808015.TXT
MDEUJ8201744201808                D89828070300PT4U20180806000030SPEAKER ASM                   M IMCTM S9TS02 TNTH  09020IMCT  S9 PTB  00015                    0830 SR        000000000000 DENSO TEN (THAILAND)18045YU0011011                                                                                                                              *          20180801 IMCT                IMCT                                                                                                                    WMF1808015.TXT
MDEUJ8201745201808                D89828070300PT4U20180806000030SPEAKER ASM                   M IMCTM S9TS02 TNTH  09020IMCT  S9 PTB  00015                    1600 SR        000000000000 DENSO TEN (THAILAND)18045YU0012012                                                                                                                              *          20180801 IMCT                IMCT                                                                                                                    WMF1808015.TXT
