REC2018080320180803ISUZU                              51     
MDDDJ8215795201808                D89821984430PT1D20180808000060RADIO;AM/FM,CD                M IMCTM S5NC06 TNTH  09020IMCT  S5 PTB  00005                    0830 SR        000000000000 DENSO TEN (THAILAND)180LRAL0215215180LXCL0074074                                                                                                                *          20180803 IMCT                IMCT                                                                                                                    WMF180803A.TXT
MDDDJ8215796201808                D89821984430PT1D20180808000030RADIO;AM/FM,CD                M IMCTM S5NC06 TNTH  09020IMCT  S5 PTB  00005                    1300 SR        000000000000 DENSO TEN (THAILAND)180LXCL0075075                                                                                                                              *          20180803 IMCT                IMCT                                                                                                                    WMF180803A.TXT
MDDDJ8215797201808                D89821984430PT1D20180808000030RADIO;AM/FM,CD                M IMCTM S5NC06 TNTH  09020IMCT  S5 PTB  00005                    2100 SR        000000000000 DENSO TEN (THAILAND)180LNGL0175175                                                                                                                              *          20180803 IMCT                IMCT                                                                                                                    WMF180803A.TXT
MDDDJ8215798201808                D89828070100PV1D20180807000060SPEAKER ASM                   M IMCTM S5MB11 TNTH  09020IMCT  S5 PTB  00004                    2230 SR        000000000000 DENSO TEN (THAILAND)180LXAL0039039                                                                                                                              *          20180803 IMCT                IMCT                                                                                                                    WMF180803A.TXT
MDDDJ8215799201808                D89828070100PV1D20180808000060SPEAKER ASM                   M IMCTM S5MB11 TNTH  09020IMCT  S5 PTB  00004                    0230 SR        000000000000 DENSO TEN (THAILAND)180LPGL0300300                                                                                                                              *          20180803 IMCT                IMCT                                                                                                                    WMF180803A.TXT
MDDDJ8215800201808                D89828070100PV1D20180808000120SPEAKER ASM                   M IMCTM S5MB11 TNTH  09020IMCT  S5 PTB  00004                    0830 SR        000000000000 DENSO TEN (THAILAND)180LRAL0215215180LXCL0074074                                                                                                                *          20180803 IMCT                IMCT                                                                                                                    WMF180803A.TXT
MDDDJ8215801201808                D89828070100PV1D20180808000120SPEAKER ASM                   M IMCTM S5MB11 TNTH  09020IMCT  S5 PTB  00004                    1300 SR        000000000000 DENSO TEN (THAILAND)180LPNL0021021180LXCL0075075                                                                                                                *          20180803 IMCT                IMCT                                                                                                                    WMF180803A.TXT
MDDDJ8215802201808                D89828070100PV1D20180808000060SPEAKER ASM                   M IMCTM S5MB11 TNTH  09020IMCT  S5 PTB  00004                    2100 SR        000000000000 DENSO TEN (THAILAND)180LNGL0175175                                                                                                                              *          20180803 IMCT                IMCT                                                                                                                    WMF180803A.TXT
MDDDJ8215803201808                D89828070100PV1D20180808000060SPEAKER ASM                   M IMCTM S5MB11 TNTH  09020IMCT  S5 PTB  00004                    2230 SR        000000000000 DENSO TEN (THAILAND)180LPML0025025                                                                                                                              *          20180803 IMCT                IMCT                                                                                                                    WMF180803A.TXT
MDDDJ8215804201808                D89828070300PT1D20180808000060SPEAKER ASM                   M IMCTM S5NB082TNTH  09020IMCT  S5 PTB  00015                    0230 SR        000000000000 DENSO TEN (THAILAND)180LPGL0300300                                                                                                                              *          20180803 IMCT                IMCT                                                                                                                    WMF180803A.TXT
MDDDJ8215805201808                D89828070300PT1D20180808000060SPEAKER ASM                   M IMCTM S5NB082TNTH  09020IMCT  S5 PTB  00015                    1300 SR        000000000000 DENSO TEN (THAILAND)180LPNL0021021                                                                                                                              *          20180803 IMCT                IMCT                                                                                                                    WMF180803A.TXT
MDDDJ8215806201808                D89828070300PT1D20180808000060SPEAKER ASM                   M IMCTM S5NB082TNTH  09020IMCT  S5 PTB  00015                    2230 SR        000000000000 DENSO TEN (THAILAND)180LPML0025025                                                                                                                              *          20180803 IMCT                IMCT                                                                                                                    WMF180803A.TXT
MDDDJ8215807201808                D89831228300PT1D20180808000030RADIO;AM/FM,CD                M IMCTM S5NC06 TNTH  09020IMCT  S5 CPB  00003                    0230 SR        000000000000 DENSO TEN (THAILAND)180LPGL0300300                                                                                                                              *          20180803 IMCT                IMCT                                                                                                                    WMF180803A.TXT
MDDUJ8206693201808                D89828070100PT4U20180808000030SPEAKER ASM                   M IMCTM S0FL05 TNTH  09020IMCT  S0 PTB  00004                    0230 SR        000000000000 DENSO TEN (THAILAND)180LUSU0146146                                                                                                                              *          20180803 IMCT                IMCT                                                                                                                    WMF180803A.TXT
MDDUJ8206694201808                D89828070100PT4U20180808000030SPEAKER ASM                   M IMCTM S0FL05 TNTH  09020IMCT  S0 PTB  00004                    1300 SR        000000000000 DENSO TEN (THAILAND)180LUTU0106106                                                                                                                              *          20180803 IMCT                IMCT                                                                                                                    WMF180803A.TXT
MDDUJ8206695201808                D89828070100PT4U20180808000030SPEAKER ASM                   M IMCTM S0FL05 TNTH  09020IMCT  S0 PTB  00004                    2100 SR        000000000000 DENSO TEN (THAILAND)180LUSU0147147                                                                                                                              *          20180803 IMCT                IMCT                                                                                                                    WMF180803A.TXT
MDDUJ8206696201808                D89828070200PV4U20180808000030SPEAKER ASM                   M IMCTM S0FR05 TNTH  09020IMCT  S0 PTB  00005                    0230 SR        000000000000 DENSO TEN (THAILAND)180LUSU0146146                                                                                                                              *          20180803 IMCT                IMCT                                                                                                                    WMF180803A.TXT
MDDUJ8206697201808                D89828070200PV4U20180808000030SPEAKER ASM                   M IMCTM S0FR05 TNTH  09020IMCT  S0 PTB  00005                    1300 SR        000000000000 DENSO TEN (THAILAND)180LUTU0106106                                                                                                                              *          20180803 IMCT                IMCT                                                                                                                    WMF180803A.TXT
MDDUJ8206698201808                D89828070200PV4U20180808000030SPEAKER ASM                   M IMCTM S0FR05 TNTH  09020IMCT  S0 PTB  00005                    2100 SR        000000000000 DENSO TEN (THAILAND)180LUSU0147147                                                                                                                              *          20180803 IMCT                IMCT                                                                                                                    WMF180803A.TXT
MDDUJ8206699201808                D89828070300PT4U20180808000030SPEAKER ASM                   M IMCTM S9TS02 TNTH  09020IMCT  S9 PTB  00015                    0230 SR        000000000000 DENSO TEN (THAILAND)180LUSU0146146                                                                                                                              *          20180803 IMCT                IMCT                                                                                                                    WMF180803A.TXT
MDDUJ8206700201808                D89828070300PT4U20180808000030SPEAKER ASM                   M IMCTM S9TS02 TNTH  09020IMCT  S9 PTB  00015                    1300 SR        000000000000 DENSO TEN (THAILAND)180LUTU0106106                                                                                                                              *          20180803 IMCT                IMCT                                                                                                                    WMF180803A.TXT
MDDUJ8206701201808                D89828070300PT4U20180808000030SPEAKER ASM                   M IMCTM S9TS02 TNTH  09020IMCT  S9 PTB  00015                    2100 SR        000000000000 DENSO TEN (THAILAND)180LUSU0147147                                                                                                                              *          20180803 IMCT                IMCT                                                                                                                    WMF180803A.TXT
MDEDJ8220764201808                D89828070100PV1D20180807000060SPEAKER ASM                   M IMCTM S5MB11 TNTH  09020IMCT  S5 PTB  00004                    2230 SR        000000000000 DENSO TEN (THAILAND)17021QL0057058                                                                                                                              *          20180803 IMCT                IMCT                                                                                                                    WMF180803A.TXT
MDEDJ8220765201808                D89828070100PV1D20180808000060SPEAKER ASM                   M IMCTM S5MB11 TNTH  09020IMCT  S5 PTB  00004                    0400 SR        000000000000 DENSO TEN (THAILAND)17050RL0042043                                                                                                                              *          20180803 IMCT                IMCT                                                                                                                    WMF180803A.TXT
MDEDJ8220766201808                D89828070100PV1D20180808000030SPEAKER ASM                   M IMCTM S5MB11 TNTH  09020IMCT  S5 PTB  00004                    1030 SR        000000000000 DENSO TEN (THAILAND)17021QL0059059                                                                                                                              *          20180803 IMCT                IMCT                                                                                                                    WMF180803A.TXT
MDEDJ8220767201808                D89828070100PV1D20180808000030SPEAKER ASM                   M IMCTM S5MB11 TNTH  09020IMCT  S5 PTB  00004                    1300 SR        000000000000 DENSO TEN (THAILAND)17021QL0060060                                                                                                                              *          20180803 IMCT                IMCT                                                                                                                    WMF180803A.TXT
MDEDJ8220768201808                D89828070100PV1D20180808000060SPEAKER ASM                   M IMCTM S5MB11 TNTH  09020IMCT  S5 PTB  00004                    1600 SR        000000000000 DENSO TEN (THAILAND)17021QL0061062                                                                                                                              *          20180803 IMCT                IMCT                                                                                                                    WMF180803A.TXT
MDEDJ8220769201808                D89828070100PV4D20180808000060SPEAKER ASM                   M IMCTM S0FL05 TNTH  09020IMCT  S0 PTB  00004                    0400 SR        000000000000 DENSO TEN (THAILAND)17061PU001001018065UU0016016                                                                                                                *          20180803 IMCT                IMCT                                                                                                                    WMF180803A.TXT
MDEDJ8220770201808                D89828070100PV4D20180808000060SPEAKER ASM                   M IMCTM S0FL05 TNTH  09020IMCT  S0 PTB  00004                    1300 SR        000000000000 DENSO TEN (THAILAND)17052RU000400418064UU0020020                                                                                                                *          20180803 IMCT                IMCT                                                                                                                    WMF180803A.TXT
MDEDJ8220771201808                D89828070100PV4D20180808000030SPEAKER ASM                   M IMCTM S0FL05 TNTH  09020IMCT  S0 PTB  00004                    1600 SR        000000000000 DENSO TEN (THAILAND)18098UU0035035                                                                                                                              *          20180803 IMCT                IMCT                                                                                                                    WMF180803A.TXT
MDEDJ8220772201808                D89828070100PV4D20180808000030SPEAKER ASM                   M IMCTM S0FL05 TNTH  09020IMCT  S0 PTB  00004                    2230 SR        000000000000 DENSO TEN (THAILAND)18066UU0014014                                                                                                                              *          20180803 IMCT                IMCT                                                                                                                    WMF180803A.TXT
MDEDJ8220773201808                D89828070200PV1D20180808000060SPEAKER ASM                   M IMCTM S5MA14 TNTH  09020IMCT  S5 PTB  00005                    0400 SR        000000000000 DENSO TEN (THAILAND)17050RL0042043                                                                                                                              *          20180803 IMCT                IMCT                                                                                                                    WMF180803A.TXT
MDEDJ8220774201808                D89828070200PV4D20180808000030SPEAKER ASM                   M IMCTM S0FR05 TNTH  09020IMCT  S0 PTB  00005                    0400 SR        000000000000 DENSO TEN (THAILAND)18065UU0016016                                                                                                                              *          20180803 IMCT                IMCT                                                                                                                    WMF180803A.TXT
MDEDJ8220775201808                D89828070200PV4D20180808000030SPEAKER ASM                   M IMCTM S0FR05 TNTH  09020IMCT  S0 PTB  00005                    1600 SR        000000000000 DENSO TEN (THAILAND)18098UU0035035                                                                                                                              *          20180803 IMCT                IMCT                                                                                                                    WMF180803A.TXT
MDEDJ8220776201808                D89828070200PV4D20180808000030SPEAKER ASM                   M IMCTM S0FR05 TNTH  09020IMCT  S0 PTB  00005                    2230 SR        000000000000 DENSO TEN (THAILAND)18066UU0014014                                                                                                                              *          20180803 IMCT                IMCT                                                                                                                    WMF180803A.TXT
MDEDJ8220777201808                D89828070300PT1D20180808000060SPEAKER ASM                   M IMCTM S5NB082TNTH  09020IMCT  S5 PTB  00015                    0400 SR        000000000000 DENSO TEN (THAILAND)17050RL0042043                                                                                                                              *          20180803 IMCT                IMCT                                                                                                                    WMF180803A.TXT
MDEDJ8220778201808                D89828070300PT4D20180808000030SPEAKER ASM                   M IMCTM S9TS02 TNTH  09020IMCT  S9 PTB  00015                    0400 SR        000000000000 DENSO TEN (THAILAND)18065UU0016016                                                                                                                              *          20180803 IMCT                IMCT                                                                                                                    WMF180803A.TXT
MDEDJ8220779201808                D89828070300PT4D20180808000030SPEAKER ASM                   M IMCTM S9TS02 TNTH  09020IMCT  S9 PTB  00015                    1300 SR        000000000000 DENSO TEN (THAILAND)18064UU0020020                                                                                                                              *          20180803 IMCT                IMCT                                                                                                                    WMF180803A.TXT
MDEDJ8220780201808                D89828070300PT4D20180808000030SPEAKER ASM                   M IMCTM S9TS02 TNTH  09020IMCT  S9 PTB  00015                    1600 SR        000000000000 DENSO TEN (THAILAND)18098UU0035035                                                                                                                              *          20180803 IMCT                IMCT                                                                                                                    WMF180803A.TXT
MDEDJ8220781201808                D89828070300PT4D20180808000030SPEAKER ASM                   M IMCTM S9TS02 TNTH  09020IMCT  S9 PTB  00015                    2230 SR        000000000000 DENSO TEN (THAILAND)18066UU0014014                                                                                                                              *          20180803 IMCT                IMCT                                                                                                                    WMF180803A.TXT
MDEDJ8220782201808                D89829645410PT1D20180808000030RADIO;ASM DVD                 M IMCTM S5NC06 TNTH  09020IMCT  S5 PTB  00003                    0400 SR        000000000000 DENSO TEN (THAILAND)17050RL0042043                                                                                                                              *          20180803 IMCT                IMCT                                                                                                                    WMF180803A.TXT
MDEDJ8220783201808                D89848581800PT4D20180808000015RADIO;AM/FM CD D              M IMCTM S9CO001TNTH  09020IMCT  S9 PTB  00003                    0400 SR        000000000000 DENSO TEN (THAILAND)18065UU0016016                                                                                                                              *          20180803 IMCT                IMCT                                                                                                                    WMF180803A.TXT
MDEDJ8220784201808                D89848581800PT4D20180808000015RADIO;AM/FM CD D              M IMCTM S9CO001TNTH  09020IMCT  S9 PTB  00003                    1600 SR        000000000000 DENSO TEN (THAILAND)18098UU0035035                                                                                                                              *          20180803 IMCT                IMCT                                                                                                                    WMF180803A.TXT
MDEDJ8220785201808                D89848581800PT4D20180808000015RADIO;AM/FM CD D              M IMCTM S9CO001TNTH  09020IMCT  S9 PTB  00003                    2230 SR        000000000000 DENSO TEN (THAILAND)18066UU0014014                                                                                                                              *          20180803 IMCT                IMCT                                                                                                                    WMF180803A.TXT
MDEDJ8220786201808                D89848582500PT4D20180808000015RADIO;AM/FM CD D              M IMCTM S9CO001TNTH  09020IMCT  S9 PTB  00003                    1300 SR        000000000000 DENSO TEN (THAILAND)18064UU0020020                                                                                                                              *          20180803 IMCT                IMCT                                                                                                                    WMF180803A.TXT
MDEUJ8205380201808                D89828070100PT4U20180807000030SPEAKER ASM                   M IMCTM S0FL05 TNTH  09020IMCT  S0 PTB  00004                    2230 SR        000000000000 DENSO TEN (THAILAND)18045YU0013013                                                                                                                              *          20180803 IMCT                IMCT                                                                                                                    WMF180803A.TXT
MDEUJ8205381201808                D89828070100PT4U20180808000030SPEAKER ASM                   M IMCTM S0FL05 TNTH  09020IMCT  S0 PTB  00004                    0830 SR        000000000000 DENSO TEN (THAILAND)18021UU0145145                                                                                                                              *          20180803 IMCT                IMCT                                                                                                                    WMF180803A.TXT
MDEUJ8205382201808                D89828070200PV4U20180807000030SPEAKER ASM                   M IMCTM S0FR05 TNTH  09020IMCT  S0 PTB  00005                    2230 SR        000000000000 DENSO TEN (THAILAND)18045YU0013013                                                                                                                              *          20180803 IMCT                IMCT                                                                                                                    WMF180803A.TXT
MDEUJ8205383201808                D89828070200PV4U20180808000030SPEAKER ASM                   M IMCTM S0FR05 TNTH  09020IMCT  S0 PTB  00005                    0830 SR        000000000000 DENSO TEN (THAILAND)18021UU0145145                                                                                                                              *          20180803 IMCT                IMCT                                                                                                                    WMF180803A.TXT
MDEUJ8205384201808                D89828070300PT4U20180807000030SPEAKER ASM                   M IMCTM S9TS02 TNTH  09020IMCT  S9 PTB  00015                    2230 SR        000000000000 DENSO TEN (THAILAND)18045YU0013013                                                                                                                              *          20180803 IMCT                IMCT                                                                                                                    WMF180803A.TXT
MDEUJ8205385201808                D89828070300PT4U20180808000030SPEAKER ASM                   M IMCTM S9TS02 TNTH  09020IMCT  S9 PTB  00015                    0830 SR        000000000000 DENSO TEN (THAILAND)18021UU0145145                                                                                                                              *          20180803 IMCT                IMCT                                                                                                                    WMF180803A.TXT
