REC2018081020180810ISUZU                              54     
MDDDJ8247688201808                D89821984430PT1D20180818000030RADIO;AM/FM,CD                M IMCTM S5NC06 TNTH  09020IMCT  S5 PTB  00005                    2230 SR        000000000000 DENSO TEN (THAILAND)180LRAL0227227                                                                                                                              *          20180810 IMCT                IMCT                                                                                                                    WMF1808105.TXT
MDDDJ8247689201808                D89821984430PT1D20180819000030RADIO;AM/FM,CD                M IMCTM S5NC06 TNTH  09020IMCT  S5 PTB  00005                    0230 SR        000000000000 DENSO TEN (THAILAND)180LRAL0228228                                                                                                                              *          20180810 IMCT                IMCT                                                                                                                    WMF1808105.TXT
MDDDJ8247690201808                D89821984430PT1D20180819000030RADIO;AM/FM,CD                M IMCTM S5NC06 TNTH  09020IMCT  S5 PTB  00005                    0400 SR        000000000000 DENSO TEN (THAILAND)180LNGL0181181                                                                                                                              *          20180810 IMCT                IMCT                                                                                                                    WMF1808105.TXT
MDDDJ8247691201808                D89821984430PT1D20180820000030RADIO;AM/FM,CD                M IMCTM S5NC06 TNTH  09020IMCT  S5 PTB  00005                    1600 SR        000000000000 DENSO TEN (THAILAND)180LRAL0229229                                                                                                                              *          20180810 IMCT                IMCT                                                                                                                    WMF1808105.TXT
MDDDJ8247692201808                D89821984430PT1D20180820000030RADIO;AM/FM,CD                M IMCTM S5NC06 TNTH  09020IMCT  S5 PTB  00005                    2100 SR        000000000000 DENSO TEN (THAILAND)180LNGL0182182                                                                                                                              *          20180810 IMCT                IMCT                                                                                                                    WMF1808105.TXT
MDDDJ8247693201808                D89828070100PV1D20180818000120SPEAKER ASM                   M IMCTM S5MB11 TNTH  09020IMCT  S5 PTB  00004                    2230 SR        000000000000 DENSO TEN (THAILAND)180LRAL0227227180LXAL0042042                                                                                                                *          20180810 IMCT                IMCT                                                                                                                    WMF1808105.TXT
MDDDJ8247694201808                D89828070100PV1D20180819000060SPEAKER ASM                   M IMCTM S5MB11 TNTH  09020IMCT  S5 PTB  00004                    0230 SR        000000000000 DENSO TEN (THAILAND)180LRAL0228228                                                                                                                              *          20180810 IMCT                IMCT                                                                                                                    WMF1808105.TXT
MDDDJ8247695201808                D89828070100PV1D20180819000060SPEAKER ASM                   M IMCTM S5MB11 TNTH  09020IMCT  S5 PTB  00004                    0400 SR        000000000000 DENSO TEN (THAILAND)180LNGL0181181                                                                                                                              *          20180810 IMCT                IMCT                                                                                                                    WMF1808105.TXT
MDDDJ8247696201808                D89828070100PV1D20180820000060SPEAKER ASM                   M IMCTM S5MB11 TNTH  09020IMCT  S5 PTB  00004                    1030 SR        000000000000 DENSO TEN (THAILAND)180LPPL0012012                                                                                                                              *          20180810 IMCT                IMCT                                                                                                                    WMF1808105.TXT
MDDDJ8247697201808                D89828070100PV1D20180820000060SPEAKER ASM                   M IMCTM S5MB11 TNTH  09020IMCT  S5 PTB  00004                    1300 SR        000000000000 DENSO TEN (THAILAND)180LPNL0022022                                                                                                                              *          20180810 IMCT                IMCT                                                                                                                    WMF1808105.TXT
MDDDJ8247698201808                D89828070100PV1D20180820000060SPEAKER ASM                   M IMCTM S5MB11 TNTH  09020IMCT  S5 PTB  00004                    1600 SR        000000000000 DENSO TEN (THAILAND)180LRAL0229229                                                                                                                              *          20180810 IMCT                IMCT                                                                                                                    WMF1808105.TXT
MDDDJ8247699201808                D89828070100PV1D20180820000060SPEAKER ASM                   M IMCTM S5MB11 TNTH  09020IMCT  S5 PTB  00004                    2100 SR        000000000000 DENSO TEN (THAILAND)180LNGL0182182                                                                                                                              *          20180810 IMCT                IMCT                                                                                                                    WMF1808105.TXT
MDDDJ8247700201808                D89828070300PT1D20180820000060SPEAKER ASM                   M IMCTM S5NB082TNTH  09020IMCT  S5 PTB  00015                    1030 SR        000000000000 DENSO TEN (THAILAND)180LPPL0012012                                                                                                                              *          20180810 IMCT                IMCT                                                                                                                    WMF1808105.TXT
MDDDJ8247701201808                D89828070300PT1D20180820000060SPEAKER ASM                   M IMCTM S5NB082TNTH  09020IMCT  S5 PTB  00015                    1300 SR        000000000000 DENSO TEN (THAILAND)180LPNL0022022                                                                                                                              *          20180810 IMCT                IMCT                                                                                                                    WMF1808105.TXT
MDDUJ8218354201808                D89828070100PT4U20180820000030SPEAKER ASM                   M IMCTM S0FL05 TNTH  09020IMCT  S0 PTB  00004                    1030 SR        000000000000 DENSO TEN (THAILAND)180LUSU0153153                                                                                                                              *          20180810 IMCT                IMCT                                                                                                                    WMF1808105.TXT
MDDUJ8218355201808                D89828070100PT4U20180820000030SPEAKER ASM                   M IMCTM S0FL05 TNTH  09020IMCT  S0 PTB  00004                    2100 SR        000000000000 DENSO TEN (THAILAND)180LULU0045045                                                                                                                              *          20180810 IMCT                IMCT                                                                                                                    WMF1808105.TXT
MDDUJ8218356201808                D89828070200PV4U20180820000030SPEAKER ASM                   M IMCTM S0FR05 TNTH  09020IMCT  S0 PTB  00005                    1030 SR        000000000000 DENSO TEN (THAILAND)180LUSU0153153                                                                                                                              *          20180810 IMCT                IMCT                                                                                                                    WMF1808105.TXT
MDDUJ8218357201808                D89828070200PV4U20180820000030SPEAKER ASM                   M IMCTM S0FR05 TNTH  09020IMCT  S0 PTB  00005                    2100 SR        000000000000 DENSO TEN (THAILAND)180LULU0045045                                                                                                                              *          20180810 IMCT                IMCT                                                                                                                    WMF1808105.TXT
MDDUJ8218358201808                D89828070300PT4U20180820000030SPEAKER ASM                   M IMCTM S9TS02 TNTH  09020IMCT  S9 PTB  00015                    1030 SR        000000000000 DENSO TEN (THAILAND)180LUSU0153153                                                                                                                              *          20180810 IMCT                IMCT                                                                                                                    WMF1808105.TXT
MDDUJ8218359201808                D89828070300PT4U20180820000030SPEAKER ASM                   M IMCTM S9TS02 TNTH  09020IMCT  S9 PTB  00015                    2100 SR        000000000000 DENSO TEN (THAILAND)180LULU0045045                                                                                                                              *          20180810 IMCT                IMCT                                                                                                                    WMF1808105.TXT
MDEDJ8261158201808                D89828070100PV1D20180819000060SPEAKER ASM                   M IMCTM S5MB11 TNTH  09020IMCT  S5 PTB  00004                    0400 SR        000000000000 DENSO TEN (THAILAND)18005XL000800818016XL0003003                                                                                                                *          20180810 IMCT                IMCT                                                                                                                    WMF1808105.TXT
MDEDJ8261159201808                D89828070100PV1D20180820000030SPEAKER ASM                   M IMCTM S5MB11 TNTH  09020IMCT  S5 PTB  00004                    0830 SR        000000000000 DENSO TEN (THAILAND)17033QL0084084                                                                                                                              *          20180810 IMCT                IMCT                                                                                                                    WMF1808105.TXT
MDEDJ8261160201808                D89828070100PV1D20180820000030SPEAKER ASM                   M IMCTM S5MB11 TNTH  09020IMCT  S5 PTB  00004                    1030 SR        000000000000 DENSO TEN (THAILAND)17033QL0085085                                                                                                                              *          20180810 IMCT                IMCT                                                                                                                    WMF1808105.TXT
MDEDJ8261161201808                D89828070100PV1D20180820000060SPEAKER ASM                   M IMCTM S5MB11 TNTH  09020IMCT  S5 PTB  00004                    1300 SR        000000000000 DENSO TEN (THAILAND)18001YL0016017                                                                                                                              *          20180810 IMCT                IMCT                                                                                                                    WMF1808105.TXT
MDEDJ8261162201808                D89828070100PV1D20180820000030SPEAKER ASM                   M IMCTM S5MB11 TNTH  09020IMCT  S5 PTB  00004                    2230 SR        000000000000 DENSO TEN (THAILAND)18068XL0014014                                                                                                                              *          20180810 IMCT                IMCT                                                                                                                    WMF1808105.TXT
MDEDJ8261163201808                D89828070100PV4D20180818000030SPEAKER ASM                   M IMCTM S0FL05 TNTH  09020IMCT  S0 PTB  00004                    2230 SR        000000000000 DENSO TEN (THAILAND)17061PU0013013                                                                                                                              *          20180810 IMCT                IMCT                                                                                                                    WMF1808105.TXT
MDEDJ8261164201808                D89828070100PV4D20180819000030SPEAKER ASM                   M IMCTM S0FL05 TNTH  09020IMCT  S0 PTB  00004                    0400 SR        000000000000 DENSO TEN (THAILAND)17075PU0024024                                                                                                                              *          20180810 IMCT                IMCT                                                                                                                    WMF1808105.TXT
MDEDJ8261165201808                D89828070100PV4D20180820000030SPEAKER ASM                   M IMCTM S0FL05 TNTH  09020IMCT  S0 PTB  00004                    0830 SR        000000000000 DENSO TEN (THAILAND)17075PU0025025                                                                                                                              *          20180810 IMCT                IMCT                                                                                                                    WMF1808105.TXT
MDEDJ8261166201808                D89828070100PV4D20180820000030SPEAKER ASM                   M IMCTM S0FL05 TNTH  09020IMCT  S0 PTB  00004                    1300 SR        000000000000 DENSO TEN (THAILAND)17060RU0001001                                                                                                                              *          20180810 IMCT                IMCT                                                                                                                    WMF1808105.TXT
MDEDJ8261167201808                D89828070100PV4D20180820000060SPEAKER ASM                   M IMCTM S0FL05 TNTH  09020IMCT  S0 PTB  00004                    1600 SR        000000000000 DENSO TEN (THAILAND)17075PU002602618099UU0025025                                                                                                                *          20180810 IMCT                IMCT                                                                                                                    WMF1808105.TXT
MDEDJ8261168201808                D89828070100PV4D20180820000030SPEAKER ASM                   M IMCTM S0FL05 TNTH  09020IMCT  S0 PTB  00004                    2230 SR        000000000000 DENSO TEN (THAILAND)17075PU0027027                                                                                                                              *          20180810 IMCT                IMCT                                                                                                                    WMF1808105.TXT
MDEDJ8261169201808                D89828070200PV1D20180820000030SPEAKER ASM                   M IMCTM S5MA14 TNTH  09020IMCT  S5 PTB  00005                    0830 SR        000000000000 DENSO TEN (THAILAND)17033QL0084084                                                                                                                              *          20180810 IMCT                IMCT                                                                                                                    WMF1808105.TXT
MDEDJ8261170201808                D89828070200PV1D20180820000030SPEAKER ASM                   M IMCTM S5MA14 TNTH  09020IMCT  S5 PTB  00005                    1030 SR        000000000000 DENSO TEN (THAILAND)17033QL0085085                                                                                                                              *          20180810 IMCT                IMCT                                                                                                                    WMF1808105.TXT
MDEDJ8261171201808                D89828070200PV1D20180820000060SPEAKER ASM                   M IMCTM S5MA14 TNTH  09020IMCT  S5 PTB  00005                    1300 SR        000000000000 DENSO TEN (THAILAND)18001YL0016017                                                                                                                              *          20180810 IMCT                IMCT                                                                                                                    WMF1808105.TXT
MDEDJ8261172201808                D89828070200PV1D20180820000030SPEAKER ASM                   M IMCTM S5MA14 TNTH  09020IMCT  S5 PTB  00005                    2230 SR        000000000000 DENSO TEN (THAILAND)18068XL0014014                                                                                                                              *          20180810 IMCT                IMCT                                                                                                                    WMF1808105.TXT
MDEDJ8261173201808                D89828070200PV4D20180820000030SPEAKER ASM                   M IMCTM S0FR05 TNTH  09020IMCT  S0 PTB  00005                    1600 SR        000000000000 DENSO TEN (THAILAND)18099UU0025025                                                                                                                              *          20180810 IMCT                IMCT                                                                                                                    WMF1808105.TXT
MDEDJ8261174201808                D89828070300PT1D20180819000060SPEAKER ASM                   M IMCTM S5NB082TNTH  09020IMCT  S5 PTB  00015                    0400 SR        000000000000 DENSO TEN (THAILAND)18005XL000800818016XL0003003                                                                                                                *          20180810 IMCT                IMCT                                                                                                                    WMF1808105.TXT
MDEDJ8261175201808                D89828070300PT1D20180820000030SPEAKER ASM                   M IMCTM S5NB082TNTH  09020IMCT  S5 PTB  00015                    0830 SR        000000000000 DENSO TEN (THAILAND)17033QL0084084                                                                                                                              *          20180810 IMCT                IMCT                                                                                                                    WMF1808105.TXT
MDEDJ8261176201808                D89828070300PT1D20180820000030SPEAKER ASM                   M IMCTM S5NB082TNTH  09020IMCT  S5 PTB  00015                    1030 SR        000000000000 DENSO TEN (THAILAND)17033QL0085085                                                                                                                              *          20180810 IMCT                IMCT                                                                                                                    WMF1808105.TXT
MDEDJ8261177201808                D89828070300PT1D20180820000060SPEAKER ASM                   M IMCTM S5NB082TNTH  09020IMCT  S5 PTB  00015                    1300 SR        000000000000 DENSO TEN (THAILAND)18001YL0016017                                                                                                                              *          20180810 IMCT                IMCT                                                                                                                    WMF1808105.TXT
MDEDJ8261178201808                D89828070300PT1D20180820000030SPEAKER ASM                   M IMCTM S5NB082TNTH  09020IMCT  S5 PTB  00015                    2230 SR        000000000000 DENSO TEN (THAILAND)18068XL0014014                                                                                                                              *          20180810 IMCT                IMCT                                                                                                                    WMF1808105.TXT
MDEDJ8261179201808                D89828070300PT4D20180820000030SPEAKER ASM                   M IMCTM S9TS02 TNTH  09020IMCT  S9 PTB  00015                    1600 SR        000000000000 DENSO TEN (THAILAND)18099UU0025025                                                                                                                              *          20180810 IMCT                IMCT                                                                                                                    WMF1808105.TXT
MDEDJ8261180201808                D89831228700PT1D20180819000015RADIO;AM/FM,CD                M IMCTM S5NC06 TNTH  09020IMCT  S5 PTB  00003                    0400 SR        000000000000 DENSO TEN (THAILAND)18016XL0003003                                                                                                                              *          20180810 IMCT                IMCT                                                                                                                    WMF1808105.TXT
MDEDJ8261181201808                D89831229200PT1D20180820000015RADIO;AM/FM,CD                M IMCTM S5NC06 TNTH  09020IMCT  S5 PTB  00003                    0830 SR        000000000000 DENSO TEN (THAILAND)17033QL0084084                                                                                                                              *          20180810 IMCT                IMCT                                                                                                                    WMF1808105.TXT
MDEDJ8261182201808                D89831229200PT1D20180820000015RADIO;AM/FM,CD                M IMCTM S5NC06 TNTH  09020IMCT  S5 PTB  00003                    1030 SR        000000000000 DENSO TEN (THAILAND)17033QL0085085                                                                                                                              *          20180810 IMCT                IMCT                                                                                                                    WMF1808105.TXT
MDEUJ8219581201808                D89828070100PT4U20180819000030SPEAKER ASM                   M IMCTM S0FL05 TNTH  09020IMCT  S0 PTB  00004                    0230 SR        000000000000 DENSO TEN (THAILAND)18021UU0151151                                                                                                                              *          20180810 IMCT                IMCT                                                                                                                    WMF1808105.TXT
MDEUJ8219582201808                D89828070100PT4U20180819000030SPEAKER ASM                   M IMCTM S0FL05 TNTH  09020IMCT  S0 PTB  00004                    0400 SR        000000000000 DENSO TEN (THAILAND)18021UU0152152                                                                                                                              *          20180810 IMCT                IMCT                                                                                                                    WMF1808105.TXT
MDEUJ8219583201808                D89828070100PT4U20180820000030SPEAKER ASM                   M IMCTM S0FL05 TNTH  09020IMCT  S0 PTB  00004                    1300 SR        000000000000 DENSO TEN (THAILAND)18021UU0153153                                                                                                                              *          20180810 IMCT                IMCT                                                                                                                    WMF1808105.TXT
MDEUJ8219584201808                D89828070200PV4U20180819000030SPEAKER ASM                   M IMCTM S0FR05 TNTH  09020IMCT  S0 PTB  00005                    0230 SR        000000000000 DENSO TEN (THAILAND)18021UU0151151                                                                                                                              *          20180810 IMCT                IMCT                                                                                                                    WMF1808105.TXT
MDEUJ8219585201808                D89828070200PV4U20180819000030SPEAKER ASM                   M IMCTM S0FR05 TNTH  09020IMCT  S0 PTB  00005                    0400 SR        000000000000 DENSO TEN (THAILAND)18021UU0152152                                                                                                                              *          20180810 IMCT                IMCT                                                                                                                    WMF1808105.TXT
MDEUJ8219586201808                D89828070200PV4U20180820000030SPEAKER ASM                   M IMCTM S0FR05 TNTH  09020IMCT  S0 PTB  00005                    1300 SR        000000000000 DENSO TEN (THAILAND)18021UU0153153                                                                                                                              *          20180810 IMCT                IMCT                                                                                                                    WMF1808105.TXT
MDEUJ8219587201808                D89828070300PT4U20180819000030SPEAKER ASM                   M IMCTM S9TS02 TNTH  09020IMCT  S9 PTB  00015                    0230 SR        000000000000 DENSO TEN (THAILAND)18021UU0151151                                                                                                                              *          20180810 IMCT                IMCT                                                                                                                    WMF1808105.TXT
MDEUJ8219588201808                D89828070300PT4U20180819000030SPEAKER ASM                   M IMCTM S9TS02 TNTH  09020IMCT  S9 PTB  00015                    0400 SR        000000000000 DENSO TEN (THAILAND)18021UU0152152                                                                                                                              *          20180810 IMCT                IMCT                                                                                                                    WMF1808105.TXT
MDEUJ8219589201808                D89828070300PT4U20180820000030SPEAKER ASM                   M IMCTM S9TS02 TNTH  09020IMCT  S9 PTB  00015                    1300 SR        000000000000 DENSO TEN (THAILAND)18021UU0153153                                                                                                                              *          20180810 IMCT                IMCT                                                                                                                    WMF1808105.TXT
