REC2018082120180821ISUZU                              57     
MDDDJ8274434201808                D89821984430PT1D20180824000030RADIO;AM/FM,CD                M IMCTM S5NC06 TNTH  09020IMCT  S5 PTB  00005                    2230 SR        000000000000 DENSO TEN (THAILAND)180LNGL0191191                                                                                                                              *          20180821 IMCT                IMCT                                                                                                                    WMF1808214.TXT
MDDDJ8274435201808                D89821984430PT1D20180825000030RADIO;AM/FM,CD                M IMCTM S5NC06 TNTH  09020IMCT  S5 PTB  00005                    0400 SR        000000000000 DENSO TEN (THAILAND)180LPAL0207207                                                                                                                              *          20180821 IMCT                IMCT                                                                                                                    WMF1808214.TXT
MDDDJ8274436201808                D89821984430PT1D20180827000030RADIO;AM/FM,CD                M IMCTM S5NC06 TNTH  09020IMCT  S5 PTB  00005                    0830 SR        000000000000 DENSO TEN (THAILAND)180LRAL0233233                                                                                                                              *          20180821 IMCT                IMCT                                                                                                                    WMF1808214.TXT
MDDDJ8274437201808                D89821984430PT1D20180827000060RADIO;AM/FM,CD                M IMCTM S5NC06 TNTH  09020IMCT  S5 PTB  00005                    1300 SR        000000000000 DENSO TEN (THAILAND)180LNGL0192192180LPAL0208208                                                                                                                *          20180821 IMCT                IMCT                                                                                                                    WMF1808214.TXT
MDDDJ8274438201808                D89821984430PT1D20180827000030RADIO;AM/FM,CD                M IMCTM S5NC06 TNTH  09020IMCT  S5 PTB  00005                    1600 SR        000000000000 DENSO TEN (THAILAND)180LNHL0063063                                                                                                                              *          20180821 IMCT                IMCT                                                                                                                    WMF1808214.TXT
MDDDJ8274439201808                D89821984430PT1D20180827000030RADIO;AM/FM,CD                M IMCTM S5NC06 TNTH  09020IMCT  S5 PTB  00005                    2100 SR        000000000000 DENSO TEN (THAILAND)180LRAL0234234                                                                                                                              *          20180821 IMCT                IMCT                                                                                                                    WMF1808214.TXT
MDDDJ8274440201808                D89828070100PV1D20180824000060SPEAKER ASM                   M IMCTM S5MB11 TNTH  09020IMCT  S5 PTB  00004                    2230 SR        000000000000 DENSO TEN (THAILAND)180LNGL0191191                                                                                                                              *          20180821 IMCT                IMCT                                                                                                                    WMF1808214.TXT
MDDDJ8274441201808                D89828070100PV1D20180825000060SPEAKER ASM                   M IMCTM S5MB11 TNTH  09020IMCT  S5 PTB  00004                    0400 SR        000000000000 DENSO TEN (THAILAND)180LPAL0207207                                                                                                                              *          20180821 IMCT                IMCT                                                                                                                    WMF1808214.TXT
MDDDJ8274442201808                D89828070100PV1D20180827000060SPEAKER ASM                   M IMCTM S5MB11 TNTH  09020IMCT  S5 PTB  00004                    0830 SR        000000000000 DENSO TEN (THAILAND)180LRAL0233233                                                                                                                              *          20180821 IMCT                IMCT                                                                                                                    WMF1808214.TXT
MDDDJ8274443201808                D89828070100PV1D20180827000120SPEAKER ASM                   M IMCTM S5MB11 TNTH  09020IMCT  S5 PTB  00004                    1300 SR        000000000000 DENSO TEN (THAILAND)180LNGL0192192180LPAL0208208                                                                                                                *          20180821 IMCT                IMCT                                                                                                                    WMF1808214.TXT
MDDDJ8274444201808                D89828070100PV1D20180827000060SPEAKER ASM                   M IMCTM S5MB11 TNTH  09020IMCT  S5 PTB  00004                    1600 SR        000000000000 DENSO TEN (THAILAND)180LNHL0063063                                                                                                                              *          20180821 IMCT                IMCT                                                                                                                    WMF1808214.TXT
MDDDJ8274445201808                D89828070100PV1D20180827000060SPEAKER ASM                   M IMCTM S5MB11 TNTH  09020IMCT  S5 PTB  00004                    2100 SR        000000000000 DENSO TEN (THAILAND)180LRAL0234234                                                                                                                              *          20180821 IMCT                IMCT                                                                                                                    WMF1808214.TXT
MDDUJ8229160201808                D89828070100PT4U20180827000030SPEAKER ASM                   M IMCTM S0FL05 TNTH  09020IMCT  S0 PTB  00004                    0830 SR        000000000000 DENSO TEN (THAILAND)180LUSU0157157                                                                                                                              *          20180821 IMCT                IMCT                                                                                                                    WMF1808214.TXT
MDDUJ8229161201808                D89828070100PT4U20180827000030SPEAKER ASM                   M IMCTM S0FL05 TNTH  09020IMCT  S0 PTB  00004                    2100 SR        000000000000 DENSO TEN (THAILAND)180LUTU0114114                                                                                                                              *          20180821 IMCT                IMCT                                                                                                                    WMF1808214.TXT
MDDUJ8229162201808                D89828070200PV4U20180827000030SPEAKER ASM                   M IMCTM S0FR05 TNTH  09020IMCT  S0 PTB  00005                    0830 SR        000000000000 DENSO TEN (THAILAND)180LUSU0157157                                                                                                                              *          20180821 IMCT                IMCT                                                                                                                    WMF1808214.TXT
MDDUJ8229163201808                D89828070200PV4U20180827000030SPEAKER ASM                   M IMCTM S0FR05 TNTH  09020IMCT  S0 PTB  00005                    2100 SR        000000000000 DENSO TEN (THAILAND)180LUTU0114114                                                                                                                              *          20180821 IMCT                IMCT                                                                                                                    WMF1808214.TXT
MDDUJ8229164201808                D89828070300PT4U20180827000030SPEAKER ASM                   M IMCTM S9TS02 TNTH  09020IMCT  S9 PTB  00015                    0830 SR        000000000000 DENSO TEN (THAILAND)180LUSU0157157                                                                                                                              *          20180821 IMCT                IMCT                                                                                                                    WMF1808214.TXT
MDDUJ8229165201808                D89828070300PT4U20180827000030SPEAKER ASM                   M IMCTM S9TS02 TNTH  09020IMCT  S9 PTB  00015                    2100 SR        000000000000 DENSO TEN (THAILAND)180LUTU0114114                                                                                                                              *          20180821 IMCT                IMCT                                                                                                                    WMF1808214.TXT
MDEDJ8296683201808                D89828070100PV1D20180824000030SPEAKER ASM                   M IMCTM S5MB11 TNTH  09020IMCT  S5 PTB  00004                    2230 SR        000000000000 DENSO TEN (THAILAND)18099WL0003003                                                                                                                              *          20180821 IMCT                IMCT                                                                                                                    WMF1808214.TXT
MDEDJ8296684201808                D89828070100PV1D20180825000090SPEAKER ASM                   M IMCTM S5MB11 TNTH  09020IMCT  S5 PTB  00004                    0230 SR        000000000000 DENSO TEN (THAILAND)17033RL000900917075PL0140141                                                                                                                *          20180821 IMCT                IMCT                                                                                                                    WMF1808214.TXT
MDEDJ8296685201808                D89828070100PV1D20180825000030SPEAKER ASM                   M IMCTM S5MB11 TNTH  09020IMCT  S5 PTB  00004                    0400 SR        000000000000 DENSO TEN (THAILAND)18024XL0011011                                                                                                                              *          20180821 IMCT                IMCT                                                                                                                    WMF1808214.TXT
MDEDJ8296686201808                D89828070100PV1D20180827000060SPEAKER ASM                   M IMCTM S5MB11 TNTH  09020IMCT  S5 PTB  00004                    1030 SR        000000000000 DENSO TEN (THAILAND)18074UL0047048                                                                                                                              *          20180821 IMCT                IMCT                                                                                                                    WMF1808214.TXT
MDEDJ8296687201808                D89828070100PV1D20180827000060SPEAKER ASM                   M IMCTM S5MB11 TNTH  09020IMCT  S5 PTB  00004                    1600 SR        000000000000 DENSO TEN (THAILAND)18065UL0015016                                                                                                                              *          20180821 IMCT                IMCT                                                                                                                    WMF1808214.TXT
MDEDJ8296688201808                D89828070100PV4D20180824000030SPEAKER ASM                   M IMCTM S0FL05 TNTH  09020IMCT  S0 PTB  00004                    2230 SR        000000000000 DENSO TEN (THAILAND)18065UU0019019                                                                                                                              *          20180821 IMCT                IMCT                                                                                                                    WMF1808214.TXT
MDEDJ8296689201808                D89828070100PV4D20180825000060SPEAKER ASM                   M IMCTM S0FL05 TNTH  09020IMCT  S0 PTB  00004                    0400 SR        000000000000 DENSO TEN (THAILAND)18061UU002302318071UU0001001                                                                                                                *          20180821 IMCT                IMCT                                                                                                                    WMF1808214.TXT
MDEDJ8296690201808                D89828070100PV4D20180827000030SPEAKER ASM                   M IMCTM S0FL05 TNTH  09020IMCT  S0 PTB  00004                    1030 SR        000000000000 DENSO TEN (THAILAND)18068UU0016016                                                                                                                              *          20180821 IMCT                IMCT                                                                                                                    WMF1808214.TXT
MDEDJ8296691201808                D89828070100PV4D20180827000030SPEAKER ASM                   M IMCTM S0FL05 TNTH  09020IMCT  S0 PTB  00004                    1300 SR        000000000000 DENSO TEN (THAILAND)18068UU0017017                                                                                                                              *          20180821 IMCT                IMCT                                                                                                                    WMF1808214.TXT
MDEDJ8296692201808                D89828070100PV4D20180827000030SPEAKER ASM                   M IMCTM S0FL05 TNTH  09020IMCT  S0 PTB  00004                    1600 SR        000000000000 DENSO TEN (THAILAND)18061UU0024024                                                                                                                              *          20180821 IMCT                IMCT                                                                                                                    WMF1808214.TXT
MDEDJ8296693201808                D89828070100PV4D20180827000030SPEAKER ASM                   M IMCTM S0FL05 TNTH  09020IMCT  S0 PTB  00004                    2230 SR        000000000000 DENSO TEN (THAILAND)18099UU0026026                                                                                                                              *          20180821 IMCT                IMCT                                                                                                                    WMF1808214.TXT
MDEDJ8296694201808                D89828070200PV1D20180827000060SPEAKER ASM                   M IMCTM S5MA14 TNTH  09020IMCT  S5 PTB  00005                    1600 SR        000000000000 DENSO TEN (THAILAND)18065UL0015016                                                                                                                              *          20180821 IMCT                IMCT                                                                                                                    WMF1808214.TXT
MDEDJ8296695201808                D89828070200PV4D20180824000030SPEAKER ASM                   M IMCTM S0FR05 TNTH  09020IMCT  S0 PTB  00005                    2230 SR        000000000000 DENSO TEN (THAILAND)18065UU0019019                                                                                                                              *          20180821 IMCT                IMCT                                                                                                                    WMF1808214.TXT
MDEDJ8296696201808                D89828070200PV4D20180827000030SPEAKER ASM                   M IMCTM S0FR05 TNTH  09020IMCT  S0 PTB  00005                    1030 SR        000000000000 DENSO TEN (THAILAND)18068UU0016016                                                                                                                              *          20180821 IMCT                IMCT                                                                                                                    WMF1808214.TXT
MDEDJ8296697201808                D89828070200PV4D20180827000030SPEAKER ASM                   M IMCTM S0FR05 TNTH  09020IMCT  S0 PTB  00005                    1300 SR        000000000000 DENSO TEN (THAILAND)18068UU0017017                                                                                                                              *          20180821 IMCT                IMCT                                                                                                                    WMF1808214.TXT
MDEDJ8296698201808                D89828070200PV4D20180827000030SPEAKER ASM                   M IMCTM S0FR05 TNTH  09020IMCT  S0 PTB  00005                    2230 SR        000000000000 DENSO TEN (THAILAND)18099UU0026026                                                                                                                              *          20180821 IMCT                IMCT                                                                                                                    WMF1808214.TXT
MDEDJ8296699201808                D89828070300PT1D20180827000060SPEAKER ASM                   M IMCTM S5NB082TNTH  09020IMCT  S5 PTB  00015                    1030 SR        000000000000 DENSO TEN (THAILAND)18074UL0047048                                                                                                                              *          20180821 IMCT                IMCT                                                                                                                    WMF1808214.TXT
MDEDJ8296700201808                D89828070300PT1D20180827000060SPEAKER ASM                   M IMCTM S5NB082TNTH  09020IMCT  S5 PTB  00015                    1600 SR        000000000000 DENSO TEN (THAILAND)18065UL0015016                                                                                                                              *          20180821 IMCT                IMCT                                                                                                                    WMF1808214.TXT
MDEDJ8296701201808                D89828070300PT4D20180824000030SPEAKER ASM                   M IMCTM S9TS02 TNTH  09020IMCT  S9 PTB  00015                    2230 SR        000000000000 DENSO TEN (THAILAND)18065UU0019019                                                                                                                              *          20180821 IMCT                IMCT                                                                                                                    WMF1808214.TXT
MDEDJ8296702201808                D89828070300PT4D20180825000060SPEAKER ASM                   M IMCTM S9TS02 TNTH  09020IMCT  S9 PTB  00015                    0400 SR        000000000000 DENSO TEN (THAILAND)18061UU002302318071UU0001001                                                                                                                *          20180821 IMCT                IMCT                                                                                                                    WMF1808214.TXT
MDEDJ8296703201808                D89828070300PT4D20180827000030SPEAKER ASM                   M IMCTM S9TS02 TNTH  09020IMCT  S9 PTB  00015                    1030 SR        000000000000 DENSO TEN (THAILAND)18068UU0016016                                                                                                                              *          20180821 IMCT                IMCT                                                                                                                    WMF1808214.TXT
MDEDJ8296704201808                D89828070300PT4D20180827000030SPEAKER ASM                   M IMCTM S9TS02 TNTH  09020IMCT  S9 PTB  00015                    1300 SR        000000000000 DENSO TEN (THAILAND)18068UU0017017                                                                                                                              *          20180821 IMCT                IMCT                                                                                                                    WMF1808214.TXT
MDEDJ8296705201808                D89828070300PT4D20180827000030SPEAKER ASM                   M IMCTM S9TS02 TNTH  09020IMCT  S9 PTB  00015                    1600 SR        000000000000 DENSO TEN (THAILAND)18061UU0024024                                                                                                                              *          20180821 IMCT                IMCT                                                                                                                    WMF1808214.TXT
MDEDJ8296706201808                D89828070300PT4D20180827000030SPEAKER ASM                   M IMCTM S9TS02 TNTH  09020IMCT  S9 PTB  00015                    2230 SR        000000000000 DENSO TEN (THAILAND)18099UU0026026                                                                                                                              *          20180821 IMCT                IMCT                                                                                                                    WMF1808214.TXT
MDEDJ8296707201808                D89848581800PT1D20180827000030RADIO;AM/FM CD D              M IMCTM S5NC06 TNTH  09020IMCT  S5 PTB  00003                    1600 SR        000000000000 DENSO TEN (THAILAND)18065UL0015016                                                                                                                              *          20180821 IMCT                IMCT                                                                                                                    WMF1808214.TXT
MDEDJ8296708201808                D89848581800PT4D20180824000015RADIO;AM/FM CD D              M IMCTM S9CO001TNTH  09020IMCT  S9 PTB  00003                    2230 SR        000000000000 DENSO TEN (THAILAND)18065UU0019019                                                                                                                              *          20180821 IMCT                IMCT                                                                                                                    WMF1808214.TXT
MDEDJ8296709201808                D89848581800PT4D20180825000030RADIO;AM/FM CD D              M IMCTM S9CO001TNTH  09020IMCT  S9 PTB  00003                    0400 SR        000000000000 DENSO TEN (THAILAND)18061UU002302318071UU0001001                                                                                                                *          20180821 IMCT                IMCT                                                                                                                    WMF1808214.TXT
MDEDJ8296710201808                D89848581800PT4D20180827000015RADIO;AM/FM CD D              M IMCTM S9CO001TNTH  09020IMCT  S9 PTB  00003                    1600 SR        000000000000 DENSO TEN (THAILAND)18061UU0024024                                                                                                                              *          20180821 IMCT                IMCT                                                                                                                    WMF1808214.TXT
MDEDJ8296711201808                D89848582500PT1D20180827000030RADIO;AM/FM CD D              M IMCTM S5NC06 TNTH  09020IMCT  S5 PTB  00003                    1030 SR        000000000000 DENSO TEN (THAILAND)18074UL0047048                                                                                                                              *          20180821 IMCT                IMCT                                                                                                                    WMF1808214.TXT
MDEUJ8230188201808                D89828070100PT4U20180825000030SPEAKER ASM                   M IMCTM S0FL05 TNTH  09020IMCT  S0 PTB  00004                    0230 SR        000000000000 DENSO TEN (THAILAND)180D06U0002002                                                                                                                              *          20180821 IMCT                IMCT                                                                                                                    WMF1808214.TXT
MDEUJ8230189201808                D89828070100PT4U20180827000030SPEAKER ASM                   M IMCTM S0FL05 TNTH  09020IMCT  S0 PTB  00004                    1300 SR        000000000000 DENSO TEN (THAILAND)18060UU0011011                                                                                                                              *          20180821 IMCT                IMCT                                                                                                                    WMF1808214.TXT
MDEUJ8230190201808                D89828070100PT4U20180827000030SPEAKER ASM                   M IMCTM S0FL05 TNTH  09020IMCT  S0 PTB  00004                    1600 SR        000000000000 DENSO TEN (THAILAND)180D06U0003003                                                                                                                              *          20180821 IMCT                IMCT                                                                                                                    WMF1808214.TXT
MDEUJ8230191201808                D89828070200PV4U20180825000030SPEAKER ASM                   M IMCTM S0FR05 TNTH  09020IMCT  S0 PTB  00005                    0230 SR        000000000000 DENSO TEN (THAILAND)180D06U0002002                                                                                                                              *          20180821 IMCT                IMCT                                                                                                                    WMF1808214.TXT
MDEUJ8230192201808                D89828070200PV4U20180827000030SPEAKER ASM                   M IMCTM S0FR05 TNTH  09020IMCT  S0 PTB  00005                    1300 SR        000000000000 DENSO TEN (THAILAND)18060UU0011011                                                                                                                              *          20180821 IMCT                IMCT                                                                                                                    WMF1808214.TXT
MDEUJ8230193201808                D89828070200PV4U20180827000030SPEAKER ASM                   M IMCTM S0FR05 TNTH  09020IMCT  S0 PTB  00005                    1600 SR        000000000000 DENSO TEN (THAILAND)180D06U0003003                                                                                                                              *          20180821 IMCT                IMCT                                                                                                                    WMF1808214.TXT
MDEUJ8230194201808                D89828070300PT4U20180825000030SPEAKER ASM                   M IMCTM S9TS02 TNTH  09020IMCT  S9 PTB  00015                    0230 SR        000000000000 DENSO TEN (THAILAND)180D06U0002002                                                                                                                              *          20180821 IMCT                IMCT                                                                                                                    WMF1808214.TXT
MDEUJ8230195201808                D89828070300PT4U20180827000030SPEAKER ASM                   M IMCTM S9TS02 TNTH  09020IMCT  S9 PTB  00015                    1300 SR        000000000000 DENSO TEN (THAILAND)18060UU0011011                                                                                                                              *          20180821 IMCT                IMCT                                                                                                                    WMF1808214.TXT
MDEUJ8230196201808                D89828070300PT4U20180827000030SPEAKER ASM                   M IMCTM S9TS02 TNTH  09020IMCT  S9 PTB  00015                    1600 SR        000000000000 DENSO TEN (THAILAND)180D06U0003003                                                                                                                              *          20180821 IMCT                IMCT                                                                                                                    WMF1808214.TXT
MDEUJ8230197201808                D89848584410PT4U20180827000015RADIO;AM/FM CD D              M IMCTM S9CO001TNTH  09020IMCT  S9 PTB  00003                    1300 SR        000000000000 DENSO TEN (THAILAND)18060UU0011011                                                                                                                              *          20180821 IMCT                IMCT                                                                                                                    WMF1808214.TXT
