REC2018083020180830ISUZU                              19     
MAKK88074160201808D1               89825451200P3YK20180910000030SPEAKER ASM;ROOF              M IMCTM CM1    TNTH  09020IMKDC KA PTB  00036  K0                0911DES        000000000000 DENSO TEN (THAILAND)                                                                                                                                            *G         20180830 IMCT                IMCT                                                                                                                    WMF1808308.TXT
MAKK88074161201808D1               89825451200P3YK20180911000060SPEAKER ASM;ROOF              M IMCTM CM1    TNTH  09020IMKDC KA PTB  00036  K0                0911DES        000000000000 DENSO TEN (THAILAND)                                                                                                                                            *G         20180830 IMCT                IMCT                                                                                                                    WMF1808308.TXT
MAKK88074162201808D1               89825451200P3YK20180913000030SPEAKER ASM;ROOF              M IMCTM CM1    TNTH  09020IMKDC KA PTB  00036  K0                0911DES        000000000000 DENSO TEN (THAILAND)                                                                                                                                            *G         20180830 IMCT                IMCT                                                                                                                    WMF1808308.TXT
MAKK88074163201808D1               89825451200P3YK20180914000030SPEAKER ASM;ROOF              M IMCTM CM1    TNTH  09020IMKDC KA PTB  00036  K0                0911DES        000000000000 DENSO TEN (THAILAND)                                                                                                                                            *G         20180830 IMCT                IMCT                                                                                                                    WMF1808308.TXT
MAKK88074164201808D1               89828070100P3YK20180910000270SPEAKER ASM                   M IMCTM CM1    TNTH  09020IMKDC KA PTB  00004  K0                0911DES        000000000000 DENSO TEN (THAILAND)                                                                                                                                            *G         20180830 IMCT                IMCT                                                                                                                    WMF1808308.TXT
MAKK88074165201808D1               89828070100P3YK20180911000240SPEAKER ASM                   M IMCTM CM1    TNTH  09020IMKDC KA PTB  00004  K0                0911DES        000000000000 DENSO TEN (THAILAND)                                                                                                                                            *G         20180830 IMCT                IMCT                                                                                                                    WMF1808308.TXT
MAKK88074166201808D1               89828070100P3YK20180912000210SPEAKER ASM                   M IMCTM CM1    TNTH  09020IMKDC KA PTB  00004  K0                0911DES        000000000000 DENSO TEN (THAILAND)                                                                                                                                            *G         20180830 IMCT                IMCT                                                                                                                    WMF1808308.TXT
MAKK88074167201808D1               89828070100P3YK20180913000270SPEAKER ASM                   M IMCTM CM1    TNTH  09020IMKDC KA PTB  00004  K0                0911DES        000000000000 DENSO TEN (THAILAND)                                                                                                                                            *G         20180830 IMCT                IMCT                                                                                                                    WMF1808308.TXT
MAKK88074168201808D1               89828070100P3YK20180914000300SPEAKER ASM                   M IMCTM CM1    TNTH  09020IMKDC KA PTB  00004  K0                0911DES        000000000000 DENSO TEN (THAILAND)                                                                                                                                            *G         20180830 IMCT                IMCT                                                                                                                    WMF1808308.TXT
MAKK88074169201808D1               89828070200P3YK20180910000120SPEAKER ASM                   M IMCTM CM1    TNTH  09020IMKDC KA PTB  00005  K0                0911DES        000000000000 DENSO TEN (THAILAND)                                                                                                                                            *G         20180830 IMCT                IMCT                                                                                                                    WMF1808308.TXT
MAKK88074170201808D1               89828070200P3YK20180911000150SPEAKER ASM                   M IMCTM CM1    TNTH  09020IMKDC KA PTB  00005  K0                0911DES        000000000000 DENSO TEN (THAILAND)                                                                                                                                            *G         20180830 IMCT                IMCT                                                                                                                    WMF1808308.TXT
MAKK88074171201808D1               89828070200P3YK20180912000060SPEAKER ASM                   M IMCTM CM1    TNTH  09020IMKDC KA PTB  00005  K0                0911DES        000000000000 DENSO TEN (THAILAND)                                                                                                                                            *G         20180830 IMCT                IMCT                                                                                                                    WMF1808308.TXT
MAKK88074172201808D1               89828070200P3YK20180913000120SPEAKER ASM                   M IMCTM CM1    TNTH  09020IMKDC KA PTB  00005  K0                0911DES        000000000000 DENSO TEN (THAILAND)                                                                                                                                            *G         20180830 IMCT                IMCT                                                                                                                    WMF1808308.TXT
MAKK88074173201808D1               89828070200P3YK20180914000150SPEAKER ASM                   M IMCTM CM1    TNTH  09020IMKDC KA PTB  00005  K0                0911DES        000000000000 DENSO TEN (THAILAND)                                                                                                                                            *G         20180830 IMCT                IMCT                                                                                                                    WMF1808308.TXT
MAKK88074174201808D1               89828070300P3YK20180910000120SPEAKER ASM                   M IMCTM CM1    TNTH  09020IMKDC KA PTB  00015  K0                0911DES        000000000000 DENSO TEN (THAILAND)                                                                                                                                            *G         20180830 IMCT                IMCT                                                                                                                    WMF1808308.TXT
MAKK88074175201808D1               89828070300P3YK20180911000150SPEAKER ASM                   M IMCTM CM1    TNTH  09020IMKDC KA PTB  00015  K0                0911DES        000000000000 DENSO TEN (THAILAND)                                                                                                                                            *G         20180830 IMCT                IMCT                                                                                                                    WMF1808308.TXT
MAKK88074176201808D1               89828070300P3YK20180912000060SPEAKER ASM                   M IMCTM CM1    TNTH  09020IMKDC KA PTB  00015  K0                0911DES        000000000000 DENSO TEN (THAILAND)                                                                                                                                            *G         20180830 IMCT                IMCT                                                                                                                    WMF1808308.TXT
MAKK88074177201808D1               89828070300P3YK20180913000150SPEAKER ASM                   M IMCTM CM1    TNTH  09020IMKDC KA PTB  00015  K0                0911DES        000000000000 DENSO TEN (THAILAND)                                                                                                                                            *G         20180830 IMCT                IMCT                                                                                                                    WMF1808308.TXT
MAKK88074178201808D1               89828070300P3YK20180914000150SPEAKER ASM                   M IMCTM CM1    TNTH  09020IMKDC KA PTB  00015  K0                0911DES        000000000000 DENSO TEN (THAILAND)                                                                                                                                            *G         20180830 IMCT                IMCT                                                                                                                    WMF1808308.TXT
