REC2018082420180824ISUZU                              9      
MDEFJ8T20023201808                D89828070100PV4F20180830000028SPEAKER ASM                   M IMCTM S7FL05 TNTH  09020IMCT  S7 PTB  00004                    0830 SR        000000000000 DENSO TEN (THAILAND)170C94R0016   18088WR0031   S180806302    S180806315    000000                                                                              *R         20180824 IMCT                IMCT                                                                                                                    RMF1808248.TXT
MDEFJ8T20024201808                D89828070200PV4F20180829000017SPEAKER ASM                   M IMCTM S7FL05 TNTH  09020IMCT  S7 PTB  00005                    2230 SR        000000000000 DENSO TEN (THAILAND)17015RR0042   17072RR0010   C180806203    C180806215    000000                                                                              *R         20180824 IMCT                IMCT                                                                                                                    RMF1808248.TXT
MDEFJ8T20025201808                D89828070300PT4F20180829000007SPEAKER ASM                   M IMCTM S7TS02 TNTH  09020IMCT  S7 PTB  00015                    2230 SR        000000000000 DENSO TEN (THAILAND)17072RR0007   17072RR0010   C180806212    C180806215    000000                                                                              *R         20180824 IMCT                IMCT                                                                                                                    RMF1808248.TXT
MDEFJ8T20026201808                D89831229010PT4F20180829000001RADIO;AM/FM,CD                M IMCTM S7TS01 TNTH  09020IMCT  S7 PTB  00003                    2100 SR        000000000000 DENSO TEN (THAILAND)170C77R0031   170C77R0031   C180806201    C180806201    000000                                                                              *R         20180824 IMCT                IMCT                                                                                                                    RMF1808248.TXT
MDEFJ8T20027201808                D89831229200PT4F20180829000005RADIO;AM/FM,CD                M IMCTM S7TS03 TNTH  09020IMCT  S7 PTB  00003                    2230 SR        000000000000 DENSO TEN (THAILAND)17072RR0006   17072RR0010   C180806211    C180806215    000000                                                                              *R         20180824 IMCT                IMCT                                                                                                                    RMF1808248.TXT
MDEFJ8254735201808                D89828070100PV4F20180829000004SPEAKER ASM                   M IMCTM S7FL05 TNTH  09020IMCT  S7 PTB  00004                    2100 SR        000000000000 DENSO TEN (THAILAND)170C77R0031   17015RR0041   C180806201    C180806202    000000                                                                              *R         20180824 IMCT                IMCT                                                                                                                    RMF1808248.TXT
MDEFJ8254736201808                D89828070100PV4F20180829000028SPEAKER ASM                   M IMCTM S7FL05 TNTH  09020IMCT  S7 PTB  00004                    2230 SR        000000000000 DENSO TEN (THAILAND)17015RR0042   170C94R0015   C180806203    S180806301    000000                                                                              *R         20180824 IMCT                IMCT                                                                                                                    RMF1808248.TXT
MDEFJ8254737201808                D89828070200PV4F20180829000005SPEAKER ASM                   M IMCTM S7FL05 TNTH  09020IMCT  S7 PTB  00005                    2100 SR        000000000000 DENSO TEN (THAILAND)170C77R0031   17015RR0042   C180806201    C180806203    000000                                                                              *R         20180824 IMCT                IMCT                                                                                                                    RMF1808248.TXT
MDEFJ8254738201808                D89828070300PT4F20180829000015SPEAKER ASM                   M IMCTM S7TS02 TNTH  09020IMCT  S7 PTB  00015                    2100 SR        000000000000 DENSO TEN (THAILAND)170C77R0031   17072RR0007   C180806201    C180806212    000000                                                                              *R         20180824 IMCT                IMCT                                                                                                                    RMF1808248.TXT
