REC2018080420180804ISUZU                              50     
MDDDJ8222213201808                D89821984430PT1D20180809000060RADIO;AM/FM,CD                M IMCTM S5NC06 TNTH  09020IMCT  S5 PTB  00005                    0230 SR        000000000000 DENSO TEN (THAILAND)180LNGL0176176180LRAL0216216                                                                                                                *          20180804 IMCT                IMCT                                                                                                                    WMF1808045.TXT
MDDDJ8222214201808                D89821984430PT1D20180809000030RADIO;AM/FM,CD                M IMCTM S5NC06 TNTH  09020IMCT  S5 PTB  00005                    0400 SR        000000000000 DENSO TEN (THAILAND)180LNGL0177177                                                                                                                              *          20180804 IMCT                IMCT                                                                                                                    WMF1808045.TXT
MDDDJ8222215201808                D89821984430PT1D20180809000030RADIO;AM/FM,CD                M IMCTM S5NC06 TNTH  09020IMCT  S5 PTB  00005                    1300 SR        000000000000 DENSO TEN (THAILAND)180LNGL0178178                                                                                                                              *          20180804 IMCT                IMCT                                                                                                                    WMF1808045.TXT
MDDDJ8222216201808                D89828070100PV1D20180809000120SPEAKER ASM                   M IMCTM S5MB11 TNTH  09020IMCT  S5 PTB  00004                    0230 SR        000000000000 DENSO TEN (THAILAND)180LNGL0176176180LRAL0216216                                                                                                                *          20180804 IMCT                IMCT                                                                                                                    WMF1808045.TXT
MDDDJ8222217201808                D89828070100PV1D20180809000060SPEAKER ASM                   M IMCTM S5MB11 TNTH  09020IMCT  S5 PTB  00004                    0400 SR        000000000000 DENSO TEN (THAILAND)180LNGL0177177                                                                                                                              *          20180804 IMCT                IMCT                                                                                                                    WMF1808045.TXT
MDDDJ8222218201808                D89828070100PV1D20180809000060SPEAKER ASM                   M IMCTM S5MB11 TNTH  09020IMCT  S5 PTB  00004                    0830 SR        000000000000 DENSO TEN (THAILAND)180LPGL0301301                                                                                                                              *          20180804 IMCT                IMCT                                                                                                                    WMF1808045.TXT
MDDDJ8222219201808                D89828070100PV1D20180809000120SPEAKER ASM                   M IMCTM S5MB11 TNTH  09020IMCT  S5 PTB  00004                    1300 SR        000000000000 DENSO TEN (THAILAND)180LNGL0178178180LPFL0079079                                                                                                                *          20180804 IMCT                IMCT                                                                                                                    WMF1808045.TXT
MDDDJ8222220201808                D89828070100PV1D20180809000120SPEAKER ASM                   M IMCTM S5MB11 TNTH  09020IMCT  S5 PTB  00004                    1600 SR        000000000000 DENSO TEN (THAILAND)180LPHL0023023180LXAL0040040                                                                                                                *          20180804 IMCT                IMCT                                                                                                                    WMF1808045.TXT
MDDDJ8222221201808                D89828070100PV1D20180809000060SPEAKER ASM                   M IMCTM S5MB11 TNTH  09020IMCT  S5 PTB  00004                    2100 SR        000000000000 DENSO TEN (THAILAND)180LXBL0018018                                                                                                                              *          20180804 IMCT                IMCT                                                                                                                    WMF1808045.TXT
MDDDJ8222222201808                D89828070100PV4D20180809000060SPEAKER ASM                   M IMCTM S0FL05 TNTH  09020IMCT  S0 PTB  00004                    2100 SR        000000000000 DENSO TEN (THAILAND)180LRSU0057057                                                                                                                              *          20180804 IMCT                IMCT                                                                                                                    WMF1808045.TXT
MDDDJ8222223201808                D89828070200PV4D20180809000060SPEAKER ASM                   M IMCTM S0FR05 TNTH  09020IMCT  S0 PTB  00005                    2100 SR        000000000000 DENSO TEN (THAILAND)180LRSU0057057                                                                                                                              *          20180804 IMCT                IMCT                                                                                                                    WMF1808045.TXT
MDDDJ8222224201808                D89828070300PT1D20180809000060SPEAKER ASM                   M IMCTM S5NB082TNTH  09020IMCT  S5 PTB  00015                    0830 SR        000000000000 DENSO TEN (THAILAND)180LPGL0301301                                                                                                                              *          20180804 IMCT                IMCT                                                                                                                    WMF1808045.TXT
MDDDJ8222225201808                D89828070300PT1D20180809000060SPEAKER ASM                   M IMCTM S5NB082TNTH  09020IMCT  S5 PTB  00015                    1300 SR        000000000000 DENSO TEN (THAILAND)180LPFL0079079                                                                                                                              *          20180804 IMCT                IMCT                                                                                                                    WMF1808045.TXT
MDDDJ8222226201808                D89828070300PT1D20180809000060SPEAKER ASM                   M IMCTM S5NB082TNTH  09020IMCT  S5 PTB  00015                    1600 SR        000000000000 DENSO TEN (THAILAND)180LPHL0023023                                                                                                                              *          20180804 IMCT                IMCT                                                                                                                    WMF1808045.TXT
MDDDJ8222227201808                D89828070300PT4D20180809000060SPEAKER ASM                   M IMCTM S9TS02 TNTH  09020IMCT  S9 PTB  00015                    2100 SR        000000000000 DENSO TEN (THAILAND)180LRSU0057057                                                                                                                              *          20180804 IMCT                IMCT                                                                                                                    WMF1808045.TXT
MDDDJ8222228201808                D89831228300PT1D20180809000030RADIO;AM/FM,CD                M IMCTM S5NC06 TNTH  09020IMCT  S5 CPB  00003                    0830 SR        000000000000 DENSO TEN (THAILAND)180LPGL0301301                                                                                                                              *          20180804 IMCT                IMCT                                                                                                                    WMF1808045.TXT
MDDDJ8222229201808                D89831228300PT1D20180809000030RADIO;AM/FM,CD                M IMCTM S5NC06 TNTH  09020IMCT  S5 CPB  00003                    1300 SR        000000000000 DENSO TEN (THAILAND)180LPFL0079079                                                                                                                              *          20180804 IMCT                IMCT                                                                                                                    WMF1808045.TXT
MDDDJ8222230201808                D89831228300PT1D20180809000030RADIO;AM/FM,CD                M IMCTM S5NC06 TNTH  09020IMCT  S5 CPB  00003                    1600 SR        000000000000 DENSO TEN (THAILAND)180LPHL0023023                                                                                                                              *          20180804 IMCT                IMCT                                                                                                                    WMF1808045.TXT
MDDUJ8209038201808                D89828070100PT4U20180809000030SPEAKER ASM                   M IMCTM S0FL05 TNTH  09020IMCT  S0 PTB  00004                    0400 SR        000000000000 DENSO TEN (THAILAND)180LUTU0107107                                                                                                                              *          20180804 IMCT                IMCT                                                                                                                    WMF1808045.TXT
MDDUJ8209039201808                D89828070100PT4U20180809000030SPEAKER ASM                   M IMCTM S0FL05 TNTH  09020IMCT  S0 PTB  00004                    1030 SR        000000000000 DENSO TEN (THAILAND)180LUSU0148148                                                                                                                              *          20180804 IMCT                IMCT                                                                                                                    WMF1808045.TXT
MDDUJ8209040201808                D89828070100PT4U20180809000030SPEAKER ASM                   M IMCTM S0FL05 TNTH  09020IMCT  S0 PTB  00004                    1600 SR        000000000000 DENSO TEN (THAILAND)180LUQU0061061                                                                                                                              *          20180804 IMCT                IMCT                                                                                                                    WMF1808045.TXT
MDDUJ8209041201808                D89828070200PV4U20180809000030SPEAKER ASM                   M IMCTM S0FR05 TNTH  09020IMCT  S0 PTB  00005                    0400 SR        000000000000 DENSO TEN (THAILAND)180LUTU0107107                                                                                                                              *          20180804 IMCT                IMCT                                                                                                                    WMF1808045.TXT
MDDUJ8209042201808                D89828070200PV4U20180809000030SPEAKER ASM                   M IMCTM S0FR05 TNTH  09020IMCT  S0 PTB  00005                    1030 SR        000000000000 DENSO TEN (THAILAND)180LUSU0148148                                                                                                                              *          20180804 IMCT                IMCT                                                                                                                    WMF1808045.TXT
MDDUJ8209043201808                D89828070200PV4U20180809000030SPEAKER ASM                   M IMCTM S0FR05 TNTH  09020IMCT  S0 PTB  00005                    1600 SR        000000000000 DENSO TEN (THAILAND)180LUQU0061061                                                                                                                              *          20180804 IMCT                IMCT                                                                                                                    WMF1808045.TXT
MDDUJ8209044201808                D89828070300PT4U20180809000030SPEAKER ASM                   M IMCTM S9TS02 TNTH  09020IMCT  S9 PTB  00015                    0400 SR        000000000000 DENSO TEN (THAILAND)180LUTU0107107                                                                                                                              *          20180804 IMCT                IMCT                                                                                                                    WMF1808045.TXT
MDDUJ8209045201808                D89828070300PT4U20180809000030SPEAKER ASM                   M IMCTM S9TS02 TNTH  09020IMCT  S9 PTB  00015                    1030 SR        000000000000 DENSO TEN (THAILAND)180LUSU0148148                                                                                                                              *          20180804 IMCT                IMCT                                                                                                                    WMF1808045.TXT
MDDUJ8209046201808                D89828070300PT4U20180809000030SPEAKER ASM                   M IMCTM S9TS02 TNTH  09020IMCT  S9 PTB  00015                    1600 SR        000000000000 DENSO TEN (THAILAND)180LUQU0061061                                                                                                                              *          20180804 IMCT                IMCT                                                                                                                    WMF1808045.TXT
MDDUJ8209047201808                D89848584200PT4U20180809000015RADIO;AM/FM CD D              M IMCTM S9CO001TNTH  09020IMCT  S9 PTB  00003                    1600 SR        000000000000 DENSO TEN (THAILAND)180LUQU0061061                                                                                                                              *          20180804 IMCT                IMCT                                                                                                                    WMF1808045.TXT
MDEDJ8227828201808                D89828070100PV1D20180808000060SPEAKER ASM                   M IMCTM S5MB11 TNTH  09020IMCT  S5 PTB  00004                    2230 SR        000000000000 DENSO TEN (THAILAND)17041PL0087088                                                                                                                              *          20180804 IMCT                IMCT                                                                                                                    WMF1808045.TXT
MDEDJ8227829201808                D89828070100PV1D20180809000030SPEAKER ASM                   M IMCTM S5MB11 TNTH  09020IMCT  S5 PTB  00004                    0400 SR        000000000000 DENSO TEN (THAILAND)17062ZL0002002                                                                                                                              *          20180804 IMCT                IMCT                                                                                                                    WMF1808045.TXT
MDEDJ8227830201808                D89828070100PV1D20180809000060SPEAKER ASM                   M IMCTM S5MB11 TNTH  09020IMCT  S5 PTB  00004                    1030 SR        000000000000 DENSO TEN (THAILAND)18007ZL0130131                                                                                                                              *          20180804 IMCT                IMCT                                                                                                                    WMF1808045.TXT
MDEDJ8227831201808                D89828070100PV1D20180809000060SPEAKER ASM                   M IMCTM S5MB11 TNTH  09020IMCT  S5 PTB  00004                    1600 SR        000000000000 DENSO TEN (THAILAND)18001VL004404418007ZL0132132                                                                                                                *          20180804 IMCT                IMCT                                                                                                                    WMF1808045.TXT
MDEDJ8227832201808                D89828070100PV1D20180809000030SPEAKER ASM                   M IMCTM S5MB11 TNTH  09020IMCT  S5 PTB  00004                    2100 SR        000000000000 DENSO TEN (THAILAND)18035ZL0001001                                                                                                                              *          20180804 IMCT                IMCT                                                                                                                    WMF1808045.TXT
MDEDJ8227833201808                D89828070100PV4D20180809000030SPEAKER ASM                   M IMCTM S0FL05 TNTH  09020IMCT  S0 PTB  00004                    0230 SR        000000000000 DENSO TEN (THAILAND)18010ZU0049049                                                                                                                              *          20180804 IMCT                IMCT                                                                                                                    WMF1808045.TXT
MDEDJ8227834201808                D89828070100PV4D20180809000030SPEAKER ASM                   M IMCTM S0FL05 TNTH  09020IMCT  S0 PTB  00004                    0830 SR        000000000000 DENSO TEN (THAILAND)17008RU0003003                                                                                                                              *          20180804 IMCT                IMCT                                                                                                                    WMF1808045.TXT
MDEDJ8227835201808                D89828070100PV4D20180809000030SPEAKER ASM                   M IMCTM S0FL05 TNTH  09020IMCT  S0 PTB  00004                    1300 SR        000000000000 DENSO TEN (THAILAND)18010ZU0050050                                                                                                                              *          20180804 IMCT                IMCT                                                                                                                    WMF1808045.TXT
MDEDJ8227836201808                D89828070100PV4D20180809000060SPEAKER ASM                   M IMCTM S0FL05 TNTH  09020IMCT  S0 PTB  00004                    1600 SR        000000000000 DENSO TEN (THAILAND)18010ZU005105118068UU0015015                                                                                                                *          20180804 IMCT                IMCT                                                                                                                    WMF1808045.TXT
MDEDJ8227837201808                D89828070200PV1D20180809000030SPEAKER ASM                   M IMCTM S5MA14 TNTH  09020IMCT  S5 PTB  00005                    1600 SR        000000000000 DENSO TEN (THAILAND)18001VL0044044                                                                                                                              *          20180804 IMCT                IMCT                                                                                                                    WMF1808045.TXT
MDEDJ8227838201808                D89828070200PV4D20180809000030SPEAKER ASM                   M IMCTM S0FR05 TNTH  09020IMCT  S0 PTB  00005                    1600 SR        000000000000 DENSO TEN (THAILAND)18068UU0015015                                                                                                                              *          20180804 IMCT                IMCT                                                                                                                    WMF1808045.TXT
MDEDJ8227839201808                D89828070300PT1D20180809000030SPEAKER ASM                   M IMCTM S5NB082TNTH  09020IMCT  S5 PTB  00015                    1600 SR        000000000000 DENSO TEN (THAILAND)18001VL0044044                                                                                                                              *          20180804 IMCT                IMCT                                                                                                                    WMF1808045.TXT
MDEDJ8227840201808                D89828070300PT4D20180809000030SPEAKER ASM                   M IMCTM S9TS02 TNTH  09020IMCT  S9 PTB  00015                    1600 SR        000000000000 DENSO TEN (THAILAND)18068UU0015015                                                                                                                              *          20180804 IMCT                IMCT                                                                                                                    WMF1808045.TXT
MDEUJ8207844201808                D89828070100PT4U20180809000030SPEAKER ASM                   M IMCTM S0FL05 TNTH  09020IMCT  S0 PTB  00004                    0230 SR        000000000000 DENSO TEN (THAILAND)18021UU0146146                                                                                                                              *          20180804 IMCT                IMCT                                                                                                                    WMF1808045.TXT
MDEUJ8207845201808                D89828070100PT4U20180809000030SPEAKER ASM                   M IMCTM S0FL05 TNTH  09020IMCT  S0 PTB  00004                    0830 SR        000000000000 DENSO TEN (THAILAND)18021UU0147147                                                                                                                              *          20180804 IMCT                IMCT                                                                                                                    WMF1808045.TXT
MDEUJ8207846201808                D89828070100PT4U20180809000030SPEAKER ASM                   M IMCTM S0FL05 TNTH  09020IMCT  S0 PTB  00004                    1300 SR        000000000000 DENSO TEN (THAILAND)18020UU0102102                                                                                                                              *          20180804 IMCT                IMCT                                                                                                                    WMF1808045.TXT
MDEUJ8207847201808                D89828070200PV4U20180809000030SPEAKER ASM                   M IMCTM S0FR05 TNTH  09020IMCT  S0 PTB  00005                    0230 SR        000000000000 DENSO TEN (THAILAND)18021UU0146146                                                                                                                              *          20180804 IMCT                IMCT                                                                                                                    WMF1808045.TXT
MDEUJ8207848201808                D89828070200PV4U20180809000030SPEAKER ASM                   M IMCTM S0FR05 TNTH  09020IMCT  S0 PTB  00005                    0830 SR        000000000000 DENSO TEN (THAILAND)18021UU0147147                                                                                                                              *          20180804 IMCT                IMCT                                                                                                                    WMF1808045.TXT
MDEUJ8207849201808                D89828070200PV4U20180809000030SPEAKER ASM                   M IMCTM S0FR05 TNTH  09020IMCT  S0 PTB  00005                    1300 SR        000000000000 DENSO TEN (THAILAND)18020UU0102102                                                                                                                              *          20180804 IMCT                IMCT                                                                                                                    WMF1808045.TXT
MDEUJ8207850201808                D89828070300PT4U20180809000030SPEAKER ASM                   M IMCTM S9TS02 TNTH  09020IMCT  S9 PTB  00015                    0230 SR        000000000000 DENSO TEN (THAILAND)18021UU0146146                                                                                                                              *          20180804 IMCT                IMCT                                                                                                                    WMF1808045.TXT
MDEUJ8207851201808                D89828070300PT4U20180809000030SPEAKER ASM                   M IMCTM S9TS02 TNTH  09020IMCT  S9 PTB  00015                    0830 SR        000000000000 DENSO TEN (THAILAND)18021UU0147147                                                                                                                              *          20180804 IMCT                IMCT                                                                                                                    WMF1808045.TXT
MDEUJ8207852201808                D89828070300PT4U20180809000030SPEAKER ASM                   M IMCTM S9TS02 TNTH  09020IMCT  S9 PTB  00015                    1300 SR        000000000000 DENSO TEN (THAILAND)18020UU0102102                                                                                                                              *          20180804 IMCT                IMCT                                                                                                                    WMF1808045.TXT
