REC2018082220180822ISUZU                              11     
MDEBJ8T04380201808                D89828070100PT4B20180828000026SPEAKER ASM                   M IMCTM S7FL05 TNTH  09020IMCT  S7 PTB  00004                    1300 SR        000000000000 DENSO TEN (THAILAND)18021UR0005   18055YR0008   Y180805803    Y180805815    000000                                                                              *R         20180822 IMCT                IMCT                                                                                                                    RMF1808224.TXT
MDEBJ8T04381201808                D89828070200PV4B20180828000025SPEAKER ASM                   M IMCTM S7FL05 TNTH  09020IMCT  S7 PTB  00005                    1300 SR        000000000000 DENSO TEN (THAILAND)18021UR0005   18055YR0008   Y180805803    Y180805815    000000                                                                              *R         20180822 IMCT                IMCT                                                                                                                    RMF1808224.TXT
MDEBJ8T04382201808                D89828070300PT4B20180828000015SPEAKER ASM                   M IMCTM S7TS02 TNTH  09020IMCT  S7 PTB  00015                    1300 SR        000000000000 DENSO TEN (THAILAND)18021UR0010   18055YR0008   Y180805808    Y180805815    000000                                                                              *R         20180822 IMCT                IMCT                                                                                                                    RMF1808224.TXT
MDEBJ8T04383201808                D89848584410PT4B20180828000002RADIO;AM/FM CD D              M IMCTM S7TS01 TNTH  09020IMCT  S7 PTB  00003                    1300 SR        000000000000 DENSO TEN (THAILAND)18055YR0007   18055YR0008   Y180805814    Y180805815    000000                                                                              *R         20180822 IMCT                IMCT                                                                                                                    RMF1808224.TXT
MDEBJ8205187201808                D89828070100PT4B20180828000004SPEAKER ASM                   M IMCTM S7FL05 TNTH  09020IMCT  S7 PTB  00004                    1030 SR        000000000000 DENSO TEN (THAILAND)18021UR0003   18021UR0004   Y180805801    Y180805802    000000                                                                              *R         20180822 IMCT                IMCT                                                                                                                    RMF1808224.TXT
MDEBJ8205188201808                D89828070200PV4B20180828000005SPEAKER ASM                   M IMCTM S7FL05 TNTH  09020IMCT  S7 PTB  00005                    1030 SR        000000000000 DENSO TEN (THAILAND)18021UR0003   18021UR0005   Y180805801    Y180805803    000000                                                                              *R         20180822 IMCT                IMCT                                                                                                                    RMF1808224.TXT
MDEBJ8205189201808                D89828070300PT4B20180828000015SPEAKER ASM                   M IMCTM S7TS02 TNTH  09020IMCT  S7 PTB  00015                    1030 SR        000000000000 DENSO TEN (THAILAND)18021UR0003   18021UR0010   Y180805801    Y180805808    000000                                                                              *R         20180822 IMCT                IMCT                                                                                                                    RMF1808224.TXT
MDEFJ8T17518201808                D89828070100PV4F20180828000028SPEAKER ASM                   M IMCTM S7FL05 TNTH  09020IMCT  S7 PTB  00004                    0400 SR        000000000000 DENSO TEN (THAILAND)18003XR0031   18098WR0035   F180805702    F180805715    000000                                                                              *R         20180822 IMCT                IMCT                                                                                                                    RMF1808224.TXT
MDEFJ8T17519201808                D89828070300PT4F20180828000016SPEAKER ASM                   M IMCTM S7TS02 TNTH  09020IMCT  S7 PTB  00015                    0400 SR        000000000000 DENSO TEN (THAILAND)18006XR0022   18006XR0024   F180805703    F180805712    000000                                                                              *R         20180822 IMCT                IMCT                                                                                                                    RMF1808224.TXT
MDEFJ8T17520201808                D89848582800PT4F20180828000003RADIO;AM/FM CD D              M IMCTM S7TS01 TNTH  09020IMCT  S7 PTB  00003                    0400 SR        000000000000 DENSO TEN (THAILAND)18006XR0022   18006XR0024   F180805703    F180805712    000000                                                                              *R         20180822 IMCT                IMCT                                                                                                                    RMF1808224.TXT
MDEFJ8248158201808                D89828070100PV4F20180827000032SPEAKER ASM                   M IMCTM S7FL05 TNTH  09020IMCT  S7 PTB  00004                    2230 SR        000000000000 DENSO TEN (THAILAND)18003XR0030   18026YR0002   F180805701    H180805615    000000                                                                              *R         20180822 IMCT                IMCT                                                                                                                    RMF1808224.TXT
