REC2018081820180818ISUZU                              49     
MDDDJ8264112201808                D89821984430PT1D20180822000030RADIO;AM/FM,CD                M IMCTM S5NC06 TNTH  09020IMCT  S5 PTB  00005                    2230 SR        000000000000 DENSO TEN (THAILAND)180LRBL0053053                                                                                                                              *          20180818 IMCT                IMCT                                                                                                                    WMF1808184.TXT
MDDDJ8264113201808                D89821984430PT1D20180823000030RADIO;AM/FM,CD                M IMCTM S5NC06 TNTH  09020IMCT  S5 PTB  00005                    0400 SR        000000000000 DENSO TEN (THAILAND)180LPAL0205205                                                                                                                              *          20180818 IMCT                IMCT                                                                                                                    WMF1808184.TXT
MDDDJ8264114201808                D89821984430PT1D20180823000030RADIO;AM/FM,CD                M IMCTM S5NC06 TNTH  09020IMCT  S5 PTB  00005                    1030 SR        000000000000 DENSO TEN (THAILAND)180LNGL0187187                                                                                                                              *          20180818 IMCT                IMCT                                                                                                                    WMF1808184.TXT
MDDDJ8264115201808                D89821984430PT1D20180823000030RADIO;AM/FM,CD                M IMCTM S5NC06 TNTH  09020IMCT  S5 PTB  00005                    1300 SR        000000000000 DENSO TEN (THAILAND)180LNGL0188188                                                                                                                              *          20180818 IMCT                IMCT                                                                                                                    WMF1808184.TXT
MDDDJ8264116201808                D89821984430PT1D20180823000030RADIO;AM/FM,CD                M IMCTM S5NC06 TNTH  09020IMCT  S5 PTB  00005                    2100 SR        000000000000 DENSO TEN (THAILAND)180LPAL0206206                                                                                                                              *          20180818 IMCT                IMCT                                                                                                                    WMF1808184.TXT
MDDDJ8264117201808                D89828070100PV1D20180822000060SPEAKER ASM                   M IMCTM S5MB11 TNTH  09020IMCT  S5 PTB  00004                    2230 SR        000000000000 DENSO TEN (THAILAND)180LRBL0053053                                                                                                                              *          20180818 IMCT                IMCT                                                                                                                    WMF1808184.TXT
MDDDJ8264118201808                D89828070100PV1D20180823000060SPEAKER ASM                   M IMCTM S5MB11 TNTH  09020IMCT  S5 PTB  00004                    0230 SR        000000000000 DENSO TEN (THAILAND)180LPJL0032032                                                                                                                              *          20180818 IMCT                IMCT                                                                                                                    WMF1808184.TXT
MDDDJ8264119201808                D89828070100PV1D20180823000120SPEAKER ASM                   M IMCTM S5MB11 TNTH  09020IMCT  S5 PTB  00004                    0400 SR        000000000000 DENSO TEN (THAILAND)180LPAL0205205180LXAL0047047                                                                                                                *          20180818 IMCT                IMCT                                                                                                                    WMF1808184.TXT
MDDDJ8264120201808                D89828070100PV1D20180823000060SPEAKER ASM                   M IMCTM S5MB11 TNTH  09020IMCT  S5 PTB  00004                    1030 SR        000000000000 DENSO TEN (THAILAND)180LNGL0187187                                                                                                                              *          20180818 IMCT                IMCT                                                                                                                    WMF1808184.TXT
MDDDJ8264121201808                D89828070100PV1D20180823000060SPEAKER ASM                   M IMCTM S5MB11 TNTH  09020IMCT  S5 PTB  00004                    1300 SR        000000000000 DENSO TEN (THAILAND)180LNGL0188188                                                                                                                              *          20180818 IMCT                IMCT                                                                                                                    WMF1808184.TXT
MDDDJ8264122201808                D89828070100PV1D20180823000060SPEAKER ASM                   M IMCTM S5MB11 TNTH  09020IMCT  S5 PTB  00004                    2100 SR        000000000000 DENSO TEN (THAILAND)180LPAL0206206                                                                                                                              *          20180818 IMCT                IMCT                                                                                                                    WMF1808184.TXT
MDDDJ8264123201808                D89828070100PV4D20180823000060SPEAKER ASM                   M IMCTM S0FL05 TNTH  09020IMCT  S0 PTB  00004                    1300 SR        000000000000 DENSO TEN (THAILAND)180LRSU0059059                                                                                                                              *          20180818 IMCT                IMCT                                                                                                                    WMF1808184.TXT
MDDDJ8264124201808                D89828070200PV4D20180823000060SPEAKER ASM                   M IMCTM S0FR05 TNTH  09020IMCT  S0 PTB  00005                    1300 SR        000000000000 DENSO TEN (THAILAND)180LRSU0059059                                                                                                                              *          20180818 IMCT                IMCT                                                                                                                    WMF1808184.TXT
MDDDJ8264125201808                D89828070300PT1D20180823000060SPEAKER ASM                   M IMCTM S5NB082TNTH  09020IMCT  S5 PTB  00015                    0230 SR        000000000000 DENSO TEN (THAILAND)180LPJL0032032                                                                                                                              *          20180818 IMCT                IMCT                                                                                                                    WMF1808184.TXT
MDDDJ8264126201808                D89828070300PT4D20180823000060SPEAKER ASM                   M IMCTM S9TS02 TNTH  09020IMCT  S9 PTB  00015                    1300 SR        000000000000 DENSO TEN (THAILAND)180LRSU0059059                                                                                                                              *          20180818 IMCT                IMCT                                                                                                                    WMF1808184.TXT
MDDDJ8264127201808                D89831228300PT1D20180823000030RADIO;AM/FM,CD                M IMCTM S5NC06 TNTH  09020IMCT  S5 CPB  00003                    0230 SR        000000000000 DENSO TEN (THAILAND)180LPJL0032032                                                                                                                              *          20180818 IMCT                IMCT                                                                                                                    WMF1808184.TXT
MDDUJ8224945201808                D89828070100PT4U20180823000030SPEAKER ASM                   M IMCTM S0FL05 TNTH  09020IMCT  S0 PTB  00004                    0400 SR        000000000000 DENSO TEN (THAILAND)180LUTU0112112                                                                                                                              *          20180818 IMCT                IMCT                                                                                                                    WMF1808184.TXT
MDDUJ8224946201808                D89828070100PT4U20180823000030SPEAKER ASM                   M IMCTM S0FL05 TNTH  09020IMCT  S0 PTB  00004                    1300 SR        000000000000 DENSO TEN (THAILAND)180LUSU0156156                                                                                                                              *          20180818 IMCT                IMCT                                                                                                                    WMF1808184.TXT
MDDUJ8224947201808                D89828070200PV4U20180823000030SPEAKER ASM                   M IMCTM S0FR05 TNTH  09020IMCT  S0 PTB  00005                    0400 SR        000000000000 DENSO TEN (THAILAND)180LUTU0112112                                                                                                                              *          20180818 IMCT                IMCT                                                                                                                    WMF1808184.TXT
MDDUJ8224948201808                D89828070200PV4U20180823000030SPEAKER ASM                   M IMCTM S0FR05 TNTH  09020IMCT  S0 PTB  00005                    1300 SR        000000000000 DENSO TEN (THAILAND)180LUSU0156156                                                                                                                              *          20180818 IMCT                IMCT                                                                                                                    WMF1808184.TXT
MDDUJ8224949201808                D89828070300PT4U20180823000030SPEAKER ASM                   M IMCTM S9TS02 TNTH  09020IMCT  S9 PTB  00015                    0400 SR        000000000000 DENSO TEN (THAILAND)180LUTU0112112                                                                                                                              *          20180818 IMCT                IMCT                                                                                                                    WMF1808184.TXT
MDDUJ8224950201808                D89828070300PT4U20180823000030SPEAKER ASM                   M IMCTM S9TS02 TNTH  09020IMCT  S9 PTB  00015                    1300 SR        000000000000 DENSO TEN (THAILAND)180LUSU0156156                                                                                                                              *          20180818 IMCT                IMCT                                                                                                                    WMF1808184.TXT
MDEDJ8282228201808                D89828070100PV1D20180823000030SPEAKER ASM                   M IMCTM S5MB11 TNTH  09020IMCT  S5 PTB  00004                    0230 SR        000000000000 DENSO TEN (THAILAND)18082WL0022022                                                                                                                              *          20180818 IMCT                IMCT                                                                                                                    WMF1808184.TXT
MDEDJ8282229201808                D89828070100PV1D20180823000060SPEAKER ASM                   M IMCTM S5MB11 TNTH  09020IMCT  S5 PTB  00004                    0830 SR        000000000000 DENSO TEN (THAILAND)18008YL0022023                                                                                                                              *          20180818 IMCT                IMCT                                                                                                                    WMF1808184.TXT
MDEDJ8282230201808                D89828070100PV1D20180823000090SPEAKER ASM                   M IMCTM S5MB11 TNTH  09020IMCT  S5 PTB  00004                    1300 SR        000000000000 DENSO TEN (THAILAND)17075PL013913918056XL001501518065XL0006006                                                                                                  *          20180818 IMCT                IMCT                                                                                                                    WMF1808184.TXT
MDEDJ8282231201808                D89828070100PV1D20180823000060SPEAKER ASM                   M IMCTM S5MB11 TNTH  09020IMCT  S5 PTB  00004                    1600 SR        000000000000 DENSO TEN (THAILAND)17033RL000800818082UL0069069                                                                                                                *          20180818 IMCT                IMCT                                                                                                                    WMF1808184.TXT
MDEDJ8282232201808                D89828070100PV4D20180822000030SPEAKER ASM                   M IMCTM S0FL05 TNTH  09020IMCT  S0 PTB  00004                    2230 SR        000000000000 DENSO TEN (THAILAND)17061PU0014014                                                                                                                              *          20180818 IMCT                IMCT                                                                                                                    WMF1808184.TXT
MDEDJ8282233201808                D89828070100PV4D20180823000030SPEAKER ASM                   M IMCTM S0FL05 TNTH  09020IMCT  S0 PTB  00004                    0400 SR        000000000000 DENSO TEN (THAILAND)18082UU0014014                                                                                                                              *          20180818 IMCT                IMCT                                                                                                                    WMF1808184.TXT
MDEDJ8282234201808                D89828070100PV4D20180823000030SPEAKER ASM                   M IMCTM S0FL05 TNTH  09020IMCT  S0 PTB  00004                    1600 SR        000000000000 DENSO TEN (THAILAND)18010ZU0057057                                                                                                                              *          20180818 IMCT                IMCT                                                                                                                    WMF1808184.TXT
MDEDJ8282235201808                D89828070100PV4D20180823000030SPEAKER ASM                   M IMCTM S0FL05 TNTH  09020IMCT  S0 PTB  00004                    2230 SR        000000000000 DENSO TEN (THAILAND)17062PU0001001                                                                                                                              *          20180818 IMCT                IMCT                                                                                                                    WMF1808184.TXT
MDEDJ8282236201808                D89828070200PV1D20180823000060SPEAKER ASM                   M IMCTM S5MA14 TNTH  09020IMCT  S5 PTB  00005                    0830 SR        000000000000 DENSO TEN (THAILAND)18008YL0022023                                                                                                                              *          20180818 IMCT                IMCT                                                                                                                    WMF1808184.TXT
MDEDJ8282237201808                D89828070200PV1D20180823000060SPEAKER ASM                   M IMCTM S5MA14 TNTH  09020IMCT  S5 PTB  00005                    1300 SR        000000000000 DENSO TEN (THAILAND)18056XL001501518065XL0006006                                                                                                                *          20180818 IMCT                IMCT                                                                                                                    WMF1808184.TXT
MDEDJ8282238201808                D89828070200PV1D20180823000030SPEAKER ASM                   M IMCTM S5MA14 TNTH  09020IMCT  S5 PTB  00005                    1600 SR        000000000000 DENSO TEN (THAILAND)18082UL0069069                                                                                                                              *          20180818 IMCT                IMCT                                                                                                                    WMF1808184.TXT
MDEDJ8282239201808                D89828070200PV4D20180823000030SPEAKER ASM                   M IMCTM S0FR05 TNTH  09020IMCT  S0 PTB  00005                    0400 SR        000000000000 DENSO TEN (THAILAND)18082UU0014014                                                                                                                              *          20180818 IMCT                IMCT                                                                                                                    WMF1808184.TXT
MDEDJ8282240201808                D89828070300PT1D20180823000060SPEAKER ASM                   M IMCTM S5NB082TNTH  09020IMCT  S5 PTB  00015                    0830 SR        000000000000 DENSO TEN (THAILAND)18008YL0022023                                                                                                                              *          20180818 IMCT                IMCT                                                                                                                    WMF1808184.TXT
MDEDJ8282241201808                D89828070300PT1D20180823000060SPEAKER ASM                   M IMCTM S5NB082TNTH  09020IMCT  S5 PTB  00015                    1300 SR        000000000000 DENSO TEN (THAILAND)18056XL001501518065XL0006006                                                                                                                *          20180818 IMCT                IMCT                                                                                                                    WMF1808184.TXT
MDEDJ8282242201808                D89828070300PT1D20180823000030SPEAKER ASM                   M IMCTM S5NB082TNTH  09020IMCT  S5 PTB  00015                    1600 SR        000000000000 DENSO TEN (THAILAND)18082UL0069069                                                                                                                              *          20180818 IMCT                IMCT                                                                                                                    WMF1808184.TXT
MDEDJ8282243201808                D89828070300PT4D20180823000030SPEAKER ASM                   M IMCTM S9TS02 TNTH  09020IMCT  S9 PTB  00015                    0400 SR        000000000000 DENSO TEN (THAILAND)18082UU0014014                                                                                                                              *          20180818 IMCT                IMCT                                                                                                                    WMF1808184.TXT
MDEDJ8282244201808                D89848581800PT1D20180823000015RADIO;AM/FM CD D              M IMCTM S5NC06 TNTH  09020IMCT  S5 PTB  00003                    1600 SR        000000000000 DENSO TEN (THAILAND)18082UL0069069                                                                                                                              *          20180818 IMCT                IMCT                                                                                                                    WMF1808184.TXT
MDEDJ8282245201808                D89848581800PT4D20180823000015RADIO;AM/FM CD D              M IMCTM S9CO001TNTH  09020IMCT  S9 PTB  00003                    0400 SR        000000000000 DENSO TEN (THAILAND)18082UU0014014                                                                                                                              *          20180818 IMCT                IMCT                                                                                                                    WMF1808184.TXT
MDEUJ8225532201808                D89828070100PT4U20180823000030SPEAKER ASM                   M IMCTM S0FL05 TNTH  09020IMCT  S0 PTB  00004                    0230 SR        000000000000 DENSO TEN (THAILAND)18015UU0039039                                                                                                                              *          20180818 IMCT                IMCT                                                                                                                    WMF1808184.TXT
MDEUJ8225533201808                D89828070100PT4U20180823000030SPEAKER ASM                   M IMCTM S0FL05 TNTH  09020IMCT  S0 PTB  00004                    1030 SR        000000000000 DENSO TEN (THAILAND)18016UU0036036                                                                                                                              *          20180818 IMCT                IMCT                                                                                                                    WMF1808184.TXT
MDEUJ8225534201808                D89828070100PT4U20180823000030SPEAKER ASM                   M IMCTM S0FL05 TNTH  09020IMCT  S0 PTB  00004                    2100 SR        000000000000 DENSO TEN (THAILAND)18016UU0037037                                                                                                                              *          20180818 IMCT                IMCT                                                                                                                    WMF1808184.TXT
MDEUJ8225535201808                D89828070200PV4U20180823000030SPEAKER ASM                   M IMCTM S0FR05 TNTH  09020IMCT  S0 PTB  00005                    0230 SR        000000000000 DENSO TEN (THAILAND)18015UU0039039                                                                                                                              *          20180818 IMCT                IMCT                                                                                                                    WMF1808184.TXT
MDEUJ8225536201808                D89828070200PV4U20180823000030SPEAKER ASM                   M IMCTM S0FR05 TNTH  09020IMCT  S0 PTB  00005                    1030 SR        000000000000 DENSO TEN (THAILAND)18016UU0036036                                                                                                                              *          20180818 IMCT                IMCT                                                                                                                    WMF1808184.TXT
MDEUJ8225537201808                D89828070200PV4U20180823000030SPEAKER ASM                   M IMCTM S0FR05 TNTH  09020IMCT  S0 PTB  00005                    2100 SR        000000000000 DENSO TEN (THAILAND)18016UU0037037                                                                                                                              *          20180818 IMCT                IMCT                                                                                                                    WMF1808184.TXT
MDEUJ8225538201808                D89828070300PT4U20180823000030SPEAKER ASM                   M IMCTM S9TS02 TNTH  09020IMCT  S9 PTB  00015                    0230 SR        000000000000 DENSO TEN (THAILAND)18015UU0039039                                                                                                                              *          20180818 IMCT                IMCT                                                                                                                    WMF1808184.TXT
MDEUJ8225539201808                D89828070300PT4U20180823000030SPEAKER ASM                   M IMCTM S9TS02 TNTH  09020IMCT  S9 PTB  00015                    1030 SR        000000000000 DENSO TEN (THAILAND)18016UU0036036                                                                                                                              *          20180818 IMCT                IMCT                                                                                                                    WMF1808184.TXT
MDEUJ8225540201808                D89828070300PT4U20180823000030SPEAKER ASM                   M IMCTM S9TS02 TNTH  09020IMCT  S9 PTB  00015                    2100 SR        000000000000 DENSO TEN (THAILAND)18016UU0037037                                                                                                                              *          20180818 IMCT                IMCT                                                                                                                    WMF1808184.TXT
