REC2018081720180817ISUZU                              64     
MDDDJ8258539201808                D89821984430PT1D20180822000030RADIO;AM/FM,CD                M IMCTM S5NC06 TNTH  09020IMCT  S5 PTB  00005                    0400 SR        000000000000 DENSO TEN (THAILAND)180LNGL0185185                                                                                                                              *          20180817 IMCT                IMCT                                                                                                                    WMF1808175.TXT
MDDDJ8258540201808                D89821984430PT1D20180822000030RADIO;AM/FM,CD                M IMCTM S5NC06 TNTH  09020IMCT  S5 PTB  00005                    0830 SR        000000000000 DENSO TEN (THAILAND)180LPAL0204204                                                                                                                              *          20180817 IMCT                IMCT                                                                                                                    WMF1808175.TXT
MDDDJ8258541201808                D89821984430PT1D20180822000030RADIO;AM/FM,CD                M IMCTM S5NC06 TNTH  09020IMCT  S5 PTB  00005                    1300 SR        000000000000 DENSO TEN (THAILAND)180LNGL0186186                                                                                                                              *          20180817 IMCT                IMCT                                                                                                                    WMF1808175.TXT
MDDDJ8258542201808                D89828070100PV1D20180821000060SPEAKER ASM                   M IMCTM S5MB11 TNTH  09020IMCT  S5 PTB  00004                    2230 SR        000000000000 DENSO TEN (THAILAND)180LXBL0019019                                                                                                                              *          20180817 IMCT                IMCT                                                                                                                    WMF1808175.TXT
MDDDJ8258543201808                D89828070100PV1D20180822000060SPEAKER ASM                   M IMCTM S5MB11 TNTH  09020IMCT  S5 PTB  00004                    0400 SR        000000000000 DENSO TEN (THAILAND)180LNGL0185185                                                                                                                              *          20180817 IMCT                IMCT                                                                                                                    WMF1808175.TXT
MDDDJ8258544201808                D89828070100PV1D20180822000060SPEAKER ASM                   M IMCTM S5MB11 TNTH  09020IMCT  S5 PTB  00004                    0830 SR        000000000000 DENSO TEN (THAILAND)180LPAL0204204                                                                                                                              *          20180817 IMCT                IMCT                                                                                                                    WMF1808175.TXT
MDDDJ8258545201808                D89828070100PV1D20180822000060SPEAKER ASM                   M IMCTM S5MB11 TNTH  09020IMCT  S5 PTB  00004                    1030 SR        000000000000 DENSO TEN (THAILAND)180LXAL0045045                                                                                                                              *          20180817 IMCT                IMCT                                                                                                                    WMF1808175.TXT
MDDDJ8258546201808                D89828070100PV1D20180822000060SPEAKER ASM                   M IMCTM S5MB11 TNTH  09020IMCT  S5 PTB  00004                    1300 SR        000000000000 DENSO TEN (THAILAND)180LNGL0186186                                                                                                                              *          20180817 IMCT                IMCT                                                                                                                    WMF1808175.TXT
MDDDJ8258547201808                D89828070100PV1D20180822000060SPEAKER ASM                   M IMCTM S5MB11 TNTH  09020IMCT  S5 PTB  00004                    1600 SR        000000000000 DENSO TEN (THAILAND)180LXAL0046046                                                                                                                              *          20180817 IMCT                IMCT                                                                                                                    WMF1808175.TXT
MDDDJ8258548201808                D89828070100PV1D20180822000060SPEAKER ASM                   M IMCTM S5MB11 TNTH  09020IMCT  S5 PTB  00004                    2100 SR        000000000000 DENSO TEN (THAILAND)180LPQL0037037                                                                                                                              *          20180817 IMCT                IMCT                                                                                                                    WMF1808175.TXT
MDDDJ8258549201808                D89828070300PT1D20180822000060SPEAKER ASM                   M IMCTM S5NB082TNTH  09020IMCT  S5 PTB  00015                    2100 SR        000000000000 DENSO TEN (THAILAND)180LPQL0037037                                                                                                                              *          20180817 IMCT                IMCT                                                                                                                    WMF1808175.TXT
MDDDJ8258550201808                D89848581600PT1D20180822000030RADIO;AM/FM CD D              M IMCTM S5NC06 TNTH  09020IMCT  S5 PTB  00003                    2100 SR        000000000000 DENSO TEN (THAILAND)180LPQL0037037                                                                                                                              *          20180817 IMCT                IMCT                                                                                                                    WMF1808175.TXT
MDDUJ8223071201808                D89828070100PT4U20180822000030SPEAKER ASM                   M IMCTM S0FL05 TNTH  09020IMCT  S0 PTB  00004                    0400 SR        000000000000 DENSO TEN (THAILAND)180LUQU0063063                                                                                                                              *          20180817 IMCT                IMCT                                                                                                                    WMF1808175.TXT
MDDUJ8223072201808                D89828070100PT4U20180822000030SPEAKER ASM                   M IMCTM S0FL05 TNTH  09020IMCT  S0 PTB  00004                    1300 SR        000000000000 DENSO TEN (THAILAND)180LUTU0111111                                                                                                                              *          20180817 IMCT                IMCT                                                                                                                    WMF1808175.TXT
MDDUJ8223073201808                D89828070100PT4U20180822000030SPEAKER ASM                   M IMCTM S0FL05 TNTH  09020IMCT  S0 PTB  00004                    2230 SR        000000000000 DENSO TEN (THAILAND)180LUSU0155155                                                                                                                              *          20180817 IMCT                IMCT                                                                                                                    WMF1808175.TXT
MDDUJ8223074201808                D89828070200PV4U20180822000030SPEAKER ASM                   M IMCTM S0FR05 TNTH  09020IMCT  S0 PTB  00005                    0400 SR        000000000000 DENSO TEN (THAILAND)180LUQU0063063                                                                                                                              *          20180817 IMCT                IMCT                                                                                                                    WMF1808175.TXT
MDDUJ8223075201808                D89828070200PV4U20180822000030SPEAKER ASM                   M IMCTM S0FR05 TNTH  09020IMCT  S0 PTB  00005                    1300 SR        000000000000 DENSO TEN (THAILAND)180LUTU0111111                                                                                                                              *          20180817 IMCT                IMCT                                                                                                                    WMF1808175.TXT
MDDUJ8223076201808                D89828070200PV4U20180822000030SPEAKER ASM                   M IMCTM S0FR05 TNTH  09020IMCT  S0 PTB  00005                    2230 SR        000000000000 DENSO TEN (THAILAND)180LUSU0155155                                                                                                                              *          20180817 IMCT                IMCT                                                                                                                    WMF1808175.TXT
MDDUJ8223077201808                D89828070300PT4U20180822000030SPEAKER ASM                   M IMCTM S9TS02 TNTH  09020IMCT  S9 PTB  00015                    0400 SR        000000000000 DENSO TEN (THAILAND)180LUQU0063063                                                                                                                              *          20180817 IMCT                IMCT                                                                                                                    WMF1808175.TXT
MDDUJ8223078201808                D89828070300PT4U20180822000030SPEAKER ASM                   M IMCTM S9TS02 TNTH  09020IMCT  S9 PTB  00015                    1300 SR        000000000000 DENSO TEN (THAILAND)180LUTU0111111                                                                                                                              *          20180817 IMCT                IMCT                                                                                                                    WMF1808175.TXT
MDDUJ8223079201808                D89828070300PT4U20180822000030SPEAKER ASM                   M IMCTM S9TS02 TNTH  09020IMCT  S9 PTB  00015                    2230 SR        000000000000 DENSO TEN (THAILAND)180LUSU0155155                                                                                                                              *          20180817 IMCT                IMCT                                                                                                                    WMF1808175.TXT
MDDUJ8223080201808                D89848584200PT4U20180822000015RADIO;AM/FM CD D              M IMCTM S9CO001TNTH  09020IMCT  S9 PTB  00003                    0400 SR        000000000000 DENSO TEN (THAILAND)180LUQU0063063                                                                                                                              *          20180817 IMCT                IMCT                                                                                                                    WMF1808175.TXT
MDEDJ8275264201808                D89828070100PV1D20180821000060SPEAKER ASM                   M IMCTM S5MB11 TNTH  09020IMCT  S5 PTB  00004                    2230 SR        000000000000 DENSO TEN (THAILAND)18005XL001001018020XL0006006                                                                                                                *          20180817 IMCT                IMCT                                                                                                                    WMF1808175.TXT
MDEDJ8275265201808                D89828070100PV1D20180822000060SPEAKER ASM                   M IMCTM S5MB11 TNTH  09020IMCT  S5 PTB  00004                    0230 SR        000000000000 DENSO TEN (THAILAND)17033QL0088089                                                                                                                              *          20180817 IMCT                IMCT                                                                                                                    WMF1808175.TXT
MDEDJ8275266201808                D89828070100PV1D20180822000030SPEAKER ASM                   M IMCTM S5MB11 TNTH  09020IMCT  S5 PTB  00004                    0400 SR        000000000000 DENSO TEN (THAILAND)18007ZL0136136                                                                                                                              *          20180817 IMCT                IMCT                                                                                                                    WMF1808175.TXT
MDEDJ8275267201808                D89828070100PV1D20180822000030SPEAKER ASM                   M IMCTM S5MB11 TNTH  09020IMCT  S5 PTB  00004                    0830 SR        000000000000 DENSO TEN (THAILAND)18007ZL0137137                                                                                                                              *          20180817 IMCT                IMCT                                                                                                                    WMF1808175.TXT
MDEDJ8275268201808                D89828070100PV1D20180822000060SPEAKER ASM                   M IMCTM S5MB11 TNTH  09020IMCT  S5 PTB  00004                    1300 SR        000000000000 DENSO TEN (THAILAND)18034XL000400418082XL0009009                                                                                                                *          20180817 IMCT                IMCT                                                                                                                    WMF1808175.TXT
MDEDJ8275269201808                D89828070100PV1D20180822000060SPEAKER ASM                   M IMCTM S5MB11 TNTH  09020IMCT  S5 PTB  00004                    1600 SR        000000000000 DENSO TEN (THAILAND)18099UL0097098                                                                                                                              *          20180817 IMCT                IMCT                                                                                                                    WMF1808175.TXT
MDEDJ8275270201808                D89828070100PV4D20180821000030SPEAKER ASM                   M IMCTM S0FL05 TNTH  09020IMCT  S0 PTB  00004                    2230 SR        000000000000 DENSO TEN (THAILAND)18098UU0037037                                                                                                                              *          20180817 IMCT                IMCT                                                                                                                    WMF1808175.TXT
MDEDJ8275271201808                D89828070100PV4D20180822000030SPEAKER ASM                   M IMCTM S0FL05 TNTH  09020IMCT  S0 PTB  00004                    0400 SR        000000000000 DENSO TEN (THAILAND)17009QU0001001                                                                                                                              *          20180817 IMCT                IMCT                                                                                                                    WMF1808175.TXT
MDEDJ8275272201808                D89828070100PV4D20180822000030SPEAKER ASM                   M IMCTM S0FL05 TNTH  09020IMCT  S0 PTB  00004                    0830 SR        000000000000 DENSO TEN (THAILAND)18082UU0013013                                                                                                                              *          20180817 IMCT                IMCT                                                                                                                    WMF1808175.TXT
MDEDJ8275273201808                D89828070100PV4D20180822000030SPEAKER ASM                   M IMCTM S0FL05 TNTH  09020IMCT  S0 PTB  00004                    1300 SR        000000000000 DENSO TEN (THAILAND)18098UU0038038                                                                                                                              *          20180817 IMCT                IMCT                                                                                                                    WMF1808175.TXT
MDEDJ8275274201808                D89828070100PV4D20180822000030SPEAKER ASM                   M IMCTM S0FL05 TNTH  09020IMCT  S0 PTB  00004                    1600 SR        000000000000 DENSO TEN (THAILAND)18010ZU0056056                                                                                                                              *          20180817 IMCT                IMCT                                                                                                                    WMF1808175.TXT
MDEDJ8275275201808                D89828070100PV4D20180822000030SPEAKER ASM                   M IMCTM S0FL05 TNTH  09020IMCT  S0 PTB  00004                    2100 SR        000000000000 DENSO TEN (THAILAND)18065UU0018018                                                                                                                              *          20180817 IMCT                IMCT                                                                                                                    WMF1808175.TXT
MDEDJ8275276201808                D89828070200PV1D20180822000060SPEAKER ASM                   M IMCTM S5MA14 TNTH  09020IMCT  S5 PTB  00005                    0230 SR        000000000000 DENSO TEN (THAILAND)17033QL0088089                                                                                                                              *          20180817 IMCT                IMCT                                                                                                                    WMF1808175.TXT
MDEDJ8275277201808                D89828070200PV1D20180822000030SPEAKER ASM                   M IMCTM S5MA14 TNTH  09020IMCT  S5 PTB  00005                    1300 SR        000000000000 DENSO TEN (THAILAND)18034XL0004004                                                                                                                              *          20180817 IMCT                IMCT                                                                                                                    WMF1808175.TXT
MDEDJ8275278201808                D89828070200PV1D20180822000060SPEAKER ASM                   M IMCTM S5MA14 TNTH  09020IMCT  S5 PTB  00005                    1600 SR        000000000000 DENSO TEN (THAILAND)18099UL0097098                                                                                                                              *          20180817 IMCT                IMCT                                                                                                                    WMF1808175.TXT
MDEDJ8275279201808                D89828070200PV4D20180821000030SPEAKER ASM                   M IMCTM S0FR05 TNTH  09020IMCT  S0 PTB  00005                    2230 SR        000000000000 DENSO TEN (THAILAND)18098UU0037037                                                                                                                              *          20180817 IMCT                IMCT                                                                                                                    WMF1808175.TXT
MDEDJ8275280201808                D89828070200PV4D20180822000030SPEAKER ASM                   M IMCTM S0FR05 TNTH  09020IMCT  S0 PTB  00005                    0400 SR        000000000000 DENSO TEN (THAILAND)17009QU0001001                                                                                                                              *          20180817 IMCT                IMCT                                                                                                                    WMF1808175.TXT
MDEDJ8275281201808                D89828070200PV4D20180822000030SPEAKER ASM                   M IMCTM S0FR05 TNTH  09020IMCT  S0 PTB  00005                    0830 SR        000000000000 DENSO TEN (THAILAND)18082UU0013013                                                                                                                              *          20180817 IMCT                IMCT                                                                                                                    WMF1808175.TXT
MDEDJ8275282201808                D89828070200PV4D20180822000030SPEAKER ASM                   M IMCTM S0FR05 TNTH  09020IMCT  S0 PTB  00005                    1300 SR        000000000000 DENSO TEN (THAILAND)18098UU0038038                                                                                                                              *          20180817 IMCT                IMCT                                                                                                                    WMF1808175.TXT
MDEDJ8275283201808                D89828070200PV4D20180822000030SPEAKER ASM                   M IMCTM S0FR05 TNTH  09020IMCT  S0 PTB  00005                    2100 SR        000000000000 DENSO TEN (THAILAND)18065UU0018018                                                                                                                              *          20180817 IMCT                IMCT                                                                                                                    WMF1808175.TXT
MDEDJ8275284201808                D89828070300PT1D20180821000060SPEAKER ASM                   M IMCTM S5NB082TNTH  09020IMCT  S5 PTB  00015                    2230 SR        000000000000 DENSO TEN (THAILAND)18005XL001001018020XL0006006                                                                                                                *          20180817 IMCT                IMCT                                                                                                                    WMF1808175.TXT
MDEDJ8275285201808                D89828070300PT1D20180822000060SPEAKER ASM                   M IMCTM S5NB082TNTH  09020IMCT  S5 PTB  00015                    0230 SR        000000000000 DENSO TEN (THAILAND)17033QL0088089                                                                                                                              *          20180817 IMCT                IMCT                                                                                                                    WMF1808175.TXT
MDEDJ8275286201808                D89828070300PT1D20180822000030SPEAKER ASM                   M IMCTM S5NB082TNTH  09020IMCT  S5 PTB  00015                    1300 SR        000000000000 DENSO TEN (THAILAND)18034XL0004004                                                                                                                              *          20180817 IMCT                IMCT                                                                                                                    WMF1808175.TXT
MDEDJ8275287201808                D89828070300PT1D20180822000060SPEAKER ASM                   M IMCTM S5NB082TNTH  09020IMCT  S5 PTB  00015                    1600 SR        000000000000 DENSO TEN (THAILAND)18099UL0097098                                                                                                                              *          20180817 IMCT                IMCT                                                                                                                    WMF1808175.TXT
MDEDJ8275288201808                D89828070300PT4D20180821000030SPEAKER ASM                   M IMCTM S9TS02 TNTH  09020IMCT  S9 PTB  00015                    2230 SR        000000000000 DENSO TEN (THAILAND)18098UU0037037                                                                                                                              *          20180817 IMCT                IMCT                                                                                                                    WMF1808175.TXT
MDEDJ8275289201808                D89828070300PT4D20180822000030SPEAKER ASM                   M IMCTM S9TS02 TNTH  09020IMCT  S9 PTB  00015                    0400 SR        000000000000 DENSO TEN (THAILAND)17009QU0001001                                                                                                                              *          20180817 IMCT                IMCT                                                                                                                    WMF1808175.TXT
MDEDJ8275290201808                D89828070300PT4D20180822000030SPEAKER ASM                   M IMCTM S9TS02 TNTH  09020IMCT  S9 PTB  00015                    0830 SR        000000000000 DENSO TEN (THAILAND)18082UU0013013                                                                                                                              *          20180817 IMCT                IMCT                                                                                                                    WMF1808175.TXT
MDEDJ8275291201808                D89828070300PT4D20180822000030SPEAKER ASM                   M IMCTM S9TS02 TNTH  09020IMCT  S9 PTB  00015                    1300 SR        000000000000 DENSO TEN (THAILAND)18098UU0038038                                                                                                                              *          20180817 IMCT                IMCT                                                                                                                    WMF1808175.TXT
MDEDJ8275292201808                D89828070300PT4D20180822000030SPEAKER ASM                   M IMCTM S9TS02 TNTH  09020IMCT  S9 PTB  00015                    2100 SR        000000000000 DENSO TEN (THAILAND)18065UU0018018                                                                                                                              *          20180817 IMCT                IMCT                                                                                                                    WMF1808175.TXT
MDEDJ8275293201808                D89831228800PT1D20180822000015RADIO;AM/FM,CD                M IMCTM S5NC06 TNTH  09020IMCT  S5 PTB  00003                    1300 SR        000000000000 DENSO TEN (THAILAND)18034XL0004004                                                                                                                              *          20180817 IMCT                IMCT                                                                                                                    WMF1808175.TXT
MDEDJ8275294201808                D89831229200PT1D20180822000030RADIO;AM/FM,CD                M IMCTM S5NC06 TNTH  09020IMCT  S5 PTB  00003                    0230 SR        000000000000 DENSO TEN (THAILAND)17033QL0088089                                                                                                                              *          20180817 IMCT                IMCT                                                                                                                    WMF1808175.TXT
MDEDJ8275295201808                D89831229200PT4D20180822000015RADIO;AM/FM,CD                M IMCTM S9CO001TNTH  09020IMCT  S9 PTB  00003                    0400 SR        000000000000 DENSO TEN (THAILAND)17009QU0001001                                                                                                                              *          20180817 IMCT                IMCT                                                                                                                    WMF1808175.TXT
MDEDJ8275296201808                D89848581800PT4D20180821000015RADIO;AM/FM CD D              M IMCTM S9CO001TNTH  09020IMCT  S9 PTB  00003                    2230 SR        000000000000 DENSO TEN (THAILAND)18098UU0037037                                                                                                                              *          20180817 IMCT                IMCT                                                                                                                    WMF1808175.TXT
MDEDJ8275297201808                D89848581800PT4D20180822000015RADIO;AM/FM CD D              M IMCTM S9CO001TNTH  09020IMCT  S9 PTB  00003                    0830 SR        000000000000 DENSO TEN (THAILAND)18082UU0013013                                                                                                                              *          20180817 IMCT                IMCT                                                                                                                    WMF1808175.TXT
MDEDJ8275298201808                D89848581800PT4D20180822000015RADIO;AM/FM CD D              M IMCTM S9CO001TNTH  09020IMCT  S9 PTB  00003                    1300 SR        000000000000 DENSO TEN (THAILAND)18098UU0038038                                                                                                                              *          20180817 IMCT                IMCT                                                                                                                    WMF1808175.TXT
MDEDJ8275299201808                D89848581800PT4D20180822000015RADIO;AM/FM CD D              M IMCTM S9CO001TNTH  09020IMCT  S9 PTB  00003                    2100 SR        000000000000 DENSO TEN (THAILAND)18065UU0018018                                                                                                                              *          20180817 IMCT                IMCT                                                                                                                    WMF1808175.TXT
MDEUJ8223244201808                D89828070100PT4U20180822000030SPEAKER ASM                   M IMCTM S0FL05 TNTH  09020IMCT  S0 PTB  00004                    0230 SR        000000000000 DENSO TEN (THAILAND)18021UU0156156                                                                                                                              *          20180817 IMCT                IMCT                                                                                                                    WMF1808175.TXT
MDEUJ8223245201808                D89828070100PT4U20180822000030SPEAKER ASM                   M IMCTM S0FL05 TNTH  09020IMCT  S0 PTB  00004                    1300 SR        000000000000 DENSO TEN (THAILAND)18016UU0035035                                                                                                                              *          20180817 IMCT                IMCT                                                                                                                    WMF1808175.TXT
MDEUJ8223246201808                D89828070200PV4U20180822000030SPEAKER ASM                   M IMCTM S0FR05 TNTH  09020IMCT  S0 PTB  00005                    0230 SR        000000000000 DENSO TEN (THAILAND)18021UU0156156                                                                                                                              *          20180817 IMCT                IMCT                                                                                                                    WMF1808175.TXT
MDEUJ8223247201808                D89828070200PV4U20180822000030SPEAKER ASM                   M IMCTM S0FR05 TNTH  09020IMCT  S0 PTB  00005                    1300 SR        000000000000 DENSO TEN (THAILAND)18016UU0035035                                                                                                                              *          20180817 IMCT                IMCT                                                                                                                    WMF1808175.TXT
MDEUJ8223248201808                D89828070300PT4U20180822000030SPEAKER ASM                   M IMCTM S9TS02 TNTH  09020IMCT  S9 PTB  00015                    0230 SR        000000000000 DENSO TEN (THAILAND)18021UU0156156                                                                                                                              *          20180817 IMCT                IMCT                                                                                                                    WMF1808175.TXT
MDEUJ8223249201808                D89828070300PT4U20180822000030SPEAKER ASM                   M IMCTM S9TS02 TNTH  09020IMCT  S9 PTB  00015                    1300 SR        000000000000 DENSO TEN (THAILAND)18016UU0035035                                                                                                                              *          20180817 IMCT                IMCT                                                                                                                    WMF1808175.TXT
