REC2018083120180831ISUZU                              14     
MDEBJ8T05525201809                D89828070100PT4B20180906000028SPEAKER ASM                   M IMCTM S7FL05 TNTH  09020IMCT  S7 PTB  00004                    1600 SR        000000000000 DENSO TEN (THAILAND)18050ZR0016   18050ZR0029   Y180901502    Y180901515    000000                                                                              *R         20180831 IMCT                IMCT                                                                                                                    RMF1808317.TXT
MDEBJ8T05526201809                D89828070200PV4B20180906000030SPEAKER ASM                   M IMCTM S7FL05 TNTH  09020IMCT  S7 PTB  00005                    1600 SR        000000000000 DENSO TEN (THAILAND)18049ZR0031   18050ZR0029   Y180901501    Y180901515    000000                                                                              *R         20180831 IMCT                IMCT                                                                                                                    RMF1808317.TXT
MDEBJ8T05527201809                D89828070300PT4B20180906000030SPEAKER ASM                   M IMCTM S7TS02 TNTH  09020IMCT  S7 PTB  00015                    1600 SR        000000000000 DENSO TEN (THAILAND)18049ZR0031   18050ZR0029   Y180901501    Y180901515    000000                                                                              *R         20180831 IMCT                IMCT                                                                                                                    RMF1808317.TXT
MDEBJ8T05528201809                D89831229200PT4B20180906000002RADIO;AM/FM,CD                M IMCTM S7TS03 TNTH  09020IMCT  S7 PTB  00003                    1300 SR        000000000000 DENSO TEN (THAILAND)18032TR0040   18032TR0041   Z180901406    Z180901413    000000                                                                              *R         20180831 IMCT                IMCT                                                                                                                    RMF1808317.TXT
MDEBJ8207392201809                D89828070100PT4B20180906000032SPEAKER ASM                   M IMCTM S7FL05 TNTH  09020IMCT  S7 PTB  00004                    1300 SR        000000000000 DENSO TEN (THAILAND)18049ZR0031   18030TR0068   Y180901501    Z180901415    000000                                                                              *R         20180831 IMCT                IMCT                                                                                                                    RMF1808317.TXT
MDEBJ8207393201809                D89828070200PV4B20180906000030SPEAKER ASM                   M IMCTM S7FL05 TNTH  09020IMCT  S7 PTB  00005                    1300 SR        000000000000 DENSO TEN (THAILAND)18033TR0048   18030TR0068   Z180901401    Z180901415    000000                                                                              *R         20180831 IMCT                IMCT                                                                                                                    RMF1808317.TXT
MDEBJ8207394201809                D89828070300PT4B20180906000030SPEAKER ASM                   M IMCTM S7TS02 TNTH  09020IMCT  S7 PTB  00015                    1300 SR        000000000000 DENSO TEN (THAILAND)18033TR0048   18030TR0068   Z180901401    Z180901415    000000                                                                              *R         20180831 IMCT                IMCT                                                                                                                    RMF1808317.TXT
MDEFJ8T26209201809                D89828070100PV4F20180906000012SPEAKER ASM                   M IMCTM S7FL05 TNTH  09020IMCT  S7 PTB  00004                    0830 SR        000000000000 DENSO TEN (THAILAND)180G88R0001   18034ZR0032   S180901310    S180901315    000000                                                                              *R         20180831 IMCT                IMCT                                                                                                                    RMF1808317.TXT
MDEFJ8T26210201809                D89828070200PV4F20180905000030SPEAKER ASM                   M IMCTM S7FL05 TNTH  09020IMCT  S7 PTB  00005                    2230 SR        000000000000 DENSO TEN (THAILAND)17025QR0042   17040RR0101   D180901201    D180901215    000000                                                                              *R         20180831 IMCT                IMCT                                                                                                                    RMF1808317.TXT
MDEFJ8T26211201809                D89828070300PT4F20180905000030SPEAKER ASM                   M IMCTM S7TS02 TNTH  09020IMCT  S7 PTB  00015                    2230 SR        000000000000 DENSO TEN (THAILAND)17025QR0042   17040RR0101   D180901201    D180901215    000000                                                                              *R         20180831 IMCT                IMCT                                                                                                                    RMF1808317.TXT
MDEFJ8T26212201809                D89831229010PT4F20180905000002RADIO;AM/FM,CD                M IMCTM S7TS01 TNTH  09020IMCT  S7 PTB  00003                    2230 SR        000000000000 DENSO TEN (THAILAND)17037RR0171   17040RR0101   D180901203    D180901215    000000                                                                              *R         20180831 IMCT                IMCT                                                                                                                    RMF1808317.TXT
MDEFJ8T26213201809                D89831229200PT4F20180905000004RADIO;AM/FM,CD                M IMCTM S7TS03 TNTH  09020IMCT  S7 PTB  00003                    2230 SR        000000000000 DENSO TEN (THAILAND)17025QR0042   17032QR0152   D180901201    D180901214    000000                                                                              *R         20180831 IMCT                IMCT                                                                                                                    RMF1808317.TXT
MDEFJ8275180201809                D89828070100PV4F20180905000032SPEAKER ASM                   M IMCTM S7FL05 TNTH  09020IMCT  S7 PTB  00004                    2230 SR        000000000000 DENSO TEN (THAILAND)17025QR0042   170C94R0018   D180901201    S180901301    000000                                                                              *R         20180831 IMCT                IMCT                                                                                                                    RMF1808317.TXT
MDEFJ8275181201809                D89828070100PV4F20180906000016SPEAKER ASM                   M IMCTM S7FL05 TNTH  09020IMCT  S7 PTB  00004                    0400 SR        000000000000 DENSO TEN (THAILAND)170C94R0019   17028RR0168   S180901302    S180901309    000000                                                                              *R         20180831 IMCT                IMCT                                                                                                                    RMF1808317.TXT
