REC2018082820180828ISUZU                              3      
MDEFJ8T22263201809                D89828070100PV4F20180903000028SPEAKER ASM                   M IMCTM S7FL05 TNTH  09020IMCT  S7 PTB  00004                    1030 SR        000000000000 DENSO TEN (THAILAND)18072WR0037   17067PR0016   R180900302    R180900315    000000                                                                              *R         20180828 IMCT                IMCT                                                                                                                    RMF1808284.TXT
MDEFJ8261407201809                D89828070100PV4F20180901000008SPEAKER ASM                   M IMCTM S7FL05 TNTH  09020IMCT  S7 PTB  00004                    0230 SR        000000000000 DENSO TEN (THAILAND)18082WR0027   18082WR0030   S180900201    S180900204    000000                                                                              *R         20180828 IMCT                IMCT                                                                                                                    RMF1808284.TXT
MDEFJ8261408201809                D89828070100PV4F20180901000024SPEAKER ASM                   M IMCTM S7FL05 TNTH  09020IMCT  S7 PTB  00004                    0400 SR        000000000000 DENSO TEN (THAILAND)18072WR0036   170C94R0017   R180900301    S180900215    000000                                                                              *R         20180828 IMCT                IMCT                                                                                                                    RMF1808284.TXT
