REC2018082120180821ISUZU                              3      
MECKJ8801775000000          IMKDC  89828070300P3YK20180904000002SPEAKER ASM                   M IMCTM IMKDC  TNTH  09020IMKDC KI*PTB  00015    K293J0620   001 0000 ES        000000000000 DENSO TEN (THAILAND)                                                                                                                                            *G         20180821 IMCT                IMCT                                                                                                                    WMF1808215.TXT
MECKJ8801776000000          IMKDC  89828070300P3YK20180905000008SPEAKER ASM                   M IMCTM IMKDC  TNTH  09020IMKDC KI*PTB  00015    K293J0630   001 0000 ES        000000000000 DENSO TEN (THAILAND)                                                                                                                                            *G         20180821 IMCT                IMCT                                                                                                                    WMF1808215.TXT
MECKJ8801777000000          IMKDC  89828070300P3YK20180905000001SPEAKER ASM                   M IMCTM IMKDC  TNTH  09020IMKDC KI*PTB  00015    K293J0660   001 0000 ES        000000000000 DENSO TEN (THAILAND)                                                                                                                                            *G         20180821 IMCT                IMCT                                                                                                                    WMF1808215.TXT
