REC2018080820180808ISUZU                              63     
MDDDJ8236971201808                D89821984430PT1D20180817000030RADIO;AM/FM,CD                M IMCTM S5NC06 TNTH  09020IMCT  S5 PTB  00005                    0230 SR        000000000000 DENSO TEN (THAILAND)180LRAL0220220                                                                                                                              *          20180808 IMCT                IMCT                                                                                                                    WMF1808086.TXT
MDDDJ8236972201808                D89821984430PT1D20180817000030RADIO;AM/FM,CD                M IMCTM S5NC06 TNTH  09020IMCT  S5 PTB  00005                    1030 SR        000000000000 DENSO TEN (THAILAND)180LRAL0221221                                                                                                                              *          20180808 IMCT                IMCT                                                                                                                    WMF1808086.TXT
MDDDJ8236973201808                D89821984430PT1D20180817000030RADIO;AM/FM,CD                M IMCTM S5NC06 TNTH  09020IMCT  S5 PTB  00005                    1300 SR        000000000000 DENSO TEN (THAILAND)180LXCL0078078                                                                                                                              *          20180808 IMCT                IMCT                                                                                                                    WMF1808086.TXT
MDDDJ8236974201808                D89821984430PT1D20180817000030RADIO;AM/FM,CD                M IMCTM S5NC06 TNTH  09020IMCT  S5 PTB  00005                    2100 SR        000000000000 DENSO TEN (THAILAND)180LRAL0222222                                                                                                                              *          20180808 IMCT                IMCT                                                                                                                    WMF1808086.TXT
MDDDJ8236975201808                D89821984430PT1D20180817000030RADIO;AM/FM,CD                M IMCTM S5NC06 TNTH  09020IMCT  S5 PTB  00005                    2230 SR        000000000000 DENSO TEN (THAILAND)180LNHL0061061                                                                                                                              *          20180808 IMCT                IMCT                                                                                                                    WMF1808086.TXT
MDDDJ8236976201808                D89828070100PV1D20180817000060SPEAKER ASM                   M IMCTM S5MB11 TNTH  09020IMCT  S5 PTB  00004                    0230 SR        000000000000 DENSO TEN (THAILAND)180LRAL0220220                                                                                                                              *          20180808 IMCT                IMCT                                                                                                                    WMF1808086.TXT
MDDDJ8236977201808                D89828070100PV1D20180817000060SPEAKER ASM                   M IMCTM S5MB11 TNTH  09020IMCT  S5 PTB  00004                    0400 SR        000000000000 DENSO TEN (THAILAND)180LPGL0303303                                                                                                                              *          20180808 IMCT                IMCT                                                                                                                    WMF1808086.TXT
MDDDJ8236978201808                D89828070100PV1D20180817000060SPEAKER ASM                   M IMCTM S5MB11 TNTH  09020IMCT  S5 PTB  00004                    1030 SR        000000000000 DENSO TEN (THAILAND)180LRAL0221221                                                                                                                              *          20180808 IMCT                IMCT                                                                                                                    WMF1808086.TXT
MDDDJ8236979201808                D89828070100PV1D20180817000060SPEAKER ASM                   M IMCTM S5MB11 TNTH  09020IMCT  S5 PTB  00004                    1300 SR        000000000000 DENSO TEN (THAILAND)180LXCL0078078                                                                                                                              *          20180808 IMCT                IMCT                                                                                                                    WMF1808086.TXT
MDDDJ8236980201808                D89828070100PV1D20180817000060SPEAKER ASM                   M IMCTM S5MB11 TNTH  09020IMCT  S5 PTB  00004                    2100 SR        000000000000 DENSO TEN (THAILAND)180LRAL0222222                                                                                                                              *          20180808 IMCT                IMCT                                                                                                                    WMF1808086.TXT
MDDDJ8236981201808                D89828070100PV1D20180817000060SPEAKER ASM                   M IMCTM S5MB11 TNTH  09020IMCT  S5 PTB  00004                    2230 SR        000000000000 DENSO TEN (THAILAND)180LNHL0061061                                                                                                                              *          20180808 IMCT                IMCT                                                                                                                    WMF1808086.TXT
MDDDJ8236982201808                D89828070100PV4D20180817000060SPEAKER ASM                   M IMCTM S0FL05 TNTH  09020IMCT  S0 PTB  00004                    1030 SR        000000000000 DENSO TEN (THAILAND)180LRSU0058058                                                                                                                              *          20180808 IMCT                IMCT                                                                                                                    WMF1808086.TXT
MDDDJ8236983201808                D89828070200PV4D20180817000060SPEAKER ASM                   M IMCTM S0FR05 TNTH  09020IMCT  S0 PTB  00005                    1030 SR        000000000000 DENSO TEN (THAILAND)180LRSU0058058                                                                                                                              *          20180808 IMCT                IMCT                                                                                                                    WMF1808086.TXT
MDDDJ8236984201808                D89828070300PT1D20180817000060SPEAKER ASM                   M IMCTM S5NB082TNTH  09020IMCT  S5 PTB  00015                    0400 SR        000000000000 DENSO TEN (THAILAND)180LPGL0303303                                                                                                                              *          20180808 IMCT                IMCT                                                                                                                    WMF1808086.TXT
MDDDJ8236985201808                D89828070300PT4D20180817000060SPEAKER ASM                   M IMCTM S9TS02 TNTH  09020IMCT  S9 PTB  00015                    1030 SR        000000000000 DENSO TEN (THAILAND)180LRSU0058058                                                                                                                              *          20180808 IMCT                IMCT                                                                                                                    WMF1808086.TXT
MDDDJ8236986201808                D89831228300PT1D20180817000030RADIO;AM/FM,CD                M IMCTM S5NC06 TNTH  09020IMCT  S5 CPB  00003                    0400 SR        000000000000 DENSO TEN (THAILAND)180LPGL0303303                                                                                                                              *          20180808 IMCT                IMCT                                                                                                                    WMF1808086.TXT
MDDUJ8214510201808                D89828070100PT4U20180817000030SPEAKER ASM                   M IMCTM S0FL05 TNTH  09020IMCT  S0 PTB  00004                    0230 SR        000000000000 DENSO TEN (THAILAND)180LUMU0020020                                                                                                                              *          20180808 IMCT                IMCT                                                                                                                    WMF1808086.TXT
MDDUJ8214511201808                D89828070100PT4U20180817000030SPEAKER ASM                   M IMCTM S0FL05 TNTH  09020IMCT  S0 PTB  00004                    1300 SR        000000000000 DENSO TEN (THAILAND)180LUSU0151151                                                                                                                              *          20180808 IMCT                IMCT                                                                                                                    WMF1808086.TXT
MDDUJ8214512201808                D89828070100PT4U20180817000030SPEAKER ASM                   M IMCTM S0FL05 TNTH  09020IMCT  S0 PTB  00004                    2230 SR        000000000000 DENSO TEN (THAILAND)180LUPU0032032                                                                                                                              *          20180808 IMCT                IMCT                                                                                                                    WMF1808086.TXT
MDDUJ8214513201808                D89828070200PV4U20180817000030SPEAKER ASM                   M IMCTM S0FR05 TNTH  09020IMCT  S0 PTB  00005                    0230 SR        000000000000 DENSO TEN (THAILAND)180LUMU0020020                                                                                                                              *          20180808 IMCT                IMCT                                                                                                                    WMF1808086.TXT
MDDUJ8214514201808                D89828070200PV4U20180817000030SPEAKER ASM                   M IMCTM S0FR05 TNTH  09020IMCT  S0 PTB  00005                    1300 SR        000000000000 DENSO TEN (THAILAND)180LUSU0151151                                                                                                                              *          20180808 IMCT                IMCT                                                                                                                    WMF1808086.TXT
MDDUJ8214515201808                D89828070200PV4U20180817000030SPEAKER ASM                   M IMCTM S0FR05 TNTH  09020IMCT  S0 PTB  00005                    2230 SR        000000000000 DENSO TEN (THAILAND)180LUPU0032032                                                                                                                              *          20180808 IMCT                IMCT                                                                                                                    WMF1808086.TXT
MDDUJ8214516201808                D89828070300PT4U20180817000030SPEAKER ASM                   M IMCTM S9TS02 TNTH  09020IMCT  S9 PTB  00015                    0230 SR        000000000000 DENSO TEN (THAILAND)180LUMU0020020                                                                                                                              *          20180808 IMCT                IMCT                                                                                                                    WMF1808086.TXT
MDDUJ8214517201808                D89828070300PT4U20180817000030SPEAKER ASM                   M IMCTM S9TS02 TNTH  09020IMCT  S9 PTB  00015                    1300 SR        000000000000 DENSO TEN (THAILAND)180LUSU0151151                                                                                                                              *          20180808 IMCT                IMCT                                                                                                                    WMF1808086.TXT
MDDUJ8214518201808                D89828070300PT4U20180817000030SPEAKER ASM                   M IMCTM S9TS02 TNTH  09020IMCT  S9 PTB  00015                    2230 SR        000000000000 DENSO TEN (THAILAND)180LUPU0032032                                                                                                                              *          20180808 IMCT                IMCT                                                                                                                    WMF1808086.TXT
MDDUJ8214519201808                D89831228400PT4U20180817000015RADIO;AM/FM,CD                M IMCTM S9CO001TNTH  09020IMCT  S9 CPB  00003                    2230 SR        000000000000 DENSO TEN (THAILAND)180LUPU0032032                                                                                                                              *          20180808 IMCT                IMCT                                                                                                                    WMF1808086.TXT
MDEDJ8246430201808                D89828070100PV1D20180816000060SPEAKER ASM                   M IMCTM S5MB11 TNTH  09020IMCT  S5 PTB  00004                    2230 SR        000000000000 DENSO TEN (THAILAND)18084UL0009010                                                                                                                              *          20180808 IMCT                IMCT                                                                                                                    WMF1808086.TXT
MDEDJ8246431201808                D89828070100PV1D20180817000030SPEAKER ASM                   M IMCTM S5MB11 TNTH  09020IMCT  S5 PTB  00004                    0230 SR        000000000000 DENSO TEN (THAILAND)18074UL0044044                                                                                                                              *          20180808 IMCT                IMCT                                                                                                                    WMF1808086.TXT
MDEDJ8246432201808                D89828070100PV1D20180817000030SPEAKER ASM                   M IMCTM S5MB11 TNTH  09020IMCT  S5 PTB  00004                    0400 SR        000000000000 DENSO TEN (THAILAND)18072UL0018018                                                                                                                              *          20180808 IMCT                IMCT                                                                                                                    WMF1808086.TXT
MDEDJ8246433201808                D89828070100PV1D20180817000060SPEAKER ASM                   M IMCTM S5MB11 TNTH  09020IMCT  S5 PTB  00004                    0830 SR        000000000000 DENSO TEN (THAILAND)18071UL0014015                                                                                                                              *          20180808 IMCT                IMCT                                                                                                                    WMF1808086.TXT
MDEDJ8246434201808                D89828070100PV1D20180817000120SPEAKER ASM                   M IMCTM S5MB11 TNTH  09020IMCT  S5 PTB  00004                    1300 SR        000000000000 DENSO TEN (THAILAND)18001VL004704818082UL006806818098UL0059059                                                                                                  *          20180808 IMCT                IMCT                                                                                                                    WMF1808086.TXT
MDEDJ8246435201808                D89828070100PV4D20180816000030SPEAKER ASM                   M IMCTM S0FL05 TNTH  09020IMCT  S0 PTB  00004                    2230 SR        000000000000 DENSO TEN (THAILAND)18098UU0036036                                                                                                                              *          20180808 IMCT                IMCT                                                                                                                    WMF1808086.TXT
MDEDJ8246436201808                D89828070100PV4D20180817000030SPEAKER ASM                   M IMCTM S0FL05 TNTH  09020IMCT  S0 PTB  00004                    0230 SR        000000000000 DENSO TEN (THAILAND)17061PU0011011                                                                                                                              *          20180808 IMCT                IMCT                                                                                                                    WMF1808086.TXT
MDEDJ8246437201808                D89828070100PV4D20180817000030SPEAKER ASM                   M IMCTM S0FL05 TNTH  09020IMCT  S0 PTB  00004                    0400 SR        000000000000 DENSO TEN (THAILAND)18066UU0015015                                                                                                                              *          20180808 IMCT                IMCT                                                                                                                    WMF1808086.TXT
MDEDJ8246438201808                D89828070100PV4D20180817000030SPEAKER ASM                   M IMCTM S0FL05 TNTH  09020IMCT  S0 PTB  00004                    1600 SR        000000000000 DENSO TEN (THAILAND)17061PU0012012                                                                                                                              *          20180808 IMCT                IMCT                                                                                                                    WMF1808086.TXT
MDEDJ8246439201808                D89828070100PV4D20180817000030SPEAKER ASM                   M IMCTM S0FL05 TNTH  09020IMCT  S0 PTB  00004                    2100 SR        000000000000 DENSO TEN (THAILAND)18082UU0011011                                                                                                                              *          20180808 IMCT                IMCT                                                                                                                    WMF1808086.TXT
MDEDJ8246440201808                D89828070200PV1D20180816000060SPEAKER ASM                   M IMCTM S5MA14 TNTH  09020IMCT  S5 PTB  00005                    2230 SR        000000000000 DENSO TEN (THAILAND)18084UL0009010                                                                                                                              *          20180808 IMCT                IMCT                                                                                                                    WMF1808086.TXT
MDEDJ8246441201808                D89828070200PV1D20180817000120SPEAKER ASM                   M IMCTM S5MA14 TNTH  09020IMCT  S5 PTB  00005                    1300 SR        000000000000 DENSO TEN (THAILAND)18001VL004704818082UL006806818098UL0059059                                                                                                  *          20180808 IMCT                IMCT                                                                                                                    WMF1808086.TXT
MDEDJ8246442201808                D89828070200PV4D20180816000030SPEAKER ASM                   M IMCTM S0FR05 TNTH  09020IMCT  S0 PTB  00005                    2230 SR        000000000000 DENSO TEN (THAILAND)18098UU0036036                                                                                                                              *          20180808 IMCT                IMCT                                                                                                                    WMF1808086.TXT
MDEDJ8246443201808                D89828070200PV4D20180817000030SPEAKER ASM                   M IMCTM S0FR05 TNTH  09020IMCT  S0 PTB  00005                    0400 SR        000000000000 DENSO TEN (THAILAND)18066UU0015015                                                                                                                              *          20180808 IMCT                IMCT                                                                                                                    WMF1808086.TXT
MDEDJ8246444201808                D89828070200PV4D20180817000030SPEAKER ASM                   M IMCTM S0FR05 TNTH  09020IMCT  S0 PTB  00005                    2100 SR        000000000000 DENSO TEN (THAILAND)18082UU0011011                                                                                                                              *          20180808 IMCT                IMCT                                                                                                                    WMF1808086.TXT
MDEDJ8246445201808                D89828070300PT1D20180816000060SPEAKER ASM                   M IMCTM S5NB082TNTH  09020IMCT  S5 PTB  00015                    2230 SR        000000000000 DENSO TEN (THAILAND)18084UL0009010                                                                                                                              *          20180808 IMCT                IMCT                                                                                                                    WMF1808086.TXT
MDEDJ8246446201808                D89828070300PT1D20180817000030SPEAKER ASM                   M IMCTM S5NB082TNTH  09020IMCT  S5 PTB  00015                    0230 SR        000000000000 DENSO TEN (THAILAND)18074UL0044044                                                                                                                              *          20180808 IMCT                IMCT                                                                                                                    WMF1808086.TXT
MDEDJ8246447201808                D89828070300PT1D20180817000030SPEAKER ASM                   M IMCTM S5NB082TNTH  09020IMCT  S5 PTB  00015                    0400 SR        000000000000 DENSO TEN (THAILAND)18072UL0018018                                                                                                                              *          20180808 IMCT                IMCT                                                                                                                    WMF1808086.TXT
MDEDJ8246448201808                D89828070300PT1D20180817000060SPEAKER ASM                   M IMCTM S5NB082TNTH  09020IMCT  S5 PTB  00015                    0830 SR        000000000000 DENSO TEN (THAILAND)18071UL0014015                                                                                                                              *          20180808 IMCT                IMCT                                                                                                                    WMF1808086.TXT
MDEDJ8246449201808                D89828070300PT1D20180817000120SPEAKER ASM                   M IMCTM S5NB082TNTH  09020IMCT  S5 PTB  00015                    1300 SR        000000000000 DENSO TEN (THAILAND)18001VL004704818082UL006806818098UL0059059                                                                                                  *          20180808 IMCT                IMCT                                                                                                                    WMF1808086.TXT
MDEDJ8246450201808                D89828070300PT4D20180816000030SPEAKER ASM                   M IMCTM S9TS02 TNTH  09020IMCT  S9 PTB  00015                    2230 SR        000000000000 DENSO TEN (THAILAND)18098UU0036036                                                                                                                              *          20180808 IMCT                IMCT                                                                                                                    WMF1808086.TXT
MDEDJ8246451201808                D89828070300PT4D20180817000030SPEAKER ASM                   M IMCTM S9TS02 TNTH  09020IMCT  S9 PTB  00015                    0400 SR        000000000000 DENSO TEN (THAILAND)18066UU0015015                                                                                                                              *          20180808 IMCT                IMCT                                                                                                                    WMF1808086.TXT
MDEDJ8246452201808                D89828070300PT4D20180817000030SPEAKER ASM                   M IMCTM S9TS02 TNTH  09020IMCT  S9 PTB  00015                    2100 SR        000000000000 DENSO TEN (THAILAND)18082UU0011011                                                                                                                              *          20180808 IMCT                IMCT                                                                                                                    WMF1808086.TXT
MDEDJ8246453201808                D89848581800PT1D20180817000015RADIO;AM/FM CD D              M IMCTM S5NC06 TNTH  09020IMCT  S5 PTB  00003                    0400 SR        000000000000 DENSO TEN (THAILAND)18072UL0018018                                                                                                                              *          20180808 IMCT                IMCT                                                                                                                    WMF1808086.TXT
MDEDJ8246454201808                D89848581800PT1D20180817000030RADIO;AM/FM CD D              M IMCTM S5NC06 TNTH  09020IMCT  S5 PTB  00003                    0830 SR        000000000000 DENSO TEN (THAILAND)18071UL0014015                                                                                                                              *          20180808 IMCT                IMCT                                                                                                                    WMF1808086.TXT
MDEDJ8246455201808                D89848581800PT1D20180817000030RADIO;AM/FM CD D              M IMCTM S5NC06 TNTH  09020IMCT  S5 PTB  00003                    1300 SR        000000000000 DENSO TEN (THAILAND)18082UL006806818098UL0059059                                                                                                                *          20180808 IMCT                IMCT                                                                                                                    WMF1808086.TXT
MDEDJ8246456201808                D89848581800PT4D20180816000015RADIO;AM/FM CD D              M IMCTM S9CO001TNTH  09020IMCT  S9 PTB  00003                    2230 SR        000000000000 DENSO TEN (THAILAND)18098UU0036036                                                                                                                              *          20180808 IMCT                IMCT                                                                                                                    WMF1808086.TXT
MDEDJ8246457201808                D89848581800PT4D20180817000015RADIO;AM/FM CD D              M IMCTM S9CO001TNTH  09020IMCT  S9 PTB  00003                    0400 SR        000000000000 DENSO TEN (THAILAND)18066UU0015015                                                                                                                              *          20180808 IMCT                IMCT                                                                                                                    WMF1808086.TXT
MDEDJ8246458201808                D89848581800PT4D20180817000015RADIO;AM/FM CD D              M IMCTM S9CO001TNTH  09020IMCT  S9 PTB  00003                    2100 SR        000000000000 DENSO TEN (THAILAND)18082UU0011011                                                                                                                              *          20180808 IMCT                IMCT                                                                                                                    WMF1808086.TXT
MDEDJ8246459201808                D89848582500PT1D20180817000015RADIO;AM/FM CD D              M IMCTM S5NC06 TNTH  09020IMCT  S5 PTB  00003                    0230 SR        000000000000 DENSO TEN (THAILAND)18074UL0044044                                                                                                                              *          20180808 IMCT                IMCT                                                                                                                    WMF1808086.TXT
MDEUJ8214457201808                D89828070100PT4U20180817000030SPEAKER ASM                   M IMCTM S0FL05 TNTH  09020IMCT  S0 PTB  00004                    0830 SR        000000000000 DENSO TEN (THAILAND)18049ZU0072072                                                                                                                              *          20180808 IMCT                IMCT                                                                                                                    WMF1808086.TXT
MDEUJ8214458201808                D89828070100PT4U20180817000030SPEAKER ASM                   M IMCTM S0FL05 TNTH  09020IMCT  S0 PTB  00004                    1600 SR        000000000000 DENSO TEN (THAILAND)18019UU0024024                                                                                                                              *          20180808 IMCT                IMCT                                                                                                                    WMF1808086.TXT
MDEUJ8214459201808                D89828070200PV4U20180817000030SPEAKER ASM                   M IMCTM S0FR05 TNTH  09020IMCT  S0 PTB  00005                    0830 SR        000000000000 DENSO TEN (THAILAND)18049ZU0072072                                                                                                                              *          20180808 IMCT                IMCT                                                                                                                    WMF1808086.TXT
MDEUJ8214460201808                D89828070200PV4U20180817000030SPEAKER ASM                   M IMCTM S0FR05 TNTH  09020IMCT  S0 PTB  00005                    1600 SR        000000000000 DENSO TEN (THAILAND)18019UU0024024                                                                                                                              *          20180808 IMCT                IMCT                                                                                                                    WMF1808086.TXT
MDEUJ8214461201808                D89828070300PT4U20180817000030SPEAKER ASM                   M IMCTM S9TS02 TNTH  09020IMCT  S9 PTB  00015                    0830 SR        000000000000 DENSO TEN (THAILAND)18049ZU0072072                                                                                                                              *          20180808 IMCT                IMCT                                                                                                                    WMF1808086.TXT
MDEUJ8214462201808                D89828070300PT4U20180817000030SPEAKER ASM                   M IMCTM S9TS02 TNTH  09020IMCT  S9 PTB  00015                    1600 SR        000000000000 DENSO TEN (THAILAND)18019UU0024024                                                                                                                              *          20180808 IMCT                IMCT                                                                                                                    WMF1808086.TXT
MDEUJ8214463201808                D89848584700PT4U20180817000015RADIO;AM/FM CD D              M IMCTM S9CO001TNTH  09020IMCT  S9 PTB  00003                    1600 SR        000000000000 DENSO TEN (THAILAND)18019UU0024024                                                                                                                              *          20180808 IMCT                IMCT                                                                                                                    WMF1808086.TXT
