REC2018091820180918ISUZU                              55     
MDDDJ9255907201809                D89821984430PT1D20180922000060RADIO;AM/FM,CD                M IMCTM S5NC06 TNTH  09020IMCT  S5 PTB  00005                    0230 SR        000000000000 DENSO TEN (THAILAND)180LRAL0254254180LXEL0092092                                                                                                                *          20180918 IMCT                IMCT                                                                                                                    WMF1809184.TXT
MDDDJ9255908201809                D89821984430PT1D20180922000030RADIO;AM/FM,CD                M IMCTM S5NC06 TNTH  09020IMCT  S5 PTB  00005                    0830 SR        000000000000 DENSO TEN (THAILAND)180LXCL0088088                                                                                                                              *          20180918 IMCT                IMCT                                                                                                                    WMF1809184.TXT
MDDDJ9255909201809                D89821984430PT1D20180922000030RADIO;AM/FM,CD                M IMCTM S5NC06 TNTH  09020IMCT  S5 PTB  00005                    1300 SR        000000000000 DENSO TEN (THAILAND)180LNGL0205205                                                                                                                              *          20180918 IMCT                IMCT                                                                                                                    WMF1809184.TXT
MDDDJ9255910201809                D89821984430PT1D20180922000030RADIO;AM/FM,CD                M IMCTM S5NC06 TNTH  09020IMCT  S5 PTB  00005                    1600 SR        000000000000 DENSO TEN (THAILAND)180LXEL0093093                                                                                                                              *          20180918 IMCT                IMCT                                                                                                                    WMF1809184.TXT
MDDDJ9255911201809                D89821984430PT1D20180922000030RADIO;AM/FM,CD                M IMCTM S5NC06 TNTH  09020IMCT  S5 PTB  00005                    2100 SR        000000000000 DENSO TEN (THAILAND)180LRAL0255255                                                                                                                              *          20180918 IMCT                IMCT                                                                                                                    WMF1809184.TXT
MDDDJ9255912201809                D89828070100PV1D20180922000120SPEAKER ASM                   M IMCTM S5MB11 TNTH  09020IMCT  S5 PTB  00004                    0230 SR        000000000000 DENSO TEN (THAILAND)180LRAL0254254180LXEL0092092                                                                                                                *          20180918 IMCT                IMCT                                                                                                                    WMF1809184.TXT
MDDDJ9255913201809                D89828070100PV1D20180922000060SPEAKER ASM                   M IMCTM S5MB11 TNTH  09020IMCT  S5 PTB  00004                    0830 SR        000000000000 DENSO TEN (THAILAND)180LXCL0088088                                                                                                                              *          20180918 IMCT                IMCT                                                                                                                    WMF1809184.TXT
MDDDJ9255914201809                D89828070100PV1D20180922000060SPEAKER ASM                   M IMCTM S5MB11 TNTH  09020IMCT  S5 PTB  00004                    1300 SR        000000000000 DENSO TEN (THAILAND)180LNGL0205205                                                                                                                              *          20180918 IMCT                IMCT                                                                                                                    WMF1809184.TXT
MDDDJ9255915201809                D89828070100PV1D20180922000060SPEAKER ASM                   M IMCTM S5MB11 TNTH  09020IMCT  S5 PTB  00004                    1600 SR        000000000000 DENSO TEN (THAILAND)180LXEL0093093                                                                                                                              *          20180918 IMCT                IMCT                                                                                                                    WMF1809184.TXT
MDDDJ9255916201809                D89828070100PV1D20180922000060SPEAKER ASM                   M IMCTM S5MB11 TNTH  09020IMCT  S5 PTB  00004                    2100 SR        000000000000 DENSO TEN (THAILAND)180LRAL0255255                                                                                                                              *          20180918 IMCT                IMCT                                                                                                                    WMF1809184.TXT
MDDUJ9227327201809                D89828070100PT4U20180922000030SPEAKER ASM                   M IMCTM S0FL05 TNTH  09020IMCT  S0 PTB  00004                    0830 SR        000000000000 DENSO TEN (THAILAND)180LULU0061061                                                                                                                              *          20180918 IMCT                IMCT                                                                                                                    WMF1809184.TXT
MDDUJ9227328201809                D89828070100PT4U20180922000030SPEAKER ASM                   M IMCTM S0FL05 TNTH  09020IMCT  S0 PTB  00004                    1300 SR        000000000000 DENSO TEN (THAILAND)180LULU0062062                                                                                                                              *          20180918 IMCT                IMCT                                                                                                                    WMF1809184.TXT
MDDUJ9227329201809                D89828070200PV4U20180922000030SPEAKER ASM                   M IMCTM S0FR05 TNTH  09020IMCT  S0 PTB  00005                    0830 SR        000000000000 DENSO TEN (THAILAND)180LULU0061061                                                                                                                              *          20180918 IMCT                IMCT                                                                                                                    WMF1809184.TXT
MDDUJ9227330201809                D89828070200PV4U20180922000030SPEAKER ASM                   M IMCTM S0FR05 TNTH  09020IMCT  S0 PTB  00005                    1300 SR        000000000000 DENSO TEN (THAILAND)180LULU0062062                                                                                                                              *          20180918 IMCT                IMCT                                                                                                                    WMF1809184.TXT
MDDUJ9227331201809                D89828070300PT4U20180922000030SPEAKER ASM                   M IMCTM S9TS02 TNTH  09020IMCT  S9 PTB  00015                    0830 SR        000000000000 DENSO TEN (THAILAND)180LULU0061061                                                                                                                              *          20180918 IMCT                IMCT                                                                                                                    WMF1809184.TXT
MDDUJ9227332201809                D89828070300PT4U20180922000030SPEAKER ASM                   M IMCTM S9TS02 TNTH  09020IMCT  S9 PTB  00015                    1300 SR        000000000000 DENSO TEN (THAILAND)180LULU0062062                                                                                                                              *          20180918 IMCT                IMCT                                                                                                                    WMF1809184.TXT
MDEDJ9284637201809                D89828070100PV1D20180921000060SPEAKER ASM                   M IMCTM S5MB11 TNTH  09020IMCT  S5 PTB  00004                    2230 SR        000000000000 DENSO TEN (THAILAND)18076XL0012013                                                                                                                              *          20180918 IMCT                IMCT                                                                                                                    WMF1809184.TXT
MDEDJ9284638201809                D89828070100PV1D20180922000060SPEAKER ASM                   M IMCTM S5MB11 TNTH  09020IMCT  S5 PTB  00004                    0400 SR        000000000000 DENSO TEN (THAILAND)18098UL0066067                                                                                                                              *          20180918 IMCT                IMCT                                                                                                                    WMF1809184.TXT
MDEDJ9284639201809                D89828070100PV1D20180922000060SPEAKER ASM                   M IMCTM S5MB11 TNTH  09020IMCT  S5 PTB  00004                    1030 SR        000000000000 DENSO TEN (THAILAND)18029XL001001018076XL0014014                                                                                                                *          20180918 IMCT                IMCT                                                                                                                    WMF1809184.TXT
MDEDJ9284640201809                D89828070100PV1D20180922000060SPEAKER ASM                   M IMCTM S5MB11 TNTH  09020IMCT  S5 PTB  00004                    1300 SR        000000000000 DENSO TEN (THAILAND)18076XL0015016                                                                                                                              *          20180918 IMCT                IMCT                                                                                                                    WMF1809184.TXT
MDEDJ9284641201809                D89828070100PV1D20180922000060SPEAKER ASM                   M IMCTM S5MB11 TNTH  09020IMCT  S5 PTB  00004                    1600 SR        000000000000 DENSO TEN (THAILAND)18064UL0019020                                                                                                                              *          20180918 IMCT                IMCT                                                                                                                    WMF1809184.TXT
MDEDJ9284642201809                D89828070100PV4D20180921000030SPEAKER ASM                   M IMCTM S0FL05 TNTH  09020IMCT  S0 PTB  00004                    2230 SR        000000000000 DENSO TEN (THAILAND)18005XU0003003                                                                                                                              *          20180918 IMCT                IMCT                                                                                                                    WMF1809184.TXT
MDEDJ9284643201809                D89828070100PV4D20180922000030SPEAKER ASM                   M IMCTM S0FL05 TNTH  09020IMCT  S0 PTB  00004                    0400 SR        000000000000 DENSO TEN (THAILAND)18083UU0002002                                                                                                                              *          20180918 IMCT                IMCT                                                                                                                    WMF1809184.TXT
MDEDJ9284644201809                D89828070100PV4D20180922000030SPEAKER ASM                   M IMCTM S0FL05 TNTH  09020IMCT  S0 PTB  00004                    1300 SR        000000000000 DENSO TEN (THAILAND)18099UU0044044                                                                                                                              *          20180918 IMCT                IMCT                                                                                                                    WMF1809184.TXT
MDEDJ9284645201809                D89828070100PV4D20180922000030SPEAKER ASM                   M IMCTM S0FL05 TNTH  09020IMCT  S0 PTB  00004                    2230 SR        000000000000 DENSO TEN (THAILAND)18082UU0024024                                                                                                                              *          20180918 IMCT                IMCT                                                                                                                    WMF1809184.TXT
MDEDJ9284646201809                D89828070200PV1D20180922000060SPEAKER ASM                   M IMCTM S5MA14 TNTH  09020IMCT  S5 PTB  00005                    0400 SR        000000000000 DENSO TEN (THAILAND)18098UL0066067                                                                                                                              *          20180918 IMCT                IMCT                                                                                                                    WMF1809184.TXT
MDEDJ9284647201809                D89828070200PV4D20180922000030SPEAKER ASM                   M IMCTM S0FR05 TNTH  09020IMCT  S0 PTB  00005                    0400 SR        000000000000 DENSO TEN (THAILAND)18083UU0002002                                                                                                                              *          20180918 IMCT                IMCT                                                                                                                    WMF1809184.TXT
MDEDJ9284648201809                D89828070200PV4D20180922000030SPEAKER ASM                   M IMCTM S0FR05 TNTH  09020IMCT  S0 PTB  00005                    1300 SR        000000000000 DENSO TEN (THAILAND)18099UU0044044                                                                                                                              *          20180918 IMCT                IMCT                                                                                                                    WMF1809184.TXT
MDEDJ9284649201809                D89828070200PV4D20180922000030SPEAKER ASM                   M IMCTM S0FR05 TNTH  09020IMCT  S0 PTB  00005                    2230 SR        000000000000 DENSO TEN (THAILAND)18082UU0024024                                                                                                                              *          20180918 IMCT                IMCT                                                                                                                    WMF1809184.TXT
MDEDJ9284650201809                D89828070300PT1D20180922000060SPEAKER ASM                   M IMCTM S5NB082TNTH  09020IMCT  S5 PTB  00015                    0400 SR        000000000000 DENSO TEN (THAILAND)18098UL0066067                                                                                                                              *          20180918 IMCT                IMCT                                                                                                                    WMF1809184.TXT
MDEDJ9284651201809                D89828070300PT1D20180922000030SPEAKER ASM                   M IMCTM S5NB082TNTH  09020IMCT  S5 PTB  00015                    1030 SR        000000000000 DENSO TEN (THAILAND)18029XL0010010                                                                                                                              *          20180918 IMCT                IMCT                                                                                                                    WMF1809184.TXT
MDEDJ9284652201809                D89828070300PT1D20180922000060SPEAKER ASM                   M IMCTM S5NB082TNTH  09020IMCT  S5 PTB  00015                    1600 SR        000000000000 DENSO TEN (THAILAND)18064UL0019020                                                                                                                              *          20180918 IMCT                IMCT                                                                                                                    WMF1809184.TXT
MDEDJ9284653201809                D89828070300PT4D20180921000030SPEAKER ASM                   M IMCTM S9TS02 TNTH  09020IMCT  S9 PTB  00015                    2230 SR        000000000000 DENSO TEN (THAILAND)18005XU0003003                                                                                                                              *          20180918 IMCT                IMCT                                                                                                                    WMF1809184.TXT
MDEDJ9284654201809                D89828070300PT4D20180922000030SPEAKER ASM                   M IMCTM S9TS02 TNTH  09020IMCT  S9 PTB  00015                    0400 SR        000000000000 DENSO TEN (THAILAND)18083UU0002002                                                                                                                              *          20180918 IMCT                IMCT                                                                                                                    WMF1809184.TXT
MDEDJ9284655201809                D89828070300PT4D20180922000030SPEAKER ASM                   M IMCTM S9TS02 TNTH  09020IMCT  S9 PTB  00015                    1300 SR        000000000000 DENSO TEN (THAILAND)18099UU0044044                                                                                                                              *          20180918 IMCT                IMCT                                                                                                                    WMF1809184.TXT
MDEDJ9284656201809                D89828070300PT4D20180922000030SPEAKER ASM                   M IMCTM S9TS02 TNTH  09020IMCT  S9 PTB  00015                    2230 SR        000000000000 DENSO TEN (THAILAND)18082UU0024024                                                                                                                              *          20180918 IMCT                IMCT                                                                                                                    WMF1809184.TXT
MDEDJ9284657201809                D89848581800PT1D20180922000030RADIO;AM/FM CD D              M IMCTM S5NC06 TNTH  09020IMCT  S5 PTB  00003                    0400 SR        000000000000 DENSO TEN (THAILAND)18098UL0066067                                                                                                                              *          20180918 IMCT                IMCT                                                                                                                    WMF1809184.TXT
MDEDJ9284658201809                D89848581800PT4D20180922000015RADIO;AM/FM CD D              M IMCTM S9CO001TNTH  09020IMCT  S9 PTB  00003                    0400 SR        000000000000 DENSO TEN (THAILAND)18083UU0002002                                                                                                                              *          20180918 IMCT                IMCT                                                                                                                    WMF1809184.TXT
MDEDJ9284659201809                D89848581800PT4D20180922000015RADIO;AM/FM CD D              M IMCTM S9CO001TNTH  09020IMCT  S9 PTB  00003                    2230 SR        000000000000 DENSO TEN (THAILAND)18082UU0024024                                                                                                                              *          20180918 IMCT                IMCT                                                                                                                    WMF1809184.TXT
MDEDJ9284660201809                D89848582500PT1D20180922000030RADIO;AM/FM CD D              M IMCTM S5NC06 TNTH  09020IMCT  S5 PTB  00003                    1600 SR        000000000000 DENSO TEN (THAILAND)18064UL0019020                                                                                                                              *          20180918 IMCT                IMCT                                                                                                                    WMF1809184.TXT
MDEUJ9238586201809                D89828070100PT4U20180922000030SPEAKER ASM                   M IMCTM S0FL05 TNTH  09020IMCT  S0 PTB  00004                    0230 SR        000000000000 DENSO TEN (THAILAND)180D06U0014014                                                                                                                              *          20180918 IMCT                IMCT                                                                                                                    WMF1809184.TXT
MDEUJ9238587201809                D89828070100PT4U20180922000030SPEAKER ASM                   M IMCTM S0FL05 TNTH  09020IMCT  S0 PTB  00004                    0400 SR        000000000000 DENSO TEN (THAILAND)18020UU0120120                                                                                                                              *          20180918 IMCT                IMCT                                                                                                                    WMF1809184.TXT
MDEUJ9238588201809                D89828070100PT4U20180922000030SPEAKER ASM                   M IMCTM S0FL05 TNTH  09020IMCT  S0 PTB  00004                    1300 SR        000000000000 DENSO TEN (THAILAND)18021UU0186186                                                                                                                              *          20180918 IMCT                IMCT                                                                                                                    WMF1809184.TXT
MDEUJ9238589201809                D89828070100PT4U20180922000030SPEAKER ASM                   M IMCTM S0FL05 TNTH  09020IMCT  S0 PTB  00004                    1600 SR        000000000000 DENSO TEN (THAILAND)18016UU0044044                                                                                                                              *          20180918 IMCT                IMCT                                                                                                                    WMF1809184.TXT
MDEUJ9238590201809                D89828070100PT4U20180922000030SPEAKER ASM                   M IMCTM S0FL05 TNTH  09020IMCT  S0 PTB  00004                    2100 SR        000000000000 DENSO TEN (THAILAND)18020UU0121121                                                                                                                              *          20180918 IMCT                IMCT                                                                                                                    WMF1809184.TXT
MDEUJ9238591201809                D89828070200PV4U20180922000030SPEAKER ASM                   M IMCTM S0FR05 TNTH  09020IMCT  S0 PTB  00005                    0230 SR        000000000000 DENSO TEN (THAILAND)180D06U0014014                                                                                                                              *          20180918 IMCT                IMCT                                                                                                                    WMF1809184.TXT
MDEUJ9238592201809                D89828070200PV4U20180922000030SPEAKER ASM                   M IMCTM S0FR05 TNTH  09020IMCT  S0 PTB  00005                    0400 SR        000000000000 DENSO TEN (THAILAND)18020UU0120120                                                                                                                              *          20180918 IMCT                IMCT                                                                                                                    WMF1809184.TXT
MDEUJ9238593201809                D89828070200PV4U20180922000030SPEAKER ASM                   M IMCTM S0FR05 TNTH  09020IMCT  S0 PTB  00005                    1300 SR        000000000000 DENSO TEN (THAILAND)18021UU0186186                                                                                                                              *          20180918 IMCT                IMCT                                                                                                                    WMF1809184.TXT
MDEUJ9238594201809                D89828070200PV4U20180922000030SPEAKER ASM                   M IMCTM S0FR05 TNTH  09020IMCT  S0 PTB  00005                    1600 SR        000000000000 DENSO TEN (THAILAND)18016UU0044044                                                                                                                              *          20180918 IMCT                IMCT                                                                                                                    WMF1809184.TXT
MDEUJ9238595201809                D89828070200PV4U20180922000030SPEAKER ASM                   M IMCTM S0FR05 TNTH  09020IMCT  S0 PTB  00005                    2100 SR        000000000000 DENSO TEN (THAILAND)18020UU0121121                                                                                                                              *          20180918 IMCT                IMCT                                                                                                                    WMF1809184.TXT
MDEUJ9238596201809                D89828070300PT4U20180922000030SPEAKER ASM                   M IMCTM S9TS02 TNTH  09020IMCT  S9 PTB  00015                    0230 SR        000000000000 DENSO TEN (THAILAND)180D06U0014014                                                                                                                              *          20180918 IMCT                IMCT                                                                                                                    WMF1809184.TXT
MDEUJ9238597201809                D89828070300PT4U20180922000030SPEAKER ASM                   M IMCTM S9TS02 TNTH  09020IMCT  S9 PTB  00015                    0400 SR        000000000000 DENSO TEN (THAILAND)18020UU0120120                                                                                                                              *          20180918 IMCT                IMCT                                                                                                                    WMF1809184.TXT
MDEUJ9238598201809                D89828070300PT4U20180922000030SPEAKER ASM                   M IMCTM S9TS02 TNTH  09020IMCT  S9 PTB  00015                    1300 SR        000000000000 DENSO TEN (THAILAND)18021UU0186186                                                                                                                              *          20180918 IMCT                IMCT                                                                                                                    WMF1809184.TXT
MDEUJ9238599201809                D89828070300PT4U20180922000030SPEAKER ASM                   M IMCTM S9TS02 TNTH  09020IMCT  S9 PTB  00015                    1600 SR        000000000000 DENSO TEN (THAILAND)18016UU0044044                                                                                                                              *          20180918 IMCT                IMCT                                                                                                                    WMF1809184.TXT
MDEUJ9238600201809                D89828070300PT4U20180922000030SPEAKER ASM                   M IMCTM S9TS02 TNTH  09020IMCT  S9 PTB  00015                    2100 SR        000000000000 DENSO TEN (THAILAND)18020UU0121121                                                                                                                              *          20180918 IMCT                IMCT                                                                                                                    WMF1809184.TXT
