REC2018090520180905ISUZU                              64     
MDDDJ9213787201809                D89821984430PT1D20180911000030RADIO;AM/FM,CD                M IMCTM S5NC06 TNTH  09020IMCT  S5 PTB  00005                    0400 SR        000000000000 DENSO TEN (THAILAND)180LPAL0218218                                                                                                                              *          20180905 IMCT                IMCT                                                                                                                    WMF1809055.TXT
MDDDJ9213788201809                D89821984430PT1D20180911000030RADIO;AM/FM,CD                M IMCTM S5NC06 TNTH  09020IMCT  S5 PTB  00005                    0830 SR        000000000000 DENSO TEN (THAILAND)180LPAL0219219                                                                                                                              *          20180905 IMCT                IMCT                                                                                                                    WMF1809055.TXT
MDDDJ9213789201809                D89821984430PT1D20180911000030RADIO;AM/FM,CD                M IMCTM S5NC06 TNTH  09020IMCT  S5 PTB  00005                    1600 SR        000000000000 DENSO TEN (THAILAND)180LXEL0087087                                                                                                                              *          20180905 IMCT                IMCT                                                                                                                    WMF1809055.TXT
MDDDJ9213790201809                D89821984430PT1D20180911000030RADIO;AM/FM,CD                M IMCTM S5NC06 TNTH  09020IMCT  S5 PTB  00005                    2100 SR        000000000000 DENSO TEN (THAILAND)180LRBL0057057                                                                                                                              *          20180905 IMCT                IMCT                                                                                                                    WMF1809055.TXT
MDDDJ9213791201809                D89828070100PV1D20180911000060SPEAKER ASM                   M IMCTM S5MB11 TNTH  09020IMCT  S5 PTB  00004                    0230 SR        000000000000 DENSO TEN (THAILAND)180LPGL0314314                                                                                                                              *          20180905 IMCT                IMCT                                                                                                                    WMF1809055.TXT
MDDDJ9213792201809                D89828070100PV1D20180911000060SPEAKER ASM                   M IMCTM S5MB11 TNTH  09020IMCT  S5 PTB  00004                    0400 SR        000000000000 DENSO TEN (THAILAND)180LPAL0218218                                                                                                                              *          20180905 IMCT                IMCT                                                                                                                    WMF1809055.TXT
MDDDJ9213793201809                D89828070100PV1D20180911000060SPEAKER ASM                   M IMCTM S5MB11 TNTH  09020IMCT  S5 PTB  00004                    0830 SR        000000000000 DENSO TEN (THAILAND)180LPAL0219219                                                                                                                              *          20180905 IMCT                IMCT                                                                                                                    WMF1809055.TXT
MDDDJ9213794201809                D89828070100PV1D20180911000060SPEAKER ASM                   M IMCTM S5MB11 TNTH  09020IMCT  S5 PTB  00004                    1300 SR        000000000000 DENSO TEN (THAILAND)180LPGL0315315                                                                                                                              *          20180905 IMCT                IMCT                                                                                                                    WMF1809055.TXT
MDDDJ9213795201809                D89828070100PV1D20180911000060SPEAKER ASM                   M IMCTM S5MB11 TNTH  09020IMCT  S5 PTB  00004                    1600 SR        000000000000 DENSO TEN (THAILAND)180LXEL0087087                                                                                                                              *          20180905 IMCT                IMCT                                                                                                                    WMF1809055.TXT
MDDDJ9213796201809                D89828070100PV1D20180911000060SPEAKER ASM                   M IMCTM S5MB11 TNTH  09020IMCT  S5 PTB  00004                    2100 SR        000000000000 DENSO TEN (THAILAND)180LRBL0057057                                                                                                                              *          20180905 IMCT                IMCT                                                                                                                    WMF1809055.TXT
MDDDJ9213797201809                D89828070100PV4D20180911000060SPEAKER ASM                   M IMCTM S0FL05 TNTH  09020IMCT  S0 PTB  00004                    0400 SR        000000000000 DENSO TEN (THAILAND)190MRWU0001001                                                                                                                              *          20180905 IMCT                IMCT                                                                                                                    WMF1809055.TXT
MDDDJ9213798201809                D89828070200PV4D20180911000060SPEAKER ASM                   M IMCTM S0FR05 TNTH  09020IMCT  S0 PTB  00005                    0400 SR        000000000000 DENSO TEN (THAILAND)190MRWU0001001                                                                                                                              *          20180905 IMCT                IMCT                                                                                                                    WMF1809055.TXT
MDDDJ9213799201809                D89828070300PT1D20180911000060SPEAKER ASM                   M IMCTM S5NB082TNTH  09020IMCT  S5 PTB  00015                    0230 SR        000000000000 DENSO TEN (THAILAND)180LPGL0314314                                                                                                                              *          20180905 IMCT                IMCT                                                                                                                    WMF1809055.TXT
MDDDJ9213800201809                D89828070300PT1D20180911000060SPEAKER ASM                   M IMCTM S5NB082TNTH  09020IMCT  S5 PTB  00015                    1300 SR        000000000000 DENSO TEN (THAILAND)180LPGL0315315                                                                                                                              *          20180905 IMCT                IMCT                                                                                                                    WMF1809055.TXT
MDDDJ9213801201809                D89828070300PT4D20180911000060SPEAKER ASM                   M IMCTM S9TS02 TNTH  09020IMCT  S9 PTB  00015                    0400 SR        000000000000 DENSO TEN (THAILAND)190MRWU0001001                                                                                                                              *          20180905 IMCT                IMCT                                                                                                                    WMF1809055.TXT
MDDDJ9213802201809                D89831228300PT1D20180911000030RADIO;AM/FM,CD                M IMCTM S5NC06 TNTH  09020IMCT  S5 CPB  00003                    0230 SR        000000000000 DENSO TEN (THAILAND)180LPGL0314314                                                                                                                              *          20180905 IMCT                IMCT                                                                                                                    WMF1809055.TXT
MDDDJ9213803201809                D89831228300PT1D20180911000030RADIO;AM/FM,CD                M IMCTM S5NC06 TNTH  09020IMCT  S5 CPB  00003                    1300 SR        000000000000 DENSO TEN (THAILAND)180LPGL0315315                                                                                                                              *          20180905 IMCT                IMCT                                                                                                                    WMF1809055.TXT
MDDUJ9205938201809                D89828070100PT4U20180911000030SPEAKER ASM                   M IMCTM S0FL05 TNTH  09020IMCT  S0 PTB  00004                    1600 SR        000000000000 DENSO TEN (THAILAND)180LUSU0169169                                                                                                                              *          20180905 IMCT                IMCT                                                                                                                    WMF1809055.TXT
MDDUJ9205939201809                D89828070200PV4U20180911000030SPEAKER ASM                   M IMCTM S0FR05 TNTH  09020IMCT  S0 PTB  00005                    1600 SR        000000000000 DENSO TEN (THAILAND)180LUSU0169169                                                                                                                              *          20180905 IMCT                IMCT                                                                                                                    WMF1809055.TXT
MDDUJ9205940201809                D89828070300PT4U20180911000030SPEAKER ASM                   M IMCTM S9TS02 TNTH  09020IMCT  S9 PTB  00015                    1600 SR        000000000000 DENSO TEN (THAILAND)180LUSU0169169                                                                                                                              *          20180905 IMCT                IMCT                                                                                                                    WMF1809055.TXT
MDEDJ9218313201809                D89828070100PV1D20180910000090SPEAKER ASM                   M IMCTM S5MB11 TNTH  09020IMCT  S5 PTB  00004                    2230 SR        000000000000 DENSO TEN (THAILAND)17033QL010110217071PL0001001                                                                                                                *          20180905 IMCT                IMCT                                                                                                                    WMF1809055.TXT
MDEDJ9218314201809                D89828070100PV1D20180911000030SPEAKER ASM                   M IMCTM S5MB11 TNTH  09020IMCT  S5 PTB  00004                    0230 SR        000000000000 DENSO TEN (THAILAND)18006YL0007007                                                                                                                              *          20180905 IMCT                IMCT                                                                                                                    WMF1809055.TXT
MDEDJ9218315201809                D89828070100PV1D20180911000060SPEAKER ASM                   M IMCTM S5MB11 TNTH  09020IMCT  S5 PTB  00004                    0400 SR        000000000000 DENSO TEN (THAILAND)17028QL001001017029QL0006006                                                                                                                *          20180905 IMCT                IMCT                                                                                                                    WMF1809055.TXT
MDEDJ9218316201809                D89828070100PV1D20180911000060SPEAKER ASM                   M IMCTM S5MB11 TNTH  09020IMCT  S5 PTB  00004                    1030 SR        000000000000 DENSO TEN (THAILAND)18061UL0022023                                                                                                                              *          20180905 IMCT                IMCT                                                                                                                    WMF1809055.TXT
MDEDJ9218317201809                D89828070100PV1D20180911000060SPEAKER ASM                   M IMCTM S5MB11 TNTH  09020IMCT  S5 PTB  00004                    1300 SR        000000000000 DENSO TEN (THAILAND)18098XL0032033                                                                                                                              *          20180905 IMCT                IMCT                                                                                                                    WMF1809055.TXT
MDEDJ9218318201809                D89828070100PV1D20180911000060SPEAKER ASM                   M IMCTM S5MB11 TNTH  09020IMCT  S5 PTB  00004                    1600 SR        000000000000 DENSO TEN (THAILAND)18001VL0050051                                                                                                                              *          20180905 IMCT                IMCT                                                                                                                    WMF1809055.TXT
MDEDJ9218319201809                D89828070100PV4D20180910000030SPEAKER ASM                   M IMCTM S0FL05 TNTH  09020IMCT  S0 PTB  00004                    2230 SR        000000000000 DENSO TEN (THAILAND)18082UU0020020                                                                                                                              *          20180905 IMCT                IMCT                                                                                                                    WMF1809055.TXT
MDEDJ9218320201809                D89828070100PV4D20180911000030SPEAKER ASM                   M IMCTM S0FL05 TNTH  09020IMCT  S0 PTB  00004                    1600 SR        000000000000 DENSO TEN (THAILAND)18099UU0035035                                                                                                                              *          20180905 IMCT                IMCT                                                                                                                    WMF1809055.TXT
MDEDJ9218321201809                D89828070200PV1D20180910000060SPEAKER ASM                   M IMCTM S5MA14 TNTH  09020IMCT  S5 PTB  00005                    2230 SR        000000000000 DENSO TEN (THAILAND)17033QL0101102                                                                                                                              *          20180905 IMCT                IMCT                                                                                                                    WMF1809055.TXT
MDEDJ9218322201809                D89828070200PV1D20180911000030SPEAKER ASM                   M IMCTM S5MA14 TNTH  09020IMCT  S5 PTB  00005                    0230 SR        000000000000 DENSO TEN (THAILAND)18006YL0007007                                                                                                                              *          20180905 IMCT                IMCT                                                                                                                    WMF1809055.TXT
MDEDJ9218323201809                D89828070200PV1D20180911000060SPEAKER ASM                   M IMCTM S5MA14 TNTH  09020IMCT  S5 PTB  00005                    0400 SR        000000000000 DENSO TEN (THAILAND)17028QL001001017029QL0006006                                                                                                                *          20180905 IMCT                IMCT                                                                                                                    WMF1809055.TXT
MDEDJ9218324201809                D89828070200PV1D20180911000060SPEAKER ASM                   M IMCTM S5MA14 TNTH  09020IMCT  S5 PTB  00005                    1300 SR        000000000000 DENSO TEN (THAILAND)18098XL0032033                                                                                                                              *          20180905 IMCT                IMCT                                                                                                                    WMF1809055.TXT
MDEDJ9218325201809                D89828070200PV1D20180911000060SPEAKER ASM                   M IMCTM S5MA14 TNTH  09020IMCT  S5 PTB  00005                    1600 SR        000000000000 DENSO TEN (THAILAND)18001VL0050051                                                                                                                              *          20180905 IMCT                IMCT                                                                                                                    WMF1809055.TXT
MDEDJ9218326201809                D89828070200PV4D20180910000030SPEAKER ASM                   M IMCTM S0FR05 TNTH  09020IMCT  S0 PTB  00005                    2230 SR        000000000000 DENSO TEN (THAILAND)18082UU0020020                                                                                                                              *          20180905 IMCT                IMCT                                                                                                                    WMF1809055.TXT
MDEDJ9218327201809                D89828070200PV4D20180911000030SPEAKER ASM                   M IMCTM S0FR05 TNTH  09020IMCT  S0 PTB  00005                    1600 SR        000000000000 DENSO TEN (THAILAND)18099UU0035035                                                                                                                              *          20180905 IMCT                IMCT                                                                                                                    WMF1809055.TXT
MDEDJ9218328201809                D89828070300PT1D20180910000060SPEAKER ASM                   M IMCTM S5NB082TNTH  09020IMCT  S5 PTB  00015                    2230 SR        000000000000 DENSO TEN (THAILAND)17033QL0101102                                                                                                                              *          20180905 IMCT                IMCT                                                                                                                    WMF1809055.TXT
MDEDJ9218329201809                D89828070300PT1D20180911000030SPEAKER ASM                   M IMCTM S5NB082TNTH  09020IMCT  S5 PTB  00015                    0230 SR        000000000000 DENSO TEN (THAILAND)18006YL0007007                                                                                                                              *          20180905 IMCT                IMCT                                                                                                                    WMF1809055.TXT
MDEDJ9218330201809                D89828070300PT1D20180911000060SPEAKER ASM                   M IMCTM S5NB082TNTH  09020IMCT  S5 PTB  00015                    0400 SR        000000000000 DENSO TEN (THAILAND)17028QL001001017029QL0006006                                                                                                                *          20180905 IMCT                IMCT                                                                                                                    WMF1809055.TXT
MDEDJ9218331201809                D89828070300PT1D20180911000060SPEAKER ASM                   M IMCTM S5NB082TNTH  09020IMCT  S5 PTB  00015                    1030 SR        000000000000 DENSO TEN (THAILAND)18061UL0022023                                                                                                                              *          20180905 IMCT                IMCT                                                                                                                    WMF1809055.TXT
MDEDJ9218332201809                D89828070300PT1D20180911000060SPEAKER ASM                   M IMCTM S5NB082TNTH  09020IMCT  S5 PTB  00015                    1300 SR        000000000000 DENSO TEN (THAILAND)18098XL0032033                                                                                                                              *          20180905 IMCT                IMCT                                                                                                                    WMF1809055.TXT
MDEDJ9218333201809                D89828070300PT1D20180911000060SPEAKER ASM                   M IMCTM S5NB082TNTH  09020IMCT  S5 PTB  00015                    1600 SR        000000000000 DENSO TEN (THAILAND)18001VL0050051                                                                                                                              *          20180905 IMCT                IMCT                                                                                                                    WMF1809055.TXT
MDEDJ9218334201809                D89828070300PT4D20180910000030SPEAKER ASM                   M IMCTM S9TS02 TNTH  09020IMCT  S9 PTB  00015                    2230 SR        000000000000 DENSO TEN (THAILAND)18082UU0020020                                                                                                                              *          20180905 IMCT                IMCT                                                                                                                    WMF1809055.TXT
MDEDJ9218335201809                D89828070300PT4D20180911000030SPEAKER ASM                   M IMCTM S9TS02 TNTH  09020IMCT  S9 PTB  00015                    1600 SR        000000000000 DENSO TEN (THAILAND)18099UU0035035                                                                                                                              *          20180905 IMCT                IMCT                                                                                                                    WMF1809055.TXT
MDEDJ9218336201809                D89831229200PT1D20180910000030RADIO;AM/FM,CD                M IMCTM S5NC06 TNTH  09020IMCT  S5 PTB  00003                    2230 SR        000000000000 DENSO TEN (THAILAND)17033QL0101102                                                                                                                              *          20180905 IMCT                IMCT                                                                                                                    WMF1809055.TXT
MDEDJ9218337201809                D89831229200PT1D20180911000030RADIO;AM/FM,CD                M IMCTM S5NC06 TNTH  09020IMCT  S5 PTB  00003                    0400 SR        000000000000 DENSO TEN (THAILAND)17028QL001001017029QL0006006                                                                                                                *          20180905 IMCT                IMCT                                                                                                                    WMF1809055.TXT
MDEDJ9218338201809                D89848581800PT1D20180911000030RADIO;AM/FM CD D              M IMCTM S5NC06 TNTH  09020IMCT  S5 PTB  00003                    1030 SR        000000000000 DENSO TEN (THAILAND)18061UL0022023                                                                                                                              *          20180905 IMCT                IMCT                                                                                                                    WMF1809055.TXT
MDEDJ9218339201809                D89848581800PT4D20180910000015RADIO;AM/FM CD D              M IMCTM S9CO001TNTH  09020IMCT  S9 PTB  00003                    2230 SR        000000000000 DENSO TEN (THAILAND)18082UU0020020                                                                                                                              *          20180905 IMCT                IMCT                                                                                                                    WMF1809055.TXT
MDEDJ9218340201809                D89848582100PT1D20180911000015RADIO;AM/FM CD D              M IMCTM S5NC06 TNTH  09020IMCT  S5 PTB  00003                    0230 SR        000000000000 DENSO TEN (THAILAND)18006YL0007007                                                                                                                              *          20180905 IMCT                IMCT                                                                                                                    WMF1809055.TXT
MDEDJ9218341201809                D89848582100PT1D20180911000030RADIO;AM/FM CD D              M IMCTM S5NC06 TNTH  09020IMCT  S5 PTB  00003                    1300 SR        000000000000 DENSO TEN (THAILAND)18098XL0032033                                                                                                                              *          20180905 IMCT                IMCT                                                                                                                    WMF1809055.TXT
MDEUJ9209709201809                D89828070100PT4U20180911000030SPEAKER ASM                   M IMCTM S0FL05 TNTH  09020IMCT  S0 PTB  00004                    0230 SR        000000000000 DENSO TEN (THAILAND)180D06U0010010                                                                                                                              *          20180905 IMCT                IMCT                                                                                                                    WMF1809055.TXT
MDEUJ9209710201809                D89828070100PT4U20180911000030SPEAKER ASM                   M IMCTM S0FL05 TNTH  09020IMCT  S0 PTB  00004                    0400 SR        000000000000 DENSO TEN (THAILAND)18021UU0169169                                                                                                                              *          20180905 IMCT                IMCT                                                                                                                    WMF1809055.TXT
MDEUJ9209711201809                D89828070100PT4U20180911000030SPEAKER ASM                   M IMCTM S0FL05 TNTH  09020IMCT  S0 PTB  00004                    1030 SR        000000000000 DENSO TEN (THAILAND)18021UU0170170                                                                                                                              *          20180905 IMCT                IMCT                                                                                                                    WMF1809055.TXT
MDEUJ9209712201809                D89828070100PT4U20180911000060SPEAKER ASM                   M IMCTM S0FL05 TNTH  09020IMCT  S0 PTB  00004                    1300 SR        000000000000 DENSO TEN (THAILAND)18020UU011111118021UU0171171                                                                                                                *          20180905 IMCT                IMCT                                                                                                                    WMF1809055.TXT
MDEUJ9209713201809                D89828070100PT4U20180911000030SPEAKER ASM                   M IMCTM S0FL05 TNTH  09020IMCT  S0 PTB  00004                    2230 SR        000000000000 DENSO TEN (THAILAND)18018UU0010010                                                                                                                              *          20180905 IMCT                IMCT                                                                                                                    WMF1809055.TXT
MDEUJ9209714201809                D89828070200PV4U20180911000030SPEAKER ASM                   M IMCTM S0FR05 TNTH  09020IMCT  S0 PTB  00005                    0230 SR        000000000000 DENSO TEN (THAILAND)180D06U0010010                                                                                                                              *          20180905 IMCT                IMCT                                                                                                                    WMF1809055.TXT
MDEUJ9209715201809                D89828070200PV4U20180911000030SPEAKER ASM                   M IMCTM S0FR05 TNTH  09020IMCT  S0 PTB  00005                    0400 SR        000000000000 DENSO TEN (THAILAND)18021UU0169169                                                                                                                              *          20180905 IMCT                IMCT                                                                                                                    WMF1809055.TXT
MDEUJ9209716201809                D89828070200PV4U20180911000030SPEAKER ASM                   M IMCTM S0FR05 TNTH  09020IMCT  S0 PTB  00005                    1030 SR        000000000000 DENSO TEN (THAILAND)18021UU0170170                                                                                                                              *          20180905 IMCT                IMCT                                                                                                                    WMF1809055.TXT
MDEUJ9209717201809                D89828070200PV4U20180911000060SPEAKER ASM                   M IMCTM S0FR05 TNTH  09020IMCT  S0 PTB  00005                    1300 SR        000000000000 DENSO TEN (THAILAND)18020UU011111118021UU0171171                                                                                                                *          20180905 IMCT                IMCT                                                                                                                    WMF1809055.TXT
MDEUJ9209718201809                D89828070200PV4U20180911000030SPEAKER ASM                   M IMCTM S0FR05 TNTH  09020IMCT  S0 PTB  00005                    2230 SR        000000000000 DENSO TEN (THAILAND)18018UU0010010                                                                                                                              *          20180905 IMCT                IMCT                                                                                                                    WMF1809055.TXT
MDEUJ9209719201809                D89828070300PT4U20180911000030SPEAKER ASM                   M IMCTM S9TS02 TNTH  09020IMCT  S9 PTB  00015                    0230 SR        000000000000 DENSO TEN (THAILAND)180D06U0010010                                                                                                                              *          20180905 IMCT                IMCT                                                                                                                    WMF1809055.TXT
MDEUJ9209720201809                D89828070300PT4U20180911000030SPEAKER ASM                   M IMCTM S9TS02 TNTH  09020IMCT  S9 PTB  00015                    0400 SR        000000000000 DENSO TEN (THAILAND)18021UU0169169                                                                                                                              *          20180905 IMCT                IMCT                                                                                                                    WMF1809055.TXT
MDEUJ9209721201809                D89828070300PT4U20180911000030SPEAKER ASM                   M IMCTM S9TS02 TNTH  09020IMCT  S9 PTB  00015                    1030 SR        000000000000 DENSO TEN (THAILAND)18021UU0170170                                                                                                                              *          20180905 IMCT                IMCT                                                                                                                    WMF1809055.TXT
MDEUJ9209722201809                D89828070300PT4U20180911000060SPEAKER ASM                   M IMCTM S9TS02 TNTH  09020IMCT  S9 PTB  00015                    1300 SR        000000000000 DENSO TEN (THAILAND)18020UU011111118021UU0171171                                                                                                                *          20180905 IMCT                IMCT                                                                                                                    WMF1809055.TXT
MDEUJ9209723201809                D89828070300PT4U20180911000030SPEAKER ASM                   M IMCTM S9TS02 TNTH  09020IMCT  S9 PTB  00015                    2230 SR        000000000000 DENSO TEN (THAILAND)18018UU0010010                                                                                                                              *          20180905 IMCT                IMCT                                                                                                                    WMF1809055.TXT
