REC2018090720180907ISUZU                              62     
MDDDJ9223539201809                D89821984430PT1D20180912000030RADIO;AM/FM,CD                M IMCTM S5NC06 TNTH  09020IMCT  S5 PTB  00005                    2230 SR        000000000000 DENSO TEN (THAILAND)180LRBL0058058                                                                                                                              *          20180907 IMCT                IMCT                                                                                                                    WMF1809075.TXT
MDDDJ9223540201809                D89821984430PT1D20180913000030RADIO;AM/FM,CD                M IMCTM S5NC06 TNTH  09020IMCT  S5 PTB  00005                    0400 SR        000000000000 DENSO TEN (THAILAND)180LNGL0198198                                                                                                                              *          20180907 IMCT                IMCT                                                                                                                    WMF1809075.TXT
MDDDJ9223541201809                D89821984430PT1D20180913000030RADIO;AM/FM,CD                M IMCTM S5NC06 TNTH  09020IMCT  S5 PTB  00005                    0830 SR        000000000000 DENSO TEN (THAILAND)180LPAL0220220                                                                                                                              *          20180907 IMCT                IMCT                                                                                                                    WMF1809075.TXT
MDDDJ9223542201809                D89821984430PT1D20180913000030RADIO;AM/FM,CD                M IMCTM S5NC06 TNTH  09020IMCT  S5 PTB  00005                    1300 SR        000000000000 DENSO TEN (THAILAND)180LPAL0221221                                                                                                                              *          20180907 IMCT                IMCT                                                                                                                    WMF1809075.TXT
MDDDJ9223543201809                D89828070100PV1D20180912000060SPEAKER ASM                   M IMCTM S5MB11 TNTH  09020IMCT  S5 PTB  00004                    2230 SR        000000000000 DENSO TEN (THAILAND)180LRBL0058058                                                                                                                              *          20180907 IMCT                IMCT                                                                                                                    WMF1809075.TXT
MDDDJ9223544201809                D89828070100PV1D20180913000060SPEAKER ASM                   M IMCTM S5MB11 TNTH  09020IMCT  S5 PTB  00004                    0400 SR        000000000000 DENSO TEN (THAILAND)180LNGL0198198                                                                                                                              *          20180907 IMCT                IMCT                                                                                                                    WMF1809075.TXT
MDDDJ9223545201809                D89828070100PV1D20180913000060SPEAKER ASM                   M IMCTM S5MB11 TNTH  09020IMCT  S5 PTB  00004                    0830 SR        000000000000 DENSO TEN (THAILAND)180LPAL0220220                                                                                                                              *          20180907 IMCT                IMCT                                                                                                                    WMF1809075.TXT
MDDDJ9223546201809                D89828070100PV1D20180913000060SPEAKER ASM                   M IMCTM S5MB11 TNTH  09020IMCT  S5 PTB  00004                    1300 SR        000000000000 DENSO TEN (THAILAND)180LPAL0221221                                                                                                                              *          20180907 IMCT                IMCT                                                                                                                    WMF1809075.TXT
MDDDJ9223547201809                D89828070100PV1D20180913000060SPEAKER ASM                   M IMCTM S5MB11 TNTH  09020IMCT  S5 PTB  00004                    1600 SR        000000000000 DENSO TEN (THAILAND)180LPCL0087087                                                                                                                              *          20180907 IMCT                IMCT                                                                                                                    WMF1809075.TXT
MDDDJ9223548201809                D89828070100PV1D20180913000060SPEAKER ASM                   M IMCTM S5MB11 TNTH  09020IMCT  S5 PTB  00004                    2100 SR        000000000000 DENSO TEN (THAILAND)180LPFL0086086                                                                                                                              *          20180907 IMCT                IMCT                                                                                                                    WMF1809075.TXT
MDDDJ9223549201809                D89828070100PV4D20180913000060SPEAKER ASM                   M IMCTM S0FL05 TNTH  09020IMCT  S0 PTB  00004                    0830 SR        000000000000 DENSO TEN (THAILAND)190MRSU0001001                                                                                                                              *          20180907 IMCT                IMCT                                                                                                                    WMF1809075.TXT
MDDDJ9223550201809                D89828070200PV4D20180913000060SPEAKER ASM                   M IMCTM S0FR05 TNTH  09020IMCT  S0 PTB  00005                    0830 SR        000000000000 DENSO TEN (THAILAND)190MRSU0001001                                                                                                                              *          20180907 IMCT                IMCT                                                                                                                    WMF1809075.TXT
MDDDJ9223551201809                D89828070300PT1D20180913000060SPEAKER ASM                   M IMCTM S5NB082TNTH  09020IMCT  S5 PTB  00015                    1600 SR        000000000000 DENSO TEN (THAILAND)180LPCL0087087                                                                                                                              *          20180907 IMCT                IMCT                                                                                                                    WMF1809075.TXT
MDDDJ9223552201809                D89828070300PT1D20180913000060SPEAKER ASM                   M IMCTM S5NB082TNTH  09020IMCT  S5 PTB  00015                    2100 SR        000000000000 DENSO TEN (THAILAND)180LPFL0086086                                                                                                                              *          20180907 IMCT                IMCT                                                                                                                    WMF1809075.TXT
MDDDJ9223553201809                D89828070300PT4D20180913000060SPEAKER ASM                   M IMCTM S9TS02 TNTH  09020IMCT  S9 PTB  00015                    0830 SR        000000000000 DENSO TEN (THAILAND)190MRSU0001001                                                                                                                              *          20180907 IMCT                IMCT                                                                                                                    WMF1809075.TXT
MDDDJ9223554201809                D89831228300PT1D20180913000030RADIO;AM/FM,CD                M IMCTM S5NC06 TNTH  09020IMCT  S5 CPB  00003                    1600 SR        000000000000 DENSO TEN (THAILAND)180LPCL0087087                                                                                                                              *          20180907 IMCT                IMCT                                                                                                                    WMF1809075.TXT
MDDDJ9223555201809                D89831228300PT1D20180913000030RADIO;AM/FM,CD                M IMCTM S5NC06 TNTH  09020IMCT  S5 CPB  00003                    2100 SR        000000000000 DENSO TEN (THAILAND)180LPFL0086086                                                                                                                              *          20180907 IMCT                IMCT                                                                                                                    WMF1809075.TXT
MDDUJ9210756201809                D89828070100PT4U20180913000030SPEAKER ASM                   M IMCTM S0FL05 TNTH  09020IMCT  S0 PTB  00004                    0400 SR        000000000000 DENSO TEN (THAILAND)180LUQU0071071                                                                                                                              *          20180907 IMCT                IMCT                                                                                                                    WMF1809075.TXT
MDDUJ9210757201809                D89828070100PT4U20180913000030SPEAKER ASM                   M IMCTM S0FL05 TNTH  09020IMCT  S0 PTB  00004                    1600 SR        000000000000 DENSO TEN (THAILAND)180LUSU0171171                                                                                                                              *          20180907 IMCT                IMCT                                                                                                                    WMF1809075.TXT
MDDUJ9210758201809                D89828070200PV4U20180913000030SPEAKER ASM                   M IMCTM S0FR05 TNTH  09020IMCT  S0 PTB  00005                    0400 SR        000000000000 DENSO TEN (THAILAND)180LUQU0071071                                                                                                                              *          20180907 IMCT                IMCT                                                                                                                    WMF1809075.TXT
MDDUJ9210759201809                D89828070200PV4U20180913000030SPEAKER ASM                   M IMCTM S0FR05 TNTH  09020IMCT  S0 PTB  00005                    1600 SR        000000000000 DENSO TEN (THAILAND)180LUSU0171171                                                                                                                              *          20180907 IMCT                IMCT                                                                                                                    WMF1809075.TXT
MDDUJ9210760201809                D89828070300PT4U20180913000030SPEAKER ASM                   M IMCTM S9TS02 TNTH  09020IMCT  S9 PTB  00015                    0400 SR        000000000000 DENSO TEN (THAILAND)180LUQU0071071                                                                                                                              *          20180907 IMCT                IMCT                                                                                                                    WMF1809075.TXT
MDDUJ9210761201809                D89828070300PT4U20180913000030SPEAKER ASM                   M IMCTM S9TS02 TNTH  09020IMCT  S9 PTB  00015                    1600 SR        000000000000 DENSO TEN (THAILAND)180LUSU0171171                                                                                                                              *          20180907 IMCT                IMCT                                                                                                                    WMF1809075.TXT
MDDUJ9210762201809                D89848584200PT4U20180913000015RADIO;AM/FM CD D              M IMCTM S9CO001TNTH  09020IMCT  S9 PTB  00003                    0400 SR        000000000000 DENSO TEN (THAILAND)180LUQU0071071                                                                                                                              *          20180907 IMCT                IMCT                                                                                                                    WMF1809075.TXT
MDEDJ9231970201809                D89828070100PV1D20180912000030SPEAKER ASM                   M IMCTM S5MB11 TNTH  09020IMCT  S5 PTB  00004                    2230 SR        000000000000 DENSO TEN (THAILAND)18071UL0017017                                                                                                                              *          20180907 IMCT                IMCT                                                                                                                    WMF1809075.TXT
MDEDJ9231971201809                D89828070100PV1D20180913000060SPEAKER ASM                   M IMCTM S5MB11 TNTH  09020IMCT  S5 PTB  00004                    0230 SR        000000000000 DENSO TEN (THAILAND)18006YL0010011                                                                                                                              *          20180907 IMCT                IMCT                                                                                                                    WMF1809075.TXT
MDEDJ9231972201809                D89828070100PV1D20180913000060SPEAKER ASM                   M IMCTM S5MB11 TNTH  09020IMCT  S5 PTB  00004                    0400 SR        000000000000 DENSO TEN (THAILAND)17030QL000100118074UL0051051                                                                                                                *          20180907 IMCT                IMCT                                                                                                                    WMF1809075.TXT
MDEDJ9231973201809                D89828070100PV1D20180913000060SPEAKER ASM                   M IMCTM S5MB11 TNTH  09020IMCT  S5 PTB  00004                    1030 SR        000000000000 DENSO TEN (THAILAND)17046QL005405417075QL0017017                                                                                                                *          20180907 IMCT                IMCT                                                                                                                    WMF1809075.TXT
MDEDJ9231974201809                D89828070100PV1D20180913000060SPEAKER ASM                   M IMCTM S5MB11 TNTH  09020IMCT  S5 PTB  00004                    1300 SR        000000000000 DENSO TEN (THAILAND)18063UL0028029                                                                                                                              *          20180907 IMCT                IMCT                                                                                                                    WMF1809075.TXT
MDEDJ9231975201809                D89828070100PV1D20180913000060SPEAKER ASM                   M IMCTM S5MB11 TNTH  09020IMCT  S5 PTB  00004                    1600 SR        000000000000 DENSO TEN (THAILAND)18098XL0036037                                                                                                                              *          20180907 IMCT                IMCT                                                                                                                    WMF1809075.TXT
MDEDJ9231976201809                D89828070100PV4D20180912000030SPEAKER ASM                   M IMCTM S0FL05 TNTH  09020IMCT  S0 PTB  00004                    2230 SR        000000000000 DENSO TEN (THAILAND)18099UU0036036                                                                                                                              *          20180907 IMCT                IMCT                                                                                                                    WMF1809075.TXT
MDEDJ9231977201809                D89828070100PV4D20180913000030SPEAKER ASM                   M IMCTM S0FL05 TNTH  09020IMCT  S0 PTB  00004                    1600 SR        000000000000 DENSO TEN (THAILAND)18076XU0004004                                                                                                                              *          20180907 IMCT                IMCT                                                                                                                    WMF1809075.TXT
MDEDJ9231978201809                D89828070200PV1D20180913000060SPEAKER ASM                   M IMCTM S5MA14 TNTH  09020IMCT  S5 PTB  00005                    0230 SR        000000000000 DENSO TEN (THAILAND)18006YL0010011                                                                                                                              *          20180907 IMCT                IMCT                                                                                                                    WMF1809075.TXT
MDEDJ9231979201809                D89828070200PV1D20180913000030SPEAKER ASM                   M IMCTM S5MA14 TNTH  09020IMCT  S5 PTB  00005                    0400 SR        000000000000 DENSO TEN (THAILAND)17030QL0001001                                                                                                                              *          20180907 IMCT                IMCT                                                                                                                    WMF1809075.TXT
MDEDJ9231980201809                D89828070200PV1D20180913000030SPEAKER ASM                   M IMCTM S5MA14 TNTH  09020IMCT  S5 PTB  00005                    1030 SR        000000000000 DENSO TEN (THAILAND)17046QL0054054                                                                                                                              *          20180907 IMCT                IMCT                                                                                                                    WMF1809075.TXT
MDEDJ9231981201809                D89828070200PV1D20180913000060SPEAKER ASM                   M IMCTM S5MA14 TNTH  09020IMCT  S5 PTB  00005                    1600 SR        000000000000 DENSO TEN (THAILAND)18098XL0036037                                                                                                                              *          20180907 IMCT                IMCT                                                                                                                    WMF1809075.TXT
MDEDJ9231982201809                D89828070200PV4D20180912000030SPEAKER ASM                   M IMCTM S0FR05 TNTH  09020IMCT  S0 PTB  00005                    2230 SR        000000000000 DENSO TEN (THAILAND)18099UU0036036                                                                                                                              *          20180907 IMCT                IMCT                                                                                                                    WMF1809075.TXT
MDEDJ9231983201809                D89828070300PT1D20180912000030SPEAKER ASM                   M IMCTM S5NB082TNTH  09020IMCT  S5 PTB  00015                    2230 SR        000000000000 DENSO TEN (THAILAND)18071UL0017017                                                                                                                              *          20180907 IMCT                IMCT                                                                                                                    WMF1809075.TXT
MDEDJ9231984201809                D89828070300PT1D20180913000060SPEAKER ASM                   M IMCTM S5NB082TNTH  09020IMCT  S5 PTB  00015                    0230 SR        000000000000 DENSO TEN (THAILAND)18006YL0010011                                                                                                                              *          20180907 IMCT                IMCT                                                                                                                    WMF1809075.TXT
MDEDJ9231985201809                D89828070300PT1D20180913000060SPEAKER ASM                   M IMCTM S5NB082TNTH  09020IMCT  S5 PTB  00015                    0400 SR        000000000000 DENSO TEN (THAILAND)17030QL000100118074UL0051051                                                                                                                *          20180907 IMCT                IMCT                                                                                                                    WMF1809075.TXT
MDEDJ9231986201809                D89828070300PT1D20180913000030SPEAKER ASM                   M IMCTM S5NB082TNTH  09020IMCT  S5 PTB  00015                    1030 SR        000000000000 DENSO TEN (THAILAND)17046QL0054054                                                                                                                              *          20180907 IMCT                IMCT                                                                                                                    WMF1809075.TXT
MDEDJ9231987201809                D89828070300PT1D20180913000060SPEAKER ASM                   M IMCTM S5NB082TNTH  09020IMCT  S5 PTB  00015                    1300 SR        000000000000 DENSO TEN (THAILAND)18063UL0028029                                                                                                                              *          20180907 IMCT                IMCT                                                                                                                    WMF1809075.TXT
MDEDJ9231988201809                D89828070300PT1D20180913000060SPEAKER ASM                   M IMCTM S5NB082TNTH  09020IMCT  S5 PTB  00015                    1600 SR        000000000000 DENSO TEN (THAILAND)18098XL0036037                                                                                                                              *          20180907 IMCT                IMCT                                                                                                                    WMF1809075.TXT
MDEDJ9231989201809                D89828070300PT4D20180912000030SPEAKER ASM                   M IMCTM S9TS02 TNTH  09020IMCT  S9 PTB  00015                    2230 SR        000000000000 DENSO TEN (THAILAND)18099UU0036036                                                                                                                              *          20180907 IMCT                IMCT                                                                                                                    WMF1809075.TXT
MDEDJ9231990201809                D89831229200PT1D20180913000015RADIO;AM/FM,CD                M IMCTM S5NC06 TNTH  09020IMCT  S5 PTB  00003                    0400 SR        000000000000 DENSO TEN (THAILAND)17030QL0001001                                                                                                                              *          20180907 IMCT                IMCT                                                                                                                    WMF1809075.TXT
MDEDJ9231991201809                D89848581800PT1D20180912000015RADIO;AM/FM CD D              M IMCTM S5NC06 TNTH  09020IMCT  S5 PTB  00003                    2230 SR        000000000000 DENSO TEN (THAILAND)18071UL0017017                                                                                                                              *          20180907 IMCT                IMCT                                                                                                                    WMF1809075.TXT
MDEDJ9231992201809                D89848581800PT1D20180913000030RADIO;AM/FM CD D              M IMCTM S5NC06 TNTH  09020IMCT  S5 PTB  00003                    1300 SR        000000000000 DENSO TEN (THAILAND)18063UL0028029                                                                                                                              *          20180907 IMCT                IMCT                                                                                                                    WMF1809075.TXT
MDEDJ9231993201809                D89848582100PT1D20180913000030RADIO;AM/FM CD D              M IMCTM S5NC06 TNTH  09020IMCT  S5 PTB  00003                    0230 SR        000000000000 DENSO TEN (THAILAND)18006YL0010011                                                                                                                              *          20180907 IMCT                IMCT                                                                                                                    WMF1809075.TXT
MDEDJ9231994201809                D89848582100PT1D20180913000030RADIO;AM/FM CD D              M IMCTM S5NC06 TNTH  09020IMCT  S5 PTB  00003                    1600 SR        000000000000 DENSO TEN (THAILAND)18098XL0036037                                                                                                                              *          20180907 IMCT                IMCT                                                                                                                    WMF1809075.TXT
MDEDJ9231995201809                D89848582500PT1D20180913000015RADIO;AM/FM CD D              M IMCTM S5NC06 TNTH  09020IMCT  S5 PTB  00003                    0400 SR        000000000000 DENSO TEN (THAILAND)18074UL0051051                                                                                                                              *          20180907 IMCT                IMCT                                                                                                                    WMF1809075.TXT
MDEUJ9215956201809                D89828070100PT4U20180913000030SPEAKER ASM                   M IMCTM S0FL05 TNTH  09020IMCT  S0 PTB  00004                    0230 SR        000000000000 DENSO TEN (THAILAND)18021UU0173173                                                                                                                              *          20180907 IMCT                IMCT                                                                                                                    WMF1809075.TXT
MDEUJ9215957201809                D89828070100PT4U20180913000030SPEAKER ASM                   M IMCTM S0FL05 TNTH  09020IMCT  S0 PTB  00004                    0400 SR        000000000000 DENSO TEN (THAILAND)18021UU0174174                                                                                                                              *          20180907 IMCT                IMCT                                                                                                                    WMF1809075.TXT
MDEUJ9215958201809                D89828070100PT4U20180913000060SPEAKER ASM                   M IMCTM S0FL05 TNTH  09020IMCT  S0 PTB  00004                    1300 SR        000000000000 DENSO TEN (THAILAND)18021UU017517518023UU0031031                                                                                                                *          20180907 IMCT                IMCT                                                                                                                    WMF1809075.TXT
MDEUJ9215959201809                D89828070100PT4U20180913000030SPEAKER ASM                   M IMCTM S0FL05 TNTH  09020IMCT  S0 PTB  00004                    2100 SR        000000000000 DENSO TEN (THAILAND)18024UU0051051                                                                                                                              *          20180907 IMCT                IMCT                                                                                                                    WMF1809075.TXT
MDEUJ9215960201809                D89828070200PV4U20180913000030SPEAKER ASM                   M IMCTM S0FR05 TNTH  09020IMCT  S0 PTB  00005                    0230 SR        000000000000 DENSO TEN (THAILAND)18021UU0173173                                                                                                                              *          20180907 IMCT                IMCT                                                                                                                    WMF1809075.TXT
MDEUJ9215961201809                D89828070200PV4U20180913000030SPEAKER ASM                   M IMCTM S0FR05 TNTH  09020IMCT  S0 PTB  00005                    0400 SR        000000000000 DENSO TEN (THAILAND)18021UU0174174                                                                                                                              *          20180907 IMCT                IMCT                                                                                                                    WMF1809075.TXT
MDEUJ9215962201809                D89828070200PV4U20180913000060SPEAKER ASM                   M IMCTM S0FR05 TNTH  09020IMCT  S0 PTB  00005                    1300 SR        000000000000 DENSO TEN (THAILAND)18021UU017517518023UU0031031                                                                                                                *          20180907 IMCT                IMCT                                                                                                                    WMF1809075.TXT
MDEUJ9215963201809                D89828070200PV4U20180913000030SPEAKER ASM                   M IMCTM S0FR05 TNTH  09020IMCT  S0 PTB  00005                    2100 SR        000000000000 DENSO TEN (THAILAND)18024UU0051051                                                                                                                              *          20180907 IMCT                IMCT                                                                                                                    WMF1809075.TXT
MDEUJ9215964201809                D89828070300PT4U20180913000030SPEAKER ASM                   M IMCTM S9TS02 TNTH  09020IMCT  S9 PTB  00015                    0230 SR        000000000000 DENSO TEN (THAILAND)18021UU0173173                                                                                                                              *          20180907 IMCT                IMCT                                                                                                                    WMF1809075.TXT
MDEUJ9215965201809                D89828070300PT4U20180913000030SPEAKER ASM                   M IMCTM S9TS02 TNTH  09020IMCT  S9 PTB  00015                    0400 SR        000000000000 DENSO TEN (THAILAND)18021UU0174174                                                                                                                              *          20180907 IMCT                IMCT                                                                                                                    WMF1809075.TXT
MDEUJ9215966201809                D89828070300PT4U20180913000060SPEAKER ASM                   M IMCTM S9TS02 TNTH  09020IMCT  S9 PTB  00015                    1300 SR        000000000000 DENSO TEN (THAILAND)18021UU017517518023UU0031031                                                                                                                *          20180907 IMCT                IMCT                                                                                                                    WMF1809075.TXT
MDEUJ9215967201809                D89828070300PT4U20180913000030SPEAKER ASM                   M IMCTM S9TS02 TNTH  09020IMCT  S9 PTB  00015                    2100 SR        000000000000 DENSO TEN (THAILAND)18024UU0051051                                                                                                                              *          20180907 IMCT                IMCT                                                                                                                    WMF1809075.TXT
