REC2018091320180913ISUZU                              18     
MAKK89078296201809D1               89825451200P3YK20180926000030SPEAKER ASM;ROOF              M IMCTM CM1    TNTH  09020IMKDC KA PTB  00036  K0                0911DES        000000000000 DENSO TEN (THAILAND)                                                                                                                                            *G         20180913 IMCT                IMCT                                                                                                                    WMF1809138.TXT
MAKK89078297201809D1               89825451200P3YK20180927000030SPEAKER ASM;ROOF              M IMCTM CM1    TNTH  09020IMKDC KA PTB  00036  K0                0911DES        000000000000 DENSO TEN (THAILAND)                                                                                                                                            *G         20180913 IMCT                IMCT                                                                                                                    WMF1809138.TXT
MAKK89078298201809D1               89825451200P3YK20180928000060SPEAKER ASM;ROOF              M IMCTM CM1    TNTH  09020IMKDC KA PTB  00036  K0                0911DES        000000000000 DENSO TEN (THAILAND)                                                                                                                                            *G         20180913 IMCT                IMCT                                                                                                                    WMF1809138.TXT
MAKK89078299201809D1               89828070100P3YK20180924000240SPEAKER ASM                   M IMCTM CM1    TNTH  09020IMKDC KA PTB  00004  K0                0911DES        000000000000 DENSO TEN (THAILAND)                                                                                                                                            *G         20180913 IMCT                IMCT                                                                                                                    WMF1809138.TXT
MAKK89078300201809D1               89828070100P3YK20180925000300SPEAKER ASM                   M IMCTM CM1    TNTH  09020IMKDC KA PTB  00004  K0                0911DES        000000000000 DENSO TEN (THAILAND)                                                                                                                                            *G         20180913 IMCT                IMCT                                                                                                                    WMF1809138.TXT
MAKK89078301201809D1               89828070100P3YK20180926000240SPEAKER ASM                   M IMCTM CM1    TNTH  09020IMKDC KA PTB  00004  K0                0911DES        000000000000 DENSO TEN (THAILAND)                                                                                                                                            *G         20180913 IMCT                IMCT                                                                                                                    WMF1809138.TXT
MAKK89078302201809D1               89828070100P3YK20180927000300SPEAKER ASM                   M IMCTM CM1    TNTH  09020IMKDC KA PTB  00004  K0                0911DES        000000000000 DENSO TEN (THAILAND)                                                                                                                                            *G         20180913 IMCT                IMCT                                                                                                                    WMF1809138.TXT
MAKK89078303201809D1               89828070100P3YK20180928000240SPEAKER ASM                   M IMCTM CM1    TNTH  09020IMKDC KA PTB  00004  K0                0911DES        000000000000 DENSO TEN (THAILAND)                                                                                                                                            *G         20180913 IMCT                IMCT                                                                                                                    WMF1809138.TXT
MAKK89078304201809D1               89828070200P3YK20180924000090SPEAKER ASM                   M IMCTM CM1    TNTH  09020IMKDC KA PTB  00005  K0                0911DES        000000000000 DENSO TEN (THAILAND)                                                                                                                                            *G         20180913 IMCT                IMCT                                                                                                                    WMF1809138.TXT
MAKK89078305201809D1               89828070200P3YK20180925000090SPEAKER ASM                   M IMCTM CM1    TNTH  09020IMKDC KA PTB  00005  K0                0911DES        000000000000 DENSO TEN (THAILAND)                                                                                                                                            *G         20180913 IMCT                IMCT                                                                                                                    WMF1809138.TXT
MAKK89078306201809D1               89828070200P3YK20180926000090SPEAKER ASM                   M IMCTM CM1    TNTH  09020IMKDC KA PTB  00005  K0                0911DES        000000000000 DENSO TEN (THAILAND)                                                                                                                                            *G         20180913 IMCT                IMCT                                                                                                                    WMF1809138.TXT
MAKK89078307201809D1               89828070200P3YK20180927000090SPEAKER ASM                   M IMCTM CM1    TNTH  09020IMKDC KA PTB  00005  K0                0911DES        000000000000 DENSO TEN (THAILAND)                                                                                                                                            *G         20180913 IMCT                IMCT                                                                                                                    WMF1809138.TXT
MAKK89078308201809D1               89828070200P3YK20180928000030SPEAKER ASM                   M IMCTM CM1    TNTH  09020IMKDC KA PTB  00005  K0                0911DES        000000000000 DENSO TEN (THAILAND)                                                                                                                                            *G         20180913 IMCT                IMCT                                                                                                                    WMF1809138.TXT
MAKK89078309201809D1               89828070300P3YK20180924000120SPEAKER ASM                   M IMCTM CM1    TNTH  09020IMKDC KA PTB  00015  K0                0911DES        000000000000 DENSO TEN (THAILAND)                                                                                                                                            *G         20180913 IMCT                IMCT                                                                                                                    WMF1809138.TXT
MAKK89078310201809D1               89828070300P3YK20180925000090SPEAKER ASM                   M IMCTM CM1    TNTH  09020IMKDC KA PTB  00015  K0                0911DES        000000000000 DENSO TEN (THAILAND)                                                                                                                                            *G         20180913 IMCT                IMCT                                                                                                                    WMF1809138.TXT
MAKK89078311201809D1               89828070300P3YK20180926000090SPEAKER ASM                   M IMCTM CM1    TNTH  09020IMKDC KA PTB  00015  K0                0911DES        000000000000 DENSO TEN (THAILAND)                                                                                                                                            *G         20180913 IMCT                IMCT                                                                                                                    WMF1809138.TXT
MAKK89078312201809D1               89828070300P3YK20180927000150SPEAKER ASM                   M IMCTM CM1    TNTH  09020IMKDC KA PTB  00015  K0                0911DES        000000000000 DENSO TEN (THAILAND)                                                                                                                                            *G         20180913 IMCT                IMCT                                                                                                                    WMF1809138.TXT
MAKK89078313201809D1               89828070300P3YK20180928000060SPEAKER ASM                   M IMCTM CM1    TNTH  09020IMKDC KA PTB  00015  K0                0911DES        000000000000 DENSO TEN (THAILAND)                                                                                                                                            *G         20180913 IMCT                IMCT                                                                                                                    WMF1809138.TXT
