REC2018091920180919ISUZU                              12     
MDEBJ9T02320201809                D89828070100PT4B20180924000026SPEAKER ASM                   M IMCTM S7FL05 TNTH  09020IMCT  S7 PTB  00004                    1300 SR        000000000000 DENSO TEN (THAILAND)18030TR0071   18035TR0094   Z180905003    Z180905015    000000                                                                              *R         20180919 IMCT                IMCT                                                                                                                    RMF1809194.TXT
MDEBJ9T02321201809                D89828070200PV4B20180924000025SPEAKER ASM                   M IMCTM S7FL05 TNTH  09020IMCT  S7 PTB  00005                    1300 SR        000000000000 DENSO TEN (THAILAND)18030TR0071   18035TR0094   Z180905003    Z180905015    000000                                                                              *R         20180919 IMCT                IMCT                                                                                                                    RMF1809194.TXT
MDEBJ9T02322201809                D89828070300PT4B20180924000015SPEAKER ASM                   M IMCTM S7TS02 TNTH  09020IMCT  S7 PTB  00015                    1300 SR        000000000000 DENSO TEN (THAILAND)18035TR0087   18035TR0094   Z180905008    Z180905015    000000                                                                              *R         20180919 IMCT                IMCT                                                                                                                    RMF1809194.TXT
MDEBJ9T02323201809                D89831229200PT4B20180924000012RADIO;AM/FM,CD                M IMCTM S7TS03 TNTH  09020IMCT  S7 PTB  00003                    1300 SR        000000000000 DENSO TEN (THAILAND)18031TR0049   18035TR0094   Z180905004    Z180905015    000000                                                                              *R         20180919 IMCT                IMCT                                                                                                                    RMF1809194.TXT
MDEBJ9202582201809                D89828070100PT4B20180924000004SPEAKER ASM                   M IMCTM S7FL05 TNTH  09020IMCT  S7 PTB  00004                    1030 SR        000000000000 DENSO TEN (THAILAND)18030TR0069   18030TR0070   Z180905001    Z180905002    000000                                                                              *R         20180919 IMCT                IMCT                                                                                                                    RMF1809194.TXT
MDEBJ9202583201809                D89828070200PV4B20180924000005SPEAKER ASM                   M IMCTM S7FL05 TNTH  09020IMCT  S7 PTB  00005                    1030 SR        000000000000 DENSO TEN (THAILAND)18030TR0069   18030TR0071   Z180905001    Z180905003    000000                                                                              *R         20180919 IMCT                IMCT                                                                                                                    RMF1809194.TXT
MDEBJ9202584201809                D89828070300PT4B20180924000015SPEAKER ASM                   M IMCTM S7TS02 TNTH  09020IMCT  S7 PTB  00015                    1030 SR        000000000000 DENSO TEN (THAILAND)18030TR0069   18035TR0087   Z180905001    Z180905008    000000                                                                              *R         20180919 IMCT                IMCT                                                                                                                    RMF1809194.TXT
MDEFJ9T15459201809                D89828070100PV4F20180923000028SPEAKER ASM                   M IMCTM S7FL05 TNTH  09020IMCT  S7 PTB  00004                    0400 SR        000000000000 DENSO TEN (THAILAND)17027RR0115   17018QR0063   S180904902    S180904915    000000                                                                              *R         20180919 IMCT                IMCT                                                                                                                    RMF1809194.TXT
MDEFJ9T15460201809                D89828070200PV4F20180922000006SPEAKER ASM                   M IMCTM S7FL05 TNTH  09020IMCT  S7 PTB  00005                    2230 SR        000000000000 DENSO TEN (THAILAND)17067QR0138   17067QR0140   C180904804    C180904806    000000                                                                              *R         20180919 IMCT                IMCT                                                                                                                    RMF1809194.TXT
MDEFJ9T15461201809                D89828070300PT4F20180922000006SPEAKER ASM                   M IMCTM S7TS02 TNTH  09020IMCT  S7 PTB  00015                    2230 SR        000000000000 DENSO TEN (THAILAND)17067QR0138   17067QR0140   C180904804    C180904806    000000                                                                              *R         20180919 IMCT                IMCT                                                                                                                    RMF1809194.TXT
MDEFJ9T15462201809                D89831229010PT4F20180922000003RADIO;AM/FM,CD                M IMCTM S7TS01 TNTH  09020IMCT  S7 PTB  00003                    2230 SR        000000000000 DENSO TEN (THAILAND)17067QR0138   17067QR0140   C180904804    C180904806    000000                                                                              *R         20180919 IMCT                IMCT                                                                                                                    RMF1809194.TXT
MDEFJ9242005201809                D89828070100PV4F20180922000032SPEAKER ASM                   M IMCTM S7FL05 TNTH  09020IMCT  S7 PTB  00004                    2230 SR        000000000000 DENSO TEN (THAILAND)17014RR0067   17027RR0114   C180904801    S180904901    000000                                                                              *R         20180919 IMCT                IMCT                                                                                                                    RMF1809194.TXT
