REC2018092020180920ISUZU                              62     
MDDDJ9264764201809                D89821984430PT1D20180925000030RADIO;AM/FM,CD                M IMCTM S5NC06 TNTH  09020IMCT  S5 PTB  00005                    0230 SR        000000000000 DENSO TEN (THAILAND)180LNGL0207207                                                                                                                              *          20180920 IMCT                IMCT                                                                                                                    WMF1809203.TXT
MDDDJ9264765201809                D89821984430PT1D20180925000030RADIO;AM/FM,CD                M IMCTM S5NC06 TNTH  09020IMCT  S5 PTB  00005                    0400 SR        000000000000 DENSO TEN (THAILAND)180LXEL0095095                                                                                                                              *          20180920 IMCT                IMCT                                                                                                                    WMF1809203.TXT
MDDDJ9264766201809                D89821984430PT1D20180925000030RADIO;AM/FM,CD                M IMCTM S5NC06 TNTH  09020IMCT  S5 PTB  00005                    1300 SR        000000000000 DENSO TEN (THAILAND)180LRAL0256256                                                                                                                              *          20180920 IMCT                IMCT                                                                                                                    WMF1809203.TXT
MDDDJ9264767201809                D89821984430PT1D20180925000060RADIO;AM/FM,CD                M IMCTM S5NC06 TNTH  09020IMCT  S5 PTB  00005                    1600 SR        000000000000 DENSO TEN (THAILAND)180LNGL0208209                                                                                                                              *          20180920 IMCT                IMCT                                                                                                                    WMF1809203.TXT
MDDDJ9264768201809                D89821984430PT1D20180925000030RADIO;AM/FM,CD                M IMCTM S5NC06 TNTH  09020IMCT  S5 PTB  00005                    2100 SR        000000000000 DENSO TEN (THAILAND)180LXCL0090090                                                                                                                              *          20180920 IMCT                IMCT                                                                                                                    WMF1809203.TXT
MDDDJ9264769201809                D89821984430PT4D20180925000030RADIO;AM/FM,CD                M IMCTM S9CO001TNTH  09020IMCT  S9 PTB  00005                    1300 SR        000000000000 DENSO TEN (THAILAND)180LRAU0013013                                                                                                                              *          20180920 IMCT                IMCT                                                                                                                    WMF1809203.TXT
MDDDJ9264770201809                D89828070100PV1D20180925000060SPEAKER ASM                   M IMCTM S5MB11 TNTH  09020IMCT  S5 PTB  00004                    0230 SR        000000000000 DENSO TEN (THAILAND)180LNGL0207207                                                                                                                              *          20180920 IMCT                IMCT                                                                                                                    WMF1809203.TXT
MDDDJ9264771201809                D89828070100PV1D20180925000060SPEAKER ASM                   M IMCTM S5MB11 TNTH  09020IMCT  S5 PTB  00004                    0400 SR        000000000000 DENSO TEN (THAILAND)180LXEL0095095                                                                                                                              *          20180920 IMCT                IMCT                                                                                                                    WMF1809203.TXT
MDDDJ9264772201809                D89828070100PV1D20180925000060SPEAKER ASM                   M IMCTM S5MB11 TNTH  09020IMCT  S5 PTB  00004                    1300 SR        000000000000 DENSO TEN (THAILAND)180LRAL0256256                                                                                                                              *          20180920 IMCT                IMCT                                                                                                                    WMF1809203.TXT
MDDDJ9264773201809                D89828070100PV1D20180925000120SPEAKER ASM                   M IMCTM S5MB11 TNTH  09020IMCT  S5 PTB  00004                    1600 SR        000000000000 DENSO TEN (THAILAND)180LNGL0208209                                                                                                                              *          20180920 IMCT                IMCT                                                                                                                    WMF1809203.TXT
MDDDJ9264774201809                D89828070100PV1D20180925000060SPEAKER ASM                   M IMCTM S5MB11 TNTH  09020IMCT  S5 PTB  00004                    2100 SR        000000000000 DENSO TEN (THAILAND)180LXCL0090090                                                                                                                              *          20180920 IMCT                IMCT                                                                                                                    WMF1809203.TXT
MDDDJ9264775201809                D89828070100PV4D20180925000060SPEAKER ASM                   M IMCTM S0FL05 TNTH  09020IMCT  S0 PTB  00004                    1300 SR        000000000000 DENSO TEN (THAILAND)180LRAU0013013                                                                                                                              *          20180920 IMCT                IMCT                                                                                                                    WMF1809203.TXT
MDDUJ9232030201809                D89828070100PT4U20180925000030SPEAKER ASM                   M IMCTM S0FL05 TNTH  09020IMCT  S0 PTB  00004                    1030 SR        000000000000 DENSO TEN (THAILAND)180LUSU0175175                                                                                                                              *          20180920 IMCT                IMCT                                                                                                                    WMF1809203.TXT
MDDUJ9232031201809                D89828070100PT4U20180925000030SPEAKER ASM                   M IMCTM S0FL05 TNTH  09020IMCT  S0 PTB  00004                    2230 SR        000000000000 DENSO TEN (THAILAND)180LUTU0123123                                                                                                                              *          20180920 IMCT                IMCT                                                                                                                    WMF1809203.TXT
MDDUJ9232032201809                D89828070200PV4U20180925000030SPEAKER ASM                   M IMCTM S0FR05 TNTH  09020IMCT  S0 PTB  00005                    1030 SR        000000000000 DENSO TEN (THAILAND)180LUSU0175175                                                                                                                              *          20180920 IMCT                IMCT                                                                                                                    WMF1809203.TXT
MDDUJ9232033201809                D89828070200PV4U20180925000030SPEAKER ASM                   M IMCTM S0FR05 TNTH  09020IMCT  S0 PTB  00005                    2230 SR        000000000000 DENSO TEN (THAILAND)180LUTU0123123                                                                                                                              *          20180920 IMCT                IMCT                                                                                                                    WMF1809203.TXT
MDDUJ9232034201809                D89828070300PT4U20180925000030SPEAKER ASM                   M IMCTM S9TS02 TNTH  09020IMCT  S9 PTB  00015                    1030 SR        000000000000 DENSO TEN (THAILAND)180LUSU0175175                                                                                                                              *          20180920 IMCT                IMCT                                                                                                                    WMF1809203.TXT
MDDUJ9232035201809                D89828070300PT4U20180925000030SPEAKER ASM                   M IMCTM S9TS02 TNTH  09020IMCT  S9 PTB  00015                    2230 SR        000000000000 DENSO TEN (THAILAND)180LUTU0123123                                                                                                                              *          20180920 IMCT                IMCT                                                                                                                    WMF1809203.TXT
MDEDJ9300714201809                D89828070100PV1D20180924000060SPEAKER ASM                   M IMCTM S5MB11 TNTH  09020IMCT  S5 PTB  00004                    2230 SR        000000000000 DENSO TEN (THAILAND)17050RL0050051                                                                                                                              *          20180920 IMCT                IMCT                                                                                                                    WMF1809203.TXT
MDEDJ9300715201809                D89828070100PV1D20180925000030SPEAKER ASM                   M IMCTM S5MB11 TNTH  09020IMCT  S5 PTB  00004                    0230 SR        000000000000 DENSO TEN (THAILAND)18082XL0017017                                                                                                                              *          20180920 IMCT                IMCT                                                                                                                    WMF1809203.TXT
MDEDJ9300716201809                D89828070100PV1D20180925000030SPEAKER ASM                   M IMCTM S5MB11 TNTH  09020IMCT  S5 PTB  00004                    0400 SR        000000000000 DENSO TEN (THAILAND)18082XL0018018                                                                                                                              *          20180920 IMCT                IMCT                                                                                                                    WMF1809203.TXT
MDEDJ9300717201809                D89828070100PV1D20180925000090SPEAKER ASM                   M IMCTM S5MB11 TNTH  09020IMCT  S5 PTB  00004                    0830 SR        000000000000 DENSO TEN (THAILAND)18029XL001301418068UL0018018                                                                                                                *          20180920 IMCT                IMCT                                                                                                                    WMF1809203.TXT
MDEDJ9300718201809                D89828070100PV1D20180925000060SPEAKER ASM                   M IMCTM S5MB11 TNTH  09020IMCT  S5 PTB  00004                    1030 SR        000000000000 DENSO TEN (THAILAND)18001YL002002018063UL0032032                                                                                                                *          20180920 IMCT                IMCT                                                                                                                    WMF1809203.TXT
MDEDJ9300719201809                D89828070100PV1D20180925000060SPEAKER ASM                   M IMCTM S5MB11 TNTH  09020IMCT  S5 PTB  00004                    1300 SR        000000000000 DENSO TEN (THAILAND)18074XL001201218098UL0068068                                                                                                                *          20180920 IMCT                IMCT                                                                                                                    WMF1809203.TXT
MDEDJ9300720201809                D89828070100PV1D20180925000060SPEAKER ASM                   M IMCTM S5MB11 TNTH  09020IMCT  S5 PTB  00004                    1600 SR        000000000000 DENSO TEN (THAILAND)18055XL000300318099WL0004004                                                                                                                *          20180920 IMCT                IMCT                                                                                                                    WMF1809203.TXT
MDEDJ9300721201809                D89828070100PV1D20180925000030SPEAKER ASM                   M IMCTM S5MB11 TNTH  09020IMCT  S5 PTB  00004                    2100 SR        000000000000 DENSO TEN (THAILAND)18055XL0004004                                                                                                                              *          20180920 IMCT                IMCT                                                                                                                    WMF1809203.TXT
MDEDJ9300722201809                D89828070100PV4D20180924000030SPEAKER ASM                   M IMCTM S0FL05 TNTH  09020IMCT  S0 PTB  00004                    2230 SR        000000000000 DENSO TEN (THAILAND)18099UU0046046                                                                                                                              *          20180920 IMCT                IMCT                                                                                                                    WMF1809203.TXT
MDEDJ9300723201809                D89828070100PV4D20180925000030SPEAKER ASM                   M IMCTM S0FL05 TNTH  09020IMCT  S0 PTB  00004                    0400 SR        000000000000 DENSO TEN (THAILAND)18099UU0047047                                                                                                                              *          20180920 IMCT                IMCT                                                                                                                    WMF1809203.TXT
MDEDJ9300724201809                D89828070200PV1D20180924000060SPEAKER ASM                   M IMCTM S5MA14 TNTH  09020IMCT  S5 PTB  00005                    2230 SR        000000000000 DENSO TEN (THAILAND)17050RL0050051                                                                                                                              *          20180920 IMCT                IMCT                                                                                                                    WMF1809203.TXT
MDEDJ9300725201809                D89828070200PV1D20180925000030SPEAKER ASM                   M IMCTM S5MA14 TNTH  09020IMCT  S5 PTB  00005                    0830 SR        000000000000 DENSO TEN (THAILAND)18068UL0018018                                                                                                                              *          20180920 IMCT                IMCT                                                                                                                    WMF1809203.TXT
MDEDJ9300726201809                D89828070200PV1D20180925000030SPEAKER ASM                   M IMCTM S5MA14 TNTH  09020IMCT  S5 PTB  00005                    1030 SR        000000000000 DENSO TEN (THAILAND)18001YL0020020                                                                                                                              *          20180920 IMCT                IMCT                                                                                                                    WMF1809203.TXT
MDEDJ9300727201809                D89828070200PV1D20180925000030SPEAKER ASM                   M IMCTM S5MA14 TNTH  09020IMCT  S5 PTB  00005                    1300 SR        000000000000 DENSO TEN (THAILAND)18098UL0068068                                                                                                                              *          20180920 IMCT                IMCT                                                                                                                    WMF1809203.TXT
MDEDJ9300728201809                D89828070200PV1D20180925000030SPEAKER ASM                   M IMCTM S5MA14 TNTH  09020IMCT  S5 PTB  00005                    1600 SR        000000000000 DENSO TEN (THAILAND)18055XL0003003                                                                                                                              *          20180920 IMCT                IMCT                                                                                                                    WMF1809203.TXT
MDEDJ9300729201809                D89828070200PV1D20180925000030SPEAKER ASM                   M IMCTM S5MA14 TNTH  09020IMCT  S5 PTB  00005                    2100 SR        000000000000 DENSO TEN (THAILAND)18055XL0004004                                                                                                                              *          20180920 IMCT                IMCT                                                                                                                    WMF1809203.TXT
MDEDJ9300730201809                D89828070200PV4D20180924000030SPEAKER ASM                   M IMCTM S0FR05 TNTH  09020IMCT  S0 PTB  00005                    2230 SR        000000000000 DENSO TEN (THAILAND)18099UU0046046                                                                                                                              *          20180920 IMCT                IMCT                                                                                                                    WMF1809203.TXT
MDEDJ9300731201809                D89828070200PV4D20180925000030SPEAKER ASM                   M IMCTM S0FR05 TNTH  09020IMCT  S0 PTB  00005                    0400 SR        000000000000 DENSO TEN (THAILAND)18099UU0047047                                                                                                                              *          20180920 IMCT                IMCT                                                                                                                    WMF1809203.TXT
MDEDJ9300732201809                D89828070300PT1D20180924000060SPEAKER ASM                   M IMCTM S5NB082TNTH  09020IMCT  S5 PTB  00015                    2230 SR        000000000000 DENSO TEN (THAILAND)17050RL0050051                                                                                                                              *          20180920 IMCT                IMCT                                                                                                                    WMF1809203.TXT
MDEDJ9300733201809                D89828070300PT1D20180925000090SPEAKER ASM                   M IMCTM S5NB082TNTH  09020IMCT  S5 PTB  00015                    0830 SR        000000000000 DENSO TEN (THAILAND)18029XL001301418068UL0018018                                                                                                                *          20180920 IMCT                IMCT                                                                                                                    WMF1809203.TXT
MDEDJ9300734201809                D89828070300PT1D20180925000060SPEAKER ASM                   M IMCTM S5NB082TNTH  09020IMCT  S5 PTB  00015                    1030 SR        000000000000 DENSO TEN (THAILAND)18001YL002002018063UL0032032                                                                                                                *          20180920 IMCT                IMCT                                                                                                                    WMF1809203.TXT
MDEDJ9300735201809                D89828070300PT1D20180925000030SPEAKER ASM                   M IMCTM S5NB082TNTH  09020IMCT  S5 PTB  00015                    1300 SR        000000000000 DENSO TEN (THAILAND)18098UL0068068                                                                                                                              *          20180920 IMCT                IMCT                                                                                                                    WMF1809203.TXT
MDEDJ9300736201809                D89828070300PT1D20180925000030SPEAKER ASM                   M IMCTM S5NB082TNTH  09020IMCT  S5 PTB  00015                    1600 SR        000000000000 DENSO TEN (THAILAND)18055XL0003003                                                                                                                              *          20180920 IMCT                IMCT                                                                                                                    WMF1809203.TXT
MDEDJ9300737201809                D89828070300PT1D20180925000030SPEAKER ASM                   M IMCTM S5NB082TNTH  09020IMCT  S5 PTB  00015                    2100 SR        000000000000 DENSO TEN (THAILAND)18055XL0004004                                                                                                                              *          20180920 IMCT                IMCT                                                                                                                    WMF1809203.TXT
MDEDJ9300738201809                D89828070300PT4D20180924000030SPEAKER ASM                   M IMCTM S9TS02 TNTH  09020IMCT  S9 PTB  00015                    2230 SR        000000000000 DENSO TEN (THAILAND)18099UU0046046                                                                                                                              *          20180920 IMCT                IMCT                                                                                                                    WMF1809203.TXT
MDEDJ9300739201809                D89828070300PT4D20180925000030SPEAKER ASM                   M IMCTM S9TS02 TNTH  09020IMCT  S9 PTB  00015                    0400 SR        000000000000 DENSO TEN (THAILAND)18099UU0047047                                                                                                                              *          20180920 IMCT                IMCT                                                                                                                    WMF1809203.TXT
MDEDJ9300740201809                D89829645420PT1D20180924000030RADIO;ASM DVD                 M IMCTM S55000 TNTH  09020IMCT  S5 PTB  00003                    2230 SR        000000000000 DENSO TEN (THAILAND)17050RL0050051                                                                                                                              *          20180920 IMCT                IMCT                                                                                                                    WMF1809203.TXT
MDEDJ9300741201809                D89848581800PT1D20180925000015RADIO;AM/FM CD D              M IMCTM S5NC06 TNTH  09020IMCT  S5 PTB  00003                    1030 SR        000000000000 DENSO TEN (THAILAND)18063UL0032032                                                                                                                              *          20180920 IMCT                IMCT                                                                                                                    WMF1809203.TXT
MDEDJ9300742201809                D89848581800PT1D20180925000015RADIO;AM/FM CD D              M IMCTM S5NC06 TNTH  09020IMCT  S5 PTB  00003                    1300 SR        000000000000 DENSO TEN (THAILAND)18098UL0068068                                                                                                                              *          20180920 IMCT                IMCT                                                                                                                    WMF1809203.TXT
MDEDJ9300743201809                D89848582100PT1D20180925000015RADIO;AM/FM CD D              M IMCTM S5NC06 TNTH  09020IMCT  S5 PTB  00003                    1600 SR        000000000000 DENSO TEN (THAILAND)18055XL0003003                                                                                                                              *          20180920 IMCT                IMCT                                                                                                                    WMF1809203.TXT
MDEDJ9300744201809                D89848582100PT1D20180925000015RADIO;AM/FM CD D              M IMCTM S5NC06 TNTH  09020IMCT  S5 PTB  00003                    2100 SR        000000000000 DENSO TEN (THAILAND)18055XL0004004                                                                                                                              *          20180920 IMCT                IMCT                                                                                                                    WMF1809203.TXT
MDEUJ9245190201809                D89828070100PT4U20180925000030SPEAKER ASM                   M IMCTM S0FL05 TNTH  09020IMCT  S0 PTB  00004                    0230 SR        000000000000 DENSO TEN (THAILAND)180D06U0015015                                                                                                                              *          20180920 IMCT                IMCT                                                                                                                    WMF1809203.TXT
MDEUJ9245191201809                D89828070100PT4U20180925000030SPEAKER ASM                   M IMCTM S0FL05 TNTH  09020IMCT  S0 PTB  00004                    0400 SR        000000000000 DENSO TEN (THAILAND)18014UU0023023                                                                                                                              *          20180920 IMCT                IMCT                                                                                                                    WMF1809203.TXT
MDEUJ9245192201809                D89828070100PT4U20180925000030SPEAKER ASM                   M IMCTM S0FL05 TNTH  09020IMCT  S0 PTB  00004                    1030 SR        000000000000 DENSO TEN (THAILAND)18021UU0188188                                                                                                                              *          20180920 IMCT                IMCT                                                                                                                    WMF1809203.TXT
MDEUJ9245193201809                D89828070100PT4U20180925000090SPEAKER ASM                   M IMCTM S0FL05 TNTH  09020IMCT  S0 PTB  00004                    1600 SR        000000000000 DENSO TEN (THAILAND)18015UU004404418020UU012312318021UU0189189                                                                                                  *          20180920 IMCT                IMCT                                                                                                                    WMF1809203.TXT
MDEUJ9245194201809                D89828070200PV4U20180925000030SPEAKER ASM                   M IMCTM S0FR05 TNTH  09020IMCT  S0 PTB  00005                    0230 SR        000000000000 DENSO TEN (THAILAND)180D06U0015015                                                                                                                              *          20180920 IMCT                IMCT                                                                                                                    WMF1809203.TXT
MDEUJ9245195201809                D89828070200PV4U20180925000030SPEAKER ASM                   M IMCTM S0FR05 TNTH  09020IMCT  S0 PTB  00005                    0400 SR        000000000000 DENSO TEN (THAILAND)18014UU0023023                                                                                                                              *          20180920 IMCT                IMCT                                                                                                                    WMF1809203.TXT
MDEUJ9245196201809                D89828070200PV4U20180925000030SPEAKER ASM                   M IMCTM S0FR05 TNTH  09020IMCT  S0 PTB  00005                    1030 SR        000000000000 DENSO TEN (THAILAND)18021UU0188188                                                                                                                              *          20180920 IMCT                IMCT                                                                                                                    WMF1809203.TXT
MDEUJ9245197201809                D89828070200PV4U20180925000090SPEAKER ASM                   M IMCTM S0FR05 TNTH  09020IMCT  S0 PTB  00005                    1600 SR        000000000000 DENSO TEN (THAILAND)18015UU004404418020UU012312318021UU0189189                                                                                                  *          20180920 IMCT                IMCT                                                                                                                    WMF1809203.TXT
MDEUJ9245198201809                D89828070300PT4U20180925000030SPEAKER ASM                   M IMCTM S9TS02 TNTH  09020IMCT  S9 PTB  00015                    0230 SR        000000000000 DENSO TEN (THAILAND)180D06U0015015                                                                                                                              *          20180920 IMCT                IMCT                                                                                                                    WMF1809203.TXT
MDEUJ9245199201809                D89828070300PT4U20180925000030SPEAKER ASM                   M IMCTM S9TS02 TNTH  09020IMCT  S9 PTB  00015                    0400 SR        000000000000 DENSO TEN (THAILAND)18014UU0023023                                                                                                                              *          20180920 IMCT                IMCT                                                                                                                    WMF1809203.TXT
MDEUJ9245200201809                D89828070300PT4U20180925000030SPEAKER ASM                   M IMCTM S9TS02 TNTH  09020IMCT  S9 PTB  00015                    1030 SR        000000000000 DENSO TEN (THAILAND)18021UU0188188                                                                                                                              *          20180920 IMCT                IMCT                                                                                                                    WMF1809203.TXT
MDEUJ9245201201809                D89828070300PT4U20180925000090SPEAKER ASM                   M IMCTM S9TS02 TNTH  09020IMCT  S9 PTB  00015                    1600 SR        000000000000 DENSO TEN (THAILAND)18015UU004404418020UU012312318021UU0189189                                                                                                  *          20180920 IMCT                IMCT                                                                                                                    WMF1809203.TXT
MDEUJ9245202201809                D89848584700PT4U20180925000015RADIO;AM/FM CD D              M IMCTM S9CO001TNTH  09020IMCT  S9 PTB  00003                    0400 SR        000000000000 DENSO TEN (THAILAND)18014UU0023023                                                                                                                              *          20180920 IMCT                IMCT                                                                                                                    WMF1809203.TXT
