REC2018092220180922ISUZU                              69     
MDDDJ9273971201809                D89821984430PT1D20180926000030RADIO;AM/FM,CD                M IMCTM S5NC06 TNTH  09020IMCT  S5 PTB  00005                    2230 SR        000000000000 DENSO TEN (THAILAND)180LXEL0097097                                                                                                                              *          20180922 IMCT                IMCT                                                                                                                    WMF1809225.TXT
MDDDJ9273972201809                D89821984430PT1D20180927000030RADIO;AM/FM,CD                M IMCTM S5NC06 TNTH  09020IMCT  S5 PTB  00005                    0400 SR        000000000000 DENSO TEN (THAILAND)180LXCL0091091                                                                                                                              *          20180922 IMCT                IMCT                                                                                                                    WMF1809225.TXT
MDDDJ9273973201809                D89821984430PT1D20180927000030RADIO;AM/FM,CD                M IMCTM S5NC06 TNTH  09020IMCT  S5 PTB  00005                    1030 SR        000000000000 DENSO TEN (THAILAND)180LRAL0258258                                                                                                                              *          20180922 IMCT                IMCT                                                                                                                    WMF1809225.TXT
MDDDJ9273974201809                D89821984430PT1D20180927000030RADIO;AM/FM,CD                M IMCTM S5NC06 TNTH  09020IMCT  S5 PTB  00005                    1300 SR        000000000000 DENSO TEN (THAILAND)180LRBL0061061                                                                                                                              *          20180922 IMCT                IMCT                                                                                                                    WMF1809225.TXT
MDDDJ9273975201809                D89821984430PT1D20180927000030RADIO;AM/FM,CD                M IMCTM S5NC06 TNTH  09020IMCT  S5 PTB  00005                    1600 SR        000000000000 DENSO TEN (THAILAND)180LXEL0098098                                                                                                                              *          20180922 IMCT                IMCT                                                                                                                    WMF1809225.TXT
MDDDJ9273976201809                D89821984430PT1D20180927000030RADIO;AM/FM,CD                M IMCTM S5NC06 TNTH  09020IMCT  S5 PTB  00005                    2100 SR        000000000000 DENSO TEN (THAILAND)180LNGL0211211                                                                                                                              *          20180922 IMCT                IMCT                                                                                                                    WMF1809225.TXT
MDDDJ9273977201809                D89821984430PT4D20180927000030RADIO;AM/FM,CD                M IMCTM S9CO001TNTH  09020IMCT  S9 PTB  00005                    1600 SR        000000000000 DENSO TEN (THAILAND)180LNGU0023023                                                                                                                              *          20180922 IMCT                IMCT                                                                                                                    WMF1809225.TXT
MDDDJ9273978201809                D89828070100PV1D20180926000060SPEAKER ASM                   M IMCTM S5MB11 TNTH  09020IMCT  S5 PTB  00004                    2230 SR        000000000000 DENSO TEN (THAILAND)180LXEL0097097                                                                                                                              *          20180922 IMCT                IMCT                                                                                                                    WMF1809225.TXT
MDDDJ9273979201809                D89828070100PV1D20180927000060SPEAKER ASM                   M IMCTM S5MB11 TNTH  09020IMCT  S5 PTB  00004                    0400 SR        000000000000 DENSO TEN (THAILAND)180LXCL0091091                                                                                                                              *          20180922 IMCT                IMCT                                                                                                                    WMF1809225.TXT
MDDDJ9273980201809                D89828070100PV1D20180927000060SPEAKER ASM                   M IMCTM S5MB11 TNTH  09020IMCT  S5 PTB  00004                    1030 SR        000000000000 DENSO TEN (THAILAND)180LRAL0258258                                                                                                                              *          20180922 IMCT                IMCT                                                                                                                    WMF1809225.TXT
MDDDJ9273981201809                D89828070100PV1D20180927000060SPEAKER ASM                   M IMCTM S5MB11 TNTH  09020IMCT  S5 PTB  00004                    1300 SR        000000000000 DENSO TEN (THAILAND)180LRBL0061061                                                                                                                              *          20180922 IMCT                IMCT                                                                                                                    WMF1809225.TXT
MDDDJ9273982201809                D89828070100PV1D20180927000120SPEAKER ASM                   M IMCTM S5MB11 TNTH  09020IMCT  S5 PTB  00004                    1600 SR        000000000000 DENSO TEN (THAILAND)180LXBL0022022180LXEL0098098                                                                                                                *          20180922 IMCT                IMCT                                                                                                                    WMF1809225.TXT
MDDDJ9273983201809                D89828070100PV1D20180927000060SPEAKER ASM                   M IMCTM S5MB11 TNTH  09020IMCT  S5 PTB  00004                    2100 SR        000000000000 DENSO TEN (THAILAND)180LNGL0211211                                                                                                                              *          20180922 IMCT                IMCT                                                                                                                    WMF1809225.TXT
MDDDJ9273984201809                D89828070100PV4D20180927000060SPEAKER ASM                   M IMCTM S0FL05 TNTH  09020IMCT  S0 PTB  00004                    1600 SR        000000000000 DENSO TEN (THAILAND)180LNGU0023023                                                                                                                              *          20180922 IMCT                IMCT                                                                                                                    WMF1809225.TXT
MDDUJ9236343201809                D89828070100PT4U20180927000030SPEAKER ASM                   M IMCTM S0FL05 TNTH  09020IMCT  S0 PTB  00004                    1030 SR        000000000000 DENSO TEN (THAILAND)180LUSU0178178                                                                                                                              *          20180922 IMCT                IMCT                                                                                                                    WMF1809225.TXT
MDDUJ9236344201809                D89828070100PT4U20180927000030SPEAKER ASM                   M IMCTM S0FL05 TNTH  09020IMCT  S0 PTB  00004                    1300 SR        000000000000 DENSO TEN (THAILAND)180LUTU0124124                                                                                                                              *          20180922 IMCT                IMCT                                                                                                                    WMF1809225.TXT
MDDUJ9236345201809                D89828070200PV4U20180927000030SPEAKER ASM                   M IMCTM S0FR05 TNTH  09020IMCT  S0 PTB  00005                    1030 SR        000000000000 DENSO TEN (THAILAND)180LUSU0178178                                                                                                                              *          20180922 IMCT                IMCT                                                                                                                    WMF1809225.TXT
MDDUJ9236346201809                D89828070200PV4U20180927000030SPEAKER ASM                   M IMCTM S0FR05 TNTH  09020IMCT  S0 PTB  00005                    1300 SR        000000000000 DENSO TEN (THAILAND)180LUTU0124124                                                                                                                              *          20180922 IMCT                IMCT                                                                                                                    WMF1809225.TXT
MDDUJ9236347201809                D89828070300PT4U20180927000030SPEAKER ASM                   M IMCTM S9TS02 TNTH  09020IMCT  S9 PTB  00015                    1030 SR        000000000000 DENSO TEN (THAILAND)180LUSU0178178                                                                                                                              *          20180922 IMCT                IMCT                                                                                                                    WMF1809225.TXT
MDDUJ9236348201809                D89828070300PT4U20180927000030SPEAKER ASM                   M IMCTM S9TS02 TNTH  09020IMCT  S9 PTB  00015                    1300 SR        000000000000 DENSO TEN (THAILAND)180LUTU0124124                                                                                                                              *          20180922 IMCT                IMCT                                                                                                                    WMF1809225.TXT
MDEDJ9318655201809                D89805293700PV1D20180927000030SPEAKER ASM                   M IMCTM S5MB14 TNTH  09020IMCT  S5 PTB  00003                    1600 SR        000000000000 DENSO TEN (THAILAND)15021DL0018018                                                                                                                              *          20180922 IMCT                IMCT                                                                                                                    WMF1809225.TXT
MDEDJ9318656201809                D89828070100PV1D20180926000030SPEAKER ASM                   M IMCTM S5MB11 TNTH  09020IMCT  S5 PTB  00004                    2230 SR        000000000000 DENSO TEN (THAILAND)17032QL0025025                                                                                                                              *          20180922 IMCT                IMCT                                                                                                                    WMF1809225.TXT
MDEDJ9318657201809                D89828070100PV1D20180927000090SPEAKER ASM                   M IMCTM S5MB11 TNTH  09020IMCT  S5 PTB  00004                    0230 SR        000000000000 DENSO TEN (THAILAND)17032QL002602618061UL0029030                                                                                                                *          20180922 IMCT                IMCT                                                                                                                    WMF1809225.TXT
MDEDJ9318658201809                D89828070100PV1D20180927000060SPEAKER ASM                   M IMCTM S5MB11 TNTH  09020IMCT  S5 PTB  00004                    0400 SR        000000000000 DENSO TEN (THAILAND)18083XL0005006                                                                                                                              *          20180922 IMCT                IMCT                                                                                                                    WMF1809225.TXT
MDEDJ9318659201809                D89828070100PV1D20180927000060SPEAKER ASM                   M IMCTM S5MB11 TNTH  09020IMCT  S5 PTB  00004                    0830 SR        000000000000 DENSO TEN (THAILAND)18008YL0028029                                                                                                                              *          20180922 IMCT                IMCT                                                                                                                    WMF1809225.TXT
MDEDJ9318660201809                D89828070100PV1D20180927000060SPEAKER ASM                   M IMCTM S5MB11 TNTH  09020IMCT  S5 PTB  00004                    1300 SR        000000000000 DENSO TEN (THAILAND)18074XL0015016                                                                                                                              *          20180922 IMCT                IMCT                                                                                                                    WMF1809225.TXT
MDEDJ9318661201809                D89828070100PV1D20180927000060SPEAKER ASM                   M IMCTM S5MB11 TNTH  09020IMCT  S5 PTB  00004                    1600 SR        000000000000 DENSO TEN (THAILAND)18098UL0071072                                                                                                                              *          20180922 IMCT                IMCT                                                                                                                    WMF1809225.TXT
MDEDJ9318662201809                D89828070100PV1D20180927000030SPEAKER ASM                   M IMCTM S5MB11 TNTH  09020IMCT  S5 PTB  00004                    2100 SR        000000000000 DENSO TEN (THAILAND)18005XL0013013                                                                                                                              *          20180922 IMCT                IMCT                                                                                                                    WMF1809225.TXT
MDEDJ9318663201809                D89828070100PV4D20180926000030SPEAKER ASM                   M IMCTM S0FL05 TNTH  09020IMCT  S0 PTB  00004                    2230 SR        000000000000 DENSO TEN (THAILAND)18099UU0049049                                                                                                                              *          20180922 IMCT                IMCT                                                                                                                    WMF1809225.TXT
MDEDJ9318664201809                D89828070100PV4D20180927000030SPEAKER ASM                   M IMCTM S0FL05 TNTH  09020IMCT  S0 PTB  00004                    0400 SR        000000000000 DENSO TEN (THAILAND)18098UU0050050                                                                                                                              *          20180922 IMCT                IMCT                                                                                                                    WMF1809225.TXT
MDEDJ9318665201809                D89828070100PV4D20180927000030SPEAKER ASM                   M IMCTM S0FL05 TNTH  09020IMCT  S0 PTB  00004                    1300 SR        000000000000 DENSO TEN (THAILAND)18099UU0050050                                                                                                                              *          20180922 IMCT                IMCT                                                                                                                    WMF1809225.TXT
MDEDJ9318666201809                D89828070200PV1D20180926000030SPEAKER ASM                   M IMCTM S5MA14 TNTH  09020IMCT  S5 PTB  00005                    2230 SR        000000000000 DENSO TEN (THAILAND)17032QL0025025                                                                                                                              *          20180922 IMCT                IMCT                                                                                                                    WMF1809225.TXT
MDEDJ9318667201809                D89828070200PV1D20180927000030SPEAKER ASM                   M IMCTM S5MA14 TNTH  09020IMCT  S5 PTB  00005                    0230 SR        000000000000 DENSO TEN (THAILAND)17032QL0026026                                                                                                                              *          20180922 IMCT                IMCT                                                                                                                    WMF1809225.TXT
MDEDJ9318668201809                D89828070200PV1D20180927000060SPEAKER ASM                   M IMCTM S5MA14 TNTH  09020IMCT  S5 PTB  00005                    0400 SR        000000000000 DENSO TEN (THAILAND)18083XL0005006                                                                                                                              *          20180922 IMCT                IMCT                                                                                                                    WMF1809225.TXT
MDEDJ9318669201809                D89828070200PV1D20180927000060SPEAKER ASM                   M IMCTM S5MA14 TNTH  09020IMCT  S5 PTB  00005                    0830 SR        000000000000 DENSO TEN (THAILAND)18008YL0028029                                                                                                                              *          20180922 IMCT                IMCT                                                                                                                    WMF1809225.TXT
MDEDJ9318670201809                D89828070200PV1D20180927000060SPEAKER ASM                   M IMCTM S5MA14 TNTH  09020IMCT  S5 PTB  00005                    1600 SR        000000000000 DENSO TEN (THAILAND)18098UL0071072                                                                                                                              *          20180922 IMCT                IMCT                                                                                                                    WMF1809225.TXT
MDEDJ9318671201809                D89828070200PV4D20180926000030SPEAKER ASM                   M IMCTM S0FR05 TNTH  09020IMCT  S0 PTB  00005                    2230 SR        000000000000 DENSO TEN (THAILAND)18099UU0049049                                                                                                                              *          20180922 IMCT                IMCT                                                                                                                    WMF1809225.TXT
MDEDJ9318672201809                D89828070200PV4D20180927000030SPEAKER ASM                   M IMCTM S0FR05 TNTH  09020IMCT  S0 PTB  00005                    0400 SR        000000000000 DENSO TEN (THAILAND)18098UU0050050                                                                                                                              *          20180922 IMCT                IMCT                                                                                                                    WMF1809225.TXT
MDEDJ9318673201809                D89828070200PV4D20180927000030SPEAKER ASM                   M IMCTM S0FR05 TNTH  09020IMCT  S0 PTB  00005                    1300 SR        000000000000 DENSO TEN (THAILAND)18099UU0050050                                                                                                                              *          20180922 IMCT                IMCT                                                                                                                    WMF1809225.TXT
MDEDJ9318674201809                D89828070300PT1D20180926000030SPEAKER ASM                   M IMCTM S5NB082TNTH  09020IMCT  S5 PTB  00015                    2230 SR        000000000000 DENSO TEN (THAILAND)17032QL0025025                                                                                                                              *          20180922 IMCT                IMCT                                                                                                                    WMF1809225.TXT
MDEDJ9318675201809                D89828070300PT1D20180927000090SPEAKER ASM                   M IMCTM S5NB082TNTH  09020IMCT  S5 PTB  00015                    0230 SR        000000000000 DENSO TEN (THAILAND)17032QL002602618061UL0029030                                                                                                                *          20180922 IMCT                IMCT                                                                                                                    WMF1809225.TXT
MDEDJ9318676201809                D89828070300PT1D20180927000060SPEAKER ASM                   M IMCTM S5NB082TNTH  09020IMCT  S5 PTB  00015                    0400 SR        000000000000 DENSO TEN (THAILAND)18083XL0005006                                                                                                                              *          20180922 IMCT                IMCT                                                                                                                    WMF1809225.TXT
MDEDJ9318677201809                D89828070300PT1D20180927000060SPEAKER ASM                   M IMCTM S5NB082TNTH  09020IMCT  S5 PTB  00015                    0830 SR        000000000000 DENSO TEN (THAILAND)18008YL0028029                                                                                                                              *          20180922 IMCT                IMCT                                                                                                                    WMF1809225.TXT
MDEDJ9318678201809                D89828070300PT1D20180927000060SPEAKER ASM                   M IMCTM S5NB082TNTH  09020IMCT  S5 PTB  00015                    1600 SR        000000000000 DENSO TEN (THAILAND)18098UL0071072                                                                                                                              *          20180922 IMCT                IMCT                                                                                                                    WMF1809225.TXT
MDEDJ9318679201809                D89828070300PT1D20180927000030SPEAKER ASM                   M IMCTM S5NB082TNTH  09020IMCT  S5 PTB  00015                    2100 SR        000000000000 DENSO TEN (THAILAND)18005XL0013013                                                                                                                              *          20180922 IMCT                IMCT                                                                                                                    WMF1809225.TXT
MDEDJ9318680201809                D89828070300PT4D20180926000030SPEAKER ASM                   M IMCTM S9TS02 TNTH  09020IMCT  S9 PTB  00015                    2230 SR        000000000000 DENSO TEN (THAILAND)18099UU0049049                                                                                                                              *          20180922 IMCT                IMCT                                                                                                                    WMF1809225.TXT
MDEDJ9318681201809                D89828070300PT4D20180927000030SPEAKER ASM                   M IMCTM S9TS02 TNTH  09020IMCT  S9 PTB  00015                    0400 SR        000000000000 DENSO TEN (THAILAND)18098UU0050050                                                                                                                              *          20180922 IMCT                IMCT                                                                                                                    WMF1809225.TXT
MDEDJ9318682201809                D89828070300PT4D20180927000030SPEAKER ASM                   M IMCTM S9TS02 TNTH  09020IMCT  S9 PTB  00015                    1300 SR        000000000000 DENSO TEN (THAILAND)18099UU0050050                                                                                                                              *          20180922 IMCT                IMCT                                                                                                                    WMF1809225.TXT
MDEDJ9318683201809                D89831228800PT1D20180927000030RADIO;AM/FM,CD                M IMCTM S5NC06 TNTH  09020IMCT  S5 PTB  00003                    0400 SR        000000000000 DENSO TEN (THAILAND)18083XL0005006                                                                                                                              *          20180922 IMCT                IMCT                                                                                                                    WMF1809225.TXT
MDEDJ9318684201809                D89831229200PT1D20180926000015RADIO;AM/FM,CD                M IMCTM S5NC06 TNTH  09020IMCT  S5 PTB  00003                    2230 SR        000000000000 DENSO TEN (THAILAND)17032QL0025025                                                                                                                              *          20180922 IMCT                IMCT                                                                                                                    WMF1809225.TXT
MDEDJ9318685201809                D89831229200PT1D20180927000015RADIO;AM/FM,CD                M IMCTM S5NC06 TNTH  09020IMCT  S5 PTB  00003                    0230 SR        000000000000 DENSO TEN (THAILAND)17032QL0026026                                                                                                                              *          20180922 IMCT                IMCT                                                                                                                    WMF1809225.TXT
MDEDJ9318686201809                D89848581800PT1D20180927000030RADIO;AM/FM CD D              M IMCTM S5NC06 TNTH  09020IMCT  S5 PTB  00003                    0230 SR        000000000000 DENSO TEN (THAILAND)18061UL0029030                                                                                                                              *          20180922 IMCT                IMCT                                                                                                                    WMF1809225.TXT
MDEDJ9318687201809                D89848581800PT1D20180927000030RADIO;AM/FM CD D              M IMCTM S5NC06 TNTH  09020IMCT  S5 PTB  00003                    1600 SR        000000000000 DENSO TEN (THAILAND)18098UL0071072                                                                                                                              *          20180922 IMCT                IMCT                                                                                                                    WMF1809225.TXT
MDEDJ9318688201809                D89848581800PT4D20180927000015RADIO;AM/FM CD D              M IMCTM S9CO001TNTH  09020IMCT  S9 PTB  00003                    0400 SR        000000000000 DENSO TEN (THAILAND)18098UU0050050                                                                                                                              *          20180922 IMCT                IMCT                                                                                                                    WMF1809225.TXT
MDEUJ9252922201809                D89828070100PT4U20180927000030SPEAKER ASM                   M IMCTM S0FL05 TNTH  09020IMCT  S0 PTB  00004                    0230 SR        000000000000 DENSO TEN (THAILAND)18015UU0045045                                                                                                                              *          20180922 IMCT                IMCT                                                                                                                    WMF1809225.TXT
MDEUJ9252923201809                D89828070100PT4U20180927000030SPEAKER ASM                   M IMCTM S0FL05 TNTH  09020IMCT  S0 PTB  00004                    0400 SR        000000000000 DENSO TEN (THAILAND)18015UU0046046                                                                                                                              *          20180922 IMCT                IMCT                                                                                                                    WMF1809225.TXT
MDEUJ9252924201809                D89828070100PT4U20180927000030SPEAKER ASM                   M IMCTM S0FL05 TNTH  09020IMCT  S0 PTB  00004                    0830 SR        000000000000 DENSO TEN (THAILAND)18021UU0191191                                                                                                                              *          20180922 IMCT                IMCT                                                                                                                    WMF1809225.TXT
MDEUJ9252925201809                D89828070100PT4U20180927000030SPEAKER ASM                   M IMCTM S0FL05 TNTH  09020IMCT  S0 PTB  00004                    1300 SR        000000000000 DENSO TEN (THAILAND)18021UU0192192                                                                                                                              *          20180922 IMCT                IMCT                                                                                                                    WMF1809225.TXT
MDEUJ9252926201809                D89828070100PT4U20180927000030SPEAKER ASM                   M IMCTM S0FL05 TNTH  09020IMCT  S0 PTB  00004                    1600 SR        000000000000 DENSO TEN (THAILAND)18020UU0125125                                                                                                                              *          20180922 IMCT                IMCT                                                                                                                    WMF1809225.TXT
MDEUJ9252927201809                D89828070200PV4U20180927000030SPEAKER ASM                   M IMCTM S0FR05 TNTH  09020IMCT  S0 PTB  00005                    0230 SR        000000000000 DENSO TEN (THAILAND)18015UU0045045                                                                                                                              *          20180922 IMCT                IMCT                                                                                                                    WMF1809225.TXT
MDEUJ9252928201809                D89828070200PV4U20180927000030SPEAKER ASM                   M IMCTM S0FR05 TNTH  09020IMCT  S0 PTB  00005                    0400 SR        000000000000 DENSO TEN (THAILAND)18015UU0046046                                                                                                                              *          20180922 IMCT                IMCT                                                                                                                    WMF1809225.TXT
MDEUJ9252929201809                D89828070200PV4U20180927000030SPEAKER ASM                   M IMCTM S0FR05 TNTH  09020IMCT  S0 PTB  00005                    0830 SR        000000000000 DENSO TEN (THAILAND)18021UU0191191                                                                                                                              *          20180922 IMCT                IMCT                                                                                                                    WMF1809225.TXT
MDEUJ9252930201809                D89828070200PV4U20180927000030SPEAKER ASM                   M IMCTM S0FR05 TNTH  09020IMCT  S0 PTB  00005                    1300 SR        000000000000 DENSO TEN (THAILAND)18021UU0192192                                                                                                                              *          20180922 IMCT                IMCT                                                                                                                    WMF1809225.TXT
MDEUJ9252931201809                D89828070200PV4U20180927000030SPEAKER ASM                   M IMCTM S0FR05 TNTH  09020IMCT  S0 PTB  00005                    1600 SR        000000000000 DENSO TEN (THAILAND)18020UU0125125                                                                                                                              *          20180922 IMCT                IMCT                                                                                                                    WMF1809225.TXT
MDEUJ9252932201809                D89828070300PT4U20180927000030SPEAKER ASM                   M IMCTM S9TS02 TNTH  09020IMCT  S9 PTB  00015                    0230 SR        000000000000 DENSO TEN (THAILAND)18015UU0045045                                                                                                                              *          20180922 IMCT                IMCT                                                                                                                    WMF1809225.TXT
MDEUJ9252933201809                D89828070300PT4U20180927000030SPEAKER ASM                   M IMCTM S9TS02 TNTH  09020IMCT  S9 PTB  00015                    0400 SR        000000000000 DENSO TEN (THAILAND)18015UU0046046                                                                                                                              *          20180922 IMCT                IMCT                                                                                                                    WMF1809225.TXT
MDEUJ9252934201809                D89828070300PT4U20180927000030SPEAKER ASM                   M IMCTM S9TS02 TNTH  09020IMCT  S9 PTB  00015                    0830 SR        000000000000 DENSO TEN (THAILAND)18021UU0191191                                                                                                                              *          20180922 IMCT                IMCT                                                                                                                    WMF1809225.TXT
MDEUJ9252935201809                D89828070300PT4U20180927000030SPEAKER ASM                   M IMCTM S9TS02 TNTH  09020IMCT  S9 PTB  00015                    1300 SR        000000000000 DENSO TEN (THAILAND)18021UU0192192                                                                                                                              *          20180922 IMCT                IMCT                                                                                                                    WMF1809225.TXT
MDEUJ9252936201809                D89828070300PT4U20180927000030SPEAKER ASM                   M IMCTM S9TS02 TNTH  09020IMCT  S9 PTB  00015                    1600 SR        000000000000 DENSO TEN (THAILAND)18020UU0125125                                                                                                                              *          20180922 IMCT                IMCT                                                                                                                    WMF1809225.TXT
