REC2018092520180925ISUZU                              45     
MDDDJ9285299201810                D89821984430PT1D20181001000060RADIO;AM/FM,CD                M IMCTM S5NC06 TNTH  09020IMCT  S5 PTB  00005                    1300 SR        000000000000 DENSO TEN (THAILAND)190MYAL0002003                                                                                                                              *          20180925 IMCT                IMCT                                                                                                                    WMF1809254.TXT
MDDDJ9285300201810                D89821984430PT1D20181001000030RADIO;AM/FM,CD                M IMCTM S5NC06 TNTH  09020IMCT  S5 PTB  00005                    1600 SR        000000000000 DENSO TEN (THAILAND)190MNHL0001001                                                                                                                              *          20180925 IMCT                IMCT                                                                                                                    WMF1809254.TXT
MDDDJ9285301201810                D89821984430PT1D20181001000030RADIO;AM/FM,CD                M IMCTM S5NC06 TNTH  09020IMCT  S5 PTB  00005                    2100 SR        000000000000 DENSO TEN (THAILAND)190MYBL0001001                                                                                                                              *          20180925 IMCT                IMCT                                                                                                                    WMF1809254.TXT
MDDDJ9285302201810                D89828070100PV1D20180929000120SPEAKER ASM                   M IMCTM S5MB11 TNTH  09020IMCT  S5 PTB  00004                    0400 SR        000000000000 DENSO TEN (THAILAND)190MPGL0002002190MPKL0001001                                                                                                                *          20180925 IMCT                IMCT                                                                                                                    WMF1809254.TXT
MDDDJ9285303201810                D89828070100PV1D20181001000060SPEAKER ASM                   M IMCTM S5MB11 TNTH  09020IMCT  S5 PTB  00004                    1030 SR        000000000000 DENSO TEN (THAILAND)190MXAL0001001                                                                                                                              *          20180925 IMCT                IMCT                                                                                                                    WMF1809254.TXT
MDDDJ9285304201810                D89828070100PV1D20181001000120SPEAKER ASM                   M IMCTM S5MB11 TNTH  09020IMCT  S5 PTB  00004                    1300 SR        000000000000 DENSO TEN (THAILAND)190MYAL0002003                                                                                                                              *          20180925 IMCT                IMCT                                                                                                                    WMF1809254.TXT
MDDDJ9285305201810                D89828070100PV1D20181001000060SPEAKER ASM                   M IMCTM S5MB11 TNTH  09020IMCT  S5 PTB  00004                    1600 SR        000000000000 DENSO TEN (THAILAND)190MNHL0001001                                                                                                                              *          20180925 IMCT                IMCT                                                                                                                    WMF1809254.TXT
MDDDJ9285306201810                D89828070100PV1D20181001000060SPEAKER ASM                   M IMCTM S5MB11 TNTH  09020IMCT  S5 PTB  00004                    2100 SR        000000000000 DENSO TEN (THAILAND)190MYBL0001001                                                                                                                              *          20180925 IMCT                IMCT                                                                                                                    WMF1809254.TXT
MDDDJ9285307201810                D89828070100PV4D20180928000060SPEAKER ASM                   M IMCTM S0FL05 TNTH  09020IMCT  S0 PTB  00004                    2230 SR        000000000000 DENSO TEN (THAILAND)190MRMU0001001                                                                                                                              *          20180925 IMCT                IMCT                                                                                                                    WMF1809254.TXT
MDDDJ9285308201810                D89828070100PV4D20181001000060SPEAKER ASM                   M IMCTM S0FL05 TNTH  09020IMCT  S0 PTB  00004                    1030 SR        000000000000 DENSO TEN (THAILAND)190MRSU0002002                                                                                                                              *          20180925 IMCT                IMCT                                                                                                                    WMF1809254.TXT
MDDDJ9285309201810                D89828070100PV4D20181001000060SPEAKER ASM                   M IMCTM S0FL05 TNTH  09020IMCT  S0 PTB  00004                    1300 SR        000000000000 DENSO TEN (THAILAND)190MRWU0002002                                                                                                                              *          20180925 IMCT                IMCT                                                                                                                    WMF1809254.TXT
MDDDJ9285310201810                D89828070100PV4D20181001000060SPEAKER ASM                   M IMCTM S0FL05 TNTH  09020IMCT  S0 PTB  00004                    2230 SR        000000000000 DENSO TEN (THAILAND)190MRVU0001001                                                                                                                              *          20180925 IMCT                IMCT                                                                                                                    WMF1809254.TXT
MDDDJ9285311201810                D89828070200PV4D20180928000060SPEAKER ASM                   M IMCTM S0FR05 TNTH  09020IMCT  S0 PTB  00005                    2230 SR        000000000000 DENSO TEN (THAILAND)190MRMU0001001                                                                                                                              *          20180925 IMCT                IMCT                                                                                                                    WMF1809254.TXT
MDDDJ9285312201810                D89828070200PV4D20181001000060SPEAKER ASM                   M IMCTM S0FR05 TNTH  09020IMCT  S0 PTB  00005                    1030 SR        000000000000 DENSO TEN (THAILAND)190MRSU0002002                                                                                                                              *          20180925 IMCT                IMCT                                                                                                                    WMF1809254.TXT
MDDDJ9285313201810                D89828070200PV4D20181001000060SPEAKER ASM                   M IMCTM S0FR05 TNTH  09020IMCT  S0 PTB  00005                    1300 SR        000000000000 DENSO TEN (THAILAND)190MRWU0002002                                                                                                                              *          20180925 IMCT                IMCT                                                                                                                    WMF1809254.TXT
MDDDJ9285314201810                D89828070200PV4D20181001000060SPEAKER ASM                   M IMCTM S0FR05 TNTH  09020IMCT  S0 PTB  00005                    2230 SR        000000000000 DENSO TEN (THAILAND)190MRVU0001001                                                                                                                              *          20180925 IMCT                IMCT                                                                                                                    WMF1809254.TXT
MDDDJ9285315201810                D89828070300PT1D20180929000120SPEAKER ASM                   M IMCTM S5NB082TNTH  09020IMCT  S5 PTB  00015                    0400 SR        000000000000 DENSO TEN (THAILAND)190MPGL0002002190MPKL0001001                                                                                                                *          20180925 IMCT                IMCT                                                                                                                    WMF1809254.TXT
MDDDJ9285316201810                D89828070300PT4D20180928000060SPEAKER ASM                   M IMCTM S9TS02 TNTH  09020IMCT  S9 PTB  00015                    2230 SR        000000000000 DENSO TEN (THAILAND)190MRMU0001001                                                                                                                              *          20180925 IMCT                IMCT                                                                                                                    WMF1809254.TXT
MDDDJ9285317201810                D89828070300PT4D20181001000060SPEAKER ASM                   M IMCTM S9TS02 TNTH  09020IMCT  S9 PTB  00015                    1030 SR        000000000000 DENSO TEN (THAILAND)190MRSU0002002                                                                                                                              *          20180925 IMCT                IMCT                                                                                                                    WMF1809254.TXT
MDDDJ9285318201810                D89828070300PT4D20181001000060SPEAKER ASM                   M IMCTM S9TS02 TNTH  09020IMCT  S9 PTB  00015                    1300 SR        000000000000 DENSO TEN (THAILAND)190MRWU0002002                                                                                                                              *          20180925 IMCT                IMCT                                                                                                                    WMF1809254.TXT
MDDDJ9285319201810                D89828070300PT4D20181001000060SPEAKER ASM                   M IMCTM S9TS02 TNTH  09020IMCT  S9 PTB  00015                    2230 SR        000000000000 DENSO TEN (THAILAND)190MRVU0001001                                                                                                                              *          20180925 IMCT                IMCT                                                                                                                    WMF1809254.TXT
MDDDJ9285320201810                D89831228300PT1D20180929000030RADIO;AM/FM,CD                M IMCTM S5NC06 TNTH  09020IMCT  S5 CPB  00003                    0400 SR        000000000000 DENSO TEN (THAILAND)190MPGL0002002                                                                                                                              *          20180925 IMCT                IMCT                                                                                                                    WMF1809254.TXT
MDDDJ9285321201810                D89848581600PT1D20180929000030RADIO;AM/FM CD D              M IMCTM S5NC06 TNTH  09020IMCT  S5 PTB  00003                    0400 SR        000000000000 DENSO TEN (THAILAND)190MPKL0001001                                                                                                                              *          20180925 IMCT                IMCT                                                                                                                    WMF1809254.TXT
MDDUJ9240101201810                D89828070100PT4U20180929000030SPEAKER ASM                   M IMCTM S0FL05 TNTH  09020IMCT  S0 PTB  00004                    0230 SR        000000000000 DENSO TEN (THAILAND)180LULU0064064                                                                                                                              *          20180925 IMCT                IMCT                                                                                                                    WMF1809254.TXT
MDDUJ9240102201810                D89828070100PT4U20181001000030SPEAKER ASM                   M IMCTM S0FL05 TNTH  09020IMCT  S0 PTB  00004                    0830 SR        000000000000 DENSO TEN (THAILAND)180LULU0065065                                                                                                                              *          20180925 IMCT                IMCT                                                                                                                    WMF1809254.TXT
MDDUJ9240103201810                D89828070200PV4U20180929000030SPEAKER ASM                   M IMCTM S0FR05 TNTH  09020IMCT  S0 PTB  00005                    0230 SR        000000000000 DENSO TEN (THAILAND)180LULU0064064                                                                                                                              *          20180925 IMCT                IMCT                                                                                                                    WMF1809254.TXT
MDDUJ9240104201810                D89828070200PV4U20181001000030SPEAKER ASM                   M IMCTM S0FR05 TNTH  09020IMCT  S0 PTB  00005                    0830 SR        000000000000 DENSO TEN (THAILAND)180LULU0065065                                                                                                                              *          20180925 IMCT                IMCT                                                                                                                    WMF1809254.TXT
MDDUJ9240105201810                D89828070300PT4U20180929000030SPEAKER ASM                   M IMCTM S9TS02 TNTH  09020IMCT  S9 PTB  00015                    0230 SR        000000000000 DENSO TEN (THAILAND)180LULU0064064                                                                                                                              *          20180925 IMCT                IMCT                                                                                                                    WMF1809254.TXT
MDDUJ9240106201810                D89828070300PT4U20181001000030SPEAKER ASM                   M IMCTM S9TS02 TNTH  09020IMCT  S9 PTB  00015                    0830 SR        000000000000 DENSO TEN (THAILAND)180LULU0065065                                                                                                                              *          20180925 IMCT                IMCT                                                                                                                    WMF1809254.TXT
MDEDJ9330073201810                D89828070100PV1D20180928000060SPEAKER ASM                   M IMCTM S5MB11 TNTH  09020IMCT  S5 PTB  00004                    2230 SR        000000000000 DENSO TEN (THAILAND)17075PL0144145                                                                                                                              *          20180925 IMCT                IMCT                                                                                                                    WMF1809254.TXT
MDEDJ9330074201810                D89828070100PV1D20180929000060SPEAKER ASM                   M IMCTM S5MB11 TNTH  09020IMCT  S5 PTB  00004                    0230 SR        000000000000 DENSO TEN (THAILAND)18098WL0014015                                                                                                                              *          20180925 IMCT                IMCT                                                                                                                    WMF1809254.TXT
MDEDJ9330075201810                D89828070100PV1D20181001000060SPEAKER ASM                   M IMCTM S5MB11 TNTH  09020IMCT  S5 PTB  00004                    0830 SR        000000000000 DENSO TEN (THAILAND)18098UL0073074                                                                                                                              *          20180925 IMCT                IMCT                                                                                                                    WMF1809254.TXT
MDEDJ9330076201810                D89828070100PV1D20181001000030SPEAKER ASM                   M IMCTM S5MB11 TNTH  09020IMCT  S5 PTB  00004                    1300 SR        000000000000 DENSO TEN (THAILAND)18098WL0016016                                                                                                                              *          20180925 IMCT                IMCT                                                                                                                    WMF1809254.TXT
MDEDJ9330077201810                D89828070200PV1D20181001000060SPEAKER ASM                   M IMCTM S5MA14 TNTH  09020IMCT  S5 PTB  00005                    0830 SR        000000000000 DENSO TEN (THAILAND)18098UL0073074                                                                                                                              *          20180925 IMCT                IMCT                                                                                                                    WMF1809254.TXT
MDEDJ9330078201810                D89828070300PT1D20181001000060SPEAKER ASM                   M IMCTM S5NB082TNTH  09020IMCT  S5 PTB  00015                    0830 SR        000000000000 DENSO TEN (THAILAND)18098UL0073074                                                                                                                              *          20180925 IMCT                IMCT                                                                                                                    WMF1809254.TXT
MDEDJ9330079201810                D89848581800PT1D20181001000030RADIO;AM/FM CD D              M IMCTM S5NC06 TNTH  09020IMCT  S5 PTB  00003                    0830 SR        000000000000 DENSO TEN (THAILAND)18098UL0073074                                                                                                                              *          20180925 IMCT                IMCT                                                                                                                    WMF1809254.TXT
MDEUJ9258750201810                D89828070100PT4U20180929000030SPEAKER ASM                   M IMCTM S0FL05 TNTH  09020IMCT  S0 PTB  00004                    0400 SR        000000000000 DENSO TEN (THAILAND)18020UU0127127                                                                                                                              *          20180925 IMCT                IMCT                                                                                                                    WMF1809254.TXT
MDEUJ9258751201810                D89828070100PT4U20181001000030SPEAKER ASM                   M IMCTM S0FL05 TNTH  09020IMCT  S0 PTB  00004                    1300 SR        000000000000 DENSO TEN (THAILAND)18015UU0048048                                                                                                                              *          20180925 IMCT                IMCT                                                                                                                    WMF1809254.TXT
MDEUJ9258752201810                D89828070100PT4U20181001000030SPEAKER ASM                   M IMCTM S0FL05 TNTH  09020IMCT  S0 PTB  00004                    2100 SR        000000000000 DENSO TEN (THAILAND)18021UU0194194                                                                                                                              *          20180925 IMCT                IMCT                                                                                                                    WMF1809254.TXT
MDEUJ9258753201810                D89828070200PV4U20180929000030SPEAKER ASM                   M IMCTM S0FR05 TNTH  09020IMCT  S0 PTB  00005                    0400 SR        000000000000 DENSO TEN (THAILAND)18020UU0127127                                                                                                                              *          20180925 IMCT                IMCT                                                                                                                    WMF1809254.TXT
MDEUJ9258754201810                D89828070200PV4U20181001000030SPEAKER ASM                   M IMCTM S0FR05 TNTH  09020IMCT  S0 PTB  00005                    1300 SR        000000000000 DENSO TEN (THAILAND)18015UU0048048                                                                                                                              *          20180925 IMCT                IMCT                                                                                                                    WMF1809254.TXT
MDEUJ9258755201810                D89828070200PV4U20181001000030SPEAKER ASM                   M IMCTM S0FR05 TNTH  09020IMCT  S0 PTB  00005                    2100 SR        000000000000 DENSO TEN (THAILAND)18021UU0194194                                                                                                                              *          20180925 IMCT                IMCT                                                                                                                    WMF1809254.TXT
MDEUJ9258756201810                D89828070300PT4U20180929000030SPEAKER ASM                   M IMCTM S9TS02 TNTH  09020IMCT  S9 PTB  00015                    0400 SR        000000000000 DENSO TEN (THAILAND)18020UU0127127                                                                                                                              *          20180925 IMCT                IMCT                                                                                                                    WMF1809254.TXT
MDEUJ9258757201810                D89828070300PT4U20181001000030SPEAKER ASM                   M IMCTM S9TS02 TNTH  09020IMCT  S9 PTB  00015                    1300 SR        000000000000 DENSO TEN (THAILAND)18015UU0048048                                                                                                                              *          20180925 IMCT                IMCT                                                                                                                    WMF1809254.TXT
MDEUJ9258758201810                D89828070300PT4U20181001000030SPEAKER ASM                   M IMCTM S9TS02 TNTH  09020IMCT  S9 PTB  00015                    2100 SR        000000000000 DENSO TEN (THAILAND)18021UU0194194                                                                                                                              *          20180925 IMCT                IMCT                                                                                                                    WMF1809254.TXT
