REC2018091920180919ISUZU                              65     
MDDDJ9260120201809                D89821984430PT1D20180923000030RADIO;AM/FM,CD                M IMCTM S5NC06 TNTH  09020IMCT  S5 PTB  00005                    0230 SR        000000000000 DENSO TEN (THAILAND)180LXEL0094094                                                                                                                              *          20180919 IMCT                IMCT                                                                                                                    WMF1809194.TXT
MDDDJ9260121201809                D89821984430PT1D20180923000030RADIO;AM/FM,CD                M IMCTM S5NC06 TNTH  09020IMCT  S5 PTB  00005                    0400 SR        000000000000 DENSO TEN (THAILAND)180LNGL0206206                                                                                                                              *          20180919 IMCT                IMCT                                                                                                                    WMF1809194.TXT
MDDDJ9260122201809                D89821984430PT1D20180924000030RADIO;AM/FM,CD                M IMCTM S5NC06 TNTH  09020IMCT  S5 PTB  00005                    1030 SR        000000000000 DENSO TEN (THAILAND)180LXCL0089089                                                                                                                              *          20180919 IMCT                IMCT                                                                                                                    WMF1809194.TXT
MDDDJ9260123201809                D89821984430PT1D20180924000030RADIO;AM/FM,CD                M IMCTM S5NC06 TNTH  09020IMCT  S5 PTB  00005                    2100 SR        000000000000 DENSO TEN (THAILAND)180LXFL0014014                                                                                                                              *          20180919 IMCT                IMCT                                                                                                                    WMF1809194.TXT
MDDDJ9260124201809                D89828070100PV1D20180923000060SPEAKER ASM                   M IMCTM S5MB11 TNTH  09020IMCT  S5 PTB  00004                    0230 SR        000000000000 DENSO TEN (THAILAND)180LXEL0094094                                                                                                                              *          20180919 IMCT                IMCT                                                                                                                    WMF1809194.TXT
MDDDJ9260125201809                D89828070100PV1D20180923000060SPEAKER ASM                   M IMCTM S5MB11 TNTH  09020IMCT  S5 PTB  00004                    0400 SR        000000000000 DENSO TEN (THAILAND)180LNGL0206206                                                                                                                              *          20180919 IMCT                IMCT                                                                                                                    WMF1809194.TXT
MDDDJ9260126201809                D89828070100PV1D20180924000060SPEAKER ASM                   M IMCTM S5MB11 TNTH  09020IMCT  S5 PTB  00004                    1030 SR        000000000000 DENSO TEN (THAILAND)180LXCL0089089                                                                                                                              *          20180919 IMCT                IMCT                                                                                                                    WMF1809194.TXT
MDDDJ9260127201809                D89828070100PV1D20180924000060SPEAKER ASM                   M IMCTM S5MB11 TNTH  09020IMCT  S5 PTB  00004                    1300 SR        000000000000 DENSO TEN (THAILAND)180LXAL0054054                                                                                                                              *          20180919 IMCT                IMCT                                                                                                                    WMF1809194.TXT
MDDDJ9260128201809                D89828070100PV1D20180924000060SPEAKER ASM                   M IMCTM S5MB11 TNTH  09020IMCT  S5 PTB  00004                    2100 SR        000000000000 DENSO TEN (THAILAND)180LXFL0014014                                                                                                                              *          20180919 IMCT                IMCT                                                                                                                    WMF1809194.TXT
MDDDJ9260129201809                D89828070100PV1D20180924000060SPEAKER ASM                   M IMCTM S5MB11 TNTH  09020IMCT  S5 PTB  00004                    2230 SR        000000000000 DENSO TEN (THAILAND)180LPCL0091091                                                                                                                              *          20180919 IMCT                IMCT                                                                                                                    WMF1809194.TXT
MDDDJ9260130201809                D89828070300PT1D20180924000060SPEAKER ASM                   M IMCTM S5NB082TNTH  09020IMCT  S5 PTB  00015                    2230 SR        000000000000 DENSO TEN (THAILAND)180LPCL0091091                                                                                                                              *          20180919 IMCT                IMCT                                                                                                                    WMF1809194.TXT
MDDDJ9260131201809                D89831228300PT1D20180924000030RADIO;AM/FM,CD                M IMCTM S5NC06 TNTH  09020IMCT  S5 CPB  00003                    2230 SR        000000000000 DENSO TEN (THAILAND)180LPCL0091091                                                                                                                              *          20180919 IMCT                IMCT                                                                                                                    WMF1809194.TXT
MDDUJ9229952201809                D89828070100PT4U20180922000030SPEAKER ASM                   M IMCTM S0FL05 TNTH  09020IMCT  S0 PTB  00004                    2230 SR        000000000000 DENSO TEN (THAILAND)180LUTU0122122                                                                                                                              *          20180919 IMCT                IMCT                                                                                                                    WMF1809194.TXT
MDDUJ9229953201809                D89828070100PT4U20180924000030SPEAKER ASM                   M IMCTM S0FL05 TNTH  09020IMCT  S0 PTB  00004                    0830 SR        000000000000 DENSO TEN (THAILAND)180LUSU0174174                                                                                                                              *          20180919 IMCT                IMCT                                                                                                                    WMF1809194.TXT
MDDUJ9229954201809                D89828070100PT4U20180924000030SPEAKER ASM                   M IMCTM S0FL05 TNTH  09020IMCT  S0 PTB  00004                    1300 SR        000000000000 DENSO TEN (THAILAND)180LUQU0074074                                                                                                                              *          20180919 IMCT                IMCT                                                                                                                    WMF1809194.TXT
MDDUJ9229955201809                D89828070100PT4U20180924000030SPEAKER ASM                   M IMCTM S0FL05 TNTH  09020IMCT  S0 PTB  00004                    2230 SR        000000000000 DENSO TEN (THAILAND)180LULU0063063                                                                                                                              *          20180919 IMCT                IMCT                                                                                                                    WMF1809194.TXT
MDDUJ9229956201809                D89828070200PV4U20180922000030SPEAKER ASM                   M IMCTM S0FR05 TNTH  09020IMCT  S0 PTB  00005                    2230 SR        000000000000 DENSO TEN (THAILAND)180LUTU0122122                                                                                                                              *          20180919 IMCT                IMCT                                                                                                                    WMF1809194.TXT
MDDUJ9229957201809                D89828070200PV4U20180924000030SPEAKER ASM                   M IMCTM S0FR05 TNTH  09020IMCT  S0 PTB  00005                    0830 SR        000000000000 DENSO TEN (THAILAND)180LUSU0174174                                                                                                                              *          20180919 IMCT                IMCT                                                                                                                    WMF1809194.TXT
MDDUJ9229958201809                D89828070200PV4U20180924000030SPEAKER ASM                   M IMCTM S0FR05 TNTH  09020IMCT  S0 PTB  00005                    1300 SR        000000000000 DENSO TEN (THAILAND)180LUQU0074074                                                                                                                              *          20180919 IMCT                IMCT                                                                                                                    WMF1809194.TXT
MDDUJ9229959201809                D89828070200PV4U20180924000030SPEAKER ASM                   M IMCTM S0FR05 TNTH  09020IMCT  S0 PTB  00005                    2230 SR        000000000000 DENSO TEN (THAILAND)180LULU0063063                                                                                                                              *          20180919 IMCT                IMCT                                                                                                                    WMF1809194.TXT
MDDUJ9229960201809                D89828070300PT4U20180922000030SPEAKER ASM                   M IMCTM S9TS02 TNTH  09020IMCT  S9 PTB  00015                    2230 SR        000000000000 DENSO TEN (THAILAND)180LUTU0122122                                                                                                                              *          20180919 IMCT                IMCT                                                                                                                    WMF1809194.TXT
MDDUJ9229961201809                D89828070300PT4U20180924000030SPEAKER ASM                   M IMCTM S9TS02 TNTH  09020IMCT  S9 PTB  00015                    0830 SR        000000000000 DENSO TEN (THAILAND)180LUSU0174174                                                                                                                              *          20180919 IMCT                IMCT                                                                                                                    WMF1809194.TXT
MDDUJ9229962201809                D89828070300PT4U20180924000030SPEAKER ASM                   M IMCTM S9TS02 TNTH  09020IMCT  S9 PTB  00015                    1300 SR        000000000000 DENSO TEN (THAILAND)180LUQU0074074                                                                                                                              *          20180919 IMCT                IMCT                                                                                                                    WMF1809194.TXT
MDDUJ9229963201809                D89828070300PT4U20180924000030SPEAKER ASM                   M IMCTM S9TS02 TNTH  09020IMCT  S9 PTB  00015                    2230 SR        000000000000 DENSO TEN (THAILAND)180LULU0063063                                                                                                                              *          20180919 IMCT                IMCT                                                                                                                    WMF1809194.TXT
MDDUJ9229964201809                D89848584200PT4U20180924000015RADIO;AM/FM CD D              M IMCTM S9CO001TNTH  09020IMCT  S9 PTB  00003                    1300 SR        000000000000 DENSO TEN (THAILAND)180LUQU0074074                                                                                                                              *          20180919 IMCT                IMCT                                                                                                                    WMF1809194.TXT
MDEDJ9292593201809                D89828070100PV1D20180922000090SPEAKER ASM                   M IMCTM S5MB11 TNTH  09020IMCT  S5 PTB  00004                    2230 SR        000000000000 DENSO TEN (THAILAND)17061PL002602618007YL0022023                                                                                                                *          20180919 IMCT                IMCT                                                                                                                    WMF1809194.TXT
MDEDJ9292594201809                D89828070100PV1D20180923000030SPEAKER ASM                   M IMCTM S5MB11 TNTH  09020IMCT  S5 PTB  00004                    0230 SR        000000000000 DENSO TEN (THAILAND)18082XL0015015                                                                                                                              *          20180919 IMCT                IMCT                                                                                                                    WMF1809194.TXT
MDEDJ9292595201809                D89828070100PV1D20180923000030SPEAKER ASM                   M IMCTM S5MB11 TNTH  09020IMCT  S5 PTB  00004                    0400 SR        000000000000 DENSO TEN (THAILAND)18082XL0016016                                                                                                                              *          20180919 IMCT                IMCT                                                                                                                    WMF1809194.TXT
MDEDJ9292596201809                D89828070100PV1D20180924000060SPEAKER ASM                   M IMCTM S5MB11 TNTH  09020IMCT  S5 PTB  00004                    0830 SR        000000000000 DENSO TEN (THAILAND)17050RL0048049                                                                                                                              *          20180919 IMCT                IMCT                                                                                                                    WMF1809194.TXT
MDEDJ9292597201809                D89828070100PV1D20180924000090SPEAKER ASM                   M IMCTM S5MB11 TNTH  09020IMCT  S5 PTB  00004                    1300 SR        000000000000 DENSO TEN (THAILAND)18029XL001101218068UL0017017                                                                                                                *          20180919 IMCT                IMCT                                                                                                                    WMF1809194.TXT
MDEDJ9292598201809                D89828070100PV1D20180924000060SPEAKER ASM                   M IMCTM S5MB11 TNTH  09020IMCT  S5 PTB  00004                    1600 SR        000000000000 DENSO TEN (THAILAND)18099XL0009010                                                                                                                              *          20180919 IMCT                IMCT                                                                                                                    WMF1809194.TXT
MDEDJ9292599201809                D89828070100PV4D20180923000030SPEAKER ASM                   M IMCTM S0FL05 TNTH  09020IMCT  S0 PTB  00004                    0230 SR        000000000000 DENSO TEN (THAILAND)18098UU0047047                                                                                                                              *          20180919 IMCT                IMCT                                                                                                                    WMF1809194.TXT
MDEDJ9292600201809                D89828070100PV4D20180923000030SPEAKER ASM                   M IMCTM S0FL05 TNTH  09020IMCT  S0 PTB  00004                    0400 SR        000000000000 DENSO TEN (THAILAND)18099UU0045045                                                                                                                              *          20180919 IMCT                IMCT                                                                                                                    WMF1809194.TXT
MDEDJ9292601201809                D89828070100PV4D20180924000030SPEAKER ASM                   M IMCTM S0FL05 TNTH  09020IMCT  S0 PTB  00004                    1300 SR        000000000000 DENSO TEN (THAILAND)18082UU0025025                                                                                                                              *          20180919 IMCT                IMCT                                                                                                                    WMF1809194.TXT
MDEDJ9292602201809                D89828070100PV4D20180924000030SPEAKER ASM                   M IMCTM S0FL05 TNTH  09020IMCT  S0 PTB  00004                    2100 SR        000000000000 DENSO TEN (THAILAND)18098UU0048048                                                                                                                              *          20180919 IMCT                IMCT                                                                                                                    WMF1809194.TXT
MDEDJ9292603201809                D89828070200PV1D20180922000060SPEAKER ASM                   M IMCTM S5MA14 TNTH  09020IMCT  S5 PTB  00005                    2230 SR        000000000000 DENSO TEN (THAILAND)18007YL0022023                                                                                                                              *          20180919 IMCT                IMCT                                                                                                                    WMF1809194.TXT
MDEDJ9292604201809                D89828070200PV1D20180924000060SPEAKER ASM                   M IMCTM S5MA14 TNTH  09020IMCT  S5 PTB  00005                    0830 SR        000000000000 DENSO TEN (THAILAND)17050RL0048049                                                                                                                              *          20180919 IMCT                IMCT                                                                                                                    WMF1809194.TXT
MDEDJ9292605201809                D89828070200PV1D20180924000030SPEAKER ASM                   M IMCTM S5MA14 TNTH  09020IMCT  S5 PTB  00005                    1300 SR        000000000000 DENSO TEN (THAILAND)18068UL0017017                                                                                                                              *          20180919 IMCT                IMCT                                                                                                                    WMF1809194.TXT
MDEDJ9292606201809                D89828070200PV1D20180924000060SPEAKER ASM                   M IMCTM S5MA14 TNTH  09020IMCT  S5 PTB  00005                    1600 SR        000000000000 DENSO TEN (THAILAND)18099XL0009010                                                                                                                              *          20180919 IMCT                IMCT                                                                                                                    WMF1809194.TXT
MDEDJ9292607201809                D89828070200PV4D20180923000030SPEAKER ASM                   M IMCTM S0FR05 TNTH  09020IMCT  S0 PTB  00005                    0230 SR        000000000000 DENSO TEN (THAILAND)18098UU0047047                                                                                                                              *          20180919 IMCT                IMCT                                                                                                                    WMF1809194.TXT
MDEDJ9292608201809                D89828070200PV4D20180923000030SPEAKER ASM                   M IMCTM S0FR05 TNTH  09020IMCT  S0 PTB  00005                    0400 SR        000000000000 DENSO TEN (THAILAND)18099UU0045045                                                                                                                              *          20180919 IMCT                IMCT                                                                                                                    WMF1809194.TXT
MDEDJ9292609201809                D89828070200PV4D20180924000030SPEAKER ASM                   M IMCTM S0FR05 TNTH  09020IMCT  S0 PTB  00005                    1300 SR        000000000000 DENSO TEN (THAILAND)18082UU0025025                                                                                                                              *          20180919 IMCT                IMCT                                                                                                                    WMF1809194.TXT
MDEDJ9292610201809                D89828070200PV4D20180924000030SPEAKER ASM                   M IMCTM S0FR05 TNTH  09020IMCT  S0 PTB  00005                    2100 SR        000000000000 DENSO TEN (THAILAND)18098UU0048048                                                                                                                              *          20180919 IMCT                IMCT                                                                                                                    WMF1809194.TXT
MDEDJ9292611201809                D89828070300PT1D20180922000060SPEAKER ASM                   M IMCTM S5NB082TNTH  09020IMCT  S5 PTB  00015                    2230 SR        000000000000 DENSO TEN (THAILAND)18007YL0022023                                                                                                                              *          20180919 IMCT                IMCT                                                                                                                    WMF1809194.TXT
MDEDJ9292612201809                D89828070300PT1D20180924000060SPEAKER ASM                   M IMCTM S5NB082TNTH  09020IMCT  S5 PTB  00015                    0830 SR        000000000000 DENSO TEN (THAILAND)17050RL0048049                                                                                                                              *          20180919 IMCT                IMCT                                                                                                                    WMF1809194.TXT
MDEDJ9292613201809                D89828070300PT1D20180924000090SPEAKER ASM                   M IMCTM S5NB082TNTH  09020IMCT  S5 PTB  00015                    1300 SR        000000000000 DENSO TEN (THAILAND)18029XL001101218068UL0017017                                                                                                                *          20180919 IMCT                IMCT                                                                                                                    WMF1809194.TXT
MDEDJ9292614201809                D89828070300PT1D20180924000060SPEAKER ASM                   M IMCTM S5NB082TNTH  09020IMCT  S5 PTB  00015                    1600 SR        000000000000 DENSO TEN (THAILAND)18099XL0009010                                                                                                                              *          20180919 IMCT                IMCT                                                                                                                    WMF1809194.TXT
MDEDJ9292615201809                D89828070300PT4D20180923000030SPEAKER ASM                   M IMCTM S9TS02 TNTH  09020IMCT  S9 PTB  00015                    0230 SR        000000000000 DENSO TEN (THAILAND)18098UU0047047                                                                                                                              *          20180919 IMCT                IMCT                                                                                                                    WMF1809194.TXT
MDEDJ9292616201809                D89828070300PT4D20180923000030SPEAKER ASM                   M IMCTM S9TS02 TNTH  09020IMCT  S9 PTB  00015                    0400 SR        000000000000 DENSO TEN (THAILAND)18099UU0045045                                                                                                                              *          20180919 IMCT                IMCT                                                                                                                    WMF1809194.TXT
MDEDJ9292617201809                D89828070300PT4D20180924000030SPEAKER ASM                   M IMCTM S9TS02 TNTH  09020IMCT  S9 PTB  00015                    1300 SR        000000000000 DENSO TEN (THAILAND)18082UU0025025                                                                                                                              *          20180919 IMCT                IMCT                                                                                                                    WMF1809194.TXT
MDEDJ9292618201809                D89828070300PT4D20180924000030SPEAKER ASM                   M IMCTM S9TS02 TNTH  09020IMCT  S9 PTB  00015                    2100 SR        000000000000 DENSO TEN (THAILAND)18098UU0048048                                                                                                                              *          20180919 IMCT                IMCT                                                                                                                    WMF1809194.TXT
MDEDJ9292619201809                D89829645420PT1D20180924000030RADIO;ASM DVD                 M IMCTM S55000 TNTH  09020IMCT  S5*PTB  00003                    0830 SR        000000000000 DENSO TEN (THAILAND)17050RL0048049                                                                                                                              *          20180919 IMCT                IMCT                                                                                                                    WMF1809194.TXT
MDEDJ9292620201809                D89848581800PT4D20180923000015RADIO;AM/FM CD D              M IMCTM S9CO001TNTH  09020IMCT  S9 PTB  00003                    0230 SR        000000000000 DENSO TEN (THAILAND)18098UU0047047                                                                                                                              *          20180919 IMCT                IMCT                                                                                                                    WMF1809194.TXT
MDEDJ9292621201809                D89848581800PT4D20180924000015RADIO;AM/FM CD D              M IMCTM S9CO001TNTH  09020IMCT  S9 PTB  00003                    1300 SR        000000000000 DENSO TEN (THAILAND)18082UU0025025                                                                                                                              *          20180919 IMCT                IMCT                                                                                                                    WMF1809194.TXT
MDEDJ9292622201809                D89848581800PT4D20180924000015RADIO;AM/FM CD D              M IMCTM S9CO001TNTH  09020IMCT  S9 PTB  00003                    2100 SR        000000000000 DENSO TEN (THAILAND)18098UU0048048                                                                                                                              *          20180919 IMCT                IMCT                                                                                                                    WMF1809194.TXT
MDEUJ9241437201809                D89828070100PT4U20180923000030SPEAKER ASM                   M IMCTM S0FL05 TNTH  09020IMCT  S0 PTB  00004                    0400 SR        000000000000 DENSO TEN (THAILAND)18021UU0187187                                                                                                                              *          20180919 IMCT                IMCT                                                                                                                    WMF1809194.TXT
MDEUJ9241438201809                D89828070100PT4U20180924000030SPEAKER ASM                   M IMCTM S0FL05 TNTH  09020IMCT  S0 PTB  00004                    1300 SR        000000000000 DENSO TEN (THAILAND)18020UU0122122                                                                                                                              *          20180919 IMCT                IMCT                                                                                                                    WMF1809194.TXT
MDEUJ9241439201809                D89828070100PT4U20180924000030SPEAKER ASM                   M IMCTM S0FL05 TNTH  09020IMCT  S0 PTB  00004                    1600 SR        000000000000 DENSO TEN (THAILAND)18031TU0003003                                                                                                                              *          20180919 IMCT                IMCT                                                                                                                    WMF1809194.TXT
MDEUJ9241440201809                D89828070200PV4U20180923000030SPEAKER ASM                   M IMCTM S0FR05 TNTH  09020IMCT  S0 PTB  00005                    0400 SR        000000000000 DENSO TEN (THAILAND)18021UU0187187                                                                                                                              *          20180919 IMCT                IMCT                                                                                                                    WMF1809194.TXT
MDEUJ9241441201809                D89828070200PV4U20180924000030SPEAKER ASM                   M IMCTM S0FR05 TNTH  09020IMCT  S0 PTB  00005                    1300 SR        000000000000 DENSO TEN (THAILAND)18020UU0122122                                                                                                                              *          20180919 IMCT                IMCT                                                                                                                    WMF1809194.TXT
MDEUJ9241442201809                D89828070200PV4U20180924000030SPEAKER ASM                   M IMCTM S0FR05 TNTH  09020IMCT  S0 PTB  00005                    1600 SR        000000000000 DENSO TEN (THAILAND)18031TU0003003                                                                                                                              *          20180919 IMCT                IMCT                                                                                                                    WMF1809194.TXT
MDEUJ9241443201809                D89828070300PT4U20180923000030SPEAKER ASM                   M IMCTM S9TS02 TNTH  09020IMCT  S9 PTB  00015                    0400 SR        000000000000 DENSO TEN (THAILAND)18021UU0187187                                                                                                                              *          20180919 IMCT                IMCT                                                                                                                    WMF1809194.TXT
MDEUJ9241444201809                D89828070300PT4U20180924000030SPEAKER ASM                   M IMCTM S9TS02 TNTH  09020IMCT  S9 PTB  00015                    1300 SR        000000000000 DENSO TEN (THAILAND)18020UU0122122                                                                                                                              *          20180919 IMCT                IMCT                                                                                                                    WMF1809194.TXT
MDEUJ9241445201809                D89828070300PT4U20180924000030SPEAKER ASM                   M IMCTM S9TS02 TNTH  09020IMCT  S9 PTB  00015                    1600 SR        000000000000 DENSO TEN (THAILAND)18031TU0003003                                                                                                                              *          20180919 IMCT                IMCT                                                                                                                    WMF1809194.TXT
MDEUJ9241446201809                D89831229200PT4U20180924000015RADIO;AM/FM,CD                M IMCTM S9CO001TNTH  09020IMCT  S9 PTB  00003                    1600 SR        000000000000 DENSO TEN (THAILAND)18031TU0003003                                                                                                                              *          20180919 IMCT                IMCT                                                                                                                    WMF1809194.TXT
