REC2018091020180910ISUZU                              5      
MDEFJ9T07147201809                D89828070100PV4F20180914000028SPEAKER ASM                   M IMCTM S7FL05 TNTH  09020IMCT  S7 PTB  00004                    1030 SR        000000000000 DENSO TEN (THAILAND)17017QR0086   17028RR0182   S180903102    S180903115    000000                                                                              *R         20180910 IMCT                IMCT                                                                                                                    RMF1809104.TXT
MDEFJ9T07148201809                D89828070200PV4F20180913000030SPEAKER ASM                   M IMCTM S7FL05 TNTH  09020IMCT  S7 PTB  00005                    2230 SR        000000000000 DENSO TEN (THAILAND)17010QR0042   18058WR0030   D180903001    D180903015    000000                                                                              *R         20180910 IMCT                IMCT                                                                                                                    RMF1809104.TXT
MDEFJ9T07149201809                D89828070300PT4F20180913000030SPEAKER ASM                   M IMCTM S7TS02 TNTH  09020IMCT  S7 PTB  00015                    2230 SR        000000000000 DENSO TEN (THAILAND)17010QR0042   18058WR0030   D180903001    D180903015    000000                                                                              *R         20180910 IMCT                IMCT                                                                                                                    RMF1809104.TXT
MDEFJ9T07150201809                D89831229200PT4F20180913000012RADIO;AM/FM,CD                M IMCTM S7TS03 TNTH  09020IMCT  S7 PTB  00003                    2230 SR        000000000000 DENSO TEN (THAILAND)17010QR0042   17014QR0093   D180903001    D180903012    000000                                                                              *R         20180910 IMCT                IMCT                                                                                                                    RMF1809104.TXT
MDEFJ9217712201809                D89828070100PV4F20180913000032SPEAKER ASM                   M IMCTM S7FL05 TNTH  09020IMCT  S7 PTB  00004                    2230 SR        000000000000 DENSO TEN (THAILAND)17010QR0042   17028RR0173   D180903001    S180903101    000000                                                                              *R         20180910 IMCT                IMCT                                                                                                                    RMF1809104.TXT
